{
  "contractName": "AccessControl",
  "sourceName": "src/contracts/acl/AccessControl.sol",
  "abi": [
    {
      "inputs": [],
      "stateMutability": "nonpayable",
      "type": "constructor"
    },
    {
      "anonymous": false,
      "inputs": [
        {
          "indexed": true,
          "internalType": "address",
          "name": "sender",
          "type": "address"
        },
        {
          "indexed": true,
          "internalType": "bytes32",
          "name": "agentId",
          "type": "bytes32"
        },
        {
          "indexed": true,
          "internalType": "bytes32",
          "name": "policyId",
          "type": "bytes32"
        },
        {
          "indexed": false,
          "internalType": "enum IACLCommons.ActionType",
          "name": "action",
          "type": "uint8"
        }
      ],
      "name": "AgentReferredByPolicyUpdated",
      "type": "event"
    },
    {
      "anonymous": false,
      "inputs": [
        {
          "indexed": true,
          "internalType": "address",
          "name": "sender",
          "type": "address"
        },
        {
          "indexed": true,
          "internalType": "bytes32",
          "name": "agentId",
          "type": "bytes32"
        },
        {
          "indexed": true,
          "internalType": "bytes32",
          "name": "scopeId",
          "type": "bytes32"
        },
        {
          "indexed": false,
          "internalType": "enum IACLCommons.ActionType",
          "name": "action",
          "type": "uint8"
        }
      ],
      "name": "AgentReferredByScopeUpdated",
      "type": "event"
    },
    {
      "anonymous": false,
      "inputs": [
        {
          "indexed": true,
          "internalType": "address",
          "name": "sender",
          "type": "address"
        },
        {
          "indexed": true,
          "internalType": "address",
          "name": "proxy",
          "type": "address"
        },
        {
          "indexed": true,
          "internalType": "address",
          "name": "subject",
          "type": "address"
        },
        {
          "indexed": false,
          "internalType": "string",
          "name": "name",
          "type": "string"
        },
        {
          "indexed": false,
          "internalType": "string",
          "name": "version",
          "type": "string"
        },
        {
          "indexed": false,
          "internalType": "uint16",
          "name": "initCount",
          "type": "uint16"
        }
      ],
      "name": "Initialized",
      "type": "event"
    },
    {
      "anonymous": false,
      "inputs": [
        {
          "indexed": true,
          "internalType": "address",
          "name": "sender",
          "type": "address"
        },
        {
          "indexed": true,
          "internalType": "address",
          "name": "proxy",
          "type": "address"
        },
        {
          "indexed": false,
          "internalType": "address",
          "name": "acl",
          "type": "address"
        }
      ],
      "name": "ProxyAccessControlUpdated",
      "type": "event"
    },
    {
      "anonymous": false,
      "inputs": [
        {
          "indexed": true,
          "internalType": "address",
          "name": "sender",
          "type": "address"
        },
        {
          "indexed": true,
          "internalType": "address",
          "name": "proxy",
          "type": "address"
        },
        {
          "indexed": false,
          "internalType": "address",
          "name": "newAdmin",
          "type": "address"
        }
      ],
      "name": "ProxyLocalAdminUpdated",
      "type": "event"
    },
    {
      "anonymous": false,
      "inputs": [
        {
          "indexed": true,
          "internalType": "address",
          "name": "sender",
          "type": "address"
        },
        {
          "indexed": true,
          "internalType": "address",
          "name": "proxy",
          "type": "address"
        },
        {
          "indexed": false,
          "internalType": "enum IBaseProxy.ProxySafeModeStatus",
          "name": "sstat",
          "type": "uint8"
        }
      ],
      "name": "ProxySafeModeUpdated",
      "type": "event"
    },
    {
      "anonymous": false,
      "inputs": [
        {
          "indexed": true,
          "internalType": "address",
          "name": "sender",
          "type": "address"
        },
        {
          "indexed": true,
          "internalType": "address",
          "name": "proxy",
          "type": "address"
        },
        {
          "indexed": false,
          "internalType": "enum IBaseProxy.ProxyUpgradabilityStatus",
          "name": "ustat",
          "type": "uint8"
        }
      ],
      "name": "ProxyUpdatabilityUpdated",
      "type": "event"
    },
    {
      "anonymous": false,
      "inputs": [
        {
          "indexed": true,
          "internalType": "address",
          "name": "sender",
          "type": "address"
        },
        {
          "indexed": true,
          "internalType": "address",
          "name": "proxy",
          "type": "address"
        },
        {
          "indexed": true,
          "internalType": "address",
          "name": "newImplementation",
          "type": "address"
        }
      ],
      "name": "ProxyUpgraded",
      "type": "event"
    },
    {
      "anonymous": false,
      "inputs": [
        {
          "indexed": true,
          "internalType": "address",
          "name": "sender",
          "type": "address"
        },
        {
          "indexed": true,
          "internalType": "bytes32",
          "name": "scopeId",
          "type": "bytes32"
        },
        {
          "indexed": true,
          "internalType": "bytes32",
          "name": "agentId",
          "type": "bytes32"
        },
        {
          "indexed": false,
          "internalType": "enum IACLCommons.ActionType",
          "name": "action",
          "type": "uint8"
        }
      ],
      "name": "ScopeReferredByAgentUpdated",
      "type": "event"
    },
    {
      "anonymous": false,
      "inputs": [
        {
          "indexed": true,
          "internalType": "address",
          "name": "sender",
          "type": "address"
        },
        {
          "indexed": true,
          "internalType": "bytes32",
          "name": "scopeId",
          "type": "bytes32"
        },
        {
          "indexed": true,
          "internalType": "bytes32",
          "name": "policyId",
          "type": "bytes32"
        },
        {
          "indexed": false,
          "internalType": "enum IACLCommons.ActionType",
          "name": "action",
          "type": "uint8"
        }
      ],
      "name": "ScopeReferredByPolicyUpdated",
      "type": "event"
    },
    {
      "stateMutability": "payable",
      "type": "fallback"
    },
    {
      "inputs": [],
      "name": "CTX_MESSAGE_TYPEHASH",
      "outputs": [
        {
          "internalType": "bytes32",
          "name": "",
          "type": "bytes32"
        }
      ],
      "stateMutability": "view",
      "type": "function"
    },
    {
      "inputs": [],
      "name": "FUNCTION_MESSAGE_TYPEHASH",
      "outputs": [
        {
          "internalType": "bytes32",
          "name": "",
          "type": "bytes32"
        }
      ],
      "stateMutability": "view",
      "type": "function"
    },
    {
      "inputs": [],
      "name": "PREDICT_CTX_MESSAGE_TYPEHASH",
      "outputs": [
        {
          "internalType": "bytes32",
          "name": "",
          "type": "bytes32"
        }
      ],
      "stateMutability": "view",
      "type": "function"
    },
    {
      "inputs": [],
      "name": "TYPE_HASH",
      "outputs": [
        {
          "internalType": "bytes32",
          "name": "",
          "type": "bytes32"
        }
      ],
      "stateMutability": "view",
      "type": "function"
    },
    {
      "inputs": [],
      "name": "accessControlManager",
      "outputs": [
        {
          "internalType": "address",
          "name": "",
          "type": "address"
        }
      ],
      "stateMutability": "view",
      "type": "function"
    },
    {
      "inputs": [],
      "name": "contractName",
      "outputs": [
        {
          "internalType": "string",
          "name": "",
          "type": "string"
        }
      ],
      "stateMutability": "view",
      "type": "function"
    },
    {
      "inputs": [],
      "name": "contractVersion",
      "outputs": [
        {
          "internalType": "string",
          "name": "",
          "type": "string"
        }
      ],
      "stateMutability": "view",
      "type": "function"
    },
    {
      "inputs": [],
      "name": "domainSeparator",
      "outputs": [
        {
          "internalType": "bytes32",
          "name": "",
          "type": "bytes32"
        }
      ],
      "stateMutability": "view",
      "type": "function"
    },
    {
      "inputs": [
        {
          "internalType": "bytes32",
          "name": "agentId",
          "type": "bytes32"
        }
      ],
      "name": "getAgentBaseInfo",
      "outputs": [
        {
          "components": [
            {
              "internalType": "bytes32",
              "name": "adminId",
              "type": "bytes32"
            },
            {
              "internalType": "enum IACLCommons.AgentType",
              "name": "atype",
              "type": "uint8"
            },
            {
              "internalType": "enum IACLCommons.ActivityStatus",
              "name": "acstat",
              "type": "uint8"
            },
            {
              "internalType": "enum IACLCommons.AlterabilityStatus",
              "name": "alstat",
              "type": "uint8"
            },
            {
              "internalType": "uint16",
              "name": "referredByScope",
              "type": "uint16"
            },
            {
              "internalType": "uint16",
              "name": "referredByPolicy",
              "type": "uint16"
            },
            {
              "internalType": "uint16",
              "name": "scopeLimit",
              "type": "uint16"
            }
          ],
          "internalType": "struct IACLCommons.BaseAgent",
          "name": "",
          "type": "tuple"
        }
      ],
      "stateMutability": "view",
      "type": "function"
    },
    {
      "inputs": [],
      "name": "getAgentMasterAdminRole",
      "outputs": [
        {
          "internalType": "bytes32",
          "name": "",
          "type": "bytes32"
        }
      ],
      "stateMutability": "pure",
      "type": "function"
    },
    {
      "inputs": [],
      "name": "getAgentMasterType",
      "outputs": [
        {
          "internalType": "bytes32",
          "name": "",
          "type": "bytes32"
        }
      ],
      "stateMutability": "pure",
      "type": "function"
    },
    {
      "inputs": [],
      "name": "getAnonymousType",
      "outputs": [
        {
          "internalType": "bytes32",
          "name": "",
          "type": "bytes32"
        }
      ],
      "stateMutability": "pure",
      "type": "function"
    },
    {
      "inputs": [],
      "name": "getAnyType",
      "outputs": [
        {
          "internalType": "bytes32",
          "name": "",
          "type": "bytes32"
        }
      ],
      "stateMutability": "pure",
      "type": "function"
    },
    {
      "inputs": [],
      "name": "getGlobalScope",
      "outputs": [
        {
          "internalType": "bytes32",
          "name": "",
          "type": "bytes32"
        }
      ],
      "stateMutability": "pure",
      "type": "function"
    },
    {
      "inputs": [],
      "name": "getLivelyMasterAdminRole",
      "outputs": [
        {
          "internalType": "bytes32",
          "name": "",
          "type": "bytes32"
        }
      ],
      "stateMutability": "pure",
      "type": "function"
    },
    {
      "inputs": [],
      "name": "getLivelyMasterType",
      "outputs": [
        {
          "internalType": "bytes32",
          "name": "",
          "type": "bytes32"
        }
      ],
      "stateMutability": "pure",
      "type": "function"
    },
    {
      "inputs": [],
      "name": "getPolicyMasterAdminRole",
      "outputs": [
        {
          "internalType": "bytes32",
          "name": "",
          "type": "bytes32"
        }
      ],
      "stateMutability": "pure",
      "type": "function"
    },
    {
      "inputs": [],
      "name": "getPolicyMasterType",
      "outputs": [
        {
          "internalType": "bytes32",
          "name": "",
          "type": "bytes32"
        }
      ],
      "stateMutability": "pure",
      "type": "function"
    },
    {
      "inputs": [
        {
          "internalType": "bytes32",
          "name": "scopeId",
          "type": "bytes32"
        }
      ],
      "name": "getScopeBaseInfo",
      "outputs": [
        {
          "components": [
            {
              "internalType": "bytes32",
              "name": "adminId",
              "type": "bytes32"
            },
            {
              "internalType": "enum IACLCommons.ScopeType",
              "name": "stype",
              "type": "uint8"
            },
            {
              "internalType": "enum IACLCommons.ActivityStatus",
              "name": "acstat",
              "type": "uint8"
            },
            {
              "internalType": "enum IACLCommons.AlterabilityStatus",
              "name": "alstat",
              "type": "uint8"
            },
            {
              "internalType": "uint16",
              "name": "referredByAgent",
              "type": "uint16"
            },
            {
              "internalType": "uint16",
              "name": "referredByPolicy",
              "type": "uint16"
            },
            {
              "internalType": "uint16",
              "name": "agentLimit",
              "type": "uint16"
            }
          ],
          "internalType": "struct IACLCommons.BaseScope",
          "name": "",
          "type": "tuple"
        }
      ],
      "stateMutability": "view",
      "type": "function"
    },
    {
      "inputs": [],
      "name": "getScopeMasterAdminRole",
      "outputs": [
        {
          "internalType": "bytes32",
          "name": "",
          "type": "bytes32"
        }
      ],
      "stateMutability": "pure",
      "type": "function"
    },
    {
      "inputs": [],
      "name": "getScopeMasterType",
      "outputs": [
        {
          "internalType": "bytes32",
          "name": "",
          "type": "bytes32"
        }
      ],
      "stateMutability": "pure",
      "type": "function"
    },
    {
      "inputs": [],
      "name": "getSystemMasterAdminRole",
      "outputs": [
        {
          "internalType": "bytes32",
          "name": "",
          "type": "bytes32"
        }
      ],
      "stateMutability": "pure",
      "type": "function"
    },
    {
      "inputs": [],
      "name": "getSystemMasterType",
      "outputs": [
        {
          "internalType": "bytes32",
          "name": "",
          "type": "bytes32"
        }
      ],
      "stateMutability": "pure",
      "type": "function"
    },
    {
      "inputs": [
        {
          "internalType": "bytes32",
          "name": "functionId",
          "type": "bytes32"
        }
      ],
      "name": "hasAccess",
      "outputs": [
        {
          "internalType": "bool",
          "name": "",
          "type": "bool"
        }
      ],
      "stateMutability": "view",
      "type": "function"
    },
    {
      "inputs": [
        {
          "internalType": "bytes32",
          "name": "agentId",
          "type": "bytes32"
        },
        {
          "internalType": "bytes32",
          "name": "functionId",
          "type": "bytes32"
        }
      ],
      "name": "hasAccessToAgent",
      "outputs": [
        {
          "internalType": "bool",
          "name": "",
          "type": "bool"
        }
      ],
      "stateMutability": "view",
      "type": "function"
    },
    {
      "inputs": [
        {
          "internalType": "address",
          "name": "contractId",
          "type": "address"
        },
        {
          "internalType": "bytes4",
          "name": "selector",
          "type": "bytes4"
        }
      ],
      "name": "hasCSAccess",
      "outputs": [
        {
          "internalType": "bool",
          "name": "",
          "type": "bool"
        }
      ],
      "stateMutability": "view",
      "type": "function"
    },
    {
      "inputs": [
        {
          "internalType": "bytes32",
          "name": "agentId",
          "type": "bytes32"
        },
        {
          "internalType": "address",
          "name": "contractId",
          "type": "address"
        },
        {
          "internalType": "bytes4",
          "name": "selector",
          "type": "bytes4"
        }
      ],
      "name": "hasCSAccessToAgent",
      "outputs": [
        {
          "internalType": "bool",
          "name": "",
          "type": "bool"
        }
      ],
      "stateMutability": "view",
      "type": "function"
    },
    {
      "inputs": [
        {
          "internalType": "address",
          "name": "contractId",
          "type": "address"
        },
        {
          "internalType": "bytes4",
          "name": "selector",
          "type": "bytes4"
        },
        {
          "internalType": "bytes32",
          "name": "memberId",
          "type": "bytes32"
        }
      ],
      "name": "hasCSMAccess",
      "outputs": [
        {
          "internalType": "bool",
          "name": "",
          "type": "bool"
        }
      ],
      "stateMutability": "view",
      "type": "function"
    },
    {
      "inputs": [
        {
          "internalType": "bytes32",
          "name": "agentId",
          "type": "bytes32"
        },
        {
          "internalType": "address",
          "name": "contractId",
          "type": "address"
        },
        {
          "internalType": "bytes4",
          "name": "selector",
          "type": "bytes4"
        },
        {
          "internalType": "bytes32",
          "name": "memberId",
          "type": "bytes32"
        }
      ],
      "name": "hasCSMAccessToAgent",
      "outputs": [
        {
          "internalType": "bool",
          "name": "",
          "type": "bool"
        }
      ],
      "stateMutability": "view",
      "type": "function"
    },
    {
      "inputs": [
        {
          "internalType": "bytes32",
          "name": "memberId",
          "type": "bytes32"
        },
        {
          "internalType": "bytes32",
          "name": "functionId",
          "type": "bytes32"
        }
      ],
      "name": "hasMemberAccess",
      "outputs": [
        {
          "internalType": "bool",
          "name": "",
          "type": "bool"
        }
      ],
      "stateMutability": "view",
      "type": "function"
    },
    {
      "inputs": [
        {
          "internalType": "bytes32",
          "name": "agentId",
          "type": "bytes32"
        },
        {
          "internalType": "bytes32",
          "name": "functionId",
          "type": "bytes32"
        },
        {
          "internalType": "bytes32",
          "name": "memberId",
          "type": "bytes32"
        }
      ],
      "name": "hasMemberAccessToAgent",
      "outputs": [
        {
          "internalType": "bool",
          "name": "",
          "type": "bool"
        }
      ],
      "stateMutability": "view",
      "type": "function"
    },
    {
      "inputs": [],
      "name": "initVersion",
      "outputs": [
        {
          "internalType": "uint16",
          "name": "",
          "type": "uint16"
        }
      ],
      "stateMutability": "view",
      "type": "function"
    },
    {
      "inputs": [
        {
          "internalType": "string",
          "name": "contractName",
          "type": "string"
        },
        {
          "internalType": "string",
          "name": "contractVersion",
          "type": "string"
        },
        {
          "internalType": "address",
          "name": "accessControlManager",
          "type": "address"
        }
      ],
      "name": "initialize",
      "outputs": [],
      "stateMutability": "nonpayable",
      "type": "function"
    },
    {
      "inputs": [
        {
          "internalType": "bytes32",
          "name": "agentId",
          "type": "bytes32"
        }
      ],
      "name": "isAgentExist",
      "outputs": [
        {
          "internalType": "bool",
          "name": "",
          "type": "bool"
        }
      ],
      "stateMutability": "view",
      "type": "function"
    },
    {
      "inputs": [
        {
          "internalType": "bytes32",
          "name": "scopeId",
          "type": "bytes32"
        }
      ],
      "name": "isScopeExist",
      "outputs": [
        {
          "internalType": "bool",
          "name": "",
          "type": "bool"
        }
      ],
      "stateMutability": "view",
      "type": "function"
    },
    {
      "inputs": [
        {
          "internalType": "bytes32",
          "name": "destScopeId",
          "type": "bytes32"
        },
        {
          "internalType": "bytes32",
          "name": "srcScopeId",
          "type": "bytes32"
        }
      ],
      "name": "isScopesCompatible",
      "outputs": [
        {
          "internalType": "bool",
          "name": "",
          "type": "bool"
        }
      ],
      "stateMutability": "view",
      "type": "function"
    },
    {
      "inputs": [],
      "name": "localAdmin",
      "outputs": [
        {
          "internalType": "address",
          "name": "",
          "type": "address"
        }
      ],
      "stateMutability": "view",
      "type": "function"
    },
    {
      "inputs": [],
      "name": "proxiableUUID",
      "outputs": [
        {
          "internalType": "bytes32",
          "name": "",
          "type": "bytes32"
        }
      ],
      "stateMutability": "view",
      "type": "function"
    },
    {
      "inputs": [],
      "name": "proxyInfo",
      "outputs": [
        {
          "components": [
            {
              "internalType": "bytes32",
              "name": "domainSeparator",
              "type": "bytes32"
            },
            {
              "internalType": "string",
              "name": "name",
              "type": "string"
            },
            {
              "internalType": "string",
              "name": "version",
              "type": "string"
            },
            {
              "internalType": "address",
              "name": "acl",
              "type": "address"
            },
            {
              "internalType": "address",
              "name": "subject",
              "type": "address"
            },
            {
              "internalType": "address",
              "name": "localAdmin",
              "type": "address"
            },
            {
              "internalType": "uint16",
              "name": "initVersion",
              "type": "uint16"
            },
            {
              "internalType": "enum IBaseProxy.ProxySafeModeStatus",
              "name": "sstat",
              "type": "uint8"
            },
            {
              "internalType": "enum IBaseProxy.ProxyUpgradabilityStatus",
              "name": "ustat",
              "type": "uint8"
            }
          ],
          "internalType": "struct IProxy.ProxyInfo",
          "name": "",
          "type": "tuple"
        }
      ],
      "stateMutability": "view",
      "type": "function"
    },
    {
      "inputs": [],
      "name": "safeModeStatus",
      "outputs": [
        {
          "internalType": "enum IBaseProxy.ProxySafeModeStatus",
          "name": "",
          "type": "uint8"
        }
      ],
      "stateMutability": "view",
      "type": "function"
    },
    {
      "inputs": [
        {
          "internalType": "address",
          "name": "acl",
          "type": "address"
        }
      ],
      "name": "setAccessControlManager",
      "outputs": [
        {
          "internalType": "bool",
          "name": "",
          "type": "bool"
        }
      ],
      "stateMutability": "nonpayable",
      "type": "function"
    },
    {
      "inputs": [
        {
          "internalType": "address",
          "name": "newLocalAdmin",
          "type": "address"
        }
      ],
      "name": "setLocalAdmin",
      "outputs": [
        {
          "internalType": "bool",
          "name": "",
          "type": "bool"
        }
      ],
      "stateMutability": "nonpayable",
      "type": "function"
    },
    {
      "inputs": [
        {
          "internalType": "enum IBaseProxy.ProxySafeModeStatus",
          "name": "sstat",
          "type": "uint8"
        }
      ],
      "name": "setSafeModeStatus",
      "outputs": [
        {
          "internalType": "bool",
          "name": "",
          "type": "bool"
        }
      ],
      "stateMutability": "nonpayable",
      "type": "function"
    },
    {
      "inputs": [
        {
          "internalType": "enum IBaseProxy.ProxyUpgradabilityStatus",
          "name": "ustat",
          "type": "uint8"
        }
      ],
      "name": "setUpgradabilityStatus",
      "outputs": [
        {
          "internalType": "bool",
          "name": "",
          "type": "bool"
        }
      ],
      "stateMutability": "nonpayable",
      "type": "function"
    },
    {
      "inputs": [],
      "name": "subjectAddress",
      "outputs": [
        {
          "internalType": "address",
          "name": "",
          "type": "address"
        }
      ],
      "stateMutability": "view",
      "type": "function"
    },
    {
      "inputs": [
        {
          "internalType": "bytes4",
          "name": "interfaceId",
          "type": "bytes4"
        }
      ],
      "name": "supportsInterface",
      "outputs": [
        {
          "internalType": "bool",
          "name": "",
          "type": "bool"
        }
      ],
      "stateMutability": "view",
      "type": "function"
    },
    {
      "inputs": [],
      "name": "upgradabilityStatus",
      "outputs": [
        {
          "internalType": "enum IBaseProxy.ProxyUpgradabilityStatus",
          "name": "",
          "type": "uint8"
        }
      ],
      "stateMutability": "view",
      "type": "function"
    },
    {
      "inputs": [
        {
          "internalType": "address",
          "name": "newImplementation",
          "type": "address"
        },
        {
          "internalType": "bytes",
          "name": "data",
          "type": "bytes"
        },
        {
          "internalType": "bool",
          "name": "forceCall",
          "type": "bool"
        }
      ],
      "name": "upgradeTo",
      "outputs": [
        {
          "internalType": "bytes",
          "name": "",
          "type": "bytes"
        }
      ],
      "stateMutability": "nonpayable",
      "type": "function"
    },
    {
      "inputs": [
        {
          "internalType": "address",
          "name": "recepient",
          "type": "address"
        }
      ],
      "name": "withdrawBalance",
      "outputs": [
        {
          "internalType": "uint256",
          "name": "",
          "type": "uint256"
        }
      ],
      "stateMutability": "nonpayable",
      "type": "function"
    },
    {
      "stateMutability": "payable",
      "type": "receive"
    }
  ],
  "bytecode": "0x60a0604052306080523480156200001557600080fd5b506200004360017f360894a13ba1a3210667c828492db98dca3e2076cc3735a920a3ca505d382bbd62000125565b7f360894a13ba1a3210667c828492db98dca3e2076cc3735a920a3ca505d382bbc146200007457620000746200014d565b620000a160017fb53127684a568b3173ae13b9f8a6016e243e63b6e8ee1178d6a717850b5d610462000125565b60008051602062004ad083398151915214620000c157620000c16200014d565b33620000ea60008051602062004ad083398151915260001b6200012260201b620022ed1760201c565b80546001600160a01b0319166001600160a01b03929092169190911790556002805461ffff60a01b1916608160a11b17905562000163565b90565b818103818111156200014757634e487b7160e01b600052601160045260246000fd5b92915050565b634e487b7160e01b600052600160045260246000fd5b6080516148fd620001d3600039600081816108e50152818161092e01528181610b1e01528181610b5e0152818161109d015281816110dd015281816116a4015281816117ea0152818161182a01528181611e8f01528181611ecf0152818161217301526121b301526148fd6000f3fe6080604052600436106102975760003560e01c8063756af45f11610166578063d586ed2e116100d3578063eea812d21161008f578063f698da251161006c578063f698da2514610847578063f708ceb01461085c578063f94a0adb1461087c578063fbad36841461089157005b8063eea812d2146107ca578063f0b15def146107df578063f33b6d481461081357005b8063d586ed2e1461072b578063d9dc1f191461074b578063db83423d1461076b578063e0db256d1461078b578063e4db8d4b146107a0578063eacda25b146107b557005b8063b4a0bdf311610122578063b4a0bdf314610697578063b544eaa7146106b5578063caa05236146106ca578063d4968aa2146106df578063d49e164d146106f4578063d58069301461071657005b8063756af45f146105d857806375d0c0dc146105f8578063920552321461060d5780639d45c2071461062d578063a0a8e4601461065a578063a304e3531461066f57005b80633bc6460a11610204578063568f690c116101c0578063568f690c1461050057806358dbc45d1461052057806364d4c8191461054d5780636a24a04a146105815780637147855d1461059657806371f84fbd146105c357005b80633bc6460a1461046c5780633c192e4a1461048c578063501923e5146104a1578063521f6e6a146104b657806352d1902d146104cb57806355d710ca146104e057005b806330e91d1e1161025357806330e91d1e1461037557806332a8984b1461039557806334109de2146103c2578063382559931461040457806338d38c9714610424578063399d6e381461044c57005b806301ffc9a7146102a0578063077f224a146102d55780630e32cb86146102f557806314974ed514610315578063195cd122146103355780632f12f5721461035557005b3661029e57005b005b3480156102ac57600080fd5b506102c06102bb366004613f5d565b6108b0565b60405190151581526020015b60405180910390f35b3480156102e157600080fd5b5061029e6102f0366004613fd8565b6108db565b34801561030157600080fd5b506102c0610310366004614059565b610b12565b34801561032157600080fd5b506102c0610330366004614074565b610e2b565b34801561034157600080fd5b506102c06103503660046140b8565b610e76565b34801561036157600080fd5b506102c06103703660046140e4565b610eb0565b34801561038157600080fd5b506102c0610390366004614120565b610efc565b3480156103a157600080fd5b506103b56103b036600461415c565b610f41565b6040516102cc91906141af565b3480156103ce57600080fd5b506103f67f7aabe2571874f2a330ea11c8972d9cc3792d973efc6b36e3e29005861a34418881565b6040519081526020016102cc565b34801561041057600080fd5b506102c061041f36600461415c565b61104c565b34801561043057600080fd5b5061043961107d565b60405161ffff90911681526020016102cc565b34801561045857600080fd5b506102c0610467366004614232565b611091565b34801561047857600080fd5b506102c061048736600461424f565b6111ff565b34801561049857600080fd5b506103f66115ec565b3480156104ad57600080fd5b506103f6611637565b3480156104c257600080fd5b506103f6611663565b3480156104d757600080fd5b506103f6611697565b3480156104ec57600080fd5b506102c06104fb36600461415c565b61171b565b34801561050c57600080fd5b506102c061051b366004614271565b611744565b34801561052c57600080fd5b50610535611791565b6040516001600160a01b0390911681526020016102cc565b34801561055957600080fd5b506103f67f8b73c3c69bb8fe3d512ecc4cf759cc79239f7b179b0ffacaa9a75d522b39400f81565b34801561058d57600080fd5b506103f661179b565b3480156105a257600080fd5b506105b66105b13660046142d3565b6117de565b6040516102cc91906143ec565b3480156105cf57600080fd5b506103f661192f565b3480156105e457600080fd5b506103f66105f3366004614059565b611971565b34801561060457600080fd5b506105b6611a1a565b34801561061957600080fd5b506102c061062836600461424f565b611aac565b34801561063957600080fd5b5061064d61064836600461415c565b611ae7565b6040516102cc91906143ff565b34801561066657600080fd5b506105b6611b3d565b34801561067b57600080fd5b50600254600160a01b900460ff165b6040516102cc9190614436565b3480156106a357600080fd5b506002546001600160a01b0316610535565b3480156106c157600080fd5b506103f6611b4c565b3480156106d657600080fd5b506103f6611b8e565b3480156106eb57600080fd5b506103f6611bc2565b34801561070057600080fd5b50610709611bf6565b6040516102cc9190614449565b34801561072257600080fd5b506103f6611e20565b34801561073757600080fd5b506102c061074636600461424f565b611e53565b34801561075757600080fd5b506102c0610766366004614059565b611e83565b34801561077757600080fd5b506102c061078636600461415c565b61203c565b34801561079757600080fd5b506103f661206f565b3480156107ac57600080fd5b506103f66120b2565b3480156107c157600080fd5b506103f66120e6565b3480156107d657600080fd5b506103f6612129565b3480156107eb57600080fd5b506103f67ffc434588684348dd50856b075c47bed14245c1030aa04c32955af5549981462781565b34801561081f57600080fd5b506103f67f31238da5536ef05686d34ccf0de000a4926293566b3711f6e73963b73ad026fe81565b34801561085357600080fd5b506103f661215d565b34801561086857600080fd5b506102c0610877366004614232565b612167565b34801561088857600080fd5b506105356122e3565b34801561089d57600080fd5b50600254600160a81b900460ff1661068a565b60006001600160e01b03198216637a32793760e01b14806108d557506108d5826122f0565b92915050565b6001600160a01b037f000000000000000000000000000000000000000000000000000000000000000016300361092c5760405162461bcd60e51b815260040161092390614516565b60405180910390fd5b7f00000000000000000000000000000000000000000000000000000000000000006001600160a01b031661095e612340565b6001600160a01b0316146109845760405162461bcd60e51b81526004016109239061453c565b3361098d612361565b6001600160a01b0316146109d45760405162461bcd60e51b815260206004820152600e60248201526d139bdd08105d5d1a1bdc9a5e995960921b6044820152606401610923565b604c5462010000900460ff16158080156109f65750604c54600161ffff909116105b80610a115750303b158015610a115750604c5461ffff166001145b610a5d5760405162461bcd60e51b815260206004820152601c60248201527f436f6e747261637420416c726561647920496e697469616c697a6564000000006044820152606401610923565b604c805461ffff191660011790558015610a8357604c805462ff00001916620100001790555b610a908686868686612389565b610a98612340565b6001600160a01b031630336001600160a01b03167f247ab7b17ee489fa140c6666edc3822eefed2727610cd6e37192462b87244c6089898989610ade604c5461ffff1690565b604051610aef95949392919061458b565b60405180910390a48015610b0a57604c805462ff0000191690555b505050505050565b60006001600160a01b037f0000000000000000000000000000000000000000000000000000000000000000163003610b5c5760405162461bcd60e51b815260040161092390614516565b7f00000000000000000000000000000000000000000000000000000000000000006001600160a01b0316610b8e612340565b6001600160a01b031614610bb45760405162461bcd60e51b81526004016109239061453c565b33610bbd612361565b6001600160a01b031614610c045760405162461bcd60e51b815260206004820152600e60248201526d139bdd08105d5d1a1bdc9a5e995960921b6044820152606401610923565b600160028054600160a01b900460ff1690811115610c2457610c24614175565b14610c415760405162461bcd60e51b8152600401610923906145c9565b6002808054600160a81b900460ff1690811115610c6057610c60614175565b14610c9e5760405162461bcd60e51b815260206004820152600e60248201526d496c6c6567616c2055706461746560901b6044820152606401610923565b6001600160a01b038216610ce65760405162461bcd60e51b815260206004820152600f60248201526e496c6c6567616c204164647265737360881b6044820152606401610923565b6002546001600160a01b031615610d2357610d0763d9dc1f1960e01b61239d565b610d235760405162461bcd60e51b8152600401610923906145eb565b6040516301ffc9a760e01b8152637a32793760e01b60048201526001600160a01b038316906301ffc9a790602401602060405180830381865afa158015610d6e573d6000803e3d6000fd5b505050506040513d601f19601f82011682018060405250810190610d92919061460e565b610dcc5760405162461bcd60e51b815260206004820152600b60248201526a125b1b1959d85b081050d360aa1b6044820152606401610923565b600280546001600160a01b0319166001600160a01b038416908117909155604051908152309033907f410bf468eebeeed60acaedb904afb2db7c0bb0131f7d14c3714d81b14fe8ed3c906020015b60405180910390a35060015b919050565b600080610e388585612589565b9050600080610e486044846125d9565b9150915080610e5d5760009350505050610e6e565b610e6888868461263a565b93505050505b949350505050565b60008080610e856044866125d9565b9150915080610e9957600092505050610ea9565b610ea486858461263a565b925050505b9392505050565b600080610ebd8585612589565b9050600080610ecd6044846125d9565b9150915080610ee25760009350505050610ea9565b610ef18260020154868461263a565b979650505050505050565b600080610f098484612589565b9050600080610f196044846125d9565b9150915080610f2e5760009350505050610ea9565b610ef187610f3b3361321c565b8461263a565b610f49613eec565b600082815260446020908152604091829020825160e08101909352805483526001810154909183019060ff166003811115610f8657610f86614175565b6003811115610f9757610f97614175565b81526020016001820160019054906101000a900460ff166004811115610fbf57610fbf614175565b6004811115610fd057610fd0614175565b81526020016001820160029054906101000a900460ff166003811115610ff857610ff8614175565b600381111561100957611009614175565b81526001919091015461ffff6301000000820481166020840152650100000000008204811660408401526701000000000000009091041660609091015292915050565b60008060008381526045602052604090206001015460ff16600581111561107557611075614175565b141592915050565b600061108c604c5461ffff1690565b905090565b60006001600160a01b037f00000000000000000000000000000000000000000000000000000000000000001630036110db5760405162461bcd60e51b815260040161092390614516565b7f00000000000000000000000000000000000000000000000000000000000000006001600160a01b031661110d612340565b6001600160a01b0316146111335760405162461bcd60e51b81526004016109239061453c565b600160028054600160a01b900460ff169081111561115357611153614175565b146111705760405162461bcd60e51b8152600401610923906145c9565b611180630733adc760e31b61239d565b61119c5760405162461bcd60e51b8152600401610923906145eb565b6002805483919060ff60a81b1916600160a81b83838111156111c0576111c0614175565b021790555030336001600160a01b03167ff5912c5e436152157ed2b4a84bc313b4b1fe09a15b941f195d23c99a1b8c45ad84604051610e1a9190614436565b600082815260456020526040808220600190810154848452918320015460ff91821691168282600581111561123657611236614175565b14806112535750600081600581111561125157611251614175565b145b15611263576000925050506108d5565b600582600581111561127757611277614175565b03611287576001925050506108d5565b600282600581111561129b5761129b614175565b1480156112b9575060018160058111156112b7576112b7614175565b145b156112e45760006112cb60448761325b565b90506112da6004820186613336565b93505050506108d5565b60038260058111156112f8576112f8614175565b1480156113165750600181600581111561131457611314614175565b145b1561135e57600061132860448661334e565b90506000611337604488613429565b905061135382600301548260050161333690919063ffffffff16565b9450505050506108d5565b600482600581111561137257611372614175565b1480156113905750600181600581111561138e5761138e614175565b145b156113f55760006113a260448661334e565b905060006113be8260030154604461325b90919063ffffffff16565b905060006113cd604489613504565b90506113e982600201548260040161333690919063ffffffff16565b955050505050506108d5565b600582600581111561140957611409614175565b1480156114275750600181600581111561142557611425614175565b145b1561145f5760015b60008581526045602052604090206001015460ff16600581111561145557611455614175565b14925050506108d5565b600382600581111561147357611473614175565b1480156114915750600281600581111561148f5761148f614175565b145b156114b25760006114a3604487613429565b90506112da6005820186613336565b60048260058111156114c6576114c6614175565b1480156114e4575060028160058111156114e2576114e2614175565b145b156115215760006114f660448661325b565b90506000611505604488613504565b905061135382600201548260040161333690919063ffffffff16565b600582600581111561153557611535614175565b1480156115535750600281600581111561155157611551614175565b145b1561155f57600261142f565b600482600581111561157357611573614175565b1480156115915750600381600581111561158f5761158f614175565b145b156115a35760006112cb604487613504565b60058260058111156115b7576115b7614175565b1480156115d5575060038160058111156115d3576115d3614175565b145b156115e157600361142f565b506000949350505050565b6040517f4c4956454c595f56455253455f4147454e545f4d41535445525f5459504500006020820152600090603e015b60405160208183030381529060405280519060200120905090565b604051744c4956454c595f56455253455f414e595f5459504560581b602082015260009060350161161c565b6040517f4c4956454c595f56455253455f504f4c4943595f4d41535445525f54595045006020820152600090603f0161161c565b6000306001600160a01b037f000000000000000000000000000000000000000000000000000000000000000016146117085760405162461bcd60e51b8152602060048201526014602482015273125b1b1959d85b0811195b1959d85d1958d85b1b60621b6044820152606401610923565b506000805160206148a883398151915290565b60008060008381526044602052604090206001015460ff16600381111561107557611075614175565b6000806117518484612589565b90506000806117616044846125d9565b915091508061177657600093505050506108d5565b6117878260020154610f3b3361321c565b9695505050505050565b600061108c612340565b600060405160200161161c907f4c4956454c595f56455253455f4c4956454c595f4d41535445525f41444d494e8152645f524f4c4560d81b602082015260250190565b60606001600160a01b037f00000000000000000000000000000000000000000000000000000000000000001630036118285760405162461bcd60e51b815260040161092390614516565b7f00000000000000000000000000000000000000000000000000000000000000006001600160a01b031661185a612340565b6001600160a01b0316146118805760405162461bcd60e51b81526004016109239061453c565b600160028054600160a01b900460ff16908111156118a0576118a0614175565b146118bd5760405162461bcd60e51b8152600401610923906145c9565b6002808054600160a81b900460ff16908111156118dc576118dc614175565b1461191b5760405162461bcd60e51b815260206004820152600f60248201526e496c6c6567616c205570677261646560881b6044820152606401610923565b611924846135df565b610e6e848484613660565b600060405160200161161c907f4c4956454c595f56455253455f53434f50455f4d41535445525f41444d494e5f815263524f4c4560e01b602082015260240190565b6000600160028054600160a01b900460ff169081111561199357611993614175565b146119b05760405162461bcd60e51b8152600401610923906145c9565b6119c063756af45f60e01b61239d565b6119dc5760405162461bcd60e51b8152600401610923906145eb565b60405147906001600160a01b038416904780156108fc02916000818181858888f19350505050158015611a13573d6000803e3d6000fd5b5092915050565b606060008054611a299061462b565b80601f0160208091040260200160405190810160405280929190818152602001828054611a559061462b565b8015611aa25780601f10611a7757610100808354040283529160200191611aa2565b820191906000526020600020905b815481529060010190602001808311611a8557829003601f168201915b5050505050905090565b60008080611abb6044856125d9565b9150915080611acf576000925050506108d5565b611ade8260020154868461263a565b95945050505050565b611aef613f2b565b600082815260456020908152604091829020825160e08101909352805483526001810154909183019060ff166005811115611b2c57611b2c614175565b6005811115610f9757610f97614175565b606060018054611a299061462b565b600060405160200161161c907f4c4956454c595f56455253455f4147454e545f4d41535445525f41444d494e5f815263524f4c4560e01b602082015260240190565b6040517f4c4956454c595f56455253455f4c4956454c595f4d41535445525f54595045006020820152600090603f0161161c565b6040517f4c4956454c595f56455253455f414e4f4e594d4f55535f5459504500000000006020820152600090603b0161161c565b611c45604080516101208101825260008082526060602083018190529282018390529181018290526080810182905260a0810182905260c081018290529060e082019081526020016000905290565b604051806101200160405280611c59613817565b815260200160008054611c6b9061462b565b80601f0160208091040260200160405190810160405280929190818152602001828054611c979061462b565b8015611ce45780601f10611cb957610100808354040283529160200191611ce4565b820191906000526020600020905b815481529060010190602001808311611cc757829003601f168201915b5050505050815260200160018054611cfb9061462b565b80601f0160208091040260200160405190810160405280929190818152602001828054611d279061462b565b8015611d745780601f10611d4957610100808354040283529160200191611d74565b820191906000526020600020905b815481529060010190602001808311611d5757829003601f168201915b50505091835250506002546001600160a01b03166020820152604001611d98612340565b6001600160a01b03168152602001611dae612361565b6001600160a01b03168152602001611dc9604c5461ffff1690565b61ffff168152602001600260149054906101000a900460ff166002811115611df357611df3614175565b8152602001600260159054906101000a900460ff166002811115611e1957611e19614175565b9052919050565b604080517f4c4956454c595f56455253455f4c4956454c595f474c4f42414c5f53434f504560208201526000910161161c565b60008080611e626044856125d9565b9150915080611e76576000925050506108d5565b611ade85610f3b3361321c565b60006001600160a01b037f0000000000000000000000000000000000000000000000000000000000000000163003611ecd5760405162461bcd60e51b815260040161092390614516565b7f00000000000000000000000000000000000000000000000000000000000000006001600160a01b0316611eff612340565b6001600160a01b031614611f255760405162461bcd60e51b81526004016109239061453c565b600160028054600160a01b900460ff1690811115611f4557611f45614175565b14611f625760405162461bcd60e51b8152600401610923906145c9565b6002808054600160a81b900460ff1690811115611f8157611f81614175565b14611fbf5760405162461bcd60e51b815260206004820152600e60248201526d496c6c6567616c2055706461746560901b6044820152606401610923565b611fcf63d9dc1f1960e01b61239d565b611feb5760405162461bcd60e51b8152600401610923906145eb565b6001600160a01b03821661202b5760405162461bcd60e51b8152602060048201526007602482015266125b9d985b1a5960ca1b6044820152606401610923565b612034826138b5565b506001919050565b6000808061204b6044856125d9565b915091508061205e575060009392505050565b610e6e8260020154610f3b3361321c565b600060405160200161161c907f4c4956454c595f56455253455f504f4c4943595f4d41535445525f41444d494e8152645f524f4c4560d81b602082015260250190565b6040517f4c4956454c595f56455253455f53595354454d5f4d41535445525f54595045006020820152600090603f0161161c565b600060405160200161161c907f4c4956454c595f56455253455f53595354454d5f4d41535445525f41444d494e8152645f524f4c4560d81b602082015260250190565b6040517f4c4956454c595f56455253455f53434f50455f4d41535445525f5459504500006020820152600090603e0161161c565b600061108c613817565b60006001600160a01b037f00000000000000000000000000000000000000000000000000000000000000001630036121b15760405162461bcd60e51b815260040161092390614516565b7f00000000000000000000000000000000000000000000000000000000000000006001600160a01b03166121e3612340565b6001600160a01b0316146122095760405162461bcd60e51b81526004016109239061453c565b6000612218604c5461ffff1690565b61ffff16116122545760405162461bcd60e51b81526020600482015260086024820152671393d5081253925560c21b6044820152606401610923565b612264630f708ceb60e41b61239d565b6122805760405162461bcd60e51b8152600401610923906145eb565b6002805483919060ff60a01b1916600160a01b83838111156122a4576122a4614175565b021790555030336001600160a01b03167fc08ec585c25f1907baaab6f278c5994531a2e34c59935b3fcfe813067a3b487884604051610e1a9190614436565b600061108c612361565b90565b60006001600160e01b031982166327d8f1fd60e21b148061232157506001600160e01b031982166352d1902d60e01b145b806108d557506301ffc9a760e01b6001600160e01b03198316146108d5565b60006000805160206148a88339815191525b546001600160a01b0316919050565b60007fb53127684a568b3173ae13b9f8a6016e243e63b6e8ee1178d6a717850b5d6103612352565b612396858585858561392c565b5050505050565b6002546000906001600160a01b0316300361250e576040805160048152602481019091526020810180516001600160e01b0316632c4b4fff60e01b17905260006124136123e8612340565b836040518060400160405280600c81526020016b1110d85b1b0811985a5b195960a21b815250613ae4565b905080600182516124249190614665565b8151811061243457612434614686565b016020015160f81c60010361244d575060009392505050565b6317897ab960e11b30856124603361321c565b6040516024016124729392919061469c565b60408051601f198184030181529190526020810180516001600160e01b03166001600160e01b03199093169290921790915291506124d96124b1612340565b83604051806040016040528060098152602001682337b93134b23232b760b91b815250613ae4565b905080600182516124ea9190614665565b815181106124fa576124fa614686565b60209101015160f81c600114949350505050565b6002546001600160a01b0316632f12f572308461252a3361321c565b6040518463ffffffff1660e01b81526004016125489392919061469c565b602060405180830381865afa158015612565573d6000803e3d6000fd5b505050506040513d601f19601f820116820180604052508101906108d5919061460e565b6040516bffffffffffffffffffffffff19606084901b1660208201526001600160e01b03198216603482015260009060380160405160208183030381529060405280519060200120905092915050565b600081815260018084016020526040822082915b600182015460ff16600581111561260657612606614175565b0361262857604080518581526001878101602083015291902093509150612632565b6000199250600091505b509250929050565b60008381526044602090815260408083206001015481518083019092526009825268030b3b2b73a24b21d160bd1b9282019290925260ff9091169061267e90613ba8565b61268785613beb565b6126af60405180604001604052806007815260200166030ba3cb8329d160cd1b815250613ba8565b6126cc8160038111156126c4576126c4614175565b60f81b613c30565b6126f76040518060400160405280600a815260200169036b2b6b132b924b21d160b51b815250613ba8565b61270084613beb565b6127306040518060400160405280600f81526020016e036b2b6b132b91030b1b9ba30ba1d1608d1b815250613ba8565b60008481526044602052604090206001015461275f90610100900460ff1660048111156126c4576126c4614175565b61279260405180604001604052806011815260200170616464726573732874686973293a20257360781b81525030613c79565b60028160038111156127a6576127a6614175565b03612a3c576127e0604051806040016040528060148152602001736167656e744964207479706520697320726f6c6560601b815250613ba8565b6004600085815260446020526040902060010154610100900460ff16600481111561280d5761280d614175565b1461281c576000915050610ea9565b60008061282a604488613cc2565b9150915061285b6040518060400160405280600c81526020016b03937b632a2b73a34ba3c9d160a51b815250613ba8565b600182015461287d90610100900460ff1660048111156126c4576126c4614175565b8015806128a8575060046001830154610100900460ff1660048111156128a5576128a5614175565b14155b156128b95760009350505050610ea9565b6000806128d484600301546044613d0d90919063ffffffff16565b915091506129056040518060400160405280600c81526020016b03a3cb832a2b73a34ba3c9d160a51b815250613ba8565b600182015461292790610100900460ff1660048111156126c4576126c4614175565b801580612952575060046001830154610100900460ff16600481111561294f5761294f614175565b14155b1561296557600095505050505050610ea9565b600089815260476020908152604080832054835260468252918290208251808401909352600e83526d03837b634b1bca2b73a34ba3c9d160951b91830191909152906129b090613ba8565b60038101546129d490600160301b900460ff1660048111156126c4576126c4614175565b60046003820154600160301b900460ff1660048111156129f6576129f6614175565b148015612a1e57506004880154600382015460ff640100000000928390048116929091041610155b15612a325760009650505050505050610ea9565b5050505050612e57565b6003816003811115612a5057612a50614175565b03612e3457612a8b6040518060400160405280601581526020017430b3b2b73a24b21034b9903a3cb83290171017101760591b815250613ba8565b604051744c4956454c595f56455253455f414e595f5459504560581b60208201526035016040516020818303038152906040528051906020012085148015612afe57506004600085815260446020526040902060010154610100900460ff166004811115612afb57612afb614175565b14155b15612b4b57612b416040518060400160405280601981526020017f6167656e74496420697320414e592074797065202e202e202e00000000000000815250613ba8565b6000915050610ea9565b6040517f4c4956454c595f56455253455f414e4f4e594d4f55535f5459504500000000006020820152603b01604051602081830303815290604052805190602001208514612e2f57612bd16040518060400160405280601f81526020017f6167656e74496420697320416e6f6e796d6f75732074797065202e202e202e00815250613ba8565b6004600085815260446020526040902060010154610100900460ff166004811115612bfe57612bfe614175565b14612c0d576000915050610ea9565b600080612c1b604488613d0d565b91509150612c4c6040518060400160405280600c81526020016b03a3cb832a2b73a34ba3c9d160a51b815250613ba8565b6001820154612c6e90610100900460ff1660048111156126c4576126c4614175565b801580612c99575060046001830154610100900460ff166004811115612c9657612c96614175565b14155b15612caa5760009350505050610ea9565b60008681526005830160205260408120549080612cc8604484613cc2565b91509150612cf96040518060400160405280600c81526020016b03937b632a2b73a34ba3c9d160a51b815250613ba8565b6001820154612d1b90610100900460ff1660048111156126c4576126c4614175565b801580612d46575060046001830154610100900460ff166004811115612d4357612d43614175565b14155b15612d5a5760009650505050505050610ea9565b600083815260476020908152604080832054835260468252918290208251808401909352600e83526d03837b634b1bca2b73a34ba3c9d160951b9183019190915290612da590613ba8565b6003810154612dc990600160301b900460ff1660048111156126c4576126c4614175565b60046003820154600160301b900460ff166004811115612deb57612deb614175565b148015612e1357506004890154600382015460ff640100000000928390048116929091041610155b15612e28576000975050505050505050610ea9565b5050505050505b612e57565b6001816003811115612e4857612e48614175565b11612e57576000915050610ea9565b612e886040518060400160405280601081526020016f0333ab731ba34b7b722b73a34ba3c9d160851b815250613ba8565b6001830154612eaa90610100900460ff1660048111156126c4576126c4614175565b60046001840154610100900460ff166004811115612eca57612eca614175565b14612ed9576000915050610ea9565b600080612ef485600301546044613d2490919063ffffffff16565b91509150612f286040518060400160405280600f81526020016e031b7b73a32bc3a22b73a34ba3c9d1608d1b815250613ba8565b6001820154612f4a90610100900460ff1660048111156126c4576126c4614175565b801580612f75575060046001830154610100900460ff166004811115612f7257612f72614175565b14155b15612f865760009350505050610ea9565b600080612fa184600201546044613d3d90919063ffffffff16565b91509150612fd36040518060400160405280600d81526020016c03932b0b636a2b73a34ba3c9d1609d1b815250613ba8565b6001840154612ff590610100900460ff1660048111156126c4576126c4614175565b801580613020575060046001830154610100900460ff16600481111561301d5761301d614175565b14155b1561303357600095505050505050610ea9565b60008061304e84600201546044613d5690919063ffffffff16565b915091506130816040518060400160405280600e81526020016d03237b6b0b4b722b73a34ba3c9d160951b815250613ba8565b60018201546130a390610100900460ff1660048111156126c4576126c4614175565b8015806130ce575060046001830154610100900460ff1660048111156130cb576130cb614175565b14155b156130e3576000975050505050505050610ea9565b61310c60405180604001604052806008815260200167033b637b130b61d160c51b815250613ba8565b604080517f4c4956454c595f56455253455f4c4956454c595f474c4f42414c5f53434f5045602080830191909152825180830382018152918301835281519181019190912060009081526045909152206001015461317d90610100900460ff1660048111156126c4576126c4614175565b6004604080517f4c4956454c595f56455253455f4c4956454c595f474c4f42414c5f53434f504560208201526045916000910160405160208183030381529060405280519060200120815260200190815260200160002060010160019054906101000a900460ff1660048111156131f6576131f6614175565b1461320b576000975050505050505050610ea9565b5060019a9950505050505050505050565b6040516bffffffffffffffffffffffff19606083901b166020820152600090603401604051602081830303815290604052805190602001209050919050565b600081815260018301602052604081206002600182015460ff16600581111561328657613286614175565b036132a35760408051848152600186016020820152209150611a13565b6000600182015460ff1660058111156132be576132be614175565b036132fb5760405162461bcd60e51b815260206004820152600d60248201526c10d25108139bdd08119bdd5b99609a1b6044820152606401610923565b60405162461bcd60e51b815260206004820152601060248201526f125b1b1959d85b0810d2510814db1bdd60821b6044820152606401610923565b60008181526001830160205260408120541515610ea9565b600081815260018084016020526040822090600182015460ff16600581111561337957613379614175565b036133965760408051848152600186016020820152209150611a13565b6000600182015460ff1660058111156133b1576133b1614175565b036133ee5760405162461bcd60e51b815260206004820152600d60248201526c11925108139bdd08119bdd5b99609a1b6044820152606401610923565b60405162461bcd60e51b815260206004820152601060248201526f125b1b195859db081192510814db1bdd60821b6044820152606401610923565b600081815260018301602052604081206003600182015460ff16600581111561345457613454614175565b036134715760408051848152600186016020820152209150611a13565b6000600182015460ff16600581111561348c5761348c614175565b036134c95760405162461bcd60e51b815260206004820152600d60248201526c14925108139bdd08119bdd5b99609a1b6044820152606401610923565b60405162461bcd60e51b815260206004820152601060248201526f125b1b195859db081492510814db1bdd60821b6044820152606401610923565b600081815260018301602052604081206004600182015460ff16600581111561352f5761352f614175565b0361354c5760408051848152600186016020820152209150611a13565b6000600182015460ff16600581111561356757613567614175565b036135a45760405162461bcd60e51b815260206004820152600d60248201526c11125108139bdd08119bdd5b99609a1b6044820152606401610923565b60405162461bcd60e51b815260206004820152601060248201526f125b1b1959d85b081112510814db1bdd60821b6044820152606401610923565b6135e7612340565b6001600160a01b0316816001600160a01b0316036136315760405162461bcd60e51b8152602060048201526007602482015266125b1b1959d85b60ca1b6044820152606401610923565b613641637147855d60e01b61239d565b61365d5760405162461bcd60e51b8152600401610923906145eb565b50565b60607f4910fdfa16fed3260ed0e7147f7cc6da11a60208b5b9406d12a635614ffd91435460ff16156136aa5761369584613d6f565b50604080516000815260208101909152610ea9565b6000805160206148a883398151915260001b846001600160a01b03166352d1902d6040518163ffffffff1660e01b8152600401602060405180830381865afa1580156136fa573d6000803e3d6000fd5b505050506040513d601f19601f8201168201806040525081019061371e91906146c7565b1461375a5760405162461bcd60e51b815260206004820152600c60248201526b496c6c6567616c205555505360a01b6044820152606401610923565b6040516301ffc9a760e01b81526327d8f1fd60e21b60048201526001600160a01b038516906301ffc9a790602401602060405180830381865afa1580156137a5573d6000803e3d6000fd5b505050506040513d601f19601f820116820180604052508101906137c9919061460e565b6138055760405162461bcd60e51b815260206004820152600d60248201526c496c6c6567616c2050726f787960981b6044820152606401610923565b613810848484613de4565b9050610ea9565b60007f8b73c3c69bb8fe3d512ecc4cf759cc79239f7b179b0ffacaa9a75d522b39400f600060405160200161384c91906146e0565b60405160208183030381529060405280519060200120600160405160200161387491906146e0565b60408051601f1981840301815282825280516020918201209083019490945281019190915260608101919091524660808201523060a082015260c00161161c565b7fb53127684a568b3173ae13b9f8a6016e243e63b6e8ee1178d6a717850b5d610380546001600160a01b0383166001600160a01b031990911681179091556040805191825251309133917f63fdbed5f2909ec44e3becc51e9d29654ce1447747914e8a6ebc019e7f640b8b9181900360200190a350565b604c5462010000900460ff166139845760405162461bcd60e51b815260206004820152601960248201527f436f6e7472616374204e6f7420496e697469616c697a696e67000000000000006044820152606401610923565b60006139918587836147a1565b50600161399f8385836147a1565b506001600160a01b0381163014613a5e576040516301ffc9a760e01b8152637a32793760e01b60048201526001600160a01b038216906301ffc9a790602401602060405180830381865afa1580156139fb573d6000803e3d6000fd5b505050506040513d601f19601f82011682018060405250810190613a1f919061460e565b613a595760405162461bcd60e51b815260206004820152600b60248201526a125b1b1959d85b081050d360aa1b6044820152606401610923565b613aaa565b613a6e637a32793760e01b6108b0565b613aaa5760405162461bcd60e51b815260206004820152600d60248201526c139bdd0814dd5c1c1bdc9d1959609a1b6044820152606401610923565b600280546001600160a01b038316600161ff0160a01b031990911617600160a81b1760ff60a01b1916600160a01b179055612396336138b5565b60606001600160a01b0384163b613b3d5760405162461bcd60e51b815260206004820152601860248201527f496c6c6567616c20436f6e7472616374204164647265737300000000000000006044820152606401610923565b600080856001600160a01b031685604051613b589190614861565b600060405180830381855af49150503d8060008114613b93576040519150601f19603f3d011682016040523d82523d6000602084013e613b98565b606091505b5091509150610ea4828286613e4e565b61365d81604051602401613bbc91906143ec565b60408051601f198184030181529190526020810180516001600160e01b031663104c13eb60e21b179052613e87565b61365d81604051602401613c0191815260200190565b60408051601f198184030181529190526020810180516001600160e01b03166327b7cf8560e01b179052613e87565b6040516001600160f81b03198216602482015261365d9060440160408051601f198184030181529190526020810180516001600160e01b0316630dc3142560e31b179052613e87565b613cbe8282604051602401613c8f92919061487d565b60408051601f198184030181529190526020810180516001600160e01b031663319af33360e01b179052613e87565b5050565b6000818152602083905260408120819060025b600182015460ff166003811115613cee57613cee614175565b0361262857604080518581526020810187905220925060019150612632565b600081815260208390526040812081906003613cd5565b60008181526001830160205260408120819060026125ed565b60008181526001830160205260408120819060036125ed565b60008181526001830160205260408120819060046125ed565b6001600160a01b0381163b613db55760405162461bcd60e51b815260206004820152600c60248201526b125b1b1959d85b08125b5c1b60a21b6044820152606401610923565b6000805160206148a883398151915280546001600160a01b0319166001600160a01b0392909216919091179055565b6060613def84613ea8565b600083511180613dfc5750815b15613e375761381084846040518060400160405280601381526020017211195b1959d85d1958d85b1b0811985a5b1959606a1b815250613ae4565b505060408051600081526020810190915292915050565b60608315613e5d575081610ea9565b825115613e6d5782518084602001fd5b8160405162461bcd60e51b815260040161092391906143ec565b80516a636f6e736f6c652e6c6f67602083016000808483855afa5050505050565b613eb181613d6f565b6040516001600160a01b03821690309033907f8ee0f2bd29c0e6a975c3cc2e47cf2e01b5f23a9a8a02e0ed6a5a070269de3d2d90600090a450565b6040805160e08101909152600080825260208201905b815260200160008152602001600081526000602082018190526040820181905260609091015290565b6040805160e0810190915260008082526020820190613f02565b80356001600160e01b031981168114610e2657600080fd5b600060208284031215613f6f57600080fd5b610ea982613f45565b60008083601f840112613f8a57600080fd5b50813567ffffffffffffffff811115613fa257600080fd5b602083019150836020828501011115613fba57600080fd5b9250929050565b80356001600160a01b0381168114610e2657600080fd5b600080600080600060608688031215613ff057600080fd5b853567ffffffffffffffff8082111561400857600080fd5b61401489838a01613f78565b9097509550602088013591508082111561402d57600080fd5b5061403a88828901613f78565b909450925061404d905060408701613fc1565b90509295509295909350565b60006020828403121561406b57600080fd5b610ea982613fc1565b6000806000806080858703121561408a57600080fd5b8435935061409a60208601613fc1565b92506140a860408601613f45565b9396929550929360600135925050565b6000806000606084860312156140cd57600080fd5b505081359360208301359350604090920135919050565b6000806000606084860312156140f957600080fd5b61410284613fc1565b925061411060208501613f45565b9150604084013590509250925092565b60008060006060848603121561413557600080fd5b8335925061414560208501613fc1565b915061415360408501613f45565b90509250925092565b60006020828403121561416e57600080fd5b5035919050565b634e487b7160e01b600052602160045260246000fd5b6004811061365d5761365d614175565b600581106141ab576141ab614175565b9052565b81518152602082015160e08201906141c68161418b565b8060208401525060408301516141df604084018261419b565b5060608301516141ee8161418b565b80606084015250608083015161ffff80821660808501528060a08601511660a08501528060c08601511660c0850152505092915050565b6003811061365d57600080fd5b60006020828403121561424457600080fd5b8135610ea981614225565b6000806040838503121561426257600080fd5b50508035926020909101359150565b6000806040838503121561428457600080fd5b61428d83613fc1565b915061429b60208401613f45565b90509250929050565b634e487b7160e01b600052604160045260246000fd5b801515811461365d57600080fd5b8035610e26816142ba565b6000806000606084860312156142e857600080fd5b6142f184613fc1565b9250602084013567ffffffffffffffff8082111561430e57600080fd5b818601915086601f83011261432257600080fd5b813581811115614334576143346142a4565b604051601f8201601f19908116603f0116810190838211818310171561435c5761435c6142a4565b8160405282815289602084870101111561437557600080fd5b826020860160208301376000602084830101528096505050505050614153604085016142c8565b60005b838110156143b757818101518382015260200161439f565b50506000910152565b600081518084526143d881602086016020860161439c565b601f01601f19169290920160200192915050565b602081526000610ea960208301846143c0565b81518152602082015160e0820190600681106141c6576141c6614175565b6003811061365d5761365d614175565b6141ab8161441d565b602081016144438361441d565b91905290565b6020815281516020820152600060208301516101208060408501526144726101408501836143c0565b91506040850151601f1985840301606086015261448f83826143c0565b92505060608501516144ac60808601826001600160a01b03169052565b5060808501516001600160a01b03811660a08601525060a08501516001600160a01b03811660c08601525060c085015161ffff811660e08601525060e08501516101006144fb8187018361442d565b860151905061450c8583018261442d565b5090949350505050565b6020808252600c908201526b125b1b1959d85b0810d85b1b60a21b604082015260600190565b6020808252600c908201526b125b9d985b1a590810d85b1b60a21b604082015260600190565b81835281816020850137506000828201602090810191909152601f909101601f19169091010190565b60608152600061459f606083018789614562565b82810360208401526145b2818688614562565b91505061ffff831660408301529695505050505050565b60208082526008908201526714995a9958dd195960c21b604082015260600190565b6020808252600990820152682337b93134b23232b760b91b604082015260600190565b60006020828403121561462057600080fd5b8151610ea9816142ba565b600181811c9082168061463f57607f821691505b60208210810361465f57634e487b7160e01b600052602260045260246000fd5b50919050565b818103818111156108d557634e487b7160e01b600052601160045260246000fd5b634e487b7160e01b600052603260045260246000fd5b6001600160a01b039390931683526001600160e01b0319919091166020830152604082015260600190565b6000602082840312156146d957600080fd5b5051919050565b60008083546146ee8161462b565b60018281168015614706576001811461471b5761474a565b60ff198416875282151583028701945061474a565b8760005260208060002060005b858110156147415781548a820152908401908201614728565b50505082870194505b50929695505050505050565b601f82111561479c57600081815260208120601f850160051c8101602086101561477d5750805b601f850160051c820191505b81811015610b0a57828155600101614789565b505050565b67ffffffffffffffff8311156147b9576147b96142a4565b6147cd836147c7835461462b565b83614756565b6000601f84116001811461480157600085156147e95750838201355b600019600387901b1c1916600186901b178355612396565b600083815260209020601f19861690835b828110156148325786850135825560209485019460019092019101614812565b508682101561484f5760001960f88860031b161c19848701351681555b505060018560011b0183555050505050565b6000825161487381846020870161439c565b9190910192915050565b60408152600061489060408301856143c0565b905060018060a01b0383166020830152939250505056fe360894a13ba1a3210667c828492db98dca3e2076cc3735a920a3ca505d382bbca26469706673582212205341f452b6e0cd7fc220ca720eccce5f5de6131adc0386123eec500a0040131e64736f6c63430008110033b53127684a568b3173ae13b9f8a6016e243e63b6e8ee1178d6a717850b5d6103",
  "linkReferences": {},
  "deployedLinkReferences": {},
  "devdoc": {
    "author": "Sina Tadayon, https://github.com/SinaTadayon",
    "kind": "dev",
    "methods": {
      "hasAccess(bytes32)": {
        "details": "Function called by apps to check ACL",
        "returns": {
          "_0": "boolean indicating whether the ACL allows"
        }
      },
      "proxiableUUID()": {
        "details": "Implementation of the ERC1822 {proxiableUUID} function. This returns the storage slot used by the implementation. It is used to validate that the this implementation remains valid after an upgrade. IMPORTANT: A proxy pointing at a proxiable contract should not be considered proxiable itself, because this risks bricking a proxy that upgrades to it, by delegating to itself until out of gas. Thus it is critical that this function revert if invoked through a proxy. This is guaranteed by the `notDelegated` modifier."
      },
      "supportsInterface(bytes4)": {
        "details": "See {IERC165-supportsInterface}."
      }
    },
    "title": "AccessControl Contract",
    "version": 1
  },
  "evm": {
    "bytecode": {
      "linkReferences": {},
      "opcodes": "PUSH1 0xA0 PUSH1 0x40 MSTORE ADDRESS PUSH1 0x80 MSTORE CALLVALUE DUP1 ISZERO PUSH3 0x15 JUMPI PUSH1 0x0 DUP1 REVERT JUMPDEST POP PUSH3 0x43 PUSH1 0x1 PUSH32 0x360894A13BA1A3210667C828492DB98DCA3E2076CC3735A920A3CA505D382BBD PUSH3 0x125 JUMP JUMPDEST PUSH32 0x360894A13BA1A3210667C828492DB98DCA3E2076CC3735A920A3CA505D382BBC EQ PUSH3 0x74 JUMPI PUSH3 0x74 PUSH3 0x14D JUMP JUMPDEST PUSH3 0xA1 PUSH1 0x1 PUSH32 0xB53127684A568B3173AE13B9F8A6016E243E63B6E8EE1178D6A717850B5D6104 PUSH3 0x125 JUMP JUMPDEST PUSH1 0x0 DUP1 MLOAD PUSH1 0x20 PUSH3 0x4AD0 DUP4 CODECOPY DUP2 MLOAD SWAP2 MSTORE EQ PUSH3 0xC1 JUMPI PUSH3 0xC1 PUSH3 0x14D JUMP JUMPDEST CALLER PUSH3 0xEA PUSH1 0x0 DUP1 MLOAD PUSH1 0x20 PUSH3 0x4AD0 DUP4 CODECOPY DUP2 MLOAD SWAP2 MSTORE PUSH1 0x0 SHL PUSH3 0x122 PUSH1 0x20 SHL PUSH3 0x22ED OR PUSH1 0x20 SHR JUMP JUMPDEST DUP1 SLOAD PUSH1 0x1 PUSH1 0x1 PUSH1 0xA0 SHL SUB NOT AND PUSH1 0x1 PUSH1 0x1 PUSH1 0xA0 SHL SUB SWAP3 SWAP1 SWAP3 AND SWAP2 SWAP1 SWAP2 OR SWAP1 SSTORE PUSH1 0x2 DUP1 SLOAD PUSH2 0xFFFF PUSH1 0xA0 SHL NOT AND PUSH1 0x81 PUSH1 0xA1 SHL OR SWAP1 SSTORE PUSH3 0x163 JUMP JUMPDEST SWAP1 JUMP JUMPDEST DUP2 DUP2 SUB DUP2 DUP2 GT ISZERO PUSH3 0x147 JUMPI PUSH4 0x4E487B71 PUSH1 0xE0 SHL PUSH1 0x0 MSTORE PUSH1 0x11 PUSH1 0x4 MSTORE PUSH1 0x24 PUSH1 0x0 REVERT JUMPDEST SWAP3 SWAP2 POP POP JUMP JUMPDEST PUSH4 0x4E487B71 PUSH1 0xE0 SHL PUSH1 0x0 MSTORE PUSH1 0x1 PUSH1 0x4 MSTORE PUSH1 0x24 PUSH1 0x0 REVERT JUMPDEST PUSH1 0x80 MLOAD PUSH2 0x48FD PUSH3 0x1D3 PUSH1 0x0 CODECOPY PUSH1 0x0 DUP2 DUP2 PUSH2 0x8E5 ADD MSTORE DUP2 DUP2 PUSH2 0x92E ADD MSTORE DUP2 DUP2 PUSH2 0xB1E ADD MSTORE DUP2 DUP2 PUSH2 0xB5E ADD MSTORE DUP2 DUP2 PUSH2 0x109D ADD MSTORE DUP2 DUP2 PUSH2 0x10DD ADD MSTORE DUP2 DUP2 PUSH2 0x16A4 ADD MSTORE DUP2 DUP2 PUSH2 0x17EA ADD MSTORE DUP2 DUP2 PUSH2 0x182A ADD MSTORE DUP2 DUP2 PUSH2 0x1E8F ADD MSTORE DUP2 DUP2 PUSH2 0x1ECF ADD MSTORE DUP2 DUP2 PUSH2 0x2173 ADD MSTORE PUSH2 0x21B3 ADD MSTORE PUSH2 0x48FD PUSH1 0x0 RETURN INVALID PUSH1 0x80 PUSH1 0x40 MSTORE PUSH1 0x4 CALLDATASIZE LT PUSH2 0x297 JUMPI PUSH1 0x0 CALLDATALOAD PUSH1 0xE0 SHR DUP1 PUSH4 0x756AF45F GT PUSH2 0x166 JUMPI DUP1 PUSH4 0xD586ED2E GT PUSH2 0xD3 JUMPI DUP1 PUSH4 0xEEA812D2 GT PUSH2 0x8F JUMPI DUP1 PUSH4 0xF698DA25 GT PUSH2 0x6C JUMPI DUP1 PUSH4 0xF698DA25 EQ PUSH2 0x847 JUMPI DUP1 PUSH4 0xF708CEB0 EQ PUSH2 0x85C JUMPI DUP1 PUSH4 0xF94A0ADB EQ PUSH2 0x87C JUMPI DUP1 PUSH4 0xFBAD3684 EQ PUSH2 0x891 JUMPI STOP JUMPDEST DUP1 PUSH4 0xEEA812D2 EQ PUSH2 0x7CA JUMPI DUP1 PUSH4 0xF0B15DEF EQ PUSH2 0x7DF JUMPI DUP1 PUSH4 0xF33B6D48 EQ PUSH2 0x813 JUMPI STOP JUMPDEST DUP1 PUSH4 0xD586ED2E EQ PUSH2 0x72B JUMPI DUP1 PUSH4 0xD9DC1F19 EQ PUSH2 0x74B JUMPI DUP1 PUSH4 0xDB83423D EQ PUSH2 0x76B JUMPI DUP1 PUSH4 0xE0DB256D EQ PUSH2 0x78B JUMPI DUP1 PUSH4 0xE4DB8D4B EQ PUSH2 0x7A0 JUMPI DUP1 PUSH4 0xEACDA25B EQ PUSH2 0x7B5 JUMPI STOP JUMPDEST DUP1 PUSH4 0xB4A0BDF3 GT PUSH2 0x122 JUMPI DUP1 PUSH4 0xB4A0BDF3 EQ PUSH2 0x697 JUMPI DUP1 PUSH4 0xB544EAA7 EQ PUSH2 0x6B5 JUMPI DUP1 PUSH4 0xCAA05236 EQ PUSH2 0x6CA JUMPI DUP1 PUSH4 0xD4968AA2 EQ PUSH2 0x6DF JUMPI DUP1 PUSH4 0xD49E164D EQ PUSH2 0x6F4 JUMPI DUP1 PUSH4 0xD5806930 EQ PUSH2 0x716 JUMPI STOP JUMPDEST DUP1 PUSH4 0x756AF45F EQ PUSH2 0x5D8 JUMPI DUP1 PUSH4 0x75D0C0DC EQ PUSH2 0x5F8 JUMPI DUP1 PUSH4 0x92055232 EQ PUSH2 0x60D JUMPI DUP1 PUSH4 0x9D45C207 EQ PUSH2 0x62D JUMPI DUP1 PUSH4 0xA0A8E460 EQ PUSH2 0x65A JUMPI DUP1 PUSH4 0xA304E353 EQ PUSH2 0x66F JUMPI STOP JUMPDEST DUP1 PUSH4 0x3BC6460A GT PUSH2 0x204 JUMPI DUP1 PUSH4 0x568F690C GT PUSH2 0x1C0 JUMPI DUP1 PUSH4 0x568F690C EQ PUSH2 0x500 JUMPI DUP1 PUSH4 0x58DBC45D EQ PUSH2 0x520 JUMPI DUP1 PUSH4 0x64D4C819 EQ PUSH2 0x54D JUMPI DUP1 PUSH4 0x6A24A04A EQ PUSH2 0x581 JUMPI DUP1 PUSH4 0x7147855D EQ PUSH2 0x596 JUMPI DUP1 PUSH4 0x71F84FBD EQ PUSH2 0x5C3 JUMPI STOP JUMPDEST DUP1 PUSH4 0x3BC6460A EQ PUSH2 0x46C JUMPI DUP1 PUSH4 0x3C192E4A EQ PUSH2 0x48C JUMPI DUP1 PUSH4 0x501923E5 EQ PUSH2 0x4A1 JUMPI DUP1 PUSH4 0x521F6E6A EQ PUSH2 0x4B6 JUMPI DUP1 PUSH4 0x52D1902D EQ PUSH2 0x4CB JUMPI DUP1 PUSH4 0x55D710CA EQ PUSH2 0x4E0 JUMPI STOP JUMPDEST DUP1 PUSH4 0x30E91D1E GT PUSH2 0x253 JUMPI DUP1 PUSH4 0x30E91D1E EQ PUSH2 0x375 JUMPI DUP1 PUSH4 0x32A8984B EQ PUSH2 0x395 JUMPI DUP1 PUSH4 0x34109DE2 EQ PUSH2 0x3C2 JUMPI DUP1 PUSH4 0x38255993 EQ PUSH2 0x404 JUMPI DUP1 PUSH4 0x38D38C97 EQ PUSH2 0x424 JUMPI DUP1 PUSH4 0x399D6E38 EQ PUSH2 0x44C JUMPI STOP JUMPDEST DUP1 PUSH4 0x1FFC9A7 EQ PUSH2 0x2A0 JUMPI DUP1 PUSH4 0x77F224A EQ PUSH2 0x2D5 JUMPI DUP1 PUSH4 0xE32CB86 EQ PUSH2 0x2F5 JUMPI DUP1 PUSH4 0x14974ED5 EQ PUSH2 0x315 JUMPI DUP1 PUSH4 0x195CD122 EQ PUSH2 0x335 JUMPI DUP1 PUSH4 0x2F12F572 EQ PUSH2 0x355 JUMPI STOP JUMPDEST CALLDATASIZE PUSH2 0x29E JUMPI STOP JUMPDEST STOP JUMPDEST CALLVALUE DUP1 ISZERO PUSH2 0x2AC JUMPI PUSH1 0x0 DUP1 REVERT JUMPDEST POP PUSH2 0x2C0 PUSH2 0x2BB CALLDATASIZE PUSH1 0x4 PUSH2 0x3F5D JUMP JUMPDEST PUSH2 0x8B0 JUMP JUMPDEST PUSH1 0x40 MLOAD SWAP1 ISZERO ISZERO DUP2 MSTORE PUSH1 0x20 ADD JUMPDEST PUSH1 0x40 MLOAD DUP1 SWAP2 SUB SWAP1 RETURN JUMPDEST CALLVALUE DUP1 ISZERO PUSH2 0x2E1 JUMPI PUSH1 0x0 DUP1 REVERT JUMPDEST POP PUSH2 0x29E PUSH2 0x2F0 CALLDATASIZE PUSH1 0x4 PUSH2 0x3FD8 JUMP JUMPDEST PUSH2 0x8DB JUMP JUMPDEST CALLVALUE DUP1 ISZERO PUSH2 0x301 JUMPI PUSH1 0x0 DUP1 REVERT JUMPDEST POP PUSH2 0x2C0 PUSH2 0x310 CALLDATASIZE PUSH1 0x4 PUSH2 0x4059 JUMP JUMPDEST PUSH2 0xB12 JUMP JUMPDEST CALLVALUE DUP1 ISZERO PUSH2 0x321 JUMPI PUSH1 0x0 DUP1 REVERT JUMPDEST POP PUSH2 0x2C0 PUSH2 0x330 CALLDATASIZE PUSH1 0x4 PUSH2 0x4074 JUMP JUMPDEST PUSH2 0xE2B JUMP JUMPDEST CALLVALUE DUP1 ISZERO PUSH2 0x341 JUMPI PUSH1 0x0 DUP1 REVERT JUMPDEST POP PUSH2 0x2C0 PUSH2 0x350 CALLDATASIZE PUSH1 0x4 PUSH2 0x40B8 JUMP JUMPDEST PUSH2 0xE76 JUMP JUMPDEST CALLVALUE DUP1 ISZERO PUSH2 0x361 JUMPI PUSH1 0x0 DUP1 REVERT JUMPDEST POP PUSH2 0x2C0 PUSH2 0x370 CALLDATASIZE PUSH1 0x4 PUSH2 0x40E4 JUMP JUMPDEST PUSH2 0xEB0 JUMP JUMPDEST CALLVALUE DUP1 ISZERO PUSH2 0x381 JUMPI PUSH1 0x0 DUP1 REVERT JUMPDEST POP PUSH2 0x2C0 PUSH2 0x390 CALLDATASIZE PUSH1 0x4 PUSH2 0x4120 JUMP JUMPDEST PUSH2 0xEFC JUMP JUMPDEST CALLVALUE DUP1 ISZERO PUSH2 0x3A1 JUMPI PUSH1 0x0 DUP1 REVERT JUMPDEST POP PUSH2 0x3B5 PUSH2 0x3B0 CALLDATASIZE PUSH1 0x4 PUSH2 0x415C JUMP JUMPDEST PUSH2 0xF41 JUMP JUMPDEST PUSH1 0x40 MLOAD PUSH2 0x2CC SWAP2 SWAP1 PUSH2 0x41AF JUMP JUMPDEST CALLVALUE DUP1 ISZERO PUSH2 0x3CE JUMPI PUSH1 0x0 DUP1 REVERT JUMPDEST POP PUSH2 0x3F6 PUSH32 0x7AABE2571874F2A330EA11C8972D9CC3792D973EFC6B36E3E29005861A344188 DUP2 JUMP JUMPDEST PUSH1 0x40 MLOAD SWAP1 DUP2 MSTORE PUSH1 0x20 ADD PUSH2 0x2CC JUMP JUMPDEST CALLVALUE DUP1 ISZERO PUSH2 0x410 JUMPI PUSH1 0x0 DUP1 REVERT JUMPDEST POP PUSH2 0x2C0 PUSH2 0x41F CALLDATASIZE PUSH1 0x4 PUSH2 0x415C JUMP JUMPDEST PUSH2 0x104C JUMP JUMPDEST CALLVALUE DUP1 ISZERO PUSH2 0x430 JUMPI PUSH1 0x0 DUP1 REVERT JUMPDEST POP PUSH2 0x439 PUSH2 0x107D JUMP JUMPDEST PUSH1 0x40 MLOAD PUSH2 0xFFFF SWAP1 SWAP2 AND DUP2 MSTORE PUSH1 0x20 ADD PUSH2 0x2CC JUMP JUMPDEST CALLVALUE DUP1 ISZERO PUSH2 0x458 JUMPI PUSH1 0x0 DUP1 REVERT JUMPDEST POP PUSH2 0x2C0 PUSH2 0x467 CALLDATASIZE PUSH1 0x4 PUSH2 0x4232 JUMP JUMPDEST PUSH2 0x1091 JUMP JUMPDEST CALLVALUE DUP1 ISZERO PUSH2 0x478 JUMPI PUSH1 0x0 DUP1 REVERT JUMPDEST POP PUSH2 0x2C0 PUSH2 0x487 CALLDATASIZE PUSH1 0x4 PUSH2 0x424F JUMP JUMPDEST PUSH2 0x11FF JUMP JUMPDEST CALLVALUE DUP1 ISZERO PUSH2 0x498 JUMPI PUSH1 0x0 DUP1 REVERT JUMPDEST POP PUSH2 0x3F6 PUSH2 0x15EC JUMP JUMPDEST CALLVALUE DUP1 ISZERO PUSH2 0x4AD JUMPI PUSH1 0x0 DUP1 REVERT JUMPDEST POP PUSH2 0x3F6 PUSH2 0x1637 JUMP JUMPDEST CALLVALUE DUP1 ISZERO PUSH2 0x4C2 JUMPI PUSH1 0x0 DUP1 REVERT JUMPDEST POP PUSH2 0x3F6 PUSH2 0x1663 JUMP JUMPDEST CALLVALUE DUP1 ISZERO PUSH2 0x4D7 JUMPI PUSH1 0x0 DUP1 REVERT JUMPDEST POP PUSH2 0x3F6 PUSH2 0x1697 JUMP JUMPDEST CALLVALUE DUP1 ISZERO PUSH2 0x4EC JUMPI PUSH1 0x0 DUP1 REVERT JUMPDEST POP PUSH2 0x2C0 PUSH2 0x4FB CALLDATASIZE PUSH1 0x4 PUSH2 0x415C JUMP JUMPDEST PUSH2 0x171B JUMP JUMPDEST CALLVALUE DUP1 ISZERO PUSH2 0x50C JUMPI PUSH1 0x0 DUP1 REVERT JUMPDEST POP PUSH2 0x2C0 PUSH2 0x51B CALLDATASIZE PUSH1 0x4 PUSH2 0x4271 JUMP JUMPDEST PUSH2 0x1744 JUMP JUMPDEST CALLVALUE DUP1 ISZERO PUSH2 0x52C JUMPI PUSH1 0x0 DUP1 REVERT JUMPDEST POP PUSH2 0x535 PUSH2 0x1791 JUMP JUMPDEST PUSH1 0x40 MLOAD PUSH1 0x1 PUSH1 0x1 PUSH1 0xA0 SHL SUB SWAP1 SWAP2 AND DUP2 MSTORE PUSH1 0x20 ADD PUSH2 0x2CC JUMP JUMPDEST CALLVALUE DUP1 ISZERO PUSH2 0x559 JUMPI PUSH1 0x0 DUP1 REVERT JUMPDEST POP PUSH2 0x3F6 PUSH32 0x8B73C3C69BB8FE3D512ECC4CF759CC79239F7B179B0FFACAA9A75D522B39400F DUP2 JUMP JUMPDEST CALLVALUE DUP1 ISZERO PUSH2 0x58D JUMPI PUSH1 0x0 DUP1 REVERT JUMPDEST POP PUSH2 0x3F6 PUSH2 0x179B JUMP JUMPDEST CALLVALUE DUP1 ISZERO PUSH2 0x5A2 JUMPI PUSH1 0x0 DUP1 REVERT JUMPDEST POP PUSH2 0x5B6 PUSH2 0x5B1 CALLDATASIZE PUSH1 0x4 PUSH2 0x42D3 JUMP JUMPDEST PUSH2 0x17DE JUMP JUMPDEST PUSH1 0x40 MLOAD PUSH2 0x2CC SWAP2 SWAP1 PUSH2 0x43EC JUMP JUMPDEST CALLVALUE DUP1 ISZERO PUSH2 0x5CF JUMPI PUSH1 0x0 DUP1 REVERT JUMPDEST POP PUSH2 0x3F6 PUSH2 0x192F JUMP JUMPDEST CALLVALUE DUP1 ISZERO PUSH2 0x5E4 JUMPI PUSH1 0x0 DUP1 REVERT JUMPDEST POP PUSH2 0x3F6 PUSH2 0x5F3 CALLDATASIZE PUSH1 0x4 PUSH2 0x4059 JUMP JUMPDEST PUSH2 0x1971 JUMP JUMPDEST CALLVALUE DUP1 ISZERO PUSH2 0x604 JUMPI PUSH1 0x0 DUP1 REVERT JUMPDEST POP PUSH2 0x5B6 PUSH2 0x1A1A JUMP JUMPDEST CALLVALUE DUP1 ISZERO PUSH2 0x619 JUMPI PUSH1 0x0 DUP1 REVERT JUMPDEST POP PUSH2 0x2C0 PUSH2 0x628 CALLDATASIZE PUSH1 0x4 PUSH2 0x424F JUMP JUMPDEST PUSH2 0x1AAC JUMP JUMPDEST CALLVALUE DUP1 ISZERO PUSH2 0x639 JUMPI PUSH1 0x0 DUP1 REVERT JUMPDEST POP PUSH2 0x64D PUSH2 0x648 CALLDATASIZE PUSH1 0x4 PUSH2 0x415C JUMP JUMPDEST PUSH2 0x1AE7 JUMP JUMPDEST PUSH1 0x40 MLOAD PUSH2 0x2CC SWAP2 SWAP1 PUSH2 0x43FF JUMP JUMPDEST CALLVALUE DUP1 ISZERO PUSH2 0x666 JUMPI PUSH1 0x0 DUP1 REVERT JUMPDEST POP PUSH2 0x5B6 PUSH2 0x1B3D JUMP JUMPDEST CALLVALUE DUP1 ISZERO PUSH2 0x67B JUMPI PUSH1 0x0 DUP1 REVERT JUMPDEST POP PUSH1 0x2 SLOAD PUSH1 0x1 PUSH1 0xA0 SHL SWAP1 DIV PUSH1 0xFF AND JUMPDEST PUSH1 0x40 MLOAD PUSH2 0x2CC SWAP2 SWAP1 PUSH2 0x4436 JUMP JUMPDEST CALLVALUE DUP1 ISZERO PUSH2 0x6A3 JUMPI PUSH1 0x0 DUP1 REVERT JUMPDEST POP PUSH1 0x2 SLOAD PUSH1 0x1 PUSH1 0x1 PUSH1 0xA0 SHL SUB AND PUSH2 0x535 JUMP JUMPDEST CALLVALUE DUP1 ISZERO PUSH2 0x6C1 JUMPI PUSH1 0x0 DUP1 REVERT JUMPDEST POP PUSH2 0x3F6 PUSH2 0x1B4C JUMP JUMPDEST CALLVALUE DUP1 ISZERO PUSH2 0x6D6 JUMPI PUSH1 0x0 DUP1 REVERT JUMPDEST POP PUSH2 0x3F6 PUSH2 0x1B8E JUMP JUMPDEST CALLVALUE DUP1 ISZERO PUSH2 0x6EB JUMPI PUSH1 0x0 DUP1 REVERT JUMPDEST POP PUSH2 0x3F6 PUSH2 0x1BC2 JUMP JUMPDEST CALLVALUE DUP1 ISZERO PUSH2 0x700 JUMPI PUSH1 0x0 DUP1 REVERT JUMPDEST POP PUSH2 0x709 PUSH2 0x1BF6 JUMP JUMPDEST PUSH1 0x40 MLOAD PUSH2 0x2CC SWAP2 SWAP1 PUSH2 0x4449 JUMP JUMPDEST CALLVALUE DUP1 ISZERO PUSH2 0x722 JUMPI PUSH1 0x0 DUP1 REVERT JUMPDEST POP PUSH2 0x3F6 PUSH2 0x1E20 JUMP JUMPDEST CALLVALUE DUP1 ISZERO PUSH2 0x737 JUMPI PUSH1 0x0 DUP1 REVERT JUMPDEST POP PUSH2 0x2C0 PUSH2 0x746 CALLDATASIZE PUSH1 0x4 PUSH2 0x424F JUMP JUMPDEST PUSH2 0x1E53 JUMP JUMPDEST CALLVALUE DUP1 ISZERO PUSH2 0x757 JUMPI PUSH1 0x0 DUP1 REVERT JUMPDEST POP PUSH2 0x2C0 PUSH2 0x766 CALLDATASIZE PUSH1 0x4 PUSH2 0x4059 JUMP JUMPDEST PUSH2 0x1E83 JUMP JUMPDEST CALLVALUE DUP1 ISZERO PUSH2 0x777 JUMPI PUSH1 0x0 DUP1 REVERT JUMPDEST POP PUSH2 0x2C0 PUSH2 0x786 CALLDATASIZE PUSH1 0x4 PUSH2 0x415C JUMP JUMPDEST PUSH2 0x203C JUMP JUMPDEST CALLVALUE DUP1 ISZERO PUSH2 0x797 JUMPI PUSH1 0x0 DUP1 REVERT JUMPDEST POP PUSH2 0x3F6 PUSH2 0x206F JUMP JUMPDEST CALLVALUE DUP1 ISZERO PUSH2 0x7AC JUMPI PUSH1 0x0 DUP1 REVERT JUMPDEST POP PUSH2 0x3F6 PUSH2 0x20B2 JUMP JUMPDEST CALLVALUE DUP1 ISZERO PUSH2 0x7C1 JUMPI PUSH1 0x0 DUP1 REVERT JUMPDEST POP PUSH2 0x3F6 PUSH2 0x20E6 JUMP JUMPDEST CALLVALUE DUP1 ISZERO PUSH2 0x7D6 JUMPI PUSH1 0x0 DUP1 REVERT JUMPDEST POP PUSH2 0x3F6 PUSH2 0x2129 JUMP JUMPDEST CALLVALUE DUP1 ISZERO PUSH2 0x7EB JUMPI PUSH1 0x0 DUP1 REVERT JUMPDEST POP PUSH2 0x3F6 PUSH32 0xFC434588684348DD50856B075C47BED14245C1030AA04C32955AF55499814627 DUP2 JUMP JUMPDEST CALLVALUE DUP1 ISZERO PUSH2 0x81F JUMPI PUSH1 0x0 DUP1 REVERT JUMPDEST POP PUSH2 0x3F6 PUSH32 0x31238DA5536EF05686D34CCF0DE000A4926293566B3711F6E73963B73AD026FE DUP2 JUMP JUMPDEST CALLVALUE DUP1 ISZERO PUSH2 0x853 JUMPI PUSH1 0x0 DUP1 REVERT JUMPDEST POP PUSH2 0x3F6 PUSH2 0x215D JUMP JUMPDEST CALLVALUE DUP1 ISZERO PUSH2 0x868 JUMPI PUSH1 0x0 DUP1 REVERT JUMPDEST POP PUSH2 0x2C0 PUSH2 0x877 CALLDATASIZE PUSH1 0x4 PUSH2 0x4232 JUMP JUMPDEST PUSH2 0x2167 JUMP JUMPDEST CALLVALUE DUP1 ISZERO PUSH2 0x888 JUMPI PUSH1 0x0 DUP1 REVERT JUMPDEST POP PUSH2 0x535 PUSH2 0x22E3 JUMP JUMPDEST CALLVALUE DUP1 ISZERO PUSH2 0x89D JUMPI PUSH1 0x0 DUP1 REVERT JUMPDEST POP PUSH1 0x2 SLOAD PUSH1 0x1 PUSH1 0xA8 SHL SWAP1 DIV PUSH1 0xFF AND PUSH2 0x68A JUMP JUMPDEST PUSH1 0x0 PUSH1 0x1 PUSH1 0x1 PUSH1 0xE0 SHL SUB NOT DUP3 AND PUSH4 0x7A327937 PUSH1 0xE0 SHL EQ DUP1 PUSH2 0x8D5 JUMPI POP PUSH2 0x8D5 DUP3 PUSH2 0x22F0 JUMP JUMPDEST SWAP3 SWAP2 POP POP JUMP JUMPDEST PUSH1 0x1 PUSH1 0x1 PUSH1 0xA0 SHL SUB PUSH32 0x0 AND ADDRESS SUB PUSH2 0x92C JUMPI PUSH1 0x40 MLOAD PUSH3 0x461BCD PUSH1 0xE5 SHL DUP2 MSTORE PUSH1 0x4 ADD PUSH2 0x923 SWAP1 PUSH2 0x4516 JUMP JUMPDEST PUSH1 0x40 MLOAD DUP1 SWAP2 SUB SWAP1 REVERT JUMPDEST PUSH32 0x0 PUSH1 0x1 PUSH1 0x1 PUSH1 0xA0 SHL SUB AND PUSH2 0x95E PUSH2 0x2340 JUMP JUMPDEST PUSH1 0x1 PUSH1 0x1 PUSH1 0xA0 SHL SUB AND EQ PUSH2 0x984 JUMPI PUSH1 0x40 MLOAD PUSH3 0x461BCD PUSH1 0xE5 SHL DUP2 MSTORE PUSH1 0x4 ADD PUSH2 0x923 SWAP1 PUSH2 0x453C JUMP JUMPDEST CALLER PUSH2 0x98D PUSH2 0x2361 JUMP JUMPDEST PUSH1 0x1 PUSH1 0x1 PUSH1 0xA0 SHL SUB AND EQ PUSH2 0x9D4 JUMPI PUSH1 0x40 MLOAD PUSH3 0x461BCD PUSH1 0xE5 SHL DUP2 MSTORE PUSH1 0x20 PUSH1 0x4 DUP3 ADD MSTORE PUSH1 0xE PUSH1 0x24 DUP3 ADD MSTORE PUSH14 0x139BDD08105D5D1A1BDC9A5E9959 PUSH1 0x92 SHL PUSH1 0x44 DUP3 ADD MSTORE PUSH1 0x64 ADD PUSH2 0x923 JUMP JUMPDEST PUSH1 0x4C SLOAD PUSH3 0x10000 SWAP1 DIV PUSH1 0xFF AND ISZERO DUP1 DUP1 ISZERO PUSH2 0x9F6 JUMPI POP PUSH1 0x4C SLOAD PUSH1 0x1 PUSH2 0xFFFF SWAP1 SWAP2 AND LT JUMPDEST DUP1 PUSH2 0xA11 JUMPI POP ADDRESS EXTCODESIZE ISZERO DUP1 ISZERO PUSH2 0xA11 JUMPI POP PUSH1 0x4C SLOAD PUSH2 0xFFFF AND PUSH1 0x1 EQ JUMPDEST PUSH2 0xA5D JUMPI PUSH1 0x40 MLOAD PUSH3 0x461BCD PUSH1 0xE5 SHL DUP2 MSTORE PUSH1 0x20 PUSH1 0x4 DUP3 ADD MSTORE PUSH1 0x1C PUSH1 0x24 DUP3 ADD MSTORE PUSH32 0x436F6E747261637420416C726561647920496E697469616C697A656400000000 PUSH1 0x44 DUP3 ADD MSTORE PUSH1 0x64 ADD PUSH2 0x923 JUMP JUMPDEST PUSH1 0x4C DUP1 SLOAD PUSH2 0xFFFF NOT AND PUSH1 0x1 OR SWAP1 SSTORE DUP1 ISZERO PUSH2 0xA83 JUMPI PUSH1 0x4C DUP1 SLOAD PUSH3 0xFF0000 NOT AND PUSH3 0x10000 OR SWAP1 SSTORE JUMPDEST PUSH2 0xA90 DUP7 DUP7 DUP7 DUP7 DUP7 PUSH2 0x2389 JUMP JUMPDEST PUSH2 0xA98 PUSH2 0x2340 JUMP JUMPDEST PUSH1 0x1 PUSH1 0x1 PUSH1 0xA0 SHL SUB AND ADDRESS CALLER PUSH1 0x1 PUSH1 0x1 PUSH1 0xA0 SHL SUB AND PUSH32 0x247AB7B17EE489FA140C6666EDC3822EEFED2727610CD6E37192462B87244C60 DUP10 DUP10 DUP10 DUP10 PUSH2 0xADE PUSH1 0x4C SLOAD PUSH2 0xFFFF AND SWAP1 JUMP JUMPDEST PUSH1 0x40 MLOAD PUSH2 0xAEF SWAP6 SWAP5 SWAP4 SWAP3 SWAP2 SWAP1 PUSH2 0x458B JUMP JUMPDEST PUSH1 0x40 MLOAD DUP1 SWAP2 SUB SWAP1 LOG4 DUP1 ISZERO PUSH2 0xB0A JUMPI PUSH1 0x4C DUP1 SLOAD PUSH3 0xFF0000 NOT AND SWAP1 SSTORE JUMPDEST POP POP POP POP POP POP JUMP JUMPDEST PUSH1 0x0 PUSH1 0x1 PUSH1 0x1 PUSH1 0xA0 SHL SUB PUSH32 0x0 AND ADDRESS SUB PUSH2 0xB5C JUMPI PUSH1 0x40 MLOAD PUSH3 0x461BCD PUSH1 0xE5 SHL DUP2 MSTORE PUSH1 0x4 ADD PUSH2 0x923 SWAP1 PUSH2 0x4516 JUMP JUMPDEST PUSH32 0x0 PUSH1 0x1 PUSH1 0x1 PUSH1 0xA0 SHL SUB AND PUSH2 0xB8E PUSH2 0x2340 JUMP JUMPDEST PUSH1 0x1 PUSH1 0x1 PUSH1 0xA0 SHL SUB AND EQ PUSH2 0xBB4 JUMPI PUSH1 0x40 MLOAD PUSH3 0x461BCD PUSH1 0xE5 SHL DUP2 MSTORE PUSH1 0x4 ADD PUSH2 0x923 SWAP1 PUSH2 0x453C JUMP JUMPDEST CALLER PUSH2 0xBBD PUSH2 0x2361 JUMP JUMPDEST PUSH1 0x1 PUSH1 0x1 PUSH1 0xA0 SHL SUB AND EQ PUSH2 0xC04 JUMPI PUSH1 0x40 MLOAD PUSH3 0x461BCD PUSH1 0xE5 SHL DUP2 MSTORE PUSH1 0x20 PUSH1 0x4 DUP3 ADD MSTORE PUSH1 0xE PUSH1 0x24 DUP3 ADD MSTORE PUSH14 0x139BDD08105D5D1A1BDC9A5E9959 PUSH1 0x92 SHL PUSH1 0x44 DUP3 ADD MSTORE PUSH1 0x64 ADD PUSH2 0x923 JUMP JUMPDEST PUSH1 0x1 PUSH1 0x2 DUP1 SLOAD PUSH1 0x1 PUSH1 0xA0 SHL SWAP1 DIV PUSH1 0xFF AND SWAP1 DUP2 GT ISZERO PUSH2 0xC24 JUMPI PUSH2 0xC24 PUSH2 0x4175 JUMP JUMPDEST EQ PUSH2 0xC41 JUMPI PUSH1 0x40 MLOAD PUSH3 0x461BCD PUSH1 0xE5 SHL DUP2 MSTORE PUSH1 0x4 ADD PUSH2 0x923 SWAP1 PUSH2 0x45C9 JUMP JUMPDEST PUSH1 0x2 DUP1 DUP1 SLOAD PUSH1 0x1 PUSH1 0xA8 SHL SWAP1 DIV PUSH1 0xFF AND SWAP1 DUP2 GT ISZERO PUSH2 0xC60 JUMPI PUSH2 0xC60 PUSH2 0x4175 JUMP JUMPDEST EQ PUSH2 0xC9E JUMPI PUSH1 0x40 MLOAD PUSH3 0x461BCD PUSH1 0xE5 SHL DUP2 MSTORE PUSH1 0x20 PUSH1 0x4 DUP3 ADD MSTORE PUSH1 0xE PUSH1 0x24 DUP3 ADD MSTORE PUSH14 0x496C6C6567616C20557064617465 PUSH1 0x90 SHL PUSH1 0x44 DUP3 ADD MSTORE PUSH1 0x64 ADD PUSH2 0x923 JUMP JUMPDEST PUSH1 0x1 PUSH1 0x1 PUSH1 0xA0 SHL SUB DUP3 AND PUSH2 0xCE6 JUMPI PUSH1 0x40 MLOAD PUSH3 0x461BCD PUSH1 0xE5 SHL DUP2 MSTORE PUSH1 0x20 PUSH1 0x4 DUP3 ADD MSTORE PUSH1 0xF PUSH1 0x24 DUP3 ADD MSTORE PUSH15 0x496C6C6567616C2041646472657373 PUSH1 0x88 SHL PUSH1 0x44 DUP3 ADD MSTORE PUSH1 0x64 ADD PUSH2 0x923 JUMP JUMPDEST PUSH1 0x2 SLOAD PUSH1 0x1 PUSH1 0x1 PUSH1 0xA0 SHL SUB AND ISZERO PUSH2 0xD23 JUMPI PUSH2 0xD07 PUSH4 0xD9DC1F19 PUSH1 0xE0 SHL PUSH2 0x239D JUMP JUMPDEST PUSH2 0xD23 JUMPI PUSH1 0x40 MLOAD PUSH3 0x461BCD PUSH1 0xE5 SHL DUP2 MSTORE PUSH1 0x4 ADD PUSH2 0x923 SWAP1 PUSH2 0x45EB JUMP JUMPDEST PUSH1 0x40 MLOAD PUSH4 0x1FFC9A7 PUSH1 0xE0 SHL DUP2 MSTORE PUSH4 0x7A327937 PUSH1 0xE0 SHL PUSH1 0x4 DUP3 ADD MSTORE PUSH1 0x1 PUSH1 0x1 PUSH1 0xA0 SHL SUB DUP4 AND SWAP1 PUSH4 0x1FFC9A7 SWAP1 PUSH1 0x24 ADD PUSH1 0x20 PUSH1 0x40 MLOAD DUP1 DUP4 SUB DUP2 DUP7 GAS STATICCALL ISZERO DUP1 ISZERO PUSH2 0xD6E JUMPI RETURNDATASIZE PUSH1 0x0 DUP1 RETURNDATACOPY RETURNDATASIZE PUSH1 0x0 REVERT JUMPDEST POP POP POP POP PUSH1 0x40 MLOAD RETURNDATASIZE PUSH1 0x1F NOT PUSH1 0x1F DUP3 ADD AND DUP3 ADD DUP1 PUSH1 0x40 MSTORE POP DUP2 ADD SWAP1 PUSH2 0xD92 SWAP2 SWAP1 PUSH2 0x460E JUMP JUMPDEST PUSH2 0xDCC JUMPI PUSH1 0x40 MLOAD PUSH3 0x461BCD PUSH1 0xE5 SHL DUP2 MSTORE PUSH1 0x20 PUSH1 0x4 DUP3 ADD MSTORE PUSH1 0xB PUSH1 0x24 DUP3 ADD MSTORE PUSH11 0x125B1B1959D85B081050D3 PUSH1 0xAA SHL PUSH1 0x44 DUP3 ADD MSTORE PUSH1 0x64 ADD PUSH2 0x923 JUMP JUMPDEST PUSH1 0x2 DUP1 SLOAD PUSH1 0x1 PUSH1 0x1 PUSH1 0xA0 SHL SUB NOT AND PUSH1 0x1 PUSH1 0x1 PUSH1 0xA0 SHL SUB DUP5 AND SWAP1 DUP2 OR SWAP1 SWAP2 SSTORE PUSH1 0x40 MLOAD SWAP1 DUP2 MSTORE ADDRESS SWAP1 CALLER SWAP1 PUSH32 0x410BF468EEBEEED60ACAEDB904AFB2DB7C0BB0131F7D14C3714D81B14FE8ED3C SWAP1 PUSH1 0x20 ADD JUMPDEST PUSH1 0x40 MLOAD DUP1 SWAP2 SUB SWAP1 LOG3 POP PUSH1 0x1 JUMPDEST SWAP2 SWAP1 POP JUMP JUMPDEST PUSH1 0x0 DUP1 PUSH2 0xE38 DUP6 DUP6 PUSH2 0x2589 JUMP JUMPDEST SWAP1 POP PUSH1 0x0 DUP1 PUSH2 0xE48 PUSH1 0x44 DUP5 PUSH2 0x25D9 JUMP JUMPDEST SWAP2 POP SWAP2 POP DUP1 PUSH2 0xE5D JUMPI PUSH1 0x0 SWAP4 POP POP POP POP PUSH2 0xE6E JUMP JUMPDEST PUSH2 0xE68 DUP9 DUP7 DUP5 PUSH2 0x263A JUMP JUMPDEST SWAP4 POP POP POP POP JUMPDEST SWAP5 SWAP4 POP POP POP POP JUMP JUMPDEST PUSH1 0x0 DUP1 DUP1 PUSH2 0xE85 PUSH1 0x44 DUP7 PUSH2 0x25D9 JUMP JUMPDEST SWAP2 POP SWAP2 POP DUP1 PUSH2 0xE99 JUMPI PUSH1 0x0 SWAP3 POP POP POP PUSH2 0xEA9 JUMP JUMPDEST PUSH2 0xEA4 DUP7 DUP6 DUP5 PUSH2 0x263A JUMP JUMPDEST SWAP3 POP POP POP JUMPDEST SWAP4 SWAP3 POP POP POP JUMP JUMPDEST PUSH1 0x0 DUP1 PUSH2 0xEBD DUP6 DUP6 PUSH2 0x2589 JUMP JUMPDEST SWAP1 POP PUSH1 0x0 DUP1 PUSH2 0xECD PUSH1 0x44 DUP5 PUSH2 0x25D9 JUMP JUMPDEST SWAP2 POP SWAP2 POP DUP1 PUSH2 0xEE2 JUMPI PUSH1 0x0 SWAP4 POP POP POP POP PUSH2 0xEA9 JUMP JUMPDEST PUSH2 0xEF1 DUP3 PUSH1 0x2 ADD SLOAD DUP7 DUP5 PUSH2 0x263A JUMP JUMPDEST SWAP8 SWAP7 POP POP POP POP POP POP POP JUMP JUMPDEST PUSH1 0x0 DUP1 PUSH2 0xF09 DUP5 DUP5 PUSH2 0x2589 JUMP JUMPDEST SWAP1 POP PUSH1 0x0 DUP1 PUSH2 0xF19 PUSH1 0x44 DUP5 PUSH2 0x25D9 JUMP JUMPDEST SWAP2 POP SWAP2 POP DUP1 PUSH2 0xF2E JUMPI PUSH1 0x0 SWAP4 POP POP POP POP PUSH2 0xEA9 JUMP JUMPDEST PUSH2 0xEF1 DUP8 PUSH2 0xF3B CALLER PUSH2 0x321C JUMP JUMPDEST DUP5 PUSH2 0x263A JUMP JUMPDEST PUSH2 0xF49 PUSH2 0x3EEC JUMP JUMPDEST PUSH1 0x0 DUP3 DUP2 MSTORE PUSH1 0x44 PUSH1 0x20 SWAP1 DUP2 MSTORE PUSH1 0x40 SWAP2 DUP3 SWAP1 KECCAK256 DUP3 MLOAD PUSH1 0xE0 DUP2 ADD SWAP1 SWAP4 MSTORE DUP1 SLOAD DUP4 MSTORE PUSH1 0x1 DUP2 ADD SLOAD SWAP1 SWAP2 DUP4 ADD SWAP1 PUSH1 0xFF AND PUSH1 0x3 DUP2 GT ISZERO PUSH2 0xF86 JUMPI PUSH2 0xF86 PUSH2 0x4175 JUMP JUMPDEST PUSH1 0x3 DUP2 GT ISZERO PUSH2 0xF97 JUMPI PUSH2 0xF97 PUSH2 0x4175 JUMP JUMPDEST DUP2 MSTORE PUSH1 0x20 ADD PUSH1 0x1 DUP3 ADD PUSH1 0x1 SWAP1 SLOAD SWAP1 PUSH2 0x100 EXP SWAP1 DIV PUSH1 0xFF AND PUSH1 0x4 DUP2 GT ISZERO PUSH2 0xFBF JUMPI PUSH2 0xFBF PUSH2 0x4175 JUMP JUMPDEST PUSH1 0x4 DUP2 GT ISZERO PUSH2 0xFD0 JUMPI PUSH2 0xFD0 PUSH2 0x4175 JUMP JUMPDEST DUP2 MSTORE PUSH1 0x20 ADD PUSH1 0x1 DUP3 ADD PUSH1 0x2 SWAP1 SLOAD SWAP1 PUSH2 0x100 EXP SWAP1 DIV PUSH1 0xFF AND PUSH1 0x3 DUP2 GT ISZERO PUSH2 0xFF8 JUMPI PUSH2 0xFF8 PUSH2 0x4175 JUMP JUMPDEST PUSH1 0x3 DUP2 GT ISZERO PUSH2 0x1009 JUMPI PUSH2 0x1009 PUSH2 0x4175 JUMP JUMPDEST DUP2 MSTORE PUSH1 0x1 SWAP2 SWAP1 SWAP2 ADD SLOAD PUSH2 0xFFFF PUSH4 0x1000000 DUP3 DIV DUP2 AND PUSH1 0x20 DUP5 ADD MSTORE PUSH6 0x10000000000 DUP3 DIV DUP2 AND PUSH1 0x40 DUP5 ADD MSTORE PUSH8 0x100000000000000 SWAP1 SWAP2 DIV AND PUSH1 0x60 SWAP1 SWAP2 ADD MSTORE SWAP3 SWAP2 POP POP JUMP JUMPDEST PUSH1 0x0 DUP1 PUSH1 0x0 DUP4 DUP2 MSTORE PUSH1 0x45 PUSH1 0x20 MSTORE PUSH1 0x40 SWAP1 KECCAK256 PUSH1 0x1 ADD SLOAD PUSH1 0xFF AND PUSH1 0x5 DUP2 GT ISZERO PUSH2 0x1075 JUMPI PUSH2 0x1075 PUSH2 0x4175 JUMP JUMPDEST EQ ISZERO SWAP3 SWAP2 POP POP JUMP JUMPDEST PUSH1 0x0 PUSH2 0x108C PUSH1 0x4C SLOAD PUSH2 0xFFFF AND SWAP1 JUMP JUMPDEST SWAP1 POP SWAP1 JUMP JUMPDEST PUSH1 0x0 PUSH1 0x1 PUSH1 0x1 PUSH1 0xA0 SHL SUB PUSH32 0x0 AND ADDRESS SUB PUSH2 0x10DB JUMPI PUSH1 0x40 MLOAD PUSH3 0x461BCD PUSH1 0xE5 SHL DUP2 MSTORE PUSH1 0x4 ADD PUSH2 0x923 SWAP1 PUSH2 0x4516 JUMP JUMPDEST PUSH32 0x0 PUSH1 0x1 PUSH1 0x1 PUSH1 0xA0 SHL SUB AND PUSH2 0x110D PUSH2 0x2340 JUMP JUMPDEST PUSH1 0x1 PUSH1 0x1 PUSH1 0xA0 SHL SUB AND EQ PUSH2 0x1133 JUMPI PUSH1 0x40 MLOAD PUSH3 0x461BCD PUSH1 0xE5 SHL DUP2 MSTORE PUSH1 0x4 ADD PUSH2 0x923 SWAP1 PUSH2 0x453C JUMP JUMPDEST PUSH1 0x1 PUSH1 0x2 DUP1 SLOAD PUSH1 0x1 PUSH1 0xA0 SHL SWAP1 DIV PUSH1 0xFF AND SWAP1 DUP2 GT ISZERO PUSH2 0x1153 JUMPI PUSH2 0x1153 PUSH2 0x4175 JUMP JUMPDEST EQ PUSH2 0x1170 JUMPI PUSH1 0x40 MLOAD PUSH3 0x461BCD PUSH1 0xE5 SHL DUP2 MSTORE PUSH1 0x4 ADD PUSH2 0x923 SWAP1 PUSH2 0x45C9 JUMP JUMPDEST PUSH2 0x1180 PUSH4 0x733ADC7 PUSH1 0xE3 SHL PUSH2 0x239D JUMP JUMPDEST PUSH2 0x119C JUMPI PUSH1 0x40 MLOAD PUSH3 0x461BCD PUSH1 0xE5 SHL DUP2 MSTORE PUSH1 0x4 ADD PUSH2 0x923 SWAP1 PUSH2 0x45EB JUMP JUMPDEST PUSH1 0x2 DUP1 SLOAD DUP4 SWAP2 SWAP1 PUSH1 0xFF PUSH1 0xA8 SHL NOT AND PUSH1 0x1 PUSH1 0xA8 SHL DUP4 DUP4 DUP2 GT ISZERO PUSH2 0x11C0 JUMPI PUSH2 0x11C0 PUSH2 0x4175 JUMP JUMPDEST MUL OR SWAP1 SSTORE POP ADDRESS CALLER PUSH1 0x1 PUSH1 0x1 PUSH1 0xA0 SHL SUB AND PUSH32 0xF5912C5E436152157ED2B4A84BC313B4B1FE09A15B941F195D23C99A1B8C45AD DUP5 PUSH1 0x40 MLOAD PUSH2 0xE1A SWAP2 SWAP1 PUSH2 0x4436 JUMP JUMPDEST PUSH1 0x0 DUP3 DUP2 MSTORE PUSH1 0x45 PUSH1 0x20 MSTORE PUSH1 0x40 DUP1 DUP3 KECCAK256 PUSH1 0x1 SWAP1 DUP2 ADD SLOAD DUP5 DUP5 MSTORE SWAP2 DUP4 KECCAK256 ADD SLOAD PUSH1 0xFF SWAP2 DUP3 AND SWAP2 AND DUP3 DUP3 PUSH1 0x5 DUP2 GT ISZERO PUSH2 0x1236 JUMPI PUSH2 0x1236 PUSH2 0x4175 JUMP JUMPDEST EQ DUP1 PUSH2 0x1253 JUMPI POP PUSH1 0x0 DUP2 PUSH1 0x5 DUP2 GT ISZERO PUSH2 0x1251 JUMPI PUSH2 0x1251 PUSH2 0x4175 JUMP JUMPDEST EQ JUMPDEST ISZERO PUSH2 0x1263 JUMPI PUSH1 0x0 SWAP3 POP POP POP PUSH2 0x8D5 JUMP JUMPDEST PUSH1 0x5 DUP3 PUSH1 0x5 DUP2 GT ISZERO PUSH2 0x1277 JUMPI PUSH2 0x1277 PUSH2 0x4175 JUMP JUMPDEST SUB PUSH2 0x1287 JUMPI PUSH1 0x1 SWAP3 POP POP POP PUSH2 0x8D5 JUMP JUMPDEST PUSH1 0x2 DUP3 PUSH1 0x5 DUP2 GT ISZERO PUSH2 0x129B JUMPI PUSH2 0x129B PUSH2 0x4175 JUMP JUMPDEST EQ DUP1 ISZERO PUSH2 0x12B9 JUMPI POP PUSH1 0x1 DUP2 PUSH1 0x5 DUP2 GT ISZERO PUSH2 0x12B7 JUMPI PUSH2 0x12B7 PUSH2 0x4175 JUMP JUMPDEST EQ JUMPDEST ISZERO PUSH2 0x12E4 JUMPI PUSH1 0x0 PUSH2 0x12CB PUSH1 0x44 DUP8 PUSH2 0x325B JUMP JUMPDEST SWAP1 POP PUSH2 0x12DA PUSH1 0x4 DUP3 ADD DUP7 PUSH2 0x3336 JUMP JUMPDEST SWAP4 POP POP POP POP PUSH2 0x8D5 JUMP JUMPDEST PUSH1 0x3 DUP3 PUSH1 0x5 DUP2 GT ISZERO PUSH2 0x12F8 JUMPI PUSH2 0x12F8 PUSH2 0x4175 JUMP JUMPDEST EQ DUP1 ISZERO PUSH2 0x1316 JUMPI POP PUSH1 0x1 DUP2 PUSH1 0x5 DUP2 GT ISZERO PUSH2 0x1314 JUMPI PUSH2 0x1314 PUSH2 0x4175 JUMP JUMPDEST EQ JUMPDEST ISZERO PUSH2 0x135E JUMPI PUSH1 0x0 PUSH2 0x1328 PUSH1 0x44 DUP7 PUSH2 0x334E JUMP JUMPDEST SWAP1 POP PUSH1 0x0 PUSH2 0x1337 PUSH1 0x44 DUP9 PUSH2 0x3429 JUMP JUMPDEST SWAP1 POP PUSH2 0x1353 DUP3 PUSH1 0x3 ADD SLOAD DUP3 PUSH1 0x5 ADD PUSH2 0x3336 SWAP1 SWAP2 SWAP1 PUSH4 0xFFFFFFFF AND JUMP JUMPDEST SWAP5 POP POP POP POP POP PUSH2 0x8D5 JUMP JUMPDEST PUSH1 0x4 DUP3 PUSH1 0x5 DUP2 GT ISZERO PUSH2 0x1372 JUMPI PUSH2 0x1372 PUSH2 0x4175 JUMP JUMPDEST EQ DUP1 ISZERO PUSH2 0x1390 JUMPI POP PUSH1 0x1 DUP2 PUSH1 0x5 DUP2 GT ISZERO PUSH2 0x138E JUMPI PUSH2 0x138E PUSH2 0x4175 JUMP JUMPDEST EQ JUMPDEST ISZERO PUSH2 0x13F5 JUMPI PUSH1 0x0 PUSH2 0x13A2 PUSH1 0x44 DUP7 PUSH2 0x334E JUMP JUMPDEST SWAP1 POP PUSH1 0x0 PUSH2 0x13BE DUP3 PUSH1 0x3 ADD SLOAD PUSH1 0x44 PUSH2 0x325B SWAP1 SWAP2 SWAP1 PUSH4 0xFFFFFFFF AND JUMP JUMPDEST SWAP1 POP PUSH1 0x0 PUSH2 0x13CD PUSH1 0x44 DUP10 PUSH2 0x3504 JUMP JUMPDEST SWAP1 POP PUSH2 0x13E9 DUP3 PUSH1 0x2 ADD SLOAD DUP3 PUSH1 0x4 ADD PUSH2 0x3336 SWAP1 SWAP2 SWAP1 PUSH4 0xFFFFFFFF AND JUMP JUMPDEST SWAP6 POP POP POP POP POP POP PUSH2 0x8D5 JUMP JUMPDEST PUSH1 0x5 DUP3 PUSH1 0x5 DUP2 GT ISZERO PUSH2 0x1409 JUMPI PUSH2 0x1409 PUSH2 0x4175 JUMP JUMPDEST EQ DUP1 ISZERO PUSH2 0x1427 JUMPI POP PUSH1 0x1 DUP2 PUSH1 0x5 DUP2 GT ISZERO PUSH2 0x1425 JUMPI PUSH2 0x1425 PUSH2 0x4175 JUMP JUMPDEST EQ JUMPDEST ISZERO PUSH2 0x145F JUMPI PUSH1 0x1 JUMPDEST PUSH1 0x0 DUP6 DUP2 MSTORE PUSH1 0x45 PUSH1 0x20 MSTORE PUSH1 0x40 SWAP1 KECCAK256 PUSH1 0x1 ADD SLOAD PUSH1 0xFF AND PUSH1 0x5 DUP2 GT ISZERO PUSH2 0x1455 JUMPI PUSH2 0x1455 PUSH2 0x4175 JUMP JUMPDEST EQ SWAP3 POP POP POP PUSH2 0x8D5 JUMP JUMPDEST PUSH1 0x3 DUP3 PUSH1 0x5 DUP2 GT ISZERO PUSH2 0x1473 JUMPI PUSH2 0x1473 PUSH2 0x4175 JUMP JUMPDEST EQ DUP1 ISZERO PUSH2 0x1491 JUMPI POP PUSH1 0x2 DUP2 PUSH1 0x5 DUP2 GT ISZERO PUSH2 0x148F JUMPI PUSH2 0x148F PUSH2 0x4175 JUMP JUMPDEST EQ JUMPDEST ISZERO PUSH2 0x14B2 JUMPI PUSH1 0x0 PUSH2 0x14A3 PUSH1 0x44 DUP8 PUSH2 0x3429 JUMP JUMPDEST SWAP1 POP PUSH2 0x12DA PUSH1 0x5 DUP3 ADD DUP7 PUSH2 0x3336 JUMP JUMPDEST PUSH1 0x4 DUP3 PUSH1 0x5 DUP2 GT ISZERO PUSH2 0x14C6 JUMPI PUSH2 0x14C6 PUSH2 0x4175 JUMP JUMPDEST EQ DUP1 ISZERO PUSH2 0x14E4 JUMPI POP PUSH1 0x2 DUP2 PUSH1 0x5 DUP2 GT ISZERO PUSH2 0x14E2 JUMPI PUSH2 0x14E2 PUSH2 0x4175 JUMP JUMPDEST EQ JUMPDEST ISZERO PUSH2 0x1521 JUMPI PUSH1 0x0 PUSH2 0x14F6 PUSH1 0x44 DUP7 PUSH2 0x325B JUMP JUMPDEST SWAP1 POP PUSH1 0x0 PUSH2 0x1505 PUSH1 0x44 DUP9 PUSH2 0x3504 JUMP JUMPDEST SWAP1 POP PUSH2 0x1353 DUP3 PUSH1 0x2 ADD SLOAD DUP3 PUSH1 0x4 ADD PUSH2 0x3336 SWAP1 SWAP2 SWAP1 PUSH4 0xFFFFFFFF AND JUMP JUMPDEST PUSH1 0x5 DUP3 PUSH1 0x5 DUP2 GT ISZERO PUSH2 0x1535 JUMPI PUSH2 0x1535 PUSH2 0x4175 JUMP JUMPDEST EQ DUP1 ISZERO PUSH2 0x1553 JUMPI POP PUSH1 0x2 DUP2 PUSH1 0x5 DUP2 GT ISZERO PUSH2 0x1551 JUMPI PUSH2 0x1551 PUSH2 0x4175 JUMP JUMPDEST EQ JUMPDEST ISZERO PUSH2 0x155F JUMPI PUSH1 0x2 PUSH2 0x142F JUMP JUMPDEST PUSH1 0x4 DUP3 PUSH1 0x5 DUP2 GT ISZERO PUSH2 0x1573 JUMPI PUSH2 0x1573 PUSH2 0x4175 JUMP JUMPDEST EQ DUP1 ISZERO PUSH2 0x1591 JUMPI POP PUSH1 0x3 DUP2 PUSH1 0x5 DUP2 GT ISZERO PUSH2 0x158F JUMPI PUSH2 0x158F PUSH2 0x4175 JUMP JUMPDEST EQ JUMPDEST ISZERO PUSH2 0x15A3 JUMPI PUSH1 0x0 PUSH2 0x12CB PUSH1 0x44 DUP8 PUSH2 0x3504 JUMP JUMPDEST PUSH1 0x5 DUP3 PUSH1 0x5 DUP2 GT ISZERO PUSH2 0x15B7 JUMPI PUSH2 0x15B7 PUSH2 0x4175 JUMP JUMPDEST EQ DUP1 ISZERO PUSH2 0x15D5 JUMPI POP PUSH1 0x3 DUP2 PUSH1 0x5 DUP2 GT ISZERO PUSH2 0x15D3 JUMPI PUSH2 0x15D3 PUSH2 0x4175 JUMP JUMPDEST EQ JUMPDEST ISZERO PUSH2 0x15E1 JUMPI PUSH1 0x3 PUSH2 0x142F JUMP JUMPDEST POP PUSH1 0x0 SWAP5 SWAP4 POP POP POP POP JUMP JUMPDEST PUSH1 0x40 MLOAD PUSH32 0x4C4956454C595F56455253455F4147454E545F4D41535445525F545950450000 PUSH1 0x20 DUP3 ADD MSTORE PUSH1 0x0 SWAP1 PUSH1 0x3E ADD JUMPDEST PUSH1 0x40 MLOAD PUSH1 0x20 DUP2 DUP4 SUB SUB DUP2 MSTORE SWAP1 PUSH1 0x40 MSTORE DUP1 MLOAD SWAP1 PUSH1 0x20 ADD KECCAK256 SWAP1 POP SWAP1 JUMP JUMPDEST PUSH1 0x40 MLOAD PUSH21 0x4C4956454C595F56455253455F414E595F54595045 PUSH1 0x58 SHL PUSH1 0x20 DUP3 ADD MSTORE PUSH1 0x0 SWAP1 PUSH1 0x35 ADD PUSH2 0x161C JUMP JUMPDEST PUSH1 0x40 MLOAD PUSH32 0x4C4956454C595F56455253455F504F4C4943595F4D41535445525F5459504500 PUSH1 0x20 DUP3 ADD MSTORE PUSH1 0x0 SWAP1 PUSH1 0x3F ADD PUSH2 0x161C JUMP JUMPDEST PUSH1 0x0 ADDRESS PUSH1 0x1 PUSH1 0x1 PUSH1 0xA0 SHL SUB PUSH32 0x0 AND EQ PUSH2 0x1708 JUMPI PUSH1 0x40 MLOAD PUSH3 0x461BCD PUSH1 0xE5 SHL DUP2 MSTORE PUSH1 0x20 PUSH1 0x4 DUP3 ADD MSTORE PUSH1 0x14 PUSH1 0x24 DUP3 ADD MSTORE PUSH20 0x125B1B1959D85B0811195B1959D85D1958D85B1B PUSH1 0x62 SHL PUSH1 0x44 DUP3 ADD MSTORE PUSH1 0x64 ADD PUSH2 0x923 JUMP JUMPDEST POP PUSH1 0x0 DUP1 MLOAD PUSH1 0x20 PUSH2 0x48A8 DUP4 CODECOPY DUP2 MLOAD SWAP2 MSTORE SWAP1 JUMP JUMPDEST PUSH1 0x0 DUP1 PUSH1 0x0 DUP4 DUP2 MSTORE PUSH1 0x44 PUSH1 0x20 MSTORE PUSH1 0x40 SWAP1 KECCAK256 PUSH1 0x1 ADD SLOAD PUSH1 0xFF AND PUSH1 0x3 DUP2 GT ISZERO PUSH2 0x1075 JUMPI PUSH2 0x1075 PUSH2 0x4175 JUMP JUMPDEST PUSH1 0x0 DUP1 PUSH2 0x1751 DUP5 DUP5 PUSH2 0x2589 JUMP JUMPDEST SWAP1 POP PUSH1 0x0 DUP1 PUSH2 0x1761 PUSH1 0x44 DUP5 PUSH2 0x25D9 JUMP JUMPDEST SWAP2 POP SWAP2 POP DUP1 PUSH2 0x1776 JUMPI PUSH1 0x0 SWAP4 POP POP POP POP PUSH2 0x8D5 JUMP JUMPDEST PUSH2 0x1787 DUP3 PUSH1 0x2 ADD SLOAD PUSH2 0xF3B CALLER PUSH2 0x321C JUMP JUMPDEST SWAP7 SWAP6 POP POP POP POP POP POP JUMP JUMPDEST PUSH1 0x0 PUSH2 0x108C PUSH2 0x2340 JUMP JUMPDEST PUSH1 0x0 PUSH1 0x40 MLOAD PUSH1 0x20 ADD PUSH2 0x161C SWAP1 PUSH32 0x4C4956454C595F56455253455F4C4956454C595F4D41535445525F41444D494E DUP2 MSTORE PUSH5 0x5F524F4C45 PUSH1 0xD8 SHL PUSH1 0x20 DUP3 ADD MSTORE PUSH1 0x25 ADD SWAP1 JUMP JUMPDEST PUSH1 0x60 PUSH1 0x1 PUSH1 0x1 PUSH1 0xA0 SHL SUB PUSH32 0x0 AND ADDRESS SUB PUSH2 0x1828 JUMPI PUSH1 0x40 MLOAD PUSH3 0x461BCD PUSH1 0xE5 SHL DUP2 MSTORE PUSH1 0x4 ADD PUSH2 0x923 SWAP1 PUSH2 0x4516 JUMP JUMPDEST PUSH32 0x0 PUSH1 0x1 PUSH1 0x1 PUSH1 0xA0 SHL SUB AND PUSH2 0x185A PUSH2 0x2340 JUMP JUMPDEST PUSH1 0x1 PUSH1 0x1 PUSH1 0xA0 SHL SUB AND EQ PUSH2 0x1880 JUMPI PUSH1 0x40 MLOAD PUSH3 0x461BCD PUSH1 0xE5 SHL DUP2 MSTORE PUSH1 0x4 ADD PUSH2 0x923 SWAP1 PUSH2 0x453C JUMP JUMPDEST PUSH1 0x1 PUSH1 0x2 DUP1 SLOAD PUSH1 0x1 PUSH1 0xA0 SHL SWAP1 DIV PUSH1 0xFF AND SWAP1 DUP2 GT ISZERO PUSH2 0x18A0 JUMPI PUSH2 0x18A0 PUSH2 0x4175 JUMP JUMPDEST EQ PUSH2 0x18BD JUMPI PUSH1 0x40 MLOAD PUSH3 0x461BCD PUSH1 0xE5 SHL DUP2 MSTORE PUSH1 0x4 ADD PUSH2 0x923 SWAP1 PUSH2 0x45C9 JUMP JUMPDEST PUSH1 0x2 DUP1 DUP1 SLOAD PUSH1 0x1 PUSH1 0xA8 SHL SWAP1 DIV PUSH1 0xFF AND SWAP1 DUP2 GT ISZERO PUSH2 0x18DC JUMPI PUSH2 0x18DC PUSH2 0x4175 JUMP JUMPDEST EQ PUSH2 0x191B JUMPI PUSH1 0x40 MLOAD PUSH3 0x461BCD PUSH1 0xE5 SHL DUP2 MSTORE PUSH1 0x20 PUSH1 0x4 DUP3 ADD MSTORE PUSH1 0xF PUSH1 0x24 DUP3 ADD MSTORE PUSH15 0x496C6C6567616C2055706772616465 PUSH1 0x88 SHL PUSH1 0x44 DUP3 ADD MSTORE PUSH1 0x64 ADD PUSH2 0x923 JUMP JUMPDEST PUSH2 0x1924 DUP5 PUSH2 0x35DF JUMP JUMPDEST PUSH2 0xE6E DUP5 DUP5 DUP5 PUSH2 0x3660 JUMP JUMPDEST PUSH1 0x0 PUSH1 0x40 MLOAD PUSH1 0x20 ADD PUSH2 0x161C SWAP1 PUSH32 0x4C4956454C595F56455253455F53434F50455F4D41535445525F41444D494E5F DUP2 MSTORE PUSH4 0x524F4C45 PUSH1 0xE0 SHL PUSH1 0x20 DUP3 ADD MSTORE PUSH1 0x24 ADD SWAP1 JUMP JUMPDEST PUSH1 0x0 PUSH1 0x1 PUSH1 0x2 DUP1 SLOAD PUSH1 0x1 PUSH1 0xA0 SHL SWAP1 DIV PUSH1 0xFF AND SWAP1 DUP2 GT ISZERO PUSH2 0x1993 JUMPI PUSH2 0x1993 PUSH2 0x4175 JUMP JUMPDEST EQ PUSH2 0x19B0 JUMPI PUSH1 0x40 MLOAD PUSH3 0x461BCD PUSH1 0xE5 SHL DUP2 MSTORE PUSH1 0x4 ADD PUSH2 0x923 SWAP1 PUSH2 0x45C9 JUMP JUMPDEST PUSH2 0x19C0 PUSH4 0x756AF45F PUSH1 0xE0 SHL PUSH2 0x239D JUMP JUMPDEST PUSH2 0x19DC JUMPI PUSH1 0x40 MLOAD PUSH3 0x461BCD PUSH1 0xE5 SHL DUP2 MSTORE PUSH1 0x4 ADD PUSH2 0x923 SWAP1 PUSH2 0x45EB JUMP JUMPDEST PUSH1 0x40 MLOAD SELFBALANCE SWAP1 PUSH1 0x1 PUSH1 0x1 PUSH1 0xA0 SHL SUB DUP5 AND SWAP1 SELFBALANCE DUP1 ISZERO PUSH2 0x8FC MUL SWAP2 PUSH1 0x0 DUP2 DUP2 DUP2 DUP6 DUP9 DUP9 CALL SWAP4 POP POP POP POP ISZERO DUP1 ISZERO PUSH2 0x1A13 JUMPI RETURNDATASIZE PUSH1 0x0 DUP1 RETURNDATACOPY RETURNDATASIZE PUSH1 0x0 REVERT JUMPDEST POP SWAP3 SWAP2 POP POP JUMP JUMPDEST PUSH1 0x60 PUSH1 0x0 DUP1 SLOAD PUSH2 0x1A29 SWAP1 PUSH2 0x462B JUMP JUMPDEST DUP1 PUSH1 0x1F ADD PUSH1 0x20 DUP1 SWAP2 DIV MUL PUSH1 0x20 ADD PUSH1 0x40 MLOAD SWAP1 DUP2 ADD PUSH1 0x40 MSTORE DUP1 SWAP3 SWAP2 SWAP1 DUP2 DUP2 MSTORE PUSH1 0x20 ADD DUP3 DUP1 SLOAD PUSH2 0x1A55 SWAP1 PUSH2 0x462B JUMP JUMPDEST DUP1 ISZERO PUSH2 0x1AA2 JUMPI DUP1 PUSH1 0x1F LT PUSH2 0x1A77 JUMPI PUSH2 0x100 DUP1 DUP4 SLOAD DIV MUL DUP4 MSTORE SWAP2 PUSH1 0x20 ADD SWAP2 PUSH2 0x1AA2 JUMP JUMPDEST DUP3 ADD SWAP2 SWAP1 PUSH1 0x0 MSTORE PUSH1 0x20 PUSH1 0x0 KECCAK256 SWAP1 JUMPDEST DUP2 SLOAD DUP2 MSTORE SWAP1 PUSH1 0x1 ADD SWAP1 PUSH1 0x20 ADD DUP1 DUP4 GT PUSH2 0x1A85 JUMPI DUP3 SWAP1 SUB PUSH1 0x1F AND DUP3 ADD SWAP2 JUMPDEST POP POP POP POP POP SWAP1 POP SWAP1 JUMP JUMPDEST PUSH1 0x0 DUP1 DUP1 PUSH2 0x1ABB PUSH1 0x44 DUP6 PUSH2 0x25D9 JUMP JUMPDEST SWAP2 POP SWAP2 POP DUP1 PUSH2 0x1ACF JUMPI PUSH1 0x0 SWAP3 POP POP POP PUSH2 0x8D5 JUMP JUMPDEST PUSH2 0x1ADE DUP3 PUSH1 0x2 ADD SLOAD DUP7 DUP5 PUSH2 0x263A JUMP JUMPDEST SWAP6 SWAP5 POP POP POP POP POP JUMP JUMPDEST PUSH2 0x1AEF PUSH2 0x3F2B JUMP JUMPDEST PUSH1 0x0 DUP3 DUP2 MSTORE PUSH1 0x45 PUSH1 0x20 SWAP1 DUP2 MSTORE PUSH1 0x40 SWAP2 DUP3 SWAP1 KECCAK256 DUP3 MLOAD PUSH1 0xE0 DUP2 ADD SWAP1 SWAP4 MSTORE DUP1 SLOAD DUP4 MSTORE PUSH1 0x1 DUP2 ADD SLOAD SWAP1 SWAP2 DUP4 ADD SWAP1 PUSH1 0xFF AND PUSH1 0x5 DUP2 GT ISZERO PUSH2 0x1B2C JUMPI PUSH2 0x1B2C PUSH2 0x4175 JUMP JUMPDEST PUSH1 0x5 DUP2 GT ISZERO PUSH2 0xF97 JUMPI PUSH2 0xF97 PUSH2 0x4175 JUMP JUMPDEST PUSH1 0x60 PUSH1 0x1 DUP1 SLOAD PUSH2 0x1A29 SWAP1 PUSH2 0x462B JUMP JUMPDEST PUSH1 0x0 PUSH1 0x40 MLOAD PUSH1 0x20 ADD PUSH2 0x161C SWAP1 PUSH32 0x4C4956454C595F56455253455F4147454E545F4D41535445525F41444D494E5F DUP2 MSTORE PUSH4 0x524F4C45 PUSH1 0xE0 SHL PUSH1 0x20 DUP3 ADD MSTORE PUSH1 0x24 ADD SWAP1 JUMP JUMPDEST PUSH1 0x40 MLOAD PUSH32 0x4C4956454C595F56455253455F4C4956454C595F4D41535445525F5459504500 PUSH1 0x20 DUP3 ADD MSTORE PUSH1 0x0 SWAP1 PUSH1 0x3F ADD PUSH2 0x161C JUMP JUMPDEST PUSH1 0x40 MLOAD PUSH32 0x4C4956454C595F56455253455F414E4F4E594D4F55535F545950450000000000 PUSH1 0x20 DUP3 ADD MSTORE PUSH1 0x0 SWAP1 PUSH1 0x3B ADD PUSH2 0x161C JUMP JUMPDEST PUSH2 0x1C45 PUSH1 0x40 DUP1 MLOAD PUSH2 0x120 DUP2 ADD DUP3 MSTORE PUSH1 0x0 DUP1 DUP3 MSTORE PUSH1 0x60 PUSH1 0x20 DUP4 ADD DUP2 SWAP1 MSTORE SWAP3 DUP3 ADD DUP4 SWAP1 MSTORE SWAP2 DUP2 ADD DUP3 SWAP1 MSTORE PUSH1 0x80 DUP2 ADD DUP3 SWAP1 MSTORE PUSH1 0xA0 DUP2 ADD DUP3 SWAP1 MSTORE PUSH1 0xC0 DUP2 ADD DUP3 SWAP1 MSTORE SWAP1 PUSH1 0xE0 DUP3 ADD SWAP1 DUP2 MSTORE PUSH1 0x20 ADD PUSH1 0x0 SWAP1 MSTORE SWAP1 JUMP JUMPDEST PUSH1 0x40 MLOAD DUP1 PUSH2 0x120 ADD PUSH1 0x40 MSTORE DUP1 PUSH2 0x1C59 PUSH2 0x3817 JUMP JUMPDEST DUP2 MSTORE PUSH1 0x20 ADD PUSH1 0x0 DUP1 SLOAD PUSH2 0x1C6B SWAP1 PUSH2 0x462B JUMP JUMPDEST DUP1 PUSH1 0x1F ADD PUSH1 0x20 DUP1 SWAP2 DIV MUL PUSH1 0x20 ADD PUSH1 0x40 MLOAD SWAP1 DUP2 ADD PUSH1 0x40 MSTORE DUP1 SWAP3 SWAP2 SWAP1 DUP2 DUP2 MSTORE PUSH1 0x20 ADD DUP3 DUP1 SLOAD PUSH2 0x1C97 SWAP1 PUSH2 0x462B JUMP JUMPDEST DUP1 ISZERO PUSH2 0x1CE4 JUMPI DUP1 PUSH1 0x1F LT PUSH2 0x1CB9 JUMPI PUSH2 0x100 DUP1 DUP4 SLOAD DIV MUL DUP4 MSTORE SWAP2 PUSH1 0x20 ADD SWAP2 PUSH2 0x1CE4 JUMP JUMPDEST DUP3 ADD SWAP2 SWAP1 PUSH1 0x0 MSTORE PUSH1 0x20 PUSH1 0x0 KECCAK256 SWAP1 JUMPDEST DUP2 SLOAD DUP2 MSTORE SWAP1 PUSH1 0x1 ADD SWAP1 PUSH1 0x20 ADD DUP1 DUP4 GT PUSH2 0x1CC7 JUMPI DUP3 SWAP1 SUB PUSH1 0x1F AND DUP3 ADD SWAP2 JUMPDEST POP POP POP POP POP DUP2 MSTORE PUSH1 0x20 ADD PUSH1 0x1 DUP1 SLOAD PUSH2 0x1CFB SWAP1 PUSH2 0x462B JUMP JUMPDEST DUP1 PUSH1 0x1F ADD PUSH1 0x20 DUP1 SWAP2 DIV MUL PUSH1 0x20 ADD PUSH1 0x40 MLOAD SWAP1 DUP2 ADD PUSH1 0x40 MSTORE DUP1 SWAP3 SWAP2 SWAP1 DUP2 DUP2 MSTORE PUSH1 0x20 ADD DUP3 DUP1 SLOAD PUSH2 0x1D27 SWAP1 PUSH2 0x462B JUMP JUMPDEST DUP1 ISZERO PUSH2 0x1D74 JUMPI DUP1 PUSH1 0x1F LT PUSH2 0x1D49 JUMPI PUSH2 0x100 DUP1 DUP4 SLOAD DIV MUL DUP4 MSTORE SWAP2 PUSH1 0x20 ADD SWAP2 PUSH2 0x1D74 JUMP JUMPDEST DUP3 ADD SWAP2 SWAP1 PUSH1 0x0 MSTORE PUSH1 0x20 PUSH1 0x0 KECCAK256 SWAP1 JUMPDEST DUP2 SLOAD DUP2 MSTORE SWAP1 PUSH1 0x1 ADD SWAP1 PUSH1 0x20 ADD DUP1 DUP4 GT PUSH2 0x1D57 JUMPI DUP3 SWAP1 SUB PUSH1 0x1F AND DUP3 ADD SWAP2 JUMPDEST POP POP POP SWAP2 DUP4 MSTORE POP POP PUSH1 0x2 SLOAD PUSH1 0x1 PUSH1 0x1 PUSH1 0xA0 SHL SUB AND PUSH1 0x20 DUP3 ADD MSTORE PUSH1 0x40 ADD PUSH2 0x1D98 PUSH2 0x2340 JUMP JUMPDEST PUSH1 0x1 PUSH1 0x1 PUSH1 0xA0 SHL SUB AND DUP2 MSTORE PUSH1 0x20 ADD PUSH2 0x1DAE PUSH2 0x2361 JUMP JUMPDEST PUSH1 0x1 PUSH1 0x1 PUSH1 0xA0 SHL SUB AND DUP2 MSTORE PUSH1 0x20 ADD PUSH2 0x1DC9 PUSH1 0x4C SLOAD PUSH2 0xFFFF AND SWAP1 JUMP JUMPDEST PUSH2 0xFFFF AND DUP2 MSTORE PUSH1 0x20 ADD PUSH1 0x2 PUSH1 0x14 SWAP1 SLOAD SWAP1 PUSH2 0x100 EXP SWAP1 DIV PUSH1 0xFF AND PUSH1 0x2 DUP2 GT ISZERO PUSH2 0x1DF3 JUMPI PUSH2 0x1DF3 PUSH2 0x4175 JUMP JUMPDEST DUP2 MSTORE PUSH1 0x20 ADD PUSH1 0x2 PUSH1 0x15 SWAP1 SLOAD SWAP1 PUSH2 0x100 EXP SWAP1 DIV PUSH1 0xFF AND PUSH1 0x2 DUP2 GT ISZERO PUSH2 0x1E19 JUMPI PUSH2 0x1E19 PUSH2 0x4175 JUMP JUMPDEST SWAP1 MSTORE SWAP2 SWAP1 POP JUMP JUMPDEST PUSH1 0x40 DUP1 MLOAD PUSH32 0x4C4956454C595F56455253455F4C4956454C595F474C4F42414C5F53434F5045 PUSH1 0x20 DUP3 ADD MSTORE PUSH1 0x0 SWAP2 ADD PUSH2 0x161C JUMP JUMPDEST PUSH1 0x0 DUP1 DUP1 PUSH2 0x1E62 PUSH1 0x44 DUP6 PUSH2 0x25D9 JUMP JUMPDEST SWAP2 POP SWAP2 POP DUP1 PUSH2 0x1E76 JUMPI PUSH1 0x0 SWAP3 POP POP POP PUSH2 0x8D5 JUMP JUMPDEST PUSH2 0x1ADE DUP6 PUSH2 0xF3B CALLER PUSH2 0x321C JUMP JUMPDEST PUSH1 0x0 PUSH1 0x1 PUSH1 0x1 PUSH1 0xA0 SHL SUB PUSH32 0x0 AND ADDRESS SUB PUSH2 0x1ECD JUMPI PUSH1 0x40 MLOAD PUSH3 0x461BCD PUSH1 0xE5 SHL DUP2 MSTORE PUSH1 0x4 ADD PUSH2 0x923 SWAP1 PUSH2 0x4516 JUMP JUMPDEST PUSH32 0x0 PUSH1 0x1 PUSH1 0x1 PUSH1 0xA0 SHL SUB AND PUSH2 0x1EFF PUSH2 0x2340 JUMP JUMPDEST PUSH1 0x1 PUSH1 0x1 PUSH1 0xA0 SHL SUB AND EQ PUSH2 0x1F25 JUMPI PUSH1 0x40 MLOAD PUSH3 0x461BCD PUSH1 0xE5 SHL DUP2 MSTORE PUSH1 0x4 ADD PUSH2 0x923 SWAP1 PUSH2 0x453C JUMP JUMPDEST PUSH1 0x1 PUSH1 0x2 DUP1 SLOAD PUSH1 0x1 PUSH1 0xA0 SHL SWAP1 DIV PUSH1 0xFF AND SWAP1 DUP2 GT ISZERO PUSH2 0x1F45 JUMPI PUSH2 0x1F45 PUSH2 0x4175 JUMP JUMPDEST EQ PUSH2 0x1F62 JUMPI PUSH1 0x40 MLOAD PUSH3 0x461BCD PUSH1 0xE5 SHL DUP2 MSTORE PUSH1 0x4 ADD PUSH2 0x923 SWAP1 PUSH2 0x45C9 JUMP JUMPDEST PUSH1 0x2 DUP1 DUP1 SLOAD PUSH1 0x1 PUSH1 0xA8 SHL SWAP1 DIV PUSH1 0xFF AND SWAP1 DUP2 GT ISZERO PUSH2 0x1F81 JUMPI PUSH2 0x1F81 PUSH2 0x4175 JUMP JUMPDEST EQ PUSH2 0x1FBF JUMPI PUSH1 0x40 MLOAD PUSH3 0x461BCD PUSH1 0xE5 SHL DUP2 MSTORE PUSH1 0x20 PUSH1 0x4 DUP3 ADD MSTORE PUSH1 0xE PUSH1 0x24 DUP3 ADD MSTORE PUSH14 0x496C6C6567616C20557064617465 PUSH1 0x90 SHL PUSH1 0x44 DUP3 ADD MSTORE PUSH1 0x64 ADD PUSH2 0x923 JUMP JUMPDEST PUSH2 0x1FCF PUSH4 0xD9DC1F19 PUSH1 0xE0 SHL PUSH2 0x239D JUMP JUMPDEST PUSH2 0x1FEB JUMPI PUSH1 0x40 MLOAD PUSH3 0x461BCD PUSH1 0xE5 SHL DUP2 MSTORE PUSH1 0x4 ADD PUSH2 0x923 SWAP1 PUSH2 0x45EB JUMP JUMPDEST PUSH1 0x1 PUSH1 0x1 PUSH1 0xA0 SHL SUB DUP3 AND PUSH2 0x202B JUMPI PUSH1 0x40 MLOAD PUSH3 0x461BCD PUSH1 0xE5 SHL DUP2 MSTORE PUSH1 0x20 PUSH1 0x4 DUP3 ADD MSTORE PUSH1 0x7 PUSH1 0x24 DUP3 ADD MSTORE PUSH7 0x125B9D985B1A59 PUSH1 0xCA SHL PUSH1 0x44 DUP3 ADD MSTORE PUSH1 0x64 ADD PUSH2 0x923 JUMP JUMPDEST PUSH2 0x2034 DUP3 PUSH2 0x38B5 JUMP JUMPDEST POP PUSH1 0x1 SWAP2 SWAP1 POP JUMP JUMPDEST PUSH1 0x0 DUP1 DUP1 PUSH2 0x204B PUSH1 0x44 DUP6 PUSH2 0x25D9 JUMP JUMPDEST SWAP2 POP SWAP2 POP DUP1 PUSH2 0x205E JUMPI POP PUSH1 0x0 SWAP4 SWAP3 POP POP POP JUMP JUMPDEST PUSH2 0xE6E DUP3 PUSH1 0x2 ADD SLOAD PUSH2 0xF3B CALLER PUSH2 0x321C JUMP JUMPDEST PUSH1 0x0 PUSH1 0x40 MLOAD PUSH1 0x20 ADD PUSH2 0x161C SWAP1 PUSH32 0x4C4956454C595F56455253455F504F4C4943595F4D41535445525F41444D494E DUP2 MSTORE PUSH5 0x5F524F4C45 PUSH1 0xD8 SHL PUSH1 0x20 DUP3 ADD MSTORE PUSH1 0x25 ADD SWAP1 JUMP JUMPDEST PUSH1 0x40 MLOAD PUSH32 0x4C4956454C595F56455253455F53595354454D5F4D41535445525F5459504500 PUSH1 0x20 DUP3 ADD MSTORE PUSH1 0x0 SWAP1 PUSH1 0x3F ADD PUSH2 0x161C JUMP JUMPDEST PUSH1 0x0 PUSH1 0x40 MLOAD PUSH1 0x20 ADD PUSH2 0x161C SWAP1 PUSH32 0x4C4956454C595F56455253455F53595354454D5F4D41535445525F41444D494E DUP2 MSTORE PUSH5 0x5F524F4C45 PUSH1 0xD8 SHL PUSH1 0x20 DUP3 ADD MSTORE PUSH1 0x25 ADD SWAP1 JUMP JUMPDEST PUSH1 0x40 MLOAD PUSH32 0x4C4956454C595F56455253455F53434F50455F4D41535445525F545950450000 PUSH1 0x20 DUP3 ADD MSTORE PUSH1 0x0 SWAP1 PUSH1 0x3E ADD PUSH2 0x161C JUMP JUMPDEST PUSH1 0x0 PUSH2 0x108C PUSH2 0x3817 JUMP JUMPDEST PUSH1 0x0 PUSH1 0x1 PUSH1 0x1 PUSH1 0xA0 SHL SUB PUSH32 0x0 AND ADDRESS SUB PUSH2 0x21B1 JUMPI PUSH1 0x40 MLOAD PUSH3 0x461BCD PUSH1 0xE5 SHL DUP2 MSTORE PUSH1 0x4 ADD PUSH2 0x923 SWAP1 PUSH2 0x4516 JUMP JUMPDEST PUSH32 0x0 PUSH1 0x1 PUSH1 0x1 PUSH1 0xA0 SHL SUB AND PUSH2 0x21E3 PUSH2 0x2340 JUMP JUMPDEST PUSH1 0x1 PUSH1 0x1 PUSH1 0xA0 SHL SUB AND EQ PUSH2 0x2209 JUMPI PUSH1 0x40 MLOAD PUSH3 0x461BCD PUSH1 0xE5 SHL DUP2 MSTORE PUSH1 0x4 ADD PUSH2 0x923 SWAP1 PUSH2 0x453C JUMP JUMPDEST PUSH1 0x0 PUSH2 0x2218 PUSH1 0x4C SLOAD PUSH2 0xFFFF AND SWAP1 JUMP JUMPDEST PUSH2 0xFFFF AND GT PUSH2 0x2254 JUMPI PUSH1 0x40 MLOAD PUSH3 0x461BCD PUSH1 0xE5 SHL DUP2 MSTORE PUSH1 0x20 PUSH1 0x4 DUP3 ADD MSTORE PUSH1 0x8 PUSH1 0x24 DUP3 ADD MSTORE PUSH8 0x1393D50812539255 PUSH1 0xC2 SHL PUSH1 0x44 DUP3 ADD MSTORE PUSH1 0x64 ADD PUSH2 0x923 JUMP JUMPDEST PUSH2 0x2264 PUSH4 0xF708CEB PUSH1 0xE4 SHL PUSH2 0x239D JUMP JUMPDEST PUSH2 0x2280 JUMPI PUSH1 0x40 MLOAD PUSH3 0x461BCD PUSH1 0xE5 SHL DUP2 MSTORE PUSH1 0x4 ADD PUSH2 0x923 SWAP1 PUSH2 0x45EB JUMP JUMPDEST PUSH1 0x2 DUP1 SLOAD DUP4 SWAP2 SWAP1 PUSH1 0xFF PUSH1 0xA0 SHL NOT AND PUSH1 0x1 PUSH1 0xA0 SHL DUP4 DUP4 DUP2 GT ISZERO PUSH2 0x22A4 JUMPI PUSH2 0x22A4 PUSH2 0x4175 JUMP JUMPDEST MUL OR SWAP1 SSTORE POP ADDRESS CALLER PUSH1 0x1 PUSH1 0x1 PUSH1 0xA0 SHL SUB AND PUSH32 0xC08EC585C25F1907BAAAB6F278C5994531A2E34C59935B3FCFE813067A3B4878 DUP5 PUSH1 0x40 MLOAD PUSH2 0xE1A SWAP2 SWAP1 PUSH2 0x4436 JUMP JUMPDEST PUSH1 0x0 PUSH2 0x108C PUSH2 0x2361 JUMP JUMPDEST SWAP1 JUMP JUMPDEST PUSH1 0x0 PUSH1 0x1 PUSH1 0x1 PUSH1 0xE0 SHL SUB NOT DUP3 AND PUSH4 0x27D8F1FD PUSH1 0xE2 SHL EQ DUP1 PUSH2 0x2321 JUMPI POP PUSH1 0x1 PUSH1 0x1 PUSH1 0xE0 SHL SUB NOT DUP3 AND PUSH4 0x52D1902D PUSH1 0xE0 SHL EQ JUMPDEST DUP1 PUSH2 0x8D5 JUMPI POP PUSH4 0x1FFC9A7 PUSH1 0xE0 SHL PUSH1 0x1 PUSH1 0x1 PUSH1 0xE0 SHL SUB NOT DUP4 AND EQ PUSH2 0x8D5 JUMP JUMPDEST PUSH1 0x0 PUSH1 0x0 DUP1 MLOAD PUSH1 0x20 PUSH2 0x48A8 DUP4 CODECOPY DUP2 MLOAD SWAP2 MSTORE JUMPDEST SLOAD PUSH1 0x1 PUSH1 0x1 PUSH1 0xA0 SHL SUB AND SWAP2 SWAP1 POP JUMP JUMPDEST PUSH1 0x0 PUSH32 0xB53127684A568B3173AE13B9F8A6016E243E63B6E8EE1178D6A717850B5D6103 PUSH2 0x2352 JUMP JUMPDEST PUSH2 0x2396 DUP6 DUP6 DUP6 DUP6 DUP6 PUSH2 0x392C JUMP JUMPDEST POP POP POP POP POP JUMP JUMPDEST PUSH1 0x2 SLOAD PUSH1 0x0 SWAP1 PUSH1 0x1 PUSH1 0x1 PUSH1 0xA0 SHL SUB AND ADDRESS SUB PUSH2 0x250E JUMPI PUSH1 0x40 DUP1 MLOAD PUSH1 0x4 DUP2 MSTORE PUSH1 0x24 DUP2 ADD SWAP1 SWAP2 MSTORE PUSH1 0x20 DUP2 ADD DUP1 MLOAD PUSH1 0x1 PUSH1 0x1 PUSH1 0xE0 SHL SUB AND PUSH4 0x2C4B4FFF PUSH1 0xE0 SHL OR SWAP1 MSTORE PUSH1 0x0 PUSH2 0x2413 PUSH2 0x23E8 PUSH2 0x2340 JUMP JUMPDEST DUP4 PUSH1 0x40 MLOAD DUP1 PUSH1 0x40 ADD PUSH1 0x40 MSTORE DUP1 PUSH1 0xC DUP2 MSTORE PUSH1 0x20 ADD PUSH12 0x1110D85B1B0811985A5B1959 PUSH1 0xA2 SHL DUP2 MSTORE POP PUSH2 0x3AE4 JUMP JUMPDEST SWAP1 POP DUP1 PUSH1 0x1 DUP3 MLOAD PUSH2 0x2424 SWAP2 SWAP1 PUSH2 0x4665 JUMP JUMPDEST DUP2 MLOAD DUP2 LT PUSH2 0x2434 JUMPI PUSH2 0x2434 PUSH2 0x4686 JUMP JUMPDEST ADD PUSH1 0x20 ADD MLOAD PUSH1 0xF8 SHR PUSH1 0x1 SUB PUSH2 0x244D JUMPI POP PUSH1 0x0 SWAP4 SWAP3 POP POP POP JUMP JUMPDEST PUSH4 0x17897AB9 PUSH1 0xE1 SHL ADDRESS DUP6 PUSH2 0x2460 CALLER PUSH2 0x321C JUMP JUMPDEST PUSH1 0x40 MLOAD PUSH1 0x24 ADD PUSH2 0x2472 SWAP4 SWAP3 SWAP2 SWAP1 PUSH2 0x469C JUMP JUMPDEST PUSH1 0x40 DUP1 MLOAD PUSH1 0x1F NOT DUP2 DUP5 SUB ADD DUP2 MSTORE SWAP2 SWAP1 MSTORE PUSH1 0x20 DUP2 ADD DUP1 MLOAD PUSH1 0x1 PUSH1 0x1 PUSH1 0xE0 SHL SUB AND PUSH1 0x1 PUSH1 0x1 PUSH1 0xE0 SHL SUB NOT SWAP1 SWAP4 AND SWAP3 SWAP1 SWAP3 OR SWAP1 SWAP2 MSTORE SWAP2 POP PUSH2 0x24D9 PUSH2 0x24B1 PUSH2 0x2340 JUMP JUMPDEST DUP4 PUSH1 0x40 MLOAD DUP1 PUSH1 0x40 ADD PUSH1 0x40 MSTORE DUP1 PUSH1 0x9 DUP2 MSTORE PUSH1 0x20 ADD PUSH9 0x2337B93134B23232B7 PUSH1 0xB9 SHL DUP2 MSTORE POP PUSH2 0x3AE4 JUMP JUMPDEST SWAP1 POP DUP1 PUSH1 0x1 DUP3 MLOAD PUSH2 0x24EA SWAP2 SWAP1 PUSH2 0x4665 JUMP JUMPDEST DUP2 MLOAD DUP2 LT PUSH2 0x24FA JUMPI PUSH2 0x24FA PUSH2 0x4686 JUMP JUMPDEST PUSH1 0x20 SWAP2 ADD ADD MLOAD PUSH1 0xF8 SHR PUSH1 0x1 EQ SWAP5 SWAP4 POP POP POP POP JUMP JUMPDEST PUSH1 0x2 SLOAD PUSH1 0x1 PUSH1 0x1 PUSH1 0xA0 SHL SUB AND PUSH4 0x2F12F572 ADDRESS DUP5 PUSH2 0x252A CALLER PUSH2 0x321C JUMP JUMPDEST PUSH1 0x40 MLOAD DUP5 PUSH4 0xFFFFFFFF AND PUSH1 0xE0 SHL DUP2 MSTORE PUSH1 0x4 ADD PUSH2 0x2548 SWAP4 SWAP3 SWAP2 SWAP1 PUSH2 0x469C JUMP JUMPDEST PUSH1 0x20 PUSH1 0x40 MLOAD DUP1 DUP4 SUB DUP2 DUP7 GAS STATICCALL ISZERO DUP1 ISZERO PUSH2 0x2565 JUMPI RETURNDATASIZE PUSH1 0x0 DUP1 RETURNDATACOPY RETURNDATASIZE PUSH1 0x0 REVERT JUMPDEST POP POP POP POP PUSH1 0x40 MLOAD RETURNDATASIZE PUSH1 0x1F NOT PUSH1 0x1F DUP3 ADD AND DUP3 ADD DUP1 PUSH1 0x40 MSTORE POP DUP2 ADD SWAP1 PUSH2 0x8D5 SWAP2 SWAP1 PUSH2 0x460E JUMP JUMPDEST PUSH1 0x40 MLOAD PUSH12 0xFFFFFFFFFFFFFFFFFFFFFFFF NOT PUSH1 0x60 DUP5 SWAP1 SHL AND PUSH1 0x20 DUP3 ADD MSTORE PUSH1 0x1 PUSH1 0x1 PUSH1 0xE0 SHL SUB NOT DUP3 AND PUSH1 0x34 DUP3 ADD MSTORE PUSH1 0x0 SWAP1 PUSH1 0x38 ADD PUSH1 0x40 MLOAD PUSH1 0x20 DUP2 DUP4 SUB SUB DUP2 MSTORE SWAP1 PUSH1 0x40 MSTORE DUP1 MLOAD SWAP1 PUSH1 0x20 ADD KECCAK256 SWAP1 POP SWAP3 SWAP2 POP POP JUMP JUMPDEST PUSH1 0x0 DUP2 DUP2 MSTORE PUSH1 0x1 DUP1 DUP5 ADD PUSH1 0x20 MSTORE PUSH1 0x40 DUP3 KECCAK256 DUP3 SWAP2 JUMPDEST PUSH1 0x1 DUP3 ADD SLOAD PUSH1 0xFF AND PUSH1 0x5 DUP2 GT ISZERO PUSH2 0x2606 JUMPI PUSH2 0x2606 PUSH2 0x4175 JUMP JUMPDEST SUB PUSH2 0x2628 JUMPI PUSH1 0x40 DUP1 MLOAD DUP6 DUP2 MSTORE PUSH1 0x1 DUP8 DUP2 ADD PUSH1 0x20 DUP4 ADD MSTORE SWAP2 SWAP1 KECCAK256 SWAP4 POP SWAP2 POP PUSH2 0x2632 JUMP JUMPDEST PUSH1 0x0 NOT SWAP3 POP PUSH1 0x0 SWAP2 POP JUMPDEST POP SWAP3 POP SWAP3 SWAP1 POP JUMP JUMPDEST PUSH1 0x0 DUP4 DUP2 MSTORE PUSH1 0x44 PUSH1 0x20 SWAP1 DUP2 MSTORE PUSH1 0x40 DUP1 DUP4 KECCAK256 PUSH1 0x1 ADD SLOAD DUP2 MLOAD DUP1 DUP4 ADD SWAP1 SWAP3 MSTORE PUSH1 0x9 DUP3 MSTORE PUSH9 0x30B3B2B73A24B21D1 PUSH1 0xBD SHL SWAP3 DUP3 ADD SWAP3 SWAP1 SWAP3 MSTORE PUSH1 0xFF SWAP1 SWAP2 AND SWAP1 PUSH2 0x267E SWAP1 PUSH2 0x3BA8 JUMP JUMPDEST PUSH2 0x2687 DUP6 PUSH2 0x3BEB JUMP JUMPDEST PUSH2 0x26AF PUSH1 0x40 MLOAD DUP1 PUSH1 0x40 ADD PUSH1 0x40 MSTORE DUP1 PUSH1 0x7 DUP2 MSTORE PUSH1 0x20 ADD PUSH7 0x30BA3CB8329D1 PUSH1 0xCD SHL DUP2 MSTORE POP PUSH2 0x3BA8 JUMP JUMPDEST PUSH2 0x26CC DUP2 PUSH1 0x3 DUP2 GT ISZERO PUSH2 0x26C4 JUMPI PUSH2 0x26C4 PUSH2 0x4175 JUMP JUMPDEST PUSH1 0xF8 SHL PUSH2 0x3C30 JUMP JUMPDEST PUSH2 0x26F7 PUSH1 0x40 MLOAD DUP1 PUSH1 0x40 ADD PUSH1 0x40 MSTORE DUP1 PUSH1 0xA DUP2 MSTORE PUSH1 0x20 ADD PUSH10 0x36B2B6B132B924B21D1 PUSH1 0xB5 SHL DUP2 MSTORE POP PUSH2 0x3BA8 JUMP JUMPDEST PUSH2 0x2700 DUP5 PUSH2 0x3BEB JUMP JUMPDEST PUSH2 0x2730 PUSH1 0x40 MLOAD DUP1 PUSH1 0x40 ADD PUSH1 0x40 MSTORE DUP1 PUSH1 0xF DUP2 MSTORE PUSH1 0x20 ADD PUSH15 0x36B2B6B132B91030B1B9BA30BA1D1 PUSH1 0x8D SHL DUP2 MSTORE POP PUSH2 0x3BA8 JUMP JUMPDEST PUSH1 0x0 DUP5 DUP2 MSTORE PUSH1 0x44 PUSH1 0x20 MSTORE PUSH1 0x40 SWAP1 KECCAK256 PUSH1 0x1 ADD SLOAD PUSH2 0x275F SWAP1 PUSH2 0x100 SWAP1 DIV PUSH1 0xFF AND PUSH1 0x4 DUP2 GT ISZERO PUSH2 0x26C4 JUMPI PUSH2 0x26C4 PUSH2 0x4175 JUMP JUMPDEST PUSH2 0x2792 PUSH1 0x40 MLOAD DUP1 PUSH1 0x40 ADD PUSH1 0x40 MSTORE DUP1 PUSH1 0x11 DUP2 MSTORE PUSH1 0x20 ADD PUSH17 0x616464726573732874686973293A202573 PUSH1 0x78 SHL DUP2 MSTORE POP ADDRESS PUSH2 0x3C79 JUMP JUMPDEST PUSH1 0x2 DUP2 PUSH1 0x3 DUP2 GT ISZERO PUSH2 0x27A6 JUMPI PUSH2 0x27A6 PUSH2 0x4175 JUMP JUMPDEST SUB PUSH2 0x2A3C JUMPI PUSH2 0x27E0 PUSH1 0x40 MLOAD DUP1 PUSH1 0x40 ADD PUSH1 0x40 MSTORE DUP1 PUSH1 0x14 DUP2 MSTORE PUSH1 0x20 ADD PUSH20 0x6167656E744964207479706520697320726F6C65 PUSH1 0x60 SHL DUP2 MSTORE POP PUSH2 0x3BA8 JUMP JUMPDEST PUSH1 0x4 PUSH1 0x0 DUP6 DUP2 MSTORE PUSH1 0x44 PUSH1 0x20 MSTORE PUSH1 0x40 SWAP1 KECCAK256 PUSH1 0x1 ADD SLOAD PUSH2 0x100 SWAP1 DIV PUSH1 0xFF AND PUSH1 0x4 DUP2 GT ISZERO PUSH2 0x280D JUMPI PUSH2 0x280D PUSH2 0x4175 JUMP JUMPDEST EQ PUSH2 0x281C JUMPI PUSH1 0x0 SWAP2 POP POP PUSH2 0xEA9 JUMP JUMPDEST PUSH1 0x0 DUP1 PUSH2 0x282A PUSH1 0x44 DUP9 PUSH2 0x3CC2 JUMP JUMPDEST SWAP2 POP SWAP2 POP PUSH2 0x285B PUSH1 0x40 MLOAD DUP1 PUSH1 0x40 ADD PUSH1 0x40 MSTORE DUP1 PUSH1 0xC DUP2 MSTORE PUSH1 0x20 ADD PUSH12 0x3937B632A2B73A34BA3C9D1 PUSH1 0xA5 SHL DUP2 MSTORE POP PUSH2 0x3BA8 JUMP JUMPDEST PUSH1 0x1 DUP3 ADD SLOAD PUSH2 0x287D SWAP1 PUSH2 0x100 SWAP1 DIV PUSH1 0xFF AND PUSH1 0x4 DUP2 GT ISZERO PUSH2 0x26C4 JUMPI PUSH2 0x26C4 PUSH2 0x4175 JUMP JUMPDEST DUP1 ISZERO DUP1 PUSH2 0x28A8 JUMPI POP PUSH1 0x4 PUSH1 0x1 DUP4 ADD SLOAD PUSH2 0x100 SWAP1 DIV PUSH1 0xFF AND PUSH1 0x4 DUP2 GT ISZERO PUSH2 0x28A5 JUMPI PUSH2 0x28A5 PUSH2 0x4175 JUMP JUMPDEST EQ ISZERO JUMPDEST ISZERO PUSH2 0x28B9 JUMPI PUSH1 0x0 SWAP4 POP POP POP POP PUSH2 0xEA9 JUMP JUMPDEST PUSH1 0x0 DUP1 PUSH2 0x28D4 DUP5 PUSH1 0x3 ADD SLOAD PUSH1 0x44 PUSH2 0x3D0D SWAP1 SWAP2 SWAP1 PUSH4 0xFFFFFFFF AND JUMP JUMPDEST SWAP2 POP SWAP2 POP PUSH2 0x2905 PUSH1 0x40 MLOAD DUP1 PUSH1 0x40 ADD PUSH1 0x40 MSTORE DUP1 PUSH1 0xC DUP2 MSTORE PUSH1 0x20 ADD PUSH12 0x3A3CB832A2B73A34BA3C9D1 PUSH1 0xA5 SHL DUP2 MSTORE POP PUSH2 0x3BA8 JUMP JUMPDEST PUSH1 0x1 DUP3 ADD SLOAD PUSH2 0x2927 SWAP1 PUSH2 0x100 SWAP1 DIV PUSH1 0xFF AND PUSH1 0x4 DUP2 GT ISZERO PUSH2 0x26C4 JUMPI PUSH2 0x26C4 PUSH2 0x4175 JUMP JUMPDEST DUP1 ISZERO DUP1 PUSH2 0x2952 JUMPI POP PUSH1 0x4 PUSH1 0x1 DUP4 ADD SLOAD PUSH2 0x100 SWAP1 DIV PUSH1 0xFF AND PUSH1 0x4 DUP2 GT ISZERO PUSH2 0x294F JUMPI PUSH2 0x294F PUSH2 0x4175 JUMP JUMPDEST EQ ISZERO JUMPDEST ISZERO PUSH2 0x2965 JUMPI PUSH1 0x0 SWAP6 POP POP POP POP POP POP PUSH2 0xEA9 JUMP JUMPDEST PUSH1 0x0 DUP10 DUP2 MSTORE PUSH1 0x47 PUSH1 0x20 SWAP1 DUP2 MSTORE PUSH1 0x40 DUP1 DUP4 KECCAK256 SLOAD DUP4 MSTORE PUSH1 0x46 DUP3 MSTORE SWAP2 DUP3 SWAP1 KECCAK256 DUP3 MLOAD DUP1 DUP5 ADD SWAP1 SWAP4 MSTORE PUSH1 0xE DUP4 MSTORE PUSH14 0x3837B634B1BCA2B73A34BA3C9D1 PUSH1 0x95 SHL SWAP2 DUP4 ADD SWAP2 SWAP1 SWAP2 MSTORE SWAP1 PUSH2 0x29B0 SWAP1 PUSH2 0x3BA8 JUMP JUMPDEST PUSH1 0x3 DUP2 ADD SLOAD PUSH2 0x29D4 SWAP1 PUSH1 0x1 PUSH1 0x30 SHL SWAP1 DIV PUSH1 0xFF AND PUSH1 0x4 DUP2 GT ISZERO PUSH2 0x26C4 JUMPI PUSH2 0x26C4 PUSH2 0x4175 JUMP JUMPDEST PUSH1 0x4 PUSH1 0x3 DUP3 ADD SLOAD PUSH1 0x1 PUSH1 0x30 SHL SWAP1 DIV PUSH1 0xFF AND PUSH1 0x4 DUP2 GT ISZERO PUSH2 0x29F6 JUMPI PUSH2 0x29F6 PUSH2 0x4175 JUMP JUMPDEST EQ DUP1 ISZERO PUSH2 0x2A1E JUMPI POP PUSH1 0x4 DUP9 ADD SLOAD PUSH1 0x3 DUP3 ADD SLOAD PUSH1 0xFF PUSH5 0x100000000 SWAP3 DUP4 SWAP1 DIV DUP2 AND SWAP3 SWAP1 SWAP2 DIV AND LT ISZERO JUMPDEST ISZERO PUSH2 0x2A32 JUMPI PUSH1 0x0 SWAP7 POP POP POP POP POP POP POP PUSH2 0xEA9 JUMP JUMPDEST POP POP POP POP POP PUSH2 0x2E57 JUMP JUMPDEST PUSH1 0x3 DUP2 PUSH1 0x3 DUP2 GT ISZERO PUSH2 0x2A50 JUMPI PUSH2 0x2A50 PUSH2 0x4175 JUMP JUMPDEST SUB PUSH2 0x2E34 JUMPI PUSH2 0x2A8B PUSH1 0x40 MLOAD DUP1 PUSH1 0x40 ADD PUSH1 0x40 MSTORE DUP1 PUSH1 0x15 DUP2 MSTORE PUSH1 0x20 ADD PUSH21 0x30B3B2B73A24B21034B9903A3CB832901710171017 PUSH1 0x59 SHL DUP2 MSTORE POP PUSH2 0x3BA8 JUMP JUMPDEST PUSH1 0x40 MLOAD PUSH21 0x4C4956454C595F56455253455F414E595F54595045 PUSH1 0x58 SHL PUSH1 0x20 DUP3 ADD MSTORE PUSH1 0x35 ADD PUSH1 0x40 MLOAD PUSH1 0x20 DUP2 DUP4 SUB SUB DUP2 MSTORE SWAP1 PUSH1 0x40 MSTORE DUP1 MLOAD SWAP1 PUSH1 0x20 ADD KECCAK256 DUP6 EQ DUP1 ISZERO PUSH2 0x2AFE JUMPI POP PUSH1 0x4 PUSH1 0x0 DUP6 DUP2 MSTORE PUSH1 0x44 PUSH1 0x20 MSTORE PUSH1 0x40 SWAP1 KECCAK256 PUSH1 0x1 ADD SLOAD PUSH2 0x100 SWAP1 DIV PUSH1 0xFF AND PUSH1 0x4 DUP2 GT ISZERO PUSH2 0x2AFB JUMPI PUSH2 0x2AFB PUSH2 0x4175 JUMP JUMPDEST EQ ISZERO JUMPDEST ISZERO PUSH2 0x2B4B JUMPI PUSH2 0x2B41 PUSH1 0x40 MLOAD DUP1 PUSH1 0x40 ADD PUSH1 0x40 MSTORE DUP1 PUSH1 0x19 DUP2 MSTORE PUSH1 0x20 ADD PUSH32 0x6167656E74496420697320414E592074797065202E202E202E00000000000000 DUP2 MSTORE POP PUSH2 0x3BA8 JUMP JUMPDEST PUSH1 0x0 SWAP2 POP POP PUSH2 0xEA9 JUMP JUMPDEST PUSH1 0x40 MLOAD PUSH32 0x4C4956454C595F56455253455F414E4F4E594D4F55535F545950450000000000 PUSH1 0x20 DUP3 ADD MSTORE PUSH1 0x3B ADD PUSH1 0x40 MLOAD PUSH1 0x20 DUP2 DUP4 SUB SUB DUP2 MSTORE SWAP1 PUSH1 0x40 MSTORE DUP1 MLOAD SWAP1 PUSH1 0x20 ADD KECCAK256 DUP6 EQ PUSH2 0x2E2F JUMPI PUSH2 0x2BD1 PUSH1 0x40 MLOAD DUP1 PUSH1 0x40 ADD PUSH1 0x40 MSTORE DUP1 PUSH1 0x1F DUP2 MSTORE PUSH1 0x20 ADD PUSH32 0x6167656E74496420697320416E6F6E796D6F75732074797065202E202E202E00 DUP2 MSTORE POP PUSH2 0x3BA8 JUMP JUMPDEST PUSH1 0x4 PUSH1 0x0 DUP6 DUP2 MSTORE PUSH1 0x44 PUSH1 0x20 MSTORE PUSH1 0x40 SWAP1 KECCAK256 PUSH1 0x1 ADD SLOAD PUSH2 0x100 SWAP1 DIV PUSH1 0xFF AND PUSH1 0x4 DUP2 GT ISZERO PUSH2 0x2BFE JUMPI PUSH2 0x2BFE PUSH2 0x4175 JUMP JUMPDEST EQ PUSH2 0x2C0D JUMPI PUSH1 0x0 SWAP2 POP POP PUSH2 0xEA9 JUMP JUMPDEST PUSH1 0x0 DUP1 PUSH2 0x2C1B PUSH1 0x44 DUP9 PUSH2 0x3D0D JUMP JUMPDEST SWAP2 POP SWAP2 POP PUSH2 0x2C4C PUSH1 0x40 MLOAD DUP1 PUSH1 0x40 ADD PUSH1 0x40 MSTORE DUP1 PUSH1 0xC DUP2 MSTORE PUSH1 0x20 ADD PUSH12 0x3A3CB832A2B73A34BA3C9D1 PUSH1 0xA5 SHL DUP2 MSTORE POP PUSH2 0x3BA8 JUMP JUMPDEST PUSH1 0x1 DUP3 ADD SLOAD PUSH2 0x2C6E SWAP1 PUSH2 0x100 SWAP1 DIV PUSH1 0xFF AND PUSH1 0x4 DUP2 GT ISZERO PUSH2 0x26C4 JUMPI PUSH2 0x26C4 PUSH2 0x4175 JUMP JUMPDEST DUP1 ISZERO DUP1 PUSH2 0x2C99 JUMPI POP PUSH1 0x4 PUSH1 0x1 DUP4 ADD SLOAD PUSH2 0x100 SWAP1 DIV PUSH1 0xFF AND PUSH1 0x4 DUP2 GT ISZERO PUSH2 0x2C96 JUMPI PUSH2 0x2C96 PUSH2 0x4175 JUMP JUMPDEST EQ ISZERO JUMPDEST ISZERO PUSH2 0x2CAA JUMPI PUSH1 0x0 SWAP4 POP POP POP POP PUSH2 0xEA9 JUMP JUMPDEST PUSH1 0x0 DUP7 DUP2 MSTORE PUSH1 0x5 DUP4 ADD PUSH1 0x20 MSTORE PUSH1 0x40 DUP2 KECCAK256 SLOAD SWAP1 DUP1 PUSH2 0x2CC8 PUSH1 0x44 DUP5 PUSH2 0x3CC2 JUMP JUMPDEST SWAP2 POP SWAP2 POP PUSH2 0x2CF9 PUSH1 0x40 MLOAD DUP1 PUSH1 0x40 ADD PUSH1 0x40 MSTORE DUP1 PUSH1 0xC DUP2 MSTORE PUSH1 0x20 ADD PUSH12 0x3937B632A2B73A34BA3C9D1 PUSH1 0xA5 SHL DUP2 MSTORE POP PUSH2 0x3BA8 JUMP JUMPDEST PUSH1 0x1 DUP3 ADD SLOAD PUSH2 0x2D1B SWAP1 PUSH2 0x100 SWAP1 DIV PUSH1 0xFF AND PUSH1 0x4 DUP2 GT ISZERO PUSH2 0x26C4 JUMPI PUSH2 0x26C4 PUSH2 0x4175 JUMP JUMPDEST DUP1 ISZERO DUP1 PUSH2 0x2D46 JUMPI POP PUSH1 0x4 PUSH1 0x1 DUP4 ADD SLOAD PUSH2 0x100 SWAP1 DIV PUSH1 0xFF AND PUSH1 0x4 DUP2 GT ISZERO PUSH2 0x2D43 JUMPI PUSH2 0x2D43 PUSH2 0x4175 JUMP JUMPDEST EQ ISZERO JUMPDEST ISZERO PUSH2 0x2D5A JUMPI PUSH1 0x0 SWAP7 POP POP POP POP POP POP POP PUSH2 0xEA9 JUMP JUMPDEST PUSH1 0x0 DUP4 DUP2 MSTORE PUSH1 0x47 PUSH1 0x20 SWAP1 DUP2 MSTORE PUSH1 0x40 DUP1 DUP4 KECCAK256 SLOAD DUP4 MSTORE PUSH1 0x46 DUP3 MSTORE SWAP2 DUP3 SWAP1 KECCAK256 DUP3 MLOAD DUP1 DUP5 ADD SWAP1 SWAP4 MSTORE PUSH1 0xE DUP4 MSTORE PUSH14 0x3837B634B1BCA2B73A34BA3C9D1 PUSH1 0x95 SHL SWAP2 DUP4 ADD SWAP2 SWAP1 SWAP2 MSTORE SWAP1 PUSH2 0x2DA5 SWAP1 PUSH2 0x3BA8 JUMP JUMPDEST PUSH1 0x3 DUP2 ADD SLOAD PUSH2 0x2DC9 SWAP1 PUSH1 0x1 PUSH1 0x30 SHL SWAP1 DIV PUSH1 0xFF AND PUSH1 0x4 DUP2 GT ISZERO PUSH2 0x26C4 JUMPI PUSH2 0x26C4 PUSH2 0x4175 JUMP JUMPDEST PUSH1 0x4 PUSH1 0x3 DUP3 ADD SLOAD PUSH1 0x1 PUSH1 0x30 SHL SWAP1 DIV PUSH1 0xFF AND PUSH1 0x4 DUP2 GT ISZERO PUSH2 0x2DEB JUMPI PUSH2 0x2DEB PUSH2 0x4175 JUMP JUMPDEST EQ DUP1 ISZERO PUSH2 0x2E13 JUMPI POP PUSH1 0x4 DUP10 ADD SLOAD PUSH1 0x3 DUP3 ADD SLOAD PUSH1 0xFF PUSH5 0x100000000 SWAP3 DUP4 SWAP1 DIV DUP2 AND SWAP3 SWAP1 SWAP2 DIV AND LT ISZERO JUMPDEST ISZERO PUSH2 0x2E28 JUMPI PUSH1 0x0 SWAP8 POP POP POP POP POP POP POP POP PUSH2 0xEA9 JUMP JUMPDEST POP POP POP POP POP POP JUMPDEST PUSH2 0x2E57 JUMP JUMPDEST PUSH1 0x1 DUP2 PUSH1 0x3 DUP2 GT ISZERO PUSH2 0x2E48 JUMPI PUSH2 0x2E48 PUSH2 0x4175 JUMP JUMPDEST GT PUSH2 0x2E57 JUMPI PUSH1 0x0 SWAP2 POP POP PUSH2 0xEA9 JUMP JUMPDEST PUSH2 0x2E88 PUSH1 0x40 MLOAD DUP1 PUSH1 0x40 ADD PUSH1 0x40 MSTORE DUP1 PUSH1 0x10 DUP2 MSTORE PUSH1 0x20 ADD PUSH16 0x333AB731BA34B7B722B73A34BA3C9D1 PUSH1 0x85 SHL DUP2 MSTORE POP PUSH2 0x3BA8 JUMP JUMPDEST PUSH1 0x1 DUP4 ADD SLOAD PUSH2 0x2EAA SWAP1 PUSH2 0x100 SWAP1 DIV PUSH1 0xFF AND PUSH1 0x4 DUP2 GT ISZERO PUSH2 0x26C4 JUMPI PUSH2 0x26C4 PUSH2 0x4175 JUMP JUMPDEST PUSH1 0x4 PUSH1 0x1 DUP5 ADD SLOAD PUSH2 0x100 SWAP1 DIV PUSH1 0xFF AND PUSH1 0x4 DUP2 GT ISZERO PUSH2 0x2ECA JUMPI PUSH2 0x2ECA PUSH2 0x4175 JUMP JUMPDEST EQ PUSH2 0x2ED9 JUMPI PUSH1 0x0 SWAP2 POP POP PUSH2 0xEA9 JUMP JUMPDEST PUSH1 0x0 DUP1 PUSH2 0x2EF4 DUP6 PUSH1 0x3 ADD SLOAD PUSH1 0x44 PUSH2 0x3D24 SWAP1 SWAP2 SWAP1 PUSH4 0xFFFFFFFF AND JUMP JUMPDEST SWAP2 POP SWAP2 POP PUSH2 0x2F28 PUSH1 0x40 MLOAD DUP1 PUSH1 0x40 ADD PUSH1 0x40 MSTORE DUP1 PUSH1 0xF DUP2 MSTORE PUSH1 0x20 ADD PUSH15 0x31B7B73A32BC3A22B73A34BA3C9D1 PUSH1 0x8D SHL DUP2 MSTORE POP PUSH2 0x3BA8 JUMP JUMPDEST PUSH1 0x1 DUP3 ADD SLOAD PUSH2 0x2F4A SWAP1 PUSH2 0x100 SWAP1 DIV PUSH1 0xFF AND PUSH1 0x4 DUP2 GT ISZERO PUSH2 0x26C4 JUMPI PUSH2 0x26C4 PUSH2 0x4175 JUMP JUMPDEST DUP1 ISZERO DUP1 PUSH2 0x2F75 JUMPI POP PUSH1 0x4 PUSH1 0x1 DUP4 ADD SLOAD PUSH2 0x100 SWAP1 DIV PUSH1 0xFF AND PUSH1 0x4 DUP2 GT ISZERO PUSH2 0x2F72 JUMPI PUSH2 0x2F72 PUSH2 0x4175 JUMP JUMPDEST EQ ISZERO JUMPDEST ISZERO PUSH2 0x2F86 JUMPI PUSH1 0x0 SWAP4 POP POP POP POP PUSH2 0xEA9 JUMP JUMPDEST PUSH1 0x0 DUP1 PUSH2 0x2FA1 DUP5 PUSH1 0x2 ADD SLOAD PUSH1 0x44 PUSH2 0x3D3D SWAP1 SWAP2 SWAP1 PUSH4 0xFFFFFFFF AND JUMP JUMPDEST SWAP2 POP SWAP2 POP PUSH2 0x2FD3 PUSH1 0x40 MLOAD DUP1 PUSH1 0x40 ADD PUSH1 0x40 MSTORE DUP1 PUSH1 0xD DUP2 MSTORE PUSH1 0x20 ADD PUSH13 0x3932B0B636A2B73A34BA3C9D1 PUSH1 0x9D SHL DUP2 MSTORE POP PUSH2 0x3BA8 JUMP JUMPDEST PUSH1 0x1 DUP5 ADD SLOAD PUSH2 0x2FF5 SWAP1 PUSH2 0x100 SWAP1 DIV PUSH1 0xFF AND PUSH1 0x4 DUP2 GT ISZERO PUSH2 0x26C4 JUMPI PUSH2 0x26C4 PUSH2 0x4175 JUMP JUMPDEST DUP1 ISZERO DUP1 PUSH2 0x3020 JUMPI POP PUSH1 0x4 PUSH1 0x1 DUP4 ADD SLOAD PUSH2 0x100 SWAP1 DIV PUSH1 0xFF AND PUSH1 0x4 DUP2 GT ISZERO PUSH2 0x301D JUMPI PUSH2 0x301D PUSH2 0x4175 JUMP JUMPDEST EQ ISZERO JUMPDEST ISZERO PUSH2 0x3033 JUMPI PUSH1 0x0 SWAP6 POP POP POP POP POP POP PUSH2 0xEA9 JUMP JUMPDEST PUSH1 0x0 DUP1 PUSH2 0x304E DUP5 PUSH1 0x2 ADD SLOAD PUSH1 0x44 PUSH2 0x3D56 SWAP1 SWAP2 SWAP1 PUSH4 0xFFFFFFFF AND JUMP JUMPDEST SWAP2 POP SWAP2 POP PUSH2 0x3081 PUSH1 0x40 MLOAD DUP1 PUSH1 0x40 ADD PUSH1 0x40 MSTORE DUP1 PUSH1 0xE DUP2 MSTORE PUSH1 0x20 ADD PUSH14 0x3237B6B0B4B722B73A34BA3C9D1 PUSH1 0x95 SHL DUP2 MSTORE POP PUSH2 0x3BA8 JUMP JUMPDEST PUSH1 0x1 DUP3 ADD SLOAD PUSH2 0x30A3 SWAP1 PUSH2 0x100 SWAP1 DIV PUSH1 0xFF AND PUSH1 0x4 DUP2 GT ISZERO PUSH2 0x26C4 JUMPI PUSH2 0x26C4 PUSH2 0x4175 JUMP JUMPDEST DUP1 ISZERO DUP1 PUSH2 0x30CE JUMPI POP PUSH1 0x4 PUSH1 0x1 DUP4 ADD SLOAD PUSH2 0x100 SWAP1 DIV PUSH1 0xFF AND PUSH1 0x4 DUP2 GT ISZERO PUSH2 0x30CB JUMPI PUSH2 0x30CB PUSH2 0x4175 JUMP JUMPDEST EQ ISZERO JUMPDEST ISZERO PUSH2 0x30E3 JUMPI PUSH1 0x0 SWAP8 POP POP POP POP POP POP POP POP PUSH2 0xEA9 JUMP JUMPDEST PUSH2 0x310C PUSH1 0x40 MLOAD DUP1 PUSH1 0x40 ADD PUSH1 0x40 MSTORE DUP1 PUSH1 0x8 DUP2 MSTORE PUSH1 0x20 ADD PUSH8 0x33B637B130B61D1 PUSH1 0xC5 SHL DUP2 MSTORE POP PUSH2 0x3BA8 JUMP JUMPDEST PUSH1 0x40 DUP1 MLOAD PUSH32 0x4C4956454C595F56455253455F4C4956454C595F474C4F42414C5F53434F5045 PUSH1 0x20 DUP1 DUP4 ADD SWAP2 SWAP1 SWAP2 MSTORE DUP3 MLOAD DUP1 DUP4 SUB DUP3 ADD DUP2 MSTORE SWAP2 DUP4 ADD DUP4 MSTORE DUP2 MLOAD SWAP2 DUP2 ADD SWAP2 SWAP1 SWAP2 KECCAK256 PUSH1 0x0 SWAP1 DUP2 MSTORE PUSH1 0x45 SWAP1 SWAP2 MSTORE KECCAK256 PUSH1 0x1 ADD SLOAD PUSH2 0x317D SWAP1 PUSH2 0x100 SWAP1 DIV PUSH1 0xFF AND PUSH1 0x4 DUP2 GT ISZERO PUSH2 0x26C4 JUMPI PUSH2 0x26C4 PUSH2 0x4175 JUMP JUMPDEST PUSH1 0x4 PUSH1 0x40 DUP1 MLOAD PUSH32 0x4C4956454C595F56455253455F4C4956454C595F474C4F42414C5F53434F5045 PUSH1 0x20 DUP3 ADD MSTORE PUSH1 0x45 SWAP2 PUSH1 0x0 SWAP2 ADD PUSH1 0x40 MLOAD PUSH1 0x20 DUP2 DUP4 SUB SUB DUP2 MSTORE SWAP1 PUSH1 0x40 MSTORE DUP1 MLOAD SWAP1 PUSH1 0x20 ADD KECCAK256 DUP2 MSTORE PUSH1 0x20 ADD SWAP1 DUP2 MSTORE PUSH1 0x20 ADD PUSH1 0x0 KECCAK256 PUSH1 0x1 ADD PUSH1 0x1 SWAP1 SLOAD SWAP1 PUSH2 0x100 EXP SWAP1 DIV PUSH1 0xFF AND PUSH1 0x4 DUP2 GT ISZERO PUSH2 0x31F6 JUMPI PUSH2 0x31F6 PUSH2 0x4175 JUMP JUMPDEST EQ PUSH2 0x320B JUMPI PUSH1 0x0 SWAP8 POP POP POP POP POP POP POP POP PUSH2 0xEA9 JUMP JUMPDEST POP PUSH1 0x1 SWAP11 SWAP10 POP POP POP POP POP POP POP POP POP POP JUMP JUMPDEST PUSH1 0x40 MLOAD PUSH12 0xFFFFFFFFFFFFFFFFFFFFFFFF NOT PUSH1 0x60 DUP4 SWAP1 SHL AND PUSH1 0x20 DUP3 ADD MSTORE PUSH1 0x0 SWAP1 PUSH1 0x34 ADD PUSH1 0x40 MLOAD PUSH1 0x20 DUP2 DUP4 SUB SUB DUP2 MSTORE SWAP1 PUSH1 0x40 MSTORE DUP1 MLOAD SWAP1 PUSH1 0x20 ADD KECCAK256 SWAP1 POP SWAP2 SWAP1 POP JUMP JUMPDEST PUSH1 0x0 DUP2 DUP2 MSTORE PUSH1 0x1 DUP4 ADD PUSH1 0x20 MSTORE PUSH1 0x40 DUP2 KECCAK256 PUSH1 0x2 PUSH1 0x1 DUP3 ADD SLOAD PUSH1 0xFF AND PUSH1 0x5 DUP2 GT ISZERO PUSH2 0x3286 JUMPI PUSH2 0x3286 PUSH2 0x4175 JUMP JUMPDEST SUB PUSH2 0x32A3 JUMPI PUSH1 0x40 DUP1 MLOAD DUP5 DUP2 MSTORE PUSH1 0x1 DUP7 ADD PUSH1 0x20 DUP3 ADD MSTORE KECCAK256 SWAP2 POP PUSH2 0x1A13 JUMP JUMPDEST PUSH1 0x0 PUSH1 0x1 DUP3 ADD SLOAD PUSH1 0xFF AND PUSH1 0x5 DUP2 GT ISZERO PUSH2 0x32BE JUMPI PUSH2 0x32BE PUSH2 0x4175 JUMP JUMPDEST SUB PUSH2 0x32FB JUMPI PUSH1 0x40 MLOAD PUSH3 0x461BCD PUSH1 0xE5 SHL DUP2 MSTORE PUSH1 0x20 PUSH1 0x4 DUP3 ADD MSTORE PUSH1 0xD PUSH1 0x24 DUP3 ADD MSTORE PUSH13 0x10D25108139BDD08119BDD5B99 PUSH1 0x9A SHL PUSH1 0x44 DUP3 ADD MSTORE PUSH1 0x64 ADD PUSH2 0x923 JUMP JUMPDEST PUSH1 0x40 MLOAD PUSH3 0x461BCD PUSH1 0xE5 SHL DUP2 MSTORE PUSH1 0x20 PUSH1 0x4 DUP3 ADD MSTORE PUSH1 0x10 PUSH1 0x24 DUP3 ADD MSTORE PUSH16 0x125B1B1959D85B0810D2510814DB1BDD PUSH1 0x82 SHL PUSH1 0x44 DUP3 ADD MSTORE PUSH1 0x64 ADD PUSH2 0x923 JUMP JUMPDEST PUSH1 0x0 DUP2 DUP2 MSTORE PUSH1 0x1 DUP4 ADD PUSH1 0x20 MSTORE PUSH1 0x40 DUP2 KECCAK256 SLOAD ISZERO ISZERO PUSH2 0xEA9 JUMP JUMPDEST PUSH1 0x0 DUP2 DUP2 MSTORE PUSH1 0x1 DUP1 DUP5 ADD PUSH1 0x20 MSTORE PUSH1 0x40 DUP3 KECCAK256 SWAP1 PUSH1 0x1 DUP3 ADD SLOAD PUSH1 0xFF AND PUSH1 0x5 DUP2 GT ISZERO PUSH2 0x3379 JUMPI PUSH2 0x3379 PUSH2 0x4175 JUMP JUMPDEST SUB PUSH2 0x3396 JUMPI PUSH1 0x40 DUP1 MLOAD DUP5 DUP2 MSTORE PUSH1 0x1 DUP7 ADD PUSH1 0x20 DUP3 ADD MSTORE KECCAK256 SWAP2 POP PUSH2 0x1A13 JUMP JUMPDEST PUSH1 0x0 PUSH1 0x1 DUP3 ADD SLOAD PUSH1 0xFF AND PUSH1 0x5 DUP2 GT ISZERO PUSH2 0x33B1 JUMPI PUSH2 0x33B1 PUSH2 0x4175 JUMP JUMPDEST SUB PUSH2 0x33EE JUMPI PUSH1 0x40 MLOAD PUSH3 0x461BCD PUSH1 0xE5 SHL DUP2 MSTORE PUSH1 0x20 PUSH1 0x4 DUP3 ADD MSTORE PUSH1 0xD PUSH1 0x24 DUP3 ADD MSTORE PUSH13 0x11925108139BDD08119BDD5B99 PUSH1 0x9A SHL PUSH1 0x44 DUP3 ADD MSTORE PUSH1 0x64 ADD PUSH2 0x923 JUMP JUMPDEST PUSH1 0x40 MLOAD PUSH3 0x461BCD PUSH1 0xE5 SHL DUP2 MSTORE PUSH1 0x20 PUSH1 0x4 DUP3 ADD MSTORE PUSH1 0x10 PUSH1 0x24 DUP3 ADD MSTORE PUSH16 0x125B1B195859DB081192510814DB1BDD PUSH1 0x82 SHL PUSH1 0x44 DUP3 ADD MSTORE PUSH1 0x64 ADD PUSH2 0x923 JUMP JUMPDEST PUSH1 0x0 DUP2 DUP2 MSTORE PUSH1 0x1 DUP4 ADD PUSH1 0x20 MSTORE PUSH1 0x40 DUP2 KECCAK256 PUSH1 0x3 PUSH1 0x1 DUP3 ADD SLOAD PUSH1 0xFF AND PUSH1 0x5 DUP2 GT ISZERO PUSH2 0x3454 JUMPI PUSH2 0x3454 PUSH2 0x4175 JUMP JUMPDEST SUB PUSH2 0x3471 JUMPI PUSH1 0x40 DUP1 MLOAD DUP5 DUP2 MSTORE PUSH1 0x1 DUP7 ADD PUSH1 0x20 DUP3 ADD MSTORE KECCAK256 SWAP2 POP PUSH2 0x1A13 JUMP JUMPDEST PUSH1 0x0 PUSH1 0x1 DUP3 ADD SLOAD PUSH1 0xFF AND PUSH1 0x5 DUP2 GT ISZERO PUSH2 0x348C JUMPI PUSH2 0x348C PUSH2 0x4175 JUMP JUMPDEST SUB PUSH2 0x34C9 JUMPI PUSH1 0x40 MLOAD PUSH3 0x461BCD PUSH1 0xE5 SHL DUP2 MSTORE PUSH1 0x20 PUSH1 0x4 DUP3 ADD MSTORE PUSH1 0xD PUSH1 0x24 DUP3 ADD MSTORE PUSH13 0x14925108139BDD08119BDD5B99 PUSH1 0x9A SHL PUSH1 0x44 DUP3 ADD MSTORE PUSH1 0x64 ADD PUSH2 0x923 JUMP JUMPDEST PUSH1 0x40 MLOAD PUSH3 0x461BCD PUSH1 0xE5 SHL DUP2 MSTORE PUSH1 0x20 PUSH1 0x4 DUP3 ADD MSTORE PUSH1 0x10 PUSH1 0x24 DUP3 ADD MSTORE PUSH16 0x125B1B195859DB081492510814DB1BDD PUSH1 0x82 SHL PUSH1 0x44 DUP3 ADD MSTORE PUSH1 0x64 ADD PUSH2 0x923 JUMP JUMPDEST PUSH1 0x0 DUP2 DUP2 MSTORE PUSH1 0x1 DUP4 ADD PUSH1 0x20 MSTORE PUSH1 0x40 DUP2 KECCAK256 PUSH1 0x4 PUSH1 0x1 DUP3 ADD SLOAD PUSH1 0xFF AND PUSH1 0x5 DUP2 GT ISZERO PUSH2 0x352F JUMPI PUSH2 0x352F PUSH2 0x4175 JUMP JUMPDEST SUB PUSH2 0x354C JUMPI PUSH1 0x40 DUP1 MLOAD DUP5 DUP2 MSTORE PUSH1 0x1 DUP7 ADD PUSH1 0x20 DUP3 ADD MSTORE KECCAK256 SWAP2 POP PUSH2 0x1A13 JUMP JUMPDEST PUSH1 0x0 PUSH1 0x1 DUP3 ADD SLOAD PUSH1 0xFF AND PUSH1 0x5 DUP2 GT ISZERO PUSH2 0x3567 JUMPI PUSH2 0x3567 PUSH2 0x4175 JUMP JUMPDEST SUB PUSH2 0x35A4 JUMPI PUSH1 0x40 MLOAD PUSH3 0x461BCD PUSH1 0xE5 SHL DUP2 MSTORE PUSH1 0x20 PUSH1 0x4 DUP3 ADD MSTORE PUSH1 0xD PUSH1 0x24 DUP3 ADD MSTORE PUSH13 0x11125108139BDD08119BDD5B99 PUSH1 0x9A SHL PUSH1 0x44 DUP3 ADD MSTORE PUSH1 0x64 ADD PUSH2 0x923 JUMP JUMPDEST PUSH1 0x40 MLOAD PUSH3 0x461BCD PUSH1 0xE5 SHL DUP2 MSTORE PUSH1 0x20 PUSH1 0x4 DUP3 ADD MSTORE PUSH1 0x10 PUSH1 0x24 DUP3 ADD MSTORE PUSH16 0x125B1B1959D85B081112510814DB1BDD PUSH1 0x82 SHL PUSH1 0x44 DUP3 ADD MSTORE PUSH1 0x64 ADD PUSH2 0x923 JUMP JUMPDEST PUSH2 0x35E7 PUSH2 0x2340 JUMP JUMPDEST PUSH1 0x1 PUSH1 0x1 PUSH1 0xA0 SHL SUB AND DUP2 PUSH1 0x1 PUSH1 0x1 PUSH1 0xA0 SHL SUB AND SUB PUSH2 0x3631 JUMPI PUSH1 0x40 MLOAD PUSH3 0x461BCD PUSH1 0xE5 SHL DUP2 MSTORE PUSH1 0x20 PUSH1 0x4 DUP3 ADD MSTORE PUSH1 0x7 PUSH1 0x24 DUP3 ADD MSTORE PUSH7 0x125B1B1959D85B PUSH1 0xCA SHL PUSH1 0x44 DUP3 ADD MSTORE PUSH1 0x64 ADD PUSH2 0x923 JUMP JUMPDEST PUSH2 0x3641 PUSH4 0x7147855D PUSH1 0xE0 SHL PUSH2 0x239D JUMP JUMPDEST PUSH2 0x365D JUMPI PUSH1 0x40 MLOAD PUSH3 0x461BCD PUSH1 0xE5 SHL DUP2 MSTORE PUSH1 0x4 ADD PUSH2 0x923 SWAP1 PUSH2 0x45EB JUMP JUMPDEST POP JUMP JUMPDEST PUSH1 0x60 PUSH32 0x4910FDFA16FED3260ED0E7147F7CC6DA11A60208B5B9406D12A635614FFD9143 SLOAD PUSH1 0xFF AND ISZERO PUSH2 0x36AA JUMPI PUSH2 0x3695 DUP5 PUSH2 0x3D6F JUMP JUMPDEST POP PUSH1 0x40 DUP1 MLOAD PUSH1 0x0 DUP2 MSTORE PUSH1 0x20 DUP2 ADD SWAP1 SWAP2 MSTORE PUSH2 0xEA9 JUMP JUMPDEST PUSH1 0x0 DUP1 MLOAD PUSH1 0x20 PUSH2 0x48A8 DUP4 CODECOPY DUP2 MLOAD SWAP2 MSTORE PUSH1 0x0 SHL DUP5 PUSH1 0x1 PUSH1 0x1 PUSH1 0xA0 SHL SUB AND PUSH4 0x52D1902D PUSH1 0x40 MLOAD DUP2 PUSH4 0xFFFFFFFF AND PUSH1 0xE0 SHL DUP2 MSTORE PUSH1 0x4 ADD PUSH1 0x20 PUSH1 0x40 MLOAD DUP1 DUP4 SUB DUP2 DUP7 GAS STATICCALL ISZERO DUP1 ISZERO PUSH2 0x36FA JUMPI RETURNDATASIZE PUSH1 0x0 DUP1 RETURNDATACOPY RETURNDATASIZE PUSH1 0x0 REVERT JUMPDEST POP POP POP POP PUSH1 0x40 MLOAD RETURNDATASIZE PUSH1 0x1F NOT PUSH1 0x1F DUP3 ADD AND DUP3 ADD DUP1 PUSH1 0x40 MSTORE POP DUP2 ADD SWAP1 PUSH2 0x371E SWAP2 SWAP1 PUSH2 0x46C7 JUMP JUMPDEST EQ PUSH2 0x375A JUMPI PUSH1 0x40 MLOAD PUSH3 0x461BCD PUSH1 0xE5 SHL DUP2 MSTORE PUSH1 0x20 PUSH1 0x4 DUP3 ADD MSTORE PUSH1 0xC PUSH1 0x24 DUP3 ADD MSTORE PUSH12 0x496C6C6567616C2055555053 PUSH1 0xA0 SHL PUSH1 0x44 DUP3 ADD MSTORE PUSH1 0x64 ADD PUSH2 0x923 JUMP JUMPDEST PUSH1 0x40 MLOAD PUSH4 0x1FFC9A7 PUSH1 0xE0 SHL DUP2 MSTORE PUSH4 0x27D8F1FD PUSH1 0xE2 SHL PUSH1 0x4 DUP3 ADD MSTORE PUSH1 0x1 PUSH1 0x1 PUSH1 0xA0 SHL SUB DUP6 AND SWAP1 PUSH4 0x1FFC9A7 SWAP1 PUSH1 0x24 ADD PUSH1 0x20 PUSH1 0x40 MLOAD DUP1 DUP4 SUB DUP2 DUP7 GAS STATICCALL ISZERO DUP1 ISZERO PUSH2 0x37A5 JUMPI RETURNDATASIZE PUSH1 0x0 DUP1 RETURNDATACOPY RETURNDATASIZE PUSH1 0x0 REVERT JUMPDEST POP POP POP POP PUSH1 0x40 MLOAD RETURNDATASIZE PUSH1 0x1F NOT PUSH1 0x1F DUP3 ADD AND DUP3 ADD DUP1 PUSH1 0x40 MSTORE POP DUP2 ADD SWAP1 PUSH2 0x37C9 SWAP2 SWAP1 PUSH2 0x460E JUMP JUMPDEST PUSH2 0x3805 JUMPI PUSH1 0x40 MLOAD PUSH3 0x461BCD PUSH1 0xE5 SHL DUP2 MSTORE PUSH1 0x20 PUSH1 0x4 DUP3 ADD MSTORE PUSH1 0xD PUSH1 0x24 DUP3 ADD MSTORE PUSH13 0x496C6C6567616C2050726F7879 PUSH1 0x98 SHL PUSH1 0x44 DUP3 ADD MSTORE PUSH1 0x64 ADD PUSH2 0x923 JUMP JUMPDEST PUSH2 0x3810 DUP5 DUP5 DUP5 PUSH2 0x3DE4 JUMP JUMPDEST SWAP1 POP PUSH2 0xEA9 JUMP JUMPDEST PUSH1 0x0 PUSH32 0x8B73C3C69BB8FE3D512ECC4CF759CC79239F7B179B0FFACAA9A75D522B39400F PUSH1 0x0 PUSH1 0x40 MLOAD PUSH1 0x20 ADD PUSH2 0x384C SWAP2 SWAP1 PUSH2 0x46E0 JUMP JUMPDEST PUSH1 0x40 MLOAD PUSH1 0x20 DUP2 DUP4 SUB SUB DUP2 MSTORE SWAP1 PUSH1 0x40 MSTORE DUP1 MLOAD SWAP1 PUSH1 0x20 ADD KECCAK256 PUSH1 0x1 PUSH1 0x40 MLOAD PUSH1 0x20 ADD PUSH2 0x3874 SWAP2 SWAP1 PUSH2 0x46E0 JUMP JUMPDEST PUSH1 0x40 DUP1 MLOAD PUSH1 0x1F NOT DUP2 DUP5 SUB ADD DUP2 MSTORE DUP3 DUP3 MSTORE DUP1 MLOAD PUSH1 0x20 SWAP2 DUP3 ADD KECCAK256 SWAP1 DUP4 ADD SWAP5 SWAP1 SWAP5 MSTORE DUP2 ADD SWAP2 SWAP1 SWAP2 MSTORE PUSH1 0x60 DUP2 ADD SWAP2 SWAP1 SWAP2 MSTORE CHAINID PUSH1 0x80 DUP3 ADD MSTORE ADDRESS PUSH1 0xA0 DUP3 ADD MSTORE PUSH1 0xC0 ADD PUSH2 0x161C JUMP JUMPDEST PUSH32 0xB53127684A568B3173AE13B9F8A6016E243E63B6E8EE1178D6A717850B5D6103 DUP1 SLOAD PUSH1 0x1 PUSH1 0x1 PUSH1 0xA0 SHL SUB DUP4 AND PUSH1 0x1 PUSH1 0x1 PUSH1 0xA0 SHL SUB NOT SWAP1 SWAP2 AND DUP2 OR SWAP1 SWAP2 SSTORE PUSH1 0x40 DUP1 MLOAD SWAP2 DUP3 MSTORE MLOAD ADDRESS SWAP2 CALLER SWAP2 PUSH32 0x63FDBED5F2909EC44E3BECC51E9D29654CE1447747914E8A6EBC019E7F640B8B SWAP2 DUP2 SWAP1 SUB PUSH1 0x20 ADD SWAP1 LOG3 POP JUMP JUMPDEST PUSH1 0x4C SLOAD PUSH3 0x10000 SWAP1 DIV PUSH1 0xFF AND PUSH2 0x3984 JUMPI PUSH1 0x40 MLOAD PUSH3 0x461BCD PUSH1 0xE5 SHL DUP2 MSTORE PUSH1 0x20 PUSH1 0x4 DUP3 ADD MSTORE PUSH1 0x19 PUSH1 0x24 DUP3 ADD MSTORE PUSH32 0x436F6E7472616374204E6F7420496E697469616C697A696E6700000000000000 PUSH1 0x44 DUP3 ADD MSTORE PUSH1 0x64 ADD PUSH2 0x923 JUMP JUMPDEST PUSH1 0x0 PUSH2 0x3991 DUP6 DUP8 DUP4 PUSH2 0x47A1 JUMP JUMPDEST POP PUSH1 0x1 PUSH2 0x399F DUP4 DUP6 DUP4 PUSH2 0x47A1 JUMP JUMPDEST POP PUSH1 0x1 PUSH1 0x1 PUSH1 0xA0 SHL SUB DUP2 AND ADDRESS EQ PUSH2 0x3A5E JUMPI PUSH1 0x40 MLOAD PUSH4 0x1FFC9A7 PUSH1 0xE0 SHL DUP2 MSTORE PUSH4 0x7A327937 PUSH1 0xE0 SHL PUSH1 0x4 DUP3 ADD MSTORE PUSH1 0x1 PUSH1 0x1 PUSH1 0xA0 SHL SUB DUP3 AND SWAP1 PUSH4 0x1FFC9A7 SWAP1 PUSH1 0x24 ADD PUSH1 0x20 PUSH1 0x40 MLOAD DUP1 DUP4 SUB DUP2 DUP7 GAS STATICCALL ISZERO DUP1 ISZERO PUSH2 0x39FB JUMPI RETURNDATASIZE PUSH1 0x0 DUP1 RETURNDATACOPY RETURNDATASIZE PUSH1 0x0 REVERT JUMPDEST POP POP POP POP PUSH1 0x40 MLOAD RETURNDATASIZE PUSH1 0x1F NOT PUSH1 0x1F DUP3 ADD AND DUP3 ADD DUP1 PUSH1 0x40 MSTORE POP DUP2 ADD SWAP1 PUSH2 0x3A1F SWAP2 SWAP1 PUSH2 0x460E JUMP JUMPDEST PUSH2 0x3A59 JUMPI PUSH1 0x40 MLOAD PUSH3 0x461BCD PUSH1 0xE5 SHL DUP2 MSTORE PUSH1 0x20 PUSH1 0x4 DUP3 ADD MSTORE PUSH1 0xB PUSH1 0x24 DUP3 ADD MSTORE PUSH11 0x125B1B1959D85B081050D3 PUSH1 0xAA SHL PUSH1 0x44 DUP3 ADD MSTORE PUSH1 0x64 ADD PUSH2 0x923 JUMP JUMPDEST PUSH2 0x3AAA JUMP JUMPDEST PUSH2 0x3A6E PUSH4 0x7A327937 PUSH1 0xE0 SHL PUSH2 0x8B0 JUMP JUMPDEST PUSH2 0x3AAA JUMPI PUSH1 0x40 MLOAD PUSH3 0x461BCD PUSH1 0xE5 SHL DUP2 MSTORE PUSH1 0x20 PUSH1 0x4 DUP3 ADD MSTORE PUSH1 0xD PUSH1 0x24 DUP3 ADD MSTORE PUSH13 0x139BDD0814DD5C1C1BDC9D1959 PUSH1 0x9A SHL PUSH1 0x44 DUP3 ADD MSTORE PUSH1 0x64 ADD PUSH2 0x923 JUMP JUMPDEST PUSH1 0x2 DUP1 SLOAD PUSH1 0x1 PUSH1 0x1 PUSH1 0xA0 SHL SUB DUP4 AND PUSH1 0x1 PUSH2 0xFF01 PUSH1 0xA0 SHL SUB NOT SWAP1 SWAP2 AND OR PUSH1 0x1 PUSH1 0xA8 SHL OR PUSH1 0xFF PUSH1 0xA0 SHL NOT AND PUSH1 0x1 PUSH1 0xA0 SHL OR SWAP1 SSTORE PUSH2 0x2396 CALLER PUSH2 0x38B5 JUMP JUMPDEST PUSH1 0x60 PUSH1 0x1 PUSH1 0x1 PUSH1 0xA0 SHL SUB DUP5 AND EXTCODESIZE PUSH2 0x3B3D JUMPI PUSH1 0x40 MLOAD PUSH3 0x461BCD PUSH1 0xE5 SHL DUP2 MSTORE PUSH1 0x20 PUSH1 0x4 DUP3 ADD MSTORE PUSH1 0x18 PUSH1 0x24 DUP3 ADD MSTORE PUSH32 0x496C6C6567616C20436F6E747261637420416464726573730000000000000000 PUSH1 0x44 DUP3 ADD MSTORE PUSH1 0x64 ADD PUSH2 0x923 JUMP JUMPDEST PUSH1 0x0 DUP1 DUP6 PUSH1 0x1 PUSH1 0x1 PUSH1 0xA0 SHL SUB AND DUP6 PUSH1 0x40 MLOAD PUSH2 0x3B58 SWAP2 SWAP1 PUSH2 0x4861 JUMP JUMPDEST PUSH1 0x0 PUSH1 0x40 MLOAD DUP1 DUP4 SUB DUP2 DUP6 GAS DELEGATECALL SWAP2 POP POP RETURNDATASIZE DUP1 PUSH1 0x0 DUP2 EQ PUSH2 0x3B93 JUMPI PUSH1 0x40 MLOAD SWAP2 POP PUSH1 0x1F NOT PUSH1 0x3F RETURNDATASIZE ADD AND DUP3 ADD PUSH1 0x40 MSTORE RETURNDATASIZE DUP3 MSTORE RETURNDATASIZE PUSH1 0x0 PUSH1 0x20 DUP5 ADD RETURNDATACOPY PUSH2 0x3B98 JUMP JUMPDEST PUSH1 0x60 SWAP2 POP JUMPDEST POP SWAP2 POP SWAP2 POP PUSH2 0xEA4 DUP3 DUP3 DUP7 PUSH2 0x3E4E JUMP JUMPDEST PUSH2 0x365D DUP2 PUSH1 0x40 MLOAD PUSH1 0x24 ADD PUSH2 0x3BBC SWAP2 SWAP1 PUSH2 0x43EC JUMP JUMPDEST PUSH1 0x40 DUP1 MLOAD PUSH1 0x1F NOT DUP2 DUP5 SUB ADD DUP2 MSTORE SWAP2 SWAP1 MSTORE PUSH1 0x20 DUP2 ADD DUP1 MLOAD PUSH1 0x1 PUSH1 0x1 PUSH1 0xE0 SHL SUB AND PUSH4 0x104C13EB PUSH1 0xE2 SHL OR SWAP1 MSTORE PUSH2 0x3E87 JUMP JUMPDEST PUSH2 0x365D DUP2 PUSH1 0x40 MLOAD PUSH1 0x24 ADD PUSH2 0x3C01 SWAP2 DUP2 MSTORE PUSH1 0x20 ADD SWAP1 JUMP JUMPDEST PUSH1 0x40 DUP1 MLOAD PUSH1 0x1F NOT DUP2 DUP5 SUB ADD DUP2 MSTORE SWAP2 SWAP1 MSTORE PUSH1 0x20 DUP2 ADD DUP1 MLOAD PUSH1 0x1 PUSH1 0x1 PUSH1 0xE0 SHL SUB AND PUSH4 0x27B7CF85 PUSH1 0xE0 SHL OR SWAP1 MSTORE PUSH2 0x3E87 JUMP JUMPDEST PUSH1 0x40 MLOAD PUSH1 0x1 PUSH1 0x1 PUSH1 0xF8 SHL SUB NOT DUP3 AND PUSH1 0x24 DUP3 ADD MSTORE PUSH2 0x365D SWAP1 PUSH1 0x44 ADD PUSH1 0x40 DUP1 MLOAD PUSH1 0x1F NOT DUP2 DUP5 SUB ADD DUP2 MSTORE SWAP2 SWAP1 MSTORE PUSH1 0x20 DUP2 ADD DUP1 MLOAD PUSH1 0x1 PUSH1 0x1 PUSH1 0xE0 SHL SUB AND PUSH4 0xDC31425 PUSH1 0xE3 SHL OR SWAP1 MSTORE PUSH2 0x3E87 JUMP JUMPDEST PUSH2 0x3CBE DUP3 DUP3 PUSH1 0x40 MLOAD PUSH1 0x24 ADD PUSH2 0x3C8F SWAP3 SWAP2 SWAP1 PUSH2 0x487D JUMP JUMPDEST PUSH1 0x40 DUP1 MLOAD PUSH1 0x1F NOT DUP2 DUP5 SUB ADD DUP2 MSTORE SWAP2 SWAP1 MSTORE PUSH1 0x20 DUP2 ADD DUP1 MLOAD PUSH1 0x1 PUSH1 0x1 PUSH1 0xE0 SHL SUB AND PUSH4 0x319AF333 PUSH1 0xE0 SHL OR SWAP1 MSTORE PUSH2 0x3E87 JUMP JUMPDEST POP POP JUMP JUMPDEST PUSH1 0x0 DUP2 DUP2 MSTORE PUSH1 0x20 DUP4 SWAP1 MSTORE PUSH1 0x40 DUP2 KECCAK256 DUP2 SWAP1 PUSH1 0x2 JUMPDEST PUSH1 0x1 DUP3 ADD SLOAD PUSH1 0xFF AND PUSH1 0x3 DUP2 GT ISZERO PUSH2 0x3CEE JUMPI PUSH2 0x3CEE PUSH2 0x4175 JUMP JUMPDEST SUB PUSH2 0x2628 JUMPI PUSH1 0x40 DUP1 MLOAD DUP6 DUP2 MSTORE PUSH1 0x20 DUP2 ADD DUP8 SWAP1 MSTORE KECCAK256 SWAP3 POP PUSH1 0x1 SWAP2 POP PUSH2 0x2632 JUMP JUMPDEST PUSH1 0x0 DUP2 DUP2 MSTORE PUSH1 0x20 DUP4 SWAP1 MSTORE PUSH1 0x40 DUP2 KECCAK256 DUP2 SWAP1 PUSH1 0x3 PUSH2 0x3CD5 JUMP JUMPDEST PUSH1 0x0 DUP2 DUP2 MSTORE PUSH1 0x1 DUP4 ADD PUSH1 0x20 MSTORE PUSH1 0x40 DUP2 KECCAK256 DUP2 SWAP1 PUSH1 0x2 PUSH2 0x25ED JUMP JUMPDEST PUSH1 0x0 DUP2 DUP2 MSTORE PUSH1 0x1 DUP4 ADD PUSH1 0x20 MSTORE PUSH1 0x40 DUP2 KECCAK256 DUP2 SWAP1 PUSH1 0x3 PUSH2 0x25ED JUMP JUMPDEST PUSH1 0x0 DUP2 DUP2 MSTORE PUSH1 0x1 DUP4 ADD PUSH1 0x20 MSTORE PUSH1 0x40 DUP2 KECCAK256 DUP2 SWAP1 PUSH1 0x4 PUSH2 0x25ED JUMP JUMPDEST PUSH1 0x1 PUSH1 0x1 PUSH1 0xA0 SHL SUB DUP2 AND EXTCODESIZE PUSH2 0x3DB5 JUMPI PUSH1 0x40 MLOAD PUSH3 0x461BCD PUSH1 0xE5 SHL DUP2 MSTORE PUSH1 0x20 PUSH1 0x4 DUP3 ADD MSTORE PUSH1 0xC PUSH1 0x24 DUP3 ADD MSTORE PUSH12 0x125B1B1959D85B08125B5C1B PUSH1 0xA2 SHL PUSH1 0x44 DUP3 ADD MSTORE PUSH1 0x64 ADD PUSH2 0x923 JUMP JUMPDEST PUSH1 0x0 DUP1 MLOAD PUSH1 0x20 PUSH2 0x48A8 DUP4 CODECOPY DUP2 MLOAD SWAP2 MSTORE DUP1 SLOAD PUSH1 0x1 PUSH1 0x1 PUSH1 0xA0 SHL SUB NOT AND PUSH1 0x1 PUSH1 0x1 PUSH1 0xA0 SHL SUB SWAP3 SWAP1 SWAP3 AND SWAP2 SWAP1 SWAP2 OR SWAP1 SSTORE JUMP JUMPDEST PUSH1 0x60 PUSH2 0x3DEF DUP5 PUSH2 0x3EA8 JUMP JUMPDEST PUSH1 0x0 DUP4 MLOAD GT DUP1 PUSH2 0x3DFC JUMPI POP DUP2 JUMPDEST ISZERO PUSH2 0x3E37 JUMPI PUSH2 0x3810 DUP5 DUP5 PUSH1 0x40 MLOAD DUP1 PUSH1 0x40 ADD PUSH1 0x40 MSTORE DUP1 PUSH1 0x13 DUP2 MSTORE PUSH1 0x20 ADD PUSH19 0x11195B1959D85D1958D85B1B0811985A5B1959 PUSH1 0x6A SHL DUP2 MSTORE POP PUSH2 0x3AE4 JUMP JUMPDEST POP POP PUSH1 0x40 DUP1 MLOAD PUSH1 0x0 DUP2 MSTORE PUSH1 0x20 DUP2 ADD SWAP1 SWAP2 MSTORE SWAP3 SWAP2 POP POP JUMP JUMPDEST PUSH1 0x60 DUP4 ISZERO PUSH2 0x3E5D JUMPI POP DUP2 PUSH2 0xEA9 JUMP JUMPDEST DUP3 MLOAD ISZERO PUSH2 0x3E6D JUMPI DUP3 MLOAD DUP1 DUP5 PUSH1 0x20 ADD REVERT JUMPDEST DUP2 PUSH1 0x40 MLOAD PUSH3 0x461BCD PUSH1 0xE5 SHL DUP2 MSTORE PUSH1 0x4 ADD PUSH2 0x923 SWAP2 SWAP1 PUSH2 0x43EC JUMP JUMPDEST DUP1 MLOAD PUSH11 0x636F6E736F6C652E6C6F67 PUSH1 0x20 DUP4 ADD PUSH1 0x0 DUP1 DUP5 DUP4 DUP6 GAS STATICCALL POP POP POP POP POP JUMP JUMPDEST PUSH2 0x3EB1 DUP2 PUSH2 0x3D6F JUMP JUMPDEST PUSH1 0x40 MLOAD PUSH1 0x1 PUSH1 0x1 PUSH1 0xA0 SHL SUB DUP3 AND SWAP1 ADDRESS SWAP1 CALLER SWAP1 PUSH32 0x8EE0F2BD29C0E6A975C3CC2E47CF2E01B5F23A9A8A02E0ED6A5A070269DE3D2D SWAP1 PUSH1 0x0 SWAP1 LOG4 POP JUMP JUMPDEST PUSH1 0x40 DUP1 MLOAD PUSH1 0xE0 DUP2 ADD SWAP1 SWAP2 MSTORE PUSH1 0x0 DUP1 DUP3 MSTORE PUSH1 0x20 DUP3 ADD SWAP1 JUMPDEST DUP2 MSTORE PUSH1 0x20 ADD PUSH1 0x0 DUP2 MSTORE PUSH1 0x20 ADD PUSH1 0x0 DUP2 MSTORE PUSH1 0x0 PUSH1 0x20 DUP3 ADD DUP2 SWAP1 MSTORE PUSH1 0x40 DUP3 ADD DUP2 SWAP1 MSTORE PUSH1 0x60 SWAP1 SWAP2 ADD MSTORE SWAP1 JUMP JUMPDEST PUSH1 0x40 DUP1 MLOAD PUSH1 0xE0 DUP2 ADD SWAP1 SWAP2 MSTORE PUSH1 0x0 DUP1 DUP3 MSTORE PUSH1 0x20 DUP3 ADD SWAP1 PUSH2 0x3F02 JUMP JUMPDEST DUP1 CALLDATALOAD PUSH1 0x1 PUSH1 0x1 PUSH1 0xE0 SHL SUB NOT DUP2 AND DUP2 EQ PUSH2 0xE26 JUMPI PUSH1 0x0 DUP1 REVERT JUMPDEST PUSH1 0x0 PUSH1 0x20 DUP3 DUP5 SUB SLT ISZERO PUSH2 0x3F6F JUMPI PUSH1 0x0 DUP1 REVERT JUMPDEST PUSH2 0xEA9 DUP3 PUSH2 0x3F45 JUMP JUMPDEST PUSH1 0x0 DUP1 DUP4 PUSH1 0x1F DUP5 ADD SLT PUSH2 0x3F8A JUMPI PUSH1 0x0 DUP1 REVERT JUMPDEST POP DUP2 CALLDATALOAD PUSH8 0xFFFFFFFFFFFFFFFF DUP2 GT ISZERO PUSH2 0x3FA2 JUMPI PUSH1 0x0 DUP1 REVERT JUMPDEST PUSH1 0x20 DUP4 ADD SWAP2 POP DUP4 PUSH1 0x20 DUP3 DUP6 ADD ADD GT ISZERO PUSH2 0x3FBA JUMPI PUSH1 0x0 DUP1 REVERT JUMPDEST SWAP3 POP SWAP3 SWAP1 POP JUMP JUMPDEST DUP1 CALLDATALOAD PUSH1 0x1 PUSH1 0x1 PUSH1 0xA0 SHL SUB DUP2 AND DUP2 EQ PUSH2 0xE26 JUMPI PUSH1 0x0 DUP1 REVERT JUMPDEST PUSH1 0x0 DUP1 PUSH1 0x0 DUP1 PUSH1 0x0 PUSH1 0x60 DUP7 DUP9 SUB SLT ISZERO PUSH2 0x3FF0 JUMPI PUSH1 0x0 DUP1 REVERT JUMPDEST DUP6 CALLDATALOAD PUSH8 0xFFFFFFFFFFFFFFFF DUP1 DUP3 GT ISZERO PUSH2 0x4008 JUMPI PUSH1 0x0 DUP1 REVERT JUMPDEST PUSH2 0x4014 DUP10 DUP4 DUP11 ADD PUSH2 0x3F78 JUMP JUMPDEST SWAP1 SWAP8 POP SWAP6 POP PUSH1 0x20 DUP9 ADD CALLDATALOAD SWAP2 POP DUP1 DUP3 GT ISZERO PUSH2 0x402D JUMPI PUSH1 0x0 DUP1 REVERT JUMPDEST POP PUSH2 0x403A DUP9 DUP3 DUP10 ADD PUSH2 0x3F78 JUMP JUMPDEST SWAP1 SWAP5 POP SWAP3 POP PUSH2 0x404D SWAP1 POP PUSH1 0x40 DUP8 ADD PUSH2 0x3FC1 JUMP JUMPDEST SWAP1 POP SWAP3 SWAP6 POP SWAP3 SWAP6 SWAP1 SWAP4 POP JUMP JUMPDEST PUSH1 0x0 PUSH1 0x20 DUP3 DUP5 SUB SLT ISZERO PUSH2 0x406B JUMPI PUSH1 0x0 DUP1 REVERT JUMPDEST PUSH2 0xEA9 DUP3 PUSH2 0x3FC1 JUMP JUMPDEST PUSH1 0x0 DUP1 PUSH1 0x0 DUP1 PUSH1 0x80 DUP6 DUP8 SUB SLT ISZERO PUSH2 0x408A JUMPI PUSH1 0x0 DUP1 REVERT JUMPDEST DUP5 CALLDATALOAD SWAP4 POP PUSH2 0x409A PUSH1 0x20 DUP7 ADD PUSH2 0x3FC1 JUMP JUMPDEST SWAP3 POP PUSH2 0x40A8 PUSH1 0x40 DUP7 ADD PUSH2 0x3F45 JUMP JUMPDEST SWAP4 SWAP7 SWAP3 SWAP6 POP SWAP3 SWAP4 PUSH1 0x60 ADD CALLDATALOAD SWAP3 POP POP JUMP JUMPDEST PUSH1 0x0 DUP1 PUSH1 0x0 PUSH1 0x60 DUP5 DUP7 SUB SLT ISZERO PUSH2 0x40CD JUMPI PUSH1 0x0 DUP1 REVERT JUMPDEST POP POP DUP2 CALLDATALOAD SWAP4 PUSH1 0x20 DUP4 ADD CALLDATALOAD SWAP4 POP PUSH1 0x40 SWAP1 SWAP3 ADD CALLDATALOAD SWAP2 SWAP1 POP JUMP JUMPDEST PUSH1 0x0 DUP1 PUSH1 0x0 PUSH1 0x60 DUP5 DUP7 SUB SLT ISZERO PUSH2 0x40F9 JUMPI PUSH1 0x0 DUP1 REVERT JUMPDEST PUSH2 0x4102 DUP5 PUSH2 0x3FC1 JUMP JUMPDEST SWAP3 POP PUSH2 0x4110 PUSH1 0x20 DUP6 ADD PUSH2 0x3F45 JUMP JUMPDEST SWAP2 POP PUSH1 0x40 DUP5 ADD CALLDATALOAD SWAP1 POP SWAP3 POP SWAP3 POP SWAP3 JUMP JUMPDEST PUSH1 0x0 DUP1 PUSH1 0x0 PUSH1 0x60 DUP5 DUP7 SUB SLT ISZERO PUSH2 0x4135 JUMPI PUSH1 0x0 DUP1 REVERT JUMPDEST DUP4 CALLDATALOAD SWAP3 POP PUSH2 0x4145 PUSH1 0x20 DUP6 ADD PUSH2 0x3FC1 JUMP JUMPDEST SWAP2 POP PUSH2 0x4153 PUSH1 0x40 DUP6 ADD PUSH2 0x3F45 JUMP JUMPDEST SWAP1 POP SWAP3 POP SWAP3 POP SWAP3 JUMP JUMPDEST PUSH1 0x0 PUSH1 0x20 DUP3 DUP5 SUB SLT ISZERO PUSH2 0x416E JUMPI PUSH1 0x0 DUP1 REVERT JUMPDEST POP CALLDATALOAD SWAP2 SWAP1 POP JUMP JUMPDEST PUSH4 0x4E487B71 PUSH1 0xE0 SHL PUSH1 0x0 MSTORE PUSH1 0x21 PUSH1 0x4 MSTORE PUSH1 0x24 PUSH1 0x0 REVERT JUMPDEST PUSH1 0x4 DUP2 LT PUSH2 0x365D JUMPI PUSH2 0x365D PUSH2 0x4175 JUMP JUMPDEST PUSH1 0x5 DUP2 LT PUSH2 0x41AB JUMPI PUSH2 0x41AB PUSH2 0x4175 JUMP JUMPDEST SWAP1 MSTORE JUMP JUMPDEST DUP2 MLOAD DUP2 MSTORE PUSH1 0x20 DUP3 ADD MLOAD PUSH1 0xE0 DUP3 ADD SWAP1 PUSH2 0x41C6 DUP2 PUSH2 0x418B JUMP JUMPDEST DUP1 PUSH1 0x20 DUP5 ADD MSTORE POP PUSH1 0x40 DUP4 ADD MLOAD PUSH2 0x41DF PUSH1 0x40 DUP5 ADD DUP3 PUSH2 0x419B JUMP JUMPDEST POP PUSH1 0x60 DUP4 ADD MLOAD PUSH2 0x41EE DUP2 PUSH2 0x418B JUMP JUMPDEST DUP1 PUSH1 0x60 DUP5 ADD MSTORE POP PUSH1 0x80 DUP4 ADD MLOAD PUSH2 0xFFFF DUP1 DUP3 AND PUSH1 0x80 DUP6 ADD MSTORE DUP1 PUSH1 0xA0 DUP7 ADD MLOAD AND PUSH1 0xA0 DUP6 ADD MSTORE DUP1 PUSH1 0xC0 DUP7 ADD MLOAD AND PUSH1 0xC0 DUP6 ADD MSTORE POP POP SWAP3 SWAP2 POP POP JUMP JUMPDEST PUSH1 0x3 DUP2 LT PUSH2 0x365D JUMPI PUSH1 0x0 DUP1 REVERT JUMPDEST PUSH1 0x0 PUSH1 0x20 DUP3 DUP5 SUB SLT ISZERO PUSH2 0x4244 JUMPI PUSH1 0x0 DUP1 REVERT JUMPDEST DUP2 CALLDATALOAD PUSH2 0xEA9 DUP2 PUSH2 0x4225 JUMP JUMPDEST PUSH1 0x0 DUP1 PUSH1 0x40 DUP4 DUP6 SUB SLT ISZERO PUSH2 0x4262 JUMPI PUSH1 0x0 DUP1 REVERT JUMPDEST POP POP DUP1 CALLDATALOAD SWAP3 PUSH1 0x20 SWAP1 SWAP2 ADD CALLDATALOAD SWAP2 POP JUMP JUMPDEST PUSH1 0x0 DUP1 PUSH1 0x40 DUP4 DUP6 SUB SLT ISZERO PUSH2 0x4284 JUMPI PUSH1 0x0 DUP1 REVERT JUMPDEST PUSH2 0x428D DUP4 PUSH2 0x3FC1 JUMP JUMPDEST SWAP2 POP PUSH2 0x429B PUSH1 0x20 DUP5 ADD PUSH2 0x3F45 JUMP JUMPDEST SWAP1 POP SWAP3 POP SWAP3 SWAP1 POP JUMP JUMPDEST PUSH4 0x4E487B71 PUSH1 0xE0 SHL PUSH1 0x0 MSTORE PUSH1 0x41 PUSH1 0x4 MSTORE PUSH1 0x24 PUSH1 0x0 REVERT JUMPDEST DUP1 ISZERO ISZERO DUP2 EQ PUSH2 0x365D JUMPI PUSH1 0x0 DUP1 REVERT JUMPDEST DUP1 CALLDATALOAD PUSH2 0xE26 DUP2 PUSH2 0x42BA JUMP JUMPDEST PUSH1 0x0 DUP1 PUSH1 0x0 PUSH1 0x60 DUP5 DUP7 SUB SLT ISZERO PUSH2 0x42E8 JUMPI PUSH1 0x0 DUP1 REVERT JUMPDEST PUSH2 0x42F1 DUP5 PUSH2 0x3FC1 JUMP JUMPDEST SWAP3 POP PUSH1 0x20 DUP5 ADD CALLDATALOAD PUSH8 0xFFFFFFFFFFFFFFFF DUP1 DUP3 GT ISZERO PUSH2 0x430E JUMPI PUSH1 0x0 DUP1 REVERT JUMPDEST DUP2 DUP7 ADD SWAP2 POP DUP7 PUSH1 0x1F DUP4 ADD SLT PUSH2 0x4322 JUMPI PUSH1 0x0 DUP1 REVERT JUMPDEST DUP2 CALLDATALOAD DUP2 DUP2 GT ISZERO PUSH2 0x4334 JUMPI PUSH2 0x4334 PUSH2 0x42A4 JUMP JUMPDEST PUSH1 0x40 MLOAD PUSH1 0x1F DUP3 ADD PUSH1 0x1F NOT SWAP1 DUP2 AND PUSH1 0x3F ADD AND DUP2 ADD SWAP1 DUP4 DUP3 GT DUP2 DUP4 LT OR ISZERO PUSH2 0x435C JUMPI PUSH2 0x435C PUSH2 0x42A4 JUMP JUMPDEST DUP2 PUSH1 0x40 MSTORE DUP3 DUP2 MSTORE DUP10 PUSH1 0x20 DUP5 DUP8 ADD ADD GT ISZERO PUSH2 0x4375 JUMPI PUSH1 0x0 DUP1 REVERT JUMPDEST DUP3 PUSH1 0x20 DUP7 ADD PUSH1 0x20 DUP4 ADD CALLDATACOPY PUSH1 0x0 PUSH1 0x20 DUP5 DUP4 ADD ADD MSTORE DUP1 SWAP7 POP POP POP POP POP POP PUSH2 0x4153 PUSH1 0x40 DUP6 ADD PUSH2 0x42C8 JUMP JUMPDEST PUSH1 0x0 JUMPDEST DUP4 DUP2 LT ISZERO PUSH2 0x43B7 JUMPI DUP2 DUP2 ADD MLOAD DUP4 DUP3 ADD MSTORE PUSH1 0x20 ADD PUSH2 0x439F JUMP JUMPDEST POP POP PUSH1 0x0 SWAP2 ADD MSTORE JUMP JUMPDEST PUSH1 0x0 DUP2 MLOAD DUP1 DUP5 MSTORE PUSH2 0x43D8 DUP2 PUSH1 0x20 DUP7 ADD PUSH1 0x20 DUP7 ADD PUSH2 0x439C JUMP JUMPDEST PUSH1 0x1F ADD PUSH1 0x1F NOT AND SWAP3 SWAP1 SWAP3 ADD PUSH1 0x20 ADD SWAP3 SWAP2 POP POP JUMP JUMPDEST PUSH1 0x20 DUP2 MSTORE PUSH1 0x0 PUSH2 0xEA9 PUSH1 0x20 DUP4 ADD DUP5 PUSH2 0x43C0 JUMP JUMPDEST DUP2 MLOAD DUP2 MSTORE PUSH1 0x20 DUP3 ADD MLOAD PUSH1 0xE0 DUP3 ADD SWAP1 PUSH1 0x6 DUP2 LT PUSH2 0x41C6 JUMPI PUSH2 0x41C6 PUSH2 0x4175 JUMP JUMPDEST PUSH1 0x3 DUP2 LT PUSH2 0x365D JUMPI PUSH2 0x365D PUSH2 0x4175 JUMP JUMPDEST PUSH2 0x41AB DUP2 PUSH2 0x441D JUMP JUMPDEST PUSH1 0x20 DUP2 ADD PUSH2 0x4443 DUP4 PUSH2 0x441D JUMP JUMPDEST SWAP2 SWAP1 MSTORE SWAP1 JUMP JUMPDEST PUSH1 0x20 DUP2 MSTORE DUP2 MLOAD PUSH1 0x20 DUP3 ADD MSTORE PUSH1 0x0 PUSH1 0x20 DUP4 ADD MLOAD PUSH2 0x120 DUP1 PUSH1 0x40 DUP6 ADD MSTORE PUSH2 0x4472 PUSH2 0x140 DUP6 ADD DUP4 PUSH2 0x43C0 JUMP JUMPDEST SWAP2 POP PUSH1 0x40 DUP6 ADD MLOAD PUSH1 0x1F NOT DUP6 DUP5 SUB ADD PUSH1 0x60 DUP7 ADD MSTORE PUSH2 0x448F DUP4 DUP3 PUSH2 0x43C0 JUMP JUMPDEST SWAP3 POP POP PUSH1 0x60 DUP6 ADD MLOAD PUSH2 0x44AC PUSH1 0x80 DUP7 ADD DUP3 PUSH1 0x1 PUSH1 0x1 PUSH1 0xA0 SHL SUB AND SWAP1 MSTORE JUMP JUMPDEST POP PUSH1 0x80 DUP6 ADD MLOAD PUSH1 0x1 PUSH1 0x1 PUSH1 0xA0 SHL SUB DUP2 AND PUSH1 0xA0 DUP7 ADD MSTORE POP PUSH1 0xA0 DUP6 ADD MLOAD PUSH1 0x1 PUSH1 0x1 PUSH1 0xA0 SHL SUB DUP2 AND PUSH1 0xC0 DUP7 ADD MSTORE POP PUSH1 0xC0 DUP6 ADD MLOAD PUSH2 0xFFFF DUP2 AND PUSH1 0xE0 DUP7 ADD MSTORE POP PUSH1 0xE0 DUP6 ADD MLOAD PUSH2 0x100 PUSH2 0x44FB DUP2 DUP8 ADD DUP4 PUSH2 0x442D JUMP JUMPDEST DUP7 ADD MLOAD SWAP1 POP PUSH2 0x450C DUP6 DUP4 ADD DUP3 PUSH2 0x442D JUMP JUMPDEST POP SWAP1 SWAP5 SWAP4 POP POP POP POP JUMP JUMPDEST PUSH1 0x20 DUP1 DUP3 MSTORE PUSH1 0xC SWAP1 DUP3 ADD MSTORE PUSH12 0x125B1B1959D85B0810D85B1B PUSH1 0xA2 SHL PUSH1 0x40 DUP3 ADD MSTORE PUSH1 0x60 ADD SWAP1 JUMP JUMPDEST PUSH1 0x20 DUP1 DUP3 MSTORE PUSH1 0xC SWAP1 DUP3 ADD MSTORE PUSH12 0x125B9D985B1A590810D85B1B PUSH1 0xA2 SHL PUSH1 0x40 DUP3 ADD MSTORE PUSH1 0x60 ADD SWAP1 JUMP JUMPDEST DUP2 DUP4 MSTORE DUP2 DUP2 PUSH1 0x20 DUP6 ADD CALLDATACOPY POP PUSH1 0x0 DUP3 DUP3 ADD PUSH1 0x20 SWAP1 DUP2 ADD SWAP2 SWAP1 SWAP2 MSTORE PUSH1 0x1F SWAP1 SWAP2 ADD PUSH1 0x1F NOT AND SWAP1 SWAP2 ADD ADD SWAP1 JUMP JUMPDEST PUSH1 0x60 DUP2 MSTORE PUSH1 0x0 PUSH2 0x459F PUSH1 0x60 DUP4 ADD DUP8 DUP10 PUSH2 0x4562 JUMP JUMPDEST DUP3 DUP2 SUB PUSH1 0x20 DUP5 ADD MSTORE PUSH2 0x45B2 DUP2 DUP7 DUP9 PUSH2 0x4562 JUMP JUMPDEST SWAP2 POP POP PUSH2 0xFFFF DUP4 AND PUSH1 0x40 DUP4 ADD MSTORE SWAP7 SWAP6 POP POP POP POP POP POP JUMP JUMPDEST PUSH1 0x20 DUP1 DUP3 MSTORE PUSH1 0x8 SWAP1 DUP3 ADD MSTORE PUSH8 0x14995A9958DD1959 PUSH1 0xC2 SHL PUSH1 0x40 DUP3 ADD MSTORE PUSH1 0x60 ADD SWAP1 JUMP JUMPDEST PUSH1 0x20 DUP1 DUP3 MSTORE PUSH1 0x9 SWAP1 DUP3 ADD MSTORE PUSH9 0x2337B93134B23232B7 PUSH1 0xB9 SHL PUSH1 0x40 DUP3 ADD MSTORE PUSH1 0x60 ADD SWAP1 JUMP JUMPDEST PUSH1 0x0 PUSH1 0x20 DUP3 DUP5 SUB SLT ISZERO PUSH2 0x4620 JUMPI PUSH1 0x0 DUP1 REVERT JUMPDEST DUP2 MLOAD PUSH2 0xEA9 DUP2 PUSH2 0x42BA JUMP JUMPDEST PUSH1 0x1 DUP2 DUP2 SHR SWAP1 DUP3 AND DUP1 PUSH2 0x463F JUMPI PUSH1 0x7F DUP3 AND SWAP2 POP JUMPDEST PUSH1 0x20 DUP3 LT DUP2 SUB PUSH2 0x465F JUMPI PUSH4 0x4E487B71 PUSH1 0xE0 SHL PUSH1 0x0 MSTORE PUSH1 0x22 PUSH1 0x4 MSTORE PUSH1 0x24 PUSH1 0x0 REVERT JUMPDEST POP SWAP2 SWAP1 POP JUMP JUMPDEST DUP2 DUP2 SUB DUP2 DUP2 GT ISZERO PUSH2 0x8D5 JUMPI PUSH4 0x4E487B71 PUSH1 0xE0 SHL PUSH1 0x0 MSTORE PUSH1 0x11 PUSH1 0x4 MSTORE PUSH1 0x24 PUSH1 0x0 REVERT JUMPDEST PUSH4 0x4E487B71 PUSH1 0xE0 SHL PUSH1 0x0 MSTORE PUSH1 0x32 PUSH1 0x4 MSTORE PUSH1 0x24 PUSH1 0x0 REVERT JUMPDEST PUSH1 0x1 PUSH1 0x1 PUSH1 0xA0 SHL SUB SWAP4 SWAP1 SWAP4 AND DUP4 MSTORE PUSH1 0x1 PUSH1 0x1 PUSH1 0xE0 SHL SUB NOT SWAP2 SWAP1 SWAP2 AND PUSH1 0x20 DUP4 ADD MSTORE PUSH1 0x40 DUP3 ADD MSTORE PUSH1 0x60 ADD SWAP1 JUMP JUMPDEST PUSH1 0x0 PUSH1 0x20 DUP3 DUP5 SUB SLT ISZERO PUSH2 0x46D9 JUMPI PUSH1 0x0 DUP1 REVERT JUMPDEST POP MLOAD SWAP2 SWAP1 POP JUMP JUMPDEST PUSH1 0x0 DUP1 DUP4 SLOAD PUSH2 0x46EE DUP2 PUSH2 0x462B JUMP JUMPDEST PUSH1 0x1 DUP3 DUP2 AND DUP1 ISZERO PUSH2 0x4706 JUMPI PUSH1 0x1 DUP2 EQ PUSH2 0x471B JUMPI PUSH2 0x474A JUMP JUMPDEST PUSH1 0xFF NOT DUP5 AND DUP8 MSTORE DUP3 ISZERO ISZERO DUP4 MUL DUP8 ADD SWAP5 POP PUSH2 0x474A JUMP JUMPDEST DUP8 PUSH1 0x0 MSTORE PUSH1 0x20 DUP1 PUSH1 0x0 KECCAK256 PUSH1 0x0 JUMPDEST DUP6 DUP2 LT ISZERO PUSH2 0x4741 JUMPI DUP2 SLOAD DUP11 DUP3 ADD MSTORE SWAP1 DUP5 ADD SWAP1 DUP3 ADD PUSH2 0x4728 JUMP JUMPDEST POP POP POP DUP3 DUP8 ADD SWAP5 POP JUMPDEST POP SWAP3 SWAP7 SWAP6 POP POP POP POP POP POP JUMP JUMPDEST PUSH1 0x1F DUP3 GT ISZERO PUSH2 0x479C JUMPI PUSH1 0x0 DUP2 DUP2 MSTORE PUSH1 0x20 DUP2 KECCAK256 PUSH1 0x1F DUP6 ADD PUSH1 0x5 SHR DUP2 ADD PUSH1 0x20 DUP7 LT ISZERO PUSH2 0x477D JUMPI POP DUP1 JUMPDEST PUSH1 0x1F DUP6 ADD PUSH1 0x5 SHR DUP3 ADD SWAP2 POP JUMPDEST DUP2 DUP2 LT ISZERO PUSH2 0xB0A JUMPI DUP3 DUP2 SSTORE PUSH1 0x1 ADD PUSH2 0x4789 JUMP JUMPDEST POP POP POP JUMP JUMPDEST PUSH8 0xFFFFFFFFFFFFFFFF DUP4 GT ISZERO PUSH2 0x47B9 JUMPI PUSH2 0x47B9 PUSH2 0x42A4 JUMP JUMPDEST PUSH2 0x47CD DUP4 PUSH2 0x47C7 DUP4 SLOAD PUSH2 0x462B JUMP JUMPDEST DUP4 PUSH2 0x4756 JUMP JUMPDEST PUSH1 0x0 PUSH1 0x1F DUP5 GT PUSH1 0x1 DUP2 EQ PUSH2 0x4801 JUMPI PUSH1 0x0 DUP6 ISZERO PUSH2 0x47E9 JUMPI POP DUP4 DUP3 ADD CALLDATALOAD JUMPDEST PUSH1 0x0 NOT PUSH1 0x3 DUP8 SWAP1 SHL SHR NOT AND PUSH1 0x1 DUP7 SWAP1 SHL OR DUP4 SSTORE PUSH2 0x2396 JUMP JUMPDEST PUSH1 0x0 DUP4 DUP2 MSTORE PUSH1 0x20 SWAP1 KECCAK256 PUSH1 0x1F NOT DUP7 AND SWAP1 DUP4 JUMPDEST DUP3 DUP2 LT ISZERO PUSH2 0x4832 JUMPI DUP7 DUP6 ADD CALLDATALOAD DUP3 SSTORE PUSH1 0x20 SWAP5 DUP6 ADD SWAP5 PUSH1 0x1 SWAP1 SWAP3 ADD SWAP2 ADD PUSH2 0x4812 JUMP JUMPDEST POP DUP7 DUP3 LT ISZERO PUSH2 0x484F JUMPI PUSH1 0x0 NOT PUSH1 0xF8 DUP9 PUSH1 0x3 SHL AND SHR NOT DUP5 DUP8 ADD CALLDATALOAD AND DUP2 SSTORE JUMPDEST POP POP PUSH1 0x1 DUP6 PUSH1 0x1 SHL ADD DUP4 SSTORE POP POP POP POP POP JUMP JUMPDEST PUSH1 0x0 DUP3 MLOAD PUSH2 0x4873 DUP2 DUP5 PUSH1 0x20 DUP8 ADD PUSH2 0x439C JUMP JUMPDEST SWAP2 SWAP1 SWAP2 ADD SWAP3 SWAP2 POP POP JUMP JUMPDEST PUSH1 0x40 DUP2 MSTORE PUSH1 0x0 PUSH2 0x4890 PUSH1 0x40 DUP4 ADD DUP6 PUSH2 0x43C0 JUMP JUMPDEST SWAP1 POP PUSH1 0x1 DUP1 PUSH1 0xA0 SHL SUB DUP4 AND PUSH1 0x20 DUP4 ADD MSTORE SWAP4 SWAP3 POP POP POP JUMP INVALID CALLDATASIZE ADDMOD SWAP5 LOG1 EXTCODESIZE LOG1 LOG3 0x21 MOD PUSH8 0xC828492DB98DCA3E KECCAK256 PUSH23 0xCC3735A920A3CA505D382BBCA264697066735822122053 COINBASE DELEGATECALL MSTORE 0xB6 0xE0 0xCD PUSH32 0xC220CA720ECCCE5F5DE6131ADC0386123EEC500A0040131E64736F6C63430008 GT STOP CALLER 0xB5 BALANCE 0x27 PUSH9 0x4A568B3173AE13B9F8 0xA6 ADD PUSH15 0x243E63B6E8EE1178D6A717850B5D61 SUB "
    },
    "gasEstimates": {
      "creation": {
        "codeDepositCost": "3737000",
        "executionCost": "infinite",
        "totalCost": "infinite"
      },
      "external": {
        "": "252",
        "CTX_MESSAGE_TYPEHASH()": "285",
        "FUNCTION_MESSAGE_TYPEHASH()": "306",
        "PREDICT_CTX_MESSAGE_TYPEHASH()": "284",
        "TYPE_HASH()": "284",
        "accessControlManager()": "2376",
        "contractName()": "infinite",
        "contractVersion()": "infinite",
        "domainSeparator()": "infinite",
        "getAgentBaseInfo(bytes32)": "infinite",
        "getAgentMasterAdminRole()": "447",
        "getAgentMasterType()": "404",
        "getAnonymousType()": "458",
        "getAnyType()": "443",
        "getGlobalScope()": "502",
        "getLivelyMasterAdminRole()": "491",
        "getLivelyMasterType()": "436",
        "getPolicyMasterAdminRole()": "491",
        "getPolicyMasterType()": "459",
        "getScopeBaseInfo(bytes32)": "12118",
        "getScopeMasterAdminRole()": "535",
        "getScopeMasterType()": "414",
        "getSystemMasterAdminRole()": "535",
        "getSystemMasterType()": "480",
        "hasAccess(bytes32)": "infinite",
        "hasAccessToAgent(bytes32,bytes32)": "infinite",
        "hasCSAccess(address,bytes4)": "infinite",
        "hasCSAccessToAgent(bytes32,address,bytes4)": "infinite",
        "hasCSMAccess(address,bytes4,bytes32)": "infinite",
        "hasCSMAccessToAgent(bytes32,address,bytes4,bytes32)": "infinite",
        "hasMemberAccess(bytes32,bytes32)": "infinite",
        "hasMemberAccessToAgent(bytes32,bytes32,bytes32)": "infinite",
        "initVersion()": "2479",
        "initialize(string,string,address)": "infinite",
        "isAgentExist(bytes32)": "2658",
        "isScopeExist(bytes32)": "2614",
        "isScopesCompatible(bytes32,bytes32)": "infinite",
        "localAdmin()": "2511",
        "proxiableUUID()": "infinite",
        "proxyInfo()": "infinite",
        "safeModeStatus()": "2536",
        "setAccessControlManager(address)": "infinite",
        "setLocalAdmin(address)": "infinite",
        "setSafeModeStatus(uint8)": "infinite",
        "setUpgradabilityStatus(uint8)": "infinite",
        "subjectAddress()": "infinite",
        "supportsInterface(bytes4)": "infinite",
        "upgradabilityStatus()": "2523",
        "upgradeTo(address,bytes,bool)": "infinite",
        "withdrawBalance(address)": "infinite"
      },
      "internal": {
        "_doHasAccess(bytes32,bytes32,struct IACLCommons.FunctionEntity storage pointer)": "infinite"
      }
    },
    "methodIdentifiers": {
      "CTX_MESSAGE_TYPEHASH()": "34109de2",
      "FUNCTION_MESSAGE_TYPEHASH()": "f33b6d48",
      "PREDICT_CTX_MESSAGE_TYPEHASH()": "f0b15def",
      "TYPE_HASH()": "64d4c819",
      "accessControlManager()": "b4a0bdf3",
      "contractName()": "75d0c0dc",
      "contractVersion()": "a0a8e460",
      "domainSeparator()": "f698da25",
      "getAgentBaseInfo(bytes32)": "32a8984b",
      "getAgentMasterAdminRole()": "b544eaa7",
      "getAgentMasterType()": "3c192e4a",
      "getAnonymousType()": "d4968aa2",
      "getAnyType()": "501923e5",
      "getGlobalScope()": "d5806930",
      "getLivelyMasterAdminRole()": "6a24a04a",
      "getLivelyMasterType()": "caa05236",
      "getPolicyMasterAdminRole()": "e0db256d",
      "getPolicyMasterType()": "521f6e6a",
      "getScopeBaseInfo(bytes32)": "9d45c207",
      "getScopeMasterAdminRole()": "71f84fbd",
      "getScopeMasterType()": "eea812d2",
      "getSystemMasterAdminRole()": "eacda25b",
      "getSystemMasterType()": "e4db8d4b",
      "hasAccess(bytes32)": "db83423d",
      "hasAccessToAgent(bytes32,bytes32)": "d586ed2e",
      "hasCSAccess(address,bytes4)": "568f690c",
      "hasCSAccessToAgent(bytes32,address,bytes4)": "30e91d1e",
      "hasCSMAccess(address,bytes4,bytes32)": "2f12f572",
      "hasCSMAccessToAgent(bytes32,address,bytes4,bytes32)": "14974ed5",
      "hasMemberAccess(bytes32,bytes32)": "92055232",
      "hasMemberAccessToAgent(bytes32,bytes32,bytes32)": "195cd122",
      "initVersion()": "38d38c97",
      "initialize(string,string,address)": "077f224a",
      "isAgentExist(bytes32)": "55d710ca",
      "isScopeExist(bytes32)": "38255993",
      "isScopesCompatible(bytes32,bytes32)": "3bc6460a",
      "localAdmin()": "f94a0adb",
      "proxiableUUID()": "52d1902d",
      "proxyInfo()": "d49e164d",
      "safeModeStatus()": "a304e353",
      "setAccessControlManager(address)": "0e32cb86",
      "setLocalAdmin(address)": "d9dc1f19",
      "setSafeModeStatus(uint8)": "f708ceb0",
      "setUpgradabilityStatus(uint8)": "399d6e38",
      "subjectAddress()": "58dbc45d",
      "supportsInterface(bytes4)": "01ffc9a7",
      "upgradabilityStatus()": "fbad3684",
      "upgradeTo(address,bytes,bool)": "7147855d",
      "withdrawBalance(address)": "756af45f"
    }
  },
  "storageLayout": {
    "storage": [
      {
        "astId": 43592,
        "contract": "src/contracts/acl/AccessControl.sol:AccessControl",
        "label": "_contractName",
        "offset": 0,
        "slot": "0",
        "type": "t_string_storage"
      },
      {
        "astId": 43594,
        "contract": "src/contracts/acl/AccessControl.sol:AccessControl",
        "label": "_contractVersion",
        "offset": 0,
        "slot": "1",
        "type": "t_string_storage"
      },
      {
        "astId": 43596,
        "contract": "src/contracts/acl/AccessControl.sol:AccessControl",
        "label": "_accessControlManager",
        "offset": 0,
        "slot": "2",
        "type": "t_address"
      },
      {
        "astId": 43599,
        "contract": "src/contracts/acl/AccessControl.sol:AccessControl",
        "label": "_sstat",
        "offset": 20,
        "slot": "2",
        "type": "t_enum(ProxySafeModeStatus)43615"
      },
      {
        "astId": 43602,
        "contract": "src/contracts/acl/AccessControl.sol:AccessControl",
        "label": "_ustat",
        "offset": 21,
        "slot": "2",
        "type": "t_enum(ProxyUpgradabilityStatus)43619"
      },
      {
        "astId": 43607,
        "contract": "src/contracts/acl/AccessControl.sol:AccessControl",
        "label": "__reserved",
        "offset": 0,
        "slot": "3",
        "type": "t_array(t_uint256)64_storage"
      },
      {
        "astId": 11452,
        "contract": "src/contracts/acl/AccessControl.sol:AccessControl",
        "label": "_firstInit",
        "offset": 0,
        "slot": "67",
        "type": "t_bool"
      },
      {
        "astId": 11455,
        "contract": "src/contracts/acl/AccessControl.sol:AccessControl",
        "label": "_data",
        "offset": 0,
        "slot": "68",
        "type": "t_struct(DataCollection)11450_storage"
      },
      {
        "astId": 43824,
        "contract": "src/contracts/acl/AccessControl.sol:AccessControl",
        "label": "_initialized",
        "offset": 0,
        "slot": "76",
        "type": "t_uint16"
      },
      {
        "astId": 43827,
        "contract": "src/contracts/acl/AccessControl.sol:AccessControl",
        "label": "_initializing",
        "offset": 2,
        "slot": "76",
        "type": "t_bool"
      }
    ],
    "types": {
      "t_address": {
        "encoding": "inplace",
        "label": "address",
        "numberOfBytes": "20"
      },
      "t_array(t_bytes32)dyn_storage": {
        "base": "t_bytes32",
        "encoding": "dynamic_array",
        "label": "bytes32[]",
        "numberOfBytes": "32"
      },
      "t_array(t_uint256)64_storage": {
        "base": "t_uint256",
        "encoding": "inplace",
        "label": "uint256[64]",
        "numberOfBytes": "2048"
      },
      "t_bool": {
        "encoding": "inplace",
        "label": "bool",
        "numberOfBytes": "1"
      },
      "t_bytes32": {
        "encoding": "inplace",
        "label": "bytes32",
        "numberOfBytes": "32"
      },
      "t_bytes4": {
        "encoding": "inplace",
        "label": "bytes4",
        "numberOfBytes": "4"
      },
      "t_enum(ActivityStatus)12972": {
        "encoding": "inplace",
        "label": "enum IACLCommons.ActivityStatus",
        "numberOfBytes": "1"
      },
      "t_enum(AgentType)12966": {
        "encoding": "inplace",
        "label": "enum IACLCommons.AgentType",
        "numberOfBytes": "1"
      },
      "t_enum(AlterabilityStatus)12977": {
        "encoding": "inplace",
        "label": "enum IACLCommons.AlterabilityStatus",
        "numberOfBytes": "1"
      },
      "t_enum(PolicyType)12995": {
        "encoding": "inplace",
        "label": "enum IACLCommons.PolicyType",
        "numberOfBytes": "1"
      },
      "t_enum(ProxySafeModeStatus)43615": {
        "encoding": "inplace",
        "label": "enum IBaseProxy.ProxySafeModeStatus",
        "numberOfBytes": "1"
      },
      "t_enum(ProxyUpgradabilityStatus)43619": {
        "encoding": "inplace",
        "label": "enum IBaseProxy.ProxyUpgradabilityStatus",
        "numberOfBytes": "1"
      },
      "t_enum(ScopeType)12984": {
        "encoding": "inplace",
        "label": "enum IACLCommons.ScopeType",
        "numberOfBytes": "1"
      },
      "t_mapping(t_address,t_struct(FacetEntity)13161_storage)": {
        "encoding": "mapping",
        "key": "t_address",
        "label": "mapping(address => struct IACLCommons.FacetEntity)",
        "numberOfBytes": "32",
        "value": "t_struct(FacetEntity)13161_storage"
      },
      "t_mapping(t_bytes32,t_bytes32)": {
        "encoding": "mapping",
        "key": "t_bytes32",
        "label": "mapping(bytes32 => bytes32)",
        "numberOfBytes": "32",
        "value": "t_bytes32"
      },
      "t_mapping(t_bytes32,t_struct(BaseAgent)13013_storage)": {
        "encoding": "mapping",
        "key": "t_bytes32",
        "label": "mapping(bytes32 => struct IACLCommons.BaseAgent)",
        "numberOfBytes": "32",
        "value": "t_struct(BaseAgent)13013_storage"
      },
      "t_mapping(t_bytes32,t_struct(BaseScope)13031_storage)": {
        "encoding": "mapping",
        "key": "t_bytes32",
        "label": "mapping(bytes32 => struct IACLCommons.BaseScope)",
        "numberOfBytes": "32",
        "value": "t_struct(BaseScope)13031_storage"
      },
      "t_mapping(t_bytes32,t_struct(PolicyEntity)13054_storage)": {
        "encoding": "mapping",
        "key": "t_bytes32",
        "label": "mapping(bytes32 => struct IACLCommons.PolicyEntity)",
        "numberOfBytes": "32",
        "value": "t_struct(PolicyEntity)13054_storage"
      },
      "t_mapping(t_bytes32,t_uint256)": {
        "encoding": "mapping",
        "key": "t_bytes32",
        "label": "mapping(bytes32 => uint256)",
        "numberOfBytes": "32",
        "value": "t_uint256"
      },
      "t_mapping(t_bytes4,t_address)": {
        "encoding": "mapping",
        "key": "t_bytes4",
        "label": "mapping(bytes4 => address)",
        "numberOfBytes": "32",
        "value": "t_address"
      },
      "t_string_storage": {
        "encoding": "bytes",
        "label": "string",
        "numberOfBytes": "32"
      },
      "t_struct(AddressSet)42130_storage": {
        "encoding": "inplace",
        "label": "struct LEnumerableSet.AddressSet",
        "members": [
          {
            "astId": 42129,
            "contract": "src/contracts/acl/AccessControl.sol:AccessControl",
            "label": "_inner",
            "offset": 0,
            "slot": "0",
            "type": "t_struct(Set)41829_storage"
          }
        ],
        "numberOfBytes": "64"
      },
      "t_struct(BaseAgent)13013_storage": {
        "encoding": "inplace",
        "label": "struct IACLCommons.BaseAgent",
        "members": [
          {
            "astId": 12997,
            "contract": "src/contracts/acl/AccessControl.sol:AccessControl",
            "label": "adminId",
            "offset": 0,
            "slot": "0",
            "type": "t_bytes32"
          },
          {
            "astId": 13000,
            "contract": "src/contracts/acl/AccessControl.sol:AccessControl",
            "label": "atype",
            "offset": 0,
            "slot": "1",
            "type": "t_enum(AgentType)12966"
          },
          {
            "astId": 13003,
            "contract": "src/contracts/acl/AccessControl.sol:AccessControl",
            "label": "acstat",
            "offset": 1,
            "slot": "1",
            "type": "t_enum(ActivityStatus)12972"
          },
          {
            "astId": 13006,
            "contract": "src/contracts/acl/AccessControl.sol:AccessControl",
            "label": "alstat",
            "offset": 2,
            "slot": "1",
            "type": "t_enum(AlterabilityStatus)12977"
          },
          {
            "astId": 13008,
            "contract": "src/contracts/acl/AccessControl.sol:AccessControl",
            "label": "referredByScope",
            "offset": 3,
            "slot": "1",
            "type": "t_uint16"
          },
          {
            "astId": 13010,
            "contract": "src/contracts/acl/AccessControl.sol:AccessControl",
            "label": "referredByPolicy",
            "offset": 5,
            "slot": "1",
            "type": "t_uint16"
          },
          {
            "astId": 13012,
            "contract": "src/contracts/acl/AccessControl.sol:AccessControl",
            "label": "scopeLimit",
            "offset": 7,
            "slot": "1",
            "type": "t_uint16"
          }
        ],
        "numberOfBytes": "64"
      },
      "t_struct(BaseScope)13031_storage": {
        "encoding": "inplace",
        "label": "struct IACLCommons.BaseScope",
        "members": [
          {
            "astId": 13015,
            "contract": "src/contracts/acl/AccessControl.sol:AccessControl",
            "label": "adminId",
            "offset": 0,
            "slot": "0",
            "type": "t_bytes32"
          },
          {
            "astId": 13018,
            "contract": "src/contracts/acl/AccessControl.sol:AccessControl",
            "label": "stype",
            "offset": 0,
            "slot": "1",
            "type": "t_enum(ScopeType)12984"
          },
          {
            "astId": 13021,
            "contract": "src/contracts/acl/AccessControl.sol:AccessControl",
            "label": "acstat",
            "offset": 1,
            "slot": "1",
            "type": "t_enum(ActivityStatus)12972"
          },
          {
            "astId": 13024,
            "contract": "src/contracts/acl/AccessControl.sol:AccessControl",
            "label": "alstat",
            "offset": 2,
            "slot": "1",
            "type": "t_enum(AlterabilityStatus)12977"
          },
          {
            "astId": 13026,
            "contract": "src/contracts/acl/AccessControl.sol:AccessControl",
            "label": "referredByAgent",
            "offset": 3,
            "slot": "1",
            "type": "t_uint16"
          },
          {
            "astId": 13028,
            "contract": "src/contracts/acl/AccessControl.sol:AccessControl",
            "label": "referredByPolicy",
            "offset": 5,
            "slot": "1",
            "type": "t_uint16"
          },
          {
            "astId": 13030,
            "contract": "src/contracts/acl/AccessControl.sol:AccessControl",
            "label": "agentLimit",
            "offset": 7,
            "slot": "1",
            "type": "t_uint16"
          }
        ],
        "numberOfBytes": "64"
      },
      "t_struct(Bytes32Set)42023_storage": {
        "encoding": "inplace",
        "label": "struct LEnumerableSet.Bytes32Set",
        "members": [
          {
            "astId": 42022,
            "contract": "src/contracts/acl/AccessControl.sol:AccessControl",
            "label": "_inner",
            "offset": 0,
            "slot": "0",
            "type": "t_struct(Set)41829_storage"
          }
        ],
        "numberOfBytes": "64"
      },
      "t_struct(DataCollection)11450_storage": {
        "encoding": "inplace",
        "label": "struct ACLStorage.DataCollection",
        "members": [
          {
            "astId": 11423,
            "contract": "src/contracts/acl/AccessControl.sol:AccessControl",
            "label": "agents",
            "offset": 0,
            "slot": "0",
            "type": "t_mapping(t_bytes32,t_struct(BaseAgent)13013_storage)"
          },
          {
            "astId": 11428,
            "contract": "src/contracts/acl/AccessControl.sol:AccessControl",
            "label": "scopes",
            "offset": 0,
            "slot": "1",
            "type": "t_mapping(t_bytes32,t_struct(BaseScope)13031_storage)"
          },
          {
            "astId": 11433,
            "contract": "src/contracts/acl/AccessControl.sol:AccessControl",
            "label": "policies",
            "offset": 0,
            "slot": "2",
            "type": "t_mapping(t_bytes32,t_struct(PolicyEntity)13054_storage)"
          },
          {
            "astId": 11437,
            "contract": "src/contracts/acl/AccessControl.sol:AccessControl",
            "label": "rolePolicyMap",
            "offset": 0,
            "slot": "3",
            "type": "t_mapping(t_bytes32,t_bytes32)"
          },
          {
            "astId": 11441,
            "contract": "src/contracts/acl/AccessControl.sol:AccessControl",
            "label": "selectors",
            "offset": 0,
            "slot": "4",
            "type": "t_mapping(t_bytes4,t_address)"
          },
          {
            "astId": 11446,
            "contract": "src/contracts/acl/AccessControl.sol:AccessControl",
            "label": "facets",
            "offset": 0,
            "slot": "5",
            "type": "t_mapping(t_address,t_struct(FacetEntity)13161_storage)"
          },
          {
            "astId": 11449,
            "contract": "src/contracts/acl/AccessControl.sol:AccessControl",
            "label": "facetSet",
            "offset": 0,
            "slot": "6",
            "type": "t_struct(AddressSet)42130_storage"
          }
        ],
        "numberOfBytes": "256"
      },
      "t_struct(FacetEntity)13161_storage": {
        "encoding": "inplace",
        "label": "struct IACLCommons.FacetEntity",
        "members": [
          {
            "astId": 13158,
            "contract": "src/contracts/acl/AccessControl.sol:AccessControl",
            "label": "subjectId",
            "offset": 0,
            "slot": "0",
            "type": "t_address"
          },
          {
            "astId": 13160,
            "contract": "src/contracts/acl/AccessControl.sol:AccessControl",
            "label": "interfaceId",
            "offset": 20,
            "slot": "0",
            "type": "t_bytes4"
          }
        ],
        "numberOfBytes": "32"
      },
      "t_struct(PolicyEntity)13054_storage": {
        "encoding": "inplace",
        "label": "struct IACLCommons.PolicyEntity",
        "members": [
          {
            "astId": 13033,
            "contract": "src/contracts/acl/AccessControl.sol:AccessControl",
            "label": "adminId",
            "offset": 0,
            "slot": "0",
            "type": "t_bytes32"
          },
          {
            "astId": 13035,
            "contract": "src/contracts/acl/AccessControl.sol:AccessControl",
            "label": "scopeId",
            "offset": 0,
            "slot": "1",
            "type": "t_bytes32"
          },
          {
            "astId": 13037,
            "contract": "src/contracts/acl/AccessControl.sol:AccessControl",
            "label": "name",
            "offset": 0,
            "slot": "2",
            "type": "t_string_storage"
          },
          {
            "astId": 13039,
            "contract": "src/contracts/acl/AccessControl.sol:AccessControl",
            "label": "roleLimit",
            "offset": 0,
            "slot": "3",
            "type": "t_uint32"
          },
          {
            "astId": 13041,
            "contract": "src/contracts/acl/AccessControl.sol:AccessControl",
            "label": "policyCode",
            "offset": 4,
            "slot": "3",
            "type": "t_uint8"
          },
          {
            "astId": 13044,
            "contract": "src/contracts/acl/AccessControl.sol:AccessControl",
            "label": "ptype",
            "offset": 5,
            "slot": "3",
            "type": "t_enum(PolicyType)12995"
          },
          {
            "astId": 13047,
            "contract": "src/contracts/acl/AccessControl.sol:AccessControl",
            "label": "acstat",
            "offset": 6,
            "slot": "3",
            "type": "t_enum(ActivityStatus)12972"
          },
          {
            "astId": 13050,
            "contract": "src/contracts/acl/AccessControl.sol:AccessControl",
            "label": "alstat",
            "offset": 7,
            "slot": "3",
            "type": "t_enum(AlterabilityStatus)12977"
          },
          {
            "astId": 13053,
            "contract": "src/contracts/acl/AccessControl.sol:AccessControl",
            "label": "roles",
            "offset": 0,
            "slot": "4",
            "type": "t_struct(Bytes32Set)42023_storage"
          }
        ],
        "numberOfBytes": "192"
      },
      "t_struct(Set)41829_storage": {
        "encoding": "inplace",
        "label": "struct LEnumerableSet.Set",
        "members": [
          {
            "astId": 41824,
            "contract": "src/contracts/acl/AccessControl.sol:AccessControl",
            "label": "_values",
            "offset": 0,
            "slot": "0",
            "type": "t_array(t_bytes32)dyn_storage"
          },
          {
            "astId": 41828,
            "contract": "src/contracts/acl/AccessControl.sol:AccessControl",
            "label": "_indexes",
            "offset": 0,
            "slot": "1",
            "type": "t_mapping(t_bytes32,t_uint256)"
          }
        ],
        "numberOfBytes": "64"
      },
      "t_uint16": {
        "encoding": "inplace",
        "label": "uint16",
        "numberOfBytes": "2"
      },
      "t_uint256": {
        "encoding": "inplace",
        "label": "uint256",
        "numberOfBytes": "32"
      },
      "t_uint32": {
        "encoding": "inplace",
        "label": "uint32",
        "numberOfBytes": "4"
      },
      "t_uint8": {
        "encoding": "inplace",
        "label": "uint8",
        "numberOfBytes": "1"
      }
    }
  },
  "userdoc": {
    "kind": "user",
    "methods": {},
    "version": 1
  }
}