{
  "contractName": "AssetERC20",
  "sourceName": "src/contracts/token/asset/ERC20/AssetERC20.sol",
  "abi": [
    {
      "inputs": [],
      "stateMutability": "nonpayable",
      "type": "constructor"
    },
    {
      "anonymous": false,
      "inputs": [
        {
          "indexed": true,
          "internalType": "address",
          "name": "sender",
          "type": "address"
        },
        {
          "indexed": true,
          "internalType": "address",
          "name": "assetId",
          "type": "address"
        },
        {
          "indexed": true,
          "internalType": "bytes4",
          "name": "functionSelector",
          "type": "bytes4"
        }
      ],
      "name": "AssetERC20Called",
      "type": "event"
    },
    {
      "anonymous": false,
      "inputs": [
        {
          "indexed": true,
          "internalType": "address",
          "name": "sender",
          "type": "address"
        },
        {
          "indexed": true,
          "internalType": "address",
          "name": "assetId",
          "type": "address"
        },
        {
          "indexed": true,
          "internalType": "address",
          "name": "tokenId",
          "type": "address"
        },
        {
          "indexed": false,
          "internalType": "address",
          "name": "assetManager",
          "type": "address"
        },
        {
          "indexed": false,
          "internalType": "address",
          "name": "assetSubject",
          "type": "address"
        },
        {
          "indexed": false,
          "internalType": "string",
          "name": "name",
          "type": "string"
        },
        {
          "indexed": false,
          "internalType": "string",
          "name": "version",
          "type": "string"
        },
        {
          "indexed": false,
          "internalType": "bytes32",
          "name": "realm",
          "type": "bytes32"
        },
        {
          "indexed": false,
          "internalType": "bytes32",
          "name": "role",
          "type": "bytes32"
        }
      ],
      "name": "AssetInitialized",
      "type": "event"
    },
    {
      "anonymous": false,
      "inputs": [
        {
          "indexed": true,
          "internalType": "address",
          "name": "sender",
          "type": "address"
        },
        {
          "indexed": true,
          "internalType": "address",
          "name": "assetId",
          "type": "address"
        },
        {
          "indexed": true,
          "internalType": "bytes32",
          "name": "realm",
          "type": "bytes32"
        },
        {
          "indexed": false,
          "internalType": "bool",
          "name": "status",
          "type": "bool"
        }
      ],
      "name": "AssetSafeModeChanged",
      "type": "event"
    },
    {
      "stateMutability": "payable",
      "type": "fallback"
    },
    {
      "inputs": [],
      "name": "assetAcl",
      "outputs": [
        {
          "internalType": "address",
          "name": "",
          "type": "address"
        }
      ],
      "stateMutability": "view",
      "type": "function"
    },
    {
      "inputs": [],
      "name": "assetBalance",
      "outputs": [
        {
          "internalType": "uint256",
          "name": "",
          "type": "uint256"
        }
      ],
      "stateMutability": "view",
      "type": "function"
    },
    {
      "inputs": [],
      "name": "assetInitVersion",
      "outputs": [
        {
          "internalType": "uint16",
          "name": "",
          "type": "uint16"
        }
      ],
      "stateMutability": "view",
      "type": "function"
    },
    {
      "inputs": [],
      "name": "assetName",
      "outputs": [
        {
          "internalType": "bytes32",
          "name": "",
          "type": "bytes32"
        }
      ],
      "stateMutability": "view",
      "type": "function"
    },
    {
      "inputs": [],
      "name": "assetRealm",
      "outputs": [
        {
          "internalType": "bytes32",
          "name": "",
          "type": "bytes32"
        }
      ],
      "stateMutability": "view",
      "type": "function"
    },
    {
      "inputs": [],
      "name": "assetRole",
      "outputs": [
        {
          "internalType": "bytes32",
          "name": "",
          "type": "bytes32"
        }
      ],
      "stateMutability": "view",
      "type": "function"
    },
    {
      "inputs": [],
      "name": "assetSafeMode",
      "outputs": [
        {
          "internalType": "bool",
          "name": "",
          "type": "bool"
        }
      ],
      "stateMutability": "view",
      "type": "function"
    },
    {
      "inputs": [
        {
          "internalType": "bool",
          "name": "status",
          "type": "bool"
        }
      ],
      "name": "assetSafeModeSet",
      "outputs": [
        {
          "internalType": "bool",
          "name": "",
          "type": "bool"
        }
      ],
      "stateMutability": "nonpayable",
      "type": "function"
    },
    {
      "inputs": [],
      "name": "assetToken",
      "outputs": [
        {
          "internalType": "address",
          "name": "",
          "type": "address"
        }
      ],
      "stateMutability": "view",
      "type": "function"
    },
    {
      "inputs": [],
      "name": "assetType",
      "outputs": [
        {
          "internalType": "enum IAssetEntity.AssetType",
          "name": "",
          "type": "uint8"
        }
      ],
      "stateMutability": "pure",
      "type": "function"
    },
    {
      "inputs": [],
      "name": "assetVersion",
      "outputs": [
        {
          "internalType": "bytes32",
          "name": "",
          "type": "bytes32"
        }
      ],
      "stateMutability": "view",
      "type": "function"
    },
    {
      "inputs": [
        {
          "components": [
            {
              "internalType": "bytes32",
              "name": "domainRealm",
              "type": "bytes32"
            },
            {
              "internalType": "bytes32",
              "name": "assetRole",
              "type": "bytes32"
            },
            {
              "internalType": "bytes32",
              "name": "salt",
              "type": "bytes32"
            },
            {
              "internalType": "address",
              "name": "subject",
              "type": "address"
            },
            {
              "internalType": "address",
              "name": "erc20Token",
              "type": "address"
            },
            {
              "internalType": "address",
              "name": "accessControl",
              "type": "address"
            },
            {
              "internalType": "address",
              "name": "assetManager",
              "type": "address"
            },
            {
              "internalType": "string",
              "name": "domainName",
              "type": "string"
            },
            {
              "internalType": "string",
              "name": "domainVersion",
              "type": "string"
            },
            {
              "internalType": "bytes",
              "name": "signature",
              "type": "bytes"
            }
          ],
          "internalType": "struct AssetERC20.InitRequest",
          "name": "request",
          "type": "tuple"
        }
      ],
      "name": "initialize",
      "outputs": [],
      "stateMutability": "nonpayable",
      "type": "function"
    },
    {
      "inputs": [
        {
          "internalType": "bytes4",
          "name": "interfaceId",
          "type": "bytes4"
        }
      ],
      "name": "supportsInterface",
      "outputs": [
        {
          "internalType": "bool",
          "name": "",
          "type": "bool"
        }
      ],
      "stateMutability": "view",
      "type": "function"
    },
    {
      "inputs": [
        {
          "internalType": "address",
          "name": "spender",
          "type": "address"
        },
        {
          "internalType": "uint256",
          "name": "amount",
          "type": "uint256"
        }
      ],
      "name": "tokenApprove",
      "outputs": [
        {
          "internalType": "bool",
          "name": "",
          "type": "bool"
        }
      ],
      "stateMutability": "nonpayable",
      "type": "function"
    },
    {
      "inputs": [],
      "name": "tokenBalance",
      "outputs": [
        {
          "internalType": "uint256",
          "name": "",
          "type": "uint256"
        }
      ],
      "stateMutability": "view",
      "type": "function"
    },
    {
      "inputs": [
        {
          "components": [
            {
              "internalType": "address",
              "name": "source",
              "type": "address"
            },
            {
              "internalType": "address",
              "name": "dest",
              "type": "address"
            },
            {
              "internalType": "uint256",
              "name": "timestamp",
              "type": "uint256"
            },
            {
              "internalType": "uint256",
              "name": "amount",
              "type": "uint256"
            }
          ],
          "internalType": "struct IERC20Lock.LockTokenRequest[]",
          "name": "lockRequests",
          "type": "tuple[]"
        }
      ],
      "name": "tokenBatchLock",
      "outputs": [
        {
          "internalType": "bytes32[]",
          "name": "",
          "type": "bytes32[]"
        }
      ],
      "stateMutability": "nonpayable",
      "type": "function"
    },
    {
      "inputs": [
        {
          "components": [
            {
              "internalType": "address",
              "name": "to",
              "type": "address"
            },
            {
              "internalType": "uint256",
              "name": "amount",
              "type": "uint256"
            }
          ],
          "internalType": "struct IERC20Extra.BatchTransferRequest[]",
          "name": "request",
          "type": "tuple[]"
        }
      ],
      "name": "tokenBatchTransfer",
      "outputs": [
        {
          "internalType": "bool",
          "name": "",
          "type": "bool"
        }
      ],
      "stateMutability": "nonpayable",
      "type": "function"
    },
    {
      "inputs": [
        {
          "components": [
            {
              "internalType": "address",
              "name": "from",
              "type": "address"
            },
            {
              "internalType": "address",
              "name": "to",
              "type": "address"
            },
            {
              "internalType": "uint256",
              "name": "amount",
              "type": "uint256"
            }
          ],
          "internalType": "struct IERC20Extra.BatchTransferFromRequest[]",
          "name": "request",
          "type": "tuple[]"
        }
      ],
      "name": "tokenBatchTransferFrom",
      "outputs": [
        {
          "internalType": "bool",
          "name": "",
          "type": "bool"
        }
      ],
      "stateMutability": "nonpayable",
      "type": "function"
    },
    {
      "inputs": [
        {
          "internalType": "address",
          "name": "spender",
          "type": "address"
        },
        {
          "internalType": "uint256",
          "name": "amount",
          "type": "uint256"
        }
      ],
      "name": "tokenDecreaseAllowance",
      "outputs": [
        {
          "internalType": "uint256",
          "name": "",
          "type": "uint256"
        }
      ],
      "stateMutability": "nonpayable",
      "type": "function"
    },
    {
      "inputs": [
        {
          "internalType": "address",
          "name": "spender",
          "type": "address"
        },
        {
          "internalType": "uint256",
          "name": "amount",
          "type": "uint256"
        }
      ],
      "name": "tokenIncreaseAllowance",
      "outputs": [
        {
          "internalType": "uint256",
          "name": "",
          "type": "uint256"
        }
      ],
      "stateMutability": "nonpayable",
      "type": "function"
    },
    {
      "inputs": [
        {
          "components": [
            {
              "internalType": "address",
              "name": "source",
              "type": "address"
            },
            {
              "internalType": "address",
              "name": "dest",
              "type": "address"
            },
            {
              "internalType": "uint256",
              "name": "timestamp",
              "type": "uint256"
            },
            {
              "internalType": "uint256",
              "name": "amount",
              "type": "uint256"
            }
          ],
          "internalType": "struct IERC20Lock.LockTokenRequest",
          "name": "lockRequest",
          "type": "tuple"
        }
      ],
      "name": "tokenLock",
      "outputs": [
        {
          "internalType": "bytes32",
          "name": "",
          "type": "bytes32"
        }
      ],
      "stateMutability": "nonpayable",
      "type": "function"
    },
    {
      "inputs": [
        {
          "internalType": "address",
          "name": "to",
          "type": "address"
        },
        {
          "internalType": "uint256",
          "name": "amount",
          "type": "uint256"
        }
      ],
      "name": "tokenTransfer",
      "outputs": [
        {
          "internalType": "bool",
          "name": "",
          "type": "bool"
        }
      ],
      "stateMutability": "nonpayable",
      "type": "function"
    },
    {
      "inputs": [
        {
          "internalType": "address",
          "name": "from",
          "type": "address"
        },
        {
          "internalType": "address",
          "name": "to",
          "type": "address"
        },
        {
          "internalType": "uint256",
          "name": "amount",
          "type": "uint256"
        }
      ],
      "name": "tokenTransferFrom",
      "outputs": [
        {
          "internalType": "bool",
          "name": "",
          "type": "bool"
        }
      ],
      "stateMutability": "nonpayable",
      "type": "function"
    },
    {
      "inputs": [
        {
          "internalType": "address",
          "name": "recepient",
          "type": "address"
        }
      ],
      "name": "withdrawBalance",
      "outputs": [],
      "stateMutability": "nonpayable",
      "type": "function"
    },
    {
      "stateMutability": "payable",
      "type": "receive"
    }
  ],
  "bytecode": "0x608060405234801561001057600080fd5b506006805460ff191660011790556125748061002d6000396000f3fe6080604052600436106101435760003560e01c8063961974ba116100b0578063c66f24551161006c578063c66f2455146103a5578063c9230c5d146103b8578063dbc2d852146103cd578063e9dbebbd146103ed578063f1296fc51461040d578063fc5240641461042257005b8063961974ba146102f85780639c42c5ec146103185780639e00fcc2146103385780639e1a4d191461035b578063a52e8e6014610370578063ba4771ba1461039057005b80634cfb9949116100ff5780634cfb9949146102335780635ce6e2001461024b57806368cdafe61461026b57806370c55c021461028b578063756af45f146102b8578063846981c8146102d857005b806301ffc9a71461014c5780630cd689f5146101815780630ee0f6c2146101a15780631083f761146101da5780633c872e5f146101f85780633fe3347a1461021757005b3661014a57005b005b34801561015857600080fd5b5061016c610167366004611d55565b610442565b60405190151581526020015b60405180910390f35b34801561018d57600080fd5b5061016c61019c366004611d9b565b610494565b3480156101ad57600080fd5b50600054630100000090046001600160a01b03165b6040516001600160a01b039091168152602001610178565b3480156101e657600080fd5b506001546001600160a01b03166101c2565b34801561020457600080fd5b506003545b604051908152602001610178565b34801561022357600080fd5b5060016040516101789190611dc5565b34801561023f57600080fd5b5060065460ff1661016c565b34801561025757600080fd5b5061014a610266366004611ded565b610549565b34801561027757600080fd5b5061016c610286366004611d9b565b610e7d565b34801561029757600080fd5b506102ab6102a6366004611e29565b610eec565b6040516101789190611e9e565b3480156102c457600080fd5b5061014a6102d3366004611ee2565b611030565b3480156102e457600080fd5b506102096102f3366004611efd565b611075565b34801561030457600080fd5b5061016c610313366004611f15565b61117a565b34801561032457600080fd5b5061016c610333366004611f51565b611237565b34801561034457600080fd5b5060005460405161ffff9091168152602001610178565b34801561036757600080fd5b506102096112a4565b34801561037c57600080fd5b5061020961038b366004611d9b565b611311565b34801561039c57600080fd5b50600554610209565b3480156103b157600080fd5b5047610209565b3480156103c457600080fd5b50600254610209565b3480156103d957600080fd5b5061016c6103e8366004611fc2565b6113bf565b3480156103f957600080fd5b5061016c610408366004611fdf565b611543565b34801561041957600080fd5b50600454610209565b34801561042e57600080fd5b5061020961043d366004611d9b565b6115ab565b60006001600160e01b03198216639673b47d60e01b148061047357506001600160e01b0319821663391f033d60e11b145b8061048e57506301ffc9a760e01b6001600160e01b03198316145b92915050565b60006104a6630cd689f560e01b61161a565b604051630cd689f560e01b903090339060008051602061251f83398151915290600090a460015460405163095ea7b360e01b81526001600160a01b038581166004830152602482018590529091169063095ea7b3906044015b6020604051808303816000875af115801561051e573d6000803e3d6000fd5b505050506040513d601f19601f820116820180604052508101906105429190612042565b9392505050565b60005462010000900460ff161580801561056b5750600054600161ffff909116105b806105865750303b158015610586575060005461ffff166001145b6105d75760405162461bcd60e51b815260206004820152601c60248201527f436f6e747261637420416c726561647920496e697469616c697a65640000000060448201526064015b60405180910390fd5b6000805461ffff1916600117905580156105fd576000805462ff00001916620100001790555b61060d60a0830160808401611ee2565b6001600160a01b03166301ffc9a7634a17459160e11b6040518263ffffffff1660e01b815260040161063f919061205f565b602060405180830381865afa925050508015610678575060408051601f3d908101601f1916820190925261067591810190612042565b60015b6106c45760405162461bcd60e51b815260206004820152601a60248201527f496c6c6567616c204552433230546f6b656e204164647265737300000000000060448201526064016105ce565b806107115760405162461bcd60e51b815260206004820152601a60248201527f496e76616c6964204552433230546f6b656e204164647265737300000000000060448201526064016105ce565b5061072260a0830160808401611ee2565b6001600160a01b03166301ffc9a763e3a31a9d60e01b6040518263ffffffff1660e01b8152600401610754919061205f565b602060405180830381865afa92505050801561078d575060408051601f3d908101601f1916820190925261078a91810190612042565b60015b6107d95760405162461bcd60e51b815260206004820152601f60248201527f496c6c6567616c204552433230546f6b656e457874726120416464726573730060448201526064016105ce565b806108265760405162461bcd60e51b815260206004820152601f60248201527f496e76616c6964204552433230546f6b656e457874726120416464726573730060448201526064016105ce565b5061083760a0830160808401611ee2565b6001600160a01b03166301ffc9a7627b720760e91b6040518263ffffffff1660e01b8152600401610868919061205f565b602060405180830381865afa9250505080156108a1575060408051601f3d908101601f1916820190925261089e91810190612042565b60015b6108e65760405162461bcd60e51b8152602060048201526016602482015275496c6c6567616c204552433230546f6b656e4c6f636b60501b60448201526064016105ce565b806109335760405162461bcd60e51b815260206004820152601e60248201527f496e76616c6964204552433230546f6b656e4c6f636b2041646472657373000060448201526064016105ce565b5061094460c0830160a08401611ee2565b6001600160a01b03166301ffc9a76314b8343560e31b6040518263ffffffff1660e01b8152600401610976919061205f565b602060405180830381865afa9250505080156109af575060408051601f3d908101601f191682019092526109ac91810190612042565b60015b6109fb5760405162461bcd60e51b815260206004820152601c60248201527f496c6c6567616c20416363657373436f6e74726f6c4d616e616765720000000060448201526064016105ce565b80610a485760405162461bcd60e51b815260206004820152601c60248201527f496e76616c696420416363657373436f6e74726f6c4d616e616765720000000060448201526064016105ce565b50610a5960e0830160c08401611ee2565b6001600160a01b03166301ffc9a7631c8b5d5b60e11b6040518263ffffffff1660e01b8152600401610a8b919061205f565b602060405180830381865afa925050508015610ac4575060408051601f3d908101601f19168201909252610ac191810190612042565b60015b610b105760405162461bcd60e51b815260206004820152601a60248201527f496c6c6567616c204941737365744d616e61676572455243323000000000000060448201526064016105ce565b80610b5d5760405162461bcd60e51b815260206004820152601a60248201527f496e76616c6964204941737365744d616e61676572455243323000000000000060448201526064016105ce565b50610b6e60c0830160a08401611ee2565b600080546301000000600160b81b03191663010000006001600160a01b0393841681029190911791829055604051632f032edd60e01b815260208601356004820152910490911690632f032edd90602401602060405180830381865afa158015610bdc573d6000803e3d6000fd5b505050506040513d601f19601f82011682018060405250810190610c009190612042565b610c4c5760405162461bcd60e51b815260206004820152601b60248201527f526f6c65204e6f7420466f756e64204f522044697361626c656420000000000060448201526064016105ce565b8135600455610c5e60e0830183612074565b604051602001610c6f9291906120c2565b60408051601f198184030181529190528051602090910120600255610c98610100830183612074565b604051602001610ca99291906120c2565b60408051601f198184030181529190528051602090910120600355610cd460a0830160808401611ee2565b600180546001600160a01b0319166001600160a01b0392909216919091179055602082013560058190556006805460ff191690556002546003546004546000938493610d4893909290916040890135610d3360808b0160608c01611ee2565b610d4360e08c0160c08d01611ee2565b611744565b6000549193509150630100000090046001600160a01b0316637b443379610d73610120870187612074565b85856040518563ffffffff1660e01b8152600401610d9494939291906121a7565b6020604051808303816000875af1158015610db3573d6000803e3d6000fd5b505050506040513d601f19601f82011682018060405250810190610dd7919061222f565b506001546001600160a01b031630337f4e149bf06550b750e3ae2aa4b8f3300c462ddb3af0ae64e461d380004fd39e96610e1760e0890160c08a01611ee2565b610e2760808a0160608b01611ee2565b610e3460e08b018b612074565b610e426101008d018d612074565b600454600554604051610e5c989796959493929190612248565b60405180910390a450508015610e79576000805462ff0000191690555b5050565b6000610e8f633466d7f360e11b61161a565b604051633466d7f360e11b903090339060008051602061251f83398151915290600090a460015460405163a9059cbb60e01b81526001600160a01b038581166004830152602482018590529091169063a9059cbb906044016104ff565b6060610efe633862ae0160e11b61161a565b60005b82811015610f925730848483818110610f1c57610f1c6122a0565b610f329260206080909202019081019150611ee2565b6001600160a01b031614610f805760405162461bcd60e51b8152602060048201526015602482015274496c6c6567616c20536f757263652041646472657360581b60448201526064016105ce565b80610f8a816122b6565b915050610f01565b50604051633862ae0160e11b903090339060008051602061251f83398151915290600090a4600154604051639a7e187360e01b81526001600160a01b0390911690639a7e187390610fe9908690869060040161231b565b6000604051808303816000875af1158015611008573d6000803e3d6000fd5b505050506040513d6000823e601f3d908101601f191682016040526105429190810190612373565b61104063756af45f60e01b61161a565b6040516001600160a01b038216904780156108fc02916000818181858888f19350505050158015610e79573d6000803e3d6000fd5b600061108763108d303960e31b61161a565b306110956020840184611ee2565b6001600160a01b0316146110e35760405162461bcd60e51b8152602060048201526015602482015274496c6c6567616c20536f757263652041646472657360581b60448201526064016105ce565b60405163108d303960e31b903090339060008051602061251f83398151915290600090a46001546040516335c1ca4960e11b81526001600160a01b0390911690636b83949290611137908590600401612431565b6020604051808303816000875af1158015611156573d6000803e3d6000fd5b505050506040513d601f19601f8201168201806040525081019061048e919061222f565b600061118c634b0cba5d60e11b61161a565b604051634b0cba5d60e11b903090339060008051602061251f83398151915290600090a46001546040516323b872dd60e01b81526001600160a01b038681166004830152858116602483015260448201859052909116906323b872dd906064016020604051808303816000875af115801561120b573d6000803e3d6000fd5b505050506040513d601f19601f8201168201806040525081019061122f9190612042565b949350505050565b6000611249632710b17b60e21b61161a565b604051632710b17b60e21b903090339060008051602061251f83398151915290600090a460015460405163038d251d60e31b81526001600160a01b0390911690631c6928e8906104ff908690869060040161243f565b905090565b6001546040516370a0823160e01b81523060048201526000916001600160a01b0316906370a0823190602401602060405180830381865afa1580156112ed573d6000803e3d6000fd5b505050506040513d601f19601f8201168201806040525081019061129f919061222f565b6000611323630529747360e51b61161a565b604051630529747360e51b903090339060008051602061251f83398151915290600090a460015460405163a457c2d760e01b81526001600160a01b038581166004830152602482018590529091169063a457c2d7906044015b6020604051808303816000875af115801561139b573d6000803e3d6000fd5b505050506040513d601f19601f82011682018060405250810190610542919061222f565b60008054630100000090046001600160a01b031663c7ab39e66113e130611d16565b336040516001600160e01b031960e085901b16815261140d929190636de16c2960e11b906004016124ab565b602060405180830381865afa15801561142a573d6000803e3d6000fd5b505050506040513d601f19601f8201168201806040525081019061144e9190612042565b6114955760405162461bcd60e51b8152602060048201526018602482015277105cdcd95d115490cc8c081058d8d95cdcc811195b9a595960421b60448201526064016105ce565b60005461ffff166114e85760405162461bcd60e51b815260206004820152601a60248201527f41737365744552433230204e6f7420496e697469616c697a656400000000000060448201526064016105ce565b6006805460ff191683151517905560045430336001600160a01b03167f81142a54c3126b9c1789bd912322adcca4d73a5010d8049eaa6d63ab4c0b515485604051611537911515815260200190565b60405180910390a45090565b600061155563e9dbebbd60e01b61161a565b60405163e9dbebbd60e01b903090339060008051602061251f83398151915290600090a4600154604051631f54aa5560e31b81526001600160a01b039091169063faa552a8906104ff90869086906004016124d4565b60006115bd633f14901960e21b61161a565b604051633f14901960e21b903090339060008051602061251f83398151915290600090a4600154604051633950935160e01b81526001600160a01b038581166004830152602482018590529091169063395093519060440161137c565b60065460ff16156116785760405162461bcd60e51b815260206004820152602260248201527f536166654d6f64653a20417373657445524332302043616c6c2052656a656374604482015261195960f21b60648201526084016105ce565b600054630100000090046001600160a01b031663c7ab39e661169930611d16565b33846040518463ffffffff1660e01b81526004016116b9939291906124ab565b602060405180830381865afa1580156116d6573d6000803e3d6000fd5b505050506040513d601f19601f820116820180604052508101906116fa9190612042565b6117415760405162461bcd60e51b8152602060048201526018602482015277105cdcd95d115490cc8c081058d8d95cdcc811195b9a595960421b60448201526064016105ce565b50565b6040805160e08101825260008082526020820181905281830181905260608083018290526080830182905260a0830182905260c08301829052835160028082528183019095529293909290816020015b60408051606080820183526000808352602083019190915291810191909152815260200190600190039081611794579050506040517f4c4956454c595f41535345545f41444d494e5f524f4c450000000000000000006020820152909150603701604051602081830303815290604052805190602001208160008151811061181e5761181e6122a0565b60200260200101516000018181525050600181600081518110611843576118436122a0565b602090810291909101015190151560409182015280516001808252818301909252908160200160208202803683370190505081600081518110611888576118886122a0565b60200260200101516020018190525063dbc2d85260e01b816000815181106118b2576118b26122a0565b6020026020010151602001516000815181106118d0576118d06122a0565b60200260200101906001600160e01b03191690816001600160e01b031916815250508681600181518110611906576119066122a0565b6020026020010151600001818152505060018160018151811061192b5761192b6122a0565b6020908102919091018101519115156040928301528151600a808252610160820190935291908201610140803683370190505081600181518110611971576119716122a0565b60200260200101516020018190525063846981c860e01b8160018151811061199b5761199b6122a0565b6020026020010151602001516000815181106119b9576119b96122a0565b6001600160e01b0319909216602092830291909101909101528051633862ae0160e11b90829060019081106119f0576119f06122a0565b602002602001015160200151600181518110611a0e57611a0e6122a0565b6001600160e01b0319909216602092830291909101909101528051633466d7f360e11b9082906001908110611a4557611a456122a0565b602002602001015160200151600281518110611a6357611a636122a0565b6001600160e01b031990921660209283029190910190910152805163e9dbebbd60e01b9082906001908110611a9a57611a9a6122a0565b602002602001015160200151600381518110611ab857611ab86122a0565b6001600160e01b0319909216602092830291909101909101528051634b0cba5d60e11b9082906001908110611aef57611aef6122a0565b602002602001015160200151600481518110611b0d57611b0d6122a0565b6001600160e01b0319909216602092830291909101909101528051632710b17b60e21b9082906001908110611b4457611b446122a0565b602002602001015160200151600581518110611b6257611b626122a0565b6001600160e01b0319909216602092830291909101909101528051630cd689f560e01b9082906001908110611b9957611b996122a0565b602002602001015160200151600681518110611bb757611bb76122a0565b6001600160e01b0319909216602092830291909101909101528051633f14901960e21b9082906001908110611bee57611bee6122a0565b602002602001015160200151600781518110611c0c57611c0c6122a0565b6001600160e01b0319909216602092830291909101909101528051630529747360e51b9082906001908110611c4357611c436122a0565b602002602001015160200151600881518110611c6157611c616122a0565b6001600160e01b031990921660209283029190910190910152805163756af45f60e01b9082906001908110611c9857611c986122a0565b602002602001015160200151600981518110611cb657611cb66122a0565b6001600160e01b0319929092166020928302919091018201526040805160e0810182529b8c52908b0199909952978901969096525060608701929092526001600160a01b0390811660808701521660a08501525050600160c08301529091565b6040516bffffffffffffffffffffffff19606083901b166020820152600090603401604051602081830303815290604052805190602001209050919050565b600060208284031215611d6757600080fd5b81356001600160e01b03198116811461054257600080fd5b80356001600160a01b0381168114611d9657600080fd5b919050565b60008060408385031215611dae57600080fd5b611db783611d7f565b946020939093013593505050565b6020810160048310611de757634e487b7160e01b600052602160045260246000fd5b91905290565b600060208284031215611dff57600080fd5b813567ffffffffffffffff811115611e1657600080fd5b8201610140818503121561054257600080fd5b60008060208385031215611e3c57600080fd5b823567ffffffffffffffff80821115611e5457600080fd5b818501915085601f830112611e6857600080fd5b813581811115611e7757600080fd5b8660208260071b8501011115611e8c57600080fd5b60209290920196919550909350505050565b6020808252825182820181905260009190848201906040850190845b81811015611ed657835183529284019291840191600101611eba565b50909695505050505050565b600060208284031215611ef457600080fd5b61054282611d7f565b600060808284031215611f0f57600080fd5b50919050565b600080600060608486031215611f2a57600080fd5b611f3384611d7f565b9250611f4160208501611d7f565b9150604084013590509250925092565b60008060208385031215611f6457600080fd5b823567ffffffffffffffff80821115611f7c57600080fd5b818501915085601f830112611f9057600080fd5b813581811115611f9f57600080fd5b866020606083028501011115611e8c57600080fd5b801515811461174157600080fd5b600060208284031215611fd457600080fd5b813561054281611fb4565b60008060208385031215611ff257600080fd5b823567ffffffffffffffff8082111561200a57600080fd5b818501915085601f83011261201e57600080fd5b81358181111561202d57600080fd5b8660208260061b8501011115611e8c57600080fd5b60006020828403121561205457600080fd5b815161054281611fb4565b6001600160e01b031991909116815260200190565b6000808335601e1984360301811261208b57600080fd5b83018035915067ffffffffffffffff8211156120a657600080fd5b6020019150368190038213156120bb57600080fd5b9250929050565b8183823760009101908152919050565b81835281816020850137506000828201602090810191909152601f909101601f19169091010190565b600081518084526020808501808196508360051b810191508286016000805b86811015612199578385038a528251805186528681015160608888018190528151908801819052608088019189019085905b808210156121765782516001600160e01b0319168452928a0192918a01916001919091019061214c565b50505060409182015115159690910195909552988501989185019160010161211a565b509298975050505050505050565b60006101208083526121bc81840187896120d2565b905084516020840152602085015160408401526040850151606084015260608501516080840152608085015160018060a01b0380821660a08601528060a08801511660c0860152505060c0850151151560e084015282810361010084015261222481856120fb565b979650505050505050565b60006020828403121561224157600080fd5b5051919050565b6001600160a01b0389811682528816602082015260c060408201819052600090612275908301888a6120d2565b82810360608401526122888187896120d2565b6080840195909552505060a001529695505050505050565b634e487b7160e01b600052603260045260246000fd5b6000600182016122d657634e487b7160e01b600052601160045260246000fd5b5060010190565b6001600160a01b03806122ef83611d7f565b168352806122ff60208401611d7f565b1660208401525060408181013590830152606090810135910152565b6020808252810182905260008360408301825b858110156123535761234082846122dd565b608092830192919091019060010161232e565b5095945050505050565b634e487b7160e01b600052604160045260246000fd5b6000602080838503121561238657600080fd5b825167ffffffffffffffff8082111561239e57600080fd5b818501915085601f8301126123b257600080fd5b8151818111156123c4576123c461235d565b8060051b604051601f19603f830116810181811085821117156123e9576123e961235d565b60405291825284820192508381018501918883111561240757600080fd5b938501935b828510156124255784518452938501939285019261240c565b98975050505050505050565b6080810161048e82846122dd565b6020808252818101839052600090604080840186845b8781101561249e576001600160a01b038061246f84611d7f565b1684528061247e878501611d7f565b168487015250818401358484015260609283019290910190600101612455565b5090979650505050505050565b9283526001600160a01b039190911660208301526001600160e01b031916604082015260600190565b6020808252818101839052600090604080840186845b8781101561249e576001600160a01b0361250383611d7f565b168352818501358584015291830191908301906001016124ea56fe33c2ad0e769b5a5e7f07ab57ff61ae195b76839fc48d116ffe8dc881334fa213a2646970667358221220aaaead3e6042d3da298f86dbdb7393062f6440f4f073cd4d50ccb4306977d69d64736f6c63430008110033",
  "linkReferences": {},
  "deployedLinkReferences": {},
  "devdoc": {
    "author": "Sina Tadayon, https://github.com/SinaTadayon",
    "kind": "dev",
    "methods": {
      "supportsInterface(bytes4)": {
        "details": "See {IERC165-supportsInterface}."
      }
    },
    "title": "Asset ERC20 Contract",
    "version": 1
  },
  "evm": {
    "bytecode": {
      "linkReferences": {},
      "opcodes": "PUSH1 0x80 PUSH1 0x40 MSTORE CALLVALUE DUP1 ISZERO PUSH2 0x10 JUMPI PUSH1 0x0 DUP1 REVERT JUMPDEST POP PUSH1 0x6 DUP1 SLOAD PUSH1 0xFF NOT AND PUSH1 0x1 OR SWAP1 SSTORE PUSH2 0x2574 DUP1 PUSH2 0x2D PUSH1 0x0 CODECOPY PUSH1 0x0 RETURN INVALID PUSH1 0x80 PUSH1 0x40 MSTORE PUSH1 0x4 CALLDATASIZE LT PUSH2 0x143 JUMPI PUSH1 0x0 CALLDATALOAD PUSH1 0xE0 SHR DUP1 PUSH4 0x961974BA GT PUSH2 0xB0 JUMPI DUP1 PUSH4 0xC66F2455 GT PUSH2 0x6C JUMPI DUP1 PUSH4 0xC66F2455 EQ PUSH2 0x3A5 JUMPI DUP1 PUSH4 0xC9230C5D EQ PUSH2 0x3B8 JUMPI DUP1 PUSH4 0xDBC2D852 EQ PUSH2 0x3CD JUMPI DUP1 PUSH4 0xE9DBEBBD EQ PUSH2 0x3ED JUMPI DUP1 PUSH4 0xF1296FC5 EQ PUSH2 0x40D JUMPI DUP1 PUSH4 0xFC524064 EQ PUSH2 0x422 JUMPI STOP JUMPDEST DUP1 PUSH4 0x961974BA EQ PUSH2 0x2F8 JUMPI DUP1 PUSH4 0x9C42C5EC EQ PUSH2 0x318 JUMPI DUP1 PUSH4 0x9E00FCC2 EQ PUSH2 0x338 JUMPI DUP1 PUSH4 0x9E1A4D19 EQ PUSH2 0x35B JUMPI DUP1 PUSH4 0xA52E8E60 EQ PUSH2 0x370 JUMPI DUP1 PUSH4 0xBA4771BA EQ PUSH2 0x390 JUMPI STOP JUMPDEST DUP1 PUSH4 0x4CFB9949 GT PUSH2 0xFF JUMPI DUP1 PUSH4 0x4CFB9949 EQ PUSH2 0x233 JUMPI DUP1 PUSH4 0x5CE6E200 EQ PUSH2 0x24B JUMPI DUP1 PUSH4 0x68CDAFE6 EQ PUSH2 0x26B JUMPI DUP1 PUSH4 0x70C55C02 EQ PUSH2 0x28B JUMPI DUP1 PUSH4 0x756AF45F EQ PUSH2 0x2B8 JUMPI DUP1 PUSH4 0x846981C8 EQ PUSH2 0x2D8 JUMPI STOP JUMPDEST DUP1 PUSH4 0x1FFC9A7 EQ PUSH2 0x14C JUMPI DUP1 PUSH4 0xCD689F5 EQ PUSH2 0x181 JUMPI DUP1 PUSH4 0xEE0F6C2 EQ PUSH2 0x1A1 JUMPI DUP1 PUSH4 0x1083F761 EQ PUSH2 0x1DA JUMPI DUP1 PUSH4 0x3C872E5F EQ PUSH2 0x1F8 JUMPI DUP1 PUSH4 0x3FE3347A EQ PUSH2 0x217 JUMPI STOP JUMPDEST CALLDATASIZE PUSH2 0x14A JUMPI STOP JUMPDEST STOP JUMPDEST CALLVALUE DUP1 ISZERO PUSH2 0x158 JUMPI PUSH1 0x0 DUP1 REVERT JUMPDEST POP PUSH2 0x16C PUSH2 0x167 CALLDATASIZE PUSH1 0x4 PUSH2 0x1D55 JUMP JUMPDEST PUSH2 0x442 JUMP JUMPDEST PUSH1 0x40 MLOAD SWAP1 ISZERO ISZERO DUP2 MSTORE PUSH1 0x20 ADD JUMPDEST PUSH1 0x40 MLOAD DUP1 SWAP2 SUB SWAP1 RETURN JUMPDEST CALLVALUE DUP1 ISZERO PUSH2 0x18D JUMPI PUSH1 0x0 DUP1 REVERT JUMPDEST POP PUSH2 0x16C PUSH2 0x19C CALLDATASIZE PUSH1 0x4 PUSH2 0x1D9B JUMP JUMPDEST PUSH2 0x494 JUMP JUMPDEST CALLVALUE DUP1 ISZERO PUSH2 0x1AD JUMPI PUSH1 0x0 DUP1 REVERT JUMPDEST POP PUSH1 0x0 SLOAD PUSH4 0x1000000 SWAP1 DIV PUSH1 0x1 PUSH1 0x1 PUSH1 0xA0 SHL SUB AND JUMPDEST PUSH1 0x40 MLOAD PUSH1 0x1 PUSH1 0x1 PUSH1 0xA0 SHL SUB SWAP1 SWAP2 AND DUP2 MSTORE PUSH1 0x20 ADD PUSH2 0x178 JUMP JUMPDEST CALLVALUE DUP1 ISZERO PUSH2 0x1E6 JUMPI PUSH1 0x0 DUP1 REVERT JUMPDEST POP PUSH1 0x1 SLOAD PUSH1 0x1 PUSH1 0x1 PUSH1 0xA0 SHL SUB AND PUSH2 0x1C2 JUMP JUMPDEST CALLVALUE DUP1 ISZERO PUSH2 0x204 JUMPI PUSH1 0x0 DUP1 REVERT JUMPDEST POP PUSH1 0x3 SLOAD JUMPDEST PUSH1 0x40 MLOAD SWAP1 DUP2 MSTORE PUSH1 0x20 ADD PUSH2 0x178 JUMP JUMPDEST CALLVALUE DUP1 ISZERO PUSH2 0x223 JUMPI PUSH1 0x0 DUP1 REVERT JUMPDEST POP PUSH1 0x1 PUSH1 0x40 MLOAD PUSH2 0x178 SWAP2 SWAP1 PUSH2 0x1DC5 JUMP JUMPDEST CALLVALUE DUP1 ISZERO PUSH2 0x23F JUMPI PUSH1 0x0 DUP1 REVERT JUMPDEST POP PUSH1 0x6 SLOAD PUSH1 0xFF AND PUSH2 0x16C JUMP JUMPDEST CALLVALUE DUP1 ISZERO PUSH2 0x257 JUMPI PUSH1 0x0 DUP1 REVERT JUMPDEST POP PUSH2 0x14A PUSH2 0x266 CALLDATASIZE PUSH1 0x4 PUSH2 0x1DED JUMP JUMPDEST PUSH2 0x549 JUMP JUMPDEST CALLVALUE DUP1 ISZERO PUSH2 0x277 JUMPI PUSH1 0x0 DUP1 REVERT JUMPDEST POP PUSH2 0x16C PUSH2 0x286 CALLDATASIZE PUSH1 0x4 PUSH2 0x1D9B JUMP JUMPDEST PUSH2 0xE7D JUMP JUMPDEST CALLVALUE DUP1 ISZERO PUSH2 0x297 JUMPI PUSH1 0x0 DUP1 REVERT JUMPDEST POP PUSH2 0x2AB PUSH2 0x2A6 CALLDATASIZE PUSH1 0x4 PUSH2 0x1E29 JUMP JUMPDEST PUSH2 0xEEC JUMP JUMPDEST PUSH1 0x40 MLOAD PUSH2 0x178 SWAP2 SWAP1 PUSH2 0x1E9E JUMP JUMPDEST CALLVALUE DUP1 ISZERO PUSH2 0x2C4 JUMPI PUSH1 0x0 DUP1 REVERT JUMPDEST POP PUSH2 0x14A PUSH2 0x2D3 CALLDATASIZE PUSH1 0x4 PUSH2 0x1EE2 JUMP JUMPDEST PUSH2 0x1030 JUMP JUMPDEST CALLVALUE DUP1 ISZERO PUSH2 0x2E4 JUMPI PUSH1 0x0 DUP1 REVERT JUMPDEST POP PUSH2 0x209 PUSH2 0x2F3 CALLDATASIZE PUSH1 0x4 PUSH2 0x1EFD JUMP JUMPDEST PUSH2 0x1075 JUMP JUMPDEST CALLVALUE DUP1 ISZERO PUSH2 0x304 JUMPI PUSH1 0x0 DUP1 REVERT JUMPDEST POP PUSH2 0x16C PUSH2 0x313 CALLDATASIZE PUSH1 0x4 PUSH2 0x1F15 JUMP JUMPDEST PUSH2 0x117A JUMP JUMPDEST CALLVALUE DUP1 ISZERO PUSH2 0x324 JUMPI PUSH1 0x0 DUP1 REVERT JUMPDEST POP PUSH2 0x16C PUSH2 0x333 CALLDATASIZE PUSH1 0x4 PUSH2 0x1F51 JUMP JUMPDEST PUSH2 0x1237 JUMP JUMPDEST CALLVALUE DUP1 ISZERO PUSH2 0x344 JUMPI PUSH1 0x0 DUP1 REVERT JUMPDEST POP PUSH1 0x0 SLOAD PUSH1 0x40 MLOAD PUSH2 0xFFFF SWAP1 SWAP2 AND DUP2 MSTORE PUSH1 0x20 ADD PUSH2 0x178 JUMP JUMPDEST CALLVALUE DUP1 ISZERO PUSH2 0x367 JUMPI PUSH1 0x0 DUP1 REVERT JUMPDEST POP PUSH2 0x209 PUSH2 0x12A4 JUMP JUMPDEST CALLVALUE DUP1 ISZERO PUSH2 0x37C JUMPI PUSH1 0x0 DUP1 REVERT JUMPDEST POP PUSH2 0x209 PUSH2 0x38B CALLDATASIZE PUSH1 0x4 PUSH2 0x1D9B JUMP JUMPDEST PUSH2 0x1311 JUMP JUMPDEST CALLVALUE DUP1 ISZERO PUSH2 0x39C JUMPI PUSH1 0x0 DUP1 REVERT JUMPDEST POP PUSH1 0x5 SLOAD PUSH2 0x209 JUMP JUMPDEST CALLVALUE DUP1 ISZERO PUSH2 0x3B1 JUMPI PUSH1 0x0 DUP1 REVERT JUMPDEST POP SELFBALANCE PUSH2 0x209 JUMP JUMPDEST CALLVALUE DUP1 ISZERO PUSH2 0x3C4 JUMPI PUSH1 0x0 DUP1 REVERT JUMPDEST POP PUSH1 0x2 SLOAD PUSH2 0x209 JUMP JUMPDEST CALLVALUE DUP1 ISZERO PUSH2 0x3D9 JUMPI PUSH1 0x0 DUP1 REVERT JUMPDEST POP PUSH2 0x16C PUSH2 0x3E8 CALLDATASIZE PUSH1 0x4 PUSH2 0x1FC2 JUMP JUMPDEST PUSH2 0x13BF JUMP JUMPDEST CALLVALUE DUP1 ISZERO PUSH2 0x3F9 JUMPI PUSH1 0x0 DUP1 REVERT JUMPDEST POP PUSH2 0x16C PUSH2 0x408 CALLDATASIZE PUSH1 0x4 PUSH2 0x1FDF JUMP JUMPDEST PUSH2 0x1543 JUMP JUMPDEST CALLVALUE DUP1 ISZERO PUSH2 0x419 JUMPI PUSH1 0x0 DUP1 REVERT JUMPDEST POP PUSH1 0x4 SLOAD PUSH2 0x209 JUMP JUMPDEST CALLVALUE DUP1 ISZERO PUSH2 0x42E JUMPI PUSH1 0x0 DUP1 REVERT JUMPDEST POP PUSH2 0x209 PUSH2 0x43D CALLDATASIZE PUSH1 0x4 PUSH2 0x1D9B JUMP JUMPDEST PUSH2 0x15AB JUMP JUMPDEST PUSH1 0x0 PUSH1 0x1 PUSH1 0x1 PUSH1 0xE0 SHL SUB NOT DUP3 AND PUSH4 0x9673B47D PUSH1 0xE0 SHL EQ DUP1 PUSH2 0x473 JUMPI POP PUSH1 0x1 PUSH1 0x1 PUSH1 0xE0 SHL SUB NOT DUP3 AND PUSH4 0x391F033D PUSH1 0xE1 SHL EQ JUMPDEST DUP1 PUSH2 0x48E JUMPI POP PUSH4 0x1FFC9A7 PUSH1 0xE0 SHL PUSH1 0x1 PUSH1 0x1 PUSH1 0xE0 SHL SUB NOT DUP4 AND EQ JUMPDEST SWAP3 SWAP2 POP POP JUMP JUMPDEST PUSH1 0x0 PUSH2 0x4A6 PUSH4 0xCD689F5 PUSH1 0xE0 SHL PUSH2 0x161A JUMP JUMPDEST PUSH1 0x40 MLOAD PUSH4 0xCD689F5 PUSH1 0xE0 SHL SWAP1 ADDRESS SWAP1 CALLER SWAP1 PUSH1 0x0 DUP1 MLOAD PUSH1 0x20 PUSH2 0x251F DUP4 CODECOPY DUP2 MLOAD SWAP2 MSTORE SWAP1 PUSH1 0x0 SWAP1 LOG4 PUSH1 0x1 SLOAD PUSH1 0x40 MLOAD PUSH4 0x95EA7B3 PUSH1 0xE0 SHL DUP2 MSTORE PUSH1 0x1 PUSH1 0x1 PUSH1 0xA0 SHL SUB DUP6 DUP2 AND PUSH1 0x4 DUP4 ADD MSTORE PUSH1 0x24 DUP3 ADD DUP6 SWAP1 MSTORE SWAP1 SWAP2 AND SWAP1 PUSH4 0x95EA7B3 SWAP1 PUSH1 0x44 ADD JUMPDEST PUSH1 0x20 PUSH1 0x40 MLOAD DUP1 DUP4 SUB DUP2 PUSH1 0x0 DUP8 GAS CALL ISZERO DUP1 ISZERO PUSH2 0x51E JUMPI RETURNDATASIZE PUSH1 0x0 DUP1 RETURNDATACOPY RETURNDATASIZE PUSH1 0x0 REVERT JUMPDEST POP POP POP POP PUSH1 0x40 MLOAD RETURNDATASIZE PUSH1 0x1F NOT PUSH1 0x1F DUP3 ADD AND DUP3 ADD DUP1 PUSH1 0x40 MSTORE POP DUP2 ADD SWAP1 PUSH2 0x542 SWAP2 SWAP1 PUSH2 0x2042 JUMP JUMPDEST SWAP4 SWAP3 POP POP POP JUMP JUMPDEST PUSH1 0x0 SLOAD PUSH3 0x10000 SWAP1 DIV PUSH1 0xFF AND ISZERO DUP1 DUP1 ISZERO PUSH2 0x56B JUMPI POP PUSH1 0x0 SLOAD PUSH1 0x1 PUSH2 0xFFFF SWAP1 SWAP2 AND LT JUMPDEST DUP1 PUSH2 0x586 JUMPI POP ADDRESS EXTCODESIZE ISZERO DUP1 ISZERO PUSH2 0x586 JUMPI POP PUSH1 0x0 SLOAD PUSH2 0xFFFF AND PUSH1 0x1 EQ JUMPDEST PUSH2 0x5D7 JUMPI PUSH1 0x40 MLOAD PUSH3 0x461BCD PUSH1 0xE5 SHL DUP2 MSTORE PUSH1 0x20 PUSH1 0x4 DUP3 ADD MSTORE PUSH1 0x1C PUSH1 0x24 DUP3 ADD MSTORE PUSH32 0x436F6E747261637420416C726561647920496E697469616C697A656400000000 PUSH1 0x44 DUP3 ADD MSTORE PUSH1 0x64 ADD JUMPDEST PUSH1 0x40 MLOAD DUP1 SWAP2 SUB SWAP1 REVERT JUMPDEST PUSH1 0x0 DUP1 SLOAD PUSH2 0xFFFF NOT AND PUSH1 0x1 OR SWAP1 SSTORE DUP1 ISZERO PUSH2 0x5FD JUMPI PUSH1 0x0 DUP1 SLOAD PUSH3 0xFF0000 NOT AND PUSH3 0x10000 OR SWAP1 SSTORE JUMPDEST PUSH2 0x60D PUSH1 0xA0 DUP4 ADD PUSH1 0x80 DUP5 ADD PUSH2 0x1EE2 JUMP JUMPDEST PUSH1 0x1 PUSH1 0x1 PUSH1 0xA0 SHL SUB AND PUSH4 0x1FFC9A7 PUSH4 0x4A174591 PUSH1 0xE1 SHL PUSH1 0x40 MLOAD DUP3 PUSH4 0xFFFFFFFF AND PUSH1 0xE0 SHL DUP2 MSTORE PUSH1 0x4 ADD PUSH2 0x63F SWAP2 SWAP1 PUSH2 0x205F JUMP JUMPDEST PUSH1 0x20 PUSH1 0x40 MLOAD DUP1 DUP4 SUB DUP2 DUP7 GAS STATICCALL SWAP3 POP POP POP DUP1 ISZERO PUSH2 0x678 JUMPI POP PUSH1 0x40 DUP1 MLOAD PUSH1 0x1F RETURNDATASIZE SWAP1 DUP2 ADD PUSH1 0x1F NOT AND DUP3 ADD SWAP1 SWAP3 MSTORE PUSH2 0x675 SWAP2 DUP2 ADD SWAP1 PUSH2 0x2042 JUMP JUMPDEST PUSH1 0x1 JUMPDEST PUSH2 0x6C4 JUMPI PUSH1 0x40 MLOAD PUSH3 0x461BCD PUSH1 0xE5 SHL DUP2 MSTORE PUSH1 0x20 PUSH1 0x4 DUP3 ADD MSTORE PUSH1 0x1A PUSH1 0x24 DUP3 ADD MSTORE PUSH32 0x496C6C6567616C204552433230546F6B656E2041646472657373000000000000 PUSH1 0x44 DUP3 ADD MSTORE PUSH1 0x64 ADD PUSH2 0x5CE JUMP JUMPDEST DUP1 PUSH2 0x711 JUMPI PUSH1 0x40 MLOAD PUSH3 0x461BCD PUSH1 0xE5 SHL DUP2 MSTORE PUSH1 0x20 PUSH1 0x4 DUP3 ADD MSTORE PUSH1 0x1A PUSH1 0x24 DUP3 ADD MSTORE PUSH32 0x496E76616C6964204552433230546F6B656E2041646472657373000000000000 PUSH1 0x44 DUP3 ADD MSTORE PUSH1 0x64 ADD PUSH2 0x5CE JUMP JUMPDEST POP PUSH2 0x722 PUSH1 0xA0 DUP4 ADD PUSH1 0x80 DUP5 ADD PUSH2 0x1EE2 JUMP JUMPDEST PUSH1 0x1 PUSH1 0x1 PUSH1 0xA0 SHL SUB AND PUSH4 0x1FFC9A7 PUSH4 0xE3A31A9D PUSH1 0xE0 SHL PUSH1 0x40 MLOAD DUP3 PUSH4 0xFFFFFFFF AND PUSH1 0xE0 SHL DUP2 MSTORE PUSH1 0x4 ADD PUSH2 0x754 SWAP2 SWAP1 PUSH2 0x205F JUMP JUMPDEST PUSH1 0x20 PUSH1 0x40 MLOAD DUP1 DUP4 SUB DUP2 DUP7 GAS STATICCALL SWAP3 POP POP POP DUP1 ISZERO PUSH2 0x78D JUMPI POP PUSH1 0x40 DUP1 MLOAD PUSH1 0x1F RETURNDATASIZE SWAP1 DUP2 ADD PUSH1 0x1F NOT AND DUP3 ADD SWAP1 SWAP3 MSTORE PUSH2 0x78A SWAP2 DUP2 ADD SWAP1 PUSH2 0x2042 JUMP JUMPDEST PUSH1 0x1 JUMPDEST PUSH2 0x7D9 JUMPI PUSH1 0x40 MLOAD PUSH3 0x461BCD PUSH1 0xE5 SHL DUP2 MSTORE PUSH1 0x20 PUSH1 0x4 DUP3 ADD MSTORE PUSH1 0x1F PUSH1 0x24 DUP3 ADD MSTORE PUSH32 0x496C6C6567616C204552433230546F6B656E4578747261204164647265737300 PUSH1 0x44 DUP3 ADD MSTORE PUSH1 0x64 ADD PUSH2 0x5CE JUMP JUMPDEST DUP1 PUSH2 0x826 JUMPI PUSH1 0x40 MLOAD PUSH3 0x461BCD PUSH1 0xE5 SHL DUP2 MSTORE PUSH1 0x20 PUSH1 0x4 DUP3 ADD MSTORE PUSH1 0x1F PUSH1 0x24 DUP3 ADD MSTORE PUSH32 0x496E76616C6964204552433230546F6B656E4578747261204164647265737300 PUSH1 0x44 DUP3 ADD MSTORE PUSH1 0x64 ADD PUSH2 0x5CE JUMP JUMPDEST POP PUSH2 0x837 PUSH1 0xA0 DUP4 ADD PUSH1 0x80 DUP5 ADD PUSH2 0x1EE2 JUMP JUMPDEST PUSH1 0x1 PUSH1 0x1 PUSH1 0xA0 SHL SUB AND PUSH4 0x1FFC9A7 PUSH3 0x7B7207 PUSH1 0xE9 SHL PUSH1 0x40 MLOAD DUP3 PUSH4 0xFFFFFFFF AND PUSH1 0xE0 SHL DUP2 MSTORE PUSH1 0x4 ADD PUSH2 0x868 SWAP2 SWAP1 PUSH2 0x205F JUMP JUMPDEST PUSH1 0x20 PUSH1 0x40 MLOAD DUP1 DUP4 SUB DUP2 DUP7 GAS STATICCALL SWAP3 POP POP POP DUP1 ISZERO PUSH2 0x8A1 JUMPI POP PUSH1 0x40 DUP1 MLOAD PUSH1 0x1F RETURNDATASIZE SWAP1 DUP2 ADD PUSH1 0x1F NOT AND DUP3 ADD SWAP1 SWAP3 MSTORE PUSH2 0x89E SWAP2 DUP2 ADD SWAP1 PUSH2 0x2042 JUMP JUMPDEST PUSH1 0x1 JUMPDEST PUSH2 0x8E6 JUMPI PUSH1 0x40 MLOAD PUSH3 0x461BCD PUSH1 0xE5 SHL DUP2 MSTORE PUSH1 0x20 PUSH1 0x4 DUP3 ADD MSTORE PUSH1 0x16 PUSH1 0x24 DUP3 ADD MSTORE PUSH22 0x496C6C6567616C204552433230546F6B656E4C6F636B PUSH1 0x50 SHL PUSH1 0x44 DUP3 ADD MSTORE PUSH1 0x64 ADD PUSH2 0x5CE JUMP JUMPDEST DUP1 PUSH2 0x933 JUMPI PUSH1 0x40 MLOAD PUSH3 0x461BCD PUSH1 0xE5 SHL DUP2 MSTORE PUSH1 0x20 PUSH1 0x4 DUP3 ADD MSTORE PUSH1 0x1E PUSH1 0x24 DUP3 ADD MSTORE PUSH32 0x496E76616C6964204552433230546F6B656E4C6F636B20416464726573730000 PUSH1 0x44 DUP3 ADD MSTORE PUSH1 0x64 ADD PUSH2 0x5CE JUMP JUMPDEST POP PUSH2 0x944 PUSH1 0xC0 DUP4 ADD PUSH1 0xA0 DUP5 ADD PUSH2 0x1EE2 JUMP JUMPDEST PUSH1 0x1 PUSH1 0x1 PUSH1 0xA0 SHL SUB AND PUSH4 0x1FFC9A7 PUSH4 0x14B83435 PUSH1 0xE3 SHL PUSH1 0x40 MLOAD DUP3 PUSH4 0xFFFFFFFF AND PUSH1 0xE0 SHL DUP2 MSTORE PUSH1 0x4 ADD PUSH2 0x976 SWAP2 SWAP1 PUSH2 0x205F JUMP JUMPDEST PUSH1 0x20 PUSH1 0x40 MLOAD DUP1 DUP4 SUB DUP2 DUP7 GAS STATICCALL SWAP3 POP POP POP DUP1 ISZERO PUSH2 0x9AF JUMPI POP PUSH1 0x40 DUP1 MLOAD PUSH1 0x1F RETURNDATASIZE SWAP1 DUP2 ADD PUSH1 0x1F NOT AND DUP3 ADD SWAP1 SWAP3 MSTORE PUSH2 0x9AC SWAP2 DUP2 ADD SWAP1 PUSH2 0x2042 JUMP JUMPDEST PUSH1 0x1 JUMPDEST PUSH2 0x9FB JUMPI PUSH1 0x40 MLOAD PUSH3 0x461BCD PUSH1 0xE5 SHL DUP2 MSTORE PUSH1 0x20 PUSH1 0x4 DUP3 ADD MSTORE PUSH1 0x1C PUSH1 0x24 DUP3 ADD MSTORE PUSH32 0x496C6C6567616C20416363657373436F6E74726F6C4D616E6167657200000000 PUSH1 0x44 DUP3 ADD MSTORE PUSH1 0x64 ADD PUSH2 0x5CE JUMP JUMPDEST DUP1 PUSH2 0xA48 JUMPI PUSH1 0x40 MLOAD PUSH3 0x461BCD PUSH1 0xE5 SHL DUP2 MSTORE PUSH1 0x20 PUSH1 0x4 DUP3 ADD MSTORE PUSH1 0x1C PUSH1 0x24 DUP3 ADD MSTORE PUSH32 0x496E76616C696420416363657373436F6E74726F6C4D616E6167657200000000 PUSH1 0x44 DUP3 ADD MSTORE PUSH1 0x64 ADD PUSH2 0x5CE JUMP JUMPDEST POP PUSH2 0xA59 PUSH1 0xE0 DUP4 ADD PUSH1 0xC0 DUP5 ADD PUSH2 0x1EE2 JUMP JUMPDEST PUSH1 0x1 PUSH1 0x1 PUSH1 0xA0 SHL SUB AND PUSH4 0x1FFC9A7 PUSH4 0x1C8B5D5B PUSH1 0xE1 SHL PUSH1 0x40 MLOAD DUP3 PUSH4 0xFFFFFFFF AND PUSH1 0xE0 SHL DUP2 MSTORE PUSH1 0x4 ADD PUSH2 0xA8B SWAP2 SWAP1 PUSH2 0x205F JUMP JUMPDEST PUSH1 0x20 PUSH1 0x40 MLOAD DUP1 DUP4 SUB DUP2 DUP7 GAS STATICCALL SWAP3 POP POP POP DUP1 ISZERO PUSH2 0xAC4 JUMPI POP PUSH1 0x40 DUP1 MLOAD PUSH1 0x1F RETURNDATASIZE SWAP1 DUP2 ADD PUSH1 0x1F NOT AND DUP3 ADD SWAP1 SWAP3 MSTORE PUSH2 0xAC1 SWAP2 DUP2 ADD SWAP1 PUSH2 0x2042 JUMP JUMPDEST PUSH1 0x1 JUMPDEST PUSH2 0xB10 JUMPI PUSH1 0x40 MLOAD PUSH3 0x461BCD PUSH1 0xE5 SHL DUP2 MSTORE PUSH1 0x20 PUSH1 0x4 DUP3 ADD MSTORE PUSH1 0x1A PUSH1 0x24 DUP3 ADD MSTORE PUSH32 0x496C6C6567616C204941737365744D616E616765724552433230000000000000 PUSH1 0x44 DUP3 ADD MSTORE PUSH1 0x64 ADD PUSH2 0x5CE JUMP JUMPDEST DUP1 PUSH2 0xB5D JUMPI PUSH1 0x40 MLOAD PUSH3 0x461BCD PUSH1 0xE5 SHL DUP2 MSTORE PUSH1 0x20 PUSH1 0x4 DUP3 ADD MSTORE PUSH1 0x1A PUSH1 0x24 DUP3 ADD MSTORE PUSH32 0x496E76616C6964204941737365744D616E616765724552433230000000000000 PUSH1 0x44 DUP3 ADD MSTORE PUSH1 0x64 ADD PUSH2 0x5CE JUMP JUMPDEST POP PUSH2 0xB6E PUSH1 0xC0 DUP4 ADD PUSH1 0xA0 DUP5 ADD PUSH2 0x1EE2 JUMP JUMPDEST PUSH1 0x0 DUP1 SLOAD PUSH4 0x1000000 PUSH1 0x1 PUSH1 0xB8 SHL SUB NOT AND PUSH4 0x1000000 PUSH1 0x1 PUSH1 0x1 PUSH1 0xA0 SHL SUB SWAP4 DUP5 AND DUP2 MUL SWAP2 SWAP1 SWAP2 OR SWAP2 DUP3 SWAP1 SSTORE PUSH1 0x40 MLOAD PUSH4 0x2F032EDD PUSH1 0xE0 SHL DUP2 MSTORE PUSH1 0x20 DUP7 ADD CALLDATALOAD PUSH1 0x4 DUP3 ADD MSTORE SWAP2 DIV SWAP1 SWAP2 AND SWAP1 PUSH4 0x2F032EDD SWAP1 PUSH1 0x24 ADD PUSH1 0x20 PUSH1 0x40 MLOAD DUP1 DUP4 SUB DUP2 DUP7 GAS STATICCALL ISZERO DUP1 ISZERO PUSH2 0xBDC JUMPI RETURNDATASIZE PUSH1 0x0 DUP1 RETURNDATACOPY RETURNDATASIZE PUSH1 0x0 REVERT JUMPDEST POP POP POP POP PUSH1 0x40 MLOAD RETURNDATASIZE PUSH1 0x1F NOT PUSH1 0x1F DUP3 ADD AND DUP3 ADD DUP1 PUSH1 0x40 MSTORE POP DUP2 ADD SWAP1 PUSH2 0xC00 SWAP2 SWAP1 PUSH2 0x2042 JUMP JUMPDEST PUSH2 0xC4C JUMPI PUSH1 0x40 MLOAD PUSH3 0x461BCD PUSH1 0xE5 SHL DUP2 MSTORE PUSH1 0x20 PUSH1 0x4 DUP3 ADD MSTORE PUSH1 0x1B PUSH1 0x24 DUP3 ADD MSTORE PUSH32 0x526F6C65204E6F7420466F756E64204F522044697361626C6564200000000000 PUSH1 0x44 DUP3 ADD MSTORE PUSH1 0x64 ADD PUSH2 0x5CE JUMP JUMPDEST DUP2 CALLDATALOAD PUSH1 0x4 SSTORE PUSH2 0xC5E PUSH1 0xE0 DUP4 ADD DUP4 PUSH2 0x2074 JUMP JUMPDEST PUSH1 0x40 MLOAD PUSH1 0x20 ADD PUSH2 0xC6F SWAP3 SWAP2 SWAP1 PUSH2 0x20C2 JUMP JUMPDEST PUSH1 0x40 DUP1 MLOAD PUSH1 0x1F NOT DUP2 DUP5 SUB ADD DUP2 MSTORE SWAP2 SWAP1 MSTORE DUP1 MLOAD PUSH1 0x20 SWAP1 SWAP2 ADD KECCAK256 PUSH1 0x2 SSTORE PUSH2 0xC98 PUSH2 0x100 DUP4 ADD DUP4 PUSH2 0x2074 JUMP JUMPDEST PUSH1 0x40 MLOAD PUSH1 0x20 ADD PUSH2 0xCA9 SWAP3 SWAP2 SWAP1 PUSH2 0x20C2 JUMP JUMPDEST PUSH1 0x40 DUP1 MLOAD PUSH1 0x1F NOT DUP2 DUP5 SUB ADD DUP2 MSTORE SWAP2 SWAP1 MSTORE DUP1 MLOAD PUSH1 0x20 SWAP1 SWAP2 ADD KECCAK256 PUSH1 0x3 SSTORE PUSH2 0xCD4 PUSH1 0xA0 DUP4 ADD PUSH1 0x80 DUP5 ADD PUSH2 0x1EE2 JUMP JUMPDEST PUSH1 0x1 DUP1 SLOAD PUSH1 0x1 PUSH1 0x1 PUSH1 0xA0 SHL SUB NOT AND PUSH1 0x1 PUSH1 0x1 PUSH1 0xA0 SHL SUB SWAP3 SWAP1 SWAP3 AND SWAP2 SWAP1 SWAP2 OR SWAP1 SSTORE PUSH1 0x20 DUP3 ADD CALLDATALOAD PUSH1 0x5 DUP2 SWAP1 SSTORE PUSH1 0x6 DUP1 SLOAD PUSH1 0xFF NOT AND SWAP1 SSTORE PUSH1 0x2 SLOAD PUSH1 0x3 SLOAD PUSH1 0x4 SLOAD PUSH1 0x0 SWAP4 DUP5 SWAP4 PUSH2 0xD48 SWAP4 SWAP1 SWAP3 SWAP1 SWAP2 PUSH1 0x40 DUP10 ADD CALLDATALOAD PUSH2 0xD33 PUSH1 0x80 DUP12 ADD PUSH1 0x60 DUP13 ADD PUSH2 0x1EE2 JUMP JUMPDEST PUSH2 0xD43 PUSH1 0xE0 DUP13 ADD PUSH1 0xC0 DUP14 ADD PUSH2 0x1EE2 JUMP JUMPDEST PUSH2 0x1744 JUMP JUMPDEST PUSH1 0x0 SLOAD SWAP2 SWAP4 POP SWAP2 POP PUSH4 0x1000000 SWAP1 DIV PUSH1 0x1 PUSH1 0x1 PUSH1 0xA0 SHL SUB AND PUSH4 0x7B443379 PUSH2 0xD73 PUSH2 0x120 DUP8 ADD DUP8 PUSH2 0x2074 JUMP JUMPDEST DUP6 DUP6 PUSH1 0x40 MLOAD DUP6 PUSH4 0xFFFFFFFF AND PUSH1 0xE0 SHL DUP2 MSTORE PUSH1 0x4 ADD PUSH2 0xD94 SWAP5 SWAP4 SWAP3 SWAP2 SWAP1 PUSH2 0x21A7 JUMP JUMPDEST PUSH1 0x20 PUSH1 0x40 MLOAD DUP1 DUP4 SUB DUP2 PUSH1 0x0 DUP8 GAS CALL ISZERO DUP1 ISZERO PUSH2 0xDB3 JUMPI RETURNDATASIZE PUSH1 0x0 DUP1 RETURNDATACOPY RETURNDATASIZE PUSH1 0x0 REVERT JUMPDEST POP POP POP POP PUSH1 0x40 MLOAD RETURNDATASIZE PUSH1 0x1F NOT PUSH1 0x1F DUP3 ADD AND DUP3 ADD DUP1 PUSH1 0x40 MSTORE POP DUP2 ADD SWAP1 PUSH2 0xDD7 SWAP2 SWAP1 PUSH2 0x222F JUMP JUMPDEST POP PUSH1 0x1 SLOAD PUSH1 0x1 PUSH1 0x1 PUSH1 0xA0 SHL SUB AND ADDRESS CALLER PUSH32 0x4E149BF06550B750E3AE2AA4B8F3300C462DDB3AF0AE64E461D380004FD39E96 PUSH2 0xE17 PUSH1 0xE0 DUP10 ADD PUSH1 0xC0 DUP11 ADD PUSH2 0x1EE2 JUMP JUMPDEST PUSH2 0xE27 PUSH1 0x80 DUP11 ADD PUSH1 0x60 DUP12 ADD PUSH2 0x1EE2 JUMP JUMPDEST PUSH2 0xE34 PUSH1 0xE0 DUP12 ADD DUP12 PUSH2 0x2074 JUMP JUMPDEST PUSH2 0xE42 PUSH2 0x100 DUP14 ADD DUP14 PUSH2 0x2074 JUMP JUMPDEST PUSH1 0x4 SLOAD PUSH1 0x5 SLOAD PUSH1 0x40 MLOAD PUSH2 0xE5C SWAP9 SWAP8 SWAP7 SWAP6 SWAP5 SWAP4 SWAP3 SWAP2 SWAP1 PUSH2 0x2248 JUMP JUMPDEST PUSH1 0x40 MLOAD DUP1 SWAP2 SUB SWAP1 LOG4 POP POP DUP1 ISZERO PUSH2 0xE79 JUMPI PUSH1 0x0 DUP1 SLOAD PUSH3 0xFF0000 NOT AND SWAP1 SSTORE JUMPDEST POP POP JUMP JUMPDEST PUSH1 0x0 PUSH2 0xE8F PUSH4 0x3466D7F3 PUSH1 0xE1 SHL PUSH2 0x161A JUMP JUMPDEST PUSH1 0x40 MLOAD PUSH4 0x3466D7F3 PUSH1 0xE1 SHL SWAP1 ADDRESS SWAP1 CALLER SWAP1 PUSH1 0x0 DUP1 MLOAD PUSH1 0x20 PUSH2 0x251F DUP4 CODECOPY DUP2 MLOAD SWAP2 MSTORE SWAP1 PUSH1 0x0 SWAP1 LOG4 PUSH1 0x1 SLOAD PUSH1 0x40 MLOAD PUSH4 0xA9059CBB PUSH1 0xE0 SHL DUP2 MSTORE PUSH1 0x1 PUSH1 0x1 PUSH1 0xA0 SHL SUB DUP6 DUP2 AND PUSH1 0x4 DUP4 ADD MSTORE PUSH1 0x24 DUP3 ADD DUP6 SWAP1 MSTORE SWAP1 SWAP2 AND SWAP1 PUSH4 0xA9059CBB SWAP1 PUSH1 0x44 ADD PUSH2 0x4FF JUMP JUMPDEST PUSH1 0x60 PUSH2 0xEFE PUSH4 0x3862AE01 PUSH1 0xE1 SHL PUSH2 0x161A JUMP JUMPDEST PUSH1 0x0 JUMPDEST DUP3 DUP2 LT ISZERO PUSH2 0xF92 JUMPI ADDRESS DUP5 DUP5 DUP4 DUP2 DUP2 LT PUSH2 0xF1C JUMPI PUSH2 0xF1C PUSH2 0x22A0 JUMP JUMPDEST PUSH2 0xF32 SWAP3 PUSH1 0x20 PUSH1 0x80 SWAP1 SWAP3 MUL ADD SWAP1 DUP2 ADD SWAP2 POP PUSH2 0x1EE2 JUMP JUMPDEST PUSH1 0x1 PUSH1 0x1 PUSH1 0xA0 SHL SUB AND EQ PUSH2 0xF80 JUMPI PUSH1 0x40 MLOAD PUSH3 0x461BCD PUSH1 0xE5 SHL DUP2 MSTORE PUSH1 0x20 PUSH1 0x4 DUP3 ADD MSTORE PUSH1 0x15 PUSH1 0x24 DUP3 ADD MSTORE PUSH21 0x496C6C6567616C20536F7572636520416464726573 PUSH1 0x58 SHL PUSH1 0x44 DUP3 ADD MSTORE PUSH1 0x64 ADD PUSH2 0x5CE JUMP JUMPDEST DUP1 PUSH2 0xF8A DUP2 PUSH2 0x22B6 JUMP JUMPDEST SWAP2 POP POP PUSH2 0xF01 JUMP JUMPDEST POP PUSH1 0x40 MLOAD PUSH4 0x3862AE01 PUSH1 0xE1 SHL SWAP1 ADDRESS SWAP1 CALLER SWAP1 PUSH1 0x0 DUP1 MLOAD PUSH1 0x20 PUSH2 0x251F DUP4 CODECOPY DUP2 MLOAD SWAP2 MSTORE SWAP1 PUSH1 0x0 SWAP1 LOG4 PUSH1 0x1 SLOAD PUSH1 0x40 MLOAD PUSH4 0x9A7E1873 PUSH1 0xE0 SHL DUP2 MSTORE PUSH1 0x1 PUSH1 0x1 PUSH1 0xA0 SHL SUB SWAP1 SWAP2 AND SWAP1 PUSH4 0x9A7E1873 SWAP1 PUSH2 0xFE9 SWAP1 DUP7 SWAP1 DUP7 SWAP1 PUSH1 0x4 ADD PUSH2 0x231B JUMP JUMPDEST PUSH1 0x0 PUSH1 0x40 MLOAD DUP1 DUP4 SUB DUP2 PUSH1 0x0 DUP8 GAS CALL ISZERO DUP1 ISZERO PUSH2 0x1008 JUMPI RETURNDATASIZE PUSH1 0x0 DUP1 RETURNDATACOPY RETURNDATASIZE PUSH1 0x0 REVERT JUMPDEST POP POP POP POP PUSH1 0x40 MLOAD RETURNDATASIZE PUSH1 0x0 DUP3 RETURNDATACOPY PUSH1 0x1F RETURNDATASIZE SWAP1 DUP2 ADD PUSH1 0x1F NOT AND DUP3 ADD PUSH1 0x40 MSTORE PUSH2 0x542 SWAP2 SWAP1 DUP2 ADD SWAP1 PUSH2 0x2373 JUMP JUMPDEST PUSH2 0x1040 PUSH4 0x756AF45F PUSH1 0xE0 SHL PUSH2 0x161A JUMP JUMPDEST PUSH1 0x40 MLOAD PUSH1 0x1 PUSH1 0x1 PUSH1 0xA0 SHL SUB DUP3 AND SWAP1 SELFBALANCE DUP1 ISZERO PUSH2 0x8FC MUL SWAP2 PUSH1 0x0 DUP2 DUP2 DUP2 DUP6 DUP9 DUP9 CALL SWAP4 POP POP POP POP ISZERO DUP1 ISZERO PUSH2 0xE79 JUMPI RETURNDATASIZE PUSH1 0x0 DUP1 RETURNDATACOPY RETURNDATASIZE PUSH1 0x0 REVERT JUMPDEST PUSH1 0x0 PUSH2 0x1087 PUSH4 0x108D3039 PUSH1 0xE3 SHL PUSH2 0x161A JUMP JUMPDEST ADDRESS PUSH2 0x1095 PUSH1 0x20 DUP5 ADD DUP5 PUSH2 0x1EE2 JUMP JUMPDEST PUSH1 0x1 PUSH1 0x1 PUSH1 0xA0 SHL SUB AND EQ PUSH2 0x10E3 JUMPI PUSH1 0x40 MLOAD PUSH3 0x461BCD PUSH1 0xE5 SHL DUP2 MSTORE PUSH1 0x20 PUSH1 0x4 DUP3 ADD MSTORE PUSH1 0x15 PUSH1 0x24 DUP3 ADD MSTORE PUSH21 0x496C6C6567616C20536F7572636520416464726573 PUSH1 0x58 SHL PUSH1 0x44 DUP3 ADD MSTORE PUSH1 0x64 ADD PUSH2 0x5CE JUMP JUMPDEST PUSH1 0x40 MLOAD PUSH4 0x108D3039 PUSH1 0xE3 SHL SWAP1 ADDRESS SWAP1 CALLER SWAP1 PUSH1 0x0 DUP1 MLOAD PUSH1 0x20 PUSH2 0x251F DUP4 CODECOPY DUP2 MLOAD SWAP2 MSTORE SWAP1 PUSH1 0x0 SWAP1 LOG4 PUSH1 0x1 SLOAD PUSH1 0x40 MLOAD PUSH4 0x35C1CA49 PUSH1 0xE1 SHL DUP2 MSTORE PUSH1 0x1 PUSH1 0x1 PUSH1 0xA0 SHL SUB SWAP1 SWAP2 AND SWAP1 PUSH4 0x6B839492 SWAP1 PUSH2 0x1137 SWAP1 DUP6 SWAP1 PUSH1 0x4 ADD PUSH2 0x2431 JUMP JUMPDEST PUSH1 0x20 PUSH1 0x40 MLOAD DUP1 DUP4 SUB DUP2 PUSH1 0x0 DUP8 GAS CALL ISZERO DUP1 ISZERO PUSH2 0x1156 JUMPI RETURNDATASIZE PUSH1 0x0 DUP1 RETURNDATACOPY RETURNDATASIZE PUSH1 0x0 REVERT JUMPDEST POP POP POP POP PUSH1 0x40 MLOAD RETURNDATASIZE PUSH1 0x1F NOT PUSH1 0x1F DUP3 ADD AND DUP3 ADD DUP1 PUSH1 0x40 MSTORE POP DUP2 ADD SWAP1 PUSH2 0x48E SWAP2 SWAP1 PUSH2 0x222F JUMP JUMPDEST PUSH1 0x0 PUSH2 0x118C PUSH4 0x4B0CBA5D PUSH1 0xE1 SHL PUSH2 0x161A JUMP JUMPDEST PUSH1 0x40 MLOAD PUSH4 0x4B0CBA5D PUSH1 0xE1 SHL SWAP1 ADDRESS SWAP1 CALLER SWAP1 PUSH1 0x0 DUP1 MLOAD PUSH1 0x20 PUSH2 0x251F DUP4 CODECOPY DUP2 MLOAD SWAP2 MSTORE SWAP1 PUSH1 0x0 SWAP1 LOG4 PUSH1 0x1 SLOAD PUSH1 0x40 MLOAD PUSH4 0x23B872DD PUSH1 0xE0 SHL DUP2 MSTORE PUSH1 0x1 PUSH1 0x1 PUSH1 0xA0 SHL SUB DUP7 DUP2 AND PUSH1 0x4 DUP4 ADD MSTORE DUP6 DUP2 AND PUSH1 0x24 DUP4 ADD MSTORE PUSH1 0x44 DUP3 ADD DUP6 SWAP1 MSTORE SWAP1 SWAP2 AND SWAP1 PUSH4 0x23B872DD SWAP1 PUSH1 0x64 ADD PUSH1 0x20 PUSH1 0x40 MLOAD DUP1 DUP4 SUB DUP2 PUSH1 0x0 DUP8 GAS CALL ISZERO DUP1 ISZERO PUSH2 0x120B JUMPI RETURNDATASIZE PUSH1 0x0 DUP1 RETURNDATACOPY RETURNDATASIZE PUSH1 0x0 REVERT JUMPDEST POP POP POP POP PUSH1 0x40 MLOAD RETURNDATASIZE PUSH1 0x1F NOT PUSH1 0x1F DUP3 ADD AND DUP3 ADD DUP1 PUSH1 0x40 MSTORE POP DUP2 ADD SWAP1 PUSH2 0x122F SWAP2 SWAP1 PUSH2 0x2042 JUMP JUMPDEST SWAP5 SWAP4 POP POP POP POP JUMP JUMPDEST PUSH1 0x0 PUSH2 0x1249 PUSH4 0x2710B17B PUSH1 0xE2 SHL PUSH2 0x161A JUMP JUMPDEST PUSH1 0x40 MLOAD PUSH4 0x2710B17B PUSH1 0xE2 SHL SWAP1 ADDRESS SWAP1 CALLER SWAP1 PUSH1 0x0 DUP1 MLOAD PUSH1 0x20 PUSH2 0x251F DUP4 CODECOPY DUP2 MLOAD SWAP2 MSTORE SWAP1 PUSH1 0x0 SWAP1 LOG4 PUSH1 0x1 SLOAD PUSH1 0x40 MLOAD PUSH4 0x38D251D PUSH1 0xE3 SHL DUP2 MSTORE PUSH1 0x1 PUSH1 0x1 PUSH1 0xA0 SHL SUB SWAP1 SWAP2 AND SWAP1 PUSH4 0x1C6928E8 SWAP1 PUSH2 0x4FF SWAP1 DUP7 SWAP1 DUP7 SWAP1 PUSH1 0x4 ADD PUSH2 0x243F JUMP JUMPDEST SWAP1 POP SWAP1 JUMP JUMPDEST PUSH1 0x1 SLOAD PUSH1 0x40 MLOAD PUSH4 0x70A08231 PUSH1 0xE0 SHL DUP2 MSTORE ADDRESS PUSH1 0x4 DUP3 ADD MSTORE PUSH1 0x0 SWAP2 PUSH1 0x1 PUSH1 0x1 PUSH1 0xA0 SHL SUB AND SWAP1 PUSH4 0x70A08231 SWAP1 PUSH1 0x24 ADD PUSH1 0x20 PUSH1 0x40 MLOAD DUP1 DUP4 SUB DUP2 DUP7 GAS STATICCALL ISZERO DUP1 ISZERO PUSH2 0x12ED JUMPI RETURNDATASIZE PUSH1 0x0 DUP1 RETURNDATACOPY RETURNDATASIZE PUSH1 0x0 REVERT JUMPDEST POP POP POP POP PUSH1 0x40 MLOAD RETURNDATASIZE PUSH1 0x1F NOT PUSH1 0x1F DUP3 ADD AND DUP3 ADD DUP1 PUSH1 0x40 MSTORE POP DUP2 ADD SWAP1 PUSH2 0x129F SWAP2 SWAP1 PUSH2 0x222F JUMP JUMPDEST PUSH1 0x0 PUSH2 0x1323 PUSH4 0x5297473 PUSH1 0xE5 SHL PUSH2 0x161A JUMP JUMPDEST PUSH1 0x40 MLOAD PUSH4 0x5297473 PUSH1 0xE5 SHL SWAP1 ADDRESS SWAP1 CALLER SWAP1 PUSH1 0x0 DUP1 MLOAD PUSH1 0x20 PUSH2 0x251F DUP4 CODECOPY DUP2 MLOAD SWAP2 MSTORE SWAP1 PUSH1 0x0 SWAP1 LOG4 PUSH1 0x1 SLOAD PUSH1 0x40 MLOAD PUSH4 0xA457C2D7 PUSH1 0xE0 SHL DUP2 MSTORE PUSH1 0x1 PUSH1 0x1 PUSH1 0xA0 SHL SUB DUP6 DUP2 AND PUSH1 0x4 DUP4 ADD MSTORE PUSH1 0x24 DUP3 ADD DUP6 SWAP1 MSTORE SWAP1 SWAP2 AND SWAP1 PUSH4 0xA457C2D7 SWAP1 PUSH1 0x44 ADD JUMPDEST PUSH1 0x20 PUSH1 0x40 MLOAD DUP1 DUP4 SUB DUP2 PUSH1 0x0 DUP8 GAS CALL ISZERO DUP1 ISZERO PUSH2 0x139B JUMPI RETURNDATASIZE PUSH1 0x0 DUP1 RETURNDATACOPY RETURNDATASIZE PUSH1 0x0 REVERT JUMPDEST POP POP POP POP PUSH1 0x40 MLOAD RETURNDATASIZE PUSH1 0x1F NOT PUSH1 0x1F DUP3 ADD AND DUP3 ADD DUP1 PUSH1 0x40 MSTORE POP DUP2 ADD SWAP1 PUSH2 0x542 SWAP2 SWAP1 PUSH2 0x222F JUMP JUMPDEST PUSH1 0x0 DUP1 SLOAD PUSH4 0x1000000 SWAP1 DIV PUSH1 0x1 PUSH1 0x1 PUSH1 0xA0 SHL SUB AND PUSH4 0xC7AB39E6 PUSH2 0x13E1 ADDRESS PUSH2 0x1D16 JUMP JUMPDEST CALLER PUSH1 0x40 MLOAD PUSH1 0x1 PUSH1 0x1 PUSH1 0xE0 SHL SUB NOT PUSH1 0xE0 DUP6 SWAP1 SHL AND DUP2 MSTORE PUSH2 0x140D SWAP3 SWAP2 SWAP1 PUSH4 0x6DE16C29 PUSH1 0xE1 SHL SWAP1 PUSH1 0x4 ADD PUSH2 0x24AB JUMP JUMPDEST PUSH1 0x20 PUSH1 0x40 MLOAD DUP1 DUP4 SUB DUP2 DUP7 GAS STATICCALL ISZERO DUP1 ISZERO PUSH2 0x142A JUMPI RETURNDATASIZE PUSH1 0x0 DUP1 RETURNDATACOPY RETURNDATASIZE PUSH1 0x0 REVERT JUMPDEST POP POP POP POP PUSH1 0x40 MLOAD RETURNDATASIZE PUSH1 0x1F NOT PUSH1 0x1F DUP3 ADD AND DUP3 ADD DUP1 PUSH1 0x40 MSTORE POP DUP2 ADD SWAP1 PUSH2 0x144E SWAP2 SWAP1 PUSH2 0x2042 JUMP JUMPDEST PUSH2 0x1495 JUMPI PUSH1 0x40 MLOAD PUSH3 0x461BCD PUSH1 0xE5 SHL DUP2 MSTORE PUSH1 0x20 PUSH1 0x4 DUP3 ADD MSTORE PUSH1 0x18 PUSH1 0x24 DUP3 ADD MSTORE PUSH24 0x105CDCD95D115490CC8C081058D8D95CDCC811195B9A5959 PUSH1 0x42 SHL PUSH1 0x44 DUP3 ADD MSTORE PUSH1 0x64 ADD PUSH2 0x5CE JUMP JUMPDEST PUSH1 0x0 SLOAD PUSH2 0xFFFF AND PUSH2 0x14E8 JUMPI PUSH1 0x40 MLOAD PUSH3 0x461BCD PUSH1 0xE5 SHL DUP2 MSTORE PUSH1 0x20 PUSH1 0x4 DUP3 ADD MSTORE PUSH1 0x1A PUSH1 0x24 DUP3 ADD MSTORE PUSH32 0x41737365744552433230204E6F7420496E697469616C697A6564000000000000 PUSH1 0x44 DUP3 ADD MSTORE PUSH1 0x64 ADD PUSH2 0x5CE JUMP JUMPDEST PUSH1 0x6 DUP1 SLOAD PUSH1 0xFF NOT AND DUP4 ISZERO ISZERO OR SWAP1 SSTORE PUSH1 0x4 SLOAD ADDRESS CALLER PUSH1 0x1 PUSH1 0x1 PUSH1 0xA0 SHL SUB AND PUSH32 0x81142A54C3126B9C1789BD912322ADCCA4D73A5010D8049EAA6D63AB4C0B5154 DUP6 PUSH1 0x40 MLOAD PUSH2 0x1537 SWAP2 ISZERO ISZERO DUP2 MSTORE PUSH1 0x20 ADD SWAP1 JUMP JUMPDEST PUSH1 0x40 MLOAD DUP1 SWAP2 SUB SWAP1 LOG4 POP SWAP1 JUMP JUMPDEST PUSH1 0x0 PUSH2 0x1555 PUSH4 0xE9DBEBBD PUSH1 0xE0 SHL PUSH2 0x161A JUMP JUMPDEST PUSH1 0x40 MLOAD PUSH4 0xE9DBEBBD PUSH1 0xE0 SHL SWAP1 ADDRESS SWAP1 CALLER SWAP1 PUSH1 0x0 DUP1 MLOAD PUSH1 0x20 PUSH2 0x251F DUP4 CODECOPY DUP2 MLOAD SWAP2 MSTORE SWAP1 PUSH1 0x0 SWAP1 LOG4 PUSH1 0x1 SLOAD PUSH1 0x40 MLOAD PUSH4 0x1F54AA55 PUSH1 0xE3 SHL DUP2 MSTORE PUSH1 0x1 PUSH1 0x1 PUSH1 0xA0 SHL SUB SWAP1 SWAP2 AND SWAP1 PUSH4 0xFAA552A8 SWAP1 PUSH2 0x4FF SWAP1 DUP7 SWAP1 DUP7 SWAP1 PUSH1 0x4 ADD PUSH2 0x24D4 JUMP JUMPDEST PUSH1 0x0 PUSH2 0x15BD PUSH4 0x3F149019 PUSH1 0xE2 SHL PUSH2 0x161A JUMP JUMPDEST PUSH1 0x40 MLOAD PUSH4 0x3F149019 PUSH1 0xE2 SHL SWAP1 ADDRESS SWAP1 CALLER SWAP1 PUSH1 0x0 DUP1 MLOAD PUSH1 0x20 PUSH2 0x251F DUP4 CODECOPY DUP2 MLOAD SWAP2 MSTORE SWAP1 PUSH1 0x0 SWAP1 LOG4 PUSH1 0x1 SLOAD PUSH1 0x40 MLOAD PUSH4 0x39509351 PUSH1 0xE0 SHL DUP2 MSTORE PUSH1 0x1 PUSH1 0x1 PUSH1 0xA0 SHL SUB DUP6 DUP2 AND PUSH1 0x4 DUP4 ADD MSTORE PUSH1 0x24 DUP3 ADD DUP6 SWAP1 MSTORE SWAP1 SWAP2 AND SWAP1 PUSH4 0x39509351 SWAP1 PUSH1 0x44 ADD PUSH2 0x137C JUMP JUMPDEST PUSH1 0x6 SLOAD PUSH1 0xFF AND ISZERO PUSH2 0x1678 JUMPI PUSH1 0x40 MLOAD PUSH3 0x461BCD PUSH1 0xE5 SHL DUP2 MSTORE PUSH1 0x20 PUSH1 0x4 DUP3 ADD MSTORE PUSH1 0x22 PUSH1 0x24 DUP3 ADD MSTORE PUSH32 0x536166654D6F64653A20417373657445524332302043616C6C2052656A656374 PUSH1 0x44 DUP3 ADD MSTORE PUSH2 0x1959 PUSH1 0xF2 SHL PUSH1 0x64 DUP3 ADD MSTORE PUSH1 0x84 ADD PUSH2 0x5CE JUMP JUMPDEST PUSH1 0x0 SLOAD PUSH4 0x1000000 SWAP1 DIV PUSH1 0x1 PUSH1 0x1 PUSH1 0xA0 SHL SUB AND PUSH4 0xC7AB39E6 PUSH2 0x1699 ADDRESS PUSH2 0x1D16 JUMP JUMPDEST CALLER DUP5 PUSH1 0x40 MLOAD DUP5 PUSH4 0xFFFFFFFF AND PUSH1 0xE0 SHL DUP2 MSTORE PUSH1 0x4 ADD PUSH2 0x16B9 SWAP4 SWAP3 SWAP2 SWAP1 PUSH2 0x24AB JUMP JUMPDEST PUSH1 0x20 PUSH1 0x40 MLOAD DUP1 DUP4 SUB DUP2 DUP7 GAS STATICCALL ISZERO DUP1 ISZERO PUSH2 0x16D6 JUMPI RETURNDATASIZE PUSH1 0x0 DUP1 RETURNDATACOPY RETURNDATASIZE PUSH1 0x0 REVERT JUMPDEST POP POP POP POP PUSH1 0x40 MLOAD RETURNDATASIZE PUSH1 0x1F NOT PUSH1 0x1F DUP3 ADD AND DUP3 ADD DUP1 PUSH1 0x40 MSTORE POP DUP2 ADD SWAP1 PUSH2 0x16FA SWAP2 SWAP1 PUSH2 0x2042 JUMP JUMPDEST PUSH2 0x1741 JUMPI PUSH1 0x40 MLOAD PUSH3 0x461BCD PUSH1 0xE5 SHL DUP2 MSTORE PUSH1 0x20 PUSH1 0x4 DUP3 ADD MSTORE PUSH1 0x18 PUSH1 0x24 DUP3 ADD MSTORE PUSH24 0x105CDCD95D115490CC8C081058D8D95CDCC811195B9A5959 PUSH1 0x42 SHL PUSH1 0x44 DUP3 ADD MSTORE PUSH1 0x64 ADD PUSH2 0x5CE JUMP JUMPDEST POP JUMP JUMPDEST PUSH1 0x40 DUP1 MLOAD PUSH1 0xE0 DUP2 ADD DUP3 MSTORE PUSH1 0x0 DUP1 DUP3 MSTORE PUSH1 0x20 DUP3 ADD DUP2 SWAP1 MSTORE DUP2 DUP4 ADD DUP2 SWAP1 MSTORE PUSH1 0x60 DUP1 DUP4 ADD DUP3 SWAP1 MSTORE PUSH1 0x80 DUP4 ADD DUP3 SWAP1 MSTORE PUSH1 0xA0 DUP4 ADD DUP3 SWAP1 MSTORE PUSH1 0xC0 DUP4 ADD DUP3 SWAP1 MSTORE DUP4 MLOAD PUSH1 0x2 DUP1 DUP3 MSTORE DUP2 DUP4 ADD SWAP1 SWAP6 MSTORE SWAP3 SWAP4 SWAP1 SWAP3 SWAP1 DUP2 PUSH1 0x20 ADD JUMPDEST PUSH1 0x40 DUP1 MLOAD PUSH1 0x60 DUP1 DUP3 ADD DUP4 MSTORE PUSH1 0x0 DUP1 DUP4 MSTORE PUSH1 0x20 DUP4 ADD SWAP2 SWAP1 SWAP2 MSTORE SWAP2 DUP2 ADD SWAP2 SWAP1 SWAP2 MSTORE DUP2 MSTORE PUSH1 0x20 ADD SWAP1 PUSH1 0x1 SWAP1 SUB SWAP1 DUP2 PUSH2 0x1794 JUMPI SWAP1 POP POP PUSH1 0x40 MLOAD PUSH32 0x4C4956454C595F41535345545F41444D494E5F524F4C45000000000000000000 PUSH1 0x20 DUP3 ADD MSTORE SWAP1 SWAP2 POP PUSH1 0x37 ADD PUSH1 0x40 MLOAD PUSH1 0x20 DUP2 DUP4 SUB SUB DUP2 MSTORE SWAP1 PUSH1 0x40 MSTORE DUP1 MLOAD SWAP1 PUSH1 0x20 ADD KECCAK256 DUP2 PUSH1 0x0 DUP2 MLOAD DUP2 LT PUSH2 0x181E JUMPI PUSH2 0x181E PUSH2 0x22A0 JUMP JUMPDEST PUSH1 0x20 MUL PUSH1 0x20 ADD ADD MLOAD PUSH1 0x0 ADD DUP2 DUP2 MSTORE POP POP PUSH1 0x1 DUP2 PUSH1 0x0 DUP2 MLOAD DUP2 LT PUSH2 0x1843 JUMPI PUSH2 0x1843 PUSH2 0x22A0 JUMP JUMPDEST PUSH1 0x20 SWAP1 DUP2 MUL SWAP2 SWAP1 SWAP2 ADD ADD MLOAD SWAP1 ISZERO ISZERO PUSH1 0x40 SWAP2 DUP3 ADD MSTORE DUP1 MLOAD PUSH1 0x1 DUP1 DUP3 MSTORE DUP2 DUP4 ADD SWAP1 SWAP3 MSTORE SWAP1 DUP2 PUSH1 0x20 ADD PUSH1 0x20 DUP3 MUL DUP1 CALLDATASIZE DUP4 CALLDATACOPY ADD SWAP1 POP POP DUP2 PUSH1 0x0 DUP2 MLOAD DUP2 LT PUSH2 0x1888 JUMPI PUSH2 0x1888 PUSH2 0x22A0 JUMP JUMPDEST PUSH1 0x20 MUL PUSH1 0x20 ADD ADD MLOAD PUSH1 0x20 ADD DUP2 SWAP1 MSTORE POP PUSH4 0xDBC2D852 PUSH1 0xE0 SHL DUP2 PUSH1 0x0 DUP2 MLOAD DUP2 LT PUSH2 0x18B2 JUMPI PUSH2 0x18B2 PUSH2 0x22A0 JUMP JUMPDEST PUSH1 0x20 MUL PUSH1 0x20 ADD ADD MLOAD PUSH1 0x20 ADD MLOAD PUSH1 0x0 DUP2 MLOAD DUP2 LT PUSH2 0x18D0 JUMPI PUSH2 0x18D0 PUSH2 0x22A0 JUMP JUMPDEST PUSH1 0x20 MUL PUSH1 0x20 ADD ADD SWAP1 PUSH1 0x1 PUSH1 0x1 PUSH1 0xE0 SHL SUB NOT AND SWAP1 DUP2 PUSH1 0x1 PUSH1 0x1 PUSH1 0xE0 SHL SUB NOT AND DUP2 MSTORE POP POP DUP7 DUP2 PUSH1 0x1 DUP2 MLOAD DUP2 LT PUSH2 0x1906 JUMPI PUSH2 0x1906 PUSH2 0x22A0 JUMP JUMPDEST PUSH1 0x20 MUL PUSH1 0x20 ADD ADD MLOAD PUSH1 0x0 ADD DUP2 DUP2 MSTORE POP POP PUSH1 0x1 DUP2 PUSH1 0x1 DUP2 MLOAD DUP2 LT PUSH2 0x192B JUMPI PUSH2 0x192B PUSH2 0x22A0 JUMP JUMPDEST PUSH1 0x20 SWAP1 DUP2 MUL SWAP2 SWAP1 SWAP2 ADD DUP2 ADD MLOAD SWAP2 ISZERO ISZERO PUSH1 0x40 SWAP3 DUP4 ADD MSTORE DUP2 MLOAD PUSH1 0xA DUP1 DUP3 MSTORE PUSH2 0x160 DUP3 ADD SWAP1 SWAP4 MSTORE SWAP2 SWAP1 DUP3 ADD PUSH2 0x140 DUP1 CALLDATASIZE DUP4 CALLDATACOPY ADD SWAP1 POP POP DUP2 PUSH1 0x1 DUP2 MLOAD DUP2 LT PUSH2 0x1971 JUMPI PUSH2 0x1971 PUSH2 0x22A0 JUMP JUMPDEST PUSH1 0x20 MUL PUSH1 0x20 ADD ADD MLOAD PUSH1 0x20 ADD DUP2 SWAP1 MSTORE POP PUSH4 0x846981C8 PUSH1 0xE0 SHL DUP2 PUSH1 0x1 DUP2 MLOAD DUP2 LT PUSH2 0x199B JUMPI PUSH2 0x199B PUSH2 0x22A0 JUMP JUMPDEST PUSH1 0x20 MUL PUSH1 0x20 ADD ADD MLOAD PUSH1 0x20 ADD MLOAD PUSH1 0x0 DUP2 MLOAD DUP2 LT PUSH2 0x19B9 JUMPI PUSH2 0x19B9 PUSH2 0x22A0 JUMP JUMPDEST PUSH1 0x1 PUSH1 0x1 PUSH1 0xE0 SHL SUB NOT SWAP1 SWAP3 AND PUSH1 0x20 SWAP3 DUP4 MUL SWAP2 SWAP1 SWAP2 ADD SWAP1 SWAP2 ADD MSTORE DUP1 MLOAD PUSH4 0x3862AE01 PUSH1 0xE1 SHL SWAP1 DUP3 SWAP1 PUSH1 0x1 SWAP1 DUP2 LT PUSH2 0x19F0 JUMPI PUSH2 0x19F0 PUSH2 0x22A0 JUMP JUMPDEST PUSH1 0x20 MUL PUSH1 0x20 ADD ADD MLOAD PUSH1 0x20 ADD MLOAD PUSH1 0x1 DUP2 MLOAD DUP2 LT PUSH2 0x1A0E JUMPI PUSH2 0x1A0E PUSH2 0x22A0 JUMP JUMPDEST PUSH1 0x1 PUSH1 0x1 PUSH1 0xE0 SHL SUB NOT SWAP1 SWAP3 AND PUSH1 0x20 SWAP3 DUP4 MUL SWAP2 SWAP1 SWAP2 ADD SWAP1 SWAP2 ADD MSTORE DUP1 MLOAD PUSH4 0x3466D7F3 PUSH1 0xE1 SHL SWAP1 DUP3 SWAP1 PUSH1 0x1 SWAP1 DUP2 LT PUSH2 0x1A45 JUMPI PUSH2 0x1A45 PUSH2 0x22A0 JUMP JUMPDEST PUSH1 0x20 MUL PUSH1 0x20 ADD ADD MLOAD PUSH1 0x20 ADD MLOAD PUSH1 0x2 DUP2 MLOAD DUP2 LT PUSH2 0x1A63 JUMPI PUSH2 0x1A63 PUSH2 0x22A0 JUMP JUMPDEST PUSH1 0x1 PUSH1 0x1 PUSH1 0xE0 SHL SUB NOT SWAP1 SWAP3 AND PUSH1 0x20 SWAP3 DUP4 MUL SWAP2 SWAP1 SWAP2 ADD SWAP1 SWAP2 ADD MSTORE DUP1 MLOAD PUSH4 0xE9DBEBBD PUSH1 0xE0 SHL SWAP1 DUP3 SWAP1 PUSH1 0x1 SWAP1 DUP2 LT PUSH2 0x1A9A JUMPI PUSH2 0x1A9A PUSH2 0x22A0 JUMP JUMPDEST PUSH1 0x20 MUL PUSH1 0x20 ADD ADD MLOAD PUSH1 0x20 ADD MLOAD PUSH1 0x3 DUP2 MLOAD DUP2 LT PUSH2 0x1AB8 JUMPI PUSH2 0x1AB8 PUSH2 0x22A0 JUMP JUMPDEST PUSH1 0x1 PUSH1 0x1 PUSH1 0xE0 SHL SUB NOT SWAP1 SWAP3 AND PUSH1 0x20 SWAP3 DUP4 MUL SWAP2 SWAP1 SWAP2 ADD SWAP1 SWAP2 ADD MSTORE DUP1 MLOAD PUSH4 0x4B0CBA5D PUSH1 0xE1 SHL SWAP1 DUP3 SWAP1 PUSH1 0x1 SWAP1 DUP2 LT PUSH2 0x1AEF JUMPI PUSH2 0x1AEF PUSH2 0x22A0 JUMP JUMPDEST PUSH1 0x20 MUL PUSH1 0x20 ADD ADD MLOAD PUSH1 0x20 ADD MLOAD PUSH1 0x4 DUP2 MLOAD DUP2 LT PUSH2 0x1B0D JUMPI PUSH2 0x1B0D PUSH2 0x22A0 JUMP JUMPDEST PUSH1 0x1 PUSH1 0x1 PUSH1 0xE0 SHL SUB NOT SWAP1 SWAP3 AND PUSH1 0x20 SWAP3 DUP4 MUL SWAP2 SWAP1 SWAP2 ADD SWAP1 SWAP2 ADD MSTORE DUP1 MLOAD PUSH4 0x2710B17B PUSH1 0xE2 SHL SWAP1 DUP3 SWAP1 PUSH1 0x1 SWAP1 DUP2 LT PUSH2 0x1B44 JUMPI PUSH2 0x1B44 PUSH2 0x22A0 JUMP JUMPDEST PUSH1 0x20 MUL PUSH1 0x20 ADD ADD MLOAD PUSH1 0x20 ADD MLOAD PUSH1 0x5 DUP2 MLOAD DUP2 LT PUSH2 0x1B62 JUMPI PUSH2 0x1B62 PUSH2 0x22A0 JUMP JUMPDEST PUSH1 0x1 PUSH1 0x1 PUSH1 0xE0 SHL SUB NOT SWAP1 SWAP3 AND PUSH1 0x20 SWAP3 DUP4 MUL SWAP2 SWAP1 SWAP2 ADD SWAP1 SWAP2 ADD MSTORE DUP1 MLOAD PUSH4 0xCD689F5 PUSH1 0xE0 SHL SWAP1 DUP3 SWAP1 PUSH1 0x1 SWAP1 DUP2 LT PUSH2 0x1B99 JUMPI PUSH2 0x1B99 PUSH2 0x22A0 JUMP JUMPDEST PUSH1 0x20 MUL PUSH1 0x20 ADD ADD MLOAD PUSH1 0x20 ADD MLOAD PUSH1 0x6 DUP2 MLOAD DUP2 LT PUSH2 0x1BB7 JUMPI PUSH2 0x1BB7 PUSH2 0x22A0 JUMP JUMPDEST PUSH1 0x1 PUSH1 0x1 PUSH1 0xE0 SHL SUB NOT SWAP1 SWAP3 AND PUSH1 0x20 SWAP3 DUP4 MUL SWAP2 SWAP1 SWAP2 ADD SWAP1 SWAP2 ADD MSTORE DUP1 MLOAD PUSH4 0x3F149019 PUSH1 0xE2 SHL SWAP1 DUP3 SWAP1 PUSH1 0x1 SWAP1 DUP2 LT PUSH2 0x1BEE JUMPI PUSH2 0x1BEE PUSH2 0x22A0 JUMP JUMPDEST PUSH1 0x20 MUL PUSH1 0x20 ADD ADD MLOAD PUSH1 0x20 ADD MLOAD PUSH1 0x7 DUP2 MLOAD DUP2 LT PUSH2 0x1C0C JUMPI PUSH2 0x1C0C PUSH2 0x22A0 JUMP JUMPDEST PUSH1 0x1 PUSH1 0x1 PUSH1 0xE0 SHL SUB NOT SWAP1 SWAP3 AND PUSH1 0x20 SWAP3 DUP4 MUL SWAP2 SWAP1 SWAP2 ADD SWAP1 SWAP2 ADD MSTORE DUP1 MLOAD PUSH4 0x5297473 PUSH1 0xE5 SHL SWAP1 DUP3 SWAP1 PUSH1 0x1 SWAP1 DUP2 LT PUSH2 0x1C43 JUMPI PUSH2 0x1C43 PUSH2 0x22A0 JUMP JUMPDEST PUSH1 0x20 MUL PUSH1 0x20 ADD ADD MLOAD PUSH1 0x20 ADD MLOAD PUSH1 0x8 DUP2 MLOAD DUP2 LT PUSH2 0x1C61 JUMPI PUSH2 0x1C61 PUSH2 0x22A0 JUMP JUMPDEST PUSH1 0x1 PUSH1 0x1 PUSH1 0xE0 SHL SUB NOT SWAP1 SWAP3 AND PUSH1 0x20 SWAP3 DUP4 MUL SWAP2 SWAP1 SWAP2 ADD SWAP1 SWAP2 ADD MSTORE DUP1 MLOAD PUSH4 0x756AF45F PUSH1 0xE0 SHL SWAP1 DUP3 SWAP1 PUSH1 0x1 SWAP1 DUP2 LT PUSH2 0x1C98 JUMPI PUSH2 0x1C98 PUSH2 0x22A0 JUMP JUMPDEST PUSH1 0x20 MUL PUSH1 0x20 ADD ADD MLOAD PUSH1 0x20 ADD MLOAD PUSH1 0x9 DUP2 MLOAD DUP2 LT PUSH2 0x1CB6 JUMPI PUSH2 0x1CB6 PUSH2 0x22A0 JUMP JUMPDEST PUSH1 0x1 PUSH1 0x1 PUSH1 0xE0 SHL SUB NOT SWAP3 SWAP1 SWAP3 AND PUSH1 0x20 SWAP3 DUP4 MUL SWAP2 SWAP1 SWAP2 ADD DUP3 ADD MSTORE PUSH1 0x40 DUP1 MLOAD PUSH1 0xE0 DUP2 ADD DUP3 MSTORE SWAP12 DUP13 MSTORE SWAP1 DUP12 ADD SWAP10 SWAP1 SWAP10 MSTORE SWAP8 DUP10 ADD SWAP7 SWAP1 SWAP7 MSTORE POP PUSH1 0x60 DUP8 ADD SWAP3 SWAP1 SWAP3 MSTORE PUSH1 0x1 PUSH1 0x1 PUSH1 0xA0 SHL SUB SWAP1 DUP2 AND PUSH1 0x80 DUP8 ADD MSTORE AND PUSH1 0xA0 DUP6 ADD MSTORE POP POP PUSH1 0x1 PUSH1 0xC0 DUP4 ADD MSTORE SWAP1 SWAP2 JUMP JUMPDEST PUSH1 0x40 MLOAD PUSH12 0xFFFFFFFFFFFFFFFFFFFFFFFF NOT PUSH1 0x60 DUP4 SWAP1 SHL AND PUSH1 0x20 DUP3 ADD MSTORE PUSH1 0x0 SWAP1 PUSH1 0x34 ADD PUSH1 0x40 MLOAD PUSH1 0x20 DUP2 DUP4 SUB SUB DUP2 MSTORE SWAP1 PUSH1 0x40 MSTORE DUP1 MLOAD SWAP1 PUSH1 0x20 ADD KECCAK256 SWAP1 POP SWAP2 SWAP1 POP JUMP JUMPDEST PUSH1 0x0 PUSH1 0x20 DUP3 DUP5 SUB SLT ISZERO PUSH2 0x1D67 JUMPI PUSH1 0x0 DUP1 REVERT JUMPDEST DUP2 CALLDATALOAD PUSH1 0x1 PUSH1 0x1 PUSH1 0xE0 SHL SUB NOT DUP2 AND DUP2 EQ PUSH2 0x542 JUMPI PUSH1 0x0 DUP1 REVERT JUMPDEST DUP1 CALLDATALOAD PUSH1 0x1 PUSH1 0x1 PUSH1 0xA0 SHL SUB DUP2 AND DUP2 EQ PUSH2 0x1D96 JUMPI PUSH1 0x0 DUP1 REVERT JUMPDEST SWAP2 SWAP1 POP JUMP JUMPDEST PUSH1 0x0 DUP1 PUSH1 0x40 DUP4 DUP6 SUB SLT ISZERO PUSH2 0x1DAE JUMPI PUSH1 0x0 DUP1 REVERT JUMPDEST PUSH2 0x1DB7 DUP4 PUSH2 0x1D7F JUMP JUMPDEST SWAP5 PUSH1 0x20 SWAP4 SWAP1 SWAP4 ADD CALLDATALOAD SWAP4 POP POP POP JUMP JUMPDEST PUSH1 0x20 DUP2 ADD PUSH1 0x4 DUP4 LT PUSH2 0x1DE7 JUMPI PUSH4 0x4E487B71 PUSH1 0xE0 SHL PUSH1 0x0 MSTORE PUSH1 0x21 PUSH1 0x4 MSTORE PUSH1 0x24 PUSH1 0x0 REVERT JUMPDEST SWAP2 SWAP1 MSTORE SWAP1 JUMP JUMPDEST PUSH1 0x0 PUSH1 0x20 DUP3 DUP5 SUB SLT ISZERO PUSH2 0x1DFF JUMPI PUSH1 0x0 DUP1 REVERT JUMPDEST DUP2 CALLDATALOAD PUSH8 0xFFFFFFFFFFFFFFFF DUP2 GT ISZERO PUSH2 0x1E16 JUMPI PUSH1 0x0 DUP1 REVERT JUMPDEST DUP3 ADD PUSH2 0x140 DUP2 DUP6 SUB SLT ISZERO PUSH2 0x542 JUMPI PUSH1 0x0 DUP1 REVERT JUMPDEST PUSH1 0x0 DUP1 PUSH1 0x20 DUP4 DUP6 SUB SLT ISZERO PUSH2 0x1E3C JUMPI PUSH1 0x0 DUP1 REVERT JUMPDEST DUP3 CALLDATALOAD PUSH8 0xFFFFFFFFFFFFFFFF DUP1 DUP3 GT ISZERO PUSH2 0x1E54 JUMPI PUSH1 0x0 DUP1 REVERT JUMPDEST DUP2 DUP6 ADD SWAP2 POP DUP6 PUSH1 0x1F DUP4 ADD SLT PUSH2 0x1E68 JUMPI PUSH1 0x0 DUP1 REVERT JUMPDEST DUP2 CALLDATALOAD DUP2 DUP2 GT ISZERO PUSH2 0x1E77 JUMPI PUSH1 0x0 DUP1 REVERT JUMPDEST DUP7 PUSH1 0x20 DUP3 PUSH1 0x7 SHL DUP6 ADD ADD GT ISZERO PUSH2 0x1E8C JUMPI PUSH1 0x0 DUP1 REVERT JUMPDEST PUSH1 0x20 SWAP3 SWAP1 SWAP3 ADD SWAP7 SWAP2 SWAP6 POP SWAP1 SWAP4 POP POP POP POP JUMP JUMPDEST PUSH1 0x20 DUP1 DUP3 MSTORE DUP3 MLOAD DUP3 DUP3 ADD DUP2 SWAP1 MSTORE PUSH1 0x0 SWAP2 SWAP1 DUP5 DUP3 ADD SWAP1 PUSH1 0x40 DUP6 ADD SWAP1 DUP5 JUMPDEST DUP2 DUP2 LT ISZERO PUSH2 0x1ED6 JUMPI DUP4 MLOAD DUP4 MSTORE SWAP3 DUP5 ADD SWAP3 SWAP2 DUP5 ADD SWAP2 PUSH1 0x1 ADD PUSH2 0x1EBA JUMP JUMPDEST POP SWAP1 SWAP7 SWAP6 POP POP POP POP POP POP JUMP JUMPDEST PUSH1 0x0 PUSH1 0x20 DUP3 DUP5 SUB SLT ISZERO PUSH2 0x1EF4 JUMPI PUSH1 0x0 DUP1 REVERT JUMPDEST PUSH2 0x542 DUP3 PUSH2 0x1D7F JUMP JUMPDEST PUSH1 0x0 PUSH1 0x80 DUP3 DUP5 SUB SLT ISZERO PUSH2 0x1F0F JUMPI PUSH1 0x0 DUP1 REVERT JUMPDEST POP SWAP2 SWAP1 POP JUMP JUMPDEST PUSH1 0x0 DUP1 PUSH1 0x0 PUSH1 0x60 DUP5 DUP7 SUB SLT ISZERO PUSH2 0x1F2A JUMPI PUSH1 0x0 DUP1 REVERT JUMPDEST PUSH2 0x1F33 DUP5 PUSH2 0x1D7F JUMP JUMPDEST SWAP3 POP PUSH2 0x1F41 PUSH1 0x20 DUP6 ADD PUSH2 0x1D7F JUMP JUMPDEST SWAP2 POP PUSH1 0x40 DUP5 ADD CALLDATALOAD SWAP1 POP SWAP3 POP SWAP3 POP SWAP3 JUMP JUMPDEST PUSH1 0x0 DUP1 PUSH1 0x20 DUP4 DUP6 SUB SLT ISZERO PUSH2 0x1F64 JUMPI PUSH1 0x0 DUP1 REVERT JUMPDEST DUP3 CALLDATALOAD PUSH8 0xFFFFFFFFFFFFFFFF DUP1 DUP3 GT ISZERO PUSH2 0x1F7C JUMPI PUSH1 0x0 DUP1 REVERT JUMPDEST DUP2 DUP6 ADD SWAP2 POP DUP6 PUSH1 0x1F DUP4 ADD SLT PUSH2 0x1F90 JUMPI PUSH1 0x0 DUP1 REVERT JUMPDEST DUP2 CALLDATALOAD DUP2 DUP2 GT ISZERO PUSH2 0x1F9F JUMPI PUSH1 0x0 DUP1 REVERT JUMPDEST DUP7 PUSH1 0x20 PUSH1 0x60 DUP4 MUL DUP6 ADD ADD GT ISZERO PUSH2 0x1E8C JUMPI PUSH1 0x0 DUP1 REVERT JUMPDEST DUP1 ISZERO ISZERO DUP2 EQ PUSH2 0x1741 JUMPI PUSH1 0x0 DUP1 REVERT JUMPDEST PUSH1 0x0 PUSH1 0x20 DUP3 DUP5 SUB SLT ISZERO PUSH2 0x1FD4 JUMPI PUSH1 0x0 DUP1 REVERT JUMPDEST DUP2 CALLDATALOAD PUSH2 0x542 DUP2 PUSH2 0x1FB4 JUMP JUMPDEST PUSH1 0x0 DUP1 PUSH1 0x20 DUP4 DUP6 SUB SLT ISZERO PUSH2 0x1FF2 JUMPI PUSH1 0x0 DUP1 REVERT JUMPDEST DUP3 CALLDATALOAD PUSH8 0xFFFFFFFFFFFFFFFF DUP1 DUP3 GT ISZERO PUSH2 0x200A JUMPI PUSH1 0x0 DUP1 REVERT JUMPDEST DUP2 DUP6 ADD SWAP2 POP DUP6 PUSH1 0x1F DUP4 ADD SLT PUSH2 0x201E JUMPI PUSH1 0x0 DUP1 REVERT JUMPDEST DUP2 CALLDATALOAD DUP2 DUP2 GT ISZERO PUSH2 0x202D JUMPI PUSH1 0x0 DUP1 REVERT JUMPDEST DUP7 PUSH1 0x20 DUP3 PUSH1 0x6 SHL DUP6 ADD ADD GT ISZERO PUSH2 0x1E8C JUMPI PUSH1 0x0 DUP1 REVERT JUMPDEST PUSH1 0x0 PUSH1 0x20 DUP3 DUP5 SUB SLT ISZERO PUSH2 0x2054 JUMPI PUSH1 0x0 DUP1 REVERT JUMPDEST DUP2 MLOAD PUSH2 0x542 DUP2 PUSH2 0x1FB4 JUMP JUMPDEST PUSH1 0x1 PUSH1 0x1 PUSH1 0xE0 SHL SUB NOT SWAP2 SWAP1 SWAP2 AND DUP2 MSTORE PUSH1 0x20 ADD SWAP1 JUMP JUMPDEST PUSH1 0x0 DUP1 DUP4 CALLDATALOAD PUSH1 0x1E NOT DUP5 CALLDATASIZE SUB ADD DUP2 SLT PUSH2 0x208B JUMPI PUSH1 0x0 DUP1 REVERT JUMPDEST DUP4 ADD DUP1 CALLDATALOAD SWAP2 POP PUSH8 0xFFFFFFFFFFFFFFFF DUP3 GT ISZERO PUSH2 0x20A6 JUMPI PUSH1 0x0 DUP1 REVERT JUMPDEST PUSH1 0x20 ADD SWAP2 POP CALLDATASIZE DUP2 SWAP1 SUB DUP3 SGT ISZERO PUSH2 0x20BB JUMPI PUSH1 0x0 DUP1 REVERT JUMPDEST SWAP3 POP SWAP3 SWAP1 POP JUMP JUMPDEST DUP2 DUP4 DUP3 CALLDATACOPY PUSH1 0x0 SWAP2 ADD SWAP1 DUP2 MSTORE SWAP2 SWAP1 POP JUMP JUMPDEST DUP2 DUP4 MSTORE DUP2 DUP2 PUSH1 0x20 DUP6 ADD CALLDATACOPY POP PUSH1 0x0 DUP3 DUP3 ADD PUSH1 0x20 SWAP1 DUP2 ADD SWAP2 SWAP1 SWAP2 MSTORE PUSH1 0x1F SWAP1 SWAP2 ADD PUSH1 0x1F NOT AND SWAP1 SWAP2 ADD ADD SWAP1 JUMP JUMPDEST PUSH1 0x0 DUP2 MLOAD DUP1 DUP5 MSTORE PUSH1 0x20 DUP1 DUP6 ADD DUP1 DUP2 SWAP7 POP DUP4 PUSH1 0x5 SHL DUP2 ADD SWAP2 POP DUP3 DUP7 ADD PUSH1 0x0 DUP1 JUMPDEST DUP7 DUP2 LT ISZERO PUSH2 0x2199 JUMPI DUP4 DUP6 SUB DUP11 MSTORE DUP3 MLOAD DUP1 MLOAD DUP7 MSTORE DUP7 DUP2 ADD MLOAD PUSH1 0x60 DUP9 DUP9 ADD DUP2 SWAP1 MSTORE DUP2 MLOAD SWAP1 DUP9 ADD DUP2 SWAP1 MSTORE PUSH1 0x80 DUP9 ADD SWAP2 DUP10 ADD SWAP1 DUP6 SWAP1 JUMPDEST DUP1 DUP3 LT ISZERO PUSH2 0x2176 JUMPI DUP3 MLOAD PUSH1 0x1 PUSH1 0x1 PUSH1 0xE0 SHL SUB NOT AND DUP5 MSTORE SWAP3 DUP11 ADD SWAP3 SWAP2 DUP11 ADD SWAP2 PUSH1 0x1 SWAP2 SWAP1 SWAP2 ADD SWAP1 PUSH2 0x214C JUMP JUMPDEST POP POP POP PUSH1 0x40 SWAP2 DUP3 ADD MLOAD ISZERO ISZERO SWAP7 SWAP1 SWAP2 ADD SWAP6 SWAP1 SWAP6 MSTORE SWAP9 DUP6 ADD SWAP9 SWAP2 DUP6 ADD SWAP2 PUSH1 0x1 ADD PUSH2 0x211A JUMP JUMPDEST POP SWAP3 SWAP9 SWAP8 POP POP POP POP POP POP POP POP JUMP JUMPDEST PUSH1 0x0 PUSH2 0x120 DUP1 DUP4 MSTORE PUSH2 0x21BC DUP2 DUP5 ADD DUP8 DUP10 PUSH2 0x20D2 JUMP JUMPDEST SWAP1 POP DUP5 MLOAD PUSH1 0x20 DUP5 ADD MSTORE PUSH1 0x20 DUP6 ADD MLOAD PUSH1 0x40 DUP5 ADD MSTORE PUSH1 0x40 DUP6 ADD MLOAD PUSH1 0x60 DUP5 ADD MSTORE PUSH1 0x60 DUP6 ADD MLOAD PUSH1 0x80 DUP5 ADD MSTORE PUSH1 0x80 DUP6 ADD MLOAD PUSH1 0x1 DUP1 PUSH1 0xA0 SHL SUB DUP1 DUP3 AND PUSH1 0xA0 DUP7 ADD MSTORE DUP1 PUSH1 0xA0 DUP9 ADD MLOAD AND PUSH1 0xC0 DUP7 ADD MSTORE POP POP PUSH1 0xC0 DUP6 ADD MLOAD ISZERO ISZERO PUSH1 0xE0 DUP5 ADD MSTORE DUP3 DUP2 SUB PUSH2 0x100 DUP5 ADD MSTORE PUSH2 0x2224 DUP2 DUP6 PUSH2 0x20FB JUMP JUMPDEST SWAP8 SWAP7 POP POP POP POP POP POP POP JUMP JUMPDEST PUSH1 0x0 PUSH1 0x20 DUP3 DUP5 SUB SLT ISZERO PUSH2 0x2241 JUMPI PUSH1 0x0 DUP1 REVERT JUMPDEST POP MLOAD SWAP2 SWAP1 POP JUMP JUMPDEST PUSH1 0x1 PUSH1 0x1 PUSH1 0xA0 SHL SUB DUP10 DUP2 AND DUP3 MSTORE DUP9 AND PUSH1 0x20 DUP3 ADD MSTORE PUSH1 0xC0 PUSH1 0x40 DUP3 ADD DUP2 SWAP1 MSTORE PUSH1 0x0 SWAP1 PUSH2 0x2275 SWAP1 DUP4 ADD DUP9 DUP11 PUSH2 0x20D2 JUMP JUMPDEST DUP3 DUP2 SUB PUSH1 0x60 DUP5 ADD MSTORE PUSH2 0x2288 DUP2 DUP8 DUP10 PUSH2 0x20D2 JUMP JUMPDEST PUSH1 0x80 DUP5 ADD SWAP6 SWAP1 SWAP6 MSTORE POP POP PUSH1 0xA0 ADD MSTORE SWAP7 SWAP6 POP POP POP POP POP POP JUMP JUMPDEST PUSH4 0x4E487B71 PUSH1 0xE0 SHL PUSH1 0x0 MSTORE PUSH1 0x32 PUSH1 0x4 MSTORE PUSH1 0x24 PUSH1 0x0 REVERT JUMPDEST PUSH1 0x0 PUSH1 0x1 DUP3 ADD PUSH2 0x22D6 JUMPI PUSH4 0x4E487B71 PUSH1 0xE0 SHL PUSH1 0x0 MSTORE PUSH1 0x11 PUSH1 0x4 MSTORE PUSH1 0x24 PUSH1 0x0 REVERT JUMPDEST POP PUSH1 0x1 ADD SWAP1 JUMP JUMPDEST PUSH1 0x1 PUSH1 0x1 PUSH1 0xA0 SHL SUB DUP1 PUSH2 0x22EF DUP4 PUSH2 0x1D7F JUMP JUMPDEST AND DUP4 MSTORE DUP1 PUSH2 0x22FF PUSH1 0x20 DUP5 ADD PUSH2 0x1D7F JUMP JUMPDEST AND PUSH1 0x20 DUP5 ADD MSTORE POP PUSH1 0x40 DUP2 DUP2 ADD CALLDATALOAD SWAP1 DUP4 ADD MSTORE PUSH1 0x60 SWAP1 DUP2 ADD CALLDATALOAD SWAP2 ADD MSTORE JUMP JUMPDEST PUSH1 0x20 DUP1 DUP3 MSTORE DUP2 ADD DUP3 SWAP1 MSTORE PUSH1 0x0 DUP4 PUSH1 0x40 DUP4 ADD DUP3 JUMPDEST DUP6 DUP2 LT ISZERO PUSH2 0x2353 JUMPI PUSH2 0x2340 DUP3 DUP5 PUSH2 0x22DD JUMP JUMPDEST PUSH1 0x80 SWAP3 DUP4 ADD SWAP3 SWAP2 SWAP1 SWAP2 ADD SWAP1 PUSH1 0x1 ADD PUSH2 0x232E JUMP JUMPDEST POP SWAP6 SWAP5 POP POP POP POP POP JUMP JUMPDEST PUSH4 0x4E487B71 PUSH1 0xE0 SHL PUSH1 0x0 MSTORE PUSH1 0x41 PUSH1 0x4 MSTORE PUSH1 0x24 PUSH1 0x0 REVERT JUMPDEST PUSH1 0x0 PUSH1 0x20 DUP1 DUP4 DUP6 SUB SLT ISZERO PUSH2 0x2386 JUMPI PUSH1 0x0 DUP1 REVERT JUMPDEST DUP3 MLOAD PUSH8 0xFFFFFFFFFFFFFFFF DUP1 DUP3 GT ISZERO PUSH2 0x239E JUMPI PUSH1 0x0 DUP1 REVERT JUMPDEST DUP2 DUP6 ADD SWAP2 POP DUP6 PUSH1 0x1F DUP4 ADD SLT PUSH2 0x23B2 JUMPI PUSH1 0x0 DUP1 REVERT JUMPDEST DUP2 MLOAD DUP2 DUP2 GT ISZERO PUSH2 0x23C4 JUMPI PUSH2 0x23C4 PUSH2 0x235D JUMP JUMPDEST DUP1 PUSH1 0x5 SHL PUSH1 0x40 MLOAD PUSH1 0x1F NOT PUSH1 0x3F DUP4 ADD AND DUP2 ADD DUP2 DUP2 LT DUP6 DUP3 GT OR ISZERO PUSH2 0x23E9 JUMPI PUSH2 0x23E9 PUSH2 0x235D JUMP JUMPDEST PUSH1 0x40 MSTORE SWAP2 DUP3 MSTORE DUP5 DUP3 ADD SWAP3 POP DUP4 DUP2 ADD DUP6 ADD SWAP2 DUP9 DUP4 GT ISZERO PUSH2 0x2407 JUMPI PUSH1 0x0 DUP1 REVERT JUMPDEST SWAP4 DUP6 ADD SWAP4 JUMPDEST DUP3 DUP6 LT ISZERO PUSH2 0x2425 JUMPI DUP5 MLOAD DUP5 MSTORE SWAP4 DUP6 ADD SWAP4 SWAP3 DUP6 ADD SWAP3 PUSH2 0x240C JUMP JUMPDEST SWAP9 SWAP8 POP POP POP POP POP POP POP POP JUMP JUMPDEST PUSH1 0x80 DUP2 ADD PUSH2 0x48E DUP3 DUP5 PUSH2 0x22DD JUMP JUMPDEST PUSH1 0x20 DUP1 DUP3 MSTORE DUP2 DUP2 ADD DUP4 SWAP1 MSTORE PUSH1 0x0 SWAP1 PUSH1 0x40 DUP1 DUP5 ADD DUP7 DUP5 JUMPDEST DUP8 DUP2 LT ISZERO PUSH2 0x249E JUMPI PUSH1 0x1 PUSH1 0x1 PUSH1 0xA0 SHL SUB DUP1 PUSH2 0x246F DUP5 PUSH2 0x1D7F JUMP JUMPDEST AND DUP5 MSTORE DUP1 PUSH2 0x247E DUP8 DUP6 ADD PUSH2 0x1D7F JUMP JUMPDEST AND DUP5 DUP8 ADD MSTORE POP DUP2 DUP5 ADD CALLDATALOAD DUP5 DUP5 ADD MSTORE PUSH1 0x60 SWAP3 DUP4 ADD SWAP3 SWAP1 SWAP2 ADD SWAP1 PUSH1 0x1 ADD PUSH2 0x2455 JUMP JUMPDEST POP SWAP1 SWAP8 SWAP7 POP POP POP POP POP POP POP JUMP JUMPDEST SWAP3 DUP4 MSTORE PUSH1 0x1 PUSH1 0x1 PUSH1 0xA0 SHL SUB SWAP2 SWAP1 SWAP2 AND PUSH1 0x20 DUP4 ADD MSTORE PUSH1 0x1 PUSH1 0x1 PUSH1 0xE0 SHL SUB NOT AND PUSH1 0x40 DUP3 ADD MSTORE PUSH1 0x60 ADD SWAP1 JUMP JUMPDEST PUSH1 0x20 DUP1 DUP3 MSTORE DUP2 DUP2 ADD DUP4 SWAP1 MSTORE PUSH1 0x0 SWAP1 PUSH1 0x40 DUP1 DUP5 ADD DUP7 DUP5 JUMPDEST DUP8 DUP2 LT ISZERO PUSH2 0x249E JUMPI PUSH1 0x1 PUSH1 0x1 PUSH1 0xA0 SHL SUB PUSH2 0x2503 DUP4 PUSH2 0x1D7F JUMP JUMPDEST AND DUP4 MSTORE DUP2 DUP6 ADD CALLDATALOAD DUP6 DUP5 ADD MSTORE SWAP2 DUP4 ADD SWAP2 SWAP1 DUP4 ADD SWAP1 PUSH1 0x1 ADD PUSH2 0x24EA JUMP INVALID CALLER 0xC2 0xAD 0xE PUSH23 0x9B5A5E7F07AB57FF61AE195B76839FC48D116FFE8DC881 CALLER 0x4F LOG2 SGT LOG2 PUSH5 0x6970667358 0x22 SLT KECCAK256 0xAA 0xAE 0xAD RETURNDATACOPY PUSH1 0x42 0xD3 0xDA 0x29 DUP16 DUP7 0xDB 0xDB PUSH20 0x93062F6440F4F073CD4D50CCB4306977D69D6473 PUSH16 0x6C634300081100330000000000000000 "
    },
    "gasEstimates": {
      "creation": {
        "codeDepositCost": "1917600",
        "executionCost": "26250",
        "totalCost": "1943850"
      },
      "external": {
        "": "229",
        "assetAcl()": "2399",
        "assetBalance()": "216",
        "assetInitVersion()": "2356",
        "assetName()": "2336",
        "assetRealm()": "2402",
        "assetRole()": "2425",
        "assetSafeMode()": "2316",
        "assetSafeModeSet(bool)": "infinite",
        "assetToken()": "2421",
        "assetType()": "361",
        "assetVersion()": "2393",
        "initialize((bytes32,bytes32,bytes32,address,address,address,address,string,string,bytes))": "infinite",
        "supportsInterface(bytes4)": "505",
        "tokenApprove(address,uint256)": "infinite",
        "tokenBalance()": "infinite",
        "tokenBatchLock((address,address,uint256,uint256)[])": "infinite",
        "tokenBatchTransfer((address,uint256)[])": "infinite",
        "tokenBatchTransferFrom((address,address,uint256)[])": "infinite",
        "tokenDecreaseAllowance(address,uint256)": "infinite",
        "tokenIncreaseAllowance(address,uint256)": "infinite",
        "tokenLock((address,address,uint256,uint256))": "infinite",
        "tokenTransfer(address,uint256)": "infinite",
        "tokenTransferFrom(address,address,uint256)": "infinite",
        "withdrawBalance(address)": "infinite"
      },
      "internal": {
        "_createRequestContext(bytes32,bytes32,bytes32,bytes32,bytes32,address,address)": "infinite",
        "_policyInterceptor(bytes4)": "infinite"
      }
    },
    "methodIdentifiers": {
      "assetAcl()": "0ee0f6c2",
      "assetBalance()": "c66f2455",
      "assetInitVersion()": "9e00fcc2",
      "assetName()": "c9230c5d",
      "assetRealm()": "f1296fc5",
      "assetRole()": "ba4771ba",
      "assetSafeMode()": "4cfb9949",
      "assetSafeModeSet(bool)": "dbc2d852",
      "assetToken()": "1083f761",
      "assetType()": "3fe3347a",
      "assetVersion()": "3c872e5f",
      "initialize((bytes32,bytes32,bytes32,address,address,address,address,string,string,bytes))": "5ce6e200",
      "supportsInterface(bytes4)": "01ffc9a7",
      "tokenApprove(address,uint256)": "0cd689f5",
      "tokenBalance()": "9e1a4d19",
      "tokenBatchLock((address,address,uint256,uint256)[])": "70c55c02",
      "tokenBatchTransfer((address,uint256)[])": "e9dbebbd",
      "tokenBatchTransferFrom((address,address,uint256)[])": "9c42c5ec",
      "tokenDecreaseAllowance(address,uint256)": "a52e8e60",
      "tokenIncreaseAllowance(address,uint256)": "fc524064",
      "tokenLock((address,address,uint256,uint256))": "846981c8",
      "tokenTransfer(address,uint256)": "68cdafe6",
      "tokenTransferFrom(address,address,uint256)": "961974ba",
      "withdrawBalance(address)": "756af45f"
    }
  },
  "storageLayout": {
    "storage": [
      {
        "astId": 19991,
        "contract": "src/contracts/token/asset/ERC20/AssetERC20.sol:AssetERC20",
        "label": "_initialized",
        "offset": 0,
        "slot": "0",
        "type": "t_uint16"
      },
      {
        "astId": 19994,
        "contract": "src/contracts/token/asset/ERC20/AssetERC20.sol:AssetERC20",
        "label": "_initializing",
        "offset": 2,
        "slot": "0",
        "type": "t_bool"
      },
      {
        "astId": 23257,
        "contract": "src/contracts/token/asset/ERC20/AssetERC20.sol:AssetERC20",
        "label": "_accessControlManager",
        "offset": 3,
        "slot": "0",
        "type": "t_address"
      },
      {
        "astId": 23259,
        "contract": "src/contracts/token/asset/ERC20/AssetERC20.sol:AssetERC20",
        "label": "_erc20Token",
        "offset": 0,
        "slot": "1",
        "type": "t_address"
      },
      {
        "astId": 23261,
        "contract": "src/contracts/token/asset/ERC20/AssetERC20.sol:AssetERC20",
        "label": "_domainName",
        "offset": 0,
        "slot": "2",
        "type": "t_bytes32"
      },
      {
        "astId": 23263,
        "contract": "src/contracts/token/asset/ERC20/AssetERC20.sol:AssetERC20",
        "label": "_domainVersion",
        "offset": 0,
        "slot": "3",
        "type": "t_bytes32"
      },
      {
        "astId": 23265,
        "contract": "src/contracts/token/asset/ERC20/AssetERC20.sol:AssetERC20",
        "label": "_domainRealm",
        "offset": 0,
        "slot": "4",
        "type": "t_bytes32"
      },
      {
        "astId": 23267,
        "contract": "src/contracts/token/asset/ERC20/AssetERC20.sol:AssetERC20",
        "label": "_assetRole",
        "offset": 0,
        "slot": "5",
        "type": "t_bytes32"
      },
      {
        "astId": 23269,
        "contract": "src/contracts/token/asset/ERC20/AssetERC20.sol:AssetERC20",
        "label": "_isSafeMode",
        "offset": 0,
        "slot": "6",
        "type": "t_bool"
      }
    ],
    "types": {
      "t_address": {
        "encoding": "inplace",
        "label": "address",
        "numberOfBytes": "20"
      },
      "t_bool": {
        "encoding": "inplace",
        "label": "bool",
        "numberOfBytes": "1"
      },
      "t_bytes32": {
        "encoding": "inplace",
        "label": "bytes32",
        "numberOfBytes": "32"
      },
      "t_uint16": {
        "encoding": "inplace",
        "label": "uint16",
        "numberOfBytes": "2"
      }
    }
  },
  "userdoc": {
    "kind": "user",
    "methods": {},
    "version": 1
  }
}