{
  "address": "0x8e1CEFcD36D856492248B1D924cd46103a3f4080",
  "abi": [
    {
      "inputs": [],
      "stateMutability": "nonpayable",
      "type": "constructor"
    },
    {
      "inputs": [
        {
          "internalType": "enum IACL.AuthorizationStatus",
          "name": "",
          "type": "uint8"
        }
      ],
      "name": "ACLActionForbidden",
      "type": "error"
    },
    {
      "anonymous": false,
      "inputs": [
        {
          "indexed": true,
          "internalType": "address",
          "name": "sender",
          "type": "address"
        },
        {
          "indexed": true,
          "internalType": "address",
          "name": "assetId",
          "type": "address"
        },
        {
          "indexed": true,
          "internalType": "bytes4",
          "name": "functionSelector",
          "type": "bytes4"
        }
      ],
      "name": "AssetERC20Called",
      "type": "event"
    },
    {
      "anonymous": false,
      "inputs": [
        {
          "indexed": true,
          "internalType": "address",
          "name": "sender",
          "type": "address"
        },
        {
          "indexed": true,
          "internalType": "address",
          "name": "assetId",
          "type": "address"
        },
        {
          "indexed": true,
          "internalType": "address",
          "name": "tokenId",
          "type": "address"
        },
        {
          "indexed": false,
          "internalType": "address",
          "name": "assetManagerId",
          "type": "address"
        },
        {
          "indexed": false,
          "internalType": "address",
          "name": "assetSubjectId",
          "type": "address"
        }
      ],
      "name": "AssetInitialized",
      "type": "event"
    },
    {
      "anonymous": false,
      "inputs": [
        {
          "indexed": true,
          "internalType": "address",
          "name": "sender",
          "type": "address"
        },
        {
          "indexed": true,
          "internalType": "address",
          "name": "assetId",
          "type": "address"
        },
        {
          "indexed": false,
          "internalType": "enum IAssetEntity.AssetSafeModeStatus",
          "name": "status",
          "type": "uint8"
        }
      ],
      "name": "AssetSafeModeUpdated",
      "type": "event"
    },
    {
      "stateMutability": "payable",
      "type": "fallback"
    },
    {
      "inputs": [],
      "name": "assetAccessControl",
      "outputs": [
        {
          "internalType": "address",
          "name": "",
          "type": "address"
        }
      ],
      "stateMutability": "view",
      "type": "function"
    },
    {
      "inputs": [],
      "name": "assetBalance",
      "outputs": [
        {
          "internalType": "uint256",
          "name": "",
          "type": "uint256"
        }
      ],
      "stateMutability": "view",
      "type": "function"
    },
    {
      "inputs": [],
      "name": "assetInfo",
      "outputs": [
        {
          "components": [
            {
              "internalType": "uint256",
              "name": "balance",
              "type": "uint256"
            },
            {
              "internalType": "string",
              "name": "name",
              "type": "string"
            },
            {
              "internalType": "string",
              "name": "version",
              "type": "string"
            },
            {
              "internalType": "address",
              "name": "token",
              "type": "address"
            },
            {
              "internalType": "address",
              "name": "accessControl",
              "type": "address"
            },
            {
              "internalType": "uint16",
              "name": "initVersion",
              "type": "uint16"
            },
            {
              "internalType": "enum IAssetEntity.AssetType",
              "name": "atype",
              "type": "uint8"
            },
            {
              "internalType": "enum IAssetEntity.AssetSafeModeStatus",
              "name": "status",
              "type": "uint8"
            }
          ],
          "internalType": "struct IAssetEntity.AssetInfo",
          "name": "",
          "type": "tuple"
        }
      ],
      "stateMutability": "view",
      "type": "function"
    },
    {
      "inputs": [],
      "name": "assetInitVersion",
      "outputs": [
        {
          "internalType": "uint16",
          "name": "",
          "type": "uint16"
        }
      ],
      "stateMutability": "view",
      "type": "function"
    },
    {
      "inputs": [
        {
          "components": [
            {
              "internalType": "bytes32",
              "name": "realmId",
              "type": "bytes32"
            },
            {
              "internalType": "bytes32",
              "name": "adminId",
              "type": "bytes32"
            },
            {
              "internalType": "bytes32",
              "name": "agentId",
              "type": "bytes32"
            },
            {
              "internalType": "bytes32",
              "name": "salt",
              "type": "bytes32"
            },
            {
              "internalType": "address",
              "name": "subjectId",
              "type": "address"
            },
            {
              "internalType": "address",
              "name": "erc20TokenId",
              "type": "address"
            },
            {
              "internalType": "address",
              "name": "accessControlId",
              "type": "address"
            },
            {
              "internalType": "address",
              "name": "assetManagerId",
              "type": "address"
            },
            {
              "internalType": "address",
              "name": "assetContractId",
              "type": "address"
            },
            {
              "internalType": "string",
              "name": "contractName",
              "type": "string"
            },
            {
              "internalType": "string",
              "name": "contractVersion",
              "type": "string"
            },
            {
              "internalType": "bytes",
              "name": "signature",
              "type": "bytes"
            }
          ],
          "internalType": "struct IAssetEntity.AssetInitRequest",
          "name": "request",
          "type": "tuple"
        }
      ],
      "name": "assetInitialize",
      "outputs": [
        {
          "internalType": "bool",
          "name": "",
          "type": "bool"
        }
      ],
      "stateMutability": "nonpayable",
      "type": "function"
    },
    {
      "inputs": [],
      "name": "assetName",
      "outputs": [
        {
          "internalType": "string",
          "name": "",
          "type": "string"
        }
      ],
      "stateMutability": "view",
      "type": "function"
    },
    {
      "inputs": [],
      "name": "assetSafeMode",
      "outputs": [
        {
          "internalType": "enum IAssetEntity.AssetSafeModeStatus",
          "name": "",
          "type": "uint8"
        }
      ],
      "stateMutability": "view",
      "type": "function"
    },
    {
      "inputs": [
        {
          "internalType": "enum IAssetEntity.AssetSafeModeStatus",
          "name": "status",
          "type": "uint8"
        }
      ],
      "name": "assetSetSafeMode",
      "outputs": [
        {
          "internalType": "bool",
          "name": "",
          "type": "bool"
        }
      ],
      "stateMutability": "nonpayable",
      "type": "function"
    },
    {
      "inputs": [],
      "name": "assetToken",
      "outputs": [
        {
          "internalType": "address",
          "name": "",
          "type": "address"
        }
      ],
      "stateMutability": "view",
      "type": "function"
    },
    {
      "inputs": [],
      "name": "assetType",
      "outputs": [
        {
          "internalType": "enum IAssetEntity.AssetType",
          "name": "",
          "type": "uint8"
        }
      ],
      "stateMutability": "pure",
      "type": "function"
    },
    {
      "inputs": [],
      "name": "assetVersion",
      "outputs": [
        {
          "internalType": "string",
          "name": "",
          "type": "string"
        }
      ],
      "stateMutability": "view",
      "type": "function"
    },
    {
      "inputs": [],
      "name": "balance",
      "outputs": [
        {
          "internalType": "uint256",
          "name": "",
          "type": "uint256"
        }
      ],
      "stateMutability": "view",
      "type": "function"
    },
    {
      "inputs": [
        {
          "internalType": "bytes4",
          "name": "interfaceId",
          "type": "bytes4"
        }
      ],
      "name": "supportsInterface",
      "outputs": [
        {
          "internalType": "bool",
          "name": "",
          "type": "bool"
        }
      ],
      "stateMutability": "view",
      "type": "function"
    },
    {
      "inputs": [
        {
          "internalType": "address",
          "name": "spender",
          "type": "address"
        },
        {
          "internalType": "uint256",
          "name": "amount",
          "type": "uint256"
        }
      ],
      "name": "tokenApprove",
      "outputs": [
        {
          "internalType": "bool",
          "name": "",
          "type": "bool"
        }
      ],
      "stateMutability": "nonpayable",
      "type": "function"
    },
    {
      "inputs": [
        {
          "components": [
            {
              "internalType": "address",
              "name": "to",
              "type": "address"
            },
            {
              "internalType": "uint256",
              "name": "amount",
              "type": "uint256"
            }
          ],
          "internalType": "struct IERC20Extra.BatchTransferRequest[]",
          "name": "request",
          "type": "tuple[]"
        }
      ],
      "name": "tokenBatchTransfer",
      "outputs": [
        {
          "internalType": "bool",
          "name": "",
          "type": "bool"
        }
      ],
      "stateMutability": "nonpayable",
      "type": "function"
    },
    {
      "inputs": [
        {
          "components": [
            {
              "internalType": "address",
              "name": "from",
              "type": "address"
            },
            {
              "internalType": "address",
              "name": "to",
              "type": "address"
            },
            {
              "internalType": "uint256",
              "name": "amount",
              "type": "uint256"
            }
          ],
          "internalType": "struct IERC20Extra.BatchTransferFromRequest[]",
          "name": "request",
          "type": "tuple[]"
        }
      ],
      "name": "tokenBatchTransferFrom",
      "outputs": [
        {
          "internalType": "bool",
          "name": "",
          "type": "bool"
        }
      ],
      "stateMutability": "nonpayable",
      "type": "function"
    },
    {
      "inputs": [
        {
          "internalType": "address",
          "name": "spender",
          "type": "address"
        },
        {
          "internalType": "uint256",
          "name": "amount",
          "type": "uint256"
        }
      ],
      "name": "tokenDecreaseAllowance",
      "outputs": [
        {
          "internalType": "uint256",
          "name": "",
          "type": "uint256"
        }
      ],
      "stateMutability": "nonpayable",
      "type": "function"
    },
    {
      "inputs": [
        {
          "internalType": "address",
          "name": "spender",
          "type": "address"
        },
        {
          "internalType": "uint256",
          "name": "amount",
          "type": "uint256"
        }
      ],
      "name": "tokenIncreaseAllowance",
      "outputs": [
        {
          "internalType": "uint256",
          "name": "",
          "type": "uint256"
        }
      ],
      "stateMutability": "nonpayable",
      "type": "function"
    },
    {
      "inputs": [
        {
          "components": [
            {
              "internalType": "address",
              "name": "source",
              "type": "address"
            },
            {
              "internalType": "address",
              "name": "dest",
              "type": "address"
            },
            {
              "internalType": "uint256",
              "name": "claimAt",
              "type": "uint256"
            },
            {
              "internalType": "uint256",
              "name": "amount",
              "type": "uint256"
            }
          ],
          "internalType": "struct IERC20Lock.LockTokenRequest[]",
          "name": "lockRequests",
          "type": "tuple[]"
        }
      ],
      "name": "tokenLock",
      "outputs": [
        {
          "internalType": "bytes32[]",
          "name": "",
          "type": "bytes32[]"
        }
      ],
      "stateMutability": "nonpayable",
      "type": "function"
    },
    {
      "inputs": [
        {
          "internalType": "address",
          "name": "to",
          "type": "address"
        },
        {
          "internalType": "uint256",
          "name": "amount",
          "type": "uint256"
        }
      ],
      "name": "tokenTransfer",
      "outputs": [
        {
          "internalType": "bool",
          "name": "",
          "type": "bool"
        }
      ],
      "stateMutability": "nonpayable",
      "type": "function"
    },
    {
      "inputs": [
        {
          "internalType": "address",
          "name": "from",
          "type": "address"
        },
        {
          "internalType": "address",
          "name": "to",
          "type": "address"
        },
        {
          "internalType": "uint256",
          "name": "amount",
          "type": "uint256"
        }
      ],
      "name": "tokenTransferFrom",
      "outputs": [
        {
          "internalType": "bool",
          "name": "",
          "type": "bool"
        }
      ],
      "stateMutability": "nonpayable",
      "type": "function"
    },
    {
      "inputs": [
        {
          "internalType": "address",
          "name": "recepient",
          "type": "address"
        }
      ],
      "name": "withdrawBalance",
      "outputs": [],
      "stateMutability": "nonpayable",
      "type": "function"
    },
    {
      "stateMutability": "payable",
      "type": "receive"
    }
  ],
  "transactionHash": "0x371186dd95c5dffd735c2849592edd7aab20e43ccab75858d9579d45cd6d0660",
  "args": [],
  "numDeployments": 1,
  "solcInputHash": "bf3d37f12163392c6a812b5af749abec",
  "bytecode": "0x608060405234801561001057600080fd5b506004805460ff1916600217905561371a8061002d6000396000f3fe60806040526004361061012d5760003560e01c80639c7597b2116100a5578063b69ef8a81161006c578063b69ef8a814610373578063c66f245514610386578063c9230c5d1461039b578063cce6d801146103b0578063e9dbebbd146103dd578063fc524064146103fd57005b80639c7597b2146102bb5780639e00fcc2146102db578063a33b1229146102fe578063a40bee5014610323578063a52e8e601461034557005b80634cfb9949116100f45780634cfb9949146101fb5780635d8092c81461021b57806368cdafe61461023b578063756af45f1461025b578063961974ba1461027b5780639c42c5ec1461029b57005b806301ffc9a7146101365780630cd689f51461016b5780631083f7611461018b5780633c872e5f146101bd5780633fe3347a146101df57005b3661013457005b005b34801561014257600080fd5b50610156610151366004612af8565b61041d565b60405190151581526020015b60405180910390f35b34801561017757600080fd5b50610156610186366004612b3e565b61046f565b34801561019757600080fd5b506001546001600160a01b03165b6040516001600160a01b039091168152602001610162565b3480156101c957600080fd5b506101d2610524565b6040516101629190612bae565b3480156101eb57600080fd5b5060016040516101629190612bf7565b34801561020757600080fd5b5060045460ff166040516101629190612c1a565b34801561022757600080fd5b50610156610236366004612c28565b6105b6565b34801561024757600080fd5b50610156610256366004612b3e565b610bb4565b34801561026757600080fd5b50610134610276366004612c64565b610c23565b34801561028757600080fd5b50610156610296366004612c7f565b610c6c565b3480156102a757600080fd5b506101566102b6366004612cbb565b610d29565b3480156102c757600080fd5b506101566102d6366004612d30565b610d91565b3480156102e757600080fd5b5060005460405161ffff9091168152602001610162565b34801561030a57600080fd5b50600054630100000090046001600160a01b03166101a5565b34801561032f57600080fd5b50610338610eff565b6040516101629190612d51565b34801561035157600080fd5b50610365610360366004612b3e565b611147565b604051908152602001610162565b34801561037f57600080fd5b5047610365565b34801561039257600080fd5b506103656111f5565b3480156103a757600080fd5b506101d2611262565b3480156103bc57600080fd5b506103d06103cb366004612e05565b611271565b6040516101629190612e68565b3480156103e957600080fd5b506101566103f8366004612eac565b6113af565b34801561040957600080fd5b50610365610418366004612b3e565b611417565b60006001600160e01b03198216630225567160e21b148061044e57506001600160e01b031982166312016afd60e01b145b8061046957506301ffc9a760e01b6001600160e01b03198316145b92915050565b6000610481630cd689f560e01b611486565b604051630cd689f560e01b90309033906000805160206136c583398151915290600090a460015460405163095ea7b360e01b81526001600160a01b038581166004830152602482018590529091169063095ea7b3906044015b6020604051808303816000875af11580156104f9573d6000803e3d6000fd5b505050506040513d601f19601f8201168201806040525081019061051d9190612f0f565b9392505050565b60606003805461053390612f31565b80601f016020809104026020016040519081016040528092919081815260200182805461055f90612f31565b80156105ac5780601f10610581576101008083540402835291602001916105ac565b820191906000526020600020905b81548152906001019060200180831161058f57829003601f168201915b5050505050905090565b6000805462010000900460ff16158080156105d95750600054600161ffff909116105b806105f45750303b1580156105f4575060005461ffff166001145b6106455760405162461bcd60e51b815260206004820152601c60248201527f436f6e747261637420416c726561647920496e697469616c697a65640000000060448201526064015b60405180910390fd5b6000805461ffff19166001179055801561066b576000805462ff00001916620100001790555b61067b60c0840160a08501612c64565b6001600160a01b03166301ffc9a7634a17459160e11b6040518263ffffffff1660e01b81526004016106ad9190612f65565b602060405180830381865afa1580156106ca573d6000803e3d6000fd5b505050506040513d601f19601f820116820180604052508101906106ee9190612f0f565b61072f5760405162461bcd60e51b815260206004820152601260248201527124b63632b3b0b61022a92199182a37b5b2b760711b604482015260640161063c565b61073f60c0840160a08501612c64565b6001600160a01b03166301ffc9a76362fdb5fb60e11b6040518263ffffffff1660e01b81526004016107719190612f65565b602060405180830381865afa15801561078e573d6000803e3d6000fd5b505050506040513d601f19601f820116820180604052508101906107b29190612f0f565b6107fe5760405162461bcd60e51b815260206004820152601760248201527f496c6c6567616c204552433230546f6b656e4578747261000000000000000000604482015260640161063c565b61080e60c0840160a08501612c64565b6001600160a01b03166301ffc9a7632169b68d60e01b6040518263ffffffff1660e01b81526004016108409190612f65565b602060405180830381865afa15801561085d573d6000803e3d6000fd5b505050506040513d601f19601f820116820180604052508101906108819190612f0f565b6108c65760405162461bcd60e51b8152602060048201526016602482015275496c6c6567616c204552433230546f6b656e4c6f636b60501b604482015260640161063c565b6108d660e0840160c08501612c64565b6001600160a01b03166301ffc9a76331501c3960e01b6040518263ffffffff1660e01b81526004016109089190612f65565b602060405180830381865afa158015610925573d6000803e3d6000fd5b505050506040513d601f19601f820116820180604052508101906109499190612f0f565b6109835760405162461bcd60e51b815260206004820152600b60248201526a125b1b1959d85b081050d360aa1b604482015260640161063c565b610994610100840160e08501612c64565b6001600160a01b03166301ffc9a7631929a3e160e31b6040518263ffffffff1660e01b81526004016109c69190612f65565b602060405180830381865afa1580156109e3573d6000803e3d6000fd5b505050506040513d601f19601f82011682018060405250810190610a079190612f0f565b610a535760405162461bcd60e51b815260206004820152601a60248201527f496c6c6567616c204941737365744d616e616765724552433230000000000000604482015260640161063c565b610a61610120840184612f7a565b600291610a6f91908361302d565b50610a7e610140840184612f7a565b600391610a8c91908361302d565b50610a9d60c0840160a08501612c64565b600180546001600160a01b0319166001600160a01b0392909216919091179055610acd60e0840160c08501612c64565b600080546001600160a01b03929092166301000000026301000000600160b81b03199092169190911790556004805460ff19166001179055610b0e8361158a565b610b17836119f3565b610b2760c0840160a08501612c64565b6001600160a01b031630337f7738a5bc2a6dc8d01c6b4bd210d00e752c9781719e21d69a9f11a47f80b964b2610b64610100880160e08901612c64565b610b7460a0890160808a01612c64565b604080516001600160a01b0393841681529290911660208301520160405180910390a4600191508015610bae576000805462ff0000191690555b50919050565b6000610bc6633466d7f360e11b611486565b604051633466d7f360e11b90309033906000805160206136c583398151915290600090a460015460405163a9059cbb60e01b81526001600160a01b038581166004830152602482018590529091169063a9059cbb906044016104da565b610c3363756af45f60e01b611486565b6040516001600160a01b038216904780156108fc02916000818181858888f19350505050158015610c68573d6000803e3d6000fd5b5050565b6000610c7e634b0cba5d60e11b611486565b604051634b0cba5d60e11b90309033906000805160206136c583398151915290600090a46001546040516323b872dd60e01b81526001600160a01b038681166004830152858116602483015260448201859052909116906323b872dd906064016020604051808303816000875af1158015610cfd573d6000803e3d6000fd5b505050506040513d601f19601f82011682018060405250810190610d219190612f0f565b949350505050565b6000610d3b632710b17b60e21b611486565b604051632710b17b60e21b90309033906000805160206136c583398151915290600090a460015460405163038d251d60e31b81526001600160a01b0390911690631c6928e8906104da90869086906004016130ed565b6000805460405163172cb29d60e11b81528291630100000090046001600160a01b031690632e59653a90610dd4903090634e3acbd960e11b903390600401613159565b6020604051808303816000875af1158015610df3573d6000803e3d6000fd5b505050506040513d601f19601f82011682018060405250810190610e179190613186565b90506000816013811115610e2d57610e2d612bc1565b14610e4d5780604051637f0911d160e01b815260040161063c91906131a7565b60005461ffff16610e8b5760405162461bcd60e51b81526020600482015260086024820152671393d5081253925560c21b604482015260640161063c565b6004805484919060ff19166001836002811115610eaa57610eaa612bc1565b021790555030336001600160a01b03167f28f96d72c32e5791a0cb87cd75ccd24d30671b1044c06512ab88be89b053b8ca85604051610ee99190612c1a565b60405180910390a350600192915050565b905090565b610f47604080516101008101825260008082526060602083018190529282018390529181018290526080810182905260a081018290529060c082019081526020016000905290565b604080516101008101918290526001546370a0823160e01b909252306101048201529081906001600160a01b03166370a082316101248301602060405180830381865afa158015610f9c573d6000803e3d6000fd5b505050506040513d601f19601f82011682018060405250810190610fc091906131bb565b815260200160028054610fd290612f31565b80601f0160208091040260200160405190810160405280929190818152602001828054610ffe90612f31565b801561104b5780601f106110205761010080835404028352916020019161104b565b820191906000526020600020905b81548152906001019060200180831161102e57829003601f168201915b505050505081526020016003805461106290612f31565b80601f016020809104026020016040519081016040528092919081815260200182805461108e90612f31565b80156110db5780601f106110b0576101008083540402835291602001916110db565b820191906000526020600020905b8154815290600101906020018083116110be57829003601f168201915b50505091835250506001546001600160a01b0390811660208301526000546301000000900416604082015260600161111660005461ffff1690565b61ffff1681526020016001815260045460209091019060ff16600281111561114057611140612bc1565b9052919050565b6000611159630529747360e51b611486565b604051630529747360e51b90309033906000805160206136c583398151915290600090a460015460405163a457c2d760e01b81526001600160a01b038581166004830152602482018590529091169063a457c2d7906044015b6020604051808303816000875af11580156111d1573d6000803e3d6000fd5b505050506040513d601f19601f8201168201806040525081019061051d91906131bb565b6001546040516370a0823160e01b81523060048201526000916001600160a01b0316906370a0823190602401602060405180830381865afa15801561123e573d6000803e3d6000fd5b505050506040513d601f19601f82011682018060405250810190610efa91906131bb565b60606002805461053390612f31565b606061128363cce6d80160e01b611486565b60005b8281101561131157308484838181106112a1576112a16131d4565b6112b79260206080909202019081019150612c64565b6001600160a01b0316146112ff5760405162461bcd60e51b815260206004820152600f60248201526e496c6c6567616c204164647265737360881b604482015260640161063c565b80611309816131ea565b915050611286565b5060405163cce6d80160e01b90309033906000805160206136c583398151915290600090a46001546040516374bb18e760e01b81526001600160a01b03909116906374bb18e7906113689086908690600401613211565b6000604051808303816000875af1158015611387573d6000803e3d6000fd5b505050506040513d6000823e601f3d908101601f1916820160405261051d919081019061327a565b60006113c163e9dbebbd60e01b611486565b60405163e9dbebbd60e01b90309033906000805160206136c583398151915290600090a4600154604051631f54aa5560e31b81526001600160a01b039091169063faa552a8906104da9086908690600401613338565b6000611429633f14901960e21b611486565b604051633f14901960e21b90309033906000805160206136c583398151915290600090a4600154604051633950935160e01b81526001600160a01b03858116600483015260248201859052909116906339509351906044016111b2565b600160045460ff16600281111561149f5761149f612bc1565b146114d75760405162461bcd60e51b815260206004820152600860248201526714995a9958dd195960c21b604482015260640161063c565b60008054630100000090046001600160a01b0316632e59653a3084336040518463ffffffff1660e01b815260040161151193929190613159565b6020604051808303816000875af1158015611530573d6000803e3d6000fd5b505050506040513d601f19601f820116820180604052508101906115549190613186565b9050600081601381111561156a5761156a612bc1565b14610c685780604051637f0911d160e01b815260040161063c91906131a7565b604080516001808252818301909252600091816020015b61160660408051610180810182526000808252602082018190529181018290526060808201819052608082015260a0810182905260c0810182905260e08101829052610100810182905290610120820190815260200160008152602001606081525090565b8152602001906001900390816115a1579050509050816000013581600081518110611633576116336131d4565b6020026020010151600001818152505081602001358160008151811061165b5761165b6131d4565b60200260200101516020018181525050816060013581600081518110611683576116836131d4565b6020908102919091010151604001526116a0610120830183612f7a565b8080601f01602080910402602001604051908101604052809392919081815260200183838082843760009201829052508551869450909250151590506116e8576116e86131d4565b602090810291909101015160600152611705610140830183612f7a565b8080601f016020809104026020016040519081016040528093929190818152602001838380828437600092018290525085518694509092501515905061174d5761174d6131d4565b60209081029190910101516080015261176e61012083016101008401612c64565b81600081518110611781576117816131d4565b60209081029190910101516001600160a01b0390911660a0918201526117ac90830160808401612c64565b816000815181106117bf576117bf6131d4565b60209081029190910101516001600160a01b0390911660c0909101526117ec610100830160e08401612c64565b816000815181106117ff576117ff6131d4565b602002602001015160e001906001600160a01b031690816001600160a01b031681525050602081600081518110611838576118386131d4565b6020026020010151610100019060010b908160010b81525050600381600081518110611866576118666131d4565b60200260200101516101200190600381111561188457611884612bc1565b9081600381111561189757611897612bc1565b815250506003816000815181106118b0576118b06131d4565b6020026020010151610140019060038111156118ce576118ce612bc1565b908160038111156118e1576118e1612bc1565b9052506118f2610160830183612f7a565b8080601f016020809104026020016040519081016040528093929190818152602001838380828437600092018290525085518694509092501515905061193a5761193a6131d4565b6020908102919091018101516101600191909152604080516060810182526000808252818401819052825193840183528084528183019390935291549051630830abaf60e31b815263010000009091046001600160a01b0316906341855d78906119aa90849086906004016133bd565b6020604051808303816000875af11580156119c9573d6000803e3d6000fd5b505050506040513d601f19601f820116820180604052508101906119ed9190612f0f565b50505050565b60408051600a8082526101608201909252600091816020015b611a446040805160c0810182526000808252602082018190529181018290526060810182905290608082019081526020016000905290565b815260200190600190039081611a0c579050509050816020013581600081518110611a7157611a716131d4565b60200260200101516000018181525050816020013581600081518110611a9957611a996131d4565b60200260200101516020018181525050639c7597b260e01b81600081518110611ac457611ac46131d4565b6020026020010151604001906001600160e01b03191690816001600160e01b03191681525050608281600081518110611aff57611aff6131d4565b60200260200101516060019060ff16908160ff1681525050600381600081518110611b2c57611b2c6131d4565b6020026020010151608001906003811115611b4957611b49612bc1565b90816003811115611b5c57611b5c612bc1565b81525050600281600081518110611b7557611b756131d4565b602002602001015160a001906003811115611b9257611b92612bc1565b90816003811115611ba557611ba5612bc1565b81525050816020013581600181518110611bc157611bc16131d4565b60200260200101516000018181525050816040013581600181518110611be957611be96131d4565b6020026020010151602001818152505063cce6d80160e01b81600181518110611c1457611c146131d4565b6020026020010151604001906001600160e01b03191690816001600160e01b03191681525050603081600181518110611c4f57611c4f6131d4565b60200260200101516060019060ff16908160ff1681525050600381600181518110611c7c57611c7c6131d4565b6020026020010151608001906003811115611c9957611c99612bc1565b90816003811115611cac57611cac612bc1565b81525050600281600181518110611cc557611cc56131d4565b602002602001015160a001906003811115611ce257611ce2612bc1565b90816003811115611cf557611cf5612bc1565b81525050816020013581600281518110611d1157611d116131d4565b60200260200101516000018181525050816040013581600281518110611d3957611d396131d4565b602002602001015160200181815250506368cdafe660e01b81600281518110611d6457611d646131d4565b6020026020010151604001906001600160e01b03191690816001600160e01b03191681525050606081600281518110611d9f57611d9f6131d4565b60200260200101516060019060ff16908160ff1681525050600381600281518110611dcc57611dcc6131d4565b6020026020010151608001906003811115611de957611de9612bc1565b90816003811115611dfc57611dfc612bc1565b81525050600281600281518110611e1557611e156131d4565b602002602001015160a001906003811115611e3257611e32612bc1565b90816003811115611e4557611e45612bc1565b81525050816020013581600381518110611e6157611e616131d4565b60200260200101516000018181525050816040013581600381518110611e8957611e896131d4565b6020026020010151602001818152505063e9dbebbd60e01b81600381518110611eb457611eb46131d4565b6020026020010151604001906001600160e01b03191690816001600160e01b03191681525050606381600381518110611eef57611eef6131d4565b60200260200101516060019060ff16908160ff1681525050600381600381518110611f1c57611f1c6131d4565b6020026020010151608001906003811115611f3957611f39612bc1565b90816003811115611f4c57611f4c612bc1565b81525050600281600381518110611f6557611f656131d4565b602002602001015160a001906003811115611f8257611f82612bc1565b90816003811115611f9557611f95612bc1565b81525050816020013581600481518110611fb157611fb16131d4565b60200260200101516000018181525050816040013581600481518110611fd957611fd96131d4565b6020026020010151602001818152505063961974ba60e01b81600481518110612004576120046131d4565b6020026020010151604001906001600160e01b03191690816001600160e01b03191681525050606e8160048151811061203f5761203f6131d4565b60200260200101516060019060ff16908160ff168152505060038160048151811061206c5761206c6131d4565b602002602001015160800190600381111561208957612089612bc1565b9081600381111561209c5761209c612bc1565b815250506002816004815181106120b5576120b56131d4565b602002602001015160a0019060038111156120d2576120d2612bc1565b908160038111156120e5576120e5612bc1565b81525050816020013581600581518110612101576121016131d4565b60200260200101516000018181525050816040013581600581518110612129576121296131d4565b60200260200101516020018181525050639c42c5ec60e01b81600581518110612154576121546131d4565b6020026020010151604001906001600160e01b03191690816001600160e01b0319168152505060748160058151811061218f5761218f6131d4565b60200260200101516060019060ff16908160ff16815250506003816005815181106121bc576121bc6131d4565b60200260200101516080019060038111156121d9576121d9612bc1565b908160038111156121ec576121ec612bc1565b81525050600281600581518110612205576122056131d4565b602002602001015160a00190600381111561222257612222612bc1565b9081600381111561223557612235612bc1565b81525050816020013581600681518110612251576122516131d4565b60200260200101516000018181525050816040013581600681518110612279576122796131d4565b60200260200101516020018181525050630cd689f560e01b816006815181106122a4576122a46131d4565b6020026020010151604001906001600160e01b03191690816001600160e01b031916815250506096816006815181106122df576122df6131d4565b60200260200101516060019060ff16908160ff168152505060038160068151811061230c5761230c6131d4565b602002602001015160800190600381111561232957612329612bc1565b9081600381111561233c5761233c612bc1565b81525050600281600681518110612355576123556131d4565b602002602001015160a00190600381111561237257612372612bc1565b9081600381111561238557612385612bc1565b815250508160200135816007815181106123a1576123a16131d4565b602002602001015160000181815250508160400135816007815181106123c9576123c96131d4565b6020026020010151602001818152505063fc52406460e01b816007815181106123f4576123f46131d4565b6020026020010151604001906001600160e01b03191690816001600160e01b0319168152505060a08160078151811061242f5761242f6131d4565b60200260200101516060019060ff16908160ff168152505060038160078151811061245c5761245c6131d4565b602002602001015160800190600381111561247957612479612bc1565b9081600381111561248c5761248c612bc1565b815250506002816007815181106124a5576124a56131d4565b602002602001015160a0019060038111156124c2576124c2612bc1565b908160038111156124d5576124d5612bc1565b815250508160200135816008815181106124f1576124f16131d4565b60200260200101516000018181525050816040013581600881518110612519576125196131d4565b6020026020010151602001818152505063a52e8e6060e01b81600881518110612544576125446131d4565b6020026020010151604001906001600160e01b03191690816001600160e01b0319168152505060a08160088151811061257f5761257f6131d4565b60200260200101516060019060ff16908160ff16815250506003816008815181106125ac576125ac6131d4565b60200260200101516080019060038111156125c9576125c9612bc1565b908160038111156125dc576125dc612bc1565b815250506002816008815181106125f5576125f56131d4565b602002602001015160a00190600381111561261257612612612bc1565b9081600381111561262557612625612bc1565b81525050816020013581600981518110612641576126416131d4565b60200260200101516000018181525050816040013581600981518110612669576126696131d4565b6020026020010151602001818152505063756af45f60e01b81600981518110612694576126946131d4565b6020026020010151604001906001600160e01b03191690816001600160e01b031916815250506018816009815181106126cf576126cf6131d4565b60200260200101516060019060ff16908160ff16815250506003816009815181106126fc576126fc6131d4565b602002602001015160800190600381111561271957612719612bc1565b9081600381111561272c5761272c612bc1565b81525050600281600981518110612745576127456131d4565b602002602001015160a00190600381111561276257612762612bc1565b9081600381111561277557612775612bc1565b905250604080516001808252818301909252600091816020015b60408051610120810182526060808252600060208084018290529383018190528183018290526080830182905260a0830181905260c0830181905260e0830152610100820152825260001990920191018161278f5790505090506127f7610160840184612f7a565b8080601f016020809104026020016040519081016040528093929190818152602001838380828437600092018290525085518694509092501515905061283f5761283f6131d4565b602002602001015160000181905250826000013581600081518110612866576128666131d4565b6020026020010151602001818152505082606001358160008151811061288e5761288e6131d4565b6020908102919091010151604001526128ab610120840184612f7a565b8080601f01602080910402602001604051908101604052809392919081815260200183838082843760009201829052508551869450909250151590506128f3576128f36131d4565b602090810291909101015160600152612910610140840184612f7a565b8080601f0160208091040260200160405190810160405280939291908181526020018383808284376000920182905250855186945090925015159050612958576129586131d4565b60200260200101516080018190525082608001602081019061297a9190612c64565b8160008151811061298d5761298d6131d4565b60209081029190910101516001600160a01b0390911660a0909101526129ba610100840160e08501612c64565b816000815181106129cd576129cd6131d4565b602002602001015160c001906001600160a01b031690816001600160a01b031681525050600081600081518110612a0657612a066131d4565b602002602001015160e001906001600160a01b031690816001600160a01b0316815250508181600081518110612a3e57612a3e6131d4565b602090810291909101810151610100019190915260408051606081018252600080825281840181905282519384018352808452818301939093529154905163bd63781360e01b815263010000009091046001600160a01b03169063bd63781390612aae90849086906004016135a8565b6020604051808303816000875af1158015612acd573d6000803e3d6000fd5b505050506040513d601f19601f82011682018060405250810190612af19190612f0f565b5050505050565b600060208284031215612b0a57600080fd5b81356001600160e01b03198116811461051d57600080fd5b80356001600160a01b0381168114612b3957600080fd5b919050565b60008060408385031215612b5157600080fd5b612b5a83612b22565b946020939093013593505050565b6000815180845260005b81811015612b8e57602081850181015186830182015201612b72565b506000602082860101526020601f19601f83011685010191505092915050565b60208152600061051d6020830184612b68565b634e487b7160e01b600052602160045260246000fd5b60048110612be757612be7612bc1565b50565b612bf381612bd7565b9052565b60208101612c0483612bd7565b91905290565b60038110612bf357612bf3612bc1565b602081016104698284612c0a565b600060208284031215612c3a57600080fd5b813567ffffffffffffffff811115612c5157600080fd5b8201610180818503121561051d57600080fd5b600060208284031215612c7657600080fd5b61051d82612b22565b600080600060608486031215612c9457600080fd5b612c9d84612b22565b9250612cab60208501612b22565b9150604084013590509250925092565b60008060208385031215612cce57600080fd5b823567ffffffffffffffff80821115612ce657600080fd5b818501915085601f830112612cfa57600080fd5b813581811115612d0957600080fd5b866020606083028501011115612d1e57600080fd5b60209290920196919550909350505050565b600060208284031215612d4257600080fd5b81356003811061051d57600080fd5b602081528151602082015260006020830151610100806040850152612d7a610120850183612b68565b91506040850151601f19858403016060860152612d978382612b68565b92505060018060a01b0360608601511660808501526080850151612dc660a08601826001600160a01b03169052565b5060a085015161ffff811660c08601525060c0850151612de960e0860182612bea565b5060e0850151612dfb82860182612c0a565b5090949350505050565b60008060208385031215612e1857600080fd5b823567ffffffffffffffff80821115612e3057600080fd5b818501915085601f830112612e4457600080fd5b813581811115612e5357600080fd5b8660208260071b8501011115612d1e57600080fd5b6020808252825182820181905260009190848201906040850190845b81811015612ea057835183529284019291840191600101612e84565b50909695505050505050565b60008060208385031215612ebf57600080fd5b823567ffffffffffffffff80821115612ed757600080fd5b818501915085601f830112612eeb57600080fd5b813581811115612efa57600080fd5b8660208260061b8501011115612d1e57600080fd5b600060208284031215612f2157600080fd5b8151801515811461051d57600080fd5b600181811c90821680612f4557607f821691505b602082108103610bae57634e487b7160e01b600052602260045260246000fd5b6001600160e01b031991909116815260200190565b6000808335601e19843603018112612f9157600080fd5b83018035915067ffffffffffffffff821115612fac57600080fd5b602001915036819003821315612fc157600080fd5b9250929050565b634e487b7160e01b600052604160045260246000fd5b601f82111561302857600081815260208120601f850160051c810160208610156130055750805b601f850160051c820191505b8181101561302457828155600101613011565b5050505b505050565b67ffffffffffffffff83111561304557613045612fc8565b613059836130538354612f31565b83612fde565b6000601f84116001811461308d57600085156130755750838201355b600019600387901b1c1916600186901b178355612af1565b600083815260209020601f19861690835b828110156130be578685013582556020948501946001909201910161309e565b50868210156130db5760001960f88860031b161c19848701351681555b505060018560011b0183555050505050565b6020808252818101839052600090604080840186845b8781101561314c576001600160a01b038061311d84612b22565b1684528061312c878501612b22565b168487015250818401358484015260609283019290910190600101613103565b5090979650505050505050565b6001600160a01b0393841681526001600160e01b0319929092166020830152909116604082015260600190565b60006020828403121561319857600080fd5b81516014811061051d57600080fd5b6020810160148310612c0457612c04612bc1565b6000602082840312156131cd57600080fd5b5051919050565b634e487b7160e01b600052603260045260246000fd5b60006001820161320a57634e487b7160e01b600052601160045260246000fd5b5060010190565b6020808252818101839052600090604080840186845b8781101561314c576001600160a01b038061324184612b22565b16845280613250878501612b22565b16848701525081840135848401526060808301359084015260809283019290910190600101613227565b6000602080838503121561328d57600080fd5b825167ffffffffffffffff808211156132a557600080fd5b818501915085601f8301126132b957600080fd5b8151818111156132cb576132cb612fc8565b8060051b604051601f19603f830116810181811085821117156132f0576132f0612fc8565b60405291825284820192508381018501918883111561330e57600080fd5b938501935b8285101561332c57845184529385019392850192613313565b98975050505050505050565b6020808252818101839052600090604080840186845b8781101561314c576001600160a01b0361336783612b22565b1683528185013585840152918301919083019060010161334e565b60018060a01b03815116825267ffffffffffffffff60208201511660208301526000604082015160606040850152610d216060850182612b68565b600060408083526133d081840186613382565b6020848203818601528186518084528284019150828160051b85010183890160005b8381101561350a57601f198784030185528151610180815185528782015188860152898201518a860152606080830151828288015261343383880182612b68565b925050506080808301518683038288015261344e8382612b68565b9250505060a08083015161346c828801826001600160a01b03169052565b505060c0828101516001600160a01b03811687830152505060e0828101516001600160a01b038116878301525050610100808301516134af8288018260010b9052565b5050610120808301516134c482880182612bea565b5050610140808301516134d982880182612bea565b505061016080830151925085820381870152506134f68183612b68565b9688019694505050908501906001016133f2565b50909a9950505050505050505050565b600081518084526020808501945080840160005b8381101561359d5781518051885283810151848901526040808201516001600160e01b0319169089015260608082015160ff169089015260808082015161357481612bd7565b9089015260a0908101519061358882612bd7565b88015260c0909601959082019060010161352e565b509495945050505050565b600060408083526135bb81840186613382565b6020848203818601528186518084528284019150828160051b85010183890160005b8381101561350a57601f198784030185528151610120815181865261360482870182612b68565b9150508782015188860152898201518a8601526060808301518683038288015261362e8382612b68565b92505050608080830151868303828801526136498382612b68565b9250505060a080830151613667828801826001600160a01b03169052565b505060c0828101516001600160a01b03811687830152505060e0828101516001600160a01b03811687830152505061010080830151925085820381870152506136b0818361351a565b9688019694505050908501906001016135dd56fe33c2ad0e769b5a5e7f07ab57ff61ae195b76839fc48d116ffe8dc881334fa213a2646970667358221220fab52ad3e5408fe894900d8b27133fa860a4e4394d06f7062f4d857b0a1bbaf064736f6c63430008130033",
  "devdoc": {
    "author": "Sina Tadayon, https://github.com/SinaTadayon",
    "kind": "dev",
    "methods": {
      "supportsInterface(bytes4)": {
        "details": "See {IERC165-supportsInterface}."
      }
    },
    "title": "Asset ERC20 Contract",
    "version": 1
  },
  "userdoc": {
    "kind": "user",
    "methods": {},
    "version": 1
  },
  "storageLayout": {
    "storage": [
      {
        "astId": 82432,
        "contract": "src/contracts/token/asset/ERC20/AssetERC20.sol:AssetERC20",
        "label": "_initialized",
        "offset": 0,
        "slot": "0",
        "type": "t_uint16"
      },
      {
        "astId": 82435,
        "contract": "src/contracts/token/asset/ERC20/AssetERC20.sol:AssetERC20",
        "label": "_initializing",
        "offset": 2,
        "slot": "0",
        "type": "t_bool"
      },
      {
        "astId": 87548,
        "contract": "src/contracts/token/asset/ERC20/AssetERC20.sol:AssetERC20",
        "label": "_accessControlId",
        "offset": 3,
        "slot": "0",
        "type": "t_address"
      },
      {
        "astId": 87550,
        "contract": "src/contracts/token/asset/ERC20/AssetERC20.sol:AssetERC20",
        "label": "_erc20TokenId",
        "offset": 0,
        "slot": "1",
        "type": "t_address"
      },
      {
        "astId": 87552,
        "contract": "src/contracts/token/asset/ERC20/AssetERC20.sol:AssetERC20",
        "label": "_contractName",
        "offset": 0,
        "slot": "2",
        "type": "t_string_storage"
      },
      {
        "astId": 87554,
        "contract": "src/contracts/token/asset/ERC20/AssetERC20.sol:AssetERC20",
        "label": "_contractVersion",
        "offset": 0,
        "slot": "3",
        "type": "t_string_storage"
      },
      {
        "astId": 87557,
        "contract": "src/contracts/token/asset/ERC20/AssetERC20.sol:AssetERC20",
        "label": "_assetSafeModeStatus",
        "offset": 0,
        "slot": "4",
        "type": "t_enum(AssetSafeModeStatus)89181"
      }
    ],
    "types": {
      "t_address": {
        "encoding": "inplace",
        "label": "address",
        "numberOfBytes": "20"
      },
      "t_bool": {
        "encoding": "inplace",
        "label": "bool",
        "numberOfBytes": "1"
      },
      "t_enum(AssetSafeModeStatus)89181": {
        "encoding": "inplace",
        "label": "enum IAssetEntity.AssetSafeModeStatus",
        "numberOfBytes": "1"
      },
      "t_string_storage": {
        "encoding": "bytes",
        "label": "string",
        "numberOfBytes": "32"
      },
      "t_uint16": {
        "encoding": "inplace",
        "label": "uint16",
        "numberOfBytes": "2"
      }
    }
  }
}