{
  "address": "0x2d59b848c0d1E35485162F8b7FB0aF04eb7c3180",
  "abi": [
    {
      "inputs": [
        {
          "internalType": "address",
          "name": "logic",
          "type": "address"
        },
        {
          "internalType": "bytes",
          "name": "data",
          "type": "bytes"
        }
      ],
      "stateMutability": "payable",
      "type": "constructor"
    },
    {
      "anonymous": false,
      "inputs": [
        {
          "indexed": true,
          "internalType": "address",
          "name": "sender",
          "type": "address"
        },
        {
          "indexed": true,
          "internalType": "address",
          "name": "proxy",
          "type": "address"
        },
        {
          "indexed": true,
          "internalType": "address",
          "name": "newImplementation",
          "type": "address"
        }
      ],
      "name": "ProxyUpgraded",
      "type": "event"
    },
    {
      "stateMutability": "payable",
      "type": "fallback"
    },
    {
      "inputs": [],
      "name": "TYPE_HASH",
      "outputs": [
        {
          "internalType": "bytes32",
          "name": "",
          "type": "bytes32"
        }
      ],
      "stateMutability": "view",
      "type": "function"
    },
    {
      "stateMutability": "payable",
      "type": "receive"
    }
  ],
  "transactionHash": "0x855dca33443a06a6866ee719f72028fe8be4166e3e21ac4ba39afb8749bcf015",
  "args": [
    "0x27ced26d4D7d0AdeC21FF82d4547D1A71d9d8477",
    {}
  ],
  "numDeployments": 1,
  "solcInputHash": "bf3d37f12163392c6a812b5af749abec",
  "bytecode": "0x60a06040819052306080526108a838819003908190833981016040819052610026916105bb565b61005160017f360894a13ba1a3210667c828492db98dca3e2076cc3735a920a3ca505d382bbd610689565b6000805160206108888339815191521461006d5761006d6106aa565b61009860017fb53127684a568b3173ae13b9f8a6016e243e63b6e8ee1178d6a717850b5d6104610689565b600080516020610868833981519152146100b4576100b46106aa565b60008051602061086883398151915280546001600160a01b0319163317905560028054600160a01b61ffff60a01b199091161790556100f5828260006100fd565b50505061074a565b60606001600160a01b0384163b61014e5760405162461bcd60e51b815260206004820152601060248201526f125b1b1959d85b0810dbdb9d1c9858dd60821b60448201526064015b60405180910390fd5b7f4910fdfa16fed3260ed0e7147f7cc6da11a60208b5b9406d12a635614ffd91435460ff16156101b55760008051602061088883398151915280546001600160a01b0319166001600160a01b03861617905550604080516000815260208101909152610388565b836001600160a01b03166352d1902d6040518163ffffffff1660e01b8152600401602060405180830381865afa92505050801561020f575060408051601f3d908101601f1916820190925261020c918101906106c0565b60015b61024a5760405162461bcd60e51b815260206004820152600c60248201526b496c6c6567616c205555505360a01b6044820152606401610145565b60008051602061088883398151915281146102965760405162461bcd60e51b815260206004820152600c60248201526b496e76616c6964205555505360a01b6044820152606401610145565b506040516301ffc9a760e01b8152633d817cff60e01b60048201526001600160a01b038516906301ffc9a790602401602060405180830381865afa9250505080156102fe575060408051601f3d908101601f191682019092526102fb918101906106d9565b60015b61033b5760405162461bcd60e51b815260206004820152600e60248201526d496c6c6567616c204950726f787960901b6044820152606401610145565b806103795760405162461bcd60e51b815260206004820152600e60248201526d496e76616c6964204950726f787960901b6044820152606401610145565b5061038584848461038f565b90505b9392505050565b606061039a846103cd565b6000835111806103a75750815b156103b6576103858484610428565b505060408051600081526020810190915292915050565b60008051602061088883398151915280546001600160a01b0319166001600160a01b038316908117909155604051309033907f8ee0f2bd29c0e6a975c3cc2e47cf2e01b5f23a9a8a02e0ed6a5a070269de3d2d90600090a450565b606061047083836040518060400160405280601481526020017f44656c65676174652043616c6c204661696c656400000000000000000000000081525061047960201b60201c565b90505b92915050565b60606001600160a01b0384163b6104d25760405162461bcd60e51b815260206004820152601860248201527f496c6c6567616c20436f6e7472616374204164647265737300000000000000006044820152606401610145565b600080856001600160a01b0316856040516104ed91906106fb565b600060405180830381855af49150503d8060008114610528576040519150601f19603f3d011682016040523d82523d6000602084013e61052d565b606091505b50909250905061053e828286610548565b9695505050505050565b60608315610557575081610388565b8251156105675782518084602001fd5b8160405162461bcd60e51b81526004016101459190610717565b634e487b7160e01b600052604160045260246000fd5b60005b838110156105b257818101518382015260200161059a565b50506000910152565b600080604083850312156105ce57600080fd5b82516001600160a01b03811681146105e557600080fd5b60208401519092506001600160401b038082111561060257600080fd5b818501915085601f83011261061657600080fd5b81518181111561062857610628610581565b604051601f8201601f19908116603f0116810190838211818310171561065057610650610581565b8160405282815288602084870101111561066957600080fd5b61067a836020830160208801610597565b80955050505050509250929050565b8181038181111561047357634e487b7160e01b600052601160045260246000fd5b634e487b7160e01b600052600160045260246000fd5b6000602082840312156106d257600080fd5b5051919050565b6000602082840312156106eb57600080fd5b8151801515811461038857600080fd5b6000825161070d818460208701610597565b9190910192915050565b6020815260008251806020840152610736816040850160208701610597565b601f01601f19169190910160400192915050565b608051610106610762600039600050506101066000f3fe608060405260043610601f5760003560e01c806364d4c81914603157602b565b36602b5760296075565b005b60296075565b348015603c57600080fd5b5060637f8b73c3c69bb8fe3d512ecc4cf759cc79239f7b179b0ffacaa9a75d522b39400f81565b60405190815260200160405180910390f35b60ab60a77f360894a13ba1a3210667c828492db98dca3e2076cc3735a920a3ca505d382bbc546001600160a01b031690565b60ad565b565b3660008037600080366000845af43d6000803e80801560cb573d6000f35b3d6000fdfea26469706673582212208cdf883de750240cd2f2dc58bbf3d82ef34d800a8339eba8997faf20a75cdb4d64736f6c63430008130033b53127684a568b3173ae13b9f8a6016e243e63b6e8ee1178d6a717850b5d6103360894a13ba1a3210667c828492db98dca3e2076cc3735a920a3ca505d382bbc",
  "devdoc": {
    "author": "Sina Tadayon, https://github.com/SinaTadayon",
    "kind": "dev",
    "methods": {
      "constructor": {
        "details": "Initializes the upgradeable proxy with an initial implementation specified by `_logic`. If `_data` is nonempty, it's used as data in a delegate call to `_logic`. This will typically be an encoded function call, and allows initializing the storage of the proxy like a Solidity constructor."
      }
    },
    "title": "Proxy Contract",
    "version": 1
  },
  "userdoc": {
    "kind": "user",
    "methods": {},
    "version": 1
  },
  "storageLayout": {
    "storage": [
      {
        "astId": 82229,
        "contract": "src/contracts/proxy/Proxy.sol:Proxy",
        "label": "_contractName",
        "offset": 0,
        "slot": "0",
        "type": "t_string_storage"
      },
      {
        "astId": 82231,
        "contract": "src/contracts/proxy/Proxy.sol:Proxy",
        "label": "_contractVersion",
        "offset": 0,
        "slot": "1",
        "type": "t_string_storage"
      },
      {
        "astId": 82233,
        "contract": "src/contracts/proxy/Proxy.sol:Proxy",
        "label": "_accessControlManager",
        "offset": 0,
        "slot": "2",
        "type": "t_address"
      },
      {
        "astId": 82236,
        "contract": "src/contracts/proxy/Proxy.sol:Proxy",
        "label": "_sstat",
        "offset": 20,
        "slot": "2",
        "type": "t_enum(ProxySafeModeStatus)82251"
      },
      {
        "astId": 82239,
        "contract": "src/contracts/proxy/Proxy.sol:Proxy",
        "label": "_ustat",
        "offset": 21,
        "slot": "2",
        "type": "t_enum(ProxyUpdatabilityStatus)82254"
      },
      {
        "astId": 82244,
        "contract": "src/contracts/proxy/Proxy.sol:Proxy",
        "label": "__reserved",
        "offset": 0,
        "slot": "3",
        "type": "t_array(t_uint256)64_storage"
      }
    ],
    "types": {
      "t_address": {
        "encoding": "inplace",
        "label": "address",
        "numberOfBytes": "20"
      },
      "t_array(t_uint256)64_storage": {
        "base": "t_uint256",
        "encoding": "inplace",
        "label": "uint256[64]",
        "numberOfBytes": "2048"
      },
      "t_enum(ProxySafeModeStatus)82251": {
        "encoding": "inplace",
        "label": "enum IBaseProxy.ProxySafeModeStatus",
        "numberOfBytes": "1"
      },
      "t_enum(ProxyUpdatabilityStatus)82254": {
        "encoding": "inplace",
        "label": "enum IBaseProxy.ProxyUpdatabilityStatus",
        "numberOfBytes": "1"
      },
      "t_string_storage": {
        "encoding": "bytes",
        "label": "string",
        "numberOfBytes": "32"
      },
      "t_uint256": {
        "encoding": "inplace",
        "label": "uint256",
        "numberOfBytes": "32"
      }
    }
  }
}