{
  "address": "0x27ced26d4D7d0AdeC21FF82d4547D1A71d9d8477",
  "abi": [
    {
      "inputs": [],
      "stateMutability": "nonpayable",
      "type": "constructor"
    },
    {
      "inputs": [
        {
          "internalType": "enum IACL.AuthorizationStatus",
          "name": "",
          "type": "uint8"
        }
      ],
      "name": "ACLActionForbidden",
      "type": "error"
    },
    {
      "anonymous": false,
      "inputs": [
        {
          "indexed": true,
          "internalType": "address",
          "name": "sender",
          "type": "address"
        },
        {
          "indexed": true,
          "internalType": "address",
          "name": "assetId",
          "type": "address"
        },
        {
          "indexed": true,
          "internalType": "address",
          "name": "tokenId",
          "type": "address"
        }
      ],
      "name": "AssetCreated",
      "type": "event"
    },
    {
      "anonymous": false,
      "inputs": [
        {
          "indexed": true,
          "internalType": "address",
          "name": "sender",
          "type": "address"
        },
        {
          "indexed": true,
          "internalType": "address",
          "name": "assetId",
          "type": "address"
        },
        {
          "indexed": true,
          "internalType": "address",
          "name": "tokenId",
          "type": "address"
        }
      ],
      "name": "AssetRegistered",
      "type": "event"
    },
    {
      "anonymous": false,
      "inputs": [
        {
          "indexed": true,
          "internalType": "address",
          "name": "sender",
          "type": "address"
        },
        {
          "indexed": true,
          "internalType": "address",
          "name": "assetId",
          "type": "address"
        },
        {
          "indexed": true,
          "internalType": "address",
          "name": "tokenId",
          "type": "address"
        }
      ],
      "name": "AssetRemoved",
      "type": "event"
    },
    {
      "anonymous": false,
      "inputs": [
        {
          "indexed": true,
          "internalType": "address",
          "name": "sender",
          "type": "address"
        },
        {
          "indexed": true,
          "internalType": "address",
          "name": "proxy",
          "type": "address"
        },
        {
          "indexed": true,
          "internalType": "address",
          "name": "subject",
          "type": "address"
        },
        {
          "indexed": false,
          "internalType": "string",
          "name": "name",
          "type": "string"
        },
        {
          "indexed": false,
          "internalType": "string",
          "name": "version",
          "type": "string"
        },
        {
          "indexed": false,
          "internalType": "uint16",
          "name": "initCount",
          "type": "uint16"
        }
      ],
      "name": "Initialized",
      "type": "event"
    },
    {
      "anonymous": false,
      "inputs": [
        {
          "indexed": true,
          "internalType": "address",
          "name": "sender",
          "type": "address"
        },
        {
          "indexed": true,
          "internalType": "address",
          "name": "proxy",
          "type": "address"
        },
        {
          "indexed": false,
          "internalType": "address",
          "name": "acl",
          "type": "address"
        }
      ],
      "name": "ProxyAccessControlUpdated",
      "type": "event"
    },
    {
      "anonymous": false,
      "inputs": [
        {
          "indexed": true,
          "internalType": "address",
          "name": "sender",
          "type": "address"
        },
        {
          "indexed": true,
          "internalType": "address",
          "name": "proxy",
          "type": "address"
        },
        {
          "indexed": false,
          "internalType": "address",
          "name": "newAdmin",
          "type": "address"
        }
      ],
      "name": "ProxyLocalAdminUpdated",
      "type": "event"
    },
    {
      "anonymous": false,
      "inputs": [
        {
          "indexed": true,
          "internalType": "address",
          "name": "sender",
          "type": "address"
        },
        {
          "indexed": true,
          "internalType": "address",
          "name": "proxy",
          "type": "address"
        },
        {
          "indexed": false,
          "internalType": "enum IBaseProxy.ProxySafeModeStatus",
          "name": "sstat",
          "type": "uint8"
        }
      ],
      "name": "ProxySafeModeUpdated",
      "type": "event"
    },
    {
      "anonymous": false,
      "inputs": [
        {
          "indexed": true,
          "internalType": "address",
          "name": "sender",
          "type": "address"
        },
        {
          "indexed": true,
          "internalType": "address",
          "name": "proxy",
          "type": "address"
        },
        {
          "indexed": false,
          "internalType": "enum IBaseProxy.ProxyUpdatabilityStatus",
          "name": "ustat",
          "type": "uint8"
        }
      ],
      "name": "ProxyUpdatabilityUpdated",
      "type": "event"
    },
    {
      "anonymous": false,
      "inputs": [
        {
          "indexed": true,
          "internalType": "address",
          "name": "sender",
          "type": "address"
        },
        {
          "indexed": true,
          "internalType": "address",
          "name": "proxy",
          "type": "address"
        },
        {
          "indexed": true,
          "internalType": "address",
          "name": "newImplementation",
          "type": "address"
        }
      ],
      "name": "ProxyUpgraded",
      "type": "event"
    },
    {
      "anonymous": false,
      "inputs": [
        {
          "indexed": true,
          "internalType": "address",
          "name": "sender",
          "type": "address"
        },
        {
          "indexed": true,
          "internalType": "address",
          "name": "tokenId",
          "type": "address"
        },
        {
          "indexed": true,
          "internalType": "address",
          "name": "assetSubjectId",
          "type": "address"
        },
        {
          "indexed": false,
          "internalType": "string",
          "name": "tokenName",
          "type": "string"
        },
        {
          "indexed": false,
          "internalType": "string",
          "name": "tokenSymbol",
          "type": "string"
        }
      ],
      "name": "TokenRegistered",
      "type": "event"
    },
    {
      "anonymous": false,
      "inputs": [
        {
          "indexed": true,
          "internalType": "address",
          "name": "sender",
          "type": "address"
        },
        {
          "indexed": true,
          "internalType": "address",
          "name": "tokenId",
          "type": "address"
        },
        {
          "indexed": true,
          "internalType": "address",
          "name": "assetSubjectId",
          "type": "address"
        }
      ],
      "name": "TokenUpdated",
      "type": "event"
    },
    {
      "stateMutability": "payable",
      "type": "fallback"
    },
    {
      "inputs": [],
      "name": "TYPE_HASH",
      "outputs": [
        {
          "internalType": "bytes32",
          "name": "",
          "type": "bytes32"
        }
      ],
      "stateMutability": "view",
      "type": "function"
    },
    {
      "inputs": [],
      "name": "accessControlManager",
      "outputs": [
        {
          "internalType": "address",
          "name": "",
          "type": "address"
        }
      ],
      "stateMutability": "view",
      "type": "function"
    },
    {
      "inputs": [],
      "name": "contractName",
      "outputs": [
        {
          "internalType": "string",
          "name": "",
          "type": "string"
        }
      ],
      "stateMutability": "view",
      "type": "function"
    },
    {
      "inputs": [],
      "name": "contractVersion",
      "outputs": [
        {
          "internalType": "string",
          "name": "",
          "type": "string"
        }
      ],
      "stateMutability": "view",
      "type": "function"
    },
    {
      "inputs": [
        {
          "components": [
            {
              "internalType": "bytes32",
              "name": "adminId",
              "type": "bytes32"
            },
            {
              "internalType": "bytes32",
              "name": "agentId",
              "type": "bytes32"
            },
            {
              "internalType": "bytes32",
              "name": "realmId",
              "type": "bytes32"
            },
            {
              "internalType": "bytes32",
              "name": "salt",
              "type": "bytes32"
            },
            {
              "internalType": "address",
              "name": "tokenId",
              "type": "address"
            },
            {
              "internalType": "address",
              "name": "assetId",
              "type": "address"
            },
            {
              "internalType": "string",
              "name": "assetName",
              "type": "string"
            },
            {
              "internalType": "string",
              "name": "assetVersion",
              "type": "string"
            }
          ],
          "internalType": "struct IAssetManagerERC20.AssetCreateRequest[]",
          "name": "requests",
          "type": "tuple[]"
        }
      ],
      "name": "createAsset",
      "outputs": [
        {
          "internalType": "bool",
          "name": "",
          "type": "bool"
        }
      ],
      "stateMutability": "nonpayable",
      "type": "function"
    },
    {
      "inputs": [],
      "name": "domainSeparator",
      "outputs": [
        {
          "internalType": "bytes32",
          "name": "",
          "type": "bytes32"
        }
      ],
      "stateMutability": "view",
      "type": "function"
    },
    {
      "inputs": [],
      "name": "getAllTokens",
      "outputs": [
        {
          "internalType": "address[]",
          "name": "",
          "type": "address[]"
        }
      ],
      "stateMutability": "view",
      "type": "function"
    },
    {
      "inputs": [
        {
          "internalType": "address",
          "name": "assetId",
          "type": "address"
        }
      ],
      "name": "getSafeModeAsset",
      "outputs": [
        {
          "internalType": "enum IAssetEntity.AssetSafeModeStatus",
          "name": "",
          "type": "uint8"
        }
      ],
      "stateMutability": "view",
      "type": "function"
    },
    {
      "inputs": [
        {
          "internalType": "address",
          "name": "tokenId",
          "type": "address"
        }
      ],
      "name": "getTokenInfo",
      "outputs": [
        {
          "components": [
            {
              "internalType": "address",
              "name": "assetSubjectId",
              "type": "address"
            },
            {
              "internalType": "address[]",
              "name": "assets",
              "type": "address[]"
            },
            {
              "internalType": "bytes",
              "name": "assetSignature",
              "type": "bytes"
            }
          ],
          "internalType": "struct IAssetManagerERC20.TokenInfo",
          "name": "",
          "type": "tuple"
        }
      ],
      "stateMutability": "view",
      "type": "function"
    },
    {
      "inputs": [],
      "name": "initVersion",
      "outputs": [
        {
          "internalType": "uint16",
          "name": "",
          "type": "uint16"
        }
      ],
      "stateMutability": "view",
      "type": "function"
    },
    {
      "inputs": [
        {
          "components": [
            {
              "internalType": "string",
              "name": "contractName",
              "type": "string"
            },
            {
              "internalType": "string",
              "name": "contractVersion",
              "type": "string"
            },
            {
              "internalType": "address",
              "name": "aclManager",
              "type": "address"
            }
          ],
          "internalType": "struct AssetManagerERC20.InitRequest",
          "name": "request",
          "type": "tuple"
        }
      ],
      "name": "initialize",
      "outputs": [],
      "stateMutability": "nonpayable",
      "type": "function"
    },
    {
      "inputs": [
        {
          "internalType": "address",
          "name": "assetId",
          "type": "address"
        }
      ],
      "name": "isAssetExists",
      "outputs": [
        {
          "internalType": "bool",
          "name": "",
          "type": "bool"
        }
      ],
      "stateMutability": "view",
      "type": "function"
    },
    {
      "inputs": [
        {
          "internalType": "address",
          "name": "tokenId",
          "type": "address"
        }
      ],
      "name": "isTokenExists",
      "outputs": [
        {
          "internalType": "bool",
          "name": "",
          "type": "bool"
        }
      ],
      "stateMutability": "view",
      "type": "function"
    },
    {
      "inputs": [],
      "name": "localAdmin",
      "outputs": [
        {
          "internalType": "address",
          "name": "",
          "type": "address"
        }
      ],
      "stateMutability": "view",
      "type": "function"
    },
    {
      "inputs": [
        {
          "internalType": "address",
          "name": "implementation",
          "type": "address"
        },
        {
          "internalType": "bytes32",
          "name": "salt",
          "type": "bytes32"
        },
        {
          "internalType": "address",
          "name": "deployer",
          "type": "address"
        }
      ],
      "name": "predictAddress",
      "outputs": [
        {
          "internalType": "address",
          "name": "",
          "type": "address"
        }
      ],
      "stateMutability": "pure",
      "type": "function"
    },
    {
      "inputs": [],
      "name": "proxiableUUID",
      "outputs": [
        {
          "internalType": "bytes32",
          "name": "",
          "type": "bytes32"
        }
      ],
      "stateMutability": "view",
      "type": "function"
    },
    {
      "inputs": [
        {
          "components": [
            {
              "internalType": "address",
              "name": "tokenId",
              "type": "address"
            },
            {
              "internalType": "address",
              "name": "assetId",
              "type": "address"
            }
          ],
          "internalType": "struct IAssetManagerERC20.AssetActionRequest[]",
          "name": "requests",
          "type": "tuple[]"
        }
      ],
      "name": "registerAsset",
      "outputs": [
        {
          "internalType": "bool",
          "name": "",
          "type": "bool"
        }
      ],
      "stateMutability": "nonpayable",
      "type": "function"
    },
    {
      "inputs": [
        {
          "components": [
            {
              "internalType": "address",
              "name": "tokenId",
              "type": "address"
            },
            {
              "internalType": "address",
              "name": "assetSubjectId",
              "type": "address"
            },
            {
              "internalType": "bytes",
              "name": "assetSignature",
              "type": "bytes"
            }
          ],
          "internalType": "struct IAssetManagerERC20.AssetTokenActionRequest[]",
          "name": "requests",
          "type": "tuple[]"
        }
      ],
      "name": "registerToken",
      "outputs": [
        {
          "internalType": "bool",
          "name": "",
          "type": "bool"
        }
      ],
      "stateMutability": "nonpayable",
      "type": "function"
    },
    {
      "inputs": [
        {
          "components": [
            {
              "internalType": "address",
              "name": "tokenId",
              "type": "address"
            },
            {
              "internalType": "address",
              "name": "assetId",
              "type": "address"
            }
          ],
          "internalType": "struct IAssetManagerERC20.AssetActionRequest[]",
          "name": "requests",
          "type": "tuple[]"
        }
      ],
      "name": "removeAsset",
      "outputs": [
        {
          "internalType": "bool",
          "name": "",
          "type": "bool"
        }
      ],
      "stateMutability": "nonpayable",
      "type": "function"
    },
    {
      "inputs": [],
      "name": "safeModeStatus",
      "outputs": [
        {
          "internalType": "enum IBaseProxy.ProxySafeModeStatus",
          "name": "",
          "type": "uint8"
        }
      ],
      "stateMutability": "view",
      "type": "function"
    },
    {
      "inputs": [
        {
          "internalType": "address",
          "name": "acl",
          "type": "address"
        }
      ],
      "name": "setAccessControlManager",
      "outputs": [
        {
          "internalType": "bool",
          "name": "",
          "type": "bool"
        }
      ],
      "stateMutability": "nonpayable",
      "type": "function"
    },
    {
      "inputs": [
        {
          "internalType": "address",
          "name": "newLocalAdmin",
          "type": "address"
        }
      ],
      "name": "setLocalAdmin",
      "outputs": [
        {
          "internalType": "bool",
          "name": "",
          "type": "bool"
        }
      ],
      "stateMutability": "nonpayable",
      "type": "function"
    },
    {
      "inputs": [
        {
          "components": [
            {
              "internalType": "address",
              "name": "tokenId",
              "type": "address"
            },
            {
              "internalType": "enum IAssetEntity.AssetSafeModeStatus",
              "name": "status",
              "type": "uint8"
            }
          ],
          "internalType": "struct IAssetManagerERC20.AssetTokenSafeModeRequest[]",
          "name": "requests",
          "type": "tuple[]"
        }
      ],
      "name": "setSafeModeAssets",
      "outputs": [
        {
          "internalType": "bool",
          "name": "",
          "type": "bool"
        }
      ],
      "stateMutability": "nonpayable",
      "type": "function"
    },
    {
      "inputs": [
        {
          "internalType": "enum IBaseProxy.ProxySafeModeStatus",
          "name": "sstat",
          "type": "uint8"
        }
      ],
      "name": "setSafeModeStatus",
      "outputs": [
        {
          "internalType": "bool",
          "name": "",
          "type": "bool"
        }
      ],
      "stateMutability": "nonpayable",
      "type": "function"
    },
    {
      "inputs": [
        {
          "internalType": "enum IBaseProxy.ProxyUpdatabilityStatus",
          "name": "ustat",
          "type": "uint8"
        }
      ],
      "name": "setUpdatabilityStatus",
      "outputs": [
        {
          "internalType": "bool",
          "name": "",
          "type": "bool"
        }
      ],
      "stateMutability": "nonpayable",
      "type": "function"
    },
    {
      "inputs": [],
      "name": "subjectAddress",
      "outputs": [
        {
          "internalType": "address",
          "name": "",
          "type": "address"
        }
      ],
      "stateMutability": "view",
      "type": "function"
    },
    {
      "inputs": [
        {
          "internalType": "bytes4",
          "name": "interfaceId",
          "type": "bytes4"
        }
      ],
      "name": "supportsInterface",
      "outputs": [
        {
          "internalType": "bool",
          "name": "",
          "type": "bool"
        }
      ],
      "stateMutability": "view",
      "type": "function"
    },
    {
      "inputs": [],
      "name": "updatabilityStatus",
      "outputs": [
        {
          "internalType": "enum IBaseProxy.ProxyUpdatabilityStatus",
          "name": "",
          "type": "uint8"
        }
      ],
      "stateMutability": "view",
      "type": "function"
    },
    {
      "inputs": [
        {
          "components": [
            {
              "internalType": "address",
              "name": "tokenId",
              "type": "address"
            },
            {
              "internalType": "address",
              "name": "assetSubjectId",
              "type": "address"
            },
            {
              "internalType": "bytes",
              "name": "assetSignature",
              "type": "bytes"
            }
          ],
          "internalType": "struct IAssetManagerERC20.AssetTokenActionRequest[]",
          "name": "requests",
          "type": "tuple[]"
        }
      ],
      "name": "updateToken",
      "outputs": [
        {
          "internalType": "bool",
          "name": "",
          "type": "bool"
        }
      ],
      "stateMutability": "nonpayable",
      "type": "function"
    },
    {
      "inputs": [
        {
          "internalType": "address",
          "name": "newImplementation",
          "type": "address"
        },
        {
          "internalType": "bytes",
          "name": "data",
          "type": "bytes"
        },
        {
          "internalType": "bool",
          "name": "forceCall",
          "type": "bool"
        }
      ],
      "name": "upgradeTo",
      "outputs": [
        {
          "internalType": "bytes",
          "name": "",
          "type": "bytes"
        }
      ],
      "stateMutability": "nonpayable",
      "type": "function"
    },
    {
      "inputs": [
        {
          "internalType": "address",
          "name": "recepient",
          "type": "address"
        }
      ],
      "name": "withdrawBalance",
      "outputs": [
        {
          "internalType": "uint256",
          "name": "",
          "type": "uint256"
        }
      ],
      "stateMutability": "nonpayable",
      "type": "function"
    },
    {
      "stateMutability": "payable",
      "type": "receive"
    }
  ],
  "transactionHash": "0xfa7e9ced5cf6294065a8de5b4f83627b374e01d51427aeacc184b47251ef0a47",
  "args": [],
  "numDeployments": 1,
  "solcInputHash": "bf3d37f12163392c6a812b5af749abec",
  "bytecode": "0x60a0604052306080523480156200001557600080fd5b506200004360017f360894a13ba1a3210667c828492db98dca3e2076cc3735a920a3ca505d382bbd620000fd565b7f360894a13ba1a3210667c828492db98dca3e2076cc3735a920a3ca505d382bbc1462000074576200007462000125565b620000a160017fb53127684a568b3173ae13b9f8a6016e243e63b6e8ee1178d6a717850b5d6104620000fd565b6000805160206200499e83398151915214620000c157620000c162000125565b6000805160206200499e83398151915280546001600160a01b0319163317905560028054600160a01b61ffff60a01b199091161790556200013b565b818103818111156200011f57634e487b7160e01b600052601160045260246000fd5b92915050565b634e487b7160e01b600052600160045260246000fd5b6080516147f3620001ab600039600081816106250152818161066e0152818161087f015281816108bf01528181610cb70152818161172001528181611760015281816123000152818161234001528181612cd901528181612d1901528181612e8d0152612ecd01526147f36000f3fe6080604052600436106101c45760003560e01c806375d0c0dc116100f6578063d9dc1f191161008f578063f698da2511610061578063f698da2514610586578063f708ceb01461059b578063f94a0adb146105bb578063fcc40178146105d057005b8063d9dc1f1914610506578063de82564814610526578063e39a652e14610546578063ef34f2911461056657005b8063a61da042116100c8578063a61da0421461047b578063b4a0bdf3146104a8578063b8e82450146104c6578063c6aea69d146104e657005b806375d0c0dc146104125780639ed4fa5a14610427578063a0a8e46014610447578063a304e3531461045c57005b806352d1902d1161016857806364d4c8191161013a57806364d4c8191461037157806367eb04e6146103a55780637147855d146103c5578063756af45f146103f257005b806352d1902d146102e157806355c4cc7f1461030457806358dbc45d146103245780635af4e1c61461035157005b80631f69565f116101a15780631f69565f146102425780632a5c792a1461026f57806338d38c97146102915780634888f482146102b957005b806301ffc9a7146101cd57806307db3d3d146102025780630e32cb861461022257005b366101cb57005b005b3480156101d957600080fd5b506101ed6101e8366004613c36565b6105f0565b60405190151581526020015b60405180910390f35b34801561020e57600080fd5b506101cb61021d366004613c60565b61061b565b34801561022e57600080fd5b506101ed61023d366004613cb3565b610873565b34801561024e57600080fd5b5061026261025d366004613cb3565b610b85565b6040516101f99190613d20565b34801561027b57600080fd5b50610284610c8a565b6040516101f99190613da7565b34801561029d57600080fd5b506102a6610c9b565b60405161ffff90911681526020016101f9565b3480156102c557600080fd5b50600254600160a81b900460ff165b6040516101f99190613e1a565b3480156102ed57600080fd5b506102f6610caa565b6040519081526020016101f9565b34801561031057600080fd5b506101ed61031f366004613e79565b610d07565b34801561033057600080fd5b50610339611302565b6040516001600160a01b0390911681526020016101f9565b34801561035d57600080fd5b506101ed61036c366004613e79565b61130c565b34801561037d57600080fd5b506102f67f8b73c3c69bb8fe3d512ecc4cf759cc79239f7b179b0ffacaa9a75d522b39400f81565b3480156103b157600080fd5b506101ed6103c0366004613cb3565b611686565b3480156103d157600080fd5b506103e56103e0366004613f38565b611714565b6040516101f99190613fdf565b3480156103fe57600080fd5b506102f661040d366004613cb3565b611875565b34801561041e57600080fd5b506103e561193a565b34801561043357600080fd5b506101ed610442366004613cb3565b6119cc565b34801561045357600080fd5b506103e56119d9565b34801561046857600080fd5b50600254600160a01b900460ff166102d4565b34801561048757600080fd5b5061049b610496366004613cb3565b6119e8565b6040516101f99190613ff2565b3480156104b457600080fd5b506002546001600160a01b0316610339565b3480156104d257600080fd5b506101ed6104e136600461404b565b611a4c565b3480156104f257600080fd5b506101ed610501366004613e79565b611bdb565b34801561051257600080fd5b506101ed610521366004613cb3565b6122f4565b34801561053257600080fd5b506101ed61054136600461404b565b6124aa565b34801561055257600080fd5b506101ed61056136600461404b565b612903565b34801561057257600080fd5b50610339610581366004614081565b612cad565b34801561059257600080fd5b506102f6612cc3565b3480156105a757600080fd5b506101ed6105b63660046140c5565b612ccd565b3480156105c757600080fd5b50610339612e77565b3480156105dc57600080fd5b506101ed6105eb3660046140c5565b612e81565b60006001600160e01b03198216631929a3e160e31b148061061557506106158261300c565b92915050565b6001600160a01b037f000000000000000000000000000000000000000000000000000000000000000016300361066c5760405162461bcd60e51b8152600401610663906140e2565b60405180910390fd5b7f00000000000000000000000000000000000000000000000000000000000000006001600160a01b031661069e61305c565b6001600160a01b0316146106c45760405162461bcd60e51b815260040161066390614108565b336106cd61307d565b6001600160a01b0316146107135760405162461bcd60e51b815260206004820152600d60248201526c1058d8d95cdcc811195b9a5959609a1b6044820152606401610663565b60465462010000900460ff16158080156107355750604654600161ffff909116105b806107505750303b158015610750575060465461ffff166001145b61079c5760405162461bcd60e51b815260206004820152601c60248201527f436f6e747261637420416c726561647920496e697469616c697a6564000000006044820152606401610663565b6046805461ffff1916600117905580156107c2576046805462ff00001916620100001790555b6107f16107cf838061412e565b6107dc602086018661412e565b6107ec6060880160408901613cb3565b6130a5565b6107f961305c565b6001600160a01b031630337f247ab7b17ee489fa140c6666edc3822eefed2727610cd6e37192462b87244c6061082f868061412e565b61083c602089018961412e565b60465461ffff1660405161085495949392919061419e565b60405180910390a4801561086f576046805462ff0000191690555b5050565b60006001600160a01b037f00000000000000000000000000000000000000000000000000000000000000001630036108bd5760405162461bcd60e51b8152600401610663906140e2565b7f00000000000000000000000000000000000000000000000000000000000000006001600160a01b03166108ef61305c565b6001600160a01b0316146109155760405162461bcd60e51b815260040161066390614108565b6000600254600160a01b900460ff16600181111561093557610935613df4565b146109525760405162461bcd60e51b8152600401610663906141dc565b6001600254600160a81b900460ff16600181111561097257610972613df4565b1461098f5760405162461bcd60e51b8152600401610663906141fe565b6001600160a01b038216158015906109b057506001600160a01b0382163b15155b6109cc5760405162461bcd60e51b815260040161066390614229565b6002546001600160a01b031615610a2b5760006109ef63071965c360e11b6130b9565b90506000816013811115610a0557610a05613df4565b14610a255780604051637f0911d160e01b81526004016106639190614253565b50610a7a565b33610a3461307d565b6001600160a01b031614610a7a5760405162461bcd60e51b815260206004820152600d60248201526c1058d8d95cdcc811195b9a5959609a1b6044820152606401610663565b6040516301ffc9a760e01b81526001600160a01b038316906301ffc9a790610aad906331501c3960e01b90600401614267565b602060405180830381865afa158015610aca573d6000803e3d6000fd5b505050506040513d601f19601f82011682018060405250810190610aee919061427c565b610b285760405162461bcd60e51b815260206004820152600b60248201526a125b1b1959d85b081050d360aa1b6044820152606401610663565b600280546001600160a01b0384166001600160a01b031990911681179091556040805191825251309133917f410bf468eebeeed60acaedb904afb2db7c0bb0131f7d14c3714d81b14fe8ed3c9181900360200190a3506001919050565b610bb2604051806060016040528060006001600160a01b0316815260200160608152602001606081525090565b6001600160a01b03808316600090815260436020908152604091829020825160608101909352600281015490931682528101610bed83613144565b8152602001826003018054610c0190614299565b80601f0160208091040260200160405190810160405280929190818152602001828054610c2d90614299565b8015610c7a5780601f10610c4f57610100808354040283529160200191610c7a565b820191906000526020600020905b815481529060010190602001808311610c5d57829003601f168201915b5050505050815250915050919050565b6060610c966044613144565b905090565b6000610c9660465461ffff1690565b6000306001600160a01b037f00000000000000000000000000000000000000000000000000000000000000001614610cf45760405162461bcd60e51b8152600401610663906140e2565b5060008051602061479e83398151915290565b6000610d196355c4cc7f60e01b613151565b60005b828110156112f857610d61848483818110610d3957610d396142d3565b9050602002810190610d4b91906142e9565b610d59906020810190613cb3565b6044906131d5565b15610da35760405162461bcd60e51b8152602060048201526012602482015271105b1c9958591e48149959da5cdd195c995960721b6044820152606401610663565b6000848483818110610db757610db76142d3565b9050602002810190610dc991906142e9565b610dd790604081019061412e565b905011610e1a5760405162461bcd60e51b8152602060048201526011602482015270496c6c6567616c205369676e617475726560781b6044820152606401610663565b838382818110610e2c57610e2c6142d3565b9050602002810190610e3e91906142e9565b610e4c906020810190613cb3565b6001600160a01b03166301ffc9a7634a17459160e11b6040518263ffffffff1660e01b8152600401610e7e9190614267565b602060405180830381865afa158015610e9b573d6000803e3d6000fd5b505050506040513d601f19601f82011682018060405250810190610ebf919061427c565b610efb5760405162461bcd60e51b815260206004820152600d60248201526c0496c6c6567616c20455243323609c1b6044820152606401610663565b838382818110610f0d57610f0d6142d3565b9050602002810190610f1f91906142e9565b610f30906040810190602001613cb3565b6001600160a01b03166301ffc9a7630225567160e21b6040518263ffffffff1660e01b8152600401610f629190614267565b602060405180830381865afa158015610f7f573d6000803e3d6000fd5b505050506040513d601f19601f82011682018060405250810190610fa3919061427c565b610fbf5760405162461bcd60e51b815260040161066390614309565b6000848483818110610fd357610fd36142d3565b9050602002810190610fe591906142e9565b610ff3906020810190613cb3565b6001600160a01b03166306fdde036040518163ffffffff1660e01b8152600401600060405180830381865afa158015611030573d6000803e3d6000fd5b505050506040513d6000823e601f3d908101601f191682016040526110589190810190614337565b9050600085858481811061106e5761106e6142d3565b905060200281019061108091906142e9565b61108e906020810190613cb3565b6001600160a01b03166395d89b416040518163ffffffff1660e01b8152600401600060405180830381865afa1580156110cb573d6000803e3d6000fd5b505050506040513d6000823e601f3d908101601f191682016040526110f39190810190614337565b905061113286868581811061110a5761110a6142d3565b905060200281019061111c91906142e9565b61112a906020810190613cb3565b6044906131f7565b50600060438188888781811061114a5761114a6142d3565b905060200281019061115c91906142e9565b61116a906020810190613cb3565b6001600160a01b03166001600160a01b03168152602001908152602001600020905086868581811061119e5761119e6142d3565b90506020028101906111b091906142e9565b6111c1906040810190602001613cb3565b6002820180546001600160a01b0319166001600160a01b03929092169190911790558686858181106111f5576111f56142d3565b905060200281019061120791906142e9565b61121590604081019061412e565b60038301916112259190836143fc565b50868685818110611238576112386142d3565b905060200281019061124a91906142e9565b61125b906040810190602001613cb3565b6001600160a01b0316878786818110611276576112766142d3565b905060200281019061128891906142e9565b611296906020810190613cb3565b6001600160a01b0316336001600160a01b03167ff8e619924459a89488a53864890748f4421f99738569c4571c2d11da182d2e0086866040516112da9291906144bc565b60405180910390a450505080806112f0906144f7565b915050610d1c565b5060019392505050565b6000610c9661305c565b600061131e632d7a70e360e11b613151565b60005b828110156112f85761133e848483818110610d3957610d396142d3565b61135a5760405162461bcd60e51b815260040161066390614510565b83838281811061136c5761136c6142d3565b905060200281019061137e91906142e9565b61138f906040810190602001613cb3565b6001600160a01b03166301ffc9a7630225567160e21b6040518263ffffffff1660e01b81526004016113c19190614267565b602060405180830381865afa1580156113de573d6000803e3d6000fd5b505050506040513d601f19601f82011682018060405250810190611402919061427c565b61141e5760405162461bcd60e51b815260040161066390614309565b6000848483818110611432576114326142d3565b905060200281019061144491906142e9565b61145290604081019061412e565b9050116114955760405162461bcd60e51b8152602060048201526011602482015270496c6c6567616c205369676e617475726560781b6044820152606401610663565b8383828181106114a7576114a76142d3565b90506020028101906114b991906142e9565b6114ca906040810190602001613cb3565b604360008686858181106114e0576114e06142d3565b90506020028101906114f291906142e9565b611500906020810190613cb3565b6001600160a01b039081168252602082019290925260400160002060020180546001600160a01b03191692909116919091179055838382818110611546576115466142d3565b905060200281019061155891906142e9565b61156690604081019061412e565b6043600087878681811061157c5761157c6142d3565b905060200281019061158e91906142e9565b61159c906020810190613cb3565b6001600160a01b031681526020810191909152604001600020600301916115c49190836143fc565b508383828181106115d7576115d76142d3565b90506020028101906115e991906142e9565b6115fa906040810190602001613cb3565b6001600160a01b0316848483818110611615576116156142d3565b905060200281019061162791906142e9565b611635906020810190613cb3565b6001600160a01b0316336001600160a01b03167f9d203f9c7900cead6c642365d4d8ff9e6f6b4a2bb267d7f57d5c55a076ab825260405160405180910390a48061167e816144f7565b915050611321565b60006106158260436000016000856001600160a01b0316631083f7616040518163ffffffff1660e01b8152600401602060405180830381865afa1580156116d1573d6000803e3d6000fd5b505050506040513d601f19601f820116820180604052508101906116f59190614533565b6001600160a01b031681526020810191909152604001600020906131d5565b60606001600160a01b037f000000000000000000000000000000000000000000000000000000000000000016300361175e5760405162461bcd60e51b8152600401610663906140e2565b7f00000000000000000000000000000000000000000000000000000000000000006001600160a01b031661179061305c565b6001600160a01b0316146117b65760405162461bcd60e51b815260040161066390614108565b6000600254600160a01b900460ff1660018111156117d6576117d6613df4565b146117f35760405162461bcd60e51b8152600401610663906141dc565b6001600254600160a81b900460ff16600181111561181357611813613df4565b146118305760405162461bcd60e51b8152600401610663906141fe565b6001600160a01b0384163b6118575760405162461bcd60e51b815260040161066390614229565b6118608461320c565b61186b8484846132a6565b90505b9392505050565b600080600254600160a01b900460ff16600181111561189657611896613df4565b146118b35760405162461bcd60e51b8152600401610663906141dc565b60006118c563756af45f60e01b6130b9565b905060008160138111156118db576118db613df4565b146118fb5780604051637f0911d160e01b81526004016106639190614253565b60405147906001600160a01b038516904780156108fc02916000818181858888f19350505050158015611932573d6000803e3d6000fd5b509392505050565b60606000805461194990614299565b80601f016020809104026020016040519081016040528092919081815260200182805461197590614299565b80156119c25780601f10611997576101008083540402835291602001916119c2565b820191906000526020600020905b8154815290600101906020018083116119a557829003601f168201915b5050505050905090565b60006106156044836131d5565b60606001805461194990614299565b6000816001600160a01b0316634cfb99496040518163ffffffff1660e01b8152600401602060405180830381865afa158015611a28573d6000803e3d6000fd5b505050506040513d601f19601f82011682018060405250810190610615919061455d565b6000611a5e630b8e824560e41b613151565b60005b828110156112f857611a94848483818110611a7e57611a7e6142d3565b610d599260206040909202019081019150613cb3565b611ab05760405162461bcd60e51b815260040161066390614510565b6000604381868685818110611ac757611ac76142d3565b611add9260206040909202019081019150613cb3565b6001600160a01b03166001600160a01b03168152602001908152602001600020905060005b611b0b82613463565b811015611bc657611b1c828261346d565b6001600160a01b0316639c7597b2878786818110611b3c57611b3c6142d3565b9050604002016020016020810190611b54919061457a565b6040518263ffffffff1660e01b8152600401611b709190613ff2565b6020604051808303816000875af1158015611b8f573d6000803e3d6000fd5b505050506040513d601f19601f82011682018060405250810190611bb3919061427c565b5080611bbe816144f7565b915050611b02565b50508080611bd3906144f7565b915050611a61565b6000611bed63c6aea69d60e01b613151565b60005b828110156112f8576000848483818110611c0c57611c0c6142d3565b9050602002810190611c1e9190614597565b611c2c9060c081019061412e565b905011611c6a5760405162461bcd60e51b815260206004820152600c60248201526b496c6c6567616c204e616d6560a01b6044820152606401610663565b6000848483818110611c7e57611c7e6142d3565b9050602002810190611c909190614597565b611c9e9060e081019061412e565b905011611cdf5760405162461bcd60e51b815260206004820152600f60248201526e24b63632b3b0b6102b32b939b4b7b760891b6044820152606401610663565b6000848483818110611cf357611cf36142d3565b9050602002810190611d059190614597565b611d169060a0810190608001613cb3565b6001600160a01b031603611d5e5760405162461bcd60e51b815260206004820152600f60248201526e125b1b1959d85b08151bdad95b9259608a1b6044820152606401610663565b611d96848483818110611d7357611d736142d3565b9050602002810190611d859190614597565b610d599060a0810190608001613cb3565b611dd65760405162461bcd60e51b8152602060048201526011602482015270151bdad95b925908139bdd08119bdd5b99607a1b6044820152606401610663565b6000848483818110611dea57611dea6142d3565b9050602002810190611dfc9190614597565b611e0d9060c081019060a001613cb3565b90506000604381878786818110611e2657611e266142d3565b9050602002810190611e389190614597565b611e499060a0810190608001613cb3565b6001600160a01b03166001600160a01b031681526020019081526020016000209050611eb4611ead878786818110611e8357611e836142d3565b9050602002810190611e959190614597565b60028401546001600160a01b03169060600135613479565b82906131d5565b15611ef25760405162461bcd60e51b815260206004820152600e60248201526d416c72656164792045786973747360901b6044820152606401610663565b6000604051806101800160405280888887818110611f1257611f126142d3565b9050602002810190611f249190614597565b604001358152602001888887818110611f3f57611f3f6142d3565b9050602002810190611f519190614597565b358152602001888887818110611f6957611f696142d3565b9050602002810190611f7b9190614597565b602001358152602001888887818110611f9657611f966142d3565b9050602002810190611fa89190614597565b60600135815260028401546001600160a01b03166020820152604001888887818110611fd657611fd66142d3565b9050602002810190611fe89190614597565b611ff99060a0810190608001613cb3565b6001600160a01b0390811682526002548116602083015230604083015285166060820152608001888887818110612032576120326142d3565b90506020028101906120449190614597565b6120529060c081019061412e565b8080601f01602080910402602001604051908101604052809392919081815260200183838082843760009201919091525050509082525060200188888781811061209e5761209e6142d3565b90506020028101906120b09190614597565b6120be9060e081019061412e565b8080601f01602080910402602001604051908101604052809392919081815260200183838082843760009201919091525050509082525060038401805460209092019161210a90614299565b80601f016020809104026020016040519081016040528092919081815260200182805461213690614299565b80156121835780601f1061215857610100808354040283529160200191612183565b820191906000526020600020905b81548152906001019060200180831161216657829003601f168201915b5050509190925250909150506001600160a01b0383166121df576121dc8787868181106121b2576121b26142d3565b90506020028101906121c49190614597565b60028401546001600160a01b03169060600135613486565b92505b604051630bb0125960e31b81526001600160a01b03841690635d8092c89061220b9084906004016145ad565b6020604051808303816000875af115801561222a573d6000803e3d6000fd5b505050506040513d601f19601f8201168201806040525081019061224e919061427c565b5061225982846131f7565b5086868581811061226c5761226c6142d3565b905060200281019061227e9190614597565b61228f9060a0810190608001613cb3565b6001600160a01b0316836001600160a01b03166122a93390565b6001600160a01b03167fcc77af37de3150c55bb7a15f8d7a7c748b15e47b7c6304ed5fafe48fd6f53ad060405160405180910390a450505080806122ec906144f7565b915050611bf0565b60006001600160a01b037f000000000000000000000000000000000000000000000000000000000000000016300361233e5760405162461bcd60e51b8152600401610663906140e2565b7f00000000000000000000000000000000000000000000000000000000000000006001600160a01b031661237061305c565b6001600160a01b0316146123965760405162461bcd60e51b815260040161066390614108565b6000600254600160a01b900460ff1660018111156123b6576123b6613df4565b146123d35760405162461bcd60e51b8152600401610663906141dc565b6001600254600160a81b900460ff1660018111156123f3576123f3613df4565b146124105760405162461bcd60e51b8152600401610663906141fe565b600061242263d9dc1f1960e01b6130b9565b9050600081601381111561243857612438613df4565b146124585780604051637f0911d160e01b81526004016106639190614253565b6001600160a01b0383166124985760405162461bcd60e51b8152602060048201526007602482015266125b9d985b1a5960ca1b6044820152606401610663565b6124a183613526565b50600192915050565b60006124bc631bd04ac960e31b613151565b60005b828110156112f85760008484838181106124db576124db6142d3565b90506040020160200160208101906124f39190613cb3565b6001600160a01b03160361253b5760405162461bcd60e51b815260206004820152600f60248201526e125b1b1959d85b08105cdcd95d1259608a1b6044820152606401610663565b83838281811061254d5761254d6142d3565b90506040020160200160208101906125659190613cb3565b6001600160a01b03166301ffc9a7630225567160e21b6040518263ffffffff1660e01b81526004016125979190614267565b602060405180830381865afa1580156125b4573d6000803e3d6000fd5b505050506040513d601f19601f820116820180604052508101906125d8919061427c565b6125f45760405162461bcd60e51b815260040161066390614309565b612609848483818110611a7e57611a7e6142d3565b6126255760405162461bcd60e51b815260040161066390614510565b600060438186868581811061263c5761263c6142d3565b6126529260206040909202019081019150613cb3565b6001600160a01b03166001600160a01b0316815260200190815260200160002090506126a1858584818110612689576126896142d3565b9050604002016020016020810190611ead9190613cb3565b156126e35760405162461bcd60e51b8152602060048201526012602482015271105b1c9958591e48149959da5cdd195c995960721b6044820152606401610663565b6127178585848181106126f8576126f86142d3565b90506040020160200160208101906127109190613cb3565b82906131f7565b50600285858481811061272c5761272c6142d3565b90506040020160200160208101906127449190613cb3565b6001600160a01b0316634cfb99496040518163ffffffff1660e01b8152600401602060405180830381865afa158015612781573d6000803e3d6000fd5b505050506040513d601f19601f820116820180604052508101906127a5919061455d565b60028111156127b6576127b6613df4565b03612856578484838181106127cd576127cd6142d3565b90506040020160200160208101906127e59190613cb3565b6001600160a01b0316639c7597b260016040518263ffffffff1660e01b81526004016128119190613ff2565b6020604051808303816000875af1158015612830573d6000803e3d6000fd5b505050506040513d601f19601f82011682018060405250810190612854919061427c565b505b848483818110612868576128686142d3565b61287e9260206040909202019081019150613cb3565b6001600160a01b0316858584818110612899576128996142d3565b90506040020160200160208101906128b19190613cb3565b6001600160a01b0316336001600160a01b03167f52fa4983a7faf930ea4d4238e22fcc42e87608baf5116306461b078bb1ed340660405160405180910390a450806128fb816144f7565b9150506124bf565b60006129156371cd329760e11b613151565b60005b828110156112f8576000848483818110612934576129346142d3565b905060400201602001602081019061294c9190613cb3565b6001600160a01b0316036129945760405162461bcd60e51b815260206004820152600f60248201526e125b1b1959d85b08105cdcd95d1259608a1b6044820152606401610663565b6129a9848483818110611a7e57611a7e6142d3565b6129e95760405162461bcd60e51b8152602060048201526011602482015270151bdad95b925908139bdd08119bdd5b99607a1b6044820152606401610663565b6000604381868685818110612a0057612a006142d3565b612a169260206040909202019081019150613cb3565b6001600160a01b03166001600160a01b031681526020019081526020016000209050612a4d858584818110612689576126896142d3565b612a8d5760405162461bcd60e51b8152602060048201526011602482015270105cdcd95d125908139bdd08119bdd5b99607a1b6044820152606401610663565b612ac1858584818110612aa257612aa26142d3565b9050604002016020016020810190612aba9190613cb3565b829061359d565b506001858584818110612ad657612ad66142d3565b9050604002016020016020810190612aee9190613cb3565b6001600160a01b0316634cfb99496040518163ffffffff1660e01b8152600401602060405180830381865afa158015612b2b573d6000803e3d6000fd5b505050506040513d601f19601f82011682018060405250810190612b4f919061455d565b6002811115612b6057612b60613df4565b03612c0057848483818110612b7757612b776142d3565b9050604002016020016020810190612b8f9190613cb3565b6001600160a01b0316639c7597b260026040518263ffffffff1660e01b8152600401612bbb9190613ff2565b6020604051808303816000875af1158015612bda573d6000803e3d6000fd5b505050506040513d601f19601f82011682018060405250810190612bfe919061427c565b505b848483818110612c1257612c126142d3565b612c289260206040909202019081019150613cb3565b6001600160a01b0316858584818110612c4357612c436142d3565b9050604002016020016020810190612c5b9190613cb3565b6001600160a01b0316336001600160a01b03167f9b4f55639e5e283319baee5bc4e69a5625a8e3a1cc004af968f4fee72502202760405160405180910390a45080612ca5816144f7565b915050612918565b600061186b6001600160a01b03851684846135b2565b6000610c96613610565b60006001600160a01b037f0000000000000000000000000000000000000000000000000000000000000000163003612d175760405162461bcd60e51b8152600401610663906140e2565b7f00000000000000000000000000000000000000000000000000000000000000006001600160a01b0316612d4961305c565b6001600160a01b031614612d6f5760405162461bcd60e51b815260040161066390614108565b6000612d7e60465461ffff1690565b61ffff1611612dba5760405162461bcd60e51b81526020600482015260086024820152671393d5081253925560c21b6044820152606401610663565b6000612dcc630f708ceb60e41b6130b9565b90506000816013811115612de257612de2613df4565b14612e025780604051637f0911d160e01b81526004016106639190614253565b6002805484919060ff60a01b1916600160a01b836001811115612e2757612e27613df4565b021790555030336001600160a01b03167fc08ec585c25f1907baaab6f278c5994531a2e34c59935b3fcfe813067a3b487885604051612e669190613e1a565b60405180910390a350600192915050565b6000610c9661307d565b60006001600160a01b037f0000000000000000000000000000000000000000000000000000000000000000163003612ecb5760405162461bcd60e51b8152600401610663906140e2565b7f00000000000000000000000000000000000000000000000000000000000000006001600160a01b0316612efd61305c565b6001600160a01b031614612f235760405162461bcd60e51b815260040161066390614108565b6000600254600160a01b900460ff166001811115612f4357612f43613df4565b14612f605760405162461bcd60e51b8152600401610663906141dc565b6000612f72631f98802f60e31b6130b9565b90506000816013811115612f8857612f88613df4565b14612fa85780604051637f0911d160e01b81526004016106639190614253565b6002805484919060ff60a81b1916600160a81b836001811115612fcd57612fcd613df4565b021790555030336001600160a01b03167ff5912c5e436152157ed2b4a84bc313b4b1fe09a15b941f195d23c99a1b8c45ad85604051612e669190613e1a565b60006001600160e01b03198216633d817cff60e01b148061303d57506001600160e01b031982166352d1902d60e01b145b8061061557506301ffc9a760e01b6001600160e01b0319831614610615565b600060008051602061479e8339815191525b546001600160a01b0316919050565b60007fb53127684a568b3173ae13b9f8a6016e243e63b6e8ee1178d6a717850b5d610361306e565b6130b285858585856136c4565b5050505050565b6002546040805163172cb29d60e11b81523060048201526001600160e01b03198416602482015233604482015290516000926001600160a01b031691632e59653a916064808301926020929190829003018187875af1158015613120573d6000803e3d6000fd5b505050506040513d601f19601f8201168201806040525081019061061591906146b2565b6060600061186e83613892565b6000600254600160a01b900460ff16600181111561317157613171613df4565b1461318e5760405162461bcd60e51b8152600401610663906141dc565b80600061319a826130b9565b905060008160138111156131b0576131b0613df4565b146131d05780604051637f0911d160e01b81526004016106639190614253565b505050565b6001600160a01b0381166000908152600183016020526040812054151561186e565b600061186e836001600160a01b0384166138ee565b61321461305c565b6001600160a01b0316816001600160a01b03160361325e5760405162461bcd60e51b8152602060048201526007602482015266125b1b1959d85b60ca1b6044820152606401610663565b6000613270637147855d60e01b6130b9565b9050600081601381111561328657613286613df4565b1461086f5780604051637f0911d160e01b81526004016106639190614253565b60607f4910fdfa16fed3260ed0e7147f7cc6da11a60208b5b9406d12a635614ffd91435460ff16156132f0576132db8461393d565b5060408051600081526020810190915261186e565b60008051602061479e83398151915260001b846001600160a01b03166352d1902d6040518163ffffffff1660e01b8152600401602060405180830381865afa158015613340573d6000803e3d6000fd5b505050506040513d601f19601f8201168201806040525081019061336491906146d3565b146133a05760405162461bcd60e51b815260206004820152600c60248201526b496c6c6567616c205555505360a01b6044820152606401610663565b6040516301ffc9a760e01b81526001600160a01b038516906301ffc9a7906133d390633d817cff60e01b90600401614267565b602060405180830381865afa1580156133f0573d6000803e3d6000fd5b505050506040513d601f19601f82011682018060405250810190613414919061427c565b6134515760405162461bcd60e51b815260206004820152600e60248201526d496c6c6567616c204950726f787960901b6044820152606401610663565b61345c84848461396c565b905061186e565b6000610615825490565b600061186e83836139ce565b600061186e8383306135b2565b6000604051733d602d80600a3d3981f3363d3d373d3d3d363d7360601b81528360601b60148201526e5af43d82803e903d91602b57fd5bf360881b6028820152826037826000f59150506001600160a01b0381166106155760405162461bcd60e51b815260206004820152601760248201527f455243313136373a2063726561746532206661696c65640000000000000000006044820152606401610663565b7fb53127684a568b3173ae13b9f8a6016e243e63b6e8ee1178d6a717850b5d610380546001600160a01b0383166001600160a01b031990911681179091556040805191825251309133917f63fdbed5f2909ec44e3becc51e9d29654ce1447747914e8a6ebc019e7f640b8b9181900360200190a350565b600061186e836001600160a01b0384166139f8565b604051733d602d80600a3d3981f3363d3d373d3d3d363d7360601b8152606093841b60148201526f5af43d82803e903d91602b57fd5bf3ff60801b6028820152921b6038830152604c8201526037808220606c830152605591012090565b60007f8b73c3c69bb8fe3d512ecc4cf759cc79239f7b179b0ffacaa9a75d522b39400f600060405160200161364591906146ec565b60405160208183030381529060405280519060200120600160405160200161366d91906146ec565b60408051601f1981840301815282825280516020918201209083019490945281019190915260608101919091524660808201523060a082015260c00160405160208183030381529060405280519060200120905090565b60465462010000900460ff1661371c5760405162461bcd60e51b815260206004820152601960248201527f436f6e7472616374204e6f7420496e697469616c697a696e67000000000000006044820152606401610663565b60006137298587836143fc565b5060016137378385836143fc565b506001600160a01b0381163014613822576001600160a01b0381163b61376f5760405162461bcd60e51b815260040161066390614229565b6040516301ffc9a760e01b81526001600160a01b038216906301ffc9a7906137a2906331501c3960e01b90600401614267565b602060405180830381865afa1580156137bf573d6000803e3d6000fd5b505050506040513d601f19601f820116820180604052508101906137e3919061427c565b61381d5760405162461bcd60e51b815260206004820152600b60248201526a125b1b1959d85b081050d360aa1b6044820152606401610663565b61386e565b6138326331501c3960e01b6105f0565b61386e5760405162461bcd60e51b815260206004820152600d60248201526c139bdd0814dd5c1c1bdc9d1959609a1b6044820152606401610663565b600280546001600160b01b0319166001600160a01b0383161790556130b233613526565b6060816000018054806020026020016040519081016040528092919081815260200182805480156138e257602002820191906000526020600020905b8154815260200190600101908083116138ce575b50505050509050919050565b600081815260018301602052604081205461393557508154600181810184556000848152602080822090930184905584548482528286019093526040902091909155610615565b506000610615565b60008051602061479e83398151915280546001600160a01b0319166001600160a01b0392909216919091179055565b606061397784613aeb565b6000835111806139845750815b156139b75761345c84846040518060400160405280600b81526020016a10d85b1b0811985a5b195960aa1b815250613b2f565b505060408051600081526020810190915292915050565b60008260000182815481106139e5576139e56142d3565b9060005260206000200154905092915050565b60008181526001830160205260408120548015613ae1576000613a1c600183614762565b8554909150600090613a3090600190614762565b9050818114613a95576000866000018281548110613a5057613a506142d3565b9060005260206000200154905080876000018481548110613a7357613a736142d3565b6000918252602080832090910192909255918252600188019052604090208390555b8554869080613aa657613aa6614775565b600190038181906000526020600020016000905590558560010160008681526020019081526020016000206000905560019350505050610615565b6000915050610615565b613af48161393d565b6040516001600160a01b03821690309033907f8ee0f2bd29c0e6a975c3cc2e47cf2e01b5f23a9a8a02e0ed6a5a070269de3d2d90600090a450565b60606001600160a01b0384163b613b885760405162461bcd60e51b815260206004820152601860248201527f496c6c6567616c20436f6e7472616374204164647265737300000000000000006044820152606401610663565b600080856001600160a01b031685604051613ba3919061478b565b600060405180830381855af49150503d8060008114613bde576040519150601f19603f3d011682016040523d82523d6000602084013e613be3565b606091505b5091509150613bf3828286613bfd565b9695505050505050565b60608315613c0c57508161186e565b825115613c1c5782518084602001fd5b8160405162461bcd60e51b81526004016106639190613fdf565b600060208284031215613c4857600080fd5b81356001600160e01b03198116811461186e57600080fd5b600060208284031215613c7257600080fd5b813567ffffffffffffffff811115613c8957600080fd5b82016060818503121561186e57600080fd5b6001600160a01b0381168114613cb057600080fd5b50565b600060208284031215613cc557600080fd5b813561186e81613c9b565b60005b83811015613ceb578181015183820152602001613cd3565b50506000910152565b60008151808452613d0c816020860160208601613cd0565b601f01601f19169290920160200192915050565b602080825282516001600160a01b03908116838301528382015160606040850152805160808501819052600093929183019190849060a08701905b80831015613d7d57845184168252938501936001929092019190850190613d5b565b506040880151878203601f190160608901529450613d9b8186613cf4565b98975050505050505050565b6020808252825182820181905260009190848201906040850190845b81811015613de85783516001600160a01b031683529284019291840191600101613dc3565b50909695505050505050565b634e487b7160e01b600052602160045260246000fd5b60028110613cb057613cb0613df4565b60208101613e2783613e0a565b91905290565b60008083601f840112613e3f57600080fd5b50813567ffffffffffffffff811115613e5757600080fd5b6020830191508360208260051b8501011115613e7257600080fd5b9250929050565b60008060208385031215613e8c57600080fd5b823567ffffffffffffffff811115613ea357600080fd5b613eaf85828601613e2d565b90969095509350505050565b634e487b7160e01b600052604160045260246000fd5b604051601f8201601f1916810167ffffffffffffffff81118282101715613efa57613efa613ebb565b604052919050565b600067ffffffffffffffff821115613f1c57613f1c613ebb565b50601f01601f191660200190565b8015158114613cb057600080fd5b600080600060608486031215613f4d57600080fd5b8335613f5881613c9b565b9250602084013567ffffffffffffffff811115613f7457600080fd5b8401601f81018613613f8557600080fd5b8035613f98613f9382613f02565b613ed1565b818152876020838501011115613fad57600080fd5b816020840160208301376000602083830101528094505050506040840135613fd481613f2a565b809150509250925092565b60208152600061186e6020830184613cf4565b6020810160038310613e2757613e27613df4565b60008083601f84011261401857600080fd5b50813567ffffffffffffffff81111561403057600080fd5b6020830191508360208260061b8501011115613e7257600080fd5b6000806020838503121561405e57600080fd5b823567ffffffffffffffff81111561407557600080fd5b613eaf85828601614006565b60008060006060848603121561409657600080fd5b83356140a181613c9b565b9250602084013591506040840135613fd481613c9b565b60028110613cb057600080fd5b6000602082840312156140d757600080fd5b813561186e816140b8565b6020808252600c908201526b125b1b1959d85b0810d85b1b60a21b604082015260600190565b6020808252600c908201526b125b9d985b1a590810d85b1b60a21b604082015260600190565b6000808335601e1984360301811261414557600080fd5b83018035915067ffffffffffffffff82111561416057600080fd5b602001915036819003821315613e7257600080fd5b81835281816020850137506000828201602090810191909152601f909101601f19169091010190565b6060815260006141b2606083018789614175565b82810360208401526141c5818688614175565b91505061ffff831660408301529695505050505050565b60208082526008908201526714995a9958dd195960c21b604082015260600190565b602080825260119082015270496c6c6567616c20557064617461626c6560781b604082015260600190565b60208082526010908201526f125b1b1959d85b0810dbdb9d1c9858dd60821b604082015260600190565b6020810160148310613e2757613e27613df4565b6001600160e01b031991909116815260200190565b60006020828403121561428e57600080fd5b815161186e81613f2a565b600181811c908216806142ad57607f821691505b6020821081036142cd57634e487b7160e01b600052602260045260246000fd5b50919050565b634e487b7160e01b600052603260045260246000fd5b60008235605e198336030181126142ff57600080fd5b9190910192915050565b602080825260149082015273496c6c6567616c20494173736574456e7469747960601b604082015260600190565b60006020828403121561434957600080fd5b815167ffffffffffffffff81111561436057600080fd5b8201601f8101841361437157600080fd5b805161437f613f9382613f02565b81815285602083850101111561439457600080fd5b6143a5826020830160208601613cd0565b95945050505050565b601f8211156131d057600081815260208120601f850160051c810160208610156143d55750805b601f850160051c820191505b818110156143f4578281556001016143e1565b505050505050565b67ffffffffffffffff83111561441457614414613ebb565b614428836144228354614299565b836143ae565b6000601f84116001811461445c57600085156144445750838201355b600019600387901b1c1916600186901b1783556130b2565b600083815260209020601f19861690835b8281101561448d578685013582556020948501946001909201910161446d565b50868210156144aa5760001960f88860031b161c19848701351681555b505060018560011b0183555050505050565b6040815260006144cf6040830185613cf4565b82810360208401526143a58185613cf4565b634e487b7160e01b600052601160045260246000fd5b600060018201614509576145096144e1565b5060010190565b602080825260099082015268139bdd08119bdd5b9960ba1b604082015260600190565b60006020828403121561454557600080fd5b815161186e81613c9b565b60038110613cb057600080fd5b60006020828403121561456f57600080fd5b815161186e81614550565b60006020828403121561458c57600080fd5b813561186e81614550565b6000823560fe198336030181126142ff57600080fd5b6020815281516020820152602082015160408201526040820151606082015260608201516080820152600060808301516145f260a08401826001600160a01b03169052565b5060a08301516001600160a01b03811660c08401525060c08301516001600160a01b03811660e08401525060e0830151610100614639818501836001600160a01b03169052565b8401519050610120614655848201836001600160a01b03169052565b8085015191505061018061014081818601526146756101a0860184613cf4565b9250808601519050601f196101608187860301818801526146968584613cf4565b908801518782039092018488015293509050613bf38382613cf4565b6000602082840312156146c457600080fd5b81516014811061186e57600080fd5b6000602082840312156146e557600080fd5b5051919050565b60008083546146fa81614299565b60018281168015614712576001811461472757614756565b60ff1984168752821515830287019450614756565b8760005260208060002060005b8581101561474d5781548a820152908401908201614734565b50505082870194505b50929695505050505050565b81810381811115610615576106156144e1565b634e487b7160e01b600052603160045260246000fd5b600082516142ff818460208701613cd056fe360894a13ba1a3210667c828492db98dca3e2076cc3735a920a3ca505d382bbca26469706673582212204084356f65b07b00e32bf140e4c0aa76a7e709216cf16f9ca3fd89bb49c820ae64736f6c63430008130033b53127684a568b3173ae13b9f8a6016e243e63b6e8ee1178d6a717850b5d6103",
  "devdoc": {
    "author": "Sina Tadayon, https://github.com/SinaTadayon",
    "events": {
      "Initialized(address,address,address,string,string,uint16)": {
        "details": "Triggered when the contract has been initialized or reinitialized."
      },
      "ProxyLocalAdminUpdated(address,address,address)": {
        "details": "Emitted when the admin account has changed."
      }
    },
    "kind": "dev",
    "methods": {
      "proxiableUUID()": {
        "details": "Implementation of the ERC1822 {proxiableUUID} function. This returns the storage slot used by the implementation. It is used to validate that the this implementation remains valid after an upgrade. IMPORTANT: A proxy pointing at a proxiable contract should not be considered proxiable itself, because this risks bricking a proxy that upgrades to it, by delegating to itself until out of gas. Thus it is critical that this function revert if invoked through a proxy. This is guaranteed by the `notDelegated` modifier."
      },
      "supportsInterface(bytes4)": {
        "details": "See {IERC165-supportsInterface}."
      }
    },
    "title": "Asset Manager ERC20 Contract",
    "version": 1
  },
  "userdoc": {
    "kind": "user",
    "methods": {},
    "version": 1
  },
  "storageLayout": {
    "storage": [
      {
        "astId": 82229,
        "contract": "src/contracts/token/asset/AssetManagerERC20.sol:AssetManagerERC20",
        "label": "_contractName",
        "offset": 0,
        "slot": "0",
        "type": "t_string_storage"
      },
      {
        "astId": 82231,
        "contract": "src/contracts/token/asset/AssetManagerERC20.sol:AssetManagerERC20",
        "label": "_contractVersion",
        "offset": 0,
        "slot": "1",
        "type": "t_string_storage"
      },
      {
        "astId": 82233,
        "contract": "src/contracts/token/asset/AssetManagerERC20.sol:AssetManagerERC20",
        "label": "_accessControlManager",
        "offset": 0,
        "slot": "2",
        "type": "t_address"
      },
      {
        "astId": 82236,
        "contract": "src/contracts/token/asset/AssetManagerERC20.sol:AssetManagerERC20",
        "label": "_sstat",
        "offset": 20,
        "slot": "2",
        "type": "t_enum(ProxySafeModeStatus)82251"
      },
      {
        "astId": 82239,
        "contract": "src/contracts/token/asset/AssetManagerERC20.sol:AssetManagerERC20",
        "label": "_ustat",
        "offset": 21,
        "slot": "2",
        "type": "t_enum(ProxyUpdatabilityStatus)82254"
      },
      {
        "astId": 82244,
        "contract": "src/contracts/token/asset/AssetManagerERC20.sol:AssetManagerERC20",
        "label": "__reserved",
        "offset": 0,
        "slot": "3",
        "type": "t_array(t_uint256)64_storage"
      },
      {
        "astId": 87514,
        "contract": "src/contracts/token/asset/AssetManagerERC20.sol:AssetManagerERC20",
        "label": "_data",
        "offset": 0,
        "slot": "67",
        "type": "t_struct(DataCollection)87511_storage"
      },
      {
        "astId": 82432,
        "contract": "src/contracts/token/asset/AssetManagerERC20.sol:AssetManagerERC20",
        "label": "_initialized",
        "offset": 0,
        "slot": "70",
        "type": "t_uint16"
      },
      {
        "astId": 82435,
        "contract": "src/contracts/token/asset/AssetManagerERC20.sol:AssetManagerERC20",
        "label": "_initializing",
        "offset": 2,
        "slot": "70",
        "type": "t_bool"
      }
    ],
    "types": {
      "t_address": {
        "encoding": "inplace",
        "label": "address",
        "numberOfBytes": "20"
      },
      "t_array(t_bytes32)dyn_storage": {
        "base": "t_bytes32",
        "encoding": "dynamic_array",
        "label": "bytes32[]",
        "numberOfBytes": "32"
      },
      "t_array(t_uint256)64_storage": {
        "base": "t_uint256",
        "encoding": "inplace",
        "label": "uint256[64]",
        "numberOfBytes": "2048"
      },
      "t_bool": {
        "encoding": "inplace",
        "label": "bool",
        "numberOfBytes": "1"
      },
      "t_bytes32": {
        "encoding": "inplace",
        "label": "bytes32",
        "numberOfBytes": "32"
      },
      "t_bytes_storage": {
        "encoding": "bytes",
        "label": "bytes",
        "numberOfBytes": "32"
      },
      "t_enum(ProxySafeModeStatus)82251": {
        "encoding": "inplace",
        "label": "enum IBaseProxy.ProxySafeModeStatus",
        "numberOfBytes": "1"
      },
      "t_enum(ProxyUpdatabilityStatus)82254": {
        "encoding": "inplace",
        "label": "enum IBaseProxy.ProxyUpdatabilityStatus",
        "numberOfBytes": "1"
      },
      "t_mapping(t_address,t_struct(TokenData)87502_storage)": {
        "encoding": "mapping",
        "key": "t_address",
        "label": "mapping(address => struct AssetManagerStorageERC20.TokenData)",
        "numberOfBytes": "32",
        "value": "t_struct(TokenData)87502_storage"
      },
      "t_mapping(t_bytes32,t_uint256)": {
        "encoding": "mapping",
        "key": "t_bytes32",
        "label": "mapping(bytes32 => uint256)",
        "numberOfBytes": "32",
        "value": "t_uint256"
      },
      "t_string_storage": {
        "encoding": "bytes",
        "label": "string",
        "numberOfBytes": "32"
      },
      "t_struct(AddressSet)79783_storage": {
        "encoding": "inplace",
        "label": "struct LEnumerableSet.AddressSet",
        "members": [
          {
            "astId": 79782,
            "contract": "src/contracts/token/asset/AssetManagerERC20.sol:AssetManagerERC20",
            "label": "_inner",
            "offset": 0,
            "slot": "0",
            "type": "t_struct(Set)79482_storage"
          }
        ],
        "numberOfBytes": "64"
      },
      "t_struct(DataCollection)87511_storage": {
        "encoding": "inplace",
        "label": "struct AssetManagerStorageERC20.DataCollection",
        "members": [
          {
            "astId": 87507,
            "contract": "src/contracts/token/asset/AssetManagerERC20.sol:AssetManagerERC20",
            "label": "tokens",
            "offset": 0,
            "slot": "0",
            "type": "t_mapping(t_address,t_struct(TokenData)87502_storage)"
          },
          {
            "astId": 87510,
            "contract": "src/contracts/token/asset/AssetManagerERC20.sol:AssetManagerERC20",
            "label": "tokensSet",
            "offset": 0,
            "slot": "1",
            "type": "t_struct(AddressSet)79783_storage"
          }
        ],
        "numberOfBytes": "96"
      },
      "t_struct(Set)79482_storage": {
        "encoding": "inplace",
        "label": "struct LEnumerableSet.Set",
        "members": [
          {
            "astId": 79477,
            "contract": "src/contracts/token/asset/AssetManagerERC20.sol:AssetManagerERC20",
            "label": "_values",
            "offset": 0,
            "slot": "0",
            "type": "t_array(t_bytes32)dyn_storage"
          },
          {
            "astId": 79481,
            "contract": "src/contracts/token/asset/AssetManagerERC20.sol:AssetManagerERC20",
            "label": "_indexes",
            "offset": 0,
            "slot": "1",
            "type": "t_mapping(t_bytes32,t_uint256)"
          }
        ],
        "numberOfBytes": "64"
      },
      "t_struct(TokenData)87502_storage": {
        "encoding": "inplace",
        "label": "struct AssetManagerStorageERC20.TokenData",
        "members": [
          {
            "astId": 87497,
            "contract": "src/contracts/token/asset/AssetManagerERC20.sol:AssetManagerERC20",
            "label": "assets",
            "offset": 0,
            "slot": "0",
            "type": "t_struct(AddressSet)79783_storage"
          },
          {
            "astId": 87499,
            "contract": "src/contracts/token/asset/AssetManagerERC20.sol:AssetManagerERC20",
            "label": "assetSubjectId",
            "offset": 0,
            "slot": "2",
            "type": "t_address"
          },
          {
            "astId": 87501,
            "contract": "src/contracts/token/asset/AssetManagerERC20.sol:AssetManagerERC20",
            "label": "assetSignature",
            "offset": 0,
            "slot": "3",
            "type": "t_bytes_storage"
          }
        ],
        "numberOfBytes": "128"
      },
      "t_uint16": {
        "encoding": "inplace",
        "label": "uint16",
        "numberOfBytes": "2"
      },
      "t_uint256": {
        "encoding": "inplace",
        "label": "uint256",
        "numberOfBytes": "32"
      }
    }
  }
}