{
  "address": "0x7F44297168Ea1f063edb0C943994447F5688084f",
  "abi": [
    {
      "inputs": [],
      "stateMutability": "nonpayable",
      "type": "constructor"
    },
    {
      "inputs": [
        {
          "internalType": "enum IACL.AuthorizationStatus",
          "name": "",
          "type": "uint8"
        }
      ],
      "name": "ACLActionForbidden",
      "type": "error"
    },
    {
      "inputs": [],
      "name": "ACLCallForbidden",
      "type": "error"
    },
    {
      "inputs": [],
      "name": "ACLContextActivityForbidden",
      "type": "error"
    },
    {
      "inputs": [],
      "name": "ACLContextNotFound",
      "type": "error"
    },
    {
      "inputs": [],
      "name": "ACLDomainActivityForbidden",
      "type": "error"
    },
    {
      "inputs": [],
      "name": "ACLDomainNotFound",
      "type": "error"
    },
    {
      "inputs": [],
      "name": "ACLFunctionActivityForbidden",
      "type": "error"
    },
    {
      "inputs": [],
      "name": "ACLFunctionNotFound",
      "type": "error"
    },
    {
      "inputs": [],
      "name": "ACLMemberActivityForbidden",
      "type": "error"
    },
    {
      "inputs": [],
      "name": "ACLMemberNotFound",
      "type": "error"
    },
    {
      "inputs": [],
      "name": "ACLPolicyForbidden",
      "type": "error"
    },
    {
      "inputs": [],
      "name": "ACLRealmActivityForbidden",
      "type": "error"
    },
    {
      "inputs": [],
      "name": "ACLRealmNotFound",
      "type": "error"
    },
    {
      "inputs": [],
      "name": "ACLRoleActivityForbidden",
      "type": "error"
    },
    {
      "inputs": [],
      "name": "ACLRoleNotFound",
      "type": "error"
    },
    {
      "inputs": [],
      "name": "ACLRoleScopeForbidden",
      "type": "error"
    },
    {
      "inputs": [],
      "name": "ACLTypeActivityForbidden",
      "type": "error"
    },
    {
      "inputs": [],
      "name": "ACLTypeNotFound",
      "type": "error"
    },
    {
      "inputs": [],
      "name": "ACLUnauthorized",
      "type": "error"
    },
    {
      "inputs": [],
      "name": "ACLUniverseActivityForbidden",
      "type": "error"
    },
    {
      "inputs": [],
      "name": "AdminAccessFunctionNotFound",
      "type": "error"
    },
    {
      "inputs": [],
      "name": "AdminAccessNotPermitted",
      "type": "error"
    },
    {
      "inputs": [],
      "name": "AdminAccessPolicyForbidden",
      "type": "error"
    },
    {
      "inputs": [],
      "name": "AdminAccessRoleActivityForbidden",
      "type": "error"
    },
    {
      "inputs": [],
      "name": "AdminAccessRoleNotFound",
      "type": "error"
    },
    {
      "inputs": [],
      "name": "AdminAccessTypeActivityForbidden",
      "type": "error"
    },
    {
      "inputs": [],
      "name": "AdminAccessTypeNotFound",
      "type": "error"
    },
    {
      "anonymous": false,
      "inputs": [
        {
          "indexed": true,
          "internalType": "address",
          "name": "sender",
          "type": "address"
        },
        {
          "indexed": true,
          "internalType": "bytes32",
          "name": "domainId",
          "type": "bytes32"
        },
        {
          "indexed": false,
          "internalType": "enum IACLCommons.ActivityStatus",
          "name": "acstat",
          "type": "uint8"
        }
      ],
      "name": "DomainActivityUpdated",
      "type": "event"
    },
    {
      "anonymous": false,
      "inputs": [
        {
          "indexed": true,
          "internalType": "address",
          "name": "sender",
          "type": "address"
        },
        {
          "indexed": true,
          "internalType": "bytes32",
          "name": "domainId",
          "type": "bytes32"
        },
        {
          "indexed": true,
          "internalType": "bytes32",
          "name": "adminId",
          "type": "bytes32"
        }
      ],
      "name": "DomainAdminUpdated",
      "type": "event"
    },
    {
      "anonymous": false,
      "inputs": [
        {
          "indexed": true,
          "internalType": "address",
          "name": "sender",
          "type": "address"
        },
        {
          "indexed": true,
          "internalType": "bytes32",
          "name": "domainId",
          "type": "bytes32"
        },
        {
          "indexed": false,
          "internalType": "enum IACLCommons.AlterabilityStatus",
          "name": "alstat",
          "type": "uint8"
        }
      ],
      "name": "DomainAlterabilityUpdated",
      "type": "event"
    },
    {
      "anonymous": false,
      "inputs": [
        {
          "indexed": true,
          "internalType": "address",
          "name": "sender",
          "type": "address"
        },
        {
          "indexed": true,
          "internalType": "bytes32",
          "name": "domainId",
          "type": "bytes32"
        },
        {
          "indexed": false,
          "internalType": "uint16",
          "name": "realmLimit",
          "type": "uint16"
        }
      ],
      "name": "DomainRealmLimitUpdated",
      "type": "event"
    },
    {
      "anonymous": false,
      "inputs": [
        {
          "indexed": true,
          "internalType": "address",
          "name": "sender",
          "type": "address"
        },
        {
          "indexed": true,
          "internalType": "bytes32",
          "name": "domainId",
          "type": "bytes32"
        },
        {
          "indexed": true,
          "internalType": "bytes32",
          "name": "realmId",
          "type": "bytes32"
        },
        {
          "indexed": false,
          "internalType": "bytes32",
          "name": "newDomainId",
          "type": "bytes32"
        }
      ],
      "name": "DomainRealmMoved",
      "type": "event"
    },
    {
      "anonymous": false,
      "inputs": [
        {
          "indexed": true,
          "internalType": "address",
          "name": "sender",
          "type": "address"
        },
        {
          "indexed": true,
          "internalType": "bytes32",
          "name": "domainId",
          "type": "bytes32"
        },
        {
          "indexed": true,
          "internalType": "bytes32",
          "name": "adminId",
          "type": "bytes32"
        }
      ],
      "name": "DomainRegistered",
      "type": "event"
    },
    {
      "anonymous": false,
      "inputs": [
        {
          "indexed": true,
          "internalType": "address",
          "name": "sender",
          "type": "address"
        },
        {
          "indexed": true,
          "internalType": "bytes32",
          "name": "domainId",
          "type": "bytes32"
        },
        {
          "indexed": false,
          "internalType": "bool",
          "name": "isSoftDeleted",
          "type": "bool"
        }
      ],
      "name": "DomainRemoved",
      "type": "event"
    },
    {
      "anonymous": false,
      "inputs": [
        {
          "indexed": true,
          "internalType": "address",
          "name": "sender",
          "type": "address"
        },
        {
          "indexed": true,
          "internalType": "address",
          "name": "proxy",
          "type": "address"
        },
        {
          "indexed": true,
          "internalType": "address",
          "name": "subject",
          "type": "address"
        },
        {
          "indexed": false,
          "internalType": "string",
          "name": "name",
          "type": "string"
        },
        {
          "indexed": false,
          "internalType": "string",
          "name": "version",
          "type": "string"
        },
        {
          "indexed": false,
          "internalType": "uint16",
          "name": "initCount",
          "type": "uint16"
        }
      ],
      "name": "Initialized",
      "type": "event"
    },
    {
      "anonymous": false,
      "inputs": [
        {
          "indexed": true,
          "internalType": "address",
          "name": "sender",
          "type": "address"
        },
        {
          "indexed": true,
          "internalType": "address",
          "name": "proxy",
          "type": "address"
        },
        {
          "indexed": false,
          "internalType": "address",
          "name": "acl",
          "type": "address"
        }
      ],
      "name": "ProxyAccessControlUpdated",
      "type": "event"
    },
    {
      "anonymous": false,
      "inputs": [
        {
          "indexed": true,
          "internalType": "address",
          "name": "sender",
          "type": "address"
        },
        {
          "indexed": true,
          "internalType": "address",
          "name": "proxy",
          "type": "address"
        },
        {
          "indexed": false,
          "internalType": "address",
          "name": "newAdmin",
          "type": "address"
        }
      ],
      "name": "ProxyLocalAdminUpdated",
      "type": "event"
    },
    {
      "anonymous": false,
      "inputs": [
        {
          "indexed": true,
          "internalType": "address",
          "name": "sender",
          "type": "address"
        },
        {
          "indexed": true,
          "internalType": "address",
          "name": "proxy",
          "type": "address"
        },
        {
          "indexed": false,
          "internalType": "enum IBaseProxy.ProxySafeModeStatus",
          "name": "sstat",
          "type": "uint8"
        }
      ],
      "name": "ProxySafeModeUpdated",
      "type": "event"
    },
    {
      "anonymous": false,
      "inputs": [
        {
          "indexed": true,
          "internalType": "address",
          "name": "sender",
          "type": "address"
        },
        {
          "indexed": true,
          "internalType": "address",
          "name": "proxy",
          "type": "address"
        },
        {
          "indexed": false,
          "internalType": "enum IBaseProxy.ProxyUpdatabilityStatus",
          "name": "ustat",
          "type": "uint8"
        }
      ],
      "name": "ProxyUpdatabilityUpdated",
      "type": "event"
    },
    {
      "anonymous": false,
      "inputs": [
        {
          "indexed": true,
          "internalType": "address",
          "name": "sender",
          "type": "address"
        },
        {
          "indexed": true,
          "internalType": "address",
          "name": "proxy",
          "type": "address"
        },
        {
          "indexed": true,
          "internalType": "address",
          "name": "newImplementation",
          "type": "address"
        }
      ],
      "name": "ProxyUpgraded",
      "type": "event"
    },
    {
      "stateMutability": "payable",
      "type": "fallback"
    },
    {
      "inputs": [],
      "name": "CTX_MESSAGE_TYPEHASH",
      "outputs": [
        {
          "internalType": "bytes32",
          "name": "",
          "type": "bytes32"
        }
      ],
      "stateMutability": "view",
      "type": "function"
    },
    {
      "inputs": [],
      "name": "MEMBER_SIGNATURE_MESSAGE_TYPEHASH",
      "outputs": [
        {
          "internalType": "bytes32",
          "name": "",
          "type": "bytes32"
        }
      ],
      "stateMutability": "view",
      "type": "function"
    },
    {
      "inputs": [],
      "name": "PREDICT_CTX_MESSAGE_TYPEHASH",
      "outputs": [
        {
          "internalType": "bytes32",
          "name": "",
          "type": "bytes32"
        }
      ],
      "stateMutability": "view",
      "type": "function"
    },
    {
      "inputs": [],
      "name": "PROFILE_CTX_MESSAGE_TYPEHASH",
      "outputs": [
        {
          "internalType": "bytes32",
          "name": "",
          "type": "bytes32"
        }
      ],
      "stateMutability": "view",
      "type": "function"
    },
    {
      "inputs": [],
      "name": "PROFILE_MEMBER_SIGNATURE_MESSAGE_TYPEHASH",
      "outputs": [
        {
          "internalType": "bytes32",
          "name": "",
          "type": "bytes32"
        }
      ],
      "stateMutability": "view",
      "type": "function"
    },
    {
      "inputs": [],
      "name": "PROFILE_PREDICT_CTX_MESSAGE_TYPEHASH",
      "outputs": [
        {
          "internalType": "bytes32",
          "name": "",
          "type": "bytes32"
        }
      ],
      "stateMutability": "view",
      "type": "function"
    },
    {
      "inputs": [],
      "name": "TYPE_HASH",
      "outputs": [
        {
          "internalType": "bytes32",
          "name": "",
          "type": "bytes32"
        }
      ],
      "stateMutability": "view",
      "type": "function"
    },
    {
      "inputs": [],
      "name": "accessControlManager",
      "outputs": [
        {
          "internalType": "address",
          "name": "",
          "type": "address"
        }
      ],
      "stateMutability": "view",
      "type": "function"
    },
    {
      "inputs": [],
      "name": "contractName",
      "outputs": [
        {
          "internalType": "string",
          "name": "",
          "type": "string"
        }
      ],
      "stateMutability": "view",
      "type": "function"
    },
    {
      "inputs": [],
      "name": "contractVersion",
      "outputs": [
        {
          "internalType": "string",
          "name": "",
          "type": "string"
        }
      ],
      "stateMutability": "view",
      "type": "function"
    },
    {
      "inputs": [
        {
          "internalType": "bytes32",
          "name": "domainId",
          "type": "bytes32"
        },
        {
          "internalType": "address",
          "name": "account",
          "type": "address"
        }
      ],
      "name": "domainCheckAdmin",
      "outputs": [
        {
          "internalType": "bool",
          "name": "",
          "type": "bool"
        }
      ],
      "stateMutability": "view",
      "type": "function"
    },
    {
      "inputs": [
        {
          "internalType": "bytes32",
          "name": "domainId",
          "type": "bytes32"
        }
      ],
      "name": "domainCheckId",
      "outputs": [
        {
          "internalType": "bool",
          "name": "",
          "type": "bool"
        }
      ],
      "stateMutability": "view",
      "type": "function"
    },
    {
      "inputs": [
        {
          "internalType": "string",
          "name": "domainName",
          "type": "string"
        }
      ],
      "name": "domainCheckName",
      "outputs": [
        {
          "internalType": "bool",
          "name": "",
          "type": "bool"
        }
      ],
      "stateMutability": "view",
      "type": "function"
    },
    {
      "inputs": [
        {
          "internalType": "bytes32",
          "name": "domainId",
          "type": "bytes32"
        }
      ],
      "name": "domainGetInfo",
      "outputs": [
        {
          "components": [
            {
              "internalType": "bytes32",
              "name": "adminId",
              "type": "bytes32"
            },
            {
              "internalType": "bytes32",
              "name": "universeId",
              "type": "bytes32"
            },
            {
              "internalType": "uint16",
              "name": "realmLimit",
              "type": "uint16"
            },
            {
              "internalType": "uint16",
              "name": "realmCount",
              "type": "uint16"
            },
            {
              "internalType": "uint32",
              "name": "referredByAgent",
              "type": "uint32"
            },
            {
              "internalType": "enum IACLCommons.ScopeType",
              "name": "stype",
              "type": "uint8"
            },
            {
              "internalType": "enum IACLCommons.AgentType",
              "name": "adminType",
              "type": "uint8"
            },
            {
              "internalType": "enum IACLCommons.ActivityStatus",
              "name": "acstat",
              "type": "uint8"
            },
            {
              "internalType": "enum IACLCommons.AlterabilityStatus",
              "name": "alstat",
              "type": "uint8"
            },
            {
              "internalType": "string",
              "name": "name",
              "type": "string"
            }
          ],
          "internalType": "struct IDomainManagement.DomainInfo",
          "name": "",
          "type": "tuple"
        }
      ],
      "stateMutability": "view",
      "type": "function"
    },
    {
      "inputs": [
        {
          "internalType": "bytes32",
          "name": "domainId",
          "type": "bytes32"
        }
      ],
      "name": "domainGetRealms",
      "outputs": [
        {
          "internalType": "bytes32[]",
          "name": "",
          "type": "bytes32[]"
        }
      ],
      "stateMutability": "view",
      "type": "function"
    },
    {
      "inputs": [
        {
          "internalType": "bytes32",
          "name": "domainId",
          "type": "bytes32"
        },
        {
          "internalType": "bytes32",
          "name": "contextId",
          "type": "bytes32"
        }
      ],
      "name": "domainHasContext",
      "outputs": [
        {
          "internalType": "bool",
          "name": "",
          "type": "bool"
        }
      ],
      "stateMutability": "view",
      "type": "function"
    },
    {
      "inputs": [
        {
          "internalType": "bytes32",
          "name": "domainId",
          "type": "bytes32"
        },
        {
          "internalType": "bytes32",
          "name": "functionId",
          "type": "bytes32"
        }
      ],
      "name": "domainHasFunction",
      "outputs": [
        {
          "internalType": "bool",
          "name": "",
          "type": "bool"
        }
      ],
      "stateMutability": "view",
      "type": "function"
    },
    {
      "inputs": [
        {
          "internalType": "bytes32",
          "name": "domainId",
          "type": "bytes32"
        },
        {
          "internalType": "bytes32",
          "name": "realmId",
          "type": "bytes32"
        }
      ],
      "name": "domainHasRealm",
      "outputs": [
        {
          "internalType": "bool",
          "name": "",
          "type": "bool"
        }
      ],
      "stateMutability": "view",
      "type": "function"
    },
    {
      "inputs": [
        {
          "components": [
            {
              "internalType": "address",
              "name": "account",
              "type": "address"
            },
            {
              "internalType": "uint64",
              "name": "expiredAt",
              "type": "uint64"
            },
            {
              "internalType": "bytes",
              "name": "signature",
              "type": "bytes"
            }
          ],
          "internalType": "struct IACLCommons.MemberSignature",
          "name": "memberSign",
          "type": "tuple"
        },
        {
          "components": [
            {
              "internalType": "bytes32",
              "name": "domainId",
              "type": "bytes32"
            },
            {
              "internalType": "bytes32",
              "name": "targetDomainId",
              "type": "bytes32"
            },
            {
              "internalType": "bytes32",
              "name": "realmId",
              "type": "bytes32"
            }
          ],
          "internalType": "struct IDomainManagement.DomainMoveRealmRequest[]",
          "name": "requests",
          "type": "tuple[]"
        }
      ],
      "name": "domainMoveRealm",
      "outputs": [
        {
          "internalType": "bool",
          "name": "",
          "type": "bool"
        }
      ],
      "stateMutability": "nonpayable",
      "type": "function"
    },
    {
      "inputs": [
        {
          "components": [
            {
              "internalType": "address",
              "name": "account",
              "type": "address"
            },
            {
              "internalType": "uint64",
              "name": "expiredAt",
              "type": "uint64"
            },
            {
              "internalType": "bytes",
              "name": "signature",
              "type": "bytes"
            }
          ],
          "internalType": "struct IACLCommons.MemberSignature",
          "name": "memberSign",
          "type": "tuple"
        },
        {
          "components": [
            {
              "internalType": "bytes32",
              "name": "adminId",
              "type": "bytes32"
            },
            {
              "internalType": "int24",
              "name": "realmLimit",
              "type": "int24"
            },
            {
              "internalType": "enum IACLCommons.ActivityStatus",
              "name": "acstat",
              "type": "uint8"
            },
            {
              "internalType": "enum IACLCommons.AlterabilityStatus",
              "name": "alstat",
              "type": "uint8"
            },
            {
              "internalType": "string",
              "name": "name",
              "type": "string"
            }
          ],
          "internalType": "struct IDomainManagement.DomainRegisterRequest[]",
          "name": "requests",
          "type": "tuple[]"
        }
      ],
      "name": "domainRegister",
      "outputs": [
        {
          "internalType": "bool",
          "name": "",
          "type": "bool"
        }
      ],
      "stateMutability": "nonpayable",
      "type": "function"
    },
    {
      "inputs": [
        {
          "components": [
            {
              "internalType": "address",
              "name": "account",
              "type": "address"
            },
            {
              "internalType": "uint64",
              "name": "expiredAt",
              "type": "uint64"
            },
            {
              "internalType": "bytes",
              "name": "signature",
              "type": "bytes"
            }
          ],
          "internalType": "struct IACLCommons.MemberSignature",
          "name": "memberSign",
          "type": "tuple"
        },
        {
          "internalType": "bytes32[]",
          "name": "domains",
          "type": "bytes32[]"
        }
      ],
      "name": "domainRemove",
      "outputs": [
        {
          "internalType": "bool",
          "name": "",
          "type": "bool"
        }
      ],
      "stateMutability": "nonpayable",
      "type": "function"
    },
    {
      "inputs": [],
      "name": "domainSeparator",
      "outputs": [
        {
          "internalType": "bytes32",
          "name": "",
          "type": "bytes32"
        }
      ],
      "stateMutability": "view",
      "type": "function"
    },
    {
      "inputs": [
        {
          "components": [
            {
              "internalType": "address",
              "name": "account",
              "type": "address"
            },
            {
              "internalType": "uint64",
              "name": "expiredAt",
              "type": "uint64"
            },
            {
              "internalType": "bytes",
              "name": "signature",
              "type": "bytes"
            }
          ],
          "internalType": "struct IACLCommons.MemberSignature",
          "name": "memberSign",
          "type": "tuple"
        },
        {
          "components": [
            {
              "internalType": "bytes32",
              "name": "id",
              "type": "bytes32"
            },
            {
              "internalType": "enum IACLCommons.ActivityStatus",
              "name": "acstat",
              "type": "uint8"
            }
          ],
          "internalType": "struct IACLCommons.UpdateActivityRequest[]",
          "name": "requests",
          "type": "tuple[]"
        }
      ],
      "name": "domainUpdateActivityStatus",
      "outputs": [
        {
          "internalType": "bool",
          "name": "",
          "type": "bool"
        }
      ],
      "stateMutability": "nonpayable",
      "type": "function"
    },
    {
      "inputs": [
        {
          "components": [
            {
              "internalType": "address",
              "name": "account",
              "type": "address"
            },
            {
              "internalType": "uint64",
              "name": "expiredAt",
              "type": "uint64"
            },
            {
              "internalType": "bytes",
              "name": "signature",
              "type": "bytes"
            }
          ],
          "internalType": "struct IACLCommons.MemberSignature",
          "name": "memberSign",
          "type": "tuple"
        },
        {
          "components": [
            {
              "internalType": "bytes32",
              "name": "id",
              "type": "bytes32"
            },
            {
              "internalType": "bytes32",
              "name": "adminId",
              "type": "bytes32"
            }
          ],
          "internalType": "struct IACLCommons.UpdateAdminRequest[]",
          "name": "requests",
          "type": "tuple[]"
        }
      ],
      "name": "domainUpdateAdmin",
      "outputs": [
        {
          "internalType": "bool",
          "name": "",
          "type": "bool"
        }
      ],
      "stateMutability": "nonpayable",
      "type": "function"
    },
    {
      "inputs": [
        {
          "components": [
            {
              "internalType": "address",
              "name": "account",
              "type": "address"
            },
            {
              "internalType": "uint64",
              "name": "expiredAt",
              "type": "uint64"
            },
            {
              "internalType": "bytes",
              "name": "signature",
              "type": "bytes"
            }
          ],
          "internalType": "struct IACLCommons.MemberSignature",
          "name": "memberSign",
          "type": "tuple"
        },
        {
          "components": [
            {
              "internalType": "bytes32",
              "name": "id",
              "type": "bytes32"
            },
            {
              "internalType": "enum IACLCommons.AlterabilityStatus",
              "name": "alstat",
              "type": "uint8"
            }
          ],
          "internalType": "struct IACLCommons.UpdateAlterabilityRequest[]",
          "name": "requests",
          "type": "tuple[]"
        }
      ],
      "name": "domainUpdateAlterabilityStatus",
      "outputs": [
        {
          "internalType": "bool",
          "name": "",
          "type": "bool"
        }
      ],
      "stateMutability": "nonpayable",
      "type": "function"
    },
    {
      "inputs": [
        {
          "components": [
            {
              "internalType": "address",
              "name": "account",
              "type": "address"
            },
            {
              "internalType": "uint64",
              "name": "expiredAt",
              "type": "uint64"
            },
            {
              "internalType": "bytes",
              "name": "signature",
              "type": "bytes"
            }
          ],
          "internalType": "struct IACLCommons.MemberSignature",
          "name": "memberSign",
          "type": "tuple"
        },
        {
          "components": [
            {
              "internalType": "bytes32",
              "name": "domainId",
              "type": "bytes32"
            },
            {
              "internalType": "uint16",
              "name": "realmLimit",
              "type": "uint16"
            }
          ],
          "internalType": "struct IDomainManagement.DomainUpdateRealmLimitRequest[]",
          "name": "requests",
          "type": "tuple[]"
        }
      ],
      "name": "domainUpdateRealmLimit",
      "outputs": [
        {
          "internalType": "bool",
          "name": "",
          "type": "bool"
        }
      ],
      "stateMutability": "nonpayable",
      "type": "function"
    },
    {
      "inputs": [],
      "name": "getLibrary",
      "outputs": [
        {
          "internalType": "address",
          "name": "",
          "type": "address"
        }
      ],
      "stateMutability": "pure",
      "type": "function"
    },
    {
      "inputs": [],
      "name": "initVersion",
      "outputs": [
        {
          "internalType": "uint16",
          "name": "",
          "type": "uint16"
        }
      ],
      "stateMutability": "view",
      "type": "function"
    },
    {
      "inputs": [
        {
          "internalType": "string",
          "name": "contractName",
          "type": "string"
        },
        {
          "internalType": "string",
          "name": "contractVersion",
          "type": "string"
        },
        {
          "internalType": "address",
          "name": "accessControlManager",
          "type": "address"
        }
      ],
      "name": "initialize",
      "outputs": [],
      "stateMutability": "nonpayable",
      "type": "function"
    },
    {
      "inputs": [],
      "name": "localAdmin",
      "outputs": [
        {
          "internalType": "address",
          "name": "",
          "type": "address"
        }
      ],
      "stateMutability": "view",
      "type": "function"
    },
    {
      "inputs": [],
      "name": "proxiableUUID",
      "outputs": [
        {
          "internalType": "bytes32",
          "name": "",
          "type": "bytes32"
        }
      ],
      "stateMutability": "view",
      "type": "function"
    },
    {
      "inputs": [],
      "name": "safeModeStatus",
      "outputs": [
        {
          "internalType": "enum IBaseProxy.ProxySafeModeStatus",
          "name": "",
          "type": "uint8"
        }
      ],
      "stateMutability": "view",
      "type": "function"
    },
    {
      "inputs": [
        {
          "internalType": "address",
          "name": "acl",
          "type": "address"
        }
      ],
      "name": "setAccessControlManager",
      "outputs": [
        {
          "internalType": "bool",
          "name": "",
          "type": "bool"
        }
      ],
      "stateMutability": "nonpayable",
      "type": "function"
    },
    {
      "inputs": [
        {
          "internalType": "address",
          "name": "newLocalAdmin",
          "type": "address"
        }
      ],
      "name": "setLocalAdmin",
      "outputs": [
        {
          "internalType": "bool",
          "name": "",
          "type": "bool"
        }
      ],
      "stateMutability": "nonpayable",
      "type": "function"
    },
    {
      "inputs": [
        {
          "internalType": "enum IBaseProxy.ProxySafeModeStatus",
          "name": "sstat",
          "type": "uint8"
        }
      ],
      "name": "setSafeModeStatus",
      "outputs": [
        {
          "internalType": "bool",
          "name": "",
          "type": "bool"
        }
      ],
      "stateMutability": "nonpayable",
      "type": "function"
    },
    {
      "inputs": [
        {
          "internalType": "enum IBaseProxy.ProxyUpdatabilityStatus",
          "name": "ustat",
          "type": "uint8"
        }
      ],
      "name": "setUpdatabilityStatus",
      "outputs": [
        {
          "internalType": "bool",
          "name": "",
          "type": "bool"
        }
      ],
      "stateMutability": "nonpayable",
      "type": "function"
    },
    {
      "inputs": [],
      "name": "subjectAddress",
      "outputs": [
        {
          "internalType": "address",
          "name": "",
          "type": "address"
        }
      ],
      "stateMutability": "view",
      "type": "function"
    },
    {
      "inputs": [
        {
          "internalType": "bytes4",
          "name": "interfaceId",
          "type": "bytes4"
        }
      ],
      "name": "supportsInterface",
      "outputs": [
        {
          "internalType": "bool",
          "name": "",
          "type": "bool"
        }
      ],
      "stateMutability": "view",
      "type": "function"
    },
    {
      "inputs": [],
      "name": "updatabilityStatus",
      "outputs": [
        {
          "internalType": "enum IBaseProxy.ProxyUpdatabilityStatus",
          "name": "",
          "type": "uint8"
        }
      ],
      "stateMutability": "view",
      "type": "function"
    },
    {
      "inputs": [
        {
          "internalType": "address",
          "name": "newImplementation",
          "type": "address"
        },
        {
          "internalType": "bytes",
          "name": "data",
          "type": "bytes"
        },
        {
          "internalType": "bool",
          "name": "forceCall",
          "type": "bool"
        }
      ],
      "name": "upgradeTo",
      "outputs": [
        {
          "internalType": "bytes",
          "name": "",
          "type": "bytes"
        }
      ],
      "stateMutability": "nonpayable",
      "type": "function"
    },
    {
      "inputs": [
        {
          "internalType": "address",
          "name": "recepient",
          "type": "address"
        }
      ],
      "name": "withdrawBalance",
      "outputs": [
        {
          "internalType": "uint256",
          "name": "",
          "type": "uint256"
        }
      ],
      "stateMutability": "nonpayable",
      "type": "function"
    },
    {
      "stateMutability": "payable",
      "type": "receive"
    }
  ],
  "transactionHash": "0x7f6659a426fffce299ad1bbc204ca5839fa07ec079685f7cd3a725b9382d6bc5",
  "args": [],
  "numDeployments": 1,
  "solcInputHash": "bf3d37f12163392c6a812b5af749abec",
  "bytecode": "0x60a0604052306080523480156200001557600080fd5b506200004360017f360894a13ba1a3210667c828492db98dca3e2076cc3735a920a3ca505d382bbd620000fd565b7f360894a13ba1a3210667c828492db98dca3e2076cc3735a920a3ca505d382bbc1462000074576200007462000125565b620000a160017fb53127684a568b3173ae13b9f8a6016e243e63b6e8ee1178d6a717850b5d6104620000fd565b600080516020620060ac83398151915214620000c157620000c162000125565b600080516020620060ac83398151915280546001600160a01b0319163317905560028054600160a01b61ffff60a01b199091161790556200013b565b818103818111156200011f57634e487b7160e01b600052601160045260246000fd5b92915050565b634e487b7160e01b600052600160045260246000fd5b608051615f01620001ab600039600081816108500152818161089901528181610a8801528181610ac8015281816112ae0152818161186e015281816118ae01528181612d0601528181612d460152818161301001528181613050015281816131c401526132040152615f016000f3fe6080604052600436106102325760003560e01c8063756af45f1161012d578063b7659292116100b0578063df4a69c311610077578063df4a69c31461075d578063f0b15def1461077d578063f698da25146107b1578063f708ceb0146107c6578063f94a0adb146107e6578063fcc40178146107fb57005b8063b7659292146106bd578063ba313afc146106dd578063c8416506146106fd578063d745ded51461071d578063d9dc1f191461073d57005b80639b97b534116100f45780639b97b53414610617578063a0a8e4601461064b578063a304e35314610660578063b4a0bdf31461067f578063b4ac9e3e1461069d57005b8063756af45f1461057b57806375d0c0dc1461059b5780637678922e146105b05780638b2b1280146105d7578063994ae65c146105f757005b80634888f482116101b55780635ed3fd9e1161017c5780635ed3fd9e146104ad57806364d4c819146104cd57806365301e51146105015780636ea5d24d146105215780637147855d1461054e57005b80634888f482146103ef5780634bf0414d1461041757806351f1d2ff1461044b57806352d1902d1461046b57806358dbc45d1461048057005b806334109de2116101f957806334109de21461032657806338d38c971461035a5780633962758514610382578063476f6362146103a2578063484cdfcb146103cf57005b806301ffc9a71461023b578063077f224a146102705780630e32cb86146102905780631b452f4b146102b0578063301c1280146102f257005b3661023957005b005b34801561024757600080fd5b5061025b610256366004615254565b61081b565b60405190151581526020015b60405180910390f35b34801561027c57600080fd5b5061023961028b3660046152d6565b610846565b34801561029c57600080fd5b5061025b6102ab366004615356565b610a7c565b3480156102bc57600080fd5b506102e47f7bfb2abd6084c8ce20d7ff92c1620e7e7267603f0eac446b9176959d243306bc81565b604051908152602001610267565b3480156102fe57600080fd5b506102e47f541cf898e7c3085cbc6b7402ba06e7237285bc4bd5baa510e708e35537a71ffd81565b34801561033257600080fd5b506102e47f7aabe2571874f2a330ea11c8972d9cc3792d973efc6b36e3e29005861a34418881565b34801561036657600080fd5b5061036f610d8a565b60405161ffff9091168152602001610267565b34801561038e57600080fd5b5061025b61039d3660046153cd565b610d9e565b3480156103ae57600080fd5b506103c26103bd366004615435565b610fd9565b604051610267919061544e565b3480156103db57600080fd5b5061025b6103ea3660046153cd565b611021565b3480156103fb57600080fd5b50600254600160a81b900460ff165b60405161026791906154b8565b34801561042357600080fd5b506102e47f9027b951cbdf8eff67da583391d218a57a89ec1ebfcb1c66da188e8531804d5581565b34801561045757600080fd5b5061025b6104663660046154cb565b61125f565b34801561047757600080fd5b506102e46112a1565b34801561048c57600080fd5b506104956112fe565b6040516001600160a01b039091168152602001610267565b3480156104b957600080fd5b5061025b6104c836600461550c565b611308565b3480156104d957600080fd5b506102e47f8b73c3c69bb8fe3d512ecc4cf759cc79239f7b179b0ffacaa9a75d522b39400f81565b34801561050d57600080fd5b5061025b61051c3660046153cd565b6113a2565b34801561052d57600080fd5b5061054161053c366004615435565b611607565b60405161026791906155ab565b34801561055a57600080fd5b5061056e610569366004615691565b611862565b6040516102679190615762565b34801561058757600080fd5b506102e4610596366004615356565b6119b9565b3480156105a757600080fd5b5061056e611a7e565b3480156105bc57600080fd5b507361a74e6467B0eDd133Bf2fa08193Fc8B663D1750610495565b3480156105e357600080fd5b5061025b6105f2366004615435565b611b10565b34801561060357600080fd5b5061025b61061236600461550c565b611b41565b34801561062357600080fd5b506102e47fdee69d384475c3656c17c592e94a2bbfd2a1998cce0c85f535569415a15863b881565b34801561065757600080fd5b5061056e611b7a565b34801561066c57600080fd5b50600254600160a01b900460ff1661040a565b34801561068b57600080fd5b506002546001600160a01b0316610495565b3480156106a957600080fd5b5061025b6106b83660046153cd565b611b89565b3480156106c957600080fd5b5061025b6106d8366004615775565b611d1c565b3480156106e957600080fd5b5061025b6106f836600461550c565b61213d565b34801561070957600080fd5b5061025b610718366004615852565b6121a2565b34801561072957600080fd5b5061025b610738366004615852565b6124c4565b34801561074957600080fd5b5061025b610758366004615356565b612cfa565b34801561076957600080fd5b5061025b6107783660046158ad565b612eb0565b34801561078957600080fd5b506102e47ffc434588684348dd50856b075c47bed14245c1030aa04c32955af5549981462781565b3480156107bd57600080fd5b506102e4612ffa565b3480156107d257600080fd5b5061025b6107e13660046158e6565b613004565b3480156107f257600080fd5b506104956131ae565b34801561080757600080fd5b5061025b6108163660046158e6565b6131b8565b60006001600160e01b031982166359213acd60e01b1480610840575061084082613343565b92915050565b6001600160a01b037f00000000000000000000000000000000000000000000000000000000000000001630036108975760405162461bcd60e51b815260040161088e90615903565b60405180910390fd5b7f00000000000000000000000000000000000000000000000000000000000000006001600160a01b03166108c9613393565b6001600160a01b0316146108ef5760405162461bcd60e51b815260040161088e90615929565b336108f86133b4565b6001600160a01b03161461093e5760405162461bcd60e51b815260206004820152600d60248201526c1058d8d95cdcc811195b9a5959609a1b604482015260640161088e565b604e5462010000900460ff16158080156109605750604e54600161ffff909116105b8061097b5750303b15801561097b5750604e5461ffff166001145b6109c75760405162461bcd60e51b815260206004820152601c60248201527f436f6e747261637420416c726561647920496e697469616c697a656400000000604482015260640161088e565b604e805461ffff1916600117905580156109ed57604e805462ff00001916620100001790555b6109fa86868686866133dc565b610a02613393565b6001600160a01b031630336001600160a01b03167f247ab7b17ee489fa140c6666edc3822eefed2727610cd6e37192462b87244c6089898989610a48604e5461ffff1690565b604051610a59959493929190615978565b60405180910390a48015610a7457604e805462ff0000191690555b505050505050565b60006001600160a01b037f0000000000000000000000000000000000000000000000000000000000000000163003610ac65760405162461bcd60e51b815260040161088e90615903565b7f00000000000000000000000000000000000000000000000000000000000000006001600160a01b0316610af8613393565b6001600160a01b031614610b1e5760405162461bcd60e51b815260040161088e90615929565b6000600254600160a01b900460ff166001811115610b3e57610b3e615492565b14610b5b5760405162461bcd60e51b815260040161088e906159b6565b6001600254600160a81b900460ff166001811115610b7b57610b7b615492565b14610b985760405162461bcd60e51b815260040161088e906159d8565b6001600160a01b03821615801590610bb957506001600160a01b0382163b15155b610bd55760405162461bcd60e51b815260040161088e90615a03565b6002546001600160a01b031615610c34576000610bf863071965c360e11b6133f0565b90506000816013811115610c0e57610c0e615492565b14610c2e5780604051637f0911d160e01b815260040161088e9190615a2d565b50610c83565b33610c3d6133b4565b6001600160a01b031614610c835760405162461bcd60e51b815260206004820152600d60248201526c1058d8d95cdcc811195b9a5959609a1b604482015260640161088e565b6040516301ffc9a760e01b81526331501c3960e01b60048201526001600160a01b038316906301ffc9a790602401602060405180830381865afa158015610cce573d6000803e3d6000fd5b505050506040513d601f19601f82011682018060405250810190610cf29190615a41565b610d2c5760405162461bcd60e51b815260206004820152600b60248201526a125b1b1959d85b081050d360aa1b604482015260640161088e565b600280546001600160a01b0384166001600160a01b031990911681179091556040805191825251309133917f410bf468eebeeed60acaedb904afb2db7c0bb0131f7d14c3714d81b14fe8ed3c9181900360200190a35060015b919050565b6000610d99604e5461ffff1690565b905090565b6000808080610db487633962758560e01b61347b565b92509250925060005b85811015610fc9576000610ded888884818110610ddc57610ddc615a5e565b6044926040909102013590506136dd565b90506002600182015462010000900460ff166003811115610e1057610e10615492565b1015610e2e5760405162461bcd60e51b815260040161088e906159d8565b8054600090610e3e9086886137bf565b90506000816007811115610e5457610e54615492565b14610e6257610e628161384b565b6001898985818110610e7657610e76615a5e565b9050604002016020016020810190610e8e9190615a81565b6003811115610e9f57610e9f615492565b11610edf5760405162461bcd60e51b815260206004820152601060248201526f496c6c6567616c20416374697669747960801b604482015260640161088e565b888884818110610ef157610ef1615a5e565b9050604002016020016020810190610f099190615a81565b60018301805461ff001916610100836003811115610f2957610f29615492565b0217905550888884818110610f4057610f40615a5e565b90506040020160000135846001600160a01b03167f9c8ca9a21f9203a9d60c4c5991765e453f406f301ae294243c2acf37fe26c8cd8b8b87818110610f8757610f87615a5e565b9050604002016020016020810190610f9f9190615a81565b604051610fac9190615a9e565b60405180910390a350508080610fc190615ac1565b915050610dbd565b50600193505050505b9392505050565b6060600080610fe96044856139e2565b915091508061100d5760408051600080825260208201909252905b50949350505050565b61101982600501613a44565b949350505050565b60008080806110378763484cdfcb60e01b61347b565b92509250925060005b85811015610fc957600061105f888884818110610ddc57610ddc615a5e565b9050600180820154610100900460ff16600381111561108057611080615492565b116110be5760405162461bcd60e51b815260206004820152600e60248201526d111bdb585a5b8811195b195d195960921b604482015260640161088e565b80546000906110ce9086886137bf565b905060008160078111156110e4576110e4615492565b146110f2576110f28161384b565b600089898581811061110657611106615a5e565b905060400201602001602081019061111e9190615a81565b600381111561112f5761112f615492565b036111735760405162461bcd60e51b8152602060048201526014602482015273496c6c6567616c20416c7465726162696c69747960601b604482015260640161088e565b88888481811061118557611185615a5e565b905060400201602001602081019061119d9190615a81565b60018301805462ff00001916620100008360038111156111bf576111bf615492565b02179055508888848181106111d6576111d6615a5e565b90506040020160000135846001600160a01b03167f8fc692f0aafe304e5338e6eda3c3f27366f95833d0f4f54cfd48e9416085cc548b8b8781811061121d5761121d615a5e565b90506040020160200160208101906112359190615a81565b6040516112429190615a9e565b60405180910390a35050808061125790615ac1565b915050611040565b60006004604560006112718686613a4f565b815260208101919091526040016000206001015460ff16600581111561129957611299615492565b149392505050565b6000306001600160a01b037f000000000000000000000000000000000000000000000000000000000000000016146112eb5760405162461bcd60e51b815260040161088e90615903565b50600080516020615eac83398151915290565b6000610d99613393565b60008080611317604485613a82565b915091508061132b57600092505050610840565b60008061134684600301546044613a9a90919063ffffffff16565b915091508061135c576000945050505050610840565b60008061137784600201546044613ab390919063ffffffff16565b915091508061138f5760009650505050505050610840565b5060020154871494505050505092915050565b60008080806113b8876365301e5160e01b61347b565b92509250925060005b85811015610fc95760006113f18888848181106113e0576113e0615a5e565b905060400201600001358587613acc565b9050600088888481811061140757611407615a5e565b9050604002016020013514611547576001604460008a8a8681811061142e5761142e615a5e565b90506040020160200135815260200190815260200160002060010160009054906101000a900460ff16600381111561146857611468615492565b116114af5760405162461bcd60e51b8152602060048201526017602482015276496c6c6567616c2041646d696e204167656e745479706560481b604482015260640161088e565b60006114d58989858181106114c6576114c6615a5e565b90506040020160200135613bac565b90506040516020016114e690615ada565b60405160208183030381529060405280519060200120811461151a5760405162461bcd60e51b815260040161088e90615afb565b88888481811061152c5761152c615a5e565b90506040020160200135826000016000018190555050611586565b6044600101600060405160200161155d90615ada565b60408051601f198184030181529181528151602092830120835290820192909252016000205481555b87878381811061159857611598615a5e565b905060400201602001358888848181106115b4576115b4615a5e565b90506040020160000135846001600160a01b03167f16f129e49e4e12e9aa01cfb007139afc1754e2f9c2630d95a60e4bbb533e0d3160405160405180910390a450806115ff81615ac1565b9150506113c1565b61165d604080516101408101825260008082526020820181905291810182905260608101829052608081018290529060a08201908152602001600081526020016000815260200160008152602001606081525090565b60008061166b6044856139e2565b91509150806116d757604080516101408101825260008082526020820181905291810182905260608101829052608081018290529060a0820190815260200160008152602001600081526020016000815260408051602081810190925260008152910152949350505050565b60408051610140810182528354815260028401546020820152600384015461ffff16918101919091526060810161171060058501613c22565b61ffff168152600184015463ffffffff6301000000820416602083015260409091019060ff16600581111561174757611747615492565b8152835460009081526044602090815260409091206001015491019060ff16600381111561177757611777615492565b81526001840154602090910190610100900460ff16600381111561179d5761179d615492565b8152600184015460209091019062010000900460ff1660038111156117c4576117c4615492565b81526020018360040180546117d890615b28565b80601f016020809104026020016040519081016040528092919081815260200182805461180490615b28565b80156118515780601f1061182657610100808354040283529160200191611851565b820191906000526020600020905b81548152906001019060200180831161183457829003601f168201915b505050505081525092505050919050565b60606001600160a01b037f00000000000000000000000000000000000000000000000000000000000000001630036118ac5760405162461bcd60e51b815260040161088e90615903565b7f00000000000000000000000000000000000000000000000000000000000000006001600160a01b03166118de613393565b6001600160a01b0316146119045760405162461bcd60e51b815260040161088e90615929565b6000600254600160a01b900460ff16600181111561192457611924615492565b146119415760405162461bcd60e51b815260040161088e906159b6565b6001600254600160a81b900460ff16600181111561196157611961615492565b1461197e5760405162461bcd60e51b815260040161088e906159d8565b6001600160a01b0384163b6119a55760405162461bcd60e51b815260040161088e90615a03565b6119ae84613c2c565b611019848484613cca565b600080600254600160a01b900460ff1660018111156119da576119da615492565b146119f75760405162461bcd60e51b815260040161088e906159b6565b6000611a0963756af45f60e01b6133f0565b90506000816013811115611a1f57611a1f615492565b14611a3f5780604051637f0911d160e01b815260040161088e9190615a2d565b60405147906001600160a01b038516904780156108fc02916000818181858888f19350505050158015611a76573d6000803e3d6000fd5b509392505050565b606060008054611a8d90615b28565b80601f0160208091040260200160405190810160405280929190818152602001828054611ab990615b28565b8015611b065780601f10611adb57610100808354040283529160200191611b06565b820191906000526020600020905b815481529060010190602001808311611ae957829003601f168201915b5050505050905090565b6000600460008381526045602052604090206001015460ff166005811115611b3a57611b3a615492565b1492915050565b60008080611b506044866139e2565b9150915080611b6457600092505050610840565b611b716005830185613e82565b95945050505050565b606060018054611a8d90615b28565b6000808080611b9f87635a564f1f60e11b61347b565b92509250925060005b85811015610fc9576000611bc78888848181106113e0576113e0615a5e565b9050611bd581600501613c22565b888884818110611be757611be7615a5e565b9050604002016020016020810190611bff9190615b5c565b61ffff1611611c405760405162461bcd60e51b815260206004820152600d60248201526c125b1b1959d85b08131a5b5a5d609a1b604482015260640161088e565b878783818110611c5257611c52615a5e565b9050604002016020016020810190611c6a9190615b5c565b60038201805461ffff191661ffff92909216919091179055878783818110611c9457611c94615a5e565b90506040020160000135836001600160a01b03167f47788e6aab9fe304d9b35f13c2739a32c870831893093dd9c869bcc95535874a8a8a86818110611cdb57611cdb615a5e565b9050604002016020016020810190611cf39190615b5c565b60405161ffff909116815260200160405180910390a35080611d1481615ac1565b915050611ba8565b6000808080611d3287635bb2c94960e11b61347b565b92509250925060005b85811015610fc9576000611d6b888884818110611d5a57611d5a615a5e565b905060600201600001358587613acc565b9050611d9e888884818110611d8257611d82615a5e565b9050606002016040013582600501613e8290919063ffffffff16565b611de35760405162461bcd60e51b8152602060048201526016602482015275111bdb585a5b881499585b1b48139bdd08119bdd5b9960521b604482015260640161088e565b6000611e0b898985818110611dfa57611dfa615a5e565b905060600201602001358688613acc565b90506000611e3e8a8a86818110611e2457611e24615a5e565b905060600201604001356044613e9a90919063ffffffff16565b90506002600182015462010000900460ff166003811115611e6157611e61615492565b1015611eaf5760405162461bcd60e51b815260206004820152601760248201527f496c6c6567616c205265616c6d20557064617461626c65000000000000000000604482015260640161088e565b60018101546301000000900463ffffffff1615611f015760405162461bcd60e51b815260206004820152601060248201526f125b1b195859db08149959995c9c995960821b604482015260640161088e565b8054600090611f0f90613bac565b905030633bc6460a828d8d89818110611f2a57611f2a615a5e565b905060600201602001356040518363ffffffff1660e01b8152600401611f5a929190918252602082015260400190565b602060405180830381865afa158015611f77573d6000803e3d6000fd5b505050506040513d601f19601f82011682018060405250810190611f9b9190615a41565b611fb75760405162461bcd60e51b815260040161088e90615afb565b611fc383600501613c22565b600384015461ffff16116120085760405162461bcd60e51b815260206004820152600c60248201526b496c6c6567616c204d6f766560a01b604482015260640161088e565b6120398b8b8781811061201d5761201d615a5e565b9050606002016040013585600501613f7590919063ffffffff16565b5061206b8b8b8781811061204f5761204f615a5e565b9050606002016040013584600501613f8190919063ffffffff16565b508a8a8681811061207e5761207e615a5e565b9050606002016020013582600201819055508a8a868181106120a2576120a2615a5e565b905060600201604001358b8b878181106120be576120be615a5e565b90506060020160000135876001600160a01b03167f3a565bbd815927a4dd4e246af37b5db7cbf454dfd8c654b6b66a8913ad7c12f58e8e8a81811061210557612105615a5e565b9050606002016020013560405161211e91815260200190565b60405180910390a450505050808061213590615ac1565b915050611d3b565b6000808061214c604485613a9a565b915091508061216057600092505050610840565b60008061217b84600201546044613ab390919063ffffffff16565b9150915080612191576000945050505050610840565b506002015485149250505092915050565b60008080806121b887636420b28360e11b61347b565b92509250925060005b85811015610fc95760006121f78888848181106121e0576121e0615a5e565b9050602002013560446136dd90919063ffffffff16565b805490915060009061220a9086886137bf565b9050600081600781111561222057612220615492565b1461222e5761222e8161384b565b61223a82600501613c22565b156122785760405162461bcd60e51b815260206004820152600e60248201526d496c6c6567616c2052656d6f766560901b604482015260640161088e565b60018201546301000000900463ffffffff166000036123ff5760006122ab83600201546044613f8d90919063ffffffff16565b90506002600182015462010000900460ff1660038111156122ce576122ce615492565b101561231c5760405162461bcd60e51b815260206004820152601a60248201527f496c6c6567616c20556e69766572736520557064617461626c65000000000000604482015260640161088e565b61234a8a8a8681811061233157612331615a5e565b9050602002013582600401613f7590919063ffffffff16565b50600080845560018401805466ffffffffffffff191690556002840181905560038401805461ffff191690556123849060048501906151e7565b60058301600081816123968282615221565b505050508989858181106123ac576123ac615a5e565b90506020020135856001600160a01b03167fc808e159790c3e2b0ebadadbe84d9190e0f1774ae29965d08f4198ccd1d3635760006040516123f1911515815260200190565b60405180910390a3506124af565b6002600183015462010000900460ff16600381111561242057612420615492565b101561243e5760405162461bcd60e51b815260040161088e906159d8565b60018201805461ff00191661010017905588888481811061246157612461615a5e565b90506020020135846001600160a01b03167fc808e159790c3e2b0ebadadbe84d9190e0f1774ae29965d08f4198ccd1d3635760016040516124a6911515815260200190565b60405180910390a35b505080806124bc90615ac1565b9150506121c1565b60008080806124da8763d745ded560e01b61347b565b9194509250905060006124ee604484614068565b60038101549091506000906125109088830b90600160d01b900460ff16615b80565b60010b12156125595760405162461bcd60e51b8152602060048201526015602482015274125b1b1959d85b08149959da5cdd195c931a5b5a5d605a1b604482015260640161088e565b60038101805460ff600160d01b80830482168a90039091160260ff60d01b199091161790556040516000906125e2906125c6906020017f545950452e4c4956454c595f56455253452e4c4956454c595f53434f50455f4d81526420a9aa22a960d91b602082015260250190565b604051602081830303815290604052805190602001208561413e565b905060005b87811015612cea57600061262b8a8a8481811061260657612606615a5e565b90506020028101906126189190615ba3565b612626906080810190615bc3565b613a4f565b90506000808281526045602052604090206001015460ff16600581111561265457612654615492565b146126915760405162461bcd60e51b815260206004820152600d60248201526c105b1c9958591e48115e1a5cdd609a1b604482015260640161088e565b60018a8a848181106126a5576126a5615a5e565b90506020028101906126b79190615ba3565b6126c8906060810190604001615a81565b60038111156126d9576126d9615492565b11801561272b575060008a8a848181106126f5576126f5615a5e565b90506020028101906127079190615ba3565b612718906080810190606001615a81565b600381111561272957612729615492565b115b6127775760405162461bcd60e51b815260206004820152601d60248201527f496c6c6567616c2041637469766974792f416c7465726162696c697479000000604482015260640161088e565b60006127b160405160200161278b90615ada565b604051602081830303815290604052805190602001206044613f8d90919063ffffffff16565b90506040516020016127c290615ada565b60405160208183030381529060405280519060200120841461281f5760405162461bcd60e51b8152602060048201526016602482015275496c6c6567616c20556e6976657273652053636f706560501b604482015260640161088e565b6002600182015462010000900460ff16600381111561284057612840615492565b101561288e5760405162461bcd60e51b815260206004820152601a60248201527f496c6c6567616c20556e69766572736520557064617461626c65000000000000604482015260640161088e565b61289a81600401613c22565b600282015461ffff16116128e35760405162461bcd60e51b815260206004820152601060248201526f24b63632b3b0b6102932b3b4b9ba32b960811b604482015260640161088e565b80546000906128f390898b6137bf565b9050600081600781111561290957612909615492565b14612917576129178161384b565b6129246004830184613f81565b506000612932604485614179565b60018101805460ff1916600417905590508c8c8681811061295557612955615a5e565b90506020028101906129679190615ba3565b612978906060810190604001615a81565b60018201805461ff00191661010083600381111561299857612998615492565b02179055508c8c868181106129af576129af615a5e565b90506020028101906129c19190615ba3565b6129d2906080810190606001615a81565b60018201805462ff00001916620100008360038111156129f4576129f4615492565b0217905550604051602001612a0890615ada565b60408051601f19818403018152919052805160209091012060028201558c8c86818110612a3757612a37615a5e565b9050602002810190612a499190615ba3565b612a57906080810190615bc3565b6004830191612a67919083615c54565b5060008d8d87818110612a7c57612a7c615a5e565b9050602002810190612a8e9190615ba3565b612a9f906040810190602001615d13565b60020b1215612abd576003870154600160681b900461ffff16612af2565b8c8c86818110612acf57612acf615a5e565b9050602002810190612ae19190615ba3565b612af2906040810190602001615d13565b60038201805461ffff191661ffff9290921691909117905560008d8d87818110612b1e57612b1e615a5e565b9050602002810190612b309190615ba3565b3514612c71576001604460008f8f89818110612b4e57612b4e615a5e565b9050602002810190612b609190615ba3565b35815260208101919091526040016000206001015460ff166003811115612b8957612b89615492565b11612bd05760405162461bcd60e51b8152602060048201526017602482015276496c6c6567616c2041646d696e204167656e745479706560481b604482015260640161088e565b6000612bff8e8e88818110612be757612be7615a5e565b9050602002810190612bf99190615ba3565b35613bac565b9050604051602001612c1090615ada565b604051602081830303815290604052805190602001208114612c445760405162461bcd60e51b815260040161088e90615afb565b8d8d87818110612c5657612c56615a5e565b9050602002810190612c689190615ba3565b35825550612c76565b825481555b8c8c86818110612c8857612c88615a5e565b9050602002810190612c9a9190615ba3565b60405190359085906001600160a01b038b16907fc0cbc4d7c6fc13a8e811669d7ca22a9a736fa7dd6c5a775cd5379593889f969690600090a4505050508080612ce290615ac1565b9150506125e7565b5060019998505050505050505050565b60006001600160a01b037f0000000000000000000000000000000000000000000000000000000000000000163003612d445760405162461bcd60e51b815260040161088e90615903565b7f00000000000000000000000000000000000000000000000000000000000000006001600160a01b0316612d76613393565b6001600160a01b031614612d9c5760405162461bcd60e51b815260040161088e90615929565b6000600254600160a01b900460ff166001811115612dbc57612dbc615492565b14612dd95760405162461bcd60e51b815260040161088e906159b6565b6001600254600160a81b900460ff166001811115612df957612df9615492565b14612e165760405162461bcd60e51b815260040161088e906159d8565b6000612e2863d9dc1f1960e01b6133f0565b90506000816013811115612e3e57612e3e615492565b14612e5e5780604051637f0911d160e01b815260040161088e9190615a2d565b6001600160a01b038316612e9e5760405162461bcd60e51b8152602060048201526007602482015266125b9d985b1a5960ca1b604482015260640161088e565b612ea7836141e4565b50600192915050565b60008080612ebf6044866139e2565b9150915080612ed357600092505050610840565b815460008181526044602052604081206001015460ff1690612ef48761425b565b90506002826003811115612f0a57612f0a615492565b03612f8d57600080612f1d60448661429a565b9150915080612f36576000975050505050505050610840565b600080612f51846003015460446142e590919063ffffffff16565b9150915080612f6c5760009950505050505050505050610840565b50600093845260050160205250506040902054909114935061084092505050565b6003826003811115612fa157612fa1615492565b03612fec57600080612fb46044866142e5565b9150915080612fcd576000975050505050505050610840565b5060009182526005016020526040902054151594506108409350505050565b506000979650505050505050565b6000610d996142fc565b60006001600160a01b037f000000000000000000000000000000000000000000000000000000000000000016300361304e5760405162461bcd60e51b815260040161088e90615903565b7f00000000000000000000000000000000000000000000000000000000000000006001600160a01b0316613080613393565b6001600160a01b0316146130a65760405162461bcd60e51b815260040161088e90615929565b60006130b5604e5461ffff1690565b61ffff16116130f15760405162461bcd60e51b81526020600482015260086024820152671393d5081253925560c21b604482015260640161088e565b6000613103630f708ceb60e41b6133f0565b9050600081601381111561311957613119615492565b146131395780604051637f0911d160e01b815260040161088e9190615a2d565b6002805484919060ff60a01b1916600160a01b83600181111561315e5761315e615492565b021790555030336001600160a01b03167fc08ec585c25f1907baaab6f278c5994531a2e34c59935b3fcfe813067a3b48788560405161319d91906154b8565b60405180910390a350600192915050565b6000610d996133b4565b60006001600160a01b037f00000000000000000000000000000000000000000000000000000000000000001630036132025760405162461bcd60e51b815260040161088e90615903565b7f00000000000000000000000000000000000000000000000000000000000000006001600160a01b0316613234613393565b6001600160a01b03161461325a5760405162461bcd60e51b815260040161088e90615929565b6000600254600160a01b900460ff16600181111561327a5761327a615492565b146132975760405162461bcd60e51b815260040161088e906159b6565b60006132a9631f98802f60e31b6133f0565b905060008160138111156132bf576132bf615492565b146132df5780604051637f0911d160e01b815260040161088e9190615a2d565b6002805484919060ff60a81b1916600160a81b83600181111561330457613304615492565b021790555030336001600160a01b03167ff5912c5e436152157ed2b4a84bc313b4b1fe09a15b941f195d23c99a1b8c45ad8560405161319d91906154b8565b60006001600160e01b03198216633d817cff60e01b148061337457506001600160e01b031982166352d1902d60e01b145b8061084057506301ffc9a760e01b6001600160e01b0319831614610840565b6000600080516020615eac8339815191525b546001600160a01b0316919050565b60007fb53127684a568b3173ae13b9f8a6016e243e63b6e8ee1178d6a717850b5d61036133a5565b6133e985858585856143b0565b5050505050565b6002546040805163172cb29d60e11b81523060048201526001600160e01b03198416602482015233604482015290516000926001600160a01b031691632e59653a916064808301926020929190829003018187875af1158015613457573d6000803e3d6000fd5b505050506040513d601f19601f820116820180604052508101906108409190615d36565b6000808080306001600160a01b031663a304e3536040518163ffffffff1660e01b8152600401602060405180830381865afa1580156134be573d6000803e3d6000fd5b505050506040513d601f19601f820116820180604052508101906134e29190615d57565b60018111156134f3576134f3615492565b146135105760405162461bcd60e51b815260040161088e906159b6565b6000806135206040880188615bc3565b905011156135b457426135396040880160208901615d74565b6001600160401b0316116135835760405162461bcd60e51b815260206004820152601160248201527045787069726564205369676e617475726560781b604482015260640161088e565b6135ad867fdee69d384475c3656c17c592e94a2bbfd2a1998cce0c85f535569415a15863b8614579565b90506135b7565b50335b6001600160e01b031985166000908152604a60205260408120546001600160a01b0316906135e58288614631565b905060006135f28461425b565b604051634902a91960e11b8152600481018490526024810182905290915060009030906392055232906044016020604051808303816000875af115801561363d573d6000803e3d6000fd5b505050506040513d601f19601f820116820180604052508101906136619190615d36565b9050600081601381111561367757613677615492565b146136cb57601281601381111561369057613690615492565b1480156136ad5750633962758560e01b6001600160e01b03198a16145b156136c2575090955093509091506136d69050565b6136cb81614668565b509095509350909150505b9250925092565b600081815260018301602052604081206004600182015460ff16600581111561370857613708615492565b0361372557604080518481526001860160208201522091506137b8565b6000600182015460ff16600581111561374057613740615492565b0361377d5760405162461bcd60e51b815260206004820152600d60248201526c11125108139bdd08119bdd5b99609a1b604482015260640161088e565b60405162461bcd60e51b815260206004820152601060248201526f125b1b1959d85b081112510814db1bdd60821b604482015260640161088e565b5092915050565b60405163ca37fa8560e01b8152604460048201819052602482018590528101839052606481018290526000907361a74e6467B0eDd133Bf2fa08193Fc8B663D17509063ca37fa8590608401602060405180830381865af4158015613827573d6000803e3d6000fd5b505050506040513d601f19601f820116820180604052508101906110199190615d9d565b600181600781111561385f5761385f615492565b0361387d576040516334267bfb60e11b815260040160405180910390fd5b600281600781111561389157613891615492565b036138af576040516343f871e760e11b815260040160405180910390fd5b60038160078111156138c3576138c3615492565b036138e157604051639afb7c5f60e01b815260040160405180910390fd5b60048160078111156138f5576138f5615492565b03613913576040516332314d6b60e11b815260040160405180910390fd5b600581600781111561392757613927615492565b0361394557604051633123155560e01b815260040160405180910390fd5b600681600781111561395957613959615492565b0361397757604051631b210af760e21b815260040160405180910390fd5b600781600781111561398b5761398b615492565b036139a9576040516339f73ba360e11b815260040160405180910390fd5b60405162461bcd60e51b815260206004820152600b60248201526a2ab735b737bbb71022a92960a91b604482015260640161088e565b50565b60008181526001830160205260408120819060045b600182015460ff166005811115613a1057613a10615492565b03613a3257604080518581526001878101602083015291902093509150613a3c565b6000199250600091505b509250929050565b606061084082614a1d565b60008282604051602001613a64929190615dbe565b60405160208183030381529060405280519060200120905092915050565b600081815260018084016020526040822082916139f7565b60008181526001830160205260408120819060026139f7565b60008181526001830160205260408120819060036139f7565b600080613ada6044866136dd565b9050600180820154610100900460ff166003811115613afb57613afb615492565b11613b395760405162461bcd60e51b815260206004820152600e60248201526d111bdb585a5b8811195b195d195960921b604482015260640161088e565b6002600182015462010000900460ff166003811115613b5a57613b5a615492565b1015613b785760405162461bcd60e51b815260040161088e906159d8565b8054600090613b889086866137bf565b90506000816007811115613b9e57613b9e615492565b14611004576110048161384b565b60008181526044602052604081206001015460ff166002816003811115613bd557613bd5615492565b03613bf3576000613be7604485614a79565b60020154949350505050565b6003816003811115613c0757613c07615492565b03613c19576000613be7604485614b56565b50600092915050565b6000610840825490565b613c34613393565b6001600160a01b0316816001600160a01b031603613c7e5760405162461bcd60e51b8152602060048201526007602482015266125b1b1959d85b60ca1b604482015260640161088e565b6000613c90637147855d60e01b6133f0565b90506000816013811115613ca657613ca6615492565b14613cc65780604051637f0911d160e01b815260040161088e9190615a2d565b5050565b60607f4910fdfa16fed3260ed0e7147f7cc6da11a60208b5b9406d12a635614ffd91435460ff1615613d1457613cff84614c2d565b50604080516000815260208101909152610fd2565b600080516020615eac83398151915260001b846001600160a01b03166352d1902d6040518163ffffffff1660e01b8152600401602060405180830381865afa158015613d64573d6000803e3d6000fd5b505050506040513d601f19601f82011682018060405250810190613d889190615dce565b14613dc45760405162461bcd60e51b815260206004820152600c60248201526b496c6c6567616c205555505360a01b604482015260640161088e565b6040516301ffc9a760e01b8152633d817cff60e01b60048201526001600160a01b038516906301ffc9a790602401602060405180830381865afa158015613e0f573d6000803e3d6000fd5b505050506040513d601f19601f82011682018060405250810190613e339190615a41565b613e705760405162461bcd60e51b815260206004820152600e60248201526d496c6c6567616c204950726f787960901b604482015260640161088e565b613e7b848484614c5c565b9050610fd2565b60008181526001830160205260408120541515610fd2565b600081815260018301602052604081206003600182015460ff166005811115613ec557613ec5615492565b03613ee257604080518481526001860160208201522091506137b8565b6000600182015460ff166005811115613efd57613efd615492565b03613f3a5760405162461bcd60e51b815260206004820152600d60248201526c14925108139bdd08119bdd5b99609a1b604482015260640161088e565b60405162461bcd60e51b815260206004820152601060248201526f125b1b195859db081492510814db1bdd60821b604482015260640161088e565b6000610fd28383614cbd565b6000610fd28383614db0565b600081815260018301602052604081206005600182015460ff166005811115613fb857613fb8615492565b03613fd557604080518481526001860160208201522091506137b8565b6000600182015460ff166005811115613ff057613ff0615492565b0361402d5760405162461bcd60e51b815260206004820152600d60248201526c11d25108139bdd08119bdd5b99609a1b604482015260640161088e565b60405162461bcd60e51b815260206004820152601060248201526f125b1b195859db0811d2510814db1bdd60821b604482015260640161088e565b600081815260208390526040812060018082015460ff16600381111561409057614090615492565b036140ab5760408051848152602081018690522091506137b8565b6000600182015460ff1660038111156140c6576140c6615492565b036141035760405162461bcd60e51b815260206004820152600d60248201526c13525108139bdd08119bdd5b99609a1b604482015260640161088e565b60405162461bcd60e51b815260206004820152601060248201526f125b1b1959d85b081352510814db1bdd60821b604482015260640161088e565b60008061414c604485614b56565b600084815260058201602052604081205491925061416b604483614a79565b600201549695505050505050565b6000818152600183016020526040812081600182015460ff1660058111156141a3576141a3615492565b14806141c757506004600182015460ff1660058111156141c5576141c5615492565b145b1561377d57604080518481526001860160208201522091506137b8565b7fb53127684a568b3173ae13b9f8a6016e243e63b6e8ee1178d6a717850b5d610380546001600160a01b0383166001600160a01b031990911681179091556040805191825251309133917f63fdbed5f2909ec44e3becc51e9d29654ce1447747914e8a6ebc019e7f640b8b9181900360200190a350565b6040516bffffffffffffffffffffffff19606083901b166020820152600090603401604051602081830303815290604052805190602001209050919050565b6000818152602083905260408120819060025b600182015460ff1660038111156142c6576142c6615492565b03613a3257604080518581526020810187905220925060019150613a3c565b6000818152602083905260408120819060036142ad565b60007f8b73c3c69bb8fe3d512ecc4cf759cc79239f7b179b0ffacaa9a75d522b39400f60006040516020016143319190615de7565b6040516020818303038152906040528051906020012060016040516020016143599190615de7565b60408051601f1981840301815282825280516020918201209083019490945281019190915260608101919091524660808201523060a082015260c00160405160208183030381529060405280519060200120905090565b604e5462010000900460ff166144085760405162461bcd60e51b815260206004820152601960248201527f436f6e7472616374204e6f7420496e697469616c697a696e6700000000000000604482015260640161088e565b6000614415858783615c54565b506001614423838583615c54565b506001600160a01b0381163014614509576001600160a01b0381163b61445b5760405162461bcd60e51b815260040161088e90615a03565b6040516301ffc9a760e01b81526331501c3960e01b60048201526001600160a01b038216906301ffc9a790602401602060405180830381865afa1580156144a6573d6000803e3d6000fd5b505050506040513d601f19601f820116820180604052508101906144ca9190615a41565b6145045760405162461bcd60e51b815260206004820152600b60248201526a125b1b1959d85b081050d360aa1b604482015260640161088e565b614555565b6145196331501c3960e01b61081b565b6145555760405162461bcd60e51b815260206004820152600d60248201526c139bdd0814dd5c1c1bdc9d1959609a1b604482015260640161088e565b600280546001600160b01b0319166001600160a01b0383161790556133e9336141e4565b6000610fd261458b6040850185615bc3565b8080601f01602080910402602001604051908101604052809392919081815260200183838082843760009201919091525061462c92508691506145d390506020880188615356565b6145e36040890160208a01615d74565b6001600160401b0316604080516020808201959095526001600160a01b039390931683820152606080840192909252805180840390920182526080909201909152805191012090565b614dff565b6040516bffffffffffffffffffffffff19606084901b1660208201526001600160e01b031982166034820152600090603801613a64565b600181601381111561467c5761467c615492565b0361469a576040516338bb798160e21b815260040160405180910390fd5b60028160138111156146ae576146ae615492565b036146cc57604051634f69231960e11b815260040160405180910390fd5b60038160138111156146e0576146e0615492565b036146fe57604051637e33e43360e01b815260040160405180910390fd5b600481601381111561471257614712615492565b0361473057604051630287b9e560e51b815260040160405180910390fd5b600581601381111561474457614744615492565b0361476257604051633beb1f4d60e11b815260040160405180910390fd5b600681601381111561477657614776615492565b036147945760405163036c45ad60e51b815260040160405180910390fd5b60078160138111156147a8576147a8615492565b036147c65760405163c0af595f60e01b815260040160405180910390fd5b60088160138111156147da576147da615492565b036147f85760405163249eeb8960e01b815260040160405180910390fd5b600981601381111561480c5761480c615492565b0361482a576040516311fb41e160e21b815260040160405180910390fd5b600a81601381111561483e5761483e615492565b0361485c57604051637331e2bb60e01b815260040160405180910390fd5b600b81601381111561487057614870615492565b0361488e5760405163163099ab60e01b815260040160405180910390fd5b600c8160138111156148a2576148a2615492565b036148c05760405163975a86e560e01b815260040160405180910390fd5b600d8160138111156148d4576148d4615492565b036148f257604051631140570360e21b815260040160405180910390fd5b600e81601381111561490657614906615492565b0361492457604051630622823b60e31b815260040160405180910390fd5b600f81601381111561493857614938615492565b0361495657604051636d30058d60e11b815260040160405180910390fd5b601081601381111561496a5761496a615492565b03614988576040516304acbcf160e51b815260040160405180910390fd5b601181601381111561499c5761499c615492565b036149ba57604051636effd2d560e01b815260040160405180910390fd5b60128160138111156149ce576149ce615492565b036149eb57604051623f318960e21b815260040160405180910390fd5b60138160138111156149ff576149ff615492565b036139a957604051634bc7b56f60e11b815260040160405180910390fd5b606081600001805480602002602001604051908101604052809291908181526020018280548015614a6d57602002820191906000526020600020905b815481526020019060010190808311614a59575b50505050509050919050565b60008181526020839052604081206002600182015460ff166003811115614aa257614aa2615492565b03614abd5760408051848152602081018690522091506137b8565b6000600182015460ff166003811115614ad857614ad8615492565b03614b185760405162461bcd60e51b815260206004820152601060248201526f149bdb19525908139bdd08119bdd5b9960821b604482015260640161088e565b60405162461bcd60e51b8152602060048201526013602482015272125b1b1959d85b08149bdb1952590814db1bdd606a1b604482015260640161088e565b60008181526020839052604081206003600182015460ff166003811115614b7f57614b7f615492565b03614b9a5760408051848152602081018690522091506137b8565b6000600182015460ff166003811115614bb557614bb5615492565b03614bf25760405162461bcd60e51b815260206004820152600d60248201526c15125108139bdd08119bdd5b99609a1b604482015260640161088e565b60405162461bcd60e51b815260206004820152601060248201526f125b1b1959d85b081512510814db1bdd60821b604482015260640161088e565b600080516020615eac83398151915280546001600160a01b0319166001600160a01b0392909216919091179055565b6060614c6784614e74565b600083511180614c745750815b15614ca757613e7b84846040518060400160405280600b81526020016a10d85b1b0811985a5b195960aa1b815250614eb8565b6040805160008082526020820190925290611004565b60008181526001830160205260408120548015614da6576000614ce1600183615e5d565b8554909150600090614cf590600190615e5d565b9050818114614d5a576000866000018281548110614d1557614d15615a5e565b9060005260206000200154905080876000018481548110614d3857614d38615a5e565b6000918252602080832090910192909255918252600188019052604090208390555b8554869080614d6b57614d6b615e70565b600190038181906000526020600020016000905590558560010160008681526020019081526020016000206000905560019350505050610840565b6000915050610840565b6000818152600183016020526040812054614df757508154600181810184556000848152602080822090930184905584548482528286019093526040902091909155610840565b506000610840565b600080614e0b83614f86565b9050600080614e1a8387614ff3565b90925090506000816004811115614e3357614e33615492565b146110045760405162461bcd60e51b8152602060048201526011602482015270496c6c6567616c205369676e617475726560781b604482015260640161088e565b614e7d81614c2d565b6040516001600160a01b03821690309033907f8ee0f2bd29c0e6a975c3cc2e47cf2e01b5f23a9a8a02e0ed6a5a070269de3d2d90600090a450565b60606001600160a01b0384163b614f115760405162461bcd60e51b815260206004820152601860248201527f496c6c6567616c20436f6e747261637420416464726573730000000000000000604482015260640161088e565b600080856001600160a01b031685604051614f2c9190615e86565b600060405180830381855af49150503d8060008114614f67576040519150601f19603f3d011682016040523d82523d6000602084013e614f6c565b606091505b5091509150614f7c828286615061565b9695505050505050565b6000610840306001600160a01b031663f698da256040518163ffffffff1660e01b8152600401602060405180830381865afa158015614fc9573d6000803e3d6000fd5b505050506040513d601f19601f82011682018060405250810190614fed9190615dce565b8361509a565b60008082516041036150295760208301516040840151606085015160001a61501d878285856150c1565b9450945050505061505a565b825160400361505257602083015160408401516150478683836151ae565b93509350505061505a565b506000905060025b9250929050565b60608315615070575081610fd2565b8251156150805782518084602001fd5b8160405162461bcd60e51b815260040161088e9190615762565b60405161190160f01b60208201526022810183905260428101829052600090606201613a64565b6000807f7fffffffffffffffffffffffffffffff5d576e7357a4501ddfe92f46681b20a08311156150f857506000905060036151a5565b8460ff16601b1415801561511057508460ff16601c14155b1561512157506000905060046151a5565b6040805160008082526020820180845289905260ff881692820192909252606081018690526080810185905260019060a0016020604051602081039080840390855afa158015615175573d6000803e3d6000fd5b5050604051601f1901519150506001600160a01b03811661519e576000600192509250506151a5565b9150600090505b94509492505050565b6000806001600160ff1b038316816151cb60ff86901c601b615e98565b90506151d9878288856150c1565b935093505050935093915050565b5080546151f390615b28565b6000825580601f10615203575050565b601f0160209004906000526020600020908101906139df919061523b565b50805460008255906000526020600020908101906139df91905b5b80821115615250576000815560010161523c565b5090565b60006020828403121561526657600080fd5b81356001600160e01b031981168114610fd257600080fd5b60008083601f84011261529057600080fd5b5081356001600160401b038111156152a757600080fd5b60208301915083602082850101111561505a57600080fd5b80356001600160a01b0381168114610d8557600080fd5b6000806000806000606086880312156152ee57600080fd5b85356001600160401b038082111561530557600080fd5b61531189838a0161527e565b9097509550602088013591508082111561532a57600080fd5b506153378882890161527e565b909450925061534a9050604087016152bf565b90509295509295909350565b60006020828403121561536857600080fd5b610fd2826152bf565b60006060828403121561538357600080fd5b50919050565b60008083601f84011261539b57600080fd5b5081356001600160401b038111156153b257600080fd5b6020830191508360208260061b850101111561505a57600080fd5b6000806000604084860312156153e257600080fd5b83356001600160401b03808211156153f957600080fd5b61540587838801615371565b9450602086013591508082111561541b57600080fd5b5061542886828701615389565b9497909650939450505050565b60006020828403121561544757600080fd5b5035919050565b6020808252825182820181905260009190848201906040850190845b818110156154865783518352928401929184019160010161546a565b50909695505050505050565b634e487b7160e01b600052602160045260246000fd5b600281106139df576139df615492565b602081016154c5836154a8565b91905290565b600080602083850312156154de57600080fd5b82356001600160401b038111156154f457600080fd5b6155008582860161527e565b90969095509350505050565b6000806040838503121561551f57600080fd5b50508035926020909101359150565b6006811061553e5761553e615492565b9052565b600481106139df576139df615492565b61553e81615542565b60005b8381101561557657818101518382015260200161555e565b50506000910152565b6000815180845261559781602086016020860161555b565b601f01601f19169290920160200192915050565b602081528151602082015260208201516040820152600060408301516155d7606084018261ffff169052565b50606083015161ffff8116608084015250608083015163ffffffff811660a08401525060a083015161560c60c084018261552e565b5060c083015161561f60e0840182615552565b5060e083015161010061563481850183615552565b840151905061012061564884820183615552565b84015161014084810152905061101961016084018261557f565b634e487b7160e01b600052604160045260246000fd5b80151581146139df57600080fd5b8035610d8581615678565b6000806000606084860312156156a657600080fd5b6156af846152bf565b925060208401356001600160401b03808211156156cb57600080fd5b818601915086601f8301126156df57600080fd5b8135818111156156f1576156f1615662565b604051601f8201601f19908116603f0116810190838211818310171561571957615719615662565b8160405282815289602084870101111561573257600080fd5b82602086016020830137600060208483010152809650505050505061575960408501615686565b90509250925092565b602081526000610fd2602083018461557f565b60008060006040848603121561578a57600080fd5b83356001600160401b03808211156157a157600080fd5b6157ad87838801615371565b945060208601359150808211156157c357600080fd5b818601915086601f8301126157d757600080fd5b8135818111156157e657600080fd5b8760206060830285010111156157fb57600080fd5b6020830194508093505050509250925092565b60008083601f84011261582057600080fd5b5081356001600160401b0381111561583757600080fd5b6020830191508360208260051b850101111561505a57600080fd5b60008060006040848603121561586757600080fd5b83356001600160401b038082111561587e57600080fd5b61588a87838801615371565b945060208601359150808211156158a057600080fd5b506154288682870161580e565b600080604083850312156158c057600080fd5b823591506158d0602084016152bf565b90509250929050565b600281106139df57600080fd5b6000602082840312156158f857600080fd5b8135610fd2816158d9565b6020808252600c908201526b125b1b1959d85b0810d85b1b60a21b604082015260600190565b6020808252600c908201526b125b9d985b1a590810d85b1b60a21b604082015260600190565b81835281816020850137506000828201602090810191909152601f909101601f19169091010190565b60608152600061598c60608301878961594f565b828103602084015261599f81868861594f565b91505061ffff831660408301529695505050505050565b60208082526008908201526714995a9958dd195960c21b604082015260600190565b602080825260119082015270496c6c6567616c20557064617461626c6560781b604082015260600190565b60208082526010908201526f125b1b1959d85b0810dbdb9d1c9858dd60821b604082015260600190565b60208101601483106154c5576154c5615492565b600060208284031215615a5357600080fd5b8151610fd281615678565b634e487b7160e01b600052603260045260246000fd5b600481106139df57600080fd5b600060208284031215615a9357600080fd5b8135610fd281615a74565b602081016154c583615542565b634e487b7160e01b600052601160045260246000fd5b600060018201615ad357615ad3615aab565b5060010190565b74554e4956455253452e4c4956454c595f564552534560581b815260150190565b602080825260139082015272496c6c6567616c2041646d696e2053636f706560681b604082015260600190565b600181811c90821680615b3c57607f821691505b60208210810361538357634e487b7160e01b600052602260045260246000fd5b600060208284031215615b6e57600080fd5b813561ffff81168114610fd257600080fd5b600182810b9082900b03617fff198112617fff8213171561084057610840615aab565b60008235609e19833603018112615bb957600080fd5b9190910192915050565b6000808335601e19843603018112615bda57600080fd5b8301803591506001600160401b03821115615bf457600080fd5b60200191503681900382131561505a57600080fd5b601f821115615c4f57600081815260208120601f850160051c81016020861015615c305750805b601f850160051c820191505b81811015610a7457828155600101615c3c565b505050565b6001600160401b03831115615c6b57615c6b615662565b615c7f83615c798354615b28565b83615c09565b6000601f841160018114615cb35760008515615c9b5750838201355b600019600387901b1c1916600186901b1783556133e9565b600083815260209020601f19861690835b82811015615ce45786850135825560209485019460019092019101615cc4565b5086821015615d015760001960f88860031b161c19848701351681555b505060018560011b0183555050505050565b600060208284031215615d2557600080fd5b81358060020b8114610fd257600080fd5b600060208284031215615d4857600080fd5b815160148110610fd257600080fd5b600060208284031215615d6957600080fd5b8151610fd2816158d9565b600060208284031215615d8657600080fd5b81356001600160401b0381168114610fd257600080fd5b600060208284031215615daf57600080fd5b815160088110610fd257600080fd5b8183823760009101908152919050565b600060208284031215615de057600080fd5b5051919050565b6000808354615df581615b28565b60018281168015615e0d5760018114615e2257615e51565b60ff1984168752821515830287019450615e51565b8760005260208060002060005b85811015615e485781548a820152908401908201615e2f565b50505082870194505b50929695505050505050565b8181038181111561084057610840615aab565b634e487b7160e01b600052603160045260246000fd5b60008251615bb981846020870161555b565b8082018082111561084057610840615aab56fe360894a13ba1a3210667c828492db98dca3e2076cc3735a920a3ca505d382bbca26469706673582212208acaabd17d7ddc0ba38c645a2259eea9dd7fc97826cda044b8d2e054854d440b64736f6c63430008130033b53127684a568b3173ae13b9f8a6016e243e63b6e8ee1178d6a717850b5d6103",
  "deployedBytecode": "0x6080604052600436106102325760003560e01c8063756af45f1161012d578063b7659292116100b0578063df4a69c311610077578063df4a69c31461075d578063f0b15def1461077d578063f698da25146107b1578063f708ceb0146107c6578063f94a0adb146107e6578063fcc40178146107fb57005b8063b7659292146106bd578063ba313afc146106dd578063c8416506146106fd578063d745ded51461071d578063d9dc1f191461073d57005b80639b97b534116100f45780639b97b53414610617578063a0a8e4601461064b578063a304e35314610660578063b4a0bdf31461067f578063b4ac9e3e1461069d57005b8063756af45f1461057b57806375d0c0dc1461059b5780637678922e146105b05780638b2b1280146105d7578063994ae65c146105f757005b80634888f482116101b55780635ed3fd9e1161017c5780635ed3fd9e146104ad57806364d4c819146104cd57806365301e51146105015780636ea5d24d146105215780637147855d1461054e57005b80634888f482146103ef5780634bf0414d1461041757806351f1d2ff1461044b57806352d1902d1461046b57806358dbc45d1461048057005b806334109de2116101f957806334109de21461032657806338d38c971461035a5780633962758514610382578063476f6362146103a2578063484cdfcb146103cf57005b806301ffc9a71461023b578063077f224a146102705780630e32cb86146102905780631b452f4b146102b0578063301c1280146102f257005b3661023957005b005b34801561024757600080fd5b5061025b610256366004615254565b61081b565b60405190151581526020015b60405180910390f35b34801561027c57600080fd5b5061023961028b3660046152d6565b610846565b34801561029c57600080fd5b5061025b6102ab366004615356565b610a7c565b3480156102bc57600080fd5b506102e47f7bfb2abd6084c8ce20d7ff92c1620e7e7267603f0eac446b9176959d243306bc81565b604051908152602001610267565b3480156102fe57600080fd5b506102e47f541cf898e7c3085cbc6b7402ba06e7237285bc4bd5baa510e708e35537a71ffd81565b34801561033257600080fd5b506102e47f7aabe2571874f2a330ea11c8972d9cc3792d973efc6b36e3e29005861a34418881565b34801561036657600080fd5b5061036f610d8a565b60405161ffff9091168152602001610267565b34801561038e57600080fd5b5061025b61039d3660046153cd565b610d9e565b3480156103ae57600080fd5b506103c26103bd366004615435565b610fd9565b604051610267919061544e565b3480156103db57600080fd5b5061025b6103ea3660046153cd565b611021565b3480156103fb57600080fd5b50600254600160a81b900460ff165b60405161026791906154b8565b34801561042357600080fd5b506102e47f9027b951cbdf8eff67da583391d218a57a89ec1ebfcb1c66da188e8531804d5581565b34801561045757600080fd5b5061025b6104663660046154cb565b61125f565b34801561047757600080fd5b506102e46112a1565b34801561048c57600080fd5b506104956112fe565b6040516001600160a01b039091168152602001610267565b3480156104b957600080fd5b5061025b6104c836600461550c565b611308565b3480156104d957600080fd5b506102e47f8b73c3c69bb8fe3d512ecc4cf759cc79239f7b179b0ffacaa9a75d522b39400f81565b34801561050d57600080fd5b5061025b61051c3660046153cd565b6113a2565b34801561052d57600080fd5b5061054161053c366004615435565b611607565b60405161026791906155ab565b34801561055a57600080fd5b5061056e610569366004615691565b611862565b6040516102679190615762565b34801561058757600080fd5b506102e4610596366004615356565b6119b9565b3480156105a757600080fd5b5061056e611a7e565b3480156105bc57600080fd5b5073__$ee86c02d9d6bfecb685b93ba48bb72f928$__610495565b3480156105e357600080fd5b5061025b6105f2366004615435565b611b10565b34801561060357600080fd5b5061025b61061236600461550c565b611b41565b34801561062357600080fd5b506102e47fdee69d384475c3656c17c592e94a2bbfd2a1998cce0c85f535569415a15863b881565b34801561065757600080fd5b5061056e611b7a565b34801561066c57600080fd5b50600254600160a01b900460ff1661040a565b34801561068b57600080fd5b506002546001600160a01b0316610495565b3480156106a957600080fd5b5061025b6106b83660046153cd565b611b89565b3480156106c957600080fd5b5061025b6106d8366004615775565b611d1c565b3480156106e957600080fd5b5061025b6106f836600461550c565b61213d565b34801561070957600080fd5b5061025b610718366004615852565b6121a2565b34801561072957600080fd5b5061025b610738366004615852565b6124c4565b34801561074957600080fd5b5061025b610758366004615356565b612cfa565b34801561076957600080fd5b5061025b6107783660046158ad565b612eb0565b34801561078957600080fd5b506102e47ffc434588684348dd50856b075c47bed14245c1030aa04c32955af5549981462781565b3480156107bd57600080fd5b506102e4612ffa565b3480156107d257600080fd5b5061025b6107e13660046158e6565b613004565b3480156107f257600080fd5b506104956131ae565b34801561080757600080fd5b5061025b6108163660046158e6565b6131b8565b60006001600160e01b031982166359213acd60e01b1480610840575061084082613343565b92915050565b6001600160a01b037f00000000000000000000000000000000000000000000000000000000000000001630036108975760405162461bcd60e51b815260040161088e90615903565b60405180910390fd5b7f00000000000000000000000000000000000000000000000000000000000000006001600160a01b03166108c9613393565b6001600160a01b0316146108ef5760405162461bcd60e51b815260040161088e90615929565b336108f86133b4565b6001600160a01b03161461093e5760405162461bcd60e51b815260206004820152600d60248201526c1058d8d95cdcc811195b9a5959609a1b604482015260640161088e565b604e5462010000900460ff16158080156109605750604e54600161ffff909116105b8061097b5750303b15801561097b5750604e5461ffff166001145b6109c75760405162461bcd60e51b815260206004820152601c60248201527f436f6e747261637420416c726561647920496e697469616c697a656400000000604482015260640161088e565b604e805461ffff1916600117905580156109ed57604e805462ff00001916620100001790555b6109fa86868686866133dc565b610a02613393565b6001600160a01b031630336001600160a01b03167f247ab7b17ee489fa140c6666edc3822eefed2727610cd6e37192462b87244c6089898989610a48604e5461ffff1690565b604051610a59959493929190615978565b60405180910390a48015610a7457604e805462ff0000191690555b505050505050565b60006001600160a01b037f0000000000000000000000000000000000000000000000000000000000000000163003610ac65760405162461bcd60e51b815260040161088e90615903565b7f00000000000000000000000000000000000000000000000000000000000000006001600160a01b0316610af8613393565b6001600160a01b031614610b1e5760405162461bcd60e51b815260040161088e90615929565b6000600254600160a01b900460ff166001811115610b3e57610b3e615492565b14610b5b5760405162461bcd60e51b815260040161088e906159b6565b6001600254600160a81b900460ff166001811115610b7b57610b7b615492565b14610b985760405162461bcd60e51b815260040161088e906159d8565b6001600160a01b03821615801590610bb957506001600160a01b0382163b15155b610bd55760405162461bcd60e51b815260040161088e90615a03565b6002546001600160a01b031615610c34576000610bf863071965c360e11b6133f0565b90506000816013811115610c0e57610c0e615492565b14610c2e5780604051637f0911d160e01b815260040161088e9190615a2d565b50610c83565b33610c3d6133b4565b6001600160a01b031614610c835760405162461bcd60e51b815260206004820152600d60248201526c1058d8d95cdcc811195b9a5959609a1b604482015260640161088e565b6040516301ffc9a760e01b81526331501c3960e01b60048201526001600160a01b038316906301ffc9a790602401602060405180830381865afa158015610cce573d6000803e3d6000fd5b505050506040513d601f19601f82011682018060405250810190610cf29190615a41565b610d2c5760405162461bcd60e51b815260206004820152600b60248201526a125b1b1959d85b081050d360aa1b604482015260640161088e565b600280546001600160a01b0384166001600160a01b031990911681179091556040805191825251309133917f410bf468eebeeed60acaedb904afb2db7c0bb0131f7d14c3714d81b14fe8ed3c9181900360200190a35060015b919050565b6000610d99604e5461ffff1690565b905090565b6000808080610db487633962758560e01b61347b565b92509250925060005b85811015610fc9576000610ded888884818110610ddc57610ddc615a5e565b6044926040909102013590506136dd565b90506002600182015462010000900460ff166003811115610e1057610e10615492565b1015610e2e5760405162461bcd60e51b815260040161088e906159d8565b8054600090610e3e9086886137bf565b90506000816007811115610e5457610e54615492565b14610e6257610e628161384b565b6001898985818110610e7657610e76615a5e565b9050604002016020016020810190610e8e9190615a81565b6003811115610e9f57610e9f615492565b11610edf5760405162461bcd60e51b815260206004820152601060248201526f496c6c6567616c20416374697669747960801b604482015260640161088e565b888884818110610ef157610ef1615a5e565b9050604002016020016020810190610f099190615a81565b60018301805461ff001916610100836003811115610f2957610f29615492565b0217905550888884818110610f4057610f40615a5e565b90506040020160000135846001600160a01b03167f9c8ca9a21f9203a9d60c4c5991765e453f406f301ae294243c2acf37fe26c8cd8b8b87818110610f8757610f87615a5e565b9050604002016020016020810190610f9f9190615a81565b604051610fac9190615a9e565b60405180910390a350508080610fc190615ac1565b915050610dbd565b50600193505050505b9392505050565b6060600080610fe96044856139e2565b915091508061100d5760408051600080825260208201909252905b50949350505050565b61101982600501613a44565b949350505050565b60008080806110378763484cdfcb60e01b61347b565b92509250925060005b85811015610fc957600061105f888884818110610ddc57610ddc615a5e565b9050600180820154610100900460ff16600381111561108057611080615492565b116110be5760405162461bcd60e51b815260206004820152600e60248201526d111bdb585a5b8811195b195d195960921b604482015260640161088e565b80546000906110ce9086886137bf565b905060008160078111156110e4576110e4615492565b146110f2576110f28161384b565b600089898581811061110657611106615a5e565b905060400201602001602081019061111e9190615a81565b600381111561112f5761112f615492565b036111735760405162461bcd60e51b8152602060048201526014602482015273496c6c6567616c20416c7465726162696c69747960601b604482015260640161088e565b88888481811061118557611185615a5e565b905060400201602001602081019061119d9190615a81565b60018301805462ff00001916620100008360038111156111bf576111bf615492565b02179055508888848181106111d6576111d6615a5e565b90506040020160000135846001600160a01b03167f8fc692f0aafe304e5338e6eda3c3f27366f95833d0f4f54cfd48e9416085cc548b8b8781811061121d5761121d615a5e565b90506040020160200160208101906112359190615a81565b6040516112429190615a9e565b60405180910390a35050808061125790615ac1565b915050611040565b60006004604560006112718686613a4f565b815260208101919091526040016000206001015460ff16600581111561129957611299615492565b149392505050565b6000306001600160a01b037f000000000000000000000000000000000000000000000000000000000000000016146112eb5760405162461bcd60e51b815260040161088e90615903565b50600080516020615eac83398151915290565b6000610d99613393565b60008080611317604485613a82565b915091508061132b57600092505050610840565b60008061134684600301546044613a9a90919063ffffffff16565b915091508061135c576000945050505050610840565b60008061137784600201546044613ab390919063ffffffff16565b915091508061138f5760009650505050505050610840565b5060020154871494505050505092915050565b60008080806113b8876365301e5160e01b61347b565b92509250925060005b85811015610fc95760006113f18888848181106113e0576113e0615a5e565b905060400201600001358587613acc565b9050600088888481811061140757611407615a5e565b9050604002016020013514611547576001604460008a8a8681811061142e5761142e615a5e565b90506040020160200135815260200190815260200160002060010160009054906101000a900460ff16600381111561146857611468615492565b116114af5760405162461bcd60e51b8152602060048201526017602482015276496c6c6567616c2041646d696e204167656e745479706560481b604482015260640161088e565b60006114d58989858181106114c6576114c6615a5e565b90506040020160200135613bac565b90506040516020016114e690615ada565b60405160208183030381529060405280519060200120811461151a5760405162461bcd60e51b815260040161088e90615afb565b88888481811061152c5761152c615a5e565b90506040020160200135826000016000018190555050611586565b6044600101600060405160200161155d90615ada565b60408051601f198184030181529181528151602092830120835290820192909252016000205481555b87878381811061159857611598615a5e565b905060400201602001358888848181106115b4576115b4615a5e565b90506040020160000135846001600160a01b03167f16f129e49e4e12e9aa01cfb007139afc1754e2f9c2630d95a60e4bbb533e0d3160405160405180910390a450806115ff81615ac1565b9150506113c1565b61165d604080516101408101825260008082526020820181905291810182905260608101829052608081018290529060a08201908152602001600081526020016000815260200160008152602001606081525090565b60008061166b6044856139e2565b91509150806116d757604080516101408101825260008082526020820181905291810182905260608101829052608081018290529060a0820190815260200160008152602001600081526020016000815260408051602081810190925260008152910152949350505050565b60408051610140810182528354815260028401546020820152600384015461ffff16918101919091526060810161171060058501613c22565b61ffff168152600184015463ffffffff6301000000820416602083015260409091019060ff16600581111561174757611747615492565b8152835460009081526044602090815260409091206001015491019060ff16600381111561177757611777615492565b81526001840154602090910190610100900460ff16600381111561179d5761179d615492565b8152600184015460209091019062010000900460ff1660038111156117c4576117c4615492565b81526020018360040180546117d890615b28565b80601f016020809104026020016040519081016040528092919081815260200182805461180490615b28565b80156118515780601f1061182657610100808354040283529160200191611851565b820191906000526020600020905b81548152906001019060200180831161183457829003601f168201915b505050505081525092505050919050565b60606001600160a01b037f00000000000000000000000000000000000000000000000000000000000000001630036118ac5760405162461bcd60e51b815260040161088e90615903565b7f00000000000000000000000000000000000000000000000000000000000000006001600160a01b03166118de613393565b6001600160a01b0316146119045760405162461bcd60e51b815260040161088e90615929565b6000600254600160a01b900460ff16600181111561192457611924615492565b146119415760405162461bcd60e51b815260040161088e906159b6565b6001600254600160a81b900460ff16600181111561196157611961615492565b1461197e5760405162461bcd60e51b815260040161088e906159d8565b6001600160a01b0384163b6119a55760405162461bcd60e51b815260040161088e90615a03565b6119ae84613c2c565b611019848484613cca565b600080600254600160a01b900460ff1660018111156119da576119da615492565b146119f75760405162461bcd60e51b815260040161088e906159b6565b6000611a0963756af45f60e01b6133f0565b90506000816013811115611a1f57611a1f615492565b14611a3f5780604051637f0911d160e01b815260040161088e9190615a2d565b60405147906001600160a01b038516904780156108fc02916000818181858888f19350505050158015611a76573d6000803e3d6000fd5b509392505050565b606060008054611a8d90615b28565b80601f0160208091040260200160405190810160405280929190818152602001828054611ab990615b28565b8015611b065780601f10611adb57610100808354040283529160200191611b06565b820191906000526020600020905b815481529060010190602001808311611ae957829003601f168201915b5050505050905090565b6000600460008381526045602052604090206001015460ff166005811115611b3a57611b3a615492565b1492915050565b60008080611b506044866139e2565b9150915080611b6457600092505050610840565b611b716005830185613e82565b95945050505050565b606060018054611a8d90615b28565b6000808080611b9f87635a564f1f60e11b61347b565b92509250925060005b85811015610fc9576000611bc78888848181106113e0576113e0615a5e565b9050611bd581600501613c22565b888884818110611be757611be7615a5e565b9050604002016020016020810190611bff9190615b5c565b61ffff1611611c405760405162461bcd60e51b815260206004820152600d60248201526c125b1b1959d85b08131a5b5a5d609a1b604482015260640161088e565b878783818110611c5257611c52615a5e565b9050604002016020016020810190611c6a9190615b5c565b60038201805461ffff191661ffff92909216919091179055878783818110611c9457611c94615a5e565b90506040020160000135836001600160a01b03167f47788e6aab9fe304d9b35f13c2739a32c870831893093dd9c869bcc95535874a8a8a86818110611cdb57611cdb615a5e565b9050604002016020016020810190611cf39190615b5c565b60405161ffff909116815260200160405180910390a35080611d1481615ac1565b915050611ba8565b6000808080611d3287635bb2c94960e11b61347b565b92509250925060005b85811015610fc9576000611d6b888884818110611d5a57611d5a615a5e565b905060600201600001358587613acc565b9050611d9e888884818110611d8257611d82615a5e565b9050606002016040013582600501613e8290919063ffffffff16565b611de35760405162461bcd60e51b8152602060048201526016602482015275111bdb585a5b881499585b1b48139bdd08119bdd5b9960521b604482015260640161088e565b6000611e0b898985818110611dfa57611dfa615a5e565b905060600201602001358688613acc565b90506000611e3e8a8a86818110611e2457611e24615a5e565b905060600201604001356044613e9a90919063ffffffff16565b90506002600182015462010000900460ff166003811115611e6157611e61615492565b1015611eaf5760405162461bcd60e51b815260206004820152601760248201527f496c6c6567616c205265616c6d20557064617461626c65000000000000000000604482015260640161088e565b60018101546301000000900463ffffffff1615611f015760405162461bcd60e51b815260206004820152601060248201526f125b1b195859db08149959995c9c995960821b604482015260640161088e565b8054600090611f0f90613bac565b905030633bc6460a828d8d89818110611f2a57611f2a615a5e565b905060600201602001356040518363ffffffff1660e01b8152600401611f5a929190918252602082015260400190565b602060405180830381865afa158015611f77573d6000803e3d6000fd5b505050506040513d601f19601f82011682018060405250810190611f9b9190615a41565b611fb75760405162461bcd60e51b815260040161088e90615afb565b611fc383600501613c22565b600384015461ffff16116120085760405162461bcd60e51b815260206004820152600c60248201526b496c6c6567616c204d6f766560a01b604482015260640161088e565b6120398b8b8781811061201d5761201d615a5e565b9050606002016040013585600501613f7590919063ffffffff16565b5061206b8b8b8781811061204f5761204f615a5e565b9050606002016040013584600501613f8190919063ffffffff16565b508a8a8681811061207e5761207e615a5e565b9050606002016020013582600201819055508a8a868181106120a2576120a2615a5e565b905060600201604001358b8b878181106120be576120be615a5e565b90506060020160000135876001600160a01b03167f3a565bbd815927a4dd4e246af37b5db7cbf454dfd8c654b6b66a8913ad7c12f58e8e8a81811061210557612105615a5e565b9050606002016020013560405161211e91815260200190565b60405180910390a450505050808061213590615ac1565b915050611d3b565b6000808061214c604485613a9a565b915091508061216057600092505050610840565b60008061217b84600201546044613ab390919063ffffffff16565b9150915080612191576000945050505050610840565b506002015485149250505092915050565b60008080806121b887636420b28360e11b61347b565b92509250925060005b85811015610fc95760006121f78888848181106121e0576121e0615a5e565b9050602002013560446136dd90919063ffffffff16565b805490915060009061220a9086886137bf565b9050600081600781111561222057612220615492565b1461222e5761222e8161384b565b61223a82600501613c22565b156122785760405162461bcd60e51b815260206004820152600e60248201526d496c6c6567616c2052656d6f766560901b604482015260640161088e565b60018201546301000000900463ffffffff166000036123ff5760006122ab83600201546044613f8d90919063ffffffff16565b90506002600182015462010000900460ff1660038111156122ce576122ce615492565b101561231c5760405162461bcd60e51b815260206004820152601a60248201527f496c6c6567616c20556e69766572736520557064617461626c65000000000000604482015260640161088e565b61234a8a8a8681811061233157612331615a5e565b9050602002013582600401613f7590919063ffffffff16565b50600080845560018401805466ffffffffffffff191690556002840181905560038401805461ffff191690556123849060048501906151e7565b60058301600081816123968282615221565b505050508989858181106123ac576123ac615a5e565b90506020020135856001600160a01b03167fc808e159790c3e2b0ebadadbe84d9190e0f1774ae29965d08f4198ccd1d3635760006040516123f1911515815260200190565b60405180910390a3506124af565b6002600183015462010000900460ff16600381111561242057612420615492565b101561243e5760405162461bcd60e51b815260040161088e906159d8565b60018201805461ff00191661010017905588888481811061246157612461615a5e565b90506020020135846001600160a01b03167fc808e159790c3e2b0ebadadbe84d9190e0f1774ae29965d08f4198ccd1d3635760016040516124a6911515815260200190565b60405180910390a35b505080806124bc90615ac1565b9150506121c1565b60008080806124da8763d745ded560e01b61347b565b9194509250905060006124ee604484614068565b60038101549091506000906125109088830b90600160d01b900460ff16615b80565b60010b12156125595760405162461bcd60e51b8152602060048201526015602482015274125b1b1959d85b08149959da5cdd195c931a5b5a5d605a1b604482015260640161088e565b60038101805460ff600160d01b80830482168a90039091160260ff60d01b199091161790556040516000906125e2906125c6906020017f545950452e4c4956454c595f56455253452e4c4956454c595f53434f50455f4d81526420a9aa22a960d91b602082015260250190565b604051602081830303815290604052805190602001208561413e565b905060005b87811015612cea57600061262b8a8a8481811061260657612606615a5e565b90506020028101906126189190615ba3565b612626906080810190615bc3565b613a4f565b90506000808281526045602052604090206001015460ff16600581111561265457612654615492565b146126915760405162461bcd60e51b815260206004820152600d60248201526c105b1c9958591e48115e1a5cdd609a1b604482015260640161088e565b60018a8a848181106126a5576126a5615a5e565b90506020028101906126b79190615ba3565b6126c8906060810190604001615a81565b60038111156126d9576126d9615492565b11801561272b575060008a8a848181106126f5576126f5615a5e565b90506020028101906127079190615ba3565b612718906080810190606001615a81565b600381111561272957612729615492565b115b6127775760405162461bcd60e51b815260206004820152601d60248201527f496c6c6567616c2041637469766974792f416c7465726162696c697479000000604482015260640161088e565b60006127b160405160200161278b90615ada565b604051602081830303815290604052805190602001206044613f8d90919063ffffffff16565b90506040516020016127c290615ada565b60405160208183030381529060405280519060200120841461281f5760405162461bcd60e51b8152602060048201526016602482015275496c6c6567616c20556e6976657273652053636f706560501b604482015260640161088e565b6002600182015462010000900460ff16600381111561284057612840615492565b101561288e5760405162461bcd60e51b815260206004820152601a60248201527f496c6c6567616c20556e69766572736520557064617461626c65000000000000604482015260640161088e565b61289a81600401613c22565b600282015461ffff16116128e35760405162461bcd60e51b815260206004820152601060248201526f24b63632b3b0b6102932b3b4b9ba32b960811b604482015260640161088e565b80546000906128f390898b6137bf565b9050600081600781111561290957612909615492565b14612917576129178161384b565b6129246004830184613f81565b506000612932604485614179565b60018101805460ff1916600417905590508c8c8681811061295557612955615a5e565b90506020028101906129679190615ba3565b612978906060810190604001615a81565b60018201805461ff00191661010083600381111561299857612998615492565b02179055508c8c868181106129af576129af615a5e565b90506020028101906129c19190615ba3565b6129d2906080810190606001615a81565b60018201805462ff00001916620100008360038111156129f4576129f4615492565b0217905550604051602001612a0890615ada565b60408051601f19818403018152919052805160209091012060028201558c8c86818110612a3757612a37615a5e565b9050602002810190612a499190615ba3565b612a57906080810190615bc3565b6004830191612a67919083615c54565b5060008d8d87818110612a7c57612a7c615a5e565b9050602002810190612a8e9190615ba3565b612a9f906040810190602001615d13565b60020b1215612abd576003870154600160681b900461ffff16612af2565b8c8c86818110612acf57612acf615a5e565b9050602002810190612ae19190615ba3565b612af2906040810190602001615d13565b60038201805461ffff191661ffff9290921691909117905560008d8d87818110612b1e57612b1e615a5e565b9050602002810190612b309190615ba3565b3514612c71576001604460008f8f89818110612b4e57612b4e615a5e565b9050602002810190612b609190615ba3565b35815260208101919091526040016000206001015460ff166003811115612b8957612b89615492565b11612bd05760405162461bcd60e51b8152602060048201526017602482015276496c6c6567616c2041646d696e204167656e745479706560481b604482015260640161088e565b6000612bff8e8e88818110612be757612be7615a5e565b9050602002810190612bf99190615ba3565b35613bac565b9050604051602001612c1090615ada565b604051602081830303815290604052805190602001208114612c445760405162461bcd60e51b815260040161088e90615afb565b8d8d87818110612c5657612c56615a5e565b9050602002810190612c689190615ba3565b35825550612c76565b825481555b8c8c86818110612c8857612c88615a5e565b9050602002810190612c9a9190615ba3565b60405190359085906001600160a01b038b16907fc0cbc4d7c6fc13a8e811669d7ca22a9a736fa7dd6c5a775cd5379593889f969690600090a4505050508080612ce290615ac1565b9150506125e7565b5060019998505050505050505050565b60006001600160a01b037f0000000000000000000000000000000000000000000000000000000000000000163003612d445760405162461bcd60e51b815260040161088e90615903565b7f00000000000000000000000000000000000000000000000000000000000000006001600160a01b0316612d76613393565b6001600160a01b031614612d9c5760405162461bcd60e51b815260040161088e90615929565b6000600254600160a01b900460ff166001811115612dbc57612dbc615492565b14612dd95760405162461bcd60e51b815260040161088e906159b6565b6001600254600160a81b900460ff166001811115612df957612df9615492565b14612e165760405162461bcd60e51b815260040161088e906159d8565b6000612e2863d9dc1f1960e01b6133f0565b90506000816013811115612e3e57612e3e615492565b14612e5e5780604051637f0911d160e01b815260040161088e9190615a2d565b6001600160a01b038316612e9e5760405162461bcd60e51b8152602060048201526007602482015266125b9d985b1a5960ca1b604482015260640161088e565b612ea7836141e4565b50600192915050565b60008080612ebf6044866139e2565b9150915080612ed357600092505050610840565b815460008181526044602052604081206001015460ff1690612ef48761425b565b90506002826003811115612f0a57612f0a615492565b03612f8d57600080612f1d60448661429a565b9150915080612f36576000975050505050505050610840565b600080612f51846003015460446142e590919063ffffffff16565b9150915080612f6c5760009950505050505050505050610840565b50600093845260050160205250506040902054909114935061084092505050565b6003826003811115612fa157612fa1615492565b03612fec57600080612fb46044866142e5565b9150915080612fcd576000975050505050505050610840565b5060009182526005016020526040902054151594506108409350505050565b506000979650505050505050565b6000610d996142fc565b60006001600160a01b037f000000000000000000000000000000000000000000000000000000000000000016300361304e5760405162461bcd60e51b815260040161088e90615903565b7f00000000000000000000000000000000000000000000000000000000000000006001600160a01b0316613080613393565b6001600160a01b0316146130a65760405162461bcd60e51b815260040161088e90615929565b60006130b5604e5461ffff1690565b61ffff16116130f15760405162461bcd60e51b81526020600482015260086024820152671393d5081253925560c21b604482015260640161088e565b6000613103630f708ceb60e41b6133f0565b9050600081601381111561311957613119615492565b146131395780604051637f0911d160e01b815260040161088e9190615a2d565b6002805484919060ff60a01b1916600160a01b83600181111561315e5761315e615492565b021790555030336001600160a01b03167fc08ec585c25f1907baaab6f278c5994531a2e34c59935b3fcfe813067a3b48788560405161319d91906154b8565b60405180910390a350600192915050565b6000610d996133b4565b60006001600160a01b037f00000000000000000000000000000000000000000000000000000000000000001630036132025760405162461bcd60e51b815260040161088e90615903565b7f00000000000000000000000000000000000000000000000000000000000000006001600160a01b0316613234613393565b6001600160a01b03161461325a5760405162461bcd60e51b815260040161088e90615929565b6000600254600160a01b900460ff16600181111561327a5761327a615492565b146132975760405162461bcd60e51b815260040161088e906159b6565b60006132a9631f98802f60e31b6133f0565b905060008160138111156132bf576132bf615492565b146132df5780604051637f0911d160e01b815260040161088e9190615a2d565b6002805484919060ff60a81b1916600160a81b83600181111561330457613304615492565b021790555030336001600160a01b03167ff5912c5e436152157ed2b4a84bc313b4b1fe09a15b941f195d23c99a1b8c45ad8560405161319d91906154b8565b60006001600160e01b03198216633d817cff60e01b148061337457506001600160e01b031982166352d1902d60e01b145b8061084057506301ffc9a760e01b6001600160e01b0319831614610840565b6000600080516020615eac8339815191525b546001600160a01b0316919050565b60007fb53127684a568b3173ae13b9f8a6016e243e63b6e8ee1178d6a717850b5d61036133a5565b6133e985858585856143b0565b5050505050565b6002546040805163172cb29d60e11b81523060048201526001600160e01b03198416602482015233604482015290516000926001600160a01b031691632e59653a916064808301926020929190829003018187875af1158015613457573d6000803e3d6000fd5b505050506040513d601f19601f820116820180604052508101906108409190615d36565b6000808080306001600160a01b031663a304e3536040518163ffffffff1660e01b8152600401602060405180830381865afa1580156134be573d6000803e3d6000fd5b505050506040513d601f19601f820116820180604052508101906134e29190615d57565b60018111156134f3576134f3615492565b146135105760405162461bcd60e51b815260040161088e906159b6565b6000806135206040880188615bc3565b905011156135b457426135396040880160208901615d74565b6001600160401b0316116135835760405162461bcd60e51b815260206004820152601160248201527045787069726564205369676e617475726560781b604482015260640161088e565b6135ad867fdee69d384475c3656c17c592e94a2bbfd2a1998cce0c85f535569415a15863b8614579565b90506135b7565b50335b6001600160e01b031985166000908152604a60205260408120546001600160a01b0316906135e58288614631565b905060006135f28461425b565b604051634902a91960e11b8152600481018490526024810182905290915060009030906392055232906044016020604051808303816000875af115801561363d573d6000803e3d6000fd5b505050506040513d601f19601f820116820180604052508101906136619190615d36565b9050600081601381111561367757613677615492565b146136cb57601281601381111561369057613690615492565b1480156136ad5750633962758560e01b6001600160e01b03198a16145b156136c2575090955093509091506136d69050565b6136cb81614668565b509095509350909150505b9250925092565b600081815260018301602052604081206004600182015460ff16600581111561370857613708615492565b0361372557604080518481526001860160208201522091506137b8565b6000600182015460ff16600581111561374057613740615492565b0361377d5760405162461bcd60e51b815260206004820152600d60248201526c11125108139bdd08119bdd5b99609a1b604482015260640161088e565b60405162461bcd60e51b815260206004820152601060248201526f125b1b1959d85b081112510814db1bdd60821b604482015260640161088e565b5092915050565b60405163ca37fa8560e01b81526044600482018190526024820185905281018390526064810182905260009073__$ee86c02d9d6bfecb685b93ba48bb72f928$__9063ca37fa8590608401602060405180830381865af4158015613827573d6000803e3d6000fd5b505050506040513d601f19601f820116820180604052508101906110199190615d9d565b600181600781111561385f5761385f615492565b0361387d576040516334267bfb60e11b815260040160405180910390fd5b600281600781111561389157613891615492565b036138af576040516343f871e760e11b815260040160405180910390fd5b60038160078111156138c3576138c3615492565b036138e157604051639afb7c5f60e01b815260040160405180910390fd5b60048160078111156138f5576138f5615492565b03613913576040516332314d6b60e11b815260040160405180910390fd5b600581600781111561392757613927615492565b0361394557604051633123155560e01b815260040160405180910390fd5b600681600781111561395957613959615492565b0361397757604051631b210af760e21b815260040160405180910390fd5b600781600781111561398b5761398b615492565b036139a9576040516339f73ba360e11b815260040160405180910390fd5b60405162461bcd60e51b815260206004820152600b60248201526a2ab735b737bbb71022a92960a91b604482015260640161088e565b50565b60008181526001830160205260408120819060045b600182015460ff166005811115613a1057613a10615492565b03613a3257604080518581526001878101602083015291902093509150613a3c565b6000199250600091505b509250929050565b606061084082614a1d565b60008282604051602001613a64929190615dbe565b60405160208183030381529060405280519060200120905092915050565b600081815260018084016020526040822082916139f7565b60008181526001830160205260408120819060026139f7565b60008181526001830160205260408120819060036139f7565b600080613ada6044866136dd565b9050600180820154610100900460ff166003811115613afb57613afb615492565b11613b395760405162461bcd60e51b815260206004820152600e60248201526d111bdb585a5b8811195b195d195960921b604482015260640161088e565b6002600182015462010000900460ff166003811115613b5a57613b5a615492565b1015613b785760405162461bcd60e51b815260040161088e906159d8565b8054600090613b889086866137bf565b90506000816007811115613b9e57613b9e615492565b14611004576110048161384b565b60008181526044602052604081206001015460ff166002816003811115613bd557613bd5615492565b03613bf3576000613be7604485614a79565b60020154949350505050565b6003816003811115613c0757613c07615492565b03613c19576000613be7604485614b56565b50600092915050565b6000610840825490565b613c34613393565b6001600160a01b0316816001600160a01b031603613c7e5760405162461bcd60e51b8152602060048201526007602482015266125b1b1959d85b60ca1b604482015260640161088e565b6000613c90637147855d60e01b6133f0565b90506000816013811115613ca657613ca6615492565b14613cc65780604051637f0911d160e01b815260040161088e9190615a2d565b5050565b60607f4910fdfa16fed3260ed0e7147f7cc6da11a60208b5b9406d12a635614ffd91435460ff1615613d1457613cff84614c2d565b50604080516000815260208101909152610fd2565b600080516020615eac83398151915260001b846001600160a01b03166352d1902d6040518163ffffffff1660e01b8152600401602060405180830381865afa158015613d64573d6000803e3d6000fd5b505050506040513d601f19601f82011682018060405250810190613d889190615dce565b14613dc45760405162461bcd60e51b815260206004820152600c60248201526b496c6c6567616c205555505360a01b604482015260640161088e565b6040516301ffc9a760e01b8152633d817cff60e01b60048201526001600160a01b038516906301ffc9a790602401602060405180830381865afa158015613e0f573d6000803e3d6000fd5b505050506040513d601f19601f82011682018060405250810190613e339190615a41565b613e705760405162461bcd60e51b815260206004820152600e60248201526d496c6c6567616c204950726f787960901b604482015260640161088e565b613e7b848484614c5c565b9050610fd2565b60008181526001830160205260408120541515610fd2565b600081815260018301602052604081206003600182015460ff166005811115613ec557613ec5615492565b03613ee257604080518481526001860160208201522091506137b8565b6000600182015460ff166005811115613efd57613efd615492565b03613f3a5760405162461bcd60e51b815260206004820152600d60248201526c14925108139bdd08119bdd5b99609a1b604482015260640161088e565b60405162461bcd60e51b815260206004820152601060248201526f125b1b195859db081492510814db1bdd60821b604482015260640161088e565b6000610fd28383614cbd565b6000610fd28383614db0565b600081815260018301602052604081206005600182015460ff166005811115613fb857613fb8615492565b03613fd557604080518481526001860160208201522091506137b8565b6000600182015460ff166005811115613ff057613ff0615492565b0361402d5760405162461bcd60e51b815260206004820152600d60248201526c11d25108139bdd08119bdd5b99609a1b604482015260640161088e565b60405162461bcd60e51b815260206004820152601060248201526f125b1b195859db0811d2510814db1bdd60821b604482015260640161088e565b600081815260208390526040812060018082015460ff16600381111561409057614090615492565b036140ab5760408051848152602081018690522091506137b8565b6000600182015460ff1660038111156140c6576140c6615492565b036141035760405162461bcd60e51b815260206004820152600d60248201526c13525108139bdd08119bdd5b99609a1b604482015260640161088e565b60405162461bcd60e51b815260206004820152601060248201526f125b1b1959d85b081352510814db1bdd60821b604482015260640161088e565b60008061414c604485614b56565b600084815260058201602052604081205491925061416b604483614a79565b600201549695505050505050565b6000818152600183016020526040812081600182015460ff1660058111156141a3576141a3615492565b14806141c757506004600182015460ff1660058111156141c5576141c5615492565b145b1561377d57604080518481526001860160208201522091506137b8565b7fb53127684a568b3173ae13b9f8a6016e243e63b6e8ee1178d6a717850b5d610380546001600160a01b0383166001600160a01b031990911681179091556040805191825251309133917f63fdbed5f2909ec44e3becc51e9d29654ce1447747914e8a6ebc019e7f640b8b9181900360200190a350565b6040516bffffffffffffffffffffffff19606083901b166020820152600090603401604051602081830303815290604052805190602001209050919050565b6000818152602083905260408120819060025b600182015460ff1660038111156142c6576142c6615492565b03613a3257604080518581526020810187905220925060019150613a3c565b6000818152602083905260408120819060036142ad565b60007f8b73c3c69bb8fe3d512ecc4cf759cc79239f7b179b0ffacaa9a75d522b39400f60006040516020016143319190615de7565b6040516020818303038152906040528051906020012060016040516020016143599190615de7565b60408051601f1981840301815282825280516020918201209083019490945281019190915260608101919091524660808201523060a082015260c00160405160208183030381529060405280519060200120905090565b604e5462010000900460ff166144085760405162461bcd60e51b815260206004820152601960248201527f436f6e7472616374204e6f7420496e697469616c697a696e6700000000000000604482015260640161088e565b6000614415858783615c54565b506001614423838583615c54565b506001600160a01b0381163014614509576001600160a01b0381163b61445b5760405162461bcd60e51b815260040161088e90615a03565b6040516301ffc9a760e01b81526331501c3960e01b60048201526001600160a01b038216906301ffc9a790602401602060405180830381865afa1580156144a6573d6000803e3d6000fd5b505050506040513d601f19601f820116820180604052508101906144ca9190615a41565b6145045760405162461bcd60e51b815260206004820152600b60248201526a125b1b1959d85b081050d360aa1b604482015260640161088e565b614555565b6145196331501c3960e01b61081b565b6145555760405162461bcd60e51b815260206004820152600d60248201526c139bdd0814dd5c1c1bdc9d1959609a1b604482015260640161088e565b600280546001600160b01b0319166001600160a01b0383161790556133e9336141e4565b6000610fd261458b6040850185615bc3565b8080601f01602080910402602001604051908101604052809392919081815260200183838082843760009201919091525061462c92508691506145d390506020880188615356565b6145e36040890160208a01615d74565b6001600160401b0316604080516020808201959095526001600160a01b039390931683820152606080840192909252805180840390920182526080909201909152805191012090565b614dff565b6040516bffffffffffffffffffffffff19606084901b1660208201526001600160e01b031982166034820152600090603801613a64565b600181601381111561467c5761467c615492565b0361469a576040516338bb798160e21b815260040160405180910390fd5b60028160138111156146ae576146ae615492565b036146cc57604051634f69231960e11b815260040160405180910390fd5b60038160138111156146e0576146e0615492565b036146fe57604051637e33e43360e01b815260040160405180910390fd5b600481601381111561471257614712615492565b0361473057604051630287b9e560e51b815260040160405180910390fd5b600581601381111561474457614744615492565b0361476257604051633beb1f4d60e11b815260040160405180910390fd5b600681601381111561477657614776615492565b036147945760405163036c45ad60e51b815260040160405180910390fd5b60078160138111156147a8576147a8615492565b036147c65760405163c0af595f60e01b815260040160405180910390fd5b60088160138111156147da576147da615492565b036147f85760405163249eeb8960e01b815260040160405180910390fd5b600981601381111561480c5761480c615492565b0361482a576040516311fb41e160e21b815260040160405180910390fd5b600a81601381111561483e5761483e615492565b0361485c57604051637331e2bb60e01b815260040160405180910390fd5b600b81601381111561487057614870615492565b0361488e5760405163163099ab60e01b815260040160405180910390fd5b600c8160138111156148a2576148a2615492565b036148c05760405163975a86e560e01b815260040160405180910390fd5b600d8160138111156148d4576148d4615492565b036148f257604051631140570360e21b815260040160405180910390fd5b600e81601381111561490657614906615492565b0361492457604051630622823b60e31b815260040160405180910390fd5b600f81601381111561493857614938615492565b0361495657604051636d30058d60e11b815260040160405180910390fd5b601081601381111561496a5761496a615492565b03614988576040516304acbcf160e51b815260040160405180910390fd5b601181601381111561499c5761499c615492565b036149ba57604051636effd2d560e01b815260040160405180910390fd5b60128160138111156149ce576149ce615492565b036149eb57604051623f318960e21b815260040160405180910390fd5b60138160138111156149ff576149ff615492565b036139a957604051634bc7b56f60e11b815260040160405180910390fd5b606081600001805480602002602001604051908101604052809291908181526020018280548015614a6d57602002820191906000526020600020905b815481526020019060010190808311614a59575b50505050509050919050565b60008181526020839052604081206002600182015460ff166003811115614aa257614aa2615492565b03614abd5760408051848152602081018690522091506137b8565b6000600182015460ff166003811115614ad857614ad8615492565b03614b185760405162461bcd60e51b815260206004820152601060248201526f149bdb19525908139bdd08119bdd5b9960821b604482015260640161088e565b60405162461bcd60e51b8152602060048201526013602482015272125b1b1959d85b08149bdb1952590814db1bdd606a1b604482015260640161088e565b60008181526020839052604081206003600182015460ff166003811115614b7f57614b7f615492565b03614b9a5760408051848152602081018690522091506137b8565b6000600182015460ff166003811115614bb557614bb5615492565b03614bf25760405162461bcd60e51b815260206004820152600d60248201526c15125108139bdd08119bdd5b99609a1b604482015260640161088e565b60405162461bcd60e51b815260206004820152601060248201526f125b1b1959d85b081512510814db1bdd60821b604482015260640161088e565b600080516020615eac83398151915280546001600160a01b0319166001600160a01b0392909216919091179055565b6060614c6784614e74565b600083511180614c745750815b15614ca757613e7b84846040518060400160405280600b81526020016a10d85b1b0811985a5b195960aa1b815250614eb8565b6040805160008082526020820190925290611004565b60008181526001830160205260408120548015614da6576000614ce1600183615e5d565b8554909150600090614cf590600190615e5d565b9050818114614d5a576000866000018281548110614d1557614d15615a5e565b9060005260206000200154905080876000018481548110614d3857614d38615a5e565b6000918252602080832090910192909255918252600188019052604090208390555b8554869080614d6b57614d6b615e70565b600190038181906000526020600020016000905590558560010160008681526020019081526020016000206000905560019350505050610840565b6000915050610840565b6000818152600183016020526040812054614df757508154600181810184556000848152602080822090930184905584548482528286019093526040902091909155610840565b506000610840565b600080614e0b83614f86565b9050600080614e1a8387614ff3565b90925090506000816004811115614e3357614e33615492565b146110045760405162461bcd60e51b8152602060048201526011602482015270496c6c6567616c205369676e617475726560781b604482015260640161088e565b614e7d81614c2d565b6040516001600160a01b03821690309033907f8ee0f2bd29c0e6a975c3cc2e47cf2e01b5f23a9a8a02e0ed6a5a070269de3d2d90600090a450565b60606001600160a01b0384163b614f115760405162461bcd60e51b815260206004820152601860248201527f496c6c6567616c20436f6e747261637420416464726573730000000000000000604482015260640161088e565b600080856001600160a01b031685604051614f2c9190615e86565b600060405180830381855af49150503d8060008114614f67576040519150601f19603f3d011682016040523d82523d6000602084013e614f6c565b606091505b5091509150614f7c828286615061565b9695505050505050565b6000610840306001600160a01b031663f698da256040518163ffffffff1660e01b8152600401602060405180830381865afa158015614fc9573d6000803e3d6000fd5b505050506040513d601f19601f82011682018060405250810190614fed9190615dce565b8361509a565b60008082516041036150295760208301516040840151606085015160001a61501d878285856150c1565b9450945050505061505a565b825160400361505257602083015160408401516150478683836151ae565b93509350505061505a565b506000905060025b9250929050565b60608315615070575081610fd2565b8251156150805782518084602001fd5b8160405162461bcd60e51b815260040161088e9190615762565b60405161190160f01b60208201526022810183905260428101829052600090606201613a64565b6000807f7fffffffffffffffffffffffffffffff5d576e7357a4501ddfe92f46681b20a08311156150f857506000905060036151a5565b8460ff16601b1415801561511057508460ff16601c14155b1561512157506000905060046151a5565b6040805160008082526020820180845289905260ff881692820192909252606081018690526080810185905260019060a0016020604051602081039080840390855afa158015615175573d6000803e3d6000fd5b5050604051601f1901519150506001600160a01b03811661519e576000600192509250506151a5565b9150600090505b94509492505050565b6000806001600160ff1b038316816151cb60ff86901c601b615e98565b90506151d9878288856150c1565b935093505050935093915050565b5080546151f390615b28565b6000825580601f10615203575050565b601f0160209004906000526020600020908101906139df919061523b565b50805460008255906000526020600020908101906139df91905b5b80821115615250576000815560010161523c565b5090565b60006020828403121561526657600080fd5b81356001600160e01b031981168114610fd257600080fd5b60008083601f84011261529057600080fd5b5081356001600160401b038111156152a757600080fd5b60208301915083602082850101111561505a57600080fd5b80356001600160a01b0381168114610d8557600080fd5b6000806000806000606086880312156152ee57600080fd5b85356001600160401b038082111561530557600080fd5b61531189838a0161527e565b9097509550602088013591508082111561532a57600080fd5b506153378882890161527e565b909450925061534a9050604087016152bf565b90509295509295909350565b60006020828403121561536857600080fd5b610fd2826152bf565b60006060828403121561538357600080fd5b50919050565b60008083601f84011261539b57600080fd5b5081356001600160401b038111156153b257600080fd5b6020830191508360208260061b850101111561505a57600080fd5b6000806000604084860312156153e257600080fd5b83356001600160401b03808211156153f957600080fd5b61540587838801615371565b9450602086013591508082111561541b57600080fd5b5061542886828701615389565b9497909650939450505050565b60006020828403121561544757600080fd5b5035919050565b6020808252825182820181905260009190848201906040850190845b818110156154865783518352928401929184019160010161546a565b50909695505050505050565b634e487b7160e01b600052602160045260246000fd5b600281106139df576139df615492565b602081016154c5836154a8565b91905290565b600080602083850312156154de57600080fd5b82356001600160401b038111156154f457600080fd5b6155008582860161527e565b90969095509350505050565b6000806040838503121561551f57600080fd5b50508035926020909101359150565b6006811061553e5761553e615492565b9052565b600481106139df576139df615492565b61553e81615542565b60005b8381101561557657818101518382015260200161555e565b50506000910152565b6000815180845261559781602086016020860161555b565b601f01601f19169290920160200192915050565b602081528151602082015260208201516040820152600060408301516155d7606084018261ffff169052565b50606083015161ffff8116608084015250608083015163ffffffff811660a08401525060a083015161560c60c084018261552e565b5060c083015161561f60e0840182615552565b5060e083015161010061563481850183615552565b840151905061012061564884820183615552565b84015161014084810152905061101961016084018261557f565b634e487b7160e01b600052604160045260246000fd5b80151581146139df57600080fd5b8035610d8581615678565b6000806000606084860312156156a657600080fd5b6156af846152bf565b925060208401356001600160401b03808211156156cb57600080fd5b818601915086601f8301126156df57600080fd5b8135818111156156f1576156f1615662565b604051601f8201601f19908116603f0116810190838211818310171561571957615719615662565b8160405282815289602084870101111561573257600080fd5b82602086016020830137600060208483010152809650505050505061575960408501615686565b90509250925092565b602081526000610fd2602083018461557f565b60008060006040848603121561578a57600080fd5b83356001600160401b03808211156157a157600080fd5b6157ad87838801615371565b945060208601359150808211156157c357600080fd5b818601915086601f8301126157d757600080fd5b8135818111156157e657600080fd5b8760206060830285010111156157fb57600080fd5b6020830194508093505050509250925092565b60008083601f84011261582057600080fd5b5081356001600160401b0381111561583757600080fd5b6020830191508360208260051b850101111561505a57600080fd5b60008060006040848603121561586757600080fd5b83356001600160401b038082111561587e57600080fd5b61588a87838801615371565b945060208601359150808211156158a057600080fd5b506154288682870161580e565b600080604083850312156158c057600080fd5b823591506158d0602084016152bf565b90509250929050565b600281106139df57600080fd5b6000602082840312156158f857600080fd5b8135610fd2816158d9565b6020808252600c908201526b125b1b1959d85b0810d85b1b60a21b604082015260600190565b6020808252600c908201526b125b9d985b1a590810d85b1b60a21b604082015260600190565b81835281816020850137506000828201602090810191909152601f909101601f19169091010190565b60608152600061598c60608301878961594f565b828103602084015261599f81868861594f565b91505061ffff831660408301529695505050505050565b60208082526008908201526714995a9958dd195960c21b604082015260600190565b602080825260119082015270496c6c6567616c20557064617461626c6560781b604082015260600190565b60208082526010908201526f125b1b1959d85b0810dbdb9d1c9858dd60821b604082015260600190565b60208101601483106154c5576154c5615492565b600060208284031215615a5357600080fd5b8151610fd281615678565b634e487b7160e01b600052603260045260246000fd5b600481106139df57600080fd5b600060208284031215615a9357600080fd5b8135610fd281615a74565b602081016154c583615542565b634e487b7160e01b600052601160045260246000fd5b600060018201615ad357615ad3615aab565b5060010190565b74554e4956455253452e4c4956454c595f564552534560581b815260150190565b602080825260139082015272496c6c6567616c2041646d696e2053636f706560681b604082015260600190565b600181811c90821680615b3c57607f821691505b60208210810361538357634e487b7160e01b600052602260045260246000fd5b600060208284031215615b6e57600080fd5b813561ffff81168114610fd257600080fd5b600182810b9082900b03617fff198112617fff8213171561084057610840615aab565b60008235609e19833603018112615bb957600080fd5b9190910192915050565b6000808335601e19843603018112615bda57600080fd5b8301803591506001600160401b03821115615bf457600080fd5b60200191503681900382131561505a57600080fd5b601f821115615c4f57600081815260208120601f850160051c81016020861015615c305750805b601f850160051c820191505b81811015610a7457828155600101615c3c565b505050565b6001600160401b03831115615c6b57615c6b615662565b615c7f83615c798354615b28565b83615c09565b6000601f841160018114615cb35760008515615c9b5750838201355b600019600387901b1c1916600186901b1783556133e9565b600083815260209020601f19861690835b82811015615ce45786850135825560209485019460019092019101615cc4565b5086821015615d015760001960f88860031b161c19848701351681555b505060018560011b0183555050505050565b600060208284031215615d2557600080fd5b81358060020b8114610fd257600080fd5b600060208284031215615d4857600080fd5b815160148110610fd257600080fd5b600060208284031215615d6957600080fd5b8151610fd2816158d9565b600060208284031215615d8657600080fd5b81356001600160401b0381168114610fd257600080fd5b600060208284031215615daf57600080fd5b815160088110610fd257600080fd5b8183823760009101908152919050565b600060208284031215615de057600080fd5b5051919050565b6000808354615df581615b28565b60018281168015615e0d5760018114615e2257615e51565b60ff1984168752821515830287019450615e51565b8760005260208060002060005b85811015615e485781548a820152908401908201615e2f565b50505082870194505b50929695505050505050565b8181038181111561084057610840615aab565b634e487b7160e01b600052603160045260246000fd5b60008251615bb981846020870161555b565b8082018082111561084057610840615aab56fe360894a13ba1a3210667c828492db98dca3e2076cc3735a920a3ca505d382bbca26469706673582212208acaabd17d7ddc0ba38c645a2259eea9dd7fc97826cda044b8d2e054854d440b64736f6c63430008130033",
  "libraries": {
    "LACLCommons": "0x61a74e6467B0eDd133Bf2fa08193Fc8B663D1750"
  },
  "devdoc": {
    "author": "Sina Tadayon, https://github.com/SinaTadayon",
    "events": {
      "Initialized(address,address,address,string,string,uint16)": {
        "details": "Triggered when the contract has been initialized or reinitialized."
      },
      "ProxyLocalAdminUpdated(address,address,address)": {
        "details": "Emitted when the admin account has changed."
      }
    },
    "kind": "dev",
    "methods": {
      "proxiableUUID()": {
        "details": "Implementation of the ERC1822 {proxiableUUID} function. This returns the storage slot used by the implementation. It is used to validate that the this implementation remains valid after an upgrade. IMPORTANT: A proxy pointing at a proxiable contract should not be considered proxiable itself, because this risks bricking a proxy that upgrades to it, by delegating to itself until out of gas. Thus it is critical that this function revert if invoked through a proxy. This is guaranteed by the `notDelegated` modifier."
      },
      "supportsInterface(bytes4)": {
        "details": "See {IERC165-supportsInterface}."
      }
    },
    "title": "Domain Manager Contract",
    "version": 1
  },
  "userdoc": {
    "kind": "user",
    "methods": {},
    "version": 1
  },
  "storageLayout": {
    "storage": [
      {
        "astId": 82229,
        "contract": "src/contracts/acl/scope/DomainManager.sol:DomainManager",
        "label": "_contractName",
        "offset": 0,
        "slot": "0",
        "type": "t_string_storage"
      },
      {
        "astId": 82231,
        "contract": "src/contracts/acl/scope/DomainManager.sol:DomainManager",
        "label": "_contractVersion",
        "offset": 0,
        "slot": "1",
        "type": "t_string_storage"
      },
      {
        "astId": 82233,
        "contract": "src/contracts/acl/scope/DomainManager.sol:DomainManager",
        "label": "_accessControlManager",
        "offset": 0,
        "slot": "2",
        "type": "t_address"
      },
      {
        "astId": 82236,
        "contract": "src/contracts/acl/scope/DomainManager.sol:DomainManager",
        "label": "_sstat",
        "offset": 20,
        "slot": "2",
        "type": "t_enum(ProxySafeModeStatus)82251"
      },
      {
        "astId": 82239,
        "contract": "src/contracts/acl/scope/DomainManager.sol:DomainManager",
        "label": "_ustat",
        "offset": 21,
        "slot": "2",
        "type": "t_enum(ProxyUpdatabilityStatus)82254"
      },
      {
        "astId": 82244,
        "contract": "src/contracts/acl/scope/DomainManager.sol:DomainManager",
        "label": "__reserved",
        "offset": 0,
        "slot": "3",
        "type": "t_array(t_uint256)64_storage"
      },
      {
        "astId": 10383,
        "contract": "src/contracts/acl/scope/DomainManager.sol:DomainManager",
        "label": "_firstInit",
        "offset": 0,
        "slot": "67",
        "type": "t_bool"
      },
      {
        "astId": 10386,
        "contract": "src/contracts/acl/scope/DomainManager.sol:DomainManager",
        "label": "_data",
        "offset": 0,
        "slot": "68",
        "type": "t_struct(DataCollection)10239_storage"
      },
      {
        "astId": 82432,
        "contract": "src/contracts/acl/scope/DomainManager.sol:DomainManager",
        "label": "_initialized",
        "offset": 0,
        "slot": "78",
        "type": "t_uint16"
      },
      {
        "astId": 82435,
        "contract": "src/contracts/acl/scope/DomainManager.sol:DomainManager",
        "label": "_initializing",
        "offset": 2,
        "slot": "78",
        "type": "t_bool"
      }
    ],
    "types": {
      "t_address": {
        "encoding": "inplace",
        "label": "address",
        "numberOfBytes": "20"
      },
      "t_array(t_bytes32)dyn_storage": {
        "base": "t_bytes32",
        "encoding": "dynamic_array",
        "label": "bytes32[]",
        "numberOfBytes": "32"
      },
      "t_array(t_uint256)64_storage": {
        "base": "t_uint256",
        "encoding": "inplace",
        "label": "uint256[64]",
        "numberOfBytes": "2048"
      },
      "t_bool": {
        "encoding": "inplace",
        "label": "bool",
        "numberOfBytes": "1"
      },
      "t_bytes32": {
        "encoding": "inplace",
        "label": "bytes32",
        "numberOfBytes": "32"
      },
      "t_bytes4": {
        "encoding": "inplace",
        "label": "bytes4",
        "numberOfBytes": "4"
      },
      "t_enum(ActivityStatus)11721": {
        "encoding": "inplace",
        "label": "enum IACLCommons.ActivityStatus",
        "numberOfBytes": "1"
      },
      "t_enum(AgentType)11716": {
        "encoding": "inplace",
        "label": "enum IACLCommons.AgentType",
        "numberOfBytes": "1"
      },
      "t_enum(AlterabilityStatus)11726": {
        "encoding": "inplace",
        "label": "enum IACLCommons.AlterabilityStatus",
        "numberOfBytes": "1"
      },
      "t_enum(PolicyType)11744": {
        "encoding": "inplace",
        "label": "enum IACLCommons.PolicyType",
        "numberOfBytes": "1"
      },
      "t_enum(ProxySafeModeStatus)82251": {
        "encoding": "inplace",
        "label": "enum IBaseProxy.ProxySafeModeStatus",
        "numberOfBytes": "1"
      },
      "t_enum(ProxyUpdatabilityStatus)82254": {
        "encoding": "inplace",
        "label": "enum IBaseProxy.ProxyUpdatabilityStatus",
        "numberOfBytes": "1"
      },
      "t_enum(ScopeType)11733": {
        "encoding": "inplace",
        "label": "enum IACLCommons.ScopeType",
        "numberOfBytes": "1"
      },
      "t_mapping(t_address,t_struct(FacetEntity)11945_storage)": {
        "encoding": "mapping",
        "key": "t_address",
        "label": "mapping(address => struct IACLCommons.FacetEntity)",
        "numberOfBytes": "32",
        "value": "t_struct(FacetEntity)11945_storage"
      },
      "t_mapping(t_address,t_struct(ProfileAccount)12018_storage)": {
        "encoding": "mapping",
        "key": "t_address",
        "label": "mapping(address => struct IACLCommons.ProfileAccount)",
        "numberOfBytes": "32",
        "value": "t_struct(ProfileAccount)12018_storage"
      },
      "t_mapping(t_bytes32,t_bytes32)": {
        "encoding": "mapping",
        "key": "t_bytes32",
        "label": "mapping(bytes32 => bytes32)",
        "numberOfBytes": "32",
        "value": "t_bytes32"
      },
      "t_mapping(t_bytes32,t_struct(BaseAgent)11756_storage)": {
        "encoding": "mapping",
        "key": "t_bytes32",
        "label": "mapping(bytes32 => struct IACLCommons.BaseAgent)",
        "numberOfBytes": "32",
        "value": "t_struct(BaseAgent)11756_storage"
      },
      "t_mapping(t_bytes32,t_struct(BaseScope)11770_storage)": {
        "encoding": "mapping",
        "key": "t_bytes32",
        "label": "mapping(bytes32 => struct IACLCommons.BaseScope)",
        "numberOfBytes": "32",
        "value": "t_struct(BaseScope)11770_storage"
      },
      "t_mapping(t_bytes32,t_struct(PolicyEntity)11793_storage)": {
        "encoding": "mapping",
        "key": "t_bytes32",
        "label": "mapping(bytes32 => struct IACLCommons.PolicyEntity)",
        "numberOfBytes": "32",
        "value": "t_struct(PolicyEntity)11793_storage"
      },
      "t_mapping(t_bytes32,t_struct(ProfileEntity)12059_storage)": {
        "encoding": "mapping",
        "key": "t_bytes32",
        "label": "mapping(bytes32 => struct IACLCommons.ProfileEntity)",
        "numberOfBytes": "32",
        "value": "t_struct(ProfileEntity)12059_storage"
      },
      "t_mapping(t_bytes32,t_uint256)": {
        "encoding": "mapping",
        "key": "t_bytes32",
        "label": "mapping(bytes32 => uint256)",
        "numberOfBytes": "32",
        "value": "t_uint256"
      },
      "t_mapping(t_bytes4,t_address)": {
        "encoding": "mapping",
        "key": "t_bytes4",
        "label": "mapping(bytes4 => address)",
        "numberOfBytes": "32",
        "value": "t_address"
      },
      "t_string_storage": {
        "encoding": "bytes",
        "label": "string",
        "numberOfBytes": "32"
      },
      "t_struct(AddressSet)79783_storage": {
        "encoding": "inplace",
        "label": "struct LEnumerableSet.AddressSet",
        "members": [
          {
            "astId": 79782,
            "contract": "src/contracts/acl/scope/DomainManager.sol:DomainManager",
            "label": "_inner",
            "offset": 0,
            "slot": "0",
            "type": "t_struct(Set)79482_storage"
          }
        ],
        "numberOfBytes": "64"
      },
      "t_struct(BaseAgent)11756_storage": {
        "encoding": "inplace",
        "label": "struct IACLCommons.BaseAgent",
        "members": [
          {
            "astId": 11746,
            "contract": "src/contracts/acl/scope/DomainManager.sol:DomainManager",
            "label": "adminId",
            "offset": 0,
            "slot": "0",
            "type": "t_bytes32"
          },
          {
            "astId": 11749,
            "contract": "src/contracts/acl/scope/DomainManager.sol:DomainManager",
            "label": "atype",
            "offset": 0,
            "slot": "1",
            "type": "t_enum(AgentType)11716"
          },
          {
            "astId": 11752,
            "contract": "src/contracts/acl/scope/DomainManager.sol:DomainManager",
            "label": "acstat",
            "offset": 1,
            "slot": "1",
            "type": "t_enum(ActivityStatus)11721"
          },
          {
            "astId": 11755,
            "contract": "src/contracts/acl/scope/DomainManager.sol:DomainManager",
            "label": "alstat",
            "offset": 2,
            "slot": "1",
            "type": "t_enum(AlterabilityStatus)11726"
          }
        ],
        "numberOfBytes": "64"
      },
      "t_struct(BaseScope)11770_storage": {
        "encoding": "inplace",
        "label": "struct IACLCommons.BaseScope",
        "members": [
          {
            "astId": 11758,
            "contract": "src/contracts/acl/scope/DomainManager.sol:DomainManager",
            "label": "adminId",
            "offset": 0,
            "slot": "0",
            "type": "t_bytes32"
          },
          {
            "astId": 11761,
            "contract": "src/contracts/acl/scope/DomainManager.sol:DomainManager",
            "label": "stype",
            "offset": 0,
            "slot": "1",
            "type": "t_enum(ScopeType)11733"
          },
          {
            "astId": 11764,
            "contract": "src/contracts/acl/scope/DomainManager.sol:DomainManager",
            "label": "acstat",
            "offset": 1,
            "slot": "1",
            "type": "t_enum(ActivityStatus)11721"
          },
          {
            "astId": 11767,
            "contract": "src/contracts/acl/scope/DomainManager.sol:DomainManager",
            "label": "alstat",
            "offset": 2,
            "slot": "1",
            "type": "t_enum(AlterabilityStatus)11726"
          },
          {
            "astId": 11769,
            "contract": "src/contracts/acl/scope/DomainManager.sol:DomainManager",
            "label": "referredByAgent",
            "offset": 3,
            "slot": "1",
            "type": "t_uint32"
          }
        ],
        "numberOfBytes": "64"
      },
      "t_struct(Bytes32Set)79676_storage": {
        "encoding": "inplace",
        "label": "struct LEnumerableSet.Bytes32Set",
        "members": [
          {
            "astId": 79675,
            "contract": "src/contracts/acl/scope/DomainManager.sol:DomainManager",
            "label": "_inner",
            "offset": 0,
            "slot": "0",
            "type": "t_struct(Set)79482_storage"
          }
        ],
        "numberOfBytes": "64"
      },
      "t_struct(DataCollection)10239_storage": {
        "encoding": "inplace",
        "label": "struct ACLStorage.DataCollection",
        "members": [
          {
            "astId": 10202,
            "contract": "src/contracts/acl/scope/DomainManager.sol:DomainManager",
            "label": "agents",
            "offset": 0,
            "slot": "0",
            "type": "t_mapping(t_bytes32,t_struct(BaseAgent)11756_storage)"
          },
          {
            "astId": 10207,
            "contract": "src/contracts/acl/scope/DomainManager.sol:DomainManager",
            "label": "scopes",
            "offset": 0,
            "slot": "1",
            "type": "t_mapping(t_bytes32,t_struct(BaseScope)11770_storage)"
          },
          {
            "astId": 10212,
            "contract": "src/contracts/acl/scope/DomainManager.sol:DomainManager",
            "label": "policies",
            "offset": 0,
            "slot": "2",
            "type": "t_mapping(t_bytes32,t_struct(PolicyEntity)11793_storage)"
          },
          {
            "astId": 10216,
            "contract": "src/contracts/acl/scope/DomainManager.sol:DomainManager",
            "label": "rolePolicyMap",
            "offset": 0,
            "slot": "3",
            "type": "t_mapping(t_bytes32,t_bytes32)"
          },
          {
            "astId": 10221,
            "contract": "src/contracts/acl/scope/DomainManager.sol:DomainManager",
            "label": "profiles",
            "offset": 0,
            "slot": "4",
            "type": "t_mapping(t_bytes32,t_struct(ProfileEntity)12059_storage)"
          },
          {
            "astId": 10226,
            "contract": "src/contracts/acl/scope/DomainManager.sol:DomainManager",
            "label": "profileAccounts",
            "offset": 0,
            "slot": "5",
            "type": "t_mapping(t_address,t_struct(ProfileAccount)12018_storage)"
          },
          {
            "astId": 10230,
            "contract": "src/contracts/acl/scope/DomainManager.sol:DomainManager",
            "label": "selectors",
            "offset": 0,
            "slot": "6",
            "type": "t_mapping(t_bytes4,t_address)"
          },
          {
            "astId": 10235,
            "contract": "src/contracts/acl/scope/DomainManager.sol:DomainManager",
            "label": "facets",
            "offset": 0,
            "slot": "7",
            "type": "t_mapping(t_address,t_struct(FacetEntity)11945_storage)"
          },
          {
            "astId": 10238,
            "contract": "src/contracts/acl/scope/DomainManager.sol:DomainManager",
            "label": "facetSet",
            "offset": 0,
            "slot": "8",
            "type": "t_struct(AddressSet)79783_storage"
          }
        ],
        "numberOfBytes": "320"
      },
      "t_struct(FacetEntity)11945_storage": {
        "encoding": "inplace",
        "label": "struct IACLCommons.FacetEntity",
        "members": [
          {
            "astId": 11944,
            "contract": "src/contracts/acl/scope/DomainManager.sol:DomainManager",
            "label": "subjectId",
            "offset": 0,
            "slot": "0",
            "type": "t_address"
          }
        ],
        "numberOfBytes": "32"
      },
      "t_struct(PolicyEntity)11793_storage": {
        "encoding": "inplace",
        "label": "struct IACLCommons.PolicyEntity",
        "members": [
          {
            "astId": 11772,
            "contract": "src/contracts/acl/scope/DomainManager.sol:DomainManager",
            "label": "adminId",
            "offset": 0,
            "slot": "0",
            "type": "t_bytes32"
          },
          {
            "astId": 11774,
            "contract": "src/contracts/acl/scope/DomainManager.sol:DomainManager",
            "label": "scopeId",
            "offset": 0,
            "slot": "1",
            "type": "t_bytes32"
          },
          {
            "astId": 11776,
            "contract": "src/contracts/acl/scope/DomainManager.sol:DomainManager",
            "label": "name",
            "offset": 0,
            "slot": "2",
            "type": "t_string_storage"
          },
          {
            "astId": 11778,
            "contract": "src/contracts/acl/scope/DomainManager.sol:DomainManager",
            "label": "roleLimit",
            "offset": 0,
            "slot": "3",
            "type": "t_uint16"
          },
          {
            "astId": 11780,
            "contract": "src/contracts/acl/scope/DomainManager.sol:DomainManager",
            "label": "policyCode",
            "offset": 2,
            "slot": "3",
            "type": "t_uint8"
          },
          {
            "astId": 11783,
            "contract": "src/contracts/acl/scope/DomainManager.sol:DomainManager",
            "label": "ptype",
            "offset": 3,
            "slot": "3",
            "type": "t_enum(PolicyType)11744"
          },
          {
            "astId": 11786,
            "contract": "src/contracts/acl/scope/DomainManager.sol:DomainManager",
            "label": "acstat",
            "offset": 4,
            "slot": "3",
            "type": "t_enum(ActivityStatus)11721"
          },
          {
            "astId": 11789,
            "contract": "src/contracts/acl/scope/DomainManager.sol:DomainManager",
            "label": "alstat",
            "offset": 5,
            "slot": "3",
            "type": "t_enum(AlterabilityStatus)11726"
          },
          {
            "astId": 11792,
            "contract": "src/contracts/acl/scope/DomainManager.sol:DomainManager",
            "label": "roles",
            "offset": 0,
            "slot": "4",
            "type": "t_struct(Bytes32Set)79676_storage"
          }
        ],
        "numberOfBytes": "192"
      },
      "t_struct(ProfileAccount)12018_storage": {
        "encoding": "inplace",
        "label": "struct IACLCommons.ProfileAccount",
        "members": [
          {
            "astId": 12017,
            "contract": "src/contracts/acl/scope/DomainManager.sol:DomainManager",
            "label": "profiles",
            "offset": 0,
            "slot": "0",
            "type": "t_array(t_bytes32)dyn_storage"
          }
        ],
        "numberOfBytes": "32"
      },
      "t_struct(ProfileEntity)12059_storage": {
        "encoding": "inplace",
        "label": "struct IACLCommons.ProfileEntity",
        "members": [
          {
            "astId": 12023,
            "contract": "src/contracts/acl/scope/DomainManager.sol:DomainManager",
            "label": "agents",
            "offset": 0,
            "slot": "0",
            "type": "t_mapping(t_bytes32,t_struct(BaseAgent)11756_storage)"
          },
          {
            "astId": 12028,
            "contract": "src/contracts/acl/scope/DomainManager.sol:DomainManager",
            "label": "scopes",
            "offset": 0,
            "slot": "1",
            "type": "t_mapping(t_bytes32,t_struct(BaseScope)11770_storage)"
          },
          {
            "astId": 12033,
            "contract": "src/contracts/acl/scope/DomainManager.sol:DomainManager",
            "label": "policies",
            "offset": 0,
            "slot": "2",
            "type": "t_mapping(t_bytes32,t_struct(PolicyEntity)11793_storage)"
          },
          {
            "astId": 12037,
            "contract": "src/contracts/acl/scope/DomainManager.sol:DomainManager",
            "label": "rolePolicyMap",
            "offset": 0,
            "slot": "3",
            "type": "t_mapping(t_bytes32,t_bytes32)"
          },
          {
            "astId": 12040,
            "contract": "src/contracts/acl/scope/DomainManager.sol:DomainManager",
            "label": "admins",
            "offset": 0,
            "slot": "4",
            "type": "t_struct(Bytes32Set)79676_storage"
          },
          {
            "astId": 12042,
            "contract": "src/contracts/acl/scope/DomainManager.sol:DomainManager",
            "label": "adminId",
            "offset": 0,
            "slot": "6",
            "type": "t_bytes32"
          },
          {
            "astId": 12044,
            "contract": "src/contracts/acl/scope/DomainManager.sol:DomainManager",
            "label": "name",
            "offset": 0,
            "slot": "7",
            "type": "t_string_storage"
          },
          {
            "astId": 12046,
            "contract": "src/contracts/acl/scope/DomainManager.sol:DomainManager",
            "label": "owner",
            "offset": 0,
            "slot": "8",
            "type": "t_address"
          },
          {
            "astId": 12049,
            "contract": "src/contracts/acl/scope/DomainManager.sol:DomainManager",
            "label": "acstat",
            "offset": 20,
            "slot": "8",
            "type": "t_enum(ActivityStatus)11721"
          },
          {
            "astId": 12052,
            "contract": "src/contracts/acl/scope/DomainManager.sol:DomainManager",
            "label": "alstat",
            "offset": 21,
            "slot": "8",
            "type": "t_enum(AlterabilityStatus)11726"
          },
          {
            "astId": 12055,
            "contract": "src/contracts/acl/scope/DomainManager.sol:DomainManager",
            "label": "registerLimits",
            "offset": 0,
            "slot": "9",
            "type": "t_struct(ProfileRegisterLimit)11993_storage"
          },
          {
            "astId": 12058,
            "contract": "src/contracts/acl/scope/DomainManager.sol:DomainManager",
            "label": "limits",
            "offset": 0,
            "slot": "10",
            "type": "t_struct(ProfileLimit)12014_storage"
          }
        ],
        "numberOfBytes": "352"
      },
      "t_struct(ProfileLimit)12014_storage": {
        "encoding": "inplace",
        "label": "struct IACLCommons.ProfileLimit",
        "members": [
          {
            "astId": 11995,
            "contract": "src/contracts/acl/scope/DomainManager.sol:DomainManager",
            "label": "profileCallLimit",
            "offset": 0,
            "slot": "0",
            "type": "t_uint32"
          },
          {
            "astId": 11997,
            "contract": "src/contracts/acl/scope/DomainManager.sol:DomainManager",
            "label": "contextLimit",
            "offset": 4,
            "slot": "0",
            "type": "t_uint32"
          },
          {
            "astId": 11999,
            "contract": "src/contracts/acl/scope/DomainManager.sol:DomainManager",
            "label": "memberLimit",
            "offset": 8,
            "slot": "0",
            "type": "t_uint24"
          },
          {
            "astId": 12001,
            "contract": "src/contracts/acl/scope/DomainManager.sol:DomainManager",
            "label": "realmLimit",
            "offset": 11,
            "slot": "0",
            "type": "t_uint16"
          },
          {
            "astId": 12003,
            "contract": "src/contracts/acl/scope/DomainManager.sol:DomainManager",
            "label": "domainLimit",
            "offset": 13,
            "slot": "0",
            "type": "t_uint16"
          },
          {
            "astId": 12005,
            "contract": "src/contracts/acl/scope/DomainManager.sol:DomainManager",
            "label": "memberCallLimit",
            "offset": 15,
            "slot": "0",
            "type": "t_uint16"
          },
          {
            "astId": 12007,
            "contract": "src/contracts/acl/scope/DomainManager.sol:DomainManager",
            "label": "typeRoleLimit",
            "offset": 17,
            "slot": "0",
            "type": "t_uint16"
          },
          {
            "astId": 12009,
            "contract": "src/contracts/acl/scope/DomainManager.sol:DomainManager",
            "label": "typeLimit",
            "offset": 19,
            "slot": "0",
            "type": "t_uint16"
          },
          {
            "astId": 12011,
            "contract": "src/contracts/acl/scope/DomainManager.sol:DomainManager",
            "label": "policyRoleLimit",
            "offset": 21,
            "slot": "0",
            "type": "t_uint16"
          },
          {
            "astId": 12013,
            "contract": "src/contracts/acl/scope/DomainManager.sol:DomainManager",
            "label": "functionLimit",
            "offset": 23,
            "slot": "0",
            "type": "t_uint8"
          }
        ],
        "numberOfBytes": "32"
      },
      "t_struct(ProfileRegisterLimit)11993_storage": {
        "encoding": "inplace",
        "label": "struct IACLCommons.ProfileRegisterLimit",
        "members": [
          {
            "astId": 11978,
            "contract": "src/contracts/acl/scope/DomainManager.sol:DomainManager",
            "label": "memberRegisterLimit",
            "offset": 0,
            "slot": "0",
            "type": "t_uint32"
          },
          {
            "astId": 11980,
            "contract": "src/contracts/acl/scope/DomainManager.sol:DomainManager",
            "label": "roleRegisterLimit",
            "offset": 4,
            "slot": "0",
            "type": "t_uint32"
          },
          {
            "astId": 11982,
            "contract": "src/contracts/acl/scope/DomainManager.sol:DomainManager",
            "label": "typeRegisterLimit",
            "offset": 8,
            "slot": "0",
            "type": "t_uint32"
          },
          {
            "astId": 11984,
            "contract": "src/contracts/acl/scope/DomainManager.sol:DomainManager",
            "label": "functionRegisterLimit",
            "offset": 12,
            "slot": "0",
            "type": "t_uint32"
          },
          {
            "astId": 11986,
            "contract": "src/contracts/acl/scope/DomainManager.sol:DomainManager",
            "label": "contextRegisterLimit",
            "offset": 16,
            "slot": "0",
            "type": "t_uint32"
          },
          {
            "astId": 11988,
            "contract": "src/contracts/acl/scope/DomainManager.sol:DomainManager",
            "label": "realmRegisterLimit",
            "offset": 20,
            "slot": "0",
            "type": "t_uint16"
          },
          {
            "astId": 11990,
            "contract": "src/contracts/acl/scope/DomainManager.sol:DomainManager",
            "label": "domainRegisterLimit",
            "offset": 22,
            "slot": "0",
            "type": "t_uint16"
          },
          {
            "astId": 11992,
            "contract": "src/contracts/acl/scope/DomainManager.sol:DomainManager",
            "label": "policyRegisterLimit",
            "offset": 24,
            "slot": "0",
            "type": "t_uint16"
          }
        ],
        "numberOfBytes": "32"
      },
      "t_struct(Set)79482_storage": {
        "encoding": "inplace",
        "label": "struct LEnumerableSet.Set",
        "members": [
          {
            "astId": 79477,
            "contract": "src/contracts/acl/scope/DomainManager.sol:DomainManager",
            "label": "_values",
            "offset": 0,
            "slot": "0",
            "type": "t_array(t_bytes32)dyn_storage"
          },
          {
            "astId": 79481,
            "contract": "src/contracts/acl/scope/DomainManager.sol:DomainManager",
            "label": "_indexes",
            "offset": 0,
            "slot": "1",
            "type": "t_mapping(t_bytes32,t_uint256)"
          }
        ],
        "numberOfBytes": "64"
      },
      "t_uint16": {
        "encoding": "inplace",
        "label": "uint16",
        "numberOfBytes": "2"
      },
      "t_uint24": {
        "encoding": "inplace",
        "label": "uint24",
        "numberOfBytes": "3"
      },
      "t_uint256": {
        "encoding": "inplace",
        "label": "uint256",
        "numberOfBytes": "32"
      },
      "t_uint32": {
        "encoding": "inplace",
        "label": "uint32",
        "numberOfBytes": "4"
      },
      "t_uint8": {
        "encoding": "inplace",
        "label": "uint8",
        "numberOfBytes": "1"
      }
    }
  }
}