{
  "address": "0x4c04D51D698642673212B77aB5D7e652FB119097",
  "abi": [
    {
      "inputs": [],
      "name": "ProfileAdminAccessFunctionNotFound",
      "type": "error"
    },
    {
      "inputs": [],
      "name": "ProfileAdminAccessNotPermitted",
      "type": "error"
    },
    {
      "inputs": [],
      "name": "ProfileAdminAccessPolicyForbidden",
      "type": "error"
    },
    {
      "inputs": [],
      "name": "ProfileAdminAccessRoleActivityForbidden",
      "type": "error"
    },
    {
      "inputs": [],
      "name": "ProfileAdminAccessRoleNotFound",
      "type": "error"
    },
    {
      "inputs": [],
      "name": "ProfileAdminAccessTypeActivityForbidden",
      "type": "error"
    },
    {
      "inputs": [],
      "name": "ProfileAdminAccessTypeNotFound",
      "type": "error"
    },
    {
      "inputs": [],
      "name": "LIB_NAME",
      "outputs": [
        {
          "internalType": "string",
          "name": "",
          "type": "string"
        }
      ],
      "stateMutability": "view",
      "type": "function"
    },
    {
      "inputs": [],
      "name": "LIB_VERSION",
      "outputs": [
        {
          "internalType": "string",
          "name": "",
          "type": "string"
        }
      ],
      "stateMutability": "view",
      "type": "function"
    },
    {
      "inputs": [],
      "name": "LIVELY_PROFILE_ANY_TYPE_ID",
      "outputs": [
        {
          "internalType": "bytes32",
          "name": "",
          "type": "bytes32"
        }
      ],
      "stateMutability": "view",
      "type": "function"
    },
    {
      "inputs": [],
      "name": "LIVELY_PROFILE_LIVELY_MASTER_ADMIN_ROLE_ID",
      "outputs": [
        {
          "internalType": "bytes32",
          "name": "",
          "type": "bytes32"
        }
      ],
      "stateMutability": "view",
      "type": "function"
    },
    {
      "inputs": [],
      "name": "LIVELY_PROFILE_LIVELY_MASTER_TYPE_ID",
      "outputs": [
        {
          "internalType": "bytes32",
          "name": "",
          "type": "bytes32"
        }
      ],
      "stateMutability": "view",
      "type": "function"
    },
    {
      "inputs": [],
      "name": "LIVELY_PROFILE_LIVELY_UNIVERSE_SCOPE_ID",
      "outputs": [
        {
          "internalType": "bytes32",
          "name": "",
          "type": "bytes32"
        }
      ],
      "stateMutability": "view",
      "type": "function"
    },
    {
      "inputs": [],
      "name": "LIVELY_PROFILE_SYSTEM_MASTER_ADMIN_ROLE_ID",
      "outputs": [
        {
          "internalType": "bytes32",
          "name": "",
          "type": "bytes32"
        }
      ],
      "stateMutability": "view",
      "type": "function"
    },
    {
      "inputs": [],
      "name": "LIVELY_PROFILE_SYSTEM_MASTER_TYPE_ID",
      "outputs": [
        {
          "internalType": "bytes32",
          "name": "",
          "type": "bytes32"
        }
      ],
      "stateMutability": "view",
      "type": "function"
    },
    {
      "inputs": [],
      "name": "LIVELY_VERSE_ANONYMOUS_TYPE_ID",
      "outputs": [
        {
          "internalType": "bytes32",
          "name": "",
          "type": "bytes32"
        }
      ],
      "stateMutability": "view",
      "type": "function"
    },
    {
      "inputs": [],
      "name": "LIVELY_VERSE_ANY_TYPE_ID",
      "outputs": [
        {
          "internalType": "bytes32",
          "name": "",
          "type": "bytes32"
        }
      ],
      "stateMutability": "view",
      "type": "function"
    },
    {
      "inputs": [
        {
          "internalType": "uint8",
          "name": "policyCode",
          "type": "uint8"
        }
      ],
      "name": "profileGetPolicyType",
      "outputs": [
        {
          "internalType": "enum IACLCommons.PolicyType",
          "name": "",
          "type": "IACLCommons.PolicyType"
        }
      ],
      "stateMutability": "pure",
      "type": "function"
    }
  ],
  "transactionHash": "0x2448658edf653e75c986e4de8983555cae05e2cf9736e7b0f11ee0a3d966154b",
  "args": [],
  "numDeployments": 1,
  "solcInputHash": "bf3d37f12163392c6a812b5af749abec",
  "bytecode": "0x61419261003a600b82828239805160001a60731461002d57634e487b7160e01b600052600060045260246000fd5b30600052607381538281f3fe73000000000000000000000000000000000000000030146080604052600436106101e45760003560e01c80636a7ca2531161010e578063bbfee8b6116100ac578063c7a497801161007b578063c7a497801461047b578063cb8946581461049b578063d58bf397146104d0578063e5eba2b1146104f057600080fd5b8063bbfee8b614610402578063bec947511461040a578063c4f1f59c1461043b578063c75603551461045b57600080fd5b80639b3362c9116100e85780639b3362c91461039a5780639cb39939146103a2578063a998fe44146103c2578063b856fc46146103e257600080fd5b80636a7ca253146103545780638216e94c1461037457806390250c841461038757600080fd5b80633ab3ab881161018657806358c910c11161015557806358c910c114610304578063593dc0201461030c5780635993230c146103145780635fbcdb4b1461033457600080fd5b80633ab3ab88146102c15780634a6439e6146102c957806350051542146102d15780635371da62146102e457600080fd5b80632466209b116101c25780632466209b14610254578063273f2682146102855780632a8cc5e3146102a6578063339b5c14146102b957600080fd5b8063045bc595146101e95780630d2185c51461020f5780631ac1f05814610231575b600080fd5b6101fc6101f7366004613736565b6104f8565b6040519081526020015b60405180910390f35b81801561021b57600080fd5b5061022f61022a366004613768565b610511565b005b61024461023f3660046137a7565b610738565b6040519015158152602001610206565b610278604051806040016040528060058152602001640332e302e360dc1b81525081565b604051610206919061383a565b61029861029336600461384d565b6108d9565b6040516102069291906138a2565b6101fc6102b43660046138c8565b6108f2565b6101fc61090f565b6101fc61096b565b6101fc61099c565b6101fc6102df3660046138c8565b6109cd565b8180156102f057600080fd5b5061022f6102ff366004613924565b6109dd565b6101fc6109f1565b6101fc610a00565b81801561032057600080fd5b5061022f61032f366004613768565b610a31565b610347610342366004613736565b610c59565b6040516102069190613971565b81801561036057600080fd5b5061022f61036f3660046139a3565b610c67565b6102446103823660046137a7565b610ee8565b6102446103953660046137a7565b61106f565b6101fc611130565b8180156103ae57600080fd5b5061022f6103bd3660046139ea565b61117a565b8180156103ce57600080fd5b506101fc6103dd366004613a4d565b61142d565b6103f56103f0366004613ab6565b6115fa565b6040516102069190613af2565b6101fc61188c565b610278604051806040016040528060128152602001714c50726f66696c65526f6c65506f6c69637960701b81525081565b61044e610449366004613ba3565b61189b565b6040516102069190613bc6565b81801561046757600080fd5b5061022f610476366004613bd3565b6118ac565b81801561048757600080fd5b50610244610496366004613c0f565b6119d7565b8180156104a757600080fd5b506104bb6104b6366004613c52565b611ac8565b60408051928352602083019190915201610206565b6104e36104de366004613ab6565b611de8565b6040516102069190613caf565b6101fc612166565b600061050685858585612175565b90505b949350505050565b600061051d848361222a565b90506002600182015462010000900460ff1660038111156105405761054061386f565b101561058e5760405162461bcd60e51b8152602060048201526018602482015277496c6c6567616c204d656d62657220557064617461626c6560401b60448201526064015b60405180910390fd5b60026008850154600160a81b900460ff1660038111156105b0576105b061386f565b10156105fa5760405162461bcd60e51b8152602060048201526019602482015278496c6c6567616c2050726f66696c6520557064617461626c6560381b6044820152606401610585565b60008360010b8260030160000160049054906101000a900463ffffffff160360030b121561066a5760405162461bcd60e51b815260206004820181905260248201527f496c6c6567616c204d656d62657220526f6c6552656769737465724c696d69746044820152606401610585565b60008360010b8560090160000160049054906101000a900463ffffffff160360030b12156106e45760405162461bcd60e51b815260206004820152602160248201527f496c6c6567616c2050726f66696c6520526f6c6552656769737465724c696d696044820152601d60fa1b6064820152608401610585565b600301805461ffff90931663ffffffff600160201b80860482168390038216810267ffffffff0000000019968716179093556009909501805483810487169290920390951690910292169190911790915550565b60008381526004850160205260408120816008820154600160a01b900460ff1660038111156107695761076961386f565b03610778576000915050610509565b600260008581526020839052604090206001015460ff1660038111156107a0576107a061386f565b146107af576000915050610509565b6000848152602082905260408082205480835290822060010154909160ff909116906107da86612307565b905060028260038111156107f0576107f061386f565b0361086e576000806108028686612346565b915091508061081a5760009650505050505050610509565b6000806108348460030154896123a090919063ffffffff16565b915091508061084e57600098505050505050505050610509565b506000938452600501602052505060409020549091149250610509915050565b60038260038111156108825761088261386f565b036108ca5760008061089486866123a0565b91509150806108ac5760009650505050505050610509565b50600091825260050160205260409020541515935061050992505050565b50600098975050505050505050565b6000806108e684846123b7565b915091505b9250929050565b600061090287878787878761244c565b90505b9695505050505050565b604051602001610952907f524f4c452e4c4956454c595f50524f46494c452e4c4956454c595f4d41535445815266292fa0a226a4a760c91b602082015260270190565b6040516020818303038152906040528051906020012081565b6040517f554e4956455253452e4c4956454c595f50524f46494c450000000000000000006020820152603701610952565b6040517f545950452e4c4956454c595f56455253452e4c4956454c595f414e59000000006020820152603c01610952565b600061090287878787878761267e565b6109ea85858585856126f5565b5050505050565b60405160200161095290613d83565b6040517f545950452e4c4956454c595f50524f46494c452e4c4956454c595f414e5900006020820152603e01610952565b6000610a3d848361222a565b90506002600182015462010000900460ff166003811115610a6057610a6061386f565b1015610aa95760405162461bcd60e51b8152602060048201526018602482015277496c6c6567616c204d656d62657220557064617461626c6560401b6044820152606401610585565b60026008850154600160a81b900460ff166003811115610acb57610acb61386f565b1015610b155760405162461bcd60e51b8152602060048201526019602482015278496c6c6567616c2050726f66696c6520557064617461626c6560381b6044820152606401610585565b60008360010b8260030160000160189054906101000a900461ffff1661ffff160360030b1215610b925760405162461bcd60e51b815260206004820152602260248201527f496c6c6567616c204d656d62657220506f6c69637952656769737465724c696d6044820152611a5d60f21b6064820152608401610585565b60008360010b8560090160000160189054906101000a900461ffff1661ffff160360030b1215610c105760405162461bcd60e51b815260206004820152602360248201527f496c6c6567616c2050726f66696c6520506f6c69637952656769737465724c696044820152621b5a5d60ea1b6064820152608401610585565b600301805461ffff600160c01b80830482168690038216810261ffff60c01b19938416179093556009909501805483810487169590950390951690910292169190911790915550565b6000610506858585856129ce565b60008080610c788887893587612cf5565b8054600090815260208a9052604090206001015490915060ff166002816003811115610ca657610ca661386f565b03610ce1578154600090610cbb908b90612db7565b6002015460008181526001808d016020526040909120015460ff1695509350610d329050565b8154600090610cf1908b90612e94565b6000878152600582016020526040812054919250610d0f8c83612db7565b6002015460008181526001808f016020526040909120015460ff16975095505050505b6000610d458a8a6020013586888b612f6b565b6001848101546000908152908c0160205260408120919250610d6960048601613191565b1115610e5157600181015460ff166005811115610d8857610d8861386f565b600183015460ff166005811115610da157610da161386f565b11610dbe5760405162461bcd60e51b815260040161058590613db7565b6001840154604051639c194e0560e01b8152600481018a905260208c0135602482015260448101919091523090639c194e0590606401602060405180830381865afa158015610e11573d6000803e3d6000fd5b505050506040513d601f19601f82011682018060405250810190610e359190613de2565b610e515760405162461bcd60e51b815260040161058590613dff565b60018101546301000000900463ffffffff16610ea25760405162461bcd60e51b815260206004820152601060248201526f125b1b195859db08149959995c9c995960821b6044820152606401610585565b6001908101805460001963ffffffff6301000000808404821692909201160266ffffffff0000001990911617905560209099013592909801919091555050505050505050565b60008381526004850160205260408120816008820154600160a01b900460ff166003811115610f1957610f1961386f565b03610f28576000915050610509565b600084815260028201602052604090208054610f4957600092505050610509565b805460008181526020849052604081206001015460ff1690610f6a87612307565b90506002826003811115610f8057610f8061386f565b0361100157600080610f928786612346565b9150915080610fab576000975050505050505050610509565b600080610fc584600301548a6123a090919063ffffffff16565b9150915080610fe05760009950505050505050505050610509565b50600093845260050160205250506040902054909114935061050992505050565b60038260038111156110155761101561386f565b0361105f5760008061102787866123a0565b9150915080611040576000975050505050505050610509565b5060009182526005016020526040902054151594506105099350505050565b5060019998505050505050505050565b60008381526004850160205260408120816008820154600160a01b900460ff1660038111156110a0576110a061386f565b036110af576000915050610509565b60006110ba84612307565b90506000806110c98488612346565b91509150806110df576000945050505050610509565b6000806110f98460030154876123a090919063ffffffff16565b91509150806111115760009650505050505050610509565b5060009384526005016020525050604090205415159695505050505050565b604051602001610952907f524f4c452e4c4956454c595f50524f46494c452e4c4956454c595f535953544581526d26afa6a0a9aa22a92fa0a226a4a760911b6020820152602e0190565b6000828152600387016020526040902054156111a85760405162461bcd60e51b815260040161058590613e26565b84548290036111e85760405162461bcd60e51b815260206004820152600c60248201526b496c6c6567616c20526f6c6560a01b6044820152606401610585565b6111f485600401613191565b600386015461ffff161161123a5760405162461bcd60e51b815260206004820152600d60248201526c125b1b1959d85b08131a5b5a5d609a1b6044820152606401610585565b60006112468784612db7565b600281015460009081526001808a016020526040909120015490915060ff168260058111156112775761127761386f565b8160058111156112895761128961386f565b11156112d05760405162461bcd60e51b8152602060048201526016602482015275496c6c6567616c20526f6c652053636f70655479706560501b6044820152606401610585565b8260058111156112e2576112e261386f565b8160058111156112f4576112f461386f565b0361134a5786600101548260020154146113455760405162461bcd60e51b8152602060048201526012602482015271496c6c6567616c20526f6c652053636f706560701b6044820152606401610585565b611402565b60018701546002830154604051639c194e0560e01b815260048101899052602481019290925260448201523090639c194e0590606401602060405180830381865afa15801561139d573d6000803e3d6000fd5b505050506040513d601f19601f820116820180604052508101906113c19190613de2565b6114025760405162461bcd60e51b8152602060048201526012602482015271496c6c6567616c20526f6c652053636f706560701b6044820152606401610585565b60008481526003890160205260409020859055611422600488018561319b565b505050505050505050565b6000806114456114406080880188613e4d565b6131a7565b90506000808281526002890160205260409020600390810154600160201b900460ff16908111156114785761147861386f565b146114955760405162461bcd60e51b815260040161058590613e26565b60006114a888886020013586888a612f6b565b600083815260028a01602052604090209091506114d36114ce60808a0160608b01613ba3565b6131da565b60038201805463ff000000191663010000008360058111156114f7576114f761386f565b021790555061150c6080890160608a01613ba3565b60038201805460ff92909216620100000264ff00000000191664ff00ff000019909216919091176403000000001765ff000000000019166502000000000017905561155a6080890189613e4d565b600283019161156a919083613f2d565b5060208801356001820155600061158760608a0160408b01613fed565b60020b12156115a557600a890154600160a81b900461ffff166115b5565b6115b56060890160408a01613fed565b60038201805461ffff191661ffff92909216919091179055600182015482546115ed918b9160ff9091169060208c01358c358c61244c565b9055509695505050505050565b611650604080516101408101825260008082526020820181905291810182905260608101829052608081018290529060a08201908152602001600081526020016000815260200160008152602001606081525090565b60008381526004850160205260408120908061166c8386612346565b9150915080158061169c575060006008840154600160a01b900460ff16600381111561169a5761169a61386f565b145b1561170957604080516101408101825260008082526020820181905291810182905260608101829052608081018290529060a08201908152602001600081526020016000815260200160008152602001604051806020016040528060008152508152509350505050611885565b6040805161014081018252600284015481526003808501546020808401919091528554838501819052600587015462ffffff808216606087015263010000009091041660808501526000908152908790529290922060010154909160a083019160ff169081111561177c5761177c61386f565b8152600184015460209091019060ff16600381111561179d5761179d61386f565b81526001840154602090910190610100900460ff1660038111156117c3576117c361386f565b8152600184015460209091019062010000900460ff1660038111156117ea576117ea61386f565b81526020018360040180546117fe90613eaa565b80601f016020809104026020016040519081016040528092919081815260200182805461182a90613eaa565b80156118775780601f1061184c57610100808354040283529160200191611877565b820191906000526020600020905b81548152906001019060200180831161185a57829003601f168201915b505050505081525093505050505b9392505050565b60405160200161095290614010565b60006118a6826131da565b92915050565b82356000908152600285016020526040902080546118f85760405162461bcd60e51b8152602060048201526009602482015268139bdd08119bdd5b9960ba1b6044820152606401610585565b600061190a86858460000154866129ce565b905060008160078111156119205761192061386f565b1461192e5761192e81613248565b6000611940604087016020880161404a565b60038111156119515761195161386f565b036119955760405162461bcd60e51b8152602060048201526014602482015273496c6c6567616c20416c7465726162696c69747960601b6044820152606401610585565b6119a5604086016020870161404a565b8260030160056101000a81548160ff021916908360038111156119ca576119ca61386f565b0217905550505050505050565b6000806119e78686893586612175565b90506000611a02826003015488612e9490919063ffffffff16565b9050611a188789602001358360020154886133df565b506002820154600090815260018881016020526040909120908101546301000000900463ffffffff16611a805760405162461bcd60e51b815260206004820152601060248201526f125b1b195859db08149959995c9c995960821b6044820152606401610585565b6001908101805460001963ffffffff6301000000808404821692909201160266ffffffff00000019909116179055602089013560029093019290925550905095945050505050565b60008080611adc61144060608a018a613e4d565b90506000808281526020899052604090206001015460ff166003811115611b0557611b0561386f565b14611b225760405162461bcd60e51b815260040161058590613e26565b604051602001611b3190613d83565b60405160208183030381529060405280519060200120886040013514158015611b9f57506040517f545950452e4c4956454c595f50524f46494c452e4c4956454c595f414e5900006020820152603e0160405160208183030381529060405280519060200120886040013514155b611bda5760405162461bcd60e51b815260206004820152600c60248201526b496c6c6567616c205479706560a01b6044820152606401610585565b6000611bea8860408b0135612e94565b90506002600182015462010000900460ff166003811115611c0d57611c0d61386f565b1015611c545760405162461bcd60e51b8152602060048201526016602482015275496c6c6567616c205479706520557064617461626c6560501b6044820152606401610585565b600481015461ffff16611c6960068301613191565b10611ca95760405162461bcd60e51b815260206004820152601060248201526f24b63632b3b0b6102932b3b4b9ba32b960811b6044820152606401610585565b6000611cbe89898460000160000154896129ce565b90506000816007811115611cd457611cd461386f565b14611ce257611ce281613248565b506000611cf9898b6020013584600201548a6133df565b9050611d08600683018461319b565b506000611d158a85613636565b60018101805462ffffff1916620203021790559050611d3760608c018c613e4d565b6004830191611d47919083613f2d565b5060208b013560028201556000611d6460a08d0160808e0161406b565b60030b1215611d8857600a8a015468010000000000000000900462ffffff16611d98565b611d9860a08c0160808d0161406b565b60058201805462ffffff191662ffffff9290921691909117905560408b013560038201558254611dd3908b90849060208f01358f358d61267e565b90819055929a92995091975050505050505050565b611e45604080516101608101825260008082526020820181905260609282018390529181018290526080810182905260a081018290529060c082019081526020016000815260200160008152602001600081526020016000905290565b600083815260048501602052604081209060008481526002830160205260409020600390810154600160201b900460ff1690811115611e8657611e8661386f565b1480611eb1575060006008820154600160a01b900460ff166003811115611eaf57611eaf61386f565b145b15611f21576040805161016081018252600080825260208083018290528351908101845281815292820192909252606081018290526080810182905260a081018290529060c082019081526020016000815260200160008152602001600081526020016000815250915050611885565b60408051610160810182526000858152600280850160208181528584208054865260018101548287015293899052520180549192830191611f6190613eaa565b80601f0160208091040260200160405190810160405280929190818152602001828054611f8d90613eaa565b8015611fda5780601f10611faf57610100808354040283529160200191611fda565b820191906000526020600020905b815481529060010190602001808311611fbd57829003601f168201915b505050918352505060008581526002840160208181526040808420600381015461ffff1683870152938990529190529091019061201990600401613191565b61ffff1681526000858152600284016020908152604080832060038082015460ff62010000909104811685880152915485529287905292819020600101549301929091169081111561206d5761206d61386f565b8152600085815260028401602090815260408083206001908101548452808701835292209091015491019060ff1660058111156120ac576120ac61386f565b815260008581526002840160209081526040909120600301549101906301000000900460ff1660058111156120e3576120e361386f565b815260200182600201600086815260200190815260200160002060030160049054906101000a900460ff16600381111561211f5761211f61386f565b815260200182600201600086815260200190815260200160002060030160059054906101000a900460ff16600381111561215b5761215b61386f565b905295945050505050565b6040516020016109529061408e565b6000806121828685612db7565b90506002600182015462010000900460ff1660038111156121a5576121a561386f565b10156121e75760405162461bcd60e51b8152602060048201526011602482015270496c6c6567616c20557064617461626c6560781b6044820152606401610585565b60006121fc87878460000160000154876129ce565b905060008160078111156122125761221261386f565b146122205761222081613248565b5095945050505050565b600081815260208390526040812060018082015460ff1660038111156122525761225261386f565b0361226d576040805184815260208101869052209150612300565b6000600182015460ff1660038111156122885761228861386f565b036122c55760405162461bcd60e51b815260206004820152600d60248201526c13525108139bdd08119bdd5b99609a1b6044820152606401610585565b60405162461bcd60e51b815260206004820152601060248201526f125b1b1959d85b081352510814db1bdd60821b6044820152606401610585565b5092915050565b6040516bffffffffffffffffffffffff19606083901b166020820152600090603401604051602081830303815290604052805190602001209050919050565b6000818152602083905260408120819060025b600182015460ff1660038111156123725761237261386f565b03612391575050604080518381526020810185905220905060016108eb565b50600019946000945092505050565b600081815260208390526040812081906003612359565b600081815260208390526040812060010154819060ff1660028160038111156123e2576123e261386f565b0361241a5760006123f38686612db7565b60020154600081815260018089016020526040909120015460ff16945092506108eb915050565b600381600381111561242e5761242e61386f565b0361243f5760006123f38686612e94565b5060009485945092505050565b6000821561267357600260008481526020899052604090206001015460ff16600381111561247c5761247c61386f565b146124c35760405162461bcd60e51b8152602060048201526017602482015276496c6c6567616c2041646d696e204167656e745479706560481b6044820152606401610585565b6000806124d089866123b7565b915091508160058111156124e6576124e661386f565b8860058111156124f8576124f861386f565b11156125465760405162461bcd60e51b815260206004820152601760248201527f496c6c6567616c2041646d696e2053636f7065547970650000000000000000006044820152606401610585565b8160058111156125585761255861386f565b88600581111561256a5761256a61386f565b036125b9578581146125b45760405162461bcd60e51b8152602060048201526013602482015272496c6c6567616c2041646d696e2053636f706560681b6044820152606401610585565b612669565b604051639c194e0560e01b81526004810185905260248101829052604481018790523090639c194e0590606401602060405180830381865afa158015612603573d6000803e3d6000fd5b505050506040513d601f19601f820116820180604052508101906126279190613de2565b6126695760405162461bcd60e51b8152602060048201526013602482015272496c6c6567616c2041646d696e2053636f706560681b6044820152606401610585565b8492505050610905565b509295945050505050565b6000821561267357600160008481526020899052604090206001015460ff1660038111156126ae576126ae61386f565b116124c35760405162461bcd60e51b8152602060048201526017602482015276496c6c6567616c2041646d696e204167656e745479706560481b6044820152606401610585565b60028401546001600160a01b03166000908152600586016020526040902080546127615760405162461bcd60e51b815260206004820152601860248201527f50726f66696c654163636f756e74204e6f7420466f756e6400000000000000006044820152606401610585565b6000805b825481101561297e5785836000018281548110612784576127846140c1565b90600052602060002001540361296c57600191508361289d576127d76040516020016127af9061408e565b604051602081830303815290604052805190602001208860040161369d90919063ffffffff16565b806127ef57506127ef6040516020016127af90614010565b801561284b57506040516020016128059061408e565b6040516020818303038152906040528051906020012085148061284b575060405160200161283290614010565b6040516020818303038152906040528051906020012085145b156128985760405162461bcd60e51b815260206004820152601760248201527f496c6c6567616c204772616e744d656d626572547970650000000000000000006044820152606401610585565b61297e565b8254600110156129355782546128b5906001906140ed565b81101561290957825483906128cc906001906140ed565b815481106128dc576128dc6140c1565b90600052602060002001548360000182815481106128fc576128fc6140c1565b6000918252602090912001555b825483908061291a5761291a614100565b6001900381819060005260206000200160009055905561297e565b825483908061294657612946614100565b600190038181906000526020600020016000905590558260000160006128989190613704565b8061297681614116565b915050612765565b50806129c55760405162461bcd60e51b8152602060048201526016602482015275125b1b1959d85b08141c9bd99a5b195058d8dbdd5b9d60521b6044820152606401610585565b50505050505050565b60006129dd600486018361369d565b156129ea57506000610509565b60008381526020869052604090206001015460ff166002816003811115612a1357612a1361386f565b03612b8357600080612a258887612346565b9150915080612a3a5760039350505050610509565b60036001830154610100900460ff166003811115612a5a57612a5a61386f565b14612a6b5760069350505050610509565b600080612a8584600301548b6123a090919063ffffffff16565b9150915080612a9c57600495505050505050610509565b60036001830154610100900460ff166003811115612abc57612abc61386f565b14612acf57600795505050505050610509565b60008781526005830160205260409020548814612af457600195505050505050610509565b60008881526003808c016020908152604080842054845260028e0190915290912090600382810154600160201b900460ff1690811115612b3657612b3661386f565b148015612b60575060048a01546003820154600160201b90910460ff908116620100009092041610155b15612b745760029650505050505050610509565b60009650505050505050610509565b6003816003811115612b9757612b9761386f565b03612ce957600080612ba988876123a0565b9150915080612bbe5760049350505050610509565b60036001830154610100900460ff166003811115612bde57612bde61386f565b14612bef5760079350505050610509565b60008581526005830160205260408120549080612c0c8b84612346565b9150915080612c245760039650505050505050610509565b60036001830154610100900460ff166003811115612c4457612c4461386f565b14612c585760069650505050505050610509565b60008381526003808d016020908152604080842054845260028f0190915290912090600382810154600160201b900460ff1690811115612c9a57612c9a61386f565b148015612cc4575060048b01546003820154600160201b90910460ff908116620100009092041610155b15612cd9576002975050505050505050610509565b6000975050505050505050610509565b50600195945050505050565b600082815260028501602052604081208054612d3f5760405162461bcd60e51b8152602060048201526009602482015268139bdd08119bdd5b9960ba1b6044820152606401610585565b600260038281015465010000000000900460ff1690811115612d6357612d6361386f565b1015612da55760405162461bcd60e51b8152602060048201526011602482015270496c6c6567616c20557064617461626c6560781b6044820152606401610585565b60006121fc87878460000154876129ce565b60008181526020839052604081206002600182015460ff166003811115612de057612de061386f565b03612dfb576040805184815260208101869052209150612300565b6000600182015460ff166003811115612e1657612e1661386f565b03612e565760405162461bcd60e51b815260206004820152601060248201526f149bdb19525908139bdd08119bdd5b9960821b6044820152606401610585565b60405162461bcd60e51b8152602060048201526013602482015272125b1b1959d85b08149bdb1952590814db1bdd606a1b6044820152606401610585565b60008181526020839052604081206003600182015460ff166003811115612ebd57612ebd61386f565b03612ed8576040805184815260208101869052209150612300565b6000600182015460ff166003811115612ef357612ef361386f565b03612f305760405162461bcd60e51b815260206004820152600d60248201526c15125108139bdd08119bdd5b99609a1b6044820152606401610585565b60405162461bcd60e51b815260206004820152601060248201526f125b1b1959d85b081512510814db1bdd60821b6044820152606401610585565b6000848152600186016020526040812081600182015460ff166005811115612f9557612f9561386f565b03612fd45760405162461bcd60e51b815260206004820152600f60248201526e14d8dbdc1948139bdd08119bdd5b99608a1b6044820152606401610585565b600180820154610100900460ff166003811115612ff357612ff361386f565b1161302a5760405162461bcd60e51b815260206004820152600760248201526611195b195d195960ca1b6044820152606401610585565b6001818101805460039061304c9084906301000000900463ffffffff1661412f565b92506101000a81548163ffffffff021916908363ffffffff16021790555083600581111561307c5761307c61386f565b600182015460ff1660058111156130955761309561386f565b11156130b35760405162461bcd60e51b815260040161058590613db7565b8360058111156130c5576130c561386f565b600182015460ff1660058111156130de576130de61386f565b03613107578486146131025760405162461bcd60e51b815260040161058590613dff565b610905565b604051639c194e0560e01b81526004810184905260248101869052604481018790523090639c194e0590606401602060405180830381865afa158015613151573d6000803e3d6000fd5b505050506040513d601f19601f820116820180604052508101906131759190613de2565b6109055760405162461bcd60e51b815260040161058590613dff565b60006118a6825490565b600061188583836136b5565b600082826040516020016131bc92919061414c565b60405160208183030381529060405280519060200120905092915050565b60008160ff166000036131ef57506000919050565b603f8260ff161161320257506001919050565b607f8260ff161161321557506002919050565b60bf8260ff161161322857506003919050565b60fe8260ff161161323b57506004919050565b506005919050565b919050565b600181600781111561325c5761325c61386f565b0361327a5760405163e15df99b60e01b815260040160405180910390fd5b600281600781111561328e5761328e61386f565b036132ac5760405163c38331b560e01b815260040160405180910390fd5b60038160078111156132c0576132c061386f565b036132de5760405163dab65f4760e01b815260040160405180910390fd5b60048160078111156132f2576132f261386f565b0361331057604051633f4b20a160e11b815260040160405180910390fd5b60058160078111156133245761332461386f565b03613342576040516308fa537360e01b815260040160405180910390fd5b60068160078111156133565761335661386f565b036133745760405163ae0903a160e01b815260040160405180910390fd5b60078160078111156133885761338861386f565b036133a65760405163d59825eb60e01b815260040160405180910390fd5b60405162461bcd60e51b815260206004820152600b60248201526a2ab735b737bbb71022a92960a91b6044820152606401610585565b50565b6000838152600185016020526040812081600182015460ff1660058111156134095761340961386f565b036134485760405162461bcd60e51b815260206004820152600f60248201526e14d8dbdc1948139bdd08119bdd5b99608a1b6044820152606401610585565b600180820154610100900460ff1660038111156134675761346761386f565b116134a45760405162461bcd60e51b815260206004820152600d60248201526c14d8dbdc194811195b195d1959609a1b6044820152606401610585565b600181810180546003906134c69084906301000000900463ffffffff1661412f565b825463ffffffff9182166101009390930a9283029190920219909116179055506000848152600187810160205260409091208101549082015460ff918216911660058111156135175761351761386f565b8160058111156135295761352961386f565b10156135475760405162461bcd60e51b815260040161058590613db7565b600182015460ff1660058111156135605761356061386f565b8160058111156135725761357261386f565b0361359b578585146135965760405162461bcd60e51b815260040161058590613dff565b613625565b604051639c194e0560e01b81526004810185905260248101869052604481018790523090639c194e0590606401602060405180830381865afa1580156135e5573d6000803e3d6000fd5b505050506040513d601f19601f820116820180604052508101906136099190613de2565b6136255760405162461bcd60e51b815260040161058590613dff565b506001015460ff1695945050505050565b600081815260208390526040812081600182015460ff16600381111561365e5761365e61386f565b148061368257506002600182015460ff1660038111156136805761368061386f565b145b15612e56576040805184815260208101869052209150612300565b60008181526001830160205260408120541515611885565b60008181526001830160205260408120546136fc575081546001818101845560008481526020808220909301849055845484825282860190935260409020919091556118a6565b5060006118a6565b50805460008255906000526020600020908101906133dc91905b80821115613732576000815560010161371e565b5090565b6000806000806080858703121561374c57600080fd5b5050823594602084013594506040840135936060013592509050565b60008060006060848603121561377d57600080fd5b83359250602084013561ffff8116811461379657600080fd5b929592945050506040919091013590565b600080600080608085870312156137bd57600080fd5b84359350602085013592506040850135915060608501356001600160a01b03811681146137e957600080fd5b939692955090935050565b6000815180845260005b8181101561381a576020818501810151868301820152016137fe565b506000602082860101526020601f19601f83011685010191505092915050565b60208152600061188560208301846137f4565b6000806040838503121561386057600080fd5b50508035926020909101359150565b634e487b7160e01b600052602160045260246000fd5b600681106133dc576133dc61386f565b61389e81613885565b9052565b604081016138af84613885565b9281526020015290565b80356006811061324357600080fd5b60008060008060008060c087890312156138e157600080fd5b863595506138f1602088016138b9565b95989597505050506040840135936060810135936080820135935060a0909101359150565b80151581146133dc57600080fd5b600080600080600060a0868803121561393c57600080fd5b85359450602086013593506040860135925060608601359150608086013561396381613916565b809150509295509295909350565b60208101600883106139855761398561386f565b91905290565b60006040828403121561399d57600080fd5b50919050565b600080600080600060c086880312156139bb57600080fd5b853594506139cc876020880161398b565b949794965050505060608301359260808101359260a0909101359150565b60008060008060008060c08789031215613a0357600080fd5b8635955060208701359450604087013593506060870135925060808701359150613a2f60a088016138b9565b90509295509295509295565b600060a0828403121561399d57600080fd5b600080600080600060a08688031215613a6557600080fd5b85359450602086013567ffffffffffffffff811115613a8357600080fd5b613a8f88828901613a3b565b94505060408601359250613aa5606087016138b9565b949793965091946080013592915050565b600080600060608486031215613acb57600080fd5b505081359360208301359350604090920135919050565b6004811061389e5761389e61386f565b6020815281516020820152602082015160408201526040820151606082015260006060830151613b29608084018262ffffff169052565b50608083015162ffffff811660a08401525060a0830151613b4d60c0840182613ae2565b5060c0830151613b6060e0840182613ae2565b5060e0830151610100613b7581850183613ae2565b8401519050610120613b8984820183613ae2565b8401516101408481015290506105096101608401826137f4565b600060208284031215613bb557600080fd5b813560ff8116811461188557600080fd5b6020810161398583613885565b60008060008060a08587031215613be957600080fd5b84359350613bfa866020870161398b565b93969395505050506060820135916080013590565b600080600080600060c08688031215613c2757600080fd5b613c31878761398b565b97604087013597506060870135966080810135965060a00135945092505050565b600080600080600060a08688031215613c6a57600080fd5b853567ffffffffffffffff811115613c8157600080fd5b613c8d88828901613a3b565b9860208801359850604088013597606081013597506080013595509350505050565b60208152815160208201526020820151604082015260006040830151610160806060850152613ce26101808501836137f4565b91506060850151613cf9608086018261ffff169052565b50608085015161ffff811660a08601525060a085015160ff811660c08601525060c0850151613d2b60e0860182613ae2565b5060e0850151610100613d4081870183613895565b8601519050610120613d5486820183613895565b8601519050610140613d6886820183613ae2565b8601519050613d7985830182613ae2565b5090949350505050565b7f545950452e4c4956454c595f56455253452e4c4956454c595f414e4f4e594d4f815261555360f01b602082015260220190565b602080825260119082015270496c6c6567616c2053636f70655479706560781b604082015260600190565b600060208284031215613df457600080fd5b815161188581613916565b6020808252600d908201526c496c6c6567616c2053636f706560981b604082015260600190565b6020808252600d908201526c105b1c9958591e48115e1a5cdd609a1b604082015260600190565b6000808335601e19843603018112613e6457600080fd5b83018035915067ffffffffffffffff821115613e7f57600080fd5b6020019150368190038213156108eb57600080fd5b634e487b7160e01b600052604160045260246000fd5b600181811c90821680613ebe57607f821691505b60208210810361399d57634e487b7160e01b600052602260045260246000fd5b601f821115613f2857600081815260208120601f850160051c81016020861015613f055750805b601f850160051c820191505b81811015613f2457828155600101613f11565b5050505b505050565b67ffffffffffffffff831115613f4557613f45613e94565b613f5983613f538354613eaa565b83613ede565b6000601f841160018114613f8d5760008515613f755750838201355b600019600387901b1c1916600186901b1783556109ea565b600083815260209020601f19861690835b82811015613fbe5786850135825560209485019460019092019101613f9e565b5086821015613fdb5760001960f88860031b161c19848701351681555b505060018560011b0183555050505050565b600060208284031215613fff57600080fd5b81358060020b811461188557600080fd5b7f545950452e4c4956454c595f50524f46494c452e4c4956454c595f535953544581526726afa6a0a9aa22a960c11b602082015260280190565b60006020828403121561405c57600080fd5b81356004811061188557600080fd5b60006020828403121561407d57600080fd5b81358060030b811461188557600080fd5b7f545950452e4c4956454c595f50524f46494c452e4c4956454c595f4d415354458152602960f91b602082015260210190565b634e487b7160e01b600052603260045260246000fd5b634e487b7160e01b600052601160045260246000fd5b818103818111156118a6576118a66140d7565b634e487b7160e01b600052603160045260246000fd5b600060018201614128576141286140d7565b5060010190565b63ffffffff818116838216019080821115612300576123006140d7565b818382376000910190815291905056fea26469706673582212209e4e756e8de6e39cebca136aba9af21fa63fc60bbf34279161ac20232b3cd3ae64736f6c63430008130033",
  "devdoc": {
    "author": "Sina Tadayon, https://github.com/SinaTadayon",
    "kind": "dev",
    "methods": {},
    "title": "Profile Commons Library",
    "version": 1
  },
  "userdoc": {
    "kind": "user",
    "methods": {},
    "version": 1
  },
  "storageLayout": {
    "storage": [],
    "types": null
  }
}