{
  "address": "0xa33035C0880093CACf400EdFbC0F48372B9D8De2",
  "abi": [
    {
      "inputs": [],
      "stateMutability": "nonpayable",
      "type": "constructor"
    },
    {
      "inputs": [
        {
          "internalType": "enum IACL.AuthorizationStatus",
          "name": "",
          "type": "uint8"
        }
      ],
      "name": "ACLActionForbidden",
      "type": "error"
    },
    {
      "inputs": [],
      "name": "ProfileAdminAccessFunctionNotFound",
      "type": "error"
    },
    {
      "inputs": [],
      "name": "ProfileAdminAccessNotPermitted",
      "type": "error"
    },
    {
      "inputs": [],
      "name": "ProfileAdminAccessPolicyForbidden",
      "type": "error"
    },
    {
      "inputs": [],
      "name": "ProfileAdminAccessRoleActivityForbidden",
      "type": "error"
    },
    {
      "inputs": [],
      "name": "ProfileAdminAccessRoleNotFound",
      "type": "error"
    },
    {
      "inputs": [],
      "name": "ProfileAdminAccessTypeActivityForbidden",
      "type": "error"
    },
    {
      "inputs": [],
      "name": "ProfileAdminAccessTypeNotFound",
      "type": "error"
    },
    {
      "anonymous": false,
      "inputs": [
        {
          "indexed": true,
          "internalType": "address",
          "name": "sender",
          "type": "address"
        },
        {
          "indexed": true,
          "internalType": "address",
          "name": "proxy",
          "type": "address"
        },
        {
          "indexed": true,
          "internalType": "address",
          "name": "subject",
          "type": "address"
        },
        {
          "indexed": false,
          "internalType": "string",
          "name": "name",
          "type": "string"
        },
        {
          "indexed": false,
          "internalType": "string",
          "name": "version",
          "type": "string"
        },
        {
          "indexed": false,
          "internalType": "uint16",
          "name": "initCount",
          "type": "uint16"
        }
      ],
      "name": "Initialized",
      "type": "event"
    },
    {
      "anonymous": false,
      "inputs": [
        {
          "indexed": true,
          "internalType": "address",
          "name": "sender",
          "type": "address"
        },
        {
          "indexed": true,
          "internalType": "bytes32",
          "name": "profileId",
          "type": "bytes32"
        },
        {
          "indexed": true,
          "internalType": "bytes32",
          "name": "contextId",
          "type": "bytes32"
        },
        {
          "indexed": false,
          "internalType": "enum IACLCommons.ActivityStatus",
          "name": "acstat",
          "type": "uint8"
        }
      ],
      "name": "ProfileContextActivityUpdated",
      "type": "event"
    },
    {
      "anonymous": false,
      "inputs": [
        {
          "indexed": true,
          "internalType": "address",
          "name": "sender",
          "type": "address"
        },
        {
          "indexed": true,
          "internalType": "bytes32",
          "name": "profileId",
          "type": "bytes32"
        },
        {
          "indexed": true,
          "internalType": "bytes32",
          "name": "contextId",
          "type": "bytes32"
        },
        {
          "indexed": false,
          "internalType": "bytes32",
          "name": "adminId",
          "type": "bytes32"
        }
      ],
      "name": "ProfileContextAdminUpdated",
      "type": "event"
    },
    {
      "anonymous": false,
      "inputs": [
        {
          "indexed": true,
          "internalType": "address",
          "name": "sender",
          "type": "address"
        },
        {
          "indexed": true,
          "internalType": "bytes32",
          "name": "profileId",
          "type": "bytes32"
        },
        {
          "indexed": true,
          "internalType": "bytes32",
          "name": "contextId",
          "type": "bytes32"
        },
        {
          "indexed": false,
          "internalType": "enum IACLCommons.AlterabilityStatus",
          "name": "alstat",
          "type": "uint8"
        }
      ],
      "name": "ProfileContextAlterabilityUpdated",
      "type": "event"
    },
    {
      "anonymous": false,
      "inputs": [
        {
          "indexed": true,
          "internalType": "address",
          "name": "sender",
          "type": "address"
        },
        {
          "indexed": true,
          "internalType": "bytes32",
          "name": "profileId",
          "type": "bytes32"
        },
        {
          "indexed": true,
          "internalType": "bytes32",
          "name": "contextId",
          "type": "bytes32"
        },
        {
          "indexed": false,
          "internalType": "uint8",
          "name": "functionLimit",
          "type": "uint8"
        }
      ],
      "name": "ProfileContextFunctionLimitUpdated",
      "type": "event"
    },
    {
      "anonymous": false,
      "inputs": [
        {
          "indexed": true,
          "internalType": "address",
          "name": "sender",
          "type": "address"
        },
        {
          "indexed": true,
          "internalType": "bytes32",
          "name": "profileId",
          "type": "bytes32"
        },
        {
          "indexed": true,
          "internalType": "bytes32",
          "name": "contextId",
          "type": "bytes32"
        },
        {
          "indexed": false,
          "internalType": "bytes32",
          "name": "realmId",
          "type": "bytes32"
        },
        {
          "indexed": false,
          "internalType": "bytes32",
          "name": "adminId",
          "type": "bytes32"
        },
        {
          "indexed": false,
          "internalType": "address",
          "name": "contractId",
          "type": "address"
        },
        {
          "indexed": false,
          "internalType": "address",
          "name": "deployer",
          "type": "address"
        },
        {
          "indexed": false,
          "internalType": "address",
          "name": "subject",
          "type": "address"
        }
      ],
      "name": "ProfileContextRegistered",
      "type": "event"
    },
    {
      "anonymous": false,
      "inputs": [
        {
          "indexed": true,
          "internalType": "address",
          "name": "sender",
          "type": "address"
        },
        {
          "indexed": true,
          "internalType": "bytes32",
          "name": "profileId",
          "type": "bytes32"
        },
        {
          "indexed": true,
          "internalType": "bytes32",
          "name": "contextId",
          "type": "bytes32"
        },
        {
          "indexed": false,
          "internalType": "bool",
          "name": "isSoftDelete",
          "type": "bool"
        }
      ],
      "name": "ProfileContextRemoved",
      "type": "event"
    },
    {
      "anonymous": false,
      "inputs": [
        {
          "indexed": true,
          "internalType": "address",
          "name": "sender",
          "type": "address"
        },
        {
          "indexed": true,
          "internalType": "address",
          "name": "proxy",
          "type": "address"
        },
        {
          "indexed": false,
          "internalType": "address",
          "name": "acl",
          "type": "address"
        }
      ],
      "name": "ProxyAccessControlUpdated",
      "type": "event"
    },
    {
      "anonymous": false,
      "inputs": [
        {
          "indexed": true,
          "internalType": "address",
          "name": "sender",
          "type": "address"
        },
        {
          "indexed": true,
          "internalType": "address",
          "name": "proxy",
          "type": "address"
        },
        {
          "indexed": false,
          "internalType": "address",
          "name": "newAdmin",
          "type": "address"
        }
      ],
      "name": "ProxyLocalAdminUpdated",
      "type": "event"
    },
    {
      "anonymous": false,
      "inputs": [
        {
          "indexed": true,
          "internalType": "address",
          "name": "sender",
          "type": "address"
        },
        {
          "indexed": true,
          "internalType": "address",
          "name": "proxy",
          "type": "address"
        },
        {
          "indexed": false,
          "internalType": "enum IBaseProxy.ProxySafeModeStatus",
          "name": "sstat",
          "type": "uint8"
        }
      ],
      "name": "ProxySafeModeUpdated",
      "type": "event"
    },
    {
      "anonymous": false,
      "inputs": [
        {
          "indexed": true,
          "internalType": "address",
          "name": "sender",
          "type": "address"
        },
        {
          "indexed": true,
          "internalType": "address",
          "name": "proxy",
          "type": "address"
        },
        {
          "indexed": false,
          "internalType": "enum IBaseProxy.ProxyUpdatabilityStatus",
          "name": "ustat",
          "type": "uint8"
        }
      ],
      "name": "ProxyUpdatabilityUpdated",
      "type": "event"
    },
    {
      "anonymous": false,
      "inputs": [
        {
          "indexed": true,
          "internalType": "address",
          "name": "sender",
          "type": "address"
        },
        {
          "indexed": true,
          "internalType": "address",
          "name": "proxy",
          "type": "address"
        },
        {
          "indexed": true,
          "internalType": "address",
          "name": "newImplementation",
          "type": "address"
        }
      ],
      "name": "ProxyUpgraded",
      "type": "event"
    },
    {
      "stateMutability": "payable",
      "type": "fallback"
    },
    {
      "inputs": [],
      "name": "CTX_MESSAGE_TYPEHASH",
      "outputs": [
        {
          "internalType": "bytes32",
          "name": "",
          "type": "bytes32"
        }
      ],
      "stateMutability": "view",
      "type": "function"
    },
    {
      "inputs": [],
      "name": "MEMBER_SIGNATURE_MESSAGE_TYPEHASH",
      "outputs": [
        {
          "internalType": "bytes32",
          "name": "",
          "type": "bytes32"
        }
      ],
      "stateMutability": "view",
      "type": "function"
    },
    {
      "inputs": [],
      "name": "PREDICT_CTX_MESSAGE_TYPEHASH",
      "outputs": [
        {
          "internalType": "bytes32",
          "name": "",
          "type": "bytes32"
        }
      ],
      "stateMutability": "view",
      "type": "function"
    },
    {
      "inputs": [],
      "name": "PROFILE_CTX_MESSAGE_TYPEHASH",
      "outputs": [
        {
          "internalType": "bytes32",
          "name": "",
          "type": "bytes32"
        }
      ],
      "stateMutability": "view",
      "type": "function"
    },
    {
      "inputs": [],
      "name": "PROFILE_MEMBER_SIGNATURE_MESSAGE_TYPEHASH",
      "outputs": [
        {
          "internalType": "bytes32",
          "name": "",
          "type": "bytes32"
        }
      ],
      "stateMutability": "view",
      "type": "function"
    },
    {
      "inputs": [],
      "name": "PROFILE_PREDICT_CTX_MESSAGE_TYPEHASH",
      "outputs": [
        {
          "internalType": "bytes32",
          "name": "",
          "type": "bytes32"
        }
      ],
      "stateMutability": "view",
      "type": "function"
    },
    {
      "inputs": [],
      "name": "TYPE_HASH",
      "outputs": [
        {
          "internalType": "bytes32",
          "name": "",
          "type": "bytes32"
        }
      ],
      "stateMutability": "view",
      "type": "function"
    },
    {
      "inputs": [],
      "name": "accessControlManager",
      "outputs": [
        {
          "internalType": "address",
          "name": "",
          "type": "address"
        }
      ],
      "stateMutability": "view",
      "type": "function"
    },
    {
      "inputs": [],
      "name": "contractName",
      "outputs": [
        {
          "internalType": "string",
          "name": "",
          "type": "string"
        }
      ],
      "stateMutability": "view",
      "type": "function"
    },
    {
      "inputs": [],
      "name": "contractVersion",
      "outputs": [
        {
          "internalType": "string",
          "name": "",
          "type": "string"
        }
      ],
      "stateMutability": "view",
      "type": "function"
    },
    {
      "inputs": [],
      "name": "domainSeparator",
      "outputs": [
        {
          "internalType": "bytes32",
          "name": "",
          "type": "bytes32"
        }
      ],
      "stateMutability": "view",
      "type": "function"
    },
    {
      "inputs": [],
      "name": "getLibrary",
      "outputs": [
        {
          "internalType": "address",
          "name": "",
          "type": "address"
        }
      ],
      "stateMutability": "pure",
      "type": "function"
    },
    {
      "inputs": [],
      "name": "initVersion",
      "outputs": [
        {
          "internalType": "uint16",
          "name": "",
          "type": "uint16"
        }
      ],
      "stateMutability": "view",
      "type": "function"
    },
    {
      "inputs": [
        {
          "internalType": "string",
          "name": "contractName",
          "type": "string"
        },
        {
          "internalType": "string",
          "name": "contractVersion",
          "type": "string"
        },
        {
          "internalType": "address",
          "name": "accessControlManager",
          "type": "address"
        }
      ],
      "name": "initialize",
      "outputs": [],
      "stateMutability": "nonpayable",
      "type": "function"
    },
    {
      "inputs": [],
      "name": "localAdmin",
      "outputs": [
        {
          "internalType": "address",
          "name": "",
          "type": "address"
        }
      ],
      "stateMutability": "view",
      "type": "function"
    },
    {
      "inputs": [
        {
          "internalType": "bytes32",
          "name": "profileId",
          "type": "bytes32"
        },
        {
          "internalType": "address",
          "name": "contractId",
          "type": "address"
        }
      ],
      "name": "profileContextCheckAccount",
      "outputs": [
        {
          "internalType": "bool",
          "name": "",
          "type": "bool"
        }
      ],
      "stateMutability": "view",
      "type": "function"
    },
    {
      "inputs": [
        {
          "internalType": "bytes32",
          "name": "profileId",
          "type": "bytes32"
        },
        {
          "internalType": "bytes32",
          "name": "contextId",
          "type": "bytes32"
        },
        {
          "internalType": "address",
          "name": "account",
          "type": "address"
        }
      ],
      "name": "profileContextCheckAdmin",
      "outputs": [
        {
          "internalType": "bool",
          "name": "",
          "type": "bool"
        }
      ],
      "stateMutability": "view",
      "type": "function"
    },
    {
      "inputs": [
        {
          "internalType": "bytes32",
          "name": "profileId",
          "type": "bytes32"
        },
        {
          "internalType": "bytes32",
          "name": "contextId",
          "type": "bytes32"
        }
      ],
      "name": "profileContextCheckId",
      "outputs": [
        {
          "internalType": "bool",
          "name": "",
          "type": "bool"
        }
      ],
      "stateMutability": "view",
      "type": "function"
    },
    {
      "inputs": [
        {
          "internalType": "bytes32",
          "name": "profileId",
          "type": "bytes32"
        },
        {
          "internalType": "bytes32",
          "name": "contextId",
          "type": "bytes32"
        }
      ],
      "name": "profileContextGetFunctions",
      "outputs": [
        {
          "internalType": "bytes32[]",
          "name": "",
          "type": "bytes32[]"
        }
      ],
      "stateMutability": "view",
      "type": "function"
    },
    {
      "inputs": [
        {
          "internalType": "bytes32",
          "name": "profileId",
          "type": "bytes32"
        },
        {
          "internalType": "bytes32",
          "name": "contextId",
          "type": "bytes32"
        }
      ],
      "name": "profileContextGetInfo",
      "outputs": [
        {
          "components": [
            {
              "internalType": "bytes32",
              "name": "realmId",
              "type": "bytes32"
            },
            {
              "internalType": "bytes32",
              "name": "adminId",
              "type": "bytes32"
            },
            {
              "internalType": "address",
              "name": "contractId",
              "type": "address"
            },
            {
              "internalType": "uint8",
              "name": "functionCount",
              "type": "uint8"
            },
            {
              "internalType": "uint8",
              "name": "functionLimit",
              "type": "uint8"
            },
            {
              "internalType": "uint32",
              "name": "referredByAgent",
              "type": "uint32"
            },
            {
              "internalType": "enum IACLCommons.AgentType",
              "name": "adminType",
              "type": "uint8"
            },
            {
              "internalType": "enum IACLCommons.ScopeType",
              "name": "stype",
              "type": "uint8"
            },
            {
              "internalType": "enum IACLCommons.ActivityStatus",
              "name": "acstat",
              "type": "uint8"
            },
            {
              "internalType": "enum IACLCommons.AlterabilityStatus",
              "name": "alstat",
              "type": "uint8"
            }
          ],
          "internalType": "struct IProfileContextManagement.ProfileContextInfo",
          "name": "",
          "type": "tuple"
        }
      ],
      "stateMutability": "view",
      "type": "function"
    },
    {
      "inputs": [
        {
          "internalType": "bytes32",
          "name": "profileId",
          "type": "bytes32"
        },
        {
          "internalType": "bytes32",
          "name": "contextId",
          "type": "bytes32"
        },
        {
          "internalType": "bytes32",
          "name": "functionId",
          "type": "bytes32"
        }
      ],
      "name": "profileContextHasFunction",
      "outputs": [
        {
          "internalType": "bool",
          "name": "",
          "type": "bool"
        }
      ],
      "stateMutability": "view",
      "type": "function"
    },
    {
      "inputs": [
        {
          "internalType": "bytes32",
          "name": "profileId",
          "type": "bytes32"
        },
        {
          "internalType": "address",
          "name": "contractId",
          "type": "address"
        },
        {
          "internalType": "bytes4",
          "name": "selector",
          "type": "bytes4"
        }
      ],
      "name": "profileContextHasSelector",
      "outputs": [
        {
          "internalType": "bool",
          "name": "",
          "type": "bool"
        }
      ],
      "stateMutability": "view",
      "type": "function"
    },
    {
      "inputs": [
        {
          "components": [
            {
              "internalType": "string",
              "name": "profileName",
              "type": "string"
            },
            {
              "internalType": "address",
              "name": "account",
              "type": "address"
            },
            {
              "internalType": "uint64",
              "name": "expiredAt",
              "type": "uint64"
            },
            {
              "internalType": "bytes",
              "name": "signature",
              "type": "bytes"
            }
          ],
          "internalType": "struct IACLCommons.ProfileMemberSignature",
          "name": "memberSign",
          "type": "tuple"
        },
        {
          "components": [
            {
              "internalType": "bytes32",
              "name": "realmId",
              "type": "bytes32"
            },
            {
              "internalType": "bytes32",
              "name": "adminId",
              "type": "bytes32"
            },
            {
              "internalType": "bytes32",
              "name": "salt",
              "type": "bytes32"
            },
            {
              "internalType": "string",
              "name": "name",
              "type": "string"
            },
            {
              "internalType": "string",
              "name": "version",
              "type": "string"
            },
            {
              "internalType": "address",
              "name": "contractId",
              "type": "address"
            },
            {
              "internalType": "address",
              "name": "subject",
              "type": "address"
            },
            {
              "internalType": "address",
              "name": "deployer",
              "type": "address"
            },
            {
              "internalType": "int16",
              "name": "functionLimit",
              "type": "int16"
            },
            {
              "internalType": "bytes",
              "name": "signature",
              "type": "bytes"
            }
          ],
          "internalType": "struct IProfileContextManagement.ProfileContextRegisterRequest[]",
          "name": "requests",
          "type": "tuple[]"
        }
      ],
      "name": "profileContextRegister",
      "outputs": [
        {
          "internalType": "bool",
          "name": "",
          "type": "bool"
        }
      ],
      "stateMutability": "nonpayable",
      "type": "function"
    },
    {
      "inputs": [
        {
          "components": [
            {
              "internalType": "string",
              "name": "profileName",
              "type": "string"
            },
            {
              "internalType": "address",
              "name": "account",
              "type": "address"
            },
            {
              "internalType": "uint64",
              "name": "expiredAt",
              "type": "uint64"
            },
            {
              "internalType": "bytes",
              "name": "signature",
              "type": "bytes"
            }
          ],
          "internalType": "struct IACLCommons.ProfileMemberSignature",
          "name": "memberSign",
          "type": "tuple"
        },
        {
          "internalType": "bytes32[]",
          "name": "contexts",
          "type": "bytes32[]"
        }
      ],
      "name": "profileContextRemove",
      "outputs": [
        {
          "internalType": "bool",
          "name": "",
          "type": "bool"
        }
      ],
      "stateMutability": "nonpayable",
      "type": "function"
    },
    {
      "inputs": [
        {
          "components": [
            {
              "internalType": "string",
              "name": "profileName",
              "type": "string"
            },
            {
              "internalType": "address",
              "name": "account",
              "type": "address"
            },
            {
              "internalType": "uint64",
              "name": "expiredAt",
              "type": "uint64"
            },
            {
              "internalType": "bytes",
              "name": "signature",
              "type": "bytes"
            }
          ],
          "internalType": "struct IACLCommons.ProfileMemberSignature",
          "name": "memberSign",
          "type": "tuple"
        },
        {
          "components": [
            {
              "internalType": "bytes32",
              "name": "entityId",
              "type": "bytes32"
            },
            {
              "internalType": "enum IACLCommons.ActivityStatus",
              "name": "acstat",
              "type": "uint8"
            }
          ],
          "internalType": "struct IACLCommons.ProfileUpdateActivityRequest[]",
          "name": "requests",
          "type": "tuple[]"
        }
      ],
      "name": "profileContextUpdateActivityStatus",
      "outputs": [
        {
          "internalType": "bool",
          "name": "",
          "type": "bool"
        }
      ],
      "stateMutability": "nonpayable",
      "type": "function"
    },
    {
      "inputs": [
        {
          "components": [
            {
              "internalType": "string",
              "name": "profileName",
              "type": "string"
            },
            {
              "internalType": "address",
              "name": "account",
              "type": "address"
            },
            {
              "internalType": "uint64",
              "name": "expiredAt",
              "type": "uint64"
            },
            {
              "internalType": "bytes",
              "name": "signature",
              "type": "bytes"
            }
          ],
          "internalType": "struct IACLCommons.ProfileMemberSignature",
          "name": "memberSign",
          "type": "tuple"
        },
        {
          "components": [
            {
              "internalType": "bytes32",
              "name": "entityId",
              "type": "bytes32"
            },
            {
              "internalType": "bytes32",
              "name": "adminId",
              "type": "bytes32"
            }
          ],
          "internalType": "struct IACLCommons.ProfileUpdateAdminRequest[]",
          "name": "requests",
          "type": "tuple[]"
        }
      ],
      "name": "profileContextUpdateAdmin",
      "outputs": [
        {
          "internalType": "bool",
          "name": "",
          "type": "bool"
        }
      ],
      "stateMutability": "nonpayable",
      "type": "function"
    },
    {
      "inputs": [
        {
          "components": [
            {
              "internalType": "string",
              "name": "profileName",
              "type": "string"
            },
            {
              "internalType": "address",
              "name": "account",
              "type": "address"
            },
            {
              "internalType": "uint64",
              "name": "expiredAt",
              "type": "uint64"
            },
            {
              "internalType": "bytes",
              "name": "signature",
              "type": "bytes"
            }
          ],
          "internalType": "struct IACLCommons.ProfileMemberSignature",
          "name": "memberSign",
          "type": "tuple"
        },
        {
          "components": [
            {
              "internalType": "bytes32",
              "name": "entityId",
              "type": "bytes32"
            },
            {
              "internalType": "enum IACLCommons.AlterabilityStatus",
              "name": "alstat",
              "type": "uint8"
            }
          ],
          "internalType": "struct IACLCommons.ProfileUpdateAlterabilityRequest[]",
          "name": "requests",
          "type": "tuple[]"
        }
      ],
      "name": "profileContextUpdateAlterabilityStatus",
      "outputs": [
        {
          "internalType": "bool",
          "name": "",
          "type": "bool"
        }
      ],
      "stateMutability": "nonpayable",
      "type": "function"
    },
    {
      "inputs": [
        {
          "components": [
            {
              "internalType": "string",
              "name": "profileName",
              "type": "string"
            },
            {
              "internalType": "address",
              "name": "account",
              "type": "address"
            },
            {
              "internalType": "uint64",
              "name": "expiredAt",
              "type": "uint64"
            },
            {
              "internalType": "bytes",
              "name": "signature",
              "type": "bytes"
            }
          ],
          "internalType": "struct IACLCommons.ProfileMemberSignature",
          "name": "memberSign",
          "type": "tuple"
        },
        {
          "components": [
            {
              "internalType": "bytes32",
              "name": "contextId",
              "type": "bytes32"
            },
            {
              "internalType": "uint8",
              "name": "functionLimit",
              "type": "uint8"
            }
          ],
          "internalType": "struct IProfileContextManagement.ProfileContextUpdateFunctionLimitRequest[]",
          "name": "requests",
          "type": "tuple[]"
        }
      ],
      "name": "profileContextUpdateFunctionLimit",
      "outputs": [
        {
          "internalType": "bool",
          "name": "",
          "type": "bool"
        }
      ],
      "stateMutability": "nonpayable",
      "type": "function"
    },
    {
      "inputs": [],
      "name": "proxiableUUID",
      "outputs": [
        {
          "internalType": "bytes32",
          "name": "",
          "type": "bytes32"
        }
      ],
      "stateMutability": "view",
      "type": "function"
    },
    {
      "inputs": [],
      "name": "safeModeStatus",
      "outputs": [
        {
          "internalType": "enum IBaseProxy.ProxySafeModeStatus",
          "name": "",
          "type": "uint8"
        }
      ],
      "stateMutability": "view",
      "type": "function"
    },
    {
      "inputs": [
        {
          "internalType": "address",
          "name": "acl",
          "type": "address"
        }
      ],
      "name": "setAccessControlManager",
      "outputs": [
        {
          "internalType": "bool",
          "name": "",
          "type": "bool"
        }
      ],
      "stateMutability": "nonpayable",
      "type": "function"
    },
    {
      "inputs": [
        {
          "internalType": "address",
          "name": "newLocalAdmin",
          "type": "address"
        }
      ],
      "name": "setLocalAdmin",
      "outputs": [
        {
          "internalType": "bool",
          "name": "",
          "type": "bool"
        }
      ],
      "stateMutability": "nonpayable",
      "type": "function"
    },
    {
      "inputs": [
        {
          "internalType": "enum IBaseProxy.ProxySafeModeStatus",
          "name": "sstat",
          "type": "uint8"
        }
      ],
      "name": "setSafeModeStatus",
      "outputs": [
        {
          "internalType": "bool",
          "name": "",
          "type": "bool"
        }
      ],
      "stateMutability": "nonpayable",
      "type": "function"
    },
    {
      "inputs": [
        {
          "internalType": "enum IBaseProxy.ProxyUpdatabilityStatus",
          "name": "ustat",
          "type": "uint8"
        }
      ],
      "name": "setUpdatabilityStatus",
      "outputs": [
        {
          "internalType": "bool",
          "name": "",
          "type": "bool"
        }
      ],
      "stateMutability": "nonpayable",
      "type": "function"
    },
    {
      "inputs": [],
      "name": "subjectAddress",
      "outputs": [
        {
          "internalType": "address",
          "name": "",
          "type": "address"
        }
      ],
      "stateMutability": "view",
      "type": "function"
    },
    {
      "inputs": [
        {
          "internalType": "bytes4",
          "name": "interfaceId",
          "type": "bytes4"
        }
      ],
      "name": "supportsInterface",
      "outputs": [
        {
          "internalType": "bool",
          "name": "",
          "type": "bool"
        }
      ],
      "stateMutability": "view",
      "type": "function"
    },
    {
      "inputs": [],
      "name": "updatabilityStatus",
      "outputs": [
        {
          "internalType": "enum IBaseProxy.ProxyUpdatabilityStatus",
          "name": "",
          "type": "uint8"
        }
      ],
      "stateMutability": "view",
      "type": "function"
    },
    {
      "inputs": [
        {
          "internalType": "address",
          "name": "newImplementation",
          "type": "address"
        },
        {
          "internalType": "bytes",
          "name": "data",
          "type": "bytes"
        },
        {
          "internalType": "bool",
          "name": "forceCall",
          "type": "bool"
        }
      ],
      "name": "upgradeTo",
      "outputs": [
        {
          "internalType": "bytes",
          "name": "",
          "type": "bytes"
        }
      ],
      "stateMutability": "nonpayable",
      "type": "function"
    },
    {
      "inputs": [
        {
          "internalType": "address",
          "name": "recepient",
          "type": "address"
        }
      ],
      "name": "withdrawBalance",
      "outputs": [
        {
          "internalType": "uint256",
          "name": "",
          "type": "uint256"
        }
      ],
      "stateMutability": "nonpayable",
      "type": "function"
    },
    {
      "stateMutability": "payable",
      "type": "receive"
    }
  ],
  "transactionHash": "0xebee08803f0115df502160a9b78ea762c6b931a1811c17ec0a1c17a2187c5753",
  "args": [],
  "numDeployments": 1,
  "solcInputHash": "bf3d37f12163392c6a812b5af749abec",
  "bytecode": "0x60a0604052306080523480156200001557600080fd5b506200004360017f360894a13ba1a3210667c828492db98dca3e2076cc3735a920a3ca505d382bbd620000fd565b7f360894a13ba1a3210667c828492db98dca3e2076cc3735a920a3ca505d382bbc1462000074576200007462000125565b620000a160017fb53127684a568b3173ae13b9f8a6016e243e63b6e8ee1178d6a717850b5d6104620000fd565b6000805160206200586f83398151915214620000c157620000c162000125565b6000805160206200586f83398151915280546001600160a01b0319163317905560028054600160a01b61ffff60a01b199091161790556200013b565b818103818111156200011f57634e487b7160e01b600052601160045260246000fd5b92915050565b634e487b7160e01b600052600160045260246000fd5b6080516156c4620001ab600039600081816107fa0152818161084301528181610c4c01528181610c8c01528181611ba201528181611e6301528181611ea301528181612bec01528181612c2c01528181612dac01528181612dec01528181612f600152612fa001526156c46000f3fe60806040526004361061021c5760003560e01c806366c4717f11610122578063a304e353116100a5578063f0b15def1161006c578063f0b15def14610727578063f698da251461075b578063f708ceb014610770578063f94a0adb14610790578063fcc40178146107a557005b8063a304e3531461068a578063ae1c4403146106a9578063b4a0bdf3146106c9578063d4b16ec2146106e7578063d9dc1f191461070757005b80637678922e116100e95780637678922e146105da5780637c9377e914610601578063825f3f87146106215780639b97b53414610641578063a0a8e4601461067557005b806366c4717f146105385780637147855d14610558578063745b95dd14610585578063756af45f146105a557806375d0c0dc146105c557005b806334109de2116101aa5780635240607c116101715780635240607c14610482578063526a770d146104a257806352d1902d146104c257806358dbc45d146104d757806364d4c8191461050457005b806334109de2146103aa57806338d38c97146103de5780634888f482146104065780634bd3691f1461042e5780634bf0414d1461044e57005b80631b452f4b116101ee5780631b452f4b146102c75780631bf82ad0146103095780631e94622714610329578063246992e414610349578063301c12801461037657005b806301ffc9a714610225578063077f224a1461025a5780630a0a3b461461027a5780630e32cb86146102a757005b3661022357005b005b34801561023157600080fd5b50610245610240366004614933565b6107c5565b60405190151581526020015b60405180910390f35b34801561026657600080fd5b506102236102753660046149a6565b6107f0565b34801561028657600080fd5b5061029a610295366004614a26565b610a26565b6040516102519190614a8b565b3480156102b357600080fd5b506102456102c2366004614b55565b610c40565b3480156102d357600080fd5b506102fb7f7bfb2abd6084c8ce20d7ff92c1620e7e7267603f0eac446b9176959d243306bc81565b604051908152602001610251565b34801561031557600080fd5b50610245610324366004614b70565b610f4e565b34801561033557600080fd5b50610245610344366004614bf8565b610fa2565b34801561035557600080fd5b50610369610364366004614a26565b611873565b6040516102519190614c60565b34801561038257600080fd5b506102fb7f541cf898e7c3085cbc6b7402ba06e7237285bc4bd5baa510e708e35537a71ffd81565b3480156103b657600080fd5b506102fb7f7aabe2571874f2a330ea11c8972d9cc3792d973efc6b36e3e29005861a34418881565b3480156103ea57600080fd5b506103f3611905565b60405161ffff9091168152602001610251565b34801561041257600080fd5b50600254600160a81b900460ff165b6040516102519190614cb4565b34801561043a57600080fd5b50610245610449366004614cc7565b611919565b34801561045a57600080fd5b506102fb7f9027b951cbdf8eff67da583391d218a57a89ec1ebfcb1c66da188e8531804d5581565b34801561048e57600080fd5b5061024561049d366004614cf3565b611968565b3480156104ae57600080fd5b506102456104bd366004614d73565b6119d7565b3480156104ce57600080fd5b506102fb611b95565b3480156104e357600080fd5b506104ec611bf2565b6040516001600160a01b039091168152602001610251565b34801561051057600080fd5b506102fb7f8b73c3c69bb8fe3d512ecc4cf759cc79239f7b179b0ffacaa9a75d522b39400f81565b34801561054457600080fd5b50610245610553366004614d73565b611bfc565b34801561056457600080fd5b50610578610573366004614dfd565b611e57565b6040516102519190614f15565b34801561059157600080fd5b506102456105a0366004614a26565b611fb6565b3480156105b157600080fd5b506102fb6105c0366004614b55565b611fed565b3480156105d157600080fd5b506105786120b2565b3480156105e657600080fd5b5073EE051361223de07E37E92af38B6A2ddFBFf826326104ec565b34801561060d57600080fd5b5061024561061c366004614bf8565b612144565b34801561062d57600080fd5b5061024561063c366004614f28565b612466565b34801561064d57600080fd5b506102fb7fdee69d384475c3656c17c592e94a2bbfd2a1998cce0c85f535569415a15863b881565b34801561068157600080fd5b506105786125f1565b34801561069657600080fd5b50600254600160a01b900460ff16610421565b3480156106b557600080fd5b506102456106c4366004614d73565b612600565b3480156106d557600080fd5b506002546001600160a01b03166104ec565b3480156106f357600080fd5b50610245610702366004614d73565b6129ba565b34801561071357600080fd5b50610245610722366004614b55565b612be0565b34801561073357600080fd5b506102fb7ffc434588684348dd50856b075c47bed14245c1030aa04c32955af5549981462781565b34801561076757600080fd5b506102fb612d96565b34801561077c57600080fd5b5061024561078b366004614f61565b612da0565b34801561079c57600080fd5b506104ec612f4a565b3480156107b157600080fd5b506102456107c0366004614f61565b612f54565b60006001600160e01b03198216637b040c9b60e11b14806107ea57506107ea826130df565b92915050565b6001600160a01b037f00000000000000000000000000000000000000000000000000000000000000001630036108415760405162461bcd60e51b815260040161083890614f7e565b60405180910390fd5b7f00000000000000000000000000000000000000000000000000000000000000006001600160a01b031661087361312f565b6001600160a01b0316146108995760405162461bcd60e51b815260040161083890614fa4565b336108a2613150565b6001600160a01b0316146108e85760405162461bcd60e51b815260206004820152600d60248201526c1058d8d95cdcc811195b9a5959609a1b6044820152606401610838565b604e5462010000900460ff161580801561090a5750604e54600161ffff909116105b806109255750303b1580156109255750604e5461ffff166001145b6109715760405162461bcd60e51b815260206004820152601c60248201527f436f6e747261637420416c726561647920496e697469616c697a6564000000006044820152606401610838565b604e805461ffff19166001179055801561099757604e805462ff00001916620100001790555b6109a48686868686613178565b6109ac61312f565b6001600160a01b031630336001600160a01b03167f247ab7b17ee489fa140c6666edc3822eefed2727610cd6e37192462b87244c60898989896109f2604e5461ffff1690565b604051610a03959493929190614ff3565b60405180910390a48015610a1e57604e805462ff0000191690555b505050505050565b610a7b6040805161014081018252600080825260208201819052918101829052606081018290526080810182905260a081018290529060c0820190815260200160008152602001600081526020016000905290565b60008381526048602052604081209080610a95838661318c565b91509150801580610ac5575060006008840154600160a01b900460ff166003811115610ac357610ac3614a48565b145b15610b24576040805161014081018252600080825260208201819052918101829052606081018290526080810182905260a081018290529060c082019081526020016000815260200160008152602001600081525093505050506107ea565b6040805161014081018252600284015481528354602082015260038401546001600160a01b03169181019190915260608101610b62600485016131ed565b60ff9081168252600385810154600160a01b900482166020808501919091526001808801546301000000900463ffffffff1660408087019190915288546000908152928a9052909120015460609093019290911690811115610bc657610bc6614a48565b8152600184015460209091019060ff166005811115610be757610be7614a48565b81526001840154602090910190610100900460ff166003811115610c0d57610c0d614a48565b8152600184015460209091019062010000900460ff166003811115610c3457610c34614a48565b90529695505050505050565b60006001600160a01b037f0000000000000000000000000000000000000000000000000000000000000000163003610c8a5760405162461bcd60e51b815260040161083890614f7e565b7f00000000000000000000000000000000000000000000000000000000000000006001600160a01b0316610cbc61312f565b6001600160a01b031614610ce25760405162461bcd60e51b815260040161083890614fa4565b6000600254600160a01b900460ff166001811115610d0257610d02614a48565b14610d1f5760405162461bcd60e51b815260040161083890615031565b6001600254600160a81b900460ff166001811115610d3f57610d3f614a48565b14610d5c5760405162461bcd60e51b815260040161083890615053565b6001600160a01b03821615801590610d7d57506001600160a01b0382163b15155b610d995760405162461bcd60e51b81526004016108389061507e565b6002546001600160a01b031615610df8576000610dbc63071965c360e11b6131f7565b90506000816013811115610dd257610dd2614a48565b14610df25780604051637f0911d160e01b815260040161083891906150a8565b50610e47565b33610e01613150565b6001600160a01b031614610e475760405162461bcd60e51b815260206004820152600d60248201526c1058d8d95cdcc811195b9a5959609a1b6044820152606401610838565b6040516301ffc9a760e01b81526331501c3960e01b60048201526001600160a01b038316906301ffc9a790602401602060405180830381865afa158015610e92573d6000803e3d6000fd5b505050506040513d601f19601f82011682018060405250810190610eb691906150bc565b610ef05760405162461bcd60e51b815260206004820152600b60248201526a125b1b1959d85b081050d360aa1b6044820152606401610838565b600280546001600160a01b0384166001600160a01b031990911681179091556040805191825251309133917f410bf468eebeeed60acaedb904afb2db7c0bb0131f7d14c3714d81b14fe8ed3c9181900360200190a35060015b919050565b6000838152604860205260408120816008820154600160a01b900460ff166003811115610f7d57610f7d614a48565b03610f8c576000915050610f9b565b610f97818585613282565b9150505b9392505050565b600080306001600160a01b031663a304e3536040518163ffffffff1660e01b8152600401602060405180830381865afa158015610fe3573d6000803e3d6000fd5b505050506040513d601f19601f8201168201806040525081019061100791906150d9565b600181111561101857611018614a48565b146110355760405162461bcd60e51b815260040161083890615031565b600061104185806150f6565b9050116110865760405162461bcd60e51b8152602060048201526013602482015272496c6c6567616c2050726f66696c654e616d6560681b6044820152606401610838565b600061109a61109586806150f6565b6132b1565b90506000806110ac60608801886150f6565b9050111561114057426110c5606088016040890161513c565b6001600160401b03161161110f5760405162461bcd60e51b815260206004820152601160248201527045787069726564205369676e617475726560781b6044820152606401610838565b611139867f9027b951cbdf8eff67da583391d218a57a89ec1ebfcb1c66da188e8531804d556132e4565b9050611143565b50335b60005b848110156118665760008087878481811061116357611163615165565b9050602002810190611175919061517b565b6111869060c081019060a001614b55565b6001600160a01b031603611403576111a160608901896150f6565b90506000036112fd5760008787848181106111be576111be615165565b90506020028101906111d0919061517b565b6111df906101208101906150f6565b905011156112f9576112f28787848181106111fc576111fc615165565b905060200281019061120e919061517b565b61121d906101208101906150f6565b8080601f0160208091040260200160405190810160405280939291908181526020018383808284376000920191909152506112ed92508891508b90508a8781811061126a5761126a615165565b905060200281019061127c919061517b565b61128e9061010081019060e001614b55565b8b8b888181106112a0576112a0615165565b90506020028101906112b2919061517b565b6112c39060e081019060c001614b55565b8c8c898181106112d5576112d5615165565b90506020028101906112e7919061517b565b3561336c565b6133e1565b92506112fd565b3392505b6113fc87878481811061131257611312615165565b9050602002810190611324919061517b565b6040013588888581811061133a5761133a615165565b905060200281019061134c919061517b565b61135e9061010081019060e001614b55565b89898681811061137057611370615165565b9050602002810190611382919061517b565b6113939060e081019060c001614b55565b6001600160a01b03169190604051733d602d80600a3d3981f3363d3d373d3d3d363d7360601b8152606093841b60148201526f5af43d82803e903d91602b57fd5bf3ff60801b6028820152921b6038830152604c8201526037808220606c830152605591012090565b905061168d565b61141060608901896150f6565b905060000361165557600087878481811061142d5761142d615165565b905060200281019061143f919061517b565b61144e906101208101906150f6565b905011156116515760006115d58589898681811061146e5761146e615165565b9050602002810190611480919061517b565b6114919060c081019060a001614b55565b6115008b8b888181106114a6576114a6615165565b90506020028101906114b8919061517b565b6114c69060608101906150f6565b8080601f01602080910402602001604051908101604052809392919081815260200183838082843760009201919091525061345f92505050565b6115358c8c8981811061151557611515615165565b9050602002810190611527919061517b565b6114c69060808101906150f6565b8c8c8981811061154757611547615165565b9050602002810190611559919061517b565b35604080517f7bfb2abd6084c8ce20d7ff92c1620e7e7267603f0eac446b9176959d243306bc60208201529081018690526001600160a01b03851660608201526080810184905260a0810183905260c0810182905260009060e00160405160208183030381529060405280519060200120905095945050505050565b90506116498888858181106115ec576115ec615165565b90506020028101906115fe919061517b565b61160d906101208101906150f6565b8080601f0160208091040260200160405190810160405280939291908181526020018383808284376000920191909152508592506133e1915050565b935050611655565b3392505b86868381811061166757611667615165565b9050602002810190611679919061517b565b61168a9060c081019060a001614b55565b90505b600073EE051361223de07E37E92af38B6A2ddFBFf82632630e80e65160448a8a878181106116bd576116bd615165565b90506020028101906116cf919061517b565b8886896040518663ffffffff1660e01b81526004016116f29594939291906151f3565b602060405180830381865af415801561170f573d6000803e3d6000fd5b505050506040513d601f19601f820116820180604052508101906117339190615346565b90508085856001600160a01b03167fc56231b3405f830a0e5d00e22d2b6f9b8c35993819745ad8b1c636946fd9f1758b8b8881811061177457611774615165565b9050602002810190611786919061517b565b358c8c8981811061179957611799615165565b90506020028101906117ab919061517b565b60200135878e8e8b8181106117c2576117c2615165565b90506020028101906117d4919061517b565b6117e69061010081019060e001614b55565b8f8f8c8181106117f8576117f8615165565b905060200281019061180a919061517b565b61181b9060e081019060c001614b55565b6040805195865260208601949094526001600160a01b03928316858501529082166060850152166080830152519081900360a00190a45050808061185e90615375565b915050611146565b5060019695505050505050565b60008281526048602052604081206060916008820154600160a01b900460ff1660038111156118a4576118a4614a48565b036118bf5750506040805160008152602081019091526107ea565b6000806118cc838661318c565b91509150806118ef57505060408051600081526020810190915291506107ea9050565b6118fb8260040161348f565b9695505050505050565b6000611914604e5461ffff1690565b905090565b600060026000848152604860205260408120600101906119388561349a565b815260208101919091526040016000206001015460ff16600581111561196057611960614a48565b149392505050565b6000838152604860205260408120816008820154600160a01b900460ff16600381111561199757611997614a48565b036119a6576000915050610f9b565b60006119b18561349a565b905060006119bf86866134c1565b90506119cc838383613282565b979650505050505050565b600080808080806119ef8963526a770d60e01b6134f8565b9450945094509450945060005b87811015611b85576000611a2d87878c8c86818110611a1d57611a1d615165565b905060400201600001358761376a565b9050611a3b816004016131ed565b8a8a84818110611a4d57611a4d615165565b9050604002016020016020810190611a65919061538e565b60ff1611611aa55760405162461bcd60e51b815260206004820152600d60248201526c125b1b1959d85b08131a5b5a5d609a1b6044820152606401610838565b898983818110611ab757611ab7615165565b9050604002016020016020810190611acf919061538e565b8160030160146101000a81548160ff021916908360ff160217905550898983818110611afd57611afd615165565b9050604002016000013585846001600160a01b03167fe7be55db13a61dda9ce65f2f75c1f1ad8e4e4c869e749b69335c6be68364248b8d8d87818110611b4557611b45615165565b9050604002016020016020810190611b5d919061538e565b60405160ff909116815260200160405180910390a45080611b7d81615375565b9150506119fc565b5060019998505050505050505050565b6000306001600160a01b037f00000000000000000000000000000000000000000000000000000000000000001614611bdf5760405162461bcd60e51b815260040161083890614f7e565b5060008051602061566f83398151915290565b600061191461312f565b60008080808080611c14896366c4717f60e01b6134f8565b9450945094509450945060005b87811015611b85576000611c508a8a84818110611c4057611c40615165565b8a92604090910201359050613859565b9050600180820154610100900460ff166003811115611c7157611c71614a48565b11611cb05760405162461bcd60e51b815260206004820152600f60248201526e10dbdb9d195e1d0811195b195d1959608a1b6044820152606401610838565b6000611cc5888884600001600001548861393b565b90506000816007811115611cdb57611cdb614a48565b14611ce957611ce9816139d0565b60008b8b85818110611cfd57611cfd615165565b9050604002016020016020810190611d1591906153be565b6003811115611d2657611d26614a48565b03611d6a5760405162461bcd60e51b8152602060048201526014602482015273496c6c6567616c20416c7465726162696c69747960601b6044820152606401610838565b8a8a84818110611d7c57611d7c615165565b9050604002016020016020810190611d9491906153be565b60018301805462ff0000191662010000836003811115611db657611db6614a48565b02179055508a8a84818110611dcd57611dcd615165565b9050604002016000013586856001600160a01b03167f35d27338f453232adaa8a6217632a483b5370e0cf4e06aef982b55a9dbadeede8e8e88818110611e1557611e15615165565b9050604002016020016020810190611e2d91906153be565b604051611e3a91906153db565b60405180910390a450508080611e4f90615375565b915050611c21565b60606001600160a01b037f0000000000000000000000000000000000000000000000000000000000000000163003611ea15760405162461bcd60e51b815260040161083890614f7e565b7f00000000000000000000000000000000000000000000000000000000000000006001600160a01b0316611ed361312f565b6001600160a01b031614611ef95760405162461bcd60e51b815260040161083890614fa4565b6000600254600160a01b900460ff166001811115611f1957611f19614a48565b14611f365760405162461bcd60e51b815260040161083890615031565b6001600254600160a81b900460ff166001811115611f5657611f56614a48565b14611f735760405162461bcd60e51b815260040161083890615053565b6001600160a01b0384163b611f9a5760405162461bcd60e51b81526004016108389061507e565b611fa384613b67565b611fae848484613c05565b949350505050565b600082815260486020908152604080832084845260019081019092528220015460029060ff16600581111561196057611960614a48565b600080600254600160a01b900460ff16600181111561200e5761200e614a48565b1461202b5760405162461bcd60e51b815260040161083890615031565b600061203d63756af45f60e01b6131f7565b9050600081601381111561205357612053614a48565b146120735780604051637f0911d160e01b815260040161083891906150a8565b60405147906001600160a01b038516904780156108fc02916000818181858888f193505050501580156120aa573d6000803e3d6000fd5b509392505050565b6060600080546120c1906153e8565b80601f01602080910402602001604051908101604052809291908181526020018280546120ed906153e8565b801561213a5780601f1061210f5761010080835404028352916020019161213a565b820191906000526020600020905b81548152906001019060200180831161211d57829003601f168201915b5050505050905090565b6000808080808061215c89637c9377e960e01b6134f8565b9450945094509450945060005b87811015611b8557600061219e8a8a8481811061218857612188615165565b905060200201358861385990919063ffffffff16565b905060006121b5888884600001600001548861393b565b905060008160078111156121cb576121cb614a48565b146121d9576121d9816139d0565b6121e5826004016131ed565b156122235760405162461bcd60e51b815260206004820152600e60248201526d496c6c6567616c2052656d6f766560901b6044820152606401610838565b60018201546301000000900463ffffffff166000036123a057600061225583600201548a613dbd90919063ffffffff16565b90506002600182015462010000900460ff16600381111561227857612278614a48565b10156122c65760405162461bcd60e51b815260206004820152601760248201527f496c6c6567616c205265616c6d20557064617461626c650000000000000000006044820152606401610838565b6122f48c8c868181106122db576122db615165565b9050602002013582600501613e9890919063ffffffff16565b50600080845560018401805466ffffffffffffff19169055600284018190556003840180546001600160a81b03191690556004840190818161233682826148e9565b505050508b8b8581811061234c5761234c615165565b9050602002013587866001600160a01b03167fc778bb6b64e56425f47c8883f9d886ad99bb4cea99b073ab3ca035868c8a527d6000604051612392911515815260200190565b60405180910390a450612451565b6002600183015462010000900460ff1660038111156123c1576123c1614a48565b10156123df5760405162461bcd60e51b815260040161083890615053565b60018201805461ff0019166101001790558a8a8481811061240257612402615165565b9050602002013586856001600160a01b03167fc778bb6b64e56425f47c8883f9d886ad99bb4cea99b073ab3ca035868c8a527d6001604051612448911515815260200190565b60405180910390a45b5050808061245e90615375565b915050612169565b6000838152604860205260408120816008820154600160a01b900460ff16600381111561249557612495614a48565b036124a4576000915050610f9b565b6000806124b1838761318c565b91509150806124c65760009350505050610f9b565b815460008181526020859052604081206001015460ff16906124e78861349a565b905060028260038111156124fd576124fd614a48565b036125815760008061250f8886613ea4565b915091508061252957600098505050505050505050610f9b565b60008061254384600301548b613eef90919063ffffffff16565b915091508061255f5760009a5050505050505050505050610f9b565b506000938452600501602052505060409020549091149450610f9b9350505050565b600382600381111561259557612595614a48565b036125e1576000806125a78886613eef565b91509150806125c157600098505050505050505050610f9b565b506000918252600501602052604090205415159550610f9b945050505050565b5060009998505050505050505050565b6060600180546120c1906153e8565b600080808080806126188963ae1c440360e01b6134f8565b9450945094509450945060005b87811015611b8557600061264687878c8c86818110611a1d57611a1d615165565b905060008a8a8481811061265c5761265c615165565b90506040020160200135146129135760018760008c8c8681811061268257612682615165565b90506040020160200135815260200190815260200160002060010160009054906101000a900460ff1660038111156126bc576126bc614a48565b116127095760405162461bcd60e51b815260206004820152601760248201527f496c6c6567616c2041646d696e204167656e74547970650000000000000000006044820152606401610838565b600080612731898d8d8781811061272257612722615165565b90506040020160200135613f06565b9150915081600581111561274757612747614a48565b600211156127975760405162461bcd60e51b815260206004820152601760248201527f496c6c6567616c2041646d696e2053636f7065547970650000000000000000006044820152606401610838565b8160058111156127a9576127a9614a48565b600203612815578b8b858181106127c2576127c2615165565b9050604002016000013581146128105760405162461bcd60e51b8152602060048201526013602482015272496c6c6567616c2041646d696e2053636f706560681b6044820152606401610838565b6128e5565b30639c194e0588838f8f8981811061282f5761282f615165565b6040805160e088901b6001600160e01b0319168152600481019690965260248601949094529092020135604483015250606401602060405180830381865afa15801561287f573d6000803e3d6000fd5b505050506040513d601f19601f820116820180604052508101906128a391906150bc565b6128e55760405162461bcd60e51b8152602060048201526013602482015272496c6c6567616c2041646d696e2053636f706560681b6044820152606401610838565b8b8b858181106128f7576128f7615165565b905060400201602001358360000160000181905550505061292c565b6002810154600090815260018801602052604090205481555b89898381811061293e5761293e615165565b9050604002016000013585846001600160a01b03167fe50d9b70472b01b0524ea4841bde156450c33f87836b40bfcd12aa7e31560c198d8d8781811061298657612986615165565b9050604002016020013560405161299f91815260200190565b60405180910390a450806129b281615375565b915050612625565b600080808080806129d289636a58b76160e11b6134f8565b9450945094509450945060005b87811015611b855760006129fe8a8a84818110611c4057611c40615165565b90506002600182015462010000900460ff166003811115612a2157612a21614a48565b1015612a3f5760405162461bcd60e51b815260040161083890615053565b6000612a54888884600001600001548861393b565b90506000816007811115612a6a57612a6a614a48565b14612a7857612a78816139d0565b60018b8b85818110612a8c57612a8c615165565b9050604002016020016020810190612aa491906153be565b6003811115612ab557612ab5614a48565b11612af55760405162461bcd60e51b815260206004820152601060248201526f496c6c6567616c20416374697669747960801b6044820152606401610838565b8a8a84818110612b0757612b07615165565b9050604002016020016020810190612b1f91906153be565b60018301805461ff001916610100836003811115612b3f57612b3f614a48565b02179055508a8a84818110612b5657612b56615165565b9050604002016000013586856001600160a01b03167f37c8861b99ec8296de642f1785be12534e356787b528f6565410ff35cf7e75188e8e88818110612b9e57612b9e615165565b9050604002016020016020810190612bb691906153be565b604051612bc391906153db565b60405180910390a450508080612bd890615375565b9150506129df565b60006001600160a01b037f0000000000000000000000000000000000000000000000000000000000000000163003612c2a5760405162461bcd60e51b815260040161083890614f7e565b7f00000000000000000000000000000000000000000000000000000000000000006001600160a01b0316612c5c61312f565b6001600160a01b031614612c825760405162461bcd60e51b815260040161083890614fa4565b6000600254600160a01b900460ff166001811115612ca257612ca2614a48565b14612cbf5760405162461bcd60e51b815260040161083890615031565b6001600254600160a81b900460ff166001811115612cdf57612cdf614a48565b14612cfc5760405162461bcd60e51b815260040161083890615053565b6000612d0e63d9dc1f1960e01b6131f7565b90506000816013811115612d2457612d24614a48565b14612d445780604051637f0911d160e01b815260040161083891906150a8565b6001600160a01b038316612d845760405162461bcd60e51b8152602060048201526007602482015266125b9d985b1a5960ca1b6044820152606401610838565b612d8d83613f90565b50600192915050565b6000611914614007565b60006001600160a01b037f0000000000000000000000000000000000000000000000000000000000000000163003612dea5760405162461bcd60e51b815260040161083890614f7e565b7f00000000000000000000000000000000000000000000000000000000000000006001600160a01b0316612e1c61312f565b6001600160a01b031614612e425760405162461bcd60e51b815260040161083890614fa4565b6000612e51604e5461ffff1690565b61ffff1611612e8d5760405162461bcd60e51b81526020600482015260086024820152671393d5081253925560c21b6044820152606401610838565b6000612e9f630f708ceb60e41b6131f7565b90506000816013811115612eb557612eb5614a48565b14612ed55780604051637f0911d160e01b815260040161083891906150a8565b6002805484919060ff60a01b1916600160a01b836001811115612efa57612efa614a48565b021790555030336001600160a01b03167fc08ec585c25f1907baaab6f278c5994531a2e34c59935b3fcfe813067a3b487885604051612f399190614cb4565b60405180910390a350600192915050565b6000611914613150565b60006001600160a01b037f0000000000000000000000000000000000000000000000000000000000000000163003612f9e5760405162461bcd60e51b815260040161083890614f7e565b7f00000000000000000000000000000000000000000000000000000000000000006001600160a01b0316612fd061312f565b6001600160a01b031614612ff65760405162461bcd60e51b815260040161083890614fa4565b6000600254600160a01b900460ff16600181111561301657613016614a48565b146130335760405162461bcd60e51b815260040161083890615031565b6000613045631f98802f60e31b6131f7565b9050600081601381111561305b5761305b614a48565b1461307b5780604051637f0911d160e01b815260040161083891906150a8565b6002805484919060ff60a81b1916600160a81b8360018111156130a0576130a0614a48565b021790555030336001600160a01b03167ff5912c5e436152157ed2b4a84bc313b4b1fe09a15b941f195d23c99a1b8c45ad85604051612f399190614cb4565b60006001600160e01b03198216633d817cff60e01b148061311057506001600160e01b031982166352d1902d60e01b145b806107ea57506301ffc9a760e01b6001600160e01b03198316146107ea565b600060008051602061566f8339815191525b546001600160a01b0316919050565b60007fb53127684a568b3173ae13b9f8a6016e243e63b6e8ee1178d6a717850b5d6103613141565b61318585858585856140bb565b5050505050565b6000818152600183016020526040812081906002600182015460ff1660058111156131b9576131b9614a48565b036131db575050604080518381526001858101602083015291902091506131e6565b600019925060009150505b9250929050565b60006107ea825490565b6002546040805163172cb29d60e11b81523060048201526001600160e01b03198416602482015233604482015290516000926001600160a01b031691632e59653a916064808301926020929190829003018187875af115801561325e573d6000803e3d6000fd5b505050506040513d601f19601f820116820180604052508101906107ea919061541c565b60008080613290868661318c565b91509150806132a457600092505050610f9b565b6118fb6004830185614284565b600082826040516020016132c692919061543d565b60405160208183030381529060405280519060200120905092915050565b6000610f9b6132f660608501856150f6565b8080601f0160208091040260200160405190810160405280939291908181526020018383808284376000920191909152506112ed925086915061333e905061109588806150f6565b61334e6040890160208a01614b55565b61335e60608a0160408b0161513c565b6001600160401b031661429c565b604080517f541cf898e7c3085cbc6b7402ba06e7237285bc4bd5baa510e708e35537a71ffd60208201529081018590526001600160a01b0380851660608301528316608082015260a0810182905260009060c0015b604051602081830303815290604052805190602001209050949350505050565b6000806133ed836142ce565b90506000806133fc838761433b565b9092509050600081600481111561341557613415614a48565b146134565760405162461bcd60e51b8152602060048201526011602482015270496c6c6567616c205369676e617475726560781b6044820152606401610838565b50949350505050565b600081604051602001613472919061544d565b604051602081830303815290604052805190602001209050919050565b60606107ea826143a6565b6040516bffffffffffffffffffffffff19606083901b166020820152600090603401613472565b6040516bffffffffffffffffffffffff19606084901b1660208201526001600160e01b0319821660348201526000906038016132c6565b60008080808080306001600160a01b031663a304e3536040518163ffffffff1660e01b8152600401602060405180830381865afa15801561353d573d6000803e3d6000fd5b505050506040513d601f19601f8201168201806040525081019061356191906150d9565b600181111561357257613572614a48565b1461358f5760405162461bcd60e51b815260040161083890615031565b600061359b88806150f6565b9050116135e05760405162461bcd60e51b8152602060048201526013602482015272496c6c6567616c2050726f66696c654e616d6560681b6044820152606401610838565b6000806135f060608a018a6150f6565b90501115613684574261360960608a0160408b0161513c565b6001600160401b0316116136535760405162461bcd60e51b815260206004820152601160248201527045787069726564205369676e617475726560781b6044820152606401610838565b61367d887f9027b951cbdf8eff67da583391d218a57a89ec1ebfcb1c66da188e8531804d556132e4565b9050613687565b50335b60006136966110958a806150f6565b6001600160e01b031989166000908152604a60205260408120549192506001600160a01b03909116906136c9828b6134c1565b905060006136d68561349a565b60405163a66ce52f60e01b8152600481018690526024810184905260448101829052909150309063a66ce52f90606401600060405180830381600087803b15801561372057600080fd5b505af1158015613734573d6000803e3d6000fd5b50505060008581526048602052604081209150613752604485614402565b919e919d50949b509099509397509295505050505050565b6000806137778685613859565b9050600180820154610100900460ff16600381111561379857613798614a48565b116137d75760405162461bcd60e51b815260206004820152600f60248201526e10dbdb9d195e1d0811195b195d1959608a1b6044820152606401610838565b6002600182015462010000900460ff1660038111156137f8576137f8614a48565b10156138165760405162461bcd60e51b815260040161083890615053565b600061382b878784600001600001548761393b565b9050600081600781111561384157613841614a48565b1461384f5761384f816139d0565b5095945050505050565b600081815260018301602052604081206002600182015460ff16600581111561388457613884614a48565b036138a15760408051848152600186016020820152209150613934565b6000600182015460ff1660058111156138bc576138bc614a48565b036138f95760405162461bcd60e51b815260206004820152600d60248201526c10d25108139bdd08119bdd5b99609a1b6044820152606401610838565b60405162461bcd60e51b815260206004820152601060248201526f125b1b1959d85b0810d2510814db1bdd60821b6044820152606401610838565b5092915050565b604051635fbcdb4b60e01b81526004810185905260248101849052604481018390526064810182905260009073EE051361223de07E37E92af38B6A2ddFBFf8263290635fbcdb4b90608401602060405180830381865af41580156139a3573d6000803e3d6000fd5b505050506040513d601f19601f820116820180604052508101906139c7919061545f565b95945050505050565b60018160078111156139e4576139e4614a48565b03613a025760405163e15df99b60e01b815260040160405180910390fd5b6002816007811115613a1657613a16614a48565b03613a345760405163c38331b560e01b815260040160405180910390fd5b6003816007811115613a4857613a48614a48565b03613a665760405163dab65f4760e01b815260040160405180910390fd5b6004816007811115613a7a57613a7a614a48565b03613a9857604051633f4b20a160e11b815260040160405180910390fd5b6005816007811115613aac57613aac614a48565b03613aca576040516308fa537360e01b815260040160405180910390fd5b6006816007811115613ade57613ade614a48565b03613afc5760405163ae0903a160e01b815260040160405180910390fd5b6007816007811115613b1057613b10614a48565b03613b2e5760405163d59825eb60e01b815260040160405180910390fd5b60405162461bcd60e51b815260206004820152600b60248201526a2ab735b737bbb71022a92960a91b6044820152606401610838565b50565b613b6f61312f565b6001600160a01b0316816001600160a01b031603613bb95760405162461bcd60e51b8152602060048201526007602482015266125b1b1959d85b60ca1b6044820152606401610838565b6000613bcb637147855d60e01b6131f7565b90506000816013811115613be157613be1614a48565b14613c015780604051637f0911d160e01b815260040161083891906150a8565b5050565b60607f4910fdfa16fed3260ed0e7147f7cc6da11a60208b5b9406d12a635614ffd91435460ff1615613c4f57613c3a846144dd565b50604080516000815260208101909152610f9b565b60008051602061566f83398151915260001b846001600160a01b03166352d1902d6040518163ffffffff1660e01b8152600401602060405180830381865afa158015613c9f573d6000803e3d6000fd5b505050506040513d601f19601f82011682018060405250810190613cc39190615346565b14613cff5760405162461bcd60e51b815260206004820152600c60248201526b496c6c6567616c205555505360a01b6044820152606401610838565b6040516301ffc9a760e01b8152633d817cff60e01b60048201526001600160a01b038516906301ffc9a790602401602060405180830381865afa158015613d4a573d6000803e3d6000fd5b505050506040513d601f19601f82011682018060405250810190613d6e91906150bc565b613dab5760405162461bcd60e51b815260206004820152600e60248201526d496c6c6567616c204950726f787960901b6044820152606401610838565b613db684848461450c565b9050610f9b565b600081815260018301602052604081206003600182015460ff166005811115613de857613de8614a48565b03613e055760408051848152600186016020820152209150613934565b6000600182015460ff166005811115613e2057613e20614a48565b03613e5d5760405162461bcd60e51b815260206004820152600d60248201526c14925108139bdd08119bdd5b99609a1b6044820152606401610838565b60405162461bcd60e51b815260206004820152601060248201526f125b1b195859db081492510814db1bdd60821b6044820152606401610838565b6000610f9b838361456d565b6000818152602083905260408120819060025b600182015460ff166003811115613ed057613ed0614a48565b036131db575050604080518381526020810185905220905060016131e6565b600081815260208390526040812081906003613eb7565b60405163139f934160e11b81526004810183905260248101829052600090819073EE051361223de07E37E92af38B6A2ddFBFf826329063273f2682906044016040805180830381865af4158015613f61573d6000803e3d6000fd5b505050506040513d601f19601f82011682018060405250810190613f859190615480565b915091509250929050565b7fb53127684a568b3173ae13b9f8a6016e243e63b6e8ee1178d6a717850b5d610380546001600160a01b0383166001600160a01b031990911681179091556040805191825251309133917f63fdbed5f2909ec44e3becc51e9d29654ce1447747914e8a6ebc019e7f640b8b9181900360200190a350565b60007f8b73c3c69bb8fe3d512ecc4cf759cc79239f7b179b0ffacaa9a75d522b39400f600060405160200161403c91906154b2565b60405160208183030381529060405280519060200120600160405160200161406491906154b2565b60408051601f1981840301815282825280516020918201209083019490945281019190915260608101919091524660808201523060a082015260c00160405160208183030381529060405280519060200120905090565b604e5462010000900460ff166141135760405162461bcd60e51b815260206004820152601960248201527f436f6e7472616374204e6f7420496e697469616c697a696e67000000000000006044820152606401610838565b6000614120858783615573565b50600161412e838583615573565b506001600160a01b0381163014614214576001600160a01b0381163b6141665760405162461bcd60e51b81526004016108389061507e565b6040516301ffc9a760e01b81526331501c3960e01b60048201526001600160a01b038216906301ffc9a790602401602060405180830381865afa1580156141b1573d6000803e3d6000fd5b505050506040513d601f19601f820116820180604052508101906141d591906150bc565b61420f5760405162461bcd60e51b815260206004820152600b60248201526a125b1b1959d85b081050d360aa1b6044820152606401610838565b614260565b6142246331501c3960e01b6107c5565b6142605760405162461bcd60e51b815260206004820152600d60248201526c139bdd0814dd5c1c1bdc9d1959609a1b6044820152606401610838565b600280546001600160b01b0319166001600160a01b03831617905561318533613f90565b60008181526001830160205260408120541515610f9b565b60408051602081018690529081018490526001600160a01b03831660608201526080810182905260009060a0016133c1565b60006107ea306001600160a01b031663f698da256040518163ffffffff1660e01b8152600401602060405180830381865afa158015614311573d6000803e3d6000fd5b505050506040513d601f19601f820116820180604052508101906143359190615346565b83614660565b60008082516041036143715760208301516040840151606085015160001a61436587828585614687565b945094505050506131e6565b825160400361439a576020830151604084015161438f868383614774565b9350935050506131e6565b506000905060026131e6565b6060816000018054806020026020016040519081016040528092919081815260200182805480156143f657602002820191906000526020600020905b8154815260200190600101908083116143e2575b50505050509050919050565b600081815260018084016020526040822090600182015460ff16600581111561442d5761442d614a48565b0361444a5760408051848152600186016020820152209150613934565b6000600182015460ff16600581111561446557614465614a48565b036144a25760405162461bcd60e51b815260206004820152600d60248201526c11925108139bdd08119bdd5b99609a1b6044820152606401610838565b60405162461bcd60e51b815260206004820152601060248201526f125b1b195859db081192510814db1bdd60821b6044820152606401610838565b60008051602061566f83398151915280546001600160a01b0319166001600160a01b0392909216919091179055565b6060614517846147ad565b6000835111806145245750815b1561455757613db684846040518060400160405280600b81526020016a10d85b1b0811985a5b195960aa1b8152506147f1565b6040805160008082526020820190925290613456565b60008181526001830160205260408120548015614656576000614591600183615632565b85549091506000906145a590600190615632565b905081811461460a5760008660000182815481106145c5576145c5615165565b90600052602060002001549050808760000184815481106145e8576145e8615165565b6000918252602080832090910192909255918252600188019052604090208390555b855486908061461b5761461b615645565b6001900381819060005260206000200160009055905585600101600086815260200190815260200160002060009055600193505050506107ea565b60009150506107ea565b60405161190160f01b602082015260228101839052604281018290526000906062016132c6565b6000807f7fffffffffffffffffffffffffffffff5d576e7357a4501ddfe92f46681b20a08311156146be575060009050600361476b565b8460ff16601b141580156146d657508460ff16601c14155b156146e7575060009050600461476b565b6040805160008082526020820180845289905260ff881692820192909252606081018690526080810185905260019060a0016020604051602081039080840390855afa15801561473b573d6000803e3d6000fd5b5050604051601f1901519150506001600160a01b0381166147645760006001925092505061476b565b9150600090505b94509492505050565b6000806001600160ff1b0383168161479160ff86901c601b61565b565b905061479f87828885614687565b935093505050935093915050565b6147b6816144dd565b6040516001600160a01b03821690309033907f8ee0f2bd29c0e6a975c3cc2e47cf2e01b5f23a9a8a02e0ed6a5a070269de3d2d90600090a450565b60606001600160a01b0384163b61484a5760405162461bcd60e51b815260206004820152601860248201527f496c6c6567616c20436f6e7472616374204164647265737300000000000000006044820152606401610838565b600080856001600160a01b031685604051614865919061544d565b600060405180830381855af49150503d80600081146148a0576040519150601f19603f3d011682016040523d82523d6000602084013e6148a5565b606091505b50915091506118fb828286606083156148bf575081610f9b565b8251156148cf5782518084602001fd5b8160405162461bcd60e51b81526004016108389190614f15565b5080546000825590600052602060002090810190613b6491905b808211156149175760008155600101614903565b5090565b80356001600160e01b031981168114610f4957600080fd5b60006020828403121561494557600080fd5b610f9b8261491b565b60008083601f84011261496057600080fd5b5081356001600160401b0381111561497757600080fd5b6020830191508360208285010111156131e657600080fd5b80356001600160a01b0381168114610f4957600080fd5b6000806000806000606086880312156149be57600080fd5b85356001600160401b03808211156149d557600080fd5b6149e189838a0161494e565b909750955060208801359150808211156149fa57600080fd5b50614a078882890161494e565b9094509250614a1a90506040870161498f565b90509295509295909350565b60008060408385031215614a3957600080fd5b50508035926020909101359150565b634e487b7160e01b600052602160045260246000fd5b60048110613b6457613b64614a48565b614a7781614a5e565b9052565b60068110614a7757614a77614a48565b60006101408201905082518252602083015160208301526040830151614abc60408401826001600160a01b03169052565b506060830151614ad1606084018260ff169052565b506080830151614ae6608084018260ff169052565b5060a0830151614afe60a084018263ffffffff169052565b5060c0830151614b1160c0840182614a6e565b5060e0830151614b2460e0840182614a7b565b5061010080840151614b3882850182614a6e565b505061012080840151614b4d82850182614a6e565b505092915050565b600060208284031215614b6757600080fd5b610f9b8261498f565b600080600060608486031215614b8557600080fd5b505081359360208301359350604090920135919050565b600060808284031215614bae57600080fd5b50919050565b60008083601f840112614bc657600080fd5b5081356001600160401b03811115614bdd57600080fd5b6020830191508360208260051b85010111156131e657600080fd5b600080600060408486031215614c0d57600080fd5b83356001600160401b0380821115614c2457600080fd5b614c3087838801614b9c565b94506020860135915080821115614c4657600080fd5b50614c5386828701614bb4565b9497909650939450505050565b6020808252825182820181905260009190848201906040850190845b81811015614c9857835183529284019291840191600101614c7c565b50909695505050505050565b60028110613b6457613b64614a48565b60208101614cc183614ca4565b91905290565b60008060408385031215614cda57600080fd5b82359150614cea6020840161498f565b90509250929050565b600080600060608486031215614d0857600080fd5b83359250614d186020850161498f565b9150614d266040850161491b565b90509250925092565b60008083601f840112614d4157600080fd5b5081356001600160401b03811115614d5857600080fd5b6020830191508360208260061b85010111156131e657600080fd5b600080600060408486031215614d8857600080fd5b83356001600160401b0380821115614d9f57600080fd5b614dab87838801614b9c565b94506020860135915080821115614dc157600080fd5b50614c5386828701614d2f565b634e487b7160e01b600052604160045260246000fd5b8015158114613b6457600080fd5b8035610f4981614de4565b600080600060608486031215614e1257600080fd5b614e1b8461498f565b925060208401356001600160401b0380821115614e3757600080fd5b818601915086601f830112614e4b57600080fd5b813581811115614e5d57614e5d614dce565b604051601f8201601f19908116603f01168101908382118183101715614e8557614e85614dce565b81604052828152896020848701011115614e9e57600080fd5b826020860160208301376000602084830101528096505050505050614d2660408501614df2565b60005b83811015614ee0578181015183820152602001614ec8565b50506000910152565b60008151808452614f01816020860160208601614ec5565b601f01601f19169290920160200192915050565b602081526000610f9b6020830184614ee9565b600080600060608486031215614f3d57600080fd5b8335925060208401359150614d266040850161498f565b60028110613b6457600080fd5b600060208284031215614f7357600080fd5b8135610f9b81614f54565b6020808252600c908201526b125b1b1959d85b0810d85b1b60a21b604082015260600190565b6020808252600c908201526b125b9d985b1a590810d85b1b60a21b604082015260600190565b81835281816020850137506000828201602090810191909152601f909101601f19169091010190565b606081526000615007606083018789614fca565b828103602084015261501a818688614fca565b91505061ffff831660408301529695505050505050565b60208082526008908201526714995a9958dd195960c21b604082015260600190565b602080825260119082015270496c6c6567616c20557064617461626c6560781b604082015260600190565b60208082526010908201526f125b1b1959d85b0810dbdb9d1c9858dd60821b604082015260600190565b6020810160148310614cc157614cc1614a48565b6000602082840312156150ce57600080fd5b8151610f9b81614de4565b6000602082840312156150eb57600080fd5b8151610f9b81614f54565b6000808335601e1984360301811261510d57600080fd5b8301803591506001600160401b0382111561512757600080fd5b6020019150368190038213156131e657600080fd5b60006020828403121561514e57600080fd5b81356001600160401b0381168114610f9b57600080fd5b634e487b7160e01b600052603260045260246000fd5b6000823561013e1983360301811261519257600080fd5b9190910192915050565b6000808335601e198436030181126151b357600080fd5b83016020810192503590506001600160401b038111156151d257600080fd5b8036038213156131e657600080fd5b8035600181900b8114610f4957600080fd5b85815260a06020820152843560a0820152602085013560c0820152604085013560e08201526000615227606087018761519c565b61014061010081818701526152416101e087018486614fca565b935061525060808b018b61519c565b9350609f196101208189880301818a015261526c878785614fca565b965061527a60a08e0161498f565b6001600160a01b0381168a870152955061529660c08e0161498f565b6001600160a01b0381166101608b015295506152b460e08e0161498f565b6001600160a01b0381166101808b015295506152d1848e016151e1565b95506152e36101a08a018760010b9052565b6152ef818e018e61519c565b965094505080888703016101c089015250505061530d838383614fca565b935050505084604083015261532d60608301856001600160a01b03169052565b6001600160a01b03831660808301529695505050505050565b60006020828403121561535857600080fd5b5051919050565b634e487b7160e01b600052601160045260246000fd5b6000600182016153875761538761535f565b5060010190565b6000602082840312156153a057600080fd5b813560ff81168114610f9b57600080fd5b60048110613b6457600080fd5b6000602082840312156153d057600080fd5b8135610f9b816153b1565b60208101614cc183614a5e565b600181811c908216806153fc57607f821691505b602082108103614bae57634e487b7160e01b600052602260045260246000fd5b60006020828403121561542e57600080fd5b815160148110610f9b57600080fd5b8183823760009101908152919050565b60008251615192818460208701614ec5565b60006020828403121561547157600080fd5b815160088110610f9b57600080fd5b6000806040838503121561549357600080fd5b8251600681106154a257600080fd5b6020939093015192949293505050565b60008083546154c0816153e8565b600182811680156154d857600181146154ed5761551c565b60ff198416875282151583028701945061551c565b8760005260208060002060005b858110156155135781548a8201529084019082016154fa565b50505082870194505b50929695505050505050565b601f82111561556e57600081815260208120601f850160051c8101602086101561554f5750805b601f850160051c820191505b81811015610a1e5782815560010161555b565b505050565b6001600160401b0383111561558a5761558a614dce565b61559e8361559883546153e8565b83615528565b6000601f8411600181146155d257600085156155ba5750838201355b600019600387901b1c1916600186901b178355613185565b600083815260209020601f19861690835b8281101561560357868501358255602094850194600190920191016155e3565b50868210156156205760001960f88860031b161c19848701351681555b505060018560011b0183555050505050565b818103818111156107ea576107ea61535f565b634e487b7160e01b600052603160045260246000fd5b808201808211156107ea576107ea61535f56fe360894a13ba1a3210667c828492db98dca3e2076cc3735a920a3ca505d382bbca26469706673582212205653701073fe48dd03591c43422b436d99dbd8f0dcc877a7b8e305643a56e29b64736f6c63430008130033b53127684a568b3173ae13b9f8a6016e243e63b6e8ee1178d6a717850b5d6103",
  "deployedBytecode": "0x60806040526004361061021c5760003560e01c806366c4717f11610122578063a304e353116100a5578063f0b15def1161006c578063f0b15def14610727578063f698da251461075b578063f708ceb014610770578063f94a0adb14610790578063fcc40178146107a557005b8063a304e3531461068a578063ae1c4403146106a9578063b4a0bdf3146106c9578063d4b16ec2146106e7578063d9dc1f191461070757005b80637678922e116100e95780637678922e146105da5780637c9377e914610601578063825f3f87146106215780639b97b53414610641578063a0a8e4601461067557005b806366c4717f146105385780637147855d14610558578063745b95dd14610585578063756af45f146105a557806375d0c0dc146105c557005b806334109de2116101aa5780635240607c116101715780635240607c14610482578063526a770d146104a257806352d1902d146104c257806358dbc45d146104d757806364d4c8191461050457005b806334109de2146103aa57806338d38c97146103de5780634888f482146104065780634bd3691f1461042e5780634bf0414d1461044e57005b80631b452f4b116101ee5780631b452f4b146102c75780631bf82ad0146103095780631e94622714610329578063246992e414610349578063301c12801461037657005b806301ffc9a714610225578063077f224a1461025a5780630a0a3b461461027a5780630e32cb86146102a757005b3661022357005b005b34801561023157600080fd5b50610245610240366004614933565b6107c5565b60405190151581526020015b60405180910390f35b34801561026657600080fd5b506102236102753660046149a6565b6107f0565b34801561028657600080fd5b5061029a610295366004614a26565b610a26565b6040516102519190614a8b565b3480156102b357600080fd5b506102456102c2366004614b55565b610c40565b3480156102d357600080fd5b506102fb7f7bfb2abd6084c8ce20d7ff92c1620e7e7267603f0eac446b9176959d243306bc81565b604051908152602001610251565b34801561031557600080fd5b50610245610324366004614b70565b610f4e565b34801561033557600080fd5b50610245610344366004614bf8565b610fa2565b34801561035557600080fd5b50610369610364366004614a26565b611873565b6040516102519190614c60565b34801561038257600080fd5b506102fb7f541cf898e7c3085cbc6b7402ba06e7237285bc4bd5baa510e708e35537a71ffd81565b3480156103b657600080fd5b506102fb7f7aabe2571874f2a330ea11c8972d9cc3792d973efc6b36e3e29005861a34418881565b3480156103ea57600080fd5b506103f3611905565b60405161ffff9091168152602001610251565b34801561041257600080fd5b50600254600160a81b900460ff165b6040516102519190614cb4565b34801561043a57600080fd5b50610245610449366004614cc7565b611919565b34801561045a57600080fd5b506102fb7f9027b951cbdf8eff67da583391d218a57a89ec1ebfcb1c66da188e8531804d5581565b34801561048e57600080fd5b5061024561049d366004614cf3565b611968565b3480156104ae57600080fd5b506102456104bd366004614d73565b6119d7565b3480156104ce57600080fd5b506102fb611b95565b3480156104e357600080fd5b506104ec611bf2565b6040516001600160a01b039091168152602001610251565b34801561051057600080fd5b506102fb7f8b73c3c69bb8fe3d512ecc4cf759cc79239f7b179b0ffacaa9a75d522b39400f81565b34801561054457600080fd5b50610245610553366004614d73565b611bfc565b34801561056457600080fd5b50610578610573366004614dfd565b611e57565b6040516102519190614f15565b34801561059157600080fd5b506102456105a0366004614a26565b611fb6565b3480156105b157600080fd5b506102fb6105c0366004614b55565b611fed565b3480156105d157600080fd5b506105786120b2565b3480156105e657600080fd5b5073__$68dc14faf17200ec68c1b553d3c187a731$__6104ec565b34801561060d57600080fd5b5061024561061c366004614bf8565b612144565b34801561062d57600080fd5b5061024561063c366004614f28565b612466565b34801561064d57600080fd5b506102fb7fdee69d384475c3656c17c592e94a2bbfd2a1998cce0c85f535569415a15863b881565b34801561068157600080fd5b506105786125f1565b34801561069657600080fd5b50600254600160a01b900460ff16610421565b3480156106b557600080fd5b506102456106c4366004614d73565b612600565b3480156106d557600080fd5b506002546001600160a01b03166104ec565b3480156106f357600080fd5b50610245610702366004614d73565b6129ba565b34801561071357600080fd5b50610245610722366004614b55565b612be0565b34801561073357600080fd5b506102fb7ffc434588684348dd50856b075c47bed14245c1030aa04c32955af5549981462781565b34801561076757600080fd5b506102fb612d96565b34801561077c57600080fd5b5061024561078b366004614f61565b612da0565b34801561079c57600080fd5b506104ec612f4a565b3480156107b157600080fd5b506102456107c0366004614f61565b612f54565b60006001600160e01b03198216637b040c9b60e11b14806107ea57506107ea826130df565b92915050565b6001600160a01b037f00000000000000000000000000000000000000000000000000000000000000001630036108415760405162461bcd60e51b815260040161083890614f7e565b60405180910390fd5b7f00000000000000000000000000000000000000000000000000000000000000006001600160a01b031661087361312f565b6001600160a01b0316146108995760405162461bcd60e51b815260040161083890614fa4565b336108a2613150565b6001600160a01b0316146108e85760405162461bcd60e51b815260206004820152600d60248201526c1058d8d95cdcc811195b9a5959609a1b6044820152606401610838565b604e5462010000900460ff161580801561090a5750604e54600161ffff909116105b806109255750303b1580156109255750604e5461ffff166001145b6109715760405162461bcd60e51b815260206004820152601c60248201527f436f6e747261637420416c726561647920496e697469616c697a6564000000006044820152606401610838565b604e805461ffff19166001179055801561099757604e805462ff00001916620100001790555b6109a48686868686613178565b6109ac61312f565b6001600160a01b031630336001600160a01b03167f247ab7b17ee489fa140c6666edc3822eefed2727610cd6e37192462b87244c60898989896109f2604e5461ffff1690565b604051610a03959493929190614ff3565b60405180910390a48015610a1e57604e805462ff0000191690555b505050505050565b610a7b6040805161014081018252600080825260208201819052918101829052606081018290526080810182905260a081018290529060c0820190815260200160008152602001600081526020016000905290565b60008381526048602052604081209080610a95838661318c565b91509150801580610ac5575060006008840154600160a01b900460ff166003811115610ac357610ac3614a48565b145b15610b24576040805161014081018252600080825260208201819052918101829052606081018290526080810182905260a081018290529060c082019081526020016000815260200160008152602001600081525093505050506107ea565b6040805161014081018252600284015481528354602082015260038401546001600160a01b03169181019190915260608101610b62600485016131ed565b60ff9081168252600385810154600160a01b900482166020808501919091526001808801546301000000900463ffffffff1660408087019190915288546000908152928a9052909120015460609093019290911690811115610bc657610bc6614a48565b8152600184015460209091019060ff166005811115610be757610be7614a48565b81526001840154602090910190610100900460ff166003811115610c0d57610c0d614a48565b8152600184015460209091019062010000900460ff166003811115610c3457610c34614a48565b90529695505050505050565b60006001600160a01b037f0000000000000000000000000000000000000000000000000000000000000000163003610c8a5760405162461bcd60e51b815260040161083890614f7e565b7f00000000000000000000000000000000000000000000000000000000000000006001600160a01b0316610cbc61312f565b6001600160a01b031614610ce25760405162461bcd60e51b815260040161083890614fa4565b6000600254600160a01b900460ff166001811115610d0257610d02614a48565b14610d1f5760405162461bcd60e51b815260040161083890615031565b6001600254600160a81b900460ff166001811115610d3f57610d3f614a48565b14610d5c5760405162461bcd60e51b815260040161083890615053565b6001600160a01b03821615801590610d7d57506001600160a01b0382163b15155b610d995760405162461bcd60e51b81526004016108389061507e565b6002546001600160a01b031615610df8576000610dbc63071965c360e11b6131f7565b90506000816013811115610dd257610dd2614a48565b14610df25780604051637f0911d160e01b815260040161083891906150a8565b50610e47565b33610e01613150565b6001600160a01b031614610e475760405162461bcd60e51b815260206004820152600d60248201526c1058d8d95cdcc811195b9a5959609a1b6044820152606401610838565b6040516301ffc9a760e01b81526331501c3960e01b60048201526001600160a01b038316906301ffc9a790602401602060405180830381865afa158015610e92573d6000803e3d6000fd5b505050506040513d601f19601f82011682018060405250810190610eb691906150bc565b610ef05760405162461bcd60e51b815260206004820152600b60248201526a125b1b1959d85b081050d360aa1b6044820152606401610838565b600280546001600160a01b0384166001600160a01b031990911681179091556040805191825251309133917f410bf468eebeeed60acaedb904afb2db7c0bb0131f7d14c3714d81b14fe8ed3c9181900360200190a35060015b919050565b6000838152604860205260408120816008820154600160a01b900460ff166003811115610f7d57610f7d614a48565b03610f8c576000915050610f9b565b610f97818585613282565b9150505b9392505050565b600080306001600160a01b031663a304e3536040518163ffffffff1660e01b8152600401602060405180830381865afa158015610fe3573d6000803e3d6000fd5b505050506040513d601f19601f8201168201806040525081019061100791906150d9565b600181111561101857611018614a48565b146110355760405162461bcd60e51b815260040161083890615031565b600061104185806150f6565b9050116110865760405162461bcd60e51b8152602060048201526013602482015272496c6c6567616c2050726f66696c654e616d6560681b6044820152606401610838565b600061109a61109586806150f6565b6132b1565b90506000806110ac60608801886150f6565b9050111561114057426110c5606088016040890161513c565b6001600160401b03161161110f5760405162461bcd60e51b815260206004820152601160248201527045787069726564205369676e617475726560781b6044820152606401610838565b611139867f9027b951cbdf8eff67da583391d218a57a89ec1ebfcb1c66da188e8531804d556132e4565b9050611143565b50335b60005b848110156118665760008087878481811061116357611163615165565b9050602002810190611175919061517b565b6111869060c081019060a001614b55565b6001600160a01b031603611403576111a160608901896150f6565b90506000036112fd5760008787848181106111be576111be615165565b90506020028101906111d0919061517b565b6111df906101208101906150f6565b905011156112f9576112f28787848181106111fc576111fc615165565b905060200281019061120e919061517b565b61121d906101208101906150f6565b8080601f0160208091040260200160405190810160405280939291908181526020018383808284376000920191909152506112ed92508891508b90508a8781811061126a5761126a615165565b905060200281019061127c919061517b565b61128e9061010081019060e001614b55565b8b8b888181106112a0576112a0615165565b90506020028101906112b2919061517b565b6112c39060e081019060c001614b55565b8c8c898181106112d5576112d5615165565b90506020028101906112e7919061517b565b3561336c565b6133e1565b92506112fd565b3392505b6113fc87878481811061131257611312615165565b9050602002810190611324919061517b565b6040013588888581811061133a5761133a615165565b905060200281019061134c919061517b565b61135e9061010081019060e001614b55565b89898681811061137057611370615165565b9050602002810190611382919061517b565b6113939060e081019060c001614b55565b6001600160a01b03169190604051733d602d80600a3d3981f3363d3d373d3d3d363d7360601b8152606093841b60148201526f5af43d82803e903d91602b57fd5bf3ff60801b6028820152921b6038830152604c8201526037808220606c830152605591012090565b905061168d565b61141060608901896150f6565b905060000361165557600087878481811061142d5761142d615165565b905060200281019061143f919061517b565b61144e906101208101906150f6565b905011156116515760006115d58589898681811061146e5761146e615165565b9050602002810190611480919061517b565b6114919060c081019060a001614b55565b6115008b8b888181106114a6576114a6615165565b90506020028101906114b8919061517b565b6114c69060608101906150f6565b8080601f01602080910402602001604051908101604052809392919081815260200183838082843760009201919091525061345f92505050565b6115358c8c8981811061151557611515615165565b9050602002810190611527919061517b565b6114c69060808101906150f6565b8c8c8981811061154757611547615165565b9050602002810190611559919061517b565b35604080517f7bfb2abd6084c8ce20d7ff92c1620e7e7267603f0eac446b9176959d243306bc60208201529081018690526001600160a01b03851660608201526080810184905260a0810183905260c0810182905260009060e00160405160208183030381529060405280519060200120905095945050505050565b90506116498888858181106115ec576115ec615165565b90506020028101906115fe919061517b565b61160d906101208101906150f6565b8080601f0160208091040260200160405190810160405280939291908181526020018383808284376000920191909152508592506133e1915050565b935050611655565b3392505b86868381811061166757611667615165565b9050602002810190611679919061517b565b61168a9060c081019060a001614b55565b90505b600073__$68dc14faf17200ec68c1b553d3c187a731$__630e80e65160448a8a878181106116bd576116bd615165565b90506020028101906116cf919061517b565b8886896040518663ffffffff1660e01b81526004016116f29594939291906151f3565b602060405180830381865af415801561170f573d6000803e3d6000fd5b505050506040513d601f19601f820116820180604052508101906117339190615346565b90508085856001600160a01b03167fc56231b3405f830a0e5d00e22d2b6f9b8c35993819745ad8b1c636946fd9f1758b8b8881811061177457611774615165565b9050602002810190611786919061517b565b358c8c8981811061179957611799615165565b90506020028101906117ab919061517b565b60200135878e8e8b8181106117c2576117c2615165565b90506020028101906117d4919061517b565b6117e69061010081019060e001614b55565b8f8f8c8181106117f8576117f8615165565b905060200281019061180a919061517b565b61181b9060e081019060c001614b55565b6040805195865260208601949094526001600160a01b03928316858501529082166060850152166080830152519081900360a00190a45050808061185e90615375565b915050611146565b5060019695505050505050565b60008281526048602052604081206060916008820154600160a01b900460ff1660038111156118a4576118a4614a48565b036118bf5750506040805160008152602081019091526107ea565b6000806118cc838661318c565b91509150806118ef57505060408051600081526020810190915291506107ea9050565b6118fb8260040161348f565b9695505050505050565b6000611914604e5461ffff1690565b905090565b600060026000848152604860205260408120600101906119388561349a565b815260208101919091526040016000206001015460ff16600581111561196057611960614a48565b149392505050565b6000838152604860205260408120816008820154600160a01b900460ff16600381111561199757611997614a48565b036119a6576000915050610f9b565b60006119b18561349a565b905060006119bf86866134c1565b90506119cc838383613282565b979650505050505050565b600080808080806119ef8963526a770d60e01b6134f8565b9450945094509450945060005b87811015611b85576000611a2d87878c8c86818110611a1d57611a1d615165565b905060400201600001358761376a565b9050611a3b816004016131ed565b8a8a84818110611a4d57611a4d615165565b9050604002016020016020810190611a65919061538e565b60ff1611611aa55760405162461bcd60e51b815260206004820152600d60248201526c125b1b1959d85b08131a5b5a5d609a1b6044820152606401610838565b898983818110611ab757611ab7615165565b9050604002016020016020810190611acf919061538e565b8160030160146101000a81548160ff021916908360ff160217905550898983818110611afd57611afd615165565b9050604002016000013585846001600160a01b03167fe7be55db13a61dda9ce65f2f75c1f1ad8e4e4c869e749b69335c6be68364248b8d8d87818110611b4557611b45615165565b9050604002016020016020810190611b5d919061538e565b60405160ff909116815260200160405180910390a45080611b7d81615375565b9150506119fc565b5060019998505050505050505050565b6000306001600160a01b037f00000000000000000000000000000000000000000000000000000000000000001614611bdf5760405162461bcd60e51b815260040161083890614f7e565b5060008051602061566f83398151915290565b600061191461312f565b60008080808080611c14896366c4717f60e01b6134f8565b9450945094509450945060005b87811015611b85576000611c508a8a84818110611c4057611c40615165565b8a92604090910201359050613859565b9050600180820154610100900460ff166003811115611c7157611c71614a48565b11611cb05760405162461bcd60e51b815260206004820152600f60248201526e10dbdb9d195e1d0811195b195d1959608a1b6044820152606401610838565b6000611cc5888884600001600001548861393b565b90506000816007811115611cdb57611cdb614a48565b14611ce957611ce9816139d0565b60008b8b85818110611cfd57611cfd615165565b9050604002016020016020810190611d1591906153be565b6003811115611d2657611d26614a48565b03611d6a5760405162461bcd60e51b8152602060048201526014602482015273496c6c6567616c20416c7465726162696c69747960601b6044820152606401610838565b8a8a84818110611d7c57611d7c615165565b9050604002016020016020810190611d9491906153be565b60018301805462ff0000191662010000836003811115611db657611db6614a48565b02179055508a8a84818110611dcd57611dcd615165565b9050604002016000013586856001600160a01b03167f35d27338f453232adaa8a6217632a483b5370e0cf4e06aef982b55a9dbadeede8e8e88818110611e1557611e15615165565b9050604002016020016020810190611e2d91906153be565b604051611e3a91906153db565b60405180910390a450508080611e4f90615375565b915050611c21565b60606001600160a01b037f0000000000000000000000000000000000000000000000000000000000000000163003611ea15760405162461bcd60e51b815260040161083890614f7e565b7f00000000000000000000000000000000000000000000000000000000000000006001600160a01b0316611ed361312f565b6001600160a01b031614611ef95760405162461bcd60e51b815260040161083890614fa4565b6000600254600160a01b900460ff166001811115611f1957611f19614a48565b14611f365760405162461bcd60e51b815260040161083890615031565b6001600254600160a81b900460ff166001811115611f5657611f56614a48565b14611f735760405162461bcd60e51b815260040161083890615053565b6001600160a01b0384163b611f9a5760405162461bcd60e51b81526004016108389061507e565b611fa384613b67565b611fae848484613c05565b949350505050565b600082815260486020908152604080832084845260019081019092528220015460029060ff16600581111561196057611960614a48565b600080600254600160a01b900460ff16600181111561200e5761200e614a48565b1461202b5760405162461bcd60e51b815260040161083890615031565b600061203d63756af45f60e01b6131f7565b9050600081601381111561205357612053614a48565b146120735780604051637f0911d160e01b815260040161083891906150a8565b60405147906001600160a01b038516904780156108fc02916000818181858888f193505050501580156120aa573d6000803e3d6000fd5b509392505050565b6060600080546120c1906153e8565b80601f01602080910402602001604051908101604052809291908181526020018280546120ed906153e8565b801561213a5780601f1061210f5761010080835404028352916020019161213a565b820191906000526020600020905b81548152906001019060200180831161211d57829003601f168201915b5050505050905090565b6000808080808061215c89637c9377e960e01b6134f8565b9450945094509450945060005b87811015611b8557600061219e8a8a8481811061218857612188615165565b905060200201358861385990919063ffffffff16565b905060006121b5888884600001600001548861393b565b905060008160078111156121cb576121cb614a48565b146121d9576121d9816139d0565b6121e5826004016131ed565b156122235760405162461bcd60e51b815260206004820152600e60248201526d496c6c6567616c2052656d6f766560901b6044820152606401610838565b60018201546301000000900463ffffffff166000036123a057600061225583600201548a613dbd90919063ffffffff16565b90506002600182015462010000900460ff16600381111561227857612278614a48565b10156122c65760405162461bcd60e51b815260206004820152601760248201527f496c6c6567616c205265616c6d20557064617461626c650000000000000000006044820152606401610838565b6122f48c8c868181106122db576122db615165565b9050602002013582600501613e9890919063ffffffff16565b50600080845560018401805466ffffffffffffff19169055600284018190556003840180546001600160a81b03191690556004840190818161233682826148e9565b505050508b8b8581811061234c5761234c615165565b9050602002013587866001600160a01b03167fc778bb6b64e56425f47c8883f9d886ad99bb4cea99b073ab3ca035868c8a527d6000604051612392911515815260200190565b60405180910390a450612451565b6002600183015462010000900460ff1660038111156123c1576123c1614a48565b10156123df5760405162461bcd60e51b815260040161083890615053565b60018201805461ff0019166101001790558a8a8481811061240257612402615165565b9050602002013586856001600160a01b03167fc778bb6b64e56425f47c8883f9d886ad99bb4cea99b073ab3ca035868c8a527d6001604051612448911515815260200190565b60405180910390a45b5050808061245e90615375565b915050612169565b6000838152604860205260408120816008820154600160a01b900460ff16600381111561249557612495614a48565b036124a4576000915050610f9b565b6000806124b1838761318c565b91509150806124c65760009350505050610f9b565b815460008181526020859052604081206001015460ff16906124e78861349a565b905060028260038111156124fd576124fd614a48565b036125815760008061250f8886613ea4565b915091508061252957600098505050505050505050610f9b565b60008061254384600301548b613eef90919063ffffffff16565b915091508061255f5760009a5050505050505050505050610f9b565b506000938452600501602052505060409020549091149450610f9b9350505050565b600382600381111561259557612595614a48565b036125e1576000806125a78886613eef565b91509150806125c157600098505050505050505050610f9b565b506000918252600501602052604090205415159550610f9b945050505050565b5060009998505050505050505050565b6060600180546120c1906153e8565b600080808080806126188963ae1c440360e01b6134f8565b9450945094509450945060005b87811015611b8557600061264687878c8c86818110611a1d57611a1d615165565b905060008a8a8481811061265c5761265c615165565b90506040020160200135146129135760018760008c8c8681811061268257612682615165565b90506040020160200135815260200190815260200160002060010160009054906101000a900460ff1660038111156126bc576126bc614a48565b116127095760405162461bcd60e51b815260206004820152601760248201527f496c6c6567616c2041646d696e204167656e74547970650000000000000000006044820152606401610838565b600080612731898d8d8781811061272257612722615165565b90506040020160200135613f06565b9150915081600581111561274757612747614a48565b600211156127975760405162461bcd60e51b815260206004820152601760248201527f496c6c6567616c2041646d696e2053636f7065547970650000000000000000006044820152606401610838565b8160058111156127a9576127a9614a48565b600203612815578b8b858181106127c2576127c2615165565b9050604002016000013581146128105760405162461bcd60e51b8152602060048201526013602482015272496c6c6567616c2041646d696e2053636f706560681b6044820152606401610838565b6128e5565b30639c194e0588838f8f8981811061282f5761282f615165565b6040805160e088901b6001600160e01b0319168152600481019690965260248601949094529092020135604483015250606401602060405180830381865afa15801561287f573d6000803e3d6000fd5b505050506040513d601f19601f820116820180604052508101906128a391906150bc565b6128e55760405162461bcd60e51b8152602060048201526013602482015272496c6c6567616c2041646d696e2053636f706560681b6044820152606401610838565b8b8b858181106128f7576128f7615165565b905060400201602001358360000160000181905550505061292c565b6002810154600090815260018801602052604090205481555b89898381811061293e5761293e615165565b9050604002016000013585846001600160a01b03167fe50d9b70472b01b0524ea4841bde156450c33f87836b40bfcd12aa7e31560c198d8d8781811061298657612986615165565b9050604002016020013560405161299f91815260200190565b60405180910390a450806129b281615375565b915050612625565b600080808080806129d289636a58b76160e11b6134f8565b9450945094509450945060005b87811015611b855760006129fe8a8a84818110611c4057611c40615165565b90506002600182015462010000900460ff166003811115612a2157612a21614a48565b1015612a3f5760405162461bcd60e51b815260040161083890615053565b6000612a54888884600001600001548861393b565b90506000816007811115612a6a57612a6a614a48565b14612a7857612a78816139d0565b60018b8b85818110612a8c57612a8c615165565b9050604002016020016020810190612aa491906153be565b6003811115612ab557612ab5614a48565b11612af55760405162461bcd60e51b815260206004820152601060248201526f496c6c6567616c20416374697669747960801b6044820152606401610838565b8a8a84818110612b0757612b07615165565b9050604002016020016020810190612b1f91906153be565b60018301805461ff001916610100836003811115612b3f57612b3f614a48565b02179055508a8a84818110612b5657612b56615165565b9050604002016000013586856001600160a01b03167f37c8861b99ec8296de642f1785be12534e356787b528f6565410ff35cf7e75188e8e88818110612b9e57612b9e615165565b9050604002016020016020810190612bb691906153be565b604051612bc391906153db565b60405180910390a450508080612bd890615375565b9150506129df565b60006001600160a01b037f0000000000000000000000000000000000000000000000000000000000000000163003612c2a5760405162461bcd60e51b815260040161083890614f7e565b7f00000000000000000000000000000000000000000000000000000000000000006001600160a01b0316612c5c61312f565b6001600160a01b031614612c825760405162461bcd60e51b815260040161083890614fa4565b6000600254600160a01b900460ff166001811115612ca257612ca2614a48565b14612cbf5760405162461bcd60e51b815260040161083890615031565b6001600254600160a81b900460ff166001811115612cdf57612cdf614a48565b14612cfc5760405162461bcd60e51b815260040161083890615053565b6000612d0e63d9dc1f1960e01b6131f7565b90506000816013811115612d2457612d24614a48565b14612d445780604051637f0911d160e01b815260040161083891906150a8565b6001600160a01b038316612d845760405162461bcd60e51b8152602060048201526007602482015266125b9d985b1a5960ca1b6044820152606401610838565b612d8d83613f90565b50600192915050565b6000611914614007565b60006001600160a01b037f0000000000000000000000000000000000000000000000000000000000000000163003612dea5760405162461bcd60e51b815260040161083890614f7e565b7f00000000000000000000000000000000000000000000000000000000000000006001600160a01b0316612e1c61312f565b6001600160a01b031614612e425760405162461bcd60e51b815260040161083890614fa4565b6000612e51604e5461ffff1690565b61ffff1611612e8d5760405162461bcd60e51b81526020600482015260086024820152671393d5081253925560c21b6044820152606401610838565b6000612e9f630f708ceb60e41b6131f7565b90506000816013811115612eb557612eb5614a48565b14612ed55780604051637f0911d160e01b815260040161083891906150a8565b6002805484919060ff60a01b1916600160a01b836001811115612efa57612efa614a48565b021790555030336001600160a01b03167fc08ec585c25f1907baaab6f278c5994531a2e34c59935b3fcfe813067a3b487885604051612f399190614cb4565b60405180910390a350600192915050565b6000611914613150565b60006001600160a01b037f0000000000000000000000000000000000000000000000000000000000000000163003612f9e5760405162461bcd60e51b815260040161083890614f7e565b7f00000000000000000000000000000000000000000000000000000000000000006001600160a01b0316612fd061312f565b6001600160a01b031614612ff65760405162461bcd60e51b815260040161083890614fa4565b6000600254600160a01b900460ff16600181111561301657613016614a48565b146130335760405162461bcd60e51b815260040161083890615031565b6000613045631f98802f60e31b6131f7565b9050600081601381111561305b5761305b614a48565b1461307b5780604051637f0911d160e01b815260040161083891906150a8565b6002805484919060ff60a81b1916600160a81b8360018111156130a0576130a0614a48565b021790555030336001600160a01b03167ff5912c5e436152157ed2b4a84bc313b4b1fe09a15b941f195d23c99a1b8c45ad85604051612f399190614cb4565b60006001600160e01b03198216633d817cff60e01b148061311057506001600160e01b031982166352d1902d60e01b145b806107ea57506301ffc9a760e01b6001600160e01b03198316146107ea565b600060008051602061566f8339815191525b546001600160a01b0316919050565b60007fb53127684a568b3173ae13b9f8a6016e243e63b6e8ee1178d6a717850b5d6103613141565b61318585858585856140bb565b5050505050565b6000818152600183016020526040812081906002600182015460ff1660058111156131b9576131b9614a48565b036131db575050604080518381526001858101602083015291902091506131e6565b600019925060009150505b9250929050565b60006107ea825490565b6002546040805163172cb29d60e11b81523060048201526001600160e01b03198416602482015233604482015290516000926001600160a01b031691632e59653a916064808301926020929190829003018187875af115801561325e573d6000803e3d6000fd5b505050506040513d601f19601f820116820180604052508101906107ea919061541c565b60008080613290868661318c565b91509150806132a457600092505050610f9b565b6118fb6004830185614284565b600082826040516020016132c692919061543d565b60405160208183030381529060405280519060200120905092915050565b6000610f9b6132f660608501856150f6565b8080601f0160208091040260200160405190810160405280939291908181526020018383808284376000920191909152506112ed925086915061333e905061109588806150f6565b61334e6040890160208a01614b55565b61335e60608a0160408b0161513c565b6001600160401b031661429c565b604080517f541cf898e7c3085cbc6b7402ba06e7237285bc4bd5baa510e708e35537a71ffd60208201529081018590526001600160a01b0380851660608301528316608082015260a0810182905260009060c0015b604051602081830303815290604052805190602001209050949350505050565b6000806133ed836142ce565b90506000806133fc838761433b565b9092509050600081600481111561341557613415614a48565b146134565760405162461bcd60e51b8152602060048201526011602482015270496c6c6567616c205369676e617475726560781b6044820152606401610838565b50949350505050565b600081604051602001613472919061544d565b604051602081830303815290604052805190602001209050919050565b60606107ea826143a6565b6040516bffffffffffffffffffffffff19606083901b166020820152600090603401613472565b6040516bffffffffffffffffffffffff19606084901b1660208201526001600160e01b0319821660348201526000906038016132c6565b60008080808080306001600160a01b031663a304e3536040518163ffffffff1660e01b8152600401602060405180830381865afa15801561353d573d6000803e3d6000fd5b505050506040513d601f19601f8201168201806040525081019061356191906150d9565b600181111561357257613572614a48565b1461358f5760405162461bcd60e51b815260040161083890615031565b600061359b88806150f6565b9050116135e05760405162461bcd60e51b8152602060048201526013602482015272496c6c6567616c2050726f66696c654e616d6560681b6044820152606401610838565b6000806135f060608a018a6150f6565b90501115613684574261360960608a0160408b0161513c565b6001600160401b0316116136535760405162461bcd60e51b815260206004820152601160248201527045787069726564205369676e617475726560781b6044820152606401610838565b61367d887f9027b951cbdf8eff67da583391d218a57a89ec1ebfcb1c66da188e8531804d556132e4565b9050613687565b50335b60006136966110958a806150f6565b6001600160e01b031989166000908152604a60205260408120549192506001600160a01b03909116906136c9828b6134c1565b905060006136d68561349a565b60405163a66ce52f60e01b8152600481018690526024810184905260448101829052909150309063a66ce52f90606401600060405180830381600087803b15801561372057600080fd5b505af1158015613734573d6000803e3d6000fd5b50505060008581526048602052604081209150613752604485614402565b919e919d50949b509099509397509295505050505050565b6000806137778685613859565b9050600180820154610100900460ff16600381111561379857613798614a48565b116137d75760405162461bcd60e51b815260206004820152600f60248201526e10dbdb9d195e1d0811195b195d1959608a1b6044820152606401610838565b6002600182015462010000900460ff1660038111156137f8576137f8614a48565b10156138165760405162461bcd60e51b815260040161083890615053565b600061382b878784600001600001548761393b565b9050600081600781111561384157613841614a48565b1461384f5761384f816139d0565b5095945050505050565b600081815260018301602052604081206002600182015460ff16600581111561388457613884614a48565b036138a15760408051848152600186016020820152209150613934565b6000600182015460ff1660058111156138bc576138bc614a48565b036138f95760405162461bcd60e51b815260206004820152600d60248201526c10d25108139bdd08119bdd5b99609a1b6044820152606401610838565b60405162461bcd60e51b815260206004820152601060248201526f125b1b1959d85b0810d2510814db1bdd60821b6044820152606401610838565b5092915050565b604051635fbcdb4b60e01b81526004810185905260248101849052604481018390526064810182905260009073__$68dc14faf17200ec68c1b553d3c187a731$__90635fbcdb4b90608401602060405180830381865af41580156139a3573d6000803e3d6000fd5b505050506040513d601f19601f820116820180604052508101906139c7919061545f565b95945050505050565b60018160078111156139e4576139e4614a48565b03613a025760405163e15df99b60e01b815260040160405180910390fd5b6002816007811115613a1657613a16614a48565b03613a345760405163c38331b560e01b815260040160405180910390fd5b6003816007811115613a4857613a48614a48565b03613a665760405163dab65f4760e01b815260040160405180910390fd5b6004816007811115613a7a57613a7a614a48565b03613a9857604051633f4b20a160e11b815260040160405180910390fd5b6005816007811115613aac57613aac614a48565b03613aca576040516308fa537360e01b815260040160405180910390fd5b6006816007811115613ade57613ade614a48565b03613afc5760405163ae0903a160e01b815260040160405180910390fd5b6007816007811115613b1057613b10614a48565b03613b2e5760405163d59825eb60e01b815260040160405180910390fd5b60405162461bcd60e51b815260206004820152600b60248201526a2ab735b737bbb71022a92960a91b6044820152606401610838565b50565b613b6f61312f565b6001600160a01b0316816001600160a01b031603613bb95760405162461bcd60e51b8152602060048201526007602482015266125b1b1959d85b60ca1b6044820152606401610838565b6000613bcb637147855d60e01b6131f7565b90506000816013811115613be157613be1614a48565b14613c015780604051637f0911d160e01b815260040161083891906150a8565b5050565b60607f4910fdfa16fed3260ed0e7147f7cc6da11a60208b5b9406d12a635614ffd91435460ff1615613c4f57613c3a846144dd565b50604080516000815260208101909152610f9b565b60008051602061566f83398151915260001b846001600160a01b03166352d1902d6040518163ffffffff1660e01b8152600401602060405180830381865afa158015613c9f573d6000803e3d6000fd5b505050506040513d601f19601f82011682018060405250810190613cc39190615346565b14613cff5760405162461bcd60e51b815260206004820152600c60248201526b496c6c6567616c205555505360a01b6044820152606401610838565b6040516301ffc9a760e01b8152633d817cff60e01b60048201526001600160a01b038516906301ffc9a790602401602060405180830381865afa158015613d4a573d6000803e3d6000fd5b505050506040513d601f19601f82011682018060405250810190613d6e91906150bc565b613dab5760405162461bcd60e51b815260206004820152600e60248201526d496c6c6567616c204950726f787960901b6044820152606401610838565b613db684848461450c565b9050610f9b565b600081815260018301602052604081206003600182015460ff166005811115613de857613de8614a48565b03613e055760408051848152600186016020820152209150613934565b6000600182015460ff166005811115613e2057613e20614a48565b03613e5d5760405162461bcd60e51b815260206004820152600d60248201526c14925108139bdd08119bdd5b99609a1b6044820152606401610838565b60405162461bcd60e51b815260206004820152601060248201526f125b1b195859db081492510814db1bdd60821b6044820152606401610838565b6000610f9b838361456d565b6000818152602083905260408120819060025b600182015460ff166003811115613ed057613ed0614a48565b036131db575050604080518381526020810185905220905060016131e6565b600081815260208390526040812081906003613eb7565b60405163139f934160e11b81526004810183905260248101829052600090819073__$68dc14faf17200ec68c1b553d3c187a731$__9063273f2682906044016040805180830381865af4158015613f61573d6000803e3d6000fd5b505050506040513d601f19601f82011682018060405250810190613f859190615480565b915091509250929050565b7fb53127684a568b3173ae13b9f8a6016e243e63b6e8ee1178d6a717850b5d610380546001600160a01b0383166001600160a01b031990911681179091556040805191825251309133917f63fdbed5f2909ec44e3becc51e9d29654ce1447747914e8a6ebc019e7f640b8b9181900360200190a350565b60007f8b73c3c69bb8fe3d512ecc4cf759cc79239f7b179b0ffacaa9a75d522b39400f600060405160200161403c91906154b2565b60405160208183030381529060405280519060200120600160405160200161406491906154b2565b60408051601f1981840301815282825280516020918201209083019490945281019190915260608101919091524660808201523060a082015260c00160405160208183030381529060405280519060200120905090565b604e5462010000900460ff166141135760405162461bcd60e51b815260206004820152601960248201527f436f6e7472616374204e6f7420496e697469616c697a696e67000000000000006044820152606401610838565b6000614120858783615573565b50600161412e838583615573565b506001600160a01b0381163014614214576001600160a01b0381163b6141665760405162461bcd60e51b81526004016108389061507e565b6040516301ffc9a760e01b81526331501c3960e01b60048201526001600160a01b038216906301ffc9a790602401602060405180830381865afa1580156141b1573d6000803e3d6000fd5b505050506040513d601f19601f820116820180604052508101906141d591906150bc565b61420f5760405162461bcd60e51b815260206004820152600b60248201526a125b1b1959d85b081050d360aa1b6044820152606401610838565b614260565b6142246331501c3960e01b6107c5565b6142605760405162461bcd60e51b815260206004820152600d60248201526c139bdd0814dd5c1c1bdc9d1959609a1b6044820152606401610838565b600280546001600160b01b0319166001600160a01b03831617905561318533613f90565b60008181526001830160205260408120541515610f9b565b60408051602081018690529081018490526001600160a01b03831660608201526080810182905260009060a0016133c1565b60006107ea306001600160a01b031663f698da256040518163ffffffff1660e01b8152600401602060405180830381865afa158015614311573d6000803e3d6000fd5b505050506040513d601f19601f820116820180604052508101906143359190615346565b83614660565b60008082516041036143715760208301516040840151606085015160001a61436587828585614687565b945094505050506131e6565b825160400361439a576020830151604084015161438f868383614774565b9350935050506131e6565b506000905060026131e6565b6060816000018054806020026020016040519081016040528092919081815260200182805480156143f657602002820191906000526020600020905b8154815260200190600101908083116143e2575b50505050509050919050565b600081815260018084016020526040822090600182015460ff16600581111561442d5761442d614a48565b0361444a5760408051848152600186016020820152209150613934565b6000600182015460ff16600581111561446557614465614a48565b036144a25760405162461bcd60e51b815260206004820152600d60248201526c11925108139bdd08119bdd5b99609a1b6044820152606401610838565b60405162461bcd60e51b815260206004820152601060248201526f125b1b195859db081192510814db1bdd60821b6044820152606401610838565b60008051602061566f83398151915280546001600160a01b0319166001600160a01b0392909216919091179055565b6060614517846147ad565b6000835111806145245750815b1561455757613db684846040518060400160405280600b81526020016a10d85b1b0811985a5b195960aa1b8152506147f1565b6040805160008082526020820190925290613456565b60008181526001830160205260408120548015614656576000614591600183615632565b85549091506000906145a590600190615632565b905081811461460a5760008660000182815481106145c5576145c5615165565b90600052602060002001549050808760000184815481106145e8576145e8615165565b6000918252602080832090910192909255918252600188019052604090208390555b855486908061461b5761461b615645565b6001900381819060005260206000200160009055905585600101600086815260200190815260200160002060009055600193505050506107ea565b60009150506107ea565b60405161190160f01b602082015260228101839052604281018290526000906062016132c6565b6000807f7fffffffffffffffffffffffffffffff5d576e7357a4501ddfe92f46681b20a08311156146be575060009050600361476b565b8460ff16601b141580156146d657508460ff16601c14155b156146e7575060009050600461476b565b6040805160008082526020820180845289905260ff881692820192909252606081018690526080810185905260019060a0016020604051602081039080840390855afa15801561473b573d6000803e3d6000fd5b5050604051601f1901519150506001600160a01b0381166147645760006001925092505061476b565b9150600090505b94509492505050565b6000806001600160ff1b0383168161479160ff86901c601b61565b565b905061479f87828885614687565b935093505050935093915050565b6147b6816144dd565b6040516001600160a01b03821690309033907f8ee0f2bd29c0e6a975c3cc2e47cf2e01b5f23a9a8a02e0ed6a5a070269de3d2d90600090a450565b60606001600160a01b0384163b61484a5760405162461bcd60e51b815260206004820152601860248201527f496c6c6567616c20436f6e7472616374204164647265737300000000000000006044820152606401610838565b600080856001600160a01b031685604051614865919061544d565b600060405180830381855af49150503d80600081146148a0576040519150601f19603f3d011682016040523d82523d6000602084013e6148a5565b606091505b50915091506118fb828286606083156148bf575081610f9b565b8251156148cf5782518084602001fd5b8160405162461bcd60e51b81526004016108389190614f15565b5080546000825590600052602060002090810190613b6491905b808211156149175760008155600101614903565b5090565b80356001600160e01b031981168114610f4957600080fd5b60006020828403121561494557600080fd5b610f9b8261491b565b60008083601f84011261496057600080fd5b5081356001600160401b0381111561497757600080fd5b6020830191508360208285010111156131e657600080fd5b80356001600160a01b0381168114610f4957600080fd5b6000806000806000606086880312156149be57600080fd5b85356001600160401b03808211156149d557600080fd5b6149e189838a0161494e565b909750955060208801359150808211156149fa57600080fd5b50614a078882890161494e565b9094509250614a1a90506040870161498f565b90509295509295909350565b60008060408385031215614a3957600080fd5b50508035926020909101359150565b634e487b7160e01b600052602160045260246000fd5b60048110613b6457613b64614a48565b614a7781614a5e565b9052565b60068110614a7757614a77614a48565b60006101408201905082518252602083015160208301526040830151614abc60408401826001600160a01b03169052565b506060830151614ad1606084018260ff169052565b506080830151614ae6608084018260ff169052565b5060a0830151614afe60a084018263ffffffff169052565b5060c0830151614b1160c0840182614a6e565b5060e0830151614b2460e0840182614a7b565b5061010080840151614b3882850182614a6e565b505061012080840151614b4d82850182614a6e565b505092915050565b600060208284031215614b6757600080fd5b610f9b8261498f565b600080600060608486031215614b8557600080fd5b505081359360208301359350604090920135919050565b600060808284031215614bae57600080fd5b50919050565b60008083601f840112614bc657600080fd5b5081356001600160401b03811115614bdd57600080fd5b6020830191508360208260051b85010111156131e657600080fd5b600080600060408486031215614c0d57600080fd5b83356001600160401b0380821115614c2457600080fd5b614c3087838801614b9c565b94506020860135915080821115614c4657600080fd5b50614c5386828701614bb4565b9497909650939450505050565b6020808252825182820181905260009190848201906040850190845b81811015614c9857835183529284019291840191600101614c7c565b50909695505050505050565b60028110613b6457613b64614a48565b60208101614cc183614ca4565b91905290565b60008060408385031215614cda57600080fd5b82359150614cea6020840161498f565b90509250929050565b600080600060608486031215614d0857600080fd5b83359250614d186020850161498f565b9150614d266040850161491b565b90509250925092565b60008083601f840112614d4157600080fd5b5081356001600160401b03811115614d5857600080fd5b6020830191508360208260061b85010111156131e657600080fd5b600080600060408486031215614d8857600080fd5b83356001600160401b0380821115614d9f57600080fd5b614dab87838801614b9c565b94506020860135915080821115614dc157600080fd5b50614c5386828701614d2f565b634e487b7160e01b600052604160045260246000fd5b8015158114613b6457600080fd5b8035610f4981614de4565b600080600060608486031215614e1257600080fd5b614e1b8461498f565b925060208401356001600160401b0380821115614e3757600080fd5b818601915086601f830112614e4b57600080fd5b813581811115614e5d57614e5d614dce565b604051601f8201601f19908116603f01168101908382118183101715614e8557614e85614dce565b81604052828152896020848701011115614e9e57600080fd5b826020860160208301376000602084830101528096505050505050614d2660408501614df2565b60005b83811015614ee0578181015183820152602001614ec8565b50506000910152565b60008151808452614f01816020860160208601614ec5565b601f01601f19169290920160200192915050565b602081526000610f9b6020830184614ee9565b600080600060608486031215614f3d57600080fd5b8335925060208401359150614d266040850161498f565b60028110613b6457600080fd5b600060208284031215614f7357600080fd5b8135610f9b81614f54565b6020808252600c908201526b125b1b1959d85b0810d85b1b60a21b604082015260600190565b6020808252600c908201526b125b9d985b1a590810d85b1b60a21b604082015260600190565b81835281816020850137506000828201602090810191909152601f909101601f19169091010190565b606081526000615007606083018789614fca565b828103602084015261501a818688614fca565b91505061ffff831660408301529695505050505050565b60208082526008908201526714995a9958dd195960c21b604082015260600190565b602080825260119082015270496c6c6567616c20557064617461626c6560781b604082015260600190565b60208082526010908201526f125b1b1959d85b0810dbdb9d1c9858dd60821b604082015260600190565b6020810160148310614cc157614cc1614a48565b6000602082840312156150ce57600080fd5b8151610f9b81614de4565b6000602082840312156150eb57600080fd5b8151610f9b81614f54565b6000808335601e1984360301811261510d57600080fd5b8301803591506001600160401b0382111561512757600080fd5b6020019150368190038213156131e657600080fd5b60006020828403121561514e57600080fd5b81356001600160401b0381168114610f9b57600080fd5b634e487b7160e01b600052603260045260246000fd5b6000823561013e1983360301811261519257600080fd5b9190910192915050565b6000808335601e198436030181126151b357600080fd5b83016020810192503590506001600160401b038111156151d257600080fd5b8036038213156131e657600080fd5b8035600181900b8114610f4957600080fd5b85815260a06020820152843560a0820152602085013560c0820152604085013560e08201526000615227606087018761519c565b61014061010081818701526152416101e087018486614fca565b935061525060808b018b61519c565b9350609f196101208189880301818a015261526c878785614fca565b965061527a60a08e0161498f565b6001600160a01b0381168a870152955061529660c08e0161498f565b6001600160a01b0381166101608b015295506152b460e08e0161498f565b6001600160a01b0381166101808b015295506152d1848e016151e1565b95506152e36101a08a018760010b9052565b6152ef818e018e61519c565b965094505080888703016101c089015250505061530d838383614fca565b935050505084604083015261532d60608301856001600160a01b03169052565b6001600160a01b03831660808301529695505050505050565b60006020828403121561535857600080fd5b5051919050565b634e487b7160e01b600052601160045260246000fd5b6000600182016153875761538761535f565b5060010190565b6000602082840312156153a057600080fd5b813560ff81168114610f9b57600080fd5b60048110613b6457600080fd5b6000602082840312156153d057600080fd5b8135610f9b816153b1565b60208101614cc183614a5e565b600181811c908216806153fc57607f821691505b602082108103614bae57634e487b7160e01b600052602260045260246000fd5b60006020828403121561542e57600080fd5b815160148110610f9b57600080fd5b8183823760009101908152919050565b60008251615192818460208701614ec5565b60006020828403121561547157600080fd5b815160088110610f9b57600080fd5b6000806040838503121561549357600080fd5b8251600681106154a257600080fd5b6020939093015192949293505050565b60008083546154c0816153e8565b600182811680156154d857600181146154ed5761551c565b60ff198416875282151583028701945061551c565b8760005260208060002060005b858110156155135781548a8201529084019082016154fa565b50505082870194505b50929695505050505050565b601f82111561556e57600081815260208120601f850160051c8101602086101561554f5750805b601f850160051c820191505b81811015610a1e5782815560010161555b565b505050565b6001600160401b0383111561558a5761558a614dce565b61559e8361559883546153e8565b83615528565b6000601f8411600181146155d257600085156155ba5750838201355b600019600387901b1c1916600186901b178355613185565b600083815260209020601f19861690835b8281101561560357868501358255602094850194600190920191016155e3565b50868210156156205760001960f88860031b161c19848701351681555b505060018560011b0183555050505050565b818103818111156107ea576107ea61535f565b634e487b7160e01b600052603160045260246000fd5b808201808211156107ea576107ea61535f56fe360894a13ba1a3210667c828492db98dca3e2076cc3735a920a3ca505d382bbca26469706673582212205653701073fe48dd03591c43422b436d99dbd8f0dcc877a7b8e305643a56e29b64736f6c63430008130033",
  "libraries": {
    "LProfileCommons": "0xEE051361223de07E37E92af38B6A2ddFBFf82632"
  },
  "devdoc": {
    "author": "Sina Tadayon, https://github.com/SinaTadayon",
    "events": {
      "Initialized(address,address,address,string,string,uint16)": {
        "details": "Triggered when the contract has been initialized or reinitialized."
      },
      "ProxyLocalAdminUpdated(address,address,address)": {
        "details": "Emitted when the admin account has changed."
      }
    },
    "kind": "dev",
    "methods": {
      "proxiableUUID()": {
        "details": "Implementation of the ERC1822 {proxiableUUID} function. This returns the storage slot used by the implementation. It is used to validate that the this implementation remains valid after an upgrade. IMPORTANT: A proxy pointing at a proxiable contract should not be considered proxiable itself, because this risks bricking a proxy that upgrades to it, by delegating to itself until out of gas. Thus it is critical that this function revert if invoked through a proxy. This is guaranteed by the `notDelegated` modifier."
      },
      "supportsInterface(bytes4)": {
        "details": "See {IERC165-supportsInterface}."
      }
    },
    "title": "Profile Context Manager Contract",
    "version": 1
  },
  "userdoc": {
    "kind": "user",
    "methods": {},
    "version": 1
  },
  "storageLayout": {
    "storage": [
      {
        "astId": 82229,
        "contract": "src/contracts/acl/profile/scope/ProfileContextManager.sol:ProfileContextManager",
        "label": "_contractName",
        "offset": 0,
        "slot": "0",
        "type": "t_string_storage"
      },
      {
        "astId": 82231,
        "contract": "src/contracts/acl/profile/scope/ProfileContextManager.sol:ProfileContextManager",
        "label": "_contractVersion",
        "offset": 0,
        "slot": "1",
        "type": "t_string_storage"
      },
      {
        "astId": 82233,
        "contract": "src/contracts/acl/profile/scope/ProfileContextManager.sol:ProfileContextManager",
        "label": "_accessControlManager",
        "offset": 0,
        "slot": "2",
        "type": "t_address"
      },
      {
        "astId": 82236,
        "contract": "src/contracts/acl/profile/scope/ProfileContextManager.sol:ProfileContextManager",
        "label": "_sstat",
        "offset": 20,
        "slot": "2",
        "type": "t_enum(ProxySafeModeStatus)82251"
      },
      {
        "astId": 82239,
        "contract": "src/contracts/acl/profile/scope/ProfileContextManager.sol:ProfileContextManager",
        "label": "_ustat",
        "offset": 21,
        "slot": "2",
        "type": "t_enum(ProxyUpdatabilityStatus)82254"
      },
      {
        "astId": 82244,
        "contract": "src/contracts/acl/profile/scope/ProfileContextManager.sol:ProfileContextManager",
        "label": "__reserved",
        "offset": 0,
        "slot": "3",
        "type": "t_array(t_uint256)64_storage"
      },
      {
        "astId": 10383,
        "contract": "src/contracts/acl/profile/scope/ProfileContextManager.sol:ProfileContextManager",
        "label": "_firstInit",
        "offset": 0,
        "slot": "67",
        "type": "t_bool"
      },
      {
        "astId": 10386,
        "contract": "src/contracts/acl/profile/scope/ProfileContextManager.sol:ProfileContextManager",
        "label": "_data",
        "offset": 0,
        "slot": "68",
        "type": "t_struct(DataCollection)10239_storage"
      },
      {
        "astId": 82432,
        "contract": "src/contracts/acl/profile/scope/ProfileContextManager.sol:ProfileContextManager",
        "label": "_initialized",
        "offset": 0,
        "slot": "78",
        "type": "t_uint16"
      },
      {
        "astId": 82435,
        "contract": "src/contracts/acl/profile/scope/ProfileContextManager.sol:ProfileContextManager",
        "label": "_initializing",
        "offset": 2,
        "slot": "78",
        "type": "t_bool"
      }
    ],
    "types": {
      "t_address": {
        "encoding": "inplace",
        "label": "address",
        "numberOfBytes": "20"
      },
      "t_array(t_bytes32)dyn_storage": {
        "base": "t_bytes32",
        "encoding": "dynamic_array",
        "label": "bytes32[]",
        "numberOfBytes": "32"
      },
      "t_array(t_uint256)64_storage": {
        "base": "t_uint256",
        "encoding": "inplace",
        "label": "uint256[64]",
        "numberOfBytes": "2048"
      },
      "t_bool": {
        "encoding": "inplace",
        "label": "bool",
        "numberOfBytes": "1"
      },
      "t_bytes32": {
        "encoding": "inplace",
        "label": "bytes32",
        "numberOfBytes": "32"
      },
      "t_bytes4": {
        "encoding": "inplace",
        "label": "bytes4",
        "numberOfBytes": "4"
      },
      "t_enum(ActivityStatus)11721": {
        "encoding": "inplace",
        "label": "enum IACLCommons.ActivityStatus",
        "numberOfBytes": "1"
      },
      "t_enum(AgentType)11716": {
        "encoding": "inplace",
        "label": "enum IACLCommons.AgentType",
        "numberOfBytes": "1"
      },
      "t_enum(AlterabilityStatus)11726": {
        "encoding": "inplace",
        "label": "enum IACLCommons.AlterabilityStatus",
        "numberOfBytes": "1"
      },
      "t_enum(PolicyType)11744": {
        "encoding": "inplace",
        "label": "enum IACLCommons.PolicyType",
        "numberOfBytes": "1"
      },
      "t_enum(ProxySafeModeStatus)82251": {
        "encoding": "inplace",
        "label": "enum IBaseProxy.ProxySafeModeStatus",
        "numberOfBytes": "1"
      },
      "t_enum(ProxyUpdatabilityStatus)82254": {
        "encoding": "inplace",
        "label": "enum IBaseProxy.ProxyUpdatabilityStatus",
        "numberOfBytes": "1"
      },
      "t_enum(ScopeType)11733": {
        "encoding": "inplace",
        "label": "enum IACLCommons.ScopeType",
        "numberOfBytes": "1"
      },
      "t_mapping(t_address,t_struct(FacetEntity)11945_storage)": {
        "encoding": "mapping",
        "key": "t_address",
        "label": "mapping(address => struct IACLCommons.FacetEntity)",
        "numberOfBytes": "32",
        "value": "t_struct(FacetEntity)11945_storage"
      },
      "t_mapping(t_address,t_struct(ProfileAccount)12018_storage)": {
        "encoding": "mapping",
        "key": "t_address",
        "label": "mapping(address => struct IACLCommons.ProfileAccount)",
        "numberOfBytes": "32",
        "value": "t_struct(ProfileAccount)12018_storage"
      },
      "t_mapping(t_bytes32,t_bytes32)": {
        "encoding": "mapping",
        "key": "t_bytes32",
        "label": "mapping(bytes32 => bytes32)",
        "numberOfBytes": "32",
        "value": "t_bytes32"
      },
      "t_mapping(t_bytes32,t_struct(BaseAgent)11756_storage)": {
        "encoding": "mapping",
        "key": "t_bytes32",
        "label": "mapping(bytes32 => struct IACLCommons.BaseAgent)",
        "numberOfBytes": "32",
        "value": "t_struct(BaseAgent)11756_storage"
      },
      "t_mapping(t_bytes32,t_struct(BaseScope)11770_storage)": {
        "encoding": "mapping",
        "key": "t_bytes32",
        "label": "mapping(bytes32 => struct IACLCommons.BaseScope)",
        "numberOfBytes": "32",
        "value": "t_struct(BaseScope)11770_storage"
      },
      "t_mapping(t_bytes32,t_struct(PolicyEntity)11793_storage)": {
        "encoding": "mapping",
        "key": "t_bytes32",
        "label": "mapping(bytes32 => struct IACLCommons.PolicyEntity)",
        "numberOfBytes": "32",
        "value": "t_struct(PolicyEntity)11793_storage"
      },
      "t_mapping(t_bytes32,t_struct(ProfileEntity)12059_storage)": {
        "encoding": "mapping",
        "key": "t_bytes32",
        "label": "mapping(bytes32 => struct IACLCommons.ProfileEntity)",
        "numberOfBytes": "32",
        "value": "t_struct(ProfileEntity)12059_storage"
      },
      "t_mapping(t_bytes32,t_uint256)": {
        "encoding": "mapping",
        "key": "t_bytes32",
        "label": "mapping(bytes32 => uint256)",
        "numberOfBytes": "32",
        "value": "t_uint256"
      },
      "t_mapping(t_bytes4,t_address)": {
        "encoding": "mapping",
        "key": "t_bytes4",
        "label": "mapping(bytes4 => address)",
        "numberOfBytes": "32",
        "value": "t_address"
      },
      "t_string_storage": {
        "encoding": "bytes",
        "label": "string",
        "numberOfBytes": "32"
      },
      "t_struct(AddressSet)79783_storage": {
        "encoding": "inplace",
        "label": "struct LEnumerableSet.AddressSet",
        "members": [
          {
            "astId": 79782,
            "contract": "src/contracts/acl/profile/scope/ProfileContextManager.sol:ProfileContextManager",
            "label": "_inner",
            "offset": 0,
            "slot": "0",
            "type": "t_struct(Set)79482_storage"
          }
        ],
        "numberOfBytes": "64"
      },
      "t_struct(BaseAgent)11756_storage": {
        "encoding": "inplace",
        "label": "struct IACLCommons.BaseAgent",
        "members": [
          {
            "astId": 11746,
            "contract": "src/contracts/acl/profile/scope/ProfileContextManager.sol:ProfileContextManager",
            "label": "adminId",
            "offset": 0,
            "slot": "0",
            "type": "t_bytes32"
          },
          {
            "astId": 11749,
            "contract": "src/contracts/acl/profile/scope/ProfileContextManager.sol:ProfileContextManager",
            "label": "atype",
            "offset": 0,
            "slot": "1",
            "type": "t_enum(AgentType)11716"
          },
          {
            "astId": 11752,
            "contract": "src/contracts/acl/profile/scope/ProfileContextManager.sol:ProfileContextManager",
            "label": "acstat",
            "offset": 1,
            "slot": "1",
            "type": "t_enum(ActivityStatus)11721"
          },
          {
            "astId": 11755,
            "contract": "src/contracts/acl/profile/scope/ProfileContextManager.sol:ProfileContextManager",
            "label": "alstat",
            "offset": 2,
            "slot": "1",
            "type": "t_enum(AlterabilityStatus)11726"
          }
        ],
        "numberOfBytes": "64"
      },
      "t_struct(BaseScope)11770_storage": {
        "encoding": "inplace",
        "label": "struct IACLCommons.BaseScope",
        "members": [
          {
            "astId": 11758,
            "contract": "src/contracts/acl/profile/scope/ProfileContextManager.sol:ProfileContextManager",
            "label": "adminId",
            "offset": 0,
            "slot": "0",
            "type": "t_bytes32"
          },
          {
            "astId": 11761,
            "contract": "src/contracts/acl/profile/scope/ProfileContextManager.sol:ProfileContextManager",
            "label": "stype",
            "offset": 0,
            "slot": "1",
            "type": "t_enum(ScopeType)11733"
          },
          {
            "astId": 11764,
            "contract": "src/contracts/acl/profile/scope/ProfileContextManager.sol:ProfileContextManager",
            "label": "acstat",
            "offset": 1,
            "slot": "1",
            "type": "t_enum(ActivityStatus)11721"
          },
          {
            "astId": 11767,
            "contract": "src/contracts/acl/profile/scope/ProfileContextManager.sol:ProfileContextManager",
            "label": "alstat",
            "offset": 2,
            "slot": "1",
            "type": "t_enum(AlterabilityStatus)11726"
          },
          {
            "astId": 11769,
            "contract": "src/contracts/acl/profile/scope/ProfileContextManager.sol:ProfileContextManager",
            "label": "referredByAgent",
            "offset": 3,
            "slot": "1",
            "type": "t_uint32"
          }
        ],
        "numberOfBytes": "64"
      },
      "t_struct(Bytes32Set)79676_storage": {
        "encoding": "inplace",
        "label": "struct LEnumerableSet.Bytes32Set",
        "members": [
          {
            "astId": 79675,
            "contract": "src/contracts/acl/profile/scope/ProfileContextManager.sol:ProfileContextManager",
            "label": "_inner",
            "offset": 0,
            "slot": "0",
            "type": "t_struct(Set)79482_storage"
          }
        ],
        "numberOfBytes": "64"
      },
      "t_struct(DataCollection)10239_storage": {
        "encoding": "inplace",
        "label": "struct ACLStorage.DataCollection",
        "members": [
          {
            "astId": 10202,
            "contract": "src/contracts/acl/profile/scope/ProfileContextManager.sol:ProfileContextManager",
            "label": "agents",
            "offset": 0,
            "slot": "0",
            "type": "t_mapping(t_bytes32,t_struct(BaseAgent)11756_storage)"
          },
          {
            "astId": 10207,
            "contract": "src/contracts/acl/profile/scope/ProfileContextManager.sol:ProfileContextManager",
            "label": "scopes",
            "offset": 0,
            "slot": "1",
            "type": "t_mapping(t_bytes32,t_struct(BaseScope)11770_storage)"
          },
          {
            "astId": 10212,
            "contract": "src/contracts/acl/profile/scope/ProfileContextManager.sol:ProfileContextManager",
            "label": "policies",
            "offset": 0,
            "slot": "2",
            "type": "t_mapping(t_bytes32,t_struct(PolicyEntity)11793_storage)"
          },
          {
            "astId": 10216,
            "contract": "src/contracts/acl/profile/scope/ProfileContextManager.sol:ProfileContextManager",
            "label": "rolePolicyMap",
            "offset": 0,
            "slot": "3",
            "type": "t_mapping(t_bytes32,t_bytes32)"
          },
          {
            "astId": 10221,
            "contract": "src/contracts/acl/profile/scope/ProfileContextManager.sol:ProfileContextManager",
            "label": "profiles",
            "offset": 0,
            "slot": "4",
            "type": "t_mapping(t_bytes32,t_struct(ProfileEntity)12059_storage)"
          },
          {
            "astId": 10226,
            "contract": "src/contracts/acl/profile/scope/ProfileContextManager.sol:ProfileContextManager",
            "label": "profileAccounts",
            "offset": 0,
            "slot": "5",
            "type": "t_mapping(t_address,t_struct(ProfileAccount)12018_storage)"
          },
          {
            "astId": 10230,
            "contract": "src/contracts/acl/profile/scope/ProfileContextManager.sol:ProfileContextManager",
            "label": "selectors",
            "offset": 0,
            "slot": "6",
            "type": "t_mapping(t_bytes4,t_address)"
          },
          {
            "astId": 10235,
            "contract": "src/contracts/acl/profile/scope/ProfileContextManager.sol:ProfileContextManager",
            "label": "facets",
            "offset": 0,
            "slot": "7",
            "type": "t_mapping(t_address,t_struct(FacetEntity)11945_storage)"
          },
          {
            "astId": 10238,
            "contract": "src/contracts/acl/profile/scope/ProfileContextManager.sol:ProfileContextManager",
            "label": "facetSet",
            "offset": 0,
            "slot": "8",
            "type": "t_struct(AddressSet)79783_storage"
          }
        ],
        "numberOfBytes": "320"
      },
      "t_struct(FacetEntity)11945_storage": {
        "encoding": "inplace",
        "label": "struct IACLCommons.FacetEntity",
        "members": [
          {
            "astId": 11944,
            "contract": "src/contracts/acl/profile/scope/ProfileContextManager.sol:ProfileContextManager",
            "label": "subjectId",
            "offset": 0,
            "slot": "0",
            "type": "t_address"
          }
        ],
        "numberOfBytes": "32"
      },
      "t_struct(PolicyEntity)11793_storage": {
        "encoding": "inplace",
        "label": "struct IACLCommons.PolicyEntity",
        "members": [
          {
            "astId": 11772,
            "contract": "src/contracts/acl/profile/scope/ProfileContextManager.sol:ProfileContextManager",
            "label": "adminId",
            "offset": 0,
            "slot": "0",
            "type": "t_bytes32"
          },
          {
            "astId": 11774,
            "contract": "src/contracts/acl/profile/scope/ProfileContextManager.sol:ProfileContextManager",
            "label": "scopeId",
            "offset": 0,
            "slot": "1",
            "type": "t_bytes32"
          },
          {
            "astId": 11776,
            "contract": "src/contracts/acl/profile/scope/ProfileContextManager.sol:ProfileContextManager",
            "label": "name",
            "offset": 0,
            "slot": "2",
            "type": "t_string_storage"
          },
          {
            "astId": 11778,
            "contract": "src/contracts/acl/profile/scope/ProfileContextManager.sol:ProfileContextManager",
            "label": "roleLimit",
            "offset": 0,
            "slot": "3",
            "type": "t_uint16"
          },
          {
            "astId": 11780,
            "contract": "src/contracts/acl/profile/scope/ProfileContextManager.sol:ProfileContextManager",
            "label": "policyCode",
            "offset": 2,
            "slot": "3",
            "type": "t_uint8"
          },
          {
            "astId": 11783,
            "contract": "src/contracts/acl/profile/scope/ProfileContextManager.sol:ProfileContextManager",
            "label": "ptype",
            "offset": 3,
            "slot": "3",
            "type": "t_enum(PolicyType)11744"
          },
          {
            "astId": 11786,
            "contract": "src/contracts/acl/profile/scope/ProfileContextManager.sol:ProfileContextManager",
            "label": "acstat",
            "offset": 4,
            "slot": "3",
            "type": "t_enum(ActivityStatus)11721"
          },
          {
            "astId": 11789,
            "contract": "src/contracts/acl/profile/scope/ProfileContextManager.sol:ProfileContextManager",
            "label": "alstat",
            "offset": 5,
            "slot": "3",
            "type": "t_enum(AlterabilityStatus)11726"
          },
          {
            "astId": 11792,
            "contract": "src/contracts/acl/profile/scope/ProfileContextManager.sol:ProfileContextManager",
            "label": "roles",
            "offset": 0,
            "slot": "4",
            "type": "t_struct(Bytes32Set)79676_storage"
          }
        ],
        "numberOfBytes": "192"
      },
      "t_struct(ProfileAccount)12018_storage": {
        "encoding": "inplace",
        "label": "struct IACLCommons.ProfileAccount",
        "members": [
          {
            "astId": 12017,
            "contract": "src/contracts/acl/profile/scope/ProfileContextManager.sol:ProfileContextManager",
            "label": "profiles",
            "offset": 0,
            "slot": "0",
            "type": "t_array(t_bytes32)dyn_storage"
          }
        ],
        "numberOfBytes": "32"
      },
      "t_struct(ProfileEntity)12059_storage": {
        "encoding": "inplace",
        "label": "struct IACLCommons.ProfileEntity",
        "members": [
          {
            "astId": 12023,
            "contract": "src/contracts/acl/profile/scope/ProfileContextManager.sol:ProfileContextManager",
            "label": "agents",
            "offset": 0,
            "slot": "0",
            "type": "t_mapping(t_bytes32,t_struct(BaseAgent)11756_storage)"
          },
          {
            "astId": 12028,
            "contract": "src/contracts/acl/profile/scope/ProfileContextManager.sol:ProfileContextManager",
            "label": "scopes",
            "offset": 0,
            "slot": "1",
            "type": "t_mapping(t_bytes32,t_struct(BaseScope)11770_storage)"
          },
          {
            "astId": 12033,
            "contract": "src/contracts/acl/profile/scope/ProfileContextManager.sol:ProfileContextManager",
            "label": "policies",
            "offset": 0,
            "slot": "2",
            "type": "t_mapping(t_bytes32,t_struct(PolicyEntity)11793_storage)"
          },
          {
            "astId": 12037,
            "contract": "src/contracts/acl/profile/scope/ProfileContextManager.sol:ProfileContextManager",
            "label": "rolePolicyMap",
            "offset": 0,
            "slot": "3",
            "type": "t_mapping(t_bytes32,t_bytes32)"
          },
          {
            "astId": 12040,
            "contract": "src/contracts/acl/profile/scope/ProfileContextManager.sol:ProfileContextManager",
            "label": "admins",
            "offset": 0,
            "slot": "4",
            "type": "t_struct(Bytes32Set)79676_storage"
          },
          {
            "astId": 12042,
            "contract": "src/contracts/acl/profile/scope/ProfileContextManager.sol:ProfileContextManager",
            "label": "adminId",
            "offset": 0,
            "slot": "6",
            "type": "t_bytes32"
          },
          {
            "astId": 12044,
            "contract": "src/contracts/acl/profile/scope/ProfileContextManager.sol:ProfileContextManager",
            "label": "name",
            "offset": 0,
            "slot": "7",
            "type": "t_string_storage"
          },
          {
            "astId": 12046,
            "contract": "src/contracts/acl/profile/scope/ProfileContextManager.sol:ProfileContextManager",
            "label": "owner",
            "offset": 0,
            "slot": "8",
            "type": "t_address"
          },
          {
            "astId": 12049,
            "contract": "src/contracts/acl/profile/scope/ProfileContextManager.sol:ProfileContextManager",
            "label": "acstat",
            "offset": 20,
            "slot": "8",
            "type": "t_enum(ActivityStatus)11721"
          },
          {
            "astId": 12052,
            "contract": "src/contracts/acl/profile/scope/ProfileContextManager.sol:ProfileContextManager",
            "label": "alstat",
            "offset": 21,
            "slot": "8",
            "type": "t_enum(AlterabilityStatus)11726"
          },
          {
            "astId": 12055,
            "contract": "src/contracts/acl/profile/scope/ProfileContextManager.sol:ProfileContextManager",
            "label": "registerLimits",
            "offset": 0,
            "slot": "9",
            "type": "t_struct(ProfileRegisterLimit)11993_storage"
          },
          {
            "astId": 12058,
            "contract": "src/contracts/acl/profile/scope/ProfileContextManager.sol:ProfileContextManager",
            "label": "limits",
            "offset": 0,
            "slot": "10",
            "type": "t_struct(ProfileLimit)12014_storage"
          }
        ],
        "numberOfBytes": "352"
      },
      "t_struct(ProfileLimit)12014_storage": {
        "encoding": "inplace",
        "label": "struct IACLCommons.ProfileLimit",
        "members": [
          {
            "astId": 11995,
            "contract": "src/contracts/acl/profile/scope/ProfileContextManager.sol:ProfileContextManager",
            "label": "profileCallLimit",
            "offset": 0,
            "slot": "0",
            "type": "t_uint32"
          },
          {
            "astId": 11997,
            "contract": "src/contracts/acl/profile/scope/ProfileContextManager.sol:ProfileContextManager",
            "label": "contextLimit",
            "offset": 4,
            "slot": "0",
            "type": "t_uint32"
          },
          {
            "astId": 11999,
            "contract": "src/contracts/acl/profile/scope/ProfileContextManager.sol:ProfileContextManager",
            "label": "memberLimit",
            "offset": 8,
            "slot": "0",
            "type": "t_uint24"
          },
          {
            "astId": 12001,
            "contract": "src/contracts/acl/profile/scope/ProfileContextManager.sol:ProfileContextManager",
            "label": "realmLimit",
            "offset": 11,
            "slot": "0",
            "type": "t_uint16"
          },
          {
            "astId": 12003,
            "contract": "src/contracts/acl/profile/scope/ProfileContextManager.sol:ProfileContextManager",
            "label": "domainLimit",
            "offset": 13,
            "slot": "0",
            "type": "t_uint16"
          },
          {
            "astId": 12005,
            "contract": "src/contracts/acl/profile/scope/ProfileContextManager.sol:ProfileContextManager",
            "label": "memberCallLimit",
            "offset": 15,
            "slot": "0",
            "type": "t_uint16"
          },
          {
            "astId": 12007,
            "contract": "src/contracts/acl/profile/scope/ProfileContextManager.sol:ProfileContextManager",
            "label": "typeRoleLimit",
            "offset": 17,
            "slot": "0",
            "type": "t_uint16"
          },
          {
            "astId": 12009,
            "contract": "src/contracts/acl/profile/scope/ProfileContextManager.sol:ProfileContextManager",
            "label": "typeLimit",
            "offset": 19,
            "slot": "0",
            "type": "t_uint16"
          },
          {
            "astId": 12011,
            "contract": "src/contracts/acl/profile/scope/ProfileContextManager.sol:ProfileContextManager",
            "label": "policyRoleLimit",
            "offset": 21,
            "slot": "0",
            "type": "t_uint16"
          },
          {
            "astId": 12013,
            "contract": "src/contracts/acl/profile/scope/ProfileContextManager.sol:ProfileContextManager",
            "label": "functionLimit",
            "offset": 23,
            "slot": "0",
            "type": "t_uint8"
          }
        ],
        "numberOfBytes": "32"
      },
      "t_struct(ProfileRegisterLimit)11993_storage": {
        "encoding": "inplace",
        "label": "struct IACLCommons.ProfileRegisterLimit",
        "members": [
          {
            "astId": 11978,
            "contract": "src/contracts/acl/profile/scope/ProfileContextManager.sol:ProfileContextManager",
            "label": "memberRegisterLimit",
            "offset": 0,
            "slot": "0",
            "type": "t_uint32"
          },
          {
            "astId": 11980,
            "contract": "src/contracts/acl/profile/scope/ProfileContextManager.sol:ProfileContextManager",
            "label": "roleRegisterLimit",
            "offset": 4,
            "slot": "0",
            "type": "t_uint32"
          },
          {
            "astId": 11982,
            "contract": "src/contracts/acl/profile/scope/ProfileContextManager.sol:ProfileContextManager",
            "label": "typeRegisterLimit",
            "offset": 8,
            "slot": "0",
            "type": "t_uint32"
          },
          {
            "astId": 11984,
            "contract": "src/contracts/acl/profile/scope/ProfileContextManager.sol:ProfileContextManager",
            "label": "functionRegisterLimit",
            "offset": 12,
            "slot": "0",
            "type": "t_uint32"
          },
          {
            "astId": 11986,
            "contract": "src/contracts/acl/profile/scope/ProfileContextManager.sol:ProfileContextManager",
            "label": "contextRegisterLimit",
            "offset": 16,
            "slot": "0",
            "type": "t_uint32"
          },
          {
            "astId": 11988,
            "contract": "src/contracts/acl/profile/scope/ProfileContextManager.sol:ProfileContextManager",
            "label": "realmRegisterLimit",
            "offset": 20,
            "slot": "0",
            "type": "t_uint16"
          },
          {
            "astId": 11990,
            "contract": "src/contracts/acl/profile/scope/ProfileContextManager.sol:ProfileContextManager",
            "label": "domainRegisterLimit",
            "offset": 22,
            "slot": "0",
            "type": "t_uint16"
          },
          {
            "astId": 11992,
            "contract": "src/contracts/acl/profile/scope/ProfileContextManager.sol:ProfileContextManager",
            "label": "policyRegisterLimit",
            "offset": 24,
            "slot": "0",
            "type": "t_uint16"
          }
        ],
        "numberOfBytes": "32"
      },
      "t_struct(Set)79482_storage": {
        "encoding": "inplace",
        "label": "struct LEnumerableSet.Set",
        "members": [
          {
            "astId": 79477,
            "contract": "src/contracts/acl/profile/scope/ProfileContextManager.sol:ProfileContextManager",
            "label": "_values",
            "offset": 0,
            "slot": "0",
            "type": "t_array(t_bytes32)dyn_storage"
          },
          {
            "astId": 79481,
            "contract": "src/contracts/acl/profile/scope/ProfileContextManager.sol:ProfileContextManager",
            "label": "_indexes",
            "offset": 0,
            "slot": "1",
            "type": "t_mapping(t_bytes32,t_uint256)"
          }
        ],
        "numberOfBytes": "64"
      },
      "t_uint16": {
        "encoding": "inplace",
        "label": "uint16",
        "numberOfBytes": "2"
      },
      "t_uint24": {
        "encoding": "inplace",
        "label": "uint24",
        "numberOfBytes": "3"
      },
      "t_uint256": {
        "encoding": "inplace",
        "label": "uint256",
        "numberOfBytes": "32"
      },
      "t_uint32": {
        "encoding": "inplace",
        "label": "uint32",
        "numberOfBytes": "4"
      },
      "t_uint8": {
        "encoding": "inplace",
        "label": "uint8",
        "numberOfBytes": "1"
      }
    }
  }
}