{
  "address": "0xFDDd72A5083e6A993488e3a60C7b37Ec885695f6",
  "abi": [
    {
      "inputs": [],
      "stateMutability": "nonpayable",
      "type": "constructor"
    },
    {
      "inputs": [
        {
          "internalType": "enum IACL.AuthorizationStatus",
          "name": "",
          "type": "uint8"
        }
      ],
      "name": "ACLActionForbidden",
      "type": "error"
    },
    {
      "inputs": [],
      "name": "ACLCallForbidden",
      "type": "error"
    },
    {
      "inputs": [],
      "name": "ACLContextActivityForbidden",
      "type": "error"
    },
    {
      "inputs": [],
      "name": "ACLContextNotFound",
      "type": "error"
    },
    {
      "inputs": [],
      "name": "ACLDomainActivityForbidden",
      "type": "error"
    },
    {
      "inputs": [],
      "name": "ACLDomainNotFound",
      "type": "error"
    },
    {
      "inputs": [],
      "name": "ACLFunctionActivityForbidden",
      "type": "error"
    },
    {
      "inputs": [],
      "name": "ACLFunctionNotFound",
      "type": "error"
    },
    {
      "inputs": [],
      "name": "ACLMemberActivityForbidden",
      "type": "error"
    },
    {
      "inputs": [],
      "name": "ACLMemberNotFound",
      "type": "error"
    },
    {
      "inputs": [],
      "name": "ACLPolicyForbidden",
      "type": "error"
    },
    {
      "inputs": [],
      "name": "ACLRealmActivityForbidden",
      "type": "error"
    },
    {
      "inputs": [],
      "name": "ACLRealmNotFound",
      "type": "error"
    },
    {
      "inputs": [],
      "name": "ACLRoleActivityForbidden",
      "type": "error"
    },
    {
      "inputs": [],
      "name": "ACLRoleNotFound",
      "type": "error"
    },
    {
      "inputs": [],
      "name": "ACLRoleScopeForbidden",
      "type": "error"
    },
    {
      "inputs": [],
      "name": "ACLTypeActivityForbidden",
      "type": "error"
    },
    {
      "inputs": [],
      "name": "ACLTypeNotFound",
      "type": "error"
    },
    {
      "inputs": [],
      "name": "ACLUnauthorized",
      "type": "error"
    },
    {
      "inputs": [],
      "name": "ACLUniverseActivityForbidden",
      "type": "error"
    },
    {
      "inputs": [],
      "name": "AdminAccessFunctionNotFound",
      "type": "error"
    },
    {
      "inputs": [],
      "name": "AdminAccessNotPermitted",
      "type": "error"
    },
    {
      "inputs": [],
      "name": "AdminAccessPolicyForbidden",
      "type": "error"
    },
    {
      "inputs": [],
      "name": "AdminAccessRoleActivityForbidden",
      "type": "error"
    },
    {
      "inputs": [],
      "name": "AdminAccessRoleNotFound",
      "type": "error"
    },
    {
      "inputs": [],
      "name": "AdminAccessTypeActivityForbidden",
      "type": "error"
    },
    {
      "inputs": [],
      "name": "AdminAccessTypeNotFound",
      "type": "error"
    },
    {
      "anonymous": false,
      "inputs": [
        {
          "indexed": true,
          "internalType": "address",
          "name": "sender",
          "type": "address"
        },
        {
          "indexed": true,
          "internalType": "address",
          "name": "proxy",
          "type": "address"
        },
        {
          "indexed": true,
          "internalType": "address",
          "name": "subject",
          "type": "address"
        },
        {
          "indexed": false,
          "internalType": "string",
          "name": "name",
          "type": "string"
        },
        {
          "indexed": false,
          "internalType": "string",
          "name": "version",
          "type": "string"
        },
        {
          "indexed": false,
          "internalType": "uint16",
          "name": "initCount",
          "type": "uint16"
        }
      ],
      "name": "Initialized",
      "type": "event"
    },
    {
      "anonymous": false,
      "inputs": [
        {
          "indexed": true,
          "internalType": "address",
          "name": "sender",
          "type": "address"
        },
        {
          "indexed": true,
          "internalType": "bytes32",
          "name": "profileId",
          "type": "bytes32"
        },
        {
          "indexed": false,
          "internalType": "enum IACLCommons.ActivityStatus",
          "name": "acstat",
          "type": "uint8"
        }
      ],
      "name": "ProfileActivityUpdated",
      "type": "event"
    },
    {
      "anonymous": false,
      "inputs": [
        {
          "indexed": true,
          "internalType": "address",
          "name": "sender",
          "type": "address"
        },
        {
          "indexed": true,
          "internalType": "bytes32",
          "name": "profileId",
          "type": "bytes32"
        },
        {
          "indexed": true,
          "internalType": "bytes32",
          "name": "adminId",
          "type": "bytes32"
        }
      ],
      "name": "ProfileAdminUpdated",
      "type": "event"
    },
    {
      "anonymous": false,
      "inputs": [
        {
          "indexed": true,
          "internalType": "address",
          "name": "sender",
          "type": "address"
        },
        {
          "indexed": true,
          "internalType": "bytes32",
          "name": "profileId",
          "type": "bytes32"
        },
        {
          "indexed": false,
          "internalType": "enum IACLCommons.AlterabilityStatus",
          "name": "alstat",
          "type": "uint8"
        }
      ],
      "name": "ProfileAlterabilityUpdated",
      "type": "event"
    },
    {
      "anonymous": false,
      "inputs": [
        {
          "indexed": true,
          "internalType": "address",
          "name": "sender",
          "type": "address"
        },
        {
          "indexed": true,
          "internalType": "bytes32",
          "name": "profileId",
          "type": "bytes32"
        },
        {
          "components": [
            {
              "internalType": "uint32",
              "name": "profileCallLimit",
              "type": "uint32"
            },
            {
              "internalType": "uint32",
              "name": "contextLimit",
              "type": "uint32"
            },
            {
              "internalType": "uint24",
              "name": "memberLimit",
              "type": "uint24"
            },
            {
              "internalType": "uint16",
              "name": "realmLimit",
              "type": "uint16"
            },
            {
              "internalType": "uint16",
              "name": "domainLimit",
              "type": "uint16"
            },
            {
              "internalType": "uint16",
              "name": "memberCallLimit",
              "type": "uint16"
            },
            {
              "internalType": "uint16",
              "name": "typeRoleLimit",
              "type": "uint16"
            },
            {
              "internalType": "uint16",
              "name": "typeLimit",
              "type": "uint16"
            },
            {
              "internalType": "uint16",
              "name": "policyRoleLimit",
              "type": "uint16"
            },
            {
              "internalType": "uint8",
              "name": "functionLimit",
              "type": "uint8"
            }
          ],
          "indexed": false,
          "internalType": "struct IACLCommons.ProfileLimit",
          "name": "limit",
          "type": "tuple"
        },
        {
          "components": [
            {
              "internalType": "uint32",
              "name": "memberRegisterLimit",
              "type": "uint32"
            },
            {
              "internalType": "uint32",
              "name": "roleRegisterLimit",
              "type": "uint32"
            },
            {
              "internalType": "uint32",
              "name": "typeRegisterLimit",
              "type": "uint32"
            },
            {
              "internalType": "uint32",
              "name": "functionRegisterLimit",
              "type": "uint32"
            },
            {
              "internalType": "uint32",
              "name": "contextRegisterLimit",
              "type": "uint32"
            },
            {
              "internalType": "uint16",
              "name": "realmRegisterLimit",
              "type": "uint16"
            },
            {
              "internalType": "uint16",
              "name": "domainRegisterLimit",
              "type": "uint16"
            },
            {
              "internalType": "uint16",
              "name": "policyRegisterLimit",
              "type": "uint16"
            }
          ],
          "indexed": false,
          "internalType": "struct IACLCommons.ProfileRegisterLimit",
          "name": "registerLimit",
          "type": "tuple"
        }
      ],
      "name": "ProfileLimitsUpdated",
      "type": "event"
    },
    {
      "anonymous": false,
      "inputs": [
        {
          "indexed": true,
          "internalType": "address",
          "name": "sender",
          "type": "address"
        },
        {
          "indexed": true,
          "internalType": "bytes32",
          "name": "profileId",
          "type": "bytes32"
        },
        {
          "indexed": true,
          "internalType": "address",
          "name": "owner",
          "type": "address"
        },
        {
          "indexed": false,
          "internalType": "address",
          "name": "newOwner",
          "type": "address"
        }
      ],
      "name": "ProfileOwnerAccountUpdated",
      "type": "event"
    },
    {
      "anonymous": false,
      "inputs": [
        {
          "indexed": true,
          "internalType": "address",
          "name": "sender",
          "type": "address"
        },
        {
          "indexed": true,
          "internalType": "bytes32",
          "name": "profileId",
          "type": "bytes32"
        },
        {
          "indexed": true,
          "internalType": "address",
          "name": "profileOwner",
          "type": "address"
        },
        {
          "indexed": false,
          "internalType": "address",
          "name": "profileSystemAdmin",
          "type": "address"
        },
        {
          "indexed": false,
          "internalType": "bytes32",
          "name": "adminId",
          "type": "bytes32"
        },
        {
          "components": [
            {
              "internalType": "uint32",
              "name": "memberRegisterLimit",
              "type": "uint32"
            },
            {
              "internalType": "uint32",
              "name": "roleRegisterLimit",
              "type": "uint32"
            },
            {
              "internalType": "uint32",
              "name": "typeRegisterLimit",
              "type": "uint32"
            },
            {
              "internalType": "uint32",
              "name": "functionRegisterLimit",
              "type": "uint32"
            },
            {
              "internalType": "uint32",
              "name": "contextRegisterLimit",
              "type": "uint32"
            },
            {
              "internalType": "uint16",
              "name": "realmRegisterLimit",
              "type": "uint16"
            },
            {
              "internalType": "uint16",
              "name": "domainRegisterLimit",
              "type": "uint16"
            },
            {
              "internalType": "uint16",
              "name": "policyRegisterLimit",
              "type": "uint16"
            }
          ],
          "indexed": false,
          "internalType": "struct IACLCommons.ProfileRegisterLimit",
          "name": "registerlimits",
          "type": "tuple"
        },
        {
          "components": [
            {
              "internalType": "uint32",
              "name": "profileCallLimit",
              "type": "uint32"
            },
            {
              "internalType": "uint32",
              "name": "contextLimit",
              "type": "uint32"
            },
            {
              "internalType": "uint24",
              "name": "memberLimit",
              "type": "uint24"
            },
            {
              "internalType": "uint16",
              "name": "realmLimit",
              "type": "uint16"
            },
            {
              "internalType": "uint16",
              "name": "domainLimit",
              "type": "uint16"
            },
            {
              "internalType": "uint16",
              "name": "memberCallLimit",
              "type": "uint16"
            },
            {
              "internalType": "uint16",
              "name": "typeRoleLimit",
              "type": "uint16"
            },
            {
              "internalType": "uint16",
              "name": "typeLimit",
              "type": "uint16"
            },
            {
              "internalType": "uint16",
              "name": "policyRoleLimit",
              "type": "uint16"
            },
            {
              "internalType": "uint8",
              "name": "functionLimit",
              "type": "uint8"
            }
          ],
          "indexed": false,
          "internalType": "struct IACLCommons.ProfileLimit",
          "name": "limits",
          "type": "tuple"
        }
      ],
      "name": "ProfileRegistered",
      "type": "event"
    },
    {
      "anonymous": false,
      "inputs": [
        {
          "indexed": true,
          "internalType": "address",
          "name": "sender",
          "type": "address"
        },
        {
          "indexed": true,
          "internalType": "address",
          "name": "proxy",
          "type": "address"
        },
        {
          "indexed": false,
          "internalType": "address",
          "name": "acl",
          "type": "address"
        }
      ],
      "name": "ProxyAccessControlUpdated",
      "type": "event"
    },
    {
      "anonymous": false,
      "inputs": [
        {
          "indexed": true,
          "internalType": "address",
          "name": "sender",
          "type": "address"
        },
        {
          "indexed": true,
          "internalType": "address",
          "name": "proxy",
          "type": "address"
        },
        {
          "indexed": false,
          "internalType": "address",
          "name": "newAdmin",
          "type": "address"
        }
      ],
      "name": "ProxyLocalAdminUpdated",
      "type": "event"
    },
    {
      "anonymous": false,
      "inputs": [
        {
          "indexed": true,
          "internalType": "address",
          "name": "sender",
          "type": "address"
        },
        {
          "indexed": true,
          "internalType": "address",
          "name": "proxy",
          "type": "address"
        },
        {
          "indexed": false,
          "internalType": "enum IBaseProxy.ProxySafeModeStatus",
          "name": "sstat",
          "type": "uint8"
        }
      ],
      "name": "ProxySafeModeUpdated",
      "type": "event"
    },
    {
      "anonymous": false,
      "inputs": [
        {
          "indexed": true,
          "internalType": "address",
          "name": "sender",
          "type": "address"
        },
        {
          "indexed": true,
          "internalType": "address",
          "name": "proxy",
          "type": "address"
        },
        {
          "indexed": false,
          "internalType": "enum IBaseProxy.ProxyUpdatabilityStatus",
          "name": "ustat",
          "type": "uint8"
        }
      ],
      "name": "ProxyUpdatabilityUpdated",
      "type": "event"
    },
    {
      "anonymous": false,
      "inputs": [
        {
          "indexed": true,
          "internalType": "address",
          "name": "sender",
          "type": "address"
        },
        {
          "indexed": true,
          "internalType": "address",
          "name": "proxy",
          "type": "address"
        },
        {
          "indexed": true,
          "internalType": "address",
          "name": "newImplementation",
          "type": "address"
        }
      ],
      "name": "ProxyUpgraded",
      "type": "event"
    },
    {
      "stateMutability": "payable",
      "type": "fallback"
    },
    {
      "inputs": [],
      "name": "CTX_MESSAGE_TYPEHASH",
      "outputs": [
        {
          "internalType": "bytes32",
          "name": "",
          "type": "bytes32"
        }
      ],
      "stateMutability": "view",
      "type": "function"
    },
    {
      "inputs": [],
      "name": "MEMBER_SIGNATURE_MESSAGE_TYPEHASH",
      "outputs": [
        {
          "internalType": "bytes32",
          "name": "",
          "type": "bytes32"
        }
      ],
      "stateMutability": "view",
      "type": "function"
    },
    {
      "inputs": [],
      "name": "PREDICT_CTX_MESSAGE_TYPEHASH",
      "outputs": [
        {
          "internalType": "bytes32",
          "name": "",
          "type": "bytes32"
        }
      ],
      "stateMutability": "view",
      "type": "function"
    },
    {
      "inputs": [],
      "name": "PROFILE_CTX_MESSAGE_TYPEHASH",
      "outputs": [
        {
          "internalType": "bytes32",
          "name": "",
          "type": "bytes32"
        }
      ],
      "stateMutability": "view",
      "type": "function"
    },
    {
      "inputs": [],
      "name": "PROFILE_MEMBER_SIGNATURE_MESSAGE_TYPEHASH",
      "outputs": [
        {
          "internalType": "bytes32",
          "name": "",
          "type": "bytes32"
        }
      ],
      "stateMutability": "view",
      "type": "function"
    },
    {
      "inputs": [],
      "name": "PROFILE_PREDICT_CTX_MESSAGE_TYPEHASH",
      "outputs": [
        {
          "internalType": "bytes32",
          "name": "",
          "type": "bytes32"
        }
      ],
      "stateMutability": "view",
      "type": "function"
    },
    {
      "inputs": [],
      "name": "TYPE_HASH",
      "outputs": [
        {
          "internalType": "bytes32",
          "name": "",
          "type": "bytes32"
        }
      ],
      "stateMutability": "view",
      "type": "function"
    },
    {
      "inputs": [],
      "name": "accessControlManager",
      "outputs": [
        {
          "internalType": "address",
          "name": "",
          "type": "address"
        }
      ],
      "stateMutability": "view",
      "type": "function"
    },
    {
      "inputs": [],
      "name": "contractName",
      "outputs": [
        {
          "internalType": "string",
          "name": "",
          "type": "string"
        }
      ],
      "stateMutability": "view",
      "type": "function"
    },
    {
      "inputs": [],
      "name": "contractVersion",
      "outputs": [
        {
          "internalType": "string",
          "name": "",
          "type": "string"
        }
      ],
      "stateMutability": "view",
      "type": "function"
    },
    {
      "inputs": [],
      "name": "domainSeparator",
      "outputs": [
        {
          "internalType": "bytes32",
          "name": "",
          "type": "bytes32"
        }
      ],
      "stateMutability": "view",
      "type": "function"
    },
    {
      "inputs": [],
      "name": "getLibrary",
      "outputs": [
        {
          "internalType": "address",
          "name": "",
          "type": "address"
        }
      ],
      "stateMutability": "pure",
      "type": "function"
    },
    {
      "inputs": [],
      "name": "initVersion",
      "outputs": [
        {
          "internalType": "uint16",
          "name": "",
          "type": "uint16"
        }
      ],
      "stateMutability": "view",
      "type": "function"
    },
    {
      "inputs": [
        {
          "internalType": "string",
          "name": "contractName",
          "type": "string"
        },
        {
          "internalType": "string",
          "name": "contractVersion",
          "type": "string"
        },
        {
          "internalType": "address",
          "name": "accessControlManager",
          "type": "address"
        }
      ],
      "name": "initialize",
      "outputs": [],
      "stateMutability": "nonpayable",
      "type": "function"
    },
    {
      "inputs": [],
      "name": "localAdmin",
      "outputs": [
        {
          "internalType": "address",
          "name": "",
          "type": "address"
        }
      ],
      "stateMutability": "view",
      "type": "function"
    },
    {
      "inputs": [
        {
          "internalType": "bytes32",
          "name": "profileId",
          "type": "bytes32"
        },
        {
          "internalType": "address",
          "name": "account",
          "type": "address"
        }
      ],
      "name": "profileCheckAdmin",
      "outputs": [
        {
          "internalType": "bool",
          "name": "",
          "type": "bool"
        }
      ],
      "stateMutability": "view",
      "type": "function"
    },
    {
      "inputs": [
        {
          "internalType": "bytes32",
          "name": "profileId",
          "type": "bytes32"
        }
      ],
      "name": "profileCheckId",
      "outputs": [
        {
          "internalType": "bool",
          "name": "",
          "type": "bool"
        }
      ],
      "stateMutability": "view",
      "type": "function"
    },
    {
      "inputs": [
        {
          "internalType": "string",
          "name": "name",
          "type": "string"
        }
      ],
      "name": "profileCheckName",
      "outputs": [
        {
          "internalType": "bool",
          "name": "",
          "type": "bool"
        }
      ],
      "stateMutability": "view",
      "type": "function"
    },
    {
      "inputs": [
        {
          "internalType": "bytes32",
          "name": "profileId",
          "type": "bytes32"
        },
        {
          "internalType": "address",
          "name": "account",
          "type": "address"
        }
      ],
      "name": "profileCheckOwner",
      "outputs": [
        {
          "internalType": "bool",
          "name": "",
          "type": "bool"
        }
      ],
      "stateMutability": "view",
      "type": "function"
    },
    {
      "inputs": [
        {
          "internalType": "bytes32",
          "name": "profileId",
          "type": "bytes32"
        },
        {
          "internalType": "address",
          "name": "account",
          "type": "address"
        }
      ],
      "name": "profileCheckProfileAdmin",
      "outputs": [
        {
          "internalType": "bool",
          "name": "",
          "type": "bool"
        }
      ],
      "stateMutability": "view",
      "type": "function"
    },
    {
      "inputs": [
        {
          "internalType": "bytes32",
          "name": "profileId",
          "type": "bytes32"
        },
        {
          "internalType": "address",
          "name": "account",
          "type": "address"
        }
      ],
      "name": "profileCheckProfileSystemAdmin",
      "outputs": [
        {
          "internalType": "bool",
          "name": "",
          "type": "bool"
        }
      ],
      "stateMutability": "view",
      "type": "function"
    },
    {
      "inputs": [
        {
          "internalType": "bytes32",
          "name": "profileId",
          "type": "bytes32"
        }
      ],
      "name": "profileGetAdmins",
      "outputs": [
        {
          "internalType": "bytes32[]",
          "name": "",
          "type": "bytes32[]"
        }
      ],
      "stateMutability": "view",
      "type": "function"
    },
    {
      "inputs": [
        {
          "internalType": "bytes32",
          "name": "profileId",
          "type": "bytes32"
        }
      ],
      "name": "profileGetInfo",
      "outputs": [
        {
          "components": [
            {
              "internalType": "string",
              "name": "name",
              "type": "string"
            },
            {
              "internalType": "bytes32",
              "name": "adminId",
              "type": "bytes32"
            },
            {
              "internalType": "address",
              "name": "owner",
              "type": "address"
            },
            {
              "components": [
                {
                  "internalType": "uint32",
                  "name": "memberRegisterLimit",
                  "type": "uint32"
                },
                {
                  "internalType": "uint32",
                  "name": "roleRegisterLimit",
                  "type": "uint32"
                },
                {
                  "internalType": "uint32",
                  "name": "typeRegisterLimit",
                  "type": "uint32"
                },
                {
                  "internalType": "uint32",
                  "name": "functionRegisterLimit",
                  "type": "uint32"
                },
                {
                  "internalType": "uint32",
                  "name": "contextRegisterLimit",
                  "type": "uint32"
                },
                {
                  "internalType": "uint16",
                  "name": "realmRegisterLimit",
                  "type": "uint16"
                },
                {
                  "internalType": "uint16",
                  "name": "domainRegisterLimit",
                  "type": "uint16"
                },
                {
                  "internalType": "uint16",
                  "name": "policyRegisterLimit",
                  "type": "uint16"
                }
              ],
              "internalType": "struct IACLCommons.ProfileRegisterLimit",
              "name": "registerLimits",
              "type": "tuple"
            },
            {
              "components": [
                {
                  "internalType": "uint32",
                  "name": "profileCallLimit",
                  "type": "uint32"
                },
                {
                  "internalType": "uint32",
                  "name": "contextLimit",
                  "type": "uint32"
                },
                {
                  "internalType": "uint24",
                  "name": "memberLimit",
                  "type": "uint24"
                },
                {
                  "internalType": "uint16",
                  "name": "realmLimit",
                  "type": "uint16"
                },
                {
                  "internalType": "uint16",
                  "name": "domainLimit",
                  "type": "uint16"
                },
                {
                  "internalType": "uint16",
                  "name": "memberCallLimit",
                  "type": "uint16"
                },
                {
                  "internalType": "uint16",
                  "name": "typeRoleLimit",
                  "type": "uint16"
                },
                {
                  "internalType": "uint16",
                  "name": "typeLimit",
                  "type": "uint16"
                },
                {
                  "internalType": "uint16",
                  "name": "policyRoleLimit",
                  "type": "uint16"
                },
                {
                  "internalType": "uint8",
                  "name": "functionLimit",
                  "type": "uint8"
                }
              ],
              "internalType": "struct IACLCommons.ProfileLimit",
              "name": "limits",
              "type": "tuple"
            },
            {
              "internalType": "enum IACLCommons.AgentType",
              "name": "adminType",
              "type": "uint8"
            },
            {
              "internalType": "enum IACLCommons.ActivityStatus",
              "name": "acstat",
              "type": "uint8"
            },
            {
              "internalType": "enum IACLCommons.AlterabilityStatus",
              "name": "alstat",
              "type": "uint8"
            }
          ],
          "internalType": "struct IProfileManagement.ProfileInfo",
          "name": "",
          "type": "tuple"
        }
      ],
      "stateMutability": "view",
      "type": "function"
    },
    {
      "inputs": [
        {
          "internalType": "address",
          "name": "account",
          "type": "address"
        }
      ],
      "name": "profileGetProfileAccount",
      "outputs": [
        {
          "internalType": "bytes32[]",
          "name": "",
          "type": "bytes32[]"
        }
      ],
      "stateMutability": "view",
      "type": "function"
    },
    {
      "inputs": [
        {
          "components": [
            {
              "internalType": "address",
              "name": "account",
              "type": "address"
            },
            {
              "internalType": "uint64",
              "name": "expiredAt",
              "type": "uint64"
            },
            {
              "internalType": "bytes",
              "name": "signature",
              "type": "bytes"
            }
          ],
          "internalType": "struct IACLCommons.MemberSignature",
          "name": "memberSign",
          "type": "tuple"
        },
        {
          "components": [
            {
              "internalType": "string",
              "name": "name",
              "type": "string"
            },
            {
              "components": [
                {
                  "internalType": "uint32",
                  "name": "memberRegisterLimit",
                  "type": "uint32"
                },
                {
                  "internalType": "uint32",
                  "name": "roleRegisterLimit",
                  "type": "uint32"
                },
                {
                  "internalType": "uint32",
                  "name": "typeRegisterLimit",
                  "type": "uint32"
                },
                {
                  "internalType": "uint32",
                  "name": "functionRegisterLimit",
                  "type": "uint32"
                },
                {
                  "internalType": "uint32",
                  "name": "contextRegisterLimit",
                  "type": "uint32"
                },
                {
                  "internalType": "uint16",
                  "name": "realmRegisterLimit",
                  "type": "uint16"
                },
                {
                  "internalType": "uint16",
                  "name": "domainRegisterLimit",
                  "type": "uint16"
                },
                {
                  "internalType": "uint16",
                  "name": "policyRegisterLimit",
                  "type": "uint16"
                }
              ],
              "internalType": "struct IACLCommons.ProfileRegisterLimit",
              "name": "registerLimits",
              "type": "tuple"
            },
            {
              "components": [
                {
                  "internalType": "uint32",
                  "name": "profileCallLimit",
                  "type": "uint32"
                },
                {
                  "internalType": "uint32",
                  "name": "contextLimit",
                  "type": "uint32"
                },
                {
                  "internalType": "uint24",
                  "name": "memberLimit",
                  "type": "uint24"
                },
                {
                  "internalType": "uint16",
                  "name": "realmLimit",
                  "type": "uint16"
                },
                {
                  "internalType": "uint16",
                  "name": "domainLimit",
                  "type": "uint16"
                },
                {
                  "internalType": "uint16",
                  "name": "memberCallLimit",
                  "type": "uint16"
                },
                {
                  "internalType": "uint16",
                  "name": "typeRoleLimit",
                  "type": "uint16"
                },
                {
                  "internalType": "uint16",
                  "name": "typeLimit",
                  "type": "uint16"
                },
                {
                  "internalType": "uint16",
                  "name": "policyRoleLimit",
                  "type": "uint16"
                },
                {
                  "internalType": "uint8",
                  "name": "functionLimit",
                  "type": "uint8"
                }
              ],
              "internalType": "struct IACLCommons.ProfileLimit",
              "name": "limits",
              "type": "tuple"
            },
            {
              "internalType": "address",
              "name": "profileOwner",
              "type": "address"
            },
            {
              "internalType": "address",
              "name": "profileSystemAdmin",
              "type": "address"
            },
            {
              "internalType": "bytes32",
              "name": "adminId",
              "type": "bytes32"
            }
          ],
          "internalType": "struct IProfileManagement.ProfileRegisterRequest[]",
          "name": "requests",
          "type": "tuple[]"
        }
      ],
      "name": "profileRegister",
      "outputs": [
        {
          "internalType": "bool",
          "name": "",
          "type": "bool"
        }
      ],
      "stateMutability": "nonpayable",
      "type": "function"
    },
    {
      "inputs": [
        {
          "components": [
            {
              "internalType": "address",
              "name": "account",
              "type": "address"
            },
            {
              "internalType": "uint64",
              "name": "expiredAt",
              "type": "uint64"
            },
            {
              "internalType": "bytes",
              "name": "signature",
              "type": "bytes"
            }
          ],
          "internalType": "struct IACLCommons.MemberSignature",
          "name": "memberSign",
          "type": "tuple"
        },
        {
          "components": [
            {
              "internalType": "bytes32",
              "name": "id",
              "type": "bytes32"
            },
            {
              "internalType": "enum IACLCommons.ActivityStatus",
              "name": "acstat",
              "type": "uint8"
            }
          ],
          "internalType": "struct IACLCommons.UpdateActivityRequest[]",
          "name": "requests",
          "type": "tuple[]"
        }
      ],
      "name": "profileUpdateActivityStatus",
      "outputs": [
        {
          "internalType": "bool",
          "name": "",
          "type": "bool"
        }
      ],
      "stateMutability": "nonpayable",
      "type": "function"
    },
    {
      "inputs": [
        {
          "components": [
            {
              "internalType": "address",
              "name": "account",
              "type": "address"
            },
            {
              "internalType": "uint64",
              "name": "expiredAt",
              "type": "uint64"
            },
            {
              "internalType": "bytes",
              "name": "signature",
              "type": "bytes"
            }
          ],
          "internalType": "struct IACLCommons.MemberSignature",
          "name": "memberSign",
          "type": "tuple"
        },
        {
          "components": [
            {
              "internalType": "bytes32",
              "name": "id",
              "type": "bytes32"
            },
            {
              "internalType": "bytes32",
              "name": "adminId",
              "type": "bytes32"
            }
          ],
          "internalType": "struct IACLCommons.UpdateAdminRequest[]",
          "name": "requests",
          "type": "tuple[]"
        }
      ],
      "name": "profileUpdateAdmin",
      "outputs": [
        {
          "internalType": "bool",
          "name": "",
          "type": "bool"
        }
      ],
      "stateMutability": "nonpayable",
      "type": "function"
    },
    {
      "inputs": [
        {
          "components": [
            {
              "internalType": "address",
              "name": "account",
              "type": "address"
            },
            {
              "internalType": "uint64",
              "name": "expiredAt",
              "type": "uint64"
            },
            {
              "internalType": "bytes",
              "name": "signature",
              "type": "bytes"
            }
          ],
          "internalType": "struct IACLCommons.MemberSignature",
          "name": "memberSign",
          "type": "tuple"
        },
        {
          "components": [
            {
              "internalType": "bytes32",
              "name": "id",
              "type": "bytes32"
            },
            {
              "internalType": "enum IACLCommons.AlterabilityStatus",
              "name": "alstat",
              "type": "uint8"
            }
          ],
          "internalType": "struct IACLCommons.UpdateAlterabilityRequest[]",
          "name": "requests",
          "type": "tuple[]"
        }
      ],
      "name": "profileUpdateAlterabilityStatus",
      "outputs": [
        {
          "internalType": "bool",
          "name": "",
          "type": "bool"
        }
      ],
      "stateMutability": "nonpayable",
      "type": "function"
    },
    {
      "inputs": [
        {
          "components": [
            {
              "internalType": "address",
              "name": "account",
              "type": "address"
            },
            {
              "internalType": "uint64",
              "name": "expiredAt",
              "type": "uint64"
            },
            {
              "internalType": "bytes",
              "name": "signature",
              "type": "bytes"
            }
          ],
          "internalType": "struct IACLCommons.MemberSignature",
          "name": "memberSign",
          "type": "tuple"
        },
        {
          "components": [
            {
              "internalType": "bytes32",
              "name": "profileId",
              "type": "bytes32"
            },
            {
              "components": [
                {
                  "internalType": "uint32",
                  "name": "memberRegisterLimit",
                  "type": "uint32"
                },
                {
                  "internalType": "uint32",
                  "name": "roleRegisterLimit",
                  "type": "uint32"
                },
                {
                  "internalType": "uint32",
                  "name": "typeRegisterLimit",
                  "type": "uint32"
                },
                {
                  "internalType": "uint32",
                  "name": "functionRegisterLimit",
                  "type": "uint32"
                },
                {
                  "internalType": "uint32",
                  "name": "contextRegisterLimit",
                  "type": "uint32"
                },
                {
                  "internalType": "uint16",
                  "name": "realmRegisterLimit",
                  "type": "uint16"
                },
                {
                  "internalType": "uint16",
                  "name": "domainRegisterLimit",
                  "type": "uint16"
                },
                {
                  "internalType": "uint16",
                  "name": "policyRegisterLimit",
                  "type": "uint16"
                }
              ],
              "internalType": "struct IACLCommons.ProfileRegisterLimit",
              "name": "registerLimits",
              "type": "tuple"
            },
            {
              "components": [
                {
                  "internalType": "uint32",
                  "name": "profileCallLimit",
                  "type": "uint32"
                },
                {
                  "internalType": "uint32",
                  "name": "contextLimit",
                  "type": "uint32"
                },
                {
                  "internalType": "uint24",
                  "name": "memberLimit",
                  "type": "uint24"
                },
                {
                  "internalType": "uint16",
                  "name": "realmLimit",
                  "type": "uint16"
                },
                {
                  "internalType": "uint16",
                  "name": "domainLimit",
                  "type": "uint16"
                },
                {
                  "internalType": "uint16",
                  "name": "memberCallLimit",
                  "type": "uint16"
                },
                {
                  "internalType": "uint16",
                  "name": "typeRoleLimit",
                  "type": "uint16"
                },
                {
                  "internalType": "uint16",
                  "name": "typeLimit",
                  "type": "uint16"
                },
                {
                  "internalType": "uint16",
                  "name": "policyRoleLimit",
                  "type": "uint16"
                },
                {
                  "internalType": "uint8",
                  "name": "functionLimit",
                  "type": "uint8"
                }
              ],
              "internalType": "struct IACLCommons.ProfileLimit",
              "name": "limits",
              "type": "tuple"
            }
          ],
          "internalType": "struct IProfileManagement.ProfileUpdateLimitsRequest[]",
          "name": "requests",
          "type": "tuple[]"
        }
      ],
      "name": "profileUpdateLimits",
      "outputs": [
        {
          "internalType": "bool",
          "name": "",
          "type": "bool"
        }
      ],
      "stateMutability": "nonpayable",
      "type": "function"
    },
    {
      "inputs": [
        {
          "components": [
            {
              "internalType": "address",
              "name": "account",
              "type": "address"
            },
            {
              "internalType": "uint64",
              "name": "expiredAt",
              "type": "uint64"
            },
            {
              "internalType": "bytes",
              "name": "signature",
              "type": "bytes"
            }
          ],
          "internalType": "struct IACLCommons.MemberSignature",
          "name": "memberSign",
          "type": "tuple"
        },
        {
          "components": [
            {
              "internalType": "bytes32",
              "name": "profileId",
              "type": "bytes32"
            },
            {
              "internalType": "address",
              "name": "newOwner",
              "type": "address"
            }
          ],
          "internalType": "struct IProfileManagement.ProfileUpdateOwnerAccountRequest[]",
          "name": "requests",
          "type": "tuple[]"
        }
      ],
      "name": "profileUpdateOwnerAccount",
      "outputs": [
        {
          "internalType": "bool",
          "name": "",
          "type": "bool"
        }
      ],
      "stateMutability": "nonpayable",
      "type": "function"
    },
    {
      "inputs": [],
      "name": "proxiableUUID",
      "outputs": [
        {
          "internalType": "bytes32",
          "name": "",
          "type": "bytes32"
        }
      ],
      "stateMutability": "view",
      "type": "function"
    },
    {
      "inputs": [],
      "name": "safeModeStatus",
      "outputs": [
        {
          "internalType": "enum IBaseProxy.ProxySafeModeStatus",
          "name": "",
          "type": "uint8"
        }
      ],
      "stateMutability": "view",
      "type": "function"
    },
    {
      "inputs": [
        {
          "internalType": "address",
          "name": "acl",
          "type": "address"
        }
      ],
      "name": "setAccessControlManager",
      "outputs": [
        {
          "internalType": "bool",
          "name": "",
          "type": "bool"
        }
      ],
      "stateMutability": "nonpayable",
      "type": "function"
    },
    {
      "inputs": [
        {
          "internalType": "address",
          "name": "newLocalAdmin",
          "type": "address"
        }
      ],
      "name": "setLocalAdmin",
      "outputs": [
        {
          "internalType": "bool",
          "name": "",
          "type": "bool"
        }
      ],
      "stateMutability": "nonpayable",
      "type": "function"
    },
    {
      "inputs": [
        {
          "internalType": "enum IBaseProxy.ProxySafeModeStatus",
          "name": "sstat",
          "type": "uint8"
        }
      ],
      "name": "setSafeModeStatus",
      "outputs": [
        {
          "internalType": "bool",
          "name": "",
          "type": "bool"
        }
      ],
      "stateMutability": "nonpayable",
      "type": "function"
    },
    {
      "inputs": [
        {
          "internalType": "enum IBaseProxy.ProxyUpdatabilityStatus",
          "name": "ustat",
          "type": "uint8"
        }
      ],
      "name": "setUpdatabilityStatus",
      "outputs": [
        {
          "internalType": "bool",
          "name": "",
          "type": "bool"
        }
      ],
      "stateMutability": "nonpayable",
      "type": "function"
    },
    {
      "inputs": [],
      "name": "subjectAddress",
      "outputs": [
        {
          "internalType": "address",
          "name": "",
          "type": "address"
        }
      ],
      "stateMutability": "view",
      "type": "function"
    },
    {
      "inputs": [
        {
          "internalType": "bytes4",
          "name": "interfaceId",
          "type": "bytes4"
        }
      ],
      "name": "supportsInterface",
      "outputs": [
        {
          "internalType": "bool",
          "name": "",
          "type": "bool"
        }
      ],
      "stateMutability": "view",
      "type": "function"
    },
    {
      "inputs": [],
      "name": "updatabilityStatus",
      "outputs": [
        {
          "internalType": "enum IBaseProxy.ProxyUpdatabilityStatus",
          "name": "",
          "type": "uint8"
        }
      ],
      "stateMutability": "view",
      "type": "function"
    },
    {
      "inputs": [
        {
          "internalType": "address",
          "name": "newImplementation",
          "type": "address"
        },
        {
          "internalType": "bytes",
          "name": "data",
          "type": "bytes"
        },
        {
          "internalType": "bool",
          "name": "forceCall",
          "type": "bool"
        }
      ],
      "name": "upgradeTo",
      "outputs": [
        {
          "internalType": "bytes",
          "name": "",
          "type": "bytes"
        }
      ],
      "stateMutability": "nonpayable",
      "type": "function"
    },
    {
      "inputs": [
        {
          "internalType": "address",
          "name": "recepient",
          "type": "address"
        }
      ],
      "name": "withdrawBalance",
      "outputs": [
        {
          "internalType": "uint256",
          "name": "",
          "type": "uint256"
        }
      ],
      "stateMutability": "nonpayable",
      "type": "function"
    },
    {
      "stateMutability": "payable",
      "type": "receive"
    }
  ],
  "transactionHash": "0xd6c9035295e4fbd34c243f647578ee5852909f00b2306aca1216b4a36ba2342a",
  "args": [],
  "numDeployments": 1,
  "solcInputHash": "bf3d37f12163392c6a812b5af749abec",
  "bytecode": "0x60a0604052306080523480156200001557600080fd5b506200004360017f360894a13ba1a3210667c828492db98dca3e2076cc3735a920a3ca505d382bbd620000fd565b7f360894a13ba1a3210667c828492db98dca3e2076cc3735a920a3ca505d382bbc1462000074576200007462000125565b620000a160017fb53127684a568b3173ae13b9f8a6016e243e63b6e8ee1178d6a717850b5d6104620000fd565b6000805160206200587583398151915214620000c157620000c162000125565b6000805160206200587583398151915280546001600160a01b0319163317905560028054600160a01b61ffff60a01b199091161790556200013b565b818103818111156200011f57634e487b7160e01b600052601160045260246000fd5b92915050565b634e487b7160e01b600052600160045260246000fd5b6080516156ca620001ab6000396000818161086f015281816108b801528181610b3c01528181610b7c01528181611279015281816112df0152818161131f015281816123e101528181612421015281816125a1015281816125e101528181612755015261279501526156ca6000f3fe6080604052600436106102325760003560e01c80637678922e1161012d578063bf8c4e0e116100b0578063e9f5031011610077578063e9f503101461075d578063f0b15def1461079c578063f698da25146107d0578063f708ceb0146107e5578063f94a0adb14610805578063fcc401781461081a57005b8063bf8c4e0e146106bd578063c0758e22146106dd578063c464952d146106fd578063c781757a1461071d578063d9dc1f191461073d57005b80639015c7ea116100f45780639015c7ea146106175780639b97b53414610637578063a0a8e4601461066b578063a304e35314610680578063b4a0bdf31461069f57005b80637678922e146105635780637fb31de71461058a57806380d91a8a146105aa578063859fb7ee146105ca5780638f158394146105ea57005b806338d38c97116101b557806358dbc45d1161017c57806358dbc45d146104a057806364d4c819146104cd5780637147855d14610501578063756af45f1461052e57806375d0c0dc1461054e57005b806338d38c97146103e7578063415bbda91461040f5780634888f4821461042f5780634bf0414d1461045757806352d1902d1461048b57005b80631b452f4b116101f95780631b452f4b146102f0578063217513cf14610332578063289b189214610352578063301c12801461037f57806334109de2146103b357005b806301ffc9a71461023b578063077f224a146102705780630c761ec6146102905780630e32cb86146102b05780630f6c4127146102d057005b3661023957005b005b34801561024757600080fd5b5061025b61025636600461430c565b61083a565b60405190151581526020015b60405180910390f35b34801561027c57600080fd5b5061023961028b36600461438e565b610865565b34801561029c57600080fd5b5061025b6102ab36600461440e565b610a9b565b3480156102bc57600080fd5b5061025b6102cb36600461443a565b610b30565b3480156102dc57600080fd5b5061025b6102eb366004614455565b610e3e565b3480156102fc57600080fd5b506103247f7bfb2abd6084c8ce20d7ff92c1620e7e7267603f0eac446b9176959d243306bc81565b604051908152602001610267565b34801561033e57600080fd5b5061025b61034d3660046144f2565b610e87565b34801561035e57600080fd5b5061037261036d36600461443a565b611091565b604051610267919061455a565b34801561038b57600080fd5b506103247f541cf898e7c3085cbc6b7402ba06e7237285bc4bd5baa510e708e35537a71ffd81565b3480156103bf57600080fd5b506103247f7aabe2571874f2a330ea11c8972d9cc3792d973efc6b36e3e29005861a34418881565b3480156103f357600080fd5b506103fc6110fd565b60405161ffff9091168152602001610267565b34801561041b57600080fd5b5061025b61042a36600461459e565b611111565b34801561043b57600080fd5b50600254600160a81b900460ff165b604051610267919061465e565b34801561046357600080fd5b506103247f9027b951cbdf8eff67da583391d218a57a89ec1ebfcb1c66da188e8531804d5581565b34801561049757600080fd5b5061032461126c565b3480156104ac57600080fd5b506104b56112c9565b6040516001600160a01b039091168152602001610267565b3480156104d957600080fd5b506103247f8b73c3c69bb8fe3d512ecc4cf759cc79239f7b179b0ffacaa9a75d522b39400f81565b34801561050d57600080fd5b5061052161051c3660046146a0565b6112d3565b60405161026791906147c1565b34801561053a57600080fd5b5061032461054936600461443a565b611432565b34801561055a57600080fd5b506105216114f7565b34801561056f57600080fd5b507361a74e6467B0eDd133Bf2fa08193Fc8B663D17506104b5565b34801561059657600080fd5b5061025b6105a53660046144f2565b611589565b3480156105b657600080fd5b5061025b6105c53660046147d4565b61184f565b3480156105d657600080fd5b5061025b6105e536600461440e565b61196f565b3480156105f657600080fd5b5061060a61060536600461485a565b611994565b60405161026791906149d0565b34801561062357600080fd5b5061037261063236600461485a565b611f57565b34801561064357600080fd5b506103247fdee69d384475c3656c17c592e94a2bbfd2a1998cce0c85f535569415a15863b881565b34801561067757600080fd5b50610521611f74565b34801561068c57600080fd5b50600254600160a01b900460ff1661044a565b3480156106ab57600080fd5b506002546001600160a01b03166104b5565b3480156106c957600080fd5b5061025b6106d836600461440e565b611f83565b3480156106e957600080fd5b5061025b6106f83660046144f2565b612065565b34801561070957600080fd5b5061025b6107183660046144f2565b61220e565b34801561072957600080fd5b5061025b61073836600461485a565b61239d565b34801561074957600080fd5b5061025b61075836600461443a565b6123d5565b34801561076957600080fd5b5061025b61077836600461440e565b600091825260486020526040909120600801546001600160a01b0391821691161490565b3480156107a857600080fd5b506103247ffc434588684348dd50856b075c47bed14245c1030aa04c32955af5549981462781565b3480156107dc57600080fd5b5061032461258b565b3480156107f157600080fd5b5061025b610800366004614a8d565b612595565b34801561081157600080fd5b506104b561273f565b34801561082657600080fd5b5061025b610835366004614a8d565b612749565b60006001600160e01b0319821663bbb33e8360e01b148061085f575061085f826128d4565b92915050565b6001600160a01b037f00000000000000000000000000000000000000000000000000000000000000001630036108b65760405162461bcd60e51b81526004016108ad90614aaa565b60405180910390fd5b7f00000000000000000000000000000000000000000000000000000000000000006001600160a01b03166108e8612924565b6001600160a01b03161461090e5760405162461bcd60e51b81526004016108ad90614ad0565b33610917612945565b6001600160a01b03161461095d5760405162461bcd60e51b815260206004820152600d60248201526c1058d8d95cdcc811195b9a5959609a1b60448201526064016108ad565b604e5462010000900460ff161580801561097f5750604e54600161ffff909116105b8061099a5750303b15801561099a5750604e5461ffff166001145b6109e65760405162461bcd60e51b815260206004820152601c60248201527f436f6e747261637420416c726561647920496e697469616c697a65640000000060448201526064016108ad565b604e805461ffff191660011790558015610a0c57604e805462ff00001916620100001790555b610a19868686868661296d565b610a21612924565b6001600160a01b031630336001600160a01b03167f247ab7b17ee489fa140c6666edc3822eefed2727610cd6e37192462b87244c6089898989610a67604e5461ffff1690565b604051610a78959493929190614b1f565b60405180910390a48015610a9357604e805462ff0000191690555b505050505050565b604051630bf09f5b60e11b8152604460048201819052602482018490526001600160a01b038316908201526000907361a74e6467B0eDd133Bf2fa08193Fc8B663D1750906317e13eb690606401602060405180830381865af4158015610b05573d6000803e3d6000fd5b505050506040513d601f19601f82011682018060405250810190610b299190614b5d565b9392505050565b60006001600160a01b037f0000000000000000000000000000000000000000000000000000000000000000163003610b7a5760405162461bcd60e51b81526004016108ad90614aaa565b7f00000000000000000000000000000000000000000000000000000000000000006001600160a01b0316610bac612924565b6001600160a01b031614610bd25760405162461bcd60e51b81526004016108ad90614ad0565b6000600254600160a01b900460ff166001811115610bf257610bf2614638565b14610c0f5760405162461bcd60e51b81526004016108ad90614b7a565b6001600254600160a81b900460ff166001811115610c2f57610c2f614638565b14610c4c5760405162461bcd60e51b81526004016108ad90614b9c565b6001600160a01b03821615801590610c6d57506001600160a01b0382163b15155b610c895760405162461bcd60e51b81526004016108ad90614bc7565b6002546001600160a01b031615610ce8576000610cac63071965c360e11b612981565b90506000816013811115610cc257610cc2614638565b14610ce25780604051637f0911d160e01b81526004016108ad9190614bf1565b50610d37565b33610cf1612945565b6001600160a01b031614610d375760405162461bcd60e51b815260206004820152600d60248201526c1058d8d95cdcc811195b9a5959609a1b60448201526064016108ad565b6040516301ffc9a760e01b81526331501c3960e01b60048201526001600160a01b038316906301ffc9a790602401602060405180830381865afa158015610d82573d6000803e3d6000fd5b505050506040513d601f19601f82011682018060405250810190610da69190614b5d565b610de05760405162461bcd60e51b815260206004820152600b60248201526a125b1b1959d85b081050d360aa1b60448201526064016108ad565b600280546001600160a01b0384166001600160a01b031990911681179091556040805191825251309133917f410bf468eebeeed60acaedb904afb2db7c0bb0131f7d14c3714d81b14fe8ed3c9181900360200190a35060015b919050565b60008060486000610e4f8686612a0c565b8152602081019190915260400160002060080154600160a01b900460ff166003811115610e7e57610e7e614638565b14159392505050565b6000808080610e9d8763217513cf60e01b612a3f565b92509250925060005b85811015611083576000604881898985818110610ec557610ec5614c05565b90506040020160000135815260200190815260200160002090506000610ef082600601548688612c5a565b90506000816007811115610f0657610f06614638565b14610f1457610f1481612ce6565b6000898985818110610f2857610f28614c05565b9050604002016020016020810190610f409190614c28565b6003811115610f5157610f51614638565b03610f955760405162461bcd60e51b8152602060048201526014602482015273496c6c6567616c20416c7465726162696c69747960601b60448201526064016108ad565b888884818110610fa757610fa7614c05565b9050604002016020016020810190610fbf9190614c28565b60088301805460ff60a81b1916600160a81b836003811115610fe357610fe3614638565b0217905550888884818110610ffa57610ffa614c05565b90506040020160000135846001600160a01b03167f4f3128c6e97c5e1fe84c0242655ffcfa2d5d2fb5a02b33d7213240dbc7ba56ca8b8b8781811061104157611041614c05565b90506040020160200160208101906110599190614c28565b6040516110669190614c45565b60405180910390a35050808061107b90614c68565b915050610ea6565b506001979650505050505050565b6001600160a01b0381166000908152604960209081526040918290208054835181840281018401909452808452606093928301828280156110f157602002820191906000526020600020905b8154815260200190600101908083116110dd575b50505050509050919050565b600061110c604e5461ffff1690565b905090565b60008080806111278763415bbda960e01b612a3f565b92509250925060005b8581101561108357600061116188888481811061114f5761114f614c05565b90506102600201600001358587612e7d565b905087878381811061117557611175614c05565b905061026002016101200181600a0181816111909190614cea565b9050508787838181106111a5576111a5614c05565b905061026002016020018160090181816111bf9190614eb4565b9050508787838181106111d4576111d4614c05565b9050610260020160000135836001600160a01b03167fd7fffd0a8ef7ffe01ad20949b8c7c77c4ef830462bbb872dfca19dfd002ddfac8a8a8681811061121c5761121c614c05565b90506102600201610120018b8b8781811061123957611239614c05565b905061026002016020016040516112519291906151e6565b60405180910390a3508061126481614c68565b915050611130565b6000306001600160a01b037f000000000000000000000000000000000000000000000000000000000000000016146112b65760405162461bcd60e51b81526004016108ad90614aaa565b5060008051602061567583398151915290565b600061110c612924565b60606001600160a01b037f000000000000000000000000000000000000000000000000000000000000000016300361131d5760405162461bcd60e51b81526004016108ad90614aaa565b7f00000000000000000000000000000000000000000000000000000000000000006001600160a01b031661134f612924565b6001600160a01b0316146113755760405162461bcd60e51b81526004016108ad90614ad0565b6000600254600160a01b900460ff16600181111561139557611395614638565b146113b25760405162461bcd60e51b81526004016108ad90614b7a565b6001600254600160a81b900460ff1660018111156113d2576113d2614638565b146113ef5760405162461bcd60e51b81526004016108ad90614b9c565b6001600160a01b0384163b6114165760405162461bcd60e51b81526004016108ad90614bc7565b61141f84612f09565b61142a848484612fa7565b949350505050565b600080600254600160a01b900460ff16600181111561145357611453614638565b146114705760405162461bcd60e51b81526004016108ad90614b7a565b600061148263756af45f60e01b612981565b9050600081601381111561149857611498614638565b146114b85780604051637f0911d160e01b81526004016108ad9190614bf1565b60405147906001600160a01b038516904780156108fc02916000818181858888f193505050501580156114ef573d6000803e3d6000fd5b509392505050565b60606000805461150690615203565b80601f016020809104026020016040519081016040528092919081815260200182805461153290615203565b801561157f5780601f106115545761010080835404028352916020019161157f565b820191906000526020600020905b81548152906001019060200180831161156257829003601f168201915b5050505050905090565b600080808061159f87637fb31de760e01b612a3f565b92509250925060005b858110156110835760006115d88888848181106115c7576115c7614c05565b905060400201600001358587612e7d565b905060008888848181106115ee576115ee614c05565b905060400201602001351461176d576001604460008a8a8681811061161557611615614c05565b90506040020160200135815260200190815260200160002060010160009054906101000a900460ff16600381111561164f5761164f614638565b1161169c5760405162461bcd60e51b815260206004820152601760248201527f496c6c6567616c2041646d696e204167656e745479706500000000000000000060448201526064016108ad565b60006116c28989858181106116b3576116b3614c05565b9050604002016020013561315f565b60405174554e4956455253452e4c4956454c595f564552534560581b60208201529091506035016040516020818303038152906040528051906020012081146117435760405162461bcd60e51b8152602060048201526013602482015272496c6c6567616c2041646d696e2053636f706560681b60448201526064016108ad565b88888481811061175557611755614c05565b905060400201602001358260060181905550506117ce565b6040516020016117b0907f545950452e4c4956454c595f56455253452e4c4956454c595f50524f46494c458152662fa6a0a9aa22a960c91b602082015260270190565b60408051601f19818403018152919052805160209091012060068201555b8787838181106117e0576117e0614c05565b905060400201602001358888848181106117fc576117fc614c05565b90506040020160000135846001600160a01b03167f8e2d11bbb9e276ce5830b203fc24c18192ac681ce3640e21505a8a6fe9f028d160405160405180910390a4508061184781614c68565b9150506115a8565b60008080806118658763406c8d4560e11b612a3f565b9194509250905060006118796044846131d5565b600381015490915060009061189e90600189900b90600160481b900461ffff16615237565b60030b12156118e75760405162461bcd60e51b8152602060048201526015602482015274125b1b1959d85b08149959da5cdd195c931a5b5a5d605a1b60448201526064016108ad565b60038101805461ffff600160481b80830482168a9003909116026affff0000000000000000001990911617905560005b868110156119605761194e88888381811061193457611934614c05565b9050602002810190611946919061525e565b8486886132b2565b8061195881614c68565b915050611917565b50600198975050505050505050565b6000610b2961197d8361343e565b60008581526048602052604090206004019061347d565b611a636040805161010080820183526060808352600060208085018290528486018290528551938401865281845283018190529382018490528181018490526080820184905260a0820184905260c0820184905260e082019390935290918201908152604080516101408101825260008082526020828101829052928201819052606082018190526080820181905260a0820181905260c0820181905260e082018190526101008201819052610120820152910190815260200160008152602001600081526020016000905290565b6000828152604860205260408120906008820154600160a01b900460ff166003811115611a9257611a92614638565b03611b6957604080516101208082018352600061010080840182815284526020808501839052848601839052855180830187528381528082018490528087018490526060818101859052608080830186905260a080840187905260c084810188905260e0858101899052848b01959095528a5161014081018c5288815295860188905299850187905291840186905283810186905283820186905297830185905290820184905291810183905292830182905293830191909152909182019081526020016000815260200160005b90529392505050565b604051806101000160405280826007018054611b8490615203565b80601f0160208091040260200160405190810160405280929190818152602001828054611bb090615203565b8015611bfd5780601f10611bd257610100808354040283529160200191611bfd565b820191906000526020600020905b815481529060010190602001808311611be057829003601f168201915b50505050508152602001826006015481526020018260080160009054906101000a90046001600160a01b03166001600160a01b0316815260200182600901604051806101000160405290816000820160009054906101000a900463ffffffff1663ffffffff1663ffffffff1681526020016000820160049054906101000a900463ffffffff1663ffffffff1663ffffffff1681526020016000820160089054906101000a900463ffffffff1663ffffffff1663ffffffff16815260200160008201600c9054906101000a900463ffffffff1663ffffffff1663ffffffff1681526020016000820160109054906101000a900463ffffffff1663ffffffff1663ffffffff1681526020016000820160149054906101000a900461ffff1661ffff1661ffff1681526020016000820160169054906101000a900461ffff1661ffff1661ffff1681526020016000820160189054906101000a900461ffff1661ffff1661ffff1681525050815260200182600a01604051806101400160405290816000820160009054906101000a900463ffffffff1663ffffffff1663ffffffff1681526020016000820160049054906101000a900463ffffffff1663ffffffff1663ffffffff1681526020016000820160089054906101000a900462ffffff1662ffffff1662ffffff16815260200160008201600b9054906101000a900461ffff1661ffff1661ffff16815260200160008201600d9054906101000a900461ffff1661ffff1661ffff16815260200160008201600f9054906101000a900461ffff1661ffff1661ffff1681526020016000820160119054906101000a900461ffff1661ffff1661ffff1681526020016000820160139054906101000a900461ffff1661ffff1661ffff1681526020016000820160159054906101000a900461ffff1661ffff1661ffff1681526020016000820160179054906101000a900460ff1660ff1660ff16815250508152602001604460000160008460060154815260200190815260200160002060010160009054906101000a900460ff166003811115611f0757611f07614638565b81526020018260080160149054906101000a900460ff166003811115611f2f57611f2f614638565b81526020018260080160159054906101000a900460ff166003811115611b6057611b60614638565b600081815260486020526040902060609061085f90600401613495565b60606001805461150690615203565b6000828152604860205260408120816008820154600160a01b900460ff166003811115611fb257611fb2614638565b03611fc157600091505061085f565b600080611fd7611fd08661343e565b84906134a0565b9150915080611fec576000935050505061085f565b61205b604051602001612033907f545950452e4c4956454c595f50524f46494c452e4c4956454c595f535953544581526726afa6a0a9aa22a960c11b602082015260280190565b604051602081830303815290604052805190602001208360040161347d90919063ffffffff16565b9695505050505050565b600080808061207b8763603ac71160e11b612a3f565b92509250925060005b858110156110835760006120a38888848181106115c7576115c7614c05565b905060018888848181106120b9576120b9614c05565b90506040020160200160208101906120d19190614c28565b60038111156120e2576120e2614638565b116121225760405162461bcd60e51b815260206004820152601060248201526f496c6c6567616c20416374697669747960801b60448201526064016108ad565b87878381811061213457612134614c05565b905060400201602001602081019061214c9190614c28565b60088201805460ff60a01b1916600160a01b83600381111561217057612170614638565b021790555087878381811061218757612187614c05565b90506040020160000135836001600160a01b03167f232dd3e0530ea38ef8afade21a80df705460532d33bce942873a3432da868e9c8a8a868181106121ce576121ce614c05565b90506040020160200160208101906121e69190614c28565b6040516121f39190614c45565b60405180910390a3508061220681614c68565b915050612084565b60008080806122248763c464952d60e01b612a3f565b92509250925060005b8581101561108357600061224c8888848181106115c7576115c7614c05565b60088101549091506001600160a01b03167361a74e6467B0eDd133Bf2fa08193Fc8B663D17506323cff7416044848c8c8881811061228c5761228c614c05565b9050604002016040518463ffffffff1660e01b81526004016122b09392919061527f565b602060405180830381865af41580156122cd573d6000803e3d6000fd5b505050506040513d601f19601f820116820180604052508101906122f19190614b5d565b50806001600160a01b031689898581811061230e5761230e614c05565b90506040020160000135856001600160a01b03167fc7bcdcb0612e7bdc43260c9999b19a30e2dae79d7eccc6aea67d56ef59a8dbae8c8c8881811061235557612355614c05565b905060400201602001602081019061236d919061443a565b6040516001600160a01b03909116815260200160405180910390a45050808061239590614c68565b91505061222d565b600080600083815260486020526040902060080154600160a01b900460ff1660038111156123cd576123cd614638565b141592915050565b60006001600160a01b037f000000000000000000000000000000000000000000000000000000000000000016300361241f5760405162461bcd60e51b81526004016108ad90614aaa565b7f00000000000000000000000000000000000000000000000000000000000000006001600160a01b0316612451612924565b6001600160a01b0316146124775760405162461bcd60e51b81526004016108ad90614ad0565b6000600254600160a01b900460ff16600181111561249757612497614638565b146124b45760405162461bcd60e51b81526004016108ad90614b7a565b6001600254600160a81b900460ff1660018111156124d4576124d4614638565b146124f15760405162461bcd60e51b81526004016108ad90614b9c565b600061250363d9dc1f1960e01b612981565b9050600081601381111561251957612519614638565b146125395780604051637f0911d160e01b81526004016108ad9190614bf1565b6001600160a01b0383166125795760405162461bcd60e51b8152602060048201526007602482015266125b9d985b1a5960ca1b60448201526064016108ad565b612582836134fb565b50600192915050565b600061110c613572565b60006001600160a01b037f00000000000000000000000000000000000000000000000000000000000000001630036125df5760405162461bcd60e51b81526004016108ad90614aaa565b7f00000000000000000000000000000000000000000000000000000000000000006001600160a01b0316612611612924565b6001600160a01b0316146126375760405162461bcd60e51b81526004016108ad90614ad0565b6000612646604e5461ffff1690565b61ffff16116126825760405162461bcd60e51b81526020600482015260086024820152671393d5081253925560c21b60448201526064016108ad565b6000612694630f708ceb60e41b612981565b905060008160138111156126aa576126aa614638565b146126ca5780604051637f0911d160e01b81526004016108ad9190614bf1565b6002805484919060ff60a01b1916600160a01b8360018111156126ef576126ef614638565b021790555030336001600160a01b03167fc08ec585c25f1907baaab6f278c5994531a2e34c59935b3fcfe813067a3b48788560405161272e919061465e565b60405180910390a350600192915050565b600061110c612945565b60006001600160a01b037f00000000000000000000000000000000000000000000000000000000000000001630036127935760405162461bcd60e51b81526004016108ad90614aaa565b7f00000000000000000000000000000000000000000000000000000000000000006001600160a01b03166127c5612924565b6001600160a01b0316146127eb5760405162461bcd60e51b81526004016108ad90614ad0565b6000600254600160a01b900460ff16600181111561280b5761280b614638565b146128285760405162461bcd60e51b81526004016108ad90614b7a565b600061283a631f98802f60e31b612981565b9050600081601381111561285057612850614638565b146128705780604051637f0911d160e01b81526004016108ad9190614bf1565b6002805484919060ff60a81b1916600160a81b83600181111561289557612895614638565b021790555030336001600160a01b03167ff5912c5e436152157ed2b4a84bc313b4b1fe09a15b941f195d23c99a1b8c45ad8560405161272e919061465e565b60006001600160e01b03198216633d817cff60e01b148061290557506001600160e01b031982166352d1902d60e01b145b8061085f57506301ffc9a760e01b6001600160e01b031983161461085f565b60006000805160206156758339815191525b546001600160a01b0316919050565b60007fb53127684a568b3173ae13b9f8a6016e243e63b6e8ee1178d6a717850b5d6103612936565b61297a8585858585613626565b5050505050565b6002546040805163172cb29d60e11b81523060048201526001600160e01b03198416602482015233604482015290516000926001600160a01b031691632e59653a916064808301926020929190829003018187875af11580156129e8573d6000803e3d6000fd5b505050506040513d601f19601f8201168201806040525081019061085f91906152b8565b60008282604051602001612a219291906152d9565b60405160208183030381529060405280519060200120905092915050565b6000808080306001600160a01b031663a304e3536040518163ffffffff1660e01b8152600401602060405180830381865afa158015612a82573d6000803e3d6000fd5b505050506040513d601f19601f82011682018060405250810190612aa691906152e9565b6001811115612ab757612ab7614638565b14612ad45760405162461bcd60e51b81526004016108ad90614b7a565b600080612ae46040880188615306565b90501115612b785742612afd604088016020890161534c565b6001600160401b031611612b475760405162461bcd60e51b815260206004820152601160248201527045787069726564205369676e617475726560781b60448201526064016108ad565b612b71867fdee69d384475c3656c17c592e94a2bbfd2a1998cce0c85f535569415a15863b86137ef565b9050612b7b565b50335b6001600160e01b031985166000908152604a60205260408120546001600160a01b031690612ba982886138a7565b90506000612bb68461343e565b604051634902a91960e11b8152600481018490526024810182905290915060009030906392055232906044016020604051808303816000875af1158015612c01573d6000803e3d6000fd5b505050506040513d601f19601f82011682018060405250810190612c2591906152b8565b90506000816013811115612c3b57612c3b614638565b14612c4957612c49816138de565b509095509350909150509250925092565b60405163ca37fa8560e01b8152604460048201819052602482018590528101839052606481018290526000907361a74e6467B0eDd133Bf2fa08193Fc8B663D17509063ca37fa8590608401602060405180830381865af4158015612cc2573d6000803e3d6000fd5b505050506040513d601f19601f8201168201806040525081019061142a9190615375565b6001816007811115612cfa57612cfa614638565b03612d18576040516334267bfb60e11b815260040160405180910390fd5b6002816007811115612d2c57612d2c614638565b03612d4a576040516343f871e760e11b815260040160405180910390fd5b6003816007811115612d5e57612d5e614638565b03612d7c57604051639afb7c5f60e01b815260040160405180910390fd5b6004816007811115612d9057612d90614638565b03612dae576040516332314d6b60e11b815260040160405180910390fd5b6005816007811115612dc257612dc2614638565b03612de057604051633123155560e01b815260040160405180910390fd5b6006816007811115612df457612df4614638565b03612e1257604051631b210af760e21b815260040160405180910390fd5b6007816007811115612e2657612e26614638565b03612e44576040516339f73ba360e11b815260040160405180910390fd5b60405162461bcd60e51b815260206004820152600b60248201526a2ab735b737bbb71022a92960a91b60448201526064016108ad565b50565b600083815260486020526040812060026008820154600160a81b900460ff166003811115612ead57612ead614638565b1015612ecb5760405162461bcd60e51b81526004016108ad90614b9c565b6000612edc82600601548686612c5a565b90506000816007811115612ef257612ef2614638565b14612f0057612f0081612ce6565b50949350505050565b612f11612924565b6001600160a01b0316816001600160a01b031603612f5b5760405162461bcd60e51b8152602060048201526007602482015266125b1b1959d85b60ca1b60448201526064016108ad565b6000612f6d637147855d60e01b612981565b90506000816013811115612f8357612f83614638565b14612fa35780604051637f0911d160e01b81526004016108ad9190614bf1565b5050565b60607f4910fdfa16fed3260ed0e7147f7cc6da11a60208b5b9406d12a635614ffd91435460ff1615612ff157612fdc84613c93565b50604080516000815260208101909152610b29565b60008051602061567583398151915260001b846001600160a01b03166352d1902d6040518163ffffffff1660e01b8152600401602060405180830381865afa158015613041573d6000803e3d6000fd5b505050506040513d601f19601f820116820180604052508101906130659190615396565b146130a15760405162461bcd60e51b815260206004820152600c60248201526b496c6c6567616c205555505360a01b60448201526064016108ad565b6040516301ffc9a760e01b8152633d817cff60e01b60048201526001600160a01b038516906301ffc9a790602401602060405180830381865afa1580156130ec573d6000803e3d6000fd5b505050506040513d601f19601f820116820180604052508101906131109190614b5d565b61314d5760405162461bcd60e51b815260206004820152600e60248201526d496c6c6567616c204950726f787960901b60448201526064016108ad565b613158848484613cc2565b9050610b29565b60008181526044602052604081206001015460ff16600281600381111561318857613188614638565b036131a657600061319a604485613d23565b60020154949350505050565b60038160038111156131ba576131ba614638565b036131cc57600061319a604485613e00565b50600092915050565b600081815260208390526040812060018082015460ff1660038111156131fd576131fd614638565b036132185760408051848152602081018690522091506132ab565b6000600182015460ff16600381111561323357613233614638565b036132705760405162461bcd60e51b815260206004820152600d60248201526c13525108139bdd08119bdd5b99609a1b60448201526064016108ad565b60405162461bcd60e51b815260206004820152601060248201526f125b1b1959d85b081352510814db1bdd60821b60448201526064016108ad565b5092915050565b60006132c66132c18680615306565b612a0c565b905060008082815260486020526040902060080154600160a01b900460ff1660038111156132f6576132f6614638565b146133335760405162461bcd60e51b815260206004820152600d60248201526c105b1c9958591e48115e1a5cdd609a1b60448201526064016108ad565b604051630a49d65760e21b81526000907361a74e6467B0eDd133Bf2fa08193Fc8B663D175090632927595c90613376906044908a90899088908a906004016153af565b602060405180830381865af4158015613393573d6000803e3d6000fd5b505050506040513d601f19601f820116820180604052508101906133b79190615396565b90506133cb6102808701610260880161443a565b6001600160a01b031682866001600160a01b03167fae81de16b2b1d9f8d1fe49dc20d876206bc90bb6ab46c530bc281e89908901b489610280016020810190613414919061443a565b858b6020018c6101200160405161342e9493929190615498565b60405180910390a4505050505050565b6040516bffffffffffffffffffffffff19606083901b166020820152600090603401604051602081830303815290604052805190602001209050919050565b60008181526001830160205260408120541515610b29565b606061085f82613ed7565b6000818152602083905260408120819060018082015460ff1660038111156134ca576134ca614638565b036134e9575050604080518381526020810185905220905060016134f4565b600019925060009150505b9250929050565b7fb53127684a568b3173ae13b9f8a6016e243e63b6e8ee1178d6a717850b5d610380546001600160a01b0383166001600160a01b031990911681179091556040805191825251309133917f63fdbed5f2909ec44e3becc51e9d29654ce1447747914e8a6ebc019e7f640b8b9181900360200190a350565b60007f8b73c3c69bb8fe3d512ecc4cf759cc79239f7b179b0ffacaa9a75d522b39400f60006040516020016135a791906154d4565b6040516020818303038152906040528051906020012060016040516020016135cf91906154d4565b60408051601f1981840301815282825280516020918201209083019490945281019190915260608101919091524660808201523060a082015260c00160405160208183030381529060405280519060200120905090565b604e5462010000900460ff1661367e5760405162461bcd60e51b815260206004820152601960248201527f436f6e7472616374204e6f7420496e697469616c697a696e670000000000000060448201526064016108ad565b600061368b858783615590565b506001613699838583615590565b506001600160a01b038116301461377f576001600160a01b0381163b6136d15760405162461bcd60e51b81526004016108ad90614bc7565b6040516301ffc9a760e01b81526331501c3960e01b60048201526001600160a01b038216906301ffc9a790602401602060405180830381865afa15801561371c573d6000803e3d6000fd5b505050506040513d601f19601f820116820180604052508101906137409190614b5d565b61377a5760405162461bcd60e51b815260206004820152600b60248201526a125b1b1959d85b081050d360aa1b60448201526064016108ad565b6137cb565b61378f6331501c3960e01b61083a565b6137cb5760405162461bcd60e51b815260206004820152600d60248201526c139bdd0814dd5c1c1bdc9d1959609a1b60448201526064016108ad565b600280546001600160b01b0319166001600160a01b03831617905561297a336134fb565b6000610b296138016040850185615306565b8080601f0160208091040260200160405190810160405280939291908181526020018383808284376000920191909152506138a292508691506138499050602088018861443a565b6138596040890160208a0161534c565b6001600160401b0316604080516020808201959095526001600160a01b039390931683820152606080840192909252805180840390920182526080909201909152805191012090565b613f31565b6040516bffffffffffffffffffffffff19606084901b1660208201526001600160e01b031982166034820152600090603801612a21565b60018160138111156138f2576138f2614638565b03613910576040516338bb798160e21b815260040160405180910390fd5b600281601381111561392457613924614638565b0361394257604051634f69231960e11b815260040160405180910390fd5b600381601381111561395657613956614638565b0361397457604051637e33e43360e01b815260040160405180910390fd5b600481601381111561398857613988614638565b036139a657604051630287b9e560e51b815260040160405180910390fd5b60058160138111156139ba576139ba614638565b036139d857604051633beb1f4d60e11b815260040160405180910390fd5b60068160138111156139ec576139ec614638565b03613a0a5760405163036c45ad60e51b815260040160405180910390fd5b6007816013811115613a1e57613a1e614638565b03613a3c5760405163c0af595f60e01b815260040160405180910390fd5b6008816013811115613a5057613a50614638565b03613a6e5760405163249eeb8960e01b815260040160405180910390fd5b6009816013811115613a8257613a82614638565b03613aa0576040516311fb41e160e21b815260040160405180910390fd5b600a816013811115613ab457613ab4614638565b03613ad257604051637331e2bb60e01b815260040160405180910390fd5b600b816013811115613ae657613ae6614638565b03613b045760405163163099ab60e01b815260040160405180910390fd5b600c816013811115613b1857613b18614638565b03613b365760405163975a86e560e01b815260040160405180910390fd5b600d816013811115613b4a57613b4a614638565b03613b6857604051631140570360e21b815260040160405180910390fd5b600e816013811115613b7c57613b7c614638565b03613b9a57604051630622823b60e31b815260040160405180910390fd5b600f816013811115613bae57613bae614638565b03613bcc57604051636d30058d60e11b815260040160405180910390fd5b6010816013811115613be057613be0614638565b03613bfe576040516304acbcf160e51b815260040160405180910390fd5b6011816013811115613c1257613c12614638565b03613c3057604051636effd2d560e01b815260040160405180910390fd5b6012816013811115613c4457613c44614638565b03613c6157604051623f318960e21b815260040160405180910390fd5b6013816013811115613c7557613c75614638565b03612e4457604051634bc7b56f60e11b815260040160405180910390fd5b60008051602061567583398151915280546001600160a01b0319166001600160a01b0392909216919091179055565b6060613ccd84613fa6565b600083511180613cda5750815b15613d0d5761315884846040518060400160405280600b81526020016a10d85b1b0811985a5b195960aa1b815250613fea565b6040805160008082526020820190925290612f00565b60008181526020839052604081206002600182015460ff166003811115613d4c57613d4c614638565b03613d675760408051848152602081018690522091506132ab565b6000600182015460ff166003811115613d8257613d82614638565b03613dc25760405162461bcd60e51b815260206004820152601060248201526f149bdb19525908139bdd08119bdd5b9960821b60448201526064016108ad565b60405162461bcd60e51b8152602060048201526013602482015272125b1b1959d85b08149bdb1952590814db1bdd606a1b60448201526064016108ad565b60008181526020839052604081206003600182015460ff166003811115613e2957613e29614638565b03613e445760408051848152602081018690522091506132ab565b6000600182015460ff166003811115613e5f57613e5f614638565b03613e9c5760405162461bcd60e51b815260206004820152600d60248201526c15125108139bdd08119bdd5b99609a1b60448201526064016108ad565b60405162461bcd60e51b815260206004820152601060248201526f125b1b1959d85b081512510814db1bdd60821b60448201526064016108ad565b6060816000018054806020026020016040519081016040528092919081815260200182805480156110f157602002820191906000526020600020908154815260200190600101908083116110dd5750505050509050919050565b600080613f3d836140ae565b9050600080613f4c838761411b565b90925090506000816004811115613f6557613f65614638565b14612f005760405162461bcd60e51b8152602060048201526011602482015270496c6c6567616c205369676e617475726560781b60448201526064016108ad565b613faf81613c93565b6040516001600160a01b03821690309033907f8ee0f2bd29c0e6a975c3cc2e47cf2e01b5f23a9a8a02e0ed6a5a070269de3d2d90600090a450565b60606001600160a01b0384163b6140435760405162461bcd60e51b815260206004820152601860248201527f496c6c6567616c20436f6e74726163742041646472657373000000000000000060448201526064016108ad565b600080856001600160a01b03168560405161405e919061564f565b600060405180830381855af49150503d8060008114614099576040519150601f19603f3d011682016040523d82523d6000602084013e61409e565b606091505b509150915061205b828286614186565b600061085f306001600160a01b031663f698da256040518163ffffffff1660e01b8152600401602060405180830381865afa1580156140f1573d6000803e3d6000fd5b505050506040513d601f19601f820116820180604052508101906141159190615396565b836141bf565b60008082516041036141515760208301516040840151606085015160001a614145878285856141e6565b945094505050506134f4565b825160400361417a576020830151604084015161416f8683836142d3565b9350935050506134f4565b506000905060026134f4565b60608315614195575081610b29565b8251156141a55782518084602001fd5b8160405162461bcd60e51b81526004016108ad91906147c1565b60405161190160f01b60208201526022810183905260428101829052600090606201612a21565b6000807f7fffffffffffffffffffffffffffffff5d576e7357a4501ddfe92f46681b20a083111561421d57506000905060036142ca565b8460ff16601b1415801561423557508460ff16601c14155b1561424657506000905060046142ca565b6040805160008082526020820180845289905260ff881692820192909252606081018690526080810185905260019060a0016020604051602081039080840390855afa15801561429a573d6000803e3d6000fd5b5050604051601f1901519150506001600160a01b0381166142c3576000600192509250506142ca565b9150600090505b94509492505050565b6000806001600160ff1b038316816142f060ff86901c601b615661565b90506142fe878288856141e6565b935093505050935093915050565b60006020828403121561431e57600080fd5b81356001600160e01b031981168114610b2957600080fd5b60008083601f84011261434857600080fd5b5081356001600160401b0381111561435f57600080fd5b6020830191508360208285010111156134f457600080fd5b80356001600160a01b0381168114610e3957600080fd5b6000806000806000606086880312156143a657600080fd5b85356001600160401b03808211156143bd57600080fd5b6143c989838a01614336565b909750955060208801359150808211156143e257600080fd5b506143ef88828901614336565b9094509250614402905060408701614377565b90509295509295909350565b6000806040838503121561442157600080fd5b8235915061443160208401614377565b90509250929050565b60006020828403121561444c57600080fd5b610b2982614377565b6000806020838503121561446857600080fd5b82356001600160401b0381111561447e57600080fd5b61448a85828601614336565b90969095509350505050565b6000606082840312156144a857600080fd5b50919050565b60008083601f8401126144c057600080fd5b5081356001600160401b038111156144d757600080fd5b6020830191508360208260061b85010111156134f457600080fd5b60008060006040848603121561450757600080fd5b83356001600160401b038082111561451e57600080fd5b61452a87838801614496565b9450602086013591508082111561454057600080fd5b5061454d868287016144ae565b9497909650939450505050565b6020808252825182820181905260009190848201906040850190845b8181101561459257835183529284019291840191600101614576565b50909695505050505050565b6000806000604084860312156145b357600080fd5b83356001600160401b03808211156145ca57600080fd5b6145d687838801614496565b945060208601359150808211156145ec57600080fd5b818601915086601f83011261460057600080fd5b81358181111561460f57600080fd5b8760206102608302850101111561462557600080fd5b6020830194508093505050509250925092565b634e487b7160e01b600052602160045260246000fd5b60028110612e7a57612e7a614638565b6020810161466b8361464e565b91905290565b634e487b7160e01b600052604160045260246000fd5b8015158114612e7a57600080fd5b8035610e3981614687565b6000806000606084860312156146b557600080fd5b6146be84614377565b925060208401356001600160401b03808211156146da57600080fd5b818601915086601f8301126146ee57600080fd5b81358181111561470057614700614671565b604051601f8201601f19908116603f0116810190838211818310171561472857614728614671565b8160405282815289602084870101111561474157600080fd5b82602086016020830137600060208483010152809650505050505061476860408501614695565b90509250925092565b60005b8381101561478c578181015183820152602001614774565b50506000910152565b600081518084526147ad816020860160208601614771565b601f01601f19169290920160200192915050565b602081526000610b296020830184614795565b6000806000604084860312156147e957600080fd5b83356001600160401b038082111561480057600080fd5b61480c87838801614496565b9450602086013591508082111561482257600080fd5b818601915086601f83011261483657600080fd5b81358181111561484557600080fd5b8760208260051b850101111561462557600080fd5b60006020828403121561486c57600080fd5b5035919050565b63ffffffff8082511683528060208301511660208401528060408301511660408401528060608301511660608401528060808301511660808401525060a081015161ffff80821660a08501528060c08401511660c0850152505060e08101516148e260e084018261ffff169052565b505050565b805163ffffffff1682526020810151614908602084018263ffffffff169052565b50604081015161491f604084018262ffffff169052565b506060810151614935606084018261ffff169052565b50608081015161494b608084018261ffff169052565b5060a081015161496160a084018261ffff169052565b5060c081015161497760c084018261ffff169052565b5060e081015161498d60e084018261ffff169052565b506101008181015161ffff16908301526101208082015160ff8116828501525b50505050565b60048110612e7a57612e7a614638565b6149cc816149b3565b9052565b60208152600082516103008060208501526149ef610320850183614795565b9150602085015160408501526040850151614a1560608601826001600160a01b03169052565b506060850151614a286080860182614873565b506080850151614a3c6101808601826148e7565b5060a0850151614a506102c08601826149c3565b5060c0850151614a646102e08601826149c3565b5060e0850151614a76828601826149c3565b5090949350505050565b60028110612e7a57600080fd5b600060208284031215614a9f57600080fd5b8135610b2981614a80565b6020808252600c908201526b125b1b1959d85b0810d85b1b60a21b604082015260600190565b6020808252600c908201526b125b9d985b1a590810d85b1b60a21b604082015260600190565b81835281816020850137506000828201602090810191909152601f909101601f19169091010190565b606081526000614b33606083018789614af6565b8281036020840152614b46818688614af6565b91505061ffff831660408301529695505050505050565b600060208284031215614b6f57600080fd5b8151610b2981614687565b60208082526008908201526714995a9958dd195960c21b604082015260600190565b602080825260119082015270496c6c6567616c20557064617461626c6560781b604082015260600190565b60208082526010908201526f125b1b1959d85b0810dbdb9d1c9858dd60821b604082015260600190565b602081016014831061466b5761466b614638565b634e487b7160e01b600052603260045260246000fd5b60048110612e7a57600080fd5b600060208284031215614c3a57600080fd5b8135610b2981614c1b565b6020810161466b836149b3565b634e487b7160e01b600052601160045260246000fd5b600060018201614c7a57614c7a614c52565b5060010190565b63ffffffff81168114612e7a57600080fd5b6000813561085f81614c81565b62ffffff81168114612e7a57600080fd5b61ffff81168114612e7a57600080fd5b6000813561085f81614cb1565b60ff81168114612e7a57600080fd5b6000813561085f81614cce565b8135614cf581614c81565b815463ffffffff191663ffffffff8216178255506020820135614d1781614c81565b815467ffffffff000000001916602082901b67ffffffff0000000016178255506040820135614d4581614ca0565b81546affffff0000000000000000191660409190911b6affffff000000000000000016178155614d9a614d7a60608401614cc1565b82805461ffff60581b191660589290921b61ffff60581b16919091179055565b614dc9614da960808401614cc1565b82805461ffff60681b191660689290921b61ffff60681b16919091179055565b614df8614dd860a08401614cc1565b82805461ffff60781b191660789290921b61ffff60781b16919091179055565b614e27614e0760c08401614cc1565b82805461ffff60881b191660889290921b61ffff60881b16919091179055565b614e56614e3660e08401614cc1565b82805461ffff60981b191660989290921b61ffff60981b16919091179055565b614e86614e666101008401614cc1565b82805461ffff60a81b191660a89290921b61ffff60a81b16919091179055565b612fa3614e966101208401614cdd565b82805460ff60b81b191660b89290921b60ff60b81b16919091179055565b8135614ebf81614c81565b815463ffffffff191663ffffffff8216178255506020820135614ee181614c81565b815467ffffffff000000001916602082901b67ffffffff0000000016178255506040820135614f0f81614c81565b815463ffffffff60401b8260401b1691508163ffffffff60401b1982161783556060840135614f3d81614c81565b6fffffffffffffffff0000000000000000199190911690911760609190911b63ffffffff60601b16178155614f9b614f7760808401614c93565b82805463ffffffff60801b191660809290921b63ffffffff60801b16919091179055565b614fca614faa60a08401614cc1565b82805461ffff60a01b191660a09290921b61ffff60a01b16919091179055565b614ff9614fd960c08401614cc1565b82805461ffff60b01b191660b09290921b61ffff60b01b16919091179055565b612fa361500860e08401614cc1565b82805461ffff60c01b191660c09290921b61ffff60c01b16919091179055565b8035610e3981614c81565b8035610e3981614ca0565b8035610e3981614cb1565b8035610e3981614cce565b61506b8261506183615028565b63ffffffff169052565b61507760208201615028565b63ffffffff16602083015261508e60408201615033565b62ffffff1660408301526150a46060820161503e565b61ffff1660608301526150b96080820161503e565b61ffff1660808301526150ce60a0820161503e565b61ffff1660a08301526150e360c0820161503e565b61ffff1660c08301526150f860e0820161503e565b61ffff1660e083015261010061510f82820161503e565b61ffff1690830152610120615125828201615049565b60ff8116848301526149ad565b803561513d81614c81565b63ffffffff908116835260208201359061515682614c81565b908116602084015260408201359061516d82614c81565b908116604084015260608201359061518482614c81565b16606083015261519660808201615028565b63ffffffff1660808301526151ad60a0820161503e565b61ffff1660a08301526151c260c0820161503e565b61ffff1660c08301526151d760e0820161503e565b61ffff811660e0840152505050565b61024081016151f58285615054565b610b29610140830184615132565b600181811c9082168061521757607f821691505b6020821081036144a857634e487b7160e01b600052602260045260246000fd5b600382810b9082900b03637fffffff198112637fffffff8213171561085f5761085f614c52565b600082356102be1983360301811261527557600080fd5b9190910192915050565b83815260208082018490528235604083015260808201906001600160a01b03906152aa908501614377565b166060830152949350505050565b6000602082840312156152ca57600080fd5b815160148110610b2957600080fd5b8183823760009101908152919050565b6000602082840312156152fb57600080fd5b8151610b2981614a80565b6000808335601e1984360301811261531d57600080fd5b8301803591506001600160401b0382111561533757600080fd5b6020019150368190038213156134f457600080fd5b60006020828403121561535e57600080fd5b81356001600160401b0381168114610b2957600080fd5b60006020828403121561538757600080fd5b815160088110610b2957600080fd5b6000602082840312156153a857600080fd5b5051919050565b85815260a0602082015260008535601e198736030181126153cf57600080fd5b86016020810190356001600160401b038111156153eb57600080fd5b8036038213156153fa57600080fd5b6102c060a085015261541161036085018284614af6565b91505061542460c0840160208901615132565b6154366101c084016101208901615054565b6154436102608801614377565b6001600160a01b031661030084015261545f6102808801614377565b6001600160a01b03166103208401526102a096909601356103408301525060408101939093526060830191909152608090910152919050565b6001600160a01b03851681526020810184905261028081016154bd6040830185615132565b6154cb610140830184615054565b95945050505050565b60008083546154e281615203565b600182811680156154fa576001811461550f5761553e565b60ff198416875282151583028701945061553e565b8760005260208060002060005b858110156155355781548a82015290840190820161551c565b50505082870194505b50929695505050505050565b601f8211156148e257600081815260208120601f850160051c810160208610156155715750805b601f850160051c820191505b81811015610a935782815560010161557d565b6001600160401b038311156155a7576155a7614671565b6155bb836155b58354615203565b8361554a565b6000601f8411600181146155ef57600085156155d75750838201355b600019600387901b1c1916600186901b17835561297a565b600083815260209020601f19861690835b828110156156205786850135825560209485019460019092019101615600565b508682101561563d5760001960f88860031b161c19848701351681555b505060018560011b0183555050505050565b60008251615275818460208701614771565b8082018082111561085f5761085f614c5256fe360894a13ba1a3210667c828492db98dca3e2076cc3735a920a3ca505d382bbca264697066735822122047546b33fad7e35ccd8ac5451789c3a159b52d91744a50f12c57e4bcff9c629064736f6c63430008130033b53127684a568b3173ae13b9f8a6016e243e63b6e8ee1178d6a717850b5d6103",
  "deployedBytecode": "0x6080604052600436106102325760003560e01c80637678922e1161012d578063bf8c4e0e116100b0578063e9f5031011610077578063e9f503101461075d578063f0b15def1461079c578063f698da25146107d0578063f708ceb0146107e5578063f94a0adb14610805578063fcc401781461081a57005b8063bf8c4e0e146106bd578063c0758e22146106dd578063c464952d146106fd578063c781757a1461071d578063d9dc1f191461073d57005b80639015c7ea116100f45780639015c7ea146106175780639b97b53414610637578063a0a8e4601461066b578063a304e35314610680578063b4a0bdf31461069f57005b80637678922e146105635780637fb31de71461058a57806380d91a8a146105aa578063859fb7ee146105ca5780638f158394146105ea57005b806338d38c97116101b557806358dbc45d1161017c57806358dbc45d146104a057806364d4c819146104cd5780637147855d14610501578063756af45f1461052e57806375d0c0dc1461054e57005b806338d38c97146103e7578063415bbda91461040f5780634888f4821461042f5780634bf0414d1461045757806352d1902d1461048b57005b80631b452f4b116101f95780631b452f4b146102f0578063217513cf14610332578063289b189214610352578063301c12801461037f57806334109de2146103b357005b806301ffc9a71461023b578063077f224a146102705780630c761ec6146102905780630e32cb86146102b05780630f6c4127146102d057005b3661023957005b005b34801561024757600080fd5b5061025b61025636600461430c565b61083a565b60405190151581526020015b60405180910390f35b34801561027c57600080fd5b5061023961028b36600461438e565b610865565b34801561029c57600080fd5b5061025b6102ab36600461440e565b610a9b565b3480156102bc57600080fd5b5061025b6102cb36600461443a565b610b30565b3480156102dc57600080fd5b5061025b6102eb366004614455565b610e3e565b3480156102fc57600080fd5b506103247f7bfb2abd6084c8ce20d7ff92c1620e7e7267603f0eac446b9176959d243306bc81565b604051908152602001610267565b34801561033e57600080fd5b5061025b61034d3660046144f2565b610e87565b34801561035e57600080fd5b5061037261036d36600461443a565b611091565b604051610267919061455a565b34801561038b57600080fd5b506103247f541cf898e7c3085cbc6b7402ba06e7237285bc4bd5baa510e708e35537a71ffd81565b3480156103bf57600080fd5b506103247f7aabe2571874f2a330ea11c8972d9cc3792d973efc6b36e3e29005861a34418881565b3480156103f357600080fd5b506103fc6110fd565b60405161ffff9091168152602001610267565b34801561041b57600080fd5b5061025b61042a36600461459e565b611111565b34801561043b57600080fd5b50600254600160a81b900460ff165b604051610267919061465e565b34801561046357600080fd5b506103247f9027b951cbdf8eff67da583391d218a57a89ec1ebfcb1c66da188e8531804d5581565b34801561049757600080fd5b5061032461126c565b3480156104ac57600080fd5b506104b56112c9565b6040516001600160a01b039091168152602001610267565b3480156104d957600080fd5b506103247f8b73c3c69bb8fe3d512ecc4cf759cc79239f7b179b0ffacaa9a75d522b39400f81565b34801561050d57600080fd5b5061052161051c3660046146a0565b6112d3565b60405161026791906147c1565b34801561053a57600080fd5b5061032461054936600461443a565b611432565b34801561055a57600080fd5b506105216114f7565b34801561056f57600080fd5b5073__$ee86c02d9d6bfecb685b93ba48bb72f928$__6104b5565b34801561059657600080fd5b5061025b6105a53660046144f2565b611589565b3480156105b657600080fd5b5061025b6105c53660046147d4565b61184f565b3480156105d657600080fd5b5061025b6105e536600461440e565b61196f565b3480156105f657600080fd5b5061060a61060536600461485a565b611994565b60405161026791906149d0565b34801561062357600080fd5b5061037261063236600461485a565b611f57565b34801561064357600080fd5b506103247fdee69d384475c3656c17c592e94a2bbfd2a1998cce0c85f535569415a15863b881565b34801561067757600080fd5b50610521611f74565b34801561068c57600080fd5b50600254600160a01b900460ff1661044a565b3480156106ab57600080fd5b506002546001600160a01b03166104b5565b3480156106c957600080fd5b5061025b6106d836600461440e565b611f83565b3480156106e957600080fd5b5061025b6106f83660046144f2565b612065565b34801561070957600080fd5b5061025b6107183660046144f2565b61220e565b34801561072957600080fd5b5061025b61073836600461485a565b61239d565b34801561074957600080fd5b5061025b61075836600461443a565b6123d5565b34801561076957600080fd5b5061025b61077836600461440e565b600091825260486020526040909120600801546001600160a01b0391821691161490565b3480156107a857600080fd5b506103247ffc434588684348dd50856b075c47bed14245c1030aa04c32955af5549981462781565b3480156107dc57600080fd5b5061032461258b565b3480156107f157600080fd5b5061025b610800366004614a8d565b612595565b34801561081157600080fd5b506104b561273f565b34801561082657600080fd5b5061025b610835366004614a8d565b612749565b60006001600160e01b0319821663bbb33e8360e01b148061085f575061085f826128d4565b92915050565b6001600160a01b037f00000000000000000000000000000000000000000000000000000000000000001630036108b65760405162461bcd60e51b81526004016108ad90614aaa565b60405180910390fd5b7f00000000000000000000000000000000000000000000000000000000000000006001600160a01b03166108e8612924565b6001600160a01b03161461090e5760405162461bcd60e51b81526004016108ad90614ad0565b33610917612945565b6001600160a01b03161461095d5760405162461bcd60e51b815260206004820152600d60248201526c1058d8d95cdcc811195b9a5959609a1b60448201526064016108ad565b604e5462010000900460ff161580801561097f5750604e54600161ffff909116105b8061099a5750303b15801561099a5750604e5461ffff166001145b6109e65760405162461bcd60e51b815260206004820152601c60248201527f436f6e747261637420416c726561647920496e697469616c697a65640000000060448201526064016108ad565b604e805461ffff191660011790558015610a0c57604e805462ff00001916620100001790555b610a19868686868661296d565b610a21612924565b6001600160a01b031630336001600160a01b03167f247ab7b17ee489fa140c6666edc3822eefed2727610cd6e37192462b87244c6089898989610a67604e5461ffff1690565b604051610a78959493929190614b1f565b60405180910390a48015610a9357604e805462ff0000191690555b505050505050565b604051630bf09f5b60e11b8152604460048201819052602482018490526001600160a01b0383169082015260009073__$ee86c02d9d6bfecb685b93ba48bb72f928$__906317e13eb690606401602060405180830381865af4158015610b05573d6000803e3d6000fd5b505050506040513d601f19601f82011682018060405250810190610b299190614b5d565b9392505050565b60006001600160a01b037f0000000000000000000000000000000000000000000000000000000000000000163003610b7a5760405162461bcd60e51b81526004016108ad90614aaa565b7f00000000000000000000000000000000000000000000000000000000000000006001600160a01b0316610bac612924565b6001600160a01b031614610bd25760405162461bcd60e51b81526004016108ad90614ad0565b6000600254600160a01b900460ff166001811115610bf257610bf2614638565b14610c0f5760405162461bcd60e51b81526004016108ad90614b7a565b6001600254600160a81b900460ff166001811115610c2f57610c2f614638565b14610c4c5760405162461bcd60e51b81526004016108ad90614b9c565b6001600160a01b03821615801590610c6d57506001600160a01b0382163b15155b610c895760405162461bcd60e51b81526004016108ad90614bc7565b6002546001600160a01b031615610ce8576000610cac63071965c360e11b612981565b90506000816013811115610cc257610cc2614638565b14610ce25780604051637f0911d160e01b81526004016108ad9190614bf1565b50610d37565b33610cf1612945565b6001600160a01b031614610d375760405162461bcd60e51b815260206004820152600d60248201526c1058d8d95cdcc811195b9a5959609a1b60448201526064016108ad565b6040516301ffc9a760e01b81526331501c3960e01b60048201526001600160a01b038316906301ffc9a790602401602060405180830381865afa158015610d82573d6000803e3d6000fd5b505050506040513d601f19601f82011682018060405250810190610da69190614b5d565b610de05760405162461bcd60e51b815260206004820152600b60248201526a125b1b1959d85b081050d360aa1b60448201526064016108ad565b600280546001600160a01b0384166001600160a01b031990911681179091556040805191825251309133917f410bf468eebeeed60acaedb904afb2db7c0bb0131f7d14c3714d81b14fe8ed3c9181900360200190a35060015b919050565b60008060486000610e4f8686612a0c565b8152602081019190915260400160002060080154600160a01b900460ff166003811115610e7e57610e7e614638565b14159392505050565b6000808080610e9d8763217513cf60e01b612a3f565b92509250925060005b85811015611083576000604881898985818110610ec557610ec5614c05565b90506040020160000135815260200190815260200160002090506000610ef082600601548688612c5a565b90506000816007811115610f0657610f06614638565b14610f1457610f1481612ce6565b6000898985818110610f2857610f28614c05565b9050604002016020016020810190610f409190614c28565b6003811115610f5157610f51614638565b03610f955760405162461bcd60e51b8152602060048201526014602482015273496c6c6567616c20416c7465726162696c69747960601b60448201526064016108ad565b888884818110610fa757610fa7614c05565b9050604002016020016020810190610fbf9190614c28565b60088301805460ff60a81b1916600160a81b836003811115610fe357610fe3614638565b0217905550888884818110610ffa57610ffa614c05565b90506040020160000135846001600160a01b03167f4f3128c6e97c5e1fe84c0242655ffcfa2d5d2fb5a02b33d7213240dbc7ba56ca8b8b8781811061104157611041614c05565b90506040020160200160208101906110599190614c28565b6040516110669190614c45565b60405180910390a35050808061107b90614c68565b915050610ea6565b506001979650505050505050565b6001600160a01b0381166000908152604960209081526040918290208054835181840281018401909452808452606093928301828280156110f157602002820191906000526020600020905b8154815260200190600101908083116110dd575b50505050509050919050565b600061110c604e5461ffff1690565b905090565b60008080806111278763415bbda960e01b612a3f565b92509250925060005b8581101561108357600061116188888481811061114f5761114f614c05565b90506102600201600001358587612e7d565b905087878381811061117557611175614c05565b905061026002016101200181600a0181816111909190614cea565b9050508787838181106111a5576111a5614c05565b905061026002016020018160090181816111bf9190614eb4565b9050508787838181106111d4576111d4614c05565b9050610260020160000135836001600160a01b03167fd7fffd0a8ef7ffe01ad20949b8c7c77c4ef830462bbb872dfca19dfd002ddfac8a8a8681811061121c5761121c614c05565b90506102600201610120018b8b8781811061123957611239614c05565b905061026002016020016040516112519291906151e6565b60405180910390a3508061126481614c68565b915050611130565b6000306001600160a01b037f000000000000000000000000000000000000000000000000000000000000000016146112b65760405162461bcd60e51b81526004016108ad90614aaa565b5060008051602061567583398151915290565b600061110c612924565b60606001600160a01b037f000000000000000000000000000000000000000000000000000000000000000016300361131d5760405162461bcd60e51b81526004016108ad90614aaa565b7f00000000000000000000000000000000000000000000000000000000000000006001600160a01b031661134f612924565b6001600160a01b0316146113755760405162461bcd60e51b81526004016108ad90614ad0565b6000600254600160a01b900460ff16600181111561139557611395614638565b146113b25760405162461bcd60e51b81526004016108ad90614b7a565b6001600254600160a81b900460ff1660018111156113d2576113d2614638565b146113ef5760405162461bcd60e51b81526004016108ad90614b9c565b6001600160a01b0384163b6114165760405162461bcd60e51b81526004016108ad90614bc7565b61141f84612f09565b61142a848484612fa7565b949350505050565b600080600254600160a01b900460ff16600181111561145357611453614638565b146114705760405162461bcd60e51b81526004016108ad90614b7a565b600061148263756af45f60e01b612981565b9050600081601381111561149857611498614638565b146114b85780604051637f0911d160e01b81526004016108ad9190614bf1565b60405147906001600160a01b038516904780156108fc02916000818181858888f193505050501580156114ef573d6000803e3d6000fd5b509392505050565b60606000805461150690615203565b80601f016020809104026020016040519081016040528092919081815260200182805461153290615203565b801561157f5780601f106115545761010080835404028352916020019161157f565b820191906000526020600020905b81548152906001019060200180831161156257829003601f168201915b5050505050905090565b600080808061159f87637fb31de760e01b612a3f565b92509250925060005b858110156110835760006115d88888848181106115c7576115c7614c05565b905060400201600001358587612e7d565b905060008888848181106115ee576115ee614c05565b905060400201602001351461176d576001604460008a8a8681811061161557611615614c05565b90506040020160200135815260200190815260200160002060010160009054906101000a900460ff16600381111561164f5761164f614638565b1161169c5760405162461bcd60e51b815260206004820152601760248201527f496c6c6567616c2041646d696e204167656e745479706500000000000000000060448201526064016108ad565b60006116c28989858181106116b3576116b3614c05565b9050604002016020013561315f565b60405174554e4956455253452e4c4956454c595f564552534560581b60208201529091506035016040516020818303038152906040528051906020012081146117435760405162461bcd60e51b8152602060048201526013602482015272496c6c6567616c2041646d696e2053636f706560681b60448201526064016108ad565b88888481811061175557611755614c05565b905060400201602001358260060181905550506117ce565b6040516020016117b0907f545950452e4c4956454c595f56455253452e4c4956454c595f50524f46494c458152662fa6a0a9aa22a960c91b602082015260270190565b60408051601f19818403018152919052805160209091012060068201555b8787838181106117e0576117e0614c05565b905060400201602001358888848181106117fc576117fc614c05565b90506040020160000135846001600160a01b03167f8e2d11bbb9e276ce5830b203fc24c18192ac681ce3640e21505a8a6fe9f028d160405160405180910390a4508061184781614c68565b9150506115a8565b60008080806118658763406c8d4560e11b612a3f565b9194509250905060006118796044846131d5565b600381015490915060009061189e90600189900b90600160481b900461ffff16615237565b60030b12156118e75760405162461bcd60e51b8152602060048201526015602482015274125b1b1959d85b08149959da5cdd195c931a5b5a5d605a1b60448201526064016108ad565b60038101805461ffff600160481b80830482168a9003909116026affff0000000000000000001990911617905560005b868110156119605761194e88888381811061193457611934614c05565b9050602002810190611946919061525e565b8486886132b2565b8061195881614c68565b915050611917565b50600198975050505050505050565b6000610b2961197d8361343e565b60008581526048602052604090206004019061347d565b611a636040805161010080820183526060808352600060208085018290528486018290528551938401865281845283018190529382018490528181018490526080820184905260a0820184905260c0820184905260e082019390935290918201908152604080516101408101825260008082526020828101829052928201819052606082018190526080820181905260a0820181905260c0820181905260e082018190526101008201819052610120820152910190815260200160008152602001600081526020016000905290565b6000828152604860205260408120906008820154600160a01b900460ff166003811115611a9257611a92614638565b03611b6957604080516101208082018352600061010080840182815284526020808501839052848601839052855180830187528381528082018490528087018490526060818101859052608080830186905260a080840187905260c084810188905260e0858101899052848b01959095528a5161014081018c5288815295860188905299850187905291840186905283810186905283820186905297830185905290820184905291810183905292830182905293830191909152909182019081526020016000815260200160005b90529392505050565b604051806101000160405280826007018054611b8490615203565b80601f0160208091040260200160405190810160405280929190818152602001828054611bb090615203565b8015611bfd5780601f10611bd257610100808354040283529160200191611bfd565b820191906000526020600020905b815481529060010190602001808311611be057829003601f168201915b50505050508152602001826006015481526020018260080160009054906101000a90046001600160a01b03166001600160a01b0316815260200182600901604051806101000160405290816000820160009054906101000a900463ffffffff1663ffffffff1663ffffffff1681526020016000820160049054906101000a900463ffffffff1663ffffffff1663ffffffff1681526020016000820160089054906101000a900463ffffffff1663ffffffff1663ffffffff16815260200160008201600c9054906101000a900463ffffffff1663ffffffff1663ffffffff1681526020016000820160109054906101000a900463ffffffff1663ffffffff1663ffffffff1681526020016000820160149054906101000a900461ffff1661ffff1661ffff1681526020016000820160169054906101000a900461ffff1661ffff1661ffff1681526020016000820160189054906101000a900461ffff1661ffff1661ffff1681525050815260200182600a01604051806101400160405290816000820160009054906101000a900463ffffffff1663ffffffff1663ffffffff1681526020016000820160049054906101000a900463ffffffff1663ffffffff1663ffffffff1681526020016000820160089054906101000a900462ffffff1662ffffff1662ffffff16815260200160008201600b9054906101000a900461ffff1661ffff1661ffff16815260200160008201600d9054906101000a900461ffff1661ffff1661ffff16815260200160008201600f9054906101000a900461ffff1661ffff1661ffff1681526020016000820160119054906101000a900461ffff1661ffff1661ffff1681526020016000820160139054906101000a900461ffff1661ffff1661ffff1681526020016000820160159054906101000a900461ffff1661ffff1661ffff1681526020016000820160179054906101000a900460ff1660ff1660ff16815250508152602001604460000160008460060154815260200190815260200160002060010160009054906101000a900460ff166003811115611f0757611f07614638565b81526020018260080160149054906101000a900460ff166003811115611f2f57611f2f614638565b81526020018260080160159054906101000a900460ff166003811115611b6057611b60614638565b600081815260486020526040902060609061085f90600401613495565b60606001805461150690615203565b6000828152604860205260408120816008820154600160a01b900460ff166003811115611fb257611fb2614638565b03611fc157600091505061085f565b600080611fd7611fd08661343e565b84906134a0565b9150915080611fec576000935050505061085f565b61205b604051602001612033907f545950452e4c4956454c595f50524f46494c452e4c4956454c595f535953544581526726afa6a0a9aa22a960c11b602082015260280190565b604051602081830303815290604052805190602001208360040161347d90919063ffffffff16565b9695505050505050565b600080808061207b8763603ac71160e11b612a3f565b92509250925060005b858110156110835760006120a38888848181106115c7576115c7614c05565b905060018888848181106120b9576120b9614c05565b90506040020160200160208101906120d19190614c28565b60038111156120e2576120e2614638565b116121225760405162461bcd60e51b815260206004820152601060248201526f496c6c6567616c20416374697669747960801b60448201526064016108ad565b87878381811061213457612134614c05565b905060400201602001602081019061214c9190614c28565b60088201805460ff60a01b1916600160a01b83600381111561217057612170614638565b021790555087878381811061218757612187614c05565b90506040020160000135836001600160a01b03167f232dd3e0530ea38ef8afade21a80df705460532d33bce942873a3432da868e9c8a8a868181106121ce576121ce614c05565b90506040020160200160208101906121e69190614c28565b6040516121f39190614c45565b60405180910390a3508061220681614c68565b915050612084565b60008080806122248763c464952d60e01b612a3f565b92509250925060005b8581101561108357600061224c8888848181106115c7576115c7614c05565b60088101549091506001600160a01b031673__$ee86c02d9d6bfecb685b93ba48bb72f928$__6323cff7416044848c8c8881811061228c5761228c614c05565b9050604002016040518463ffffffff1660e01b81526004016122b09392919061527f565b602060405180830381865af41580156122cd573d6000803e3d6000fd5b505050506040513d601f19601f820116820180604052508101906122f19190614b5d565b50806001600160a01b031689898581811061230e5761230e614c05565b90506040020160000135856001600160a01b03167fc7bcdcb0612e7bdc43260c9999b19a30e2dae79d7eccc6aea67d56ef59a8dbae8c8c8881811061235557612355614c05565b905060400201602001602081019061236d919061443a565b6040516001600160a01b03909116815260200160405180910390a45050808061239590614c68565b91505061222d565b600080600083815260486020526040902060080154600160a01b900460ff1660038111156123cd576123cd614638565b141592915050565b60006001600160a01b037f000000000000000000000000000000000000000000000000000000000000000016300361241f5760405162461bcd60e51b81526004016108ad90614aaa565b7f00000000000000000000000000000000000000000000000000000000000000006001600160a01b0316612451612924565b6001600160a01b0316146124775760405162461bcd60e51b81526004016108ad90614ad0565b6000600254600160a01b900460ff16600181111561249757612497614638565b146124b45760405162461bcd60e51b81526004016108ad90614b7a565b6001600254600160a81b900460ff1660018111156124d4576124d4614638565b146124f15760405162461bcd60e51b81526004016108ad90614b9c565b600061250363d9dc1f1960e01b612981565b9050600081601381111561251957612519614638565b146125395780604051637f0911d160e01b81526004016108ad9190614bf1565b6001600160a01b0383166125795760405162461bcd60e51b8152602060048201526007602482015266125b9d985b1a5960ca1b60448201526064016108ad565b612582836134fb565b50600192915050565b600061110c613572565b60006001600160a01b037f00000000000000000000000000000000000000000000000000000000000000001630036125df5760405162461bcd60e51b81526004016108ad90614aaa565b7f00000000000000000000000000000000000000000000000000000000000000006001600160a01b0316612611612924565b6001600160a01b0316146126375760405162461bcd60e51b81526004016108ad90614ad0565b6000612646604e5461ffff1690565b61ffff16116126825760405162461bcd60e51b81526020600482015260086024820152671393d5081253925560c21b60448201526064016108ad565b6000612694630f708ceb60e41b612981565b905060008160138111156126aa576126aa614638565b146126ca5780604051637f0911d160e01b81526004016108ad9190614bf1565b6002805484919060ff60a01b1916600160a01b8360018111156126ef576126ef614638565b021790555030336001600160a01b03167fc08ec585c25f1907baaab6f278c5994531a2e34c59935b3fcfe813067a3b48788560405161272e919061465e565b60405180910390a350600192915050565b600061110c612945565b60006001600160a01b037f00000000000000000000000000000000000000000000000000000000000000001630036127935760405162461bcd60e51b81526004016108ad90614aaa565b7f00000000000000000000000000000000000000000000000000000000000000006001600160a01b03166127c5612924565b6001600160a01b0316146127eb5760405162461bcd60e51b81526004016108ad90614ad0565b6000600254600160a01b900460ff16600181111561280b5761280b614638565b146128285760405162461bcd60e51b81526004016108ad90614b7a565b600061283a631f98802f60e31b612981565b9050600081601381111561285057612850614638565b146128705780604051637f0911d160e01b81526004016108ad9190614bf1565b6002805484919060ff60a81b1916600160a81b83600181111561289557612895614638565b021790555030336001600160a01b03167ff5912c5e436152157ed2b4a84bc313b4b1fe09a15b941f195d23c99a1b8c45ad8560405161272e919061465e565b60006001600160e01b03198216633d817cff60e01b148061290557506001600160e01b031982166352d1902d60e01b145b8061085f57506301ffc9a760e01b6001600160e01b031983161461085f565b60006000805160206156758339815191525b546001600160a01b0316919050565b60007fb53127684a568b3173ae13b9f8a6016e243e63b6e8ee1178d6a717850b5d6103612936565b61297a8585858585613626565b5050505050565b6002546040805163172cb29d60e11b81523060048201526001600160e01b03198416602482015233604482015290516000926001600160a01b031691632e59653a916064808301926020929190829003018187875af11580156129e8573d6000803e3d6000fd5b505050506040513d601f19601f8201168201806040525081019061085f91906152b8565b60008282604051602001612a219291906152d9565b60405160208183030381529060405280519060200120905092915050565b6000808080306001600160a01b031663a304e3536040518163ffffffff1660e01b8152600401602060405180830381865afa158015612a82573d6000803e3d6000fd5b505050506040513d601f19601f82011682018060405250810190612aa691906152e9565b6001811115612ab757612ab7614638565b14612ad45760405162461bcd60e51b81526004016108ad90614b7a565b600080612ae46040880188615306565b90501115612b785742612afd604088016020890161534c565b6001600160401b031611612b475760405162461bcd60e51b815260206004820152601160248201527045787069726564205369676e617475726560781b60448201526064016108ad565b612b71867fdee69d384475c3656c17c592e94a2bbfd2a1998cce0c85f535569415a15863b86137ef565b9050612b7b565b50335b6001600160e01b031985166000908152604a60205260408120546001600160a01b031690612ba982886138a7565b90506000612bb68461343e565b604051634902a91960e11b8152600481018490526024810182905290915060009030906392055232906044016020604051808303816000875af1158015612c01573d6000803e3d6000fd5b505050506040513d601f19601f82011682018060405250810190612c2591906152b8565b90506000816013811115612c3b57612c3b614638565b14612c4957612c49816138de565b509095509350909150509250925092565b60405163ca37fa8560e01b81526044600482018190526024820185905281018390526064810182905260009073__$ee86c02d9d6bfecb685b93ba48bb72f928$__9063ca37fa8590608401602060405180830381865af4158015612cc2573d6000803e3d6000fd5b505050506040513d601f19601f8201168201806040525081019061142a9190615375565b6001816007811115612cfa57612cfa614638565b03612d18576040516334267bfb60e11b815260040160405180910390fd5b6002816007811115612d2c57612d2c614638565b03612d4a576040516343f871e760e11b815260040160405180910390fd5b6003816007811115612d5e57612d5e614638565b03612d7c57604051639afb7c5f60e01b815260040160405180910390fd5b6004816007811115612d9057612d90614638565b03612dae576040516332314d6b60e11b815260040160405180910390fd5b6005816007811115612dc257612dc2614638565b03612de057604051633123155560e01b815260040160405180910390fd5b6006816007811115612df457612df4614638565b03612e1257604051631b210af760e21b815260040160405180910390fd5b6007816007811115612e2657612e26614638565b03612e44576040516339f73ba360e11b815260040160405180910390fd5b60405162461bcd60e51b815260206004820152600b60248201526a2ab735b737bbb71022a92960a91b60448201526064016108ad565b50565b600083815260486020526040812060026008820154600160a81b900460ff166003811115612ead57612ead614638565b1015612ecb5760405162461bcd60e51b81526004016108ad90614b9c565b6000612edc82600601548686612c5a565b90506000816007811115612ef257612ef2614638565b14612f0057612f0081612ce6565b50949350505050565b612f11612924565b6001600160a01b0316816001600160a01b031603612f5b5760405162461bcd60e51b8152602060048201526007602482015266125b1b1959d85b60ca1b60448201526064016108ad565b6000612f6d637147855d60e01b612981565b90506000816013811115612f8357612f83614638565b14612fa35780604051637f0911d160e01b81526004016108ad9190614bf1565b5050565b60607f4910fdfa16fed3260ed0e7147f7cc6da11a60208b5b9406d12a635614ffd91435460ff1615612ff157612fdc84613c93565b50604080516000815260208101909152610b29565b60008051602061567583398151915260001b846001600160a01b03166352d1902d6040518163ffffffff1660e01b8152600401602060405180830381865afa158015613041573d6000803e3d6000fd5b505050506040513d601f19601f820116820180604052508101906130659190615396565b146130a15760405162461bcd60e51b815260206004820152600c60248201526b496c6c6567616c205555505360a01b60448201526064016108ad565b6040516301ffc9a760e01b8152633d817cff60e01b60048201526001600160a01b038516906301ffc9a790602401602060405180830381865afa1580156130ec573d6000803e3d6000fd5b505050506040513d601f19601f820116820180604052508101906131109190614b5d565b61314d5760405162461bcd60e51b815260206004820152600e60248201526d496c6c6567616c204950726f787960901b60448201526064016108ad565b613158848484613cc2565b9050610b29565b60008181526044602052604081206001015460ff16600281600381111561318857613188614638565b036131a657600061319a604485613d23565b60020154949350505050565b60038160038111156131ba576131ba614638565b036131cc57600061319a604485613e00565b50600092915050565b600081815260208390526040812060018082015460ff1660038111156131fd576131fd614638565b036132185760408051848152602081018690522091506132ab565b6000600182015460ff16600381111561323357613233614638565b036132705760405162461bcd60e51b815260206004820152600d60248201526c13525108139bdd08119bdd5b99609a1b60448201526064016108ad565b60405162461bcd60e51b815260206004820152601060248201526f125b1b1959d85b081352510814db1bdd60821b60448201526064016108ad565b5092915050565b60006132c66132c18680615306565b612a0c565b905060008082815260486020526040902060080154600160a01b900460ff1660038111156132f6576132f6614638565b146133335760405162461bcd60e51b815260206004820152600d60248201526c105b1c9958591e48115e1a5cdd609a1b60448201526064016108ad565b604051630a49d65760e21b815260009073__$ee86c02d9d6bfecb685b93ba48bb72f928$__90632927595c90613376906044908a90899088908a906004016153af565b602060405180830381865af4158015613393573d6000803e3d6000fd5b505050506040513d601f19601f820116820180604052508101906133b79190615396565b90506133cb6102808701610260880161443a565b6001600160a01b031682866001600160a01b03167fae81de16b2b1d9f8d1fe49dc20d876206bc90bb6ab46c530bc281e89908901b489610280016020810190613414919061443a565b858b6020018c6101200160405161342e9493929190615498565b60405180910390a4505050505050565b6040516bffffffffffffffffffffffff19606083901b166020820152600090603401604051602081830303815290604052805190602001209050919050565b60008181526001830160205260408120541515610b29565b606061085f82613ed7565b6000818152602083905260408120819060018082015460ff1660038111156134ca576134ca614638565b036134e9575050604080518381526020810185905220905060016134f4565b600019925060009150505b9250929050565b7fb53127684a568b3173ae13b9f8a6016e243e63b6e8ee1178d6a717850b5d610380546001600160a01b0383166001600160a01b031990911681179091556040805191825251309133917f63fdbed5f2909ec44e3becc51e9d29654ce1447747914e8a6ebc019e7f640b8b9181900360200190a350565b60007f8b73c3c69bb8fe3d512ecc4cf759cc79239f7b179b0ffacaa9a75d522b39400f60006040516020016135a791906154d4565b6040516020818303038152906040528051906020012060016040516020016135cf91906154d4565b60408051601f1981840301815282825280516020918201209083019490945281019190915260608101919091524660808201523060a082015260c00160405160208183030381529060405280519060200120905090565b604e5462010000900460ff1661367e5760405162461bcd60e51b815260206004820152601960248201527f436f6e7472616374204e6f7420496e697469616c697a696e670000000000000060448201526064016108ad565b600061368b858783615590565b506001613699838583615590565b506001600160a01b038116301461377f576001600160a01b0381163b6136d15760405162461bcd60e51b81526004016108ad90614bc7565b6040516301ffc9a760e01b81526331501c3960e01b60048201526001600160a01b038216906301ffc9a790602401602060405180830381865afa15801561371c573d6000803e3d6000fd5b505050506040513d601f19601f820116820180604052508101906137409190614b5d565b61377a5760405162461bcd60e51b815260206004820152600b60248201526a125b1b1959d85b081050d360aa1b60448201526064016108ad565b6137cb565b61378f6331501c3960e01b61083a565b6137cb5760405162461bcd60e51b815260206004820152600d60248201526c139bdd0814dd5c1c1bdc9d1959609a1b60448201526064016108ad565b600280546001600160b01b0319166001600160a01b03831617905561297a336134fb565b6000610b296138016040850185615306565b8080601f0160208091040260200160405190810160405280939291908181526020018383808284376000920191909152506138a292508691506138499050602088018861443a565b6138596040890160208a0161534c565b6001600160401b0316604080516020808201959095526001600160a01b039390931683820152606080840192909252805180840390920182526080909201909152805191012090565b613f31565b6040516bffffffffffffffffffffffff19606084901b1660208201526001600160e01b031982166034820152600090603801612a21565b60018160138111156138f2576138f2614638565b03613910576040516338bb798160e21b815260040160405180910390fd5b600281601381111561392457613924614638565b0361394257604051634f69231960e11b815260040160405180910390fd5b600381601381111561395657613956614638565b0361397457604051637e33e43360e01b815260040160405180910390fd5b600481601381111561398857613988614638565b036139a657604051630287b9e560e51b815260040160405180910390fd5b60058160138111156139ba576139ba614638565b036139d857604051633beb1f4d60e11b815260040160405180910390fd5b60068160138111156139ec576139ec614638565b03613a0a5760405163036c45ad60e51b815260040160405180910390fd5b6007816013811115613a1e57613a1e614638565b03613a3c5760405163c0af595f60e01b815260040160405180910390fd5b6008816013811115613a5057613a50614638565b03613a6e5760405163249eeb8960e01b815260040160405180910390fd5b6009816013811115613a8257613a82614638565b03613aa0576040516311fb41e160e21b815260040160405180910390fd5b600a816013811115613ab457613ab4614638565b03613ad257604051637331e2bb60e01b815260040160405180910390fd5b600b816013811115613ae657613ae6614638565b03613b045760405163163099ab60e01b815260040160405180910390fd5b600c816013811115613b1857613b18614638565b03613b365760405163975a86e560e01b815260040160405180910390fd5b600d816013811115613b4a57613b4a614638565b03613b6857604051631140570360e21b815260040160405180910390fd5b600e816013811115613b7c57613b7c614638565b03613b9a57604051630622823b60e31b815260040160405180910390fd5b600f816013811115613bae57613bae614638565b03613bcc57604051636d30058d60e11b815260040160405180910390fd5b6010816013811115613be057613be0614638565b03613bfe576040516304acbcf160e51b815260040160405180910390fd5b6011816013811115613c1257613c12614638565b03613c3057604051636effd2d560e01b815260040160405180910390fd5b6012816013811115613c4457613c44614638565b03613c6157604051623f318960e21b815260040160405180910390fd5b6013816013811115613c7557613c75614638565b03612e4457604051634bc7b56f60e11b815260040160405180910390fd5b60008051602061567583398151915280546001600160a01b0319166001600160a01b0392909216919091179055565b6060613ccd84613fa6565b600083511180613cda5750815b15613d0d5761315884846040518060400160405280600b81526020016a10d85b1b0811985a5b195960aa1b815250613fea565b6040805160008082526020820190925290612f00565b60008181526020839052604081206002600182015460ff166003811115613d4c57613d4c614638565b03613d675760408051848152602081018690522091506132ab565b6000600182015460ff166003811115613d8257613d82614638565b03613dc25760405162461bcd60e51b815260206004820152601060248201526f149bdb19525908139bdd08119bdd5b9960821b60448201526064016108ad565b60405162461bcd60e51b8152602060048201526013602482015272125b1b1959d85b08149bdb1952590814db1bdd606a1b60448201526064016108ad565b60008181526020839052604081206003600182015460ff166003811115613e2957613e29614638565b03613e445760408051848152602081018690522091506132ab565b6000600182015460ff166003811115613e5f57613e5f614638565b03613e9c5760405162461bcd60e51b815260206004820152600d60248201526c15125108139bdd08119bdd5b99609a1b60448201526064016108ad565b60405162461bcd60e51b815260206004820152601060248201526f125b1b1959d85b081512510814db1bdd60821b60448201526064016108ad565b6060816000018054806020026020016040519081016040528092919081815260200182805480156110f157602002820191906000526020600020908154815260200190600101908083116110dd5750505050509050919050565b600080613f3d836140ae565b9050600080613f4c838761411b565b90925090506000816004811115613f6557613f65614638565b14612f005760405162461bcd60e51b8152602060048201526011602482015270496c6c6567616c205369676e617475726560781b60448201526064016108ad565b613faf81613c93565b6040516001600160a01b03821690309033907f8ee0f2bd29c0e6a975c3cc2e47cf2e01b5f23a9a8a02e0ed6a5a070269de3d2d90600090a450565b60606001600160a01b0384163b6140435760405162461bcd60e51b815260206004820152601860248201527f496c6c6567616c20436f6e74726163742041646472657373000000000000000060448201526064016108ad565b600080856001600160a01b03168560405161405e919061564f565b600060405180830381855af49150503d8060008114614099576040519150601f19603f3d011682016040523d82523d6000602084013e61409e565b606091505b509150915061205b828286614186565b600061085f306001600160a01b031663f698da256040518163ffffffff1660e01b8152600401602060405180830381865afa1580156140f1573d6000803e3d6000fd5b505050506040513d601f19601f820116820180604052508101906141159190615396565b836141bf565b60008082516041036141515760208301516040840151606085015160001a614145878285856141e6565b945094505050506134f4565b825160400361417a576020830151604084015161416f8683836142d3565b9350935050506134f4565b506000905060026134f4565b60608315614195575081610b29565b8251156141a55782518084602001fd5b8160405162461bcd60e51b81526004016108ad91906147c1565b60405161190160f01b60208201526022810183905260428101829052600090606201612a21565b6000807f7fffffffffffffffffffffffffffffff5d576e7357a4501ddfe92f46681b20a083111561421d57506000905060036142ca565b8460ff16601b1415801561423557508460ff16601c14155b1561424657506000905060046142ca565b6040805160008082526020820180845289905260ff881692820192909252606081018690526080810185905260019060a0016020604051602081039080840390855afa15801561429a573d6000803e3d6000fd5b5050604051601f1901519150506001600160a01b0381166142c3576000600192509250506142ca565b9150600090505b94509492505050565b6000806001600160ff1b038316816142f060ff86901c601b615661565b90506142fe878288856141e6565b935093505050935093915050565b60006020828403121561431e57600080fd5b81356001600160e01b031981168114610b2957600080fd5b60008083601f84011261434857600080fd5b5081356001600160401b0381111561435f57600080fd5b6020830191508360208285010111156134f457600080fd5b80356001600160a01b0381168114610e3957600080fd5b6000806000806000606086880312156143a657600080fd5b85356001600160401b03808211156143bd57600080fd5b6143c989838a01614336565b909750955060208801359150808211156143e257600080fd5b506143ef88828901614336565b9094509250614402905060408701614377565b90509295509295909350565b6000806040838503121561442157600080fd5b8235915061443160208401614377565b90509250929050565b60006020828403121561444c57600080fd5b610b2982614377565b6000806020838503121561446857600080fd5b82356001600160401b0381111561447e57600080fd5b61448a85828601614336565b90969095509350505050565b6000606082840312156144a857600080fd5b50919050565b60008083601f8401126144c057600080fd5b5081356001600160401b038111156144d757600080fd5b6020830191508360208260061b85010111156134f457600080fd5b60008060006040848603121561450757600080fd5b83356001600160401b038082111561451e57600080fd5b61452a87838801614496565b9450602086013591508082111561454057600080fd5b5061454d868287016144ae565b9497909650939450505050565b6020808252825182820181905260009190848201906040850190845b8181101561459257835183529284019291840191600101614576565b50909695505050505050565b6000806000604084860312156145b357600080fd5b83356001600160401b03808211156145ca57600080fd5b6145d687838801614496565b945060208601359150808211156145ec57600080fd5b818601915086601f83011261460057600080fd5b81358181111561460f57600080fd5b8760206102608302850101111561462557600080fd5b6020830194508093505050509250925092565b634e487b7160e01b600052602160045260246000fd5b60028110612e7a57612e7a614638565b6020810161466b8361464e565b91905290565b634e487b7160e01b600052604160045260246000fd5b8015158114612e7a57600080fd5b8035610e3981614687565b6000806000606084860312156146b557600080fd5b6146be84614377565b925060208401356001600160401b03808211156146da57600080fd5b818601915086601f8301126146ee57600080fd5b81358181111561470057614700614671565b604051601f8201601f19908116603f0116810190838211818310171561472857614728614671565b8160405282815289602084870101111561474157600080fd5b82602086016020830137600060208483010152809650505050505061476860408501614695565b90509250925092565b60005b8381101561478c578181015183820152602001614774565b50506000910152565b600081518084526147ad816020860160208601614771565b601f01601f19169290920160200192915050565b602081526000610b296020830184614795565b6000806000604084860312156147e957600080fd5b83356001600160401b038082111561480057600080fd5b61480c87838801614496565b9450602086013591508082111561482257600080fd5b818601915086601f83011261483657600080fd5b81358181111561484557600080fd5b8760208260051b850101111561462557600080fd5b60006020828403121561486c57600080fd5b5035919050565b63ffffffff8082511683528060208301511660208401528060408301511660408401528060608301511660608401528060808301511660808401525060a081015161ffff80821660a08501528060c08401511660c0850152505060e08101516148e260e084018261ffff169052565b505050565b805163ffffffff1682526020810151614908602084018263ffffffff169052565b50604081015161491f604084018262ffffff169052565b506060810151614935606084018261ffff169052565b50608081015161494b608084018261ffff169052565b5060a081015161496160a084018261ffff169052565b5060c081015161497760c084018261ffff169052565b5060e081015161498d60e084018261ffff169052565b506101008181015161ffff16908301526101208082015160ff8116828501525b50505050565b60048110612e7a57612e7a614638565b6149cc816149b3565b9052565b60208152600082516103008060208501526149ef610320850183614795565b9150602085015160408501526040850151614a1560608601826001600160a01b03169052565b506060850151614a286080860182614873565b506080850151614a3c6101808601826148e7565b5060a0850151614a506102c08601826149c3565b5060c0850151614a646102e08601826149c3565b5060e0850151614a76828601826149c3565b5090949350505050565b60028110612e7a57600080fd5b600060208284031215614a9f57600080fd5b8135610b2981614a80565b6020808252600c908201526b125b1b1959d85b0810d85b1b60a21b604082015260600190565b6020808252600c908201526b125b9d985b1a590810d85b1b60a21b604082015260600190565b81835281816020850137506000828201602090810191909152601f909101601f19169091010190565b606081526000614b33606083018789614af6565b8281036020840152614b46818688614af6565b91505061ffff831660408301529695505050505050565b600060208284031215614b6f57600080fd5b8151610b2981614687565b60208082526008908201526714995a9958dd195960c21b604082015260600190565b602080825260119082015270496c6c6567616c20557064617461626c6560781b604082015260600190565b60208082526010908201526f125b1b1959d85b0810dbdb9d1c9858dd60821b604082015260600190565b602081016014831061466b5761466b614638565b634e487b7160e01b600052603260045260246000fd5b60048110612e7a57600080fd5b600060208284031215614c3a57600080fd5b8135610b2981614c1b565b6020810161466b836149b3565b634e487b7160e01b600052601160045260246000fd5b600060018201614c7a57614c7a614c52565b5060010190565b63ffffffff81168114612e7a57600080fd5b6000813561085f81614c81565b62ffffff81168114612e7a57600080fd5b61ffff81168114612e7a57600080fd5b6000813561085f81614cb1565b60ff81168114612e7a57600080fd5b6000813561085f81614cce565b8135614cf581614c81565b815463ffffffff191663ffffffff8216178255506020820135614d1781614c81565b815467ffffffff000000001916602082901b67ffffffff0000000016178255506040820135614d4581614ca0565b81546affffff0000000000000000191660409190911b6affffff000000000000000016178155614d9a614d7a60608401614cc1565b82805461ffff60581b191660589290921b61ffff60581b16919091179055565b614dc9614da960808401614cc1565b82805461ffff60681b191660689290921b61ffff60681b16919091179055565b614df8614dd860a08401614cc1565b82805461ffff60781b191660789290921b61ffff60781b16919091179055565b614e27614e0760c08401614cc1565b82805461ffff60881b191660889290921b61ffff60881b16919091179055565b614e56614e3660e08401614cc1565b82805461ffff60981b191660989290921b61ffff60981b16919091179055565b614e86614e666101008401614cc1565b82805461ffff60a81b191660a89290921b61ffff60a81b16919091179055565b612fa3614e966101208401614cdd565b82805460ff60b81b191660b89290921b60ff60b81b16919091179055565b8135614ebf81614c81565b815463ffffffff191663ffffffff8216178255506020820135614ee181614c81565b815467ffffffff000000001916602082901b67ffffffff0000000016178255506040820135614f0f81614c81565b815463ffffffff60401b8260401b1691508163ffffffff60401b1982161783556060840135614f3d81614c81565b6fffffffffffffffff0000000000000000199190911690911760609190911b63ffffffff60601b16178155614f9b614f7760808401614c93565b82805463ffffffff60801b191660809290921b63ffffffff60801b16919091179055565b614fca614faa60a08401614cc1565b82805461ffff60a01b191660a09290921b61ffff60a01b16919091179055565b614ff9614fd960c08401614cc1565b82805461ffff60b01b191660b09290921b61ffff60b01b16919091179055565b612fa361500860e08401614cc1565b82805461ffff60c01b191660c09290921b61ffff60c01b16919091179055565b8035610e3981614c81565b8035610e3981614ca0565b8035610e3981614cb1565b8035610e3981614cce565b61506b8261506183615028565b63ffffffff169052565b61507760208201615028565b63ffffffff16602083015261508e60408201615033565b62ffffff1660408301526150a46060820161503e565b61ffff1660608301526150b96080820161503e565b61ffff1660808301526150ce60a0820161503e565b61ffff1660a08301526150e360c0820161503e565b61ffff1660c08301526150f860e0820161503e565b61ffff1660e083015261010061510f82820161503e565b61ffff1690830152610120615125828201615049565b60ff8116848301526149ad565b803561513d81614c81565b63ffffffff908116835260208201359061515682614c81565b908116602084015260408201359061516d82614c81565b908116604084015260608201359061518482614c81565b16606083015261519660808201615028565b63ffffffff1660808301526151ad60a0820161503e565b61ffff1660a08301526151c260c0820161503e565b61ffff1660c08301526151d760e0820161503e565b61ffff811660e0840152505050565b61024081016151f58285615054565b610b29610140830184615132565b600181811c9082168061521757607f821691505b6020821081036144a857634e487b7160e01b600052602260045260246000fd5b600382810b9082900b03637fffffff198112637fffffff8213171561085f5761085f614c52565b600082356102be1983360301811261527557600080fd5b9190910192915050565b83815260208082018490528235604083015260808201906001600160a01b03906152aa908501614377565b166060830152949350505050565b6000602082840312156152ca57600080fd5b815160148110610b2957600080fd5b8183823760009101908152919050565b6000602082840312156152fb57600080fd5b8151610b2981614a80565b6000808335601e1984360301811261531d57600080fd5b8301803591506001600160401b0382111561533757600080fd5b6020019150368190038213156134f457600080fd5b60006020828403121561535e57600080fd5b81356001600160401b0381168114610b2957600080fd5b60006020828403121561538757600080fd5b815160088110610b2957600080fd5b6000602082840312156153a857600080fd5b5051919050565b85815260a0602082015260008535601e198736030181126153cf57600080fd5b86016020810190356001600160401b038111156153eb57600080fd5b8036038213156153fa57600080fd5b6102c060a085015261541161036085018284614af6565b91505061542460c0840160208901615132565b6154366101c084016101208901615054565b6154436102608801614377565b6001600160a01b031661030084015261545f6102808801614377565b6001600160a01b03166103208401526102a096909601356103408301525060408101939093526060830191909152608090910152919050565b6001600160a01b03851681526020810184905261028081016154bd6040830185615132565b6154cb610140830184615054565b95945050505050565b60008083546154e281615203565b600182811680156154fa576001811461550f5761553e565b60ff198416875282151583028701945061553e565b8760005260208060002060005b858110156155355781548a82015290840190820161551c565b50505082870194505b50929695505050505050565b601f8211156148e257600081815260208120601f850160051c810160208610156155715750805b601f850160051c820191505b81811015610a935782815560010161557d565b6001600160401b038311156155a7576155a7614671565b6155bb836155b58354615203565b8361554a565b6000601f8411600181146155ef57600085156155d75750838201355b600019600387901b1c1916600186901b17835561297a565b600083815260209020601f19861690835b828110156156205786850135825560209485019460019092019101615600565b508682101561563d5760001960f88860031b161c19848701351681555b505060018560011b0183555050505050565b60008251615275818460208701614771565b8082018082111561085f5761085f614c5256fe360894a13ba1a3210667c828492db98dca3e2076cc3735a920a3ca505d382bbca264697066735822122047546b33fad7e35ccd8ac5451789c3a159b52d91744a50f12c57e4bcff9c629064736f6c63430008130033",
  "libraries": {
    "LACLCommons": "0x61a74e6467B0eDd133Bf2fa08193Fc8B663D1750"
  },
  "devdoc": {
    "author": "Sina Tadayon, https://github.com/SinaTadayon",
    "events": {
      "Initialized(address,address,address,string,string,uint16)": {
        "details": "Triggered when the contract has been initialized or reinitialized."
      },
      "ProxyLocalAdminUpdated(address,address,address)": {
        "details": "Emitted when the admin account has changed."
      }
    },
    "kind": "dev",
    "methods": {
      "proxiableUUID()": {
        "details": "Implementation of the ERC1822 {proxiableUUID} function. This returns the storage slot used by the implementation. It is used to validate that the this implementation remains valid after an upgrade. IMPORTANT: A proxy pointing at a proxiable contract should not be considered proxiable itself, because this risks bricking a proxy that upgrades to it, by delegating to itself until out of gas. Thus it is critical that this function revert if invoked through a proxy. This is guaranteed by the `notDelegated` modifier."
      },
      "supportsInterface(bytes4)": {
        "details": "See {IERC165-supportsInterface}."
      }
    },
    "title": "Profile AccessControl Contract",
    "version": 1
  },
  "userdoc": {
    "kind": "user",
    "methods": {},
    "version": 1
  },
  "storageLayout": {
    "storage": [
      {
        "astId": 82229,
        "contract": "src/contracts/acl/profile/ProfileManager.sol:ProfileManager",
        "label": "_contractName",
        "offset": 0,
        "slot": "0",
        "type": "t_string_storage"
      },
      {
        "astId": 82231,
        "contract": "src/contracts/acl/profile/ProfileManager.sol:ProfileManager",
        "label": "_contractVersion",
        "offset": 0,
        "slot": "1",
        "type": "t_string_storage"
      },
      {
        "astId": 82233,
        "contract": "src/contracts/acl/profile/ProfileManager.sol:ProfileManager",
        "label": "_accessControlManager",
        "offset": 0,
        "slot": "2",
        "type": "t_address"
      },
      {
        "astId": 82236,
        "contract": "src/contracts/acl/profile/ProfileManager.sol:ProfileManager",
        "label": "_sstat",
        "offset": 20,
        "slot": "2",
        "type": "t_enum(ProxySafeModeStatus)82251"
      },
      {
        "astId": 82239,
        "contract": "src/contracts/acl/profile/ProfileManager.sol:ProfileManager",
        "label": "_ustat",
        "offset": 21,
        "slot": "2",
        "type": "t_enum(ProxyUpdatabilityStatus)82254"
      },
      {
        "astId": 82244,
        "contract": "src/contracts/acl/profile/ProfileManager.sol:ProfileManager",
        "label": "__reserved",
        "offset": 0,
        "slot": "3",
        "type": "t_array(t_uint256)64_storage"
      },
      {
        "astId": 10383,
        "contract": "src/contracts/acl/profile/ProfileManager.sol:ProfileManager",
        "label": "_firstInit",
        "offset": 0,
        "slot": "67",
        "type": "t_bool"
      },
      {
        "astId": 10386,
        "contract": "src/contracts/acl/profile/ProfileManager.sol:ProfileManager",
        "label": "_data",
        "offset": 0,
        "slot": "68",
        "type": "t_struct(DataCollection)10239_storage"
      },
      {
        "astId": 82432,
        "contract": "src/contracts/acl/profile/ProfileManager.sol:ProfileManager",
        "label": "_initialized",
        "offset": 0,
        "slot": "78",
        "type": "t_uint16"
      },
      {
        "astId": 82435,
        "contract": "src/contracts/acl/profile/ProfileManager.sol:ProfileManager",
        "label": "_initializing",
        "offset": 2,
        "slot": "78",
        "type": "t_bool"
      }
    ],
    "types": {
      "t_address": {
        "encoding": "inplace",
        "label": "address",
        "numberOfBytes": "20"
      },
      "t_array(t_bytes32)dyn_storage": {
        "base": "t_bytes32",
        "encoding": "dynamic_array",
        "label": "bytes32[]",
        "numberOfBytes": "32"
      },
      "t_array(t_uint256)64_storage": {
        "base": "t_uint256",
        "encoding": "inplace",
        "label": "uint256[64]",
        "numberOfBytes": "2048"
      },
      "t_bool": {
        "encoding": "inplace",
        "label": "bool",
        "numberOfBytes": "1"
      },
      "t_bytes32": {
        "encoding": "inplace",
        "label": "bytes32",
        "numberOfBytes": "32"
      },
      "t_bytes4": {
        "encoding": "inplace",
        "label": "bytes4",
        "numberOfBytes": "4"
      },
      "t_enum(ActivityStatus)11721": {
        "encoding": "inplace",
        "label": "enum IACLCommons.ActivityStatus",
        "numberOfBytes": "1"
      },
      "t_enum(AgentType)11716": {
        "encoding": "inplace",
        "label": "enum IACLCommons.AgentType",
        "numberOfBytes": "1"
      },
      "t_enum(AlterabilityStatus)11726": {
        "encoding": "inplace",
        "label": "enum IACLCommons.AlterabilityStatus",
        "numberOfBytes": "1"
      },
      "t_enum(PolicyType)11744": {
        "encoding": "inplace",
        "label": "enum IACLCommons.PolicyType",
        "numberOfBytes": "1"
      },
      "t_enum(ProxySafeModeStatus)82251": {
        "encoding": "inplace",
        "label": "enum IBaseProxy.ProxySafeModeStatus",
        "numberOfBytes": "1"
      },
      "t_enum(ProxyUpdatabilityStatus)82254": {
        "encoding": "inplace",
        "label": "enum IBaseProxy.ProxyUpdatabilityStatus",
        "numberOfBytes": "1"
      },
      "t_enum(ScopeType)11733": {
        "encoding": "inplace",
        "label": "enum IACLCommons.ScopeType",
        "numberOfBytes": "1"
      },
      "t_mapping(t_address,t_struct(FacetEntity)11945_storage)": {
        "encoding": "mapping",
        "key": "t_address",
        "label": "mapping(address => struct IACLCommons.FacetEntity)",
        "numberOfBytes": "32",
        "value": "t_struct(FacetEntity)11945_storage"
      },
      "t_mapping(t_address,t_struct(ProfileAccount)12018_storage)": {
        "encoding": "mapping",
        "key": "t_address",
        "label": "mapping(address => struct IACLCommons.ProfileAccount)",
        "numberOfBytes": "32",
        "value": "t_struct(ProfileAccount)12018_storage"
      },
      "t_mapping(t_bytes32,t_bytes32)": {
        "encoding": "mapping",
        "key": "t_bytes32",
        "label": "mapping(bytes32 => bytes32)",
        "numberOfBytes": "32",
        "value": "t_bytes32"
      },
      "t_mapping(t_bytes32,t_struct(BaseAgent)11756_storage)": {
        "encoding": "mapping",
        "key": "t_bytes32",
        "label": "mapping(bytes32 => struct IACLCommons.BaseAgent)",
        "numberOfBytes": "32",
        "value": "t_struct(BaseAgent)11756_storage"
      },
      "t_mapping(t_bytes32,t_struct(BaseScope)11770_storage)": {
        "encoding": "mapping",
        "key": "t_bytes32",
        "label": "mapping(bytes32 => struct IACLCommons.BaseScope)",
        "numberOfBytes": "32",
        "value": "t_struct(BaseScope)11770_storage"
      },
      "t_mapping(t_bytes32,t_struct(PolicyEntity)11793_storage)": {
        "encoding": "mapping",
        "key": "t_bytes32",
        "label": "mapping(bytes32 => struct IACLCommons.PolicyEntity)",
        "numberOfBytes": "32",
        "value": "t_struct(PolicyEntity)11793_storage"
      },
      "t_mapping(t_bytes32,t_struct(ProfileEntity)12059_storage)": {
        "encoding": "mapping",
        "key": "t_bytes32",
        "label": "mapping(bytes32 => struct IACLCommons.ProfileEntity)",
        "numberOfBytes": "32",
        "value": "t_struct(ProfileEntity)12059_storage"
      },
      "t_mapping(t_bytes32,t_uint256)": {
        "encoding": "mapping",
        "key": "t_bytes32",
        "label": "mapping(bytes32 => uint256)",
        "numberOfBytes": "32",
        "value": "t_uint256"
      },
      "t_mapping(t_bytes4,t_address)": {
        "encoding": "mapping",
        "key": "t_bytes4",
        "label": "mapping(bytes4 => address)",
        "numberOfBytes": "32",
        "value": "t_address"
      },
      "t_string_storage": {
        "encoding": "bytes",
        "label": "string",
        "numberOfBytes": "32"
      },
      "t_struct(AddressSet)79783_storage": {
        "encoding": "inplace",
        "label": "struct LEnumerableSet.AddressSet",
        "members": [
          {
            "astId": 79782,
            "contract": "src/contracts/acl/profile/ProfileManager.sol:ProfileManager",
            "label": "_inner",
            "offset": 0,
            "slot": "0",
            "type": "t_struct(Set)79482_storage"
          }
        ],
        "numberOfBytes": "64"
      },
      "t_struct(BaseAgent)11756_storage": {
        "encoding": "inplace",
        "label": "struct IACLCommons.BaseAgent",
        "members": [
          {
            "astId": 11746,
            "contract": "src/contracts/acl/profile/ProfileManager.sol:ProfileManager",
            "label": "adminId",
            "offset": 0,
            "slot": "0",
            "type": "t_bytes32"
          },
          {
            "astId": 11749,
            "contract": "src/contracts/acl/profile/ProfileManager.sol:ProfileManager",
            "label": "atype",
            "offset": 0,
            "slot": "1",
            "type": "t_enum(AgentType)11716"
          },
          {
            "astId": 11752,
            "contract": "src/contracts/acl/profile/ProfileManager.sol:ProfileManager",
            "label": "acstat",
            "offset": 1,
            "slot": "1",
            "type": "t_enum(ActivityStatus)11721"
          },
          {
            "astId": 11755,
            "contract": "src/contracts/acl/profile/ProfileManager.sol:ProfileManager",
            "label": "alstat",
            "offset": 2,
            "slot": "1",
            "type": "t_enum(AlterabilityStatus)11726"
          }
        ],
        "numberOfBytes": "64"
      },
      "t_struct(BaseScope)11770_storage": {
        "encoding": "inplace",
        "label": "struct IACLCommons.BaseScope",
        "members": [
          {
            "astId": 11758,
            "contract": "src/contracts/acl/profile/ProfileManager.sol:ProfileManager",
            "label": "adminId",
            "offset": 0,
            "slot": "0",
            "type": "t_bytes32"
          },
          {
            "astId": 11761,
            "contract": "src/contracts/acl/profile/ProfileManager.sol:ProfileManager",
            "label": "stype",
            "offset": 0,
            "slot": "1",
            "type": "t_enum(ScopeType)11733"
          },
          {
            "astId": 11764,
            "contract": "src/contracts/acl/profile/ProfileManager.sol:ProfileManager",
            "label": "acstat",
            "offset": 1,
            "slot": "1",
            "type": "t_enum(ActivityStatus)11721"
          },
          {
            "astId": 11767,
            "contract": "src/contracts/acl/profile/ProfileManager.sol:ProfileManager",
            "label": "alstat",
            "offset": 2,
            "slot": "1",
            "type": "t_enum(AlterabilityStatus)11726"
          },
          {
            "astId": 11769,
            "contract": "src/contracts/acl/profile/ProfileManager.sol:ProfileManager",
            "label": "referredByAgent",
            "offset": 3,
            "slot": "1",
            "type": "t_uint32"
          }
        ],
        "numberOfBytes": "64"
      },
      "t_struct(Bytes32Set)79676_storage": {
        "encoding": "inplace",
        "label": "struct LEnumerableSet.Bytes32Set",
        "members": [
          {
            "astId": 79675,
            "contract": "src/contracts/acl/profile/ProfileManager.sol:ProfileManager",
            "label": "_inner",
            "offset": 0,
            "slot": "0",
            "type": "t_struct(Set)79482_storage"
          }
        ],
        "numberOfBytes": "64"
      },
      "t_struct(DataCollection)10239_storage": {
        "encoding": "inplace",
        "label": "struct ACLStorage.DataCollection",
        "members": [
          {
            "astId": 10202,
            "contract": "src/contracts/acl/profile/ProfileManager.sol:ProfileManager",
            "label": "agents",
            "offset": 0,
            "slot": "0",
            "type": "t_mapping(t_bytes32,t_struct(BaseAgent)11756_storage)"
          },
          {
            "astId": 10207,
            "contract": "src/contracts/acl/profile/ProfileManager.sol:ProfileManager",
            "label": "scopes",
            "offset": 0,
            "slot": "1",
            "type": "t_mapping(t_bytes32,t_struct(BaseScope)11770_storage)"
          },
          {
            "astId": 10212,
            "contract": "src/contracts/acl/profile/ProfileManager.sol:ProfileManager",
            "label": "policies",
            "offset": 0,
            "slot": "2",
            "type": "t_mapping(t_bytes32,t_struct(PolicyEntity)11793_storage)"
          },
          {
            "astId": 10216,
            "contract": "src/contracts/acl/profile/ProfileManager.sol:ProfileManager",
            "label": "rolePolicyMap",
            "offset": 0,
            "slot": "3",
            "type": "t_mapping(t_bytes32,t_bytes32)"
          },
          {
            "astId": 10221,
            "contract": "src/contracts/acl/profile/ProfileManager.sol:ProfileManager",
            "label": "profiles",
            "offset": 0,
            "slot": "4",
            "type": "t_mapping(t_bytes32,t_struct(ProfileEntity)12059_storage)"
          },
          {
            "astId": 10226,
            "contract": "src/contracts/acl/profile/ProfileManager.sol:ProfileManager",
            "label": "profileAccounts",
            "offset": 0,
            "slot": "5",
            "type": "t_mapping(t_address,t_struct(ProfileAccount)12018_storage)"
          },
          {
            "astId": 10230,
            "contract": "src/contracts/acl/profile/ProfileManager.sol:ProfileManager",
            "label": "selectors",
            "offset": 0,
            "slot": "6",
            "type": "t_mapping(t_bytes4,t_address)"
          },
          {
            "astId": 10235,
            "contract": "src/contracts/acl/profile/ProfileManager.sol:ProfileManager",
            "label": "facets",
            "offset": 0,
            "slot": "7",
            "type": "t_mapping(t_address,t_struct(FacetEntity)11945_storage)"
          },
          {
            "astId": 10238,
            "contract": "src/contracts/acl/profile/ProfileManager.sol:ProfileManager",
            "label": "facetSet",
            "offset": 0,
            "slot": "8",
            "type": "t_struct(AddressSet)79783_storage"
          }
        ],
        "numberOfBytes": "320"
      },
      "t_struct(FacetEntity)11945_storage": {
        "encoding": "inplace",
        "label": "struct IACLCommons.FacetEntity",
        "members": [
          {
            "astId": 11944,
            "contract": "src/contracts/acl/profile/ProfileManager.sol:ProfileManager",
            "label": "subjectId",
            "offset": 0,
            "slot": "0",
            "type": "t_address"
          }
        ],
        "numberOfBytes": "32"
      },
      "t_struct(PolicyEntity)11793_storage": {
        "encoding": "inplace",
        "label": "struct IACLCommons.PolicyEntity",
        "members": [
          {
            "astId": 11772,
            "contract": "src/contracts/acl/profile/ProfileManager.sol:ProfileManager",
            "label": "adminId",
            "offset": 0,
            "slot": "0",
            "type": "t_bytes32"
          },
          {
            "astId": 11774,
            "contract": "src/contracts/acl/profile/ProfileManager.sol:ProfileManager",
            "label": "scopeId",
            "offset": 0,
            "slot": "1",
            "type": "t_bytes32"
          },
          {
            "astId": 11776,
            "contract": "src/contracts/acl/profile/ProfileManager.sol:ProfileManager",
            "label": "name",
            "offset": 0,
            "slot": "2",
            "type": "t_string_storage"
          },
          {
            "astId": 11778,
            "contract": "src/contracts/acl/profile/ProfileManager.sol:ProfileManager",
            "label": "roleLimit",
            "offset": 0,
            "slot": "3",
            "type": "t_uint16"
          },
          {
            "astId": 11780,
            "contract": "src/contracts/acl/profile/ProfileManager.sol:ProfileManager",
            "label": "policyCode",
            "offset": 2,
            "slot": "3",
            "type": "t_uint8"
          },
          {
            "astId": 11783,
            "contract": "src/contracts/acl/profile/ProfileManager.sol:ProfileManager",
            "label": "ptype",
            "offset": 3,
            "slot": "3",
            "type": "t_enum(PolicyType)11744"
          },
          {
            "astId": 11786,
            "contract": "src/contracts/acl/profile/ProfileManager.sol:ProfileManager",
            "label": "acstat",
            "offset": 4,
            "slot": "3",
            "type": "t_enum(ActivityStatus)11721"
          },
          {
            "astId": 11789,
            "contract": "src/contracts/acl/profile/ProfileManager.sol:ProfileManager",
            "label": "alstat",
            "offset": 5,
            "slot": "3",
            "type": "t_enum(AlterabilityStatus)11726"
          },
          {
            "astId": 11792,
            "contract": "src/contracts/acl/profile/ProfileManager.sol:ProfileManager",
            "label": "roles",
            "offset": 0,
            "slot": "4",
            "type": "t_struct(Bytes32Set)79676_storage"
          }
        ],
        "numberOfBytes": "192"
      },
      "t_struct(ProfileAccount)12018_storage": {
        "encoding": "inplace",
        "label": "struct IACLCommons.ProfileAccount",
        "members": [
          {
            "astId": 12017,
            "contract": "src/contracts/acl/profile/ProfileManager.sol:ProfileManager",
            "label": "profiles",
            "offset": 0,
            "slot": "0",
            "type": "t_array(t_bytes32)dyn_storage"
          }
        ],
        "numberOfBytes": "32"
      },
      "t_struct(ProfileEntity)12059_storage": {
        "encoding": "inplace",
        "label": "struct IACLCommons.ProfileEntity",
        "members": [
          {
            "astId": 12023,
            "contract": "src/contracts/acl/profile/ProfileManager.sol:ProfileManager",
            "label": "agents",
            "offset": 0,
            "slot": "0",
            "type": "t_mapping(t_bytes32,t_struct(BaseAgent)11756_storage)"
          },
          {
            "astId": 12028,
            "contract": "src/contracts/acl/profile/ProfileManager.sol:ProfileManager",
            "label": "scopes",
            "offset": 0,
            "slot": "1",
            "type": "t_mapping(t_bytes32,t_struct(BaseScope)11770_storage)"
          },
          {
            "astId": 12033,
            "contract": "src/contracts/acl/profile/ProfileManager.sol:ProfileManager",
            "label": "policies",
            "offset": 0,
            "slot": "2",
            "type": "t_mapping(t_bytes32,t_struct(PolicyEntity)11793_storage)"
          },
          {
            "astId": 12037,
            "contract": "src/contracts/acl/profile/ProfileManager.sol:ProfileManager",
            "label": "rolePolicyMap",
            "offset": 0,
            "slot": "3",
            "type": "t_mapping(t_bytes32,t_bytes32)"
          },
          {
            "astId": 12040,
            "contract": "src/contracts/acl/profile/ProfileManager.sol:ProfileManager",
            "label": "admins",
            "offset": 0,
            "slot": "4",
            "type": "t_struct(Bytes32Set)79676_storage"
          },
          {
            "astId": 12042,
            "contract": "src/contracts/acl/profile/ProfileManager.sol:ProfileManager",
            "label": "adminId",
            "offset": 0,
            "slot": "6",
            "type": "t_bytes32"
          },
          {
            "astId": 12044,
            "contract": "src/contracts/acl/profile/ProfileManager.sol:ProfileManager",
            "label": "name",
            "offset": 0,
            "slot": "7",
            "type": "t_string_storage"
          },
          {
            "astId": 12046,
            "contract": "src/contracts/acl/profile/ProfileManager.sol:ProfileManager",
            "label": "owner",
            "offset": 0,
            "slot": "8",
            "type": "t_address"
          },
          {
            "astId": 12049,
            "contract": "src/contracts/acl/profile/ProfileManager.sol:ProfileManager",
            "label": "acstat",
            "offset": 20,
            "slot": "8",
            "type": "t_enum(ActivityStatus)11721"
          },
          {
            "astId": 12052,
            "contract": "src/contracts/acl/profile/ProfileManager.sol:ProfileManager",
            "label": "alstat",
            "offset": 21,
            "slot": "8",
            "type": "t_enum(AlterabilityStatus)11726"
          },
          {
            "astId": 12055,
            "contract": "src/contracts/acl/profile/ProfileManager.sol:ProfileManager",
            "label": "registerLimits",
            "offset": 0,
            "slot": "9",
            "type": "t_struct(ProfileRegisterLimit)11993_storage"
          },
          {
            "astId": 12058,
            "contract": "src/contracts/acl/profile/ProfileManager.sol:ProfileManager",
            "label": "limits",
            "offset": 0,
            "slot": "10",
            "type": "t_struct(ProfileLimit)12014_storage"
          }
        ],
        "numberOfBytes": "352"
      },
      "t_struct(ProfileLimit)12014_storage": {
        "encoding": "inplace",
        "label": "struct IACLCommons.ProfileLimit",
        "members": [
          {
            "astId": 11995,
            "contract": "src/contracts/acl/profile/ProfileManager.sol:ProfileManager",
            "label": "profileCallLimit",
            "offset": 0,
            "slot": "0",
            "type": "t_uint32"
          },
          {
            "astId": 11997,
            "contract": "src/contracts/acl/profile/ProfileManager.sol:ProfileManager",
            "label": "contextLimit",
            "offset": 4,
            "slot": "0",
            "type": "t_uint32"
          },
          {
            "astId": 11999,
            "contract": "src/contracts/acl/profile/ProfileManager.sol:ProfileManager",
            "label": "memberLimit",
            "offset": 8,
            "slot": "0",
            "type": "t_uint24"
          },
          {
            "astId": 12001,
            "contract": "src/contracts/acl/profile/ProfileManager.sol:ProfileManager",
            "label": "realmLimit",
            "offset": 11,
            "slot": "0",
            "type": "t_uint16"
          },
          {
            "astId": 12003,
            "contract": "src/contracts/acl/profile/ProfileManager.sol:ProfileManager",
            "label": "domainLimit",
            "offset": 13,
            "slot": "0",
            "type": "t_uint16"
          },
          {
            "astId": 12005,
            "contract": "src/contracts/acl/profile/ProfileManager.sol:ProfileManager",
            "label": "memberCallLimit",
            "offset": 15,
            "slot": "0",
            "type": "t_uint16"
          },
          {
            "astId": 12007,
            "contract": "src/contracts/acl/profile/ProfileManager.sol:ProfileManager",
            "label": "typeRoleLimit",
            "offset": 17,
            "slot": "0",
            "type": "t_uint16"
          },
          {
            "astId": 12009,
            "contract": "src/contracts/acl/profile/ProfileManager.sol:ProfileManager",
            "label": "typeLimit",
            "offset": 19,
            "slot": "0",
            "type": "t_uint16"
          },
          {
            "astId": 12011,
            "contract": "src/contracts/acl/profile/ProfileManager.sol:ProfileManager",
            "label": "policyRoleLimit",
            "offset": 21,
            "slot": "0",
            "type": "t_uint16"
          },
          {
            "astId": 12013,
            "contract": "src/contracts/acl/profile/ProfileManager.sol:ProfileManager",
            "label": "functionLimit",
            "offset": 23,
            "slot": "0",
            "type": "t_uint8"
          }
        ],
        "numberOfBytes": "32"
      },
      "t_struct(ProfileRegisterLimit)11993_storage": {
        "encoding": "inplace",
        "label": "struct IACLCommons.ProfileRegisterLimit",
        "members": [
          {
            "astId": 11978,
            "contract": "src/contracts/acl/profile/ProfileManager.sol:ProfileManager",
            "label": "memberRegisterLimit",
            "offset": 0,
            "slot": "0",
            "type": "t_uint32"
          },
          {
            "astId": 11980,
            "contract": "src/contracts/acl/profile/ProfileManager.sol:ProfileManager",
            "label": "roleRegisterLimit",
            "offset": 4,
            "slot": "0",
            "type": "t_uint32"
          },
          {
            "astId": 11982,
            "contract": "src/contracts/acl/profile/ProfileManager.sol:ProfileManager",
            "label": "typeRegisterLimit",
            "offset": 8,
            "slot": "0",
            "type": "t_uint32"
          },
          {
            "astId": 11984,
            "contract": "src/contracts/acl/profile/ProfileManager.sol:ProfileManager",
            "label": "functionRegisterLimit",
            "offset": 12,
            "slot": "0",
            "type": "t_uint32"
          },
          {
            "astId": 11986,
            "contract": "src/contracts/acl/profile/ProfileManager.sol:ProfileManager",
            "label": "contextRegisterLimit",
            "offset": 16,
            "slot": "0",
            "type": "t_uint32"
          },
          {
            "astId": 11988,
            "contract": "src/contracts/acl/profile/ProfileManager.sol:ProfileManager",
            "label": "realmRegisterLimit",
            "offset": 20,
            "slot": "0",
            "type": "t_uint16"
          },
          {
            "astId": 11990,
            "contract": "src/contracts/acl/profile/ProfileManager.sol:ProfileManager",
            "label": "domainRegisterLimit",
            "offset": 22,
            "slot": "0",
            "type": "t_uint16"
          },
          {
            "astId": 11992,
            "contract": "src/contracts/acl/profile/ProfileManager.sol:ProfileManager",
            "label": "policyRegisterLimit",
            "offset": 24,
            "slot": "0",
            "type": "t_uint16"
          }
        ],
        "numberOfBytes": "32"
      },
      "t_struct(Set)79482_storage": {
        "encoding": "inplace",
        "label": "struct LEnumerableSet.Set",
        "members": [
          {
            "astId": 79477,
            "contract": "src/contracts/acl/profile/ProfileManager.sol:ProfileManager",
            "label": "_values",
            "offset": 0,
            "slot": "0",
            "type": "t_array(t_bytes32)dyn_storage"
          },
          {
            "astId": 79481,
            "contract": "src/contracts/acl/profile/ProfileManager.sol:ProfileManager",
            "label": "_indexes",
            "offset": 0,
            "slot": "1",
            "type": "t_mapping(t_bytes32,t_uint256)"
          }
        ],
        "numberOfBytes": "64"
      },
      "t_uint16": {
        "encoding": "inplace",
        "label": "uint16",
        "numberOfBytes": "2"
      },
      "t_uint24": {
        "encoding": "inplace",
        "label": "uint24",
        "numberOfBytes": "3"
      },
      "t_uint256": {
        "encoding": "inplace",
        "label": "uint256",
        "numberOfBytes": "32"
      },
      "t_uint32": {
        "encoding": "inplace",
        "label": "uint32",
        "numberOfBytes": "4"
      },
      "t_uint8": {
        "encoding": "inplace",
        "label": "uint8",
        "numberOfBytes": "1"
      }
    }
  }
}