{
  "address": "0xa949F7566Aef6D235Bf5de5a0D591a48E39305b0",
  "abi": [
    {
      "inputs": [],
      "stateMutability": "nonpayable",
      "type": "constructor"
    },
    {
      "inputs": [
        {
          "internalType": "enum IACL.AuthorizationStatus",
          "name": "",
          "type": "uint8"
        }
      ],
      "name": "ACLActionForbidden",
      "type": "error"
    },
    {
      "inputs": [],
      "name": "ACLCallForbidden",
      "type": "error"
    },
    {
      "inputs": [],
      "name": "ACLContextActivityForbidden",
      "type": "error"
    },
    {
      "inputs": [],
      "name": "ACLContextNotFound",
      "type": "error"
    },
    {
      "inputs": [],
      "name": "ACLDomainActivityForbidden",
      "type": "error"
    },
    {
      "inputs": [],
      "name": "ACLDomainNotFound",
      "type": "error"
    },
    {
      "inputs": [],
      "name": "ACLFunctionActivityForbidden",
      "type": "error"
    },
    {
      "inputs": [],
      "name": "ACLFunctionNotFound",
      "type": "error"
    },
    {
      "inputs": [],
      "name": "ACLMemberActivityForbidden",
      "type": "error"
    },
    {
      "inputs": [],
      "name": "ACLMemberNotFound",
      "type": "error"
    },
    {
      "inputs": [],
      "name": "ACLPolicyForbidden",
      "type": "error"
    },
    {
      "inputs": [],
      "name": "ACLRealmActivityForbidden",
      "type": "error"
    },
    {
      "inputs": [],
      "name": "ACLRealmNotFound",
      "type": "error"
    },
    {
      "inputs": [],
      "name": "ACLRoleActivityForbidden",
      "type": "error"
    },
    {
      "inputs": [],
      "name": "ACLRoleNotFound",
      "type": "error"
    },
    {
      "inputs": [],
      "name": "ACLRoleScopeForbidden",
      "type": "error"
    },
    {
      "inputs": [],
      "name": "ACLTypeActivityForbidden",
      "type": "error"
    },
    {
      "inputs": [],
      "name": "ACLTypeNotFound",
      "type": "error"
    },
    {
      "inputs": [],
      "name": "ACLUnauthorized",
      "type": "error"
    },
    {
      "inputs": [],
      "name": "ACLUniverseActivityForbidden",
      "type": "error"
    },
    {
      "inputs": [],
      "name": "AdminAccessFunctionNotFound",
      "type": "error"
    },
    {
      "inputs": [],
      "name": "AdminAccessNotPermitted",
      "type": "error"
    },
    {
      "inputs": [],
      "name": "AdminAccessPolicyForbidden",
      "type": "error"
    },
    {
      "inputs": [],
      "name": "AdminAccessRoleActivityForbidden",
      "type": "error"
    },
    {
      "inputs": [],
      "name": "AdminAccessRoleNotFound",
      "type": "error"
    },
    {
      "inputs": [],
      "name": "AdminAccessTypeActivityForbidden",
      "type": "error"
    },
    {
      "inputs": [],
      "name": "AdminAccessTypeNotFound",
      "type": "error"
    },
    {
      "anonymous": false,
      "inputs": [
        {
          "indexed": true,
          "internalType": "address",
          "name": "sender",
          "type": "address"
        },
        {
          "indexed": true,
          "internalType": "address",
          "name": "proxy",
          "type": "address"
        },
        {
          "indexed": true,
          "internalType": "address",
          "name": "subject",
          "type": "address"
        },
        {
          "indexed": false,
          "internalType": "string",
          "name": "name",
          "type": "string"
        },
        {
          "indexed": false,
          "internalType": "string",
          "name": "version",
          "type": "string"
        },
        {
          "indexed": false,
          "internalType": "uint16",
          "name": "initCount",
          "type": "uint16"
        }
      ],
      "name": "Initialized",
      "type": "event"
    },
    {
      "anonymous": false,
      "inputs": [
        {
          "indexed": true,
          "internalType": "address",
          "name": "sender",
          "type": "address"
        },
        {
          "indexed": true,
          "internalType": "address",
          "name": "proxy",
          "type": "address"
        },
        {
          "indexed": false,
          "internalType": "address",
          "name": "acl",
          "type": "address"
        }
      ],
      "name": "ProxyAccessControlUpdated",
      "type": "event"
    },
    {
      "anonymous": false,
      "inputs": [
        {
          "indexed": true,
          "internalType": "address",
          "name": "sender",
          "type": "address"
        },
        {
          "indexed": true,
          "internalType": "address",
          "name": "proxy",
          "type": "address"
        },
        {
          "indexed": false,
          "internalType": "address",
          "name": "newAdmin",
          "type": "address"
        }
      ],
      "name": "ProxyLocalAdminUpdated",
      "type": "event"
    },
    {
      "anonymous": false,
      "inputs": [
        {
          "indexed": true,
          "internalType": "address",
          "name": "sender",
          "type": "address"
        },
        {
          "indexed": true,
          "internalType": "address",
          "name": "proxy",
          "type": "address"
        },
        {
          "indexed": false,
          "internalType": "enum IBaseProxy.ProxySafeModeStatus",
          "name": "sstat",
          "type": "uint8"
        }
      ],
      "name": "ProxySafeModeUpdated",
      "type": "event"
    },
    {
      "anonymous": false,
      "inputs": [
        {
          "indexed": true,
          "internalType": "address",
          "name": "sender",
          "type": "address"
        },
        {
          "indexed": true,
          "internalType": "address",
          "name": "proxy",
          "type": "address"
        },
        {
          "indexed": false,
          "internalType": "enum IBaseProxy.ProxyUpdatabilityStatus",
          "name": "ustat",
          "type": "uint8"
        }
      ],
      "name": "ProxyUpdatabilityUpdated",
      "type": "event"
    },
    {
      "anonymous": false,
      "inputs": [
        {
          "indexed": true,
          "internalType": "address",
          "name": "sender",
          "type": "address"
        },
        {
          "indexed": true,
          "internalType": "address",
          "name": "proxy",
          "type": "address"
        },
        {
          "indexed": true,
          "internalType": "address",
          "name": "newImplementation",
          "type": "address"
        }
      ],
      "name": "ProxyUpgraded",
      "type": "event"
    },
    {
      "anonymous": false,
      "inputs": [
        {
          "indexed": true,
          "internalType": "address",
          "name": "sender",
          "type": "address"
        },
        {
          "indexed": true,
          "internalType": "bytes32",
          "name": "roleId",
          "type": "bytes32"
        },
        {
          "indexed": false,
          "internalType": "enum IACLCommons.ActivityStatus",
          "name": "acstat",
          "type": "uint8"
        }
      ],
      "name": "RoleActivityUpdated",
      "type": "event"
    },
    {
      "anonymous": false,
      "inputs": [
        {
          "indexed": true,
          "internalType": "address",
          "name": "sender",
          "type": "address"
        },
        {
          "indexed": true,
          "internalType": "bytes32",
          "name": "roleId",
          "type": "bytes32"
        },
        {
          "indexed": true,
          "internalType": "bytes32",
          "name": "adminId",
          "type": "bytes32"
        }
      ],
      "name": "RoleAdminUpdated",
      "type": "event"
    },
    {
      "anonymous": false,
      "inputs": [
        {
          "indexed": true,
          "internalType": "address",
          "name": "sender",
          "type": "address"
        },
        {
          "indexed": true,
          "internalType": "bytes32",
          "name": "roleId",
          "type": "bytes32"
        },
        {
          "indexed": false,
          "internalType": "enum IACLCommons.AlterabilityStatus",
          "name": "alstat",
          "type": "uint8"
        }
      ],
      "name": "RoleAlterabilityUpdated",
      "type": "event"
    },
    {
      "anonymous": false,
      "inputs": [
        {
          "indexed": true,
          "internalType": "address",
          "name": "sender",
          "type": "address"
        },
        {
          "indexed": true,
          "internalType": "bytes32",
          "name": "roleId",
          "type": "bytes32"
        },
        {
          "indexed": true,
          "internalType": "bytes32",
          "name": "memberId",
          "type": "bytes32"
        },
        {
          "indexed": false,
          "internalType": "bytes32",
          "name": "typeId",
          "type": "bytes32"
        },
        {
          "indexed": false,
          "internalType": "address",
          "name": "account",
          "type": "address"
        }
      ],
      "name": "RoleMemberDeleted",
      "type": "event"
    },
    {
      "anonymous": false,
      "inputs": [
        {
          "indexed": true,
          "internalType": "address",
          "name": "sender",
          "type": "address"
        },
        {
          "indexed": true,
          "internalType": "bytes32",
          "name": "roleId",
          "type": "bytes32"
        },
        {
          "indexed": true,
          "internalType": "bytes32",
          "name": "memberId",
          "type": "bytes32"
        },
        {
          "indexed": false,
          "internalType": "bytes32",
          "name": "typeId",
          "type": "bytes32"
        }
      ],
      "name": "RoleMemberGranted",
      "type": "event"
    },
    {
      "anonymous": false,
      "inputs": [
        {
          "indexed": true,
          "internalType": "address",
          "name": "sender",
          "type": "address"
        },
        {
          "indexed": true,
          "internalType": "bytes32",
          "name": "roleId",
          "type": "bytes32"
        },
        {
          "indexed": false,
          "internalType": "uint24",
          "name": "memberLimit",
          "type": "uint24"
        }
      ],
      "name": "RoleMemberLimitUpdated",
      "type": "event"
    },
    {
      "anonymous": false,
      "inputs": [
        {
          "indexed": true,
          "internalType": "address",
          "name": "sender",
          "type": "address"
        },
        {
          "indexed": true,
          "internalType": "bytes32",
          "name": "roleId",
          "type": "bytes32"
        },
        {
          "indexed": true,
          "internalType": "bytes32",
          "name": "memberId",
          "type": "bytes32"
        },
        {
          "indexed": false,
          "internalType": "bytes32",
          "name": "typeId",
          "type": "bytes32"
        }
      ],
      "name": "RoleMemberRevoked",
      "type": "event"
    },
    {
      "anonymous": false,
      "inputs": [
        {
          "indexed": true,
          "internalType": "address",
          "name": "sender",
          "type": "address"
        },
        {
          "indexed": true,
          "internalType": "bytes32",
          "name": "roleId",
          "type": "bytes32"
        },
        {
          "indexed": true,
          "internalType": "bytes32",
          "name": "typeId",
          "type": "bytes32"
        },
        {
          "indexed": false,
          "internalType": "bytes32",
          "name": "adminId",
          "type": "bytes32"
        },
        {
          "indexed": false,
          "internalType": "bytes32",
          "name": "scopeId",
          "type": "bytes32"
        }
      ],
      "name": "RoleRegistered",
      "type": "event"
    },
    {
      "anonymous": false,
      "inputs": [
        {
          "indexed": true,
          "internalType": "address",
          "name": "sender",
          "type": "address"
        },
        {
          "indexed": true,
          "internalType": "bytes32",
          "name": "roleId",
          "type": "bytes32"
        }
      ],
      "name": "RoleRemoved",
      "type": "event"
    },
    {
      "anonymous": false,
      "inputs": [
        {
          "indexed": true,
          "internalType": "address",
          "name": "sender",
          "type": "address"
        },
        {
          "indexed": true,
          "internalType": "bytes32",
          "name": "roleId",
          "type": "bytes32"
        },
        {
          "indexed": true,
          "internalType": "bytes32",
          "name": "scopeId",
          "type": "bytes32"
        }
      ],
      "name": "RoleScopeUpdated",
      "type": "event"
    },
    {
      "stateMutability": "payable",
      "type": "fallback"
    },
    {
      "inputs": [],
      "name": "CTX_MESSAGE_TYPEHASH",
      "outputs": [
        {
          "internalType": "bytes32",
          "name": "",
          "type": "bytes32"
        }
      ],
      "stateMutability": "view",
      "type": "function"
    },
    {
      "inputs": [],
      "name": "MEMBER_SIGNATURE_MESSAGE_TYPEHASH",
      "outputs": [
        {
          "internalType": "bytes32",
          "name": "",
          "type": "bytes32"
        }
      ],
      "stateMutability": "view",
      "type": "function"
    },
    {
      "inputs": [],
      "name": "PREDICT_CTX_MESSAGE_TYPEHASH",
      "outputs": [
        {
          "internalType": "bytes32",
          "name": "",
          "type": "bytes32"
        }
      ],
      "stateMutability": "view",
      "type": "function"
    },
    {
      "inputs": [],
      "name": "PROFILE_CTX_MESSAGE_TYPEHASH",
      "outputs": [
        {
          "internalType": "bytes32",
          "name": "",
          "type": "bytes32"
        }
      ],
      "stateMutability": "view",
      "type": "function"
    },
    {
      "inputs": [],
      "name": "PROFILE_MEMBER_SIGNATURE_MESSAGE_TYPEHASH",
      "outputs": [
        {
          "internalType": "bytes32",
          "name": "",
          "type": "bytes32"
        }
      ],
      "stateMutability": "view",
      "type": "function"
    },
    {
      "inputs": [],
      "name": "PROFILE_PREDICT_CTX_MESSAGE_TYPEHASH",
      "outputs": [
        {
          "internalType": "bytes32",
          "name": "",
          "type": "bytes32"
        }
      ],
      "stateMutability": "view",
      "type": "function"
    },
    {
      "inputs": [],
      "name": "TYPE_HASH",
      "outputs": [
        {
          "internalType": "bytes32",
          "name": "",
          "type": "bytes32"
        }
      ],
      "stateMutability": "view",
      "type": "function"
    },
    {
      "inputs": [],
      "name": "accessControlManager",
      "outputs": [
        {
          "internalType": "address",
          "name": "",
          "type": "address"
        }
      ],
      "stateMutability": "view",
      "type": "function"
    },
    {
      "inputs": [],
      "name": "contractName",
      "outputs": [
        {
          "internalType": "string",
          "name": "",
          "type": "string"
        }
      ],
      "stateMutability": "view",
      "type": "function"
    },
    {
      "inputs": [],
      "name": "contractVersion",
      "outputs": [
        {
          "internalType": "string",
          "name": "",
          "type": "string"
        }
      ],
      "stateMutability": "view",
      "type": "function"
    },
    {
      "inputs": [],
      "name": "domainSeparator",
      "outputs": [
        {
          "internalType": "bytes32",
          "name": "",
          "type": "bytes32"
        }
      ],
      "stateMutability": "view",
      "type": "function"
    },
    {
      "inputs": [],
      "name": "getLibrary",
      "outputs": [
        {
          "internalType": "address",
          "name": "",
          "type": "address"
        }
      ],
      "stateMutability": "pure",
      "type": "function"
    },
    {
      "inputs": [],
      "name": "initVersion",
      "outputs": [
        {
          "internalType": "uint16",
          "name": "",
          "type": "uint16"
        }
      ],
      "stateMutability": "view",
      "type": "function"
    },
    {
      "inputs": [
        {
          "internalType": "string",
          "name": "contractName",
          "type": "string"
        },
        {
          "internalType": "string",
          "name": "contractVersion",
          "type": "string"
        },
        {
          "internalType": "address",
          "name": "accessControlManager",
          "type": "address"
        }
      ],
      "name": "initialize",
      "outputs": [],
      "stateMutability": "nonpayable",
      "type": "function"
    },
    {
      "inputs": [],
      "name": "localAdmin",
      "outputs": [
        {
          "internalType": "address",
          "name": "",
          "type": "address"
        }
      ],
      "stateMutability": "view",
      "type": "function"
    },
    {
      "inputs": [],
      "name": "proxiableUUID",
      "outputs": [
        {
          "internalType": "bytes32",
          "name": "",
          "type": "bytes32"
        }
      ],
      "stateMutability": "view",
      "type": "function"
    },
    {
      "inputs": [
        {
          "internalType": "bytes32",
          "name": "roleId",
          "type": "bytes32"
        },
        {
          "internalType": "address",
          "name": "account",
          "type": "address"
        }
      ],
      "name": "roleCheckAdmin",
      "outputs": [
        {
          "internalType": "bool",
          "name": "",
          "type": "bool"
        }
      ],
      "stateMutability": "view",
      "type": "function"
    },
    {
      "inputs": [
        {
          "internalType": "bytes32",
          "name": "roleId",
          "type": "bytes32"
        }
      ],
      "name": "roleCheckId",
      "outputs": [
        {
          "internalType": "bool",
          "name": "",
          "type": "bool"
        }
      ],
      "stateMutability": "view",
      "type": "function"
    },
    {
      "inputs": [
        {
          "internalType": "string",
          "name": "roleName",
          "type": "string"
        }
      ],
      "name": "roleCheckName",
      "outputs": [
        {
          "internalType": "bool",
          "name": "",
          "type": "bool"
        }
      ],
      "stateMutability": "view",
      "type": "function"
    },
    {
      "inputs": [
        {
          "internalType": "bytes32",
          "name": "roleId",
          "type": "bytes32"
        }
      ],
      "name": "roleGetInfo",
      "outputs": [
        {
          "components": [
            {
              "internalType": "bytes32",
              "name": "scopeId",
              "type": "bytes32"
            },
            {
              "internalType": "bytes32",
              "name": "typeId",
              "type": "bytes32"
            },
            {
              "internalType": "bytes32",
              "name": "adminId",
              "type": "bytes32"
            },
            {
              "internalType": "uint24",
              "name": "memberLimit",
              "type": "uint24"
            },
            {
              "internalType": "uint24",
              "name": "memberCount",
              "type": "uint24"
            },
            {
              "internalType": "enum IACLCommons.AgentType",
              "name": "adminType",
              "type": "uint8"
            },
            {
              "internalType": "enum IACLCommons.AgentType",
              "name": "atype",
              "type": "uint8"
            },
            {
              "internalType": "enum IACLCommons.ActivityStatus",
              "name": "acstat",
              "type": "uint8"
            },
            {
              "internalType": "enum IACLCommons.AlterabilityStatus",
              "name": "alstat",
              "type": "uint8"
            },
            {
              "internalType": "string",
              "name": "name",
              "type": "string"
            }
          ],
          "internalType": "struct IRoleManagement.RoleInfo",
          "name": "",
          "type": "tuple"
        }
      ],
      "stateMutability": "view",
      "type": "function"
    },
    {
      "inputs": [
        {
          "components": [
            {
              "internalType": "address",
              "name": "account",
              "type": "address"
            },
            {
              "internalType": "uint64",
              "name": "expiredAt",
              "type": "uint64"
            },
            {
              "internalType": "bytes",
              "name": "signature",
              "type": "bytes"
            }
          ],
          "internalType": "struct IACLCommons.MemberSignature",
          "name": "memberSign",
          "type": "tuple"
        },
        {
          "components": [
            {
              "internalType": "bytes32",
              "name": "roleId",
              "type": "bytes32"
            },
            {
              "internalType": "bytes32[]",
              "name": "members",
              "type": "bytes32[]"
            }
          ],
          "internalType": "struct IRoleManagement.RoleGrantMembersRequest[]",
          "name": "requests",
          "type": "tuple[]"
        }
      ],
      "name": "roleGrantMembers",
      "outputs": [
        {
          "internalType": "bool",
          "name": "",
          "type": "bool"
        }
      ],
      "stateMutability": "nonpayable",
      "type": "function"
    },
    {
      "inputs": [
        {
          "internalType": "bytes32",
          "name": "roleId",
          "type": "bytes32"
        },
        {
          "internalType": "address",
          "name": "account",
          "type": "address"
        }
      ],
      "name": "roleHasAccount",
      "outputs": [
        {
          "internalType": "bool",
          "name": "",
          "type": "bool"
        }
      ],
      "stateMutability": "view",
      "type": "function"
    },
    {
      "inputs": [
        {
          "components": [
            {
              "internalType": "address",
              "name": "account",
              "type": "address"
            },
            {
              "internalType": "uint64",
              "name": "expiredAt",
              "type": "uint64"
            },
            {
              "internalType": "bytes",
              "name": "signature",
              "type": "bytes"
            }
          ],
          "internalType": "struct IACLCommons.MemberSignature",
          "name": "memberSign",
          "type": "tuple"
        },
        {
          "components": [
            {
              "internalType": "bytes32",
              "name": "adminId",
              "type": "bytes32"
            },
            {
              "internalType": "bytes32",
              "name": "scopeId",
              "type": "bytes32"
            },
            {
              "internalType": "bytes32",
              "name": "typeId",
              "type": "bytes32"
            },
            {
              "internalType": "int32",
              "name": "memberLimit",
              "type": "int32"
            },
            {
              "internalType": "enum IACLCommons.ActivityStatus",
              "name": "acstat",
              "type": "uint8"
            },
            {
              "internalType": "enum IACLCommons.AlterabilityStatus",
              "name": "alstat",
              "type": "uint8"
            },
            {
              "internalType": "string",
              "name": "name",
              "type": "string"
            }
          ],
          "internalType": "struct IRoleManagement.RoleRegisterRequest[]",
          "name": "requests",
          "type": "tuple[]"
        }
      ],
      "name": "roleRegister",
      "outputs": [
        {
          "internalType": "bool",
          "name": "",
          "type": "bool"
        }
      ],
      "stateMutability": "nonpayable",
      "type": "function"
    },
    {
      "inputs": [
        {
          "components": [
            {
              "internalType": "address",
              "name": "account",
              "type": "address"
            },
            {
              "internalType": "uint64",
              "name": "expiredAt",
              "type": "uint64"
            },
            {
              "internalType": "bytes",
              "name": "signature",
              "type": "bytes"
            }
          ],
          "internalType": "struct IACLCommons.MemberSignature",
          "name": "memberSign",
          "type": "tuple"
        },
        {
          "internalType": "bytes32[]",
          "name": "roles",
          "type": "bytes32[]"
        }
      ],
      "name": "roleRemove",
      "outputs": [
        {
          "internalType": "bool",
          "name": "",
          "type": "bool"
        }
      ],
      "stateMutability": "nonpayable",
      "type": "function"
    },
    {
      "inputs": [
        {
          "components": [
            {
              "internalType": "address",
              "name": "account",
              "type": "address"
            },
            {
              "internalType": "uint64",
              "name": "expiredAt",
              "type": "uint64"
            },
            {
              "internalType": "bytes",
              "name": "signature",
              "type": "bytes"
            }
          ],
          "internalType": "struct IACLCommons.MemberSignature",
          "name": "memberSign",
          "type": "tuple"
        },
        {
          "components": [
            {
              "internalType": "bytes32",
              "name": "roleId",
              "type": "bytes32"
            },
            {
              "internalType": "bytes32[]",
              "name": "members",
              "type": "bytes32[]"
            }
          ],
          "internalType": "struct IRoleManagement.RoleRevokeMembersRequest[]",
          "name": "requests",
          "type": "tuple[]"
        }
      ],
      "name": "roleRevokeMembers",
      "outputs": [
        {
          "internalType": "bool",
          "name": "",
          "type": "bool"
        }
      ],
      "stateMutability": "nonpayable",
      "type": "function"
    },
    {
      "inputs": [
        {
          "components": [
            {
              "internalType": "address",
              "name": "account",
              "type": "address"
            },
            {
              "internalType": "uint64",
              "name": "expiredAt",
              "type": "uint64"
            },
            {
              "internalType": "bytes",
              "name": "signature",
              "type": "bytes"
            }
          ],
          "internalType": "struct IACLCommons.MemberSignature",
          "name": "memberSign",
          "type": "tuple"
        },
        {
          "components": [
            {
              "internalType": "bytes32",
              "name": "id",
              "type": "bytes32"
            },
            {
              "internalType": "enum IACLCommons.ActivityStatus",
              "name": "acstat",
              "type": "uint8"
            }
          ],
          "internalType": "struct IACLCommons.UpdateActivityRequest[]",
          "name": "requests",
          "type": "tuple[]"
        }
      ],
      "name": "roleUpdateActivityStatus",
      "outputs": [
        {
          "internalType": "bool",
          "name": "",
          "type": "bool"
        }
      ],
      "stateMutability": "nonpayable",
      "type": "function"
    },
    {
      "inputs": [
        {
          "components": [
            {
              "internalType": "address",
              "name": "account",
              "type": "address"
            },
            {
              "internalType": "uint64",
              "name": "expiredAt",
              "type": "uint64"
            },
            {
              "internalType": "bytes",
              "name": "signature",
              "type": "bytes"
            }
          ],
          "internalType": "struct IACLCommons.MemberSignature",
          "name": "memberSign",
          "type": "tuple"
        },
        {
          "components": [
            {
              "internalType": "bytes32",
              "name": "id",
              "type": "bytes32"
            },
            {
              "internalType": "bytes32",
              "name": "adminId",
              "type": "bytes32"
            }
          ],
          "internalType": "struct IACLCommons.UpdateAdminRequest[]",
          "name": "requests",
          "type": "tuple[]"
        }
      ],
      "name": "roleUpdateAdmin",
      "outputs": [
        {
          "internalType": "bool",
          "name": "",
          "type": "bool"
        }
      ],
      "stateMutability": "nonpayable",
      "type": "function"
    },
    {
      "inputs": [
        {
          "components": [
            {
              "internalType": "address",
              "name": "account",
              "type": "address"
            },
            {
              "internalType": "uint64",
              "name": "expiredAt",
              "type": "uint64"
            },
            {
              "internalType": "bytes",
              "name": "signature",
              "type": "bytes"
            }
          ],
          "internalType": "struct IACLCommons.MemberSignature",
          "name": "memberSign",
          "type": "tuple"
        },
        {
          "components": [
            {
              "internalType": "bytes32",
              "name": "id",
              "type": "bytes32"
            },
            {
              "internalType": "enum IACLCommons.AlterabilityStatus",
              "name": "alstat",
              "type": "uint8"
            }
          ],
          "internalType": "struct IACLCommons.UpdateAlterabilityRequest[]",
          "name": "requests",
          "type": "tuple[]"
        }
      ],
      "name": "roleUpdateAlterabilityStatus",
      "outputs": [
        {
          "internalType": "bool",
          "name": "",
          "type": "bool"
        }
      ],
      "stateMutability": "nonpayable",
      "type": "function"
    },
    {
      "inputs": [
        {
          "components": [
            {
              "internalType": "address",
              "name": "account",
              "type": "address"
            },
            {
              "internalType": "uint64",
              "name": "expiredAt",
              "type": "uint64"
            },
            {
              "internalType": "bytes",
              "name": "signature",
              "type": "bytes"
            }
          ],
          "internalType": "struct IACLCommons.MemberSignature",
          "name": "memberSign",
          "type": "tuple"
        },
        {
          "components": [
            {
              "internalType": "bytes32",
              "name": "roleId",
              "type": "bytes32"
            },
            {
              "internalType": "uint24",
              "name": "memberLimit",
              "type": "uint24"
            }
          ],
          "internalType": "struct IRoleManagement.RoleUpdateMemberLimitRequest[]",
          "name": "requests",
          "type": "tuple[]"
        }
      ],
      "name": "roleUpdateMemberLimit",
      "outputs": [
        {
          "internalType": "bool",
          "name": "",
          "type": "bool"
        }
      ],
      "stateMutability": "nonpayable",
      "type": "function"
    },
    {
      "inputs": [
        {
          "components": [
            {
              "internalType": "address",
              "name": "account",
              "type": "address"
            },
            {
              "internalType": "uint64",
              "name": "expiredAt",
              "type": "uint64"
            },
            {
              "internalType": "bytes",
              "name": "signature",
              "type": "bytes"
            }
          ],
          "internalType": "struct IACLCommons.MemberSignature",
          "name": "memberSign",
          "type": "tuple"
        },
        {
          "components": [
            {
              "internalType": "bytes32",
              "name": "id",
              "type": "bytes32"
            },
            {
              "internalType": "bytes32",
              "name": "scopeId",
              "type": "bytes32"
            }
          ],
          "internalType": "struct IACLCommons.UpdateScopeRequest[]",
          "name": "requests",
          "type": "tuple[]"
        }
      ],
      "name": "roleUpdateScope",
      "outputs": [
        {
          "internalType": "bool",
          "name": "",
          "type": "bool"
        }
      ],
      "stateMutability": "nonpayable",
      "type": "function"
    },
    {
      "inputs": [],
      "name": "safeModeStatus",
      "outputs": [
        {
          "internalType": "enum IBaseProxy.ProxySafeModeStatus",
          "name": "",
          "type": "uint8"
        }
      ],
      "stateMutability": "view",
      "type": "function"
    },
    {
      "inputs": [
        {
          "internalType": "address",
          "name": "acl",
          "type": "address"
        }
      ],
      "name": "setAccessControlManager",
      "outputs": [
        {
          "internalType": "bool",
          "name": "",
          "type": "bool"
        }
      ],
      "stateMutability": "nonpayable",
      "type": "function"
    },
    {
      "inputs": [
        {
          "internalType": "address",
          "name": "newLocalAdmin",
          "type": "address"
        }
      ],
      "name": "setLocalAdmin",
      "outputs": [
        {
          "internalType": "bool",
          "name": "",
          "type": "bool"
        }
      ],
      "stateMutability": "nonpayable",
      "type": "function"
    },
    {
      "inputs": [
        {
          "internalType": "enum IBaseProxy.ProxySafeModeStatus",
          "name": "sstat",
          "type": "uint8"
        }
      ],
      "name": "setSafeModeStatus",
      "outputs": [
        {
          "internalType": "bool",
          "name": "",
          "type": "bool"
        }
      ],
      "stateMutability": "nonpayable",
      "type": "function"
    },
    {
      "inputs": [
        {
          "internalType": "enum IBaseProxy.ProxyUpdatabilityStatus",
          "name": "ustat",
          "type": "uint8"
        }
      ],
      "name": "setUpdatabilityStatus",
      "outputs": [
        {
          "internalType": "bool",
          "name": "",
          "type": "bool"
        }
      ],
      "stateMutability": "nonpayable",
      "type": "function"
    },
    {
      "inputs": [],
      "name": "subjectAddress",
      "outputs": [
        {
          "internalType": "address",
          "name": "",
          "type": "address"
        }
      ],
      "stateMutability": "view",
      "type": "function"
    },
    {
      "inputs": [
        {
          "internalType": "bytes4",
          "name": "interfaceId",
          "type": "bytes4"
        }
      ],
      "name": "supportsInterface",
      "outputs": [
        {
          "internalType": "bool",
          "name": "",
          "type": "bool"
        }
      ],
      "stateMutability": "view",
      "type": "function"
    },
    {
      "inputs": [],
      "name": "updatabilityStatus",
      "outputs": [
        {
          "internalType": "enum IBaseProxy.ProxyUpdatabilityStatus",
          "name": "",
          "type": "uint8"
        }
      ],
      "stateMutability": "view",
      "type": "function"
    },
    {
      "inputs": [
        {
          "internalType": "address",
          "name": "newImplementation",
          "type": "address"
        },
        {
          "internalType": "bytes",
          "name": "data",
          "type": "bytes"
        },
        {
          "internalType": "bool",
          "name": "forceCall",
          "type": "bool"
        }
      ],
      "name": "upgradeTo",
      "outputs": [
        {
          "internalType": "bytes",
          "name": "",
          "type": "bytes"
        }
      ],
      "stateMutability": "nonpayable",
      "type": "function"
    },
    {
      "inputs": [
        {
          "internalType": "address",
          "name": "recepient",
          "type": "address"
        }
      ],
      "name": "withdrawBalance",
      "outputs": [
        {
          "internalType": "uint256",
          "name": "",
          "type": "uint256"
        }
      ],
      "stateMutability": "nonpayable",
      "type": "function"
    },
    {
      "stateMutability": "payable",
      "type": "receive"
    }
  ],
  "transactionHash": "0xaace40aafe9fc92ecc01ee3030999f6f80fefe1fcfcbd81a7064e6821761ff87",
  "args": [],
  "numDeployments": 1,
  "solcInputHash": "bf3d37f12163392c6a812b5af749abec",
  "bytecode": "0x60a0604052306080523480156200001557600080fd5b506200004360017f360894a13ba1a3210667c828492db98dca3e2076cc3735a920a3ca505d382bbd620000fd565b7f360894a13ba1a3210667c828492db98dca3e2076cc3735a920a3ca505d382bbc1462000074576200007462000125565b620000a160017fb53127684a568b3173ae13b9f8a6016e243e63b6e8ee1178d6a717850b5d6104620000fd565b60008051602062005f7f83398151915214620000c157620000c162000125565b60008051602062005f7f83398151915280546001600160a01b0319163317905560028054600160a01b61ffff60a01b199091161790556200013b565b818103818111156200011f57634e487b7160e01b600052601160045260246000fd5b92915050565b634e487b7160e01b600052600160045260246000fd5b608051615dd4620001ab6000396000818161081b0152818161086401528181610a5301528181610a9301528181611177015281816111dd0152818161121d01528181611e1c01528181611e5c0152818161311601528181613156015281816132ca015261330a0152615dd46000f3fe6080604052600436106102275760003560e01c80639b97b53411610122578063d9dc1f19116100a5578063f4ea50861161006c578063f4ea508614610759578063f698da2514610779578063f708ceb01461078e578063f94a0adb146107ae578063fcc40178146107c357005b8063d9dc1f19146106a5578063e50216a5146106c5578063e996e7e6146106e5578063eab5f0f014610705578063f0b15def1461072557005b8063bb583314116100e9578063bb583314146105f8578063c284a6aa14610618578063c3cb898e14610645578063c518af2c14610665578063d8c3de511461068557005b80639b97b53414610552578063a0a8e46014610586578063a304e3531461059b578063a308562f146105ba578063b4a0bdf3146105da57005b80634888f482116101aa5780637147855d116101715780637147855d146104a9578063756af45f146104d657806375d0c0dc146104f65780637678922e1461050b57806395c88d9d1461053257005b80634888f482146103d75780634bf0414d146103ff57806352d1902d1461043357806358dbc45d1461044857806364d4c8191461047557005b80632cc70fdb116101ee5780632cc70fdb14610307578063301c12801461032757806334109de21461035b57806338d38c971461038f5780634173f118146103b757005b806301ffc9a714610230578063077f224a146102655780630e32cb86146102855780631125f679146102a55780631b452f4b146102c557005b3661022e57005b005b34801561023c57600080fd5b5061025061024b366004615006565b6107e3565b60405190151581526020015b60405180910390f35b34801561027157600080fd5b5061022e610280366004615088565b610811565b34801561029157600080fd5b506102506102a0366004615108565b610a47565b3480156102b157600080fd5b506102506102c036600461517f565b610d55565b3480156102d157600080fd5b506102f97f7bfb2abd6084c8ce20d7ff92c1620e7e7267603f0eac446b9176959d243306bc81565b60405190815260200161025c565b34801561031357600080fd5b506102506103223660046151e7565b610f1b565b34801561033357600080fd5b506102f97f541cf898e7c3085cbc6b7402ba06e7237285bc4bd5baa510e708e35537a71ffd81565b34801561036757600080fd5b506102f97f7aabe2571874f2a330ea11c8972d9cc3792d973efc6b36e3e29005861a34418881565b34801561039b57600080fd5b506103a4610f7e565b60405161ffff909116815260200161025c565b3480156103c357600080fd5b506102506103d236600461517f565b610f92565b3480156103e357600080fd5b50600254600160a81b900460ff165b60405161025c919061524e565b34801561040b57600080fd5b506102f97f9027b951cbdf8eff67da583391d218a57a89ec1ebfcb1c66da188e8531804d5581565b34801561043f57600080fd5b506102f961116a565b34801561045457600080fd5b5061045d6111c7565b6040516001600160a01b03909116815260200161025c565b34801561048157600080fd5b506102f97f8b73c3c69bb8fe3d512ecc4cf759cc79239f7b179b0ffacaa9a75d522b39400f81565b3480156104b557600080fd5b506104c96104c4366004615290565b6111d1565b60405161025c91906153b1565b3480156104e257600080fd5b506102f96104f1366004615108565b611330565b34801561050257600080fd5b506104c96113f5565b34801561051757600080fd5b50738B3b4D799e8e2a26356C9e07Ad65857Fa02c371B61045d565b34801561053e57600080fd5b5061025061054d366004615408565b611487565b34801561055e57600080fd5b506102f97fdee69d384475c3656c17c592e94a2bbfd2a1998cce0c85f535569415a15863b881565b34801561059257600080fd5b506104c96116c3565b3480156105a757600080fd5b50600254600160a01b900460ff166103f2565b3480156105c657600080fd5b506102506105d5366004615463565b6116d2565b3480156105e657600080fd5b506002546001600160a01b031661045d565b34801561060457600080fd5b50610250610613366004615463565b6116e6565b34801561062457600080fd5b5061063861063336600461548f565b6117de565b60405161025c91906154c5565b34801561065157600080fd5b5061025061066036600461517f565b611a2e565b34801561067157600080fd5b5061025061068036600461548f565b611c21565b34801561069157600080fd5b506102506106a036600461517f565b611c52565b3480156106b157600080fd5b506102506106c0366004615108565b611e10565b3480156106d157600080fd5b506102506106e0366004615408565b611fc6565b3480156106f157600080fd5b50610250610700366004615408565b6127ac565b34801561071157600080fd5b5061025061072036600461517f565b612d33565b34801561073157600080fd5b506102f97ffc434588684348dd50856b075c47bed14245c1030aa04c32955af5549981462781565b34801561076557600080fd5b50610250610774366004615408565b612e65565b34801561078557600080fd5b506102f9613100565b34801561079a57600080fd5b506102506107a9366004615583565b61310a565b3480156107ba57600080fd5b5061045d6132b4565b3480156107cf57600080fd5b506102506107de366004615583565b6132be565b60006001600160e01b031982166001620a910960e41b0319148061080b575061080b82613449565b92915050565b6001600160a01b037f00000000000000000000000000000000000000000000000000000000000000001630036108625760405162461bcd60e51b8152600401610859906155a0565b60405180910390fd5b7f00000000000000000000000000000000000000000000000000000000000000006001600160a01b0316610894613499565b6001600160a01b0316146108ba5760405162461bcd60e51b8152600401610859906155c6565b336108c36134ba565b6001600160a01b0316146109095760405162461bcd60e51b815260206004820152600d60248201526c1058d8d95cdcc811195b9a5959609a1b6044820152606401610859565b604e5462010000900460ff161580801561092b5750604e54600161ffff909116105b806109465750303b1580156109465750604e5461ffff166001145b6109925760405162461bcd60e51b815260206004820152601c60248201527f436f6e747261637420416c726561647920496e697469616c697a6564000000006044820152606401610859565b604e805461ffff1916600117905580156109b857604e805462ff00001916620100001790555b6109c586868686866134e2565b6109cd613499565b6001600160a01b031630336001600160a01b03167f247ab7b17ee489fa140c6666edc3822eefed2727610cd6e37192462b87244c6089898989610a13604e5461ffff1690565b604051610a24959493929190615615565b60405180910390a48015610a3f57604e805462ff0000191690555b505050505050565b60006001600160a01b037f0000000000000000000000000000000000000000000000000000000000000000163003610a915760405162461bcd60e51b8152600401610859906155a0565b7f00000000000000000000000000000000000000000000000000000000000000006001600160a01b0316610ac3613499565b6001600160a01b031614610ae95760405162461bcd60e51b8152600401610859906155c6565b6000600254600160a01b900460ff166001811115610b0957610b09615228565b14610b265760405162461bcd60e51b815260040161085990615653565b6001600254600160a81b900460ff166001811115610b4657610b46615228565b14610b635760405162461bcd60e51b815260040161085990615675565b6001600160a01b03821615801590610b8457506001600160a01b0382163b15155b610ba05760405162461bcd60e51b8152600401610859906156a0565b6002546001600160a01b031615610bff576000610bc363071965c360e11b6134f6565b90506000816013811115610bd957610bd9615228565b14610bf95780604051637f0911d160e01b815260040161085991906156ca565b50610c4e565b33610c086134ba565b6001600160a01b031614610c4e5760405162461bcd60e51b815260206004820152600d60248201526c1058d8d95cdcc811195b9a5959609a1b6044820152606401610859565b6040516301ffc9a760e01b81526331501c3960e01b60048201526001600160a01b038316906301ffc9a790602401602060405180830381865afa158015610c99573d6000803e3d6000fd5b505050506040513d601f19601f82011682018060405250810190610cbd91906156de565b610cf75760405162461bcd60e51b815260206004820152600b60248201526a125b1b1959d85b081050d360aa1b6044820152606401610859565b600280546001600160a01b0384166001600160a01b031990911681179091556040805191825251309133917f410bf468eebeeed60acaedb904afb2db7c0bb0131f7d14c3714d81b14fe8ed3c9181900360200190a35060015b919050565b6000808080610d6b87631125f67960e01b613581565b92509250925060005b85811015610f0b576000610dac888884818110610d9357610d936156fb565b604002919091013590508587631125f67960e01b6137e3565b60058101549091506301000000900462ffffff16888884818110610dd257610dd26156fb565b9050604002016020016020810190610dea9190615711565b62ffffff1611610e2c5760405162461bcd60e51b815260206004820152600d60248201526c125b1b1959d85b08131a5b5a5d609a1b6044820152606401610859565b878783818110610e3e57610e3e6156fb565b9050604002016020016020810190610e569190615711565b60058201805462ffffff191662ffffff92909216919091179055878783818110610e8257610e826156fb565b90506040020160000135836001600160a01b03167f6a24df219a65e624afdc2bc81d05a97d722748d9d51144a9e4c06e1ee605d6d68a8a86818110610ec957610ec96156fb565b9050604002016020016020810190610ee19190615711565b60405162ffffff909116815260200160405180910390a35080610f038161574c565b915050610d74565b50600193505050505b9392505050565b60006002604460000160008585604051602001610f39929190615765565b60408051601f198184030181529181528151602092830120835290820192909252016000206001015460ff166003811115610f7657610f76615228565b149392505050565b6000610f8d604e5461ffff1690565b905090565b6000808080610fa88763082e7e2360e31b613581565b92509250925060005b85811015610f0b576000610fe9888884818110610fd057610fd06156fb565b60400291909101359050858763082e7e2360e31b6137e3565b90506000611005826003015460446138ae90919063ffffffff16565b905061103089898581811061101c5761101c6156fb565b90506040020160200135826002015461398c565b506002820154600090815260456020526040902060018101546301000000900463ffffffff166110955760405162461bcd60e51b815260206004820152601060248201526f125b1b195859db08149959995c9c995960821b6044820152606401610859565b60018101805460001963ffffffff6301000000808404821692909201160266ffffffff000000199091161790558989858181106110d4576110d46156fb565b9050604002016020013583600201819055508989858181106110f8576110f86156fb565b905060400201602001358a8a86818110611114576111146156fb565b90506040020160000135866001600160a01b03167fef934e7e3287dee2a5967b7dbef41144a4cb5eb53e1c742d14f3f1430818a2a160405160405180910390a450505080806111629061574c565b915050610fb1565b6000306001600160a01b037f000000000000000000000000000000000000000000000000000000000000000016146111b45760405162461bcd60e51b8152600401610859906155a0565b50600080516020615d7f83398151915290565b6000610f8d613499565b60606001600160a01b037f000000000000000000000000000000000000000000000000000000000000000016300361121b5760405162461bcd60e51b8152600401610859906155a0565b7f00000000000000000000000000000000000000000000000000000000000000006001600160a01b031661124d613499565b6001600160a01b0316146112735760405162461bcd60e51b8152600401610859906155c6565b6000600254600160a01b900460ff16600181111561129357611293615228565b146112b05760405162461bcd60e51b815260040161085990615653565b6001600254600160a81b900460ff1660018111156112d0576112d0615228565b146112ed5760405162461bcd60e51b815260040161085990615675565b6001600160a01b0384163b6113145760405162461bcd60e51b8152600401610859906156a0565b61131d84613a11565b611328848484613aaf565b949350505050565b600080600254600160a01b900460ff16600181111561135157611351615228565b1461136e5760405162461bcd60e51b815260040161085990615653565b600061138063756af45f60e01b6134f6565b9050600081601381111561139657611396615228565b146113b65780604051637f0911d160e01b815260040161085991906156ca565b60405147906001600160a01b038516904780156108fc02916000818181858888f193505050501580156113ed573d6000803e3d6000fd5b509392505050565b60606000805461140490615775565b80601f016020809104026020016040519081016040528092919081815260200182805461143090615775565b801561147d5780601f106114525761010080835404028352916020019161147d565b820191906000526020600020905b81548152906001019060200180831161146057829003601f168201915b5050505050905090565b600080808061149d876395c88d9d60e01b613581565b9194509250905060006114b1604484613c67565b60038101549091506000906114d39088830b90600160b81b900460ff166157a9565b60010b121561151c5760405162461bcd60e51b8152602060048201526015602482015274125b1b1959d85b08149959da5cdd195c931a5b5a5d605a1b6044820152606401610859565b60038101805460ff600160b81b80830482168a90039091160260ff60b81b1990911617905560005b868110156116b457600080738B3b4D799e8e2a26356C9e07Ad65857Fa02c371B635bc469b260448c8c8781811061157d5761157d6156fb565b905060200281019061158f91906157cc565b60038801546040516001600160e01b031960e086901b1681526115c09392918d918d9162ffffff1690600401615849565b6040805180830381865af41580156115dc573d6000803e3d6000fd5b505050506040513d601f19601f820116820180604052508101906116009190615907565b91509150898984818110611616576116166156fb565b905060200281019061162891906157cc565b6040013582866001600160a01b03167e9ec8b9c012cac7d64f4111c0fcfc0a62ce2ba440c5900e3a93716236b810c8848e8e8981811061166a5761166a6156fb565b905060200281019061167c91906157cc565b60200135604051611697929190918252602082015260400190565b60405180910390a4505080806116ac9061574c565b915050611544565b50600198975050505050505050565b60606001805461140490615775565b6000610f14836116e184613d3d565b613d7c565b6000600260008481526044602052604090206001015460ff16600381111561171057611710615228565b1461171d5750600061080b565b6000838152604460205260408082205480835290822060010154909160ff9091169061174885613d3d565b9050600282600381111561175e5761175e615228565b036117775761176d8382613d7c565b935050505061080b565b600382600381111561178b5761178b615228565b036117d25760008061179e604486613ded565b91509150806117b55760009550505050505061080b565b50600091825260050160205260409020541515925061080b915050565b50600095945050505050565b611834604080516101408101825260008082526020820181905291810182905260608101829052608081018290529060a08201908152602001600081526020016000815260200160008152602001606081525090565b600080611842604485613e4a565b91509150806118ae57604080516101408101825260008082526020820181905291810182905260608101829052608081018290529060a0820190815260200160008152602001600081526020016000815260408051602081810190925260008152910152949350505050565b6040805161014081018252600284015481526003808501546020808401919091528554838501819052600587015462ffffff80821660608701526301000000909104166080850152600090815260449091529290922060010154909160a083019160ff169081111561192257611922615228565b8152600184015460209091019060ff16600381111561194357611943615228565b81526001840154602090910190610100900460ff16600381111561196957611969615228565b8152600184015460209091019062010000900460ff16600381111561199057611990615228565b81526020018360040180546119a490615775565b80601f01602080910402602001604051908101604052809291908181526020018280546119d090615775565b8015611a1d5780601f106119f257610100808354040283529160200191611a1d565b820191906000526020600020905b815481529060010190602001808311611a0057829003601f168201915b505050505081525092505050919050565b6000808080611a44876361e5c4c760e11b613581565b92509250925060005b85811015610f0b576000611a7d888884818110611a6c57611a6c6156fb565b604492604090910201359050613e61565b8054909150600090611a90908688613f3e565b90506000816007811115611aa657611aa6615228565b14611ab457611ab481613fca565b6000898985818110611ac857611ac86156fb565b9050604002016020016020810190611ae0919061592b565b6003811115611af157611af1615228565b03611b355760405162461bcd60e51b8152602060048201526014602482015273496c6c6567616c20416c7465726162696c69747960601b6044820152606401610859565b888884818110611b4757611b476156fb565b9050604002016020016020810190611b5f919061592b565b60018301805462ff0000191662010000836003811115611b8157611b81615228565b0217905550888884818110611b9857611b986156fb565b90506040020160000135846001600160a01b03167fdded07b5dd4ba0282da3fc15917054e180c34a1d3b1f607fc6145ef5990155118b8b87818110611bdf57611bdf6156fb565b9050604002016020016020810190611bf7919061592b565b604051611c049190615948565b60405180910390a350508080611c199061574c565b915050611a4d565b6000600260008381526044602052604090206001015460ff166003811115611c4b57611c4b615228565b1492915050565b6000808080611c688763d8c3de5160e01b613581565b92509250925060005b85811015610f0b576000611ca9888884818110611c9057611c906156fb565b60400291909101359050858763d8c3de5160e01b6137e3565b90506001888884818110611cbf57611cbf6156fb565b9050604002016020016020810190611cd7919061592b565b6003811115611ce857611ce8615228565b11611d285760405162461bcd60e51b815260206004820152601060248201526f496c6c6567616c20416374697669747960801b6044820152606401610859565b878783818110611d3a57611d3a6156fb565b9050604002016020016020810190611d52919061592b565b60018201805461ff001916610100836003811115611d7257611d72615228565b0217905550878783818110611d8957611d896156fb565b90506040020160000135836001600160a01b03167ff6f5dd690bbbd5c1f25ea86fbbdd6d7ccb536d97c1b0d6c04d741014e8c0e7ac8a8a86818110611dd057611dd06156fb565b9050604002016020016020810190611de8919061592b565b604051611df59190615948565b60405180910390a35080611e088161574c565b915050611c71565b60006001600160a01b037f0000000000000000000000000000000000000000000000000000000000000000163003611e5a5760405162461bcd60e51b8152600401610859906155a0565b7f00000000000000000000000000000000000000000000000000000000000000006001600160a01b0316611e8c613499565b6001600160a01b031614611eb25760405162461bcd60e51b8152600401610859906155c6565b6000600254600160a01b900460ff166001811115611ed257611ed2615228565b14611eef5760405162461bcd60e51b815260040161085990615653565b6001600254600160a81b900460ff166001811115611f0f57611f0f615228565b14611f2c5760405162461bcd60e51b815260040161085990615675565b6000611f3e63d9dc1f1960e01b6134f6565b90506000816013811115611f5457611f54615228565b14611f745780604051637f0911d160e01b815260040161085991906156ca565b6001600160a01b038316611fb45760405162461bcd60e51b8152602060048201526007602482015266125b9d985b1a5960ca1b6044820152606401610859565b611fbd83614161565b50600192915050565b6000808080611fdc8763e50216a560e01b613581565b92509250925060005b85811015610f0b576000612026888884818110612004576120046156fb565b90506020028101906120169190615955565b35858763e50216a560e01b6137e3565b90506000612042826003015460446138ae90919063ffffffff16565b90506002600182015462010000900460ff16600381111561206557612065615228565b10156120835760405162461bcd60e51b81526004016108599061596b565b60005b898985818110612098576120986156fb565b90506020028101906120aa9190615955565b6120b890602081019061599b565b905081101561279657600583015462ffffff808216630100000090920416106121135760405162461bcd60e51b815260206004820152600d60248201526c125b1b1959d85b08131a5b5a5d609a1b6044820152606401610859565b60006121718b8b8781811061212a5761212a6156fb565b905060200281019061213c9190615955565b61214a90602081019061599b565b8481811061215a5761215a6156fb565b905060200201356044613c6790919063ffffffff16565b905061218d8460030154826004016141d890919063ffffffff16565b156124265760008360050160008d8d898181106121ac576121ac6156fb565b90506020028101906121be9190615955565b6121cc90602081019061599b565b868181106121dc576121dc6156fb565b9050602002013581526020019081526020016000205490508b8b87818110612206576122066156fb565b90506020028101906122189190615955565b3581036122575760405162461bcd60e51b815260206004820152600d60248201526c105b1c9958591e48115e1a5cdd609a1b6044820152606401610859565b604051602001612266906159e4565b604051602081830303815290604052805190602001208c8c8881811061228e5761228e6156fb565b90506020028101906122a09190615955565b35036122fe5760058501546001630100000090910462ffffff16116122fe5760405162461bcd60e51b8152602060048201526014602482015273496c6c6567616c2041646d696e205265766f6b6560601b6044820152606401610859565b6000612313828a8c63e50216a560e01b6137e3565b60058101549091506301000000900462ffffff166123635760405162461bcd60e51b815260206004820152600d60248201526c125b1b1959d85b0810dbdd5b9d609a1b6044820152606401610859565b60058101805460001962ffffff6301000000808404821692909201160265ffffff000000199091161790558c8c888181106123a0576123a06156fb565b90506020028101906123b29190615955565b6123c090602081019061599b565b858181106123d0576123d06156fb565b9050602002013582896001600160a01b03167f14c94dff3bf4c7dc68e8668e1b01e12f10f902508869c4a9dcc54a5151e7ee1a846003015460405161241791815260200190565b60405180910390a45050612606565b6002600182015462010000900460ff16600381111561244757612447615228565b10156124655760405162461bcd60e51b815260040161085990615675565b612471816004016141f0565b6003820154600160a81b900461ffff16116124c25760405162461bcd60e51b8152602060048201526011602482015270125b1b1959d85b08151e5c19531a5b5a5d607a1b6044820152606401610859565b6040517f545950452e4c4956454c595f56455253452e4c4956454c595f4d415354455200602082015261251b90603f015b60405160208183030381529060405280519060200120826004016141d890919063ffffffff16565b8061253357506125336040516020016124f390615a1b565b80156125b457506040517f545950452e4c4956454c595f56455253452e4c4956454c595f4d4153544552006020820152603f0160405160208183030381529060405280519060200120846003015414806125b4575060405160200161259790615a1b565b604051602081830303815290604052805190602001208460030154145b156125f15760405162461bcd60e51b815260206004820152600d60248201526c125b1b1959d85b0811dc985b9d609a1b6044820152606401610859565b60038401546126049060048301906141fa565b505b8a8a86818110612618576126186156fb565b905060200281019061262a9190615955565b356005840160008d8d89818110612643576126436156fb565b90506020028101906126559190615955565b61266390602081019061599b565b86818110612673576126736156fb565b9050602002013581526020019081526020016000208190555060018460050160038282829054906101000a900462ffffff166126af9190615a53565b92506101000a81548162ffffff021916908362ffffff1602179055508a8a868181106126dd576126dd6156fb565b90506020028101906126ef9190615955565b6126fd90602081019061599b565b8381811061270d5761270d6156fb565b905060200201358b8b87818110612726576127266156fb565b90506020028101906127389190615955565b60000135876001600160a01b03167fc4aa063783de9fd4032ed6133c57b47bdc6e38f04003dd1f6590d8d0b9175579876003015460405161277b91815260200190565b60405180910390a4508061278e8161574c565b915050612086565b50505080806127a49061574c565b915050611fe5565b60008080806127c2876374cb73f360e11b613581565b92509250925060005b85811015610f0b57600061280c8888848181106127ea576127ea6156fb565b90506020028101906127fc9190615955565b3585876374cb73f360e11b6137e3565b90506000612828826003015460446138ae90919063ffffffff16565b90506002600182015462010000900460ff16600381111561284b5761284b615228565b10156128695760405162461bcd60e51b81526004016108599061596b565b60005b89898581811061287e5761287e6156fb565b90506020028101906128909190615955565b61289e90602081019061599b565b9050811015612d1d5760006128be8b8b8781811061212a5761212a6156fb565b90506002600182015462010000900460ff1660038111156128e1576128e1615228565b10156128ff5760405162461bcd60e51b815260040161085990615675565b60405160200161290e906159e4565b604051602081830303815290604052805190602001208b8b87818110612936576129366156fb565b90506020028101906129489190615955565b35036129a65760058401546001630100000090910462ffffff16116129a65760405162461bcd60e51b8152602060048201526014602482015273496c6c6567616c2041646d696e205265766f6b6560601b6044820152606401610859565b600060058401818d8d898181106129bf576129bf6156fb565b90506020028101906129d19190615955565b6129df90602081019061599b565b868181106129ef576129ef6156fb565b9050602002013581526020019081526020016000205403612a3e5760405162461bcd60e51b8152602060048201526009602482015268139bdd08119bdd5b9960ba1b6044820152606401610859565b60058401546301000000900462ffffff16612a8b5760405162461bcd60e51b815260206004820152600d60248201526c125b1b1959d85b0810dbdd5b9d609a1b6044820152606401610859565b8260050160008c8c88818110612aa357612aa36156fb565b9050602002810190612ab59190615955565b612ac390602081019061599b565b85818110612ad357612ad36156fb565b6020908102929092013583525081019190915260400160009081205560058401805460001962ffffff6301000000808404821692909201160265ffffff000000199091161790556003840154612b2d906004830190614206565b50612b3a816004016141f0565b600003612c5257600080825560018201805462ffffff191690556002820180546001600160a01b03191690556003820180546001600160f01b031916905560048201908181612b898282614f99565b505050508a8a86818110612b9f57612b9f6156fb565b9050602002810190612bb19190615955565b358b8b87818110612bc457612bc46156fb565b9050602002810190612bd69190615955565b612be490602081019061599b565b84818110612bf457612bf46156fb565b60038801546002860154604080519283526001600160a01b039182166020848101919091529093029490940135938b1692507faa6b22274640f6f991173720381f701a8e18568be766d534b2e8a51c0b459e40910160405180910390a45b8a8a86818110612c6457612c646156fb565b9050602002810190612c769190615955565b612c8490602081019061599b565b83818110612c9457612c946156fb565b905060200201358b8b87818110612cad57612cad6156fb565b9050602002810190612cbf9190615955565b60000135876001600160a01b03167f14c94dff3bf4c7dc68e8668e1b01e12f10f902508869c4a9dcc54a5151e7ee1a8760030154604051612d0291815260200190565b60405180910390a45080612d158161574c565b91505061286c565b5050508080612d2b9061574c565b9150506127cb565b6000808080612d4987630eab5f0f60e41b613581565b92509250925060005b85811015610f0b576000612d8a888884818110612d7157612d716156fb565b604002919091013590508587630eab5f0f60e41b6137e3565b600281015460008181526045602090815260408083206001015460038601548452604490925290912054929350612de29260ff909116918b8b87818110612dd357612dd36156fb565b90506040020160200135614212565b8155878783818110612df657612df66156fb565b90506040020160200135888884818110612e1257612e126156fb565b90506040020160000135846001600160a01b03167fc8cadac22bc9f8c5351dd76cb6769ae1dde2c9c431edb8f44732048d7a9be4ba60405160405180910390a45080612e5d8161574c565b915050612d52565b6000808080612e7b87637a75284360e11b613581565b92509250925060005b85811015610f0b576000612eba888884818110612ea357612ea36156fb565b905060200201356044613e6190919063ffffffff16565b8054909150600090612ecd908688613f3e565b90506000816007811115612ee357612ee3615228565b14612ef157612ef181613fca565b60058201546301000000900462ffffff1615612f405760405162461bcd60e51b815260206004820152600e60248201526d496c6c6567616c2052656d6f766560901b6044820152606401610859565b6000612f5a836003015460446138ae90919063ffffffff16565b90506002600182015462010000900460ff166003811115612f7d57612f7d615228565b1015612f9b5760405162461bcd60e51b81526004016108599061596b565b612fc98a8a86818110612fb057612fb06156fb565b905060200201358260060161420690919063ffffffff16565b506002830154600090815260456020526040902060018101546301000000900463ffffffff1661302e5760405162461bcd60e51b815260206004820152601060248201526f125b1b195859db08149959995c9c995960821b6044820152606401610859565b60018101805460001963ffffffff6301000000808404821692909201160266ffffffff00000019909116179055613069600485016000614fb7565b60058401805465ffffffffffff1916905560006003850181905560028501819055845560018401805462ffffff191690558a8a868181106130ac576130ac6156fb565b90506020020135866001600160a01b03167f47808f9766351846ab3f47ddfd0cfc00fd1a4831674f2c872826932b0184d0be60405160405180910390a35050505080806130f89061574c565b915050612e84565b6000610f8d61429f565b60006001600160a01b037f00000000000000000000000000000000000000000000000000000000000000001630036131545760405162461bcd60e51b8152600401610859906155a0565b7f00000000000000000000000000000000000000000000000000000000000000006001600160a01b0316613186613499565b6001600160a01b0316146131ac5760405162461bcd60e51b8152600401610859906155c6565b60006131bb604e5461ffff1690565b61ffff16116131f75760405162461bcd60e51b81526020600482015260086024820152671393d5081253925560c21b6044820152606401610859565b6000613209630f708ceb60e41b6134f6565b9050600081601381111561321f5761321f615228565b1461323f5780604051637f0911d160e01b815260040161085991906156ca565b6002805484919060ff60a01b1916600160a01b83600181111561326457613264615228565b021790555030336001600160a01b03167fc08ec585c25f1907baaab6f278c5994531a2e34c59935b3fcfe813067a3b4878856040516132a3919061524e565b60405180910390a350600192915050565b6000610f8d6134ba565b60006001600160a01b037f00000000000000000000000000000000000000000000000000000000000000001630036133085760405162461bcd60e51b8152600401610859906155a0565b7f00000000000000000000000000000000000000000000000000000000000000006001600160a01b031661333a613499565b6001600160a01b0316146133605760405162461bcd60e51b8152600401610859906155c6565b6000600254600160a01b900460ff16600181111561338057613380615228565b1461339d5760405162461bcd60e51b815260040161085990615653565b60006133af631f98802f60e31b6134f6565b905060008160138111156133c5576133c5615228565b146133e55780604051637f0911d160e01b815260040161085991906156ca565b6002805484919060ff60a81b1916600160a81b83600181111561340a5761340a615228565b021790555030336001600160a01b03167ff5912c5e436152157ed2b4a84bc313b4b1fe09a15b941f195d23c99a1b8c45ad856040516132a3919061524e565b60006001600160e01b03198216633d817cff60e01b148061347a57506001600160e01b031982166352d1902d60e01b145b8061080b57506301ffc9a760e01b6001600160e01b031983161461080b565b6000600080516020615d7f8339815191525b546001600160a01b0316919050565b60007fb53127684a568b3173ae13b9f8a6016e243e63b6e8ee1178d6a717850b5d61036134ab565b6134ef8585858585614353565b5050505050565b6002546040805163172cb29d60e11b81523060048201526001600160e01b03198416602482015233604482015290516000926001600160a01b031691632e59653a916064808301926020929190829003018187875af115801561355d573d6000803e3d6000fd5b505050506040513d601f19601f8201168201806040525081019061080b9190615a6f565b6000808080306001600160a01b031663a304e3536040518163ffffffff1660e01b8152600401602060405180830381865afa1580156135c4573d6000803e3d6000fd5b505050506040513d601f19601f820116820180604052508101906135e89190615a90565b60018111156135f9576135f9615228565b146136165760405162461bcd60e51b815260040161085990615653565b6000806136266040880188615aad565b905011156136ba574261363f6040880160208901615af3565b6001600160401b0316116136895760405162461bcd60e51b815260206004820152601160248201527045787069726564205369676e617475726560781b6044820152606401610859565b6136b3867fdee69d384475c3656c17c592e94a2bbfd2a1998cce0c85f535569415a15863b861451c565b90506136bd565b50335b6001600160e01b031985166000908152604a60205260408120546001600160a01b0316906136eb82886145d4565b905060006136f884613d3d565b604051634902a91960e11b8152600481018490526024810182905290915060009030906392055232906044016020604051808303816000875af1158015613743573d6000803e3d6000fd5b505050506040513d601f19601f820116820180604052508101906137679190615a6f565b9050600081601381111561377d5761377d615228565b146137d157600d81601381111561379657613796615228565b1480156137b357506001600160e01b0319891663d8c3de5160e01b145b156137c8575090955093509091506137dc9050565b6137d181614625565b509095509350909150505b9250925092565b6000806137f1604487613e61565b90506002600182015462010000900460ff16600381111561381457613814615228565b10156138325760405162461bcd60e51b815260040161085990615675565b8054600090613842908787613f3e565b9050600081600781111561385857613858615228565b146138a457600681600781111561387157613871615228565b14801561388e57506001600160e01b0319841663d8c3de5160e01b145b1561389b57509050611328565b6138a481613fca565b5095945050505050565b60008181526020839052604081206003600182015460ff1660038111156138d7576138d7615228565b036138f2576040805184815260208101869052209150613985565b6000600182015460ff16600381111561390d5761390d615228565b0361394a5760405162461bcd60e51b815260206004820152600d60248201526c15125108139bdd08119bdd5b99609a1b6044820152606401610859565b60405162461bcd60e51b815260206004820152601060248201526f125b1b1959d85b081512510814db1bdd60821b6044820152606401610859565b5092915050565b60405163b8ec206760e01b8152604460048201819052602482018490528101829052600090738B3b4D799e8e2a26356C9e07Ad65857Fa02c371B9063b8ec206790606401602060405180830381865af41580156139ed573d6000803e3d6000fd5b505050506040513d601f19601f82011682018060405250810190610f149190615b1c565b613a19613499565b6001600160a01b0316816001600160a01b031603613a635760405162461bcd60e51b8152602060048201526007602482015266125b1b1959d85b60ca1b6044820152606401610859565b6000613a75637147855d60e01b6134f6565b90506000816013811115613a8b57613a8b615228565b14613aab5780604051637f0911d160e01b815260040161085991906156ca565b5050565b60607f4910fdfa16fed3260ed0e7147f7cc6da11a60208b5b9406d12a635614ffd91435460ff1615613af957613ae4846149da565b50604080516000815260208101909152610f14565b600080516020615d7f83398151915260001b846001600160a01b03166352d1902d6040518163ffffffff1660e01b8152600401602060405180830381865afa158015613b49573d6000803e3d6000fd5b505050506040513d601f19601f82011682018060405250810190613b6d9190615b3d565b14613ba95760405162461bcd60e51b815260206004820152600c60248201526b496c6c6567616c205555505360a01b6044820152606401610859565b6040516301ffc9a760e01b8152633d817cff60e01b60048201526001600160a01b038516906301ffc9a790602401602060405180830381865afa158015613bf4573d6000803e3d6000fd5b505050506040513d601f19601f82011682018060405250810190613c1891906156de565b613c555760405162461bcd60e51b815260206004820152600e60248201526d496c6c6567616c204950726f787960901b6044820152606401610859565b613c60848484614a09565b9050610f14565b600081815260208390526040812060018082015460ff166003811115613c8f57613c8f615228565b03613caa576040805184815260208101869052209150613985565b6000600182015460ff166003811115613cc557613cc5615228565b03613d025760405162461bcd60e51b815260206004820152600d60248201526c13525108139bdd08119bdd5b99609a1b6044820152606401610859565b60405162461bcd60e51b815260206004820152601060248201526f125b1b1959d85b081352510814db1bdd60821b6044820152606401610859565b6040516bffffffffffffffffffffffff19606083901b166020820152600090603401604051602081830303815290604052805190602001209050919050565b60008080613d8b604486613e4a565b9150915080613d9f5760009250505061080b565b600080613dba84600301546044613ded90919063ffffffff16565b9150915080613dd057600094505050505061080b565b506000948552600501602052505060409091205491909114919050565b6000818152602083905260408120819060035b600182015460ff166003811115613e1957613e19615228565b03613e3857604080518581526020810187905220925060019150613e42565b6000199250600091505b509250929050565b600081815260208390526040812081906002613e00565b60008181526020839052604081206002600182015460ff166003811115613e8a57613e8a615228565b03613ea5576040805184815260208101869052209150613985565b6000600182015460ff166003811115613ec057613ec0615228565b03613f005760405162461bcd60e51b815260206004820152601060248201526f149bdb19525908139bdd08119bdd5b9960821b6044820152606401610859565b60405162461bcd60e51b8152602060048201526013602482015272125b1b1959d85b08149bdb1952590814db1bdd606a1b6044820152606401610859565b60405163ca37fa8560e01b815260446004820181905260248201859052810183905260648101829052600090738B3b4D799e8e2a26356C9e07Ad65857Fa02c371B9063ca37fa8590608401602060405180830381865af4158015613fa6573d6000803e3d6000fd5b505050506040513d601f19601f820116820180604052508101906113289190615b56565b6001816007811115613fde57613fde615228565b03613ffc576040516334267bfb60e11b815260040160405180910390fd5b600281600781111561401057614010615228565b0361402e576040516343f871e760e11b815260040160405180910390fd5b600381600781111561404257614042615228565b0361406057604051639afb7c5f60e01b815260040160405180910390fd5b600481600781111561407457614074615228565b03614092576040516332314d6b60e11b815260040160405180910390fd5b60058160078111156140a6576140a6615228565b036140c457604051633123155560e01b815260040160405180910390fd5b60068160078111156140d8576140d8615228565b036140f657604051631b210af760e21b815260040160405180910390fd5b600781600781111561410a5761410a615228565b03614128576040516339f73ba360e11b815260040160405180910390fd5b60405162461bcd60e51b815260206004820152600b60248201526a2ab735b737bbb71022a92960a91b6044820152606401610859565b50565b7fb53127684a568b3173ae13b9f8a6016e243e63b6e8ee1178d6a717850b5d610380546001600160a01b0383166001600160a01b031990911681179091556040805191825251309133917f63fdbed5f2909ec44e3becc51e9d29654ce1447747914e8a6ebc019e7f640b8b9181900360200190a350565b60008181526001830160205260408120541515610f14565b600061080b825490565b6000610f148383614a6f565b6000610f148383614abe565b604051630b85104d60e41b8152600090738B3b4D799e8e2a26356C9e07Ad65857Fa02c371B9063b85104d090614255906044908990899089908990600401615b77565b602060405180830381865af4158015614272573d6000803e3d6000fd5b505050506040513d601f19601f820116820180604052508101906142969190615b3d565b95945050505050565b60007f8b73c3c69bb8fe3d512ecc4cf759cc79239f7b179b0ffacaa9a75d522b39400f60006040516020016142d49190615bb0565b6040516020818303038152906040528051906020012060016040516020016142fc9190615bb0565b60408051601f1981840301815282825280516020918201209083019490945281019190915260608101919091524660808201523060a082015260c00160405160208183030381529060405280519060200120905090565b604e5462010000900460ff166143ab5760405162461bcd60e51b815260206004820152601960248201527f436f6e7472616374204e6f7420496e697469616c697a696e67000000000000006044820152606401610859565b60006143b8858783615c71565b5060016143c6838583615c71565b506001600160a01b03811630146144ac576001600160a01b0381163b6143fe5760405162461bcd60e51b8152600401610859906156a0565b6040516301ffc9a760e01b81526331501c3960e01b60048201526001600160a01b038216906301ffc9a790602401602060405180830381865afa158015614449573d6000803e3d6000fd5b505050506040513d601f19601f8201168201806040525081019061446d91906156de565b6144a75760405162461bcd60e51b815260206004820152600b60248201526a125b1b1959d85b081050d360aa1b6044820152606401610859565b6144f8565b6144bc6331501c3960e01b6107e3565b6144f85760405162461bcd60e51b815260206004820152600d60248201526c139bdd0814dd5c1c1bdc9d1959609a1b6044820152606401610859565b600280546001600160b01b0319166001600160a01b0383161790556134ef33614161565b6000610f1461452e6040850185615aad565b8080601f0160208091040260200160405190810160405280939291908181526020018383808284376000920191909152506145cf925086915061457690506020880188615108565b6145866040890160208a01615af3565b6001600160401b0316604080516020808201959095526001600160a01b039390931683820152606080840192909252805180840390920182526080909201909152805191012090565b614bb1565b6040516bffffffffffffffffffffffff19606084901b1660208201526001600160e01b0319821660348201526000906038015b60405160208183030381529060405280519060200120905092915050565b600181601381111561463957614639615228565b03614657576040516338bb798160e21b815260040160405180910390fd5b600281601381111561466b5761466b615228565b0361468957604051634f69231960e11b815260040160405180910390fd5b600381601381111561469d5761469d615228565b036146bb57604051637e33e43360e01b815260040160405180910390fd5b60048160138111156146cf576146cf615228565b036146ed57604051630287b9e560e51b815260040160405180910390fd5b600581601381111561470157614701615228565b0361471f57604051633beb1f4d60e11b815260040160405180910390fd5b600681601381111561473357614733615228565b036147515760405163036c45ad60e51b815260040160405180910390fd5b600781601381111561476557614765615228565b036147835760405163c0af595f60e01b815260040160405180910390fd5b600881601381111561479757614797615228565b036147b55760405163249eeb8960e01b815260040160405180910390fd5b60098160138111156147c9576147c9615228565b036147e7576040516311fb41e160e21b815260040160405180910390fd5b600a8160138111156147fb576147fb615228565b0361481957604051637331e2bb60e01b815260040160405180910390fd5b600b81601381111561482d5761482d615228565b0361484b5760405163163099ab60e01b815260040160405180910390fd5b600c81601381111561485f5761485f615228565b0361487d5760405163975a86e560e01b815260040160405180910390fd5b600d81601381111561489157614891615228565b036148af57604051631140570360e21b815260040160405180910390fd5b600e8160138111156148c3576148c3615228565b036148e157604051630622823b60e31b815260040160405180910390fd5b600f8160138111156148f5576148f5615228565b0361491357604051636d30058d60e11b815260040160405180910390fd5b601081601381111561492757614927615228565b03614945576040516304acbcf160e51b815260040160405180910390fd5b601181601381111561495957614959615228565b0361497757604051636effd2d560e01b815260040160405180910390fd5b601281601381111561498b5761498b615228565b036149a857604051623f318960e21b815260040160405180910390fd5b60138160138111156149bc576149bc615228565b0361412857604051634bc7b56f60e11b815260040160405180910390fd5b600080516020615d7f83398151915280546001600160a01b0319166001600160a01b0392909216919091179055565b6060614a1484614c26565b600083511180614a215750815b15614a5457613c6084846040518060400160405280600b81526020016a10d85b1b0811985a5b195960aa1b815250614c6a565b60408051600080825260208201909252905b50949350505050565b6000818152600183016020526040812054614ab65750815460018181018455600084815260208082209093018490558454848252828601909352604090209190915561080b565b50600061080b565b60008181526001830160205260408120548015614ba7576000614ae2600183615d30565b8554909150600090614af690600190615d30565b9050818114614b5b576000866000018281548110614b1657614b166156fb565b9060005260206000200154905080876000018481548110614b3957614b396156fb565b6000918252602080832090910192909255918252600188019052604090208390555b8554869080614b6c57614b6c615d43565b60019003818190600052602060002001600090559055856001016000868152602001908152602001600020600090556001935050505061080b565b600091505061080b565b600080614bbd83614d38565b9050600080614bcc8387614da5565b90925090506000816004811115614be557614be5615228565b14614a665760405162461bcd60e51b8152602060048201526011602482015270496c6c6567616c205369676e617475726560781b6044820152606401610859565b614c2f816149da565b6040516001600160a01b03821690309033907f8ee0f2bd29c0e6a975c3cc2e47cf2e01b5f23a9a8a02e0ed6a5a070269de3d2d90600090a450565b60606001600160a01b0384163b614cc35760405162461bcd60e51b815260206004820152601860248201527f496c6c6567616c20436f6e7472616374204164647265737300000000000000006044820152606401610859565b600080856001600160a01b031685604051614cde9190615d59565b600060405180830381855af49150503d8060008114614d19576040519150601f19603f3d011682016040523d82523d6000602084013e614d1e565b606091505b5091509150614d2e828286614e13565b9695505050505050565b600061080b306001600160a01b031663f698da256040518163ffffffff1660e01b8152600401602060405180830381865afa158015614d7b573d6000803e3d6000fd5b505050506040513d601f19601f82011682018060405250810190614d9f9190615b3d565b83614e4c565b6000808251604103614ddb5760208301516040840151606085015160001a614dcf87828585614e73565b94509450505050614e0c565b8251604003614e045760208301516040840151614df9868383614f60565b935093505050614e0c565b506000905060025b9250929050565b60608315614e22575081610f14565b825115614e325782518084602001fd5b8160405162461bcd60e51b815260040161085991906153b1565b60405161190160f01b60208201526022810183905260428101829052600090606201614607565b6000807f7fffffffffffffffffffffffffffffff5d576e7357a4501ddfe92f46681b20a0831115614eaa5750600090506003614f57565b8460ff16601b14158015614ec257508460ff16601c14155b15614ed35750600090506004614f57565b6040805160008082526020820180845289905260ff881692820192909252606081018690526080810185905260019060a0016020604051602081039080840390855afa158015614f27573d6000803e3d6000fd5b5050604051601f1901519150506001600160a01b038116614f5057600060019250925050614f57565b9150600090505b94509492505050565b6000806001600160ff1b03831681614f7d60ff86901c601b615d6b565b9050614f8b87828885614e73565b935093505050935093915050565b508054600082559060005260206000209081019061415e9190614fed565b508054614fc390615775565b6000825580601f10614fd3575050565b601f01602090049060005260206000209081019061415e91905b5b808211156150025760008155600101614fee565b5090565b60006020828403121561501857600080fd5b81356001600160e01b031981168114610f1457600080fd5b60008083601f84011261504257600080fd5b5081356001600160401b0381111561505957600080fd5b602083019150836020828501011115614e0c57600080fd5b80356001600160a01b0381168114610d5057600080fd5b6000806000806000606086880312156150a057600080fd5b85356001600160401b03808211156150b757600080fd5b6150c389838a01615030565b909750955060208801359150808211156150dc57600080fd5b506150e988828901615030565b90945092506150fc905060408701615071565b90509295509295909350565b60006020828403121561511a57600080fd5b610f1482615071565b60006060828403121561513557600080fd5b50919050565b60008083601f84011261514d57600080fd5b5081356001600160401b0381111561516457600080fd5b6020830191508360208260061b8501011115614e0c57600080fd5b60008060006040848603121561519457600080fd5b83356001600160401b03808211156151ab57600080fd5b6151b787838801615123565b945060208601359150808211156151cd57600080fd5b506151da8682870161513b565b9497909650939450505050565b600080602083850312156151fa57600080fd5b82356001600160401b0381111561521057600080fd5b61521c85828601615030565b90969095509350505050565b634e487b7160e01b600052602160045260246000fd5b6002811061415e5761415e615228565b6020810161525b8361523e565b91905290565b634e487b7160e01b600052604160045260246000fd5b801515811461415e57600080fd5b8035610d5081615277565b6000806000606084860312156152a557600080fd5b6152ae84615071565b925060208401356001600160401b03808211156152ca57600080fd5b818601915086601f8301126152de57600080fd5b8135818111156152f0576152f0615261565b604051601f8201601f19908116603f0116810190838211818310171561531857615318615261565b8160405282815289602084870101111561533157600080fd5b82602086016020830137600060208483010152809650505050505061535860408501615285565b90509250925092565b60005b8381101561537c578181015183820152602001615364565b50506000910152565b6000815180845261539d816020860160208601615361565b601f01601f19169290920160200192915050565b602081526000610f146020830184615385565b60008083601f8401126153d657600080fd5b5081356001600160401b038111156153ed57600080fd5b6020830191508360208260051b8501011115614e0c57600080fd5b60008060006040848603121561541d57600080fd5b83356001600160401b038082111561543457600080fd5b61544087838801615123565b9450602086013591508082111561545657600080fd5b506151da868287016153c4565b6000806040838503121561547657600080fd5b8235915061548660208401615071565b90509250929050565b6000602082840312156154a157600080fd5b5035919050565b6004811061415e5761415e615228565b6154c1816154a8565b9052565b60208152815160208201526020820151604082015260408201516060820152600060608301516154fc608084018262ffffff169052565b50608083015162ffffff811660a08401525060a083015161552060c08401826154b8565b5060c083015161553360e08401826154b8565b5060e0830151610100615548818501836154b8565b840151905061012061555c848201836154b8565b840151610140848101529050611328610160840182615385565b6002811061415e57600080fd5b60006020828403121561559557600080fd5b8135610f1481615576565b6020808252600c908201526b125b1b1959d85b0810d85b1b60a21b604082015260600190565b6020808252600c908201526b125b9d985b1a590810d85b1b60a21b604082015260600190565b81835281816020850137506000828201602090810191909152601f909101601f19169091010190565b6060815260006156296060830187896155ec565b828103602084015261563c8186886155ec565b91505061ffff831660408301529695505050505050565b60208082526008908201526714995a9958dd195960c21b604082015260600190565b602080825260119082015270496c6c6567616c20557064617461626c6560781b604082015260600190565b60208082526010908201526f125b1b1959d85b0810dbdb9d1c9858dd60821b604082015260600190565b602081016014831061525b5761525b615228565b6000602082840312156156f057600080fd5b8151610f1481615277565b634e487b7160e01b600052603260045260246000fd5b60006020828403121561572357600080fd5b813562ffffff81168114610f1457600080fd5b634e487b7160e01b600052601160045260246000fd5b60006001820161575e5761575e615736565b5060010190565b8183823760009101908152919050565b600181811c9082168061578957607f821691505b60208210810361513557634e487b7160e01b600052602260045260246000fd5b600182810b9082900b03617fff198112617fff8213171561080b5761080b615736565b6000823560de198336030181126157e257600080fd5b9190910192915050565b6004811061415e57600080fd5b8035610d50816157ec565b6000808335601e1984360301811261581b57600080fd5b83016020810192503590506001600160401b0381111561583a57600080fd5b803603821315614e0c57600080fd5b85815260a06020820152843560a0820152602085013560c0820152604085013560e0820152600060608601358060030b80821461588557600080fd5b61010084015250615898608087016157f9565b6158a66101208401826154b8565b506158b360a087016157f9565b6158c16101408401826154b8565b506158cf60c0870187615804565b60e06101608501526158e6610180850182846155ec565b92505050846040830152836060830152614d2e608083018462ffffff169052565b6000806040838503121561591a57600080fd5b505080516020909101519092909150565b60006020828403121561593d57600080fd5b8135610f14816157ec565b6020810161525b836154a8565b60008235603e198336030181126157e257600080fd5b602080825260169082015275496c6c6567616c205479706520557064617461626c6560501b604082015260600190565b6000808335601e198436030181126159b257600080fd5b8301803591506001600160401b038211156159cc57600080fd5b6020019150600581901b3603821315614e0c57600080fd5b7f524f4c452e4c4956454c595f56455253452e4c4956454c595f4d41535445525f81526420a226a4a760d91b602082015260250190565b7f545950452e4c4956454c595f56455253452e4c4956454c595f53595354454d5f81526526a0a9aa22a960d11b602082015260260190565b62ffffff81811683821601908082111561398557613985615736565b600060208284031215615a8157600080fd5b815160148110610f1457600080fd5b600060208284031215615aa257600080fd5b8151610f1481615576565b6000808335601e19843603018112615ac457600080fd5b8301803591506001600160401b03821115615ade57600080fd5b602001915036819003821315614e0c57600080fd5b600060208284031215615b0557600080fd5b81356001600160401b0381168114610f1457600080fd5b600060208284031215615b2e57600080fd5b815160068110610f1457600080fd5b600060208284031215615b4f57600080fd5b5051919050565b600060208284031215615b6857600080fd5b815160088110610f1457600080fd5b85815260a0810160068610615b8e57615b8e615228565b8560208301528460408301528360608301528260808301529695505050505050565b6000808354615bbe81615775565b60018281168015615bd65760018114615beb57615c1a565b60ff1984168752821515830287019450615c1a565b8760005260208060002060005b85811015615c115781548a820152908401908201615bf8565b50505082870194505b50929695505050505050565b601f821115615c6c57600081815260208120601f850160051c81016020861015615c4d5750805b601f850160051c820191505b81811015610a3f57828155600101615c59565b505050565b6001600160401b03831115615c8857615c88615261565b615c9c83615c968354615775565b83615c26565b6000601f841160018114615cd05760008515615cb85750838201355b600019600387901b1c1916600186901b1783556134ef565b600083815260209020601f19861690835b82811015615d015786850135825560209485019460019092019101615ce1565b5086821015615d1e5760001960f88860031b161c19848701351681555b505060018560011b0183555050505050565b8181038181111561080b5761080b615736565b634e487b7160e01b600052603160045260246000fd5b600082516157e2818460208701615361565b8082018082111561080b5761080b61573656fe360894a13ba1a3210667c828492db98dca3e2076cc3735a920a3ca505d382bbca26469706673582212207c25ae21143d369c997c3e2a5df6c664038a9e17ba7b6b5e625e90bc1fc13b0164736f6c63430008130033b53127684a568b3173ae13b9f8a6016e243e63b6e8ee1178d6a717850b5d6103",
  "deployedBytecode": "0x6080604052600436106102275760003560e01c80639b97b53411610122578063d9dc1f19116100a5578063f4ea50861161006c578063f4ea508614610759578063f698da2514610779578063f708ceb01461078e578063f94a0adb146107ae578063fcc40178146107c357005b8063d9dc1f19146106a5578063e50216a5146106c5578063e996e7e6146106e5578063eab5f0f014610705578063f0b15def1461072557005b8063bb583314116100e9578063bb583314146105f8578063c284a6aa14610618578063c3cb898e14610645578063c518af2c14610665578063d8c3de511461068557005b80639b97b53414610552578063a0a8e46014610586578063a304e3531461059b578063a308562f146105ba578063b4a0bdf3146105da57005b80634888f482116101aa5780637147855d116101715780637147855d146104a9578063756af45f146104d657806375d0c0dc146104f65780637678922e1461050b57806395c88d9d1461053257005b80634888f482146103d75780634bf0414d146103ff57806352d1902d1461043357806358dbc45d1461044857806364d4c8191461047557005b80632cc70fdb116101ee5780632cc70fdb14610307578063301c12801461032757806334109de21461035b57806338d38c971461038f5780634173f118146103b757005b806301ffc9a714610230578063077f224a146102655780630e32cb86146102855780631125f679146102a55780631b452f4b146102c557005b3661022e57005b005b34801561023c57600080fd5b5061025061024b366004615006565b6107e3565b60405190151581526020015b60405180910390f35b34801561027157600080fd5b5061022e610280366004615088565b610811565b34801561029157600080fd5b506102506102a0366004615108565b610a47565b3480156102b157600080fd5b506102506102c036600461517f565b610d55565b3480156102d157600080fd5b506102f97f7bfb2abd6084c8ce20d7ff92c1620e7e7267603f0eac446b9176959d243306bc81565b60405190815260200161025c565b34801561031357600080fd5b506102506103223660046151e7565b610f1b565b34801561033357600080fd5b506102f97f541cf898e7c3085cbc6b7402ba06e7237285bc4bd5baa510e708e35537a71ffd81565b34801561036757600080fd5b506102f97f7aabe2571874f2a330ea11c8972d9cc3792d973efc6b36e3e29005861a34418881565b34801561039b57600080fd5b506103a4610f7e565b60405161ffff909116815260200161025c565b3480156103c357600080fd5b506102506103d236600461517f565b610f92565b3480156103e357600080fd5b50600254600160a81b900460ff165b60405161025c919061524e565b34801561040b57600080fd5b506102f97f9027b951cbdf8eff67da583391d218a57a89ec1ebfcb1c66da188e8531804d5581565b34801561043f57600080fd5b506102f961116a565b34801561045457600080fd5b5061045d6111c7565b6040516001600160a01b03909116815260200161025c565b34801561048157600080fd5b506102f97f8b73c3c69bb8fe3d512ecc4cf759cc79239f7b179b0ffacaa9a75d522b39400f81565b3480156104b557600080fd5b506104c96104c4366004615290565b6111d1565b60405161025c91906153b1565b3480156104e257600080fd5b506102f96104f1366004615108565b611330565b34801561050257600080fd5b506104c96113f5565b34801561051757600080fd5b5073__$9d3eda23eea7f40e978c314b97edd1087f$__61045d565b34801561053e57600080fd5b5061025061054d366004615408565b611487565b34801561055e57600080fd5b506102f97fdee69d384475c3656c17c592e94a2bbfd2a1998cce0c85f535569415a15863b881565b34801561059257600080fd5b506104c96116c3565b3480156105a757600080fd5b50600254600160a01b900460ff166103f2565b3480156105c657600080fd5b506102506105d5366004615463565b6116d2565b3480156105e657600080fd5b506002546001600160a01b031661045d565b34801561060457600080fd5b50610250610613366004615463565b6116e6565b34801561062457600080fd5b5061063861063336600461548f565b6117de565b60405161025c91906154c5565b34801561065157600080fd5b5061025061066036600461517f565b611a2e565b34801561067157600080fd5b5061025061068036600461548f565b611c21565b34801561069157600080fd5b506102506106a036600461517f565b611c52565b3480156106b157600080fd5b506102506106c0366004615108565b611e10565b3480156106d157600080fd5b506102506106e0366004615408565b611fc6565b3480156106f157600080fd5b50610250610700366004615408565b6127ac565b34801561071157600080fd5b5061025061072036600461517f565b612d33565b34801561073157600080fd5b506102f97ffc434588684348dd50856b075c47bed14245c1030aa04c32955af5549981462781565b34801561076557600080fd5b50610250610774366004615408565b612e65565b34801561078557600080fd5b506102f9613100565b34801561079a57600080fd5b506102506107a9366004615583565b61310a565b3480156107ba57600080fd5b5061045d6132b4565b3480156107cf57600080fd5b506102506107de366004615583565b6132be565b60006001600160e01b031982166001620a910960e41b0319148061080b575061080b82613449565b92915050565b6001600160a01b037f00000000000000000000000000000000000000000000000000000000000000001630036108625760405162461bcd60e51b8152600401610859906155a0565b60405180910390fd5b7f00000000000000000000000000000000000000000000000000000000000000006001600160a01b0316610894613499565b6001600160a01b0316146108ba5760405162461bcd60e51b8152600401610859906155c6565b336108c36134ba565b6001600160a01b0316146109095760405162461bcd60e51b815260206004820152600d60248201526c1058d8d95cdcc811195b9a5959609a1b6044820152606401610859565b604e5462010000900460ff161580801561092b5750604e54600161ffff909116105b806109465750303b1580156109465750604e5461ffff166001145b6109925760405162461bcd60e51b815260206004820152601c60248201527f436f6e747261637420416c726561647920496e697469616c697a6564000000006044820152606401610859565b604e805461ffff1916600117905580156109b857604e805462ff00001916620100001790555b6109c586868686866134e2565b6109cd613499565b6001600160a01b031630336001600160a01b03167f247ab7b17ee489fa140c6666edc3822eefed2727610cd6e37192462b87244c6089898989610a13604e5461ffff1690565b604051610a24959493929190615615565b60405180910390a48015610a3f57604e805462ff0000191690555b505050505050565b60006001600160a01b037f0000000000000000000000000000000000000000000000000000000000000000163003610a915760405162461bcd60e51b8152600401610859906155a0565b7f00000000000000000000000000000000000000000000000000000000000000006001600160a01b0316610ac3613499565b6001600160a01b031614610ae95760405162461bcd60e51b8152600401610859906155c6565b6000600254600160a01b900460ff166001811115610b0957610b09615228565b14610b265760405162461bcd60e51b815260040161085990615653565b6001600254600160a81b900460ff166001811115610b4657610b46615228565b14610b635760405162461bcd60e51b815260040161085990615675565b6001600160a01b03821615801590610b8457506001600160a01b0382163b15155b610ba05760405162461bcd60e51b8152600401610859906156a0565b6002546001600160a01b031615610bff576000610bc363071965c360e11b6134f6565b90506000816013811115610bd957610bd9615228565b14610bf95780604051637f0911d160e01b815260040161085991906156ca565b50610c4e565b33610c086134ba565b6001600160a01b031614610c4e5760405162461bcd60e51b815260206004820152600d60248201526c1058d8d95cdcc811195b9a5959609a1b6044820152606401610859565b6040516301ffc9a760e01b81526331501c3960e01b60048201526001600160a01b038316906301ffc9a790602401602060405180830381865afa158015610c99573d6000803e3d6000fd5b505050506040513d601f19601f82011682018060405250810190610cbd91906156de565b610cf75760405162461bcd60e51b815260206004820152600b60248201526a125b1b1959d85b081050d360aa1b6044820152606401610859565b600280546001600160a01b0384166001600160a01b031990911681179091556040805191825251309133917f410bf468eebeeed60acaedb904afb2db7c0bb0131f7d14c3714d81b14fe8ed3c9181900360200190a35060015b919050565b6000808080610d6b87631125f67960e01b613581565b92509250925060005b85811015610f0b576000610dac888884818110610d9357610d936156fb565b604002919091013590508587631125f67960e01b6137e3565b60058101549091506301000000900462ffffff16888884818110610dd257610dd26156fb565b9050604002016020016020810190610dea9190615711565b62ffffff1611610e2c5760405162461bcd60e51b815260206004820152600d60248201526c125b1b1959d85b08131a5b5a5d609a1b6044820152606401610859565b878783818110610e3e57610e3e6156fb565b9050604002016020016020810190610e569190615711565b60058201805462ffffff191662ffffff92909216919091179055878783818110610e8257610e826156fb565b90506040020160000135836001600160a01b03167f6a24df219a65e624afdc2bc81d05a97d722748d9d51144a9e4c06e1ee605d6d68a8a86818110610ec957610ec96156fb565b9050604002016020016020810190610ee19190615711565b60405162ffffff909116815260200160405180910390a35080610f038161574c565b915050610d74565b50600193505050505b9392505050565b60006002604460000160008585604051602001610f39929190615765565b60408051601f198184030181529181528151602092830120835290820192909252016000206001015460ff166003811115610f7657610f76615228565b149392505050565b6000610f8d604e5461ffff1690565b905090565b6000808080610fa88763082e7e2360e31b613581565b92509250925060005b85811015610f0b576000610fe9888884818110610fd057610fd06156fb565b60400291909101359050858763082e7e2360e31b6137e3565b90506000611005826003015460446138ae90919063ffffffff16565b905061103089898581811061101c5761101c6156fb565b90506040020160200135826002015461398c565b506002820154600090815260456020526040902060018101546301000000900463ffffffff166110955760405162461bcd60e51b815260206004820152601060248201526f125b1b195859db08149959995c9c995960821b6044820152606401610859565b60018101805460001963ffffffff6301000000808404821692909201160266ffffffff000000199091161790558989858181106110d4576110d46156fb565b9050604002016020013583600201819055508989858181106110f8576110f86156fb565b905060400201602001358a8a86818110611114576111146156fb565b90506040020160000135866001600160a01b03167fef934e7e3287dee2a5967b7dbef41144a4cb5eb53e1c742d14f3f1430818a2a160405160405180910390a450505080806111629061574c565b915050610fb1565b6000306001600160a01b037f000000000000000000000000000000000000000000000000000000000000000016146111b45760405162461bcd60e51b8152600401610859906155a0565b50600080516020615d7f83398151915290565b6000610f8d613499565b60606001600160a01b037f000000000000000000000000000000000000000000000000000000000000000016300361121b5760405162461bcd60e51b8152600401610859906155a0565b7f00000000000000000000000000000000000000000000000000000000000000006001600160a01b031661124d613499565b6001600160a01b0316146112735760405162461bcd60e51b8152600401610859906155c6565b6000600254600160a01b900460ff16600181111561129357611293615228565b146112b05760405162461bcd60e51b815260040161085990615653565b6001600254600160a81b900460ff1660018111156112d0576112d0615228565b146112ed5760405162461bcd60e51b815260040161085990615675565b6001600160a01b0384163b6113145760405162461bcd60e51b8152600401610859906156a0565b61131d84613a11565b611328848484613aaf565b949350505050565b600080600254600160a01b900460ff16600181111561135157611351615228565b1461136e5760405162461bcd60e51b815260040161085990615653565b600061138063756af45f60e01b6134f6565b9050600081601381111561139657611396615228565b146113b65780604051637f0911d160e01b815260040161085991906156ca565b60405147906001600160a01b038516904780156108fc02916000818181858888f193505050501580156113ed573d6000803e3d6000fd5b509392505050565b60606000805461140490615775565b80601f016020809104026020016040519081016040528092919081815260200182805461143090615775565b801561147d5780601f106114525761010080835404028352916020019161147d565b820191906000526020600020905b81548152906001019060200180831161146057829003601f168201915b5050505050905090565b600080808061149d876395c88d9d60e01b613581565b9194509250905060006114b1604484613c67565b60038101549091506000906114d39088830b90600160b81b900460ff166157a9565b60010b121561151c5760405162461bcd60e51b8152602060048201526015602482015274125b1b1959d85b08149959da5cdd195c931a5b5a5d605a1b6044820152606401610859565b60038101805460ff600160b81b80830482168a90039091160260ff60b81b1990911617905560005b868110156116b45760008073__$9d3eda23eea7f40e978c314b97edd1087f$__635bc469b260448c8c8781811061157d5761157d6156fb565b905060200281019061158f91906157cc565b60038801546040516001600160e01b031960e086901b1681526115c09392918d918d9162ffffff1690600401615849565b6040805180830381865af41580156115dc573d6000803e3d6000fd5b505050506040513d601f19601f820116820180604052508101906116009190615907565b91509150898984818110611616576116166156fb565b905060200281019061162891906157cc565b6040013582866001600160a01b03167e9ec8b9c012cac7d64f4111c0fcfc0a62ce2ba440c5900e3a93716236b810c8848e8e8981811061166a5761166a6156fb565b905060200281019061167c91906157cc565b60200135604051611697929190918252602082015260400190565b60405180910390a4505080806116ac9061574c565b915050611544565b50600198975050505050505050565b60606001805461140490615775565b6000610f14836116e184613d3d565b613d7c565b6000600260008481526044602052604090206001015460ff16600381111561171057611710615228565b1461171d5750600061080b565b6000838152604460205260408082205480835290822060010154909160ff9091169061174885613d3d565b9050600282600381111561175e5761175e615228565b036117775761176d8382613d7c565b935050505061080b565b600382600381111561178b5761178b615228565b036117d25760008061179e604486613ded565b91509150806117b55760009550505050505061080b565b50600091825260050160205260409020541515925061080b915050565b50600095945050505050565b611834604080516101408101825260008082526020820181905291810182905260608101829052608081018290529060a08201908152602001600081526020016000815260200160008152602001606081525090565b600080611842604485613e4a565b91509150806118ae57604080516101408101825260008082526020820181905291810182905260608101829052608081018290529060a0820190815260200160008152602001600081526020016000815260408051602081810190925260008152910152949350505050565b6040805161014081018252600284015481526003808501546020808401919091528554838501819052600587015462ffffff80821660608701526301000000909104166080850152600090815260449091529290922060010154909160a083019160ff169081111561192257611922615228565b8152600184015460209091019060ff16600381111561194357611943615228565b81526001840154602090910190610100900460ff16600381111561196957611969615228565b8152600184015460209091019062010000900460ff16600381111561199057611990615228565b81526020018360040180546119a490615775565b80601f01602080910402602001604051908101604052809291908181526020018280546119d090615775565b8015611a1d5780601f106119f257610100808354040283529160200191611a1d565b820191906000526020600020905b815481529060010190602001808311611a0057829003601f168201915b505050505081525092505050919050565b6000808080611a44876361e5c4c760e11b613581565b92509250925060005b85811015610f0b576000611a7d888884818110611a6c57611a6c6156fb565b604492604090910201359050613e61565b8054909150600090611a90908688613f3e565b90506000816007811115611aa657611aa6615228565b14611ab457611ab481613fca565b6000898985818110611ac857611ac86156fb565b9050604002016020016020810190611ae0919061592b565b6003811115611af157611af1615228565b03611b355760405162461bcd60e51b8152602060048201526014602482015273496c6c6567616c20416c7465726162696c69747960601b6044820152606401610859565b888884818110611b4757611b476156fb565b9050604002016020016020810190611b5f919061592b565b60018301805462ff0000191662010000836003811115611b8157611b81615228565b0217905550888884818110611b9857611b986156fb565b90506040020160000135846001600160a01b03167fdded07b5dd4ba0282da3fc15917054e180c34a1d3b1f607fc6145ef5990155118b8b87818110611bdf57611bdf6156fb565b9050604002016020016020810190611bf7919061592b565b604051611c049190615948565b60405180910390a350508080611c199061574c565b915050611a4d565b6000600260008381526044602052604090206001015460ff166003811115611c4b57611c4b615228565b1492915050565b6000808080611c688763d8c3de5160e01b613581565b92509250925060005b85811015610f0b576000611ca9888884818110611c9057611c906156fb565b60400291909101359050858763d8c3de5160e01b6137e3565b90506001888884818110611cbf57611cbf6156fb565b9050604002016020016020810190611cd7919061592b565b6003811115611ce857611ce8615228565b11611d285760405162461bcd60e51b815260206004820152601060248201526f496c6c6567616c20416374697669747960801b6044820152606401610859565b878783818110611d3a57611d3a6156fb565b9050604002016020016020810190611d52919061592b565b60018201805461ff001916610100836003811115611d7257611d72615228565b0217905550878783818110611d8957611d896156fb565b90506040020160000135836001600160a01b03167ff6f5dd690bbbd5c1f25ea86fbbdd6d7ccb536d97c1b0d6c04d741014e8c0e7ac8a8a86818110611dd057611dd06156fb565b9050604002016020016020810190611de8919061592b565b604051611df59190615948565b60405180910390a35080611e088161574c565b915050611c71565b60006001600160a01b037f0000000000000000000000000000000000000000000000000000000000000000163003611e5a5760405162461bcd60e51b8152600401610859906155a0565b7f00000000000000000000000000000000000000000000000000000000000000006001600160a01b0316611e8c613499565b6001600160a01b031614611eb25760405162461bcd60e51b8152600401610859906155c6565b6000600254600160a01b900460ff166001811115611ed257611ed2615228565b14611eef5760405162461bcd60e51b815260040161085990615653565b6001600254600160a81b900460ff166001811115611f0f57611f0f615228565b14611f2c5760405162461bcd60e51b815260040161085990615675565b6000611f3e63d9dc1f1960e01b6134f6565b90506000816013811115611f5457611f54615228565b14611f745780604051637f0911d160e01b815260040161085991906156ca565b6001600160a01b038316611fb45760405162461bcd60e51b8152602060048201526007602482015266125b9d985b1a5960ca1b6044820152606401610859565b611fbd83614161565b50600192915050565b6000808080611fdc8763e50216a560e01b613581565b92509250925060005b85811015610f0b576000612026888884818110612004576120046156fb565b90506020028101906120169190615955565b35858763e50216a560e01b6137e3565b90506000612042826003015460446138ae90919063ffffffff16565b90506002600182015462010000900460ff16600381111561206557612065615228565b10156120835760405162461bcd60e51b81526004016108599061596b565b60005b898985818110612098576120986156fb565b90506020028101906120aa9190615955565b6120b890602081019061599b565b905081101561279657600583015462ffffff808216630100000090920416106121135760405162461bcd60e51b815260206004820152600d60248201526c125b1b1959d85b08131a5b5a5d609a1b6044820152606401610859565b60006121718b8b8781811061212a5761212a6156fb565b905060200281019061213c9190615955565b61214a90602081019061599b565b8481811061215a5761215a6156fb565b905060200201356044613c6790919063ffffffff16565b905061218d8460030154826004016141d890919063ffffffff16565b156124265760008360050160008d8d898181106121ac576121ac6156fb565b90506020028101906121be9190615955565b6121cc90602081019061599b565b868181106121dc576121dc6156fb565b9050602002013581526020019081526020016000205490508b8b87818110612206576122066156fb565b90506020028101906122189190615955565b3581036122575760405162461bcd60e51b815260206004820152600d60248201526c105b1c9958591e48115e1a5cdd609a1b6044820152606401610859565b604051602001612266906159e4565b604051602081830303815290604052805190602001208c8c8881811061228e5761228e6156fb565b90506020028101906122a09190615955565b35036122fe5760058501546001630100000090910462ffffff16116122fe5760405162461bcd60e51b8152602060048201526014602482015273496c6c6567616c2041646d696e205265766f6b6560601b6044820152606401610859565b6000612313828a8c63e50216a560e01b6137e3565b60058101549091506301000000900462ffffff166123635760405162461bcd60e51b815260206004820152600d60248201526c125b1b1959d85b0810dbdd5b9d609a1b6044820152606401610859565b60058101805460001962ffffff6301000000808404821692909201160265ffffff000000199091161790558c8c888181106123a0576123a06156fb565b90506020028101906123b29190615955565b6123c090602081019061599b565b858181106123d0576123d06156fb565b9050602002013582896001600160a01b03167f14c94dff3bf4c7dc68e8668e1b01e12f10f902508869c4a9dcc54a5151e7ee1a846003015460405161241791815260200190565b60405180910390a45050612606565b6002600182015462010000900460ff16600381111561244757612447615228565b10156124655760405162461bcd60e51b815260040161085990615675565b612471816004016141f0565b6003820154600160a81b900461ffff16116124c25760405162461bcd60e51b8152602060048201526011602482015270125b1b1959d85b08151e5c19531a5b5a5d607a1b6044820152606401610859565b6040517f545950452e4c4956454c595f56455253452e4c4956454c595f4d415354455200602082015261251b90603f015b60405160208183030381529060405280519060200120826004016141d890919063ffffffff16565b8061253357506125336040516020016124f390615a1b565b80156125b457506040517f545950452e4c4956454c595f56455253452e4c4956454c595f4d4153544552006020820152603f0160405160208183030381529060405280519060200120846003015414806125b4575060405160200161259790615a1b565b604051602081830303815290604052805190602001208460030154145b156125f15760405162461bcd60e51b815260206004820152600d60248201526c125b1b1959d85b0811dc985b9d609a1b6044820152606401610859565b60038401546126049060048301906141fa565b505b8a8a86818110612618576126186156fb565b905060200281019061262a9190615955565b356005840160008d8d89818110612643576126436156fb565b90506020028101906126559190615955565b61266390602081019061599b565b86818110612673576126736156fb565b9050602002013581526020019081526020016000208190555060018460050160038282829054906101000a900462ffffff166126af9190615a53565b92506101000a81548162ffffff021916908362ffffff1602179055508a8a868181106126dd576126dd6156fb565b90506020028101906126ef9190615955565b6126fd90602081019061599b565b8381811061270d5761270d6156fb565b905060200201358b8b87818110612726576127266156fb565b90506020028101906127389190615955565b60000135876001600160a01b03167fc4aa063783de9fd4032ed6133c57b47bdc6e38f04003dd1f6590d8d0b9175579876003015460405161277b91815260200190565b60405180910390a4508061278e8161574c565b915050612086565b50505080806127a49061574c565b915050611fe5565b60008080806127c2876374cb73f360e11b613581565b92509250925060005b85811015610f0b57600061280c8888848181106127ea576127ea6156fb565b90506020028101906127fc9190615955565b3585876374cb73f360e11b6137e3565b90506000612828826003015460446138ae90919063ffffffff16565b90506002600182015462010000900460ff16600381111561284b5761284b615228565b10156128695760405162461bcd60e51b81526004016108599061596b565b60005b89898581811061287e5761287e6156fb565b90506020028101906128909190615955565b61289e90602081019061599b565b9050811015612d1d5760006128be8b8b8781811061212a5761212a6156fb565b90506002600182015462010000900460ff1660038111156128e1576128e1615228565b10156128ff5760405162461bcd60e51b815260040161085990615675565b60405160200161290e906159e4565b604051602081830303815290604052805190602001208b8b87818110612936576129366156fb565b90506020028101906129489190615955565b35036129a65760058401546001630100000090910462ffffff16116129a65760405162461bcd60e51b8152602060048201526014602482015273496c6c6567616c2041646d696e205265766f6b6560601b6044820152606401610859565b600060058401818d8d898181106129bf576129bf6156fb565b90506020028101906129d19190615955565b6129df90602081019061599b565b868181106129ef576129ef6156fb565b9050602002013581526020019081526020016000205403612a3e5760405162461bcd60e51b8152602060048201526009602482015268139bdd08119bdd5b9960ba1b6044820152606401610859565b60058401546301000000900462ffffff16612a8b5760405162461bcd60e51b815260206004820152600d60248201526c125b1b1959d85b0810dbdd5b9d609a1b6044820152606401610859565b8260050160008c8c88818110612aa357612aa36156fb565b9050602002810190612ab59190615955565b612ac390602081019061599b565b85818110612ad357612ad36156fb565b6020908102929092013583525081019190915260400160009081205560058401805460001962ffffff6301000000808404821692909201160265ffffff000000199091161790556003840154612b2d906004830190614206565b50612b3a816004016141f0565b600003612c5257600080825560018201805462ffffff191690556002820180546001600160a01b03191690556003820180546001600160f01b031916905560048201908181612b898282614f99565b505050508a8a86818110612b9f57612b9f6156fb565b9050602002810190612bb19190615955565b358b8b87818110612bc457612bc46156fb565b9050602002810190612bd69190615955565b612be490602081019061599b565b84818110612bf457612bf46156fb565b60038801546002860154604080519283526001600160a01b039182166020848101919091529093029490940135938b1692507faa6b22274640f6f991173720381f701a8e18568be766d534b2e8a51c0b459e40910160405180910390a45b8a8a86818110612c6457612c646156fb565b9050602002810190612c769190615955565b612c8490602081019061599b565b83818110612c9457612c946156fb565b905060200201358b8b87818110612cad57612cad6156fb565b9050602002810190612cbf9190615955565b60000135876001600160a01b03167f14c94dff3bf4c7dc68e8668e1b01e12f10f902508869c4a9dcc54a5151e7ee1a8760030154604051612d0291815260200190565b60405180910390a45080612d158161574c565b91505061286c565b5050508080612d2b9061574c565b9150506127cb565b6000808080612d4987630eab5f0f60e41b613581565b92509250925060005b85811015610f0b576000612d8a888884818110612d7157612d716156fb565b604002919091013590508587630eab5f0f60e41b6137e3565b600281015460008181526045602090815260408083206001015460038601548452604490925290912054929350612de29260ff909116918b8b87818110612dd357612dd36156fb565b90506040020160200135614212565b8155878783818110612df657612df66156fb565b90506040020160200135888884818110612e1257612e126156fb565b90506040020160000135846001600160a01b03167fc8cadac22bc9f8c5351dd76cb6769ae1dde2c9c431edb8f44732048d7a9be4ba60405160405180910390a45080612e5d8161574c565b915050612d52565b6000808080612e7b87637a75284360e11b613581565b92509250925060005b85811015610f0b576000612eba888884818110612ea357612ea36156fb565b905060200201356044613e6190919063ffffffff16565b8054909150600090612ecd908688613f3e565b90506000816007811115612ee357612ee3615228565b14612ef157612ef181613fca565b60058201546301000000900462ffffff1615612f405760405162461bcd60e51b815260206004820152600e60248201526d496c6c6567616c2052656d6f766560901b6044820152606401610859565b6000612f5a836003015460446138ae90919063ffffffff16565b90506002600182015462010000900460ff166003811115612f7d57612f7d615228565b1015612f9b5760405162461bcd60e51b81526004016108599061596b565b612fc98a8a86818110612fb057612fb06156fb565b905060200201358260060161420690919063ffffffff16565b506002830154600090815260456020526040902060018101546301000000900463ffffffff1661302e5760405162461bcd60e51b815260206004820152601060248201526f125b1b195859db08149959995c9c995960821b6044820152606401610859565b60018101805460001963ffffffff6301000000808404821692909201160266ffffffff00000019909116179055613069600485016000614fb7565b60058401805465ffffffffffff1916905560006003850181905560028501819055845560018401805462ffffff191690558a8a868181106130ac576130ac6156fb565b90506020020135866001600160a01b03167f47808f9766351846ab3f47ddfd0cfc00fd1a4831674f2c872826932b0184d0be60405160405180910390a35050505080806130f89061574c565b915050612e84565b6000610f8d61429f565b60006001600160a01b037f00000000000000000000000000000000000000000000000000000000000000001630036131545760405162461bcd60e51b8152600401610859906155a0565b7f00000000000000000000000000000000000000000000000000000000000000006001600160a01b0316613186613499565b6001600160a01b0316146131ac5760405162461bcd60e51b8152600401610859906155c6565b60006131bb604e5461ffff1690565b61ffff16116131f75760405162461bcd60e51b81526020600482015260086024820152671393d5081253925560c21b6044820152606401610859565b6000613209630f708ceb60e41b6134f6565b9050600081601381111561321f5761321f615228565b1461323f5780604051637f0911d160e01b815260040161085991906156ca565b6002805484919060ff60a01b1916600160a01b83600181111561326457613264615228565b021790555030336001600160a01b03167fc08ec585c25f1907baaab6f278c5994531a2e34c59935b3fcfe813067a3b4878856040516132a3919061524e565b60405180910390a350600192915050565b6000610f8d6134ba565b60006001600160a01b037f00000000000000000000000000000000000000000000000000000000000000001630036133085760405162461bcd60e51b8152600401610859906155a0565b7f00000000000000000000000000000000000000000000000000000000000000006001600160a01b031661333a613499565b6001600160a01b0316146133605760405162461bcd60e51b8152600401610859906155c6565b6000600254600160a01b900460ff16600181111561338057613380615228565b1461339d5760405162461bcd60e51b815260040161085990615653565b60006133af631f98802f60e31b6134f6565b905060008160138111156133c5576133c5615228565b146133e55780604051637f0911d160e01b815260040161085991906156ca565b6002805484919060ff60a81b1916600160a81b83600181111561340a5761340a615228565b021790555030336001600160a01b03167ff5912c5e436152157ed2b4a84bc313b4b1fe09a15b941f195d23c99a1b8c45ad856040516132a3919061524e565b60006001600160e01b03198216633d817cff60e01b148061347a57506001600160e01b031982166352d1902d60e01b145b8061080b57506301ffc9a760e01b6001600160e01b031983161461080b565b6000600080516020615d7f8339815191525b546001600160a01b0316919050565b60007fb53127684a568b3173ae13b9f8a6016e243e63b6e8ee1178d6a717850b5d61036134ab565b6134ef8585858585614353565b5050505050565b6002546040805163172cb29d60e11b81523060048201526001600160e01b03198416602482015233604482015290516000926001600160a01b031691632e59653a916064808301926020929190829003018187875af115801561355d573d6000803e3d6000fd5b505050506040513d601f19601f8201168201806040525081019061080b9190615a6f565b6000808080306001600160a01b031663a304e3536040518163ffffffff1660e01b8152600401602060405180830381865afa1580156135c4573d6000803e3d6000fd5b505050506040513d601f19601f820116820180604052508101906135e89190615a90565b60018111156135f9576135f9615228565b146136165760405162461bcd60e51b815260040161085990615653565b6000806136266040880188615aad565b905011156136ba574261363f6040880160208901615af3565b6001600160401b0316116136895760405162461bcd60e51b815260206004820152601160248201527045787069726564205369676e617475726560781b6044820152606401610859565b6136b3867fdee69d384475c3656c17c592e94a2bbfd2a1998cce0c85f535569415a15863b861451c565b90506136bd565b50335b6001600160e01b031985166000908152604a60205260408120546001600160a01b0316906136eb82886145d4565b905060006136f884613d3d565b604051634902a91960e11b8152600481018490526024810182905290915060009030906392055232906044016020604051808303816000875af1158015613743573d6000803e3d6000fd5b505050506040513d601f19601f820116820180604052508101906137679190615a6f565b9050600081601381111561377d5761377d615228565b146137d157600d81601381111561379657613796615228565b1480156137b357506001600160e01b0319891663d8c3de5160e01b145b156137c8575090955093509091506137dc9050565b6137d181614625565b509095509350909150505b9250925092565b6000806137f1604487613e61565b90506002600182015462010000900460ff16600381111561381457613814615228565b10156138325760405162461bcd60e51b815260040161085990615675565b8054600090613842908787613f3e565b9050600081600781111561385857613858615228565b146138a457600681600781111561387157613871615228565b14801561388e57506001600160e01b0319841663d8c3de5160e01b145b1561389b57509050611328565b6138a481613fca565b5095945050505050565b60008181526020839052604081206003600182015460ff1660038111156138d7576138d7615228565b036138f2576040805184815260208101869052209150613985565b6000600182015460ff16600381111561390d5761390d615228565b0361394a5760405162461bcd60e51b815260206004820152600d60248201526c15125108139bdd08119bdd5b99609a1b6044820152606401610859565b60405162461bcd60e51b815260206004820152601060248201526f125b1b1959d85b081512510814db1bdd60821b6044820152606401610859565b5092915050565b60405163b8ec206760e01b815260446004820181905260248201849052810182905260009073__$9d3eda23eea7f40e978c314b97edd1087f$__9063b8ec206790606401602060405180830381865af41580156139ed573d6000803e3d6000fd5b505050506040513d601f19601f82011682018060405250810190610f149190615b1c565b613a19613499565b6001600160a01b0316816001600160a01b031603613a635760405162461bcd60e51b8152602060048201526007602482015266125b1b1959d85b60ca1b6044820152606401610859565b6000613a75637147855d60e01b6134f6565b90506000816013811115613a8b57613a8b615228565b14613aab5780604051637f0911d160e01b815260040161085991906156ca565b5050565b60607f4910fdfa16fed3260ed0e7147f7cc6da11a60208b5b9406d12a635614ffd91435460ff1615613af957613ae4846149da565b50604080516000815260208101909152610f14565b600080516020615d7f83398151915260001b846001600160a01b03166352d1902d6040518163ffffffff1660e01b8152600401602060405180830381865afa158015613b49573d6000803e3d6000fd5b505050506040513d601f19601f82011682018060405250810190613b6d9190615b3d565b14613ba95760405162461bcd60e51b815260206004820152600c60248201526b496c6c6567616c205555505360a01b6044820152606401610859565b6040516301ffc9a760e01b8152633d817cff60e01b60048201526001600160a01b038516906301ffc9a790602401602060405180830381865afa158015613bf4573d6000803e3d6000fd5b505050506040513d601f19601f82011682018060405250810190613c1891906156de565b613c555760405162461bcd60e51b815260206004820152600e60248201526d496c6c6567616c204950726f787960901b6044820152606401610859565b613c60848484614a09565b9050610f14565b600081815260208390526040812060018082015460ff166003811115613c8f57613c8f615228565b03613caa576040805184815260208101869052209150613985565b6000600182015460ff166003811115613cc557613cc5615228565b03613d025760405162461bcd60e51b815260206004820152600d60248201526c13525108139bdd08119bdd5b99609a1b6044820152606401610859565b60405162461bcd60e51b815260206004820152601060248201526f125b1b1959d85b081352510814db1bdd60821b6044820152606401610859565b6040516bffffffffffffffffffffffff19606083901b166020820152600090603401604051602081830303815290604052805190602001209050919050565b60008080613d8b604486613e4a565b9150915080613d9f5760009250505061080b565b600080613dba84600301546044613ded90919063ffffffff16565b9150915080613dd057600094505050505061080b565b506000948552600501602052505060409091205491909114919050565b6000818152602083905260408120819060035b600182015460ff166003811115613e1957613e19615228565b03613e3857604080518581526020810187905220925060019150613e42565b6000199250600091505b509250929050565b600081815260208390526040812081906002613e00565b60008181526020839052604081206002600182015460ff166003811115613e8a57613e8a615228565b03613ea5576040805184815260208101869052209150613985565b6000600182015460ff166003811115613ec057613ec0615228565b03613f005760405162461bcd60e51b815260206004820152601060248201526f149bdb19525908139bdd08119bdd5b9960821b6044820152606401610859565b60405162461bcd60e51b8152602060048201526013602482015272125b1b1959d85b08149bdb1952590814db1bdd606a1b6044820152606401610859565b60405163ca37fa8560e01b81526044600482018190526024820185905281018390526064810182905260009073__$9d3eda23eea7f40e978c314b97edd1087f$__9063ca37fa8590608401602060405180830381865af4158015613fa6573d6000803e3d6000fd5b505050506040513d601f19601f820116820180604052508101906113289190615b56565b6001816007811115613fde57613fde615228565b03613ffc576040516334267bfb60e11b815260040160405180910390fd5b600281600781111561401057614010615228565b0361402e576040516343f871e760e11b815260040160405180910390fd5b600381600781111561404257614042615228565b0361406057604051639afb7c5f60e01b815260040160405180910390fd5b600481600781111561407457614074615228565b03614092576040516332314d6b60e11b815260040160405180910390fd5b60058160078111156140a6576140a6615228565b036140c457604051633123155560e01b815260040160405180910390fd5b60068160078111156140d8576140d8615228565b036140f657604051631b210af760e21b815260040160405180910390fd5b600781600781111561410a5761410a615228565b03614128576040516339f73ba360e11b815260040160405180910390fd5b60405162461bcd60e51b815260206004820152600b60248201526a2ab735b737bbb71022a92960a91b6044820152606401610859565b50565b7fb53127684a568b3173ae13b9f8a6016e243e63b6e8ee1178d6a717850b5d610380546001600160a01b0383166001600160a01b031990911681179091556040805191825251309133917f63fdbed5f2909ec44e3becc51e9d29654ce1447747914e8a6ebc019e7f640b8b9181900360200190a350565b60008181526001830160205260408120541515610f14565b600061080b825490565b6000610f148383614a6f565b6000610f148383614abe565b604051630b85104d60e41b815260009073__$9d3eda23eea7f40e978c314b97edd1087f$__9063b85104d090614255906044908990899089908990600401615b77565b602060405180830381865af4158015614272573d6000803e3d6000fd5b505050506040513d601f19601f820116820180604052508101906142969190615b3d565b95945050505050565b60007f8b73c3c69bb8fe3d512ecc4cf759cc79239f7b179b0ffacaa9a75d522b39400f60006040516020016142d49190615bb0565b6040516020818303038152906040528051906020012060016040516020016142fc9190615bb0565b60408051601f1981840301815282825280516020918201209083019490945281019190915260608101919091524660808201523060a082015260c00160405160208183030381529060405280519060200120905090565b604e5462010000900460ff166143ab5760405162461bcd60e51b815260206004820152601960248201527f436f6e7472616374204e6f7420496e697469616c697a696e67000000000000006044820152606401610859565b60006143b8858783615c71565b5060016143c6838583615c71565b506001600160a01b03811630146144ac576001600160a01b0381163b6143fe5760405162461bcd60e51b8152600401610859906156a0565b6040516301ffc9a760e01b81526331501c3960e01b60048201526001600160a01b038216906301ffc9a790602401602060405180830381865afa158015614449573d6000803e3d6000fd5b505050506040513d601f19601f8201168201806040525081019061446d91906156de565b6144a75760405162461bcd60e51b815260206004820152600b60248201526a125b1b1959d85b081050d360aa1b6044820152606401610859565b6144f8565b6144bc6331501c3960e01b6107e3565b6144f85760405162461bcd60e51b815260206004820152600d60248201526c139bdd0814dd5c1c1bdc9d1959609a1b6044820152606401610859565b600280546001600160b01b0319166001600160a01b0383161790556134ef33614161565b6000610f1461452e6040850185615aad565b8080601f0160208091040260200160405190810160405280939291908181526020018383808284376000920191909152506145cf925086915061457690506020880188615108565b6145866040890160208a01615af3565b6001600160401b0316604080516020808201959095526001600160a01b039390931683820152606080840192909252805180840390920182526080909201909152805191012090565b614bb1565b6040516bffffffffffffffffffffffff19606084901b1660208201526001600160e01b0319821660348201526000906038015b60405160208183030381529060405280519060200120905092915050565b600181601381111561463957614639615228565b03614657576040516338bb798160e21b815260040160405180910390fd5b600281601381111561466b5761466b615228565b0361468957604051634f69231960e11b815260040160405180910390fd5b600381601381111561469d5761469d615228565b036146bb57604051637e33e43360e01b815260040160405180910390fd5b60048160138111156146cf576146cf615228565b036146ed57604051630287b9e560e51b815260040160405180910390fd5b600581601381111561470157614701615228565b0361471f57604051633beb1f4d60e11b815260040160405180910390fd5b600681601381111561473357614733615228565b036147515760405163036c45ad60e51b815260040160405180910390fd5b600781601381111561476557614765615228565b036147835760405163c0af595f60e01b815260040160405180910390fd5b600881601381111561479757614797615228565b036147b55760405163249eeb8960e01b815260040160405180910390fd5b60098160138111156147c9576147c9615228565b036147e7576040516311fb41e160e21b815260040160405180910390fd5b600a8160138111156147fb576147fb615228565b0361481957604051637331e2bb60e01b815260040160405180910390fd5b600b81601381111561482d5761482d615228565b0361484b5760405163163099ab60e01b815260040160405180910390fd5b600c81601381111561485f5761485f615228565b0361487d5760405163975a86e560e01b815260040160405180910390fd5b600d81601381111561489157614891615228565b036148af57604051631140570360e21b815260040160405180910390fd5b600e8160138111156148c3576148c3615228565b036148e157604051630622823b60e31b815260040160405180910390fd5b600f8160138111156148f5576148f5615228565b0361491357604051636d30058d60e11b815260040160405180910390fd5b601081601381111561492757614927615228565b03614945576040516304acbcf160e51b815260040160405180910390fd5b601181601381111561495957614959615228565b0361497757604051636effd2d560e01b815260040160405180910390fd5b601281601381111561498b5761498b615228565b036149a857604051623f318960e21b815260040160405180910390fd5b60138160138111156149bc576149bc615228565b0361412857604051634bc7b56f60e11b815260040160405180910390fd5b600080516020615d7f83398151915280546001600160a01b0319166001600160a01b0392909216919091179055565b6060614a1484614c26565b600083511180614a215750815b15614a5457613c6084846040518060400160405280600b81526020016a10d85b1b0811985a5b195960aa1b815250614c6a565b60408051600080825260208201909252905b50949350505050565b6000818152600183016020526040812054614ab65750815460018181018455600084815260208082209093018490558454848252828601909352604090209190915561080b565b50600061080b565b60008181526001830160205260408120548015614ba7576000614ae2600183615d30565b8554909150600090614af690600190615d30565b9050818114614b5b576000866000018281548110614b1657614b166156fb565b9060005260206000200154905080876000018481548110614b3957614b396156fb565b6000918252602080832090910192909255918252600188019052604090208390555b8554869080614b6c57614b6c615d43565b60019003818190600052602060002001600090559055856001016000868152602001908152602001600020600090556001935050505061080b565b600091505061080b565b600080614bbd83614d38565b9050600080614bcc8387614da5565b90925090506000816004811115614be557614be5615228565b14614a665760405162461bcd60e51b8152602060048201526011602482015270496c6c6567616c205369676e617475726560781b6044820152606401610859565b614c2f816149da565b6040516001600160a01b03821690309033907f8ee0f2bd29c0e6a975c3cc2e47cf2e01b5f23a9a8a02e0ed6a5a070269de3d2d90600090a450565b60606001600160a01b0384163b614cc35760405162461bcd60e51b815260206004820152601860248201527f496c6c6567616c20436f6e7472616374204164647265737300000000000000006044820152606401610859565b600080856001600160a01b031685604051614cde9190615d59565b600060405180830381855af49150503d8060008114614d19576040519150601f19603f3d011682016040523d82523d6000602084013e614d1e565b606091505b5091509150614d2e828286614e13565b9695505050505050565b600061080b306001600160a01b031663f698da256040518163ffffffff1660e01b8152600401602060405180830381865afa158015614d7b573d6000803e3d6000fd5b505050506040513d601f19601f82011682018060405250810190614d9f9190615b3d565b83614e4c565b6000808251604103614ddb5760208301516040840151606085015160001a614dcf87828585614e73565b94509450505050614e0c565b8251604003614e045760208301516040840151614df9868383614f60565b935093505050614e0c565b506000905060025b9250929050565b60608315614e22575081610f14565b825115614e325782518084602001fd5b8160405162461bcd60e51b815260040161085991906153b1565b60405161190160f01b60208201526022810183905260428101829052600090606201614607565b6000807f7fffffffffffffffffffffffffffffff5d576e7357a4501ddfe92f46681b20a0831115614eaa5750600090506003614f57565b8460ff16601b14158015614ec257508460ff16601c14155b15614ed35750600090506004614f57565b6040805160008082526020820180845289905260ff881692820192909252606081018690526080810185905260019060a0016020604051602081039080840390855afa158015614f27573d6000803e3d6000fd5b5050604051601f1901519150506001600160a01b038116614f5057600060019250925050614f57565b9150600090505b94509492505050565b6000806001600160ff1b03831681614f7d60ff86901c601b615d6b565b9050614f8b87828885614e73565b935093505050935093915050565b508054600082559060005260206000209081019061415e9190614fed565b508054614fc390615775565b6000825580601f10614fd3575050565b601f01602090049060005260206000209081019061415e91905b5b808211156150025760008155600101614fee565b5090565b60006020828403121561501857600080fd5b81356001600160e01b031981168114610f1457600080fd5b60008083601f84011261504257600080fd5b5081356001600160401b0381111561505957600080fd5b602083019150836020828501011115614e0c57600080fd5b80356001600160a01b0381168114610d5057600080fd5b6000806000806000606086880312156150a057600080fd5b85356001600160401b03808211156150b757600080fd5b6150c389838a01615030565b909750955060208801359150808211156150dc57600080fd5b506150e988828901615030565b90945092506150fc905060408701615071565b90509295509295909350565b60006020828403121561511a57600080fd5b610f1482615071565b60006060828403121561513557600080fd5b50919050565b60008083601f84011261514d57600080fd5b5081356001600160401b0381111561516457600080fd5b6020830191508360208260061b8501011115614e0c57600080fd5b60008060006040848603121561519457600080fd5b83356001600160401b03808211156151ab57600080fd5b6151b787838801615123565b945060208601359150808211156151cd57600080fd5b506151da8682870161513b565b9497909650939450505050565b600080602083850312156151fa57600080fd5b82356001600160401b0381111561521057600080fd5b61521c85828601615030565b90969095509350505050565b634e487b7160e01b600052602160045260246000fd5b6002811061415e5761415e615228565b6020810161525b8361523e565b91905290565b634e487b7160e01b600052604160045260246000fd5b801515811461415e57600080fd5b8035610d5081615277565b6000806000606084860312156152a557600080fd5b6152ae84615071565b925060208401356001600160401b03808211156152ca57600080fd5b818601915086601f8301126152de57600080fd5b8135818111156152f0576152f0615261565b604051601f8201601f19908116603f0116810190838211818310171561531857615318615261565b8160405282815289602084870101111561533157600080fd5b82602086016020830137600060208483010152809650505050505061535860408501615285565b90509250925092565b60005b8381101561537c578181015183820152602001615364565b50506000910152565b6000815180845261539d816020860160208601615361565b601f01601f19169290920160200192915050565b602081526000610f146020830184615385565b60008083601f8401126153d657600080fd5b5081356001600160401b038111156153ed57600080fd5b6020830191508360208260051b8501011115614e0c57600080fd5b60008060006040848603121561541d57600080fd5b83356001600160401b038082111561543457600080fd5b61544087838801615123565b9450602086013591508082111561545657600080fd5b506151da868287016153c4565b6000806040838503121561547657600080fd5b8235915061548660208401615071565b90509250929050565b6000602082840312156154a157600080fd5b5035919050565b6004811061415e5761415e615228565b6154c1816154a8565b9052565b60208152815160208201526020820151604082015260408201516060820152600060608301516154fc608084018262ffffff169052565b50608083015162ffffff811660a08401525060a083015161552060c08401826154b8565b5060c083015161553360e08401826154b8565b5060e0830151610100615548818501836154b8565b840151905061012061555c848201836154b8565b840151610140848101529050611328610160840182615385565b6002811061415e57600080fd5b60006020828403121561559557600080fd5b8135610f1481615576565b6020808252600c908201526b125b1b1959d85b0810d85b1b60a21b604082015260600190565b6020808252600c908201526b125b9d985b1a590810d85b1b60a21b604082015260600190565b81835281816020850137506000828201602090810191909152601f909101601f19169091010190565b6060815260006156296060830187896155ec565b828103602084015261563c8186886155ec565b91505061ffff831660408301529695505050505050565b60208082526008908201526714995a9958dd195960c21b604082015260600190565b602080825260119082015270496c6c6567616c20557064617461626c6560781b604082015260600190565b60208082526010908201526f125b1b1959d85b0810dbdb9d1c9858dd60821b604082015260600190565b602081016014831061525b5761525b615228565b6000602082840312156156f057600080fd5b8151610f1481615277565b634e487b7160e01b600052603260045260246000fd5b60006020828403121561572357600080fd5b813562ffffff81168114610f1457600080fd5b634e487b7160e01b600052601160045260246000fd5b60006001820161575e5761575e615736565b5060010190565b8183823760009101908152919050565b600181811c9082168061578957607f821691505b60208210810361513557634e487b7160e01b600052602260045260246000fd5b600182810b9082900b03617fff198112617fff8213171561080b5761080b615736565b6000823560de198336030181126157e257600080fd5b9190910192915050565b6004811061415e57600080fd5b8035610d50816157ec565b6000808335601e1984360301811261581b57600080fd5b83016020810192503590506001600160401b0381111561583a57600080fd5b803603821315614e0c57600080fd5b85815260a06020820152843560a0820152602085013560c0820152604085013560e0820152600060608601358060030b80821461588557600080fd5b61010084015250615898608087016157f9565b6158a66101208401826154b8565b506158b360a087016157f9565b6158c16101408401826154b8565b506158cf60c0870187615804565b60e06101608501526158e6610180850182846155ec565b92505050846040830152836060830152614d2e608083018462ffffff169052565b6000806040838503121561591a57600080fd5b505080516020909101519092909150565b60006020828403121561593d57600080fd5b8135610f14816157ec565b6020810161525b836154a8565b60008235603e198336030181126157e257600080fd5b602080825260169082015275496c6c6567616c205479706520557064617461626c6560501b604082015260600190565b6000808335601e198436030181126159b257600080fd5b8301803591506001600160401b038211156159cc57600080fd5b6020019150600581901b3603821315614e0c57600080fd5b7f524f4c452e4c4956454c595f56455253452e4c4956454c595f4d41535445525f81526420a226a4a760d91b602082015260250190565b7f545950452e4c4956454c595f56455253452e4c4956454c595f53595354454d5f81526526a0a9aa22a960d11b602082015260260190565b62ffffff81811683821601908082111561398557613985615736565b600060208284031215615a8157600080fd5b815160148110610f1457600080fd5b600060208284031215615aa257600080fd5b8151610f1481615576565b6000808335601e19843603018112615ac457600080fd5b8301803591506001600160401b03821115615ade57600080fd5b602001915036819003821315614e0c57600080fd5b600060208284031215615b0557600080fd5b81356001600160401b0381168114610f1457600080fd5b600060208284031215615b2e57600080fd5b815160068110610f1457600080fd5b600060208284031215615b4f57600080fd5b5051919050565b600060208284031215615b6857600080fd5b815160088110610f1457600080fd5b85815260a0810160068610615b8e57615b8e615228565b8560208301528460408301528360608301528260808301529695505050505050565b6000808354615bbe81615775565b60018281168015615bd65760018114615beb57615c1a565b60ff1984168752821515830287019450615c1a565b8760005260208060002060005b85811015615c115781548a820152908401908201615bf8565b50505082870194505b50929695505050505050565b601f821115615c6c57600081815260208120601f850160051c81016020861015615c4d5750805b601f850160051c820191505b81811015610a3f57828155600101615c59565b505050565b6001600160401b03831115615c8857615c88615261565b615c9c83615c968354615775565b83615c26565b6000601f841160018114615cd05760008515615cb85750838201355b600019600387901b1c1916600186901b1783556134ef565b600083815260209020601f19861690835b82811015615d015786850135825560209485019460019092019101615ce1565b5086821015615d1e5760001960f88860031b161c19848701351681555b505060018560011b0183555050505050565b8181038181111561080b5761080b615736565b634e487b7160e01b600052603160045260246000fd5b600082516157e2818460208701615361565b8082018082111561080b5761080b61573656fe360894a13ba1a3210667c828492db98dca3e2076cc3735a920a3ca505d382bbca26469706673582212207c25ae21143d369c997c3e2a5df6c664038a9e17ba7b6b5e625e90bc1fc13b0164736f6c63430008130033",
  "libraries": {
    "LACLAgentScope": "0x8B3b4D799e8e2a26356C9e07Ad65857Fa02c371B"
  },
  "devdoc": {
    "author": "Sina Tadayon, https://github.com/SinaTadayon",
    "events": {
      "Initialized(address,address,address,string,string,uint16)": {
        "details": "Triggered when the contract has been initialized or reinitialized."
      },
      "ProxyLocalAdminUpdated(address,address,address)": {
        "details": "Emitted when the admin account has changed."
      }
    },
    "kind": "dev",
    "methods": {
      "proxiableUUID()": {
        "details": "Implementation of the ERC1822 {proxiableUUID} function. This returns the storage slot used by the implementation. It is used to validate that the this implementation remains valid after an upgrade. IMPORTANT: A proxy pointing at a proxiable contract should not be considered proxiable itself, because this risks bricking a proxy that upgrades to it, by delegating to itself until out of gas. Thus it is critical that this function revert if invoked through a proxy. This is guaranteed by the `notDelegated` modifier."
      },
      "supportsInterface(bytes4)": {
        "details": "See {IERC165-supportsInterface}."
      }
    },
    "title": "ACL Role Manager Contract",
    "version": 1
  },
  "userdoc": {
    "kind": "user",
    "methods": {},
    "version": 1
  },
  "storageLayout": {
    "storage": [
      {
        "astId": 82229,
        "contract": "src/contracts/acl/agent/RoleManager.sol:RoleManager",
        "label": "_contractName",
        "offset": 0,
        "slot": "0",
        "type": "t_string_storage"
      },
      {
        "astId": 82231,
        "contract": "src/contracts/acl/agent/RoleManager.sol:RoleManager",
        "label": "_contractVersion",
        "offset": 0,
        "slot": "1",
        "type": "t_string_storage"
      },
      {
        "astId": 82233,
        "contract": "src/contracts/acl/agent/RoleManager.sol:RoleManager",
        "label": "_accessControlManager",
        "offset": 0,
        "slot": "2",
        "type": "t_address"
      },
      {
        "astId": 82236,
        "contract": "src/contracts/acl/agent/RoleManager.sol:RoleManager",
        "label": "_sstat",
        "offset": 20,
        "slot": "2",
        "type": "t_enum(ProxySafeModeStatus)82251"
      },
      {
        "astId": 82239,
        "contract": "src/contracts/acl/agent/RoleManager.sol:RoleManager",
        "label": "_ustat",
        "offset": 21,
        "slot": "2",
        "type": "t_enum(ProxyUpdatabilityStatus)82254"
      },
      {
        "astId": 82244,
        "contract": "src/contracts/acl/agent/RoleManager.sol:RoleManager",
        "label": "__reserved",
        "offset": 0,
        "slot": "3",
        "type": "t_array(t_uint256)64_storage"
      },
      {
        "astId": 10383,
        "contract": "src/contracts/acl/agent/RoleManager.sol:RoleManager",
        "label": "_firstInit",
        "offset": 0,
        "slot": "67",
        "type": "t_bool"
      },
      {
        "astId": 10386,
        "contract": "src/contracts/acl/agent/RoleManager.sol:RoleManager",
        "label": "_data",
        "offset": 0,
        "slot": "68",
        "type": "t_struct(DataCollection)10239_storage"
      },
      {
        "astId": 82432,
        "contract": "src/contracts/acl/agent/RoleManager.sol:RoleManager",
        "label": "_initialized",
        "offset": 0,
        "slot": "78",
        "type": "t_uint16"
      },
      {
        "astId": 82435,
        "contract": "src/contracts/acl/agent/RoleManager.sol:RoleManager",
        "label": "_initializing",
        "offset": 2,
        "slot": "78",
        "type": "t_bool"
      }
    ],
    "types": {
      "t_address": {
        "encoding": "inplace",
        "label": "address",
        "numberOfBytes": "20"
      },
      "t_array(t_bytes32)dyn_storage": {
        "base": "t_bytes32",
        "encoding": "dynamic_array",
        "label": "bytes32[]",
        "numberOfBytes": "32"
      },
      "t_array(t_uint256)64_storage": {
        "base": "t_uint256",
        "encoding": "inplace",
        "label": "uint256[64]",
        "numberOfBytes": "2048"
      },
      "t_bool": {
        "encoding": "inplace",
        "label": "bool",
        "numberOfBytes": "1"
      },
      "t_bytes32": {
        "encoding": "inplace",
        "label": "bytes32",
        "numberOfBytes": "32"
      },
      "t_bytes4": {
        "encoding": "inplace",
        "label": "bytes4",
        "numberOfBytes": "4"
      },
      "t_enum(ActivityStatus)11721": {
        "encoding": "inplace",
        "label": "enum IACLCommons.ActivityStatus",
        "numberOfBytes": "1"
      },
      "t_enum(AgentType)11716": {
        "encoding": "inplace",
        "label": "enum IACLCommons.AgentType",
        "numberOfBytes": "1"
      },
      "t_enum(AlterabilityStatus)11726": {
        "encoding": "inplace",
        "label": "enum IACLCommons.AlterabilityStatus",
        "numberOfBytes": "1"
      },
      "t_enum(PolicyType)11744": {
        "encoding": "inplace",
        "label": "enum IACLCommons.PolicyType",
        "numberOfBytes": "1"
      },
      "t_enum(ProxySafeModeStatus)82251": {
        "encoding": "inplace",
        "label": "enum IBaseProxy.ProxySafeModeStatus",
        "numberOfBytes": "1"
      },
      "t_enum(ProxyUpdatabilityStatus)82254": {
        "encoding": "inplace",
        "label": "enum IBaseProxy.ProxyUpdatabilityStatus",
        "numberOfBytes": "1"
      },
      "t_enum(ScopeType)11733": {
        "encoding": "inplace",
        "label": "enum IACLCommons.ScopeType",
        "numberOfBytes": "1"
      },
      "t_mapping(t_address,t_struct(FacetEntity)11945_storage)": {
        "encoding": "mapping",
        "key": "t_address",
        "label": "mapping(address => struct IACLCommons.FacetEntity)",
        "numberOfBytes": "32",
        "value": "t_struct(FacetEntity)11945_storage"
      },
      "t_mapping(t_address,t_struct(ProfileAccount)12018_storage)": {
        "encoding": "mapping",
        "key": "t_address",
        "label": "mapping(address => struct IACLCommons.ProfileAccount)",
        "numberOfBytes": "32",
        "value": "t_struct(ProfileAccount)12018_storage"
      },
      "t_mapping(t_bytes32,t_bytes32)": {
        "encoding": "mapping",
        "key": "t_bytes32",
        "label": "mapping(bytes32 => bytes32)",
        "numberOfBytes": "32",
        "value": "t_bytes32"
      },
      "t_mapping(t_bytes32,t_struct(BaseAgent)11756_storage)": {
        "encoding": "mapping",
        "key": "t_bytes32",
        "label": "mapping(bytes32 => struct IACLCommons.BaseAgent)",
        "numberOfBytes": "32",
        "value": "t_struct(BaseAgent)11756_storage"
      },
      "t_mapping(t_bytes32,t_struct(BaseScope)11770_storage)": {
        "encoding": "mapping",
        "key": "t_bytes32",
        "label": "mapping(bytes32 => struct IACLCommons.BaseScope)",
        "numberOfBytes": "32",
        "value": "t_struct(BaseScope)11770_storage"
      },
      "t_mapping(t_bytes32,t_struct(PolicyEntity)11793_storage)": {
        "encoding": "mapping",
        "key": "t_bytes32",
        "label": "mapping(bytes32 => struct IACLCommons.PolicyEntity)",
        "numberOfBytes": "32",
        "value": "t_struct(PolicyEntity)11793_storage"
      },
      "t_mapping(t_bytes32,t_struct(ProfileEntity)12059_storage)": {
        "encoding": "mapping",
        "key": "t_bytes32",
        "label": "mapping(bytes32 => struct IACLCommons.ProfileEntity)",
        "numberOfBytes": "32",
        "value": "t_struct(ProfileEntity)12059_storage"
      },
      "t_mapping(t_bytes32,t_uint256)": {
        "encoding": "mapping",
        "key": "t_bytes32",
        "label": "mapping(bytes32 => uint256)",
        "numberOfBytes": "32",
        "value": "t_uint256"
      },
      "t_mapping(t_bytes4,t_address)": {
        "encoding": "mapping",
        "key": "t_bytes4",
        "label": "mapping(bytes4 => address)",
        "numberOfBytes": "32",
        "value": "t_address"
      },
      "t_string_storage": {
        "encoding": "bytes",
        "label": "string",
        "numberOfBytes": "32"
      },
      "t_struct(AddressSet)79783_storage": {
        "encoding": "inplace",
        "label": "struct LEnumerableSet.AddressSet",
        "members": [
          {
            "astId": 79782,
            "contract": "src/contracts/acl/agent/RoleManager.sol:RoleManager",
            "label": "_inner",
            "offset": 0,
            "slot": "0",
            "type": "t_struct(Set)79482_storage"
          }
        ],
        "numberOfBytes": "64"
      },
      "t_struct(BaseAgent)11756_storage": {
        "encoding": "inplace",
        "label": "struct IACLCommons.BaseAgent",
        "members": [
          {
            "astId": 11746,
            "contract": "src/contracts/acl/agent/RoleManager.sol:RoleManager",
            "label": "adminId",
            "offset": 0,
            "slot": "0",
            "type": "t_bytes32"
          },
          {
            "astId": 11749,
            "contract": "src/contracts/acl/agent/RoleManager.sol:RoleManager",
            "label": "atype",
            "offset": 0,
            "slot": "1",
            "type": "t_enum(AgentType)11716"
          },
          {
            "astId": 11752,
            "contract": "src/contracts/acl/agent/RoleManager.sol:RoleManager",
            "label": "acstat",
            "offset": 1,
            "slot": "1",
            "type": "t_enum(ActivityStatus)11721"
          },
          {
            "astId": 11755,
            "contract": "src/contracts/acl/agent/RoleManager.sol:RoleManager",
            "label": "alstat",
            "offset": 2,
            "slot": "1",
            "type": "t_enum(AlterabilityStatus)11726"
          }
        ],
        "numberOfBytes": "64"
      },
      "t_struct(BaseScope)11770_storage": {
        "encoding": "inplace",
        "label": "struct IACLCommons.BaseScope",
        "members": [
          {
            "astId": 11758,
            "contract": "src/contracts/acl/agent/RoleManager.sol:RoleManager",
            "label": "adminId",
            "offset": 0,
            "slot": "0",
            "type": "t_bytes32"
          },
          {
            "astId": 11761,
            "contract": "src/contracts/acl/agent/RoleManager.sol:RoleManager",
            "label": "stype",
            "offset": 0,
            "slot": "1",
            "type": "t_enum(ScopeType)11733"
          },
          {
            "astId": 11764,
            "contract": "src/contracts/acl/agent/RoleManager.sol:RoleManager",
            "label": "acstat",
            "offset": 1,
            "slot": "1",
            "type": "t_enum(ActivityStatus)11721"
          },
          {
            "astId": 11767,
            "contract": "src/contracts/acl/agent/RoleManager.sol:RoleManager",
            "label": "alstat",
            "offset": 2,
            "slot": "1",
            "type": "t_enum(AlterabilityStatus)11726"
          },
          {
            "astId": 11769,
            "contract": "src/contracts/acl/agent/RoleManager.sol:RoleManager",
            "label": "referredByAgent",
            "offset": 3,
            "slot": "1",
            "type": "t_uint32"
          }
        ],
        "numberOfBytes": "64"
      },
      "t_struct(Bytes32Set)79676_storage": {
        "encoding": "inplace",
        "label": "struct LEnumerableSet.Bytes32Set",
        "members": [
          {
            "astId": 79675,
            "contract": "src/contracts/acl/agent/RoleManager.sol:RoleManager",
            "label": "_inner",
            "offset": 0,
            "slot": "0",
            "type": "t_struct(Set)79482_storage"
          }
        ],
        "numberOfBytes": "64"
      },
      "t_struct(DataCollection)10239_storage": {
        "encoding": "inplace",
        "label": "struct ACLStorage.DataCollection",
        "members": [
          {
            "astId": 10202,
            "contract": "src/contracts/acl/agent/RoleManager.sol:RoleManager",
            "label": "agents",
            "offset": 0,
            "slot": "0",
            "type": "t_mapping(t_bytes32,t_struct(BaseAgent)11756_storage)"
          },
          {
            "astId": 10207,
            "contract": "src/contracts/acl/agent/RoleManager.sol:RoleManager",
            "label": "scopes",
            "offset": 0,
            "slot": "1",
            "type": "t_mapping(t_bytes32,t_struct(BaseScope)11770_storage)"
          },
          {
            "astId": 10212,
            "contract": "src/contracts/acl/agent/RoleManager.sol:RoleManager",
            "label": "policies",
            "offset": 0,
            "slot": "2",
            "type": "t_mapping(t_bytes32,t_struct(PolicyEntity)11793_storage)"
          },
          {
            "astId": 10216,
            "contract": "src/contracts/acl/agent/RoleManager.sol:RoleManager",
            "label": "rolePolicyMap",
            "offset": 0,
            "slot": "3",
            "type": "t_mapping(t_bytes32,t_bytes32)"
          },
          {
            "astId": 10221,
            "contract": "src/contracts/acl/agent/RoleManager.sol:RoleManager",
            "label": "profiles",
            "offset": 0,
            "slot": "4",
            "type": "t_mapping(t_bytes32,t_struct(ProfileEntity)12059_storage)"
          },
          {
            "astId": 10226,
            "contract": "src/contracts/acl/agent/RoleManager.sol:RoleManager",
            "label": "profileAccounts",
            "offset": 0,
            "slot": "5",
            "type": "t_mapping(t_address,t_struct(ProfileAccount)12018_storage)"
          },
          {
            "astId": 10230,
            "contract": "src/contracts/acl/agent/RoleManager.sol:RoleManager",
            "label": "selectors",
            "offset": 0,
            "slot": "6",
            "type": "t_mapping(t_bytes4,t_address)"
          },
          {
            "astId": 10235,
            "contract": "src/contracts/acl/agent/RoleManager.sol:RoleManager",
            "label": "facets",
            "offset": 0,
            "slot": "7",
            "type": "t_mapping(t_address,t_struct(FacetEntity)11945_storage)"
          },
          {
            "astId": 10238,
            "contract": "src/contracts/acl/agent/RoleManager.sol:RoleManager",
            "label": "facetSet",
            "offset": 0,
            "slot": "8",
            "type": "t_struct(AddressSet)79783_storage"
          }
        ],
        "numberOfBytes": "320"
      },
      "t_struct(FacetEntity)11945_storage": {
        "encoding": "inplace",
        "label": "struct IACLCommons.FacetEntity",
        "members": [
          {
            "astId": 11944,
            "contract": "src/contracts/acl/agent/RoleManager.sol:RoleManager",
            "label": "subjectId",
            "offset": 0,
            "slot": "0",
            "type": "t_address"
          }
        ],
        "numberOfBytes": "32"
      },
      "t_struct(PolicyEntity)11793_storage": {
        "encoding": "inplace",
        "label": "struct IACLCommons.PolicyEntity",
        "members": [
          {
            "astId": 11772,
            "contract": "src/contracts/acl/agent/RoleManager.sol:RoleManager",
            "label": "adminId",
            "offset": 0,
            "slot": "0",
            "type": "t_bytes32"
          },
          {
            "astId": 11774,
            "contract": "src/contracts/acl/agent/RoleManager.sol:RoleManager",
            "label": "scopeId",
            "offset": 0,
            "slot": "1",
            "type": "t_bytes32"
          },
          {
            "astId": 11776,
            "contract": "src/contracts/acl/agent/RoleManager.sol:RoleManager",
            "label": "name",
            "offset": 0,
            "slot": "2",
            "type": "t_string_storage"
          },
          {
            "astId": 11778,
            "contract": "src/contracts/acl/agent/RoleManager.sol:RoleManager",
            "label": "roleLimit",
            "offset": 0,
            "slot": "3",
            "type": "t_uint16"
          },
          {
            "astId": 11780,
            "contract": "src/contracts/acl/agent/RoleManager.sol:RoleManager",
            "label": "policyCode",
            "offset": 2,
            "slot": "3",
            "type": "t_uint8"
          },
          {
            "astId": 11783,
            "contract": "src/contracts/acl/agent/RoleManager.sol:RoleManager",
            "label": "ptype",
            "offset": 3,
            "slot": "3",
            "type": "t_enum(PolicyType)11744"
          },
          {
            "astId": 11786,
            "contract": "src/contracts/acl/agent/RoleManager.sol:RoleManager",
            "label": "acstat",
            "offset": 4,
            "slot": "3",
            "type": "t_enum(ActivityStatus)11721"
          },
          {
            "astId": 11789,
            "contract": "src/contracts/acl/agent/RoleManager.sol:RoleManager",
            "label": "alstat",
            "offset": 5,
            "slot": "3",
            "type": "t_enum(AlterabilityStatus)11726"
          },
          {
            "astId": 11792,
            "contract": "src/contracts/acl/agent/RoleManager.sol:RoleManager",
            "label": "roles",
            "offset": 0,
            "slot": "4",
            "type": "t_struct(Bytes32Set)79676_storage"
          }
        ],
        "numberOfBytes": "192"
      },
      "t_struct(ProfileAccount)12018_storage": {
        "encoding": "inplace",
        "label": "struct IACLCommons.ProfileAccount",
        "members": [
          {
            "astId": 12017,
            "contract": "src/contracts/acl/agent/RoleManager.sol:RoleManager",
            "label": "profiles",
            "offset": 0,
            "slot": "0",
            "type": "t_array(t_bytes32)dyn_storage"
          }
        ],
        "numberOfBytes": "32"
      },
      "t_struct(ProfileEntity)12059_storage": {
        "encoding": "inplace",
        "label": "struct IACLCommons.ProfileEntity",
        "members": [
          {
            "astId": 12023,
            "contract": "src/contracts/acl/agent/RoleManager.sol:RoleManager",
            "label": "agents",
            "offset": 0,
            "slot": "0",
            "type": "t_mapping(t_bytes32,t_struct(BaseAgent)11756_storage)"
          },
          {
            "astId": 12028,
            "contract": "src/contracts/acl/agent/RoleManager.sol:RoleManager",
            "label": "scopes",
            "offset": 0,
            "slot": "1",
            "type": "t_mapping(t_bytes32,t_struct(BaseScope)11770_storage)"
          },
          {
            "astId": 12033,
            "contract": "src/contracts/acl/agent/RoleManager.sol:RoleManager",
            "label": "policies",
            "offset": 0,
            "slot": "2",
            "type": "t_mapping(t_bytes32,t_struct(PolicyEntity)11793_storage)"
          },
          {
            "astId": 12037,
            "contract": "src/contracts/acl/agent/RoleManager.sol:RoleManager",
            "label": "rolePolicyMap",
            "offset": 0,
            "slot": "3",
            "type": "t_mapping(t_bytes32,t_bytes32)"
          },
          {
            "astId": 12040,
            "contract": "src/contracts/acl/agent/RoleManager.sol:RoleManager",
            "label": "admins",
            "offset": 0,
            "slot": "4",
            "type": "t_struct(Bytes32Set)79676_storage"
          },
          {
            "astId": 12042,
            "contract": "src/contracts/acl/agent/RoleManager.sol:RoleManager",
            "label": "adminId",
            "offset": 0,
            "slot": "6",
            "type": "t_bytes32"
          },
          {
            "astId": 12044,
            "contract": "src/contracts/acl/agent/RoleManager.sol:RoleManager",
            "label": "name",
            "offset": 0,
            "slot": "7",
            "type": "t_string_storage"
          },
          {
            "astId": 12046,
            "contract": "src/contracts/acl/agent/RoleManager.sol:RoleManager",
            "label": "owner",
            "offset": 0,
            "slot": "8",
            "type": "t_address"
          },
          {
            "astId": 12049,
            "contract": "src/contracts/acl/agent/RoleManager.sol:RoleManager",
            "label": "acstat",
            "offset": 20,
            "slot": "8",
            "type": "t_enum(ActivityStatus)11721"
          },
          {
            "astId": 12052,
            "contract": "src/contracts/acl/agent/RoleManager.sol:RoleManager",
            "label": "alstat",
            "offset": 21,
            "slot": "8",
            "type": "t_enum(AlterabilityStatus)11726"
          },
          {
            "astId": 12055,
            "contract": "src/contracts/acl/agent/RoleManager.sol:RoleManager",
            "label": "registerLimits",
            "offset": 0,
            "slot": "9",
            "type": "t_struct(ProfileRegisterLimit)11993_storage"
          },
          {
            "astId": 12058,
            "contract": "src/contracts/acl/agent/RoleManager.sol:RoleManager",
            "label": "limits",
            "offset": 0,
            "slot": "10",
            "type": "t_struct(ProfileLimit)12014_storage"
          }
        ],
        "numberOfBytes": "352"
      },
      "t_struct(ProfileLimit)12014_storage": {
        "encoding": "inplace",
        "label": "struct IACLCommons.ProfileLimit",
        "members": [
          {
            "astId": 11995,
            "contract": "src/contracts/acl/agent/RoleManager.sol:RoleManager",
            "label": "profileCallLimit",
            "offset": 0,
            "slot": "0",
            "type": "t_uint32"
          },
          {
            "astId": 11997,
            "contract": "src/contracts/acl/agent/RoleManager.sol:RoleManager",
            "label": "contextLimit",
            "offset": 4,
            "slot": "0",
            "type": "t_uint32"
          },
          {
            "astId": 11999,
            "contract": "src/contracts/acl/agent/RoleManager.sol:RoleManager",
            "label": "memberLimit",
            "offset": 8,
            "slot": "0",
            "type": "t_uint24"
          },
          {
            "astId": 12001,
            "contract": "src/contracts/acl/agent/RoleManager.sol:RoleManager",
            "label": "realmLimit",
            "offset": 11,
            "slot": "0",
            "type": "t_uint16"
          },
          {
            "astId": 12003,
            "contract": "src/contracts/acl/agent/RoleManager.sol:RoleManager",
            "label": "domainLimit",
            "offset": 13,
            "slot": "0",
            "type": "t_uint16"
          },
          {
            "astId": 12005,
            "contract": "src/contracts/acl/agent/RoleManager.sol:RoleManager",
            "label": "memberCallLimit",
            "offset": 15,
            "slot": "0",
            "type": "t_uint16"
          },
          {
            "astId": 12007,
            "contract": "src/contracts/acl/agent/RoleManager.sol:RoleManager",
            "label": "typeRoleLimit",
            "offset": 17,
            "slot": "0",
            "type": "t_uint16"
          },
          {
            "astId": 12009,
            "contract": "src/contracts/acl/agent/RoleManager.sol:RoleManager",
            "label": "typeLimit",
            "offset": 19,
            "slot": "0",
            "type": "t_uint16"
          },
          {
            "astId": 12011,
            "contract": "src/contracts/acl/agent/RoleManager.sol:RoleManager",
            "label": "policyRoleLimit",
            "offset": 21,
            "slot": "0",
            "type": "t_uint16"
          },
          {
            "astId": 12013,
            "contract": "src/contracts/acl/agent/RoleManager.sol:RoleManager",
            "label": "functionLimit",
            "offset": 23,
            "slot": "0",
            "type": "t_uint8"
          }
        ],
        "numberOfBytes": "32"
      },
      "t_struct(ProfileRegisterLimit)11993_storage": {
        "encoding": "inplace",
        "label": "struct IACLCommons.ProfileRegisterLimit",
        "members": [
          {
            "astId": 11978,
            "contract": "src/contracts/acl/agent/RoleManager.sol:RoleManager",
            "label": "memberRegisterLimit",
            "offset": 0,
            "slot": "0",
            "type": "t_uint32"
          },
          {
            "astId": 11980,
            "contract": "src/contracts/acl/agent/RoleManager.sol:RoleManager",
            "label": "roleRegisterLimit",
            "offset": 4,
            "slot": "0",
            "type": "t_uint32"
          },
          {
            "astId": 11982,
            "contract": "src/contracts/acl/agent/RoleManager.sol:RoleManager",
            "label": "typeRegisterLimit",
            "offset": 8,
            "slot": "0",
            "type": "t_uint32"
          },
          {
            "astId": 11984,
            "contract": "src/contracts/acl/agent/RoleManager.sol:RoleManager",
            "label": "functionRegisterLimit",
            "offset": 12,
            "slot": "0",
            "type": "t_uint32"
          },
          {
            "astId": 11986,
            "contract": "src/contracts/acl/agent/RoleManager.sol:RoleManager",
            "label": "contextRegisterLimit",
            "offset": 16,
            "slot": "0",
            "type": "t_uint32"
          },
          {
            "astId": 11988,
            "contract": "src/contracts/acl/agent/RoleManager.sol:RoleManager",
            "label": "realmRegisterLimit",
            "offset": 20,
            "slot": "0",
            "type": "t_uint16"
          },
          {
            "astId": 11990,
            "contract": "src/contracts/acl/agent/RoleManager.sol:RoleManager",
            "label": "domainRegisterLimit",
            "offset": 22,
            "slot": "0",
            "type": "t_uint16"
          },
          {
            "astId": 11992,
            "contract": "src/contracts/acl/agent/RoleManager.sol:RoleManager",
            "label": "policyRegisterLimit",
            "offset": 24,
            "slot": "0",
            "type": "t_uint16"
          }
        ],
        "numberOfBytes": "32"
      },
      "t_struct(Set)79482_storage": {
        "encoding": "inplace",
        "label": "struct LEnumerableSet.Set",
        "members": [
          {
            "astId": 79477,
            "contract": "src/contracts/acl/agent/RoleManager.sol:RoleManager",
            "label": "_values",
            "offset": 0,
            "slot": "0",
            "type": "t_array(t_bytes32)dyn_storage"
          },
          {
            "astId": 79481,
            "contract": "src/contracts/acl/agent/RoleManager.sol:RoleManager",
            "label": "_indexes",
            "offset": 0,
            "slot": "1",
            "type": "t_mapping(t_bytes32,t_uint256)"
          }
        ],
        "numberOfBytes": "64"
      },
      "t_uint16": {
        "encoding": "inplace",
        "label": "uint16",
        "numberOfBytes": "2"
      },
      "t_uint24": {
        "encoding": "inplace",
        "label": "uint24",
        "numberOfBytes": "3"
      },
      "t_uint256": {
        "encoding": "inplace",
        "label": "uint256",
        "numberOfBytes": "32"
      },
      "t_uint32": {
        "encoding": "inplace",
        "label": "uint32",
        "numberOfBytes": "4"
      },
      "t_uint8": {
        "encoding": "inplace",
        "label": "uint8",
        "numberOfBytes": "1"
      }
    }
  }
}