{
  "contractName": "LTokenERC20",
  "sourceName": "src/contracts/lib/token/LTokenERC20.sol",
  "abi": [
    {
      "inputs": [],
      "name": "LIB_NAME",
      "outputs": [
        {
          "internalType": "bytes32",
          "name": "",
          "type": "bytes32"
        }
      ],
      "stateMutability": "view",
      "type": "function"
    },
    {
      "inputs": [],
      "name": "LIB_VERSION",
      "outputs": [
        {
          "internalType": "bytes32",
          "name": "",
          "type": "bytes32"
        }
      ],
      "stateMutability": "view",
      "type": "function"
    },
    {
      "inputs": [],
      "name": "LIVELY_ADMIN_ROLE",
      "outputs": [
        {
          "internalType": "bytes32",
          "name": "",
          "type": "bytes32"
        }
      ],
      "stateMutability": "view",
      "type": "function"
    },
    {
      "inputs": [],
      "name": "LIVELY_ANONYMOUS_ROLE",
      "outputs": [
        {
          "internalType": "bytes32",
          "name": "",
          "type": "bytes32"
        }
      ],
      "stateMutability": "view",
      "type": "function"
    },
    {
      "inputs": [],
      "name": "LIVELY_ASSET_MANAGER_ROLE",
      "outputs": [
        {
          "internalType": "bytes32",
          "name": "",
          "type": "bytes32"
        }
      ],
      "stateMutability": "view",
      "type": "function"
    },
    {
      "inputs": [],
      "name": "LIVELY_COMMUNITY_DAO_EXECUTOR_ROLE",
      "outputs": [
        {
          "internalType": "bytes32",
          "name": "",
          "type": "bytes32"
        }
      ],
      "stateMutability": "view",
      "type": "function"
    },
    {
      "inputs": [],
      "name": "LIVELY_SYSTEM_ADMIN_ROLE",
      "outputs": [
        {
          "internalType": "bytes32",
          "name": "",
          "type": "bytes32"
        }
      ],
      "stateMutability": "view",
      "type": "function"
    },
    {
      "inputs": [
        {
          "internalType": "bytes32",
          "name": "domainName",
          "type": "bytes32"
        },
        {
          "internalType": "bytes32",
          "name": "domainVersion",
          "type": "bytes32"
        },
        {
          "internalType": "bytes32",
          "name": "realm",
          "type": "bytes32"
        }
      ],
      "name": "createRequestContext",
      "outputs": [
        {
          "components": [
            {
              "internalType": "bytes32",
              "name": "name",
              "type": "bytes32"
            },
            {
              "internalType": "bytes32",
              "name": "version",
              "type": "bytes32"
            },
            {
              "internalType": "bytes32",
              "name": "realm",
              "type": "bytes32"
            },
            {
              "internalType": "address",
              "name": "contractId",
              "type": "address"
            },
            {
              "internalType": "bool",
              "name": "status",
              "type": "bool"
            }
          ],
          "internalType": "struct IContextManagement.RequestContext",
          "name": "",
          "type": "tuple"
        },
        {
          "components": [
            {
              "internalType": "bytes32",
              "name": "role",
              "type": "bytes32"
            },
            {
              "internalType": "bytes4[]",
              "name": "funcSelectors",
              "type": "bytes4[]"
            },
            {
              "internalType": "bool",
              "name": "isEnabled",
              "type": "bool"
            }
          ],
          "internalType": "struct IContextManagement.RequestRegisterContext[]",
          "name": "",
          "type": "tuple[]"
        }
      ],
      "stateMutability": "view",
      "type": "function"
    }
  ],
  "bytecode": "0x6122e061003a600b82828239805160001a60731461002d57634e487b7160e01b600052600060045260246000fd5b30600052607381538281f3fe73000000000000000000000000000000000000000030146080604052600436106100d95760003560e01c80639bb20d5111610096578063bec9475111610070578063bec94751146101ac578063d8b31999146101b4578063f1c3afef146101bc578063f7d6b5af146101fb57600080fd5b80639bb20d5114610194578063a61967571461019c578063b899699c146101a457600080fd5b806310e1fc40146100de5780632466209b146101115780633de90db3146101195780634572e0c11461013b5780635632ffd81461016b57806397ca328d14610173575b600080fd5b8180156100ea57600080fd5b506100fe6100f9366004611ee8565b61021b565b6040519081526020015b60405180910390f35b6100fe6105ee565b81801561012557600080fd5b50610139610134366004611f85565b61061c565b005b81801561014757600080fd5b5061015b610156366004611fc9565b610816565b6040519015158152602001610108565b6100fe610940565b61018661018136600461200e565b61096c565b60405161010892919061203a565b6100fe6117a8565b6100fe6117d1565b6100fe6117fe565b6100fe61180d565b6100fe61182c565b8180156101c857600080fd5b506101dc6101d736600461212c565b611851565b604080516001600160a01b039093168352602083019190915201610108565b81801561020757600080fd5b506100fe61021636600461217a565b611b6d565b80516000906001600160a01b03166102735760405162461bcd60e51b8152602060048201526016602482015275496e76616c696420536f75726365204164647265737360501b60448201526064015b60405180910390fd5b60208201516001600160a01b03166102cd5760405162461bcd60e51b815260206004820152601b60248201527f496e76616c69642044657374696e6174696f6e20416464726573730000000000604482015260640161026a565b81602001516001600160a01b031682600001516001600160a01b0316036103365760405162461bcd60e51b815260206004820152601b60248201527f496c6c6567616c2044657374696e6174696f6e20416464726573730000000000604482015260640161026a565b61034342620151806121b2565b8260400151116103895760405162461bcd60e51b81526020600482015260116024820152700496c6c6567616c2054696d657374616d7607c1b604482015260640161026a565b60008260600151116103ce5760405162461bcd60e51b815260206004820152600e60248201526d125b1b1959d85b08185b5bdd5b9d60921b604482015260640161026a565b600082600001518360200151846040015185606001516040516020016104269493929190606094851b6bffffffffffffffffffffffff1990811682529390941b90921660148401526028830152604882015260680190565b60408051601f198184030181529181528151602092830120858301516001600160a01b0390811660009081526002808a018652848220848352909552929092209092015491925016156104b35760405162461bcd60e51b81526020600482015260156024820152744c6f636b496420416c72656164792045786973747360581b604482015260640161026a565b82516001600160a01b031660009081526020859052604090205460608401518110156105215760405162461bcd60e51b815260206004820152601c60248201527f496e73756666696369656e74204163636f756e742042616c616e636500000000604482015260640161026a565b60608401805185516001600160a01b039081166000908152602089815260408083209487039094559351938801519091168152908120600101805490919061056a9084906121b2565b9091555050506020838101516001600160a01b03908116600090815260028781018452604080832086845290945290839020928601516001600160801b03908116600160801b02429190911617600184015585519083018054606088015190945591166001600160a81b031990921691909117600160a01b17905590505b92915050565b604051640312e302e360dc1b60208201526025015b6040516020818303038152906040528051906020012081565b6001600160a01b03831661066b5760405162461bcd60e51b8152602060048201526016602482015275496e76616c696420536f75726365204164647265737360501b604482015260640161026a565b6001600160a01b0382166106c15760405162461bcd60e51b815260206004820152601b60248201527f496e76616c69642044657374696e6174696f6e20416464726573730000000000604482015260640161026a565b816001600160a01b0316836001600160a01b03160361071a5760405162461bcd60e51b815260206004820152601560248201527424b63632b3b0b61029b2b633102a3930b739b332b960591b604482015260640161026a565b6000811161076a5760405162461bcd60e51b815260206004820152601760248201527f496e76616c6964205472616e7366657220416d6f756e74000000000000000000604482015260640161026a565b6001600160a01b038316600090815260208590526040902054818110156107d35760405162461bcd60e51b815260206004820152601c60248201527f496e73756666696369656e74204163636f756e742042616c616e636500000000604482015260640161026a565b6001600160a01b0380851660009081526020879052604080822085850390559185168152908120805484929061080a9084906121b2565b90915550505050505050565b60006001600160a01b03831661086e5760405162461bcd60e51b815260206004820152601760248201527f496e76616c6964204163636f756e742041646472657373000000000000000000604482015260640161026a565b81156108d4576108816005850184611d3b565b6108c15760405162461bcd60e51b81526020600482015260116024820152701058d8dbdd5b9d08139bdd08119bdd5b99607a1b604482015260640161026a565b6108ce6005850184611d60565b50610936565b6108e16005850184611d3b565b156109275760405162461bcd60e51b81526020600482015260166024820152754163636f756e7420416c72656164792045786973747360501b604482015260640161026a565b6109346005850184611d75565b505b5060019392505050565b604051774c4956454c595f53595354454d5f41444d494e5f524f4c4560401b6020820152603801610603565b6040805160a0810182526000808252602082018190528183018190526060808301829052608083018290528351600580825260c082019095529293909290816020015b604080516060808201835260008083526020830191909152918101919091528152602001906001900390816109af57905050604051744c4956454c595f414e4f4e594d4f55535f524f4c4560581b60208201529091506035016040516020818303038152906040528051906020012081600081518110610a3157610a316121db565b60200260200101516000018181525050600181600081518110610a5657610a566121db565b6020908102919091018101519115156040928301528151600a808252610160820190935291908201610140803683370190505081600081518110610a9c57610a9c6121db565b60200260200101516020018190525063a9059cbb60e01b81600081518110610ac657610ac66121db565b602002602001015160200151600081518110610ae457610ae46121db565b6001600160e01b03199092166020928302919091019091015280516323b872dd60e01b908290600090610b1957610b196121db565b602002602001015160200151600181518110610b3757610b376121db565b6001600160e01b031990921660209283029190910190910152805163095ea7b360e01b908290600090610b6c57610b6c6121db565b602002602001015160200151600281518110610b8a57610b8a6121db565b6001600160e01b0319909216602092830291909101909101528051631f54aa5560e31b908290600090610bbf57610bbf6121db565b602002602001015160200151600381518110610bdd57610bdd6121db565b6001600160e01b031990921660209283029190910190910152805163038d251d60e31b908290600090610c1257610c126121db565b602002602001015160200151600481518110610c3057610c306121db565b6001600160e01b0319909216602092830291909101909101528051639fd5a6cf60e01b908290600090610c6557610c656121db565b602002602001015160200151600581518110610c8357610c836121db565b6001600160e01b0319909216602092830291909101909101528051633950935160e01b908290600090610cb857610cb86121db565b602002602001015160200151600681518110610cd657610cd66121db565b6001600160e01b031990921660209283029190910190910152805163a457c2d760e01b908290600090610d0b57610d0b6121db565b602002602001015160200151600781518110610d2957610d296121db565b6001600160e01b031990921660209283029190910190910152805163a5bfa9a960e01b908290600090610d5e57610d5e6121db565b602002602001015160200151600881518110610d7c57610d7c6121db565b6001600160e01b031990921660209283029190910190910152805163028ab43960e31b908290600090610db157610db16121db565b602002602001015160200151600981518110610dcf57610dcf6121db565b6001600160e01b0319909216602092830291909101820152604051610e0c9101704c4956454c595f41444d494e5f524f4c4560781b815260110190565b6040516020818303038152906040528051906020012081600181518110610e3557610e356121db565b60200260200101516000018181525050600181600181518110610e5a57610e5a6121db565b6020908102919091018101519115156040928301528151600c8082526101a0820190935291908201610180803683370190505081600181518110610ea057610ea06121db565b6020026020010151602001819052506348e6be1c60e01b81600181518110610eca57610eca6121db565b602002602001015160200151600081518110610ee857610ee86121db565b6001600160e01b031990921660209283029190910190910152805163225bf2f960e11b9082906001908110610f1f57610f1f6121db565b602002602001015160200151600181518110610f3d57610f3d6121db565b6001600160e01b0319909216602092830291909101909101528051632770a7eb60e21b9082906001908110610f7457610f746121db565b602002602001015160200151600281518110610f9257610f926121db565b6001600160e01b03199092166020928302919091019091015280516340c10f1960e01b9082906001908110610fc957610fc96121db565b602002602001015160200151600381518110610fe757610fe76121db565b6001600160e01b0319909216602092830291909101909101528051630bfee64760e11b908290600190811061101e5761101e6121db565b60200260200101516020015160048151811061103c5761103c6121db565b6001600160e01b03199092166020928302919091019091015280516311a98d3560e21b9082906001908110611073576110736121db565b602002602001015160200151600581518110611091576110916121db565b6001600160e01b0319909216602092830291909101909101528051637d35f35560e01b90829060019081106110c8576110c86121db565b6020026020010151602001516006815181106110e6576110e66121db565b6001600160e01b03199092166020928302919091019091015280516376a67a5160e01b908290600190811061111d5761111d6121db565b60200260200101516020015160078151811061113b5761113b6121db565b6001600160e01b03199092166020928302919091019091015280516357b001f960e01b9082906001908110611172576111726121db565b602002602001015160200151600881518110611190576111906121db565b6001600160e01b031990921660209283029190910190910152805163595c6a6760e01b90829060019081106111c7576111c76121db565b6020026020010151602001516009815181106111e5576111e56121db565b6001600160e01b0319909216602092830291909101909101528051638a2ddd0360e01b908290600190811061121c5761121c6121db565b602002602001015160200151600a8151811061123a5761123a6121db565b60200260200101906001600160e01b03191690816001600160e01b031916815250507f756af45f4ce05d832bee0c171992c529ad6d3ca8e13303d78feace2f8fd7faf281600181518110611290576112906121db565b602002602001015160200151600b815181106112ae576112ae6121db565b6001600160e01b03199092166020928302919091018201526040516112f29101774c4956454c595f53595354454d5f41444d494e5f524f4c4560401b815260180190565b604051602081830303815290604052805190602001208160028151811061131b5761131b6121db565b60200260200101516000018181525050600181600281518110611340576113406121db565b60209081029190910101519015156040918201528051600280825260608201909252908160200160208202803683370190505081600281518110611386576113866121db565b60200260200101516020018190525063d9dc1f1960e01b816002815181106113b0576113b06121db565b6020026020010151602001516000815181106113ce576113ce6121db565b6001600160e01b0319909216602092830291909101909101528051637147855d60e01b9082906002908110611405576114056121db565b602002602001015160200151600181518110611423576114236121db565b6001600160e01b03199092166020928302919091018201526040516114689101784c4956454c595f41535345545f4d414e414745525f524f4c4560381b815260190190565b6040516020818303038152906040528051906020012081600381518110611491576114916121db565b602002602001015160000181815250506001816003815181106114b6576114b66121db565b60209081029190910181015191151560409283015281516003808252608082019093529190820160608036833701905050816003815181106114fa576114fa6121db565b602002602001015160200181905250636b83949260e01b81600381518110611524576115246121db565b602002602001015160200151600081518110611542576115426121db565b6001600160e01b0319909216602092830291909101909101528051639a7e187360e01b9082906003908110611579576115796121db565b602002602001015160200151600181518110611597576115976121db565b60200260200101906001600160e01b03191690816001600160e01b031916815250507fec4ac1f7a145493f4b4d677b3706ded0b0efff6bc9b9de9ab9d367b741bae880816003815181106115ed576115ed6121db565b60200260200101516020015160028151811061160b5761160b6121db565b6001600160e01b031990921660209283029190910182015260405161163091016121f1565b6040516020818303038152906040528051906020012081600481518110611659576116596121db565b6020026020010151600001818152505060018160048151811061167e5761167e6121db565b602090810291909101015190151560409182015280516002808252606082019092529081602001602082028036833701905050816004815181106116c4576116c46121db565b60200260200101516020018190525063fdb92ec460e01b816004815181106116ee576116ee6121db565b60200260200101516020015160008151811061170c5761170c6121db565b6001600160e01b0319909216602092830291909101909101528051634daf9ab760e11b9082906004908110611743576117436121db565b602002602001015160200151600181518110611761576117616121db565b6001600160e01b0319929092166020928302919091018201526040805160a08101825297885290870195909552938501929092525050306060830152600160808301529091565b604051744c4956454c595f414e4f4e594d4f55535f524f4c4560581b6020820152603501610603565b604051784c4956454c595f41535345545f4d414e414745525f524f4c4560381b6020820152603901610603565b604051602001610603906121f1565b6040516a04c546f6b656e45524332360ac1b6020820152602b01610603565b604051704c4956454c595f41444d494e5f524f4c4560781b6020820152603101610603565b60008082356118935760405162461bcd60e51b815260206004820152600e60248201526d125b9d985b1a5908131bd8dad25960921b604482015260640161026a565b600060028501816118aa6040870160208801612225565b6001600160a01b039081168252602080830193909352604091820160009081208835825290935291206002015416036119185760405162461bcd60e51b815260206004820152601060248201526f131bd8dad25908139bdd08119bdd5b9960821b604482015260640161026a565b60016002850160006119306040870160208801612225565b6001600160a01b031681526020808201929092526040908101600090812087358252909252902060020154600160a01b900460ff166003811115611976576119766121c5565b146119b85760405162461bcd60e51b8152602060048201526012602482015271496e76616c6964204c6f636b20537461746560701b604482015260640161026a565b600060028501816119cf6040870160208801612225565b6001600160a01b03168152602080820192909252604090810160009081208735825283528181205493509187918391611a0c918901908901612225565b6001600160a01b03166001600160a01b031681526020019081526020016000206001015490506000866002016000876020016020810190611a4d9190612225565b6001600160a01b039081168252602080830193909352604091820160009081208a35825290935291206002015416905082821015611a9d5760405162461bcd60e51b815260040161026a90612240565b828203876000611ab360408a0160208b01612225565b6001600160a01b0390811682526020808301939093526040918201600090812060010194909455841683529089905281208054859290611af49084906121b2565b9091555060039050600288016000611b1260408a0160208b01612225565b6001600160a01b03168152602080820192909252604090810160009081208a3582529092529020600201805460ff60a01b1916600160a01b836003811115611b5c57611b5c6121c5565b021790555096919550909350505050565b600081611bad5760405162461bcd60e51b815260206004820152600e60248201526d125b9d985b1a5908131bd8dad25960921b604482015260640161026a565b33600090815260028085016020908152604080842086855290915290912001546001600160a01b0316611c155760405162461bcd60e51b815260206004820152601060248201526f131bd8dad25908139bdd08119bdd5b9960821b604482015260640161026a565b33600090815260028401602090815260408083208584529091529020600101546001600160801b03428116600160801b9092041610611c8b5760405162461bcd60e51b8152602060048201526012602482015271496c6c6567616c20436c61696d204c6f636b60701b604482015260640161026a565b33600081815260028501602090815260408083208684528252808320549383529086905290206001015481811015611cd55760405162461bcd60e51b815260040161026a90612240565b33600090815260208690526040812083830360018201558054849290611cfc9084906121b2565b909155505033600090815260029586016020908152604080832096835295905293909320909301805460ff60a01b1916600160a11b1790555090919050565b6001600160a01b038116600090815260018301602052604081205415155b9392505050565b6000611d59836001600160a01b038416611d8a565b6000611d59836001600160a01b038416611e7d565b60008181526001830160205260408120548015611e73576000611dae600183612281565b8554909150600090611dc290600190612281565b9050818114611e27576000866000018281548110611de257611de26121db565b9060005260206000200154905080876000018481548110611e0557611e056121db565b6000918252602080832090910192909255918252600188019052604090208390555b8554869080611e3857611e38612294565b6001900381819060005260206000200160009055905585600101600086815260200190815260200160002060009055600193505050506105e8565b60009150506105e8565b6000818152600183016020526040812054611ec4575081546001818101845560008481526020808220909301849055845484825282860190935260409020919091556105e8565b5060006105e8565b80356001600160a01b0381168114611ee357600080fd5b919050565b60008082840360a0811215611efc57600080fd5b833592506080601f1982011215611f1257600080fd5b506040516080810181811067ffffffffffffffff82111715611f4457634e487b7160e01b600052604160045260246000fd5b604052611f5360208501611ecc565b8152611f6160408501611ecc565b60208201526060840135604082015260808401356060820152809150509250929050565b60008060008060808587031215611f9b57600080fd5b84359350611fab60208601611ecc565b9250611fb960408601611ecc565b9396929550929360600135925050565b600080600060608486031215611fde57600080fd5b83359250611fee60208501611ecc565b91506040840135801515811461200357600080fd5b809150509250925092565b60008060006060848603121561202357600080fd5b505081359360208301359350604090920135919050565b600060c08201845183526020808601518185015260408087015181860152606060018060a01b0381890151168187015260808089015115158188015260c060a088015284885180875260e08901915060e08160051b8a01019650858a016000805b8381101561211a578b8a0360df19018552825180518b52898101518a8c018990528051898d01819052908b01908490898e01905b808310156120f95783516001600160e01b0319168252928d019260019290920191908d01906120cf565b50928b015115159c8b019c909c52509950938801939188019160010161209b565b50979c9b505050505050505050505050565b6000806040838503121561213f57600080fd5b82359150602083013567ffffffffffffffff81111561215d57600080fd5b83016060818603121561216f57600080fd5b809150509250929050565b6000806040838503121561218d57600080fd5b50508035926020909101359150565b634e487b7160e01b600052601160045260246000fd5b808201808211156105e8576105e861219c565b634e487b7160e01b600052602160045260246000fd5b634e487b7160e01b600052603260045260246000fd5b7f4c4956454c595f434f4d4d554e4954595f44414f5f4558454355544f525f524f8152614c4560f01b602082015260220190565b60006020828403121561223757600080fd5b611d5982611ecc565b60208082526021908201527f496e73756666696369656e74204163636f756e74204c6f636b2042616c616e636040820152606560f81b606082015260800190565b818103818111156105e8576105e861219c565b634e487b7160e01b600052603160045260246000fdfea2646970667358221220f47e56a67d3a05e920ac94e3a735529a7383e84ae9db9867deba171d8b31f67a64736f6c63430008110033",
  "linkReferences": {},
  "deployedLinkReferences": {},
  "devdoc": {
    "kind": "dev",
    "methods": {},
    "version": 1
  },
  "evm": {
    "bytecode": {
      "linkReferences": {},
      "opcodes": "PUSH2 0x22E0 PUSH2 0x3A PUSH1 0xB DUP3 DUP3 DUP3 CODECOPY DUP1 MLOAD PUSH1 0x0 BYTE PUSH1 0x73 EQ PUSH2 0x2D JUMPI PUSH4 0x4E487B71 PUSH1 0xE0 SHL PUSH1 0x0 MSTORE PUSH1 0x0 PUSH1 0x4 MSTORE PUSH1 0x24 PUSH1 0x0 REVERT JUMPDEST ADDRESS PUSH1 0x0 MSTORE PUSH1 0x73 DUP2 MSTORE8 DUP3 DUP2 RETURN INVALID PUSH20 0x0 ADDRESS EQ PUSH1 0x80 PUSH1 0x40 MSTORE PUSH1 0x4 CALLDATASIZE LT PUSH2 0xD9 JUMPI PUSH1 0x0 CALLDATALOAD PUSH1 0xE0 SHR DUP1 PUSH4 0x9BB20D51 GT PUSH2 0x96 JUMPI DUP1 PUSH4 0xBEC94751 GT PUSH2 0x70 JUMPI DUP1 PUSH4 0xBEC94751 EQ PUSH2 0x1AC JUMPI DUP1 PUSH4 0xD8B31999 EQ PUSH2 0x1B4 JUMPI DUP1 PUSH4 0xF1C3AFEF EQ PUSH2 0x1BC JUMPI DUP1 PUSH4 0xF7D6B5AF EQ PUSH2 0x1FB JUMPI PUSH1 0x0 DUP1 REVERT JUMPDEST DUP1 PUSH4 0x9BB20D51 EQ PUSH2 0x194 JUMPI DUP1 PUSH4 0xA6196757 EQ PUSH2 0x19C JUMPI DUP1 PUSH4 0xB899699C EQ PUSH2 0x1A4 JUMPI PUSH1 0x0 DUP1 REVERT JUMPDEST DUP1 PUSH4 0x10E1FC40 EQ PUSH2 0xDE JUMPI DUP1 PUSH4 0x2466209B EQ PUSH2 0x111 JUMPI DUP1 PUSH4 0x3DE90DB3 EQ PUSH2 0x119 JUMPI DUP1 PUSH4 0x4572E0C1 EQ PUSH2 0x13B JUMPI DUP1 PUSH4 0x5632FFD8 EQ PUSH2 0x16B JUMPI DUP1 PUSH4 0x97CA328D EQ PUSH2 0x173 JUMPI JUMPDEST PUSH1 0x0 DUP1 REVERT JUMPDEST DUP2 DUP1 ISZERO PUSH2 0xEA JUMPI PUSH1 0x0 DUP1 REVERT JUMPDEST POP PUSH2 0xFE PUSH2 0xF9 CALLDATASIZE PUSH1 0x4 PUSH2 0x1EE8 JUMP JUMPDEST PUSH2 0x21B JUMP JUMPDEST PUSH1 0x40 MLOAD SWAP1 DUP2 MSTORE PUSH1 0x20 ADD JUMPDEST PUSH1 0x40 MLOAD DUP1 SWAP2 SUB SWAP1 RETURN JUMPDEST PUSH2 0xFE PUSH2 0x5EE JUMP JUMPDEST DUP2 DUP1 ISZERO PUSH2 0x125 JUMPI PUSH1 0x0 DUP1 REVERT JUMPDEST POP PUSH2 0x139 PUSH2 0x134 CALLDATASIZE PUSH1 0x4 PUSH2 0x1F85 JUMP JUMPDEST PUSH2 0x61C JUMP JUMPDEST STOP JUMPDEST DUP2 DUP1 ISZERO PUSH2 0x147 JUMPI PUSH1 0x0 DUP1 REVERT JUMPDEST POP PUSH2 0x15B PUSH2 0x156 CALLDATASIZE PUSH1 0x4 PUSH2 0x1FC9 JUMP JUMPDEST PUSH2 0x816 JUMP JUMPDEST PUSH1 0x40 MLOAD SWAP1 ISZERO ISZERO DUP2 MSTORE PUSH1 0x20 ADD PUSH2 0x108 JUMP JUMPDEST PUSH2 0xFE PUSH2 0x940 JUMP JUMPDEST PUSH2 0x186 PUSH2 0x181 CALLDATASIZE PUSH1 0x4 PUSH2 0x200E JUMP JUMPDEST PUSH2 0x96C JUMP JUMPDEST PUSH1 0x40 MLOAD PUSH2 0x108 SWAP3 SWAP2 SWAP1 PUSH2 0x203A JUMP JUMPDEST PUSH2 0xFE PUSH2 0x17A8 JUMP JUMPDEST PUSH2 0xFE PUSH2 0x17D1 JUMP JUMPDEST PUSH2 0xFE PUSH2 0x17FE JUMP JUMPDEST PUSH2 0xFE PUSH2 0x180D JUMP JUMPDEST PUSH2 0xFE PUSH2 0x182C JUMP JUMPDEST DUP2 DUP1 ISZERO PUSH2 0x1C8 JUMPI PUSH1 0x0 DUP1 REVERT JUMPDEST POP PUSH2 0x1DC PUSH2 0x1D7 CALLDATASIZE PUSH1 0x4 PUSH2 0x212C JUMP JUMPDEST PUSH2 0x1851 JUMP JUMPDEST PUSH1 0x40 DUP1 MLOAD PUSH1 0x1 PUSH1 0x1 PUSH1 0xA0 SHL SUB SWAP1 SWAP4 AND DUP4 MSTORE PUSH1 0x20 DUP4 ADD SWAP2 SWAP1 SWAP2 MSTORE ADD PUSH2 0x108 JUMP JUMPDEST DUP2 DUP1 ISZERO PUSH2 0x207 JUMPI PUSH1 0x0 DUP1 REVERT JUMPDEST POP PUSH2 0xFE PUSH2 0x216 CALLDATASIZE PUSH1 0x4 PUSH2 0x217A JUMP JUMPDEST PUSH2 0x1B6D JUMP JUMPDEST DUP1 MLOAD PUSH1 0x0 SWAP1 PUSH1 0x1 PUSH1 0x1 PUSH1 0xA0 SHL SUB AND PUSH2 0x273 JUMPI PUSH1 0x40 MLOAD PUSH3 0x461BCD PUSH1 0xE5 SHL DUP2 MSTORE PUSH1 0x20 PUSH1 0x4 DUP3 ADD MSTORE PUSH1 0x16 PUSH1 0x24 DUP3 ADD MSTORE PUSH22 0x496E76616C696420536F757263652041646472657373 PUSH1 0x50 SHL PUSH1 0x44 DUP3 ADD MSTORE PUSH1 0x64 ADD JUMPDEST PUSH1 0x40 MLOAD DUP1 SWAP2 SUB SWAP1 REVERT JUMPDEST PUSH1 0x20 DUP3 ADD MLOAD PUSH1 0x1 PUSH1 0x1 PUSH1 0xA0 SHL SUB AND PUSH2 0x2CD JUMPI PUSH1 0x40 MLOAD PUSH3 0x461BCD PUSH1 0xE5 SHL DUP2 MSTORE PUSH1 0x20 PUSH1 0x4 DUP3 ADD MSTORE PUSH1 0x1B PUSH1 0x24 DUP3 ADD MSTORE PUSH32 0x496E76616C69642044657374696E6174696F6E20416464726573730000000000 PUSH1 0x44 DUP3 ADD MSTORE PUSH1 0x64 ADD PUSH2 0x26A JUMP JUMPDEST DUP2 PUSH1 0x20 ADD MLOAD PUSH1 0x1 PUSH1 0x1 PUSH1 0xA0 SHL SUB AND DUP3 PUSH1 0x0 ADD MLOAD PUSH1 0x1 PUSH1 0x1 PUSH1 0xA0 SHL SUB AND SUB PUSH2 0x336 JUMPI PUSH1 0x40 MLOAD PUSH3 0x461BCD PUSH1 0xE5 SHL DUP2 MSTORE PUSH1 0x20 PUSH1 0x4 DUP3 ADD MSTORE PUSH1 0x1B PUSH1 0x24 DUP3 ADD MSTORE PUSH32 0x496C6C6567616C2044657374696E6174696F6E20416464726573730000000000 PUSH1 0x44 DUP3 ADD MSTORE PUSH1 0x64 ADD PUSH2 0x26A JUMP JUMPDEST PUSH2 0x343 TIMESTAMP PUSH3 0x15180 PUSH2 0x21B2 JUMP JUMPDEST DUP3 PUSH1 0x40 ADD MLOAD GT PUSH2 0x389 JUMPI PUSH1 0x40 MLOAD PUSH3 0x461BCD PUSH1 0xE5 SHL DUP2 MSTORE PUSH1 0x20 PUSH1 0x4 DUP3 ADD MSTORE PUSH1 0x11 PUSH1 0x24 DUP3 ADD MSTORE PUSH17 0x496C6C6567616C2054696D657374616D7 PUSH1 0x7C SHL PUSH1 0x44 DUP3 ADD MSTORE PUSH1 0x64 ADD PUSH2 0x26A JUMP JUMPDEST PUSH1 0x0 DUP3 PUSH1 0x60 ADD MLOAD GT PUSH2 0x3CE JUMPI PUSH1 0x40 MLOAD PUSH3 0x461BCD PUSH1 0xE5 SHL DUP2 MSTORE PUSH1 0x20 PUSH1 0x4 DUP3 ADD MSTORE PUSH1 0xE PUSH1 0x24 DUP3 ADD MSTORE PUSH14 0x125B1B1959D85B08185B5BDD5B9D PUSH1 0x92 SHL PUSH1 0x44 DUP3 ADD MSTORE PUSH1 0x64 ADD PUSH2 0x26A JUMP JUMPDEST PUSH1 0x0 DUP3 PUSH1 0x0 ADD MLOAD DUP4 PUSH1 0x20 ADD MLOAD DUP5 PUSH1 0x40 ADD MLOAD DUP6 PUSH1 0x60 ADD MLOAD PUSH1 0x40 MLOAD PUSH1 0x20 ADD PUSH2 0x426 SWAP5 SWAP4 SWAP3 SWAP2 SWAP1 PUSH1 0x60 SWAP5 DUP6 SHL PUSH12 0xFFFFFFFFFFFFFFFFFFFFFFFF NOT SWAP1 DUP2 AND DUP3 MSTORE SWAP4 SWAP1 SWAP5 SHL SWAP1 SWAP3 AND PUSH1 0x14 DUP5 ADD MSTORE PUSH1 0x28 DUP4 ADD MSTORE PUSH1 0x48 DUP3 ADD MSTORE PUSH1 0x68 ADD SWAP1 JUMP JUMPDEST PUSH1 0x40 DUP1 MLOAD PUSH1 0x1F NOT DUP2 DUP5 SUB ADD DUP2 MSTORE SWAP2 DUP2 MSTORE DUP2 MLOAD PUSH1 0x20 SWAP3 DUP4 ADD KECCAK256 DUP6 DUP4 ADD MLOAD PUSH1 0x1 PUSH1 0x1 PUSH1 0xA0 SHL SUB SWAP1 DUP2 AND PUSH1 0x0 SWAP1 DUP2 MSTORE PUSH1 0x2 DUP1 DUP11 ADD DUP7 MSTORE DUP5 DUP3 KECCAK256 DUP5 DUP4 MSTORE SWAP1 SWAP6 MSTORE SWAP3 SWAP1 SWAP3 KECCAK256 SWAP1 SWAP3 ADD SLOAD SWAP2 SWAP3 POP AND ISZERO PUSH2 0x4B3 JUMPI PUSH1 0x40 MLOAD PUSH3 0x461BCD PUSH1 0xE5 SHL DUP2 MSTORE PUSH1 0x20 PUSH1 0x4 DUP3 ADD MSTORE PUSH1 0x15 PUSH1 0x24 DUP3 ADD MSTORE PUSH21 0x4C6F636B496420416C726561647920457869737473 PUSH1 0x58 SHL PUSH1 0x44 DUP3 ADD MSTORE PUSH1 0x64 ADD PUSH2 0x26A JUMP JUMPDEST DUP3 MLOAD PUSH1 0x1 PUSH1 0x1 PUSH1 0xA0 SHL SUB AND PUSH1 0x0 SWAP1 DUP2 MSTORE PUSH1 0x20 DUP6 SWAP1 MSTORE PUSH1 0x40 SWAP1 KECCAK256 SLOAD PUSH1 0x60 DUP5 ADD MLOAD DUP2 LT ISZERO PUSH2 0x521 JUMPI PUSH1 0x40 MLOAD PUSH3 0x461BCD PUSH1 0xE5 SHL DUP2 MSTORE PUSH1 0x20 PUSH1 0x4 DUP3 ADD MSTORE PUSH1 0x1C PUSH1 0x24 DUP3 ADD MSTORE PUSH32 0x496E73756666696369656E74204163636F756E742042616C616E636500000000 PUSH1 0x44 DUP3 ADD MSTORE PUSH1 0x64 ADD PUSH2 0x26A JUMP JUMPDEST PUSH1 0x60 DUP5 ADD DUP1 MLOAD DUP6 MLOAD PUSH1 0x1 PUSH1 0x1 PUSH1 0xA0 SHL SUB SWAP1 DUP2 AND PUSH1 0x0 SWAP1 DUP2 MSTORE PUSH1 0x20 DUP10 DUP2 MSTORE PUSH1 0x40 DUP1 DUP4 KECCAK256 SWAP5 DUP8 SUB SWAP1 SWAP5 SSTORE SWAP4 MLOAD SWAP4 DUP9 ADD MLOAD SWAP1 SWAP2 AND DUP2 MSTORE SWAP1 DUP2 KECCAK256 PUSH1 0x1 ADD DUP1 SLOAD SWAP1 SWAP2 SWAP1 PUSH2 0x56A SWAP1 DUP5 SWAP1 PUSH2 0x21B2 JUMP JUMPDEST SWAP1 SWAP2 SSTORE POP POP POP PUSH1 0x20 DUP4 DUP2 ADD MLOAD PUSH1 0x1 PUSH1 0x1 PUSH1 0xA0 SHL SUB SWAP1 DUP2 AND PUSH1 0x0 SWAP1 DUP2 MSTORE PUSH1 0x2 DUP8 DUP2 ADD DUP5 MSTORE PUSH1 0x40 DUP1 DUP4 KECCAK256 DUP7 DUP5 MSTORE SWAP1 SWAP5 MSTORE SWAP1 DUP4 SWAP1 KECCAK256 SWAP3 DUP7 ADD MLOAD PUSH1 0x1 PUSH1 0x1 PUSH1 0x80 SHL SUB SWAP1 DUP2 AND PUSH1 0x1 PUSH1 0x80 SHL MUL TIMESTAMP SWAP2 SWAP1 SWAP2 AND OR PUSH1 0x1 DUP5 ADD SSTORE DUP6 MLOAD SWAP1 DUP4 ADD DUP1 SLOAD PUSH1 0x60 DUP9 ADD MLOAD SWAP1 SWAP5 SSTORE SWAP2 AND PUSH1 0x1 PUSH1 0x1 PUSH1 0xA8 SHL SUB NOT SWAP1 SWAP3 AND SWAP2 SWAP1 SWAP2 OR PUSH1 0x1 PUSH1 0xA0 SHL OR SWAP1 SSTORE SWAP1 POP JUMPDEST SWAP3 SWAP2 POP POP JUMP JUMPDEST PUSH1 0x40 MLOAD PUSH5 0x312E302E3 PUSH1 0xDC SHL PUSH1 0x20 DUP3 ADD MSTORE PUSH1 0x25 ADD JUMPDEST PUSH1 0x40 MLOAD PUSH1 0x20 DUP2 DUP4 SUB SUB DUP2 MSTORE SWAP1 PUSH1 0x40 MSTORE DUP1 MLOAD SWAP1 PUSH1 0x20 ADD KECCAK256 DUP2 JUMP JUMPDEST PUSH1 0x1 PUSH1 0x1 PUSH1 0xA0 SHL SUB DUP4 AND PUSH2 0x66B JUMPI PUSH1 0x40 MLOAD PUSH3 0x461BCD PUSH1 0xE5 SHL DUP2 MSTORE PUSH1 0x20 PUSH1 0x4 DUP3 ADD MSTORE PUSH1 0x16 PUSH1 0x24 DUP3 ADD MSTORE PUSH22 0x496E76616C696420536F757263652041646472657373 PUSH1 0x50 SHL PUSH1 0x44 DUP3 ADD MSTORE PUSH1 0x64 ADD PUSH2 0x26A JUMP JUMPDEST PUSH1 0x1 PUSH1 0x1 PUSH1 0xA0 SHL SUB DUP3 AND PUSH2 0x6C1 JUMPI PUSH1 0x40 MLOAD PUSH3 0x461BCD PUSH1 0xE5 SHL DUP2 MSTORE PUSH1 0x20 PUSH1 0x4 DUP3 ADD MSTORE PUSH1 0x1B PUSH1 0x24 DUP3 ADD MSTORE PUSH32 0x496E76616C69642044657374696E6174696F6E20416464726573730000000000 PUSH1 0x44 DUP3 ADD MSTORE PUSH1 0x64 ADD PUSH2 0x26A JUMP JUMPDEST DUP2 PUSH1 0x1 PUSH1 0x1 PUSH1 0xA0 SHL SUB AND DUP4 PUSH1 0x1 PUSH1 0x1 PUSH1 0xA0 SHL SUB AND SUB PUSH2 0x71A JUMPI PUSH1 0x40 MLOAD PUSH3 0x461BCD PUSH1 0xE5 SHL DUP2 MSTORE PUSH1 0x20 PUSH1 0x4 DUP3 ADD MSTORE PUSH1 0x15 PUSH1 0x24 DUP3 ADD MSTORE PUSH21 0x24B63632B3B0B61029B2B633102A3930B739B332B9 PUSH1 0x59 SHL PUSH1 0x44 DUP3 ADD MSTORE PUSH1 0x64 ADD PUSH2 0x26A JUMP JUMPDEST PUSH1 0x0 DUP2 GT PUSH2 0x76A JUMPI PUSH1 0x40 MLOAD PUSH3 0x461BCD PUSH1 0xE5 SHL DUP2 MSTORE PUSH1 0x20 PUSH1 0x4 DUP3 ADD MSTORE PUSH1 0x17 PUSH1 0x24 DUP3 ADD MSTORE PUSH32 0x496E76616C6964205472616E7366657220416D6F756E74000000000000000000 PUSH1 0x44 DUP3 ADD MSTORE PUSH1 0x64 ADD PUSH2 0x26A JUMP JUMPDEST PUSH1 0x1 PUSH1 0x1 PUSH1 0xA0 SHL SUB DUP4 AND PUSH1 0x0 SWAP1 DUP2 MSTORE PUSH1 0x20 DUP6 SWAP1 MSTORE PUSH1 0x40 SWAP1 KECCAK256 SLOAD DUP2 DUP2 LT ISZERO PUSH2 0x7D3 JUMPI PUSH1 0x40 MLOAD PUSH3 0x461BCD PUSH1 0xE5 SHL DUP2 MSTORE PUSH1 0x20 PUSH1 0x4 DUP3 ADD MSTORE PUSH1 0x1C PUSH1 0x24 DUP3 ADD MSTORE PUSH32 0x496E73756666696369656E74204163636F756E742042616C616E636500000000 PUSH1 0x44 DUP3 ADD MSTORE PUSH1 0x64 ADD PUSH2 0x26A JUMP JUMPDEST PUSH1 0x1 PUSH1 0x1 PUSH1 0xA0 SHL SUB DUP1 DUP6 AND PUSH1 0x0 SWAP1 DUP2 MSTORE PUSH1 0x20 DUP8 SWAP1 MSTORE PUSH1 0x40 DUP1 DUP3 KECCAK256 DUP6 DUP6 SUB SWAP1 SSTORE SWAP2 DUP6 AND DUP2 MSTORE SWAP1 DUP2 KECCAK256 DUP1 SLOAD DUP5 SWAP3 SWAP1 PUSH2 0x80A SWAP1 DUP5 SWAP1 PUSH2 0x21B2 JUMP JUMPDEST SWAP1 SWAP2 SSTORE POP POP POP POP POP POP POP JUMP JUMPDEST PUSH1 0x0 PUSH1 0x1 PUSH1 0x1 PUSH1 0xA0 SHL SUB DUP4 AND PUSH2 0x86E JUMPI PUSH1 0x40 MLOAD PUSH3 0x461BCD PUSH1 0xE5 SHL DUP2 MSTORE PUSH1 0x20 PUSH1 0x4 DUP3 ADD MSTORE PUSH1 0x17 PUSH1 0x24 DUP3 ADD MSTORE PUSH32 0x496E76616C6964204163636F756E742041646472657373000000000000000000 PUSH1 0x44 DUP3 ADD MSTORE PUSH1 0x64 ADD PUSH2 0x26A JUMP JUMPDEST DUP2 ISZERO PUSH2 0x8D4 JUMPI PUSH2 0x881 PUSH1 0x5 DUP6 ADD DUP5 PUSH2 0x1D3B JUMP JUMPDEST PUSH2 0x8C1 JUMPI PUSH1 0x40 MLOAD PUSH3 0x461BCD PUSH1 0xE5 SHL DUP2 MSTORE PUSH1 0x20 PUSH1 0x4 DUP3 ADD MSTORE PUSH1 0x11 PUSH1 0x24 DUP3 ADD MSTORE PUSH17 0x1058D8DBDD5B9D08139BDD08119BDD5B99 PUSH1 0x7A SHL PUSH1 0x44 DUP3 ADD MSTORE PUSH1 0x64 ADD PUSH2 0x26A JUMP JUMPDEST PUSH2 0x8CE PUSH1 0x5 DUP6 ADD DUP5 PUSH2 0x1D60 JUMP JUMPDEST POP PUSH2 0x936 JUMP JUMPDEST PUSH2 0x8E1 PUSH1 0x5 DUP6 ADD DUP5 PUSH2 0x1D3B JUMP JUMPDEST ISZERO PUSH2 0x927 JUMPI PUSH1 0x40 MLOAD PUSH3 0x461BCD PUSH1 0xE5 SHL DUP2 MSTORE PUSH1 0x20 PUSH1 0x4 DUP3 ADD MSTORE PUSH1 0x16 PUSH1 0x24 DUP3 ADD MSTORE PUSH22 0x4163636F756E7420416C726561647920457869737473 PUSH1 0x50 SHL PUSH1 0x44 DUP3 ADD MSTORE PUSH1 0x64 ADD PUSH2 0x26A JUMP JUMPDEST PUSH2 0x934 PUSH1 0x5 DUP6 ADD DUP5 PUSH2 0x1D75 JUMP JUMPDEST POP JUMPDEST POP PUSH1 0x1 SWAP4 SWAP3 POP POP POP JUMP JUMPDEST PUSH1 0x40 MLOAD PUSH24 0x4C4956454C595F53595354454D5F41444D494E5F524F4C45 PUSH1 0x40 SHL PUSH1 0x20 DUP3 ADD MSTORE PUSH1 0x38 ADD PUSH2 0x603 JUMP JUMPDEST PUSH1 0x40 DUP1 MLOAD PUSH1 0xA0 DUP2 ADD DUP3 MSTORE PUSH1 0x0 DUP1 DUP3 MSTORE PUSH1 0x20 DUP3 ADD DUP2 SWAP1 MSTORE DUP2 DUP4 ADD DUP2 SWAP1 MSTORE PUSH1 0x60 DUP1 DUP4 ADD DUP3 SWAP1 MSTORE PUSH1 0x80 DUP4 ADD DUP3 SWAP1 MSTORE DUP4 MLOAD PUSH1 0x5 DUP1 DUP3 MSTORE PUSH1 0xC0 DUP3 ADD SWAP1 SWAP6 MSTORE SWAP3 SWAP4 SWAP1 SWAP3 SWAP1 DUP2 PUSH1 0x20 ADD JUMPDEST PUSH1 0x40 DUP1 MLOAD PUSH1 0x60 DUP1 DUP3 ADD DUP4 MSTORE PUSH1 0x0 DUP1 DUP4 MSTORE PUSH1 0x20 DUP4 ADD SWAP2 SWAP1 SWAP2 MSTORE SWAP2 DUP2 ADD SWAP2 SWAP1 SWAP2 MSTORE DUP2 MSTORE PUSH1 0x20 ADD SWAP1 PUSH1 0x1 SWAP1 SUB SWAP1 DUP2 PUSH2 0x9AF JUMPI SWAP1 POP POP PUSH1 0x40 MLOAD PUSH21 0x4C4956454C595F414E4F4E594D4F55535F524F4C45 PUSH1 0x58 SHL PUSH1 0x20 DUP3 ADD MSTORE SWAP1 SWAP2 POP PUSH1 0x35 ADD PUSH1 0x40 MLOAD PUSH1 0x20 DUP2 DUP4 SUB SUB DUP2 MSTORE SWAP1 PUSH1 0x40 MSTORE DUP1 MLOAD SWAP1 PUSH1 0x20 ADD KECCAK256 DUP2 PUSH1 0x0 DUP2 MLOAD DUP2 LT PUSH2 0xA31 JUMPI PUSH2 0xA31 PUSH2 0x21DB JUMP JUMPDEST PUSH1 0x20 MUL PUSH1 0x20 ADD ADD MLOAD PUSH1 0x0 ADD DUP2 DUP2 MSTORE POP POP PUSH1 0x1 DUP2 PUSH1 0x0 DUP2 MLOAD DUP2 LT PUSH2 0xA56 JUMPI PUSH2 0xA56 PUSH2 0x21DB JUMP JUMPDEST PUSH1 0x20 SWAP1 DUP2 MUL SWAP2 SWAP1 SWAP2 ADD DUP2 ADD MLOAD SWAP2 ISZERO ISZERO PUSH1 0x40 SWAP3 DUP4 ADD MSTORE DUP2 MLOAD PUSH1 0xA DUP1 DUP3 MSTORE PUSH2 0x160 DUP3 ADD SWAP1 SWAP4 MSTORE SWAP2 SWAP1 DUP3 ADD PUSH2 0x140 DUP1 CALLDATASIZE DUP4 CALLDATACOPY ADD SWAP1 POP POP DUP2 PUSH1 0x0 DUP2 MLOAD DUP2 LT PUSH2 0xA9C JUMPI PUSH2 0xA9C PUSH2 0x21DB JUMP JUMPDEST PUSH1 0x20 MUL PUSH1 0x20 ADD ADD MLOAD PUSH1 0x20 ADD DUP2 SWAP1 MSTORE POP PUSH4 0xA9059CBB PUSH1 0xE0 SHL DUP2 PUSH1 0x0 DUP2 MLOAD DUP2 LT PUSH2 0xAC6 JUMPI PUSH2 0xAC6 PUSH2 0x21DB JUMP JUMPDEST PUSH1 0x20 MUL PUSH1 0x20 ADD ADD MLOAD PUSH1 0x20 ADD MLOAD PUSH1 0x0 DUP2 MLOAD DUP2 LT PUSH2 0xAE4 JUMPI PUSH2 0xAE4 PUSH2 0x21DB JUMP JUMPDEST PUSH1 0x1 PUSH1 0x1 PUSH1 0xE0 SHL SUB NOT SWAP1 SWAP3 AND PUSH1 0x20 SWAP3 DUP4 MUL SWAP2 SWAP1 SWAP2 ADD SWAP1 SWAP2 ADD MSTORE DUP1 MLOAD PUSH4 0x23B872DD PUSH1 0xE0 SHL SWAP1 DUP3 SWAP1 PUSH1 0x0 SWAP1 PUSH2 0xB19 JUMPI PUSH2 0xB19 PUSH2 0x21DB JUMP JUMPDEST PUSH1 0x20 MUL PUSH1 0x20 ADD ADD MLOAD PUSH1 0x20 ADD MLOAD PUSH1 0x1 DUP2 MLOAD DUP2 LT PUSH2 0xB37 JUMPI PUSH2 0xB37 PUSH2 0x21DB JUMP JUMPDEST PUSH1 0x1 PUSH1 0x1 PUSH1 0xE0 SHL SUB NOT SWAP1 SWAP3 AND PUSH1 0x20 SWAP3 DUP4 MUL SWAP2 SWAP1 SWAP2 ADD SWAP1 SWAP2 ADD MSTORE DUP1 MLOAD PUSH4 0x95EA7B3 PUSH1 0xE0 SHL SWAP1 DUP3 SWAP1 PUSH1 0x0 SWAP1 PUSH2 0xB6C JUMPI PUSH2 0xB6C PUSH2 0x21DB JUMP JUMPDEST PUSH1 0x20 MUL PUSH1 0x20 ADD ADD MLOAD PUSH1 0x20 ADD MLOAD PUSH1 0x2 DUP2 MLOAD DUP2 LT PUSH2 0xB8A JUMPI PUSH2 0xB8A PUSH2 0x21DB JUMP JUMPDEST PUSH1 0x1 PUSH1 0x1 PUSH1 0xE0 SHL SUB NOT SWAP1 SWAP3 AND PUSH1 0x20 SWAP3 DUP4 MUL SWAP2 SWAP1 SWAP2 ADD SWAP1 SWAP2 ADD MSTORE DUP1 MLOAD PUSH4 0x1F54AA55 PUSH1 0xE3 SHL SWAP1 DUP3 SWAP1 PUSH1 0x0 SWAP1 PUSH2 0xBBF JUMPI PUSH2 0xBBF PUSH2 0x21DB JUMP JUMPDEST PUSH1 0x20 MUL PUSH1 0x20 ADD ADD MLOAD PUSH1 0x20 ADD MLOAD PUSH1 0x3 DUP2 MLOAD DUP2 LT PUSH2 0xBDD JUMPI PUSH2 0xBDD PUSH2 0x21DB JUMP JUMPDEST PUSH1 0x1 PUSH1 0x1 PUSH1 0xE0 SHL SUB NOT SWAP1 SWAP3 AND PUSH1 0x20 SWAP3 DUP4 MUL SWAP2 SWAP1 SWAP2 ADD SWAP1 SWAP2 ADD MSTORE DUP1 MLOAD PUSH4 0x38D251D PUSH1 0xE3 SHL SWAP1 DUP3 SWAP1 PUSH1 0x0 SWAP1 PUSH2 0xC12 JUMPI PUSH2 0xC12 PUSH2 0x21DB JUMP JUMPDEST PUSH1 0x20 MUL PUSH1 0x20 ADD ADD MLOAD PUSH1 0x20 ADD MLOAD PUSH1 0x4 DUP2 MLOAD DUP2 LT PUSH2 0xC30 JUMPI PUSH2 0xC30 PUSH2 0x21DB JUMP JUMPDEST PUSH1 0x1 PUSH1 0x1 PUSH1 0xE0 SHL SUB NOT SWAP1 SWAP3 AND PUSH1 0x20 SWAP3 DUP4 MUL SWAP2 SWAP1 SWAP2 ADD SWAP1 SWAP2 ADD MSTORE DUP1 MLOAD PUSH4 0x9FD5A6CF PUSH1 0xE0 SHL SWAP1 DUP3 SWAP1 PUSH1 0x0 SWAP1 PUSH2 0xC65 JUMPI PUSH2 0xC65 PUSH2 0x21DB JUMP JUMPDEST PUSH1 0x20 MUL PUSH1 0x20 ADD ADD MLOAD PUSH1 0x20 ADD MLOAD PUSH1 0x5 DUP2 MLOAD DUP2 LT PUSH2 0xC83 JUMPI PUSH2 0xC83 PUSH2 0x21DB JUMP JUMPDEST PUSH1 0x1 PUSH1 0x1 PUSH1 0xE0 SHL SUB NOT SWAP1 SWAP3 AND PUSH1 0x20 SWAP3 DUP4 MUL SWAP2 SWAP1 SWAP2 ADD SWAP1 SWAP2 ADD MSTORE DUP1 MLOAD PUSH4 0x39509351 PUSH1 0xE0 SHL SWAP1 DUP3 SWAP1 PUSH1 0x0 SWAP1 PUSH2 0xCB8 JUMPI PUSH2 0xCB8 PUSH2 0x21DB JUMP JUMPDEST PUSH1 0x20 MUL PUSH1 0x20 ADD ADD MLOAD PUSH1 0x20 ADD MLOAD PUSH1 0x6 DUP2 MLOAD DUP2 LT PUSH2 0xCD6 JUMPI PUSH2 0xCD6 PUSH2 0x21DB JUMP JUMPDEST PUSH1 0x1 PUSH1 0x1 PUSH1 0xE0 SHL SUB NOT SWAP1 SWAP3 AND PUSH1 0x20 SWAP3 DUP4 MUL SWAP2 SWAP1 SWAP2 ADD SWAP1 SWAP2 ADD MSTORE DUP1 MLOAD PUSH4 0xA457C2D7 PUSH1 0xE0 SHL SWAP1 DUP3 SWAP1 PUSH1 0x0 SWAP1 PUSH2 0xD0B JUMPI PUSH2 0xD0B PUSH2 0x21DB JUMP JUMPDEST PUSH1 0x20 MUL PUSH1 0x20 ADD ADD MLOAD PUSH1 0x20 ADD MLOAD PUSH1 0x7 DUP2 MLOAD DUP2 LT PUSH2 0xD29 JUMPI PUSH2 0xD29 PUSH2 0x21DB JUMP JUMPDEST PUSH1 0x1 PUSH1 0x1 PUSH1 0xE0 SHL SUB NOT SWAP1 SWAP3 AND PUSH1 0x20 SWAP3 DUP4 MUL SWAP2 SWAP1 SWAP2 ADD SWAP1 SWAP2 ADD MSTORE DUP1 MLOAD PUSH4 0xA5BFA9A9 PUSH1 0xE0 SHL SWAP1 DUP3 SWAP1 PUSH1 0x0 SWAP1 PUSH2 0xD5E JUMPI PUSH2 0xD5E PUSH2 0x21DB JUMP JUMPDEST PUSH1 0x20 MUL PUSH1 0x20 ADD ADD MLOAD PUSH1 0x20 ADD MLOAD PUSH1 0x8 DUP2 MLOAD DUP2 LT PUSH2 0xD7C JUMPI PUSH2 0xD7C PUSH2 0x21DB JUMP JUMPDEST PUSH1 0x1 PUSH1 0x1 PUSH1 0xE0 SHL SUB NOT SWAP1 SWAP3 AND PUSH1 0x20 SWAP3 DUP4 MUL SWAP2 SWAP1 SWAP2 ADD SWAP1 SWAP2 ADD MSTORE DUP1 MLOAD PUSH4 0x28AB439 PUSH1 0xE3 SHL SWAP1 DUP3 SWAP1 PUSH1 0x0 SWAP1 PUSH2 0xDB1 JUMPI PUSH2 0xDB1 PUSH2 0x21DB JUMP JUMPDEST PUSH1 0x20 MUL PUSH1 0x20 ADD ADD MLOAD PUSH1 0x20 ADD MLOAD PUSH1 0x9 DUP2 MLOAD DUP2 LT PUSH2 0xDCF JUMPI PUSH2 0xDCF PUSH2 0x21DB JUMP JUMPDEST PUSH1 0x1 PUSH1 0x1 PUSH1 0xE0 SHL SUB NOT SWAP1 SWAP3 AND PUSH1 0x20 SWAP3 DUP4 MUL SWAP2 SWAP1 SWAP2 ADD DUP3 ADD MSTORE PUSH1 0x40 MLOAD PUSH2 0xE0C SWAP2 ADD PUSH17 0x4C4956454C595F41444D494E5F524F4C45 PUSH1 0x78 SHL DUP2 MSTORE PUSH1 0x11 ADD SWAP1 JUMP JUMPDEST PUSH1 0x40 MLOAD PUSH1 0x20 DUP2 DUP4 SUB SUB DUP2 MSTORE SWAP1 PUSH1 0x40 MSTORE DUP1 MLOAD SWAP1 PUSH1 0x20 ADD KECCAK256 DUP2 PUSH1 0x1 DUP2 MLOAD DUP2 LT PUSH2 0xE35 JUMPI PUSH2 0xE35 PUSH2 0x21DB JUMP JUMPDEST PUSH1 0x20 MUL PUSH1 0x20 ADD ADD MLOAD PUSH1 0x0 ADD DUP2 DUP2 MSTORE POP POP PUSH1 0x1 DUP2 PUSH1 0x1 DUP2 MLOAD DUP2 LT PUSH2 0xE5A JUMPI PUSH2 0xE5A PUSH2 0x21DB JUMP JUMPDEST PUSH1 0x20 SWAP1 DUP2 MUL SWAP2 SWAP1 SWAP2 ADD DUP2 ADD MLOAD SWAP2 ISZERO ISZERO PUSH1 0x40 SWAP3 DUP4 ADD MSTORE DUP2 MLOAD PUSH1 0xC DUP1 DUP3 MSTORE PUSH2 0x1A0 DUP3 ADD SWAP1 SWAP4 MSTORE SWAP2 SWAP1 DUP3 ADD PUSH2 0x180 DUP1 CALLDATASIZE DUP4 CALLDATACOPY ADD SWAP1 POP POP DUP2 PUSH1 0x1 DUP2 MLOAD DUP2 LT PUSH2 0xEA0 JUMPI PUSH2 0xEA0 PUSH2 0x21DB JUMP JUMPDEST PUSH1 0x20 MUL PUSH1 0x20 ADD ADD MLOAD PUSH1 0x20 ADD DUP2 SWAP1 MSTORE POP PUSH4 0x48E6BE1C PUSH1 0xE0 SHL DUP2 PUSH1 0x1 DUP2 MLOAD DUP2 LT PUSH2 0xECA JUMPI PUSH2 0xECA PUSH2 0x21DB JUMP JUMPDEST PUSH1 0x20 MUL PUSH1 0x20 ADD ADD MLOAD PUSH1 0x20 ADD MLOAD PUSH1 0x0 DUP2 MLOAD DUP2 LT PUSH2 0xEE8 JUMPI PUSH2 0xEE8 PUSH2 0x21DB JUMP JUMPDEST PUSH1 0x1 PUSH1 0x1 PUSH1 0xE0 SHL SUB NOT SWAP1 SWAP3 AND PUSH1 0x20 SWAP3 DUP4 MUL SWAP2 SWAP1 SWAP2 ADD SWAP1 SWAP2 ADD MSTORE DUP1 MLOAD PUSH4 0x225BF2F9 PUSH1 0xE1 SHL SWAP1 DUP3 SWAP1 PUSH1 0x1 SWAP1 DUP2 LT PUSH2 0xF1F JUMPI PUSH2 0xF1F PUSH2 0x21DB JUMP JUMPDEST PUSH1 0x20 MUL PUSH1 0x20 ADD ADD MLOAD PUSH1 0x20 ADD MLOAD PUSH1 0x1 DUP2 MLOAD DUP2 LT PUSH2 0xF3D JUMPI PUSH2 0xF3D PUSH2 0x21DB JUMP JUMPDEST PUSH1 0x1 PUSH1 0x1 PUSH1 0xE0 SHL SUB NOT SWAP1 SWAP3 AND PUSH1 0x20 SWAP3 DUP4 MUL SWAP2 SWAP1 SWAP2 ADD SWAP1 SWAP2 ADD MSTORE DUP1 MLOAD PUSH4 0x2770A7EB PUSH1 0xE2 SHL SWAP1 DUP3 SWAP1 PUSH1 0x1 SWAP1 DUP2 LT PUSH2 0xF74 JUMPI PUSH2 0xF74 PUSH2 0x21DB JUMP JUMPDEST PUSH1 0x20 MUL PUSH1 0x20 ADD ADD MLOAD PUSH1 0x20 ADD MLOAD PUSH1 0x2 DUP2 MLOAD DUP2 LT PUSH2 0xF92 JUMPI PUSH2 0xF92 PUSH2 0x21DB JUMP JUMPDEST PUSH1 0x1 PUSH1 0x1 PUSH1 0xE0 SHL SUB NOT SWAP1 SWAP3 AND PUSH1 0x20 SWAP3 DUP4 MUL SWAP2 SWAP1 SWAP2 ADD SWAP1 SWAP2 ADD MSTORE DUP1 MLOAD PUSH4 0x40C10F19 PUSH1 0xE0 SHL SWAP1 DUP3 SWAP1 PUSH1 0x1 SWAP1 DUP2 LT PUSH2 0xFC9 JUMPI PUSH2 0xFC9 PUSH2 0x21DB JUMP JUMPDEST PUSH1 0x20 MUL PUSH1 0x20 ADD ADD MLOAD PUSH1 0x20 ADD MLOAD PUSH1 0x3 DUP2 MLOAD DUP2 LT PUSH2 0xFE7 JUMPI PUSH2 0xFE7 PUSH2 0x21DB JUMP JUMPDEST PUSH1 0x1 PUSH1 0x1 PUSH1 0xE0 SHL SUB NOT SWAP1 SWAP3 AND PUSH1 0x20 SWAP3 DUP4 MUL SWAP2 SWAP1 SWAP2 ADD SWAP1 SWAP2 ADD MSTORE DUP1 MLOAD PUSH4 0xBFEE647 PUSH1 0xE1 SHL SWAP1 DUP3 SWAP1 PUSH1 0x1 SWAP1 DUP2 LT PUSH2 0x101E JUMPI PUSH2 0x101E PUSH2 0x21DB JUMP JUMPDEST PUSH1 0x20 MUL PUSH1 0x20 ADD ADD MLOAD PUSH1 0x20 ADD MLOAD PUSH1 0x4 DUP2 MLOAD DUP2 LT PUSH2 0x103C JUMPI PUSH2 0x103C PUSH2 0x21DB JUMP JUMPDEST PUSH1 0x1 PUSH1 0x1 PUSH1 0xE0 SHL SUB NOT SWAP1 SWAP3 AND PUSH1 0x20 SWAP3 DUP4 MUL SWAP2 SWAP1 SWAP2 ADD SWAP1 SWAP2 ADD MSTORE DUP1 MLOAD PUSH4 0x11A98D35 PUSH1 0xE2 SHL SWAP1 DUP3 SWAP1 PUSH1 0x1 SWAP1 DUP2 LT PUSH2 0x1073 JUMPI PUSH2 0x1073 PUSH2 0x21DB JUMP JUMPDEST PUSH1 0x20 MUL PUSH1 0x20 ADD ADD MLOAD PUSH1 0x20 ADD MLOAD PUSH1 0x5 DUP2 MLOAD DUP2 LT PUSH2 0x1091 JUMPI PUSH2 0x1091 PUSH2 0x21DB JUMP JUMPDEST PUSH1 0x1 PUSH1 0x1 PUSH1 0xE0 SHL SUB NOT SWAP1 SWAP3 AND PUSH1 0x20 SWAP3 DUP4 MUL SWAP2 SWAP1 SWAP2 ADD SWAP1 SWAP2 ADD MSTORE DUP1 MLOAD PUSH4 0x7D35F355 PUSH1 0xE0 SHL SWAP1 DUP3 SWAP1 PUSH1 0x1 SWAP1 DUP2 LT PUSH2 0x10C8 JUMPI PUSH2 0x10C8 PUSH2 0x21DB JUMP JUMPDEST PUSH1 0x20 MUL PUSH1 0x20 ADD ADD MLOAD PUSH1 0x20 ADD MLOAD PUSH1 0x6 DUP2 MLOAD DUP2 LT PUSH2 0x10E6 JUMPI PUSH2 0x10E6 PUSH2 0x21DB JUMP JUMPDEST PUSH1 0x1 PUSH1 0x1 PUSH1 0xE0 SHL SUB NOT SWAP1 SWAP3 AND PUSH1 0x20 SWAP3 DUP4 MUL SWAP2 SWAP1 SWAP2 ADD SWAP1 SWAP2 ADD MSTORE DUP1 MLOAD PUSH4 0x76A67A51 PUSH1 0xE0 SHL SWAP1 DUP3 SWAP1 PUSH1 0x1 SWAP1 DUP2 LT PUSH2 0x111D JUMPI PUSH2 0x111D PUSH2 0x21DB JUMP JUMPDEST PUSH1 0x20 MUL PUSH1 0x20 ADD ADD MLOAD PUSH1 0x20 ADD MLOAD PUSH1 0x7 DUP2 MLOAD DUP2 LT PUSH2 0x113B JUMPI PUSH2 0x113B PUSH2 0x21DB JUMP JUMPDEST PUSH1 0x1 PUSH1 0x1 PUSH1 0xE0 SHL SUB NOT SWAP1 SWAP3 AND PUSH1 0x20 SWAP3 DUP4 MUL SWAP2 SWAP1 SWAP2 ADD SWAP1 SWAP2 ADD MSTORE DUP1 MLOAD PUSH4 0x57B001F9 PUSH1 0xE0 SHL SWAP1 DUP3 SWAP1 PUSH1 0x1 SWAP1 DUP2 LT PUSH2 0x1172 JUMPI PUSH2 0x1172 PUSH2 0x21DB JUMP JUMPDEST PUSH1 0x20 MUL PUSH1 0x20 ADD ADD MLOAD PUSH1 0x20 ADD MLOAD PUSH1 0x8 DUP2 MLOAD DUP2 LT PUSH2 0x1190 JUMPI PUSH2 0x1190 PUSH2 0x21DB JUMP JUMPDEST PUSH1 0x1 PUSH1 0x1 PUSH1 0xE0 SHL SUB NOT SWAP1 SWAP3 AND PUSH1 0x20 SWAP3 DUP4 MUL SWAP2 SWAP1 SWAP2 ADD SWAP1 SWAP2 ADD MSTORE DUP1 MLOAD PUSH4 0x595C6A67 PUSH1 0xE0 SHL SWAP1 DUP3 SWAP1 PUSH1 0x1 SWAP1 DUP2 LT PUSH2 0x11C7 JUMPI PUSH2 0x11C7 PUSH2 0x21DB JUMP JUMPDEST PUSH1 0x20 MUL PUSH1 0x20 ADD ADD MLOAD PUSH1 0x20 ADD MLOAD PUSH1 0x9 DUP2 MLOAD DUP2 LT PUSH2 0x11E5 JUMPI PUSH2 0x11E5 PUSH2 0x21DB JUMP JUMPDEST PUSH1 0x1 PUSH1 0x1 PUSH1 0xE0 SHL SUB NOT SWAP1 SWAP3 AND PUSH1 0x20 SWAP3 DUP4 MUL SWAP2 SWAP1 SWAP2 ADD SWAP1 SWAP2 ADD MSTORE DUP1 MLOAD PUSH4 0x8A2DDD03 PUSH1 0xE0 SHL SWAP1 DUP3 SWAP1 PUSH1 0x1 SWAP1 DUP2 LT PUSH2 0x121C JUMPI PUSH2 0x121C PUSH2 0x21DB JUMP JUMPDEST PUSH1 0x20 MUL PUSH1 0x20 ADD ADD MLOAD PUSH1 0x20 ADD MLOAD PUSH1 0xA DUP2 MLOAD DUP2 LT PUSH2 0x123A JUMPI PUSH2 0x123A PUSH2 0x21DB JUMP JUMPDEST PUSH1 0x20 MUL PUSH1 0x20 ADD ADD SWAP1 PUSH1 0x1 PUSH1 0x1 PUSH1 0xE0 SHL SUB NOT AND SWAP1 DUP2 PUSH1 0x1 PUSH1 0x1 PUSH1 0xE0 SHL SUB NOT AND DUP2 MSTORE POP POP PUSH32 0x756AF45F4CE05D832BEE0C171992C529AD6D3CA8E13303D78FEACE2F8FD7FAF2 DUP2 PUSH1 0x1 DUP2 MLOAD DUP2 LT PUSH2 0x1290 JUMPI PUSH2 0x1290 PUSH2 0x21DB JUMP JUMPDEST PUSH1 0x20 MUL PUSH1 0x20 ADD ADD MLOAD PUSH1 0x20 ADD MLOAD PUSH1 0xB DUP2 MLOAD DUP2 LT PUSH2 0x12AE JUMPI PUSH2 0x12AE PUSH2 0x21DB JUMP JUMPDEST PUSH1 0x1 PUSH1 0x1 PUSH1 0xE0 SHL SUB NOT SWAP1 SWAP3 AND PUSH1 0x20 SWAP3 DUP4 MUL SWAP2 SWAP1 SWAP2 ADD DUP3 ADD MSTORE PUSH1 0x40 MLOAD PUSH2 0x12F2 SWAP2 ADD PUSH24 0x4C4956454C595F53595354454D5F41444D494E5F524F4C45 PUSH1 0x40 SHL DUP2 MSTORE PUSH1 0x18 ADD SWAP1 JUMP JUMPDEST PUSH1 0x40 MLOAD PUSH1 0x20 DUP2 DUP4 SUB SUB DUP2 MSTORE SWAP1 PUSH1 0x40 MSTORE DUP1 MLOAD SWAP1 PUSH1 0x20 ADD KECCAK256 DUP2 PUSH1 0x2 DUP2 MLOAD DUP2 LT PUSH2 0x131B JUMPI PUSH2 0x131B PUSH2 0x21DB JUMP JUMPDEST PUSH1 0x20 MUL PUSH1 0x20 ADD ADD MLOAD PUSH1 0x0 ADD DUP2 DUP2 MSTORE POP POP PUSH1 0x1 DUP2 PUSH1 0x2 DUP2 MLOAD DUP2 LT PUSH2 0x1340 JUMPI PUSH2 0x1340 PUSH2 0x21DB JUMP JUMPDEST PUSH1 0x20 SWAP1 DUP2 MUL SWAP2 SWAP1 SWAP2 ADD ADD MLOAD SWAP1 ISZERO ISZERO PUSH1 0x40 SWAP2 DUP3 ADD MSTORE DUP1 MLOAD PUSH1 0x2 DUP1 DUP3 MSTORE PUSH1 0x60 DUP3 ADD SWAP1 SWAP3 MSTORE SWAP1 DUP2 PUSH1 0x20 ADD PUSH1 0x20 DUP3 MUL DUP1 CALLDATASIZE DUP4 CALLDATACOPY ADD SWAP1 POP POP DUP2 PUSH1 0x2 DUP2 MLOAD DUP2 LT PUSH2 0x1386 JUMPI PUSH2 0x1386 PUSH2 0x21DB JUMP JUMPDEST PUSH1 0x20 MUL PUSH1 0x20 ADD ADD MLOAD PUSH1 0x20 ADD DUP2 SWAP1 MSTORE POP PUSH4 0xD9DC1F19 PUSH1 0xE0 SHL DUP2 PUSH1 0x2 DUP2 MLOAD DUP2 LT PUSH2 0x13B0 JUMPI PUSH2 0x13B0 PUSH2 0x21DB JUMP JUMPDEST PUSH1 0x20 MUL PUSH1 0x20 ADD ADD MLOAD PUSH1 0x20 ADD MLOAD PUSH1 0x0 DUP2 MLOAD DUP2 LT PUSH2 0x13CE JUMPI PUSH2 0x13CE PUSH2 0x21DB JUMP JUMPDEST PUSH1 0x1 PUSH1 0x1 PUSH1 0xE0 SHL SUB NOT SWAP1 SWAP3 AND PUSH1 0x20 SWAP3 DUP4 MUL SWAP2 SWAP1 SWAP2 ADD SWAP1 SWAP2 ADD MSTORE DUP1 MLOAD PUSH4 0x7147855D PUSH1 0xE0 SHL SWAP1 DUP3 SWAP1 PUSH1 0x2 SWAP1 DUP2 LT PUSH2 0x1405 JUMPI PUSH2 0x1405 PUSH2 0x21DB JUMP JUMPDEST PUSH1 0x20 MUL PUSH1 0x20 ADD ADD MLOAD PUSH1 0x20 ADD MLOAD PUSH1 0x1 DUP2 MLOAD DUP2 LT PUSH2 0x1423 JUMPI PUSH2 0x1423 PUSH2 0x21DB JUMP JUMPDEST PUSH1 0x1 PUSH1 0x1 PUSH1 0xE0 SHL SUB NOT SWAP1 SWAP3 AND PUSH1 0x20 SWAP3 DUP4 MUL SWAP2 SWAP1 SWAP2 ADD DUP3 ADD MSTORE PUSH1 0x40 MLOAD PUSH2 0x1468 SWAP2 ADD PUSH25 0x4C4956454C595F41535345545F4D414E414745525F524F4C45 PUSH1 0x38 SHL DUP2 MSTORE PUSH1 0x19 ADD SWAP1 JUMP JUMPDEST PUSH1 0x40 MLOAD PUSH1 0x20 DUP2 DUP4 SUB SUB DUP2 MSTORE SWAP1 PUSH1 0x40 MSTORE DUP1 MLOAD SWAP1 PUSH1 0x20 ADD KECCAK256 DUP2 PUSH1 0x3 DUP2 MLOAD DUP2 LT PUSH2 0x1491 JUMPI PUSH2 0x1491 PUSH2 0x21DB JUMP JUMPDEST PUSH1 0x20 MUL PUSH1 0x20 ADD ADD MLOAD PUSH1 0x0 ADD DUP2 DUP2 MSTORE POP POP PUSH1 0x1 DUP2 PUSH1 0x3 DUP2 MLOAD DUP2 LT PUSH2 0x14B6 JUMPI PUSH2 0x14B6 PUSH2 0x21DB JUMP JUMPDEST PUSH1 0x20 SWAP1 DUP2 MUL SWAP2 SWAP1 SWAP2 ADD DUP2 ADD MLOAD SWAP2 ISZERO ISZERO PUSH1 0x40 SWAP3 DUP4 ADD MSTORE DUP2 MLOAD PUSH1 0x3 DUP1 DUP3 MSTORE PUSH1 0x80 DUP3 ADD SWAP1 SWAP4 MSTORE SWAP2 SWAP1 DUP3 ADD PUSH1 0x60 DUP1 CALLDATASIZE DUP4 CALLDATACOPY ADD SWAP1 POP POP DUP2 PUSH1 0x3 DUP2 MLOAD DUP2 LT PUSH2 0x14FA JUMPI PUSH2 0x14FA PUSH2 0x21DB JUMP JUMPDEST PUSH1 0x20 MUL PUSH1 0x20 ADD ADD MLOAD PUSH1 0x20 ADD DUP2 SWAP1 MSTORE POP PUSH4 0x6B839492 PUSH1 0xE0 SHL DUP2 PUSH1 0x3 DUP2 MLOAD DUP2 LT PUSH2 0x1524 JUMPI PUSH2 0x1524 PUSH2 0x21DB JUMP JUMPDEST PUSH1 0x20 MUL PUSH1 0x20 ADD ADD MLOAD PUSH1 0x20 ADD MLOAD PUSH1 0x0 DUP2 MLOAD DUP2 LT PUSH2 0x1542 JUMPI PUSH2 0x1542 PUSH2 0x21DB JUMP JUMPDEST PUSH1 0x1 PUSH1 0x1 PUSH1 0xE0 SHL SUB NOT SWAP1 SWAP3 AND PUSH1 0x20 SWAP3 DUP4 MUL SWAP2 SWAP1 SWAP2 ADD SWAP1 SWAP2 ADD MSTORE DUP1 MLOAD PUSH4 0x9A7E1873 PUSH1 0xE0 SHL SWAP1 DUP3 SWAP1 PUSH1 0x3 SWAP1 DUP2 LT PUSH2 0x1579 JUMPI PUSH2 0x1579 PUSH2 0x21DB JUMP JUMPDEST PUSH1 0x20 MUL PUSH1 0x20 ADD ADD MLOAD PUSH1 0x20 ADD MLOAD PUSH1 0x1 DUP2 MLOAD DUP2 LT PUSH2 0x1597 JUMPI PUSH2 0x1597 PUSH2 0x21DB JUMP JUMPDEST PUSH1 0x20 MUL PUSH1 0x20 ADD ADD SWAP1 PUSH1 0x1 PUSH1 0x1 PUSH1 0xE0 SHL SUB NOT AND SWAP1 DUP2 PUSH1 0x1 PUSH1 0x1 PUSH1 0xE0 SHL SUB NOT AND DUP2 MSTORE POP POP PUSH32 0xEC4AC1F7A145493F4B4D677B3706DED0B0EFFF6BC9B9DE9AB9D367B741BAE880 DUP2 PUSH1 0x3 DUP2 MLOAD DUP2 LT PUSH2 0x15ED JUMPI PUSH2 0x15ED PUSH2 0x21DB JUMP JUMPDEST PUSH1 0x20 MUL PUSH1 0x20 ADD ADD MLOAD PUSH1 0x20 ADD MLOAD PUSH1 0x2 DUP2 MLOAD DUP2 LT PUSH2 0x160B JUMPI PUSH2 0x160B PUSH2 0x21DB JUMP JUMPDEST PUSH1 0x1 PUSH1 0x1 PUSH1 0xE0 SHL SUB NOT SWAP1 SWAP3 AND PUSH1 0x20 SWAP3 DUP4 MUL SWAP2 SWAP1 SWAP2 ADD DUP3 ADD MSTORE PUSH1 0x40 MLOAD PUSH2 0x1630 SWAP2 ADD PUSH2 0x21F1 JUMP JUMPDEST PUSH1 0x40 MLOAD PUSH1 0x20 DUP2 DUP4 SUB SUB DUP2 MSTORE SWAP1 PUSH1 0x40 MSTORE DUP1 MLOAD SWAP1 PUSH1 0x20 ADD KECCAK256 DUP2 PUSH1 0x4 DUP2 MLOAD DUP2 LT PUSH2 0x1659 JUMPI PUSH2 0x1659 PUSH2 0x21DB JUMP JUMPDEST PUSH1 0x20 MUL PUSH1 0x20 ADD ADD MLOAD PUSH1 0x0 ADD DUP2 DUP2 MSTORE POP POP PUSH1 0x1 DUP2 PUSH1 0x4 DUP2 MLOAD DUP2 LT PUSH2 0x167E JUMPI PUSH2 0x167E PUSH2 0x21DB JUMP JUMPDEST PUSH1 0x20 SWAP1 DUP2 MUL SWAP2 SWAP1 SWAP2 ADD ADD MLOAD SWAP1 ISZERO ISZERO PUSH1 0x40 SWAP2 DUP3 ADD MSTORE DUP1 MLOAD PUSH1 0x2 DUP1 DUP3 MSTORE PUSH1 0x60 DUP3 ADD SWAP1 SWAP3 MSTORE SWAP1 DUP2 PUSH1 0x20 ADD PUSH1 0x20 DUP3 MUL DUP1 CALLDATASIZE DUP4 CALLDATACOPY ADD SWAP1 POP POP DUP2 PUSH1 0x4 DUP2 MLOAD DUP2 LT PUSH2 0x16C4 JUMPI PUSH2 0x16C4 PUSH2 0x21DB JUMP JUMPDEST PUSH1 0x20 MUL PUSH1 0x20 ADD ADD MLOAD PUSH1 0x20 ADD DUP2 SWAP1 MSTORE POP PUSH4 0xFDB92EC4 PUSH1 0xE0 SHL DUP2 PUSH1 0x4 DUP2 MLOAD DUP2 LT PUSH2 0x16EE JUMPI PUSH2 0x16EE PUSH2 0x21DB JUMP JUMPDEST PUSH1 0x20 MUL PUSH1 0x20 ADD ADD MLOAD PUSH1 0x20 ADD MLOAD PUSH1 0x0 DUP2 MLOAD DUP2 LT PUSH2 0x170C JUMPI PUSH2 0x170C PUSH2 0x21DB JUMP JUMPDEST PUSH1 0x1 PUSH1 0x1 PUSH1 0xE0 SHL SUB NOT SWAP1 SWAP3 AND PUSH1 0x20 SWAP3 DUP4 MUL SWAP2 SWAP1 SWAP2 ADD SWAP1 SWAP2 ADD MSTORE DUP1 MLOAD PUSH4 0x4DAF9AB7 PUSH1 0xE1 SHL SWAP1 DUP3 SWAP1 PUSH1 0x4 SWAP1 DUP2 LT PUSH2 0x1743 JUMPI PUSH2 0x1743 PUSH2 0x21DB JUMP JUMPDEST PUSH1 0x20 MUL PUSH1 0x20 ADD ADD MLOAD PUSH1 0x20 ADD MLOAD PUSH1 0x1 DUP2 MLOAD DUP2 LT PUSH2 0x1761 JUMPI PUSH2 0x1761 PUSH2 0x21DB JUMP JUMPDEST PUSH1 0x1 PUSH1 0x1 PUSH1 0xE0 SHL SUB NOT SWAP3 SWAP1 SWAP3 AND PUSH1 0x20 SWAP3 DUP4 MUL SWAP2 SWAP1 SWAP2 ADD DUP3 ADD MSTORE PUSH1 0x40 DUP1 MLOAD PUSH1 0xA0 DUP2 ADD DUP3 MSTORE SWAP8 DUP9 MSTORE SWAP1 DUP8 ADD SWAP6 SWAP1 SWAP6 MSTORE SWAP4 DUP6 ADD SWAP3 SWAP1 SWAP3 MSTORE POP POP ADDRESS PUSH1 0x60 DUP4 ADD MSTORE PUSH1 0x1 PUSH1 0x80 DUP4 ADD MSTORE SWAP1 SWAP2 JUMP JUMPDEST PUSH1 0x40 MLOAD PUSH21 0x4C4956454C595F414E4F4E594D4F55535F524F4C45 PUSH1 0x58 SHL PUSH1 0x20 DUP3 ADD MSTORE PUSH1 0x35 ADD PUSH2 0x603 JUMP JUMPDEST PUSH1 0x40 MLOAD PUSH25 0x4C4956454C595F41535345545F4D414E414745525F524F4C45 PUSH1 0x38 SHL PUSH1 0x20 DUP3 ADD MSTORE PUSH1 0x39 ADD PUSH2 0x603 JUMP JUMPDEST PUSH1 0x40 MLOAD PUSH1 0x20 ADD PUSH2 0x603 SWAP1 PUSH2 0x21F1 JUMP JUMPDEST PUSH1 0x40 MLOAD PUSH11 0x4C546F6B656E455243323 PUSH1 0xAC SHL PUSH1 0x20 DUP3 ADD MSTORE PUSH1 0x2B ADD PUSH2 0x603 JUMP JUMPDEST PUSH1 0x40 MLOAD PUSH17 0x4C4956454C595F41444D494E5F524F4C45 PUSH1 0x78 SHL PUSH1 0x20 DUP3 ADD MSTORE PUSH1 0x31 ADD PUSH2 0x603 JUMP JUMPDEST PUSH1 0x0 DUP1 DUP3 CALLDATALOAD PUSH2 0x1893 JUMPI PUSH1 0x40 MLOAD PUSH3 0x461BCD PUSH1 0xE5 SHL DUP2 MSTORE PUSH1 0x20 PUSH1 0x4 DUP3 ADD MSTORE PUSH1 0xE PUSH1 0x24 DUP3 ADD MSTORE PUSH14 0x125B9D985B1A5908131BD8DAD259 PUSH1 0x92 SHL PUSH1 0x44 DUP3 ADD MSTORE PUSH1 0x64 ADD PUSH2 0x26A JUMP JUMPDEST PUSH1 0x0 PUSH1 0x2 DUP6 ADD DUP2 PUSH2 0x18AA PUSH1 0x40 DUP8 ADD PUSH1 0x20 DUP9 ADD PUSH2 0x2225 JUMP JUMPDEST PUSH1 0x1 PUSH1 0x1 PUSH1 0xA0 SHL SUB SWAP1 DUP2 AND DUP3 MSTORE PUSH1 0x20 DUP1 DUP4 ADD SWAP4 SWAP1 SWAP4 MSTORE PUSH1 0x40 SWAP2 DUP3 ADD PUSH1 0x0 SWAP1 DUP2 KECCAK256 DUP9 CALLDATALOAD DUP3 MSTORE SWAP1 SWAP4 MSTORE SWAP2 KECCAK256 PUSH1 0x2 ADD SLOAD AND SUB PUSH2 0x1918 JUMPI PUSH1 0x40 MLOAD PUSH3 0x461BCD PUSH1 0xE5 SHL DUP2 MSTORE PUSH1 0x20 PUSH1 0x4 DUP3 ADD MSTORE PUSH1 0x10 PUSH1 0x24 DUP3 ADD MSTORE PUSH16 0x131BD8DAD25908139BDD08119BDD5B99 PUSH1 0x82 SHL PUSH1 0x44 DUP3 ADD MSTORE PUSH1 0x64 ADD PUSH2 0x26A JUMP JUMPDEST PUSH1 0x1 PUSH1 0x2 DUP6 ADD PUSH1 0x0 PUSH2 0x1930 PUSH1 0x40 DUP8 ADD PUSH1 0x20 DUP9 ADD PUSH2 0x2225 JUMP JUMPDEST PUSH1 0x1 PUSH1 0x1 PUSH1 0xA0 SHL SUB AND DUP2 MSTORE PUSH1 0x20 DUP1 DUP3 ADD SWAP3 SWAP1 SWAP3 MSTORE PUSH1 0x40 SWAP1 DUP2 ADD PUSH1 0x0 SWAP1 DUP2 KECCAK256 DUP8 CALLDATALOAD DUP3 MSTORE SWAP1 SWAP3 MSTORE SWAP1 KECCAK256 PUSH1 0x2 ADD SLOAD PUSH1 0x1 PUSH1 0xA0 SHL SWAP1 DIV PUSH1 0xFF AND PUSH1 0x3 DUP2 GT ISZERO PUSH2 0x1976 JUMPI PUSH2 0x1976 PUSH2 0x21C5 JUMP JUMPDEST EQ PUSH2 0x19B8 JUMPI PUSH1 0x40 MLOAD PUSH3 0x461BCD PUSH1 0xE5 SHL DUP2 MSTORE PUSH1 0x20 PUSH1 0x4 DUP3 ADD MSTORE PUSH1 0x12 PUSH1 0x24 DUP3 ADD MSTORE PUSH18 0x496E76616C6964204C6F636B205374617465 PUSH1 0x70 SHL PUSH1 0x44 DUP3 ADD MSTORE PUSH1 0x64 ADD PUSH2 0x26A JUMP JUMPDEST PUSH1 0x0 PUSH1 0x2 DUP6 ADD DUP2 PUSH2 0x19CF PUSH1 0x40 DUP8 ADD PUSH1 0x20 DUP9 ADD PUSH2 0x2225 JUMP JUMPDEST PUSH1 0x1 PUSH1 0x1 PUSH1 0xA0 SHL SUB AND DUP2 MSTORE PUSH1 0x20 DUP1 DUP3 ADD SWAP3 SWAP1 SWAP3 MSTORE PUSH1 0x40 SWAP1 DUP2 ADD PUSH1 0x0 SWAP1 DUP2 KECCAK256 DUP8 CALLDATALOAD DUP3 MSTORE DUP4 MSTORE DUP2 DUP2 KECCAK256 SLOAD SWAP4 POP SWAP2 DUP8 SWAP2 DUP4 SWAP2 PUSH2 0x1A0C SWAP2 DUP10 ADD SWAP1 DUP10 ADD PUSH2 0x2225 JUMP JUMPDEST PUSH1 0x1 PUSH1 0x1 PUSH1 0xA0 SHL SUB AND PUSH1 0x1 PUSH1 0x1 PUSH1 0xA0 SHL SUB AND DUP2 MSTORE PUSH1 0x20 ADD SWAP1 DUP2 MSTORE PUSH1 0x20 ADD PUSH1 0x0 KECCAK256 PUSH1 0x1 ADD SLOAD SWAP1 POP PUSH1 0x0 DUP7 PUSH1 0x2 ADD PUSH1 0x0 DUP8 PUSH1 0x20 ADD PUSH1 0x20 DUP2 ADD SWAP1 PUSH2 0x1A4D SWAP2 SWAP1 PUSH2 0x2225 JUMP JUMPDEST PUSH1 0x1 PUSH1 0x1 PUSH1 0xA0 SHL SUB SWAP1 DUP2 AND DUP3 MSTORE PUSH1 0x20 DUP1 DUP4 ADD SWAP4 SWAP1 SWAP4 MSTORE PUSH1 0x40 SWAP2 DUP3 ADD PUSH1 0x0 SWAP1 DUP2 KECCAK256 DUP11 CALLDATALOAD DUP3 MSTORE SWAP1 SWAP4 MSTORE SWAP2 KECCAK256 PUSH1 0x2 ADD SLOAD AND SWAP1 POP DUP3 DUP3 LT ISZERO PUSH2 0x1A9D JUMPI PUSH1 0x40 MLOAD PUSH3 0x461BCD PUSH1 0xE5 SHL DUP2 MSTORE PUSH1 0x4 ADD PUSH2 0x26A SWAP1 PUSH2 0x2240 JUMP JUMPDEST DUP3 DUP3 SUB DUP8 PUSH1 0x0 PUSH2 0x1AB3 PUSH1 0x40 DUP11 ADD PUSH1 0x20 DUP12 ADD PUSH2 0x2225 JUMP JUMPDEST PUSH1 0x1 PUSH1 0x1 PUSH1 0xA0 SHL SUB SWAP1 DUP2 AND DUP3 MSTORE PUSH1 0x20 DUP1 DUP4 ADD SWAP4 SWAP1 SWAP4 MSTORE PUSH1 0x40 SWAP2 DUP3 ADD PUSH1 0x0 SWAP1 DUP2 KECCAK256 PUSH1 0x1 ADD SWAP5 SWAP1 SWAP5 SSTORE DUP5 AND DUP4 MSTORE SWAP1 DUP10 SWAP1 MSTORE DUP2 KECCAK256 DUP1 SLOAD DUP6 SWAP3 SWAP1 PUSH2 0x1AF4 SWAP1 DUP5 SWAP1 PUSH2 0x21B2 JUMP JUMPDEST SWAP1 SWAP2 SSTORE POP PUSH1 0x3 SWAP1 POP PUSH1 0x2 DUP9 ADD PUSH1 0x0 PUSH2 0x1B12 PUSH1 0x40 DUP11 ADD PUSH1 0x20 DUP12 ADD PUSH2 0x2225 JUMP JUMPDEST PUSH1 0x1 PUSH1 0x1 PUSH1 0xA0 SHL SUB AND DUP2 MSTORE PUSH1 0x20 DUP1 DUP3 ADD SWAP3 SWAP1 SWAP3 MSTORE PUSH1 0x40 SWAP1 DUP2 ADD PUSH1 0x0 SWAP1 DUP2 KECCAK256 DUP11 CALLDATALOAD DUP3 MSTORE SWAP1 SWAP3 MSTORE SWAP1 KECCAK256 PUSH1 0x2 ADD DUP1 SLOAD PUSH1 0xFF PUSH1 0xA0 SHL NOT AND PUSH1 0x1 PUSH1 0xA0 SHL DUP4 PUSH1 0x3 DUP2 GT ISZERO PUSH2 0x1B5C JUMPI PUSH2 0x1B5C PUSH2 0x21C5 JUMP JUMPDEST MUL OR SWAP1 SSTORE POP SWAP7 SWAP2 SWAP6 POP SWAP1 SWAP4 POP POP POP POP JUMP JUMPDEST PUSH1 0x0 DUP2 PUSH2 0x1BAD JUMPI PUSH1 0x40 MLOAD PUSH3 0x461BCD PUSH1 0xE5 SHL DUP2 MSTORE PUSH1 0x20 PUSH1 0x4 DUP3 ADD MSTORE PUSH1 0xE PUSH1 0x24 DUP3 ADD MSTORE PUSH14 0x125B9D985B1A5908131BD8DAD259 PUSH1 0x92 SHL PUSH1 0x44 DUP3 ADD MSTORE PUSH1 0x64 ADD PUSH2 0x26A JUMP JUMPDEST CALLER PUSH1 0x0 SWAP1 DUP2 MSTORE PUSH1 0x2 DUP1 DUP6 ADD PUSH1 0x20 SWAP1 DUP2 MSTORE PUSH1 0x40 DUP1 DUP5 KECCAK256 DUP7 DUP6 MSTORE SWAP1 SWAP2 MSTORE SWAP1 SWAP2 KECCAK256 ADD SLOAD PUSH1 0x1 PUSH1 0x1 PUSH1 0xA0 SHL SUB AND PUSH2 0x1C15 JUMPI PUSH1 0x40 MLOAD PUSH3 0x461BCD PUSH1 0xE5 SHL DUP2 MSTORE PUSH1 0x20 PUSH1 0x4 DUP3 ADD MSTORE PUSH1 0x10 PUSH1 0x24 DUP3 ADD MSTORE PUSH16 0x131BD8DAD25908139BDD08119BDD5B99 PUSH1 0x82 SHL PUSH1 0x44 DUP3 ADD MSTORE PUSH1 0x64 ADD PUSH2 0x26A JUMP JUMPDEST CALLER PUSH1 0x0 SWAP1 DUP2 MSTORE PUSH1 0x2 DUP5 ADD PUSH1 0x20 SWAP1 DUP2 MSTORE PUSH1 0x40 DUP1 DUP4 KECCAK256 DUP6 DUP5 MSTORE SWAP1 SWAP2 MSTORE SWAP1 KECCAK256 PUSH1 0x1 ADD SLOAD PUSH1 0x1 PUSH1 0x1 PUSH1 0x80 SHL SUB TIMESTAMP DUP2 AND PUSH1 0x1 PUSH1 0x80 SHL SWAP1 SWAP3 DIV AND LT PUSH2 0x1C8B JUMPI PUSH1 0x40 MLOAD PUSH3 0x461BCD PUSH1 0xE5 SHL DUP2 MSTORE PUSH1 0x20 PUSH1 0x4 DUP3 ADD MSTORE PUSH1 0x12 PUSH1 0x24 DUP3 ADD MSTORE PUSH18 0x496C6C6567616C20436C61696D204C6F636B PUSH1 0x70 SHL PUSH1 0x44 DUP3 ADD MSTORE PUSH1 0x64 ADD PUSH2 0x26A JUMP JUMPDEST CALLER PUSH1 0x0 DUP2 DUP2 MSTORE PUSH1 0x2 DUP6 ADD PUSH1 0x20 SWAP1 DUP2 MSTORE PUSH1 0x40 DUP1 DUP4 KECCAK256 DUP7 DUP5 MSTORE DUP3 MSTORE DUP1 DUP4 KECCAK256 SLOAD SWAP4 DUP4 MSTORE SWAP1 DUP7 SWAP1 MSTORE SWAP1 KECCAK256 PUSH1 0x1 ADD SLOAD DUP2 DUP2 LT ISZERO PUSH2 0x1CD5 JUMPI PUSH1 0x40 MLOAD PUSH3 0x461BCD PUSH1 0xE5 SHL DUP2 MSTORE PUSH1 0x4 ADD PUSH2 0x26A SWAP1 PUSH2 0x2240 JUMP JUMPDEST CALLER PUSH1 0x0 SWAP1 DUP2 MSTORE PUSH1 0x20 DUP7 SWAP1 MSTORE PUSH1 0x40 DUP2 KECCAK256 DUP4 DUP4 SUB PUSH1 0x1 DUP3 ADD SSTORE DUP1 SLOAD DUP5 SWAP3 SWAP1 PUSH2 0x1CFC SWAP1 DUP5 SWAP1 PUSH2 0x21B2 JUMP JUMPDEST SWAP1 SWAP2 SSTORE POP POP CALLER PUSH1 0x0 SWAP1 DUP2 MSTORE PUSH1 0x2 SWAP6 DUP7 ADD PUSH1 0x20 SWAP1 DUP2 MSTORE PUSH1 0x40 DUP1 DUP4 KECCAK256 SWAP7 DUP4 MSTORE SWAP6 SWAP1 MSTORE SWAP4 SWAP1 SWAP4 KECCAK256 SWAP1 SWAP4 ADD DUP1 SLOAD PUSH1 0xFF PUSH1 0xA0 SHL NOT AND PUSH1 0x1 PUSH1 0xA1 SHL OR SWAP1 SSTORE POP SWAP1 SWAP2 SWAP1 POP JUMP JUMPDEST PUSH1 0x1 PUSH1 0x1 PUSH1 0xA0 SHL SUB DUP2 AND PUSH1 0x0 SWAP1 DUP2 MSTORE PUSH1 0x1 DUP4 ADD PUSH1 0x20 MSTORE PUSH1 0x40 DUP2 KECCAK256 SLOAD ISZERO ISZERO JUMPDEST SWAP4 SWAP3 POP POP POP JUMP JUMPDEST PUSH1 0x0 PUSH2 0x1D59 DUP4 PUSH1 0x1 PUSH1 0x1 PUSH1 0xA0 SHL SUB DUP5 AND PUSH2 0x1D8A JUMP JUMPDEST PUSH1 0x0 PUSH2 0x1D59 DUP4 PUSH1 0x1 PUSH1 0x1 PUSH1 0xA0 SHL SUB DUP5 AND PUSH2 0x1E7D JUMP JUMPDEST PUSH1 0x0 DUP2 DUP2 MSTORE PUSH1 0x1 DUP4 ADD PUSH1 0x20 MSTORE PUSH1 0x40 DUP2 KECCAK256 SLOAD DUP1 ISZERO PUSH2 0x1E73 JUMPI PUSH1 0x0 PUSH2 0x1DAE PUSH1 0x1 DUP4 PUSH2 0x2281 JUMP JUMPDEST DUP6 SLOAD SWAP1 SWAP2 POP PUSH1 0x0 SWAP1 PUSH2 0x1DC2 SWAP1 PUSH1 0x1 SWAP1 PUSH2 0x2281 JUMP JUMPDEST SWAP1 POP DUP2 DUP2 EQ PUSH2 0x1E27 JUMPI PUSH1 0x0 DUP7 PUSH1 0x0 ADD DUP3 DUP2 SLOAD DUP2 LT PUSH2 0x1DE2 JUMPI PUSH2 0x1DE2 PUSH2 0x21DB JUMP JUMPDEST SWAP1 PUSH1 0x0 MSTORE PUSH1 0x20 PUSH1 0x0 KECCAK256 ADD SLOAD SWAP1 POP DUP1 DUP8 PUSH1 0x0 ADD DUP5 DUP2 SLOAD DUP2 LT PUSH2 0x1E05 JUMPI PUSH2 0x1E05 PUSH2 0x21DB JUMP JUMPDEST PUSH1 0x0 SWAP2 DUP3 MSTORE PUSH1 0x20 DUP1 DUP4 KECCAK256 SWAP1 SWAP2 ADD SWAP3 SWAP1 SWAP3 SSTORE SWAP2 DUP3 MSTORE PUSH1 0x1 DUP9 ADD SWAP1 MSTORE PUSH1 0x40 SWAP1 KECCAK256 DUP4 SWAP1 SSTORE JUMPDEST DUP6 SLOAD DUP7 SWAP1 DUP1 PUSH2 0x1E38 JUMPI PUSH2 0x1E38 PUSH2 0x2294 JUMP JUMPDEST PUSH1 0x1 SWAP1 SUB DUP2 DUP2 SWAP1 PUSH1 0x0 MSTORE PUSH1 0x20 PUSH1 0x0 KECCAK256 ADD PUSH1 0x0 SWAP1 SSTORE SWAP1 SSTORE DUP6 PUSH1 0x1 ADD PUSH1 0x0 DUP7 DUP2 MSTORE PUSH1 0x20 ADD SWAP1 DUP2 MSTORE PUSH1 0x20 ADD PUSH1 0x0 KECCAK256 PUSH1 0x0 SWAP1 SSTORE PUSH1 0x1 SWAP4 POP POP POP POP PUSH2 0x5E8 JUMP JUMPDEST PUSH1 0x0 SWAP2 POP POP PUSH2 0x5E8 JUMP JUMPDEST PUSH1 0x0 DUP2 DUP2 MSTORE PUSH1 0x1 DUP4 ADD PUSH1 0x20 MSTORE PUSH1 0x40 DUP2 KECCAK256 SLOAD PUSH2 0x1EC4 JUMPI POP DUP2 SLOAD PUSH1 0x1 DUP2 DUP2 ADD DUP5 SSTORE PUSH1 0x0 DUP5 DUP2 MSTORE PUSH1 0x20 DUP1 DUP3 KECCAK256 SWAP1 SWAP4 ADD DUP5 SWAP1 SSTORE DUP5 SLOAD DUP5 DUP3 MSTORE DUP3 DUP7 ADD SWAP1 SWAP4 MSTORE PUSH1 0x40 SWAP1 KECCAK256 SWAP2 SWAP1 SWAP2 SSTORE PUSH2 0x5E8 JUMP JUMPDEST POP PUSH1 0x0 PUSH2 0x5E8 JUMP JUMPDEST DUP1 CALLDATALOAD PUSH1 0x1 PUSH1 0x1 PUSH1 0xA0 SHL SUB DUP2 AND DUP2 EQ PUSH2 0x1EE3 JUMPI PUSH1 0x0 DUP1 REVERT JUMPDEST SWAP2 SWAP1 POP JUMP JUMPDEST PUSH1 0x0 DUP1 DUP3 DUP5 SUB PUSH1 0xA0 DUP2 SLT ISZERO PUSH2 0x1EFC JUMPI PUSH1 0x0 DUP1 REVERT JUMPDEST DUP4 CALLDATALOAD SWAP3 POP PUSH1 0x80 PUSH1 0x1F NOT DUP3 ADD SLT ISZERO PUSH2 0x1F12 JUMPI PUSH1 0x0 DUP1 REVERT JUMPDEST POP PUSH1 0x40 MLOAD PUSH1 0x80 DUP2 ADD DUP2 DUP2 LT PUSH8 0xFFFFFFFFFFFFFFFF DUP3 GT OR ISZERO PUSH2 0x1F44 JUMPI PUSH4 0x4E487B71 PUSH1 0xE0 SHL PUSH1 0x0 MSTORE PUSH1 0x41 PUSH1 0x4 MSTORE PUSH1 0x24 PUSH1 0x0 REVERT JUMPDEST PUSH1 0x40 MSTORE PUSH2 0x1F53 PUSH1 0x20 DUP6 ADD PUSH2 0x1ECC JUMP JUMPDEST DUP2 MSTORE PUSH2 0x1F61 PUSH1 0x40 DUP6 ADD PUSH2 0x1ECC JUMP JUMPDEST PUSH1 0x20 DUP3 ADD MSTORE PUSH1 0x60 DUP5 ADD CALLDATALOAD PUSH1 0x40 DUP3 ADD MSTORE PUSH1 0x80 DUP5 ADD CALLDATALOAD PUSH1 0x60 DUP3 ADD MSTORE DUP1 SWAP2 POP POP SWAP3 POP SWAP3 SWAP1 POP JUMP JUMPDEST PUSH1 0x0 DUP1 PUSH1 0x0 DUP1 PUSH1 0x80 DUP6 DUP8 SUB SLT ISZERO PUSH2 0x1F9B JUMPI PUSH1 0x0 DUP1 REVERT JUMPDEST DUP5 CALLDATALOAD SWAP4 POP PUSH2 0x1FAB PUSH1 0x20 DUP7 ADD PUSH2 0x1ECC JUMP JUMPDEST SWAP3 POP PUSH2 0x1FB9 PUSH1 0x40 DUP7 ADD PUSH2 0x1ECC JUMP JUMPDEST SWAP4 SWAP7 SWAP3 SWAP6 POP SWAP3 SWAP4 PUSH1 0x60 ADD CALLDATALOAD SWAP3 POP POP JUMP JUMPDEST PUSH1 0x0 DUP1 PUSH1 0x0 PUSH1 0x60 DUP5 DUP7 SUB SLT ISZERO PUSH2 0x1FDE JUMPI PUSH1 0x0 DUP1 REVERT JUMPDEST DUP4 CALLDATALOAD SWAP3 POP PUSH2 0x1FEE PUSH1 0x20 DUP6 ADD PUSH2 0x1ECC JUMP JUMPDEST SWAP2 POP PUSH1 0x40 DUP5 ADD CALLDATALOAD DUP1 ISZERO ISZERO DUP2 EQ PUSH2 0x2003 JUMPI PUSH1 0x0 DUP1 REVERT JUMPDEST DUP1 SWAP2 POP POP SWAP3 POP SWAP3 POP SWAP3 JUMP JUMPDEST PUSH1 0x0 DUP1 PUSH1 0x0 PUSH1 0x60 DUP5 DUP7 SUB SLT ISZERO PUSH2 0x2023 JUMPI PUSH1 0x0 DUP1 REVERT JUMPDEST POP POP DUP2 CALLDATALOAD SWAP4 PUSH1 0x20 DUP4 ADD CALLDATALOAD SWAP4 POP PUSH1 0x40 SWAP1 SWAP3 ADD CALLDATALOAD SWAP2 SWAP1 POP JUMP JUMPDEST PUSH1 0x0 PUSH1 0xC0 DUP3 ADD DUP5 MLOAD DUP4 MSTORE PUSH1 0x20 DUP1 DUP7 ADD MLOAD DUP2 DUP6 ADD MSTORE PUSH1 0x40 DUP1 DUP8 ADD MLOAD DUP2 DUP7 ADD MSTORE PUSH1 0x60 PUSH1 0x1 DUP1 PUSH1 0xA0 SHL SUB DUP2 DUP10 ADD MLOAD AND DUP2 DUP8 ADD MSTORE PUSH1 0x80 DUP1 DUP10 ADD MLOAD ISZERO ISZERO DUP2 DUP9 ADD MSTORE PUSH1 0xC0 PUSH1 0xA0 DUP9 ADD MSTORE DUP5 DUP9 MLOAD DUP1 DUP8 MSTORE PUSH1 0xE0 DUP10 ADD SWAP2 POP PUSH1 0xE0 DUP2 PUSH1 0x5 SHL DUP11 ADD ADD SWAP7 POP DUP6 DUP11 ADD PUSH1 0x0 DUP1 JUMPDEST DUP4 DUP2 LT ISZERO PUSH2 0x211A JUMPI DUP12 DUP11 SUB PUSH1 0xDF NOT ADD DUP6 MSTORE DUP3 MLOAD DUP1 MLOAD DUP12 MSTORE DUP10 DUP2 ADD MLOAD DUP11 DUP13 ADD DUP10 SWAP1 MSTORE DUP1 MLOAD DUP10 DUP14 ADD DUP2 SWAP1 MSTORE SWAP1 DUP12 ADD SWAP1 DUP5 SWAP1 DUP10 DUP15 ADD SWAP1 JUMPDEST DUP1 DUP4 LT ISZERO PUSH2 0x20F9 JUMPI DUP4 MLOAD PUSH1 0x1 PUSH1 0x1 PUSH1 0xE0 SHL SUB NOT AND DUP3 MSTORE SWAP3 DUP14 ADD SWAP3 PUSH1 0x1 SWAP3 SWAP1 SWAP3 ADD SWAP2 SWAP1 DUP14 ADD SWAP1 PUSH2 0x20CF JUMP JUMPDEST POP SWAP3 DUP12 ADD MLOAD ISZERO ISZERO SWAP13 DUP12 ADD SWAP13 SWAP1 SWAP13 MSTORE POP SWAP10 POP SWAP4 DUP9 ADD SWAP4 SWAP2 DUP9 ADD SWAP2 PUSH1 0x1 ADD PUSH2 0x209B JUMP JUMPDEST POP SWAP8 SWAP13 SWAP12 POP POP POP POP POP POP POP POP POP POP POP POP JUMP JUMPDEST PUSH1 0x0 DUP1 PUSH1 0x40 DUP4 DUP6 SUB SLT ISZERO PUSH2 0x213F JUMPI PUSH1 0x0 DUP1 REVERT JUMPDEST DUP3 CALLDATALOAD SWAP2 POP PUSH1 0x20 DUP4 ADD CALLDATALOAD PUSH8 0xFFFFFFFFFFFFFFFF DUP2 GT ISZERO PUSH2 0x215D JUMPI PUSH1 0x0 DUP1 REVERT JUMPDEST DUP4 ADD PUSH1 0x60 DUP2 DUP7 SUB SLT ISZERO PUSH2 0x216F JUMPI PUSH1 0x0 DUP1 REVERT JUMPDEST DUP1 SWAP2 POP POP SWAP3 POP SWAP3 SWAP1 POP JUMP JUMPDEST PUSH1 0x0 DUP1 PUSH1 0x40 DUP4 DUP6 SUB SLT ISZERO PUSH2 0x218D JUMPI PUSH1 0x0 DUP1 REVERT JUMPDEST POP POP DUP1 CALLDATALOAD SWAP3 PUSH1 0x20 SWAP1 SWAP2 ADD CALLDATALOAD SWAP2 POP JUMP JUMPDEST PUSH4 0x4E487B71 PUSH1 0xE0 SHL PUSH1 0x0 MSTORE PUSH1 0x11 PUSH1 0x4 MSTORE PUSH1 0x24 PUSH1 0x0 REVERT JUMPDEST DUP1 DUP3 ADD DUP1 DUP3 GT ISZERO PUSH2 0x5E8 JUMPI PUSH2 0x5E8 PUSH2 0x219C JUMP JUMPDEST PUSH4 0x4E487B71 PUSH1 0xE0 SHL PUSH1 0x0 MSTORE PUSH1 0x21 PUSH1 0x4 MSTORE PUSH1 0x24 PUSH1 0x0 REVERT JUMPDEST PUSH4 0x4E487B71 PUSH1 0xE0 SHL PUSH1 0x0 MSTORE PUSH1 0x32 PUSH1 0x4 MSTORE PUSH1 0x24 PUSH1 0x0 REVERT JUMPDEST PUSH32 0x4C4956454C595F434F4D4D554E4954595F44414F5F4558454355544F525F524F DUP2 MSTORE PUSH2 0x4C45 PUSH1 0xF0 SHL PUSH1 0x20 DUP3 ADD MSTORE PUSH1 0x22 ADD SWAP1 JUMP JUMPDEST PUSH1 0x0 PUSH1 0x20 DUP3 DUP5 SUB SLT ISZERO PUSH2 0x2237 JUMPI PUSH1 0x0 DUP1 REVERT JUMPDEST PUSH2 0x1D59 DUP3 PUSH2 0x1ECC JUMP JUMPDEST PUSH1 0x20 DUP1 DUP3 MSTORE PUSH1 0x21 SWAP1 DUP3 ADD MSTORE PUSH32 0x496E73756666696369656E74204163636F756E74204C6F636B2042616C616E63 PUSH1 0x40 DUP3 ADD MSTORE PUSH1 0x65 PUSH1 0xF8 SHL PUSH1 0x60 DUP3 ADD MSTORE PUSH1 0x80 ADD SWAP1 JUMP JUMPDEST DUP2 DUP2 SUB DUP2 DUP2 GT ISZERO PUSH2 0x5E8 JUMPI PUSH2 0x5E8 PUSH2 0x219C JUMP JUMPDEST PUSH4 0x4E487B71 PUSH1 0xE0 SHL PUSH1 0x0 MSTORE PUSH1 0x31 PUSH1 0x4 MSTORE PUSH1 0x24 PUSH1 0x0 REVERT INVALID LOG2 PUSH5 0x6970667358 0x22 SLT KECCAK256 DELEGATECALL PUSH31 0x56A67D3A05E920AC94E3A735529A7383E84AE9DB9867DEBA171D8B31F67A64 PUSH20 0x6F6C634300081100330000000000000000000000 "
    },
    "gasEstimates": {
      "creation": {
        "codeDepositCost": "1785600",
        "executionCost": "1912",
        "totalCost": "1787512"
      },
      "external": {
        "LIB_NAME()": "337",
        "LIB_VERSION()": "327",
        "LIVELY_ADMIN_ROLE()": "359",
        "LIVELY_ANONYMOUS_ROLE()": "338",
        "LIVELY_ASSET_MANAGER_ROLE()": "360",
        "LIVELY_COMMUNITY_DAO_EXECUTOR_ROLE()": "424",
        "LIVELY_SYSTEM_ADMIN_ROLE()": "404",
        "claimToken(LivelyStorage.DataCollection storage,bytes32)": "80367",
        "createRequestContext(bytes32,bytes32,bytes32)": "infinite",
        "lockToken(LivelyStorage.DataCollection storage,IERC20Lock.LockTokenRequest)": "infinite",
        "transfer(LivelyStorage.DataCollection storage,address,address,uint256)": "infinite",
        "unlockToken(LivelyStorage.DataCollection storage,IERC20Lock.UnLockTokenRequest)": "infinite",
        "updateTaxWhitelist(LivelyStorage.DataCollection storage,address,bool)": "infinite"
      }
    },
    "methodIdentifiers": {
      "LIB_NAME()": "bec94751",
      "LIB_VERSION()": "2466209b",
      "LIVELY_ADMIN_ROLE()": "d8b31999",
      "LIVELY_ANONYMOUS_ROLE()": "9bb20d51",
      "LIVELY_ASSET_MANAGER_ROLE()": "a6196757",
      "LIVELY_COMMUNITY_DAO_EXECUTOR_ROLE()": "b899699c",
      "LIVELY_SYSTEM_ADMIN_ROLE()": "5632ffd8",
      "claimToken(LivelyStorage.DataCollection storage,bytes32)": "f7d6b5af",
      "createRequestContext(bytes32,bytes32,bytes32)": "97ca328d",
      "lockToken(LivelyStorage.DataCollection storage,IERC20Lock.LockTokenRequest)": "10e1fc40",
      "transfer(LivelyStorage.DataCollection storage,address,address,uint256)": "3de90db3",
      "unlockToken(LivelyStorage.DataCollection storage,IERC20Lock.UnLockTokenRequest)": "f1c3afef",
      "updateTaxWhitelist(LivelyStorage.DataCollection storage,address,bool)": "4572e0c1"
    }
  },
  "storageLayout": {
    "storage": [],
    "types": null
  },
  "userdoc": {
    "kind": "user",
    "methods": {},
    "version": 1
  }
}