{
  "contractName": "LTokenERC20",
  "sourceName": "src/contracts/lib/token/LTokenERC20.sol",
  "abi": [
    {
      "inputs": [],
      "name": "LIB_NAME",
      "outputs": [
        {
          "internalType": "bytes32",
          "name": "",
          "type": "bytes32"
        }
      ],
      "stateMutability": "view",
      "type": "function"
    },
    {
      "inputs": [],
      "name": "LIB_VERSION",
      "outputs": [
        {
          "internalType": "bytes32",
          "name": "",
          "type": "bytes32"
        }
      ],
      "stateMutability": "view",
      "type": "function"
    },
    {
      "inputs": [
        {
          "internalType": "bytes32",
          "name": "domainName",
          "type": "bytes32"
        },
        {
          "internalType": "bytes32",
          "name": "domainVersion",
          "type": "bytes32"
        },
        {
          "internalType": "bytes32",
          "name": "realm",
          "type": "bytes32"
        }
      ],
      "name": "createRequestContext",
      "outputs": [
        {
          "components": [
            {
              "internalType": "bytes32",
              "name": "name",
              "type": "bytes32"
            },
            {
              "internalType": "bytes32",
              "name": "version",
              "type": "bytes32"
            },
            {
              "internalType": "bytes32",
              "name": "realm",
              "type": "bytes32"
            },
            {
              "internalType": "address",
              "name": "contractId",
              "type": "address"
            },
            {
              "internalType": "bool",
              "name": "status",
              "type": "bool"
            }
          ],
          "internalType": "struct IContextManagement.RequestContext",
          "name": "",
          "type": "tuple"
        },
        {
          "components": [
            {
              "internalType": "bytes32",
              "name": "role",
              "type": "bytes32"
            },
            {
              "internalType": "bytes4[]",
              "name": "funcSelectors",
              "type": "bytes4[]"
            },
            {
              "internalType": "bool",
              "name": "isEnabled",
              "type": "bool"
            }
          ],
          "internalType": "struct IContextManagement.RequestRegisterContext[]",
          "name": "",
          "type": "tuple[]"
        }
      ],
      "stateMutability": "view",
      "type": "function"
    }
  ],
  "bytecode": "0x6121b961003a600b82828239805160001a60731461002d57634e487b7160e01b600052600060045260246000fd5b30600052607381538281f3fe73000000000000000000000000000000000000000030146080604052600436106100925760003560e01c806397ca328d1161006557806397ca328d14610124578063bec9475114610145578063f1c3afef1461014d578063f7d6b5af1461018c57600080fd5b806310e1fc40146100975780632466209b146100ca5780633de90db3146100d25780634572e0c1146100f4575b600080fd5b8180156100a357600080fd5b506100b76100b2366004611df5565b6101ac565b6040519081526020015b60405180910390f35b6100b761057d565b8180156100de57600080fd5b506100f26100ed366004611e92565b6105ab565b005b81801561010057600080fd5b5061011461010f366004611ed6565b6107a5565b60405190151581526020016100c1565b610137610132366004611f1b565b6108cf565b6040516100c1929190611f47565b6100b7611741565b81801561015957600080fd5b5061016d610168366004612039565b611760565b604080516001600160a01b0390931683526020830191909152016100c1565b81801561019857600080fd5b506100b76101a7366004612087565b611a7b565b80516000906001600160a01b03166102045760405162461bcd60e51b8152602060048201526016602482015275496e76616c696420536f75726365204164647265737360501b60448201526064015b60405180910390fd5b60208201516001600160a01b031661025e5760405162461bcd60e51b815260206004820152601b60248201527f496e76616c69642044657374696e6174696f6e2041646472657373000000000060448201526064016101fb565b81602001516001600160a01b031682600001516001600160a01b0316036102c75760405162461bcd60e51b815260206004820152601b60248201527f496c6c6567616c2044657374696e6174696f6e2041646472657373000000000060448201526064016101fb565b6102d442620151806120bf565b82604001511161031a5760405162461bcd60e51b81526020600482015260116024820152700496c6c6567616c2054696d657374616d7607c1b60448201526064016101fb565b600082606001511161035f5760405162461bcd60e51b815260206004820152600e60248201526d125b1b1959d85b08185b5bdd5b9d60921b60448201526064016101fb565b600082600001518360200151846040015185606001516040516020016103b79493929190606094851b6bffffffffffffffffffffffff1990811682529390941b90921660148401526028830152604882015260680190565b60408051601f198184030181529181528151602092830120858301516001600160a01b0390811660009081526002808a018652848220848352909552929092209092015491925016156104425760405162461bcd60e51b81526020600482015260136024820152724c6f636b20416c72656164792045786973747360681b60448201526064016101fb565b82516001600160a01b031660009081526020859052604090205460608401518110156104b05760405162461bcd60e51b815260206004820152601c60248201527f496e73756666696369656e74204163636f756e742042616c616e63650000000060448201526064016101fb565b60608401805185516001600160a01b03908116600090815260208981526040808320948703909455935193880151909116815290812060010180549091906104f99084906120bf565b9091555050506020838101516001600160a01b03908116600090815260028781018452604080832086845290945290839020928601516001600160801b03908116600160801b02429190911617600184015585519083018054606088015190945591166001600160a81b031990921691909117600160a01b17905590505b92915050565b604051640312e302e360dc1b60208201526025015b6040516020818303038152906040528051906020012081565b6001600160a01b0383166105fa5760405162461bcd60e51b8152602060048201526016602482015275496e76616c696420536f75726365204164647265737360501b60448201526064016101fb565b6001600160a01b0382166106505760405162461bcd60e51b815260206004820152601b60248201527f496e76616c69642044657374696e6174696f6e2041646472657373000000000060448201526064016101fb565b816001600160a01b0316836001600160a01b0316036106a95760405162461bcd60e51b815260206004820152601560248201527424b63632b3b0b61029b2b633102a3930b739b332b960591b60448201526064016101fb565b600081116106f95760405162461bcd60e51b815260206004820152601760248201527f496e76616c6964205472616e7366657220416d6f756e7400000000000000000060448201526064016101fb565b6001600160a01b038316600090815260208590526040902054818110156107625760405162461bcd60e51b815260206004820152601c60248201527f496e73756666696369656e74204163636f756e742042616c616e63650000000060448201526064016101fb565b6001600160a01b038085166000908152602087905260408082208585039055918516815290812080548492906107999084906120bf565b90915550505050505050565b60006001600160a01b0383166107fd5760405162461bcd60e51b815260206004820152601760248201527f496e76616c6964204163636f756e74204164647265737300000000000000000060448201526064016101fb565b8115610863576108106005850184611c48565b6108505760405162461bcd60e51b81526020600482015260116024820152701058d8dbdd5b9d08139bdd08119bdd5b99607a1b60448201526064016101fb565b61085d6005850184611c6d565b506108c5565b6108706005850184611c48565b156108b65760405162461bcd60e51b81526020600482015260166024820152754163636f756e7420416c72656164792045786973747360501b60448201526064016101fb565b6108c36005850184611c82565b505b5060019392505050565b6040805160a0810182526000808252602082018190528183018190526060808301829052608083018290528351600580825260c082019095529293909290816020015b6040805160608082018352600080835260208301919091529181019190915281526020019060019003908161091257905050604051744c4956454c595f414e4f4e594d4f55535f524f4c4560581b60208201529091506035016040516020818303038152906040528051906020012081600081518110610994576109946120e8565b602002602001015160000181815250506001816000815181106109b9576109b96120e8565b6020908102919091018101519115156040928301528151600a8082526101608201909352919082016101408036833701905050816000815181106109ff576109ff6120e8565b60200260200101516020018190525063a9059cbb60e01b81600081518110610a2957610a296120e8565b602002602001015160200151600081518110610a4757610a476120e8565b6001600160e01b03199092166020928302919091019091015280516323b872dd60e01b908290600090610a7c57610a7c6120e8565b602002602001015160200151600181518110610a9a57610a9a6120e8565b6001600160e01b031990921660209283029190910190910152805163095ea7b360e01b908290600090610acf57610acf6120e8565b602002602001015160200151600281518110610aed57610aed6120e8565b6001600160e01b0319909216602092830291909101909101528051631f54aa5560e31b908290600090610b2257610b226120e8565b602002602001015160200151600381518110610b4057610b406120e8565b6001600160e01b031990921660209283029190910190910152805163038d251d60e31b908290600090610b7557610b756120e8565b602002602001015160200151600481518110610b9357610b936120e8565b6001600160e01b0319909216602092830291909101909101528051639fd5a6cf60e01b908290600090610bc857610bc86120e8565b602002602001015160200151600581518110610be657610be66120e8565b6001600160e01b0319909216602092830291909101909101528051633950935160e01b908290600090610c1b57610c1b6120e8565b602002602001015160200151600681518110610c3957610c396120e8565b6001600160e01b031990921660209283029190910190910152805163a457c2d760e01b908290600090610c6e57610c6e6120e8565b602002602001015160200151600781518110610c8c57610c8c6120e8565b6001600160e01b031990921660209283029190910190910152805163a5bfa9a960e01b908290600090610cc157610cc16120e8565b602002602001015160200151600881518110610cdf57610cdf6120e8565b6001600160e01b031990921660209283029190910190910152805163028ab43960e31b908290600090610d1457610d146120e8565b602002602001015160200151600981518110610d3257610d326120e8565b6001600160e01b0319909216602092830291909101820152604051610d6f9101704c4956454c595f41444d494e5f524f4c4560781b815260110190565b6040516020818303038152906040528051906020012081600181518110610d9857610d986120e8565b60200260200101516000018181525050600181600181518110610dbd57610dbd6120e8565b6020908102919091018101519115156040928301528151600b808252610180820190935291908201610160803683370190505081600181518110610e0357610e036120e8565b6020026020010151602001819052506348e6be1c60e01b81600181518110610e2d57610e2d6120e8565b602002602001015160200151600081518110610e4b57610e4b6120e8565b6001600160e01b0319909216602092830291909101909101528051632770a7eb60e21b9082906001908110610e8257610e826120e8565b602002602001015160200151600181518110610ea057610ea06120e8565b6001600160e01b03199092166020928302919091019091015280516340c10f1960e01b9082906001908110610ed757610ed76120e8565b602002602001015160200151600281518110610ef557610ef56120e8565b6001600160e01b0319909216602092830291909101909101528051630bfee64760e11b9082906001908110610f2c57610f2c6120e8565b602002602001015160200151600381518110610f4a57610f4a6120e8565b6001600160e01b03199092166020928302919091019091015280516311a98d3560e21b9082906001908110610f8157610f816120e8565b602002602001015160200151600481518110610f9f57610f9f6120e8565b6001600160e01b0319909216602092830291909101909101528051637d35f35560e01b9082906001908110610fd657610fd66120e8565b602002602001015160200151600581518110610ff457610ff46120e8565b6001600160e01b03199092166020928302919091019091015280516376a67a5160e01b908290600190811061102b5761102b6120e8565b602002602001015160200151600681518110611049576110496120e8565b6001600160e01b03199092166020928302919091019091015280516357b001f960e01b9082906001908110611080576110806120e8565b60200260200101516020015160078151811061109e5761109e6120e8565b6001600160e01b031990921660209283029190910190910152805163595c6a6760e01b90829060019081106110d5576110d56120e8565b6020026020010151602001516008815181106110f3576110f36120e8565b6001600160e01b0319909216602092830291909101909101528051638a2ddd0360e01b908290600190811061112a5761112a6120e8565b602002602001015160200151600981518110611148576111486120e8565b60200260200101906001600160e01b03191690816001600160e01b031916815250507f756af45f4ce05d832bee0c171992c529ad6d3ca8e13303d78feace2f8fd7faf28160018151811061119e5761119e6120e8565b602002602001015160200151600a815181106111bc576111bc6120e8565b6001600160e01b031990921660209283029190910182015260405161120591017f4c4956454c595f53595354454d5f41444d494e5f524f4c450000000000000000815260180190565b604051602081830303815290604052805190602001208160028151811061122e5761122e6120e8565b60200260200101516000018181525050600181600281518110611253576112536120e8565b6020908102919091018101519115156040928301528151600380825260808201909352919082016060803683370190505081600281518110611297576112976120e8565b60200260200101516020018190525063d9dc1f1960e01b816002815181106112c1576112c16120e8565b6020026020010151602001516000815181106112df576112df6120e8565b6001600160e01b031990921660209283029190910190910152805163225bf2f960e11b9082906002908110611316576113166120e8565b602002602001015160200151600181518110611334576113346120e8565b6001600160e01b0319909216602092830291909101909101528051637147855d60e01b908290600290811061136b5761136b6120e8565b602002602001015160200151600281518110611389576113896120e8565b6001600160e01b03199092166020928302919091018201526040516113d291017f4c4956454c595f41535345545f4d414e414745525f524f4c4500000000000000815260190190565b60405160208183030381529060405280519060200120816003815181106113fb576113fb6120e8565b60200260200101516000018181525050600181600381518110611420576114206120e8565b6020908102919091018101519115156040928301528151600380825260808201909352919082016060803683370190505081600381518110611464576114646120e8565b602002602001015160200181905250636b83949260e01b8160038151811061148e5761148e6120e8565b6020026020010151602001516000815181106114ac576114ac6120e8565b6001600160e01b0319909216602092830291909101909101528051639a7e187360e01b90829060039081106114e3576114e36120e8565b602002602001015160200151600181518110611501576115016120e8565b60200260200101906001600160e01b03191690816001600160e01b031916815250507fec4ac1f7a145493f4b4d677b3706ded0b0efff6bc9b9de9ab9d367b741bae88081600381518110611557576115576120e8565b602002602001015160200151600281518110611575576115756120e8565b6001600160e01b03199092166020928302919091018201526040516115c991017f4c4956454c595f434f4d4d554e4954595f44414f5f4558454355544f525f524f8152614c4560f01b602082015260220190565b60405160208183030381529060405280519060200120816004815181106115f2576115f26120e8565b60200260200101516000018181525050600181600481518110611617576116176120e8565b6020908102919091010151901515604091820152805160028082526060820190925290816020016020820280368337019050508160048151811061165d5761165d6120e8565b60200260200101516020018190525063fdb92ec460e01b81600481518110611687576116876120e8565b6020026020010151602001516000815181106116a5576116a56120e8565b6001600160e01b0319909216602092830291909101909101528051634daf9ab760e11b90829060049081106116dc576116dc6120e8565b6020026020010151602001516001815181106116fa576116fa6120e8565b6001600160e01b0319929092166020928302919091018201526040805160a08101825297885290870195909552938501929092525050306060830152600160808301529091565b6040516a04c546f6b656e45524332360ac1b6020820152602b01610592565b60008082356117a35760405162461bcd60e51b815260206004820152600f60248201526e125b9d985b1a5908131bd8dac81259608a1b60448201526064016101fb565b600060028501816117ba60408701602088016120fe565b6001600160a01b039081168252602080830193909352604091820160009081208835825290935291206002015416036118265760405162461bcd60e51b815260206004820152600e60248201526d131bd8dac8139bdd08119bdd5b9960921b60448201526064016101fb565b600160028501600061183e60408701602088016120fe565b6001600160a01b031681526020808201929092526040908101600090812087358252909252902060020154600160a01b900460ff166003811115611884576118846120d2565b146118c65760405162461bcd60e51b8152602060048201526012602482015271496e76616c6964204c6f636b20537461746560701b60448201526064016101fb565b600060028501816118dd60408701602088016120fe565b6001600160a01b0316815260208082019290925260409081016000908120873582528352818120549350918791839161191a9189019089016120fe565b6001600160a01b03166001600160a01b03168152602001908152602001600020600101549050600086600201600087602001602081019061195b91906120fe565b6001600160a01b039081168252602080830193909352604091820160009081208a358252909352912060020154169050828210156119ab5760405162461bcd60e51b81526004016101fb90612119565b8282038760006119c160408a0160208b016120fe565b6001600160a01b0390811682526020808301939093526040918201600090812060010194909455841683529089905281208054859290611a029084906120bf565b9091555060039050600288016000611a2060408a0160208b016120fe565b6001600160a01b03168152602080820192909252604090810160009081208a3582529092529020600201805460ff60a01b1916600160a01b836003811115611a6a57611a6a6120d2565b021790555096919550909350505050565b600081611abc5760405162461bcd60e51b815260206004820152600f60248201526e125b9d985b1a5908131bd8dac81259608a1b60448201526064016101fb565b33600090815260028085016020908152604080842086855290915290912001546001600160a01b0316611b225760405162461bcd60e51b815260206004820152600e60248201526d131bd8dac8139bdd08119bdd5b9960921b60448201526064016101fb565b33600090815260028401602090815260408083208584529091529020600101546001600160801b03428116600160801b9092041610611b985760405162461bcd60e51b8152602060048201526012602482015271496c6c6567616c20436c61696d204c6f636b60701b60448201526064016101fb565b33600081815260028501602090815260408083208684528252808320549383529086905290206001015481811015611be25760405162461bcd60e51b81526004016101fb90612119565b33600090815260208690526040812083830360018201558054849290611c099084906120bf565b909155505033600090815260029586016020908152604080832096835295905293909320909301805460ff60a01b1916600160a11b1790555090919050565b6001600160a01b038116600090815260018301602052604081205415155b9392505050565b6000611c66836001600160a01b038416611c97565b6000611c66836001600160a01b038416611d8a565b60008181526001830160205260408120548015611d80576000611cbb60018361215a565b8554909150600090611ccf9060019061215a565b9050818114611d34576000866000018281548110611cef57611cef6120e8565b9060005260206000200154905080876000018481548110611d1257611d126120e8565b6000918252602080832090910192909255918252600188019052604090208390555b8554869080611d4557611d4561216d565b600190038181906000526020600020016000905590558560010160008681526020019081526020016000206000905560019350505050610577565b6000915050610577565b6000818152600183016020526040812054611dd157508154600181810184556000848152602080822090930184905584548482528286019093526040902091909155610577565b506000610577565b80356001600160a01b0381168114611df057600080fd5b919050565b60008082840360a0811215611e0957600080fd5b833592506080601f1982011215611e1f57600080fd5b506040516080810181811067ffffffffffffffff82111715611e5157634e487b7160e01b600052604160045260246000fd5b604052611e6060208501611dd9565b8152611e6e60408501611dd9565b60208201526060840135604082015260808401356060820152809150509250929050565b60008060008060808587031215611ea857600080fd5b84359350611eb860208601611dd9565b9250611ec660408601611dd9565b9396929550929360600135925050565b600080600060608486031215611eeb57600080fd5b83359250611efb60208501611dd9565b915060408401358015158114611f1057600080fd5b809150509250925092565b600080600060608486031215611f3057600080fd5b505081359360208301359350604090920135919050565b600060c08201845183526020808601518185015260408087015181860152606060018060a01b0381890151168187015260808089015115158188015260c060a088015284885180875260e08901915060e08160051b8a01019650858a016000805b83811015612027578b8a0360df19018552825180518b52898101518a8c018990528051898d01819052908b01908490898e01905b808310156120065783516001600160e01b0319168252928d019260019290920191908d0190611fdc565b50928b015115159c8b019c909c525099509388019391880191600101611fa8565b50979c9b505050505050505050505050565b6000806040838503121561204c57600080fd5b82359150602083013567ffffffffffffffff81111561206a57600080fd5b83016060818603121561207c57600080fd5b809150509250929050565b6000806040838503121561209a57600080fd5b50508035926020909101359150565b634e487b7160e01b600052601160045260246000fd5b80820180821115610577576105776120a9565b634e487b7160e01b600052602160045260246000fd5b634e487b7160e01b600052603260045260246000fd5b60006020828403121561211057600080fd5b611c6682611dd9565b60208082526021908201527f496e73756666696369656e74204163636f756e74204c6f636b2042616c616e636040820152606560f81b606082015260800190565b81810381811115610577576105776120a9565b634e487b7160e01b600052603160045260246000fdfea26469706673582212201456b1cf7f266a272eed117c0ca50f965a9b515da21a4c23808663e4403030a264736f6c63430008110033",
  "linkReferences": {},
  "deployedLinkReferences": {},
  "devdoc": {
    "kind": "dev",
    "methods": {},
    "version": 1
  },
  "evm": {
    "bytecode": {
      "linkReferences": {},
      "opcodes": "PUSH2 0x21B9 PUSH2 0x3A PUSH1 0xB DUP3 DUP3 DUP3 CODECOPY DUP1 MLOAD PUSH1 0x0 BYTE PUSH1 0x73 EQ PUSH2 0x2D JUMPI PUSH4 0x4E487B71 PUSH1 0xE0 SHL PUSH1 0x0 MSTORE PUSH1 0x0 PUSH1 0x4 MSTORE PUSH1 0x24 PUSH1 0x0 REVERT JUMPDEST ADDRESS PUSH1 0x0 MSTORE PUSH1 0x73 DUP2 MSTORE8 DUP3 DUP2 RETURN INVALID PUSH20 0x0 ADDRESS EQ PUSH1 0x80 PUSH1 0x40 MSTORE PUSH1 0x4 CALLDATASIZE LT PUSH2 0x92 JUMPI PUSH1 0x0 CALLDATALOAD PUSH1 0xE0 SHR DUP1 PUSH4 0x97CA328D GT PUSH2 0x65 JUMPI DUP1 PUSH4 0x97CA328D EQ PUSH2 0x124 JUMPI DUP1 PUSH4 0xBEC94751 EQ PUSH2 0x145 JUMPI DUP1 PUSH4 0xF1C3AFEF EQ PUSH2 0x14D JUMPI DUP1 PUSH4 0xF7D6B5AF EQ PUSH2 0x18C JUMPI PUSH1 0x0 DUP1 REVERT JUMPDEST DUP1 PUSH4 0x10E1FC40 EQ PUSH2 0x97 JUMPI DUP1 PUSH4 0x2466209B EQ PUSH2 0xCA JUMPI DUP1 PUSH4 0x3DE90DB3 EQ PUSH2 0xD2 JUMPI DUP1 PUSH4 0x4572E0C1 EQ PUSH2 0xF4 JUMPI JUMPDEST PUSH1 0x0 DUP1 REVERT JUMPDEST DUP2 DUP1 ISZERO PUSH2 0xA3 JUMPI PUSH1 0x0 DUP1 REVERT JUMPDEST POP PUSH2 0xB7 PUSH2 0xB2 CALLDATASIZE PUSH1 0x4 PUSH2 0x1DF5 JUMP JUMPDEST PUSH2 0x1AC JUMP JUMPDEST PUSH1 0x40 MLOAD SWAP1 DUP2 MSTORE PUSH1 0x20 ADD JUMPDEST PUSH1 0x40 MLOAD DUP1 SWAP2 SUB SWAP1 RETURN JUMPDEST PUSH2 0xB7 PUSH2 0x57D JUMP JUMPDEST DUP2 DUP1 ISZERO PUSH2 0xDE JUMPI PUSH1 0x0 DUP1 REVERT JUMPDEST POP PUSH2 0xF2 PUSH2 0xED CALLDATASIZE PUSH1 0x4 PUSH2 0x1E92 JUMP JUMPDEST PUSH2 0x5AB JUMP JUMPDEST STOP JUMPDEST DUP2 DUP1 ISZERO PUSH2 0x100 JUMPI PUSH1 0x0 DUP1 REVERT JUMPDEST POP PUSH2 0x114 PUSH2 0x10F CALLDATASIZE PUSH1 0x4 PUSH2 0x1ED6 JUMP JUMPDEST PUSH2 0x7A5 JUMP JUMPDEST PUSH1 0x40 MLOAD SWAP1 ISZERO ISZERO DUP2 MSTORE PUSH1 0x20 ADD PUSH2 0xC1 JUMP JUMPDEST PUSH2 0x137 PUSH2 0x132 CALLDATASIZE PUSH1 0x4 PUSH2 0x1F1B JUMP JUMPDEST PUSH2 0x8CF JUMP JUMPDEST PUSH1 0x40 MLOAD PUSH2 0xC1 SWAP3 SWAP2 SWAP1 PUSH2 0x1F47 JUMP JUMPDEST PUSH2 0xB7 PUSH2 0x1741 JUMP JUMPDEST DUP2 DUP1 ISZERO PUSH2 0x159 JUMPI PUSH1 0x0 DUP1 REVERT JUMPDEST POP PUSH2 0x16D PUSH2 0x168 CALLDATASIZE PUSH1 0x4 PUSH2 0x2039 JUMP JUMPDEST PUSH2 0x1760 JUMP JUMPDEST PUSH1 0x40 DUP1 MLOAD PUSH1 0x1 PUSH1 0x1 PUSH1 0xA0 SHL SUB SWAP1 SWAP4 AND DUP4 MSTORE PUSH1 0x20 DUP4 ADD SWAP2 SWAP1 SWAP2 MSTORE ADD PUSH2 0xC1 JUMP JUMPDEST DUP2 DUP1 ISZERO PUSH2 0x198 JUMPI PUSH1 0x0 DUP1 REVERT JUMPDEST POP PUSH2 0xB7 PUSH2 0x1A7 CALLDATASIZE PUSH1 0x4 PUSH2 0x2087 JUMP JUMPDEST PUSH2 0x1A7B JUMP JUMPDEST DUP1 MLOAD PUSH1 0x0 SWAP1 PUSH1 0x1 PUSH1 0x1 PUSH1 0xA0 SHL SUB AND PUSH2 0x204 JUMPI PUSH1 0x40 MLOAD PUSH3 0x461BCD PUSH1 0xE5 SHL DUP2 MSTORE PUSH1 0x20 PUSH1 0x4 DUP3 ADD MSTORE PUSH1 0x16 PUSH1 0x24 DUP3 ADD MSTORE PUSH22 0x496E76616C696420536F757263652041646472657373 PUSH1 0x50 SHL PUSH1 0x44 DUP3 ADD MSTORE PUSH1 0x64 ADD JUMPDEST PUSH1 0x40 MLOAD DUP1 SWAP2 SUB SWAP1 REVERT JUMPDEST PUSH1 0x20 DUP3 ADD MLOAD PUSH1 0x1 PUSH1 0x1 PUSH1 0xA0 SHL SUB AND PUSH2 0x25E JUMPI PUSH1 0x40 MLOAD PUSH3 0x461BCD PUSH1 0xE5 SHL DUP2 MSTORE PUSH1 0x20 PUSH1 0x4 DUP3 ADD MSTORE PUSH1 0x1B PUSH1 0x24 DUP3 ADD MSTORE PUSH32 0x496E76616C69642044657374696E6174696F6E20416464726573730000000000 PUSH1 0x44 DUP3 ADD MSTORE PUSH1 0x64 ADD PUSH2 0x1FB JUMP JUMPDEST DUP2 PUSH1 0x20 ADD MLOAD PUSH1 0x1 PUSH1 0x1 PUSH1 0xA0 SHL SUB AND DUP3 PUSH1 0x0 ADD MLOAD PUSH1 0x1 PUSH1 0x1 PUSH1 0xA0 SHL SUB AND SUB PUSH2 0x2C7 JUMPI PUSH1 0x40 MLOAD PUSH3 0x461BCD PUSH1 0xE5 SHL DUP2 MSTORE PUSH1 0x20 PUSH1 0x4 DUP3 ADD MSTORE PUSH1 0x1B PUSH1 0x24 DUP3 ADD MSTORE PUSH32 0x496C6C6567616C2044657374696E6174696F6E20416464726573730000000000 PUSH1 0x44 DUP3 ADD MSTORE PUSH1 0x64 ADD PUSH2 0x1FB JUMP JUMPDEST PUSH2 0x2D4 TIMESTAMP PUSH3 0x15180 PUSH2 0x20BF JUMP JUMPDEST DUP3 PUSH1 0x40 ADD MLOAD GT PUSH2 0x31A JUMPI PUSH1 0x40 MLOAD PUSH3 0x461BCD PUSH1 0xE5 SHL DUP2 MSTORE PUSH1 0x20 PUSH1 0x4 DUP3 ADD MSTORE PUSH1 0x11 PUSH1 0x24 DUP3 ADD MSTORE PUSH17 0x496C6C6567616C2054696D657374616D7 PUSH1 0x7C SHL PUSH1 0x44 DUP3 ADD MSTORE PUSH1 0x64 ADD PUSH2 0x1FB JUMP JUMPDEST PUSH1 0x0 DUP3 PUSH1 0x60 ADD MLOAD GT PUSH2 0x35F JUMPI PUSH1 0x40 MLOAD PUSH3 0x461BCD PUSH1 0xE5 SHL DUP2 MSTORE PUSH1 0x20 PUSH1 0x4 DUP3 ADD MSTORE PUSH1 0xE PUSH1 0x24 DUP3 ADD MSTORE PUSH14 0x125B1B1959D85B08185B5BDD5B9D PUSH1 0x92 SHL PUSH1 0x44 DUP3 ADD MSTORE PUSH1 0x64 ADD PUSH2 0x1FB JUMP JUMPDEST PUSH1 0x0 DUP3 PUSH1 0x0 ADD MLOAD DUP4 PUSH1 0x20 ADD MLOAD DUP5 PUSH1 0x40 ADD MLOAD DUP6 PUSH1 0x60 ADD MLOAD PUSH1 0x40 MLOAD PUSH1 0x20 ADD PUSH2 0x3B7 SWAP5 SWAP4 SWAP3 SWAP2 SWAP1 PUSH1 0x60 SWAP5 DUP6 SHL PUSH12 0xFFFFFFFFFFFFFFFFFFFFFFFF NOT SWAP1 DUP2 AND DUP3 MSTORE SWAP4 SWAP1 SWAP5 SHL SWAP1 SWAP3 AND PUSH1 0x14 DUP5 ADD MSTORE PUSH1 0x28 DUP4 ADD MSTORE PUSH1 0x48 DUP3 ADD MSTORE PUSH1 0x68 ADD SWAP1 JUMP JUMPDEST PUSH1 0x40 DUP1 MLOAD PUSH1 0x1F NOT DUP2 DUP5 SUB ADD DUP2 MSTORE SWAP2 DUP2 MSTORE DUP2 MLOAD PUSH1 0x20 SWAP3 DUP4 ADD KECCAK256 DUP6 DUP4 ADD MLOAD PUSH1 0x1 PUSH1 0x1 PUSH1 0xA0 SHL SUB SWAP1 DUP2 AND PUSH1 0x0 SWAP1 DUP2 MSTORE PUSH1 0x2 DUP1 DUP11 ADD DUP7 MSTORE DUP5 DUP3 KECCAK256 DUP5 DUP4 MSTORE SWAP1 SWAP6 MSTORE SWAP3 SWAP1 SWAP3 KECCAK256 SWAP1 SWAP3 ADD SLOAD SWAP2 SWAP3 POP AND ISZERO PUSH2 0x442 JUMPI PUSH1 0x40 MLOAD PUSH3 0x461BCD PUSH1 0xE5 SHL DUP2 MSTORE PUSH1 0x20 PUSH1 0x4 DUP3 ADD MSTORE PUSH1 0x13 PUSH1 0x24 DUP3 ADD MSTORE PUSH19 0x4C6F636B20416C726561647920457869737473 PUSH1 0x68 SHL PUSH1 0x44 DUP3 ADD MSTORE PUSH1 0x64 ADD PUSH2 0x1FB JUMP JUMPDEST DUP3 MLOAD PUSH1 0x1 PUSH1 0x1 PUSH1 0xA0 SHL SUB AND PUSH1 0x0 SWAP1 DUP2 MSTORE PUSH1 0x20 DUP6 SWAP1 MSTORE PUSH1 0x40 SWAP1 KECCAK256 SLOAD PUSH1 0x60 DUP5 ADD MLOAD DUP2 LT ISZERO PUSH2 0x4B0 JUMPI PUSH1 0x40 MLOAD PUSH3 0x461BCD PUSH1 0xE5 SHL DUP2 MSTORE PUSH1 0x20 PUSH1 0x4 DUP3 ADD MSTORE PUSH1 0x1C PUSH1 0x24 DUP3 ADD MSTORE PUSH32 0x496E73756666696369656E74204163636F756E742042616C616E636500000000 PUSH1 0x44 DUP3 ADD MSTORE PUSH1 0x64 ADD PUSH2 0x1FB JUMP JUMPDEST PUSH1 0x60 DUP5 ADD DUP1 MLOAD DUP6 MLOAD PUSH1 0x1 PUSH1 0x1 PUSH1 0xA0 SHL SUB SWAP1 DUP2 AND PUSH1 0x0 SWAP1 DUP2 MSTORE PUSH1 0x20 DUP10 DUP2 MSTORE PUSH1 0x40 DUP1 DUP4 KECCAK256 SWAP5 DUP8 SUB SWAP1 SWAP5 SSTORE SWAP4 MLOAD SWAP4 DUP9 ADD MLOAD SWAP1 SWAP2 AND DUP2 MSTORE SWAP1 DUP2 KECCAK256 PUSH1 0x1 ADD DUP1 SLOAD SWAP1 SWAP2 SWAP1 PUSH2 0x4F9 SWAP1 DUP5 SWAP1 PUSH2 0x20BF JUMP JUMPDEST SWAP1 SWAP2 SSTORE POP POP POP PUSH1 0x20 DUP4 DUP2 ADD MLOAD PUSH1 0x1 PUSH1 0x1 PUSH1 0xA0 SHL SUB SWAP1 DUP2 AND PUSH1 0x0 SWAP1 DUP2 MSTORE PUSH1 0x2 DUP8 DUP2 ADD DUP5 MSTORE PUSH1 0x40 DUP1 DUP4 KECCAK256 DUP7 DUP5 MSTORE SWAP1 SWAP5 MSTORE SWAP1 DUP4 SWAP1 KECCAK256 SWAP3 DUP7 ADD MLOAD PUSH1 0x1 PUSH1 0x1 PUSH1 0x80 SHL SUB SWAP1 DUP2 AND PUSH1 0x1 PUSH1 0x80 SHL MUL TIMESTAMP SWAP2 SWAP1 SWAP2 AND OR PUSH1 0x1 DUP5 ADD SSTORE DUP6 MLOAD SWAP1 DUP4 ADD DUP1 SLOAD PUSH1 0x60 DUP9 ADD MLOAD SWAP1 SWAP5 SSTORE SWAP2 AND PUSH1 0x1 PUSH1 0x1 PUSH1 0xA8 SHL SUB NOT SWAP1 SWAP3 AND SWAP2 SWAP1 SWAP2 OR PUSH1 0x1 PUSH1 0xA0 SHL OR SWAP1 SSTORE SWAP1 POP JUMPDEST SWAP3 SWAP2 POP POP JUMP JUMPDEST PUSH1 0x40 MLOAD PUSH5 0x312E302E3 PUSH1 0xDC SHL PUSH1 0x20 DUP3 ADD MSTORE PUSH1 0x25 ADD JUMPDEST PUSH1 0x40 MLOAD PUSH1 0x20 DUP2 DUP4 SUB SUB DUP2 MSTORE SWAP1 PUSH1 0x40 MSTORE DUP1 MLOAD SWAP1 PUSH1 0x20 ADD KECCAK256 DUP2 JUMP JUMPDEST PUSH1 0x1 PUSH1 0x1 PUSH1 0xA0 SHL SUB DUP4 AND PUSH2 0x5FA JUMPI PUSH1 0x40 MLOAD PUSH3 0x461BCD PUSH1 0xE5 SHL DUP2 MSTORE PUSH1 0x20 PUSH1 0x4 DUP3 ADD MSTORE PUSH1 0x16 PUSH1 0x24 DUP3 ADD MSTORE PUSH22 0x496E76616C696420536F757263652041646472657373 PUSH1 0x50 SHL PUSH1 0x44 DUP3 ADD MSTORE PUSH1 0x64 ADD PUSH2 0x1FB JUMP JUMPDEST PUSH1 0x1 PUSH1 0x1 PUSH1 0xA0 SHL SUB DUP3 AND PUSH2 0x650 JUMPI PUSH1 0x40 MLOAD PUSH3 0x461BCD PUSH1 0xE5 SHL DUP2 MSTORE PUSH1 0x20 PUSH1 0x4 DUP3 ADD MSTORE PUSH1 0x1B PUSH1 0x24 DUP3 ADD MSTORE PUSH32 0x496E76616C69642044657374696E6174696F6E20416464726573730000000000 PUSH1 0x44 DUP3 ADD MSTORE PUSH1 0x64 ADD PUSH2 0x1FB JUMP JUMPDEST DUP2 PUSH1 0x1 PUSH1 0x1 PUSH1 0xA0 SHL SUB AND DUP4 PUSH1 0x1 PUSH1 0x1 PUSH1 0xA0 SHL SUB AND SUB PUSH2 0x6A9 JUMPI PUSH1 0x40 MLOAD PUSH3 0x461BCD PUSH1 0xE5 SHL DUP2 MSTORE PUSH1 0x20 PUSH1 0x4 DUP3 ADD MSTORE PUSH1 0x15 PUSH1 0x24 DUP3 ADD MSTORE PUSH21 0x24B63632B3B0B61029B2B633102A3930B739B332B9 PUSH1 0x59 SHL PUSH1 0x44 DUP3 ADD MSTORE PUSH1 0x64 ADD PUSH2 0x1FB JUMP JUMPDEST PUSH1 0x0 DUP2 GT PUSH2 0x6F9 JUMPI PUSH1 0x40 MLOAD PUSH3 0x461BCD PUSH1 0xE5 SHL DUP2 MSTORE PUSH1 0x20 PUSH1 0x4 DUP3 ADD MSTORE PUSH1 0x17 PUSH1 0x24 DUP3 ADD MSTORE PUSH32 0x496E76616C6964205472616E7366657220416D6F756E74000000000000000000 PUSH1 0x44 DUP3 ADD MSTORE PUSH1 0x64 ADD PUSH2 0x1FB JUMP JUMPDEST PUSH1 0x1 PUSH1 0x1 PUSH1 0xA0 SHL SUB DUP4 AND PUSH1 0x0 SWAP1 DUP2 MSTORE PUSH1 0x20 DUP6 SWAP1 MSTORE PUSH1 0x40 SWAP1 KECCAK256 SLOAD DUP2 DUP2 LT ISZERO PUSH2 0x762 JUMPI PUSH1 0x40 MLOAD PUSH3 0x461BCD PUSH1 0xE5 SHL DUP2 MSTORE PUSH1 0x20 PUSH1 0x4 DUP3 ADD MSTORE PUSH1 0x1C PUSH1 0x24 DUP3 ADD MSTORE PUSH32 0x496E73756666696369656E74204163636F756E742042616C616E636500000000 PUSH1 0x44 DUP3 ADD MSTORE PUSH1 0x64 ADD PUSH2 0x1FB JUMP JUMPDEST PUSH1 0x1 PUSH1 0x1 PUSH1 0xA0 SHL SUB DUP1 DUP6 AND PUSH1 0x0 SWAP1 DUP2 MSTORE PUSH1 0x20 DUP8 SWAP1 MSTORE PUSH1 0x40 DUP1 DUP3 KECCAK256 DUP6 DUP6 SUB SWAP1 SSTORE SWAP2 DUP6 AND DUP2 MSTORE SWAP1 DUP2 KECCAK256 DUP1 SLOAD DUP5 SWAP3 SWAP1 PUSH2 0x799 SWAP1 DUP5 SWAP1 PUSH2 0x20BF JUMP JUMPDEST SWAP1 SWAP2 SSTORE POP POP POP POP POP POP POP JUMP JUMPDEST PUSH1 0x0 PUSH1 0x1 PUSH1 0x1 PUSH1 0xA0 SHL SUB DUP4 AND PUSH2 0x7FD JUMPI PUSH1 0x40 MLOAD PUSH3 0x461BCD PUSH1 0xE5 SHL DUP2 MSTORE PUSH1 0x20 PUSH1 0x4 DUP3 ADD MSTORE PUSH1 0x17 PUSH1 0x24 DUP3 ADD MSTORE PUSH32 0x496E76616C6964204163636F756E742041646472657373000000000000000000 PUSH1 0x44 DUP3 ADD MSTORE PUSH1 0x64 ADD PUSH2 0x1FB JUMP JUMPDEST DUP2 ISZERO PUSH2 0x863 JUMPI PUSH2 0x810 PUSH1 0x5 DUP6 ADD DUP5 PUSH2 0x1C48 JUMP JUMPDEST PUSH2 0x850 JUMPI PUSH1 0x40 MLOAD PUSH3 0x461BCD PUSH1 0xE5 SHL DUP2 MSTORE PUSH1 0x20 PUSH1 0x4 DUP3 ADD MSTORE PUSH1 0x11 PUSH1 0x24 DUP3 ADD MSTORE PUSH17 0x1058D8DBDD5B9D08139BDD08119BDD5B99 PUSH1 0x7A SHL PUSH1 0x44 DUP3 ADD MSTORE PUSH1 0x64 ADD PUSH2 0x1FB JUMP JUMPDEST PUSH2 0x85D PUSH1 0x5 DUP6 ADD DUP5 PUSH2 0x1C6D JUMP JUMPDEST POP PUSH2 0x8C5 JUMP JUMPDEST PUSH2 0x870 PUSH1 0x5 DUP6 ADD DUP5 PUSH2 0x1C48 JUMP JUMPDEST ISZERO PUSH2 0x8B6 JUMPI PUSH1 0x40 MLOAD PUSH3 0x461BCD PUSH1 0xE5 SHL DUP2 MSTORE PUSH1 0x20 PUSH1 0x4 DUP3 ADD MSTORE PUSH1 0x16 PUSH1 0x24 DUP3 ADD MSTORE PUSH22 0x4163636F756E7420416C726561647920457869737473 PUSH1 0x50 SHL PUSH1 0x44 DUP3 ADD MSTORE PUSH1 0x64 ADD PUSH2 0x1FB JUMP JUMPDEST PUSH2 0x8C3 PUSH1 0x5 DUP6 ADD DUP5 PUSH2 0x1C82 JUMP JUMPDEST POP JUMPDEST POP PUSH1 0x1 SWAP4 SWAP3 POP POP POP JUMP JUMPDEST PUSH1 0x40 DUP1 MLOAD PUSH1 0xA0 DUP2 ADD DUP3 MSTORE PUSH1 0x0 DUP1 DUP3 MSTORE PUSH1 0x20 DUP3 ADD DUP2 SWAP1 MSTORE DUP2 DUP4 ADD DUP2 SWAP1 MSTORE PUSH1 0x60 DUP1 DUP4 ADD DUP3 SWAP1 MSTORE PUSH1 0x80 DUP4 ADD DUP3 SWAP1 MSTORE DUP4 MLOAD PUSH1 0x5 DUP1 DUP3 MSTORE PUSH1 0xC0 DUP3 ADD SWAP1 SWAP6 MSTORE SWAP3 SWAP4 SWAP1 SWAP3 SWAP1 DUP2 PUSH1 0x20 ADD JUMPDEST PUSH1 0x40 DUP1 MLOAD PUSH1 0x60 DUP1 DUP3 ADD DUP4 MSTORE PUSH1 0x0 DUP1 DUP4 MSTORE PUSH1 0x20 DUP4 ADD SWAP2 SWAP1 SWAP2 MSTORE SWAP2 DUP2 ADD SWAP2 SWAP1 SWAP2 MSTORE DUP2 MSTORE PUSH1 0x20 ADD SWAP1 PUSH1 0x1 SWAP1 SUB SWAP1 DUP2 PUSH2 0x912 JUMPI SWAP1 POP POP PUSH1 0x40 MLOAD PUSH21 0x4C4956454C595F414E4F4E594D4F55535F524F4C45 PUSH1 0x58 SHL PUSH1 0x20 DUP3 ADD MSTORE SWAP1 SWAP2 POP PUSH1 0x35 ADD PUSH1 0x40 MLOAD PUSH1 0x20 DUP2 DUP4 SUB SUB DUP2 MSTORE SWAP1 PUSH1 0x40 MSTORE DUP1 MLOAD SWAP1 PUSH1 0x20 ADD KECCAK256 DUP2 PUSH1 0x0 DUP2 MLOAD DUP2 LT PUSH2 0x994 JUMPI PUSH2 0x994 PUSH2 0x20E8 JUMP JUMPDEST PUSH1 0x20 MUL PUSH1 0x20 ADD ADD MLOAD PUSH1 0x0 ADD DUP2 DUP2 MSTORE POP POP PUSH1 0x1 DUP2 PUSH1 0x0 DUP2 MLOAD DUP2 LT PUSH2 0x9B9 JUMPI PUSH2 0x9B9 PUSH2 0x20E8 JUMP JUMPDEST PUSH1 0x20 SWAP1 DUP2 MUL SWAP2 SWAP1 SWAP2 ADD DUP2 ADD MLOAD SWAP2 ISZERO ISZERO PUSH1 0x40 SWAP3 DUP4 ADD MSTORE DUP2 MLOAD PUSH1 0xA DUP1 DUP3 MSTORE PUSH2 0x160 DUP3 ADD SWAP1 SWAP4 MSTORE SWAP2 SWAP1 DUP3 ADD PUSH2 0x140 DUP1 CALLDATASIZE DUP4 CALLDATACOPY ADD SWAP1 POP POP DUP2 PUSH1 0x0 DUP2 MLOAD DUP2 LT PUSH2 0x9FF JUMPI PUSH2 0x9FF PUSH2 0x20E8 JUMP JUMPDEST PUSH1 0x20 MUL PUSH1 0x20 ADD ADD MLOAD PUSH1 0x20 ADD DUP2 SWAP1 MSTORE POP PUSH4 0xA9059CBB PUSH1 0xE0 SHL DUP2 PUSH1 0x0 DUP2 MLOAD DUP2 LT PUSH2 0xA29 JUMPI PUSH2 0xA29 PUSH2 0x20E8 JUMP JUMPDEST PUSH1 0x20 MUL PUSH1 0x20 ADD ADD MLOAD PUSH1 0x20 ADD MLOAD PUSH1 0x0 DUP2 MLOAD DUP2 LT PUSH2 0xA47 JUMPI PUSH2 0xA47 PUSH2 0x20E8 JUMP JUMPDEST PUSH1 0x1 PUSH1 0x1 PUSH1 0xE0 SHL SUB NOT SWAP1 SWAP3 AND PUSH1 0x20 SWAP3 DUP4 MUL SWAP2 SWAP1 SWAP2 ADD SWAP1 SWAP2 ADD MSTORE DUP1 MLOAD PUSH4 0x23B872DD PUSH1 0xE0 SHL SWAP1 DUP3 SWAP1 PUSH1 0x0 SWAP1 PUSH2 0xA7C JUMPI PUSH2 0xA7C PUSH2 0x20E8 JUMP JUMPDEST PUSH1 0x20 MUL PUSH1 0x20 ADD ADD MLOAD PUSH1 0x20 ADD MLOAD PUSH1 0x1 DUP2 MLOAD DUP2 LT PUSH2 0xA9A JUMPI PUSH2 0xA9A PUSH2 0x20E8 JUMP JUMPDEST PUSH1 0x1 PUSH1 0x1 PUSH1 0xE0 SHL SUB NOT SWAP1 SWAP3 AND PUSH1 0x20 SWAP3 DUP4 MUL SWAP2 SWAP1 SWAP2 ADD SWAP1 SWAP2 ADD MSTORE DUP1 MLOAD PUSH4 0x95EA7B3 PUSH1 0xE0 SHL SWAP1 DUP3 SWAP1 PUSH1 0x0 SWAP1 PUSH2 0xACF JUMPI PUSH2 0xACF PUSH2 0x20E8 JUMP JUMPDEST PUSH1 0x20 MUL PUSH1 0x20 ADD ADD MLOAD PUSH1 0x20 ADD MLOAD PUSH1 0x2 DUP2 MLOAD DUP2 LT PUSH2 0xAED JUMPI PUSH2 0xAED PUSH2 0x20E8 JUMP JUMPDEST PUSH1 0x1 PUSH1 0x1 PUSH1 0xE0 SHL SUB NOT SWAP1 SWAP3 AND PUSH1 0x20 SWAP3 DUP4 MUL SWAP2 SWAP1 SWAP2 ADD SWAP1 SWAP2 ADD MSTORE DUP1 MLOAD PUSH4 0x1F54AA55 PUSH1 0xE3 SHL SWAP1 DUP3 SWAP1 PUSH1 0x0 SWAP1 PUSH2 0xB22 JUMPI PUSH2 0xB22 PUSH2 0x20E8 JUMP JUMPDEST PUSH1 0x20 MUL PUSH1 0x20 ADD ADD MLOAD PUSH1 0x20 ADD MLOAD PUSH1 0x3 DUP2 MLOAD DUP2 LT PUSH2 0xB40 JUMPI PUSH2 0xB40 PUSH2 0x20E8 JUMP JUMPDEST PUSH1 0x1 PUSH1 0x1 PUSH1 0xE0 SHL SUB NOT SWAP1 SWAP3 AND PUSH1 0x20 SWAP3 DUP4 MUL SWAP2 SWAP1 SWAP2 ADD SWAP1 SWAP2 ADD MSTORE DUP1 MLOAD PUSH4 0x38D251D PUSH1 0xE3 SHL SWAP1 DUP3 SWAP1 PUSH1 0x0 SWAP1 PUSH2 0xB75 JUMPI PUSH2 0xB75 PUSH2 0x20E8 JUMP JUMPDEST PUSH1 0x20 MUL PUSH1 0x20 ADD ADD MLOAD PUSH1 0x20 ADD MLOAD PUSH1 0x4 DUP2 MLOAD DUP2 LT PUSH2 0xB93 JUMPI PUSH2 0xB93 PUSH2 0x20E8 JUMP JUMPDEST PUSH1 0x1 PUSH1 0x1 PUSH1 0xE0 SHL SUB NOT SWAP1 SWAP3 AND PUSH1 0x20 SWAP3 DUP4 MUL SWAP2 SWAP1 SWAP2 ADD SWAP1 SWAP2 ADD MSTORE DUP1 MLOAD PUSH4 0x9FD5A6CF PUSH1 0xE0 SHL SWAP1 DUP3 SWAP1 PUSH1 0x0 SWAP1 PUSH2 0xBC8 JUMPI PUSH2 0xBC8 PUSH2 0x20E8 JUMP JUMPDEST PUSH1 0x20 MUL PUSH1 0x20 ADD ADD MLOAD PUSH1 0x20 ADD MLOAD PUSH1 0x5 DUP2 MLOAD DUP2 LT PUSH2 0xBE6 JUMPI PUSH2 0xBE6 PUSH2 0x20E8 JUMP JUMPDEST PUSH1 0x1 PUSH1 0x1 PUSH1 0xE0 SHL SUB NOT SWAP1 SWAP3 AND PUSH1 0x20 SWAP3 DUP4 MUL SWAP2 SWAP1 SWAP2 ADD SWAP1 SWAP2 ADD MSTORE DUP1 MLOAD PUSH4 0x39509351 PUSH1 0xE0 SHL SWAP1 DUP3 SWAP1 PUSH1 0x0 SWAP1 PUSH2 0xC1B JUMPI PUSH2 0xC1B PUSH2 0x20E8 JUMP JUMPDEST PUSH1 0x20 MUL PUSH1 0x20 ADD ADD MLOAD PUSH1 0x20 ADD MLOAD PUSH1 0x6 DUP2 MLOAD DUP2 LT PUSH2 0xC39 JUMPI PUSH2 0xC39 PUSH2 0x20E8 JUMP JUMPDEST PUSH1 0x1 PUSH1 0x1 PUSH1 0xE0 SHL SUB NOT SWAP1 SWAP3 AND PUSH1 0x20 SWAP3 DUP4 MUL SWAP2 SWAP1 SWAP2 ADD SWAP1 SWAP2 ADD MSTORE DUP1 MLOAD PUSH4 0xA457C2D7 PUSH1 0xE0 SHL SWAP1 DUP3 SWAP1 PUSH1 0x0 SWAP1 PUSH2 0xC6E JUMPI PUSH2 0xC6E PUSH2 0x20E8 JUMP JUMPDEST PUSH1 0x20 MUL PUSH1 0x20 ADD ADD MLOAD PUSH1 0x20 ADD MLOAD PUSH1 0x7 DUP2 MLOAD DUP2 LT PUSH2 0xC8C JUMPI PUSH2 0xC8C PUSH2 0x20E8 JUMP JUMPDEST PUSH1 0x1 PUSH1 0x1 PUSH1 0xE0 SHL SUB NOT SWAP1 SWAP3 AND PUSH1 0x20 SWAP3 DUP4 MUL SWAP2 SWAP1 SWAP2 ADD SWAP1 SWAP2 ADD MSTORE DUP1 MLOAD PUSH4 0xA5BFA9A9 PUSH1 0xE0 SHL SWAP1 DUP3 SWAP1 PUSH1 0x0 SWAP1 PUSH2 0xCC1 JUMPI PUSH2 0xCC1 PUSH2 0x20E8 JUMP JUMPDEST PUSH1 0x20 MUL PUSH1 0x20 ADD ADD MLOAD PUSH1 0x20 ADD MLOAD PUSH1 0x8 DUP2 MLOAD DUP2 LT PUSH2 0xCDF JUMPI PUSH2 0xCDF PUSH2 0x20E8 JUMP JUMPDEST PUSH1 0x1 PUSH1 0x1 PUSH1 0xE0 SHL SUB NOT SWAP1 SWAP3 AND PUSH1 0x20 SWAP3 DUP4 MUL SWAP2 SWAP1 SWAP2 ADD SWAP1 SWAP2 ADD MSTORE DUP1 MLOAD PUSH4 0x28AB439 PUSH1 0xE3 SHL SWAP1 DUP3 SWAP1 PUSH1 0x0 SWAP1 PUSH2 0xD14 JUMPI PUSH2 0xD14 PUSH2 0x20E8 JUMP JUMPDEST PUSH1 0x20 MUL PUSH1 0x20 ADD ADD MLOAD PUSH1 0x20 ADD MLOAD PUSH1 0x9 DUP2 MLOAD DUP2 LT PUSH2 0xD32 JUMPI PUSH2 0xD32 PUSH2 0x20E8 JUMP JUMPDEST PUSH1 0x1 PUSH1 0x1 PUSH1 0xE0 SHL SUB NOT SWAP1 SWAP3 AND PUSH1 0x20 SWAP3 DUP4 MUL SWAP2 SWAP1 SWAP2 ADD DUP3 ADD MSTORE PUSH1 0x40 MLOAD PUSH2 0xD6F SWAP2 ADD PUSH17 0x4C4956454C595F41444D494E5F524F4C45 PUSH1 0x78 SHL DUP2 MSTORE PUSH1 0x11 ADD SWAP1 JUMP JUMPDEST PUSH1 0x40 MLOAD PUSH1 0x20 DUP2 DUP4 SUB SUB DUP2 MSTORE SWAP1 PUSH1 0x40 MSTORE DUP1 MLOAD SWAP1 PUSH1 0x20 ADD KECCAK256 DUP2 PUSH1 0x1 DUP2 MLOAD DUP2 LT PUSH2 0xD98 JUMPI PUSH2 0xD98 PUSH2 0x20E8 JUMP JUMPDEST PUSH1 0x20 MUL PUSH1 0x20 ADD ADD MLOAD PUSH1 0x0 ADD DUP2 DUP2 MSTORE POP POP PUSH1 0x1 DUP2 PUSH1 0x1 DUP2 MLOAD DUP2 LT PUSH2 0xDBD JUMPI PUSH2 0xDBD PUSH2 0x20E8 JUMP JUMPDEST PUSH1 0x20 SWAP1 DUP2 MUL SWAP2 SWAP1 SWAP2 ADD DUP2 ADD MLOAD SWAP2 ISZERO ISZERO PUSH1 0x40 SWAP3 DUP4 ADD MSTORE DUP2 MLOAD PUSH1 0xB DUP1 DUP3 MSTORE PUSH2 0x180 DUP3 ADD SWAP1 SWAP4 MSTORE SWAP2 SWAP1 DUP3 ADD PUSH2 0x160 DUP1 CALLDATASIZE DUP4 CALLDATACOPY ADD SWAP1 POP POP DUP2 PUSH1 0x1 DUP2 MLOAD DUP2 LT PUSH2 0xE03 JUMPI PUSH2 0xE03 PUSH2 0x20E8 JUMP JUMPDEST PUSH1 0x20 MUL PUSH1 0x20 ADD ADD MLOAD PUSH1 0x20 ADD DUP2 SWAP1 MSTORE POP PUSH4 0x48E6BE1C PUSH1 0xE0 SHL DUP2 PUSH1 0x1 DUP2 MLOAD DUP2 LT PUSH2 0xE2D JUMPI PUSH2 0xE2D PUSH2 0x20E8 JUMP JUMPDEST PUSH1 0x20 MUL PUSH1 0x20 ADD ADD MLOAD PUSH1 0x20 ADD MLOAD PUSH1 0x0 DUP2 MLOAD DUP2 LT PUSH2 0xE4B JUMPI PUSH2 0xE4B PUSH2 0x20E8 JUMP JUMPDEST PUSH1 0x1 PUSH1 0x1 PUSH1 0xE0 SHL SUB NOT SWAP1 SWAP3 AND PUSH1 0x20 SWAP3 DUP4 MUL SWAP2 SWAP1 SWAP2 ADD SWAP1 SWAP2 ADD MSTORE DUP1 MLOAD PUSH4 0x2770A7EB PUSH1 0xE2 SHL SWAP1 DUP3 SWAP1 PUSH1 0x1 SWAP1 DUP2 LT PUSH2 0xE82 JUMPI PUSH2 0xE82 PUSH2 0x20E8 JUMP JUMPDEST PUSH1 0x20 MUL PUSH1 0x20 ADD ADD MLOAD PUSH1 0x20 ADD MLOAD PUSH1 0x1 DUP2 MLOAD DUP2 LT PUSH2 0xEA0 JUMPI PUSH2 0xEA0 PUSH2 0x20E8 JUMP JUMPDEST PUSH1 0x1 PUSH1 0x1 PUSH1 0xE0 SHL SUB NOT SWAP1 SWAP3 AND PUSH1 0x20 SWAP3 DUP4 MUL SWAP2 SWAP1 SWAP2 ADD SWAP1 SWAP2 ADD MSTORE DUP1 MLOAD PUSH4 0x40C10F19 PUSH1 0xE0 SHL SWAP1 DUP3 SWAP1 PUSH1 0x1 SWAP1 DUP2 LT PUSH2 0xED7 JUMPI PUSH2 0xED7 PUSH2 0x20E8 JUMP JUMPDEST PUSH1 0x20 MUL PUSH1 0x20 ADD ADD MLOAD PUSH1 0x20 ADD MLOAD PUSH1 0x2 DUP2 MLOAD DUP2 LT PUSH2 0xEF5 JUMPI PUSH2 0xEF5 PUSH2 0x20E8 JUMP JUMPDEST PUSH1 0x1 PUSH1 0x1 PUSH1 0xE0 SHL SUB NOT SWAP1 SWAP3 AND PUSH1 0x20 SWAP3 DUP4 MUL SWAP2 SWAP1 SWAP2 ADD SWAP1 SWAP2 ADD MSTORE DUP1 MLOAD PUSH4 0xBFEE647 PUSH1 0xE1 SHL SWAP1 DUP3 SWAP1 PUSH1 0x1 SWAP1 DUP2 LT PUSH2 0xF2C JUMPI PUSH2 0xF2C PUSH2 0x20E8 JUMP JUMPDEST PUSH1 0x20 MUL PUSH1 0x20 ADD ADD MLOAD PUSH1 0x20 ADD MLOAD PUSH1 0x3 DUP2 MLOAD DUP2 LT PUSH2 0xF4A JUMPI PUSH2 0xF4A PUSH2 0x20E8 JUMP JUMPDEST PUSH1 0x1 PUSH1 0x1 PUSH1 0xE0 SHL SUB NOT SWAP1 SWAP3 AND PUSH1 0x20 SWAP3 DUP4 MUL SWAP2 SWAP1 SWAP2 ADD SWAP1 SWAP2 ADD MSTORE DUP1 MLOAD PUSH4 0x11A98D35 PUSH1 0xE2 SHL SWAP1 DUP3 SWAP1 PUSH1 0x1 SWAP1 DUP2 LT PUSH2 0xF81 JUMPI PUSH2 0xF81 PUSH2 0x20E8 JUMP JUMPDEST PUSH1 0x20 MUL PUSH1 0x20 ADD ADD MLOAD PUSH1 0x20 ADD MLOAD PUSH1 0x4 DUP2 MLOAD DUP2 LT PUSH2 0xF9F JUMPI PUSH2 0xF9F PUSH2 0x20E8 JUMP JUMPDEST PUSH1 0x1 PUSH1 0x1 PUSH1 0xE0 SHL SUB NOT SWAP1 SWAP3 AND PUSH1 0x20 SWAP3 DUP4 MUL SWAP2 SWAP1 SWAP2 ADD SWAP1 SWAP2 ADD MSTORE DUP1 MLOAD PUSH4 0x7D35F355 PUSH1 0xE0 SHL SWAP1 DUP3 SWAP1 PUSH1 0x1 SWAP1 DUP2 LT PUSH2 0xFD6 JUMPI PUSH2 0xFD6 PUSH2 0x20E8 JUMP JUMPDEST PUSH1 0x20 MUL PUSH1 0x20 ADD ADD MLOAD PUSH1 0x20 ADD MLOAD PUSH1 0x5 DUP2 MLOAD DUP2 LT PUSH2 0xFF4 JUMPI PUSH2 0xFF4 PUSH2 0x20E8 JUMP JUMPDEST PUSH1 0x1 PUSH1 0x1 PUSH1 0xE0 SHL SUB NOT SWAP1 SWAP3 AND PUSH1 0x20 SWAP3 DUP4 MUL SWAP2 SWAP1 SWAP2 ADD SWAP1 SWAP2 ADD MSTORE DUP1 MLOAD PUSH4 0x76A67A51 PUSH1 0xE0 SHL SWAP1 DUP3 SWAP1 PUSH1 0x1 SWAP1 DUP2 LT PUSH2 0x102B JUMPI PUSH2 0x102B PUSH2 0x20E8 JUMP JUMPDEST PUSH1 0x20 MUL PUSH1 0x20 ADD ADD MLOAD PUSH1 0x20 ADD MLOAD PUSH1 0x6 DUP2 MLOAD DUP2 LT PUSH2 0x1049 JUMPI PUSH2 0x1049 PUSH2 0x20E8 JUMP JUMPDEST PUSH1 0x1 PUSH1 0x1 PUSH1 0xE0 SHL SUB NOT SWAP1 SWAP3 AND PUSH1 0x20 SWAP3 DUP4 MUL SWAP2 SWAP1 SWAP2 ADD SWAP1 SWAP2 ADD MSTORE DUP1 MLOAD PUSH4 0x57B001F9 PUSH1 0xE0 SHL SWAP1 DUP3 SWAP1 PUSH1 0x1 SWAP1 DUP2 LT PUSH2 0x1080 JUMPI PUSH2 0x1080 PUSH2 0x20E8 JUMP JUMPDEST PUSH1 0x20 MUL PUSH1 0x20 ADD ADD MLOAD PUSH1 0x20 ADD MLOAD PUSH1 0x7 DUP2 MLOAD DUP2 LT PUSH2 0x109E JUMPI PUSH2 0x109E PUSH2 0x20E8 JUMP JUMPDEST PUSH1 0x1 PUSH1 0x1 PUSH1 0xE0 SHL SUB NOT SWAP1 SWAP3 AND PUSH1 0x20 SWAP3 DUP4 MUL SWAP2 SWAP1 SWAP2 ADD SWAP1 SWAP2 ADD MSTORE DUP1 MLOAD PUSH4 0x595C6A67 PUSH1 0xE0 SHL SWAP1 DUP3 SWAP1 PUSH1 0x1 SWAP1 DUP2 LT PUSH2 0x10D5 JUMPI PUSH2 0x10D5 PUSH2 0x20E8 JUMP JUMPDEST PUSH1 0x20 MUL PUSH1 0x20 ADD ADD MLOAD PUSH1 0x20 ADD MLOAD PUSH1 0x8 DUP2 MLOAD DUP2 LT PUSH2 0x10F3 JUMPI PUSH2 0x10F3 PUSH2 0x20E8 JUMP JUMPDEST PUSH1 0x1 PUSH1 0x1 PUSH1 0xE0 SHL SUB NOT SWAP1 SWAP3 AND PUSH1 0x20 SWAP3 DUP4 MUL SWAP2 SWAP1 SWAP2 ADD SWAP1 SWAP2 ADD MSTORE DUP1 MLOAD PUSH4 0x8A2DDD03 PUSH1 0xE0 SHL SWAP1 DUP3 SWAP1 PUSH1 0x1 SWAP1 DUP2 LT PUSH2 0x112A JUMPI PUSH2 0x112A PUSH2 0x20E8 JUMP JUMPDEST PUSH1 0x20 MUL PUSH1 0x20 ADD ADD MLOAD PUSH1 0x20 ADD MLOAD PUSH1 0x9 DUP2 MLOAD DUP2 LT PUSH2 0x1148 JUMPI PUSH2 0x1148 PUSH2 0x20E8 JUMP JUMPDEST PUSH1 0x20 MUL PUSH1 0x20 ADD ADD SWAP1 PUSH1 0x1 PUSH1 0x1 PUSH1 0xE0 SHL SUB NOT AND SWAP1 DUP2 PUSH1 0x1 PUSH1 0x1 PUSH1 0xE0 SHL SUB NOT AND DUP2 MSTORE POP POP PUSH32 0x756AF45F4CE05D832BEE0C171992C529AD6D3CA8E13303D78FEACE2F8FD7FAF2 DUP2 PUSH1 0x1 DUP2 MLOAD DUP2 LT PUSH2 0x119E JUMPI PUSH2 0x119E PUSH2 0x20E8 JUMP JUMPDEST PUSH1 0x20 MUL PUSH1 0x20 ADD ADD MLOAD PUSH1 0x20 ADD MLOAD PUSH1 0xA DUP2 MLOAD DUP2 LT PUSH2 0x11BC JUMPI PUSH2 0x11BC PUSH2 0x20E8 JUMP JUMPDEST PUSH1 0x1 PUSH1 0x1 PUSH1 0xE0 SHL SUB NOT SWAP1 SWAP3 AND PUSH1 0x20 SWAP3 DUP4 MUL SWAP2 SWAP1 SWAP2 ADD DUP3 ADD MSTORE PUSH1 0x40 MLOAD PUSH2 0x1205 SWAP2 ADD PUSH32 0x4C4956454C595F53595354454D5F41444D494E5F524F4C450000000000000000 DUP2 MSTORE PUSH1 0x18 ADD SWAP1 JUMP JUMPDEST PUSH1 0x40 MLOAD PUSH1 0x20 DUP2 DUP4 SUB SUB DUP2 MSTORE SWAP1 PUSH1 0x40 MSTORE DUP1 MLOAD SWAP1 PUSH1 0x20 ADD KECCAK256 DUP2 PUSH1 0x2 DUP2 MLOAD DUP2 LT PUSH2 0x122E JUMPI PUSH2 0x122E PUSH2 0x20E8 JUMP JUMPDEST PUSH1 0x20 MUL PUSH1 0x20 ADD ADD MLOAD PUSH1 0x0 ADD DUP2 DUP2 MSTORE POP POP PUSH1 0x1 DUP2 PUSH1 0x2 DUP2 MLOAD DUP2 LT PUSH2 0x1253 JUMPI PUSH2 0x1253 PUSH2 0x20E8 JUMP JUMPDEST PUSH1 0x20 SWAP1 DUP2 MUL SWAP2 SWAP1 SWAP2 ADD DUP2 ADD MLOAD SWAP2 ISZERO ISZERO PUSH1 0x40 SWAP3 DUP4 ADD MSTORE DUP2 MLOAD PUSH1 0x3 DUP1 DUP3 MSTORE PUSH1 0x80 DUP3 ADD SWAP1 SWAP4 MSTORE SWAP2 SWAP1 DUP3 ADD PUSH1 0x60 DUP1 CALLDATASIZE DUP4 CALLDATACOPY ADD SWAP1 POP POP DUP2 PUSH1 0x2 DUP2 MLOAD DUP2 LT PUSH2 0x1297 JUMPI PUSH2 0x1297 PUSH2 0x20E8 JUMP JUMPDEST PUSH1 0x20 MUL PUSH1 0x20 ADD ADD MLOAD PUSH1 0x20 ADD DUP2 SWAP1 MSTORE POP PUSH4 0xD9DC1F19 PUSH1 0xE0 SHL DUP2 PUSH1 0x2 DUP2 MLOAD DUP2 LT PUSH2 0x12C1 JUMPI PUSH2 0x12C1 PUSH2 0x20E8 JUMP JUMPDEST PUSH1 0x20 MUL PUSH1 0x20 ADD ADD MLOAD PUSH1 0x20 ADD MLOAD PUSH1 0x0 DUP2 MLOAD DUP2 LT PUSH2 0x12DF JUMPI PUSH2 0x12DF PUSH2 0x20E8 JUMP JUMPDEST PUSH1 0x1 PUSH1 0x1 PUSH1 0xE0 SHL SUB NOT SWAP1 SWAP3 AND PUSH1 0x20 SWAP3 DUP4 MUL SWAP2 SWAP1 SWAP2 ADD SWAP1 SWAP2 ADD MSTORE DUP1 MLOAD PUSH4 0x225BF2F9 PUSH1 0xE1 SHL SWAP1 DUP3 SWAP1 PUSH1 0x2 SWAP1 DUP2 LT PUSH2 0x1316 JUMPI PUSH2 0x1316 PUSH2 0x20E8 JUMP JUMPDEST PUSH1 0x20 MUL PUSH1 0x20 ADD ADD MLOAD PUSH1 0x20 ADD MLOAD PUSH1 0x1 DUP2 MLOAD DUP2 LT PUSH2 0x1334 JUMPI PUSH2 0x1334 PUSH2 0x20E8 JUMP JUMPDEST PUSH1 0x1 PUSH1 0x1 PUSH1 0xE0 SHL SUB NOT SWAP1 SWAP3 AND PUSH1 0x20 SWAP3 DUP4 MUL SWAP2 SWAP1 SWAP2 ADD SWAP1 SWAP2 ADD MSTORE DUP1 MLOAD PUSH4 0x7147855D PUSH1 0xE0 SHL SWAP1 DUP3 SWAP1 PUSH1 0x2 SWAP1 DUP2 LT PUSH2 0x136B JUMPI PUSH2 0x136B PUSH2 0x20E8 JUMP JUMPDEST PUSH1 0x20 MUL PUSH1 0x20 ADD ADD MLOAD PUSH1 0x20 ADD MLOAD PUSH1 0x2 DUP2 MLOAD DUP2 LT PUSH2 0x1389 JUMPI PUSH2 0x1389 PUSH2 0x20E8 JUMP JUMPDEST PUSH1 0x1 PUSH1 0x1 PUSH1 0xE0 SHL SUB NOT SWAP1 SWAP3 AND PUSH1 0x20 SWAP3 DUP4 MUL SWAP2 SWAP1 SWAP2 ADD DUP3 ADD MSTORE PUSH1 0x40 MLOAD PUSH2 0x13D2 SWAP2 ADD PUSH32 0x4C4956454C595F41535345545F4D414E414745525F524F4C4500000000000000 DUP2 MSTORE PUSH1 0x19 ADD SWAP1 JUMP JUMPDEST PUSH1 0x40 MLOAD PUSH1 0x20 DUP2 DUP4 SUB SUB DUP2 MSTORE SWAP1 PUSH1 0x40 MSTORE DUP1 MLOAD SWAP1 PUSH1 0x20 ADD KECCAK256 DUP2 PUSH1 0x3 DUP2 MLOAD DUP2 LT PUSH2 0x13FB JUMPI PUSH2 0x13FB PUSH2 0x20E8 JUMP JUMPDEST PUSH1 0x20 MUL PUSH1 0x20 ADD ADD MLOAD PUSH1 0x0 ADD DUP2 DUP2 MSTORE POP POP PUSH1 0x1 DUP2 PUSH1 0x3 DUP2 MLOAD DUP2 LT PUSH2 0x1420 JUMPI PUSH2 0x1420 PUSH2 0x20E8 JUMP JUMPDEST PUSH1 0x20 SWAP1 DUP2 MUL SWAP2 SWAP1 SWAP2 ADD DUP2 ADD MLOAD SWAP2 ISZERO ISZERO PUSH1 0x40 SWAP3 DUP4 ADD MSTORE DUP2 MLOAD PUSH1 0x3 DUP1 DUP3 MSTORE PUSH1 0x80 DUP3 ADD SWAP1 SWAP4 MSTORE SWAP2 SWAP1 DUP3 ADD PUSH1 0x60 DUP1 CALLDATASIZE DUP4 CALLDATACOPY ADD SWAP1 POP POP DUP2 PUSH1 0x3 DUP2 MLOAD DUP2 LT PUSH2 0x1464 JUMPI PUSH2 0x1464 PUSH2 0x20E8 JUMP JUMPDEST PUSH1 0x20 MUL PUSH1 0x20 ADD ADD MLOAD PUSH1 0x20 ADD DUP2 SWAP1 MSTORE POP PUSH4 0x6B839492 PUSH1 0xE0 SHL DUP2 PUSH1 0x3 DUP2 MLOAD DUP2 LT PUSH2 0x148E JUMPI PUSH2 0x148E PUSH2 0x20E8 JUMP JUMPDEST PUSH1 0x20 MUL PUSH1 0x20 ADD ADD MLOAD PUSH1 0x20 ADD MLOAD PUSH1 0x0 DUP2 MLOAD DUP2 LT PUSH2 0x14AC JUMPI PUSH2 0x14AC PUSH2 0x20E8 JUMP JUMPDEST PUSH1 0x1 PUSH1 0x1 PUSH1 0xE0 SHL SUB NOT SWAP1 SWAP3 AND PUSH1 0x20 SWAP3 DUP4 MUL SWAP2 SWAP1 SWAP2 ADD SWAP1 SWAP2 ADD MSTORE DUP1 MLOAD PUSH4 0x9A7E1873 PUSH1 0xE0 SHL SWAP1 DUP3 SWAP1 PUSH1 0x3 SWAP1 DUP2 LT PUSH2 0x14E3 JUMPI PUSH2 0x14E3 PUSH2 0x20E8 JUMP JUMPDEST PUSH1 0x20 MUL PUSH1 0x20 ADD ADD MLOAD PUSH1 0x20 ADD MLOAD PUSH1 0x1 DUP2 MLOAD DUP2 LT PUSH2 0x1501 JUMPI PUSH2 0x1501 PUSH2 0x20E8 JUMP JUMPDEST PUSH1 0x20 MUL PUSH1 0x20 ADD ADD SWAP1 PUSH1 0x1 PUSH1 0x1 PUSH1 0xE0 SHL SUB NOT AND SWAP1 DUP2 PUSH1 0x1 PUSH1 0x1 PUSH1 0xE0 SHL SUB NOT AND DUP2 MSTORE POP POP PUSH32 0xEC4AC1F7A145493F4B4D677B3706DED0B0EFFF6BC9B9DE9AB9D367B741BAE880 DUP2 PUSH1 0x3 DUP2 MLOAD DUP2 LT PUSH2 0x1557 JUMPI PUSH2 0x1557 PUSH2 0x20E8 JUMP JUMPDEST PUSH1 0x20 MUL PUSH1 0x20 ADD ADD MLOAD PUSH1 0x20 ADD MLOAD PUSH1 0x2 DUP2 MLOAD DUP2 LT PUSH2 0x1575 JUMPI PUSH2 0x1575 PUSH2 0x20E8 JUMP JUMPDEST PUSH1 0x1 PUSH1 0x1 PUSH1 0xE0 SHL SUB NOT SWAP1 SWAP3 AND PUSH1 0x20 SWAP3 DUP4 MUL SWAP2 SWAP1 SWAP2 ADD DUP3 ADD MSTORE PUSH1 0x40 MLOAD PUSH2 0x15C9 SWAP2 ADD PUSH32 0x4C4956454C595F434F4D4D554E4954595F44414F5F4558454355544F525F524F DUP2 MSTORE PUSH2 0x4C45 PUSH1 0xF0 SHL PUSH1 0x20 DUP3 ADD MSTORE PUSH1 0x22 ADD SWAP1 JUMP JUMPDEST PUSH1 0x40 MLOAD PUSH1 0x20 DUP2 DUP4 SUB SUB DUP2 MSTORE SWAP1 PUSH1 0x40 MSTORE DUP1 MLOAD SWAP1 PUSH1 0x20 ADD KECCAK256 DUP2 PUSH1 0x4 DUP2 MLOAD DUP2 LT PUSH2 0x15F2 JUMPI PUSH2 0x15F2 PUSH2 0x20E8 JUMP JUMPDEST PUSH1 0x20 MUL PUSH1 0x20 ADD ADD MLOAD PUSH1 0x0 ADD DUP2 DUP2 MSTORE POP POP PUSH1 0x1 DUP2 PUSH1 0x4 DUP2 MLOAD DUP2 LT PUSH2 0x1617 JUMPI PUSH2 0x1617 PUSH2 0x20E8 JUMP JUMPDEST PUSH1 0x20 SWAP1 DUP2 MUL SWAP2 SWAP1 SWAP2 ADD ADD MLOAD SWAP1 ISZERO ISZERO PUSH1 0x40 SWAP2 DUP3 ADD MSTORE DUP1 MLOAD PUSH1 0x2 DUP1 DUP3 MSTORE PUSH1 0x60 DUP3 ADD SWAP1 SWAP3 MSTORE SWAP1 DUP2 PUSH1 0x20 ADD PUSH1 0x20 DUP3 MUL DUP1 CALLDATASIZE DUP4 CALLDATACOPY ADD SWAP1 POP POP DUP2 PUSH1 0x4 DUP2 MLOAD DUP2 LT PUSH2 0x165D JUMPI PUSH2 0x165D PUSH2 0x20E8 JUMP JUMPDEST PUSH1 0x20 MUL PUSH1 0x20 ADD ADD MLOAD PUSH1 0x20 ADD DUP2 SWAP1 MSTORE POP PUSH4 0xFDB92EC4 PUSH1 0xE0 SHL DUP2 PUSH1 0x4 DUP2 MLOAD DUP2 LT PUSH2 0x1687 JUMPI PUSH2 0x1687 PUSH2 0x20E8 JUMP JUMPDEST PUSH1 0x20 MUL PUSH1 0x20 ADD ADD MLOAD PUSH1 0x20 ADD MLOAD PUSH1 0x0 DUP2 MLOAD DUP2 LT PUSH2 0x16A5 JUMPI PUSH2 0x16A5 PUSH2 0x20E8 JUMP JUMPDEST PUSH1 0x1 PUSH1 0x1 PUSH1 0xE0 SHL SUB NOT SWAP1 SWAP3 AND PUSH1 0x20 SWAP3 DUP4 MUL SWAP2 SWAP1 SWAP2 ADD SWAP1 SWAP2 ADD MSTORE DUP1 MLOAD PUSH4 0x4DAF9AB7 PUSH1 0xE1 SHL SWAP1 DUP3 SWAP1 PUSH1 0x4 SWAP1 DUP2 LT PUSH2 0x16DC JUMPI PUSH2 0x16DC PUSH2 0x20E8 JUMP JUMPDEST PUSH1 0x20 MUL PUSH1 0x20 ADD ADD MLOAD PUSH1 0x20 ADD MLOAD PUSH1 0x1 DUP2 MLOAD DUP2 LT PUSH2 0x16FA JUMPI PUSH2 0x16FA PUSH2 0x20E8 JUMP JUMPDEST PUSH1 0x1 PUSH1 0x1 PUSH1 0xE0 SHL SUB NOT SWAP3 SWAP1 SWAP3 AND PUSH1 0x20 SWAP3 DUP4 MUL SWAP2 SWAP1 SWAP2 ADD DUP3 ADD MSTORE PUSH1 0x40 DUP1 MLOAD PUSH1 0xA0 DUP2 ADD DUP3 MSTORE SWAP8 DUP9 MSTORE SWAP1 DUP8 ADD SWAP6 SWAP1 SWAP6 MSTORE SWAP4 DUP6 ADD SWAP3 SWAP1 SWAP3 MSTORE POP POP ADDRESS PUSH1 0x60 DUP4 ADD MSTORE PUSH1 0x1 PUSH1 0x80 DUP4 ADD MSTORE SWAP1 SWAP2 JUMP JUMPDEST PUSH1 0x40 MLOAD PUSH11 0x4C546F6B656E455243323 PUSH1 0xAC SHL PUSH1 0x20 DUP3 ADD MSTORE PUSH1 0x2B ADD PUSH2 0x592 JUMP JUMPDEST PUSH1 0x0 DUP1 DUP3 CALLDATALOAD PUSH2 0x17A3 JUMPI PUSH1 0x40 MLOAD PUSH3 0x461BCD PUSH1 0xE5 SHL DUP2 MSTORE PUSH1 0x20 PUSH1 0x4 DUP3 ADD MSTORE PUSH1 0xF PUSH1 0x24 DUP3 ADD MSTORE PUSH15 0x125B9D985B1A5908131BD8DAC81259 PUSH1 0x8A SHL PUSH1 0x44 DUP3 ADD MSTORE PUSH1 0x64 ADD PUSH2 0x1FB JUMP JUMPDEST PUSH1 0x0 PUSH1 0x2 DUP6 ADD DUP2 PUSH2 0x17BA PUSH1 0x40 DUP8 ADD PUSH1 0x20 DUP9 ADD PUSH2 0x20FE JUMP JUMPDEST PUSH1 0x1 PUSH1 0x1 PUSH1 0xA0 SHL SUB SWAP1 DUP2 AND DUP3 MSTORE PUSH1 0x20 DUP1 DUP4 ADD SWAP4 SWAP1 SWAP4 MSTORE PUSH1 0x40 SWAP2 DUP3 ADD PUSH1 0x0 SWAP1 DUP2 KECCAK256 DUP9 CALLDATALOAD DUP3 MSTORE SWAP1 SWAP4 MSTORE SWAP2 KECCAK256 PUSH1 0x2 ADD SLOAD AND SUB PUSH2 0x1826 JUMPI PUSH1 0x40 MLOAD PUSH3 0x461BCD PUSH1 0xE5 SHL DUP2 MSTORE PUSH1 0x20 PUSH1 0x4 DUP3 ADD MSTORE PUSH1 0xE PUSH1 0x24 DUP3 ADD MSTORE PUSH14 0x131BD8DAC8139BDD08119BDD5B99 PUSH1 0x92 SHL PUSH1 0x44 DUP3 ADD MSTORE PUSH1 0x64 ADD PUSH2 0x1FB JUMP JUMPDEST PUSH1 0x1 PUSH1 0x2 DUP6 ADD PUSH1 0x0 PUSH2 0x183E PUSH1 0x40 DUP8 ADD PUSH1 0x20 DUP9 ADD PUSH2 0x20FE JUMP JUMPDEST PUSH1 0x1 PUSH1 0x1 PUSH1 0xA0 SHL SUB AND DUP2 MSTORE PUSH1 0x20 DUP1 DUP3 ADD SWAP3 SWAP1 SWAP3 MSTORE PUSH1 0x40 SWAP1 DUP2 ADD PUSH1 0x0 SWAP1 DUP2 KECCAK256 DUP8 CALLDATALOAD DUP3 MSTORE SWAP1 SWAP3 MSTORE SWAP1 KECCAK256 PUSH1 0x2 ADD SLOAD PUSH1 0x1 PUSH1 0xA0 SHL SWAP1 DIV PUSH1 0xFF AND PUSH1 0x3 DUP2 GT ISZERO PUSH2 0x1884 JUMPI PUSH2 0x1884 PUSH2 0x20D2 JUMP JUMPDEST EQ PUSH2 0x18C6 JUMPI PUSH1 0x40 MLOAD PUSH3 0x461BCD PUSH1 0xE5 SHL DUP2 MSTORE PUSH1 0x20 PUSH1 0x4 DUP3 ADD MSTORE PUSH1 0x12 PUSH1 0x24 DUP3 ADD MSTORE PUSH18 0x496E76616C6964204C6F636B205374617465 PUSH1 0x70 SHL PUSH1 0x44 DUP3 ADD MSTORE PUSH1 0x64 ADD PUSH2 0x1FB JUMP JUMPDEST PUSH1 0x0 PUSH1 0x2 DUP6 ADD DUP2 PUSH2 0x18DD PUSH1 0x40 DUP8 ADD PUSH1 0x20 DUP9 ADD PUSH2 0x20FE JUMP JUMPDEST PUSH1 0x1 PUSH1 0x1 PUSH1 0xA0 SHL SUB AND DUP2 MSTORE PUSH1 0x20 DUP1 DUP3 ADD SWAP3 SWAP1 SWAP3 MSTORE PUSH1 0x40 SWAP1 DUP2 ADD PUSH1 0x0 SWAP1 DUP2 KECCAK256 DUP8 CALLDATALOAD DUP3 MSTORE DUP4 MSTORE DUP2 DUP2 KECCAK256 SLOAD SWAP4 POP SWAP2 DUP8 SWAP2 DUP4 SWAP2 PUSH2 0x191A SWAP2 DUP10 ADD SWAP1 DUP10 ADD PUSH2 0x20FE JUMP JUMPDEST PUSH1 0x1 PUSH1 0x1 PUSH1 0xA0 SHL SUB AND PUSH1 0x1 PUSH1 0x1 PUSH1 0xA0 SHL SUB AND DUP2 MSTORE PUSH1 0x20 ADD SWAP1 DUP2 MSTORE PUSH1 0x20 ADD PUSH1 0x0 KECCAK256 PUSH1 0x1 ADD SLOAD SWAP1 POP PUSH1 0x0 DUP7 PUSH1 0x2 ADD PUSH1 0x0 DUP8 PUSH1 0x20 ADD PUSH1 0x20 DUP2 ADD SWAP1 PUSH2 0x195B SWAP2 SWAP1 PUSH2 0x20FE JUMP JUMPDEST PUSH1 0x1 PUSH1 0x1 PUSH1 0xA0 SHL SUB SWAP1 DUP2 AND DUP3 MSTORE PUSH1 0x20 DUP1 DUP4 ADD SWAP4 SWAP1 SWAP4 MSTORE PUSH1 0x40 SWAP2 DUP3 ADD PUSH1 0x0 SWAP1 DUP2 KECCAK256 DUP11 CALLDATALOAD DUP3 MSTORE SWAP1 SWAP4 MSTORE SWAP2 KECCAK256 PUSH1 0x2 ADD SLOAD AND SWAP1 POP DUP3 DUP3 LT ISZERO PUSH2 0x19AB JUMPI PUSH1 0x40 MLOAD PUSH3 0x461BCD PUSH1 0xE5 SHL DUP2 MSTORE PUSH1 0x4 ADD PUSH2 0x1FB SWAP1 PUSH2 0x2119 JUMP JUMPDEST DUP3 DUP3 SUB DUP8 PUSH1 0x0 PUSH2 0x19C1 PUSH1 0x40 DUP11 ADD PUSH1 0x20 DUP12 ADD PUSH2 0x20FE JUMP JUMPDEST PUSH1 0x1 PUSH1 0x1 PUSH1 0xA0 SHL SUB SWAP1 DUP2 AND DUP3 MSTORE PUSH1 0x20 DUP1 DUP4 ADD SWAP4 SWAP1 SWAP4 MSTORE PUSH1 0x40 SWAP2 DUP3 ADD PUSH1 0x0 SWAP1 DUP2 KECCAK256 PUSH1 0x1 ADD SWAP5 SWAP1 SWAP5 SSTORE DUP5 AND DUP4 MSTORE SWAP1 DUP10 SWAP1 MSTORE DUP2 KECCAK256 DUP1 SLOAD DUP6 SWAP3 SWAP1 PUSH2 0x1A02 SWAP1 DUP5 SWAP1 PUSH2 0x20BF JUMP JUMPDEST SWAP1 SWAP2 SSTORE POP PUSH1 0x3 SWAP1 POP PUSH1 0x2 DUP9 ADD PUSH1 0x0 PUSH2 0x1A20 PUSH1 0x40 DUP11 ADD PUSH1 0x20 DUP12 ADD PUSH2 0x20FE JUMP JUMPDEST PUSH1 0x1 PUSH1 0x1 PUSH1 0xA0 SHL SUB AND DUP2 MSTORE PUSH1 0x20 DUP1 DUP3 ADD SWAP3 SWAP1 SWAP3 MSTORE PUSH1 0x40 SWAP1 DUP2 ADD PUSH1 0x0 SWAP1 DUP2 KECCAK256 DUP11 CALLDATALOAD DUP3 MSTORE SWAP1 SWAP3 MSTORE SWAP1 KECCAK256 PUSH1 0x2 ADD DUP1 SLOAD PUSH1 0xFF PUSH1 0xA0 SHL NOT AND PUSH1 0x1 PUSH1 0xA0 SHL DUP4 PUSH1 0x3 DUP2 GT ISZERO PUSH2 0x1A6A JUMPI PUSH2 0x1A6A PUSH2 0x20D2 JUMP JUMPDEST MUL OR SWAP1 SSTORE POP SWAP7 SWAP2 SWAP6 POP SWAP1 SWAP4 POP POP POP POP JUMP JUMPDEST PUSH1 0x0 DUP2 PUSH2 0x1ABC JUMPI PUSH1 0x40 MLOAD PUSH3 0x461BCD PUSH1 0xE5 SHL DUP2 MSTORE PUSH1 0x20 PUSH1 0x4 DUP3 ADD MSTORE PUSH1 0xF PUSH1 0x24 DUP3 ADD MSTORE PUSH15 0x125B9D985B1A5908131BD8DAC81259 PUSH1 0x8A SHL PUSH1 0x44 DUP3 ADD MSTORE PUSH1 0x64 ADD PUSH2 0x1FB JUMP JUMPDEST CALLER PUSH1 0x0 SWAP1 DUP2 MSTORE PUSH1 0x2 DUP1 DUP6 ADD PUSH1 0x20 SWAP1 DUP2 MSTORE PUSH1 0x40 DUP1 DUP5 KECCAK256 DUP7 DUP6 MSTORE SWAP1 SWAP2 MSTORE SWAP1 SWAP2 KECCAK256 ADD SLOAD PUSH1 0x1 PUSH1 0x1 PUSH1 0xA0 SHL SUB AND PUSH2 0x1B22 JUMPI PUSH1 0x40 MLOAD PUSH3 0x461BCD PUSH1 0xE5 SHL DUP2 MSTORE PUSH1 0x20 PUSH1 0x4 DUP3 ADD MSTORE PUSH1 0xE PUSH1 0x24 DUP3 ADD MSTORE PUSH14 0x131BD8DAC8139BDD08119BDD5B99 PUSH1 0x92 SHL PUSH1 0x44 DUP3 ADD MSTORE PUSH1 0x64 ADD PUSH2 0x1FB JUMP JUMPDEST CALLER PUSH1 0x0 SWAP1 DUP2 MSTORE PUSH1 0x2 DUP5 ADD PUSH1 0x20 SWAP1 DUP2 MSTORE PUSH1 0x40 DUP1 DUP4 KECCAK256 DUP6 DUP5 MSTORE SWAP1 SWAP2 MSTORE SWAP1 KECCAK256 PUSH1 0x1 ADD SLOAD PUSH1 0x1 PUSH1 0x1 PUSH1 0x80 SHL SUB TIMESTAMP DUP2 AND PUSH1 0x1 PUSH1 0x80 SHL SWAP1 SWAP3 DIV AND LT PUSH2 0x1B98 JUMPI PUSH1 0x40 MLOAD PUSH3 0x461BCD PUSH1 0xE5 SHL DUP2 MSTORE PUSH1 0x20 PUSH1 0x4 DUP3 ADD MSTORE PUSH1 0x12 PUSH1 0x24 DUP3 ADD MSTORE PUSH18 0x496C6C6567616C20436C61696D204C6F636B PUSH1 0x70 SHL PUSH1 0x44 DUP3 ADD MSTORE PUSH1 0x64 ADD PUSH2 0x1FB JUMP JUMPDEST CALLER PUSH1 0x0 DUP2 DUP2 MSTORE PUSH1 0x2 DUP6 ADD PUSH1 0x20 SWAP1 DUP2 MSTORE PUSH1 0x40 DUP1 DUP4 KECCAK256 DUP7 DUP5 MSTORE DUP3 MSTORE DUP1 DUP4 KECCAK256 SLOAD SWAP4 DUP4 MSTORE SWAP1 DUP7 SWAP1 MSTORE SWAP1 KECCAK256 PUSH1 0x1 ADD SLOAD DUP2 DUP2 LT ISZERO PUSH2 0x1BE2 JUMPI PUSH1 0x40 MLOAD PUSH3 0x461BCD PUSH1 0xE5 SHL DUP2 MSTORE PUSH1 0x4 ADD PUSH2 0x1FB SWAP1 PUSH2 0x2119 JUMP JUMPDEST CALLER PUSH1 0x0 SWAP1 DUP2 MSTORE PUSH1 0x20 DUP7 SWAP1 MSTORE PUSH1 0x40 DUP2 KECCAK256 DUP4 DUP4 SUB PUSH1 0x1 DUP3 ADD SSTORE DUP1 SLOAD DUP5 SWAP3 SWAP1 PUSH2 0x1C09 SWAP1 DUP5 SWAP1 PUSH2 0x20BF JUMP JUMPDEST SWAP1 SWAP2 SSTORE POP POP CALLER PUSH1 0x0 SWAP1 DUP2 MSTORE PUSH1 0x2 SWAP6 DUP7 ADD PUSH1 0x20 SWAP1 DUP2 MSTORE PUSH1 0x40 DUP1 DUP4 KECCAK256 SWAP7 DUP4 MSTORE SWAP6 SWAP1 MSTORE SWAP4 SWAP1 SWAP4 KECCAK256 SWAP1 SWAP4 ADD DUP1 SLOAD PUSH1 0xFF PUSH1 0xA0 SHL NOT AND PUSH1 0x1 PUSH1 0xA1 SHL OR SWAP1 SSTORE POP SWAP1 SWAP2 SWAP1 POP JUMP JUMPDEST PUSH1 0x1 PUSH1 0x1 PUSH1 0xA0 SHL SUB DUP2 AND PUSH1 0x0 SWAP1 DUP2 MSTORE PUSH1 0x1 DUP4 ADD PUSH1 0x20 MSTORE PUSH1 0x40 DUP2 KECCAK256 SLOAD ISZERO ISZERO JUMPDEST SWAP4 SWAP3 POP POP POP JUMP JUMPDEST PUSH1 0x0 PUSH2 0x1C66 DUP4 PUSH1 0x1 PUSH1 0x1 PUSH1 0xA0 SHL SUB DUP5 AND PUSH2 0x1C97 JUMP JUMPDEST PUSH1 0x0 PUSH2 0x1C66 DUP4 PUSH1 0x1 PUSH1 0x1 PUSH1 0xA0 SHL SUB DUP5 AND PUSH2 0x1D8A JUMP JUMPDEST PUSH1 0x0 DUP2 DUP2 MSTORE PUSH1 0x1 DUP4 ADD PUSH1 0x20 MSTORE PUSH1 0x40 DUP2 KECCAK256 SLOAD DUP1 ISZERO PUSH2 0x1D80 JUMPI PUSH1 0x0 PUSH2 0x1CBB PUSH1 0x1 DUP4 PUSH2 0x215A JUMP JUMPDEST DUP6 SLOAD SWAP1 SWAP2 POP PUSH1 0x0 SWAP1 PUSH2 0x1CCF SWAP1 PUSH1 0x1 SWAP1 PUSH2 0x215A JUMP JUMPDEST SWAP1 POP DUP2 DUP2 EQ PUSH2 0x1D34 JUMPI PUSH1 0x0 DUP7 PUSH1 0x0 ADD DUP3 DUP2 SLOAD DUP2 LT PUSH2 0x1CEF JUMPI PUSH2 0x1CEF PUSH2 0x20E8 JUMP JUMPDEST SWAP1 PUSH1 0x0 MSTORE PUSH1 0x20 PUSH1 0x0 KECCAK256 ADD SLOAD SWAP1 POP DUP1 DUP8 PUSH1 0x0 ADD DUP5 DUP2 SLOAD DUP2 LT PUSH2 0x1D12 JUMPI PUSH2 0x1D12 PUSH2 0x20E8 JUMP JUMPDEST PUSH1 0x0 SWAP2 DUP3 MSTORE PUSH1 0x20 DUP1 DUP4 KECCAK256 SWAP1 SWAP2 ADD SWAP3 SWAP1 SWAP3 SSTORE SWAP2 DUP3 MSTORE PUSH1 0x1 DUP9 ADD SWAP1 MSTORE PUSH1 0x40 SWAP1 KECCAK256 DUP4 SWAP1 SSTORE JUMPDEST DUP6 SLOAD DUP7 SWAP1 DUP1 PUSH2 0x1D45 JUMPI PUSH2 0x1D45 PUSH2 0x216D JUMP JUMPDEST PUSH1 0x1 SWAP1 SUB DUP2 DUP2 SWAP1 PUSH1 0x0 MSTORE PUSH1 0x20 PUSH1 0x0 KECCAK256 ADD PUSH1 0x0 SWAP1 SSTORE SWAP1 SSTORE DUP6 PUSH1 0x1 ADD PUSH1 0x0 DUP7 DUP2 MSTORE PUSH1 0x20 ADD SWAP1 DUP2 MSTORE PUSH1 0x20 ADD PUSH1 0x0 KECCAK256 PUSH1 0x0 SWAP1 SSTORE PUSH1 0x1 SWAP4 POP POP POP POP PUSH2 0x577 JUMP JUMPDEST PUSH1 0x0 SWAP2 POP POP PUSH2 0x577 JUMP JUMPDEST PUSH1 0x0 DUP2 DUP2 MSTORE PUSH1 0x1 DUP4 ADD PUSH1 0x20 MSTORE PUSH1 0x40 DUP2 KECCAK256 SLOAD PUSH2 0x1DD1 JUMPI POP DUP2 SLOAD PUSH1 0x1 DUP2 DUP2 ADD DUP5 SSTORE PUSH1 0x0 DUP5 DUP2 MSTORE PUSH1 0x20 DUP1 DUP3 KECCAK256 SWAP1 SWAP4 ADD DUP5 SWAP1 SSTORE DUP5 SLOAD DUP5 DUP3 MSTORE DUP3 DUP7 ADD SWAP1 SWAP4 MSTORE PUSH1 0x40 SWAP1 KECCAK256 SWAP2 SWAP1 SWAP2 SSTORE PUSH2 0x577 JUMP JUMPDEST POP PUSH1 0x0 PUSH2 0x577 JUMP JUMPDEST DUP1 CALLDATALOAD PUSH1 0x1 PUSH1 0x1 PUSH1 0xA0 SHL SUB DUP2 AND DUP2 EQ PUSH2 0x1DF0 JUMPI PUSH1 0x0 DUP1 REVERT JUMPDEST SWAP2 SWAP1 POP JUMP JUMPDEST PUSH1 0x0 DUP1 DUP3 DUP5 SUB PUSH1 0xA0 DUP2 SLT ISZERO PUSH2 0x1E09 JUMPI PUSH1 0x0 DUP1 REVERT JUMPDEST DUP4 CALLDATALOAD SWAP3 POP PUSH1 0x80 PUSH1 0x1F NOT DUP3 ADD SLT ISZERO PUSH2 0x1E1F JUMPI PUSH1 0x0 DUP1 REVERT JUMPDEST POP PUSH1 0x40 MLOAD PUSH1 0x80 DUP2 ADD DUP2 DUP2 LT PUSH8 0xFFFFFFFFFFFFFFFF DUP3 GT OR ISZERO PUSH2 0x1E51 JUMPI PUSH4 0x4E487B71 PUSH1 0xE0 SHL PUSH1 0x0 MSTORE PUSH1 0x41 PUSH1 0x4 MSTORE PUSH1 0x24 PUSH1 0x0 REVERT JUMPDEST PUSH1 0x40 MSTORE PUSH2 0x1E60 PUSH1 0x20 DUP6 ADD PUSH2 0x1DD9 JUMP JUMPDEST DUP2 MSTORE PUSH2 0x1E6E PUSH1 0x40 DUP6 ADD PUSH2 0x1DD9 JUMP JUMPDEST PUSH1 0x20 DUP3 ADD MSTORE PUSH1 0x60 DUP5 ADD CALLDATALOAD PUSH1 0x40 DUP3 ADD MSTORE PUSH1 0x80 DUP5 ADD CALLDATALOAD PUSH1 0x60 DUP3 ADD MSTORE DUP1 SWAP2 POP POP SWAP3 POP SWAP3 SWAP1 POP JUMP JUMPDEST PUSH1 0x0 DUP1 PUSH1 0x0 DUP1 PUSH1 0x80 DUP6 DUP8 SUB SLT ISZERO PUSH2 0x1EA8 JUMPI PUSH1 0x0 DUP1 REVERT JUMPDEST DUP5 CALLDATALOAD SWAP4 POP PUSH2 0x1EB8 PUSH1 0x20 DUP7 ADD PUSH2 0x1DD9 JUMP JUMPDEST SWAP3 POP PUSH2 0x1EC6 PUSH1 0x40 DUP7 ADD PUSH2 0x1DD9 JUMP JUMPDEST SWAP4 SWAP7 SWAP3 SWAP6 POP SWAP3 SWAP4 PUSH1 0x60 ADD CALLDATALOAD SWAP3 POP POP JUMP JUMPDEST PUSH1 0x0 DUP1 PUSH1 0x0 PUSH1 0x60 DUP5 DUP7 SUB SLT ISZERO PUSH2 0x1EEB JUMPI PUSH1 0x0 DUP1 REVERT JUMPDEST DUP4 CALLDATALOAD SWAP3 POP PUSH2 0x1EFB PUSH1 0x20 DUP6 ADD PUSH2 0x1DD9 JUMP JUMPDEST SWAP2 POP PUSH1 0x40 DUP5 ADD CALLDATALOAD DUP1 ISZERO ISZERO DUP2 EQ PUSH2 0x1F10 JUMPI PUSH1 0x0 DUP1 REVERT JUMPDEST DUP1 SWAP2 POP POP SWAP3 POP SWAP3 POP SWAP3 JUMP JUMPDEST PUSH1 0x0 DUP1 PUSH1 0x0 PUSH1 0x60 DUP5 DUP7 SUB SLT ISZERO PUSH2 0x1F30 JUMPI PUSH1 0x0 DUP1 REVERT JUMPDEST POP POP DUP2 CALLDATALOAD SWAP4 PUSH1 0x20 DUP4 ADD CALLDATALOAD SWAP4 POP PUSH1 0x40 SWAP1 SWAP3 ADD CALLDATALOAD SWAP2 SWAP1 POP JUMP JUMPDEST PUSH1 0x0 PUSH1 0xC0 DUP3 ADD DUP5 MLOAD DUP4 MSTORE PUSH1 0x20 DUP1 DUP7 ADD MLOAD DUP2 DUP6 ADD MSTORE PUSH1 0x40 DUP1 DUP8 ADD MLOAD DUP2 DUP7 ADD MSTORE PUSH1 0x60 PUSH1 0x1 DUP1 PUSH1 0xA0 SHL SUB DUP2 DUP10 ADD MLOAD AND DUP2 DUP8 ADD MSTORE PUSH1 0x80 DUP1 DUP10 ADD MLOAD ISZERO ISZERO DUP2 DUP9 ADD MSTORE PUSH1 0xC0 PUSH1 0xA0 DUP9 ADD MSTORE DUP5 DUP9 MLOAD DUP1 DUP8 MSTORE PUSH1 0xE0 DUP10 ADD SWAP2 POP PUSH1 0xE0 DUP2 PUSH1 0x5 SHL DUP11 ADD ADD SWAP7 POP DUP6 DUP11 ADD PUSH1 0x0 DUP1 JUMPDEST DUP4 DUP2 LT ISZERO PUSH2 0x2027 JUMPI DUP12 DUP11 SUB PUSH1 0xDF NOT ADD DUP6 MSTORE DUP3 MLOAD DUP1 MLOAD DUP12 MSTORE DUP10 DUP2 ADD MLOAD DUP11 DUP13 ADD DUP10 SWAP1 MSTORE DUP1 MLOAD DUP10 DUP14 ADD DUP2 SWAP1 MSTORE SWAP1 DUP12 ADD SWAP1 DUP5 SWAP1 DUP10 DUP15 ADD SWAP1 JUMPDEST DUP1 DUP4 LT ISZERO PUSH2 0x2006 JUMPI DUP4 MLOAD PUSH1 0x1 PUSH1 0x1 PUSH1 0xE0 SHL SUB NOT AND DUP3 MSTORE SWAP3 DUP14 ADD SWAP3 PUSH1 0x1 SWAP3 SWAP1 SWAP3 ADD SWAP2 SWAP1 DUP14 ADD SWAP1 PUSH2 0x1FDC JUMP JUMPDEST POP SWAP3 DUP12 ADD MLOAD ISZERO ISZERO SWAP13 DUP12 ADD SWAP13 SWAP1 SWAP13 MSTORE POP SWAP10 POP SWAP4 DUP9 ADD SWAP4 SWAP2 DUP9 ADD SWAP2 PUSH1 0x1 ADD PUSH2 0x1FA8 JUMP JUMPDEST POP SWAP8 SWAP13 SWAP12 POP POP POP POP POP POP POP POP POP POP POP POP JUMP JUMPDEST PUSH1 0x0 DUP1 PUSH1 0x40 DUP4 DUP6 SUB SLT ISZERO PUSH2 0x204C JUMPI PUSH1 0x0 DUP1 REVERT JUMPDEST DUP3 CALLDATALOAD SWAP2 POP PUSH1 0x20 DUP4 ADD CALLDATALOAD PUSH8 0xFFFFFFFFFFFFFFFF DUP2 GT ISZERO PUSH2 0x206A JUMPI PUSH1 0x0 DUP1 REVERT JUMPDEST DUP4 ADD PUSH1 0x60 DUP2 DUP7 SUB SLT ISZERO PUSH2 0x207C JUMPI PUSH1 0x0 DUP1 REVERT JUMPDEST DUP1 SWAP2 POP POP SWAP3 POP SWAP3 SWAP1 POP JUMP JUMPDEST PUSH1 0x0 DUP1 PUSH1 0x40 DUP4 DUP6 SUB SLT ISZERO PUSH2 0x209A JUMPI PUSH1 0x0 DUP1 REVERT JUMPDEST POP POP DUP1 CALLDATALOAD SWAP3 PUSH1 0x20 SWAP1 SWAP2 ADD CALLDATALOAD SWAP2 POP JUMP JUMPDEST PUSH4 0x4E487B71 PUSH1 0xE0 SHL PUSH1 0x0 MSTORE PUSH1 0x11 PUSH1 0x4 MSTORE PUSH1 0x24 PUSH1 0x0 REVERT JUMPDEST DUP1 DUP3 ADD DUP1 DUP3 GT ISZERO PUSH2 0x577 JUMPI PUSH2 0x577 PUSH2 0x20A9 JUMP JUMPDEST PUSH4 0x4E487B71 PUSH1 0xE0 SHL PUSH1 0x0 MSTORE PUSH1 0x21 PUSH1 0x4 MSTORE PUSH1 0x24 PUSH1 0x0 REVERT JUMPDEST PUSH4 0x4E487B71 PUSH1 0xE0 SHL PUSH1 0x0 MSTORE PUSH1 0x32 PUSH1 0x4 MSTORE PUSH1 0x24 PUSH1 0x0 REVERT JUMPDEST PUSH1 0x0 PUSH1 0x20 DUP3 DUP5 SUB SLT ISZERO PUSH2 0x2110 JUMPI PUSH1 0x0 DUP1 REVERT JUMPDEST PUSH2 0x1C66 DUP3 PUSH2 0x1DD9 JUMP JUMPDEST PUSH1 0x20 DUP1 DUP3 MSTORE PUSH1 0x21 SWAP1 DUP3 ADD MSTORE PUSH32 0x496E73756666696369656E74204163636F756E74204C6F636B2042616C616E63 PUSH1 0x40 DUP3 ADD MSTORE PUSH1 0x65 PUSH1 0xF8 SHL PUSH1 0x60 DUP3 ADD MSTORE PUSH1 0x80 ADD SWAP1 JUMP JUMPDEST DUP2 DUP2 SUB DUP2 DUP2 GT ISZERO PUSH2 0x577 JUMPI PUSH2 0x577 PUSH2 0x20A9 JUMP JUMPDEST PUSH4 0x4E487B71 PUSH1 0xE0 SHL PUSH1 0x0 MSTORE PUSH1 0x31 PUSH1 0x4 MSTORE PUSH1 0x24 PUSH1 0x0 REVERT INVALID LOG2 PUSH5 0x6970667358 0x22 SLT KECCAK256 EQ JUMP 0xB1 0xCF PUSH32 0x266A272EED117C0CA50F965A9B515DA21A4C23808663E4403030A264736F6C63 NUMBER STOP ADDMOD GT STOP CALLER "
    },
    "gasEstimates": {
      "creation": {
        "codeDepositCost": "1726600",
        "executionCost": "1848",
        "totalCost": "1728448"
      },
      "external": {
        "LIB_NAME()": "337",
        "LIB_VERSION()": "327",
        "claimToken(LivelyStorage.DataCollection storage,bytes32)": "80345",
        "createRequestContext(bytes32,bytes32,bytes32)": "infinite",
        "lockToken(LivelyStorage.DataCollection storage,IERC20Lock.LockTokenRequest)": "infinite",
        "transfer(LivelyStorage.DataCollection storage,address,address,uint256)": "infinite",
        "unlockToken(LivelyStorage.DataCollection storage,IERC20Lock.UnLockTokenRequest)": "infinite",
        "updateTaxWhitelist(LivelyStorage.DataCollection storage,address,bool)": "infinite"
      }
    },
    "methodIdentifiers": {
      "LIB_NAME()": "bec94751",
      "LIB_VERSION()": "2466209b",
      "claimToken(LivelyStorage.DataCollection storage,bytes32)": "f7d6b5af",
      "createRequestContext(bytes32,bytes32,bytes32)": "97ca328d",
      "lockToken(LivelyStorage.DataCollection storage,IERC20Lock.LockTokenRequest)": "10e1fc40",
      "transfer(LivelyStorage.DataCollection storage,address,address,uint256)": "3de90db3",
      "unlockToken(LivelyStorage.DataCollection storage,IERC20Lock.UnLockTokenRequest)": "f1c3afef",
      "updateTaxWhitelist(LivelyStorage.DataCollection storage,address,bool)": "4572e0c1"
    }
  },
  "storageLayout": {
    "storage": [],
    "types": null
  },
  "userdoc": {
    "kind": "user",
    "methods": {},
    "version": 1
  }
}