{
  "contractName": "AccessControlManager",
  "sourceName": "src/contracts/acl/AccessControlManager.sol",
  "abi": [
    {
      "inputs": [],
      "stateMutability": "nonpayable",
      "type": "constructor"
    },
    {
      "anonymous": false,
      "inputs": [
        {
          "indexed": true,
          "internalType": "bytes32",
          "name": "context",
          "type": "bytes32"
        },
        {
          "indexed": true,
          "internalType": "address",
          "name": "sender",
          "type": "address"
        },
        {
          "indexed": false,
          "internalType": "bytes4",
          "name": "functionSelector",
          "type": "bytes4"
        },
        {
          "indexed": false,
          "internalType": "bytes32",
          "name": "realm",
          "type": "bytes32"
        }
      ],
      "name": "ContextFuncRemoved",
      "type": "event"
    },
    {
      "anonymous": false,
      "inputs": [
        {
          "indexed": true,
          "internalType": "bytes32",
          "name": "context",
          "type": "bytes32"
        },
        {
          "indexed": true,
          "internalType": "bytes32",
          "name": "role",
          "type": "bytes32"
        },
        {
          "indexed": true,
          "internalType": "address",
          "name": "sender",
          "type": "address"
        },
        {
          "indexed": false,
          "internalType": "bytes4",
          "name": "functionSelector",
          "type": "bytes4"
        },
        {
          "indexed": false,
          "internalType": "bytes32",
          "name": "realm",
          "type": "bytes32"
        }
      ],
      "name": "ContextFuncRoleAdded",
      "type": "event"
    },
    {
      "anonymous": false,
      "inputs": [
        {
          "indexed": true,
          "internalType": "bytes32",
          "name": "context",
          "type": "bytes32"
        },
        {
          "indexed": true,
          "internalType": "address",
          "name": "sender",
          "type": "address"
        },
        {
          "indexed": true,
          "internalType": "bytes32",
          "name": "realm",
          "type": "bytes32"
        },
        {
          "indexed": false,
          "internalType": "bytes32",
          "name": "oldRealm",
          "type": "bytes32"
        }
      ],
      "name": "ContextRealmChanged",
      "type": "event"
    },
    {
      "anonymous": false,
      "inputs": [
        {
          "indexed": true,
          "internalType": "bytes32",
          "name": "context",
          "type": "bytes32"
        },
        {
          "indexed": true,
          "internalType": "address",
          "name": "contractId",
          "type": "address"
        },
        {
          "indexed": true,
          "internalType": "address",
          "name": "sender",
          "type": "address"
        },
        {
          "indexed": false,
          "internalType": "address",
          "name": "signer",
          "type": "address"
        },
        {
          "indexed": false,
          "internalType": "bytes32",
          "name": "realm",
          "type": "bytes32"
        }
      ],
      "name": "ContextRegistered",
      "type": "event"
    },
    {
      "anonymous": false,
      "inputs": [
        {
          "indexed": true,
          "internalType": "bytes32",
          "name": "context",
          "type": "bytes32"
        },
        {
          "indexed": true,
          "internalType": "bytes32",
          "name": "role",
          "type": "bytes32"
        },
        {
          "indexed": true,
          "internalType": "address",
          "name": "sender",
          "type": "address"
        },
        {
          "indexed": false,
          "internalType": "bytes4",
          "name": "functionSelector",
          "type": "bytes4"
        },
        {
          "indexed": false,
          "internalType": "bytes32",
          "name": "realm",
          "type": "bytes32"
        }
      ],
      "name": "ContextRoleGranted",
      "type": "event"
    },
    {
      "anonymous": false,
      "inputs": [
        {
          "indexed": true,
          "internalType": "bytes32",
          "name": "context",
          "type": "bytes32"
        },
        {
          "indexed": true,
          "internalType": "bytes32",
          "name": "role",
          "type": "bytes32"
        },
        {
          "indexed": true,
          "internalType": "address",
          "name": "sender",
          "type": "address"
        },
        {
          "indexed": false,
          "internalType": "bytes4",
          "name": "functionSelector",
          "type": "bytes4"
        },
        {
          "indexed": false,
          "internalType": "bytes32",
          "name": "realm",
          "type": "bytes32"
        }
      ],
      "name": "ContextRoleRevoked",
      "type": "event"
    },
    {
      "anonymous": false,
      "inputs": [
        {
          "indexed": true,
          "internalType": "bytes32",
          "name": "context",
          "type": "bytes32"
        },
        {
          "indexed": true,
          "internalType": "address",
          "name": "sender",
          "type": "address"
        },
        {
          "indexed": true,
          "internalType": "bytes32",
          "name": "realm",
          "type": "bytes32"
        },
        {
          "indexed": false,
          "internalType": "bool",
          "name": "status",
          "type": "bool"
        }
      ],
      "name": "ContextStatusChanged",
      "type": "event"
    },
    {
      "anonymous": false,
      "inputs": [
        {
          "indexed": true,
          "internalType": "bytes32",
          "name": "context",
          "type": "bytes32"
        },
        {
          "indexed": true,
          "internalType": "address",
          "name": "contractId",
          "type": "address"
        },
        {
          "indexed": true,
          "internalType": "address",
          "name": "sender",
          "type": "address"
        },
        {
          "indexed": false,
          "internalType": "bytes32",
          "name": "realm",
          "type": "bytes32"
        }
      ],
      "name": "ContextUpdated",
      "type": "event"
    },
    {
      "anonymous": false,
      "inputs": [
        {
          "indexed": true,
          "internalType": "bytes32",
          "name": "group",
          "type": "bytes32"
        },
        {
          "indexed": true,
          "internalType": "address",
          "name": "sender",
          "type": "address"
        },
        {
          "indexed": false,
          "internalType": "string",
          "name": "name",
          "type": "string"
        },
        {
          "indexed": false,
          "internalType": "bool",
          "name": "status",
          "type": "bool"
        }
      ],
      "name": "GroupRegistered",
      "type": "event"
    },
    {
      "anonymous": false,
      "inputs": [
        {
          "indexed": true,
          "internalType": "bytes32",
          "name": "group",
          "type": "bytes32"
        },
        {
          "indexed": true,
          "internalType": "address",
          "name": "sender",
          "type": "address"
        },
        {
          "indexed": false,
          "internalType": "bool",
          "name": "status",
          "type": "bool"
        }
      ],
      "name": "GroupStatusChanged",
      "type": "event"
    },
    {
      "anonymous": false,
      "inputs": [
        {
          "indexed": true,
          "internalType": "address",
          "name": "sender",
          "type": "address"
        },
        {
          "indexed": true,
          "internalType": "address",
          "name": "proxy",
          "type": "address"
        },
        {
          "indexed": true,
          "internalType": "address",
          "name": "subject",
          "type": "address"
        },
        {
          "indexed": false,
          "internalType": "string",
          "name": "name",
          "type": "string"
        },
        {
          "indexed": false,
          "internalType": "string",
          "name": "version",
          "type": "string"
        },
        {
          "indexed": false,
          "internalType": "bytes32",
          "name": "realm",
          "type": "bytes32"
        },
        {
          "indexed": false,
          "internalType": "uint16",
          "name": "initCount",
          "type": "uint16"
        }
      ],
      "name": "Initialized",
      "type": "event"
    },
    {
      "anonymous": false,
      "inputs": [
        {
          "indexed": true,
          "internalType": "address",
          "name": "sender",
          "type": "address"
        },
        {
          "indexed": true,
          "internalType": "address",
          "name": "proxy",
          "type": "address"
        },
        {
          "indexed": false,
          "internalType": "address",
          "name": "newAdmin",
          "type": "address"
        }
      ],
      "name": "LocalAdminChanged",
      "type": "event"
    },
    {
      "anonymous": false,
      "inputs": [
        {
          "indexed": true,
          "internalType": "address",
          "name": "sender",
          "type": "address"
        },
        {
          "indexed": false,
          "internalType": "uint8",
          "name": "count",
          "type": "uint8"
        }
      ],
      "name": "PermitRegisterContextUpdated",
      "type": "event"
    },
    {
      "anonymous": false,
      "inputs": [
        {
          "indexed": true,
          "internalType": "bytes32",
          "name": "context",
          "type": "bytes32"
        },
        {
          "indexed": true,
          "internalType": "address",
          "name": "contractId",
          "type": "address"
        },
        {
          "indexed": true,
          "internalType": "address",
          "name": "sender",
          "type": "address"
        },
        {
          "indexed": false,
          "internalType": "address",
          "name": "signer",
          "type": "address"
        },
        {
          "indexed": false,
          "internalType": "address",
          "name": "deployer",
          "type": "address"
        },
        {
          "indexed": false,
          "internalType": "address",
          "name": "subject",
          "type": "address"
        },
        {
          "indexed": false,
          "internalType": "bytes32",
          "name": "realm",
          "type": "bytes32"
        }
      ],
      "name": "PredictContextRegistered",
      "type": "event"
    },
    {
      "anonymous": false,
      "inputs": [
        {
          "indexed": true,
          "internalType": "bytes32",
          "name": "realm",
          "type": "bytes32"
        },
        {
          "indexed": true,
          "internalType": "address",
          "name": "sender",
          "type": "address"
        },
        {
          "indexed": false,
          "internalType": "string",
          "name": "name",
          "type": "string"
        },
        {
          "indexed": false,
          "internalType": "bool",
          "name": "status",
          "type": "bool"
        },
        {
          "indexed": false,
          "internalType": "bool",
          "name": "isUpgradable",
          "type": "bool"
        }
      ],
      "name": "RealmRegistered",
      "type": "event"
    },
    {
      "anonymous": false,
      "inputs": [
        {
          "indexed": true,
          "internalType": "bytes32",
          "name": "realm",
          "type": "bytes32"
        },
        {
          "indexed": true,
          "internalType": "address",
          "name": "sender",
          "type": "address"
        },
        {
          "indexed": false,
          "internalType": "bool",
          "name": "status",
          "type": "bool"
        }
      ],
      "name": "RealmStatusChanged",
      "type": "event"
    },
    {
      "anonymous": false,
      "inputs": [
        {
          "indexed": true,
          "internalType": "bytes32",
          "name": "realm",
          "type": "bytes32"
        },
        {
          "indexed": true,
          "internalType": "address",
          "name": "sender",
          "type": "address"
        },
        {
          "indexed": false,
          "internalType": "bool",
          "name": "status",
          "type": "bool"
        }
      ],
      "name": "RealmUpgradeStatusChanged",
      "type": "event"
    },
    {
      "anonymous": false,
      "inputs": [
        {
          "indexed": true,
          "internalType": "address",
          "name": "sender",
          "type": "address"
        },
        {
          "indexed": true,
          "internalType": "bytes32",
          "name": "role",
          "type": "bytes32"
        },
        {
          "indexed": true,
          "internalType": "address",
          "name": "account",
          "type": "address"
        }
      ],
      "name": "RoleAccountGranted",
      "type": "event"
    },
    {
      "anonymous": false,
      "inputs": [
        {
          "indexed": true,
          "internalType": "address",
          "name": "sender",
          "type": "address"
        },
        {
          "indexed": true,
          "internalType": "bytes32",
          "name": "role",
          "type": "bytes32"
        },
        {
          "indexed": true,
          "internalType": "address",
          "name": "account",
          "type": "address"
        }
      ],
      "name": "RoleAccountRevoked",
      "type": "event"
    },
    {
      "anonymous": false,
      "inputs": [
        {
          "indexed": true,
          "internalType": "address",
          "name": "sender",
          "type": "address"
        },
        {
          "indexed": true,
          "internalType": "bytes32",
          "name": "role",
          "type": "bytes32"
        },
        {
          "indexed": true,
          "internalType": "bytes32",
          "name": "newGroup",
          "type": "bytes32"
        },
        {
          "indexed": false,
          "internalType": "bytes32",
          "name": "oldGroup",
          "type": "bytes32"
        }
      ],
      "name": "RoleGroupChanged",
      "type": "event"
    },
    {
      "anonymous": false,
      "inputs": [
        {
          "indexed": true,
          "internalType": "address",
          "name": "sender",
          "type": "address"
        },
        {
          "indexed": true,
          "internalType": "bytes32",
          "name": "role",
          "type": "bytes32"
        },
        {
          "indexed": true,
          "internalType": "string",
          "name": "name",
          "type": "string"
        },
        {
          "indexed": false,
          "internalType": "bytes32",
          "name": "group",
          "type": "bytes32"
        },
        {
          "indexed": false,
          "internalType": "bool",
          "name": "isEnabled",
          "type": "bool"
        }
      ],
      "name": "RoleRegistered",
      "type": "event"
    },
    {
      "anonymous": false,
      "inputs": [
        {
          "indexed": true,
          "internalType": "address",
          "name": "sender",
          "type": "address"
        },
        {
          "indexed": true,
          "internalType": "bytes32",
          "name": "role",
          "type": "bytes32"
        },
        {
          "indexed": true,
          "internalType": "bytes32",
          "name": "group",
          "type": "bytes32"
        },
        {
          "indexed": false,
          "internalType": "bool",
          "name": "status",
          "type": "bool"
        }
      ],
      "name": "RoleStatusChanged",
      "type": "event"
    },
    {
      "anonymous": false,
      "inputs": [
        {
          "indexed": true,
          "internalType": "address",
          "name": "sender",
          "type": "address"
        },
        {
          "indexed": true,
          "internalType": "address",
          "name": "proxy",
          "type": "address"
        },
        {
          "indexed": true,
          "internalType": "bytes32",
          "name": "realm",
          "type": "bytes32"
        },
        {
          "indexed": false,
          "internalType": "bool",
          "name": "status",
          "type": "bool"
        }
      ],
      "name": "SafeModeChanged",
      "type": "event"
    },
    {
      "anonymous": false,
      "inputs": [
        {
          "indexed": true,
          "internalType": "address",
          "name": "sender",
          "type": "address"
        },
        {
          "indexed": true,
          "internalType": "address",
          "name": "proxy",
          "type": "address"
        },
        {
          "indexed": true,
          "internalType": "bytes32",
          "name": "realm",
          "type": "bytes32"
        },
        {
          "indexed": false,
          "internalType": "bool",
          "name": "status",
          "type": "bool"
        }
      ],
      "name": "UpgradeStatusChanged",
      "type": "event"
    },
    {
      "anonymous": false,
      "inputs": [
        {
          "indexed": true,
          "internalType": "address",
          "name": "sender",
          "type": "address"
        },
        {
          "indexed": true,
          "internalType": "address",
          "name": "proxy",
          "type": "address"
        },
        {
          "indexed": true,
          "internalType": "address",
          "name": "newImplementation",
          "type": "address"
        }
      ],
      "name": "Upgraded",
      "type": "event"
    },
    {
      "stateMutability": "payable",
      "type": "fallback"
    },
    {
      "inputs": [],
      "name": "accessControlManager",
      "outputs": [
        {
          "internalType": "address",
          "name": "",
          "type": "address"
        }
      ],
      "stateMutability": "view",
      "type": "function"
    },
    {
      "inputs": [
        {
          "internalType": "bytes32",
          "name": "ctx",
          "type": "bytes32"
        },
        {
          "internalType": "bytes4",
          "name": "functionSelector",
          "type": "bytes4"
        },
        {
          "internalType": "bytes32",
          "name": "role",
          "type": "bytes32"
        }
      ],
      "name": "addContextFuncRole",
      "outputs": [
        {
          "internalType": "bool",
          "name": "",
          "type": "bool"
        }
      ],
      "stateMutability": "nonpayable",
      "type": "function"
    },
    {
      "inputs": [
        {
          "components": [
            {
              "internalType": "bytes32",
              "name": "role",
              "type": "bytes32"
            },
            {
              "internalType": "address",
              "name": "account",
              "type": "address"
            }
          ],
          "internalType": "struct IRoleManagement.UpdateRoleRequest[]",
          "name": "requests",
          "type": "tuple[]"
        }
      ],
      "name": "batchGrantRoleAccount",
      "outputs": [
        {
          "internalType": "bool",
          "name": "",
          "type": "bool"
        }
      ],
      "stateMutability": "nonpayable",
      "type": "function"
    },
    {
      "inputs": [
        {
          "components": [
            {
              "internalType": "bytes32",
              "name": "group",
              "type": "bytes32"
            },
            {
              "internalType": "string",
              "name": "name",
              "type": "string"
            },
            {
              "internalType": "bool",
              "name": "status",
              "type": "bool"
            }
          ],
          "internalType": "struct IRoleManagement.RegisterRoleRequest[]",
          "name": "requests",
          "type": "tuple[]"
        }
      ],
      "name": "batchRegisterRole",
      "outputs": [
        {
          "internalType": "bytes32[]",
          "name": "",
          "type": "bytes32[]"
        }
      ],
      "stateMutability": "nonpayable",
      "type": "function"
    },
    {
      "inputs": [
        {
          "components": [
            {
              "internalType": "bytes32",
              "name": "role",
              "type": "bytes32"
            },
            {
              "internalType": "address",
              "name": "account",
              "type": "address"
            }
          ],
          "internalType": "struct IRoleManagement.UpdateRoleRequest[]",
          "name": "requests",
          "type": "tuple[]"
        }
      ],
      "name": "batchRevokeRoleAccount",
      "outputs": [
        {
          "internalType": "bool",
          "name": "",
          "type": "bool"
        }
      ],
      "stateMutability": "nonpayable",
      "type": "function"
    },
    {
      "inputs": [],
      "name": "contractContext",
      "outputs": [
        {
          "internalType": "bytes32",
          "name": "",
          "type": "bytes32"
        }
      ],
      "stateMutability": "view",
      "type": "function"
    },
    {
      "inputs": [],
      "name": "contractName",
      "outputs": [
        {
          "internalType": "bytes32",
          "name": "",
          "type": "bytes32"
        }
      ],
      "stateMutability": "view",
      "type": "function"
    },
    {
      "inputs": [],
      "name": "contractRealm",
      "outputs": [
        {
          "internalType": "bytes32",
          "name": "",
          "type": "bytes32"
        }
      ],
      "stateMutability": "view",
      "type": "function"
    },
    {
      "inputs": [],
      "name": "contractVersion",
      "outputs": [
        {
          "internalType": "bytes32",
          "name": "",
          "type": "bytes32"
        }
      ],
      "stateMutability": "view",
      "type": "function"
    },
    {
      "inputs": [],
      "name": "domainSeparator",
      "outputs": [
        {
          "internalType": "bytes32",
          "name": "",
          "type": "bytes32"
        }
      ],
      "stateMutability": "view",
      "type": "function"
    },
    {
      "inputs": [
        {
          "internalType": "bytes32",
          "name": "ctx",
          "type": "bytes32"
        }
      ],
      "name": "getContextFuncs",
      "outputs": [
        {
          "internalType": "bytes4[]",
          "name": "",
          "type": "bytes4[]"
        }
      ],
      "stateMutability": "view",
      "type": "function"
    },
    {
      "inputs": [
        {
          "internalType": "bytes32",
          "name": "ctx",
          "type": "bytes32"
        }
      ],
      "name": "getContextInfo",
      "outputs": [
        {
          "components": [
            {
              "internalType": "bytes32",
              "name": "name",
              "type": "bytes32"
            },
            {
              "internalType": "bytes32",
              "name": "version",
              "type": "bytes32"
            },
            {
              "internalType": "bytes32",
              "name": "realm",
              "type": "bytes32"
            },
            {
              "internalType": "address",
              "name": "contractId",
              "type": "address"
            },
            {
              "internalType": "bool",
              "name": "isSafeMode",
              "type": "bool"
            },
            {
              "internalType": "bool",
              "name": "isUpgradable",
              "type": "bool"
            }
          ],
          "internalType": "struct IContextManagement.ResponseContext",
          "name": "",
          "type": "tuple"
        }
      ],
      "stateMutability": "view",
      "type": "function"
    },
    {
      "inputs": [
        {
          "internalType": "bytes32",
          "name": "group",
          "type": "bytes32"
        }
      ],
      "name": "getGroupInfo",
      "outputs": [
        {
          "internalType": "string",
          "name": "",
          "type": "string"
        },
        {
          "internalType": "bool",
          "name": "",
          "type": "bool"
        }
      ],
      "stateMutability": "view",
      "type": "function"
    },
    {
      "inputs": [
        {
          "internalType": "bytes32",
          "name": "group",
          "type": "bytes32"
        }
      ],
      "name": "getGroupRoles",
      "outputs": [
        {
          "internalType": "bytes32[]",
          "name": "",
          "type": "bytes32[]"
        }
      ],
      "stateMutability": "view",
      "type": "function"
    },
    {
      "inputs": [],
      "name": "getLibraries",
      "outputs": [
        {
          "internalType": "address[]",
          "name": "",
          "type": "address[]"
        }
      ],
      "stateMutability": "pure",
      "type": "function"
    },
    {
      "inputs": [],
      "name": "getPermitRegisterContext",
      "outputs": [
        {
          "internalType": "uint8",
          "name": "",
          "type": "uint8"
        }
      ],
      "stateMutability": "view",
      "type": "function"
    },
    {
      "inputs": [
        {
          "internalType": "bytes32",
          "name": "realm",
          "type": "bytes32"
        }
      ],
      "name": "getRealmContexts",
      "outputs": [
        {
          "internalType": "bytes32[]",
          "name": "",
          "type": "bytes32[]"
        }
      ],
      "stateMutability": "view",
      "type": "function"
    },
    {
      "inputs": [
        {
          "internalType": "bytes32",
          "name": "realm",
          "type": "bytes32"
        }
      ],
      "name": "getRealmInfo",
      "outputs": [
        {
          "internalType": "string",
          "name": "",
          "type": "string"
        },
        {
          "internalType": "bool",
          "name": "",
          "type": "bool"
        },
        {
          "internalType": "bool",
          "name": "",
          "type": "bool"
        }
      ],
      "stateMutability": "view",
      "type": "function"
    },
    {
      "inputs": [
        {
          "internalType": "bytes32",
          "name": "role",
          "type": "bytes32"
        }
      ],
      "name": "getRoleAccounts",
      "outputs": [
        {
          "internalType": "address[]",
          "name": "",
          "type": "address[]"
        }
      ],
      "stateMutability": "view",
      "type": "function"
    },
    {
      "inputs": [
        {
          "internalType": "bytes32",
          "name": "role",
          "type": "bytes32"
        }
      ],
      "name": "getRoleInfo",
      "outputs": [
        {
          "internalType": "string",
          "name": "",
          "type": "string"
        },
        {
          "internalType": "bytes32",
          "name": "",
          "type": "bytes32"
        },
        {
          "internalType": "bool",
          "name": "",
          "type": "bool"
        }
      ],
      "stateMutability": "view",
      "type": "function"
    },
    {
      "inputs": [
        {
          "internalType": "bytes32",
          "name": "ctx",
          "type": "bytes32"
        },
        {
          "internalType": "bytes4",
          "name": "functionSelector",
          "type": "bytes4"
        },
        {
          "internalType": "bytes32",
          "name": "role",
          "type": "bytes32"
        }
      ],
      "name": "grantContextRole",
      "outputs": [
        {
          "internalType": "bool",
          "name": "",
          "type": "bool"
        }
      ],
      "stateMutability": "nonpayable",
      "type": "function"
    },
    {
      "inputs": [
        {
          "internalType": "bytes32",
          "name": "role",
          "type": "bytes32"
        },
        {
          "internalType": "address",
          "name": "account",
          "type": "address"
        }
      ],
      "name": "grantRoleAccount",
      "outputs": [
        {
          "internalType": "bool",
          "name": "",
          "type": "bool"
        }
      ],
      "stateMutability": "nonpayable",
      "type": "function"
    },
    {
      "inputs": [
        {
          "internalType": "bytes32",
          "name": "context",
          "type": "bytes32"
        },
        {
          "internalType": "address",
          "name": "account",
          "type": "address"
        },
        {
          "internalType": "bytes4",
          "name": "signature",
          "type": "bytes4"
        }
      ],
      "name": "hasAccess",
      "outputs": [
        {
          "internalType": "bool",
          "name": "",
          "type": "bool"
        }
      ],
      "stateMutability": "view",
      "type": "function"
    },
    {
      "inputs": [
        {
          "internalType": "bytes32",
          "name": "ctx",
          "type": "bytes32"
        },
        {
          "internalType": "bytes32",
          "name": "role",
          "type": "bytes32"
        },
        {
          "internalType": "bytes4",
          "name": "functionSelector",
          "type": "bytes4"
        }
      ],
      "name": "hasContextRole",
      "outputs": [
        {
          "internalType": "bool",
          "name": "",
          "type": "bool"
        }
      ],
      "stateMutability": "view",
      "type": "function"
    },
    {
      "inputs": [
        {
          "internalType": "bytes32",
          "name": "group",
          "type": "bytes32"
        },
        {
          "internalType": "bytes32",
          "name": "role",
          "type": "bytes32"
        }
      ],
      "name": "hasGroupRole",
      "outputs": [
        {
          "internalType": "bool",
          "name": "",
          "type": "bool"
        }
      ],
      "stateMutability": "view",
      "type": "function"
    },
    {
      "inputs": [
        {
          "internalType": "bytes32",
          "name": "realm",
          "type": "bytes32"
        },
        {
          "internalType": "bytes32",
          "name": "context",
          "type": "bytes32"
        }
      ],
      "name": "hasRealmContext",
      "outputs": [
        {
          "internalType": "bool",
          "name": "",
          "type": "bool"
        }
      ],
      "stateMutability": "view",
      "type": "function"
    },
    {
      "inputs": [
        {
          "internalType": "bytes32",
          "name": "role",
          "type": "bytes32"
        },
        {
          "internalType": "address",
          "name": "account",
          "type": "address"
        }
      ],
      "name": "hasRoleAccount",
      "outputs": [
        {
          "internalType": "bool",
          "name": "",
          "type": "bool"
        }
      ],
      "stateMutability": "view",
      "type": "function"
    },
    {
      "inputs": [],
      "name": "initVersion",
      "outputs": [
        {
          "internalType": "uint16",
          "name": "",
          "type": "uint16"
        }
      ],
      "stateMutability": "view",
      "type": "function"
    },
    {
      "inputs": [
        {
          "internalType": "string",
          "name": "domainName",
          "type": "string"
        },
        {
          "internalType": "string",
          "name": "domainVersion",
          "type": "string"
        },
        {
          "internalType": "string",
          "name": "domainRealm",
          "type": "string"
        },
        {
          "internalType": "address",
          "name": "accessControlManager",
          "type": "address"
        },
        {
          "internalType": "uint8",
          "name": "initPermitRegisterContext",
          "type": "uint8"
        }
      ],
      "name": "initialize",
      "outputs": [],
      "stateMutability": "nonpayable",
      "type": "function"
    },
    {
      "inputs": [
        {
          "internalType": "bytes32",
          "name": "context",
          "type": "bytes32"
        }
      ],
      "name": "isContextEnabled",
      "outputs": [
        {
          "internalType": "bool",
          "name": "",
          "type": "bool"
        }
      ],
      "stateMutability": "view",
      "type": "function"
    },
    {
      "inputs": [
        {
          "internalType": "bytes32",
          "name": "context",
          "type": "bytes32"
        }
      ],
      "name": "isContextExists",
      "outputs": [
        {
          "internalType": "bool",
          "name": "",
          "type": "bool"
        }
      ],
      "stateMutability": "view",
      "type": "function"
    },
    {
      "inputs": [
        {
          "internalType": "bytes32",
          "name": "context",
          "type": "bytes32"
        },
        {
          "internalType": "bytes4",
          "name": "functionSelector",
          "type": "bytes4"
        }
      ],
      "name": "isContextFunctionEnabled",
      "outputs": [
        {
          "internalType": "bool",
          "name": "",
          "type": "bool"
        }
      ],
      "stateMutability": "view",
      "type": "function"
    },
    {
      "inputs": [
        {
          "internalType": "bytes32",
          "name": "context",
          "type": "bytes32"
        },
        {
          "internalType": "bytes4",
          "name": "functionSelector",
          "type": "bytes4"
        }
      ],
      "name": "isContextFunctionExists",
      "outputs": [
        {
          "internalType": "bool",
          "name": "",
          "type": "bool"
        }
      ],
      "stateMutability": "view",
      "type": "function"
    },
    {
      "inputs": [
        {
          "internalType": "bytes32",
          "name": "context",
          "type": "bytes32"
        }
      ],
      "name": "isContextSafeMode",
      "outputs": [
        {
          "internalType": "bool",
          "name": "",
          "type": "bool"
        }
      ],
      "stateMutability": "view",
      "type": "function"
    },
    {
      "inputs": [
        {
          "internalType": "bytes32",
          "name": "context",
          "type": "bytes32"
        }
      ],
      "name": "isContextUpgradable",
      "outputs": [
        {
          "internalType": "bool",
          "name": "",
          "type": "bool"
        }
      ],
      "stateMutability": "view",
      "type": "function"
    },
    {
      "inputs": [
        {
          "internalType": "bytes32",
          "name": "group",
          "type": "bytes32"
        }
      ],
      "name": "isGroupEnabled",
      "outputs": [
        {
          "internalType": "bool",
          "name": "",
          "type": "bool"
        }
      ],
      "stateMutability": "view",
      "type": "function"
    },
    {
      "inputs": [
        {
          "internalType": "bytes32",
          "name": "group",
          "type": "bytes32"
        }
      ],
      "name": "isGroupExists",
      "outputs": [
        {
          "internalType": "bool",
          "name": "",
          "type": "bool"
        }
      ],
      "stateMutability": "view",
      "type": "function"
    },
    {
      "inputs": [
        {
          "internalType": "address",
          "name": "account",
          "type": "address"
        }
      ],
      "name": "isLivelyAdminRole",
      "outputs": [
        {
          "internalType": "bool",
          "name": "",
          "type": "bool"
        }
      ],
      "stateMutability": "view",
      "type": "function"
    },
    {
      "inputs": [
        {
          "internalType": "address",
          "name": "account",
          "type": "address"
        }
      ],
      "name": "isLivelyAssetAdminRole",
      "outputs": [
        {
          "internalType": "bool",
          "name": "",
          "type": "bool"
        }
      ],
      "stateMutability": "view",
      "type": "function"
    },
    {
      "inputs": [
        {
          "internalType": "bytes32",
          "name": "role",
          "type": "bytes32"
        }
      ],
      "name": "isLivelyAssetGroup",
      "outputs": [
        {
          "internalType": "bool",
          "name": "",
          "type": "bool"
        }
      ],
      "stateMutability": "view",
      "type": "function"
    },
    {
      "inputs": [
        {
          "internalType": "address",
          "name": "account",
          "type": "address"
        }
      ],
      "name": "isLivelyAssetManagerRole",
      "outputs": [
        {
          "internalType": "bool",
          "name": "",
          "type": "bool"
        }
      ],
      "stateMutability": "view",
      "type": "function"
    },
    {
      "inputs": [
        {
          "internalType": "bytes32",
          "name": "context",
          "type": "bytes32"
        }
      ],
      "name": "isLivelyAssetRealm",
      "outputs": [
        {
          "internalType": "bool",
          "name": "",
          "type": "bool"
        }
      ],
      "stateMutability": "view",
      "type": "function"
    },
    {
      "inputs": [
        {
          "internalType": "address",
          "name": "account",
          "type": "address"
        }
      ],
      "name": "isLivelyCommunityDaoExecutorRole",
      "outputs": [
        {
          "internalType": "bool",
          "name": "",
          "type": "bool"
        }
      ],
      "stateMutability": "view",
      "type": "function"
    },
    {
      "inputs": [
        {
          "internalType": "address",
          "name": "account",
          "type": "address"
        }
      ],
      "name": "isLivelyCommunityDaoRole",
      "outputs": [
        {
          "internalType": "bool",
          "name": "",
          "type": "bool"
        }
      ],
      "stateMutability": "view",
      "type": "function"
    },
    {
      "inputs": [
        {
          "internalType": "bytes32",
          "name": "role",
          "type": "bytes32"
        }
      ],
      "name": "isLivelyDaoGroup",
      "outputs": [
        {
          "internalType": "bool",
          "name": "",
          "type": "bool"
        }
      ],
      "stateMutability": "view",
      "type": "function"
    },
    {
      "inputs": [
        {
          "internalType": "bytes32",
          "name": "role",
          "type": "bytes32"
        }
      ],
      "name": "isLivelyGeneralGroup",
      "outputs": [
        {
          "internalType": "bool",
          "name": "",
          "type": "bool"
        }
      ],
      "stateMutability": "view",
      "type": "function"
    },
    {
      "inputs": [
        {
          "internalType": "bytes32",
          "name": "context",
          "type": "bytes32"
        }
      ],
      "name": "isLivelyGeneralRealm",
      "outputs": [
        {
          "internalType": "bool",
          "name": "",
          "type": "bool"
        }
      ],
      "stateMutability": "view",
      "type": "function"
    },
    {
      "inputs": [
        {
          "internalType": "address",
          "name": "account",
          "type": "address"
        }
      ],
      "name": "isLivelySystemAdminRole",
      "outputs": [
        {
          "internalType": "bool",
          "name": "",
          "type": "bool"
        }
      ],
      "stateMutability": "view",
      "type": "function"
    },
    {
      "inputs": [
        {
          "internalType": "bytes32",
          "name": "realm",
          "type": "bytes32"
        }
      ],
      "name": "isRealmEnabled",
      "outputs": [
        {
          "internalType": "bool",
          "name": "",
          "type": "bool"
        }
      ],
      "stateMutability": "view",
      "type": "function"
    },
    {
      "inputs": [
        {
          "internalType": "bytes32",
          "name": "realm",
          "type": "bytes32"
        }
      ],
      "name": "isRealmExists",
      "outputs": [
        {
          "internalType": "bool",
          "name": "",
          "type": "bool"
        }
      ],
      "stateMutability": "view",
      "type": "function"
    },
    {
      "inputs": [
        {
          "internalType": "bytes32",
          "name": "realm",
          "type": "bytes32"
        }
      ],
      "name": "isRealmUpgradable",
      "outputs": [
        {
          "internalType": "bool",
          "name": "",
          "type": "bool"
        }
      ],
      "stateMutability": "view",
      "type": "function"
    },
    {
      "inputs": [
        {
          "internalType": "bytes32",
          "name": "role",
          "type": "bytes32"
        }
      ],
      "name": "isRoleEnabled",
      "outputs": [
        {
          "internalType": "bool",
          "name": "",
          "type": "bool"
        }
      ],
      "stateMutability": "view",
      "type": "function"
    },
    {
      "inputs": [
        {
          "internalType": "bytes32",
          "name": "role",
          "type": "bytes32"
        }
      ],
      "name": "isRoleExists",
      "outputs": [
        {
          "internalType": "bool",
          "name": "",
          "type": "bool"
        }
      ],
      "stateMutability": "view",
      "type": "function"
    },
    {
      "inputs": [],
      "name": "isSafeMode",
      "outputs": [
        {
          "internalType": "bool",
          "name": "",
          "type": "bool"
        }
      ],
      "stateMutability": "view",
      "type": "function"
    },
    {
      "inputs": [],
      "name": "isUpgradable",
      "outputs": [
        {
          "internalType": "bool",
          "name": "",
          "type": "bool"
        }
      ],
      "stateMutability": "view",
      "type": "function"
    },
    {
      "inputs": [],
      "name": "localAdmin",
      "outputs": [
        {
          "internalType": "address",
          "name": "",
          "type": "address"
        }
      ],
      "stateMutability": "view",
      "type": "function"
    },
    {
      "inputs": [],
      "name": "proxiableUUID",
      "outputs": [
        {
          "internalType": "bytes32",
          "name": "",
          "type": "bytes32"
        }
      ],
      "stateMutability": "view",
      "type": "function"
    },
    {
      "inputs": [
        {
          "internalType": "bytes",
          "name": "signature",
          "type": "bytes"
        },
        {
          "components": [
            {
              "internalType": "bytes32",
              "name": "name",
              "type": "bytes32"
            },
            {
              "internalType": "bytes32",
              "name": "version",
              "type": "bytes32"
            },
            {
              "internalType": "bytes32",
              "name": "realm",
              "type": "bytes32"
            },
            {
              "internalType": "address",
              "name": "contractId",
              "type": "address"
            },
            {
              "internalType": "bool",
              "name": "status",
              "type": "bool"
            }
          ],
          "internalType": "struct IContextManagement.RequestContext",
          "name": "rc",
          "type": "tuple"
        },
        {
          "components": [
            {
              "internalType": "bytes32",
              "name": "role",
              "type": "bytes32"
            },
            {
              "internalType": "bytes4[]",
              "name": "funcSelectors",
              "type": "bytes4[]"
            },
            {
              "internalType": "bool",
              "name": "isEnabled",
              "type": "bool"
            }
          ],
          "internalType": "struct IContextManagement.RequestRegisterContext[]",
          "name": "rrc",
          "type": "tuple[]"
        }
      ],
      "name": "registerContext",
      "outputs": [
        {
          "internalType": "bytes32",
          "name": "",
          "type": "bytes32"
        }
      ],
      "stateMutability": "nonpayable",
      "type": "function"
    },
    {
      "inputs": [
        {
          "internalType": "string",
          "name": "name",
          "type": "string"
        },
        {
          "internalType": "bool",
          "name": "status",
          "type": "bool"
        }
      ],
      "name": "registerGroup",
      "outputs": [
        {
          "internalType": "bytes32",
          "name": "",
          "type": "bytes32"
        }
      ],
      "stateMutability": "nonpayable",
      "type": "function"
    },
    {
      "inputs": [
        {
          "internalType": "bytes",
          "name": "signature",
          "type": "bytes"
        },
        {
          "components": [
            {
              "internalType": "bytes32",
              "name": "name",
              "type": "bytes32"
            },
            {
              "internalType": "bytes32",
              "name": "version",
              "type": "bytes32"
            },
            {
              "internalType": "bytes32",
              "name": "realm",
              "type": "bytes32"
            },
            {
              "internalType": "bytes32",
              "name": "salt",
              "type": "bytes32"
            },
            {
              "internalType": "address",
              "name": "subject",
              "type": "address"
            },
            {
              "internalType": "address",
              "name": "deployer",
              "type": "address"
            },
            {
              "internalType": "bool",
              "name": "status",
              "type": "bool"
            }
          ],
          "internalType": "struct IContextManagement.RequestPredictContext",
          "name": "rpc",
          "type": "tuple"
        },
        {
          "components": [
            {
              "internalType": "bytes32",
              "name": "role",
              "type": "bytes32"
            },
            {
              "internalType": "bytes4[]",
              "name": "funcSelectors",
              "type": "bytes4[]"
            },
            {
              "internalType": "bool",
              "name": "isEnabled",
              "type": "bool"
            }
          ],
          "internalType": "struct IContextManagement.RequestRegisterContext[]",
          "name": "rrc",
          "type": "tuple[]"
        }
      ],
      "name": "registerPredictContext",
      "outputs": [
        {
          "internalType": "bytes32",
          "name": "",
          "type": "bytes32"
        }
      ],
      "stateMutability": "nonpayable",
      "type": "function"
    },
    {
      "inputs": [
        {
          "internalType": "string",
          "name": "name",
          "type": "string"
        },
        {
          "internalType": "bool",
          "name": "status",
          "type": "bool"
        },
        {
          "internalType": "bool",
          "name": "isUpgradable",
          "type": "bool"
        }
      ],
      "name": "registerRealm",
      "outputs": [
        {
          "internalType": "bytes32",
          "name": "",
          "type": "bytes32"
        }
      ],
      "stateMutability": "nonpayable",
      "type": "function"
    },
    {
      "inputs": [
        {
          "internalType": "string",
          "name": "name",
          "type": "string"
        },
        {
          "internalType": "bytes32",
          "name": "group",
          "type": "bytes32"
        },
        {
          "internalType": "bool",
          "name": "status",
          "type": "bool"
        }
      ],
      "name": "registerRole",
      "outputs": [
        {
          "internalType": "bytes32",
          "name": "",
          "type": "bytes32"
        }
      ],
      "stateMutability": "nonpayable",
      "type": "function"
    },
    {
      "inputs": [
        {
          "internalType": "bytes32",
          "name": "ctx",
          "type": "bytes32"
        },
        {
          "internalType": "bytes4",
          "name": "functionSelector",
          "type": "bytes4"
        }
      ],
      "name": "removeContextFunc",
      "outputs": [
        {
          "internalType": "bool",
          "name": "",
          "type": "bool"
        }
      ],
      "stateMutability": "nonpayable",
      "type": "function"
    },
    {
      "inputs": [
        {
          "internalType": "bytes32",
          "name": "ctx",
          "type": "bytes32"
        },
        {
          "internalType": "bytes4",
          "name": "functionSelector",
          "type": "bytes4"
        },
        {
          "internalType": "bytes32",
          "name": "role",
          "type": "bytes32"
        }
      ],
      "name": "revokeContextRole",
      "outputs": [
        {
          "internalType": "bool",
          "name": "",
          "type": "bool"
        }
      ],
      "stateMutability": "nonpayable",
      "type": "function"
    },
    {
      "inputs": [
        {
          "internalType": "bytes32",
          "name": "role",
          "type": "bytes32"
        },
        {
          "internalType": "address",
          "name": "account",
          "type": "address"
        }
      ],
      "name": "revokeRoleAccount",
      "outputs": [
        {
          "internalType": "bool",
          "name": "",
          "type": "bool"
        }
      ],
      "stateMutability": "nonpayable",
      "type": "function"
    },
    {
      "inputs": [
        {
          "internalType": "bytes32",
          "name": "ctx",
          "type": "bytes32"
        },
        {
          "internalType": "bytes32",
          "name": "realm",
          "type": "bytes32"
        }
      ],
      "name": "setContextRealm",
      "outputs": [
        {
          "internalType": "bool",
          "name": "",
          "type": "bool"
        }
      ],
      "stateMutability": "nonpayable",
      "type": "function"
    },
    {
      "inputs": [
        {
          "internalType": "bytes32",
          "name": "ctx",
          "type": "bytes32"
        },
        {
          "internalType": "bool",
          "name": "status",
          "type": "bool"
        }
      ],
      "name": "setContextStatus",
      "outputs": [
        {
          "internalType": "bool",
          "name": "",
          "type": "bool"
        }
      ],
      "stateMutability": "nonpayable",
      "type": "function"
    },
    {
      "inputs": [
        {
          "internalType": "bytes32",
          "name": "group",
          "type": "bytes32"
        },
        {
          "internalType": "bool",
          "name": "status",
          "type": "bool"
        }
      ],
      "name": "setGroupStatus",
      "outputs": [
        {
          "internalType": "bool",
          "name": "",
          "type": "bool"
        }
      ],
      "stateMutability": "nonpayable",
      "type": "function"
    },
    {
      "inputs": [
        {
          "internalType": "address",
          "name": "newLocalAdmin",
          "type": "address"
        }
      ],
      "name": "setLocalAdmin",
      "outputs": [
        {
          "internalType": "bool",
          "name": "",
          "type": "bool"
        }
      ],
      "stateMutability": "nonpayable",
      "type": "function"
    },
    {
      "inputs": [
        {
          "internalType": "uint8",
          "name": "contextCount",
          "type": "uint8"
        }
      ],
      "name": "setPermitRegisterContext",
      "outputs": [
        {
          "internalType": "bool",
          "name": "",
          "type": "bool"
        }
      ],
      "stateMutability": "nonpayable",
      "type": "function"
    },
    {
      "inputs": [
        {
          "internalType": "bytes32",
          "name": "realm",
          "type": "bytes32"
        },
        {
          "internalType": "bool",
          "name": "status",
          "type": "bool"
        }
      ],
      "name": "setRealmStatus",
      "outputs": [
        {
          "internalType": "bool",
          "name": "",
          "type": "bool"
        }
      ],
      "stateMutability": "nonpayable",
      "type": "function"
    },
    {
      "inputs": [
        {
          "internalType": "bytes32",
          "name": "realm",
          "type": "bytes32"
        },
        {
          "internalType": "bool",
          "name": "status",
          "type": "bool"
        }
      ],
      "name": "setRealmUpgradeStatus",
      "outputs": [
        {
          "internalType": "bool",
          "name": "",
          "type": "bool"
        }
      ],
      "stateMutability": "nonpayable",
      "type": "function"
    },
    {
      "inputs": [
        {
          "internalType": "bytes32",
          "name": "role",
          "type": "bytes32"
        },
        {
          "internalType": "bytes32",
          "name": "group",
          "type": "bytes32"
        }
      ],
      "name": "setRoleGroup",
      "outputs": [
        {
          "internalType": "bool",
          "name": "",
          "type": "bool"
        }
      ],
      "stateMutability": "nonpayable",
      "type": "function"
    },
    {
      "inputs": [
        {
          "internalType": "bytes32",
          "name": "role",
          "type": "bytes32"
        },
        {
          "internalType": "bool",
          "name": "status",
          "type": "bool"
        }
      ],
      "name": "setRoleStatus",
      "outputs": [
        {
          "internalType": "bool",
          "name": "",
          "type": "bool"
        }
      ],
      "stateMutability": "nonpayable",
      "type": "function"
    },
    {
      "inputs": [
        {
          "internalType": "bool",
          "name": "status",
          "type": "bool"
        }
      ],
      "name": "setSafeMode",
      "outputs": [
        {
          "internalType": "bool",
          "name": "",
          "type": "bool"
        }
      ],
      "stateMutability": "nonpayable",
      "type": "function"
    },
    {
      "inputs": [
        {
          "internalType": "bool",
          "name": "status",
          "type": "bool"
        }
      ],
      "name": "setUpgradeStatus",
      "outputs": [
        {
          "internalType": "bool",
          "name": "",
          "type": "bool"
        }
      ],
      "stateMutability": "nonpayable",
      "type": "function"
    },
    {
      "inputs": [],
      "name": "subjectAddress",
      "outputs": [
        {
          "internalType": "address",
          "name": "",
          "type": "address"
        }
      ],
      "stateMutability": "view",
      "type": "function"
    },
    {
      "inputs": [
        {
          "internalType": "bytes4",
          "name": "interfaceId",
          "type": "bytes4"
        }
      ],
      "name": "supportsInterface",
      "outputs": [
        {
          "internalType": "bool",
          "name": "",
          "type": "bool"
        }
      ],
      "stateMutability": "view",
      "type": "function"
    },
    {
      "inputs": [
        {
          "internalType": "bytes",
          "name": "signature",
          "type": "bytes"
        },
        {
          "components": [
            {
              "internalType": "bytes32",
              "name": "name",
              "type": "bytes32"
            },
            {
              "internalType": "bytes32",
              "name": "version",
              "type": "bytes32"
            },
            {
              "internalType": "bytes32",
              "name": "realm",
              "type": "bytes32"
            },
            {
              "internalType": "address",
              "name": "contractId",
              "type": "address"
            },
            {
              "internalType": "bool",
              "name": "status",
              "type": "bool"
            }
          ],
          "internalType": "struct IContextManagement.RequestContext",
          "name": "rc",
          "type": "tuple"
        },
        {
          "components": [
            {
              "internalType": "bytes32",
              "name": "role",
              "type": "bytes32"
            },
            {
              "internalType": "bytes4[]",
              "name": "funcSelectors",
              "type": "bytes4[]"
            },
            {
              "internalType": "enum IContextManagement.UpdateContextStatus",
              "name": "updateStatus",
              "type": "uint8"
            }
          ],
          "internalType": "struct IContextManagement.RequestUpdateContext[]",
          "name": "rcr",
          "type": "tuple[]"
        }
      ],
      "name": "updateContext",
      "outputs": [
        {
          "internalType": "address",
          "name": "",
          "type": "address"
        }
      ],
      "stateMutability": "nonpayable",
      "type": "function"
    },
    {
      "inputs": [
        {
          "internalType": "address",
          "name": "newImplementation",
          "type": "address"
        },
        {
          "internalType": "bytes",
          "name": "data",
          "type": "bytes"
        },
        {
          "internalType": "bool",
          "name": "forceCall",
          "type": "bool"
        }
      ],
      "name": "upgradeTo",
      "outputs": [
        {
          "internalType": "bytes",
          "name": "",
          "type": "bytes"
        }
      ],
      "stateMutability": "nonpayable",
      "type": "function"
    },
    {
      "inputs": [
        {
          "internalType": "address",
          "name": "recepient",
          "type": "address"
        }
      ],
      "name": "withdrawBalance",
      "outputs": [],
      "stateMutability": "nonpayable",
      "type": "function"
    },
    {
      "stateMutability": "payable",
      "type": "receive"
    }
  ],
  "bytecode": "0x60a0604052306080523480156200001557600080fd5b506200004360017f360894a13ba1a3210667c828492db98dca3e2076cc3735a920a3ca505d382bbd62000127565b7f360894a13ba1a3210667c828492db98dca3e2076cc3735a920a3ca505d382bbc146200007457620000746200014f565b620000a160017fb53127684a568b3173ae13b9f8a6016e243e63b6e8ee1178d6a717850b5d610462000127565b600080516020620061a483398151915214620000c157620000c16200014f565b33620000ea600080516020620061a483398151915260001b6200012460201b62003cf11760201c565b80546001600160a01b03929092166001600160a01b03199092169190911790556003805461ffff60a01b1916600160a01b17905562000165565b90565b818103818111156200014957634e487b7160e01b600052601160045260246000fd5b92915050565b634e487b7160e01b600052600160045260246000fd5b608051615fdd620001c7600039600081816117ab015281816117f4015281816119b4015281816119f401528181611d260152818161200d0152818161204d0152818161317c015281816131bc0152818161392901526139690152615fdd6000f3fe6080604052600436106104525760003560e01c8063916909551161023d578063c7ea945c11610138578063e1ed0a82116100bb578063f2c673bd11610082578063f2c673bd14610e63578063f2f99fa414610e83578063f5122c9214610ea3578063f698da2514610ec3578063f94a0adb14610ed8578063fbea794714610eed57005b8063e1ed0a8214610dc3578063e25d75f014610de3578063e71e224e14610e03578063edf1d1cb14610e23578063f1df49da14610e4357005b8063d9d34bf8116100ff578063d9d34bf814610d23578063d9dc1f1914610d43578063dbf304b014610d63578063dc853dd014610d83578063df01de4514610da357005b8063c7ea945c14610c8c578063d11345f814610cac578063d338640114610cce578063d3e024b814610cee578063d9aba36e14610d0357005b8063b4c4b58f116101c0578063be409b5711610187578063be409b5714610bec578063c34aa02114610c0c578063c48e7ae614610c2c578063c557020a14610c4c578063c7ab39e614610c6c57005b8063b4c4b58f14610b3e578063b58966de14610b5e578063b6c03f0314610b7e578063be22465d14610b9e578063be409a1114610bbd57005b8063a0a8e46011610204578063a0a8e46014610aab578063a32ce13d14610ac0578063a92f69c114610ae0578063b2dc26e514610b00578063b4a0bdf314610b2057005b806391690955146109b757806393ba3131146109d757806394cfd6e3146109f75780639e3a2cea14610a175780639ebf624614610a3757005b80634bb1be8c1161034d5780637147855d116102d05780637b443379116102975780637b44337914610922578063870666cb146109425780638b7dbd6c146109575780638e703826146109775780638f09e0f01461099757005b80637147855d1461088057806371d569d9146108ad578063756af45f146108cd57806375d0c0dc146108ed578063771bcf451461090257005b806358dbc45d1161031457806358dbc45d146107c55780635bdaecce146107f25780636b2b7dd8146108125780636b3b01591461084057806370420ee31461086057005b80634bb1be8c146107315780634dc13c8f1461075157806351e70bb01461077157806352d1902d146107915780635479d940146107a657005b806338d38c97116103d55780634346a04b1161039c5780634346a04b1461069157806344b7e5f2146106b157806345b5203c146106d157806348e6be1c146106f15780634944f5321461071157005b806338d38c97146105ca5780633c7d5b25146105f25780633e02bc38146106215780633f4c99b814610643578063415656731461067157005b80631846d125116104195780631846d125146105105780632e2adf00146105305780632f032edd1461055d5780633228144d1461057d57806337bfbfe81461059d57005b806301ffc9a71461045b578063031c049314610490578063076a6f22146104b0578063101df54d146104d057806311b529b3146104f057005b3661045957005b005b34801561046757600080fd5b5061047b610476366004614849565b610f0d565b60405190151581526020015b60405180910390f35b34801561049c57600080fd5b5061047b6104ab366004614866565b610fa4565b3480156104bc57600080fd5b5061047b6104cb3660046148b3565b61107a565b3480156104dc57600080fd5b5061047b6104eb3660046148d0565b611101565b3480156104fc57600080fd5b5061047b61050b3660046148e9565b611143565b34801561051c57600080fd5b5061047b61052b3660046148d0565b6111c3565b34801561053c57600080fd5b5061055061054b3660046148d0565b611205565b6040516104879190614919565b34801561056957600080fd5b5061047b6105783660046148d0565b611287565b34801561058957600080fd5b5061047b6105983660046148d0565b6112c9565b3480156105a957600080fd5b506105bd6105b83660046148d0565b61130b565b6040516104879190614967565b3480156105d657600080fd5b506105df61138e565b60405161ffff9091168152602001610487565b3480156105fe57600080fd5b5061061261060d3660046148d0565b6113a2565b604051610487939291906149ef565b34801561062d57600080fd5b50610636611436565b6040516104879190614a19565b34801561064f57600080fd5b5061066361065e366004614ab0565b6115c2565b604051908152602001610487565b34801561067d57600080fd5b5061047b61068c3660046148b3565b611694565b34801561069d57600080fd5b5061047b6106ac366004614866565b6116de565b3480156106bd57600080fd5b5061047b6106cc366004614b06565b61179f565b3480156106dd57600080fd5b5061047b6106ec3660046148d0565b611966565b3480156106fd57600080fd5b5061047b61070c366004614b06565b6119a8565b34801561071d57600080fd5b5061047b61072c3660046148d0565b611b7c565b34801561073d57600080fd5b5061066361074c366004614b23565b611bbe565b34801561075d57600080fd5b5061047b61076c3660046148d0565b611c95565b34801561077d57600080fd5b5061047b61078c3660046148d0565b611cd7565b34801561079d57600080fd5b50610663611d19565b3480156107b257600080fd5b50600354600160a81b900460ff1661047b565b3480156107d157600080fd5b506107da611da6565b6040516001600160a01b039091168152602001610487565b3480156107fe57600080fd5b5061047b61080d3660046148d0565b611db0565b34801561081e57600080fd5b5061083261082d3660046148d0565b611df2565b604051610487929190614b8a565b34801561084c57600080fd5b5061047b61085b366004614bae565b611e80565b34801561086c57600080fd5b5061047b61087b366004614bdc565b611f1e565b34801561088c57600080fd5b506108a061089b366004614cec565b612001565b6040516104879190614d44565b3480156108b957600080fd5b506107da6108c8366004614db3565b612132565b3480156108d957600080fd5b506104596108e83660046148b3565b612225565b3480156108f957600080fd5b50600054610663565b34801561090e57600080fd5b5061047b61091d366004614866565b6122e4565b34801561092e57600080fd5b5061066361093d366004614e2a565b6123a5565b34801561094e57600080fd5b506106636124c8565b34801561096357600080fd5b5061047b610972366004614bdc565b6124d3565b34801561098357600080fd5b5061047b6109923660046148d0565b612561565b3480156109a357600080fd5b5061047b6109b2366004614ea2565b6125a3565b3480156109c357600080fd5b5061047b6109d23660046148d0565b61262c565b3480156109e357600080fd5b5061047b6109f2366004614ec7565b61266e565b348015610a0357600080fd5b5061047b610a123660046148d0565b612754565b348015610a2357600080fd5b506105bd610a32366004614f3b565b612796565b348015610a4357600080fd5b50610a57610a523660046148d0565b612947565b60405161048791908151815260208083015190820152604080830151908201526060808301516001600160a01b03169082015260808083015115159082015260a09182015115159181019190915260c00190565b348015610ab757600080fd5b50600154610663565b348015610acc57600080fd5b5061047b610adb3660046148d0565b6129f0565b348015610aec57600080fd5b5061047b610afb3660046148b3565b612a32565b348015610b0c57600080fd5b50610663610b1b366004614f7c565b612a7c565b348015610b2c57600080fd5b506003546001600160a01b03166107da565b348015610b4a57600080fd5b5061047b610b593660046148e9565b612b78565b348015610b6a57600080fd5b5061047b610b793660046148e9565b612bb7565b348015610b8a57600080fd5b5061047b610b99366004614bdc565b612c87565b348015610baa57600080fd5b50600354600160a01b900460ff1661047b565b348015610bc957600080fd5b50610bdd610bd83660046148d0565b612d17565b60405161048793929190614fcf565b348015610bf857600080fd5b5061047b610c073660046148b3565b612d9e565b348015610c1857600080fd5b5061047b610c273660046148b3565b612de8565b348015610c3857600080fd5b5061047b610c473660046148d0565b612e32565b348015610c5857600080fd5b5061047b610c67366004614ec7565b612e74565b348015610c7857600080fd5b5061047b610c87366004614ff9565b612f5a565b348015610c9857600080fd5b5061047b610ca7366004614ea2565b612fbc565b348015610cb857600080fd5b5060495460405160ff9091168152602001610487565b348015610cda57600080fd5b5061047b610ce9366004615030565b61300e565b348015610cfa57600080fd5b50600254610663565b348015610d0f57600080fd5b5061047b610d1e366004615030565b6130dd565b348015610d2f57600080fd5b5061047b610d3e3660046148b3565b613126565b348015610d4f57600080fd5b5061047b610d5e3660046148b3565b613170565b348015610d6f57600080fd5b5061047b610d7e366004615030565b6132f1565b348015610d8f57600080fd5b5061047b610d9e3660046148d0565b6133c0565b348015610daf57600080fd5b5061047b610dbe366004614ea2565b613402565b348015610dcf57600080fd5b50610636610dde3660046148d0565b61348b565b348015610def57600080fd5b5061047b610dfe3660046148d0565b61350d565b348015610e0f57600080fd5b5061047b610e1e366004614bdc565b61354f565b348015610e2f57600080fd5b506105bd610e3e3660046148d0565b613622565b348015610e4f57600080fd5b50610663610e5e366004614db3565b613664565b348015610e6f57600080fd5b5061047b610e7e366004614bdc565b613754565b348015610e8f57600080fd5b5061047b610e9e366004615063565b6137e4565b348015610eaf57600080fd5b5061047b610ebe366004615030565b613860565b348015610ecf57600080fd5b506106636138a9565b348015610ee457600080fd5b506107da613915565b348015610ef957600080fd5b50610459610f0836600461507e565b61391f565b60006001600160e01b031982166314b8343560e31b1480610f3e57506001600160e01b03198216630457025360e31b145b80610f5957506001600160e01b031982166308ea925b60e41b145b80610f7457506001600160e01b03198216637d22131d60e11b145b80610f8f57506001600160e01b031982166370319bff60e11b145b80610f9e5750610f9e82613cf4565b92915050565b60008073__$122c978fc1a65ab69c7a0ac6b07fd0b0cd$__63a234dae360448787876040518563ffffffff1660e01b8152600401610fe59493929190615139565b602060405180830381865af4158015611002573d6000803e3d6000fd5b505050506040513d601f19601f82011682018060405250810190611026919061515e565b9050336001600160a01b031683867fce5e1f2ba33f195f748a93b00ee62600b55e27cc50531a72e5443713bac23e128785604051611065929190615177565b60405180910390a460019150505b9392505050565b604051630b71751360e31b81526044600482018190526001600160a01b038316602483015260009173__$c43b1d7058274a71a9734d16e6b6586431$__91635b8ba89891015b602060405180830381865af41580156110dd573d6000803e3d6000fd5b505050506040513d601f19601f82011682018060405250810190610f9e9190615191565b6040516316b714ad60e01b81526044600482018190526024820183905260009173__$c43b1d7058274a71a9734d16e6b6586431$__916316b714ad91016110c0565b6040516374cda89d60e11b815260009073__$c43b1d7058274a71a9734d16e6b6586431$__9063e99b513a9061118290604490879087906004016151ae565b602060405180830381865af415801561119f573d6000803e3d6000fd5b505050506040513d601f19601f820116820180604052508101906110739190615191565b60405163198d864d60e31b81526044600482018190526024820183905260009173__$c43b1d7058274a71a9734d16e6b6586431$__9163cc6c326891016110c0565b6040516333669f8360e11b81526044600482018190526024820183905260609173__$122c978fc1a65ab69c7a0ac6b07fd0b0cd$__916366cd3f069101600060405180830381865af415801561125f573d6000803e3d6000fd5b505050506040513d6000823e601f3d908101601f19168201604052610f9e9190810190615260565b60405163cb4a1bb760e01b81526044600482018190526024820183905260009173__$c43b1d7058274a71a9734d16e6b6586431$__9163cb4a1bb791016110c0565b604051635a96334b60e01b81526044600482018190526024820183905260009173__$c43b1d7058274a71a9734d16e6b6586431$__91635a96334b91016110c0565b604051635ed86fc960e01b81526044600482018190526024820183905260609173__$bc3cfbaf1827cbc66e3e608da812a405b7$__91635ed86fc991015b600060405180830381865af4158015611366573d6000803e3d6000fd5b505050506040513d6000823e601f3d908101601f19168201604052610f9e9190810190615294565b600061139d604a5461ffff1690565b905090565b6040516302946a5960e61b815260446004820181905260248201839052606091600091829173__$bc3cfbaf1827cbc66e3e608da812a405b7$__9163a51a96409101600060405180830381865af4158015611401573d6000803e3d6000fd5b505050506040513d6000823e601f3d908101601f191682016040526114299190810190615369565b9250925092509193909250565b60408051600580825260c08201909252606091600091906020820160a08036833701905050905073__$c43b1d7058274a71a9734d16e6b6586431$__81600081518110611485576114856153c2565b60200260200101906001600160a01b031690816001600160a01b03168152505073__$122c978fc1a65ab69c7a0ac6b07fd0b0cd$__816001815181106114cd576114cd6153c2565b60200260200101906001600160a01b031690816001600160a01b03168152505073__$bc3cfbaf1827cbc66e3e608da812a405b7$__81600281518110611515576115156153c2565b60200260200101906001600160a01b031690816001600160a01b03168152505073__$340101a45712d3611711048793ce62ace0$__8160038151811061155d5761155d6153c2565b60200260200101906001600160a01b031690816001600160a01b03168152505073__$6309dd7d2656d358c392b35d5c4e4605f9$__816004815181106115a5576115a56153c2565b6001600160a01b0390921660209283029190910190910152919050565b60008073__$6309dd7d2656d358c392b35d5c4e4605f9$__63c3db069f60448787876040518563ffffffff1660e01b81526004016116039493929190615401565b602060405180830381865af4158015611620573d6000803e3d6000fd5b505050506040513d601f19601f82011682018060405250810190611644919061515e565b9050336001600160a01b0316817fde3bd866160a7f983f3c5f990127712936d37378d60b93ba96ab3a66a04feb188787876040516116849392919061542e565b60405180910390a3949350505050565b60405163066f9a3160e31b81526044600482018190526001600160a01b038316602483015260009173__$c43b1d7058274a71a9734d16e6b6586431$__9163337cd18891016110c0565b60008073__$122c978fc1a65ab69c7a0ac6b07fd0b0cd$__63ef20d55d60448787876040518563ffffffff1660e01b815260040161171f9493929190615139565b602060405180830381865af415801561173c573d6000803e3d6000fd5b505050506040513d601f19601f82011682018060405250810190611760919061515e565b9050336001600160a01b031683867f888ebbee43b69c568a7ef10a18f4afb4a0452ed2cfec2dde7a3d37b7e5ef87a38785604051611065929190615177565b60006001600160a01b037f00000000000000000000000000000000000000000000000000000000000000001630036117f25760405162461bcd60e51b81526004016117e990615454565b60405180910390fd5b7f00000000000000000000000000000000000000000000000000000000000000006001600160a01b0316611824613d44565b6001600160a01b03161461184a5760405162461bcd60e51b81526004016117e990615483565b6000611859604a5461ffff1690565b61ffff16116118aa5760405162461bcd60e51b815260206004820152601860248201527f436f6e7472616374204e6f7420496e697469616c697a6564000000000000000060448201526064016117e9565b6118ba63225bf2f960e11b613d65565b6118fe5760405162461bcd60e51b815260206004820152601560248201527429b2ba29b0b332a6b7b232902337b93134b23232b760591b60448201526064016117e9565b6003805460ff60a01b1916600160a01b8415150217905560025430336001600160a01b03167fdd452a31d2e164a1ea436c084842c27d24ae2548a575a869f71b05a4ed16243f85604051611956911515815260200190565b60405180910390a450805b919050565b60405163037f4c9360e41b81526044600482018190526024820183905260009173__$c43b1d7058274a71a9734d16e6b6586431$__916337f4c93091016110c0565b60006001600160a01b037f00000000000000000000000000000000000000000000000000000000000000001630036119f25760405162461bcd60e51b81526004016117e990615454565b7f00000000000000000000000000000000000000000000000000000000000000006001600160a01b0316611a24613d44565b6001600160a01b031614611a4a5760405162461bcd60e51b81526004016117e990615483565b600354600160a01b900460ff1615611a745760405162461bcd60e51b81526004016117e9906154b1565b611a84631239af8760e21b613d65565b611ad05760405162461bcd60e51b815260206004820152601a60248201527f5365745570677261646553746174757320466f7262696464656e00000000000060448201526064016117e9565b611ad8613eaa565b611b245760405162461bcd60e51b815260206004820152601760248201527f5265616c6d205570677261646520466f7262696464656e00000000000000000060448201526064016117e9565b6003805460ff60a81b1916600160a81b8415150217905560025430336001600160a01b03167fe9f97ad94c2ba252dcfc525e004f608ac5cb886955d8fc87d9e0ee070a698c5685604051611956911515815260200190565b6040516352f8f17f60e11b81526044600482018190526024820183905260009173__$c43b1d7058274a71a9734d16e6b6586431$__9163a5f1e2fe91016110c0565b60008073__$bc3cfbaf1827cbc66e3e608da812a405b7$__639b214b706044888888886040518663ffffffff1660e01b8152600401611c019594939291906154e8565b602060405180830381865af4158015611c1e573d6000803e3d6000fd5b505050506040513d601f19601f82011682018060405250810190611c42919061515e565b9050336001600160a01b0316817f5a8acbe7e0fa397d934e9aafb8fb1a483627af9e9b4690f4488d740b669f8b4788888888604051611c84949392919061551b565b60405180910390a395945050505050565b60405163784c277360e11b81526044600482018190526024820183905260009173__$c43b1d7058274a71a9734d16e6b6586431$__9163f0984ee691016110c0565b60405163302a328360e21b81526044600482018190526024820183905260009173__$c43b1d7058274a71a9734d16e6b6586431$__9163c0a8ca0c91016110c0565b6000306001600160a01b037f00000000000000000000000000000000000000000000000000000000000000001614611d935760405162461bcd60e51b815260206004820152601d60248201527f496c6c6567616c20436f6e74726163742044656c656761746563616c6c00000060448201526064016117e9565b50600080516020615f8883398151915290565b600061139d613d44565b604051636787ad5160e01b81526044600482018190526024820183905260009173__$c43b1d7058274a71a9734d16e6b6586431$__91636787ad5191016110c0565b60405163097f7f8760e01b81526044600482018190526024820183905260609160009173__$6309dd7d2656d358c392b35d5c4e4605f9$__9163097f7f879101600060405180830381865af4158015611e4f573d6000803e3d6000fd5b505050506040513d6000823e601f3d908101601f19168201604052611e779190810190615547565b91509150915091565b60405163214cdddf60e21b81526044600482018190526024820185905281018390526001600160e01b03198216606482015260009073__$122c978fc1a65ab69c7a0ac6b07fd0b0cd$__90638533777c906084015b602060405180830381865af4158015611ef2573d6000803e3d6000fd5b505050506040513d601f19601f82011682018060405250810190611f169190615191565b949350505050565b6040516375e6430f60e11b815260446004820181905260248201849052821515908201526000908190819073__$122c978fc1a65ab69c7a0ac6b07fd0b0cd$__9063ebcc861e906064016040805180830381865af4158015611f84573d6000803e3d6000fd5b505050506040513d601f19601f82011682018060405250810190611fa8919061558d565b9150915080611fb43390565b6001600160a01b0316867f354501e3216e5f916d4d35ef255a577d106a7eab306488227783a837dc042a4e87604051611ff1911515815260200190565b60405180910390a4509392505050565b60606001600160a01b037f000000000000000000000000000000000000000000000000000000000000000016300361204b5760405162461bcd60e51b81526004016117e990615454565b7f00000000000000000000000000000000000000000000000000000000000000006001600160a01b031661207d613d44565b6001600160a01b0316146120a35760405162461bcd60e51b81526004016117e990615483565b600354600160a01b900460ff16156120cd5760405162461bcd60e51b81526004016117e9906154b1565b600354600160a81b900460ff1661211e5760405162461bcd60e51b8152602060048201526015602482015274155c19dc9859194810d85b1b0814995a9958dd1959605a1b60448201526064016117e9565b61212784613fe8565b611f168484846140af565b600080600073__$122c978fc1a65ab69c7a0ac6b07fd0b0cd$__63d94f24706044898989896040518663ffffffff1660e01b81526004016121779594939291906156bb565b6040805180830381865af4158015612193573d6000803e3d6000fd5b505050506040513d601f19601f820116820180604052508101906121b7919061577e565b91509150806001600160a01b0316826001600160a01b03166121de6121d93390565b614300565b7f2acec3419c1d10dab06d0715f556e96b344f2092a52a23fb192b4b89f5b7cf42896040013560405161221391815260200190565b60405180910390a45095945050505050565b600354600160a01b900460ff161561224f5760405162461bcd60e51b81526004016117e9906154b1565b61225f63756af45f60e01b613d65565b6122ab5760405162461bcd60e51b815260206004820152601a60248201527f57697468647261772042616c616e636520466f7262696464656e00000000000060448201526064016117e9565b6040516001600160a01b038216904780156108fc02916000818181858888f193505050501580156122e0573d6000803e3d6000fd5b5050565b60008073__$122c978fc1a65ab69c7a0ac6b07fd0b0cd$__6376fd3e8260448787876040518563ffffffff1660e01b81526004016123259493929190615139565b602060405180830381865af4158015612342573d6000803e3d6000fd5b505050506040513d601f19601f82011682018060405250810190612366919061515e565b9050336001600160a01b031683867fea00ff399a342f54b82233841f91faa5677300e901667e010e9f22aea1ae59318785604051611065929190615177565b60008060008073__$122c978fc1a65ab69c7a0ac6b07fd0b0cd$__630ec7ee0e60448a8a8a8a6040518663ffffffff1660e01b81526004016123eb95949392919061583f565b606060405180830381865af4158015612408573d6000803e3d6000fd5b505050506040513d601f19601f8201168201806040525081019061242c91906158e9565b9250925092506124393390565b6001600160a01b03908116908416837fcc1b95900c3e2c3876e4b29283de90ac446bd6049a0df525d14a8c07d36ae70c8461247a60c08d0160a08e016148b3565b61248a60a08e0160808f016148b3565b604080516001600160a01b0394851681529284166020840152921681830152908c0135606082015260800160405180910390a4509695505050505050565b600061139d30614300565b6000336001600160a01b0316837ffe1617b569bd167ab40b31e034f68e32656219dbe4ab9469a00660550fec72c884604051612513911515815260200190565b60405180910390a3604051625d742f60e01b8152604460048201819052602482018590528315159082015273__$bc3cfbaf1827cbc66e3e608da812a405b7$__90625d742f90606401611182565b60405163087d8e2b60e41b81526044600482018190526024820183905260009173__$c43b1d7058274a71a9734d16e6b6586431$__916387d8e2b091016110c0565b6040516000906001600160a01b03831690849033907fd992f85df7a0be47c44b0be141be17eefd360033a4ce05b5458fba27b7781999908590a460405163424afd2b60e11b8152604460048201819052602482018590526001600160a01b0384169082015273__$340101a45712d3611711048793ce62ace0$__90638495fa5690606401611182565b604051630c59f43160e21b81526044600482018190526024820183905260009173__$c43b1d7058274a71a9734d16e6b6586431$__91633167d0c491016110c0565b6000805b828110156127175783838281811061268c5761268c6153c2565b90506040020160200160208101906126a491906148b3565b6001600160a01b03168484838181106126bf576126bf6153c2565b905060400201600001356126d03390565b6001600160a01b03167fd992f85df7a0be47c44b0be141be17eefd360033a4ce05b5458fba27b778199960405160405180910390a48061270f81615937565b915050612672565b50604051630803bd0960e41b815273__$340101a45712d3611711048793ce62ace0$__9063803bd090906111829060449087908790600401615950565b604051636cc77b1160e11b81526044600482018190526024820183905260009173__$c43b1d7058274a71a9734d16e6b6586431$__9163d98ef62291016110c0565b6060600073__$340101a45712d3611711048793ce62ace0$__636c3245ac604486866040518463ffffffff1660e01b81526004016127d6939291906159b2565b600060405180830381865af41580156127f3573d6000803e3d6000fd5b505050506040513d6000823e601f3d908101601f1916820160405261281b9190810190615294565b905060005b8381101561293f5784848281811061283a5761283a6153c2565b905060200281019061284c9190615a89565b61285a906020810190615aa9565b604051612868929190615aef565b6040518091039020828281518110612882576128826153c2565b60200260200101516128913390565b6001600160a01b03167f539b07dddd6bd9ffefa3d951a9467d78948cbe1a8d13be00e7376842a83a59818888868181106128cd576128cd6153c2565b90506020028101906128df9190615a89565b358989878181106128f2576128f26153c2565b90506020028101906129049190615a89565b612915906060810190604001614b06565b6040805192835290151560208301520160405180910390a48061293781615937565b915050612820565b509392505050565b6040805160c081018252600080825260208201819052818301819052606082018190526080820181905260a08201529051639bbafb1160e01b81526044600482018190526024820184905273__$122c978fc1a65ab69c7a0ac6b07fd0b0cd$__91639bbafb11910160c060405180830381865af41580156129cc573d6000803e3d6000fd5b505050506040513d601f19601f82011682018060405250810190610f9e9190615aff565b60405163ce34a66d60e01b81526044600482018190526024820183905260009173__$c43b1d7058274a71a9734d16e6b6586431$__9163ce34a66d91016110c0565b6040516342ef199b60e11b81526044600482018190526001600160a01b038316602483015260009173__$c43b1d7058274a71a9734d16e6b6586431$__916385de333691016110c0565b60008073__$340101a45712d3611711048793ce62ace0$__63881d86766044888888886040518663ffffffff1660e01b8152600401612abf959493929190615b90565b602060405180830381865af4158015612adc573d6000803e3d6000fd5b505050506040513d601f19601f82011682018060405250810190612b00919061515e565b90508585604051612b12929190615aef565b604051809103902081612b223390565b6001600160a01b03167f539b07dddd6bd9ffefa3d951a9467d78948cbe1a8d13be00e7376842a83a59818787604051612b679291909182521515602082015260400190565b60405180910390a495945050505050565b6040516337455c0b60e21b815260009073__$c43b1d7058274a71a9734d16e6b6586431$__9063dd15702c9061118290604490879087906004016151ae565b60008073__$122c978fc1a65ab69c7a0ac6b07fd0b0cd$__634a56c0b8604486866040518463ffffffff1660e01b8152600401612bf6939291906151ae565b602060405180830381865af4158015612c13573d6000803e3d6000fd5b505050506040513d601f19601f82011682018060405250810190612c37919061515e565b9050336001600160a01b0316847fa6234dfea6da9d63d0505ba9b61ac8405dfd897089208859cda18011c4847d698584604051612c75929190615177565b60405180910390a35060019392505050565b6000336001600160a01b0316837fe595d6b009cbfd06bfdfc4b7c06799f0e0b08fb2c6f5fa6e28a9aac2495440f984604051612cc7911515815260200190565b60405180910390a36040516311cc3c7760e01b8152604460048201819052602482018590528315159082015273__$6309dd7d2656d358c392b35d5c4e4605f9$__906311cc3c7790606401611182565b60405163014ac83b60e61b815260446004820181905260248201839052606091600091829173__$340101a45712d3611711048793ce62ace0$__916352b20ec09101600060405180830381865af4158015612d76573d6000803e3d6000fd5b505050506040513d6000823e601f3d908101601f191682016040526114299190810190615bc3565b6040516377f616af60e11b81526044600482018190526001600160a01b038316602483015260009173__$c43b1d7058274a71a9734d16e6b6586431$__9163efec2d5e91016110c0565b6040516374e7db3960e11b81526044600482018190526001600160a01b038316602483015260009173__$c43b1d7058274a71a9734d16e6b6586431$__9163e9cfb67291016110c0565b60405163226d6a0d60e21b81526044600482018190526024820183905260009173__$c43b1d7058274a71a9734d16e6b6586431$__916389b5a83491016110c0565b6000805b82811015612f1d57838382818110612e9257612e926153c2565b9050604002016020016020810190612eaa91906148b3565b6001600160a01b0316848483818110612ec557612ec56153c2565b90506040020160000135612ed63390565b6001600160a01b03167f1d31fe42f06d4c1f16f6cb7b5682f1d6743641a9e1412fa0258f6776c5b943ee60405160405180910390a480612f1581615937565b915050612e78565b5060405163608f85ef60e01b815273__$340101a45712d3611711048793ce62ace0$__9063608f85ef906111829060449087908790600401615950565b60405163289ea12d60e11b8152604460048201819052602482018590526001600160a01b038416908201526001600160e01b03198216606482015260009073__$c43b1d7058274a71a9734d16e6b6586431$__9063513d425a90608401611ed5565b604051636861fc1160e01b8152604460048201819052602482018490526001600160a01b0383169082015260009073__$340101a45712d3611711048793ce62ace0$__90636861fc1190606401611182565b60405163adfc581b60e01b81526044600482018190526024820184905281018290526000908190819073__$122c978fc1a65ab69c7a0ac6b07fd0b0cd$__9063adfc581b906064016040805180830381865af4158015613072573d6000803e3d6000fd5b505050506040513d601f19601f82011682018060405250810190613096919061558d565b91509150836130a23390565b6001600160a01b0316867fa0eaa0025d4f12545803a03c369115c59f885df7b5fc07a6393438827dbf51b784604051611ff191815260200190565b60405163cb3db3a360e01b815260446004820181905260248201849052810182905260009073__$bc3cfbaf1827cbc66e3e608da812a405b7$__9063cb3db3a390606401611182565b6040516357dc938360e11b81526044600482018190526001600160a01b038316602483015260009173__$c43b1d7058274a71a9734d16e6b6586431$__9163afb9270691016110c0565b60006001600160a01b037f00000000000000000000000000000000000000000000000000000000000000001630036131ba5760405162461bcd60e51b81526004016117e990615454565b7f00000000000000000000000000000000000000000000000000000000000000006001600160a01b03166131ec613d44565b6001600160a01b0316146132125760405162461bcd60e51b81526004016117e990615483565b600354600160a01b900460ff161561323c5760405162461bcd60e51b81526004016117e9906154b1565b61324c63d9dc1f1960e01b613d65565b6132985760405162461bcd60e51b815260206004820152601760248201527f5365744c6f63616c41646d696e20466f7262696464656e00000000000000000060448201526064016117e9565b6001600160a01b0382166132e05760405162461bcd60e51b815260206004820152600f60248201526e1059191c995cdcc8125b9d985b1a59608a1b60448201526064016117e9565b6132e98261433f565b506001919050565b604051631912cf4360e01b81526044600482018190526024820184905281018290526000908190819073__$340101a45712d3611711048793ce62ace0$__90631912cf43906064016040805180830381865af4158015613355573d6000803e3d6000fd5b505050506040513d601f19601f82011682018060405250810190613379919061558d565b9150915083856133863390565b6001600160a01b03167f970f60a11b3302f55122bdb3e2de766d28491b40fe0a2a6d04da71e5ab577cb984604051611ff191815260200190565b604051634df89d6f60e01b81526044600482018190526024820183905260009173__$c43b1d7058274a71a9734d16e6b6586431$__91634df89d6f91016110c0565b6040516000906001600160a01b03831690849033907f1d31fe42f06d4c1f16f6cb7b5682f1d6743641a9e1412fa0258f6776c5b943ee908590a46040516391de53cf60e01b8152604460048201819052602482018590526001600160a01b0384169082015273__$340101a45712d3611711048793ce62ace0$__906391de53cf90606401611182565b6040516384f27d3560e01b81526044600482018190526024820183905260609173__$340101a45712d3611711048793ce62ace0$__916384f27d359101600060405180830381865af41580156134e5573d6000803e3d6000fd5b505050506040513d6000823e601f3d908101601f19168201604052610f9e9190810190615c12565b60405163580cea9d60e11b81526044600482018190526024820183905260009173__$c43b1d7058274a71a9734d16e6b6586431$__9163b019d53a91016110c0565b604051633f75a32d60e01b815260446004820181905260248201849052821515908201526000908190819073__$340101a45712d3611711048793ce62ace0$__90633f75a32d906064016040805180830381865af41580156135b5573d6000803e3d6000fd5b505050506040513d601f19601f820116820180604052508101906135d9919061558d565b9150915080856135e63390565b6001600160a01b03167faaf3a0e62c1102e283a5a18e81d678b9ce6f4f043cc7afafee4f7f82b85330a287604051611ff1911515815260200190565b60405163648e910b60e11b81526044600482018190526024820183905260609173__$6309dd7d2656d358c392b35d5c4e4605f9$__9163c91d22169101611349565b600080600073__$122c978fc1a65ab69c7a0ac6b07fd0b0cd$__636da4c23c6044898989896040518663ffffffff1660e01b81526004016136a9959493929190615ca0565b6040805180830381865af41580156136c5573d6000803e3d6000fd5b505050506040513d601f19601f820116820180604052508101906136e99190615cdc565b90925090506001600160a01b03811661370860808801606089016148b3565b6001600160a01b0316837f2a2b33fd7e66815f7a7bea7d796d5c587e39efd4b142c4a9ab63b8becc98feb433604080516001600160a01b039092168252808c0135602083015201612213565b6000336001600160a01b0316837f552ce1fc1bc82a48cdc0636ff7162480d868c590f2e57c63c30a944f3a82ec3684604051613794911515815260200190565b60405180910390a3604051632efee30760e21b8152604460048201819052602482018590528315159082015273__$bc3cfbaf1827cbc66e3e608da812a405b7$__9063bbfb8c1c90606401611182565b6040805160ff83168152905160009133917f960d53199a5e0effafcde238935a58206c3a64102541269042311ae105e2bdd29181900360200190a2604051630c08877b60e21b815260446004820181905260ff8416602483015273__$122c978fc1a65ab69c7a0ac6b07fd0b0cd$__916330221dec91016110c0565b60405163343f6e0960e11b815260446004820181905260248201849052810182905260009073__$6309dd7d2656d358c392b35d5c4e4605f9$__9063687edc1290606401611182565b600061139d60008054600154604080517f8b73c3c69bb8fe3d512ecc4cf759cc79239f7b179b0ffacaa9a75d522b39400f60208201529081019290925260608201524660808201523060a082015260c00160405160208183030381529060405280519060200120905090565b600061139d6143b6565b6001600160a01b037f00000000000000000000000000000000000000000000000000000000000000001630036139675760405162461bcd60e51b81526004016117e990615454565b7f00000000000000000000000000000000000000000000000000000000000000006001600160a01b0316613999613d44565b6001600160a01b0316146139bf5760405162461bcd60e51b81526004016117e990615483565b336139c86143b6565b6001600160a01b031614613a165760405162461bcd60e51b815260206004820152601560248201527410d85b1b195c88139bdd08105d5d1a1bdc9a5e9959605a1b60448201526064016117e9565b604a5462010000900460ff1615808015613a385750604a54600161ffff909116105b80613a535750303b158015613a535750604a5461ffff166001145b613a9f5760405162461bcd60e51b815260206004820152601c60248201527f436f6e747261637420416c726561647920496e697469616c697a65640000000060448201526064016117e9565b604a805461ffff191660011790558015613ac557604a805462ff00001916620100001790555b60008585604051602001613ada929190615aef565b60408051808303601f190181529082905280516020909101206313f4f37f60e31b825260446004830152915073__$c43b1d7058274a71a9734d16e6b6586431$__90639fa79bf89060240160006040518083038186803b158015613b3d57600080fd5b505af4158015613b51573d6000803e3d6000fd5b50505050613b638a8a8a8a85896143de565b600073__$c43b1d7058274a71a9734d16e6b6586431$__6362f3c2d46040518163ffffffff1660e01b8152600401600060405180830381865af4158015613bae573d6000803e3d6000fd5b505050506040513d6000823e601f3d908101601f19168201604052613bd69190810190615d01565b604051630a64c0bb60e41b815290915073__$122c978fc1a65ab69c7a0ac6b07fd0b0cd$__9063a64c0bb090613c1790604490309087908790600401615df7565b602060405180830381865af4158015613c34573d6000803e3d6000fd5b505050506040513d601f19601f82011682018060405250810190613c58919061515e565b506049805460ff191660ff8616179055613c70613d44565b6001600160a01b031630336001600160a01b03167ff851a1e85477b818fc72ad517ea622cc316f10f67d61c9e740adc151a8b413948e8e8e8e89613cb7604a5461ffff1690565b604051613cc996959493929190615ecf565b60405180910390a450508015613ce657604a805462ff0000191690555b505050505050505050565b90565b60006001600160e01b031982166314751dbf60e01b1480613d2557506001600160e01b031982166352d1902d60e01b145b80610f9e57506301ffc9a760e01b6001600160e01b0319831614610f9e565b6000600080516020615f888339815191525b546001600160a01b0316919050565b6003546000906001600160a01b03163003613e535760006363d59cf360e11b613d8d30614300565b3385604051602401613da193929190615f14565b60408051601f198184030181529190526020810180516001600160e01b03166001600160e01b03199093169290921790915290506000613e1e613de2613d44565b836040518060400160405280601d81526020017f44656c656761746563616c6c20686173416363657373204661696c65640000008152506143f4565b90508060018251613e2f9190615f3d565b81518110613e3f57613e3f6153c2565b60209101015160f81c600114949350505050565b6003546001600160a01b031663c7ab39e6613e6d30614300565b33856040518463ffffffff1660e01b8152600401613e8d93929190615f14565b602060405180830381865afa1580156110dd573d6000803e3d6000fd5b6003546000906001600160a01b03163003613f7257600063e25d75f060e01b600254604051602401613ede91815260200190565b60408051601f198184030181529190526020810180516001600160e01b03166001600160e01b03199093169290921790915290506000613f3e613f1f613d44565b83604051806060016040528060258152602001615f63602591396143f4565b90508060018251613f4f9190615f3d565b81518110613f5f57613f5f6153c2565b60209101015160f81c6001149392505050565b600354600254604051630e25d75f60e41b81526001600160a01b039092169163e25d75f091613fa79160040190815260200190565b602060405180830381865afa158015613fc4573d6000803e3d6000fd5b505050506040513d601f19601f8201168201806040525081019061139d9190615191565b613ff0613d44565b6001600160a01b0316816001600160a01b0316036140505760405162461bcd60e51b815260206004820152601a60248201527f496c6c6567616c204e657720496d706c656d656e746174696f6e00000000000060448201526064016117e9565b614060637147855d60e01b613d65565b6140ac5760405162461bcd60e51b815260206004820152601960248201527f5570677261646520436f6e7465787420466f7262696464656e0000000000000060448201526064016117e9565b50565b60607f4910fdfa16fed3260ed0e7147f7cc6da11a60208b5b9406d12a635614ffd91435460ff16156140f9576140e4846144bd565b50604080516000815260208101909152611073565b836001600160a01b03166352d1902d6040518163ffffffff1660e01b8152600401602060405180830381865afa925050508015614153575060408051601f3d908101601f191682019092526141509181019061515e565b60015b6141975760405162461bcd60e51b8152602060048201526015602482015274125b1b1959d85b0815555414c810dbdb9d1c9858dd605a1b60448201526064016117e9565b600080516020615f8883398151915281146141ec5760405162461bcd60e51b8152602060048201526015602482015274125b9d985b1a590815555414c810dbdb9d1c9858dd605a1b60448201526064016117e9565b506040516301ffc9a760e01b81526314751dbf60e01b60048201526001600160a01b038516906301ffc9a790602401602060405180830381865afa925050508015614254575060408051601f3d908101601f1916820190925261425191810190615191565b60015b6142a05760405162461bcd60e51b815260206004820152601760248201527f496c6c6567616c204950726f787920436f6e747261637400000000000000000060448201526064016117e9565b806142ed5760405162461bcd60e51b815260206004820152601760248201527f496e76616c6964204950726f787920436f6e747261637400000000000000000060448201526064016117e9565b506142f984848461453e565b9050611073565b6040516bffffffffffffffffffffffff19606083901b166020820152600090603401604051602081830303815290604052805190602001209050919050565b7fb53127684a568b3173ae13b9f8a6016e243e63b6e8ee1178d6a717850b5d610380546001600160a01b0383166001600160a01b031990911681179091556040805191825251309133917f54ab0d18de7958786ba1ad85966d59baa2b395455f0530dcdcfd732e6af539e29181900360200190a350565b60007fb53127684a568b3173ae13b9f8a6016e243e63b6e8ee1178d6a717850b5d6103613d56565b6143ec8686868686866145a8565b505050505050565b60606001600160a01b0384163b6144485760405162461bcd60e51b8152602060048201526018602482015277496c6c6567616c20436f6e7472616374204164647265737360401b60448201526064016117e9565b600080856001600160a01b0316856040516144639190615f50565b600060405180830381855af49150503d806000811461449e576040519150601f19603f3d011682016040523d82523d6000602084013e6144a3565b606091505b50915091506144b38282866147b6565b9695505050505050565b6001600160a01b0381163b61450f5760405162461bcd60e51b8152602060048201526018602482015277496c6c6567616c20436f6e7472616374204164647265737360401b60448201526064016117e9565b600080516020615f8883398151915280546001600160a01b0319166001600160a01b0392909216919091179055565b6060614549846147ef565b6000835111806145565750815b15614591576142f984846040518060400160405280601381526020017211195b1959d85d1958d85b1b0811985a5b1959606a1b8152506143f4565b505060408051600081526020810190915292915050565b604a5462010000900460ff166146005760405162461bcd60e51b815260206004820152601960248201527f436f6e7472616374204e6f7420496e697469616c697a696e670000000000000060448201526064016117e9565b8585604051602001614613929190615aef565b60408051601f1981840301815290829052805160209182012060005561463d918691869101615aef565b60408051601f19818403018152919052805160209091012060015560028290556001600160a01b03811661468257600380546001600160a01b0319163017905561479f565b6040516301ffc9a760e01b81526314b8343560e31b60048201526001600160a01b038216906301ffc9a790602401602060405180830381865afa9250505080156146e9575060408051601f3d908101601f191682019092526146e691810190615191565b60015b6147355760405162461bcd60e51b815260206004820152601c60248201527f496c6c6567616c20416363657373436f6e74726f6c4d616e616765720000000060448201526064016117e9565b806147825760405162461bcd60e51b815260206004820152601c60248201527f496e76616c696420416363657373436f6e74726f6c4d616e616765720000000060448201526064016117e9565b50600380546001600160a01b0319166001600160a01b0383161790555b6003805461ffff60a01b191690556143ec3361433f565b606083156147c5575081611073565b8251156147d55782518084602001fd5b8160405162461bcd60e51b81526004016117e99190614d44565b6147f8816144bd565b6040516001600160a01b03821690309033907f354bd4b6eb65d64e6c79c53fa4f983a5e6bec4824ce4627c71be0b2722f4917e90600090a450565b6001600160e01b0319811681146140ac57600080fd5b60006020828403121561485b57600080fd5b813561107381614833565b60008060006060848603121561487b57600080fd5b83359250602084013561488d81614833565b929592945050506040919091013590565b6001600160a01b03811681146140ac57600080fd5b6000602082840312156148c557600080fd5b81356110738161489e565b6000602082840312156148e257600080fd5b5035919050565b600080604083850312156148fc57600080fd5b82359150602083013561490e81614833565b809150509250929050565b6020808252825182820181905260009190848201906040850190845b8181101561495b5783516001600160e01b03191683529284019291840191600101614935565b50909695505050505050565b6020808252825182820181905260009190848201906040850190845b8181101561495b57835183529284019291840191600101614983565b60005b838110156149ba5781810151838201526020016149a2565b50506000910152565b600081518084526149db81602086016020860161499f565b601f01601f19169290920160200192915050565b606081526000614a0260608301866149c3565b931515602083015250901515604090910152919050565b6020808252825182820181905260009190848201906040850190845b8181101561495b5783516001600160a01b031683529284019291840191600101614a35565b60008083601f840112614a6c57600080fd5b5081356001600160401b03811115614a8357600080fd5b602083019150836020828501011115614a9b57600080fd5b9250929050565b80151581146140ac57600080fd5b600080600060408486031215614ac557600080fd5b83356001600160401b03811115614adb57600080fd5b614ae786828701614a5a565b9094509250506020840135614afb81614aa2565b809150509250925092565b600060208284031215614b1857600080fd5b813561107381614aa2565b60008060008060608587031215614b3957600080fd5b84356001600160401b03811115614b4f57600080fd5b614b5b87828801614a5a565b9095509350506020850135614b6f81614aa2565b91506040850135614b7f81614aa2565b939692955090935050565b604081526000614b9d60408301856149c3565b905082151560208301529392505050565b600080600060608486031215614bc357600080fd5b83359250602084013591506040840135614afb81614833565b60008060408385031215614bef57600080fd5b82359150602083013561490e81614aa2565b634e487b7160e01b600052604160045260246000fd5b604051606081016001600160401b0381118282101715614c3957614c39614c01565b60405290565b604051601f8201601f191681016001600160401b0381118282101715614c6757614c67614c01565b604052919050565b60006001600160401b03821115614c8857614c88614c01565b50601f01601f191660200190565b600082601f830112614ca757600080fd5b8135614cba614cb582614c6f565b614c3f565b818152846020838601011115614ccf57600080fd5b816020850160208301376000918101602001919091529392505050565b600080600060608486031215614d0157600080fd5b8335614d0c8161489e565b925060208401356001600160401b03811115614d2757600080fd5b614d3386828701614c96565b9250506040840135614afb81614aa2565b60208152600061107360208301846149c3565b600060a08284031215614d6957600080fd5b50919050565b60008083601f840112614d8157600080fd5b5081356001600160401b03811115614d9857600080fd5b6020830191508360208260051b8501011115614a9b57600080fd5b60008060008060e08587031215614dc957600080fd5b84356001600160401b0380821115614de057600080fd5b614dec88838901614c96565b9550614dfb8860208901614d57565b945060c0870135915080821115614e1157600080fd5b50614e1e87828801614d6f565b95989497509550505050565b600080600080848603610120811215614e4257600080fd5b85356001600160401b0380821115614e5957600080fd5b614e6589838a01614c96565b965060e0601f1984011215614e7957600080fd5b602088019550610100880135925080831115614e9457600080fd5b5050614e1e87828801614d6f565b60008060408385031215614eb557600080fd5b82359150602083013561490e8161489e565b60008060208385031215614eda57600080fd5b82356001600160401b0380821115614ef157600080fd5b818501915085601f830112614f0557600080fd5b813581811115614f1457600080fd5b8660208260061b8501011115614f2957600080fd5b60209290920196919550909350505050565b60008060208385031215614f4e57600080fd5b82356001600160401b03811115614f6457600080fd5b614f7085828601614d6f565b90969095509350505050565b60008060008060608587031215614f9257600080fd5b84356001600160401b03811115614fa857600080fd5b614fb487828801614a5a565b909550935050602085013591506040850135614b7f81614aa2565b606081526000614fe260608301866149c3565b602083019490945250901515604090910152919050565b60008060006060848603121561500e57600080fd5b8335925060208401356150208161489e565b91506040840135614afb81614833565b6000806040838503121561504357600080fd5b50508035926020909101359150565b803560ff8116811461196157600080fd5b60006020828403121561507557600080fd5b61107382615052565b60008060008060008060008060a0898b03121561509a57600080fd5b88356001600160401b03808211156150b157600080fd5b6150bd8c838d01614a5a565b909a50985060208b01359150808211156150d657600080fd5b6150e28c838d01614a5a565b909850965060408b01359150808211156150fb57600080fd5b506151088b828c01614a5a565b909550935050606089013561511c8161489e565b915061512a60808a01615052565b90509295985092959890939650565b93845260208401929092526001600160e01b0319166040830152606082015260800190565b60006020828403121561517057600080fd5b5051919050565b6001600160e01b0319929092168252602082015260400190565b6000602082840312156151a357600080fd5b815161107381614aa2565b92835260208301919091526001600160e01b031916604082015260600190565b60006001600160401b038211156151e7576151e7614c01565b5060051b60200190565b600082601f83011261520257600080fd5b81516020615212614cb5836151ce565b82815260059290921b8401810191818101908684111561523157600080fd5b8286015b8481101561525557805161524881614833565b8352918301918301615235565b509695505050505050565b60006020828403121561527257600080fd5b81516001600160401b0381111561528857600080fd5b611f16848285016151f1565b600060208083850312156152a757600080fd5b82516001600160401b038111156152bd57600080fd5b8301601f810185136152ce57600080fd5b80516152dc614cb5826151ce565b81815260059190911b820183019083810190878311156152fb57600080fd5b928401925b8284101561531957835182529284019290840190615300565b979650505050505050565b600082601f83011261533557600080fd5b8151615343614cb582614c6f565b81815284602083860101111561535857600080fd5b611f1682602083016020870161499f565b60008060006060848603121561537e57600080fd5b83516001600160401b0381111561539457600080fd5b6153a086828701615324565b93505060208401516153b181614aa2565b6040850151909250614afb81614aa2565b634e487b7160e01b600052603260045260246000fd5b81835281816020850137506000828201602090810191909152601f909101601f19169091010190565b84815260606020820152600061541b6060830185876153d8565b9050821515604083015295945050505050565b6040815260006154426040830185876153d8565b90508215156020830152949350505050565b602080825260159082015274125b1b1959d85b0810dbdb9d1c9858dd0810d85b1b605a1b604082015260600190565b602080825260149082015273141c9bde1e4810d85b1b195908125b9d985b1a5960621b604082015260600190565b60208082526017908201527f536166654d6f64653a2043616c6c2052656a6563746564000000000000000000604082015260600190565b8581526080602082015260006155026080830186886153d8565b9315156040830152509015156060909101529392505050565b60608152600061552f6060830186886153d8565b93151560208301525090151560409091015292915050565b6000806040838503121561555a57600080fd5b82516001600160401b0381111561557057600080fd5b61557c85828601615324565b925050602083015161490e81614aa2565b600080604083850312156155a057600080fd5b82516155ab81614aa2565b6020939093015192949293505050565b80358252602081013560208301526040810135604083015260608101356155e18161489e565b6001600160a01b0316606083015260808101356155fd81614aa2565b8015156080840152505050565b6000808335601e1984360301811261562157600080fd5b83016020810192503590506001600160401b0381111561564057600080fd5b8060051b3603821315614a9b57600080fd5b8183526000602080850194508260005b8581101561569157813561567581614833565b6001600160e01b03191687529582019590820190600101615662565b509495945050505050565b60008235605e198336030181126156b257600080fd5b90910192915050565b6000610100878352602081818501526156d6828501896149c3565b915060406156e6818601896155bb565b84830360e0860152858352818301600587901b84018301886000805b8a81101561576b57878403601f1901855261571d838d61569c565b60608135865261572f8983018361560a565b828b8901526157418389018284615652565b9250505087820135915060038210615757578384fd5b948701529386019391860191600101615702565b50919d9c50505050505050505050505050565b6000806040838503121561579157600080fd5b825161579c8161489e565b602084015190925061490e8161489e565b81835260006020808501808196508560051b810191508460005b878110156158325782840389526157de828861569c565b6060813586526157f08783018361560a565b82898901526158028389018284615652565b92505050604080830135925061581783614aa2565b911515959091019490945297840197908401906001016157c7565b5091979650505050505050565b6000610140878352806020840152615859818401886149c3565b9050853560408401526020860135606084015260408601356080840152606086013560a0840152608086013561588e8161489e565b6001600160a01b0390811660c085015260a0870135906158ad8261489e565b1660e084015260c08601356158c181614aa2565b15156101008401528281036101208401526158dd8185876157ad565b98975050505050505050565b6000806000606084860312156158fe57600080fd5b83516159098161489e565b602085015160408601519194509250614afb8161489e565b634e487b7160e01b600052601160045260246000fd5b60006001820161594957615949615921565b5060010190565b8381526040602080830182905282820184905260009190859060608501845b878110156159a55783358252828401356159888161489e565b6001600160a01b031682840152928401929084019060010161596f565b5098975050505050505050565b600060408083018684526020828186015281868352606092508286019050828760051b8701018860005b89811015615a7957888303605f190184526159f7828c61569c565b8035845285810135601e19823603018112615a1157600080fd5b810186810190356001600160401b03811115615a2c57600080fd5b803603821315615a3b57600080fd5b8888870152615a4d89870182846153d8565b915050888201359150615a5f82614aa2565b9015159388019390935292840192908401906001016159dc565b50909a9950505050505050505050565b60008235605e19833603018112615a9f57600080fd5b9190910192915050565b6000808335601e19843603018112615ac057600080fd5b8301803591506001600160401b03821115615ada57600080fd5b602001915036819003821315614a9b57600080fd5b8183823760009101908152919050565b600060c08284031215615b1157600080fd5b60405160c081018181106001600160401b0382111715615b3357615b33614c01565b80604052508251815260208301516020820152604083015160408201526060830151615b5e8161489e565b60608201526080830151615b7181614aa2565b608082015260a0830151615b8481614aa2565b60a08201529392505050565b858152608060208201526000615baa6080830186886153d8565b6040830194909452509015156060909101529392505050565b600080600060608486031215615bd857600080fd5b83516001600160401b03811115615bee57600080fd5b615bfa86828701615324565b935050602084015191506040840151614afb81614aa2565b60006020808385031215615c2557600080fd5b82516001600160401b03811115615c3b57600080fd5b8301601f81018513615c4c57600080fd5b8051615c5a614cb5826151ce565b81815260059190911b82018301908381019087831115615c7957600080fd5b928401925b82841015615319578351615c918161489e565b82529284019290840190615c7e565b6000610100878352806020840152615cba818401886149c3565b9050615cc960408401876155bb565b82810360e08401526158dd8185876157ad565b60008060408385031215615cef57600080fd5b82519150602083015161490e8161489e565b60006020808385031215615d1457600080fd5b82516001600160401b0380821115615d2b57600080fd5b818501915085601f830112615d3f57600080fd5b8151615d4d614cb5826151ce565b81815260059190911b83018401908481019088831115615d6c57600080fd5b8585015b838110156159a557805185811115615d885760008081fd5b86016060818c03601f1901811315615da05760008081fd5b615da8614c17565b89830151815260408084015189811115615dc25760008081fd5b615dd08f8d838801016151f1565b838d0152509282015192615de384614aa2565b810192909252508352918601918601615d70565b60006080808301878452602060018060a01b03881681860152604087818701526060848188015283885180865260a08901915060a08160051b8a01019550848a016000805b83811015615ebb578b8903609f19018552825180518a5288810151898b018890528051888c01819052908a019084908d8d01905b80831015615e9a5783516001600160e01b0319168252928c019260019290920191908c0190615e70565b50928a015115159b8a019b909b525098509387019391870191600101615e3c565b50969e9d5050505050505050505050505050565b608081526000615ee360808301888a6153d8565b8281036020840152615ef68187896153d8565b91505083604083015261ffff83166060830152979650505050505050565b9283526001600160a01b039190911660208301526001600160e01b031916604082015260600190565b81810381811115610f9e57610f9e615921565b60008251615a9f81846020870161499f56fe44656c656761746563616c6c2069735265616c6d55706772616461626c65204661696c6564360894a13ba1a3210667c828492db98dca3e2076cc3735a920a3ca505d382bbca2646970667358221220ba3078c4c4e6ca7cb2b5f27bb6ed9820410ec63dafc0f52828c9e1db046d260964736f6c63430008110033b53127684a568b3173ae13b9f8a6016e243e63b6e8ee1178d6a717850b5d6103",
  "linkReferences": {
    "src/contracts/lib/acl/LAccessControl.sol": {
      "LAccessControl": [
        {
          "length": 20,
          "start": 4715
        },
        {
          "length": 20,
          "start": 4842
        },
        {
          "length": 20,
          "start": 4892
        },
        {
          "length": 20,
          "start": 5036
        },
        {
          "length": 20,
          "start": 5232
        },
        {
          "length": 20,
          "start": 5298
        },
        {
          "length": 20,
          "start": 5670
        },
        {
          "length": 20,
          "start": 6277
        },
        {
          "length": 20,
          "start": 6991
        },
        {
          "length": 20,
          "start": 7525
        },
        {
          "length": 20,
          "start": 7806
        },
        {
          "length": 20,
          "start": 7872
        },
        {
          "length": 20,
          "start": 8089
        },
        {
          "length": 20,
          "start": 10058
        },
        {
          "length": 20,
          "start": 10261
        },
        {
          "length": 20,
          "start": 10557
        },
        {
          "length": 20,
          "start": 11225
        },
        {
          "length": 20,
          "start": 11299
        },
        {
          "length": 20,
          "start": 11601
        },
        {
          "length": 20,
          "start": 12175
        },
        {
          "length": 20,
          "start": 12249
        },
        {
          "length": 20,
          "start": 12315
        },
        {
          "length": 20,
          "start": 12641
        },
        {
          "length": 20,
          "start": 13079
        },
        {
          "length": 20,
          "start": 13737
        },
        {
          "length": 20,
          "start": 14070
        },
        {
          "length": 20,
          "start": 15567
        },
        {
          "length": 20,
          "start": 15662
        }
      ]
    },
    "src/contracts/lib/acl/LContextManagement.sol": {
      "LContextManagement": [
        {
          "length": 20,
          "start": 4464
        },
        {
          "length": 20,
          "start": 5102
        },
        {
          "length": 20,
          "start": 5742
        },
        {
          "length": 20,
          "start": 6314
        },
        {
          "length": 20,
          "start": 8318
        },
        {
          "length": 20,
          "start": 8466
        },
        {
          "length": 20,
          "start": 8960
        },
        {
          "length": 20,
          "start": 9392
        },
        {
          "length": 20,
          "start": 9588
        },
        {
          "length": 20,
          "start": 11099
        },
        {
          "length": 20,
          "start": 11651
        },
        {
          "length": 20,
          "start": 12800
        },
        {
          "length": 20,
          "start": 14386
        },
        {
          "length": 20,
          "start": 14855
        },
        {
          "length": 20,
          "start": 15791
        }
      ]
    },
    "src/contracts/lib/acl/LGroupManagement.sol": {
      "LGroupManagement": [
        {
          "length": 20,
          "start": 5958
        },
        {
          "length": 20,
          "start": 6030
        },
        {
          "length": 20,
          "start": 8158
        },
        {
          "length": 20,
          "start": 11964
        },
        {
          "length": 20,
          "start": 14347
        },
        {
          "length": 20,
          "start": 14926
        }
      ]
    },
    "src/contracts/lib/acl/LRealmManagement.sol": {
      "LRealmManagement": [
        {
          "length": 20,
          "start": 5364
        },
        {
          "length": 20,
          "start": 5520
        },
        {
          "length": 20,
          "start": 5814
        },
        {
          "length": 20,
          "start": 7562
        },
        {
          "length": 20,
          "start": 9991
        },
        {
          "length": 20,
          "start": 13003
        },
        {
          "length": 20,
          "start": 14729
        }
      ]
    },
    "src/contracts/lib/acl/LRoleManagement.sol": {
      "LRoleManagement": [
        {
          "length": 20,
          "start": 5886
        },
        {
          "length": 20,
          "start": 10193
        },
        {
          "length": 20,
          "start": 10478
        },
        {
          "length": 20,
          "start": 10595
        },
        {
          "length": 20,
          "start": 11336
        },
        {
          "length": 20,
          "start": 12037
        },
        {
          "length": 20,
          "start": 12532
        },
        {
          "length": 20,
          "start": 12723
        },
        {
          "length": 20,
          "start": 13539
        },
        {
          "length": 20,
          "start": 13872
        },
        {
          "length": 20,
          "start": 13940
        },
        {
          "length": 20,
          "start": 14147
        }
      ]
    }
  },
  "deployedLinkReferences": {
    "src/contracts/lib/acl/LAccessControl.sol": {
      "LAccessControl": [
        {
          "length": 20,
          "start": 4260
        },
        {
          "length": 20,
          "start": 4387
        },
        {
          "length": 20,
          "start": 4437
        },
        {
          "length": 20,
          "start": 4581
        },
        {
          "length": 20,
          "start": 4777
        },
        {
          "length": 20,
          "start": 4843
        },
        {
          "length": 20,
          "start": 5215
        },
        {
          "length": 20,
          "start": 5822
        },
        {
          "length": 20,
          "start": 6536
        },
        {
          "length": 20,
          "start": 7070
        },
        {
          "length": 20,
          "start": 7351
        },
        {
          "length": 20,
          "start": 7417
        },
        {
          "length": 20,
          "start": 7634
        },
        {
          "length": 20,
          "start": 9603
        },
        {
          "length": 20,
          "start": 9806
        },
        {
          "length": 20,
          "start": 10102
        },
        {
          "length": 20,
          "start": 10770
        },
        {
          "length": 20,
          "start": 10844
        },
        {
          "length": 20,
          "start": 11146
        },
        {
          "length": 20,
          "start": 11720
        },
        {
          "length": 20,
          "start": 11794
        },
        {
          "length": 20,
          "start": 11860
        },
        {
          "length": 20,
          "start": 12186
        },
        {
          "length": 20,
          "start": 12624
        },
        {
          "length": 20,
          "start": 13282
        },
        {
          "length": 20,
          "start": 13615
        },
        {
          "length": 20,
          "start": 15112
        },
        {
          "length": 20,
          "start": 15207
        }
      ]
    },
    "src/contracts/lib/acl/LContextManagement.sol": {
      "LContextManagement": [
        {
          "length": 20,
          "start": 4009
        },
        {
          "length": 20,
          "start": 4647
        },
        {
          "length": 20,
          "start": 5287
        },
        {
          "length": 20,
          "start": 5859
        },
        {
          "length": 20,
          "start": 7863
        },
        {
          "length": 20,
          "start": 8011
        },
        {
          "length": 20,
          "start": 8505
        },
        {
          "length": 20,
          "start": 8937
        },
        {
          "length": 20,
          "start": 9133
        },
        {
          "length": 20,
          "start": 10644
        },
        {
          "length": 20,
          "start": 11196
        },
        {
          "length": 20,
          "start": 12345
        },
        {
          "length": 20,
          "start": 13931
        },
        {
          "length": 20,
          "start": 14400
        },
        {
          "length": 20,
          "start": 15336
        }
      ]
    },
    "src/contracts/lib/acl/LGroupManagement.sol": {
      "LGroupManagement": [
        {
          "length": 20,
          "start": 5503
        },
        {
          "length": 20,
          "start": 5575
        },
        {
          "length": 20,
          "start": 7703
        },
        {
          "length": 20,
          "start": 11509
        },
        {
          "length": 20,
          "start": 13892
        },
        {
          "length": 20,
          "start": 14471
        }
      ]
    },
    "src/contracts/lib/acl/LRealmManagement.sol": {
      "LRealmManagement": [
        {
          "length": 20,
          "start": 4909
        },
        {
          "length": 20,
          "start": 5065
        },
        {
          "length": 20,
          "start": 5359
        },
        {
          "length": 20,
          "start": 7107
        },
        {
          "length": 20,
          "start": 9536
        },
        {
          "length": 20,
          "start": 12548
        },
        {
          "length": 20,
          "start": 14274
        }
      ]
    },
    "src/contracts/lib/acl/LRoleManagement.sol": {
      "LRoleManagement": [
        {
          "length": 20,
          "start": 5431
        },
        {
          "length": 20,
          "start": 9738
        },
        {
          "length": 20,
          "start": 10023
        },
        {
          "length": 20,
          "start": 10140
        },
        {
          "length": 20,
          "start": 10881
        },
        {
          "length": 20,
          "start": 11582
        },
        {
          "length": 20,
          "start": 12077
        },
        {
          "length": 20,
          "start": 12268
        },
        {
          "length": 20,
          "start": 13084
        },
        {
          "length": 20,
          "start": 13417
        },
        {
          "length": 20,
          "start": 13485
        },
        {
          "length": 20,
          "start": 13692
        }
      ]
    }
  },
  "devdoc": {
    "author": "Sina Tadayon, https://github.com/SinaTadayon",
    "kind": "dev",
    "methods": {
      "hasAccess(bytes32,address,bytes4)": {
        "details": "Function called by apps to check ACL",
        "returns": {
          "_0": "boolean indicating whether the ACL allows"
        }
      },
      "proxiableUUID()": {
        "details": "Implementation of the ERC1822 {proxiableUUID} function. This returns the storage slot used by the implementation. It is used to validate that the this implementation remains valid after an upgrade. IMPORTANT: A proxy pointing at a proxiable contract should not be considered proxiable itself, because this risks bricking a proxy that upgrades to it, by delegating to itself until out of gas. Thus it is critical that this function revert if invoked through a proxy. This is guaranteed by the `notDelegated` modifier."
      },
      "supportsInterface(bytes4)": {
        "details": "See {IERC165-supportsInterface}."
      }
    },
    "title": "Access Control Manager Contract",
    "version": 1
  },
  "evm": {
    "bytecode": {
      "linkReferences": {
        "src/contracts/lib/acl/LAccessControl.sol": {
          "LAccessControl": [
            {
              "length": 20,
              "start": 4715
            },
            {
              "length": 20,
              "start": 4842
            },
            {
              "length": 20,
              "start": 4892
            },
            {
              "length": 20,
              "start": 5036
            },
            {
              "length": 20,
              "start": 5232
            },
            {
              "length": 20,
              "start": 5298
            },
            {
              "length": 20,
              "start": 5670
            },
            {
              "length": 20,
              "start": 6277
            },
            {
              "length": 20,
              "start": 6991
            },
            {
              "length": 20,
              "start": 7525
            },
            {
              "length": 20,
              "start": 7806
            },
            {
              "length": 20,
              "start": 7872
            },
            {
              "length": 20,
              "start": 8089
            },
            {
              "length": 20,
              "start": 10058
            },
            {
              "length": 20,
              "start": 10261
            },
            {
              "length": 20,
              "start": 10557
            },
            {
              "length": 20,
              "start": 11225
            },
            {
              "length": 20,
              "start": 11299
            },
            {
              "length": 20,
              "start": 11601
            },
            {
              "length": 20,
              "start": 12175
            },
            {
              "length": 20,
              "start": 12249
            },
            {
              "length": 20,
              "start": 12315
            },
            {
              "length": 20,
              "start": 12641
            },
            {
              "length": 20,
              "start": 13079
            },
            {
              "length": 20,
              "start": 13737
            },
            {
              "length": 20,
              "start": 14070
            },
            {
              "length": 20,
              "start": 15567
            },
            {
              "length": 20,
              "start": 15662
            }
          ]
        },
        "src/contracts/lib/acl/LContextManagement.sol": {
          "LContextManagement": [
            {
              "length": 20,
              "start": 4464
            },
            {
              "length": 20,
              "start": 5102
            },
            {
              "length": 20,
              "start": 5742
            },
            {
              "length": 20,
              "start": 6314
            },
            {
              "length": 20,
              "start": 8318
            },
            {
              "length": 20,
              "start": 8466
            },
            {
              "length": 20,
              "start": 8960
            },
            {
              "length": 20,
              "start": 9392
            },
            {
              "length": 20,
              "start": 9588
            },
            {
              "length": 20,
              "start": 11099
            },
            {
              "length": 20,
              "start": 11651
            },
            {
              "length": 20,
              "start": 12800
            },
            {
              "length": 20,
              "start": 14386
            },
            {
              "length": 20,
              "start": 14855
            },
            {
              "length": 20,
              "start": 15791
            }
          ]
        },
        "src/contracts/lib/acl/LGroupManagement.sol": {
          "LGroupManagement": [
            {
              "length": 20,
              "start": 5958
            },
            {
              "length": 20,
              "start": 6030
            },
            {
              "length": 20,
              "start": 8158
            },
            {
              "length": 20,
              "start": 11964
            },
            {
              "length": 20,
              "start": 14347
            },
            {
              "length": 20,
              "start": 14926
            }
          ]
        },
        "src/contracts/lib/acl/LRealmManagement.sol": {
          "LRealmManagement": [
            {
              "length": 20,
              "start": 5364
            },
            {
              "length": 20,
              "start": 5520
            },
            {
              "length": 20,
              "start": 5814
            },
            {
              "length": 20,
              "start": 7562
            },
            {
              "length": 20,
              "start": 9991
            },
            {
              "length": 20,
              "start": 13003
            },
            {
              "length": 20,
              "start": 14729
            }
          ]
        },
        "src/contracts/lib/acl/LRoleManagement.sol": {
          "LRoleManagement": [
            {
              "length": 20,
              "start": 5886
            },
            {
              "length": 20,
              "start": 10193
            },
            {
              "length": 20,
              "start": 10478
            },
            {
              "length": 20,
              "start": 10595
            },
            {
              "length": 20,
              "start": 11336
            },
            {
              "length": 20,
              "start": 12037
            },
            {
              "length": 20,
              "start": 12532
            },
            {
              "length": 20,
              "start": 12723
            },
            {
              "length": 20,
              "start": 13539
            },
            {
              "length": 20,
              "start": 13872
            },
            {
              "length": 20,
              "start": 13940
            },
            {
              "length": 20,
              "start": 14147
            }
          ]
        }
      },
      "opcodes": "PUSH1 0xA0 PUSH1 0x40 MSTORE ADDRESS PUSH1 0x80 MSTORE CALLVALUE DUP1 ISZERO PUSH3 0x15 JUMPI PUSH1 0x0 DUP1 REVERT JUMPDEST POP PUSH3 0x43 PUSH1 0x1 PUSH32 0x360894A13BA1A3210667C828492DB98DCA3E2076CC3735A920A3CA505D382BBD PUSH3 0x127 JUMP JUMPDEST PUSH32 0x360894A13BA1A3210667C828492DB98DCA3E2076CC3735A920A3CA505D382BBC EQ PUSH3 0x74 JUMPI PUSH3 0x74 PUSH3 0x14F JUMP JUMPDEST PUSH3 0xA1 PUSH1 0x1 PUSH32 0xB53127684A568B3173AE13B9F8A6016E243E63B6E8EE1178D6A717850B5D6104 PUSH3 0x127 JUMP JUMPDEST PUSH1 0x0 DUP1 MLOAD PUSH1 0x20 PUSH3 0x61A4 DUP4 CODECOPY DUP2 MLOAD SWAP2 MSTORE EQ PUSH3 0xC1 JUMPI PUSH3 0xC1 PUSH3 0x14F JUMP JUMPDEST CALLER PUSH3 0xEA PUSH1 0x0 DUP1 MLOAD PUSH1 0x20 PUSH3 0x61A4 DUP4 CODECOPY DUP2 MLOAD SWAP2 MSTORE PUSH1 0x0 SHL PUSH3 0x124 PUSH1 0x20 SHL PUSH3 0x3CF1 OR PUSH1 0x20 SHR JUMP JUMPDEST DUP1 SLOAD PUSH1 0x1 PUSH1 0x1 PUSH1 0xA0 SHL SUB SWAP3 SWAP1 SWAP3 AND PUSH1 0x1 PUSH1 0x1 PUSH1 0xA0 SHL SUB NOT SWAP1 SWAP3 AND SWAP2 SWAP1 SWAP2 OR SWAP1 SSTORE PUSH1 0x3 DUP1 SLOAD PUSH2 0xFFFF PUSH1 0xA0 SHL NOT AND PUSH1 0x1 PUSH1 0xA0 SHL OR SWAP1 SSTORE PUSH3 0x165 JUMP JUMPDEST SWAP1 JUMP JUMPDEST DUP2 DUP2 SUB DUP2 DUP2 GT ISZERO PUSH3 0x149 JUMPI PUSH4 0x4E487B71 PUSH1 0xE0 SHL PUSH1 0x0 MSTORE PUSH1 0x11 PUSH1 0x4 MSTORE PUSH1 0x24 PUSH1 0x0 REVERT JUMPDEST SWAP3 SWAP2 POP POP JUMP JUMPDEST PUSH4 0x4E487B71 PUSH1 0xE0 SHL PUSH1 0x0 MSTORE PUSH1 0x1 PUSH1 0x4 MSTORE PUSH1 0x24 PUSH1 0x0 REVERT JUMPDEST PUSH1 0x80 MLOAD PUSH2 0x5FDD PUSH3 0x1C7 PUSH1 0x0 CODECOPY PUSH1 0x0 DUP2 DUP2 PUSH2 0x17AB ADD MSTORE DUP2 DUP2 PUSH2 0x17F4 ADD MSTORE DUP2 DUP2 PUSH2 0x19B4 ADD MSTORE DUP2 DUP2 PUSH2 0x19F4 ADD MSTORE DUP2 DUP2 PUSH2 0x1D26 ADD MSTORE DUP2 DUP2 PUSH2 0x200D ADD MSTORE DUP2 DUP2 PUSH2 0x204D ADD MSTORE DUP2 DUP2 PUSH2 0x317C ADD MSTORE DUP2 DUP2 PUSH2 0x31BC ADD MSTORE DUP2 DUP2 PUSH2 0x3929 ADD MSTORE PUSH2 0x3969 ADD MSTORE PUSH2 0x5FDD PUSH1 0x0 RETURN INVALID PUSH1 0x80 PUSH1 0x40 MSTORE PUSH1 0x4 CALLDATASIZE LT PUSH2 0x452 JUMPI PUSH1 0x0 CALLDATALOAD PUSH1 0xE0 SHR DUP1 PUSH4 0x91690955 GT PUSH2 0x23D JUMPI DUP1 PUSH4 0xC7EA945C GT PUSH2 0x138 JUMPI DUP1 PUSH4 0xE1ED0A82 GT PUSH2 0xBB JUMPI DUP1 PUSH4 0xF2C673BD GT PUSH2 0x82 JUMPI DUP1 PUSH4 0xF2C673BD EQ PUSH2 0xE63 JUMPI DUP1 PUSH4 0xF2F99FA4 EQ PUSH2 0xE83 JUMPI DUP1 PUSH4 0xF5122C92 EQ PUSH2 0xEA3 JUMPI DUP1 PUSH4 0xF698DA25 EQ PUSH2 0xEC3 JUMPI DUP1 PUSH4 0xF94A0ADB EQ PUSH2 0xED8 JUMPI DUP1 PUSH4 0xFBEA7947 EQ PUSH2 0xEED JUMPI STOP JUMPDEST DUP1 PUSH4 0xE1ED0A82 EQ PUSH2 0xDC3 JUMPI DUP1 PUSH4 0xE25D75F0 EQ PUSH2 0xDE3 JUMPI DUP1 PUSH4 0xE71E224E EQ PUSH2 0xE03 JUMPI DUP1 PUSH4 0xEDF1D1CB EQ PUSH2 0xE23 JUMPI DUP1 PUSH4 0xF1DF49DA EQ PUSH2 0xE43 JUMPI STOP JUMPDEST DUP1 PUSH4 0xD9D34BF8 GT PUSH2 0xFF JUMPI DUP1 PUSH4 0xD9D34BF8 EQ PUSH2 0xD23 JUMPI DUP1 PUSH4 0xD9DC1F19 EQ PUSH2 0xD43 JUMPI DUP1 PUSH4 0xDBF304B0 EQ PUSH2 0xD63 JUMPI DUP1 PUSH4 0xDC853DD0 EQ PUSH2 0xD83 JUMPI DUP1 PUSH4 0xDF01DE45 EQ PUSH2 0xDA3 JUMPI STOP JUMPDEST DUP1 PUSH4 0xC7EA945C EQ PUSH2 0xC8C JUMPI DUP1 PUSH4 0xD11345F8 EQ PUSH2 0xCAC JUMPI DUP1 PUSH4 0xD3386401 EQ PUSH2 0xCCE JUMPI DUP1 PUSH4 0xD3E024B8 EQ PUSH2 0xCEE JUMPI DUP1 PUSH4 0xD9ABA36E EQ PUSH2 0xD03 JUMPI STOP JUMPDEST DUP1 PUSH4 0xB4C4B58F GT PUSH2 0x1C0 JUMPI DUP1 PUSH4 0xBE409B57 GT PUSH2 0x187 JUMPI DUP1 PUSH4 0xBE409B57 EQ PUSH2 0xBEC JUMPI DUP1 PUSH4 0xC34AA021 EQ PUSH2 0xC0C JUMPI DUP1 PUSH4 0xC48E7AE6 EQ PUSH2 0xC2C JUMPI DUP1 PUSH4 0xC557020A EQ PUSH2 0xC4C JUMPI DUP1 PUSH4 0xC7AB39E6 EQ PUSH2 0xC6C JUMPI STOP JUMPDEST DUP1 PUSH4 0xB4C4B58F EQ PUSH2 0xB3E JUMPI DUP1 PUSH4 0xB58966DE EQ PUSH2 0xB5E JUMPI DUP1 PUSH4 0xB6C03F03 EQ PUSH2 0xB7E JUMPI DUP1 PUSH4 0xBE22465D EQ PUSH2 0xB9E JUMPI DUP1 PUSH4 0xBE409A11 EQ PUSH2 0xBBD JUMPI STOP JUMPDEST DUP1 PUSH4 0xA0A8E460 GT PUSH2 0x204 JUMPI DUP1 PUSH4 0xA0A8E460 EQ PUSH2 0xAAB JUMPI DUP1 PUSH4 0xA32CE13D EQ PUSH2 0xAC0 JUMPI DUP1 PUSH4 0xA92F69C1 EQ PUSH2 0xAE0 JUMPI DUP1 PUSH4 0xB2DC26E5 EQ PUSH2 0xB00 JUMPI DUP1 PUSH4 0xB4A0BDF3 EQ PUSH2 0xB20 JUMPI STOP JUMPDEST DUP1 PUSH4 0x91690955 EQ PUSH2 0x9B7 JUMPI DUP1 PUSH4 0x93BA3131 EQ PUSH2 0x9D7 JUMPI DUP1 PUSH4 0x94CFD6E3 EQ PUSH2 0x9F7 JUMPI DUP1 PUSH4 0x9E3A2CEA EQ PUSH2 0xA17 JUMPI DUP1 PUSH4 0x9EBF6246 EQ PUSH2 0xA37 JUMPI STOP JUMPDEST DUP1 PUSH4 0x4BB1BE8C GT PUSH2 0x34D JUMPI DUP1 PUSH4 0x7147855D GT PUSH2 0x2D0 JUMPI DUP1 PUSH4 0x7B443379 GT PUSH2 0x297 JUMPI DUP1 PUSH4 0x7B443379 EQ PUSH2 0x922 JUMPI DUP1 PUSH4 0x870666CB EQ PUSH2 0x942 JUMPI DUP1 PUSH4 0x8B7DBD6C EQ PUSH2 0x957 JUMPI DUP1 PUSH4 0x8E703826 EQ PUSH2 0x977 JUMPI DUP1 PUSH4 0x8F09E0F0 EQ PUSH2 0x997 JUMPI STOP JUMPDEST DUP1 PUSH4 0x7147855D EQ PUSH2 0x880 JUMPI DUP1 PUSH4 0x71D569D9 EQ PUSH2 0x8AD JUMPI DUP1 PUSH4 0x756AF45F EQ PUSH2 0x8CD JUMPI DUP1 PUSH4 0x75D0C0DC EQ PUSH2 0x8ED JUMPI DUP1 PUSH4 0x771BCF45 EQ PUSH2 0x902 JUMPI STOP JUMPDEST DUP1 PUSH4 0x58DBC45D GT PUSH2 0x314 JUMPI DUP1 PUSH4 0x58DBC45D EQ PUSH2 0x7C5 JUMPI DUP1 PUSH4 0x5BDAECCE EQ PUSH2 0x7F2 JUMPI DUP1 PUSH4 0x6B2B7DD8 EQ PUSH2 0x812 JUMPI DUP1 PUSH4 0x6B3B0159 EQ PUSH2 0x840 JUMPI DUP1 PUSH4 0x70420EE3 EQ PUSH2 0x860 JUMPI STOP JUMPDEST DUP1 PUSH4 0x4BB1BE8C EQ PUSH2 0x731 JUMPI DUP1 PUSH4 0x4DC13C8F EQ PUSH2 0x751 JUMPI DUP1 PUSH4 0x51E70BB0 EQ PUSH2 0x771 JUMPI DUP1 PUSH4 0x52D1902D EQ PUSH2 0x791 JUMPI DUP1 PUSH4 0x5479D940 EQ PUSH2 0x7A6 JUMPI STOP JUMPDEST DUP1 PUSH4 0x38D38C97 GT PUSH2 0x3D5 JUMPI DUP1 PUSH4 0x4346A04B GT PUSH2 0x39C JUMPI DUP1 PUSH4 0x4346A04B EQ PUSH2 0x691 JUMPI DUP1 PUSH4 0x44B7E5F2 EQ PUSH2 0x6B1 JUMPI DUP1 PUSH4 0x45B5203C EQ PUSH2 0x6D1 JUMPI DUP1 PUSH4 0x48E6BE1C EQ PUSH2 0x6F1 JUMPI DUP1 PUSH4 0x4944F532 EQ PUSH2 0x711 JUMPI STOP JUMPDEST DUP1 PUSH4 0x38D38C97 EQ PUSH2 0x5CA JUMPI DUP1 PUSH4 0x3C7D5B25 EQ PUSH2 0x5F2 JUMPI DUP1 PUSH4 0x3E02BC38 EQ PUSH2 0x621 JUMPI DUP1 PUSH4 0x3F4C99B8 EQ PUSH2 0x643 JUMPI DUP1 PUSH4 0x41565673 EQ PUSH2 0x671 JUMPI STOP JUMPDEST DUP1 PUSH4 0x1846D125 GT PUSH2 0x419 JUMPI DUP1 PUSH4 0x1846D125 EQ PUSH2 0x510 JUMPI DUP1 PUSH4 0x2E2ADF00 EQ PUSH2 0x530 JUMPI DUP1 PUSH4 0x2F032EDD EQ PUSH2 0x55D JUMPI DUP1 PUSH4 0x3228144D EQ PUSH2 0x57D JUMPI DUP1 PUSH4 0x37BFBFE8 EQ PUSH2 0x59D JUMPI STOP JUMPDEST DUP1 PUSH4 0x1FFC9A7 EQ PUSH2 0x45B JUMPI DUP1 PUSH4 0x31C0493 EQ PUSH2 0x490 JUMPI DUP1 PUSH4 0x76A6F22 EQ PUSH2 0x4B0 JUMPI DUP1 PUSH4 0x101DF54D EQ PUSH2 0x4D0 JUMPI DUP1 PUSH4 0x11B529B3 EQ PUSH2 0x4F0 JUMPI STOP JUMPDEST CALLDATASIZE PUSH2 0x459 JUMPI STOP JUMPDEST STOP JUMPDEST CALLVALUE DUP1 ISZERO PUSH2 0x467 JUMPI PUSH1 0x0 DUP1 REVERT JUMPDEST POP PUSH2 0x47B PUSH2 0x476 CALLDATASIZE PUSH1 0x4 PUSH2 0x4849 JUMP JUMPDEST PUSH2 0xF0D JUMP JUMPDEST PUSH1 0x40 MLOAD SWAP1 ISZERO ISZERO DUP2 MSTORE PUSH1 0x20 ADD JUMPDEST PUSH1 0x40 MLOAD DUP1 SWAP2 SUB SWAP1 RETURN JUMPDEST CALLVALUE DUP1 ISZERO PUSH2 0x49C JUMPI PUSH1 0x0 DUP1 REVERT JUMPDEST POP PUSH2 0x47B PUSH2 0x4AB CALLDATASIZE PUSH1 0x4 PUSH2 0x4866 JUMP JUMPDEST PUSH2 0xFA4 JUMP JUMPDEST CALLVALUE DUP1 ISZERO PUSH2 0x4BC JUMPI PUSH1 0x0 DUP1 REVERT JUMPDEST POP PUSH2 0x47B PUSH2 0x4CB CALLDATASIZE PUSH1 0x4 PUSH2 0x48B3 JUMP JUMPDEST PUSH2 0x107A JUMP JUMPDEST CALLVALUE DUP1 ISZERO PUSH2 0x4DC JUMPI PUSH1 0x0 DUP1 REVERT JUMPDEST POP PUSH2 0x47B PUSH2 0x4EB CALLDATASIZE PUSH1 0x4 PUSH2 0x48D0 JUMP JUMPDEST PUSH2 0x1101 JUMP JUMPDEST CALLVALUE DUP1 ISZERO PUSH2 0x4FC JUMPI PUSH1 0x0 DUP1 REVERT JUMPDEST POP PUSH2 0x47B PUSH2 0x50B CALLDATASIZE PUSH1 0x4 PUSH2 0x48E9 JUMP JUMPDEST PUSH2 0x1143 JUMP JUMPDEST CALLVALUE DUP1 ISZERO PUSH2 0x51C JUMPI PUSH1 0x0 DUP1 REVERT JUMPDEST POP PUSH2 0x47B PUSH2 0x52B CALLDATASIZE PUSH1 0x4 PUSH2 0x48D0 JUMP JUMPDEST PUSH2 0x11C3 JUMP JUMPDEST CALLVALUE DUP1 ISZERO PUSH2 0x53C JUMPI PUSH1 0x0 DUP1 REVERT JUMPDEST POP PUSH2 0x550 PUSH2 0x54B CALLDATASIZE PUSH1 0x4 PUSH2 0x48D0 JUMP JUMPDEST PUSH2 0x1205 JUMP JUMPDEST PUSH1 0x40 MLOAD PUSH2 0x487 SWAP2 SWAP1 PUSH2 0x4919 JUMP JUMPDEST CALLVALUE DUP1 ISZERO PUSH2 0x569 JUMPI PUSH1 0x0 DUP1 REVERT JUMPDEST POP PUSH2 0x47B PUSH2 0x578 CALLDATASIZE PUSH1 0x4 PUSH2 0x48D0 JUMP JUMPDEST PUSH2 0x1287 JUMP JUMPDEST CALLVALUE DUP1 ISZERO PUSH2 0x589 JUMPI PUSH1 0x0 DUP1 REVERT JUMPDEST POP PUSH2 0x47B PUSH2 0x598 CALLDATASIZE PUSH1 0x4 PUSH2 0x48D0 JUMP JUMPDEST PUSH2 0x12C9 JUMP JUMPDEST CALLVALUE DUP1 ISZERO PUSH2 0x5A9 JUMPI PUSH1 0x0 DUP1 REVERT JUMPDEST POP PUSH2 0x5BD PUSH2 0x5B8 CALLDATASIZE PUSH1 0x4 PUSH2 0x48D0 JUMP JUMPDEST PUSH2 0x130B JUMP JUMPDEST PUSH1 0x40 MLOAD PUSH2 0x487 SWAP2 SWAP1 PUSH2 0x4967 JUMP JUMPDEST CALLVALUE DUP1 ISZERO PUSH2 0x5D6 JUMPI PUSH1 0x0 DUP1 REVERT JUMPDEST POP PUSH2 0x5DF PUSH2 0x138E JUMP JUMPDEST PUSH1 0x40 MLOAD PUSH2 0xFFFF SWAP1 SWAP2 AND DUP2 MSTORE PUSH1 0x20 ADD PUSH2 0x487 JUMP JUMPDEST CALLVALUE DUP1 ISZERO PUSH2 0x5FE JUMPI PUSH1 0x0 DUP1 REVERT JUMPDEST POP PUSH2 0x612 PUSH2 0x60D CALLDATASIZE PUSH1 0x4 PUSH2 0x48D0 JUMP JUMPDEST PUSH2 0x13A2 JUMP JUMPDEST PUSH1 0x40 MLOAD PUSH2 0x487 SWAP4 SWAP3 SWAP2 SWAP1 PUSH2 0x49EF JUMP JUMPDEST CALLVALUE DUP1 ISZERO PUSH2 0x62D JUMPI PUSH1 0x0 DUP1 REVERT JUMPDEST POP PUSH2 0x636 PUSH2 0x1436 JUMP JUMPDEST PUSH1 0x40 MLOAD PUSH2 0x487 SWAP2 SWAP1 PUSH2 0x4A19 JUMP JUMPDEST CALLVALUE DUP1 ISZERO PUSH2 0x64F JUMPI PUSH1 0x0 DUP1 REVERT JUMPDEST POP PUSH2 0x663 PUSH2 0x65E CALLDATASIZE PUSH1 0x4 PUSH2 0x4AB0 JUMP JUMPDEST PUSH2 0x15C2 JUMP JUMPDEST PUSH1 0x40 MLOAD SWAP1 DUP2 MSTORE PUSH1 0x20 ADD PUSH2 0x487 JUMP JUMPDEST CALLVALUE DUP1 ISZERO PUSH2 0x67D JUMPI PUSH1 0x0 DUP1 REVERT JUMPDEST POP PUSH2 0x47B PUSH2 0x68C CALLDATASIZE PUSH1 0x4 PUSH2 0x48B3 JUMP JUMPDEST PUSH2 0x1694 JUMP JUMPDEST CALLVALUE DUP1 ISZERO PUSH2 0x69D JUMPI PUSH1 0x0 DUP1 REVERT JUMPDEST POP PUSH2 0x47B PUSH2 0x6AC CALLDATASIZE PUSH1 0x4 PUSH2 0x4866 JUMP JUMPDEST PUSH2 0x16DE JUMP JUMPDEST CALLVALUE DUP1 ISZERO PUSH2 0x6BD JUMPI PUSH1 0x0 DUP1 REVERT JUMPDEST POP PUSH2 0x47B PUSH2 0x6CC CALLDATASIZE PUSH1 0x4 PUSH2 0x4B06 JUMP JUMPDEST PUSH2 0x179F JUMP JUMPDEST CALLVALUE DUP1 ISZERO PUSH2 0x6DD JUMPI PUSH1 0x0 DUP1 REVERT JUMPDEST POP PUSH2 0x47B PUSH2 0x6EC CALLDATASIZE PUSH1 0x4 PUSH2 0x48D0 JUMP JUMPDEST PUSH2 0x1966 JUMP JUMPDEST CALLVALUE DUP1 ISZERO PUSH2 0x6FD JUMPI PUSH1 0x0 DUP1 REVERT JUMPDEST POP PUSH2 0x47B PUSH2 0x70C CALLDATASIZE PUSH1 0x4 PUSH2 0x4B06 JUMP JUMPDEST PUSH2 0x19A8 JUMP JUMPDEST CALLVALUE DUP1 ISZERO PUSH2 0x71D JUMPI PUSH1 0x0 DUP1 REVERT JUMPDEST POP PUSH2 0x47B PUSH2 0x72C CALLDATASIZE PUSH1 0x4 PUSH2 0x48D0 JUMP JUMPDEST PUSH2 0x1B7C JUMP JUMPDEST CALLVALUE DUP1 ISZERO PUSH2 0x73D JUMPI PUSH1 0x0 DUP1 REVERT JUMPDEST POP PUSH2 0x663 PUSH2 0x74C CALLDATASIZE PUSH1 0x4 PUSH2 0x4B23 JUMP JUMPDEST PUSH2 0x1BBE JUMP JUMPDEST CALLVALUE DUP1 ISZERO PUSH2 0x75D JUMPI PUSH1 0x0 DUP1 REVERT JUMPDEST POP PUSH2 0x47B PUSH2 0x76C CALLDATASIZE PUSH1 0x4 PUSH2 0x48D0 JUMP JUMPDEST PUSH2 0x1C95 JUMP JUMPDEST CALLVALUE DUP1 ISZERO PUSH2 0x77D JUMPI PUSH1 0x0 DUP1 REVERT JUMPDEST POP PUSH2 0x47B PUSH2 0x78C CALLDATASIZE PUSH1 0x4 PUSH2 0x48D0 JUMP JUMPDEST PUSH2 0x1CD7 JUMP JUMPDEST CALLVALUE DUP1 ISZERO PUSH2 0x79D JUMPI PUSH1 0x0 DUP1 REVERT JUMPDEST POP PUSH2 0x663 PUSH2 0x1D19 JUMP JUMPDEST CALLVALUE DUP1 ISZERO PUSH2 0x7B2 JUMPI PUSH1 0x0 DUP1 REVERT JUMPDEST POP PUSH1 0x3 SLOAD PUSH1 0x1 PUSH1 0xA8 SHL SWAP1 DIV PUSH1 0xFF AND PUSH2 0x47B JUMP JUMPDEST CALLVALUE DUP1 ISZERO PUSH2 0x7D1 JUMPI PUSH1 0x0 DUP1 REVERT JUMPDEST POP PUSH2 0x7DA PUSH2 0x1DA6 JUMP JUMPDEST PUSH1 0x40 MLOAD PUSH1 0x1 PUSH1 0x1 PUSH1 0xA0 SHL SUB SWAP1 SWAP2 AND DUP2 MSTORE PUSH1 0x20 ADD PUSH2 0x487 JUMP JUMPDEST CALLVALUE DUP1 ISZERO PUSH2 0x7FE JUMPI PUSH1 0x0 DUP1 REVERT JUMPDEST POP PUSH2 0x47B PUSH2 0x80D CALLDATASIZE PUSH1 0x4 PUSH2 0x48D0 JUMP JUMPDEST PUSH2 0x1DB0 JUMP JUMPDEST CALLVALUE DUP1 ISZERO PUSH2 0x81E JUMPI PUSH1 0x0 DUP1 REVERT JUMPDEST POP PUSH2 0x832 PUSH2 0x82D CALLDATASIZE PUSH1 0x4 PUSH2 0x48D0 JUMP JUMPDEST PUSH2 0x1DF2 JUMP JUMPDEST PUSH1 0x40 MLOAD PUSH2 0x487 SWAP3 SWAP2 SWAP1 PUSH2 0x4B8A JUMP JUMPDEST CALLVALUE DUP1 ISZERO PUSH2 0x84C JUMPI PUSH1 0x0 DUP1 REVERT JUMPDEST POP PUSH2 0x47B PUSH2 0x85B CALLDATASIZE PUSH1 0x4 PUSH2 0x4BAE JUMP JUMPDEST PUSH2 0x1E80 JUMP JUMPDEST CALLVALUE DUP1 ISZERO PUSH2 0x86C JUMPI PUSH1 0x0 DUP1 REVERT JUMPDEST POP PUSH2 0x47B PUSH2 0x87B CALLDATASIZE PUSH1 0x4 PUSH2 0x4BDC JUMP JUMPDEST PUSH2 0x1F1E JUMP JUMPDEST CALLVALUE DUP1 ISZERO PUSH2 0x88C JUMPI PUSH1 0x0 DUP1 REVERT JUMPDEST POP PUSH2 0x8A0 PUSH2 0x89B CALLDATASIZE PUSH1 0x4 PUSH2 0x4CEC JUMP JUMPDEST PUSH2 0x2001 JUMP JUMPDEST PUSH1 0x40 MLOAD PUSH2 0x487 SWAP2 SWAP1 PUSH2 0x4D44 JUMP JUMPDEST CALLVALUE DUP1 ISZERO PUSH2 0x8B9 JUMPI PUSH1 0x0 DUP1 REVERT JUMPDEST POP PUSH2 0x7DA PUSH2 0x8C8 CALLDATASIZE PUSH1 0x4 PUSH2 0x4DB3 JUMP JUMPDEST PUSH2 0x2132 JUMP JUMPDEST CALLVALUE DUP1 ISZERO PUSH2 0x8D9 JUMPI PUSH1 0x0 DUP1 REVERT JUMPDEST POP PUSH2 0x459 PUSH2 0x8E8 CALLDATASIZE PUSH1 0x4 PUSH2 0x48B3 JUMP JUMPDEST PUSH2 0x2225 JUMP JUMPDEST CALLVALUE DUP1 ISZERO PUSH2 0x8F9 JUMPI PUSH1 0x0 DUP1 REVERT JUMPDEST POP PUSH1 0x0 SLOAD PUSH2 0x663 JUMP JUMPDEST CALLVALUE DUP1 ISZERO PUSH2 0x90E JUMPI PUSH1 0x0 DUP1 REVERT JUMPDEST POP PUSH2 0x47B PUSH2 0x91D CALLDATASIZE PUSH1 0x4 PUSH2 0x4866 JUMP JUMPDEST PUSH2 0x22E4 JUMP JUMPDEST CALLVALUE DUP1 ISZERO PUSH2 0x92E JUMPI PUSH1 0x0 DUP1 REVERT JUMPDEST POP PUSH2 0x663 PUSH2 0x93D CALLDATASIZE PUSH1 0x4 PUSH2 0x4E2A JUMP JUMPDEST PUSH2 0x23A5 JUMP JUMPDEST CALLVALUE DUP1 ISZERO PUSH2 0x94E JUMPI PUSH1 0x0 DUP1 REVERT JUMPDEST POP PUSH2 0x663 PUSH2 0x24C8 JUMP JUMPDEST CALLVALUE DUP1 ISZERO PUSH2 0x963 JUMPI PUSH1 0x0 DUP1 REVERT JUMPDEST POP PUSH2 0x47B PUSH2 0x972 CALLDATASIZE PUSH1 0x4 PUSH2 0x4BDC JUMP JUMPDEST PUSH2 0x24D3 JUMP JUMPDEST CALLVALUE DUP1 ISZERO PUSH2 0x983 JUMPI PUSH1 0x0 DUP1 REVERT JUMPDEST POP PUSH2 0x47B PUSH2 0x992 CALLDATASIZE PUSH1 0x4 PUSH2 0x48D0 JUMP JUMPDEST PUSH2 0x2561 JUMP JUMPDEST CALLVALUE DUP1 ISZERO PUSH2 0x9A3 JUMPI PUSH1 0x0 DUP1 REVERT JUMPDEST POP PUSH2 0x47B PUSH2 0x9B2 CALLDATASIZE PUSH1 0x4 PUSH2 0x4EA2 JUMP JUMPDEST PUSH2 0x25A3 JUMP JUMPDEST CALLVALUE DUP1 ISZERO PUSH2 0x9C3 JUMPI PUSH1 0x0 DUP1 REVERT JUMPDEST POP PUSH2 0x47B PUSH2 0x9D2 CALLDATASIZE PUSH1 0x4 PUSH2 0x48D0 JUMP JUMPDEST PUSH2 0x262C JUMP JUMPDEST CALLVALUE DUP1 ISZERO PUSH2 0x9E3 JUMPI PUSH1 0x0 DUP1 REVERT JUMPDEST POP PUSH2 0x47B PUSH2 0x9F2 CALLDATASIZE PUSH1 0x4 PUSH2 0x4EC7 JUMP JUMPDEST PUSH2 0x266E JUMP JUMPDEST CALLVALUE DUP1 ISZERO PUSH2 0xA03 JUMPI PUSH1 0x0 DUP1 REVERT JUMPDEST POP PUSH2 0x47B PUSH2 0xA12 CALLDATASIZE PUSH1 0x4 PUSH2 0x48D0 JUMP JUMPDEST PUSH2 0x2754 JUMP JUMPDEST CALLVALUE DUP1 ISZERO PUSH2 0xA23 JUMPI PUSH1 0x0 DUP1 REVERT JUMPDEST POP PUSH2 0x5BD PUSH2 0xA32 CALLDATASIZE PUSH1 0x4 PUSH2 0x4F3B JUMP JUMPDEST PUSH2 0x2796 JUMP JUMPDEST CALLVALUE DUP1 ISZERO PUSH2 0xA43 JUMPI PUSH1 0x0 DUP1 REVERT JUMPDEST POP PUSH2 0xA57 PUSH2 0xA52 CALLDATASIZE PUSH1 0x4 PUSH2 0x48D0 JUMP JUMPDEST PUSH2 0x2947 JUMP JUMPDEST PUSH1 0x40 MLOAD PUSH2 0x487 SWAP2 SWAP1 DUP2 MLOAD DUP2 MSTORE PUSH1 0x20 DUP1 DUP4 ADD MLOAD SWAP1 DUP3 ADD MSTORE PUSH1 0x40 DUP1 DUP4 ADD MLOAD SWAP1 DUP3 ADD MSTORE PUSH1 0x60 DUP1 DUP4 ADD MLOAD PUSH1 0x1 PUSH1 0x1 PUSH1 0xA0 SHL SUB AND SWAP1 DUP3 ADD MSTORE PUSH1 0x80 DUP1 DUP4 ADD MLOAD ISZERO ISZERO SWAP1 DUP3 ADD MSTORE PUSH1 0xA0 SWAP2 DUP3 ADD MLOAD ISZERO ISZERO SWAP2 DUP2 ADD SWAP2 SWAP1 SWAP2 MSTORE PUSH1 0xC0 ADD SWAP1 JUMP JUMPDEST CALLVALUE DUP1 ISZERO PUSH2 0xAB7 JUMPI PUSH1 0x0 DUP1 REVERT JUMPDEST POP PUSH1 0x1 SLOAD PUSH2 0x663 JUMP JUMPDEST CALLVALUE DUP1 ISZERO PUSH2 0xACC JUMPI PUSH1 0x0 DUP1 REVERT JUMPDEST POP PUSH2 0x47B PUSH2 0xADB CALLDATASIZE PUSH1 0x4 PUSH2 0x48D0 JUMP JUMPDEST PUSH2 0x29F0 JUMP JUMPDEST CALLVALUE DUP1 ISZERO PUSH2 0xAEC JUMPI PUSH1 0x0 DUP1 REVERT JUMPDEST POP PUSH2 0x47B PUSH2 0xAFB CALLDATASIZE PUSH1 0x4 PUSH2 0x48B3 JUMP JUMPDEST PUSH2 0x2A32 JUMP JUMPDEST CALLVALUE DUP1 ISZERO PUSH2 0xB0C JUMPI PUSH1 0x0 DUP1 REVERT JUMPDEST POP PUSH2 0x663 PUSH2 0xB1B CALLDATASIZE PUSH1 0x4 PUSH2 0x4F7C JUMP JUMPDEST PUSH2 0x2A7C JUMP JUMPDEST CALLVALUE DUP1 ISZERO PUSH2 0xB2C JUMPI PUSH1 0x0 DUP1 REVERT JUMPDEST POP PUSH1 0x3 SLOAD PUSH1 0x1 PUSH1 0x1 PUSH1 0xA0 SHL SUB AND PUSH2 0x7DA JUMP JUMPDEST CALLVALUE DUP1 ISZERO PUSH2 0xB4A JUMPI PUSH1 0x0 DUP1 REVERT JUMPDEST POP PUSH2 0x47B PUSH2 0xB59 CALLDATASIZE PUSH1 0x4 PUSH2 0x48E9 JUMP JUMPDEST PUSH2 0x2B78 JUMP JUMPDEST CALLVALUE DUP1 ISZERO PUSH2 0xB6A JUMPI PUSH1 0x0 DUP1 REVERT JUMPDEST POP PUSH2 0x47B PUSH2 0xB79 CALLDATASIZE PUSH1 0x4 PUSH2 0x48E9 JUMP JUMPDEST PUSH2 0x2BB7 JUMP JUMPDEST CALLVALUE DUP1 ISZERO PUSH2 0xB8A JUMPI PUSH1 0x0 DUP1 REVERT JUMPDEST POP PUSH2 0x47B PUSH2 0xB99 CALLDATASIZE PUSH1 0x4 PUSH2 0x4BDC JUMP JUMPDEST PUSH2 0x2C87 JUMP JUMPDEST CALLVALUE DUP1 ISZERO PUSH2 0xBAA JUMPI PUSH1 0x0 DUP1 REVERT JUMPDEST POP PUSH1 0x3 SLOAD PUSH1 0x1 PUSH1 0xA0 SHL SWAP1 DIV PUSH1 0xFF AND PUSH2 0x47B JUMP JUMPDEST CALLVALUE DUP1 ISZERO PUSH2 0xBC9 JUMPI PUSH1 0x0 DUP1 REVERT JUMPDEST POP PUSH2 0xBDD PUSH2 0xBD8 CALLDATASIZE PUSH1 0x4 PUSH2 0x48D0 JUMP JUMPDEST PUSH2 0x2D17 JUMP JUMPDEST PUSH1 0x40 MLOAD PUSH2 0x487 SWAP4 SWAP3 SWAP2 SWAP1 PUSH2 0x4FCF JUMP JUMPDEST CALLVALUE DUP1 ISZERO PUSH2 0xBF8 JUMPI PUSH1 0x0 DUP1 REVERT JUMPDEST POP PUSH2 0x47B PUSH2 0xC07 CALLDATASIZE PUSH1 0x4 PUSH2 0x48B3 JUMP JUMPDEST PUSH2 0x2D9E JUMP JUMPDEST CALLVALUE DUP1 ISZERO PUSH2 0xC18 JUMPI PUSH1 0x0 DUP1 REVERT JUMPDEST POP PUSH2 0x47B PUSH2 0xC27 CALLDATASIZE PUSH1 0x4 PUSH2 0x48B3 JUMP JUMPDEST PUSH2 0x2DE8 JUMP JUMPDEST CALLVALUE DUP1 ISZERO PUSH2 0xC38 JUMPI PUSH1 0x0 DUP1 REVERT JUMPDEST POP PUSH2 0x47B PUSH2 0xC47 CALLDATASIZE PUSH1 0x4 PUSH2 0x48D0 JUMP JUMPDEST PUSH2 0x2E32 JUMP JUMPDEST CALLVALUE DUP1 ISZERO PUSH2 0xC58 JUMPI PUSH1 0x0 DUP1 REVERT JUMPDEST POP PUSH2 0x47B PUSH2 0xC67 CALLDATASIZE PUSH1 0x4 PUSH2 0x4EC7 JUMP JUMPDEST PUSH2 0x2E74 JUMP JUMPDEST CALLVALUE DUP1 ISZERO PUSH2 0xC78 JUMPI PUSH1 0x0 DUP1 REVERT JUMPDEST POP PUSH2 0x47B PUSH2 0xC87 CALLDATASIZE PUSH1 0x4 PUSH2 0x4FF9 JUMP JUMPDEST PUSH2 0x2F5A JUMP JUMPDEST CALLVALUE DUP1 ISZERO PUSH2 0xC98 JUMPI PUSH1 0x0 DUP1 REVERT JUMPDEST POP PUSH2 0x47B PUSH2 0xCA7 CALLDATASIZE PUSH1 0x4 PUSH2 0x4EA2 JUMP JUMPDEST PUSH2 0x2FBC JUMP JUMPDEST CALLVALUE DUP1 ISZERO PUSH2 0xCB8 JUMPI PUSH1 0x0 DUP1 REVERT JUMPDEST POP PUSH1 0x49 SLOAD PUSH1 0x40 MLOAD PUSH1 0xFF SWAP1 SWAP2 AND DUP2 MSTORE PUSH1 0x20 ADD PUSH2 0x487 JUMP JUMPDEST CALLVALUE DUP1 ISZERO PUSH2 0xCDA JUMPI PUSH1 0x0 DUP1 REVERT JUMPDEST POP PUSH2 0x47B PUSH2 0xCE9 CALLDATASIZE PUSH1 0x4 PUSH2 0x5030 JUMP JUMPDEST PUSH2 0x300E JUMP JUMPDEST CALLVALUE DUP1 ISZERO PUSH2 0xCFA JUMPI PUSH1 0x0 DUP1 REVERT JUMPDEST POP PUSH1 0x2 SLOAD PUSH2 0x663 JUMP JUMPDEST CALLVALUE DUP1 ISZERO PUSH2 0xD0F JUMPI PUSH1 0x0 DUP1 REVERT JUMPDEST POP PUSH2 0x47B PUSH2 0xD1E CALLDATASIZE PUSH1 0x4 PUSH2 0x5030 JUMP JUMPDEST PUSH2 0x30DD JUMP JUMPDEST CALLVALUE DUP1 ISZERO PUSH2 0xD2F JUMPI PUSH1 0x0 DUP1 REVERT JUMPDEST POP PUSH2 0x47B PUSH2 0xD3E CALLDATASIZE PUSH1 0x4 PUSH2 0x48B3 JUMP JUMPDEST PUSH2 0x3126 JUMP JUMPDEST CALLVALUE DUP1 ISZERO PUSH2 0xD4F JUMPI PUSH1 0x0 DUP1 REVERT JUMPDEST POP PUSH2 0x47B PUSH2 0xD5E CALLDATASIZE PUSH1 0x4 PUSH2 0x48B3 JUMP JUMPDEST PUSH2 0x3170 JUMP JUMPDEST CALLVALUE DUP1 ISZERO PUSH2 0xD6F JUMPI PUSH1 0x0 DUP1 REVERT JUMPDEST POP PUSH2 0x47B PUSH2 0xD7E CALLDATASIZE PUSH1 0x4 PUSH2 0x5030 JUMP JUMPDEST PUSH2 0x32F1 JUMP JUMPDEST CALLVALUE DUP1 ISZERO PUSH2 0xD8F JUMPI PUSH1 0x0 DUP1 REVERT JUMPDEST POP PUSH2 0x47B PUSH2 0xD9E CALLDATASIZE PUSH1 0x4 PUSH2 0x48D0 JUMP JUMPDEST PUSH2 0x33C0 JUMP JUMPDEST CALLVALUE DUP1 ISZERO PUSH2 0xDAF JUMPI PUSH1 0x0 DUP1 REVERT JUMPDEST POP PUSH2 0x47B PUSH2 0xDBE CALLDATASIZE PUSH1 0x4 PUSH2 0x4EA2 JUMP JUMPDEST PUSH2 0x3402 JUMP JUMPDEST CALLVALUE DUP1 ISZERO PUSH2 0xDCF JUMPI PUSH1 0x0 DUP1 REVERT JUMPDEST POP PUSH2 0x636 PUSH2 0xDDE CALLDATASIZE PUSH1 0x4 PUSH2 0x48D0 JUMP JUMPDEST PUSH2 0x348B JUMP JUMPDEST CALLVALUE DUP1 ISZERO PUSH2 0xDEF JUMPI PUSH1 0x0 DUP1 REVERT JUMPDEST POP PUSH2 0x47B PUSH2 0xDFE CALLDATASIZE PUSH1 0x4 PUSH2 0x48D0 JUMP JUMPDEST PUSH2 0x350D JUMP JUMPDEST CALLVALUE DUP1 ISZERO PUSH2 0xE0F JUMPI PUSH1 0x0 DUP1 REVERT JUMPDEST POP PUSH2 0x47B PUSH2 0xE1E CALLDATASIZE PUSH1 0x4 PUSH2 0x4BDC JUMP JUMPDEST PUSH2 0x354F JUMP JUMPDEST CALLVALUE DUP1 ISZERO PUSH2 0xE2F JUMPI PUSH1 0x0 DUP1 REVERT JUMPDEST POP PUSH2 0x5BD PUSH2 0xE3E CALLDATASIZE PUSH1 0x4 PUSH2 0x48D0 JUMP JUMPDEST PUSH2 0x3622 JUMP JUMPDEST CALLVALUE DUP1 ISZERO PUSH2 0xE4F JUMPI PUSH1 0x0 DUP1 REVERT JUMPDEST POP PUSH2 0x663 PUSH2 0xE5E CALLDATASIZE PUSH1 0x4 PUSH2 0x4DB3 JUMP JUMPDEST PUSH2 0x3664 JUMP JUMPDEST CALLVALUE DUP1 ISZERO PUSH2 0xE6F JUMPI PUSH1 0x0 DUP1 REVERT JUMPDEST POP PUSH2 0x47B PUSH2 0xE7E CALLDATASIZE PUSH1 0x4 PUSH2 0x4BDC JUMP JUMPDEST PUSH2 0x3754 JUMP JUMPDEST CALLVALUE DUP1 ISZERO PUSH2 0xE8F JUMPI PUSH1 0x0 DUP1 REVERT JUMPDEST POP PUSH2 0x47B PUSH2 0xE9E CALLDATASIZE PUSH1 0x4 PUSH2 0x5063 JUMP JUMPDEST PUSH2 0x37E4 JUMP JUMPDEST CALLVALUE DUP1 ISZERO PUSH2 0xEAF JUMPI PUSH1 0x0 DUP1 REVERT JUMPDEST POP PUSH2 0x47B PUSH2 0xEBE CALLDATASIZE PUSH1 0x4 PUSH2 0x5030 JUMP JUMPDEST PUSH2 0x3860 JUMP JUMPDEST CALLVALUE DUP1 ISZERO PUSH2 0xECF JUMPI PUSH1 0x0 DUP1 REVERT JUMPDEST POP PUSH2 0x663 PUSH2 0x38A9 JUMP JUMPDEST CALLVALUE DUP1 ISZERO PUSH2 0xEE4 JUMPI PUSH1 0x0 DUP1 REVERT JUMPDEST POP PUSH2 0x7DA PUSH2 0x3915 JUMP JUMPDEST CALLVALUE DUP1 ISZERO PUSH2 0xEF9 JUMPI PUSH1 0x0 DUP1 REVERT JUMPDEST POP PUSH2 0x459 PUSH2 0xF08 CALLDATASIZE PUSH1 0x4 PUSH2 0x507E JUMP JUMPDEST PUSH2 0x391F JUMP JUMPDEST PUSH1 0x0 PUSH1 0x1 PUSH1 0x1 PUSH1 0xE0 SHL SUB NOT DUP3 AND PUSH4 0x14B83435 PUSH1 0xE3 SHL EQ DUP1 PUSH2 0xF3E JUMPI POP PUSH1 0x1 PUSH1 0x1 PUSH1 0xE0 SHL SUB NOT DUP3 AND PUSH4 0x4570253 PUSH1 0xE3 SHL EQ JUMPDEST DUP1 PUSH2 0xF59 JUMPI POP PUSH1 0x1 PUSH1 0x1 PUSH1 0xE0 SHL SUB NOT DUP3 AND PUSH4 0x8EA925B PUSH1 0xE4 SHL EQ JUMPDEST DUP1 PUSH2 0xF74 JUMPI POP PUSH1 0x1 PUSH1 0x1 PUSH1 0xE0 SHL SUB NOT DUP3 AND PUSH4 0x7D22131D PUSH1 0xE1 SHL EQ JUMPDEST DUP1 PUSH2 0xF8F JUMPI POP PUSH1 0x1 PUSH1 0x1 PUSH1 0xE0 SHL SUB NOT DUP3 AND PUSH4 0x70319BFF PUSH1 0xE1 SHL EQ JUMPDEST DUP1 PUSH2 0xF9E JUMPI POP PUSH2 0xF9E DUP3 PUSH2 0x3CF4 JUMP JUMPDEST SWAP3 SWAP2 POP POP JUMP JUMPDEST PUSH1 0x0 DUP1 PUSH20 0x0 PUSH4 0xA234DAE3 PUSH1 0x44 DUP8 DUP8 DUP8 PUSH1 0x40 MLOAD DUP6 PUSH4 0xFFFFFFFF AND PUSH1 0xE0 SHL DUP2 MSTORE PUSH1 0x4 ADD PUSH2 0xFE5 SWAP5 SWAP4 SWAP3 SWAP2 SWAP1 PUSH2 0x5139 JUMP JUMPDEST PUSH1 0x20 PUSH1 0x40 MLOAD DUP1 DUP4 SUB DUP2 DUP7 GAS DELEGATECALL ISZERO DUP1 ISZERO PUSH2 0x1002 JUMPI RETURNDATASIZE PUSH1 0x0 DUP1 RETURNDATACOPY RETURNDATASIZE PUSH1 0x0 REVERT JUMPDEST POP POP POP POP PUSH1 0x40 MLOAD RETURNDATASIZE PUSH1 0x1F NOT PUSH1 0x1F DUP3 ADD AND DUP3 ADD DUP1 PUSH1 0x40 MSTORE POP DUP2 ADD SWAP1 PUSH2 0x1026 SWAP2 SWAP1 PUSH2 0x515E JUMP JUMPDEST SWAP1 POP CALLER PUSH1 0x1 PUSH1 0x1 PUSH1 0xA0 SHL SUB AND DUP4 DUP7 PUSH32 0xCE5E1F2BA33F195F748A93B00EE62600B55E27CC50531A72E5443713BAC23E12 DUP8 DUP6 PUSH1 0x40 MLOAD PUSH2 0x1065 SWAP3 SWAP2 SWAP1 PUSH2 0x5177 JUMP JUMPDEST PUSH1 0x40 MLOAD DUP1 SWAP2 SUB SWAP1 LOG4 PUSH1 0x1 SWAP2 POP POP JUMPDEST SWAP4 SWAP3 POP POP POP JUMP JUMPDEST PUSH1 0x40 MLOAD PUSH4 0xB717513 PUSH1 0xE3 SHL DUP2 MSTORE PUSH1 0x44 PUSH1 0x4 DUP3 ADD DUP2 SWAP1 MSTORE PUSH1 0x1 PUSH1 0x1 PUSH1 0xA0 SHL SUB DUP4 AND PUSH1 0x24 DUP4 ADD MSTORE PUSH1 0x0 SWAP2 PUSH20 0x0 SWAP2 PUSH4 0x5B8BA898 SWAP2 ADD JUMPDEST PUSH1 0x20 PUSH1 0x40 MLOAD DUP1 DUP4 SUB DUP2 DUP7 GAS DELEGATECALL ISZERO DUP1 ISZERO PUSH2 0x10DD JUMPI RETURNDATASIZE PUSH1 0x0 DUP1 RETURNDATACOPY RETURNDATASIZE PUSH1 0x0 REVERT JUMPDEST POP POP POP POP PUSH1 0x40 MLOAD RETURNDATASIZE PUSH1 0x1F NOT PUSH1 0x1F DUP3 ADD AND DUP3 ADD DUP1 PUSH1 0x40 MSTORE POP DUP2 ADD SWAP1 PUSH2 0xF9E SWAP2 SWAP1 PUSH2 0x5191 JUMP JUMPDEST PUSH1 0x40 MLOAD PUSH4 0x16B714AD PUSH1 0xE0 SHL DUP2 MSTORE PUSH1 0x44 PUSH1 0x4 DUP3 ADD DUP2 SWAP1 MSTORE PUSH1 0x24 DUP3 ADD DUP4 SWAP1 MSTORE PUSH1 0x0 SWAP2 PUSH20 0x0 SWAP2 PUSH4 0x16B714AD SWAP2 ADD PUSH2 0x10C0 JUMP JUMPDEST PUSH1 0x40 MLOAD PUSH4 0x74CDA89D PUSH1 0xE1 SHL DUP2 MSTORE PUSH1 0x0 SWAP1 PUSH20 0x0 SWAP1 PUSH4 0xE99B513A SWAP1 PUSH2 0x1182 SWAP1 PUSH1 0x44 SWAP1 DUP8 SWAP1 DUP8 SWAP1 PUSH1 0x4 ADD PUSH2 0x51AE JUMP JUMPDEST PUSH1 0x20 PUSH1 0x40 MLOAD DUP1 DUP4 SUB DUP2 DUP7 GAS DELEGATECALL ISZERO DUP1 ISZERO PUSH2 0x119F JUMPI RETURNDATASIZE PUSH1 0x0 DUP1 RETURNDATACOPY RETURNDATASIZE PUSH1 0x0 REVERT JUMPDEST POP POP POP POP PUSH1 0x40 MLOAD RETURNDATASIZE PUSH1 0x1F NOT PUSH1 0x1F DUP3 ADD AND DUP3 ADD DUP1 PUSH1 0x40 MSTORE POP DUP2 ADD SWAP1 PUSH2 0x1073 SWAP2 SWAP1 PUSH2 0x5191 JUMP JUMPDEST PUSH1 0x40 MLOAD PUSH4 0x198D864D PUSH1 0xE3 SHL DUP2 MSTORE PUSH1 0x44 PUSH1 0x4 DUP3 ADD DUP2 SWAP1 MSTORE PUSH1 0x24 DUP3 ADD DUP4 SWAP1 MSTORE PUSH1 0x0 SWAP2 PUSH20 0x0 SWAP2 PUSH4 0xCC6C3268 SWAP2 ADD PUSH2 0x10C0 JUMP JUMPDEST PUSH1 0x40 MLOAD PUSH4 0x33669F83 PUSH1 0xE1 SHL DUP2 MSTORE PUSH1 0x44 PUSH1 0x4 DUP3 ADD DUP2 SWAP1 MSTORE PUSH1 0x24 DUP3 ADD DUP4 SWAP1 MSTORE PUSH1 0x60 SWAP2 PUSH20 0x0 SWAP2 PUSH4 0x66CD3F06 SWAP2 ADD PUSH1 0x0 PUSH1 0x40 MLOAD DUP1 DUP4 SUB DUP2 DUP7 GAS DELEGATECALL ISZERO DUP1 ISZERO PUSH2 0x125F JUMPI RETURNDATASIZE PUSH1 0x0 DUP1 RETURNDATACOPY RETURNDATASIZE PUSH1 0x0 REVERT JUMPDEST POP POP POP POP PUSH1 0x40 MLOAD RETURNDATASIZE PUSH1 0x0 DUP3 RETURNDATACOPY PUSH1 0x1F RETURNDATASIZE SWAP1 DUP2 ADD PUSH1 0x1F NOT AND DUP3 ADD PUSH1 0x40 MSTORE PUSH2 0xF9E SWAP2 SWAP1 DUP2 ADD SWAP1 PUSH2 0x5260 JUMP JUMPDEST PUSH1 0x40 MLOAD PUSH4 0xCB4A1BB7 PUSH1 0xE0 SHL DUP2 MSTORE PUSH1 0x44 PUSH1 0x4 DUP3 ADD DUP2 SWAP1 MSTORE PUSH1 0x24 DUP3 ADD DUP4 SWAP1 MSTORE PUSH1 0x0 SWAP2 PUSH20 0x0 SWAP2 PUSH4 0xCB4A1BB7 SWAP2 ADD PUSH2 0x10C0 JUMP JUMPDEST PUSH1 0x40 MLOAD PUSH4 0x5A96334B PUSH1 0xE0 SHL DUP2 MSTORE PUSH1 0x44 PUSH1 0x4 DUP3 ADD DUP2 SWAP1 MSTORE PUSH1 0x24 DUP3 ADD DUP4 SWAP1 MSTORE PUSH1 0x0 SWAP2 PUSH20 0x0 SWAP2 PUSH4 0x5A96334B SWAP2 ADD PUSH2 0x10C0 JUMP JUMPDEST PUSH1 0x40 MLOAD PUSH4 0x5ED86FC9 PUSH1 0xE0 SHL DUP2 MSTORE PUSH1 0x44 PUSH1 0x4 DUP3 ADD DUP2 SWAP1 MSTORE PUSH1 0x24 DUP3 ADD DUP4 SWAP1 MSTORE PUSH1 0x60 SWAP2 PUSH20 0x0 SWAP2 PUSH4 0x5ED86FC9 SWAP2 ADD JUMPDEST PUSH1 0x0 PUSH1 0x40 MLOAD DUP1 DUP4 SUB DUP2 DUP7 GAS DELEGATECALL ISZERO DUP1 ISZERO PUSH2 0x1366 JUMPI RETURNDATASIZE PUSH1 0x0 DUP1 RETURNDATACOPY RETURNDATASIZE PUSH1 0x0 REVERT JUMPDEST POP POP POP POP PUSH1 0x40 MLOAD RETURNDATASIZE PUSH1 0x0 DUP3 RETURNDATACOPY PUSH1 0x1F RETURNDATASIZE SWAP1 DUP2 ADD PUSH1 0x1F NOT AND DUP3 ADD PUSH1 0x40 MSTORE PUSH2 0xF9E SWAP2 SWAP1 DUP2 ADD SWAP1 PUSH2 0x5294 JUMP JUMPDEST PUSH1 0x0 PUSH2 0x139D PUSH1 0x4A SLOAD PUSH2 0xFFFF AND SWAP1 JUMP JUMPDEST SWAP1 POP SWAP1 JUMP JUMPDEST PUSH1 0x40 MLOAD PUSH4 0x2946A59 PUSH1 0xE6 SHL DUP2 MSTORE PUSH1 0x44 PUSH1 0x4 DUP3 ADD DUP2 SWAP1 MSTORE PUSH1 0x24 DUP3 ADD DUP4 SWAP1 MSTORE PUSH1 0x60 SWAP2 PUSH1 0x0 SWAP2 DUP3 SWAP2 PUSH20 0x0 SWAP2 PUSH4 0xA51A9640 SWAP2 ADD PUSH1 0x0 PUSH1 0x40 MLOAD DUP1 DUP4 SUB DUP2 DUP7 GAS DELEGATECALL ISZERO DUP1 ISZERO PUSH2 0x1401 JUMPI RETURNDATASIZE PUSH1 0x0 DUP1 RETURNDATACOPY RETURNDATASIZE PUSH1 0x0 REVERT JUMPDEST POP POP POP POP PUSH1 0x40 MLOAD RETURNDATASIZE PUSH1 0x0 DUP3 RETURNDATACOPY PUSH1 0x1F RETURNDATASIZE SWAP1 DUP2 ADD PUSH1 0x1F NOT AND DUP3 ADD PUSH1 0x40 MSTORE PUSH2 0x1429 SWAP2 SWAP1 DUP2 ADD SWAP1 PUSH2 0x5369 JUMP JUMPDEST SWAP3 POP SWAP3 POP SWAP3 POP SWAP2 SWAP4 SWAP1 SWAP3 POP JUMP JUMPDEST PUSH1 0x40 DUP1 MLOAD PUSH1 0x5 DUP1 DUP3 MSTORE PUSH1 0xC0 DUP3 ADD SWAP1 SWAP3 MSTORE PUSH1 0x60 SWAP2 PUSH1 0x0 SWAP2 SWAP1 PUSH1 0x20 DUP3 ADD PUSH1 0xA0 DUP1 CALLDATASIZE DUP4 CALLDATACOPY ADD SWAP1 POP POP SWAP1 POP PUSH20 0x0 DUP2 PUSH1 0x0 DUP2 MLOAD DUP2 LT PUSH2 0x1485 JUMPI PUSH2 0x1485 PUSH2 0x53C2 JUMP JUMPDEST PUSH1 0x20 MUL PUSH1 0x20 ADD ADD SWAP1 PUSH1 0x1 PUSH1 0x1 PUSH1 0xA0 SHL SUB AND SWAP1 DUP2 PUSH1 0x1 PUSH1 0x1 PUSH1 0xA0 SHL SUB AND DUP2 MSTORE POP POP PUSH20 0x0 DUP2 PUSH1 0x1 DUP2 MLOAD DUP2 LT PUSH2 0x14CD JUMPI PUSH2 0x14CD PUSH2 0x53C2 JUMP JUMPDEST PUSH1 0x20 MUL PUSH1 0x20 ADD ADD SWAP1 PUSH1 0x1 PUSH1 0x1 PUSH1 0xA0 SHL SUB AND SWAP1 DUP2 PUSH1 0x1 PUSH1 0x1 PUSH1 0xA0 SHL SUB AND DUP2 MSTORE POP POP PUSH20 0x0 DUP2 PUSH1 0x2 DUP2 MLOAD DUP2 LT PUSH2 0x1515 JUMPI PUSH2 0x1515 PUSH2 0x53C2 JUMP JUMPDEST PUSH1 0x20 MUL PUSH1 0x20 ADD ADD SWAP1 PUSH1 0x1 PUSH1 0x1 PUSH1 0xA0 SHL SUB AND SWAP1 DUP2 PUSH1 0x1 PUSH1 0x1 PUSH1 0xA0 SHL SUB AND DUP2 MSTORE POP POP PUSH20 0x0 DUP2 PUSH1 0x3 DUP2 MLOAD DUP2 LT PUSH2 0x155D JUMPI PUSH2 0x155D PUSH2 0x53C2 JUMP JUMPDEST PUSH1 0x20 MUL PUSH1 0x20 ADD ADD SWAP1 PUSH1 0x1 PUSH1 0x1 PUSH1 0xA0 SHL SUB AND SWAP1 DUP2 PUSH1 0x1 PUSH1 0x1 PUSH1 0xA0 SHL SUB AND DUP2 MSTORE POP POP PUSH20 0x0 DUP2 PUSH1 0x4 DUP2 MLOAD DUP2 LT PUSH2 0x15A5 JUMPI PUSH2 0x15A5 PUSH2 0x53C2 JUMP JUMPDEST PUSH1 0x1 PUSH1 0x1 PUSH1 0xA0 SHL SUB SWAP1 SWAP3 AND PUSH1 0x20 SWAP3 DUP4 MUL SWAP2 SWAP1 SWAP2 ADD SWAP1 SWAP2 ADD MSTORE SWAP2 SWAP1 POP JUMP JUMPDEST PUSH1 0x0 DUP1 PUSH20 0x0 PUSH4 0xC3DB069F PUSH1 0x44 DUP8 DUP8 DUP8 PUSH1 0x40 MLOAD DUP6 PUSH4 0xFFFFFFFF AND PUSH1 0xE0 SHL DUP2 MSTORE PUSH1 0x4 ADD PUSH2 0x1603 SWAP5 SWAP4 SWAP3 SWAP2 SWAP1 PUSH2 0x5401 JUMP JUMPDEST PUSH1 0x20 PUSH1 0x40 MLOAD DUP1 DUP4 SUB DUP2 DUP7 GAS DELEGATECALL ISZERO DUP1 ISZERO PUSH2 0x1620 JUMPI RETURNDATASIZE PUSH1 0x0 DUP1 RETURNDATACOPY RETURNDATASIZE PUSH1 0x0 REVERT JUMPDEST POP POP POP POP PUSH1 0x40 MLOAD RETURNDATASIZE PUSH1 0x1F NOT PUSH1 0x1F DUP3 ADD AND DUP3 ADD DUP1 PUSH1 0x40 MSTORE POP DUP2 ADD SWAP1 PUSH2 0x1644 SWAP2 SWAP1 PUSH2 0x515E JUMP JUMPDEST SWAP1 POP CALLER PUSH1 0x1 PUSH1 0x1 PUSH1 0xA0 SHL SUB AND DUP2 PUSH32 0xDE3BD866160A7F983F3C5F990127712936D37378D60B93BA96AB3A66A04FEB18 DUP8 DUP8 DUP8 PUSH1 0x40 MLOAD PUSH2 0x1684 SWAP4 SWAP3 SWAP2 SWAP1 PUSH2 0x542E JUMP JUMPDEST PUSH1 0x40 MLOAD DUP1 SWAP2 SUB SWAP1 LOG3 SWAP5 SWAP4 POP POP POP POP JUMP JUMPDEST PUSH1 0x40 MLOAD PUSH4 0x66F9A31 PUSH1 0xE3 SHL DUP2 MSTORE PUSH1 0x44 PUSH1 0x4 DUP3 ADD DUP2 SWAP1 MSTORE PUSH1 0x1 PUSH1 0x1 PUSH1 0xA0 SHL SUB DUP4 AND PUSH1 0x24 DUP4 ADD MSTORE PUSH1 0x0 SWAP2 PUSH20 0x0 SWAP2 PUSH4 0x337CD188 SWAP2 ADD PUSH2 0x10C0 JUMP JUMPDEST PUSH1 0x0 DUP1 PUSH20 0x0 PUSH4 0xEF20D55D PUSH1 0x44 DUP8 DUP8 DUP8 PUSH1 0x40 MLOAD DUP6 PUSH4 0xFFFFFFFF AND PUSH1 0xE0 SHL DUP2 MSTORE PUSH1 0x4 ADD PUSH2 0x171F SWAP5 SWAP4 SWAP3 SWAP2 SWAP1 PUSH2 0x5139 JUMP JUMPDEST PUSH1 0x20 PUSH1 0x40 MLOAD DUP1 DUP4 SUB DUP2 DUP7 GAS DELEGATECALL ISZERO DUP1 ISZERO PUSH2 0x173C JUMPI RETURNDATASIZE PUSH1 0x0 DUP1 RETURNDATACOPY RETURNDATASIZE PUSH1 0x0 REVERT JUMPDEST POP POP POP POP PUSH1 0x40 MLOAD RETURNDATASIZE PUSH1 0x1F NOT PUSH1 0x1F DUP3 ADD AND DUP3 ADD DUP1 PUSH1 0x40 MSTORE POP DUP2 ADD SWAP1 PUSH2 0x1760 SWAP2 SWAP1 PUSH2 0x515E JUMP JUMPDEST SWAP1 POP CALLER PUSH1 0x1 PUSH1 0x1 PUSH1 0xA0 SHL SUB AND DUP4 DUP7 PUSH32 0x888EBBEE43B69C568A7EF10A18F4AFB4A0452ED2CFEC2DDE7A3D37B7E5EF87A3 DUP8 DUP6 PUSH1 0x40 MLOAD PUSH2 0x1065 SWAP3 SWAP2 SWAP1 PUSH2 0x5177 JUMP JUMPDEST PUSH1 0x0 PUSH1 0x1 PUSH1 0x1 PUSH1 0xA0 SHL SUB PUSH32 0x0 AND ADDRESS SUB PUSH2 0x17F2 JUMPI PUSH1 0x40 MLOAD PUSH3 0x461BCD PUSH1 0xE5 SHL DUP2 MSTORE PUSH1 0x4 ADD PUSH2 0x17E9 SWAP1 PUSH2 0x5454 JUMP JUMPDEST PUSH1 0x40 MLOAD DUP1 SWAP2 SUB SWAP1 REVERT JUMPDEST PUSH32 0x0 PUSH1 0x1 PUSH1 0x1 PUSH1 0xA0 SHL SUB AND PUSH2 0x1824 PUSH2 0x3D44 JUMP JUMPDEST PUSH1 0x1 PUSH1 0x1 PUSH1 0xA0 SHL SUB AND EQ PUSH2 0x184A JUMPI PUSH1 0x40 MLOAD PUSH3 0x461BCD PUSH1 0xE5 SHL DUP2 MSTORE PUSH1 0x4 ADD PUSH2 0x17E9 SWAP1 PUSH2 0x5483 JUMP JUMPDEST PUSH1 0x0 PUSH2 0x1859 PUSH1 0x4A SLOAD PUSH2 0xFFFF AND SWAP1 JUMP JUMPDEST PUSH2 0xFFFF AND GT PUSH2 0x18AA JUMPI PUSH1 0x40 MLOAD PUSH3 0x461BCD PUSH1 0xE5 SHL DUP2 MSTORE PUSH1 0x20 PUSH1 0x4 DUP3 ADD MSTORE PUSH1 0x18 PUSH1 0x24 DUP3 ADD MSTORE PUSH32 0x436F6E7472616374204E6F7420496E697469616C697A65640000000000000000 PUSH1 0x44 DUP3 ADD MSTORE PUSH1 0x64 ADD PUSH2 0x17E9 JUMP JUMPDEST PUSH2 0x18BA PUSH4 0x225BF2F9 PUSH1 0xE1 SHL PUSH2 0x3D65 JUMP JUMPDEST PUSH2 0x18FE JUMPI PUSH1 0x40 MLOAD PUSH3 0x461BCD PUSH1 0xE5 SHL DUP2 MSTORE PUSH1 0x20 PUSH1 0x4 DUP3 ADD MSTORE PUSH1 0x15 PUSH1 0x24 DUP3 ADD MSTORE PUSH21 0x29B2BA29B0B332A6B7B232902337B93134B23232B7 PUSH1 0x59 SHL PUSH1 0x44 DUP3 ADD MSTORE PUSH1 0x64 ADD PUSH2 0x17E9 JUMP JUMPDEST PUSH1 0x3 DUP1 SLOAD PUSH1 0xFF PUSH1 0xA0 SHL NOT AND PUSH1 0x1 PUSH1 0xA0 SHL DUP5 ISZERO ISZERO MUL OR SWAP1 SSTORE PUSH1 0x2 SLOAD ADDRESS CALLER PUSH1 0x1 PUSH1 0x1 PUSH1 0xA0 SHL SUB AND PUSH32 0xDD452A31D2E164A1EA436C084842C27D24AE2548A575A869F71B05A4ED16243F DUP6 PUSH1 0x40 MLOAD PUSH2 0x1956 SWAP2 ISZERO ISZERO DUP2 MSTORE PUSH1 0x20 ADD SWAP1 JUMP JUMPDEST PUSH1 0x40 MLOAD DUP1 SWAP2 SUB SWAP1 LOG4 POP DUP1 JUMPDEST SWAP2 SWAP1 POP JUMP JUMPDEST PUSH1 0x40 MLOAD PUSH4 0x37F4C93 PUSH1 0xE4 SHL DUP2 MSTORE PUSH1 0x44 PUSH1 0x4 DUP3 ADD DUP2 SWAP1 MSTORE PUSH1 0x24 DUP3 ADD DUP4 SWAP1 MSTORE PUSH1 0x0 SWAP2 PUSH20 0x0 SWAP2 PUSH4 0x37F4C930 SWAP2 ADD PUSH2 0x10C0 JUMP JUMPDEST PUSH1 0x0 PUSH1 0x1 PUSH1 0x1 PUSH1 0xA0 SHL SUB PUSH32 0x0 AND ADDRESS SUB PUSH2 0x19F2 JUMPI PUSH1 0x40 MLOAD PUSH3 0x461BCD PUSH1 0xE5 SHL DUP2 MSTORE PUSH1 0x4 ADD PUSH2 0x17E9 SWAP1 PUSH2 0x5454 JUMP JUMPDEST PUSH32 0x0 PUSH1 0x1 PUSH1 0x1 PUSH1 0xA0 SHL SUB AND PUSH2 0x1A24 PUSH2 0x3D44 JUMP JUMPDEST PUSH1 0x1 PUSH1 0x1 PUSH1 0xA0 SHL SUB AND EQ PUSH2 0x1A4A JUMPI PUSH1 0x40 MLOAD PUSH3 0x461BCD PUSH1 0xE5 SHL DUP2 MSTORE PUSH1 0x4 ADD PUSH2 0x17E9 SWAP1 PUSH2 0x5483 JUMP JUMPDEST PUSH1 0x3 SLOAD PUSH1 0x1 PUSH1 0xA0 SHL SWAP1 DIV PUSH1 0xFF AND ISZERO PUSH2 0x1A74 JUMPI PUSH1 0x40 MLOAD PUSH3 0x461BCD PUSH1 0xE5 SHL DUP2 MSTORE PUSH1 0x4 ADD PUSH2 0x17E9 SWAP1 PUSH2 0x54B1 JUMP JUMPDEST PUSH2 0x1A84 PUSH4 0x1239AF87 PUSH1 0xE2 SHL PUSH2 0x3D65 JUMP JUMPDEST PUSH2 0x1AD0 JUMPI PUSH1 0x40 MLOAD PUSH3 0x461BCD PUSH1 0xE5 SHL DUP2 MSTORE PUSH1 0x20 PUSH1 0x4 DUP3 ADD MSTORE PUSH1 0x1A PUSH1 0x24 DUP3 ADD MSTORE PUSH32 0x5365745570677261646553746174757320466F7262696464656E000000000000 PUSH1 0x44 DUP3 ADD MSTORE PUSH1 0x64 ADD PUSH2 0x17E9 JUMP JUMPDEST PUSH2 0x1AD8 PUSH2 0x3EAA JUMP JUMPDEST PUSH2 0x1B24 JUMPI PUSH1 0x40 MLOAD PUSH3 0x461BCD PUSH1 0xE5 SHL DUP2 MSTORE PUSH1 0x20 PUSH1 0x4 DUP3 ADD MSTORE PUSH1 0x17 PUSH1 0x24 DUP3 ADD MSTORE PUSH32 0x5265616C6D205570677261646520466F7262696464656E000000000000000000 PUSH1 0x44 DUP3 ADD MSTORE PUSH1 0x64 ADD PUSH2 0x17E9 JUMP JUMPDEST PUSH1 0x3 DUP1 SLOAD PUSH1 0xFF PUSH1 0xA8 SHL NOT AND PUSH1 0x1 PUSH1 0xA8 SHL DUP5 ISZERO ISZERO MUL OR SWAP1 SSTORE PUSH1 0x2 SLOAD ADDRESS CALLER PUSH1 0x1 PUSH1 0x1 PUSH1 0xA0 SHL SUB AND PUSH32 0xE9F97AD94C2BA252DCFC525E004F608AC5CB886955D8FC87D9E0EE070A698C56 DUP6 PUSH1 0x40 MLOAD PUSH2 0x1956 SWAP2 ISZERO ISZERO DUP2 MSTORE PUSH1 0x20 ADD SWAP1 JUMP JUMPDEST PUSH1 0x40 MLOAD PUSH4 0x52F8F17F PUSH1 0xE1 SHL DUP2 MSTORE PUSH1 0x44 PUSH1 0x4 DUP3 ADD DUP2 SWAP1 MSTORE PUSH1 0x24 DUP3 ADD DUP4 SWAP1 MSTORE PUSH1 0x0 SWAP2 PUSH20 0x0 SWAP2 PUSH4 0xA5F1E2FE SWAP2 ADD PUSH2 0x10C0 JUMP JUMPDEST PUSH1 0x0 DUP1 PUSH20 0x0 PUSH4 0x9B214B70 PUSH1 0x44 DUP9 DUP9 DUP9 DUP9 PUSH1 0x40 MLOAD DUP7 PUSH4 0xFFFFFFFF AND PUSH1 0xE0 SHL DUP2 MSTORE PUSH1 0x4 ADD PUSH2 0x1C01 SWAP6 SWAP5 SWAP4 SWAP3 SWAP2 SWAP1 PUSH2 0x54E8 JUMP JUMPDEST PUSH1 0x20 PUSH1 0x40 MLOAD DUP1 DUP4 SUB DUP2 DUP7 GAS DELEGATECALL ISZERO DUP1 ISZERO PUSH2 0x1C1E JUMPI RETURNDATASIZE PUSH1 0x0 DUP1 RETURNDATACOPY RETURNDATASIZE PUSH1 0x0 REVERT JUMPDEST POP POP POP POP PUSH1 0x40 MLOAD RETURNDATASIZE PUSH1 0x1F NOT PUSH1 0x1F DUP3 ADD AND DUP3 ADD DUP1 PUSH1 0x40 MSTORE POP DUP2 ADD SWAP1 PUSH2 0x1C42 SWAP2 SWAP1 PUSH2 0x515E JUMP JUMPDEST SWAP1 POP CALLER PUSH1 0x1 PUSH1 0x1 PUSH1 0xA0 SHL SUB AND DUP2 PUSH32 0x5A8ACBE7E0FA397D934E9AAFB8FB1A483627AF9E9B4690F4488D740B669F8B47 DUP9 DUP9 DUP9 DUP9 PUSH1 0x40 MLOAD PUSH2 0x1C84 SWAP5 SWAP4 SWAP3 SWAP2 SWAP1 PUSH2 0x551B JUMP JUMPDEST PUSH1 0x40 MLOAD DUP1 SWAP2 SUB SWAP1 LOG3 SWAP6 SWAP5 POP POP POP POP POP JUMP JUMPDEST PUSH1 0x40 MLOAD PUSH4 0x784C2773 PUSH1 0xE1 SHL DUP2 MSTORE PUSH1 0x44 PUSH1 0x4 DUP3 ADD DUP2 SWAP1 MSTORE PUSH1 0x24 DUP3 ADD DUP4 SWAP1 MSTORE PUSH1 0x0 SWAP2 PUSH20 0x0 SWAP2 PUSH4 0xF0984EE6 SWAP2 ADD PUSH2 0x10C0 JUMP JUMPDEST PUSH1 0x40 MLOAD PUSH4 0x302A3283 PUSH1 0xE2 SHL DUP2 MSTORE PUSH1 0x44 PUSH1 0x4 DUP3 ADD DUP2 SWAP1 MSTORE PUSH1 0x24 DUP3 ADD DUP4 SWAP1 MSTORE PUSH1 0x0 SWAP2 PUSH20 0x0 SWAP2 PUSH4 0xC0A8CA0C SWAP2 ADD PUSH2 0x10C0 JUMP JUMPDEST PUSH1 0x0 ADDRESS PUSH1 0x1 PUSH1 0x1 PUSH1 0xA0 SHL SUB PUSH32 0x0 AND EQ PUSH2 0x1D93 JUMPI PUSH1 0x40 MLOAD PUSH3 0x461BCD PUSH1 0xE5 SHL DUP2 MSTORE PUSH1 0x20 PUSH1 0x4 DUP3 ADD MSTORE PUSH1 0x1D PUSH1 0x24 DUP3 ADD MSTORE PUSH32 0x496C6C6567616C20436F6E74726163742044656C656761746563616C6C000000 PUSH1 0x44 DUP3 ADD MSTORE PUSH1 0x64 ADD PUSH2 0x17E9 JUMP JUMPDEST POP PUSH1 0x0 DUP1 MLOAD PUSH1 0x20 PUSH2 0x5F88 DUP4 CODECOPY DUP2 MLOAD SWAP2 MSTORE SWAP1 JUMP JUMPDEST PUSH1 0x0 PUSH2 0x139D PUSH2 0x3D44 JUMP JUMPDEST PUSH1 0x40 MLOAD PUSH4 0x6787AD51 PUSH1 0xE0 SHL DUP2 MSTORE PUSH1 0x44 PUSH1 0x4 DUP3 ADD DUP2 SWAP1 MSTORE PUSH1 0x24 DUP3 ADD DUP4 SWAP1 MSTORE PUSH1 0x0 SWAP2 PUSH20 0x0 SWAP2 PUSH4 0x6787AD51 SWAP2 ADD PUSH2 0x10C0 JUMP JUMPDEST PUSH1 0x40 MLOAD PUSH4 0x97F7F87 PUSH1 0xE0 SHL DUP2 MSTORE PUSH1 0x44 PUSH1 0x4 DUP3 ADD DUP2 SWAP1 MSTORE PUSH1 0x24 DUP3 ADD DUP4 SWAP1 MSTORE PUSH1 0x60 SWAP2 PUSH1 0x0 SWAP2 PUSH20 0x0 SWAP2 PUSH4 0x97F7F87 SWAP2 ADD PUSH1 0x0 PUSH1 0x40 MLOAD DUP1 DUP4 SUB DUP2 DUP7 GAS DELEGATECALL ISZERO DUP1 ISZERO PUSH2 0x1E4F JUMPI RETURNDATASIZE PUSH1 0x0 DUP1 RETURNDATACOPY RETURNDATASIZE PUSH1 0x0 REVERT JUMPDEST POP POP POP POP PUSH1 0x40 MLOAD RETURNDATASIZE PUSH1 0x0 DUP3 RETURNDATACOPY PUSH1 0x1F RETURNDATASIZE SWAP1 DUP2 ADD PUSH1 0x1F NOT AND DUP3 ADD PUSH1 0x40 MSTORE PUSH2 0x1E77 SWAP2 SWAP1 DUP2 ADD SWAP1 PUSH2 0x5547 JUMP JUMPDEST SWAP2 POP SWAP2 POP SWAP2 POP SWAP2 JUMP JUMPDEST PUSH1 0x40 MLOAD PUSH4 0x214CDDDF PUSH1 0xE2 SHL DUP2 MSTORE PUSH1 0x44 PUSH1 0x4 DUP3 ADD DUP2 SWAP1 MSTORE PUSH1 0x24 DUP3 ADD DUP6 SWAP1 MSTORE DUP2 ADD DUP4 SWAP1 MSTORE PUSH1 0x1 PUSH1 0x1 PUSH1 0xE0 SHL SUB NOT DUP3 AND PUSH1 0x64 DUP3 ADD MSTORE PUSH1 0x0 SWAP1 PUSH20 0x0 SWAP1 PUSH4 0x8533777C SWAP1 PUSH1 0x84 ADD JUMPDEST PUSH1 0x20 PUSH1 0x40 MLOAD DUP1 DUP4 SUB DUP2 DUP7 GAS DELEGATECALL ISZERO DUP1 ISZERO PUSH2 0x1EF2 JUMPI RETURNDATASIZE PUSH1 0x0 DUP1 RETURNDATACOPY RETURNDATASIZE PUSH1 0x0 REVERT JUMPDEST POP POP POP POP PUSH1 0x40 MLOAD RETURNDATASIZE PUSH1 0x1F NOT PUSH1 0x1F DUP3 ADD AND DUP3 ADD DUP1 PUSH1 0x40 MSTORE POP DUP2 ADD SWAP1 PUSH2 0x1F16 SWAP2 SWAP1 PUSH2 0x5191 JUMP JUMPDEST SWAP5 SWAP4 POP POP POP POP JUMP JUMPDEST PUSH1 0x40 MLOAD PUSH4 0x75E6430F PUSH1 0xE1 SHL DUP2 MSTORE PUSH1 0x44 PUSH1 0x4 DUP3 ADD DUP2 SWAP1 MSTORE PUSH1 0x24 DUP3 ADD DUP5 SWAP1 MSTORE DUP3 ISZERO ISZERO SWAP1 DUP3 ADD MSTORE PUSH1 0x0 SWAP1 DUP2 SWAP1 DUP2 SWAP1 PUSH20 0x0 SWAP1 PUSH4 0xEBCC861E SWAP1 PUSH1 0x64 ADD PUSH1 0x40 DUP1 MLOAD DUP1 DUP4 SUB DUP2 DUP7 GAS DELEGATECALL ISZERO DUP1 ISZERO PUSH2 0x1F84 JUMPI RETURNDATASIZE PUSH1 0x0 DUP1 RETURNDATACOPY RETURNDATASIZE PUSH1 0x0 REVERT JUMPDEST POP POP POP POP PUSH1 0x40 MLOAD RETURNDATASIZE PUSH1 0x1F NOT PUSH1 0x1F DUP3 ADD AND DUP3 ADD DUP1 PUSH1 0x40 MSTORE POP DUP2 ADD SWAP1 PUSH2 0x1FA8 SWAP2 SWAP1 PUSH2 0x558D JUMP JUMPDEST SWAP2 POP SWAP2 POP DUP1 PUSH2 0x1FB4 CALLER SWAP1 JUMP JUMPDEST PUSH1 0x1 PUSH1 0x1 PUSH1 0xA0 SHL SUB AND DUP7 PUSH32 0x354501E3216E5F916D4D35EF255A577D106A7EAB306488227783A837DC042A4E DUP8 PUSH1 0x40 MLOAD PUSH2 0x1FF1 SWAP2 ISZERO ISZERO DUP2 MSTORE PUSH1 0x20 ADD SWAP1 JUMP JUMPDEST PUSH1 0x40 MLOAD DUP1 SWAP2 SUB SWAP1 LOG4 POP SWAP4 SWAP3 POP POP POP JUMP JUMPDEST PUSH1 0x60 PUSH1 0x1 PUSH1 0x1 PUSH1 0xA0 SHL SUB PUSH32 0x0 AND ADDRESS SUB PUSH2 0x204B JUMPI PUSH1 0x40 MLOAD PUSH3 0x461BCD PUSH1 0xE5 SHL DUP2 MSTORE PUSH1 0x4 ADD PUSH2 0x17E9 SWAP1 PUSH2 0x5454 JUMP JUMPDEST PUSH32 0x0 PUSH1 0x1 PUSH1 0x1 PUSH1 0xA0 SHL SUB AND PUSH2 0x207D PUSH2 0x3D44 JUMP JUMPDEST PUSH1 0x1 PUSH1 0x1 PUSH1 0xA0 SHL SUB AND EQ PUSH2 0x20A3 JUMPI PUSH1 0x40 MLOAD PUSH3 0x461BCD PUSH1 0xE5 SHL DUP2 MSTORE PUSH1 0x4 ADD PUSH2 0x17E9 SWAP1 PUSH2 0x5483 JUMP JUMPDEST PUSH1 0x3 SLOAD PUSH1 0x1 PUSH1 0xA0 SHL SWAP1 DIV PUSH1 0xFF AND ISZERO PUSH2 0x20CD JUMPI PUSH1 0x40 MLOAD PUSH3 0x461BCD PUSH1 0xE5 SHL DUP2 MSTORE PUSH1 0x4 ADD PUSH2 0x17E9 SWAP1 PUSH2 0x54B1 JUMP JUMPDEST PUSH1 0x3 SLOAD PUSH1 0x1 PUSH1 0xA8 SHL SWAP1 DIV PUSH1 0xFF AND PUSH2 0x211E JUMPI PUSH1 0x40 MLOAD PUSH3 0x461BCD PUSH1 0xE5 SHL DUP2 MSTORE PUSH1 0x20 PUSH1 0x4 DUP3 ADD MSTORE PUSH1 0x15 PUSH1 0x24 DUP3 ADD MSTORE PUSH21 0x155C19DC9859194810D85B1B0814995A9958DD1959 PUSH1 0x5A SHL PUSH1 0x44 DUP3 ADD MSTORE PUSH1 0x64 ADD PUSH2 0x17E9 JUMP JUMPDEST PUSH2 0x2127 DUP5 PUSH2 0x3FE8 JUMP JUMPDEST PUSH2 0x1F16 DUP5 DUP5 DUP5 PUSH2 0x40AF JUMP JUMPDEST PUSH1 0x0 DUP1 PUSH1 0x0 PUSH20 0x0 PUSH4 0xD94F2470 PUSH1 0x44 DUP10 DUP10 DUP10 DUP10 PUSH1 0x40 MLOAD DUP7 PUSH4 0xFFFFFFFF AND PUSH1 0xE0 SHL DUP2 MSTORE PUSH1 0x4 ADD PUSH2 0x2177 SWAP6 SWAP5 SWAP4 SWAP3 SWAP2 SWAP1 PUSH2 0x56BB JUMP JUMPDEST PUSH1 0x40 DUP1 MLOAD DUP1 DUP4 SUB DUP2 DUP7 GAS DELEGATECALL ISZERO DUP1 ISZERO PUSH2 0x2193 JUMPI RETURNDATASIZE PUSH1 0x0 DUP1 RETURNDATACOPY RETURNDATASIZE PUSH1 0x0 REVERT JUMPDEST POP POP POP POP PUSH1 0x40 MLOAD RETURNDATASIZE PUSH1 0x1F NOT PUSH1 0x1F DUP3 ADD AND DUP3 ADD DUP1 PUSH1 0x40 MSTORE POP DUP2 ADD SWAP1 PUSH2 0x21B7 SWAP2 SWAP1 PUSH2 0x577E JUMP JUMPDEST SWAP2 POP SWAP2 POP DUP1 PUSH1 0x1 PUSH1 0x1 PUSH1 0xA0 SHL SUB AND DUP3 PUSH1 0x1 PUSH1 0x1 PUSH1 0xA0 SHL SUB AND PUSH2 0x21DE PUSH2 0x21D9 CALLER SWAP1 JUMP JUMPDEST PUSH2 0x4300 JUMP JUMPDEST PUSH32 0x2ACEC3419C1D10DAB06D0715F556E96B344F2092A52A23FB192B4B89F5B7CF42 DUP10 PUSH1 0x40 ADD CALLDATALOAD PUSH1 0x40 MLOAD PUSH2 0x2213 SWAP2 DUP2 MSTORE PUSH1 0x20 ADD SWAP1 JUMP JUMPDEST PUSH1 0x40 MLOAD DUP1 SWAP2 SUB SWAP1 LOG4 POP SWAP6 SWAP5 POP POP POP POP POP JUMP JUMPDEST PUSH1 0x3 SLOAD PUSH1 0x1 PUSH1 0xA0 SHL SWAP1 DIV PUSH1 0xFF AND ISZERO PUSH2 0x224F JUMPI PUSH1 0x40 MLOAD PUSH3 0x461BCD PUSH1 0xE5 SHL DUP2 MSTORE PUSH1 0x4 ADD PUSH2 0x17E9 SWAP1 PUSH2 0x54B1 JUMP JUMPDEST PUSH2 0x225F PUSH4 0x756AF45F PUSH1 0xE0 SHL PUSH2 0x3D65 JUMP JUMPDEST PUSH2 0x22AB JUMPI PUSH1 0x40 MLOAD PUSH3 0x461BCD PUSH1 0xE5 SHL DUP2 MSTORE PUSH1 0x20 PUSH1 0x4 DUP3 ADD MSTORE PUSH1 0x1A PUSH1 0x24 DUP3 ADD MSTORE PUSH32 0x57697468647261772042616C616E636520466F7262696464656E000000000000 PUSH1 0x44 DUP3 ADD MSTORE PUSH1 0x64 ADD PUSH2 0x17E9 JUMP JUMPDEST PUSH1 0x40 MLOAD PUSH1 0x1 PUSH1 0x1 PUSH1 0xA0 SHL SUB DUP3 AND SWAP1 SELFBALANCE DUP1 ISZERO PUSH2 0x8FC MUL SWAP2 PUSH1 0x0 DUP2 DUP2 DUP2 DUP6 DUP9 DUP9 CALL SWAP4 POP POP POP POP ISZERO DUP1 ISZERO PUSH2 0x22E0 JUMPI RETURNDATASIZE PUSH1 0x0 DUP1 RETURNDATACOPY RETURNDATASIZE PUSH1 0x0 REVERT JUMPDEST POP POP JUMP JUMPDEST PUSH1 0x0 DUP1 PUSH20 0x0 PUSH4 0x76FD3E82 PUSH1 0x44 DUP8 DUP8 DUP8 PUSH1 0x40 MLOAD DUP6 PUSH4 0xFFFFFFFF AND PUSH1 0xE0 SHL DUP2 MSTORE PUSH1 0x4 ADD PUSH2 0x2325 SWAP5 SWAP4 SWAP3 SWAP2 SWAP1 PUSH2 0x5139 JUMP JUMPDEST PUSH1 0x20 PUSH1 0x40 MLOAD DUP1 DUP4 SUB DUP2 DUP7 GAS DELEGATECALL ISZERO DUP1 ISZERO PUSH2 0x2342 JUMPI RETURNDATASIZE PUSH1 0x0 DUP1 RETURNDATACOPY RETURNDATASIZE PUSH1 0x0 REVERT JUMPDEST POP POP POP POP PUSH1 0x40 MLOAD RETURNDATASIZE PUSH1 0x1F NOT PUSH1 0x1F DUP3 ADD AND DUP3 ADD DUP1 PUSH1 0x40 MSTORE POP DUP2 ADD SWAP1 PUSH2 0x2366 SWAP2 SWAP1 PUSH2 0x515E JUMP JUMPDEST SWAP1 POP CALLER PUSH1 0x1 PUSH1 0x1 PUSH1 0xA0 SHL SUB AND DUP4 DUP7 PUSH32 0xEA00FF399A342F54B82233841F91FAA5677300E901667E010E9F22AEA1AE5931 DUP8 DUP6 PUSH1 0x40 MLOAD PUSH2 0x1065 SWAP3 SWAP2 SWAP1 PUSH2 0x5177 JUMP JUMPDEST PUSH1 0x0 DUP1 PUSH1 0x0 DUP1 PUSH20 0x0 PUSH4 0xEC7EE0E PUSH1 0x44 DUP11 DUP11 DUP11 DUP11 PUSH1 0x40 MLOAD DUP7 PUSH4 0xFFFFFFFF AND PUSH1 0xE0 SHL DUP2 MSTORE PUSH1 0x4 ADD PUSH2 0x23EB SWAP6 SWAP5 SWAP4 SWAP3 SWAP2 SWAP1 PUSH2 0x583F JUMP JUMPDEST PUSH1 0x60 PUSH1 0x40 MLOAD DUP1 DUP4 SUB DUP2 DUP7 GAS DELEGATECALL ISZERO DUP1 ISZERO PUSH2 0x2408 JUMPI RETURNDATASIZE PUSH1 0x0 DUP1 RETURNDATACOPY RETURNDATASIZE PUSH1 0x0 REVERT JUMPDEST POP POP POP POP PUSH1 0x40 MLOAD RETURNDATASIZE PUSH1 0x1F NOT PUSH1 0x1F DUP3 ADD AND DUP3 ADD DUP1 PUSH1 0x40 MSTORE POP DUP2 ADD SWAP1 PUSH2 0x242C SWAP2 SWAP1 PUSH2 0x58E9 JUMP JUMPDEST SWAP3 POP SWAP3 POP SWAP3 POP PUSH2 0x2439 CALLER SWAP1 JUMP JUMPDEST PUSH1 0x1 PUSH1 0x1 PUSH1 0xA0 SHL SUB SWAP1 DUP2 AND SWAP1 DUP5 AND DUP4 PUSH32 0xCC1B95900C3E2C3876E4B29283DE90AC446BD6049A0DF525D14A8C07D36AE70C DUP5 PUSH2 0x247A PUSH1 0xC0 DUP14 ADD PUSH1 0xA0 DUP15 ADD PUSH2 0x48B3 JUMP JUMPDEST PUSH2 0x248A PUSH1 0xA0 DUP15 ADD PUSH1 0x80 DUP16 ADD PUSH2 0x48B3 JUMP JUMPDEST PUSH1 0x40 DUP1 MLOAD PUSH1 0x1 PUSH1 0x1 PUSH1 0xA0 SHL SUB SWAP5 DUP6 AND DUP2 MSTORE SWAP3 DUP5 AND PUSH1 0x20 DUP5 ADD MSTORE SWAP3 AND DUP2 DUP4 ADD MSTORE SWAP1 DUP13 ADD CALLDATALOAD PUSH1 0x60 DUP3 ADD MSTORE PUSH1 0x80 ADD PUSH1 0x40 MLOAD DUP1 SWAP2 SUB SWAP1 LOG4 POP SWAP7 SWAP6 POP POP POP POP POP POP JUMP JUMPDEST PUSH1 0x0 PUSH2 0x139D ADDRESS PUSH2 0x4300 JUMP JUMPDEST PUSH1 0x0 CALLER PUSH1 0x1 PUSH1 0x1 PUSH1 0xA0 SHL SUB AND DUP4 PUSH32 0xFE1617B569BD167AB40B31E034F68E32656219DBE4AB9469A00660550FEC72C8 DUP5 PUSH1 0x40 MLOAD PUSH2 0x2513 SWAP2 ISZERO ISZERO DUP2 MSTORE PUSH1 0x20 ADD SWAP1 JUMP JUMPDEST PUSH1 0x40 MLOAD DUP1 SWAP2 SUB SWAP1 LOG3 PUSH1 0x40 MLOAD PUSH3 0x5D742F PUSH1 0xE0 SHL DUP2 MSTORE PUSH1 0x44 PUSH1 0x4 DUP3 ADD DUP2 SWAP1 MSTORE PUSH1 0x24 DUP3 ADD DUP6 SWAP1 MSTORE DUP4 ISZERO ISZERO SWAP1 DUP3 ADD MSTORE PUSH20 0x0 SWAP1 PUSH3 0x5D742F SWAP1 PUSH1 0x64 ADD PUSH2 0x1182 JUMP JUMPDEST PUSH1 0x40 MLOAD PUSH4 0x87D8E2B PUSH1 0xE4 SHL DUP2 MSTORE PUSH1 0x44 PUSH1 0x4 DUP3 ADD DUP2 SWAP1 MSTORE PUSH1 0x24 DUP3 ADD DUP4 SWAP1 MSTORE PUSH1 0x0 SWAP2 PUSH20 0x0 SWAP2 PUSH4 0x87D8E2B0 SWAP2 ADD PUSH2 0x10C0 JUMP JUMPDEST PUSH1 0x40 MLOAD PUSH1 0x0 SWAP1 PUSH1 0x1 PUSH1 0x1 PUSH1 0xA0 SHL SUB DUP4 AND SWAP1 DUP5 SWAP1 CALLER SWAP1 PUSH32 0xD992F85DF7A0BE47C44B0BE141BE17EEFD360033A4CE05B5458FBA27B7781999 SWAP1 DUP6 SWAP1 LOG4 PUSH1 0x40 MLOAD PUSH4 0x424AFD2B PUSH1 0xE1 SHL DUP2 MSTORE PUSH1 0x44 PUSH1 0x4 DUP3 ADD DUP2 SWAP1 MSTORE PUSH1 0x24 DUP3 ADD DUP6 SWAP1 MSTORE PUSH1 0x1 PUSH1 0x1 PUSH1 0xA0 SHL SUB DUP5 AND SWAP1 DUP3 ADD MSTORE PUSH20 0x0 SWAP1 PUSH4 0x8495FA56 SWAP1 PUSH1 0x64 ADD PUSH2 0x1182 JUMP JUMPDEST PUSH1 0x40 MLOAD PUSH4 0xC59F431 PUSH1 0xE2 SHL DUP2 MSTORE PUSH1 0x44 PUSH1 0x4 DUP3 ADD DUP2 SWAP1 MSTORE PUSH1 0x24 DUP3 ADD DUP4 SWAP1 MSTORE PUSH1 0x0 SWAP2 PUSH20 0x0 SWAP2 PUSH4 0x3167D0C4 SWAP2 ADD PUSH2 0x10C0 JUMP JUMPDEST PUSH1 0x0 DUP1 JUMPDEST DUP3 DUP2 LT ISZERO PUSH2 0x2717 JUMPI DUP4 DUP4 DUP3 DUP2 DUP2 LT PUSH2 0x268C JUMPI PUSH2 0x268C PUSH2 0x53C2 JUMP JUMPDEST SWAP1 POP PUSH1 0x40 MUL ADD PUSH1 0x20 ADD PUSH1 0x20 DUP2 ADD SWAP1 PUSH2 0x26A4 SWAP2 SWAP1 PUSH2 0x48B3 JUMP JUMPDEST PUSH1 0x1 PUSH1 0x1 PUSH1 0xA0 SHL SUB AND DUP5 DUP5 DUP4 DUP2 DUP2 LT PUSH2 0x26BF JUMPI PUSH2 0x26BF PUSH2 0x53C2 JUMP JUMPDEST SWAP1 POP PUSH1 0x40 MUL ADD PUSH1 0x0 ADD CALLDATALOAD PUSH2 0x26D0 CALLER SWAP1 JUMP JUMPDEST PUSH1 0x1 PUSH1 0x1 PUSH1 0xA0 SHL SUB AND PUSH32 0xD992F85DF7A0BE47C44B0BE141BE17EEFD360033A4CE05B5458FBA27B7781999 PUSH1 0x40 MLOAD PUSH1 0x40 MLOAD DUP1 SWAP2 SUB SWAP1 LOG4 DUP1 PUSH2 0x270F DUP2 PUSH2 0x5937 JUMP JUMPDEST SWAP2 POP POP PUSH2 0x2672 JUMP JUMPDEST POP PUSH1 0x40 MLOAD PUSH4 0x803BD09 PUSH1 0xE4 SHL DUP2 MSTORE PUSH20 0x0 SWAP1 PUSH4 0x803BD090 SWAP1 PUSH2 0x1182 SWAP1 PUSH1 0x44 SWAP1 DUP8 SWAP1 DUP8 SWAP1 PUSH1 0x4 ADD PUSH2 0x5950 JUMP JUMPDEST PUSH1 0x40 MLOAD PUSH4 0x6CC77B11 PUSH1 0xE1 SHL DUP2 MSTORE PUSH1 0x44 PUSH1 0x4 DUP3 ADD DUP2 SWAP1 MSTORE PUSH1 0x24 DUP3 ADD DUP4 SWAP1 MSTORE PUSH1 0x0 SWAP2 PUSH20 0x0 SWAP2 PUSH4 0xD98EF622 SWAP2 ADD PUSH2 0x10C0 JUMP JUMPDEST PUSH1 0x60 PUSH1 0x0 PUSH20 0x0 PUSH4 0x6C3245AC PUSH1 0x44 DUP7 DUP7 PUSH1 0x40 MLOAD DUP5 PUSH4 0xFFFFFFFF AND PUSH1 0xE0 SHL DUP2 MSTORE PUSH1 0x4 ADD PUSH2 0x27D6 SWAP4 SWAP3 SWAP2 SWAP1 PUSH2 0x59B2 JUMP JUMPDEST PUSH1 0x0 PUSH1 0x40 MLOAD DUP1 DUP4 SUB DUP2 DUP7 GAS DELEGATECALL ISZERO DUP1 ISZERO PUSH2 0x27F3 JUMPI RETURNDATASIZE PUSH1 0x0 DUP1 RETURNDATACOPY RETURNDATASIZE PUSH1 0x0 REVERT JUMPDEST POP POP POP POP PUSH1 0x40 MLOAD RETURNDATASIZE PUSH1 0x0 DUP3 RETURNDATACOPY PUSH1 0x1F RETURNDATASIZE SWAP1 DUP2 ADD PUSH1 0x1F NOT AND DUP3 ADD PUSH1 0x40 MSTORE PUSH2 0x281B SWAP2 SWAP1 DUP2 ADD SWAP1 PUSH2 0x5294 JUMP JUMPDEST SWAP1 POP PUSH1 0x0 JUMPDEST DUP4 DUP2 LT ISZERO PUSH2 0x293F JUMPI DUP5 DUP5 DUP3 DUP2 DUP2 LT PUSH2 0x283A JUMPI PUSH2 0x283A PUSH2 0x53C2 JUMP JUMPDEST SWAP1 POP PUSH1 0x20 MUL DUP2 ADD SWAP1 PUSH2 0x284C SWAP2 SWAP1 PUSH2 0x5A89 JUMP JUMPDEST PUSH2 0x285A SWAP1 PUSH1 0x20 DUP2 ADD SWAP1 PUSH2 0x5AA9 JUMP JUMPDEST PUSH1 0x40 MLOAD PUSH2 0x2868 SWAP3 SWAP2 SWAP1 PUSH2 0x5AEF JUMP JUMPDEST PUSH1 0x40 MLOAD DUP1 SWAP2 SUB SWAP1 KECCAK256 DUP3 DUP3 DUP2 MLOAD DUP2 LT PUSH2 0x2882 JUMPI PUSH2 0x2882 PUSH2 0x53C2 JUMP JUMPDEST PUSH1 0x20 MUL PUSH1 0x20 ADD ADD MLOAD PUSH2 0x2891 CALLER SWAP1 JUMP JUMPDEST PUSH1 0x1 PUSH1 0x1 PUSH1 0xA0 SHL SUB AND PUSH32 0x539B07DDDD6BD9FFEFA3D951A9467D78948CBE1A8D13BE00E7376842A83A5981 DUP9 DUP9 DUP7 DUP2 DUP2 LT PUSH2 0x28CD JUMPI PUSH2 0x28CD PUSH2 0x53C2 JUMP JUMPDEST SWAP1 POP PUSH1 0x20 MUL DUP2 ADD SWAP1 PUSH2 0x28DF SWAP2 SWAP1 PUSH2 0x5A89 JUMP JUMPDEST CALLDATALOAD DUP10 DUP10 DUP8 DUP2 DUP2 LT PUSH2 0x28F2 JUMPI PUSH2 0x28F2 PUSH2 0x53C2 JUMP JUMPDEST SWAP1 POP PUSH1 0x20 MUL DUP2 ADD SWAP1 PUSH2 0x2904 SWAP2 SWAP1 PUSH2 0x5A89 JUMP JUMPDEST PUSH2 0x2915 SWAP1 PUSH1 0x60 DUP2 ADD SWAP1 PUSH1 0x40 ADD PUSH2 0x4B06 JUMP JUMPDEST PUSH1 0x40 DUP1 MLOAD SWAP3 DUP4 MSTORE SWAP1 ISZERO ISZERO PUSH1 0x20 DUP4 ADD MSTORE ADD PUSH1 0x40 MLOAD DUP1 SWAP2 SUB SWAP1 LOG4 DUP1 PUSH2 0x2937 DUP2 PUSH2 0x5937 JUMP JUMPDEST SWAP2 POP POP PUSH2 0x2820 JUMP JUMPDEST POP SWAP4 SWAP3 POP POP POP JUMP JUMPDEST PUSH1 0x40 DUP1 MLOAD PUSH1 0xC0 DUP2 ADD DUP3 MSTORE PUSH1 0x0 DUP1 DUP3 MSTORE PUSH1 0x20 DUP3 ADD DUP2 SWAP1 MSTORE DUP2 DUP4 ADD DUP2 SWAP1 MSTORE PUSH1 0x60 DUP3 ADD DUP2 SWAP1 MSTORE PUSH1 0x80 DUP3 ADD DUP2 SWAP1 MSTORE PUSH1 0xA0 DUP3 ADD MSTORE SWAP1 MLOAD PUSH4 0x9BBAFB11 PUSH1 0xE0 SHL DUP2 MSTORE PUSH1 0x44 PUSH1 0x4 DUP3 ADD DUP2 SWAP1 MSTORE PUSH1 0x24 DUP3 ADD DUP5 SWAP1 MSTORE PUSH20 0x0 SWAP2 PUSH4 0x9BBAFB11 SWAP2 ADD PUSH1 0xC0 PUSH1 0x40 MLOAD DUP1 DUP4 SUB DUP2 DUP7 GAS DELEGATECALL ISZERO DUP1 ISZERO PUSH2 0x29CC JUMPI RETURNDATASIZE PUSH1 0x0 DUP1 RETURNDATACOPY RETURNDATASIZE PUSH1 0x0 REVERT JUMPDEST POP POP POP POP PUSH1 0x40 MLOAD RETURNDATASIZE PUSH1 0x1F NOT PUSH1 0x1F DUP3 ADD AND DUP3 ADD DUP1 PUSH1 0x40 MSTORE POP DUP2 ADD SWAP1 PUSH2 0xF9E SWAP2 SWAP1 PUSH2 0x5AFF JUMP JUMPDEST PUSH1 0x40 MLOAD PUSH4 0xCE34A66D PUSH1 0xE0 SHL DUP2 MSTORE PUSH1 0x44 PUSH1 0x4 DUP3 ADD DUP2 SWAP1 MSTORE PUSH1 0x24 DUP3 ADD DUP4 SWAP1 MSTORE PUSH1 0x0 SWAP2 PUSH20 0x0 SWAP2 PUSH4 0xCE34A66D SWAP2 ADD PUSH2 0x10C0 JUMP JUMPDEST PUSH1 0x40 MLOAD PUSH4 0x42EF199B PUSH1 0xE1 SHL DUP2 MSTORE PUSH1 0x44 PUSH1 0x4 DUP3 ADD DUP2 SWAP1 MSTORE PUSH1 0x1 PUSH1 0x1 PUSH1 0xA0 SHL SUB DUP4 AND PUSH1 0x24 DUP4 ADD MSTORE PUSH1 0x0 SWAP2 PUSH20 0x0 SWAP2 PUSH4 0x85DE3336 SWAP2 ADD PUSH2 0x10C0 JUMP JUMPDEST PUSH1 0x0 DUP1 PUSH20 0x0 PUSH4 0x881D8676 PUSH1 0x44 DUP9 DUP9 DUP9 DUP9 PUSH1 0x40 MLOAD DUP7 PUSH4 0xFFFFFFFF AND PUSH1 0xE0 SHL DUP2 MSTORE PUSH1 0x4 ADD PUSH2 0x2ABF SWAP6 SWAP5 SWAP4 SWAP3 SWAP2 SWAP1 PUSH2 0x5B90 JUMP JUMPDEST PUSH1 0x20 PUSH1 0x40 MLOAD DUP1 DUP4 SUB DUP2 DUP7 GAS DELEGATECALL ISZERO DUP1 ISZERO PUSH2 0x2ADC JUMPI RETURNDATASIZE PUSH1 0x0 DUP1 RETURNDATACOPY RETURNDATASIZE PUSH1 0x0 REVERT JUMPDEST POP POP POP POP PUSH1 0x40 MLOAD RETURNDATASIZE PUSH1 0x1F NOT PUSH1 0x1F DUP3 ADD AND DUP3 ADD DUP1 PUSH1 0x40 MSTORE POP DUP2 ADD SWAP1 PUSH2 0x2B00 SWAP2 SWAP1 PUSH2 0x515E JUMP JUMPDEST SWAP1 POP DUP6 DUP6 PUSH1 0x40 MLOAD PUSH2 0x2B12 SWAP3 SWAP2 SWAP1 PUSH2 0x5AEF JUMP JUMPDEST PUSH1 0x40 MLOAD DUP1 SWAP2 SUB SWAP1 KECCAK256 DUP2 PUSH2 0x2B22 CALLER SWAP1 JUMP JUMPDEST PUSH1 0x1 PUSH1 0x1 PUSH1 0xA0 SHL SUB AND PUSH32 0x539B07DDDD6BD9FFEFA3D951A9467D78948CBE1A8D13BE00E7376842A83A5981 DUP8 DUP8 PUSH1 0x40 MLOAD PUSH2 0x2B67 SWAP3 SWAP2 SWAP1 SWAP2 DUP3 MSTORE ISZERO ISZERO PUSH1 0x20 DUP3 ADD MSTORE PUSH1 0x40 ADD SWAP1 JUMP JUMPDEST PUSH1 0x40 MLOAD DUP1 SWAP2 SUB SWAP1 LOG4 SWAP6 SWAP5 POP POP POP POP POP JUMP JUMPDEST PUSH1 0x40 MLOAD PUSH4 0x37455C0B PUSH1 0xE2 SHL DUP2 MSTORE PUSH1 0x0 SWAP1 PUSH20 0x0 SWAP1 PUSH4 0xDD15702C SWAP1 PUSH2 0x1182 SWAP1 PUSH1 0x44 SWAP1 DUP8 SWAP1 DUP8 SWAP1 PUSH1 0x4 ADD PUSH2 0x51AE JUMP JUMPDEST PUSH1 0x0 DUP1 PUSH20 0x0 PUSH4 0x4A56C0B8 PUSH1 0x44 DUP7 DUP7 PUSH1 0x40 MLOAD DUP5 PUSH4 0xFFFFFFFF AND PUSH1 0xE0 SHL DUP2 MSTORE PUSH1 0x4 ADD PUSH2 0x2BF6 SWAP4 SWAP3 SWAP2 SWAP1 PUSH2 0x51AE JUMP JUMPDEST PUSH1 0x20 PUSH1 0x40 MLOAD DUP1 DUP4 SUB DUP2 DUP7 GAS DELEGATECALL ISZERO DUP1 ISZERO PUSH2 0x2C13 JUMPI RETURNDATASIZE PUSH1 0x0 DUP1 RETURNDATACOPY RETURNDATASIZE PUSH1 0x0 REVERT JUMPDEST POP POP POP POP PUSH1 0x40 MLOAD RETURNDATASIZE PUSH1 0x1F NOT PUSH1 0x1F DUP3 ADD AND DUP3 ADD DUP1 PUSH1 0x40 MSTORE POP DUP2 ADD SWAP1 PUSH2 0x2C37 SWAP2 SWAP1 PUSH2 0x515E JUMP JUMPDEST SWAP1 POP CALLER PUSH1 0x1 PUSH1 0x1 PUSH1 0xA0 SHL SUB AND DUP5 PUSH32 0xA6234DFEA6DA9D63D0505BA9B61AC8405DFD897089208859CDA18011C4847D69 DUP6 DUP5 PUSH1 0x40 MLOAD PUSH2 0x2C75 SWAP3 SWAP2 SWAP1 PUSH2 0x5177 JUMP JUMPDEST PUSH1 0x40 MLOAD DUP1 SWAP2 SUB SWAP1 LOG3 POP PUSH1 0x1 SWAP4 SWAP3 POP POP POP JUMP JUMPDEST PUSH1 0x0 CALLER PUSH1 0x1 PUSH1 0x1 PUSH1 0xA0 SHL SUB AND DUP4 PUSH32 0xE595D6B009CBFD06BFDFC4B7C06799F0E0B08FB2C6F5FA6E28A9AAC2495440F9 DUP5 PUSH1 0x40 MLOAD PUSH2 0x2CC7 SWAP2 ISZERO ISZERO DUP2 MSTORE PUSH1 0x20 ADD SWAP1 JUMP JUMPDEST PUSH1 0x40 MLOAD DUP1 SWAP2 SUB SWAP1 LOG3 PUSH1 0x40 MLOAD PUSH4 0x11CC3C77 PUSH1 0xE0 SHL DUP2 MSTORE PUSH1 0x44 PUSH1 0x4 DUP3 ADD DUP2 SWAP1 MSTORE PUSH1 0x24 DUP3 ADD DUP6 SWAP1 MSTORE DUP4 ISZERO ISZERO SWAP1 DUP3 ADD MSTORE PUSH20 0x0 SWAP1 PUSH4 0x11CC3C77 SWAP1 PUSH1 0x64 ADD PUSH2 0x1182 JUMP JUMPDEST PUSH1 0x40 MLOAD PUSH4 0x14AC83B PUSH1 0xE6 SHL DUP2 MSTORE PUSH1 0x44 PUSH1 0x4 DUP3 ADD DUP2 SWAP1 MSTORE PUSH1 0x24 DUP3 ADD DUP4 SWAP1 MSTORE PUSH1 0x60 SWAP2 PUSH1 0x0 SWAP2 DUP3 SWAP2 PUSH20 0x0 SWAP2 PUSH4 0x52B20EC0 SWAP2 ADD PUSH1 0x0 PUSH1 0x40 MLOAD DUP1 DUP4 SUB DUP2 DUP7 GAS DELEGATECALL ISZERO DUP1 ISZERO PUSH2 0x2D76 JUMPI RETURNDATASIZE PUSH1 0x0 DUP1 RETURNDATACOPY RETURNDATASIZE PUSH1 0x0 REVERT JUMPDEST POP POP POP POP PUSH1 0x40 MLOAD RETURNDATASIZE PUSH1 0x0 DUP3 RETURNDATACOPY PUSH1 0x1F RETURNDATASIZE SWAP1 DUP2 ADD PUSH1 0x1F NOT AND DUP3 ADD PUSH1 0x40 MSTORE PUSH2 0x1429 SWAP2 SWAP1 DUP2 ADD SWAP1 PUSH2 0x5BC3 JUMP JUMPDEST PUSH1 0x40 MLOAD PUSH4 0x77F616AF PUSH1 0xE1 SHL DUP2 MSTORE PUSH1 0x44 PUSH1 0x4 DUP3 ADD DUP2 SWAP1 MSTORE PUSH1 0x1 PUSH1 0x1 PUSH1 0xA0 SHL SUB DUP4 AND PUSH1 0x24 DUP4 ADD MSTORE PUSH1 0x0 SWAP2 PUSH20 0x0 SWAP2 PUSH4 0xEFEC2D5E SWAP2 ADD PUSH2 0x10C0 JUMP JUMPDEST PUSH1 0x40 MLOAD PUSH4 0x74E7DB39 PUSH1 0xE1 SHL DUP2 MSTORE PUSH1 0x44 PUSH1 0x4 DUP3 ADD DUP2 SWAP1 MSTORE PUSH1 0x1 PUSH1 0x1 PUSH1 0xA0 SHL SUB DUP4 AND PUSH1 0x24 DUP4 ADD MSTORE PUSH1 0x0 SWAP2 PUSH20 0x0 SWAP2 PUSH4 0xE9CFB672 SWAP2 ADD PUSH2 0x10C0 JUMP JUMPDEST PUSH1 0x40 MLOAD PUSH4 0x226D6A0D PUSH1 0xE2 SHL DUP2 MSTORE PUSH1 0x44 PUSH1 0x4 DUP3 ADD DUP2 SWAP1 MSTORE PUSH1 0x24 DUP3 ADD DUP4 SWAP1 MSTORE PUSH1 0x0 SWAP2 PUSH20 0x0 SWAP2 PUSH4 0x89B5A834 SWAP2 ADD PUSH2 0x10C0 JUMP JUMPDEST PUSH1 0x0 DUP1 JUMPDEST DUP3 DUP2 LT ISZERO PUSH2 0x2F1D JUMPI DUP4 DUP4 DUP3 DUP2 DUP2 LT PUSH2 0x2E92 JUMPI PUSH2 0x2E92 PUSH2 0x53C2 JUMP JUMPDEST SWAP1 POP PUSH1 0x40 MUL ADD PUSH1 0x20 ADD PUSH1 0x20 DUP2 ADD SWAP1 PUSH2 0x2EAA SWAP2 SWAP1 PUSH2 0x48B3 JUMP JUMPDEST PUSH1 0x1 PUSH1 0x1 PUSH1 0xA0 SHL SUB AND DUP5 DUP5 DUP4 DUP2 DUP2 LT PUSH2 0x2EC5 JUMPI PUSH2 0x2EC5 PUSH2 0x53C2 JUMP JUMPDEST SWAP1 POP PUSH1 0x40 MUL ADD PUSH1 0x0 ADD CALLDATALOAD PUSH2 0x2ED6 CALLER SWAP1 JUMP JUMPDEST PUSH1 0x1 PUSH1 0x1 PUSH1 0xA0 SHL SUB AND PUSH32 0x1D31FE42F06D4C1F16F6CB7B5682F1D6743641A9E1412FA0258F6776C5B943EE PUSH1 0x40 MLOAD PUSH1 0x40 MLOAD DUP1 SWAP2 SUB SWAP1 LOG4 DUP1 PUSH2 0x2F15 DUP2 PUSH2 0x5937 JUMP JUMPDEST SWAP2 POP POP PUSH2 0x2E78 JUMP JUMPDEST POP PUSH1 0x40 MLOAD PUSH4 0x608F85EF PUSH1 0xE0 SHL DUP2 MSTORE PUSH20 0x0 SWAP1 PUSH4 0x608F85EF SWAP1 PUSH2 0x1182 SWAP1 PUSH1 0x44 SWAP1 DUP8 SWAP1 DUP8 SWAP1 PUSH1 0x4 ADD PUSH2 0x5950 JUMP JUMPDEST PUSH1 0x40 MLOAD PUSH4 0x289EA12D PUSH1 0xE1 SHL DUP2 MSTORE PUSH1 0x44 PUSH1 0x4 DUP3 ADD DUP2 SWAP1 MSTORE PUSH1 0x24 DUP3 ADD DUP6 SWAP1 MSTORE PUSH1 0x1 PUSH1 0x1 PUSH1 0xA0 SHL SUB DUP5 AND SWAP1 DUP3 ADD MSTORE PUSH1 0x1 PUSH1 0x1 PUSH1 0xE0 SHL SUB NOT DUP3 AND PUSH1 0x64 DUP3 ADD MSTORE PUSH1 0x0 SWAP1 PUSH20 0x0 SWAP1 PUSH4 0x513D425A SWAP1 PUSH1 0x84 ADD PUSH2 0x1ED5 JUMP JUMPDEST PUSH1 0x40 MLOAD PUSH4 0x6861FC11 PUSH1 0xE0 SHL DUP2 MSTORE PUSH1 0x44 PUSH1 0x4 DUP3 ADD DUP2 SWAP1 MSTORE PUSH1 0x24 DUP3 ADD DUP5 SWAP1 MSTORE PUSH1 0x1 PUSH1 0x1 PUSH1 0xA0 SHL SUB DUP4 AND SWAP1 DUP3 ADD MSTORE PUSH1 0x0 SWAP1 PUSH20 0x0 SWAP1 PUSH4 0x6861FC11 SWAP1 PUSH1 0x64 ADD PUSH2 0x1182 JUMP JUMPDEST PUSH1 0x40 MLOAD PUSH4 0xADFC581B PUSH1 0xE0 SHL DUP2 MSTORE PUSH1 0x44 PUSH1 0x4 DUP3 ADD DUP2 SWAP1 MSTORE PUSH1 0x24 DUP3 ADD DUP5 SWAP1 MSTORE DUP2 ADD DUP3 SWAP1 MSTORE PUSH1 0x0 SWAP1 DUP2 SWAP1 DUP2 SWAP1 PUSH20 0x0 SWAP1 PUSH4 0xADFC581B SWAP1 PUSH1 0x64 ADD PUSH1 0x40 DUP1 MLOAD DUP1 DUP4 SUB DUP2 DUP7 GAS DELEGATECALL ISZERO DUP1 ISZERO PUSH2 0x3072 JUMPI RETURNDATASIZE PUSH1 0x0 DUP1 RETURNDATACOPY RETURNDATASIZE PUSH1 0x0 REVERT JUMPDEST POP POP POP POP PUSH1 0x40 MLOAD RETURNDATASIZE PUSH1 0x1F NOT PUSH1 0x1F DUP3 ADD AND DUP3 ADD DUP1 PUSH1 0x40 MSTORE POP DUP2 ADD SWAP1 PUSH2 0x3096 SWAP2 SWAP1 PUSH2 0x558D JUMP JUMPDEST SWAP2 POP SWAP2 POP DUP4 PUSH2 0x30A2 CALLER SWAP1 JUMP JUMPDEST PUSH1 0x1 PUSH1 0x1 PUSH1 0xA0 SHL SUB AND DUP7 PUSH32 0xA0EAA0025D4F12545803A03C369115C59F885DF7B5FC07A6393438827DBF51B7 DUP5 PUSH1 0x40 MLOAD PUSH2 0x1FF1 SWAP2 DUP2 MSTORE PUSH1 0x20 ADD SWAP1 JUMP JUMPDEST PUSH1 0x40 MLOAD PUSH4 0xCB3DB3A3 PUSH1 0xE0 SHL DUP2 MSTORE PUSH1 0x44 PUSH1 0x4 DUP3 ADD DUP2 SWAP1 MSTORE PUSH1 0x24 DUP3 ADD DUP5 SWAP1 MSTORE DUP2 ADD DUP3 SWAP1 MSTORE PUSH1 0x0 SWAP1 PUSH20 0x0 SWAP1 PUSH4 0xCB3DB3A3 SWAP1 PUSH1 0x64 ADD PUSH2 0x1182 JUMP JUMPDEST PUSH1 0x40 MLOAD PUSH4 0x57DC9383 PUSH1 0xE1 SHL DUP2 MSTORE PUSH1 0x44 PUSH1 0x4 DUP3 ADD DUP2 SWAP1 MSTORE PUSH1 0x1 PUSH1 0x1 PUSH1 0xA0 SHL SUB DUP4 AND PUSH1 0x24 DUP4 ADD MSTORE PUSH1 0x0 SWAP2 PUSH20 0x0 SWAP2 PUSH4 0xAFB92706 SWAP2 ADD PUSH2 0x10C0 JUMP JUMPDEST PUSH1 0x0 PUSH1 0x1 PUSH1 0x1 PUSH1 0xA0 SHL SUB PUSH32 0x0 AND ADDRESS SUB PUSH2 0x31BA JUMPI PUSH1 0x40 MLOAD PUSH3 0x461BCD PUSH1 0xE5 SHL DUP2 MSTORE PUSH1 0x4 ADD PUSH2 0x17E9 SWAP1 PUSH2 0x5454 JUMP JUMPDEST PUSH32 0x0 PUSH1 0x1 PUSH1 0x1 PUSH1 0xA0 SHL SUB AND PUSH2 0x31EC PUSH2 0x3D44 JUMP JUMPDEST PUSH1 0x1 PUSH1 0x1 PUSH1 0xA0 SHL SUB AND EQ PUSH2 0x3212 JUMPI PUSH1 0x40 MLOAD PUSH3 0x461BCD PUSH1 0xE5 SHL DUP2 MSTORE PUSH1 0x4 ADD PUSH2 0x17E9 SWAP1 PUSH2 0x5483 JUMP JUMPDEST PUSH1 0x3 SLOAD PUSH1 0x1 PUSH1 0xA0 SHL SWAP1 DIV PUSH1 0xFF AND ISZERO PUSH2 0x323C JUMPI PUSH1 0x40 MLOAD PUSH3 0x461BCD PUSH1 0xE5 SHL DUP2 MSTORE PUSH1 0x4 ADD PUSH2 0x17E9 SWAP1 PUSH2 0x54B1 JUMP JUMPDEST PUSH2 0x324C PUSH4 0xD9DC1F19 PUSH1 0xE0 SHL PUSH2 0x3D65 JUMP JUMPDEST PUSH2 0x3298 JUMPI PUSH1 0x40 MLOAD PUSH3 0x461BCD PUSH1 0xE5 SHL DUP2 MSTORE PUSH1 0x20 PUSH1 0x4 DUP3 ADD MSTORE PUSH1 0x17 PUSH1 0x24 DUP3 ADD MSTORE PUSH32 0x5365744C6F63616C41646D696E20466F7262696464656E000000000000000000 PUSH1 0x44 DUP3 ADD MSTORE PUSH1 0x64 ADD PUSH2 0x17E9 JUMP JUMPDEST PUSH1 0x1 PUSH1 0x1 PUSH1 0xA0 SHL SUB DUP3 AND PUSH2 0x32E0 JUMPI PUSH1 0x40 MLOAD PUSH3 0x461BCD PUSH1 0xE5 SHL DUP2 MSTORE PUSH1 0x20 PUSH1 0x4 DUP3 ADD MSTORE PUSH1 0xF PUSH1 0x24 DUP3 ADD MSTORE PUSH15 0x1059191C995CDCC8125B9D985B1A59 PUSH1 0x8A SHL PUSH1 0x44 DUP3 ADD MSTORE PUSH1 0x64 ADD PUSH2 0x17E9 JUMP JUMPDEST PUSH2 0x32E9 DUP3 PUSH2 0x433F JUMP JUMPDEST POP PUSH1 0x1 SWAP2 SWAP1 POP JUMP JUMPDEST PUSH1 0x40 MLOAD PUSH4 0x1912CF43 PUSH1 0xE0 SHL DUP2 MSTORE PUSH1 0x44 PUSH1 0x4 DUP3 ADD DUP2 SWAP1 MSTORE PUSH1 0x24 DUP3 ADD DUP5 SWAP1 MSTORE DUP2 ADD DUP3 SWAP1 MSTORE PUSH1 0x0 SWAP1 DUP2 SWAP1 DUP2 SWAP1 PUSH20 0x0 SWAP1 PUSH4 0x1912CF43 SWAP1 PUSH1 0x64 ADD PUSH1 0x40 DUP1 MLOAD DUP1 DUP4 SUB DUP2 DUP7 GAS DELEGATECALL ISZERO DUP1 ISZERO PUSH2 0x3355 JUMPI RETURNDATASIZE PUSH1 0x0 DUP1 RETURNDATACOPY RETURNDATASIZE PUSH1 0x0 REVERT JUMPDEST POP POP POP POP PUSH1 0x40 MLOAD RETURNDATASIZE PUSH1 0x1F NOT PUSH1 0x1F DUP3 ADD AND DUP3 ADD DUP1 PUSH1 0x40 MSTORE POP DUP2 ADD SWAP1 PUSH2 0x3379 SWAP2 SWAP1 PUSH2 0x558D JUMP JUMPDEST SWAP2 POP SWAP2 POP DUP4 DUP6 PUSH2 0x3386 CALLER SWAP1 JUMP JUMPDEST PUSH1 0x1 PUSH1 0x1 PUSH1 0xA0 SHL SUB AND PUSH32 0x970F60A11B3302F55122BDB3E2DE766D28491B40FE0A2A6D04DA71E5AB577CB9 DUP5 PUSH1 0x40 MLOAD PUSH2 0x1FF1 SWAP2 DUP2 MSTORE PUSH1 0x20 ADD SWAP1 JUMP JUMPDEST PUSH1 0x40 MLOAD PUSH4 0x4DF89D6F PUSH1 0xE0 SHL DUP2 MSTORE PUSH1 0x44 PUSH1 0x4 DUP3 ADD DUP2 SWAP1 MSTORE PUSH1 0x24 DUP3 ADD DUP4 SWAP1 MSTORE PUSH1 0x0 SWAP2 PUSH20 0x0 SWAP2 PUSH4 0x4DF89D6F SWAP2 ADD PUSH2 0x10C0 JUMP JUMPDEST PUSH1 0x40 MLOAD PUSH1 0x0 SWAP1 PUSH1 0x1 PUSH1 0x1 PUSH1 0xA0 SHL SUB DUP4 AND SWAP1 DUP5 SWAP1 CALLER SWAP1 PUSH32 0x1D31FE42F06D4C1F16F6CB7B5682F1D6743641A9E1412FA0258F6776C5B943EE SWAP1 DUP6 SWAP1 LOG4 PUSH1 0x40 MLOAD PUSH4 0x91DE53CF PUSH1 0xE0 SHL DUP2 MSTORE PUSH1 0x44 PUSH1 0x4 DUP3 ADD DUP2 SWAP1 MSTORE PUSH1 0x24 DUP3 ADD DUP6 SWAP1 MSTORE PUSH1 0x1 PUSH1 0x1 PUSH1 0xA0 SHL SUB DUP5 AND SWAP1 DUP3 ADD MSTORE PUSH20 0x0 SWAP1 PUSH4 0x91DE53CF SWAP1 PUSH1 0x64 ADD PUSH2 0x1182 JUMP JUMPDEST PUSH1 0x40 MLOAD PUSH4 0x84F27D35 PUSH1 0xE0 SHL DUP2 MSTORE PUSH1 0x44 PUSH1 0x4 DUP3 ADD DUP2 SWAP1 MSTORE PUSH1 0x24 DUP3 ADD DUP4 SWAP1 MSTORE PUSH1 0x60 SWAP2 PUSH20 0x0 SWAP2 PUSH4 0x84F27D35 SWAP2 ADD PUSH1 0x0 PUSH1 0x40 MLOAD DUP1 DUP4 SUB DUP2 DUP7 GAS DELEGATECALL ISZERO DUP1 ISZERO PUSH2 0x34E5 JUMPI RETURNDATASIZE PUSH1 0x0 DUP1 RETURNDATACOPY RETURNDATASIZE PUSH1 0x0 REVERT JUMPDEST POP POP POP POP PUSH1 0x40 MLOAD RETURNDATASIZE PUSH1 0x0 DUP3 RETURNDATACOPY PUSH1 0x1F RETURNDATASIZE SWAP1 DUP2 ADD PUSH1 0x1F NOT AND DUP3 ADD PUSH1 0x40 MSTORE PUSH2 0xF9E SWAP2 SWAP1 DUP2 ADD SWAP1 PUSH2 0x5C12 JUMP JUMPDEST PUSH1 0x40 MLOAD PUSH4 0x580CEA9D PUSH1 0xE1 SHL DUP2 MSTORE PUSH1 0x44 PUSH1 0x4 DUP3 ADD DUP2 SWAP1 MSTORE PUSH1 0x24 DUP3 ADD DUP4 SWAP1 MSTORE PUSH1 0x0 SWAP2 PUSH20 0x0 SWAP2 PUSH4 0xB019D53A SWAP2 ADD PUSH2 0x10C0 JUMP JUMPDEST PUSH1 0x40 MLOAD PUSH4 0x3F75A32D PUSH1 0xE0 SHL DUP2 MSTORE PUSH1 0x44 PUSH1 0x4 DUP3 ADD DUP2 SWAP1 MSTORE PUSH1 0x24 DUP3 ADD DUP5 SWAP1 MSTORE DUP3 ISZERO ISZERO SWAP1 DUP3 ADD MSTORE PUSH1 0x0 SWAP1 DUP2 SWAP1 DUP2 SWAP1 PUSH20 0x0 SWAP1 PUSH4 0x3F75A32D SWAP1 PUSH1 0x64 ADD PUSH1 0x40 DUP1 MLOAD DUP1 DUP4 SUB DUP2 DUP7 GAS DELEGATECALL ISZERO DUP1 ISZERO PUSH2 0x35B5 JUMPI RETURNDATASIZE PUSH1 0x0 DUP1 RETURNDATACOPY RETURNDATASIZE PUSH1 0x0 REVERT JUMPDEST POP POP POP POP PUSH1 0x40 MLOAD RETURNDATASIZE PUSH1 0x1F NOT PUSH1 0x1F DUP3 ADD AND DUP3 ADD DUP1 PUSH1 0x40 MSTORE POP DUP2 ADD SWAP1 PUSH2 0x35D9 SWAP2 SWAP1 PUSH2 0x558D JUMP JUMPDEST SWAP2 POP SWAP2 POP DUP1 DUP6 PUSH2 0x35E6 CALLER SWAP1 JUMP JUMPDEST PUSH1 0x1 PUSH1 0x1 PUSH1 0xA0 SHL SUB AND PUSH32 0xAAF3A0E62C1102E283A5A18E81D678B9CE6F4F043CC7AFAFEE4F7F82B85330A2 DUP8 PUSH1 0x40 MLOAD PUSH2 0x1FF1 SWAP2 ISZERO ISZERO DUP2 MSTORE PUSH1 0x20 ADD SWAP1 JUMP JUMPDEST PUSH1 0x40 MLOAD PUSH4 0x648E910B PUSH1 0xE1 SHL DUP2 MSTORE PUSH1 0x44 PUSH1 0x4 DUP3 ADD DUP2 SWAP1 MSTORE PUSH1 0x24 DUP3 ADD DUP4 SWAP1 MSTORE PUSH1 0x60 SWAP2 PUSH20 0x0 SWAP2 PUSH4 0xC91D2216 SWAP2 ADD PUSH2 0x1349 JUMP JUMPDEST PUSH1 0x0 DUP1 PUSH1 0x0 PUSH20 0x0 PUSH4 0x6DA4C23C PUSH1 0x44 DUP10 DUP10 DUP10 DUP10 PUSH1 0x40 MLOAD DUP7 PUSH4 0xFFFFFFFF AND PUSH1 0xE0 SHL DUP2 MSTORE PUSH1 0x4 ADD PUSH2 0x36A9 SWAP6 SWAP5 SWAP4 SWAP3 SWAP2 SWAP1 PUSH2 0x5CA0 JUMP JUMPDEST PUSH1 0x40 DUP1 MLOAD DUP1 DUP4 SUB DUP2 DUP7 GAS DELEGATECALL ISZERO DUP1 ISZERO PUSH2 0x36C5 JUMPI RETURNDATASIZE PUSH1 0x0 DUP1 RETURNDATACOPY RETURNDATASIZE PUSH1 0x0 REVERT JUMPDEST POP POP POP POP PUSH1 0x40 MLOAD RETURNDATASIZE PUSH1 0x1F NOT PUSH1 0x1F DUP3 ADD AND DUP3 ADD DUP1 PUSH1 0x40 MSTORE POP DUP2 ADD SWAP1 PUSH2 0x36E9 SWAP2 SWAP1 PUSH2 0x5CDC JUMP JUMPDEST SWAP1 SWAP3 POP SWAP1 POP PUSH1 0x1 PUSH1 0x1 PUSH1 0xA0 SHL SUB DUP2 AND PUSH2 0x3708 PUSH1 0x80 DUP9 ADD PUSH1 0x60 DUP10 ADD PUSH2 0x48B3 JUMP JUMPDEST PUSH1 0x1 PUSH1 0x1 PUSH1 0xA0 SHL SUB AND DUP4 PUSH32 0x2A2B33FD7E66815F7A7BEA7D796D5C587E39EFD4B142C4A9AB63B8BECC98FEB4 CALLER PUSH1 0x40 DUP1 MLOAD PUSH1 0x1 PUSH1 0x1 PUSH1 0xA0 SHL SUB SWAP1 SWAP3 AND DUP3 MSTORE DUP1 DUP13 ADD CALLDATALOAD PUSH1 0x20 DUP4 ADD MSTORE ADD PUSH2 0x2213 JUMP JUMPDEST PUSH1 0x0 CALLER PUSH1 0x1 PUSH1 0x1 PUSH1 0xA0 SHL SUB AND DUP4 PUSH32 0x552CE1FC1BC82A48CDC0636FF7162480D868C590F2E57C63C30A944F3A82EC36 DUP5 PUSH1 0x40 MLOAD PUSH2 0x3794 SWAP2 ISZERO ISZERO DUP2 MSTORE PUSH1 0x20 ADD SWAP1 JUMP JUMPDEST PUSH1 0x40 MLOAD DUP1 SWAP2 SUB SWAP1 LOG3 PUSH1 0x40 MLOAD PUSH4 0x2EFEE307 PUSH1 0xE2 SHL DUP2 MSTORE PUSH1 0x44 PUSH1 0x4 DUP3 ADD DUP2 SWAP1 MSTORE PUSH1 0x24 DUP3 ADD DUP6 SWAP1 MSTORE DUP4 ISZERO ISZERO SWAP1 DUP3 ADD MSTORE PUSH20 0x0 SWAP1 PUSH4 0xBBFB8C1C SWAP1 PUSH1 0x64 ADD PUSH2 0x1182 JUMP JUMPDEST PUSH1 0x40 DUP1 MLOAD PUSH1 0xFF DUP4 AND DUP2 MSTORE SWAP1 MLOAD PUSH1 0x0 SWAP2 CALLER SWAP2 PUSH32 0x960D53199A5E0EFFAFCDE238935A58206C3A64102541269042311AE105E2BDD2 SWAP2 DUP2 SWAP1 SUB PUSH1 0x20 ADD SWAP1 LOG2 PUSH1 0x40 MLOAD PUSH4 0xC08877B PUSH1 0xE2 SHL DUP2 MSTORE PUSH1 0x44 PUSH1 0x4 DUP3 ADD DUP2 SWAP1 MSTORE PUSH1 0xFF DUP5 AND PUSH1 0x24 DUP4 ADD MSTORE PUSH20 0x0 SWAP2 PUSH4 0x30221DEC SWAP2 ADD PUSH2 0x10C0 JUMP JUMPDEST PUSH1 0x40 MLOAD PUSH4 0x343F6E09 PUSH1 0xE1 SHL DUP2 MSTORE PUSH1 0x44 PUSH1 0x4 DUP3 ADD DUP2 SWAP1 MSTORE PUSH1 0x24 DUP3 ADD DUP5 SWAP1 MSTORE DUP2 ADD DUP3 SWAP1 MSTORE PUSH1 0x0 SWAP1 PUSH20 0x0 SWAP1 PUSH4 0x687EDC12 SWAP1 PUSH1 0x64 ADD PUSH2 0x1182 JUMP JUMPDEST PUSH1 0x0 PUSH2 0x139D PUSH1 0x0 DUP1 SLOAD PUSH1 0x1 SLOAD PUSH1 0x40 DUP1 MLOAD PUSH32 0x8B73C3C69BB8FE3D512ECC4CF759CC79239F7B179B0FFACAA9A75D522B39400F PUSH1 0x20 DUP3 ADD MSTORE SWAP1 DUP2 ADD SWAP3 SWAP1 SWAP3 MSTORE PUSH1 0x60 DUP3 ADD MSTORE CHAINID PUSH1 0x80 DUP3 ADD MSTORE ADDRESS PUSH1 0xA0 DUP3 ADD MSTORE PUSH1 0xC0 ADD PUSH1 0x40 MLOAD PUSH1 0x20 DUP2 DUP4 SUB SUB DUP2 MSTORE SWAP1 PUSH1 0x40 MSTORE DUP1 MLOAD SWAP1 PUSH1 0x20 ADD KECCAK256 SWAP1 POP SWAP1 JUMP JUMPDEST PUSH1 0x0 PUSH2 0x139D PUSH2 0x43B6 JUMP JUMPDEST PUSH1 0x1 PUSH1 0x1 PUSH1 0xA0 SHL SUB PUSH32 0x0 AND ADDRESS SUB PUSH2 0x3967 JUMPI PUSH1 0x40 MLOAD PUSH3 0x461BCD PUSH1 0xE5 SHL DUP2 MSTORE PUSH1 0x4 ADD PUSH2 0x17E9 SWAP1 PUSH2 0x5454 JUMP JUMPDEST PUSH32 0x0 PUSH1 0x1 PUSH1 0x1 PUSH1 0xA0 SHL SUB AND PUSH2 0x3999 PUSH2 0x3D44 JUMP JUMPDEST PUSH1 0x1 PUSH1 0x1 PUSH1 0xA0 SHL SUB AND EQ PUSH2 0x39BF JUMPI PUSH1 0x40 MLOAD PUSH3 0x461BCD PUSH1 0xE5 SHL DUP2 MSTORE PUSH1 0x4 ADD PUSH2 0x17E9 SWAP1 PUSH2 0x5483 JUMP JUMPDEST CALLER PUSH2 0x39C8 PUSH2 0x43B6 JUMP JUMPDEST PUSH1 0x1 PUSH1 0x1 PUSH1 0xA0 SHL SUB AND EQ PUSH2 0x3A16 JUMPI PUSH1 0x40 MLOAD PUSH3 0x461BCD PUSH1 0xE5 SHL DUP2 MSTORE PUSH1 0x20 PUSH1 0x4 DUP3 ADD MSTORE PUSH1 0x15 PUSH1 0x24 DUP3 ADD MSTORE PUSH21 0x10D85B1B195C88139BDD08105D5D1A1BDC9A5E9959 PUSH1 0x5A SHL PUSH1 0x44 DUP3 ADD MSTORE PUSH1 0x64 ADD PUSH2 0x17E9 JUMP JUMPDEST PUSH1 0x4A SLOAD PUSH3 0x10000 SWAP1 DIV PUSH1 0xFF AND ISZERO DUP1 DUP1 ISZERO PUSH2 0x3A38 JUMPI POP PUSH1 0x4A SLOAD PUSH1 0x1 PUSH2 0xFFFF SWAP1 SWAP2 AND LT JUMPDEST DUP1 PUSH2 0x3A53 JUMPI POP ADDRESS EXTCODESIZE ISZERO DUP1 ISZERO PUSH2 0x3A53 JUMPI POP PUSH1 0x4A SLOAD PUSH2 0xFFFF AND PUSH1 0x1 EQ JUMPDEST PUSH2 0x3A9F JUMPI PUSH1 0x40 MLOAD PUSH3 0x461BCD PUSH1 0xE5 SHL DUP2 MSTORE PUSH1 0x20 PUSH1 0x4 DUP3 ADD MSTORE PUSH1 0x1C PUSH1 0x24 DUP3 ADD MSTORE PUSH32 0x436F6E747261637420416C726561647920496E697469616C697A656400000000 PUSH1 0x44 DUP3 ADD MSTORE PUSH1 0x64 ADD PUSH2 0x17E9 JUMP JUMPDEST PUSH1 0x4A DUP1 SLOAD PUSH2 0xFFFF NOT AND PUSH1 0x1 OR SWAP1 SSTORE DUP1 ISZERO PUSH2 0x3AC5 JUMPI PUSH1 0x4A DUP1 SLOAD PUSH3 0xFF0000 NOT AND PUSH3 0x10000 OR SWAP1 SSTORE JUMPDEST PUSH1 0x0 DUP6 DUP6 PUSH1 0x40 MLOAD PUSH1 0x20 ADD PUSH2 0x3ADA SWAP3 SWAP2 SWAP1 PUSH2 0x5AEF JUMP JUMPDEST PUSH1 0x40 DUP1 MLOAD DUP1 DUP4 SUB PUSH1 0x1F NOT ADD DUP2 MSTORE SWAP1 DUP3 SWAP1 MSTORE DUP1 MLOAD PUSH1 0x20 SWAP1 SWAP2 ADD KECCAK256 PUSH4 0x13F4F37F PUSH1 0xE3 SHL DUP3 MSTORE PUSH1 0x44 PUSH1 0x4 DUP4 ADD MSTORE SWAP2 POP PUSH20 0x0 SWAP1 PUSH4 0x9FA79BF8 SWAP1 PUSH1 0x24 ADD PUSH1 0x0 PUSH1 0x40 MLOAD DUP1 DUP4 SUB DUP2 DUP7 DUP1 EXTCODESIZE ISZERO DUP1 ISZERO PUSH2 0x3B3D JUMPI PUSH1 0x0 DUP1 REVERT JUMPDEST POP GAS DELEGATECALL ISZERO DUP1 ISZERO PUSH2 0x3B51 JUMPI RETURNDATASIZE PUSH1 0x0 DUP1 RETURNDATACOPY RETURNDATASIZE PUSH1 0x0 REVERT JUMPDEST POP POP POP POP PUSH2 0x3B63 DUP11 DUP11 DUP11 DUP11 DUP6 DUP10 PUSH2 0x43DE JUMP JUMPDEST PUSH1 0x0 PUSH20 0x0 PUSH4 0x62F3C2D4 PUSH1 0x40 MLOAD DUP2 PUSH4 0xFFFFFFFF AND PUSH1 0xE0 SHL DUP2 MSTORE PUSH1 0x4 ADD PUSH1 0x0 PUSH1 0x40 MLOAD DUP1 DUP4 SUB DUP2 DUP7 GAS DELEGATECALL ISZERO DUP1 ISZERO PUSH2 0x3BAE JUMPI RETURNDATASIZE PUSH1 0x0 DUP1 RETURNDATACOPY RETURNDATASIZE PUSH1 0x0 REVERT JUMPDEST POP POP POP POP PUSH1 0x40 MLOAD RETURNDATASIZE PUSH1 0x0 DUP3 RETURNDATACOPY PUSH1 0x1F RETURNDATASIZE SWAP1 DUP2 ADD PUSH1 0x1F NOT AND DUP3 ADD PUSH1 0x40 MSTORE PUSH2 0x3BD6 SWAP2 SWAP1 DUP2 ADD SWAP1 PUSH2 0x5D01 JUMP JUMPDEST PUSH1 0x40 MLOAD PUSH4 0xA64C0BB PUSH1 0xE4 SHL DUP2 MSTORE SWAP1 SWAP2 POP PUSH20 0x0 SWAP1 PUSH4 0xA64C0BB0 SWAP1 PUSH2 0x3C17 SWAP1 PUSH1 0x44 SWAP1 ADDRESS SWAP1 DUP8 SWAP1 DUP8 SWAP1 PUSH1 0x4 ADD PUSH2 0x5DF7 JUMP JUMPDEST PUSH1 0x20 PUSH1 0x40 MLOAD DUP1 DUP4 SUB DUP2 DUP7 GAS DELEGATECALL ISZERO DUP1 ISZERO PUSH2 0x3C34 JUMPI RETURNDATASIZE PUSH1 0x0 DUP1 RETURNDATACOPY RETURNDATASIZE PUSH1 0x0 REVERT JUMPDEST POP POP POP POP PUSH1 0x40 MLOAD RETURNDATASIZE PUSH1 0x1F NOT PUSH1 0x1F DUP3 ADD AND DUP3 ADD DUP1 PUSH1 0x40 MSTORE POP DUP2 ADD SWAP1 PUSH2 0x3C58 SWAP2 SWAP1 PUSH2 0x515E JUMP JUMPDEST POP PUSH1 0x49 DUP1 SLOAD PUSH1 0xFF NOT AND PUSH1 0xFF DUP7 AND OR SWAP1 SSTORE PUSH2 0x3C70 PUSH2 0x3D44 JUMP JUMPDEST PUSH1 0x1 PUSH1 0x1 PUSH1 0xA0 SHL SUB AND ADDRESS CALLER PUSH1 0x1 PUSH1 0x1 PUSH1 0xA0 SHL SUB AND PUSH32 0xF851A1E85477B818FC72AD517EA622CC316F10F67D61C9E740ADC151A8B41394 DUP15 DUP15 DUP15 DUP15 DUP10 PUSH2 0x3CB7 PUSH1 0x4A SLOAD PUSH2 0xFFFF AND SWAP1 JUMP JUMPDEST PUSH1 0x40 MLOAD PUSH2 0x3CC9 SWAP7 SWAP6 SWAP5 SWAP4 SWAP3 SWAP2 SWAP1 PUSH2 0x5ECF JUMP JUMPDEST PUSH1 0x40 MLOAD DUP1 SWAP2 SUB SWAP1 LOG4 POP POP DUP1 ISZERO PUSH2 0x3CE6 JUMPI PUSH1 0x4A DUP1 SLOAD PUSH3 0xFF0000 NOT AND SWAP1 SSTORE JUMPDEST POP POP POP POP POP POP POP POP POP JUMP JUMPDEST SWAP1 JUMP JUMPDEST PUSH1 0x0 PUSH1 0x1 PUSH1 0x1 PUSH1 0xE0 SHL SUB NOT DUP3 AND PUSH4 0x14751DBF PUSH1 0xE0 SHL EQ DUP1 PUSH2 0x3D25 JUMPI POP PUSH1 0x1 PUSH1 0x1 PUSH1 0xE0 SHL SUB NOT DUP3 AND PUSH4 0x52D1902D PUSH1 0xE0 SHL EQ JUMPDEST DUP1 PUSH2 0xF9E JUMPI POP PUSH4 0x1FFC9A7 PUSH1 0xE0 SHL PUSH1 0x1 PUSH1 0x1 PUSH1 0xE0 SHL SUB NOT DUP4 AND EQ PUSH2 0xF9E JUMP JUMPDEST PUSH1 0x0 PUSH1 0x0 DUP1 MLOAD PUSH1 0x20 PUSH2 0x5F88 DUP4 CODECOPY DUP2 MLOAD SWAP2 MSTORE JUMPDEST SLOAD PUSH1 0x1 PUSH1 0x1 PUSH1 0xA0 SHL SUB AND SWAP2 SWAP1 POP JUMP JUMPDEST PUSH1 0x3 SLOAD PUSH1 0x0 SWAP1 PUSH1 0x1 PUSH1 0x1 PUSH1 0xA0 SHL SUB AND ADDRESS SUB PUSH2 0x3E53 JUMPI PUSH1 0x0 PUSH4 0x63D59CF3 PUSH1 0xE1 SHL PUSH2 0x3D8D ADDRESS PUSH2 0x4300 JUMP JUMPDEST CALLER DUP6 PUSH1 0x40 MLOAD PUSH1 0x24 ADD PUSH2 0x3DA1 SWAP4 SWAP3 SWAP2 SWAP1 PUSH2 0x5F14 JUMP JUMPDEST PUSH1 0x40 DUP1 MLOAD PUSH1 0x1F NOT DUP2 DUP5 SUB ADD DUP2 MSTORE SWAP2 SWAP1 MSTORE PUSH1 0x20 DUP2 ADD DUP1 MLOAD PUSH1 0x1 PUSH1 0x1 PUSH1 0xE0 SHL SUB AND PUSH1 0x1 PUSH1 0x1 PUSH1 0xE0 SHL SUB NOT SWAP1 SWAP4 AND SWAP3 SWAP1 SWAP3 OR SWAP1 SWAP2 MSTORE SWAP1 POP PUSH1 0x0 PUSH2 0x3E1E PUSH2 0x3DE2 PUSH2 0x3D44 JUMP JUMPDEST DUP4 PUSH1 0x40 MLOAD DUP1 PUSH1 0x40 ADD PUSH1 0x40 MSTORE DUP1 PUSH1 0x1D DUP2 MSTORE PUSH1 0x20 ADD PUSH32 0x44656C656761746563616C6C20686173416363657373204661696C6564000000 DUP2 MSTORE POP PUSH2 0x43F4 JUMP JUMPDEST SWAP1 POP DUP1 PUSH1 0x1 DUP3 MLOAD PUSH2 0x3E2F SWAP2 SWAP1 PUSH2 0x5F3D JUMP JUMPDEST DUP2 MLOAD DUP2 LT PUSH2 0x3E3F JUMPI PUSH2 0x3E3F PUSH2 0x53C2 JUMP JUMPDEST PUSH1 0x20 SWAP2 ADD ADD MLOAD PUSH1 0xF8 SHR PUSH1 0x1 EQ SWAP5 SWAP4 POP POP POP POP JUMP JUMPDEST PUSH1 0x3 SLOAD PUSH1 0x1 PUSH1 0x1 PUSH1 0xA0 SHL SUB AND PUSH4 0xC7AB39E6 PUSH2 0x3E6D ADDRESS PUSH2 0x4300 JUMP JUMPDEST CALLER DUP6 PUSH1 0x40 MLOAD DUP5 PUSH4 0xFFFFFFFF AND PUSH1 0xE0 SHL DUP2 MSTORE PUSH1 0x4 ADD PUSH2 0x3E8D SWAP4 SWAP3 SWAP2 SWAP1 PUSH2 0x5F14 JUMP JUMPDEST PUSH1 0x20 PUSH1 0x40 MLOAD DUP1 DUP4 SUB DUP2 DUP7 GAS STATICCALL ISZERO DUP1 ISZERO PUSH2 0x10DD JUMPI RETURNDATASIZE PUSH1 0x0 DUP1 RETURNDATACOPY RETURNDATASIZE PUSH1 0x0 REVERT JUMPDEST PUSH1 0x3 SLOAD PUSH1 0x0 SWAP1 PUSH1 0x1 PUSH1 0x1 PUSH1 0xA0 SHL SUB AND ADDRESS SUB PUSH2 0x3F72 JUMPI PUSH1 0x0 PUSH4 0xE25D75F0 PUSH1 0xE0 SHL PUSH1 0x2 SLOAD PUSH1 0x40 MLOAD PUSH1 0x24 ADD PUSH2 0x3EDE SWAP2 DUP2 MSTORE PUSH1 0x20 ADD SWAP1 JUMP JUMPDEST PUSH1 0x40 DUP1 MLOAD PUSH1 0x1F NOT DUP2 DUP5 SUB ADD DUP2 MSTORE SWAP2 SWAP1 MSTORE PUSH1 0x20 DUP2 ADD DUP1 MLOAD PUSH1 0x1 PUSH1 0x1 PUSH1 0xE0 SHL SUB AND PUSH1 0x1 PUSH1 0x1 PUSH1 0xE0 SHL SUB NOT SWAP1 SWAP4 AND SWAP3 SWAP1 SWAP3 OR SWAP1 SWAP2 MSTORE SWAP1 POP PUSH1 0x0 PUSH2 0x3F3E PUSH2 0x3F1F PUSH2 0x3D44 JUMP JUMPDEST DUP4 PUSH1 0x40 MLOAD DUP1 PUSH1 0x60 ADD PUSH1 0x40 MSTORE DUP1 PUSH1 0x25 DUP2 MSTORE PUSH1 0x20 ADD PUSH2 0x5F63 PUSH1 0x25 SWAP2 CODECOPY PUSH2 0x43F4 JUMP JUMPDEST SWAP1 POP DUP1 PUSH1 0x1 DUP3 MLOAD PUSH2 0x3F4F SWAP2 SWAP1 PUSH2 0x5F3D JUMP JUMPDEST DUP2 MLOAD DUP2 LT PUSH2 0x3F5F JUMPI PUSH2 0x3F5F PUSH2 0x53C2 JUMP JUMPDEST PUSH1 0x20 SWAP2 ADD ADD MLOAD PUSH1 0xF8 SHR PUSH1 0x1 EQ SWAP4 SWAP3 POP POP POP JUMP JUMPDEST PUSH1 0x3 SLOAD PUSH1 0x2 SLOAD PUSH1 0x40 MLOAD PUSH4 0xE25D75F PUSH1 0xE4 SHL DUP2 MSTORE PUSH1 0x1 PUSH1 0x1 PUSH1 0xA0 SHL SUB SWAP1 SWAP3 AND SWAP2 PUSH4 0xE25D75F0 SWAP2 PUSH2 0x3FA7 SWAP2 PUSH1 0x4 ADD SWAP1 DUP2 MSTORE PUSH1 0x20 ADD SWAP1 JUMP JUMPDEST PUSH1 0x20 PUSH1 0x40 MLOAD DUP1 DUP4 SUB DUP2 DUP7 GAS STATICCALL ISZERO DUP1 ISZERO PUSH2 0x3FC4 JUMPI RETURNDATASIZE PUSH1 0x0 DUP1 RETURNDATACOPY RETURNDATASIZE PUSH1 0x0 REVERT JUMPDEST POP POP POP POP PUSH1 0x40 MLOAD RETURNDATASIZE PUSH1 0x1F NOT PUSH1 0x1F DUP3 ADD AND DUP3 ADD DUP1 PUSH1 0x40 MSTORE POP DUP2 ADD SWAP1 PUSH2 0x139D SWAP2 SWAP1 PUSH2 0x5191 JUMP JUMPDEST PUSH2 0x3FF0 PUSH2 0x3D44 JUMP JUMPDEST PUSH1 0x1 PUSH1 0x1 PUSH1 0xA0 SHL SUB AND DUP2 PUSH1 0x1 PUSH1 0x1 PUSH1 0xA0 SHL SUB AND SUB PUSH2 0x4050 JUMPI PUSH1 0x40 MLOAD PUSH3 0x461BCD PUSH1 0xE5 SHL DUP2 MSTORE PUSH1 0x20 PUSH1 0x4 DUP3 ADD MSTORE PUSH1 0x1A PUSH1 0x24 DUP3 ADD MSTORE PUSH32 0x496C6C6567616C204E657720496D706C656D656E746174696F6E000000000000 PUSH1 0x44 DUP3 ADD MSTORE PUSH1 0x64 ADD PUSH2 0x17E9 JUMP JUMPDEST PUSH2 0x4060 PUSH4 0x7147855D PUSH1 0xE0 SHL PUSH2 0x3D65 JUMP JUMPDEST PUSH2 0x40AC JUMPI PUSH1 0x40 MLOAD PUSH3 0x461BCD PUSH1 0xE5 SHL DUP2 MSTORE PUSH1 0x20 PUSH1 0x4 DUP3 ADD MSTORE PUSH1 0x19 PUSH1 0x24 DUP3 ADD MSTORE PUSH32 0x5570677261646520436F6E7465787420466F7262696464656E00000000000000 PUSH1 0x44 DUP3 ADD MSTORE PUSH1 0x64 ADD PUSH2 0x17E9 JUMP JUMPDEST POP JUMP JUMPDEST PUSH1 0x60 PUSH32 0x4910FDFA16FED3260ED0E7147F7CC6DA11A60208B5B9406D12A635614FFD9143 SLOAD PUSH1 0xFF AND ISZERO PUSH2 0x40F9 JUMPI PUSH2 0x40E4 DUP5 PUSH2 0x44BD JUMP JUMPDEST POP PUSH1 0x40 DUP1 MLOAD PUSH1 0x0 DUP2 MSTORE PUSH1 0x20 DUP2 ADD SWAP1 SWAP2 MSTORE PUSH2 0x1073 JUMP JUMPDEST DUP4 PUSH1 0x1 PUSH1 0x1 PUSH1 0xA0 SHL SUB AND PUSH4 0x52D1902D PUSH1 0x40 MLOAD DUP2 PUSH4 0xFFFFFFFF AND PUSH1 0xE0 SHL DUP2 MSTORE PUSH1 0x4 ADD PUSH1 0x20 PUSH1 0x40 MLOAD DUP1 DUP4 SUB DUP2 DUP7 GAS STATICCALL SWAP3 POP POP POP DUP1 ISZERO PUSH2 0x4153 JUMPI POP PUSH1 0x40 DUP1 MLOAD PUSH1 0x1F RETURNDATASIZE SWAP1 DUP2 ADD PUSH1 0x1F NOT AND DUP3 ADD SWAP1 SWAP3 MSTORE PUSH2 0x4150 SWAP2 DUP2 ADD SWAP1 PUSH2 0x515E JUMP JUMPDEST PUSH1 0x1 JUMPDEST PUSH2 0x4197 JUMPI PUSH1 0x40 MLOAD PUSH3 0x461BCD PUSH1 0xE5 SHL DUP2 MSTORE PUSH1 0x20 PUSH1 0x4 DUP3 ADD MSTORE PUSH1 0x15 PUSH1 0x24 DUP3 ADD MSTORE PUSH21 0x125B1B1959D85B0815555414C810DBDB9D1C9858DD PUSH1 0x5A SHL PUSH1 0x44 DUP3 ADD MSTORE PUSH1 0x64 ADD PUSH2 0x17E9 JUMP JUMPDEST PUSH1 0x0 DUP1 MLOAD PUSH1 0x20 PUSH2 0x5F88 DUP4 CODECOPY DUP2 MLOAD SWAP2 MSTORE DUP2 EQ PUSH2 0x41EC JUMPI PUSH1 0x40 MLOAD PUSH3 0x461BCD PUSH1 0xE5 SHL DUP2 MSTORE PUSH1 0x20 PUSH1 0x4 DUP3 ADD MSTORE PUSH1 0x15 PUSH1 0x24 DUP3 ADD MSTORE PUSH21 0x125B9D985B1A590815555414C810DBDB9D1C9858DD PUSH1 0x5A SHL PUSH1 0x44 DUP3 ADD MSTORE PUSH1 0x64 ADD PUSH2 0x17E9 JUMP JUMPDEST POP PUSH1 0x40 MLOAD PUSH4 0x1FFC9A7 PUSH1 0xE0 SHL DUP2 MSTORE PUSH4 0x14751DBF PUSH1 0xE0 SHL PUSH1 0x4 DUP3 ADD MSTORE PUSH1 0x1 PUSH1 0x1 PUSH1 0xA0 SHL SUB DUP6 AND SWAP1 PUSH4 0x1FFC9A7 SWAP1 PUSH1 0x24 ADD PUSH1 0x20 PUSH1 0x40 MLOAD DUP1 DUP4 SUB DUP2 DUP7 GAS STATICCALL SWAP3 POP POP POP DUP1 ISZERO PUSH2 0x4254 JUMPI POP PUSH1 0x40 DUP1 MLOAD PUSH1 0x1F RETURNDATASIZE SWAP1 DUP2 ADD PUSH1 0x1F NOT AND DUP3 ADD SWAP1 SWAP3 MSTORE PUSH2 0x4251 SWAP2 DUP2 ADD SWAP1 PUSH2 0x5191 JUMP JUMPDEST PUSH1 0x1 JUMPDEST PUSH2 0x42A0 JUMPI PUSH1 0x40 MLOAD PUSH3 0x461BCD PUSH1 0xE5 SHL DUP2 MSTORE PUSH1 0x20 PUSH1 0x4 DUP3 ADD MSTORE PUSH1 0x17 PUSH1 0x24 DUP3 ADD MSTORE PUSH32 0x496C6C6567616C204950726F787920436F6E7472616374000000000000000000 PUSH1 0x44 DUP3 ADD MSTORE PUSH1 0x64 ADD PUSH2 0x17E9 JUMP JUMPDEST DUP1 PUSH2 0x42ED JUMPI PUSH1 0x40 MLOAD PUSH3 0x461BCD PUSH1 0xE5 SHL DUP2 MSTORE PUSH1 0x20 PUSH1 0x4 DUP3 ADD MSTORE PUSH1 0x17 PUSH1 0x24 DUP3 ADD MSTORE PUSH32 0x496E76616C6964204950726F787920436F6E7472616374000000000000000000 PUSH1 0x44 DUP3 ADD MSTORE PUSH1 0x64 ADD PUSH2 0x17E9 JUMP JUMPDEST POP PUSH2 0x42F9 DUP5 DUP5 DUP5 PUSH2 0x453E JUMP JUMPDEST SWAP1 POP PUSH2 0x1073 JUMP JUMPDEST PUSH1 0x40 MLOAD PUSH12 0xFFFFFFFFFFFFFFFFFFFFFFFF NOT PUSH1 0x60 DUP4 SWAP1 SHL AND PUSH1 0x20 DUP3 ADD MSTORE PUSH1 0x0 SWAP1 PUSH1 0x34 ADD PUSH1 0x40 MLOAD PUSH1 0x20 DUP2 DUP4 SUB SUB DUP2 MSTORE SWAP1 PUSH1 0x40 MSTORE DUP1 MLOAD SWAP1 PUSH1 0x20 ADD KECCAK256 SWAP1 POP SWAP2 SWAP1 POP JUMP JUMPDEST PUSH32 0xB53127684A568B3173AE13B9F8A6016E243E63B6E8EE1178D6A717850B5D6103 DUP1 SLOAD PUSH1 0x1 PUSH1 0x1 PUSH1 0xA0 SHL SUB DUP4 AND PUSH1 0x1 PUSH1 0x1 PUSH1 0xA0 SHL SUB NOT SWAP1 SWAP2 AND DUP2 OR SWAP1 SWAP2 SSTORE PUSH1 0x40 DUP1 MLOAD SWAP2 DUP3 MSTORE MLOAD ADDRESS SWAP2 CALLER SWAP2 PUSH32 0x54AB0D18DE7958786BA1AD85966D59BAA2B395455F0530DCDCFD732E6AF539E2 SWAP2 DUP2 SWAP1 SUB PUSH1 0x20 ADD SWAP1 LOG3 POP JUMP JUMPDEST PUSH1 0x0 PUSH32 0xB53127684A568B3173AE13B9F8A6016E243E63B6E8EE1178D6A717850B5D6103 PUSH2 0x3D56 JUMP JUMPDEST PUSH2 0x43EC DUP7 DUP7 DUP7 DUP7 DUP7 DUP7 PUSH2 0x45A8 JUMP JUMPDEST POP POP POP POP POP POP JUMP JUMPDEST PUSH1 0x60 PUSH1 0x1 PUSH1 0x1 PUSH1 0xA0 SHL SUB DUP5 AND EXTCODESIZE PUSH2 0x4448 JUMPI PUSH1 0x40 MLOAD PUSH3 0x461BCD PUSH1 0xE5 SHL DUP2 MSTORE PUSH1 0x20 PUSH1 0x4 DUP3 ADD MSTORE PUSH1 0x18 PUSH1 0x24 DUP3 ADD MSTORE PUSH24 0x496C6C6567616C20436F6E74726163742041646472657373 PUSH1 0x40 SHL PUSH1 0x44 DUP3 ADD MSTORE PUSH1 0x64 ADD PUSH2 0x17E9 JUMP JUMPDEST PUSH1 0x0 DUP1 DUP6 PUSH1 0x1 PUSH1 0x1 PUSH1 0xA0 SHL SUB AND DUP6 PUSH1 0x40 MLOAD PUSH2 0x4463 SWAP2 SWAP1 PUSH2 0x5F50 JUMP JUMPDEST PUSH1 0x0 PUSH1 0x40 MLOAD DUP1 DUP4 SUB DUP2 DUP6 GAS DELEGATECALL SWAP2 POP POP RETURNDATASIZE DUP1 PUSH1 0x0 DUP2 EQ PUSH2 0x449E JUMPI PUSH1 0x40 MLOAD SWAP2 POP PUSH1 0x1F NOT PUSH1 0x3F RETURNDATASIZE ADD AND DUP3 ADD PUSH1 0x40 MSTORE RETURNDATASIZE DUP3 MSTORE RETURNDATASIZE PUSH1 0x0 PUSH1 0x20 DUP5 ADD RETURNDATACOPY PUSH2 0x44A3 JUMP JUMPDEST PUSH1 0x60 SWAP2 POP JUMPDEST POP SWAP2 POP SWAP2 POP PUSH2 0x44B3 DUP3 DUP3 DUP7 PUSH2 0x47B6 JUMP JUMPDEST SWAP7 SWAP6 POP POP POP POP POP POP JUMP JUMPDEST PUSH1 0x1 PUSH1 0x1 PUSH1 0xA0 SHL SUB DUP2 AND EXTCODESIZE PUSH2 0x450F JUMPI PUSH1 0x40 MLOAD PUSH3 0x461BCD PUSH1 0xE5 SHL DUP2 MSTORE PUSH1 0x20 PUSH1 0x4 DUP3 ADD MSTORE PUSH1 0x18 PUSH1 0x24 DUP3 ADD MSTORE PUSH24 0x496C6C6567616C20436F6E74726163742041646472657373 PUSH1 0x40 SHL PUSH1 0x44 DUP3 ADD MSTORE PUSH1 0x64 ADD PUSH2 0x17E9 JUMP JUMPDEST PUSH1 0x0 DUP1 MLOAD PUSH1 0x20 PUSH2 0x5F88 DUP4 CODECOPY DUP2 MLOAD SWAP2 MSTORE DUP1 SLOAD PUSH1 0x1 PUSH1 0x1 PUSH1 0xA0 SHL SUB NOT AND PUSH1 0x1 PUSH1 0x1 PUSH1 0xA0 SHL SUB SWAP3 SWAP1 SWAP3 AND SWAP2 SWAP1 SWAP2 OR SWAP1 SSTORE JUMP JUMPDEST PUSH1 0x60 PUSH2 0x4549 DUP5 PUSH2 0x47EF JUMP JUMPDEST PUSH1 0x0 DUP4 MLOAD GT DUP1 PUSH2 0x4556 JUMPI POP DUP2 JUMPDEST ISZERO PUSH2 0x4591 JUMPI PUSH2 0x42F9 DUP5 DUP5 PUSH1 0x40 MLOAD DUP1 PUSH1 0x40 ADD PUSH1 0x40 MSTORE DUP1 PUSH1 0x13 DUP2 MSTORE PUSH1 0x20 ADD PUSH19 0x11195B1959D85D1958D85B1B0811985A5B1959 PUSH1 0x6A SHL DUP2 MSTORE POP PUSH2 0x43F4 JUMP JUMPDEST POP POP PUSH1 0x40 DUP1 MLOAD PUSH1 0x0 DUP2 MSTORE PUSH1 0x20 DUP2 ADD SWAP1 SWAP2 MSTORE SWAP3 SWAP2 POP POP JUMP JUMPDEST PUSH1 0x4A SLOAD PUSH3 0x10000 SWAP1 DIV PUSH1 0xFF AND PUSH2 0x4600 JUMPI PUSH1 0x40 MLOAD PUSH3 0x461BCD PUSH1 0xE5 SHL DUP2 MSTORE PUSH1 0x20 PUSH1 0x4 DUP3 ADD MSTORE PUSH1 0x19 PUSH1 0x24 DUP3 ADD MSTORE PUSH32 0x436F6E7472616374204E6F7420496E697469616C697A696E6700000000000000 PUSH1 0x44 DUP3 ADD MSTORE PUSH1 0x64 ADD PUSH2 0x17E9 JUMP JUMPDEST DUP6 DUP6 PUSH1 0x40 MLOAD PUSH1 0x20 ADD PUSH2 0x4613 SWAP3 SWAP2 SWAP1 PUSH2 0x5AEF JUMP JUMPDEST PUSH1 0x40 DUP1 MLOAD PUSH1 0x1F NOT DUP2 DUP5 SUB ADD DUP2 MSTORE SWAP1 DUP3 SWAP1 MSTORE DUP1 MLOAD PUSH1 0x20 SWAP2 DUP3 ADD KECCAK256 PUSH1 0x0 SSTORE PUSH2 0x463D SWAP2 DUP7 SWAP2 DUP7 SWAP2 ADD PUSH2 0x5AEF JUMP JUMPDEST PUSH1 0x40 DUP1 MLOAD PUSH1 0x1F NOT DUP2 DUP5 SUB ADD DUP2 MSTORE SWAP2 SWAP1 MSTORE DUP1 MLOAD PUSH1 0x20 SWAP1 SWAP2 ADD KECCAK256 PUSH1 0x1 SSTORE PUSH1 0x2 DUP3 SWAP1 SSTORE PUSH1 0x1 PUSH1 0x1 PUSH1 0xA0 SHL SUB DUP2 AND PUSH2 0x4682 JUMPI PUSH1 0x3 DUP1 SLOAD PUSH1 0x1 PUSH1 0x1 PUSH1 0xA0 SHL SUB NOT AND ADDRESS OR SWAP1 SSTORE PUSH2 0x479F JUMP JUMPDEST PUSH1 0x40 MLOAD PUSH4 0x1FFC9A7 PUSH1 0xE0 SHL DUP2 MSTORE PUSH4 0x14B83435 PUSH1 0xE3 SHL PUSH1 0x4 DUP3 ADD MSTORE PUSH1 0x1 PUSH1 0x1 PUSH1 0xA0 SHL SUB DUP3 AND SWAP1 PUSH4 0x1FFC9A7 SWAP1 PUSH1 0x24 ADD PUSH1 0x20 PUSH1 0x40 MLOAD DUP1 DUP4 SUB DUP2 DUP7 GAS STATICCALL SWAP3 POP POP POP DUP1 ISZERO PUSH2 0x46E9 JUMPI POP PUSH1 0x40 DUP1 MLOAD PUSH1 0x1F RETURNDATASIZE SWAP1 DUP2 ADD PUSH1 0x1F NOT AND DUP3 ADD SWAP1 SWAP3 MSTORE PUSH2 0x46E6 SWAP2 DUP2 ADD SWAP1 PUSH2 0x5191 JUMP JUMPDEST PUSH1 0x1 JUMPDEST PUSH2 0x4735 JUMPI PUSH1 0x40 MLOAD PUSH3 0x461BCD PUSH1 0xE5 SHL DUP2 MSTORE PUSH1 0x20 PUSH1 0x4 DUP3 ADD MSTORE PUSH1 0x1C PUSH1 0x24 DUP3 ADD MSTORE PUSH32 0x496C6C6567616C20416363657373436F6E74726F6C4D616E6167657200000000 PUSH1 0x44 DUP3 ADD MSTORE PUSH1 0x64 ADD PUSH2 0x17E9 JUMP JUMPDEST DUP1 PUSH2 0x4782 JUMPI PUSH1 0x40 MLOAD PUSH3 0x461BCD PUSH1 0xE5 SHL DUP2 MSTORE PUSH1 0x20 PUSH1 0x4 DUP3 ADD MSTORE PUSH1 0x1C PUSH1 0x24 DUP3 ADD MSTORE PUSH32 0x496E76616C696420416363657373436F6E74726F6C4D616E6167657200000000 PUSH1 0x44 DUP3 ADD MSTORE PUSH1 0x64 ADD PUSH2 0x17E9 JUMP JUMPDEST POP PUSH1 0x3 DUP1 SLOAD PUSH1 0x1 PUSH1 0x1 PUSH1 0xA0 SHL SUB NOT AND PUSH1 0x1 PUSH1 0x1 PUSH1 0xA0 SHL SUB DUP4 AND OR SWAP1 SSTORE JUMPDEST PUSH1 0x3 DUP1 SLOAD PUSH2 0xFFFF PUSH1 0xA0 SHL NOT AND SWAP1 SSTORE PUSH2 0x43EC CALLER PUSH2 0x433F JUMP JUMPDEST PUSH1 0x60 DUP4 ISZERO PUSH2 0x47C5 JUMPI POP DUP2 PUSH2 0x1073 JUMP JUMPDEST DUP3 MLOAD ISZERO PUSH2 0x47D5 JUMPI DUP3 MLOAD DUP1 DUP5 PUSH1 0x20 ADD REVERT JUMPDEST DUP2 PUSH1 0x40 MLOAD PUSH3 0x461BCD PUSH1 0xE5 SHL DUP2 MSTORE PUSH1 0x4 ADD PUSH2 0x17E9 SWAP2 SWAP1 PUSH2 0x4D44 JUMP JUMPDEST PUSH2 0x47F8 DUP2 PUSH2 0x44BD JUMP JUMPDEST PUSH1 0x40 MLOAD PUSH1 0x1 PUSH1 0x1 PUSH1 0xA0 SHL SUB DUP3 AND SWAP1 ADDRESS SWAP1 CALLER SWAP1 PUSH32 0x354BD4B6EB65D64E6C79C53FA4F983A5E6BEC4824CE4627C71BE0B2722F4917E SWAP1 PUSH1 0x0 SWAP1 LOG4 POP JUMP JUMPDEST PUSH1 0x1 PUSH1 0x1 PUSH1 0xE0 SHL SUB NOT DUP2 AND DUP2 EQ PUSH2 0x40AC JUMPI PUSH1 0x0 DUP1 REVERT JUMPDEST PUSH1 0x0 PUSH1 0x20 DUP3 DUP5 SUB SLT ISZERO PUSH2 0x485B JUMPI PUSH1 0x0 DUP1 REVERT JUMPDEST DUP2 CALLDATALOAD PUSH2 0x1073 DUP2 PUSH2 0x4833 JUMP JUMPDEST PUSH1 0x0 DUP1 PUSH1 0x0 PUSH1 0x60 DUP5 DUP7 SUB SLT ISZERO PUSH2 0x487B JUMPI PUSH1 0x0 DUP1 REVERT JUMPDEST DUP4 CALLDATALOAD SWAP3 POP PUSH1 0x20 DUP5 ADD CALLDATALOAD PUSH2 0x488D DUP2 PUSH2 0x4833 JUMP JUMPDEST SWAP3 SWAP6 SWAP3 SWAP5 POP POP POP PUSH1 0x40 SWAP2 SWAP1 SWAP2 ADD CALLDATALOAD SWAP1 JUMP JUMPDEST PUSH1 0x1 PUSH1 0x1 PUSH1 0xA0 SHL SUB DUP2 AND DUP2 EQ PUSH2 0x40AC JUMPI PUSH1 0x0 DUP1 REVERT JUMPDEST PUSH1 0x0 PUSH1 0x20 DUP3 DUP5 SUB SLT ISZERO PUSH2 0x48C5 JUMPI PUSH1 0x0 DUP1 REVERT JUMPDEST DUP2 CALLDATALOAD PUSH2 0x1073 DUP2 PUSH2 0x489E JUMP JUMPDEST PUSH1 0x0 PUSH1 0x20 DUP3 DUP5 SUB SLT ISZERO PUSH2 0x48E2 JUMPI PUSH1 0x0 DUP1 REVERT JUMPDEST POP CALLDATALOAD SWAP2 SWAP1 POP JUMP JUMPDEST PUSH1 0x0 DUP1 PUSH1 0x40 DUP4 DUP6 SUB SLT ISZERO PUSH2 0x48FC JUMPI PUSH1 0x0 DUP1 REVERT JUMPDEST DUP3 CALLDATALOAD SWAP2 POP PUSH1 0x20 DUP4 ADD CALLDATALOAD PUSH2 0x490E DUP2 PUSH2 0x4833 JUMP JUMPDEST DUP1 SWAP2 POP POP SWAP3 POP SWAP3 SWAP1 POP JUMP JUMPDEST PUSH1 0x20 DUP1 DUP3 MSTORE DUP3 MLOAD DUP3 DUP3 ADD DUP2 SWAP1 MSTORE PUSH1 0x0 SWAP2 SWAP1 DUP5 DUP3 ADD SWAP1 PUSH1 0x40 DUP6 ADD SWAP1 DUP5 JUMPDEST DUP2 DUP2 LT ISZERO PUSH2 0x495B JUMPI DUP4 MLOAD PUSH1 0x1 PUSH1 0x1 PUSH1 0xE0 SHL SUB NOT AND DUP4 MSTORE SWAP3 DUP5 ADD SWAP3 SWAP2 DUP5 ADD SWAP2 PUSH1 0x1 ADD PUSH2 0x4935 JUMP JUMPDEST POP SWAP1 SWAP7 SWAP6 POP POP POP POP POP POP JUMP JUMPDEST PUSH1 0x20 DUP1 DUP3 MSTORE DUP3 MLOAD DUP3 DUP3 ADD DUP2 SWAP1 MSTORE PUSH1 0x0 SWAP2 SWAP1 DUP5 DUP3 ADD SWAP1 PUSH1 0x40 DUP6 ADD SWAP1 DUP5 JUMPDEST DUP2 DUP2 LT ISZERO PUSH2 0x495B JUMPI DUP4 MLOAD DUP4 MSTORE SWAP3 DUP5 ADD SWAP3 SWAP2 DUP5 ADD SWAP2 PUSH1 0x1 ADD PUSH2 0x4983 JUMP JUMPDEST PUSH1 0x0 JUMPDEST DUP4 DUP2 LT ISZERO PUSH2 0x49BA JUMPI DUP2 DUP2 ADD MLOAD DUP4 DUP3 ADD MSTORE PUSH1 0x20 ADD PUSH2 0x49A2 JUMP JUMPDEST POP POP PUSH1 0x0 SWAP2 ADD MSTORE JUMP JUMPDEST PUSH1 0x0 DUP2 MLOAD DUP1 DUP5 MSTORE PUSH2 0x49DB DUP2 PUSH1 0x20 DUP7 ADD PUSH1 0x20 DUP7 ADD PUSH2 0x499F JUMP JUMPDEST PUSH1 0x1F ADD PUSH1 0x1F NOT AND SWAP3 SWAP1 SWAP3 ADD PUSH1 0x20 ADD SWAP3 SWAP2 POP POP JUMP JUMPDEST PUSH1 0x60 DUP2 MSTORE PUSH1 0x0 PUSH2 0x4A02 PUSH1 0x60 DUP4 ADD DUP7 PUSH2 0x49C3 JUMP JUMPDEST SWAP4 ISZERO ISZERO PUSH1 0x20 DUP4 ADD MSTORE POP SWAP1 ISZERO ISZERO PUSH1 0x40 SWAP1 SWAP2 ADD MSTORE SWAP2 SWAP1 POP JUMP JUMPDEST PUSH1 0x20 DUP1 DUP3 MSTORE DUP3 MLOAD DUP3 DUP3 ADD DUP2 SWAP1 MSTORE PUSH1 0x0 SWAP2 SWAP1 DUP5 DUP3 ADD SWAP1 PUSH1 0x40 DUP6 ADD SWAP1 DUP5 JUMPDEST DUP2 DUP2 LT ISZERO PUSH2 0x495B JUMPI DUP4 MLOAD PUSH1 0x1 PUSH1 0x1 PUSH1 0xA0 SHL SUB AND DUP4 MSTORE SWAP3 DUP5 ADD SWAP3 SWAP2 DUP5 ADD SWAP2 PUSH1 0x1 ADD PUSH2 0x4A35 JUMP JUMPDEST PUSH1 0x0 DUP1 DUP4 PUSH1 0x1F DUP5 ADD SLT PUSH2 0x4A6C JUMPI PUSH1 0x0 DUP1 REVERT JUMPDEST POP DUP2 CALLDATALOAD PUSH1 0x1 PUSH1 0x1 PUSH1 0x40 SHL SUB DUP2 GT ISZERO PUSH2 0x4A83 JUMPI PUSH1 0x0 DUP1 REVERT JUMPDEST PUSH1 0x20 DUP4 ADD SWAP2 POP DUP4 PUSH1 0x20 DUP3 DUP6 ADD ADD GT ISZERO PUSH2 0x4A9B JUMPI PUSH1 0x0 DUP1 REVERT JUMPDEST SWAP3 POP SWAP3 SWAP1 POP JUMP JUMPDEST DUP1 ISZERO ISZERO DUP2 EQ PUSH2 0x40AC JUMPI PUSH1 0x0 DUP1 REVERT JUMPDEST PUSH1 0x0 DUP1 PUSH1 0x0 PUSH1 0x40 DUP5 DUP7 SUB SLT ISZERO PUSH2 0x4AC5 JUMPI PUSH1 0x0 DUP1 REVERT JUMPDEST DUP4 CALLDATALOAD PUSH1 0x1 PUSH1 0x1 PUSH1 0x40 SHL SUB DUP2 GT ISZERO PUSH2 0x4ADB JUMPI PUSH1 0x0 DUP1 REVERT JUMPDEST PUSH2 0x4AE7 DUP7 DUP3 DUP8 ADD PUSH2 0x4A5A JUMP JUMPDEST SWAP1 SWAP5 POP SWAP3 POP POP PUSH1 0x20 DUP5 ADD CALLDATALOAD PUSH2 0x4AFB DUP2 PUSH2 0x4AA2 JUMP JUMPDEST DUP1 SWAP2 POP POP SWAP3 POP SWAP3 POP SWAP3 JUMP JUMPDEST PUSH1 0x0 PUSH1 0x20 DUP3 DUP5 SUB SLT ISZERO PUSH2 0x4B18 JUMPI PUSH1 0x0 DUP1 REVERT JUMPDEST DUP2 CALLDATALOAD PUSH2 0x1073 DUP2 PUSH2 0x4AA2 JUMP JUMPDEST PUSH1 0x0 DUP1 PUSH1 0x0 DUP1 PUSH1 0x60 DUP6 DUP8 SUB SLT ISZERO PUSH2 0x4B39 JUMPI PUSH1 0x0 DUP1 REVERT JUMPDEST DUP5 CALLDATALOAD PUSH1 0x1 PUSH1 0x1 PUSH1 0x40 SHL SUB DUP2 GT ISZERO PUSH2 0x4B4F JUMPI PUSH1 0x0 DUP1 REVERT JUMPDEST PUSH2 0x4B5B DUP8 DUP3 DUP9 ADD PUSH2 0x4A5A JUMP JUMPDEST SWAP1 SWAP6 POP SWAP4 POP POP PUSH1 0x20 DUP6 ADD CALLDATALOAD PUSH2 0x4B6F DUP2 PUSH2 0x4AA2 JUMP JUMPDEST SWAP2 POP PUSH1 0x40 DUP6 ADD CALLDATALOAD PUSH2 0x4B7F DUP2 PUSH2 0x4AA2 JUMP JUMPDEST SWAP4 SWAP7 SWAP3 SWAP6 POP SWAP1 SWAP4 POP POP JUMP JUMPDEST PUSH1 0x40 DUP2 MSTORE PUSH1 0x0 PUSH2 0x4B9D PUSH1 0x40 DUP4 ADD DUP6 PUSH2 0x49C3 JUMP JUMPDEST SWAP1 POP DUP3 ISZERO ISZERO PUSH1 0x20 DUP4 ADD MSTORE SWAP4 SWAP3 POP POP POP JUMP JUMPDEST PUSH1 0x0 DUP1 PUSH1 0x0 PUSH1 0x60 DUP5 DUP7 SUB SLT ISZERO PUSH2 0x4BC3 JUMPI PUSH1 0x0 DUP1 REVERT JUMPDEST DUP4 CALLDATALOAD SWAP3 POP PUSH1 0x20 DUP5 ADD CALLDATALOAD SWAP2 POP PUSH1 0x40 DUP5 ADD CALLDATALOAD PUSH2 0x4AFB DUP2 PUSH2 0x4833 JUMP JUMPDEST PUSH1 0x0 DUP1 PUSH1 0x40 DUP4 DUP6 SUB SLT ISZERO PUSH2 0x4BEF JUMPI PUSH1 0x0 DUP1 REVERT JUMPDEST DUP3 CALLDATALOAD SWAP2 POP PUSH1 0x20 DUP4 ADD CALLDATALOAD PUSH2 0x490E DUP2 PUSH2 0x4AA2 JUMP JUMPDEST PUSH4 0x4E487B71 PUSH1 0xE0 SHL PUSH1 0x0 MSTORE PUSH1 0x41 PUSH1 0x4 MSTORE PUSH1 0x24 PUSH1 0x0 REVERT JUMPDEST PUSH1 0x40 MLOAD PUSH1 0x60 DUP2 ADD PUSH1 0x1 PUSH1 0x1 PUSH1 0x40 SHL SUB DUP2 GT DUP3 DUP3 LT OR ISZERO PUSH2 0x4C39 JUMPI PUSH2 0x4C39 PUSH2 0x4C01 JUMP JUMPDEST PUSH1 0x40 MSTORE SWAP1 JUMP JUMPDEST PUSH1 0x40 MLOAD PUSH1 0x1F DUP3 ADD PUSH1 0x1F NOT AND DUP2 ADD PUSH1 0x1 PUSH1 0x1 PUSH1 0x40 SHL SUB DUP2 GT DUP3 DUP3 LT OR ISZERO PUSH2 0x4C67 JUMPI PUSH2 0x4C67 PUSH2 0x4C01 JUMP JUMPDEST PUSH1 0x40 MSTORE SWAP2 SWAP1 POP JUMP JUMPDEST PUSH1 0x0 PUSH1 0x1 PUSH1 0x1 PUSH1 0x40 SHL SUB DUP3 GT ISZERO PUSH2 0x4C88 JUMPI PUSH2 0x4C88 PUSH2 0x4C01 JUMP JUMPDEST POP PUSH1 0x1F ADD PUSH1 0x1F NOT AND PUSH1 0x20 ADD SWAP1 JUMP JUMPDEST PUSH1 0x0 DUP3 PUSH1 0x1F DUP4 ADD SLT PUSH2 0x4CA7 JUMPI PUSH1 0x0 DUP1 REVERT JUMPDEST DUP2 CALLDATALOAD PUSH2 0x4CBA PUSH2 0x4CB5 DUP3 PUSH2 0x4C6F JUMP JUMPDEST PUSH2 0x4C3F JUMP JUMPDEST DUP2 DUP2 MSTORE DUP5 PUSH1 0x20 DUP4 DUP7 ADD ADD GT ISZERO PUSH2 0x4CCF JUMPI PUSH1 0x0 DUP1 REVERT JUMPDEST DUP2 PUSH1 0x20 DUP6 ADD PUSH1 0x20 DUP4 ADD CALLDATACOPY PUSH1 0x0 SWAP2 DUP2 ADD PUSH1 0x20 ADD SWAP2 SWAP1 SWAP2 MSTORE SWAP4 SWAP3 POP POP POP JUMP JUMPDEST PUSH1 0x0 DUP1 PUSH1 0x0 PUSH1 0x60 DUP5 DUP7 SUB SLT ISZERO PUSH2 0x4D01 JUMPI PUSH1 0x0 DUP1 REVERT JUMPDEST DUP4 CALLDATALOAD PUSH2 0x4D0C DUP2 PUSH2 0x489E JUMP JUMPDEST SWAP3 POP PUSH1 0x20 DUP5 ADD CALLDATALOAD PUSH1 0x1 PUSH1 0x1 PUSH1 0x40 SHL SUB DUP2 GT ISZERO PUSH2 0x4D27 JUMPI PUSH1 0x0 DUP1 REVERT JUMPDEST PUSH2 0x4D33 DUP7 DUP3 DUP8 ADD PUSH2 0x4C96 JUMP JUMPDEST SWAP3 POP POP PUSH1 0x40 DUP5 ADD CALLDATALOAD PUSH2 0x4AFB DUP2 PUSH2 0x4AA2 JUMP JUMPDEST PUSH1 0x20 DUP2 MSTORE PUSH1 0x0 PUSH2 0x1073 PUSH1 0x20 DUP4 ADD DUP5 PUSH2 0x49C3 JUMP JUMPDEST PUSH1 0x0 PUSH1 0xA0 DUP3 DUP5 SUB SLT ISZERO PUSH2 0x4D69 JUMPI PUSH1 0x0 DUP1 REVERT JUMPDEST POP SWAP2 SWAP1 POP JUMP JUMPDEST PUSH1 0x0 DUP1 DUP4 PUSH1 0x1F DUP5 ADD SLT PUSH2 0x4D81 JUMPI PUSH1 0x0 DUP1 REVERT JUMPDEST POP DUP2 CALLDATALOAD PUSH1 0x1 PUSH1 0x1 PUSH1 0x40 SHL SUB DUP2 GT ISZERO PUSH2 0x4D98 JUMPI PUSH1 0x0 DUP1 REVERT JUMPDEST PUSH1 0x20 DUP4 ADD SWAP2 POP DUP4 PUSH1 0x20 DUP3 PUSH1 0x5 SHL DUP6 ADD ADD GT ISZERO PUSH2 0x4A9B JUMPI PUSH1 0x0 DUP1 REVERT JUMPDEST PUSH1 0x0 DUP1 PUSH1 0x0 DUP1 PUSH1 0xE0 DUP6 DUP8 SUB SLT ISZERO PUSH2 0x4DC9 JUMPI PUSH1 0x0 DUP1 REVERT JUMPDEST DUP5 CALLDATALOAD PUSH1 0x1 PUSH1 0x1 PUSH1 0x40 SHL SUB DUP1 DUP3 GT ISZERO PUSH2 0x4DE0 JUMPI PUSH1 0x0 DUP1 REVERT JUMPDEST PUSH2 0x4DEC DUP9 DUP4 DUP10 ADD PUSH2 0x4C96 JUMP JUMPDEST SWAP6 POP PUSH2 0x4DFB DUP9 PUSH1 0x20 DUP10 ADD PUSH2 0x4D57 JUMP JUMPDEST SWAP5 POP PUSH1 0xC0 DUP8 ADD CALLDATALOAD SWAP2 POP DUP1 DUP3 GT ISZERO PUSH2 0x4E11 JUMPI PUSH1 0x0 DUP1 REVERT JUMPDEST POP PUSH2 0x4E1E DUP8 DUP3 DUP9 ADD PUSH2 0x4D6F JUMP JUMPDEST SWAP6 SWAP9 SWAP5 SWAP8 POP SWAP6 POP POP POP POP JUMP JUMPDEST PUSH1 0x0 DUP1 PUSH1 0x0 DUP1 DUP5 DUP7 SUB PUSH2 0x120 DUP2 SLT ISZERO PUSH2 0x4E42 JUMPI PUSH1 0x0 DUP1 REVERT JUMPDEST DUP6 CALLDATALOAD PUSH1 0x1 PUSH1 0x1 PUSH1 0x40 SHL SUB DUP1 DUP3 GT ISZERO PUSH2 0x4E59 JUMPI PUSH1 0x0 DUP1 REVERT JUMPDEST PUSH2 0x4E65 DUP10 DUP4 DUP11 ADD PUSH2 0x4C96 JUMP JUMPDEST SWAP7 POP PUSH1 0xE0 PUSH1 0x1F NOT DUP5 ADD SLT ISZERO PUSH2 0x4E79 JUMPI PUSH1 0x0 DUP1 REVERT JUMPDEST PUSH1 0x20 DUP9 ADD SWAP6 POP PUSH2 0x100 DUP9 ADD CALLDATALOAD SWAP3 POP DUP1 DUP4 GT ISZERO PUSH2 0x4E94 JUMPI PUSH1 0x0 DUP1 REVERT JUMPDEST POP POP PUSH2 0x4E1E DUP8 DUP3 DUP9 ADD PUSH2 0x4D6F JUMP JUMPDEST PUSH1 0x0 DUP1 PUSH1 0x40 DUP4 DUP6 SUB SLT ISZERO PUSH2 0x4EB5 JUMPI PUSH1 0x0 DUP1 REVERT JUMPDEST DUP3 CALLDATALOAD SWAP2 POP PUSH1 0x20 DUP4 ADD CALLDATALOAD PUSH2 0x490E DUP2 PUSH2 0x489E JUMP JUMPDEST PUSH1 0x0 DUP1 PUSH1 0x20 DUP4 DUP6 SUB SLT ISZERO PUSH2 0x4EDA JUMPI PUSH1 0x0 DUP1 REVERT JUMPDEST DUP3 CALLDATALOAD PUSH1 0x1 PUSH1 0x1 PUSH1 0x40 SHL SUB DUP1 DUP3 GT ISZERO PUSH2 0x4EF1 JUMPI PUSH1 0x0 DUP1 REVERT JUMPDEST DUP2 DUP6 ADD SWAP2 POP DUP6 PUSH1 0x1F DUP4 ADD SLT PUSH2 0x4F05 JUMPI PUSH1 0x0 DUP1 REVERT JUMPDEST DUP2 CALLDATALOAD DUP2 DUP2 GT ISZERO PUSH2 0x4F14 JUMPI PUSH1 0x0 DUP1 REVERT JUMPDEST DUP7 PUSH1 0x20 DUP3 PUSH1 0x6 SHL DUP6 ADD ADD GT ISZERO PUSH2 0x4F29 JUMPI PUSH1 0x0 DUP1 REVERT JUMPDEST PUSH1 0x20 SWAP3 SWAP1 SWAP3 ADD SWAP7 SWAP2 SWAP6 POP SWAP1 SWAP4 POP POP POP POP JUMP JUMPDEST PUSH1 0x0 DUP1 PUSH1 0x20 DUP4 DUP6 SUB SLT ISZERO PUSH2 0x4F4E JUMPI PUSH1 0x0 DUP1 REVERT JUMPDEST DUP3 CALLDATALOAD PUSH1 0x1 PUSH1 0x1 PUSH1 0x40 SHL SUB DUP2 GT ISZERO PUSH2 0x4F64 JUMPI PUSH1 0x0 DUP1 REVERT JUMPDEST PUSH2 0x4F70 DUP6 DUP3 DUP7 ADD PUSH2 0x4D6F JUMP JUMPDEST SWAP1 SWAP7 SWAP1 SWAP6 POP SWAP4 POP POP POP POP JUMP JUMPDEST PUSH1 0x0 DUP1 PUSH1 0x0 DUP1 PUSH1 0x60 DUP6 DUP8 SUB SLT ISZERO PUSH2 0x4F92 JUMPI PUSH1 0x0 DUP1 REVERT JUMPDEST DUP5 CALLDATALOAD PUSH1 0x1 PUSH1 0x1 PUSH1 0x40 SHL SUB DUP2 GT ISZERO PUSH2 0x4FA8 JUMPI PUSH1 0x0 DUP1 REVERT JUMPDEST PUSH2 0x4FB4 DUP8 DUP3 DUP9 ADD PUSH2 0x4A5A JUMP JUMPDEST SWAP1 SWAP6 POP SWAP4 POP POP PUSH1 0x20 DUP6 ADD CALLDATALOAD SWAP2 POP PUSH1 0x40 DUP6 ADD CALLDATALOAD PUSH2 0x4B7F DUP2 PUSH2 0x4AA2 JUMP JUMPDEST PUSH1 0x60 DUP2 MSTORE PUSH1 0x0 PUSH2 0x4FE2 PUSH1 0x60 DUP4 ADD DUP7 PUSH2 0x49C3 JUMP JUMPDEST PUSH1 0x20 DUP4 ADD SWAP5 SWAP1 SWAP5 MSTORE POP SWAP1 ISZERO ISZERO PUSH1 0x40 SWAP1 SWAP2 ADD MSTORE SWAP2 SWAP1 POP JUMP JUMPDEST PUSH1 0x0 DUP1 PUSH1 0x0 PUSH1 0x60 DUP5 DUP7 SUB SLT ISZERO PUSH2 0x500E JUMPI PUSH1 0x0 DUP1 REVERT JUMPDEST DUP4 CALLDATALOAD SWAP3 POP PUSH1 0x20 DUP5 ADD CALLDATALOAD PUSH2 0x5020 DUP2 PUSH2 0x489E JUMP JUMPDEST SWAP2 POP PUSH1 0x40 DUP5 ADD CALLDATALOAD PUSH2 0x4AFB DUP2 PUSH2 0x4833 JUMP JUMPDEST PUSH1 0x0 DUP1 PUSH1 0x40 DUP4 DUP6 SUB SLT ISZERO PUSH2 0x5043 JUMPI PUSH1 0x0 DUP1 REVERT JUMPDEST POP POP DUP1 CALLDATALOAD SWAP3 PUSH1 0x20 SWAP1 SWAP2 ADD CALLDATALOAD SWAP2 POP JUMP JUMPDEST DUP1 CALLDATALOAD PUSH1 0xFF DUP2 AND DUP2 EQ PUSH2 0x1961 JUMPI PUSH1 0x0 DUP1 REVERT JUMPDEST PUSH1 0x0 PUSH1 0x20 DUP3 DUP5 SUB SLT ISZERO PUSH2 0x5075 JUMPI PUSH1 0x0 DUP1 REVERT JUMPDEST PUSH2 0x1073 DUP3 PUSH2 0x5052 JUMP JUMPDEST PUSH1 0x0 DUP1 PUSH1 0x0 DUP1 PUSH1 0x0 DUP1 PUSH1 0x0 DUP1 PUSH1 0xA0 DUP10 DUP12 SUB SLT ISZERO PUSH2 0x509A JUMPI PUSH1 0x0 DUP1 REVERT JUMPDEST DUP9 CALLDATALOAD PUSH1 0x1 PUSH1 0x1 PUSH1 0x40 SHL SUB DUP1 DUP3 GT ISZERO PUSH2 0x50B1 JUMPI PUSH1 0x0 DUP1 REVERT JUMPDEST PUSH2 0x50BD DUP13 DUP4 DUP14 ADD PUSH2 0x4A5A JUMP JUMPDEST SWAP1 SWAP11 POP SWAP9 POP PUSH1 0x20 DUP12 ADD CALLDATALOAD SWAP2 POP DUP1 DUP3 GT ISZERO PUSH2 0x50D6 JUMPI PUSH1 0x0 DUP1 REVERT JUMPDEST PUSH2 0x50E2 DUP13 DUP4 DUP14 ADD PUSH2 0x4A5A JUMP JUMPDEST SWAP1 SWAP9 POP SWAP7 POP PUSH1 0x40 DUP12 ADD CALLDATALOAD SWAP2 POP DUP1 DUP3 GT ISZERO PUSH2 0x50FB JUMPI PUSH1 0x0 DUP1 REVERT JUMPDEST POP PUSH2 0x5108 DUP12 DUP3 DUP13 ADD PUSH2 0x4A5A JUMP JUMPDEST SWAP1 SWAP6 POP SWAP4 POP POP PUSH1 0x60 DUP10 ADD CALLDATALOAD PUSH2 0x511C DUP2 PUSH2 0x489E JUMP JUMPDEST SWAP2 POP PUSH2 0x512A PUSH1 0x80 DUP11 ADD PUSH2 0x5052 JUMP JUMPDEST SWAP1 POP SWAP3 SWAP6 SWAP9 POP SWAP3 SWAP6 SWAP9 SWAP1 SWAP4 SWAP7 POP JUMP JUMPDEST SWAP4 DUP5 MSTORE PUSH1 0x20 DUP5 ADD SWAP3 SWAP1 SWAP3 MSTORE PUSH1 0x1 PUSH1 0x1 PUSH1 0xE0 SHL SUB NOT AND PUSH1 0x40 DUP4 ADD MSTORE PUSH1 0x60 DUP3 ADD MSTORE PUSH1 0x80 ADD SWAP1 JUMP JUMPDEST PUSH1 0x0 PUSH1 0x20 DUP3 DUP5 SUB SLT ISZERO PUSH2 0x5170 JUMPI PUSH1 0x0 DUP1 REVERT JUMPDEST POP MLOAD SWAP2 SWAP1 POP JUMP JUMPDEST PUSH1 0x1 PUSH1 0x1 PUSH1 0xE0 SHL SUB NOT SWAP3 SWAP1 SWAP3 AND DUP3 MSTORE PUSH1 0x20 DUP3 ADD MSTORE PUSH1 0x40 ADD SWAP1 JUMP JUMPDEST PUSH1 0x0 PUSH1 0x20 DUP3 DUP5 SUB SLT ISZERO PUSH2 0x51A3 JUMPI PUSH1 0x0 DUP1 REVERT JUMPDEST DUP2 MLOAD PUSH2 0x1073 DUP2 PUSH2 0x4AA2 JUMP JUMPDEST SWAP3 DUP4 MSTORE PUSH1 0x20 DUP4 ADD SWAP2 SWAP1 SWAP2 MSTORE PUSH1 0x1 PUSH1 0x1 PUSH1 0xE0 SHL SUB NOT AND PUSH1 0x40 DUP3 ADD MSTORE PUSH1 0x60 ADD SWAP1 JUMP JUMPDEST PUSH1 0x0 PUSH1 0x1 PUSH1 0x1 PUSH1 0x40 SHL SUB DUP3 GT ISZERO PUSH2 0x51E7 JUMPI PUSH2 0x51E7 PUSH2 0x4C01 JUMP JUMPDEST POP PUSH1 0x5 SHL PUSH1 0x20 ADD SWAP1 JUMP JUMPDEST PUSH1 0x0 DUP3 PUSH1 0x1F DUP4 ADD SLT PUSH2 0x5202 JUMPI PUSH1 0x0 DUP1 REVERT JUMPDEST DUP2 MLOAD PUSH1 0x20 PUSH2 0x5212 PUSH2 0x4CB5 DUP4 PUSH2 0x51CE JUMP JUMPDEST DUP3 DUP2 MSTORE PUSH1 0x5 SWAP3 SWAP1 SWAP3 SHL DUP5 ADD DUP2 ADD SWAP2 DUP2 DUP2 ADD SWAP1 DUP7 DUP5 GT ISZERO PUSH2 0x5231 JUMPI PUSH1 0x0 DUP1 REVERT JUMPDEST DUP3 DUP7 ADD JUMPDEST DUP5 DUP2 LT ISZERO PUSH2 0x5255 JUMPI DUP1 MLOAD PUSH2 0x5248 DUP2 PUSH2 0x4833 JUMP JUMPDEST DUP4 MSTORE SWAP2 DUP4 ADD SWAP2 DUP4 ADD PUSH2 0x5235 JUMP JUMPDEST POP SWAP7 SWAP6 POP POP POP POP POP POP JUMP JUMPDEST PUSH1 0x0 PUSH1 0x20 DUP3 DUP5 SUB SLT ISZERO PUSH2 0x5272 JUMPI PUSH1 0x0 DUP1 REVERT JUMPDEST DUP2 MLOAD PUSH1 0x1 PUSH1 0x1 PUSH1 0x40 SHL SUB DUP2 GT ISZERO PUSH2 0x5288 JUMPI PUSH1 0x0 DUP1 REVERT JUMPDEST PUSH2 0x1F16 DUP5 DUP3 DUP6 ADD PUSH2 0x51F1 JUMP JUMPDEST PUSH1 0x0 PUSH1 0x20 DUP1 DUP4 DUP6 SUB SLT ISZERO PUSH2 0x52A7 JUMPI PUSH1 0x0 DUP1 REVERT JUMPDEST DUP3 MLOAD PUSH1 0x1 PUSH1 0x1 PUSH1 0x40 SHL SUB DUP2 GT ISZERO PUSH2 0x52BD JUMPI PUSH1 0x0 DUP1 REVERT JUMPDEST DUP4 ADD PUSH1 0x1F DUP2 ADD DUP6 SGT PUSH2 0x52CE JUMPI PUSH1 0x0 DUP1 REVERT JUMPDEST DUP1 MLOAD PUSH2 0x52DC PUSH2 0x4CB5 DUP3 PUSH2 0x51CE JUMP JUMPDEST DUP2 DUP2 MSTORE PUSH1 0x5 SWAP2 SWAP1 SWAP2 SHL DUP3 ADD DUP4 ADD SWAP1 DUP4 DUP2 ADD SWAP1 DUP8 DUP4 GT ISZERO PUSH2 0x52FB JUMPI PUSH1 0x0 DUP1 REVERT JUMPDEST SWAP3 DUP5 ADD SWAP3 JUMPDEST DUP3 DUP5 LT ISZERO PUSH2 0x5319 JUMPI DUP4 MLOAD DUP3 MSTORE SWAP3 DUP5 ADD SWAP3 SWAP1 DUP5 ADD SWAP1 PUSH2 0x5300 JUMP JUMPDEST SWAP8 SWAP7 POP POP POP POP POP POP POP JUMP JUMPDEST PUSH1 0x0 DUP3 PUSH1 0x1F DUP4 ADD SLT PUSH2 0x5335 JUMPI PUSH1 0x0 DUP1 REVERT JUMPDEST DUP2 MLOAD PUSH2 0x5343 PUSH2 0x4CB5 DUP3 PUSH2 0x4C6F JUMP JUMPDEST DUP2 DUP2 MSTORE DUP5 PUSH1 0x20 DUP4 DUP7 ADD ADD GT ISZERO PUSH2 0x5358 JUMPI PUSH1 0x0 DUP1 REVERT JUMPDEST PUSH2 0x1F16 DUP3 PUSH1 0x20 DUP4 ADD PUSH1 0x20 DUP8 ADD PUSH2 0x499F JUMP JUMPDEST PUSH1 0x0 DUP1 PUSH1 0x0 PUSH1 0x60 DUP5 DUP7 SUB SLT ISZERO PUSH2 0x537E JUMPI PUSH1 0x0 DUP1 REVERT JUMPDEST DUP4 MLOAD PUSH1 0x1 PUSH1 0x1 PUSH1 0x40 SHL SUB DUP2 GT ISZERO PUSH2 0x5394 JUMPI PUSH1 0x0 DUP1 REVERT JUMPDEST PUSH2 0x53A0 DUP7 DUP3 DUP8 ADD PUSH2 0x5324 JUMP JUMPDEST SWAP4 POP POP PUSH1 0x20 DUP5 ADD MLOAD PUSH2 0x53B1 DUP2 PUSH2 0x4AA2 JUMP JUMPDEST PUSH1 0x40 DUP6 ADD MLOAD SWAP1 SWAP3 POP PUSH2 0x4AFB DUP2 PUSH2 0x4AA2 JUMP JUMPDEST PUSH4 0x4E487B71 PUSH1 0xE0 SHL PUSH1 0x0 MSTORE PUSH1 0x32 PUSH1 0x4 MSTORE PUSH1 0x24 PUSH1 0x0 REVERT JUMPDEST DUP2 DUP4 MSTORE DUP2 DUP2 PUSH1 0x20 DUP6 ADD CALLDATACOPY POP PUSH1 0x0 DUP3 DUP3 ADD PUSH1 0x20 SWAP1 DUP2 ADD SWAP2 SWAP1 SWAP2 MSTORE PUSH1 0x1F SWAP1 SWAP2 ADD PUSH1 0x1F NOT AND SWAP1 SWAP2 ADD ADD SWAP1 JUMP JUMPDEST DUP5 DUP2 MSTORE PUSH1 0x60 PUSH1 0x20 DUP3 ADD MSTORE PUSH1 0x0 PUSH2 0x541B PUSH1 0x60 DUP4 ADD DUP6 DUP8 PUSH2 0x53D8 JUMP JUMPDEST SWAP1 POP DUP3 ISZERO ISZERO PUSH1 0x40 DUP4 ADD MSTORE SWAP6 SWAP5 POP POP POP POP POP JUMP JUMPDEST PUSH1 0x40 DUP2 MSTORE PUSH1 0x0 PUSH2 0x5442 PUSH1 0x40 DUP4 ADD DUP6 DUP8 PUSH2 0x53D8 JUMP JUMPDEST SWAP1 POP DUP3 ISZERO ISZERO PUSH1 0x20 DUP4 ADD MSTORE SWAP5 SWAP4 POP POP POP POP JUMP JUMPDEST PUSH1 0x20 DUP1 DUP3 MSTORE PUSH1 0x15 SWAP1 DUP3 ADD MSTORE PUSH21 0x125B1B1959D85B0810DBDB9D1C9858DD0810D85B1B PUSH1 0x5A SHL PUSH1 0x40 DUP3 ADD MSTORE PUSH1 0x60 ADD SWAP1 JUMP JUMPDEST PUSH1 0x20 DUP1 DUP3 MSTORE PUSH1 0x14 SWAP1 DUP3 ADD MSTORE PUSH20 0x141C9BDE1E4810D85B1B195908125B9D985B1A59 PUSH1 0x62 SHL PUSH1 0x40 DUP3 ADD MSTORE PUSH1 0x60 ADD SWAP1 JUMP JUMPDEST PUSH1 0x20 DUP1 DUP3 MSTORE PUSH1 0x17 SWAP1 DUP3 ADD MSTORE PUSH32 0x536166654D6F64653A2043616C6C2052656A6563746564000000000000000000 PUSH1 0x40 DUP3 ADD MSTORE PUSH1 0x60 ADD SWAP1 JUMP JUMPDEST DUP6 DUP2 MSTORE PUSH1 0x80 PUSH1 0x20 DUP3 ADD MSTORE PUSH1 0x0 PUSH2 0x5502 PUSH1 0x80 DUP4 ADD DUP7 DUP9 PUSH2 0x53D8 JUMP JUMPDEST SWAP4 ISZERO ISZERO PUSH1 0x40 DUP4 ADD MSTORE POP SWAP1 ISZERO ISZERO PUSH1 0x60 SWAP1 SWAP2 ADD MSTORE SWAP4 SWAP3 POP POP POP JUMP JUMPDEST PUSH1 0x60 DUP2 MSTORE PUSH1 0x0 PUSH2 0x552F PUSH1 0x60 DUP4 ADD DUP7 DUP9 PUSH2 0x53D8 JUMP JUMPDEST SWAP4 ISZERO ISZERO PUSH1 0x20 DUP4 ADD MSTORE POP SWAP1 ISZERO ISZERO PUSH1 0x40 SWAP1 SWAP2 ADD MSTORE SWAP3 SWAP2 POP POP JUMP JUMPDEST PUSH1 0x0 DUP1 PUSH1 0x40 DUP4 DUP6 SUB SLT ISZERO PUSH2 0x555A JUMPI PUSH1 0x0 DUP1 REVERT JUMPDEST DUP3 MLOAD PUSH1 0x1 PUSH1 0x1 PUSH1 0x40 SHL SUB DUP2 GT ISZERO PUSH2 0x5570 JUMPI PUSH1 0x0 DUP1 REVERT JUMPDEST PUSH2 0x557C DUP6 DUP3 DUP7 ADD PUSH2 0x5324 JUMP JUMPDEST SWAP3 POP POP PUSH1 0x20 DUP4 ADD MLOAD PUSH2 0x490E DUP2 PUSH2 0x4AA2 JUMP JUMPDEST PUSH1 0x0 DUP1 PUSH1 0x40 DUP4 DUP6 SUB SLT ISZERO PUSH2 0x55A0 JUMPI PUSH1 0x0 DUP1 REVERT JUMPDEST DUP3 MLOAD PUSH2 0x55AB DUP2 PUSH2 0x4AA2 JUMP JUMPDEST PUSH1 0x20 SWAP4 SWAP1 SWAP4 ADD MLOAD SWAP3 SWAP5 SWAP3 SWAP4 POP POP POP JUMP JUMPDEST DUP1 CALLDATALOAD DUP3 MSTORE PUSH1 0x20 DUP2 ADD CALLDATALOAD PUSH1 0x20 DUP4 ADD MSTORE PUSH1 0x40 DUP2 ADD CALLDATALOAD PUSH1 0x40 DUP4 ADD MSTORE PUSH1 0x60 DUP2 ADD CALLDATALOAD PUSH2 0x55E1 DUP2 PUSH2 0x489E JUMP JUMPDEST PUSH1 0x1 PUSH1 0x1 PUSH1 0xA0 SHL SUB AND PUSH1 0x60 DUP4 ADD MSTORE PUSH1 0x80 DUP2 ADD CALLDATALOAD PUSH2 0x55FD DUP2 PUSH2 0x4AA2 JUMP JUMPDEST DUP1 ISZERO ISZERO PUSH1 0x80 DUP5 ADD MSTORE POP POP POP JUMP JUMPDEST PUSH1 0x0 DUP1 DUP4 CALLDATALOAD PUSH1 0x1E NOT DUP5 CALLDATASIZE SUB ADD DUP2 SLT PUSH2 0x5621 JUMPI PUSH1 0x0 DUP1 REVERT JUMPDEST DUP4 ADD PUSH1 0x20 DUP2 ADD SWAP3 POP CALLDATALOAD SWAP1 POP PUSH1 0x1 PUSH1 0x1 PUSH1 0x40 SHL SUB DUP2 GT ISZERO PUSH2 0x5640 JUMPI PUSH1 0x0 DUP1 REVERT JUMPDEST DUP1 PUSH1 0x5 SHL CALLDATASIZE SUB DUP3 SGT ISZERO PUSH2 0x4A9B JUMPI PUSH1 0x0 DUP1 REVERT JUMPDEST DUP2 DUP4 MSTORE PUSH1 0x0 PUSH1 0x20 DUP1 DUP6 ADD SWAP5 POP DUP3 PUSH1 0x0 JUMPDEST DUP6 DUP2 LT ISZERO PUSH2 0x5691 JUMPI DUP2 CALLDATALOAD PUSH2 0x5675 DUP2 PUSH2 0x4833 JUMP JUMPDEST PUSH1 0x1 PUSH1 0x1 PUSH1 0xE0 SHL SUB NOT AND DUP8 MSTORE SWAP6 DUP3 ADD SWAP6 SWAP1 DUP3 ADD SWAP1 PUSH1 0x1 ADD PUSH2 0x5662 JUMP JUMPDEST POP SWAP5 SWAP6 SWAP5 POP POP POP POP POP JUMP JUMPDEST PUSH1 0x0 DUP3 CALLDATALOAD PUSH1 0x5E NOT DUP4 CALLDATASIZE SUB ADD DUP2 SLT PUSH2 0x56B2 JUMPI PUSH1 0x0 DUP1 REVERT JUMPDEST SWAP1 SWAP2 ADD SWAP3 SWAP2 POP POP JUMP JUMPDEST PUSH1 0x0 PUSH2 0x100 DUP8 DUP4 MSTORE PUSH1 0x20 DUP2 DUP2 DUP6 ADD MSTORE PUSH2 0x56D6 DUP3 DUP6 ADD DUP10 PUSH2 0x49C3 JUMP JUMPDEST SWAP2 POP PUSH1 0x40 PUSH2 0x56E6 DUP2 DUP7 ADD DUP10 PUSH2 0x55BB JUMP JUMPDEST DUP5 DUP4 SUB PUSH1 0xE0 DUP7 ADD MSTORE DUP6 DUP4 MSTORE DUP2 DUP4 ADD PUSH1 0x5 DUP8 SWAP1 SHL DUP5 ADD DUP4 ADD DUP9 PUSH1 0x0 DUP1 JUMPDEST DUP11 DUP2 LT ISZERO PUSH2 0x576B JUMPI DUP8 DUP5 SUB PUSH1 0x1F NOT ADD DUP6 MSTORE PUSH2 0x571D DUP4 DUP14 PUSH2 0x569C JUMP JUMPDEST PUSH1 0x60 DUP2 CALLDATALOAD DUP7 MSTORE PUSH2 0x572F DUP10 DUP4 ADD DUP4 PUSH2 0x560A JUMP JUMPDEST DUP3 DUP12 DUP10 ADD MSTORE PUSH2 0x5741 DUP4 DUP10 ADD DUP3 DUP5 PUSH2 0x5652 JUMP JUMPDEST SWAP3 POP POP POP DUP8 DUP3 ADD CALLDATALOAD SWAP2 POP PUSH1 0x3 DUP3 LT PUSH2 0x5757 JUMPI DUP4 DUP5 REVERT JUMPDEST SWAP5 DUP8 ADD MSTORE SWAP4 DUP7 ADD SWAP4 SWAP2 DUP7 ADD SWAP2 PUSH1 0x1 ADD PUSH2 0x5702 JUMP JUMPDEST POP SWAP2 SWAP14 SWAP13 POP POP POP POP POP POP POP POP POP POP POP POP POP JUMP JUMPDEST PUSH1 0x0 DUP1 PUSH1 0x40 DUP4 DUP6 SUB SLT ISZERO PUSH2 0x5791 JUMPI PUSH1 0x0 DUP1 REVERT JUMPDEST DUP3 MLOAD PUSH2 0x579C DUP2 PUSH2 0x489E JUMP JUMPDEST PUSH1 0x20 DUP5 ADD MLOAD SWAP1 SWAP3 POP PUSH2 0x490E DUP2 PUSH2 0x489E JUMP JUMPDEST DUP2 DUP4 MSTORE PUSH1 0x0 PUSH1 0x20 DUP1 DUP6 ADD DUP1 DUP2 SWAP7 POP DUP6 PUSH1 0x5 SHL DUP2 ADD SWAP2 POP DUP5 PUSH1 0x0 JUMPDEST DUP8 DUP2 LT ISZERO PUSH2 0x5832 JUMPI DUP3 DUP5 SUB DUP10 MSTORE PUSH2 0x57DE DUP3 DUP9 PUSH2 0x569C JUMP JUMPDEST PUSH1 0x60 DUP2 CALLDATALOAD DUP7 MSTORE PUSH2 0x57F0 DUP8 DUP4 ADD DUP4 PUSH2 0x560A JUMP JUMPDEST DUP3 DUP10 DUP10 ADD MSTORE PUSH2 0x5802 DUP4 DUP10 ADD DUP3 DUP5 PUSH2 0x5652 JUMP JUMPDEST SWAP3 POP POP POP PUSH1 0x40 DUP1 DUP4 ADD CALLDATALOAD SWAP3 POP PUSH2 0x5817 DUP4 PUSH2 0x4AA2 JUMP JUMPDEST SWAP2 ISZERO ISZERO SWAP6 SWAP1 SWAP2 ADD SWAP5 SWAP1 SWAP5 MSTORE SWAP8 DUP5 ADD SWAP8 SWAP1 DUP5 ADD SWAP1 PUSH1 0x1 ADD PUSH2 0x57C7 JUMP JUMPDEST POP SWAP2 SWAP8 SWAP7 POP POP POP POP POP POP POP JUMP JUMPDEST PUSH1 0x0 PUSH2 0x140 DUP8 DUP4 MSTORE DUP1 PUSH1 0x20 DUP5 ADD MSTORE PUSH2 0x5859 DUP2 DUP5 ADD DUP9 PUSH2 0x49C3 JUMP JUMPDEST SWAP1 POP DUP6 CALLDATALOAD PUSH1 0x40 DUP5 ADD MSTORE PUSH1 0x20 DUP7 ADD CALLDATALOAD PUSH1 0x60 DUP5 ADD MSTORE PUSH1 0x40 DUP7 ADD CALLDATALOAD PUSH1 0x80 DUP5 ADD MSTORE PUSH1 0x60 DUP7 ADD CALLDATALOAD PUSH1 0xA0 DUP5 ADD MSTORE PUSH1 0x80 DUP7 ADD CALLDATALOAD PUSH2 0x588E DUP2 PUSH2 0x489E JUMP JUMPDEST PUSH1 0x1 PUSH1 0x1 PUSH1 0xA0 SHL SUB SWAP1 DUP2 AND PUSH1 0xC0 DUP6 ADD MSTORE PUSH1 0xA0 DUP8 ADD CALLDATALOAD SWAP1 PUSH2 0x58AD DUP3 PUSH2 0x489E JUMP JUMPDEST AND PUSH1 0xE0 DUP5 ADD MSTORE PUSH1 0xC0 DUP7 ADD CALLDATALOAD PUSH2 0x58C1 DUP2 PUSH2 0x4AA2 JUMP JUMPDEST ISZERO ISZERO PUSH2 0x100 DUP5 ADD MSTORE DUP3 DUP2 SUB PUSH2 0x120 DUP5 ADD MSTORE PUSH2 0x58DD DUP2 DUP6 DUP8 PUSH2 0x57AD JUMP JUMPDEST SWAP9 SWAP8 POP POP POP POP POP POP POP POP JUMP JUMPDEST PUSH1 0x0 DUP1 PUSH1 0x0 PUSH1 0x60 DUP5 DUP7 SUB SLT ISZERO PUSH2 0x58FE JUMPI PUSH1 0x0 DUP1 REVERT JUMPDEST DUP4 MLOAD PUSH2 0x5909 DUP2 PUSH2 0x489E JUMP JUMPDEST PUSH1 0x20 DUP6 ADD MLOAD PUSH1 0x40 DUP7 ADD MLOAD SWAP2 SWAP5 POP SWAP3 POP PUSH2 0x4AFB DUP2 PUSH2 0x489E JUMP JUMPDEST PUSH4 0x4E487B71 PUSH1 0xE0 SHL PUSH1 0x0 MSTORE PUSH1 0x11 PUSH1 0x4 MSTORE PUSH1 0x24 PUSH1 0x0 REVERT JUMPDEST PUSH1 0x0 PUSH1 0x1 DUP3 ADD PUSH2 0x5949 JUMPI PUSH2 0x5949 PUSH2 0x5921 JUMP JUMPDEST POP PUSH1 0x1 ADD SWAP1 JUMP JUMPDEST DUP4 DUP2 MSTORE PUSH1 0x40 PUSH1 0x20 DUP1 DUP4 ADD DUP3 SWAP1 MSTORE DUP3 DUP3 ADD DUP5 SWAP1 MSTORE PUSH1 0x0 SWAP2 SWAP1 DUP6 SWAP1 PUSH1 0x60 DUP6 ADD DUP5 JUMPDEST DUP8 DUP2 LT ISZERO PUSH2 0x59A5 JUMPI DUP4 CALLDATALOAD DUP3 MSTORE DUP3 DUP5 ADD CALLDATALOAD PUSH2 0x5988 DUP2 PUSH2 0x489E JUMP JUMPDEST PUSH1 0x1 PUSH1 0x1 PUSH1 0xA0 SHL SUB AND DUP3 DUP5 ADD MSTORE SWAP3 DUP5 ADD SWAP3 SWAP1 DUP5 ADD SWAP1 PUSH1 0x1 ADD PUSH2 0x596F JUMP JUMPDEST POP SWAP9 SWAP8 POP POP POP POP POP POP POP POP JUMP JUMPDEST PUSH1 0x0 PUSH1 0x40 DUP1 DUP4 ADD DUP7 DUP5 MSTORE PUSH1 0x20 DUP3 DUP2 DUP7 ADD MSTORE DUP2 DUP7 DUP4 MSTORE PUSH1 0x60 SWAP3 POP DUP3 DUP7 ADD SWAP1 POP DUP3 DUP8 PUSH1 0x5 SHL DUP8 ADD ADD DUP9 PUSH1 0x0 JUMPDEST DUP10 DUP2 LT ISZERO PUSH2 0x5A79 JUMPI DUP9 DUP4 SUB PUSH1 0x5F NOT ADD DUP5 MSTORE PUSH2 0x59F7 DUP3 DUP13 PUSH2 0x569C JUMP JUMPDEST DUP1 CALLDATALOAD DUP5 MSTORE DUP6 DUP2 ADD CALLDATALOAD PUSH1 0x1E NOT DUP3 CALLDATASIZE SUB ADD DUP2 SLT PUSH2 0x5A11 JUMPI PUSH1 0x0 DUP1 REVERT JUMPDEST DUP2 ADD DUP7 DUP2 ADD SWAP1 CALLDATALOAD PUSH1 0x1 PUSH1 0x1 PUSH1 0x40 SHL SUB DUP2 GT ISZERO PUSH2 0x5A2C JUMPI PUSH1 0x0 DUP1 REVERT JUMPDEST DUP1 CALLDATASIZE SUB DUP3 SGT ISZERO PUSH2 0x5A3B JUMPI PUSH1 0x0 DUP1 REVERT JUMPDEST DUP9 DUP9 DUP8 ADD MSTORE PUSH2 0x5A4D DUP10 DUP8 ADD DUP3 DUP5 PUSH2 0x53D8 JUMP JUMPDEST SWAP2 POP POP DUP9 DUP3 ADD CALLDATALOAD SWAP2 POP PUSH2 0x5A5F DUP3 PUSH2 0x4AA2 JUMP JUMPDEST SWAP1 ISZERO ISZERO SWAP4 DUP9 ADD SWAP4 SWAP1 SWAP4 MSTORE SWAP3 DUP5 ADD SWAP3 SWAP1 DUP5 ADD SWAP1 PUSH1 0x1 ADD PUSH2 0x59DC JUMP JUMPDEST POP SWAP1 SWAP11 SWAP10 POP POP POP POP POP POP POP POP POP POP JUMP JUMPDEST PUSH1 0x0 DUP3 CALLDATALOAD PUSH1 0x5E NOT DUP4 CALLDATASIZE SUB ADD DUP2 SLT PUSH2 0x5A9F JUMPI PUSH1 0x0 DUP1 REVERT JUMPDEST SWAP2 SWAP1 SWAP2 ADD SWAP3 SWAP2 POP POP JUMP JUMPDEST PUSH1 0x0 DUP1 DUP4 CALLDATALOAD PUSH1 0x1E NOT DUP5 CALLDATASIZE SUB ADD DUP2 SLT PUSH2 0x5AC0 JUMPI PUSH1 0x0 DUP1 REVERT JUMPDEST DUP4 ADD DUP1 CALLDATALOAD SWAP2 POP PUSH1 0x1 PUSH1 0x1 PUSH1 0x40 SHL SUB DUP3 GT ISZERO PUSH2 0x5ADA JUMPI PUSH1 0x0 DUP1 REVERT JUMPDEST PUSH1 0x20 ADD SWAP2 POP CALLDATASIZE DUP2 SWAP1 SUB DUP3 SGT ISZERO PUSH2 0x4A9B JUMPI PUSH1 0x0 DUP1 REVERT JUMPDEST DUP2 DUP4 DUP3 CALLDATACOPY PUSH1 0x0 SWAP2 ADD SWAP1 DUP2 MSTORE SWAP2 SWAP1 POP JUMP JUMPDEST PUSH1 0x0 PUSH1 0xC0 DUP3 DUP5 SUB SLT ISZERO PUSH2 0x5B11 JUMPI PUSH1 0x0 DUP1 REVERT JUMPDEST PUSH1 0x40 MLOAD PUSH1 0xC0 DUP2 ADD DUP2 DUP2 LT PUSH1 0x1 PUSH1 0x1 PUSH1 0x40 SHL SUB DUP3 GT OR ISZERO PUSH2 0x5B33 JUMPI PUSH2 0x5B33 PUSH2 0x4C01 JUMP JUMPDEST DUP1 PUSH1 0x40 MSTORE POP DUP3 MLOAD DUP2 MSTORE PUSH1 0x20 DUP4 ADD MLOAD PUSH1 0x20 DUP3 ADD MSTORE PUSH1 0x40 DUP4 ADD MLOAD PUSH1 0x40 DUP3 ADD MSTORE PUSH1 0x60 DUP4 ADD MLOAD PUSH2 0x5B5E DUP2 PUSH2 0x489E JUMP JUMPDEST PUSH1 0x60 DUP3 ADD MSTORE PUSH1 0x80 DUP4 ADD MLOAD PUSH2 0x5B71 DUP2 PUSH2 0x4AA2 JUMP JUMPDEST PUSH1 0x80 DUP3 ADD MSTORE PUSH1 0xA0 DUP4 ADD MLOAD PUSH2 0x5B84 DUP2 PUSH2 0x4AA2 JUMP JUMPDEST PUSH1 0xA0 DUP3 ADD MSTORE SWAP4 SWAP3 POP POP POP JUMP JUMPDEST DUP6 DUP2 MSTORE PUSH1 0x80 PUSH1 0x20 DUP3 ADD MSTORE PUSH1 0x0 PUSH2 0x5BAA PUSH1 0x80 DUP4 ADD DUP7 DUP9 PUSH2 0x53D8 JUMP JUMPDEST PUSH1 0x40 DUP4 ADD SWAP5 SWAP1 SWAP5 MSTORE POP SWAP1 ISZERO ISZERO PUSH1 0x60 SWAP1 SWAP2 ADD MSTORE SWAP4 SWAP3 POP POP POP JUMP JUMPDEST PUSH1 0x0 DUP1 PUSH1 0x0 PUSH1 0x60 DUP5 DUP7 SUB SLT ISZERO PUSH2 0x5BD8 JUMPI PUSH1 0x0 DUP1 REVERT JUMPDEST DUP4 MLOAD PUSH1 0x1 PUSH1 0x1 PUSH1 0x40 SHL SUB DUP2 GT ISZERO PUSH2 0x5BEE JUMPI PUSH1 0x0 DUP1 REVERT JUMPDEST PUSH2 0x5BFA DUP7 DUP3 DUP8 ADD PUSH2 0x5324 JUMP JUMPDEST SWAP4 POP POP PUSH1 0x20 DUP5 ADD MLOAD SWAP2 POP PUSH1 0x40 DUP5 ADD MLOAD PUSH2 0x4AFB DUP2 PUSH2 0x4AA2 JUMP JUMPDEST PUSH1 0x0 PUSH1 0x20 DUP1 DUP4 DUP6 SUB SLT ISZERO PUSH2 0x5C25 JUMPI PUSH1 0x0 DUP1 REVERT JUMPDEST DUP3 MLOAD PUSH1 0x1 PUSH1 0x1 PUSH1 0x40 SHL SUB DUP2 GT ISZERO PUSH2 0x5C3B JUMPI PUSH1 0x0 DUP1 REVERT JUMPDEST DUP4 ADD PUSH1 0x1F DUP2 ADD DUP6 SGT PUSH2 0x5C4C JUMPI PUSH1 0x0 DUP1 REVERT JUMPDEST DUP1 MLOAD PUSH2 0x5C5A PUSH2 0x4CB5 DUP3 PUSH2 0x51CE JUMP JUMPDEST DUP2 DUP2 MSTORE PUSH1 0x5 SWAP2 SWAP1 SWAP2 SHL DUP3 ADD DUP4 ADD SWAP1 DUP4 DUP2 ADD SWAP1 DUP8 DUP4 GT ISZERO PUSH2 0x5C79 JUMPI PUSH1 0x0 DUP1 REVERT JUMPDEST SWAP3 DUP5 ADD SWAP3 JUMPDEST DUP3 DUP5 LT ISZERO PUSH2 0x5319 JUMPI DUP4 MLOAD PUSH2 0x5C91 DUP2 PUSH2 0x489E JUMP JUMPDEST DUP3 MSTORE SWAP3 DUP5 ADD SWAP3 SWAP1 DUP5 ADD SWAP1 PUSH2 0x5C7E JUMP JUMPDEST PUSH1 0x0 PUSH2 0x100 DUP8 DUP4 MSTORE DUP1 PUSH1 0x20 DUP5 ADD MSTORE PUSH2 0x5CBA DUP2 DUP5 ADD DUP9 PUSH2 0x49C3 JUMP JUMPDEST SWAP1 POP PUSH2 0x5CC9 PUSH1 0x40 DUP5 ADD DUP8 PUSH2 0x55BB JUMP JUMPDEST DUP3 DUP2 SUB PUSH1 0xE0 DUP5 ADD MSTORE PUSH2 0x58DD DUP2 DUP6 DUP8 PUSH2 0x57AD JUMP JUMPDEST PUSH1 0x0 DUP1 PUSH1 0x40 DUP4 DUP6 SUB SLT ISZERO PUSH2 0x5CEF JUMPI PUSH1 0x0 DUP1 REVERT JUMPDEST DUP3 MLOAD SWAP2 POP PUSH1 0x20 DUP4 ADD MLOAD PUSH2 0x490E DUP2 PUSH2 0x489E JUMP JUMPDEST PUSH1 0x0 PUSH1 0x20 DUP1 DUP4 DUP6 SUB SLT ISZERO PUSH2 0x5D14 JUMPI PUSH1 0x0 DUP1 REVERT JUMPDEST DUP3 MLOAD PUSH1 0x1 PUSH1 0x1 PUSH1 0x40 SHL SUB DUP1 DUP3 GT ISZERO PUSH2 0x5D2B JUMPI PUSH1 0x0 DUP1 REVERT JUMPDEST DUP2 DUP6 ADD SWAP2 POP DUP6 PUSH1 0x1F DUP4 ADD SLT PUSH2 0x5D3F JUMPI PUSH1 0x0 DUP1 REVERT JUMPDEST DUP2 MLOAD PUSH2 0x5D4D PUSH2 0x4CB5 DUP3 PUSH2 0x51CE JUMP JUMPDEST DUP2 DUP2 MSTORE PUSH1 0x5 SWAP2 SWAP1 SWAP2 SHL DUP4 ADD DUP5 ADD SWAP1 DUP5 DUP2 ADD SWAP1 DUP9 DUP4 GT ISZERO PUSH2 0x5D6C JUMPI PUSH1 0x0 DUP1 REVERT JUMPDEST DUP6 DUP6 ADD JUMPDEST DUP4 DUP2 LT ISZERO PUSH2 0x59A5 JUMPI DUP1 MLOAD DUP6 DUP2 GT ISZERO PUSH2 0x5D88 JUMPI PUSH1 0x0 DUP1 DUP2 REVERT JUMPDEST DUP7 ADD PUSH1 0x60 DUP2 DUP13 SUB PUSH1 0x1F NOT ADD DUP2 SGT ISZERO PUSH2 0x5DA0 JUMPI PUSH1 0x0 DUP1 DUP2 REVERT JUMPDEST PUSH2 0x5DA8 PUSH2 0x4C17 JUMP JUMPDEST DUP10 DUP4 ADD MLOAD DUP2 MSTORE PUSH1 0x40 DUP1 DUP5 ADD MLOAD DUP10 DUP2 GT ISZERO PUSH2 0x5DC2 JUMPI PUSH1 0x0 DUP1 DUP2 REVERT JUMPDEST PUSH2 0x5DD0 DUP16 DUP14 DUP4 DUP9 ADD ADD PUSH2 0x51F1 JUMP JUMPDEST DUP4 DUP14 ADD MSTORE POP SWAP3 DUP3 ADD MLOAD SWAP3 PUSH2 0x5DE3 DUP5 PUSH2 0x4AA2 JUMP JUMPDEST DUP2 ADD SWAP3 SWAP1 SWAP3 MSTORE POP DUP4 MSTORE SWAP2 DUP7 ADD SWAP2 DUP7 ADD PUSH2 0x5D70 JUMP JUMPDEST PUSH1 0x0 PUSH1 0x80 DUP1 DUP4 ADD DUP8 DUP5 MSTORE PUSH1 0x20 PUSH1 0x1 DUP1 PUSH1 0xA0 SHL SUB DUP9 AND DUP2 DUP7 ADD MSTORE PUSH1 0x40 DUP8 DUP2 DUP8 ADD MSTORE PUSH1 0x60 DUP5 DUP2 DUP9 ADD MSTORE DUP4 DUP9 MLOAD DUP1 DUP7 MSTORE PUSH1 0xA0 DUP10 ADD SWAP2 POP PUSH1 0xA0 DUP2 PUSH1 0x5 SHL DUP11 ADD ADD SWAP6 POP DUP5 DUP11 ADD PUSH1 0x0 DUP1 JUMPDEST DUP4 DUP2 LT ISZERO PUSH2 0x5EBB JUMPI DUP12 DUP10 SUB PUSH1 0x9F NOT ADD DUP6 MSTORE DUP3 MLOAD DUP1 MLOAD DUP11 MSTORE DUP9 DUP2 ADD MLOAD DUP10 DUP12 ADD DUP9 SWAP1 MSTORE DUP1 MLOAD DUP9 DUP13 ADD DUP2 SWAP1 MSTORE SWAP1 DUP11 ADD SWAP1 DUP5 SWAP1 DUP14 DUP14 ADD SWAP1 JUMPDEST DUP1 DUP4 LT ISZERO PUSH2 0x5E9A JUMPI DUP4 MLOAD PUSH1 0x1 PUSH1 0x1 PUSH1 0xE0 SHL SUB NOT AND DUP3 MSTORE SWAP3 DUP13 ADD SWAP3 PUSH1 0x1 SWAP3 SWAP1 SWAP3 ADD SWAP2 SWAP1 DUP13 ADD SWAP1 PUSH2 0x5E70 JUMP JUMPDEST POP SWAP3 DUP11 ADD MLOAD ISZERO ISZERO SWAP12 DUP11 ADD SWAP12 SWAP1 SWAP12 MSTORE POP SWAP9 POP SWAP4 DUP8 ADD SWAP4 SWAP2 DUP8 ADD SWAP2 PUSH1 0x1 ADD PUSH2 0x5E3C JUMP JUMPDEST POP SWAP7 SWAP15 SWAP14 POP POP POP POP POP POP POP POP POP POP POP POP POP POP JUMP JUMPDEST PUSH1 0x80 DUP2 MSTORE PUSH1 0x0 PUSH2 0x5EE3 PUSH1 0x80 DUP4 ADD DUP9 DUP11 PUSH2 0x53D8 JUMP JUMPDEST DUP3 DUP2 SUB PUSH1 0x20 DUP5 ADD MSTORE PUSH2 0x5EF6 DUP2 DUP8 DUP10 PUSH2 0x53D8 JUMP JUMPDEST SWAP2 POP POP DUP4 PUSH1 0x40 DUP4 ADD MSTORE PUSH2 0xFFFF DUP4 AND PUSH1 0x60 DUP4 ADD MSTORE SWAP8 SWAP7 POP POP POP POP POP POP POP JUMP JUMPDEST SWAP3 DUP4 MSTORE PUSH1 0x1 PUSH1 0x1 PUSH1 0xA0 SHL SUB SWAP2 SWAP1 SWAP2 AND PUSH1 0x20 DUP4 ADD MSTORE PUSH1 0x1 PUSH1 0x1 PUSH1 0xE0 SHL SUB NOT AND PUSH1 0x40 DUP3 ADD MSTORE PUSH1 0x60 ADD SWAP1 JUMP JUMPDEST DUP2 DUP2 SUB DUP2 DUP2 GT ISZERO PUSH2 0xF9E JUMPI PUSH2 0xF9E PUSH2 0x5921 JUMP JUMPDEST PUSH1 0x0 DUP3 MLOAD PUSH2 0x5A9F DUP2 DUP5 PUSH1 0x20 DUP8 ADD PUSH2 0x499F JUMP INVALID DIFFICULTY PUSH6 0x6C6567617465 PUSH4 0x616C6C20 PUSH10 0x735265616C6D55706772 PUSH2 0x6461 PUSH3 0x6C6520 CHAINID PUSH2 0x696C PUSH6 0x64360894A13B LOG1 LOG3 0x21 MOD PUSH8 0xC828492DB98DCA3E KECCAK256 PUSH23 0xCC3735A920A3CA505D382BBCA2646970667358221220BA ADDRESS PUSH25 0xC4C4E6CA7CB2B5F27BB6ED9820410EC63DAFC0F52828C9E1DB DIV PUSH14 0x260964736F6C63430008110033B5 BALANCE 0x27 PUSH9 0x4A568B3173AE13B9F8 0xA6 ADD PUSH15 0x243E63B6E8EE1178D6A717850B5D61 SUB "
    },
    "gasEstimates": {
      "creation": {
        "codeDepositCost": "4908200",
        "executionCost": "infinite",
        "totalCost": "infinite"
      },
      "external": {
        "": "253",
        "accessControlManager()": "2487",
        "addContextFuncRole(bytes32,bytes4,bytes32)": "infinite",
        "batchGrantRoleAccount((bytes32,address)[])": "infinite",
        "batchRegisterRole((bytes32,string,bool)[])": "infinite",
        "batchRevokeRoleAccount((bytes32,address)[])": "infinite",
        "contractContext()": "484",
        "contractName()": "2426",
        "contractRealm()": "2426",
        "contractVersion()": "2360",
        "domainSeparator()": "4793",
        "getContextFuncs(bytes32)": "infinite",
        "getContextInfo(bytes32)": "infinite",
        "getGroupInfo(bytes32)": "infinite",
        "getGroupRoles(bytes32)": "infinite",
        "getLibraries()": "infinite",
        "getPermitRegisterContext()": "2379",
        "getRealmContexts(bytes32)": "infinite",
        "getRealmInfo(bytes32)": "infinite",
        "getRoleAccounts(bytes32)": "infinite",
        "getRoleInfo(bytes32)": "infinite",
        "grantContextRole(bytes32,bytes4,bytes32)": "infinite",
        "grantRoleAccount(bytes32,address)": "infinite",
        "hasAccess(bytes32,address,bytes4)": "infinite",
        "hasContextRole(bytes32,bytes32,bytes4)": "infinite",
        "hasGroupRole(bytes32,bytes32)": "infinite",
        "hasRealmContext(bytes32,bytes32)": "infinite",
        "hasRoleAccount(bytes32,address)": "infinite",
        "initVersion()": "2414",
        "initialize(string,string,string,address,uint8)": "infinite",
        "isContextEnabled(bytes32)": "infinite",
        "isContextExists(bytes32)": "infinite",
        "isContextFunctionEnabled(bytes32,bytes4)": "infinite",
        "isContextFunctionExists(bytes32,bytes4)": "infinite",
        "isContextSafeMode(bytes32)": "infinite",
        "isContextUpgradable(bytes32)": "infinite",
        "isGroupEnabled(bytes32)": "infinite",
        "isGroupExists(bytes32)": "infinite",
        "isLivelyAdminRole(address)": "infinite",
        "isLivelyAssetAdminRole(address)": "infinite",
        "isLivelyAssetGroup(bytes32)": "infinite",
        "isLivelyAssetManagerRole(address)": "infinite",
        "isLivelyAssetRealm(bytes32)": "infinite",
        "isLivelyCommunityDaoExecutorRole(address)": "infinite",
        "isLivelyCommunityDaoRole(address)": "infinite",
        "isLivelyDaoGroup(bytes32)": "infinite",
        "isLivelyGeneralGroup(bytes32)": "infinite",
        "isLivelyGeneralRealm(bytes32)": "infinite",
        "isLivelySystemAdminRole(address)": "infinite",
        "isRealmEnabled(bytes32)": "infinite",
        "isRealmExists(bytes32)": "infinite",
        "isRealmUpgradable(bytes32)": "infinite",
        "isRoleEnabled(bytes32)": "infinite",
        "isRoleExists(bytes32)": "infinite",
        "isSafeMode()": "2444",
        "isUpgradable()": "2467",
        "localAdmin()": "2555",
        "proxiableUUID()": "infinite",
        "registerContext(bytes,(bytes32,bytes32,bytes32,address,bool),(bytes32,bytes4[],bool)[])": "infinite",
        "registerGroup(string,bool)": "infinite",
        "registerPredictContext(bytes,(bytes32,bytes32,bytes32,bytes32,address,address,bool),(bytes32,bytes4[],bool)[])": "infinite",
        "registerRealm(string,bool,bool)": "infinite",
        "registerRole(string,bytes32,bool)": "infinite",
        "removeContextFunc(bytes32,bytes4)": "infinite",
        "revokeContextRole(bytes32,bytes4,bytes32)": "infinite",
        "revokeRoleAccount(bytes32,address)": "infinite",
        "setContextRealm(bytes32,bytes32)": "infinite",
        "setContextStatus(bytes32,bool)": "infinite",
        "setGroupStatus(bytes32,bool)": "infinite",
        "setLocalAdmin(address)": "infinite",
        "setPermitRegisterContext(uint8)": "infinite",
        "setRealmStatus(bytes32,bool)": "infinite",
        "setRealmUpgradeStatus(bytes32,bool)": "infinite",
        "setRoleGroup(bytes32,bytes32)": "infinite",
        "setRoleStatus(bytes32,bool)": "infinite",
        "setSafeMode(bool)": "infinite",
        "setUpgradeStatus(bool)": "infinite",
        "subjectAddress()": "infinite",
        "supportsInterface(bytes4)": "infinite",
        "updateContext(bytes,(bytes32,bytes32,bytes32,address,bool),(bytes32,bytes4[],uint8)[])": "infinite",
        "upgradeTo(address,bytes,bool)": "infinite",
        "withdrawBalance(address)": "infinite"
      }
    },
    "methodIdentifiers": {
      "accessControlManager()": "b4a0bdf3",
      "addContextFuncRole(bytes32,bytes4,bytes32)": "031c0493",
      "batchGrantRoleAccount((bytes32,address)[])": "93ba3131",
      "batchRegisterRole((bytes32,string,bool)[])": "9e3a2cea",
      "batchRevokeRoleAccount((bytes32,address)[])": "c557020a",
      "contractContext()": "870666cb",
      "contractName()": "75d0c0dc",
      "contractRealm()": "d3e024b8",
      "contractVersion()": "a0a8e460",
      "domainSeparator()": "f698da25",
      "getContextFuncs(bytes32)": "2e2adf00",
      "getContextInfo(bytes32)": "9ebf6246",
      "getGroupInfo(bytes32)": "6b2b7dd8",
      "getGroupRoles(bytes32)": "edf1d1cb",
      "getLibraries()": "3e02bc38",
      "getPermitRegisterContext()": "d11345f8",
      "getRealmContexts(bytes32)": "37bfbfe8",
      "getRealmInfo(bytes32)": "3c7d5b25",
      "getRoleAccounts(bytes32)": "e1ed0a82",
      "getRoleInfo(bytes32)": "be409a11",
      "grantContextRole(bytes32,bytes4,bytes32)": "771bcf45",
      "grantRoleAccount(bytes32,address)": "8f09e0f0",
      "hasAccess(bytes32,address,bytes4)": "c7ab39e6",
      "hasContextRole(bytes32,bytes32,bytes4)": "6b3b0159",
      "hasGroupRole(bytes32,bytes32)": "f5122c92",
      "hasRealmContext(bytes32,bytes32)": "d9aba36e",
      "hasRoleAccount(bytes32,address)": "c7ea945c",
      "initVersion()": "38d38c97",
      "initialize(string,string,string,address,uint8)": "fbea7947",
      "isContextEnabled(bytes32)": "4944f532",
      "isContextExists(bytes32)": "8e703826",
      "isContextFunctionEnabled(bytes32,bytes4)": "b4c4b58f",
      "isContextFunctionExists(bytes32,bytes4)": "11b529b3",
      "isContextSafeMode(bytes32)": "101df54d",
      "isContextUpgradable(bytes32)": "51e70bb0",
      "isGroupEnabled(bytes32)": "3228144d",
      "isGroupExists(bytes32)": "1846d125",
      "isLivelyAdminRole(address)": "be409b57",
      "isLivelyAssetAdminRole(address)": "c34aa021",
      "isLivelyAssetGroup(bytes32)": "5bdaecce",
      "isLivelyAssetManagerRole(address)": "d9d34bf8",
      "isLivelyAssetRealm(bytes32)": "a32ce13d",
      "isLivelyCommunityDaoExecutorRole(address)": "076a6f22",
      "isLivelyCommunityDaoRole(address)": "a92f69c1",
      "isLivelyDaoGroup(bytes32)": "94cfd6e3",
      "isLivelyGeneralGroup(bytes32)": "4dc13c8f",
      "isLivelyGeneralRealm(bytes32)": "91690955",
      "isLivelySystemAdminRole(address)": "41565673",
      "isRealmEnabled(bytes32)": "c48e7ae6",
      "isRealmExists(bytes32)": "45b5203c",
      "isRealmUpgradable(bytes32)": "e25d75f0",
      "isRoleEnabled(bytes32)": "2f032edd",
      "isRoleExists(bytes32)": "dc853dd0",
      "isSafeMode()": "be22465d",
      "isUpgradable()": "5479d940",
      "localAdmin()": "f94a0adb",
      "proxiableUUID()": "52d1902d",
      "registerContext(bytes,(bytes32,bytes32,bytes32,address,bool),(bytes32,bytes4[],bool)[])": "f1df49da",
      "registerGroup(string,bool)": "3f4c99b8",
      "registerPredictContext(bytes,(bytes32,bytes32,bytes32,bytes32,address,address,bool),(bytes32,bytes4[],bool)[])": "7b443379",
      "registerRealm(string,bool,bool)": "4bb1be8c",
      "registerRole(string,bytes32,bool)": "b2dc26e5",
      "removeContextFunc(bytes32,bytes4)": "b58966de",
      "revokeContextRole(bytes32,bytes4,bytes32)": "4346a04b",
      "revokeRoleAccount(bytes32,address)": "df01de45",
      "setContextRealm(bytes32,bytes32)": "d3386401",
      "setContextStatus(bytes32,bool)": "70420ee3",
      "setGroupStatus(bytes32,bool)": "b6c03f03",
      "setLocalAdmin(address)": "d9dc1f19",
      "setPermitRegisterContext(uint8)": "f2f99fa4",
      "setRealmStatus(bytes32,bool)": "8b7dbd6c",
      "setRealmUpgradeStatus(bytes32,bool)": "f2c673bd",
      "setRoleGroup(bytes32,bytes32)": "dbf304b0",
      "setRoleStatus(bytes32,bool)": "e71e224e",
      "setSafeMode(bool)": "44b7e5f2",
      "setUpgradeStatus(bool)": "48e6be1c",
      "subjectAddress()": "58dbc45d",
      "supportsInterface(bytes4)": "01ffc9a7",
      "updateContext(bytes,(bytes32,bytes32,bytes32,address,bool),(bytes32,bytes4[],uint8)[])": "71d569d9",
      "upgradeTo(address,bytes,bool)": "7147855d",
      "withdrawBalance(address)": "756af45f"
    }
  },
  "storageLayout": {
    "storage": [
      {
        "astId": 19806,
        "contract": "src/contracts/acl/AccessControlManager.sol:AccessControlManager",
        "label": "_domainName",
        "offset": 0,
        "slot": "0",
        "type": "t_bytes32"
      },
      {
        "astId": 19808,
        "contract": "src/contracts/acl/AccessControlManager.sol:AccessControlManager",
        "label": "_domainVersion",
        "offset": 0,
        "slot": "1",
        "type": "t_bytes32"
      },
      {
        "astId": 19810,
        "contract": "src/contracts/acl/AccessControlManager.sol:AccessControlManager",
        "label": "_domainRealm",
        "offset": 0,
        "slot": "2",
        "type": "t_bytes32"
      },
      {
        "astId": 19812,
        "contract": "src/contracts/acl/AccessControlManager.sol:AccessControlManager",
        "label": "_accessControlManager",
        "offset": 0,
        "slot": "3",
        "type": "t_address"
      },
      {
        "astId": 19814,
        "contract": "src/contracts/acl/AccessControlManager.sol:AccessControlManager",
        "label": "_isSafeMode",
        "offset": 20,
        "slot": "3",
        "type": "t_bool"
      },
      {
        "astId": 19816,
        "contract": "src/contracts/acl/AccessControlManager.sol:AccessControlManager",
        "label": "_isUpgradable",
        "offset": 21,
        "slot": "3",
        "type": "t_bool"
      },
      {
        "astId": 19821,
        "contract": "src/contracts/acl/AccessControlManager.sol:AccessControlManager",
        "label": "__reserved",
        "offset": 0,
        "slot": "4",
        "type": "t_array(t_uint256)64_storage"
      },
      {
        "astId": 1682,
        "contract": "src/contracts/acl/AccessControlManager.sol:AccessControlManager",
        "label": "_data",
        "offset": 0,
        "slot": "68",
        "type": "t_struct(DataCollections)1679_storage"
      },
      {
        "astId": 19991,
        "contract": "src/contracts/acl/AccessControlManager.sol:AccessControlManager",
        "label": "_initialized",
        "offset": 0,
        "slot": "74",
        "type": "t_uint16"
      },
      {
        "astId": 19994,
        "contract": "src/contracts/acl/AccessControlManager.sol:AccessControlManager",
        "label": "_initializing",
        "offset": 2,
        "slot": "74",
        "type": "t_bool"
      }
    ],
    "types": {
      "t_address": {
        "encoding": "inplace",
        "label": "address",
        "numberOfBytes": "20"
      },
      "t_array(t_bytes32)dyn_storage": {
        "base": "t_bytes32",
        "encoding": "dynamic_array",
        "label": "bytes32[]",
        "numberOfBytes": "32"
      },
      "t_array(t_uint256)64_storage": {
        "base": "t_uint256",
        "encoding": "inplace",
        "label": "uint256[64]",
        "numberOfBytes": "2048"
      },
      "t_bool": {
        "encoding": "inplace",
        "label": "bool",
        "numberOfBytes": "1"
      },
      "t_bytes32": {
        "encoding": "inplace",
        "label": "bytes32",
        "numberOfBytes": "32"
      },
      "t_bytes4": {
        "encoding": "inplace",
        "label": "bytes4",
        "numberOfBytes": "4"
      },
      "t_enum(Status)1600": {
        "encoding": "inplace",
        "label": "enum AccessControlStorage.Status",
        "numberOfBytes": "1"
      },
      "t_mapping(t_address,t_mapping(t_bytes32,t_enum(Status)1600))": {
        "encoding": "mapping",
        "key": "t_address",
        "label": "mapping(address => mapping(bytes32 => enum AccessControlStorage.Status))",
        "numberOfBytes": "32",
        "value": "t_mapping(t_bytes32,t_enum(Status)1600)"
      },
      "t_mapping(t_bytes32,t_enum(Status)1600)": {
        "encoding": "mapping",
        "key": "t_bytes32",
        "label": "mapping(bytes32 => enum AccessControlStorage.Status)",
        "numberOfBytes": "32",
        "value": "t_enum(Status)1600"
      },
      "t_mapping(t_bytes32,t_struct(Context)1621_storage)": {
        "encoding": "mapping",
        "key": "t_bytes32",
        "label": "mapping(bytes32 => struct AccessControlStorage.Context)",
        "numberOfBytes": "32",
        "value": "t_struct(Context)1621_storage"
      },
      "t_mapping(t_bytes32,t_struct(Group)1649_storage)": {
        "encoding": "mapping",
        "key": "t_bytes32",
        "label": "mapping(bytes32 => struct AccessControlStorage.Group)",
        "numberOfBytes": "32",
        "value": "t_struct(Group)1649_storage"
      },
      "t_mapping(t_bytes32,t_struct(Realm)1641_storage)": {
        "encoding": "mapping",
        "key": "t_bytes32",
        "label": "mapping(bytes32 => struct AccessControlStorage.Realm)",
        "numberOfBytes": "32",
        "value": "t_struct(Realm)1641_storage"
      },
      "t_mapping(t_bytes32,t_struct(Role)1631_storage)": {
        "encoding": "mapping",
        "key": "t_bytes32",
        "label": "mapping(bytes32 => struct AccessControlStorage.Role)",
        "numberOfBytes": "32",
        "value": "t_struct(Role)1631_storage"
      },
      "t_mapping(t_bytes32,t_uint256)": {
        "encoding": "mapping",
        "key": "t_bytes32",
        "label": "mapping(bytes32 => uint256)",
        "numberOfBytes": "32",
        "value": "t_uint256"
      },
      "t_mapping(t_bytes4,t_struct(RoleStat)1606_storage)": {
        "encoding": "mapping",
        "key": "t_bytes4",
        "label": "mapping(bytes4 => struct AccessControlStorage.RoleStat)",
        "numberOfBytes": "32",
        "value": "t_struct(RoleStat)1606_storage"
      },
      "t_string_storage": {
        "encoding": "bytes",
        "label": "string",
        "numberOfBytes": "32"
      },
      "t_struct(AddressSet)15765_storage": {
        "encoding": "inplace",
        "label": "struct LEnumerableSet.AddressSet",
        "members": [
          {
            "astId": 15764,
            "contract": "src/contracts/acl/AccessControlManager.sol:AccessControlManager",
            "label": "_inner",
            "offset": 0,
            "slot": "0",
            "type": "t_struct(Set)15464_storage"
          }
        ],
        "numberOfBytes": "64"
      },
      "t_struct(Bytes32Set)15658_storage": {
        "encoding": "inplace",
        "label": "struct LEnumerableSet.Bytes32Set",
        "members": [
          {
            "astId": 15657,
            "contract": "src/contracts/acl/AccessControlManager.sol:AccessControlManager",
            "label": "_inner",
            "offset": 0,
            "slot": "0",
            "type": "t_struct(Set)15464_storage"
          }
        ],
        "numberOfBytes": "64"
      },
      "t_struct(Context)1621_storage": {
        "encoding": "inplace",
        "label": "struct AccessControlStorage.Context",
        "members": [
          {
            "astId": 1608,
            "contract": "src/contracts/acl/AccessControlManager.sol:AccessControlManager",
            "label": "realm",
            "offset": 0,
            "slot": "0",
            "type": "t_bytes32"
          },
          {
            "astId": 1610,
            "contract": "src/contracts/acl/AccessControlManager.sol:AccessControlManager",
            "label": "contractId",
            "offset": 0,
            "slot": "1",
            "type": "t_address"
          },
          {
            "astId": 1612,
            "contract": "src/contracts/acl/AccessControlManager.sol:AccessControlManager",
            "label": "isEnabled",
            "offset": 20,
            "slot": "1",
            "type": "t_bool"
          },
          {
            "astId": 1617,
            "contract": "src/contracts/acl/AccessControlManager.sol:AccessControlManager",
            "label": "resources",
            "offset": 0,
            "slot": "2",
            "type": "t_mapping(t_bytes4,t_struct(RoleStat)1606_storage)"
          },
          {
            "astId": 1620,
            "contract": "src/contracts/acl/AccessControlManager.sol:AccessControlManager",
            "label": "funcSet",
            "offset": 0,
            "slot": "3",
            "type": "t_struct(Bytes32Set)15658_storage"
          }
        ],
        "numberOfBytes": "160"
      },
      "t_struct(DataCollections)1679_storage": {
        "encoding": "inplace",
        "label": "struct AccessControlStorage.DataCollections",
        "members": [
          {
            "astId": 1656,
            "contract": "src/contracts/acl/AccessControlManager.sol:AccessControlManager",
            "label": "accountMap",
            "offset": 0,
            "slot": "0",
            "type": "t_mapping(t_address,t_mapping(t_bytes32,t_enum(Status)1600))"
          },
          {
            "astId": 1661,
            "contract": "src/contracts/acl/AccessControlManager.sol:AccessControlManager",
            "label": "ctxMap",
            "offset": 0,
            "slot": "1",
            "type": "t_mapping(t_bytes32,t_struct(Context)1621_storage)"
          },
          {
            "astId": 1666,
            "contract": "src/contracts/acl/AccessControlManager.sol:AccessControlManager",
            "label": "roleMap",
            "offset": 0,
            "slot": "2",
            "type": "t_mapping(t_bytes32,t_struct(Role)1631_storage)"
          },
          {
            "astId": 1671,
            "contract": "src/contracts/acl/AccessControlManager.sol:AccessControlManager",
            "label": "realmMap",
            "offset": 0,
            "slot": "3",
            "type": "t_mapping(t_bytes32,t_struct(Realm)1641_storage)"
          },
          {
            "astId": 1676,
            "contract": "src/contracts/acl/AccessControlManager.sol:AccessControlManager",
            "label": "groupMap",
            "offset": 0,
            "slot": "4",
            "type": "t_mapping(t_bytes32,t_struct(Group)1649_storage)"
          },
          {
            "astId": 1678,
            "contract": "src/contracts/acl/AccessControlManager.sol:AccessControlManager",
            "label": "permitRegisterContextCount",
            "offset": 0,
            "slot": "5",
            "type": "t_uint8"
          }
        ],
        "numberOfBytes": "192"
      },
      "t_struct(Group)1649_storage": {
        "encoding": "inplace",
        "label": "struct AccessControlStorage.Group",
        "members": [
          {
            "astId": 1643,
            "contract": "src/contracts/acl/AccessControlManager.sol:AccessControlManager",
            "label": "name",
            "offset": 0,
            "slot": "0",
            "type": "t_string_storage"
          },
          {
            "astId": 1645,
            "contract": "src/contracts/acl/AccessControlManager.sol:AccessControlManager",
            "label": "isEnabled",
            "offset": 0,
            "slot": "1",
            "type": "t_bool"
          },
          {
            "astId": 1648,
            "contract": "src/contracts/acl/AccessControlManager.sol:AccessControlManager",
            "label": "roleSet",
            "offset": 0,
            "slot": "2",
            "type": "t_struct(Bytes32Set)15658_storage"
          }
        ],
        "numberOfBytes": "128"
      },
      "t_struct(Realm)1641_storage": {
        "encoding": "inplace",
        "label": "struct AccessControlStorage.Realm",
        "members": [
          {
            "astId": 1633,
            "contract": "src/contracts/acl/AccessControlManager.sol:AccessControlManager",
            "label": "name",
            "offset": 0,
            "slot": "0",
            "type": "t_string_storage"
          },
          {
            "astId": 1635,
            "contract": "src/contracts/acl/AccessControlManager.sol:AccessControlManager",
            "label": "isEnabled",
            "offset": 0,
            "slot": "1",
            "type": "t_bool"
          },
          {
            "astId": 1637,
            "contract": "src/contracts/acl/AccessControlManager.sol:AccessControlManager",
            "label": "isUpgradable",
            "offset": 1,
            "slot": "1",
            "type": "t_bool"
          },
          {
            "astId": 1640,
            "contract": "src/contracts/acl/AccessControlManager.sol:AccessControlManager",
            "label": "ctxSet",
            "offset": 0,
            "slot": "2",
            "type": "t_struct(Bytes32Set)15658_storage"
          }
        ],
        "numberOfBytes": "128"
      },
      "t_struct(Role)1631_storage": {
        "encoding": "inplace",
        "label": "struct AccessControlStorage.Role",
        "members": [
          {
            "astId": 1623,
            "contract": "src/contracts/acl/AccessControlManager.sol:AccessControlManager",
            "label": "group",
            "offset": 0,
            "slot": "0",
            "type": "t_bytes32"
          },
          {
            "astId": 1625,
            "contract": "src/contracts/acl/AccessControlManager.sol:AccessControlManager",
            "label": "name",
            "offset": 0,
            "slot": "1",
            "type": "t_string_storage"
          },
          {
            "astId": 1627,
            "contract": "src/contracts/acl/AccessControlManager.sol:AccessControlManager",
            "label": "isEnabled",
            "offset": 0,
            "slot": "2",
            "type": "t_bool"
          },
          {
            "astId": 1630,
            "contract": "src/contracts/acl/AccessControlManager.sol:AccessControlManager",
            "label": "accountSet",
            "offset": 0,
            "slot": "3",
            "type": "t_struct(AddressSet)15765_storage"
          }
        ],
        "numberOfBytes": "160"
      },
      "t_struct(RoleStat)1606_storage": {
        "encoding": "inplace",
        "label": "struct AccessControlStorage.RoleStat",
        "members": [
          {
            "astId": 1602,
            "contract": "src/contracts/acl/AccessControlManager.sol:AccessControlManager",
            "label": "role",
            "offset": 0,
            "slot": "0",
            "type": "t_bytes32"
          },
          {
            "astId": 1605,
            "contract": "src/contracts/acl/AccessControlManager.sol:AccessControlManager",
            "label": "status",
            "offset": 0,
            "slot": "1",
            "type": "t_enum(Status)1600"
          }
        ],
        "numberOfBytes": "64"
      },
      "t_struct(Set)15464_storage": {
        "encoding": "inplace",
        "label": "struct LEnumerableSet.Set",
        "members": [
          {
            "astId": 15459,
            "contract": "src/contracts/acl/AccessControlManager.sol:AccessControlManager",
            "label": "_values",
            "offset": 0,
            "slot": "0",
            "type": "t_array(t_bytes32)dyn_storage"
          },
          {
            "astId": 15463,
            "contract": "src/contracts/acl/AccessControlManager.sol:AccessControlManager",
            "label": "_indexes",
            "offset": 0,
            "slot": "1",
            "type": "t_mapping(t_bytes32,t_uint256)"
          }
        ],
        "numberOfBytes": "64"
      },
      "t_uint16": {
        "encoding": "inplace",
        "label": "uint16",
        "numberOfBytes": "2"
      },
      "t_uint256": {
        "encoding": "inplace",
        "label": "uint256",
        "numberOfBytes": "32"
      },
      "t_uint8": {
        "encoding": "inplace",
        "label": "uint8",
        "numberOfBytes": "1"
      }
    }
  },
  "userdoc": {
    "kind": "user",
    "methods": {},
    "version": 1
  }
}