{
  "contractName": "AccessControlManager",
  "sourceName": "src/contracts/acl/AccessControlManager.sol",
  "abi": [
    {
      "inputs": [],
      "stateMutability": "nonpayable",
      "type": "constructor"
    },
    {
      "anonymous": false,
      "inputs": [
        {
          "indexed": true,
          "internalType": "bytes32",
          "name": "context",
          "type": "bytes32"
        },
        {
          "indexed": true,
          "internalType": "address",
          "name": "sender",
          "type": "address"
        },
        {
          "indexed": false,
          "internalType": "bytes4",
          "name": "functionSelector",
          "type": "bytes4"
        },
        {
          "indexed": false,
          "internalType": "bytes32",
          "name": "realm",
          "type": "bytes32"
        }
      ],
      "name": "ContextFuncRemoved",
      "type": "event"
    },
    {
      "anonymous": false,
      "inputs": [
        {
          "indexed": true,
          "internalType": "bytes32",
          "name": "context",
          "type": "bytes32"
        },
        {
          "indexed": true,
          "internalType": "bytes32",
          "name": "role",
          "type": "bytes32"
        },
        {
          "indexed": true,
          "internalType": "address",
          "name": "sender",
          "type": "address"
        },
        {
          "indexed": false,
          "internalType": "bytes4",
          "name": "functionSelector",
          "type": "bytes4"
        },
        {
          "indexed": false,
          "internalType": "bytes32",
          "name": "realm",
          "type": "bytes32"
        }
      ],
      "name": "ContextFuncRoleAdded",
      "type": "event"
    },
    {
      "anonymous": false,
      "inputs": [
        {
          "indexed": true,
          "internalType": "bytes32",
          "name": "context",
          "type": "bytes32"
        },
        {
          "indexed": true,
          "internalType": "address",
          "name": "sender",
          "type": "address"
        },
        {
          "indexed": true,
          "internalType": "bytes32",
          "name": "realm",
          "type": "bytes32"
        },
        {
          "indexed": false,
          "internalType": "bytes32",
          "name": "oldRealm",
          "type": "bytes32"
        }
      ],
      "name": "ContextRealmChanged",
      "type": "event"
    },
    {
      "anonymous": false,
      "inputs": [
        {
          "indexed": true,
          "internalType": "bytes32",
          "name": "context",
          "type": "bytes32"
        },
        {
          "indexed": true,
          "internalType": "address",
          "name": "scma",
          "type": "address"
        },
        {
          "indexed": true,
          "internalType": "address",
          "name": "sender",
          "type": "address"
        },
        {
          "indexed": false,
          "internalType": "bytes32",
          "name": "realm",
          "type": "bytes32"
        }
      ],
      "name": "ContextRegistered",
      "type": "event"
    },
    {
      "anonymous": false,
      "inputs": [
        {
          "indexed": true,
          "internalType": "bytes32",
          "name": "context",
          "type": "bytes32"
        },
        {
          "indexed": true,
          "internalType": "bytes32",
          "name": "role",
          "type": "bytes32"
        },
        {
          "indexed": true,
          "internalType": "address",
          "name": "sender",
          "type": "address"
        },
        {
          "indexed": false,
          "internalType": "bytes4",
          "name": "functionSelector",
          "type": "bytes4"
        },
        {
          "indexed": false,
          "internalType": "bytes32",
          "name": "realm",
          "type": "bytes32"
        }
      ],
      "name": "ContextRoleGranted",
      "type": "event"
    },
    {
      "anonymous": false,
      "inputs": [
        {
          "indexed": true,
          "internalType": "bytes32",
          "name": "context",
          "type": "bytes32"
        },
        {
          "indexed": true,
          "internalType": "bytes32",
          "name": "role",
          "type": "bytes32"
        },
        {
          "indexed": true,
          "internalType": "address",
          "name": "sender",
          "type": "address"
        },
        {
          "indexed": false,
          "internalType": "bytes4",
          "name": "functionSelector",
          "type": "bytes4"
        },
        {
          "indexed": false,
          "internalType": "bytes32",
          "name": "realm",
          "type": "bytes32"
        }
      ],
      "name": "ContextRoleRevoked",
      "type": "event"
    },
    {
      "anonymous": false,
      "inputs": [
        {
          "indexed": true,
          "internalType": "bytes32",
          "name": "context",
          "type": "bytes32"
        },
        {
          "indexed": true,
          "internalType": "address",
          "name": "sender",
          "type": "address"
        },
        {
          "indexed": true,
          "internalType": "bytes32",
          "name": "realm",
          "type": "bytes32"
        },
        {
          "indexed": false,
          "internalType": "bool",
          "name": "status",
          "type": "bool"
        }
      ],
      "name": "ContextStatusChanged",
      "type": "event"
    },
    {
      "anonymous": false,
      "inputs": [
        {
          "indexed": true,
          "internalType": "bytes32",
          "name": "context",
          "type": "bytes32"
        },
        {
          "indexed": true,
          "internalType": "address",
          "name": "scma",
          "type": "address"
        },
        {
          "indexed": true,
          "internalType": "address",
          "name": "sender",
          "type": "address"
        },
        {
          "indexed": false,
          "internalType": "bytes32",
          "name": "realm",
          "type": "bytes32"
        }
      ],
      "name": "ContextUpdated",
      "type": "event"
    },
    {
      "anonymous": false,
      "inputs": [
        {
          "indexed": true,
          "internalType": "bytes32",
          "name": "group",
          "type": "bytes32"
        },
        {
          "indexed": true,
          "internalType": "address",
          "name": "sender",
          "type": "address"
        },
        {
          "indexed": false,
          "internalType": "string",
          "name": "name",
          "type": "string"
        },
        {
          "indexed": false,
          "internalType": "bool",
          "name": "status",
          "type": "bool"
        }
      ],
      "name": "GroupRegistered",
      "type": "event"
    },
    {
      "anonymous": false,
      "inputs": [
        {
          "indexed": true,
          "internalType": "bytes32",
          "name": "group",
          "type": "bytes32"
        },
        {
          "indexed": true,
          "internalType": "address",
          "name": "sender",
          "type": "address"
        },
        {
          "indexed": false,
          "internalType": "bool",
          "name": "status",
          "type": "bool"
        }
      ],
      "name": "GroupStatusChanged",
      "type": "event"
    },
    {
      "anonymous": false,
      "inputs": [
        {
          "indexed": true,
          "internalType": "address",
          "name": "sender",
          "type": "address"
        },
        {
          "indexed": true,
          "internalType": "address",
          "name": "proxy",
          "type": "address"
        },
        {
          "indexed": true,
          "internalType": "address",
          "name": "subject",
          "type": "address"
        },
        {
          "indexed": false,
          "internalType": "string",
          "name": "name",
          "type": "string"
        },
        {
          "indexed": false,
          "internalType": "string",
          "name": "version",
          "type": "string"
        },
        {
          "indexed": false,
          "internalType": "bytes32",
          "name": "realm",
          "type": "bytes32"
        },
        {
          "indexed": false,
          "internalType": "uint16",
          "name": "initCount",
          "type": "uint16"
        }
      ],
      "name": "Initialized",
      "type": "event"
    },
    {
      "anonymous": false,
      "inputs": [
        {
          "indexed": true,
          "internalType": "address",
          "name": "sender",
          "type": "address"
        },
        {
          "indexed": true,
          "internalType": "address",
          "name": "proxy",
          "type": "address"
        },
        {
          "indexed": false,
          "internalType": "address",
          "name": "newAdmin",
          "type": "address"
        }
      ],
      "name": "LocalAdminChanged",
      "type": "event"
    },
    {
      "anonymous": false,
      "inputs": [
        {
          "indexed": true,
          "internalType": "bytes32",
          "name": "realm",
          "type": "bytes32"
        },
        {
          "indexed": true,
          "internalType": "address",
          "name": "sender",
          "type": "address"
        },
        {
          "indexed": false,
          "internalType": "string",
          "name": "name",
          "type": "string"
        },
        {
          "indexed": false,
          "internalType": "bool",
          "name": "status",
          "type": "bool"
        },
        {
          "indexed": false,
          "internalType": "bool",
          "name": "isUpgradable",
          "type": "bool"
        }
      ],
      "name": "RealmRegistered",
      "type": "event"
    },
    {
      "anonymous": false,
      "inputs": [
        {
          "indexed": true,
          "internalType": "bytes32",
          "name": "realm",
          "type": "bytes32"
        },
        {
          "indexed": true,
          "internalType": "address",
          "name": "sender",
          "type": "address"
        },
        {
          "indexed": false,
          "internalType": "bool",
          "name": "status",
          "type": "bool"
        }
      ],
      "name": "RealmStatusChanged",
      "type": "event"
    },
    {
      "anonymous": false,
      "inputs": [
        {
          "indexed": true,
          "internalType": "bytes32",
          "name": "realm",
          "type": "bytes32"
        },
        {
          "indexed": true,
          "internalType": "address",
          "name": "sender",
          "type": "address"
        },
        {
          "indexed": false,
          "internalType": "bool",
          "name": "status",
          "type": "bool"
        }
      ],
      "name": "RealmUpgradeStatusChanged",
      "type": "event"
    },
    {
      "anonymous": false,
      "inputs": [
        {
          "indexed": true,
          "internalType": "bytes32",
          "name": "role",
          "type": "bytes32"
        },
        {
          "indexed": true,
          "internalType": "address",
          "name": "account",
          "type": "address"
        },
        {
          "indexed": true,
          "internalType": "address",
          "name": "sender",
          "type": "address"
        }
      ],
      "name": "RoleAccountGranted",
      "type": "event"
    },
    {
      "anonymous": false,
      "inputs": [
        {
          "indexed": true,
          "internalType": "bytes32",
          "name": "role",
          "type": "bytes32"
        },
        {
          "indexed": true,
          "internalType": "address",
          "name": "account",
          "type": "address"
        },
        {
          "indexed": true,
          "internalType": "address",
          "name": "sender",
          "type": "address"
        }
      ],
      "name": "RoleAccountRevoked",
      "type": "event"
    },
    {
      "anonymous": false,
      "inputs": [
        {
          "indexed": true,
          "internalType": "bytes32",
          "name": "role",
          "type": "bytes32"
        },
        {
          "indexed": true,
          "internalType": "address",
          "name": "sender",
          "type": "address"
        },
        {
          "indexed": true,
          "internalType": "bytes32",
          "name": "newGroup",
          "type": "bytes32"
        },
        {
          "indexed": false,
          "internalType": "bytes32",
          "name": "oldGroup",
          "type": "bytes32"
        }
      ],
      "name": "RoleGroupChanged",
      "type": "event"
    },
    {
      "anonymous": false,
      "inputs": [
        {
          "indexed": true,
          "internalType": "bytes32",
          "name": "role",
          "type": "bytes32"
        },
        {
          "indexed": true,
          "internalType": "string",
          "name": "name",
          "type": "string"
        },
        {
          "indexed": true,
          "internalType": "address",
          "name": "sender",
          "type": "address"
        },
        {
          "indexed": false,
          "internalType": "bytes32",
          "name": "group",
          "type": "bytes32"
        },
        {
          "indexed": false,
          "internalType": "bool",
          "name": "isEnabled",
          "type": "bool"
        }
      ],
      "name": "RoleRegistered",
      "type": "event"
    },
    {
      "anonymous": false,
      "inputs": [
        {
          "indexed": true,
          "internalType": "bytes32",
          "name": "role",
          "type": "bytes32"
        },
        {
          "indexed": true,
          "internalType": "address",
          "name": "sender",
          "type": "address"
        },
        {
          "indexed": true,
          "internalType": "bytes32",
          "name": "group",
          "type": "bytes32"
        },
        {
          "indexed": false,
          "internalType": "bool",
          "name": "status",
          "type": "bool"
        }
      ],
      "name": "RoleStatusChanged",
      "type": "event"
    },
    {
      "anonymous": false,
      "inputs": [
        {
          "indexed": true,
          "internalType": "address",
          "name": "sender",
          "type": "address"
        },
        {
          "indexed": true,
          "internalType": "address",
          "name": "proxy",
          "type": "address"
        },
        {
          "indexed": true,
          "internalType": "bytes32",
          "name": "realm",
          "type": "bytes32"
        },
        {
          "indexed": false,
          "internalType": "bool",
          "name": "status",
          "type": "bool"
        }
      ],
      "name": "SafeModeChanged",
      "type": "event"
    },
    {
      "anonymous": false,
      "inputs": [
        {
          "indexed": true,
          "internalType": "address",
          "name": "sender",
          "type": "address"
        },
        {
          "indexed": true,
          "internalType": "address",
          "name": "proxy",
          "type": "address"
        },
        {
          "indexed": true,
          "internalType": "bytes32",
          "name": "realm",
          "type": "bytes32"
        },
        {
          "indexed": false,
          "internalType": "bool",
          "name": "status",
          "type": "bool"
        }
      ],
      "name": "UpgradeStatusChanged",
      "type": "event"
    },
    {
      "anonymous": false,
      "inputs": [
        {
          "indexed": true,
          "internalType": "address",
          "name": "sender",
          "type": "address"
        },
        {
          "indexed": true,
          "internalType": "address",
          "name": "proxy",
          "type": "address"
        },
        {
          "indexed": true,
          "internalType": "address",
          "name": "newImplementation",
          "type": "address"
        }
      ],
      "name": "Upgraded",
      "type": "event"
    },
    {
      "stateMutability": "payable",
      "type": "fallback"
    },
    {
      "inputs": [],
      "name": "accessControlManager",
      "outputs": [
        {
          "internalType": "address",
          "name": "",
          "type": "address"
        }
      ],
      "stateMutability": "view",
      "type": "function"
    },
    {
      "inputs": [
        {
          "internalType": "bytes32",
          "name": "ctx",
          "type": "bytes32"
        },
        {
          "internalType": "bytes4",
          "name": "functionSelector",
          "type": "bytes4"
        },
        {
          "internalType": "bytes32",
          "name": "role",
          "type": "bytes32"
        }
      ],
      "name": "addContextFuncRole",
      "outputs": [
        {
          "internalType": "bool",
          "name": "",
          "type": "bool"
        }
      ],
      "stateMutability": "nonpayable",
      "type": "function"
    },
    {
      "inputs": [],
      "name": "contractContext",
      "outputs": [
        {
          "internalType": "bytes32",
          "name": "",
          "type": "bytes32"
        }
      ],
      "stateMutability": "view",
      "type": "function"
    },
    {
      "inputs": [],
      "name": "contractName",
      "outputs": [
        {
          "internalType": "bytes32",
          "name": "",
          "type": "bytes32"
        }
      ],
      "stateMutability": "view",
      "type": "function"
    },
    {
      "inputs": [],
      "name": "contractRealm",
      "outputs": [
        {
          "internalType": "bytes32",
          "name": "",
          "type": "bytes32"
        }
      ],
      "stateMutability": "view",
      "type": "function"
    },
    {
      "inputs": [],
      "name": "contractVersion",
      "outputs": [
        {
          "internalType": "bytes32",
          "name": "",
          "type": "bytes32"
        }
      ],
      "stateMutability": "view",
      "type": "function"
    },
    {
      "inputs": [],
      "name": "domainSeparator",
      "outputs": [
        {
          "internalType": "bytes32",
          "name": "",
          "type": "bytes32"
        }
      ],
      "stateMutability": "view",
      "type": "function"
    },
    {
      "inputs": [
        {
          "internalType": "bytes32",
          "name": "ctx",
          "type": "bytes32"
        }
      ],
      "name": "getContextFuncs",
      "outputs": [
        {
          "internalType": "bytes4[]",
          "name": "",
          "type": "bytes4[]"
        }
      ],
      "stateMutability": "view",
      "type": "function"
    },
    {
      "inputs": [
        {
          "internalType": "bytes32",
          "name": "ctx",
          "type": "bytes32"
        }
      ],
      "name": "getContextInfo",
      "outputs": [
        {
          "components": [
            {
              "internalType": "bytes32",
              "name": "name",
              "type": "bytes32"
            },
            {
              "internalType": "bytes32",
              "name": "version",
              "type": "bytes32"
            },
            {
              "internalType": "bytes32",
              "name": "realm",
              "type": "bytes32"
            },
            {
              "internalType": "address",
              "name": "smca",
              "type": "address"
            },
            {
              "internalType": "bool",
              "name": "isSafeMode",
              "type": "bool"
            },
            {
              "internalType": "bool",
              "name": "isUpgradable",
              "type": "bool"
            }
          ],
          "internalType": "struct IContextManagement.ResponseContext",
          "name": "",
          "type": "tuple"
        }
      ],
      "stateMutability": "view",
      "type": "function"
    },
    {
      "inputs": [
        {
          "internalType": "bytes32",
          "name": "group",
          "type": "bytes32"
        }
      ],
      "name": "getGroupInfo",
      "outputs": [
        {
          "internalType": "string",
          "name": "",
          "type": "string"
        },
        {
          "internalType": "bool",
          "name": "",
          "type": "bool"
        }
      ],
      "stateMutability": "view",
      "type": "function"
    },
    {
      "inputs": [
        {
          "internalType": "bytes32",
          "name": "group",
          "type": "bytes32"
        }
      ],
      "name": "getGroupRoles",
      "outputs": [
        {
          "internalType": "bytes32[]",
          "name": "",
          "type": "bytes32[]"
        }
      ],
      "stateMutability": "view",
      "type": "function"
    },
    {
      "inputs": [
        {
          "internalType": "bytes32",
          "name": "realm",
          "type": "bytes32"
        }
      ],
      "name": "getRealmContexts",
      "outputs": [
        {
          "internalType": "bytes32[]",
          "name": "",
          "type": "bytes32[]"
        }
      ],
      "stateMutability": "view",
      "type": "function"
    },
    {
      "inputs": [
        {
          "internalType": "bytes32",
          "name": "realm",
          "type": "bytes32"
        }
      ],
      "name": "getRealmInfo",
      "outputs": [
        {
          "internalType": "string",
          "name": "",
          "type": "string"
        },
        {
          "internalType": "bool",
          "name": "",
          "type": "bool"
        },
        {
          "internalType": "bool",
          "name": "",
          "type": "bool"
        }
      ],
      "stateMutability": "view",
      "type": "function"
    },
    {
      "inputs": [
        {
          "internalType": "bytes32",
          "name": "role",
          "type": "bytes32"
        }
      ],
      "name": "getRoleAccounts",
      "outputs": [
        {
          "internalType": "address[]",
          "name": "",
          "type": "address[]"
        }
      ],
      "stateMutability": "view",
      "type": "function"
    },
    {
      "inputs": [
        {
          "internalType": "bytes32",
          "name": "role",
          "type": "bytes32"
        }
      ],
      "name": "getRoleInfo",
      "outputs": [
        {
          "internalType": "string",
          "name": "",
          "type": "string"
        },
        {
          "internalType": "bytes32",
          "name": "",
          "type": "bytes32"
        },
        {
          "internalType": "bool",
          "name": "",
          "type": "bool"
        }
      ],
      "stateMutability": "view",
      "type": "function"
    },
    {
      "inputs": [
        {
          "internalType": "bytes32",
          "name": "ctx",
          "type": "bytes32"
        },
        {
          "internalType": "bytes4",
          "name": "functionSelector",
          "type": "bytes4"
        },
        {
          "internalType": "bytes32",
          "name": "role",
          "type": "bytes32"
        }
      ],
      "name": "grantContextRole",
      "outputs": [
        {
          "internalType": "bool",
          "name": "",
          "type": "bool"
        }
      ],
      "stateMutability": "nonpayable",
      "type": "function"
    },
    {
      "inputs": [
        {
          "internalType": "bytes32",
          "name": "role",
          "type": "bytes32"
        },
        {
          "internalType": "address",
          "name": "account",
          "type": "address"
        }
      ],
      "name": "grantRoleAccount",
      "outputs": [
        {
          "internalType": "bool",
          "name": "",
          "type": "bool"
        }
      ],
      "stateMutability": "nonpayable",
      "type": "function"
    },
    {
      "inputs": [
        {
          "internalType": "bytes32",
          "name": "context",
          "type": "bytes32"
        },
        {
          "internalType": "address",
          "name": "account",
          "type": "address"
        },
        {
          "internalType": "bytes4",
          "name": "signature",
          "type": "bytes4"
        }
      ],
      "name": "hasAccess",
      "outputs": [
        {
          "internalType": "bool",
          "name": "",
          "type": "bool"
        }
      ],
      "stateMutability": "view",
      "type": "function"
    },
    {
      "inputs": [
        {
          "internalType": "bytes32",
          "name": "ctx",
          "type": "bytes32"
        },
        {
          "internalType": "bytes32",
          "name": "role",
          "type": "bytes32"
        },
        {
          "internalType": "bytes4",
          "name": "functionSelector",
          "type": "bytes4"
        }
      ],
      "name": "hasContextRole",
      "outputs": [
        {
          "internalType": "bool",
          "name": "",
          "type": "bool"
        }
      ],
      "stateMutability": "view",
      "type": "function"
    },
    {
      "inputs": [
        {
          "internalType": "bytes32",
          "name": "group",
          "type": "bytes32"
        },
        {
          "internalType": "bytes32",
          "name": "role",
          "type": "bytes32"
        }
      ],
      "name": "hasGroupRole",
      "outputs": [
        {
          "internalType": "bool",
          "name": "",
          "type": "bool"
        }
      ],
      "stateMutability": "view",
      "type": "function"
    },
    {
      "inputs": [
        {
          "internalType": "bytes32",
          "name": "realm",
          "type": "bytes32"
        },
        {
          "internalType": "bytes32",
          "name": "context",
          "type": "bytes32"
        }
      ],
      "name": "hasRealmContext",
      "outputs": [
        {
          "internalType": "bool",
          "name": "",
          "type": "bool"
        }
      ],
      "stateMutability": "view",
      "type": "function"
    },
    {
      "inputs": [
        {
          "internalType": "bytes32",
          "name": "role",
          "type": "bytes32"
        },
        {
          "internalType": "address",
          "name": "account",
          "type": "address"
        }
      ],
      "name": "hasRoleAccount",
      "outputs": [
        {
          "internalType": "bool",
          "name": "",
          "type": "bool"
        }
      ],
      "stateMutability": "view",
      "type": "function"
    },
    {
      "inputs": [],
      "name": "initStatus",
      "outputs": [
        {
          "internalType": "bool",
          "name": "",
          "type": "bool"
        }
      ],
      "stateMutability": "view",
      "type": "function"
    },
    {
      "inputs": [],
      "name": "initVersion",
      "outputs": [
        {
          "internalType": "uint16",
          "name": "",
          "type": "uint16"
        }
      ],
      "stateMutability": "view",
      "type": "function"
    },
    {
      "inputs": [
        {
          "internalType": "string",
          "name": "domainName",
          "type": "string"
        },
        {
          "internalType": "string",
          "name": "domainVersion",
          "type": "string"
        },
        {
          "internalType": "string",
          "name": "domainRealm",
          "type": "string"
        },
        {
          "internalType": "address",
          "name": "accessControlManager",
          "type": "address"
        }
      ],
      "name": "initialize",
      "outputs": [],
      "stateMutability": "nonpayable",
      "type": "function"
    },
    {
      "inputs": [
        {
          "internalType": "bytes32",
          "name": "context",
          "type": "bytes32"
        }
      ],
      "name": "isContextEnabled",
      "outputs": [
        {
          "internalType": "bool",
          "name": "",
          "type": "bool"
        }
      ],
      "stateMutability": "view",
      "type": "function"
    },
    {
      "inputs": [
        {
          "internalType": "bytes32",
          "name": "context",
          "type": "bytes32"
        }
      ],
      "name": "isContextExists",
      "outputs": [
        {
          "internalType": "bool",
          "name": "",
          "type": "bool"
        }
      ],
      "stateMutability": "view",
      "type": "function"
    },
    {
      "inputs": [
        {
          "internalType": "bytes32",
          "name": "context",
          "type": "bytes32"
        },
        {
          "internalType": "bytes4",
          "name": "functionSelector",
          "type": "bytes4"
        }
      ],
      "name": "isContextFunctionEnabled",
      "outputs": [
        {
          "internalType": "bool",
          "name": "",
          "type": "bool"
        }
      ],
      "stateMutability": "view",
      "type": "function"
    },
    {
      "inputs": [
        {
          "internalType": "bytes32",
          "name": "context",
          "type": "bytes32"
        },
        {
          "internalType": "bytes4",
          "name": "functionSelector",
          "type": "bytes4"
        }
      ],
      "name": "isContextFunctionExists",
      "outputs": [
        {
          "internalType": "bool",
          "name": "",
          "type": "bool"
        }
      ],
      "stateMutability": "view",
      "type": "function"
    },
    {
      "inputs": [
        {
          "internalType": "bytes32",
          "name": "context",
          "type": "bytes32"
        }
      ],
      "name": "isContextSafeMode",
      "outputs": [
        {
          "internalType": "bool",
          "name": "",
          "type": "bool"
        }
      ],
      "stateMutability": "view",
      "type": "function"
    },
    {
      "inputs": [
        {
          "internalType": "bytes32",
          "name": "context",
          "type": "bytes32"
        }
      ],
      "name": "isContextUpgradable",
      "outputs": [
        {
          "internalType": "bool",
          "name": "",
          "type": "bool"
        }
      ],
      "stateMutability": "view",
      "type": "function"
    },
    {
      "inputs": [
        {
          "internalType": "bytes32",
          "name": "group",
          "type": "bytes32"
        }
      ],
      "name": "isGroupEnabled",
      "outputs": [
        {
          "internalType": "bool",
          "name": "",
          "type": "bool"
        }
      ],
      "stateMutability": "view",
      "type": "function"
    },
    {
      "inputs": [
        {
          "internalType": "bytes32",
          "name": "group",
          "type": "bytes32"
        }
      ],
      "name": "isGroupExists",
      "outputs": [
        {
          "internalType": "bool",
          "name": "",
          "type": "bool"
        }
      ],
      "stateMutability": "view",
      "type": "function"
    },
    {
      "inputs": [
        {
          "internalType": "address",
          "name": "account",
          "type": "address"
        }
      ],
      "name": "isLivelyAdmin",
      "outputs": [
        {
          "internalType": "bool",
          "name": "",
          "type": "bool"
        }
      ],
      "stateMutability": "view",
      "type": "function"
    },
    {
      "inputs": [
        {
          "internalType": "bytes32",
          "name": "role",
          "type": "bytes32"
        }
      ],
      "name": "isLivelyGeneralGroup",
      "outputs": [
        {
          "internalType": "bool",
          "name": "",
          "type": "bool"
        }
      ],
      "stateMutability": "view",
      "type": "function"
    },
    {
      "inputs": [
        {
          "internalType": "bytes32",
          "name": "context",
          "type": "bytes32"
        }
      ],
      "name": "isLivelyGeneralRealm",
      "outputs": [
        {
          "internalType": "bool",
          "name": "",
          "type": "bool"
        }
      ],
      "stateMutability": "view",
      "type": "function"
    },
    {
      "inputs": [
        {
          "internalType": "address",
          "name": "account",
          "type": "address"
        }
      ],
      "name": "isLivelySystemAdmin",
      "outputs": [
        {
          "internalType": "bool",
          "name": "",
          "type": "bool"
        }
      ],
      "stateMutability": "view",
      "type": "function"
    },
    {
      "inputs": [
        {
          "internalType": "bytes32",
          "name": "realm",
          "type": "bytes32"
        }
      ],
      "name": "isRealmEnabled",
      "outputs": [
        {
          "internalType": "bool",
          "name": "",
          "type": "bool"
        }
      ],
      "stateMutability": "view",
      "type": "function"
    },
    {
      "inputs": [
        {
          "internalType": "bytes32",
          "name": "realm",
          "type": "bytes32"
        }
      ],
      "name": "isRealmExists",
      "outputs": [
        {
          "internalType": "bool",
          "name": "",
          "type": "bool"
        }
      ],
      "stateMutability": "view",
      "type": "function"
    },
    {
      "inputs": [
        {
          "internalType": "bytes32",
          "name": "realm",
          "type": "bytes32"
        }
      ],
      "name": "isRealmUpgradable",
      "outputs": [
        {
          "internalType": "bool",
          "name": "",
          "type": "bool"
        }
      ],
      "stateMutability": "view",
      "type": "function"
    },
    {
      "inputs": [
        {
          "internalType": "bytes32",
          "name": "role",
          "type": "bytes32"
        }
      ],
      "name": "isRoleEnabled",
      "outputs": [
        {
          "internalType": "bool",
          "name": "",
          "type": "bool"
        }
      ],
      "stateMutability": "view",
      "type": "function"
    },
    {
      "inputs": [
        {
          "internalType": "bytes32",
          "name": "role",
          "type": "bytes32"
        }
      ],
      "name": "isRoleExists",
      "outputs": [
        {
          "internalType": "bool",
          "name": "",
          "type": "bool"
        }
      ],
      "stateMutability": "view",
      "type": "function"
    },
    {
      "inputs": [],
      "name": "isSafeMode",
      "outputs": [
        {
          "internalType": "bool",
          "name": "",
          "type": "bool"
        }
      ],
      "stateMutability": "view",
      "type": "function"
    },
    {
      "inputs": [],
      "name": "isUpgradable",
      "outputs": [
        {
          "internalType": "bool",
          "name": "",
          "type": "bool"
        }
      ],
      "stateMutability": "view",
      "type": "function"
    },
    {
      "inputs": [],
      "name": "livelyAdminRole",
      "outputs": [
        {
          "internalType": "bytes32",
          "name": "",
          "type": "bytes32"
        }
      ],
      "stateMutability": "pure",
      "type": "function"
    },
    {
      "inputs": [],
      "name": "livelyAnonymousRole",
      "outputs": [
        {
          "internalType": "bytes32",
          "name": "",
          "type": "bytes32"
        }
      ],
      "stateMutability": "pure",
      "type": "function"
    },
    {
      "inputs": [],
      "name": "livelyGeneralGroupRole",
      "outputs": [
        {
          "internalType": "bytes32",
          "name": "",
          "type": "bytes32"
        }
      ],
      "stateMutability": "pure",
      "type": "function"
    },
    {
      "inputs": [],
      "name": "livelyGeneralRealmRole",
      "outputs": [
        {
          "internalType": "bytes32",
          "name": "",
          "type": "bytes32"
        }
      ],
      "stateMutability": "pure",
      "type": "function"
    },
    {
      "inputs": [],
      "name": "livelySystemAdminRole",
      "outputs": [
        {
          "internalType": "bytes32",
          "name": "",
          "type": "bytes32"
        }
      ],
      "stateMutability": "pure",
      "type": "function"
    },
    {
      "inputs": [],
      "name": "localAdmin",
      "outputs": [
        {
          "internalType": "address",
          "name": "",
          "type": "address"
        }
      ],
      "stateMutability": "view",
      "type": "function"
    },
    {
      "inputs": [],
      "name": "proxiableUUID",
      "outputs": [
        {
          "internalType": "bytes32",
          "name": "",
          "type": "bytes32"
        }
      ],
      "stateMutability": "view",
      "type": "function"
    },
    {
      "inputs": [
        {
          "internalType": "bytes",
          "name": "signature",
          "type": "bytes"
        },
        {
          "components": [
            {
              "internalType": "bytes32",
              "name": "name",
              "type": "bytes32"
            },
            {
              "internalType": "bytes32",
              "name": "version",
              "type": "bytes32"
            },
            {
              "internalType": "bytes32",
              "name": "realm",
              "type": "bytes32"
            },
            {
              "internalType": "address",
              "name": "smca",
              "type": "address"
            },
            {
              "internalType": "bool",
              "name": "status",
              "type": "bool"
            }
          ],
          "internalType": "struct IContextManagement.RequestContext",
          "name": "rc",
          "type": "tuple"
        },
        {
          "components": [
            {
              "internalType": "bytes32",
              "name": "role",
              "type": "bytes32"
            },
            {
              "internalType": "bytes4[]",
              "name": "funcSelectors",
              "type": "bytes4[]"
            },
            {
              "internalType": "bool",
              "name": "isEnabled",
              "type": "bool"
            }
          ],
          "internalType": "struct IContextManagement.RequestRegisterContext[]",
          "name": "rcr",
          "type": "tuple[]"
        }
      ],
      "name": "registerContext",
      "outputs": [
        {
          "internalType": "bytes32",
          "name": "",
          "type": "bytes32"
        }
      ],
      "stateMutability": "nonpayable",
      "type": "function"
    },
    {
      "inputs": [
        {
          "internalType": "string",
          "name": "name",
          "type": "string"
        },
        {
          "internalType": "bool",
          "name": "status",
          "type": "bool"
        }
      ],
      "name": "registerGroup",
      "outputs": [
        {
          "internalType": "bytes32",
          "name": "",
          "type": "bytes32"
        }
      ],
      "stateMutability": "nonpayable",
      "type": "function"
    },
    {
      "inputs": [
        {
          "internalType": "string",
          "name": "name",
          "type": "string"
        },
        {
          "internalType": "bool",
          "name": "status",
          "type": "bool"
        },
        {
          "internalType": "bool",
          "name": "isUpgradable",
          "type": "bool"
        }
      ],
      "name": "registerRealm",
      "outputs": [
        {
          "internalType": "bytes32",
          "name": "",
          "type": "bytes32"
        }
      ],
      "stateMutability": "nonpayable",
      "type": "function"
    },
    {
      "inputs": [
        {
          "internalType": "string",
          "name": "name",
          "type": "string"
        },
        {
          "internalType": "bytes32",
          "name": "group",
          "type": "bytes32"
        },
        {
          "internalType": "bool",
          "name": "status",
          "type": "bool"
        }
      ],
      "name": "registerRole",
      "outputs": [
        {
          "internalType": "bytes32",
          "name": "",
          "type": "bytes32"
        }
      ],
      "stateMutability": "nonpayable",
      "type": "function"
    },
    {
      "inputs": [
        {
          "internalType": "bytes32",
          "name": "ctx",
          "type": "bytes32"
        },
        {
          "internalType": "bytes4",
          "name": "functionSelector",
          "type": "bytes4"
        }
      ],
      "name": "removeContextFunc",
      "outputs": [
        {
          "internalType": "bool",
          "name": "",
          "type": "bool"
        }
      ],
      "stateMutability": "nonpayable",
      "type": "function"
    },
    {
      "inputs": [
        {
          "internalType": "bytes32",
          "name": "ctx",
          "type": "bytes32"
        },
        {
          "internalType": "bytes4",
          "name": "functionSelector",
          "type": "bytes4"
        },
        {
          "internalType": "bytes32",
          "name": "role",
          "type": "bytes32"
        }
      ],
      "name": "revokeContextRole",
      "outputs": [
        {
          "internalType": "bool",
          "name": "",
          "type": "bool"
        }
      ],
      "stateMutability": "nonpayable",
      "type": "function"
    },
    {
      "inputs": [
        {
          "internalType": "bytes32",
          "name": "role",
          "type": "bytes32"
        },
        {
          "internalType": "address",
          "name": "account",
          "type": "address"
        }
      ],
      "name": "revokeRoleAccount",
      "outputs": [
        {
          "internalType": "bool",
          "name": "",
          "type": "bool"
        }
      ],
      "stateMutability": "nonpayable",
      "type": "function"
    },
    {
      "inputs": [
        {
          "internalType": "bytes32",
          "name": "ctx",
          "type": "bytes32"
        },
        {
          "internalType": "bytes32",
          "name": "realm",
          "type": "bytes32"
        }
      ],
      "name": "setContextRealm",
      "outputs": [
        {
          "internalType": "bool",
          "name": "",
          "type": "bool"
        }
      ],
      "stateMutability": "nonpayable",
      "type": "function"
    },
    {
      "inputs": [
        {
          "internalType": "bytes32",
          "name": "ctx",
          "type": "bytes32"
        },
        {
          "internalType": "bool",
          "name": "status",
          "type": "bool"
        }
      ],
      "name": "setContextStatus",
      "outputs": [
        {
          "internalType": "bool",
          "name": "",
          "type": "bool"
        }
      ],
      "stateMutability": "nonpayable",
      "type": "function"
    },
    {
      "inputs": [
        {
          "internalType": "bytes32",
          "name": "group",
          "type": "bytes32"
        },
        {
          "internalType": "bool",
          "name": "status",
          "type": "bool"
        }
      ],
      "name": "setGroupStatus",
      "outputs": [
        {
          "internalType": "bool",
          "name": "",
          "type": "bool"
        }
      ],
      "stateMutability": "nonpayable",
      "type": "function"
    },
    {
      "inputs": [
        {
          "internalType": "address",
          "name": "newLocalAdmin",
          "type": "address"
        }
      ],
      "name": "setLocalAdmin",
      "outputs": [
        {
          "internalType": "bool",
          "name": "",
          "type": "bool"
        }
      ],
      "stateMutability": "nonpayable",
      "type": "function"
    },
    {
      "inputs": [
        {
          "internalType": "bytes32",
          "name": "realm",
          "type": "bytes32"
        },
        {
          "internalType": "bool",
          "name": "status",
          "type": "bool"
        }
      ],
      "name": "setRealmStatus",
      "outputs": [
        {
          "internalType": "bool",
          "name": "",
          "type": "bool"
        }
      ],
      "stateMutability": "nonpayable",
      "type": "function"
    },
    {
      "inputs": [
        {
          "internalType": "bytes32",
          "name": "realm",
          "type": "bytes32"
        },
        {
          "internalType": "bool",
          "name": "status",
          "type": "bool"
        }
      ],
      "name": "setRealmUpgradeStatus",
      "outputs": [
        {
          "internalType": "bool",
          "name": "",
          "type": "bool"
        }
      ],
      "stateMutability": "nonpayable",
      "type": "function"
    },
    {
      "inputs": [
        {
          "internalType": "bytes32",
          "name": "role",
          "type": "bytes32"
        },
        {
          "internalType": "bytes32",
          "name": "group",
          "type": "bytes32"
        }
      ],
      "name": "setRoleGroup",
      "outputs": [
        {
          "internalType": "bool",
          "name": "",
          "type": "bool"
        }
      ],
      "stateMutability": "nonpayable",
      "type": "function"
    },
    {
      "inputs": [
        {
          "internalType": "bytes32",
          "name": "role",
          "type": "bytes32"
        },
        {
          "internalType": "bool",
          "name": "status",
          "type": "bool"
        }
      ],
      "name": "setRoleStatus",
      "outputs": [
        {
          "internalType": "bool",
          "name": "",
          "type": "bool"
        }
      ],
      "stateMutability": "nonpayable",
      "type": "function"
    },
    {
      "inputs": [
        {
          "internalType": "bool",
          "name": "status",
          "type": "bool"
        }
      ],
      "name": "setSafeMode",
      "outputs": [
        {
          "internalType": "bool",
          "name": "",
          "type": "bool"
        }
      ],
      "stateMutability": "nonpayable",
      "type": "function"
    },
    {
      "inputs": [
        {
          "internalType": "bool",
          "name": "status",
          "type": "bool"
        }
      ],
      "name": "setUpgradeStatus",
      "outputs": [
        {
          "internalType": "bool",
          "name": "",
          "type": "bool"
        }
      ],
      "stateMutability": "nonpayable",
      "type": "function"
    },
    {
      "inputs": [],
      "name": "subjectAddress",
      "outputs": [
        {
          "internalType": "address",
          "name": "",
          "type": "address"
        }
      ],
      "stateMutability": "view",
      "type": "function"
    },
    {
      "inputs": [
        {
          "internalType": "bytes4",
          "name": "interfaceId",
          "type": "bytes4"
        }
      ],
      "name": "supportsInterface",
      "outputs": [
        {
          "internalType": "bool",
          "name": "",
          "type": "bool"
        }
      ],
      "stateMutability": "view",
      "type": "function"
    },
    {
      "inputs": [
        {
          "internalType": "bytes32",
          "name": "ctx",
          "type": "bytes32"
        },
        {
          "internalType": "bytes",
          "name": "signature",
          "type": "bytes"
        },
        {
          "components": [
            {
              "internalType": "bytes32",
              "name": "name",
              "type": "bytes32"
            },
            {
              "internalType": "bytes32",
              "name": "version",
              "type": "bytes32"
            },
            {
              "internalType": "bytes32",
              "name": "realm",
              "type": "bytes32"
            },
            {
              "internalType": "address",
              "name": "smca",
              "type": "address"
            },
            {
              "internalType": "bool",
              "name": "status",
              "type": "bool"
            }
          ],
          "internalType": "struct IContextManagement.RequestContext",
          "name": "rc",
          "type": "tuple"
        },
        {
          "components": [
            {
              "internalType": "bytes32",
              "name": "role",
              "type": "bytes32"
            },
            {
              "internalType": "bytes4[]",
              "name": "funcSelectors",
              "type": "bytes4[]"
            },
            {
              "internalType": "enum IContextManagement.UpdateContextStatus",
              "name": "updateStatus",
              "type": "uint8"
            }
          ],
          "internalType": "struct IContextManagement.RequestUpdateContext[]",
          "name": "rcr",
          "type": "tuple[]"
        }
      ],
      "name": "updateContext",
      "outputs": [
        {
          "internalType": "address",
          "name": "",
          "type": "address"
        }
      ],
      "stateMutability": "nonpayable",
      "type": "function"
    },
    {
      "inputs": [
        {
          "internalType": "address",
          "name": "newImplementation",
          "type": "address"
        },
        {
          "internalType": "bytes",
          "name": "data",
          "type": "bytes"
        },
        {
          "internalType": "bool",
          "name": "forceCall",
          "type": "bool"
        }
      ],
      "name": "upgradeTo",
      "outputs": [
        {
          "internalType": "bytes",
          "name": "",
          "type": "bytes"
        }
      ],
      "stateMutability": "nonpayable",
      "type": "function"
    },
    {
      "inputs": [
        {
          "internalType": "address",
          "name": "recepient",
          "type": "address"
        }
      ],
      "name": "withdrawBalance",
      "outputs": [],
      "stateMutability": "nonpayable",
      "type": "function"
    },
    {
      "stateMutability": "payable",
      "type": "receive"
    }
  ],
  "bytecode": "0x60a0604052306080523480156200001557600080fd5b506200004360017f360894a13ba1a3210667c828492db98dca3e2076cc3735a920a3ca505d382bbd6200011f565b7f360894a13ba1a3210667c828492db98dca3e2076cc3735a920a3ca505d382bbc1462000074576200007462000145565b620000a160017fb53127684a568b3173ae13b9f8a6016e243e63b6e8ee1178d6a717850b5d61046200011f565b6000805160206200549583398151915214620000c157620000c162000145565b33620000ea6000805160206200549583398151915260001b6200011c60201b620033001760201c565b80546001600160a01b0319166001600160a01b03929092169190911790556004805461ffff191660011790556200015b565b90565b6000828210156200014057634e487b7160e01b600052601160045260246000fd5b500390565b634e487b7160e01b600052600160045260246000fd5b6080516152d8620001bd6000396000818161148f015281816114d80152818161168b015281816116cb015281816119f201528181611a8601528181611ac60152818161208c015281816120cc01528181612ac40152612b0401526152d86000f3fe6080604052600436106103fa5760003560e01c8063771bcf4511610211578063d338640111610122578063e65be468116100b0578063f5122c9211610077578063f5122c9214610cf2578063f698da2514610d12578063f80f010f14610d27578063f8aa7e3f14610d47578063f94a0adb14610d6757005b8063e65be46814610c52578063e71e224e14610c72578063edf1d1cb14610c92578063f1df49da14610cb2578063f2c673bd14610cd257005b8063dbf304b0116100f4578063dbf304b014610ba5578063dc853dd014610bc5578063df01de4514610be5578063e1ed0a8214610c05578063e25d75f014610c3257005b8063d338640114610b30578063d3e024b814610b50578063d9aba36e14610b65578063d9dc1f1914610b8557005b8063b4a0bdf31161019f578063be22465d11610171578063be22465d14610a89578063be409a1114610aa1578063c48e7ae614610ad0578063c7ab39e614610af0578063c7ea945c14610b1057005b8063b4a0bdf314610a0b578063b4c4b58f14610a29578063b58966de14610a49578063b6c03f0314610a6957005b80638f09e0f0116101e35780638f09e0f01461092257806391690955146109425780639ebf624614610962578063a0a8e460146109d6578063b2dc26e5146109eb57005b8063771bcf45146108ad578063870666cb146108cd5780638b7dbd6c146108e25780638e7038261461090257005b806348e6be1c1161030b5780635ec7870a1161029957806370420ee31161026b57806370420ee3146108165780637147855d146108365780637276ce2914610863578063756af45f1461087857806375d0c0dc1461089857005b80635ec7870a1461079557806360fefdec146107aa5780636b2b7dd8146107c85780636b3b0159146107f657005b806351e70bb0116102dd57806351e70bb0146106f657806352d1902d146107165780635479d9401461072b57806358dbc45d146107485780635c6d8da11461077557005b806348e6be1c146106765780634944f532146106965780634bb1be8c146106b65780634dc13c8f146106d657005b806337bfbfe8116103885780633f4c99b81161035a5780633f4c99b8146105e157806340768140146106015780634346a04b1461061657806344b7e5f21461063657806345b5203c1461065657005b806337bfbfe81461054857806338d38c97146105755780633c7d5b251461059d5780633dfe3aa2146105cc57005b806311b529b3116103cc57806311b529b31461049b5780631846d125146104bb5780632e2adf00146104db5780632f032edd146105085780633228144d1461052857005b806301ffc9a714610403578063031c049314610438578063098b01cf14610458578063101df54d1461047b57005b3661040157005b005b34801561040f57600080fd5b5061042361041e366004613ea4565b610d7c565b60405190151581526020015b60405180910390f35b34801561044457600080fd5b50610423610453366004613ec1565b610e13565b34801561046457600080fd5b5061046d610ee9565b60405190815260200161042f565b34801561048757600080fd5b50610423610496366004613ef9565b610f28565b3480156104a757600080fd5b506104236104b6366004613f12565b610fa7565b3480156104c757600080fd5b506104236104d6366004613ef9565b611027565b3480156104e757600080fd5b506104fb6104f6366004613ef9565b611068565b60405161042f9190613f42565b34801561051457600080fd5b50610423610523366004613ef9565b6110ea565b34801561053457600080fd5b50610423610543366004613ef9565b61112c565b34801561055457600080fd5b50610568610563366004613ef9565b61116e565b60405161042f9190613f90565b34801561058157600080fd5b5061058a6111f1565b60405161ffff909116815260200161042f565b3480156105a957600080fd5b506105bd6105b8366004613ef9565b611205565b60405161042f93929190614024565b3480156105d857600080fd5b5061046d611299565b3480156105ed57600080fd5b5061046d6105fc3660046140a4565b6112c4565b34801561060d57600080fd5b5061046d611396565b34801561062257600080fd5b50610423610631366004613ec1565b6113c2565b34801561064257600080fd5b506104236106513660046140fa565b611483565b34801561066257600080fd5b50610423610671366004613ef9565b61163d565b34801561068257600080fd5b506104236106913660046140fa565b61167f565b3480156106a257600080fd5b506104236106b1366004613ef9565b611848565b3480156106c257600080fd5b5061046d6106d1366004614117565b61188a565b3480156106e257600080fd5b506104236106f1366004613ef9565b611961565b34801561070257600080fd5b50610423610711366004613ef9565b6119a3565b34801561072257600080fd5b5061046d6119e5565b34801561073757600080fd5b50600454610100900460ff16610423565b34801561075457600080fd5b5061075d611a72565b6040516001600160a01b03909116815260200161042f565b34801561078157600080fd5b50610401610790366004614193565b611a7c565b3480156107a157600080fd5b5061046d611e3e565b3480156107b657600080fd5b50604a5462010000900460ff16610423565b3480156107d457600080fd5b506107e86107e3366004613ef9565b611e72565b60405161042f929190614240565b34801561080257600080fd5b50610423610811366004614264565b611f00565b34801561082257600080fd5b50610423610831366004614292565b611f9e565b34801561084257600080fd5b506108566108513660046143a2565b612080565b60405161042f91906143fa565b34801561086f57600080fd5b5061046d6121a8565b34801561088457600080fd5b5061040161089336600461440d565b6121d3565b3480156108a457600080fd5b5060015461046d565b3480156108b957600080fd5b506104236108c8366004613ec1565b61228b565b3480156108d957600080fd5b5061046d61234c565b3480156108ee57600080fd5b506104236108fd366004614292565b612357565b34801561090e57600080fd5b5061042361091d366004613ef9565b6123e6565b34801561092e57600080fd5b5061042361093d36600461442a565b612428565b34801561094e57600080fd5b5061042361095d366004613ef9565b6124b0565b34801561096e57600080fd5b5061098261097d366004613ef9565b6124f2565b60405161042f91908151815260208083015190820152604080830151908201526060808301516001600160a01b03169082015260808083015115159082015260a09182015115159181019190915260c00190565b3480156109e257600080fd5b5060025461046d565b3480156109f757600080fd5b5061046d610a0636600461444f565b61259b565b348015610a1757600080fd5b506000546001600160a01b031661075d565b348015610a3557600080fd5b50610423610a44366004613f12565b612687565b348015610a5557600080fd5b50610423610a64366004613f12565b6126c6565b348015610a7557600080fd5b50610423610a84366004614292565b612796565b348015610a9557600080fd5b5060045460ff16610423565b348015610aad57600080fd5b50610ac1610abc366004613ef9565b612825565b60405161042f939291906144a2565b348015610adc57600080fd5b50610423610aeb366004613ef9565b6128ac565b348015610afc57600080fd5b50610423610b0b3660046144cc565b6128ee565b348015610b1c57600080fd5b50610423610b2b36600461442a565b61294f565b348015610b3c57600080fd5b50610423610b4b366004614503565b6129a0565b348015610b5c57600080fd5b5060035461046d565b348015610b7157600080fd5b50610423610b80366004614503565b612a6f565b348015610b9157600080fd5b50610423610ba036600461440d565b612ab8565b348015610bb157600080fd5b50610423610bc0366004614503565b612c32565b348015610bd157600080fd5b50610423610be0366004613ef9565b612d01565b348015610bf157600080fd5b50610423610c0036600461442a565b612d43565b348015610c1157600080fd5b50610c25610c20366004613ef9565b612dcb565b60405161042f9190614525565b348015610c3e57600080fd5b50610423610c4d366004613ef9565b612e4d565b348015610c5e57600080fd5b5061075d610c6d3660046145c2565b612e8f565b348015610c7e57600080fd5b50610423610c8d366004614292565b612f77565b348015610c9e57600080fd5b50610568610cad366004613ef9565b613049565b348015610cbe57600080fd5b5061046d610ccd366004614648565b61308b565b348015610cde57600080fd5b50610423610ced366004614292565b613180565b348015610cfe57600080fd5b50610423610d0d366004614503565b61320f565b348015610d1e57600080fd5b5061046d613258565b348015610d3357600080fd5b50610423610d4236600461440d565b613262565b348015610d5357600080fd5b50610423610d6236600461440d565b6132ac565b348015610d7357600080fd5b5061075d6132f6565b60006001600160e01b03198216631b44bad360e31b1480610dad57506001600160e01b03198216633b661d8360e21b145b80610dc857506001600160e01b0319821663467e3a6160e01b145b80610de357506001600160e01b03198216637d22131d60e11b145b80610dfe57506001600160e01b031982166370319bff60e11b145b80610e0d5750610e0d82613303565b92915050565b60008073__$122c978fc1a65ab69c7a0ac6b07fd0b0cd$__63518bf96060458787876040518563ffffffff1660e01b8152600401610e5494939291906146bf565b602060405180830381865af4158015610e71573d6000803e3d6000fd5b505050506040513d601f19601f82011682018060405250810190610e9591906146e4565b9050336001600160a01b031683867fce5e1f2ba33f195f748a93b00ee62600b55e27cc50531a72e5443713bac23e128785604051610ed49291906146fd565b60405180910390a460019150505b9392505050565b604051704c4956454c595f41444d494e5f524f4c4560781b60208201526000906031015b60405160208183030381529060405280519060200120905090565b604051637cd7c4ed60e01b8152604560048201526024810182905260009073__$c43b1d7058274a71a9734d16e6b6586431$__90637cd7c4ed906044015b602060405180830381865af4158015610f83573d6000803e3d6000fd5b505050506040513d601f19601f82011682018060405250810190610e0d9190614717565b6040516302a0d2e360e61b815260009073__$c43b1d7058274a71a9734d16e6b6586431$__9063a834b8c090610fe69060459087908790600401614734565b602060405180830381865af4158015611003573d6000803e3d6000fd5b505050506040513d601f19601f82011682018060405250810190610ee29190614717565b60405162fd7cb960e41b8152604560048201526024810182905260009073__$c43b1d7058274a71a9734d16e6b6586431$__90630fd7cb9090604401610f66565b60405163ec77eb2160e01b8152604560048201526024810182905260609073__$122c978fc1a65ab69c7a0ac6b07fd0b0cd$__9063ec77eb2190604401600060405180830381865af41580156110c2573d6000803e3d6000fd5b505050506040513d6000823e601f3d908101601f19168201604052610e0d91908101906147e6565b60405163e24b90a960e01b8152604560048201526024810182905260009073__$c43b1d7058274a71a9734d16e6b6586431$__9063e24b90a990604401610f66565b60405163442b0ca160e01b8152604560048201526024810182905260009073__$c43b1d7058274a71a9734d16e6b6586431$__9063442b0ca190604401610f66565b6040516350f0b31d60e11b8152604560048201526024810182905260609073__$bc3cfbaf1827cbc66e3e608da812a405b7$__9063a1e1663a906044015b600060405180830381865af41580156111c9573d6000803e3d6000fd5b505050506040513d6000823e601f3d908101601f19168201604052610e0d919081019061481a565b6000611200604a5461ffff1690565b905090565b60405163108ca8b760e01b81526045600482015260248101829052606090600090819073__$bc3cfbaf1827cbc66e3e608da812a405b7$__9063108ca8b790604401600060405180830381865af4158015611264573d6000803e3d6000fd5b505050506040513d6000823e601f3d908101601f1916820160405261128c91908101906148ef565b9250925092509193909250565b6040517304c4956454c595f47454e4552414c5f47524f55560641b6020820152600090603401610f0d565b60008073__$6309dd7d2656d358c392b35d5c4e4605f9$__63f728a0f560458787876040518563ffffffff1660e01b81526004016113059493929190614971565b602060405180830381865af4158015611322573d6000803e3d6000fd5b505050506040513d601f19601f8201168201806040525081019061134691906146e4565b9050336001600160a01b0316817fde3bd866160a7f983f3c5f990127712936d37378d60b93ba96ab3a66a04feb188787876040516113869392919061499e565b60405180910390a3949350505050565b604051744c4956454c595f414e4f4e594d4f55535f524f4c4560581b6020820152600090603501610f0d565b60008073__$122c978fc1a65ab69c7a0ac6b07fd0b0cd$__635acd816a60458787876040518563ffffffff1660e01b815260040161140394939291906146bf565b602060405180830381865af4158015611420573d6000803e3d6000fd5b505050506040513d601f19601f8201168201806040525081019061144491906146e4565b9050336001600160a01b031683867f888ebbee43b69c568a7ef10a18f4afb4a0452ed2cfec2dde7a3d37b7e5ef87a38785604051610ed49291906146fd565b60006001600160a01b037f00000000000000000000000000000000000000000000000000000000000000001630036114d65760405162461bcd60e51b81526004016114cd906149c4565b60405180910390fd5b7f00000000000000000000000000000000000000000000000000000000000000006001600160a01b0316611508613353565b6001600160a01b03161461152e5760405162461bcd60e51b81526004016114cd906149f3565b600061153d604a5461ffff1690565b61ffff161161158e5760405162461bcd60e51b815260206004820152601860248201527f436f6e7472616374204e6f7420496e697469616c697a6564000000000000000060448201526064016114cd565b61159e63225bf2f960e11b613374565b6115e25760405162461bcd60e51b815260206004820152601560248201527429b2ba29b0b332a6b7b232902337b93134b23232b760591b60448201526064016114cd565b6004805460ff191683151517905560035430336001600160a01b03167fdd452a31d2e164a1ea436c084842c27d24ae2548a575a869f71b05a4ed16243f85604051611631911515815260200190565b60405180910390a45090565b604051630227e50560e31b8152604560048201526024810182905260009073__$c43b1d7058274a71a9734d16e6b6586431$__9063113f282890604401610f66565b60006001600160a01b037f00000000000000000000000000000000000000000000000000000000000000001630036116c95760405162461bcd60e51b81526004016114cd906149c4565b7f00000000000000000000000000000000000000000000000000000000000000006001600160a01b03166116fb613353565b6001600160a01b0316146117215760405162461bcd60e51b81526004016114cd906149f3565b60045460ff16156117445760405162461bcd60e51b81526004016114cd90614a21565b611754631239af8760e21b613374565b6117a05760405162461bcd60e51b815260206004820152601a60248201527f5365745570677261646553746174757320466f7262696464656e00000000000060448201526064016114cd565b6117a86134b7565b6117f45760405162461bcd60e51b815260206004820152601760248201527f5265616c6d205570677261646520466f7262696464656e00000000000000000060448201526064016114cd565b6004805461ff0019166101008415150217905560035430336001600160a01b03167fe9f97ad94c2ba252dcfc525e004f608ac5cb886955d8fc87d9e0ee070a698c5685604051611631911515815260200190565b604051633346dd2d60e01b8152604560048201526024810182905260009073__$c43b1d7058274a71a9734d16e6b6586431$__90633346dd2d90604401610f66565b60008073__$bc3cfbaf1827cbc66e3e608da812a405b7$__6359186f406045888888886040518663ffffffff1660e01b81526004016118cd959493929190614a58565b602060405180830381865af41580156118ea573d6000803e3d6000fd5b505050506040513d601f19601f8201168201806040525081019061190e91906146e4565b9050336001600160a01b0316817f5a8acbe7e0fa397d934e9aafb8fb1a483627af9e9b4690f4488d740b669f8b47888888886040516119509493929190614a8b565b60405180910390a395945050505050565b60405163017d626960e01b8152604560048201526024810182905260009073__$c43b1d7058274a71a9734d16e6b6586431$__9063017d626990604401610f66565b60405163af07cfcd60e01b8152604560048201526024810182905260009073__$c43b1d7058274a71a9734d16e6b6586431$__9063af07cfcd90604401610f66565b6000306001600160a01b037f00000000000000000000000000000000000000000000000000000000000000001614611a5f5760405162461bcd60e51b815260206004820152601d60248201527f496c6c6567616c20436f6e74726163742044656c656761746563616c6c00000060448201526064016114cd565b5060008051602061528383398151915290565b6000611200613353565b6001600160a01b037f0000000000000000000000000000000000000000000000000000000000000000163003611ac45760405162461bcd60e51b81526004016114cd906149c4565b7f00000000000000000000000000000000000000000000000000000000000000006001600160a01b0316611af6613353565b6001600160a01b031614611b1c5760405162461bcd60e51b81526004016114cd906149f3565b33611b256135f3565b6001600160a01b031614611b735760405162461bcd60e51b815260206004820152601560248201527410d85b1b195c88139bdd08105d5d1a1bdc9a5e9959605a1b60448201526064016114cd565b604a5462010000900460ff1615808015611b955750604a54600161ffff909116105b80611bb05750303b158015611bb05750604a5461ffff166001145b611bfc5760405162461bcd60e51b815260206004820152601c60248201527f436f6e747261637420416c726561647920496e697469616c697a65640000000060448201526064016114cd565b604a805461ffff191660011790558015611c2257604a805462ff00001916620100001790555b60008484604051602001611c37929190614ab7565b60408051808303601f190181529082905280516020909101206308bae38360e31b825260456004830152915073__$c43b1d7058274a71a9734d16e6b6586431$__906345d71c189060240160006040518083038186803b158015611c9a57600080fd5b505af4158015611cae573d6000803e3d6000fd5b50505050611cc089898989858861361b565b600073__$c43b1d7058274a71a9734d16e6b6586431$__6362f3c2d46040518163ffffffff1660e01b8152600401600060405180830381865af4158015611d0b573d6000803e3d6000fd5b505050506040513d6000823e601f3d908101601f19168201604052611d339190810190614ac7565b604051631f5dcce360e31b815290915073__$122c978fc1a65ab69c7a0ac6b07fd0b0cd$__9063faee671890611d7490604590309087908790600401614bca565b602060405180830381865af4158015611d91573d6000803e3d6000fd5b505050506040513d601f19601f82011682018060405250810190611db591906146e4565b50611dbe613353565b6001600160a01b031630336001600160a01b03167ff851a1e85477b818fc72ad517ea622cc316f10f67d61c9e740adc151a8b413948d8d8d8d89611e05604a5461ffff1690565b604051611e1796959493929190614ca2565b60405180910390a450508015611e3457604a805462ff0000191690555b5050505050505050565b6040517f4c4956454c595f53595354454d5f41444d494e5f524f4c4500000000000000006020820152600090603801610f0d565b604051630e8a623f60e31b8152604560048201526024810182905260609060009073__$6309dd7d2656d358c392b35d5c4e4605f9$__9063745311f890604401600060405180830381865af4158015611ecf573d6000803e3d6000fd5b505050506040513d6000823e601f3d908101601f19168201604052611ef79190810190614ce7565b91509150915091565b604051637134bb4560e01b81526045600482015260248101849052604481018390526001600160e01b03198216606482015260009073__$122c978fc1a65ab69c7a0ac6b07fd0b0cd$__90637134bb45906084015b602060405180830381865af4158015611f72573d6000803e3d6000fd5b505050506040513d601f19601f82011682018060405250810190611f969190614717565b949350505050565b604051637cc5941d60e01b8152604560048201526024810183905281151560448201526000908190819073__$122c978fc1a65ab69c7a0ac6b07fd0b0cd$__90637cc5941d906064016040805180830381865af4158015612003573d6000803e3d6000fd5b505050506040513d601f19601f820116820180604052508101906120279190614d2d565b91509150806120333390565b6001600160a01b0316867f354501e3216e5f916d4d35ef255a577d106a7eab306488227783a837dc042a4e87604051612070911515815260200190565b60405180910390a4509392505050565b60606001600160a01b037f00000000000000000000000000000000000000000000000000000000000000001630036120ca5760405162461bcd60e51b81526004016114cd906149c4565b7f00000000000000000000000000000000000000000000000000000000000000006001600160a01b03166120fc613353565b6001600160a01b0316146121225760405162461bcd60e51b81526004016114cd906149f3565b60045460ff16156121455760405162461bcd60e51b81526004016114cd90614a21565b600454610100900460ff166121945760405162461bcd60e51b8152602060048201526015602482015274155c19dc9859194810d85b1b0814995a9958dd1959605a1b60448201526064016114cd565b61219d84613631565b611f968484846136f8565b604051734c4956454c595f47454e4552414c5f5245414c4d60601b6020820152600090603401610f0d565b60045460ff16156121f65760405162461bcd60e51b81526004016114cd90614a21565b61220663756af45f60e01b613374565b6122525760405162461bcd60e51b815260206004820152601a60248201527f57697468647261772042616c616e636520466f7262696464656e00000000000060448201526064016114cd565b6040516001600160a01b038216904780156108fc02916000818181858888f19350505050158015612287573d6000803e3d6000fd5b5050565b60008073__$122c978fc1a65ab69c7a0ac6b07fd0b0cd$__63453dd6dc60458787876040518563ffffffff1660e01b81526004016122cc94939291906146bf565b602060405180830381865af41580156122e9573d6000803e3d6000fd5b505050506040513d601f19601f8201168201806040525081019061230d91906146e4565b9050336001600160a01b031683867fea00ff399a342f54b82233841f91faa5677300e901667e010e9f22aea1ae59318785604051610ed49291906146fd565b600061120030613949565b6000336001600160a01b0316837ffe1617b569bd167ab40b31e034f68e32656219dbe4ab9469a00660550fec72c884604051612397911515815260200190565b60405180910390a3604051630549f02d60e01b81526045600482015260248101849052821515604482015273__$bc3cfbaf1827cbc66e3e608da812a405b7$__90630549f02d90606401610fe6565b6040516310f0750160e01b8152604560048201526024810182905260009073__$c43b1d7058274a71a9734d16e6b6586431$__906310f0750190604401610f66565b60405160009033906001600160a01b0384169085907faa9fcab08d536afd9c656fd3199c346689f381e05539dda255166829ef51dbac908590a46040516389d4da6560e01b815260456004820152602481018490526001600160a01b038316604482015273__$340101a45712d3611711048793ce62ace0$__906389d4da6590606401610fe6565b60405163327c496560e11b8152604560048201526024810182905260009073__$c43b1d7058274a71a9734d16e6b6586431$__906364f892ca90604401610f66565b6040805160c081018252600080825260208201819052818301819052606082018190526080820181905260a0820152905163399d749f60e11b8152604560048201526024810183905273__$122c978fc1a65ab69c7a0ac6b07fd0b0cd$__9063733ae93e9060440160c060405180830381865af4158015612577573d6000803e3d6000fd5b505050506040513d601f19601f82011682018060405250810190610e0d9190614d5b565b60008073__$340101a45712d3611711048793ce62ace0$__633859eb7f6045888888886040518663ffffffff1660e01b81526004016125de959493929190614dec565b602060405180830381865af41580156125fb573d6000803e3d6000fd5b505050506040513d601f19601f8201168201806040525081019061261f91906146e4565b9050336001600160a01b0316868660405161263b929190614ab7565b6040805191829003822087835286151560208401529184917fd9ad0e23c83bfa99fde34354c8342d95c76b51674447ec04aad729d5f38b9b8d910160405180910390a495945050505050565b6040516337b3cdd760e21b815260009073__$c43b1d7058274a71a9734d16e6b6586431$__9063decf375c90610fe69060459087908790600401614734565b60008073__$122c978fc1a65ab69c7a0ac6b07fd0b0cd$__63b0c25575604586866040518463ffffffff1660e01b815260040161270593929190614734565b602060405180830381865af4158015612722573d6000803e3d6000fd5b505050506040513d601f19601f8201168201806040525081019061274691906146e4565b9050336001600160a01b0316847fa6234dfea6da9d63d0505ba9b61ac8405dfd897089208859cda18011c4847d6985846040516127849291906146fd565b60405180910390a35060019392505050565b6000336001600160a01b0316837fe595d6b009cbfd06bfdfc4b7c06799f0e0b08fb2c6f5fa6e28a9aac2495440f9846040516127d6911515815260200190565b60405180910390a3604051637c95bcdf60e01b81526045600482015260248101849052821515604482015273__$6309dd7d2656d358c392b35d5c4e4605f9$__90637c95bcdf90606401610fe6565b604051631f9471ef60e01b81526045600482015260248101829052606090600090819073__$340101a45712d3611711048793ce62ace0$__90631f9471ef90604401600060405180830381865af4158015612884573d6000803e3d6000fd5b505050506040513d6000823e601f3d908101601f1916820160405261128c9190810190614e1f565b604051633bcd353d60e11b8152604560048201526024810182905260009073__$c43b1d7058274a71a9734d16e6b6586431$__9063779a6a7a90604401610f66565b604051630243e34b60e51b815260456004820152602481018490526001600160a01b03831660448201526001600160e01b03198216606482015260009073__$c43b1d7058274a71a9734d16e6b6586431$__9063487c696090608401611f55565b604051630938ae7160e01b815260456004820152602481018390526001600160a01b038216604482015260009073__$340101a45712d3611711048793ce62ace0$__90630938ae7190606401610fe6565b604051631f00af7b60e11b81526045600482015260248101839052604481018290526000908190819073__$122c978fc1a65ab69c7a0ac6b07fd0b0cd$__90633e015ef6906064016040805180830381865af4158015612a04573d6000803e3d6000fd5b505050506040513d601f19601f82011682018060405250810190612a289190614d2d565b9150915083612a343390565b6001600160a01b0316867fa0eaa0025d4f12545803a03c369115c59f885df7b5fc07a6393438827dbf51b78460405161207091815260200190565b604051631e7abee360e21b815260456004820152602481018390526044810182905260009073__$bc3cfbaf1827cbc66e3e608da812a405b7$__906379eafb8c90606401610fe6565b60006001600160a01b037f0000000000000000000000000000000000000000000000000000000000000000163003612b025760405162461bcd60e51b81526004016114cd906149c4565b7f00000000000000000000000000000000000000000000000000000000000000006001600160a01b0316612b34613353565b6001600160a01b031614612b5a5760405162461bcd60e51b81526004016114cd906149f3565b60045460ff1615612b7d5760405162461bcd60e51b81526004016114cd90614a21565b612b8d63d9dc1f1960e01b613374565b612bd95760405162461bcd60e51b815260206004820152601760248201527f5365744c6f63616c41646d696e20466f7262696464656e00000000000000000060448201526064016114cd565b6001600160a01b038216612c215760405162461bcd60e51b815260206004820152600f60248201526e1059191c995cdcc8125b9d985b1a59608a1b60448201526064016114cd565b612c2a82613988565b506001919050565b60405163c3203fd160e01b81526045600482015260248101839052604481018290526000908190819073__$340101a45712d3611711048793ce62ace0$__9063c3203fd1906064016040805180830381865af4158015612c96573d6000803e3d6000fd5b505050506040513d601f19601f82011682018060405250810190612cba9190614d2d565b9150915083612cc63390565b6001600160a01b0316867fddcf3b21fa89076821d7d3f19db39ee5e93f479458e803d78b50b7f24488914f8460405161207091815260200190565b60405163d95140eb60e01b8152604560048201526024810182905260009073__$c43b1d7058274a71a9734d16e6b6586431$__9063d95140eb90604401610f66565b60405160009033906001600160a01b0384169085907ff2640085d94bfec49cdcaf11b663e639b0d981dcedeb19377d92e1ad3592ad23908590a4604051633d58057760e01b815260456004820152602481018490526001600160a01b038316604482015273__$340101a45712d3611711048793ce62ace0$__90633d58057790606401610fe6565b604051633e5c6e9760e11b8152604560048201526024810182905260609073__$340101a45712d3611711048793ce62ace0$__90637cb8dd2e90604401600060405180830381865af4158015612e25573d6000803e3d6000fd5b505050506040513d6000823e601f3d908101601f19168201604052610e0d9190810190614e6e565b6040516333064c8960e11b8152604560048201526024810182905260009073__$c43b1d7058274a71a9734d16e6b6586431$__9063660c991290604401610f66565b600080600073__$122c978fc1a65ab69c7a0ac6b07fd0b0cd$__63099a0c2e60458a8a8a8a8a6040518763ffffffff1660e01b8152600401612ed696959493929190614ffc565b6040805180830381865af4158015612ef2573d6000803e3d6000fd5b505050506040513d601f19601f82011682018060405250810190612f1691906150c5565b91509150806001600160a01b0316826001600160a01b0316897f2acec3419c1d10dab06d0715f556e96b344f2092a52a23fb192b4b89f5b7cf428960400135604051612f6491815260200190565b60405180910390a4509695505050505050565b604051633d2003d360e21b8152604560048201526024810183905281151560448201526000908190819073__$340101a45712d3611711048793ce62ace0$__9063f4800f4c906064016040805180830381865af4158015612fdc573d6000803e3d6000fd5b505050506040513d601f19601f820116820180604052508101906130009190614d2d565b915091508061300c3390565b6001600160a01b0316867f10d5d50ae3b7f264859100e29f6facf8a66f27a34a0ea13c7d333d1bb4cab30587604051612070911515815260200190565b6040516309f7398160e11b8152604560048201526024810182905260609073__$6309dd7d2656d358c392b35d5c4e4605f9$__906313ee7302906044016111ac565b600080600073__$122c978fc1a65ab69c7a0ac6b07fd0b0cd$__6315922efe6045898989896040518663ffffffff1660e01b81526004016130d09594939291906150f4565b6040805180830381865af41580156130ec573d6000803e3d6000fd5b505050506040513d601f19601f8201168201806040525081019061311091906151b8565b90925090506001600160a01b03811661312f608088016060890161440d565b6001600160a01b0316837f11cf8f3561fae187c57df59424ecf5d3f444e138924944c77dcb68144c635731896040013560405161316e91815260200190565b60405180910390a45095945050505050565b6000336001600160a01b0316837f552ce1fc1bc82a48cdc0636ff7162480d868c590f2e57c63c30a944f3a82ec36846040516131c0911515815260200190565b60405180910390a36040516315b18c7560e11b81526045600482015260248101849052821515604482015273__$bc3cfbaf1827cbc66e3e608da812a405b7$__90632b6318ea90606401610fe6565b604051634ba8456360e01b815260456004820152602481018390526044810182905260009073__$6309dd7d2656d358c392b35d5c4e4605f9$__90634ba8456390606401610fe6565b60006112006139ff565b60405163470e456560e01b8152604560048201526001600160a01b038216602482015260009073__$c43b1d7058274a71a9734d16e6b6586431$__9063470e456590604401610f66565b60405163fbe97e1960e01b8152604560048201526001600160a01b038216602482015260009073__$c43b1d7058274a71a9734d16e6b6586431$__9063fbe97e1990604401610f66565b60006112006135f3565b90565b60006001600160e01b0319821663748be05360e01b148061333457506001600160e01b031982166352d1902d60e01b145b80610e0d57506301ffc9a760e01b6001600160e01b0319831614610e0d565b60006000805160206152838339815191525b546001600160a01b0316919050565b600080546001600160a01b031630036134605760006363d59cf360e11b61339a30613949565b33856040516024016133ae939291906151dd565b60408051601f198184030181529190526020810180516001600160e01b03166001600160e01b0319909316929092179091529050600061342b6133ef613353565b836040518060400160405280601d81526020017f44656c656761746563616c6c20686173416363657373204661696c6564000000815250613a52565b9050806001825161343c9190615206565b8151811061344c5761344c61522b565b60209101015160f81c600114949350505050565b6000546001600160a01b031663c7ab39e661347a30613949565b33856040518463ffffffff1660e01b815260040161349a939291906151dd565b602060405180830381865afa158015610f83573d6000803e3d6000fd5b600080546001600160a01b0316300361357d57600063e25d75f060e01b6003546040516024016134e991815260200190565b60408051601f198184030181529190526020810180516001600160e01b03166001600160e01b0319909316929092179091529050600061354961352a613353565b8360405180606001604052806025815260200161525e60259139613a52565b9050806001825161355a9190615206565b8151811061356a5761356a61522b565b60209101015160f81c6001149392505050565b600054600354604051630e25d75f60e41b81526001600160a01b039092169163e25d75f0916135b29160040190815260200190565b602060405180830381865afa1580156135cf573d6000803e3d6000fd5b505050506040513d601f19601f820116820180604052508101906112009190614717565b60007fb53127684a568b3173ae13b9f8a6016e243e63b6e8ee1178d6a717850b5d6103613365565b613629868686868686613b1b565b505050505050565b613639613353565b6001600160a01b0316816001600160a01b0316036136995760405162461bcd60e51b815260206004820152601a60248201527f496c6c6567616c204e657720496d706c656d656e746174696f6e00000000000060448201526064016114cd565b6136a9637147855d60e01b613374565b6136f55760405162461bcd60e51b815260206004820152601960248201527f5570677261646520436f6e7465787420466f7262696464656e0000000000000060448201526064016114cd565b50565b60607f4910fdfa16fed3260ed0e7147f7cc6da11a60208b5b9406d12a635614ffd91435460ff16156137425761372d84613d26565b50604080516000815260208101909152610ee2565b836001600160a01b03166352d1902d6040518163ffffffff1660e01b8152600401602060405180830381865afa92505050801561379c575060408051601f3d908101601f19168201909252613799918101906146e4565b60015b6137e05760405162461bcd60e51b8152602060048201526015602482015274125b1b1959d85b0815555414c810dbdb9d1c9858dd605a1b60448201526064016114cd565b60008051602061528383398151915281146138355760405162461bcd60e51b8152602060048201526015602482015274125b9d985b1a590815555414c810dbdb9d1c9858dd605a1b60448201526064016114cd565b506040516301ffc9a760e01b815263748be05360e01b60048201526001600160a01b038516906301ffc9a790602401602060405180830381865afa92505050801561389d575060408051601f3d908101601f1916820190925261389a91810190614717565b60015b6138e95760405162461bcd60e51b815260206004820152601760248201527f496c6c6567616c204950726f787920436f6e747261637400000000000000000060448201526064016114cd565b806139365760405162461bcd60e51b815260206004820152601760248201527f496e76616c6964204950726f787920436f6e747261637400000000000000000060448201526064016114cd565b50613942848484613da7565b9050610ee2565b6040516bffffffffffffffffffffffff19606083901b166020820152600090603401604051602081830303815290604052805190602001209050919050565b7fb53127684a568b3173ae13b9f8a6016e243e63b6e8ee1178d6a717850b5d610380546001600160a01b0383166001600160a01b031990911681179091556040805191825251309133917f54ab0d18de7958786ba1ad85966d59baa2b395455f0530dcdcfd732e6af539e29181900360200190a350565b600154600254604080517f8b73c3c69bb8fe3d512ecc4cf759cc79239f7b179b0ffacaa9a75d522b39400f60208201529081019290925260608201524660808201523060a082015260009060c001610f0d565b60606001600160a01b0384163b613aa65760405162461bcd60e51b8152602060048201526018602482015277496c6c6567616c20436f6e7472616374204164647265737360401b60448201526064016114cd565b600080856001600160a01b031685604051613ac19190615241565b600060405180830381855af49150503d8060008114613afc576040519150601f19603f3d011682016040523d82523d6000602084013e613b01565b606091505b5091509150613b11828286613e11565b9695505050505050565b604a5462010000900460ff16613b735760405162461bcd60e51b815260206004820152601960248201527f436f6e7472616374204e6f7420496e697469616c697a696e670000000000000060448201526064016114cd565b8585604051602001613b86929190614ab7565b60408051601f19818403018152908290528051602091820120600155613bb0918691869101614ab7565b60408051601f19818403018152919052805160209091012060025560038290556001600160a01b038116613bf557600080546001600160a01b03191630179055613d12565b6040516301ffc9a760e01b8152631b44bad360e31b60048201526001600160a01b038216906301ffc9a790602401602060405180830381865afa925050508015613c5c575060408051601f3d908101601f19168201909252613c5991810190614717565b60015b613ca85760405162461bcd60e51b815260206004820152601c60248201527f496c6c6567616c20416363657373436f6e74726f6c4d616e616765720000000060448201526064016114cd565b80613cf55760405162461bcd60e51b815260206004820152601c60248201527f496e76616c696420416363657373436f6e74726f6c4d616e616765720000000060448201526064016114cd565b50600080546001600160a01b0319166001600160a01b0383161790555b6004805461ffff1916905561362933613988565b6001600160a01b0381163b613d785760405162461bcd60e51b8152602060048201526018602482015277496c6c6567616c20436f6e7472616374204164647265737360401b60448201526064016114cd565b60008051602061528383398151915280546001600160a01b0319166001600160a01b0392909216919091179055565b6060613db284613e4a565b600083511180613dbf5750815b15613dfa5761394284846040518060400160405280601381526020017211195b1959d85d1958d85b1b0811985a5b1959606a1b815250613a52565b505060408051600081526020810190915292915050565b60608315613e20575081610ee2565b825115613e305782518084602001fd5b8160405162461bcd60e51b81526004016114cd91906143fa565b613e5381613d26565b6040516001600160a01b03821690309033907f354bd4b6eb65d64e6c79c53fa4f983a5e6bec4824ce4627c71be0b2722f4917e90600090a450565b6001600160e01b0319811681146136f557600080fd5b600060208284031215613eb657600080fd5b8135610ee281613e8e565b600080600060608486031215613ed657600080fd5b833592506020840135613ee881613e8e565b929592945050506040919091013590565b600060208284031215613f0b57600080fd5b5035919050565b60008060408385031215613f2557600080fd5b823591506020830135613f3781613e8e565b809150509250929050565b6020808252825182820181905260009190848201906040850190845b81811015613f845783516001600160e01b03191683529284019291840191600101613f5e565b50909695505050505050565b6020808252825182820181905260009190848201906040850190845b81811015613f8457835183529284019291840191600101613fac565b60005b83811015613fe3578181015183820152602001613fcb565b83811115613ff2576000848401525b50505050565b60008151808452614010816020860160208601613fc8565b601f01601f19169290920160200192915050565b6060815260006140376060830186613ff8565b931515602083015250901515604090910152919050565b60008083601f84011261406057600080fd5b5081356001600160401b0381111561407757600080fd5b60208301915083602082850101111561408f57600080fd5b9250929050565b80151581146136f557600080fd5b6000806000604084860312156140b957600080fd5b83356001600160401b038111156140cf57600080fd5b6140db8682870161404e565b90945092505060208401356140ef81614096565b809150509250925092565b60006020828403121561410c57600080fd5b8135610ee281614096565b6000806000806060858703121561412d57600080fd5b84356001600160401b0381111561414357600080fd5b61414f8782880161404e565b909550935050602085013561416381614096565b9150604085013561417381614096565b939692955090935050565b6001600160a01b03811681146136f557600080fd5b60008060008060008060006080888a0312156141ae57600080fd5b87356001600160401b03808211156141c557600080fd5b6141d18b838c0161404e565b909950975060208a01359150808211156141ea57600080fd5b6141f68b838c0161404e565b909750955060408a013591508082111561420f57600080fd5b5061421c8a828b0161404e565b90945092505060608801356142308161417e565b8091505092959891949750929550565b6040815260006142536040830185613ff8565b905082151560208301529392505050565b60008060006060848603121561427957600080fd5b833592506020840135915060408401356140ef81613e8e565b600080604083850312156142a557600080fd5b823591506020830135613f3781614096565b634e487b7160e01b600052604160045260246000fd5b604051606081016001600160401b03811182821017156142ef576142ef6142b7565b60405290565b604051601f8201601f191681016001600160401b038111828210171561431d5761431d6142b7565b604052919050565b60006001600160401b0382111561433e5761433e6142b7565b50601f01601f191660200190565b600082601f83011261435d57600080fd5b813561437061436b82614325565b6142f5565b81815284602083860101111561438557600080fd5b816020850160208301376000918101602001919091529392505050565b6000806000606084860312156143b757600080fd5b83356143c28161417e565b925060208401356001600160401b038111156143dd57600080fd5b6143e98682870161434c565b92505060408401356140ef81614096565b602081526000610ee26020830184613ff8565b60006020828403121561441f57600080fd5b8135610ee28161417e565b6000806040838503121561443d57600080fd5b823591506020830135613f378161417e565b6000806000806060858703121561446557600080fd5b84356001600160401b0381111561447b57600080fd5b6144878782880161404e565b90955093505060208501359150604085013561417381614096565b6060815260006144b56060830186613ff8565b602083019490945250901515604090910152919050565b6000806000606084860312156144e157600080fd5b8335925060208401356144f38161417e565b915060408401356140ef81613e8e565b6000806040838503121561451657600080fd5b50508035926020909101359150565b6020808252825182820181905260009190848201906040850190845b81811015613f845783516001600160a01b031683529284019291840191600101614541565b600060a0828403121561457857600080fd5b50919050565b60008083601f84011261459057600080fd5b5081356001600160401b038111156145a757600080fd5b6020830191508360208260051b850101111561408f57600080fd5b600080600080600061010086880312156145db57600080fd5b8535945060208601356001600160401b03808211156145f957600080fd5b61460589838a0161434c565b95506146148960408a01614566565b945060e088013591508082111561462a57600080fd5b506146378882890161457e565b969995985093965092949392505050565b60008060008060e0858703121561465e57600080fd5b84356001600160401b038082111561467557600080fd5b6146818883890161434c565b95506146908860208901614566565b945060c08701359150808211156146a657600080fd5b506146b38782880161457e565b95989497509550505050565b93845260208401929092526001600160e01b0319166040830152606082015260800190565b6000602082840312156146f657600080fd5b5051919050565b6001600160e01b0319929092168252602082015260400190565b60006020828403121561472957600080fd5b8151610ee281614096565b92835260208301919091526001600160e01b031916604082015260600190565b60006001600160401b0382111561476d5761476d6142b7565b5060051b60200190565b600082601f83011261478857600080fd5b8151602061479861436b83614754565b82815260059290921b840181019181810190868411156147b757600080fd5b8286015b848110156147db5780516147ce81613e8e565b83529183019183016147bb565b509695505050505050565b6000602082840312156147f857600080fd5b81516001600160401b0381111561480e57600080fd5b611f9684828501614777565b6000602080838503121561482d57600080fd5b82516001600160401b0381111561484357600080fd5b8301601f8101851361485457600080fd5b805161486261436b82614754565b81815260059190911b8201830190838101908783111561488157600080fd5b928401925b8284101561489f57835182529284019290840190614886565b979650505050505050565b600082601f8301126148bb57600080fd5b81516148c961436b82614325565b8181528460208386010111156148de57600080fd5b611f96826020830160208701613fc8565b60008060006060848603121561490457600080fd5b83516001600160401b0381111561491a57600080fd5b614926868287016148aa565b935050602084015161493781614096565b60408501519092506140ef81614096565b81835281816020850137506000828201602090810191909152601f909101601f19169091010190565b84815260606020820152600061498b606083018587614948565b9050821515604083015295945050505050565b6040815260006149b2604083018587614948565b90508215156020830152949350505050565b602080825260159082015274125b1b1959d85b0810dbdb9d1c9858dd0810d85b1b605a1b604082015260600190565b602080825260149082015273141c9bde1e4810d85b1b195908125b9d985b1a5960621b604082015260600190565b60208082526017908201527f536166654d6f64653a2043616c6c2052656a6563746564000000000000000000604082015260600190565b858152608060208201526000614a72608083018688614948565b9315156040830152509015156060909101529392505050565b606081526000614a9f606083018688614948565b93151560208301525090151560409091015292915050565b8183823760009101908152919050565b60006020808385031215614ada57600080fd5b82516001600160401b0380821115614af157600080fd5b818501915085601f830112614b0557600080fd5b8151614b1361436b82614754565b81815260059190911b83018401908481019088831115614b3257600080fd5b8585015b83811015614bbd57805185811115614b4e5760008081fd5b86016060818c03601f1901811315614b665760008081fd5b614b6e6142cd565b89830151815260408084015189811115614b885760008081fd5b614b968f8d83880101614777565b838d0152509282015192614ba984614096565b810192909252508352918601918601614b36565b5098975050505050505050565b60006080808301878452602060018060a01b03881681860152604087818701526060848188015283885180865260a08901915060a08160051b8a01019550848a016000805b83811015614c8e578b8903609f19018552825180518a5288810151898b018890528051888c01819052908a019084908d8d01905b80831015614c6d5783516001600160e01b0319168252928c019260019290920191908c0190614c43565b50928a015115159b8a019b909b525098509387019391870191600101614c0f565b50969e9d5050505050505050505050505050565b608081526000614cb660808301888a614948565b8281036020840152614cc9818789614948565b91505083604083015261ffff83166060830152979650505050505050565b60008060408385031215614cfa57600080fd5b82516001600160401b03811115614d1057600080fd5b614d1c858286016148aa565b9250506020830151613f3781614096565b60008060408385031215614d4057600080fd5b8251614d4b81614096565b6020939093015192949293505050565b600060c08284031215614d6d57600080fd5b60405160c081018181106001600160401b0382111715614d8f57614d8f6142b7565b80604052508251815260208301516020820152604083015160408201526060830151614dba8161417e565b60608201526080830151614dcd81614096565b608082015260a0830151614de081614096565b60a08201529392505050565b858152608060208201526000614e06608083018688614948565b6040830194909452509015156060909101529392505050565b600080600060608486031215614e3457600080fd5b83516001600160401b03811115614e4a57600080fd5b614e56868287016148aa565b9350506020840151915060408401516140ef81614096565b60006020808385031215614e8157600080fd5b82516001600160401b03811115614e9757600080fd5b8301601f81018513614ea857600080fd5b8051614eb661436b82614754565b81815260059190911b82018301908381019087831115614ed557600080fd5b928401925b8284101561489f578351614eed8161417e565b82529284019290840190614eda565b8035825260208101356020830152604081013560408301526060810135614f228161417e565b6001600160a01b031660608301526080810135614f3e81614096565b8015156080840152505050565b6000808335601e19843603018112614f6257600080fd5b83016020810192503590506001600160401b03811115614f8157600080fd5b8060051b360382131561408f57600080fd5b8183526000602080850194508260005b85811015614fd2578135614fb681613e8e565b6001600160e01b03191687529582019590820190600101614fa3565b509495945050505050565b60008235605e19833603018112614ff357600080fd5b90910192915050565b6000610120888352602088818501526040828186015261501e8386018a613ff8565b9250606061502e8187018a614efc565b858403610100870152868452828401600588901b85018401896000805b8b8110156150b057888403601f19018552615066838e614fdd565b8035855261507689820182614f4b565b888b8801526150888988018284614f93565b928a0135929150506003821061509c578384fd5b94880152938701939187019160010161504b565b50919f9e505050505050505050505050505050565b600080604083850312156150d857600080fd5b82516150e38161417e565b6020840151909250613f378161417e565b60006101008783526020818185015261510f82850189613ff8565b9150604061511f81860189614efc565b84830360e0860152858352818301600587901b840183018860005b898110156151a657868303601f19018452615155828c614fdd565b60608135855261516788830183614f4b565b828a8801526151798388018284614f93565b9250505086820135915061518c82614096565b90151593860193909352928501929085019060010161513a565b50909c9b505050505050505050505050565b600080604083850312156151cb57600080fd5b825191506020830151613f378161417e565b9283526001600160a01b039190911660208301526001600160e01b031916604082015260600190565b60008282101561522657634e487b7160e01b600052601160045260246000fd5b500390565b634e487b7160e01b600052603260045260246000fd5b60008251615253818460208701613fc8565b919091019291505056fe44656c656761746563616c6c2069735265616c6d55706772616461626c65204661696c6564360894a13ba1a3210667c828492db98dca3e2076cc3735a920a3ca505d382bbca26469706673582212202856ed634040264032119e238c4c351bb36a6106c1811a902968cd0452ef8ecf64736f6c634300080f0033b53127684a568b3173ae13b9f8a6016e243e63b6e8ee1178d6a717850b5d6103",
  "linkReferences": {
    "src/contracts/lib/acl/LAccessControl.sol": {
      "LAccessControl": [
        {
          "length": 20,
          "start": 4357
        },
        {
          "length": 20,
          "start": 4470
        },
        {
          "length": 20,
          "start": 4611
        },
        {
          "length": 20,
          "start": 4807
        },
        {
          "length": 20,
          "start": 4873
        },
        {
          "length": 20,
          "start": 6170
        },
        {
          "length": 20,
          "start": 6693
        },
        {
          "length": 20,
          "start": 6974
        },
        {
          "length": 20,
          "start": 7040
        },
        {
          "length": 20,
          "start": 7714
        },
        {
          "length": 20,
          "start": 7809
        },
        {
          "length": 20,
          "start": 9667
        },
        {
          "length": 20,
          "start": 9869
        },
        {
          "length": 20,
          "start": 10326
        },
        {
          "length": 20,
          "start": 10889
        },
        {
          "length": 20,
          "start": 10986
        },
        {
          "length": 20,
          "start": 11998
        },
        {
          "length": 20,
          "start": 12330
        },
        {
          "length": 20,
          "start": 13383
        },
        {
          "length": 20,
          "start": 13457
        }
      ]
    },
    "src/contracts/lib/acl/LContextManagement.sol": {
      "LContextManagement": [
        {
          "length": 20,
          "start": 4053
        },
        {
          "length": 20,
          "start": 4677
        },
        {
          "length": 20,
          "start": 5508
        },
        {
          "length": 20,
          "start": 7938
        },
        {
          "length": 20,
          "start": 8436
        },
        {
          "length": 20,
          "start": 8583
        },
        {
          "length": 20,
          "start": 9293
        },
        {
          "length": 20,
          "start": 9978
        },
        {
          "length": 20,
          "start": 10376
        },
        {
          "length": 20,
          "start": 11144
        },
        {
          "length": 20,
          "start": 12371
        },
        {
          "length": 20,
          "start": 12879
        }
      ]
    },
    "src/contracts/lib/acl/LGroupManagement.sol": {
      "LGroupManagement": [
        {
          "length": 20,
          "start": 5254
        },
        {
          "length": 20,
          "start": 8274
        },
        {
          "length": 20,
          "start": 10688
        },
        {
          "length": 20,
          "start": 12838
        },
        {
          "length": 20,
          "start": 13299
        }
      ]
    },
    "src/contracts/lib/acl/LRealmManagement.sol": {
      "LRealmManagement": [
        {
          "length": 20,
          "start": 4939
        },
        {
          "length": 20,
          "start": 5095
        },
        {
          "length": 20,
          "start": 6732
        },
        {
          "length": 20,
          "start": 9601
        },
        {
          "length": 20,
          "start": 11347
        },
        {
          "length": 20,
          "start": 13226
        }
      ]
    },
    "src/contracts/lib/acl/LRoleManagement.sol": {
      "LRoleManagement": [
        {
          "length": 20,
          "start": 9803
        },
        {
          "length": 20,
          "start": 10077
        },
        {
          "length": 20,
          "start": 10759
        },
        {
          "length": 20,
          "start": 11067
        },
        {
          "length": 20,
          "start": 11802
        },
        {
          "length": 20,
          "start": 12134
        },
        {
          "length": 20,
          "start": 12200
        },
        {
          "length": 20,
          "start": 12640
        }
      ]
    }
  },
  "deployedLinkReferences": {
    "src/contracts/lib/acl/LAccessControl.sol": {
      "LAccessControl": [
        {
          "length": 20,
          "start": 3912
        },
        {
          "length": 20,
          "start": 4025
        },
        {
          "length": 20,
          "start": 4166
        },
        {
          "length": 20,
          "start": 4362
        },
        {
          "length": 20,
          "start": 4428
        },
        {
          "length": 20,
          "start": 5725
        },
        {
          "length": 20,
          "start": 6248
        },
        {
          "length": 20,
          "start": 6529
        },
        {
          "length": 20,
          "start": 6595
        },
        {
          "length": 20,
          "start": 7269
        },
        {
          "length": 20,
          "start": 7364
        },
        {
          "length": 20,
          "start": 9222
        },
        {
          "length": 20,
          "start": 9424
        },
        {
          "length": 20,
          "start": 9881
        },
        {
          "length": 20,
          "start": 10444
        },
        {
          "length": 20,
          "start": 10541
        },
        {
          "length": 20,
          "start": 11553
        },
        {
          "length": 20,
          "start": 11885
        },
        {
          "length": 20,
          "start": 12938
        },
        {
          "length": 20,
          "start": 13012
        }
      ]
    },
    "src/contracts/lib/acl/LContextManagement.sol": {
      "LContextManagement": [
        {
          "length": 20,
          "start": 3608
        },
        {
          "length": 20,
          "start": 4232
        },
        {
          "length": 20,
          "start": 5063
        },
        {
          "length": 20,
          "start": 7493
        },
        {
          "length": 20,
          "start": 7991
        },
        {
          "length": 20,
          "start": 8138
        },
        {
          "length": 20,
          "start": 8848
        },
        {
          "length": 20,
          "start": 9533
        },
        {
          "length": 20,
          "start": 9931
        },
        {
          "length": 20,
          "start": 10699
        },
        {
          "length": 20,
          "start": 11926
        },
        {
          "length": 20,
          "start": 12434
        }
      ]
    },
    "src/contracts/lib/acl/LGroupManagement.sol": {
      "LGroupManagement": [
        {
          "length": 20,
          "start": 4809
        },
        {
          "length": 20,
          "start": 7829
        },
        {
          "length": 20,
          "start": 10243
        },
        {
          "length": 20,
          "start": 12393
        },
        {
          "length": 20,
          "start": 12854
        }
      ]
    },
    "src/contracts/lib/acl/LRealmManagement.sol": {
      "LRealmManagement": [
        {
          "length": 20,
          "start": 4494
        },
        {
          "length": 20,
          "start": 4650
        },
        {
          "length": 20,
          "start": 6287
        },
        {
          "length": 20,
          "start": 9156
        },
        {
          "length": 20,
          "start": 10902
        },
        {
          "length": 20,
          "start": 12781
        }
      ]
    },
    "src/contracts/lib/acl/LRoleManagement.sol": {
      "LRoleManagement": [
        {
          "length": 20,
          "start": 9358
        },
        {
          "length": 20,
          "start": 9632
        },
        {
          "length": 20,
          "start": 10314
        },
        {
          "length": 20,
          "start": 10622
        },
        {
          "length": 20,
          "start": 11357
        },
        {
          "length": 20,
          "start": 11689
        },
        {
          "length": 20,
          "start": 11755
        },
        {
          "length": 20,
          "start": 12195
        }
      ]
    }
  },
  "devdoc": {
    "kind": "dev",
    "methods": {
      "hasAccess(bytes32,address,bytes4)": {
        "details": "Function called by apps to check ACL",
        "returns": {
          "_0": "boolean indicating whether the ACL allows"
        }
      },
      "proxiableUUID()": {
        "details": "Implementation of the ERC1822 {proxiableUUID} function. This returns the storage slot used by the implementation. It is used to validate that the this implementation remains valid after an upgrade. IMPORTANT: A proxy pointing at a proxiable contract should not be considered proxiable itself, because this risks bricking a proxy that upgrades to it, by delegating to itself until out of gas. Thus it is critical that this function revert if invoked through a proxy. This is guaranteed by the `notDelegated` modifier."
      },
      "supportsInterface(bytes4)": {
        "details": "See {IERC165-supportsInterface}."
      }
    },
    "version": 1
  },
  "evm": {
    "bytecode": {
      "linkReferences": {
        "src/contracts/lib/acl/LAccessControl.sol": {
          "LAccessControl": [
            {
              "length": 20,
              "start": 4357
            },
            {
              "length": 20,
              "start": 4470
            },
            {
              "length": 20,
              "start": 4611
            },
            {
              "length": 20,
              "start": 4807
            },
            {
              "length": 20,
              "start": 4873
            },
            {
              "length": 20,
              "start": 6170
            },
            {
              "length": 20,
              "start": 6693
            },
            {
              "length": 20,
              "start": 6974
            },
            {
              "length": 20,
              "start": 7040
            },
            {
              "length": 20,
              "start": 7714
            },
            {
              "length": 20,
              "start": 7809
            },
            {
              "length": 20,
              "start": 9667
            },
            {
              "length": 20,
              "start": 9869
            },
            {
              "length": 20,
              "start": 10326
            },
            {
              "length": 20,
              "start": 10889
            },
            {
              "length": 20,
              "start": 10986
            },
            {
              "length": 20,
              "start": 11998
            },
            {
              "length": 20,
              "start": 12330
            },
            {
              "length": 20,
              "start": 13383
            },
            {
              "length": 20,
              "start": 13457
            }
          ]
        },
        "src/contracts/lib/acl/LContextManagement.sol": {
          "LContextManagement": [
            {
              "length": 20,
              "start": 4053
            },
            {
              "length": 20,
              "start": 4677
            },
            {
              "length": 20,
              "start": 5508
            },
            {
              "length": 20,
              "start": 7938
            },
            {
              "length": 20,
              "start": 8436
            },
            {
              "length": 20,
              "start": 8583
            },
            {
              "length": 20,
              "start": 9293
            },
            {
              "length": 20,
              "start": 9978
            },
            {
              "length": 20,
              "start": 10376
            },
            {
              "length": 20,
              "start": 11144
            },
            {
              "length": 20,
              "start": 12371
            },
            {
              "length": 20,
              "start": 12879
            }
          ]
        },
        "src/contracts/lib/acl/LGroupManagement.sol": {
          "LGroupManagement": [
            {
              "length": 20,
              "start": 5254
            },
            {
              "length": 20,
              "start": 8274
            },
            {
              "length": 20,
              "start": 10688
            },
            {
              "length": 20,
              "start": 12838
            },
            {
              "length": 20,
              "start": 13299
            }
          ]
        },
        "src/contracts/lib/acl/LRealmManagement.sol": {
          "LRealmManagement": [
            {
              "length": 20,
              "start": 4939
            },
            {
              "length": 20,
              "start": 5095
            },
            {
              "length": 20,
              "start": 6732
            },
            {
              "length": 20,
              "start": 9601
            },
            {
              "length": 20,
              "start": 11347
            },
            {
              "length": 20,
              "start": 13226
            }
          ]
        },
        "src/contracts/lib/acl/LRoleManagement.sol": {
          "LRoleManagement": [
            {
              "length": 20,
              "start": 9803
            },
            {
              "length": 20,
              "start": 10077
            },
            {
              "length": 20,
              "start": 10759
            },
            {
              "length": 20,
              "start": 11067
            },
            {
              "length": 20,
              "start": 11802
            },
            {
              "length": 20,
              "start": 12134
            },
            {
              "length": 20,
              "start": 12200
            },
            {
              "length": 20,
              "start": 12640
            }
          ]
        }
      },
      "opcodes": "PUSH1 0xA0 PUSH1 0x40 MSTORE ADDRESS PUSH1 0x80 MSTORE CALLVALUE DUP1 ISZERO PUSH3 0x15 JUMPI PUSH1 0x0 DUP1 REVERT JUMPDEST POP PUSH3 0x43 PUSH1 0x1 PUSH32 0x360894A13BA1A3210667C828492DB98DCA3E2076CC3735A920A3CA505D382BBD PUSH3 0x11F JUMP JUMPDEST PUSH32 0x360894A13BA1A3210667C828492DB98DCA3E2076CC3735A920A3CA505D382BBC EQ PUSH3 0x74 JUMPI PUSH3 0x74 PUSH3 0x145 JUMP JUMPDEST PUSH3 0xA1 PUSH1 0x1 PUSH32 0xB53127684A568B3173AE13B9F8A6016E243E63B6E8EE1178D6A717850B5D6104 PUSH3 0x11F JUMP JUMPDEST PUSH1 0x0 DUP1 MLOAD PUSH1 0x20 PUSH3 0x5495 DUP4 CODECOPY DUP2 MLOAD SWAP2 MSTORE EQ PUSH3 0xC1 JUMPI PUSH3 0xC1 PUSH3 0x145 JUMP JUMPDEST CALLER PUSH3 0xEA PUSH1 0x0 DUP1 MLOAD PUSH1 0x20 PUSH3 0x5495 DUP4 CODECOPY DUP2 MLOAD SWAP2 MSTORE PUSH1 0x0 SHL PUSH3 0x11C PUSH1 0x20 SHL PUSH3 0x3300 OR PUSH1 0x20 SHR JUMP JUMPDEST DUP1 SLOAD PUSH1 0x1 PUSH1 0x1 PUSH1 0xA0 SHL SUB NOT AND PUSH1 0x1 PUSH1 0x1 PUSH1 0xA0 SHL SUB SWAP3 SWAP1 SWAP3 AND SWAP2 SWAP1 SWAP2 OR SWAP1 SSTORE PUSH1 0x4 DUP1 SLOAD PUSH2 0xFFFF NOT AND PUSH1 0x1 OR SWAP1 SSTORE PUSH3 0x15B JUMP JUMPDEST SWAP1 JUMP JUMPDEST PUSH1 0x0 DUP3 DUP3 LT ISZERO PUSH3 0x140 JUMPI PUSH4 0x4E487B71 PUSH1 0xE0 SHL PUSH1 0x0 MSTORE PUSH1 0x11 PUSH1 0x4 MSTORE PUSH1 0x24 PUSH1 0x0 REVERT JUMPDEST POP SUB SWAP1 JUMP JUMPDEST PUSH4 0x4E487B71 PUSH1 0xE0 SHL PUSH1 0x0 MSTORE PUSH1 0x1 PUSH1 0x4 MSTORE PUSH1 0x24 PUSH1 0x0 REVERT JUMPDEST PUSH1 0x80 MLOAD PUSH2 0x52D8 PUSH3 0x1BD PUSH1 0x0 CODECOPY PUSH1 0x0 DUP2 DUP2 PUSH2 0x148F ADD MSTORE DUP2 DUP2 PUSH2 0x14D8 ADD MSTORE DUP2 DUP2 PUSH2 0x168B ADD MSTORE DUP2 DUP2 PUSH2 0x16CB ADD MSTORE DUP2 DUP2 PUSH2 0x19F2 ADD MSTORE DUP2 DUP2 PUSH2 0x1A86 ADD MSTORE DUP2 DUP2 PUSH2 0x1AC6 ADD MSTORE DUP2 DUP2 PUSH2 0x208C ADD MSTORE DUP2 DUP2 PUSH2 0x20CC ADD MSTORE DUP2 DUP2 PUSH2 0x2AC4 ADD MSTORE PUSH2 0x2B04 ADD MSTORE PUSH2 0x52D8 PUSH1 0x0 RETURN INVALID PUSH1 0x80 PUSH1 0x40 MSTORE PUSH1 0x4 CALLDATASIZE LT PUSH2 0x3FA JUMPI PUSH1 0x0 CALLDATALOAD PUSH1 0xE0 SHR DUP1 PUSH4 0x771BCF45 GT PUSH2 0x211 JUMPI DUP1 PUSH4 0xD3386401 GT PUSH2 0x122 JUMPI DUP1 PUSH4 0xE65BE468 GT PUSH2 0xB0 JUMPI DUP1 PUSH4 0xF5122C92 GT PUSH2 0x77 JUMPI DUP1 PUSH4 0xF5122C92 EQ PUSH2 0xCF2 JUMPI DUP1 PUSH4 0xF698DA25 EQ PUSH2 0xD12 JUMPI DUP1 PUSH4 0xF80F010F EQ PUSH2 0xD27 JUMPI DUP1 PUSH4 0xF8AA7E3F EQ PUSH2 0xD47 JUMPI DUP1 PUSH4 0xF94A0ADB EQ PUSH2 0xD67 JUMPI STOP JUMPDEST DUP1 PUSH4 0xE65BE468 EQ PUSH2 0xC52 JUMPI DUP1 PUSH4 0xE71E224E EQ PUSH2 0xC72 JUMPI DUP1 PUSH4 0xEDF1D1CB EQ PUSH2 0xC92 JUMPI DUP1 PUSH4 0xF1DF49DA EQ PUSH2 0xCB2 JUMPI DUP1 PUSH4 0xF2C673BD EQ PUSH2 0xCD2 JUMPI STOP JUMPDEST DUP1 PUSH4 0xDBF304B0 GT PUSH2 0xF4 JUMPI DUP1 PUSH4 0xDBF304B0 EQ PUSH2 0xBA5 JUMPI DUP1 PUSH4 0xDC853DD0 EQ PUSH2 0xBC5 JUMPI DUP1 PUSH4 0xDF01DE45 EQ PUSH2 0xBE5 JUMPI DUP1 PUSH4 0xE1ED0A82 EQ PUSH2 0xC05 JUMPI DUP1 PUSH4 0xE25D75F0 EQ PUSH2 0xC32 JUMPI STOP JUMPDEST DUP1 PUSH4 0xD3386401 EQ PUSH2 0xB30 JUMPI DUP1 PUSH4 0xD3E024B8 EQ PUSH2 0xB50 JUMPI DUP1 PUSH4 0xD9ABA36E EQ PUSH2 0xB65 JUMPI DUP1 PUSH4 0xD9DC1F19 EQ PUSH2 0xB85 JUMPI STOP JUMPDEST DUP1 PUSH4 0xB4A0BDF3 GT PUSH2 0x19F JUMPI DUP1 PUSH4 0xBE22465D GT PUSH2 0x171 JUMPI DUP1 PUSH4 0xBE22465D EQ PUSH2 0xA89 JUMPI DUP1 PUSH4 0xBE409A11 EQ PUSH2 0xAA1 JUMPI DUP1 PUSH4 0xC48E7AE6 EQ PUSH2 0xAD0 JUMPI DUP1 PUSH4 0xC7AB39E6 EQ PUSH2 0xAF0 JUMPI DUP1 PUSH4 0xC7EA945C EQ PUSH2 0xB10 JUMPI STOP JUMPDEST DUP1 PUSH4 0xB4A0BDF3 EQ PUSH2 0xA0B JUMPI DUP1 PUSH4 0xB4C4B58F EQ PUSH2 0xA29 JUMPI DUP1 PUSH4 0xB58966DE EQ PUSH2 0xA49 JUMPI DUP1 PUSH4 0xB6C03F03 EQ PUSH2 0xA69 JUMPI STOP JUMPDEST DUP1 PUSH4 0x8F09E0F0 GT PUSH2 0x1E3 JUMPI DUP1 PUSH4 0x8F09E0F0 EQ PUSH2 0x922 JUMPI DUP1 PUSH4 0x91690955 EQ PUSH2 0x942 JUMPI DUP1 PUSH4 0x9EBF6246 EQ PUSH2 0x962 JUMPI DUP1 PUSH4 0xA0A8E460 EQ PUSH2 0x9D6 JUMPI DUP1 PUSH4 0xB2DC26E5 EQ PUSH2 0x9EB JUMPI STOP JUMPDEST DUP1 PUSH4 0x771BCF45 EQ PUSH2 0x8AD JUMPI DUP1 PUSH4 0x870666CB EQ PUSH2 0x8CD JUMPI DUP1 PUSH4 0x8B7DBD6C EQ PUSH2 0x8E2 JUMPI DUP1 PUSH4 0x8E703826 EQ PUSH2 0x902 JUMPI STOP JUMPDEST DUP1 PUSH4 0x48E6BE1C GT PUSH2 0x30B JUMPI DUP1 PUSH4 0x5EC7870A GT PUSH2 0x299 JUMPI DUP1 PUSH4 0x70420EE3 GT PUSH2 0x26B JUMPI DUP1 PUSH4 0x70420EE3 EQ PUSH2 0x816 JUMPI DUP1 PUSH4 0x7147855D EQ PUSH2 0x836 JUMPI DUP1 PUSH4 0x7276CE29 EQ PUSH2 0x863 JUMPI DUP1 PUSH4 0x756AF45F EQ PUSH2 0x878 JUMPI DUP1 PUSH4 0x75D0C0DC EQ PUSH2 0x898 JUMPI STOP JUMPDEST DUP1 PUSH4 0x5EC7870A EQ PUSH2 0x795 JUMPI DUP1 PUSH4 0x60FEFDEC EQ PUSH2 0x7AA JUMPI DUP1 PUSH4 0x6B2B7DD8 EQ PUSH2 0x7C8 JUMPI DUP1 PUSH4 0x6B3B0159 EQ PUSH2 0x7F6 JUMPI STOP JUMPDEST DUP1 PUSH4 0x51E70BB0 GT PUSH2 0x2DD JUMPI DUP1 PUSH4 0x51E70BB0 EQ PUSH2 0x6F6 JUMPI DUP1 PUSH4 0x52D1902D EQ PUSH2 0x716 JUMPI DUP1 PUSH4 0x5479D940 EQ PUSH2 0x72B JUMPI DUP1 PUSH4 0x58DBC45D EQ PUSH2 0x748 JUMPI DUP1 PUSH4 0x5C6D8DA1 EQ PUSH2 0x775 JUMPI STOP JUMPDEST DUP1 PUSH4 0x48E6BE1C EQ PUSH2 0x676 JUMPI DUP1 PUSH4 0x4944F532 EQ PUSH2 0x696 JUMPI DUP1 PUSH4 0x4BB1BE8C EQ PUSH2 0x6B6 JUMPI DUP1 PUSH4 0x4DC13C8F EQ PUSH2 0x6D6 JUMPI STOP JUMPDEST DUP1 PUSH4 0x37BFBFE8 GT PUSH2 0x388 JUMPI DUP1 PUSH4 0x3F4C99B8 GT PUSH2 0x35A JUMPI DUP1 PUSH4 0x3F4C99B8 EQ PUSH2 0x5E1 JUMPI DUP1 PUSH4 0x40768140 EQ PUSH2 0x601 JUMPI DUP1 PUSH4 0x4346A04B EQ PUSH2 0x616 JUMPI DUP1 PUSH4 0x44B7E5F2 EQ PUSH2 0x636 JUMPI DUP1 PUSH4 0x45B5203C EQ PUSH2 0x656 JUMPI STOP JUMPDEST DUP1 PUSH4 0x37BFBFE8 EQ PUSH2 0x548 JUMPI DUP1 PUSH4 0x38D38C97 EQ PUSH2 0x575 JUMPI DUP1 PUSH4 0x3C7D5B25 EQ PUSH2 0x59D JUMPI DUP1 PUSH4 0x3DFE3AA2 EQ PUSH2 0x5CC JUMPI STOP JUMPDEST DUP1 PUSH4 0x11B529B3 GT PUSH2 0x3CC JUMPI DUP1 PUSH4 0x11B529B3 EQ PUSH2 0x49B JUMPI DUP1 PUSH4 0x1846D125 EQ PUSH2 0x4BB JUMPI DUP1 PUSH4 0x2E2ADF00 EQ PUSH2 0x4DB JUMPI DUP1 PUSH4 0x2F032EDD EQ PUSH2 0x508 JUMPI DUP1 PUSH4 0x3228144D EQ PUSH2 0x528 JUMPI STOP JUMPDEST DUP1 PUSH4 0x1FFC9A7 EQ PUSH2 0x403 JUMPI DUP1 PUSH4 0x31C0493 EQ PUSH2 0x438 JUMPI DUP1 PUSH4 0x98B01CF EQ PUSH2 0x458 JUMPI DUP1 PUSH4 0x101DF54D EQ PUSH2 0x47B JUMPI STOP JUMPDEST CALLDATASIZE PUSH2 0x401 JUMPI STOP JUMPDEST STOP JUMPDEST CALLVALUE DUP1 ISZERO PUSH2 0x40F JUMPI PUSH1 0x0 DUP1 REVERT JUMPDEST POP PUSH2 0x423 PUSH2 0x41E CALLDATASIZE PUSH1 0x4 PUSH2 0x3EA4 JUMP JUMPDEST PUSH2 0xD7C JUMP JUMPDEST PUSH1 0x40 MLOAD SWAP1 ISZERO ISZERO DUP2 MSTORE PUSH1 0x20 ADD JUMPDEST PUSH1 0x40 MLOAD DUP1 SWAP2 SUB SWAP1 RETURN JUMPDEST CALLVALUE DUP1 ISZERO PUSH2 0x444 JUMPI PUSH1 0x0 DUP1 REVERT JUMPDEST POP PUSH2 0x423 PUSH2 0x453 CALLDATASIZE PUSH1 0x4 PUSH2 0x3EC1 JUMP JUMPDEST PUSH2 0xE13 JUMP JUMPDEST CALLVALUE DUP1 ISZERO PUSH2 0x464 JUMPI PUSH1 0x0 DUP1 REVERT JUMPDEST POP PUSH2 0x46D PUSH2 0xEE9 JUMP JUMPDEST PUSH1 0x40 MLOAD SWAP1 DUP2 MSTORE PUSH1 0x20 ADD PUSH2 0x42F JUMP JUMPDEST CALLVALUE DUP1 ISZERO PUSH2 0x487 JUMPI PUSH1 0x0 DUP1 REVERT JUMPDEST POP PUSH2 0x423 PUSH2 0x496 CALLDATASIZE PUSH1 0x4 PUSH2 0x3EF9 JUMP JUMPDEST PUSH2 0xF28 JUMP JUMPDEST CALLVALUE DUP1 ISZERO PUSH2 0x4A7 JUMPI PUSH1 0x0 DUP1 REVERT JUMPDEST POP PUSH2 0x423 PUSH2 0x4B6 CALLDATASIZE PUSH1 0x4 PUSH2 0x3F12 JUMP JUMPDEST PUSH2 0xFA7 JUMP JUMPDEST CALLVALUE DUP1 ISZERO PUSH2 0x4C7 JUMPI PUSH1 0x0 DUP1 REVERT JUMPDEST POP PUSH2 0x423 PUSH2 0x4D6 CALLDATASIZE PUSH1 0x4 PUSH2 0x3EF9 JUMP JUMPDEST PUSH2 0x1027 JUMP JUMPDEST CALLVALUE DUP1 ISZERO PUSH2 0x4E7 JUMPI PUSH1 0x0 DUP1 REVERT JUMPDEST POP PUSH2 0x4FB PUSH2 0x4F6 CALLDATASIZE PUSH1 0x4 PUSH2 0x3EF9 JUMP JUMPDEST PUSH2 0x1068 JUMP JUMPDEST PUSH1 0x40 MLOAD PUSH2 0x42F SWAP2 SWAP1 PUSH2 0x3F42 JUMP JUMPDEST CALLVALUE DUP1 ISZERO PUSH2 0x514 JUMPI PUSH1 0x0 DUP1 REVERT JUMPDEST POP PUSH2 0x423 PUSH2 0x523 CALLDATASIZE PUSH1 0x4 PUSH2 0x3EF9 JUMP JUMPDEST PUSH2 0x10EA JUMP JUMPDEST CALLVALUE DUP1 ISZERO PUSH2 0x534 JUMPI PUSH1 0x0 DUP1 REVERT JUMPDEST POP PUSH2 0x423 PUSH2 0x543 CALLDATASIZE PUSH1 0x4 PUSH2 0x3EF9 JUMP JUMPDEST PUSH2 0x112C JUMP JUMPDEST CALLVALUE DUP1 ISZERO PUSH2 0x554 JUMPI PUSH1 0x0 DUP1 REVERT JUMPDEST POP PUSH2 0x568 PUSH2 0x563 CALLDATASIZE PUSH1 0x4 PUSH2 0x3EF9 JUMP JUMPDEST PUSH2 0x116E JUMP JUMPDEST PUSH1 0x40 MLOAD PUSH2 0x42F SWAP2 SWAP1 PUSH2 0x3F90 JUMP JUMPDEST CALLVALUE DUP1 ISZERO PUSH2 0x581 JUMPI PUSH1 0x0 DUP1 REVERT JUMPDEST POP PUSH2 0x58A PUSH2 0x11F1 JUMP JUMPDEST PUSH1 0x40 MLOAD PUSH2 0xFFFF SWAP1 SWAP2 AND DUP2 MSTORE PUSH1 0x20 ADD PUSH2 0x42F JUMP JUMPDEST CALLVALUE DUP1 ISZERO PUSH2 0x5A9 JUMPI PUSH1 0x0 DUP1 REVERT JUMPDEST POP PUSH2 0x5BD PUSH2 0x5B8 CALLDATASIZE PUSH1 0x4 PUSH2 0x3EF9 JUMP JUMPDEST PUSH2 0x1205 JUMP JUMPDEST PUSH1 0x40 MLOAD PUSH2 0x42F SWAP4 SWAP3 SWAP2 SWAP1 PUSH2 0x4024 JUMP JUMPDEST CALLVALUE DUP1 ISZERO PUSH2 0x5D8 JUMPI PUSH1 0x0 DUP1 REVERT JUMPDEST POP PUSH2 0x46D PUSH2 0x1299 JUMP JUMPDEST CALLVALUE DUP1 ISZERO PUSH2 0x5ED JUMPI PUSH1 0x0 DUP1 REVERT JUMPDEST POP PUSH2 0x46D PUSH2 0x5FC CALLDATASIZE PUSH1 0x4 PUSH2 0x40A4 JUMP JUMPDEST PUSH2 0x12C4 JUMP JUMPDEST CALLVALUE DUP1 ISZERO PUSH2 0x60D JUMPI PUSH1 0x0 DUP1 REVERT JUMPDEST POP PUSH2 0x46D PUSH2 0x1396 JUMP JUMPDEST CALLVALUE DUP1 ISZERO PUSH2 0x622 JUMPI PUSH1 0x0 DUP1 REVERT JUMPDEST POP PUSH2 0x423 PUSH2 0x631 CALLDATASIZE PUSH1 0x4 PUSH2 0x3EC1 JUMP JUMPDEST PUSH2 0x13C2 JUMP JUMPDEST CALLVALUE DUP1 ISZERO PUSH2 0x642 JUMPI PUSH1 0x0 DUP1 REVERT JUMPDEST POP PUSH2 0x423 PUSH2 0x651 CALLDATASIZE PUSH1 0x4 PUSH2 0x40FA JUMP JUMPDEST PUSH2 0x1483 JUMP JUMPDEST CALLVALUE DUP1 ISZERO PUSH2 0x662 JUMPI PUSH1 0x0 DUP1 REVERT JUMPDEST POP PUSH2 0x423 PUSH2 0x671 CALLDATASIZE PUSH1 0x4 PUSH2 0x3EF9 JUMP JUMPDEST PUSH2 0x163D JUMP JUMPDEST CALLVALUE DUP1 ISZERO PUSH2 0x682 JUMPI PUSH1 0x0 DUP1 REVERT JUMPDEST POP PUSH2 0x423 PUSH2 0x691 CALLDATASIZE PUSH1 0x4 PUSH2 0x40FA JUMP JUMPDEST PUSH2 0x167F JUMP JUMPDEST CALLVALUE DUP1 ISZERO PUSH2 0x6A2 JUMPI PUSH1 0x0 DUP1 REVERT JUMPDEST POP PUSH2 0x423 PUSH2 0x6B1 CALLDATASIZE PUSH1 0x4 PUSH2 0x3EF9 JUMP JUMPDEST PUSH2 0x1848 JUMP JUMPDEST CALLVALUE DUP1 ISZERO PUSH2 0x6C2 JUMPI PUSH1 0x0 DUP1 REVERT JUMPDEST POP PUSH2 0x46D PUSH2 0x6D1 CALLDATASIZE PUSH1 0x4 PUSH2 0x4117 JUMP JUMPDEST PUSH2 0x188A JUMP JUMPDEST CALLVALUE DUP1 ISZERO PUSH2 0x6E2 JUMPI PUSH1 0x0 DUP1 REVERT JUMPDEST POP PUSH2 0x423 PUSH2 0x6F1 CALLDATASIZE PUSH1 0x4 PUSH2 0x3EF9 JUMP JUMPDEST PUSH2 0x1961 JUMP JUMPDEST CALLVALUE DUP1 ISZERO PUSH2 0x702 JUMPI PUSH1 0x0 DUP1 REVERT JUMPDEST POP PUSH2 0x423 PUSH2 0x711 CALLDATASIZE PUSH1 0x4 PUSH2 0x3EF9 JUMP JUMPDEST PUSH2 0x19A3 JUMP JUMPDEST CALLVALUE DUP1 ISZERO PUSH2 0x722 JUMPI PUSH1 0x0 DUP1 REVERT JUMPDEST POP PUSH2 0x46D PUSH2 0x19E5 JUMP JUMPDEST CALLVALUE DUP1 ISZERO PUSH2 0x737 JUMPI PUSH1 0x0 DUP1 REVERT JUMPDEST POP PUSH1 0x4 SLOAD PUSH2 0x100 SWAP1 DIV PUSH1 0xFF AND PUSH2 0x423 JUMP JUMPDEST CALLVALUE DUP1 ISZERO PUSH2 0x754 JUMPI PUSH1 0x0 DUP1 REVERT JUMPDEST POP PUSH2 0x75D PUSH2 0x1A72 JUMP JUMPDEST PUSH1 0x40 MLOAD PUSH1 0x1 PUSH1 0x1 PUSH1 0xA0 SHL SUB SWAP1 SWAP2 AND DUP2 MSTORE PUSH1 0x20 ADD PUSH2 0x42F JUMP JUMPDEST CALLVALUE DUP1 ISZERO PUSH2 0x781 JUMPI PUSH1 0x0 DUP1 REVERT JUMPDEST POP PUSH2 0x401 PUSH2 0x790 CALLDATASIZE PUSH1 0x4 PUSH2 0x4193 JUMP JUMPDEST PUSH2 0x1A7C JUMP JUMPDEST CALLVALUE DUP1 ISZERO PUSH2 0x7A1 JUMPI PUSH1 0x0 DUP1 REVERT JUMPDEST POP PUSH2 0x46D PUSH2 0x1E3E JUMP JUMPDEST CALLVALUE DUP1 ISZERO PUSH2 0x7B6 JUMPI PUSH1 0x0 DUP1 REVERT JUMPDEST POP PUSH1 0x4A SLOAD PUSH3 0x10000 SWAP1 DIV PUSH1 0xFF AND PUSH2 0x423 JUMP JUMPDEST CALLVALUE DUP1 ISZERO PUSH2 0x7D4 JUMPI PUSH1 0x0 DUP1 REVERT JUMPDEST POP PUSH2 0x7E8 PUSH2 0x7E3 CALLDATASIZE PUSH1 0x4 PUSH2 0x3EF9 JUMP JUMPDEST PUSH2 0x1E72 JUMP JUMPDEST PUSH1 0x40 MLOAD PUSH2 0x42F SWAP3 SWAP2 SWAP1 PUSH2 0x4240 JUMP JUMPDEST CALLVALUE DUP1 ISZERO PUSH2 0x802 JUMPI PUSH1 0x0 DUP1 REVERT JUMPDEST POP PUSH2 0x423 PUSH2 0x811 CALLDATASIZE PUSH1 0x4 PUSH2 0x4264 JUMP JUMPDEST PUSH2 0x1F00 JUMP JUMPDEST CALLVALUE DUP1 ISZERO PUSH2 0x822 JUMPI PUSH1 0x0 DUP1 REVERT JUMPDEST POP PUSH2 0x423 PUSH2 0x831 CALLDATASIZE PUSH1 0x4 PUSH2 0x4292 JUMP JUMPDEST PUSH2 0x1F9E JUMP JUMPDEST CALLVALUE DUP1 ISZERO PUSH2 0x842 JUMPI PUSH1 0x0 DUP1 REVERT JUMPDEST POP PUSH2 0x856 PUSH2 0x851 CALLDATASIZE PUSH1 0x4 PUSH2 0x43A2 JUMP JUMPDEST PUSH2 0x2080 JUMP JUMPDEST PUSH1 0x40 MLOAD PUSH2 0x42F SWAP2 SWAP1 PUSH2 0x43FA JUMP JUMPDEST CALLVALUE DUP1 ISZERO PUSH2 0x86F JUMPI PUSH1 0x0 DUP1 REVERT JUMPDEST POP PUSH2 0x46D PUSH2 0x21A8 JUMP JUMPDEST CALLVALUE DUP1 ISZERO PUSH2 0x884 JUMPI PUSH1 0x0 DUP1 REVERT JUMPDEST POP PUSH2 0x401 PUSH2 0x893 CALLDATASIZE PUSH1 0x4 PUSH2 0x440D JUMP JUMPDEST PUSH2 0x21D3 JUMP JUMPDEST CALLVALUE DUP1 ISZERO PUSH2 0x8A4 JUMPI PUSH1 0x0 DUP1 REVERT JUMPDEST POP PUSH1 0x1 SLOAD PUSH2 0x46D JUMP JUMPDEST CALLVALUE DUP1 ISZERO PUSH2 0x8B9 JUMPI PUSH1 0x0 DUP1 REVERT JUMPDEST POP PUSH2 0x423 PUSH2 0x8C8 CALLDATASIZE PUSH1 0x4 PUSH2 0x3EC1 JUMP JUMPDEST PUSH2 0x228B JUMP JUMPDEST CALLVALUE DUP1 ISZERO PUSH2 0x8D9 JUMPI PUSH1 0x0 DUP1 REVERT JUMPDEST POP PUSH2 0x46D PUSH2 0x234C JUMP JUMPDEST CALLVALUE DUP1 ISZERO PUSH2 0x8EE JUMPI PUSH1 0x0 DUP1 REVERT JUMPDEST POP PUSH2 0x423 PUSH2 0x8FD CALLDATASIZE PUSH1 0x4 PUSH2 0x4292 JUMP JUMPDEST PUSH2 0x2357 JUMP JUMPDEST CALLVALUE DUP1 ISZERO PUSH2 0x90E JUMPI PUSH1 0x0 DUP1 REVERT JUMPDEST POP PUSH2 0x423 PUSH2 0x91D CALLDATASIZE PUSH1 0x4 PUSH2 0x3EF9 JUMP JUMPDEST PUSH2 0x23E6 JUMP JUMPDEST CALLVALUE DUP1 ISZERO PUSH2 0x92E JUMPI PUSH1 0x0 DUP1 REVERT JUMPDEST POP PUSH2 0x423 PUSH2 0x93D CALLDATASIZE PUSH1 0x4 PUSH2 0x442A JUMP JUMPDEST PUSH2 0x2428 JUMP JUMPDEST CALLVALUE DUP1 ISZERO PUSH2 0x94E JUMPI PUSH1 0x0 DUP1 REVERT JUMPDEST POP PUSH2 0x423 PUSH2 0x95D CALLDATASIZE PUSH1 0x4 PUSH2 0x3EF9 JUMP JUMPDEST PUSH2 0x24B0 JUMP JUMPDEST CALLVALUE DUP1 ISZERO PUSH2 0x96E JUMPI PUSH1 0x0 DUP1 REVERT JUMPDEST POP PUSH2 0x982 PUSH2 0x97D CALLDATASIZE PUSH1 0x4 PUSH2 0x3EF9 JUMP JUMPDEST PUSH2 0x24F2 JUMP JUMPDEST PUSH1 0x40 MLOAD PUSH2 0x42F SWAP2 SWAP1 DUP2 MLOAD DUP2 MSTORE PUSH1 0x20 DUP1 DUP4 ADD MLOAD SWAP1 DUP3 ADD MSTORE PUSH1 0x40 DUP1 DUP4 ADD MLOAD SWAP1 DUP3 ADD MSTORE PUSH1 0x60 DUP1 DUP4 ADD MLOAD PUSH1 0x1 PUSH1 0x1 PUSH1 0xA0 SHL SUB AND SWAP1 DUP3 ADD MSTORE PUSH1 0x80 DUP1 DUP4 ADD MLOAD ISZERO ISZERO SWAP1 DUP3 ADD MSTORE PUSH1 0xA0 SWAP2 DUP3 ADD MLOAD ISZERO ISZERO SWAP2 DUP2 ADD SWAP2 SWAP1 SWAP2 MSTORE PUSH1 0xC0 ADD SWAP1 JUMP JUMPDEST CALLVALUE DUP1 ISZERO PUSH2 0x9E2 JUMPI PUSH1 0x0 DUP1 REVERT JUMPDEST POP PUSH1 0x2 SLOAD PUSH2 0x46D JUMP JUMPDEST CALLVALUE DUP1 ISZERO PUSH2 0x9F7 JUMPI PUSH1 0x0 DUP1 REVERT JUMPDEST POP PUSH2 0x46D PUSH2 0xA06 CALLDATASIZE PUSH1 0x4 PUSH2 0x444F JUMP JUMPDEST PUSH2 0x259B JUMP JUMPDEST CALLVALUE DUP1 ISZERO PUSH2 0xA17 JUMPI PUSH1 0x0 DUP1 REVERT JUMPDEST POP PUSH1 0x0 SLOAD PUSH1 0x1 PUSH1 0x1 PUSH1 0xA0 SHL SUB AND PUSH2 0x75D JUMP JUMPDEST CALLVALUE DUP1 ISZERO PUSH2 0xA35 JUMPI PUSH1 0x0 DUP1 REVERT JUMPDEST POP PUSH2 0x423 PUSH2 0xA44 CALLDATASIZE PUSH1 0x4 PUSH2 0x3F12 JUMP JUMPDEST PUSH2 0x2687 JUMP JUMPDEST CALLVALUE DUP1 ISZERO PUSH2 0xA55 JUMPI PUSH1 0x0 DUP1 REVERT JUMPDEST POP PUSH2 0x423 PUSH2 0xA64 CALLDATASIZE PUSH1 0x4 PUSH2 0x3F12 JUMP JUMPDEST PUSH2 0x26C6 JUMP JUMPDEST CALLVALUE DUP1 ISZERO PUSH2 0xA75 JUMPI PUSH1 0x0 DUP1 REVERT JUMPDEST POP PUSH2 0x423 PUSH2 0xA84 CALLDATASIZE PUSH1 0x4 PUSH2 0x4292 JUMP JUMPDEST PUSH2 0x2796 JUMP JUMPDEST CALLVALUE DUP1 ISZERO PUSH2 0xA95 JUMPI PUSH1 0x0 DUP1 REVERT JUMPDEST POP PUSH1 0x4 SLOAD PUSH1 0xFF AND PUSH2 0x423 JUMP JUMPDEST CALLVALUE DUP1 ISZERO PUSH2 0xAAD JUMPI PUSH1 0x0 DUP1 REVERT JUMPDEST POP PUSH2 0xAC1 PUSH2 0xABC CALLDATASIZE PUSH1 0x4 PUSH2 0x3EF9 JUMP JUMPDEST PUSH2 0x2825 JUMP JUMPDEST PUSH1 0x40 MLOAD PUSH2 0x42F SWAP4 SWAP3 SWAP2 SWAP1 PUSH2 0x44A2 JUMP JUMPDEST CALLVALUE DUP1 ISZERO PUSH2 0xADC JUMPI PUSH1 0x0 DUP1 REVERT JUMPDEST POP PUSH2 0x423 PUSH2 0xAEB CALLDATASIZE PUSH1 0x4 PUSH2 0x3EF9 JUMP JUMPDEST PUSH2 0x28AC JUMP JUMPDEST CALLVALUE DUP1 ISZERO PUSH2 0xAFC JUMPI PUSH1 0x0 DUP1 REVERT JUMPDEST POP PUSH2 0x423 PUSH2 0xB0B CALLDATASIZE PUSH1 0x4 PUSH2 0x44CC JUMP JUMPDEST PUSH2 0x28EE JUMP JUMPDEST CALLVALUE DUP1 ISZERO PUSH2 0xB1C JUMPI PUSH1 0x0 DUP1 REVERT JUMPDEST POP PUSH2 0x423 PUSH2 0xB2B CALLDATASIZE PUSH1 0x4 PUSH2 0x442A JUMP JUMPDEST PUSH2 0x294F JUMP JUMPDEST CALLVALUE DUP1 ISZERO PUSH2 0xB3C JUMPI PUSH1 0x0 DUP1 REVERT JUMPDEST POP PUSH2 0x423 PUSH2 0xB4B CALLDATASIZE PUSH1 0x4 PUSH2 0x4503 JUMP JUMPDEST PUSH2 0x29A0 JUMP JUMPDEST CALLVALUE DUP1 ISZERO PUSH2 0xB5C JUMPI PUSH1 0x0 DUP1 REVERT JUMPDEST POP PUSH1 0x3 SLOAD PUSH2 0x46D JUMP JUMPDEST CALLVALUE DUP1 ISZERO PUSH2 0xB71 JUMPI PUSH1 0x0 DUP1 REVERT JUMPDEST POP PUSH2 0x423 PUSH2 0xB80 CALLDATASIZE PUSH1 0x4 PUSH2 0x4503 JUMP JUMPDEST PUSH2 0x2A6F JUMP JUMPDEST CALLVALUE DUP1 ISZERO PUSH2 0xB91 JUMPI PUSH1 0x0 DUP1 REVERT JUMPDEST POP PUSH2 0x423 PUSH2 0xBA0 CALLDATASIZE PUSH1 0x4 PUSH2 0x440D JUMP JUMPDEST PUSH2 0x2AB8 JUMP JUMPDEST CALLVALUE DUP1 ISZERO PUSH2 0xBB1 JUMPI PUSH1 0x0 DUP1 REVERT JUMPDEST POP PUSH2 0x423 PUSH2 0xBC0 CALLDATASIZE PUSH1 0x4 PUSH2 0x4503 JUMP JUMPDEST PUSH2 0x2C32 JUMP JUMPDEST CALLVALUE DUP1 ISZERO PUSH2 0xBD1 JUMPI PUSH1 0x0 DUP1 REVERT JUMPDEST POP PUSH2 0x423 PUSH2 0xBE0 CALLDATASIZE PUSH1 0x4 PUSH2 0x3EF9 JUMP JUMPDEST PUSH2 0x2D01 JUMP JUMPDEST CALLVALUE DUP1 ISZERO PUSH2 0xBF1 JUMPI PUSH1 0x0 DUP1 REVERT JUMPDEST POP PUSH2 0x423 PUSH2 0xC00 CALLDATASIZE PUSH1 0x4 PUSH2 0x442A JUMP JUMPDEST PUSH2 0x2D43 JUMP JUMPDEST CALLVALUE DUP1 ISZERO PUSH2 0xC11 JUMPI PUSH1 0x0 DUP1 REVERT JUMPDEST POP PUSH2 0xC25 PUSH2 0xC20 CALLDATASIZE PUSH1 0x4 PUSH2 0x3EF9 JUMP JUMPDEST PUSH2 0x2DCB JUMP JUMPDEST PUSH1 0x40 MLOAD PUSH2 0x42F SWAP2 SWAP1 PUSH2 0x4525 JUMP JUMPDEST CALLVALUE DUP1 ISZERO PUSH2 0xC3E JUMPI PUSH1 0x0 DUP1 REVERT JUMPDEST POP PUSH2 0x423 PUSH2 0xC4D CALLDATASIZE PUSH1 0x4 PUSH2 0x3EF9 JUMP JUMPDEST PUSH2 0x2E4D JUMP JUMPDEST CALLVALUE DUP1 ISZERO PUSH2 0xC5E JUMPI PUSH1 0x0 DUP1 REVERT JUMPDEST POP PUSH2 0x75D PUSH2 0xC6D CALLDATASIZE PUSH1 0x4 PUSH2 0x45C2 JUMP JUMPDEST PUSH2 0x2E8F JUMP JUMPDEST CALLVALUE DUP1 ISZERO PUSH2 0xC7E JUMPI PUSH1 0x0 DUP1 REVERT JUMPDEST POP PUSH2 0x423 PUSH2 0xC8D CALLDATASIZE PUSH1 0x4 PUSH2 0x4292 JUMP JUMPDEST PUSH2 0x2F77 JUMP JUMPDEST CALLVALUE DUP1 ISZERO PUSH2 0xC9E JUMPI PUSH1 0x0 DUP1 REVERT JUMPDEST POP PUSH2 0x568 PUSH2 0xCAD CALLDATASIZE PUSH1 0x4 PUSH2 0x3EF9 JUMP JUMPDEST PUSH2 0x3049 JUMP JUMPDEST CALLVALUE DUP1 ISZERO PUSH2 0xCBE JUMPI PUSH1 0x0 DUP1 REVERT JUMPDEST POP PUSH2 0x46D PUSH2 0xCCD CALLDATASIZE PUSH1 0x4 PUSH2 0x4648 JUMP JUMPDEST PUSH2 0x308B JUMP JUMPDEST CALLVALUE DUP1 ISZERO PUSH2 0xCDE JUMPI PUSH1 0x0 DUP1 REVERT JUMPDEST POP PUSH2 0x423 PUSH2 0xCED CALLDATASIZE PUSH1 0x4 PUSH2 0x4292 JUMP JUMPDEST PUSH2 0x3180 JUMP JUMPDEST CALLVALUE DUP1 ISZERO PUSH2 0xCFE JUMPI PUSH1 0x0 DUP1 REVERT JUMPDEST POP PUSH2 0x423 PUSH2 0xD0D CALLDATASIZE PUSH1 0x4 PUSH2 0x4503 JUMP JUMPDEST PUSH2 0x320F JUMP JUMPDEST CALLVALUE DUP1 ISZERO PUSH2 0xD1E JUMPI PUSH1 0x0 DUP1 REVERT JUMPDEST POP PUSH2 0x46D PUSH2 0x3258 JUMP JUMPDEST CALLVALUE DUP1 ISZERO PUSH2 0xD33 JUMPI PUSH1 0x0 DUP1 REVERT JUMPDEST POP PUSH2 0x423 PUSH2 0xD42 CALLDATASIZE PUSH1 0x4 PUSH2 0x440D JUMP JUMPDEST PUSH2 0x3262 JUMP JUMPDEST CALLVALUE DUP1 ISZERO PUSH2 0xD53 JUMPI PUSH1 0x0 DUP1 REVERT JUMPDEST POP PUSH2 0x423 PUSH2 0xD62 CALLDATASIZE PUSH1 0x4 PUSH2 0x440D JUMP JUMPDEST PUSH2 0x32AC JUMP JUMPDEST CALLVALUE DUP1 ISZERO PUSH2 0xD73 JUMPI PUSH1 0x0 DUP1 REVERT JUMPDEST POP PUSH2 0x75D PUSH2 0x32F6 JUMP JUMPDEST PUSH1 0x0 PUSH1 0x1 PUSH1 0x1 PUSH1 0xE0 SHL SUB NOT DUP3 AND PUSH4 0x1B44BAD3 PUSH1 0xE3 SHL EQ DUP1 PUSH2 0xDAD JUMPI POP PUSH1 0x1 PUSH1 0x1 PUSH1 0xE0 SHL SUB NOT DUP3 AND PUSH4 0x3B661D83 PUSH1 0xE2 SHL EQ JUMPDEST DUP1 PUSH2 0xDC8 JUMPI POP PUSH1 0x1 PUSH1 0x1 PUSH1 0xE0 SHL SUB NOT DUP3 AND PUSH4 0x467E3A61 PUSH1 0xE0 SHL EQ JUMPDEST DUP1 PUSH2 0xDE3 JUMPI POP PUSH1 0x1 PUSH1 0x1 PUSH1 0xE0 SHL SUB NOT DUP3 AND PUSH4 0x7D22131D PUSH1 0xE1 SHL EQ JUMPDEST DUP1 PUSH2 0xDFE JUMPI POP PUSH1 0x1 PUSH1 0x1 PUSH1 0xE0 SHL SUB NOT DUP3 AND PUSH4 0x70319BFF PUSH1 0xE1 SHL EQ JUMPDEST DUP1 PUSH2 0xE0D JUMPI POP PUSH2 0xE0D DUP3 PUSH2 0x3303 JUMP JUMPDEST SWAP3 SWAP2 POP POP JUMP JUMPDEST PUSH1 0x0 DUP1 PUSH20 0x0 PUSH4 0x518BF960 PUSH1 0x45 DUP8 DUP8 DUP8 PUSH1 0x40 MLOAD DUP6 PUSH4 0xFFFFFFFF AND PUSH1 0xE0 SHL DUP2 MSTORE PUSH1 0x4 ADD PUSH2 0xE54 SWAP5 SWAP4 SWAP3 SWAP2 SWAP1 PUSH2 0x46BF JUMP JUMPDEST PUSH1 0x20 PUSH1 0x40 MLOAD DUP1 DUP4 SUB DUP2 DUP7 GAS DELEGATECALL ISZERO DUP1 ISZERO PUSH2 0xE71 JUMPI RETURNDATASIZE PUSH1 0x0 DUP1 RETURNDATACOPY RETURNDATASIZE PUSH1 0x0 REVERT JUMPDEST POP POP POP POP PUSH1 0x40 MLOAD RETURNDATASIZE PUSH1 0x1F NOT PUSH1 0x1F DUP3 ADD AND DUP3 ADD DUP1 PUSH1 0x40 MSTORE POP DUP2 ADD SWAP1 PUSH2 0xE95 SWAP2 SWAP1 PUSH2 0x46E4 JUMP JUMPDEST SWAP1 POP CALLER PUSH1 0x1 PUSH1 0x1 PUSH1 0xA0 SHL SUB AND DUP4 DUP7 PUSH32 0xCE5E1F2BA33F195F748A93B00EE62600B55E27CC50531A72E5443713BAC23E12 DUP8 DUP6 PUSH1 0x40 MLOAD PUSH2 0xED4 SWAP3 SWAP2 SWAP1 PUSH2 0x46FD JUMP JUMPDEST PUSH1 0x40 MLOAD DUP1 SWAP2 SUB SWAP1 LOG4 PUSH1 0x1 SWAP2 POP POP JUMPDEST SWAP4 SWAP3 POP POP POP JUMP JUMPDEST PUSH1 0x40 MLOAD PUSH17 0x4C4956454C595F41444D494E5F524F4C45 PUSH1 0x78 SHL PUSH1 0x20 DUP3 ADD MSTORE PUSH1 0x0 SWAP1 PUSH1 0x31 ADD JUMPDEST PUSH1 0x40 MLOAD PUSH1 0x20 DUP2 DUP4 SUB SUB DUP2 MSTORE SWAP1 PUSH1 0x40 MSTORE DUP1 MLOAD SWAP1 PUSH1 0x20 ADD KECCAK256 SWAP1 POP SWAP1 JUMP JUMPDEST PUSH1 0x40 MLOAD PUSH4 0x7CD7C4ED PUSH1 0xE0 SHL DUP2 MSTORE PUSH1 0x45 PUSH1 0x4 DUP3 ADD MSTORE PUSH1 0x24 DUP2 ADD DUP3 SWAP1 MSTORE PUSH1 0x0 SWAP1 PUSH20 0x0 SWAP1 PUSH4 0x7CD7C4ED SWAP1 PUSH1 0x44 ADD JUMPDEST PUSH1 0x20 PUSH1 0x40 MLOAD DUP1 DUP4 SUB DUP2 DUP7 GAS DELEGATECALL ISZERO DUP1 ISZERO PUSH2 0xF83 JUMPI RETURNDATASIZE PUSH1 0x0 DUP1 RETURNDATACOPY RETURNDATASIZE PUSH1 0x0 REVERT JUMPDEST POP POP POP POP PUSH1 0x40 MLOAD RETURNDATASIZE PUSH1 0x1F NOT PUSH1 0x1F DUP3 ADD AND DUP3 ADD DUP1 PUSH1 0x40 MSTORE POP DUP2 ADD SWAP1 PUSH2 0xE0D SWAP2 SWAP1 PUSH2 0x4717 JUMP JUMPDEST PUSH1 0x40 MLOAD PUSH4 0x2A0D2E3 PUSH1 0xE6 SHL DUP2 MSTORE PUSH1 0x0 SWAP1 PUSH20 0x0 SWAP1 PUSH4 0xA834B8C0 SWAP1 PUSH2 0xFE6 SWAP1 PUSH1 0x45 SWAP1 DUP8 SWAP1 DUP8 SWAP1 PUSH1 0x4 ADD PUSH2 0x4734 JUMP JUMPDEST PUSH1 0x20 PUSH1 0x40 MLOAD DUP1 DUP4 SUB DUP2 DUP7 GAS DELEGATECALL ISZERO DUP1 ISZERO PUSH2 0x1003 JUMPI RETURNDATASIZE PUSH1 0x0 DUP1 RETURNDATACOPY RETURNDATASIZE PUSH1 0x0 REVERT JUMPDEST POP POP POP POP PUSH1 0x40 MLOAD RETURNDATASIZE PUSH1 0x1F NOT PUSH1 0x1F DUP3 ADD AND DUP3 ADD DUP1 PUSH1 0x40 MSTORE POP DUP2 ADD SWAP1 PUSH2 0xEE2 SWAP2 SWAP1 PUSH2 0x4717 JUMP JUMPDEST PUSH1 0x40 MLOAD PUSH3 0xFD7CB9 PUSH1 0xE4 SHL DUP2 MSTORE PUSH1 0x45 PUSH1 0x4 DUP3 ADD MSTORE PUSH1 0x24 DUP2 ADD DUP3 SWAP1 MSTORE PUSH1 0x0 SWAP1 PUSH20 0x0 SWAP1 PUSH4 0xFD7CB90 SWAP1 PUSH1 0x44 ADD PUSH2 0xF66 JUMP JUMPDEST PUSH1 0x40 MLOAD PUSH4 0xEC77EB21 PUSH1 0xE0 SHL DUP2 MSTORE PUSH1 0x45 PUSH1 0x4 DUP3 ADD MSTORE PUSH1 0x24 DUP2 ADD DUP3 SWAP1 MSTORE PUSH1 0x60 SWAP1 PUSH20 0x0 SWAP1 PUSH4 0xEC77EB21 SWAP1 PUSH1 0x44 ADD PUSH1 0x0 PUSH1 0x40 MLOAD DUP1 DUP4 SUB DUP2 DUP7 GAS DELEGATECALL ISZERO DUP1 ISZERO PUSH2 0x10C2 JUMPI RETURNDATASIZE PUSH1 0x0 DUP1 RETURNDATACOPY RETURNDATASIZE PUSH1 0x0 REVERT JUMPDEST POP POP POP POP PUSH1 0x40 MLOAD RETURNDATASIZE PUSH1 0x0 DUP3 RETURNDATACOPY PUSH1 0x1F RETURNDATASIZE SWAP1 DUP2 ADD PUSH1 0x1F NOT AND DUP3 ADD PUSH1 0x40 MSTORE PUSH2 0xE0D SWAP2 SWAP1 DUP2 ADD SWAP1 PUSH2 0x47E6 JUMP JUMPDEST PUSH1 0x40 MLOAD PUSH4 0xE24B90A9 PUSH1 0xE0 SHL DUP2 MSTORE PUSH1 0x45 PUSH1 0x4 DUP3 ADD MSTORE PUSH1 0x24 DUP2 ADD DUP3 SWAP1 MSTORE PUSH1 0x0 SWAP1 PUSH20 0x0 SWAP1 PUSH4 0xE24B90A9 SWAP1 PUSH1 0x44 ADD PUSH2 0xF66 JUMP JUMPDEST PUSH1 0x40 MLOAD PUSH4 0x442B0CA1 PUSH1 0xE0 SHL DUP2 MSTORE PUSH1 0x45 PUSH1 0x4 DUP3 ADD MSTORE PUSH1 0x24 DUP2 ADD DUP3 SWAP1 MSTORE PUSH1 0x0 SWAP1 PUSH20 0x0 SWAP1 PUSH4 0x442B0CA1 SWAP1 PUSH1 0x44 ADD PUSH2 0xF66 JUMP JUMPDEST PUSH1 0x40 MLOAD PUSH4 0x50F0B31D PUSH1 0xE1 SHL DUP2 MSTORE PUSH1 0x45 PUSH1 0x4 DUP3 ADD MSTORE PUSH1 0x24 DUP2 ADD DUP3 SWAP1 MSTORE PUSH1 0x60 SWAP1 PUSH20 0x0 SWAP1 PUSH4 0xA1E1663A SWAP1 PUSH1 0x44 ADD JUMPDEST PUSH1 0x0 PUSH1 0x40 MLOAD DUP1 DUP4 SUB DUP2 DUP7 GAS DELEGATECALL ISZERO DUP1 ISZERO PUSH2 0x11C9 JUMPI RETURNDATASIZE PUSH1 0x0 DUP1 RETURNDATACOPY RETURNDATASIZE PUSH1 0x0 REVERT JUMPDEST POP POP POP POP PUSH1 0x40 MLOAD RETURNDATASIZE PUSH1 0x0 DUP3 RETURNDATACOPY PUSH1 0x1F RETURNDATASIZE SWAP1 DUP2 ADD PUSH1 0x1F NOT AND DUP3 ADD PUSH1 0x40 MSTORE PUSH2 0xE0D SWAP2 SWAP1 DUP2 ADD SWAP1 PUSH2 0x481A JUMP JUMPDEST PUSH1 0x0 PUSH2 0x1200 PUSH1 0x4A SLOAD PUSH2 0xFFFF AND SWAP1 JUMP JUMPDEST SWAP1 POP SWAP1 JUMP JUMPDEST PUSH1 0x40 MLOAD PUSH4 0x108CA8B7 PUSH1 0xE0 SHL DUP2 MSTORE PUSH1 0x45 PUSH1 0x4 DUP3 ADD MSTORE PUSH1 0x24 DUP2 ADD DUP3 SWAP1 MSTORE PUSH1 0x60 SWAP1 PUSH1 0x0 SWAP1 DUP2 SWAP1 PUSH20 0x0 SWAP1 PUSH4 0x108CA8B7 SWAP1 PUSH1 0x44 ADD PUSH1 0x0 PUSH1 0x40 MLOAD DUP1 DUP4 SUB DUP2 DUP7 GAS DELEGATECALL ISZERO DUP1 ISZERO PUSH2 0x1264 JUMPI RETURNDATASIZE PUSH1 0x0 DUP1 RETURNDATACOPY RETURNDATASIZE PUSH1 0x0 REVERT JUMPDEST POP POP POP POP PUSH1 0x40 MLOAD RETURNDATASIZE PUSH1 0x0 DUP3 RETURNDATACOPY PUSH1 0x1F RETURNDATASIZE SWAP1 DUP2 ADD PUSH1 0x1F NOT AND DUP3 ADD PUSH1 0x40 MSTORE PUSH2 0x128C SWAP2 SWAP1 DUP2 ADD SWAP1 PUSH2 0x48EF JUMP JUMPDEST SWAP3 POP SWAP3 POP SWAP3 POP SWAP2 SWAP4 SWAP1 SWAP3 POP JUMP JUMPDEST PUSH1 0x40 MLOAD PUSH20 0x4C4956454C595F47454E4552414C5F47524F555 PUSH1 0x64 SHL PUSH1 0x20 DUP3 ADD MSTORE PUSH1 0x0 SWAP1 PUSH1 0x34 ADD PUSH2 0xF0D JUMP JUMPDEST PUSH1 0x0 DUP1 PUSH20 0x0 PUSH4 0xF728A0F5 PUSH1 0x45 DUP8 DUP8 DUP8 PUSH1 0x40 MLOAD DUP6 PUSH4 0xFFFFFFFF AND PUSH1 0xE0 SHL DUP2 MSTORE PUSH1 0x4 ADD PUSH2 0x1305 SWAP5 SWAP4 SWAP3 SWAP2 SWAP1 PUSH2 0x4971 JUMP JUMPDEST PUSH1 0x20 PUSH1 0x40 MLOAD DUP1 DUP4 SUB DUP2 DUP7 GAS DELEGATECALL ISZERO DUP1 ISZERO PUSH2 0x1322 JUMPI RETURNDATASIZE PUSH1 0x0 DUP1 RETURNDATACOPY RETURNDATASIZE PUSH1 0x0 REVERT JUMPDEST POP POP POP POP PUSH1 0x40 MLOAD RETURNDATASIZE PUSH1 0x1F NOT PUSH1 0x1F DUP3 ADD AND DUP3 ADD DUP1 PUSH1 0x40 MSTORE POP DUP2 ADD SWAP1 PUSH2 0x1346 SWAP2 SWAP1 PUSH2 0x46E4 JUMP JUMPDEST SWAP1 POP CALLER PUSH1 0x1 PUSH1 0x1 PUSH1 0xA0 SHL SUB AND DUP2 PUSH32 0xDE3BD866160A7F983F3C5F990127712936D37378D60B93BA96AB3A66A04FEB18 DUP8 DUP8 DUP8 PUSH1 0x40 MLOAD PUSH2 0x1386 SWAP4 SWAP3 SWAP2 SWAP1 PUSH2 0x499E JUMP JUMPDEST PUSH1 0x40 MLOAD DUP1 SWAP2 SUB SWAP1 LOG3 SWAP5 SWAP4 POP POP POP POP JUMP JUMPDEST PUSH1 0x40 MLOAD PUSH21 0x4C4956454C595F414E4F4E594D4F55535F524F4C45 PUSH1 0x58 SHL PUSH1 0x20 DUP3 ADD MSTORE PUSH1 0x0 SWAP1 PUSH1 0x35 ADD PUSH2 0xF0D JUMP JUMPDEST PUSH1 0x0 DUP1 PUSH20 0x0 PUSH4 0x5ACD816A PUSH1 0x45 DUP8 DUP8 DUP8 PUSH1 0x40 MLOAD DUP6 PUSH4 0xFFFFFFFF AND PUSH1 0xE0 SHL DUP2 MSTORE PUSH1 0x4 ADD PUSH2 0x1403 SWAP5 SWAP4 SWAP3 SWAP2 SWAP1 PUSH2 0x46BF JUMP JUMPDEST PUSH1 0x20 PUSH1 0x40 MLOAD DUP1 DUP4 SUB DUP2 DUP7 GAS DELEGATECALL ISZERO DUP1 ISZERO PUSH2 0x1420 JUMPI RETURNDATASIZE PUSH1 0x0 DUP1 RETURNDATACOPY RETURNDATASIZE PUSH1 0x0 REVERT JUMPDEST POP POP POP POP PUSH1 0x40 MLOAD RETURNDATASIZE PUSH1 0x1F NOT PUSH1 0x1F DUP3 ADD AND DUP3 ADD DUP1 PUSH1 0x40 MSTORE POP DUP2 ADD SWAP1 PUSH2 0x1444 SWAP2 SWAP1 PUSH2 0x46E4 JUMP JUMPDEST SWAP1 POP CALLER PUSH1 0x1 PUSH1 0x1 PUSH1 0xA0 SHL SUB AND DUP4 DUP7 PUSH32 0x888EBBEE43B69C568A7EF10A18F4AFB4A0452ED2CFEC2DDE7A3D37B7E5EF87A3 DUP8 DUP6 PUSH1 0x40 MLOAD PUSH2 0xED4 SWAP3 SWAP2 SWAP1 PUSH2 0x46FD JUMP JUMPDEST PUSH1 0x0 PUSH1 0x1 PUSH1 0x1 PUSH1 0xA0 SHL SUB PUSH32 0x0 AND ADDRESS SUB PUSH2 0x14D6 JUMPI PUSH1 0x40 MLOAD PUSH3 0x461BCD PUSH1 0xE5 SHL DUP2 MSTORE PUSH1 0x4 ADD PUSH2 0x14CD SWAP1 PUSH2 0x49C4 JUMP JUMPDEST PUSH1 0x40 MLOAD DUP1 SWAP2 SUB SWAP1 REVERT JUMPDEST PUSH32 0x0 PUSH1 0x1 PUSH1 0x1 PUSH1 0xA0 SHL SUB AND PUSH2 0x1508 PUSH2 0x3353 JUMP JUMPDEST PUSH1 0x1 PUSH1 0x1 PUSH1 0xA0 SHL SUB AND EQ PUSH2 0x152E JUMPI PUSH1 0x40 MLOAD PUSH3 0x461BCD PUSH1 0xE5 SHL DUP2 MSTORE PUSH1 0x4 ADD PUSH2 0x14CD SWAP1 PUSH2 0x49F3 JUMP JUMPDEST PUSH1 0x0 PUSH2 0x153D PUSH1 0x4A SLOAD PUSH2 0xFFFF AND SWAP1 JUMP JUMPDEST PUSH2 0xFFFF AND GT PUSH2 0x158E JUMPI PUSH1 0x40 MLOAD PUSH3 0x461BCD PUSH1 0xE5 SHL DUP2 MSTORE PUSH1 0x20 PUSH1 0x4 DUP3 ADD MSTORE PUSH1 0x18 PUSH1 0x24 DUP3 ADD MSTORE PUSH32 0x436F6E7472616374204E6F7420496E697469616C697A65640000000000000000 PUSH1 0x44 DUP3 ADD MSTORE PUSH1 0x64 ADD PUSH2 0x14CD JUMP JUMPDEST PUSH2 0x159E PUSH4 0x225BF2F9 PUSH1 0xE1 SHL PUSH2 0x3374 JUMP JUMPDEST PUSH2 0x15E2 JUMPI PUSH1 0x40 MLOAD PUSH3 0x461BCD PUSH1 0xE5 SHL DUP2 MSTORE PUSH1 0x20 PUSH1 0x4 DUP3 ADD MSTORE PUSH1 0x15 PUSH1 0x24 DUP3 ADD MSTORE PUSH21 0x29B2BA29B0B332A6B7B232902337B93134B23232B7 PUSH1 0x59 SHL PUSH1 0x44 DUP3 ADD MSTORE PUSH1 0x64 ADD PUSH2 0x14CD JUMP JUMPDEST PUSH1 0x4 DUP1 SLOAD PUSH1 0xFF NOT AND DUP4 ISZERO ISZERO OR SWAP1 SSTORE PUSH1 0x3 SLOAD ADDRESS CALLER PUSH1 0x1 PUSH1 0x1 PUSH1 0xA0 SHL SUB AND PUSH32 0xDD452A31D2E164A1EA436C084842C27D24AE2548A575A869F71B05A4ED16243F DUP6 PUSH1 0x40 MLOAD PUSH2 0x1631 SWAP2 ISZERO ISZERO DUP2 MSTORE PUSH1 0x20 ADD SWAP1 JUMP JUMPDEST PUSH1 0x40 MLOAD DUP1 SWAP2 SUB SWAP1 LOG4 POP SWAP1 JUMP JUMPDEST PUSH1 0x40 MLOAD PUSH4 0x227E505 PUSH1 0xE3 SHL DUP2 MSTORE PUSH1 0x45 PUSH1 0x4 DUP3 ADD MSTORE PUSH1 0x24 DUP2 ADD DUP3 SWAP1 MSTORE PUSH1 0x0 SWAP1 PUSH20 0x0 SWAP1 PUSH4 0x113F2828 SWAP1 PUSH1 0x44 ADD PUSH2 0xF66 JUMP JUMPDEST PUSH1 0x0 PUSH1 0x1 PUSH1 0x1 PUSH1 0xA0 SHL SUB PUSH32 0x0 AND ADDRESS SUB PUSH2 0x16C9 JUMPI PUSH1 0x40 MLOAD PUSH3 0x461BCD PUSH1 0xE5 SHL DUP2 MSTORE PUSH1 0x4 ADD PUSH2 0x14CD SWAP1 PUSH2 0x49C4 JUMP JUMPDEST PUSH32 0x0 PUSH1 0x1 PUSH1 0x1 PUSH1 0xA0 SHL SUB AND PUSH2 0x16FB PUSH2 0x3353 JUMP JUMPDEST PUSH1 0x1 PUSH1 0x1 PUSH1 0xA0 SHL SUB AND EQ PUSH2 0x1721 JUMPI PUSH1 0x40 MLOAD PUSH3 0x461BCD PUSH1 0xE5 SHL DUP2 MSTORE PUSH1 0x4 ADD PUSH2 0x14CD SWAP1 PUSH2 0x49F3 JUMP JUMPDEST PUSH1 0x4 SLOAD PUSH1 0xFF AND ISZERO PUSH2 0x1744 JUMPI PUSH1 0x40 MLOAD PUSH3 0x461BCD PUSH1 0xE5 SHL DUP2 MSTORE PUSH1 0x4 ADD PUSH2 0x14CD SWAP1 PUSH2 0x4A21 JUMP JUMPDEST PUSH2 0x1754 PUSH4 0x1239AF87 PUSH1 0xE2 SHL PUSH2 0x3374 JUMP JUMPDEST PUSH2 0x17A0 JUMPI PUSH1 0x40 MLOAD PUSH3 0x461BCD PUSH1 0xE5 SHL DUP2 MSTORE PUSH1 0x20 PUSH1 0x4 DUP3 ADD MSTORE PUSH1 0x1A PUSH1 0x24 DUP3 ADD MSTORE PUSH32 0x5365745570677261646553746174757320466F7262696464656E000000000000 PUSH1 0x44 DUP3 ADD MSTORE PUSH1 0x64 ADD PUSH2 0x14CD JUMP JUMPDEST PUSH2 0x17A8 PUSH2 0x34B7 JUMP JUMPDEST PUSH2 0x17F4 JUMPI PUSH1 0x40 MLOAD PUSH3 0x461BCD PUSH1 0xE5 SHL DUP2 MSTORE PUSH1 0x20 PUSH1 0x4 DUP3 ADD MSTORE PUSH1 0x17 PUSH1 0x24 DUP3 ADD MSTORE PUSH32 0x5265616C6D205570677261646520466F7262696464656E000000000000000000 PUSH1 0x44 DUP3 ADD MSTORE PUSH1 0x64 ADD PUSH2 0x14CD JUMP JUMPDEST PUSH1 0x4 DUP1 SLOAD PUSH2 0xFF00 NOT AND PUSH2 0x100 DUP5 ISZERO ISZERO MUL OR SWAP1 SSTORE PUSH1 0x3 SLOAD ADDRESS CALLER PUSH1 0x1 PUSH1 0x1 PUSH1 0xA0 SHL SUB AND PUSH32 0xE9F97AD94C2BA252DCFC525E004F608AC5CB886955D8FC87D9E0EE070A698C56 DUP6 PUSH1 0x40 MLOAD PUSH2 0x1631 SWAP2 ISZERO ISZERO DUP2 MSTORE PUSH1 0x20 ADD SWAP1 JUMP JUMPDEST PUSH1 0x40 MLOAD PUSH4 0x3346DD2D PUSH1 0xE0 SHL DUP2 MSTORE PUSH1 0x45 PUSH1 0x4 DUP3 ADD MSTORE PUSH1 0x24 DUP2 ADD DUP3 SWAP1 MSTORE PUSH1 0x0 SWAP1 PUSH20 0x0 SWAP1 PUSH4 0x3346DD2D SWAP1 PUSH1 0x44 ADD PUSH2 0xF66 JUMP JUMPDEST PUSH1 0x0 DUP1 PUSH20 0x0 PUSH4 0x59186F40 PUSH1 0x45 DUP9 DUP9 DUP9 DUP9 PUSH1 0x40 MLOAD DUP7 PUSH4 0xFFFFFFFF AND PUSH1 0xE0 SHL DUP2 MSTORE PUSH1 0x4 ADD PUSH2 0x18CD SWAP6 SWAP5 SWAP4 SWAP3 SWAP2 SWAP1 PUSH2 0x4A58 JUMP JUMPDEST PUSH1 0x20 PUSH1 0x40 MLOAD DUP1 DUP4 SUB DUP2 DUP7 GAS DELEGATECALL ISZERO DUP1 ISZERO PUSH2 0x18EA JUMPI RETURNDATASIZE PUSH1 0x0 DUP1 RETURNDATACOPY RETURNDATASIZE PUSH1 0x0 REVERT JUMPDEST POP POP POP POP PUSH1 0x40 MLOAD RETURNDATASIZE PUSH1 0x1F NOT PUSH1 0x1F DUP3 ADD AND DUP3 ADD DUP1 PUSH1 0x40 MSTORE POP DUP2 ADD SWAP1 PUSH2 0x190E SWAP2 SWAP1 PUSH2 0x46E4 JUMP JUMPDEST SWAP1 POP CALLER PUSH1 0x1 PUSH1 0x1 PUSH1 0xA0 SHL SUB AND DUP2 PUSH32 0x5A8ACBE7E0FA397D934E9AAFB8FB1A483627AF9E9B4690F4488D740B669F8B47 DUP9 DUP9 DUP9 DUP9 PUSH1 0x40 MLOAD PUSH2 0x1950 SWAP5 SWAP4 SWAP3 SWAP2 SWAP1 PUSH2 0x4A8B JUMP JUMPDEST PUSH1 0x40 MLOAD DUP1 SWAP2 SUB SWAP1 LOG3 SWAP6 SWAP5 POP POP POP POP POP JUMP JUMPDEST PUSH1 0x40 MLOAD PUSH4 0x17D6269 PUSH1 0xE0 SHL DUP2 MSTORE PUSH1 0x45 PUSH1 0x4 DUP3 ADD MSTORE PUSH1 0x24 DUP2 ADD DUP3 SWAP1 MSTORE PUSH1 0x0 SWAP1 PUSH20 0x0 SWAP1 PUSH4 0x17D6269 SWAP1 PUSH1 0x44 ADD PUSH2 0xF66 JUMP JUMPDEST PUSH1 0x40 MLOAD PUSH4 0xAF07CFCD PUSH1 0xE0 SHL DUP2 MSTORE PUSH1 0x45 PUSH1 0x4 DUP3 ADD MSTORE PUSH1 0x24 DUP2 ADD DUP3 SWAP1 MSTORE PUSH1 0x0 SWAP1 PUSH20 0x0 SWAP1 PUSH4 0xAF07CFCD SWAP1 PUSH1 0x44 ADD PUSH2 0xF66 JUMP JUMPDEST PUSH1 0x0 ADDRESS PUSH1 0x1 PUSH1 0x1 PUSH1 0xA0 SHL SUB PUSH32 0x0 AND EQ PUSH2 0x1A5F JUMPI PUSH1 0x40 MLOAD PUSH3 0x461BCD PUSH1 0xE5 SHL DUP2 MSTORE PUSH1 0x20 PUSH1 0x4 DUP3 ADD MSTORE PUSH1 0x1D PUSH1 0x24 DUP3 ADD MSTORE PUSH32 0x496C6C6567616C20436F6E74726163742044656C656761746563616C6C000000 PUSH1 0x44 DUP3 ADD MSTORE PUSH1 0x64 ADD PUSH2 0x14CD JUMP JUMPDEST POP PUSH1 0x0 DUP1 MLOAD PUSH1 0x20 PUSH2 0x5283 DUP4 CODECOPY DUP2 MLOAD SWAP2 MSTORE SWAP1 JUMP JUMPDEST PUSH1 0x0 PUSH2 0x1200 PUSH2 0x3353 JUMP JUMPDEST PUSH1 0x1 PUSH1 0x1 PUSH1 0xA0 SHL SUB PUSH32 0x0 AND ADDRESS SUB PUSH2 0x1AC4 JUMPI PUSH1 0x40 MLOAD PUSH3 0x461BCD PUSH1 0xE5 SHL DUP2 MSTORE PUSH1 0x4 ADD PUSH2 0x14CD SWAP1 PUSH2 0x49C4 JUMP JUMPDEST PUSH32 0x0 PUSH1 0x1 PUSH1 0x1 PUSH1 0xA0 SHL SUB AND PUSH2 0x1AF6 PUSH2 0x3353 JUMP JUMPDEST PUSH1 0x1 PUSH1 0x1 PUSH1 0xA0 SHL SUB AND EQ PUSH2 0x1B1C JUMPI PUSH1 0x40 MLOAD PUSH3 0x461BCD PUSH1 0xE5 SHL DUP2 MSTORE PUSH1 0x4 ADD PUSH2 0x14CD SWAP1 PUSH2 0x49F3 JUMP JUMPDEST CALLER PUSH2 0x1B25 PUSH2 0x35F3 JUMP JUMPDEST PUSH1 0x1 PUSH1 0x1 PUSH1 0xA0 SHL SUB AND EQ PUSH2 0x1B73 JUMPI PUSH1 0x40 MLOAD PUSH3 0x461BCD PUSH1 0xE5 SHL DUP2 MSTORE PUSH1 0x20 PUSH1 0x4 DUP3 ADD MSTORE PUSH1 0x15 PUSH1 0x24 DUP3 ADD MSTORE PUSH21 0x10D85B1B195C88139BDD08105D5D1A1BDC9A5E9959 PUSH1 0x5A SHL PUSH1 0x44 DUP3 ADD MSTORE PUSH1 0x64 ADD PUSH2 0x14CD JUMP JUMPDEST PUSH1 0x4A SLOAD PUSH3 0x10000 SWAP1 DIV PUSH1 0xFF AND ISZERO DUP1 DUP1 ISZERO PUSH2 0x1B95 JUMPI POP PUSH1 0x4A SLOAD PUSH1 0x1 PUSH2 0xFFFF SWAP1 SWAP2 AND LT JUMPDEST DUP1 PUSH2 0x1BB0 JUMPI POP ADDRESS EXTCODESIZE ISZERO DUP1 ISZERO PUSH2 0x1BB0 JUMPI POP PUSH1 0x4A SLOAD PUSH2 0xFFFF AND PUSH1 0x1 EQ JUMPDEST PUSH2 0x1BFC JUMPI PUSH1 0x40 MLOAD PUSH3 0x461BCD PUSH1 0xE5 SHL DUP2 MSTORE PUSH1 0x20 PUSH1 0x4 DUP3 ADD MSTORE PUSH1 0x1C PUSH1 0x24 DUP3 ADD MSTORE PUSH32 0x436F6E747261637420416C726561647920496E697469616C697A656400000000 PUSH1 0x44 DUP3 ADD MSTORE PUSH1 0x64 ADD PUSH2 0x14CD JUMP JUMPDEST PUSH1 0x4A DUP1 SLOAD PUSH2 0xFFFF NOT AND PUSH1 0x1 OR SWAP1 SSTORE DUP1 ISZERO PUSH2 0x1C22 JUMPI PUSH1 0x4A DUP1 SLOAD PUSH3 0xFF0000 NOT AND PUSH3 0x10000 OR SWAP1 SSTORE JUMPDEST PUSH1 0x0 DUP5 DUP5 PUSH1 0x40 MLOAD PUSH1 0x20 ADD PUSH2 0x1C37 SWAP3 SWAP2 SWAP1 PUSH2 0x4AB7 JUMP JUMPDEST PUSH1 0x40 DUP1 MLOAD DUP1 DUP4 SUB PUSH1 0x1F NOT ADD DUP2 MSTORE SWAP1 DUP3 SWAP1 MSTORE DUP1 MLOAD PUSH1 0x20 SWAP1 SWAP2 ADD KECCAK256 PUSH4 0x8BAE383 PUSH1 0xE3 SHL DUP3 MSTORE PUSH1 0x45 PUSH1 0x4 DUP4 ADD MSTORE SWAP2 POP PUSH20 0x0 SWAP1 PUSH4 0x45D71C18 SWAP1 PUSH1 0x24 ADD PUSH1 0x0 PUSH1 0x40 MLOAD DUP1 DUP4 SUB DUP2 DUP7 DUP1 EXTCODESIZE ISZERO DUP1 ISZERO PUSH2 0x1C9A JUMPI PUSH1 0x0 DUP1 REVERT JUMPDEST POP GAS DELEGATECALL ISZERO DUP1 ISZERO PUSH2 0x1CAE JUMPI RETURNDATASIZE PUSH1 0x0 DUP1 RETURNDATACOPY RETURNDATASIZE PUSH1 0x0 REVERT JUMPDEST POP POP POP POP PUSH2 0x1CC0 DUP10 DUP10 DUP10 DUP10 DUP6 DUP9 PUSH2 0x361B JUMP JUMPDEST PUSH1 0x0 PUSH20 0x0 PUSH4 0x62F3C2D4 PUSH1 0x40 MLOAD DUP2 PUSH4 0xFFFFFFFF AND PUSH1 0xE0 SHL DUP2 MSTORE PUSH1 0x4 ADD PUSH1 0x0 PUSH1 0x40 MLOAD DUP1 DUP4 SUB DUP2 DUP7 GAS DELEGATECALL ISZERO DUP1 ISZERO PUSH2 0x1D0B JUMPI RETURNDATASIZE PUSH1 0x0 DUP1 RETURNDATACOPY RETURNDATASIZE PUSH1 0x0 REVERT JUMPDEST POP POP POP POP PUSH1 0x40 MLOAD RETURNDATASIZE PUSH1 0x0 DUP3 RETURNDATACOPY PUSH1 0x1F RETURNDATASIZE SWAP1 DUP2 ADD PUSH1 0x1F NOT AND DUP3 ADD PUSH1 0x40 MSTORE PUSH2 0x1D33 SWAP2 SWAP1 DUP2 ADD SWAP1 PUSH2 0x4AC7 JUMP JUMPDEST PUSH1 0x40 MLOAD PUSH4 0x1F5DCCE3 PUSH1 0xE3 SHL DUP2 MSTORE SWAP1 SWAP2 POP PUSH20 0x0 SWAP1 PUSH4 0xFAEE6718 SWAP1 PUSH2 0x1D74 SWAP1 PUSH1 0x45 SWAP1 ADDRESS SWAP1 DUP8 SWAP1 DUP8 SWAP1 PUSH1 0x4 ADD PUSH2 0x4BCA JUMP JUMPDEST PUSH1 0x20 PUSH1 0x40 MLOAD DUP1 DUP4 SUB DUP2 DUP7 GAS DELEGATECALL ISZERO DUP1 ISZERO PUSH2 0x1D91 JUMPI RETURNDATASIZE PUSH1 0x0 DUP1 RETURNDATACOPY RETURNDATASIZE PUSH1 0x0 REVERT JUMPDEST POP POP POP POP PUSH1 0x40 MLOAD RETURNDATASIZE PUSH1 0x1F NOT PUSH1 0x1F DUP3 ADD AND DUP3 ADD DUP1 PUSH1 0x40 MSTORE POP DUP2 ADD SWAP1 PUSH2 0x1DB5 SWAP2 SWAP1 PUSH2 0x46E4 JUMP JUMPDEST POP PUSH2 0x1DBE PUSH2 0x3353 JUMP JUMPDEST PUSH1 0x1 PUSH1 0x1 PUSH1 0xA0 SHL SUB AND ADDRESS CALLER PUSH1 0x1 PUSH1 0x1 PUSH1 0xA0 SHL SUB AND PUSH32 0xF851A1E85477B818FC72AD517EA622CC316F10F67D61C9E740ADC151A8B41394 DUP14 DUP14 DUP14 DUP14 DUP10 PUSH2 0x1E05 PUSH1 0x4A SLOAD PUSH2 0xFFFF AND SWAP1 JUMP JUMPDEST PUSH1 0x40 MLOAD PUSH2 0x1E17 SWAP7 SWAP6 SWAP5 SWAP4 SWAP3 SWAP2 SWAP1 PUSH2 0x4CA2 JUMP JUMPDEST PUSH1 0x40 MLOAD DUP1 SWAP2 SUB SWAP1 LOG4 POP POP DUP1 ISZERO PUSH2 0x1E34 JUMPI PUSH1 0x4A DUP1 SLOAD PUSH3 0xFF0000 NOT AND SWAP1 SSTORE JUMPDEST POP POP POP POP POP POP POP POP JUMP JUMPDEST PUSH1 0x40 MLOAD PUSH32 0x4C4956454C595F53595354454D5F41444D494E5F524F4C450000000000000000 PUSH1 0x20 DUP3 ADD MSTORE PUSH1 0x0 SWAP1 PUSH1 0x38 ADD PUSH2 0xF0D JUMP JUMPDEST PUSH1 0x40 MLOAD PUSH4 0xE8A623F PUSH1 0xE3 SHL DUP2 MSTORE PUSH1 0x45 PUSH1 0x4 DUP3 ADD MSTORE PUSH1 0x24 DUP2 ADD DUP3 SWAP1 MSTORE PUSH1 0x60 SWAP1 PUSH1 0x0 SWAP1 PUSH20 0x0 SWAP1 PUSH4 0x745311F8 SWAP1 PUSH1 0x44 ADD PUSH1 0x0 PUSH1 0x40 MLOAD DUP1 DUP4 SUB DUP2 DUP7 GAS DELEGATECALL ISZERO DUP1 ISZERO PUSH2 0x1ECF JUMPI RETURNDATASIZE PUSH1 0x0 DUP1 RETURNDATACOPY RETURNDATASIZE PUSH1 0x0 REVERT JUMPDEST POP POP POP POP PUSH1 0x40 MLOAD RETURNDATASIZE PUSH1 0x0 DUP3 RETURNDATACOPY PUSH1 0x1F RETURNDATASIZE SWAP1 DUP2 ADD PUSH1 0x1F NOT AND DUP3 ADD PUSH1 0x40 MSTORE PUSH2 0x1EF7 SWAP2 SWAP1 DUP2 ADD SWAP1 PUSH2 0x4CE7 JUMP JUMPDEST SWAP2 POP SWAP2 POP SWAP2 POP SWAP2 JUMP JUMPDEST PUSH1 0x40 MLOAD PUSH4 0x7134BB45 PUSH1 0xE0 SHL DUP2 MSTORE PUSH1 0x45 PUSH1 0x4 DUP3 ADD MSTORE PUSH1 0x24 DUP2 ADD DUP5 SWAP1 MSTORE PUSH1 0x44 DUP2 ADD DUP4 SWAP1 MSTORE PUSH1 0x1 PUSH1 0x1 PUSH1 0xE0 SHL SUB NOT DUP3 AND PUSH1 0x64 DUP3 ADD MSTORE PUSH1 0x0 SWAP1 PUSH20 0x0 SWAP1 PUSH4 0x7134BB45 SWAP1 PUSH1 0x84 ADD JUMPDEST PUSH1 0x20 PUSH1 0x40 MLOAD DUP1 DUP4 SUB DUP2 DUP7 GAS DELEGATECALL ISZERO DUP1 ISZERO PUSH2 0x1F72 JUMPI RETURNDATASIZE PUSH1 0x0 DUP1 RETURNDATACOPY RETURNDATASIZE PUSH1 0x0 REVERT JUMPDEST POP POP POP POP PUSH1 0x40 MLOAD RETURNDATASIZE PUSH1 0x1F NOT PUSH1 0x1F DUP3 ADD AND DUP3 ADD DUP1 PUSH1 0x40 MSTORE POP DUP2 ADD SWAP1 PUSH2 0x1F96 SWAP2 SWAP1 PUSH2 0x4717 JUMP JUMPDEST SWAP5 SWAP4 POP POP POP POP JUMP JUMPDEST PUSH1 0x40 MLOAD PUSH4 0x7CC5941D PUSH1 0xE0 SHL DUP2 MSTORE PUSH1 0x45 PUSH1 0x4 DUP3 ADD MSTORE PUSH1 0x24 DUP2 ADD DUP4 SWAP1 MSTORE DUP2 ISZERO ISZERO PUSH1 0x44 DUP3 ADD MSTORE PUSH1 0x0 SWAP1 DUP2 SWAP1 DUP2 SWAP1 PUSH20 0x0 SWAP1 PUSH4 0x7CC5941D SWAP1 PUSH1 0x64 ADD PUSH1 0x40 DUP1 MLOAD DUP1 DUP4 SUB DUP2 DUP7 GAS DELEGATECALL ISZERO DUP1 ISZERO PUSH2 0x2003 JUMPI RETURNDATASIZE PUSH1 0x0 DUP1 RETURNDATACOPY RETURNDATASIZE PUSH1 0x0 REVERT JUMPDEST POP POP POP POP PUSH1 0x40 MLOAD RETURNDATASIZE PUSH1 0x1F NOT PUSH1 0x1F DUP3 ADD AND DUP3 ADD DUP1 PUSH1 0x40 MSTORE POP DUP2 ADD SWAP1 PUSH2 0x2027 SWAP2 SWAP1 PUSH2 0x4D2D JUMP JUMPDEST SWAP2 POP SWAP2 POP DUP1 PUSH2 0x2033 CALLER SWAP1 JUMP JUMPDEST PUSH1 0x1 PUSH1 0x1 PUSH1 0xA0 SHL SUB AND DUP7 PUSH32 0x354501E3216E5F916D4D35EF255A577D106A7EAB306488227783A837DC042A4E DUP8 PUSH1 0x40 MLOAD PUSH2 0x2070 SWAP2 ISZERO ISZERO DUP2 MSTORE PUSH1 0x20 ADD SWAP1 JUMP JUMPDEST PUSH1 0x40 MLOAD DUP1 SWAP2 SUB SWAP1 LOG4 POP SWAP4 SWAP3 POP POP POP JUMP JUMPDEST PUSH1 0x60 PUSH1 0x1 PUSH1 0x1 PUSH1 0xA0 SHL SUB PUSH32 0x0 AND ADDRESS SUB PUSH2 0x20CA JUMPI PUSH1 0x40 MLOAD PUSH3 0x461BCD PUSH1 0xE5 SHL DUP2 MSTORE PUSH1 0x4 ADD PUSH2 0x14CD SWAP1 PUSH2 0x49C4 JUMP JUMPDEST PUSH32 0x0 PUSH1 0x1 PUSH1 0x1 PUSH1 0xA0 SHL SUB AND PUSH2 0x20FC PUSH2 0x3353 JUMP JUMPDEST PUSH1 0x1 PUSH1 0x1 PUSH1 0xA0 SHL SUB AND EQ PUSH2 0x2122 JUMPI PUSH1 0x40 MLOAD PUSH3 0x461BCD PUSH1 0xE5 SHL DUP2 MSTORE PUSH1 0x4 ADD PUSH2 0x14CD SWAP1 PUSH2 0x49F3 JUMP JUMPDEST PUSH1 0x4 SLOAD PUSH1 0xFF AND ISZERO PUSH2 0x2145 JUMPI PUSH1 0x40 MLOAD PUSH3 0x461BCD PUSH1 0xE5 SHL DUP2 MSTORE PUSH1 0x4 ADD PUSH2 0x14CD SWAP1 PUSH2 0x4A21 JUMP JUMPDEST PUSH1 0x4 SLOAD PUSH2 0x100 SWAP1 DIV PUSH1 0xFF AND PUSH2 0x2194 JUMPI PUSH1 0x40 MLOAD PUSH3 0x461BCD PUSH1 0xE5 SHL DUP2 MSTORE PUSH1 0x20 PUSH1 0x4 DUP3 ADD MSTORE PUSH1 0x15 PUSH1 0x24 DUP3 ADD MSTORE PUSH21 0x155C19DC9859194810D85B1B0814995A9958DD1959 PUSH1 0x5A SHL PUSH1 0x44 DUP3 ADD MSTORE PUSH1 0x64 ADD PUSH2 0x14CD JUMP JUMPDEST PUSH2 0x219D DUP5 PUSH2 0x3631 JUMP JUMPDEST PUSH2 0x1F96 DUP5 DUP5 DUP5 PUSH2 0x36F8 JUMP JUMPDEST PUSH1 0x40 MLOAD PUSH20 0x4C4956454C595F47454E4552414C5F5245414C4D PUSH1 0x60 SHL PUSH1 0x20 DUP3 ADD MSTORE PUSH1 0x0 SWAP1 PUSH1 0x34 ADD PUSH2 0xF0D JUMP JUMPDEST PUSH1 0x4 SLOAD PUSH1 0xFF AND ISZERO PUSH2 0x21F6 JUMPI PUSH1 0x40 MLOAD PUSH3 0x461BCD PUSH1 0xE5 SHL DUP2 MSTORE PUSH1 0x4 ADD PUSH2 0x14CD SWAP1 PUSH2 0x4A21 JUMP JUMPDEST PUSH2 0x2206 PUSH4 0x756AF45F PUSH1 0xE0 SHL PUSH2 0x3374 JUMP JUMPDEST PUSH2 0x2252 JUMPI PUSH1 0x40 MLOAD PUSH3 0x461BCD PUSH1 0xE5 SHL DUP2 MSTORE PUSH1 0x20 PUSH1 0x4 DUP3 ADD MSTORE PUSH1 0x1A PUSH1 0x24 DUP3 ADD MSTORE PUSH32 0x57697468647261772042616C616E636520466F7262696464656E000000000000 PUSH1 0x44 DUP3 ADD MSTORE PUSH1 0x64 ADD PUSH2 0x14CD JUMP JUMPDEST PUSH1 0x40 MLOAD PUSH1 0x1 PUSH1 0x1 PUSH1 0xA0 SHL SUB DUP3 AND SWAP1 SELFBALANCE DUP1 ISZERO PUSH2 0x8FC MUL SWAP2 PUSH1 0x0 DUP2 DUP2 DUP2 DUP6 DUP9 DUP9 CALL SWAP4 POP POP POP POP ISZERO DUP1 ISZERO PUSH2 0x2287 JUMPI RETURNDATASIZE PUSH1 0x0 DUP1 RETURNDATACOPY RETURNDATASIZE PUSH1 0x0 REVERT JUMPDEST POP POP JUMP JUMPDEST PUSH1 0x0 DUP1 PUSH20 0x0 PUSH4 0x453DD6DC PUSH1 0x45 DUP8 DUP8 DUP8 PUSH1 0x40 MLOAD DUP6 PUSH4 0xFFFFFFFF AND PUSH1 0xE0 SHL DUP2 MSTORE PUSH1 0x4 ADD PUSH2 0x22CC SWAP5 SWAP4 SWAP3 SWAP2 SWAP1 PUSH2 0x46BF JUMP JUMPDEST PUSH1 0x20 PUSH1 0x40 MLOAD DUP1 DUP4 SUB DUP2 DUP7 GAS DELEGATECALL ISZERO DUP1 ISZERO PUSH2 0x22E9 JUMPI RETURNDATASIZE PUSH1 0x0 DUP1 RETURNDATACOPY RETURNDATASIZE PUSH1 0x0 REVERT JUMPDEST POP POP POP POP PUSH1 0x40 MLOAD RETURNDATASIZE PUSH1 0x1F NOT PUSH1 0x1F DUP3 ADD AND DUP3 ADD DUP1 PUSH1 0x40 MSTORE POP DUP2 ADD SWAP1 PUSH2 0x230D SWAP2 SWAP1 PUSH2 0x46E4 JUMP JUMPDEST SWAP1 POP CALLER PUSH1 0x1 PUSH1 0x1 PUSH1 0xA0 SHL SUB AND DUP4 DUP7 PUSH32 0xEA00FF399A342F54B82233841F91FAA5677300E901667E010E9F22AEA1AE5931 DUP8 DUP6 PUSH1 0x40 MLOAD PUSH2 0xED4 SWAP3 SWAP2 SWAP1 PUSH2 0x46FD JUMP JUMPDEST PUSH1 0x0 PUSH2 0x1200 ADDRESS PUSH2 0x3949 JUMP JUMPDEST PUSH1 0x0 CALLER PUSH1 0x1 PUSH1 0x1 PUSH1 0xA0 SHL SUB AND DUP4 PUSH32 0xFE1617B569BD167AB40B31E034F68E32656219DBE4AB9469A00660550FEC72C8 DUP5 PUSH1 0x40 MLOAD PUSH2 0x2397 SWAP2 ISZERO ISZERO DUP2 MSTORE PUSH1 0x20 ADD SWAP1 JUMP JUMPDEST PUSH1 0x40 MLOAD DUP1 SWAP2 SUB SWAP1 LOG3 PUSH1 0x40 MLOAD PUSH4 0x549F02D PUSH1 0xE0 SHL DUP2 MSTORE PUSH1 0x45 PUSH1 0x4 DUP3 ADD MSTORE PUSH1 0x24 DUP2 ADD DUP5 SWAP1 MSTORE DUP3 ISZERO ISZERO PUSH1 0x44 DUP3 ADD MSTORE PUSH20 0x0 SWAP1 PUSH4 0x549F02D SWAP1 PUSH1 0x64 ADD PUSH2 0xFE6 JUMP JUMPDEST PUSH1 0x40 MLOAD PUSH4 0x10F07501 PUSH1 0xE0 SHL DUP2 MSTORE PUSH1 0x45 PUSH1 0x4 DUP3 ADD MSTORE PUSH1 0x24 DUP2 ADD DUP3 SWAP1 MSTORE PUSH1 0x0 SWAP1 PUSH20 0x0 SWAP1 PUSH4 0x10F07501 SWAP1 PUSH1 0x44 ADD PUSH2 0xF66 JUMP JUMPDEST PUSH1 0x40 MLOAD PUSH1 0x0 SWAP1 CALLER SWAP1 PUSH1 0x1 PUSH1 0x1 PUSH1 0xA0 SHL SUB DUP5 AND SWAP1 DUP6 SWAP1 PUSH32 0xAA9FCAB08D536AFD9C656FD3199C346689F381E05539DDA255166829EF51DBAC SWAP1 DUP6 SWAP1 LOG4 PUSH1 0x40 MLOAD PUSH4 0x89D4DA65 PUSH1 0xE0 SHL DUP2 MSTORE PUSH1 0x45 PUSH1 0x4 DUP3 ADD MSTORE PUSH1 0x24 DUP2 ADD DUP5 SWAP1 MSTORE PUSH1 0x1 PUSH1 0x1 PUSH1 0xA0 SHL SUB DUP4 AND PUSH1 0x44 DUP3 ADD MSTORE PUSH20 0x0 SWAP1 PUSH4 0x89D4DA65 SWAP1 PUSH1 0x64 ADD PUSH2 0xFE6 JUMP JUMPDEST PUSH1 0x40 MLOAD PUSH4 0x327C4965 PUSH1 0xE1 SHL DUP2 MSTORE PUSH1 0x45 PUSH1 0x4 DUP3 ADD MSTORE PUSH1 0x24 DUP2 ADD DUP3 SWAP1 MSTORE PUSH1 0x0 SWAP1 PUSH20 0x0 SWAP1 PUSH4 0x64F892CA SWAP1 PUSH1 0x44 ADD PUSH2 0xF66 JUMP JUMPDEST PUSH1 0x40 DUP1 MLOAD PUSH1 0xC0 DUP2 ADD DUP3 MSTORE PUSH1 0x0 DUP1 DUP3 MSTORE PUSH1 0x20 DUP3 ADD DUP2 SWAP1 MSTORE DUP2 DUP4 ADD DUP2 SWAP1 MSTORE PUSH1 0x60 DUP3 ADD DUP2 SWAP1 MSTORE PUSH1 0x80 DUP3 ADD DUP2 SWAP1 MSTORE PUSH1 0xA0 DUP3 ADD MSTORE SWAP1 MLOAD PUSH4 0x399D749F PUSH1 0xE1 SHL DUP2 MSTORE PUSH1 0x45 PUSH1 0x4 DUP3 ADD MSTORE PUSH1 0x24 DUP2 ADD DUP4 SWAP1 MSTORE PUSH20 0x0 SWAP1 PUSH4 0x733AE93E SWAP1 PUSH1 0x44 ADD PUSH1 0xC0 PUSH1 0x40 MLOAD DUP1 DUP4 SUB DUP2 DUP7 GAS DELEGATECALL ISZERO DUP1 ISZERO PUSH2 0x2577 JUMPI RETURNDATASIZE PUSH1 0x0 DUP1 RETURNDATACOPY RETURNDATASIZE PUSH1 0x0 REVERT JUMPDEST POP POP POP POP PUSH1 0x40 MLOAD RETURNDATASIZE PUSH1 0x1F NOT PUSH1 0x1F DUP3 ADD AND DUP3 ADD DUP1 PUSH1 0x40 MSTORE POP DUP2 ADD SWAP1 PUSH2 0xE0D SWAP2 SWAP1 PUSH2 0x4D5B JUMP JUMPDEST PUSH1 0x0 DUP1 PUSH20 0x0 PUSH4 0x3859EB7F PUSH1 0x45 DUP9 DUP9 DUP9 DUP9 PUSH1 0x40 MLOAD DUP7 PUSH4 0xFFFFFFFF AND PUSH1 0xE0 SHL DUP2 MSTORE PUSH1 0x4 ADD PUSH2 0x25DE SWAP6 SWAP5 SWAP4 SWAP3 SWAP2 SWAP1 PUSH2 0x4DEC JUMP JUMPDEST PUSH1 0x20 PUSH1 0x40 MLOAD DUP1 DUP4 SUB DUP2 DUP7 GAS DELEGATECALL ISZERO DUP1 ISZERO PUSH2 0x25FB JUMPI RETURNDATASIZE PUSH1 0x0 DUP1 RETURNDATACOPY RETURNDATASIZE PUSH1 0x0 REVERT JUMPDEST POP POP POP POP PUSH1 0x40 MLOAD RETURNDATASIZE PUSH1 0x1F NOT PUSH1 0x1F DUP3 ADD AND DUP3 ADD DUP1 PUSH1 0x40 MSTORE POP DUP2 ADD SWAP1 PUSH2 0x261F SWAP2 SWAP1 PUSH2 0x46E4 JUMP JUMPDEST SWAP1 POP CALLER PUSH1 0x1 PUSH1 0x1 PUSH1 0xA0 SHL SUB AND DUP7 DUP7 PUSH1 0x40 MLOAD PUSH2 0x263B SWAP3 SWAP2 SWAP1 PUSH2 0x4AB7 JUMP JUMPDEST PUSH1 0x40 DUP1 MLOAD SWAP2 DUP3 SWAP1 SUB DUP3 KECCAK256 DUP8 DUP4 MSTORE DUP7 ISZERO ISZERO PUSH1 0x20 DUP5 ADD MSTORE SWAP2 DUP5 SWAP2 PUSH32 0xD9AD0E23C83BFA99FDE34354C8342D95C76B51674447EC04AAD729D5F38B9B8D SWAP2 ADD PUSH1 0x40 MLOAD DUP1 SWAP2 SUB SWAP1 LOG4 SWAP6 SWAP5 POP POP POP POP POP JUMP JUMPDEST PUSH1 0x40 MLOAD PUSH4 0x37B3CDD7 PUSH1 0xE2 SHL DUP2 MSTORE PUSH1 0x0 SWAP1 PUSH20 0x0 SWAP1 PUSH4 0xDECF375C SWAP1 PUSH2 0xFE6 SWAP1 PUSH1 0x45 SWAP1 DUP8 SWAP1 DUP8 SWAP1 PUSH1 0x4 ADD PUSH2 0x4734 JUMP JUMPDEST PUSH1 0x0 DUP1 PUSH20 0x0 PUSH4 0xB0C25575 PUSH1 0x45 DUP7 DUP7 PUSH1 0x40 MLOAD DUP5 PUSH4 0xFFFFFFFF AND PUSH1 0xE0 SHL DUP2 MSTORE PUSH1 0x4 ADD PUSH2 0x2705 SWAP4 SWAP3 SWAP2 SWAP1 PUSH2 0x4734 JUMP JUMPDEST PUSH1 0x20 PUSH1 0x40 MLOAD DUP1 DUP4 SUB DUP2 DUP7 GAS DELEGATECALL ISZERO DUP1 ISZERO PUSH2 0x2722 JUMPI RETURNDATASIZE PUSH1 0x0 DUP1 RETURNDATACOPY RETURNDATASIZE PUSH1 0x0 REVERT JUMPDEST POP POP POP POP PUSH1 0x40 MLOAD RETURNDATASIZE PUSH1 0x1F NOT PUSH1 0x1F DUP3 ADD AND DUP3 ADD DUP1 PUSH1 0x40 MSTORE POP DUP2 ADD SWAP1 PUSH2 0x2746 SWAP2 SWAP1 PUSH2 0x46E4 JUMP JUMPDEST SWAP1 POP CALLER PUSH1 0x1 PUSH1 0x1 PUSH1 0xA0 SHL SUB AND DUP5 PUSH32 0xA6234DFEA6DA9D63D0505BA9B61AC8405DFD897089208859CDA18011C4847D69 DUP6 DUP5 PUSH1 0x40 MLOAD PUSH2 0x2784 SWAP3 SWAP2 SWAP1 PUSH2 0x46FD JUMP JUMPDEST PUSH1 0x40 MLOAD DUP1 SWAP2 SUB SWAP1 LOG3 POP PUSH1 0x1 SWAP4 SWAP3 POP POP POP JUMP JUMPDEST PUSH1 0x0 CALLER PUSH1 0x1 PUSH1 0x1 PUSH1 0xA0 SHL SUB AND DUP4 PUSH32 0xE595D6B009CBFD06BFDFC4B7C06799F0E0B08FB2C6F5FA6E28A9AAC2495440F9 DUP5 PUSH1 0x40 MLOAD PUSH2 0x27D6 SWAP2 ISZERO ISZERO DUP2 MSTORE PUSH1 0x20 ADD SWAP1 JUMP JUMPDEST PUSH1 0x40 MLOAD DUP1 SWAP2 SUB SWAP1 LOG3 PUSH1 0x40 MLOAD PUSH4 0x7C95BCDF PUSH1 0xE0 SHL DUP2 MSTORE PUSH1 0x45 PUSH1 0x4 DUP3 ADD MSTORE PUSH1 0x24 DUP2 ADD DUP5 SWAP1 MSTORE DUP3 ISZERO ISZERO PUSH1 0x44 DUP3 ADD MSTORE PUSH20 0x0 SWAP1 PUSH4 0x7C95BCDF SWAP1 PUSH1 0x64 ADD PUSH2 0xFE6 JUMP JUMPDEST PUSH1 0x40 MLOAD PUSH4 0x1F9471EF PUSH1 0xE0 SHL DUP2 MSTORE PUSH1 0x45 PUSH1 0x4 DUP3 ADD MSTORE PUSH1 0x24 DUP2 ADD DUP3 SWAP1 MSTORE PUSH1 0x60 SWAP1 PUSH1 0x0 SWAP1 DUP2 SWAP1 PUSH20 0x0 SWAP1 PUSH4 0x1F9471EF SWAP1 PUSH1 0x44 ADD PUSH1 0x0 PUSH1 0x40 MLOAD DUP1 DUP4 SUB DUP2 DUP7 GAS DELEGATECALL ISZERO DUP1 ISZERO PUSH2 0x2884 JUMPI RETURNDATASIZE PUSH1 0x0 DUP1 RETURNDATACOPY RETURNDATASIZE PUSH1 0x0 REVERT JUMPDEST POP POP POP POP PUSH1 0x40 MLOAD RETURNDATASIZE PUSH1 0x0 DUP3 RETURNDATACOPY PUSH1 0x1F RETURNDATASIZE SWAP1 DUP2 ADD PUSH1 0x1F NOT AND DUP3 ADD PUSH1 0x40 MSTORE PUSH2 0x128C SWAP2 SWAP1 DUP2 ADD SWAP1 PUSH2 0x4E1F JUMP JUMPDEST PUSH1 0x40 MLOAD PUSH4 0x3BCD353D PUSH1 0xE1 SHL DUP2 MSTORE PUSH1 0x45 PUSH1 0x4 DUP3 ADD MSTORE PUSH1 0x24 DUP2 ADD DUP3 SWAP1 MSTORE PUSH1 0x0 SWAP1 PUSH20 0x0 SWAP1 PUSH4 0x779A6A7A SWAP1 PUSH1 0x44 ADD PUSH2 0xF66 JUMP JUMPDEST PUSH1 0x40 MLOAD PUSH4 0x243E34B PUSH1 0xE5 SHL DUP2 MSTORE PUSH1 0x45 PUSH1 0x4 DUP3 ADD MSTORE PUSH1 0x24 DUP2 ADD DUP5 SWAP1 MSTORE PUSH1 0x1 PUSH1 0x1 PUSH1 0xA0 SHL SUB DUP4 AND PUSH1 0x44 DUP3 ADD MSTORE PUSH1 0x1 PUSH1 0x1 PUSH1 0xE0 SHL SUB NOT DUP3 AND PUSH1 0x64 DUP3 ADD MSTORE PUSH1 0x0 SWAP1 PUSH20 0x0 SWAP1 PUSH4 0x487C6960 SWAP1 PUSH1 0x84 ADD PUSH2 0x1F55 JUMP JUMPDEST PUSH1 0x40 MLOAD PUSH4 0x938AE71 PUSH1 0xE0 SHL DUP2 MSTORE PUSH1 0x45 PUSH1 0x4 DUP3 ADD MSTORE PUSH1 0x24 DUP2 ADD DUP4 SWAP1 MSTORE PUSH1 0x1 PUSH1 0x1 PUSH1 0xA0 SHL SUB DUP3 AND PUSH1 0x44 DUP3 ADD MSTORE PUSH1 0x0 SWAP1 PUSH20 0x0 SWAP1 PUSH4 0x938AE71 SWAP1 PUSH1 0x64 ADD PUSH2 0xFE6 JUMP JUMPDEST PUSH1 0x40 MLOAD PUSH4 0x1F00AF7B PUSH1 0xE1 SHL DUP2 MSTORE PUSH1 0x45 PUSH1 0x4 DUP3 ADD MSTORE PUSH1 0x24 DUP2 ADD DUP4 SWAP1 MSTORE PUSH1 0x44 DUP2 ADD DUP3 SWAP1 MSTORE PUSH1 0x0 SWAP1 DUP2 SWAP1 DUP2 SWAP1 PUSH20 0x0 SWAP1 PUSH4 0x3E015EF6 SWAP1 PUSH1 0x64 ADD PUSH1 0x40 DUP1 MLOAD DUP1 DUP4 SUB DUP2 DUP7 GAS DELEGATECALL ISZERO DUP1 ISZERO PUSH2 0x2A04 JUMPI RETURNDATASIZE PUSH1 0x0 DUP1 RETURNDATACOPY RETURNDATASIZE PUSH1 0x0 REVERT JUMPDEST POP POP POP POP PUSH1 0x40 MLOAD RETURNDATASIZE PUSH1 0x1F NOT PUSH1 0x1F DUP3 ADD AND DUP3 ADD DUP1 PUSH1 0x40 MSTORE POP DUP2 ADD SWAP1 PUSH2 0x2A28 SWAP2 SWAP1 PUSH2 0x4D2D JUMP JUMPDEST SWAP2 POP SWAP2 POP DUP4 PUSH2 0x2A34 CALLER SWAP1 JUMP JUMPDEST PUSH1 0x1 PUSH1 0x1 PUSH1 0xA0 SHL SUB AND DUP7 PUSH32 0xA0EAA0025D4F12545803A03C369115C59F885DF7B5FC07A6393438827DBF51B7 DUP5 PUSH1 0x40 MLOAD PUSH2 0x2070 SWAP2 DUP2 MSTORE PUSH1 0x20 ADD SWAP1 JUMP JUMPDEST PUSH1 0x40 MLOAD PUSH4 0x1E7ABEE3 PUSH1 0xE2 SHL DUP2 MSTORE PUSH1 0x45 PUSH1 0x4 DUP3 ADD MSTORE PUSH1 0x24 DUP2 ADD DUP4 SWAP1 MSTORE PUSH1 0x44 DUP2 ADD DUP3 SWAP1 MSTORE PUSH1 0x0 SWAP1 PUSH20 0x0 SWAP1 PUSH4 0x79EAFB8C SWAP1 PUSH1 0x64 ADD PUSH2 0xFE6 JUMP JUMPDEST PUSH1 0x0 PUSH1 0x1 PUSH1 0x1 PUSH1 0xA0 SHL SUB PUSH32 0x0 AND ADDRESS SUB PUSH2 0x2B02 JUMPI PUSH1 0x40 MLOAD PUSH3 0x461BCD PUSH1 0xE5 SHL DUP2 MSTORE PUSH1 0x4 ADD PUSH2 0x14CD SWAP1 PUSH2 0x49C4 JUMP JUMPDEST PUSH32 0x0 PUSH1 0x1 PUSH1 0x1 PUSH1 0xA0 SHL SUB AND PUSH2 0x2B34 PUSH2 0x3353 JUMP JUMPDEST PUSH1 0x1 PUSH1 0x1 PUSH1 0xA0 SHL SUB AND EQ PUSH2 0x2B5A JUMPI PUSH1 0x40 MLOAD PUSH3 0x461BCD PUSH1 0xE5 SHL DUP2 MSTORE PUSH1 0x4 ADD PUSH2 0x14CD SWAP1 PUSH2 0x49F3 JUMP JUMPDEST PUSH1 0x4 SLOAD PUSH1 0xFF AND ISZERO PUSH2 0x2B7D JUMPI PUSH1 0x40 MLOAD PUSH3 0x461BCD PUSH1 0xE5 SHL DUP2 MSTORE PUSH1 0x4 ADD PUSH2 0x14CD SWAP1 PUSH2 0x4A21 JUMP JUMPDEST PUSH2 0x2B8D PUSH4 0xD9DC1F19 PUSH1 0xE0 SHL PUSH2 0x3374 JUMP JUMPDEST PUSH2 0x2BD9 JUMPI PUSH1 0x40 MLOAD PUSH3 0x461BCD PUSH1 0xE5 SHL DUP2 MSTORE PUSH1 0x20 PUSH1 0x4 DUP3 ADD MSTORE PUSH1 0x17 PUSH1 0x24 DUP3 ADD MSTORE PUSH32 0x5365744C6F63616C41646D696E20466F7262696464656E000000000000000000 PUSH1 0x44 DUP3 ADD MSTORE PUSH1 0x64 ADD PUSH2 0x14CD JUMP JUMPDEST PUSH1 0x1 PUSH1 0x1 PUSH1 0xA0 SHL SUB DUP3 AND PUSH2 0x2C21 JUMPI PUSH1 0x40 MLOAD PUSH3 0x461BCD PUSH1 0xE5 SHL DUP2 MSTORE PUSH1 0x20 PUSH1 0x4 DUP3 ADD MSTORE PUSH1 0xF PUSH1 0x24 DUP3 ADD MSTORE PUSH15 0x1059191C995CDCC8125B9D985B1A59 PUSH1 0x8A SHL PUSH1 0x44 DUP3 ADD MSTORE PUSH1 0x64 ADD PUSH2 0x14CD JUMP JUMPDEST PUSH2 0x2C2A DUP3 PUSH2 0x3988 JUMP JUMPDEST POP PUSH1 0x1 SWAP2 SWAP1 POP JUMP JUMPDEST PUSH1 0x40 MLOAD PUSH4 0xC3203FD1 PUSH1 0xE0 SHL DUP2 MSTORE PUSH1 0x45 PUSH1 0x4 DUP3 ADD MSTORE PUSH1 0x24 DUP2 ADD DUP4 SWAP1 MSTORE PUSH1 0x44 DUP2 ADD DUP3 SWAP1 MSTORE PUSH1 0x0 SWAP1 DUP2 SWAP1 DUP2 SWAP1 PUSH20 0x0 SWAP1 PUSH4 0xC3203FD1 SWAP1 PUSH1 0x64 ADD PUSH1 0x40 DUP1 MLOAD DUP1 DUP4 SUB DUP2 DUP7 GAS DELEGATECALL ISZERO DUP1 ISZERO PUSH2 0x2C96 JUMPI RETURNDATASIZE PUSH1 0x0 DUP1 RETURNDATACOPY RETURNDATASIZE PUSH1 0x0 REVERT JUMPDEST POP POP POP POP PUSH1 0x40 MLOAD RETURNDATASIZE PUSH1 0x1F NOT PUSH1 0x1F DUP3 ADD AND DUP3 ADD DUP1 PUSH1 0x40 MSTORE POP DUP2 ADD SWAP1 PUSH2 0x2CBA SWAP2 SWAP1 PUSH2 0x4D2D JUMP JUMPDEST SWAP2 POP SWAP2 POP DUP4 PUSH2 0x2CC6 CALLER SWAP1 JUMP JUMPDEST PUSH1 0x1 PUSH1 0x1 PUSH1 0xA0 SHL SUB AND DUP7 PUSH32 0xDDCF3B21FA89076821D7D3F19DB39EE5E93F479458E803D78B50B7F24488914F DUP5 PUSH1 0x40 MLOAD PUSH2 0x2070 SWAP2 DUP2 MSTORE PUSH1 0x20 ADD SWAP1 JUMP JUMPDEST PUSH1 0x40 MLOAD PUSH4 0xD95140EB PUSH1 0xE0 SHL DUP2 MSTORE PUSH1 0x45 PUSH1 0x4 DUP3 ADD MSTORE PUSH1 0x24 DUP2 ADD DUP3 SWAP1 MSTORE PUSH1 0x0 SWAP1 PUSH20 0x0 SWAP1 PUSH4 0xD95140EB SWAP1 PUSH1 0x44 ADD PUSH2 0xF66 JUMP JUMPDEST PUSH1 0x40 MLOAD PUSH1 0x0 SWAP1 CALLER SWAP1 PUSH1 0x1 PUSH1 0x1 PUSH1 0xA0 SHL SUB DUP5 AND SWAP1 DUP6 SWAP1 PUSH32 0xF2640085D94BFEC49CDCAF11B663E639B0D981DCEDEB19377D92E1AD3592AD23 SWAP1 DUP6 SWAP1 LOG4 PUSH1 0x40 MLOAD PUSH4 0x3D580577 PUSH1 0xE0 SHL DUP2 MSTORE PUSH1 0x45 PUSH1 0x4 DUP3 ADD MSTORE PUSH1 0x24 DUP2 ADD DUP5 SWAP1 MSTORE PUSH1 0x1 PUSH1 0x1 PUSH1 0xA0 SHL SUB DUP4 AND PUSH1 0x44 DUP3 ADD MSTORE PUSH20 0x0 SWAP1 PUSH4 0x3D580577 SWAP1 PUSH1 0x64 ADD PUSH2 0xFE6 JUMP JUMPDEST PUSH1 0x40 MLOAD PUSH4 0x3E5C6E97 PUSH1 0xE1 SHL DUP2 MSTORE PUSH1 0x45 PUSH1 0x4 DUP3 ADD MSTORE PUSH1 0x24 DUP2 ADD DUP3 SWAP1 MSTORE PUSH1 0x60 SWAP1 PUSH20 0x0 SWAP1 PUSH4 0x7CB8DD2E SWAP1 PUSH1 0x44 ADD PUSH1 0x0 PUSH1 0x40 MLOAD DUP1 DUP4 SUB DUP2 DUP7 GAS DELEGATECALL ISZERO DUP1 ISZERO PUSH2 0x2E25 JUMPI RETURNDATASIZE PUSH1 0x0 DUP1 RETURNDATACOPY RETURNDATASIZE PUSH1 0x0 REVERT JUMPDEST POP POP POP POP PUSH1 0x40 MLOAD RETURNDATASIZE PUSH1 0x0 DUP3 RETURNDATACOPY PUSH1 0x1F RETURNDATASIZE SWAP1 DUP2 ADD PUSH1 0x1F NOT AND DUP3 ADD PUSH1 0x40 MSTORE PUSH2 0xE0D SWAP2 SWAP1 DUP2 ADD SWAP1 PUSH2 0x4E6E JUMP JUMPDEST PUSH1 0x40 MLOAD PUSH4 0x33064C89 PUSH1 0xE1 SHL DUP2 MSTORE PUSH1 0x45 PUSH1 0x4 DUP3 ADD MSTORE PUSH1 0x24 DUP2 ADD DUP3 SWAP1 MSTORE PUSH1 0x0 SWAP1 PUSH20 0x0 SWAP1 PUSH4 0x660C9912 SWAP1 PUSH1 0x44 ADD PUSH2 0xF66 JUMP JUMPDEST PUSH1 0x0 DUP1 PUSH1 0x0 PUSH20 0x0 PUSH4 0x99A0C2E PUSH1 0x45 DUP11 DUP11 DUP11 DUP11 DUP11 PUSH1 0x40 MLOAD DUP8 PUSH4 0xFFFFFFFF AND PUSH1 0xE0 SHL DUP2 MSTORE PUSH1 0x4 ADD PUSH2 0x2ED6 SWAP7 SWAP6 SWAP5 SWAP4 SWAP3 SWAP2 SWAP1 PUSH2 0x4FFC JUMP JUMPDEST PUSH1 0x40 DUP1 MLOAD DUP1 DUP4 SUB DUP2 DUP7 GAS DELEGATECALL ISZERO DUP1 ISZERO PUSH2 0x2EF2 JUMPI RETURNDATASIZE PUSH1 0x0 DUP1 RETURNDATACOPY RETURNDATASIZE PUSH1 0x0 REVERT JUMPDEST POP POP POP POP PUSH1 0x40 MLOAD RETURNDATASIZE PUSH1 0x1F NOT PUSH1 0x1F DUP3 ADD AND DUP3 ADD DUP1 PUSH1 0x40 MSTORE POP DUP2 ADD SWAP1 PUSH2 0x2F16 SWAP2 SWAP1 PUSH2 0x50C5 JUMP JUMPDEST SWAP2 POP SWAP2 POP DUP1 PUSH1 0x1 PUSH1 0x1 PUSH1 0xA0 SHL SUB AND DUP3 PUSH1 0x1 PUSH1 0x1 PUSH1 0xA0 SHL SUB AND DUP10 PUSH32 0x2ACEC3419C1D10DAB06D0715F556E96B344F2092A52A23FB192B4B89F5B7CF42 DUP10 PUSH1 0x40 ADD CALLDATALOAD PUSH1 0x40 MLOAD PUSH2 0x2F64 SWAP2 DUP2 MSTORE PUSH1 0x20 ADD SWAP1 JUMP JUMPDEST PUSH1 0x40 MLOAD DUP1 SWAP2 SUB SWAP1 LOG4 POP SWAP7 SWAP6 POP POP POP POP POP POP JUMP JUMPDEST PUSH1 0x40 MLOAD PUSH4 0x3D2003D3 PUSH1 0xE2 SHL DUP2 MSTORE PUSH1 0x45 PUSH1 0x4 DUP3 ADD MSTORE PUSH1 0x24 DUP2 ADD DUP4 SWAP1 MSTORE DUP2 ISZERO ISZERO PUSH1 0x44 DUP3 ADD MSTORE PUSH1 0x0 SWAP1 DUP2 SWAP1 DUP2 SWAP1 PUSH20 0x0 SWAP1 PUSH4 0xF4800F4C SWAP1 PUSH1 0x64 ADD PUSH1 0x40 DUP1 MLOAD DUP1 DUP4 SUB DUP2 DUP7 GAS DELEGATECALL ISZERO DUP1 ISZERO PUSH2 0x2FDC JUMPI RETURNDATASIZE PUSH1 0x0 DUP1 RETURNDATACOPY RETURNDATASIZE PUSH1 0x0 REVERT JUMPDEST POP POP POP POP PUSH1 0x40 MLOAD RETURNDATASIZE PUSH1 0x1F NOT PUSH1 0x1F DUP3 ADD AND DUP3 ADD DUP1 PUSH1 0x40 MSTORE POP DUP2 ADD SWAP1 PUSH2 0x3000 SWAP2 SWAP1 PUSH2 0x4D2D JUMP JUMPDEST SWAP2 POP SWAP2 POP DUP1 PUSH2 0x300C CALLER SWAP1 JUMP JUMPDEST PUSH1 0x1 PUSH1 0x1 PUSH1 0xA0 SHL SUB AND DUP7 PUSH32 0x10D5D50AE3B7F264859100E29F6FACF8A66F27A34A0EA13C7D333D1BB4CAB305 DUP8 PUSH1 0x40 MLOAD PUSH2 0x2070 SWAP2 ISZERO ISZERO DUP2 MSTORE PUSH1 0x20 ADD SWAP1 JUMP JUMPDEST PUSH1 0x40 MLOAD PUSH4 0x9F73981 PUSH1 0xE1 SHL DUP2 MSTORE PUSH1 0x45 PUSH1 0x4 DUP3 ADD MSTORE PUSH1 0x24 DUP2 ADD DUP3 SWAP1 MSTORE PUSH1 0x60 SWAP1 PUSH20 0x0 SWAP1 PUSH4 0x13EE7302 SWAP1 PUSH1 0x44 ADD PUSH2 0x11AC JUMP JUMPDEST PUSH1 0x0 DUP1 PUSH1 0x0 PUSH20 0x0 PUSH4 0x15922EFE PUSH1 0x45 DUP10 DUP10 DUP10 DUP10 PUSH1 0x40 MLOAD DUP7 PUSH4 0xFFFFFFFF AND PUSH1 0xE0 SHL DUP2 MSTORE PUSH1 0x4 ADD PUSH2 0x30D0 SWAP6 SWAP5 SWAP4 SWAP3 SWAP2 SWAP1 PUSH2 0x50F4 JUMP JUMPDEST PUSH1 0x40 DUP1 MLOAD DUP1 DUP4 SUB DUP2 DUP7 GAS DELEGATECALL ISZERO DUP1 ISZERO PUSH2 0x30EC JUMPI RETURNDATASIZE PUSH1 0x0 DUP1 RETURNDATACOPY RETURNDATASIZE PUSH1 0x0 REVERT JUMPDEST POP POP POP POP PUSH1 0x40 MLOAD RETURNDATASIZE PUSH1 0x1F NOT PUSH1 0x1F DUP3 ADD AND DUP3 ADD DUP1 PUSH1 0x40 MSTORE POP DUP2 ADD SWAP1 PUSH2 0x3110 SWAP2 SWAP1 PUSH2 0x51B8 JUMP JUMPDEST SWAP1 SWAP3 POP SWAP1 POP PUSH1 0x1 PUSH1 0x1 PUSH1 0xA0 SHL SUB DUP2 AND PUSH2 0x312F PUSH1 0x80 DUP9 ADD PUSH1 0x60 DUP10 ADD PUSH2 0x440D JUMP JUMPDEST PUSH1 0x1 PUSH1 0x1 PUSH1 0xA0 SHL SUB AND DUP4 PUSH32 0x11CF8F3561FAE187C57DF59424ECF5D3F444E138924944C77DCB68144C635731 DUP10 PUSH1 0x40 ADD CALLDATALOAD PUSH1 0x40 MLOAD PUSH2 0x316E SWAP2 DUP2 MSTORE PUSH1 0x20 ADD SWAP1 JUMP JUMPDEST PUSH1 0x40 MLOAD DUP1 SWAP2 SUB SWAP1 LOG4 POP SWAP6 SWAP5 POP POP POP POP POP JUMP JUMPDEST PUSH1 0x0 CALLER PUSH1 0x1 PUSH1 0x1 PUSH1 0xA0 SHL SUB AND DUP4 PUSH32 0x552CE1FC1BC82A48CDC0636FF7162480D868C590F2E57C63C30A944F3A82EC36 DUP5 PUSH1 0x40 MLOAD PUSH2 0x31C0 SWAP2 ISZERO ISZERO DUP2 MSTORE PUSH1 0x20 ADD SWAP1 JUMP JUMPDEST PUSH1 0x40 MLOAD DUP1 SWAP2 SUB SWAP1 LOG3 PUSH1 0x40 MLOAD PUSH4 0x15B18C75 PUSH1 0xE1 SHL DUP2 MSTORE PUSH1 0x45 PUSH1 0x4 DUP3 ADD MSTORE PUSH1 0x24 DUP2 ADD DUP5 SWAP1 MSTORE DUP3 ISZERO ISZERO PUSH1 0x44 DUP3 ADD MSTORE PUSH20 0x0 SWAP1 PUSH4 0x2B6318EA SWAP1 PUSH1 0x64 ADD PUSH2 0xFE6 JUMP JUMPDEST PUSH1 0x40 MLOAD PUSH4 0x4BA84563 PUSH1 0xE0 SHL DUP2 MSTORE PUSH1 0x45 PUSH1 0x4 DUP3 ADD MSTORE PUSH1 0x24 DUP2 ADD DUP4 SWAP1 MSTORE PUSH1 0x44 DUP2 ADD DUP3 SWAP1 MSTORE PUSH1 0x0 SWAP1 PUSH20 0x0 SWAP1 PUSH4 0x4BA84563 SWAP1 PUSH1 0x64 ADD PUSH2 0xFE6 JUMP JUMPDEST PUSH1 0x0 PUSH2 0x1200 PUSH2 0x39FF JUMP JUMPDEST PUSH1 0x40 MLOAD PUSH4 0x470E4565 PUSH1 0xE0 SHL DUP2 MSTORE PUSH1 0x45 PUSH1 0x4 DUP3 ADD MSTORE PUSH1 0x1 PUSH1 0x1 PUSH1 0xA0 SHL SUB DUP3 AND PUSH1 0x24 DUP3 ADD MSTORE PUSH1 0x0 SWAP1 PUSH20 0x0 SWAP1 PUSH4 0x470E4565 SWAP1 PUSH1 0x44 ADD PUSH2 0xF66 JUMP JUMPDEST PUSH1 0x40 MLOAD PUSH4 0xFBE97E19 PUSH1 0xE0 SHL DUP2 MSTORE PUSH1 0x45 PUSH1 0x4 DUP3 ADD MSTORE PUSH1 0x1 PUSH1 0x1 PUSH1 0xA0 SHL SUB DUP3 AND PUSH1 0x24 DUP3 ADD MSTORE PUSH1 0x0 SWAP1 PUSH20 0x0 SWAP1 PUSH4 0xFBE97E19 SWAP1 PUSH1 0x44 ADD PUSH2 0xF66 JUMP JUMPDEST PUSH1 0x0 PUSH2 0x1200 PUSH2 0x35F3 JUMP JUMPDEST SWAP1 JUMP JUMPDEST PUSH1 0x0 PUSH1 0x1 PUSH1 0x1 PUSH1 0xE0 SHL SUB NOT DUP3 AND PUSH4 0x748BE053 PUSH1 0xE0 SHL EQ DUP1 PUSH2 0x3334 JUMPI POP PUSH1 0x1 PUSH1 0x1 PUSH1 0xE0 SHL SUB NOT DUP3 AND PUSH4 0x52D1902D PUSH1 0xE0 SHL EQ JUMPDEST DUP1 PUSH2 0xE0D JUMPI POP PUSH4 0x1FFC9A7 PUSH1 0xE0 SHL PUSH1 0x1 PUSH1 0x1 PUSH1 0xE0 SHL SUB NOT DUP4 AND EQ PUSH2 0xE0D JUMP JUMPDEST PUSH1 0x0 PUSH1 0x0 DUP1 MLOAD PUSH1 0x20 PUSH2 0x5283 DUP4 CODECOPY DUP2 MLOAD SWAP2 MSTORE JUMPDEST SLOAD PUSH1 0x1 PUSH1 0x1 PUSH1 0xA0 SHL SUB AND SWAP2 SWAP1 POP JUMP JUMPDEST PUSH1 0x0 DUP1 SLOAD PUSH1 0x1 PUSH1 0x1 PUSH1 0xA0 SHL SUB AND ADDRESS SUB PUSH2 0x3460 JUMPI PUSH1 0x0 PUSH4 0x63D59CF3 PUSH1 0xE1 SHL PUSH2 0x339A ADDRESS PUSH2 0x3949 JUMP JUMPDEST CALLER DUP6 PUSH1 0x40 MLOAD PUSH1 0x24 ADD PUSH2 0x33AE SWAP4 SWAP3 SWAP2 SWAP1 PUSH2 0x51DD JUMP JUMPDEST PUSH1 0x40 DUP1 MLOAD PUSH1 0x1F NOT DUP2 DUP5 SUB ADD DUP2 MSTORE SWAP2 SWAP1 MSTORE PUSH1 0x20 DUP2 ADD DUP1 MLOAD PUSH1 0x1 PUSH1 0x1 PUSH1 0xE0 SHL SUB AND PUSH1 0x1 PUSH1 0x1 PUSH1 0xE0 SHL SUB NOT SWAP1 SWAP4 AND SWAP3 SWAP1 SWAP3 OR SWAP1 SWAP2 MSTORE SWAP1 POP PUSH1 0x0 PUSH2 0x342B PUSH2 0x33EF PUSH2 0x3353 JUMP JUMPDEST DUP4 PUSH1 0x40 MLOAD DUP1 PUSH1 0x40 ADD PUSH1 0x40 MSTORE DUP1 PUSH1 0x1D DUP2 MSTORE PUSH1 0x20 ADD PUSH32 0x44656C656761746563616C6C20686173416363657373204661696C6564000000 DUP2 MSTORE POP PUSH2 0x3A52 JUMP JUMPDEST SWAP1 POP DUP1 PUSH1 0x1 DUP3 MLOAD PUSH2 0x343C SWAP2 SWAP1 PUSH2 0x5206 JUMP JUMPDEST DUP2 MLOAD DUP2 LT PUSH2 0x344C JUMPI PUSH2 0x344C PUSH2 0x522B JUMP JUMPDEST PUSH1 0x20 SWAP2 ADD ADD MLOAD PUSH1 0xF8 SHR PUSH1 0x1 EQ SWAP5 SWAP4 POP POP POP POP JUMP JUMPDEST PUSH1 0x0 SLOAD PUSH1 0x1 PUSH1 0x1 PUSH1 0xA0 SHL SUB AND PUSH4 0xC7AB39E6 PUSH2 0x347A ADDRESS PUSH2 0x3949 JUMP JUMPDEST CALLER DUP6 PUSH1 0x40 MLOAD DUP5 PUSH4 0xFFFFFFFF AND PUSH1 0xE0 SHL DUP2 MSTORE PUSH1 0x4 ADD PUSH2 0x349A SWAP4 SWAP3 SWAP2 SWAP1 PUSH2 0x51DD JUMP JUMPDEST PUSH1 0x20 PUSH1 0x40 MLOAD DUP1 DUP4 SUB DUP2 DUP7 GAS STATICCALL ISZERO DUP1 ISZERO PUSH2 0xF83 JUMPI RETURNDATASIZE PUSH1 0x0 DUP1 RETURNDATACOPY RETURNDATASIZE PUSH1 0x0 REVERT JUMPDEST PUSH1 0x0 DUP1 SLOAD PUSH1 0x1 PUSH1 0x1 PUSH1 0xA0 SHL SUB AND ADDRESS SUB PUSH2 0x357D JUMPI PUSH1 0x0 PUSH4 0xE25D75F0 PUSH1 0xE0 SHL PUSH1 0x3 SLOAD PUSH1 0x40 MLOAD PUSH1 0x24 ADD PUSH2 0x34E9 SWAP2 DUP2 MSTORE PUSH1 0x20 ADD SWAP1 JUMP JUMPDEST PUSH1 0x40 DUP1 MLOAD PUSH1 0x1F NOT DUP2 DUP5 SUB ADD DUP2 MSTORE SWAP2 SWAP1 MSTORE PUSH1 0x20 DUP2 ADD DUP1 MLOAD PUSH1 0x1 PUSH1 0x1 PUSH1 0xE0 SHL SUB AND PUSH1 0x1 PUSH1 0x1 PUSH1 0xE0 SHL SUB NOT SWAP1 SWAP4 AND SWAP3 SWAP1 SWAP3 OR SWAP1 SWAP2 MSTORE SWAP1 POP PUSH1 0x0 PUSH2 0x3549 PUSH2 0x352A PUSH2 0x3353 JUMP JUMPDEST DUP4 PUSH1 0x40 MLOAD DUP1 PUSH1 0x60 ADD PUSH1 0x40 MSTORE DUP1 PUSH1 0x25 DUP2 MSTORE PUSH1 0x20 ADD PUSH2 0x525E PUSH1 0x25 SWAP2 CODECOPY PUSH2 0x3A52 JUMP JUMPDEST SWAP1 POP DUP1 PUSH1 0x1 DUP3 MLOAD PUSH2 0x355A SWAP2 SWAP1 PUSH2 0x5206 JUMP JUMPDEST DUP2 MLOAD DUP2 LT PUSH2 0x356A JUMPI PUSH2 0x356A PUSH2 0x522B JUMP JUMPDEST PUSH1 0x20 SWAP2 ADD ADD MLOAD PUSH1 0xF8 SHR PUSH1 0x1 EQ SWAP4 SWAP3 POP POP POP JUMP JUMPDEST PUSH1 0x0 SLOAD PUSH1 0x3 SLOAD PUSH1 0x40 MLOAD PUSH4 0xE25D75F PUSH1 0xE4 SHL DUP2 MSTORE PUSH1 0x1 PUSH1 0x1 PUSH1 0xA0 SHL SUB SWAP1 SWAP3 AND SWAP2 PUSH4 0xE25D75F0 SWAP2 PUSH2 0x35B2 SWAP2 PUSH1 0x4 ADD SWAP1 DUP2 MSTORE PUSH1 0x20 ADD SWAP1 JUMP JUMPDEST PUSH1 0x20 PUSH1 0x40 MLOAD DUP1 DUP4 SUB DUP2 DUP7 GAS STATICCALL ISZERO DUP1 ISZERO PUSH2 0x35CF JUMPI RETURNDATASIZE PUSH1 0x0 DUP1 RETURNDATACOPY RETURNDATASIZE PUSH1 0x0 REVERT JUMPDEST POP POP POP POP PUSH1 0x40 MLOAD RETURNDATASIZE PUSH1 0x1F NOT PUSH1 0x1F DUP3 ADD AND DUP3 ADD DUP1 PUSH1 0x40 MSTORE POP DUP2 ADD SWAP1 PUSH2 0x1200 SWAP2 SWAP1 PUSH2 0x4717 JUMP JUMPDEST PUSH1 0x0 PUSH32 0xB53127684A568B3173AE13B9F8A6016E243E63B6E8EE1178D6A717850B5D6103 PUSH2 0x3365 JUMP JUMPDEST PUSH2 0x3629 DUP7 DUP7 DUP7 DUP7 DUP7 DUP7 PUSH2 0x3B1B JUMP JUMPDEST POP POP POP POP POP POP JUMP JUMPDEST PUSH2 0x3639 PUSH2 0x3353 JUMP JUMPDEST PUSH1 0x1 PUSH1 0x1 PUSH1 0xA0 SHL SUB AND DUP2 PUSH1 0x1 PUSH1 0x1 PUSH1 0xA0 SHL SUB AND SUB PUSH2 0x3699 JUMPI PUSH1 0x40 MLOAD PUSH3 0x461BCD PUSH1 0xE5 SHL DUP2 MSTORE PUSH1 0x20 PUSH1 0x4 DUP3 ADD MSTORE PUSH1 0x1A PUSH1 0x24 DUP3 ADD MSTORE PUSH32 0x496C6C6567616C204E657720496D706C656D656E746174696F6E000000000000 PUSH1 0x44 DUP3 ADD MSTORE PUSH1 0x64 ADD PUSH2 0x14CD JUMP JUMPDEST PUSH2 0x36A9 PUSH4 0x7147855D PUSH1 0xE0 SHL PUSH2 0x3374 JUMP JUMPDEST PUSH2 0x36F5 JUMPI PUSH1 0x40 MLOAD PUSH3 0x461BCD PUSH1 0xE5 SHL DUP2 MSTORE PUSH1 0x20 PUSH1 0x4 DUP3 ADD MSTORE PUSH1 0x19 PUSH1 0x24 DUP3 ADD MSTORE PUSH32 0x5570677261646520436F6E7465787420466F7262696464656E00000000000000 PUSH1 0x44 DUP3 ADD MSTORE PUSH1 0x64 ADD PUSH2 0x14CD JUMP JUMPDEST POP JUMP JUMPDEST PUSH1 0x60 PUSH32 0x4910FDFA16FED3260ED0E7147F7CC6DA11A60208B5B9406D12A635614FFD9143 SLOAD PUSH1 0xFF AND ISZERO PUSH2 0x3742 JUMPI PUSH2 0x372D DUP5 PUSH2 0x3D26 JUMP JUMPDEST POP PUSH1 0x40 DUP1 MLOAD PUSH1 0x0 DUP2 MSTORE PUSH1 0x20 DUP2 ADD SWAP1 SWAP2 MSTORE PUSH2 0xEE2 JUMP JUMPDEST DUP4 PUSH1 0x1 PUSH1 0x1 PUSH1 0xA0 SHL SUB AND PUSH4 0x52D1902D PUSH1 0x40 MLOAD DUP2 PUSH4 0xFFFFFFFF AND PUSH1 0xE0 SHL DUP2 MSTORE PUSH1 0x4 ADD PUSH1 0x20 PUSH1 0x40 MLOAD DUP1 DUP4 SUB DUP2 DUP7 GAS STATICCALL SWAP3 POP POP POP DUP1 ISZERO PUSH2 0x379C JUMPI POP PUSH1 0x40 DUP1 MLOAD PUSH1 0x1F RETURNDATASIZE SWAP1 DUP2 ADD PUSH1 0x1F NOT AND DUP3 ADD SWAP1 SWAP3 MSTORE PUSH2 0x3799 SWAP2 DUP2 ADD SWAP1 PUSH2 0x46E4 JUMP JUMPDEST PUSH1 0x1 JUMPDEST PUSH2 0x37E0 JUMPI PUSH1 0x40 MLOAD PUSH3 0x461BCD PUSH1 0xE5 SHL DUP2 MSTORE PUSH1 0x20 PUSH1 0x4 DUP3 ADD MSTORE PUSH1 0x15 PUSH1 0x24 DUP3 ADD MSTORE PUSH21 0x125B1B1959D85B0815555414C810DBDB9D1C9858DD PUSH1 0x5A SHL PUSH1 0x44 DUP3 ADD MSTORE PUSH1 0x64 ADD PUSH2 0x14CD JUMP JUMPDEST PUSH1 0x0 DUP1 MLOAD PUSH1 0x20 PUSH2 0x5283 DUP4 CODECOPY DUP2 MLOAD SWAP2 MSTORE DUP2 EQ PUSH2 0x3835 JUMPI PUSH1 0x40 MLOAD PUSH3 0x461BCD PUSH1 0xE5 SHL DUP2 MSTORE PUSH1 0x20 PUSH1 0x4 DUP3 ADD MSTORE PUSH1 0x15 PUSH1 0x24 DUP3 ADD MSTORE PUSH21 0x125B9D985B1A590815555414C810DBDB9D1C9858DD PUSH1 0x5A SHL PUSH1 0x44 DUP3 ADD MSTORE PUSH1 0x64 ADD PUSH2 0x14CD JUMP JUMPDEST POP PUSH1 0x40 MLOAD PUSH4 0x1FFC9A7 PUSH1 0xE0 SHL DUP2 MSTORE PUSH4 0x748BE053 PUSH1 0xE0 SHL PUSH1 0x4 DUP3 ADD MSTORE PUSH1 0x1 PUSH1 0x1 PUSH1 0xA0 SHL SUB DUP6 AND SWAP1 PUSH4 0x1FFC9A7 SWAP1 PUSH1 0x24 ADD PUSH1 0x20 PUSH1 0x40 MLOAD DUP1 DUP4 SUB DUP2 DUP7 GAS STATICCALL SWAP3 POP POP POP DUP1 ISZERO PUSH2 0x389D JUMPI POP PUSH1 0x40 DUP1 MLOAD PUSH1 0x1F RETURNDATASIZE SWAP1 DUP2 ADD PUSH1 0x1F NOT AND DUP3 ADD SWAP1 SWAP3 MSTORE PUSH2 0x389A SWAP2 DUP2 ADD SWAP1 PUSH2 0x4717 JUMP JUMPDEST PUSH1 0x1 JUMPDEST PUSH2 0x38E9 JUMPI PUSH1 0x40 MLOAD PUSH3 0x461BCD PUSH1 0xE5 SHL DUP2 MSTORE PUSH1 0x20 PUSH1 0x4 DUP3 ADD MSTORE PUSH1 0x17 PUSH1 0x24 DUP3 ADD MSTORE PUSH32 0x496C6C6567616C204950726F787920436F6E7472616374000000000000000000 PUSH1 0x44 DUP3 ADD MSTORE PUSH1 0x64 ADD PUSH2 0x14CD JUMP JUMPDEST DUP1 PUSH2 0x3936 JUMPI PUSH1 0x40 MLOAD PUSH3 0x461BCD PUSH1 0xE5 SHL DUP2 MSTORE PUSH1 0x20 PUSH1 0x4 DUP3 ADD MSTORE PUSH1 0x17 PUSH1 0x24 DUP3 ADD MSTORE PUSH32 0x496E76616C6964204950726F787920436F6E7472616374000000000000000000 PUSH1 0x44 DUP3 ADD MSTORE PUSH1 0x64 ADD PUSH2 0x14CD JUMP JUMPDEST POP PUSH2 0x3942 DUP5 DUP5 DUP5 PUSH2 0x3DA7 JUMP JUMPDEST SWAP1 POP PUSH2 0xEE2 JUMP JUMPDEST PUSH1 0x40 MLOAD PUSH12 0xFFFFFFFFFFFFFFFFFFFFFFFF NOT PUSH1 0x60 DUP4 SWAP1 SHL AND PUSH1 0x20 DUP3 ADD MSTORE PUSH1 0x0 SWAP1 PUSH1 0x34 ADD PUSH1 0x40 MLOAD PUSH1 0x20 DUP2 DUP4 SUB SUB DUP2 MSTORE SWAP1 PUSH1 0x40 MSTORE DUP1 MLOAD SWAP1 PUSH1 0x20 ADD KECCAK256 SWAP1 POP SWAP2 SWAP1 POP JUMP JUMPDEST PUSH32 0xB53127684A568B3173AE13B9F8A6016E243E63B6E8EE1178D6A717850B5D6103 DUP1 SLOAD PUSH1 0x1 PUSH1 0x1 PUSH1 0xA0 SHL SUB DUP4 AND PUSH1 0x1 PUSH1 0x1 PUSH1 0xA0 SHL SUB NOT SWAP1 SWAP2 AND DUP2 OR SWAP1 SWAP2 SSTORE PUSH1 0x40 DUP1 MLOAD SWAP2 DUP3 MSTORE MLOAD ADDRESS SWAP2 CALLER SWAP2 PUSH32 0x54AB0D18DE7958786BA1AD85966D59BAA2B395455F0530DCDCFD732E6AF539E2 SWAP2 DUP2 SWAP1 SUB PUSH1 0x20 ADD SWAP1 LOG3 POP JUMP JUMPDEST PUSH1 0x1 SLOAD PUSH1 0x2 SLOAD PUSH1 0x40 DUP1 MLOAD PUSH32 0x8B73C3C69BB8FE3D512ECC4CF759CC79239F7B179B0FFACAA9A75D522B39400F PUSH1 0x20 DUP3 ADD MSTORE SWAP1 DUP2 ADD SWAP3 SWAP1 SWAP3 MSTORE PUSH1 0x60 DUP3 ADD MSTORE CHAINID PUSH1 0x80 DUP3 ADD MSTORE ADDRESS PUSH1 0xA0 DUP3 ADD MSTORE PUSH1 0x0 SWAP1 PUSH1 0xC0 ADD PUSH2 0xF0D JUMP JUMPDEST PUSH1 0x60 PUSH1 0x1 PUSH1 0x1 PUSH1 0xA0 SHL SUB DUP5 AND EXTCODESIZE PUSH2 0x3AA6 JUMPI PUSH1 0x40 MLOAD PUSH3 0x461BCD PUSH1 0xE5 SHL DUP2 MSTORE PUSH1 0x20 PUSH1 0x4 DUP3 ADD MSTORE PUSH1 0x18 PUSH1 0x24 DUP3 ADD MSTORE PUSH24 0x496C6C6567616C20436F6E74726163742041646472657373 PUSH1 0x40 SHL PUSH1 0x44 DUP3 ADD MSTORE PUSH1 0x64 ADD PUSH2 0x14CD JUMP JUMPDEST PUSH1 0x0 DUP1 DUP6 PUSH1 0x1 PUSH1 0x1 PUSH1 0xA0 SHL SUB AND DUP6 PUSH1 0x40 MLOAD PUSH2 0x3AC1 SWAP2 SWAP1 PUSH2 0x5241 JUMP JUMPDEST PUSH1 0x0 PUSH1 0x40 MLOAD DUP1 DUP4 SUB DUP2 DUP6 GAS DELEGATECALL SWAP2 POP POP RETURNDATASIZE DUP1 PUSH1 0x0 DUP2 EQ PUSH2 0x3AFC JUMPI PUSH1 0x40 MLOAD SWAP2 POP PUSH1 0x1F NOT PUSH1 0x3F RETURNDATASIZE ADD AND DUP3 ADD PUSH1 0x40 MSTORE RETURNDATASIZE DUP3 MSTORE RETURNDATASIZE PUSH1 0x0 PUSH1 0x20 DUP5 ADD RETURNDATACOPY PUSH2 0x3B01 JUMP JUMPDEST PUSH1 0x60 SWAP2 POP JUMPDEST POP SWAP2 POP SWAP2 POP PUSH2 0x3B11 DUP3 DUP3 DUP7 PUSH2 0x3E11 JUMP JUMPDEST SWAP7 SWAP6 POP POP POP POP POP POP JUMP JUMPDEST PUSH1 0x4A SLOAD PUSH3 0x10000 SWAP1 DIV PUSH1 0xFF AND PUSH2 0x3B73 JUMPI PUSH1 0x40 MLOAD PUSH3 0x461BCD PUSH1 0xE5 SHL DUP2 MSTORE PUSH1 0x20 PUSH1 0x4 DUP3 ADD MSTORE PUSH1 0x19 PUSH1 0x24 DUP3 ADD MSTORE PUSH32 0x436F6E7472616374204E6F7420496E697469616C697A696E6700000000000000 PUSH1 0x44 DUP3 ADD MSTORE PUSH1 0x64 ADD PUSH2 0x14CD JUMP JUMPDEST DUP6 DUP6 PUSH1 0x40 MLOAD PUSH1 0x20 ADD PUSH2 0x3B86 SWAP3 SWAP2 SWAP1 PUSH2 0x4AB7 JUMP JUMPDEST PUSH1 0x40 DUP1 MLOAD PUSH1 0x1F NOT DUP2 DUP5 SUB ADD DUP2 MSTORE SWAP1 DUP3 SWAP1 MSTORE DUP1 MLOAD PUSH1 0x20 SWAP2 DUP3 ADD KECCAK256 PUSH1 0x1 SSTORE PUSH2 0x3BB0 SWAP2 DUP7 SWAP2 DUP7 SWAP2 ADD PUSH2 0x4AB7 JUMP JUMPDEST PUSH1 0x40 DUP1 MLOAD PUSH1 0x1F NOT DUP2 DUP5 SUB ADD DUP2 MSTORE SWAP2 SWAP1 MSTORE DUP1 MLOAD PUSH1 0x20 SWAP1 SWAP2 ADD KECCAK256 PUSH1 0x2 SSTORE PUSH1 0x3 DUP3 SWAP1 SSTORE PUSH1 0x1 PUSH1 0x1 PUSH1 0xA0 SHL SUB DUP2 AND PUSH2 0x3BF5 JUMPI PUSH1 0x0 DUP1 SLOAD PUSH1 0x1 PUSH1 0x1 PUSH1 0xA0 SHL SUB NOT AND ADDRESS OR SWAP1 SSTORE PUSH2 0x3D12 JUMP JUMPDEST PUSH1 0x40 MLOAD PUSH4 0x1FFC9A7 PUSH1 0xE0 SHL DUP2 MSTORE PUSH4 0x1B44BAD3 PUSH1 0xE3 SHL PUSH1 0x4 DUP3 ADD MSTORE PUSH1 0x1 PUSH1 0x1 PUSH1 0xA0 SHL SUB DUP3 AND SWAP1 PUSH4 0x1FFC9A7 SWAP1 PUSH1 0x24 ADD PUSH1 0x20 PUSH1 0x40 MLOAD DUP1 DUP4 SUB DUP2 DUP7 GAS STATICCALL SWAP3 POP POP POP DUP1 ISZERO PUSH2 0x3C5C JUMPI POP PUSH1 0x40 DUP1 MLOAD PUSH1 0x1F RETURNDATASIZE SWAP1 DUP2 ADD PUSH1 0x1F NOT AND DUP3 ADD SWAP1 SWAP3 MSTORE PUSH2 0x3C59 SWAP2 DUP2 ADD SWAP1 PUSH2 0x4717 JUMP JUMPDEST PUSH1 0x1 JUMPDEST PUSH2 0x3CA8 JUMPI PUSH1 0x40 MLOAD PUSH3 0x461BCD PUSH1 0xE5 SHL DUP2 MSTORE PUSH1 0x20 PUSH1 0x4 DUP3 ADD MSTORE PUSH1 0x1C PUSH1 0x24 DUP3 ADD MSTORE PUSH32 0x496C6C6567616C20416363657373436F6E74726F6C4D616E6167657200000000 PUSH1 0x44 DUP3 ADD MSTORE PUSH1 0x64 ADD PUSH2 0x14CD JUMP JUMPDEST DUP1 PUSH2 0x3CF5 JUMPI PUSH1 0x40 MLOAD PUSH3 0x461BCD PUSH1 0xE5 SHL DUP2 MSTORE PUSH1 0x20 PUSH1 0x4 DUP3 ADD MSTORE PUSH1 0x1C PUSH1 0x24 DUP3 ADD MSTORE PUSH32 0x496E76616C696420416363657373436F6E74726F6C4D616E6167657200000000 PUSH1 0x44 DUP3 ADD MSTORE PUSH1 0x64 ADD PUSH2 0x14CD JUMP JUMPDEST POP PUSH1 0x0 DUP1 SLOAD PUSH1 0x1 PUSH1 0x1 PUSH1 0xA0 SHL SUB NOT AND PUSH1 0x1 PUSH1 0x1 PUSH1 0xA0 SHL SUB DUP4 AND OR SWAP1 SSTORE JUMPDEST PUSH1 0x4 DUP1 SLOAD PUSH2 0xFFFF NOT AND SWAP1 SSTORE PUSH2 0x3629 CALLER PUSH2 0x3988 JUMP JUMPDEST PUSH1 0x1 PUSH1 0x1 PUSH1 0xA0 SHL SUB DUP2 AND EXTCODESIZE PUSH2 0x3D78 JUMPI PUSH1 0x40 MLOAD PUSH3 0x461BCD PUSH1 0xE5 SHL DUP2 MSTORE PUSH1 0x20 PUSH1 0x4 DUP3 ADD MSTORE PUSH1 0x18 PUSH1 0x24 DUP3 ADD MSTORE PUSH24 0x496C6C6567616C20436F6E74726163742041646472657373 PUSH1 0x40 SHL PUSH1 0x44 DUP3 ADD MSTORE PUSH1 0x64 ADD PUSH2 0x14CD JUMP JUMPDEST PUSH1 0x0 DUP1 MLOAD PUSH1 0x20 PUSH2 0x5283 DUP4 CODECOPY DUP2 MLOAD SWAP2 MSTORE DUP1 SLOAD PUSH1 0x1 PUSH1 0x1 PUSH1 0xA0 SHL SUB NOT AND PUSH1 0x1 PUSH1 0x1 PUSH1 0xA0 SHL SUB SWAP3 SWAP1 SWAP3 AND SWAP2 SWAP1 SWAP2 OR SWAP1 SSTORE JUMP JUMPDEST PUSH1 0x60 PUSH2 0x3DB2 DUP5 PUSH2 0x3E4A JUMP JUMPDEST PUSH1 0x0 DUP4 MLOAD GT DUP1 PUSH2 0x3DBF JUMPI POP DUP2 JUMPDEST ISZERO PUSH2 0x3DFA JUMPI PUSH2 0x3942 DUP5 DUP5 PUSH1 0x40 MLOAD DUP1 PUSH1 0x40 ADD PUSH1 0x40 MSTORE DUP1 PUSH1 0x13 DUP2 MSTORE PUSH1 0x20 ADD PUSH19 0x11195B1959D85D1958D85B1B0811985A5B1959 PUSH1 0x6A SHL DUP2 MSTORE POP PUSH2 0x3A52 JUMP JUMPDEST POP POP PUSH1 0x40 DUP1 MLOAD PUSH1 0x0 DUP2 MSTORE PUSH1 0x20 DUP2 ADD SWAP1 SWAP2 MSTORE SWAP3 SWAP2 POP POP JUMP JUMPDEST PUSH1 0x60 DUP4 ISZERO PUSH2 0x3E20 JUMPI POP DUP2 PUSH2 0xEE2 JUMP JUMPDEST DUP3 MLOAD ISZERO PUSH2 0x3E30 JUMPI DUP3 MLOAD DUP1 DUP5 PUSH1 0x20 ADD REVERT JUMPDEST DUP2 PUSH1 0x40 MLOAD PUSH3 0x461BCD PUSH1 0xE5 SHL DUP2 MSTORE PUSH1 0x4 ADD PUSH2 0x14CD SWAP2 SWAP1 PUSH2 0x43FA JUMP JUMPDEST PUSH2 0x3E53 DUP2 PUSH2 0x3D26 JUMP JUMPDEST PUSH1 0x40 MLOAD PUSH1 0x1 PUSH1 0x1 PUSH1 0xA0 SHL SUB DUP3 AND SWAP1 ADDRESS SWAP1 CALLER SWAP1 PUSH32 0x354BD4B6EB65D64E6C79C53FA4F983A5E6BEC4824CE4627C71BE0B2722F4917E SWAP1 PUSH1 0x0 SWAP1 LOG4 POP JUMP JUMPDEST PUSH1 0x1 PUSH1 0x1 PUSH1 0xE0 SHL SUB NOT DUP2 AND DUP2 EQ PUSH2 0x36F5 JUMPI PUSH1 0x0 DUP1 REVERT JUMPDEST PUSH1 0x0 PUSH1 0x20 DUP3 DUP5 SUB SLT ISZERO PUSH2 0x3EB6 JUMPI PUSH1 0x0 DUP1 REVERT JUMPDEST DUP2 CALLDATALOAD PUSH2 0xEE2 DUP2 PUSH2 0x3E8E JUMP JUMPDEST PUSH1 0x0 DUP1 PUSH1 0x0 PUSH1 0x60 DUP5 DUP7 SUB SLT ISZERO PUSH2 0x3ED6 JUMPI PUSH1 0x0 DUP1 REVERT JUMPDEST DUP4 CALLDATALOAD SWAP3 POP PUSH1 0x20 DUP5 ADD CALLDATALOAD PUSH2 0x3EE8 DUP2 PUSH2 0x3E8E JUMP JUMPDEST SWAP3 SWAP6 SWAP3 SWAP5 POP POP POP PUSH1 0x40 SWAP2 SWAP1 SWAP2 ADD CALLDATALOAD SWAP1 JUMP JUMPDEST PUSH1 0x0 PUSH1 0x20 DUP3 DUP5 SUB SLT ISZERO PUSH2 0x3F0B JUMPI PUSH1 0x0 DUP1 REVERT JUMPDEST POP CALLDATALOAD SWAP2 SWAP1 POP JUMP JUMPDEST PUSH1 0x0 DUP1 PUSH1 0x40 DUP4 DUP6 SUB SLT ISZERO PUSH2 0x3F25 JUMPI PUSH1 0x0 DUP1 REVERT JUMPDEST DUP3 CALLDATALOAD SWAP2 POP PUSH1 0x20 DUP4 ADD CALLDATALOAD PUSH2 0x3F37 DUP2 PUSH2 0x3E8E JUMP JUMPDEST DUP1 SWAP2 POP POP SWAP3 POP SWAP3 SWAP1 POP JUMP JUMPDEST PUSH1 0x20 DUP1 DUP3 MSTORE DUP3 MLOAD DUP3 DUP3 ADD DUP2 SWAP1 MSTORE PUSH1 0x0 SWAP2 SWAP1 DUP5 DUP3 ADD SWAP1 PUSH1 0x40 DUP6 ADD SWAP1 DUP5 JUMPDEST DUP2 DUP2 LT ISZERO PUSH2 0x3F84 JUMPI DUP4 MLOAD PUSH1 0x1 PUSH1 0x1 PUSH1 0xE0 SHL SUB NOT AND DUP4 MSTORE SWAP3 DUP5 ADD SWAP3 SWAP2 DUP5 ADD SWAP2 PUSH1 0x1 ADD PUSH2 0x3F5E JUMP JUMPDEST POP SWAP1 SWAP7 SWAP6 POP POP POP POP POP POP JUMP JUMPDEST PUSH1 0x20 DUP1 DUP3 MSTORE DUP3 MLOAD DUP3 DUP3 ADD DUP2 SWAP1 MSTORE PUSH1 0x0 SWAP2 SWAP1 DUP5 DUP3 ADD SWAP1 PUSH1 0x40 DUP6 ADD SWAP1 DUP5 JUMPDEST DUP2 DUP2 LT ISZERO PUSH2 0x3F84 JUMPI DUP4 MLOAD DUP4 MSTORE SWAP3 DUP5 ADD SWAP3 SWAP2 DUP5 ADD SWAP2 PUSH1 0x1 ADD PUSH2 0x3FAC JUMP JUMPDEST PUSH1 0x0 JUMPDEST DUP4 DUP2 LT ISZERO PUSH2 0x3FE3 JUMPI DUP2 DUP2 ADD MLOAD DUP4 DUP3 ADD MSTORE PUSH1 0x20 ADD PUSH2 0x3FCB JUMP JUMPDEST DUP4 DUP2 GT ISZERO PUSH2 0x3FF2 JUMPI PUSH1 0x0 DUP5 DUP5 ADD MSTORE JUMPDEST POP POP POP POP JUMP JUMPDEST PUSH1 0x0 DUP2 MLOAD DUP1 DUP5 MSTORE PUSH2 0x4010 DUP2 PUSH1 0x20 DUP7 ADD PUSH1 0x20 DUP7 ADD PUSH2 0x3FC8 JUMP JUMPDEST PUSH1 0x1F ADD PUSH1 0x1F NOT AND SWAP3 SWAP1 SWAP3 ADD PUSH1 0x20 ADD SWAP3 SWAP2 POP POP JUMP JUMPDEST PUSH1 0x60 DUP2 MSTORE PUSH1 0x0 PUSH2 0x4037 PUSH1 0x60 DUP4 ADD DUP7 PUSH2 0x3FF8 JUMP JUMPDEST SWAP4 ISZERO ISZERO PUSH1 0x20 DUP4 ADD MSTORE POP SWAP1 ISZERO ISZERO PUSH1 0x40 SWAP1 SWAP2 ADD MSTORE SWAP2 SWAP1 POP JUMP JUMPDEST PUSH1 0x0 DUP1 DUP4 PUSH1 0x1F DUP5 ADD SLT PUSH2 0x4060 JUMPI PUSH1 0x0 DUP1 REVERT JUMPDEST POP DUP2 CALLDATALOAD PUSH1 0x1 PUSH1 0x1 PUSH1 0x40 SHL SUB DUP2 GT ISZERO PUSH2 0x4077 JUMPI PUSH1 0x0 DUP1 REVERT JUMPDEST PUSH1 0x20 DUP4 ADD SWAP2 POP DUP4 PUSH1 0x20 DUP3 DUP6 ADD ADD GT ISZERO PUSH2 0x408F JUMPI PUSH1 0x0 DUP1 REVERT JUMPDEST SWAP3 POP SWAP3 SWAP1 POP JUMP JUMPDEST DUP1 ISZERO ISZERO DUP2 EQ PUSH2 0x36F5 JUMPI PUSH1 0x0 DUP1 REVERT JUMPDEST PUSH1 0x0 DUP1 PUSH1 0x0 PUSH1 0x40 DUP5 DUP7 SUB SLT ISZERO PUSH2 0x40B9 JUMPI PUSH1 0x0 DUP1 REVERT JUMPDEST DUP4 CALLDATALOAD PUSH1 0x1 PUSH1 0x1 PUSH1 0x40 SHL SUB DUP2 GT ISZERO PUSH2 0x40CF JUMPI PUSH1 0x0 DUP1 REVERT JUMPDEST PUSH2 0x40DB DUP7 DUP3 DUP8 ADD PUSH2 0x404E JUMP JUMPDEST SWAP1 SWAP5 POP SWAP3 POP POP PUSH1 0x20 DUP5 ADD CALLDATALOAD PUSH2 0x40EF DUP2 PUSH2 0x4096 JUMP JUMPDEST DUP1 SWAP2 POP POP SWAP3 POP SWAP3 POP SWAP3 JUMP JUMPDEST PUSH1 0x0 PUSH1 0x20 DUP3 DUP5 SUB SLT ISZERO PUSH2 0x410C JUMPI PUSH1 0x0 DUP1 REVERT JUMPDEST DUP2 CALLDATALOAD PUSH2 0xEE2 DUP2 PUSH2 0x4096 JUMP JUMPDEST PUSH1 0x0 DUP1 PUSH1 0x0 DUP1 PUSH1 0x60 DUP6 DUP8 SUB SLT ISZERO PUSH2 0x412D JUMPI PUSH1 0x0 DUP1 REVERT JUMPDEST DUP5 CALLDATALOAD PUSH1 0x1 PUSH1 0x1 PUSH1 0x40 SHL SUB DUP2 GT ISZERO PUSH2 0x4143 JUMPI PUSH1 0x0 DUP1 REVERT JUMPDEST PUSH2 0x414F DUP8 DUP3 DUP9 ADD PUSH2 0x404E JUMP JUMPDEST SWAP1 SWAP6 POP SWAP4 POP POP PUSH1 0x20 DUP6 ADD CALLDATALOAD PUSH2 0x4163 DUP2 PUSH2 0x4096 JUMP JUMPDEST SWAP2 POP PUSH1 0x40 DUP6 ADD CALLDATALOAD PUSH2 0x4173 DUP2 PUSH2 0x4096 JUMP JUMPDEST SWAP4 SWAP7 SWAP3 SWAP6 POP SWAP1 SWAP4 POP POP JUMP JUMPDEST PUSH1 0x1 PUSH1 0x1 PUSH1 0xA0 SHL SUB DUP2 AND DUP2 EQ PUSH2 0x36F5 JUMPI PUSH1 0x0 DUP1 REVERT JUMPDEST PUSH1 0x0 DUP1 PUSH1 0x0 DUP1 PUSH1 0x0 DUP1 PUSH1 0x0 PUSH1 0x80 DUP9 DUP11 SUB SLT ISZERO PUSH2 0x41AE JUMPI PUSH1 0x0 DUP1 REVERT JUMPDEST DUP8 CALLDATALOAD PUSH1 0x1 PUSH1 0x1 PUSH1 0x40 SHL SUB DUP1 DUP3 GT ISZERO PUSH2 0x41C5 JUMPI PUSH1 0x0 DUP1 REVERT JUMPDEST PUSH2 0x41D1 DUP12 DUP4 DUP13 ADD PUSH2 0x404E JUMP JUMPDEST SWAP1 SWAP10 POP SWAP8 POP PUSH1 0x20 DUP11 ADD CALLDATALOAD SWAP2 POP DUP1 DUP3 GT ISZERO PUSH2 0x41EA JUMPI PUSH1 0x0 DUP1 REVERT JUMPDEST PUSH2 0x41F6 DUP12 DUP4 DUP13 ADD PUSH2 0x404E JUMP JUMPDEST SWAP1 SWAP8 POP SWAP6 POP PUSH1 0x40 DUP11 ADD CALLDATALOAD SWAP2 POP DUP1 DUP3 GT ISZERO PUSH2 0x420F JUMPI PUSH1 0x0 DUP1 REVERT JUMPDEST POP PUSH2 0x421C DUP11 DUP3 DUP12 ADD PUSH2 0x404E JUMP JUMPDEST SWAP1 SWAP5 POP SWAP3 POP POP PUSH1 0x60 DUP9 ADD CALLDATALOAD PUSH2 0x4230 DUP2 PUSH2 0x417E JUMP JUMPDEST DUP1 SWAP2 POP POP SWAP3 SWAP6 SWAP9 SWAP2 SWAP5 SWAP8 POP SWAP3 SWAP6 POP JUMP JUMPDEST PUSH1 0x40 DUP2 MSTORE PUSH1 0x0 PUSH2 0x4253 PUSH1 0x40 DUP4 ADD DUP6 PUSH2 0x3FF8 JUMP JUMPDEST SWAP1 POP DUP3 ISZERO ISZERO PUSH1 0x20 DUP4 ADD MSTORE SWAP4 SWAP3 POP POP POP JUMP JUMPDEST PUSH1 0x0 DUP1 PUSH1 0x0 PUSH1 0x60 DUP5 DUP7 SUB SLT ISZERO PUSH2 0x4279 JUMPI PUSH1 0x0 DUP1 REVERT JUMPDEST DUP4 CALLDATALOAD SWAP3 POP PUSH1 0x20 DUP5 ADD CALLDATALOAD SWAP2 POP PUSH1 0x40 DUP5 ADD CALLDATALOAD PUSH2 0x40EF DUP2 PUSH2 0x3E8E JUMP JUMPDEST PUSH1 0x0 DUP1 PUSH1 0x40 DUP4 DUP6 SUB SLT ISZERO PUSH2 0x42A5 JUMPI PUSH1 0x0 DUP1 REVERT JUMPDEST DUP3 CALLDATALOAD SWAP2 POP PUSH1 0x20 DUP4 ADD CALLDATALOAD PUSH2 0x3F37 DUP2 PUSH2 0x4096 JUMP JUMPDEST PUSH4 0x4E487B71 PUSH1 0xE0 SHL PUSH1 0x0 MSTORE PUSH1 0x41 PUSH1 0x4 MSTORE PUSH1 0x24 PUSH1 0x0 REVERT JUMPDEST PUSH1 0x40 MLOAD PUSH1 0x60 DUP2 ADD PUSH1 0x1 PUSH1 0x1 PUSH1 0x40 SHL SUB DUP2 GT DUP3 DUP3 LT OR ISZERO PUSH2 0x42EF JUMPI PUSH2 0x42EF PUSH2 0x42B7 JUMP JUMPDEST PUSH1 0x40 MSTORE SWAP1 JUMP JUMPDEST PUSH1 0x40 MLOAD PUSH1 0x1F DUP3 ADD PUSH1 0x1F NOT AND DUP2 ADD PUSH1 0x1 PUSH1 0x1 PUSH1 0x40 SHL SUB DUP2 GT DUP3 DUP3 LT OR ISZERO PUSH2 0x431D JUMPI PUSH2 0x431D PUSH2 0x42B7 JUMP JUMPDEST PUSH1 0x40 MSTORE SWAP2 SWAP1 POP JUMP JUMPDEST PUSH1 0x0 PUSH1 0x1 PUSH1 0x1 PUSH1 0x40 SHL SUB DUP3 GT ISZERO PUSH2 0x433E JUMPI PUSH2 0x433E PUSH2 0x42B7 JUMP JUMPDEST POP PUSH1 0x1F ADD PUSH1 0x1F NOT AND PUSH1 0x20 ADD SWAP1 JUMP JUMPDEST PUSH1 0x0 DUP3 PUSH1 0x1F DUP4 ADD SLT PUSH2 0x435D JUMPI PUSH1 0x0 DUP1 REVERT JUMPDEST DUP2 CALLDATALOAD PUSH2 0x4370 PUSH2 0x436B DUP3 PUSH2 0x4325 JUMP JUMPDEST PUSH2 0x42F5 JUMP JUMPDEST DUP2 DUP2 MSTORE DUP5 PUSH1 0x20 DUP4 DUP7 ADD ADD GT ISZERO PUSH2 0x4385 JUMPI PUSH1 0x0 DUP1 REVERT JUMPDEST DUP2 PUSH1 0x20 DUP6 ADD PUSH1 0x20 DUP4 ADD CALLDATACOPY PUSH1 0x0 SWAP2 DUP2 ADD PUSH1 0x20 ADD SWAP2 SWAP1 SWAP2 MSTORE SWAP4 SWAP3 POP POP POP JUMP JUMPDEST PUSH1 0x0 DUP1 PUSH1 0x0 PUSH1 0x60 DUP5 DUP7 SUB SLT ISZERO PUSH2 0x43B7 JUMPI PUSH1 0x0 DUP1 REVERT JUMPDEST DUP4 CALLDATALOAD PUSH2 0x43C2 DUP2 PUSH2 0x417E JUMP JUMPDEST SWAP3 POP PUSH1 0x20 DUP5 ADD CALLDATALOAD PUSH1 0x1 PUSH1 0x1 PUSH1 0x40 SHL SUB DUP2 GT ISZERO PUSH2 0x43DD JUMPI PUSH1 0x0 DUP1 REVERT JUMPDEST PUSH2 0x43E9 DUP7 DUP3 DUP8 ADD PUSH2 0x434C JUMP JUMPDEST SWAP3 POP POP PUSH1 0x40 DUP5 ADD CALLDATALOAD PUSH2 0x40EF DUP2 PUSH2 0x4096 JUMP JUMPDEST PUSH1 0x20 DUP2 MSTORE PUSH1 0x0 PUSH2 0xEE2 PUSH1 0x20 DUP4 ADD DUP5 PUSH2 0x3FF8 JUMP JUMPDEST PUSH1 0x0 PUSH1 0x20 DUP3 DUP5 SUB SLT ISZERO PUSH2 0x441F JUMPI PUSH1 0x0 DUP1 REVERT JUMPDEST DUP2 CALLDATALOAD PUSH2 0xEE2 DUP2 PUSH2 0x417E JUMP JUMPDEST PUSH1 0x0 DUP1 PUSH1 0x40 DUP4 DUP6 SUB SLT ISZERO PUSH2 0x443D JUMPI PUSH1 0x0 DUP1 REVERT JUMPDEST DUP3 CALLDATALOAD SWAP2 POP PUSH1 0x20 DUP4 ADD CALLDATALOAD PUSH2 0x3F37 DUP2 PUSH2 0x417E JUMP JUMPDEST PUSH1 0x0 DUP1 PUSH1 0x0 DUP1 PUSH1 0x60 DUP6 DUP8 SUB SLT ISZERO PUSH2 0x4465 JUMPI PUSH1 0x0 DUP1 REVERT JUMPDEST DUP5 CALLDATALOAD PUSH1 0x1 PUSH1 0x1 PUSH1 0x40 SHL SUB DUP2 GT ISZERO PUSH2 0x447B JUMPI PUSH1 0x0 DUP1 REVERT JUMPDEST PUSH2 0x4487 DUP8 DUP3 DUP9 ADD PUSH2 0x404E JUMP JUMPDEST SWAP1 SWAP6 POP SWAP4 POP POP PUSH1 0x20 DUP6 ADD CALLDATALOAD SWAP2 POP PUSH1 0x40 DUP6 ADD CALLDATALOAD PUSH2 0x4173 DUP2 PUSH2 0x4096 JUMP JUMPDEST PUSH1 0x60 DUP2 MSTORE PUSH1 0x0 PUSH2 0x44B5 PUSH1 0x60 DUP4 ADD DUP7 PUSH2 0x3FF8 JUMP JUMPDEST PUSH1 0x20 DUP4 ADD SWAP5 SWAP1 SWAP5 MSTORE POP SWAP1 ISZERO ISZERO PUSH1 0x40 SWAP1 SWAP2 ADD MSTORE SWAP2 SWAP1 POP JUMP JUMPDEST PUSH1 0x0 DUP1 PUSH1 0x0 PUSH1 0x60 DUP5 DUP7 SUB SLT ISZERO PUSH2 0x44E1 JUMPI PUSH1 0x0 DUP1 REVERT JUMPDEST DUP4 CALLDATALOAD SWAP3 POP PUSH1 0x20 DUP5 ADD CALLDATALOAD PUSH2 0x44F3 DUP2 PUSH2 0x417E JUMP JUMPDEST SWAP2 POP PUSH1 0x40 DUP5 ADD CALLDATALOAD PUSH2 0x40EF DUP2 PUSH2 0x3E8E JUMP JUMPDEST PUSH1 0x0 DUP1 PUSH1 0x40 DUP4 DUP6 SUB SLT ISZERO PUSH2 0x4516 JUMPI PUSH1 0x0 DUP1 REVERT JUMPDEST POP POP DUP1 CALLDATALOAD SWAP3 PUSH1 0x20 SWAP1 SWAP2 ADD CALLDATALOAD SWAP2 POP JUMP JUMPDEST PUSH1 0x20 DUP1 DUP3 MSTORE DUP3 MLOAD DUP3 DUP3 ADD DUP2 SWAP1 MSTORE PUSH1 0x0 SWAP2 SWAP1 DUP5 DUP3 ADD SWAP1 PUSH1 0x40 DUP6 ADD SWAP1 DUP5 JUMPDEST DUP2 DUP2 LT ISZERO PUSH2 0x3F84 JUMPI DUP4 MLOAD PUSH1 0x1 PUSH1 0x1 PUSH1 0xA0 SHL SUB AND DUP4 MSTORE SWAP3 DUP5 ADD SWAP3 SWAP2 DUP5 ADD SWAP2 PUSH1 0x1 ADD PUSH2 0x4541 JUMP JUMPDEST PUSH1 0x0 PUSH1 0xA0 DUP3 DUP5 SUB SLT ISZERO PUSH2 0x4578 JUMPI PUSH1 0x0 DUP1 REVERT JUMPDEST POP SWAP2 SWAP1 POP JUMP JUMPDEST PUSH1 0x0 DUP1 DUP4 PUSH1 0x1F DUP5 ADD SLT PUSH2 0x4590 JUMPI PUSH1 0x0 DUP1 REVERT JUMPDEST POP DUP2 CALLDATALOAD PUSH1 0x1 PUSH1 0x1 PUSH1 0x40 SHL SUB DUP2 GT ISZERO PUSH2 0x45A7 JUMPI PUSH1 0x0 DUP1 REVERT JUMPDEST PUSH1 0x20 DUP4 ADD SWAP2 POP DUP4 PUSH1 0x20 DUP3 PUSH1 0x5 SHL DUP6 ADD ADD GT ISZERO PUSH2 0x408F JUMPI PUSH1 0x0 DUP1 REVERT JUMPDEST PUSH1 0x0 DUP1 PUSH1 0x0 DUP1 PUSH1 0x0 PUSH2 0x100 DUP7 DUP9 SUB SLT ISZERO PUSH2 0x45DB JUMPI PUSH1 0x0 DUP1 REVERT JUMPDEST DUP6 CALLDATALOAD SWAP5 POP PUSH1 0x20 DUP7 ADD CALLDATALOAD PUSH1 0x1 PUSH1 0x1 PUSH1 0x40 SHL SUB DUP1 DUP3 GT ISZERO PUSH2 0x45F9 JUMPI PUSH1 0x0 DUP1 REVERT JUMPDEST PUSH2 0x4605 DUP10 DUP4 DUP11 ADD PUSH2 0x434C JUMP JUMPDEST SWAP6 POP PUSH2 0x4614 DUP10 PUSH1 0x40 DUP11 ADD PUSH2 0x4566 JUMP JUMPDEST SWAP5 POP PUSH1 0xE0 DUP9 ADD CALLDATALOAD SWAP2 POP DUP1 DUP3 GT ISZERO PUSH2 0x462A JUMPI PUSH1 0x0 DUP1 REVERT JUMPDEST POP PUSH2 0x4637 DUP9 DUP3 DUP10 ADD PUSH2 0x457E JUMP JUMPDEST SWAP7 SWAP10 SWAP6 SWAP9 POP SWAP4 SWAP7 POP SWAP3 SWAP5 SWAP4 SWAP3 POP POP POP JUMP JUMPDEST PUSH1 0x0 DUP1 PUSH1 0x0 DUP1 PUSH1 0xE0 DUP6 DUP8 SUB SLT ISZERO PUSH2 0x465E JUMPI PUSH1 0x0 DUP1 REVERT JUMPDEST DUP5 CALLDATALOAD PUSH1 0x1 PUSH1 0x1 PUSH1 0x40 SHL SUB DUP1 DUP3 GT ISZERO PUSH2 0x4675 JUMPI PUSH1 0x0 DUP1 REVERT JUMPDEST PUSH2 0x4681 DUP9 DUP4 DUP10 ADD PUSH2 0x434C JUMP JUMPDEST SWAP6 POP PUSH2 0x4690 DUP9 PUSH1 0x20 DUP10 ADD PUSH2 0x4566 JUMP JUMPDEST SWAP5 POP PUSH1 0xC0 DUP8 ADD CALLDATALOAD SWAP2 POP DUP1 DUP3 GT ISZERO PUSH2 0x46A6 JUMPI PUSH1 0x0 DUP1 REVERT JUMPDEST POP PUSH2 0x46B3 DUP8 DUP3 DUP9 ADD PUSH2 0x457E JUMP JUMPDEST SWAP6 SWAP9 SWAP5 SWAP8 POP SWAP6 POP POP POP POP JUMP JUMPDEST SWAP4 DUP5 MSTORE PUSH1 0x20 DUP5 ADD SWAP3 SWAP1 SWAP3 MSTORE PUSH1 0x1 PUSH1 0x1 PUSH1 0xE0 SHL SUB NOT AND PUSH1 0x40 DUP4 ADD MSTORE PUSH1 0x60 DUP3 ADD MSTORE PUSH1 0x80 ADD SWAP1 JUMP JUMPDEST PUSH1 0x0 PUSH1 0x20 DUP3 DUP5 SUB SLT ISZERO PUSH2 0x46F6 JUMPI PUSH1 0x0 DUP1 REVERT JUMPDEST POP MLOAD SWAP2 SWAP1 POP JUMP JUMPDEST PUSH1 0x1 PUSH1 0x1 PUSH1 0xE0 SHL SUB NOT SWAP3 SWAP1 SWAP3 AND DUP3 MSTORE PUSH1 0x20 DUP3 ADD MSTORE PUSH1 0x40 ADD SWAP1 JUMP JUMPDEST PUSH1 0x0 PUSH1 0x20 DUP3 DUP5 SUB SLT ISZERO PUSH2 0x4729 JUMPI PUSH1 0x0 DUP1 REVERT JUMPDEST DUP2 MLOAD PUSH2 0xEE2 DUP2 PUSH2 0x4096 JUMP JUMPDEST SWAP3 DUP4 MSTORE PUSH1 0x20 DUP4 ADD SWAP2 SWAP1 SWAP2 MSTORE PUSH1 0x1 PUSH1 0x1 PUSH1 0xE0 SHL SUB NOT AND PUSH1 0x40 DUP3 ADD MSTORE PUSH1 0x60 ADD SWAP1 JUMP JUMPDEST PUSH1 0x0 PUSH1 0x1 PUSH1 0x1 PUSH1 0x40 SHL SUB DUP3 GT ISZERO PUSH2 0x476D JUMPI PUSH2 0x476D PUSH2 0x42B7 JUMP JUMPDEST POP PUSH1 0x5 SHL PUSH1 0x20 ADD SWAP1 JUMP JUMPDEST PUSH1 0x0 DUP3 PUSH1 0x1F DUP4 ADD SLT PUSH2 0x4788 JUMPI PUSH1 0x0 DUP1 REVERT JUMPDEST DUP2 MLOAD PUSH1 0x20 PUSH2 0x4798 PUSH2 0x436B DUP4 PUSH2 0x4754 JUMP JUMPDEST DUP3 DUP2 MSTORE PUSH1 0x5 SWAP3 SWAP1 SWAP3 SHL DUP5 ADD DUP2 ADD SWAP2 DUP2 DUP2 ADD SWAP1 DUP7 DUP5 GT ISZERO PUSH2 0x47B7 JUMPI PUSH1 0x0 DUP1 REVERT JUMPDEST DUP3 DUP7 ADD JUMPDEST DUP5 DUP2 LT ISZERO PUSH2 0x47DB JUMPI DUP1 MLOAD PUSH2 0x47CE DUP2 PUSH2 0x3E8E JUMP JUMPDEST DUP4 MSTORE SWAP2 DUP4 ADD SWAP2 DUP4 ADD PUSH2 0x47BB JUMP JUMPDEST POP SWAP7 SWAP6 POP POP POP POP POP POP JUMP JUMPDEST PUSH1 0x0 PUSH1 0x20 DUP3 DUP5 SUB SLT ISZERO PUSH2 0x47F8 JUMPI PUSH1 0x0 DUP1 REVERT JUMPDEST DUP2 MLOAD PUSH1 0x1 PUSH1 0x1 PUSH1 0x40 SHL SUB DUP2 GT ISZERO PUSH2 0x480E JUMPI PUSH1 0x0 DUP1 REVERT JUMPDEST PUSH2 0x1F96 DUP5 DUP3 DUP6 ADD PUSH2 0x4777 JUMP JUMPDEST PUSH1 0x0 PUSH1 0x20 DUP1 DUP4 DUP6 SUB SLT ISZERO PUSH2 0x482D JUMPI PUSH1 0x0 DUP1 REVERT JUMPDEST DUP3 MLOAD PUSH1 0x1 PUSH1 0x1 PUSH1 0x40 SHL SUB DUP2 GT ISZERO PUSH2 0x4843 JUMPI PUSH1 0x0 DUP1 REVERT JUMPDEST DUP4 ADD PUSH1 0x1F DUP2 ADD DUP6 SGT PUSH2 0x4854 JUMPI PUSH1 0x0 DUP1 REVERT JUMPDEST DUP1 MLOAD PUSH2 0x4862 PUSH2 0x436B DUP3 PUSH2 0x4754 JUMP JUMPDEST DUP2 DUP2 MSTORE PUSH1 0x5 SWAP2 SWAP1 SWAP2 SHL DUP3 ADD DUP4 ADD SWAP1 DUP4 DUP2 ADD SWAP1 DUP8 DUP4 GT ISZERO PUSH2 0x4881 JUMPI PUSH1 0x0 DUP1 REVERT JUMPDEST SWAP3 DUP5 ADD SWAP3 JUMPDEST DUP3 DUP5 LT ISZERO PUSH2 0x489F JUMPI DUP4 MLOAD DUP3 MSTORE SWAP3 DUP5 ADD SWAP3 SWAP1 DUP5 ADD SWAP1 PUSH2 0x4886 JUMP JUMPDEST SWAP8 SWAP7 POP POP POP POP POP POP POP JUMP JUMPDEST PUSH1 0x0 DUP3 PUSH1 0x1F DUP4 ADD SLT PUSH2 0x48BB JUMPI PUSH1 0x0 DUP1 REVERT JUMPDEST DUP2 MLOAD PUSH2 0x48C9 PUSH2 0x436B DUP3 PUSH2 0x4325 JUMP JUMPDEST DUP2 DUP2 MSTORE DUP5 PUSH1 0x20 DUP4 DUP7 ADD ADD GT ISZERO PUSH2 0x48DE JUMPI PUSH1 0x0 DUP1 REVERT JUMPDEST PUSH2 0x1F96 DUP3 PUSH1 0x20 DUP4 ADD PUSH1 0x20 DUP8 ADD PUSH2 0x3FC8 JUMP JUMPDEST PUSH1 0x0 DUP1 PUSH1 0x0 PUSH1 0x60 DUP5 DUP7 SUB SLT ISZERO PUSH2 0x4904 JUMPI PUSH1 0x0 DUP1 REVERT JUMPDEST DUP4 MLOAD PUSH1 0x1 PUSH1 0x1 PUSH1 0x40 SHL SUB DUP2 GT ISZERO PUSH2 0x491A JUMPI PUSH1 0x0 DUP1 REVERT JUMPDEST PUSH2 0x4926 DUP7 DUP3 DUP8 ADD PUSH2 0x48AA JUMP JUMPDEST SWAP4 POP POP PUSH1 0x20 DUP5 ADD MLOAD PUSH2 0x4937 DUP2 PUSH2 0x4096 JUMP JUMPDEST PUSH1 0x40 DUP6 ADD MLOAD SWAP1 SWAP3 POP PUSH2 0x40EF DUP2 PUSH2 0x4096 JUMP JUMPDEST DUP2 DUP4 MSTORE DUP2 DUP2 PUSH1 0x20 DUP6 ADD CALLDATACOPY POP PUSH1 0x0 DUP3 DUP3 ADD PUSH1 0x20 SWAP1 DUP2 ADD SWAP2 SWAP1 SWAP2 MSTORE PUSH1 0x1F SWAP1 SWAP2 ADD PUSH1 0x1F NOT AND SWAP1 SWAP2 ADD ADD SWAP1 JUMP JUMPDEST DUP5 DUP2 MSTORE PUSH1 0x60 PUSH1 0x20 DUP3 ADD MSTORE PUSH1 0x0 PUSH2 0x498B PUSH1 0x60 DUP4 ADD DUP6 DUP8 PUSH2 0x4948 JUMP JUMPDEST SWAP1 POP DUP3 ISZERO ISZERO PUSH1 0x40 DUP4 ADD MSTORE SWAP6 SWAP5 POP POP POP POP POP JUMP JUMPDEST PUSH1 0x40 DUP2 MSTORE PUSH1 0x0 PUSH2 0x49B2 PUSH1 0x40 DUP4 ADD DUP6 DUP8 PUSH2 0x4948 JUMP JUMPDEST SWAP1 POP DUP3 ISZERO ISZERO PUSH1 0x20 DUP4 ADD MSTORE SWAP5 SWAP4 POP POP POP POP JUMP JUMPDEST PUSH1 0x20 DUP1 DUP3 MSTORE PUSH1 0x15 SWAP1 DUP3 ADD MSTORE PUSH21 0x125B1B1959D85B0810DBDB9D1C9858DD0810D85B1B PUSH1 0x5A SHL PUSH1 0x40 DUP3 ADD MSTORE PUSH1 0x60 ADD SWAP1 JUMP JUMPDEST PUSH1 0x20 DUP1 DUP3 MSTORE PUSH1 0x14 SWAP1 DUP3 ADD MSTORE PUSH20 0x141C9BDE1E4810D85B1B195908125B9D985B1A59 PUSH1 0x62 SHL PUSH1 0x40 DUP3 ADD MSTORE PUSH1 0x60 ADD SWAP1 JUMP JUMPDEST PUSH1 0x20 DUP1 DUP3 MSTORE PUSH1 0x17 SWAP1 DUP3 ADD MSTORE PUSH32 0x536166654D6F64653A2043616C6C2052656A6563746564000000000000000000 PUSH1 0x40 DUP3 ADD MSTORE PUSH1 0x60 ADD SWAP1 JUMP JUMPDEST DUP6 DUP2 MSTORE PUSH1 0x80 PUSH1 0x20 DUP3 ADD MSTORE PUSH1 0x0 PUSH2 0x4A72 PUSH1 0x80 DUP4 ADD DUP7 DUP9 PUSH2 0x4948 JUMP JUMPDEST SWAP4 ISZERO ISZERO PUSH1 0x40 DUP4 ADD MSTORE POP SWAP1 ISZERO ISZERO PUSH1 0x60 SWAP1 SWAP2 ADD MSTORE SWAP4 SWAP3 POP POP POP JUMP JUMPDEST PUSH1 0x60 DUP2 MSTORE PUSH1 0x0 PUSH2 0x4A9F PUSH1 0x60 DUP4 ADD DUP7 DUP9 PUSH2 0x4948 JUMP JUMPDEST SWAP4 ISZERO ISZERO PUSH1 0x20 DUP4 ADD MSTORE POP SWAP1 ISZERO ISZERO PUSH1 0x40 SWAP1 SWAP2 ADD MSTORE SWAP3 SWAP2 POP POP JUMP JUMPDEST DUP2 DUP4 DUP3 CALLDATACOPY PUSH1 0x0 SWAP2 ADD SWAP1 DUP2 MSTORE SWAP2 SWAP1 POP JUMP JUMPDEST PUSH1 0x0 PUSH1 0x20 DUP1 DUP4 DUP6 SUB SLT ISZERO PUSH2 0x4ADA JUMPI PUSH1 0x0 DUP1 REVERT JUMPDEST DUP3 MLOAD PUSH1 0x1 PUSH1 0x1 PUSH1 0x40 SHL SUB DUP1 DUP3 GT ISZERO PUSH2 0x4AF1 JUMPI PUSH1 0x0 DUP1 REVERT JUMPDEST DUP2 DUP6 ADD SWAP2 POP DUP6 PUSH1 0x1F DUP4 ADD SLT PUSH2 0x4B05 JUMPI PUSH1 0x0 DUP1 REVERT JUMPDEST DUP2 MLOAD PUSH2 0x4B13 PUSH2 0x436B DUP3 PUSH2 0x4754 JUMP JUMPDEST DUP2 DUP2 MSTORE PUSH1 0x5 SWAP2 SWAP1 SWAP2 SHL DUP4 ADD DUP5 ADD SWAP1 DUP5 DUP2 ADD SWAP1 DUP9 DUP4 GT ISZERO PUSH2 0x4B32 JUMPI PUSH1 0x0 DUP1 REVERT JUMPDEST DUP6 DUP6 ADD JUMPDEST DUP4 DUP2 LT ISZERO PUSH2 0x4BBD JUMPI DUP1 MLOAD DUP6 DUP2 GT ISZERO PUSH2 0x4B4E JUMPI PUSH1 0x0 DUP1 DUP2 REVERT JUMPDEST DUP7 ADD PUSH1 0x60 DUP2 DUP13 SUB PUSH1 0x1F NOT ADD DUP2 SGT ISZERO PUSH2 0x4B66 JUMPI PUSH1 0x0 DUP1 DUP2 REVERT JUMPDEST PUSH2 0x4B6E PUSH2 0x42CD JUMP JUMPDEST DUP10 DUP4 ADD MLOAD DUP2 MSTORE PUSH1 0x40 DUP1 DUP5 ADD MLOAD DUP10 DUP2 GT ISZERO PUSH2 0x4B88 JUMPI PUSH1 0x0 DUP1 DUP2 REVERT JUMPDEST PUSH2 0x4B96 DUP16 DUP14 DUP4 DUP9 ADD ADD PUSH2 0x4777 JUMP JUMPDEST DUP4 DUP14 ADD MSTORE POP SWAP3 DUP3 ADD MLOAD SWAP3 PUSH2 0x4BA9 DUP5 PUSH2 0x4096 JUMP JUMPDEST DUP2 ADD SWAP3 SWAP1 SWAP3 MSTORE POP DUP4 MSTORE SWAP2 DUP7 ADD SWAP2 DUP7 ADD PUSH2 0x4B36 JUMP JUMPDEST POP SWAP9 SWAP8 POP POP POP POP POP POP POP POP JUMP JUMPDEST PUSH1 0x0 PUSH1 0x80 DUP1 DUP4 ADD DUP8 DUP5 MSTORE PUSH1 0x20 PUSH1 0x1 DUP1 PUSH1 0xA0 SHL SUB DUP9 AND DUP2 DUP7 ADD MSTORE PUSH1 0x40 DUP8 DUP2 DUP8 ADD MSTORE PUSH1 0x60 DUP5 DUP2 DUP9 ADD MSTORE DUP4 DUP9 MLOAD DUP1 DUP7 MSTORE PUSH1 0xA0 DUP10 ADD SWAP2 POP PUSH1 0xA0 DUP2 PUSH1 0x5 SHL DUP11 ADD ADD SWAP6 POP DUP5 DUP11 ADD PUSH1 0x0 DUP1 JUMPDEST DUP4 DUP2 LT ISZERO PUSH2 0x4C8E JUMPI DUP12 DUP10 SUB PUSH1 0x9F NOT ADD DUP6 MSTORE DUP3 MLOAD DUP1 MLOAD DUP11 MSTORE DUP9 DUP2 ADD MLOAD DUP10 DUP12 ADD DUP9 SWAP1 MSTORE DUP1 MLOAD DUP9 DUP13 ADD DUP2 SWAP1 MSTORE SWAP1 DUP11 ADD SWAP1 DUP5 SWAP1 DUP14 DUP14 ADD SWAP1 JUMPDEST DUP1 DUP4 LT ISZERO PUSH2 0x4C6D JUMPI DUP4 MLOAD PUSH1 0x1 PUSH1 0x1 PUSH1 0xE0 SHL SUB NOT AND DUP3 MSTORE SWAP3 DUP13 ADD SWAP3 PUSH1 0x1 SWAP3 SWAP1 SWAP3 ADD SWAP2 SWAP1 DUP13 ADD SWAP1 PUSH2 0x4C43 JUMP JUMPDEST POP SWAP3 DUP11 ADD MLOAD ISZERO ISZERO SWAP12 DUP11 ADD SWAP12 SWAP1 SWAP12 MSTORE POP SWAP9 POP SWAP4 DUP8 ADD SWAP4 SWAP2 DUP8 ADD SWAP2 PUSH1 0x1 ADD PUSH2 0x4C0F JUMP JUMPDEST POP SWAP7 SWAP15 SWAP14 POP POP POP POP POP POP POP POP POP POP POP POP POP POP JUMP JUMPDEST PUSH1 0x80 DUP2 MSTORE PUSH1 0x0 PUSH2 0x4CB6 PUSH1 0x80 DUP4 ADD DUP9 DUP11 PUSH2 0x4948 JUMP JUMPDEST DUP3 DUP2 SUB PUSH1 0x20 DUP5 ADD MSTORE PUSH2 0x4CC9 DUP2 DUP8 DUP10 PUSH2 0x4948 JUMP JUMPDEST SWAP2 POP POP DUP4 PUSH1 0x40 DUP4 ADD MSTORE PUSH2 0xFFFF DUP4 AND PUSH1 0x60 DUP4 ADD MSTORE SWAP8 SWAP7 POP POP POP POP POP POP POP JUMP JUMPDEST PUSH1 0x0 DUP1 PUSH1 0x40 DUP4 DUP6 SUB SLT ISZERO PUSH2 0x4CFA JUMPI PUSH1 0x0 DUP1 REVERT JUMPDEST DUP3 MLOAD PUSH1 0x1 PUSH1 0x1 PUSH1 0x40 SHL SUB DUP2 GT ISZERO PUSH2 0x4D10 JUMPI PUSH1 0x0 DUP1 REVERT JUMPDEST PUSH2 0x4D1C DUP6 DUP3 DUP7 ADD PUSH2 0x48AA JUMP JUMPDEST SWAP3 POP POP PUSH1 0x20 DUP4 ADD MLOAD PUSH2 0x3F37 DUP2 PUSH2 0x4096 JUMP JUMPDEST PUSH1 0x0 DUP1 PUSH1 0x40 DUP4 DUP6 SUB SLT ISZERO PUSH2 0x4D40 JUMPI PUSH1 0x0 DUP1 REVERT JUMPDEST DUP3 MLOAD PUSH2 0x4D4B DUP2 PUSH2 0x4096 JUMP JUMPDEST PUSH1 0x20 SWAP4 SWAP1 SWAP4 ADD MLOAD SWAP3 SWAP5 SWAP3 SWAP4 POP POP POP JUMP JUMPDEST PUSH1 0x0 PUSH1 0xC0 DUP3 DUP5 SUB SLT ISZERO PUSH2 0x4D6D JUMPI PUSH1 0x0 DUP1 REVERT JUMPDEST PUSH1 0x40 MLOAD PUSH1 0xC0 DUP2 ADD DUP2 DUP2 LT PUSH1 0x1 PUSH1 0x1 PUSH1 0x40 SHL SUB DUP3 GT OR ISZERO PUSH2 0x4D8F JUMPI PUSH2 0x4D8F PUSH2 0x42B7 JUMP JUMPDEST DUP1 PUSH1 0x40 MSTORE POP DUP3 MLOAD DUP2 MSTORE PUSH1 0x20 DUP4 ADD MLOAD PUSH1 0x20 DUP3 ADD MSTORE PUSH1 0x40 DUP4 ADD MLOAD PUSH1 0x40 DUP3 ADD MSTORE PUSH1 0x60 DUP4 ADD MLOAD PUSH2 0x4DBA DUP2 PUSH2 0x417E JUMP JUMPDEST PUSH1 0x60 DUP3 ADD MSTORE PUSH1 0x80 DUP4 ADD MLOAD PUSH2 0x4DCD DUP2 PUSH2 0x4096 JUMP JUMPDEST PUSH1 0x80 DUP3 ADD MSTORE PUSH1 0xA0 DUP4 ADD MLOAD PUSH2 0x4DE0 DUP2 PUSH2 0x4096 JUMP JUMPDEST PUSH1 0xA0 DUP3 ADD MSTORE SWAP4 SWAP3 POP POP POP JUMP JUMPDEST DUP6 DUP2 MSTORE PUSH1 0x80 PUSH1 0x20 DUP3 ADD MSTORE PUSH1 0x0 PUSH2 0x4E06 PUSH1 0x80 DUP4 ADD DUP7 DUP9 PUSH2 0x4948 JUMP JUMPDEST PUSH1 0x40 DUP4 ADD SWAP5 SWAP1 SWAP5 MSTORE POP SWAP1 ISZERO ISZERO PUSH1 0x60 SWAP1 SWAP2 ADD MSTORE SWAP4 SWAP3 POP POP POP JUMP JUMPDEST PUSH1 0x0 DUP1 PUSH1 0x0 PUSH1 0x60 DUP5 DUP7 SUB SLT ISZERO PUSH2 0x4E34 JUMPI PUSH1 0x0 DUP1 REVERT JUMPDEST DUP4 MLOAD PUSH1 0x1 PUSH1 0x1 PUSH1 0x40 SHL SUB DUP2 GT ISZERO PUSH2 0x4E4A JUMPI PUSH1 0x0 DUP1 REVERT JUMPDEST PUSH2 0x4E56 DUP7 DUP3 DUP8 ADD PUSH2 0x48AA JUMP JUMPDEST SWAP4 POP POP PUSH1 0x20 DUP5 ADD MLOAD SWAP2 POP PUSH1 0x40 DUP5 ADD MLOAD PUSH2 0x40EF DUP2 PUSH2 0x4096 JUMP JUMPDEST PUSH1 0x0 PUSH1 0x20 DUP1 DUP4 DUP6 SUB SLT ISZERO PUSH2 0x4E81 JUMPI PUSH1 0x0 DUP1 REVERT JUMPDEST DUP3 MLOAD PUSH1 0x1 PUSH1 0x1 PUSH1 0x40 SHL SUB DUP2 GT ISZERO PUSH2 0x4E97 JUMPI PUSH1 0x0 DUP1 REVERT JUMPDEST DUP4 ADD PUSH1 0x1F DUP2 ADD DUP6 SGT PUSH2 0x4EA8 JUMPI PUSH1 0x0 DUP1 REVERT JUMPDEST DUP1 MLOAD PUSH2 0x4EB6 PUSH2 0x436B DUP3 PUSH2 0x4754 JUMP JUMPDEST DUP2 DUP2 MSTORE PUSH1 0x5 SWAP2 SWAP1 SWAP2 SHL DUP3 ADD DUP4 ADD SWAP1 DUP4 DUP2 ADD SWAP1 DUP8 DUP4 GT ISZERO PUSH2 0x4ED5 JUMPI PUSH1 0x0 DUP1 REVERT JUMPDEST SWAP3 DUP5 ADD SWAP3 JUMPDEST DUP3 DUP5 LT ISZERO PUSH2 0x489F JUMPI DUP4 MLOAD PUSH2 0x4EED DUP2 PUSH2 0x417E JUMP JUMPDEST DUP3 MSTORE SWAP3 DUP5 ADD SWAP3 SWAP1 DUP5 ADD SWAP1 PUSH2 0x4EDA JUMP JUMPDEST DUP1 CALLDATALOAD DUP3 MSTORE PUSH1 0x20 DUP2 ADD CALLDATALOAD PUSH1 0x20 DUP4 ADD MSTORE PUSH1 0x40 DUP2 ADD CALLDATALOAD PUSH1 0x40 DUP4 ADD MSTORE PUSH1 0x60 DUP2 ADD CALLDATALOAD PUSH2 0x4F22 DUP2 PUSH2 0x417E JUMP JUMPDEST PUSH1 0x1 PUSH1 0x1 PUSH1 0xA0 SHL SUB AND PUSH1 0x60 DUP4 ADD MSTORE PUSH1 0x80 DUP2 ADD CALLDATALOAD PUSH2 0x4F3E DUP2 PUSH2 0x4096 JUMP JUMPDEST DUP1 ISZERO ISZERO PUSH1 0x80 DUP5 ADD MSTORE POP POP POP JUMP JUMPDEST PUSH1 0x0 DUP1 DUP4 CALLDATALOAD PUSH1 0x1E NOT DUP5 CALLDATASIZE SUB ADD DUP2 SLT PUSH2 0x4F62 JUMPI PUSH1 0x0 DUP1 REVERT JUMPDEST DUP4 ADD PUSH1 0x20 DUP2 ADD SWAP3 POP CALLDATALOAD SWAP1 POP PUSH1 0x1 PUSH1 0x1 PUSH1 0x40 SHL SUB DUP2 GT ISZERO PUSH2 0x4F81 JUMPI PUSH1 0x0 DUP1 REVERT JUMPDEST DUP1 PUSH1 0x5 SHL CALLDATASIZE SUB DUP3 SGT ISZERO PUSH2 0x408F JUMPI PUSH1 0x0 DUP1 REVERT JUMPDEST DUP2 DUP4 MSTORE PUSH1 0x0 PUSH1 0x20 DUP1 DUP6 ADD SWAP5 POP DUP3 PUSH1 0x0 JUMPDEST DUP6 DUP2 LT ISZERO PUSH2 0x4FD2 JUMPI DUP2 CALLDATALOAD PUSH2 0x4FB6 DUP2 PUSH2 0x3E8E JUMP JUMPDEST PUSH1 0x1 PUSH1 0x1 PUSH1 0xE0 SHL SUB NOT AND DUP8 MSTORE SWAP6 DUP3 ADD SWAP6 SWAP1 DUP3 ADD SWAP1 PUSH1 0x1 ADD PUSH2 0x4FA3 JUMP JUMPDEST POP SWAP5 SWAP6 SWAP5 POP POP POP POP POP JUMP JUMPDEST PUSH1 0x0 DUP3 CALLDATALOAD PUSH1 0x5E NOT DUP4 CALLDATASIZE SUB ADD DUP2 SLT PUSH2 0x4FF3 JUMPI PUSH1 0x0 DUP1 REVERT JUMPDEST SWAP1 SWAP2 ADD SWAP3 SWAP2 POP POP JUMP JUMPDEST PUSH1 0x0 PUSH2 0x120 DUP9 DUP4 MSTORE PUSH1 0x20 DUP9 DUP2 DUP6 ADD MSTORE PUSH1 0x40 DUP3 DUP2 DUP7 ADD MSTORE PUSH2 0x501E DUP4 DUP7 ADD DUP11 PUSH2 0x3FF8 JUMP JUMPDEST SWAP3 POP PUSH1 0x60 PUSH2 0x502E DUP2 DUP8 ADD DUP11 PUSH2 0x4EFC JUMP JUMPDEST DUP6 DUP5 SUB PUSH2 0x100 DUP8 ADD MSTORE DUP7 DUP5 MSTORE DUP3 DUP5 ADD PUSH1 0x5 DUP9 SWAP1 SHL DUP6 ADD DUP5 ADD DUP10 PUSH1 0x0 DUP1 JUMPDEST DUP12 DUP2 LT ISZERO PUSH2 0x50B0 JUMPI DUP9 DUP5 SUB PUSH1 0x1F NOT ADD DUP6 MSTORE PUSH2 0x5066 DUP4 DUP15 PUSH2 0x4FDD JUMP JUMPDEST DUP1 CALLDATALOAD DUP6 MSTORE PUSH2 0x5076 DUP10 DUP3 ADD DUP3 PUSH2 0x4F4B JUMP JUMPDEST DUP9 DUP12 DUP9 ADD MSTORE PUSH2 0x5088 DUP10 DUP9 ADD DUP3 DUP5 PUSH2 0x4F93 JUMP JUMPDEST SWAP3 DUP11 ADD CALLDATALOAD SWAP3 SWAP2 POP POP PUSH1 0x3 DUP3 LT PUSH2 0x509C JUMPI DUP4 DUP5 REVERT JUMPDEST SWAP5 DUP9 ADD MSTORE SWAP4 DUP8 ADD SWAP4 SWAP2 DUP8 ADD SWAP2 PUSH1 0x1 ADD PUSH2 0x504B JUMP JUMPDEST POP SWAP2 SWAP16 SWAP15 POP POP POP POP POP POP POP POP POP POP POP POP POP POP POP JUMP JUMPDEST PUSH1 0x0 DUP1 PUSH1 0x40 DUP4 DUP6 SUB SLT ISZERO PUSH2 0x50D8 JUMPI PUSH1 0x0 DUP1 REVERT JUMPDEST DUP3 MLOAD PUSH2 0x50E3 DUP2 PUSH2 0x417E JUMP JUMPDEST PUSH1 0x20 DUP5 ADD MLOAD SWAP1 SWAP3 POP PUSH2 0x3F37 DUP2 PUSH2 0x417E JUMP JUMPDEST PUSH1 0x0 PUSH2 0x100 DUP8 DUP4 MSTORE PUSH1 0x20 DUP2 DUP2 DUP6 ADD MSTORE PUSH2 0x510F DUP3 DUP6 ADD DUP10 PUSH2 0x3FF8 JUMP JUMPDEST SWAP2 POP PUSH1 0x40 PUSH2 0x511F DUP2 DUP7 ADD DUP10 PUSH2 0x4EFC JUMP JUMPDEST DUP5 DUP4 SUB PUSH1 0xE0 DUP7 ADD MSTORE DUP6 DUP4 MSTORE DUP2 DUP4 ADD PUSH1 0x5 DUP8 SWAP1 SHL DUP5 ADD DUP4 ADD DUP9 PUSH1 0x0 JUMPDEST DUP10 DUP2 LT ISZERO PUSH2 0x51A6 JUMPI DUP7 DUP4 SUB PUSH1 0x1F NOT ADD DUP5 MSTORE PUSH2 0x5155 DUP3 DUP13 PUSH2 0x4FDD JUMP JUMPDEST PUSH1 0x60 DUP2 CALLDATALOAD DUP6 MSTORE PUSH2 0x5167 DUP9 DUP4 ADD DUP4 PUSH2 0x4F4B JUMP JUMPDEST DUP3 DUP11 DUP9 ADD MSTORE PUSH2 0x5179 DUP4 DUP9 ADD DUP3 DUP5 PUSH2 0x4F93 JUMP JUMPDEST SWAP3 POP POP POP DUP7 DUP3 ADD CALLDATALOAD SWAP2 POP PUSH2 0x518C DUP3 PUSH2 0x4096 JUMP JUMPDEST SWAP1 ISZERO ISZERO SWAP4 DUP7 ADD SWAP4 SWAP1 SWAP4 MSTORE SWAP3 DUP6 ADD SWAP3 SWAP1 DUP6 ADD SWAP1 PUSH1 0x1 ADD PUSH2 0x513A JUMP JUMPDEST POP SWAP1 SWAP13 SWAP12 POP POP POP POP POP POP POP POP POP POP POP POP JUMP JUMPDEST PUSH1 0x0 DUP1 PUSH1 0x40 DUP4 DUP6 SUB SLT ISZERO PUSH2 0x51CB JUMPI PUSH1 0x0 DUP1 REVERT JUMPDEST DUP3 MLOAD SWAP2 POP PUSH1 0x20 DUP4 ADD MLOAD PUSH2 0x3F37 DUP2 PUSH2 0x417E JUMP JUMPDEST SWAP3 DUP4 MSTORE PUSH1 0x1 PUSH1 0x1 PUSH1 0xA0 SHL SUB SWAP2 SWAP1 SWAP2 AND PUSH1 0x20 DUP4 ADD MSTORE PUSH1 0x1 PUSH1 0x1 PUSH1 0xE0 SHL SUB NOT AND PUSH1 0x40 DUP3 ADD MSTORE PUSH1 0x60 ADD SWAP1 JUMP JUMPDEST PUSH1 0x0 DUP3 DUP3 LT ISZERO PUSH2 0x5226 JUMPI PUSH4 0x4E487B71 PUSH1 0xE0 SHL PUSH1 0x0 MSTORE PUSH1 0x11 PUSH1 0x4 MSTORE PUSH1 0x24 PUSH1 0x0 REVERT JUMPDEST POP SUB SWAP1 JUMP JUMPDEST PUSH4 0x4E487B71 PUSH1 0xE0 SHL PUSH1 0x0 MSTORE PUSH1 0x32 PUSH1 0x4 MSTORE PUSH1 0x24 PUSH1 0x0 REVERT JUMPDEST PUSH1 0x0 DUP3 MLOAD PUSH2 0x5253 DUP2 DUP5 PUSH1 0x20 DUP8 ADD PUSH2 0x3FC8 JUMP JUMPDEST SWAP2 SWAP1 SWAP2 ADD SWAP3 SWAP2 POP POP JUMP INVALID DIFFICULTY PUSH6 0x6C6567617465 PUSH4 0x616C6C20 PUSH10 0x735265616C6D55706772 PUSH2 0x6461 PUSH3 0x6C6520 CHAINID PUSH2 0x696C PUSH6 0x64360894A13B LOG1 LOG3 0x21 MOD PUSH8 0xC828492DB98DCA3E KECCAK256 PUSH23 0xCC3735A920A3CA505D382BBCA264697066735822122028 JUMP 0xED PUSH4 0x40402640 ORIGIN GT SWAP15 0x23 DUP13 0x4C CALLDATALOAD SHL 0xB3 PUSH11 0x6106C1811A902968CD0452 0xEF DUP15 0xCF PUSH5 0x736F6C6343 STOP ADDMOD 0xF STOP CALLER 0xB5 BALANCE 0x27 PUSH9 0x4A568B3173AE13B9F8 0xA6 ADD PUSH15 0x243E63B6E8EE1178D6A717850B5D61 SUB "
    },
    "gasEstimates": {
      "creation": {
        "codeDepositCost": "4241600",
        "executionCost": "infinite",
        "totalCost": "infinite"
      },
      "external": {
        "": "231",
        "accessControlManager()": "2399",
        "addContextFuncRole(bytes32,bytes4,bytes32)": "infinite",
        "contractContext()": "486",
        "contractName()": "2447",
        "contractRealm()": "2382",
        "contractVersion()": "2426",
        "domainSeparator()": "4776",
        "getContextFuncs(bytes32)": "infinite",
        "getContextInfo(bytes32)": "infinite",
        "getGroupInfo(bytes32)": "infinite",
        "getGroupRoles(bytes32)": "infinite",
        "getRealmContexts(bytes32)": "infinite",
        "getRealmInfo(bytes32)": "infinite",
        "getRoleAccounts(bytes32)": "infinite",
        "getRoleInfo(bytes32)": "infinite",
        "grantContextRole(bytes32,bytes4,bytes32)": "infinite",
        "grantRoleAccount(bytes32,address)": "infinite",
        "hasAccess(bytes32,address,bytes4)": "infinite",
        "hasContextRole(bytes32,bytes32,bytes4)": "infinite",
        "hasGroupRole(bytes32,bytes32)": "infinite",
        "hasRealmContext(bytes32,bytes32)": "infinite",
        "hasRoleAccount(bytes32,address)": "infinite",
        "initStatus()": "2394",
        "initVersion()": "2436",
        "initialize(string,string,string,address)": "infinite",
        "isContextEnabled(bytes32)": "infinite",
        "isContextExists(bytes32)": "infinite",
        "isContextFunctionEnabled(bytes32,bytes4)": "infinite",
        "isContextFunctionExists(bytes32,bytes4)": "infinite",
        "isContextSafeMode(bytes32)": "infinite",
        "isContextUpgradable(bytes32)": "infinite",
        "isGroupEnabled(bytes32)": "infinite",
        "isGroupExists(bytes32)": "infinite",
        "isLivelyAdmin(address)": "infinite",
        "isLivelyGeneralGroup(bytes32)": "infinite",
        "isLivelyGeneralRealm(bytes32)": "infinite",
        "isLivelySystemAdmin(address)": "infinite",
        "isRealmEnabled(bytes32)": "infinite",
        "isRealmExists(bytes32)": "infinite",
        "isRealmUpgradable(bytes32)": "infinite",
        "isRoleEnabled(bytes32)": "infinite",
        "isRoleExists(bytes32)": "infinite",
        "isSafeMode()": "2360",
        "isUpgradable()": "2416",
        "livelyAdminRole()": "456",
        "livelyAnonymousRole()": "443",
        "livelyGeneralGroupRole()": "488",
        "livelyGeneralRealmRole()": "464",
        "livelySystemAdminRole()": "415",
        "localAdmin()": "2555",
        "proxiableUUID()": "infinite",
        "registerContext(bytes,(bytes32,bytes32,bytes32,address,bool),(bytes32,bytes4[],bool)[])": "infinite",
        "registerGroup(string,bool)": "infinite",
        "registerRealm(string,bool,bool)": "infinite",
        "registerRole(string,bytes32,bool)": "infinite",
        "removeContextFunc(bytes32,bytes4)": "infinite",
        "revokeContextRole(bytes32,bytes4,bytes32)": "infinite",
        "revokeRoleAccount(bytes32,address)": "infinite",
        "setContextRealm(bytes32,bytes32)": "infinite",
        "setContextStatus(bytes32,bool)": "infinite",
        "setGroupStatus(bytes32,bool)": "infinite",
        "setLocalAdmin(address)": "infinite",
        "setRealmStatus(bytes32,bool)": "infinite",
        "setRealmUpgradeStatus(bytes32,bool)": "infinite",
        "setRoleGroup(bytes32,bytes32)": "infinite",
        "setRoleStatus(bytes32,bool)": "infinite",
        "setSafeMode(bool)": "infinite",
        "setUpgradeStatus(bool)": "infinite",
        "subjectAddress()": "infinite",
        "supportsInterface(bytes4)": "infinite",
        "updateContext(bytes32,bytes,(bytes32,bytes32,bytes32,address,bool),(bytes32,bytes4[],uint8)[])": "infinite",
        "upgradeTo(address,bytes,bool)": "infinite",
        "withdrawBalance(address)": "infinite"
      }
    },
    "methodIdentifiers": {
      "accessControlManager()": "b4a0bdf3",
      "addContextFuncRole(bytes32,bytes4,bytes32)": "031c0493",
      "contractContext()": "870666cb",
      "contractName()": "75d0c0dc",
      "contractRealm()": "d3e024b8",
      "contractVersion()": "a0a8e460",
      "domainSeparator()": "f698da25",
      "getContextFuncs(bytes32)": "2e2adf00",
      "getContextInfo(bytes32)": "9ebf6246",
      "getGroupInfo(bytes32)": "6b2b7dd8",
      "getGroupRoles(bytes32)": "edf1d1cb",
      "getRealmContexts(bytes32)": "37bfbfe8",
      "getRealmInfo(bytes32)": "3c7d5b25",
      "getRoleAccounts(bytes32)": "e1ed0a82",
      "getRoleInfo(bytes32)": "be409a11",
      "grantContextRole(bytes32,bytes4,bytes32)": "771bcf45",
      "grantRoleAccount(bytes32,address)": "8f09e0f0",
      "hasAccess(bytes32,address,bytes4)": "c7ab39e6",
      "hasContextRole(bytes32,bytes32,bytes4)": "6b3b0159",
      "hasGroupRole(bytes32,bytes32)": "f5122c92",
      "hasRealmContext(bytes32,bytes32)": "d9aba36e",
      "hasRoleAccount(bytes32,address)": "c7ea945c",
      "initStatus()": "60fefdec",
      "initVersion()": "38d38c97",
      "initialize(string,string,string,address)": "5c6d8da1",
      "isContextEnabled(bytes32)": "4944f532",
      "isContextExists(bytes32)": "8e703826",
      "isContextFunctionEnabled(bytes32,bytes4)": "b4c4b58f",
      "isContextFunctionExists(bytes32,bytes4)": "11b529b3",
      "isContextSafeMode(bytes32)": "101df54d",
      "isContextUpgradable(bytes32)": "51e70bb0",
      "isGroupEnabled(bytes32)": "3228144d",
      "isGroupExists(bytes32)": "1846d125",
      "isLivelyAdmin(address)": "f8aa7e3f",
      "isLivelyGeneralGroup(bytes32)": "4dc13c8f",
      "isLivelyGeneralRealm(bytes32)": "91690955",
      "isLivelySystemAdmin(address)": "f80f010f",
      "isRealmEnabled(bytes32)": "c48e7ae6",
      "isRealmExists(bytes32)": "45b5203c",
      "isRealmUpgradable(bytes32)": "e25d75f0",
      "isRoleEnabled(bytes32)": "2f032edd",
      "isRoleExists(bytes32)": "dc853dd0",
      "isSafeMode()": "be22465d",
      "isUpgradable()": "5479d940",
      "livelyAdminRole()": "098b01cf",
      "livelyAnonymousRole()": "40768140",
      "livelyGeneralGroupRole()": "3dfe3aa2",
      "livelyGeneralRealmRole()": "7276ce29",
      "livelySystemAdminRole()": "5ec7870a",
      "localAdmin()": "f94a0adb",
      "proxiableUUID()": "52d1902d",
      "registerContext(bytes,(bytes32,bytes32,bytes32,address,bool),(bytes32,bytes4[],bool)[])": "f1df49da",
      "registerGroup(string,bool)": "3f4c99b8",
      "registerRealm(string,bool,bool)": "4bb1be8c",
      "registerRole(string,bytes32,bool)": "b2dc26e5",
      "removeContextFunc(bytes32,bytes4)": "b58966de",
      "revokeContextRole(bytes32,bytes4,bytes32)": "4346a04b",
      "revokeRoleAccount(bytes32,address)": "df01de45",
      "setContextRealm(bytes32,bytes32)": "d3386401",
      "setContextStatus(bytes32,bool)": "70420ee3",
      "setGroupStatus(bytes32,bool)": "b6c03f03",
      "setLocalAdmin(address)": "d9dc1f19",
      "setRealmStatus(bytes32,bool)": "8b7dbd6c",
      "setRealmUpgradeStatus(bytes32,bool)": "f2c673bd",
      "setRoleGroup(bytes32,bytes32)": "dbf304b0",
      "setRoleStatus(bytes32,bool)": "e71e224e",
      "setSafeMode(bool)": "44b7e5f2",
      "setUpgradeStatus(bool)": "48e6be1c",
      "subjectAddress()": "58dbc45d",
      "supportsInterface(bytes4)": "01ffc9a7",
      "updateContext(bytes32,bytes,(bytes32,bytes32,bytes32,address,bool),(bytes32,bytes4[],uint8)[])": "e65be468",
      "upgradeTo(address,bytes,bool)": "7147855d",
      "withdrawBalance(address)": "756af45f"
    }
  },
  "storageLayout": {
    "storage": [
      {
        "astId": 19057,
        "contract": "src/contracts/acl/AccessControlManager.sol:AccessControlManager",
        "label": "_accessControlManager",
        "offset": 0,
        "slot": "0",
        "type": "t_address"
      },
      {
        "astId": 19059,
        "contract": "src/contracts/acl/AccessControlManager.sol:AccessControlManager",
        "label": "_domainName",
        "offset": 0,
        "slot": "1",
        "type": "t_bytes32"
      },
      {
        "astId": 19061,
        "contract": "src/contracts/acl/AccessControlManager.sol:AccessControlManager",
        "label": "_domainVersion",
        "offset": 0,
        "slot": "2",
        "type": "t_bytes32"
      },
      {
        "astId": 19063,
        "contract": "src/contracts/acl/AccessControlManager.sol:AccessControlManager",
        "label": "_domainRealm",
        "offset": 0,
        "slot": "3",
        "type": "t_bytes32"
      },
      {
        "astId": 19065,
        "contract": "src/contracts/acl/AccessControlManager.sol:AccessControlManager",
        "label": "_isSafeMode",
        "offset": 0,
        "slot": "4",
        "type": "t_bool"
      },
      {
        "astId": 19067,
        "contract": "src/contracts/acl/AccessControlManager.sol:AccessControlManager",
        "label": "_isUpgradable",
        "offset": 1,
        "slot": "4",
        "type": "t_bool"
      },
      {
        "astId": 19072,
        "contract": "src/contracts/acl/AccessControlManager.sol:AccessControlManager",
        "label": "__gap",
        "offset": 0,
        "slot": "5",
        "type": "t_array(t_uint256)64_storage"
      },
      {
        "astId": 9436,
        "contract": "src/contracts/acl/AccessControlManager.sol:AccessControlManager",
        "label": "_dataMaps",
        "offset": 0,
        "slot": "69",
        "type": "t_struct(DataMaps)9393_storage"
      },
      {
        "astId": 19245,
        "contract": "src/contracts/acl/AccessControlManager.sol:AccessControlManager",
        "label": "_initialized",
        "offset": 0,
        "slot": "74",
        "type": "t_uint16"
      },
      {
        "astId": 19248,
        "contract": "src/contracts/acl/AccessControlManager.sol:AccessControlManager",
        "label": "_initializing",
        "offset": 2,
        "slot": "74",
        "type": "t_bool"
      }
    ],
    "types": {
      "t_address": {
        "encoding": "inplace",
        "label": "address",
        "numberOfBytes": "20"
      },
      "t_array(t_bytes32)dyn_storage": {
        "base": "t_bytes32",
        "encoding": "dynamic_array",
        "label": "bytes32[]",
        "numberOfBytes": "32"
      },
      "t_array(t_uint256)64_storage": {
        "base": "t_uint256",
        "encoding": "inplace",
        "label": "uint256[64]",
        "numberOfBytes": "2048"
      },
      "t_bool": {
        "encoding": "inplace",
        "label": "bool",
        "numberOfBytes": "1"
      },
      "t_bytes32": {
        "encoding": "inplace",
        "label": "bytes32",
        "numberOfBytes": "32"
      },
      "t_bytes4": {
        "encoding": "inplace",
        "label": "bytes4",
        "numberOfBytes": "4"
      },
      "t_enum(Status)9316": {
        "encoding": "inplace",
        "label": "enum AccessControlStorage.Status",
        "numberOfBytes": "1"
      },
      "t_mapping(t_address,t_mapping(t_bytes32,t_enum(Status)9316))": {
        "encoding": "mapping",
        "key": "t_address",
        "label": "mapping(address => mapping(bytes32 => enum AccessControlStorage.Status))",
        "numberOfBytes": "32",
        "value": "t_mapping(t_bytes32,t_enum(Status)9316)"
      },
      "t_mapping(t_bytes32,t_enum(Status)9316)": {
        "encoding": "mapping",
        "key": "t_bytes32",
        "label": "mapping(bytes32 => enum AccessControlStorage.Status)",
        "numberOfBytes": "32",
        "value": "t_enum(Status)9316"
      },
      "t_mapping(t_bytes32,t_struct(Context)9337_storage)": {
        "encoding": "mapping",
        "key": "t_bytes32",
        "label": "mapping(bytes32 => struct AccessControlStorage.Context)",
        "numberOfBytes": "32",
        "value": "t_struct(Context)9337_storage"
      },
      "t_mapping(t_bytes32,t_struct(Group)9365_storage)": {
        "encoding": "mapping",
        "key": "t_bytes32",
        "label": "mapping(bytes32 => struct AccessControlStorage.Group)",
        "numberOfBytes": "32",
        "value": "t_struct(Group)9365_storage"
      },
      "t_mapping(t_bytes32,t_struct(Realm)9357_storage)": {
        "encoding": "mapping",
        "key": "t_bytes32",
        "label": "mapping(bytes32 => struct AccessControlStorage.Realm)",
        "numberOfBytes": "32",
        "value": "t_struct(Realm)9357_storage"
      },
      "t_mapping(t_bytes32,t_struct(Role)9347_storage)": {
        "encoding": "mapping",
        "key": "t_bytes32",
        "label": "mapping(bytes32 => struct AccessControlStorage.Role)",
        "numberOfBytes": "32",
        "value": "t_struct(Role)9347_storage"
      },
      "t_mapping(t_bytes32,t_uint256)": {
        "encoding": "mapping",
        "key": "t_bytes32",
        "label": "mapping(bytes32 => uint256)",
        "numberOfBytes": "32",
        "value": "t_uint256"
      },
      "t_mapping(t_bytes4,t_struct(RoleStat)9322_storage)": {
        "encoding": "mapping",
        "key": "t_bytes4",
        "label": "mapping(bytes4 => struct AccessControlStorage.RoleStat)",
        "numberOfBytes": "32",
        "value": "t_struct(RoleStat)9322_storage"
      },
      "t_string_storage": {
        "encoding": "bytes",
        "label": "string",
        "numberOfBytes": "32"
      },
      "t_struct(AddressSet)17307_storage": {
        "encoding": "inplace",
        "label": "struct LEnumerableSet.AddressSet",
        "members": [
          {
            "astId": 17306,
            "contract": "src/contracts/acl/AccessControlManager.sol:AccessControlManager",
            "label": "_inner",
            "offset": 0,
            "slot": "0",
            "type": "t_struct(Set)17006_storage"
          }
        ],
        "numberOfBytes": "64"
      },
      "t_struct(Bytes32Set)17200_storage": {
        "encoding": "inplace",
        "label": "struct LEnumerableSet.Bytes32Set",
        "members": [
          {
            "astId": 17199,
            "contract": "src/contracts/acl/AccessControlManager.sol:AccessControlManager",
            "label": "_inner",
            "offset": 0,
            "slot": "0",
            "type": "t_struct(Set)17006_storage"
          }
        ],
        "numberOfBytes": "64"
      },
      "t_struct(Context)9337_storage": {
        "encoding": "inplace",
        "label": "struct AccessControlStorage.Context",
        "members": [
          {
            "astId": 9324,
            "contract": "src/contracts/acl/AccessControlManager.sol:AccessControlManager",
            "label": "realm",
            "offset": 0,
            "slot": "0",
            "type": "t_bytes32"
          },
          {
            "astId": 9326,
            "contract": "src/contracts/acl/AccessControlManager.sol:AccessControlManager",
            "label": "smca",
            "offset": 0,
            "slot": "1",
            "type": "t_address"
          },
          {
            "astId": 9328,
            "contract": "src/contracts/acl/AccessControlManager.sol:AccessControlManager",
            "label": "isEnabled",
            "offset": 20,
            "slot": "1",
            "type": "t_bool"
          },
          {
            "astId": 9333,
            "contract": "src/contracts/acl/AccessControlManager.sol:AccessControlManager",
            "label": "resources",
            "offset": 0,
            "slot": "2",
            "type": "t_mapping(t_bytes4,t_struct(RoleStat)9322_storage)"
          },
          {
            "astId": 9336,
            "contract": "src/contracts/acl/AccessControlManager.sol:AccessControlManager",
            "label": "funcSet",
            "offset": 0,
            "slot": "3",
            "type": "t_struct(Bytes32Set)17200_storage"
          }
        ],
        "numberOfBytes": "160"
      },
      "t_struct(DataMaps)9393_storage": {
        "encoding": "inplace",
        "label": "struct AccessControlStorage.DataMaps",
        "members": [
          {
            "astId": 9372,
            "contract": "src/contracts/acl/AccessControlManager.sol:AccessControlManager",
            "label": "accountMap",
            "offset": 0,
            "slot": "0",
            "type": "t_mapping(t_address,t_mapping(t_bytes32,t_enum(Status)9316))"
          },
          {
            "astId": 9377,
            "contract": "src/contracts/acl/AccessControlManager.sol:AccessControlManager",
            "label": "ctxMap",
            "offset": 0,
            "slot": "1",
            "type": "t_mapping(t_bytes32,t_struct(Context)9337_storage)"
          },
          {
            "astId": 9382,
            "contract": "src/contracts/acl/AccessControlManager.sol:AccessControlManager",
            "label": "roleMap",
            "offset": 0,
            "slot": "2",
            "type": "t_mapping(t_bytes32,t_struct(Role)9347_storage)"
          },
          {
            "astId": 9387,
            "contract": "src/contracts/acl/AccessControlManager.sol:AccessControlManager",
            "label": "realmMap",
            "offset": 0,
            "slot": "3",
            "type": "t_mapping(t_bytes32,t_struct(Realm)9357_storage)"
          },
          {
            "astId": 9392,
            "contract": "src/contracts/acl/AccessControlManager.sol:AccessControlManager",
            "label": "groupMap",
            "offset": 0,
            "slot": "4",
            "type": "t_mapping(t_bytes32,t_struct(Group)9365_storage)"
          }
        ],
        "numberOfBytes": "160"
      },
      "t_struct(Group)9365_storage": {
        "encoding": "inplace",
        "label": "struct AccessControlStorage.Group",
        "members": [
          {
            "astId": 9359,
            "contract": "src/contracts/acl/AccessControlManager.sol:AccessControlManager",
            "label": "name",
            "offset": 0,
            "slot": "0",
            "type": "t_string_storage"
          },
          {
            "astId": 9361,
            "contract": "src/contracts/acl/AccessControlManager.sol:AccessControlManager",
            "label": "isEnabled",
            "offset": 0,
            "slot": "1",
            "type": "t_bool"
          },
          {
            "astId": 9364,
            "contract": "src/contracts/acl/AccessControlManager.sol:AccessControlManager",
            "label": "roleSet",
            "offset": 0,
            "slot": "2",
            "type": "t_struct(Bytes32Set)17200_storage"
          }
        ],
        "numberOfBytes": "128"
      },
      "t_struct(Realm)9357_storage": {
        "encoding": "inplace",
        "label": "struct AccessControlStorage.Realm",
        "members": [
          {
            "astId": 9349,
            "contract": "src/contracts/acl/AccessControlManager.sol:AccessControlManager",
            "label": "name",
            "offset": 0,
            "slot": "0",
            "type": "t_string_storage"
          },
          {
            "astId": 9351,
            "contract": "src/contracts/acl/AccessControlManager.sol:AccessControlManager",
            "label": "isEnabled",
            "offset": 0,
            "slot": "1",
            "type": "t_bool"
          },
          {
            "astId": 9353,
            "contract": "src/contracts/acl/AccessControlManager.sol:AccessControlManager",
            "label": "isUpgradable",
            "offset": 1,
            "slot": "1",
            "type": "t_bool"
          },
          {
            "astId": 9356,
            "contract": "src/contracts/acl/AccessControlManager.sol:AccessControlManager",
            "label": "ctxSet",
            "offset": 0,
            "slot": "2",
            "type": "t_struct(Bytes32Set)17200_storage"
          }
        ],
        "numberOfBytes": "128"
      },
      "t_struct(Role)9347_storage": {
        "encoding": "inplace",
        "label": "struct AccessControlStorage.Role",
        "members": [
          {
            "astId": 9339,
            "contract": "src/contracts/acl/AccessControlManager.sol:AccessControlManager",
            "label": "name",
            "offset": 0,
            "slot": "0",
            "type": "t_string_storage"
          },
          {
            "astId": 9341,
            "contract": "src/contracts/acl/AccessControlManager.sol:AccessControlManager",
            "label": "group",
            "offset": 0,
            "slot": "1",
            "type": "t_bytes32"
          },
          {
            "astId": 9343,
            "contract": "src/contracts/acl/AccessControlManager.sol:AccessControlManager",
            "label": "isEnabled",
            "offset": 0,
            "slot": "2",
            "type": "t_bool"
          },
          {
            "astId": 9346,
            "contract": "src/contracts/acl/AccessControlManager.sol:AccessControlManager",
            "label": "accountSet",
            "offset": 0,
            "slot": "3",
            "type": "t_struct(AddressSet)17307_storage"
          }
        ],
        "numberOfBytes": "160"
      },
      "t_struct(RoleStat)9322_storage": {
        "encoding": "inplace",
        "label": "struct AccessControlStorage.RoleStat",
        "members": [
          {
            "astId": 9318,
            "contract": "src/contracts/acl/AccessControlManager.sol:AccessControlManager",
            "label": "role",
            "offset": 0,
            "slot": "0",
            "type": "t_bytes32"
          },
          {
            "astId": 9321,
            "contract": "src/contracts/acl/AccessControlManager.sol:AccessControlManager",
            "label": "status",
            "offset": 0,
            "slot": "1",
            "type": "t_enum(Status)9316"
          }
        ],
        "numberOfBytes": "64"
      },
      "t_struct(Set)17006_storage": {
        "encoding": "inplace",
        "label": "struct LEnumerableSet.Set",
        "members": [
          {
            "astId": 17001,
            "contract": "src/contracts/acl/AccessControlManager.sol:AccessControlManager",
            "label": "_values",
            "offset": 0,
            "slot": "0",
            "type": "t_array(t_bytes32)dyn_storage"
          },
          {
            "astId": 17005,
            "contract": "src/contracts/acl/AccessControlManager.sol:AccessControlManager",
            "label": "_indexes",
            "offset": 0,
            "slot": "1",
            "type": "t_mapping(t_bytes32,t_uint256)"
          }
        ],
        "numberOfBytes": "64"
      },
      "t_uint16": {
        "encoding": "inplace",
        "label": "uint16",
        "numberOfBytes": "2"
      },
      "t_uint256": {
        "encoding": "inplace",
        "label": "uint256",
        "numberOfBytes": "32"
      }
    }
  },
  "userdoc": {
    "kind": "user",
    "methods": {},
    "version": 1
  }
}