{
  "contractName": "AccessControlManager",
  "sourceName": "src/contracts/acl/AccessControlManager.sol",
  "abi": [
    {
      "inputs": [],
      "stateMutability": "nonpayable",
      "type": "constructor"
    },
    {
      "anonymous": false,
      "inputs": [
        {
          "indexed": true,
          "internalType": "bytes32",
          "name": "context",
          "type": "bytes32"
        },
        {
          "indexed": true,
          "internalType": "address",
          "name": "sender",
          "type": "address"
        },
        {
          "indexed": false,
          "internalType": "bytes4",
          "name": "functionSelector",
          "type": "bytes4"
        },
        {
          "indexed": false,
          "internalType": "bytes32",
          "name": "realm",
          "type": "bytes32"
        }
      ],
      "name": "ContextFuncRemoved",
      "type": "event"
    },
    {
      "anonymous": false,
      "inputs": [
        {
          "indexed": true,
          "internalType": "bytes32",
          "name": "context",
          "type": "bytes32"
        },
        {
          "indexed": true,
          "internalType": "bytes32",
          "name": "role",
          "type": "bytes32"
        },
        {
          "indexed": true,
          "internalType": "address",
          "name": "sender",
          "type": "address"
        },
        {
          "indexed": false,
          "internalType": "bytes4",
          "name": "functionSelector",
          "type": "bytes4"
        },
        {
          "indexed": false,
          "internalType": "bytes32",
          "name": "realm",
          "type": "bytes32"
        }
      ],
      "name": "ContextFuncRoleAdded",
      "type": "event"
    },
    {
      "anonymous": false,
      "inputs": [
        {
          "indexed": true,
          "internalType": "bytes32",
          "name": "context",
          "type": "bytes32"
        },
        {
          "indexed": true,
          "internalType": "address",
          "name": "sender",
          "type": "address"
        },
        {
          "indexed": true,
          "internalType": "bytes32",
          "name": "realm",
          "type": "bytes32"
        },
        {
          "indexed": false,
          "internalType": "bytes32",
          "name": "oldRealm",
          "type": "bytes32"
        }
      ],
      "name": "ContextRealmChanged",
      "type": "event"
    },
    {
      "anonymous": false,
      "inputs": [
        {
          "indexed": true,
          "internalType": "bytes32",
          "name": "context",
          "type": "bytes32"
        },
        {
          "indexed": true,
          "internalType": "address",
          "name": "scma",
          "type": "address"
        },
        {
          "indexed": true,
          "internalType": "address",
          "name": "sender",
          "type": "address"
        },
        {
          "indexed": false,
          "internalType": "bytes32",
          "name": "realm",
          "type": "bytes32"
        }
      ],
      "name": "ContextRegistered",
      "type": "event"
    },
    {
      "anonymous": false,
      "inputs": [
        {
          "indexed": true,
          "internalType": "bytes32",
          "name": "context",
          "type": "bytes32"
        },
        {
          "indexed": true,
          "internalType": "bytes32",
          "name": "role",
          "type": "bytes32"
        },
        {
          "indexed": true,
          "internalType": "address",
          "name": "sender",
          "type": "address"
        },
        {
          "indexed": false,
          "internalType": "bytes4",
          "name": "functionSelector",
          "type": "bytes4"
        },
        {
          "indexed": false,
          "internalType": "bytes32",
          "name": "realm",
          "type": "bytes32"
        }
      ],
      "name": "ContextRoleGranted",
      "type": "event"
    },
    {
      "anonymous": false,
      "inputs": [
        {
          "indexed": true,
          "internalType": "bytes32",
          "name": "context",
          "type": "bytes32"
        },
        {
          "indexed": true,
          "internalType": "bytes32",
          "name": "role",
          "type": "bytes32"
        },
        {
          "indexed": true,
          "internalType": "address",
          "name": "sender",
          "type": "address"
        },
        {
          "indexed": false,
          "internalType": "bytes4",
          "name": "functionSelector",
          "type": "bytes4"
        },
        {
          "indexed": false,
          "internalType": "bytes32",
          "name": "realm",
          "type": "bytes32"
        }
      ],
      "name": "ContextRoleRevoked",
      "type": "event"
    },
    {
      "anonymous": false,
      "inputs": [
        {
          "indexed": true,
          "internalType": "bytes32",
          "name": "context",
          "type": "bytes32"
        },
        {
          "indexed": true,
          "internalType": "address",
          "name": "sender",
          "type": "address"
        },
        {
          "indexed": true,
          "internalType": "bytes32",
          "name": "realm",
          "type": "bytes32"
        },
        {
          "indexed": false,
          "internalType": "bool",
          "name": "status",
          "type": "bool"
        }
      ],
      "name": "ContextStatusChanged",
      "type": "event"
    },
    {
      "anonymous": false,
      "inputs": [
        {
          "indexed": true,
          "internalType": "bytes32",
          "name": "context",
          "type": "bytes32"
        },
        {
          "indexed": true,
          "internalType": "address",
          "name": "scma",
          "type": "address"
        },
        {
          "indexed": true,
          "internalType": "address",
          "name": "sender",
          "type": "address"
        },
        {
          "indexed": false,
          "internalType": "bytes32",
          "name": "realm",
          "type": "bytes32"
        }
      ],
      "name": "ContextUpdated",
      "type": "event"
    },
    {
      "anonymous": false,
      "inputs": [
        {
          "indexed": true,
          "internalType": "bytes32",
          "name": "group",
          "type": "bytes32"
        },
        {
          "indexed": true,
          "internalType": "address",
          "name": "sender",
          "type": "address"
        },
        {
          "indexed": false,
          "internalType": "string",
          "name": "name",
          "type": "string"
        },
        {
          "indexed": false,
          "internalType": "bool",
          "name": "status",
          "type": "bool"
        }
      ],
      "name": "GroupRegistered",
      "type": "event"
    },
    {
      "anonymous": false,
      "inputs": [
        {
          "indexed": true,
          "internalType": "bytes32",
          "name": "group",
          "type": "bytes32"
        },
        {
          "indexed": true,
          "internalType": "address",
          "name": "sender",
          "type": "address"
        },
        {
          "indexed": false,
          "internalType": "bool",
          "name": "status",
          "type": "bool"
        }
      ],
      "name": "GroupStatusChanged",
      "type": "event"
    },
    {
      "anonymous": false,
      "inputs": [
        {
          "indexed": true,
          "internalType": "address",
          "name": "sender",
          "type": "address"
        },
        {
          "indexed": true,
          "internalType": "address",
          "name": "proxy",
          "type": "address"
        },
        {
          "indexed": true,
          "internalType": "address",
          "name": "subject",
          "type": "address"
        },
        {
          "indexed": false,
          "internalType": "string",
          "name": "name",
          "type": "string"
        },
        {
          "indexed": false,
          "internalType": "string",
          "name": "version",
          "type": "string"
        },
        {
          "indexed": false,
          "internalType": "bytes32",
          "name": "realm",
          "type": "bytes32"
        },
        {
          "indexed": false,
          "internalType": "uint16",
          "name": "initCount",
          "type": "uint16"
        }
      ],
      "name": "Initialized",
      "type": "event"
    },
    {
      "anonymous": false,
      "inputs": [
        {
          "indexed": true,
          "internalType": "address",
          "name": "sender",
          "type": "address"
        },
        {
          "indexed": true,
          "internalType": "address",
          "name": "proxy",
          "type": "address"
        },
        {
          "indexed": false,
          "internalType": "address",
          "name": "newAdmin",
          "type": "address"
        }
      ],
      "name": "LocalAdminChanged",
      "type": "event"
    },
    {
      "anonymous": false,
      "inputs": [
        {
          "indexed": true,
          "internalType": "bytes32",
          "name": "realm",
          "type": "bytes32"
        },
        {
          "indexed": true,
          "internalType": "address",
          "name": "sender",
          "type": "address"
        },
        {
          "indexed": false,
          "internalType": "string",
          "name": "name",
          "type": "string"
        },
        {
          "indexed": false,
          "internalType": "bool",
          "name": "status",
          "type": "bool"
        },
        {
          "indexed": false,
          "internalType": "bool",
          "name": "isUpgradable",
          "type": "bool"
        }
      ],
      "name": "RealmRegistered",
      "type": "event"
    },
    {
      "anonymous": false,
      "inputs": [
        {
          "indexed": true,
          "internalType": "bytes32",
          "name": "realm",
          "type": "bytes32"
        },
        {
          "indexed": true,
          "internalType": "address",
          "name": "sender",
          "type": "address"
        },
        {
          "indexed": false,
          "internalType": "bool",
          "name": "status",
          "type": "bool"
        }
      ],
      "name": "RealmStatusChanged",
      "type": "event"
    },
    {
      "anonymous": false,
      "inputs": [
        {
          "indexed": true,
          "internalType": "bytes32",
          "name": "realm",
          "type": "bytes32"
        },
        {
          "indexed": true,
          "internalType": "address",
          "name": "sender",
          "type": "address"
        },
        {
          "indexed": false,
          "internalType": "bool",
          "name": "status",
          "type": "bool"
        }
      ],
      "name": "RealmUpgradeStatusChanged",
      "type": "event"
    },
    {
      "anonymous": false,
      "inputs": [
        {
          "indexed": true,
          "internalType": "address",
          "name": "sender",
          "type": "address"
        },
        {
          "indexed": true,
          "internalType": "bytes32",
          "name": "role",
          "type": "bytes32"
        },
        {
          "indexed": true,
          "internalType": "address",
          "name": "account",
          "type": "address"
        }
      ],
      "name": "RoleAccountGranted",
      "type": "event"
    },
    {
      "anonymous": false,
      "inputs": [
        {
          "indexed": true,
          "internalType": "address",
          "name": "sender",
          "type": "address"
        },
        {
          "indexed": true,
          "internalType": "bytes32",
          "name": "role",
          "type": "bytes32"
        },
        {
          "indexed": true,
          "internalType": "address",
          "name": "account",
          "type": "address"
        }
      ],
      "name": "RoleAccountRevoked",
      "type": "event"
    },
    {
      "anonymous": false,
      "inputs": [
        {
          "indexed": true,
          "internalType": "address",
          "name": "sender",
          "type": "address"
        },
        {
          "indexed": true,
          "internalType": "bytes32",
          "name": "role",
          "type": "bytes32"
        },
        {
          "indexed": true,
          "internalType": "bytes32",
          "name": "newGroup",
          "type": "bytes32"
        },
        {
          "indexed": false,
          "internalType": "bytes32",
          "name": "oldGroup",
          "type": "bytes32"
        }
      ],
      "name": "RoleGroupChanged",
      "type": "event"
    },
    {
      "anonymous": false,
      "inputs": [
        {
          "indexed": true,
          "internalType": "address",
          "name": "sender",
          "type": "address"
        },
        {
          "indexed": true,
          "internalType": "bytes32",
          "name": "role",
          "type": "bytes32"
        },
        {
          "indexed": true,
          "internalType": "string",
          "name": "name",
          "type": "string"
        },
        {
          "indexed": false,
          "internalType": "bytes32",
          "name": "group",
          "type": "bytes32"
        },
        {
          "indexed": false,
          "internalType": "bool",
          "name": "isEnabled",
          "type": "bool"
        }
      ],
      "name": "RoleRegistered",
      "type": "event"
    },
    {
      "anonymous": false,
      "inputs": [
        {
          "indexed": true,
          "internalType": "address",
          "name": "sender",
          "type": "address"
        },
        {
          "indexed": true,
          "internalType": "bytes32",
          "name": "role",
          "type": "bytes32"
        },
        {
          "indexed": true,
          "internalType": "bytes32",
          "name": "group",
          "type": "bytes32"
        },
        {
          "indexed": false,
          "internalType": "bool",
          "name": "status",
          "type": "bool"
        }
      ],
      "name": "RoleStatusChanged",
      "type": "event"
    },
    {
      "anonymous": false,
      "inputs": [
        {
          "indexed": true,
          "internalType": "address",
          "name": "sender",
          "type": "address"
        },
        {
          "indexed": true,
          "internalType": "address",
          "name": "proxy",
          "type": "address"
        },
        {
          "indexed": true,
          "internalType": "bytes32",
          "name": "realm",
          "type": "bytes32"
        },
        {
          "indexed": false,
          "internalType": "bool",
          "name": "status",
          "type": "bool"
        }
      ],
      "name": "SafeModeChanged",
      "type": "event"
    },
    {
      "anonymous": false,
      "inputs": [
        {
          "indexed": true,
          "internalType": "address",
          "name": "sender",
          "type": "address"
        },
        {
          "indexed": true,
          "internalType": "address",
          "name": "proxy",
          "type": "address"
        },
        {
          "indexed": true,
          "internalType": "bytes32",
          "name": "realm",
          "type": "bytes32"
        },
        {
          "indexed": false,
          "internalType": "bool",
          "name": "status",
          "type": "bool"
        }
      ],
      "name": "UpgradeStatusChanged",
      "type": "event"
    },
    {
      "anonymous": false,
      "inputs": [
        {
          "indexed": true,
          "internalType": "address",
          "name": "sender",
          "type": "address"
        },
        {
          "indexed": true,
          "internalType": "address",
          "name": "proxy",
          "type": "address"
        },
        {
          "indexed": true,
          "internalType": "address",
          "name": "newImplementation",
          "type": "address"
        }
      ],
      "name": "Upgraded",
      "type": "event"
    },
    {
      "stateMutability": "payable",
      "type": "fallback"
    },
    {
      "inputs": [],
      "name": "accessControlManager",
      "outputs": [
        {
          "internalType": "address",
          "name": "",
          "type": "address"
        }
      ],
      "stateMutability": "view",
      "type": "function"
    },
    {
      "inputs": [
        {
          "internalType": "bytes32",
          "name": "ctx",
          "type": "bytes32"
        },
        {
          "internalType": "bytes4",
          "name": "functionSelector",
          "type": "bytes4"
        },
        {
          "internalType": "bytes32",
          "name": "role",
          "type": "bytes32"
        }
      ],
      "name": "addContextFuncRole",
      "outputs": [
        {
          "internalType": "bool",
          "name": "",
          "type": "bool"
        }
      ],
      "stateMutability": "nonpayable",
      "type": "function"
    },
    {
      "inputs": [],
      "name": "contractContext",
      "outputs": [
        {
          "internalType": "bytes32",
          "name": "",
          "type": "bytes32"
        }
      ],
      "stateMutability": "view",
      "type": "function"
    },
    {
      "inputs": [],
      "name": "contractName",
      "outputs": [
        {
          "internalType": "bytes32",
          "name": "",
          "type": "bytes32"
        }
      ],
      "stateMutability": "view",
      "type": "function"
    },
    {
      "inputs": [],
      "name": "contractRealm",
      "outputs": [
        {
          "internalType": "bytes32",
          "name": "",
          "type": "bytes32"
        }
      ],
      "stateMutability": "view",
      "type": "function"
    },
    {
      "inputs": [],
      "name": "contractVersion",
      "outputs": [
        {
          "internalType": "bytes32",
          "name": "",
          "type": "bytes32"
        }
      ],
      "stateMutability": "view",
      "type": "function"
    },
    {
      "inputs": [],
      "name": "domainSeparator",
      "outputs": [
        {
          "internalType": "bytes32",
          "name": "",
          "type": "bytes32"
        }
      ],
      "stateMutability": "view",
      "type": "function"
    },
    {
      "inputs": [
        {
          "internalType": "bytes32",
          "name": "ctx",
          "type": "bytes32"
        }
      ],
      "name": "getContextFuncs",
      "outputs": [
        {
          "internalType": "bytes4[]",
          "name": "",
          "type": "bytes4[]"
        }
      ],
      "stateMutability": "view",
      "type": "function"
    },
    {
      "inputs": [
        {
          "internalType": "bytes32",
          "name": "ctx",
          "type": "bytes32"
        }
      ],
      "name": "getContextInfo",
      "outputs": [
        {
          "components": [
            {
              "internalType": "bytes32",
              "name": "name",
              "type": "bytes32"
            },
            {
              "internalType": "bytes32",
              "name": "version",
              "type": "bytes32"
            },
            {
              "internalType": "bytes32",
              "name": "realm",
              "type": "bytes32"
            },
            {
              "internalType": "address",
              "name": "smca",
              "type": "address"
            },
            {
              "internalType": "bool",
              "name": "isSafeMode",
              "type": "bool"
            },
            {
              "internalType": "bool",
              "name": "isUpgradable",
              "type": "bool"
            }
          ],
          "internalType": "struct IContextManagement.ResponseContext",
          "name": "",
          "type": "tuple"
        }
      ],
      "stateMutability": "view",
      "type": "function"
    },
    {
      "inputs": [
        {
          "internalType": "bytes32",
          "name": "group",
          "type": "bytes32"
        }
      ],
      "name": "getGroupInfo",
      "outputs": [
        {
          "internalType": "string",
          "name": "",
          "type": "string"
        },
        {
          "internalType": "bool",
          "name": "",
          "type": "bool"
        }
      ],
      "stateMutability": "view",
      "type": "function"
    },
    {
      "inputs": [
        {
          "internalType": "bytes32",
          "name": "group",
          "type": "bytes32"
        }
      ],
      "name": "getGroupRoles",
      "outputs": [
        {
          "internalType": "bytes32[]",
          "name": "",
          "type": "bytes32[]"
        }
      ],
      "stateMutability": "view",
      "type": "function"
    },
    {
      "inputs": [
        {
          "internalType": "bytes32",
          "name": "realm",
          "type": "bytes32"
        }
      ],
      "name": "getRealmContexts",
      "outputs": [
        {
          "internalType": "bytes32[]",
          "name": "",
          "type": "bytes32[]"
        }
      ],
      "stateMutability": "view",
      "type": "function"
    },
    {
      "inputs": [
        {
          "internalType": "bytes32",
          "name": "realm",
          "type": "bytes32"
        }
      ],
      "name": "getRealmInfo",
      "outputs": [
        {
          "internalType": "string",
          "name": "",
          "type": "string"
        },
        {
          "internalType": "bool",
          "name": "",
          "type": "bool"
        },
        {
          "internalType": "bool",
          "name": "",
          "type": "bool"
        }
      ],
      "stateMutability": "view",
      "type": "function"
    },
    {
      "inputs": [
        {
          "internalType": "bytes32",
          "name": "role",
          "type": "bytes32"
        }
      ],
      "name": "getRoleAccounts",
      "outputs": [
        {
          "internalType": "address[]",
          "name": "",
          "type": "address[]"
        }
      ],
      "stateMutability": "view",
      "type": "function"
    },
    {
      "inputs": [
        {
          "internalType": "bytes32",
          "name": "role",
          "type": "bytes32"
        }
      ],
      "name": "getRoleInfo",
      "outputs": [
        {
          "internalType": "string",
          "name": "",
          "type": "string"
        },
        {
          "internalType": "bytes32",
          "name": "",
          "type": "bytes32"
        },
        {
          "internalType": "bool",
          "name": "",
          "type": "bool"
        }
      ],
      "stateMutability": "view",
      "type": "function"
    },
    {
      "inputs": [
        {
          "internalType": "bytes32",
          "name": "ctx",
          "type": "bytes32"
        },
        {
          "internalType": "bytes4",
          "name": "functionSelector",
          "type": "bytes4"
        },
        {
          "internalType": "bytes32",
          "name": "role",
          "type": "bytes32"
        }
      ],
      "name": "grantContextRole",
      "outputs": [
        {
          "internalType": "bool",
          "name": "",
          "type": "bool"
        }
      ],
      "stateMutability": "nonpayable",
      "type": "function"
    },
    {
      "inputs": [
        {
          "internalType": "bytes32",
          "name": "role",
          "type": "bytes32"
        },
        {
          "internalType": "address",
          "name": "account",
          "type": "address"
        }
      ],
      "name": "grantRoleAccount",
      "outputs": [
        {
          "internalType": "bool",
          "name": "",
          "type": "bool"
        }
      ],
      "stateMutability": "nonpayable",
      "type": "function"
    },
    {
      "inputs": [
        {
          "internalType": "bytes32",
          "name": "context",
          "type": "bytes32"
        },
        {
          "internalType": "address",
          "name": "account",
          "type": "address"
        },
        {
          "internalType": "bytes4",
          "name": "signature",
          "type": "bytes4"
        }
      ],
      "name": "hasAccess",
      "outputs": [
        {
          "internalType": "bool",
          "name": "",
          "type": "bool"
        }
      ],
      "stateMutability": "view",
      "type": "function"
    },
    {
      "inputs": [
        {
          "internalType": "bytes32",
          "name": "ctx",
          "type": "bytes32"
        },
        {
          "internalType": "bytes32",
          "name": "role",
          "type": "bytes32"
        },
        {
          "internalType": "bytes4",
          "name": "functionSelector",
          "type": "bytes4"
        }
      ],
      "name": "hasContextRole",
      "outputs": [
        {
          "internalType": "bool",
          "name": "",
          "type": "bool"
        }
      ],
      "stateMutability": "view",
      "type": "function"
    },
    {
      "inputs": [
        {
          "internalType": "bytes32",
          "name": "group",
          "type": "bytes32"
        },
        {
          "internalType": "bytes32",
          "name": "role",
          "type": "bytes32"
        }
      ],
      "name": "hasGroupRole",
      "outputs": [
        {
          "internalType": "bool",
          "name": "",
          "type": "bool"
        }
      ],
      "stateMutability": "view",
      "type": "function"
    },
    {
      "inputs": [
        {
          "internalType": "bytes32",
          "name": "realm",
          "type": "bytes32"
        },
        {
          "internalType": "bytes32",
          "name": "context",
          "type": "bytes32"
        }
      ],
      "name": "hasRealmContext",
      "outputs": [
        {
          "internalType": "bool",
          "name": "",
          "type": "bool"
        }
      ],
      "stateMutability": "view",
      "type": "function"
    },
    {
      "inputs": [
        {
          "internalType": "bytes32",
          "name": "role",
          "type": "bytes32"
        },
        {
          "internalType": "address",
          "name": "account",
          "type": "address"
        }
      ],
      "name": "hasRoleAccount",
      "outputs": [
        {
          "internalType": "bool",
          "name": "",
          "type": "bool"
        }
      ],
      "stateMutability": "view",
      "type": "function"
    },
    {
      "inputs": [],
      "name": "initStatus",
      "outputs": [
        {
          "internalType": "bool",
          "name": "",
          "type": "bool"
        }
      ],
      "stateMutability": "view",
      "type": "function"
    },
    {
      "inputs": [],
      "name": "initVersion",
      "outputs": [
        {
          "internalType": "uint16",
          "name": "",
          "type": "uint16"
        }
      ],
      "stateMutability": "view",
      "type": "function"
    },
    {
      "inputs": [
        {
          "internalType": "string",
          "name": "domainName",
          "type": "string"
        },
        {
          "internalType": "string",
          "name": "domainVersion",
          "type": "string"
        },
        {
          "internalType": "string",
          "name": "domainRealm",
          "type": "string"
        },
        {
          "internalType": "address",
          "name": "accessControlManager",
          "type": "address"
        }
      ],
      "name": "initialize",
      "outputs": [],
      "stateMutability": "nonpayable",
      "type": "function"
    },
    {
      "inputs": [
        {
          "internalType": "bytes32",
          "name": "context",
          "type": "bytes32"
        }
      ],
      "name": "isContextEnabled",
      "outputs": [
        {
          "internalType": "bool",
          "name": "",
          "type": "bool"
        }
      ],
      "stateMutability": "view",
      "type": "function"
    },
    {
      "inputs": [
        {
          "internalType": "bytes32",
          "name": "context",
          "type": "bytes32"
        }
      ],
      "name": "isContextExists",
      "outputs": [
        {
          "internalType": "bool",
          "name": "",
          "type": "bool"
        }
      ],
      "stateMutability": "view",
      "type": "function"
    },
    {
      "inputs": [
        {
          "internalType": "bytes32",
          "name": "context",
          "type": "bytes32"
        },
        {
          "internalType": "bytes4",
          "name": "functionSelector",
          "type": "bytes4"
        }
      ],
      "name": "isContextFunctionEnabled",
      "outputs": [
        {
          "internalType": "bool",
          "name": "",
          "type": "bool"
        }
      ],
      "stateMutability": "view",
      "type": "function"
    },
    {
      "inputs": [
        {
          "internalType": "bytes32",
          "name": "context",
          "type": "bytes32"
        },
        {
          "internalType": "bytes4",
          "name": "functionSelector",
          "type": "bytes4"
        }
      ],
      "name": "isContextFunctionExists",
      "outputs": [
        {
          "internalType": "bool",
          "name": "",
          "type": "bool"
        }
      ],
      "stateMutability": "view",
      "type": "function"
    },
    {
      "inputs": [
        {
          "internalType": "bytes32",
          "name": "context",
          "type": "bytes32"
        }
      ],
      "name": "isContextSafeMode",
      "outputs": [
        {
          "internalType": "bool",
          "name": "",
          "type": "bool"
        }
      ],
      "stateMutability": "view",
      "type": "function"
    },
    {
      "inputs": [
        {
          "internalType": "bytes32",
          "name": "context",
          "type": "bytes32"
        }
      ],
      "name": "isContextUpgradable",
      "outputs": [
        {
          "internalType": "bool",
          "name": "",
          "type": "bool"
        }
      ],
      "stateMutability": "view",
      "type": "function"
    },
    {
      "inputs": [
        {
          "internalType": "bytes32",
          "name": "group",
          "type": "bytes32"
        }
      ],
      "name": "isGroupEnabled",
      "outputs": [
        {
          "internalType": "bool",
          "name": "",
          "type": "bool"
        }
      ],
      "stateMutability": "view",
      "type": "function"
    },
    {
      "inputs": [
        {
          "internalType": "bytes32",
          "name": "group",
          "type": "bytes32"
        }
      ],
      "name": "isGroupExists",
      "outputs": [
        {
          "internalType": "bool",
          "name": "",
          "type": "bool"
        }
      ],
      "stateMutability": "view",
      "type": "function"
    },
    {
      "inputs": [
        {
          "internalType": "address",
          "name": "account",
          "type": "address"
        }
      ],
      "name": "isLivelyAdmin",
      "outputs": [
        {
          "internalType": "bool",
          "name": "",
          "type": "bool"
        }
      ],
      "stateMutability": "view",
      "type": "function"
    },
    {
      "inputs": [
        {
          "internalType": "address",
          "name": "account",
          "type": "address"
        }
      ],
      "name": "isLivelyAssetManager",
      "outputs": [
        {
          "internalType": "bool",
          "name": "",
          "type": "bool"
        }
      ],
      "stateMutability": "view",
      "type": "function"
    },
    {
      "inputs": [
        {
          "internalType": "address",
          "name": "account",
          "type": "address"
        }
      ],
      "name": "isLivelyDao",
      "outputs": [
        {
          "internalType": "bool",
          "name": "",
          "type": "bool"
        }
      ],
      "stateMutability": "view",
      "type": "function"
    },
    {
      "inputs": [
        {
          "internalType": "address",
          "name": "account",
          "type": "address"
        }
      ],
      "name": "isLivelyDaoExecutor",
      "outputs": [
        {
          "internalType": "bool",
          "name": "",
          "type": "bool"
        }
      ],
      "stateMutability": "view",
      "type": "function"
    },
    {
      "inputs": [
        {
          "internalType": "bytes32",
          "name": "role",
          "type": "bytes32"
        }
      ],
      "name": "isLivelyGeneralGroup",
      "outputs": [
        {
          "internalType": "bool",
          "name": "",
          "type": "bool"
        }
      ],
      "stateMutability": "view",
      "type": "function"
    },
    {
      "inputs": [
        {
          "internalType": "bytes32",
          "name": "context",
          "type": "bytes32"
        }
      ],
      "name": "isLivelyGeneralRealm",
      "outputs": [
        {
          "internalType": "bool",
          "name": "",
          "type": "bool"
        }
      ],
      "stateMutability": "view",
      "type": "function"
    },
    {
      "inputs": [
        {
          "internalType": "address",
          "name": "account",
          "type": "address"
        }
      ],
      "name": "isLivelySystemAdmin",
      "outputs": [
        {
          "internalType": "bool",
          "name": "",
          "type": "bool"
        }
      ],
      "stateMutability": "view",
      "type": "function"
    },
    {
      "inputs": [
        {
          "internalType": "bytes32",
          "name": "realm",
          "type": "bytes32"
        }
      ],
      "name": "isRealmEnabled",
      "outputs": [
        {
          "internalType": "bool",
          "name": "",
          "type": "bool"
        }
      ],
      "stateMutability": "view",
      "type": "function"
    },
    {
      "inputs": [
        {
          "internalType": "bytes32",
          "name": "realm",
          "type": "bytes32"
        }
      ],
      "name": "isRealmExists",
      "outputs": [
        {
          "internalType": "bool",
          "name": "",
          "type": "bool"
        }
      ],
      "stateMutability": "view",
      "type": "function"
    },
    {
      "inputs": [
        {
          "internalType": "bytes32",
          "name": "realm",
          "type": "bytes32"
        }
      ],
      "name": "isRealmUpgradable",
      "outputs": [
        {
          "internalType": "bool",
          "name": "",
          "type": "bool"
        }
      ],
      "stateMutability": "view",
      "type": "function"
    },
    {
      "inputs": [
        {
          "internalType": "bytes32",
          "name": "role",
          "type": "bytes32"
        }
      ],
      "name": "isRoleEnabled",
      "outputs": [
        {
          "internalType": "bool",
          "name": "",
          "type": "bool"
        }
      ],
      "stateMutability": "view",
      "type": "function"
    },
    {
      "inputs": [
        {
          "internalType": "bytes32",
          "name": "role",
          "type": "bytes32"
        }
      ],
      "name": "isRoleExists",
      "outputs": [
        {
          "internalType": "bool",
          "name": "",
          "type": "bool"
        }
      ],
      "stateMutability": "view",
      "type": "function"
    },
    {
      "inputs": [],
      "name": "isSafeMode",
      "outputs": [
        {
          "internalType": "bool",
          "name": "",
          "type": "bool"
        }
      ],
      "stateMutability": "view",
      "type": "function"
    },
    {
      "inputs": [],
      "name": "isUpgradable",
      "outputs": [
        {
          "internalType": "bool",
          "name": "",
          "type": "bool"
        }
      ],
      "stateMutability": "view",
      "type": "function"
    },
    {
      "inputs": [],
      "name": "livelyAdminRole",
      "outputs": [
        {
          "internalType": "bytes32",
          "name": "",
          "type": "bytes32"
        }
      ],
      "stateMutability": "pure",
      "type": "function"
    },
    {
      "inputs": [],
      "name": "livelyAnonymousRole",
      "outputs": [
        {
          "internalType": "bytes32",
          "name": "",
          "type": "bytes32"
        }
      ],
      "stateMutability": "pure",
      "type": "function"
    },
    {
      "inputs": [],
      "name": "livelyAssetManagerRole",
      "outputs": [
        {
          "internalType": "bytes32",
          "name": "",
          "type": "bytes32"
        }
      ],
      "stateMutability": "pure",
      "type": "function"
    },
    {
      "inputs": [],
      "name": "livelyDaoExecutorRole",
      "outputs": [
        {
          "internalType": "bytes32",
          "name": "",
          "type": "bytes32"
        }
      ],
      "stateMutability": "pure",
      "type": "function"
    },
    {
      "inputs": [],
      "name": "livelyDaoRole",
      "outputs": [
        {
          "internalType": "bytes32",
          "name": "",
          "type": "bytes32"
        }
      ],
      "stateMutability": "pure",
      "type": "function"
    },
    {
      "inputs": [],
      "name": "livelyGeneralGroupRole",
      "outputs": [
        {
          "internalType": "bytes32",
          "name": "",
          "type": "bytes32"
        }
      ],
      "stateMutability": "pure",
      "type": "function"
    },
    {
      "inputs": [],
      "name": "livelyGeneralRealmRole",
      "outputs": [
        {
          "internalType": "bytes32",
          "name": "",
          "type": "bytes32"
        }
      ],
      "stateMutability": "pure",
      "type": "function"
    },
    {
      "inputs": [],
      "name": "livelySystemAdminRole",
      "outputs": [
        {
          "internalType": "bytes32",
          "name": "",
          "type": "bytes32"
        }
      ],
      "stateMutability": "pure",
      "type": "function"
    },
    {
      "inputs": [],
      "name": "localAdmin",
      "outputs": [
        {
          "internalType": "address",
          "name": "",
          "type": "address"
        }
      ],
      "stateMutability": "view",
      "type": "function"
    },
    {
      "inputs": [],
      "name": "proxiableUUID",
      "outputs": [
        {
          "internalType": "bytes32",
          "name": "",
          "type": "bytes32"
        }
      ],
      "stateMutability": "view",
      "type": "function"
    },
    {
      "inputs": [
        {
          "internalType": "bytes",
          "name": "signature",
          "type": "bytes"
        },
        {
          "components": [
            {
              "internalType": "bytes32",
              "name": "name",
              "type": "bytes32"
            },
            {
              "internalType": "bytes32",
              "name": "version",
              "type": "bytes32"
            },
            {
              "internalType": "bytes32",
              "name": "realm",
              "type": "bytes32"
            },
            {
              "internalType": "address",
              "name": "smca",
              "type": "address"
            },
            {
              "internalType": "bool",
              "name": "status",
              "type": "bool"
            }
          ],
          "internalType": "struct IContextManagement.RequestContext",
          "name": "rc",
          "type": "tuple"
        },
        {
          "components": [
            {
              "internalType": "bytes32",
              "name": "role",
              "type": "bytes32"
            },
            {
              "internalType": "bytes4[]",
              "name": "funcSelectors",
              "type": "bytes4[]"
            },
            {
              "internalType": "bool",
              "name": "isEnabled",
              "type": "bool"
            }
          ],
          "internalType": "struct IContextManagement.RequestRegisterContext[]",
          "name": "rcr",
          "type": "tuple[]"
        }
      ],
      "name": "registerContext",
      "outputs": [
        {
          "internalType": "bytes32",
          "name": "",
          "type": "bytes32"
        }
      ],
      "stateMutability": "nonpayable",
      "type": "function"
    },
    {
      "inputs": [
        {
          "internalType": "string",
          "name": "name",
          "type": "string"
        },
        {
          "internalType": "bool",
          "name": "status",
          "type": "bool"
        }
      ],
      "name": "registerGroup",
      "outputs": [
        {
          "internalType": "bytes32",
          "name": "",
          "type": "bytes32"
        }
      ],
      "stateMutability": "nonpayable",
      "type": "function"
    },
    {
      "inputs": [
        {
          "internalType": "string",
          "name": "name",
          "type": "string"
        },
        {
          "internalType": "bool",
          "name": "status",
          "type": "bool"
        },
        {
          "internalType": "bool",
          "name": "isUpgradable",
          "type": "bool"
        }
      ],
      "name": "registerRealm",
      "outputs": [
        {
          "internalType": "bytes32",
          "name": "",
          "type": "bytes32"
        }
      ],
      "stateMutability": "nonpayable",
      "type": "function"
    },
    {
      "inputs": [
        {
          "internalType": "string",
          "name": "name",
          "type": "string"
        },
        {
          "internalType": "bytes32",
          "name": "group",
          "type": "bytes32"
        },
        {
          "internalType": "bool",
          "name": "status",
          "type": "bool"
        }
      ],
      "name": "registerRole",
      "outputs": [
        {
          "internalType": "bytes32",
          "name": "",
          "type": "bytes32"
        }
      ],
      "stateMutability": "nonpayable",
      "type": "function"
    },
    {
      "inputs": [
        {
          "internalType": "bytes32",
          "name": "ctx",
          "type": "bytes32"
        },
        {
          "internalType": "bytes4",
          "name": "functionSelector",
          "type": "bytes4"
        }
      ],
      "name": "removeContextFunc",
      "outputs": [
        {
          "internalType": "bool",
          "name": "",
          "type": "bool"
        }
      ],
      "stateMutability": "nonpayable",
      "type": "function"
    },
    {
      "inputs": [
        {
          "internalType": "bytes32",
          "name": "ctx",
          "type": "bytes32"
        },
        {
          "internalType": "bytes4",
          "name": "functionSelector",
          "type": "bytes4"
        },
        {
          "internalType": "bytes32",
          "name": "role",
          "type": "bytes32"
        }
      ],
      "name": "revokeContextRole",
      "outputs": [
        {
          "internalType": "bool",
          "name": "",
          "type": "bool"
        }
      ],
      "stateMutability": "nonpayable",
      "type": "function"
    },
    {
      "inputs": [
        {
          "internalType": "bytes32",
          "name": "role",
          "type": "bytes32"
        },
        {
          "internalType": "address",
          "name": "account",
          "type": "address"
        }
      ],
      "name": "revokeRoleAccount",
      "outputs": [
        {
          "internalType": "bool",
          "name": "",
          "type": "bool"
        }
      ],
      "stateMutability": "nonpayable",
      "type": "function"
    },
    {
      "inputs": [
        {
          "internalType": "bytes32",
          "name": "ctx",
          "type": "bytes32"
        },
        {
          "internalType": "bytes32",
          "name": "realm",
          "type": "bytes32"
        }
      ],
      "name": "setContextRealm",
      "outputs": [
        {
          "internalType": "bool",
          "name": "",
          "type": "bool"
        }
      ],
      "stateMutability": "nonpayable",
      "type": "function"
    },
    {
      "inputs": [
        {
          "internalType": "bytes32",
          "name": "ctx",
          "type": "bytes32"
        },
        {
          "internalType": "bool",
          "name": "status",
          "type": "bool"
        }
      ],
      "name": "setContextStatus",
      "outputs": [
        {
          "internalType": "bool",
          "name": "",
          "type": "bool"
        }
      ],
      "stateMutability": "nonpayable",
      "type": "function"
    },
    {
      "inputs": [
        {
          "internalType": "bytes32",
          "name": "group",
          "type": "bytes32"
        },
        {
          "internalType": "bool",
          "name": "status",
          "type": "bool"
        }
      ],
      "name": "setGroupStatus",
      "outputs": [
        {
          "internalType": "bool",
          "name": "",
          "type": "bool"
        }
      ],
      "stateMutability": "nonpayable",
      "type": "function"
    },
    {
      "inputs": [
        {
          "internalType": "address",
          "name": "newLocalAdmin",
          "type": "address"
        }
      ],
      "name": "setLocalAdmin",
      "outputs": [
        {
          "internalType": "bool",
          "name": "",
          "type": "bool"
        }
      ],
      "stateMutability": "nonpayable",
      "type": "function"
    },
    {
      "inputs": [
        {
          "internalType": "bytes32",
          "name": "realm",
          "type": "bytes32"
        },
        {
          "internalType": "bool",
          "name": "status",
          "type": "bool"
        }
      ],
      "name": "setRealmStatus",
      "outputs": [
        {
          "internalType": "bool",
          "name": "",
          "type": "bool"
        }
      ],
      "stateMutability": "nonpayable",
      "type": "function"
    },
    {
      "inputs": [
        {
          "internalType": "bytes32",
          "name": "realm",
          "type": "bytes32"
        },
        {
          "internalType": "bool",
          "name": "status",
          "type": "bool"
        }
      ],
      "name": "setRealmUpgradeStatus",
      "outputs": [
        {
          "internalType": "bool",
          "name": "",
          "type": "bool"
        }
      ],
      "stateMutability": "nonpayable",
      "type": "function"
    },
    {
      "inputs": [
        {
          "internalType": "bytes32",
          "name": "role",
          "type": "bytes32"
        },
        {
          "internalType": "bytes32",
          "name": "group",
          "type": "bytes32"
        }
      ],
      "name": "setRoleGroup",
      "outputs": [
        {
          "internalType": "bool",
          "name": "",
          "type": "bool"
        }
      ],
      "stateMutability": "nonpayable",
      "type": "function"
    },
    {
      "inputs": [
        {
          "internalType": "bytes32",
          "name": "role",
          "type": "bytes32"
        },
        {
          "internalType": "bool",
          "name": "status",
          "type": "bool"
        }
      ],
      "name": "setRoleStatus",
      "outputs": [
        {
          "internalType": "bool",
          "name": "",
          "type": "bool"
        }
      ],
      "stateMutability": "nonpayable",
      "type": "function"
    },
    {
      "inputs": [
        {
          "internalType": "bool",
          "name": "status",
          "type": "bool"
        }
      ],
      "name": "setSafeMode",
      "outputs": [
        {
          "internalType": "bool",
          "name": "",
          "type": "bool"
        }
      ],
      "stateMutability": "nonpayable",
      "type": "function"
    },
    {
      "inputs": [
        {
          "internalType": "bool",
          "name": "status",
          "type": "bool"
        }
      ],
      "name": "setUpgradeStatus",
      "outputs": [
        {
          "internalType": "bool",
          "name": "",
          "type": "bool"
        }
      ],
      "stateMutability": "nonpayable",
      "type": "function"
    },
    {
      "inputs": [],
      "name": "subjectAddress",
      "outputs": [
        {
          "internalType": "address",
          "name": "",
          "type": "address"
        }
      ],
      "stateMutability": "view",
      "type": "function"
    },
    {
      "inputs": [
        {
          "internalType": "bytes4",
          "name": "interfaceId",
          "type": "bytes4"
        }
      ],
      "name": "supportsInterface",
      "outputs": [
        {
          "internalType": "bool",
          "name": "",
          "type": "bool"
        }
      ],
      "stateMutability": "view",
      "type": "function"
    },
    {
      "inputs": [
        {
          "internalType": "bytes32",
          "name": "ctx",
          "type": "bytes32"
        },
        {
          "internalType": "bytes",
          "name": "signature",
          "type": "bytes"
        },
        {
          "components": [
            {
              "internalType": "bytes32",
              "name": "name",
              "type": "bytes32"
            },
            {
              "internalType": "bytes32",
              "name": "version",
              "type": "bytes32"
            },
            {
              "internalType": "bytes32",
              "name": "realm",
              "type": "bytes32"
            },
            {
              "internalType": "address",
              "name": "smca",
              "type": "address"
            },
            {
              "internalType": "bool",
              "name": "status",
              "type": "bool"
            }
          ],
          "internalType": "struct IContextManagement.RequestContext",
          "name": "rc",
          "type": "tuple"
        },
        {
          "components": [
            {
              "internalType": "bytes32",
              "name": "role",
              "type": "bytes32"
            },
            {
              "internalType": "bytes4[]",
              "name": "funcSelectors",
              "type": "bytes4[]"
            },
            {
              "internalType": "enum IContextManagement.UpdateContextStatus",
              "name": "updateStatus",
              "type": "uint8"
            }
          ],
          "internalType": "struct IContextManagement.RequestUpdateContext[]",
          "name": "rcr",
          "type": "tuple[]"
        }
      ],
      "name": "updateContext",
      "outputs": [
        {
          "internalType": "address",
          "name": "",
          "type": "address"
        }
      ],
      "stateMutability": "nonpayable",
      "type": "function"
    },
    {
      "inputs": [
        {
          "internalType": "address",
          "name": "newImplementation",
          "type": "address"
        },
        {
          "internalType": "bytes",
          "name": "data",
          "type": "bytes"
        },
        {
          "internalType": "bool",
          "name": "forceCall",
          "type": "bool"
        }
      ],
      "name": "upgradeTo",
      "outputs": [
        {
          "internalType": "bytes",
          "name": "",
          "type": "bytes"
        }
      ],
      "stateMutability": "nonpayable",
      "type": "function"
    },
    {
      "inputs": [
        {
          "internalType": "address",
          "name": "recepient",
          "type": "address"
        }
      ],
      "name": "withdrawBalance",
      "outputs": [],
      "stateMutability": "nonpayable",
      "type": "function"
    },
    {
      "stateMutability": "payable",
      "type": "receive"
    }
  ],
  "bytecode": "0x60a0604052306080523480156200001557600080fd5b506200004360017f360894a13ba1a3210667c828492db98dca3e2076cc3735a920a3ca505d382bbd6200011f565b7f360894a13ba1a3210667c828492db98dca3e2076cc3735a920a3ca505d382bbc1462000074576200007462000145565b620000a160017fb53127684a568b3173ae13b9f8a6016e243e63b6e8ee1178d6a717850b5d61046200011f565b600080516020620056f283398151915214620000c157620000c162000145565b33620000ea600080516020620056f283398151915260001b6200011c60201b6200355d1760201c565b80546001600160a01b0319166001600160a01b03929092169190911790556004805461ffff191660011790556200015b565b90565b6000828210156200014057634e487b7160e01b600052601160045260246000fd5b500390565b634e487b7160e01b600052600160045260246000fd5b608051615535620001bd600039600081816115a4015281816115ed015281816117a0015281816117e001528181611b3b01528181611bcf01528181611c0f015281816121fb0152818161223b01528181612cd70152612d1701526155356000f3fe60806040526004361061043c5760003560e01c8063771bcf4511610232578063d33864011161012d578063e71e224e116100b0578063f698da2511610077578063f698da2514610dd3578063f80f010f14610de8578063f8aa7e3f14610e08578063f94a0adb14610e28578063facaf13914610e3d57005b8063e71e224e14610d33578063edf1d1cb14610d53578063f1df49da14610d73578063f2c673bd14610d93578063f5122c9214610db357005b8063dc853dd0116100f4578063dc853dd014610c86578063df01de4514610ca6578063e1ed0a8214610cc6578063e25d75f014610cf3578063e65be46814610d1357005b8063d338640114610bf1578063d3e024b814610c11578063d9aba36e14610c26578063d9dc1f1914610c46578063dbf304b014610c6657005b8063b2dc26e5116101b5578063be22465d1161017c578063be22465d14610b4a578063be409a1114610b62578063c48e7ae614610b91578063c7ab39e614610bb1578063c7ea945c14610bd157005b8063b2dc26e514610aac578063b4a0bdf314610acc578063b4c4b58f14610aea578063b58966de14610b0a578063b6c03f0314610b2a57005b806391690955116101f957806391690955146109c357806398625fff146109e35780639ebf624614610a03578063a0a8e46014610a77578063aea3f33b14610a8c57005b8063771bcf451461092e578063870666cb1461094e5780638b7dbd6c146109635780638e703826146109835780638f09e0f0146109a357005b806348e6be1c116103425780635ec7870a116102c557806370420ee31161028c57806370420ee3146108975780637147855d146108b75780637276ce29146108e4578063756af45f146108f957806375d0c0dc1461091957005b80635ec7870a1461080157806360fefdec14610816578063611b4886146108345780636b2b7dd8146108495780636b3b01591461087757005b806351e70bb01161030957806351e70bb01461076257806352d1902d146107825780635479d9401461079757806358dbc45d146107b45780635c6d8da1146107e157005b806348e6be1c146106cd5780634944f532146106ed5780634bb1be8c1461070d5780634bdbf69c1461072d5780634dc13c8f1461074257005b806337bfbfe8116103ca5780633f4c99b8116103915780633f4c99b81461063857806340768140146106585780634346a04b1461066d57806344b7e5f21461068d57806345b5203c146106ad57005b806337bfbfe81461058a57806338d38c97146105b75780633b17f50b146105df5780633c7d5b25146105f45780633dfe3aa21461062357005b806311b529b31161040e57806311b529b3146104dd5780631846d125146104fd5780632e2adf001461051d5780632f032edd1461054a5780633228144d1461056a57005b806301ffc9a714610445578063031c04931461047a578063098b01cf1461049a578063101df54d146104bd57005b3661044357005b005b34801561045157600080fd5b50610465610460366004614101565b610e5d565b60405190151581526020015b60405180910390f35b34801561048657600080fd5b5061046561049536600461411e565b610ef4565b3480156104a657600080fd5b506104af610fca565b604051908152602001610471565b3480156104c957600080fd5b506104656104d8366004614156565b611009565b3480156104e957600080fd5b506104656104f836600461416f565b611088565b34801561050957600080fd5b50610465610518366004614156565b611108565b34801561052957600080fd5b5061053d610538366004614156565b611149565b604051610471919061419f565b34801561055657600080fd5b50610465610565366004614156565b6111cb565b34801561057657600080fd5b50610465610585366004614156565b61120d565b34801561059657600080fd5b506105aa6105a5366004614156565b61124f565b60405161047191906141ed565b3480156105c357600080fd5b506105cc6112d2565b60405161ffff9091168152602001610471565b3480156105eb57600080fd5b506104af6112e6565b34801561060057600080fd5b5061061461060f366004614156565b61131a565b60405161047193929190614281565b34801561062f57600080fd5b506104af6113ae565b34801561064457600080fd5b506104af610653366004614301565b6113d9565b34801561066457600080fd5b506104af6114ab565b34801561067957600080fd5b5061046561068836600461411e565b6114d7565b34801561069957600080fd5b506104656106a8366004614357565b611598565b3480156106b957600080fd5b506104656106c8366004614156565b611752565b3480156106d957600080fd5b506104656106e8366004614357565b611794565b3480156106f957600080fd5b50610465610708366004614156565b61195d565b34801561071957600080fd5b506104af610728366004614374565b61199f565b34801561073957600080fd5b506104af611a76565b34801561074e57600080fd5b5061046561075d366004614156565b611aaa565b34801561076e57600080fd5b5061046561077d366004614156565b611aec565b34801561078e57600080fd5b506104af611b2e565b3480156107a357600080fd5b50600454610100900460ff16610465565b3480156107c057600080fd5b506107c9611bbb565b6040516001600160a01b039091168152602001610471565b3480156107ed57600080fd5b506104436107fc3660046143f0565b611bc5565b34801561080d57600080fd5b506104af611f87565b34801561082257600080fd5b50604a5462010000900460ff16610465565b34801561084057600080fd5b506104af611fbb565b34801561085557600080fd5b50610869610864366004614156565b611fe1565b60405161047192919061449d565b34801561088357600080fd5b506104656108923660046144c1565b61206f565b3480156108a357600080fd5b506104656108b23660046144ef565b61210d565b3480156108c357600080fd5b506108d76108d23660046145ff565b6121ef565b6040516104719190614657565b3480156108f057600080fd5b506104af612317565b34801561090557600080fd5b5061044361091436600461466a565b612342565b34801561092557600080fd5b506001546104af565b34801561093a57600080fd5b5061046561094936600461411e565b6123fa565b34801561095a57600080fd5b506104af6124bb565b34801561096f57600080fd5b5061046561097e3660046144ef565b6124c6565b34801561098f57600080fd5b5061046561099e366004614156565b612555565b3480156109af57600080fd5b506104656109be366004614687565b612597565b3480156109cf57600080fd5b506104656109de366004614156565b61261f565b3480156109ef57600080fd5b506104656109fe36600461466a565b612661565b348015610a0f57600080fd5b50610a23610a1e366004614156565b6126ab565b60405161047191908151815260208083015190820152604080830151908201526060808301516001600160a01b03169082015260808083015115159082015260a09182015115159181019190915260c00190565b348015610a8357600080fd5b506002546104af565b348015610a9857600080fd5b50610465610aa736600461466a565b612754565b348015610ab857600080fd5b506104af610ac73660046146ac565b61279e565b348015610ad857600080fd5b506000546001600160a01b03166107c9565b348015610af657600080fd5b50610465610b0536600461416f565b61289a565b348015610b1657600080fd5b50610465610b2536600461416f565b6128d9565b348015610b3657600080fd5b50610465610b453660046144ef565b6129a9565b348015610b5657600080fd5b5060045460ff16610465565b348015610b6e57600080fd5b50610b82610b7d366004614156565b612a38565b604051610471939291906146ff565b348015610b9d57600080fd5b50610465610bac366004614156565b612abf565b348015610bbd57600080fd5b50610465610bcc366004614729565b612b01565b348015610bdd57600080fd5b50610465610bec366004614687565b612b62565b348015610bfd57600080fd5b50610465610c0c366004614760565b612bb3565b348015610c1d57600080fd5b506003546104af565b348015610c3257600080fd5b50610465610c41366004614760565b612c82565b348015610c5257600080fd5b50610465610c6136600461466a565b612ccb565b348015610c7257600080fd5b50610465610c81366004614760565b612e45565b348015610c9257600080fd5b50610465610ca1366004614156565b612f14565b348015610cb257600080fd5b50610465610cc1366004614687565b612f56565b348015610cd257600080fd5b50610ce6610ce1366004614156565b612fde565b6040516104719190614782565b348015610cff57600080fd5b50610465610d0e366004614156565b613060565b348015610d1f57600080fd5b506107c9610d2e36600461481f565b6130a2565b348015610d3f57600080fd5b50610465610d4e3660046144ef565b61318a565b348015610d5f57600080fd5b506105aa610d6e366004614156565b61325c565b348015610d7f57600080fd5b506104af610d8e3660046148a5565b61329e565b348015610d9f57600080fd5b50610465610dae3660046144ef565b613393565b348015610dbf57600080fd5b50610465610dce366004614760565b613422565b348015610ddf57600080fd5b506104af61346b565b348015610df457600080fd5b50610465610e0336600461466a565b613475565b348015610e1457600080fd5b50610465610e2336600461466a565b6134bf565b348015610e3457600080fd5b506107c9613509565b348015610e4957600080fd5b50610465610e5836600461466a565b613513565b60006001600160e01b031982166301fe701d60e21b1480610e8e57506001600160e01b03198216633b661d8360e21b145b80610ea957506001600160e01b0319821663467e3a6160e01b145b80610ec457506001600160e01b03198216637d22131d60e11b145b80610edf57506001600160e01b031982166370319bff60e11b145b80610eee5750610eee82613560565b92915050565b60008073__$122c978fc1a65ab69c7a0ac6b07fd0b0cd$__63518bf96060458787876040518563ffffffff1660e01b8152600401610f35949392919061491c565b602060405180830381865af4158015610f52573d6000803e3d6000fd5b505050506040513d601f19601f82011682018060405250810190610f769190614941565b9050336001600160a01b031683867fce5e1f2ba33f195f748a93b00ee62600b55e27cc50531a72e5443713bac23e128785604051610fb592919061495a565b60405180910390a460019150505b9392505050565b604051704c4956454c595f41444d494e5f524f4c4560781b60208201526000906031015b60405160208183030381529060405280519060200120905090565b604051637cd7c4ed60e01b8152604560048201526024810182905260009073__$c43b1d7058274a71a9734d16e6b6586431$__90637cd7c4ed906044015b602060405180830381865af4158015611064573d6000803e3d6000fd5b505050506040513d601f19601f82011682018060405250810190610eee9190614974565b6040516302a0d2e360e61b815260009073__$c43b1d7058274a71a9734d16e6b6586431$__9063a834b8c0906110c79060459087908790600401614991565b602060405180830381865af41580156110e4573d6000803e3d6000fd5b505050506040513d601f19601f82011682018060405250810190610fc39190614974565b60405162fd7cb960e41b8152604560048201526024810182905260009073__$c43b1d7058274a71a9734d16e6b6586431$__90630fd7cb9090604401611047565b60405163ec77eb2160e01b8152604560048201526024810182905260609073__$122c978fc1a65ab69c7a0ac6b07fd0b0cd$__9063ec77eb2190604401600060405180830381865af41580156111a3573d6000803e3d6000fd5b505050506040513d6000823e601f3d908101601f19168201604052610eee9190810190614a43565b60405163e24b90a960e01b8152604560048201526024810182905260009073__$c43b1d7058274a71a9734d16e6b6586431$__9063e24b90a990604401611047565b60405163442b0ca160e01b8152604560048201526024810182905260009073__$c43b1d7058274a71a9734d16e6b6586431$__9063442b0ca190604401611047565b6040516350f0b31d60e11b8152604560048201526024810182905260609073__$bc3cfbaf1827cbc66e3e608da812a405b7$__9063a1e1663a906044015b600060405180830381865af41580156112aa573d6000803e3d6000fd5b505050506040513d6000823e601f3d908101601f19168201604052610eee9190810190614a77565b60006112e1604a5461ffff1690565b905090565b6040517f4c4956454c595f44414f5f4558454355544f525f524f4c4500000000000000006020820152600090603801610fee565b60405163108ca8b760e01b81526045600482015260248101829052606090600090819073__$bc3cfbaf1827cbc66e3e608da812a405b7$__9063108ca8b790604401600060405180830381865af4158015611379573d6000803e3d6000fd5b505050506040513d6000823e601f3d908101601f191682016040526113a19190810190614b4c565b9250925092509193909250565b6040517304c4956454c595f47454e4552414c5f47524f55560641b6020820152600090603401610fee565b60008073__$6309dd7d2656d358c392b35d5c4e4605f9$__63f728a0f560458787876040518563ffffffff1660e01b815260040161141a9493929190614bce565b602060405180830381865af4158015611437573d6000803e3d6000fd5b505050506040513d601f19601f8201168201806040525081019061145b9190614941565b9050336001600160a01b0316817fde3bd866160a7f983f3c5f990127712936d37378d60b93ba96ab3a66a04feb1887878760405161149b93929190614bfb565b60405180910390a3949350505050565b604051744c4956454c595f414e4f4e594d4f55535f524f4c4560581b6020820152600090603501610fee565b60008073__$122c978fc1a65ab69c7a0ac6b07fd0b0cd$__635acd816a60458787876040518563ffffffff1660e01b8152600401611518949392919061491c565b602060405180830381865af4158015611535573d6000803e3d6000fd5b505050506040513d601f19601f820116820180604052508101906115599190614941565b9050336001600160a01b031683867f888ebbee43b69c568a7ef10a18f4afb4a0452ed2cfec2dde7a3d37b7e5ef87a38785604051610fb592919061495a565b60006001600160a01b037f00000000000000000000000000000000000000000000000000000000000000001630036115eb5760405162461bcd60e51b81526004016115e290614c21565b60405180910390fd5b7f00000000000000000000000000000000000000000000000000000000000000006001600160a01b031661161d6135b0565b6001600160a01b0316146116435760405162461bcd60e51b81526004016115e290614c50565b6000611652604a5461ffff1690565b61ffff16116116a35760405162461bcd60e51b815260206004820152601860248201527f436f6e7472616374204e6f7420496e697469616c697a6564000000000000000060448201526064016115e2565b6116b363225bf2f960e11b6135d1565b6116f75760405162461bcd60e51b815260206004820152601560248201527429b2ba29b0b332a6b7b232902337b93134b23232b760591b60448201526064016115e2565b6004805460ff191683151517905560035430336001600160a01b03167fdd452a31d2e164a1ea436c084842c27d24ae2548a575a869f71b05a4ed16243f85604051611746911515815260200190565b60405180910390a45090565b604051630227e50560e31b8152604560048201526024810182905260009073__$c43b1d7058274a71a9734d16e6b6586431$__9063113f282890604401611047565b60006001600160a01b037f00000000000000000000000000000000000000000000000000000000000000001630036117de5760405162461bcd60e51b81526004016115e290614c21565b7f00000000000000000000000000000000000000000000000000000000000000006001600160a01b03166118106135b0565b6001600160a01b0316146118365760405162461bcd60e51b81526004016115e290614c50565b60045460ff16156118595760405162461bcd60e51b81526004016115e290614c7e565b611869631239af8760e21b6135d1565b6118b55760405162461bcd60e51b815260206004820152601a60248201527f5365745570677261646553746174757320466f7262696464656e00000000000060448201526064016115e2565b6118bd613714565b6119095760405162461bcd60e51b815260206004820152601760248201527f5265616c6d205570677261646520466f7262696464656e00000000000000000060448201526064016115e2565b6004805461ff0019166101008415150217905560035430336001600160a01b03167fe9f97ad94c2ba252dcfc525e004f608ac5cb886955d8fc87d9e0ee070a698c5685604051611746911515815260200190565b604051633346dd2d60e01b8152604560048201526024810182905260009073__$c43b1d7058274a71a9734d16e6b6586431$__90633346dd2d90604401611047565b60008073__$bc3cfbaf1827cbc66e3e608da812a405b7$__6359186f406045888888886040518663ffffffff1660e01b81526004016119e2959493929190614cb5565b602060405180830381865af41580156119ff573d6000803e3d6000fd5b505050506040513d601f19601f82011682018060405250810190611a239190614941565b9050336001600160a01b0316817f5a8acbe7e0fa397d934e9aafb8fb1a483627af9e9b4690f4488d740b669f8b4788888888604051611a659493929190614ce8565b60405180910390a395945050505050565b6040517f4c4956454c595f41535345545f4d414e414745525f524f4c45000000000000006020820152600090603901610fee565b60405163017d626960e01b8152604560048201526024810182905260009073__$c43b1d7058274a71a9734d16e6b6586431$__9063017d626990604401611047565b60405163af07cfcd60e01b8152604560048201526024810182905260009073__$c43b1d7058274a71a9734d16e6b6586431$__9063af07cfcd90604401611047565b6000306001600160a01b037f00000000000000000000000000000000000000000000000000000000000000001614611ba85760405162461bcd60e51b815260206004820152601d60248201527f496c6c6567616c20436f6e74726163742044656c656761746563616c6c00000060448201526064016115e2565b506000805160206154e083398151915290565b60006112e16135b0565b6001600160a01b037f0000000000000000000000000000000000000000000000000000000000000000163003611c0d5760405162461bcd60e51b81526004016115e290614c21565b7f00000000000000000000000000000000000000000000000000000000000000006001600160a01b0316611c3f6135b0565b6001600160a01b031614611c655760405162461bcd60e51b81526004016115e290614c50565b33611c6e613850565b6001600160a01b031614611cbc5760405162461bcd60e51b815260206004820152601560248201527410d85b1b195c88139bdd08105d5d1a1bdc9a5e9959605a1b60448201526064016115e2565b604a5462010000900460ff1615808015611cde5750604a54600161ffff909116105b80611cf95750303b158015611cf95750604a5461ffff166001145b611d455760405162461bcd60e51b815260206004820152601c60248201527f436f6e747261637420416c726561647920496e697469616c697a65640000000060448201526064016115e2565b604a805461ffff191660011790558015611d6b57604a805462ff00001916620100001790555b60008484604051602001611d80929190614d14565b60408051808303601f190181529082905280516020909101206308bae38360e31b825260456004830152915073__$c43b1d7058274a71a9734d16e6b6586431$__906345d71c189060240160006040518083038186803b158015611de357600080fd5b505af4158015611df7573d6000803e3d6000fd5b50505050611e09898989898588613878565b600073__$c43b1d7058274a71a9734d16e6b6586431$__6362f3c2d46040518163ffffffff1660e01b8152600401600060405180830381865af4158015611e54573d6000803e3d6000fd5b505050506040513d6000823e601f3d908101601f19168201604052611e7c9190810190614d24565b604051631f5dcce360e31b815290915073__$122c978fc1a65ab69c7a0ac6b07fd0b0cd$__9063faee671890611ebd90604590309087908790600401614e27565b602060405180830381865af4158015611eda573d6000803e3d6000fd5b505050506040513d601f19601f82011682018060405250810190611efe9190614941565b50611f076135b0565b6001600160a01b031630336001600160a01b03167ff851a1e85477b818fc72ad517ea622cc316f10f67d61c9e740adc151a8b413948d8d8d8d89611f4e604a5461ffff1690565b604051611f6096959493929190614eff565b60405180910390a450508015611f7d57604a805462ff0000191690555b5050505050505050565b6040517f4c4956454c595f53595354454d5f41444d494e5f524f4c4500000000000000006020820152600090603801610fee565b6040516e4c4956454c595f44414f5f524f4c4560881b6020820152600090602f01610fee565b604051630e8a623f60e31b8152604560048201526024810182905260609060009073__$6309dd7d2656d358c392b35d5c4e4605f9$__9063745311f890604401600060405180830381865af415801561203e573d6000803e3d6000fd5b505050506040513d6000823e601f3d908101601f191682016040526120669190810190614f44565b91509150915091565b604051637134bb4560e01b81526045600482015260248101849052604481018390526001600160e01b03198216606482015260009073__$122c978fc1a65ab69c7a0ac6b07fd0b0cd$__90637134bb45906084015b602060405180830381865af41580156120e1573d6000803e3d6000fd5b505050506040513d601f19601f820116820180604052508101906121059190614974565b949350505050565b604051637cc5941d60e01b8152604560048201526024810183905281151560448201526000908190819073__$122c978fc1a65ab69c7a0ac6b07fd0b0cd$__90637cc5941d906064016040805180830381865af4158015612172573d6000803e3d6000fd5b505050506040513d601f19601f820116820180604052508101906121969190614f8a565b91509150806121a23390565b6001600160a01b0316867f354501e3216e5f916d4d35ef255a577d106a7eab306488227783a837dc042a4e876040516121df911515815260200190565b60405180910390a4509392505050565b60606001600160a01b037f00000000000000000000000000000000000000000000000000000000000000001630036122395760405162461bcd60e51b81526004016115e290614c21565b7f00000000000000000000000000000000000000000000000000000000000000006001600160a01b031661226b6135b0565b6001600160a01b0316146122915760405162461bcd60e51b81526004016115e290614c50565b60045460ff16156122b45760405162461bcd60e51b81526004016115e290614c7e565b600454610100900460ff166123035760405162461bcd60e51b8152602060048201526015602482015274155c19dc9859194810d85b1b0814995a9958dd1959605a1b60448201526064016115e2565b61230c8461388e565b612105848484613955565b604051734c4956454c595f47454e4552414c5f5245414c4d60601b6020820152600090603401610fee565b60045460ff16156123655760405162461bcd60e51b81526004016115e290614c7e565b61237563756af45f60e01b6135d1565b6123c15760405162461bcd60e51b815260206004820152601a60248201527f57697468647261772042616c616e636520466f7262696464656e00000000000060448201526064016115e2565b6040516001600160a01b038216904780156108fc02916000818181858888f193505050501580156123f6573d6000803e3d6000fd5b5050565b60008073__$122c978fc1a65ab69c7a0ac6b07fd0b0cd$__63453dd6dc60458787876040518563ffffffff1660e01b815260040161243b949392919061491c565b602060405180830381865af4158015612458573d6000803e3d6000fd5b505050506040513d601f19601f8201168201806040525081019061247c9190614941565b9050336001600160a01b031683867fea00ff399a342f54b82233841f91faa5677300e901667e010e9f22aea1ae59318785604051610fb592919061495a565b60006112e130613ba6565b6000336001600160a01b0316837ffe1617b569bd167ab40b31e034f68e32656219dbe4ab9469a00660550fec72c884604051612506911515815260200190565b60405180910390a3604051630549f02d60e01b81526045600482015260248101849052821515604482015273__$bc3cfbaf1827cbc66e3e608da812a405b7$__90630549f02d906064016110c7565b6040516310f0750160e01b8152604560048201526024810182905260009073__$c43b1d7058274a71a9734d16e6b6586431$__906310f0750190604401611047565b6040516000906001600160a01b03831690849033907fd992f85df7a0be47c44b0be141be17eefd360033a4ce05b5458fba27b7781999908590a46040516389d4da6560e01b815260456004820152602481018490526001600160a01b038316604482015273__$340101a45712d3611711048793ce62ace0$__906389d4da65906064016110c7565b60405163327c496560e11b8152604560048201526024810182905260009073__$c43b1d7058274a71a9734d16e6b6586431$__906364f892ca90604401611047565b60405163be74825b60e01b8152604560048201526001600160a01b038216602482015260009073__$c43b1d7058274a71a9734d16e6b6586431$__9063be74825b90604401611047565b6040805160c081018252600080825260208201819052818301819052606082018190526080820181905260a0820152905163399d749f60e11b8152604560048201526024810183905273__$122c978fc1a65ab69c7a0ac6b07fd0b0cd$__9063733ae93e9060440160c060405180830381865af4158015612730573d6000803e3d6000fd5b505050506040513d601f19601f82011682018060405250810190610eee9190614fb8565b604051636c203fff60e11b8152604560048201526001600160a01b038216602482015260009073__$c43b1d7058274a71a9734d16e6b6586431$__9063d8407ffe90604401611047565b60008073__$340101a45712d3611711048793ce62ace0$__633859eb7f6045888888886040518663ffffffff1660e01b81526004016127e1959493929190615049565b602060405180830381865af41580156127fe573d6000803e3d6000fd5b505050506040513d601f19601f820116820180604052508101906128229190614941565b90508585604051612834929190614d14565b6040518091039020816128443390565b6001600160a01b03167f539b07dddd6bd9ffefa3d951a9467d78948cbe1a8d13be00e7376842a83a598187876040516128899291909182521515602082015260400190565b60405180910390a495945050505050565b6040516337b3cdd760e21b815260009073__$c43b1d7058274a71a9734d16e6b6586431$__9063decf375c906110c79060459087908790600401614991565b60008073__$122c978fc1a65ab69c7a0ac6b07fd0b0cd$__63b0c25575604586866040518463ffffffff1660e01b815260040161291893929190614991565b602060405180830381865af4158015612935573d6000803e3d6000fd5b505050506040513d601f19601f820116820180604052508101906129599190614941565b9050336001600160a01b0316847fa6234dfea6da9d63d0505ba9b61ac8405dfd897089208859cda18011c4847d69858460405161299792919061495a565b60405180910390a35060019392505050565b6000336001600160a01b0316837fe595d6b009cbfd06bfdfc4b7c06799f0e0b08fb2c6f5fa6e28a9aac2495440f9846040516129e9911515815260200190565b60405180910390a3604051637c95bcdf60e01b81526045600482015260248101849052821515604482015273__$6309dd7d2656d358c392b35d5c4e4605f9$__90637c95bcdf906064016110c7565b604051631f9471ef60e01b81526045600482015260248101829052606090600090819073__$340101a45712d3611711048793ce62ace0$__90631f9471ef90604401600060405180830381865af4158015612a97573d6000803e3d6000fd5b505050506040513d6000823e601f3d908101601f191682016040526113a1919081019061507c565b604051633bcd353d60e11b8152604560048201526024810182905260009073__$c43b1d7058274a71a9734d16e6b6586431$__9063779a6a7a90604401611047565b604051630243e34b60e51b815260456004820152602481018490526001600160a01b03831660448201526001600160e01b03198216606482015260009073__$c43b1d7058274a71a9734d16e6b6586431$__9063487c6960906084016120c4565b604051630938ae7160e01b815260456004820152602481018390526001600160a01b038216604482015260009073__$340101a45712d3611711048793ce62ace0$__90630938ae71906064016110c7565b604051631f00af7b60e11b81526045600482015260248101839052604481018290526000908190819073__$122c978fc1a65ab69c7a0ac6b07fd0b0cd$__90633e015ef6906064016040805180830381865af4158015612c17573d6000803e3d6000fd5b505050506040513d601f19601f82011682018060405250810190612c3b9190614f8a565b9150915083612c473390565b6001600160a01b0316867fa0eaa0025d4f12545803a03c369115c59f885df7b5fc07a6393438827dbf51b7846040516121df91815260200190565b604051631e7abee360e21b815260456004820152602481018390526044810182905260009073__$bc3cfbaf1827cbc66e3e608da812a405b7$__906379eafb8c906064016110c7565b60006001600160a01b037f0000000000000000000000000000000000000000000000000000000000000000163003612d155760405162461bcd60e51b81526004016115e290614c21565b7f00000000000000000000000000000000000000000000000000000000000000006001600160a01b0316612d476135b0565b6001600160a01b031614612d6d5760405162461bcd60e51b81526004016115e290614c50565b60045460ff1615612d905760405162461bcd60e51b81526004016115e290614c7e565b612da063d9dc1f1960e01b6135d1565b612dec5760405162461bcd60e51b815260206004820152601760248201527f5365744c6f63616c41646d696e20466f7262696464656e00000000000000000060448201526064016115e2565b6001600160a01b038216612e345760405162461bcd60e51b815260206004820152600f60248201526e1059191c995cdcc8125b9d985b1a59608a1b60448201526064016115e2565b612e3d82613be5565b506001919050565b60405163c3203fd160e01b81526045600482015260248101839052604481018290526000908190819073__$340101a45712d3611711048793ce62ace0$__9063c3203fd1906064016040805180830381865af4158015612ea9573d6000803e3d6000fd5b505050506040513d601f19601f82011682018060405250810190612ecd9190614f8a565b915091508385612eda3390565b6001600160a01b03167f970f60a11b3302f55122bdb3e2de766d28491b40fe0a2a6d04da71e5ab577cb9846040516121df91815260200190565b60405163d95140eb60e01b8152604560048201526024810182905260009073__$c43b1d7058274a71a9734d16e6b6586431$__9063d95140eb90604401611047565b6040516000906001600160a01b03831690849033907f1d31fe42f06d4c1f16f6cb7b5682f1d6743641a9e1412fa0258f6776c5b943ee908590a4604051633d58057760e01b815260456004820152602481018490526001600160a01b038316604482015273__$340101a45712d3611711048793ce62ace0$__90633d580577906064016110c7565b604051633e5c6e9760e11b8152604560048201526024810182905260609073__$340101a45712d3611711048793ce62ace0$__90637cb8dd2e90604401600060405180830381865af4158015613038573d6000803e3d6000fd5b505050506040513d6000823e601f3d908101601f19168201604052610eee91908101906150cb565b6040516333064c8960e11b8152604560048201526024810182905260009073__$c43b1d7058274a71a9734d16e6b6586431$__9063660c991290604401611047565b600080600073__$122c978fc1a65ab69c7a0ac6b07fd0b0cd$__63099a0c2e60458a8a8a8a8a6040518763ffffffff1660e01b81526004016130e996959493929190615259565b6040805180830381865af4158015613105573d6000803e3d6000fd5b505050506040513d601f19601f820116820180604052508101906131299190615322565b91509150806001600160a01b0316826001600160a01b0316897f2acec3419c1d10dab06d0715f556e96b344f2092a52a23fb192b4b89f5b7cf42896040013560405161317791815260200190565b60405180910390a4509695505050505050565b604051633d2003d360e21b8152604560048201526024810183905281151560448201526000908190819073__$340101a45712d3611711048793ce62ace0$__9063f4800f4c906064016040805180830381865af41580156131ef573d6000803e3d6000fd5b505050506040513d601f19601f820116820180604052508101906132139190614f8a565b9150915080856132203390565b6001600160a01b03167faaf3a0e62c1102e283a5a18e81d678b9ce6f4f043cc7afafee4f7f82b85330a2876040516121df911515815260200190565b6040516309f7398160e11b8152604560048201526024810182905260609073__$6309dd7d2656d358c392b35d5c4e4605f9$__906313ee73029060440161128d565b600080600073__$122c978fc1a65ab69c7a0ac6b07fd0b0cd$__6315922efe6045898989896040518663ffffffff1660e01b81526004016132e3959493929190615351565b6040805180830381865af41580156132ff573d6000803e3d6000fd5b505050506040513d601f19601f820116820180604052508101906133239190615415565b90925090506001600160a01b038116613342608088016060890161466a565b6001600160a01b0316837f11cf8f3561fae187c57df59424ecf5d3f444e138924944c77dcb68144c635731896040013560405161338191815260200190565b60405180910390a45095945050505050565b6000336001600160a01b0316837f552ce1fc1bc82a48cdc0636ff7162480d868c590f2e57c63c30a944f3a82ec36846040516133d3911515815260200190565b60405180910390a36040516315b18c7560e11b81526045600482015260248101849052821515604482015273__$bc3cfbaf1827cbc66e3e608da812a405b7$__90632b6318ea906064016110c7565b604051634ba8456360e01b815260456004820152602481018390526044810182905260009073__$6309dd7d2656d358c392b35d5c4e4605f9$__90634ba84563906064016110c7565b60006112e1613c5c565b60405163470e456560e01b8152604560048201526001600160a01b038216602482015260009073__$c43b1d7058274a71a9734d16e6b6586431$__9063470e456590604401611047565b60405163fbe97e1960e01b8152604560048201526001600160a01b038216602482015260009073__$c43b1d7058274a71a9734d16e6b6586431$__9063fbe97e1990604401611047565b60006112e1613850565b60405163e8a0df2d60e01b8152604560048201526001600160a01b038216602482015260009073__$c43b1d7058274a71a9734d16e6b6586431$__9063e8a0df2d90604401611047565b90565b60006001600160e01b0319821663748be05360e01b148061359157506001600160e01b031982166352d1902d60e01b145b80610eee57506301ffc9a760e01b6001600160e01b0319831614610eee565b60006000805160206154e08339815191525b546001600160a01b0316919050565b600080546001600160a01b031630036136bd5760006363d59cf360e11b6135f730613ba6565b338560405160240161360b9392919061543a565b60408051601f198184030181529190526020810180516001600160e01b03166001600160e01b0319909316929092179091529050600061368861364c6135b0565b836040518060400160405280601d81526020017f44656c656761746563616c6c20686173416363657373204661696c6564000000815250613caf565b905080600182516136999190615463565b815181106136a9576136a9615488565b60209101015160f81c600114949350505050565b6000546001600160a01b031663c7ab39e66136d730613ba6565b33856040518463ffffffff1660e01b81526004016136f79392919061543a565b602060405180830381865afa158015611064573d6000803e3d6000fd5b600080546001600160a01b031630036137da57600063e25d75f060e01b60035460405160240161374691815260200190565b60408051601f198184030181529190526020810180516001600160e01b03166001600160e01b031990931692909217909152905060006137a66137876135b0565b836040518060600160405280602581526020016154bb60259139613caf565b905080600182516137b79190615463565b815181106137c7576137c7615488565b60209101015160f81c6001149392505050565b600054600354604051630e25d75f60e41b81526001600160a01b039092169163e25d75f09161380f9160040190815260200190565b602060405180830381865afa15801561382c573d6000803e3d6000fd5b505050506040513d601f19601f820116820180604052508101906112e19190614974565b60007fb53127684a568b3173ae13b9f8a6016e243e63b6e8ee1178d6a717850b5d61036135c2565b613886868686868686613d78565b505050505050565b6138966135b0565b6001600160a01b0316816001600160a01b0316036138f65760405162461bcd60e51b815260206004820152601a60248201527f496c6c6567616c204e657720496d706c656d656e746174696f6e00000000000060448201526064016115e2565b613906637147855d60e01b6135d1565b6139525760405162461bcd60e51b815260206004820152601960248201527f5570677261646520436f6e7465787420466f7262696464656e0000000000000060448201526064016115e2565b50565b60607f4910fdfa16fed3260ed0e7147f7cc6da11a60208b5b9406d12a635614ffd91435460ff161561399f5761398a84613f83565b50604080516000815260208101909152610fc3565b836001600160a01b03166352d1902d6040518163ffffffff1660e01b8152600401602060405180830381865afa9250505080156139f9575060408051601f3d908101601f191682019092526139f691810190614941565b60015b613a3d5760405162461bcd60e51b8152602060048201526015602482015274125b1b1959d85b0815555414c810dbdb9d1c9858dd605a1b60448201526064016115e2565b6000805160206154e08339815191528114613a925760405162461bcd60e51b8152602060048201526015602482015274125b9d985b1a590815555414c810dbdb9d1c9858dd605a1b60448201526064016115e2565b506040516301ffc9a760e01b815263748be05360e01b60048201526001600160a01b038516906301ffc9a790602401602060405180830381865afa925050508015613afa575060408051601f3d908101601f19168201909252613af791810190614974565b60015b613b465760405162461bcd60e51b815260206004820152601760248201527f496c6c6567616c204950726f787920436f6e747261637400000000000000000060448201526064016115e2565b80613b935760405162461bcd60e51b815260206004820152601760248201527f496e76616c6964204950726f787920436f6e747261637400000000000000000060448201526064016115e2565b50613b9f848484614004565b9050610fc3565b6040516bffffffffffffffffffffffff19606083901b166020820152600090603401604051602081830303815290604052805190602001209050919050565b7fb53127684a568b3173ae13b9f8a6016e243e63b6e8ee1178d6a717850b5d610380546001600160a01b0383166001600160a01b031990911681179091556040805191825251309133917f54ab0d18de7958786ba1ad85966d59baa2b395455f0530dcdcfd732e6af539e29181900360200190a350565b600154600254604080517f8b73c3c69bb8fe3d512ecc4cf759cc79239f7b179b0ffacaa9a75d522b39400f60208201529081019290925260608201524660808201523060a082015260009060c001610fee565b60606001600160a01b0384163b613d035760405162461bcd60e51b8152602060048201526018602482015277496c6c6567616c20436f6e7472616374204164647265737360401b60448201526064016115e2565b600080856001600160a01b031685604051613d1e919061549e565b600060405180830381855af49150503d8060008114613d59576040519150601f19603f3d011682016040523d82523d6000602084013e613d5e565b606091505b5091509150613d6e82828661406e565b9695505050505050565b604a5462010000900460ff16613dd05760405162461bcd60e51b815260206004820152601960248201527f436f6e7472616374204e6f7420496e697469616c697a696e670000000000000060448201526064016115e2565b8585604051602001613de3929190614d14565b60408051601f19818403018152908290528051602091820120600155613e0d918691869101614d14565b60408051601f19818403018152919052805160209091012060025560038290556001600160a01b038116613e5257600080546001600160a01b03191630179055613f6f565b6040516301ffc9a760e01b81526301fe701d60e21b60048201526001600160a01b038216906301ffc9a790602401602060405180830381865afa925050508015613eb9575060408051601f3d908101601f19168201909252613eb691810190614974565b60015b613f055760405162461bcd60e51b815260206004820152601c60248201527f496c6c6567616c20416363657373436f6e74726f6c4d616e616765720000000060448201526064016115e2565b80613f525760405162461bcd60e51b815260206004820152601c60248201527f496e76616c696420416363657373436f6e74726f6c4d616e616765720000000060448201526064016115e2565b50600080546001600160a01b0319166001600160a01b0383161790555b6004805461ffff1916905561388633613be5565b6001600160a01b0381163b613fd55760405162461bcd60e51b8152602060048201526018602482015277496c6c6567616c20436f6e7472616374204164647265737360401b60448201526064016115e2565b6000805160206154e083398151915280546001600160a01b0319166001600160a01b0392909216919091179055565b606061400f846140a7565b60008351118061401c5750815b1561405757613b9f84846040518060400160405280601381526020017211195b1959d85d1958d85b1b0811985a5b1959606a1b815250613caf565b505060408051600081526020810190915292915050565b6060831561407d575081610fc3565b82511561408d5782518084602001fd5b8160405162461bcd60e51b81526004016115e29190614657565b6140b081613f83565b6040516001600160a01b03821690309033907f354bd4b6eb65d64e6c79c53fa4f983a5e6bec4824ce4627c71be0b2722f4917e90600090a450565b6001600160e01b03198116811461395257600080fd5b60006020828403121561411357600080fd5b8135610fc3816140eb565b60008060006060848603121561413357600080fd5b833592506020840135614145816140eb565b929592945050506040919091013590565b60006020828403121561416857600080fd5b5035919050565b6000806040838503121561418257600080fd5b823591506020830135614194816140eb565b809150509250929050565b6020808252825182820181905260009190848201906040850190845b818110156141e15783516001600160e01b031916835292840192918401916001016141bb565b50909695505050505050565b6020808252825182820181905260009190848201906040850190845b818110156141e157835183529284019291840191600101614209565b60005b83811015614240578181015183820152602001614228565b8381111561424f576000848401525b50505050565b6000815180845261426d816020860160208601614225565b601f01601f19169290920160200192915050565b6060815260006142946060830186614255565b931515602083015250901515604090910152919050565b60008083601f8401126142bd57600080fd5b5081356001600160401b038111156142d457600080fd5b6020830191508360208285010111156142ec57600080fd5b9250929050565b801515811461395257600080fd5b60008060006040848603121561431657600080fd5b83356001600160401b0381111561432c57600080fd5b614338868287016142ab565b909450925050602084013561434c816142f3565b809150509250925092565b60006020828403121561436957600080fd5b8135610fc3816142f3565b6000806000806060858703121561438a57600080fd5b84356001600160401b038111156143a057600080fd5b6143ac878288016142ab565b90955093505060208501356143c0816142f3565b915060408501356143d0816142f3565b939692955090935050565b6001600160a01b038116811461395257600080fd5b60008060008060008060006080888a03121561440b57600080fd5b87356001600160401b038082111561442257600080fd5b61442e8b838c016142ab565b909950975060208a013591508082111561444757600080fd5b6144538b838c016142ab565b909750955060408a013591508082111561446c57600080fd5b506144798a828b016142ab565b909450925050606088013561448d816143db565b8091505092959891949750929550565b6040815260006144b06040830185614255565b905082151560208301529392505050565b6000806000606084860312156144d657600080fd5b8335925060208401359150604084013561434c816140eb565b6000806040838503121561450257600080fd5b823591506020830135614194816142f3565b634e487b7160e01b600052604160045260246000fd5b604051606081016001600160401b038111828210171561454c5761454c614514565b60405290565b604051601f8201601f191681016001600160401b038111828210171561457a5761457a614514565b604052919050565b60006001600160401b0382111561459b5761459b614514565b50601f01601f191660200190565b600082601f8301126145ba57600080fd5b81356145cd6145c882614582565b614552565b8181528460208386010111156145e257600080fd5b816020850160208301376000918101602001919091529392505050565b60008060006060848603121561461457600080fd5b833561461f816143db565b925060208401356001600160401b0381111561463a57600080fd5b614646868287016145a9565b925050604084013561434c816142f3565b602081526000610fc36020830184614255565b60006020828403121561467c57600080fd5b8135610fc3816143db565b6000806040838503121561469a57600080fd5b823591506020830135614194816143db565b600080600080606085870312156146c257600080fd5b84356001600160401b038111156146d857600080fd5b6146e4878288016142ab565b9095509350506020850135915060408501356143d0816142f3565b6060815260006147126060830186614255565b602083019490945250901515604090910152919050565b60008060006060848603121561473e57600080fd5b833592506020840135614750816143db565b9150604084013561434c816140eb565b6000806040838503121561477357600080fd5b50508035926020909101359150565b6020808252825182820181905260009190848201906040850190845b818110156141e15783516001600160a01b03168352928401929184019160010161479e565b600060a082840312156147d557600080fd5b50919050565b60008083601f8401126147ed57600080fd5b5081356001600160401b0381111561480457600080fd5b6020830191508360208260051b85010111156142ec57600080fd5b6000806000806000610100868803121561483857600080fd5b8535945060208601356001600160401b038082111561485657600080fd5b61486289838a016145a9565b95506148718960408a016147c3565b945060e088013591508082111561488757600080fd5b50614894888289016147db565b969995985093965092949392505050565b60008060008060e085870312156148bb57600080fd5b84356001600160401b03808211156148d257600080fd5b6148de888389016145a9565b95506148ed88602089016147c3565b945060c087013591508082111561490357600080fd5b50614910878288016147db565b95989497509550505050565b93845260208401929092526001600160e01b0319166040830152606082015260800190565b60006020828403121561495357600080fd5b5051919050565b6001600160e01b0319929092168252602082015260400190565b60006020828403121561498657600080fd5b8151610fc3816142f3565b92835260208301919091526001600160e01b031916604082015260600190565b60006001600160401b038211156149ca576149ca614514565b5060051b60200190565b600082601f8301126149e557600080fd5b815160206149f56145c8836149b1565b82815260059290921b84018101918181019086841115614a1457600080fd5b8286015b84811015614a38578051614a2b816140eb565b8352918301918301614a18565b509695505050505050565b600060208284031215614a5557600080fd5b81516001600160401b03811115614a6b57600080fd5b612105848285016149d4565b60006020808385031215614a8a57600080fd5b82516001600160401b03811115614aa057600080fd5b8301601f81018513614ab157600080fd5b8051614abf6145c8826149b1565b81815260059190911b82018301908381019087831115614ade57600080fd5b928401925b82841015614afc57835182529284019290840190614ae3565b979650505050505050565b600082601f830112614b1857600080fd5b8151614b266145c882614582565b818152846020838601011115614b3b57600080fd5b612105826020830160208701614225565b600080600060608486031215614b6157600080fd5b83516001600160401b03811115614b7757600080fd5b614b8386828701614b07565b9350506020840151614b94816142f3565b604085015190925061434c816142f3565b81835281816020850137506000828201602090810191909152601f909101601f19169091010190565b848152606060208201526000614be8606083018587614ba5565b9050821515604083015295945050505050565b604081526000614c0f604083018587614ba5565b90508215156020830152949350505050565b602080825260159082015274125b1b1959d85b0810dbdb9d1c9858dd0810d85b1b605a1b604082015260600190565b602080825260149082015273141c9bde1e4810d85b1b195908125b9d985b1a5960621b604082015260600190565b60208082526017908201527f536166654d6f64653a2043616c6c2052656a6563746564000000000000000000604082015260600190565b858152608060208201526000614ccf608083018688614ba5565b9315156040830152509015156060909101529392505050565b606081526000614cfc606083018688614ba5565b93151560208301525090151560409091015292915050565b8183823760009101908152919050565b60006020808385031215614d3757600080fd5b82516001600160401b0380821115614d4e57600080fd5b818501915085601f830112614d6257600080fd5b8151614d706145c8826149b1565b81815260059190911b83018401908481019088831115614d8f57600080fd5b8585015b83811015614e1a57805185811115614dab5760008081fd5b86016060818c03601f1901811315614dc35760008081fd5b614dcb61452a565b89830151815260408084015189811115614de55760008081fd5b614df38f8d838801016149d4565b838d0152509282015192614e06846142f3565b810192909252508352918601918601614d93565b5098975050505050505050565b60006080808301878452602060018060a01b03881681860152604087818701526060848188015283885180865260a08901915060a08160051b8a01019550848a016000805b83811015614eeb578b8903609f19018552825180518a5288810151898b018890528051888c01819052908a019084908d8d01905b80831015614eca5783516001600160e01b0319168252928c019260019290920191908c0190614ea0565b50928a015115159b8a019b909b525098509387019391870191600101614e6c565b50969e9d5050505050505050505050505050565b608081526000614f1360808301888a614ba5565b8281036020840152614f26818789614ba5565b91505083604083015261ffff83166060830152979650505050505050565b60008060408385031215614f5757600080fd5b82516001600160401b03811115614f6d57600080fd5b614f7985828601614b07565b9250506020830151614194816142f3565b60008060408385031215614f9d57600080fd5b8251614fa8816142f3565b6020939093015192949293505050565b600060c08284031215614fca57600080fd5b60405160c081018181106001600160401b0382111715614fec57614fec614514565b80604052508251815260208301516020820152604083015160408201526060830151615017816143db565b6060820152608083015161502a816142f3565b608082015260a083015161503d816142f3565b60a08201529392505050565b858152608060208201526000615063608083018688614ba5565b6040830194909452509015156060909101529392505050565b60008060006060848603121561509157600080fd5b83516001600160401b038111156150a757600080fd5b6150b386828701614b07565b93505060208401519150604084015161434c816142f3565b600060208083850312156150de57600080fd5b82516001600160401b038111156150f457600080fd5b8301601f8101851361510557600080fd5b80516151136145c8826149b1565b81815260059190911b8201830190838101908783111561513257600080fd5b928401925b82841015614afc57835161514a816143db565b82529284019290840190615137565b803582526020810135602083015260408101356040830152606081013561517f816143db565b6001600160a01b03166060830152608081013561519b816142f3565b8015156080840152505050565b6000808335601e198436030181126151bf57600080fd5b83016020810192503590506001600160401b038111156151de57600080fd5b8060051b36038213156142ec57600080fd5b8183526000602080850194508260005b8581101561522f578135615213816140eb565b6001600160e01b03191687529582019590820190600101615200565b509495945050505050565b60008235605e1983360301811261525057600080fd5b90910192915050565b6000610120888352602088818501526040828186015261527b8386018a614255565b9250606061528b8187018a615159565b858403610100870152868452828401600588901b85018401896000805b8b81101561530d57888403601f190185526152c3838e61523a565b803585526152d3898201826151a8565b888b8801526152e589880182846151f0565b928a013592915050600382106152f9578384fd5b9488015293870193918701916001016152a8565b50919f9e505050505050505050505050505050565b6000806040838503121561533557600080fd5b8251615340816143db565b6020840151909250614194816143db565b60006101008783526020818185015261536c82850189614255565b9150604061537c81860189615159565b84830360e0860152858352818301600587901b840183018860005b8981101561540357868303601f190184526153b2828c61523a565b6060813585526153c4888301836151a8565b828a8801526153d683880182846151f0565b925050508682013591506153e9826142f3565b901515938601939093529285019290850190600101615397565b50909c9b505050505050505050505050565b6000806040838503121561542857600080fd5b825191506020830151614194816143db565b9283526001600160a01b039190911660208301526001600160e01b031916604082015260600190565b60008282101561548357634e487b7160e01b600052601160045260246000fd5b500390565b634e487b7160e01b600052603260045260246000fd5b600082516154b0818460208701614225565b919091019291505056fe44656c656761746563616c6c2069735265616c6d55706772616461626c65204661696c6564360894a13ba1a3210667c828492db98dca3e2076cc3735a920a3ca505d382bbca26469706673582212207cf62b12fc267195c9cf1b83b0528771e5e1a4fe2afd80e9699a28e250ceca3064736f6c634300080f0033b53127684a568b3173ae13b9f8a6016e243e63b6e8ee1178d6a717850b5d6103",
  "linkReferences": {
    "src/contracts/lib/acl/LAccessControl.sol": {
      "LAccessControl": [
        {
          "length": 20,
          "start": 4582
        },
        {
          "length": 20,
          "start": 4695
        },
        {
          "length": 20,
          "start": 4836
        },
        {
          "length": 20,
          "start": 5032
        },
        {
          "length": 20,
          "start": 5098
        },
        {
          "length": 20,
          "start": 6447
        },
        {
          "length": 20,
          "start": 6970
        },
        {
          "length": 20,
          "start": 7303
        },
        {
          "length": 20,
          "start": 7369
        },
        {
          "length": 20,
          "start": 8043
        },
        {
          "length": 20,
          "start": 8138
        },
        {
          "length": 20,
          "start": 10034
        },
        {
          "length": 20,
          "start": 10236
        },
        {
          "length": 20,
          "start": 10310
        },
        {
          "length": 20,
          "start": 10553
        },
        {
          "length": 20,
          "start": 10857
        },
        {
          "length": 20,
          "start": 11420
        },
        {
          "length": 20,
          "start": 11517
        },
        {
          "length": 20,
          "start": 12529
        },
        {
          "length": 20,
          "start": 12861
        },
        {
          "length": 20,
          "start": 13914
        },
        {
          "length": 20,
          "start": 13988
        },
        {
          "length": 20,
          "start": 14072
        }
      ]
    },
    "src/contracts/lib/acl/LContextManagement.sol": {
      "LContextManagement": [
        {
          "length": 20,
          "start": 4278
        },
        {
          "length": 20,
          "start": 4902
        },
        {
          "length": 20,
          "start": 5785
        },
        {
          "length": 20,
          "start": 8267
        },
        {
          "length": 20,
          "start": 8803
        },
        {
          "length": 20,
          "start": 8950
        },
        {
          "length": 20,
          "start": 9660
        },
        {
          "length": 20,
          "start": 10419
        },
        {
          "length": 20,
          "start": 10907
        },
        {
          "length": 20,
          "start": 11675
        },
        {
          "length": 20,
          "start": 12902
        },
        {
          "length": 20,
          "start": 13410
        }
      ]
    },
    "src/contracts/lib/acl/LGroupManagement.sol": {
      "LGroupManagement": [
        {
          "length": 20,
          "start": 5531
        },
        {
          "length": 20,
          "start": 8641
        },
        {
          "length": 20,
          "start": 11219
        },
        {
          "length": 20,
          "start": 13369
        },
        {
          "length": 20,
          "start": 13830
        }
      ]
    },
    "src/contracts/lib/acl/LRealmManagement.sol": {
      "LRealmManagement": [
        {
          "length": 20,
          "start": 5164
        },
        {
          "length": 20,
          "start": 5372
        },
        {
          "length": 20,
          "start": 7009
        },
        {
          "length": 20,
          "start": 9968
        },
        {
          "length": 20,
          "start": 11878
        },
        {
          "length": 20,
          "start": 13757
        }
      ]
    },
    "src/contracts/lib/acl/LRoleManagement.sol": {
      "LRoleManagement": [
        {
          "length": 20,
          "start": 10170
        },
        {
          "length": 20,
          "start": 10592
        },
        {
          "length": 20,
          "start": 11290
        },
        {
          "length": 20,
          "start": 11598
        },
        {
          "length": 20,
          "start": 12333
        },
        {
          "length": 20,
          "start": 12665
        },
        {
          "length": 20,
          "start": 12731
        },
        {
          "length": 20,
          "start": 13171
        }
      ]
    }
  },
  "deployedLinkReferences": {
    "src/contracts/lib/acl/LAccessControl.sol": {
      "LAccessControl": [
        {
          "length": 20,
          "start": 4137
        },
        {
          "length": 20,
          "start": 4250
        },
        {
          "length": 20,
          "start": 4391
        },
        {
          "length": 20,
          "start": 4587
        },
        {
          "length": 20,
          "start": 4653
        },
        {
          "length": 20,
          "start": 6002
        },
        {
          "length": 20,
          "start": 6525
        },
        {
          "length": 20,
          "start": 6858
        },
        {
          "length": 20,
          "start": 6924
        },
        {
          "length": 20,
          "start": 7598
        },
        {
          "length": 20,
          "start": 7693
        },
        {
          "length": 20,
          "start": 9589
        },
        {
          "length": 20,
          "start": 9791
        },
        {
          "length": 20,
          "start": 9865
        },
        {
          "length": 20,
          "start": 10108
        },
        {
          "length": 20,
          "start": 10412
        },
        {
          "length": 20,
          "start": 10975
        },
        {
          "length": 20,
          "start": 11072
        },
        {
          "length": 20,
          "start": 12084
        },
        {
          "length": 20,
          "start": 12416
        },
        {
          "length": 20,
          "start": 13469
        },
        {
          "length": 20,
          "start": 13543
        },
        {
          "length": 20,
          "start": 13627
        }
      ]
    },
    "src/contracts/lib/acl/LContextManagement.sol": {
      "LContextManagement": [
        {
          "length": 20,
          "start": 3833
        },
        {
          "length": 20,
          "start": 4457
        },
        {
          "length": 20,
          "start": 5340
        },
        {
          "length": 20,
          "start": 7822
        },
        {
          "length": 20,
          "start": 8358
        },
        {
          "length": 20,
          "start": 8505
        },
        {
          "length": 20,
          "start": 9215
        },
        {
          "length": 20,
          "start": 9974
        },
        {
          "length": 20,
          "start": 10462
        },
        {
          "length": 20,
          "start": 11230
        },
        {
          "length": 20,
          "start": 12457
        },
        {
          "length": 20,
          "start": 12965
        }
      ]
    },
    "src/contracts/lib/acl/LGroupManagement.sol": {
      "LGroupManagement": [
        {
          "length": 20,
          "start": 5086
        },
        {
          "length": 20,
          "start": 8196
        },
        {
          "length": 20,
          "start": 10774
        },
        {
          "length": 20,
          "start": 12924
        },
        {
          "length": 20,
          "start": 13385
        }
      ]
    },
    "src/contracts/lib/acl/LRealmManagement.sol": {
      "LRealmManagement": [
        {
          "length": 20,
          "start": 4719
        },
        {
          "length": 20,
          "start": 4927
        },
        {
          "length": 20,
          "start": 6564
        },
        {
          "length": 20,
          "start": 9523
        },
        {
          "length": 20,
          "start": 11433
        },
        {
          "length": 20,
          "start": 13312
        }
      ]
    },
    "src/contracts/lib/acl/LRoleManagement.sol": {
      "LRoleManagement": [
        {
          "length": 20,
          "start": 9725
        },
        {
          "length": 20,
          "start": 10147
        },
        {
          "length": 20,
          "start": 10845
        },
        {
          "length": 20,
          "start": 11153
        },
        {
          "length": 20,
          "start": 11888
        },
        {
          "length": 20,
          "start": 12220
        },
        {
          "length": 20,
          "start": 12286
        },
        {
          "length": 20,
          "start": 12726
        }
      ]
    }
  },
  "devdoc": {
    "kind": "dev",
    "methods": {
      "hasAccess(bytes32,address,bytes4)": {
        "details": "Function called by apps to check ACL",
        "returns": {
          "_0": "boolean indicating whether the ACL allows"
        }
      },
      "proxiableUUID()": {
        "details": "Implementation of the ERC1822 {proxiableUUID} function. This returns the storage slot used by the implementation. It is used to validate that the this implementation remains valid after an upgrade. IMPORTANT: A proxy pointing at a proxiable contract should not be considered proxiable itself, because this risks bricking a proxy that upgrades to it, by delegating to itself until out of gas. Thus it is critical that this function revert if invoked through a proxy. This is guaranteed by the `notDelegated` modifier."
      },
      "supportsInterface(bytes4)": {
        "details": "See {IERC165-supportsInterface}."
      }
    },
    "version": 1
  },
  "evm": {
    "bytecode": {
      "linkReferences": {
        "src/contracts/lib/acl/LAccessControl.sol": {
          "LAccessControl": [
            {
              "length": 20,
              "start": 4582
            },
            {
              "length": 20,
              "start": 4695
            },
            {
              "length": 20,
              "start": 4836
            },
            {
              "length": 20,
              "start": 5032
            },
            {
              "length": 20,
              "start": 5098
            },
            {
              "length": 20,
              "start": 6447
            },
            {
              "length": 20,
              "start": 6970
            },
            {
              "length": 20,
              "start": 7303
            },
            {
              "length": 20,
              "start": 7369
            },
            {
              "length": 20,
              "start": 8043
            },
            {
              "length": 20,
              "start": 8138
            },
            {
              "length": 20,
              "start": 10034
            },
            {
              "length": 20,
              "start": 10236
            },
            {
              "length": 20,
              "start": 10310
            },
            {
              "length": 20,
              "start": 10553
            },
            {
              "length": 20,
              "start": 10857
            },
            {
              "length": 20,
              "start": 11420
            },
            {
              "length": 20,
              "start": 11517
            },
            {
              "length": 20,
              "start": 12529
            },
            {
              "length": 20,
              "start": 12861
            },
            {
              "length": 20,
              "start": 13914
            },
            {
              "length": 20,
              "start": 13988
            },
            {
              "length": 20,
              "start": 14072
            }
          ]
        },
        "src/contracts/lib/acl/LContextManagement.sol": {
          "LContextManagement": [
            {
              "length": 20,
              "start": 4278
            },
            {
              "length": 20,
              "start": 4902
            },
            {
              "length": 20,
              "start": 5785
            },
            {
              "length": 20,
              "start": 8267
            },
            {
              "length": 20,
              "start": 8803
            },
            {
              "length": 20,
              "start": 8950
            },
            {
              "length": 20,
              "start": 9660
            },
            {
              "length": 20,
              "start": 10419
            },
            {
              "length": 20,
              "start": 10907
            },
            {
              "length": 20,
              "start": 11675
            },
            {
              "length": 20,
              "start": 12902
            },
            {
              "length": 20,
              "start": 13410
            }
          ]
        },
        "src/contracts/lib/acl/LGroupManagement.sol": {
          "LGroupManagement": [
            {
              "length": 20,
              "start": 5531
            },
            {
              "length": 20,
              "start": 8641
            },
            {
              "length": 20,
              "start": 11219
            },
            {
              "length": 20,
              "start": 13369
            },
            {
              "length": 20,
              "start": 13830
            }
          ]
        },
        "src/contracts/lib/acl/LRealmManagement.sol": {
          "LRealmManagement": [
            {
              "length": 20,
              "start": 5164
            },
            {
              "length": 20,
              "start": 5372
            },
            {
              "length": 20,
              "start": 7009
            },
            {
              "length": 20,
              "start": 9968
            },
            {
              "length": 20,
              "start": 11878
            },
            {
              "length": 20,
              "start": 13757
            }
          ]
        },
        "src/contracts/lib/acl/LRoleManagement.sol": {
          "LRoleManagement": [
            {
              "length": 20,
              "start": 10170
            },
            {
              "length": 20,
              "start": 10592
            },
            {
              "length": 20,
              "start": 11290
            },
            {
              "length": 20,
              "start": 11598
            },
            {
              "length": 20,
              "start": 12333
            },
            {
              "length": 20,
              "start": 12665
            },
            {
              "length": 20,
              "start": 12731
            },
            {
              "length": 20,
              "start": 13171
            }
          ]
        }
      },
      "opcodes": "PUSH1 0xA0 PUSH1 0x40 MSTORE ADDRESS PUSH1 0x80 MSTORE CALLVALUE DUP1 ISZERO PUSH3 0x15 JUMPI PUSH1 0x0 DUP1 REVERT JUMPDEST POP PUSH3 0x43 PUSH1 0x1 PUSH32 0x360894A13BA1A3210667C828492DB98DCA3E2076CC3735A920A3CA505D382BBD PUSH3 0x11F JUMP JUMPDEST PUSH32 0x360894A13BA1A3210667C828492DB98DCA3E2076CC3735A920A3CA505D382BBC EQ PUSH3 0x74 JUMPI PUSH3 0x74 PUSH3 0x145 JUMP JUMPDEST PUSH3 0xA1 PUSH1 0x1 PUSH32 0xB53127684A568B3173AE13B9F8A6016E243E63B6E8EE1178D6A717850B5D6104 PUSH3 0x11F JUMP JUMPDEST PUSH1 0x0 DUP1 MLOAD PUSH1 0x20 PUSH3 0x56F2 DUP4 CODECOPY DUP2 MLOAD SWAP2 MSTORE EQ PUSH3 0xC1 JUMPI PUSH3 0xC1 PUSH3 0x145 JUMP JUMPDEST CALLER PUSH3 0xEA PUSH1 0x0 DUP1 MLOAD PUSH1 0x20 PUSH3 0x56F2 DUP4 CODECOPY DUP2 MLOAD SWAP2 MSTORE PUSH1 0x0 SHL PUSH3 0x11C PUSH1 0x20 SHL PUSH3 0x355D OR PUSH1 0x20 SHR JUMP JUMPDEST DUP1 SLOAD PUSH1 0x1 PUSH1 0x1 PUSH1 0xA0 SHL SUB NOT AND PUSH1 0x1 PUSH1 0x1 PUSH1 0xA0 SHL SUB SWAP3 SWAP1 SWAP3 AND SWAP2 SWAP1 SWAP2 OR SWAP1 SSTORE PUSH1 0x4 DUP1 SLOAD PUSH2 0xFFFF NOT AND PUSH1 0x1 OR SWAP1 SSTORE PUSH3 0x15B JUMP JUMPDEST SWAP1 JUMP JUMPDEST PUSH1 0x0 DUP3 DUP3 LT ISZERO PUSH3 0x140 JUMPI PUSH4 0x4E487B71 PUSH1 0xE0 SHL PUSH1 0x0 MSTORE PUSH1 0x11 PUSH1 0x4 MSTORE PUSH1 0x24 PUSH1 0x0 REVERT JUMPDEST POP SUB SWAP1 JUMP JUMPDEST PUSH4 0x4E487B71 PUSH1 0xE0 SHL PUSH1 0x0 MSTORE PUSH1 0x1 PUSH1 0x4 MSTORE PUSH1 0x24 PUSH1 0x0 REVERT JUMPDEST PUSH1 0x80 MLOAD PUSH2 0x5535 PUSH3 0x1BD PUSH1 0x0 CODECOPY PUSH1 0x0 DUP2 DUP2 PUSH2 0x15A4 ADD MSTORE DUP2 DUP2 PUSH2 0x15ED ADD MSTORE DUP2 DUP2 PUSH2 0x17A0 ADD MSTORE DUP2 DUP2 PUSH2 0x17E0 ADD MSTORE DUP2 DUP2 PUSH2 0x1B3B ADD MSTORE DUP2 DUP2 PUSH2 0x1BCF ADD MSTORE DUP2 DUP2 PUSH2 0x1C0F ADD MSTORE DUP2 DUP2 PUSH2 0x21FB ADD MSTORE DUP2 DUP2 PUSH2 0x223B ADD MSTORE DUP2 DUP2 PUSH2 0x2CD7 ADD MSTORE PUSH2 0x2D17 ADD MSTORE PUSH2 0x5535 PUSH1 0x0 RETURN INVALID PUSH1 0x80 PUSH1 0x40 MSTORE PUSH1 0x4 CALLDATASIZE LT PUSH2 0x43C JUMPI PUSH1 0x0 CALLDATALOAD PUSH1 0xE0 SHR DUP1 PUSH4 0x771BCF45 GT PUSH2 0x232 JUMPI DUP1 PUSH4 0xD3386401 GT PUSH2 0x12D JUMPI DUP1 PUSH4 0xE71E224E GT PUSH2 0xB0 JUMPI DUP1 PUSH4 0xF698DA25 GT PUSH2 0x77 JUMPI DUP1 PUSH4 0xF698DA25 EQ PUSH2 0xDD3 JUMPI DUP1 PUSH4 0xF80F010F EQ PUSH2 0xDE8 JUMPI DUP1 PUSH4 0xF8AA7E3F EQ PUSH2 0xE08 JUMPI DUP1 PUSH4 0xF94A0ADB EQ PUSH2 0xE28 JUMPI DUP1 PUSH4 0xFACAF139 EQ PUSH2 0xE3D JUMPI STOP JUMPDEST DUP1 PUSH4 0xE71E224E EQ PUSH2 0xD33 JUMPI DUP1 PUSH4 0xEDF1D1CB EQ PUSH2 0xD53 JUMPI DUP1 PUSH4 0xF1DF49DA EQ PUSH2 0xD73 JUMPI DUP1 PUSH4 0xF2C673BD EQ PUSH2 0xD93 JUMPI DUP1 PUSH4 0xF5122C92 EQ PUSH2 0xDB3 JUMPI STOP JUMPDEST DUP1 PUSH4 0xDC853DD0 GT PUSH2 0xF4 JUMPI DUP1 PUSH4 0xDC853DD0 EQ PUSH2 0xC86 JUMPI DUP1 PUSH4 0xDF01DE45 EQ PUSH2 0xCA6 JUMPI DUP1 PUSH4 0xE1ED0A82 EQ PUSH2 0xCC6 JUMPI DUP1 PUSH4 0xE25D75F0 EQ PUSH2 0xCF3 JUMPI DUP1 PUSH4 0xE65BE468 EQ PUSH2 0xD13 JUMPI STOP JUMPDEST DUP1 PUSH4 0xD3386401 EQ PUSH2 0xBF1 JUMPI DUP1 PUSH4 0xD3E024B8 EQ PUSH2 0xC11 JUMPI DUP1 PUSH4 0xD9ABA36E EQ PUSH2 0xC26 JUMPI DUP1 PUSH4 0xD9DC1F19 EQ PUSH2 0xC46 JUMPI DUP1 PUSH4 0xDBF304B0 EQ PUSH2 0xC66 JUMPI STOP JUMPDEST DUP1 PUSH4 0xB2DC26E5 GT PUSH2 0x1B5 JUMPI DUP1 PUSH4 0xBE22465D GT PUSH2 0x17C JUMPI DUP1 PUSH4 0xBE22465D EQ PUSH2 0xB4A JUMPI DUP1 PUSH4 0xBE409A11 EQ PUSH2 0xB62 JUMPI DUP1 PUSH4 0xC48E7AE6 EQ PUSH2 0xB91 JUMPI DUP1 PUSH4 0xC7AB39E6 EQ PUSH2 0xBB1 JUMPI DUP1 PUSH4 0xC7EA945C EQ PUSH2 0xBD1 JUMPI STOP JUMPDEST DUP1 PUSH4 0xB2DC26E5 EQ PUSH2 0xAAC JUMPI DUP1 PUSH4 0xB4A0BDF3 EQ PUSH2 0xACC JUMPI DUP1 PUSH4 0xB4C4B58F EQ PUSH2 0xAEA JUMPI DUP1 PUSH4 0xB58966DE EQ PUSH2 0xB0A JUMPI DUP1 PUSH4 0xB6C03F03 EQ PUSH2 0xB2A JUMPI STOP JUMPDEST DUP1 PUSH4 0x91690955 GT PUSH2 0x1F9 JUMPI DUP1 PUSH4 0x91690955 EQ PUSH2 0x9C3 JUMPI DUP1 PUSH4 0x98625FFF EQ PUSH2 0x9E3 JUMPI DUP1 PUSH4 0x9EBF6246 EQ PUSH2 0xA03 JUMPI DUP1 PUSH4 0xA0A8E460 EQ PUSH2 0xA77 JUMPI DUP1 PUSH4 0xAEA3F33B EQ PUSH2 0xA8C JUMPI STOP JUMPDEST DUP1 PUSH4 0x771BCF45 EQ PUSH2 0x92E JUMPI DUP1 PUSH4 0x870666CB EQ PUSH2 0x94E JUMPI DUP1 PUSH4 0x8B7DBD6C EQ PUSH2 0x963 JUMPI DUP1 PUSH4 0x8E703826 EQ PUSH2 0x983 JUMPI DUP1 PUSH4 0x8F09E0F0 EQ PUSH2 0x9A3 JUMPI STOP JUMPDEST DUP1 PUSH4 0x48E6BE1C GT PUSH2 0x342 JUMPI DUP1 PUSH4 0x5EC7870A GT PUSH2 0x2C5 JUMPI DUP1 PUSH4 0x70420EE3 GT PUSH2 0x28C JUMPI DUP1 PUSH4 0x70420EE3 EQ PUSH2 0x897 JUMPI DUP1 PUSH4 0x7147855D EQ PUSH2 0x8B7 JUMPI DUP1 PUSH4 0x7276CE29 EQ PUSH2 0x8E4 JUMPI DUP1 PUSH4 0x756AF45F EQ PUSH2 0x8F9 JUMPI DUP1 PUSH4 0x75D0C0DC EQ PUSH2 0x919 JUMPI STOP JUMPDEST DUP1 PUSH4 0x5EC7870A EQ PUSH2 0x801 JUMPI DUP1 PUSH4 0x60FEFDEC EQ PUSH2 0x816 JUMPI DUP1 PUSH4 0x611B4886 EQ PUSH2 0x834 JUMPI DUP1 PUSH4 0x6B2B7DD8 EQ PUSH2 0x849 JUMPI DUP1 PUSH4 0x6B3B0159 EQ PUSH2 0x877 JUMPI STOP JUMPDEST DUP1 PUSH4 0x51E70BB0 GT PUSH2 0x309 JUMPI DUP1 PUSH4 0x51E70BB0 EQ PUSH2 0x762 JUMPI DUP1 PUSH4 0x52D1902D EQ PUSH2 0x782 JUMPI DUP1 PUSH4 0x5479D940 EQ PUSH2 0x797 JUMPI DUP1 PUSH4 0x58DBC45D EQ PUSH2 0x7B4 JUMPI DUP1 PUSH4 0x5C6D8DA1 EQ PUSH2 0x7E1 JUMPI STOP JUMPDEST DUP1 PUSH4 0x48E6BE1C EQ PUSH2 0x6CD JUMPI DUP1 PUSH4 0x4944F532 EQ PUSH2 0x6ED JUMPI DUP1 PUSH4 0x4BB1BE8C EQ PUSH2 0x70D JUMPI DUP1 PUSH4 0x4BDBF69C EQ PUSH2 0x72D JUMPI DUP1 PUSH4 0x4DC13C8F EQ PUSH2 0x742 JUMPI STOP JUMPDEST DUP1 PUSH4 0x37BFBFE8 GT PUSH2 0x3CA JUMPI DUP1 PUSH4 0x3F4C99B8 GT PUSH2 0x391 JUMPI DUP1 PUSH4 0x3F4C99B8 EQ PUSH2 0x638 JUMPI DUP1 PUSH4 0x40768140 EQ PUSH2 0x658 JUMPI DUP1 PUSH4 0x4346A04B EQ PUSH2 0x66D JUMPI DUP1 PUSH4 0x44B7E5F2 EQ PUSH2 0x68D JUMPI DUP1 PUSH4 0x45B5203C EQ PUSH2 0x6AD JUMPI STOP JUMPDEST DUP1 PUSH4 0x37BFBFE8 EQ PUSH2 0x58A JUMPI DUP1 PUSH4 0x38D38C97 EQ PUSH2 0x5B7 JUMPI DUP1 PUSH4 0x3B17F50B EQ PUSH2 0x5DF JUMPI DUP1 PUSH4 0x3C7D5B25 EQ PUSH2 0x5F4 JUMPI DUP1 PUSH4 0x3DFE3AA2 EQ PUSH2 0x623 JUMPI STOP JUMPDEST DUP1 PUSH4 0x11B529B3 GT PUSH2 0x40E JUMPI DUP1 PUSH4 0x11B529B3 EQ PUSH2 0x4DD JUMPI DUP1 PUSH4 0x1846D125 EQ PUSH2 0x4FD JUMPI DUP1 PUSH4 0x2E2ADF00 EQ PUSH2 0x51D JUMPI DUP1 PUSH4 0x2F032EDD EQ PUSH2 0x54A JUMPI DUP1 PUSH4 0x3228144D EQ PUSH2 0x56A JUMPI STOP JUMPDEST DUP1 PUSH4 0x1FFC9A7 EQ PUSH2 0x445 JUMPI DUP1 PUSH4 0x31C0493 EQ PUSH2 0x47A JUMPI DUP1 PUSH4 0x98B01CF EQ PUSH2 0x49A JUMPI DUP1 PUSH4 0x101DF54D EQ PUSH2 0x4BD JUMPI STOP JUMPDEST CALLDATASIZE PUSH2 0x443 JUMPI STOP JUMPDEST STOP JUMPDEST CALLVALUE DUP1 ISZERO PUSH2 0x451 JUMPI PUSH1 0x0 DUP1 REVERT JUMPDEST POP PUSH2 0x465 PUSH2 0x460 CALLDATASIZE PUSH1 0x4 PUSH2 0x4101 JUMP JUMPDEST PUSH2 0xE5D JUMP JUMPDEST PUSH1 0x40 MLOAD SWAP1 ISZERO ISZERO DUP2 MSTORE PUSH1 0x20 ADD JUMPDEST PUSH1 0x40 MLOAD DUP1 SWAP2 SUB SWAP1 RETURN JUMPDEST CALLVALUE DUP1 ISZERO PUSH2 0x486 JUMPI PUSH1 0x0 DUP1 REVERT JUMPDEST POP PUSH2 0x465 PUSH2 0x495 CALLDATASIZE PUSH1 0x4 PUSH2 0x411E JUMP JUMPDEST PUSH2 0xEF4 JUMP JUMPDEST CALLVALUE DUP1 ISZERO PUSH2 0x4A6 JUMPI PUSH1 0x0 DUP1 REVERT JUMPDEST POP PUSH2 0x4AF PUSH2 0xFCA JUMP JUMPDEST PUSH1 0x40 MLOAD SWAP1 DUP2 MSTORE PUSH1 0x20 ADD PUSH2 0x471 JUMP JUMPDEST CALLVALUE DUP1 ISZERO PUSH2 0x4C9 JUMPI PUSH1 0x0 DUP1 REVERT JUMPDEST POP PUSH2 0x465 PUSH2 0x4D8 CALLDATASIZE PUSH1 0x4 PUSH2 0x4156 JUMP JUMPDEST PUSH2 0x1009 JUMP JUMPDEST CALLVALUE DUP1 ISZERO PUSH2 0x4E9 JUMPI PUSH1 0x0 DUP1 REVERT JUMPDEST POP PUSH2 0x465 PUSH2 0x4F8 CALLDATASIZE PUSH1 0x4 PUSH2 0x416F JUMP JUMPDEST PUSH2 0x1088 JUMP JUMPDEST CALLVALUE DUP1 ISZERO PUSH2 0x509 JUMPI PUSH1 0x0 DUP1 REVERT JUMPDEST POP PUSH2 0x465 PUSH2 0x518 CALLDATASIZE PUSH1 0x4 PUSH2 0x4156 JUMP JUMPDEST PUSH2 0x1108 JUMP JUMPDEST CALLVALUE DUP1 ISZERO PUSH2 0x529 JUMPI PUSH1 0x0 DUP1 REVERT JUMPDEST POP PUSH2 0x53D PUSH2 0x538 CALLDATASIZE PUSH1 0x4 PUSH2 0x4156 JUMP JUMPDEST PUSH2 0x1149 JUMP JUMPDEST PUSH1 0x40 MLOAD PUSH2 0x471 SWAP2 SWAP1 PUSH2 0x419F JUMP JUMPDEST CALLVALUE DUP1 ISZERO PUSH2 0x556 JUMPI PUSH1 0x0 DUP1 REVERT JUMPDEST POP PUSH2 0x465 PUSH2 0x565 CALLDATASIZE PUSH1 0x4 PUSH2 0x4156 JUMP JUMPDEST PUSH2 0x11CB JUMP JUMPDEST CALLVALUE DUP1 ISZERO PUSH2 0x576 JUMPI PUSH1 0x0 DUP1 REVERT JUMPDEST POP PUSH2 0x465 PUSH2 0x585 CALLDATASIZE PUSH1 0x4 PUSH2 0x4156 JUMP JUMPDEST PUSH2 0x120D JUMP JUMPDEST CALLVALUE DUP1 ISZERO PUSH2 0x596 JUMPI PUSH1 0x0 DUP1 REVERT JUMPDEST POP PUSH2 0x5AA PUSH2 0x5A5 CALLDATASIZE PUSH1 0x4 PUSH2 0x4156 JUMP JUMPDEST PUSH2 0x124F JUMP JUMPDEST PUSH1 0x40 MLOAD PUSH2 0x471 SWAP2 SWAP1 PUSH2 0x41ED JUMP JUMPDEST CALLVALUE DUP1 ISZERO PUSH2 0x5C3 JUMPI PUSH1 0x0 DUP1 REVERT JUMPDEST POP PUSH2 0x5CC PUSH2 0x12D2 JUMP JUMPDEST PUSH1 0x40 MLOAD PUSH2 0xFFFF SWAP1 SWAP2 AND DUP2 MSTORE PUSH1 0x20 ADD PUSH2 0x471 JUMP JUMPDEST CALLVALUE DUP1 ISZERO PUSH2 0x5EB JUMPI PUSH1 0x0 DUP1 REVERT JUMPDEST POP PUSH2 0x4AF PUSH2 0x12E6 JUMP JUMPDEST CALLVALUE DUP1 ISZERO PUSH2 0x600 JUMPI PUSH1 0x0 DUP1 REVERT JUMPDEST POP PUSH2 0x614 PUSH2 0x60F CALLDATASIZE PUSH1 0x4 PUSH2 0x4156 JUMP JUMPDEST PUSH2 0x131A JUMP JUMPDEST PUSH1 0x40 MLOAD PUSH2 0x471 SWAP4 SWAP3 SWAP2 SWAP1 PUSH2 0x4281 JUMP JUMPDEST CALLVALUE DUP1 ISZERO PUSH2 0x62F JUMPI PUSH1 0x0 DUP1 REVERT JUMPDEST POP PUSH2 0x4AF PUSH2 0x13AE JUMP JUMPDEST CALLVALUE DUP1 ISZERO PUSH2 0x644 JUMPI PUSH1 0x0 DUP1 REVERT JUMPDEST POP PUSH2 0x4AF PUSH2 0x653 CALLDATASIZE PUSH1 0x4 PUSH2 0x4301 JUMP JUMPDEST PUSH2 0x13D9 JUMP JUMPDEST CALLVALUE DUP1 ISZERO PUSH2 0x664 JUMPI PUSH1 0x0 DUP1 REVERT JUMPDEST POP PUSH2 0x4AF PUSH2 0x14AB JUMP JUMPDEST CALLVALUE DUP1 ISZERO PUSH2 0x679 JUMPI PUSH1 0x0 DUP1 REVERT JUMPDEST POP PUSH2 0x465 PUSH2 0x688 CALLDATASIZE PUSH1 0x4 PUSH2 0x411E JUMP JUMPDEST PUSH2 0x14D7 JUMP JUMPDEST CALLVALUE DUP1 ISZERO PUSH2 0x699 JUMPI PUSH1 0x0 DUP1 REVERT JUMPDEST POP PUSH2 0x465 PUSH2 0x6A8 CALLDATASIZE PUSH1 0x4 PUSH2 0x4357 JUMP JUMPDEST PUSH2 0x1598 JUMP JUMPDEST CALLVALUE DUP1 ISZERO PUSH2 0x6B9 JUMPI PUSH1 0x0 DUP1 REVERT JUMPDEST POP PUSH2 0x465 PUSH2 0x6C8 CALLDATASIZE PUSH1 0x4 PUSH2 0x4156 JUMP JUMPDEST PUSH2 0x1752 JUMP JUMPDEST CALLVALUE DUP1 ISZERO PUSH2 0x6D9 JUMPI PUSH1 0x0 DUP1 REVERT JUMPDEST POP PUSH2 0x465 PUSH2 0x6E8 CALLDATASIZE PUSH1 0x4 PUSH2 0x4357 JUMP JUMPDEST PUSH2 0x1794 JUMP JUMPDEST CALLVALUE DUP1 ISZERO PUSH2 0x6F9 JUMPI PUSH1 0x0 DUP1 REVERT JUMPDEST POP PUSH2 0x465 PUSH2 0x708 CALLDATASIZE PUSH1 0x4 PUSH2 0x4156 JUMP JUMPDEST PUSH2 0x195D JUMP JUMPDEST CALLVALUE DUP1 ISZERO PUSH2 0x719 JUMPI PUSH1 0x0 DUP1 REVERT JUMPDEST POP PUSH2 0x4AF PUSH2 0x728 CALLDATASIZE PUSH1 0x4 PUSH2 0x4374 JUMP JUMPDEST PUSH2 0x199F JUMP JUMPDEST CALLVALUE DUP1 ISZERO PUSH2 0x739 JUMPI PUSH1 0x0 DUP1 REVERT JUMPDEST POP PUSH2 0x4AF PUSH2 0x1A76 JUMP JUMPDEST CALLVALUE DUP1 ISZERO PUSH2 0x74E JUMPI PUSH1 0x0 DUP1 REVERT JUMPDEST POP PUSH2 0x465 PUSH2 0x75D CALLDATASIZE PUSH1 0x4 PUSH2 0x4156 JUMP JUMPDEST PUSH2 0x1AAA JUMP JUMPDEST CALLVALUE DUP1 ISZERO PUSH2 0x76E JUMPI PUSH1 0x0 DUP1 REVERT JUMPDEST POP PUSH2 0x465 PUSH2 0x77D CALLDATASIZE PUSH1 0x4 PUSH2 0x4156 JUMP JUMPDEST PUSH2 0x1AEC JUMP JUMPDEST CALLVALUE DUP1 ISZERO PUSH2 0x78E JUMPI PUSH1 0x0 DUP1 REVERT JUMPDEST POP PUSH2 0x4AF PUSH2 0x1B2E JUMP JUMPDEST CALLVALUE DUP1 ISZERO PUSH2 0x7A3 JUMPI PUSH1 0x0 DUP1 REVERT JUMPDEST POP PUSH1 0x4 SLOAD PUSH2 0x100 SWAP1 DIV PUSH1 0xFF AND PUSH2 0x465 JUMP JUMPDEST CALLVALUE DUP1 ISZERO PUSH2 0x7C0 JUMPI PUSH1 0x0 DUP1 REVERT JUMPDEST POP PUSH2 0x7C9 PUSH2 0x1BBB JUMP JUMPDEST PUSH1 0x40 MLOAD PUSH1 0x1 PUSH1 0x1 PUSH1 0xA0 SHL SUB SWAP1 SWAP2 AND DUP2 MSTORE PUSH1 0x20 ADD PUSH2 0x471 JUMP JUMPDEST CALLVALUE DUP1 ISZERO PUSH2 0x7ED JUMPI PUSH1 0x0 DUP1 REVERT JUMPDEST POP PUSH2 0x443 PUSH2 0x7FC CALLDATASIZE PUSH1 0x4 PUSH2 0x43F0 JUMP JUMPDEST PUSH2 0x1BC5 JUMP JUMPDEST CALLVALUE DUP1 ISZERO PUSH2 0x80D JUMPI PUSH1 0x0 DUP1 REVERT JUMPDEST POP PUSH2 0x4AF PUSH2 0x1F87 JUMP JUMPDEST CALLVALUE DUP1 ISZERO PUSH2 0x822 JUMPI PUSH1 0x0 DUP1 REVERT JUMPDEST POP PUSH1 0x4A SLOAD PUSH3 0x10000 SWAP1 DIV PUSH1 0xFF AND PUSH2 0x465 JUMP JUMPDEST CALLVALUE DUP1 ISZERO PUSH2 0x840 JUMPI PUSH1 0x0 DUP1 REVERT JUMPDEST POP PUSH2 0x4AF PUSH2 0x1FBB JUMP JUMPDEST CALLVALUE DUP1 ISZERO PUSH2 0x855 JUMPI PUSH1 0x0 DUP1 REVERT JUMPDEST POP PUSH2 0x869 PUSH2 0x864 CALLDATASIZE PUSH1 0x4 PUSH2 0x4156 JUMP JUMPDEST PUSH2 0x1FE1 JUMP JUMPDEST PUSH1 0x40 MLOAD PUSH2 0x471 SWAP3 SWAP2 SWAP1 PUSH2 0x449D JUMP JUMPDEST CALLVALUE DUP1 ISZERO PUSH2 0x883 JUMPI PUSH1 0x0 DUP1 REVERT JUMPDEST POP PUSH2 0x465 PUSH2 0x892 CALLDATASIZE PUSH1 0x4 PUSH2 0x44C1 JUMP JUMPDEST PUSH2 0x206F JUMP JUMPDEST CALLVALUE DUP1 ISZERO PUSH2 0x8A3 JUMPI PUSH1 0x0 DUP1 REVERT JUMPDEST POP PUSH2 0x465 PUSH2 0x8B2 CALLDATASIZE PUSH1 0x4 PUSH2 0x44EF JUMP JUMPDEST PUSH2 0x210D JUMP JUMPDEST CALLVALUE DUP1 ISZERO PUSH2 0x8C3 JUMPI PUSH1 0x0 DUP1 REVERT JUMPDEST POP PUSH2 0x8D7 PUSH2 0x8D2 CALLDATASIZE PUSH1 0x4 PUSH2 0x45FF JUMP JUMPDEST PUSH2 0x21EF JUMP JUMPDEST PUSH1 0x40 MLOAD PUSH2 0x471 SWAP2 SWAP1 PUSH2 0x4657 JUMP JUMPDEST CALLVALUE DUP1 ISZERO PUSH2 0x8F0 JUMPI PUSH1 0x0 DUP1 REVERT JUMPDEST POP PUSH2 0x4AF PUSH2 0x2317 JUMP JUMPDEST CALLVALUE DUP1 ISZERO PUSH2 0x905 JUMPI PUSH1 0x0 DUP1 REVERT JUMPDEST POP PUSH2 0x443 PUSH2 0x914 CALLDATASIZE PUSH1 0x4 PUSH2 0x466A JUMP JUMPDEST PUSH2 0x2342 JUMP JUMPDEST CALLVALUE DUP1 ISZERO PUSH2 0x925 JUMPI PUSH1 0x0 DUP1 REVERT JUMPDEST POP PUSH1 0x1 SLOAD PUSH2 0x4AF JUMP JUMPDEST CALLVALUE DUP1 ISZERO PUSH2 0x93A JUMPI PUSH1 0x0 DUP1 REVERT JUMPDEST POP PUSH2 0x465 PUSH2 0x949 CALLDATASIZE PUSH1 0x4 PUSH2 0x411E JUMP JUMPDEST PUSH2 0x23FA JUMP JUMPDEST CALLVALUE DUP1 ISZERO PUSH2 0x95A JUMPI PUSH1 0x0 DUP1 REVERT JUMPDEST POP PUSH2 0x4AF PUSH2 0x24BB JUMP JUMPDEST CALLVALUE DUP1 ISZERO PUSH2 0x96F JUMPI PUSH1 0x0 DUP1 REVERT JUMPDEST POP PUSH2 0x465 PUSH2 0x97E CALLDATASIZE PUSH1 0x4 PUSH2 0x44EF JUMP JUMPDEST PUSH2 0x24C6 JUMP JUMPDEST CALLVALUE DUP1 ISZERO PUSH2 0x98F JUMPI PUSH1 0x0 DUP1 REVERT JUMPDEST POP PUSH2 0x465 PUSH2 0x99E CALLDATASIZE PUSH1 0x4 PUSH2 0x4156 JUMP JUMPDEST PUSH2 0x2555 JUMP JUMPDEST CALLVALUE DUP1 ISZERO PUSH2 0x9AF JUMPI PUSH1 0x0 DUP1 REVERT JUMPDEST POP PUSH2 0x465 PUSH2 0x9BE CALLDATASIZE PUSH1 0x4 PUSH2 0x4687 JUMP JUMPDEST PUSH2 0x2597 JUMP JUMPDEST CALLVALUE DUP1 ISZERO PUSH2 0x9CF JUMPI PUSH1 0x0 DUP1 REVERT JUMPDEST POP PUSH2 0x465 PUSH2 0x9DE CALLDATASIZE PUSH1 0x4 PUSH2 0x4156 JUMP JUMPDEST PUSH2 0x261F JUMP JUMPDEST CALLVALUE DUP1 ISZERO PUSH2 0x9EF JUMPI PUSH1 0x0 DUP1 REVERT JUMPDEST POP PUSH2 0x465 PUSH2 0x9FE CALLDATASIZE PUSH1 0x4 PUSH2 0x466A JUMP JUMPDEST PUSH2 0x2661 JUMP JUMPDEST CALLVALUE DUP1 ISZERO PUSH2 0xA0F JUMPI PUSH1 0x0 DUP1 REVERT JUMPDEST POP PUSH2 0xA23 PUSH2 0xA1E CALLDATASIZE PUSH1 0x4 PUSH2 0x4156 JUMP JUMPDEST PUSH2 0x26AB JUMP JUMPDEST PUSH1 0x40 MLOAD PUSH2 0x471 SWAP2 SWAP1 DUP2 MLOAD DUP2 MSTORE PUSH1 0x20 DUP1 DUP4 ADD MLOAD SWAP1 DUP3 ADD MSTORE PUSH1 0x40 DUP1 DUP4 ADD MLOAD SWAP1 DUP3 ADD MSTORE PUSH1 0x60 DUP1 DUP4 ADD MLOAD PUSH1 0x1 PUSH1 0x1 PUSH1 0xA0 SHL SUB AND SWAP1 DUP3 ADD MSTORE PUSH1 0x80 DUP1 DUP4 ADD MLOAD ISZERO ISZERO SWAP1 DUP3 ADD MSTORE PUSH1 0xA0 SWAP2 DUP3 ADD MLOAD ISZERO ISZERO SWAP2 DUP2 ADD SWAP2 SWAP1 SWAP2 MSTORE PUSH1 0xC0 ADD SWAP1 JUMP JUMPDEST CALLVALUE DUP1 ISZERO PUSH2 0xA83 JUMPI PUSH1 0x0 DUP1 REVERT JUMPDEST POP PUSH1 0x2 SLOAD PUSH2 0x4AF JUMP JUMPDEST CALLVALUE DUP1 ISZERO PUSH2 0xA98 JUMPI PUSH1 0x0 DUP1 REVERT JUMPDEST POP PUSH2 0x465 PUSH2 0xAA7 CALLDATASIZE PUSH1 0x4 PUSH2 0x466A JUMP JUMPDEST PUSH2 0x2754 JUMP JUMPDEST CALLVALUE DUP1 ISZERO PUSH2 0xAB8 JUMPI PUSH1 0x0 DUP1 REVERT JUMPDEST POP PUSH2 0x4AF PUSH2 0xAC7 CALLDATASIZE PUSH1 0x4 PUSH2 0x46AC JUMP JUMPDEST PUSH2 0x279E JUMP JUMPDEST CALLVALUE DUP1 ISZERO PUSH2 0xAD8 JUMPI PUSH1 0x0 DUP1 REVERT JUMPDEST POP PUSH1 0x0 SLOAD PUSH1 0x1 PUSH1 0x1 PUSH1 0xA0 SHL SUB AND PUSH2 0x7C9 JUMP JUMPDEST CALLVALUE DUP1 ISZERO PUSH2 0xAF6 JUMPI PUSH1 0x0 DUP1 REVERT JUMPDEST POP PUSH2 0x465 PUSH2 0xB05 CALLDATASIZE PUSH1 0x4 PUSH2 0x416F JUMP JUMPDEST PUSH2 0x289A JUMP JUMPDEST CALLVALUE DUP1 ISZERO PUSH2 0xB16 JUMPI PUSH1 0x0 DUP1 REVERT JUMPDEST POP PUSH2 0x465 PUSH2 0xB25 CALLDATASIZE PUSH1 0x4 PUSH2 0x416F JUMP JUMPDEST PUSH2 0x28D9 JUMP JUMPDEST CALLVALUE DUP1 ISZERO PUSH2 0xB36 JUMPI PUSH1 0x0 DUP1 REVERT JUMPDEST POP PUSH2 0x465 PUSH2 0xB45 CALLDATASIZE PUSH1 0x4 PUSH2 0x44EF JUMP JUMPDEST PUSH2 0x29A9 JUMP JUMPDEST CALLVALUE DUP1 ISZERO PUSH2 0xB56 JUMPI PUSH1 0x0 DUP1 REVERT JUMPDEST POP PUSH1 0x4 SLOAD PUSH1 0xFF AND PUSH2 0x465 JUMP JUMPDEST CALLVALUE DUP1 ISZERO PUSH2 0xB6E JUMPI PUSH1 0x0 DUP1 REVERT JUMPDEST POP PUSH2 0xB82 PUSH2 0xB7D CALLDATASIZE PUSH1 0x4 PUSH2 0x4156 JUMP JUMPDEST PUSH2 0x2A38 JUMP JUMPDEST PUSH1 0x40 MLOAD PUSH2 0x471 SWAP4 SWAP3 SWAP2 SWAP1 PUSH2 0x46FF JUMP JUMPDEST CALLVALUE DUP1 ISZERO PUSH2 0xB9D JUMPI PUSH1 0x0 DUP1 REVERT JUMPDEST POP PUSH2 0x465 PUSH2 0xBAC CALLDATASIZE PUSH1 0x4 PUSH2 0x4156 JUMP JUMPDEST PUSH2 0x2ABF JUMP JUMPDEST CALLVALUE DUP1 ISZERO PUSH2 0xBBD JUMPI PUSH1 0x0 DUP1 REVERT JUMPDEST POP PUSH2 0x465 PUSH2 0xBCC CALLDATASIZE PUSH1 0x4 PUSH2 0x4729 JUMP JUMPDEST PUSH2 0x2B01 JUMP JUMPDEST CALLVALUE DUP1 ISZERO PUSH2 0xBDD JUMPI PUSH1 0x0 DUP1 REVERT JUMPDEST POP PUSH2 0x465 PUSH2 0xBEC CALLDATASIZE PUSH1 0x4 PUSH2 0x4687 JUMP JUMPDEST PUSH2 0x2B62 JUMP JUMPDEST CALLVALUE DUP1 ISZERO PUSH2 0xBFD JUMPI PUSH1 0x0 DUP1 REVERT JUMPDEST POP PUSH2 0x465 PUSH2 0xC0C CALLDATASIZE PUSH1 0x4 PUSH2 0x4760 JUMP JUMPDEST PUSH2 0x2BB3 JUMP JUMPDEST CALLVALUE DUP1 ISZERO PUSH2 0xC1D JUMPI PUSH1 0x0 DUP1 REVERT JUMPDEST POP PUSH1 0x3 SLOAD PUSH2 0x4AF JUMP JUMPDEST CALLVALUE DUP1 ISZERO PUSH2 0xC32 JUMPI PUSH1 0x0 DUP1 REVERT JUMPDEST POP PUSH2 0x465 PUSH2 0xC41 CALLDATASIZE PUSH1 0x4 PUSH2 0x4760 JUMP JUMPDEST PUSH2 0x2C82 JUMP JUMPDEST CALLVALUE DUP1 ISZERO PUSH2 0xC52 JUMPI PUSH1 0x0 DUP1 REVERT JUMPDEST POP PUSH2 0x465 PUSH2 0xC61 CALLDATASIZE PUSH1 0x4 PUSH2 0x466A JUMP JUMPDEST PUSH2 0x2CCB JUMP JUMPDEST CALLVALUE DUP1 ISZERO PUSH2 0xC72 JUMPI PUSH1 0x0 DUP1 REVERT JUMPDEST POP PUSH2 0x465 PUSH2 0xC81 CALLDATASIZE PUSH1 0x4 PUSH2 0x4760 JUMP JUMPDEST PUSH2 0x2E45 JUMP JUMPDEST CALLVALUE DUP1 ISZERO PUSH2 0xC92 JUMPI PUSH1 0x0 DUP1 REVERT JUMPDEST POP PUSH2 0x465 PUSH2 0xCA1 CALLDATASIZE PUSH1 0x4 PUSH2 0x4156 JUMP JUMPDEST PUSH2 0x2F14 JUMP JUMPDEST CALLVALUE DUP1 ISZERO PUSH2 0xCB2 JUMPI PUSH1 0x0 DUP1 REVERT JUMPDEST POP PUSH2 0x465 PUSH2 0xCC1 CALLDATASIZE PUSH1 0x4 PUSH2 0x4687 JUMP JUMPDEST PUSH2 0x2F56 JUMP JUMPDEST CALLVALUE DUP1 ISZERO PUSH2 0xCD2 JUMPI PUSH1 0x0 DUP1 REVERT JUMPDEST POP PUSH2 0xCE6 PUSH2 0xCE1 CALLDATASIZE PUSH1 0x4 PUSH2 0x4156 JUMP JUMPDEST PUSH2 0x2FDE JUMP JUMPDEST PUSH1 0x40 MLOAD PUSH2 0x471 SWAP2 SWAP1 PUSH2 0x4782 JUMP JUMPDEST CALLVALUE DUP1 ISZERO PUSH2 0xCFF JUMPI PUSH1 0x0 DUP1 REVERT JUMPDEST POP PUSH2 0x465 PUSH2 0xD0E CALLDATASIZE PUSH1 0x4 PUSH2 0x4156 JUMP JUMPDEST PUSH2 0x3060 JUMP JUMPDEST CALLVALUE DUP1 ISZERO PUSH2 0xD1F JUMPI PUSH1 0x0 DUP1 REVERT JUMPDEST POP PUSH2 0x7C9 PUSH2 0xD2E CALLDATASIZE PUSH1 0x4 PUSH2 0x481F JUMP JUMPDEST PUSH2 0x30A2 JUMP JUMPDEST CALLVALUE DUP1 ISZERO PUSH2 0xD3F JUMPI PUSH1 0x0 DUP1 REVERT JUMPDEST POP PUSH2 0x465 PUSH2 0xD4E CALLDATASIZE PUSH1 0x4 PUSH2 0x44EF JUMP JUMPDEST PUSH2 0x318A JUMP JUMPDEST CALLVALUE DUP1 ISZERO PUSH2 0xD5F JUMPI PUSH1 0x0 DUP1 REVERT JUMPDEST POP PUSH2 0x5AA PUSH2 0xD6E CALLDATASIZE PUSH1 0x4 PUSH2 0x4156 JUMP JUMPDEST PUSH2 0x325C JUMP JUMPDEST CALLVALUE DUP1 ISZERO PUSH2 0xD7F JUMPI PUSH1 0x0 DUP1 REVERT JUMPDEST POP PUSH2 0x4AF PUSH2 0xD8E CALLDATASIZE PUSH1 0x4 PUSH2 0x48A5 JUMP JUMPDEST PUSH2 0x329E JUMP JUMPDEST CALLVALUE DUP1 ISZERO PUSH2 0xD9F JUMPI PUSH1 0x0 DUP1 REVERT JUMPDEST POP PUSH2 0x465 PUSH2 0xDAE CALLDATASIZE PUSH1 0x4 PUSH2 0x44EF JUMP JUMPDEST PUSH2 0x3393 JUMP JUMPDEST CALLVALUE DUP1 ISZERO PUSH2 0xDBF JUMPI PUSH1 0x0 DUP1 REVERT JUMPDEST POP PUSH2 0x465 PUSH2 0xDCE CALLDATASIZE PUSH1 0x4 PUSH2 0x4760 JUMP JUMPDEST PUSH2 0x3422 JUMP JUMPDEST CALLVALUE DUP1 ISZERO PUSH2 0xDDF JUMPI PUSH1 0x0 DUP1 REVERT JUMPDEST POP PUSH2 0x4AF PUSH2 0x346B JUMP JUMPDEST CALLVALUE DUP1 ISZERO PUSH2 0xDF4 JUMPI PUSH1 0x0 DUP1 REVERT JUMPDEST POP PUSH2 0x465 PUSH2 0xE03 CALLDATASIZE PUSH1 0x4 PUSH2 0x466A JUMP JUMPDEST PUSH2 0x3475 JUMP JUMPDEST CALLVALUE DUP1 ISZERO PUSH2 0xE14 JUMPI PUSH1 0x0 DUP1 REVERT JUMPDEST POP PUSH2 0x465 PUSH2 0xE23 CALLDATASIZE PUSH1 0x4 PUSH2 0x466A JUMP JUMPDEST PUSH2 0x34BF JUMP JUMPDEST CALLVALUE DUP1 ISZERO PUSH2 0xE34 JUMPI PUSH1 0x0 DUP1 REVERT JUMPDEST POP PUSH2 0x7C9 PUSH2 0x3509 JUMP JUMPDEST CALLVALUE DUP1 ISZERO PUSH2 0xE49 JUMPI PUSH1 0x0 DUP1 REVERT JUMPDEST POP PUSH2 0x465 PUSH2 0xE58 CALLDATASIZE PUSH1 0x4 PUSH2 0x466A JUMP JUMPDEST PUSH2 0x3513 JUMP JUMPDEST PUSH1 0x0 PUSH1 0x1 PUSH1 0x1 PUSH1 0xE0 SHL SUB NOT DUP3 AND PUSH4 0x1FE701D PUSH1 0xE2 SHL EQ DUP1 PUSH2 0xE8E JUMPI POP PUSH1 0x1 PUSH1 0x1 PUSH1 0xE0 SHL SUB NOT DUP3 AND PUSH4 0x3B661D83 PUSH1 0xE2 SHL EQ JUMPDEST DUP1 PUSH2 0xEA9 JUMPI POP PUSH1 0x1 PUSH1 0x1 PUSH1 0xE0 SHL SUB NOT DUP3 AND PUSH4 0x467E3A61 PUSH1 0xE0 SHL EQ JUMPDEST DUP1 PUSH2 0xEC4 JUMPI POP PUSH1 0x1 PUSH1 0x1 PUSH1 0xE0 SHL SUB NOT DUP3 AND PUSH4 0x7D22131D PUSH1 0xE1 SHL EQ JUMPDEST DUP1 PUSH2 0xEDF JUMPI POP PUSH1 0x1 PUSH1 0x1 PUSH1 0xE0 SHL SUB NOT DUP3 AND PUSH4 0x70319BFF PUSH1 0xE1 SHL EQ JUMPDEST DUP1 PUSH2 0xEEE JUMPI POP PUSH2 0xEEE DUP3 PUSH2 0x3560 JUMP JUMPDEST SWAP3 SWAP2 POP POP JUMP JUMPDEST PUSH1 0x0 DUP1 PUSH20 0x0 PUSH4 0x518BF960 PUSH1 0x45 DUP8 DUP8 DUP8 PUSH1 0x40 MLOAD DUP6 PUSH4 0xFFFFFFFF AND PUSH1 0xE0 SHL DUP2 MSTORE PUSH1 0x4 ADD PUSH2 0xF35 SWAP5 SWAP4 SWAP3 SWAP2 SWAP1 PUSH2 0x491C JUMP JUMPDEST PUSH1 0x20 PUSH1 0x40 MLOAD DUP1 DUP4 SUB DUP2 DUP7 GAS DELEGATECALL ISZERO DUP1 ISZERO PUSH2 0xF52 JUMPI RETURNDATASIZE PUSH1 0x0 DUP1 RETURNDATACOPY RETURNDATASIZE PUSH1 0x0 REVERT JUMPDEST POP POP POP POP PUSH1 0x40 MLOAD RETURNDATASIZE PUSH1 0x1F NOT PUSH1 0x1F DUP3 ADD AND DUP3 ADD DUP1 PUSH1 0x40 MSTORE POP DUP2 ADD SWAP1 PUSH2 0xF76 SWAP2 SWAP1 PUSH2 0x4941 JUMP JUMPDEST SWAP1 POP CALLER PUSH1 0x1 PUSH1 0x1 PUSH1 0xA0 SHL SUB AND DUP4 DUP7 PUSH32 0xCE5E1F2BA33F195F748A93B00EE62600B55E27CC50531A72E5443713BAC23E12 DUP8 DUP6 PUSH1 0x40 MLOAD PUSH2 0xFB5 SWAP3 SWAP2 SWAP1 PUSH2 0x495A JUMP JUMPDEST PUSH1 0x40 MLOAD DUP1 SWAP2 SUB SWAP1 LOG4 PUSH1 0x1 SWAP2 POP POP JUMPDEST SWAP4 SWAP3 POP POP POP JUMP JUMPDEST PUSH1 0x40 MLOAD PUSH17 0x4C4956454C595F41444D494E5F524F4C45 PUSH1 0x78 SHL PUSH1 0x20 DUP3 ADD MSTORE PUSH1 0x0 SWAP1 PUSH1 0x31 ADD JUMPDEST PUSH1 0x40 MLOAD PUSH1 0x20 DUP2 DUP4 SUB SUB DUP2 MSTORE SWAP1 PUSH1 0x40 MSTORE DUP1 MLOAD SWAP1 PUSH1 0x20 ADD KECCAK256 SWAP1 POP SWAP1 JUMP JUMPDEST PUSH1 0x40 MLOAD PUSH4 0x7CD7C4ED PUSH1 0xE0 SHL DUP2 MSTORE PUSH1 0x45 PUSH1 0x4 DUP3 ADD MSTORE PUSH1 0x24 DUP2 ADD DUP3 SWAP1 MSTORE PUSH1 0x0 SWAP1 PUSH20 0x0 SWAP1 PUSH4 0x7CD7C4ED SWAP1 PUSH1 0x44 ADD JUMPDEST PUSH1 0x20 PUSH1 0x40 MLOAD DUP1 DUP4 SUB DUP2 DUP7 GAS DELEGATECALL ISZERO DUP1 ISZERO PUSH2 0x1064 JUMPI RETURNDATASIZE PUSH1 0x0 DUP1 RETURNDATACOPY RETURNDATASIZE PUSH1 0x0 REVERT JUMPDEST POP POP POP POP PUSH1 0x40 MLOAD RETURNDATASIZE PUSH1 0x1F NOT PUSH1 0x1F DUP3 ADD AND DUP3 ADD DUP1 PUSH1 0x40 MSTORE POP DUP2 ADD SWAP1 PUSH2 0xEEE SWAP2 SWAP1 PUSH2 0x4974 JUMP JUMPDEST PUSH1 0x40 MLOAD PUSH4 0x2A0D2E3 PUSH1 0xE6 SHL DUP2 MSTORE PUSH1 0x0 SWAP1 PUSH20 0x0 SWAP1 PUSH4 0xA834B8C0 SWAP1 PUSH2 0x10C7 SWAP1 PUSH1 0x45 SWAP1 DUP8 SWAP1 DUP8 SWAP1 PUSH1 0x4 ADD PUSH2 0x4991 JUMP JUMPDEST PUSH1 0x20 PUSH1 0x40 MLOAD DUP1 DUP4 SUB DUP2 DUP7 GAS DELEGATECALL ISZERO DUP1 ISZERO PUSH2 0x10E4 JUMPI RETURNDATASIZE PUSH1 0x0 DUP1 RETURNDATACOPY RETURNDATASIZE PUSH1 0x0 REVERT JUMPDEST POP POP POP POP PUSH1 0x40 MLOAD RETURNDATASIZE PUSH1 0x1F NOT PUSH1 0x1F DUP3 ADD AND DUP3 ADD DUP1 PUSH1 0x40 MSTORE POP DUP2 ADD SWAP1 PUSH2 0xFC3 SWAP2 SWAP1 PUSH2 0x4974 JUMP JUMPDEST PUSH1 0x40 MLOAD PUSH3 0xFD7CB9 PUSH1 0xE4 SHL DUP2 MSTORE PUSH1 0x45 PUSH1 0x4 DUP3 ADD MSTORE PUSH1 0x24 DUP2 ADD DUP3 SWAP1 MSTORE PUSH1 0x0 SWAP1 PUSH20 0x0 SWAP1 PUSH4 0xFD7CB90 SWAP1 PUSH1 0x44 ADD PUSH2 0x1047 JUMP JUMPDEST PUSH1 0x40 MLOAD PUSH4 0xEC77EB21 PUSH1 0xE0 SHL DUP2 MSTORE PUSH1 0x45 PUSH1 0x4 DUP3 ADD MSTORE PUSH1 0x24 DUP2 ADD DUP3 SWAP1 MSTORE PUSH1 0x60 SWAP1 PUSH20 0x0 SWAP1 PUSH4 0xEC77EB21 SWAP1 PUSH1 0x44 ADD PUSH1 0x0 PUSH1 0x40 MLOAD DUP1 DUP4 SUB DUP2 DUP7 GAS DELEGATECALL ISZERO DUP1 ISZERO PUSH2 0x11A3 JUMPI RETURNDATASIZE PUSH1 0x0 DUP1 RETURNDATACOPY RETURNDATASIZE PUSH1 0x0 REVERT JUMPDEST POP POP POP POP PUSH1 0x40 MLOAD RETURNDATASIZE PUSH1 0x0 DUP3 RETURNDATACOPY PUSH1 0x1F RETURNDATASIZE SWAP1 DUP2 ADD PUSH1 0x1F NOT AND DUP3 ADD PUSH1 0x40 MSTORE PUSH2 0xEEE SWAP2 SWAP1 DUP2 ADD SWAP1 PUSH2 0x4A43 JUMP JUMPDEST PUSH1 0x40 MLOAD PUSH4 0xE24B90A9 PUSH1 0xE0 SHL DUP2 MSTORE PUSH1 0x45 PUSH1 0x4 DUP3 ADD MSTORE PUSH1 0x24 DUP2 ADD DUP3 SWAP1 MSTORE PUSH1 0x0 SWAP1 PUSH20 0x0 SWAP1 PUSH4 0xE24B90A9 SWAP1 PUSH1 0x44 ADD PUSH2 0x1047 JUMP JUMPDEST PUSH1 0x40 MLOAD PUSH4 0x442B0CA1 PUSH1 0xE0 SHL DUP2 MSTORE PUSH1 0x45 PUSH1 0x4 DUP3 ADD MSTORE PUSH1 0x24 DUP2 ADD DUP3 SWAP1 MSTORE PUSH1 0x0 SWAP1 PUSH20 0x0 SWAP1 PUSH4 0x442B0CA1 SWAP1 PUSH1 0x44 ADD PUSH2 0x1047 JUMP JUMPDEST PUSH1 0x40 MLOAD PUSH4 0x50F0B31D PUSH1 0xE1 SHL DUP2 MSTORE PUSH1 0x45 PUSH1 0x4 DUP3 ADD MSTORE PUSH1 0x24 DUP2 ADD DUP3 SWAP1 MSTORE PUSH1 0x60 SWAP1 PUSH20 0x0 SWAP1 PUSH4 0xA1E1663A SWAP1 PUSH1 0x44 ADD JUMPDEST PUSH1 0x0 PUSH1 0x40 MLOAD DUP1 DUP4 SUB DUP2 DUP7 GAS DELEGATECALL ISZERO DUP1 ISZERO PUSH2 0x12AA JUMPI RETURNDATASIZE PUSH1 0x0 DUP1 RETURNDATACOPY RETURNDATASIZE PUSH1 0x0 REVERT JUMPDEST POP POP POP POP PUSH1 0x40 MLOAD RETURNDATASIZE PUSH1 0x0 DUP3 RETURNDATACOPY PUSH1 0x1F RETURNDATASIZE SWAP1 DUP2 ADD PUSH1 0x1F NOT AND DUP3 ADD PUSH1 0x40 MSTORE PUSH2 0xEEE SWAP2 SWAP1 DUP2 ADD SWAP1 PUSH2 0x4A77 JUMP JUMPDEST PUSH1 0x0 PUSH2 0x12E1 PUSH1 0x4A SLOAD PUSH2 0xFFFF AND SWAP1 JUMP JUMPDEST SWAP1 POP SWAP1 JUMP JUMPDEST PUSH1 0x40 MLOAD PUSH32 0x4C4956454C595F44414F5F4558454355544F525F524F4C450000000000000000 PUSH1 0x20 DUP3 ADD MSTORE PUSH1 0x0 SWAP1 PUSH1 0x38 ADD PUSH2 0xFEE JUMP JUMPDEST PUSH1 0x40 MLOAD PUSH4 0x108CA8B7 PUSH1 0xE0 SHL DUP2 MSTORE PUSH1 0x45 PUSH1 0x4 DUP3 ADD MSTORE PUSH1 0x24 DUP2 ADD DUP3 SWAP1 MSTORE PUSH1 0x60 SWAP1 PUSH1 0x0 SWAP1 DUP2 SWAP1 PUSH20 0x0 SWAP1 PUSH4 0x108CA8B7 SWAP1 PUSH1 0x44 ADD PUSH1 0x0 PUSH1 0x40 MLOAD DUP1 DUP4 SUB DUP2 DUP7 GAS DELEGATECALL ISZERO DUP1 ISZERO PUSH2 0x1379 JUMPI RETURNDATASIZE PUSH1 0x0 DUP1 RETURNDATACOPY RETURNDATASIZE PUSH1 0x0 REVERT JUMPDEST POP POP POP POP PUSH1 0x40 MLOAD RETURNDATASIZE PUSH1 0x0 DUP3 RETURNDATACOPY PUSH1 0x1F RETURNDATASIZE SWAP1 DUP2 ADD PUSH1 0x1F NOT AND DUP3 ADD PUSH1 0x40 MSTORE PUSH2 0x13A1 SWAP2 SWAP1 DUP2 ADD SWAP1 PUSH2 0x4B4C JUMP JUMPDEST SWAP3 POP SWAP3 POP SWAP3 POP SWAP2 SWAP4 SWAP1 SWAP3 POP JUMP JUMPDEST PUSH1 0x40 MLOAD PUSH20 0x4C4956454C595F47454E4552414C5F47524F555 PUSH1 0x64 SHL PUSH1 0x20 DUP3 ADD MSTORE PUSH1 0x0 SWAP1 PUSH1 0x34 ADD PUSH2 0xFEE JUMP JUMPDEST PUSH1 0x0 DUP1 PUSH20 0x0 PUSH4 0xF728A0F5 PUSH1 0x45 DUP8 DUP8 DUP8 PUSH1 0x40 MLOAD DUP6 PUSH4 0xFFFFFFFF AND PUSH1 0xE0 SHL DUP2 MSTORE PUSH1 0x4 ADD PUSH2 0x141A SWAP5 SWAP4 SWAP3 SWAP2 SWAP1 PUSH2 0x4BCE JUMP JUMPDEST PUSH1 0x20 PUSH1 0x40 MLOAD DUP1 DUP4 SUB DUP2 DUP7 GAS DELEGATECALL ISZERO DUP1 ISZERO PUSH2 0x1437 JUMPI RETURNDATASIZE PUSH1 0x0 DUP1 RETURNDATACOPY RETURNDATASIZE PUSH1 0x0 REVERT JUMPDEST POP POP POP POP PUSH1 0x40 MLOAD RETURNDATASIZE PUSH1 0x1F NOT PUSH1 0x1F DUP3 ADD AND DUP3 ADD DUP1 PUSH1 0x40 MSTORE POP DUP2 ADD SWAP1 PUSH2 0x145B SWAP2 SWAP1 PUSH2 0x4941 JUMP JUMPDEST SWAP1 POP CALLER PUSH1 0x1 PUSH1 0x1 PUSH1 0xA0 SHL SUB AND DUP2 PUSH32 0xDE3BD866160A7F983F3C5F990127712936D37378D60B93BA96AB3A66A04FEB18 DUP8 DUP8 DUP8 PUSH1 0x40 MLOAD PUSH2 0x149B SWAP4 SWAP3 SWAP2 SWAP1 PUSH2 0x4BFB JUMP JUMPDEST PUSH1 0x40 MLOAD DUP1 SWAP2 SUB SWAP1 LOG3 SWAP5 SWAP4 POP POP POP POP JUMP JUMPDEST PUSH1 0x40 MLOAD PUSH21 0x4C4956454C595F414E4F4E594D4F55535F524F4C45 PUSH1 0x58 SHL PUSH1 0x20 DUP3 ADD MSTORE PUSH1 0x0 SWAP1 PUSH1 0x35 ADD PUSH2 0xFEE JUMP JUMPDEST PUSH1 0x0 DUP1 PUSH20 0x0 PUSH4 0x5ACD816A PUSH1 0x45 DUP8 DUP8 DUP8 PUSH1 0x40 MLOAD DUP6 PUSH4 0xFFFFFFFF AND PUSH1 0xE0 SHL DUP2 MSTORE PUSH1 0x4 ADD PUSH2 0x1518 SWAP5 SWAP4 SWAP3 SWAP2 SWAP1 PUSH2 0x491C JUMP JUMPDEST PUSH1 0x20 PUSH1 0x40 MLOAD DUP1 DUP4 SUB DUP2 DUP7 GAS DELEGATECALL ISZERO DUP1 ISZERO PUSH2 0x1535 JUMPI RETURNDATASIZE PUSH1 0x0 DUP1 RETURNDATACOPY RETURNDATASIZE PUSH1 0x0 REVERT JUMPDEST POP POP POP POP PUSH1 0x40 MLOAD RETURNDATASIZE PUSH1 0x1F NOT PUSH1 0x1F DUP3 ADD AND DUP3 ADD DUP1 PUSH1 0x40 MSTORE POP DUP2 ADD SWAP1 PUSH2 0x1559 SWAP2 SWAP1 PUSH2 0x4941 JUMP JUMPDEST SWAP1 POP CALLER PUSH1 0x1 PUSH1 0x1 PUSH1 0xA0 SHL SUB AND DUP4 DUP7 PUSH32 0x888EBBEE43B69C568A7EF10A18F4AFB4A0452ED2CFEC2DDE7A3D37B7E5EF87A3 DUP8 DUP6 PUSH1 0x40 MLOAD PUSH2 0xFB5 SWAP3 SWAP2 SWAP1 PUSH2 0x495A JUMP JUMPDEST PUSH1 0x0 PUSH1 0x1 PUSH1 0x1 PUSH1 0xA0 SHL SUB PUSH32 0x0 AND ADDRESS SUB PUSH2 0x15EB JUMPI PUSH1 0x40 MLOAD PUSH3 0x461BCD PUSH1 0xE5 SHL DUP2 MSTORE PUSH1 0x4 ADD PUSH2 0x15E2 SWAP1 PUSH2 0x4C21 JUMP JUMPDEST PUSH1 0x40 MLOAD DUP1 SWAP2 SUB SWAP1 REVERT JUMPDEST PUSH32 0x0 PUSH1 0x1 PUSH1 0x1 PUSH1 0xA0 SHL SUB AND PUSH2 0x161D PUSH2 0x35B0 JUMP JUMPDEST PUSH1 0x1 PUSH1 0x1 PUSH1 0xA0 SHL SUB AND EQ PUSH2 0x1643 JUMPI PUSH1 0x40 MLOAD PUSH3 0x461BCD PUSH1 0xE5 SHL DUP2 MSTORE PUSH1 0x4 ADD PUSH2 0x15E2 SWAP1 PUSH2 0x4C50 JUMP JUMPDEST PUSH1 0x0 PUSH2 0x1652 PUSH1 0x4A SLOAD PUSH2 0xFFFF AND SWAP1 JUMP JUMPDEST PUSH2 0xFFFF AND GT PUSH2 0x16A3 JUMPI PUSH1 0x40 MLOAD PUSH3 0x461BCD PUSH1 0xE5 SHL DUP2 MSTORE PUSH1 0x20 PUSH1 0x4 DUP3 ADD MSTORE PUSH1 0x18 PUSH1 0x24 DUP3 ADD MSTORE PUSH32 0x436F6E7472616374204E6F7420496E697469616C697A65640000000000000000 PUSH1 0x44 DUP3 ADD MSTORE PUSH1 0x64 ADD PUSH2 0x15E2 JUMP JUMPDEST PUSH2 0x16B3 PUSH4 0x225BF2F9 PUSH1 0xE1 SHL PUSH2 0x35D1 JUMP JUMPDEST PUSH2 0x16F7 JUMPI PUSH1 0x40 MLOAD PUSH3 0x461BCD PUSH1 0xE5 SHL DUP2 MSTORE PUSH1 0x20 PUSH1 0x4 DUP3 ADD MSTORE PUSH1 0x15 PUSH1 0x24 DUP3 ADD MSTORE PUSH21 0x29B2BA29B0B332A6B7B232902337B93134B23232B7 PUSH1 0x59 SHL PUSH1 0x44 DUP3 ADD MSTORE PUSH1 0x64 ADD PUSH2 0x15E2 JUMP JUMPDEST PUSH1 0x4 DUP1 SLOAD PUSH1 0xFF NOT AND DUP4 ISZERO ISZERO OR SWAP1 SSTORE PUSH1 0x3 SLOAD ADDRESS CALLER PUSH1 0x1 PUSH1 0x1 PUSH1 0xA0 SHL SUB AND PUSH32 0xDD452A31D2E164A1EA436C084842C27D24AE2548A575A869F71B05A4ED16243F DUP6 PUSH1 0x40 MLOAD PUSH2 0x1746 SWAP2 ISZERO ISZERO DUP2 MSTORE PUSH1 0x20 ADD SWAP1 JUMP JUMPDEST PUSH1 0x40 MLOAD DUP1 SWAP2 SUB SWAP1 LOG4 POP SWAP1 JUMP JUMPDEST PUSH1 0x40 MLOAD PUSH4 0x227E505 PUSH1 0xE3 SHL DUP2 MSTORE PUSH1 0x45 PUSH1 0x4 DUP3 ADD MSTORE PUSH1 0x24 DUP2 ADD DUP3 SWAP1 MSTORE PUSH1 0x0 SWAP1 PUSH20 0x0 SWAP1 PUSH4 0x113F2828 SWAP1 PUSH1 0x44 ADD PUSH2 0x1047 JUMP JUMPDEST PUSH1 0x0 PUSH1 0x1 PUSH1 0x1 PUSH1 0xA0 SHL SUB PUSH32 0x0 AND ADDRESS SUB PUSH2 0x17DE JUMPI PUSH1 0x40 MLOAD PUSH3 0x461BCD PUSH1 0xE5 SHL DUP2 MSTORE PUSH1 0x4 ADD PUSH2 0x15E2 SWAP1 PUSH2 0x4C21 JUMP JUMPDEST PUSH32 0x0 PUSH1 0x1 PUSH1 0x1 PUSH1 0xA0 SHL SUB AND PUSH2 0x1810 PUSH2 0x35B0 JUMP JUMPDEST PUSH1 0x1 PUSH1 0x1 PUSH1 0xA0 SHL SUB AND EQ PUSH2 0x1836 JUMPI PUSH1 0x40 MLOAD PUSH3 0x461BCD PUSH1 0xE5 SHL DUP2 MSTORE PUSH1 0x4 ADD PUSH2 0x15E2 SWAP1 PUSH2 0x4C50 JUMP JUMPDEST PUSH1 0x4 SLOAD PUSH1 0xFF AND ISZERO PUSH2 0x1859 JUMPI PUSH1 0x40 MLOAD PUSH3 0x461BCD PUSH1 0xE5 SHL DUP2 MSTORE PUSH1 0x4 ADD PUSH2 0x15E2 SWAP1 PUSH2 0x4C7E JUMP JUMPDEST PUSH2 0x1869 PUSH4 0x1239AF87 PUSH1 0xE2 SHL PUSH2 0x35D1 JUMP JUMPDEST PUSH2 0x18B5 JUMPI PUSH1 0x40 MLOAD PUSH3 0x461BCD PUSH1 0xE5 SHL DUP2 MSTORE PUSH1 0x20 PUSH1 0x4 DUP3 ADD MSTORE PUSH1 0x1A PUSH1 0x24 DUP3 ADD MSTORE PUSH32 0x5365745570677261646553746174757320466F7262696464656E000000000000 PUSH1 0x44 DUP3 ADD MSTORE PUSH1 0x64 ADD PUSH2 0x15E2 JUMP JUMPDEST PUSH2 0x18BD PUSH2 0x3714 JUMP JUMPDEST PUSH2 0x1909 JUMPI PUSH1 0x40 MLOAD PUSH3 0x461BCD PUSH1 0xE5 SHL DUP2 MSTORE PUSH1 0x20 PUSH1 0x4 DUP3 ADD MSTORE PUSH1 0x17 PUSH1 0x24 DUP3 ADD MSTORE PUSH32 0x5265616C6D205570677261646520466F7262696464656E000000000000000000 PUSH1 0x44 DUP3 ADD MSTORE PUSH1 0x64 ADD PUSH2 0x15E2 JUMP JUMPDEST PUSH1 0x4 DUP1 SLOAD PUSH2 0xFF00 NOT AND PUSH2 0x100 DUP5 ISZERO ISZERO MUL OR SWAP1 SSTORE PUSH1 0x3 SLOAD ADDRESS CALLER PUSH1 0x1 PUSH1 0x1 PUSH1 0xA0 SHL SUB AND PUSH32 0xE9F97AD94C2BA252DCFC525E004F608AC5CB886955D8FC87D9E0EE070A698C56 DUP6 PUSH1 0x40 MLOAD PUSH2 0x1746 SWAP2 ISZERO ISZERO DUP2 MSTORE PUSH1 0x20 ADD SWAP1 JUMP JUMPDEST PUSH1 0x40 MLOAD PUSH4 0x3346DD2D PUSH1 0xE0 SHL DUP2 MSTORE PUSH1 0x45 PUSH1 0x4 DUP3 ADD MSTORE PUSH1 0x24 DUP2 ADD DUP3 SWAP1 MSTORE PUSH1 0x0 SWAP1 PUSH20 0x0 SWAP1 PUSH4 0x3346DD2D SWAP1 PUSH1 0x44 ADD PUSH2 0x1047 JUMP JUMPDEST PUSH1 0x0 DUP1 PUSH20 0x0 PUSH4 0x59186F40 PUSH1 0x45 DUP9 DUP9 DUP9 DUP9 PUSH1 0x40 MLOAD DUP7 PUSH4 0xFFFFFFFF AND PUSH1 0xE0 SHL DUP2 MSTORE PUSH1 0x4 ADD PUSH2 0x19E2 SWAP6 SWAP5 SWAP4 SWAP3 SWAP2 SWAP1 PUSH2 0x4CB5 JUMP JUMPDEST PUSH1 0x20 PUSH1 0x40 MLOAD DUP1 DUP4 SUB DUP2 DUP7 GAS DELEGATECALL ISZERO DUP1 ISZERO PUSH2 0x19FF JUMPI RETURNDATASIZE PUSH1 0x0 DUP1 RETURNDATACOPY RETURNDATASIZE PUSH1 0x0 REVERT JUMPDEST POP POP POP POP PUSH1 0x40 MLOAD RETURNDATASIZE PUSH1 0x1F NOT PUSH1 0x1F DUP3 ADD AND DUP3 ADD DUP1 PUSH1 0x40 MSTORE POP DUP2 ADD SWAP1 PUSH2 0x1A23 SWAP2 SWAP1 PUSH2 0x4941 JUMP JUMPDEST SWAP1 POP CALLER PUSH1 0x1 PUSH1 0x1 PUSH1 0xA0 SHL SUB AND DUP2 PUSH32 0x5A8ACBE7E0FA397D934E9AAFB8FB1A483627AF9E9B4690F4488D740B669F8B47 DUP9 DUP9 DUP9 DUP9 PUSH1 0x40 MLOAD PUSH2 0x1A65 SWAP5 SWAP4 SWAP3 SWAP2 SWAP1 PUSH2 0x4CE8 JUMP JUMPDEST PUSH1 0x40 MLOAD DUP1 SWAP2 SUB SWAP1 LOG3 SWAP6 SWAP5 POP POP POP POP POP JUMP JUMPDEST PUSH1 0x40 MLOAD PUSH32 0x4C4956454C595F41535345545F4D414E414745525F524F4C4500000000000000 PUSH1 0x20 DUP3 ADD MSTORE PUSH1 0x0 SWAP1 PUSH1 0x39 ADD PUSH2 0xFEE JUMP JUMPDEST PUSH1 0x40 MLOAD PUSH4 0x17D6269 PUSH1 0xE0 SHL DUP2 MSTORE PUSH1 0x45 PUSH1 0x4 DUP3 ADD MSTORE PUSH1 0x24 DUP2 ADD DUP3 SWAP1 MSTORE PUSH1 0x0 SWAP1 PUSH20 0x0 SWAP1 PUSH4 0x17D6269 SWAP1 PUSH1 0x44 ADD PUSH2 0x1047 JUMP JUMPDEST PUSH1 0x40 MLOAD PUSH4 0xAF07CFCD PUSH1 0xE0 SHL DUP2 MSTORE PUSH1 0x45 PUSH1 0x4 DUP3 ADD MSTORE PUSH1 0x24 DUP2 ADD DUP3 SWAP1 MSTORE PUSH1 0x0 SWAP1 PUSH20 0x0 SWAP1 PUSH4 0xAF07CFCD SWAP1 PUSH1 0x44 ADD PUSH2 0x1047 JUMP JUMPDEST PUSH1 0x0 ADDRESS PUSH1 0x1 PUSH1 0x1 PUSH1 0xA0 SHL SUB PUSH32 0x0 AND EQ PUSH2 0x1BA8 JUMPI PUSH1 0x40 MLOAD PUSH3 0x461BCD PUSH1 0xE5 SHL DUP2 MSTORE PUSH1 0x20 PUSH1 0x4 DUP3 ADD MSTORE PUSH1 0x1D PUSH1 0x24 DUP3 ADD MSTORE PUSH32 0x496C6C6567616C20436F6E74726163742044656C656761746563616C6C000000 PUSH1 0x44 DUP3 ADD MSTORE PUSH1 0x64 ADD PUSH2 0x15E2 JUMP JUMPDEST POP PUSH1 0x0 DUP1 MLOAD PUSH1 0x20 PUSH2 0x54E0 DUP4 CODECOPY DUP2 MLOAD SWAP2 MSTORE SWAP1 JUMP JUMPDEST PUSH1 0x0 PUSH2 0x12E1 PUSH2 0x35B0 JUMP JUMPDEST PUSH1 0x1 PUSH1 0x1 PUSH1 0xA0 SHL SUB PUSH32 0x0 AND ADDRESS SUB PUSH2 0x1C0D JUMPI PUSH1 0x40 MLOAD PUSH3 0x461BCD PUSH1 0xE5 SHL DUP2 MSTORE PUSH1 0x4 ADD PUSH2 0x15E2 SWAP1 PUSH2 0x4C21 JUMP JUMPDEST PUSH32 0x0 PUSH1 0x1 PUSH1 0x1 PUSH1 0xA0 SHL SUB AND PUSH2 0x1C3F PUSH2 0x35B0 JUMP JUMPDEST PUSH1 0x1 PUSH1 0x1 PUSH1 0xA0 SHL SUB AND EQ PUSH2 0x1C65 JUMPI PUSH1 0x40 MLOAD PUSH3 0x461BCD PUSH1 0xE5 SHL DUP2 MSTORE PUSH1 0x4 ADD PUSH2 0x15E2 SWAP1 PUSH2 0x4C50 JUMP JUMPDEST CALLER PUSH2 0x1C6E PUSH2 0x3850 JUMP JUMPDEST PUSH1 0x1 PUSH1 0x1 PUSH1 0xA0 SHL SUB AND EQ PUSH2 0x1CBC JUMPI PUSH1 0x40 MLOAD PUSH3 0x461BCD PUSH1 0xE5 SHL DUP2 MSTORE PUSH1 0x20 PUSH1 0x4 DUP3 ADD MSTORE PUSH1 0x15 PUSH1 0x24 DUP3 ADD MSTORE PUSH21 0x10D85B1B195C88139BDD08105D5D1A1BDC9A5E9959 PUSH1 0x5A SHL PUSH1 0x44 DUP3 ADD MSTORE PUSH1 0x64 ADD PUSH2 0x15E2 JUMP JUMPDEST PUSH1 0x4A SLOAD PUSH3 0x10000 SWAP1 DIV PUSH1 0xFF AND ISZERO DUP1 DUP1 ISZERO PUSH2 0x1CDE JUMPI POP PUSH1 0x4A SLOAD PUSH1 0x1 PUSH2 0xFFFF SWAP1 SWAP2 AND LT JUMPDEST DUP1 PUSH2 0x1CF9 JUMPI POP ADDRESS EXTCODESIZE ISZERO DUP1 ISZERO PUSH2 0x1CF9 JUMPI POP PUSH1 0x4A SLOAD PUSH2 0xFFFF AND PUSH1 0x1 EQ JUMPDEST PUSH2 0x1D45 JUMPI PUSH1 0x40 MLOAD PUSH3 0x461BCD PUSH1 0xE5 SHL DUP2 MSTORE PUSH1 0x20 PUSH1 0x4 DUP3 ADD MSTORE PUSH1 0x1C PUSH1 0x24 DUP3 ADD MSTORE PUSH32 0x436F6E747261637420416C726561647920496E697469616C697A656400000000 PUSH1 0x44 DUP3 ADD MSTORE PUSH1 0x64 ADD PUSH2 0x15E2 JUMP JUMPDEST PUSH1 0x4A DUP1 SLOAD PUSH2 0xFFFF NOT AND PUSH1 0x1 OR SWAP1 SSTORE DUP1 ISZERO PUSH2 0x1D6B JUMPI PUSH1 0x4A DUP1 SLOAD PUSH3 0xFF0000 NOT AND PUSH3 0x10000 OR SWAP1 SSTORE JUMPDEST PUSH1 0x0 DUP5 DUP5 PUSH1 0x40 MLOAD PUSH1 0x20 ADD PUSH2 0x1D80 SWAP3 SWAP2 SWAP1 PUSH2 0x4D14 JUMP JUMPDEST PUSH1 0x40 DUP1 MLOAD DUP1 DUP4 SUB PUSH1 0x1F NOT ADD DUP2 MSTORE SWAP1 DUP3 SWAP1 MSTORE DUP1 MLOAD PUSH1 0x20 SWAP1 SWAP2 ADD KECCAK256 PUSH4 0x8BAE383 PUSH1 0xE3 SHL DUP3 MSTORE PUSH1 0x45 PUSH1 0x4 DUP4 ADD MSTORE SWAP2 POP PUSH20 0x0 SWAP1 PUSH4 0x45D71C18 SWAP1 PUSH1 0x24 ADD PUSH1 0x0 PUSH1 0x40 MLOAD DUP1 DUP4 SUB DUP2 DUP7 DUP1 EXTCODESIZE ISZERO DUP1 ISZERO PUSH2 0x1DE3 JUMPI PUSH1 0x0 DUP1 REVERT JUMPDEST POP GAS DELEGATECALL ISZERO DUP1 ISZERO PUSH2 0x1DF7 JUMPI RETURNDATASIZE PUSH1 0x0 DUP1 RETURNDATACOPY RETURNDATASIZE PUSH1 0x0 REVERT JUMPDEST POP POP POP POP PUSH2 0x1E09 DUP10 DUP10 DUP10 DUP10 DUP6 DUP9 PUSH2 0x3878 JUMP JUMPDEST PUSH1 0x0 PUSH20 0x0 PUSH4 0x62F3C2D4 PUSH1 0x40 MLOAD DUP2 PUSH4 0xFFFFFFFF AND PUSH1 0xE0 SHL DUP2 MSTORE PUSH1 0x4 ADD PUSH1 0x0 PUSH1 0x40 MLOAD DUP1 DUP4 SUB DUP2 DUP7 GAS DELEGATECALL ISZERO DUP1 ISZERO PUSH2 0x1E54 JUMPI RETURNDATASIZE PUSH1 0x0 DUP1 RETURNDATACOPY RETURNDATASIZE PUSH1 0x0 REVERT JUMPDEST POP POP POP POP PUSH1 0x40 MLOAD RETURNDATASIZE PUSH1 0x0 DUP3 RETURNDATACOPY PUSH1 0x1F RETURNDATASIZE SWAP1 DUP2 ADD PUSH1 0x1F NOT AND DUP3 ADD PUSH1 0x40 MSTORE PUSH2 0x1E7C SWAP2 SWAP1 DUP2 ADD SWAP1 PUSH2 0x4D24 JUMP JUMPDEST PUSH1 0x40 MLOAD PUSH4 0x1F5DCCE3 PUSH1 0xE3 SHL DUP2 MSTORE SWAP1 SWAP2 POP PUSH20 0x0 SWAP1 PUSH4 0xFAEE6718 SWAP1 PUSH2 0x1EBD SWAP1 PUSH1 0x45 SWAP1 ADDRESS SWAP1 DUP8 SWAP1 DUP8 SWAP1 PUSH1 0x4 ADD PUSH2 0x4E27 JUMP JUMPDEST PUSH1 0x20 PUSH1 0x40 MLOAD DUP1 DUP4 SUB DUP2 DUP7 GAS DELEGATECALL ISZERO DUP1 ISZERO PUSH2 0x1EDA JUMPI RETURNDATASIZE PUSH1 0x0 DUP1 RETURNDATACOPY RETURNDATASIZE PUSH1 0x0 REVERT JUMPDEST POP POP POP POP PUSH1 0x40 MLOAD RETURNDATASIZE PUSH1 0x1F NOT PUSH1 0x1F DUP3 ADD AND DUP3 ADD DUP1 PUSH1 0x40 MSTORE POP DUP2 ADD SWAP1 PUSH2 0x1EFE SWAP2 SWAP1 PUSH2 0x4941 JUMP JUMPDEST POP PUSH2 0x1F07 PUSH2 0x35B0 JUMP JUMPDEST PUSH1 0x1 PUSH1 0x1 PUSH1 0xA0 SHL SUB AND ADDRESS CALLER PUSH1 0x1 PUSH1 0x1 PUSH1 0xA0 SHL SUB AND PUSH32 0xF851A1E85477B818FC72AD517EA622CC316F10F67D61C9E740ADC151A8B41394 DUP14 DUP14 DUP14 DUP14 DUP10 PUSH2 0x1F4E PUSH1 0x4A SLOAD PUSH2 0xFFFF AND SWAP1 JUMP JUMPDEST PUSH1 0x40 MLOAD PUSH2 0x1F60 SWAP7 SWAP6 SWAP5 SWAP4 SWAP3 SWAP2 SWAP1 PUSH2 0x4EFF JUMP JUMPDEST PUSH1 0x40 MLOAD DUP1 SWAP2 SUB SWAP1 LOG4 POP POP DUP1 ISZERO PUSH2 0x1F7D JUMPI PUSH1 0x4A DUP1 SLOAD PUSH3 0xFF0000 NOT AND SWAP1 SSTORE JUMPDEST POP POP POP POP POP POP POP POP JUMP JUMPDEST PUSH1 0x40 MLOAD PUSH32 0x4C4956454C595F53595354454D5F41444D494E5F524F4C450000000000000000 PUSH1 0x20 DUP3 ADD MSTORE PUSH1 0x0 SWAP1 PUSH1 0x38 ADD PUSH2 0xFEE JUMP JUMPDEST PUSH1 0x40 MLOAD PUSH15 0x4C4956454C595F44414F5F524F4C45 PUSH1 0x88 SHL PUSH1 0x20 DUP3 ADD MSTORE PUSH1 0x0 SWAP1 PUSH1 0x2F ADD PUSH2 0xFEE JUMP JUMPDEST PUSH1 0x40 MLOAD PUSH4 0xE8A623F PUSH1 0xE3 SHL DUP2 MSTORE PUSH1 0x45 PUSH1 0x4 DUP3 ADD MSTORE PUSH1 0x24 DUP2 ADD DUP3 SWAP1 MSTORE PUSH1 0x60 SWAP1 PUSH1 0x0 SWAP1 PUSH20 0x0 SWAP1 PUSH4 0x745311F8 SWAP1 PUSH1 0x44 ADD PUSH1 0x0 PUSH1 0x40 MLOAD DUP1 DUP4 SUB DUP2 DUP7 GAS DELEGATECALL ISZERO DUP1 ISZERO PUSH2 0x203E JUMPI RETURNDATASIZE PUSH1 0x0 DUP1 RETURNDATACOPY RETURNDATASIZE PUSH1 0x0 REVERT JUMPDEST POP POP POP POP PUSH1 0x40 MLOAD RETURNDATASIZE PUSH1 0x0 DUP3 RETURNDATACOPY PUSH1 0x1F RETURNDATASIZE SWAP1 DUP2 ADD PUSH1 0x1F NOT AND DUP3 ADD PUSH1 0x40 MSTORE PUSH2 0x2066 SWAP2 SWAP1 DUP2 ADD SWAP1 PUSH2 0x4F44 JUMP JUMPDEST SWAP2 POP SWAP2 POP SWAP2 POP SWAP2 JUMP JUMPDEST PUSH1 0x40 MLOAD PUSH4 0x7134BB45 PUSH1 0xE0 SHL DUP2 MSTORE PUSH1 0x45 PUSH1 0x4 DUP3 ADD MSTORE PUSH1 0x24 DUP2 ADD DUP5 SWAP1 MSTORE PUSH1 0x44 DUP2 ADD DUP4 SWAP1 MSTORE PUSH1 0x1 PUSH1 0x1 PUSH1 0xE0 SHL SUB NOT DUP3 AND PUSH1 0x64 DUP3 ADD MSTORE PUSH1 0x0 SWAP1 PUSH20 0x0 SWAP1 PUSH4 0x7134BB45 SWAP1 PUSH1 0x84 ADD JUMPDEST PUSH1 0x20 PUSH1 0x40 MLOAD DUP1 DUP4 SUB DUP2 DUP7 GAS DELEGATECALL ISZERO DUP1 ISZERO PUSH2 0x20E1 JUMPI RETURNDATASIZE PUSH1 0x0 DUP1 RETURNDATACOPY RETURNDATASIZE PUSH1 0x0 REVERT JUMPDEST POP POP POP POP PUSH1 0x40 MLOAD RETURNDATASIZE PUSH1 0x1F NOT PUSH1 0x1F DUP3 ADD AND DUP3 ADD DUP1 PUSH1 0x40 MSTORE POP DUP2 ADD SWAP1 PUSH2 0x2105 SWAP2 SWAP1 PUSH2 0x4974 JUMP JUMPDEST SWAP5 SWAP4 POP POP POP POP JUMP JUMPDEST PUSH1 0x40 MLOAD PUSH4 0x7CC5941D PUSH1 0xE0 SHL DUP2 MSTORE PUSH1 0x45 PUSH1 0x4 DUP3 ADD MSTORE PUSH1 0x24 DUP2 ADD DUP4 SWAP1 MSTORE DUP2 ISZERO ISZERO PUSH1 0x44 DUP3 ADD MSTORE PUSH1 0x0 SWAP1 DUP2 SWAP1 DUP2 SWAP1 PUSH20 0x0 SWAP1 PUSH4 0x7CC5941D SWAP1 PUSH1 0x64 ADD PUSH1 0x40 DUP1 MLOAD DUP1 DUP4 SUB DUP2 DUP7 GAS DELEGATECALL ISZERO DUP1 ISZERO PUSH2 0x2172 JUMPI RETURNDATASIZE PUSH1 0x0 DUP1 RETURNDATACOPY RETURNDATASIZE PUSH1 0x0 REVERT JUMPDEST POP POP POP POP PUSH1 0x40 MLOAD RETURNDATASIZE PUSH1 0x1F NOT PUSH1 0x1F DUP3 ADD AND DUP3 ADD DUP1 PUSH1 0x40 MSTORE POP DUP2 ADD SWAP1 PUSH2 0x2196 SWAP2 SWAP1 PUSH2 0x4F8A JUMP JUMPDEST SWAP2 POP SWAP2 POP DUP1 PUSH2 0x21A2 CALLER SWAP1 JUMP JUMPDEST PUSH1 0x1 PUSH1 0x1 PUSH1 0xA0 SHL SUB AND DUP7 PUSH32 0x354501E3216E5F916D4D35EF255A577D106A7EAB306488227783A837DC042A4E DUP8 PUSH1 0x40 MLOAD PUSH2 0x21DF SWAP2 ISZERO ISZERO DUP2 MSTORE PUSH1 0x20 ADD SWAP1 JUMP JUMPDEST PUSH1 0x40 MLOAD DUP1 SWAP2 SUB SWAP1 LOG4 POP SWAP4 SWAP3 POP POP POP JUMP JUMPDEST PUSH1 0x60 PUSH1 0x1 PUSH1 0x1 PUSH1 0xA0 SHL SUB PUSH32 0x0 AND ADDRESS SUB PUSH2 0x2239 JUMPI PUSH1 0x40 MLOAD PUSH3 0x461BCD PUSH1 0xE5 SHL DUP2 MSTORE PUSH1 0x4 ADD PUSH2 0x15E2 SWAP1 PUSH2 0x4C21 JUMP JUMPDEST PUSH32 0x0 PUSH1 0x1 PUSH1 0x1 PUSH1 0xA0 SHL SUB AND PUSH2 0x226B PUSH2 0x35B0 JUMP JUMPDEST PUSH1 0x1 PUSH1 0x1 PUSH1 0xA0 SHL SUB AND EQ PUSH2 0x2291 JUMPI PUSH1 0x40 MLOAD PUSH3 0x461BCD PUSH1 0xE5 SHL DUP2 MSTORE PUSH1 0x4 ADD PUSH2 0x15E2 SWAP1 PUSH2 0x4C50 JUMP JUMPDEST PUSH1 0x4 SLOAD PUSH1 0xFF AND ISZERO PUSH2 0x22B4 JUMPI PUSH1 0x40 MLOAD PUSH3 0x461BCD PUSH1 0xE5 SHL DUP2 MSTORE PUSH1 0x4 ADD PUSH2 0x15E2 SWAP1 PUSH2 0x4C7E JUMP JUMPDEST PUSH1 0x4 SLOAD PUSH2 0x100 SWAP1 DIV PUSH1 0xFF AND PUSH2 0x2303 JUMPI PUSH1 0x40 MLOAD PUSH3 0x461BCD PUSH1 0xE5 SHL DUP2 MSTORE PUSH1 0x20 PUSH1 0x4 DUP3 ADD MSTORE PUSH1 0x15 PUSH1 0x24 DUP3 ADD MSTORE PUSH21 0x155C19DC9859194810D85B1B0814995A9958DD1959 PUSH1 0x5A SHL PUSH1 0x44 DUP3 ADD MSTORE PUSH1 0x64 ADD PUSH2 0x15E2 JUMP JUMPDEST PUSH2 0x230C DUP5 PUSH2 0x388E JUMP JUMPDEST PUSH2 0x2105 DUP5 DUP5 DUP5 PUSH2 0x3955 JUMP JUMPDEST PUSH1 0x40 MLOAD PUSH20 0x4C4956454C595F47454E4552414C5F5245414C4D PUSH1 0x60 SHL PUSH1 0x20 DUP3 ADD MSTORE PUSH1 0x0 SWAP1 PUSH1 0x34 ADD PUSH2 0xFEE JUMP JUMPDEST PUSH1 0x4 SLOAD PUSH1 0xFF AND ISZERO PUSH2 0x2365 JUMPI PUSH1 0x40 MLOAD PUSH3 0x461BCD PUSH1 0xE5 SHL DUP2 MSTORE PUSH1 0x4 ADD PUSH2 0x15E2 SWAP1 PUSH2 0x4C7E JUMP JUMPDEST PUSH2 0x2375 PUSH4 0x756AF45F PUSH1 0xE0 SHL PUSH2 0x35D1 JUMP JUMPDEST PUSH2 0x23C1 JUMPI PUSH1 0x40 MLOAD PUSH3 0x461BCD PUSH1 0xE5 SHL DUP2 MSTORE PUSH1 0x20 PUSH1 0x4 DUP3 ADD MSTORE PUSH1 0x1A PUSH1 0x24 DUP3 ADD MSTORE PUSH32 0x57697468647261772042616C616E636520466F7262696464656E000000000000 PUSH1 0x44 DUP3 ADD MSTORE PUSH1 0x64 ADD PUSH2 0x15E2 JUMP JUMPDEST PUSH1 0x40 MLOAD PUSH1 0x1 PUSH1 0x1 PUSH1 0xA0 SHL SUB DUP3 AND SWAP1 SELFBALANCE DUP1 ISZERO PUSH2 0x8FC MUL SWAP2 PUSH1 0x0 DUP2 DUP2 DUP2 DUP6 DUP9 DUP9 CALL SWAP4 POP POP POP POP ISZERO DUP1 ISZERO PUSH2 0x23F6 JUMPI RETURNDATASIZE PUSH1 0x0 DUP1 RETURNDATACOPY RETURNDATASIZE PUSH1 0x0 REVERT JUMPDEST POP POP JUMP JUMPDEST PUSH1 0x0 DUP1 PUSH20 0x0 PUSH4 0x453DD6DC PUSH1 0x45 DUP8 DUP8 DUP8 PUSH1 0x40 MLOAD DUP6 PUSH4 0xFFFFFFFF AND PUSH1 0xE0 SHL DUP2 MSTORE PUSH1 0x4 ADD PUSH2 0x243B SWAP5 SWAP4 SWAP3 SWAP2 SWAP1 PUSH2 0x491C JUMP JUMPDEST PUSH1 0x20 PUSH1 0x40 MLOAD DUP1 DUP4 SUB DUP2 DUP7 GAS DELEGATECALL ISZERO DUP1 ISZERO PUSH2 0x2458 JUMPI RETURNDATASIZE PUSH1 0x0 DUP1 RETURNDATACOPY RETURNDATASIZE PUSH1 0x0 REVERT JUMPDEST POP POP POP POP PUSH1 0x40 MLOAD RETURNDATASIZE PUSH1 0x1F NOT PUSH1 0x1F DUP3 ADD AND DUP3 ADD DUP1 PUSH1 0x40 MSTORE POP DUP2 ADD SWAP1 PUSH2 0x247C SWAP2 SWAP1 PUSH2 0x4941 JUMP JUMPDEST SWAP1 POP CALLER PUSH1 0x1 PUSH1 0x1 PUSH1 0xA0 SHL SUB AND DUP4 DUP7 PUSH32 0xEA00FF399A342F54B82233841F91FAA5677300E901667E010E9F22AEA1AE5931 DUP8 DUP6 PUSH1 0x40 MLOAD PUSH2 0xFB5 SWAP3 SWAP2 SWAP1 PUSH2 0x495A JUMP JUMPDEST PUSH1 0x0 PUSH2 0x12E1 ADDRESS PUSH2 0x3BA6 JUMP JUMPDEST PUSH1 0x0 CALLER PUSH1 0x1 PUSH1 0x1 PUSH1 0xA0 SHL SUB AND DUP4 PUSH32 0xFE1617B569BD167AB40B31E034F68E32656219DBE4AB9469A00660550FEC72C8 DUP5 PUSH1 0x40 MLOAD PUSH2 0x2506 SWAP2 ISZERO ISZERO DUP2 MSTORE PUSH1 0x20 ADD SWAP1 JUMP JUMPDEST PUSH1 0x40 MLOAD DUP1 SWAP2 SUB SWAP1 LOG3 PUSH1 0x40 MLOAD PUSH4 0x549F02D PUSH1 0xE0 SHL DUP2 MSTORE PUSH1 0x45 PUSH1 0x4 DUP3 ADD MSTORE PUSH1 0x24 DUP2 ADD DUP5 SWAP1 MSTORE DUP3 ISZERO ISZERO PUSH1 0x44 DUP3 ADD MSTORE PUSH20 0x0 SWAP1 PUSH4 0x549F02D SWAP1 PUSH1 0x64 ADD PUSH2 0x10C7 JUMP JUMPDEST PUSH1 0x40 MLOAD PUSH4 0x10F07501 PUSH1 0xE0 SHL DUP2 MSTORE PUSH1 0x45 PUSH1 0x4 DUP3 ADD MSTORE PUSH1 0x24 DUP2 ADD DUP3 SWAP1 MSTORE PUSH1 0x0 SWAP1 PUSH20 0x0 SWAP1 PUSH4 0x10F07501 SWAP1 PUSH1 0x44 ADD PUSH2 0x1047 JUMP JUMPDEST PUSH1 0x40 MLOAD PUSH1 0x0 SWAP1 PUSH1 0x1 PUSH1 0x1 PUSH1 0xA0 SHL SUB DUP4 AND SWAP1 DUP5 SWAP1 CALLER SWAP1 PUSH32 0xD992F85DF7A0BE47C44B0BE141BE17EEFD360033A4CE05B5458FBA27B7781999 SWAP1 DUP6 SWAP1 LOG4 PUSH1 0x40 MLOAD PUSH4 0x89D4DA65 PUSH1 0xE0 SHL DUP2 MSTORE PUSH1 0x45 PUSH1 0x4 DUP3 ADD MSTORE PUSH1 0x24 DUP2 ADD DUP5 SWAP1 MSTORE PUSH1 0x1 PUSH1 0x1 PUSH1 0xA0 SHL SUB DUP4 AND PUSH1 0x44 DUP3 ADD MSTORE PUSH20 0x0 SWAP1 PUSH4 0x89D4DA65 SWAP1 PUSH1 0x64 ADD PUSH2 0x10C7 JUMP JUMPDEST PUSH1 0x40 MLOAD PUSH4 0x327C4965 PUSH1 0xE1 SHL DUP2 MSTORE PUSH1 0x45 PUSH1 0x4 DUP3 ADD MSTORE PUSH1 0x24 DUP2 ADD DUP3 SWAP1 MSTORE PUSH1 0x0 SWAP1 PUSH20 0x0 SWAP1 PUSH4 0x64F892CA SWAP1 PUSH1 0x44 ADD PUSH2 0x1047 JUMP JUMPDEST PUSH1 0x40 MLOAD PUSH4 0xBE74825B PUSH1 0xE0 SHL DUP2 MSTORE PUSH1 0x45 PUSH1 0x4 DUP3 ADD MSTORE PUSH1 0x1 PUSH1 0x1 PUSH1 0xA0 SHL SUB DUP3 AND PUSH1 0x24 DUP3 ADD MSTORE PUSH1 0x0 SWAP1 PUSH20 0x0 SWAP1 PUSH4 0xBE74825B SWAP1 PUSH1 0x44 ADD PUSH2 0x1047 JUMP JUMPDEST PUSH1 0x40 DUP1 MLOAD PUSH1 0xC0 DUP2 ADD DUP3 MSTORE PUSH1 0x0 DUP1 DUP3 MSTORE PUSH1 0x20 DUP3 ADD DUP2 SWAP1 MSTORE DUP2 DUP4 ADD DUP2 SWAP1 MSTORE PUSH1 0x60 DUP3 ADD DUP2 SWAP1 MSTORE PUSH1 0x80 DUP3 ADD DUP2 SWAP1 MSTORE PUSH1 0xA0 DUP3 ADD MSTORE SWAP1 MLOAD PUSH4 0x399D749F PUSH1 0xE1 SHL DUP2 MSTORE PUSH1 0x45 PUSH1 0x4 DUP3 ADD MSTORE PUSH1 0x24 DUP2 ADD DUP4 SWAP1 MSTORE PUSH20 0x0 SWAP1 PUSH4 0x733AE93E SWAP1 PUSH1 0x44 ADD PUSH1 0xC0 PUSH1 0x40 MLOAD DUP1 DUP4 SUB DUP2 DUP7 GAS DELEGATECALL ISZERO DUP1 ISZERO PUSH2 0x2730 JUMPI RETURNDATASIZE PUSH1 0x0 DUP1 RETURNDATACOPY RETURNDATASIZE PUSH1 0x0 REVERT JUMPDEST POP POP POP POP PUSH1 0x40 MLOAD RETURNDATASIZE PUSH1 0x1F NOT PUSH1 0x1F DUP3 ADD AND DUP3 ADD DUP1 PUSH1 0x40 MSTORE POP DUP2 ADD SWAP1 PUSH2 0xEEE SWAP2 SWAP1 PUSH2 0x4FB8 JUMP JUMPDEST PUSH1 0x40 MLOAD PUSH4 0x6C203FFF PUSH1 0xE1 SHL DUP2 MSTORE PUSH1 0x45 PUSH1 0x4 DUP3 ADD MSTORE PUSH1 0x1 PUSH1 0x1 PUSH1 0xA0 SHL SUB DUP3 AND PUSH1 0x24 DUP3 ADD MSTORE PUSH1 0x0 SWAP1 PUSH20 0x0 SWAP1 PUSH4 0xD8407FFE SWAP1 PUSH1 0x44 ADD PUSH2 0x1047 JUMP JUMPDEST PUSH1 0x0 DUP1 PUSH20 0x0 PUSH4 0x3859EB7F PUSH1 0x45 DUP9 DUP9 DUP9 DUP9 PUSH1 0x40 MLOAD DUP7 PUSH4 0xFFFFFFFF AND PUSH1 0xE0 SHL DUP2 MSTORE PUSH1 0x4 ADD PUSH2 0x27E1 SWAP6 SWAP5 SWAP4 SWAP3 SWAP2 SWAP1 PUSH2 0x5049 JUMP JUMPDEST PUSH1 0x20 PUSH1 0x40 MLOAD DUP1 DUP4 SUB DUP2 DUP7 GAS DELEGATECALL ISZERO DUP1 ISZERO PUSH2 0x27FE JUMPI RETURNDATASIZE PUSH1 0x0 DUP1 RETURNDATACOPY RETURNDATASIZE PUSH1 0x0 REVERT JUMPDEST POP POP POP POP PUSH1 0x40 MLOAD RETURNDATASIZE PUSH1 0x1F NOT PUSH1 0x1F DUP3 ADD AND DUP3 ADD DUP1 PUSH1 0x40 MSTORE POP DUP2 ADD SWAP1 PUSH2 0x2822 SWAP2 SWAP1 PUSH2 0x4941 JUMP JUMPDEST SWAP1 POP DUP6 DUP6 PUSH1 0x40 MLOAD PUSH2 0x2834 SWAP3 SWAP2 SWAP1 PUSH2 0x4D14 JUMP JUMPDEST PUSH1 0x40 MLOAD DUP1 SWAP2 SUB SWAP1 KECCAK256 DUP2 PUSH2 0x2844 CALLER SWAP1 JUMP JUMPDEST PUSH1 0x1 PUSH1 0x1 PUSH1 0xA0 SHL SUB AND PUSH32 0x539B07DDDD6BD9FFEFA3D951A9467D78948CBE1A8D13BE00E7376842A83A5981 DUP8 DUP8 PUSH1 0x40 MLOAD PUSH2 0x2889 SWAP3 SWAP2 SWAP1 SWAP2 DUP3 MSTORE ISZERO ISZERO PUSH1 0x20 DUP3 ADD MSTORE PUSH1 0x40 ADD SWAP1 JUMP JUMPDEST PUSH1 0x40 MLOAD DUP1 SWAP2 SUB SWAP1 LOG4 SWAP6 SWAP5 POP POP POP POP POP JUMP JUMPDEST PUSH1 0x40 MLOAD PUSH4 0x37B3CDD7 PUSH1 0xE2 SHL DUP2 MSTORE PUSH1 0x0 SWAP1 PUSH20 0x0 SWAP1 PUSH4 0xDECF375C SWAP1 PUSH2 0x10C7 SWAP1 PUSH1 0x45 SWAP1 DUP8 SWAP1 DUP8 SWAP1 PUSH1 0x4 ADD PUSH2 0x4991 JUMP JUMPDEST PUSH1 0x0 DUP1 PUSH20 0x0 PUSH4 0xB0C25575 PUSH1 0x45 DUP7 DUP7 PUSH1 0x40 MLOAD DUP5 PUSH4 0xFFFFFFFF AND PUSH1 0xE0 SHL DUP2 MSTORE PUSH1 0x4 ADD PUSH2 0x2918 SWAP4 SWAP3 SWAP2 SWAP1 PUSH2 0x4991 JUMP JUMPDEST PUSH1 0x20 PUSH1 0x40 MLOAD DUP1 DUP4 SUB DUP2 DUP7 GAS DELEGATECALL ISZERO DUP1 ISZERO PUSH2 0x2935 JUMPI RETURNDATASIZE PUSH1 0x0 DUP1 RETURNDATACOPY RETURNDATASIZE PUSH1 0x0 REVERT JUMPDEST POP POP POP POP PUSH1 0x40 MLOAD RETURNDATASIZE PUSH1 0x1F NOT PUSH1 0x1F DUP3 ADD AND DUP3 ADD DUP1 PUSH1 0x40 MSTORE POP DUP2 ADD SWAP1 PUSH2 0x2959 SWAP2 SWAP1 PUSH2 0x4941 JUMP JUMPDEST SWAP1 POP CALLER PUSH1 0x1 PUSH1 0x1 PUSH1 0xA0 SHL SUB AND DUP5 PUSH32 0xA6234DFEA6DA9D63D0505BA9B61AC8405DFD897089208859CDA18011C4847D69 DUP6 DUP5 PUSH1 0x40 MLOAD PUSH2 0x2997 SWAP3 SWAP2 SWAP1 PUSH2 0x495A JUMP JUMPDEST PUSH1 0x40 MLOAD DUP1 SWAP2 SUB SWAP1 LOG3 POP PUSH1 0x1 SWAP4 SWAP3 POP POP POP JUMP JUMPDEST PUSH1 0x0 CALLER PUSH1 0x1 PUSH1 0x1 PUSH1 0xA0 SHL SUB AND DUP4 PUSH32 0xE595D6B009CBFD06BFDFC4B7C06799F0E0B08FB2C6F5FA6E28A9AAC2495440F9 DUP5 PUSH1 0x40 MLOAD PUSH2 0x29E9 SWAP2 ISZERO ISZERO DUP2 MSTORE PUSH1 0x20 ADD SWAP1 JUMP JUMPDEST PUSH1 0x40 MLOAD DUP1 SWAP2 SUB SWAP1 LOG3 PUSH1 0x40 MLOAD PUSH4 0x7C95BCDF PUSH1 0xE0 SHL DUP2 MSTORE PUSH1 0x45 PUSH1 0x4 DUP3 ADD MSTORE PUSH1 0x24 DUP2 ADD DUP5 SWAP1 MSTORE DUP3 ISZERO ISZERO PUSH1 0x44 DUP3 ADD MSTORE PUSH20 0x0 SWAP1 PUSH4 0x7C95BCDF SWAP1 PUSH1 0x64 ADD PUSH2 0x10C7 JUMP JUMPDEST PUSH1 0x40 MLOAD PUSH4 0x1F9471EF PUSH1 0xE0 SHL DUP2 MSTORE PUSH1 0x45 PUSH1 0x4 DUP3 ADD MSTORE PUSH1 0x24 DUP2 ADD DUP3 SWAP1 MSTORE PUSH1 0x60 SWAP1 PUSH1 0x0 SWAP1 DUP2 SWAP1 PUSH20 0x0 SWAP1 PUSH4 0x1F9471EF SWAP1 PUSH1 0x44 ADD PUSH1 0x0 PUSH1 0x40 MLOAD DUP1 DUP4 SUB DUP2 DUP7 GAS DELEGATECALL ISZERO DUP1 ISZERO PUSH2 0x2A97 JUMPI RETURNDATASIZE PUSH1 0x0 DUP1 RETURNDATACOPY RETURNDATASIZE PUSH1 0x0 REVERT JUMPDEST POP POP POP POP PUSH1 0x40 MLOAD RETURNDATASIZE PUSH1 0x0 DUP3 RETURNDATACOPY PUSH1 0x1F RETURNDATASIZE SWAP1 DUP2 ADD PUSH1 0x1F NOT AND DUP3 ADD PUSH1 0x40 MSTORE PUSH2 0x13A1 SWAP2 SWAP1 DUP2 ADD SWAP1 PUSH2 0x507C JUMP JUMPDEST PUSH1 0x40 MLOAD PUSH4 0x3BCD353D PUSH1 0xE1 SHL DUP2 MSTORE PUSH1 0x45 PUSH1 0x4 DUP3 ADD MSTORE PUSH1 0x24 DUP2 ADD DUP3 SWAP1 MSTORE PUSH1 0x0 SWAP1 PUSH20 0x0 SWAP1 PUSH4 0x779A6A7A SWAP1 PUSH1 0x44 ADD PUSH2 0x1047 JUMP JUMPDEST PUSH1 0x40 MLOAD PUSH4 0x243E34B PUSH1 0xE5 SHL DUP2 MSTORE PUSH1 0x45 PUSH1 0x4 DUP3 ADD MSTORE PUSH1 0x24 DUP2 ADD DUP5 SWAP1 MSTORE PUSH1 0x1 PUSH1 0x1 PUSH1 0xA0 SHL SUB DUP4 AND PUSH1 0x44 DUP3 ADD MSTORE PUSH1 0x1 PUSH1 0x1 PUSH1 0xE0 SHL SUB NOT DUP3 AND PUSH1 0x64 DUP3 ADD MSTORE PUSH1 0x0 SWAP1 PUSH20 0x0 SWAP1 PUSH4 0x487C6960 SWAP1 PUSH1 0x84 ADD PUSH2 0x20C4 JUMP JUMPDEST PUSH1 0x40 MLOAD PUSH4 0x938AE71 PUSH1 0xE0 SHL DUP2 MSTORE PUSH1 0x45 PUSH1 0x4 DUP3 ADD MSTORE PUSH1 0x24 DUP2 ADD DUP4 SWAP1 MSTORE PUSH1 0x1 PUSH1 0x1 PUSH1 0xA0 SHL SUB DUP3 AND PUSH1 0x44 DUP3 ADD MSTORE PUSH1 0x0 SWAP1 PUSH20 0x0 SWAP1 PUSH4 0x938AE71 SWAP1 PUSH1 0x64 ADD PUSH2 0x10C7 JUMP JUMPDEST PUSH1 0x40 MLOAD PUSH4 0x1F00AF7B PUSH1 0xE1 SHL DUP2 MSTORE PUSH1 0x45 PUSH1 0x4 DUP3 ADD MSTORE PUSH1 0x24 DUP2 ADD DUP4 SWAP1 MSTORE PUSH1 0x44 DUP2 ADD DUP3 SWAP1 MSTORE PUSH1 0x0 SWAP1 DUP2 SWAP1 DUP2 SWAP1 PUSH20 0x0 SWAP1 PUSH4 0x3E015EF6 SWAP1 PUSH1 0x64 ADD PUSH1 0x40 DUP1 MLOAD DUP1 DUP4 SUB DUP2 DUP7 GAS DELEGATECALL ISZERO DUP1 ISZERO PUSH2 0x2C17 JUMPI RETURNDATASIZE PUSH1 0x0 DUP1 RETURNDATACOPY RETURNDATASIZE PUSH1 0x0 REVERT JUMPDEST POP POP POP POP PUSH1 0x40 MLOAD RETURNDATASIZE PUSH1 0x1F NOT PUSH1 0x1F DUP3 ADD AND DUP3 ADD DUP1 PUSH1 0x40 MSTORE POP DUP2 ADD SWAP1 PUSH2 0x2C3B SWAP2 SWAP1 PUSH2 0x4F8A JUMP JUMPDEST SWAP2 POP SWAP2 POP DUP4 PUSH2 0x2C47 CALLER SWAP1 JUMP JUMPDEST PUSH1 0x1 PUSH1 0x1 PUSH1 0xA0 SHL SUB AND DUP7 PUSH32 0xA0EAA0025D4F12545803A03C369115C59F885DF7B5FC07A6393438827DBF51B7 DUP5 PUSH1 0x40 MLOAD PUSH2 0x21DF SWAP2 DUP2 MSTORE PUSH1 0x20 ADD SWAP1 JUMP JUMPDEST PUSH1 0x40 MLOAD PUSH4 0x1E7ABEE3 PUSH1 0xE2 SHL DUP2 MSTORE PUSH1 0x45 PUSH1 0x4 DUP3 ADD MSTORE PUSH1 0x24 DUP2 ADD DUP4 SWAP1 MSTORE PUSH1 0x44 DUP2 ADD DUP3 SWAP1 MSTORE PUSH1 0x0 SWAP1 PUSH20 0x0 SWAP1 PUSH4 0x79EAFB8C SWAP1 PUSH1 0x64 ADD PUSH2 0x10C7 JUMP JUMPDEST PUSH1 0x0 PUSH1 0x1 PUSH1 0x1 PUSH1 0xA0 SHL SUB PUSH32 0x0 AND ADDRESS SUB PUSH2 0x2D15 JUMPI PUSH1 0x40 MLOAD PUSH3 0x461BCD PUSH1 0xE5 SHL DUP2 MSTORE PUSH1 0x4 ADD PUSH2 0x15E2 SWAP1 PUSH2 0x4C21 JUMP JUMPDEST PUSH32 0x0 PUSH1 0x1 PUSH1 0x1 PUSH1 0xA0 SHL SUB AND PUSH2 0x2D47 PUSH2 0x35B0 JUMP JUMPDEST PUSH1 0x1 PUSH1 0x1 PUSH1 0xA0 SHL SUB AND EQ PUSH2 0x2D6D JUMPI PUSH1 0x40 MLOAD PUSH3 0x461BCD PUSH1 0xE5 SHL DUP2 MSTORE PUSH1 0x4 ADD PUSH2 0x15E2 SWAP1 PUSH2 0x4C50 JUMP JUMPDEST PUSH1 0x4 SLOAD PUSH1 0xFF AND ISZERO PUSH2 0x2D90 JUMPI PUSH1 0x40 MLOAD PUSH3 0x461BCD PUSH1 0xE5 SHL DUP2 MSTORE PUSH1 0x4 ADD PUSH2 0x15E2 SWAP1 PUSH2 0x4C7E JUMP JUMPDEST PUSH2 0x2DA0 PUSH4 0xD9DC1F19 PUSH1 0xE0 SHL PUSH2 0x35D1 JUMP JUMPDEST PUSH2 0x2DEC JUMPI PUSH1 0x40 MLOAD PUSH3 0x461BCD PUSH1 0xE5 SHL DUP2 MSTORE PUSH1 0x20 PUSH1 0x4 DUP3 ADD MSTORE PUSH1 0x17 PUSH1 0x24 DUP3 ADD MSTORE PUSH32 0x5365744C6F63616C41646D696E20466F7262696464656E000000000000000000 PUSH1 0x44 DUP3 ADD MSTORE PUSH1 0x64 ADD PUSH2 0x15E2 JUMP JUMPDEST PUSH1 0x1 PUSH1 0x1 PUSH1 0xA0 SHL SUB DUP3 AND PUSH2 0x2E34 JUMPI PUSH1 0x40 MLOAD PUSH3 0x461BCD PUSH1 0xE5 SHL DUP2 MSTORE PUSH1 0x20 PUSH1 0x4 DUP3 ADD MSTORE PUSH1 0xF PUSH1 0x24 DUP3 ADD MSTORE PUSH15 0x1059191C995CDCC8125B9D985B1A59 PUSH1 0x8A SHL PUSH1 0x44 DUP3 ADD MSTORE PUSH1 0x64 ADD PUSH2 0x15E2 JUMP JUMPDEST PUSH2 0x2E3D DUP3 PUSH2 0x3BE5 JUMP JUMPDEST POP PUSH1 0x1 SWAP2 SWAP1 POP JUMP JUMPDEST PUSH1 0x40 MLOAD PUSH4 0xC3203FD1 PUSH1 0xE0 SHL DUP2 MSTORE PUSH1 0x45 PUSH1 0x4 DUP3 ADD MSTORE PUSH1 0x24 DUP2 ADD DUP4 SWAP1 MSTORE PUSH1 0x44 DUP2 ADD DUP3 SWAP1 MSTORE PUSH1 0x0 SWAP1 DUP2 SWAP1 DUP2 SWAP1 PUSH20 0x0 SWAP1 PUSH4 0xC3203FD1 SWAP1 PUSH1 0x64 ADD PUSH1 0x40 DUP1 MLOAD DUP1 DUP4 SUB DUP2 DUP7 GAS DELEGATECALL ISZERO DUP1 ISZERO PUSH2 0x2EA9 JUMPI RETURNDATASIZE PUSH1 0x0 DUP1 RETURNDATACOPY RETURNDATASIZE PUSH1 0x0 REVERT JUMPDEST POP POP POP POP PUSH1 0x40 MLOAD RETURNDATASIZE PUSH1 0x1F NOT PUSH1 0x1F DUP3 ADD AND DUP3 ADD DUP1 PUSH1 0x40 MSTORE POP DUP2 ADD SWAP1 PUSH2 0x2ECD SWAP2 SWAP1 PUSH2 0x4F8A JUMP JUMPDEST SWAP2 POP SWAP2 POP DUP4 DUP6 PUSH2 0x2EDA CALLER SWAP1 JUMP JUMPDEST PUSH1 0x1 PUSH1 0x1 PUSH1 0xA0 SHL SUB AND PUSH32 0x970F60A11B3302F55122BDB3E2DE766D28491B40FE0A2A6D04DA71E5AB577CB9 DUP5 PUSH1 0x40 MLOAD PUSH2 0x21DF SWAP2 DUP2 MSTORE PUSH1 0x20 ADD SWAP1 JUMP JUMPDEST PUSH1 0x40 MLOAD PUSH4 0xD95140EB PUSH1 0xE0 SHL DUP2 MSTORE PUSH1 0x45 PUSH1 0x4 DUP3 ADD MSTORE PUSH1 0x24 DUP2 ADD DUP3 SWAP1 MSTORE PUSH1 0x0 SWAP1 PUSH20 0x0 SWAP1 PUSH4 0xD95140EB SWAP1 PUSH1 0x44 ADD PUSH2 0x1047 JUMP JUMPDEST PUSH1 0x40 MLOAD PUSH1 0x0 SWAP1 PUSH1 0x1 PUSH1 0x1 PUSH1 0xA0 SHL SUB DUP4 AND SWAP1 DUP5 SWAP1 CALLER SWAP1 PUSH32 0x1D31FE42F06D4C1F16F6CB7B5682F1D6743641A9E1412FA0258F6776C5B943EE SWAP1 DUP6 SWAP1 LOG4 PUSH1 0x40 MLOAD PUSH4 0x3D580577 PUSH1 0xE0 SHL DUP2 MSTORE PUSH1 0x45 PUSH1 0x4 DUP3 ADD MSTORE PUSH1 0x24 DUP2 ADD DUP5 SWAP1 MSTORE PUSH1 0x1 PUSH1 0x1 PUSH1 0xA0 SHL SUB DUP4 AND PUSH1 0x44 DUP3 ADD MSTORE PUSH20 0x0 SWAP1 PUSH4 0x3D580577 SWAP1 PUSH1 0x64 ADD PUSH2 0x10C7 JUMP JUMPDEST PUSH1 0x40 MLOAD PUSH4 0x3E5C6E97 PUSH1 0xE1 SHL DUP2 MSTORE PUSH1 0x45 PUSH1 0x4 DUP3 ADD MSTORE PUSH1 0x24 DUP2 ADD DUP3 SWAP1 MSTORE PUSH1 0x60 SWAP1 PUSH20 0x0 SWAP1 PUSH4 0x7CB8DD2E SWAP1 PUSH1 0x44 ADD PUSH1 0x0 PUSH1 0x40 MLOAD DUP1 DUP4 SUB DUP2 DUP7 GAS DELEGATECALL ISZERO DUP1 ISZERO PUSH2 0x3038 JUMPI RETURNDATASIZE PUSH1 0x0 DUP1 RETURNDATACOPY RETURNDATASIZE PUSH1 0x0 REVERT JUMPDEST POP POP POP POP PUSH1 0x40 MLOAD RETURNDATASIZE PUSH1 0x0 DUP3 RETURNDATACOPY PUSH1 0x1F RETURNDATASIZE SWAP1 DUP2 ADD PUSH1 0x1F NOT AND DUP3 ADD PUSH1 0x40 MSTORE PUSH2 0xEEE SWAP2 SWAP1 DUP2 ADD SWAP1 PUSH2 0x50CB JUMP JUMPDEST PUSH1 0x40 MLOAD PUSH4 0x33064C89 PUSH1 0xE1 SHL DUP2 MSTORE PUSH1 0x45 PUSH1 0x4 DUP3 ADD MSTORE PUSH1 0x24 DUP2 ADD DUP3 SWAP1 MSTORE PUSH1 0x0 SWAP1 PUSH20 0x0 SWAP1 PUSH4 0x660C9912 SWAP1 PUSH1 0x44 ADD PUSH2 0x1047 JUMP JUMPDEST PUSH1 0x0 DUP1 PUSH1 0x0 PUSH20 0x0 PUSH4 0x99A0C2E PUSH1 0x45 DUP11 DUP11 DUP11 DUP11 DUP11 PUSH1 0x40 MLOAD DUP8 PUSH4 0xFFFFFFFF AND PUSH1 0xE0 SHL DUP2 MSTORE PUSH1 0x4 ADD PUSH2 0x30E9 SWAP7 SWAP6 SWAP5 SWAP4 SWAP3 SWAP2 SWAP1 PUSH2 0x5259 JUMP JUMPDEST PUSH1 0x40 DUP1 MLOAD DUP1 DUP4 SUB DUP2 DUP7 GAS DELEGATECALL ISZERO DUP1 ISZERO PUSH2 0x3105 JUMPI RETURNDATASIZE PUSH1 0x0 DUP1 RETURNDATACOPY RETURNDATASIZE PUSH1 0x0 REVERT JUMPDEST POP POP POP POP PUSH1 0x40 MLOAD RETURNDATASIZE PUSH1 0x1F NOT PUSH1 0x1F DUP3 ADD AND DUP3 ADD DUP1 PUSH1 0x40 MSTORE POP DUP2 ADD SWAP1 PUSH2 0x3129 SWAP2 SWAP1 PUSH2 0x5322 JUMP JUMPDEST SWAP2 POP SWAP2 POP DUP1 PUSH1 0x1 PUSH1 0x1 PUSH1 0xA0 SHL SUB AND DUP3 PUSH1 0x1 PUSH1 0x1 PUSH1 0xA0 SHL SUB AND DUP10 PUSH32 0x2ACEC3419C1D10DAB06D0715F556E96B344F2092A52A23FB192B4B89F5B7CF42 DUP10 PUSH1 0x40 ADD CALLDATALOAD PUSH1 0x40 MLOAD PUSH2 0x3177 SWAP2 DUP2 MSTORE PUSH1 0x20 ADD SWAP1 JUMP JUMPDEST PUSH1 0x40 MLOAD DUP1 SWAP2 SUB SWAP1 LOG4 POP SWAP7 SWAP6 POP POP POP POP POP POP JUMP JUMPDEST PUSH1 0x40 MLOAD PUSH4 0x3D2003D3 PUSH1 0xE2 SHL DUP2 MSTORE PUSH1 0x45 PUSH1 0x4 DUP3 ADD MSTORE PUSH1 0x24 DUP2 ADD DUP4 SWAP1 MSTORE DUP2 ISZERO ISZERO PUSH1 0x44 DUP3 ADD MSTORE PUSH1 0x0 SWAP1 DUP2 SWAP1 DUP2 SWAP1 PUSH20 0x0 SWAP1 PUSH4 0xF4800F4C SWAP1 PUSH1 0x64 ADD PUSH1 0x40 DUP1 MLOAD DUP1 DUP4 SUB DUP2 DUP7 GAS DELEGATECALL ISZERO DUP1 ISZERO PUSH2 0x31EF JUMPI RETURNDATASIZE PUSH1 0x0 DUP1 RETURNDATACOPY RETURNDATASIZE PUSH1 0x0 REVERT JUMPDEST POP POP POP POP PUSH1 0x40 MLOAD RETURNDATASIZE PUSH1 0x1F NOT PUSH1 0x1F DUP3 ADD AND DUP3 ADD DUP1 PUSH1 0x40 MSTORE POP DUP2 ADD SWAP1 PUSH2 0x3213 SWAP2 SWAP1 PUSH2 0x4F8A JUMP JUMPDEST SWAP2 POP SWAP2 POP DUP1 DUP6 PUSH2 0x3220 CALLER SWAP1 JUMP JUMPDEST PUSH1 0x1 PUSH1 0x1 PUSH1 0xA0 SHL SUB AND PUSH32 0xAAF3A0E62C1102E283A5A18E81D678B9CE6F4F043CC7AFAFEE4F7F82B85330A2 DUP8 PUSH1 0x40 MLOAD PUSH2 0x21DF SWAP2 ISZERO ISZERO DUP2 MSTORE PUSH1 0x20 ADD SWAP1 JUMP JUMPDEST PUSH1 0x40 MLOAD PUSH4 0x9F73981 PUSH1 0xE1 SHL DUP2 MSTORE PUSH1 0x45 PUSH1 0x4 DUP3 ADD MSTORE PUSH1 0x24 DUP2 ADD DUP3 SWAP1 MSTORE PUSH1 0x60 SWAP1 PUSH20 0x0 SWAP1 PUSH4 0x13EE7302 SWAP1 PUSH1 0x44 ADD PUSH2 0x128D JUMP JUMPDEST PUSH1 0x0 DUP1 PUSH1 0x0 PUSH20 0x0 PUSH4 0x15922EFE PUSH1 0x45 DUP10 DUP10 DUP10 DUP10 PUSH1 0x40 MLOAD DUP7 PUSH4 0xFFFFFFFF AND PUSH1 0xE0 SHL DUP2 MSTORE PUSH1 0x4 ADD PUSH2 0x32E3 SWAP6 SWAP5 SWAP4 SWAP3 SWAP2 SWAP1 PUSH2 0x5351 JUMP JUMPDEST PUSH1 0x40 DUP1 MLOAD DUP1 DUP4 SUB DUP2 DUP7 GAS DELEGATECALL ISZERO DUP1 ISZERO PUSH2 0x32FF JUMPI RETURNDATASIZE PUSH1 0x0 DUP1 RETURNDATACOPY RETURNDATASIZE PUSH1 0x0 REVERT JUMPDEST POP POP POP POP PUSH1 0x40 MLOAD RETURNDATASIZE PUSH1 0x1F NOT PUSH1 0x1F DUP3 ADD AND DUP3 ADD DUP1 PUSH1 0x40 MSTORE POP DUP2 ADD SWAP1 PUSH2 0x3323 SWAP2 SWAP1 PUSH2 0x5415 JUMP JUMPDEST SWAP1 SWAP3 POP SWAP1 POP PUSH1 0x1 PUSH1 0x1 PUSH1 0xA0 SHL SUB DUP2 AND PUSH2 0x3342 PUSH1 0x80 DUP9 ADD PUSH1 0x60 DUP10 ADD PUSH2 0x466A JUMP JUMPDEST PUSH1 0x1 PUSH1 0x1 PUSH1 0xA0 SHL SUB AND DUP4 PUSH32 0x11CF8F3561FAE187C57DF59424ECF5D3F444E138924944C77DCB68144C635731 DUP10 PUSH1 0x40 ADD CALLDATALOAD PUSH1 0x40 MLOAD PUSH2 0x3381 SWAP2 DUP2 MSTORE PUSH1 0x20 ADD SWAP1 JUMP JUMPDEST PUSH1 0x40 MLOAD DUP1 SWAP2 SUB SWAP1 LOG4 POP SWAP6 SWAP5 POP POP POP POP POP JUMP JUMPDEST PUSH1 0x0 CALLER PUSH1 0x1 PUSH1 0x1 PUSH1 0xA0 SHL SUB AND DUP4 PUSH32 0x552CE1FC1BC82A48CDC0636FF7162480D868C590F2E57C63C30A944F3A82EC36 DUP5 PUSH1 0x40 MLOAD PUSH2 0x33D3 SWAP2 ISZERO ISZERO DUP2 MSTORE PUSH1 0x20 ADD SWAP1 JUMP JUMPDEST PUSH1 0x40 MLOAD DUP1 SWAP2 SUB SWAP1 LOG3 PUSH1 0x40 MLOAD PUSH4 0x15B18C75 PUSH1 0xE1 SHL DUP2 MSTORE PUSH1 0x45 PUSH1 0x4 DUP3 ADD MSTORE PUSH1 0x24 DUP2 ADD DUP5 SWAP1 MSTORE DUP3 ISZERO ISZERO PUSH1 0x44 DUP3 ADD MSTORE PUSH20 0x0 SWAP1 PUSH4 0x2B6318EA SWAP1 PUSH1 0x64 ADD PUSH2 0x10C7 JUMP JUMPDEST PUSH1 0x40 MLOAD PUSH4 0x4BA84563 PUSH1 0xE0 SHL DUP2 MSTORE PUSH1 0x45 PUSH1 0x4 DUP3 ADD MSTORE PUSH1 0x24 DUP2 ADD DUP4 SWAP1 MSTORE PUSH1 0x44 DUP2 ADD DUP3 SWAP1 MSTORE PUSH1 0x0 SWAP1 PUSH20 0x0 SWAP1 PUSH4 0x4BA84563 SWAP1 PUSH1 0x64 ADD PUSH2 0x10C7 JUMP JUMPDEST PUSH1 0x0 PUSH2 0x12E1 PUSH2 0x3C5C JUMP JUMPDEST PUSH1 0x40 MLOAD PUSH4 0x470E4565 PUSH1 0xE0 SHL DUP2 MSTORE PUSH1 0x45 PUSH1 0x4 DUP3 ADD MSTORE PUSH1 0x1 PUSH1 0x1 PUSH1 0xA0 SHL SUB DUP3 AND PUSH1 0x24 DUP3 ADD MSTORE PUSH1 0x0 SWAP1 PUSH20 0x0 SWAP1 PUSH4 0x470E4565 SWAP1 PUSH1 0x44 ADD PUSH2 0x1047 JUMP JUMPDEST PUSH1 0x40 MLOAD PUSH4 0xFBE97E19 PUSH1 0xE0 SHL DUP2 MSTORE PUSH1 0x45 PUSH1 0x4 DUP3 ADD MSTORE PUSH1 0x1 PUSH1 0x1 PUSH1 0xA0 SHL SUB DUP3 AND PUSH1 0x24 DUP3 ADD MSTORE PUSH1 0x0 SWAP1 PUSH20 0x0 SWAP1 PUSH4 0xFBE97E19 SWAP1 PUSH1 0x44 ADD PUSH2 0x1047 JUMP JUMPDEST PUSH1 0x0 PUSH2 0x12E1 PUSH2 0x3850 JUMP JUMPDEST PUSH1 0x40 MLOAD PUSH4 0xE8A0DF2D PUSH1 0xE0 SHL DUP2 MSTORE PUSH1 0x45 PUSH1 0x4 DUP3 ADD MSTORE PUSH1 0x1 PUSH1 0x1 PUSH1 0xA0 SHL SUB DUP3 AND PUSH1 0x24 DUP3 ADD MSTORE PUSH1 0x0 SWAP1 PUSH20 0x0 SWAP1 PUSH4 0xE8A0DF2D SWAP1 PUSH1 0x44 ADD PUSH2 0x1047 JUMP JUMPDEST SWAP1 JUMP JUMPDEST PUSH1 0x0 PUSH1 0x1 PUSH1 0x1 PUSH1 0xE0 SHL SUB NOT DUP3 AND PUSH4 0x748BE053 PUSH1 0xE0 SHL EQ DUP1 PUSH2 0x3591 JUMPI POP PUSH1 0x1 PUSH1 0x1 PUSH1 0xE0 SHL SUB NOT DUP3 AND PUSH4 0x52D1902D PUSH1 0xE0 SHL EQ JUMPDEST DUP1 PUSH2 0xEEE JUMPI POP PUSH4 0x1FFC9A7 PUSH1 0xE0 SHL PUSH1 0x1 PUSH1 0x1 PUSH1 0xE0 SHL SUB NOT DUP4 AND EQ PUSH2 0xEEE JUMP JUMPDEST PUSH1 0x0 PUSH1 0x0 DUP1 MLOAD PUSH1 0x20 PUSH2 0x54E0 DUP4 CODECOPY DUP2 MLOAD SWAP2 MSTORE JUMPDEST SLOAD PUSH1 0x1 PUSH1 0x1 PUSH1 0xA0 SHL SUB AND SWAP2 SWAP1 POP JUMP JUMPDEST PUSH1 0x0 DUP1 SLOAD PUSH1 0x1 PUSH1 0x1 PUSH1 0xA0 SHL SUB AND ADDRESS SUB PUSH2 0x36BD JUMPI PUSH1 0x0 PUSH4 0x63D59CF3 PUSH1 0xE1 SHL PUSH2 0x35F7 ADDRESS PUSH2 0x3BA6 JUMP JUMPDEST CALLER DUP6 PUSH1 0x40 MLOAD PUSH1 0x24 ADD PUSH2 0x360B SWAP4 SWAP3 SWAP2 SWAP1 PUSH2 0x543A JUMP JUMPDEST PUSH1 0x40 DUP1 MLOAD PUSH1 0x1F NOT DUP2 DUP5 SUB ADD DUP2 MSTORE SWAP2 SWAP1 MSTORE PUSH1 0x20 DUP2 ADD DUP1 MLOAD PUSH1 0x1 PUSH1 0x1 PUSH1 0xE0 SHL SUB AND PUSH1 0x1 PUSH1 0x1 PUSH1 0xE0 SHL SUB NOT SWAP1 SWAP4 AND SWAP3 SWAP1 SWAP3 OR SWAP1 SWAP2 MSTORE SWAP1 POP PUSH1 0x0 PUSH2 0x3688 PUSH2 0x364C PUSH2 0x35B0 JUMP JUMPDEST DUP4 PUSH1 0x40 MLOAD DUP1 PUSH1 0x40 ADD PUSH1 0x40 MSTORE DUP1 PUSH1 0x1D DUP2 MSTORE PUSH1 0x20 ADD PUSH32 0x44656C656761746563616C6C20686173416363657373204661696C6564000000 DUP2 MSTORE POP PUSH2 0x3CAF JUMP JUMPDEST SWAP1 POP DUP1 PUSH1 0x1 DUP3 MLOAD PUSH2 0x3699 SWAP2 SWAP1 PUSH2 0x5463 JUMP JUMPDEST DUP2 MLOAD DUP2 LT PUSH2 0x36A9 JUMPI PUSH2 0x36A9 PUSH2 0x5488 JUMP JUMPDEST PUSH1 0x20 SWAP2 ADD ADD MLOAD PUSH1 0xF8 SHR PUSH1 0x1 EQ SWAP5 SWAP4 POP POP POP POP JUMP JUMPDEST PUSH1 0x0 SLOAD PUSH1 0x1 PUSH1 0x1 PUSH1 0xA0 SHL SUB AND PUSH4 0xC7AB39E6 PUSH2 0x36D7 ADDRESS PUSH2 0x3BA6 JUMP JUMPDEST CALLER DUP6 PUSH1 0x40 MLOAD DUP5 PUSH4 0xFFFFFFFF AND PUSH1 0xE0 SHL DUP2 MSTORE PUSH1 0x4 ADD PUSH2 0x36F7 SWAP4 SWAP3 SWAP2 SWAP1 PUSH2 0x543A JUMP JUMPDEST PUSH1 0x20 PUSH1 0x40 MLOAD DUP1 DUP4 SUB DUP2 DUP7 GAS STATICCALL ISZERO DUP1 ISZERO PUSH2 0x1064 JUMPI RETURNDATASIZE PUSH1 0x0 DUP1 RETURNDATACOPY RETURNDATASIZE PUSH1 0x0 REVERT JUMPDEST PUSH1 0x0 DUP1 SLOAD PUSH1 0x1 PUSH1 0x1 PUSH1 0xA0 SHL SUB AND ADDRESS SUB PUSH2 0x37DA JUMPI PUSH1 0x0 PUSH4 0xE25D75F0 PUSH1 0xE0 SHL PUSH1 0x3 SLOAD PUSH1 0x40 MLOAD PUSH1 0x24 ADD PUSH2 0x3746 SWAP2 DUP2 MSTORE PUSH1 0x20 ADD SWAP1 JUMP JUMPDEST PUSH1 0x40 DUP1 MLOAD PUSH1 0x1F NOT DUP2 DUP5 SUB ADD DUP2 MSTORE SWAP2 SWAP1 MSTORE PUSH1 0x20 DUP2 ADD DUP1 MLOAD PUSH1 0x1 PUSH1 0x1 PUSH1 0xE0 SHL SUB AND PUSH1 0x1 PUSH1 0x1 PUSH1 0xE0 SHL SUB NOT SWAP1 SWAP4 AND SWAP3 SWAP1 SWAP3 OR SWAP1 SWAP2 MSTORE SWAP1 POP PUSH1 0x0 PUSH2 0x37A6 PUSH2 0x3787 PUSH2 0x35B0 JUMP JUMPDEST DUP4 PUSH1 0x40 MLOAD DUP1 PUSH1 0x60 ADD PUSH1 0x40 MSTORE DUP1 PUSH1 0x25 DUP2 MSTORE PUSH1 0x20 ADD PUSH2 0x54BB PUSH1 0x25 SWAP2 CODECOPY PUSH2 0x3CAF JUMP JUMPDEST SWAP1 POP DUP1 PUSH1 0x1 DUP3 MLOAD PUSH2 0x37B7 SWAP2 SWAP1 PUSH2 0x5463 JUMP JUMPDEST DUP2 MLOAD DUP2 LT PUSH2 0x37C7 JUMPI PUSH2 0x37C7 PUSH2 0x5488 JUMP JUMPDEST PUSH1 0x20 SWAP2 ADD ADD MLOAD PUSH1 0xF8 SHR PUSH1 0x1 EQ SWAP4 SWAP3 POP POP POP JUMP JUMPDEST PUSH1 0x0 SLOAD PUSH1 0x3 SLOAD PUSH1 0x40 MLOAD PUSH4 0xE25D75F PUSH1 0xE4 SHL DUP2 MSTORE PUSH1 0x1 PUSH1 0x1 PUSH1 0xA0 SHL SUB SWAP1 SWAP3 AND SWAP2 PUSH4 0xE25D75F0 SWAP2 PUSH2 0x380F SWAP2 PUSH1 0x4 ADD SWAP1 DUP2 MSTORE PUSH1 0x20 ADD SWAP1 JUMP JUMPDEST PUSH1 0x20 PUSH1 0x40 MLOAD DUP1 DUP4 SUB DUP2 DUP7 GAS STATICCALL ISZERO DUP1 ISZERO PUSH2 0x382C JUMPI RETURNDATASIZE PUSH1 0x0 DUP1 RETURNDATACOPY RETURNDATASIZE PUSH1 0x0 REVERT JUMPDEST POP POP POP POP PUSH1 0x40 MLOAD RETURNDATASIZE PUSH1 0x1F NOT PUSH1 0x1F DUP3 ADD AND DUP3 ADD DUP1 PUSH1 0x40 MSTORE POP DUP2 ADD SWAP1 PUSH2 0x12E1 SWAP2 SWAP1 PUSH2 0x4974 JUMP JUMPDEST PUSH1 0x0 PUSH32 0xB53127684A568B3173AE13B9F8A6016E243E63B6E8EE1178D6A717850B5D6103 PUSH2 0x35C2 JUMP JUMPDEST PUSH2 0x3886 DUP7 DUP7 DUP7 DUP7 DUP7 DUP7 PUSH2 0x3D78 JUMP JUMPDEST POP POP POP POP POP POP JUMP JUMPDEST PUSH2 0x3896 PUSH2 0x35B0 JUMP JUMPDEST PUSH1 0x1 PUSH1 0x1 PUSH1 0xA0 SHL SUB AND DUP2 PUSH1 0x1 PUSH1 0x1 PUSH1 0xA0 SHL SUB AND SUB PUSH2 0x38F6 JUMPI PUSH1 0x40 MLOAD PUSH3 0x461BCD PUSH1 0xE5 SHL DUP2 MSTORE PUSH1 0x20 PUSH1 0x4 DUP3 ADD MSTORE PUSH1 0x1A PUSH1 0x24 DUP3 ADD MSTORE PUSH32 0x496C6C6567616C204E657720496D706C656D656E746174696F6E000000000000 PUSH1 0x44 DUP3 ADD MSTORE PUSH1 0x64 ADD PUSH2 0x15E2 JUMP JUMPDEST PUSH2 0x3906 PUSH4 0x7147855D PUSH1 0xE0 SHL PUSH2 0x35D1 JUMP JUMPDEST PUSH2 0x3952 JUMPI PUSH1 0x40 MLOAD PUSH3 0x461BCD PUSH1 0xE5 SHL DUP2 MSTORE PUSH1 0x20 PUSH1 0x4 DUP3 ADD MSTORE PUSH1 0x19 PUSH1 0x24 DUP3 ADD MSTORE PUSH32 0x5570677261646520436F6E7465787420466F7262696464656E00000000000000 PUSH1 0x44 DUP3 ADD MSTORE PUSH1 0x64 ADD PUSH2 0x15E2 JUMP JUMPDEST POP JUMP JUMPDEST PUSH1 0x60 PUSH32 0x4910FDFA16FED3260ED0E7147F7CC6DA11A60208B5B9406D12A635614FFD9143 SLOAD PUSH1 0xFF AND ISZERO PUSH2 0x399F JUMPI PUSH2 0x398A DUP5 PUSH2 0x3F83 JUMP JUMPDEST POP PUSH1 0x40 DUP1 MLOAD PUSH1 0x0 DUP2 MSTORE PUSH1 0x20 DUP2 ADD SWAP1 SWAP2 MSTORE PUSH2 0xFC3 JUMP JUMPDEST DUP4 PUSH1 0x1 PUSH1 0x1 PUSH1 0xA0 SHL SUB AND PUSH4 0x52D1902D PUSH1 0x40 MLOAD DUP2 PUSH4 0xFFFFFFFF AND PUSH1 0xE0 SHL DUP2 MSTORE PUSH1 0x4 ADD PUSH1 0x20 PUSH1 0x40 MLOAD DUP1 DUP4 SUB DUP2 DUP7 GAS STATICCALL SWAP3 POP POP POP DUP1 ISZERO PUSH2 0x39F9 JUMPI POP PUSH1 0x40 DUP1 MLOAD PUSH1 0x1F RETURNDATASIZE SWAP1 DUP2 ADD PUSH1 0x1F NOT AND DUP3 ADD SWAP1 SWAP3 MSTORE PUSH2 0x39F6 SWAP2 DUP2 ADD SWAP1 PUSH2 0x4941 JUMP JUMPDEST PUSH1 0x1 JUMPDEST PUSH2 0x3A3D JUMPI PUSH1 0x40 MLOAD PUSH3 0x461BCD PUSH1 0xE5 SHL DUP2 MSTORE PUSH1 0x20 PUSH1 0x4 DUP3 ADD MSTORE PUSH1 0x15 PUSH1 0x24 DUP3 ADD MSTORE PUSH21 0x125B1B1959D85B0815555414C810DBDB9D1C9858DD PUSH1 0x5A SHL PUSH1 0x44 DUP3 ADD MSTORE PUSH1 0x64 ADD PUSH2 0x15E2 JUMP JUMPDEST PUSH1 0x0 DUP1 MLOAD PUSH1 0x20 PUSH2 0x54E0 DUP4 CODECOPY DUP2 MLOAD SWAP2 MSTORE DUP2 EQ PUSH2 0x3A92 JUMPI PUSH1 0x40 MLOAD PUSH3 0x461BCD PUSH1 0xE5 SHL DUP2 MSTORE PUSH1 0x20 PUSH1 0x4 DUP3 ADD MSTORE PUSH1 0x15 PUSH1 0x24 DUP3 ADD MSTORE PUSH21 0x125B9D985B1A590815555414C810DBDB9D1C9858DD PUSH1 0x5A SHL PUSH1 0x44 DUP3 ADD MSTORE PUSH1 0x64 ADD PUSH2 0x15E2 JUMP JUMPDEST POP PUSH1 0x40 MLOAD PUSH4 0x1FFC9A7 PUSH1 0xE0 SHL DUP2 MSTORE PUSH4 0x748BE053 PUSH1 0xE0 SHL PUSH1 0x4 DUP3 ADD MSTORE PUSH1 0x1 PUSH1 0x1 PUSH1 0xA0 SHL SUB DUP6 AND SWAP1 PUSH4 0x1FFC9A7 SWAP1 PUSH1 0x24 ADD PUSH1 0x20 PUSH1 0x40 MLOAD DUP1 DUP4 SUB DUP2 DUP7 GAS STATICCALL SWAP3 POP POP POP DUP1 ISZERO PUSH2 0x3AFA JUMPI POP PUSH1 0x40 DUP1 MLOAD PUSH1 0x1F RETURNDATASIZE SWAP1 DUP2 ADD PUSH1 0x1F NOT AND DUP3 ADD SWAP1 SWAP3 MSTORE PUSH2 0x3AF7 SWAP2 DUP2 ADD SWAP1 PUSH2 0x4974 JUMP JUMPDEST PUSH1 0x1 JUMPDEST PUSH2 0x3B46 JUMPI PUSH1 0x40 MLOAD PUSH3 0x461BCD PUSH1 0xE5 SHL DUP2 MSTORE PUSH1 0x20 PUSH1 0x4 DUP3 ADD MSTORE PUSH1 0x17 PUSH1 0x24 DUP3 ADD MSTORE PUSH32 0x496C6C6567616C204950726F787920436F6E7472616374000000000000000000 PUSH1 0x44 DUP3 ADD MSTORE PUSH1 0x64 ADD PUSH2 0x15E2 JUMP JUMPDEST DUP1 PUSH2 0x3B93 JUMPI PUSH1 0x40 MLOAD PUSH3 0x461BCD PUSH1 0xE5 SHL DUP2 MSTORE PUSH1 0x20 PUSH1 0x4 DUP3 ADD MSTORE PUSH1 0x17 PUSH1 0x24 DUP3 ADD MSTORE PUSH32 0x496E76616C6964204950726F787920436F6E7472616374000000000000000000 PUSH1 0x44 DUP3 ADD MSTORE PUSH1 0x64 ADD PUSH2 0x15E2 JUMP JUMPDEST POP PUSH2 0x3B9F DUP5 DUP5 DUP5 PUSH2 0x4004 JUMP JUMPDEST SWAP1 POP PUSH2 0xFC3 JUMP JUMPDEST PUSH1 0x40 MLOAD PUSH12 0xFFFFFFFFFFFFFFFFFFFFFFFF NOT PUSH1 0x60 DUP4 SWAP1 SHL AND PUSH1 0x20 DUP3 ADD MSTORE PUSH1 0x0 SWAP1 PUSH1 0x34 ADD PUSH1 0x40 MLOAD PUSH1 0x20 DUP2 DUP4 SUB SUB DUP2 MSTORE SWAP1 PUSH1 0x40 MSTORE DUP1 MLOAD SWAP1 PUSH1 0x20 ADD KECCAK256 SWAP1 POP SWAP2 SWAP1 POP JUMP JUMPDEST PUSH32 0xB53127684A568B3173AE13B9F8A6016E243E63B6E8EE1178D6A717850B5D6103 DUP1 SLOAD PUSH1 0x1 PUSH1 0x1 PUSH1 0xA0 SHL SUB DUP4 AND PUSH1 0x1 PUSH1 0x1 PUSH1 0xA0 SHL SUB NOT SWAP1 SWAP2 AND DUP2 OR SWAP1 SWAP2 SSTORE PUSH1 0x40 DUP1 MLOAD SWAP2 DUP3 MSTORE MLOAD ADDRESS SWAP2 CALLER SWAP2 PUSH32 0x54AB0D18DE7958786BA1AD85966D59BAA2B395455F0530DCDCFD732E6AF539E2 SWAP2 DUP2 SWAP1 SUB PUSH1 0x20 ADD SWAP1 LOG3 POP JUMP JUMPDEST PUSH1 0x1 SLOAD PUSH1 0x2 SLOAD PUSH1 0x40 DUP1 MLOAD PUSH32 0x8B73C3C69BB8FE3D512ECC4CF759CC79239F7B179B0FFACAA9A75D522B39400F PUSH1 0x20 DUP3 ADD MSTORE SWAP1 DUP2 ADD SWAP3 SWAP1 SWAP3 MSTORE PUSH1 0x60 DUP3 ADD MSTORE CHAINID PUSH1 0x80 DUP3 ADD MSTORE ADDRESS PUSH1 0xA0 DUP3 ADD MSTORE PUSH1 0x0 SWAP1 PUSH1 0xC0 ADD PUSH2 0xFEE JUMP JUMPDEST PUSH1 0x60 PUSH1 0x1 PUSH1 0x1 PUSH1 0xA0 SHL SUB DUP5 AND EXTCODESIZE PUSH2 0x3D03 JUMPI PUSH1 0x40 MLOAD PUSH3 0x461BCD PUSH1 0xE5 SHL DUP2 MSTORE PUSH1 0x20 PUSH1 0x4 DUP3 ADD MSTORE PUSH1 0x18 PUSH1 0x24 DUP3 ADD MSTORE PUSH24 0x496C6C6567616C20436F6E74726163742041646472657373 PUSH1 0x40 SHL PUSH1 0x44 DUP3 ADD MSTORE PUSH1 0x64 ADD PUSH2 0x15E2 JUMP JUMPDEST PUSH1 0x0 DUP1 DUP6 PUSH1 0x1 PUSH1 0x1 PUSH1 0xA0 SHL SUB AND DUP6 PUSH1 0x40 MLOAD PUSH2 0x3D1E SWAP2 SWAP1 PUSH2 0x549E JUMP JUMPDEST PUSH1 0x0 PUSH1 0x40 MLOAD DUP1 DUP4 SUB DUP2 DUP6 GAS DELEGATECALL SWAP2 POP POP RETURNDATASIZE DUP1 PUSH1 0x0 DUP2 EQ PUSH2 0x3D59 JUMPI PUSH1 0x40 MLOAD SWAP2 POP PUSH1 0x1F NOT PUSH1 0x3F RETURNDATASIZE ADD AND DUP3 ADD PUSH1 0x40 MSTORE RETURNDATASIZE DUP3 MSTORE RETURNDATASIZE PUSH1 0x0 PUSH1 0x20 DUP5 ADD RETURNDATACOPY PUSH2 0x3D5E JUMP JUMPDEST PUSH1 0x60 SWAP2 POP JUMPDEST POP SWAP2 POP SWAP2 POP PUSH2 0x3D6E DUP3 DUP3 DUP7 PUSH2 0x406E JUMP JUMPDEST SWAP7 SWAP6 POP POP POP POP POP POP JUMP JUMPDEST PUSH1 0x4A SLOAD PUSH3 0x10000 SWAP1 DIV PUSH1 0xFF AND PUSH2 0x3DD0 JUMPI PUSH1 0x40 MLOAD PUSH3 0x461BCD PUSH1 0xE5 SHL DUP2 MSTORE PUSH1 0x20 PUSH1 0x4 DUP3 ADD MSTORE PUSH1 0x19 PUSH1 0x24 DUP3 ADD MSTORE PUSH32 0x436F6E7472616374204E6F7420496E697469616C697A696E6700000000000000 PUSH1 0x44 DUP3 ADD MSTORE PUSH1 0x64 ADD PUSH2 0x15E2 JUMP JUMPDEST DUP6 DUP6 PUSH1 0x40 MLOAD PUSH1 0x20 ADD PUSH2 0x3DE3 SWAP3 SWAP2 SWAP1 PUSH2 0x4D14 JUMP JUMPDEST PUSH1 0x40 DUP1 MLOAD PUSH1 0x1F NOT DUP2 DUP5 SUB ADD DUP2 MSTORE SWAP1 DUP3 SWAP1 MSTORE DUP1 MLOAD PUSH1 0x20 SWAP2 DUP3 ADD KECCAK256 PUSH1 0x1 SSTORE PUSH2 0x3E0D SWAP2 DUP7 SWAP2 DUP7 SWAP2 ADD PUSH2 0x4D14 JUMP JUMPDEST PUSH1 0x40 DUP1 MLOAD PUSH1 0x1F NOT DUP2 DUP5 SUB ADD DUP2 MSTORE SWAP2 SWAP1 MSTORE DUP1 MLOAD PUSH1 0x20 SWAP1 SWAP2 ADD KECCAK256 PUSH1 0x2 SSTORE PUSH1 0x3 DUP3 SWAP1 SSTORE PUSH1 0x1 PUSH1 0x1 PUSH1 0xA0 SHL SUB DUP2 AND PUSH2 0x3E52 JUMPI PUSH1 0x0 DUP1 SLOAD PUSH1 0x1 PUSH1 0x1 PUSH1 0xA0 SHL SUB NOT AND ADDRESS OR SWAP1 SSTORE PUSH2 0x3F6F JUMP JUMPDEST PUSH1 0x40 MLOAD PUSH4 0x1FFC9A7 PUSH1 0xE0 SHL DUP2 MSTORE PUSH4 0x1FE701D PUSH1 0xE2 SHL PUSH1 0x4 DUP3 ADD MSTORE PUSH1 0x1 PUSH1 0x1 PUSH1 0xA0 SHL SUB DUP3 AND SWAP1 PUSH4 0x1FFC9A7 SWAP1 PUSH1 0x24 ADD PUSH1 0x20 PUSH1 0x40 MLOAD DUP1 DUP4 SUB DUP2 DUP7 GAS STATICCALL SWAP3 POP POP POP DUP1 ISZERO PUSH2 0x3EB9 JUMPI POP PUSH1 0x40 DUP1 MLOAD PUSH1 0x1F RETURNDATASIZE SWAP1 DUP2 ADD PUSH1 0x1F NOT AND DUP3 ADD SWAP1 SWAP3 MSTORE PUSH2 0x3EB6 SWAP2 DUP2 ADD SWAP1 PUSH2 0x4974 JUMP JUMPDEST PUSH1 0x1 JUMPDEST PUSH2 0x3F05 JUMPI PUSH1 0x40 MLOAD PUSH3 0x461BCD PUSH1 0xE5 SHL DUP2 MSTORE PUSH1 0x20 PUSH1 0x4 DUP3 ADD MSTORE PUSH1 0x1C PUSH1 0x24 DUP3 ADD MSTORE PUSH32 0x496C6C6567616C20416363657373436F6E74726F6C4D616E6167657200000000 PUSH1 0x44 DUP3 ADD MSTORE PUSH1 0x64 ADD PUSH2 0x15E2 JUMP JUMPDEST DUP1 PUSH2 0x3F52 JUMPI PUSH1 0x40 MLOAD PUSH3 0x461BCD PUSH1 0xE5 SHL DUP2 MSTORE PUSH1 0x20 PUSH1 0x4 DUP3 ADD MSTORE PUSH1 0x1C PUSH1 0x24 DUP3 ADD MSTORE PUSH32 0x496E76616C696420416363657373436F6E74726F6C4D616E6167657200000000 PUSH1 0x44 DUP3 ADD MSTORE PUSH1 0x64 ADD PUSH2 0x15E2 JUMP JUMPDEST POP PUSH1 0x0 DUP1 SLOAD PUSH1 0x1 PUSH1 0x1 PUSH1 0xA0 SHL SUB NOT AND PUSH1 0x1 PUSH1 0x1 PUSH1 0xA0 SHL SUB DUP4 AND OR SWAP1 SSTORE JUMPDEST PUSH1 0x4 DUP1 SLOAD PUSH2 0xFFFF NOT AND SWAP1 SSTORE PUSH2 0x3886 CALLER PUSH2 0x3BE5 JUMP JUMPDEST PUSH1 0x1 PUSH1 0x1 PUSH1 0xA0 SHL SUB DUP2 AND EXTCODESIZE PUSH2 0x3FD5 JUMPI PUSH1 0x40 MLOAD PUSH3 0x461BCD PUSH1 0xE5 SHL DUP2 MSTORE PUSH1 0x20 PUSH1 0x4 DUP3 ADD MSTORE PUSH1 0x18 PUSH1 0x24 DUP3 ADD MSTORE PUSH24 0x496C6C6567616C20436F6E74726163742041646472657373 PUSH1 0x40 SHL PUSH1 0x44 DUP3 ADD MSTORE PUSH1 0x64 ADD PUSH2 0x15E2 JUMP JUMPDEST PUSH1 0x0 DUP1 MLOAD PUSH1 0x20 PUSH2 0x54E0 DUP4 CODECOPY DUP2 MLOAD SWAP2 MSTORE DUP1 SLOAD PUSH1 0x1 PUSH1 0x1 PUSH1 0xA0 SHL SUB NOT AND PUSH1 0x1 PUSH1 0x1 PUSH1 0xA0 SHL SUB SWAP3 SWAP1 SWAP3 AND SWAP2 SWAP1 SWAP2 OR SWAP1 SSTORE JUMP JUMPDEST PUSH1 0x60 PUSH2 0x400F DUP5 PUSH2 0x40A7 JUMP JUMPDEST PUSH1 0x0 DUP4 MLOAD GT DUP1 PUSH2 0x401C JUMPI POP DUP2 JUMPDEST ISZERO PUSH2 0x4057 JUMPI PUSH2 0x3B9F DUP5 DUP5 PUSH1 0x40 MLOAD DUP1 PUSH1 0x40 ADD PUSH1 0x40 MSTORE DUP1 PUSH1 0x13 DUP2 MSTORE PUSH1 0x20 ADD PUSH19 0x11195B1959D85D1958D85B1B0811985A5B1959 PUSH1 0x6A SHL DUP2 MSTORE POP PUSH2 0x3CAF JUMP JUMPDEST POP POP PUSH1 0x40 DUP1 MLOAD PUSH1 0x0 DUP2 MSTORE PUSH1 0x20 DUP2 ADD SWAP1 SWAP2 MSTORE SWAP3 SWAP2 POP POP JUMP JUMPDEST PUSH1 0x60 DUP4 ISZERO PUSH2 0x407D JUMPI POP DUP2 PUSH2 0xFC3 JUMP JUMPDEST DUP3 MLOAD ISZERO PUSH2 0x408D JUMPI DUP3 MLOAD DUP1 DUP5 PUSH1 0x20 ADD REVERT JUMPDEST DUP2 PUSH1 0x40 MLOAD PUSH3 0x461BCD PUSH1 0xE5 SHL DUP2 MSTORE PUSH1 0x4 ADD PUSH2 0x15E2 SWAP2 SWAP1 PUSH2 0x4657 JUMP JUMPDEST PUSH2 0x40B0 DUP2 PUSH2 0x3F83 JUMP JUMPDEST PUSH1 0x40 MLOAD PUSH1 0x1 PUSH1 0x1 PUSH1 0xA0 SHL SUB DUP3 AND SWAP1 ADDRESS SWAP1 CALLER SWAP1 PUSH32 0x354BD4B6EB65D64E6C79C53FA4F983A5E6BEC4824CE4627C71BE0B2722F4917E SWAP1 PUSH1 0x0 SWAP1 LOG4 POP JUMP JUMPDEST PUSH1 0x1 PUSH1 0x1 PUSH1 0xE0 SHL SUB NOT DUP2 AND DUP2 EQ PUSH2 0x3952 JUMPI PUSH1 0x0 DUP1 REVERT JUMPDEST PUSH1 0x0 PUSH1 0x20 DUP3 DUP5 SUB SLT ISZERO PUSH2 0x4113 JUMPI PUSH1 0x0 DUP1 REVERT JUMPDEST DUP2 CALLDATALOAD PUSH2 0xFC3 DUP2 PUSH2 0x40EB JUMP JUMPDEST PUSH1 0x0 DUP1 PUSH1 0x0 PUSH1 0x60 DUP5 DUP7 SUB SLT ISZERO PUSH2 0x4133 JUMPI PUSH1 0x0 DUP1 REVERT JUMPDEST DUP4 CALLDATALOAD SWAP3 POP PUSH1 0x20 DUP5 ADD CALLDATALOAD PUSH2 0x4145 DUP2 PUSH2 0x40EB JUMP JUMPDEST SWAP3 SWAP6 SWAP3 SWAP5 POP POP POP PUSH1 0x40 SWAP2 SWAP1 SWAP2 ADD CALLDATALOAD SWAP1 JUMP JUMPDEST PUSH1 0x0 PUSH1 0x20 DUP3 DUP5 SUB SLT ISZERO PUSH2 0x4168 JUMPI PUSH1 0x0 DUP1 REVERT JUMPDEST POP CALLDATALOAD SWAP2 SWAP1 POP JUMP JUMPDEST PUSH1 0x0 DUP1 PUSH1 0x40 DUP4 DUP6 SUB SLT ISZERO PUSH2 0x4182 JUMPI PUSH1 0x0 DUP1 REVERT JUMPDEST DUP3 CALLDATALOAD SWAP2 POP PUSH1 0x20 DUP4 ADD CALLDATALOAD PUSH2 0x4194 DUP2 PUSH2 0x40EB JUMP JUMPDEST DUP1 SWAP2 POP POP SWAP3 POP SWAP3 SWAP1 POP JUMP JUMPDEST PUSH1 0x20 DUP1 DUP3 MSTORE DUP3 MLOAD DUP3 DUP3 ADD DUP2 SWAP1 MSTORE PUSH1 0x0 SWAP2 SWAP1 DUP5 DUP3 ADD SWAP1 PUSH1 0x40 DUP6 ADD SWAP1 DUP5 JUMPDEST DUP2 DUP2 LT ISZERO PUSH2 0x41E1 JUMPI DUP4 MLOAD PUSH1 0x1 PUSH1 0x1 PUSH1 0xE0 SHL SUB NOT AND DUP4 MSTORE SWAP3 DUP5 ADD SWAP3 SWAP2 DUP5 ADD SWAP2 PUSH1 0x1 ADD PUSH2 0x41BB JUMP JUMPDEST POP SWAP1 SWAP7 SWAP6 POP POP POP POP POP POP JUMP JUMPDEST PUSH1 0x20 DUP1 DUP3 MSTORE DUP3 MLOAD DUP3 DUP3 ADD DUP2 SWAP1 MSTORE PUSH1 0x0 SWAP2 SWAP1 DUP5 DUP3 ADD SWAP1 PUSH1 0x40 DUP6 ADD SWAP1 DUP5 JUMPDEST DUP2 DUP2 LT ISZERO PUSH2 0x41E1 JUMPI DUP4 MLOAD DUP4 MSTORE SWAP3 DUP5 ADD SWAP3 SWAP2 DUP5 ADD SWAP2 PUSH1 0x1 ADD PUSH2 0x4209 JUMP JUMPDEST PUSH1 0x0 JUMPDEST DUP4 DUP2 LT ISZERO PUSH2 0x4240 JUMPI DUP2 DUP2 ADD MLOAD DUP4 DUP3 ADD MSTORE PUSH1 0x20 ADD PUSH2 0x4228 JUMP JUMPDEST DUP4 DUP2 GT ISZERO PUSH2 0x424F JUMPI PUSH1 0x0 DUP5 DUP5 ADD MSTORE JUMPDEST POP POP POP POP JUMP JUMPDEST PUSH1 0x0 DUP2 MLOAD DUP1 DUP5 MSTORE PUSH2 0x426D DUP2 PUSH1 0x20 DUP7 ADD PUSH1 0x20 DUP7 ADD PUSH2 0x4225 JUMP JUMPDEST PUSH1 0x1F ADD PUSH1 0x1F NOT AND SWAP3 SWAP1 SWAP3 ADD PUSH1 0x20 ADD SWAP3 SWAP2 POP POP JUMP JUMPDEST PUSH1 0x60 DUP2 MSTORE PUSH1 0x0 PUSH2 0x4294 PUSH1 0x60 DUP4 ADD DUP7 PUSH2 0x4255 JUMP JUMPDEST SWAP4 ISZERO ISZERO PUSH1 0x20 DUP4 ADD MSTORE POP SWAP1 ISZERO ISZERO PUSH1 0x40 SWAP1 SWAP2 ADD MSTORE SWAP2 SWAP1 POP JUMP JUMPDEST PUSH1 0x0 DUP1 DUP4 PUSH1 0x1F DUP5 ADD SLT PUSH2 0x42BD JUMPI PUSH1 0x0 DUP1 REVERT JUMPDEST POP DUP2 CALLDATALOAD PUSH1 0x1 PUSH1 0x1 PUSH1 0x40 SHL SUB DUP2 GT ISZERO PUSH2 0x42D4 JUMPI PUSH1 0x0 DUP1 REVERT JUMPDEST PUSH1 0x20 DUP4 ADD SWAP2 POP DUP4 PUSH1 0x20 DUP3 DUP6 ADD ADD GT ISZERO PUSH2 0x42EC JUMPI PUSH1 0x0 DUP1 REVERT JUMPDEST SWAP3 POP SWAP3 SWAP1 POP JUMP JUMPDEST DUP1 ISZERO ISZERO DUP2 EQ PUSH2 0x3952 JUMPI PUSH1 0x0 DUP1 REVERT JUMPDEST PUSH1 0x0 DUP1 PUSH1 0x0 PUSH1 0x40 DUP5 DUP7 SUB SLT ISZERO PUSH2 0x4316 JUMPI PUSH1 0x0 DUP1 REVERT JUMPDEST DUP4 CALLDATALOAD PUSH1 0x1 PUSH1 0x1 PUSH1 0x40 SHL SUB DUP2 GT ISZERO PUSH2 0x432C JUMPI PUSH1 0x0 DUP1 REVERT JUMPDEST PUSH2 0x4338 DUP7 DUP3 DUP8 ADD PUSH2 0x42AB JUMP JUMPDEST SWAP1 SWAP5 POP SWAP3 POP POP PUSH1 0x20 DUP5 ADD CALLDATALOAD PUSH2 0x434C DUP2 PUSH2 0x42F3 JUMP JUMPDEST DUP1 SWAP2 POP POP SWAP3 POP SWAP3 POP SWAP3 JUMP JUMPDEST PUSH1 0x0 PUSH1 0x20 DUP3 DUP5 SUB SLT ISZERO PUSH2 0x4369 JUMPI PUSH1 0x0 DUP1 REVERT JUMPDEST DUP2 CALLDATALOAD PUSH2 0xFC3 DUP2 PUSH2 0x42F3 JUMP JUMPDEST PUSH1 0x0 DUP1 PUSH1 0x0 DUP1 PUSH1 0x60 DUP6 DUP8 SUB SLT ISZERO PUSH2 0x438A JUMPI PUSH1 0x0 DUP1 REVERT JUMPDEST DUP5 CALLDATALOAD PUSH1 0x1 PUSH1 0x1 PUSH1 0x40 SHL SUB DUP2 GT ISZERO PUSH2 0x43A0 JUMPI PUSH1 0x0 DUP1 REVERT JUMPDEST PUSH2 0x43AC DUP8 DUP3 DUP9 ADD PUSH2 0x42AB JUMP JUMPDEST SWAP1 SWAP6 POP SWAP4 POP POP PUSH1 0x20 DUP6 ADD CALLDATALOAD PUSH2 0x43C0 DUP2 PUSH2 0x42F3 JUMP JUMPDEST SWAP2 POP PUSH1 0x40 DUP6 ADD CALLDATALOAD PUSH2 0x43D0 DUP2 PUSH2 0x42F3 JUMP JUMPDEST SWAP4 SWAP7 SWAP3 SWAP6 POP SWAP1 SWAP4 POP POP JUMP JUMPDEST PUSH1 0x1 PUSH1 0x1 PUSH1 0xA0 SHL SUB DUP2 AND DUP2 EQ PUSH2 0x3952 JUMPI PUSH1 0x0 DUP1 REVERT JUMPDEST PUSH1 0x0 DUP1 PUSH1 0x0 DUP1 PUSH1 0x0 DUP1 PUSH1 0x0 PUSH1 0x80 DUP9 DUP11 SUB SLT ISZERO PUSH2 0x440B JUMPI PUSH1 0x0 DUP1 REVERT JUMPDEST DUP8 CALLDATALOAD PUSH1 0x1 PUSH1 0x1 PUSH1 0x40 SHL SUB DUP1 DUP3 GT ISZERO PUSH2 0x4422 JUMPI PUSH1 0x0 DUP1 REVERT JUMPDEST PUSH2 0x442E DUP12 DUP4 DUP13 ADD PUSH2 0x42AB JUMP JUMPDEST SWAP1 SWAP10 POP SWAP8 POP PUSH1 0x20 DUP11 ADD CALLDATALOAD SWAP2 POP DUP1 DUP3 GT ISZERO PUSH2 0x4447 JUMPI PUSH1 0x0 DUP1 REVERT JUMPDEST PUSH2 0x4453 DUP12 DUP4 DUP13 ADD PUSH2 0x42AB JUMP JUMPDEST SWAP1 SWAP8 POP SWAP6 POP PUSH1 0x40 DUP11 ADD CALLDATALOAD SWAP2 POP DUP1 DUP3 GT ISZERO PUSH2 0x446C JUMPI PUSH1 0x0 DUP1 REVERT JUMPDEST POP PUSH2 0x4479 DUP11 DUP3 DUP12 ADD PUSH2 0x42AB JUMP JUMPDEST SWAP1 SWAP5 POP SWAP3 POP POP PUSH1 0x60 DUP9 ADD CALLDATALOAD PUSH2 0x448D DUP2 PUSH2 0x43DB JUMP JUMPDEST DUP1 SWAP2 POP POP SWAP3 SWAP6 SWAP9 SWAP2 SWAP5 SWAP8 POP SWAP3 SWAP6 POP JUMP JUMPDEST PUSH1 0x40 DUP2 MSTORE PUSH1 0x0 PUSH2 0x44B0 PUSH1 0x40 DUP4 ADD DUP6 PUSH2 0x4255 JUMP JUMPDEST SWAP1 POP DUP3 ISZERO ISZERO PUSH1 0x20 DUP4 ADD MSTORE SWAP4 SWAP3 POP POP POP JUMP JUMPDEST PUSH1 0x0 DUP1 PUSH1 0x0 PUSH1 0x60 DUP5 DUP7 SUB SLT ISZERO PUSH2 0x44D6 JUMPI PUSH1 0x0 DUP1 REVERT JUMPDEST DUP4 CALLDATALOAD SWAP3 POP PUSH1 0x20 DUP5 ADD CALLDATALOAD SWAP2 POP PUSH1 0x40 DUP5 ADD CALLDATALOAD PUSH2 0x434C DUP2 PUSH2 0x40EB JUMP JUMPDEST PUSH1 0x0 DUP1 PUSH1 0x40 DUP4 DUP6 SUB SLT ISZERO PUSH2 0x4502 JUMPI PUSH1 0x0 DUP1 REVERT JUMPDEST DUP3 CALLDATALOAD SWAP2 POP PUSH1 0x20 DUP4 ADD CALLDATALOAD PUSH2 0x4194 DUP2 PUSH2 0x42F3 JUMP JUMPDEST PUSH4 0x4E487B71 PUSH1 0xE0 SHL PUSH1 0x0 MSTORE PUSH1 0x41 PUSH1 0x4 MSTORE PUSH1 0x24 PUSH1 0x0 REVERT JUMPDEST PUSH1 0x40 MLOAD PUSH1 0x60 DUP2 ADD PUSH1 0x1 PUSH1 0x1 PUSH1 0x40 SHL SUB DUP2 GT DUP3 DUP3 LT OR ISZERO PUSH2 0x454C JUMPI PUSH2 0x454C PUSH2 0x4514 JUMP JUMPDEST PUSH1 0x40 MSTORE SWAP1 JUMP JUMPDEST PUSH1 0x40 MLOAD PUSH1 0x1F DUP3 ADD PUSH1 0x1F NOT AND DUP2 ADD PUSH1 0x1 PUSH1 0x1 PUSH1 0x40 SHL SUB DUP2 GT DUP3 DUP3 LT OR ISZERO PUSH2 0x457A JUMPI PUSH2 0x457A PUSH2 0x4514 JUMP JUMPDEST PUSH1 0x40 MSTORE SWAP2 SWAP1 POP JUMP JUMPDEST PUSH1 0x0 PUSH1 0x1 PUSH1 0x1 PUSH1 0x40 SHL SUB DUP3 GT ISZERO PUSH2 0x459B JUMPI PUSH2 0x459B PUSH2 0x4514 JUMP JUMPDEST POP PUSH1 0x1F ADD PUSH1 0x1F NOT AND PUSH1 0x20 ADD SWAP1 JUMP JUMPDEST PUSH1 0x0 DUP3 PUSH1 0x1F DUP4 ADD SLT PUSH2 0x45BA JUMPI PUSH1 0x0 DUP1 REVERT JUMPDEST DUP2 CALLDATALOAD PUSH2 0x45CD PUSH2 0x45C8 DUP3 PUSH2 0x4582 JUMP JUMPDEST PUSH2 0x4552 JUMP JUMPDEST DUP2 DUP2 MSTORE DUP5 PUSH1 0x20 DUP4 DUP7 ADD ADD GT ISZERO PUSH2 0x45E2 JUMPI PUSH1 0x0 DUP1 REVERT JUMPDEST DUP2 PUSH1 0x20 DUP6 ADD PUSH1 0x20 DUP4 ADD CALLDATACOPY PUSH1 0x0 SWAP2 DUP2 ADD PUSH1 0x20 ADD SWAP2 SWAP1 SWAP2 MSTORE SWAP4 SWAP3 POP POP POP JUMP JUMPDEST PUSH1 0x0 DUP1 PUSH1 0x0 PUSH1 0x60 DUP5 DUP7 SUB SLT ISZERO PUSH2 0x4614 JUMPI PUSH1 0x0 DUP1 REVERT JUMPDEST DUP4 CALLDATALOAD PUSH2 0x461F DUP2 PUSH2 0x43DB JUMP JUMPDEST SWAP3 POP PUSH1 0x20 DUP5 ADD CALLDATALOAD PUSH1 0x1 PUSH1 0x1 PUSH1 0x40 SHL SUB DUP2 GT ISZERO PUSH2 0x463A JUMPI PUSH1 0x0 DUP1 REVERT JUMPDEST PUSH2 0x4646 DUP7 DUP3 DUP8 ADD PUSH2 0x45A9 JUMP JUMPDEST SWAP3 POP POP PUSH1 0x40 DUP5 ADD CALLDATALOAD PUSH2 0x434C DUP2 PUSH2 0x42F3 JUMP JUMPDEST PUSH1 0x20 DUP2 MSTORE PUSH1 0x0 PUSH2 0xFC3 PUSH1 0x20 DUP4 ADD DUP5 PUSH2 0x4255 JUMP JUMPDEST PUSH1 0x0 PUSH1 0x20 DUP3 DUP5 SUB SLT ISZERO PUSH2 0x467C JUMPI PUSH1 0x0 DUP1 REVERT JUMPDEST DUP2 CALLDATALOAD PUSH2 0xFC3 DUP2 PUSH2 0x43DB JUMP JUMPDEST PUSH1 0x0 DUP1 PUSH1 0x40 DUP4 DUP6 SUB SLT ISZERO PUSH2 0x469A JUMPI PUSH1 0x0 DUP1 REVERT JUMPDEST DUP3 CALLDATALOAD SWAP2 POP PUSH1 0x20 DUP4 ADD CALLDATALOAD PUSH2 0x4194 DUP2 PUSH2 0x43DB JUMP JUMPDEST PUSH1 0x0 DUP1 PUSH1 0x0 DUP1 PUSH1 0x60 DUP6 DUP8 SUB SLT ISZERO PUSH2 0x46C2 JUMPI PUSH1 0x0 DUP1 REVERT JUMPDEST DUP5 CALLDATALOAD PUSH1 0x1 PUSH1 0x1 PUSH1 0x40 SHL SUB DUP2 GT ISZERO PUSH2 0x46D8 JUMPI PUSH1 0x0 DUP1 REVERT JUMPDEST PUSH2 0x46E4 DUP8 DUP3 DUP9 ADD PUSH2 0x42AB JUMP JUMPDEST SWAP1 SWAP6 POP SWAP4 POP POP PUSH1 0x20 DUP6 ADD CALLDATALOAD SWAP2 POP PUSH1 0x40 DUP6 ADD CALLDATALOAD PUSH2 0x43D0 DUP2 PUSH2 0x42F3 JUMP JUMPDEST PUSH1 0x60 DUP2 MSTORE PUSH1 0x0 PUSH2 0x4712 PUSH1 0x60 DUP4 ADD DUP7 PUSH2 0x4255 JUMP JUMPDEST PUSH1 0x20 DUP4 ADD SWAP5 SWAP1 SWAP5 MSTORE POP SWAP1 ISZERO ISZERO PUSH1 0x40 SWAP1 SWAP2 ADD MSTORE SWAP2 SWAP1 POP JUMP JUMPDEST PUSH1 0x0 DUP1 PUSH1 0x0 PUSH1 0x60 DUP5 DUP7 SUB SLT ISZERO PUSH2 0x473E JUMPI PUSH1 0x0 DUP1 REVERT JUMPDEST DUP4 CALLDATALOAD SWAP3 POP PUSH1 0x20 DUP5 ADD CALLDATALOAD PUSH2 0x4750 DUP2 PUSH2 0x43DB JUMP JUMPDEST SWAP2 POP PUSH1 0x40 DUP5 ADD CALLDATALOAD PUSH2 0x434C DUP2 PUSH2 0x40EB JUMP JUMPDEST PUSH1 0x0 DUP1 PUSH1 0x40 DUP4 DUP6 SUB SLT ISZERO PUSH2 0x4773 JUMPI PUSH1 0x0 DUP1 REVERT JUMPDEST POP POP DUP1 CALLDATALOAD SWAP3 PUSH1 0x20 SWAP1 SWAP2 ADD CALLDATALOAD SWAP2 POP JUMP JUMPDEST PUSH1 0x20 DUP1 DUP3 MSTORE DUP3 MLOAD DUP3 DUP3 ADD DUP2 SWAP1 MSTORE PUSH1 0x0 SWAP2 SWAP1 DUP5 DUP3 ADD SWAP1 PUSH1 0x40 DUP6 ADD SWAP1 DUP5 JUMPDEST DUP2 DUP2 LT ISZERO PUSH2 0x41E1 JUMPI DUP4 MLOAD PUSH1 0x1 PUSH1 0x1 PUSH1 0xA0 SHL SUB AND DUP4 MSTORE SWAP3 DUP5 ADD SWAP3 SWAP2 DUP5 ADD SWAP2 PUSH1 0x1 ADD PUSH2 0x479E JUMP JUMPDEST PUSH1 0x0 PUSH1 0xA0 DUP3 DUP5 SUB SLT ISZERO PUSH2 0x47D5 JUMPI PUSH1 0x0 DUP1 REVERT JUMPDEST POP SWAP2 SWAP1 POP JUMP JUMPDEST PUSH1 0x0 DUP1 DUP4 PUSH1 0x1F DUP5 ADD SLT PUSH2 0x47ED JUMPI PUSH1 0x0 DUP1 REVERT JUMPDEST POP DUP2 CALLDATALOAD PUSH1 0x1 PUSH1 0x1 PUSH1 0x40 SHL SUB DUP2 GT ISZERO PUSH2 0x4804 JUMPI PUSH1 0x0 DUP1 REVERT JUMPDEST PUSH1 0x20 DUP4 ADD SWAP2 POP DUP4 PUSH1 0x20 DUP3 PUSH1 0x5 SHL DUP6 ADD ADD GT ISZERO PUSH2 0x42EC JUMPI PUSH1 0x0 DUP1 REVERT JUMPDEST PUSH1 0x0 DUP1 PUSH1 0x0 DUP1 PUSH1 0x0 PUSH2 0x100 DUP7 DUP9 SUB SLT ISZERO PUSH2 0x4838 JUMPI PUSH1 0x0 DUP1 REVERT JUMPDEST DUP6 CALLDATALOAD SWAP5 POP PUSH1 0x20 DUP7 ADD CALLDATALOAD PUSH1 0x1 PUSH1 0x1 PUSH1 0x40 SHL SUB DUP1 DUP3 GT ISZERO PUSH2 0x4856 JUMPI PUSH1 0x0 DUP1 REVERT JUMPDEST PUSH2 0x4862 DUP10 DUP4 DUP11 ADD PUSH2 0x45A9 JUMP JUMPDEST SWAP6 POP PUSH2 0x4871 DUP10 PUSH1 0x40 DUP11 ADD PUSH2 0x47C3 JUMP JUMPDEST SWAP5 POP PUSH1 0xE0 DUP9 ADD CALLDATALOAD SWAP2 POP DUP1 DUP3 GT ISZERO PUSH2 0x4887 JUMPI PUSH1 0x0 DUP1 REVERT JUMPDEST POP PUSH2 0x4894 DUP9 DUP3 DUP10 ADD PUSH2 0x47DB JUMP JUMPDEST SWAP7 SWAP10 SWAP6 SWAP9 POP SWAP4 SWAP7 POP SWAP3 SWAP5 SWAP4 SWAP3 POP POP POP JUMP JUMPDEST PUSH1 0x0 DUP1 PUSH1 0x0 DUP1 PUSH1 0xE0 DUP6 DUP8 SUB SLT ISZERO PUSH2 0x48BB JUMPI PUSH1 0x0 DUP1 REVERT JUMPDEST DUP5 CALLDATALOAD PUSH1 0x1 PUSH1 0x1 PUSH1 0x40 SHL SUB DUP1 DUP3 GT ISZERO PUSH2 0x48D2 JUMPI PUSH1 0x0 DUP1 REVERT JUMPDEST PUSH2 0x48DE DUP9 DUP4 DUP10 ADD PUSH2 0x45A9 JUMP JUMPDEST SWAP6 POP PUSH2 0x48ED DUP9 PUSH1 0x20 DUP10 ADD PUSH2 0x47C3 JUMP JUMPDEST SWAP5 POP PUSH1 0xC0 DUP8 ADD CALLDATALOAD SWAP2 POP DUP1 DUP3 GT ISZERO PUSH2 0x4903 JUMPI PUSH1 0x0 DUP1 REVERT JUMPDEST POP PUSH2 0x4910 DUP8 DUP3 DUP9 ADD PUSH2 0x47DB JUMP JUMPDEST SWAP6 SWAP9 SWAP5 SWAP8 POP SWAP6 POP POP POP POP JUMP JUMPDEST SWAP4 DUP5 MSTORE PUSH1 0x20 DUP5 ADD SWAP3 SWAP1 SWAP3 MSTORE PUSH1 0x1 PUSH1 0x1 PUSH1 0xE0 SHL SUB NOT AND PUSH1 0x40 DUP4 ADD MSTORE PUSH1 0x60 DUP3 ADD MSTORE PUSH1 0x80 ADD SWAP1 JUMP JUMPDEST PUSH1 0x0 PUSH1 0x20 DUP3 DUP5 SUB SLT ISZERO PUSH2 0x4953 JUMPI PUSH1 0x0 DUP1 REVERT JUMPDEST POP MLOAD SWAP2 SWAP1 POP JUMP JUMPDEST PUSH1 0x1 PUSH1 0x1 PUSH1 0xE0 SHL SUB NOT SWAP3 SWAP1 SWAP3 AND DUP3 MSTORE PUSH1 0x20 DUP3 ADD MSTORE PUSH1 0x40 ADD SWAP1 JUMP JUMPDEST PUSH1 0x0 PUSH1 0x20 DUP3 DUP5 SUB SLT ISZERO PUSH2 0x4986 JUMPI PUSH1 0x0 DUP1 REVERT JUMPDEST DUP2 MLOAD PUSH2 0xFC3 DUP2 PUSH2 0x42F3 JUMP JUMPDEST SWAP3 DUP4 MSTORE PUSH1 0x20 DUP4 ADD SWAP2 SWAP1 SWAP2 MSTORE PUSH1 0x1 PUSH1 0x1 PUSH1 0xE0 SHL SUB NOT AND PUSH1 0x40 DUP3 ADD MSTORE PUSH1 0x60 ADD SWAP1 JUMP JUMPDEST PUSH1 0x0 PUSH1 0x1 PUSH1 0x1 PUSH1 0x40 SHL SUB DUP3 GT ISZERO PUSH2 0x49CA JUMPI PUSH2 0x49CA PUSH2 0x4514 JUMP JUMPDEST POP PUSH1 0x5 SHL PUSH1 0x20 ADD SWAP1 JUMP JUMPDEST PUSH1 0x0 DUP3 PUSH1 0x1F DUP4 ADD SLT PUSH2 0x49E5 JUMPI PUSH1 0x0 DUP1 REVERT JUMPDEST DUP2 MLOAD PUSH1 0x20 PUSH2 0x49F5 PUSH2 0x45C8 DUP4 PUSH2 0x49B1 JUMP JUMPDEST DUP3 DUP2 MSTORE PUSH1 0x5 SWAP3 SWAP1 SWAP3 SHL DUP5 ADD DUP2 ADD SWAP2 DUP2 DUP2 ADD SWAP1 DUP7 DUP5 GT ISZERO PUSH2 0x4A14 JUMPI PUSH1 0x0 DUP1 REVERT JUMPDEST DUP3 DUP7 ADD JUMPDEST DUP5 DUP2 LT ISZERO PUSH2 0x4A38 JUMPI DUP1 MLOAD PUSH2 0x4A2B DUP2 PUSH2 0x40EB JUMP JUMPDEST DUP4 MSTORE SWAP2 DUP4 ADD SWAP2 DUP4 ADD PUSH2 0x4A18 JUMP JUMPDEST POP SWAP7 SWAP6 POP POP POP POP POP POP JUMP JUMPDEST PUSH1 0x0 PUSH1 0x20 DUP3 DUP5 SUB SLT ISZERO PUSH2 0x4A55 JUMPI PUSH1 0x0 DUP1 REVERT JUMPDEST DUP2 MLOAD PUSH1 0x1 PUSH1 0x1 PUSH1 0x40 SHL SUB DUP2 GT ISZERO PUSH2 0x4A6B JUMPI PUSH1 0x0 DUP1 REVERT JUMPDEST PUSH2 0x2105 DUP5 DUP3 DUP6 ADD PUSH2 0x49D4 JUMP JUMPDEST PUSH1 0x0 PUSH1 0x20 DUP1 DUP4 DUP6 SUB SLT ISZERO PUSH2 0x4A8A JUMPI PUSH1 0x0 DUP1 REVERT JUMPDEST DUP3 MLOAD PUSH1 0x1 PUSH1 0x1 PUSH1 0x40 SHL SUB DUP2 GT ISZERO PUSH2 0x4AA0 JUMPI PUSH1 0x0 DUP1 REVERT JUMPDEST DUP4 ADD PUSH1 0x1F DUP2 ADD DUP6 SGT PUSH2 0x4AB1 JUMPI PUSH1 0x0 DUP1 REVERT JUMPDEST DUP1 MLOAD PUSH2 0x4ABF PUSH2 0x45C8 DUP3 PUSH2 0x49B1 JUMP JUMPDEST DUP2 DUP2 MSTORE PUSH1 0x5 SWAP2 SWAP1 SWAP2 SHL DUP3 ADD DUP4 ADD SWAP1 DUP4 DUP2 ADD SWAP1 DUP8 DUP4 GT ISZERO PUSH2 0x4ADE JUMPI PUSH1 0x0 DUP1 REVERT JUMPDEST SWAP3 DUP5 ADD SWAP3 JUMPDEST DUP3 DUP5 LT ISZERO PUSH2 0x4AFC JUMPI DUP4 MLOAD DUP3 MSTORE SWAP3 DUP5 ADD SWAP3 SWAP1 DUP5 ADD SWAP1 PUSH2 0x4AE3 JUMP JUMPDEST SWAP8 SWAP7 POP POP POP POP POP POP POP JUMP JUMPDEST PUSH1 0x0 DUP3 PUSH1 0x1F DUP4 ADD SLT PUSH2 0x4B18 JUMPI PUSH1 0x0 DUP1 REVERT JUMPDEST DUP2 MLOAD PUSH2 0x4B26 PUSH2 0x45C8 DUP3 PUSH2 0x4582 JUMP JUMPDEST DUP2 DUP2 MSTORE DUP5 PUSH1 0x20 DUP4 DUP7 ADD ADD GT ISZERO PUSH2 0x4B3B JUMPI PUSH1 0x0 DUP1 REVERT JUMPDEST PUSH2 0x2105 DUP3 PUSH1 0x20 DUP4 ADD PUSH1 0x20 DUP8 ADD PUSH2 0x4225 JUMP JUMPDEST PUSH1 0x0 DUP1 PUSH1 0x0 PUSH1 0x60 DUP5 DUP7 SUB SLT ISZERO PUSH2 0x4B61 JUMPI PUSH1 0x0 DUP1 REVERT JUMPDEST DUP4 MLOAD PUSH1 0x1 PUSH1 0x1 PUSH1 0x40 SHL SUB DUP2 GT ISZERO PUSH2 0x4B77 JUMPI PUSH1 0x0 DUP1 REVERT JUMPDEST PUSH2 0x4B83 DUP7 DUP3 DUP8 ADD PUSH2 0x4B07 JUMP JUMPDEST SWAP4 POP POP PUSH1 0x20 DUP5 ADD MLOAD PUSH2 0x4B94 DUP2 PUSH2 0x42F3 JUMP JUMPDEST PUSH1 0x40 DUP6 ADD MLOAD SWAP1 SWAP3 POP PUSH2 0x434C DUP2 PUSH2 0x42F3 JUMP JUMPDEST DUP2 DUP4 MSTORE DUP2 DUP2 PUSH1 0x20 DUP6 ADD CALLDATACOPY POP PUSH1 0x0 DUP3 DUP3 ADD PUSH1 0x20 SWAP1 DUP2 ADD SWAP2 SWAP1 SWAP2 MSTORE PUSH1 0x1F SWAP1 SWAP2 ADD PUSH1 0x1F NOT AND SWAP1 SWAP2 ADD ADD SWAP1 JUMP JUMPDEST DUP5 DUP2 MSTORE PUSH1 0x60 PUSH1 0x20 DUP3 ADD MSTORE PUSH1 0x0 PUSH2 0x4BE8 PUSH1 0x60 DUP4 ADD DUP6 DUP8 PUSH2 0x4BA5 JUMP JUMPDEST SWAP1 POP DUP3 ISZERO ISZERO PUSH1 0x40 DUP4 ADD MSTORE SWAP6 SWAP5 POP POP POP POP POP JUMP JUMPDEST PUSH1 0x40 DUP2 MSTORE PUSH1 0x0 PUSH2 0x4C0F PUSH1 0x40 DUP4 ADD DUP6 DUP8 PUSH2 0x4BA5 JUMP JUMPDEST SWAP1 POP DUP3 ISZERO ISZERO PUSH1 0x20 DUP4 ADD MSTORE SWAP5 SWAP4 POP POP POP POP JUMP JUMPDEST PUSH1 0x20 DUP1 DUP3 MSTORE PUSH1 0x15 SWAP1 DUP3 ADD MSTORE PUSH21 0x125B1B1959D85B0810DBDB9D1C9858DD0810D85B1B PUSH1 0x5A SHL PUSH1 0x40 DUP3 ADD MSTORE PUSH1 0x60 ADD SWAP1 JUMP JUMPDEST PUSH1 0x20 DUP1 DUP3 MSTORE PUSH1 0x14 SWAP1 DUP3 ADD MSTORE PUSH20 0x141C9BDE1E4810D85B1B195908125B9D985B1A59 PUSH1 0x62 SHL PUSH1 0x40 DUP3 ADD MSTORE PUSH1 0x60 ADD SWAP1 JUMP JUMPDEST PUSH1 0x20 DUP1 DUP3 MSTORE PUSH1 0x17 SWAP1 DUP3 ADD MSTORE PUSH32 0x536166654D6F64653A2043616C6C2052656A6563746564000000000000000000 PUSH1 0x40 DUP3 ADD MSTORE PUSH1 0x60 ADD SWAP1 JUMP JUMPDEST DUP6 DUP2 MSTORE PUSH1 0x80 PUSH1 0x20 DUP3 ADD MSTORE PUSH1 0x0 PUSH2 0x4CCF PUSH1 0x80 DUP4 ADD DUP7 DUP9 PUSH2 0x4BA5 JUMP JUMPDEST SWAP4 ISZERO ISZERO PUSH1 0x40 DUP4 ADD MSTORE POP SWAP1 ISZERO ISZERO PUSH1 0x60 SWAP1 SWAP2 ADD MSTORE SWAP4 SWAP3 POP POP POP JUMP JUMPDEST PUSH1 0x60 DUP2 MSTORE PUSH1 0x0 PUSH2 0x4CFC PUSH1 0x60 DUP4 ADD DUP7 DUP9 PUSH2 0x4BA5 JUMP JUMPDEST SWAP4 ISZERO ISZERO PUSH1 0x20 DUP4 ADD MSTORE POP SWAP1 ISZERO ISZERO PUSH1 0x40 SWAP1 SWAP2 ADD MSTORE SWAP3 SWAP2 POP POP JUMP JUMPDEST DUP2 DUP4 DUP3 CALLDATACOPY PUSH1 0x0 SWAP2 ADD SWAP1 DUP2 MSTORE SWAP2 SWAP1 POP JUMP JUMPDEST PUSH1 0x0 PUSH1 0x20 DUP1 DUP4 DUP6 SUB SLT ISZERO PUSH2 0x4D37 JUMPI PUSH1 0x0 DUP1 REVERT JUMPDEST DUP3 MLOAD PUSH1 0x1 PUSH1 0x1 PUSH1 0x40 SHL SUB DUP1 DUP3 GT ISZERO PUSH2 0x4D4E JUMPI PUSH1 0x0 DUP1 REVERT JUMPDEST DUP2 DUP6 ADD SWAP2 POP DUP6 PUSH1 0x1F DUP4 ADD SLT PUSH2 0x4D62 JUMPI PUSH1 0x0 DUP1 REVERT JUMPDEST DUP2 MLOAD PUSH2 0x4D70 PUSH2 0x45C8 DUP3 PUSH2 0x49B1 JUMP JUMPDEST DUP2 DUP2 MSTORE PUSH1 0x5 SWAP2 SWAP1 SWAP2 SHL DUP4 ADD DUP5 ADD SWAP1 DUP5 DUP2 ADD SWAP1 DUP9 DUP4 GT ISZERO PUSH2 0x4D8F JUMPI PUSH1 0x0 DUP1 REVERT JUMPDEST DUP6 DUP6 ADD JUMPDEST DUP4 DUP2 LT ISZERO PUSH2 0x4E1A JUMPI DUP1 MLOAD DUP6 DUP2 GT ISZERO PUSH2 0x4DAB JUMPI PUSH1 0x0 DUP1 DUP2 REVERT JUMPDEST DUP7 ADD PUSH1 0x60 DUP2 DUP13 SUB PUSH1 0x1F NOT ADD DUP2 SGT ISZERO PUSH2 0x4DC3 JUMPI PUSH1 0x0 DUP1 DUP2 REVERT JUMPDEST PUSH2 0x4DCB PUSH2 0x452A JUMP JUMPDEST DUP10 DUP4 ADD MLOAD DUP2 MSTORE PUSH1 0x40 DUP1 DUP5 ADD MLOAD DUP10 DUP2 GT ISZERO PUSH2 0x4DE5 JUMPI PUSH1 0x0 DUP1 DUP2 REVERT JUMPDEST PUSH2 0x4DF3 DUP16 DUP14 DUP4 DUP9 ADD ADD PUSH2 0x49D4 JUMP JUMPDEST DUP4 DUP14 ADD MSTORE POP SWAP3 DUP3 ADD MLOAD SWAP3 PUSH2 0x4E06 DUP5 PUSH2 0x42F3 JUMP JUMPDEST DUP2 ADD SWAP3 SWAP1 SWAP3 MSTORE POP DUP4 MSTORE SWAP2 DUP7 ADD SWAP2 DUP7 ADD PUSH2 0x4D93 JUMP JUMPDEST POP SWAP9 SWAP8 POP POP POP POP POP POP POP POP JUMP JUMPDEST PUSH1 0x0 PUSH1 0x80 DUP1 DUP4 ADD DUP8 DUP5 MSTORE PUSH1 0x20 PUSH1 0x1 DUP1 PUSH1 0xA0 SHL SUB DUP9 AND DUP2 DUP7 ADD MSTORE PUSH1 0x40 DUP8 DUP2 DUP8 ADD MSTORE PUSH1 0x60 DUP5 DUP2 DUP9 ADD MSTORE DUP4 DUP9 MLOAD DUP1 DUP7 MSTORE PUSH1 0xA0 DUP10 ADD SWAP2 POP PUSH1 0xA0 DUP2 PUSH1 0x5 SHL DUP11 ADD ADD SWAP6 POP DUP5 DUP11 ADD PUSH1 0x0 DUP1 JUMPDEST DUP4 DUP2 LT ISZERO PUSH2 0x4EEB JUMPI DUP12 DUP10 SUB PUSH1 0x9F NOT ADD DUP6 MSTORE DUP3 MLOAD DUP1 MLOAD DUP11 MSTORE DUP9 DUP2 ADD MLOAD DUP10 DUP12 ADD DUP9 SWAP1 MSTORE DUP1 MLOAD DUP9 DUP13 ADD DUP2 SWAP1 MSTORE SWAP1 DUP11 ADD SWAP1 DUP5 SWAP1 DUP14 DUP14 ADD SWAP1 JUMPDEST DUP1 DUP4 LT ISZERO PUSH2 0x4ECA JUMPI DUP4 MLOAD PUSH1 0x1 PUSH1 0x1 PUSH1 0xE0 SHL SUB NOT AND DUP3 MSTORE SWAP3 DUP13 ADD SWAP3 PUSH1 0x1 SWAP3 SWAP1 SWAP3 ADD SWAP2 SWAP1 DUP13 ADD SWAP1 PUSH2 0x4EA0 JUMP JUMPDEST POP SWAP3 DUP11 ADD MLOAD ISZERO ISZERO SWAP12 DUP11 ADD SWAP12 SWAP1 SWAP12 MSTORE POP SWAP9 POP SWAP4 DUP8 ADD SWAP4 SWAP2 DUP8 ADD SWAP2 PUSH1 0x1 ADD PUSH2 0x4E6C JUMP JUMPDEST POP SWAP7 SWAP15 SWAP14 POP POP POP POP POP POP POP POP POP POP POP POP POP POP JUMP JUMPDEST PUSH1 0x80 DUP2 MSTORE PUSH1 0x0 PUSH2 0x4F13 PUSH1 0x80 DUP4 ADD DUP9 DUP11 PUSH2 0x4BA5 JUMP JUMPDEST DUP3 DUP2 SUB PUSH1 0x20 DUP5 ADD MSTORE PUSH2 0x4F26 DUP2 DUP8 DUP10 PUSH2 0x4BA5 JUMP JUMPDEST SWAP2 POP POP DUP4 PUSH1 0x40 DUP4 ADD MSTORE PUSH2 0xFFFF DUP4 AND PUSH1 0x60 DUP4 ADD MSTORE SWAP8 SWAP7 POP POP POP POP POP POP POP JUMP JUMPDEST PUSH1 0x0 DUP1 PUSH1 0x40 DUP4 DUP6 SUB SLT ISZERO PUSH2 0x4F57 JUMPI PUSH1 0x0 DUP1 REVERT JUMPDEST DUP3 MLOAD PUSH1 0x1 PUSH1 0x1 PUSH1 0x40 SHL SUB DUP2 GT ISZERO PUSH2 0x4F6D JUMPI PUSH1 0x0 DUP1 REVERT JUMPDEST PUSH2 0x4F79 DUP6 DUP3 DUP7 ADD PUSH2 0x4B07 JUMP JUMPDEST SWAP3 POP POP PUSH1 0x20 DUP4 ADD MLOAD PUSH2 0x4194 DUP2 PUSH2 0x42F3 JUMP JUMPDEST PUSH1 0x0 DUP1 PUSH1 0x40 DUP4 DUP6 SUB SLT ISZERO PUSH2 0x4F9D JUMPI PUSH1 0x0 DUP1 REVERT JUMPDEST DUP3 MLOAD PUSH2 0x4FA8 DUP2 PUSH2 0x42F3 JUMP JUMPDEST PUSH1 0x20 SWAP4 SWAP1 SWAP4 ADD MLOAD SWAP3 SWAP5 SWAP3 SWAP4 POP POP POP JUMP JUMPDEST PUSH1 0x0 PUSH1 0xC0 DUP3 DUP5 SUB SLT ISZERO PUSH2 0x4FCA JUMPI PUSH1 0x0 DUP1 REVERT JUMPDEST PUSH1 0x40 MLOAD PUSH1 0xC0 DUP2 ADD DUP2 DUP2 LT PUSH1 0x1 PUSH1 0x1 PUSH1 0x40 SHL SUB DUP3 GT OR ISZERO PUSH2 0x4FEC JUMPI PUSH2 0x4FEC PUSH2 0x4514 JUMP JUMPDEST DUP1 PUSH1 0x40 MSTORE POP DUP3 MLOAD DUP2 MSTORE PUSH1 0x20 DUP4 ADD MLOAD PUSH1 0x20 DUP3 ADD MSTORE PUSH1 0x40 DUP4 ADD MLOAD PUSH1 0x40 DUP3 ADD MSTORE PUSH1 0x60 DUP4 ADD MLOAD PUSH2 0x5017 DUP2 PUSH2 0x43DB JUMP JUMPDEST PUSH1 0x60 DUP3 ADD MSTORE PUSH1 0x80 DUP4 ADD MLOAD PUSH2 0x502A DUP2 PUSH2 0x42F3 JUMP JUMPDEST PUSH1 0x80 DUP3 ADD MSTORE PUSH1 0xA0 DUP4 ADD MLOAD PUSH2 0x503D DUP2 PUSH2 0x42F3 JUMP JUMPDEST PUSH1 0xA0 DUP3 ADD MSTORE SWAP4 SWAP3 POP POP POP JUMP JUMPDEST DUP6 DUP2 MSTORE PUSH1 0x80 PUSH1 0x20 DUP3 ADD MSTORE PUSH1 0x0 PUSH2 0x5063 PUSH1 0x80 DUP4 ADD DUP7 DUP9 PUSH2 0x4BA5 JUMP JUMPDEST PUSH1 0x40 DUP4 ADD SWAP5 SWAP1 SWAP5 MSTORE POP SWAP1 ISZERO ISZERO PUSH1 0x60 SWAP1 SWAP2 ADD MSTORE SWAP4 SWAP3 POP POP POP JUMP JUMPDEST PUSH1 0x0 DUP1 PUSH1 0x0 PUSH1 0x60 DUP5 DUP7 SUB SLT ISZERO PUSH2 0x5091 JUMPI PUSH1 0x0 DUP1 REVERT JUMPDEST DUP4 MLOAD PUSH1 0x1 PUSH1 0x1 PUSH1 0x40 SHL SUB DUP2 GT ISZERO PUSH2 0x50A7 JUMPI PUSH1 0x0 DUP1 REVERT JUMPDEST PUSH2 0x50B3 DUP7 DUP3 DUP8 ADD PUSH2 0x4B07 JUMP JUMPDEST SWAP4 POP POP PUSH1 0x20 DUP5 ADD MLOAD SWAP2 POP PUSH1 0x40 DUP5 ADD MLOAD PUSH2 0x434C DUP2 PUSH2 0x42F3 JUMP JUMPDEST PUSH1 0x0 PUSH1 0x20 DUP1 DUP4 DUP6 SUB SLT ISZERO PUSH2 0x50DE JUMPI PUSH1 0x0 DUP1 REVERT JUMPDEST DUP3 MLOAD PUSH1 0x1 PUSH1 0x1 PUSH1 0x40 SHL SUB DUP2 GT ISZERO PUSH2 0x50F4 JUMPI PUSH1 0x0 DUP1 REVERT JUMPDEST DUP4 ADD PUSH1 0x1F DUP2 ADD DUP6 SGT PUSH2 0x5105 JUMPI PUSH1 0x0 DUP1 REVERT JUMPDEST DUP1 MLOAD PUSH2 0x5113 PUSH2 0x45C8 DUP3 PUSH2 0x49B1 JUMP JUMPDEST DUP2 DUP2 MSTORE PUSH1 0x5 SWAP2 SWAP1 SWAP2 SHL DUP3 ADD DUP4 ADD SWAP1 DUP4 DUP2 ADD SWAP1 DUP8 DUP4 GT ISZERO PUSH2 0x5132 JUMPI PUSH1 0x0 DUP1 REVERT JUMPDEST SWAP3 DUP5 ADD SWAP3 JUMPDEST DUP3 DUP5 LT ISZERO PUSH2 0x4AFC JUMPI DUP4 MLOAD PUSH2 0x514A DUP2 PUSH2 0x43DB JUMP JUMPDEST DUP3 MSTORE SWAP3 DUP5 ADD SWAP3 SWAP1 DUP5 ADD SWAP1 PUSH2 0x5137 JUMP JUMPDEST DUP1 CALLDATALOAD DUP3 MSTORE PUSH1 0x20 DUP2 ADD CALLDATALOAD PUSH1 0x20 DUP4 ADD MSTORE PUSH1 0x40 DUP2 ADD CALLDATALOAD PUSH1 0x40 DUP4 ADD MSTORE PUSH1 0x60 DUP2 ADD CALLDATALOAD PUSH2 0x517F DUP2 PUSH2 0x43DB JUMP JUMPDEST PUSH1 0x1 PUSH1 0x1 PUSH1 0xA0 SHL SUB AND PUSH1 0x60 DUP4 ADD MSTORE PUSH1 0x80 DUP2 ADD CALLDATALOAD PUSH2 0x519B DUP2 PUSH2 0x42F3 JUMP JUMPDEST DUP1 ISZERO ISZERO PUSH1 0x80 DUP5 ADD MSTORE POP POP POP JUMP JUMPDEST PUSH1 0x0 DUP1 DUP4 CALLDATALOAD PUSH1 0x1E NOT DUP5 CALLDATASIZE SUB ADD DUP2 SLT PUSH2 0x51BF JUMPI PUSH1 0x0 DUP1 REVERT JUMPDEST DUP4 ADD PUSH1 0x20 DUP2 ADD SWAP3 POP CALLDATALOAD SWAP1 POP PUSH1 0x1 PUSH1 0x1 PUSH1 0x40 SHL SUB DUP2 GT ISZERO PUSH2 0x51DE JUMPI PUSH1 0x0 DUP1 REVERT JUMPDEST DUP1 PUSH1 0x5 SHL CALLDATASIZE SUB DUP3 SGT ISZERO PUSH2 0x42EC JUMPI PUSH1 0x0 DUP1 REVERT JUMPDEST DUP2 DUP4 MSTORE PUSH1 0x0 PUSH1 0x20 DUP1 DUP6 ADD SWAP5 POP DUP3 PUSH1 0x0 JUMPDEST DUP6 DUP2 LT ISZERO PUSH2 0x522F JUMPI DUP2 CALLDATALOAD PUSH2 0x5213 DUP2 PUSH2 0x40EB JUMP JUMPDEST PUSH1 0x1 PUSH1 0x1 PUSH1 0xE0 SHL SUB NOT AND DUP8 MSTORE SWAP6 DUP3 ADD SWAP6 SWAP1 DUP3 ADD SWAP1 PUSH1 0x1 ADD PUSH2 0x5200 JUMP JUMPDEST POP SWAP5 SWAP6 SWAP5 POP POP POP POP POP JUMP JUMPDEST PUSH1 0x0 DUP3 CALLDATALOAD PUSH1 0x5E NOT DUP4 CALLDATASIZE SUB ADD DUP2 SLT PUSH2 0x5250 JUMPI PUSH1 0x0 DUP1 REVERT JUMPDEST SWAP1 SWAP2 ADD SWAP3 SWAP2 POP POP JUMP JUMPDEST PUSH1 0x0 PUSH2 0x120 DUP9 DUP4 MSTORE PUSH1 0x20 DUP9 DUP2 DUP6 ADD MSTORE PUSH1 0x40 DUP3 DUP2 DUP7 ADD MSTORE PUSH2 0x527B DUP4 DUP7 ADD DUP11 PUSH2 0x4255 JUMP JUMPDEST SWAP3 POP PUSH1 0x60 PUSH2 0x528B DUP2 DUP8 ADD DUP11 PUSH2 0x5159 JUMP JUMPDEST DUP6 DUP5 SUB PUSH2 0x100 DUP8 ADD MSTORE DUP7 DUP5 MSTORE DUP3 DUP5 ADD PUSH1 0x5 DUP9 SWAP1 SHL DUP6 ADD DUP5 ADD DUP10 PUSH1 0x0 DUP1 JUMPDEST DUP12 DUP2 LT ISZERO PUSH2 0x530D JUMPI DUP9 DUP5 SUB PUSH1 0x1F NOT ADD DUP6 MSTORE PUSH2 0x52C3 DUP4 DUP15 PUSH2 0x523A JUMP JUMPDEST DUP1 CALLDATALOAD DUP6 MSTORE PUSH2 0x52D3 DUP10 DUP3 ADD DUP3 PUSH2 0x51A8 JUMP JUMPDEST DUP9 DUP12 DUP9 ADD MSTORE PUSH2 0x52E5 DUP10 DUP9 ADD DUP3 DUP5 PUSH2 0x51F0 JUMP JUMPDEST SWAP3 DUP11 ADD CALLDATALOAD SWAP3 SWAP2 POP POP PUSH1 0x3 DUP3 LT PUSH2 0x52F9 JUMPI DUP4 DUP5 REVERT JUMPDEST SWAP5 DUP9 ADD MSTORE SWAP4 DUP8 ADD SWAP4 SWAP2 DUP8 ADD SWAP2 PUSH1 0x1 ADD PUSH2 0x52A8 JUMP JUMPDEST POP SWAP2 SWAP16 SWAP15 POP POP POP POP POP POP POP POP POP POP POP POP POP POP POP JUMP JUMPDEST PUSH1 0x0 DUP1 PUSH1 0x40 DUP4 DUP6 SUB SLT ISZERO PUSH2 0x5335 JUMPI PUSH1 0x0 DUP1 REVERT JUMPDEST DUP3 MLOAD PUSH2 0x5340 DUP2 PUSH2 0x43DB JUMP JUMPDEST PUSH1 0x20 DUP5 ADD MLOAD SWAP1 SWAP3 POP PUSH2 0x4194 DUP2 PUSH2 0x43DB JUMP JUMPDEST PUSH1 0x0 PUSH2 0x100 DUP8 DUP4 MSTORE PUSH1 0x20 DUP2 DUP2 DUP6 ADD MSTORE PUSH2 0x536C DUP3 DUP6 ADD DUP10 PUSH2 0x4255 JUMP JUMPDEST SWAP2 POP PUSH1 0x40 PUSH2 0x537C DUP2 DUP7 ADD DUP10 PUSH2 0x5159 JUMP JUMPDEST DUP5 DUP4 SUB PUSH1 0xE0 DUP7 ADD MSTORE DUP6 DUP4 MSTORE DUP2 DUP4 ADD PUSH1 0x5 DUP8 SWAP1 SHL DUP5 ADD DUP4 ADD DUP9 PUSH1 0x0 JUMPDEST DUP10 DUP2 LT ISZERO PUSH2 0x5403 JUMPI DUP7 DUP4 SUB PUSH1 0x1F NOT ADD DUP5 MSTORE PUSH2 0x53B2 DUP3 DUP13 PUSH2 0x523A JUMP JUMPDEST PUSH1 0x60 DUP2 CALLDATALOAD DUP6 MSTORE PUSH2 0x53C4 DUP9 DUP4 ADD DUP4 PUSH2 0x51A8 JUMP JUMPDEST DUP3 DUP11 DUP9 ADD MSTORE PUSH2 0x53D6 DUP4 DUP9 ADD DUP3 DUP5 PUSH2 0x51F0 JUMP JUMPDEST SWAP3 POP POP POP DUP7 DUP3 ADD CALLDATALOAD SWAP2 POP PUSH2 0x53E9 DUP3 PUSH2 0x42F3 JUMP JUMPDEST SWAP1 ISZERO ISZERO SWAP4 DUP7 ADD SWAP4 SWAP1 SWAP4 MSTORE SWAP3 DUP6 ADD SWAP3 SWAP1 DUP6 ADD SWAP1 PUSH1 0x1 ADD PUSH2 0x5397 JUMP JUMPDEST POP SWAP1 SWAP13 SWAP12 POP POP POP POP POP POP POP POP POP POP POP POP JUMP JUMPDEST PUSH1 0x0 DUP1 PUSH1 0x40 DUP4 DUP6 SUB SLT ISZERO PUSH2 0x5428 JUMPI PUSH1 0x0 DUP1 REVERT JUMPDEST DUP3 MLOAD SWAP2 POP PUSH1 0x20 DUP4 ADD MLOAD PUSH2 0x4194 DUP2 PUSH2 0x43DB JUMP JUMPDEST SWAP3 DUP4 MSTORE PUSH1 0x1 PUSH1 0x1 PUSH1 0xA0 SHL SUB SWAP2 SWAP1 SWAP2 AND PUSH1 0x20 DUP4 ADD MSTORE PUSH1 0x1 PUSH1 0x1 PUSH1 0xE0 SHL SUB NOT AND PUSH1 0x40 DUP3 ADD MSTORE PUSH1 0x60 ADD SWAP1 JUMP JUMPDEST PUSH1 0x0 DUP3 DUP3 LT ISZERO PUSH2 0x5483 JUMPI PUSH4 0x4E487B71 PUSH1 0xE0 SHL PUSH1 0x0 MSTORE PUSH1 0x11 PUSH1 0x4 MSTORE PUSH1 0x24 PUSH1 0x0 REVERT JUMPDEST POP SUB SWAP1 JUMP JUMPDEST PUSH4 0x4E487B71 PUSH1 0xE0 SHL PUSH1 0x0 MSTORE PUSH1 0x32 PUSH1 0x4 MSTORE PUSH1 0x24 PUSH1 0x0 REVERT JUMPDEST PUSH1 0x0 DUP3 MLOAD PUSH2 0x54B0 DUP2 DUP5 PUSH1 0x20 DUP8 ADD PUSH2 0x4225 JUMP JUMPDEST SWAP2 SWAP1 SWAP2 ADD SWAP3 SWAP2 POP POP JUMP INVALID DIFFICULTY PUSH6 0x6C6567617465 PUSH4 0x616C6C20 PUSH10 0x735265616C6D55706772 PUSH2 0x6461 PUSH3 0x6C6520 CHAINID PUSH2 0x696C PUSH6 0x64360894A13B LOG1 LOG3 0x21 MOD PUSH8 0xC828492DB98DCA3E KECCAK256 PUSH23 0xCC3735A920A3CA505D382BBCA26469706673582212207C 0xF6 0x2B SLT 0xFC 0x26 PUSH18 0x95C9CF1B83B0528771E5E1A4FE2AFD80E969 SWAP11 0x28 0xE2 POP 0xCE 0xCA ADDRESS PUSH5 0x736F6C6343 STOP ADDMOD 0xF STOP CALLER 0xB5 BALANCE 0x27 PUSH9 0x4A568B3173AE13B9F8 0xA6 ADD PUSH15 0x243E63B6E8EE1178D6A717850B5D61 SUB "
    },
    "gasEstimates": {
      "creation": {
        "codeDepositCost": "4362600",
        "executionCost": "infinite",
        "totalCost": "infinite"
      },
      "external": {
        "": "231",
        "accessControlManager()": "2421",
        "addContextFuncRole(bytes32,bytes4,bytes32)": "infinite",
        "contractContext()": "486",
        "contractName()": "2447",
        "contractRealm()": "2382",
        "contractVersion()": "2426",
        "domainSeparator()": "4754",
        "getContextFuncs(bytes32)": "infinite",
        "getContextInfo(bytes32)": "infinite",
        "getGroupInfo(bytes32)": "infinite",
        "getGroupRoles(bytes32)": "infinite",
        "getRealmContexts(bytes32)": "infinite",
        "getRealmInfo(bytes32)": "infinite",
        "getRoleAccounts(bytes32)": "infinite",
        "getRoleInfo(bytes32)": "infinite",
        "grantContextRole(bytes32,bytes4,bytes32)": "infinite",
        "grantRoleAccount(bytes32,address)": "infinite",
        "hasAccess(bytes32,address,bytes4)": "infinite",
        "hasContextRole(bytes32,bytes32,bytes4)": "infinite",
        "hasGroupRole(bytes32,bytes32)": "infinite",
        "hasRealmContext(bytes32,bytes32)": "infinite",
        "hasRoleAccount(bytes32,address)": "infinite",
        "initStatus()": "2394",
        "initVersion()": "2436",
        "initialize(string,string,string,address)": "infinite",
        "isContextEnabled(bytes32)": "infinite",
        "isContextExists(bytes32)": "infinite",
        "isContextFunctionEnabled(bytes32,bytes4)": "infinite",
        "isContextFunctionExists(bytes32,bytes4)": "infinite",
        "isContextSafeMode(bytes32)": "infinite",
        "isContextUpgradable(bytes32)": "infinite",
        "isGroupEnabled(bytes32)": "infinite",
        "isGroupExists(bytes32)": "infinite",
        "isLivelyAdmin(address)": "infinite",
        "isLivelyAssetManager(address)": "infinite",
        "isLivelyDao(address)": "infinite",
        "isLivelyDaoExecutor(address)": "infinite",
        "isLivelyGeneralGroup(bytes32)": "infinite",
        "isLivelyGeneralRealm(bytes32)": "infinite",
        "isLivelySystemAdmin(address)": "infinite",
        "isRealmEnabled(bytes32)": "infinite",
        "isRealmExists(bytes32)": "infinite",
        "isRealmUpgradable(bytes32)": "infinite",
        "isRoleEnabled(bytes32)": "infinite",
        "isRoleExists(bytes32)": "infinite",
        "isSafeMode()": "2360",
        "isUpgradable()": "2416",
        "livelyAdminRole()": "456",
        "livelyAnonymousRole()": "443",
        "livelyAssetManagerRole()": "482",
        "livelyDaoExecutorRole()": "460",
        "livelyDaoRole()": "465",
        "livelyGeneralGroupRole()": "510",
        "livelyGeneralRealmRole()": "464",
        "livelySystemAdminRole()": "415",
        "localAdmin()": "2533",
        "proxiableUUID()": "infinite",
        "registerContext(bytes,(bytes32,bytes32,bytes32,address,bool),(bytes32,bytes4[],bool)[])": "infinite",
        "registerGroup(string,bool)": "infinite",
        "registerRealm(string,bool,bool)": "infinite",
        "registerRole(string,bytes32,bool)": "infinite",
        "removeContextFunc(bytes32,bytes4)": "infinite",
        "revokeContextRole(bytes32,bytes4,bytes32)": "infinite",
        "revokeRoleAccount(bytes32,address)": "infinite",
        "setContextRealm(bytes32,bytes32)": "infinite",
        "setContextStatus(bytes32,bool)": "infinite",
        "setGroupStatus(bytes32,bool)": "infinite",
        "setLocalAdmin(address)": "infinite",
        "setRealmStatus(bytes32,bool)": "infinite",
        "setRealmUpgradeStatus(bytes32,bool)": "infinite",
        "setRoleGroup(bytes32,bytes32)": "infinite",
        "setRoleStatus(bytes32,bool)": "infinite",
        "setSafeMode(bool)": "infinite",
        "setUpgradeStatus(bool)": "infinite",
        "subjectAddress()": "infinite",
        "supportsInterface(bytes4)": "infinite",
        "updateContext(bytes32,bytes,(bytes32,bytes32,bytes32,address,bool),(bytes32,bytes4[],uint8)[])": "infinite",
        "upgradeTo(address,bytes,bool)": "infinite",
        "withdrawBalance(address)": "infinite"
      }
    },
    "methodIdentifiers": {
      "accessControlManager()": "b4a0bdf3",
      "addContextFuncRole(bytes32,bytes4,bytes32)": "031c0493",
      "contractContext()": "870666cb",
      "contractName()": "75d0c0dc",
      "contractRealm()": "d3e024b8",
      "contractVersion()": "a0a8e460",
      "domainSeparator()": "f698da25",
      "getContextFuncs(bytes32)": "2e2adf00",
      "getContextInfo(bytes32)": "9ebf6246",
      "getGroupInfo(bytes32)": "6b2b7dd8",
      "getGroupRoles(bytes32)": "edf1d1cb",
      "getRealmContexts(bytes32)": "37bfbfe8",
      "getRealmInfo(bytes32)": "3c7d5b25",
      "getRoleAccounts(bytes32)": "e1ed0a82",
      "getRoleInfo(bytes32)": "be409a11",
      "grantContextRole(bytes32,bytes4,bytes32)": "771bcf45",
      "grantRoleAccount(bytes32,address)": "8f09e0f0",
      "hasAccess(bytes32,address,bytes4)": "c7ab39e6",
      "hasContextRole(bytes32,bytes32,bytes4)": "6b3b0159",
      "hasGroupRole(bytes32,bytes32)": "f5122c92",
      "hasRealmContext(bytes32,bytes32)": "d9aba36e",
      "hasRoleAccount(bytes32,address)": "c7ea945c",
      "initStatus()": "60fefdec",
      "initVersion()": "38d38c97",
      "initialize(string,string,string,address)": "5c6d8da1",
      "isContextEnabled(bytes32)": "4944f532",
      "isContextExists(bytes32)": "8e703826",
      "isContextFunctionEnabled(bytes32,bytes4)": "b4c4b58f",
      "isContextFunctionExists(bytes32,bytes4)": "11b529b3",
      "isContextSafeMode(bytes32)": "101df54d",
      "isContextUpgradable(bytes32)": "51e70bb0",
      "isGroupEnabled(bytes32)": "3228144d",
      "isGroupExists(bytes32)": "1846d125",
      "isLivelyAdmin(address)": "f8aa7e3f",
      "isLivelyAssetManager(address)": "facaf139",
      "isLivelyDao(address)": "aea3f33b",
      "isLivelyDaoExecutor(address)": "98625fff",
      "isLivelyGeneralGroup(bytes32)": "4dc13c8f",
      "isLivelyGeneralRealm(bytes32)": "91690955",
      "isLivelySystemAdmin(address)": "f80f010f",
      "isRealmEnabled(bytes32)": "c48e7ae6",
      "isRealmExists(bytes32)": "45b5203c",
      "isRealmUpgradable(bytes32)": "e25d75f0",
      "isRoleEnabled(bytes32)": "2f032edd",
      "isRoleExists(bytes32)": "dc853dd0",
      "isSafeMode()": "be22465d",
      "isUpgradable()": "5479d940",
      "livelyAdminRole()": "098b01cf",
      "livelyAnonymousRole()": "40768140",
      "livelyAssetManagerRole()": "4bdbf69c",
      "livelyDaoExecutorRole()": "3b17f50b",
      "livelyDaoRole()": "611b4886",
      "livelyGeneralGroupRole()": "3dfe3aa2",
      "livelyGeneralRealmRole()": "7276ce29",
      "livelySystemAdminRole()": "5ec7870a",
      "localAdmin()": "f94a0adb",
      "proxiableUUID()": "52d1902d",
      "registerContext(bytes,(bytes32,bytes32,bytes32,address,bool),(bytes32,bytes4[],bool)[])": "f1df49da",
      "registerGroup(string,bool)": "3f4c99b8",
      "registerRealm(string,bool,bool)": "4bb1be8c",
      "registerRole(string,bytes32,bool)": "b2dc26e5",
      "removeContextFunc(bytes32,bytes4)": "b58966de",
      "revokeContextRole(bytes32,bytes4,bytes32)": "4346a04b",
      "revokeRoleAccount(bytes32,address)": "df01de45",
      "setContextRealm(bytes32,bytes32)": "d3386401",
      "setContextStatus(bytes32,bool)": "70420ee3",
      "setGroupStatus(bytes32,bool)": "b6c03f03",
      "setLocalAdmin(address)": "d9dc1f19",
      "setRealmStatus(bytes32,bool)": "8b7dbd6c",
      "setRealmUpgradeStatus(bytes32,bool)": "f2c673bd",
      "setRoleGroup(bytes32,bytes32)": "dbf304b0",
      "setRoleStatus(bytes32,bool)": "e71e224e",
      "setSafeMode(bool)": "44b7e5f2",
      "setUpgradeStatus(bool)": "48e6be1c",
      "subjectAddress()": "58dbc45d",
      "supportsInterface(bytes4)": "01ffc9a7",
      "updateContext(bytes32,bytes,(bytes32,bytes32,bytes32,address,bool),(bytes32,bytes4[],uint8)[])": "e65be468",
      "upgradeTo(address,bytes,bool)": "7147855d",
      "withdrawBalance(address)": "756af45f"
    }
  },
  "storageLayout": {
    "storage": [
      {
        "astId": 20152,
        "contract": "src/contracts/acl/AccessControlManager.sol:AccessControlManager",
        "label": "_accessControlManager",
        "offset": 0,
        "slot": "0",
        "type": "t_address"
      },
      {
        "astId": 20154,
        "contract": "src/contracts/acl/AccessControlManager.sol:AccessControlManager",
        "label": "_domainName",
        "offset": 0,
        "slot": "1",
        "type": "t_bytes32"
      },
      {
        "astId": 20156,
        "contract": "src/contracts/acl/AccessControlManager.sol:AccessControlManager",
        "label": "_domainVersion",
        "offset": 0,
        "slot": "2",
        "type": "t_bytes32"
      },
      {
        "astId": 20158,
        "contract": "src/contracts/acl/AccessControlManager.sol:AccessControlManager",
        "label": "_domainRealm",
        "offset": 0,
        "slot": "3",
        "type": "t_bytes32"
      },
      {
        "astId": 20160,
        "contract": "src/contracts/acl/AccessControlManager.sol:AccessControlManager",
        "label": "_isSafeMode",
        "offset": 0,
        "slot": "4",
        "type": "t_bool"
      },
      {
        "astId": 20162,
        "contract": "src/contracts/acl/AccessControlManager.sol:AccessControlManager",
        "label": "_isUpgradable",
        "offset": 1,
        "slot": "4",
        "type": "t_bool"
      },
      {
        "astId": 20167,
        "contract": "src/contracts/acl/AccessControlManager.sol:AccessControlManager",
        "label": "__gap",
        "offset": 0,
        "slot": "5",
        "type": "t_array(t_uint256)64_storage"
      },
      {
        "astId": 9470,
        "contract": "src/contracts/acl/AccessControlManager.sol:AccessControlManager",
        "label": "_dataMaps",
        "offset": 0,
        "slot": "69",
        "type": "t_struct(DataMaps)9467_storage"
      },
      {
        "astId": 20340,
        "contract": "src/contracts/acl/AccessControlManager.sol:AccessControlManager",
        "label": "_initialized",
        "offset": 0,
        "slot": "74",
        "type": "t_uint16"
      },
      {
        "astId": 20343,
        "contract": "src/contracts/acl/AccessControlManager.sol:AccessControlManager",
        "label": "_initializing",
        "offset": 2,
        "slot": "74",
        "type": "t_bool"
      }
    ],
    "types": {
      "t_address": {
        "encoding": "inplace",
        "label": "address",
        "numberOfBytes": "20"
      },
      "t_array(t_bytes32)dyn_storage": {
        "base": "t_bytes32",
        "encoding": "dynamic_array",
        "label": "bytes32[]",
        "numberOfBytes": "32"
      },
      "t_array(t_uint256)64_storage": {
        "base": "t_uint256",
        "encoding": "inplace",
        "label": "uint256[64]",
        "numberOfBytes": "2048"
      },
      "t_bool": {
        "encoding": "inplace",
        "label": "bool",
        "numberOfBytes": "1"
      },
      "t_bytes32": {
        "encoding": "inplace",
        "label": "bytes32",
        "numberOfBytes": "32"
      },
      "t_bytes4": {
        "encoding": "inplace",
        "label": "bytes4",
        "numberOfBytes": "4"
      },
      "t_enum(Status)9390": {
        "encoding": "inplace",
        "label": "enum AccessControlStorage.Status",
        "numberOfBytes": "1"
      },
      "t_mapping(t_address,t_mapping(t_bytes32,t_enum(Status)9390))": {
        "encoding": "mapping",
        "key": "t_address",
        "label": "mapping(address => mapping(bytes32 => enum AccessControlStorage.Status))",
        "numberOfBytes": "32",
        "value": "t_mapping(t_bytes32,t_enum(Status)9390)"
      },
      "t_mapping(t_bytes32,t_enum(Status)9390)": {
        "encoding": "mapping",
        "key": "t_bytes32",
        "label": "mapping(bytes32 => enum AccessControlStorage.Status)",
        "numberOfBytes": "32",
        "value": "t_enum(Status)9390"
      },
      "t_mapping(t_bytes32,t_struct(Context)9411_storage)": {
        "encoding": "mapping",
        "key": "t_bytes32",
        "label": "mapping(bytes32 => struct AccessControlStorage.Context)",
        "numberOfBytes": "32",
        "value": "t_struct(Context)9411_storage"
      },
      "t_mapping(t_bytes32,t_struct(Group)9439_storage)": {
        "encoding": "mapping",
        "key": "t_bytes32",
        "label": "mapping(bytes32 => struct AccessControlStorage.Group)",
        "numberOfBytes": "32",
        "value": "t_struct(Group)9439_storage"
      },
      "t_mapping(t_bytes32,t_struct(Realm)9431_storage)": {
        "encoding": "mapping",
        "key": "t_bytes32",
        "label": "mapping(bytes32 => struct AccessControlStorage.Realm)",
        "numberOfBytes": "32",
        "value": "t_struct(Realm)9431_storage"
      },
      "t_mapping(t_bytes32,t_struct(Role)9421_storage)": {
        "encoding": "mapping",
        "key": "t_bytes32",
        "label": "mapping(bytes32 => struct AccessControlStorage.Role)",
        "numberOfBytes": "32",
        "value": "t_struct(Role)9421_storage"
      },
      "t_mapping(t_bytes32,t_uint256)": {
        "encoding": "mapping",
        "key": "t_bytes32",
        "label": "mapping(bytes32 => uint256)",
        "numberOfBytes": "32",
        "value": "t_uint256"
      },
      "t_mapping(t_bytes4,t_struct(RoleStat)9396_storage)": {
        "encoding": "mapping",
        "key": "t_bytes4",
        "label": "mapping(bytes4 => struct AccessControlStorage.RoleStat)",
        "numberOfBytes": "32",
        "value": "t_struct(RoleStat)9396_storage"
      },
      "t_string_storage": {
        "encoding": "bytes",
        "label": "string",
        "numberOfBytes": "32"
      },
      "t_struct(AddressSet)17576_storage": {
        "encoding": "inplace",
        "label": "struct LEnumerableSet.AddressSet",
        "members": [
          {
            "astId": 17575,
            "contract": "src/contracts/acl/AccessControlManager.sol:AccessControlManager",
            "label": "_inner",
            "offset": 0,
            "slot": "0",
            "type": "t_struct(Set)17275_storage"
          }
        ],
        "numberOfBytes": "64"
      },
      "t_struct(Bytes32Set)17469_storage": {
        "encoding": "inplace",
        "label": "struct LEnumerableSet.Bytes32Set",
        "members": [
          {
            "astId": 17468,
            "contract": "src/contracts/acl/AccessControlManager.sol:AccessControlManager",
            "label": "_inner",
            "offset": 0,
            "slot": "0",
            "type": "t_struct(Set)17275_storage"
          }
        ],
        "numberOfBytes": "64"
      },
      "t_struct(Context)9411_storage": {
        "encoding": "inplace",
        "label": "struct AccessControlStorage.Context",
        "members": [
          {
            "astId": 9398,
            "contract": "src/contracts/acl/AccessControlManager.sol:AccessControlManager",
            "label": "realm",
            "offset": 0,
            "slot": "0",
            "type": "t_bytes32"
          },
          {
            "astId": 9400,
            "contract": "src/contracts/acl/AccessControlManager.sol:AccessControlManager",
            "label": "smca",
            "offset": 0,
            "slot": "1",
            "type": "t_address"
          },
          {
            "astId": 9402,
            "contract": "src/contracts/acl/AccessControlManager.sol:AccessControlManager",
            "label": "isEnabled",
            "offset": 20,
            "slot": "1",
            "type": "t_bool"
          },
          {
            "astId": 9407,
            "contract": "src/contracts/acl/AccessControlManager.sol:AccessControlManager",
            "label": "resources",
            "offset": 0,
            "slot": "2",
            "type": "t_mapping(t_bytes4,t_struct(RoleStat)9396_storage)"
          },
          {
            "astId": 9410,
            "contract": "src/contracts/acl/AccessControlManager.sol:AccessControlManager",
            "label": "funcSet",
            "offset": 0,
            "slot": "3",
            "type": "t_struct(Bytes32Set)17469_storage"
          }
        ],
        "numberOfBytes": "160"
      },
      "t_struct(DataMaps)9467_storage": {
        "encoding": "inplace",
        "label": "struct AccessControlStorage.DataMaps",
        "members": [
          {
            "astId": 9446,
            "contract": "src/contracts/acl/AccessControlManager.sol:AccessControlManager",
            "label": "accountMap",
            "offset": 0,
            "slot": "0",
            "type": "t_mapping(t_address,t_mapping(t_bytes32,t_enum(Status)9390))"
          },
          {
            "astId": 9451,
            "contract": "src/contracts/acl/AccessControlManager.sol:AccessControlManager",
            "label": "ctxMap",
            "offset": 0,
            "slot": "1",
            "type": "t_mapping(t_bytes32,t_struct(Context)9411_storage)"
          },
          {
            "astId": 9456,
            "contract": "src/contracts/acl/AccessControlManager.sol:AccessControlManager",
            "label": "roleMap",
            "offset": 0,
            "slot": "2",
            "type": "t_mapping(t_bytes32,t_struct(Role)9421_storage)"
          },
          {
            "astId": 9461,
            "contract": "src/contracts/acl/AccessControlManager.sol:AccessControlManager",
            "label": "realmMap",
            "offset": 0,
            "slot": "3",
            "type": "t_mapping(t_bytes32,t_struct(Realm)9431_storage)"
          },
          {
            "astId": 9466,
            "contract": "src/contracts/acl/AccessControlManager.sol:AccessControlManager",
            "label": "groupMap",
            "offset": 0,
            "slot": "4",
            "type": "t_mapping(t_bytes32,t_struct(Group)9439_storage)"
          }
        ],
        "numberOfBytes": "160"
      },
      "t_struct(Group)9439_storage": {
        "encoding": "inplace",
        "label": "struct AccessControlStorage.Group",
        "members": [
          {
            "astId": 9433,
            "contract": "src/contracts/acl/AccessControlManager.sol:AccessControlManager",
            "label": "name",
            "offset": 0,
            "slot": "0",
            "type": "t_string_storage"
          },
          {
            "astId": 9435,
            "contract": "src/contracts/acl/AccessControlManager.sol:AccessControlManager",
            "label": "isEnabled",
            "offset": 0,
            "slot": "1",
            "type": "t_bool"
          },
          {
            "astId": 9438,
            "contract": "src/contracts/acl/AccessControlManager.sol:AccessControlManager",
            "label": "roleSet",
            "offset": 0,
            "slot": "2",
            "type": "t_struct(Bytes32Set)17469_storage"
          }
        ],
        "numberOfBytes": "128"
      },
      "t_struct(Realm)9431_storage": {
        "encoding": "inplace",
        "label": "struct AccessControlStorage.Realm",
        "members": [
          {
            "astId": 9423,
            "contract": "src/contracts/acl/AccessControlManager.sol:AccessControlManager",
            "label": "name",
            "offset": 0,
            "slot": "0",
            "type": "t_string_storage"
          },
          {
            "astId": 9425,
            "contract": "src/contracts/acl/AccessControlManager.sol:AccessControlManager",
            "label": "isEnabled",
            "offset": 0,
            "slot": "1",
            "type": "t_bool"
          },
          {
            "astId": 9427,
            "contract": "src/contracts/acl/AccessControlManager.sol:AccessControlManager",
            "label": "isUpgradable",
            "offset": 1,
            "slot": "1",
            "type": "t_bool"
          },
          {
            "astId": 9430,
            "contract": "src/contracts/acl/AccessControlManager.sol:AccessControlManager",
            "label": "ctxSet",
            "offset": 0,
            "slot": "2",
            "type": "t_struct(Bytes32Set)17469_storage"
          }
        ],
        "numberOfBytes": "128"
      },
      "t_struct(Role)9421_storage": {
        "encoding": "inplace",
        "label": "struct AccessControlStorage.Role",
        "members": [
          {
            "astId": 9413,
            "contract": "src/contracts/acl/AccessControlManager.sol:AccessControlManager",
            "label": "name",
            "offset": 0,
            "slot": "0",
            "type": "t_string_storage"
          },
          {
            "astId": 9415,
            "contract": "src/contracts/acl/AccessControlManager.sol:AccessControlManager",
            "label": "group",
            "offset": 0,
            "slot": "1",
            "type": "t_bytes32"
          },
          {
            "astId": 9417,
            "contract": "src/contracts/acl/AccessControlManager.sol:AccessControlManager",
            "label": "isEnabled",
            "offset": 0,
            "slot": "2",
            "type": "t_bool"
          },
          {
            "astId": 9420,
            "contract": "src/contracts/acl/AccessControlManager.sol:AccessControlManager",
            "label": "accountSet",
            "offset": 0,
            "slot": "3",
            "type": "t_struct(AddressSet)17576_storage"
          }
        ],
        "numberOfBytes": "160"
      },
      "t_struct(RoleStat)9396_storage": {
        "encoding": "inplace",
        "label": "struct AccessControlStorage.RoleStat",
        "members": [
          {
            "astId": 9392,
            "contract": "src/contracts/acl/AccessControlManager.sol:AccessControlManager",
            "label": "role",
            "offset": 0,
            "slot": "0",
            "type": "t_bytes32"
          },
          {
            "astId": 9395,
            "contract": "src/contracts/acl/AccessControlManager.sol:AccessControlManager",
            "label": "status",
            "offset": 0,
            "slot": "1",
            "type": "t_enum(Status)9390"
          }
        ],
        "numberOfBytes": "64"
      },
      "t_struct(Set)17275_storage": {
        "encoding": "inplace",
        "label": "struct LEnumerableSet.Set",
        "members": [
          {
            "astId": 17270,
            "contract": "src/contracts/acl/AccessControlManager.sol:AccessControlManager",
            "label": "_values",
            "offset": 0,
            "slot": "0",
            "type": "t_array(t_bytes32)dyn_storage"
          },
          {
            "astId": 17274,
            "contract": "src/contracts/acl/AccessControlManager.sol:AccessControlManager",
            "label": "_indexes",
            "offset": 0,
            "slot": "1",
            "type": "t_mapping(t_bytes32,t_uint256)"
          }
        ],
        "numberOfBytes": "64"
      },
      "t_uint16": {
        "encoding": "inplace",
        "label": "uint16",
        "numberOfBytes": "2"
      },
      "t_uint256": {
        "encoding": "inplace",
        "label": "uint256",
        "numberOfBytes": "32"
      }
    }
  },
  "userdoc": {
    "kind": "user",
    "methods": {},
    "version": 1
  }
}