{
  "contractName": "AccessControlManager",
  "sourceName": "src/contracts/acl/AccessControlManager.sol",
  "abi": [
    {
      "inputs": [],
      "stateMutability": "nonpayable",
      "type": "constructor"
    },
    {
      "anonymous": false,
      "inputs": [
        {
          "indexed": true,
          "internalType": "bytes32",
          "name": "context",
          "type": "bytes32"
        },
        {
          "indexed": true,
          "internalType": "address",
          "name": "sender",
          "type": "address"
        },
        {
          "indexed": false,
          "internalType": "bytes4",
          "name": "functionSelector",
          "type": "bytes4"
        },
        {
          "indexed": false,
          "internalType": "bytes32",
          "name": "realm",
          "type": "bytes32"
        }
      ],
      "name": "ContextFuncRemoved",
      "type": "event"
    },
    {
      "anonymous": false,
      "inputs": [
        {
          "indexed": true,
          "internalType": "bytes32",
          "name": "context",
          "type": "bytes32"
        },
        {
          "indexed": true,
          "internalType": "bytes32",
          "name": "role",
          "type": "bytes32"
        },
        {
          "indexed": true,
          "internalType": "address",
          "name": "sender",
          "type": "address"
        },
        {
          "indexed": false,
          "internalType": "bytes4",
          "name": "functionSelector",
          "type": "bytes4"
        },
        {
          "indexed": false,
          "internalType": "bytes32",
          "name": "realm",
          "type": "bytes32"
        }
      ],
      "name": "ContextFuncRoleAdded",
      "type": "event"
    },
    {
      "anonymous": false,
      "inputs": [
        {
          "indexed": true,
          "internalType": "bytes32",
          "name": "context",
          "type": "bytes32"
        },
        {
          "indexed": true,
          "internalType": "address",
          "name": "sender",
          "type": "address"
        },
        {
          "indexed": true,
          "internalType": "bytes32",
          "name": "realm",
          "type": "bytes32"
        },
        {
          "indexed": false,
          "internalType": "bytes32",
          "name": "oldRealm",
          "type": "bytes32"
        }
      ],
      "name": "ContextRealmChanged",
      "type": "event"
    },
    {
      "anonymous": false,
      "inputs": [
        {
          "indexed": true,
          "internalType": "bytes32",
          "name": "context",
          "type": "bytes32"
        },
        {
          "indexed": true,
          "internalType": "address",
          "name": "contractId",
          "type": "address"
        },
        {
          "indexed": true,
          "internalType": "address",
          "name": "sender",
          "type": "address"
        },
        {
          "indexed": false,
          "internalType": "address",
          "name": "signer",
          "type": "address"
        },
        {
          "indexed": false,
          "internalType": "bytes32",
          "name": "realm",
          "type": "bytes32"
        }
      ],
      "name": "ContextRegistered",
      "type": "event"
    },
    {
      "anonymous": false,
      "inputs": [
        {
          "indexed": true,
          "internalType": "bytes32",
          "name": "context",
          "type": "bytes32"
        },
        {
          "indexed": true,
          "internalType": "bytes32",
          "name": "role",
          "type": "bytes32"
        },
        {
          "indexed": true,
          "internalType": "address",
          "name": "sender",
          "type": "address"
        },
        {
          "indexed": false,
          "internalType": "bytes4",
          "name": "functionSelector",
          "type": "bytes4"
        },
        {
          "indexed": false,
          "internalType": "bytes32",
          "name": "realm",
          "type": "bytes32"
        }
      ],
      "name": "ContextRoleGranted",
      "type": "event"
    },
    {
      "anonymous": false,
      "inputs": [
        {
          "indexed": true,
          "internalType": "bytes32",
          "name": "context",
          "type": "bytes32"
        },
        {
          "indexed": true,
          "internalType": "bytes32",
          "name": "role",
          "type": "bytes32"
        },
        {
          "indexed": true,
          "internalType": "address",
          "name": "sender",
          "type": "address"
        },
        {
          "indexed": false,
          "internalType": "bytes4",
          "name": "functionSelector",
          "type": "bytes4"
        },
        {
          "indexed": false,
          "internalType": "bytes32",
          "name": "realm",
          "type": "bytes32"
        }
      ],
      "name": "ContextRoleRevoked",
      "type": "event"
    },
    {
      "anonymous": false,
      "inputs": [
        {
          "indexed": true,
          "internalType": "bytes32",
          "name": "context",
          "type": "bytes32"
        },
        {
          "indexed": true,
          "internalType": "address",
          "name": "sender",
          "type": "address"
        },
        {
          "indexed": true,
          "internalType": "bytes32",
          "name": "realm",
          "type": "bytes32"
        },
        {
          "indexed": false,
          "internalType": "bool",
          "name": "status",
          "type": "bool"
        }
      ],
      "name": "ContextStatusChanged",
      "type": "event"
    },
    {
      "anonymous": false,
      "inputs": [
        {
          "indexed": true,
          "internalType": "bytes32",
          "name": "context",
          "type": "bytes32"
        },
        {
          "indexed": true,
          "internalType": "address",
          "name": "contractId",
          "type": "address"
        },
        {
          "indexed": true,
          "internalType": "address",
          "name": "sender",
          "type": "address"
        },
        {
          "indexed": false,
          "internalType": "bytes32",
          "name": "realm",
          "type": "bytes32"
        }
      ],
      "name": "ContextUpdated",
      "type": "event"
    },
    {
      "anonymous": false,
      "inputs": [
        {
          "indexed": true,
          "internalType": "bytes32",
          "name": "group",
          "type": "bytes32"
        },
        {
          "indexed": true,
          "internalType": "address",
          "name": "sender",
          "type": "address"
        },
        {
          "indexed": false,
          "internalType": "string",
          "name": "name",
          "type": "string"
        },
        {
          "indexed": false,
          "internalType": "bool",
          "name": "status",
          "type": "bool"
        }
      ],
      "name": "GroupRegistered",
      "type": "event"
    },
    {
      "anonymous": false,
      "inputs": [
        {
          "indexed": true,
          "internalType": "bytes32",
          "name": "group",
          "type": "bytes32"
        },
        {
          "indexed": true,
          "internalType": "address",
          "name": "sender",
          "type": "address"
        },
        {
          "indexed": false,
          "internalType": "bool",
          "name": "status",
          "type": "bool"
        }
      ],
      "name": "GroupStatusChanged",
      "type": "event"
    },
    {
      "anonymous": false,
      "inputs": [
        {
          "indexed": true,
          "internalType": "address",
          "name": "sender",
          "type": "address"
        },
        {
          "indexed": true,
          "internalType": "address",
          "name": "proxy",
          "type": "address"
        },
        {
          "indexed": true,
          "internalType": "address",
          "name": "subject",
          "type": "address"
        },
        {
          "indexed": false,
          "internalType": "string",
          "name": "name",
          "type": "string"
        },
        {
          "indexed": false,
          "internalType": "string",
          "name": "version",
          "type": "string"
        },
        {
          "indexed": false,
          "internalType": "bytes32",
          "name": "realm",
          "type": "bytes32"
        },
        {
          "indexed": false,
          "internalType": "uint16",
          "name": "initCount",
          "type": "uint16"
        }
      ],
      "name": "Initialized",
      "type": "event"
    },
    {
      "anonymous": false,
      "inputs": [
        {
          "indexed": true,
          "internalType": "address",
          "name": "sender",
          "type": "address"
        },
        {
          "indexed": true,
          "internalType": "address",
          "name": "proxy",
          "type": "address"
        },
        {
          "indexed": false,
          "internalType": "address",
          "name": "newAdmin",
          "type": "address"
        }
      ],
      "name": "LocalAdminChanged",
      "type": "event"
    },
    {
      "anonymous": false,
      "inputs": [
        {
          "indexed": true,
          "internalType": "bytes32",
          "name": "context",
          "type": "bytes32"
        },
        {
          "indexed": true,
          "internalType": "address",
          "name": "contractId",
          "type": "address"
        },
        {
          "indexed": true,
          "internalType": "address",
          "name": "sender",
          "type": "address"
        },
        {
          "indexed": false,
          "internalType": "address",
          "name": "signer",
          "type": "address"
        },
        {
          "indexed": false,
          "internalType": "address",
          "name": "deployer",
          "type": "address"
        },
        {
          "indexed": false,
          "internalType": "address",
          "name": "subject",
          "type": "address"
        },
        {
          "indexed": false,
          "internalType": "bytes32",
          "name": "realm",
          "type": "bytes32"
        }
      ],
      "name": "PredictContextRegistered",
      "type": "event"
    },
    {
      "anonymous": false,
      "inputs": [
        {
          "indexed": true,
          "internalType": "bytes32",
          "name": "realm",
          "type": "bytes32"
        },
        {
          "indexed": true,
          "internalType": "address",
          "name": "sender",
          "type": "address"
        },
        {
          "indexed": false,
          "internalType": "string",
          "name": "name",
          "type": "string"
        },
        {
          "indexed": false,
          "internalType": "bool",
          "name": "status",
          "type": "bool"
        },
        {
          "indexed": false,
          "internalType": "bool",
          "name": "isUpgradable",
          "type": "bool"
        }
      ],
      "name": "RealmRegistered",
      "type": "event"
    },
    {
      "anonymous": false,
      "inputs": [
        {
          "indexed": true,
          "internalType": "bytes32",
          "name": "realm",
          "type": "bytes32"
        },
        {
          "indexed": true,
          "internalType": "address",
          "name": "sender",
          "type": "address"
        },
        {
          "indexed": false,
          "internalType": "bool",
          "name": "status",
          "type": "bool"
        }
      ],
      "name": "RealmStatusChanged",
      "type": "event"
    },
    {
      "anonymous": false,
      "inputs": [
        {
          "indexed": true,
          "internalType": "bytes32",
          "name": "realm",
          "type": "bytes32"
        },
        {
          "indexed": true,
          "internalType": "address",
          "name": "sender",
          "type": "address"
        },
        {
          "indexed": false,
          "internalType": "bool",
          "name": "status",
          "type": "bool"
        }
      ],
      "name": "RealmUpgradeStatusChanged",
      "type": "event"
    },
    {
      "anonymous": false,
      "inputs": [
        {
          "indexed": true,
          "internalType": "address",
          "name": "sender",
          "type": "address"
        },
        {
          "indexed": true,
          "internalType": "bytes32",
          "name": "role",
          "type": "bytes32"
        },
        {
          "indexed": true,
          "internalType": "address",
          "name": "account",
          "type": "address"
        }
      ],
      "name": "RoleAccountGranted",
      "type": "event"
    },
    {
      "anonymous": false,
      "inputs": [
        {
          "indexed": true,
          "internalType": "address",
          "name": "sender",
          "type": "address"
        },
        {
          "indexed": true,
          "internalType": "bytes32",
          "name": "role",
          "type": "bytes32"
        },
        {
          "indexed": true,
          "internalType": "address",
          "name": "account",
          "type": "address"
        }
      ],
      "name": "RoleAccountRevoked",
      "type": "event"
    },
    {
      "anonymous": false,
      "inputs": [
        {
          "indexed": true,
          "internalType": "address",
          "name": "sender",
          "type": "address"
        },
        {
          "indexed": true,
          "internalType": "bytes32",
          "name": "role",
          "type": "bytes32"
        },
        {
          "indexed": true,
          "internalType": "bytes32",
          "name": "newGroup",
          "type": "bytes32"
        },
        {
          "indexed": false,
          "internalType": "bytes32",
          "name": "oldGroup",
          "type": "bytes32"
        }
      ],
      "name": "RoleGroupChanged",
      "type": "event"
    },
    {
      "anonymous": false,
      "inputs": [
        {
          "indexed": true,
          "internalType": "address",
          "name": "sender",
          "type": "address"
        },
        {
          "indexed": true,
          "internalType": "bytes32",
          "name": "role",
          "type": "bytes32"
        },
        {
          "indexed": true,
          "internalType": "string",
          "name": "name",
          "type": "string"
        },
        {
          "indexed": false,
          "internalType": "bytes32",
          "name": "group",
          "type": "bytes32"
        },
        {
          "indexed": false,
          "internalType": "bool",
          "name": "isEnabled",
          "type": "bool"
        }
      ],
      "name": "RoleRegistered",
      "type": "event"
    },
    {
      "anonymous": false,
      "inputs": [
        {
          "indexed": true,
          "internalType": "address",
          "name": "sender",
          "type": "address"
        },
        {
          "indexed": true,
          "internalType": "bytes32",
          "name": "role",
          "type": "bytes32"
        },
        {
          "indexed": true,
          "internalType": "bytes32",
          "name": "group",
          "type": "bytes32"
        },
        {
          "indexed": false,
          "internalType": "bool",
          "name": "status",
          "type": "bool"
        }
      ],
      "name": "RoleStatusChanged",
      "type": "event"
    },
    {
      "anonymous": false,
      "inputs": [
        {
          "indexed": true,
          "internalType": "address",
          "name": "sender",
          "type": "address"
        },
        {
          "indexed": true,
          "internalType": "address",
          "name": "proxy",
          "type": "address"
        },
        {
          "indexed": true,
          "internalType": "bytes32",
          "name": "realm",
          "type": "bytes32"
        },
        {
          "indexed": false,
          "internalType": "bool",
          "name": "status",
          "type": "bool"
        }
      ],
      "name": "SafeModeChanged",
      "type": "event"
    },
    {
      "anonymous": false,
      "inputs": [
        {
          "indexed": true,
          "internalType": "address",
          "name": "sender",
          "type": "address"
        },
        {
          "indexed": true,
          "internalType": "address",
          "name": "proxy",
          "type": "address"
        },
        {
          "indexed": true,
          "internalType": "bytes32",
          "name": "realm",
          "type": "bytes32"
        },
        {
          "indexed": false,
          "internalType": "bool",
          "name": "status",
          "type": "bool"
        }
      ],
      "name": "UpgradeStatusChanged",
      "type": "event"
    },
    {
      "anonymous": false,
      "inputs": [
        {
          "indexed": true,
          "internalType": "address",
          "name": "sender",
          "type": "address"
        },
        {
          "indexed": true,
          "internalType": "address",
          "name": "proxy",
          "type": "address"
        },
        {
          "indexed": true,
          "internalType": "address",
          "name": "newImplementation",
          "type": "address"
        }
      ],
      "name": "Upgraded",
      "type": "event"
    },
    {
      "stateMutability": "payable",
      "type": "fallback"
    },
    {
      "inputs": [],
      "name": "accessControlManager",
      "outputs": [
        {
          "internalType": "address",
          "name": "",
          "type": "address"
        }
      ],
      "stateMutability": "view",
      "type": "function"
    },
    {
      "inputs": [
        {
          "internalType": "bytes32",
          "name": "ctx",
          "type": "bytes32"
        },
        {
          "internalType": "bytes4",
          "name": "functionSelector",
          "type": "bytes4"
        },
        {
          "internalType": "bytes32",
          "name": "role",
          "type": "bytes32"
        }
      ],
      "name": "addContextFuncRole",
      "outputs": [
        {
          "internalType": "bool",
          "name": "",
          "type": "bool"
        }
      ],
      "stateMutability": "nonpayable",
      "type": "function"
    },
    {
      "inputs": [
        {
          "components": [
            {
              "internalType": "bytes32",
              "name": "role",
              "type": "bytes32"
            },
            {
              "internalType": "address",
              "name": "account",
              "type": "address"
            }
          ],
          "internalType": "struct IRoleManagement.UpdateRoleRequest[]",
          "name": "requests",
          "type": "tuple[]"
        }
      ],
      "name": "batchGrantRoleAccount",
      "outputs": [
        {
          "internalType": "bool",
          "name": "",
          "type": "bool"
        }
      ],
      "stateMutability": "nonpayable",
      "type": "function"
    },
    {
      "inputs": [
        {
          "components": [
            {
              "internalType": "bytes32",
              "name": "group",
              "type": "bytes32"
            },
            {
              "internalType": "string",
              "name": "name",
              "type": "string"
            },
            {
              "internalType": "bool",
              "name": "status",
              "type": "bool"
            }
          ],
          "internalType": "struct IRoleManagement.RegiterRoleRequest[]",
          "name": "requests",
          "type": "tuple[]"
        }
      ],
      "name": "batchRegisterRole",
      "outputs": [
        {
          "internalType": "bytes32[]",
          "name": "",
          "type": "bytes32[]"
        }
      ],
      "stateMutability": "nonpayable",
      "type": "function"
    },
    {
      "inputs": [
        {
          "components": [
            {
              "internalType": "bytes32",
              "name": "role",
              "type": "bytes32"
            },
            {
              "internalType": "address",
              "name": "account",
              "type": "address"
            }
          ],
          "internalType": "struct IRoleManagement.UpdateRoleRequest[]",
          "name": "requests",
          "type": "tuple[]"
        }
      ],
      "name": "batchRevokeRoleAccount",
      "outputs": [
        {
          "internalType": "bool",
          "name": "",
          "type": "bool"
        }
      ],
      "stateMutability": "nonpayable",
      "type": "function"
    },
    {
      "inputs": [],
      "name": "contractContext",
      "outputs": [
        {
          "internalType": "bytes32",
          "name": "",
          "type": "bytes32"
        }
      ],
      "stateMutability": "view",
      "type": "function"
    },
    {
      "inputs": [],
      "name": "contractName",
      "outputs": [
        {
          "internalType": "bytes32",
          "name": "",
          "type": "bytes32"
        }
      ],
      "stateMutability": "view",
      "type": "function"
    },
    {
      "inputs": [],
      "name": "contractRealm",
      "outputs": [
        {
          "internalType": "bytes32",
          "name": "",
          "type": "bytes32"
        }
      ],
      "stateMutability": "view",
      "type": "function"
    },
    {
      "inputs": [],
      "name": "contractVersion",
      "outputs": [
        {
          "internalType": "bytes32",
          "name": "",
          "type": "bytes32"
        }
      ],
      "stateMutability": "view",
      "type": "function"
    },
    {
      "inputs": [],
      "name": "domainSeparator",
      "outputs": [
        {
          "internalType": "bytes32",
          "name": "",
          "type": "bytes32"
        }
      ],
      "stateMutability": "view",
      "type": "function"
    },
    {
      "inputs": [
        {
          "internalType": "bytes32",
          "name": "ctx",
          "type": "bytes32"
        }
      ],
      "name": "getContextFuncs",
      "outputs": [
        {
          "internalType": "bytes4[]",
          "name": "",
          "type": "bytes4[]"
        }
      ],
      "stateMutability": "view",
      "type": "function"
    },
    {
      "inputs": [
        {
          "internalType": "bytes32",
          "name": "ctx",
          "type": "bytes32"
        }
      ],
      "name": "getContextInfo",
      "outputs": [
        {
          "components": [
            {
              "internalType": "bytes32",
              "name": "name",
              "type": "bytes32"
            },
            {
              "internalType": "bytes32",
              "name": "version",
              "type": "bytes32"
            },
            {
              "internalType": "bytes32",
              "name": "realm",
              "type": "bytes32"
            },
            {
              "internalType": "address",
              "name": "contractId",
              "type": "address"
            },
            {
              "internalType": "bool",
              "name": "isSafeMode",
              "type": "bool"
            },
            {
              "internalType": "bool",
              "name": "isUpgradable",
              "type": "bool"
            }
          ],
          "internalType": "struct IContextManagement.ResponseContext",
          "name": "",
          "type": "tuple"
        }
      ],
      "stateMutability": "view",
      "type": "function"
    },
    {
      "inputs": [
        {
          "internalType": "bytes32",
          "name": "group",
          "type": "bytes32"
        }
      ],
      "name": "getGroupInfo",
      "outputs": [
        {
          "internalType": "string",
          "name": "",
          "type": "string"
        },
        {
          "internalType": "bool",
          "name": "",
          "type": "bool"
        }
      ],
      "stateMutability": "view",
      "type": "function"
    },
    {
      "inputs": [
        {
          "internalType": "bytes32",
          "name": "group",
          "type": "bytes32"
        }
      ],
      "name": "getGroupRoles",
      "outputs": [
        {
          "internalType": "bytes32[]",
          "name": "",
          "type": "bytes32[]"
        }
      ],
      "stateMutability": "view",
      "type": "function"
    },
    {
      "inputs": [],
      "name": "getLibraries",
      "outputs": [
        {
          "internalType": "address[]",
          "name": "",
          "type": "address[]"
        }
      ],
      "stateMutability": "pure",
      "type": "function"
    },
    {
      "inputs": [
        {
          "internalType": "bytes32",
          "name": "realm",
          "type": "bytes32"
        }
      ],
      "name": "getRealmContexts",
      "outputs": [
        {
          "internalType": "bytes32[]",
          "name": "",
          "type": "bytes32[]"
        }
      ],
      "stateMutability": "view",
      "type": "function"
    },
    {
      "inputs": [
        {
          "internalType": "bytes32",
          "name": "realm",
          "type": "bytes32"
        }
      ],
      "name": "getRealmInfo",
      "outputs": [
        {
          "internalType": "string",
          "name": "",
          "type": "string"
        },
        {
          "internalType": "bool",
          "name": "",
          "type": "bool"
        },
        {
          "internalType": "bool",
          "name": "",
          "type": "bool"
        }
      ],
      "stateMutability": "view",
      "type": "function"
    },
    {
      "inputs": [
        {
          "internalType": "bytes32",
          "name": "role",
          "type": "bytes32"
        }
      ],
      "name": "getRoleAccounts",
      "outputs": [
        {
          "internalType": "address[]",
          "name": "",
          "type": "address[]"
        }
      ],
      "stateMutability": "view",
      "type": "function"
    },
    {
      "inputs": [
        {
          "internalType": "bytes32",
          "name": "role",
          "type": "bytes32"
        }
      ],
      "name": "getRoleInfo",
      "outputs": [
        {
          "internalType": "string",
          "name": "",
          "type": "string"
        },
        {
          "internalType": "bytes32",
          "name": "",
          "type": "bytes32"
        },
        {
          "internalType": "bool",
          "name": "",
          "type": "bool"
        }
      ],
      "stateMutability": "view",
      "type": "function"
    },
    {
      "inputs": [
        {
          "internalType": "bytes32",
          "name": "ctx",
          "type": "bytes32"
        },
        {
          "internalType": "bytes4",
          "name": "functionSelector",
          "type": "bytes4"
        },
        {
          "internalType": "bytes32",
          "name": "role",
          "type": "bytes32"
        }
      ],
      "name": "grantContextRole",
      "outputs": [
        {
          "internalType": "bool",
          "name": "",
          "type": "bool"
        }
      ],
      "stateMutability": "nonpayable",
      "type": "function"
    },
    {
      "inputs": [
        {
          "internalType": "bytes32",
          "name": "role",
          "type": "bytes32"
        },
        {
          "internalType": "address",
          "name": "account",
          "type": "address"
        }
      ],
      "name": "grantRoleAccount",
      "outputs": [
        {
          "internalType": "bool",
          "name": "",
          "type": "bool"
        }
      ],
      "stateMutability": "nonpayable",
      "type": "function"
    },
    {
      "inputs": [
        {
          "internalType": "bytes32",
          "name": "context",
          "type": "bytes32"
        },
        {
          "internalType": "address",
          "name": "account",
          "type": "address"
        },
        {
          "internalType": "bytes4",
          "name": "signature",
          "type": "bytes4"
        }
      ],
      "name": "hasAccess",
      "outputs": [
        {
          "internalType": "bool",
          "name": "",
          "type": "bool"
        }
      ],
      "stateMutability": "view",
      "type": "function"
    },
    {
      "inputs": [
        {
          "internalType": "bytes32",
          "name": "ctx",
          "type": "bytes32"
        },
        {
          "internalType": "bytes32",
          "name": "role",
          "type": "bytes32"
        },
        {
          "internalType": "bytes4",
          "name": "functionSelector",
          "type": "bytes4"
        }
      ],
      "name": "hasContextRole",
      "outputs": [
        {
          "internalType": "bool",
          "name": "",
          "type": "bool"
        }
      ],
      "stateMutability": "view",
      "type": "function"
    },
    {
      "inputs": [
        {
          "internalType": "bytes32",
          "name": "group",
          "type": "bytes32"
        },
        {
          "internalType": "bytes32",
          "name": "role",
          "type": "bytes32"
        }
      ],
      "name": "hasGroupRole",
      "outputs": [
        {
          "internalType": "bool",
          "name": "",
          "type": "bool"
        }
      ],
      "stateMutability": "view",
      "type": "function"
    },
    {
      "inputs": [
        {
          "internalType": "bytes32",
          "name": "realm",
          "type": "bytes32"
        },
        {
          "internalType": "bytes32",
          "name": "context",
          "type": "bytes32"
        }
      ],
      "name": "hasRealmContext",
      "outputs": [
        {
          "internalType": "bool",
          "name": "",
          "type": "bool"
        }
      ],
      "stateMutability": "view",
      "type": "function"
    },
    {
      "inputs": [
        {
          "internalType": "bytes32",
          "name": "role",
          "type": "bytes32"
        },
        {
          "internalType": "address",
          "name": "account",
          "type": "address"
        }
      ],
      "name": "hasRoleAccount",
      "outputs": [
        {
          "internalType": "bool",
          "name": "",
          "type": "bool"
        }
      ],
      "stateMutability": "view",
      "type": "function"
    },
    {
      "inputs": [],
      "name": "initVersion",
      "outputs": [
        {
          "internalType": "uint16",
          "name": "",
          "type": "uint16"
        }
      ],
      "stateMutability": "view",
      "type": "function"
    },
    {
      "inputs": [
        {
          "internalType": "string",
          "name": "domainName",
          "type": "string"
        },
        {
          "internalType": "string",
          "name": "domainVersion",
          "type": "string"
        },
        {
          "internalType": "string",
          "name": "domainRealm",
          "type": "string"
        },
        {
          "internalType": "address",
          "name": "accessControlManager",
          "type": "address"
        }
      ],
      "name": "initialize",
      "outputs": [],
      "stateMutability": "nonpayable",
      "type": "function"
    },
    {
      "inputs": [
        {
          "internalType": "bytes32",
          "name": "context",
          "type": "bytes32"
        }
      ],
      "name": "isContextEnabled",
      "outputs": [
        {
          "internalType": "bool",
          "name": "",
          "type": "bool"
        }
      ],
      "stateMutability": "view",
      "type": "function"
    },
    {
      "inputs": [
        {
          "internalType": "bytes32",
          "name": "context",
          "type": "bytes32"
        }
      ],
      "name": "isContextExists",
      "outputs": [
        {
          "internalType": "bool",
          "name": "",
          "type": "bool"
        }
      ],
      "stateMutability": "view",
      "type": "function"
    },
    {
      "inputs": [
        {
          "internalType": "bytes32",
          "name": "context",
          "type": "bytes32"
        },
        {
          "internalType": "bytes4",
          "name": "functionSelector",
          "type": "bytes4"
        }
      ],
      "name": "isContextFunctionEnabled",
      "outputs": [
        {
          "internalType": "bool",
          "name": "",
          "type": "bool"
        }
      ],
      "stateMutability": "view",
      "type": "function"
    },
    {
      "inputs": [
        {
          "internalType": "bytes32",
          "name": "context",
          "type": "bytes32"
        },
        {
          "internalType": "bytes4",
          "name": "functionSelector",
          "type": "bytes4"
        }
      ],
      "name": "isContextFunctionExists",
      "outputs": [
        {
          "internalType": "bool",
          "name": "",
          "type": "bool"
        }
      ],
      "stateMutability": "view",
      "type": "function"
    },
    {
      "inputs": [
        {
          "internalType": "bytes32",
          "name": "context",
          "type": "bytes32"
        }
      ],
      "name": "isContextSafeMode",
      "outputs": [
        {
          "internalType": "bool",
          "name": "",
          "type": "bool"
        }
      ],
      "stateMutability": "view",
      "type": "function"
    },
    {
      "inputs": [
        {
          "internalType": "bytes32",
          "name": "context",
          "type": "bytes32"
        }
      ],
      "name": "isContextUpgradable",
      "outputs": [
        {
          "internalType": "bool",
          "name": "",
          "type": "bool"
        }
      ],
      "stateMutability": "view",
      "type": "function"
    },
    {
      "inputs": [
        {
          "internalType": "bytes32",
          "name": "group",
          "type": "bytes32"
        }
      ],
      "name": "isGroupEnabled",
      "outputs": [
        {
          "internalType": "bool",
          "name": "",
          "type": "bool"
        }
      ],
      "stateMutability": "view",
      "type": "function"
    },
    {
      "inputs": [
        {
          "internalType": "bytes32",
          "name": "group",
          "type": "bytes32"
        }
      ],
      "name": "isGroupExists",
      "outputs": [
        {
          "internalType": "bool",
          "name": "",
          "type": "bool"
        }
      ],
      "stateMutability": "view",
      "type": "function"
    },
    {
      "inputs": [
        {
          "internalType": "address",
          "name": "account",
          "type": "address"
        }
      ],
      "name": "isLivelyAdminRole",
      "outputs": [
        {
          "internalType": "bool",
          "name": "",
          "type": "bool"
        }
      ],
      "stateMutability": "view",
      "type": "function"
    },
    {
      "inputs": [
        {
          "internalType": "address",
          "name": "account",
          "type": "address"
        }
      ],
      "name": "isLivelyAssetAdminRole",
      "outputs": [
        {
          "internalType": "bool",
          "name": "",
          "type": "bool"
        }
      ],
      "stateMutability": "view",
      "type": "function"
    },
    {
      "inputs": [
        {
          "internalType": "bytes32",
          "name": "role",
          "type": "bytes32"
        }
      ],
      "name": "isLivelyAssetGroup",
      "outputs": [
        {
          "internalType": "bool",
          "name": "",
          "type": "bool"
        }
      ],
      "stateMutability": "view",
      "type": "function"
    },
    {
      "inputs": [
        {
          "internalType": "address",
          "name": "account",
          "type": "address"
        }
      ],
      "name": "isLivelyAssetManagerRole",
      "outputs": [
        {
          "internalType": "bool",
          "name": "",
          "type": "bool"
        }
      ],
      "stateMutability": "view",
      "type": "function"
    },
    {
      "inputs": [
        {
          "internalType": "bytes32",
          "name": "context",
          "type": "bytes32"
        }
      ],
      "name": "isLivelyAssetRealm",
      "outputs": [
        {
          "internalType": "bool",
          "name": "",
          "type": "bool"
        }
      ],
      "stateMutability": "view",
      "type": "function"
    },
    {
      "inputs": [
        {
          "internalType": "address",
          "name": "account",
          "type": "address"
        }
      ],
      "name": "isLivelyCommunityDaoExecutorRole",
      "outputs": [
        {
          "internalType": "bool",
          "name": "",
          "type": "bool"
        }
      ],
      "stateMutability": "view",
      "type": "function"
    },
    {
      "inputs": [
        {
          "internalType": "address",
          "name": "account",
          "type": "address"
        }
      ],
      "name": "isLivelyCommunityDaoRole",
      "outputs": [
        {
          "internalType": "bool",
          "name": "",
          "type": "bool"
        }
      ],
      "stateMutability": "view",
      "type": "function"
    },
    {
      "inputs": [
        {
          "internalType": "bytes32",
          "name": "role",
          "type": "bytes32"
        }
      ],
      "name": "isLivelyDaoGroup",
      "outputs": [
        {
          "internalType": "bool",
          "name": "",
          "type": "bool"
        }
      ],
      "stateMutability": "view",
      "type": "function"
    },
    {
      "inputs": [
        {
          "internalType": "bytes32",
          "name": "role",
          "type": "bytes32"
        }
      ],
      "name": "isLivelyGeneralGroup",
      "outputs": [
        {
          "internalType": "bool",
          "name": "",
          "type": "bool"
        }
      ],
      "stateMutability": "view",
      "type": "function"
    },
    {
      "inputs": [
        {
          "internalType": "bytes32",
          "name": "context",
          "type": "bytes32"
        }
      ],
      "name": "isLivelyGeneralRealm",
      "outputs": [
        {
          "internalType": "bool",
          "name": "",
          "type": "bool"
        }
      ],
      "stateMutability": "view",
      "type": "function"
    },
    {
      "inputs": [
        {
          "internalType": "address",
          "name": "account",
          "type": "address"
        }
      ],
      "name": "isLivelySystemAdminRole",
      "outputs": [
        {
          "internalType": "bool",
          "name": "",
          "type": "bool"
        }
      ],
      "stateMutability": "view",
      "type": "function"
    },
    {
      "inputs": [
        {
          "internalType": "bytes32",
          "name": "realm",
          "type": "bytes32"
        }
      ],
      "name": "isRealmEnabled",
      "outputs": [
        {
          "internalType": "bool",
          "name": "",
          "type": "bool"
        }
      ],
      "stateMutability": "view",
      "type": "function"
    },
    {
      "inputs": [
        {
          "internalType": "bytes32",
          "name": "realm",
          "type": "bytes32"
        }
      ],
      "name": "isRealmExists",
      "outputs": [
        {
          "internalType": "bool",
          "name": "",
          "type": "bool"
        }
      ],
      "stateMutability": "view",
      "type": "function"
    },
    {
      "inputs": [
        {
          "internalType": "bytes32",
          "name": "realm",
          "type": "bytes32"
        }
      ],
      "name": "isRealmUpgradable",
      "outputs": [
        {
          "internalType": "bool",
          "name": "",
          "type": "bool"
        }
      ],
      "stateMutability": "view",
      "type": "function"
    },
    {
      "inputs": [
        {
          "internalType": "bytes32",
          "name": "role",
          "type": "bytes32"
        }
      ],
      "name": "isRoleEnabled",
      "outputs": [
        {
          "internalType": "bool",
          "name": "",
          "type": "bool"
        }
      ],
      "stateMutability": "view",
      "type": "function"
    },
    {
      "inputs": [
        {
          "internalType": "bytes32",
          "name": "role",
          "type": "bytes32"
        }
      ],
      "name": "isRoleExists",
      "outputs": [
        {
          "internalType": "bool",
          "name": "",
          "type": "bool"
        }
      ],
      "stateMutability": "view",
      "type": "function"
    },
    {
      "inputs": [],
      "name": "isSafeMode",
      "outputs": [
        {
          "internalType": "bool",
          "name": "",
          "type": "bool"
        }
      ],
      "stateMutability": "view",
      "type": "function"
    },
    {
      "inputs": [],
      "name": "isUpgradable",
      "outputs": [
        {
          "internalType": "bool",
          "name": "",
          "type": "bool"
        }
      ],
      "stateMutability": "view",
      "type": "function"
    },
    {
      "inputs": [],
      "name": "localAdmin",
      "outputs": [
        {
          "internalType": "address",
          "name": "",
          "type": "address"
        }
      ],
      "stateMutability": "view",
      "type": "function"
    },
    {
      "inputs": [],
      "name": "proxiableUUID",
      "outputs": [
        {
          "internalType": "bytes32",
          "name": "",
          "type": "bytes32"
        }
      ],
      "stateMutability": "view",
      "type": "function"
    },
    {
      "inputs": [
        {
          "internalType": "bytes",
          "name": "signature",
          "type": "bytes"
        },
        {
          "components": [
            {
              "internalType": "bytes32",
              "name": "name",
              "type": "bytes32"
            },
            {
              "internalType": "bytes32",
              "name": "version",
              "type": "bytes32"
            },
            {
              "internalType": "bytes32",
              "name": "realm",
              "type": "bytes32"
            },
            {
              "internalType": "address",
              "name": "contractId",
              "type": "address"
            },
            {
              "internalType": "bool",
              "name": "status",
              "type": "bool"
            }
          ],
          "internalType": "struct IContextManagement.RequestContext",
          "name": "rc",
          "type": "tuple"
        },
        {
          "components": [
            {
              "internalType": "bytes32",
              "name": "role",
              "type": "bytes32"
            },
            {
              "internalType": "bytes4[]",
              "name": "funcSelectors",
              "type": "bytes4[]"
            },
            {
              "internalType": "bool",
              "name": "isEnabled",
              "type": "bool"
            }
          ],
          "internalType": "struct IContextManagement.RequestRegisterContext[]",
          "name": "rrc",
          "type": "tuple[]"
        }
      ],
      "name": "registerContext",
      "outputs": [
        {
          "internalType": "bytes32",
          "name": "",
          "type": "bytes32"
        }
      ],
      "stateMutability": "nonpayable",
      "type": "function"
    },
    {
      "inputs": [
        {
          "internalType": "string",
          "name": "name",
          "type": "string"
        },
        {
          "internalType": "bool",
          "name": "status",
          "type": "bool"
        }
      ],
      "name": "registerGroup",
      "outputs": [
        {
          "internalType": "bytes32",
          "name": "",
          "type": "bytes32"
        }
      ],
      "stateMutability": "nonpayable",
      "type": "function"
    },
    {
      "inputs": [
        {
          "internalType": "bytes",
          "name": "signature",
          "type": "bytes"
        },
        {
          "components": [
            {
              "internalType": "bytes32",
              "name": "name",
              "type": "bytes32"
            },
            {
              "internalType": "bytes32",
              "name": "version",
              "type": "bytes32"
            },
            {
              "internalType": "bytes32",
              "name": "realm",
              "type": "bytes32"
            },
            {
              "internalType": "bytes32",
              "name": "salt",
              "type": "bytes32"
            },
            {
              "internalType": "address",
              "name": "subject",
              "type": "address"
            },
            {
              "internalType": "address",
              "name": "deployer",
              "type": "address"
            },
            {
              "internalType": "bool",
              "name": "status",
              "type": "bool"
            }
          ],
          "internalType": "struct IContextManagement.RequestPredictContext",
          "name": "rpc",
          "type": "tuple"
        },
        {
          "components": [
            {
              "internalType": "bytes32",
              "name": "role",
              "type": "bytes32"
            },
            {
              "internalType": "bytes4[]",
              "name": "funcSelectors",
              "type": "bytes4[]"
            },
            {
              "internalType": "bool",
              "name": "isEnabled",
              "type": "bool"
            }
          ],
          "internalType": "struct IContextManagement.RequestRegisterContext[]",
          "name": "rrc",
          "type": "tuple[]"
        }
      ],
      "name": "registerPredictContext",
      "outputs": [
        {
          "internalType": "bytes32",
          "name": "",
          "type": "bytes32"
        }
      ],
      "stateMutability": "nonpayable",
      "type": "function"
    },
    {
      "inputs": [
        {
          "internalType": "string",
          "name": "name",
          "type": "string"
        },
        {
          "internalType": "bool",
          "name": "status",
          "type": "bool"
        },
        {
          "internalType": "bool",
          "name": "isUpgradable",
          "type": "bool"
        }
      ],
      "name": "registerRealm",
      "outputs": [
        {
          "internalType": "bytes32",
          "name": "",
          "type": "bytes32"
        }
      ],
      "stateMutability": "nonpayable",
      "type": "function"
    },
    {
      "inputs": [
        {
          "internalType": "string",
          "name": "name",
          "type": "string"
        },
        {
          "internalType": "bytes32",
          "name": "group",
          "type": "bytes32"
        },
        {
          "internalType": "bool",
          "name": "status",
          "type": "bool"
        }
      ],
      "name": "registerRole",
      "outputs": [
        {
          "internalType": "bytes32",
          "name": "",
          "type": "bytes32"
        }
      ],
      "stateMutability": "nonpayable",
      "type": "function"
    },
    {
      "inputs": [
        {
          "internalType": "bytes32",
          "name": "ctx",
          "type": "bytes32"
        },
        {
          "internalType": "bytes4",
          "name": "functionSelector",
          "type": "bytes4"
        }
      ],
      "name": "removeContextFunc",
      "outputs": [
        {
          "internalType": "bool",
          "name": "",
          "type": "bool"
        }
      ],
      "stateMutability": "nonpayable",
      "type": "function"
    },
    {
      "inputs": [
        {
          "internalType": "bytes32",
          "name": "ctx",
          "type": "bytes32"
        },
        {
          "internalType": "bytes4",
          "name": "functionSelector",
          "type": "bytes4"
        },
        {
          "internalType": "bytes32",
          "name": "role",
          "type": "bytes32"
        }
      ],
      "name": "revokeContextRole",
      "outputs": [
        {
          "internalType": "bool",
          "name": "",
          "type": "bool"
        }
      ],
      "stateMutability": "nonpayable",
      "type": "function"
    },
    {
      "inputs": [
        {
          "internalType": "bytes32",
          "name": "role",
          "type": "bytes32"
        },
        {
          "internalType": "address",
          "name": "account",
          "type": "address"
        }
      ],
      "name": "revokeRoleAccount",
      "outputs": [
        {
          "internalType": "bool",
          "name": "",
          "type": "bool"
        }
      ],
      "stateMutability": "nonpayable",
      "type": "function"
    },
    {
      "inputs": [
        {
          "internalType": "bytes32",
          "name": "ctx",
          "type": "bytes32"
        },
        {
          "internalType": "bytes32",
          "name": "realm",
          "type": "bytes32"
        }
      ],
      "name": "setContextRealm",
      "outputs": [
        {
          "internalType": "bool",
          "name": "",
          "type": "bool"
        }
      ],
      "stateMutability": "nonpayable",
      "type": "function"
    },
    {
      "inputs": [
        {
          "internalType": "bytes32",
          "name": "ctx",
          "type": "bytes32"
        },
        {
          "internalType": "bool",
          "name": "status",
          "type": "bool"
        }
      ],
      "name": "setContextStatus",
      "outputs": [
        {
          "internalType": "bool",
          "name": "",
          "type": "bool"
        }
      ],
      "stateMutability": "nonpayable",
      "type": "function"
    },
    {
      "inputs": [
        {
          "internalType": "bytes32",
          "name": "group",
          "type": "bytes32"
        },
        {
          "internalType": "bool",
          "name": "status",
          "type": "bool"
        }
      ],
      "name": "setGroupStatus",
      "outputs": [
        {
          "internalType": "bool",
          "name": "",
          "type": "bool"
        }
      ],
      "stateMutability": "nonpayable",
      "type": "function"
    },
    {
      "inputs": [
        {
          "internalType": "address",
          "name": "newLocalAdmin",
          "type": "address"
        }
      ],
      "name": "setLocalAdmin",
      "outputs": [
        {
          "internalType": "bool",
          "name": "",
          "type": "bool"
        }
      ],
      "stateMutability": "nonpayable",
      "type": "function"
    },
    {
      "inputs": [
        {
          "internalType": "bytes32",
          "name": "realm",
          "type": "bytes32"
        },
        {
          "internalType": "bool",
          "name": "status",
          "type": "bool"
        }
      ],
      "name": "setRealmStatus",
      "outputs": [
        {
          "internalType": "bool",
          "name": "",
          "type": "bool"
        }
      ],
      "stateMutability": "nonpayable",
      "type": "function"
    },
    {
      "inputs": [
        {
          "internalType": "bytes32",
          "name": "realm",
          "type": "bytes32"
        },
        {
          "internalType": "bool",
          "name": "status",
          "type": "bool"
        }
      ],
      "name": "setRealmUpgradeStatus",
      "outputs": [
        {
          "internalType": "bool",
          "name": "",
          "type": "bool"
        }
      ],
      "stateMutability": "nonpayable",
      "type": "function"
    },
    {
      "inputs": [
        {
          "internalType": "bytes32",
          "name": "role",
          "type": "bytes32"
        },
        {
          "internalType": "bytes32",
          "name": "group",
          "type": "bytes32"
        }
      ],
      "name": "setRoleGroup",
      "outputs": [
        {
          "internalType": "bool",
          "name": "",
          "type": "bool"
        }
      ],
      "stateMutability": "nonpayable",
      "type": "function"
    },
    {
      "inputs": [
        {
          "internalType": "bytes32",
          "name": "role",
          "type": "bytes32"
        },
        {
          "internalType": "bool",
          "name": "status",
          "type": "bool"
        }
      ],
      "name": "setRoleStatus",
      "outputs": [
        {
          "internalType": "bool",
          "name": "",
          "type": "bool"
        }
      ],
      "stateMutability": "nonpayable",
      "type": "function"
    },
    {
      "inputs": [
        {
          "internalType": "bool",
          "name": "status",
          "type": "bool"
        }
      ],
      "name": "setSafeMode",
      "outputs": [
        {
          "internalType": "bool",
          "name": "",
          "type": "bool"
        }
      ],
      "stateMutability": "nonpayable",
      "type": "function"
    },
    {
      "inputs": [
        {
          "internalType": "bool",
          "name": "status",
          "type": "bool"
        }
      ],
      "name": "setUpgradeStatus",
      "outputs": [
        {
          "internalType": "bool",
          "name": "",
          "type": "bool"
        }
      ],
      "stateMutability": "nonpayable",
      "type": "function"
    },
    {
      "inputs": [],
      "name": "subjectAddress",
      "outputs": [
        {
          "internalType": "address",
          "name": "",
          "type": "address"
        }
      ],
      "stateMutability": "view",
      "type": "function"
    },
    {
      "inputs": [
        {
          "internalType": "bytes4",
          "name": "interfaceId",
          "type": "bytes4"
        }
      ],
      "name": "supportsInterface",
      "outputs": [
        {
          "internalType": "bool",
          "name": "",
          "type": "bool"
        }
      ],
      "stateMutability": "view",
      "type": "function"
    },
    {
      "inputs": [
        {
          "internalType": "bytes32",
          "name": "ctx",
          "type": "bytes32"
        },
        {
          "internalType": "bytes",
          "name": "signature",
          "type": "bytes"
        },
        {
          "components": [
            {
              "internalType": "bytes32",
              "name": "name",
              "type": "bytes32"
            },
            {
              "internalType": "bytes32",
              "name": "version",
              "type": "bytes32"
            },
            {
              "internalType": "bytes32",
              "name": "realm",
              "type": "bytes32"
            },
            {
              "internalType": "address",
              "name": "contractId",
              "type": "address"
            },
            {
              "internalType": "bool",
              "name": "status",
              "type": "bool"
            }
          ],
          "internalType": "struct IContextManagement.RequestContext",
          "name": "rc",
          "type": "tuple"
        },
        {
          "components": [
            {
              "internalType": "bytes32",
              "name": "role",
              "type": "bytes32"
            },
            {
              "internalType": "bytes4[]",
              "name": "funcSelectors",
              "type": "bytes4[]"
            },
            {
              "internalType": "enum IContextManagement.UpdateContextStatus",
              "name": "updateStatus",
              "type": "uint8"
            }
          ],
          "internalType": "struct IContextManagement.RequestUpdateContext[]",
          "name": "rcr",
          "type": "tuple[]"
        }
      ],
      "name": "updateContext",
      "outputs": [
        {
          "internalType": "address",
          "name": "",
          "type": "address"
        }
      ],
      "stateMutability": "nonpayable",
      "type": "function"
    },
    {
      "inputs": [
        {
          "internalType": "address",
          "name": "newImplementation",
          "type": "address"
        },
        {
          "internalType": "bytes",
          "name": "data",
          "type": "bytes"
        },
        {
          "internalType": "bool",
          "name": "forceCall",
          "type": "bool"
        }
      ],
      "name": "upgradeTo",
      "outputs": [
        {
          "internalType": "bytes",
          "name": "",
          "type": "bytes"
        }
      ],
      "stateMutability": "nonpayable",
      "type": "function"
    },
    {
      "inputs": [
        {
          "internalType": "address",
          "name": "recepient",
          "type": "address"
        }
      ],
      "name": "withdrawBalance",
      "outputs": [],
      "stateMutability": "nonpayable",
      "type": "function"
    },
    {
      "stateMutability": "payable",
      "type": "receive"
    }
  ],
  "bytecode": "0x60a0604052306080523480156200001557600080fd5b506200004360017f360894a13ba1a3210667c828492db98dca3e2076cc3735a920a3ca505d382bbd6200011f565b7f360894a13ba1a3210667c828492db98dca3e2076cc3735a920a3ca505d382bbc1462000074576200007462000147565b620000a160017fb53127684a568b3173ae13b9f8a6016e243e63b6e8ee1178d6a717850b5d61046200011f565b600080516020620060b583398151915214620000c157620000c162000147565b33620000ea600080516020620060b583398151915260001b6200011c60201b62003bbf1760201c565b80546001600160a01b0319166001600160a01b03929092169190911790556004805461ffff191660011790556200015d565b90565b818103818111156200014157634e487b7160e01b600052601160045260246000fd5b92915050565b634e487b7160e01b600052600160045260246000fd5b608051615ef6620001bf6000396000818161174901528181611792015281816119450152818161198501528181611cac01528181611d8201528181611dc20152818161235401528181612394015281816133be01526133fe0152615ef66000f3fe60806040526004361061043c5760003560e01c80638f09e0f011610232578063c7ab39e61161012d578063e1ed0a82116100b0578063f1df49da11610077578063f1df49da14610e22578063f2c673bd14610e42578063f5122c9214610e62578063f698da2514610e82578063f94a0adb14610e9757005b8063e1ed0a8214610d82578063e25d75f014610da2578063e65be46814610dc2578063e71e224e14610de2578063edf1d1cb14610e0257005b8063d9d34bf8116100f4578063d9d34bf814610ce2578063d9dc1f1914610d02578063dbf304b014610d22578063dc853dd014610d42578063df01de4514610d6257005b8063c7ab39e614610c4d578063c7ea945c14610c6d578063d338640114610c8d578063d3e024b814610cad578063d9aba36e14610cc257005b8063b4a0bdf3116101b5578063be409a111161017c578063be409a1114610b9e578063be409b5714610bcd578063c34aa02114610bed578063c48e7ae614610c0d578063c557020a14610c2d57005b8063b4a0bdf314610b08578063b4c4b58f14610b26578063b58966de14610b46578063b6c03f0314610b66578063be22465d14610b8657005b80639ebf6246116101f95780639ebf624614610a1f578063a0a8e46014610a93578063a32ce13d14610aa8578063a92f69c114610ac8578063b2dc26e514610ae857005b80638f09e0f01461097f578063916909551461099f57806393ba3131146109bf57806394cfd6e3146109df5780639e3a2cea146109ff57005b80634944f532116103425780636b3b0159116102c5578063771bcf451161028c578063771bcf45146108ea5780637b4433791461090a578063870666cb1461092a5780638b7dbd6c1461093f5780638e7038261461095f57005b80636b3b01591461084857806370420ee3146108685780637147855d14610888578063756af45f146108b557806375d0c0dc146108d557005b80635479d940116103095780635479d9401461079057806358dbc45d146107ad5780635bdaecce146107da5780635c6d8da1146107fa5780636b2b7dd81461081a57005b80634944f532146106fb5780634bb1be8c1461071b5780634dc13c8f1461073b57806351e70bb01461075b57806352d1902d1461077b57005b806337bfbfe8116103ca5780634156567311610391578063415656731461065b5780634346a04b1461067b57806344b7e5f21461069b57806345b5203c146106bb57806348e6be1c146106db57005b806337bfbfe81461058757806338d38c97146105b45780633c7d5b25146105dc5780633e02bc381461060b5780633f4c99b81461062d57005b806311b529b31161040e57806311b529b3146104da5780631846d125146104fa5780632e2adf001461051a5780632f032edd146105475780633228144d1461056757005b806301ffc9a714610445578063031c04931461047a578063076a6f221461049a578063101df54d146104ba57005b3661044357005b005b34801561045157600080fd5b50610465610460366004614710565b610eac565b60405190151581526020015b60405180910390f35b34801561048657600080fd5b5061046561049536600461472d565b610f43565b3480156104a657600080fd5b506104656104b536600461477a565b611019565b3480156104c657600080fd5b506104656104d5366004614797565b6110a0565b3480156104e657600080fd5b506104656104f53660046147b0565b6110e2565b34801561050657600080fd5b50610465610515366004614797565b611162565b34801561052657600080fd5b5061053a610535366004614797565b6111a3565b60405161047191906147e0565b34801561055357600080fd5b50610465610562366004614797565b611225565b34801561057357600080fd5b50610465610582366004614797565b611267565b34801561059357600080fd5b506105a76105a2366004614797565b6112a9565b604051610471919061482e565b3480156105c057600080fd5b506105c961132c565b60405161ffff9091168152602001610471565b3480156105e857600080fd5b506105fc6105f7366004614797565b611340565b604051610471939291906148b6565b34801561061757600080fd5b506106206113d4565b60405161047191906148e0565b34801561063957600080fd5b5061064d610648366004614977565b611560565b604051908152602001610471565b34801561066757600080fd5b5061046561067636600461477a565b611632565b34801561068757600080fd5b5061046561069636600461472d565b61167c565b3480156106a757600080fd5b506104656106b63660046149cd565b61173d565b3480156106c757600080fd5b506104656106d6366004614797565b6118f7565b3480156106e757600080fd5b506104656106f63660046149cd565b611939565b34801561070757600080fd5b50610465610716366004614797565b611b02565b34801561072757600080fd5b5061064d6107363660046149ea565b611b44565b34801561074757600080fd5b50610465610756366004614797565b611c1b565b34801561076757600080fd5b50610465610776366004614797565b611c5d565b34801561078757600080fd5b5061064d611c9f565b34801561079c57600080fd5b50600454610100900460ff16610465565b3480156107b957600080fd5b506107c2611d2c565b6040516001600160a01b039091168152602001610471565b3480156107e657600080fd5b506104656107f5366004614797565b611d36565b34801561080657600080fd5b50610443610815366004614a51565b611d78565b34801561082657600080fd5b5061083a610835366004614797565b61213a565b604051610471929190614afe565b34801561085457600080fd5b50610465610863366004614b22565b6121c8565b34801561087457600080fd5b50610465610883366004614b50565b612266565b34801561089457600080fd5b506108a86108a3366004614c60565b612348565b6040516104719190614cb8565b3480156108c157600080fd5b506104436108d036600461477a565b612470565b3480156108e157600080fd5b5060015461064d565b3480156108f657600080fd5b5061046561090536600461472d565b612528565b34801561091657600080fd5b5061064d610925366004614d0f565b6125e9565b34801561093657600080fd5b5061064d61270d565b34801561094b57600080fd5b5061046561095a366004614b50565b612718565b34801561096b57600080fd5b5061046561097a366004614797565b6127a7565b34801561098b57600080fd5b5061046561099a366004614d93565b6127e9565b3480156109ab57600080fd5b506104656109ba366004614797565b612871565b3480156109cb57600080fd5b506104656109da366004614db8565b6128b3565b3480156109eb57600080fd5b506104656109fa366004614797565b612999565b348015610a0b57600080fd5b506105a7610a1a366004614e2c565b6129db565b348015610a2b57600080fd5b50610a3f610a3a366004614797565b612b8c565b60405161047191908151815260208083015190820152604080830151908201526060808301516001600160a01b03169082015260808083015115159082015260a09182015115159181019190915260c00190565b348015610a9f57600080fd5b5060025461064d565b348015610ab457600080fd5b50610465610ac3366004614797565b612c35565b348015610ad457600080fd5b50610465610ae336600461477a565b612c77565b348015610af457600080fd5b5061064d610b03366004614e6d565b612cc1565b348015610b1457600080fd5b506000546001600160a01b03166107c2565b348015610b3257600080fd5b50610465610b413660046147b0565b612dbd565b348015610b5257600080fd5b50610465610b613660046147b0565b612dfc565b348015610b7257600080fd5b50610465610b81366004614b50565b612ecc565b348015610b9257600080fd5b5060045460ff16610465565b348015610baa57600080fd5b50610bbe610bb9366004614797565b612f5b565b60405161047193929190614ec0565b348015610bd957600080fd5b50610465610be836600461477a565b612fe2565b348015610bf957600080fd5b50610465610c0836600461477a565b61302c565b348015610c1957600080fd5b50610465610c28366004614797565b613076565b348015610c3957600080fd5b50610465610c48366004614db8565b6130b8565b348015610c5957600080fd5b50610465610c68366004614eea565b61319e565b348015610c7957600080fd5b50610465610c88366004614d93565b6131ff565b348015610c9957600080fd5b50610465610ca8366004614f21565b613250565b348015610cb957600080fd5b5060035461064d565b348015610cce57600080fd5b50610465610cdd366004614f21565b61331f565b348015610cee57600080fd5b50610465610cfd36600461477a565b613368565b348015610d0e57600080fd5b50610465610d1d36600461477a565b6133b2565b348015610d2e57600080fd5b50610465610d3d366004614f21565b61352c565b348015610d4e57600080fd5b50610465610d5d366004614797565b6135fb565b348015610d6e57600080fd5b50610465610d7d366004614d93565b61363d565b348015610d8e57600080fd5b50610620610d9d366004614797565b6136c5565b348015610dae57600080fd5b50610465610dbd366004614797565b613747565b348015610dce57600080fd5b506107c2610ddd366004614f5b565b613789565b348015610dee57600080fd5b50610465610dfd366004614b50565b61385e565b348015610e0e57600080fd5b506105a7610e1d366004614797565b613930565b348015610e2e57600080fd5b5061064d610e3d366004614fe1565b613972565b348015610e4e57600080fd5b50610465610e5d366004614b50565b613a6f565b348015610e6e57600080fd5b50610465610e7d366004614f21565b613afe565b348015610e8e57600080fd5b5061064d613b47565b348015610ea357600080fd5b506107c2613bb5565b60006001600160e01b031982166314b8343560e31b1480610edd57506001600160e01b031982166396dc457560e01b145b80610ef857506001600160e01b031982166308ea925b60e41b145b80610f1357506001600160e01b03198216637d22131d60e11b145b80610f2e57506001600160e01b031982166370319bff60e11b145b80610f3d5750610f3d82613bc2565b92915050565b60008073__$122c978fc1a65ab69c7a0ac6b07fd0b0cd$__63518bf96060458787876040518563ffffffff1660e01b8152600401610f84949392919061504c565b602060405180830381865af4158015610fa1573d6000803e3d6000fd5b505050506040513d601f19601f82011682018060405250810190610fc59190615071565b9050336001600160a01b031683867fce5e1f2ba33f195f748a93b00ee62600b55e27cc50531a72e5443713bac23e12878560405161100492919061508a565b60405180910390a460019150505b9392505050565b6040516325da42fb60e11b8152604560048201526001600160a01b038216602482015260009073__$c43b1d7058274a71a9734d16e6b6586431$__90634bb485f6906044015b602060405180830381865af415801561107c573d6000803e3d6000fd5b505050506040513d601f19601f82011682018060405250810190610f3d91906150a4565b604051637cd7c4ed60e01b8152604560048201526024810182905260009073__$c43b1d7058274a71a9734d16e6b6586431$__90637cd7c4ed9060440161105f565b6040516302a0d2e360e61b815260009073__$c43b1d7058274a71a9734d16e6b6586431$__9063a834b8c09061112190604590879087906004016150c1565b602060405180830381865af415801561113e573d6000803e3d6000fd5b505050506040513d601f19601f8201168201806040525081019061101291906150a4565b60405162fd7cb960e41b8152604560048201526024810182905260009073__$c43b1d7058274a71a9734d16e6b6586431$__90630fd7cb909060440161105f565b60405163ec77eb2160e01b8152604560048201526024810182905260609073__$122c978fc1a65ab69c7a0ac6b07fd0b0cd$__9063ec77eb2190604401600060405180830381865af41580156111fd573d6000803e3d6000fd5b505050506040513d6000823e601f3d908101601f19168201604052610f3d9190810190615173565b60405163e24b90a960e01b8152604560048201526024810182905260009073__$c43b1d7058274a71a9734d16e6b6586431$__9063e24b90a99060440161105f565b60405163442b0ca160e01b8152604560048201526024810182905260009073__$c43b1d7058274a71a9734d16e6b6586431$__9063442b0ca19060440161105f565b6040516350f0b31d60e11b8152604560048201526024810182905260609073__$bc3cfbaf1827cbc66e3e608da812a405b7$__9063a1e1663a906044015b600060405180830381865af4158015611304573d6000803e3d6000fd5b505050506040513d6000823e601f3d908101601f19168201604052610f3d91908101906151a7565b600061133b604a5461ffff1690565b905090565b60405163108ca8b760e01b81526045600482015260248101829052606090600090819073__$bc3cfbaf1827cbc66e3e608da812a405b7$__9063108ca8b790604401600060405180830381865af415801561139f573d6000803e3d6000fd5b505050506040513d6000823e601f3d908101601f191682016040526113c7919081019061527c565b9250925092509193909250565b60408051600580825260c08201909252606091600091906020820160a08036833701905050905073__$c43b1d7058274a71a9734d16e6b6586431$__81600081518110611423576114236152d5565b60200260200101906001600160a01b031690816001600160a01b03168152505073__$122c978fc1a65ab69c7a0ac6b07fd0b0cd$__8160018151811061146b5761146b6152d5565b60200260200101906001600160a01b031690816001600160a01b03168152505073__$bc3cfbaf1827cbc66e3e608da812a405b7$__816002815181106114b3576114b36152d5565b60200260200101906001600160a01b031690816001600160a01b03168152505073__$340101a45712d3611711048793ce62ace0$__816003815181106114fb576114fb6152d5565b60200260200101906001600160a01b031690816001600160a01b03168152505073__$6309dd7d2656d358c392b35d5c4e4605f9$__81600481518110611543576115436152d5565b6001600160a01b0390921660209283029190910190910152919050565b60008073__$6309dd7d2656d358c392b35d5c4e4605f9$__63f728a0f560458787876040518563ffffffff1660e01b81526004016115a19493929190615314565b602060405180830381865af41580156115be573d6000803e3d6000fd5b505050506040513d601f19601f820116820180604052508101906115e29190615071565b9050336001600160a01b0316817fde3bd866160a7f983f3c5f990127712936d37378d60b93ba96ab3a66a04feb1887878760405161162293929190615341565b60405180910390a3949350505050565b604051630cf3ea2f60e01b8152604560048201526001600160a01b038216602482015260009073__$c43b1d7058274a71a9734d16e6b6586431$__90630cf3ea2f9060440161105f565b60008073__$122c978fc1a65ab69c7a0ac6b07fd0b0cd$__635acd816a60458787876040518563ffffffff1660e01b81526004016116bd949392919061504c565b602060405180830381865af41580156116da573d6000803e3d6000fd5b505050506040513d601f19601f820116820180604052508101906116fe9190615071565b9050336001600160a01b031683867f888ebbee43b69c568a7ef10a18f4afb4a0452ed2cfec2dde7a3d37b7e5ef87a3878560405161100492919061508a565b60006001600160a01b037f00000000000000000000000000000000000000000000000000000000000000001630036117905760405162461bcd60e51b815260040161178790615367565b60405180910390fd5b7f00000000000000000000000000000000000000000000000000000000000000006001600160a01b03166117c2613c12565b6001600160a01b0316146117e85760405162461bcd60e51b815260040161178790615396565b60006117f7604a5461ffff1690565b61ffff16116118485760405162461bcd60e51b815260206004820152601860248201527f436f6e7472616374204e6f7420496e697469616c697a656400000000000000006044820152606401611787565b61185863225bf2f960e11b613c33565b61189c5760405162461bcd60e51b815260206004820152601560248201527429b2ba29b0b332a6b7b232902337b93134b23232b760591b6044820152606401611787565b6004805460ff191683151517905560035430336001600160a01b03167fdd452a31d2e164a1ea436c084842c27d24ae2548a575a869f71b05a4ed16243f856040516118eb911515815260200190565b60405180910390a45090565b604051630227e50560e31b8152604560048201526024810182905260009073__$c43b1d7058274a71a9734d16e6b6586431$__9063113f28289060440161105f565b60006001600160a01b037f00000000000000000000000000000000000000000000000000000000000000001630036119835760405162461bcd60e51b815260040161178790615367565b7f00000000000000000000000000000000000000000000000000000000000000006001600160a01b03166119b5613c12565b6001600160a01b0316146119db5760405162461bcd60e51b815260040161178790615396565b60045460ff16156119fe5760405162461bcd60e51b8152600401611787906153c4565b611a0e631239af8760e21b613c33565b611a5a5760405162461bcd60e51b815260206004820152601a60248201527f5365745570677261646553746174757320466f7262696464656e0000000000006044820152606401611787565b611a62613d76565b611aae5760405162461bcd60e51b815260206004820152601760248201527f5265616c6d205570677261646520466f7262696464656e0000000000000000006044820152606401611787565b6004805461ff0019166101008415150217905560035430336001600160a01b03167fe9f97ad94c2ba252dcfc525e004f608ac5cb886955d8fc87d9e0ee070a698c56856040516118eb911515815260200190565b604051633346dd2d60e01b8152604560048201526024810182905260009073__$c43b1d7058274a71a9734d16e6b6586431$__90633346dd2d9060440161105f565b60008073__$bc3cfbaf1827cbc66e3e608da812a405b7$__6359186f406045888888886040518663ffffffff1660e01b8152600401611b879594939291906153fb565b602060405180830381865af4158015611ba4573d6000803e3d6000fd5b505050506040513d601f19601f82011682018060405250810190611bc89190615071565b9050336001600160a01b0316817f5a8acbe7e0fa397d934e9aafb8fb1a483627af9e9b4690f4488d740b669f8b4788888888604051611c0a949392919061542e565b60405180910390a395945050505050565b60405163017d626960e01b8152604560048201526024810182905260009073__$c43b1d7058274a71a9734d16e6b6586431$__9063017d62699060440161105f565b60405163af07cfcd60e01b8152604560048201526024810182905260009073__$c43b1d7058274a71a9734d16e6b6586431$__9063af07cfcd9060440161105f565b6000306001600160a01b037f00000000000000000000000000000000000000000000000000000000000000001614611d195760405162461bcd60e51b815260206004820152601d60248201527f496c6c6567616c20436f6e74726163742044656c656761746563616c6c0000006044820152606401611787565b50600080516020615ea183398151915290565b600061133b613c12565b60405163edc9c7d360e01b8152604560048201526024810182905260009073__$c43b1d7058274a71a9734d16e6b6586431$__9063edc9c7d39060440161105f565b6001600160a01b037f0000000000000000000000000000000000000000000000000000000000000000163003611dc05760405162461bcd60e51b815260040161178790615367565b7f00000000000000000000000000000000000000000000000000000000000000006001600160a01b0316611df2613c12565b6001600160a01b031614611e185760405162461bcd60e51b815260040161178790615396565b33611e21613eb2565b6001600160a01b031614611e6f5760405162461bcd60e51b815260206004820152601560248201527410d85b1b195c88139bdd08105d5d1a1bdc9a5e9959605a1b6044820152606401611787565b604a5462010000900460ff1615808015611e915750604a54600161ffff909116105b80611eac5750303b158015611eac5750604a5461ffff166001145b611ef85760405162461bcd60e51b815260206004820152601c60248201527f436f6e747261637420416c726561647920496e697469616c697a6564000000006044820152606401611787565b604a805461ffff191660011790558015611f1e57604a805462ff00001916620100001790555b60008484604051602001611f3392919061545a565b60408051808303601f190181529082905280516020909101206308bae38360e31b825260456004830152915073__$c43b1d7058274a71a9734d16e6b6586431$__906345d71c189060240160006040518083038186803b158015611f9657600080fd5b505af4158015611faa573d6000803e3d6000fd5b50505050611fbc898989898588613eda565b600073__$c43b1d7058274a71a9734d16e6b6586431$__6362f3c2d46040518163ffffffff1660e01b8152600401600060405180830381865af4158015612007573d6000803e3d6000fd5b505050506040513d6000823e601f3d908101601f1916820160405261202f919081019061546a565b604051631f5dcce360e31b815290915073__$122c978fc1a65ab69c7a0ac6b07fd0b0cd$__9063faee6718906120709060459030908790879060040161556d565b602060405180830381865af415801561208d573d6000803e3d6000fd5b505050506040513d601f19601f820116820180604052508101906120b19190615071565b506120ba613c12565b6001600160a01b031630336001600160a01b03167ff851a1e85477b818fc72ad517ea622cc316f10f67d61c9e740adc151a8b413948d8d8d8d89612101604a5461ffff1690565b60405161211396959493929190615645565b60405180910390a45050801561213057604a805462ff0000191690555b5050505050505050565b604051630e8a623f60e31b8152604560048201526024810182905260609060009073__$6309dd7d2656d358c392b35d5c4e4605f9$__9063745311f890604401600060405180830381865af4158015612197573d6000803e3d6000fd5b505050506040513d6000823e601f3d908101601f191682016040526121bf919081019061568a565b91509150915091565b604051637134bb4560e01b81526045600482015260248101849052604481018390526001600160e01b03198216606482015260009073__$122c978fc1a65ab69c7a0ac6b07fd0b0cd$__90637134bb45906084015b602060405180830381865af415801561223a573d6000803e3d6000fd5b505050506040513d601f19601f8201168201806040525081019061225e91906150a4565b949350505050565b604051637cc5941d60e01b8152604560048201526024810183905281151560448201526000908190819073__$122c978fc1a65ab69c7a0ac6b07fd0b0cd$__90637cc5941d906064016040805180830381865af41580156122cb573d6000803e3d6000fd5b505050506040513d601f19601f820116820180604052508101906122ef91906156d0565b91509150806122fb3390565b6001600160a01b0316867f354501e3216e5f916d4d35ef255a577d106a7eab306488227783a837dc042a4e87604051612338911515815260200190565b60405180910390a4509392505050565b60606001600160a01b037f00000000000000000000000000000000000000000000000000000000000000001630036123925760405162461bcd60e51b815260040161178790615367565b7f00000000000000000000000000000000000000000000000000000000000000006001600160a01b03166123c4613c12565b6001600160a01b0316146123ea5760405162461bcd60e51b815260040161178790615396565b60045460ff161561240d5760405162461bcd60e51b8152600401611787906153c4565b600454610100900460ff1661245c5760405162461bcd60e51b8152602060048201526015602482015274155c19dc9859194810d85b1b0814995a9958dd1959605a1b6044820152606401611787565b61246584613ef0565b61225e848484613fb7565b60045460ff16156124935760405162461bcd60e51b8152600401611787906153c4565b6124a363756af45f60e01b613c33565b6124ef5760405162461bcd60e51b815260206004820152601a60248201527f57697468647261772042616c616e636520466f7262696464656e0000000000006044820152606401611787565b6040516001600160a01b038216904780156108fc02916000818181858888f19350505050158015612524573d6000803e3d6000fd5b5050565b60008073__$122c978fc1a65ab69c7a0ac6b07fd0b0cd$__63453dd6dc60458787876040518563ffffffff1660e01b8152600401612569949392919061504c565b602060405180830381865af4158015612586573d6000803e3d6000fd5b505050506040513d601f19601f820116820180604052508101906125aa9190615071565b9050336001600160a01b031683867fea00ff399a342f54b82233841f91faa5677300e901667e010e9f22aea1ae5931878560405161100492919061508a565b60008060008073__$122c978fc1a65ab69c7a0ac6b07fd0b0cd$__634ac3fdd460458a8a8a8a6040518663ffffffff1660e01b815260040161262f959493929190615841565b606060405180830381865af415801561264c573d6000803e3d6000fd5b505050506040513d601f19601f8201168201806040525081019061267091906158eb565b92509250925061267d3390565b6001600160a01b03908116908416837fcc1b95900c3e2c3876e4b29283de90ac446bd6049a0df525d14a8c07d36ae70c846126be60c08d0160a08e0161477a565b6126ce60a08e0160808f0161477a565b604080516001600160a01b0394851681529284166020840152921681830152908c013560608201526080015b60405180910390a4509695505050505050565b600061133b30614208565b6000336001600160a01b0316837ffe1617b569bd167ab40b31e034f68e32656219dbe4ab9469a00660550fec72c884604051612758911515815260200190565b60405180910390a3604051630549f02d60e01b81526045600482015260248101849052821515604482015273__$bc3cfbaf1827cbc66e3e608da812a405b7$__90630549f02d90606401611121565b6040516310f0750160e01b8152604560048201526024810182905260009073__$c43b1d7058274a71a9734d16e6b6586431$__906310f075019060440161105f565b6040516000906001600160a01b03831690849033907fd992f85df7a0be47c44b0be141be17eefd360033a4ce05b5458fba27b7781999908590a46040516389d4da6560e01b815260456004820152602481018490526001600160a01b038316604482015273__$340101a45712d3611711048793ce62ace0$__906389d4da6590606401611121565b60405163327c496560e11b8152604560048201526024810182905260009073__$c43b1d7058274a71a9734d16e6b6586431$__906364f892ca9060440161105f565b6000805b8281101561295c578383828181106128d1576128d16152d5565b90506040020160200160208101906128e9919061477a565b6001600160a01b0316848483818110612904576129046152d5565b905060400201600001356129153390565b6001600160a01b03167fd992f85df7a0be47c44b0be141be17eefd360033a4ce05b5458fba27b778199960405160405180910390a48061295481615939565b9150506128b7565b506040516338290b5160e11b815273__$340101a45712d3611711048793ce62ace0$__9063705216a2906111219060459087908790600401615952565b604051631aef95d960e31b8152604560048201526024810182905260009073__$c43b1d7058274a71a9734d16e6b6586431$__9063d77caec89060440161105f565b6060600073__$340101a45712d3611711048793ce62ace0$__63c967fb65604586866040518463ffffffff1660e01b8152600401612a1b939291906159a7565b600060405180830381865af4158015612a38573d6000803e3d6000fd5b505050506040513d6000823e601f3d908101601f19168201604052612a6091908101906151a7565b905060005b83811015612b8457848482818110612a7f57612a7f6152d5565b9050602002810190612a919190615a7e565b612a9f906020810190615a9e565b604051612aad92919061545a565b6040518091039020828281518110612ac757612ac76152d5565b6020026020010151612ad63390565b6001600160a01b03167f539b07dddd6bd9ffefa3d951a9467d78948cbe1a8d13be00e7376842a83a5981888886818110612b1257612b126152d5565b9050602002810190612b249190615a7e565b35898987818110612b3757612b376152d5565b9050602002810190612b499190615a7e565b612b5a9060608101906040016149cd565b6040805192835290151560208301520160405180910390a480612b7c81615939565b915050612a65565b509392505050565b6040805160c081018252600080825260208201819052818301819052606082018190526080820181905260a0820152905163399d749f60e11b8152604560048201526024810183905273__$122c978fc1a65ab69c7a0ac6b07fd0b0cd$__9063733ae93e9060440160c060405180830381865af4158015612c11573d6000803e3d6000fd5b505050506040513d601f19601f82011682018060405250810190610f3d9190615ae4565b604051632d796d3560e21b8152604560048201526024810182905260009073__$c43b1d7058274a71a9734d16e6b6586431$__9063b5e5b4d49060440161105f565b6040516323707db360e01b8152604560048201526001600160a01b038216602482015260009073__$c43b1d7058274a71a9734d16e6b6586431$__906323707db39060440161105f565b60008073__$340101a45712d3611711048793ce62ace0$__633859eb7f6045888888886040518663ffffffff1660e01b8152600401612d04959493929190615b75565b602060405180830381865af4158015612d21573d6000803e3d6000fd5b505050506040513d601f19601f82011682018060405250810190612d459190615071565b90508585604051612d5792919061545a565b604051809103902081612d673390565b6001600160a01b03167f539b07dddd6bd9ffefa3d951a9467d78948cbe1a8d13be00e7376842a83a59818787604051612dac9291909182521515602082015260400190565b60405180910390a495945050505050565b6040516337b3cdd760e21b815260009073__$c43b1d7058274a71a9734d16e6b6586431$__9063decf375c9061112190604590879087906004016150c1565b60008073__$122c978fc1a65ab69c7a0ac6b07fd0b0cd$__63b0c25575604586866040518463ffffffff1660e01b8152600401612e3b939291906150c1565b602060405180830381865af4158015612e58573d6000803e3d6000fd5b505050506040513d601f19601f82011682018060405250810190612e7c9190615071565b9050336001600160a01b0316847fa6234dfea6da9d63d0505ba9b61ac8405dfd897089208859cda18011c4847d698584604051612eba92919061508a565b60405180910390a35060019392505050565b6000336001600160a01b0316837fe595d6b009cbfd06bfdfc4b7c06799f0e0b08fb2c6f5fa6e28a9aac2495440f984604051612f0c911515815260200190565b60405180910390a3604051637c95bcdf60e01b81526045600482015260248101849052821515604482015273__$6309dd7d2656d358c392b35d5c4e4605f9$__90637c95bcdf90606401611121565b604051631f9471ef60e01b81526045600482015260248101829052606090600090819073__$340101a45712d3611711048793ce62ace0$__90631f9471ef90604401600060405180830381865af4158015612fba573d6000803e3d6000fd5b505050506040513d6000823e601f3d908101601f191682016040526113c79190810190615ba8565b6040516308c6c9c760e21b8152604560048201526001600160a01b038216602482015260009073__$c43b1d7058274a71a9734d16e6b6586431$__9063231b271c9060440161105f565b6040516304d74f4360e11b8152604560048201526001600160a01b038216602482015260009073__$c43b1d7058274a71a9734d16e6b6586431$__906309ae9e869060440161105f565b604051633bcd353d60e11b8152604560048201526024810182905260009073__$c43b1d7058274a71a9734d16e6b6586431$__9063779a6a7a9060440161105f565b6000805b82811015613161578383828181106130d6576130d66152d5565b90506040020160200160208101906130ee919061477a565b6001600160a01b0316848483818110613109576131096152d5565b9050604002016000013561311a3390565b6001600160a01b03167f1d31fe42f06d4c1f16f6cb7b5682f1d6743641a9e1412fa0258f6776c5b943ee60405160405180910390a48061315981615939565b9150506130bc565b50604051631741755760e31b815273__$340101a45712d3611711048793ce62ace0$__9063ba0baab8906111219060459087908790600401615952565b604051630243e34b60e51b815260456004820152602481018490526001600160a01b03831660448201526001600160e01b03198216606482015260009073__$c43b1d7058274a71a9734d16e6b6586431$__9063487c69609060840161221d565b604051630938ae7160e01b815260456004820152602481018390526001600160a01b038216604482015260009073__$340101a45712d3611711048793ce62ace0$__90630938ae7190606401611121565b604051631f00af7b60e11b81526045600482015260248101839052604481018290526000908190819073__$122c978fc1a65ab69c7a0ac6b07fd0b0cd$__90633e015ef6906064016040805180830381865af41580156132b4573d6000803e3d6000fd5b505050506040513d601f19601f820116820180604052508101906132d891906156d0565b91509150836132e43390565b6001600160a01b0316867fa0eaa0025d4f12545803a03c369115c59f885df7b5fc07a6393438827dbf51b78460405161233891815260200190565b604051631e7abee360e21b815260456004820152602481018390526044810182905260009073__$bc3cfbaf1827cbc66e3e608da812a405b7$__906379eafb8c90606401611121565b6040516371984eb360e11b8152604560048201526001600160a01b038216602482015260009073__$c43b1d7058274a71a9734d16e6b6586431$__9063e3309d669060440161105f565b60006001600160a01b037f00000000000000000000000000000000000000000000000000000000000000001630036133fc5760405162461bcd60e51b815260040161178790615367565b7f00000000000000000000000000000000000000000000000000000000000000006001600160a01b031661342e613c12565b6001600160a01b0316146134545760405162461bcd60e51b815260040161178790615396565b60045460ff16156134775760405162461bcd60e51b8152600401611787906153c4565b61348763d9dc1f1960e01b613c33565b6134d35760405162461bcd60e51b815260206004820152601760248201527f5365744c6f63616c41646d696e20466f7262696464656e0000000000000000006044820152606401611787565b6001600160a01b03821661351b5760405162461bcd60e51b815260206004820152600f60248201526e1059191c995cdcc8125b9d985b1a59608a1b6044820152606401611787565b61352482614247565b506001919050565b60405163c3203fd160e01b81526045600482015260248101839052604481018290526000908190819073__$340101a45712d3611711048793ce62ace0$__9063c3203fd1906064016040805180830381865af4158015613590573d6000803e3d6000fd5b505050506040513d601f19601f820116820180604052508101906135b491906156d0565b9150915083856135c13390565b6001600160a01b03167f970f60a11b3302f55122bdb3e2de766d28491b40fe0a2a6d04da71e5ab577cb98460405161233891815260200190565b60405163d95140eb60e01b8152604560048201526024810182905260009073__$c43b1d7058274a71a9734d16e6b6586431$__9063d95140eb9060440161105f565b6040516000906001600160a01b03831690849033907f1d31fe42f06d4c1f16f6cb7b5682f1d6743641a9e1412fa0258f6776c5b943ee908590a4604051633d58057760e01b815260456004820152602481018490526001600160a01b038316604482015273__$340101a45712d3611711048793ce62ace0$__90633d58057790606401611121565b604051633e5c6e9760e11b8152604560048201526024810182905260609073__$340101a45712d3611711048793ce62ace0$__90637cb8dd2e90604401600060405180830381865af415801561371f573d6000803e3d6000fd5b505050506040513d6000823e601f3d908101601f19168201604052610f3d9190810190615bf7565b6040516333064c8960e11b8152604560048201526024810182905260009073__$c43b1d7058274a71a9734d16e6b6586431$__9063660c99129060440161105f565b600080600073__$122c978fc1a65ab69c7a0ac6b07fd0b0cd$__63099a0c2e60458a8a8a8a8a6040518763ffffffff1660e01b81526004016137d096959493929190615cd4565b6040805180830381865af41580156137ec573d6000803e3d6000fd5b505050506040513d601f19601f820116820180604052508101906138109190615d9d565b91509150806001600160a01b0316826001600160a01b0316897f2acec3419c1d10dab06d0715f556e96b344f2092a52a23fb192b4b89f5b7cf4289604001356040516126fa91815260200190565b604051633d2003d360e21b8152604560048201526024810183905281151560448201526000908190819073__$340101a45712d3611711048793ce62ace0$__9063f4800f4c906064016040805180830381865af41580156138c3573d6000803e3d6000fd5b505050506040513d601f19601f820116820180604052508101906138e791906156d0565b9150915080856138f43390565b6001600160a01b03167faaf3a0e62c1102e283a5a18e81d678b9ce6f4f043cc7afafee4f7f82b85330a287604051612338911515815260200190565b6040516309f7398160e11b8152604560048201526024810182905260609073__$6309dd7d2656d358c392b35d5c4e4605f9$__906313ee7302906044016112e7565b600080600073__$122c978fc1a65ab69c7a0ac6b07fd0b0cd$__6315922efe6045898989896040518663ffffffff1660e01b81526004016139b7959493929190615dcc565b6040805180830381865af41580156139d3573d6000803e3d6000fd5b505050506040513d601f19601f820116820180604052508101906139f79190615e08565b90925090506001600160a01b038116613a16608088016060890161477a565b6001600160a01b0316837f2a2b33fd7e66815f7a7bea7d796d5c587e39efd4b142c4a9ab63b8becc98feb433604080516001600160a01b039092168252808c013560208301520160405180910390a45095945050505050565b6000336001600160a01b0316837f552ce1fc1bc82a48cdc0636ff7162480d868c590f2e57c63c30a944f3a82ec3684604051613aaf911515815260200190565b60405180910390a36040516315b18c7560e11b81526045600482015260248101849052821515604482015273__$bc3cfbaf1827cbc66e3e608da812a405b7$__90632b6318ea90606401611121565b604051634ba8456360e01b815260456004820152602481018390526044810182905260009073__$6309dd7d2656d358c392b35d5c4e4605f9$__90634ba8456390606401611121565b600061133b600154600254604080517f8b73c3c69bb8fe3d512ecc4cf759cc79239f7b179b0ffacaa9a75d522b39400f60208201529081019290925260608201524660808201523060a082015260009060c00160405160208183030381529060405280519060200120905090565b600061133b613eb2565b90565b60006001600160e01b031982166314751dbf60e01b1480613bf357506001600160e01b031982166352d1902d60e01b145b80610f3d57506301ffc9a760e01b6001600160e01b0319831614610f3d565b6000600080516020615ea18339815191525b546001600160a01b0316919050565b600080546001600160a01b03163003613d1f5760006363d59cf360e11b613c5930614208565b3385604051602401613c6d93929190615e2d565b60408051601f198184030181529190526020810180516001600160e01b03166001600160e01b03199093169290921790915290506000613cea613cae613c12565b836040518060400160405280601d81526020017f44656c656761746563616c6c20686173416363657373204661696c65640000008152506142be565b90508060018251613cfb9190615e56565b81518110613d0b57613d0b6152d5565b60209101015160f81c600114949350505050565b6000546001600160a01b031663c7ab39e6613d3930614208565b33856040518463ffffffff1660e01b8152600401613d5993929190615e2d565b602060405180830381865afa15801561107c573d6000803e3d6000fd5b600080546001600160a01b03163003613e3c57600063e25d75f060e01b600354604051602401613da891815260200190565b60408051601f198184030181529190526020810180516001600160e01b03166001600160e01b03199093169290921790915290506000613e08613de9613c12565b83604051806060016040528060258152602001615e7c602591396142be565b90508060018251613e199190615e56565b81518110613e2957613e296152d5565b60209101015160f81c6001149392505050565b600054600354604051630e25d75f60e41b81526001600160a01b039092169163e25d75f091613e719160040190815260200190565b602060405180830381865afa158015613e8e573d6000803e3d6000fd5b505050506040513d601f19601f8201168201806040525081019061133b91906150a4565b60007fb53127684a568b3173ae13b9f8a6016e243e63b6e8ee1178d6a717850b5d6103613c24565b613ee8868686868686614387565b505050505050565b613ef8613c12565b6001600160a01b0316816001600160a01b031603613f585760405162461bcd60e51b815260206004820152601a60248201527f496c6c6567616c204e657720496d706c656d656e746174696f6e0000000000006044820152606401611787565b613f68637147855d60e01b613c33565b613fb45760405162461bcd60e51b815260206004820152601960248201527f5570677261646520436f6e7465787420466f7262696464656e000000000000006044820152606401611787565b50565b60607f4910fdfa16fed3260ed0e7147f7cc6da11a60208b5b9406d12a635614ffd91435460ff161561400157613fec84614592565b50604080516000815260208101909152611012565b836001600160a01b03166352d1902d6040518163ffffffff1660e01b8152600401602060405180830381865afa92505050801561405b575060408051601f3d908101601f1916820190925261405891810190615071565b60015b61409f5760405162461bcd60e51b8152602060048201526015602482015274125b1b1959d85b0815555414c810dbdb9d1c9858dd605a1b6044820152606401611787565b600080516020615ea183398151915281146140f45760405162461bcd60e51b8152602060048201526015602482015274125b9d985b1a590815555414c810dbdb9d1c9858dd605a1b6044820152606401611787565b506040516301ffc9a760e01b81526314751dbf60e01b60048201526001600160a01b038516906301ffc9a790602401602060405180830381865afa92505050801561415c575060408051601f3d908101601f19168201909252614159918101906150a4565b60015b6141a85760405162461bcd60e51b815260206004820152601760248201527f496c6c6567616c204950726f787920436f6e74726163740000000000000000006044820152606401611787565b806141f55760405162461bcd60e51b815260206004820152601760248201527f496e76616c6964204950726f787920436f6e74726163740000000000000000006044820152606401611787565b50614201848484614613565b9050611012565b6040516bffffffffffffffffffffffff19606083901b166020820152600090603401604051602081830303815290604052805190602001209050919050565b7fb53127684a568b3173ae13b9f8a6016e243e63b6e8ee1178d6a717850b5d610380546001600160a01b0383166001600160a01b031990911681179091556040805191825251309133917f54ab0d18de7958786ba1ad85966d59baa2b395455f0530dcdcfd732e6af539e29181900360200190a350565b60606001600160a01b0384163b6143125760405162461bcd60e51b8152602060048201526018602482015277496c6c6567616c20436f6e7472616374204164647265737360401b6044820152606401611787565b600080856001600160a01b03168560405161432d9190615e69565b600060405180830381855af49150503d8060008114614368576040519150601f19603f3d011682016040523d82523d6000602084013e61436d565b606091505b509150915061437d82828661467d565b9695505050505050565b604a5462010000900460ff166143df5760405162461bcd60e51b815260206004820152601960248201527f436f6e7472616374204e6f7420496e697469616c697a696e67000000000000006044820152606401611787565b85856040516020016143f292919061545a565b60408051601f1981840301815290829052805160209182012060015561441c91869186910161545a565b60408051601f19818403018152919052805160209091012060025560038290556001600160a01b03811661446157600080546001600160a01b0319163017905561457e565b6040516301ffc9a760e01b81526314b8343560e31b60048201526001600160a01b038216906301ffc9a790602401602060405180830381865afa9250505080156144c8575060408051601f3d908101601f191682019092526144c5918101906150a4565b60015b6145145760405162461bcd60e51b815260206004820152601c60248201527f496c6c6567616c20416363657373436f6e74726f6c4d616e61676572000000006044820152606401611787565b806145615760405162461bcd60e51b815260206004820152601c60248201527f496e76616c696420416363657373436f6e74726f6c4d616e61676572000000006044820152606401611787565b50600080546001600160a01b0319166001600160a01b0383161790555b6004805461ffff19169055613ee833614247565b6001600160a01b0381163b6145e45760405162461bcd60e51b8152602060048201526018602482015277496c6c6567616c20436f6e7472616374204164647265737360401b6044820152606401611787565b600080516020615ea183398151915280546001600160a01b0319166001600160a01b0392909216919091179055565b606061461e846146b6565b60008351118061462b5750815b156146665761420184846040518060400160405280601381526020017211195b1959d85d1958d85b1b0811985a5b1959606a1b8152506142be565b505060408051600081526020810190915292915050565b6060831561468c575081611012565b82511561469c5782518084602001fd5b8160405162461bcd60e51b81526004016117879190614cb8565b6146bf81614592565b6040516001600160a01b03821690309033907f354bd4b6eb65d64e6c79c53fa4f983a5e6bec4824ce4627c71be0b2722f4917e90600090a450565b6001600160e01b031981168114613fb457600080fd5b60006020828403121561472257600080fd5b8135611012816146fa565b60008060006060848603121561474257600080fd5b833592506020840135614754816146fa565b929592945050506040919091013590565b6001600160a01b0381168114613fb457600080fd5b60006020828403121561478c57600080fd5b813561101281614765565b6000602082840312156147a957600080fd5b5035919050565b600080604083850312156147c357600080fd5b8235915060208301356147d5816146fa565b809150509250929050565b6020808252825182820181905260009190848201906040850190845b818110156148225783516001600160e01b031916835292840192918401916001016147fc565b50909695505050505050565b6020808252825182820181905260009190848201906040850190845b818110156148225783518352928401929184019160010161484a565b60005b83811015614881578181015183820152602001614869565b50506000910152565b600081518084526148a2816020860160208601614866565b601f01601f19169290920160200192915050565b6060815260006148c9606083018661488a565b931515602083015250901515604090910152919050565b6020808252825182820181905260009190848201906040850190845b818110156148225783516001600160a01b0316835292840192918401916001016148fc565b60008083601f84011261493357600080fd5b5081356001600160401b0381111561494a57600080fd5b60208301915083602082850101111561496257600080fd5b9250929050565b8015158114613fb457600080fd5b60008060006040848603121561498c57600080fd5b83356001600160401b038111156149a257600080fd5b6149ae86828701614921565b90945092505060208401356149c281614969565b809150509250925092565b6000602082840312156149df57600080fd5b813561101281614969565b60008060008060608587031215614a0057600080fd5b84356001600160401b03811115614a1657600080fd5b614a2287828801614921565b9095509350506020850135614a3681614969565b91506040850135614a4681614969565b939692955090935050565b60008060008060008060006080888a031215614a6c57600080fd5b87356001600160401b0380821115614a8357600080fd5b614a8f8b838c01614921565b909950975060208a0135915080821115614aa857600080fd5b614ab48b838c01614921565b909750955060408a0135915080821115614acd57600080fd5b50614ada8a828b01614921565b9094509250506060880135614aee81614765565b8091505092959891949750929550565b604081526000614b11604083018561488a565b905082151560208301529392505050565b600080600060608486031215614b3757600080fd5b833592506020840135915060408401356149c2816146fa565b60008060408385031215614b6357600080fd5b8235915060208301356147d581614969565b634e487b7160e01b600052604160045260246000fd5b604051606081016001600160401b0381118282101715614bad57614bad614b75565b60405290565b604051601f8201601f191681016001600160401b0381118282101715614bdb57614bdb614b75565b604052919050565b60006001600160401b03821115614bfc57614bfc614b75565b50601f01601f191660200190565b600082601f830112614c1b57600080fd5b8135614c2e614c2982614be3565b614bb3565b818152846020838601011115614c4357600080fd5b816020850160208301376000918101602001919091529392505050565b600080600060608486031215614c7557600080fd5b8335614c8081614765565b925060208401356001600160401b03811115614c9b57600080fd5b614ca786828701614c0a565b92505060408401356149c281614969565b602081526000611012602083018461488a565b60008083601f840112614cdd57600080fd5b5081356001600160401b03811115614cf457600080fd5b6020830191508360208260051b850101111561496257600080fd5b600080600080848603610120811215614d2757600080fd5b85356001600160401b0380821115614d3e57600080fd5b614d4a89838a01614c0a565b965060e0601f1984011215614d5e57600080fd5b602088019550610100880135925080831115614d7957600080fd5b5050614d8787828801614ccb565b95989497509550505050565b60008060408385031215614da657600080fd5b8235915060208301356147d581614765565b60008060208385031215614dcb57600080fd5b82356001600160401b0380821115614de257600080fd5b818501915085601f830112614df657600080fd5b813581811115614e0557600080fd5b8660208260061b8501011115614e1a57600080fd5b60209290920196919550909350505050565b60008060208385031215614e3f57600080fd5b82356001600160401b03811115614e5557600080fd5b614e6185828601614ccb565b90969095509350505050565b60008060008060608587031215614e8357600080fd5b84356001600160401b03811115614e9957600080fd5b614ea587828801614921565b909550935050602085013591506040850135614a4681614969565b606081526000614ed3606083018661488a565b602083019490945250901515604090910152919050565b600080600060608486031215614eff57600080fd5b833592506020840135614f1181614765565b915060408401356149c2816146fa565b60008060408385031215614f3457600080fd5b50508035926020909101359150565b600060a08284031215614f5557600080fd5b50919050565b60008060008060006101008688031215614f7457600080fd5b8535945060208601356001600160401b0380821115614f9257600080fd5b614f9e89838a01614c0a565b9550614fad8960408a01614f43565b945060e0880135915080821115614fc357600080fd5b50614fd088828901614ccb565b969995985093965092949392505050565b60008060008060e08587031215614ff757600080fd5b84356001600160401b038082111561500e57600080fd5b61501a88838901614c0a565b95506150298860208901614f43565b945060c087013591508082111561503f57600080fd5b50614d8787828801614ccb565b93845260208401929092526001600160e01b0319166040830152606082015260800190565b60006020828403121561508357600080fd5b5051919050565b6001600160e01b0319929092168252602082015260400190565b6000602082840312156150b657600080fd5b815161101281614969565b92835260208301919091526001600160e01b031916604082015260600190565b60006001600160401b038211156150fa576150fa614b75565b5060051b60200190565b600082601f83011261511557600080fd5b81516020615125614c29836150e1565b82815260059290921b8401810191818101908684111561514457600080fd5b8286015b8481101561516857805161515b816146fa565b8352918301918301615148565b509695505050505050565b60006020828403121561518557600080fd5b81516001600160401b0381111561519b57600080fd5b61225e84828501615104565b600060208083850312156151ba57600080fd5b82516001600160401b038111156151d057600080fd5b8301601f810185136151e157600080fd5b80516151ef614c29826150e1565b81815260059190911b8201830190838101908783111561520e57600080fd5b928401925b8284101561522c57835182529284019290840190615213565b979650505050505050565b600082601f83011261524857600080fd5b8151615256614c2982614be3565b81815284602083860101111561526b57600080fd5b61225e826020830160208701614866565b60008060006060848603121561529157600080fd5b83516001600160401b038111156152a757600080fd5b6152b386828701615237565b93505060208401516152c481614969565b60408501519092506149c281614969565b634e487b7160e01b600052603260045260246000fd5b81835281816020850137506000828201602090810191909152601f909101601f19169091010190565b84815260606020820152600061532e6060830185876152eb565b9050821515604083015295945050505050565b6040815260006153556040830185876152eb565b90508215156020830152949350505050565b602080825260159082015274125b1b1959d85b0810dbdb9d1c9858dd0810d85b1b605a1b604082015260600190565b602080825260149082015273141c9bde1e4810d85b1b195908125b9d985b1a5960621b604082015260600190565b60208082526017908201527f536166654d6f64653a2043616c6c2052656a6563746564000000000000000000604082015260600190565b8581526080602082015260006154156080830186886152eb565b9315156040830152509015156060909101529392505050565b6060815260006154426060830186886152eb565b93151560208301525090151560409091015292915050565b8183823760009101908152919050565b6000602080838503121561547d57600080fd5b82516001600160401b038082111561549457600080fd5b818501915085601f8301126154a857600080fd5b81516154b6614c29826150e1565b81815260059190911b830184019084810190888311156154d557600080fd5b8585015b83811015615560578051858111156154f15760008081fd5b86016060818c03601f19018113156155095760008081fd5b615511614b8b565b8983015181526040808401518981111561552b5760008081fd5b6155398f8d83880101615104565b838d015250928201519261554c84614969565b8101929092525083529186019186016154d9565b5098975050505050505050565b60006080808301878452602060018060a01b03881681860152604087818701526060848188015283885180865260a08901915060a08160051b8a01019550848a016000805b83811015615631578b8903609f19018552825180518a5288810151898b018890528051888c01819052908a019084908d8d01905b808310156156105783516001600160e01b0319168252928c019260019290920191908c01906155e6565b50928a015115159b8a019b909b5250985093870193918701916001016155b2565b50969e9d5050505050505050505050505050565b60808152600061565960808301888a6152eb565b828103602084015261566c8187896152eb565b91505083604083015261ffff83166060830152979650505050505050565b6000806040838503121561569d57600080fd5b82516001600160401b038111156156b357600080fd5b6156bf85828601615237565b92505060208301516147d581614969565b600080604083850312156156e357600080fd5b82516156ee81614969565b6020939093015192949293505050565b6000808335601e1984360301811261571557600080fd5b83016020810192503590506001600160401b0381111561573457600080fd5b8060051b360382131561496257600080fd5b8183526000602080850194508260005b85811015615785578135615769816146fa565b6001600160e01b03191687529582019590820190600101615756565b509495945050505050565b60008235605e198336030181126157a657600080fd5b90910192915050565b81835260006020808501808196508560051b810191508460005b878110156158345782840389526157e08288615790565b6060813586526157f2878301836156fe565b82898901526158048389018284615746565b92505050604080830135925061581983614969565b911515959091019490945297840197908401906001016157c9565b5091979650505050505050565b600061014087835280602084015261585b8184018861488a565b9050853560408401526020860135606084015260408601356080840152606086013560a0840152608086013561589081614765565b6001600160a01b0390811660c085015260a0870135906158af82614765565b1660e084015260c08601356158c381614969565b15156101008401528281036101208401526158df8185876157af565b98975050505050505050565b60008060006060848603121561590057600080fd5b835161590b81614765565b6020850151604086015191945092506149c281614765565b634e487b7160e01b600052601160045260246000fd5b60006001820161594b5761594b615923565b5060010190565b8381526040602080830182905282820184905260009190859060608501845b8781101561556057833582528284013561598a81614765565b6001600160a01b0316828401529284019290840190600101615971565b600060408083018684526020828186015281868352606092508286019050828760051b8701018860005b89811015615a6e57888303605f190184526159ec828c615790565b8035845285810135601e19823603018112615a0657600080fd5b810186810190356001600160401b03811115615a2157600080fd5b803603821315615a3057600080fd5b8888870152615a4289870182846152eb565b915050888201359150615a5482614969565b9015159388019390935292840192908401906001016159d1565b50909a9950505050505050505050565b60008235605e19833603018112615a9457600080fd5b9190910192915050565b6000808335601e19843603018112615ab557600080fd5b8301803591506001600160401b03821115615acf57600080fd5b60200191503681900382131561496257600080fd5b600060c08284031215615af657600080fd5b60405160c081018181106001600160401b0382111715615b1857615b18614b75565b80604052508251815260208301516020820152604083015160408201526060830151615b4381614765565b60608201526080830151615b5681614969565b608082015260a0830151615b6981614969565b60a08201529392505050565b858152608060208201526000615b8f6080830186886152eb565b6040830194909452509015156060909101529392505050565b600080600060608486031215615bbd57600080fd5b83516001600160401b03811115615bd357600080fd5b615bdf86828701615237565b9350506020840151915060408401516149c281614969565b60006020808385031215615c0a57600080fd5b82516001600160401b03811115615c2057600080fd5b8301601f81018513615c3157600080fd5b8051615c3f614c29826150e1565b81815260059190911b82018301908381019087831115615c5e57600080fd5b928401925b8284101561522c578351615c7681614765565b82529284019290840190615c63565b8035825260208101356020830152604081013560408301526060810135615cab81614765565b6001600160a01b031660608301526080810135615cc781614969565b8015156080840152505050565b60006101208883526020888185015260408281860152615cf68386018a61488a565b92506060615d068187018a615c85565b858403610100870152868452828401600588901b85018401896000805b8b811015615d8857888403601f19018552615d3e838e615790565b80358552615d4e898201826156fe565b888b880152615d608988018284615746565b928a01359291505060038210615d74578384fd5b948801529387019391870191600101615d23565b50919f9e505050505050505050505050505050565b60008060408385031215615db057600080fd5b8251615dbb81614765565b60208401519092506147d581614765565b6000610100878352806020840152615de68184018861488a565b9050615df56040840187615c85565b82810360e08401526158df8185876157af565b60008060408385031215615e1b57600080fd5b8251915060208301516147d581614765565b9283526001600160a01b039190911660208301526001600160e01b031916604082015260600190565b81810381811115610f3d57610f3d615923565b60008251615a9481846020870161486656fe44656c656761746563616c6c2069735265616c6d55706772616461626c65204661696c6564360894a13ba1a3210667c828492db98dca3e2076cc3735a920a3ca505d382bbca26469706673582212205c8f911388f186d2743e719de9aa2b22d006cd231c294ca0fda0d69a68bc8a2564736f6c63430008110033b53127684a568b3173ae13b9f8a6016e243e63b6e8ee1178d6a717850b5d6103",
  "linkReferences": {
    "src/contracts/lib/acl/LAccessControl.sol": {
      "LAccessControl": [
        {
          "length": 20,
          "start": 4608
        },
        {
          "length": 20,
          "start": 4735
        },
        {
          "length": 20,
          "start": 4787
        },
        {
          "length": 20,
          "start": 4928
        },
        {
          "length": 20,
          "start": 5124
        },
        {
          "length": 20,
          "start": 5190
        },
        {
          "length": 20,
          "start": 5564
        },
        {
          "length": 20,
          "start": 6169
        },
        {
          "length": 20,
          "start": 6870
        },
        {
          "length": 20,
          "start": 7393
        },
        {
          "length": 20,
          "start": 7674
        },
        {
          "length": 20,
          "start": 7740
        },
        {
          "length": 20,
          "start": 7957
        },
        {
          "length": 20,
          "start": 8480
        },
        {
          "length": 20,
          "start": 8575
        },
        {
          "length": 20,
          "start": 10630
        },
        {
          "length": 20,
          "start": 10832
        },
        {
          "length": 20,
          "start": 11128
        },
        {
          "length": 20,
          "start": 11796
        },
        {
          "length": 20,
          "start": 11870
        },
        {
          "length": 20,
          "start": 12174
        },
        {
          "length": 20,
          "start": 12745
        },
        {
          "length": 20,
          "start": 12819
        },
        {
          "length": 20,
          "start": 12885
        },
        {
          "length": 20,
          "start": 13212
        },
        {
          "length": 20,
          "start": 13647
        },
        {
          "length": 20,
          "start": 14298
        },
        {
          "length": 20,
          "start": 14630
        }
      ]
    },
    "src/contracts/lib/acl/LContextManagement.sol": {
      "LContextManagement": [
        {
          "length": 20,
          "start": 4359
        },
        {
          "length": 20,
          "start": 4994
        },
        {
          "length": 20,
          "start": 5636
        },
        {
          "length": 20,
          "start": 6208
        },
        {
          "length": 20,
          "start": 8704
        },
        {
          "length": 20,
          "start": 9150
        },
        {
          "length": 20,
          "start": 9297
        },
        {
          "length": 20,
          "start": 9964
        },
        {
          "length": 20,
          "start": 10160
        },
        {
          "length": 20,
          "start": 11670
        },
        {
          "length": 20,
          "start": 12224
        },
        {
          "length": 20,
          "start": 13370
        },
        {
          "length": 20,
          "start": 14671
        },
        {
          "length": 20,
          "start": 15160
        }
      ]
    },
    "src/contracts/lib/acl/LGroupManagement.sol": {
      "LGroupManagement": [
        {
          "length": 20,
          "start": 5852
        },
        {
          "length": 20,
          "start": 5924
        },
        {
          "length": 20,
          "start": 8988
        },
        {
          "length": 20,
          "start": 12536
        },
        {
          "length": 20,
          "start": 15119
        },
        {
          "length": 20,
          "start": 15588
        }
      ]
    },
    "src/contracts/lib/acl/LRealmManagement.sol": {
      "LRealmManagement": [
        {
          "length": 20,
          "start": 5256
        },
        {
          "length": 20,
          "start": 5412
        },
        {
          "length": 20,
          "start": 5708
        },
        {
          "length": 20,
          "start": 7432
        },
        {
          "length": 20,
          "start": 10564
        },
        {
          "length": 20,
          "start": 13573
        },
        {
          "length": 20,
          "start": 15515
        }
      ]
    },
    "src/contracts/lib/acl/LRoleManagement.sol": {
      "LRoleManagement": [
        {
          "length": 20,
          "start": 5780
        },
        {
          "length": 20,
          "start": 10766
        },
        {
          "length": 20,
          "start": 11051
        },
        {
          "length": 20,
          "start": 11168
        },
        {
          "length": 20,
          "start": 11909
        },
        {
          "length": 20,
          "start": 12607
        },
        {
          "length": 20,
          "start": 13104
        },
        {
          "length": 20,
          "start": 13293
        },
        {
          "length": 20,
          "start": 14102
        },
        {
          "length": 20,
          "start": 14434
        },
        {
          "length": 20,
          "start": 14500
        },
        {
          "length": 20,
          "start": 14921
        }
      ]
    }
  },
  "deployedLinkReferences": {
    "src/contracts/lib/acl/LAccessControl.sol": {
      "LAccessControl": [
        {
          "length": 20,
          "start": 4161
        },
        {
          "length": 20,
          "start": 4288
        },
        {
          "length": 20,
          "start": 4340
        },
        {
          "length": 20,
          "start": 4481
        },
        {
          "length": 20,
          "start": 4677
        },
        {
          "length": 20,
          "start": 4743
        },
        {
          "length": 20,
          "start": 5117
        },
        {
          "length": 20,
          "start": 5722
        },
        {
          "length": 20,
          "start": 6423
        },
        {
          "length": 20,
          "start": 6946
        },
        {
          "length": 20,
          "start": 7227
        },
        {
          "length": 20,
          "start": 7293
        },
        {
          "length": 20,
          "start": 7510
        },
        {
          "length": 20,
          "start": 8033
        },
        {
          "length": 20,
          "start": 8128
        },
        {
          "length": 20,
          "start": 10183
        },
        {
          "length": 20,
          "start": 10385
        },
        {
          "length": 20,
          "start": 10681
        },
        {
          "length": 20,
          "start": 11349
        },
        {
          "length": 20,
          "start": 11423
        },
        {
          "length": 20,
          "start": 11727
        },
        {
          "length": 20,
          "start": 12298
        },
        {
          "length": 20,
          "start": 12372
        },
        {
          "length": 20,
          "start": 12438
        },
        {
          "length": 20,
          "start": 12765
        },
        {
          "length": 20,
          "start": 13200
        },
        {
          "length": 20,
          "start": 13851
        },
        {
          "length": 20,
          "start": 14183
        }
      ]
    },
    "src/contracts/lib/acl/LContextManagement.sol": {
      "LContextManagement": [
        {
          "length": 20,
          "start": 3912
        },
        {
          "length": 20,
          "start": 4547
        },
        {
          "length": 20,
          "start": 5189
        },
        {
          "length": 20,
          "start": 5761
        },
        {
          "length": 20,
          "start": 8257
        },
        {
          "length": 20,
          "start": 8703
        },
        {
          "length": 20,
          "start": 8850
        },
        {
          "length": 20,
          "start": 9517
        },
        {
          "length": 20,
          "start": 9713
        },
        {
          "length": 20,
          "start": 11223
        },
        {
          "length": 20,
          "start": 11777
        },
        {
          "length": 20,
          "start": 12923
        },
        {
          "length": 20,
          "start": 14224
        },
        {
          "length": 20,
          "start": 14713
        }
      ]
    },
    "src/contracts/lib/acl/LGroupManagement.sol": {
      "LGroupManagement": [
        {
          "length": 20,
          "start": 5405
        },
        {
          "length": 20,
          "start": 5477
        },
        {
          "length": 20,
          "start": 8541
        },
        {
          "length": 20,
          "start": 12089
        },
        {
          "length": 20,
          "start": 14672
        },
        {
          "length": 20,
          "start": 15141
        }
      ]
    },
    "src/contracts/lib/acl/LRealmManagement.sol": {
      "LRealmManagement": [
        {
          "length": 20,
          "start": 4809
        },
        {
          "length": 20,
          "start": 4965
        },
        {
          "length": 20,
          "start": 5261
        },
        {
          "length": 20,
          "start": 6985
        },
        {
          "length": 20,
          "start": 10117
        },
        {
          "length": 20,
          "start": 13126
        },
        {
          "length": 20,
          "start": 15068
        }
      ]
    },
    "src/contracts/lib/acl/LRoleManagement.sol": {
      "LRoleManagement": [
        {
          "length": 20,
          "start": 5333
        },
        {
          "length": 20,
          "start": 10319
        },
        {
          "length": 20,
          "start": 10604
        },
        {
          "length": 20,
          "start": 10721
        },
        {
          "length": 20,
          "start": 11462
        },
        {
          "length": 20,
          "start": 12160
        },
        {
          "length": 20,
          "start": 12657
        },
        {
          "length": 20,
          "start": 12846
        },
        {
          "length": 20,
          "start": 13655
        },
        {
          "length": 20,
          "start": 13987
        },
        {
          "length": 20,
          "start": 14053
        },
        {
          "length": 20,
          "start": 14474
        }
      ]
    }
  },
  "devdoc": {
    "kind": "dev",
    "methods": {
      "hasAccess(bytes32,address,bytes4)": {
        "details": "Function called by apps to check ACL",
        "returns": {
          "_0": "boolean indicating whether the ACL allows"
        }
      },
      "proxiableUUID()": {
        "details": "Implementation of the ERC1822 {proxiableUUID} function. This returns the storage slot used by the implementation. It is used to validate that the this implementation remains valid after an upgrade. IMPORTANT: A proxy pointing at a proxiable contract should not be considered proxiable itself, because this risks bricking a proxy that upgrades to it, by delegating to itself until out of gas. Thus it is critical that this function revert if invoked through a proxy. This is guaranteed by the `notDelegated` modifier."
      },
      "supportsInterface(bytes4)": {
        "details": "See {IERC165-supportsInterface}."
      }
    },
    "version": 1
  },
  "evm": {
    "bytecode": {
      "linkReferences": {
        "src/contracts/lib/acl/LAccessControl.sol": {
          "LAccessControl": [
            {
              "length": 20,
              "start": 4608
            },
            {
              "length": 20,
              "start": 4735
            },
            {
              "length": 20,
              "start": 4787
            },
            {
              "length": 20,
              "start": 4928
            },
            {
              "length": 20,
              "start": 5124
            },
            {
              "length": 20,
              "start": 5190
            },
            {
              "length": 20,
              "start": 5564
            },
            {
              "length": 20,
              "start": 6169
            },
            {
              "length": 20,
              "start": 6870
            },
            {
              "length": 20,
              "start": 7393
            },
            {
              "length": 20,
              "start": 7674
            },
            {
              "length": 20,
              "start": 7740
            },
            {
              "length": 20,
              "start": 7957
            },
            {
              "length": 20,
              "start": 8480
            },
            {
              "length": 20,
              "start": 8575
            },
            {
              "length": 20,
              "start": 10630
            },
            {
              "length": 20,
              "start": 10832
            },
            {
              "length": 20,
              "start": 11128
            },
            {
              "length": 20,
              "start": 11796
            },
            {
              "length": 20,
              "start": 11870
            },
            {
              "length": 20,
              "start": 12174
            },
            {
              "length": 20,
              "start": 12745
            },
            {
              "length": 20,
              "start": 12819
            },
            {
              "length": 20,
              "start": 12885
            },
            {
              "length": 20,
              "start": 13212
            },
            {
              "length": 20,
              "start": 13647
            },
            {
              "length": 20,
              "start": 14298
            },
            {
              "length": 20,
              "start": 14630
            }
          ]
        },
        "src/contracts/lib/acl/LContextManagement.sol": {
          "LContextManagement": [
            {
              "length": 20,
              "start": 4359
            },
            {
              "length": 20,
              "start": 4994
            },
            {
              "length": 20,
              "start": 5636
            },
            {
              "length": 20,
              "start": 6208
            },
            {
              "length": 20,
              "start": 8704
            },
            {
              "length": 20,
              "start": 9150
            },
            {
              "length": 20,
              "start": 9297
            },
            {
              "length": 20,
              "start": 9964
            },
            {
              "length": 20,
              "start": 10160
            },
            {
              "length": 20,
              "start": 11670
            },
            {
              "length": 20,
              "start": 12224
            },
            {
              "length": 20,
              "start": 13370
            },
            {
              "length": 20,
              "start": 14671
            },
            {
              "length": 20,
              "start": 15160
            }
          ]
        },
        "src/contracts/lib/acl/LGroupManagement.sol": {
          "LGroupManagement": [
            {
              "length": 20,
              "start": 5852
            },
            {
              "length": 20,
              "start": 5924
            },
            {
              "length": 20,
              "start": 8988
            },
            {
              "length": 20,
              "start": 12536
            },
            {
              "length": 20,
              "start": 15119
            },
            {
              "length": 20,
              "start": 15588
            }
          ]
        },
        "src/contracts/lib/acl/LRealmManagement.sol": {
          "LRealmManagement": [
            {
              "length": 20,
              "start": 5256
            },
            {
              "length": 20,
              "start": 5412
            },
            {
              "length": 20,
              "start": 5708
            },
            {
              "length": 20,
              "start": 7432
            },
            {
              "length": 20,
              "start": 10564
            },
            {
              "length": 20,
              "start": 13573
            },
            {
              "length": 20,
              "start": 15515
            }
          ]
        },
        "src/contracts/lib/acl/LRoleManagement.sol": {
          "LRoleManagement": [
            {
              "length": 20,
              "start": 5780
            },
            {
              "length": 20,
              "start": 10766
            },
            {
              "length": 20,
              "start": 11051
            },
            {
              "length": 20,
              "start": 11168
            },
            {
              "length": 20,
              "start": 11909
            },
            {
              "length": 20,
              "start": 12607
            },
            {
              "length": 20,
              "start": 13104
            },
            {
              "length": 20,
              "start": 13293
            },
            {
              "length": 20,
              "start": 14102
            },
            {
              "length": 20,
              "start": 14434
            },
            {
              "length": 20,
              "start": 14500
            },
            {
              "length": 20,
              "start": 14921
            }
          ]
        }
      },
      "opcodes": "PUSH1 0xA0 PUSH1 0x40 MSTORE ADDRESS PUSH1 0x80 MSTORE CALLVALUE DUP1 ISZERO PUSH3 0x15 JUMPI PUSH1 0x0 DUP1 REVERT JUMPDEST POP PUSH3 0x43 PUSH1 0x1 PUSH32 0x360894A13BA1A3210667C828492DB98DCA3E2076CC3735A920A3CA505D382BBD PUSH3 0x11F JUMP JUMPDEST PUSH32 0x360894A13BA1A3210667C828492DB98DCA3E2076CC3735A920A3CA505D382BBC EQ PUSH3 0x74 JUMPI PUSH3 0x74 PUSH3 0x147 JUMP JUMPDEST PUSH3 0xA1 PUSH1 0x1 PUSH32 0xB53127684A568B3173AE13B9F8A6016E243E63B6E8EE1178D6A717850B5D6104 PUSH3 0x11F JUMP JUMPDEST PUSH1 0x0 DUP1 MLOAD PUSH1 0x20 PUSH3 0x60B5 DUP4 CODECOPY DUP2 MLOAD SWAP2 MSTORE EQ PUSH3 0xC1 JUMPI PUSH3 0xC1 PUSH3 0x147 JUMP JUMPDEST CALLER PUSH3 0xEA PUSH1 0x0 DUP1 MLOAD PUSH1 0x20 PUSH3 0x60B5 DUP4 CODECOPY DUP2 MLOAD SWAP2 MSTORE PUSH1 0x0 SHL PUSH3 0x11C PUSH1 0x20 SHL PUSH3 0x3BBF OR PUSH1 0x20 SHR JUMP JUMPDEST DUP1 SLOAD PUSH1 0x1 PUSH1 0x1 PUSH1 0xA0 SHL SUB NOT AND PUSH1 0x1 PUSH1 0x1 PUSH1 0xA0 SHL SUB SWAP3 SWAP1 SWAP3 AND SWAP2 SWAP1 SWAP2 OR SWAP1 SSTORE PUSH1 0x4 DUP1 SLOAD PUSH2 0xFFFF NOT AND PUSH1 0x1 OR SWAP1 SSTORE PUSH3 0x15D JUMP JUMPDEST SWAP1 JUMP JUMPDEST DUP2 DUP2 SUB DUP2 DUP2 GT ISZERO PUSH3 0x141 JUMPI PUSH4 0x4E487B71 PUSH1 0xE0 SHL PUSH1 0x0 MSTORE PUSH1 0x11 PUSH1 0x4 MSTORE PUSH1 0x24 PUSH1 0x0 REVERT JUMPDEST SWAP3 SWAP2 POP POP JUMP JUMPDEST PUSH4 0x4E487B71 PUSH1 0xE0 SHL PUSH1 0x0 MSTORE PUSH1 0x1 PUSH1 0x4 MSTORE PUSH1 0x24 PUSH1 0x0 REVERT JUMPDEST PUSH1 0x80 MLOAD PUSH2 0x5EF6 PUSH3 0x1BF PUSH1 0x0 CODECOPY PUSH1 0x0 DUP2 DUP2 PUSH2 0x1749 ADD MSTORE DUP2 DUP2 PUSH2 0x1792 ADD MSTORE DUP2 DUP2 PUSH2 0x1945 ADD MSTORE DUP2 DUP2 PUSH2 0x1985 ADD MSTORE DUP2 DUP2 PUSH2 0x1CAC ADD MSTORE DUP2 DUP2 PUSH2 0x1D82 ADD MSTORE DUP2 DUP2 PUSH2 0x1DC2 ADD MSTORE DUP2 DUP2 PUSH2 0x2354 ADD MSTORE DUP2 DUP2 PUSH2 0x2394 ADD MSTORE DUP2 DUP2 PUSH2 0x33BE ADD MSTORE PUSH2 0x33FE ADD MSTORE PUSH2 0x5EF6 PUSH1 0x0 RETURN INVALID PUSH1 0x80 PUSH1 0x40 MSTORE PUSH1 0x4 CALLDATASIZE LT PUSH2 0x43C JUMPI PUSH1 0x0 CALLDATALOAD PUSH1 0xE0 SHR DUP1 PUSH4 0x8F09E0F0 GT PUSH2 0x232 JUMPI DUP1 PUSH4 0xC7AB39E6 GT PUSH2 0x12D JUMPI DUP1 PUSH4 0xE1ED0A82 GT PUSH2 0xB0 JUMPI DUP1 PUSH4 0xF1DF49DA GT PUSH2 0x77 JUMPI DUP1 PUSH4 0xF1DF49DA EQ PUSH2 0xE22 JUMPI DUP1 PUSH4 0xF2C673BD EQ PUSH2 0xE42 JUMPI DUP1 PUSH4 0xF5122C92 EQ PUSH2 0xE62 JUMPI DUP1 PUSH4 0xF698DA25 EQ PUSH2 0xE82 JUMPI DUP1 PUSH4 0xF94A0ADB EQ PUSH2 0xE97 JUMPI STOP JUMPDEST DUP1 PUSH4 0xE1ED0A82 EQ PUSH2 0xD82 JUMPI DUP1 PUSH4 0xE25D75F0 EQ PUSH2 0xDA2 JUMPI DUP1 PUSH4 0xE65BE468 EQ PUSH2 0xDC2 JUMPI DUP1 PUSH4 0xE71E224E EQ PUSH2 0xDE2 JUMPI DUP1 PUSH4 0xEDF1D1CB EQ PUSH2 0xE02 JUMPI STOP JUMPDEST DUP1 PUSH4 0xD9D34BF8 GT PUSH2 0xF4 JUMPI DUP1 PUSH4 0xD9D34BF8 EQ PUSH2 0xCE2 JUMPI DUP1 PUSH4 0xD9DC1F19 EQ PUSH2 0xD02 JUMPI DUP1 PUSH4 0xDBF304B0 EQ PUSH2 0xD22 JUMPI DUP1 PUSH4 0xDC853DD0 EQ PUSH2 0xD42 JUMPI DUP1 PUSH4 0xDF01DE45 EQ PUSH2 0xD62 JUMPI STOP JUMPDEST DUP1 PUSH4 0xC7AB39E6 EQ PUSH2 0xC4D JUMPI DUP1 PUSH4 0xC7EA945C EQ PUSH2 0xC6D JUMPI DUP1 PUSH4 0xD3386401 EQ PUSH2 0xC8D JUMPI DUP1 PUSH4 0xD3E024B8 EQ PUSH2 0xCAD JUMPI DUP1 PUSH4 0xD9ABA36E EQ PUSH2 0xCC2 JUMPI STOP JUMPDEST DUP1 PUSH4 0xB4A0BDF3 GT PUSH2 0x1B5 JUMPI DUP1 PUSH4 0xBE409A11 GT PUSH2 0x17C JUMPI DUP1 PUSH4 0xBE409A11 EQ PUSH2 0xB9E JUMPI DUP1 PUSH4 0xBE409B57 EQ PUSH2 0xBCD JUMPI DUP1 PUSH4 0xC34AA021 EQ PUSH2 0xBED JUMPI DUP1 PUSH4 0xC48E7AE6 EQ PUSH2 0xC0D JUMPI DUP1 PUSH4 0xC557020A EQ PUSH2 0xC2D JUMPI STOP JUMPDEST DUP1 PUSH4 0xB4A0BDF3 EQ PUSH2 0xB08 JUMPI DUP1 PUSH4 0xB4C4B58F EQ PUSH2 0xB26 JUMPI DUP1 PUSH4 0xB58966DE EQ PUSH2 0xB46 JUMPI DUP1 PUSH4 0xB6C03F03 EQ PUSH2 0xB66 JUMPI DUP1 PUSH4 0xBE22465D EQ PUSH2 0xB86 JUMPI STOP JUMPDEST DUP1 PUSH4 0x9EBF6246 GT PUSH2 0x1F9 JUMPI DUP1 PUSH4 0x9EBF6246 EQ PUSH2 0xA1F JUMPI DUP1 PUSH4 0xA0A8E460 EQ PUSH2 0xA93 JUMPI DUP1 PUSH4 0xA32CE13D EQ PUSH2 0xAA8 JUMPI DUP1 PUSH4 0xA92F69C1 EQ PUSH2 0xAC8 JUMPI DUP1 PUSH4 0xB2DC26E5 EQ PUSH2 0xAE8 JUMPI STOP JUMPDEST DUP1 PUSH4 0x8F09E0F0 EQ PUSH2 0x97F JUMPI DUP1 PUSH4 0x91690955 EQ PUSH2 0x99F JUMPI DUP1 PUSH4 0x93BA3131 EQ PUSH2 0x9BF JUMPI DUP1 PUSH4 0x94CFD6E3 EQ PUSH2 0x9DF JUMPI DUP1 PUSH4 0x9E3A2CEA EQ PUSH2 0x9FF JUMPI STOP JUMPDEST DUP1 PUSH4 0x4944F532 GT PUSH2 0x342 JUMPI DUP1 PUSH4 0x6B3B0159 GT PUSH2 0x2C5 JUMPI DUP1 PUSH4 0x771BCF45 GT PUSH2 0x28C JUMPI DUP1 PUSH4 0x771BCF45 EQ PUSH2 0x8EA JUMPI DUP1 PUSH4 0x7B443379 EQ PUSH2 0x90A JUMPI DUP1 PUSH4 0x870666CB EQ PUSH2 0x92A JUMPI DUP1 PUSH4 0x8B7DBD6C EQ PUSH2 0x93F JUMPI DUP1 PUSH4 0x8E703826 EQ PUSH2 0x95F JUMPI STOP JUMPDEST DUP1 PUSH4 0x6B3B0159 EQ PUSH2 0x848 JUMPI DUP1 PUSH4 0x70420EE3 EQ PUSH2 0x868 JUMPI DUP1 PUSH4 0x7147855D EQ PUSH2 0x888 JUMPI DUP1 PUSH4 0x756AF45F EQ PUSH2 0x8B5 JUMPI DUP1 PUSH4 0x75D0C0DC EQ PUSH2 0x8D5 JUMPI STOP JUMPDEST DUP1 PUSH4 0x5479D940 GT PUSH2 0x309 JUMPI DUP1 PUSH4 0x5479D940 EQ PUSH2 0x790 JUMPI DUP1 PUSH4 0x58DBC45D EQ PUSH2 0x7AD JUMPI DUP1 PUSH4 0x5BDAECCE EQ PUSH2 0x7DA JUMPI DUP1 PUSH4 0x5C6D8DA1 EQ PUSH2 0x7FA JUMPI DUP1 PUSH4 0x6B2B7DD8 EQ PUSH2 0x81A JUMPI STOP JUMPDEST DUP1 PUSH4 0x4944F532 EQ PUSH2 0x6FB JUMPI DUP1 PUSH4 0x4BB1BE8C EQ PUSH2 0x71B JUMPI DUP1 PUSH4 0x4DC13C8F EQ PUSH2 0x73B JUMPI DUP1 PUSH4 0x51E70BB0 EQ PUSH2 0x75B JUMPI DUP1 PUSH4 0x52D1902D EQ PUSH2 0x77B JUMPI STOP JUMPDEST DUP1 PUSH4 0x37BFBFE8 GT PUSH2 0x3CA JUMPI DUP1 PUSH4 0x41565673 GT PUSH2 0x391 JUMPI DUP1 PUSH4 0x41565673 EQ PUSH2 0x65B JUMPI DUP1 PUSH4 0x4346A04B EQ PUSH2 0x67B JUMPI DUP1 PUSH4 0x44B7E5F2 EQ PUSH2 0x69B JUMPI DUP1 PUSH4 0x45B5203C EQ PUSH2 0x6BB JUMPI DUP1 PUSH4 0x48E6BE1C EQ PUSH2 0x6DB JUMPI STOP JUMPDEST DUP1 PUSH4 0x37BFBFE8 EQ PUSH2 0x587 JUMPI DUP1 PUSH4 0x38D38C97 EQ PUSH2 0x5B4 JUMPI DUP1 PUSH4 0x3C7D5B25 EQ PUSH2 0x5DC JUMPI DUP1 PUSH4 0x3E02BC38 EQ PUSH2 0x60B JUMPI DUP1 PUSH4 0x3F4C99B8 EQ PUSH2 0x62D JUMPI STOP JUMPDEST DUP1 PUSH4 0x11B529B3 GT PUSH2 0x40E JUMPI DUP1 PUSH4 0x11B529B3 EQ PUSH2 0x4DA JUMPI DUP1 PUSH4 0x1846D125 EQ PUSH2 0x4FA JUMPI DUP1 PUSH4 0x2E2ADF00 EQ PUSH2 0x51A JUMPI DUP1 PUSH4 0x2F032EDD EQ PUSH2 0x547 JUMPI DUP1 PUSH4 0x3228144D EQ PUSH2 0x567 JUMPI STOP JUMPDEST DUP1 PUSH4 0x1FFC9A7 EQ PUSH2 0x445 JUMPI DUP1 PUSH4 0x31C0493 EQ PUSH2 0x47A JUMPI DUP1 PUSH4 0x76A6F22 EQ PUSH2 0x49A JUMPI DUP1 PUSH4 0x101DF54D EQ PUSH2 0x4BA JUMPI STOP JUMPDEST CALLDATASIZE PUSH2 0x443 JUMPI STOP JUMPDEST STOP JUMPDEST CALLVALUE DUP1 ISZERO PUSH2 0x451 JUMPI PUSH1 0x0 DUP1 REVERT JUMPDEST POP PUSH2 0x465 PUSH2 0x460 CALLDATASIZE PUSH1 0x4 PUSH2 0x4710 JUMP JUMPDEST PUSH2 0xEAC JUMP JUMPDEST PUSH1 0x40 MLOAD SWAP1 ISZERO ISZERO DUP2 MSTORE PUSH1 0x20 ADD JUMPDEST PUSH1 0x40 MLOAD DUP1 SWAP2 SUB SWAP1 RETURN JUMPDEST CALLVALUE DUP1 ISZERO PUSH2 0x486 JUMPI PUSH1 0x0 DUP1 REVERT JUMPDEST POP PUSH2 0x465 PUSH2 0x495 CALLDATASIZE PUSH1 0x4 PUSH2 0x472D JUMP JUMPDEST PUSH2 0xF43 JUMP JUMPDEST CALLVALUE DUP1 ISZERO PUSH2 0x4A6 JUMPI PUSH1 0x0 DUP1 REVERT JUMPDEST POP PUSH2 0x465 PUSH2 0x4B5 CALLDATASIZE PUSH1 0x4 PUSH2 0x477A JUMP JUMPDEST PUSH2 0x1019 JUMP JUMPDEST CALLVALUE DUP1 ISZERO PUSH2 0x4C6 JUMPI PUSH1 0x0 DUP1 REVERT JUMPDEST POP PUSH2 0x465 PUSH2 0x4D5 CALLDATASIZE PUSH1 0x4 PUSH2 0x4797 JUMP JUMPDEST PUSH2 0x10A0 JUMP JUMPDEST CALLVALUE DUP1 ISZERO PUSH2 0x4E6 JUMPI PUSH1 0x0 DUP1 REVERT JUMPDEST POP PUSH2 0x465 PUSH2 0x4F5 CALLDATASIZE PUSH1 0x4 PUSH2 0x47B0 JUMP JUMPDEST PUSH2 0x10E2 JUMP JUMPDEST CALLVALUE DUP1 ISZERO PUSH2 0x506 JUMPI PUSH1 0x0 DUP1 REVERT JUMPDEST POP PUSH2 0x465 PUSH2 0x515 CALLDATASIZE PUSH1 0x4 PUSH2 0x4797 JUMP JUMPDEST PUSH2 0x1162 JUMP JUMPDEST CALLVALUE DUP1 ISZERO PUSH2 0x526 JUMPI PUSH1 0x0 DUP1 REVERT JUMPDEST POP PUSH2 0x53A PUSH2 0x535 CALLDATASIZE PUSH1 0x4 PUSH2 0x4797 JUMP JUMPDEST PUSH2 0x11A3 JUMP JUMPDEST PUSH1 0x40 MLOAD PUSH2 0x471 SWAP2 SWAP1 PUSH2 0x47E0 JUMP JUMPDEST CALLVALUE DUP1 ISZERO PUSH2 0x553 JUMPI PUSH1 0x0 DUP1 REVERT JUMPDEST POP PUSH2 0x465 PUSH2 0x562 CALLDATASIZE PUSH1 0x4 PUSH2 0x4797 JUMP JUMPDEST PUSH2 0x1225 JUMP JUMPDEST CALLVALUE DUP1 ISZERO PUSH2 0x573 JUMPI PUSH1 0x0 DUP1 REVERT JUMPDEST POP PUSH2 0x465 PUSH2 0x582 CALLDATASIZE PUSH1 0x4 PUSH2 0x4797 JUMP JUMPDEST PUSH2 0x1267 JUMP JUMPDEST CALLVALUE DUP1 ISZERO PUSH2 0x593 JUMPI PUSH1 0x0 DUP1 REVERT JUMPDEST POP PUSH2 0x5A7 PUSH2 0x5A2 CALLDATASIZE PUSH1 0x4 PUSH2 0x4797 JUMP JUMPDEST PUSH2 0x12A9 JUMP JUMPDEST PUSH1 0x40 MLOAD PUSH2 0x471 SWAP2 SWAP1 PUSH2 0x482E JUMP JUMPDEST CALLVALUE DUP1 ISZERO PUSH2 0x5C0 JUMPI PUSH1 0x0 DUP1 REVERT JUMPDEST POP PUSH2 0x5C9 PUSH2 0x132C JUMP JUMPDEST PUSH1 0x40 MLOAD PUSH2 0xFFFF SWAP1 SWAP2 AND DUP2 MSTORE PUSH1 0x20 ADD PUSH2 0x471 JUMP JUMPDEST CALLVALUE DUP1 ISZERO PUSH2 0x5E8 JUMPI PUSH1 0x0 DUP1 REVERT JUMPDEST POP PUSH2 0x5FC PUSH2 0x5F7 CALLDATASIZE PUSH1 0x4 PUSH2 0x4797 JUMP JUMPDEST PUSH2 0x1340 JUMP JUMPDEST PUSH1 0x40 MLOAD PUSH2 0x471 SWAP4 SWAP3 SWAP2 SWAP1 PUSH2 0x48B6 JUMP JUMPDEST CALLVALUE DUP1 ISZERO PUSH2 0x617 JUMPI PUSH1 0x0 DUP1 REVERT JUMPDEST POP PUSH2 0x620 PUSH2 0x13D4 JUMP JUMPDEST PUSH1 0x40 MLOAD PUSH2 0x471 SWAP2 SWAP1 PUSH2 0x48E0 JUMP JUMPDEST CALLVALUE DUP1 ISZERO PUSH2 0x639 JUMPI PUSH1 0x0 DUP1 REVERT JUMPDEST POP PUSH2 0x64D PUSH2 0x648 CALLDATASIZE PUSH1 0x4 PUSH2 0x4977 JUMP JUMPDEST PUSH2 0x1560 JUMP JUMPDEST PUSH1 0x40 MLOAD SWAP1 DUP2 MSTORE PUSH1 0x20 ADD PUSH2 0x471 JUMP JUMPDEST CALLVALUE DUP1 ISZERO PUSH2 0x667 JUMPI PUSH1 0x0 DUP1 REVERT JUMPDEST POP PUSH2 0x465 PUSH2 0x676 CALLDATASIZE PUSH1 0x4 PUSH2 0x477A JUMP JUMPDEST PUSH2 0x1632 JUMP JUMPDEST CALLVALUE DUP1 ISZERO PUSH2 0x687 JUMPI PUSH1 0x0 DUP1 REVERT JUMPDEST POP PUSH2 0x465 PUSH2 0x696 CALLDATASIZE PUSH1 0x4 PUSH2 0x472D JUMP JUMPDEST PUSH2 0x167C JUMP JUMPDEST CALLVALUE DUP1 ISZERO PUSH2 0x6A7 JUMPI PUSH1 0x0 DUP1 REVERT JUMPDEST POP PUSH2 0x465 PUSH2 0x6B6 CALLDATASIZE PUSH1 0x4 PUSH2 0x49CD JUMP JUMPDEST PUSH2 0x173D JUMP JUMPDEST CALLVALUE DUP1 ISZERO PUSH2 0x6C7 JUMPI PUSH1 0x0 DUP1 REVERT JUMPDEST POP PUSH2 0x465 PUSH2 0x6D6 CALLDATASIZE PUSH1 0x4 PUSH2 0x4797 JUMP JUMPDEST PUSH2 0x18F7 JUMP JUMPDEST CALLVALUE DUP1 ISZERO PUSH2 0x6E7 JUMPI PUSH1 0x0 DUP1 REVERT JUMPDEST POP PUSH2 0x465 PUSH2 0x6F6 CALLDATASIZE PUSH1 0x4 PUSH2 0x49CD JUMP JUMPDEST PUSH2 0x1939 JUMP JUMPDEST CALLVALUE DUP1 ISZERO PUSH2 0x707 JUMPI PUSH1 0x0 DUP1 REVERT JUMPDEST POP PUSH2 0x465 PUSH2 0x716 CALLDATASIZE PUSH1 0x4 PUSH2 0x4797 JUMP JUMPDEST PUSH2 0x1B02 JUMP JUMPDEST CALLVALUE DUP1 ISZERO PUSH2 0x727 JUMPI PUSH1 0x0 DUP1 REVERT JUMPDEST POP PUSH2 0x64D PUSH2 0x736 CALLDATASIZE PUSH1 0x4 PUSH2 0x49EA JUMP JUMPDEST PUSH2 0x1B44 JUMP JUMPDEST CALLVALUE DUP1 ISZERO PUSH2 0x747 JUMPI PUSH1 0x0 DUP1 REVERT JUMPDEST POP PUSH2 0x465 PUSH2 0x756 CALLDATASIZE PUSH1 0x4 PUSH2 0x4797 JUMP JUMPDEST PUSH2 0x1C1B JUMP JUMPDEST CALLVALUE DUP1 ISZERO PUSH2 0x767 JUMPI PUSH1 0x0 DUP1 REVERT JUMPDEST POP PUSH2 0x465 PUSH2 0x776 CALLDATASIZE PUSH1 0x4 PUSH2 0x4797 JUMP JUMPDEST PUSH2 0x1C5D JUMP JUMPDEST CALLVALUE DUP1 ISZERO PUSH2 0x787 JUMPI PUSH1 0x0 DUP1 REVERT JUMPDEST POP PUSH2 0x64D PUSH2 0x1C9F JUMP JUMPDEST CALLVALUE DUP1 ISZERO PUSH2 0x79C JUMPI PUSH1 0x0 DUP1 REVERT JUMPDEST POP PUSH1 0x4 SLOAD PUSH2 0x100 SWAP1 DIV PUSH1 0xFF AND PUSH2 0x465 JUMP JUMPDEST CALLVALUE DUP1 ISZERO PUSH2 0x7B9 JUMPI PUSH1 0x0 DUP1 REVERT JUMPDEST POP PUSH2 0x7C2 PUSH2 0x1D2C JUMP JUMPDEST PUSH1 0x40 MLOAD PUSH1 0x1 PUSH1 0x1 PUSH1 0xA0 SHL SUB SWAP1 SWAP2 AND DUP2 MSTORE PUSH1 0x20 ADD PUSH2 0x471 JUMP JUMPDEST CALLVALUE DUP1 ISZERO PUSH2 0x7E6 JUMPI PUSH1 0x0 DUP1 REVERT JUMPDEST POP PUSH2 0x465 PUSH2 0x7F5 CALLDATASIZE PUSH1 0x4 PUSH2 0x4797 JUMP JUMPDEST PUSH2 0x1D36 JUMP JUMPDEST CALLVALUE DUP1 ISZERO PUSH2 0x806 JUMPI PUSH1 0x0 DUP1 REVERT JUMPDEST POP PUSH2 0x443 PUSH2 0x815 CALLDATASIZE PUSH1 0x4 PUSH2 0x4A51 JUMP JUMPDEST PUSH2 0x1D78 JUMP JUMPDEST CALLVALUE DUP1 ISZERO PUSH2 0x826 JUMPI PUSH1 0x0 DUP1 REVERT JUMPDEST POP PUSH2 0x83A PUSH2 0x835 CALLDATASIZE PUSH1 0x4 PUSH2 0x4797 JUMP JUMPDEST PUSH2 0x213A JUMP JUMPDEST PUSH1 0x40 MLOAD PUSH2 0x471 SWAP3 SWAP2 SWAP1 PUSH2 0x4AFE JUMP JUMPDEST CALLVALUE DUP1 ISZERO PUSH2 0x854 JUMPI PUSH1 0x0 DUP1 REVERT JUMPDEST POP PUSH2 0x465 PUSH2 0x863 CALLDATASIZE PUSH1 0x4 PUSH2 0x4B22 JUMP JUMPDEST PUSH2 0x21C8 JUMP JUMPDEST CALLVALUE DUP1 ISZERO PUSH2 0x874 JUMPI PUSH1 0x0 DUP1 REVERT JUMPDEST POP PUSH2 0x465 PUSH2 0x883 CALLDATASIZE PUSH1 0x4 PUSH2 0x4B50 JUMP JUMPDEST PUSH2 0x2266 JUMP JUMPDEST CALLVALUE DUP1 ISZERO PUSH2 0x894 JUMPI PUSH1 0x0 DUP1 REVERT JUMPDEST POP PUSH2 0x8A8 PUSH2 0x8A3 CALLDATASIZE PUSH1 0x4 PUSH2 0x4C60 JUMP JUMPDEST PUSH2 0x2348 JUMP JUMPDEST PUSH1 0x40 MLOAD PUSH2 0x471 SWAP2 SWAP1 PUSH2 0x4CB8 JUMP JUMPDEST CALLVALUE DUP1 ISZERO PUSH2 0x8C1 JUMPI PUSH1 0x0 DUP1 REVERT JUMPDEST POP PUSH2 0x443 PUSH2 0x8D0 CALLDATASIZE PUSH1 0x4 PUSH2 0x477A JUMP JUMPDEST PUSH2 0x2470 JUMP JUMPDEST CALLVALUE DUP1 ISZERO PUSH2 0x8E1 JUMPI PUSH1 0x0 DUP1 REVERT JUMPDEST POP PUSH1 0x1 SLOAD PUSH2 0x64D JUMP JUMPDEST CALLVALUE DUP1 ISZERO PUSH2 0x8F6 JUMPI PUSH1 0x0 DUP1 REVERT JUMPDEST POP PUSH2 0x465 PUSH2 0x905 CALLDATASIZE PUSH1 0x4 PUSH2 0x472D JUMP JUMPDEST PUSH2 0x2528 JUMP JUMPDEST CALLVALUE DUP1 ISZERO PUSH2 0x916 JUMPI PUSH1 0x0 DUP1 REVERT JUMPDEST POP PUSH2 0x64D PUSH2 0x925 CALLDATASIZE PUSH1 0x4 PUSH2 0x4D0F JUMP JUMPDEST PUSH2 0x25E9 JUMP JUMPDEST CALLVALUE DUP1 ISZERO PUSH2 0x936 JUMPI PUSH1 0x0 DUP1 REVERT JUMPDEST POP PUSH2 0x64D PUSH2 0x270D JUMP JUMPDEST CALLVALUE DUP1 ISZERO PUSH2 0x94B JUMPI PUSH1 0x0 DUP1 REVERT JUMPDEST POP PUSH2 0x465 PUSH2 0x95A CALLDATASIZE PUSH1 0x4 PUSH2 0x4B50 JUMP JUMPDEST PUSH2 0x2718 JUMP JUMPDEST CALLVALUE DUP1 ISZERO PUSH2 0x96B JUMPI PUSH1 0x0 DUP1 REVERT JUMPDEST POP PUSH2 0x465 PUSH2 0x97A CALLDATASIZE PUSH1 0x4 PUSH2 0x4797 JUMP JUMPDEST PUSH2 0x27A7 JUMP JUMPDEST CALLVALUE DUP1 ISZERO PUSH2 0x98B JUMPI PUSH1 0x0 DUP1 REVERT JUMPDEST POP PUSH2 0x465 PUSH2 0x99A CALLDATASIZE PUSH1 0x4 PUSH2 0x4D93 JUMP JUMPDEST PUSH2 0x27E9 JUMP JUMPDEST CALLVALUE DUP1 ISZERO PUSH2 0x9AB JUMPI PUSH1 0x0 DUP1 REVERT JUMPDEST POP PUSH2 0x465 PUSH2 0x9BA CALLDATASIZE PUSH1 0x4 PUSH2 0x4797 JUMP JUMPDEST PUSH2 0x2871 JUMP JUMPDEST CALLVALUE DUP1 ISZERO PUSH2 0x9CB JUMPI PUSH1 0x0 DUP1 REVERT JUMPDEST POP PUSH2 0x465 PUSH2 0x9DA CALLDATASIZE PUSH1 0x4 PUSH2 0x4DB8 JUMP JUMPDEST PUSH2 0x28B3 JUMP JUMPDEST CALLVALUE DUP1 ISZERO PUSH2 0x9EB JUMPI PUSH1 0x0 DUP1 REVERT JUMPDEST POP PUSH2 0x465 PUSH2 0x9FA CALLDATASIZE PUSH1 0x4 PUSH2 0x4797 JUMP JUMPDEST PUSH2 0x2999 JUMP JUMPDEST CALLVALUE DUP1 ISZERO PUSH2 0xA0B JUMPI PUSH1 0x0 DUP1 REVERT JUMPDEST POP PUSH2 0x5A7 PUSH2 0xA1A CALLDATASIZE PUSH1 0x4 PUSH2 0x4E2C JUMP JUMPDEST PUSH2 0x29DB JUMP JUMPDEST CALLVALUE DUP1 ISZERO PUSH2 0xA2B JUMPI PUSH1 0x0 DUP1 REVERT JUMPDEST POP PUSH2 0xA3F PUSH2 0xA3A CALLDATASIZE PUSH1 0x4 PUSH2 0x4797 JUMP JUMPDEST PUSH2 0x2B8C JUMP JUMPDEST PUSH1 0x40 MLOAD PUSH2 0x471 SWAP2 SWAP1 DUP2 MLOAD DUP2 MSTORE PUSH1 0x20 DUP1 DUP4 ADD MLOAD SWAP1 DUP3 ADD MSTORE PUSH1 0x40 DUP1 DUP4 ADD MLOAD SWAP1 DUP3 ADD MSTORE PUSH1 0x60 DUP1 DUP4 ADD MLOAD PUSH1 0x1 PUSH1 0x1 PUSH1 0xA0 SHL SUB AND SWAP1 DUP3 ADD MSTORE PUSH1 0x80 DUP1 DUP4 ADD MLOAD ISZERO ISZERO SWAP1 DUP3 ADD MSTORE PUSH1 0xA0 SWAP2 DUP3 ADD MLOAD ISZERO ISZERO SWAP2 DUP2 ADD SWAP2 SWAP1 SWAP2 MSTORE PUSH1 0xC0 ADD SWAP1 JUMP JUMPDEST CALLVALUE DUP1 ISZERO PUSH2 0xA9F JUMPI PUSH1 0x0 DUP1 REVERT JUMPDEST POP PUSH1 0x2 SLOAD PUSH2 0x64D JUMP JUMPDEST CALLVALUE DUP1 ISZERO PUSH2 0xAB4 JUMPI PUSH1 0x0 DUP1 REVERT JUMPDEST POP PUSH2 0x465 PUSH2 0xAC3 CALLDATASIZE PUSH1 0x4 PUSH2 0x4797 JUMP JUMPDEST PUSH2 0x2C35 JUMP JUMPDEST CALLVALUE DUP1 ISZERO PUSH2 0xAD4 JUMPI PUSH1 0x0 DUP1 REVERT JUMPDEST POP PUSH2 0x465 PUSH2 0xAE3 CALLDATASIZE PUSH1 0x4 PUSH2 0x477A JUMP JUMPDEST PUSH2 0x2C77 JUMP JUMPDEST CALLVALUE DUP1 ISZERO PUSH2 0xAF4 JUMPI PUSH1 0x0 DUP1 REVERT JUMPDEST POP PUSH2 0x64D PUSH2 0xB03 CALLDATASIZE PUSH1 0x4 PUSH2 0x4E6D JUMP JUMPDEST PUSH2 0x2CC1 JUMP JUMPDEST CALLVALUE DUP1 ISZERO PUSH2 0xB14 JUMPI PUSH1 0x0 DUP1 REVERT JUMPDEST POP PUSH1 0x0 SLOAD PUSH1 0x1 PUSH1 0x1 PUSH1 0xA0 SHL SUB AND PUSH2 0x7C2 JUMP JUMPDEST CALLVALUE DUP1 ISZERO PUSH2 0xB32 JUMPI PUSH1 0x0 DUP1 REVERT JUMPDEST POP PUSH2 0x465 PUSH2 0xB41 CALLDATASIZE PUSH1 0x4 PUSH2 0x47B0 JUMP JUMPDEST PUSH2 0x2DBD JUMP JUMPDEST CALLVALUE DUP1 ISZERO PUSH2 0xB52 JUMPI PUSH1 0x0 DUP1 REVERT JUMPDEST POP PUSH2 0x465 PUSH2 0xB61 CALLDATASIZE PUSH1 0x4 PUSH2 0x47B0 JUMP JUMPDEST PUSH2 0x2DFC JUMP JUMPDEST CALLVALUE DUP1 ISZERO PUSH2 0xB72 JUMPI PUSH1 0x0 DUP1 REVERT JUMPDEST POP PUSH2 0x465 PUSH2 0xB81 CALLDATASIZE PUSH1 0x4 PUSH2 0x4B50 JUMP JUMPDEST PUSH2 0x2ECC JUMP JUMPDEST CALLVALUE DUP1 ISZERO PUSH2 0xB92 JUMPI PUSH1 0x0 DUP1 REVERT JUMPDEST POP PUSH1 0x4 SLOAD PUSH1 0xFF AND PUSH2 0x465 JUMP JUMPDEST CALLVALUE DUP1 ISZERO PUSH2 0xBAA JUMPI PUSH1 0x0 DUP1 REVERT JUMPDEST POP PUSH2 0xBBE PUSH2 0xBB9 CALLDATASIZE PUSH1 0x4 PUSH2 0x4797 JUMP JUMPDEST PUSH2 0x2F5B JUMP JUMPDEST PUSH1 0x40 MLOAD PUSH2 0x471 SWAP4 SWAP3 SWAP2 SWAP1 PUSH2 0x4EC0 JUMP JUMPDEST CALLVALUE DUP1 ISZERO PUSH2 0xBD9 JUMPI PUSH1 0x0 DUP1 REVERT JUMPDEST POP PUSH2 0x465 PUSH2 0xBE8 CALLDATASIZE PUSH1 0x4 PUSH2 0x477A JUMP JUMPDEST PUSH2 0x2FE2 JUMP JUMPDEST CALLVALUE DUP1 ISZERO PUSH2 0xBF9 JUMPI PUSH1 0x0 DUP1 REVERT JUMPDEST POP PUSH2 0x465 PUSH2 0xC08 CALLDATASIZE PUSH1 0x4 PUSH2 0x477A JUMP JUMPDEST PUSH2 0x302C JUMP JUMPDEST CALLVALUE DUP1 ISZERO PUSH2 0xC19 JUMPI PUSH1 0x0 DUP1 REVERT JUMPDEST POP PUSH2 0x465 PUSH2 0xC28 CALLDATASIZE PUSH1 0x4 PUSH2 0x4797 JUMP JUMPDEST PUSH2 0x3076 JUMP JUMPDEST CALLVALUE DUP1 ISZERO PUSH2 0xC39 JUMPI PUSH1 0x0 DUP1 REVERT JUMPDEST POP PUSH2 0x465 PUSH2 0xC48 CALLDATASIZE PUSH1 0x4 PUSH2 0x4DB8 JUMP JUMPDEST PUSH2 0x30B8 JUMP JUMPDEST CALLVALUE DUP1 ISZERO PUSH2 0xC59 JUMPI PUSH1 0x0 DUP1 REVERT JUMPDEST POP PUSH2 0x465 PUSH2 0xC68 CALLDATASIZE PUSH1 0x4 PUSH2 0x4EEA JUMP JUMPDEST PUSH2 0x319E JUMP JUMPDEST CALLVALUE DUP1 ISZERO PUSH2 0xC79 JUMPI PUSH1 0x0 DUP1 REVERT JUMPDEST POP PUSH2 0x465 PUSH2 0xC88 CALLDATASIZE PUSH1 0x4 PUSH2 0x4D93 JUMP JUMPDEST PUSH2 0x31FF JUMP JUMPDEST CALLVALUE DUP1 ISZERO PUSH2 0xC99 JUMPI PUSH1 0x0 DUP1 REVERT JUMPDEST POP PUSH2 0x465 PUSH2 0xCA8 CALLDATASIZE PUSH1 0x4 PUSH2 0x4F21 JUMP JUMPDEST PUSH2 0x3250 JUMP JUMPDEST CALLVALUE DUP1 ISZERO PUSH2 0xCB9 JUMPI PUSH1 0x0 DUP1 REVERT JUMPDEST POP PUSH1 0x3 SLOAD PUSH2 0x64D JUMP JUMPDEST CALLVALUE DUP1 ISZERO PUSH2 0xCCE JUMPI PUSH1 0x0 DUP1 REVERT JUMPDEST POP PUSH2 0x465 PUSH2 0xCDD CALLDATASIZE PUSH1 0x4 PUSH2 0x4F21 JUMP JUMPDEST PUSH2 0x331F JUMP JUMPDEST CALLVALUE DUP1 ISZERO PUSH2 0xCEE JUMPI PUSH1 0x0 DUP1 REVERT JUMPDEST POP PUSH2 0x465 PUSH2 0xCFD CALLDATASIZE PUSH1 0x4 PUSH2 0x477A JUMP JUMPDEST PUSH2 0x3368 JUMP JUMPDEST CALLVALUE DUP1 ISZERO PUSH2 0xD0E JUMPI PUSH1 0x0 DUP1 REVERT JUMPDEST POP PUSH2 0x465 PUSH2 0xD1D CALLDATASIZE PUSH1 0x4 PUSH2 0x477A JUMP JUMPDEST PUSH2 0x33B2 JUMP JUMPDEST CALLVALUE DUP1 ISZERO PUSH2 0xD2E JUMPI PUSH1 0x0 DUP1 REVERT JUMPDEST POP PUSH2 0x465 PUSH2 0xD3D CALLDATASIZE PUSH1 0x4 PUSH2 0x4F21 JUMP JUMPDEST PUSH2 0x352C JUMP JUMPDEST CALLVALUE DUP1 ISZERO PUSH2 0xD4E JUMPI PUSH1 0x0 DUP1 REVERT JUMPDEST POP PUSH2 0x465 PUSH2 0xD5D CALLDATASIZE PUSH1 0x4 PUSH2 0x4797 JUMP JUMPDEST PUSH2 0x35FB JUMP JUMPDEST CALLVALUE DUP1 ISZERO PUSH2 0xD6E JUMPI PUSH1 0x0 DUP1 REVERT JUMPDEST POP PUSH2 0x465 PUSH2 0xD7D CALLDATASIZE PUSH1 0x4 PUSH2 0x4D93 JUMP JUMPDEST PUSH2 0x363D JUMP JUMPDEST CALLVALUE DUP1 ISZERO PUSH2 0xD8E JUMPI PUSH1 0x0 DUP1 REVERT JUMPDEST POP PUSH2 0x620 PUSH2 0xD9D CALLDATASIZE PUSH1 0x4 PUSH2 0x4797 JUMP JUMPDEST PUSH2 0x36C5 JUMP JUMPDEST CALLVALUE DUP1 ISZERO PUSH2 0xDAE JUMPI PUSH1 0x0 DUP1 REVERT JUMPDEST POP PUSH2 0x465 PUSH2 0xDBD CALLDATASIZE PUSH1 0x4 PUSH2 0x4797 JUMP JUMPDEST PUSH2 0x3747 JUMP JUMPDEST CALLVALUE DUP1 ISZERO PUSH2 0xDCE JUMPI PUSH1 0x0 DUP1 REVERT JUMPDEST POP PUSH2 0x7C2 PUSH2 0xDDD CALLDATASIZE PUSH1 0x4 PUSH2 0x4F5B JUMP JUMPDEST PUSH2 0x3789 JUMP JUMPDEST CALLVALUE DUP1 ISZERO PUSH2 0xDEE JUMPI PUSH1 0x0 DUP1 REVERT JUMPDEST POP PUSH2 0x465 PUSH2 0xDFD CALLDATASIZE PUSH1 0x4 PUSH2 0x4B50 JUMP JUMPDEST PUSH2 0x385E JUMP JUMPDEST CALLVALUE DUP1 ISZERO PUSH2 0xE0E JUMPI PUSH1 0x0 DUP1 REVERT JUMPDEST POP PUSH2 0x5A7 PUSH2 0xE1D CALLDATASIZE PUSH1 0x4 PUSH2 0x4797 JUMP JUMPDEST PUSH2 0x3930 JUMP JUMPDEST CALLVALUE DUP1 ISZERO PUSH2 0xE2E JUMPI PUSH1 0x0 DUP1 REVERT JUMPDEST POP PUSH2 0x64D PUSH2 0xE3D CALLDATASIZE PUSH1 0x4 PUSH2 0x4FE1 JUMP JUMPDEST PUSH2 0x3972 JUMP JUMPDEST CALLVALUE DUP1 ISZERO PUSH2 0xE4E JUMPI PUSH1 0x0 DUP1 REVERT JUMPDEST POP PUSH2 0x465 PUSH2 0xE5D CALLDATASIZE PUSH1 0x4 PUSH2 0x4B50 JUMP JUMPDEST PUSH2 0x3A6F JUMP JUMPDEST CALLVALUE DUP1 ISZERO PUSH2 0xE6E JUMPI PUSH1 0x0 DUP1 REVERT JUMPDEST POP PUSH2 0x465 PUSH2 0xE7D CALLDATASIZE PUSH1 0x4 PUSH2 0x4F21 JUMP JUMPDEST PUSH2 0x3AFE JUMP JUMPDEST CALLVALUE DUP1 ISZERO PUSH2 0xE8E JUMPI PUSH1 0x0 DUP1 REVERT JUMPDEST POP PUSH2 0x64D PUSH2 0x3B47 JUMP JUMPDEST CALLVALUE DUP1 ISZERO PUSH2 0xEA3 JUMPI PUSH1 0x0 DUP1 REVERT JUMPDEST POP PUSH2 0x7C2 PUSH2 0x3BB5 JUMP JUMPDEST PUSH1 0x0 PUSH1 0x1 PUSH1 0x1 PUSH1 0xE0 SHL SUB NOT DUP3 AND PUSH4 0x14B83435 PUSH1 0xE3 SHL EQ DUP1 PUSH2 0xEDD JUMPI POP PUSH1 0x1 PUSH1 0x1 PUSH1 0xE0 SHL SUB NOT DUP3 AND PUSH4 0x96DC4575 PUSH1 0xE0 SHL EQ JUMPDEST DUP1 PUSH2 0xEF8 JUMPI POP PUSH1 0x1 PUSH1 0x1 PUSH1 0xE0 SHL SUB NOT DUP3 AND PUSH4 0x8EA925B PUSH1 0xE4 SHL EQ JUMPDEST DUP1 PUSH2 0xF13 JUMPI POP PUSH1 0x1 PUSH1 0x1 PUSH1 0xE0 SHL SUB NOT DUP3 AND PUSH4 0x7D22131D PUSH1 0xE1 SHL EQ JUMPDEST DUP1 PUSH2 0xF2E JUMPI POP PUSH1 0x1 PUSH1 0x1 PUSH1 0xE0 SHL SUB NOT DUP3 AND PUSH4 0x70319BFF PUSH1 0xE1 SHL EQ JUMPDEST DUP1 PUSH2 0xF3D JUMPI POP PUSH2 0xF3D DUP3 PUSH2 0x3BC2 JUMP JUMPDEST SWAP3 SWAP2 POP POP JUMP JUMPDEST PUSH1 0x0 DUP1 PUSH20 0x0 PUSH4 0x518BF960 PUSH1 0x45 DUP8 DUP8 DUP8 PUSH1 0x40 MLOAD DUP6 PUSH4 0xFFFFFFFF AND PUSH1 0xE0 SHL DUP2 MSTORE PUSH1 0x4 ADD PUSH2 0xF84 SWAP5 SWAP4 SWAP3 SWAP2 SWAP1 PUSH2 0x504C JUMP JUMPDEST PUSH1 0x20 PUSH1 0x40 MLOAD DUP1 DUP4 SUB DUP2 DUP7 GAS DELEGATECALL ISZERO DUP1 ISZERO PUSH2 0xFA1 JUMPI RETURNDATASIZE PUSH1 0x0 DUP1 RETURNDATACOPY RETURNDATASIZE PUSH1 0x0 REVERT JUMPDEST POP POP POP POP PUSH1 0x40 MLOAD RETURNDATASIZE PUSH1 0x1F NOT PUSH1 0x1F DUP3 ADD AND DUP3 ADD DUP1 PUSH1 0x40 MSTORE POP DUP2 ADD SWAP1 PUSH2 0xFC5 SWAP2 SWAP1 PUSH2 0x5071 JUMP JUMPDEST SWAP1 POP CALLER PUSH1 0x1 PUSH1 0x1 PUSH1 0xA0 SHL SUB AND DUP4 DUP7 PUSH32 0xCE5E1F2BA33F195F748A93B00EE62600B55E27CC50531A72E5443713BAC23E12 DUP8 DUP6 PUSH1 0x40 MLOAD PUSH2 0x1004 SWAP3 SWAP2 SWAP1 PUSH2 0x508A JUMP JUMPDEST PUSH1 0x40 MLOAD DUP1 SWAP2 SUB SWAP1 LOG4 PUSH1 0x1 SWAP2 POP POP JUMPDEST SWAP4 SWAP3 POP POP POP JUMP JUMPDEST PUSH1 0x40 MLOAD PUSH4 0x25DA42FB PUSH1 0xE1 SHL DUP2 MSTORE PUSH1 0x45 PUSH1 0x4 DUP3 ADD MSTORE PUSH1 0x1 PUSH1 0x1 PUSH1 0xA0 SHL SUB DUP3 AND PUSH1 0x24 DUP3 ADD MSTORE PUSH1 0x0 SWAP1 PUSH20 0x0 SWAP1 PUSH4 0x4BB485F6 SWAP1 PUSH1 0x44 ADD JUMPDEST PUSH1 0x20 PUSH1 0x40 MLOAD DUP1 DUP4 SUB DUP2 DUP7 GAS DELEGATECALL ISZERO DUP1 ISZERO PUSH2 0x107C JUMPI RETURNDATASIZE PUSH1 0x0 DUP1 RETURNDATACOPY RETURNDATASIZE PUSH1 0x0 REVERT JUMPDEST POP POP POP POP PUSH1 0x40 MLOAD RETURNDATASIZE PUSH1 0x1F NOT PUSH1 0x1F DUP3 ADD AND DUP3 ADD DUP1 PUSH1 0x40 MSTORE POP DUP2 ADD SWAP1 PUSH2 0xF3D SWAP2 SWAP1 PUSH2 0x50A4 JUMP JUMPDEST PUSH1 0x40 MLOAD PUSH4 0x7CD7C4ED PUSH1 0xE0 SHL DUP2 MSTORE PUSH1 0x45 PUSH1 0x4 DUP3 ADD MSTORE PUSH1 0x24 DUP2 ADD DUP3 SWAP1 MSTORE PUSH1 0x0 SWAP1 PUSH20 0x0 SWAP1 PUSH4 0x7CD7C4ED SWAP1 PUSH1 0x44 ADD PUSH2 0x105F JUMP JUMPDEST PUSH1 0x40 MLOAD PUSH4 0x2A0D2E3 PUSH1 0xE6 SHL DUP2 MSTORE PUSH1 0x0 SWAP1 PUSH20 0x0 SWAP1 PUSH4 0xA834B8C0 SWAP1 PUSH2 0x1121 SWAP1 PUSH1 0x45 SWAP1 DUP8 SWAP1 DUP8 SWAP1 PUSH1 0x4 ADD PUSH2 0x50C1 JUMP JUMPDEST PUSH1 0x20 PUSH1 0x40 MLOAD DUP1 DUP4 SUB DUP2 DUP7 GAS DELEGATECALL ISZERO DUP1 ISZERO PUSH2 0x113E JUMPI RETURNDATASIZE PUSH1 0x0 DUP1 RETURNDATACOPY RETURNDATASIZE PUSH1 0x0 REVERT JUMPDEST POP POP POP POP PUSH1 0x40 MLOAD RETURNDATASIZE PUSH1 0x1F NOT PUSH1 0x1F DUP3 ADD AND DUP3 ADD DUP1 PUSH1 0x40 MSTORE POP DUP2 ADD SWAP1 PUSH2 0x1012 SWAP2 SWAP1 PUSH2 0x50A4 JUMP JUMPDEST PUSH1 0x40 MLOAD PUSH3 0xFD7CB9 PUSH1 0xE4 SHL DUP2 MSTORE PUSH1 0x45 PUSH1 0x4 DUP3 ADD MSTORE PUSH1 0x24 DUP2 ADD DUP3 SWAP1 MSTORE PUSH1 0x0 SWAP1 PUSH20 0x0 SWAP1 PUSH4 0xFD7CB90 SWAP1 PUSH1 0x44 ADD PUSH2 0x105F JUMP JUMPDEST PUSH1 0x40 MLOAD PUSH4 0xEC77EB21 PUSH1 0xE0 SHL DUP2 MSTORE PUSH1 0x45 PUSH1 0x4 DUP3 ADD MSTORE PUSH1 0x24 DUP2 ADD DUP3 SWAP1 MSTORE PUSH1 0x60 SWAP1 PUSH20 0x0 SWAP1 PUSH4 0xEC77EB21 SWAP1 PUSH1 0x44 ADD PUSH1 0x0 PUSH1 0x40 MLOAD DUP1 DUP4 SUB DUP2 DUP7 GAS DELEGATECALL ISZERO DUP1 ISZERO PUSH2 0x11FD JUMPI RETURNDATASIZE PUSH1 0x0 DUP1 RETURNDATACOPY RETURNDATASIZE PUSH1 0x0 REVERT JUMPDEST POP POP POP POP PUSH1 0x40 MLOAD RETURNDATASIZE PUSH1 0x0 DUP3 RETURNDATACOPY PUSH1 0x1F RETURNDATASIZE SWAP1 DUP2 ADD PUSH1 0x1F NOT AND DUP3 ADD PUSH1 0x40 MSTORE PUSH2 0xF3D SWAP2 SWAP1 DUP2 ADD SWAP1 PUSH2 0x5173 JUMP JUMPDEST PUSH1 0x40 MLOAD PUSH4 0xE24B90A9 PUSH1 0xE0 SHL DUP2 MSTORE PUSH1 0x45 PUSH1 0x4 DUP3 ADD MSTORE PUSH1 0x24 DUP2 ADD DUP3 SWAP1 MSTORE PUSH1 0x0 SWAP1 PUSH20 0x0 SWAP1 PUSH4 0xE24B90A9 SWAP1 PUSH1 0x44 ADD PUSH2 0x105F JUMP JUMPDEST PUSH1 0x40 MLOAD PUSH4 0x442B0CA1 PUSH1 0xE0 SHL DUP2 MSTORE PUSH1 0x45 PUSH1 0x4 DUP3 ADD MSTORE PUSH1 0x24 DUP2 ADD DUP3 SWAP1 MSTORE PUSH1 0x0 SWAP1 PUSH20 0x0 SWAP1 PUSH4 0x442B0CA1 SWAP1 PUSH1 0x44 ADD PUSH2 0x105F JUMP JUMPDEST PUSH1 0x40 MLOAD PUSH4 0x50F0B31D PUSH1 0xE1 SHL DUP2 MSTORE PUSH1 0x45 PUSH1 0x4 DUP3 ADD MSTORE PUSH1 0x24 DUP2 ADD DUP3 SWAP1 MSTORE PUSH1 0x60 SWAP1 PUSH20 0x0 SWAP1 PUSH4 0xA1E1663A SWAP1 PUSH1 0x44 ADD JUMPDEST PUSH1 0x0 PUSH1 0x40 MLOAD DUP1 DUP4 SUB DUP2 DUP7 GAS DELEGATECALL ISZERO DUP1 ISZERO PUSH2 0x1304 JUMPI RETURNDATASIZE PUSH1 0x0 DUP1 RETURNDATACOPY RETURNDATASIZE PUSH1 0x0 REVERT JUMPDEST POP POP POP POP PUSH1 0x40 MLOAD RETURNDATASIZE PUSH1 0x0 DUP3 RETURNDATACOPY PUSH1 0x1F RETURNDATASIZE SWAP1 DUP2 ADD PUSH1 0x1F NOT AND DUP3 ADD PUSH1 0x40 MSTORE PUSH2 0xF3D SWAP2 SWAP1 DUP2 ADD SWAP1 PUSH2 0x51A7 JUMP JUMPDEST PUSH1 0x0 PUSH2 0x133B PUSH1 0x4A SLOAD PUSH2 0xFFFF AND SWAP1 JUMP JUMPDEST SWAP1 POP SWAP1 JUMP JUMPDEST PUSH1 0x40 MLOAD PUSH4 0x108CA8B7 PUSH1 0xE0 SHL DUP2 MSTORE PUSH1 0x45 PUSH1 0x4 DUP3 ADD MSTORE PUSH1 0x24 DUP2 ADD DUP3 SWAP1 MSTORE PUSH1 0x60 SWAP1 PUSH1 0x0 SWAP1 DUP2 SWAP1 PUSH20 0x0 SWAP1 PUSH4 0x108CA8B7 SWAP1 PUSH1 0x44 ADD PUSH1 0x0 PUSH1 0x40 MLOAD DUP1 DUP4 SUB DUP2 DUP7 GAS DELEGATECALL ISZERO DUP1 ISZERO PUSH2 0x139F JUMPI RETURNDATASIZE PUSH1 0x0 DUP1 RETURNDATACOPY RETURNDATASIZE PUSH1 0x0 REVERT JUMPDEST POP POP POP POP PUSH1 0x40 MLOAD RETURNDATASIZE PUSH1 0x0 DUP3 RETURNDATACOPY PUSH1 0x1F RETURNDATASIZE SWAP1 DUP2 ADD PUSH1 0x1F NOT AND DUP3 ADD PUSH1 0x40 MSTORE PUSH2 0x13C7 SWAP2 SWAP1 DUP2 ADD SWAP1 PUSH2 0x527C JUMP JUMPDEST SWAP3 POP SWAP3 POP SWAP3 POP SWAP2 SWAP4 SWAP1 SWAP3 POP JUMP JUMPDEST PUSH1 0x40 DUP1 MLOAD PUSH1 0x5 DUP1 DUP3 MSTORE PUSH1 0xC0 DUP3 ADD SWAP1 SWAP3 MSTORE PUSH1 0x60 SWAP2 PUSH1 0x0 SWAP2 SWAP1 PUSH1 0x20 DUP3 ADD PUSH1 0xA0 DUP1 CALLDATASIZE DUP4 CALLDATACOPY ADD SWAP1 POP POP SWAP1 POP PUSH20 0x0 DUP2 PUSH1 0x0 DUP2 MLOAD DUP2 LT PUSH2 0x1423 JUMPI PUSH2 0x1423 PUSH2 0x52D5 JUMP JUMPDEST PUSH1 0x20 MUL PUSH1 0x20 ADD ADD SWAP1 PUSH1 0x1 PUSH1 0x1 PUSH1 0xA0 SHL SUB AND SWAP1 DUP2 PUSH1 0x1 PUSH1 0x1 PUSH1 0xA0 SHL SUB AND DUP2 MSTORE POP POP PUSH20 0x0 DUP2 PUSH1 0x1 DUP2 MLOAD DUP2 LT PUSH2 0x146B JUMPI PUSH2 0x146B PUSH2 0x52D5 JUMP JUMPDEST PUSH1 0x20 MUL PUSH1 0x20 ADD ADD SWAP1 PUSH1 0x1 PUSH1 0x1 PUSH1 0xA0 SHL SUB AND SWAP1 DUP2 PUSH1 0x1 PUSH1 0x1 PUSH1 0xA0 SHL SUB AND DUP2 MSTORE POP POP PUSH20 0x0 DUP2 PUSH1 0x2 DUP2 MLOAD DUP2 LT PUSH2 0x14B3 JUMPI PUSH2 0x14B3 PUSH2 0x52D5 JUMP JUMPDEST PUSH1 0x20 MUL PUSH1 0x20 ADD ADD SWAP1 PUSH1 0x1 PUSH1 0x1 PUSH1 0xA0 SHL SUB AND SWAP1 DUP2 PUSH1 0x1 PUSH1 0x1 PUSH1 0xA0 SHL SUB AND DUP2 MSTORE POP POP PUSH20 0x0 DUP2 PUSH1 0x3 DUP2 MLOAD DUP2 LT PUSH2 0x14FB JUMPI PUSH2 0x14FB PUSH2 0x52D5 JUMP JUMPDEST PUSH1 0x20 MUL PUSH1 0x20 ADD ADD SWAP1 PUSH1 0x1 PUSH1 0x1 PUSH1 0xA0 SHL SUB AND SWAP1 DUP2 PUSH1 0x1 PUSH1 0x1 PUSH1 0xA0 SHL SUB AND DUP2 MSTORE POP POP PUSH20 0x0 DUP2 PUSH1 0x4 DUP2 MLOAD DUP2 LT PUSH2 0x1543 JUMPI PUSH2 0x1543 PUSH2 0x52D5 JUMP JUMPDEST PUSH1 0x1 PUSH1 0x1 PUSH1 0xA0 SHL SUB SWAP1 SWAP3 AND PUSH1 0x20 SWAP3 DUP4 MUL SWAP2 SWAP1 SWAP2 ADD SWAP1 SWAP2 ADD MSTORE SWAP2 SWAP1 POP JUMP JUMPDEST PUSH1 0x0 DUP1 PUSH20 0x0 PUSH4 0xF728A0F5 PUSH1 0x45 DUP8 DUP8 DUP8 PUSH1 0x40 MLOAD DUP6 PUSH4 0xFFFFFFFF AND PUSH1 0xE0 SHL DUP2 MSTORE PUSH1 0x4 ADD PUSH2 0x15A1 SWAP5 SWAP4 SWAP3 SWAP2 SWAP1 PUSH2 0x5314 JUMP JUMPDEST PUSH1 0x20 PUSH1 0x40 MLOAD DUP1 DUP4 SUB DUP2 DUP7 GAS DELEGATECALL ISZERO DUP1 ISZERO PUSH2 0x15BE JUMPI RETURNDATASIZE PUSH1 0x0 DUP1 RETURNDATACOPY RETURNDATASIZE PUSH1 0x0 REVERT JUMPDEST POP POP POP POP PUSH1 0x40 MLOAD RETURNDATASIZE PUSH1 0x1F NOT PUSH1 0x1F DUP3 ADD AND DUP3 ADD DUP1 PUSH1 0x40 MSTORE POP DUP2 ADD SWAP1 PUSH2 0x15E2 SWAP2 SWAP1 PUSH2 0x5071 JUMP JUMPDEST SWAP1 POP CALLER PUSH1 0x1 PUSH1 0x1 PUSH1 0xA0 SHL SUB AND DUP2 PUSH32 0xDE3BD866160A7F983F3C5F990127712936D37378D60B93BA96AB3A66A04FEB18 DUP8 DUP8 DUP8 PUSH1 0x40 MLOAD PUSH2 0x1622 SWAP4 SWAP3 SWAP2 SWAP1 PUSH2 0x5341 JUMP JUMPDEST PUSH1 0x40 MLOAD DUP1 SWAP2 SUB SWAP1 LOG3 SWAP5 SWAP4 POP POP POP POP JUMP JUMPDEST PUSH1 0x40 MLOAD PUSH4 0xCF3EA2F PUSH1 0xE0 SHL DUP2 MSTORE PUSH1 0x45 PUSH1 0x4 DUP3 ADD MSTORE PUSH1 0x1 PUSH1 0x1 PUSH1 0xA0 SHL SUB DUP3 AND PUSH1 0x24 DUP3 ADD MSTORE PUSH1 0x0 SWAP1 PUSH20 0x0 SWAP1 PUSH4 0xCF3EA2F SWAP1 PUSH1 0x44 ADD PUSH2 0x105F JUMP JUMPDEST PUSH1 0x0 DUP1 PUSH20 0x0 PUSH4 0x5ACD816A PUSH1 0x45 DUP8 DUP8 DUP8 PUSH1 0x40 MLOAD DUP6 PUSH4 0xFFFFFFFF AND PUSH1 0xE0 SHL DUP2 MSTORE PUSH1 0x4 ADD PUSH2 0x16BD SWAP5 SWAP4 SWAP3 SWAP2 SWAP1 PUSH2 0x504C JUMP JUMPDEST PUSH1 0x20 PUSH1 0x40 MLOAD DUP1 DUP4 SUB DUP2 DUP7 GAS DELEGATECALL ISZERO DUP1 ISZERO PUSH2 0x16DA JUMPI RETURNDATASIZE PUSH1 0x0 DUP1 RETURNDATACOPY RETURNDATASIZE PUSH1 0x0 REVERT JUMPDEST POP POP POP POP PUSH1 0x40 MLOAD RETURNDATASIZE PUSH1 0x1F NOT PUSH1 0x1F DUP3 ADD AND DUP3 ADD DUP1 PUSH1 0x40 MSTORE POP DUP2 ADD SWAP1 PUSH2 0x16FE SWAP2 SWAP1 PUSH2 0x5071 JUMP JUMPDEST SWAP1 POP CALLER PUSH1 0x1 PUSH1 0x1 PUSH1 0xA0 SHL SUB AND DUP4 DUP7 PUSH32 0x888EBBEE43B69C568A7EF10A18F4AFB4A0452ED2CFEC2DDE7A3D37B7E5EF87A3 DUP8 DUP6 PUSH1 0x40 MLOAD PUSH2 0x1004 SWAP3 SWAP2 SWAP1 PUSH2 0x508A JUMP JUMPDEST PUSH1 0x0 PUSH1 0x1 PUSH1 0x1 PUSH1 0xA0 SHL SUB PUSH32 0x0 AND ADDRESS SUB PUSH2 0x1790 JUMPI PUSH1 0x40 MLOAD PUSH3 0x461BCD PUSH1 0xE5 SHL DUP2 MSTORE PUSH1 0x4 ADD PUSH2 0x1787 SWAP1 PUSH2 0x5367 JUMP JUMPDEST PUSH1 0x40 MLOAD DUP1 SWAP2 SUB SWAP1 REVERT JUMPDEST PUSH32 0x0 PUSH1 0x1 PUSH1 0x1 PUSH1 0xA0 SHL SUB AND PUSH2 0x17C2 PUSH2 0x3C12 JUMP JUMPDEST PUSH1 0x1 PUSH1 0x1 PUSH1 0xA0 SHL SUB AND EQ PUSH2 0x17E8 JUMPI PUSH1 0x40 MLOAD PUSH3 0x461BCD PUSH1 0xE5 SHL DUP2 MSTORE PUSH1 0x4 ADD PUSH2 0x1787 SWAP1 PUSH2 0x5396 JUMP JUMPDEST PUSH1 0x0 PUSH2 0x17F7 PUSH1 0x4A SLOAD PUSH2 0xFFFF AND SWAP1 JUMP JUMPDEST PUSH2 0xFFFF AND GT PUSH2 0x1848 JUMPI PUSH1 0x40 MLOAD PUSH3 0x461BCD PUSH1 0xE5 SHL DUP2 MSTORE PUSH1 0x20 PUSH1 0x4 DUP3 ADD MSTORE PUSH1 0x18 PUSH1 0x24 DUP3 ADD MSTORE PUSH32 0x436F6E7472616374204E6F7420496E697469616C697A65640000000000000000 PUSH1 0x44 DUP3 ADD MSTORE PUSH1 0x64 ADD PUSH2 0x1787 JUMP JUMPDEST PUSH2 0x1858 PUSH4 0x225BF2F9 PUSH1 0xE1 SHL PUSH2 0x3C33 JUMP JUMPDEST PUSH2 0x189C JUMPI PUSH1 0x40 MLOAD PUSH3 0x461BCD PUSH1 0xE5 SHL DUP2 MSTORE PUSH1 0x20 PUSH1 0x4 DUP3 ADD MSTORE PUSH1 0x15 PUSH1 0x24 DUP3 ADD MSTORE PUSH21 0x29B2BA29B0B332A6B7B232902337B93134B23232B7 PUSH1 0x59 SHL PUSH1 0x44 DUP3 ADD MSTORE PUSH1 0x64 ADD PUSH2 0x1787 JUMP JUMPDEST PUSH1 0x4 DUP1 SLOAD PUSH1 0xFF NOT AND DUP4 ISZERO ISZERO OR SWAP1 SSTORE PUSH1 0x3 SLOAD ADDRESS CALLER PUSH1 0x1 PUSH1 0x1 PUSH1 0xA0 SHL SUB AND PUSH32 0xDD452A31D2E164A1EA436C084842C27D24AE2548A575A869F71B05A4ED16243F DUP6 PUSH1 0x40 MLOAD PUSH2 0x18EB SWAP2 ISZERO ISZERO DUP2 MSTORE PUSH1 0x20 ADD SWAP1 JUMP JUMPDEST PUSH1 0x40 MLOAD DUP1 SWAP2 SUB SWAP1 LOG4 POP SWAP1 JUMP JUMPDEST PUSH1 0x40 MLOAD PUSH4 0x227E505 PUSH1 0xE3 SHL DUP2 MSTORE PUSH1 0x45 PUSH1 0x4 DUP3 ADD MSTORE PUSH1 0x24 DUP2 ADD DUP3 SWAP1 MSTORE PUSH1 0x0 SWAP1 PUSH20 0x0 SWAP1 PUSH4 0x113F2828 SWAP1 PUSH1 0x44 ADD PUSH2 0x105F JUMP JUMPDEST PUSH1 0x0 PUSH1 0x1 PUSH1 0x1 PUSH1 0xA0 SHL SUB PUSH32 0x0 AND ADDRESS SUB PUSH2 0x1983 JUMPI PUSH1 0x40 MLOAD PUSH3 0x461BCD PUSH1 0xE5 SHL DUP2 MSTORE PUSH1 0x4 ADD PUSH2 0x1787 SWAP1 PUSH2 0x5367 JUMP JUMPDEST PUSH32 0x0 PUSH1 0x1 PUSH1 0x1 PUSH1 0xA0 SHL SUB AND PUSH2 0x19B5 PUSH2 0x3C12 JUMP JUMPDEST PUSH1 0x1 PUSH1 0x1 PUSH1 0xA0 SHL SUB AND EQ PUSH2 0x19DB JUMPI PUSH1 0x40 MLOAD PUSH3 0x461BCD PUSH1 0xE5 SHL DUP2 MSTORE PUSH1 0x4 ADD PUSH2 0x1787 SWAP1 PUSH2 0x5396 JUMP JUMPDEST PUSH1 0x4 SLOAD PUSH1 0xFF AND ISZERO PUSH2 0x19FE JUMPI PUSH1 0x40 MLOAD PUSH3 0x461BCD PUSH1 0xE5 SHL DUP2 MSTORE PUSH1 0x4 ADD PUSH2 0x1787 SWAP1 PUSH2 0x53C4 JUMP JUMPDEST PUSH2 0x1A0E PUSH4 0x1239AF87 PUSH1 0xE2 SHL PUSH2 0x3C33 JUMP JUMPDEST PUSH2 0x1A5A JUMPI PUSH1 0x40 MLOAD PUSH3 0x461BCD PUSH1 0xE5 SHL DUP2 MSTORE PUSH1 0x20 PUSH1 0x4 DUP3 ADD MSTORE PUSH1 0x1A PUSH1 0x24 DUP3 ADD MSTORE PUSH32 0x5365745570677261646553746174757320466F7262696464656E000000000000 PUSH1 0x44 DUP3 ADD MSTORE PUSH1 0x64 ADD PUSH2 0x1787 JUMP JUMPDEST PUSH2 0x1A62 PUSH2 0x3D76 JUMP JUMPDEST PUSH2 0x1AAE JUMPI PUSH1 0x40 MLOAD PUSH3 0x461BCD PUSH1 0xE5 SHL DUP2 MSTORE PUSH1 0x20 PUSH1 0x4 DUP3 ADD MSTORE PUSH1 0x17 PUSH1 0x24 DUP3 ADD MSTORE PUSH32 0x5265616C6D205570677261646520466F7262696464656E000000000000000000 PUSH1 0x44 DUP3 ADD MSTORE PUSH1 0x64 ADD PUSH2 0x1787 JUMP JUMPDEST PUSH1 0x4 DUP1 SLOAD PUSH2 0xFF00 NOT AND PUSH2 0x100 DUP5 ISZERO ISZERO MUL OR SWAP1 SSTORE PUSH1 0x3 SLOAD ADDRESS CALLER PUSH1 0x1 PUSH1 0x1 PUSH1 0xA0 SHL SUB AND PUSH32 0xE9F97AD94C2BA252DCFC525E004F608AC5CB886955D8FC87D9E0EE070A698C56 DUP6 PUSH1 0x40 MLOAD PUSH2 0x18EB SWAP2 ISZERO ISZERO DUP2 MSTORE PUSH1 0x20 ADD SWAP1 JUMP JUMPDEST PUSH1 0x40 MLOAD PUSH4 0x3346DD2D PUSH1 0xE0 SHL DUP2 MSTORE PUSH1 0x45 PUSH1 0x4 DUP3 ADD MSTORE PUSH1 0x24 DUP2 ADD DUP3 SWAP1 MSTORE PUSH1 0x0 SWAP1 PUSH20 0x0 SWAP1 PUSH4 0x3346DD2D SWAP1 PUSH1 0x44 ADD PUSH2 0x105F JUMP JUMPDEST PUSH1 0x0 DUP1 PUSH20 0x0 PUSH4 0x59186F40 PUSH1 0x45 DUP9 DUP9 DUP9 DUP9 PUSH1 0x40 MLOAD DUP7 PUSH4 0xFFFFFFFF AND PUSH1 0xE0 SHL DUP2 MSTORE PUSH1 0x4 ADD PUSH2 0x1B87 SWAP6 SWAP5 SWAP4 SWAP3 SWAP2 SWAP1 PUSH2 0x53FB JUMP JUMPDEST PUSH1 0x20 PUSH1 0x40 MLOAD DUP1 DUP4 SUB DUP2 DUP7 GAS DELEGATECALL ISZERO DUP1 ISZERO PUSH2 0x1BA4 JUMPI RETURNDATASIZE PUSH1 0x0 DUP1 RETURNDATACOPY RETURNDATASIZE PUSH1 0x0 REVERT JUMPDEST POP POP POP POP PUSH1 0x40 MLOAD RETURNDATASIZE PUSH1 0x1F NOT PUSH1 0x1F DUP3 ADD AND DUP3 ADD DUP1 PUSH1 0x40 MSTORE POP DUP2 ADD SWAP1 PUSH2 0x1BC8 SWAP2 SWAP1 PUSH2 0x5071 JUMP JUMPDEST SWAP1 POP CALLER PUSH1 0x1 PUSH1 0x1 PUSH1 0xA0 SHL SUB AND DUP2 PUSH32 0x5A8ACBE7E0FA397D934E9AAFB8FB1A483627AF9E9B4690F4488D740B669F8B47 DUP9 DUP9 DUP9 DUP9 PUSH1 0x40 MLOAD PUSH2 0x1C0A SWAP5 SWAP4 SWAP3 SWAP2 SWAP1 PUSH2 0x542E JUMP JUMPDEST PUSH1 0x40 MLOAD DUP1 SWAP2 SUB SWAP1 LOG3 SWAP6 SWAP5 POP POP POP POP POP JUMP JUMPDEST PUSH1 0x40 MLOAD PUSH4 0x17D6269 PUSH1 0xE0 SHL DUP2 MSTORE PUSH1 0x45 PUSH1 0x4 DUP3 ADD MSTORE PUSH1 0x24 DUP2 ADD DUP3 SWAP1 MSTORE PUSH1 0x0 SWAP1 PUSH20 0x0 SWAP1 PUSH4 0x17D6269 SWAP1 PUSH1 0x44 ADD PUSH2 0x105F JUMP JUMPDEST PUSH1 0x40 MLOAD PUSH4 0xAF07CFCD PUSH1 0xE0 SHL DUP2 MSTORE PUSH1 0x45 PUSH1 0x4 DUP3 ADD MSTORE PUSH1 0x24 DUP2 ADD DUP3 SWAP1 MSTORE PUSH1 0x0 SWAP1 PUSH20 0x0 SWAP1 PUSH4 0xAF07CFCD SWAP1 PUSH1 0x44 ADD PUSH2 0x105F JUMP JUMPDEST PUSH1 0x0 ADDRESS PUSH1 0x1 PUSH1 0x1 PUSH1 0xA0 SHL SUB PUSH32 0x0 AND EQ PUSH2 0x1D19 JUMPI PUSH1 0x40 MLOAD PUSH3 0x461BCD PUSH1 0xE5 SHL DUP2 MSTORE PUSH1 0x20 PUSH1 0x4 DUP3 ADD MSTORE PUSH1 0x1D PUSH1 0x24 DUP3 ADD MSTORE PUSH32 0x496C6C6567616C20436F6E74726163742044656C656761746563616C6C000000 PUSH1 0x44 DUP3 ADD MSTORE PUSH1 0x64 ADD PUSH2 0x1787 JUMP JUMPDEST POP PUSH1 0x0 DUP1 MLOAD PUSH1 0x20 PUSH2 0x5EA1 DUP4 CODECOPY DUP2 MLOAD SWAP2 MSTORE SWAP1 JUMP JUMPDEST PUSH1 0x0 PUSH2 0x133B PUSH2 0x3C12 JUMP JUMPDEST PUSH1 0x40 MLOAD PUSH4 0xEDC9C7D3 PUSH1 0xE0 SHL DUP2 MSTORE PUSH1 0x45 PUSH1 0x4 DUP3 ADD MSTORE PUSH1 0x24 DUP2 ADD DUP3 SWAP1 MSTORE PUSH1 0x0 SWAP1 PUSH20 0x0 SWAP1 PUSH4 0xEDC9C7D3 SWAP1 PUSH1 0x44 ADD PUSH2 0x105F JUMP JUMPDEST PUSH1 0x1 PUSH1 0x1 PUSH1 0xA0 SHL SUB PUSH32 0x0 AND ADDRESS SUB PUSH2 0x1DC0 JUMPI PUSH1 0x40 MLOAD PUSH3 0x461BCD PUSH1 0xE5 SHL DUP2 MSTORE PUSH1 0x4 ADD PUSH2 0x1787 SWAP1 PUSH2 0x5367 JUMP JUMPDEST PUSH32 0x0 PUSH1 0x1 PUSH1 0x1 PUSH1 0xA0 SHL SUB AND PUSH2 0x1DF2 PUSH2 0x3C12 JUMP JUMPDEST PUSH1 0x1 PUSH1 0x1 PUSH1 0xA0 SHL SUB AND EQ PUSH2 0x1E18 JUMPI PUSH1 0x40 MLOAD PUSH3 0x461BCD PUSH1 0xE5 SHL DUP2 MSTORE PUSH1 0x4 ADD PUSH2 0x1787 SWAP1 PUSH2 0x5396 JUMP JUMPDEST CALLER PUSH2 0x1E21 PUSH2 0x3EB2 JUMP JUMPDEST PUSH1 0x1 PUSH1 0x1 PUSH1 0xA0 SHL SUB AND EQ PUSH2 0x1E6F JUMPI PUSH1 0x40 MLOAD PUSH3 0x461BCD PUSH1 0xE5 SHL DUP2 MSTORE PUSH1 0x20 PUSH1 0x4 DUP3 ADD MSTORE PUSH1 0x15 PUSH1 0x24 DUP3 ADD MSTORE PUSH21 0x10D85B1B195C88139BDD08105D5D1A1BDC9A5E9959 PUSH1 0x5A SHL PUSH1 0x44 DUP3 ADD MSTORE PUSH1 0x64 ADD PUSH2 0x1787 JUMP JUMPDEST PUSH1 0x4A SLOAD PUSH3 0x10000 SWAP1 DIV PUSH1 0xFF AND ISZERO DUP1 DUP1 ISZERO PUSH2 0x1E91 JUMPI POP PUSH1 0x4A SLOAD PUSH1 0x1 PUSH2 0xFFFF SWAP1 SWAP2 AND LT JUMPDEST DUP1 PUSH2 0x1EAC JUMPI POP ADDRESS EXTCODESIZE ISZERO DUP1 ISZERO PUSH2 0x1EAC JUMPI POP PUSH1 0x4A SLOAD PUSH2 0xFFFF AND PUSH1 0x1 EQ JUMPDEST PUSH2 0x1EF8 JUMPI PUSH1 0x40 MLOAD PUSH3 0x461BCD PUSH1 0xE5 SHL DUP2 MSTORE PUSH1 0x20 PUSH1 0x4 DUP3 ADD MSTORE PUSH1 0x1C PUSH1 0x24 DUP3 ADD MSTORE PUSH32 0x436F6E747261637420416C726561647920496E697469616C697A656400000000 PUSH1 0x44 DUP3 ADD MSTORE PUSH1 0x64 ADD PUSH2 0x1787 JUMP JUMPDEST PUSH1 0x4A DUP1 SLOAD PUSH2 0xFFFF NOT AND PUSH1 0x1 OR SWAP1 SSTORE DUP1 ISZERO PUSH2 0x1F1E JUMPI PUSH1 0x4A DUP1 SLOAD PUSH3 0xFF0000 NOT AND PUSH3 0x10000 OR SWAP1 SSTORE JUMPDEST PUSH1 0x0 DUP5 DUP5 PUSH1 0x40 MLOAD PUSH1 0x20 ADD PUSH2 0x1F33 SWAP3 SWAP2 SWAP1 PUSH2 0x545A JUMP JUMPDEST PUSH1 0x40 DUP1 MLOAD DUP1 DUP4 SUB PUSH1 0x1F NOT ADD DUP2 MSTORE SWAP1 DUP3 SWAP1 MSTORE DUP1 MLOAD PUSH1 0x20 SWAP1 SWAP2 ADD KECCAK256 PUSH4 0x8BAE383 PUSH1 0xE3 SHL DUP3 MSTORE PUSH1 0x45 PUSH1 0x4 DUP4 ADD MSTORE SWAP2 POP PUSH20 0x0 SWAP1 PUSH4 0x45D71C18 SWAP1 PUSH1 0x24 ADD PUSH1 0x0 PUSH1 0x40 MLOAD DUP1 DUP4 SUB DUP2 DUP7 DUP1 EXTCODESIZE ISZERO DUP1 ISZERO PUSH2 0x1F96 JUMPI PUSH1 0x0 DUP1 REVERT JUMPDEST POP GAS DELEGATECALL ISZERO DUP1 ISZERO PUSH2 0x1FAA JUMPI RETURNDATASIZE PUSH1 0x0 DUP1 RETURNDATACOPY RETURNDATASIZE PUSH1 0x0 REVERT JUMPDEST POP POP POP POP PUSH2 0x1FBC DUP10 DUP10 DUP10 DUP10 DUP6 DUP9 PUSH2 0x3EDA JUMP JUMPDEST PUSH1 0x0 PUSH20 0x0 PUSH4 0x62F3C2D4 PUSH1 0x40 MLOAD DUP2 PUSH4 0xFFFFFFFF AND PUSH1 0xE0 SHL DUP2 MSTORE PUSH1 0x4 ADD PUSH1 0x0 PUSH1 0x40 MLOAD DUP1 DUP4 SUB DUP2 DUP7 GAS DELEGATECALL ISZERO DUP1 ISZERO PUSH2 0x2007 JUMPI RETURNDATASIZE PUSH1 0x0 DUP1 RETURNDATACOPY RETURNDATASIZE PUSH1 0x0 REVERT JUMPDEST POP POP POP POP PUSH1 0x40 MLOAD RETURNDATASIZE PUSH1 0x0 DUP3 RETURNDATACOPY PUSH1 0x1F RETURNDATASIZE SWAP1 DUP2 ADD PUSH1 0x1F NOT AND DUP3 ADD PUSH1 0x40 MSTORE PUSH2 0x202F SWAP2 SWAP1 DUP2 ADD SWAP1 PUSH2 0x546A JUMP JUMPDEST PUSH1 0x40 MLOAD PUSH4 0x1F5DCCE3 PUSH1 0xE3 SHL DUP2 MSTORE SWAP1 SWAP2 POP PUSH20 0x0 SWAP1 PUSH4 0xFAEE6718 SWAP1 PUSH2 0x2070 SWAP1 PUSH1 0x45 SWAP1 ADDRESS SWAP1 DUP8 SWAP1 DUP8 SWAP1 PUSH1 0x4 ADD PUSH2 0x556D JUMP JUMPDEST PUSH1 0x20 PUSH1 0x40 MLOAD DUP1 DUP4 SUB DUP2 DUP7 GAS DELEGATECALL ISZERO DUP1 ISZERO PUSH2 0x208D JUMPI RETURNDATASIZE PUSH1 0x0 DUP1 RETURNDATACOPY RETURNDATASIZE PUSH1 0x0 REVERT JUMPDEST POP POP POP POP PUSH1 0x40 MLOAD RETURNDATASIZE PUSH1 0x1F NOT PUSH1 0x1F DUP3 ADD AND DUP3 ADD DUP1 PUSH1 0x40 MSTORE POP DUP2 ADD SWAP1 PUSH2 0x20B1 SWAP2 SWAP1 PUSH2 0x5071 JUMP JUMPDEST POP PUSH2 0x20BA PUSH2 0x3C12 JUMP JUMPDEST PUSH1 0x1 PUSH1 0x1 PUSH1 0xA0 SHL SUB AND ADDRESS CALLER PUSH1 0x1 PUSH1 0x1 PUSH1 0xA0 SHL SUB AND PUSH32 0xF851A1E85477B818FC72AD517EA622CC316F10F67D61C9E740ADC151A8B41394 DUP14 DUP14 DUP14 DUP14 DUP10 PUSH2 0x2101 PUSH1 0x4A SLOAD PUSH2 0xFFFF AND SWAP1 JUMP JUMPDEST PUSH1 0x40 MLOAD PUSH2 0x2113 SWAP7 SWAP6 SWAP5 SWAP4 SWAP3 SWAP2 SWAP1 PUSH2 0x5645 JUMP JUMPDEST PUSH1 0x40 MLOAD DUP1 SWAP2 SUB SWAP1 LOG4 POP POP DUP1 ISZERO PUSH2 0x2130 JUMPI PUSH1 0x4A DUP1 SLOAD PUSH3 0xFF0000 NOT AND SWAP1 SSTORE JUMPDEST POP POP POP POP POP POP POP POP JUMP JUMPDEST PUSH1 0x40 MLOAD PUSH4 0xE8A623F PUSH1 0xE3 SHL DUP2 MSTORE PUSH1 0x45 PUSH1 0x4 DUP3 ADD MSTORE PUSH1 0x24 DUP2 ADD DUP3 SWAP1 MSTORE PUSH1 0x60 SWAP1 PUSH1 0x0 SWAP1 PUSH20 0x0 SWAP1 PUSH4 0x745311F8 SWAP1 PUSH1 0x44 ADD PUSH1 0x0 PUSH1 0x40 MLOAD DUP1 DUP4 SUB DUP2 DUP7 GAS DELEGATECALL ISZERO DUP1 ISZERO PUSH2 0x2197 JUMPI RETURNDATASIZE PUSH1 0x0 DUP1 RETURNDATACOPY RETURNDATASIZE PUSH1 0x0 REVERT JUMPDEST POP POP POP POP PUSH1 0x40 MLOAD RETURNDATASIZE PUSH1 0x0 DUP3 RETURNDATACOPY PUSH1 0x1F RETURNDATASIZE SWAP1 DUP2 ADD PUSH1 0x1F NOT AND DUP3 ADD PUSH1 0x40 MSTORE PUSH2 0x21BF SWAP2 SWAP1 DUP2 ADD SWAP1 PUSH2 0x568A JUMP JUMPDEST SWAP2 POP SWAP2 POP SWAP2 POP SWAP2 JUMP JUMPDEST PUSH1 0x40 MLOAD PUSH4 0x7134BB45 PUSH1 0xE0 SHL DUP2 MSTORE PUSH1 0x45 PUSH1 0x4 DUP3 ADD MSTORE PUSH1 0x24 DUP2 ADD DUP5 SWAP1 MSTORE PUSH1 0x44 DUP2 ADD DUP4 SWAP1 MSTORE PUSH1 0x1 PUSH1 0x1 PUSH1 0xE0 SHL SUB NOT DUP3 AND PUSH1 0x64 DUP3 ADD MSTORE PUSH1 0x0 SWAP1 PUSH20 0x0 SWAP1 PUSH4 0x7134BB45 SWAP1 PUSH1 0x84 ADD JUMPDEST PUSH1 0x20 PUSH1 0x40 MLOAD DUP1 DUP4 SUB DUP2 DUP7 GAS DELEGATECALL ISZERO DUP1 ISZERO PUSH2 0x223A JUMPI RETURNDATASIZE PUSH1 0x0 DUP1 RETURNDATACOPY RETURNDATASIZE PUSH1 0x0 REVERT JUMPDEST POP POP POP POP PUSH1 0x40 MLOAD RETURNDATASIZE PUSH1 0x1F NOT PUSH1 0x1F DUP3 ADD AND DUP3 ADD DUP1 PUSH1 0x40 MSTORE POP DUP2 ADD SWAP1 PUSH2 0x225E SWAP2 SWAP1 PUSH2 0x50A4 JUMP JUMPDEST SWAP5 SWAP4 POP POP POP POP JUMP JUMPDEST PUSH1 0x40 MLOAD PUSH4 0x7CC5941D PUSH1 0xE0 SHL DUP2 MSTORE PUSH1 0x45 PUSH1 0x4 DUP3 ADD MSTORE PUSH1 0x24 DUP2 ADD DUP4 SWAP1 MSTORE DUP2 ISZERO ISZERO PUSH1 0x44 DUP3 ADD MSTORE PUSH1 0x0 SWAP1 DUP2 SWAP1 DUP2 SWAP1 PUSH20 0x0 SWAP1 PUSH4 0x7CC5941D SWAP1 PUSH1 0x64 ADD PUSH1 0x40 DUP1 MLOAD DUP1 DUP4 SUB DUP2 DUP7 GAS DELEGATECALL ISZERO DUP1 ISZERO PUSH2 0x22CB JUMPI RETURNDATASIZE PUSH1 0x0 DUP1 RETURNDATACOPY RETURNDATASIZE PUSH1 0x0 REVERT JUMPDEST POP POP POP POP PUSH1 0x40 MLOAD RETURNDATASIZE PUSH1 0x1F NOT PUSH1 0x1F DUP3 ADD AND DUP3 ADD DUP1 PUSH1 0x40 MSTORE POP DUP2 ADD SWAP1 PUSH2 0x22EF SWAP2 SWAP1 PUSH2 0x56D0 JUMP JUMPDEST SWAP2 POP SWAP2 POP DUP1 PUSH2 0x22FB CALLER SWAP1 JUMP JUMPDEST PUSH1 0x1 PUSH1 0x1 PUSH1 0xA0 SHL SUB AND DUP7 PUSH32 0x354501E3216E5F916D4D35EF255A577D106A7EAB306488227783A837DC042A4E DUP8 PUSH1 0x40 MLOAD PUSH2 0x2338 SWAP2 ISZERO ISZERO DUP2 MSTORE PUSH1 0x20 ADD SWAP1 JUMP JUMPDEST PUSH1 0x40 MLOAD DUP1 SWAP2 SUB SWAP1 LOG4 POP SWAP4 SWAP3 POP POP POP JUMP JUMPDEST PUSH1 0x60 PUSH1 0x1 PUSH1 0x1 PUSH1 0xA0 SHL SUB PUSH32 0x0 AND ADDRESS SUB PUSH2 0x2392 JUMPI PUSH1 0x40 MLOAD PUSH3 0x461BCD PUSH1 0xE5 SHL DUP2 MSTORE PUSH1 0x4 ADD PUSH2 0x1787 SWAP1 PUSH2 0x5367 JUMP JUMPDEST PUSH32 0x0 PUSH1 0x1 PUSH1 0x1 PUSH1 0xA0 SHL SUB AND PUSH2 0x23C4 PUSH2 0x3C12 JUMP JUMPDEST PUSH1 0x1 PUSH1 0x1 PUSH1 0xA0 SHL SUB AND EQ PUSH2 0x23EA JUMPI PUSH1 0x40 MLOAD PUSH3 0x461BCD PUSH1 0xE5 SHL DUP2 MSTORE PUSH1 0x4 ADD PUSH2 0x1787 SWAP1 PUSH2 0x5396 JUMP JUMPDEST PUSH1 0x4 SLOAD PUSH1 0xFF AND ISZERO PUSH2 0x240D JUMPI PUSH1 0x40 MLOAD PUSH3 0x461BCD PUSH1 0xE5 SHL DUP2 MSTORE PUSH1 0x4 ADD PUSH2 0x1787 SWAP1 PUSH2 0x53C4 JUMP JUMPDEST PUSH1 0x4 SLOAD PUSH2 0x100 SWAP1 DIV PUSH1 0xFF AND PUSH2 0x245C JUMPI PUSH1 0x40 MLOAD PUSH3 0x461BCD PUSH1 0xE5 SHL DUP2 MSTORE PUSH1 0x20 PUSH1 0x4 DUP3 ADD MSTORE PUSH1 0x15 PUSH1 0x24 DUP3 ADD MSTORE PUSH21 0x155C19DC9859194810D85B1B0814995A9958DD1959 PUSH1 0x5A SHL PUSH1 0x44 DUP3 ADD MSTORE PUSH1 0x64 ADD PUSH2 0x1787 JUMP JUMPDEST PUSH2 0x2465 DUP5 PUSH2 0x3EF0 JUMP JUMPDEST PUSH2 0x225E DUP5 DUP5 DUP5 PUSH2 0x3FB7 JUMP JUMPDEST PUSH1 0x4 SLOAD PUSH1 0xFF AND ISZERO PUSH2 0x2493 JUMPI PUSH1 0x40 MLOAD PUSH3 0x461BCD PUSH1 0xE5 SHL DUP2 MSTORE PUSH1 0x4 ADD PUSH2 0x1787 SWAP1 PUSH2 0x53C4 JUMP JUMPDEST PUSH2 0x24A3 PUSH4 0x756AF45F PUSH1 0xE0 SHL PUSH2 0x3C33 JUMP JUMPDEST PUSH2 0x24EF JUMPI PUSH1 0x40 MLOAD PUSH3 0x461BCD PUSH1 0xE5 SHL DUP2 MSTORE PUSH1 0x20 PUSH1 0x4 DUP3 ADD MSTORE PUSH1 0x1A PUSH1 0x24 DUP3 ADD MSTORE PUSH32 0x57697468647261772042616C616E636520466F7262696464656E000000000000 PUSH1 0x44 DUP3 ADD MSTORE PUSH1 0x64 ADD PUSH2 0x1787 JUMP JUMPDEST PUSH1 0x40 MLOAD PUSH1 0x1 PUSH1 0x1 PUSH1 0xA0 SHL SUB DUP3 AND SWAP1 SELFBALANCE DUP1 ISZERO PUSH2 0x8FC MUL SWAP2 PUSH1 0x0 DUP2 DUP2 DUP2 DUP6 DUP9 DUP9 CALL SWAP4 POP POP POP POP ISZERO DUP1 ISZERO PUSH2 0x2524 JUMPI RETURNDATASIZE PUSH1 0x0 DUP1 RETURNDATACOPY RETURNDATASIZE PUSH1 0x0 REVERT JUMPDEST POP POP JUMP JUMPDEST PUSH1 0x0 DUP1 PUSH20 0x0 PUSH4 0x453DD6DC PUSH1 0x45 DUP8 DUP8 DUP8 PUSH1 0x40 MLOAD DUP6 PUSH4 0xFFFFFFFF AND PUSH1 0xE0 SHL DUP2 MSTORE PUSH1 0x4 ADD PUSH2 0x2569 SWAP5 SWAP4 SWAP3 SWAP2 SWAP1 PUSH2 0x504C JUMP JUMPDEST PUSH1 0x20 PUSH1 0x40 MLOAD DUP1 DUP4 SUB DUP2 DUP7 GAS DELEGATECALL ISZERO DUP1 ISZERO PUSH2 0x2586 JUMPI RETURNDATASIZE PUSH1 0x0 DUP1 RETURNDATACOPY RETURNDATASIZE PUSH1 0x0 REVERT JUMPDEST POP POP POP POP PUSH1 0x40 MLOAD RETURNDATASIZE PUSH1 0x1F NOT PUSH1 0x1F DUP3 ADD AND DUP3 ADD DUP1 PUSH1 0x40 MSTORE POP DUP2 ADD SWAP1 PUSH2 0x25AA SWAP2 SWAP1 PUSH2 0x5071 JUMP JUMPDEST SWAP1 POP CALLER PUSH1 0x1 PUSH1 0x1 PUSH1 0xA0 SHL SUB AND DUP4 DUP7 PUSH32 0xEA00FF399A342F54B82233841F91FAA5677300E901667E010E9F22AEA1AE5931 DUP8 DUP6 PUSH1 0x40 MLOAD PUSH2 0x1004 SWAP3 SWAP2 SWAP1 PUSH2 0x508A JUMP JUMPDEST PUSH1 0x0 DUP1 PUSH1 0x0 DUP1 PUSH20 0x0 PUSH4 0x4AC3FDD4 PUSH1 0x45 DUP11 DUP11 DUP11 DUP11 PUSH1 0x40 MLOAD DUP7 PUSH4 0xFFFFFFFF AND PUSH1 0xE0 SHL DUP2 MSTORE PUSH1 0x4 ADD PUSH2 0x262F SWAP6 SWAP5 SWAP4 SWAP3 SWAP2 SWAP1 PUSH2 0x5841 JUMP JUMPDEST PUSH1 0x60 PUSH1 0x40 MLOAD DUP1 DUP4 SUB DUP2 DUP7 GAS DELEGATECALL ISZERO DUP1 ISZERO PUSH2 0x264C JUMPI RETURNDATASIZE PUSH1 0x0 DUP1 RETURNDATACOPY RETURNDATASIZE PUSH1 0x0 REVERT JUMPDEST POP POP POP POP PUSH1 0x40 MLOAD RETURNDATASIZE PUSH1 0x1F NOT PUSH1 0x1F DUP3 ADD AND DUP3 ADD DUP1 PUSH1 0x40 MSTORE POP DUP2 ADD SWAP1 PUSH2 0x2670 SWAP2 SWAP1 PUSH2 0x58EB JUMP JUMPDEST SWAP3 POP SWAP3 POP SWAP3 POP PUSH2 0x267D CALLER SWAP1 JUMP JUMPDEST PUSH1 0x1 PUSH1 0x1 PUSH1 0xA0 SHL SUB SWAP1 DUP2 AND SWAP1 DUP5 AND DUP4 PUSH32 0xCC1B95900C3E2C3876E4B29283DE90AC446BD6049A0DF525D14A8C07D36AE70C DUP5 PUSH2 0x26BE PUSH1 0xC0 DUP14 ADD PUSH1 0xA0 DUP15 ADD PUSH2 0x477A JUMP JUMPDEST PUSH2 0x26CE PUSH1 0xA0 DUP15 ADD PUSH1 0x80 DUP16 ADD PUSH2 0x477A JUMP JUMPDEST PUSH1 0x40 DUP1 MLOAD PUSH1 0x1 PUSH1 0x1 PUSH1 0xA0 SHL SUB SWAP5 DUP6 AND DUP2 MSTORE SWAP3 DUP5 AND PUSH1 0x20 DUP5 ADD MSTORE SWAP3 AND DUP2 DUP4 ADD MSTORE SWAP1 DUP13 ADD CALLDATALOAD PUSH1 0x60 DUP3 ADD MSTORE PUSH1 0x80 ADD JUMPDEST PUSH1 0x40 MLOAD DUP1 SWAP2 SUB SWAP1 LOG4 POP SWAP7 SWAP6 POP POP POP POP POP POP JUMP JUMPDEST PUSH1 0x0 PUSH2 0x133B ADDRESS PUSH2 0x4208 JUMP JUMPDEST PUSH1 0x0 CALLER PUSH1 0x1 PUSH1 0x1 PUSH1 0xA0 SHL SUB AND DUP4 PUSH32 0xFE1617B569BD167AB40B31E034F68E32656219DBE4AB9469A00660550FEC72C8 DUP5 PUSH1 0x40 MLOAD PUSH2 0x2758 SWAP2 ISZERO ISZERO DUP2 MSTORE PUSH1 0x20 ADD SWAP1 JUMP JUMPDEST PUSH1 0x40 MLOAD DUP1 SWAP2 SUB SWAP1 LOG3 PUSH1 0x40 MLOAD PUSH4 0x549F02D PUSH1 0xE0 SHL DUP2 MSTORE PUSH1 0x45 PUSH1 0x4 DUP3 ADD MSTORE PUSH1 0x24 DUP2 ADD DUP5 SWAP1 MSTORE DUP3 ISZERO ISZERO PUSH1 0x44 DUP3 ADD MSTORE PUSH20 0x0 SWAP1 PUSH4 0x549F02D SWAP1 PUSH1 0x64 ADD PUSH2 0x1121 JUMP JUMPDEST PUSH1 0x40 MLOAD PUSH4 0x10F07501 PUSH1 0xE0 SHL DUP2 MSTORE PUSH1 0x45 PUSH1 0x4 DUP3 ADD MSTORE PUSH1 0x24 DUP2 ADD DUP3 SWAP1 MSTORE PUSH1 0x0 SWAP1 PUSH20 0x0 SWAP1 PUSH4 0x10F07501 SWAP1 PUSH1 0x44 ADD PUSH2 0x105F JUMP JUMPDEST PUSH1 0x40 MLOAD PUSH1 0x0 SWAP1 PUSH1 0x1 PUSH1 0x1 PUSH1 0xA0 SHL SUB DUP4 AND SWAP1 DUP5 SWAP1 CALLER SWAP1 PUSH32 0xD992F85DF7A0BE47C44B0BE141BE17EEFD360033A4CE05B5458FBA27B7781999 SWAP1 DUP6 SWAP1 LOG4 PUSH1 0x40 MLOAD PUSH4 0x89D4DA65 PUSH1 0xE0 SHL DUP2 MSTORE PUSH1 0x45 PUSH1 0x4 DUP3 ADD MSTORE PUSH1 0x24 DUP2 ADD DUP5 SWAP1 MSTORE PUSH1 0x1 PUSH1 0x1 PUSH1 0xA0 SHL SUB DUP4 AND PUSH1 0x44 DUP3 ADD MSTORE PUSH20 0x0 SWAP1 PUSH4 0x89D4DA65 SWAP1 PUSH1 0x64 ADD PUSH2 0x1121 JUMP JUMPDEST PUSH1 0x40 MLOAD PUSH4 0x327C4965 PUSH1 0xE1 SHL DUP2 MSTORE PUSH1 0x45 PUSH1 0x4 DUP3 ADD MSTORE PUSH1 0x24 DUP2 ADD DUP3 SWAP1 MSTORE PUSH1 0x0 SWAP1 PUSH20 0x0 SWAP1 PUSH4 0x64F892CA SWAP1 PUSH1 0x44 ADD PUSH2 0x105F JUMP JUMPDEST PUSH1 0x0 DUP1 JUMPDEST DUP3 DUP2 LT ISZERO PUSH2 0x295C JUMPI DUP4 DUP4 DUP3 DUP2 DUP2 LT PUSH2 0x28D1 JUMPI PUSH2 0x28D1 PUSH2 0x52D5 JUMP JUMPDEST SWAP1 POP PUSH1 0x40 MUL ADD PUSH1 0x20 ADD PUSH1 0x20 DUP2 ADD SWAP1 PUSH2 0x28E9 SWAP2 SWAP1 PUSH2 0x477A JUMP JUMPDEST PUSH1 0x1 PUSH1 0x1 PUSH1 0xA0 SHL SUB AND DUP5 DUP5 DUP4 DUP2 DUP2 LT PUSH2 0x2904 JUMPI PUSH2 0x2904 PUSH2 0x52D5 JUMP JUMPDEST SWAP1 POP PUSH1 0x40 MUL ADD PUSH1 0x0 ADD CALLDATALOAD PUSH2 0x2915 CALLER SWAP1 JUMP JUMPDEST PUSH1 0x1 PUSH1 0x1 PUSH1 0xA0 SHL SUB AND PUSH32 0xD992F85DF7A0BE47C44B0BE141BE17EEFD360033A4CE05B5458FBA27B7781999 PUSH1 0x40 MLOAD PUSH1 0x40 MLOAD DUP1 SWAP2 SUB SWAP1 LOG4 DUP1 PUSH2 0x2954 DUP2 PUSH2 0x5939 JUMP JUMPDEST SWAP2 POP POP PUSH2 0x28B7 JUMP JUMPDEST POP PUSH1 0x40 MLOAD PUSH4 0x38290B51 PUSH1 0xE1 SHL DUP2 MSTORE PUSH20 0x0 SWAP1 PUSH4 0x705216A2 SWAP1 PUSH2 0x1121 SWAP1 PUSH1 0x45 SWAP1 DUP8 SWAP1 DUP8 SWAP1 PUSH1 0x4 ADD PUSH2 0x5952 JUMP JUMPDEST PUSH1 0x40 MLOAD PUSH4 0x1AEF95D9 PUSH1 0xE3 SHL DUP2 MSTORE PUSH1 0x45 PUSH1 0x4 DUP3 ADD MSTORE PUSH1 0x24 DUP2 ADD DUP3 SWAP1 MSTORE PUSH1 0x0 SWAP1 PUSH20 0x0 SWAP1 PUSH4 0xD77CAEC8 SWAP1 PUSH1 0x44 ADD PUSH2 0x105F JUMP JUMPDEST PUSH1 0x60 PUSH1 0x0 PUSH20 0x0 PUSH4 0xC967FB65 PUSH1 0x45 DUP7 DUP7 PUSH1 0x40 MLOAD DUP5 PUSH4 0xFFFFFFFF AND PUSH1 0xE0 SHL DUP2 MSTORE PUSH1 0x4 ADD PUSH2 0x2A1B SWAP4 SWAP3 SWAP2 SWAP1 PUSH2 0x59A7 JUMP JUMPDEST PUSH1 0x0 PUSH1 0x40 MLOAD DUP1 DUP4 SUB DUP2 DUP7 GAS DELEGATECALL ISZERO DUP1 ISZERO PUSH2 0x2A38 JUMPI RETURNDATASIZE PUSH1 0x0 DUP1 RETURNDATACOPY RETURNDATASIZE PUSH1 0x0 REVERT JUMPDEST POP POP POP POP PUSH1 0x40 MLOAD RETURNDATASIZE PUSH1 0x0 DUP3 RETURNDATACOPY PUSH1 0x1F RETURNDATASIZE SWAP1 DUP2 ADD PUSH1 0x1F NOT AND DUP3 ADD PUSH1 0x40 MSTORE PUSH2 0x2A60 SWAP2 SWAP1 DUP2 ADD SWAP1 PUSH2 0x51A7 JUMP JUMPDEST SWAP1 POP PUSH1 0x0 JUMPDEST DUP4 DUP2 LT ISZERO PUSH2 0x2B84 JUMPI DUP5 DUP5 DUP3 DUP2 DUP2 LT PUSH2 0x2A7F JUMPI PUSH2 0x2A7F PUSH2 0x52D5 JUMP JUMPDEST SWAP1 POP PUSH1 0x20 MUL DUP2 ADD SWAP1 PUSH2 0x2A91 SWAP2 SWAP1 PUSH2 0x5A7E JUMP JUMPDEST PUSH2 0x2A9F SWAP1 PUSH1 0x20 DUP2 ADD SWAP1 PUSH2 0x5A9E JUMP JUMPDEST PUSH1 0x40 MLOAD PUSH2 0x2AAD SWAP3 SWAP2 SWAP1 PUSH2 0x545A JUMP JUMPDEST PUSH1 0x40 MLOAD DUP1 SWAP2 SUB SWAP1 KECCAK256 DUP3 DUP3 DUP2 MLOAD DUP2 LT PUSH2 0x2AC7 JUMPI PUSH2 0x2AC7 PUSH2 0x52D5 JUMP JUMPDEST PUSH1 0x20 MUL PUSH1 0x20 ADD ADD MLOAD PUSH2 0x2AD6 CALLER SWAP1 JUMP JUMPDEST PUSH1 0x1 PUSH1 0x1 PUSH1 0xA0 SHL SUB AND PUSH32 0x539B07DDDD6BD9FFEFA3D951A9467D78948CBE1A8D13BE00E7376842A83A5981 DUP9 DUP9 DUP7 DUP2 DUP2 LT PUSH2 0x2B12 JUMPI PUSH2 0x2B12 PUSH2 0x52D5 JUMP JUMPDEST SWAP1 POP PUSH1 0x20 MUL DUP2 ADD SWAP1 PUSH2 0x2B24 SWAP2 SWAP1 PUSH2 0x5A7E JUMP JUMPDEST CALLDATALOAD DUP10 DUP10 DUP8 DUP2 DUP2 LT PUSH2 0x2B37 JUMPI PUSH2 0x2B37 PUSH2 0x52D5 JUMP JUMPDEST SWAP1 POP PUSH1 0x20 MUL DUP2 ADD SWAP1 PUSH2 0x2B49 SWAP2 SWAP1 PUSH2 0x5A7E JUMP JUMPDEST PUSH2 0x2B5A SWAP1 PUSH1 0x60 DUP2 ADD SWAP1 PUSH1 0x40 ADD PUSH2 0x49CD JUMP JUMPDEST PUSH1 0x40 DUP1 MLOAD SWAP3 DUP4 MSTORE SWAP1 ISZERO ISZERO PUSH1 0x20 DUP4 ADD MSTORE ADD PUSH1 0x40 MLOAD DUP1 SWAP2 SUB SWAP1 LOG4 DUP1 PUSH2 0x2B7C DUP2 PUSH2 0x5939 JUMP JUMPDEST SWAP2 POP POP PUSH2 0x2A65 JUMP JUMPDEST POP SWAP4 SWAP3 POP POP POP JUMP JUMPDEST PUSH1 0x40 DUP1 MLOAD PUSH1 0xC0 DUP2 ADD DUP3 MSTORE PUSH1 0x0 DUP1 DUP3 MSTORE PUSH1 0x20 DUP3 ADD DUP2 SWAP1 MSTORE DUP2 DUP4 ADD DUP2 SWAP1 MSTORE PUSH1 0x60 DUP3 ADD DUP2 SWAP1 MSTORE PUSH1 0x80 DUP3 ADD DUP2 SWAP1 MSTORE PUSH1 0xA0 DUP3 ADD MSTORE SWAP1 MLOAD PUSH4 0x399D749F PUSH1 0xE1 SHL DUP2 MSTORE PUSH1 0x45 PUSH1 0x4 DUP3 ADD MSTORE PUSH1 0x24 DUP2 ADD DUP4 SWAP1 MSTORE PUSH20 0x0 SWAP1 PUSH4 0x733AE93E SWAP1 PUSH1 0x44 ADD PUSH1 0xC0 PUSH1 0x40 MLOAD DUP1 DUP4 SUB DUP2 DUP7 GAS DELEGATECALL ISZERO DUP1 ISZERO PUSH2 0x2C11 JUMPI RETURNDATASIZE PUSH1 0x0 DUP1 RETURNDATACOPY RETURNDATASIZE PUSH1 0x0 REVERT JUMPDEST POP POP POP POP PUSH1 0x40 MLOAD RETURNDATASIZE PUSH1 0x1F NOT PUSH1 0x1F DUP3 ADD AND DUP3 ADD DUP1 PUSH1 0x40 MSTORE POP DUP2 ADD SWAP1 PUSH2 0xF3D SWAP2 SWAP1 PUSH2 0x5AE4 JUMP JUMPDEST PUSH1 0x40 MLOAD PUSH4 0x2D796D35 PUSH1 0xE2 SHL DUP2 MSTORE PUSH1 0x45 PUSH1 0x4 DUP3 ADD MSTORE PUSH1 0x24 DUP2 ADD DUP3 SWAP1 MSTORE PUSH1 0x0 SWAP1 PUSH20 0x0 SWAP1 PUSH4 0xB5E5B4D4 SWAP1 PUSH1 0x44 ADD PUSH2 0x105F JUMP JUMPDEST PUSH1 0x40 MLOAD PUSH4 0x23707DB3 PUSH1 0xE0 SHL DUP2 MSTORE PUSH1 0x45 PUSH1 0x4 DUP3 ADD MSTORE PUSH1 0x1 PUSH1 0x1 PUSH1 0xA0 SHL SUB DUP3 AND PUSH1 0x24 DUP3 ADD MSTORE PUSH1 0x0 SWAP1 PUSH20 0x0 SWAP1 PUSH4 0x23707DB3 SWAP1 PUSH1 0x44 ADD PUSH2 0x105F JUMP JUMPDEST PUSH1 0x0 DUP1 PUSH20 0x0 PUSH4 0x3859EB7F PUSH1 0x45 DUP9 DUP9 DUP9 DUP9 PUSH1 0x40 MLOAD DUP7 PUSH4 0xFFFFFFFF AND PUSH1 0xE0 SHL DUP2 MSTORE PUSH1 0x4 ADD PUSH2 0x2D04 SWAP6 SWAP5 SWAP4 SWAP3 SWAP2 SWAP1 PUSH2 0x5B75 JUMP JUMPDEST PUSH1 0x20 PUSH1 0x40 MLOAD DUP1 DUP4 SUB DUP2 DUP7 GAS DELEGATECALL ISZERO DUP1 ISZERO PUSH2 0x2D21 JUMPI RETURNDATASIZE PUSH1 0x0 DUP1 RETURNDATACOPY RETURNDATASIZE PUSH1 0x0 REVERT JUMPDEST POP POP POP POP PUSH1 0x40 MLOAD RETURNDATASIZE PUSH1 0x1F NOT PUSH1 0x1F DUP3 ADD AND DUP3 ADD DUP1 PUSH1 0x40 MSTORE POP DUP2 ADD SWAP1 PUSH2 0x2D45 SWAP2 SWAP1 PUSH2 0x5071 JUMP JUMPDEST SWAP1 POP DUP6 DUP6 PUSH1 0x40 MLOAD PUSH2 0x2D57 SWAP3 SWAP2 SWAP1 PUSH2 0x545A JUMP JUMPDEST PUSH1 0x40 MLOAD DUP1 SWAP2 SUB SWAP1 KECCAK256 DUP2 PUSH2 0x2D67 CALLER SWAP1 JUMP JUMPDEST PUSH1 0x1 PUSH1 0x1 PUSH1 0xA0 SHL SUB AND PUSH32 0x539B07DDDD6BD9FFEFA3D951A9467D78948CBE1A8D13BE00E7376842A83A5981 DUP8 DUP8 PUSH1 0x40 MLOAD PUSH2 0x2DAC SWAP3 SWAP2 SWAP1 SWAP2 DUP3 MSTORE ISZERO ISZERO PUSH1 0x20 DUP3 ADD MSTORE PUSH1 0x40 ADD SWAP1 JUMP JUMPDEST PUSH1 0x40 MLOAD DUP1 SWAP2 SUB SWAP1 LOG4 SWAP6 SWAP5 POP POP POP POP POP JUMP JUMPDEST PUSH1 0x40 MLOAD PUSH4 0x37B3CDD7 PUSH1 0xE2 SHL DUP2 MSTORE PUSH1 0x0 SWAP1 PUSH20 0x0 SWAP1 PUSH4 0xDECF375C SWAP1 PUSH2 0x1121 SWAP1 PUSH1 0x45 SWAP1 DUP8 SWAP1 DUP8 SWAP1 PUSH1 0x4 ADD PUSH2 0x50C1 JUMP JUMPDEST PUSH1 0x0 DUP1 PUSH20 0x0 PUSH4 0xB0C25575 PUSH1 0x45 DUP7 DUP7 PUSH1 0x40 MLOAD DUP5 PUSH4 0xFFFFFFFF AND PUSH1 0xE0 SHL DUP2 MSTORE PUSH1 0x4 ADD PUSH2 0x2E3B SWAP4 SWAP3 SWAP2 SWAP1 PUSH2 0x50C1 JUMP JUMPDEST PUSH1 0x20 PUSH1 0x40 MLOAD DUP1 DUP4 SUB DUP2 DUP7 GAS DELEGATECALL ISZERO DUP1 ISZERO PUSH2 0x2E58 JUMPI RETURNDATASIZE PUSH1 0x0 DUP1 RETURNDATACOPY RETURNDATASIZE PUSH1 0x0 REVERT JUMPDEST POP POP POP POP PUSH1 0x40 MLOAD RETURNDATASIZE PUSH1 0x1F NOT PUSH1 0x1F DUP3 ADD AND DUP3 ADD DUP1 PUSH1 0x40 MSTORE POP DUP2 ADD SWAP1 PUSH2 0x2E7C SWAP2 SWAP1 PUSH2 0x5071 JUMP JUMPDEST SWAP1 POP CALLER PUSH1 0x1 PUSH1 0x1 PUSH1 0xA0 SHL SUB AND DUP5 PUSH32 0xA6234DFEA6DA9D63D0505BA9B61AC8405DFD897089208859CDA18011C4847D69 DUP6 DUP5 PUSH1 0x40 MLOAD PUSH2 0x2EBA SWAP3 SWAP2 SWAP1 PUSH2 0x508A JUMP JUMPDEST PUSH1 0x40 MLOAD DUP1 SWAP2 SUB SWAP1 LOG3 POP PUSH1 0x1 SWAP4 SWAP3 POP POP POP JUMP JUMPDEST PUSH1 0x0 CALLER PUSH1 0x1 PUSH1 0x1 PUSH1 0xA0 SHL SUB AND DUP4 PUSH32 0xE595D6B009CBFD06BFDFC4B7C06799F0E0B08FB2C6F5FA6E28A9AAC2495440F9 DUP5 PUSH1 0x40 MLOAD PUSH2 0x2F0C SWAP2 ISZERO ISZERO DUP2 MSTORE PUSH1 0x20 ADD SWAP1 JUMP JUMPDEST PUSH1 0x40 MLOAD DUP1 SWAP2 SUB SWAP1 LOG3 PUSH1 0x40 MLOAD PUSH4 0x7C95BCDF PUSH1 0xE0 SHL DUP2 MSTORE PUSH1 0x45 PUSH1 0x4 DUP3 ADD MSTORE PUSH1 0x24 DUP2 ADD DUP5 SWAP1 MSTORE DUP3 ISZERO ISZERO PUSH1 0x44 DUP3 ADD MSTORE PUSH20 0x0 SWAP1 PUSH4 0x7C95BCDF SWAP1 PUSH1 0x64 ADD PUSH2 0x1121 JUMP JUMPDEST PUSH1 0x40 MLOAD PUSH4 0x1F9471EF PUSH1 0xE0 SHL DUP2 MSTORE PUSH1 0x45 PUSH1 0x4 DUP3 ADD MSTORE PUSH1 0x24 DUP2 ADD DUP3 SWAP1 MSTORE PUSH1 0x60 SWAP1 PUSH1 0x0 SWAP1 DUP2 SWAP1 PUSH20 0x0 SWAP1 PUSH4 0x1F9471EF SWAP1 PUSH1 0x44 ADD PUSH1 0x0 PUSH1 0x40 MLOAD DUP1 DUP4 SUB DUP2 DUP7 GAS DELEGATECALL ISZERO DUP1 ISZERO PUSH2 0x2FBA JUMPI RETURNDATASIZE PUSH1 0x0 DUP1 RETURNDATACOPY RETURNDATASIZE PUSH1 0x0 REVERT JUMPDEST POP POP POP POP PUSH1 0x40 MLOAD RETURNDATASIZE PUSH1 0x0 DUP3 RETURNDATACOPY PUSH1 0x1F RETURNDATASIZE SWAP1 DUP2 ADD PUSH1 0x1F NOT AND DUP3 ADD PUSH1 0x40 MSTORE PUSH2 0x13C7 SWAP2 SWAP1 DUP2 ADD SWAP1 PUSH2 0x5BA8 JUMP JUMPDEST PUSH1 0x40 MLOAD PUSH4 0x8C6C9C7 PUSH1 0xE2 SHL DUP2 MSTORE PUSH1 0x45 PUSH1 0x4 DUP3 ADD MSTORE PUSH1 0x1 PUSH1 0x1 PUSH1 0xA0 SHL SUB DUP3 AND PUSH1 0x24 DUP3 ADD MSTORE PUSH1 0x0 SWAP1 PUSH20 0x0 SWAP1 PUSH4 0x231B271C SWAP1 PUSH1 0x44 ADD PUSH2 0x105F JUMP JUMPDEST PUSH1 0x40 MLOAD PUSH4 0x4D74F43 PUSH1 0xE1 SHL DUP2 MSTORE PUSH1 0x45 PUSH1 0x4 DUP3 ADD MSTORE PUSH1 0x1 PUSH1 0x1 PUSH1 0xA0 SHL SUB DUP3 AND PUSH1 0x24 DUP3 ADD MSTORE PUSH1 0x0 SWAP1 PUSH20 0x0 SWAP1 PUSH4 0x9AE9E86 SWAP1 PUSH1 0x44 ADD PUSH2 0x105F JUMP JUMPDEST PUSH1 0x40 MLOAD PUSH4 0x3BCD353D PUSH1 0xE1 SHL DUP2 MSTORE PUSH1 0x45 PUSH1 0x4 DUP3 ADD MSTORE PUSH1 0x24 DUP2 ADD DUP3 SWAP1 MSTORE PUSH1 0x0 SWAP1 PUSH20 0x0 SWAP1 PUSH4 0x779A6A7A SWAP1 PUSH1 0x44 ADD PUSH2 0x105F JUMP JUMPDEST PUSH1 0x0 DUP1 JUMPDEST DUP3 DUP2 LT ISZERO PUSH2 0x3161 JUMPI DUP4 DUP4 DUP3 DUP2 DUP2 LT PUSH2 0x30D6 JUMPI PUSH2 0x30D6 PUSH2 0x52D5 JUMP JUMPDEST SWAP1 POP PUSH1 0x40 MUL ADD PUSH1 0x20 ADD PUSH1 0x20 DUP2 ADD SWAP1 PUSH2 0x30EE SWAP2 SWAP1 PUSH2 0x477A JUMP JUMPDEST PUSH1 0x1 PUSH1 0x1 PUSH1 0xA0 SHL SUB AND DUP5 DUP5 DUP4 DUP2 DUP2 LT PUSH2 0x3109 JUMPI PUSH2 0x3109 PUSH2 0x52D5 JUMP JUMPDEST SWAP1 POP PUSH1 0x40 MUL ADD PUSH1 0x0 ADD CALLDATALOAD PUSH2 0x311A CALLER SWAP1 JUMP JUMPDEST PUSH1 0x1 PUSH1 0x1 PUSH1 0xA0 SHL SUB AND PUSH32 0x1D31FE42F06D4C1F16F6CB7B5682F1D6743641A9E1412FA0258F6776C5B943EE PUSH1 0x40 MLOAD PUSH1 0x40 MLOAD DUP1 SWAP2 SUB SWAP1 LOG4 DUP1 PUSH2 0x3159 DUP2 PUSH2 0x5939 JUMP JUMPDEST SWAP2 POP POP PUSH2 0x30BC JUMP JUMPDEST POP PUSH1 0x40 MLOAD PUSH4 0x17417557 PUSH1 0xE3 SHL DUP2 MSTORE PUSH20 0x0 SWAP1 PUSH4 0xBA0BAAB8 SWAP1 PUSH2 0x1121 SWAP1 PUSH1 0x45 SWAP1 DUP8 SWAP1 DUP8 SWAP1 PUSH1 0x4 ADD PUSH2 0x5952 JUMP JUMPDEST PUSH1 0x40 MLOAD PUSH4 0x243E34B PUSH1 0xE5 SHL DUP2 MSTORE PUSH1 0x45 PUSH1 0x4 DUP3 ADD MSTORE PUSH1 0x24 DUP2 ADD DUP5 SWAP1 MSTORE PUSH1 0x1 PUSH1 0x1 PUSH1 0xA0 SHL SUB DUP4 AND PUSH1 0x44 DUP3 ADD MSTORE PUSH1 0x1 PUSH1 0x1 PUSH1 0xE0 SHL SUB NOT DUP3 AND PUSH1 0x64 DUP3 ADD MSTORE PUSH1 0x0 SWAP1 PUSH20 0x0 SWAP1 PUSH4 0x487C6960 SWAP1 PUSH1 0x84 ADD PUSH2 0x221D JUMP JUMPDEST PUSH1 0x40 MLOAD PUSH4 0x938AE71 PUSH1 0xE0 SHL DUP2 MSTORE PUSH1 0x45 PUSH1 0x4 DUP3 ADD MSTORE PUSH1 0x24 DUP2 ADD DUP4 SWAP1 MSTORE PUSH1 0x1 PUSH1 0x1 PUSH1 0xA0 SHL SUB DUP3 AND PUSH1 0x44 DUP3 ADD MSTORE PUSH1 0x0 SWAP1 PUSH20 0x0 SWAP1 PUSH4 0x938AE71 SWAP1 PUSH1 0x64 ADD PUSH2 0x1121 JUMP JUMPDEST PUSH1 0x40 MLOAD PUSH4 0x1F00AF7B PUSH1 0xE1 SHL DUP2 MSTORE PUSH1 0x45 PUSH1 0x4 DUP3 ADD MSTORE PUSH1 0x24 DUP2 ADD DUP4 SWAP1 MSTORE PUSH1 0x44 DUP2 ADD DUP3 SWAP1 MSTORE PUSH1 0x0 SWAP1 DUP2 SWAP1 DUP2 SWAP1 PUSH20 0x0 SWAP1 PUSH4 0x3E015EF6 SWAP1 PUSH1 0x64 ADD PUSH1 0x40 DUP1 MLOAD DUP1 DUP4 SUB DUP2 DUP7 GAS DELEGATECALL ISZERO DUP1 ISZERO PUSH2 0x32B4 JUMPI RETURNDATASIZE PUSH1 0x0 DUP1 RETURNDATACOPY RETURNDATASIZE PUSH1 0x0 REVERT JUMPDEST POP POP POP POP PUSH1 0x40 MLOAD RETURNDATASIZE PUSH1 0x1F NOT PUSH1 0x1F DUP3 ADD AND DUP3 ADD DUP1 PUSH1 0x40 MSTORE POP DUP2 ADD SWAP1 PUSH2 0x32D8 SWAP2 SWAP1 PUSH2 0x56D0 JUMP JUMPDEST SWAP2 POP SWAP2 POP DUP4 PUSH2 0x32E4 CALLER SWAP1 JUMP JUMPDEST PUSH1 0x1 PUSH1 0x1 PUSH1 0xA0 SHL SUB AND DUP7 PUSH32 0xA0EAA0025D4F12545803A03C369115C59F885DF7B5FC07A6393438827DBF51B7 DUP5 PUSH1 0x40 MLOAD PUSH2 0x2338 SWAP2 DUP2 MSTORE PUSH1 0x20 ADD SWAP1 JUMP JUMPDEST PUSH1 0x40 MLOAD PUSH4 0x1E7ABEE3 PUSH1 0xE2 SHL DUP2 MSTORE PUSH1 0x45 PUSH1 0x4 DUP3 ADD MSTORE PUSH1 0x24 DUP2 ADD DUP4 SWAP1 MSTORE PUSH1 0x44 DUP2 ADD DUP3 SWAP1 MSTORE PUSH1 0x0 SWAP1 PUSH20 0x0 SWAP1 PUSH4 0x79EAFB8C SWAP1 PUSH1 0x64 ADD PUSH2 0x1121 JUMP JUMPDEST PUSH1 0x40 MLOAD PUSH4 0x71984EB3 PUSH1 0xE1 SHL DUP2 MSTORE PUSH1 0x45 PUSH1 0x4 DUP3 ADD MSTORE PUSH1 0x1 PUSH1 0x1 PUSH1 0xA0 SHL SUB DUP3 AND PUSH1 0x24 DUP3 ADD MSTORE PUSH1 0x0 SWAP1 PUSH20 0x0 SWAP1 PUSH4 0xE3309D66 SWAP1 PUSH1 0x44 ADD PUSH2 0x105F JUMP JUMPDEST PUSH1 0x0 PUSH1 0x1 PUSH1 0x1 PUSH1 0xA0 SHL SUB PUSH32 0x0 AND ADDRESS SUB PUSH2 0x33FC JUMPI PUSH1 0x40 MLOAD PUSH3 0x461BCD PUSH1 0xE5 SHL DUP2 MSTORE PUSH1 0x4 ADD PUSH2 0x1787 SWAP1 PUSH2 0x5367 JUMP JUMPDEST PUSH32 0x0 PUSH1 0x1 PUSH1 0x1 PUSH1 0xA0 SHL SUB AND PUSH2 0x342E PUSH2 0x3C12 JUMP JUMPDEST PUSH1 0x1 PUSH1 0x1 PUSH1 0xA0 SHL SUB AND EQ PUSH2 0x3454 JUMPI PUSH1 0x40 MLOAD PUSH3 0x461BCD PUSH1 0xE5 SHL DUP2 MSTORE PUSH1 0x4 ADD PUSH2 0x1787 SWAP1 PUSH2 0x5396 JUMP JUMPDEST PUSH1 0x4 SLOAD PUSH1 0xFF AND ISZERO PUSH2 0x3477 JUMPI PUSH1 0x40 MLOAD PUSH3 0x461BCD PUSH1 0xE5 SHL DUP2 MSTORE PUSH1 0x4 ADD PUSH2 0x1787 SWAP1 PUSH2 0x53C4 JUMP JUMPDEST PUSH2 0x3487 PUSH4 0xD9DC1F19 PUSH1 0xE0 SHL PUSH2 0x3C33 JUMP JUMPDEST PUSH2 0x34D3 JUMPI PUSH1 0x40 MLOAD PUSH3 0x461BCD PUSH1 0xE5 SHL DUP2 MSTORE PUSH1 0x20 PUSH1 0x4 DUP3 ADD MSTORE PUSH1 0x17 PUSH1 0x24 DUP3 ADD MSTORE PUSH32 0x5365744C6F63616C41646D696E20466F7262696464656E000000000000000000 PUSH1 0x44 DUP3 ADD MSTORE PUSH1 0x64 ADD PUSH2 0x1787 JUMP JUMPDEST PUSH1 0x1 PUSH1 0x1 PUSH1 0xA0 SHL SUB DUP3 AND PUSH2 0x351B JUMPI PUSH1 0x40 MLOAD PUSH3 0x461BCD PUSH1 0xE5 SHL DUP2 MSTORE PUSH1 0x20 PUSH1 0x4 DUP3 ADD MSTORE PUSH1 0xF PUSH1 0x24 DUP3 ADD MSTORE PUSH15 0x1059191C995CDCC8125B9D985B1A59 PUSH1 0x8A SHL PUSH1 0x44 DUP3 ADD MSTORE PUSH1 0x64 ADD PUSH2 0x1787 JUMP JUMPDEST PUSH2 0x3524 DUP3 PUSH2 0x4247 JUMP JUMPDEST POP PUSH1 0x1 SWAP2 SWAP1 POP JUMP JUMPDEST PUSH1 0x40 MLOAD PUSH4 0xC3203FD1 PUSH1 0xE0 SHL DUP2 MSTORE PUSH1 0x45 PUSH1 0x4 DUP3 ADD MSTORE PUSH1 0x24 DUP2 ADD DUP4 SWAP1 MSTORE PUSH1 0x44 DUP2 ADD DUP3 SWAP1 MSTORE PUSH1 0x0 SWAP1 DUP2 SWAP1 DUP2 SWAP1 PUSH20 0x0 SWAP1 PUSH4 0xC3203FD1 SWAP1 PUSH1 0x64 ADD PUSH1 0x40 DUP1 MLOAD DUP1 DUP4 SUB DUP2 DUP7 GAS DELEGATECALL ISZERO DUP1 ISZERO PUSH2 0x3590 JUMPI RETURNDATASIZE PUSH1 0x0 DUP1 RETURNDATACOPY RETURNDATASIZE PUSH1 0x0 REVERT JUMPDEST POP POP POP POP PUSH1 0x40 MLOAD RETURNDATASIZE PUSH1 0x1F NOT PUSH1 0x1F DUP3 ADD AND DUP3 ADD DUP1 PUSH1 0x40 MSTORE POP DUP2 ADD SWAP1 PUSH2 0x35B4 SWAP2 SWAP1 PUSH2 0x56D0 JUMP JUMPDEST SWAP2 POP SWAP2 POP DUP4 DUP6 PUSH2 0x35C1 CALLER SWAP1 JUMP JUMPDEST PUSH1 0x1 PUSH1 0x1 PUSH1 0xA0 SHL SUB AND PUSH32 0x970F60A11B3302F55122BDB3E2DE766D28491B40FE0A2A6D04DA71E5AB577CB9 DUP5 PUSH1 0x40 MLOAD PUSH2 0x2338 SWAP2 DUP2 MSTORE PUSH1 0x20 ADD SWAP1 JUMP JUMPDEST PUSH1 0x40 MLOAD PUSH4 0xD95140EB PUSH1 0xE0 SHL DUP2 MSTORE PUSH1 0x45 PUSH1 0x4 DUP3 ADD MSTORE PUSH1 0x24 DUP2 ADD DUP3 SWAP1 MSTORE PUSH1 0x0 SWAP1 PUSH20 0x0 SWAP1 PUSH4 0xD95140EB SWAP1 PUSH1 0x44 ADD PUSH2 0x105F JUMP JUMPDEST PUSH1 0x40 MLOAD PUSH1 0x0 SWAP1 PUSH1 0x1 PUSH1 0x1 PUSH1 0xA0 SHL SUB DUP4 AND SWAP1 DUP5 SWAP1 CALLER SWAP1 PUSH32 0x1D31FE42F06D4C1F16F6CB7B5682F1D6743641A9E1412FA0258F6776C5B943EE SWAP1 DUP6 SWAP1 LOG4 PUSH1 0x40 MLOAD PUSH4 0x3D580577 PUSH1 0xE0 SHL DUP2 MSTORE PUSH1 0x45 PUSH1 0x4 DUP3 ADD MSTORE PUSH1 0x24 DUP2 ADD DUP5 SWAP1 MSTORE PUSH1 0x1 PUSH1 0x1 PUSH1 0xA0 SHL SUB DUP4 AND PUSH1 0x44 DUP3 ADD MSTORE PUSH20 0x0 SWAP1 PUSH4 0x3D580577 SWAP1 PUSH1 0x64 ADD PUSH2 0x1121 JUMP JUMPDEST PUSH1 0x40 MLOAD PUSH4 0x3E5C6E97 PUSH1 0xE1 SHL DUP2 MSTORE PUSH1 0x45 PUSH1 0x4 DUP3 ADD MSTORE PUSH1 0x24 DUP2 ADD DUP3 SWAP1 MSTORE PUSH1 0x60 SWAP1 PUSH20 0x0 SWAP1 PUSH4 0x7CB8DD2E SWAP1 PUSH1 0x44 ADD PUSH1 0x0 PUSH1 0x40 MLOAD DUP1 DUP4 SUB DUP2 DUP7 GAS DELEGATECALL ISZERO DUP1 ISZERO PUSH2 0x371F JUMPI RETURNDATASIZE PUSH1 0x0 DUP1 RETURNDATACOPY RETURNDATASIZE PUSH1 0x0 REVERT JUMPDEST POP POP POP POP PUSH1 0x40 MLOAD RETURNDATASIZE PUSH1 0x0 DUP3 RETURNDATACOPY PUSH1 0x1F RETURNDATASIZE SWAP1 DUP2 ADD PUSH1 0x1F NOT AND DUP3 ADD PUSH1 0x40 MSTORE PUSH2 0xF3D SWAP2 SWAP1 DUP2 ADD SWAP1 PUSH2 0x5BF7 JUMP JUMPDEST PUSH1 0x40 MLOAD PUSH4 0x33064C89 PUSH1 0xE1 SHL DUP2 MSTORE PUSH1 0x45 PUSH1 0x4 DUP3 ADD MSTORE PUSH1 0x24 DUP2 ADD DUP3 SWAP1 MSTORE PUSH1 0x0 SWAP1 PUSH20 0x0 SWAP1 PUSH4 0x660C9912 SWAP1 PUSH1 0x44 ADD PUSH2 0x105F JUMP JUMPDEST PUSH1 0x0 DUP1 PUSH1 0x0 PUSH20 0x0 PUSH4 0x99A0C2E PUSH1 0x45 DUP11 DUP11 DUP11 DUP11 DUP11 PUSH1 0x40 MLOAD DUP8 PUSH4 0xFFFFFFFF AND PUSH1 0xE0 SHL DUP2 MSTORE PUSH1 0x4 ADD PUSH2 0x37D0 SWAP7 SWAP6 SWAP5 SWAP4 SWAP3 SWAP2 SWAP1 PUSH2 0x5CD4 JUMP JUMPDEST PUSH1 0x40 DUP1 MLOAD DUP1 DUP4 SUB DUP2 DUP7 GAS DELEGATECALL ISZERO DUP1 ISZERO PUSH2 0x37EC JUMPI RETURNDATASIZE PUSH1 0x0 DUP1 RETURNDATACOPY RETURNDATASIZE PUSH1 0x0 REVERT JUMPDEST POP POP POP POP PUSH1 0x40 MLOAD RETURNDATASIZE PUSH1 0x1F NOT PUSH1 0x1F DUP3 ADD AND DUP3 ADD DUP1 PUSH1 0x40 MSTORE POP DUP2 ADD SWAP1 PUSH2 0x3810 SWAP2 SWAP1 PUSH2 0x5D9D JUMP JUMPDEST SWAP2 POP SWAP2 POP DUP1 PUSH1 0x1 PUSH1 0x1 PUSH1 0xA0 SHL SUB AND DUP3 PUSH1 0x1 PUSH1 0x1 PUSH1 0xA0 SHL SUB AND DUP10 PUSH32 0x2ACEC3419C1D10DAB06D0715F556E96B344F2092A52A23FB192B4B89F5B7CF42 DUP10 PUSH1 0x40 ADD CALLDATALOAD PUSH1 0x40 MLOAD PUSH2 0x26FA SWAP2 DUP2 MSTORE PUSH1 0x20 ADD SWAP1 JUMP JUMPDEST PUSH1 0x40 MLOAD PUSH4 0x3D2003D3 PUSH1 0xE2 SHL DUP2 MSTORE PUSH1 0x45 PUSH1 0x4 DUP3 ADD MSTORE PUSH1 0x24 DUP2 ADD DUP4 SWAP1 MSTORE DUP2 ISZERO ISZERO PUSH1 0x44 DUP3 ADD MSTORE PUSH1 0x0 SWAP1 DUP2 SWAP1 DUP2 SWAP1 PUSH20 0x0 SWAP1 PUSH4 0xF4800F4C SWAP1 PUSH1 0x64 ADD PUSH1 0x40 DUP1 MLOAD DUP1 DUP4 SUB DUP2 DUP7 GAS DELEGATECALL ISZERO DUP1 ISZERO PUSH2 0x38C3 JUMPI RETURNDATASIZE PUSH1 0x0 DUP1 RETURNDATACOPY RETURNDATASIZE PUSH1 0x0 REVERT JUMPDEST POP POP POP POP PUSH1 0x40 MLOAD RETURNDATASIZE PUSH1 0x1F NOT PUSH1 0x1F DUP3 ADD AND DUP3 ADD DUP1 PUSH1 0x40 MSTORE POP DUP2 ADD SWAP1 PUSH2 0x38E7 SWAP2 SWAP1 PUSH2 0x56D0 JUMP JUMPDEST SWAP2 POP SWAP2 POP DUP1 DUP6 PUSH2 0x38F4 CALLER SWAP1 JUMP JUMPDEST PUSH1 0x1 PUSH1 0x1 PUSH1 0xA0 SHL SUB AND PUSH32 0xAAF3A0E62C1102E283A5A18E81D678B9CE6F4F043CC7AFAFEE4F7F82B85330A2 DUP8 PUSH1 0x40 MLOAD PUSH2 0x2338 SWAP2 ISZERO ISZERO DUP2 MSTORE PUSH1 0x20 ADD SWAP1 JUMP JUMPDEST PUSH1 0x40 MLOAD PUSH4 0x9F73981 PUSH1 0xE1 SHL DUP2 MSTORE PUSH1 0x45 PUSH1 0x4 DUP3 ADD MSTORE PUSH1 0x24 DUP2 ADD DUP3 SWAP1 MSTORE PUSH1 0x60 SWAP1 PUSH20 0x0 SWAP1 PUSH4 0x13EE7302 SWAP1 PUSH1 0x44 ADD PUSH2 0x12E7 JUMP JUMPDEST PUSH1 0x0 DUP1 PUSH1 0x0 PUSH20 0x0 PUSH4 0x15922EFE PUSH1 0x45 DUP10 DUP10 DUP10 DUP10 PUSH1 0x40 MLOAD DUP7 PUSH4 0xFFFFFFFF AND PUSH1 0xE0 SHL DUP2 MSTORE PUSH1 0x4 ADD PUSH2 0x39B7 SWAP6 SWAP5 SWAP4 SWAP3 SWAP2 SWAP1 PUSH2 0x5DCC JUMP JUMPDEST PUSH1 0x40 DUP1 MLOAD DUP1 DUP4 SUB DUP2 DUP7 GAS DELEGATECALL ISZERO DUP1 ISZERO PUSH2 0x39D3 JUMPI RETURNDATASIZE PUSH1 0x0 DUP1 RETURNDATACOPY RETURNDATASIZE PUSH1 0x0 REVERT JUMPDEST POP POP POP POP PUSH1 0x40 MLOAD RETURNDATASIZE PUSH1 0x1F NOT PUSH1 0x1F DUP3 ADD AND DUP3 ADD DUP1 PUSH1 0x40 MSTORE POP DUP2 ADD SWAP1 PUSH2 0x39F7 SWAP2 SWAP1 PUSH2 0x5E08 JUMP JUMPDEST SWAP1 SWAP3 POP SWAP1 POP PUSH1 0x1 PUSH1 0x1 PUSH1 0xA0 SHL SUB DUP2 AND PUSH2 0x3A16 PUSH1 0x80 DUP9 ADD PUSH1 0x60 DUP10 ADD PUSH2 0x477A JUMP JUMPDEST PUSH1 0x1 PUSH1 0x1 PUSH1 0xA0 SHL SUB AND DUP4 PUSH32 0x2A2B33FD7E66815F7A7BEA7D796D5C587E39EFD4B142C4A9AB63B8BECC98FEB4 CALLER PUSH1 0x40 DUP1 MLOAD PUSH1 0x1 PUSH1 0x1 PUSH1 0xA0 SHL SUB SWAP1 SWAP3 AND DUP3 MSTORE DUP1 DUP13 ADD CALLDATALOAD PUSH1 0x20 DUP4 ADD MSTORE ADD PUSH1 0x40 MLOAD DUP1 SWAP2 SUB SWAP1 LOG4 POP SWAP6 SWAP5 POP POP POP POP POP JUMP JUMPDEST PUSH1 0x0 CALLER PUSH1 0x1 PUSH1 0x1 PUSH1 0xA0 SHL SUB AND DUP4 PUSH32 0x552CE1FC1BC82A48CDC0636FF7162480D868C590F2E57C63C30A944F3A82EC36 DUP5 PUSH1 0x40 MLOAD PUSH2 0x3AAF SWAP2 ISZERO ISZERO DUP2 MSTORE PUSH1 0x20 ADD SWAP1 JUMP JUMPDEST PUSH1 0x40 MLOAD DUP1 SWAP2 SUB SWAP1 LOG3 PUSH1 0x40 MLOAD PUSH4 0x15B18C75 PUSH1 0xE1 SHL DUP2 MSTORE PUSH1 0x45 PUSH1 0x4 DUP3 ADD MSTORE PUSH1 0x24 DUP2 ADD DUP5 SWAP1 MSTORE DUP3 ISZERO ISZERO PUSH1 0x44 DUP3 ADD MSTORE PUSH20 0x0 SWAP1 PUSH4 0x2B6318EA SWAP1 PUSH1 0x64 ADD PUSH2 0x1121 JUMP JUMPDEST PUSH1 0x40 MLOAD PUSH4 0x4BA84563 PUSH1 0xE0 SHL DUP2 MSTORE PUSH1 0x45 PUSH1 0x4 DUP3 ADD MSTORE PUSH1 0x24 DUP2 ADD DUP4 SWAP1 MSTORE PUSH1 0x44 DUP2 ADD DUP3 SWAP1 MSTORE PUSH1 0x0 SWAP1 PUSH20 0x0 SWAP1 PUSH4 0x4BA84563 SWAP1 PUSH1 0x64 ADD PUSH2 0x1121 JUMP JUMPDEST PUSH1 0x0 PUSH2 0x133B PUSH1 0x1 SLOAD PUSH1 0x2 SLOAD PUSH1 0x40 DUP1 MLOAD PUSH32 0x8B73C3C69BB8FE3D512ECC4CF759CC79239F7B179B0FFACAA9A75D522B39400F PUSH1 0x20 DUP3 ADD MSTORE SWAP1 DUP2 ADD SWAP3 SWAP1 SWAP3 MSTORE PUSH1 0x60 DUP3 ADD MSTORE CHAINID PUSH1 0x80 DUP3 ADD MSTORE ADDRESS PUSH1 0xA0 DUP3 ADD MSTORE PUSH1 0x0 SWAP1 PUSH1 0xC0 ADD PUSH1 0x40 MLOAD PUSH1 0x20 DUP2 DUP4 SUB SUB DUP2 MSTORE SWAP1 PUSH1 0x40 MSTORE DUP1 MLOAD SWAP1 PUSH1 0x20 ADD KECCAK256 SWAP1 POP SWAP1 JUMP JUMPDEST PUSH1 0x0 PUSH2 0x133B PUSH2 0x3EB2 JUMP JUMPDEST SWAP1 JUMP JUMPDEST PUSH1 0x0 PUSH1 0x1 PUSH1 0x1 PUSH1 0xE0 SHL SUB NOT DUP3 AND PUSH4 0x14751DBF PUSH1 0xE0 SHL EQ DUP1 PUSH2 0x3BF3 JUMPI POP PUSH1 0x1 PUSH1 0x1 PUSH1 0xE0 SHL SUB NOT DUP3 AND PUSH4 0x52D1902D PUSH1 0xE0 SHL EQ JUMPDEST DUP1 PUSH2 0xF3D JUMPI POP PUSH4 0x1FFC9A7 PUSH1 0xE0 SHL PUSH1 0x1 PUSH1 0x1 PUSH1 0xE0 SHL SUB NOT DUP4 AND EQ PUSH2 0xF3D JUMP JUMPDEST PUSH1 0x0 PUSH1 0x0 DUP1 MLOAD PUSH1 0x20 PUSH2 0x5EA1 DUP4 CODECOPY DUP2 MLOAD SWAP2 MSTORE JUMPDEST SLOAD PUSH1 0x1 PUSH1 0x1 PUSH1 0xA0 SHL SUB AND SWAP2 SWAP1 POP JUMP JUMPDEST PUSH1 0x0 DUP1 SLOAD PUSH1 0x1 PUSH1 0x1 PUSH1 0xA0 SHL SUB AND ADDRESS SUB PUSH2 0x3D1F JUMPI PUSH1 0x0 PUSH4 0x63D59CF3 PUSH1 0xE1 SHL PUSH2 0x3C59 ADDRESS PUSH2 0x4208 JUMP JUMPDEST CALLER DUP6 PUSH1 0x40 MLOAD PUSH1 0x24 ADD PUSH2 0x3C6D SWAP4 SWAP3 SWAP2 SWAP1 PUSH2 0x5E2D JUMP JUMPDEST PUSH1 0x40 DUP1 MLOAD PUSH1 0x1F NOT DUP2 DUP5 SUB ADD DUP2 MSTORE SWAP2 SWAP1 MSTORE PUSH1 0x20 DUP2 ADD DUP1 MLOAD PUSH1 0x1 PUSH1 0x1 PUSH1 0xE0 SHL SUB AND PUSH1 0x1 PUSH1 0x1 PUSH1 0xE0 SHL SUB NOT SWAP1 SWAP4 AND SWAP3 SWAP1 SWAP3 OR SWAP1 SWAP2 MSTORE SWAP1 POP PUSH1 0x0 PUSH2 0x3CEA PUSH2 0x3CAE PUSH2 0x3C12 JUMP JUMPDEST DUP4 PUSH1 0x40 MLOAD DUP1 PUSH1 0x40 ADD PUSH1 0x40 MSTORE DUP1 PUSH1 0x1D DUP2 MSTORE PUSH1 0x20 ADD PUSH32 0x44656C656761746563616C6C20686173416363657373204661696C6564000000 DUP2 MSTORE POP PUSH2 0x42BE JUMP JUMPDEST SWAP1 POP DUP1 PUSH1 0x1 DUP3 MLOAD PUSH2 0x3CFB SWAP2 SWAP1 PUSH2 0x5E56 JUMP JUMPDEST DUP2 MLOAD DUP2 LT PUSH2 0x3D0B JUMPI PUSH2 0x3D0B PUSH2 0x52D5 JUMP JUMPDEST PUSH1 0x20 SWAP2 ADD ADD MLOAD PUSH1 0xF8 SHR PUSH1 0x1 EQ SWAP5 SWAP4 POP POP POP POP JUMP JUMPDEST PUSH1 0x0 SLOAD PUSH1 0x1 PUSH1 0x1 PUSH1 0xA0 SHL SUB AND PUSH4 0xC7AB39E6 PUSH2 0x3D39 ADDRESS PUSH2 0x4208 JUMP JUMPDEST CALLER DUP6 PUSH1 0x40 MLOAD DUP5 PUSH4 0xFFFFFFFF AND PUSH1 0xE0 SHL DUP2 MSTORE PUSH1 0x4 ADD PUSH2 0x3D59 SWAP4 SWAP3 SWAP2 SWAP1 PUSH2 0x5E2D JUMP JUMPDEST PUSH1 0x20 PUSH1 0x40 MLOAD DUP1 DUP4 SUB DUP2 DUP7 GAS STATICCALL ISZERO DUP1 ISZERO PUSH2 0x107C JUMPI RETURNDATASIZE PUSH1 0x0 DUP1 RETURNDATACOPY RETURNDATASIZE PUSH1 0x0 REVERT JUMPDEST PUSH1 0x0 DUP1 SLOAD PUSH1 0x1 PUSH1 0x1 PUSH1 0xA0 SHL SUB AND ADDRESS SUB PUSH2 0x3E3C JUMPI PUSH1 0x0 PUSH4 0xE25D75F0 PUSH1 0xE0 SHL PUSH1 0x3 SLOAD PUSH1 0x40 MLOAD PUSH1 0x24 ADD PUSH2 0x3DA8 SWAP2 DUP2 MSTORE PUSH1 0x20 ADD SWAP1 JUMP JUMPDEST PUSH1 0x40 DUP1 MLOAD PUSH1 0x1F NOT DUP2 DUP5 SUB ADD DUP2 MSTORE SWAP2 SWAP1 MSTORE PUSH1 0x20 DUP2 ADD DUP1 MLOAD PUSH1 0x1 PUSH1 0x1 PUSH1 0xE0 SHL SUB AND PUSH1 0x1 PUSH1 0x1 PUSH1 0xE0 SHL SUB NOT SWAP1 SWAP4 AND SWAP3 SWAP1 SWAP3 OR SWAP1 SWAP2 MSTORE SWAP1 POP PUSH1 0x0 PUSH2 0x3E08 PUSH2 0x3DE9 PUSH2 0x3C12 JUMP JUMPDEST DUP4 PUSH1 0x40 MLOAD DUP1 PUSH1 0x60 ADD PUSH1 0x40 MSTORE DUP1 PUSH1 0x25 DUP2 MSTORE PUSH1 0x20 ADD PUSH2 0x5E7C PUSH1 0x25 SWAP2 CODECOPY PUSH2 0x42BE JUMP JUMPDEST SWAP1 POP DUP1 PUSH1 0x1 DUP3 MLOAD PUSH2 0x3E19 SWAP2 SWAP1 PUSH2 0x5E56 JUMP JUMPDEST DUP2 MLOAD DUP2 LT PUSH2 0x3E29 JUMPI PUSH2 0x3E29 PUSH2 0x52D5 JUMP JUMPDEST PUSH1 0x20 SWAP2 ADD ADD MLOAD PUSH1 0xF8 SHR PUSH1 0x1 EQ SWAP4 SWAP3 POP POP POP JUMP JUMPDEST PUSH1 0x0 SLOAD PUSH1 0x3 SLOAD PUSH1 0x40 MLOAD PUSH4 0xE25D75F PUSH1 0xE4 SHL DUP2 MSTORE PUSH1 0x1 PUSH1 0x1 PUSH1 0xA0 SHL SUB SWAP1 SWAP3 AND SWAP2 PUSH4 0xE25D75F0 SWAP2 PUSH2 0x3E71 SWAP2 PUSH1 0x4 ADD SWAP1 DUP2 MSTORE PUSH1 0x20 ADD SWAP1 JUMP JUMPDEST PUSH1 0x20 PUSH1 0x40 MLOAD DUP1 DUP4 SUB DUP2 DUP7 GAS STATICCALL ISZERO DUP1 ISZERO PUSH2 0x3E8E JUMPI RETURNDATASIZE PUSH1 0x0 DUP1 RETURNDATACOPY RETURNDATASIZE PUSH1 0x0 REVERT JUMPDEST POP POP POP POP PUSH1 0x40 MLOAD RETURNDATASIZE PUSH1 0x1F NOT PUSH1 0x1F DUP3 ADD AND DUP3 ADD DUP1 PUSH1 0x40 MSTORE POP DUP2 ADD SWAP1 PUSH2 0x133B SWAP2 SWAP1 PUSH2 0x50A4 JUMP JUMPDEST PUSH1 0x0 PUSH32 0xB53127684A568B3173AE13B9F8A6016E243E63B6E8EE1178D6A717850B5D6103 PUSH2 0x3C24 JUMP JUMPDEST PUSH2 0x3EE8 DUP7 DUP7 DUP7 DUP7 DUP7 DUP7 PUSH2 0x4387 JUMP JUMPDEST POP POP POP POP POP POP JUMP JUMPDEST PUSH2 0x3EF8 PUSH2 0x3C12 JUMP JUMPDEST PUSH1 0x1 PUSH1 0x1 PUSH1 0xA0 SHL SUB AND DUP2 PUSH1 0x1 PUSH1 0x1 PUSH1 0xA0 SHL SUB AND SUB PUSH2 0x3F58 JUMPI PUSH1 0x40 MLOAD PUSH3 0x461BCD PUSH1 0xE5 SHL DUP2 MSTORE PUSH1 0x20 PUSH1 0x4 DUP3 ADD MSTORE PUSH1 0x1A PUSH1 0x24 DUP3 ADD MSTORE PUSH32 0x496C6C6567616C204E657720496D706C656D656E746174696F6E000000000000 PUSH1 0x44 DUP3 ADD MSTORE PUSH1 0x64 ADD PUSH2 0x1787 JUMP JUMPDEST PUSH2 0x3F68 PUSH4 0x7147855D PUSH1 0xE0 SHL PUSH2 0x3C33 JUMP JUMPDEST PUSH2 0x3FB4 JUMPI PUSH1 0x40 MLOAD PUSH3 0x461BCD PUSH1 0xE5 SHL DUP2 MSTORE PUSH1 0x20 PUSH1 0x4 DUP3 ADD MSTORE PUSH1 0x19 PUSH1 0x24 DUP3 ADD MSTORE PUSH32 0x5570677261646520436F6E7465787420466F7262696464656E00000000000000 PUSH1 0x44 DUP3 ADD MSTORE PUSH1 0x64 ADD PUSH2 0x1787 JUMP JUMPDEST POP JUMP JUMPDEST PUSH1 0x60 PUSH32 0x4910FDFA16FED3260ED0E7147F7CC6DA11A60208B5B9406D12A635614FFD9143 SLOAD PUSH1 0xFF AND ISZERO PUSH2 0x4001 JUMPI PUSH2 0x3FEC DUP5 PUSH2 0x4592 JUMP JUMPDEST POP PUSH1 0x40 DUP1 MLOAD PUSH1 0x0 DUP2 MSTORE PUSH1 0x20 DUP2 ADD SWAP1 SWAP2 MSTORE PUSH2 0x1012 JUMP JUMPDEST DUP4 PUSH1 0x1 PUSH1 0x1 PUSH1 0xA0 SHL SUB AND PUSH4 0x52D1902D PUSH1 0x40 MLOAD DUP2 PUSH4 0xFFFFFFFF AND PUSH1 0xE0 SHL DUP2 MSTORE PUSH1 0x4 ADD PUSH1 0x20 PUSH1 0x40 MLOAD DUP1 DUP4 SUB DUP2 DUP7 GAS STATICCALL SWAP3 POP POP POP DUP1 ISZERO PUSH2 0x405B JUMPI POP PUSH1 0x40 DUP1 MLOAD PUSH1 0x1F RETURNDATASIZE SWAP1 DUP2 ADD PUSH1 0x1F NOT AND DUP3 ADD SWAP1 SWAP3 MSTORE PUSH2 0x4058 SWAP2 DUP2 ADD SWAP1 PUSH2 0x5071 JUMP JUMPDEST PUSH1 0x1 JUMPDEST PUSH2 0x409F JUMPI PUSH1 0x40 MLOAD PUSH3 0x461BCD PUSH1 0xE5 SHL DUP2 MSTORE PUSH1 0x20 PUSH1 0x4 DUP3 ADD MSTORE PUSH1 0x15 PUSH1 0x24 DUP3 ADD MSTORE PUSH21 0x125B1B1959D85B0815555414C810DBDB9D1C9858DD PUSH1 0x5A SHL PUSH1 0x44 DUP3 ADD MSTORE PUSH1 0x64 ADD PUSH2 0x1787 JUMP JUMPDEST PUSH1 0x0 DUP1 MLOAD PUSH1 0x20 PUSH2 0x5EA1 DUP4 CODECOPY DUP2 MLOAD SWAP2 MSTORE DUP2 EQ PUSH2 0x40F4 JUMPI PUSH1 0x40 MLOAD PUSH3 0x461BCD PUSH1 0xE5 SHL DUP2 MSTORE PUSH1 0x20 PUSH1 0x4 DUP3 ADD MSTORE PUSH1 0x15 PUSH1 0x24 DUP3 ADD MSTORE PUSH21 0x125B9D985B1A590815555414C810DBDB9D1C9858DD PUSH1 0x5A SHL PUSH1 0x44 DUP3 ADD MSTORE PUSH1 0x64 ADD PUSH2 0x1787 JUMP JUMPDEST POP PUSH1 0x40 MLOAD PUSH4 0x1FFC9A7 PUSH1 0xE0 SHL DUP2 MSTORE PUSH4 0x14751DBF PUSH1 0xE0 SHL PUSH1 0x4 DUP3 ADD MSTORE PUSH1 0x1 PUSH1 0x1 PUSH1 0xA0 SHL SUB DUP6 AND SWAP1 PUSH4 0x1FFC9A7 SWAP1 PUSH1 0x24 ADD PUSH1 0x20 PUSH1 0x40 MLOAD DUP1 DUP4 SUB DUP2 DUP7 GAS STATICCALL SWAP3 POP POP POP DUP1 ISZERO PUSH2 0x415C JUMPI POP PUSH1 0x40 DUP1 MLOAD PUSH1 0x1F RETURNDATASIZE SWAP1 DUP2 ADD PUSH1 0x1F NOT AND DUP3 ADD SWAP1 SWAP3 MSTORE PUSH2 0x4159 SWAP2 DUP2 ADD SWAP1 PUSH2 0x50A4 JUMP JUMPDEST PUSH1 0x1 JUMPDEST PUSH2 0x41A8 JUMPI PUSH1 0x40 MLOAD PUSH3 0x461BCD PUSH1 0xE5 SHL DUP2 MSTORE PUSH1 0x20 PUSH1 0x4 DUP3 ADD MSTORE PUSH1 0x17 PUSH1 0x24 DUP3 ADD MSTORE PUSH32 0x496C6C6567616C204950726F787920436F6E7472616374000000000000000000 PUSH1 0x44 DUP3 ADD MSTORE PUSH1 0x64 ADD PUSH2 0x1787 JUMP JUMPDEST DUP1 PUSH2 0x41F5 JUMPI PUSH1 0x40 MLOAD PUSH3 0x461BCD PUSH1 0xE5 SHL DUP2 MSTORE PUSH1 0x20 PUSH1 0x4 DUP3 ADD MSTORE PUSH1 0x17 PUSH1 0x24 DUP3 ADD MSTORE PUSH32 0x496E76616C6964204950726F787920436F6E7472616374000000000000000000 PUSH1 0x44 DUP3 ADD MSTORE PUSH1 0x64 ADD PUSH2 0x1787 JUMP JUMPDEST POP PUSH2 0x4201 DUP5 DUP5 DUP5 PUSH2 0x4613 JUMP JUMPDEST SWAP1 POP PUSH2 0x1012 JUMP JUMPDEST PUSH1 0x40 MLOAD PUSH12 0xFFFFFFFFFFFFFFFFFFFFFFFF NOT PUSH1 0x60 DUP4 SWAP1 SHL AND PUSH1 0x20 DUP3 ADD MSTORE PUSH1 0x0 SWAP1 PUSH1 0x34 ADD PUSH1 0x40 MLOAD PUSH1 0x20 DUP2 DUP4 SUB SUB DUP2 MSTORE SWAP1 PUSH1 0x40 MSTORE DUP1 MLOAD SWAP1 PUSH1 0x20 ADD KECCAK256 SWAP1 POP SWAP2 SWAP1 POP JUMP JUMPDEST PUSH32 0xB53127684A568B3173AE13B9F8A6016E243E63B6E8EE1178D6A717850B5D6103 DUP1 SLOAD PUSH1 0x1 PUSH1 0x1 PUSH1 0xA0 SHL SUB DUP4 AND PUSH1 0x1 PUSH1 0x1 PUSH1 0xA0 SHL SUB NOT SWAP1 SWAP2 AND DUP2 OR SWAP1 SWAP2 SSTORE PUSH1 0x40 DUP1 MLOAD SWAP2 DUP3 MSTORE MLOAD ADDRESS SWAP2 CALLER SWAP2 PUSH32 0x54AB0D18DE7958786BA1AD85966D59BAA2B395455F0530DCDCFD732E6AF539E2 SWAP2 DUP2 SWAP1 SUB PUSH1 0x20 ADD SWAP1 LOG3 POP JUMP JUMPDEST PUSH1 0x60 PUSH1 0x1 PUSH1 0x1 PUSH1 0xA0 SHL SUB DUP5 AND EXTCODESIZE PUSH2 0x4312 JUMPI PUSH1 0x40 MLOAD PUSH3 0x461BCD PUSH1 0xE5 SHL DUP2 MSTORE PUSH1 0x20 PUSH1 0x4 DUP3 ADD MSTORE PUSH1 0x18 PUSH1 0x24 DUP3 ADD MSTORE PUSH24 0x496C6C6567616C20436F6E74726163742041646472657373 PUSH1 0x40 SHL PUSH1 0x44 DUP3 ADD MSTORE PUSH1 0x64 ADD PUSH2 0x1787 JUMP JUMPDEST PUSH1 0x0 DUP1 DUP6 PUSH1 0x1 PUSH1 0x1 PUSH1 0xA0 SHL SUB AND DUP6 PUSH1 0x40 MLOAD PUSH2 0x432D SWAP2 SWAP1 PUSH2 0x5E69 JUMP JUMPDEST PUSH1 0x0 PUSH1 0x40 MLOAD DUP1 DUP4 SUB DUP2 DUP6 GAS DELEGATECALL SWAP2 POP POP RETURNDATASIZE DUP1 PUSH1 0x0 DUP2 EQ PUSH2 0x4368 JUMPI PUSH1 0x40 MLOAD SWAP2 POP PUSH1 0x1F NOT PUSH1 0x3F RETURNDATASIZE ADD AND DUP3 ADD PUSH1 0x40 MSTORE RETURNDATASIZE DUP3 MSTORE RETURNDATASIZE PUSH1 0x0 PUSH1 0x20 DUP5 ADD RETURNDATACOPY PUSH2 0x436D JUMP JUMPDEST PUSH1 0x60 SWAP2 POP JUMPDEST POP SWAP2 POP SWAP2 POP PUSH2 0x437D DUP3 DUP3 DUP7 PUSH2 0x467D JUMP JUMPDEST SWAP7 SWAP6 POP POP POP POP POP POP JUMP JUMPDEST PUSH1 0x4A SLOAD PUSH3 0x10000 SWAP1 DIV PUSH1 0xFF AND PUSH2 0x43DF JUMPI PUSH1 0x40 MLOAD PUSH3 0x461BCD PUSH1 0xE5 SHL DUP2 MSTORE PUSH1 0x20 PUSH1 0x4 DUP3 ADD MSTORE PUSH1 0x19 PUSH1 0x24 DUP3 ADD MSTORE PUSH32 0x436F6E7472616374204E6F7420496E697469616C697A696E6700000000000000 PUSH1 0x44 DUP3 ADD MSTORE PUSH1 0x64 ADD PUSH2 0x1787 JUMP JUMPDEST DUP6 DUP6 PUSH1 0x40 MLOAD PUSH1 0x20 ADD PUSH2 0x43F2 SWAP3 SWAP2 SWAP1 PUSH2 0x545A JUMP JUMPDEST PUSH1 0x40 DUP1 MLOAD PUSH1 0x1F NOT DUP2 DUP5 SUB ADD DUP2 MSTORE SWAP1 DUP3 SWAP1 MSTORE DUP1 MLOAD PUSH1 0x20 SWAP2 DUP3 ADD KECCAK256 PUSH1 0x1 SSTORE PUSH2 0x441C SWAP2 DUP7 SWAP2 DUP7 SWAP2 ADD PUSH2 0x545A JUMP JUMPDEST PUSH1 0x40 DUP1 MLOAD PUSH1 0x1F NOT DUP2 DUP5 SUB ADD DUP2 MSTORE SWAP2 SWAP1 MSTORE DUP1 MLOAD PUSH1 0x20 SWAP1 SWAP2 ADD KECCAK256 PUSH1 0x2 SSTORE PUSH1 0x3 DUP3 SWAP1 SSTORE PUSH1 0x1 PUSH1 0x1 PUSH1 0xA0 SHL SUB DUP2 AND PUSH2 0x4461 JUMPI PUSH1 0x0 DUP1 SLOAD PUSH1 0x1 PUSH1 0x1 PUSH1 0xA0 SHL SUB NOT AND ADDRESS OR SWAP1 SSTORE PUSH2 0x457E JUMP JUMPDEST PUSH1 0x40 MLOAD PUSH4 0x1FFC9A7 PUSH1 0xE0 SHL DUP2 MSTORE PUSH4 0x14B83435 PUSH1 0xE3 SHL PUSH1 0x4 DUP3 ADD MSTORE PUSH1 0x1 PUSH1 0x1 PUSH1 0xA0 SHL SUB DUP3 AND SWAP1 PUSH4 0x1FFC9A7 SWAP1 PUSH1 0x24 ADD PUSH1 0x20 PUSH1 0x40 MLOAD DUP1 DUP4 SUB DUP2 DUP7 GAS STATICCALL SWAP3 POP POP POP DUP1 ISZERO PUSH2 0x44C8 JUMPI POP PUSH1 0x40 DUP1 MLOAD PUSH1 0x1F RETURNDATASIZE SWAP1 DUP2 ADD PUSH1 0x1F NOT AND DUP3 ADD SWAP1 SWAP3 MSTORE PUSH2 0x44C5 SWAP2 DUP2 ADD SWAP1 PUSH2 0x50A4 JUMP JUMPDEST PUSH1 0x1 JUMPDEST PUSH2 0x4514 JUMPI PUSH1 0x40 MLOAD PUSH3 0x461BCD PUSH1 0xE5 SHL DUP2 MSTORE PUSH1 0x20 PUSH1 0x4 DUP3 ADD MSTORE PUSH1 0x1C PUSH1 0x24 DUP3 ADD MSTORE PUSH32 0x496C6C6567616C20416363657373436F6E74726F6C4D616E6167657200000000 PUSH1 0x44 DUP3 ADD MSTORE PUSH1 0x64 ADD PUSH2 0x1787 JUMP JUMPDEST DUP1 PUSH2 0x4561 JUMPI PUSH1 0x40 MLOAD PUSH3 0x461BCD PUSH1 0xE5 SHL DUP2 MSTORE PUSH1 0x20 PUSH1 0x4 DUP3 ADD MSTORE PUSH1 0x1C PUSH1 0x24 DUP3 ADD MSTORE PUSH32 0x496E76616C696420416363657373436F6E74726F6C4D616E6167657200000000 PUSH1 0x44 DUP3 ADD MSTORE PUSH1 0x64 ADD PUSH2 0x1787 JUMP JUMPDEST POP PUSH1 0x0 DUP1 SLOAD PUSH1 0x1 PUSH1 0x1 PUSH1 0xA0 SHL SUB NOT AND PUSH1 0x1 PUSH1 0x1 PUSH1 0xA0 SHL SUB DUP4 AND OR SWAP1 SSTORE JUMPDEST PUSH1 0x4 DUP1 SLOAD PUSH2 0xFFFF NOT AND SWAP1 SSTORE PUSH2 0x3EE8 CALLER PUSH2 0x4247 JUMP JUMPDEST PUSH1 0x1 PUSH1 0x1 PUSH1 0xA0 SHL SUB DUP2 AND EXTCODESIZE PUSH2 0x45E4 JUMPI PUSH1 0x40 MLOAD PUSH3 0x461BCD PUSH1 0xE5 SHL DUP2 MSTORE PUSH1 0x20 PUSH1 0x4 DUP3 ADD MSTORE PUSH1 0x18 PUSH1 0x24 DUP3 ADD MSTORE PUSH24 0x496C6C6567616C20436F6E74726163742041646472657373 PUSH1 0x40 SHL PUSH1 0x44 DUP3 ADD MSTORE PUSH1 0x64 ADD PUSH2 0x1787 JUMP JUMPDEST PUSH1 0x0 DUP1 MLOAD PUSH1 0x20 PUSH2 0x5EA1 DUP4 CODECOPY DUP2 MLOAD SWAP2 MSTORE DUP1 SLOAD PUSH1 0x1 PUSH1 0x1 PUSH1 0xA0 SHL SUB NOT AND PUSH1 0x1 PUSH1 0x1 PUSH1 0xA0 SHL SUB SWAP3 SWAP1 SWAP3 AND SWAP2 SWAP1 SWAP2 OR SWAP1 SSTORE JUMP JUMPDEST PUSH1 0x60 PUSH2 0x461E DUP5 PUSH2 0x46B6 JUMP JUMPDEST PUSH1 0x0 DUP4 MLOAD GT DUP1 PUSH2 0x462B JUMPI POP DUP2 JUMPDEST ISZERO PUSH2 0x4666 JUMPI PUSH2 0x4201 DUP5 DUP5 PUSH1 0x40 MLOAD DUP1 PUSH1 0x40 ADD PUSH1 0x40 MSTORE DUP1 PUSH1 0x13 DUP2 MSTORE PUSH1 0x20 ADD PUSH19 0x11195B1959D85D1958D85B1B0811985A5B1959 PUSH1 0x6A SHL DUP2 MSTORE POP PUSH2 0x42BE JUMP JUMPDEST POP POP PUSH1 0x40 DUP1 MLOAD PUSH1 0x0 DUP2 MSTORE PUSH1 0x20 DUP2 ADD SWAP1 SWAP2 MSTORE SWAP3 SWAP2 POP POP JUMP JUMPDEST PUSH1 0x60 DUP4 ISZERO PUSH2 0x468C JUMPI POP DUP2 PUSH2 0x1012 JUMP JUMPDEST DUP3 MLOAD ISZERO PUSH2 0x469C JUMPI DUP3 MLOAD DUP1 DUP5 PUSH1 0x20 ADD REVERT JUMPDEST DUP2 PUSH1 0x40 MLOAD PUSH3 0x461BCD PUSH1 0xE5 SHL DUP2 MSTORE PUSH1 0x4 ADD PUSH2 0x1787 SWAP2 SWAP1 PUSH2 0x4CB8 JUMP JUMPDEST PUSH2 0x46BF DUP2 PUSH2 0x4592 JUMP JUMPDEST PUSH1 0x40 MLOAD PUSH1 0x1 PUSH1 0x1 PUSH1 0xA0 SHL SUB DUP3 AND SWAP1 ADDRESS SWAP1 CALLER SWAP1 PUSH32 0x354BD4B6EB65D64E6C79C53FA4F983A5E6BEC4824CE4627C71BE0B2722F4917E SWAP1 PUSH1 0x0 SWAP1 LOG4 POP JUMP JUMPDEST PUSH1 0x1 PUSH1 0x1 PUSH1 0xE0 SHL SUB NOT DUP2 AND DUP2 EQ PUSH2 0x3FB4 JUMPI PUSH1 0x0 DUP1 REVERT JUMPDEST PUSH1 0x0 PUSH1 0x20 DUP3 DUP5 SUB SLT ISZERO PUSH2 0x4722 JUMPI PUSH1 0x0 DUP1 REVERT JUMPDEST DUP2 CALLDATALOAD PUSH2 0x1012 DUP2 PUSH2 0x46FA JUMP JUMPDEST PUSH1 0x0 DUP1 PUSH1 0x0 PUSH1 0x60 DUP5 DUP7 SUB SLT ISZERO PUSH2 0x4742 JUMPI PUSH1 0x0 DUP1 REVERT JUMPDEST DUP4 CALLDATALOAD SWAP3 POP PUSH1 0x20 DUP5 ADD CALLDATALOAD PUSH2 0x4754 DUP2 PUSH2 0x46FA JUMP JUMPDEST SWAP3 SWAP6 SWAP3 SWAP5 POP POP POP PUSH1 0x40 SWAP2 SWAP1 SWAP2 ADD CALLDATALOAD SWAP1 JUMP JUMPDEST PUSH1 0x1 PUSH1 0x1 PUSH1 0xA0 SHL SUB DUP2 AND DUP2 EQ PUSH2 0x3FB4 JUMPI PUSH1 0x0 DUP1 REVERT JUMPDEST PUSH1 0x0 PUSH1 0x20 DUP3 DUP5 SUB SLT ISZERO PUSH2 0x478C JUMPI PUSH1 0x0 DUP1 REVERT JUMPDEST DUP2 CALLDATALOAD PUSH2 0x1012 DUP2 PUSH2 0x4765 JUMP JUMPDEST PUSH1 0x0 PUSH1 0x20 DUP3 DUP5 SUB SLT ISZERO PUSH2 0x47A9 JUMPI PUSH1 0x0 DUP1 REVERT JUMPDEST POP CALLDATALOAD SWAP2 SWAP1 POP JUMP JUMPDEST PUSH1 0x0 DUP1 PUSH1 0x40 DUP4 DUP6 SUB SLT ISZERO PUSH2 0x47C3 JUMPI PUSH1 0x0 DUP1 REVERT JUMPDEST DUP3 CALLDATALOAD SWAP2 POP PUSH1 0x20 DUP4 ADD CALLDATALOAD PUSH2 0x47D5 DUP2 PUSH2 0x46FA JUMP JUMPDEST DUP1 SWAP2 POP POP SWAP3 POP SWAP3 SWAP1 POP JUMP JUMPDEST PUSH1 0x20 DUP1 DUP3 MSTORE DUP3 MLOAD DUP3 DUP3 ADD DUP2 SWAP1 MSTORE PUSH1 0x0 SWAP2 SWAP1 DUP5 DUP3 ADD SWAP1 PUSH1 0x40 DUP6 ADD SWAP1 DUP5 JUMPDEST DUP2 DUP2 LT ISZERO PUSH2 0x4822 JUMPI DUP4 MLOAD PUSH1 0x1 PUSH1 0x1 PUSH1 0xE0 SHL SUB NOT AND DUP4 MSTORE SWAP3 DUP5 ADD SWAP3 SWAP2 DUP5 ADD SWAP2 PUSH1 0x1 ADD PUSH2 0x47FC JUMP JUMPDEST POP SWAP1 SWAP7 SWAP6 POP POP POP POP POP POP JUMP JUMPDEST PUSH1 0x20 DUP1 DUP3 MSTORE DUP3 MLOAD DUP3 DUP3 ADD DUP2 SWAP1 MSTORE PUSH1 0x0 SWAP2 SWAP1 DUP5 DUP3 ADD SWAP1 PUSH1 0x40 DUP6 ADD SWAP1 DUP5 JUMPDEST DUP2 DUP2 LT ISZERO PUSH2 0x4822 JUMPI DUP4 MLOAD DUP4 MSTORE SWAP3 DUP5 ADD SWAP3 SWAP2 DUP5 ADD SWAP2 PUSH1 0x1 ADD PUSH2 0x484A JUMP JUMPDEST PUSH1 0x0 JUMPDEST DUP4 DUP2 LT ISZERO PUSH2 0x4881 JUMPI DUP2 DUP2 ADD MLOAD DUP4 DUP3 ADD MSTORE PUSH1 0x20 ADD PUSH2 0x4869 JUMP JUMPDEST POP POP PUSH1 0x0 SWAP2 ADD MSTORE JUMP JUMPDEST PUSH1 0x0 DUP2 MLOAD DUP1 DUP5 MSTORE PUSH2 0x48A2 DUP2 PUSH1 0x20 DUP7 ADD PUSH1 0x20 DUP7 ADD PUSH2 0x4866 JUMP JUMPDEST PUSH1 0x1F ADD PUSH1 0x1F NOT AND SWAP3 SWAP1 SWAP3 ADD PUSH1 0x20 ADD SWAP3 SWAP2 POP POP JUMP JUMPDEST PUSH1 0x60 DUP2 MSTORE PUSH1 0x0 PUSH2 0x48C9 PUSH1 0x60 DUP4 ADD DUP7 PUSH2 0x488A JUMP JUMPDEST SWAP4 ISZERO ISZERO PUSH1 0x20 DUP4 ADD MSTORE POP SWAP1 ISZERO ISZERO PUSH1 0x40 SWAP1 SWAP2 ADD MSTORE SWAP2 SWAP1 POP JUMP JUMPDEST PUSH1 0x20 DUP1 DUP3 MSTORE DUP3 MLOAD DUP3 DUP3 ADD DUP2 SWAP1 MSTORE PUSH1 0x0 SWAP2 SWAP1 DUP5 DUP3 ADD SWAP1 PUSH1 0x40 DUP6 ADD SWAP1 DUP5 JUMPDEST DUP2 DUP2 LT ISZERO PUSH2 0x4822 JUMPI DUP4 MLOAD PUSH1 0x1 PUSH1 0x1 PUSH1 0xA0 SHL SUB AND DUP4 MSTORE SWAP3 DUP5 ADD SWAP3 SWAP2 DUP5 ADD SWAP2 PUSH1 0x1 ADD PUSH2 0x48FC JUMP JUMPDEST PUSH1 0x0 DUP1 DUP4 PUSH1 0x1F DUP5 ADD SLT PUSH2 0x4933 JUMPI PUSH1 0x0 DUP1 REVERT JUMPDEST POP DUP2 CALLDATALOAD PUSH1 0x1 PUSH1 0x1 PUSH1 0x40 SHL SUB DUP2 GT ISZERO PUSH2 0x494A JUMPI PUSH1 0x0 DUP1 REVERT JUMPDEST PUSH1 0x20 DUP4 ADD SWAP2 POP DUP4 PUSH1 0x20 DUP3 DUP6 ADD ADD GT ISZERO PUSH2 0x4962 JUMPI PUSH1 0x0 DUP1 REVERT JUMPDEST SWAP3 POP SWAP3 SWAP1 POP JUMP JUMPDEST DUP1 ISZERO ISZERO DUP2 EQ PUSH2 0x3FB4 JUMPI PUSH1 0x0 DUP1 REVERT JUMPDEST PUSH1 0x0 DUP1 PUSH1 0x0 PUSH1 0x40 DUP5 DUP7 SUB SLT ISZERO PUSH2 0x498C JUMPI PUSH1 0x0 DUP1 REVERT JUMPDEST DUP4 CALLDATALOAD PUSH1 0x1 PUSH1 0x1 PUSH1 0x40 SHL SUB DUP2 GT ISZERO PUSH2 0x49A2 JUMPI PUSH1 0x0 DUP1 REVERT JUMPDEST PUSH2 0x49AE DUP7 DUP3 DUP8 ADD PUSH2 0x4921 JUMP JUMPDEST SWAP1 SWAP5 POP SWAP3 POP POP PUSH1 0x20 DUP5 ADD CALLDATALOAD PUSH2 0x49C2 DUP2 PUSH2 0x4969 JUMP JUMPDEST DUP1 SWAP2 POP POP SWAP3 POP SWAP3 POP SWAP3 JUMP JUMPDEST PUSH1 0x0 PUSH1 0x20 DUP3 DUP5 SUB SLT ISZERO PUSH2 0x49DF JUMPI PUSH1 0x0 DUP1 REVERT JUMPDEST DUP2 CALLDATALOAD PUSH2 0x1012 DUP2 PUSH2 0x4969 JUMP JUMPDEST PUSH1 0x0 DUP1 PUSH1 0x0 DUP1 PUSH1 0x60 DUP6 DUP8 SUB SLT ISZERO PUSH2 0x4A00 JUMPI PUSH1 0x0 DUP1 REVERT JUMPDEST DUP5 CALLDATALOAD PUSH1 0x1 PUSH1 0x1 PUSH1 0x40 SHL SUB DUP2 GT ISZERO PUSH2 0x4A16 JUMPI PUSH1 0x0 DUP1 REVERT JUMPDEST PUSH2 0x4A22 DUP8 DUP3 DUP9 ADD PUSH2 0x4921 JUMP JUMPDEST SWAP1 SWAP6 POP SWAP4 POP POP PUSH1 0x20 DUP6 ADD CALLDATALOAD PUSH2 0x4A36 DUP2 PUSH2 0x4969 JUMP JUMPDEST SWAP2 POP PUSH1 0x40 DUP6 ADD CALLDATALOAD PUSH2 0x4A46 DUP2 PUSH2 0x4969 JUMP JUMPDEST SWAP4 SWAP7 SWAP3 SWAP6 POP SWAP1 SWAP4 POP POP JUMP JUMPDEST PUSH1 0x0 DUP1 PUSH1 0x0 DUP1 PUSH1 0x0 DUP1 PUSH1 0x0 PUSH1 0x80 DUP9 DUP11 SUB SLT ISZERO PUSH2 0x4A6C JUMPI PUSH1 0x0 DUP1 REVERT JUMPDEST DUP8 CALLDATALOAD PUSH1 0x1 PUSH1 0x1 PUSH1 0x40 SHL SUB DUP1 DUP3 GT ISZERO PUSH2 0x4A83 JUMPI PUSH1 0x0 DUP1 REVERT JUMPDEST PUSH2 0x4A8F DUP12 DUP4 DUP13 ADD PUSH2 0x4921 JUMP JUMPDEST SWAP1 SWAP10 POP SWAP8 POP PUSH1 0x20 DUP11 ADD CALLDATALOAD SWAP2 POP DUP1 DUP3 GT ISZERO PUSH2 0x4AA8 JUMPI PUSH1 0x0 DUP1 REVERT JUMPDEST PUSH2 0x4AB4 DUP12 DUP4 DUP13 ADD PUSH2 0x4921 JUMP JUMPDEST SWAP1 SWAP8 POP SWAP6 POP PUSH1 0x40 DUP11 ADD CALLDATALOAD SWAP2 POP DUP1 DUP3 GT ISZERO PUSH2 0x4ACD JUMPI PUSH1 0x0 DUP1 REVERT JUMPDEST POP PUSH2 0x4ADA DUP11 DUP3 DUP12 ADD PUSH2 0x4921 JUMP JUMPDEST SWAP1 SWAP5 POP SWAP3 POP POP PUSH1 0x60 DUP9 ADD CALLDATALOAD PUSH2 0x4AEE DUP2 PUSH2 0x4765 JUMP JUMPDEST DUP1 SWAP2 POP POP SWAP3 SWAP6 SWAP9 SWAP2 SWAP5 SWAP8 POP SWAP3 SWAP6 POP JUMP JUMPDEST PUSH1 0x40 DUP2 MSTORE PUSH1 0x0 PUSH2 0x4B11 PUSH1 0x40 DUP4 ADD DUP6 PUSH2 0x488A JUMP JUMPDEST SWAP1 POP DUP3 ISZERO ISZERO PUSH1 0x20 DUP4 ADD MSTORE SWAP4 SWAP3 POP POP POP JUMP JUMPDEST PUSH1 0x0 DUP1 PUSH1 0x0 PUSH1 0x60 DUP5 DUP7 SUB SLT ISZERO PUSH2 0x4B37 JUMPI PUSH1 0x0 DUP1 REVERT JUMPDEST DUP4 CALLDATALOAD SWAP3 POP PUSH1 0x20 DUP5 ADD CALLDATALOAD SWAP2 POP PUSH1 0x40 DUP5 ADD CALLDATALOAD PUSH2 0x49C2 DUP2 PUSH2 0x46FA JUMP JUMPDEST PUSH1 0x0 DUP1 PUSH1 0x40 DUP4 DUP6 SUB SLT ISZERO PUSH2 0x4B63 JUMPI PUSH1 0x0 DUP1 REVERT JUMPDEST DUP3 CALLDATALOAD SWAP2 POP PUSH1 0x20 DUP4 ADD CALLDATALOAD PUSH2 0x47D5 DUP2 PUSH2 0x4969 JUMP JUMPDEST PUSH4 0x4E487B71 PUSH1 0xE0 SHL PUSH1 0x0 MSTORE PUSH1 0x41 PUSH1 0x4 MSTORE PUSH1 0x24 PUSH1 0x0 REVERT JUMPDEST PUSH1 0x40 MLOAD PUSH1 0x60 DUP2 ADD PUSH1 0x1 PUSH1 0x1 PUSH1 0x40 SHL SUB DUP2 GT DUP3 DUP3 LT OR ISZERO PUSH2 0x4BAD JUMPI PUSH2 0x4BAD PUSH2 0x4B75 JUMP JUMPDEST PUSH1 0x40 MSTORE SWAP1 JUMP JUMPDEST PUSH1 0x40 MLOAD PUSH1 0x1F DUP3 ADD PUSH1 0x1F NOT AND DUP2 ADD PUSH1 0x1 PUSH1 0x1 PUSH1 0x40 SHL SUB DUP2 GT DUP3 DUP3 LT OR ISZERO PUSH2 0x4BDB JUMPI PUSH2 0x4BDB PUSH2 0x4B75 JUMP JUMPDEST PUSH1 0x40 MSTORE SWAP2 SWAP1 POP JUMP JUMPDEST PUSH1 0x0 PUSH1 0x1 PUSH1 0x1 PUSH1 0x40 SHL SUB DUP3 GT ISZERO PUSH2 0x4BFC JUMPI PUSH2 0x4BFC PUSH2 0x4B75 JUMP JUMPDEST POP PUSH1 0x1F ADD PUSH1 0x1F NOT AND PUSH1 0x20 ADD SWAP1 JUMP JUMPDEST PUSH1 0x0 DUP3 PUSH1 0x1F DUP4 ADD SLT PUSH2 0x4C1B JUMPI PUSH1 0x0 DUP1 REVERT JUMPDEST DUP2 CALLDATALOAD PUSH2 0x4C2E PUSH2 0x4C29 DUP3 PUSH2 0x4BE3 JUMP JUMPDEST PUSH2 0x4BB3 JUMP JUMPDEST DUP2 DUP2 MSTORE DUP5 PUSH1 0x20 DUP4 DUP7 ADD ADD GT ISZERO PUSH2 0x4C43 JUMPI PUSH1 0x0 DUP1 REVERT JUMPDEST DUP2 PUSH1 0x20 DUP6 ADD PUSH1 0x20 DUP4 ADD CALLDATACOPY PUSH1 0x0 SWAP2 DUP2 ADD PUSH1 0x20 ADD SWAP2 SWAP1 SWAP2 MSTORE SWAP4 SWAP3 POP POP POP JUMP JUMPDEST PUSH1 0x0 DUP1 PUSH1 0x0 PUSH1 0x60 DUP5 DUP7 SUB SLT ISZERO PUSH2 0x4C75 JUMPI PUSH1 0x0 DUP1 REVERT JUMPDEST DUP4 CALLDATALOAD PUSH2 0x4C80 DUP2 PUSH2 0x4765 JUMP JUMPDEST SWAP3 POP PUSH1 0x20 DUP5 ADD CALLDATALOAD PUSH1 0x1 PUSH1 0x1 PUSH1 0x40 SHL SUB DUP2 GT ISZERO PUSH2 0x4C9B JUMPI PUSH1 0x0 DUP1 REVERT JUMPDEST PUSH2 0x4CA7 DUP7 DUP3 DUP8 ADD PUSH2 0x4C0A JUMP JUMPDEST SWAP3 POP POP PUSH1 0x40 DUP5 ADD CALLDATALOAD PUSH2 0x49C2 DUP2 PUSH2 0x4969 JUMP JUMPDEST PUSH1 0x20 DUP2 MSTORE PUSH1 0x0 PUSH2 0x1012 PUSH1 0x20 DUP4 ADD DUP5 PUSH2 0x488A JUMP JUMPDEST PUSH1 0x0 DUP1 DUP4 PUSH1 0x1F DUP5 ADD SLT PUSH2 0x4CDD JUMPI PUSH1 0x0 DUP1 REVERT JUMPDEST POP DUP2 CALLDATALOAD PUSH1 0x1 PUSH1 0x1 PUSH1 0x40 SHL SUB DUP2 GT ISZERO PUSH2 0x4CF4 JUMPI PUSH1 0x0 DUP1 REVERT JUMPDEST PUSH1 0x20 DUP4 ADD SWAP2 POP DUP4 PUSH1 0x20 DUP3 PUSH1 0x5 SHL DUP6 ADD ADD GT ISZERO PUSH2 0x4962 JUMPI PUSH1 0x0 DUP1 REVERT JUMPDEST PUSH1 0x0 DUP1 PUSH1 0x0 DUP1 DUP5 DUP7 SUB PUSH2 0x120 DUP2 SLT ISZERO PUSH2 0x4D27 JUMPI PUSH1 0x0 DUP1 REVERT JUMPDEST DUP6 CALLDATALOAD PUSH1 0x1 PUSH1 0x1 PUSH1 0x40 SHL SUB DUP1 DUP3 GT ISZERO PUSH2 0x4D3E JUMPI PUSH1 0x0 DUP1 REVERT JUMPDEST PUSH2 0x4D4A DUP10 DUP4 DUP11 ADD PUSH2 0x4C0A JUMP JUMPDEST SWAP7 POP PUSH1 0xE0 PUSH1 0x1F NOT DUP5 ADD SLT ISZERO PUSH2 0x4D5E JUMPI PUSH1 0x0 DUP1 REVERT JUMPDEST PUSH1 0x20 DUP9 ADD SWAP6 POP PUSH2 0x100 DUP9 ADD CALLDATALOAD SWAP3 POP DUP1 DUP4 GT ISZERO PUSH2 0x4D79 JUMPI PUSH1 0x0 DUP1 REVERT JUMPDEST POP POP PUSH2 0x4D87 DUP8 DUP3 DUP9 ADD PUSH2 0x4CCB JUMP JUMPDEST SWAP6 SWAP9 SWAP5 SWAP8 POP SWAP6 POP POP POP POP JUMP JUMPDEST PUSH1 0x0 DUP1 PUSH1 0x40 DUP4 DUP6 SUB SLT ISZERO PUSH2 0x4DA6 JUMPI PUSH1 0x0 DUP1 REVERT JUMPDEST DUP3 CALLDATALOAD SWAP2 POP PUSH1 0x20 DUP4 ADD CALLDATALOAD PUSH2 0x47D5 DUP2 PUSH2 0x4765 JUMP JUMPDEST PUSH1 0x0 DUP1 PUSH1 0x20 DUP4 DUP6 SUB SLT ISZERO PUSH2 0x4DCB JUMPI PUSH1 0x0 DUP1 REVERT JUMPDEST DUP3 CALLDATALOAD PUSH1 0x1 PUSH1 0x1 PUSH1 0x40 SHL SUB DUP1 DUP3 GT ISZERO PUSH2 0x4DE2 JUMPI PUSH1 0x0 DUP1 REVERT JUMPDEST DUP2 DUP6 ADD SWAP2 POP DUP6 PUSH1 0x1F DUP4 ADD SLT PUSH2 0x4DF6 JUMPI PUSH1 0x0 DUP1 REVERT JUMPDEST DUP2 CALLDATALOAD DUP2 DUP2 GT ISZERO PUSH2 0x4E05 JUMPI PUSH1 0x0 DUP1 REVERT JUMPDEST DUP7 PUSH1 0x20 DUP3 PUSH1 0x6 SHL DUP6 ADD ADD GT ISZERO PUSH2 0x4E1A JUMPI PUSH1 0x0 DUP1 REVERT JUMPDEST PUSH1 0x20 SWAP3 SWAP1 SWAP3 ADD SWAP7 SWAP2 SWAP6 POP SWAP1 SWAP4 POP POP POP POP JUMP JUMPDEST PUSH1 0x0 DUP1 PUSH1 0x20 DUP4 DUP6 SUB SLT ISZERO PUSH2 0x4E3F JUMPI PUSH1 0x0 DUP1 REVERT JUMPDEST DUP3 CALLDATALOAD PUSH1 0x1 PUSH1 0x1 PUSH1 0x40 SHL SUB DUP2 GT ISZERO PUSH2 0x4E55 JUMPI PUSH1 0x0 DUP1 REVERT JUMPDEST PUSH2 0x4E61 DUP6 DUP3 DUP7 ADD PUSH2 0x4CCB JUMP JUMPDEST SWAP1 SWAP7 SWAP1 SWAP6 POP SWAP4 POP POP POP POP JUMP JUMPDEST PUSH1 0x0 DUP1 PUSH1 0x0 DUP1 PUSH1 0x60 DUP6 DUP8 SUB SLT ISZERO PUSH2 0x4E83 JUMPI PUSH1 0x0 DUP1 REVERT JUMPDEST DUP5 CALLDATALOAD PUSH1 0x1 PUSH1 0x1 PUSH1 0x40 SHL SUB DUP2 GT ISZERO PUSH2 0x4E99 JUMPI PUSH1 0x0 DUP1 REVERT JUMPDEST PUSH2 0x4EA5 DUP8 DUP3 DUP9 ADD PUSH2 0x4921 JUMP JUMPDEST SWAP1 SWAP6 POP SWAP4 POP POP PUSH1 0x20 DUP6 ADD CALLDATALOAD SWAP2 POP PUSH1 0x40 DUP6 ADD CALLDATALOAD PUSH2 0x4A46 DUP2 PUSH2 0x4969 JUMP JUMPDEST PUSH1 0x60 DUP2 MSTORE PUSH1 0x0 PUSH2 0x4ED3 PUSH1 0x60 DUP4 ADD DUP7 PUSH2 0x488A JUMP JUMPDEST PUSH1 0x20 DUP4 ADD SWAP5 SWAP1 SWAP5 MSTORE POP SWAP1 ISZERO ISZERO PUSH1 0x40 SWAP1 SWAP2 ADD MSTORE SWAP2 SWAP1 POP JUMP JUMPDEST PUSH1 0x0 DUP1 PUSH1 0x0 PUSH1 0x60 DUP5 DUP7 SUB SLT ISZERO PUSH2 0x4EFF JUMPI PUSH1 0x0 DUP1 REVERT JUMPDEST DUP4 CALLDATALOAD SWAP3 POP PUSH1 0x20 DUP5 ADD CALLDATALOAD PUSH2 0x4F11 DUP2 PUSH2 0x4765 JUMP JUMPDEST SWAP2 POP PUSH1 0x40 DUP5 ADD CALLDATALOAD PUSH2 0x49C2 DUP2 PUSH2 0x46FA JUMP JUMPDEST PUSH1 0x0 DUP1 PUSH1 0x40 DUP4 DUP6 SUB SLT ISZERO PUSH2 0x4F34 JUMPI PUSH1 0x0 DUP1 REVERT JUMPDEST POP POP DUP1 CALLDATALOAD SWAP3 PUSH1 0x20 SWAP1 SWAP2 ADD CALLDATALOAD SWAP2 POP JUMP JUMPDEST PUSH1 0x0 PUSH1 0xA0 DUP3 DUP5 SUB SLT ISZERO PUSH2 0x4F55 JUMPI PUSH1 0x0 DUP1 REVERT JUMPDEST POP SWAP2 SWAP1 POP JUMP JUMPDEST PUSH1 0x0 DUP1 PUSH1 0x0 DUP1 PUSH1 0x0 PUSH2 0x100 DUP7 DUP9 SUB SLT ISZERO PUSH2 0x4F74 JUMPI PUSH1 0x0 DUP1 REVERT JUMPDEST DUP6 CALLDATALOAD SWAP5 POP PUSH1 0x20 DUP7 ADD CALLDATALOAD PUSH1 0x1 PUSH1 0x1 PUSH1 0x40 SHL SUB DUP1 DUP3 GT ISZERO PUSH2 0x4F92 JUMPI PUSH1 0x0 DUP1 REVERT JUMPDEST PUSH2 0x4F9E DUP10 DUP4 DUP11 ADD PUSH2 0x4C0A JUMP JUMPDEST SWAP6 POP PUSH2 0x4FAD DUP10 PUSH1 0x40 DUP11 ADD PUSH2 0x4F43 JUMP JUMPDEST SWAP5 POP PUSH1 0xE0 DUP9 ADD CALLDATALOAD SWAP2 POP DUP1 DUP3 GT ISZERO PUSH2 0x4FC3 JUMPI PUSH1 0x0 DUP1 REVERT JUMPDEST POP PUSH2 0x4FD0 DUP9 DUP3 DUP10 ADD PUSH2 0x4CCB JUMP JUMPDEST SWAP7 SWAP10 SWAP6 SWAP9 POP SWAP4 SWAP7 POP SWAP3 SWAP5 SWAP4 SWAP3 POP POP POP JUMP JUMPDEST PUSH1 0x0 DUP1 PUSH1 0x0 DUP1 PUSH1 0xE0 DUP6 DUP8 SUB SLT ISZERO PUSH2 0x4FF7 JUMPI PUSH1 0x0 DUP1 REVERT JUMPDEST DUP5 CALLDATALOAD PUSH1 0x1 PUSH1 0x1 PUSH1 0x40 SHL SUB DUP1 DUP3 GT ISZERO PUSH2 0x500E JUMPI PUSH1 0x0 DUP1 REVERT JUMPDEST PUSH2 0x501A DUP9 DUP4 DUP10 ADD PUSH2 0x4C0A JUMP JUMPDEST SWAP6 POP PUSH2 0x5029 DUP9 PUSH1 0x20 DUP10 ADD PUSH2 0x4F43 JUMP JUMPDEST SWAP5 POP PUSH1 0xC0 DUP8 ADD CALLDATALOAD SWAP2 POP DUP1 DUP3 GT ISZERO PUSH2 0x503F JUMPI PUSH1 0x0 DUP1 REVERT JUMPDEST POP PUSH2 0x4D87 DUP8 DUP3 DUP9 ADD PUSH2 0x4CCB JUMP JUMPDEST SWAP4 DUP5 MSTORE PUSH1 0x20 DUP5 ADD SWAP3 SWAP1 SWAP3 MSTORE PUSH1 0x1 PUSH1 0x1 PUSH1 0xE0 SHL SUB NOT AND PUSH1 0x40 DUP4 ADD MSTORE PUSH1 0x60 DUP3 ADD MSTORE PUSH1 0x80 ADD SWAP1 JUMP JUMPDEST PUSH1 0x0 PUSH1 0x20 DUP3 DUP5 SUB SLT ISZERO PUSH2 0x5083 JUMPI PUSH1 0x0 DUP1 REVERT JUMPDEST POP MLOAD SWAP2 SWAP1 POP JUMP JUMPDEST PUSH1 0x1 PUSH1 0x1 PUSH1 0xE0 SHL SUB NOT SWAP3 SWAP1 SWAP3 AND DUP3 MSTORE PUSH1 0x20 DUP3 ADD MSTORE PUSH1 0x40 ADD SWAP1 JUMP JUMPDEST PUSH1 0x0 PUSH1 0x20 DUP3 DUP5 SUB SLT ISZERO PUSH2 0x50B6 JUMPI PUSH1 0x0 DUP1 REVERT JUMPDEST DUP2 MLOAD PUSH2 0x1012 DUP2 PUSH2 0x4969 JUMP JUMPDEST SWAP3 DUP4 MSTORE PUSH1 0x20 DUP4 ADD SWAP2 SWAP1 SWAP2 MSTORE PUSH1 0x1 PUSH1 0x1 PUSH1 0xE0 SHL SUB NOT AND PUSH1 0x40 DUP3 ADD MSTORE PUSH1 0x60 ADD SWAP1 JUMP JUMPDEST PUSH1 0x0 PUSH1 0x1 PUSH1 0x1 PUSH1 0x40 SHL SUB DUP3 GT ISZERO PUSH2 0x50FA JUMPI PUSH2 0x50FA PUSH2 0x4B75 JUMP JUMPDEST POP PUSH1 0x5 SHL PUSH1 0x20 ADD SWAP1 JUMP JUMPDEST PUSH1 0x0 DUP3 PUSH1 0x1F DUP4 ADD SLT PUSH2 0x5115 JUMPI PUSH1 0x0 DUP1 REVERT JUMPDEST DUP2 MLOAD PUSH1 0x20 PUSH2 0x5125 PUSH2 0x4C29 DUP4 PUSH2 0x50E1 JUMP JUMPDEST DUP3 DUP2 MSTORE PUSH1 0x5 SWAP3 SWAP1 SWAP3 SHL DUP5 ADD DUP2 ADD SWAP2 DUP2 DUP2 ADD SWAP1 DUP7 DUP5 GT ISZERO PUSH2 0x5144 JUMPI PUSH1 0x0 DUP1 REVERT JUMPDEST DUP3 DUP7 ADD JUMPDEST DUP5 DUP2 LT ISZERO PUSH2 0x5168 JUMPI DUP1 MLOAD PUSH2 0x515B DUP2 PUSH2 0x46FA JUMP JUMPDEST DUP4 MSTORE SWAP2 DUP4 ADD SWAP2 DUP4 ADD PUSH2 0x5148 JUMP JUMPDEST POP SWAP7 SWAP6 POP POP POP POP POP POP JUMP JUMPDEST PUSH1 0x0 PUSH1 0x20 DUP3 DUP5 SUB SLT ISZERO PUSH2 0x5185 JUMPI PUSH1 0x0 DUP1 REVERT JUMPDEST DUP2 MLOAD PUSH1 0x1 PUSH1 0x1 PUSH1 0x40 SHL SUB DUP2 GT ISZERO PUSH2 0x519B JUMPI PUSH1 0x0 DUP1 REVERT JUMPDEST PUSH2 0x225E DUP5 DUP3 DUP6 ADD PUSH2 0x5104 JUMP JUMPDEST PUSH1 0x0 PUSH1 0x20 DUP1 DUP4 DUP6 SUB SLT ISZERO PUSH2 0x51BA JUMPI PUSH1 0x0 DUP1 REVERT JUMPDEST DUP3 MLOAD PUSH1 0x1 PUSH1 0x1 PUSH1 0x40 SHL SUB DUP2 GT ISZERO PUSH2 0x51D0 JUMPI PUSH1 0x0 DUP1 REVERT JUMPDEST DUP4 ADD PUSH1 0x1F DUP2 ADD DUP6 SGT PUSH2 0x51E1 JUMPI PUSH1 0x0 DUP1 REVERT JUMPDEST DUP1 MLOAD PUSH2 0x51EF PUSH2 0x4C29 DUP3 PUSH2 0x50E1 JUMP JUMPDEST DUP2 DUP2 MSTORE PUSH1 0x5 SWAP2 SWAP1 SWAP2 SHL DUP3 ADD DUP4 ADD SWAP1 DUP4 DUP2 ADD SWAP1 DUP8 DUP4 GT ISZERO PUSH2 0x520E JUMPI PUSH1 0x0 DUP1 REVERT JUMPDEST SWAP3 DUP5 ADD SWAP3 JUMPDEST DUP3 DUP5 LT ISZERO PUSH2 0x522C JUMPI DUP4 MLOAD DUP3 MSTORE SWAP3 DUP5 ADD SWAP3 SWAP1 DUP5 ADD SWAP1 PUSH2 0x5213 JUMP JUMPDEST SWAP8 SWAP7 POP POP POP POP POP POP POP JUMP JUMPDEST PUSH1 0x0 DUP3 PUSH1 0x1F DUP4 ADD SLT PUSH2 0x5248 JUMPI PUSH1 0x0 DUP1 REVERT JUMPDEST DUP2 MLOAD PUSH2 0x5256 PUSH2 0x4C29 DUP3 PUSH2 0x4BE3 JUMP JUMPDEST DUP2 DUP2 MSTORE DUP5 PUSH1 0x20 DUP4 DUP7 ADD ADD GT ISZERO PUSH2 0x526B JUMPI PUSH1 0x0 DUP1 REVERT JUMPDEST PUSH2 0x225E DUP3 PUSH1 0x20 DUP4 ADD PUSH1 0x20 DUP8 ADD PUSH2 0x4866 JUMP JUMPDEST PUSH1 0x0 DUP1 PUSH1 0x0 PUSH1 0x60 DUP5 DUP7 SUB SLT ISZERO PUSH2 0x5291 JUMPI PUSH1 0x0 DUP1 REVERT JUMPDEST DUP4 MLOAD PUSH1 0x1 PUSH1 0x1 PUSH1 0x40 SHL SUB DUP2 GT ISZERO PUSH2 0x52A7 JUMPI PUSH1 0x0 DUP1 REVERT JUMPDEST PUSH2 0x52B3 DUP7 DUP3 DUP8 ADD PUSH2 0x5237 JUMP JUMPDEST SWAP4 POP POP PUSH1 0x20 DUP5 ADD MLOAD PUSH2 0x52C4 DUP2 PUSH2 0x4969 JUMP JUMPDEST PUSH1 0x40 DUP6 ADD MLOAD SWAP1 SWAP3 POP PUSH2 0x49C2 DUP2 PUSH2 0x4969 JUMP JUMPDEST PUSH4 0x4E487B71 PUSH1 0xE0 SHL PUSH1 0x0 MSTORE PUSH1 0x32 PUSH1 0x4 MSTORE PUSH1 0x24 PUSH1 0x0 REVERT JUMPDEST DUP2 DUP4 MSTORE DUP2 DUP2 PUSH1 0x20 DUP6 ADD CALLDATACOPY POP PUSH1 0x0 DUP3 DUP3 ADD PUSH1 0x20 SWAP1 DUP2 ADD SWAP2 SWAP1 SWAP2 MSTORE PUSH1 0x1F SWAP1 SWAP2 ADD PUSH1 0x1F NOT AND SWAP1 SWAP2 ADD ADD SWAP1 JUMP JUMPDEST DUP5 DUP2 MSTORE PUSH1 0x60 PUSH1 0x20 DUP3 ADD MSTORE PUSH1 0x0 PUSH2 0x532E PUSH1 0x60 DUP4 ADD DUP6 DUP8 PUSH2 0x52EB JUMP JUMPDEST SWAP1 POP DUP3 ISZERO ISZERO PUSH1 0x40 DUP4 ADD MSTORE SWAP6 SWAP5 POP POP POP POP POP JUMP JUMPDEST PUSH1 0x40 DUP2 MSTORE PUSH1 0x0 PUSH2 0x5355 PUSH1 0x40 DUP4 ADD DUP6 DUP8 PUSH2 0x52EB JUMP JUMPDEST SWAP1 POP DUP3 ISZERO ISZERO PUSH1 0x20 DUP4 ADD MSTORE SWAP5 SWAP4 POP POP POP POP JUMP JUMPDEST PUSH1 0x20 DUP1 DUP3 MSTORE PUSH1 0x15 SWAP1 DUP3 ADD MSTORE PUSH21 0x125B1B1959D85B0810DBDB9D1C9858DD0810D85B1B PUSH1 0x5A SHL PUSH1 0x40 DUP3 ADD MSTORE PUSH1 0x60 ADD SWAP1 JUMP JUMPDEST PUSH1 0x20 DUP1 DUP3 MSTORE PUSH1 0x14 SWAP1 DUP3 ADD MSTORE PUSH20 0x141C9BDE1E4810D85B1B195908125B9D985B1A59 PUSH1 0x62 SHL PUSH1 0x40 DUP3 ADD MSTORE PUSH1 0x60 ADD SWAP1 JUMP JUMPDEST PUSH1 0x20 DUP1 DUP3 MSTORE PUSH1 0x17 SWAP1 DUP3 ADD MSTORE PUSH32 0x536166654D6F64653A2043616C6C2052656A6563746564000000000000000000 PUSH1 0x40 DUP3 ADD MSTORE PUSH1 0x60 ADD SWAP1 JUMP JUMPDEST DUP6 DUP2 MSTORE PUSH1 0x80 PUSH1 0x20 DUP3 ADD MSTORE PUSH1 0x0 PUSH2 0x5415 PUSH1 0x80 DUP4 ADD DUP7 DUP9 PUSH2 0x52EB JUMP JUMPDEST SWAP4 ISZERO ISZERO PUSH1 0x40 DUP4 ADD MSTORE POP SWAP1 ISZERO ISZERO PUSH1 0x60 SWAP1 SWAP2 ADD MSTORE SWAP4 SWAP3 POP POP POP JUMP JUMPDEST PUSH1 0x60 DUP2 MSTORE PUSH1 0x0 PUSH2 0x5442 PUSH1 0x60 DUP4 ADD DUP7 DUP9 PUSH2 0x52EB JUMP JUMPDEST SWAP4 ISZERO ISZERO PUSH1 0x20 DUP4 ADD MSTORE POP SWAP1 ISZERO ISZERO PUSH1 0x40 SWAP1 SWAP2 ADD MSTORE SWAP3 SWAP2 POP POP JUMP JUMPDEST DUP2 DUP4 DUP3 CALLDATACOPY PUSH1 0x0 SWAP2 ADD SWAP1 DUP2 MSTORE SWAP2 SWAP1 POP JUMP JUMPDEST PUSH1 0x0 PUSH1 0x20 DUP1 DUP4 DUP6 SUB SLT ISZERO PUSH2 0x547D JUMPI PUSH1 0x0 DUP1 REVERT JUMPDEST DUP3 MLOAD PUSH1 0x1 PUSH1 0x1 PUSH1 0x40 SHL SUB DUP1 DUP3 GT ISZERO PUSH2 0x5494 JUMPI PUSH1 0x0 DUP1 REVERT JUMPDEST DUP2 DUP6 ADD SWAP2 POP DUP6 PUSH1 0x1F DUP4 ADD SLT PUSH2 0x54A8 JUMPI PUSH1 0x0 DUP1 REVERT JUMPDEST DUP2 MLOAD PUSH2 0x54B6 PUSH2 0x4C29 DUP3 PUSH2 0x50E1 JUMP JUMPDEST DUP2 DUP2 MSTORE PUSH1 0x5 SWAP2 SWAP1 SWAP2 SHL DUP4 ADD DUP5 ADD SWAP1 DUP5 DUP2 ADD SWAP1 DUP9 DUP4 GT ISZERO PUSH2 0x54D5 JUMPI PUSH1 0x0 DUP1 REVERT JUMPDEST DUP6 DUP6 ADD JUMPDEST DUP4 DUP2 LT ISZERO PUSH2 0x5560 JUMPI DUP1 MLOAD DUP6 DUP2 GT ISZERO PUSH2 0x54F1 JUMPI PUSH1 0x0 DUP1 DUP2 REVERT JUMPDEST DUP7 ADD PUSH1 0x60 DUP2 DUP13 SUB PUSH1 0x1F NOT ADD DUP2 SGT ISZERO PUSH2 0x5509 JUMPI PUSH1 0x0 DUP1 DUP2 REVERT JUMPDEST PUSH2 0x5511 PUSH2 0x4B8B JUMP JUMPDEST DUP10 DUP4 ADD MLOAD DUP2 MSTORE PUSH1 0x40 DUP1 DUP5 ADD MLOAD DUP10 DUP2 GT ISZERO PUSH2 0x552B JUMPI PUSH1 0x0 DUP1 DUP2 REVERT JUMPDEST PUSH2 0x5539 DUP16 DUP14 DUP4 DUP9 ADD ADD PUSH2 0x5104 JUMP JUMPDEST DUP4 DUP14 ADD MSTORE POP SWAP3 DUP3 ADD MLOAD SWAP3 PUSH2 0x554C DUP5 PUSH2 0x4969 JUMP JUMPDEST DUP2 ADD SWAP3 SWAP1 SWAP3 MSTORE POP DUP4 MSTORE SWAP2 DUP7 ADD SWAP2 DUP7 ADD PUSH2 0x54D9 JUMP JUMPDEST POP SWAP9 SWAP8 POP POP POP POP POP POP POP POP JUMP JUMPDEST PUSH1 0x0 PUSH1 0x80 DUP1 DUP4 ADD DUP8 DUP5 MSTORE PUSH1 0x20 PUSH1 0x1 DUP1 PUSH1 0xA0 SHL SUB DUP9 AND DUP2 DUP7 ADD MSTORE PUSH1 0x40 DUP8 DUP2 DUP8 ADD MSTORE PUSH1 0x60 DUP5 DUP2 DUP9 ADD MSTORE DUP4 DUP9 MLOAD DUP1 DUP7 MSTORE PUSH1 0xA0 DUP10 ADD SWAP2 POP PUSH1 0xA0 DUP2 PUSH1 0x5 SHL DUP11 ADD ADD SWAP6 POP DUP5 DUP11 ADD PUSH1 0x0 DUP1 JUMPDEST DUP4 DUP2 LT ISZERO PUSH2 0x5631 JUMPI DUP12 DUP10 SUB PUSH1 0x9F NOT ADD DUP6 MSTORE DUP3 MLOAD DUP1 MLOAD DUP11 MSTORE DUP9 DUP2 ADD MLOAD DUP10 DUP12 ADD DUP9 SWAP1 MSTORE DUP1 MLOAD DUP9 DUP13 ADD DUP2 SWAP1 MSTORE SWAP1 DUP11 ADD SWAP1 DUP5 SWAP1 DUP14 DUP14 ADD SWAP1 JUMPDEST DUP1 DUP4 LT ISZERO PUSH2 0x5610 JUMPI DUP4 MLOAD PUSH1 0x1 PUSH1 0x1 PUSH1 0xE0 SHL SUB NOT AND DUP3 MSTORE SWAP3 DUP13 ADD SWAP3 PUSH1 0x1 SWAP3 SWAP1 SWAP3 ADD SWAP2 SWAP1 DUP13 ADD SWAP1 PUSH2 0x55E6 JUMP JUMPDEST POP SWAP3 DUP11 ADD MLOAD ISZERO ISZERO SWAP12 DUP11 ADD SWAP12 SWAP1 SWAP12 MSTORE POP SWAP9 POP SWAP4 DUP8 ADD SWAP4 SWAP2 DUP8 ADD SWAP2 PUSH1 0x1 ADD PUSH2 0x55B2 JUMP JUMPDEST POP SWAP7 SWAP15 SWAP14 POP POP POP POP POP POP POP POP POP POP POP POP POP POP JUMP JUMPDEST PUSH1 0x80 DUP2 MSTORE PUSH1 0x0 PUSH2 0x5659 PUSH1 0x80 DUP4 ADD DUP9 DUP11 PUSH2 0x52EB JUMP JUMPDEST DUP3 DUP2 SUB PUSH1 0x20 DUP5 ADD MSTORE PUSH2 0x566C DUP2 DUP8 DUP10 PUSH2 0x52EB JUMP JUMPDEST SWAP2 POP POP DUP4 PUSH1 0x40 DUP4 ADD MSTORE PUSH2 0xFFFF DUP4 AND PUSH1 0x60 DUP4 ADD MSTORE SWAP8 SWAP7 POP POP POP POP POP POP POP JUMP JUMPDEST PUSH1 0x0 DUP1 PUSH1 0x40 DUP4 DUP6 SUB SLT ISZERO PUSH2 0x569D JUMPI PUSH1 0x0 DUP1 REVERT JUMPDEST DUP3 MLOAD PUSH1 0x1 PUSH1 0x1 PUSH1 0x40 SHL SUB DUP2 GT ISZERO PUSH2 0x56B3 JUMPI PUSH1 0x0 DUP1 REVERT JUMPDEST PUSH2 0x56BF DUP6 DUP3 DUP7 ADD PUSH2 0x5237 JUMP JUMPDEST SWAP3 POP POP PUSH1 0x20 DUP4 ADD MLOAD PUSH2 0x47D5 DUP2 PUSH2 0x4969 JUMP JUMPDEST PUSH1 0x0 DUP1 PUSH1 0x40 DUP4 DUP6 SUB SLT ISZERO PUSH2 0x56E3 JUMPI PUSH1 0x0 DUP1 REVERT JUMPDEST DUP3 MLOAD PUSH2 0x56EE DUP2 PUSH2 0x4969 JUMP JUMPDEST PUSH1 0x20 SWAP4 SWAP1 SWAP4 ADD MLOAD SWAP3 SWAP5 SWAP3 SWAP4 POP POP POP JUMP JUMPDEST PUSH1 0x0 DUP1 DUP4 CALLDATALOAD PUSH1 0x1E NOT DUP5 CALLDATASIZE SUB ADD DUP2 SLT PUSH2 0x5715 JUMPI PUSH1 0x0 DUP1 REVERT JUMPDEST DUP4 ADD PUSH1 0x20 DUP2 ADD SWAP3 POP CALLDATALOAD SWAP1 POP PUSH1 0x1 PUSH1 0x1 PUSH1 0x40 SHL SUB DUP2 GT ISZERO PUSH2 0x5734 JUMPI PUSH1 0x0 DUP1 REVERT JUMPDEST DUP1 PUSH1 0x5 SHL CALLDATASIZE SUB DUP3 SGT ISZERO PUSH2 0x4962 JUMPI PUSH1 0x0 DUP1 REVERT JUMPDEST DUP2 DUP4 MSTORE PUSH1 0x0 PUSH1 0x20 DUP1 DUP6 ADD SWAP5 POP DUP3 PUSH1 0x0 JUMPDEST DUP6 DUP2 LT ISZERO PUSH2 0x5785 JUMPI DUP2 CALLDATALOAD PUSH2 0x5769 DUP2 PUSH2 0x46FA JUMP JUMPDEST PUSH1 0x1 PUSH1 0x1 PUSH1 0xE0 SHL SUB NOT AND DUP8 MSTORE SWAP6 DUP3 ADD SWAP6 SWAP1 DUP3 ADD SWAP1 PUSH1 0x1 ADD PUSH2 0x5756 JUMP JUMPDEST POP SWAP5 SWAP6 SWAP5 POP POP POP POP POP JUMP JUMPDEST PUSH1 0x0 DUP3 CALLDATALOAD PUSH1 0x5E NOT DUP4 CALLDATASIZE SUB ADD DUP2 SLT PUSH2 0x57A6 JUMPI PUSH1 0x0 DUP1 REVERT JUMPDEST SWAP1 SWAP2 ADD SWAP3 SWAP2 POP POP JUMP JUMPDEST DUP2 DUP4 MSTORE PUSH1 0x0 PUSH1 0x20 DUP1 DUP6 ADD DUP1 DUP2 SWAP7 POP DUP6 PUSH1 0x5 SHL DUP2 ADD SWAP2 POP DUP5 PUSH1 0x0 JUMPDEST DUP8 DUP2 LT ISZERO PUSH2 0x5834 JUMPI DUP3 DUP5 SUB DUP10 MSTORE PUSH2 0x57E0 DUP3 DUP9 PUSH2 0x5790 JUMP JUMPDEST PUSH1 0x60 DUP2 CALLDATALOAD DUP7 MSTORE PUSH2 0x57F2 DUP8 DUP4 ADD DUP4 PUSH2 0x56FE JUMP JUMPDEST DUP3 DUP10 DUP10 ADD MSTORE PUSH2 0x5804 DUP4 DUP10 ADD DUP3 DUP5 PUSH2 0x5746 JUMP JUMPDEST SWAP3 POP POP POP PUSH1 0x40 DUP1 DUP4 ADD CALLDATALOAD SWAP3 POP PUSH2 0x5819 DUP4 PUSH2 0x4969 JUMP JUMPDEST SWAP2 ISZERO ISZERO SWAP6 SWAP1 SWAP2 ADD SWAP5 SWAP1 SWAP5 MSTORE SWAP8 DUP5 ADD SWAP8 SWAP1 DUP5 ADD SWAP1 PUSH1 0x1 ADD PUSH2 0x57C9 JUMP JUMPDEST POP SWAP2 SWAP8 SWAP7 POP POP POP POP POP POP POP JUMP JUMPDEST PUSH1 0x0 PUSH2 0x140 DUP8 DUP4 MSTORE DUP1 PUSH1 0x20 DUP5 ADD MSTORE PUSH2 0x585B DUP2 DUP5 ADD DUP9 PUSH2 0x488A JUMP JUMPDEST SWAP1 POP DUP6 CALLDATALOAD PUSH1 0x40 DUP5 ADD MSTORE PUSH1 0x20 DUP7 ADD CALLDATALOAD PUSH1 0x60 DUP5 ADD MSTORE PUSH1 0x40 DUP7 ADD CALLDATALOAD PUSH1 0x80 DUP5 ADD MSTORE PUSH1 0x60 DUP7 ADD CALLDATALOAD PUSH1 0xA0 DUP5 ADD MSTORE PUSH1 0x80 DUP7 ADD CALLDATALOAD PUSH2 0x5890 DUP2 PUSH2 0x4765 JUMP JUMPDEST PUSH1 0x1 PUSH1 0x1 PUSH1 0xA0 SHL SUB SWAP1 DUP2 AND PUSH1 0xC0 DUP6 ADD MSTORE PUSH1 0xA0 DUP8 ADD CALLDATALOAD SWAP1 PUSH2 0x58AF DUP3 PUSH2 0x4765 JUMP JUMPDEST AND PUSH1 0xE0 DUP5 ADD MSTORE PUSH1 0xC0 DUP7 ADD CALLDATALOAD PUSH2 0x58C3 DUP2 PUSH2 0x4969 JUMP JUMPDEST ISZERO ISZERO PUSH2 0x100 DUP5 ADD MSTORE DUP3 DUP2 SUB PUSH2 0x120 DUP5 ADD MSTORE PUSH2 0x58DF DUP2 DUP6 DUP8 PUSH2 0x57AF JUMP JUMPDEST SWAP9 SWAP8 POP POP POP POP POP POP POP POP JUMP JUMPDEST PUSH1 0x0 DUP1 PUSH1 0x0 PUSH1 0x60 DUP5 DUP7 SUB SLT ISZERO PUSH2 0x5900 JUMPI PUSH1 0x0 DUP1 REVERT JUMPDEST DUP4 MLOAD PUSH2 0x590B DUP2 PUSH2 0x4765 JUMP JUMPDEST PUSH1 0x20 DUP6 ADD MLOAD PUSH1 0x40 DUP7 ADD MLOAD SWAP2 SWAP5 POP SWAP3 POP PUSH2 0x49C2 DUP2 PUSH2 0x4765 JUMP JUMPDEST PUSH4 0x4E487B71 PUSH1 0xE0 SHL PUSH1 0x0 MSTORE PUSH1 0x11 PUSH1 0x4 MSTORE PUSH1 0x24 PUSH1 0x0 REVERT JUMPDEST PUSH1 0x0 PUSH1 0x1 DUP3 ADD PUSH2 0x594B JUMPI PUSH2 0x594B PUSH2 0x5923 JUMP JUMPDEST POP PUSH1 0x1 ADD SWAP1 JUMP JUMPDEST DUP4 DUP2 MSTORE PUSH1 0x40 PUSH1 0x20 DUP1 DUP4 ADD DUP3 SWAP1 MSTORE DUP3 DUP3 ADD DUP5 SWAP1 MSTORE PUSH1 0x0 SWAP2 SWAP1 DUP6 SWAP1 PUSH1 0x60 DUP6 ADD DUP5 JUMPDEST DUP8 DUP2 LT ISZERO PUSH2 0x5560 JUMPI DUP4 CALLDATALOAD DUP3 MSTORE DUP3 DUP5 ADD CALLDATALOAD PUSH2 0x598A DUP2 PUSH2 0x4765 JUMP JUMPDEST PUSH1 0x1 PUSH1 0x1 PUSH1 0xA0 SHL SUB AND DUP3 DUP5 ADD MSTORE SWAP3 DUP5 ADD SWAP3 SWAP1 DUP5 ADD SWAP1 PUSH1 0x1 ADD PUSH2 0x5971 JUMP JUMPDEST PUSH1 0x0 PUSH1 0x40 DUP1 DUP4 ADD DUP7 DUP5 MSTORE PUSH1 0x20 DUP3 DUP2 DUP7 ADD MSTORE DUP2 DUP7 DUP4 MSTORE PUSH1 0x60 SWAP3 POP DUP3 DUP7 ADD SWAP1 POP DUP3 DUP8 PUSH1 0x5 SHL DUP8 ADD ADD DUP9 PUSH1 0x0 JUMPDEST DUP10 DUP2 LT ISZERO PUSH2 0x5A6E JUMPI DUP9 DUP4 SUB PUSH1 0x5F NOT ADD DUP5 MSTORE PUSH2 0x59EC DUP3 DUP13 PUSH2 0x5790 JUMP JUMPDEST DUP1 CALLDATALOAD DUP5 MSTORE DUP6 DUP2 ADD CALLDATALOAD PUSH1 0x1E NOT DUP3 CALLDATASIZE SUB ADD DUP2 SLT PUSH2 0x5A06 JUMPI PUSH1 0x0 DUP1 REVERT JUMPDEST DUP2 ADD DUP7 DUP2 ADD SWAP1 CALLDATALOAD PUSH1 0x1 PUSH1 0x1 PUSH1 0x40 SHL SUB DUP2 GT ISZERO PUSH2 0x5A21 JUMPI PUSH1 0x0 DUP1 REVERT JUMPDEST DUP1 CALLDATASIZE SUB DUP3 SGT ISZERO PUSH2 0x5A30 JUMPI PUSH1 0x0 DUP1 REVERT JUMPDEST DUP9 DUP9 DUP8 ADD MSTORE PUSH2 0x5A42 DUP10 DUP8 ADD DUP3 DUP5 PUSH2 0x52EB JUMP JUMPDEST SWAP2 POP POP DUP9 DUP3 ADD CALLDATALOAD SWAP2 POP PUSH2 0x5A54 DUP3 PUSH2 0x4969 JUMP JUMPDEST SWAP1 ISZERO ISZERO SWAP4 DUP9 ADD SWAP4 SWAP1 SWAP4 MSTORE SWAP3 DUP5 ADD SWAP3 SWAP1 DUP5 ADD SWAP1 PUSH1 0x1 ADD PUSH2 0x59D1 JUMP JUMPDEST POP SWAP1 SWAP11 SWAP10 POP POP POP POP POP POP POP POP POP POP JUMP JUMPDEST PUSH1 0x0 DUP3 CALLDATALOAD PUSH1 0x5E NOT DUP4 CALLDATASIZE SUB ADD DUP2 SLT PUSH2 0x5A94 JUMPI PUSH1 0x0 DUP1 REVERT JUMPDEST SWAP2 SWAP1 SWAP2 ADD SWAP3 SWAP2 POP POP JUMP JUMPDEST PUSH1 0x0 DUP1 DUP4 CALLDATALOAD PUSH1 0x1E NOT DUP5 CALLDATASIZE SUB ADD DUP2 SLT PUSH2 0x5AB5 JUMPI PUSH1 0x0 DUP1 REVERT JUMPDEST DUP4 ADD DUP1 CALLDATALOAD SWAP2 POP PUSH1 0x1 PUSH1 0x1 PUSH1 0x40 SHL SUB DUP3 GT ISZERO PUSH2 0x5ACF JUMPI PUSH1 0x0 DUP1 REVERT JUMPDEST PUSH1 0x20 ADD SWAP2 POP CALLDATASIZE DUP2 SWAP1 SUB DUP3 SGT ISZERO PUSH2 0x4962 JUMPI PUSH1 0x0 DUP1 REVERT JUMPDEST PUSH1 0x0 PUSH1 0xC0 DUP3 DUP5 SUB SLT ISZERO PUSH2 0x5AF6 JUMPI PUSH1 0x0 DUP1 REVERT JUMPDEST PUSH1 0x40 MLOAD PUSH1 0xC0 DUP2 ADD DUP2 DUP2 LT PUSH1 0x1 PUSH1 0x1 PUSH1 0x40 SHL SUB DUP3 GT OR ISZERO PUSH2 0x5B18 JUMPI PUSH2 0x5B18 PUSH2 0x4B75 JUMP JUMPDEST DUP1 PUSH1 0x40 MSTORE POP DUP3 MLOAD DUP2 MSTORE PUSH1 0x20 DUP4 ADD MLOAD PUSH1 0x20 DUP3 ADD MSTORE PUSH1 0x40 DUP4 ADD MLOAD PUSH1 0x40 DUP3 ADD MSTORE PUSH1 0x60 DUP4 ADD MLOAD PUSH2 0x5B43 DUP2 PUSH2 0x4765 JUMP JUMPDEST PUSH1 0x60 DUP3 ADD MSTORE PUSH1 0x80 DUP4 ADD MLOAD PUSH2 0x5B56 DUP2 PUSH2 0x4969 JUMP JUMPDEST PUSH1 0x80 DUP3 ADD MSTORE PUSH1 0xA0 DUP4 ADD MLOAD PUSH2 0x5B69 DUP2 PUSH2 0x4969 JUMP JUMPDEST PUSH1 0xA0 DUP3 ADD MSTORE SWAP4 SWAP3 POP POP POP JUMP JUMPDEST DUP6 DUP2 MSTORE PUSH1 0x80 PUSH1 0x20 DUP3 ADD MSTORE PUSH1 0x0 PUSH2 0x5B8F PUSH1 0x80 DUP4 ADD DUP7 DUP9 PUSH2 0x52EB JUMP JUMPDEST PUSH1 0x40 DUP4 ADD SWAP5 SWAP1 SWAP5 MSTORE POP SWAP1 ISZERO ISZERO PUSH1 0x60 SWAP1 SWAP2 ADD MSTORE SWAP4 SWAP3 POP POP POP JUMP JUMPDEST PUSH1 0x0 DUP1 PUSH1 0x0 PUSH1 0x60 DUP5 DUP7 SUB SLT ISZERO PUSH2 0x5BBD JUMPI PUSH1 0x0 DUP1 REVERT JUMPDEST DUP4 MLOAD PUSH1 0x1 PUSH1 0x1 PUSH1 0x40 SHL SUB DUP2 GT ISZERO PUSH2 0x5BD3 JUMPI PUSH1 0x0 DUP1 REVERT JUMPDEST PUSH2 0x5BDF DUP7 DUP3 DUP8 ADD PUSH2 0x5237 JUMP JUMPDEST SWAP4 POP POP PUSH1 0x20 DUP5 ADD MLOAD SWAP2 POP PUSH1 0x40 DUP5 ADD MLOAD PUSH2 0x49C2 DUP2 PUSH2 0x4969 JUMP JUMPDEST PUSH1 0x0 PUSH1 0x20 DUP1 DUP4 DUP6 SUB SLT ISZERO PUSH2 0x5C0A JUMPI PUSH1 0x0 DUP1 REVERT JUMPDEST DUP3 MLOAD PUSH1 0x1 PUSH1 0x1 PUSH1 0x40 SHL SUB DUP2 GT ISZERO PUSH2 0x5C20 JUMPI PUSH1 0x0 DUP1 REVERT JUMPDEST DUP4 ADD PUSH1 0x1F DUP2 ADD DUP6 SGT PUSH2 0x5C31 JUMPI PUSH1 0x0 DUP1 REVERT JUMPDEST DUP1 MLOAD PUSH2 0x5C3F PUSH2 0x4C29 DUP3 PUSH2 0x50E1 JUMP JUMPDEST DUP2 DUP2 MSTORE PUSH1 0x5 SWAP2 SWAP1 SWAP2 SHL DUP3 ADD DUP4 ADD SWAP1 DUP4 DUP2 ADD SWAP1 DUP8 DUP4 GT ISZERO PUSH2 0x5C5E JUMPI PUSH1 0x0 DUP1 REVERT JUMPDEST SWAP3 DUP5 ADD SWAP3 JUMPDEST DUP3 DUP5 LT ISZERO PUSH2 0x522C JUMPI DUP4 MLOAD PUSH2 0x5C76 DUP2 PUSH2 0x4765 JUMP JUMPDEST DUP3 MSTORE SWAP3 DUP5 ADD SWAP3 SWAP1 DUP5 ADD SWAP1 PUSH2 0x5C63 JUMP JUMPDEST DUP1 CALLDATALOAD DUP3 MSTORE PUSH1 0x20 DUP2 ADD CALLDATALOAD PUSH1 0x20 DUP4 ADD MSTORE PUSH1 0x40 DUP2 ADD CALLDATALOAD PUSH1 0x40 DUP4 ADD MSTORE PUSH1 0x60 DUP2 ADD CALLDATALOAD PUSH2 0x5CAB DUP2 PUSH2 0x4765 JUMP JUMPDEST PUSH1 0x1 PUSH1 0x1 PUSH1 0xA0 SHL SUB AND PUSH1 0x60 DUP4 ADD MSTORE PUSH1 0x80 DUP2 ADD CALLDATALOAD PUSH2 0x5CC7 DUP2 PUSH2 0x4969 JUMP JUMPDEST DUP1 ISZERO ISZERO PUSH1 0x80 DUP5 ADD MSTORE POP POP POP JUMP JUMPDEST PUSH1 0x0 PUSH2 0x120 DUP9 DUP4 MSTORE PUSH1 0x20 DUP9 DUP2 DUP6 ADD MSTORE PUSH1 0x40 DUP3 DUP2 DUP7 ADD MSTORE PUSH2 0x5CF6 DUP4 DUP7 ADD DUP11 PUSH2 0x488A JUMP JUMPDEST SWAP3 POP PUSH1 0x60 PUSH2 0x5D06 DUP2 DUP8 ADD DUP11 PUSH2 0x5C85 JUMP JUMPDEST DUP6 DUP5 SUB PUSH2 0x100 DUP8 ADD MSTORE DUP7 DUP5 MSTORE DUP3 DUP5 ADD PUSH1 0x5 DUP9 SWAP1 SHL DUP6 ADD DUP5 ADD DUP10 PUSH1 0x0 DUP1 JUMPDEST DUP12 DUP2 LT ISZERO PUSH2 0x5D88 JUMPI DUP9 DUP5 SUB PUSH1 0x1F NOT ADD DUP6 MSTORE PUSH2 0x5D3E DUP4 DUP15 PUSH2 0x5790 JUMP JUMPDEST DUP1 CALLDATALOAD DUP6 MSTORE PUSH2 0x5D4E DUP10 DUP3 ADD DUP3 PUSH2 0x56FE JUMP JUMPDEST DUP9 DUP12 DUP9 ADD MSTORE PUSH2 0x5D60 DUP10 DUP9 ADD DUP3 DUP5 PUSH2 0x5746 JUMP JUMPDEST SWAP3 DUP11 ADD CALLDATALOAD SWAP3 SWAP2 POP POP PUSH1 0x3 DUP3 LT PUSH2 0x5D74 JUMPI DUP4 DUP5 REVERT JUMPDEST SWAP5 DUP9 ADD MSTORE SWAP4 DUP8 ADD SWAP4 SWAP2 DUP8 ADD SWAP2 PUSH1 0x1 ADD PUSH2 0x5D23 JUMP JUMPDEST POP SWAP2 SWAP16 SWAP15 POP POP POP POP POP POP POP POP POP POP POP POP POP POP POP JUMP JUMPDEST PUSH1 0x0 DUP1 PUSH1 0x40 DUP4 DUP6 SUB SLT ISZERO PUSH2 0x5DB0 JUMPI PUSH1 0x0 DUP1 REVERT JUMPDEST DUP3 MLOAD PUSH2 0x5DBB DUP2 PUSH2 0x4765 JUMP JUMPDEST PUSH1 0x20 DUP5 ADD MLOAD SWAP1 SWAP3 POP PUSH2 0x47D5 DUP2 PUSH2 0x4765 JUMP JUMPDEST PUSH1 0x0 PUSH2 0x100 DUP8 DUP4 MSTORE DUP1 PUSH1 0x20 DUP5 ADD MSTORE PUSH2 0x5DE6 DUP2 DUP5 ADD DUP9 PUSH2 0x488A JUMP JUMPDEST SWAP1 POP PUSH2 0x5DF5 PUSH1 0x40 DUP5 ADD DUP8 PUSH2 0x5C85 JUMP JUMPDEST DUP3 DUP2 SUB PUSH1 0xE0 DUP5 ADD MSTORE PUSH2 0x58DF DUP2 DUP6 DUP8 PUSH2 0x57AF JUMP JUMPDEST PUSH1 0x0 DUP1 PUSH1 0x40 DUP4 DUP6 SUB SLT ISZERO PUSH2 0x5E1B JUMPI PUSH1 0x0 DUP1 REVERT JUMPDEST DUP3 MLOAD SWAP2 POP PUSH1 0x20 DUP4 ADD MLOAD PUSH2 0x47D5 DUP2 PUSH2 0x4765 JUMP JUMPDEST SWAP3 DUP4 MSTORE PUSH1 0x1 PUSH1 0x1 PUSH1 0xA0 SHL SUB SWAP2 SWAP1 SWAP2 AND PUSH1 0x20 DUP4 ADD MSTORE PUSH1 0x1 PUSH1 0x1 PUSH1 0xE0 SHL SUB NOT AND PUSH1 0x40 DUP3 ADD MSTORE PUSH1 0x60 ADD SWAP1 JUMP JUMPDEST DUP2 DUP2 SUB DUP2 DUP2 GT ISZERO PUSH2 0xF3D JUMPI PUSH2 0xF3D PUSH2 0x5923 JUMP JUMPDEST PUSH1 0x0 DUP3 MLOAD PUSH2 0x5A94 DUP2 DUP5 PUSH1 0x20 DUP8 ADD PUSH2 0x4866 JUMP INVALID DIFFICULTY PUSH6 0x6C6567617465 PUSH4 0x616C6C20 PUSH10 0x735265616C6D55706772 PUSH2 0x6461 PUSH3 0x6C6520 CHAINID PUSH2 0x696C PUSH6 0x64360894A13B LOG1 LOG3 0x21 MOD PUSH8 0xC828492DB98DCA3E KECCAK256 PUSH23 0xCC3735A920A3CA505D382BBCA26469706673582212205C DUP16 SWAP2 SGT DUP9 CALL DUP7 0xD2 PUSH21 0x3E719DE9AA2B22D006CD231C294CA0FDA0D69A68BC DUP11 0x25 PUSH5 0x736F6C6343 STOP ADDMOD GT STOP CALLER 0xB5 BALANCE 0x27 PUSH9 0x4A568B3173AE13B9F8 0xA6 ADD PUSH15 0x243E63B6E8EE1178D6A717850B5D61 SUB "
    },
    "gasEstimates": {
      "creation": {
        "codeDepositCost": "4862000",
        "executionCost": "infinite",
        "totalCost": "infinite"
      },
      "external": {
        "": "231",
        "accessControlManager()": "2399",
        "addContextFuncRole(bytes32,bytes4,bytes32)": "infinite",
        "batchGrantRoleAccount((bytes32,address)[])": "infinite",
        "batchRegisterRole((bytes32,string,bool)[])": "infinite",
        "batchRevokeRoleAccount((bytes32,address)[])": "infinite",
        "contractContext()": "506",
        "contractName()": "2448",
        "contractRealm()": "2426",
        "contractVersion()": "2382",
        "domainSeparator()": "4796",
        "getContextFuncs(bytes32)": "infinite",
        "getContextInfo(bytes32)": "infinite",
        "getGroupInfo(bytes32)": "infinite",
        "getGroupRoles(bytes32)": "infinite",
        "getLibraries()": "infinite",
        "getRealmContexts(bytes32)": "infinite",
        "getRealmInfo(bytes32)": "infinite",
        "getRoleAccounts(bytes32)": "infinite",
        "getRoleInfo(bytes32)": "infinite",
        "grantContextRole(bytes32,bytes4,bytes32)": "infinite",
        "grantRoleAccount(bytes32,address)": "infinite",
        "hasAccess(bytes32,address,bytes4)": "infinite",
        "hasContextRole(bytes32,bytes32,bytes4)": "infinite",
        "hasGroupRole(bytes32,bytes32)": "infinite",
        "hasRealmContext(bytes32,bytes32)": "infinite",
        "hasRoleAccount(bytes32,address)": "infinite",
        "initVersion()": "2436",
        "initialize(string,string,string,address)": "infinite",
        "isContextEnabled(bytes32)": "infinite",
        "isContextExists(bytes32)": "infinite",
        "isContextFunctionEnabled(bytes32,bytes4)": "infinite",
        "isContextFunctionExists(bytes32,bytes4)": "infinite",
        "isContextSafeMode(bytes32)": "infinite",
        "isContextUpgradable(bytes32)": "infinite",
        "isGroupEnabled(bytes32)": "infinite",
        "isGroupExists(bytes32)": "infinite",
        "isLivelyAdminRole(address)": "infinite",
        "isLivelyAssetAdminRole(address)": "infinite",
        "isLivelyAssetGroup(bytes32)": "infinite",
        "isLivelyAssetManagerRole(address)": "infinite",
        "isLivelyAssetRealm(bytes32)": "infinite",
        "isLivelyCommunityDaoExecutorRole(address)": "infinite",
        "isLivelyCommunityDaoRole(address)": "infinite",
        "isLivelyDaoGroup(bytes32)": "infinite",
        "isLivelyGeneralGroup(bytes32)": "infinite",
        "isLivelyGeneralRealm(bytes32)": "infinite",
        "isLivelySystemAdminRole(address)": "infinite",
        "isRealmEnabled(bytes32)": "infinite",
        "isRealmExists(bytes32)": "infinite",
        "isRealmUpgradable(bytes32)": "infinite",
        "isRoleEnabled(bytes32)": "infinite",
        "isRoleExists(bytes32)": "infinite",
        "isSafeMode()": "2449",
        "isUpgradable()": "2372",
        "localAdmin()": "2555",
        "proxiableUUID()": "infinite",
        "registerContext(bytes,(bytes32,bytes32,bytes32,address,bool),(bytes32,bytes4[],bool)[])": "infinite",
        "registerGroup(string,bool)": "infinite",
        "registerPredictContext(bytes,(bytes32,bytes32,bytes32,bytes32,address,address,bool),(bytes32,bytes4[],bool)[])": "infinite",
        "registerRealm(string,bool,bool)": "infinite",
        "registerRole(string,bytes32,bool)": "infinite",
        "removeContextFunc(bytes32,bytes4)": "infinite",
        "revokeContextRole(bytes32,bytes4,bytes32)": "infinite",
        "revokeRoleAccount(bytes32,address)": "infinite",
        "setContextRealm(bytes32,bytes32)": "infinite",
        "setContextStatus(bytes32,bool)": "infinite",
        "setGroupStatus(bytes32,bool)": "infinite",
        "setLocalAdmin(address)": "infinite",
        "setRealmStatus(bytes32,bool)": "infinite",
        "setRealmUpgradeStatus(bytes32,bool)": "infinite",
        "setRoleGroup(bytes32,bytes32)": "infinite",
        "setRoleStatus(bytes32,bool)": "infinite",
        "setSafeMode(bool)": "infinite",
        "setUpgradeStatus(bool)": "infinite",
        "subjectAddress()": "infinite",
        "supportsInterface(bytes4)": "infinite",
        "updateContext(bytes32,bytes,(bytes32,bytes32,bytes32,address,bool),(bytes32,bytes4[],uint8)[])": "infinite",
        "upgradeTo(address,bytes,bool)": "infinite",
        "withdrawBalance(address)": "infinite"
      }
    },
    "methodIdentifiers": {
      "accessControlManager()": "b4a0bdf3",
      "addContextFuncRole(bytes32,bytes4,bytes32)": "031c0493",
      "batchGrantRoleAccount((bytes32,address)[])": "93ba3131",
      "batchRegisterRole((bytes32,string,bool)[])": "9e3a2cea",
      "batchRevokeRoleAccount((bytes32,address)[])": "c557020a",
      "contractContext()": "870666cb",
      "contractName()": "75d0c0dc",
      "contractRealm()": "d3e024b8",
      "contractVersion()": "a0a8e460",
      "domainSeparator()": "f698da25",
      "getContextFuncs(bytes32)": "2e2adf00",
      "getContextInfo(bytes32)": "9ebf6246",
      "getGroupInfo(bytes32)": "6b2b7dd8",
      "getGroupRoles(bytes32)": "edf1d1cb",
      "getLibraries()": "3e02bc38",
      "getRealmContexts(bytes32)": "37bfbfe8",
      "getRealmInfo(bytes32)": "3c7d5b25",
      "getRoleAccounts(bytes32)": "e1ed0a82",
      "getRoleInfo(bytes32)": "be409a11",
      "grantContextRole(bytes32,bytes4,bytes32)": "771bcf45",
      "grantRoleAccount(bytes32,address)": "8f09e0f0",
      "hasAccess(bytes32,address,bytes4)": "c7ab39e6",
      "hasContextRole(bytes32,bytes32,bytes4)": "6b3b0159",
      "hasGroupRole(bytes32,bytes32)": "f5122c92",
      "hasRealmContext(bytes32,bytes32)": "d9aba36e",
      "hasRoleAccount(bytes32,address)": "c7ea945c",
      "initVersion()": "38d38c97",
      "initialize(string,string,string,address)": "5c6d8da1",
      "isContextEnabled(bytes32)": "4944f532",
      "isContextExists(bytes32)": "8e703826",
      "isContextFunctionEnabled(bytes32,bytes4)": "b4c4b58f",
      "isContextFunctionExists(bytes32,bytes4)": "11b529b3",
      "isContextSafeMode(bytes32)": "101df54d",
      "isContextUpgradable(bytes32)": "51e70bb0",
      "isGroupEnabled(bytes32)": "3228144d",
      "isGroupExists(bytes32)": "1846d125",
      "isLivelyAdminRole(address)": "be409b57",
      "isLivelyAssetAdminRole(address)": "c34aa021",
      "isLivelyAssetGroup(bytes32)": "5bdaecce",
      "isLivelyAssetManagerRole(address)": "d9d34bf8",
      "isLivelyAssetRealm(bytes32)": "a32ce13d",
      "isLivelyCommunityDaoExecutorRole(address)": "076a6f22",
      "isLivelyCommunityDaoRole(address)": "a92f69c1",
      "isLivelyDaoGroup(bytes32)": "94cfd6e3",
      "isLivelyGeneralGroup(bytes32)": "4dc13c8f",
      "isLivelyGeneralRealm(bytes32)": "91690955",
      "isLivelySystemAdminRole(address)": "41565673",
      "isRealmEnabled(bytes32)": "c48e7ae6",
      "isRealmExists(bytes32)": "45b5203c",
      "isRealmUpgradable(bytes32)": "e25d75f0",
      "isRoleEnabled(bytes32)": "2f032edd",
      "isRoleExists(bytes32)": "dc853dd0",
      "isSafeMode()": "be22465d",
      "isUpgradable()": "5479d940",
      "localAdmin()": "f94a0adb",
      "proxiableUUID()": "52d1902d",
      "registerContext(bytes,(bytes32,bytes32,bytes32,address,bool),(bytes32,bytes4[],bool)[])": "f1df49da",
      "registerGroup(string,bool)": "3f4c99b8",
      "registerPredictContext(bytes,(bytes32,bytes32,bytes32,bytes32,address,address,bool),(bytes32,bytes4[],bool)[])": "7b443379",
      "registerRealm(string,bool,bool)": "4bb1be8c",
      "registerRole(string,bytes32,bool)": "b2dc26e5",
      "removeContextFunc(bytes32,bytes4)": "b58966de",
      "revokeContextRole(bytes32,bytes4,bytes32)": "4346a04b",
      "revokeRoleAccount(bytes32,address)": "df01de45",
      "setContextRealm(bytes32,bytes32)": "d3386401",
      "setContextStatus(bytes32,bool)": "70420ee3",
      "setGroupStatus(bytes32,bool)": "b6c03f03",
      "setLocalAdmin(address)": "d9dc1f19",
      "setRealmStatus(bytes32,bool)": "8b7dbd6c",
      "setRealmUpgradeStatus(bytes32,bool)": "f2c673bd",
      "setRoleGroup(bytes32,bytes32)": "dbf304b0",
      "setRoleStatus(bytes32,bool)": "e71e224e",
      "setSafeMode(bool)": "44b7e5f2",
      "setUpgradeStatus(bool)": "48e6be1c",
      "subjectAddress()": "58dbc45d",
      "supportsInterface(bytes4)": "01ffc9a7",
      "updateContext(bytes32,bytes,(bytes32,bytes32,bytes32,address,bool),(bytes32,bytes4[],uint8)[])": "e65be468",
      "upgradeTo(address,bytes,bool)": "7147855d",
      "withdrawBalance(address)": "756af45f"
    }
  },
  "storageLayout": {
    "storage": [
      {
        "astId": 27723,
        "contract": "src/contracts/acl/AccessControlManager.sol:AccessControlManager",
        "label": "_accessControlManager",
        "offset": 0,
        "slot": "0",
        "type": "t_address"
      },
      {
        "astId": 27725,
        "contract": "src/contracts/acl/AccessControlManager.sol:AccessControlManager",
        "label": "_domainName",
        "offset": 0,
        "slot": "1",
        "type": "t_bytes32"
      },
      {
        "astId": 27727,
        "contract": "src/contracts/acl/AccessControlManager.sol:AccessControlManager",
        "label": "_domainVersion",
        "offset": 0,
        "slot": "2",
        "type": "t_bytes32"
      },
      {
        "astId": 27729,
        "contract": "src/contracts/acl/AccessControlManager.sol:AccessControlManager",
        "label": "_domainRealm",
        "offset": 0,
        "slot": "3",
        "type": "t_bytes32"
      },
      {
        "astId": 27731,
        "contract": "src/contracts/acl/AccessControlManager.sol:AccessControlManager",
        "label": "_isSafeMode",
        "offset": 0,
        "slot": "4",
        "type": "t_bool"
      },
      {
        "astId": 27733,
        "contract": "src/contracts/acl/AccessControlManager.sol:AccessControlManager",
        "label": "_isUpgradable",
        "offset": 1,
        "slot": "4",
        "type": "t_bool"
      },
      {
        "astId": 27738,
        "contract": "src/contracts/acl/AccessControlManager.sol:AccessControlManager",
        "label": "__gap",
        "offset": 0,
        "slot": "5",
        "type": "t_array(t_uint256)64_storage"
      },
      {
        "astId": 9704,
        "contract": "src/contracts/acl/AccessControlManager.sol:AccessControlManager",
        "label": "_dataMaps",
        "offset": 0,
        "slot": "69",
        "type": "t_struct(DataMaps)9701_storage"
      },
      {
        "astId": 27906,
        "contract": "src/contracts/acl/AccessControlManager.sol:AccessControlManager",
        "label": "_initialized",
        "offset": 0,
        "slot": "74",
        "type": "t_uint16"
      },
      {
        "astId": 27909,
        "contract": "src/contracts/acl/AccessControlManager.sol:AccessControlManager",
        "label": "_initializing",
        "offset": 2,
        "slot": "74",
        "type": "t_bool"
      }
    ],
    "types": {
      "t_address": {
        "encoding": "inplace",
        "label": "address",
        "numberOfBytes": "20"
      },
      "t_array(t_bytes32)dyn_storage": {
        "base": "t_bytes32",
        "encoding": "dynamic_array",
        "label": "bytes32[]",
        "numberOfBytes": "32"
      },
      "t_array(t_uint256)64_storage": {
        "base": "t_uint256",
        "encoding": "inplace",
        "label": "uint256[64]",
        "numberOfBytes": "2048"
      },
      "t_bool": {
        "encoding": "inplace",
        "label": "bool",
        "numberOfBytes": "1"
      },
      "t_bytes32": {
        "encoding": "inplace",
        "label": "bytes32",
        "numberOfBytes": "32"
      },
      "t_bytes4": {
        "encoding": "inplace",
        "label": "bytes4",
        "numberOfBytes": "4"
      },
      "t_enum(Status)9624": {
        "encoding": "inplace",
        "label": "enum AccessControlStorage.Status",
        "numberOfBytes": "1"
      },
      "t_mapping(t_address,t_mapping(t_bytes32,t_enum(Status)9624))": {
        "encoding": "mapping",
        "key": "t_address",
        "label": "mapping(address => mapping(bytes32 => enum AccessControlStorage.Status))",
        "numberOfBytes": "32",
        "value": "t_mapping(t_bytes32,t_enum(Status)9624)"
      },
      "t_mapping(t_bytes32,t_enum(Status)9624)": {
        "encoding": "mapping",
        "key": "t_bytes32",
        "label": "mapping(bytes32 => enum AccessControlStorage.Status)",
        "numberOfBytes": "32",
        "value": "t_enum(Status)9624"
      },
      "t_mapping(t_bytes32,t_struct(Context)9645_storage)": {
        "encoding": "mapping",
        "key": "t_bytes32",
        "label": "mapping(bytes32 => struct AccessControlStorage.Context)",
        "numberOfBytes": "32",
        "value": "t_struct(Context)9645_storage"
      },
      "t_mapping(t_bytes32,t_struct(Group)9673_storage)": {
        "encoding": "mapping",
        "key": "t_bytes32",
        "label": "mapping(bytes32 => struct AccessControlStorage.Group)",
        "numberOfBytes": "32",
        "value": "t_struct(Group)9673_storage"
      },
      "t_mapping(t_bytes32,t_struct(Realm)9665_storage)": {
        "encoding": "mapping",
        "key": "t_bytes32",
        "label": "mapping(bytes32 => struct AccessControlStorage.Realm)",
        "numberOfBytes": "32",
        "value": "t_struct(Realm)9665_storage"
      },
      "t_mapping(t_bytes32,t_struct(Role)9655_storage)": {
        "encoding": "mapping",
        "key": "t_bytes32",
        "label": "mapping(bytes32 => struct AccessControlStorage.Role)",
        "numberOfBytes": "32",
        "value": "t_struct(Role)9655_storage"
      },
      "t_mapping(t_bytes32,t_uint256)": {
        "encoding": "mapping",
        "key": "t_bytes32",
        "label": "mapping(bytes32 => uint256)",
        "numberOfBytes": "32",
        "value": "t_uint256"
      },
      "t_mapping(t_bytes4,t_struct(RoleStat)9630_storage)": {
        "encoding": "mapping",
        "key": "t_bytes4",
        "label": "mapping(bytes4 => struct AccessControlStorage.RoleStat)",
        "numberOfBytes": "32",
        "value": "t_struct(RoleStat)9630_storage"
      },
      "t_string_storage": {
        "encoding": "bytes",
        "label": "string",
        "numberOfBytes": "32"
      },
      "t_struct(AddressSet)23683_storage": {
        "encoding": "inplace",
        "label": "struct LEnumerableSet.AddressSet",
        "members": [
          {
            "astId": 23682,
            "contract": "src/contracts/acl/AccessControlManager.sol:AccessControlManager",
            "label": "_inner",
            "offset": 0,
            "slot": "0",
            "type": "t_struct(Set)23382_storage"
          }
        ],
        "numberOfBytes": "64"
      },
      "t_struct(Bytes32Set)23576_storage": {
        "encoding": "inplace",
        "label": "struct LEnumerableSet.Bytes32Set",
        "members": [
          {
            "astId": 23575,
            "contract": "src/contracts/acl/AccessControlManager.sol:AccessControlManager",
            "label": "_inner",
            "offset": 0,
            "slot": "0",
            "type": "t_struct(Set)23382_storage"
          }
        ],
        "numberOfBytes": "64"
      },
      "t_struct(Context)9645_storage": {
        "encoding": "inplace",
        "label": "struct AccessControlStorage.Context",
        "members": [
          {
            "astId": 9632,
            "contract": "src/contracts/acl/AccessControlManager.sol:AccessControlManager",
            "label": "realm",
            "offset": 0,
            "slot": "0",
            "type": "t_bytes32"
          },
          {
            "astId": 9634,
            "contract": "src/contracts/acl/AccessControlManager.sol:AccessControlManager",
            "label": "contractId",
            "offset": 0,
            "slot": "1",
            "type": "t_address"
          },
          {
            "astId": 9636,
            "contract": "src/contracts/acl/AccessControlManager.sol:AccessControlManager",
            "label": "isEnabled",
            "offset": 20,
            "slot": "1",
            "type": "t_bool"
          },
          {
            "astId": 9641,
            "contract": "src/contracts/acl/AccessControlManager.sol:AccessControlManager",
            "label": "resources",
            "offset": 0,
            "slot": "2",
            "type": "t_mapping(t_bytes4,t_struct(RoleStat)9630_storage)"
          },
          {
            "astId": 9644,
            "contract": "src/contracts/acl/AccessControlManager.sol:AccessControlManager",
            "label": "funcSet",
            "offset": 0,
            "slot": "3",
            "type": "t_struct(Bytes32Set)23576_storage"
          }
        ],
        "numberOfBytes": "160"
      },
      "t_struct(DataMaps)9701_storage": {
        "encoding": "inplace",
        "label": "struct AccessControlStorage.DataMaps",
        "members": [
          {
            "astId": 9680,
            "contract": "src/contracts/acl/AccessControlManager.sol:AccessControlManager",
            "label": "accountMap",
            "offset": 0,
            "slot": "0",
            "type": "t_mapping(t_address,t_mapping(t_bytes32,t_enum(Status)9624))"
          },
          {
            "astId": 9685,
            "contract": "src/contracts/acl/AccessControlManager.sol:AccessControlManager",
            "label": "ctxMap",
            "offset": 0,
            "slot": "1",
            "type": "t_mapping(t_bytes32,t_struct(Context)9645_storage)"
          },
          {
            "astId": 9690,
            "contract": "src/contracts/acl/AccessControlManager.sol:AccessControlManager",
            "label": "roleMap",
            "offset": 0,
            "slot": "2",
            "type": "t_mapping(t_bytes32,t_struct(Role)9655_storage)"
          },
          {
            "astId": 9695,
            "contract": "src/contracts/acl/AccessControlManager.sol:AccessControlManager",
            "label": "realmMap",
            "offset": 0,
            "slot": "3",
            "type": "t_mapping(t_bytes32,t_struct(Realm)9665_storage)"
          },
          {
            "astId": 9700,
            "contract": "src/contracts/acl/AccessControlManager.sol:AccessControlManager",
            "label": "groupMap",
            "offset": 0,
            "slot": "4",
            "type": "t_mapping(t_bytes32,t_struct(Group)9673_storage)"
          }
        ],
        "numberOfBytes": "160"
      },
      "t_struct(Group)9673_storage": {
        "encoding": "inplace",
        "label": "struct AccessControlStorage.Group",
        "members": [
          {
            "astId": 9667,
            "contract": "src/contracts/acl/AccessControlManager.sol:AccessControlManager",
            "label": "name",
            "offset": 0,
            "slot": "0",
            "type": "t_string_storage"
          },
          {
            "astId": 9669,
            "contract": "src/contracts/acl/AccessControlManager.sol:AccessControlManager",
            "label": "isEnabled",
            "offset": 0,
            "slot": "1",
            "type": "t_bool"
          },
          {
            "astId": 9672,
            "contract": "src/contracts/acl/AccessControlManager.sol:AccessControlManager",
            "label": "roleSet",
            "offset": 0,
            "slot": "2",
            "type": "t_struct(Bytes32Set)23576_storage"
          }
        ],
        "numberOfBytes": "128"
      },
      "t_struct(Realm)9665_storage": {
        "encoding": "inplace",
        "label": "struct AccessControlStorage.Realm",
        "members": [
          {
            "astId": 9657,
            "contract": "src/contracts/acl/AccessControlManager.sol:AccessControlManager",
            "label": "name",
            "offset": 0,
            "slot": "0",
            "type": "t_string_storage"
          },
          {
            "astId": 9659,
            "contract": "src/contracts/acl/AccessControlManager.sol:AccessControlManager",
            "label": "isEnabled",
            "offset": 0,
            "slot": "1",
            "type": "t_bool"
          },
          {
            "astId": 9661,
            "contract": "src/contracts/acl/AccessControlManager.sol:AccessControlManager",
            "label": "isUpgradable",
            "offset": 1,
            "slot": "1",
            "type": "t_bool"
          },
          {
            "astId": 9664,
            "contract": "src/contracts/acl/AccessControlManager.sol:AccessControlManager",
            "label": "ctxSet",
            "offset": 0,
            "slot": "2",
            "type": "t_struct(Bytes32Set)23576_storage"
          }
        ],
        "numberOfBytes": "128"
      },
      "t_struct(Role)9655_storage": {
        "encoding": "inplace",
        "label": "struct AccessControlStorage.Role",
        "members": [
          {
            "astId": 9647,
            "contract": "src/contracts/acl/AccessControlManager.sol:AccessControlManager",
            "label": "name",
            "offset": 0,
            "slot": "0",
            "type": "t_string_storage"
          },
          {
            "astId": 9649,
            "contract": "src/contracts/acl/AccessControlManager.sol:AccessControlManager",
            "label": "group",
            "offset": 0,
            "slot": "1",
            "type": "t_bytes32"
          },
          {
            "astId": 9651,
            "contract": "src/contracts/acl/AccessControlManager.sol:AccessControlManager",
            "label": "isEnabled",
            "offset": 0,
            "slot": "2",
            "type": "t_bool"
          },
          {
            "astId": 9654,
            "contract": "src/contracts/acl/AccessControlManager.sol:AccessControlManager",
            "label": "accountSet",
            "offset": 0,
            "slot": "3",
            "type": "t_struct(AddressSet)23683_storage"
          }
        ],
        "numberOfBytes": "160"
      },
      "t_struct(RoleStat)9630_storage": {
        "encoding": "inplace",
        "label": "struct AccessControlStorage.RoleStat",
        "members": [
          {
            "astId": 9626,
            "contract": "src/contracts/acl/AccessControlManager.sol:AccessControlManager",
            "label": "role",
            "offset": 0,
            "slot": "0",
            "type": "t_bytes32"
          },
          {
            "astId": 9629,
            "contract": "src/contracts/acl/AccessControlManager.sol:AccessControlManager",
            "label": "status",
            "offset": 0,
            "slot": "1",
            "type": "t_enum(Status)9624"
          }
        ],
        "numberOfBytes": "64"
      },
      "t_struct(Set)23382_storage": {
        "encoding": "inplace",
        "label": "struct LEnumerableSet.Set",
        "members": [
          {
            "astId": 23377,
            "contract": "src/contracts/acl/AccessControlManager.sol:AccessControlManager",
            "label": "_values",
            "offset": 0,
            "slot": "0",
            "type": "t_array(t_bytes32)dyn_storage"
          },
          {
            "astId": 23381,
            "contract": "src/contracts/acl/AccessControlManager.sol:AccessControlManager",
            "label": "_indexes",
            "offset": 0,
            "slot": "1",
            "type": "t_mapping(t_bytes32,t_uint256)"
          }
        ],
        "numberOfBytes": "64"
      },
      "t_uint16": {
        "encoding": "inplace",
        "label": "uint16",
        "numberOfBytes": "2"
      },
      "t_uint256": {
        "encoding": "inplace",
        "label": "uint256",
        "numberOfBytes": "32"
      }
    }
  },
  "userdoc": {
    "kind": "user",
    "methods": {},
    "version": 1
  }
}