{
  "contractName": "AccessControlManager",
  "sourceName": "src/contracts/acl/AccessControlManager.sol",
  "abi": [
    {
      "inputs": [],
      "stateMutability": "nonpayable",
      "type": "constructor"
    },
    {
      "anonymous": false,
      "inputs": [
        {
          "indexed": true,
          "internalType": "bytes32",
          "name": "context",
          "type": "bytes32"
        },
        {
          "indexed": true,
          "internalType": "address",
          "name": "sender",
          "type": "address"
        },
        {
          "indexed": false,
          "internalType": "bytes4",
          "name": "functionSelector",
          "type": "bytes4"
        },
        {
          "indexed": false,
          "internalType": "bytes32",
          "name": "realm",
          "type": "bytes32"
        }
      ],
      "name": "ContextFuncRemoved",
      "type": "event"
    },
    {
      "anonymous": false,
      "inputs": [
        {
          "indexed": true,
          "internalType": "bytes32",
          "name": "context",
          "type": "bytes32"
        },
        {
          "indexed": true,
          "internalType": "bytes32",
          "name": "role",
          "type": "bytes32"
        },
        {
          "indexed": true,
          "internalType": "address",
          "name": "sender",
          "type": "address"
        },
        {
          "indexed": false,
          "internalType": "bytes4",
          "name": "functionSelector",
          "type": "bytes4"
        },
        {
          "indexed": false,
          "internalType": "bytes32",
          "name": "realm",
          "type": "bytes32"
        }
      ],
      "name": "ContextFuncRoleAdded",
      "type": "event"
    },
    {
      "anonymous": false,
      "inputs": [
        {
          "indexed": true,
          "internalType": "bytes32",
          "name": "context",
          "type": "bytes32"
        },
        {
          "indexed": true,
          "internalType": "address",
          "name": "sender",
          "type": "address"
        },
        {
          "indexed": true,
          "internalType": "bytes32",
          "name": "realm",
          "type": "bytes32"
        },
        {
          "indexed": false,
          "internalType": "bytes32",
          "name": "oldRealm",
          "type": "bytes32"
        }
      ],
      "name": "ContextRealmChanged",
      "type": "event"
    },
    {
      "anonymous": false,
      "inputs": [
        {
          "indexed": true,
          "internalType": "bytes32",
          "name": "context",
          "type": "bytes32"
        },
        {
          "indexed": true,
          "internalType": "address",
          "name": "contractId",
          "type": "address"
        },
        {
          "indexed": true,
          "internalType": "address",
          "name": "sender",
          "type": "address"
        },
        {
          "indexed": false,
          "internalType": "address",
          "name": "signer",
          "type": "address"
        },
        {
          "indexed": false,
          "internalType": "bytes32",
          "name": "realm",
          "type": "bytes32"
        }
      ],
      "name": "ContextRegistered",
      "type": "event"
    },
    {
      "anonymous": false,
      "inputs": [
        {
          "indexed": true,
          "internalType": "bytes32",
          "name": "context",
          "type": "bytes32"
        },
        {
          "indexed": true,
          "internalType": "bytes32",
          "name": "role",
          "type": "bytes32"
        },
        {
          "indexed": true,
          "internalType": "address",
          "name": "sender",
          "type": "address"
        },
        {
          "indexed": false,
          "internalType": "bytes4",
          "name": "functionSelector",
          "type": "bytes4"
        },
        {
          "indexed": false,
          "internalType": "bytes32",
          "name": "realm",
          "type": "bytes32"
        }
      ],
      "name": "ContextRoleGranted",
      "type": "event"
    },
    {
      "anonymous": false,
      "inputs": [
        {
          "indexed": true,
          "internalType": "bytes32",
          "name": "context",
          "type": "bytes32"
        },
        {
          "indexed": true,
          "internalType": "bytes32",
          "name": "role",
          "type": "bytes32"
        },
        {
          "indexed": true,
          "internalType": "address",
          "name": "sender",
          "type": "address"
        },
        {
          "indexed": false,
          "internalType": "bytes4",
          "name": "functionSelector",
          "type": "bytes4"
        },
        {
          "indexed": false,
          "internalType": "bytes32",
          "name": "realm",
          "type": "bytes32"
        }
      ],
      "name": "ContextRoleRevoked",
      "type": "event"
    },
    {
      "anonymous": false,
      "inputs": [
        {
          "indexed": true,
          "internalType": "bytes32",
          "name": "context",
          "type": "bytes32"
        },
        {
          "indexed": true,
          "internalType": "address",
          "name": "sender",
          "type": "address"
        },
        {
          "indexed": true,
          "internalType": "bytes32",
          "name": "realm",
          "type": "bytes32"
        },
        {
          "indexed": false,
          "internalType": "bool",
          "name": "status",
          "type": "bool"
        }
      ],
      "name": "ContextStatusChanged",
      "type": "event"
    },
    {
      "anonymous": false,
      "inputs": [
        {
          "indexed": true,
          "internalType": "bytes32",
          "name": "context",
          "type": "bytes32"
        },
        {
          "indexed": true,
          "internalType": "address",
          "name": "contractId",
          "type": "address"
        },
        {
          "indexed": true,
          "internalType": "address",
          "name": "sender",
          "type": "address"
        },
        {
          "indexed": false,
          "internalType": "bytes32",
          "name": "realm",
          "type": "bytes32"
        }
      ],
      "name": "ContextUpdated",
      "type": "event"
    },
    {
      "anonymous": false,
      "inputs": [
        {
          "indexed": true,
          "internalType": "bytes32",
          "name": "group",
          "type": "bytes32"
        },
        {
          "indexed": true,
          "internalType": "address",
          "name": "sender",
          "type": "address"
        },
        {
          "indexed": false,
          "internalType": "string",
          "name": "name",
          "type": "string"
        },
        {
          "indexed": false,
          "internalType": "bool",
          "name": "status",
          "type": "bool"
        }
      ],
      "name": "GroupRegistered",
      "type": "event"
    },
    {
      "anonymous": false,
      "inputs": [
        {
          "indexed": true,
          "internalType": "bytes32",
          "name": "group",
          "type": "bytes32"
        },
        {
          "indexed": true,
          "internalType": "address",
          "name": "sender",
          "type": "address"
        },
        {
          "indexed": false,
          "internalType": "bool",
          "name": "status",
          "type": "bool"
        }
      ],
      "name": "GroupStatusChanged",
      "type": "event"
    },
    {
      "anonymous": false,
      "inputs": [
        {
          "indexed": true,
          "internalType": "address",
          "name": "sender",
          "type": "address"
        },
        {
          "indexed": true,
          "internalType": "address",
          "name": "proxy",
          "type": "address"
        },
        {
          "indexed": true,
          "internalType": "address",
          "name": "subject",
          "type": "address"
        },
        {
          "indexed": false,
          "internalType": "string",
          "name": "name",
          "type": "string"
        },
        {
          "indexed": false,
          "internalType": "string",
          "name": "version",
          "type": "string"
        },
        {
          "indexed": false,
          "internalType": "bytes32",
          "name": "realm",
          "type": "bytes32"
        },
        {
          "indexed": false,
          "internalType": "uint16",
          "name": "initCount",
          "type": "uint16"
        }
      ],
      "name": "Initialized",
      "type": "event"
    },
    {
      "anonymous": false,
      "inputs": [
        {
          "indexed": true,
          "internalType": "address",
          "name": "sender",
          "type": "address"
        },
        {
          "indexed": true,
          "internalType": "address",
          "name": "proxy",
          "type": "address"
        },
        {
          "indexed": false,
          "internalType": "address",
          "name": "newAdmin",
          "type": "address"
        }
      ],
      "name": "LocalAdminChanged",
      "type": "event"
    },
    {
      "anonymous": false,
      "inputs": [
        {
          "indexed": true,
          "internalType": "bytes32",
          "name": "context",
          "type": "bytes32"
        },
        {
          "indexed": true,
          "internalType": "address",
          "name": "contractId",
          "type": "address"
        },
        {
          "indexed": true,
          "internalType": "address",
          "name": "sender",
          "type": "address"
        },
        {
          "indexed": false,
          "internalType": "address",
          "name": "signer",
          "type": "address"
        },
        {
          "indexed": false,
          "internalType": "address",
          "name": "deployer",
          "type": "address"
        },
        {
          "indexed": false,
          "internalType": "address",
          "name": "subject",
          "type": "address"
        },
        {
          "indexed": false,
          "internalType": "bytes32",
          "name": "realm",
          "type": "bytes32"
        }
      ],
      "name": "PredictContextRegistered",
      "type": "event"
    },
    {
      "anonymous": false,
      "inputs": [
        {
          "indexed": true,
          "internalType": "bytes32",
          "name": "realm",
          "type": "bytes32"
        },
        {
          "indexed": true,
          "internalType": "address",
          "name": "sender",
          "type": "address"
        },
        {
          "indexed": false,
          "internalType": "string",
          "name": "name",
          "type": "string"
        },
        {
          "indexed": false,
          "internalType": "bool",
          "name": "status",
          "type": "bool"
        },
        {
          "indexed": false,
          "internalType": "bool",
          "name": "isUpgradable",
          "type": "bool"
        }
      ],
      "name": "RealmRegistered",
      "type": "event"
    },
    {
      "anonymous": false,
      "inputs": [
        {
          "indexed": true,
          "internalType": "bytes32",
          "name": "realm",
          "type": "bytes32"
        },
        {
          "indexed": true,
          "internalType": "address",
          "name": "sender",
          "type": "address"
        },
        {
          "indexed": false,
          "internalType": "bool",
          "name": "status",
          "type": "bool"
        }
      ],
      "name": "RealmStatusChanged",
      "type": "event"
    },
    {
      "anonymous": false,
      "inputs": [
        {
          "indexed": true,
          "internalType": "bytes32",
          "name": "realm",
          "type": "bytes32"
        },
        {
          "indexed": true,
          "internalType": "address",
          "name": "sender",
          "type": "address"
        },
        {
          "indexed": false,
          "internalType": "bool",
          "name": "status",
          "type": "bool"
        }
      ],
      "name": "RealmUpgradeStatusChanged",
      "type": "event"
    },
    {
      "anonymous": false,
      "inputs": [
        {
          "indexed": true,
          "internalType": "address",
          "name": "sender",
          "type": "address"
        },
        {
          "indexed": true,
          "internalType": "bytes32",
          "name": "role",
          "type": "bytes32"
        },
        {
          "indexed": true,
          "internalType": "address",
          "name": "account",
          "type": "address"
        }
      ],
      "name": "RoleAccountGranted",
      "type": "event"
    },
    {
      "anonymous": false,
      "inputs": [
        {
          "indexed": true,
          "internalType": "address",
          "name": "sender",
          "type": "address"
        },
        {
          "indexed": true,
          "internalType": "bytes32",
          "name": "role",
          "type": "bytes32"
        },
        {
          "indexed": true,
          "internalType": "address",
          "name": "account",
          "type": "address"
        }
      ],
      "name": "RoleAccountRevoked",
      "type": "event"
    },
    {
      "anonymous": false,
      "inputs": [
        {
          "indexed": true,
          "internalType": "address",
          "name": "sender",
          "type": "address"
        },
        {
          "indexed": true,
          "internalType": "bytes32",
          "name": "role",
          "type": "bytes32"
        },
        {
          "indexed": true,
          "internalType": "bytes32",
          "name": "newGroup",
          "type": "bytes32"
        },
        {
          "indexed": false,
          "internalType": "bytes32",
          "name": "oldGroup",
          "type": "bytes32"
        }
      ],
      "name": "RoleGroupChanged",
      "type": "event"
    },
    {
      "anonymous": false,
      "inputs": [
        {
          "indexed": true,
          "internalType": "address",
          "name": "sender",
          "type": "address"
        },
        {
          "indexed": true,
          "internalType": "bytes32",
          "name": "role",
          "type": "bytes32"
        },
        {
          "indexed": true,
          "internalType": "string",
          "name": "name",
          "type": "string"
        },
        {
          "indexed": false,
          "internalType": "bytes32",
          "name": "group",
          "type": "bytes32"
        },
        {
          "indexed": false,
          "internalType": "bool",
          "name": "isEnabled",
          "type": "bool"
        }
      ],
      "name": "RoleRegistered",
      "type": "event"
    },
    {
      "anonymous": false,
      "inputs": [
        {
          "indexed": true,
          "internalType": "address",
          "name": "sender",
          "type": "address"
        },
        {
          "indexed": true,
          "internalType": "bytes32",
          "name": "role",
          "type": "bytes32"
        },
        {
          "indexed": true,
          "internalType": "bytes32",
          "name": "group",
          "type": "bytes32"
        },
        {
          "indexed": false,
          "internalType": "bool",
          "name": "status",
          "type": "bool"
        }
      ],
      "name": "RoleStatusChanged",
      "type": "event"
    },
    {
      "anonymous": false,
      "inputs": [
        {
          "indexed": true,
          "internalType": "address",
          "name": "sender",
          "type": "address"
        },
        {
          "indexed": true,
          "internalType": "address",
          "name": "proxy",
          "type": "address"
        },
        {
          "indexed": true,
          "internalType": "bytes32",
          "name": "realm",
          "type": "bytes32"
        },
        {
          "indexed": false,
          "internalType": "bool",
          "name": "status",
          "type": "bool"
        }
      ],
      "name": "SafeModeChanged",
      "type": "event"
    },
    {
      "anonymous": false,
      "inputs": [
        {
          "indexed": true,
          "internalType": "address",
          "name": "sender",
          "type": "address"
        },
        {
          "indexed": true,
          "internalType": "address",
          "name": "proxy",
          "type": "address"
        },
        {
          "indexed": true,
          "internalType": "bytes32",
          "name": "realm",
          "type": "bytes32"
        },
        {
          "indexed": false,
          "internalType": "bool",
          "name": "status",
          "type": "bool"
        }
      ],
      "name": "UpgradeStatusChanged",
      "type": "event"
    },
    {
      "anonymous": false,
      "inputs": [
        {
          "indexed": true,
          "internalType": "address",
          "name": "sender",
          "type": "address"
        },
        {
          "indexed": true,
          "internalType": "address",
          "name": "proxy",
          "type": "address"
        },
        {
          "indexed": true,
          "internalType": "address",
          "name": "newImplementation",
          "type": "address"
        }
      ],
      "name": "Upgraded",
      "type": "event"
    },
    {
      "stateMutability": "payable",
      "type": "fallback"
    },
    {
      "inputs": [],
      "name": "accessControlManager",
      "outputs": [
        {
          "internalType": "address",
          "name": "",
          "type": "address"
        }
      ],
      "stateMutability": "view",
      "type": "function"
    },
    {
      "inputs": [
        {
          "internalType": "bytes32",
          "name": "ctx",
          "type": "bytes32"
        },
        {
          "internalType": "bytes4",
          "name": "functionSelector",
          "type": "bytes4"
        },
        {
          "internalType": "bytes32",
          "name": "role",
          "type": "bytes32"
        }
      ],
      "name": "addContextFuncRole",
      "outputs": [
        {
          "internalType": "bool",
          "name": "",
          "type": "bool"
        }
      ],
      "stateMutability": "nonpayable",
      "type": "function"
    },
    {
      "inputs": [
        {
          "components": [
            {
              "internalType": "bytes32",
              "name": "role",
              "type": "bytes32"
            },
            {
              "internalType": "address",
              "name": "account",
              "type": "address"
            }
          ],
          "internalType": "struct IRoleManagement.UpdateRoleRequest[]",
          "name": "requests",
          "type": "tuple[]"
        }
      ],
      "name": "batchGrantRoleAccount",
      "outputs": [
        {
          "internalType": "bool",
          "name": "",
          "type": "bool"
        }
      ],
      "stateMutability": "nonpayable",
      "type": "function"
    },
    {
      "inputs": [
        {
          "components": [
            {
              "internalType": "bytes32",
              "name": "group",
              "type": "bytes32"
            },
            {
              "internalType": "string",
              "name": "name",
              "type": "string"
            },
            {
              "internalType": "bool",
              "name": "status",
              "type": "bool"
            }
          ],
          "internalType": "struct IRoleManagement.RegiterRoleRequest[]",
          "name": "requests",
          "type": "tuple[]"
        }
      ],
      "name": "batchRegisterRole",
      "outputs": [
        {
          "internalType": "bytes32[]",
          "name": "",
          "type": "bytes32[]"
        }
      ],
      "stateMutability": "nonpayable",
      "type": "function"
    },
    {
      "inputs": [
        {
          "components": [
            {
              "internalType": "bytes32",
              "name": "role",
              "type": "bytes32"
            },
            {
              "internalType": "address",
              "name": "account",
              "type": "address"
            }
          ],
          "internalType": "struct IRoleManagement.UpdateRoleRequest[]",
          "name": "requests",
          "type": "tuple[]"
        }
      ],
      "name": "batchRevokeRoleAccount",
      "outputs": [
        {
          "internalType": "bool",
          "name": "",
          "type": "bool"
        }
      ],
      "stateMutability": "nonpayable",
      "type": "function"
    },
    {
      "inputs": [],
      "name": "contractContext",
      "outputs": [
        {
          "internalType": "bytes32",
          "name": "",
          "type": "bytes32"
        }
      ],
      "stateMutability": "view",
      "type": "function"
    },
    {
      "inputs": [],
      "name": "contractName",
      "outputs": [
        {
          "internalType": "bytes32",
          "name": "",
          "type": "bytes32"
        }
      ],
      "stateMutability": "view",
      "type": "function"
    },
    {
      "inputs": [],
      "name": "contractRealm",
      "outputs": [
        {
          "internalType": "bytes32",
          "name": "",
          "type": "bytes32"
        }
      ],
      "stateMutability": "view",
      "type": "function"
    },
    {
      "inputs": [],
      "name": "contractVersion",
      "outputs": [
        {
          "internalType": "bytes32",
          "name": "",
          "type": "bytes32"
        }
      ],
      "stateMutability": "view",
      "type": "function"
    },
    {
      "inputs": [],
      "name": "domainSeparator",
      "outputs": [
        {
          "internalType": "bytes32",
          "name": "",
          "type": "bytes32"
        }
      ],
      "stateMutability": "view",
      "type": "function"
    },
    {
      "inputs": [
        {
          "internalType": "bytes32",
          "name": "ctx",
          "type": "bytes32"
        }
      ],
      "name": "getContextFuncs",
      "outputs": [
        {
          "internalType": "bytes4[]",
          "name": "",
          "type": "bytes4[]"
        }
      ],
      "stateMutability": "view",
      "type": "function"
    },
    {
      "inputs": [
        {
          "internalType": "bytes32",
          "name": "ctx",
          "type": "bytes32"
        }
      ],
      "name": "getContextInfo",
      "outputs": [
        {
          "components": [
            {
              "internalType": "bytes32",
              "name": "name",
              "type": "bytes32"
            },
            {
              "internalType": "bytes32",
              "name": "version",
              "type": "bytes32"
            },
            {
              "internalType": "bytes32",
              "name": "realm",
              "type": "bytes32"
            },
            {
              "internalType": "address",
              "name": "contractId",
              "type": "address"
            },
            {
              "internalType": "bool",
              "name": "isSafeMode",
              "type": "bool"
            },
            {
              "internalType": "bool",
              "name": "isUpgradable",
              "type": "bool"
            }
          ],
          "internalType": "struct IContextManagement.ResponseContext",
          "name": "",
          "type": "tuple"
        }
      ],
      "stateMutability": "view",
      "type": "function"
    },
    {
      "inputs": [
        {
          "internalType": "bytes32",
          "name": "group",
          "type": "bytes32"
        }
      ],
      "name": "getGroupInfo",
      "outputs": [
        {
          "internalType": "string",
          "name": "",
          "type": "string"
        },
        {
          "internalType": "bool",
          "name": "",
          "type": "bool"
        }
      ],
      "stateMutability": "view",
      "type": "function"
    },
    {
      "inputs": [
        {
          "internalType": "bytes32",
          "name": "group",
          "type": "bytes32"
        }
      ],
      "name": "getGroupRoles",
      "outputs": [
        {
          "internalType": "bytes32[]",
          "name": "",
          "type": "bytes32[]"
        }
      ],
      "stateMutability": "view",
      "type": "function"
    },
    {
      "inputs": [],
      "name": "getLibraries",
      "outputs": [
        {
          "internalType": "address[]",
          "name": "",
          "type": "address[]"
        }
      ],
      "stateMutability": "pure",
      "type": "function"
    },
    {
      "inputs": [
        {
          "internalType": "bytes32",
          "name": "realm",
          "type": "bytes32"
        }
      ],
      "name": "getRealmContexts",
      "outputs": [
        {
          "internalType": "bytes32[]",
          "name": "",
          "type": "bytes32[]"
        }
      ],
      "stateMutability": "view",
      "type": "function"
    },
    {
      "inputs": [
        {
          "internalType": "bytes32",
          "name": "realm",
          "type": "bytes32"
        }
      ],
      "name": "getRealmInfo",
      "outputs": [
        {
          "internalType": "string",
          "name": "",
          "type": "string"
        },
        {
          "internalType": "bool",
          "name": "",
          "type": "bool"
        },
        {
          "internalType": "bool",
          "name": "",
          "type": "bool"
        }
      ],
      "stateMutability": "view",
      "type": "function"
    },
    {
      "inputs": [
        {
          "internalType": "bytes32",
          "name": "role",
          "type": "bytes32"
        }
      ],
      "name": "getRoleAccounts",
      "outputs": [
        {
          "internalType": "address[]",
          "name": "",
          "type": "address[]"
        }
      ],
      "stateMutability": "view",
      "type": "function"
    },
    {
      "inputs": [
        {
          "internalType": "bytes32",
          "name": "role",
          "type": "bytes32"
        }
      ],
      "name": "getRoleInfo",
      "outputs": [
        {
          "internalType": "string",
          "name": "",
          "type": "string"
        },
        {
          "internalType": "bytes32",
          "name": "",
          "type": "bytes32"
        },
        {
          "internalType": "bool",
          "name": "",
          "type": "bool"
        }
      ],
      "stateMutability": "view",
      "type": "function"
    },
    {
      "inputs": [
        {
          "internalType": "bytes32",
          "name": "ctx",
          "type": "bytes32"
        },
        {
          "internalType": "bytes4",
          "name": "functionSelector",
          "type": "bytes4"
        },
        {
          "internalType": "bytes32",
          "name": "role",
          "type": "bytes32"
        }
      ],
      "name": "grantContextRole",
      "outputs": [
        {
          "internalType": "bool",
          "name": "",
          "type": "bool"
        }
      ],
      "stateMutability": "nonpayable",
      "type": "function"
    },
    {
      "inputs": [
        {
          "internalType": "bytes32",
          "name": "role",
          "type": "bytes32"
        },
        {
          "internalType": "address",
          "name": "account",
          "type": "address"
        }
      ],
      "name": "grantRoleAccount",
      "outputs": [
        {
          "internalType": "bool",
          "name": "",
          "type": "bool"
        }
      ],
      "stateMutability": "nonpayable",
      "type": "function"
    },
    {
      "inputs": [
        {
          "internalType": "bytes32",
          "name": "context",
          "type": "bytes32"
        },
        {
          "internalType": "address",
          "name": "account",
          "type": "address"
        },
        {
          "internalType": "bytes4",
          "name": "signature",
          "type": "bytes4"
        }
      ],
      "name": "hasAccess",
      "outputs": [
        {
          "internalType": "bool",
          "name": "",
          "type": "bool"
        }
      ],
      "stateMutability": "view",
      "type": "function"
    },
    {
      "inputs": [
        {
          "internalType": "bytes32",
          "name": "ctx",
          "type": "bytes32"
        },
        {
          "internalType": "bytes32",
          "name": "role",
          "type": "bytes32"
        },
        {
          "internalType": "bytes4",
          "name": "functionSelector",
          "type": "bytes4"
        }
      ],
      "name": "hasContextRole",
      "outputs": [
        {
          "internalType": "bool",
          "name": "",
          "type": "bool"
        }
      ],
      "stateMutability": "view",
      "type": "function"
    },
    {
      "inputs": [
        {
          "internalType": "bytes32",
          "name": "group",
          "type": "bytes32"
        },
        {
          "internalType": "bytes32",
          "name": "role",
          "type": "bytes32"
        }
      ],
      "name": "hasGroupRole",
      "outputs": [
        {
          "internalType": "bool",
          "name": "",
          "type": "bool"
        }
      ],
      "stateMutability": "view",
      "type": "function"
    },
    {
      "inputs": [
        {
          "internalType": "bytes32",
          "name": "realm",
          "type": "bytes32"
        },
        {
          "internalType": "bytes32",
          "name": "context",
          "type": "bytes32"
        }
      ],
      "name": "hasRealmContext",
      "outputs": [
        {
          "internalType": "bool",
          "name": "",
          "type": "bool"
        }
      ],
      "stateMutability": "view",
      "type": "function"
    },
    {
      "inputs": [
        {
          "internalType": "bytes32",
          "name": "role",
          "type": "bytes32"
        },
        {
          "internalType": "address",
          "name": "account",
          "type": "address"
        }
      ],
      "name": "hasRoleAccount",
      "outputs": [
        {
          "internalType": "bool",
          "name": "",
          "type": "bool"
        }
      ],
      "stateMutability": "view",
      "type": "function"
    },
    {
      "inputs": [],
      "name": "initVersion",
      "outputs": [
        {
          "internalType": "uint16",
          "name": "",
          "type": "uint16"
        }
      ],
      "stateMutability": "view",
      "type": "function"
    },
    {
      "inputs": [
        {
          "internalType": "string",
          "name": "domainName",
          "type": "string"
        },
        {
          "internalType": "string",
          "name": "domainVersion",
          "type": "string"
        },
        {
          "internalType": "string",
          "name": "domainRealm",
          "type": "string"
        },
        {
          "internalType": "address",
          "name": "accessControlManager",
          "type": "address"
        }
      ],
      "name": "initialize",
      "outputs": [],
      "stateMutability": "nonpayable",
      "type": "function"
    },
    {
      "inputs": [
        {
          "internalType": "bytes32",
          "name": "context",
          "type": "bytes32"
        }
      ],
      "name": "isContextEnabled",
      "outputs": [
        {
          "internalType": "bool",
          "name": "",
          "type": "bool"
        }
      ],
      "stateMutability": "view",
      "type": "function"
    },
    {
      "inputs": [
        {
          "internalType": "bytes32",
          "name": "context",
          "type": "bytes32"
        }
      ],
      "name": "isContextExists",
      "outputs": [
        {
          "internalType": "bool",
          "name": "",
          "type": "bool"
        }
      ],
      "stateMutability": "view",
      "type": "function"
    },
    {
      "inputs": [
        {
          "internalType": "bytes32",
          "name": "context",
          "type": "bytes32"
        },
        {
          "internalType": "bytes4",
          "name": "functionSelector",
          "type": "bytes4"
        }
      ],
      "name": "isContextFunctionEnabled",
      "outputs": [
        {
          "internalType": "bool",
          "name": "",
          "type": "bool"
        }
      ],
      "stateMutability": "view",
      "type": "function"
    },
    {
      "inputs": [
        {
          "internalType": "bytes32",
          "name": "context",
          "type": "bytes32"
        },
        {
          "internalType": "bytes4",
          "name": "functionSelector",
          "type": "bytes4"
        }
      ],
      "name": "isContextFunctionExists",
      "outputs": [
        {
          "internalType": "bool",
          "name": "",
          "type": "bool"
        }
      ],
      "stateMutability": "view",
      "type": "function"
    },
    {
      "inputs": [
        {
          "internalType": "bytes32",
          "name": "context",
          "type": "bytes32"
        }
      ],
      "name": "isContextSafeMode",
      "outputs": [
        {
          "internalType": "bool",
          "name": "",
          "type": "bool"
        }
      ],
      "stateMutability": "view",
      "type": "function"
    },
    {
      "inputs": [
        {
          "internalType": "bytes32",
          "name": "context",
          "type": "bytes32"
        }
      ],
      "name": "isContextUpgradable",
      "outputs": [
        {
          "internalType": "bool",
          "name": "",
          "type": "bool"
        }
      ],
      "stateMutability": "view",
      "type": "function"
    },
    {
      "inputs": [
        {
          "internalType": "bytes32",
          "name": "group",
          "type": "bytes32"
        }
      ],
      "name": "isGroupEnabled",
      "outputs": [
        {
          "internalType": "bool",
          "name": "",
          "type": "bool"
        }
      ],
      "stateMutability": "view",
      "type": "function"
    },
    {
      "inputs": [
        {
          "internalType": "bytes32",
          "name": "group",
          "type": "bytes32"
        }
      ],
      "name": "isGroupExists",
      "outputs": [
        {
          "internalType": "bool",
          "name": "",
          "type": "bool"
        }
      ],
      "stateMutability": "view",
      "type": "function"
    },
    {
      "inputs": [
        {
          "internalType": "address",
          "name": "account",
          "type": "address"
        }
      ],
      "name": "isLivelyAdminRole",
      "outputs": [
        {
          "internalType": "bool",
          "name": "",
          "type": "bool"
        }
      ],
      "stateMutability": "view",
      "type": "function"
    },
    {
      "inputs": [
        {
          "internalType": "address",
          "name": "account",
          "type": "address"
        }
      ],
      "name": "isLivelyAssetAdminRole",
      "outputs": [
        {
          "internalType": "bool",
          "name": "",
          "type": "bool"
        }
      ],
      "stateMutability": "view",
      "type": "function"
    },
    {
      "inputs": [
        {
          "internalType": "bytes32",
          "name": "role",
          "type": "bytes32"
        }
      ],
      "name": "isLivelyAssetGroup",
      "outputs": [
        {
          "internalType": "bool",
          "name": "",
          "type": "bool"
        }
      ],
      "stateMutability": "view",
      "type": "function"
    },
    {
      "inputs": [
        {
          "internalType": "address",
          "name": "account",
          "type": "address"
        }
      ],
      "name": "isLivelyAssetManagerRole",
      "outputs": [
        {
          "internalType": "bool",
          "name": "",
          "type": "bool"
        }
      ],
      "stateMutability": "view",
      "type": "function"
    },
    {
      "inputs": [
        {
          "internalType": "bytes32",
          "name": "context",
          "type": "bytes32"
        }
      ],
      "name": "isLivelyAssetRealm",
      "outputs": [
        {
          "internalType": "bool",
          "name": "",
          "type": "bool"
        }
      ],
      "stateMutability": "view",
      "type": "function"
    },
    {
      "inputs": [
        {
          "internalType": "address",
          "name": "account",
          "type": "address"
        }
      ],
      "name": "isLivelyCommunityDaoExecutorRole",
      "outputs": [
        {
          "internalType": "bool",
          "name": "",
          "type": "bool"
        }
      ],
      "stateMutability": "view",
      "type": "function"
    },
    {
      "inputs": [
        {
          "internalType": "address",
          "name": "account",
          "type": "address"
        }
      ],
      "name": "isLivelyCommunityDaoRole",
      "outputs": [
        {
          "internalType": "bool",
          "name": "",
          "type": "bool"
        }
      ],
      "stateMutability": "view",
      "type": "function"
    },
    {
      "inputs": [
        {
          "internalType": "bytes32",
          "name": "role",
          "type": "bytes32"
        }
      ],
      "name": "isLivelyDaoGroup",
      "outputs": [
        {
          "internalType": "bool",
          "name": "",
          "type": "bool"
        }
      ],
      "stateMutability": "view",
      "type": "function"
    },
    {
      "inputs": [
        {
          "internalType": "bytes32",
          "name": "role",
          "type": "bytes32"
        }
      ],
      "name": "isLivelyGeneralGroup",
      "outputs": [
        {
          "internalType": "bool",
          "name": "",
          "type": "bool"
        }
      ],
      "stateMutability": "view",
      "type": "function"
    },
    {
      "inputs": [
        {
          "internalType": "bytes32",
          "name": "context",
          "type": "bytes32"
        }
      ],
      "name": "isLivelyGeneralRealm",
      "outputs": [
        {
          "internalType": "bool",
          "name": "",
          "type": "bool"
        }
      ],
      "stateMutability": "view",
      "type": "function"
    },
    {
      "inputs": [
        {
          "internalType": "address",
          "name": "account",
          "type": "address"
        }
      ],
      "name": "isLivelySystemAdminRole",
      "outputs": [
        {
          "internalType": "bool",
          "name": "",
          "type": "bool"
        }
      ],
      "stateMutability": "view",
      "type": "function"
    },
    {
      "inputs": [
        {
          "internalType": "bytes32",
          "name": "realm",
          "type": "bytes32"
        }
      ],
      "name": "isRealmEnabled",
      "outputs": [
        {
          "internalType": "bool",
          "name": "",
          "type": "bool"
        }
      ],
      "stateMutability": "view",
      "type": "function"
    },
    {
      "inputs": [
        {
          "internalType": "bytes32",
          "name": "realm",
          "type": "bytes32"
        }
      ],
      "name": "isRealmExists",
      "outputs": [
        {
          "internalType": "bool",
          "name": "",
          "type": "bool"
        }
      ],
      "stateMutability": "view",
      "type": "function"
    },
    {
      "inputs": [
        {
          "internalType": "bytes32",
          "name": "realm",
          "type": "bytes32"
        }
      ],
      "name": "isRealmUpgradable",
      "outputs": [
        {
          "internalType": "bool",
          "name": "",
          "type": "bool"
        }
      ],
      "stateMutability": "view",
      "type": "function"
    },
    {
      "inputs": [
        {
          "internalType": "bytes32",
          "name": "role",
          "type": "bytes32"
        }
      ],
      "name": "isRoleEnabled",
      "outputs": [
        {
          "internalType": "bool",
          "name": "",
          "type": "bool"
        }
      ],
      "stateMutability": "view",
      "type": "function"
    },
    {
      "inputs": [
        {
          "internalType": "bytes32",
          "name": "role",
          "type": "bytes32"
        }
      ],
      "name": "isRoleExists",
      "outputs": [
        {
          "internalType": "bool",
          "name": "",
          "type": "bool"
        }
      ],
      "stateMutability": "view",
      "type": "function"
    },
    {
      "inputs": [],
      "name": "isSafeMode",
      "outputs": [
        {
          "internalType": "bool",
          "name": "",
          "type": "bool"
        }
      ],
      "stateMutability": "view",
      "type": "function"
    },
    {
      "inputs": [],
      "name": "isUpgradable",
      "outputs": [
        {
          "internalType": "bool",
          "name": "",
          "type": "bool"
        }
      ],
      "stateMutability": "view",
      "type": "function"
    },
    {
      "inputs": [],
      "name": "localAdmin",
      "outputs": [
        {
          "internalType": "address",
          "name": "",
          "type": "address"
        }
      ],
      "stateMutability": "view",
      "type": "function"
    },
    {
      "inputs": [],
      "name": "proxiableUUID",
      "outputs": [
        {
          "internalType": "bytes32",
          "name": "",
          "type": "bytes32"
        }
      ],
      "stateMutability": "view",
      "type": "function"
    },
    {
      "inputs": [
        {
          "internalType": "bytes",
          "name": "signature",
          "type": "bytes"
        },
        {
          "components": [
            {
              "internalType": "bytes32",
              "name": "name",
              "type": "bytes32"
            },
            {
              "internalType": "bytes32",
              "name": "version",
              "type": "bytes32"
            },
            {
              "internalType": "bytes32",
              "name": "realm",
              "type": "bytes32"
            },
            {
              "internalType": "address",
              "name": "contractId",
              "type": "address"
            },
            {
              "internalType": "bool",
              "name": "status",
              "type": "bool"
            }
          ],
          "internalType": "struct IContextManagement.RequestContext",
          "name": "rc",
          "type": "tuple"
        },
        {
          "components": [
            {
              "internalType": "bytes32",
              "name": "role",
              "type": "bytes32"
            },
            {
              "internalType": "bytes4[]",
              "name": "funcSelectors",
              "type": "bytes4[]"
            },
            {
              "internalType": "bool",
              "name": "isEnabled",
              "type": "bool"
            }
          ],
          "internalType": "struct IContextManagement.RequestRegisterContext[]",
          "name": "rrc",
          "type": "tuple[]"
        }
      ],
      "name": "registerContext",
      "outputs": [
        {
          "internalType": "bytes32",
          "name": "",
          "type": "bytes32"
        }
      ],
      "stateMutability": "nonpayable",
      "type": "function"
    },
    {
      "inputs": [
        {
          "internalType": "string",
          "name": "name",
          "type": "string"
        },
        {
          "internalType": "bool",
          "name": "status",
          "type": "bool"
        }
      ],
      "name": "registerGroup",
      "outputs": [
        {
          "internalType": "bytes32",
          "name": "",
          "type": "bytes32"
        }
      ],
      "stateMutability": "nonpayable",
      "type": "function"
    },
    {
      "inputs": [
        {
          "internalType": "bytes",
          "name": "signature",
          "type": "bytes"
        },
        {
          "components": [
            {
              "internalType": "bytes32",
              "name": "name",
              "type": "bytes32"
            },
            {
              "internalType": "bytes32",
              "name": "version",
              "type": "bytes32"
            },
            {
              "internalType": "bytes32",
              "name": "realm",
              "type": "bytes32"
            },
            {
              "internalType": "bytes32",
              "name": "salt",
              "type": "bytes32"
            },
            {
              "internalType": "address",
              "name": "subject",
              "type": "address"
            },
            {
              "internalType": "address",
              "name": "deployer",
              "type": "address"
            },
            {
              "internalType": "bool",
              "name": "status",
              "type": "bool"
            }
          ],
          "internalType": "struct IContextManagement.RequestPredictContext",
          "name": "rpc",
          "type": "tuple"
        },
        {
          "components": [
            {
              "internalType": "bytes32",
              "name": "role",
              "type": "bytes32"
            },
            {
              "internalType": "bytes4[]",
              "name": "funcSelectors",
              "type": "bytes4[]"
            },
            {
              "internalType": "bool",
              "name": "isEnabled",
              "type": "bool"
            }
          ],
          "internalType": "struct IContextManagement.RequestRegisterContext[]",
          "name": "rrc",
          "type": "tuple[]"
        }
      ],
      "name": "registerPredictContext",
      "outputs": [
        {
          "internalType": "bytes32",
          "name": "",
          "type": "bytes32"
        }
      ],
      "stateMutability": "nonpayable",
      "type": "function"
    },
    {
      "inputs": [
        {
          "internalType": "string",
          "name": "name",
          "type": "string"
        },
        {
          "internalType": "bool",
          "name": "status",
          "type": "bool"
        },
        {
          "internalType": "bool",
          "name": "isUpgradable",
          "type": "bool"
        }
      ],
      "name": "registerRealm",
      "outputs": [
        {
          "internalType": "bytes32",
          "name": "",
          "type": "bytes32"
        }
      ],
      "stateMutability": "nonpayable",
      "type": "function"
    },
    {
      "inputs": [
        {
          "internalType": "string",
          "name": "name",
          "type": "string"
        },
        {
          "internalType": "bytes32",
          "name": "group",
          "type": "bytes32"
        },
        {
          "internalType": "bool",
          "name": "status",
          "type": "bool"
        }
      ],
      "name": "registerRole",
      "outputs": [
        {
          "internalType": "bytes32",
          "name": "",
          "type": "bytes32"
        }
      ],
      "stateMutability": "nonpayable",
      "type": "function"
    },
    {
      "inputs": [
        {
          "internalType": "bytes32",
          "name": "ctx",
          "type": "bytes32"
        },
        {
          "internalType": "bytes4",
          "name": "functionSelector",
          "type": "bytes4"
        }
      ],
      "name": "removeContextFunc",
      "outputs": [
        {
          "internalType": "bool",
          "name": "",
          "type": "bool"
        }
      ],
      "stateMutability": "nonpayable",
      "type": "function"
    },
    {
      "inputs": [
        {
          "internalType": "bytes32",
          "name": "ctx",
          "type": "bytes32"
        },
        {
          "internalType": "bytes4",
          "name": "functionSelector",
          "type": "bytes4"
        },
        {
          "internalType": "bytes32",
          "name": "role",
          "type": "bytes32"
        }
      ],
      "name": "revokeContextRole",
      "outputs": [
        {
          "internalType": "bool",
          "name": "",
          "type": "bool"
        }
      ],
      "stateMutability": "nonpayable",
      "type": "function"
    },
    {
      "inputs": [
        {
          "internalType": "bytes32",
          "name": "role",
          "type": "bytes32"
        },
        {
          "internalType": "address",
          "name": "account",
          "type": "address"
        }
      ],
      "name": "revokeRoleAccount",
      "outputs": [
        {
          "internalType": "bool",
          "name": "",
          "type": "bool"
        }
      ],
      "stateMutability": "nonpayable",
      "type": "function"
    },
    {
      "inputs": [
        {
          "internalType": "bytes32",
          "name": "ctx",
          "type": "bytes32"
        },
        {
          "internalType": "bytes32",
          "name": "realm",
          "type": "bytes32"
        }
      ],
      "name": "setContextRealm",
      "outputs": [
        {
          "internalType": "bool",
          "name": "",
          "type": "bool"
        }
      ],
      "stateMutability": "nonpayable",
      "type": "function"
    },
    {
      "inputs": [
        {
          "internalType": "bytes32",
          "name": "ctx",
          "type": "bytes32"
        },
        {
          "internalType": "bool",
          "name": "status",
          "type": "bool"
        }
      ],
      "name": "setContextStatus",
      "outputs": [
        {
          "internalType": "bool",
          "name": "",
          "type": "bool"
        }
      ],
      "stateMutability": "nonpayable",
      "type": "function"
    },
    {
      "inputs": [
        {
          "internalType": "bytes32",
          "name": "group",
          "type": "bytes32"
        },
        {
          "internalType": "bool",
          "name": "status",
          "type": "bool"
        }
      ],
      "name": "setGroupStatus",
      "outputs": [
        {
          "internalType": "bool",
          "name": "",
          "type": "bool"
        }
      ],
      "stateMutability": "nonpayable",
      "type": "function"
    },
    {
      "inputs": [
        {
          "internalType": "address",
          "name": "newLocalAdmin",
          "type": "address"
        }
      ],
      "name": "setLocalAdmin",
      "outputs": [
        {
          "internalType": "bool",
          "name": "",
          "type": "bool"
        }
      ],
      "stateMutability": "nonpayable",
      "type": "function"
    },
    {
      "inputs": [
        {
          "internalType": "bytes32",
          "name": "realm",
          "type": "bytes32"
        },
        {
          "internalType": "bool",
          "name": "status",
          "type": "bool"
        }
      ],
      "name": "setRealmStatus",
      "outputs": [
        {
          "internalType": "bool",
          "name": "",
          "type": "bool"
        }
      ],
      "stateMutability": "nonpayable",
      "type": "function"
    },
    {
      "inputs": [
        {
          "internalType": "bytes32",
          "name": "realm",
          "type": "bytes32"
        },
        {
          "internalType": "bool",
          "name": "status",
          "type": "bool"
        }
      ],
      "name": "setRealmUpgradeStatus",
      "outputs": [
        {
          "internalType": "bool",
          "name": "",
          "type": "bool"
        }
      ],
      "stateMutability": "nonpayable",
      "type": "function"
    },
    {
      "inputs": [
        {
          "internalType": "bytes32",
          "name": "role",
          "type": "bytes32"
        },
        {
          "internalType": "bytes32",
          "name": "group",
          "type": "bytes32"
        }
      ],
      "name": "setRoleGroup",
      "outputs": [
        {
          "internalType": "bool",
          "name": "",
          "type": "bool"
        }
      ],
      "stateMutability": "nonpayable",
      "type": "function"
    },
    {
      "inputs": [
        {
          "internalType": "bytes32",
          "name": "role",
          "type": "bytes32"
        },
        {
          "internalType": "bool",
          "name": "status",
          "type": "bool"
        }
      ],
      "name": "setRoleStatus",
      "outputs": [
        {
          "internalType": "bool",
          "name": "",
          "type": "bool"
        }
      ],
      "stateMutability": "nonpayable",
      "type": "function"
    },
    {
      "inputs": [
        {
          "internalType": "bool",
          "name": "status",
          "type": "bool"
        }
      ],
      "name": "setSafeMode",
      "outputs": [
        {
          "internalType": "bool",
          "name": "",
          "type": "bool"
        }
      ],
      "stateMutability": "nonpayable",
      "type": "function"
    },
    {
      "inputs": [
        {
          "internalType": "bool",
          "name": "status",
          "type": "bool"
        }
      ],
      "name": "setUpgradeStatus",
      "outputs": [
        {
          "internalType": "bool",
          "name": "",
          "type": "bool"
        }
      ],
      "stateMutability": "nonpayable",
      "type": "function"
    },
    {
      "inputs": [],
      "name": "subjectAddress",
      "outputs": [
        {
          "internalType": "address",
          "name": "",
          "type": "address"
        }
      ],
      "stateMutability": "view",
      "type": "function"
    },
    {
      "inputs": [
        {
          "internalType": "bytes4",
          "name": "interfaceId",
          "type": "bytes4"
        }
      ],
      "name": "supportsInterface",
      "outputs": [
        {
          "internalType": "bool",
          "name": "",
          "type": "bool"
        }
      ],
      "stateMutability": "view",
      "type": "function"
    },
    {
      "inputs": [
        {
          "internalType": "bytes32",
          "name": "ctx",
          "type": "bytes32"
        },
        {
          "internalType": "bytes",
          "name": "signature",
          "type": "bytes"
        },
        {
          "components": [
            {
              "internalType": "bytes32",
              "name": "name",
              "type": "bytes32"
            },
            {
              "internalType": "bytes32",
              "name": "version",
              "type": "bytes32"
            },
            {
              "internalType": "bytes32",
              "name": "realm",
              "type": "bytes32"
            },
            {
              "internalType": "address",
              "name": "contractId",
              "type": "address"
            },
            {
              "internalType": "bool",
              "name": "status",
              "type": "bool"
            }
          ],
          "internalType": "struct IContextManagement.RequestContext",
          "name": "rc",
          "type": "tuple"
        },
        {
          "components": [
            {
              "internalType": "bytes32",
              "name": "role",
              "type": "bytes32"
            },
            {
              "internalType": "bytes4[]",
              "name": "funcSelectors",
              "type": "bytes4[]"
            },
            {
              "internalType": "enum IContextManagement.UpdateContextStatus",
              "name": "updateStatus",
              "type": "uint8"
            }
          ],
          "internalType": "struct IContextManagement.RequestUpdateContext[]",
          "name": "rcr",
          "type": "tuple[]"
        }
      ],
      "name": "updateContext",
      "outputs": [
        {
          "internalType": "address",
          "name": "",
          "type": "address"
        }
      ],
      "stateMutability": "nonpayable",
      "type": "function"
    },
    {
      "inputs": [
        {
          "internalType": "address",
          "name": "newImplementation",
          "type": "address"
        },
        {
          "internalType": "bytes",
          "name": "data",
          "type": "bytes"
        },
        {
          "internalType": "bool",
          "name": "forceCall",
          "type": "bool"
        }
      ],
      "name": "upgradeTo",
      "outputs": [
        {
          "internalType": "bytes",
          "name": "",
          "type": "bytes"
        }
      ],
      "stateMutability": "nonpayable",
      "type": "function"
    },
    {
      "inputs": [
        {
          "internalType": "address",
          "name": "recepient",
          "type": "address"
        }
      ],
      "name": "withdrawBalance",
      "outputs": [],
      "stateMutability": "nonpayable",
      "type": "function"
    },
    {
      "stateMutability": "payable",
      "type": "receive"
    }
  ],
  "bytecode": "0x60a0604052306080523480156200001557600080fd5b506200004360017f360894a13ba1a3210667c828492db98dca3e2076cc3735a920a3ca505d382bbd62000127565b7f360894a13ba1a3210667c828492db98dca3e2076cc3735a920a3ca505d382bbc146200007457620000746200014f565b620000a160017fb53127684a568b3173ae13b9f8a6016e243e63b6e8ee1178d6a717850b5d610462000127565b600080516020620060fe83398151915214620000c157620000c16200014f565b33620000ea600080516020620060fe83398151915260001b6200012460201b62003bf91760201c565b80546001600160a01b03929092166001600160a01b03199092169190911790556003805461ffff60a01b1916600160a01b17905562000165565b90565b818103818111156200014957634e487b7160e01b600052601160045260246000fd5b92915050565b634e487b7160e01b600052600160045260246000fd5b608051615f37620001c7600039600081816117530152818161179c015281816119580152818161199801528181611cca01528181611da001528181611de001528181612373015281816123b3015281816133f001526134300152615f376000f3fe60806040526004361061043c5760003560e01c80638f09e0f011610232578063c7ab39e61161012d578063e1ed0a82116100b0578063f1df49da11610077578063f1df49da14610e2b578063f2c673bd14610e4b578063f5122c9214610e6b578063f698da2514610e8b578063f94a0adb14610ea057005b8063e1ed0a8214610d8b578063e25d75f014610dab578063e65be46814610dcb578063e71e224e14610deb578063edf1d1cb14610e0b57005b8063d9d34bf8116100f4578063d9d34bf814610ceb578063d9dc1f1914610d0b578063dbf304b014610d2b578063dc853dd014610d4b578063df01de4514610d6b57005b8063c7ab39e614610c56578063c7ea945c14610c76578063d338640114610c96578063d3e024b814610cb6578063d9aba36e14610ccb57005b8063b4a0bdf3116101b5578063be409a111161017c578063be409a1114610ba7578063be409b5714610bd6578063c34aa02114610bf6578063c48e7ae614610c16578063c557020a14610c3657005b8063b4a0bdf314610b0a578063b4c4b58f14610b28578063b58966de14610b48578063b6c03f0314610b68578063be22465d14610b8857005b80639ebf6246116101f95780639ebf624614610a21578063a0a8e46014610a95578063a32ce13d14610aaa578063a92f69c114610aca578063b2dc26e514610aea57005b80638f09e0f01461098157806391690955146109a157806393ba3131146109c157806394cfd6e3146109e15780639e3a2cea14610a0157005b80634944f532116103425780636b3b0159116102c5578063771bcf451161028c578063771bcf45146108ec5780637b4433791461090c578063870666cb1461092c5780638b7dbd6c146109415780638e7038261461096157005b80636b3b01591461084a57806370420ee31461086a5780637147855d1461088a578063756af45f146108b757806375d0c0dc146108d757005b80635479d940116103095780635479d9401461079057806358dbc45d146107af5780635bdaecce146107dc5780635c6d8da1146107fc5780636b2b7dd81461081c57005b80634944f532146106fb5780634bb1be8c1461071b5780634dc13c8f1461073b57806351e70bb01461075b57806352d1902d1461077b57005b806337bfbfe8116103ca5780634156567311610391578063415656731461065b5780634346a04b1461067b57806344b7e5f21461069b57806345b5203c146106bb57806348e6be1c146106db57005b806337bfbfe81461058757806338d38c97146105b45780633c7d5b25146105dc5780633e02bc381461060b5780633f4c99b81461062d57005b806311b529b31161040e57806311b529b3146104da5780631846d125146104fa5780632e2adf001461051a5780632f032edd146105475780633228144d1461056757005b806301ffc9a714610445578063031c04931461047a578063076a6f221461049a578063101df54d146104ba57005b3661044357005b005b34801561045157600080fd5b50610465610460366004614751565b610eb5565b60405190151581526020015b60405180910390f35b34801561048657600080fd5b5061046561049536600461476e565b610f4c565b3480156104a657600080fd5b506104656104b53660046147bb565b611022565b3480156104c657600080fd5b506104656104d53660046147d8565b6110a9565b3480156104e657600080fd5b506104656104f53660046147f1565b6110eb565b34801561050657600080fd5b506104656105153660046147d8565b61116b565b34801561052657600080fd5b5061053a6105353660046147d8565b6111ad565b6040516104719190614821565b34801561055357600080fd5b506104656105623660046147d8565b61122f565b34801561057357600080fd5b506104656105823660046147d8565b611271565b34801561059357600080fd5b506105a76105a23660046147d8565b6112b3565b604051610471919061486f565b3480156105c057600080fd5b506105c9611336565b60405161ffff9091168152602001610471565b3480156105e857600080fd5b506105fc6105f73660046147d8565b61134a565b604051610471939291906148f7565b34801561061757600080fd5b506106206113de565b6040516104719190614921565b34801561063957600080fd5b5061064d6106483660046149b8565b61156a565b604051908152602001610471565b34801561066757600080fd5b506104656106763660046147bb565b61163c565b34801561068757600080fd5b5061046561069636600461476e565b611686565b3480156106a757600080fd5b506104656106b6366004614a0e565b611747565b3480156106c757600080fd5b506104656106d63660046147d8565b61190a565b3480156106e757600080fd5b506104656106f6366004614a0e565b61194c565b34801561070757600080fd5b506104656107163660046147d8565b611b20565b34801561072757600080fd5b5061064d610736366004614a2b565b611b62565b34801561074757600080fd5b506104656107563660046147d8565b611c39565b34801561076757600080fd5b506104656107763660046147d8565b611c7b565b34801561078757600080fd5b5061064d611cbd565b34801561079c57600080fd5b50600354600160a81b900460ff16610465565b3480156107bb57600080fd5b506107c4611d4a565b6040516001600160a01b039091168152602001610471565b3480156107e857600080fd5b506104656107f73660046147d8565b611d54565b34801561080857600080fd5b50610443610817366004614a92565b611d96565b34801561082857600080fd5b5061083c6108373660046147d8565b612158565b604051610471929190614b3f565b34801561085657600080fd5b50610465610865366004614b63565b6121e6565b34801561087657600080fd5b50610465610885366004614b91565b612284565b34801561089657600080fd5b506108aa6108a5366004614ca1565b612367565b6040516104719190614cf9565b3480156108c357600080fd5b506104436108d23660046147bb565b612498565b3480156108e357600080fd5b5060005461064d565b3480156108f857600080fd5b5061046561090736600461476e565b612557565b34801561091857600080fd5b5061064d610927366004614d50565b612618565b34801561093857600080fd5b5061064d61273c565b34801561094d57600080fd5b5061046561095c366004614b91565b612747565b34801561096d57600080fd5b5061046561097c3660046147d8565b6127d5565b34801561098d57600080fd5b5061046561099c366004614dd4565b612817565b3480156109ad57600080fd5b506104656109bc3660046147d8565b6128a0565b3480156109cd57600080fd5b506104656109dc366004614df9565b6128e2565b3480156109ed57600080fd5b506104656109fc3660046147d8565b6129c8565b348015610a0d57600080fd5b506105a7610a1c366004614e6d565b612a0a565b348015610a2d57600080fd5b50610a41610a3c3660046147d8565b612bbb565b60405161047191908151815260208083015190820152604080830151908201526060808301516001600160a01b03169082015260808083015115159082015260a09182015115159181019190915260c00190565b348015610aa157600080fd5b5060015461064d565b348015610ab657600080fd5b50610465610ac53660046147d8565b612c64565b348015610ad657600080fd5b50610465610ae53660046147bb565b612ca6565b348015610af657600080fd5b5061064d610b05366004614eae565b612cf0565b348015610b1657600080fd5b506003546001600160a01b03166107c4565b348015610b3457600080fd5b50610465610b433660046147f1565b612dec565b348015610b5457600080fd5b50610465610b633660046147f1565b612e2b565b348015610b7457600080fd5b50610465610b83366004614b91565b612efb565b348015610b9457600080fd5b50600354600160a01b900460ff16610465565b348015610bb357600080fd5b50610bc7610bc23660046147d8565b612f8b565b60405161047193929190614f01565b348015610be257600080fd5b50610465610bf13660046147bb565b613012565b348015610c0257600080fd5b50610465610c113660046147bb565b61305c565b348015610c2257600080fd5b50610465610c313660046147d8565b6130a6565b348015610c4257600080fd5b50610465610c51366004614df9565b6130e8565b348015610c6257600080fd5b50610465610c71366004614f2b565b6131ce565b348015610c8257600080fd5b50610465610c91366004614dd4565b613230565b348015610ca257600080fd5b50610465610cb1366004614f62565b613282565b348015610cc257600080fd5b5060025461064d565b348015610cd757600080fd5b50610465610ce6366004614f62565b613351565b348015610cf757600080fd5b50610465610d063660046147bb565b61339a565b348015610d1757600080fd5b50610465610d263660046147bb565b6133e4565b348015610d3757600080fd5b50610465610d46366004614f62565b613565565b348015610d5757600080fd5b50610465610d663660046147d8565b613634565b348015610d7757600080fd5b50610465610d86366004614dd4565b613676565b348015610d9757600080fd5b50610620610da63660046147d8565b6136ff565b348015610db757600080fd5b50610465610dc63660046147d8565b613781565b348015610dd757600080fd5b506107c4610de6366004614f9c565b6137c3565b348015610df757600080fd5b50610465610e06366004614b91565b613898565b348015610e1757600080fd5b506105a7610e263660046147d8565b61396b565b348015610e3757600080fd5b5061064d610e46366004615022565b6139ad565b348015610e5757600080fd5b50610465610e66366004614b91565b613aaa565b348015610e7757600080fd5b50610465610e86366004614f62565b613b3a565b348015610e9757600080fd5b5061064d613b83565b348015610eac57600080fd5b506107c4613bef565b60006001600160e01b031982166314b8343560e31b1480610ee657506001600160e01b031982166396dc457560e01b145b80610f0157506001600160e01b031982166308ea925b60e41b145b80610f1c57506001600160e01b03198216637d22131d60e11b145b80610f3757506001600160e01b031982166370319bff60e11b145b80610f465750610f4682613bfc565b92915050565b60008073__$122c978fc1a65ab69c7a0ac6b07fd0b0cd$__63a234dae360448787876040518563ffffffff1660e01b8152600401610f8d949392919061508d565b602060405180830381865af4158015610faa573d6000803e3d6000fd5b505050506040513d601f19601f82011682018060405250810190610fce91906150b2565b9050336001600160a01b031683867fce5e1f2ba33f195f748a93b00ee62600b55e27cc50531a72e5443713bac23e12878560405161100d9291906150cb565b60405180910390a460019150505b9392505050565b604051630b71751360e31b81526044600482018190526001600160a01b038316602483015260009173__$c43b1d7058274a71a9734d16e6b6586431$__91635b8ba89891015b602060405180830381865af4158015611085573d6000803e3d6000fd5b505050506040513d601f19601f82011682018060405250810190610f4691906150e5565b6040516316b714ad60e01b81526044600482018190526024820183905260009173__$c43b1d7058274a71a9734d16e6b6586431$__916316b714ad9101611068565b6040516374cda89d60e11b815260009073__$c43b1d7058274a71a9734d16e6b6586431$__9063e99b513a9061112a9060449087908790600401615102565b602060405180830381865af4158015611147573d6000803e3d6000fd5b505050506040513d601f19601f8201168201806040525081019061101b91906150e5565b60405163198d864d60e31b81526044600482018190526024820183905260009173__$c43b1d7058274a71a9734d16e6b6586431$__9163cc6c32689101611068565b6040516333669f8360e11b81526044600482018190526024820183905260609173__$122c978fc1a65ab69c7a0ac6b07fd0b0cd$__916366cd3f069101600060405180830381865af4158015611207573d6000803e3d6000fd5b505050506040513d6000823e601f3d908101601f19168201604052610f4691908101906151b4565b60405163cb4a1bb760e01b81526044600482018190526024820183905260009173__$c43b1d7058274a71a9734d16e6b6586431$__9163cb4a1bb79101611068565b604051635a96334b60e01b81526044600482018190526024820183905260009173__$c43b1d7058274a71a9734d16e6b6586431$__91635a96334b9101611068565b604051635ed86fc960e01b81526044600482018190526024820183905260609173__$bc3cfbaf1827cbc66e3e608da812a405b7$__91635ed86fc991015b600060405180830381865af415801561130e573d6000803e3d6000fd5b505050506040513d6000823e601f3d908101601f19168201604052610f4691908101906151e8565b600061134560495461ffff1690565b905090565b6040516302946a5960e61b815260446004820181905260248201839052606091600091829173__$bc3cfbaf1827cbc66e3e608da812a405b7$__9163a51a96409101600060405180830381865af41580156113a9573d6000803e3d6000fd5b505050506040513d6000823e601f3d908101601f191682016040526113d191908101906152bd565b9250925092509193909250565b60408051600580825260c08201909252606091600091906020820160a08036833701905050905073__$c43b1d7058274a71a9734d16e6b6586431$__8160008151811061142d5761142d615316565b60200260200101906001600160a01b031690816001600160a01b03168152505073__$122c978fc1a65ab69c7a0ac6b07fd0b0cd$__8160018151811061147557611475615316565b60200260200101906001600160a01b031690816001600160a01b03168152505073__$bc3cfbaf1827cbc66e3e608da812a405b7$__816002815181106114bd576114bd615316565b60200260200101906001600160a01b031690816001600160a01b03168152505073__$340101a45712d3611711048793ce62ace0$__8160038151811061150557611505615316565b60200260200101906001600160a01b031690816001600160a01b03168152505073__$6309dd7d2656d358c392b35d5c4e4605f9$__8160048151811061154d5761154d615316565b6001600160a01b0390921660209283029190910190910152919050565b60008073__$6309dd7d2656d358c392b35d5c4e4605f9$__63c3db069f60448787876040518563ffffffff1660e01b81526004016115ab9493929190615355565b602060405180830381865af41580156115c8573d6000803e3d6000fd5b505050506040513d601f19601f820116820180604052508101906115ec91906150b2565b9050336001600160a01b0316817fde3bd866160a7f983f3c5f990127712936d37378d60b93ba96ab3a66a04feb1887878760405161162c93929190615382565b60405180910390a3949350505050565b60405163066f9a3160e31b81526044600482018190526001600160a01b038316602483015260009173__$c43b1d7058274a71a9734d16e6b6586431$__9163337cd1889101611068565b60008073__$122c978fc1a65ab69c7a0ac6b07fd0b0cd$__63ef20d55d60448787876040518563ffffffff1660e01b81526004016116c7949392919061508d565b602060405180830381865af41580156116e4573d6000803e3d6000fd5b505050506040513d601f19601f8201168201806040525081019061170891906150b2565b9050336001600160a01b031683867f888ebbee43b69c568a7ef10a18f4afb4a0452ed2cfec2dde7a3d37b7e5ef87a3878560405161100d9291906150cb565b60006001600160a01b037f000000000000000000000000000000000000000000000000000000000000000016300361179a5760405162461bcd60e51b8152600401611791906153a8565b60405180910390fd5b7f00000000000000000000000000000000000000000000000000000000000000006001600160a01b03166117cc613c4c565b6001600160a01b0316146117f25760405162461bcd60e51b8152600401611791906153d7565b600061180160495461ffff1690565b61ffff16116118525760405162461bcd60e51b815260206004820152601860248201527f436f6e7472616374204e6f7420496e697469616c697a656400000000000000006044820152606401611791565b61186263225bf2f960e11b613c6d565b6118a65760405162461bcd60e51b815260206004820152601560248201527429b2ba29b0b332a6b7b232902337b93134b23232b760591b6044820152606401611791565b6003805460ff60a01b1916600160a01b8415150217905560025430336001600160a01b03167fdd452a31d2e164a1ea436c084842c27d24ae2548a575a869f71b05a4ed16243f856040516118fe911515815260200190565b60405180910390a45090565b60405163037f4c9360e41b81526044600482018190526024820183905260009173__$c43b1d7058274a71a9734d16e6b6586431$__916337f4c9309101611068565b60006001600160a01b037f00000000000000000000000000000000000000000000000000000000000000001630036119965760405162461bcd60e51b8152600401611791906153a8565b7f00000000000000000000000000000000000000000000000000000000000000006001600160a01b03166119c8613c4c565b6001600160a01b0316146119ee5760405162461bcd60e51b8152600401611791906153d7565b600354600160a01b900460ff1615611a185760405162461bcd60e51b815260040161179190615405565b611a28631239af8760e21b613c6d565b611a745760405162461bcd60e51b815260206004820152601a60248201527f5365745570677261646553746174757320466f7262696464656e0000000000006044820152606401611791565b611a7c613db2565b611ac85760405162461bcd60e51b815260206004820152601760248201527f5265616c6d205570677261646520466f7262696464656e0000000000000000006044820152606401611791565b6003805460ff60a81b1916600160a81b8415150217905560025430336001600160a01b03167fe9f97ad94c2ba252dcfc525e004f608ac5cb886955d8fc87d9e0ee070a698c56856040516118fe911515815260200190565b6040516352f8f17f60e11b81526044600482018190526024820183905260009173__$c43b1d7058274a71a9734d16e6b6586431$__9163a5f1e2fe9101611068565b60008073__$bc3cfbaf1827cbc66e3e608da812a405b7$__639b214b706044888888886040518663ffffffff1660e01b8152600401611ba595949392919061543c565b602060405180830381865af4158015611bc2573d6000803e3d6000fd5b505050506040513d601f19601f82011682018060405250810190611be691906150b2565b9050336001600160a01b0316817f5a8acbe7e0fa397d934e9aafb8fb1a483627af9e9b4690f4488d740b669f8b4788888888604051611c28949392919061546f565b60405180910390a395945050505050565b60405163784c277360e11b81526044600482018190526024820183905260009173__$c43b1d7058274a71a9734d16e6b6586431$__9163f0984ee69101611068565b60405163302a328360e21b81526044600482018190526024820183905260009173__$c43b1d7058274a71a9734d16e6b6586431$__9163c0a8ca0c9101611068565b6000306001600160a01b037f00000000000000000000000000000000000000000000000000000000000000001614611d375760405162461bcd60e51b815260206004820152601d60248201527f496c6c6567616c20436f6e74726163742044656c656761746563616c6c0000006044820152606401611791565b50600080516020615ee283398151915290565b6000611345613c4c565b604051636787ad5160e01b81526044600482018190526024820183905260009173__$c43b1d7058274a71a9734d16e6b6586431$__91636787ad519101611068565b6001600160a01b037f0000000000000000000000000000000000000000000000000000000000000000163003611dde5760405162461bcd60e51b8152600401611791906153a8565b7f00000000000000000000000000000000000000000000000000000000000000006001600160a01b0316611e10613c4c565b6001600160a01b031614611e365760405162461bcd60e51b8152600401611791906153d7565b33611e3f613ef0565b6001600160a01b031614611e8d5760405162461bcd60e51b815260206004820152601560248201527410d85b1b195c88139bdd08105d5d1a1bdc9a5e9959605a1b6044820152606401611791565b60495462010000900460ff1615808015611eaf5750604954600161ffff909116105b80611eca5750303b158015611eca575060495461ffff166001145b611f165760405162461bcd60e51b815260206004820152601c60248201527f436f6e747261637420416c726561647920496e697469616c697a6564000000006044820152606401611791565b6049805461ffff191660011790558015611f3c576049805462ff00001916620100001790555b60008484604051602001611f5192919061549b565b60408051808303601f190181529082905280516020909101206313f4f37f60e31b825260446004830152915073__$c43b1d7058274a71a9734d16e6b6586431$__90639fa79bf89060240160006040518083038186803b158015611fb457600080fd5b505af4158015611fc8573d6000803e3d6000fd5b50505050611fda898989898588613f18565b600073__$c43b1d7058274a71a9734d16e6b6586431$__6362f3c2d46040518163ffffffff1660e01b8152600401600060405180830381865af4158015612025573d6000803e3d6000fd5b505050506040513d6000823e601f3d908101601f1916820160405261204d91908101906154ab565b604051630a64c0bb60e41b815290915073__$122c978fc1a65ab69c7a0ac6b07fd0b0cd$__9063a64c0bb09061208e906044903090879087906004016155ae565b602060405180830381865af41580156120ab573d6000803e3d6000fd5b505050506040513d601f19601f820116820180604052508101906120cf91906150b2565b506120d8613c4c565b6001600160a01b031630336001600160a01b03167ff851a1e85477b818fc72ad517ea622cc316f10f67d61c9e740adc151a8b413948d8d8d8d8961211f60495461ffff1690565b60405161213196959493929190615686565b60405180910390a45050801561214e576049805462ff0000191690555b5050505050505050565b60405163097f7f8760e01b81526044600482018190526024820183905260609160009173__$6309dd7d2656d358c392b35d5c4e4605f9$__9163097f7f879101600060405180830381865af41580156121b5573d6000803e3d6000fd5b505050506040513d6000823e601f3d908101601f191682016040526121dd91908101906156cb565b91509150915091565b60405163214cdddf60e21b81526044600482018190526024820185905281018390526001600160e01b03198216606482015260009073__$122c978fc1a65ab69c7a0ac6b07fd0b0cd$__90638533777c906084015b602060405180830381865af4158015612258573d6000803e3d6000fd5b505050506040513d601f19601f8201168201806040525081019061227c91906150e5565b949350505050565b6040516375e6430f60e11b815260446004820181905260248201849052821515908201526000908190819073__$122c978fc1a65ab69c7a0ac6b07fd0b0cd$__9063ebcc861e906064016040805180830381865af41580156122ea573d6000803e3d6000fd5b505050506040513d601f19601f8201168201806040525081019061230e9190615711565b915091508061231a3390565b6001600160a01b0316867f354501e3216e5f916d4d35ef255a577d106a7eab306488227783a837dc042a4e87604051612357911515815260200190565b60405180910390a4509392505050565b60606001600160a01b037f00000000000000000000000000000000000000000000000000000000000000001630036123b15760405162461bcd60e51b8152600401611791906153a8565b7f00000000000000000000000000000000000000000000000000000000000000006001600160a01b03166123e3613c4c565b6001600160a01b0316146124095760405162461bcd60e51b8152600401611791906153d7565b600354600160a01b900460ff16156124335760405162461bcd60e51b815260040161179190615405565b600354600160a81b900460ff166124845760405162461bcd60e51b8152602060048201526015602482015274155c19dc9859194810d85b1b0814995a9958dd1959605a1b6044820152606401611791565b61248d84613f2e565b61227c848484613ff5565b600354600160a01b900460ff16156124c25760405162461bcd60e51b815260040161179190615405565b6124d263756af45f60e01b613c6d565b61251e5760405162461bcd60e51b815260206004820152601a60248201527f57697468647261772042616c616e636520466f7262696464656e0000000000006044820152606401611791565b6040516001600160a01b038216904780156108fc02916000818181858888f19350505050158015612553573d6000803e3d6000fd5b5050565b60008073__$122c978fc1a65ab69c7a0ac6b07fd0b0cd$__6376fd3e8260448787876040518563ffffffff1660e01b8152600401612598949392919061508d565b602060405180830381865af41580156125b5573d6000803e3d6000fd5b505050506040513d601f19601f820116820180604052508101906125d991906150b2565b9050336001600160a01b031683867fea00ff399a342f54b82233841f91faa5677300e901667e010e9f22aea1ae5931878560405161100d9291906150cb565b60008060008073__$122c978fc1a65ab69c7a0ac6b07fd0b0cd$__630ec7ee0e60448a8a8a8a6040518663ffffffff1660e01b815260040161265e959493929190615882565b606060405180830381865af415801561267b573d6000803e3d6000fd5b505050506040513d601f19601f8201168201806040525081019061269f919061592c565b9250925092506126ac3390565b6001600160a01b03908116908416837fcc1b95900c3e2c3876e4b29283de90ac446bd6049a0df525d14a8c07d36ae70c846126ed60c08d0160a08e016147bb565b6126fd60a08e0160808f016147bb565b604080516001600160a01b0394851681529284166020840152921681830152908c013560608201526080015b60405180910390a4509695505050505050565b600061134530614246565b6000336001600160a01b0316837ffe1617b569bd167ab40b31e034f68e32656219dbe4ab9469a00660550fec72c884604051612787911515815260200190565b60405180910390a3604051625d742f60e01b8152604460048201819052602482018590528315159082015273__$bc3cfbaf1827cbc66e3e608da812a405b7$__90625d742f9060640161112a565b60405163087d8e2b60e41b81526044600482018190526024820183905260009173__$c43b1d7058274a71a9734d16e6b6586431$__916387d8e2b09101611068565b6040516000906001600160a01b03831690849033907fd992f85df7a0be47c44b0be141be17eefd360033a4ce05b5458fba27b7781999908590a460405163424afd2b60e11b8152604460048201819052602482018590526001600160a01b0384169082015273__$340101a45712d3611711048793ce62ace0$__90638495fa569060640161112a565b604051630c59f43160e21b81526044600482018190526024820183905260009173__$c43b1d7058274a71a9734d16e6b6586431$__91633167d0c49101611068565b6000805b8281101561298b5783838281811061290057612900615316565b905060400201602001602081019061291891906147bb565b6001600160a01b031684848381811061293357612933615316565b905060400201600001356129443390565b6001600160a01b03167fd992f85df7a0be47c44b0be141be17eefd360033a4ce05b5458fba27b778199960405160405180910390a4806129838161597a565b9150506128e6565b50604051630803bd0960e41b815273__$340101a45712d3611711048793ce62ace0$__9063803bd0909061112a9060449087908790600401615993565b604051636cc77b1160e11b81526044600482018190526024820183905260009173__$c43b1d7058274a71a9734d16e6b6586431$__9163d98ef6229101611068565b6060600073__$340101a45712d3611711048793ce62ace0$__6368b38e0f604486866040518463ffffffff1660e01b8152600401612a4a939291906159e8565b600060405180830381865af4158015612a67573d6000803e3d6000fd5b505050506040513d6000823e601f3d908101601f19168201604052612a8f91908101906151e8565b905060005b83811015612bb357848482818110612aae57612aae615316565b9050602002810190612ac09190615abf565b612ace906020810190615adf565b604051612adc92919061549b565b6040518091039020828281518110612af657612af6615316565b6020026020010151612b053390565b6001600160a01b03167f539b07dddd6bd9ffefa3d951a9467d78948cbe1a8d13be00e7376842a83a5981888886818110612b4157612b41615316565b9050602002810190612b539190615abf565b35898987818110612b6657612b66615316565b9050602002810190612b789190615abf565b612b89906060810190604001614a0e565b6040805192835290151560208301520160405180910390a480612bab8161597a565b915050612a94565b509392505050565b6040805160c081018252600080825260208201819052818301819052606082018190526080820181905260a08201529051639bbafb1160e01b81526044600482018190526024820184905273__$122c978fc1a65ab69c7a0ac6b07fd0b0cd$__91639bbafb11910160c060405180830381865af4158015612c40573d6000803e3d6000fd5b505050506040513d601f19601f82011682018060405250810190610f469190615b25565b60405163ce34a66d60e01b81526044600482018190526024820183905260009173__$c43b1d7058274a71a9734d16e6b6586431$__9163ce34a66d9101611068565b6040516342ef199b60e11b81526044600482018190526001600160a01b038316602483015260009173__$c43b1d7058274a71a9734d16e6b6586431$__916385de33369101611068565b60008073__$340101a45712d3611711048793ce62ace0$__63881d86766044888888886040518663ffffffff1660e01b8152600401612d33959493929190615bb6565b602060405180830381865af4158015612d50573d6000803e3d6000fd5b505050506040513d601f19601f82011682018060405250810190612d7491906150b2565b90508585604051612d8692919061549b565b604051809103902081612d963390565b6001600160a01b03167f539b07dddd6bd9ffefa3d951a9467d78948cbe1a8d13be00e7376842a83a59818787604051612ddb9291909182521515602082015260400190565b60405180910390a495945050505050565b6040516337455c0b60e21b815260009073__$c43b1d7058274a71a9734d16e6b6586431$__9063dd15702c9061112a9060449087908790600401615102565b60008073__$122c978fc1a65ab69c7a0ac6b07fd0b0cd$__634a56c0b8604486866040518463ffffffff1660e01b8152600401612e6a93929190615102565b602060405180830381865af4158015612e87573d6000803e3d6000fd5b505050506040513d601f19601f82011682018060405250810190612eab91906150b2565b9050336001600160a01b0316847fa6234dfea6da9d63d0505ba9b61ac8405dfd897089208859cda18011c4847d698584604051612ee99291906150cb565b60405180910390a35060019392505050565b6000336001600160a01b0316837fe595d6b009cbfd06bfdfc4b7c06799f0e0b08fb2c6f5fa6e28a9aac2495440f984604051612f3b911515815260200190565b60405180910390a36040516311cc3c7760e01b8152604460048201819052602482018590528315159082015273__$6309dd7d2656d358c392b35d5c4e4605f9$__906311cc3c779060640161112a565b60405163014ac83b60e61b815260446004820181905260248201839052606091600091829173__$340101a45712d3611711048793ce62ace0$__916352b20ec09101600060405180830381865af4158015612fea573d6000803e3d6000fd5b505050506040513d6000823e601f3d908101601f191682016040526113d19190810190615be9565b6040516377f616af60e11b81526044600482018190526001600160a01b038316602483015260009173__$c43b1d7058274a71a9734d16e6b6586431$__9163efec2d5e9101611068565b6040516374e7db3960e11b81526044600482018190526001600160a01b038316602483015260009173__$c43b1d7058274a71a9734d16e6b6586431$__9163e9cfb6729101611068565b60405163226d6a0d60e21b81526044600482018190526024820183905260009173__$c43b1d7058274a71a9734d16e6b6586431$__916389b5a8349101611068565b6000805b828110156131915783838281811061310657613106615316565b905060400201602001602081019061311e91906147bb565b6001600160a01b031684848381811061313957613139615316565b9050604002016000013561314a3390565b6001600160a01b03167f1d31fe42f06d4c1f16f6cb7b5682f1d6743641a9e1412fa0258f6776c5b943ee60405160405180910390a4806131898161597a565b9150506130ec565b5060405163608f85ef60e01b815273__$340101a45712d3611711048793ce62ace0$__9063608f85ef9061112a9060449087908790600401615993565b60405163289ea12d60e11b8152604460048201819052602482018590526001600160a01b038416908201526001600160e01b03198216606482015260009073__$c43b1d7058274a71a9734d16e6b6586431$__9063513d425a9060840161223b565b604051636861fc1160e01b8152604460048201819052602482018490526001600160a01b0383169082015260009073__$340101a45712d3611711048793ce62ace0$__90636861fc119060640161112a565b60405163adfc581b60e01b81526044600482018190526024820184905281018290526000908190819073__$122c978fc1a65ab69c7a0ac6b07fd0b0cd$__9063adfc581b906064016040805180830381865af41580156132e6573d6000803e3d6000fd5b505050506040513d601f19601f8201168201806040525081019061330a9190615711565b91509150836133163390565b6001600160a01b0316867fa0eaa0025d4f12545803a03c369115c59f885df7b5fc07a6393438827dbf51b78460405161235791815260200190565b60405163cb3db3a360e01b815260446004820181905260248201849052810182905260009073__$bc3cfbaf1827cbc66e3e608da812a405b7$__9063cb3db3a39060640161112a565b6040516357dc938360e11b81526044600482018190526001600160a01b038316602483015260009173__$c43b1d7058274a71a9734d16e6b6586431$__9163afb927069101611068565b60006001600160a01b037f000000000000000000000000000000000000000000000000000000000000000016300361342e5760405162461bcd60e51b8152600401611791906153a8565b7f00000000000000000000000000000000000000000000000000000000000000006001600160a01b0316613460613c4c565b6001600160a01b0316146134865760405162461bcd60e51b8152600401611791906153d7565b600354600160a01b900460ff16156134b05760405162461bcd60e51b815260040161179190615405565b6134c063d9dc1f1960e01b613c6d565b61350c5760405162461bcd60e51b815260206004820152601760248201527f5365744c6f63616c41646d696e20466f7262696464656e0000000000000000006044820152606401611791565b6001600160a01b0382166135545760405162461bcd60e51b815260206004820152600f60248201526e1059191c995cdcc8125b9d985b1a59608a1b6044820152606401611791565b61355d82614285565b506001919050565b604051631912cf4360e01b81526044600482018190526024820184905281018290526000908190819073__$340101a45712d3611711048793ce62ace0$__90631912cf43906064016040805180830381865af41580156135c9573d6000803e3d6000fd5b505050506040513d601f19601f820116820180604052508101906135ed9190615711565b9150915083856135fa3390565b6001600160a01b03167f970f60a11b3302f55122bdb3e2de766d28491b40fe0a2a6d04da71e5ab577cb98460405161235791815260200190565b604051634df89d6f60e01b81526044600482018190526024820183905260009173__$c43b1d7058274a71a9734d16e6b6586431$__91634df89d6f9101611068565b6040516000906001600160a01b03831690849033907f1d31fe42f06d4c1f16f6cb7b5682f1d6743641a9e1412fa0258f6776c5b943ee908590a46040516391de53cf60e01b8152604460048201819052602482018590526001600160a01b0384169082015273__$340101a45712d3611711048793ce62ace0$__906391de53cf9060640161112a565b6040516384f27d3560e01b81526044600482018190526024820183905260609173__$340101a45712d3611711048793ce62ace0$__916384f27d359101600060405180830381865af4158015613759573d6000803e3d6000fd5b505050506040513d6000823e601f3d908101601f19168201604052610f469190810190615c38565b60405163580cea9d60e11b81526044600482018190526024820183905260009173__$c43b1d7058274a71a9734d16e6b6586431$__9163b019d53a9101611068565b600080600073__$122c978fc1a65ab69c7a0ac6b07fd0b0cd$__63542a580860448a8a8a8a8a6040518763ffffffff1660e01b815260040161380a96959493929190615d15565b6040805180830381865af4158015613826573d6000803e3d6000fd5b505050506040513d601f19601f8201168201806040525081019061384a9190615dde565b91509150806001600160a01b0316826001600160a01b0316897f2acec3419c1d10dab06d0715f556e96b344f2092a52a23fb192b4b89f5b7cf42896040013560405161272991815260200190565b604051633f75a32d60e01b815260446004820181905260248201849052821515908201526000908190819073__$340101a45712d3611711048793ce62ace0$__90633f75a32d906064016040805180830381865af41580156138fe573d6000803e3d6000fd5b505050506040513d601f19601f820116820180604052508101906139229190615711565b91509150808561392f3390565b6001600160a01b03167faaf3a0e62c1102e283a5a18e81d678b9ce6f4f043cc7afafee4f7f82b85330a287604051612357911515815260200190565b60405163648e910b60e11b81526044600482018190526024820183905260609173__$6309dd7d2656d358c392b35d5c4e4605f9$__9163c91d221691016112f1565b600080600073__$122c978fc1a65ab69c7a0ac6b07fd0b0cd$__636da4c23c6044898989896040518663ffffffff1660e01b81526004016139f2959493929190615e0d565b6040805180830381865af4158015613a0e573d6000803e3d6000fd5b505050506040513d601f19601f82011682018060405250810190613a329190615e49565b90925090506001600160a01b038116613a5160808801606089016147bb565b6001600160a01b0316837f2a2b33fd7e66815f7a7bea7d796d5c587e39efd4b142c4a9ab63b8becc98feb433604080516001600160a01b039092168252808c013560208301520160405180910390a45095945050505050565b6000336001600160a01b0316837f552ce1fc1bc82a48cdc0636ff7162480d868c590f2e57c63c30a944f3a82ec3684604051613aea911515815260200190565b60405180910390a3604051632efee30760e21b8152604460048201819052602482018590528315159082015273__$bc3cfbaf1827cbc66e3e608da812a405b7$__9063bbfb8c1c9060640161112a565b60405163343f6e0960e11b815260446004820181905260248201849052810182905260009073__$6309dd7d2656d358c392b35d5c4e4605f9$__9063687edc129060640161112a565b600061134560008054600154604080517f8b73c3c69bb8fe3d512ecc4cf759cc79239f7b179b0ffacaa9a75d522b39400f60208201529081019290925260608201524660808201523060a082015260c00160405160208183030381529060405280519060200120905090565b6000611345613ef0565b90565b60006001600160e01b031982166314751dbf60e01b1480613c2d57506001600160e01b031982166352d1902d60e01b145b80610f4657506301ffc9a760e01b6001600160e01b0319831614610f46565b6000600080516020615ee28339815191525b546001600160a01b0316919050565b6003546000906001600160a01b03163003613d5b5760006363d59cf360e11b613c9530614246565b3385604051602401613ca993929190615e6e565b60408051601f198184030181529190526020810180516001600160e01b03166001600160e01b03199093169290921790915290506000613d26613cea613c4c565b836040518060400160405280601d81526020017f44656c656761746563616c6c20686173416363657373204661696c65640000008152506142fc565b90508060018251613d379190615e97565b81518110613d4757613d47615316565b60209101015160f81c600114949350505050565b6003546001600160a01b031663c7ab39e6613d7530614246565b33856040518463ffffffff1660e01b8152600401613d9593929190615e6e565b602060405180830381865afa158015611085573d6000803e3d6000fd5b6003546000906001600160a01b03163003613e7a57600063e25d75f060e01b600254604051602401613de691815260200190565b60408051601f198184030181529190526020810180516001600160e01b03166001600160e01b03199093169290921790915290506000613e46613e27613c4c565b83604051806060016040528060258152602001615ebd602591396142fc565b90508060018251613e579190615e97565b81518110613e6757613e67615316565b60209101015160f81c6001149392505050565b600354600254604051630e25d75f60e41b81526001600160a01b039092169163e25d75f091613eaf9160040190815260200190565b602060405180830381865afa158015613ecc573d6000803e3d6000fd5b505050506040513d601f19601f8201168201806040525081019061134591906150e5565b60007fb53127684a568b3173ae13b9f8a6016e243e63b6e8ee1178d6a717850b5d6103613c5e565b613f268686868686866143c5565b505050505050565b613f36613c4c565b6001600160a01b0316816001600160a01b031603613f965760405162461bcd60e51b815260206004820152601a60248201527f496c6c6567616c204e657720496d706c656d656e746174696f6e0000000000006044820152606401611791565b613fa6637147855d60e01b613c6d565b613ff25760405162461bcd60e51b815260206004820152601960248201527f5570677261646520436f6e7465787420466f7262696464656e000000000000006044820152606401611791565b50565b60607f4910fdfa16fed3260ed0e7147f7cc6da11a60208b5b9406d12a635614ffd91435460ff161561403f5761402a846145d3565b5060408051600081526020810190915261101b565b836001600160a01b03166352d1902d6040518163ffffffff1660e01b8152600401602060405180830381865afa925050508015614099575060408051601f3d908101601f19168201909252614096918101906150b2565b60015b6140dd5760405162461bcd60e51b8152602060048201526015602482015274125b1b1959d85b0815555414c810dbdb9d1c9858dd605a1b6044820152606401611791565b600080516020615ee283398151915281146141325760405162461bcd60e51b8152602060048201526015602482015274125b9d985b1a590815555414c810dbdb9d1c9858dd605a1b6044820152606401611791565b506040516301ffc9a760e01b81526314751dbf60e01b60048201526001600160a01b038516906301ffc9a790602401602060405180830381865afa92505050801561419a575060408051601f3d908101601f19168201909252614197918101906150e5565b60015b6141e65760405162461bcd60e51b815260206004820152601760248201527f496c6c6567616c204950726f787920436f6e74726163740000000000000000006044820152606401611791565b806142335760405162461bcd60e51b815260206004820152601760248201527f496e76616c6964204950726f787920436f6e74726163740000000000000000006044820152606401611791565b5061423f848484614654565b905061101b565b6040516bffffffffffffffffffffffff19606083901b166020820152600090603401604051602081830303815290604052805190602001209050919050565b7fb53127684a568b3173ae13b9f8a6016e243e63b6e8ee1178d6a717850b5d610380546001600160a01b0383166001600160a01b031990911681179091556040805191825251309133917f54ab0d18de7958786ba1ad85966d59baa2b395455f0530dcdcfd732e6af539e29181900360200190a350565b60606001600160a01b0384163b6143505760405162461bcd60e51b8152602060048201526018602482015277496c6c6567616c20436f6e7472616374204164647265737360401b6044820152606401611791565b600080856001600160a01b03168560405161436b9190615eaa565b600060405180830381855af49150503d80600081146143a6576040519150601f19603f3d011682016040523d82523d6000602084013e6143ab565b606091505b50915091506143bb8282866146be565b9695505050505050565b60495462010000900460ff1661441d5760405162461bcd60e51b815260206004820152601960248201527f436f6e7472616374204e6f7420496e697469616c697a696e67000000000000006044820152606401611791565b858560405160200161443092919061549b565b60408051601f1981840301815290829052805160209182012060005561445a91869186910161549b565b60408051601f19818403018152919052805160209091012060015560028290556001600160a01b03811661449f57600380546001600160a01b031916301790556145bc565b6040516301ffc9a760e01b81526314b8343560e31b60048201526001600160a01b038216906301ffc9a790602401602060405180830381865afa925050508015614506575060408051601f3d908101601f19168201909252614503918101906150e5565b60015b6145525760405162461bcd60e51b815260206004820152601c60248201527f496c6c6567616c20416363657373436f6e74726f6c4d616e61676572000000006044820152606401611791565b8061459f5760405162461bcd60e51b815260206004820152601c60248201527f496e76616c696420416363657373436f6e74726f6c4d616e61676572000000006044820152606401611791565b50600380546001600160a01b0319166001600160a01b0383161790555b6003805461ffff60a01b19169055613f2633614285565b6001600160a01b0381163b6146255760405162461bcd60e51b8152602060048201526018602482015277496c6c6567616c20436f6e7472616374204164647265737360401b6044820152606401611791565b600080516020615ee283398151915280546001600160a01b0319166001600160a01b0392909216919091179055565b606061465f846146f7565b60008351118061466c5750815b156146a75761423f84846040518060400160405280601381526020017211195b1959d85d1958d85b1b0811985a5b1959606a1b8152506142fc565b505060408051600081526020810190915292915050565b606083156146cd57508161101b565b8251156146dd5782518084602001fd5b8160405162461bcd60e51b81526004016117919190614cf9565b614700816145d3565b6040516001600160a01b03821690309033907f354bd4b6eb65d64e6c79c53fa4f983a5e6bec4824ce4627c71be0b2722f4917e90600090a450565b6001600160e01b031981168114613ff257600080fd5b60006020828403121561476357600080fd5b813561101b8161473b565b60008060006060848603121561478357600080fd5b8335925060208401356147958161473b565b929592945050506040919091013590565b6001600160a01b0381168114613ff257600080fd5b6000602082840312156147cd57600080fd5b813561101b816147a6565b6000602082840312156147ea57600080fd5b5035919050565b6000806040838503121561480457600080fd5b8235915060208301356148168161473b565b809150509250929050565b6020808252825182820181905260009190848201906040850190845b818110156148635783516001600160e01b0319168352928401929184019160010161483d565b50909695505050505050565b6020808252825182820181905260009190848201906040850190845b818110156148635783518352928401929184019160010161488b565b60005b838110156148c25781810151838201526020016148aa565b50506000910152565b600081518084526148e38160208601602086016148a7565b601f01601f19169290920160200192915050565b60608152600061490a60608301866148cb565b931515602083015250901515604090910152919050565b6020808252825182820181905260009190848201906040850190845b818110156148635783516001600160a01b03168352928401929184019160010161493d565b60008083601f84011261497457600080fd5b5081356001600160401b0381111561498b57600080fd5b6020830191508360208285010111156149a357600080fd5b9250929050565b8015158114613ff257600080fd5b6000806000604084860312156149cd57600080fd5b83356001600160401b038111156149e357600080fd5b6149ef86828701614962565b9094509250506020840135614a03816149aa565b809150509250925092565b600060208284031215614a2057600080fd5b813561101b816149aa565b60008060008060608587031215614a4157600080fd5b84356001600160401b03811115614a5757600080fd5b614a6387828801614962565b9095509350506020850135614a77816149aa565b91506040850135614a87816149aa565b939692955090935050565b60008060008060008060006080888a031215614aad57600080fd5b87356001600160401b0380821115614ac457600080fd5b614ad08b838c01614962565b909950975060208a0135915080821115614ae957600080fd5b614af58b838c01614962565b909750955060408a0135915080821115614b0e57600080fd5b50614b1b8a828b01614962565b9094509250506060880135614b2f816147a6565b8091505092959891949750929550565b604081526000614b5260408301856148cb565b905082151560208301529392505050565b600080600060608486031215614b7857600080fd5b83359250602084013591506040840135614a038161473b565b60008060408385031215614ba457600080fd5b823591506020830135614816816149aa565b634e487b7160e01b600052604160045260246000fd5b604051606081016001600160401b0381118282101715614bee57614bee614bb6565b60405290565b604051601f8201601f191681016001600160401b0381118282101715614c1c57614c1c614bb6565b604052919050565b60006001600160401b03821115614c3d57614c3d614bb6565b50601f01601f191660200190565b600082601f830112614c5c57600080fd5b8135614c6f614c6a82614c24565b614bf4565b818152846020838601011115614c8457600080fd5b816020850160208301376000918101602001919091529392505050565b600080600060608486031215614cb657600080fd5b8335614cc1816147a6565b925060208401356001600160401b03811115614cdc57600080fd5b614ce886828701614c4b565b9250506040840135614a03816149aa565b60208152600061101b60208301846148cb565b60008083601f840112614d1e57600080fd5b5081356001600160401b03811115614d3557600080fd5b6020830191508360208260051b85010111156149a357600080fd5b600080600080848603610120811215614d6857600080fd5b85356001600160401b0380821115614d7f57600080fd5b614d8b89838a01614c4b565b965060e0601f1984011215614d9f57600080fd5b602088019550610100880135925080831115614dba57600080fd5b5050614dc887828801614d0c565b95989497509550505050565b60008060408385031215614de757600080fd5b823591506020830135614816816147a6565b60008060208385031215614e0c57600080fd5b82356001600160401b0380821115614e2357600080fd5b818501915085601f830112614e3757600080fd5b813581811115614e4657600080fd5b8660208260061b8501011115614e5b57600080fd5b60209290920196919550909350505050565b60008060208385031215614e8057600080fd5b82356001600160401b03811115614e9657600080fd5b614ea285828601614d0c565b90969095509350505050565b60008060008060608587031215614ec457600080fd5b84356001600160401b03811115614eda57600080fd5b614ee687828801614962565b909550935050602085013591506040850135614a87816149aa565b606081526000614f1460608301866148cb565b602083019490945250901515604090910152919050565b600080600060608486031215614f4057600080fd5b833592506020840135614f52816147a6565b91506040840135614a038161473b565b60008060408385031215614f7557600080fd5b50508035926020909101359150565b600060a08284031215614f9657600080fd5b50919050565b60008060008060006101008688031215614fb557600080fd5b8535945060208601356001600160401b0380821115614fd357600080fd5b614fdf89838a01614c4b565b9550614fee8960408a01614f84565b945060e088013591508082111561500457600080fd5b5061501188828901614d0c565b969995985093965092949392505050565b60008060008060e0858703121561503857600080fd5b84356001600160401b038082111561504f57600080fd5b61505b88838901614c4b565b955061506a8860208901614f84565b945060c087013591508082111561508057600080fd5b50614dc887828801614d0c565b93845260208401929092526001600160e01b0319166040830152606082015260800190565b6000602082840312156150c457600080fd5b5051919050565b6001600160e01b0319929092168252602082015260400190565b6000602082840312156150f757600080fd5b815161101b816149aa565b92835260208301919091526001600160e01b031916604082015260600190565b60006001600160401b0382111561513b5761513b614bb6565b5060051b60200190565b600082601f83011261515657600080fd5b81516020615166614c6a83615122565b82815260059290921b8401810191818101908684111561518557600080fd5b8286015b848110156151a957805161519c8161473b565b8352918301918301615189565b509695505050505050565b6000602082840312156151c657600080fd5b81516001600160401b038111156151dc57600080fd5b61227c84828501615145565b600060208083850312156151fb57600080fd5b82516001600160401b0381111561521157600080fd5b8301601f8101851361522257600080fd5b8051615230614c6a82615122565b81815260059190911b8201830190838101908783111561524f57600080fd5b928401925b8284101561526d57835182529284019290840190615254565b979650505050505050565b600082601f83011261528957600080fd5b8151615297614c6a82614c24565b8181528460208386010111156152ac57600080fd5b61227c8260208301602087016148a7565b6000806000606084860312156152d257600080fd5b83516001600160401b038111156152e857600080fd5b6152f486828701615278565b9350506020840151615305816149aa565b6040850151909250614a03816149aa565b634e487b7160e01b600052603260045260246000fd5b81835281816020850137506000828201602090810191909152601f909101601f19169091010190565b84815260606020820152600061536f60608301858761532c565b9050821515604083015295945050505050565b60408152600061539660408301858761532c565b90508215156020830152949350505050565b602080825260159082015274125b1b1959d85b0810dbdb9d1c9858dd0810d85b1b605a1b604082015260600190565b602080825260149082015273141c9bde1e4810d85b1b195908125b9d985b1a5960621b604082015260600190565b60208082526017908201527f536166654d6f64653a2043616c6c2052656a6563746564000000000000000000604082015260600190565b85815260806020820152600061545660808301868861532c565b9315156040830152509015156060909101529392505050565b60608152600061548360608301868861532c565b93151560208301525090151560409091015292915050565b8183823760009101908152919050565b600060208083850312156154be57600080fd5b82516001600160401b03808211156154d557600080fd5b818501915085601f8301126154e957600080fd5b81516154f7614c6a82615122565b81815260059190911b8301840190848101908883111561551657600080fd5b8585015b838110156155a1578051858111156155325760008081fd5b86016060818c03601f190181131561554a5760008081fd5b615552614bcc565b8983015181526040808401518981111561556c5760008081fd5b61557a8f8d83880101615145565b838d015250928201519261558d846149aa565b81019290925250835291860191860161551a565b5098975050505050505050565b60006080808301878452602060018060a01b03881681860152604087818701526060848188015283885180865260a08901915060a08160051b8a01019550848a016000805b83811015615672578b8903609f19018552825180518a5288810151898b018890528051888c01819052908a019084908d8d01905b808310156156515783516001600160e01b0319168252928c019260019290920191908c0190615627565b50928a015115159b8a019b909b5250985093870193918701916001016155f3565b50969e9d5050505050505050505050505050565b60808152600061569a60808301888a61532c565b82810360208401526156ad81878961532c565b91505083604083015261ffff83166060830152979650505050505050565b600080604083850312156156de57600080fd5b82516001600160401b038111156156f457600080fd5b61570085828601615278565b9250506020830151614816816149aa565b6000806040838503121561572457600080fd5b825161572f816149aa565b6020939093015192949293505050565b6000808335601e1984360301811261575657600080fd5b83016020810192503590506001600160401b0381111561577557600080fd5b8060051b36038213156149a357600080fd5b8183526000602080850194508260005b858110156157c65781356157aa8161473b565b6001600160e01b03191687529582019590820190600101615797565b509495945050505050565b60008235605e198336030181126157e757600080fd5b90910192915050565b81835260006020808501808196508560051b810191508460005b8781101561587557828403895261582182886157d1565b6060813586526158338783018361573f565b82898901526158458389018284615787565b92505050604080830135925061585a836149aa565b9115159590910194909452978401979084019060010161580a565b5091979650505050505050565b600061014087835280602084015261589c818401886148cb565b9050853560408401526020860135606084015260408601356080840152606086013560a084015260808601356158d1816147a6565b6001600160a01b0390811660c085015260a0870135906158f0826147a6565b1660e084015260c0860135615904816149aa565b15156101008401528281036101208401526159208185876157f0565b98975050505050505050565b60008060006060848603121561594157600080fd5b835161594c816147a6565b602085015160408601519194509250614a03816147a6565b634e487b7160e01b600052601160045260246000fd5b60006001820161598c5761598c615964565b5060010190565b8381526040602080830182905282820184905260009190859060608501845b878110156155a15783358252828401356159cb816147a6565b6001600160a01b03168284015292840192908401906001016159b2565b600060408083018684526020828186015281868352606092508286019050828760051b8701018860005b89811015615aaf57888303605f19018452615a2d828c6157d1565b8035845285810135601e19823603018112615a4757600080fd5b810186810190356001600160401b03811115615a6257600080fd5b803603821315615a7157600080fd5b8888870152615a83898701828461532c565b915050888201359150615a95826149aa565b901515938801939093529284019290840190600101615a12565b50909a9950505050505050505050565b60008235605e19833603018112615ad557600080fd5b9190910192915050565b6000808335601e19843603018112615af657600080fd5b8301803591506001600160401b03821115615b1057600080fd5b6020019150368190038213156149a357600080fd5b600060c08284031215615b3757600080fd5b60405160c081018181106001600160401b0382111715615b5957615b59614bb6565b80604052508251815260208301516020820152604083015160408201526060830151615b84816147a6565b60608201526080830151615b97816149aa565b608082015260a0830151615baa816149aa565b60a08201529392505050565b858152608060208201526000615bd060808301868861532c565b6040830194909452509015156060909101529392505050565b600080600060608486031215615bfe57600080fd5b83516001600160401b03811115615c1457600080fd5b615c2086828701615278565b935050602084015191506040840151614a03816149aa565b60006020808385031215615c4b57600080fd5b82516001600160401b03811115615c6157600080fd5b8301601f81018513615c7257600080fd5b8051615c80614c6a82615122565b81815260059190911b82018301908381019087831115615c9f57600080fd5b928401925b8284101561526d578351615cb7816147a6565b82529284019290840190615ca4565b8035825260208101356020830152604081013560408301526060810135615cec816147a6565b6001600160a01b031660608301526080810135615d08816149aa565b8015156080840152505050565b60006101208883526020888185015260408281860152615d378386018a6148cb565b92506060615d478187018a615cc6565b858403610100870152868452828401600588901b85018401896000805b8b811015615dc957888403601f19018552615d7f838e6157d1565b80358552615d8f8982018261573f565b888b880152615da18988018284615787565b928a01359291505060038210615db5578384fd5b948801529387019391870191600101615d64565b50919f9e505050505050505050505050505050565b60008060408385031215615df157600080fd5b8251615dfc816147a6565b6020840151909250614816816147a6565b6000610100878352806020840152615e27818401886148cb565b9050615e366040840187615cc6565b82810360e08401526159208185876157f0565b60008060408385031215615e5c57600080fd5b825191506020830151614816816147a6565b9283526001600160a01b039190911660208301526001600160e01b031916604082015260600190565b81810381811115610f4657610f46615964565b60008251615ad58184602087016148a756fe44656c656761746563616c6c2069735265616c6d55706772616461626c65204661696c6564360894a13ba1a3210667c828492db98dca3e2076cc3735a920a3ca505d382bbca26469706673582212200b2d9232027f90f5f141cadc4db6f782e61973031e7d2fe1e1184def539d87ef64736f6c63430008110033b53127684a568b3173ae13b9f8a6016e243e63b6e8ee1178d6a717850b5d6103",
  "linkReferences": {
    "src/contracts/lib/acl/LAccessControl.sol": {
      "LAccessControl": [
        {
          "length": 20,
          "start": 4627
        },
        {
          "length": 20,
          "start": 4754
        },
        {
          "length": 20,
          "start": 4804
        },
        {
          "length": 20,
          "start": 4948
        },
        {
          "length": 20,
          "start": 5144
        },
        {
          "length": 20,
          "start": 5210
        },
        {
          "length": 20,
          "start": 5582
        },
        {
          "length": 20,
          "start": 6189
        },
        {
          "length": 20,
          "start": 6899
        },
        {
          "length": 20,
          "start": 7433
        },
        {
          "length": 20,
          "start": 7714
        },
        {
          "length": 20,
          "start": 7780
        },
        {
          "length": 20,
          "start": 7997
        },
        {
          "length": 20,
          "start": 8518
        },
        {
          "length": 20,
          "start": 8613
        },
        {
          "length": 20,
          "start": 10686
        },
        {
          "length": 20,
          "start": 10889
        },
        {
          "length": 20,
          "start": 11185
        },
        {
          "length": 20,
          "start": 11853
        },
        {
          "length": 20,
          "start": 11927
        },
        {
          "length": 20,
          "start": 12229
        },
        {
          "length": 20,
          "start": 12803
        },
        {
          "length": 20,
          "start": 12877
        },
        {
          "length": 20,
          "start": 12943
        },
        {
          "length": 20,
          "start": 13269
        },
        {
          "length": 20,
          "start": 13707
        },
        {
          "length": 20,
          "start": 14365
        },
        {
          "length": 20,
          "start": 14698
        }
      ]
    },
    "src/contracts/lib/acl/LContextManagement.sol": {
      "LContextManagement": [
        {
          "length": 20,
          "start": 4376
        },
        {
          "length": 20,
          "start": 5014
        },
        {
          "length": 20,
          "start": 5654
        },
        {
          "length": 20,
          "start": 6226
        },
        {
          "length": 20,
          "start": 8742
        },
        {
          "length": 20,
          "start": 9188
        },
        {
          "length": 20,
          "start": 9336
        },
        {
          "length": 20,
          "start": 10019
        },
        {
          "length": 20,
          "start": 10215
        },
        {
          "length": 20,
          "start": 11727
        },
        {
          "length": 20,
          "start": 12279
        },
        {
          "length": 20,
          "start": 13428
        },
        {
          "length": 20,
          "start": 14737
        },
        {
          "length": 20,
          "start": 15227
        }
      ]
    },
    "src/contracts/lib/acl/LGroupManagement.sol": {
      "LGroupManagement": [
        {
          "length": 20,
          "start": 5870
        },
        {
          "length": 20,
          "start": 5942
        },
        {
          "length": 20,
          "start": 9028
        },
        {
          "length": 20,
          "start": 12592
        },
        {
          "length": 20,
          "start": 15188
        },
        {
          "length": 20,
          "start": 15656
        }
      ]
    },
    "src/contracts/lib/acl/LRealmManagement.sol": {
      "LRealmManagement": [
        {
          "length": 20,
          "start": 5276
        },
        {
          "length": 20,
          "start": 5432
        },
        {
          "length": 20,
          "start": 5726
        },
        {
          "length": 20,
          "start": 7470
        },
        {
          "length": 20,
          "start": 10619
        },
        {
          "length": 20,
          "start": 13631
        },
        {
          "length": 20,
          "start": 15583
        }
      ]
    },
    "src/contracts/lib/acl/LRoleManagement.sol": {
      "LRoleManagement": [
        {
          "length": 20,
          "start": 5798
        },
        {
          "length": 20,
          "start": 10821
        },
        {
          "length": 20,
          "start": 11106
        },
        {
          "length": 20,
          "start": 11223
        },
        {
          "length": 20,
          "start": 11964
        },
        {
          "length": 20,
          "start": 12665
        },
        {
          "length": 20,
          "start": 13160
        },
        {
          "length": 20,
          "start": 13351
        },
        {
          "length": 20,
          "start": 14167
        },
        {
          "length": 20,
          "start": 14500
        },
        {
          "length": 20,
          "start": 14568
        },
        {
          "length": 20,
          "start": 14988
        }
      ]
    }
  },
  "deployedLinkReferences": {
    "src/contracts/lib/acl/LAccessControl.sol": {
      "LAccessControl": [
        {
          "length": 20,
          "start": 4172
        },
        {
          "length": 20,
          "start": 4299
        },
        {
          "length": 20,
          "start": 4349
        },
        {
          "length": 20,
          "start": 4493
        },
        {
          "length": 20,
          "start": 4689
        },
        {
          "length": 20,
          "start": 4755
        },
        {
          "length": 20,
          "start": 5127
        },
        {
          "length": 20,
          "start": 5734
        },
        {
          "length": 20,
          "start": 6444
        },
        {
          "length": 20,
          "start": 6978
        },
        {
          "length": 20,
          "start": 7259
        },
        {
          "length": 20,
          "start": 7325
        },
        {
          "length": 20,
          "start": 7542
        },
        {
          "length": 20,
          "start": 8063
        },
        {
          "length": 20,
          "start": 8158
        },
        {
          "length": 20,
          "start": 10231
        },
        {
          "length": 20,
          "start": 10434
        },
        {
          "length": 20,
          "start": 10730
        },
        {
          "length": 20,
          "start": 11398
        },
        {
          "length": 20,
          "start": 11472
        },
        {
          "length": 20,
          "start": 11774
        },
        {
          "length": 20,
          "start": 12348
        },
        {
          "length": 20,
          "start": 12422
        },
        {
          "length": 20,
          "start": 12488
        },
        {
          "length": 20,
          "start": 12814
        },
        {
          "length": 20,
          "start": 13252
        },
        {
          "length": 20,
          "start": 13910
        },
        {
          "length": 20,
          "start": 14243
        }
      ]
    },
    "src/contracts/lib/acl/LContextManagement.sol": {
      "LContextManagement": [
        {
          "length": 20,
          "start": 3921
        },
        {
          "length": 20,
          "start": 4559
        },
        {
          "length": 20,
          "start": 5199
        },
        {
          "length": 20,
          "start": 5771
        },
        {
          "length": 20,
          "start": 8287
        },
        {
          "length": 20,
          "start": 8733
        },
        {
          "length": 20,
          "start": 8881
        },
        {
          "length": 20,
          "start": 9564
        },
        {
          "length": 20,
          "start": 9760
        },
        {
          "length": 20,
          "start": 11272
        },
        {
          "length": 20,
          "start": 11824
        },
        {
          "length": 20,
          "start": 12973
        },
        {
          "length": 20,
          "start": 14282
        },
        {
          "length": 20,
          "start": 14772
        }
      ]
    },
    "src/contracts/lib/acl/LGroupManagement.sol": {
      "LGroupManagement": [
        {
          "length": 20,
          "start": 5415
        },
        {
          "length": 20,
          "start": 5487
        },
        {
          "length": 20,
          "start": 8573
        },
        {
          "length": 20,
          "start": 12137
        },
        {
          "length": 20,
          "start": 14733
        },
        {
          "length": 20,
          "start": 15201
        }
      ]
    },
    "src/contracts/lib/acl/LRealmManagement.sol": {
      "LRealmManagement": [
        {
          "length": 20,
          "start": 4821
        },
        {
          "length": 20,
          "start": 4977
        },
        {
          "length": 20,
          "start": 5271
        },
        {
          "length": 20,
          "start": 7015
        },
        {
          "length": 20,
          "start": 10164
        },
        {
          "length": 20,
          "start": 13176
        },
        {
          "length": 20,
          "start": 15128
        }
      ]
    },
    "src/contracts/lib/acl/LRoleManagement.sol": {
      "LRoleManagement": [
        {
          "length": 20,
          "start": 5343
        },
        {
          "length": 20,
          "start": 10366
        },
        {
          "length": 20,
          "start": 10651
        },
        {
          "length": 20,
          "start": 10768
        },
        {
          "length": 20,
          "start": 11509
        },
        {
          "length": 20,
          "start": 12210
        },
        {
          "length": 20,
          "start": 12705
        },
        {
          "length": 20,
          "start": 12896
        },
        {
          "length": 20,
          "start": 13712
        },
        {
          "length": 20,
          "start": 14045
        },
        {
          "length": 20,
          "start": 14113
        },
        {
          "length": 20,
          "start": 14533
        }
      ]
    }
  },
  "devdoc": {
    "kind": "dev",
    "methods": {
      "hasAccess(bytes32,address,bytes4)": {
        "details": "Function called by apps to check ACL",
        "returns": {
          "_0": "boolean indicating whether the ACL allows"
        }
      },
      "proxiableUUID()": {
        "details": "Implementation of the ERC1822 {proxiableUUID} function. This returns the storage slot used by the implementation. It is used to validate that the this implementation remains valid after an upgrade. IMPORTANT: A proxy pointing at a proxiable contract should not be considered proxiable itself, because this risks bricking a proxy that upgrades to it, by delegating to itself until out of gas. Thus it is critical that this function revert if invoked through a proxy. This is guaranteed by the `notDelegated` modifier."
      },
      "supportsInterface(bytes4)": {
        "details": "See {IERC165-supportsInterface}."
      }
    },
    "version": 1
  },
  "evm": {
    "bytecode": {
      "linkReferences": {
        "src/contracts/lib/acl/LAccessControl.sol": {
          "LAccessControl": [
            {
              "length": 20,
              "start": 4627
            },
            {
              "length": 20,
              "start": 4754
            },
            {
              "length": 20,
              "start": 4804
            },
            {
              "length": 20,
              "start": 4948
            },
            {
              "length": 20,
              "start": 5144
            },
            {
              "length": 20,
              "start": 5210
            },
            {
              "length": 20,
              "start": 5582
            },
            {
              "length": 20,
              "start": 6189
            },
            {
              "length": 20,
              "start": 6899
            },
            {
              "length": 20,
              "start": 7433
            },
            {
              "length": 20,
              "start": 7714
            },
            {
              "length": 20,
              "start": 7780
            },
            {
              "length": 20,
              "start": 7997
            },
            {
              "length": 20,
              "start": 8518
            },
            {
              "length": 20,
              "start": 8613
            },
            {
              "length": 20,
              "start": 10686
            },
            {
              "length": 20,
              "start": 10889
            },
            {
              "length": 20,
              "start": 11185
            },
            {
              "length": 20,
              "start": 11853
            },
            {
              "length": 20,
              "start": 11927
            },
            {
              "length": 20,
              "start": 12229
            },
            {
              "length": 20,
              "start": 12803
            },
            {
              "length": 20,
              "start": 12877
            },
            {
              "length": 20,
              "start": 12943
            },
            {
              "length": 20,
              "start": 13269
            },
            {
              "length": 20,
              "start": 13707
            },
            {
              "length": 20,
              "start": 14365
            },
            {
              "length": 20,
              "start": 14698
            }
          ]
        },
        "src/contracts/lib/acl/LContextManagement.sol": {
          "LContextManagement": [
            {
              "length": 20,
              "start": 4376
            },
            {
              "length": 20,
              "start": 5014
            },
            {
              "length": 20,
              "start": 5654
            },
            {
              "length": 20,
              "start": 6226
            },
            {
              "length": 20,
              "start": 8742
            },
            {
              "length": 20,
              "start": 9188
            },
            {
              "length": 20,
              "start": 9336
            },
            {
              "length": 20,
              "start": 10019
            },
            {
              "length": 20,
              "start": 10215
            },
            {
              "length": 20,
              "start": 11727
            },
            {
              "length": 20,
              "start": 12279
            },
            {
              "length": 20,
              "start": 13428
            },
            {
              "length": 20,
              "start": 14737
            },
            {
              "length": 20,
              "start": 15227
            }
          ]
        },
        "src/contracts/lib/acl/LGroupManagement.sol": {
          "LGroupManagement": [
            {
              "length": 20,
              "start": 5870
            },
            {
              "length": 20,
              "start": 5942
            },
            {
              "length": 20,
              "start": 9028
            },
            {
              "length": 20,
              "start": 12592
            },
            {
              "length": 20,
              "start": 15188
            },
            {
              "length": 20,
              "start": 15656
            }
          ]
        },
        "src/contracts/lib/acl/LRealmManagement.sol": {
          "LRealmManagement": [
            {
              "length": 20,
              "start": 5276
            },
            {
              "length": 20,
              "start": 5432
            },
            {
              "length": 20,
              "start": 5726
            },
            {
              "length": 20,
              "start": 7470
            },
            {
              "length": 20,
              "start": 10619
            },
            {
              "length": 20,
              "start": 13631
            },
            {
              "length": 20,
              "start": 15583
            }
          ]
        },
        "src/contracts/lib/acl/LRoleManagement.sol": {
          "LRoleManagement": [
            {
              "length": 20,
              "start": 5798
            },
            {
              "length": 20,
              "start": 10821
            },
            {
              "length": 20,
              "start": 11106
            },
            {
              "length": 20,
              "start": 11223
            },
            {
              "length": 20,
              "start": 11964
            },
            {
              "length": 20,
              "start": 12665
            },
            {
              "length": 20,
              "start": 13160
            },
            {
              "length": 20,
              "start": 13351
            },
            {
              "length": 20,
              "start": 14167
            },
            {
              "length": 20,
              "start": 14500
            },
            {
              "length": 20,
              "start": 14568
            },
            {
              "length": 20,
              "start": 14988
            }
          ]
        }
      },
      "opcodes": "PUSH1 0xA0 PUSH1 0x40 MSTORE ADDRESS PUSH1 0x80 MSTORE CALLVALUE DUP1 ISZERO PUSH3 0x15 JUMPI PUSH1 0x0 DUP1 REVERT JUMPDEST POP PUSH3 0x43 PUSH1 0x1 PUSH32 0x360894A13BA1A3210667C828492DB98DCA3E2076CC3735A920A3CA505D382BBD PUSH3 0x127 JUMP JUMPDEST PUSH32 0x360894A13BA1A3210667C828492DB98DCA3E2076CC3735A920A3CA505D382BBC EQ PUSH3 0x74 JUMPI PUSH3 0x74 PUSH3 0x14F JUMP JUMPDEST PUSH3 0xA1 PUSH1 0x1 PUSH32 0xB53127684A568B3173AE13B9F8A6016E243E63B6E8EE1178D6A717850B5D6104 PUSH3 0x127 JUMP JUMPDEST PUSH1 0x0 DUP1 MLOAD PUSH1 0x20 PUSH3 0x60FE DUP4 CODECOPY DUP2 MLOAD SWAP2 MSTORE EQ PUSH3 0xC1 JUMPI PUSH3 0xC1 PUSH3 0x14F JUMP JUMPDEST CALLER PUSH3 0xEA PUSH1 0x0 DUP1 MLOAD PUSH1 0x20 PUSH3 0x60FE DUP4 CODECOPY DUP2 MLOAD SWAP2 MSTORE PUSH1 0x0 SHL PUSH3 0x124 PUSH1 0x20 SHL PUSH3 0x3BF9 OR PUSH1 0x20 SHR JUMP JUMPDEST DUP1 SLOAD PUSH1 0x1 PUSH1 0x1 PUSH1 0xA0 SHL SUB SWAP3 SWAP1 SWAP3 AND PUSH1 0x1 PUSH1 0x1 PUSH1 0xA0 SHL SUB NOT SWAP1 SWAP3 AND SWAP2 SWAP1 SWAP2 OR SWAP1 SSTORE PUSH1 0x3 DUP1 SLOAD PUSH2 0xFFFF PUSH1 0xA0 SHL NOT AND PUSH1 0x1 PUSH1 0xA0 SHL OR SWAP1 SSTORE PUSH3 0x165 JUMP JUMPDEST SWAP1 JUMP JUMPDEST DUP2 DUP2 SUB DUP2 DUP2 GT ISZERO PUSH3 0x149 JUMPI PUSH4 0x4E487B71 PUSH1 0xE0 SHL PUSH1 0x0 MSTORE PUSH1 0x11 PUSH1 0x4 MSTORE PUSH1 0x24 PUSH1 0x0 REVERT JUMPDEST SWAP3 SWAP2 POP POP JUMP JUMPDEST PUSH4 0x4E487B71 PUSH1 0xE0 SHL PUSH1 0x0 MSTORE PUSH1 0x1 PUSH1 0x4 MSTORE PUSH1 0x24 PUSH1 0x0 REVERT JUMPDEST PUSH1 0x80 MLOAD PUSH2 0x5F37 PUSH3 0x1C7 PUSH1 0x0 CODECOPY PUSH1 0x0 DUP2 DUP2 PUSH2 0x1753 ADD MSTORE DUP2 DUP2 PUSH2 0x179C ADD MSTORE DUP2 DUP2 PUSH2 0x1958 ADD MSTORE DUP2 DUP2 PUSH2 0x1998 ADD MSTORE DUP2 DUP2 PUSH2 0x1CCA ADD MSTORE DUP2 DUP2 PUSH2 0x1DA0 ADD MSTORE DUP2 DUP2 PUSH2 0x1DE0 ADD MSTORE DUP2 DUP2 PUSH2 0x2373 ADD MSTORE DUP2 DUP2 PUSH2 0x23B3 ADD MSTORE DUP2 DUP2 PUSH2 0x33F0 ADD MSTORE PUSH2 0x3430 ADD MSTORE PUSH2 0x5F37 PUSH1 0x0 RETURN INVALID PUSH1 0x80 PUSH1 0x40 MSTORE PUSH1 0x4 CALLDATASIZE LT PUSH2 0x43C JUMPI PUSH1 0x0 CALLDATALOAD PUSH1 0xE0 SHR DUP1 PUSH4 0x8F09E0F0 GT PUSH2 0x232 JUMPI DUP1 PUSH4 0xC7AB39E6 GT PUSH2 0x12D JUMPI DUP1 PUSH4 0xE1ED0A82 GT PUSH2 0xB0 JUMPI DUP1 PUSH4 0xF1DF49DA GT PUSH2 0x77 JUMPI DUP1 PUSH4 0xF1DF49DA EQ PUSH2 0xE2B JUMPI DUP1 PUSH4 0xF2C673BD EQ PUSH2 0xE4B JUMPI DUP1 PUSH4 0xF5122C92 EQ PUSH2 0xE6B JUMPI DUP1 PUSH4 0xF698DA25 EQ PUSH2 0xE8B JUMPI DUP1 PUSH4 0xF94A0ADB EQ PUSH2 0xEA0 JUMPI STOP JUMPDEST DUP1 PUSH4 0xE1ED0A82 EQ PUSH2 0xD8B JUMPI DUP1 PUSH4 0xE25D75F0 EQ PUSH2 0xDAB JUMPI DUP1 PUSH4 0xE65BE468 EQ PUSH2 0xDCB JUMPI DUP1 PUSH4 0xE71E224E EQ PUSH2 0xDEB JUMPI DUP1 PUSH4 0xEDF1D1CB EQ PUSH2 0xE0B JUMPI STOP JUMPDEST DUP1 PUSH4 0xD9D34BF8 GT PUSH2 0xF4 JUMPI DUP1 PUSH4 0xD9D34BF8 EQ PUSH2 0xCEB JUMPI DUP1 PUSH4 0xD9DC1F19 EQ PUSH2 0xD0B JUMPI DUP1 PUSH4 0xDBF304B0 EQ PUSH2 0xD2B JUMPI DUP1 PUSH4 0xDC853DD0 EQ PUSH2 0xD4B JUMPI DUP1 PUSH4 0xDF01DE45 EQ PUSH2 0xD6B JUMPI STOP JUMPDEST DUP1 PUSH4 0xC7AB39E6 EQ PUSH2 0xC56 JUMPI DUP1 PUSH4 0xC7EA945C EQ PUSH2 0xC76 JUMPI DUP1 PUSH4 0xD3386401 EQ PUSH2 0xC96 JUMPI DUP1 PUSH4 0xD3E024B8 EQ PUSH2 0xCB6 JUMPI DUP1 PUSH4 0xD9ABA36E EQ PUSH2 0xCCB JUMPI STOP JUMPDEST DUP1 PUSH4 0xB4A0BDF3 GT PUSH2 0x1B5 JUMPI DUP1 PUSH4 0xBE409A11 GT PUSH2 0x17C JUMPI DUP1 PUSH4 0xBE409A11 EQ PUSH2 0xBA7 JUMPI DUP1 PUSH4 0xBE409B57 EQ PUSH2 0xBD6 JUMPI DUP1 PUSH4 0xC34AA021 EQ PUSH2 0xBF6 JUMPI DUP1 PUSH4 0xC48E7AE6 EQ PUSH2 0xC16 JUMPI DUP1 PUSH4 0xC557020A EQ PUSH2 0xC36 JUMPI STOP JUMPDEST DUP1 PUSH4 0xB4A0BDF3 EQ PUSH2 0xB0A JUMPI DUP1 PUSH4 0xB4C4B58F EQ PUSH2 0xB28 JUMPI DUP1 PUSH4 0xB58966DE EQ PUSH2 0xB48 JUMPI DUP1 PUSH4 0xB6C03F03 EQ PUSH2 0xB68 JUMPI DUP1 PUSH4 0xBE22465D EQ PUSH2 0xB88 JUMPI STOP JUMPDEST DUP1 PUSH4 0x9EBF6246 GT PUSH2 0x1F9 JUMPI DUP1 PUSH4 0x9EBF6246 EQ PUSH2 0xA21 JUMPI DUP1 PUSH4 0xA0A8E460 EQ PUSH2 0xA95 JUMPI DUP1 PUSH4 0xA32CE13D EQ PUSH2 0xAAA JUMPI DUP1 PUSH4 0xA92F69C1 EQ PUSH2 0xACA JUMPI DUP1 PUSH4 0xB2DC26E5 EQ PUSH2 0xAEA JUMPI STOP JUMPDEST DUP1 PUSH4 0x8F09E0F0 EQ PUSH2 0x981 JUMPI DUP1 PUSH4 0x91690955 EQ PUSH2 0x9A1 JUMPI DUP1 PUSH4 0x93BA3131 EQ PUSH2 0x9C1 JUMPI DUP1 PUSH4 0x94CFD6E3 EQ PUSH2 0x9E1 JUMPI DUP1 PUSH4 0x9E3A2CEA EQ PUSH2 0xA01 JUMPI STOP JUMPDEST DUP1 PUSH4 0x4944F532 GT PUSH2 0x342 JUMPI DUP1 PUSH4 0x6B3B0159 GT PUSH2 0x2C5 JUMPI DUP1 PUSH4 0x771BCF45 GT PUSH2 0x28C JUMPI DUP1 PUSH4 0x771BCF45 EQ PUSH2 0x8EC JUMPI DUP1 PUSH4 0x7B443379 EQ PUSH2 0x90C JUMPI DUP1 PUSH4 0x870666CB EQ PUSH2 0x92C JUMPI DUP1 PUSH4 0x8B7DBD6C EQ PUSH2 0x941 JUMPI DUP1 PUSH4 0x8E703826 EQ PUSH2 0x961 JUMPI STOP JUMPDEST DUP1 PUSH4 0x6B3B0159 EQ PUSH2 0x84A JUMPI DUP1 PUSH4 0x70420EE3 EQ PUSH2 0x86A JUMPI DUP1 PUSH4 0x7147855D EQ PUSH2 0x88A JUMPI DUP1 PUSH4 0x756AF45F EQ PUSH2 0x8B7 JUMPI DUP1 PUSH4 0x75D0C0DC EQ PUSH2 0x8D7 JUMPI STOP JUMPDEST DUP1 PUSH4 0x5479D940 GT PUSH2 0x309 JUMPI DUP1 PUSH4 0x5479D940 EQ PUSH2 0x790 JUMPI DUP1 PUSH4 0x58DBC45D EQ PUSH2 0x7AF JUMPI DUP1 PUSH4 0x5BDAECCE EQ PUSH2 0x7DC JUMPI DUP1 PUSH4 0x5C6D8DA1 EQ PUSH2 0x7FC JUMPI DUP1 PUSH4 0x6B2B7DD8 EQ PUSH2 0x81C JUMPI STOP JUMPDEST DUP1 PUSH4 0x4944F532 EQ PUSH2 0x6FB JUMPI DUP1 PUSH4 0x4BB1BE8C EQ PUSH2 0x71B JUMPI DUP1 PUSH4 0x4DC13C8F EQ PUSH2 0x73B JUMPI DUP1 PUSH4 0x51E70BB0 EQ PUSH2 0x75B JUMPI DUP1 PUSH4 0x52D1902D EQ PUSH2 0x77B JUMPI STOP JUMPDEST DUP1 PUSH4 0x37BFBFE8 GT PUSH2 0x3CA JUMPI DUP1 PUSH4 0x41565673 GT PUSH2 0x391 JUMPI DUP1 PUSH4 0x41565673 EQ PUSH2 0x65B JUMPI DUP1 PUSH4 0x4346A04B EQ PUSH2 0x67B JUMPI DUP1 PUSH4 0x44B7E5F2 EQ PUSH2 0x69B JUMPI DUP1 PUSH4 0x45B5203C EQ PUSH2 0x6BB JUMPI DUP1 PUSH4 0x48E6BE1C EQ PUSH2 0x6DB JUMPI STOP JUMPDEST DUP1 PUSH4 0x37BFBFE8 EQ PUSH2 0x587 JUMPI DUP1 PUSH4 0x38D38C97 EQ PUSH2 0x5B4 JUMPI DUP1 PUSH4 0x3C7D5B25 EQ PUSH2 0x5DC JUMPI DUP1 PUSH4 0x3E02BC38 EQ PUSH2 0x60B JUMPI DUP1 PUSH4 0x3F4C99B8 EQ PUSH2 0x62D JUMPI STOP JUMPDEST DUP1 PUSH4 0x11B529B3 GT PUSH2 0x40E JUMPI DUP1 PUSH4 0x11B529B3 EQ PUSH2 0x4DA JUMPI DUP1 PUSH4 0x1846D125 EQ PUSH2 0x4FA JUMPI DUP1 PUSH4 0x2E2ADF00 EQ PUSH2 0x51A JUMPI DUP1 PUSH4 0x2F032EDD EQ PUSH2 0x547 JUMPI DUP1 PUSH4 0x3228144D EQ PUSH2 0x567 JUMPI STOP JUMPDEST DUP1 PUSH4 0x1FFC9A7 EQ PUSH2 0x445 JUMPI DUP1 PUSH4 0x31C0493 EQ PUSH2 0x47A JUMPI DUP1 PUSH4 0x76A6F22 EQ PUSH2 0x49A JUMPI DUP1 PUSH4 0x101DF54D EQ PUSH2 0x4BA JUMPI STOP JUMPDEST CALLDATASIZE PUSH2 0x443 JUMPI STOP JUMPDEST STOP JUMPDEST CALLVALUE DUP1 ISZERO PUSH2 0x451 JUMPI PUSH1 0x0 DUP1 REVERT JUMPDEST POP PUSH2 0x465 PUSH2 0x460 CALLDATASIZE PUSH1 0x4 PUSH2 0x4751 JUMP JUMPDEST PUSH2 0xEB5 JUMP JUMPDEST PUSH1 0x40 MLOAD SWAP1 ISZERO ISZERO DUP2 MSTORE PUSH1 0x20 ADD JUMPDEST PUSH1 0x40 MLOAD DUP1 SWAP2 SUB SWAP1 RETURN JUMPDEST CALLVALUE DUP1 ISZERO PUSH2 0x486 JUMPI PUSH1 0x0 DUP1 REVERT JUMPDEST POP PUSH2 0x465 PUSH2 0x495 CALLDATASIZE PUSH1 0x4 PUSH2 0x476E JUMP JUMPDEST PUSH2 0xF4C JUMP JUMPDEST CALLVALUE DUP1 ISZERO PUSH2 0x4A6 JUMPI PUSH1 0x0 DUP1 REVERT JUMPDEST POP PUSH2 0x465 PUSH2 0x4B5 CALLDATASIZE PUSH1 0x4 PUSH2 0x47BB JUMP JUMPDEST PUSH2 0x1022 JUMP JUMPDEST CALLVALUE DUP1 ISZERO PUSH2 0x4C6 JUMPI PUSH1 0x0 DUP1 REVERT JUMPDEST POP PUSH2 0x465 PUSH2 0x4D5 CALLDATASIZE PUSH1 0x4 PUSH2 0x47D8 JUMP JUMPDEST PUSH2 0x10A9 JUMP JUMPDEST CALLVALUE DUP1 ISZERO PUSH2 0x4E6 JUMPI PUSH1 0x0 DUP1 REVERT JUMPDEST POP PUSH2 0x465 PUSH2 0x4F5 CALLDATASIZE PUSH1 0x4 PUSH2 0x47F1 JUMP JUMPDEST PUSH2 0x10EB JUMP JUMPDEST CALLVALUE DUP1 ISZERO PUSH2 0x506 JUMPI PUSH1 0x0 DUP1 REVERT JUMPDEST POP PUSH2 0x465 PUSH2 0x515 CALLDATASIZE PUSH1 0x4 PUSH2 0x47D8 JUMP JUMPDEST PUSH2 0x116B JUMP JUMPDEST CALLVALUE DUP1 ISZERO PUSH2 0x526 JUMPI PUSH1 0x0 DUP1 REVERT JUMPDEST POP PUSH2 0x53A PUSH2 0x535 CALLDATASIZE PUSH1 0x4 PUSH2 0x47D8 JUMP JUMPDEST PUSH2 0x11AD JUMP JUMPDEST PUSH1 0x40 MLOAD PUSH2 0x471 SWAP2 SWAP1 PUSH2 0x4821 JUMP JUMPDEST CALLVALUE DUP1 ISZERO PUSH2 0x553 JUMPI PUSH1 0x0 DUP1 REVERT JUMPDEST POP PUSH2 0x465 PUSH2 0x562 CALLDATASIZE PUSH1 0x4 PUSH2 0x47D8 JUMP JUMPDEST PUSH2 0x122F JUMP JUMPDEST CALLVALUE DUP1 ISZERO PUSH2 0x573 JUMPI PUSH1 0x0 DUP1 REVERT JUMPDEST POP PUSH2 0x465 PUSH2 0x582 CALLDATASIZE PUSH1 0x4 PUSH2 0x47D8 JUMP JUMPDEST PUSH2 0x1271 JUMP JUMPDEST CALLVALUE DUP1 ISZERO PUSH2 0x593 JUMPI PUSH1 0x0 DUP1 REVERT JUMPDEST POP PUSH2 0x5A7 PUSH2 0x5A2 CALLDATASIZE PUSH1 0x4 PUSH2 0x47D8 JUMP JUMPDEST PUSH2 0x12B3 JUMP JUMPDEST PUSH1 0x40 MLOAD PUSH2 0x471 SWAP2 SWAP1 PUSH2 0x486F JUMP JUMPDEST CALLVALUE DUP1 ISZERO PUSH2 0x5C0 JUMPI PUSH1 0x0 DUP1 REVERT JUMPDEST POP PUSH2 0x5C9 PUSH2 0x1336 JUMP JUMPDEST PUSH1 0x40 MLOAD PUSH2 0xFFFF SWAP1 SWAP2 AND DUP2 MSTORE PUSH1 0x20 ADD PUSH2 0x471 JUMP JUMPDEST CALLVALUE DUP1 ISZERO PUSH2 0x5E8 JUMPI PUSH1 0x0 DUP1 REVERT JUMPDEST POP PUSH2 0x5FC PUSH2 0x5F7 CALLDATASIZE PUSH1 0x4 PUSH2 0x47D8 JUMP JUMPDEST PUSH2 0x134A JUMP JUMPDEST PUSH1 0x40 MLOAD PUSH2 0x471 SWAP4 SWAP3 SWAP2 SWAP1 PUSH2 0x48F7 JUMP JUMPDEST CALLVALUE DUP1 ISZERO PUSH2 0x617 JUMPI PUSH1 0x0 DUP1 REVERT JUMPDEST POP PUSH2 0x620 PUSH2 0x13DE JUMP JUMPDEST PUSH1 0x40 MLOAD PUSH2 0x471 SWAP2 SWAP1 PUSH2 0x4921 JUMP JUMPDEST CALLVALUE DUP1 ISZERO PUSH2 0x639 JUMPI PUSH1 0x0 DUP1 REVERT JUMPDEST POP PUSH2 0x64D PUSH2 0x648 CALLDATASIZE PUSH1 0x4 PUSH2 0x49B8 JUMP JUMPDEST PUSH2 0x156A JUMP JUMPDEST PUSH1 0x40 MLOAD SWAP1 DUP2 MSTORE PUSH1 0x20 ADD PUSH2 0x471 JUMP JUMPDEST CALLVALUE DUP1 ISZERO PUSH2 0x667 JUMPI PUSH1 0x0 DUP1 REVERT JUMPDEST POP PUSH2 0x465 PUSH2 0x676 CALLDATASIZE PUSH1 0x4 PUSH2 0x47BB JUMP JUMPDEST PUSH2 0x163C JUMP JUMPDEST CALLVALUE DUP1 ISZERO PUSH2 0x687 JUMPI PUSH1 0x0 DUP1 REVERT JUMPDEST POP PUSH2 0x465 PUSH2 0x696 CALLDATASIZE PUSH1 0x4 PUSH2 0x476E JUMP JUMPDEST PUSH2 0x1686 JUMP JUMPDEST CALLVALUE DUP1 ISZERO PUSH2 0x6A7 JUMPI PUSH1 0x0 DUP1 REVERT JUMPDEST POP PUSH2 0x465 PUSH2 0x6B6 CALLDATASIZE PUSH1 0x4 PUSH2 0x4A0E JUMP JUMPDEST PUSH2 0x1747 JUMP JUMPDEST CALLVALUE DUP1 ISZERO PUSH2 0x6C7 JUMPI PUSH1 0x0 DUP1 REVERT JUMPDEST POP PUSH2 0x465 PUSH2 0x6D6 CALLDATASIZE PUSH1 0x4 PUSH2 0x47D8 JUMP JUMPDEST PUSH2 0x190A JUMP JUMPDEST CALLVALUE DUP1 ISZERO PUSH2 0x6E7 JUMPI PUSH1 0x0 DUP1 REVERT JUMPDEST POP PUSH2 0x465 PUSH2 0x6F6 CALLDATASIZE PUSH1 0x4 PUSH2 0x4A0E JUMP JUMPDEST PUSH2 0x194C JUMP JUMPDEST CALLVALUE DUP1 ISZERO PUSH2 0x707 JUMPI PUSH1 0x0 DUP1 REVERT JUMPDEST POP PUSH2 0x465 PUSH2 0x716 CALLDATASIZE PUSH1 0x4 PUSH2 0x47D8 JUMP JUMPDEST PUSH2 0x1B20 JUMP JUMPDEST CALLVALUE DUP1 ISZERO PUSH2 0x727 JUMPI PUSH1 0x0 DUP1 REVERT JUMPDEST POP PUSH2 0x64D PUSH2 0x736 CALLDATASIZE PUSH1 0x4 PUSH2 0x4A2B JUMP JUMPDEST PUSH2 0x1B62 JUMP JUMPDEST CALLVALUE DUP1 ISZERO PUSH2 0x747 JUMPI PUSH1 0x0 DUP1 REVERT JUMPDEST POP PUSH2 0x465 PUSH2 0x756 CALLDATASIZE PUSH1 0x4 PUSH2 0x47D8 JUMP JUMPDEST PUSH2 0x1C39 JUMP JUMPDEST CALLVALUE DUP1 ISZERO PUSH2 0x767 JUMPI PUSH1 0x0 DUP1 REVERT JUMPDEST POP PUSH2 0x465 PUSH2 0x776 CALLDATASIZE PUSH1 0x4 PUSH2 0x47D8 JUMP JUMPDEST PUSH2 0x1C7B JUMP JUMPDEST CALLVALUE DUP1 ISZERO PUSH2 0x787 JUMPI PUSH1 0x0 DUP1 REVERT JUMPDEST POP PUSH2 0x64D PUSH2 0x1CBD JUMP JUMPDEST CALLVALUE DUP1 ISZERO PUSH2 0x79C JUMPI PUSH1 0x0 DUP1 REVERT JUMPDEST POP PUSH1 0x3 SLOAD PUSH1 0x1 PUSH1 0xA8 SHL SWAP1 DIV PUSH1 0xFF AND PUSH2 0x465 JUMP JUMPDEST CALLVALUE DUP1 ISZERO PUSH2 0x7BB JUMPI PUSH1 0x0 DUP1 REVERT JUMPDEST POP PUSH2 0x7C4 PUSH2 0x1D4A JUMP JUMPDEST PUSH1 0x40 MLOAD PUSH1 0x1 PUSH1 0x1 PUSH1 0xA0 SHL SUB SWAP1 SWAP2 AND DUP2 MSTORE PUSH1 0x20 ADD PUSH2 0x471 JUMP JUMPDEST CALLVALUE DUP1 ISZERO PUSH2 0x7E8 JUMPI PUSH1 0x0 DUP1 REVERT JUMPDEST POP PUSH2 0x465 PUSH2 0x7F7 CALLDATASIZE PUSH1 0x4 PUSH2 0x47D8 JUMP JUMPDEST PUSH2 0x1D54 JUMP JUMPDEST CALLVALUE DUP1 ISZERO PUSH2 0x808 JUMPI PUSH1 0x0 DUP1 REVERT JUMPDEST POP PUSH2 0x443 PUSH2 0x817 CALLDATASIZE PUSH1 0x4 PUSH2 0x4A92 JUMP JUMPDEST PUSH2 0x1D96 JUMP JUMPDEST CALLVALUE DUP1 ISZERO PUSH2 0x828 JUMPI PUSH1 0x0 DUP1 REVERT JUMPDEST POP PUSH2 0x83C PUSH2 0x837 CALLDATASIZE PUSH1 0x4 PUSH2 0x47D8 JUMP JUMPDEST PUSH2 0x2158 JUMP JUMPDEST PUSH1 0x40 MLOAD PUSH2 0x471 SWAP3 SWAP2 SWAP1 PUSH2 0x4B3F JUMP JUMPDEST CALLVALUE DUP1 ISZERO PUSH2 0x856 JUMPI PUSH1 0x0 DUP1 REVERT JUMPDEST POP PUSH2 0x465 PUSH2 0x865 CALLDATASIZE PUSH1 0x4 PUSH2 0x4B63 JUMP JUMPDEST PUSH2 0x21E6 JUMP JUMPDEST CALLVALUE DUP1 ISZERO PUSH2 0x876 JUMPI PUSH1 0x0 DUP1 REVERT JUMPDEST POP PUSH2 0x465 PUSH2 0x885 CALLDATASIZE PUSH1 0x4 PUSH2 0x4B91 JUMP JUMPDEST PUSH2 0x2284 JUMP JUMPDEST CALLVALUE DUP1 ISZERO PUSH2 0x896 JUMPI PUSH1 0x0 DUP1 REVERT JUMPDEST POP PUSH2 0x8AA PUSH2 0x8A5 CALLDATASIZE PUSH1 0x4 PUSH2 0x4CA1 JUMP JUMPDEST PUSH2 0x2367 JUMP JUMPDEST PUSH1 0x40 MLOAD PUSH2 0x471 SWAP2 SWAP1 PUSH2 0x4CF9 JUMP JUMPDEST CALLVALUE DUP1 ISZERO PUSH2 0x8C3 JUMPI PUSH1 0x0 DUP1 REVERT JUMPDEST POP PUSH2 0x443 PUSH2 0x8D2 CALLDATASIZE PUSH1 0x4 PUSH2 0x47BB JUMP JUMPDEST PUSH2 0x2498 JUMP JUMPDEST CALLVALUE DUP1 ISZERO PUSH2 0x8E3 JUMPI PUSH1 0x0 DUP1 REVERT JUMPDEST POP PUSH1 0x0 SLOAD PUSH2 0x64D JUMP JUMPDEST CALLVALUE DUP1 ISZERO PUSH2 0x8F8 JUMPI PUSH1 0x0 DUP1 REVERT JUMPDEST POP PUSH2 0x465 PUSH2 0x907 CALLDATASIZE PUSH1 0x4 PUSH2 0x476E JUMP JUMPDEST PUSH2 0x2557 JUMP JUMPDEST CALLVALUE DUP1 ISZERO PUSH2 0x918 JUMPI PUSH1 0x0 DUP1 REVERT JUMPDEST POP PUSH2 0x64D PUSH2 0x927 CALLDATASIZE PUSH1 0x4 PUSH2 0x4D50 JUMP JUMPDEST PUSH2 0x2618 JUMP JUMPDEST CALLVALUE DUP1 ISZERO PUSH2 0x938 JUMPI PUSH1 0x0 DUP1 REVERT JUMPDEST POP PUSH2 0x64D PUSH2 0x273C JUMP JUMPDEST CALLVALUE DUP1 ISZERO PUSH2 0x94D JUMPI PUSH1 0x0 DUP1 REVERT JUMPDEST POP PUSH2 0x465 PUSH2 0x95C CALLDATASIZE PUSH1 0x4 PUSH2 0x4B91 JUMP JUMPDEST PUSH2 0x2747 JUMP JUMPDEST CALLVALUE DUP1 ISZERO PUSH2 0x96D JUMPI PUSH1 0x0 DUP1 REVERT JUMPDEST POP PUSH2 0x465 PUSH2 0x97C CALLDATASIZE PUSH1 0x4 PUSH2 0x47D8 JUMP JUMPDEST PUSH2 0x27D5 JUMP JUMPDEST CALLVALUE DUP1 ISZERO PUSH2 0x98D JUMPI PUSH1 0x0 DUP1 REVERT JUMPDEST POP PUSH2 0x465 PUSH2 0x99C CALLDATASIZE PUSH1 0x4 PUSH2 0x4DD4 JUMP JUMPDEST PUSH2 0x2817 JUMP JUMPDEST CALLVALUE DUP1 ISZERO PUSH2 0x9AD JUMPI PUSH1 0x0 DUP1 REVERT JUMPDEST POP PUSH2 0x465 PUSH2 0x9BC CALLDATASIZE PUSH1 0x4 PUSH2 0x47D8 JUMP JUMPDEST PUSH2 0x28A0 JUMP JUMPDEST CALLVALUE DUP1 ISZERO PUSH2 0x9CD JUMPI PUSH1 0x0 DUP1 REVERT JUMPDEST POP PUSH2 0x465 PUSH2 0x9DC CALLDATASIZE PUSH1 0x4 PUSH2 0x4DF9 JUMP JUMPDEST PUSH2 0x28E2 JUMP JUMPDEST CALLVALUE DUP1 ISZERO PUSH2 0x9ED JUMPI PUSH1 0x0 DUP1 REVERT JUMPDEST POP PUSH2 0x465 PUSH2 0x9FC CALLDATASIZE PUSH1 0x4 PUSH2 0x47D8 JUMP JUMPDEST PUSH2 0x29C8 JUMP JUMPDEST CALLVALUE DUP1 ISZERO PUSH2 0xA0D JUMPI PUSH1 0x0 DUP1 REVERT JUMPDEST POP PUSH2 0x5A7 PUSH2 0xA1C CALLDATASIZE PUSH1 0x4 PUSH2 0x4E6D JUMP JUMPDEST PUSH2 0x2A0A JUMP JUMPDEST CALLVALUE DUP1 ISZERO PUSH2 0xA2D JUMPI PUSH1 0x0 DUP1 REVERT JUMPDEST POP PUSH2 0xA41 PUSH2 0xA3C CALLDATASIZE PUSH1 0x4 PUSH2 0x47D8 JUMP JUMPDEST PUSH2 0x2BBB JUMP JUMPDEST PUSH1 0x40 MLOAD PUSH2 0x471 SWAP2 SWAP1 DUP2 MLOAD DUP2 MSTORE PUSH1 0x20 DUP1 DUP4 ADD MLOAD SWAP1 DUP3 ADD MSTORE PUSH1 0x40 DUP1 DUP4 ADD MLOAD SWAP1 DUP3 ADD MSTORE PUSH1 0x60 DUP1 DUP4 ADD MLOAD PUSH1 0x1 PUSH1 0x1 PUSH1 0xA0 SHL SUB AND SWAP1 DUP3 ADD MSTORE PUSH1 0x80 DUP1 DUP4 ADD MLOAD ISZERO ISZERO SWAP1 DUP3 ADD MSTORE PUSH1 0xA0 SWAP2 DUP3 ADD MLOAD ISZERO ISZERO SWAP2 DUP2 ADD SWAP2 SWAP1 SWAP2 MSTORE PUSH1 0xC0 ADD SWAP1 JUMP JUMPDEST CALLVALUE DUP1 ISZERO PUSH2 0xAA1 JUMPI PUSH1 0x0 DUP1 REVERT JUMPDEST POP PUSH1 0x1 SLOAD PUSH2 0x64D JUMP JUMPDEST CALLVALUE DUP1 ISZERO PUSH2 0xAB6 JUMPI PUSH1 0x0 DUP1 REVERT JUMPDEST POP PUSH2 0x465 PUSH2 0xAC5 CALLDATASIZE PUSH1 0x4 PUSH2 0x47D8 JUMP JUMPDEST PUSH2 0x2C64 JUMP JUMPDEST CALLVALUE DUP1 ISZERO PUSH2 0xAD6 JUMPI PUSH1 0x0 DUP1 REVERT JUMPDEST POP PUSH2 0x465 PUSH2 0xAE5 CALLDATASIZE PUSH1 0x4 PUSH2 0x47BB JUMP JUMPDEST PUSH2 0x2CA6 JUMP JUMPDEST CALLVALUE DUP1 ISZERO PUSH2 0xAF6 JUMPI PUSH1 0x0 DUP1 REVERT JUMPDEST POP PUSH2 0x64D PUSH2 0xB05 CALLDATASIZE PUSH1 0x4 PUSH2 0x4EAE JUMP JUMPDEST PUSH2 0x2CF0 JUMP JUMPDEST CALLVALUE DUP1 ISZERO PUSH2 0xB16 JUMPI PUSH1 0x0 DUP1 REVERT JUMPDEST POP PUSH1 0x3 SLOAD PUSH1 0x1 PUSH1 0x1 PUSH1 0xA0 SHL SUB AND PUSH2 0x7C4 JUMP JUMPDEST CALLVALUE DUP1 ISZERO PUSH2 0xB34 JUMPI PUSH1 0x0 DUP1 REVERT JUMPDEST POP PUSH2 0x465 PUSH2 0xB43 CALLDATASIZE PUSH1 0x4 PUSH2 0x47F1 JUMP JUMPDEST PUSH2 0x2DEC JUMP JUMPDEST CALLVALUE DUP1 ISZERO PUSH2 0xB54 JUMPI PUSH1 0x0 DUP1 REVERT JUMPDEST POP PUSH2 0x465 PUSH2 0xB63 CALLDATASIZE PUSH1 0x4 PUSH2 0x47F1 JUMP JUMPDEST PUSH2 0x2E2B JUMP JUMPDEST CALLVALUE DUP1 ISZERO PUSH2 0xB74 JUMPI PUSH1 0x0 DUP1 REVERT JUMPDEST POP PUSH2 0x465 PUSH2 0xB83 CALLDATASIZE PUSH1 0x4 PUSH2 0x4B91 JUMP JUMPDEST PUSH2 0x2EFB JUMP JUMPDEST CALLVALUE DUP1 ISZERO PUSH2 0xB94 JUMPI PUSH1 0x0 DUP1 REVERT JUMPDEST POP PUSH1 0x3 SLOAD PUSH1 0x1 PUSH1 0xA0 SHL SWAP1 DIV PUSH1 0xFF AND PUSH2 0x465 JUMP JUMPDEST CALLVALUE DUP1 ISZERO PUSH2 0xBB3 JUMPI PUSH1 0x0 DUP1 REVERT JUMPDEST POP PUSH2 0xBC7 PUSH2 0xBC2 CALLDATASIZE PUSH1 0x4 PUSH2 0x47D8 JUMP JUMPDEST PUSH2 0x2F8B JUMP JUMPDEST PUSH1 0x40 MLOAD PUSH2 0x471 SWAP4 SWAP3 SWAP2 SWAP1 PUSH2 0x4F01 JUMP JUMPDEST CALLVALUE DUP1 ISZERO PUSH2 0xBE2 JUMPI PUSH1 0x0 DUP1 REVERT JUMPDEST POP PUSH2 0x465 PUSH2 0xBF1 CALLDATASIZE PUSH1 0x4 PUSH2 0x47BB JUMP JUMPDEST PUSH2 0x3012 JUMP JUMPDEST CALLVALUE DUP1 ISZERO PUSH2 0xC02 JUMPI PUSH1 0x0 DUP1 REVERT JUMPDEST POP PUSH2 0x465 PUSH2 0xC11 CALLDATASIZE PUSH1 0x4 PUSH2 0x47BB JUMP JUMPDEST PUSH2 0x305C JUMP JUMPDEST CALLVALUE DUP1 ISZERO PUSH2 0xC22 JUMPI PUSH1 0x0 DUP1 REVERT JUMPDEST POP PUSH2 0x465 PUSH2 0xC31 CALLDATASIZE PUSH1 0x4 PUSH2 0x47D8 JUMP JUMPDEST PUSH2 0x30A6 JUMP JUMPDEST CALLVALUE DUP1 ISZERO PUSH2 0xC42 JUMPI PUSH1 0x0 DUP1 REVERT JUMPDEST POP PUSH2 0x465 PUSH2 0xC51 CALLDATASIZE PUSH1 0x4 PUSH2 0x4DF9 JUMP JUMPDEST PUSH2 0x30E8 JUMP JUMPDEST CALLVALUE DUP1 ISZERO PUSH2 0xC62 JUMPI PUSH1 0x0 DUP1 REVERT JUMPDEST POP PUSH2 0x465 PUSH2 0xC71 CALLDATASIZE PUSH1 0x4 PUSH2 0x4F2B JUMP JUMPDEST PUSH2 0x31CE JUMP JUMPDEST CALLVALUE DUP1 ISZERO PUSH2 0xC82 JUMPI PUSH1 0x0 DUP1 REVERT JUMPDEST POP PUSH2 0x465 PUSH2 0xC91 CALLDATASIZE PUSH1 0x4 PUSH2 0x4DD4 JUMP JUMPDEST PUSH2 0x3230 JUMP JUMPDEST CALLVALUE DUP1 ISZERO PUSH2 0xCA2 JUMPI PUSH1 0x0 DUP1 REVERT JUMPDEST POP PUSH2 0x465 PUSH2 0xCB1 CALLDATASIZE PUSH1 0x4 PUSH2 0x4F62 JUMP JUMPDEST PUSH2 0x3282 JUMP JUMPDEST CALLVALUE DUP1 ISZERO PUSH2 0xCC2 JUMPI PUSH1 0x0 DUP1 REVERT JUMPDEST POP PUSH1 0x2 SLOAD PUSH2 0x64D JUMP JUMPDEST CALLVALUE DUP1 ISZERO PUSH2 0xCD7 JUMPI PUSH1 0x0 DUP1 REVERT JUMPDEST POP PUSH2 0x465 PUSH2 0xCE6 CALLDATASIZE PUSH1 0x4 PUSH2 0x4F62 JUMP JUMPDEST PUSH2 0x3351 JUMP JUMPDEST CALLVALUE DUP1 ISZERO PUSH2 0xCF7 JUMPI PUSH1 0x0 DUP1 REVERT JUMPDEST POP PUSH2 0x465 PUSH2 0xD06 CALLDATASIZE PUSH1 0x4 PUSH2 0x47BB JUMP JUMPDEST PUSH2 0x339A JUMP JUMPDEST CALLVALUE DUP1 ISZERO PUSH2 0xD17 JUMPI PUSH1 0x0 DUP1 REVERT JUMPDEST POP PUSH2 0x465 PUSH2 0xD26 CALLDATASIZE PUSH1 0x4 PUSH2 0x47BB JUMP JUMPDEST PUSH2 0x33E4 JUMP JUMPDEST CALLVALUE DUP1 ISZERO PUSH2 0xD37 JUMPI PUSH1 0x0 DUP1 REVERT JUMPDEST POP PUSH2 0x465 PUSH2 0xD46 CALLDATASIZE PUSH1 0x4 PUSH2 0x4F62 JUMP JUMPDEST PUSH2 0x3565 JUMP JUMPDEST CALLVALUE DUP1 ISZERO PUSH2 0xD57 JUMPI PUSH1 0x0 DUP1 REVERT JUMPDEST POP PUSH2 0x465 PUSH2 0xD66 CALLDATASIZE PUSH1 0x4 PUSH2 0x47D8 JUMP JUMPDEST PUSH2 0x3634 JUMP JUMPDEST CALLVALUE DUP1 ISZERO PUSH2 0xD77 JUMPI PUSH1 0x0 DUP1 REVERT JUMPDEST POP PUSH2 0x465 PUSH2 0xD86 CALLDATASIZE PUSH1 0x4 PUSH2 0x4DD4 JUMP JUMPDEST PUSH2 0x3676 JUMP JUMPDEST CALLVALUE DUP1 ISZERO PUSH2 0xD97 JUMPI PUSH1 0x0 DUP1 REVERT JUMPDEST POP PUSH2 0x620 PUSH2 0xDA6 CALLDATASIZE PUSH1 0x4 PUSH2 0x47D8 JUMP JUMPDEST PUSH2 0x36FF JUMP JUMPDEST CALLVALUE DUP1 ISZERO PUSH2 0xDB7 JUMPI PUSH1 0x0 DUP1 REVERT JUMPDEST POP PUSH2 0x465 PUSH2 0xDC6 CALLDATASIZE PUSH1 0x4 PUSH2 0x47D8 JUMP JUMPDEST PUSH2 0x3781 JUMP JUMPDEST CALLVALUE DUP1 ISZERO PUSH2 0xDD7 JUMPI PUSH1 0x0 DUP1 REVERT JUMPDEST POP PUSH2 0x7C4 PUSH2 0xDE6 CALLDATASIZE PUSH1 0x4 PUSH2 0x4F9C JUMP JUMPDEST PUSH2 0x37C3 JUMP JUMPDEST CALLVALUE DUP1 ISZERO PUSH2 0xDF7 JUMPI PUSH1 0x0 DUP1 REVERT JUMPDEST POP PUSH2 0x465 PUSH2 0xE06 CALLDATASIZE PUSH1 0x4 PUSH2 0x4B91 JUMP JUMPDEST PUSH2 0x3898 JUMP JUMPDEST CALLVALUE DUP1 ISZERO PUSH2 0xE17 JUMPI PUSH1 0x0 DUP1 REVERT JUMPDEST POP PUSH2 0x5A7 PUSH2 0xE26 CALLDATASIZE PUSH1 0x4 PUSH2 0x47D8 JUMP JUMPDEST PUSH2 0x396B JUMP JUMPDEST CALLVALUE DUP1 ISZERO PUSH2 0xE37 JUMPI PUSH1 0x0 DUP1 REVERT JUMPDEST POP PUSH2 0x64D PUSH2 0xE46 CALLDATASIZE PUSH1 0x4 PUSH2 0x5022 JUMP JUMPDEST PUSH2 0x39AD JUMP JUMPDEST CALLVALUE DUP1 ISZERO PUSH2 0xE57 JUMPI PUSH1 0x0 DUP1 REVERT JUMPDEST POP PUSH2 0x465 PUSH2 0xE66 CALLDATASIZE PUSH1 0x4 PUSH2 0x4B91 JUMP JUMPDEST PUSH2 0x3AAA JUMP JUMPDEST CALLVALUE DUP1 ISZERO PUSH2 0xE77 JUMPI PUSH1 0x0 DUP1 REVERT JUMPDEST POP PUSH2 0x465 PUSH2 0xE86 CALLDATASIZE PUSH1 0x4 PUSH2 0x4F62 JUMP JUMPDEST PUSH2 0x3B3A JUMP JUMPDEST CALLVALUE DUP1 ISZERO PUSH2 0xE97 JUMPI PUSH1 0x0 DUP1 REVERT JUMPDEST POP PUSH2 0x64D PUSH2 0x3B83 JUMP JUMPDEST CALLVALUE DUP1 ISZERO PUSH2 0xEAC JUMPI PUSH1 0x0 DUP1 REVERT JUMPDEST POP PUSH2 0x7C4 PUSH2 0x3BEF JUMP JUMPDEST PUSH1 0x0 PUSH1 0x1 PUSH1 0x1 PUSH1 0xE0 SHL SUB NOT DUP3 AND PUSH4 0x14B83435 PUSH1 0xE3 SHL EQ DUP1 PUSH2 0xEE6 JUMPI POP PUSH1 0x1 PUSH1 0x1 PUSH1 0xE0 SHL SUB NOT DUP3 AND PUSH4 0x96DC4575 PUSH1 0xE0 SHL EQ JUMPDEST DUP1 PUSH2 0xF01 JUMPI POP PUSH1 0x1 PUSH1 0x1 PUSH1 0xE0 SHL SUB NOT DUP3 AND PUSH4 0x8EA925B PUSH1 0xE4 SHL EQ JUMPDEST DUP1 PUSH2 0xF1C JUMPI POP PUSH1 0x1 PUSH1 0x1 PUSH1 0xE0 SHL SUB NOT DUP3 AND PUSH4 0x7D22131D PUSH1 0xE1 SHL EQ JUMPDEST DUP1 PUSH2 0xF37 JUMPI POP PUSH1 0x1 PUSH1 0x1 PUSH1 0xE0 SHL SUB NOT DUP3 AND PUSH4 0x70319BFF PUSH1 0xE1 SHL EQ JUMPDEST DUP1 PUSH2 0xF46 JUMPI POP PUSH2 0xF46 DUP3 PUSH2 0x3BFC JUMP JUMPDEST SWAP3 SWAP2 POP POP JUMP JUMPDEST PUSH1 0x0 DUP1 PUSH20 0x0 PUSH4 0xA234DAE3 PUSH1 0x44 DUP8 DUP8 DUP8 PUSH1 0x40 MLOAD DUP6 PUSH4 0xFFFFFFFF AND PUSH1 0xE0 SHL DUP2 MSTORE PUSH1 0x4 ADD PUSH2 0xF8D SWAP5 SWAP4 SWAP3 SWAP2 SWAP1 PUSH2 0x508D JUMP JUMPDEST PUSH1 0x20 PUSH1 0x40 MLOAD DUP1 DUP4 SUB DUP2 DUP7 GAS DELEGATECALL ISZERO DUP1 ISZERO PUSH2 0xFAA JUMPI RETURNDATASIZE PUSH1 0x0 DUP1 RETURNDATACOPY RETURNDATASIZE PUSH1 0x0 REVERT JUMPDEST POP POP POP POP PUSH1 0x40 MLOAD RETURNDATASIZE PUSH1 0x1F NOT PUSH1 0x1F DUP3 ADD AND DUP3 ADD DUP1 PUSH1 0x40 MSTORE POP DUP2 ADD SWAP1 PUSH2 0xFCE SWAP2 SWAP1 PUSH2 0x50B2 JUMP JUMPDEST SWAP1 POP CALLER PUSH1 0x1 PUSH1 0x1 PUSH1 0xA0 SHL SUB AND DUP4 DUP7 PUSH32 0xCE5E1F2BA33F195F748A93B00EE62600B55E27CC50531A72E5443713BAC23E12 DUP8 DUP6 PUSH1 0x40 MLOAD PUSH2 0x100D SWAP3 SWAP2 SWAP1 PUSH2 0x50CB JUMP JUMPDEST PUSH1 0x40 MLOAD DUP1 SWAP2 SUB SWAP1 LOG4 PUSH1 0x1 SWAP2 POP POP JUMPDEST SWAP4 SWAP3 POP POP POP JUMP JUMPDEST PUSH1 0x40 MLOAD PUSH4 0xB717513 PUSH1 0xE3 SHL DUP2 MSTORE PUSH1 0x44 PUSH1 0x4 DUP3 ADD DUP2 SWAP1 MSTORE PUSH1 0x1 PUSH1 0x1 PUSH1 0xA0 SHL SUB DUP4 AND PUSH1 0x24 DUP4 ADD MSTORE PUSH1 0x0 SWAP2 PUSH20 0x0 SWAP2 PUSH4 0x5B8BA898 SWAP2 ADD JUMPDEST PUSH1 0x20 PUSH1 0x40 MLOAD DUP1 DUP4 SUB DUP2 DUP7 GAS DELEGATECALL ISZERO DUP1 ISZERO PUSH2 0x1085 JUMPI RETURNDATASIZE PUSH1 0x0 DUP1 RETURNDATACOPY RETURNDATASIZE PUSH1 0x0 REVERT JUMPDEST POP POP POP POP PUSH1 0x40 MLOAD RETURNDATASIZE PUSH1 0x1F NOT PUSH1 0x1F DUP3 ADD AND DUP3 ADD DUP1 PUSH1 0x40 MSTORE POP DUP2 ADD SWAP1 PUSH2 0xF46 SWAP2 SWAP1 PUSH2 0x50E5 JUMP JUMPDEST PUSH1 0x40 MLOAD PUSH4 0x16B714AD PUSH1 0xE0 SHL DUP2 MSTORE PUSH1 0x44 PUSH1 0x4 DUP3 ADD DUP2 SWAP1 MSTORE PUSH1 0x24 DUP3 ADD DUP4 SWAP1 MSTORE PUSH1 0x0 SWAP2 PUSH20 0x0 SWAP2 PUSH4 0x16B714AD SWAP2 ADD PUSH2 0x1068 JUMP JUMPDEST PUSH1 0x40 MLOAD PUSH4 0x74CDA89D PUSH1 0xE1 SHL DUP2 MSTORE PUSH1 0x0 SWAP1 PUSH20 0x0 SWAP1 PUSH4 0xE99B513A SWAP1 PUSH2 0x112A SWAP1 PUSH1 0x44 SWAP1 DUP8 SWAP1 DUP8 SWAP1 PUSH1 0x4 ADD PUSH2 0x5102 JUMP JUMPDEST PUSH1 0x20 PUSH1 0x40 MLOAD DUP1 DUP4 SUB DUP2 DUP7 GAS DELEGATECALL ISZERO DUP1 ISZERO PUSH2 0x1147 JUMPI RETURNDATASIZE PUSH1 0x0 DUP1 RETURNDATACOPY RETURNDATASIZE PUSH1 0x0 REVERT JUMPDEST POP POP POP POP PUSH1 0x40 MLOAD RETURNDATASIZE PUSH1 0x1F NOT PUSH1 0x1F DUP3 ADD AND DUP3 ADD DUP1 PUSH1 0x40 MSTORE POP DUP2 ADD SWAP1 PUSH2 0x101B SWAP2 SWAP1 PUSH2 0x50E5 JUMP JUMPDEST PUSH1 0x40 MLOAD PUSH4 0x198D864D PUSH1 0xE3 SHL DUP2 MSTORE PUSH1 0x44 PUSH1 0x4 DUP3 ADD DUP2 SWAP1 MSTORE PUSH1 0x24 DUP3 ADD DUP4 SWAP1 MSTORE PUSH1 0x0 SWAP2 PUSH20 0x0 SWAP2 PUSH4 0xCC6C3268 SWAP2 ADD PUSH2 0x1068 JUMP JUMPDEST PUSH1 0x40 MLOAD PUSH4 0x33669F83 PUSH1 0xE1 SHL DUP2 MSTORE PUSH1 0x44 PUSH1 0x4 DUP3 ADD DUP2 SWAP1 MSTORE PUSH1 0x24 DUP3 ADD DUP4 SWAP1 MSTORE PUSH1 0x60 SWAP2 PUSH20 0x0 SWAP2 PUSH4 0x66CD3F06 SWAP2 ADD PUSH1 0x0 PUSH1 0x40 MLOAD DUP1 DUP4 SUB DUP2 DUP7 GAS DELEGATECALL ISZERO DUP1 ISZERO PUSH2 0x1207 JUMPI RETURNDATASIZE PUSH1 0x0 DUP1 RETURNDATACOPY RETURNDATASIZE PUSH1 0x0 REVERT JUMPDEST POP POP POP POP PUSH1 0x40 MLOAD RETURNDATASIZE PUSH1 0x0 DUP3 RETURNDATACOPY PUSH1 0x1F RETURNDATASIZE SWAP1 DUP2 ADD PUSH1 0x1F NOT AND DUP3 ADD PUSH1 0x40 MSTORE PUSH2 0xF46 SWAP2 SWAP1 DUP2 ADD SWAP1 PUSH2 0x51B4 JUMP JUMPDEST PUSH1 0x40 MLOAD PUSH4 0xCB4A1BB7 PUSH1 0xE0 SHL DUP2 MSTORE PUSH1 0x44 PUSH1 0x4 DUP3 ADD DUP2 SWAP1 MSTORE PUSH1 0x24 DUP3 ADD DUP4 SWAP1 MSTORE PUSH1 0x0 SWAP2 PUSH20 0x0 SWAP2 PUSH4 0xCB4A1BB7 SWAP2 ADD PUSH2 0x1068 JUMP JUMPDEST PUSH1 0x40 MLOAD PUSH4 0x5A96334B PUSH1 0xE0 SHL DUP2 MSTORE PUSH1 0x44 PUSH1 0x4 DUP3 ADD DUP2 SWAP1 MSTORE PUSH1 0x24 DUP3 ADD DUP4 SWAP1 MSTORE PUSH1 0x0 SWAP2 PUSH20 0x0 SWAP2 PUSH4 0x5A96334B SWAP2 ADD PUSH2 0x1068 JUMP JUMPDEST PUSH1 0x40 MLOAD PUSH4 0x5ED86FC9 PUSH1 0xE0 SHL DUP2 MSTORE PUSH1 0x44 PUSH1 0x4 DUP3 ADD DUP2 SWAP1 MSTORE PUSH1 0x24 DUP3 ADD DUP4 SWAP1 MSTORE PUSH1 0x60 SWAP2 PUSH20 0x0 SWAP2 PUSH4 0x5ED86FC9 SWAP2 ADD JUMPDEST PUSH1 0x0 PUSH1 0x40 MLOAD DUP1 DUP4 SUB DUP2 DUP7 GAS DELEGATECALL ISZERO DUP1 ISZERO PUSH2 0x130E JUMPI RETURNDATASIZE PUSH1 0x0 DUP1 RETURNDATACOPY RETURNDATASIZE PUSH1 0x0 REVERT JUMPDEST POP POP POP POP PUSH1 0x40 MLOAD RETURNDATASIZE PUSH1 0x0 DUP3 RETURNDATACOPY PUSH1 0x1F RETURNDATASIZE SWAP1 DUP2 ADD PUSH1 0x1F NOT AND DUP3 ADD PUSH1 0x40 MSTORE PUSH2 0xF46 SWAP2 SWAP1 DUP2 ADD SWAP1 PUSH2 0x51E8 JUMP JUMPDEST PUSH1 0x0 PUSH2 0x1345 PUSH1 0x49 SLOAD PUSH2 0xFFFF AND SWAP1 JUMP JUMPDEST SWAP1 POP SWAP1 JUMP JUMPDEST PUSH1 0x40 MLOAD PUSH4 0x2946A59 PUSH1 0xE6 SHL DUP2 MSTORE PUSH1 0x44 PUSH1 0x4 DUP3 ADD DUP2 SWAP1 MSTORE PUSH1 0x24 DUP3 ADD DUP4 SWAP1 MSTORE PUSH1 0x60 SWAP2 PUSH1 0x0 SWAP2 DUP3 SWAP2 PUSH20 0x0 SWAP2 PUSH4 0xA51A9640 SWAP2 ADD PUSH1 0x0 PUSH1 0x40 MLOAD DUP1 DUP4 SUB DUP2 DUP7 GAS DELEGATECALL ISZERO DUP1 ISZERO PUSH2 0x13A9 JUMPI RETURNDATASIZE PUSH1 0x0 DUP1 RETURNDATACOPY RETURNDATASIZE PUSH1 0x0 REVERT JUMPDEST POP POP POP POP PUSH1 0x40 MLOAD RETURNDATASIZE PUSH1 0x0 DUP3 RETURNDATACOPY PUSH1 0x1F RETURNDATASIZE SWAP1 DUP2 ADD PUSH1 0x1F NOT AND DUP3 ADD PUSH1 0x40 MSTORE PUSH2 0x13D1 SWAP2 SWAP1 DUP2 ADD SWAP1 PUSH2 0x52BD JUMP JUMPDEST SWAP3 POP SWAP3 POP SWAP3 POP SWAP2 SWAP4 SWAP1 SWAP3 POP JUMP JUMPDEST PUSH1 0x40 DUP1 MLOAD PUSH1 0x5 DUP1 DUP3 MSTORE PUSH1 0xC0 DUP3 ADD SWAP1 SWAP3 MSTORE PUSH1 0x60 SWAP2 PUSH1 0x0 SWAP2 SWAP1 PUSH1 0x20 DUP3 ADD PUSH1 0xA0 DUP1 CALLDATASIZE DUP4 CALLDATACOPY ADD SWAP1 POP POP SWAP1 POP PUSH20 0x0 DUP2 PUSH1 0x0 DUP2 MLOAD DUP2 LT PUSH2 0x142D JUMPI PUSH2 0x142D PUSH2 0x5316 JUMP JUMPDEST PUSH1 0x20 MUL PUSH1 0x20 ADD ADD SWAP1 PUSH1 0x1 PUSH1 0x1 PUSH1 0xA0 SHL SUB AND SWAP1 DUP2 PUSH1 0x1 PUSH1 0x1 PUSH1 0xA0 SHL SUB AND DUP2 MSTORE POP POP PUSH20 0x0 DUP2 PUSH1 0x1 DUP2 MLOAD DUP2 LT PUSH2 0x1475 JUMPI PUSH2 0x1475 PUSH2 0x5316 JUMP JUMPDEST PUSH1 0x20 MUL PUSH1 0x20 ADD ADD SWAP1 PUSH1 0x1 PUSH1 0x1 PUSH1 0xA0 SHL SUB AND SWAP1 DUP2 PUSH1 0x1 PUSH1 0x1 PUSH1 0xA0 SHL SUB AND DUP2 MSTORE POP POP PUSH20 0x0 DUP2 PUSH1 0x2 DUP2 MLOAD DUP2 LT PUSH2 0x14BD JUMPI PUSH2 0x14BD PUSH2 0x5316 JUMP JUMPDEST PUSH1 0x20 MUL PUSH1 0x20 ADD ADD SWAP1 PUSH1 0x1 PUSH1 0x1 PUSH1 0xA0 SHL SUB AND SWAP1 DUP2 PUSH1 0x1 PUSH1 0x1 PUSH1 0xA0 SHL SUB AND DUP2 MSTORE POP POP PUSH20 0x0 DUP2 PUSH1 0x3 DUP2 MLOAD DUP2 LT PUSH2 0x1505 JUMPI PUSH2 0x1505 PUSH2 0x5316 JUMP JUMPDEST PUSH1 0x20 MUL PUSH1 0x20 ADD ADD SWAP1 PUSH1 0x1 PUSH1 0x1 PUSH1 0xA0 SHL SUB AND SWAP1 DUP2 PUSH1 0x1 PUSH1 0x1 PUSH1 0xA0 SHL SUB AND DUP2 MSTORE POP POP PUSH20 0x0 DUP2 PUSH1 0x4 DUP2 MLOAD DUP2 LT PUSH2 0x154D JUMPI PUSH2 0x154D PUSH2 0x5316 JUMP JUMPDEST PUSH1 0x1 PUSH1 0x1 PUSH1 0xA0 SHL SUB SWAP1 SWAP3 AND PUSH1 0x20 SWAP3 DUP4 MUL SWAP2 SWAP1 SWAP2 ADD SWAP1 SWAP2 ADD MSTORE SWAP2 SWAP1 POP JUMP JUMPDEST PUSH1 0x0 DUP1 PUSH20 0x0 PUSH4 0xC3DB069F PUSH1 0x44 DUP8 DUP8 DUP8 PUSH1 0x40 MLOAD DUP6 PUSH4 0xFFFFFFFF AND PUSH1 0xE0 SHL DUP2 MSTORE PUSH1 0x4 ADD PUSH2 0x15AB SWAP5 SWAP4 SWAP3 SWAP2 SWAP1 PUSH2 0x5355 JUMP JUMPDEST PUSH1 0x20 PUSH1 0x40 MLOAD DUP1 DUP4 SUB DUP2 DUP7 GAS DELEGATECALL ISZERO DUP1 ISZERO PUSH2 0x15C8 JUMPI RETURNDATASIZE PUSH1 0x0 DUP1 RETURNDATACOPY RETURNDATASIZE PUSH1 0x0 REVERT JUMPDEST POP POP POP POP PUSH1 0x40 MLOAD RETURNDATASIZE PUSH1 0x1F NOT PUSH1 0x1F DUP3 ADD AND DUP3 ADD DUP1 PUSH1 0x40 MSTORE POP DUP2 ADD SWAP1 PUSH2 0x15EC SWAP2 SWAP1 PUSH2 0x50B2 JUMP JUMPDEST SWAP1 POP CALLER PUSH1 0x1 PUSH1 0x1 PUSH1 0xA0 SHL SUB AND DUP2 PUSH32 0xDE3BD866160A7F983F3C5F990127712936D37378D60B93BA96AB3A66A04FEB18 DUP8 DUP8 DUP8 PUSH1 0x40 MLOAD PUSH2 0x162C SWAP4 SWAP3 SWAP2 SWAP1 PUSH2 0x5382 JUMP JUMPDEST PUSH1 0x40 MLOAD DUP1 SWAP2 SUB SWAP1 LOG3 SWAP5 SWAP4 POP POP POP POP JUMP JUMPDEST PUSH1 0x40 MLOAD PUSH4 0x66F9A31 PUSH1 0xE3 SHL DUP2 MSTORE PUSH1 0x44 PUSH1 0x4 DUP3 ADD DUP2 SWAP1 MSTORE PUSH1 0x1 PUSH1 0x1 PUSH1 0xA0 SHL SUB DUP4 AND PUSH1 0x24 DUP4 ADD MSTORE PUSH1 0x0 SWAP2 PUSH20 0x0 SWAP2 PUSH4 0x337CD188 SWAP2 ADD PUSH2 0x1068 JUMP JUMPDEST PUSH1 0x0 DUP1 PUSH20 0x0 PUSH4 0xEF20D55D PUSH1 0x44 DUP8 DUP8 DUP8 PUSH1 0x40 MLOAD DUP6 PUSH4 0xFFFFFFFF AND PUSH1 0xE0 SHL DUP2 MSTORE PUSH1 0x4 ADD PUSH2 0x16C7 SWAP5 SWAP4 SWAP3 SWAP2 SWAP1 PUSH2 0x508D JUMP JUMPDEST PUSH1 0x20 PUSH1 0x40 MLOAD DUP1 DUP4 SUB DUP2 DUP7 GAS DELEGATECALL ISZERO DUP1 ISZERO PUSH2 0x16E4 JUMPI RETURNDATASIZE PUSH1 0x0 DUP1 RETURNDATACOPY RETURNDATASIZE PUSH1 0x0 REVERT JUMPDEST POP POP POP POP PUSH1 0x40 MLOAD RETURNDATASIZE PUSH1 0x1F NOT PUSH1 0x1F DUP3 ADD AND DUP3 ADD DUP1 PUSH1 0x40 MSTORE POP DUP2 ADD SWAP1 PUSH2 0x1708 SWAP2 SWAP1 PUSH2 0x50B2 JUMP JUMPDEST SWAP1 POP CALLER PUSH1 0x1 PUSH1 0x1 PUSH1 0xA0 SHL SUB AND DUP4 DUP7 PUSH32 0x888EBBEE43B69C568A7EF10A18F4AFB4A0452ED2CFEC2DDE7A3D37B7E5EF87A3 DUP8 DUP6 PUSH1 0x40 MLOAD PUSH2 0x100D SWAP3 SWAP2 SWAP1 PUSH2 0x50CB JUMP JUMPDEST PUSH1 0x0 PUSH1 0x1 PUSH1 0x1 PUSH1 0xA0 SHL SUB PUSH32 0x0 AND ADDRESS SUB PUSH2 0x179A JUMPI PUSH1 0x40 MLOAD PUSH3 0x461BCD PUSH1 0xE5 SHL DUP2 MSTORE PUSH1 0x4 ADD PUSH2 0x1791 SWAP1 PUSH2 0x53A8 JUMP JUMPDEST PUSH1 0x40 MLOAD DUP1 SWAP2 SUB SWAP1 REVERT JUMPDEST PUSH32 0x0 PUSH1 0x1 PUSH1 0x1 PUSH1 0xA0 SHL SUB AND PUSH2 0x17CC PUSH2 0x3C4C JUMP JUMPDEST PUSH1 0x1 PUSH1 0x1 PUSH1 0xA0 SHL SUB AND EQ PUSH2 0x17F2 JUMPI PUSH1 0x40 MLOAD PUSH3 0x461BCD PUSH1 0xE5 SHL DUP2 MSTORE PUSH1 0x4 ADD PUSH2 0x1791 SWAP1 PUSH2 0x53D7 JUMP JUMPDEST PUSH1 0x0 PUSH2 0x1801 PUSH1 0x49 SLOAD PUSH2 0xFFFF AND SWAP1 JUMP JUMPDEST PUSH2 0xFFFF AND GT PUSH2 0x1852 JUMPI PUSH1 0x40 MLOAD PUSH3 0x461BCD PUSH1 0xE5 SHL DUP2 MSTORE PUSH1 0x20 PUSH1 0x4 DUP3 ADD MSTORE PUSH1 0x18 PUSH1 0x24 DUP3 ADD MSTORE PUSH32 0x436F6E7472616374204E6F7420496E697469616C697A65640000000000000000 PUSH1 0x44 DUP3 ADD MSTORE PUSH1 0x64 ADD PUSH2 0x1791 JUMP JUMPDEST PUSH2 0x1862 PUSH4 0x225BF2F9 PUSH1 0xE1 SHL PUSH2 0x3C6D JUMP JUMPDEST PUSH2 0x18A6 JUMPI PUSH1 0x40 MLOAD PUSH3 0x461BCD PUSH1 0xE5 SHL DUP2 MSTORE PUSH1 0x20 PUSH1 0x4 DUP3 ADD MSTORE PUSH1 0x15 PUSH1 0x24 DUP3 ADD MSTORE PUSH21 0x29B2BA29B0B332A6B7B232902337B93134B23232B7 PUSH1 0x59 SHL PUSH1 0x44 DUP3 ADD MSTORE PUSH1 0x64 ADD PUSH2 0x1791 JUMP JUMPDEST PUSH1 0x3 DUP1 SLOAD PUSH1 0xFF PUSH1 0xA0 SHL NOT AND PUSH1 0x1 PUSH1 0xA0 SHL DUP5 ISZERO ISZERO MUL OR SWAP1 SSTORE PUSH1 0x2 SLOAD ADDRESS CALLER PUSH1 0x1 PUSH1 0x1 PUSH1 0xA0 SHL SUB AND PUSH32 0xDD452A31D2E164A1EA436C084842C27D24AE2548A575A869F71B05A4ED16243F DUP6 PUSH1 0x40 MLOAD PUSH2 0x18FE SWAP2 ISZERO ISZERO DUP2 MSTORE PUSH1 0x20 ADD SWAP1 JUMP JUMPDEST PUSH1 0x40 MLOAD DUP1 SWAP2 SUB SWAP1 LOG4 POP SWAP1 JUMP JUMPDEST PUSH1 0x40 MLOAD PUSH4 0x37F4C93 PUSH1 0xE4 SHL DUP2 MSTORE PUSH1 0x44 PUSH1 0x4 DUP3 ADD DUP2 SWAP1 MSTORE PUSH1 0x24 DUP3 ADD DUP4 SWAP1 MSTORE PUSH1 0x0 SWAP2 PUSH20 0x0 SWAP2 PUSH4 0x37F4C930 SWAP2 ADD PUSH2 0x1068 JUMP JUMPDEST PUSH1 0x0 PUSH1 0x1 PUSH1 0x1 PUSH1 0xA0 SHL SUB PUSH32 0x0 AND ADDRESS SUB PUSH2 0x1996 JUMPI PUSH1 0x40 MLOAD PUSH3 0x461BCD PUSH1 0xE5 SHL DUP2 MSTORE PUSH1 0x4 ADD PUSH2 0x1791 SWAP1 PUSH2 0x53A8 JUMP JUMPDEST PUSH32 0x0 PUSH1 0x1 PUSH1 0x1 PUSH1 0xA0 SHL SUB AND PUSH2 0x19C8 PUSH2 0x3C4C JUMP JUMPDEST PUSH1 0x1 PUSH1 0x1 PUSH1 0xA0 SHL SUB AND EQ PUSH2 0x19EE JUMPI PUSH1 0x40 MLOAD PUSH3 0x461BCD PUSH1 0xE5 SHL DUP2 MSTORE PUSH1 0x4 ADD PUSH2 0x1791 SWAP1 PUSH2 0x53D7 JUMP JUMPDEST PUSH1 0x3 SLOAD PUSH1 0x1 PUSH1 0xA0 SHL SWAP1 DIV PUSH1 0xFF AND ISZERO PUSH2 0x1A18 JUMPI PUSH1 0x40 MLOAD PUSH3 0x461BCD PUSH1 0xE5 SHL DUP2 MSTORE PUSH1 0x4 ADD PUSH2 0x1791 SWAP1 PUSH2 0x5405 JUMP JUMPDEST PUSH2 0x1A28 PUSH4 0x1239AF87 PUSH1 0xE2 SHL PUSH2 0x3C6D JUMP JUMPDEST PUSH2 0x1A74 JUMPI PUSH1 0x40 MLOAD PUSH3 0x461BCD PUSH1 0xE5 SHL DUP2 MSTORE PUSH1 0x20 PUSH1 0x4 DUP3 ADD MSTORE PUSH1 0x1A PUSH1 0x24 DUP3 ADD MSTORE PUSH32 0x5365745570677261646553746174757320466F7262696464656E000000000000 PUSH1 0x44 DUP3 ADD MSTORE PUSH1 0x64 ADD PUSH2 0x1791 JUMP JUMPDEST PUSH2 0x1A7C PUSH2 0x3DB2 JUMP JUMPDEST PUSH2 0x1AC8 JUMPI PUSH1 0x40 MLOAD PUSH3 0x461BCD PUSH1 0xE5 SHL DUP2 MSTORE PUSH1 0x20 PUSH1 0x4 DUP3 ADD MSTORE PUSH1 0x17 PUSH1 0x24 DUP3 ADD MSTORE PUSH32 0x5265616C6D205570677261646520466F7262696464656E000000000000000000 PUSH1 0x44 DUP3 ADD MSTORE PUSH1 0x64 ADD PUSH2 0x1791 JUMP JUMPDEST PUSH1 0x3 DUP1 SLOAD PUSH1 0xFF PUSH1 0xA8 SHL NOT AND PUSH1 0x1 PUSH1 0xA8 SHL DUP5 ISZERO ISZERO MUL OR SWAP1 SSTORE PUSH1 0x2 SLOAD ADDRESS CALLER PUSH1 0x1 PUSH1 0x1 PUSH1 0xA0 SHL SUB AND PUSH32 0xE9F97AD94C2BA252DCFC525E004F608AC5CB886955D8FC87D9E0EE070A698C56 DUP6 PUSH1 0x40 MLOAD PUSH2 0x18FE SWAP2 ISZERO ISZERO DUP2 MSTORE PUSH1 0x20 ADD SWAP1 JUMP JUMPDEST PUSH1 0x40 MLOAD PUSH4 0x52F8F17F PUSH1 0xE1 SHL DUP2 MSTORE PUSH1 0x44 PUSH1 0x4 DUP3 ADD DUP2 SWAP1 MSTORE PUSH1 0x24 DUP3 ADD DUP4 SWAP1 MSTORE PUSH1 0x0 SWAP2 PUSH20 0x0 SWAP2 PUSH4 0xA5F1E2FE SWAP2 ADD PUSH2 0x1068 JUMP JUMPDEST PUSH1 0x0 DUP1 PUSH20 0x0 PUSH4 0x9B214B70 PUSH1 0x44 DUP9 DUP9 DUP9 DUP9 PUSH1 0x40 MLOAD DUP7 PUSH4 0xFFFFFFFF AND PUSH1 0xE0 SHL DUP2 MSTORE PUSH1 0x4 ADD PUSH2 0x1BA5 SWAP6 SWAP5 SWAP4 SWAP3 SWAP2 SWAP1 PUSH2 0x543C JUMP JUMPDEST PUSH1 0x20 PUSH1 0x40 MLOAD DUP1 DUP4 SUB DUP2 DUP7 GAS DELEGATECALL ISZERO DUP1 ISZERO PUSH2 0x1BC2 JUMPI RETURNDATASIZE PUSH1 0x0 DUP1 RETURNDATACOPY RETURNDATASIZE PUSH1 0x0 REVERT JUMPDEST POP POP POP POP PUSH1 0x40 MLOAD RETURNDATASIZE PUSH1 0x1F NOT PUSH1 0x1F DUP3 ADD AND DUP3 ADD DUP1 PUSH1 0x40 MSTORE POP DUP2 ADD SWAP1 PUSH2 0x1BE6 SWAP2 SWAP1 PUSH2 0x50B2 JUMP JUMPDEST SWAP1 POP CALLER PUSH1 0x1 PUSH1 0x1 PUSH1 0xA0 SHL SUB AND DUP2 PUSH32 0x5A8ACBE7E0FA397D934E9AAFB8FB1A483627AF9E9B4690F4488D740B669F8B47 DUP9 DUP9 DUP9 DUP9 PUSH1 0x40 MLOAD PUSH2 0x1C28 SWAP5 SWAP4 SWAP3 SWAP2 SWAP1 PUSH2 0x546F JUMP JUMPDEST PUSH1 0x40 MLOAD DUP1 SWAP2 SUB SWAP1 LOG3 SWAP6 SWAP5 POP POP POP POP POP JUMP JUMPDEST PUSH1 0x40 MLOAD PUSH4 0x784C2773 PUSH1 0xE1 SHL DUP2 MSTORE PUSH1 0x44 PUSH1 0x4 DUP3 ADD DUP2 SWAP1 MSTORE PUSH1 0x24 DUP3 ADD DUP4 SWAP1 MSTORE PUSH1 0x0 SWAP2 PUSH20 0x0 SWAP2 PUSH4 0xF0984EE6 SWAP2 ADD PUSH2 0x1068 JUMP JUMPDEST PUSH1 0x40 MLOAD PUSH4 0x302A3283 PUSH1 0xE2 SHL DUP2 MSTORE PUSH1 0x44 PUSH1 0x4 DUP3 ADD DUP2 SWAP1 MSTORE PUSH1 0x24 DUP3 ADD DUP4 SWAP1 MSTORE PUSH1 0x0 SWAP2 PUSH20 0x0 SWAP2 PUSH4 0xC0A8CA0C SWAP2 ADD PUSH2 0x1068 JUMP JUMPDEST PUSH1 0x0 ADDRESS PUSH1 0x1 PUSH1 0x1 PUSH1 0xA0 SHL SUB PUSH32 0x0 AND EQ PUSH2 0x1D37 JUMPI PUSH1 0x40 MLOAD PUSH3 0x461BCD PUSH1 0xE5 SHL DUP2 MSTORE PUSH1 0x20 PUSH1 0x4 DUP3 ADD MSTORE PUSH1 0x1D PUSH1 0x24 DUP3 ADD MSTORE PUSH32 0x496C6C6567616C20436F6E74726163742044656C656761746563616C6C000000 PUSH1 0x44 DUP3 ADD MSTORE PUSH1 0x64 ADD PUSH2 0x1791 JUMP JUMPDEST POP PUSH1 0x0 DUP1 MLOAD PUSH1 0x20 PUSH2 0x5EE2 DUP4 CODECOPY DUP2 MLOAD SWAP2 MSTORE SWAP1 JUMP JUMPDEST PUSH1 0x0 PUSH2 0x1345 PUSH2 0x3C4C JUMP JUMPDEST PUSH1 0x40 MLOAD PUSH4 0x6787AD51 PUSH1 0xE0 SHL DUP2 MSTORE PUSH1 0x44 PUSH1 0x4 DUP3 ADD DUP2 SWAP1 MSTORE PUSH1 0x24 DUP3 ADD DUP4 SWAP1 MSTORE PUSH1 0x0 SWAP2 PUSH20 0x0 SWAP2 PUSH4 0x6787AD51 SWAP2 ADD PUSH2 0x1068 JUMP JUMPDEST PUSH1 0x1 PUSH1 0x1 PUSH1 0xA0 SHL SUB PUSH32 0x0 AND ADDRESS SUB PUSH2 0x1DDE JUMPI PUSH1 0x40 MLOAD PUSH3 0x461BCD PUSH1 0xE5 SHL DUP2 MSTORE PUSH1 0x4 ADD PUSH2 0x1791 SWAP1 PUSH2 0x53A8 JUMP JUMPDEST PUSH32 0x0 PUSH1 0x1 PUSH1 0x1 PUSH1 0xA0 SHL SUB AND PUSH2 0x1E10 PUSH2 0x3C4C JUMP JUMPDEST PUSH1 0x1 PUSH1 0x1 PUSH1 0xA0 SHL SUB AND EQ PUSH2 0x1E36 JUMPI PUSH1 0x40 MLOAD PUSH3 0x461BCD PUSH1 0xE5 SHL DUP2 MSTORE PUSH1 0x4 ADD PUSH2 0x1791 SWAP1 PUSH2 0x53D7 JUMP JUMPDEST CALLER PUSH2 0x1E3F PUSH2 0x3EF0 JUMP JUMPDEST PUSH1 0x1 PUSH1 0x1 PUSH1 0xA0 SHL SUB AND EQ PUSH2 0x1E8D JUMPI PUSH1 0x40 MLOAD PUSH3 0x461BCD PUSH1 0xE5 SHL DUP2 MSTORE PUSH1 0x20 PUSH1 0x4 DUP3 ADD MSTORE PUSH1 0x15 PUSH1 0x24 DUP3 ADD MSTORE PUSH21 0x10D85B1B195C88139BDD08105D5D1A1BDC9A5E9959 PUSH1 0x5A SHL PUSH1 0x44 DUP3 ADD MSTORE PUSH1 0x64 ADD PUSH2 0x1791 JUMP JUMPDEST PUSH1 0x49 SLOAD PUSH3 0x10000 SWAP1 DIV PUSH1 0xFF AND ISZERO DUP1 DUP1 ISZERO PUSH2 0x1EAF JUMPI POP PUSH1 0x49 SLOAD PUSH1 0x1 PUSH2 0xFFFF SWAP1 SWAP2 AND LT JUMPDEST DUP1 PUSH2 0x1ECA JUMPI POP ADDRESS EXTCODESIZE ISZERO DUP1 ISZERO PUSH2 0x1ECA JUMPI POP PUSH1 0x49 SLOAD PUSH2 0xFFFF AND PUSH1 0x1 EQ JUMPDEST PUSH2 0x1F16 JUMPI PUSH1 0x40 MLOAD PUSH3 0x461BCD PUSH1 0xE5 SHL DUP2 MSTORE PUSH1 0x20 PUSH1 0x4 DUP3 ADD MSTORE PUSH1 0x1C PUSH1 0x24 DUP3 ADD MSTORE PUSH32 0x436F6E747261637420416C726561647920496E697469616C697A656400000000 PUSH1 0x44 DUP3 ADD MSTORE PUSH1 0x64 ADD PUSH2 0x1791 JUMP JUMPDEST PUSH1 0x49 DUP1 SLOAD PUSH2 0xFFFF NOT AND PUSH1 0x1 OR SWAP1 SSTORE DUP1 ISZERO PUSH2 0x1F3C JUMPI PUSH1 0x49 DUP1 SLOAD PUSH3 0xFF0000 NOT AND PUSH3 0x10000 OR SWAP1 SSTORE JUMPDEST PUSH1 0x0 DUP5 DUP5 PUSH1 0x40 MLOAD PUSH1 0x20 ADD PUSH2 0x1F51 SWAP3 SWAP2 SWAP1 PUSH2 0x549B JUMP JUMPDEST PUSH1 0x40 DUP1 MLOAD DUP1 DUP4 SUB PUSH1 0x1F NOT ADD DUP2 MSTORE SWAP1 DUP3 SWAP1 MSTORE DUP1 MLOAD PUSH1 0x20 SWAP1 SWAP2 ADD KECCAK256 PUSH4 0x13F4F37F PUSH1 0xE3 SHL DUP3 MSTORE PUSH1 0x44 PUSH1 0x4 DUP4 ADD MSTORE SWAP2 POP PUSH20 0x0 SWAP1 PUSH4 0x9FA79BF8 SWAP1 PUSH1 0x24 ADD PUSH1 0x0 PUSH1 0x40 MLOAD DUP1 DUP4 SUB DUP2 DUP7 DUP1 EXTCODESIZE ISZERO DUP1 ISZERO PUSH2 0x1FB4 JUMPI PUSH1 0x0 DUP1 REVERT JUMPDEST POP GAS DELEGATECALL ISZERO DUP1 ISZERO PUSH2 0x1FC8 JUMPI RETURNDATASIZE PUSH1 0x0 DUP1 RETURNDATACOPY RETURNDATASIZE PUSH1 0x0 REVERT JUMPDEST POP POP POP POP PUSH2 0x1FDA DUP10 DUP10 DUP10 DUP10 DUP6 DUP9 PUSH2 0x3F18 JUMP JUMPDEST PUSH1 0x0 PUSH20 0x0 PUSH4 0x62F3C2D4 PUSH1 0x40 MLOAD DUP2 PUSH4 0xFFFFFFFF AND PUSH1 0xE0 SHL DUP2 MSTORE PUSH1 0x4 ADD PUSH1 0x0 PUSH1 0x40 MLOAD DUP1 DUP4 SUB DUP2 DUP7 GAS DELEGATECALL ISZERO DUP1 ISZERO PUSH2 0x2025 JUMPI RETURNDATASIZE PUSH1 0x0 DUP1 RETURNDATACOPY RETURNDATASIZE PUSH1 0x0 REVERT JUMPDEST POP POP POP POP PUSH1 0x40 MLOAD RETURNDATASIZE PUSH1 0x0 DUP3 RETURNDATACOPY PUSH1 0x1F RETURNDATASIZE SWAP1 DUP2 ADD PUSH1 0x1F NOT AND DUP3 ADD PUSH1 0x40 MSTORE PUSH2 0x204D SWAP2 SWAP1 DUP2 ADD SWAP1 PUSH2 0x54AB JUMP JUMPDEST PUSH1 0x40 MLOAD PUSH4 0xA64C0BB PUSH1 0xE4 SHL DUP2 MSTORE SWAP1 SWAP2 POP PUSH20 0x0 SWAP1 PUSH4 0xA64C0BB0 SWAP1 PUSH2 0x208E SWAP1 PUSH1 0x44 SWAP1 ADDRESS SWAP1 DUP8 SWAP1 DUP8 SWAP1 PUSH1 0x4 ADD PUSH2 0x55AE JUMP JUMPDEST PUSH1 0x20 PUSH1 0x40 MLOAD DUP1 DUP4 SUB DUP2 DUP7 GAS DELEGATECALL ISZERO DUP1 ISZERO PUSH2 0x20AB JUMPI RETURNDATASIZE PUSH1 0x0 DUP1 RETURNDATACOPY RETURNDATASIZE PUSH1 0x0 REVERT JUMPDEST POP POP POP POP PUSH1 0x40 MLOAD RETURNDATASIZE PUSH1 0x1F NOT PUSH1 0x1F DUP3 ADD AND DUP3 ADD DUP1 PUSH1 0x40 MSTORE POP DUP2 ADD SWAP1 PUSH2 0x20CF SWAP2 SWAP1 PUSH2 0x50B2 JUMP JUMPDEST POP PUSH2 0x20D8 PUSH2 0x3C4C JUMP JUMPDEST PUSH1 0x1 PUSH1 0x1 PUSH1 0xA0 SHL SUB AND ADDRESS CALLER PUSH1 0x1 PUSH1 0x1 PUSH1 0xA0 SHL SUB AND PUSH32 0xF851A1E85477B818FC72AD517EA622CC316F10F67D61C9E740ADC151A8B41394 DUP14 DUP14 DUP14 DUP14 DUP10 PUSH2 0x211F PUSH1 0x49 SLOAD PUSH2 0xFFFF AND SWAP1 JUMP JUMPDEST PUSH1 0x40 MLOAD PUSH2 0x2131 SWAP7 SWAP6 SWAP5 SWAP4 SWAP3 SWAP2 SWAP1 PUSH2 0x5686 JUMP JUMPDEST PUSH1 0x40 MLOAD DUP1 SWAP2 SUB SWAP1 LOG4 POP POP DUP1 ISZERO PUSH2 0x214E JUMPI PUSH1 0x49 DUP1 SLOAD PUSH3 0xFF0000 NOT AND SWAP1 SSTORE JUMPDEST POP POP POP POP POP POP POP POP JUMP JUMPDEST PUSH1 0x40 MLOAD PUSH4 0x97F7F87 PUSH1 0xE0 SHL DUP2 MSTORE PUSH1 0x44 PUSH1 0x4 DUP3 ADD DUP2 SWAP1 MSTORE PUSH1 0x24 DUP3 ADD DUP4 SWAP1 MSTORE PUSH1 0x60 SWAP2 PUSH1 0x0 SWAP2 PUSH20 0x0 SWAP2 PUSH4 0x97F7F87 SWAP2 ADD PUSH1 0x0 PUSH1 0x40 MLOAD DUP1 DUP4 SUB DUP2 DUP7 GAS DELEGATECALL ISZERO DUP1 ISZERO PUSH2 0x21B5 JUMPI RETURNDATASIZE PUSH1 0x0 DUP1 RETURNDATACOPY RETURNDATASIZE PUSH1 0x0 REVERT JUMPDEST POP POP POP POP PUSH1 0x40 MLOAD RETURNDATASIZE PUSH1 0x0 DUP3 RETURNDATACOPY PUSH1 0x1F RETURNDATASIZE SWAP1 DUP2 ADD PUSH1 0x1F NOT AND DUP3 ADD PUSH1 0x40 MSTORE PUSH2 0x21DD SWAP2 SWAP1 DUP2 ADD SWAP1 PUSH2 0x56CB JUMP JUMPDEST SWAP2 POP SWAP2 POP SWAP2 POP SWAP2 JUMP JUMPDEST PUSH1 0x40 MLOAD PUSH4 0x214CDDDF PUSH1 0xE2 SHL DUP2 MSTORE PUSH1 0x44 PUSH1 0x4 DUP3 ADD DUP2 SWAP1 MSTORE PUSH1 0x24 DUP3 ADD DUP6 SWAP1 MSTORE DUP2 ADD DUP4 SWAP1 MSTORE PUSH1 0x1 PUSH1 0x1 PUSH1 0xE0 SHL SUB NOT DUP3 AND PUSH1 0x64 DUP3 ADD MSTORE PUSH1 0x0 SWAP1 PUSH20 0x0 SWAP1 PUSH4 0x8533777C SWAP1 PUSH1 0x84 ADD JUMPDEST PUSH1 0x20 PUSH1 0x40 MLOAD DUP1 DUP4 SUB DUP2 DUP7 GAS DELEGATECALL ISZERO DUP1 ISZERO PUSH2 0x2258 JUMPI RETURNDATASIZE PUSH1 0x0 DUP1 RETURNDATACOPY RETURNDATASIZE PUSH1 0x0 REVERT JUMPDEST POP POP POP POP PUSH1 0x40 MLOAD RETURNDATASIZE PUSH1 0x1F NOT PUSH1 0x1F DUP3 ADD AND DUP3 ADD DUP1 PUSH1 0x40 MSTORE POP DUP2 ADD SWAP1 PUSH2 0x227C SWAP2 SWAP1 PUSH2 0x50E5 JUMP JUMPDEST SWAP5 SWAP4 POP POP POP POP JUMP JUMPDEST PUSH1 0x40 MLOAD PUSH4 0x75E6430F PUSH1 0xE1 SHL DUP2 MSTORE PUSH1 0x44 PUSH1 0x4 DUP3 ADD DUP2 SWAP1 MSTORE PUSH1 0x24 DUP3 ADD DUP5 SWAP1 MSTORE DUP3 ISZERO ISZERO SWAP1 DUP3 ADD MSTORE PUSH1 0x0 SWAP1 DUP2 SWAP1 DUP2 SWAP1 PUSH20 0x0 SWAP1 PUSH4 0xEBCC861E SWAP1 PUSH1 0x64 ADD PUSH1 0x40 DUP1 MLOAD DUP1 DUP4 SUB DUP2 DUP7 GAS DELEGATECALL ISZERO DUP1 ISZERO PUSH2 0x22EA JUMPI RETURNDATASIZE PUSH1 0x0 DUP1 RETURNDATACOPY RETURNDATASIZE PUSH1 0x0 REVERT JUMPDEST POP POP POP POP PUSH1 0x40 MLOAD RETURNDATASIZE PUSH1 0x1F NOT PUSH1 0x1F DUP3 ADD AND DUP3 ADD DUP1 PUSH1 0x40 MSTORE POP DUP2 ADD SWAP1 PUSH2 0x230E SWAP2 SWAP1 PUSH2 0x5711 JUMP JUMPDEST SWAP2 POP SWAP2 POP DUP1 PUSH2 0x231A CALLER SWAP1 JUMP JUMPDEST PUSH1 0x1 PUSH1 0x1 PUSH1 0xA0 SHL SUB AND DUP7 PUSH32 0x354501E3216E5F916D4D35EF255A577D106A7EAB306488227783A837DC042A4E DUP8 PUSH1 0x40 MLOAD PUSH2 0x2357 SWAP2 ISZERO ISZERO DUP2 MSTORE PUSH1 0x20 ADD SWAP1 JUMP JUMPDEST PUSH1 0x40 MLOAD DUP1 SWAP2 SUB SWAP1 LOG4 POP SWAP4 SWAP3 POP POP POP JUMP JUMPDEST PUSH1 0x60 PUSH1 0x1 PUSH1 0x1 PUSH1 0xA0 SHL SUB PUSH32 0x0 AND ADDRESS SUB PUSH2 0x23B1 JUMPI PUSH1 0x40 MLOAD PUSH3 0x461BCD PUSH1 0xE5 SHL DUP2 MSTORE PUSH1 0x4 ADD PUSH2 0x1791 SWAP1 PUSH2 0x53A8 JUMP JUMPDEST PUSH32 0x0 PUSH1 0x1 PUSH1 0x1 PUSH1 0xA0 SHL SUB AND PUSH2 0x23E3 PUSH2 0x3C4C JUMP JUMPDEST PUSH1 0x1 PUSH1 0x1 PUSH1 0xA0 SHL SUB AND EQ PUSH2 0x2409 JUMPI PUSH1 0x40 MLOAD PUSH3 0x461BCD PUSH1 0xE5 SHL DUP2 MSTORE PUSH1 0x4 ADD PUSH2 0x1791 SWAP1 PUSH2 0x53D7 JUMP JUMPDEST PUSH1 0x3 SLOAD PUSH1 0x1 PUSH1 0xA0 SHL SWAP1 DIV PUSH1 0xFF AND ISZERO PUSH2 0x2433 JUMPI PUSH1 0x40 MLOAD PUSH3 0x461BCD PUSH1 0xE5 SHL DUP2 MSTORE PUSH1 0x4 ADD PUSH2 0x1791 SWAP1 PUSH2 0x5405 JUMP JUMPDEST PUSH1 0x3 SLOAD PUSH1 0x1 PUSH1 0xA8 SHL SWAP1 DIV PUSH1 0xFF AND PUSH2 0x2484 JUMPI PUSH1 0x40 MLOAD PUSH3 0x461BCD PUSH1 0xE5 SHL DUP2 MSTORE PUSH1 0x20 PUSH1 0x4 DUP3 ADD MSTORE PUSH1 0x15 PUSH1 0x24 DUP3 ADD MSTORE PUSH21 0x155C19DC9859194810D85B1B0814995A9958DD1959 PUSH1 0x5A SHL PUSH1 0x44 DUP3 ADD MSTORE PUSH1 0x64 ADD PUSH2 0x1791 JUMP JUMPDEST PUSH2 0x248D DUP5 PUSH2 0x3F2E JUMP JUMPDEST PUSH2 0x227C DUP5 DUP5 DUP5 PUSH2 0x3FF5 JUMP JUMPDEST PUSH1 0x3 SLOAD PUSH1 0x1 PUSH1 0xA0 SHL SWAP1 DIV PUSH1 0xFF AND ISZERO PUSH2 0x24C2 JUMPI PUSH1 0x40 MLOAD PUSH3 0x461BCD PUSH1 0xE5 SHL DUP2 MSTORE PUSH1 0x4 ADD PUSH2 0x1791 SWAP1 PUSH2 0x5405 JUMP JUMPDEST PUSH2 0x24D2 PUSH4 0x756AF45F PUSH1 0xE0 SHL PUSH2 0x3C6D JUMP JUMPDEST PUSH2 0x251E JUMPI PUSH1 0x40 MLOAD PUSH3 0x461BCD PUSH1 0xE5 SHL DUP2 MSTORE PUSH1 0x20 PUSH1 0x4 DUP3 ADD MSTORE PUSH1 0x1A PUSH1 0x24 DUP3 ADD MSTORE PUSH32 0x57697468647261772042616C616E636520466F7262696464656E000000000000 PUSH1 0x44 DUP3 ADD MSTORE PUSH1 0x64 ADD PUSH2 0x1791 JUMP JUMPDEST PUSH1 0x40 MLOAD PUSH1 0x1 PUSH1 0x1 PUSH1 0xA0 SHL SUB DUP3 AND SWAP1 SELFBALANCE DUP1 ISZERO PUSH2 0x8FC MUL SWAP2 PUSH1 0x0 DUP2 DUP2 DUP2 DUP6 DUP9 DUP9 CALL SWAP4 POP POP POP POP ISZERO DUP1 ISZERO PUSH2 0x2553 JUMPI RETURNDATASIZE PUSH1 0x0 DUP1 RETURNDATACOPY RETURNDATASIZE PUSH1 0x0 REVERT JUMPDEST POP POP JUMP JUMPDEST PUSH1 0x0 DUP1 PUSH20 0x0 PUSH4 0x76FD3E82 PUSH1 0x44 DUP8 DUP8 DUP8 PUSH1 0x40 MLOAD DUP6 PUSH4 0xFFFFFFFF AND PUSH1 0xE0 SHL DUP2 MSTORE PUSH1 0x4 ADD PUSH2 0x2598 SWAP5 SWAP4 SWAP3 SWAP2 SWAP1 PUSH2 0x508D JUMP JUMPDEST PUSH1 0x20 PUSH1 0x40 MLOAD DUP1 DUP4 SUB DUP2 DUP7 GAS DELEGATECALL ISZERO DUP1 ISZERO PUSH2 0x25B5 JUMPI RETURNDATASIZE PUSH1 0x0 DUP1 RETURNDATACOPY RETURNDATASIZE PUSH1 0x0 REVERT JUMPDEST POP POP POP POP PUSH1 0x40 MLOAD RETURNDATASIZE PUSH1 0x1F NOT PUSH1 0x1F DUP3 ADD AND DUP3 ADD DUP1 PUSH1 0x40 MSTORE POP DUP2 ADD SWAP1 PUSH2 0x25D9 SWAP2 SWAP1 PUSH2 0x50B2 JUMP JUMPDEST SWAP1 POP CALLER PUSH1 0x1 PUSH1 0x1 PUSH1 0xA0 SHL SUB AND DUP4 DUP7 PUSH32 0xEA00FF399A342F54B82233841F91FAA5677300E901667E010E9F22AEA1AE5931 DUP8 DUP6 PUSH1 0x40 MLOAD PUSH2 0x100D SWAP3 SWAP2 SWAP1 PUSH2 0x50CB JUMP JUMPDEST PUSH1 0x0 DUP1 PUSH1 0x0 DUP1 PUSH20 0x0 PUSH4 0xEC7EE0E PUSH1 0x44 DUP11 DUP11 DUP11 DUP11 PUSH1 0x40 MLOAD DUP7 PUSH4 0xFFFFFFFF AND PUSH1 0xE0 SHL DUP2 MSTORE PUSH1 0x4 ADD PUSH2 0x265E SWAP6 SWAP5 SWAP4 SWAP3 SWAP2 SWAP1 PUSH2 0x5882 JUMP JUMPDEST PUSH1 0x60 PUSH1 0x40 MLOAD DUP1 DUP4 SUB DUP2 DUP7 GAS DELEGATECALL ISZERO DUP1 ISZERO PUSH2 0x267B JUMPI RETURNDATASIZE PUSH1 0x0 DUP1 RETURNDATACOPY RETURNDATASIZE PUSH1 0x0 REVERT JUMPDEST POP POP POP POP PUSH1 0x40 MLOAD RETURNDATASIZE PUSH1 0x1F NOT PUSH1 0x1F DUP3 ADD AND DUP3 ADD DUP1 PUSH1 0x40 MSTORE POP DUP2 ADD SWAP1 PUSH2 0x269F SWAP2 SWAP1 PUSH2 0x592C JUMP JUMPDEST SWAP3 POP SWAP3 POP SWAP3 POP PUSH2 0x26AC CALLER SWAP1 JUMP JUMPDEST PUSH1 0x1 PUSH1 0x1 PUSH1 0xA0 SHL SUB SWAP1 DUP2 AND SWAP1 DUP5 AND DUP4 PUSH32 0xCC1B95900C3E2C3876E4B29283DE90AC446BD6049A0DF525D14A8C07D36AE70C DUP5 PUSH2 0x26ED PUSH1 0xC0 DUP14 ADD PUSH1 0xA0 DUP15 ADD PUSH2 0x47BB JUMP JUMPDEST PUSH2 0x26FD PUSH1 0xA0 DUP15 ADD PUSH1 0x80 DUP16 ADD PUSH2 0x47BB JUMP JUMPDEST PUSH1 0x40 DUP1 MLOAD PUSH1 0x1 PUSH1 0x1 PUSH1 0xA0 SHL SUB SWAP5 DUP6 AND DUP2 MSTORE SWAP3 DUP5 AND PUSH1 0x20 DUP5 ADD MSTORE SWAP3 AND DUP2 DUP4 ADD MSTORE SWAP1 DUP13 ADD CALLDATALOAD PUSH1 0x60 DUP3 ADD MSTORE PUSH1 0x80 ADD JUMPDEST PUSH1 0x40 MLOAD DUP1 SWAP2 SUB SWAP1 LOG4 POP SWAP7 SWAP6 POP POP POP POP POP POP JUMP JUMPDEST PUSH1 0x0 PUSH2 0x1345 ADDRESS PUSH2 0x4246 JUMP JUMPDEST PUSH1 0x0 CALLER PUSH1 0x1 PUSH1 0x1 PUSH1 0xA0 SHL SUB AND DUP4 PUSH32 0xFE1617B569BD167AB40B31E034F68E32656219DBE4AB9469A00660550FEC72C8 DUP5 PUSH1 0x40 MLOAD PUSH2 0x2787 SWAP2 ISZERO ISZERO DUP2 MSTORE PUSH1 0x20 ADD SWAP1 JUMP JUMPDEST PUSH1 0x40 MLOAD DUP1 SWAP2 SUB SWAP1 LOG3 PUSH1 0x40 MLOAD PUSH3 0x5D742F PUSH1 0xE0 SHL DUP2 MSTORE PUSH1 0x44 PUSH1 0x4 DUP3 ADD DUP2 SWAP1 MSTORE PUSH1 0x24 DUP3 ADD DUP6 SWAP1 MSTORE DUP4 ISZERO ISZERO SWAP1 DUP3 ADD MSTORE PUSH20 0x0 SWAP1 PUSH3 0x5D742F SWAP1 PUSH1 0x64 ADD PUSH2 0x112A JUMP JUMPDEST PUSH1 0x40 MLOAD PUSH4 0x87D8E2B PUSH1 0xE4 SHL DUP2 MSTORE PUSH1 0x44 PUSH1 0x4 DUP3 ADD DUP2 SWAP1 MSTORE PUSH1 0x24 DUP3 ADD DUP4 SWAP1 MSTORE PUSH1 0x0 SWAP2 PUSH20 0x0 SWAP2 PUSH4 0x87D8E2B0 SWAP2 ADD PUSH2 0x1068 JUMP JUMPDEST PUSH1 0x40 MLOAD PUSH1 0x0 SWAP1 PUSH1 0x1 PUSH1 0x1 PUSH1 0xA0 SHL SUB DUP4 AND SWAP1 DUP5 SWAP1 CALLER SWAP1 PUSH32 0xD992F85DF7A0BE47C44B0BE141BE17EEFD360033A4CE05B5458FBA27B7781999 SWAP1 DUP6 SWAP1 LOG4 PUSH1 0x40 MLOAD PUSH4 0x424AFD2B PUSH1 0xE1 SHL DUP2 MSTORE PUSH1 0x44 PUSH1 0x4 DUP3 ADD DUP2 SWAP1 MSTORE PUSH1 0x24 DUP3 ADD DUP6 SWAP1 MSTORE PUSH1 0x1 PUSH1 0x1 PUSH1 0xA0 SHL SUB DUP5 AND SWAP1 DUP3 ADD MSTORE PUSH20 0x0 SWAP1 PUSH4 0x8495FA56 SWAP1 PUSH1 0x64 ADD PUSH2 0x112A JUMP JUMPDEST PUSH1 0x40 MLOAD PUSH4 0xC59F431 PUSH1 0xE2 SHL DUP2 MSTORE PUSH1 0x44 PUSH1 0x4 DUP3 ADD DUP2 SWAP1 MSTORE PUSH1 0x24 DUP3 ADD DUP4 SWAP1 MSTORE PUSH1 0x0 SWAP2 PUSH20 0x0 SWAP2 PUSH4 0x3167D0C4 SWAP2 ADD PUSH2 0x1068 JUMP JUMPDEST PUSH1 0x0 DUP1 JUMPDEST DUP3 DUP2 LT ISZERO PUSH2 0x298B JUMPI DUP4 DUP4 DUP3 DUP2 DUP2 LT PUSH2 0x2900 JUMPI PUSH2 0x2900 PUSH2 0x5316 JUMP JUMPDEST SWAP1 POP PUSH1 0x40 MUL ADD PUSH1 0x20 ADD PUSH1 0x20 DUP2 ADD SWAP1 PUSH2 0x2918 SWAP2 SWAP1 PUSH2 0x47BB JUMP JUMPDEST PUSH1 0x1 PUSH1 0x1 PUSH1 0xA0 SHL SUB AND DUP5 DUP5 DUP4 DUP2 DUP2 LT PUSH2 0x2933 JUMPI PUSH2 0x2933 PUSH2 0x5316 JUMP JUMPDEST SWAP1 POP PUSH1 0x40 MUL ADD PUSH1 0x0 ADD CALLDATALOAD PUSH2 0x2944 CALLER SWAP1 JUMP JUMPDEST PUSH1 0x1 PUSH1 0x1 PUSH1 0xA0 SHL SUB AND PUSH32 0xD992F85DF7A0BE47C44B0BE141BE17EEFD360033A4CE05B5458FBA27B7781999 PUSH1 0x40 MLOAD PUSH1 0x40 MLOAD DUP1 SWAP2 SUB SWAP1 LOG4 DUP1 PUSH2 0x2983 DUP2 PUSH2 0x597A JUMP JUMPDEST SWAP2 POP POP PUSH2 0x28E6 JUMP JUMPDEST POP PUSH1 0x40 MLOAD PUSH4 0x803BD09 PUSH1 0xE4 SHL DUP2 MSTORE PUSH20 0x0 SWAP1 PUSH4 0x803BD090 SWAP1 PUSH2 0x112A SWAP1 PUSH1 0x44 SWAP1 DUP8 SWAP1 DUP8 SWAP1 PUSH1 0x4 ADD PUSH2 0x5993 JUMP JUMPDEST PUSH1 0x40 MLOAD PUSH4 0x6CC77B11 PUSH1 0xE1 SHL DUP2 MSTORE PUSH1 0x44 PUSH1 0x4 DUP3 ADD DUP2 SWAP1 MSTORE PUSH1 0x24 DUP3 ADD DUP4 SWAP1 MSTORE PUSH1 0x0 SWAP2 PUSH20 0x0 SWAP2 PUSH4 0xD98EF622 SWAP2 ADD PUSH2 0x1068 JUMP JUMPDEST PUSH1 0x60 PUSH1 0x0 PUSH20 0x0 PUSH4 0x68B38E0F PUSH1 0x44 DUP7 DUP7 PUSH1 0x40 MLOAD DUP5 PUSH4 0xFFFFFFFF AND PUSH1 0xE0 SHL DUP2 MSTORE PUSH1 0x4 ADD PUSH2 0x2A4A SWAP4 SWAP3 SWAP2 SWAP1 PUSH2 0x59E8 JUMP JUMPDEST PUSH1 0x0 PUSH1 0x40 MLOAD DUP1 DUP4 SUB DUP2 DUP7 GAS DELEGATECALL ISZERO DUP1 ISZERO PUSH2 0x2A67 JUMPI RETURNDATASIZE PUSH1 0x0 DUP1 RETURNDATACOPY RETURNDATASIZE PUSH1 0x0 REVERT JUMPDEST POP POP POP POP PUSH1 0x40 MLOAD RETURNDATASIZE PUSH1 0x0 DUP3 RETURNDATACOPY PUSH1 0x1F RETURNDATASIZE SWAP1 DUP2 ADD PUSH1 0x1F NOT AND DUP3 ADD PUSH1 0x40 MSTORE PUSH2 0x2A8F SWAP2 SWAP1 DUP2 ADD SWAP1 PUSH2 0x51E8 JUMP JUMPDEST SWAP1 POP PUSH1 0x0 JUMPDEST DUP4 DUP2 LT ISZERO PUSH2 0x2BB3 JUMPI DUP5 DUP5 DUP3 DUP2 DUP2 LT PUSH2 0x2AAE JUMPI PUSH2 0x2AAE PUSH2 0x5316 JUMP JUMPDEST SWAP1 POP PUSH1 0x20 MUL DUP2 ADD SWAP1 PUSH2 0x2AC0 SWAP2 SWAP1 PUSH2 0x5ABF JUMP JUMPDEST PUSH2 0x2ACE SWAP1 PUSH1 0x20 DUP2 ADD SWAP1 PUSH2 0x5ADF JUMP JUMPDEST PUSH1 0x40 MLOAD PUSH2 0x2ADC SWAP3 SWAP2 SWAP1 PUSH2 0x549B JUMP JUMPDEST PUSH1 0x40 MLOAD DUP1 SWAP2 SUB SWAP1 KECCAK256 DUP3 DUP3 DUP2 MLOAD DUP2 LT PUSH2 0x2AF6 JUMPI PUSH2 0x2AF6 PUSH2 0x5316 JUMP JUMPDEST PUSH1 0x20 MUL PUSH1 0x20 ADD ADD MLOAD PUSH2 0x2B05 CALLER SWAP1 JUMP JUMPDEST PUSH1 0x1 PUSH1 0x1 PUSH1 0xA0 SHL SUB AND PUSH32 0x539B07DDDD6BD9FFEFA3D951A9467D78948CBE1A8D13BE00E7376842A83A5981 DUP9 DUP9 DUP7 DUP2 DUP2 LT PUSH2 0x2B41 JUMPI PUSH2 0x2B41 PUSH2 0x5316 JUMP JUMPDEST SWAP1 POP PUSH1 0x20 MUL DUP2 ADD SWAP1 PUSH2 0x2B53 SWAP2 SWAP1 PUSH2 0x5ABF JUMP JUMPDEST CALLDATALOAD DUP10 DUP10 DUP8 DUP2 DUP2 LT PUSH2 0x2B66 JUMPI PUSH2 0x2B66 PUSH2 0x5316 JUMP JUMPDEST SWAP1 POP PUSH1 0x20 MUL DUP2 ADD SWAP1 PUSH2 0x2B78 SWAP2 SWAP1 PUSH2 0x5ABF JUMP JUMPDEST PUSH2 0x2B89 SWAP1 PUSH1 0x60 DUP2 ADD SWAP1 PUSH1 0x40 ADD PUSH2 0x4A0E JUMP JUMPDEST PUSH1 0x40 DUP1 MLOAD SWAP3 DUP4 MSTORE SWAP1 ISZERO ISZERO PUSH1 0x20 DUP4 ADD MSTORE ADD PUSH1 0x40 MLOAD DUP1 SWAP2 SUB SWAP1 LOG4 DUP1 PUSH2 0x2BAB DUP2 PUSH2 0x597A JUMP JUMPDEST SWAP2 POP POP PUSH2 0x2A94 JUMP JUMPDEST POP SWAP4 SWAP3 POP POP POP JUMP JUMPDEST PUSH1 0x40 DUP1 MLOAD PUSH1 0xC0 DUP2 ADD DUP3 MSTORE PUSH1 0x0 DUP1 DUP3 MSTORE PUSH1 0x20 DUP3 ADD DUP2 SWAP1 MSTORE DUP2 DUP4 ADD DUP2 SWAP1 MSTORE PUSH1 0x60 DUP3 ADD DUP2 SWAP1 MSTORE PUSH1 0x80 DUP3 ADD DUP2 SWAP1 MSTORE PUSH1 0xA0 DUP3 ADD MSTORE SWAP1 MLOAD PUSH4 0x9BBAFB11 PUSH1 0xE0 SHL DUP2 MSTORE PUSH1 0x44 PUSH1 0x4 DUP3 ADD DUP2 SWAP1 MSTORE PUSH1 0x24 DUP3 ADD DUP5 SWAP1 MSTORE PUSH20 0x0 SWAP2 PUSH4 0x9BBAFB11 SWAP2 ADD PUSH1 0xC0 PUSH1 0x40 MLOAD DUP1 DUP4 SUB DUP2 DUP7 GAS DELEGATECALL ISZERO DUP1 ISZERO PUSH2 0x2C40 JUMPI RETURNDATASIZE PUSH1 0x0 DUP1 RETURNDATACOPY RETURNDATASIZE PUSH1 0x0 REVERT JUMPDEST POP POP POP POP PUSH1 0x40 MLOAD RETURNDATASIZE PUSH1 0x1F NOT PUSH1 0x1F DUP3 ADD AND DUP3 ADD DUP1 PUSH1 0x40 MSTORE POP DUP2 ADD SWAP1 PUSH2 0xF46 SWAP2 SWAP1 PUSH2 0x5B25 JUMP JUMPDEST PUSH1 0x40 MLOAD PUSH4 0xCE34A66D PUSH1 0xE0 SHL DUP2 MSTORE PUSH1 0x44 PUSH1 0x4 DUP3 ADD DUP2 SWAP1 MSTORE PUSH1 0x24 DUP3 ADD DUP4 SWAP1 MSTORE PUSH1 0x0 SWAP2 PUSH20 0x0 SWAP2 PUSH4 0xCE34A66D SWAP2 ADD PUSH2 0x1068 JUMP JUMPDEST PUSH1 0x40 MLOAD PUSH4 0x42EF199B PUSH1 0xE1 SHL DUP2 MSTORE PUSH1 0x44 PUSH1 0x4 DUP3 ADD DUP2 SWAP1 MSTORE PUSH1 0x1 PUSH1 0x1 PUSH1 0xA0 SHL SUB DUP4 AND PUSH1 0x24 DUP4 ADD MSTORE PUSH1 0x0 SWAP2 PUSH20 0x0 SWAP2 PUSH4 0x85DE3336 SWAP2 ADD PUSH2 0x1068 JUMP JUMPDEST PUSH1 0x0 DUP1 PUSH20 0x0 PUSH4 0x881D8676 PUSH1 0x44 DUP9 DUP9 DUP9 DUP9 PUSH1 0x40 MLOAD DUP7 PUSH4 0xFFFFFFFF AND PUSH1 0xE0 SHL DUP2 MSTORE PUSH1 0x4 ADD PUSH2 0x2D33 SWAP6 SWAP5 SWAP4 SWAP3 SWAP2 SWAP1 PUSH2 0x5BB6 JUMP JUMPDEST PUSH1 0x20 PUSH1 0x40 MLOAD DUP1 DUP4 SUB DUP2 DUP7 GAS DELEGATECALL ISZERO DUP1 ISZERO PUSH2 0x2D50 JUMPI RETURNDATASIZE PUSH1 0x0 DUP1 RETURNDATACOPY RETURNDATASIZE PUSH1 0x0 REVERT JUMPDEST POP POP POP POP PUSH1 0x40 MLOAD RETURNDATASIZE PUSH1 0x1F NOT PUSH1 0x1F DUP3 ADD AND DUP3 ADD DUP1 PUSH1 0x40 MSTORE POP DUP2 ADD SWAP1 PUSH2 0x2D74 SWAP2 SWAP1 PUSH2 0x50B2 JUMP JUMPDEST SWAP1 POP DUP6 DUP6 PUSH1 0x40 MLOAD PUSH2 0x2D86 SWAP3 SWAP2 SWAP1 PUSH2 0x549B JUMP JUMPDEST PUSH1 0x40 MLOAD DUP1 SWAP2 SUB SWAP1 KECCAK256 DUP2 PUSH2 0x2D96 CALLER SWAP1 JUMP JUMPDEST PUSH1 0x1 PUSH1 0x1 PUSH1 0xA0 SHL SUB AND PUSH32 0x539B07DDDD6BD9FFEFA3D951A9467D78948CBE1A8D13BE00E7376842A83A5981 DUP8 DUP8 PUSH1 0x40 MLOAD PUSH2 0x2DDB SWAP3 SWAP2 SWAP1 SWAP2 DUP3 MSTORE ISZERO ISZERO PUSH1 0x20 DUP3 ADD MSTORE PUSH1 0x40 ADD SWAP1 JUMP JUMPDEST PUSH1 0x40 MLOAD DUP1 SWAP2 SUB SWAP1 LOG4 SWAP6 SWAP5 POP POP POP POP POP JUMP JUMPDEST PUSH1 0x40 MLOAD PUSH4 0x37455C0B PUSH1 0xE2 SHL DUP2 MSTORE PUSH1 0x0 SWAP1 PUSH20 0x0 SWAP1 PUSH4 0xDD15702C SWAP1 PUSH2 0x112A SWAP1 PUSH1 0x44 SWAP1 DUP8 SWAP1 DUP8 SWAP1 PUSH1 0x4 ADD PUSH2 0x5102 JUMP JUMPDEST PUSH1 0x0 DUP1 PUSH20 0x0 PUSH4 0x4A56C0B8 PUSH1 0x44 DUP7 DUP7 PUSH1 0x40 MLOAD DUP5 PUSH4 0xFFFFFFFF AND PUSH1 0xE0 SHL DUP2 MSTORE PUSH1 0x4 ADD PUSH2 0x2E6A SWAP4 SWAP3 SWAP2 SWAP1 PUSH2 0x5102 JUMP JUMPDEST PUSH1 0x20 PUSH1 0x40 MLOAD DUP1 DUP4 SUB DUP2 DUP7 GAS DELEGATECALL ISZERO DUP1 ISZERO PUSH2 0x2E87 JUMPI RETURNDATASIZE PUSH1 0x0 DUP1 RETURNDATACOPY RETURNDATASIZE PUSH1 0x0 REVERT JUMPDEST POP POP POP POP PUSH1 0x40 MLOAD RETURNDATASIZE PUSH1 0x1F NOT PUSH1 0x1F DUP3 ADD AND DUP3 ADD DUP1 PUSH1 0x40 MSTORE POP DUP2 ADD SWAP1 PUSH2 0x2EAB SWAP2 SWAP1 PUSH2 0x50B2 JUMP JUMPDEST SWAP1 POP CALLER PUSH1 0x1 PUSH1 0x1 PUSH1 0xA0 SHL SUB AND DUP5 PUSH32 0xA6234DFEA6DA9D63D0505BA9B61AC8405DFD897089208859CDA18011C4847D69 DUP6 DUP5 PUSH1 0x40 MLOAD PUSH2 0x2EE9 SWAP3 SWAP2 SWAP1 PUSH2 0x50CB JUMP JUMPDEST PUSH1 0x40 MLOAD DUP1 SWAP2 SUB SWAP1 LOG3 POP PUSH1 0x1 SWAP4 SWAP3 POP POP POP JUMP JUMPDEST PUSH1 0x0 CALLER PUSH1 0x1 PUSH1 0x1 PUSH1 0xA0 SHL SUB AND DUP4 PUSH32 0xE595D6B009CBFD06BFDFC4B7C06799F0E0B08FB2C6F5FA6E28A9AAC2495440F9 DUP5 PUSH1 0x40 MLOAD PUSH2 0x2F3B SWAP2 ISZERO ISZERO DUP2 MSTORE PUSH1 0x20 ADD SWAP1 JUMP JUMPDEST PUSH1 0x40 MLOAD DUP1 SWAP2 SUB SWAP1 LOG3 PUSH1 0x40 MLOAD PUSH4 0x11CC3C77 PUSH1 0xE0 SHL DUP2 MSTORE PUSH1 0x44 PUSH1 0x4 DUP3 ADD DUP2 SWAP1 MSTORE PUSH1 0x24 DUP3 ADD DUP6 SWAP1 MSTORE DUP4 ISZERO ISZERO SWAP1 DUP3 ADD MSTORE PUSH20 0x0 SWAP1 PUSH4 0x11CC3C77 SWAP1 PUSH1 0x64 ADD PUSH2 0x112A JUMP JUMPDEST PUSH1 0x40 MLOAD PUSH4 0x14AC83B PUSH1 0xE6 SHL DUP2 MSTORE PUSH1 0x44 PUSH1 0x4 DUP3 ADD DUP2 SWAP1 MSTORE PUSH1 0x24 DUP3 ADD DUP4 SWAP1 MSTORE PUSH1 0x60 SWAP2 PUSH1 0x0 SWAP2 DUP3 SWAP2 PUSH20 0x0 SWAP2 PUSH4 0x52B20EC0 SWAP2 ADD PUSH1 0x0 PUSH1 0x40 MLOAD DUP1 DUP4 SUB DUP2 DUP7 GAS DELEGATECALL ISZERO DUP1 ISZERO PUSH2 0x2FEA JUMPI RETURNDATASIZE PUSH1 0x0 DUP1 RETURNDATACOPY RETURNDATASIZE PUSH1 0x0 REVERT JUMPDEST POP POP POP POP PUSH1 0x40 MLOAD RETURNDATASIZE PUSH1 0x0 DUP3 RETURNDATACOPY PUSH1 0x1F RETURNDATASIZE SWAP1 DUP2 ADD PUSH1 0x1F NOT AND DUP3 ADD PUSH1 0x40 MSTORE PUSH2 0x13D1 SWAP2 SWAP1 DUP2 ADD SWAP1 PUSH2 0x5BE9 JUMP JUMPDEST PUSH1 0x40 MLOAD PUSH4 0x77F616AF PUSH1 0xE1 SHL DUP2 MSTORE PUSH1 0x44 PUSH1 0x4 DUP3 ADD DUP2 SWAP1 MSTORE PUSH1 0x1 PUSH1 0x1 PUSH1 0xA0 SHL SUB DUP4 AND PUSH1 0x24 DUP4 ADD MSTORE PUSH1 0x0 SWAP2 PUSH20 0x0 SWAP2 PUSH4 0xEFEC2D5E SWAP2 ADD PUSH2 0x1068 JUMP JUMPDEST PUSH1 0x40 MLOAD PUSH4 0x74E7DB39 PUSH1 0xE1 SHL DUP2 MSTORE PUSH1 0x44 PUSH1 0x4 DUP3 ADD DUP2 SWAP1 MSTORE PUSH1 0x1 PUSH1 0x1 PUSH1 0xA0 SHL SUB DUP4 AND PUSH1 0x24 DUP4 ADD MSTORE PUSH1 0x0 SWAP2 PUSH20 0x0 SWAP2 PUSH4 0xE9CFB672 SWAP2 ADD PUSH2 0x1068 JUMP JUMPDEST PUSH1 0x40 MLOAD PUSH4 0x226D6A0D PUSH1 0xE2 SHL DUP2 MSTORE PUSH1 0x44 PUSH1 0x4 DUP3 ADD DUP2 SWAP1 MSTORE PUSH1 0x24 DUP3 ADD DUP4 SWAP1 MSTORE PUSH1 0x0 SWAP2 PUSH20 0x0 SWAP2 PUSH4 0x89B5A834 SWAP2 ADD PUSH2 0x1068 JUMP JUMPDEST PUSH1 0x0 DUP1 JUMPDEST DUP3 DUP2 LT ISZERO PUSH2 0x3191 JUMPI DUP4 DUP4 DUP3 DUP2 DUP2 LT PUSH2 0x3106 JUMPI PUSH2 0x3106 PUSH2 0x5316 JUMP JUMPDEST SWAP1 POP PUSH1 0x40 MUL ADD PUSH1 0x20 ADD PUSH1 0x20 DUP2 ADD SWAP1 PUSH2 0x311E SWAP2 SWAP1 PUSH2 0x47BB JUMP JUMPDEST PUSH1 0x1 PUSH1 0x1 PUSH1 0xA0 SHL SUB AND DUP5 DUP5 DUP4 DUP2 DUP2 LT PUSH2 0x3139 JUMPI PUSH2 0x3139 PUSH2 0x5316 JUMP JUMPDEST SWAP1 POP PUSH1 0x40 MUL ADD PUSH1 0x0 ADD CALLDATALOAD PUSH2 0x314A CALLER SWAP1 JUMP JUMPDEST PUSH1 0x1 PUSH1 0x1 PUSH1 0xA0 SHL SUB AND PUSH32 0x1D31FE42F06D4C1F16F6CB7B5682F1D6743641A9E1412FA0258F6776C5B943EE PUSH1 0x40 MLOAD PUSH1 0x40 MLOAD DUP1 SWAP2 SUB SWAP1 LOG4 DUP1 PUSH2 0x3189 DUP2 PUSH2 0x597A JUMP JUMPDEST SWAP2 POP POP PUSH2 0x30EC JUMP JUMPDEST POP PUSH1 0x40 MLOAD PUSH4 0x608F85EF PUSH1 0xE0 SHL DUP2 MSTORE PUSH20 0x0 SWAP1 PUSH4 0x608F85EF SWAP1 PUSH2 0x112A SWAP1 PUSH1 0x44 SWAP1 DUP8 SWAP1 DUP8 SWAP1 PUSH1 0x4 ADD PUSH2 0x5993 JUMP JUMPDEST PUSH1 0x40 MLOAD PUSH4 0x289EA12D PUSH1 0xE1 SHL DUP2 MSTORE PUSH1 0x44 PUSH1 0x4 DUP3 ADD DUP2 SWAP1 MSTORE PUSH1 0x24 DUP3 ADD DUP6 SWAP1 MSTORE PUSH1 0x1 PUSH1 0x1 PUSH1 0xA0 SHL SUB DUP5 AND SWAP1 DUP3 ADD MSTORE PUSH1 0x1 PUSH1 0x1 PUSH1 0xE0 SHL SUB NOT DUP3 AND PUSH1 0x64 DUP3 ADD MSTORE PUSH1 0x0 SWAP1 PUSH20 0x0 SWAP1 PUSH4 0x513D425A SWAP1 PUSH1 0x84 ADD PUSH2 0x223B JUMP JUMPDEST PUSH1 0x40 MLOAD PUSH4 0x6861FC11 PUSH1 0xE0 SHL DUP2 MSTORE PUSH1 0x44 PUSH1 0x4 DUP3 ADD DUP2 SWAP1 MSTORE PUSH1 0x24 DUP3 ADD DUP5 SWAP1 MSTORE PUSH1 0x1 PUSH1 0x1 PUSH1 0xA0 SHL SUB DUP4 AND SWAP1 DUP3 ADD MSTORE PUSH1 0x0 SWAP1 PUSH20 0x0 SWAP1 PUSH4 0x6861FC11 SWAP1 PUSH1 0x64 ADD PUSH2 0x112A JUMP JUMPDEST PUSH1 0x40 MLOAD PUSH4 0xADFC581B PUSH1 0xE0 SHL DUP2 MSTORE PUSH1 0x44 PUSH1 0x4 DUP3 ADD DUP2 SWAP1 MSTORE PUSH1 0x24 DUP3 ADD DUP5 SWAP1 MSTORE DUP2 ADD DUP3 SWAP1 MSTORE PUSH1 0x0 SWAP1 DUP2 SWAP1 DUP2 SWAP1 PUSH20 0x0 SWAP1 PUSH4 0xADFC581B SWAP1 PUSH1 0x64 ADD PUSH1 0x40 DUP1 MLOAD DUP1 DUP4 SUB DUP2 DUP7 GAS DELEGATECALL ISZERO DUP1 ISZERO PUSH2 0x32E6 JUMPI RETURNDATASIZE PUSH1 0x0 DUP1 RETURNDATACOPY RETURNDATASIZE PUSH1 0x0 REVERT JUMPDEST POP POP POP POP PUSH1 0x40 MLOAD RETURNDATASIZE PUSH1 0x1F NOT PUSH1 0x1F DUP3 ADD AND DUP3 ADD DUP1 PUSH1 0x40 MSTORE POP DUP2 ADD SWAP1 PUSH2 0x330A SWAP2 SWAP1 PUSH2 0x5711 JUMP JUMPDEST SWAP2 POP SWAP2 POP DUP4 PUSH2 0x3316 CALLER SWAP1 JUMP JUMPDEST PUSH1 0x1 PUSH1 0x1 PUSH1 0xA0 SHL SUB AND DUP7 PUSH32 0xA0EAA0025D4F12545803A03C369115C59F885DF7B5FC07A6393438827DBF51B7 DUP5 PUSH1 0x40 MLOAD PUSH2 0x2357 SWAP2 DUP2 MSTORE PUSH1 0x20 ADD SWAP1 JUMP JUMPDEST PUSH1 0x40 MLOAD PUSH4 0xCB3DB3A3 PUSH1 0xE0 SHL DUP2 MSTORE PUSH1 0x44 PUSH1 0x4 DUP3 ADD DUP2 SWAP1 MSTORE PUSH1 0x24 DUP3 ADD DUP5 SWAP1 MSTORE DUP2 ADD DUP3 SWAP1 MSTORE PUSH1 0x0 SWAP1 PUSH20 0x0 SWAP1 PUSH4 0xCB3DB3A3 SWAP1 PUSH1 0x64 ADD PUSH2 0x112A JUMP JUMPDEST PUSH1 0x40 MLOAD PUSH4 0x57DC9383 PUSH1 0xE1 SHL DUP2 MSTORE PUSH1 0x44 PUSH1 0x4 DUP3 ADD DUP2 SWAP1 MSTORE PUSH1 0x1 PUSH1 0x1 PUSH1 0xA0 SHL SUB DUP4 AND PUSH1 0x24 DUP4 ADD MSTORE PUSH1 0x0 SWAP2 PUSH20 0x0 SWAP2 PUSH4 0xAFB92706 SWAP2 ADD PUSH2 0x1068 JUMP JUMPDEST PUSH1 0x0 PUSH1 0x1 PUSH1 0x1 PUSH1 0xA0 SHL SUB PUSH32 0x0 AND ADDRESS SUB PUSH2 0x342E JUMPI PUSH1 0x40 MLOAD PUSH3 0x461BCD PUSH1 0xE5 SHL DUP2 MSTORE PUSH1 0x4 ADD PUSH2 0x1791 SWAP1 PUSH2 0x53A8 JUMP JUMPDEST PUSH32 0x0 PUSH1 0x1 PUSH1 0x1 PUSH1 0xA0 SHL SUB AND PUSH2 0x3460 PUSH2 0x3C4C JUMP JUMPDEST PUSH1 0x1 PUSH1 0x1 PUSH1 0xA0 SHL SUB AND EQ PUSH2 0x3486 JUMPI PUSH1 0x40 MLOAD PUSH3 0x461BCD PUSH1 0xE5 SHL DUP2 MSTORE PUSH1 0x4 ADD PUSH2 0x1791 SWAP1 PUSH2 0x53D7 JUMP JUMPDEST PUSH1 0x3 SLOAD PUSH1 0x1 PUSH1 0xA0 SHL SWAP1 DIV PUSH1 0xFF AND ISZERO PUSH2 0x34B0 JUMPI PUSH1 0x40 MLOAD PUSH3 0x461BCD PUSH1 0xE5 SHL DUP2 MSTORE PUSH1 0x4 ADD PUSH2 0x1791 SWAP1 PUSH2 0x5405 JUMP JUMPDEST PUSH2 0x34C0 PUSH4 0xD9DC1F19 PUSH1 0xE0 SHL PUSH2 0x3C6D JUMP JUMPDEST PUSH2 0x350C JUMPI PUSH1 0x40 MLOAD PUSH3 0x461BCD PUSH1 0xE5 SHL DUP2 MSTORE PUSH1 0x20 PUSH1 0x4 DUP3 ADD MSTORE PUSH1 0x17 PUSH1 0x24 DUP3 ADD MSTORE PUSH32 0x5365744C6F63616C41646D696E20466F7262696464656E000000000000000000 PUSH1 0x44 DUP3 ADD MSTORE PUSH1 0x64 ADD PUSH2 0x1791 JUMP JUMPDEST PUSH1 0x1 PUSH1 0x1 PUSH1 0xA0 SHL SUB DUP3 AND PUSH2 0x3554 JUMPI PUSH1 0x40 MLOAD PUSH3 0x461BCD PUSH1 0xE5 SHL DUP2 MSTORE PUSH1 0x20 PUSH1 0x4 DUP3 ADD MSTORE PUSH1 0xF PUSH1 0x24 DUP3 ADD MSTORE PUSH15 0x1059191C995CDCC8125B9D985B1A59 PUSH1 0x8A SHL PUSH1 0x44 DUP3 ADD MSTORE PUSH1 0x64 ADD PUSH2 0x1791 JUMP JUMPDEST PUSH2 0x355D DUP3 PUSH2 0x4285 JUMP JUMPDEST POP PUSH1 0x1 SWAP2 SWAP1 POP JUMP JUMPDEST PUSH1 0x40 MLOAD PUSH4 0x1912CF43 PUSH1 0xE0 SHL DUP2 MSTORE PUSH1 0x44 PUSH1 0x4 DUP3 ADD DUP2 SWAP1 MSTORE PUSH1 0x24 DUP3 ADD DUP5 SWAP1 MSTORE DUP2 ADD DUP3 SWAP1 MSTORE PUSH1 0x0 SWAP1 DUP2 SWAP1 DUP2 SWAP1 PUSH20 0x0 SWAP1 PUSH4 0x1912CF43 SWAP1 PUSH1 0x64 ADD PUSH1 0x40 DUP1 MLOAD DUP1 DUP4 SUB DUP2 DUP7 GAS DELEGATECALL ISZERO DUP1 ISZERO PUSH2 0x35C9 JUMPI RETURNDATASIZE PUSH1 0x0 DUP1 RETURNDATACOPY RETURNDATASIZE PUSH1 0x0 REVERT JUMPDEST POP POP POP POP PUSH1 0x40 MLOAD RETURNDATASIZE PUSH1 0x1F NOT PUSH1 0x1F DUP3 ADD AND DUP3 ADD DUP1 PUSH1 0x40 MSTORE POP DUP2 ADD SWAP1 PUSH2 0x35ED SWAP2 SWAP1 PUSH2 0x5711 JUMP JUMPDEST SWAP2 POP SWAP2 POP DUP4 DUP6 PUSH2 0x35FA CALLER SWAP1 JUMP JUMPDEST PUSH1 0x1 PUSH1 0x1 PUSH1 0xA0 SHL SUB AND PUSH32 0x970F60A11B3302F55122BDB3E2DE766D28491B40FE0A2A6D04DA71E5AB577CB9 DUP5 PUSH1 0x40 MLOAD PUSH2 0x2357 SWAP2 DUP2 MSTORE PUSH1 0x20 ADD SWAP1 JUMP JUMPDEST PUSH1 0x40 MLOAD PUSH4 0x4DF89D6F PUSH1 0xE0 SHL DUP2 MSTORE PUSH1 0x44 PUSH1 0x4 DUP3 ADD DUP2 SWAP1 MSTORE PUSH1 0x24 DUP3 ADD DUP4 SWAP1 MSTORE PUSH1 0x0 SWAP2 PUSH20 0x0 SWAP2 PUSH4 0x4DF89D6F SWAP2 ADD PUSH2 0x1068 JUMP JUMPDEST PUSH1 0x40 MLOAD PUSH1 0x0 SWAP1 PUSH1 0x1 PUSH1 0x1 PUSH1 0xA0 SHL SUB DUP4 AND SWAP1 DUP5 SWAP1 CALLER SWAP1 PUSH32 0x1D31FE42F06D4C1F16F6CB7B5682F1D6743641A9E1412FA0258F6776C5B943EE SWAP1 DUP6 SWAP1 LOG4 PUSH1 0x40 MLOAD PUSH4 0x91DE53CF PUSH1 0xE0 SHL DUP2 MSTORE PUSH1 0x44 PUSH1 0x4 DUP3 ADD DUP2 SWAP1 MSTORE PUSH1 0x24 DUP3 ADD DUP6 SWAP1 MSTORE PUSH1 0x1 PUSH1 0x1 PUSH1 0xA0 SHL SUB DUP5 AND SWAP1 DUP3 ADD MSTORE PUSH20 0x0 SWAP1 PUSH4 0x91DE53CF SWAP1 PUSH1 0x64 ADD PUSH2 0x112A JUMP JUMPDEST PUSH1 0x40 MLOAD PUSH4 0x84F27D35 PUSH1 0xE0 SHL DUP2 MSTORE PUSH1 0x44 PUSH1 0x4 DUP3 ADD DUP2 SWAP1 MSTORE PUSH1 0x24 DUP3 ADD DUP4 SWAP1 MSTORE PUSH1 0x60 SWAP2 PUSH20 0x0 SWAP2 PUSH4 0x84F27D35 SWAP2 ADD PUSH1 0x0 PUSH1 0x40 MLOAD DUP1 DUP4 SUB DUP2 DUP7 GAS DELEGATECALL ISZERO DUP1 ISZERO PUSH2 0x3759 JUMPI RETURNDATASIZE PUSH1 0x0 DUP1 RETURNDATACOPY RETURNDATASIZE PUSH1 0x0 REVERT JUMPDEST POP POP POP POP PUSH1 0x40 MLOAD RETURNDATASIZE PUSH1 0x0 DUP3 RETURNDATACOPY PUSH1 0x1F RETURNDATASIZE SWAP1 DUP2 ADD PUSH1 0x1F NOT AND DUP3 ADD PUSH1 0x40 MSTORE PUSH2 0xF46 SWAP2 SWAP1 DUP2 ADD SWAP1 PUSH2 0x5C38 JUMP JUMPDEST PUSH1 0x40 MLOAD PUSH4 0x580CEA9D PUSH1 0xE1 SHL DUP2 MSTORE PUSH1 0x44 PUSH1 0x4 DUP3 ADD DUP2 SWAP1 MSTORE PUSH1 0x24 DUP3 ADD DUP4 SWAP1 MSTORE PUSH1 0x0 SWAP2 PUSH20 0x0 SWAP2 PUSH4 0xB019D53A SWAP2 ADD PUSH2 0x1068 JUMP JUMPDEST PUSH1 0x0 DUP1 PUSH1 0x0 PUSH20 0x0 PUSH4 0x542A5808 PUSH1 0x44 DUP11 DUP11 DUP11 DUP11 DUP11 PUSH1 0x40 MLOAD DUP8 PUSH4 0xFFFFFFFF AND PUSH1 0xE0 SHL DUP2 MSTORE PUSH1 0x4 ADD PUSH2 0x380A SWAP7 SWAP6 SWAP5 SWAP4 SWAP3 SWAP2 SWAP1 PUSH2 0x5D15 JUMP JUMPDEST PUSH1 0x40 DUP1 MLOAD DUP1 DUP4 SUB DUP2 DUP7 GAS DELEGATECALL ISZERO DUP1 ISZERO PUSH2 0x3826 JUMPI RETURNDATASIZE PUSH1 0x0 DUP1 RETURNDATACOPY RETURNDATASIZE PUSH1 0x0 REVERT JUMPDEST POP POP POP POP PUSH1 0x40 MLOAD RETURNDATASIZE PUSH1 0x1F NOT PUSH1 0x1F DUP3 ADD AND DUP3 ADD DUP1 PUSH1 0x40 MSTORE POP DUP2 ADD SWAP1 PUSH2 0x384A SWAP2 SWAP1 PUSH2 0x5DDE JUMP JUMPDEST SWAP2 POP SWAP2 POP DUP1 PUSH1 0x1 PUSH1 0x1 PUSH1 0xA0 SHL SUB AND DUP3 PUSH1 0x1 PUSH1 0x1 PUSH1 0xA0 SHL SUB AND DUP10 PUSH32 0x2ACEC3419C1D10DAB06D0715F556E96B344F2092A52A23FB192B4B89F5B7CF42 DUP10 PUSH1 0x40 ADD CALLDATALOAD PUSH1 0x40 MLOAD PUSH2 0x2729 SWAP2 DUP2 MSTORE PUSH1 0x20 ADD SWAP1 JUMP JUMPDEST PUSH1 0x40 MLOAD PUSH4 0x3F75A32D PUSH1 0xE0 SHL DUP2 MSTORE PUSH1 0x44 PUSH1 0x4 DUP3 ADD DUP2 SWAP1 MSTORE PUSH1 0x24 DUP3 ADD DUP5 SWAP1 MSTORE DUP3 ISZERO ISZERO SWAP1 DUP3 ADD MSTORE PUSH1 0x0 SWAP1 DUP2 SWAP1 DUP2 SWAP1 PUSH20 0x0 SWAP1 PUSH4 0x3F75A32D SWAP1 PUSH1 0x64 ADD PUSH1 0x40 DUP1 MLOAD DUP1 DUP4 SUB DUP2 DUP7 GAS DELEGATECALL ISZERO DUP1 ISZERO PUSH2 0x38FE JUMPI RETURNDATASIZE PUSH1 0x0 DUP1 RETURNDATACOPY RETURNDATASIZE PUSH1 0x0 REVERT JUMPDEST POP POP POP POP PUSH1 0x40 MLOAD RETURNDATASIZE PUSH1 0x1F NOT PUSH1 0x1F DUP3 ADD AND DUP3 ADD DUP1 PUSH1 0x40 MSTORE POP DUP2 ADD SWAP1 PUSH2 0x3922 SWAP2 SWAP1 PUSH2 0x5711 JUMP JUMPDEST SWAP2 POP SWAP2 POP DUP1 DUP6 PUSH2 0x392F CALLER SWAP1 JUMP JUMPDEST PUSH1 0x1 PUSH1 0x1 PUSH1 0xA0 SHL SUB AND PUSH32 0xAAF3A0E62C1102E283A5A18E81D678B9CE6F4F043CC7AFAFEE4F7F82B85330A2 DUP8 PUSH1 0x40 MLOAD PUSH2 0x2357 SWAP2 ISZERO ISZERO DUP2 MSTORE PUSH1 0x20 ADD SWAP1 JUMP JUMPDEST PUSH1 0x40 MLOAD PUSH4 0x648E910B PUSH1 0xE1 SHL DUP2 MSTORE PUSH1 0x44 PUSH1 0x4 DUP3 ADD DUP2 SWAP1 MSTORE PUSH1 0x24 DUP3 ADD DUP4 SWAP1 MSTORE PUSH1 0x60 SWAP2 PUSH20 0x0 SWAP2 PUSH4 0xC91D2216 SWAP2 ADD PUSH2 0x12F1 JUMP JUMPDEST PUSH1 0x0 DUP1 PUSH1 0x0 PUSH20 0x0 PUSH4 0x6DA4C23C PUSH1 0x44 DUP10 DUP10 DUP10 DUP10 PUSH1 0x40 MLOAD DUP7 PUSH4 0xFFFFFFFF AND PUSH1 0xE0 SHL DUP2 MSTORE PUSH1 0x4 ADD PUSH2 0x39F2 SWAP6 SWAP5 SWAP4 SWAP3 SWAP2 SWAP1 PUSH2 0x5E0D JUMP JUMPDEST PUSH1 0x40 DUP1 MLOAD DUP1 DUP4 SUB DUP2 DUP7 GAS DELEGATECALL ISZERO DUP1 ISZERO PUSH2 0x3A0E JUMPI RETURNDATASIZE PUSH1 0x0 DUP1 RETURNDATACOPY RETURNDATASIZE PUSH1 0x0 REVERT JUMPDEST POP POP POP POP PUSH1 0x40 MLOAD RETURNDATASIZE PUSH1 0x1F NOT PUSH1 0x1F DUP3 ADD AND DUP3 ADD DUP1 PUSH1 0x40 MSTORE POP DUP2 ADD SWAP1 PUSH2 0x3A32 SWAP2 SWAP1 PUSH2 0x5E49 JUMP JUMPDEST SWAP1 SWAP3 POP SWAP1 POP PUSH1 0x1 PUSH1 0x1 PUSH1 0xA0 SHL SUB DUP2 AND PUSH2 0x3A51 PUSH1 0x80 DUP9 ADD PUSH1 0x60 DUP10 ADD PUSH2 0x47BB JUMP JUMPDEST PUSH1 0x1 PUSH1 0x1 PUSH1 0xA0 SHL SUB AND DUP4 PUSH32 0x2A2B33FD7E66815F7A7BEA7D796D5C587E39EFD4B142C4A9AB63B8BECC98FEB4 CALLER PUSH1 0x40 DUP1 MLOAD PUSH1 0x1 PUSH1 0x1 PUSH1 0xA0 SHL SUB SWAP1 SWAP3 AND DUP3 MSTORE DUP1 DUP13 ADD CALLDATALOAD PUSH1 0x20 DUP4 ADD MSTORE ADD PUSH1 0x40 MLOAD DUP1 SWAP2 SUB SWAP1 LOG4 POP SWAP6 SWAP5 POP POP POP POP POP JUMP JUMPDEST PUSH1 0x0 CALLER PUSH1 0x1 PUSH1 0x1 PUSH1 0xA0 SHL SUB AND DUP4 PUSH32 0x552CE1FC1BC82A48CDC0636FF7162480D868C590F2E57C63C30A944F3A82EC36 DUP5 PUSH1 0x40 MLOAD PUSH2 0x3AEA SWAP2 ISZERO ISZERO DUP2 MSTORE PUSH1 0x20 ADD SWAP1 JUMP JUMPDEST PUSH1 0x40 MLOAD DUP1 SWAP2 SUB SWAP1 LOG3 PUSH1 0x40 MLOAD PUSH4 0x2EFEE307 PUSH1 0xE2 SHL DUP2 MSTORE PUSH1 0x44 PUSH1 0x4 DUP3 ADD DUP2 SWAP1 MSTORE PUSH1 0x24 DUP3 ADD DUP6 SWAP1 MSTORE DUP4 ISZERO ISZERO SWAP1 DUP3 ADD MSTORE PUSH20 0x0 SWAP1 PUSH4 0xBBFB8C1C SWAP1 PUSH1 0x64 ADD PUSH2 0x112A JUMP JUMPDEST PUSH1 0x40 MLOAD PUSH4 0x343F6E09 PUSH1 0xE1 SHL DUP2 MSTORE PUSH1 0x44 PUSH1 0x4 DUP3 ADD DUP2 SWAP1 MSTORE PUSH1 0x24 DUP3 ADD DUP5 SWAP1 MSTORE DUP2 ADD DUP3 SWAP1 MSTORE PUSH1 0x0 SWAP1 PUSH20 0x0 SWAP1 PUSH4 0x687EDC12 SWAP1 PUSH1 0x64 ADD PUSH2 0x112A JUMP JUMPDEST PUSH1 0x0 PUSH2 0x1345 PUSH1 0x0 DUP1 SLOAD PUSH1 0x1 SLOAD PUSH1 0x40 DUP1 MLOAD PUSH32 0x8B73C3C69BB8FE3D512ECC4CF759CC79239F7B179B0FFACAA9A75D522B39400F PUSH1 0x20 DUP3 ADD MSTORE SWAP1 DUP2 ADD SWAP3 SWAP1 SWAP3 MSTORE PUSH1 0x60 DUP3 ADD MSTORE CHAINID PUSH1 0x80 DUP3 ADD MSTORE ADDRESS PUSH1 0xA0 DUP3 ADD MSTORE PUSH1 0xC0 ADD PUSH1 0x40 MLOAD PUSH1 0x20 DUP2 DUP4 SUB SUB DUP2 MSTORE SWAP1 PUSH1 0x40 MSTORE DUP1 MLOAD SWAP1 PUSH1 0x20 ADD KECCAK256 SWAP1 POP SWAP1 JUMP JUMPDEST PUSH1 0x0 PUSH2 0x1345 PUSH2 0x3EF0 JUMP JUMPDEST SWAP1 JUMP JUMPDEST PUSH1 0x0 PUSH1 0x1 PUSH1 0x1 PUSH1 0xE0 SHL SUB NOT DUP3 AND PUSH4 0x14751DBF PUSH1 0xE0 SHL EQ DUP1 PUSH2 0x3C2D JUMPI POP PUSH1 0x1 PUSH1 0x1 PUSH1 0xE0 SHL SUB NOT DUP3 AND PUSH4 0x52D1902D PUSH1 0xE0 SHL EQ JUMPDEST DUP1 PUSH2 0xF46 JUMPI POP PUSH4 0x1FFC9A7 PUSH1 0xE0 SHL PUSH1 0x1 PUSH1 0x1 PUSH1 0xE0 SHL SUB NOT DUP4 AND EQ PUSH2 0xF46 JUMP JUMPDEST PUSH1 0x0 PUSH1 0x0 DUP1 MLOAD PUSH1 0x20 PUSH2 0x5EE2 DUP4 CODECOPY DUP2 MLOAD SWAP2 MSTORE JUMPDEST SLOAD PUSH1 0x1 PUSH1 0x1 PUSH1 0xA0 SHL SUB AND SWAP2 SWAP1 POP JUMP JUMPDEST PUSH1 0x3 SLOAD PUSH1 0x0 SWAP1 PUSH1 0x1 PUSH1 0x1 PUSH1 0xA0 SHL SUB AND ADDRESS SUB PUSH2 0x3D5B JUMPI PUSH1 0x0 PUSH4 0x63D59CF3 PUSH1 0xE1 SHL PUSH2 0x3C95 ADDRESS PUSH2 0x4246 JUMP JUMPDEST CALLER DUP6 PUSH1 0x40 MLOAD PUSH1 0x24 ADD PUSH2 0x3CA9 SWAP4 SWAP3 SWAP2 SWAP1 PUSH2 0x5E6E JUMP JUMPDEST PUSH1 0x40 DUP1 MLOAD PUSH1 0x1F NOT DUP2 DUP5 SUB ADD DUP2 MSTORE SWAP2 SWAP1 MSTORE PUSH1 0x20 DUP2 ADD DUP1 MLOAD PUSH1 0x1 PUSH1 0x1 PUSH1 0xE0 SHL SUB AND PUSH1 0x1 PUSH1 0x1 PUSH1 0xE0 SHL SUB NOT SWAP1 SWAP4 AND SWAP3 SWAP1 SWAP3 OR SWAP1 SWAP2 MSTORE SWAP1 POP PUSH1 0x0 PUSH2 0x3D26 PUSH2 0x3CEA PUSH2 0x3C4C JUMP JUMPDEST DUP4 PUSH1 0x40 MLOAD DUP1 PUSH1 0x40 ADD PUSH1 0x40 MSTORE DUP1 PUSH1 0x1D DUP2 MSTORE PUSH1 0x20 ADD PUSH32 0x44656C656761746563616C6C20686173416363657373204661696C6564000000 DUP2 MSTORE POP PUSH2 0x42FC JUMP JUMPDEST SWAP1 POP DUP1 PUSH1 0x1 DUP3 MLOAD PUSH2 0x3D37 SWAP2 SWAP1 PUSH2 0x5E97 JUMP JUMPDEST DUP2 MLOAD DUP2 LT PUSH2 0x3D47 JUMPI PUSH2 0x3D47 PUSH2 0x5316 JUMP JUMPDEST PUSH1 0x20 SWAP2 ADD ADD MLOAD PUSH1 0xF8 SHR PUSH1 0x1 EQ SWAP5 SWAP4 POP POP POP POP JUMP JUMPDEST PUSH1 0x3 SLOAD PUSH1 0x1 PUSH1 0x1 PUSH1 0xA0 SHL SUB AND PUSH4 0xC7AB39E6 PUSH2 0x3D75 ADDRESS PUSH2 0x4246 JUMP JUMPDEST CALLER DUP6 PUSH1 0x40 MLOAD DUP5 PUSH4 0xFFFFFFFF AND PUSH1 0xE0 SHL DUP2 MSTORE PUSH1 0x4 ADD PUSH2 0x3D95 SWAP4 SWAP3 SWAP2 SWAP1 PUSH2 0x5E6E JUMP JUMPDEST PUSH1 0x20 PUSH1 0x40 MLOAD DUP1 DUP4 SUB DUP2 DUP7 GAS STATICCALL ISZERO DUP1 ISZERO PUSH2 0x1085 JUMPI RETURNDATASIZE PUSH1 0x0 DUP1 RETURNDATACOPY RETURNDATASIZE PUSH1 0x0 REVERT JUMPDEST PUSH1 0x3 SLOAD PUSH1 0x0 SWAP1 PUSH1 0x1 PUSH1 0x1 PUSH1 0xA0 SHL SUB AND ADDRESS SUB PUSH2 0x3E7A JUMPI PUSH1 0x0 PUSH4 0xE25D75F0 PUSH1 0xE0 SHL PUSH1 0x2 SLOAD PUSH1 0x40 MLOAD PUSH1 0x24 ADD PUSH2 0x3DE6 SWAP2 DUP2 MSTORE PUSH1 0x20 ADD SWAP1 JUMP JUMPDEST PUSH1 0x40 DUP1 MLOAD PUSH1 0x1F NOT DUP2 DUP5 SUB ADD DUP2 MSTORE SWAP2 SWAP1 MSTORE PUSH1 0x20 DUP2 ADD DUP1 MLOAD PUSH1 0x1 PUSH1 0x1 PUSH1 0xE0 SHL SUB AND PUSH1 0x1 PUSH1 0x1 PUSH1 0xE0 SHL SUB NOT SWAP1 SWAP4 AND SWAP3 SWAP1 SWAP3 OR SWAP1 SWAP2 MSTORE SWAP1 POP PUSH1 0x0 PUSH2 0x3E46 PUSH2 0x3E27 PUSH2 0x3C4C JUMP JUMPDEST DUP4 PUSH1 0x40 MLOAD DUP1 PUSH1 0x60 ADD PUSH1 0x40 MSTORE DUP1 PUSH1 0x25 DUP2 MSTORE PUSH1 0x20 ADD PUSH2 0x5EBD PUSH1 0x25 SWAP2 CODECOPY PUSH2 0x42FC JUMP JUMPDEST SWAP1 POP DUP1 PUSH1 0x1 DUP3 MLOAD PUSH2 0x3E57 SWAP2 SWAP1 PUSH2 0x5E97 JUMP JUMPDEST DUP2 MLOAD DUP2 LT PUSH2 0x3E67 JUMPI PUSH2 0x3E67 PUSH2 0x5316 JUMP JUMPDEST PUSH1 0x20 SWAP2 ADD ADD MLOAD PUSH1 0xF8 SHR PUSH1 0x1 EQ SWAP4 SWAP3 POP POP POP JUMP JUMPDEST PUSH1 0x3 SLOAD PUSH1 0x2 SLOAD PUSH1 0x40 MLOAD PUSH4 0xE25D75F PUSH1 0xE4 SHL DUP2 MSTORE PUSH1 0x1 PUSH1 0x1 PUSH1 0xA0 SHL SUB SWAP1 SWAP3 AND SWAP2 PUSH4 0xE25D75F0 SWAP2 PUSH2 0x3EAF SWAP2 PUSH1 0x4 ADD SWAP1 DUP2 MSTORE PUSH1 0x20 ADD SWAP1 JUMP JUMPDEST PUSH1 0x20 PUSH1 0x40 MLOAD DUP1 DUP4 SUB DUP2 DUP7 GAS STATICCALL ISZERO DUP1 ISZERO PUSH2 0x3ECC JUMPI RETURNDATASIZE PUSH1 0x0 DUP1 RETURNDATACOPY RETURNDATASIZE PUSH1 0x0 REVERT JUMPDEST POP POP POP POP PUSH1 0x40 MLOAD RETURNDATASIZE PUSH1 0x1F NOT PUSH1 0x1F DUP3 ADD AND DUP3 ADD DUP1 PUSH1 0x40 MSTORE POP DUP2 ADD SWAP1 PUSH2 0x1345 SWAP2 SWAP1 PUSH2 0x50E5 JUMP JUMPDEST PUSH1 0x0 PUSH32 0xB53127684A568B3173AE13B9F8A6016E243E63B6E8EE1178D6A717850B5D6103 PUSH2 0x3C5E JUMP JUMPDEST PUSH2 0x3F26 DUP7 DUP7 DUP7 DUP7 DUP7 DUP7 PUSH2 0x43C5 JUMP JUMPDEST POP POP POP POP POP POP JUMP JUMPDEST PUSH2 0x3F36 PUSH2 0x3C4C JUMP JUMPDEST PUSH1 0x1 PUSH1 0x1 PUSH1 0xA0 SHL SUB AND DUP2 PUSH1 0x1 PUSH1 0x1 PUSH1 0xA0 SHL SUB AND SUB PUSH2 0x3F96 JUMPI PUSH1 0x40 MLOAD PUSH3 0x461BCD PUSH1 0xE5 SHL DUP2 MSTORE PUSH1 0x20 PUSH1 0x4 DUP3 ADD MSTORE PUSH1 0x1A PUSH1 0x24 DUP3 ADD MSTORE PUSH32 0x496C6C6567616C204E657720496D706C656D656E746174696F6E000000000000 PUSH1 0x44 DUP3 ADD MSTORE PUSH1 0x64 ADD PUSH2 0x1791 JUMP JUMPDEST PUSH2 0x3FA6 PUSH4 0x7147855D PUSH1 0xE0 SHL PUSH2 0x3C6D JUMP JUMPDEST PUSH2 0x3FF2 JUMPI PUSH1 0x40 MLOAD PUSH3 0x461BCD PUSH1 0xE5 SHL DUP2 MSTORE PUSH1 0x20 PUSH1 0x4 DUP3 ADD MSTORE PUSH1 0x19 PUSH1 0x24 DUP3 ADD MSTORE PUSH32 0x5570677261646520436F6E7465787420466F7262696464656E00000000000000 PUSH1 0x44 DUP3 ADD MSTORE PUSH1 0x64 ADD PUSH2 0x1791 JUMP JUMPDEST POP JUMP JUMPDEST PUSH1 0x60 PUSH32 0x4910FDFA16FED3260ED0E7147F7CC6DA11A60208B5B9406D12A635614FFD9143 SLOAD PUSH1 0xFF AND ISZERO PUSH2 0x403F JUMPI PUSH2 0x402A DUP5 PUSH2 0x45D3 JUMP JUMPDEST POP PUSH1 0x40 DUP1 MLOAD PUSH1 0x0 DUP2 MSTORE PUSH1 0x20 DUP2 ADD SWAP1 SWAP2 MSTORE PUSH2 0x101B JUMP JUMPDEST DUP4 PUSH1 0x1 PUSH1 0x1 PUSH1 0xA0 SHL SUB AND PUSH4 0x52D1902D PUSH1 0x40 MLOAD DUP2 PUSH4 0xFFFFFFFF AND PUSH1 0xE0 SHL DUP2 MSTORE PUSH1 0x4 ADD PUSH1 0x20 PUSH1 0x40 MLOAD DUP1 DUP4 SUB DUP2 DUP7 GAS STATICCALL SWAP3 POP POP POP DUP1 ISZERO PUSH2 0x4099 JUMPI POP PUSH1 0x40 DUP1 MLOAD PUSH1 0x1F RETURNDATASIZE SWAP1 DUP2 ADD PUSH1 0x1F NOT AND DUP3 ADD SWAP1 SWAP3 MSTORE PUSH2 0x4096 SWAP2 DUP2 ADD SWAP1 PUSH2 0x50B2 JUMP JUMPDEST PUSH1 0x1 JUMPDEST PUSH2 0x40DD JUMPI PUSH1 0x40 MLOAD PUSH3 0x461BCD PUSH1 0xE5 SHL DUP2 MSTORE PUSH1 0x20 PUSH1 0x4 DUP3 ADD MSTORE PUSH1 0x15 PUSH1 0x24 DUP3 ADD MSTORE PUSH21 0x125B1B1959D85B0815555414C810DBDB9D1C9858DD PUSH1 0x5A SHL PUSH1 0x44 DUP3 ADD MSTORE PUSH1 0x64 ADD PUSH2 0x1791 JUMP JUMPDEST PUSH1 0x0 DUP1 MLOAD PUSH1 0x20 PUSH2 0x5EE2 DUP4 CODECOPY DUP2 MLOAD SWAP2 MSTORE DUP2 EQ PUSH2 0x4132 JUMPI PUSH1 0x40 MLOAD PUSH3 0x461BCD PUSH1 0xE5 SHL DUP2 MSTORE PUSH1 0x20 PUSH1 0x4 DUP3 ADD MSTORE PUSH1 0x15 PUSH1 0x24 DUP3 ADD MSTORE PUSH21 0x125B9D985B1A590815555414C810DBDB9D1C9858DD PUSH1 0x5A SHL PUSH1 0x44 DUP3 ADD MSTORE PUSH1 0x64 ADD PUSH2 0x1791 JUMP JUMPDEST POP PUSH1 0x40 MLOAD PUSH4 0x1FFC9A7 PUSH1 0xE0 SHL DUP2 MSTORE PUSH4 0x14751DBF PUSH1 0xE0 SHL PUSH1 0x4 DUP3 ADD MSTORE PUSH1 0x1 PUSH1 0x1 PUSH1 0xA0 SHL SUB DUP6 AND SWAP1 PUSH4 0x1FFC9A7 SWAP1 PUSH1 0x24 ADD PUSH1 0x20 PUSH1 0x40 MLOAD DUP1 DUP4 SUB DUP2 DUP7 GAS STATICCALL SWAP3 POP POP POP DUP1 ISZERO PUSH2 0x419A JUMPI POP PUSH1 0x40 DUP1 MLOAD PUSH1 0x1F RETURNDATASIZE SWAP1 DUP2 ADD PUSH1 0x1F NOT AND DUP3 ADD SWAP1 SWAP3 MSTORE PUSH2 0x4197 SWAP2 DUP2 ADD SWAP1 PUSH2 0x50E5 JUMP JUMPDEST PUSH1 0x1 JUMPDEST PUSH2 0x41E6 JUMPI PUSH1 0x40 MLOAD PUSH3 0x461BCD PUSH1 0xE5 SHL DUP2 MSTORE PUSH1 0x20 PUSH1 0x4 DUP3 ADD MSTORE PUSH1 0x17 PUSH1 0x24 DUP3 ADD MSTORE PUSH32 0x496C6C6567616C204950726F787920436F6E7472616374000000000000000000 PUSH1 0x44 DUP3 ADD MSTORE PUSH1 0x64 ADD PUSH2 0x1791 JUMP JUMPDEST DUP1 PUSH2 0x4233 JUMPI PUSH1 0x40 MLOAD PUSH3 0x461BCD PUSH1 0xE5 SHL DUP2 MSTORE PUSH1 0x20 PUSH1 0x4 DUP3 ADD MSTORE PUSH1 0x17 PUSH1 0x24 DUP3 ADD MSTORE PUSH32 0x496E76616C6964204950726F787920436F6E7472616374000000000000000000 PUSH1 0x44 DUP3 ADD MSTORE PUSH1 0x64 ADD PUSH2 0x1791 JUMP JUMPDEST POP PUSH2 0x423F DUP5 DUP5 DUP5 PUSH2 0x4654 JUMP JUMPDEST SWAP1 POP PUSH2 0x101B JUMP JUMPDEST PUSH1 0x40 MLOAD PUSH12 0xFFFFFFFFFFFFFFFFFFFFFFFF NOT PUSH1 0x60 DUP4 SWAP1 SHL AND PUSH1 0x20 DUP3 ADD MSTORE PUSH1 0x0 SWAP1 PUSH1 0x34 ADD PUSH1 0x40 MLOAD PUSH1 0x20 DUP2 DUP4 SUB SUB DUP2 MSTORE SWAP1 PUSH1 0x40 MSTORE DUP1 MLOAD SWAP1 PUSH1 0x20 ADD KECCAK256 SWAP1 POP SWAP2 SWAP1 POP JUMP JUMPDEST PUSH32 0xB53127684A568B3173AE13B9F8A6016E243E63B6E8EE1178D6A717850B5D6103 DUP1 SLOAD PUSH1 0x1 PUSH1 0x1 PUSH1 0xA0 SHL SUB DUP4 AND PUSH1 0x1 PUSH1 0x1 PUSH1 0xA0 SHL SUB NOT SWAP1 SWAP2 AND DUP2 OR SWAP1 SWAP2 SSTORE PUSH1 0x40 DUP1 MLOAD SWAP2 DUP3 MSTORE MLOAD ADDRESS SWAP2 CALLER SWAP2 PUSH32 0x54AB0D18DE7958786BA1AD85966D59BAA2B395455F0530DCDCFD732E6AF539E2 SWAP2 DUP2 SWAP1 SUB PUSH1 0x20 ADD SWAP1 LOG3 POP JUMP JUMPDEST PUSH1 0x60 PUSH1 0x1 PUSH1 0x1 PUSH1 0xA0 SHL SUB DUP5 AND EXTCODESIZE PUSH2 0x4350 JUMPI PUSH1 0x40 MLOAD PUSH3 0x461BCD PUSH1 0xE5 SHL DUP2 MSTORE PUSH1 0x20 PUSH1 0x4 DUP3 ADD MSTORE PUSH1 0x18 PUSH1 0x24 DUP3 ADD MSTORE PUSH24 0x496C6C6567616C20436F6E74726163742041646472657373 PUSH1 0x40 SHL PUSH1 0x44 DUP3 ADD MSTORE PUSH1 0x64 ADD PUSH2 0x1791 JUMP JUMPDEST PUSH1 0x0 DUP1 DUP6 PUSH1 0x1 PUSH1 0x1 PUSH1 0xA0 SHL SUB AND DUP6 PUSH1 0x40 MLOAD PUSH2 0x436B SWAP2 SWAP1 PUSH2 0x5EAA JUMP JUMPDEST PUSH1 0x0 PUSH1 0x40 MLOAD DUP1 DUP4 SUB DUP2 DUP6 GAS DELEGATECALL SWAP2 POP POP RETURNDATASIZE DUP1 PUSH1 0x0 DUP2 EQ PUSH2 0x43A6 JUMPI PUSH1 0x40 MLOAD SWAP2 POP PUSH1 0x1F NOT PUSH1 0x3F RETURNDATASIZE ADD AND DUP3 ADD PUSH1 0x40 MSTORE RETURNDATASIZE DUP3 MSTORE RETURNDATASIZE PUSH1 0x0 PUSH1 0x20 DUP5 ADD RETURNDATACOPY PUSH2 0x43AB JUMP JUMPDEST PUSH1 0x60 SWAP2 POP JUMPDEST POP SWAP2 POP SWAP2 POP PUSH2 0x43BB DUP3 DUP3 DUP7 PUSH2 0x46BE JUMP JUMPDEST SWAP7 SWAP6 POP POP POP POP POP POP JUMP JUMPDEST PUSH1 0x49 SLOAD PUSH3 0x10000 SWAP1 DIV PUSH1 0xFF AND PUSH2 0x441D JUMPI PUSH1 0x40 MLOAD PUSH3 0x461BCD PUSH1 0xE5 SHL DUP2 MSTORE PUSH1 0x20 PUSH1 0x4 DUP3 ADD MSTORE PUSH1 0x19 PUSH1 0x24 DUP3 ADD MSTORE PUSH32 0x436F6E7472616374204E6F7420496E697469616C697A696E6700000000000000 PUSH1 0x44 DUP3 ADD MSTORE PUSH1 0x64 ADD PUSH2 0x1791 JUMP JUMPDEST DUP6 DUP6 PUSH1 0x40 MLOAD PUSH1 0x20 ADD PUSH2 0x4430 SWAP3 SWAP2 SWAP1 PUSH2 0x549B JUMP JUMPDEST PUSH1 0x40 DUP1 MLOAD PUSH1 0x1F NOT DUP2 DUP5 SUB ADD DUP2 MSTORE SWAP1 DUP3 SWAP1 MSTORE DUP1 MLOAD PUSH1 0x20 SWAP2 DUP3 ADD KECCAK256 PUSH1 0x0 SSTORE PUSH2 0x445A SWAP2 DUP7 SWAP2 DUP7 SWAP2 ADD PUSH2 0x549B JUMP JUMPDEST PUSH1 0x40 DUP1 MLOAD PUSH1 0x1F NOT DUP2 DUP5 SUB ADD DUP2 MSTORE SWAP2 SWAP1 MSTORE DUP1 MLOAD PUSH1 0x20 SWAP1 SWAP2 ADD KECCAK256 PUSH1 0x1 SSTORE PUSH1 0x2 DUP3 SWAP1 SSTORE PUSH1 0x1 PUSH1 0x1 PUSH1 0xA0 SHL SUB DUP2 AND PUSH2 0x449F JUMPI PUSH1 0x3 DUP1 SLOAD PUSH1 0x1 PUSH1 0x1 PUSH1 0xA0 SHL SUB NOT AND ADDRESS OR SWAP1 SSTORE PUSH2 0x45BC JUMP JUMPDEST PUSH1 0x40 MLOAD PUSH4 0x1FFC9A7 PUSH1 0xE0 SHL DUP2 MSTORE PUSH4 0x14B83435 PUSH1 0xE3 SHL PUSH1 0x4 DUP3 ADD MSTORE PUSH1 0x1 PUSH1 0x1 PUSH1 0xA0 SHL SUB DUP3 AND SWAP1 PUSH4 0x1FFC9A7 SWAP1 PUSH1 0x24 ADD PUSH1 0x20 PUSH1 0x40 MLOAD DUP1 DUP4 SUB DUP2 DUP7 GAS STATICCALL SWAP3 POP POP POP DUP1 ISZERO PUSH2 0x4506 JUMPI POP PUSH1 0x40 DUP1 MLOAD PUSH1 0x1F RETURNDATASIZE SWAP1 DUP2 ADD PUSH1 0x1F NOT AND DUP3 ADD SWAP1 SWAP3 MSTORE PUSH2 0x4503 SWAP2 DUP2 ADD SWAP1 PUSH2 0x50E5 JUMP JUMPDEST PUSH1 0x1 JUMPDEST PUSH2 0x4552 JUMPI PUSH1 0x40 MLOAD PUSH3 0x461BCD PUSH1 0xE5 SHL DUP2 MSTORE PUSH1 0x20 PUSH1 0x4 DUP3 ADD MSTORE PUSH1 0x1C PUSH1 0x24 DUP3 ADD MSTORE PUSH32 0x496C6C6567616C20416363657373436F6E74726F6C4D616E6167657200000000 PUSH1 0x44 DUP3 ADD MSTORE PUSH1 0x64 ADD PUSH2 0x1791 JUMP JUMPDEST DUP1 PUSH2 0x459F JUMPI PUSH1 0x40 MLOAD PUSH3 0x461BCD PUSH1 0xE5 SHL DUP2 MSTORE PUSH1 0x20 PUSH1 0x4 DUP3 ADD MSTORE PUSH1 0x1C PUSH1 0x24 DUP3 ADD MSTORE PUSH32 0x496E76616C696420416363657373436F6E74726F6C4D616E6167657200000000 PUSH1 0x44 DUP3 ADD MSTORE PUSH1 0x64 ADD PUSH2 0x1791 JUMP JUMPDEST POP PUSH1 0x3 DUP1 SLOAD PUSH1 0x1 PUSH1 0x1 PUSH1 0xA0 SHL SUB NOT AND PUSH1 0x1 PUSH1 0x1 PUSH1 0xA0 SHL SUB DUP4 AND OR SWAP1 SSTORE JUMPDEST PUSH1 0x3 DUP1 SLOAD PUSH2 0xFFFF PUSH1 0xA0 SHL NOT AND SWAP1 SSTORE PUSH2 0x3F26 CALLER PUSH2 0x4285 JUMP JUMPDEST PUSH1 0x1 PUSH1 0x1 PUSH1 0xA0 SHL SUB DUP2 AND EXTCODESIZE PUSH2 0x4625 JUMPI PUSH1 0x40 MLOAD PUSH3 0x461BCD PUSH1 0xE5 SHL DUP2 MSTORE PUSH1 0x20 PUSH1 0x4 DUP3 ADD MSTORE PUSH1 0x18 PUSH1 0x24 DUP3 ADD MSTORE PUSH24 0x496C6C6567616C20436F6E74726163742041646472657373 PUSH1 0x40 SHL PUSH1 0x44 DUP3 ADD MSTORE PUSH1 0x64 ADD PUSH2 0x1791 JUMP JUMPDEST PUSH1 0x0 DUP1 MLOAD PUSH1 0x20 PUSH2 0x5EE2 DUP4 CODECOPY DUP2 MLOAD SWAP2 MSTORE DUP1 SLOAD PUSH1 0x1 PUSH1 0x1 PUSH1 0xA0 SHL SUB NOT AND PUSH1 0x1 PUSH1 0x1 PUSH1 0xA0 SHL SUB SWAP3 SWAP1 SWAP3 AND SWAP2 SWAP1 SWAP2 OR SWAP1 SSTORE JUMP JUMPDEST PUSH1 0x60 PUSH2 0x465F DUP5 PUSH2 0x46F7 JUMP JUMPDEST PUSH1 0x0 DUP4 MLOAD GT DUP1 PUSH2 0x466C JUMPI POP DUP2 JUMPDEST ISZERO PUSH2 0x46A7 JUMPI PUSH2 0x423F DUP5 DUP5 PUSH1 0x40 MLOAD DUP1 PUSH1 0x40 ADD PUSH1 0x40 MSTORE DUP1 PUSH1 0x13 DUP2 MSTORE PUSH1 0x20 ADD PUSH19 0x11195B1959D85D1958D85B1B0811985A5B1959 PUSH1 0x6A SHL DUP2 MSTORE POP PUSH2 0x42FC JUMP JUMPDEST POP POP PUSH1 0x40 DUP1 MLOAD PUSH1 0x0 DUP2 MSTORE PUSH1 0x20 DUP2 ADD SWAP1 SWAP2 MSTORE SWAP3 SWAP2 POP POP JUMP JUMPDEST PUSH1 0x60 DUP4 ISZERO PUSH2 0x46CD JUMPI POP DUP2 PUSH2 0x101B JUMP JUMPDEST DUP3 MLOAD ISZERO PUSH2 0x46DD JUMPI DUP3 MLOAD DUP1 DUP5 PUSH1 0x20 ADD REVERT JUMPDEST DUP2 PUSH1 0x40 MLOAD PUSH3 0x461BCD PUSH1 0xE5 SHL DUP2 MSTORE PUSH1 0x4 ADD PUSH2 0x1791 SWAP2 SWAP1 PUSH2 0x4CF9 JUMP JUMPDEST PUSH2 0x4700 DUP2 PUSH2 0x45D3 JUMP JUMPDEST PUSH1 0x40 MLOAD PUSH1 0x1 PUSH1 0x1 PUSH1 0xA0 SHL SUB DUP3 AND SWAP1 ADDRESS SWAP1 CALLER SWAP1 PUSH32 0x354BD4B6EB65D64E6C79C53FA4F983A5E6BEC4824CE4627C71BE0B2722F4917E SWAP1 PUSH1 0x0 SWAP1 LOG4 POP JUMP JUMPDEST PUSH1 0x1 PUSH1 0x1 PUSH1 0xE0 SHL SUB NOT DUP2 AND DUP2 EQ PUSH2 0x3FF2 JUMPI PUSH1 0x0 DUP1 REVERT JUMPDEST PUSH1 0x0 PUSH1 0x20 DUP3 DUP5 SUB SLT ISZERO PUSH2 0x4763 JUMPI PUSH1 0x0 DUP1 REVERT JUMPDEST DUP2 CALLDATALOAD PUSH2 0x101B DUP2 PUSH2 0x473B JUMP JUMPDEST PUSH1 0x0 DUP1 PUSH1 0x0 PUSH1 0x60 DUP5 DUP7 SUB SLT ISZERO PUSH2 0x4783 JUMPI PUSH1 0x0 DUP1 REVERT JUMPDEST DUP4 CALLDATALOAD SWAP3 POP PUSH1 0x20 DUP5 ADD CALLDATALOAD PUSH2 0x4795 DUP2 PUSH2 0x473B JUMP JUMPDEST SWAP3 SWAP6 SWAP3 SWAP5 POP POP POP PUSH1 0x40 SWAP2 SWAP1 SWAP2 ADD CALLDATALOAD SWAP1 JUMP JUMPDEST PUSH1 0x1 PUSH1 0x1 PUSH1 0xA0 SHL SUB DUP2 AND DUP2 EQ PUSH2 0x3FF2 JUMPI PUSH1 0x0 DUP1 REVERT JUMPDEST PUSH1 0x0 PUSH1 0x20 DUP3 DUP5 SUB SLT ISZERO PUSH2 0x47CD JUMPI PUSH1 0x0 DUP1 REVERT JUMPDEST DUP2 CALLDATALOAD PUSH2 0x101B DUP2 PUSH2 0x47A6 JUMP JUMPDEST PUSH1 0x0 PUSH1 0x20 DUP3 DUP5 SUB SLT ISZERO PUSH2 0x47EA JUMPI PUSH1 0x0 DUP1 REVERT JUMPDEST POP CALLDATALOAD SWAP2 SWAP1 POP JUMP JUMPDEST PUSH1 0x0 DUP1 PUSH1 0x40 DUP4 DUP6 SUB SLT ISZERO PUSH2 0x4804 JUMPI PUSH1 0x0 DUP1 REVERT JUMPDEST DUP3 CALLDATALOAD SWAP2 POP PUSH1 0x20 DUP4 ADD CALLDATALOAD PUSH2 0x4816 DUP2 PUSH2 0x473B JUMP JUMPDEST DUP1 SWAP2 POP POP SWAP3 POP SWAP3 SWAP1 POP JUMP JUMPDEST PUSH1 0x20 DUP1 DUP3 MSTORE DUP3 MLOAD DUP3 DUP3 ADD DUP2 SWAP1 MSTORE PUSH1 0x0 SWAP2 SWAP1 DUP5 DUP3 ADD SWAP1 PUSH1 0x40 DUP6 ADD SWAP1 DUP5 JUMPDEST DUP2 DUP2 LT ISZERO PUSH2 0x4863 JUMPI DUP4 MLOAD PUSH1 0x1 PUSH1 0x1 PUSH1 0xE0 SHL SUB NOT AND DUP4 MSTORE SWAP3 DUP5 ADD SWAP3 SWAP2 DUP5 ADD SWAP2 PUSH1 0x1 ADD PUSH2 0x483D JUMP JUMPDEST POP SWAP1 SWAP7 SWAP6 POP POP POP POP POP POP JUMP JUMPDEST PUSH1 0x20 DUP1 DUP3 MSTORE DUP3 MLOAD DUP3 DUP3 ADD DUP2 SWAP1 MSTORE PUSH1 0x0 SWAP2 SWAP1 DUP5 DUP3 ADD SWAP1 PUSH1 0x40 DUP6 ADD SWAP1 DUP5 JUMPDEST DUP2 DUP2 LT ISZERO PUSH2 0x4863 JUMPI DUP4 MLOAD DUP4 MSTORE SWAP3 DUP5 ADD SWAP3 SWAP2 DUP5 ADD SWAP2 PUSH1 0x1 ADD PUSH2 0x488B JUMP JUMPDEST PUSH1 0x0 JUMPDEST DUP4 DUP2 LT ISZERO PUSH2 0x48C2 JUMPI DUP2 DUP2 ADD MLOAD DUP4 DUP3 ADD MSTORE PUSH1 0x20 ADD PUSH2 0x48AA JUMP JUMPDEST POP POP PUSH1 0x0 SWAP2 ADD MSTORE JUMP JUMPDEST PUSH1 0x0 DUP2 MLOAD DUP1 DUP5 MSTORE PUSH2 0x48E3 DUP2 PUSH1 0x20 DUP7 ADD PUSH1 0x20 DUP7 ADD PUSH2 0x48A7 JUMP JUMPDEST PUSH1 0x1F ADD PUSH1 0x1F NOT AND SWAP3 SWAP1 SWAP3 ADD PUSH1 0x20 ADD SWAP3 SWAP2 POP POP JUMP JUMPDEST PUSH1 0x60 DUP2 MSTORE PUSH1 0x0 PUSH2 0x490A PUSH1 0x60 DUP4 ADD DUP7 PUSH2 0x48CB JUMP JUMPDEST SWAP4 ISZERO ISZERO PUSH1 0x20 DUP4 ADD MSTORE POP SWAP1 ISZERO ISZERO PUSH1 0x40 SWAP1 SWAP2 ADD MSTORE SWAP2 SWAP1 POP JUMP JUMPDEST PUSH1 0x20 DUP1 DUP3 MSTORE DUP3 MLOAD DUP3 DUP3 ADD DUP2 SWAP1 MSTORE PUSH1 0x0 SWAP2 SWAP1 DUP5 DUP3 ADD SWAP1 PUSH1 0x40 DUP6 ADD SWAP1 DUP5 JUMPDEST DUP2 DUP2 LT ISZERO PUSH2 0x4863 JUMPI DUP4 MLOAD PUSH1 0x1 PUSH1 0x1 PUSH1 0xA0 SHL SUB AND DUP4 MSTORE SWAP3 DUP5 ADD SWAP3 SWAP2 DUP5 ADD SWAP2 PUSH1 0x1 ADD PUSH2 0x493D JUMP JUMPDEST PUSH1 0x0 DUP1 DUP4 PUSH1 0x1F DUP5 ADD SLT PUSH2 0x4974 JUMPI PUSH1 0x0 DUP1 REVERT JUMPDEST POP DUP2 CALLDATALOAD PUSH1 0x1 PUSH1 0x1 PUSH1 0x40 SHL SUB DUP2 GT ISZERO PUSH2 0x498B JUMPI PUSH1 0x0 DUP1 REVERT JUMPDEST PUSH1 0x20 DUP4 ADD SWAP2 POP DUP4 PUSH1 0x20 DUP3 DUP6 ADD ADD GT ISZERO PUSH2 0x49A3 JUMPI PUSH1 0x0 DUP1 REVERT JUMPDEST SWAP3 POP SWAP3 SWAP1 POP JUMP JUMPDEST DUP1 ISZERO ISZERO DUP2 EQ PUSH2 0x3FF2 JUMPI PUSH1 0x0 DUP1 REVERT JUMPDEST PUSH1 0x0 DUP1 PUSH1 0x0 PUSH1 0x40 DUP5 DUP7 SUB SLT ISZERO PUSH2 0x49CD JUMPI PUSH1 0x0 DUP1 REVERT JUMPDEST DUP4 CALLDATALOAD PUSH1 0x1 PUSH1 0x1 PUSH1 0x40 SHL SUB DUP2 GT ISZERO PUSH2 0x49E3 JUMPI PUSH1 0x0 DUP1 REVERT JUMPDEST PUSH2 0x49EF DUP7 DUP3 DUP8 ADD PUSH2 0x4962 JUMP JUMPDEST SWAP1 SWAP5 POP SWAP3 POP POP PUSH1 0x20 DUP5 ADD CALLDATALOAD PUSH2 0x4A03 DUP2 PUSH2 0x49AA JUMP JUMPDEST DUP1 SWAP2 POP POP SWAP3 POP SWAP3 POP SWAP3 JUMP JUMPDEST PUSH1 0x0 PUSH1 0x20 DUP3 DUP5 SUB SLT ISZERO PUSH2 0x4A20 JUMPI PUSH1 0x0 DUP1 REVERT JUMPDEST DUP2 CALLDATALOAD PUSH2 0x101B DUP2 PUSH2 0x49AA JUMP JUMPDEST PUSH1 0x0 DUP1 PUSH1 0x0 DUP1 PUSH1 0x60 DUP6 DUP8 SUB SLT ISZERO PUSH2 0x4A41 JUMPI PUSH1 0x0 DUP1 REVERT JUMPDEST DUP5 CALLDATALOAD PUSH1 0x1 PUSH1 0x1 PUSH1 0x40 SHL SUB DUP2 GT ISZERO PUSH2 0x4A57 JUMPI PUSH1 0x0 DUP1 REVERT JUMPDEST PUSH2 0x4A63 DUP8 DUP3 DUP9 ADD PUSH2 0x4962 JUMP JUMPDEST SWAP1 SWAP6 POP SWAP4 POP POP PUSH1 0x20 DUP6 ADD CALLDATALOAD PUSH2 0x4A77 DUP2 PUSH2 0x49AA JUMP JUMPDEST SWAP2 POP PUSH1 0x40 DUP6 ADD CALLDATALOAD PUSH2 0x4A87 DUP2 PUSH2 0x49AA JUMP JUMPDEST SWAP4 SWAP7 SWAP3 SWAP6 POP SWAP1 SWAP4 POP POP JUMP JUMPDEST PUSH1 0x0 DUP1 PUSH1 0x0 DUP1 PUSH1 0x0 DUP1 PUSH1 0x0 PUSH1 0x80 DUP9 DUP11 SUB SLT ISZERO PUSH2 0x4AAD JUMPI PUSH1 0x0 DUP1 REVERT JUMPDEST DUP8 CALLDATALOAD PUSH1 0x1 PUSH1 0x1 PUSH1 0x40 SHL SUB DUP1 DUP3 GT ISZERO PUSH2 0x4AC4 JUMPI PUSH1 0x0 DUP1 REVERT JUMPDEST PUSH2 0x4AD0 DUP12 DUP4 DUP13 ADD PUSH2 0x4962 JUMP JUMPDEST SWAP1 SWAP10 POP SWAP8 POP PUSH1 0x20 DUP11 ADD CALLDATALOAD SWAP2 POP DUP1 DUP3 GT ISZERO PUSH2 0x4AE9 JUMPI PUSH1 0x0 DUP1 REVERT JUMPDEST PUSH2 0x4AF5 DUP12 DUP4 DUP13 ADD PUSH2 0x4962 JUMP JUMPDEST SWAP1 SWAP8 POP SWAP6 POP PUSH1 0x40 DUP11 ADD CALLDATALOAD SWAP2 POP DUP1 DUP3 GT ISZERO PUSH2 0x4B0E JUMPI PUSH1 0x0 DUP1 REVERT JUMPDEST POP PUSH2 0x4B1B DUP11 DUP3 DUP12 ADD PUSH2 0x4962 JUMP JUMPDEST SWAP1 SWAP5 POP SWAP3 POP POP PUSH1 0x60 DUP9 ADD CALLDATALOAD PUSH2 0x4B2F DUP2 PUSH2 0x47A6 JUMP JUMPDEST DUP1 SWAP2 POP POP SWAP3 SWAP6 SWAP9 SWAP2 SWAP5 SWAP8 POP SWAP3 SWAP6 POP JUMP JUMPDEST PUSH1 0x40 DUP2 MSTORE PUSH1 0x0 PUSH2 0x4B52 PUSH1 0x40 DUP4 ADD DUP6 PUSH2 0x48CB JUMP JUMPDEST SWAP1 POP DUP3 ISZERO ISZERO PUSH1 0x20 DUP4 ADD MSTORE SWAP4 SWAP3 POP POP POP JUMP JUMPDEST PUSH1 0x0 DUP1 PUSH1 0x0 PUSH1 0x60 DUP5 DUP7 SUB SLT ISZERO PUSH2 0x4B78 JUMPI PUSH1 0x0 DUP1 REVERT JUMPDEST DUP4 CALLDATALOAD SWAP3 POP PUSH1 0x20 DUP5 ADD CALLDATALOAD SWAP2 POP PUSH1 0x40 DUP5 ADD CALLDATALOAD PUSH2 0x4A03 DUP2 PUSH2 0x473B JUMP JUMPDEST PUSH1 0x0 DUP1 PUSH1 0x40 DUP4 DUP6 SUB SLT ISZERO PUSH2 0x4BA4 JUMPI PUSH1 0x0 DUP1 REVERT JUMPDEST DUP3 CALLDATALOAD SWAP2 POP PUSH1 0x20 DUP4 ADD CALLDATALOAD PUSH2 0x4816 DUP2 PUSH2 0x49AA JUMP JUMPDEST PUSH4 0x4E487B71 PUSH1 0xE0 SHL PUSH1 0x0 MSTORE PUSH1 0x41 PUSH1 0x4 MSTORE PUSH1 0x24 PUSH1 0x0 REVERT JUMPDEST PUSH1 0x40 MLOAD PUSH1 0x60 DUP2 ADD PUSH1 0x1 PUSH1 0x1 PUSH1 0x40 SHL SUB DUP2 GT DUP3 DUP3 LT OR ISZERO PUSH2 0x4BEE JUMPI PUSH2 0x4BEE PUSH2 0x4BB6 JUMP JUMPDEST PUSH1 0x40 MSTORE SWAP1 JUMP JUMPDEST PUSH1 0x40 MLOAD PUSH1 0x1F DUP3 ADD PUSH1 0x1F NOT AND DUP2 ADD PUSH1 0x1 PUSH1 0x1 PUSH1 0x40 SHL SUB DUP2 GT DUP3 DUP3 LT OR ISZERO PUSH2 0x4C1C JUMPI PUSH2 0x4C1C PUSH2 0x4BB6 JUMP JUMPDEST PUSH1 0x40 MSTORE SWAP2 SWAP1 POP JUMP JUMPDEST PUSH1 0x0 PUSH1 0x1 PUSH1 0x1 PUSH1 0x40 SHL SUB DUP3 GT ISZERO PUSH2 0x4C3D JUMPI PUSH2 0x4C3D PUSH2 0x4BB6 JUMP JUMPDEST POP PUSH1 0x1F ADD PUSH1 0x1F NOT AND PUSH1 0x20 ADD SWAP1 JUMP JUMPDEST PUSH1 0x0 DUP3 PUSH1 0x1F DUP4 ADD SLT PUSH2 0x4C5C JUMPI PUSH1 0x0 DUP1 REVERT JUMPDEST DUP2 CALLDATALOAD PUSH2 0x4C6F PUSH2 0x4C6A DUP3 PUSH2 0x4C24 JUMP JUMPDEST PUSH2 0x4BF4 JUMP JUMPDEST DUP2 DUP2 MSTORE DUP5 PUSH1 0x20 DUP4 DUP7 ADD ADD GT ISZERO PUSH2 0x4C84 JUMPI PUSH1 0x0 DUP1 REVERT JUMPDEST DUP2 PUSH1 0x20 DUP6 ADD PUSH1 0x20 DUP4 ADD CALLDATACOPY PUSH1 0x0 SWAP2 DUP2 ADD PUSH1 0x20 ADD SWAP2 SWAP1 SWAP2 MSTORE SWAP4 SWAP3 POP POP POP JUMP JUMPDEST PUSH1 0x0 DUP1 PUSH1 0x0 PUSH1 0x60 DUP5 DUP7 SUB SLT ISZERO PUSH2 0x4CB6 JUMPI PUSH1 0x0 DUP1 REVERT JUMPDEST DUP4 CALLDATALOAD PUSH2 0x4CC1 DUP2 PUSH2 0x47A6 JUMP JUMPDEST SWAP3 POP PUSH1 0x20 DUP5 ADD CALLDATALOAD PUSH1 0x1 PUSH1 0x1 PUSH1 0x40 SHL SUB DUP2 GT ISZERO PUSH2 0x4CDC JUMPI PUSH1 0x0 DUP1 REVERT JUMPDEST PUSH2 0x4CE8 DUP7 DUP3 DUP8 ADD PUSH2 0x4C4B JUMP JUMPDEST SWAP3 POP POP PUSH1 0x40 DUP5 ADD CALLDATALOAD PUSH2 0x4A03 DUP2 PUSH2 0x49AA JUMP JUMPDEST PUSH1 0x20 DUP2 MSTORE PUSH1 0x0 PUSH2 0x101B PUSH1 0x20 DUP4 ADD DUP5 PUSH2 0x48CB JUMP JUMPDEST PUSH1 0x0 DUP1 DUP4 PUSH1 0x1F DUP5 ADD SLT PUSH2 0x4D1E JUMPI PUSH1 0x0 DUP1 REVERT JUMPDEST POP DUP2 CALLDATALOAD PUSH1 0x1 PUSH1 0x1 PUSH1 0x40 SHL SUB DUP2 GT ISZERO PUSH2 0x4D35 JUMPI PUSH1 0x0 DUP1 REVERT JUMPDEST PUSH1 0x20 DUP4 ADD SWAP2 POP DUP4 PUSH1 0x20 DUP3 PUSH1 0x5 SHL DUP6 ADD ADD GT ISZERO PUSH2 0x49A3 JUMPI PUSH1 0x0 DUP1 REVERT JUMPDEST PUSH1 0x0 DUP1 PUSH1 0x0 DUP1 DUP5 DUP7 SUB PUSH2 0x120 DUP2 SLT ISZERO PUSH2 0x4D68 JUMPI PUSH1 0x0 DUP1 REVERT JUMPDEST DUP6 CALLDATALOAD PUSH1 0x1 PUSH1 0x1 PUSH1 0x40 SHL SUB DUP1 DUP3 GT ISZERO PUSH2 0x4D7F JUMPI PUSH1 0x0 DUP1 REVERT JUMPDEST PUSH2 0x4D8B DUP10 DUP4 DUP11 ADD PUSH2 0x4C4B JUMP JUMPDEST SWAP7 POP PUSH1 0xE0 PUSH1 0x1F NOT DUP5 ADD SLT ISZERO PUSH2 0x4D9F JUMPI PUSH1 0x0 DUP1 REVERT JUMPDEST PUSH1 0x20 DUP9 ADD SWAP6 POP PUSH2 0x100 DUP9 ADD CALLDATALOAD SWAP3 POP DUP1 DUP4 GT ISZERO PUSH2 0x4DBA JUMPI PUSH1 0x0 DUP1 REVERT JUMPDEST POP POP PUSH2 0x4DC8 DUP8 DUP3 DUP9 ADD PUSH2 0x4D0C JUMP JUMPDEST SWAP6 SWAP9 SWAP5 SWAP8 POP SWAP6 POP POP POP POP JUMP JUMPDEST PUSH1 0x0 DUP1 PUSH1 0x40 DUP4 DUP6 SUB SLT ISZERO PUSH2 0x4DE7 JUMPI PUSH1 0x0 DUP1 REVERT JUMPDEST DUP3 CALLDATALOAD SWAP2 POP PUSH1 0x20 DUP4 ADD CALLDATALOAD PUSH2 0x4816 DUP2 PUSH2 0x47A6 JUMP JUMPDEST PUSH1 0x0 DUP1 PUSH1 0x20 DUP4 DUP6 SUB SLT ISZERO PUSH2 0x4E0C JUMPI PUSH1 0x0 DUP1 REVERT JUMPDEST DUP3 CALLDATALOAD PUSH1 0x1 PUSH1 0x1 PUSH1 0x40 SHL SUB DUP1 DUP3 GT ISZERO PUSH2 0x4E23 JUMPI PUSH1 0x0 DUP1 REVERT JUMPDEST DUP2 DUP6 ADD SWAP2 POP DUP6 PUSH1 0x1F DUP4 ADD SLT PUSH2 0x4E37 JUMPI PUSH1 0x0 DUP1 REVERT JUMPDEST DUP2 CALLDATALOAD DUP2 DUP2 GT ISZERO PUSH2 0x4E46 JUMPI PUSH1 0x0 DUP1 REVERT JUMPDEST DUP7 PUSH1 0x20 DUP3 PUSH1 0x6 SHL DUP6 ADD ADD GT ISZERO PUSH2 0x4E5B JUMPI PUSH1 0x0 DUP1 REVERT JUMPDEST PUSH1 0x20 SWAP3 SWAP1 SWAP3 ADD SWAP7 SWAP2 SWAP6 POP SWAP1 SWAP4 POP POP POP POP JUMP JUMPDEST PUSH1 0x0 DUP1 PUSH1 0x20 DUP4 DUP6 SUB SLT ISZERO PUSH2 0x4E80 JUMPI PUSH1 0x0 DUP1 REVERT JUMPDEST DUP3 CALLDATALOAD PUSH1 0x1 PUSH1 0x1 PUSH1 0x40 SHL SUB DUP2 GT ISZERO PUSH2 0x4E96 JUMPI PUSH1 0x0 DUP1 REVERT JUMPDEST PUSH2 0x4EA2 DUP6 DUP3 DUP7 ADD PUSH2 0x4D0C JUMP JUMPDEST SWAP1 SWAP7 SWAP1 SWAP6 POP SWAP4 POP POP POP POP JUMP JUMPDEST PUSH1 0x0 DUP1 PUSH1 0x0 DUP1 PUSH1 0x60 DUP6 DUP8 SUB SLT ISZERO PUSH2 0x4EC4 JUMPI PUSH1 0x0 DUP1 REVERT JUMPDEST DUP5 CALLDATALOAD PUSH1 0x1 PUSH1 0x1 PUSH1 0x40 SHL SUB DUP2 GT ISZERO PUSH2 0x4EDA JUMPI PUSH1 0x0 DUP1 REVERT JUMPDEST PUSH2 0x4EE6 DUP8 DUP3 DUP9 ADD PUSH2 0x4962 JUMP JUMPDEST SWAP1 SWAP6 POP SWAP4 POP POP PUSH1 0x20 DUP6 ADD CALLDATALOAD SWAP2 POP PUSH1 0x40 DUP6 ADD CALLDATALOAD PUSH2 0x4A87 DUP2 PUSH2 0x49AA JUMP JUMPDEST PUSH1 0x60 DUP2 MSTORE PUSH1 0x0 PUSH2 0x4F14 PUSH1 0x60 DUP4 ADD DUP7 PUSH2 0x48CB JUMP JUMPDEST PUSH1 0x20 DUP4 ADD SWAP5 SWAP1 SWAP5 MSTORE POP SWAP1 ISZERO ISZERO PUSH1 0x40 SWAP1 SWAP2 ADD MSTORE SWAP2 SWAP1 POP JUMP JUMPDEST PUSH1 0x0 DUP1 PUSH1 0x0 PUSH1 0x60 DUP5 DUP7 SUB SLT ISZERO PUSH2 0x4F40 JUMPI PUSH1 0x0 DUP1 REVERT JUMPDEST DUP4 CALLDATALOAD SWAP3 POP PUSH1 0x20 DUP5 ADD CALLDATALOAD PUSH2 0x4F52 DUP2 PUSH2 0x47A6 JUMP JUMPDEST SWAP2 POP PUSH1 0x40 DUP5 ADD CALLDATALOAD PUSH2 0x4A03 DUP2 PUSH2 0x473B JUMP JUMPDEST PUSH1 0x0 DUP1 PUSH1 0x40 DUP4 DUP6 SUB SLT ISZERO PUSH2 0x4F75 JUMPI PUSH1 0x0 DUP1 REVERT JUMPDEST POP POP DUP1 CALLDATALOAD SWAP3 PUSH1 0x20 SWAP1 SWAP2 ADD CALLDATALOAD SWAP2 POP JUMP JUMPDEST PUSH1 0x0 PUSH1 0xA0 DUP3 DUP5 SUB SLT ISZERO PUSH2 0x4F96 JUMPI PUSH1 0x0 DUP1 REVERT JUMPDEST POP SWAP2 SWAP1 POP JUMP JUMPDEST PUSH1 0x0 DUP1 PUSH1 0x0 DUP1 PUSH1 0x0 PUSH2 0x100 DUP7 DUP9 SUB SLT ISZERO PUSH2 0x4FB5 JUMPI PUSH1 0x0 DUP1 REVERT JUMPDEST DUP6 CALLDATALOAD SWAP5 POP PUSH1 0x20 DUP7 ADD CALLDATALOAD PUSH1 0x1 PUSH1 0x1 PUSH1 0x40 SHL SUB DUP1 DUP3 GT ISZERO PUSH2 0x4FD3 JUMPI PUSH1 0x0 DUP1 REVERT JUMPDEST PUSH2 0x4FDF DUP10 DUP4 DUP11 ADD PUSH2 0x4C4B JUMP JUMPDEST SWAP6 POP PUSH2 0x4FEE DUP10 PUSH1 0x40 DUP11 ADD PUSH2 0x4F84 JUMP JUMPDEST SWAP5 POP PUSH1 0xE0 DUP9 ADD CALLDATALOAD SWAP2 POP DUP1 DUP3 GT ISZERO PUSH2 0x5004 JUMPI PUSH1 0x0 DUP1 REVERT JUMPDEST POP PUSH2 0x5011 DUP9 DUP3 DUP10 ADD PUSH2 0x4D0C JUMP JUMPDEST SWAP7 SWAP10 SWAP6 SWAP9 POP SWAP4 SWAP7 POP SWAP3 SWAP5 SWAP4 SWAP3 POP POP POP JUMP JUMPDEST PUSH1 0x0 DUP1 PUSH1 0x0 DUP1 PUSH1 0xE0 DUP6 DUP8 SUB SLT ISZERO PUSH2 0x5038 JUMPI PUSH1 0x0 DUP1 REVERT JUMPDEST DUP5 CALLDATALOAD PUSH1 0x1 PUSH1 0x1 PUSH1 0x40 SHL SUB DUP1 DUP3 GT ISZERO PUSH2 0x504F JUMPI PUSH1 0x0 DUP1 REVERT JUMPDEST PUSH2 0x505B DUP9 DUP4 DUP10 ADD PUSH2 0x4C4B JUMP JUMPDEST SWAP6 POP PUSH2 0x506A DUP9 PUSH1 0x20 DUP10 ADD PUSH2 0x4F84 JUMP JUMPDEST SWAP5 POP PUSH1 0xC0 DUP8 ADD CALLDATALOAD SWAP2 POP DUP1 DUP3 GT ISZERO PUSH2 0x5080 JUMPI PUSH1 0x0 DUP1 REVERT JUMPDEST POP PUSH2 0x4DC8 DUP8 DUP3 DUP9 ADD PUSH2 0x4D0C JUMP JUMPDEST SWAP4 DUP5 MSTORE PUSH1 0x20 DUP5 ADD SWAP3 SWAP1 SWAP3 MSTORE PUSH1 0x1 PUSH1 0x1 PUSH1 0xE0 SHL SUB NOT AND PUSH1 0x40 DUP4 ADD MSTORE PUSH1 0x60 DUP3 ADD MSTORE PUSH1 0x80 ADD SWAP1 JUMP JUMPDEST PUSH1 0x0 PUSH1 0x20 DUP3 DUP5 SUB SLT ISZERO PUSH2 0x50C4 JUMPI PUSH1 0x0 DUP1 REVERT JUMPDEST POP MLOAD SWAP2 SWAP1 POP JUMP JUMPDEST PUSH1 0x1 PUSH1 0x1 PUSH1 0xE0 SHL SUB NOT SWAP3 SWAP1 SWAP3 AND DUP3 MSTORE PUSH1 0x20 DUP3 ADD MSTORE PUSH1 0x40 ADD SWAP1 JUMP JUMPDEST PUSH1 0x0 PUSH1 0x20 DUP3 DUP5 SUB SLT ISZERO PUSH2 0x50F7 JUMPI PUSH1 0x0 DUP1 REVERT JUMPDEST DUP2 MLOAD PUSH2 0x101B DUP2 PUSH2 0x49AA JUMP JUMPDEST SWAP3 DUP4 MSTORE PUSH1 0x20 DUP4 ADD SWAP2 SWAP1 SWAP2 MSTORE PUSH1 0x1 PUSH1 0x1 PUSH1 0xE0 SHL SUB NOT AND PUSH1 0x40 DUP3 ADD MSTORE PUSH1 0x60 ADD SWAP1 JUMP JUMPDEST PUSH1 0x0 PUSH1 0x1 PUSH1 0x1 PUSH1 0x40 SHL SUB DUP3 GT ISZERO PUSH2 0x513B JUMPI PUSH2 0x513B PUSH2 0x4BB6 JUMP JUMPDEST POP PUSH1 0x5 SHL PUSH1 0x20 ADD SWAP1 JUMP JUMPDEST PUSH1 0x0 DUP3 PUSH1 0x1F DUP4 ADD SLT PUSH2 0x5156 JUMPI PUSH1 0x0 DUP1 REVERT JUMPDEST DUP2 MLOAD PUSH1 0x20 PUSH2 0x5166 PUSH2 0x4C6A DUP4 PUSH2 0x5122 JUMP JUMPDEST DUP3 DUP2 MSTORE PUSH1 0x5 SWAP3 SWAP1 SWAP3 SHL DUP5 ADD DUP2 ADD SWAP2 DUP2 DUP2 ADD SWAP1 DUP7 DUP5 GT ISZERO PUSH2 0x5185 JUMPI PUSH1 0x0 DUP1 REVERT JUMPDEST DUP3 DUP7 ADD JUMPDEST DUP5 DUP2 LT ISZERO PUSH2 0x51A9 JUMPI DUP1 MLOAD PUSH2 0x519C DUP2 PUSH2 0x473B JUMP JUMPDEST DUP4 MSTORE SWAP2 DUP4 ADD SWAP2 DUP4 ADD PUSH2 0x5189 JUMP JUMPDEST POP SWAP7 SWAP6 POP POP POP POP POP POP JUMP JUMPDEST PUSH1 0x0 PUSH1 0x20 DUP3 DUP5 SUB SLT ISZERO PUSH2 0x51C6 JUMPI PUSH1 0x0 DUP1 REVERT JUMPDEST DUP2 MLOAD PUSH1 0x1 PUSH1 0x1 PUSH1 0x40 SHL SUB DUP2 GT ISZERO PUSH2 0x51DC JUMPI PUSH1 0x0 DUP1 REVERT JUMPDEST PUSH2 0x227C DUP5 DUP3 DUP6 ADD PUSH2 0x5145 JUMP JUMPDEST PUSH1 0x0 PUSH1 0x20 DUP1 DUP4 DUP6 SUB SLT ISZERO PUSH2 0x51FB JUMPI PUSH1 0x0 DUP1 REVERT JUMPDEST DUP3 MLOAD PUSH1 0x1 PUSH1 0x1 PUSH1 0x40 SHL SUB DUP2 GT ISZERO PUSH2 0x5211 JUMPI PUSH1 0x0 DUP1 REVERT JUMPDEST DUP4 ADD PUSH1 0x1F DUP2 ADD DUP6 SGT PUSH2 0x5222 JUMPI PUSH1 0x0 DUP1 REVERT JUMPDEST DUP1 MLOAD PUSH2 0x5230 PUSH2 0x4C6A DUP3 PUSH2 0x5122 JUMP JUMPDEST DUP2 DUP2 MSTORE PUSH1 0x5 SWAP2 SWAP1 SWAP2 SHL DUP3 ADD DUP4 ADD SWAP1 DUP4 DUP2 ADD SWAP1 DUP8 DUP4 GT ISZERO PUSH2 0x524F JUMPI PUSH1 0x0 DUP1 REVERT JUMPDEST SWAP3 DUP5 ADD SWAP3 JUMPDEST DUP3 DUP5 LT ISZERO PUSH2 0x526D JUMPI DUP4 MLOAD DUP3 MSTORE SWAP3 DUP5 ADD SWAP3 SWAP1 DUP5 ADD SWAP1 PUSH2 0x5254 JUMP JUMPDEST SWAP8 SWAP7 POP POP POP POP POP POP POP JUMP JUMPDEST PUSH1 0x0 DUP3 PUSH1 0x1F DUP4 ADD SLT PUSH2 0x5289 JUMPI PUSH1 0x0 DUP1 REVERT JUMPDEST DUP2 MLOAD PUSH2 0x5297 PUSH2 0x4C6A DUP3 PUSH2 0x4C24 JUMP JUMPDEST DUP2 DUP2 MSTORE DUP5 PUSH1 0x20 DUP4 DUP7 ADD ADD GT ISZERO PUSH2 0x52AC JUMPI PUSH1 0x0 DUP1 REVERT JUMPDEST PUSH2 0x227C DUP3 PUSH1 0x20 DUP4 ADD PUSH1 0x20 DUP8 ADD PUSH2 0x48A7 JUMP JUMPDEST PUSH1 0x0 DUP1 PUSH1 0x0 PUSH1 0x60 DUP5 DUP7 SUB SLT ISZERO PUSH2 0x52D2 JUMPI PUSH1 0x0 DUP1 REVERT JUMPDEST DUP4 MLOAD PUSH1 0x1 PUSH1 0x1 PUSH1 0x40 SHL SUB DUP2 GT ISZERO PUSH2 0x52E8 JUMPI PUSH1 0x0 DUP1 REVERT JUMPDEST PUSH2 0x52F4 DUP7 DUP3 DUP8 ADD PUSH2 0x5278 JUMP JUMPDEST SWAP4 POP POP PUSH1 0x20 DUP5 ADD MLOAD PUSH2 0x5305 DUP2 PUSH2 0x49AA JUMP JUMPDEST PUSH1 0x40 DUP6 ADD MLOAD SWAP1 SWAP3 POP PUSH2 0x4A03 DUP2 PUSH2 0x49AA JUMP JUMPDEST PUSH4 0x4E487B71 PUSH1 0xE0 SHL PUSH1 0x0 MSTORE PUSH1 0x32 PUSH1 0x4 MSTORE PUSH1 0x24 PUSH1 0x0 REVERT JUMPDEST DUP2 DUP4 MSTORE DUP2 DUP2 PUSH1 0x20 DUP6 ADD CALLDATACOPY POP PUSH1 0x0 DUP3 DUP3 ADD PUSH1 0x20 SWAP1 DUP2 ADD SWAP2 SWAP1 SWAP2 MSTORE PUSH1 0x1F SWAP1 SWAP2 ADD PUSH1 0x1F NOT AND SWAP1 SWAP2 ADD ADD SWAP1 JUMP JUMPDEST DUP5 DUP2 MSTORE PUSH1 0x60 PUSH1 0x20 DUP3 ADD MSTORE PUSH1 0x0 PUSH2 0x536F PUSH1 0x60 DUP4 ADD DUP6 DUP8 PUSH2 0x532C JUMP JUMPDEST SWAP1 POP DUP3 ISZERO ISZERO PUSH1 0x40 DUP4 ADD MSTORE SWAP6 SWAP5 POP POP POP POP POP JUMP JUMPDEST PUSH1 0x40 DUP2 MSTORE PUSH1 0x0 PUSH2 0x5396 PUSH1 0x40 DUP4 ADD DUP6 DUP8 PUSH2 0x532C JUMP JUMPDEST SWAP1 POP DUP3 ISZERO ISZERO PUSH1 0x20 DUP4 ADD MSTORE SWAP5 SWAP4 POP POP POP POP JUMP JUMPDEST PUSH1 0x20 DUP1 DUP3 MSTORE PUSH1 0x15 SWAP1 DUP3 ADD MSTORE PUSH21 0x125B1B1959D85B0810DBDB9D1C9858DD0810D85B1B PUSH1 0x5A SHL PUSH1 0x40 DUP3 ADD MSTORE PUSH1 0x60 ADD SWAP1 JUMP JUMPDEST PUSH1 0x20 DUP1 DUP3 MSTORE PUSH1 0x14 SWAP1 DUP3 ADD MSTORE PUSH20 0x141C9BDE1E4810D85B1B195908125B9D985B1A59 PUSH1 0x62 SHL PUSH1 0x40 DUP3 ADD MSTORE PUSH1 0x60 ADD SWAP1 JUMP JUMPDEST PUSH1 0x20 DUP1 DUP3 MSTORE PUSH1 0x17 SWAP1 DUP3 ADD MSTORE PUSH32 0x536166654D6F64653A2043616C6C2052656A6563746564000000000000000000 PUSH1 0x40 DUP3 ADD MSTORE PUSH1 0x60 ADD SWAP1 JUMP JUMPDEST DUP6 DUP2 MSTORE PUSH1 0x80 PUSH1 0x20 DUP3 ADD MSTORE PUSH1 0x0 PUSH2 0x5456 PUSH1 0x80 DUP4 ADD DUP7 DUP9 PUSH2 0x532C JUMP JUMPDEST SWAP4 ISZERO ISZERO PUSH1 0x40 DUP4 ADD MSTORE POP SWAP1 ISZERO ISZERO PUSH1 0x60 SWAP1 SWAP2 ADD MSTORE SWAP4 SWAP3 POP POP POP JUMP JUMPDEST PUSH1 0x60 DUP2 MSTORE PUSH1 0x0 PUSH2 0x5483 PUSH1 0x60 DUP4 ADD DUP7 DUP9 PUSH2 0x532C JUMP JUMPDEST SWAP4 ISZERO ISZERO PUSH1 0x20 DUP4 ADD MSTORE POP SWAP1 ISZERO ISZERO PUSH1 0x40 SWAP1 SWAP2 ADD MSTORE SWAP3 SWAP2 POP POP JUMP JUMPDEST DUP2 DUP4 DUP3 CALLDATACOPY PUSH1 0x0 SWAP2 ADD SWAP1 DUP2 MSTORE SWAP2 SWAP1 POP JUMP JUMPDEST PUSH1 0x0 PUSH1 0x20 DUP1 DUP4 DUP6 SUB SLT ISZERO PUSH2 0x54BE JUMPI PUSH1 0x0 DUP1 REVERT JUMPDEST DUP3 MLOAD PUSH1 0x1 PUSH1 0x1 PUSH1 0x40 SHL SUB DUP1 DUP3 GT ISZERO PUSH2 0x54D5 JUMPI PUSH1 0x0 DUP1 REVERT JUMPDEST DUP2 DUP6 ADD SWAP2 POP DUP6 PUSH1 0x1F DUP4 ADD SLT PUSH2 0x54E9 JUMPI PUSH1 0x0 DUP1 REVERT JUMPDEST DUP2 MLOAD PUSH2 0x54F7 PUSH2 0x4C6A DUP3 PUSH2 0x5122 JUMP JUMPDEST DUP2 DUP2 MSTORE PUSH1 0x5 SWAP2 SWAP1 SWAP2 SHL DUP4 ADD DUP5 ADD SWAP1 DUP5 DUP2 ADD SWAP1 DUP9 DUP4 GT ISZERO PUSH2 0x5516 JUMPI PUSH1 0x0 DUP1 REVERT JUMPDEST DUP6 DUP6 ADD JUMPDEST DUP4 DUP2 LT ISZERO PUSH2 0x55A1 JUMPI DUP1 MLOAD DUP6 DUP2 GT ISZERO PUSH2 0x5532 JUMPI PUSH1 0x0 DUP1 DUP2 REVERT JUMPDEST DUP7 ADD PUSH1 0x60 DUP2 DUP13 SUB PUSH1 0x1F NOT ADD DUP2 SGT ISZERO PUSH2 0x554A JUMPI PUSH1 0x0 DUP1 DUP2 REVERT JUMPDEST PUSH2 0x5552 PUSH2 0x4BCC JUMP JUMPDEST DUP10 DUP4 ADD MLOAD DUP2 MSTORE PUSH1 0x40 DUP1 DUP5 ADD MLOAD DUP10 DUP2 GT ISZERO PUSH2 0x556C JUMPI PUSH1 0x0 DUP1 DUP2 REVERT JUMPDEST PUSH2 0x557A DUP16 DUP14 DUP4 DUP9 ADD ADD PUSH2 0x5145 JUMP JUMPDEST DUP4 DUP14 ADD MSTORE POP SWAP3 DUP3 ADD MLOAD SWAP3 PUSH2 0x558D DUP5 PUSH2 0x49AA JUMP JUMPDEST DUP2 ADD SWAP3 SWAP1 SWAP3 MSTORE POP DUP4 MSTORE SWAP2 DUP7 ADD SWAP2 DUP7 ADD PUSH2 0x551A JUMP JUMPDEST POP SWAP9 SWAP8 POP POP POP POP POP POP POP POP JUMP JUMPDEST PUSH1 0x0 PUSH1 0x80 DUP1 DUP4 ADD DUP8 DUP5 MSTORE PUSH1 0x20 PUSH1 0x1 DUP1 PUSH1 0xA0 SHL SUB DUP9 AND DUP2 DUP7 ADD MSTORE PUSH1 0x40 DUP8 DUP2 DUP8 ADD MSTORE PUSH1 0x60 DUP5 DUP2 DUP9 ADD MSTORE DUP4 DUP9 MLOAD DUP1 DUP7 MSTORE PUSH1 0xA0 DUP10 ADD SWAP2 POP PUSH1 0xA0 DUP2 PUSH1 0x5 SHL DUP11 ADD ADD SWAP6 POP DUP5 DUP11 ADD PUSH1 0x0 DUP1 JUMPDEST DUP4 DUP2 LT ISZERO PUSH2 0x5672 JUMPI DUP12 DUP10 SUB PUSH1 0x9F NOT ADD DUP6 MSTORE DUP3 MLOAD DUP1 MLOAD DUP11 MSTORE DUP9 DUP2 ADD MLOAD DUP10 DUP12 ADD DUP9 SWAP1 MSTORE DUP1 MLOAD DUP9 DUP13 ADD DUP2 SWAP1 MSTORE SWAP1 DUP11 ADD SWAP1 DUP5 SWAP1 DUP14 DUP14 ADD SWAP1 JUMPDEST DUP1 DUP4 LT ISZERO PUSH2 0x5651 JUMPI DUP4 MLOAD PUSH1 0x1 PUSH1 0x1 PUSH1 0xE0 SHL SUB NOT AND DUP3 MSTORE SWAP3 DUP13 ADD SWAP3 PUSH1 0x1 SWAP3 SWAP1 SWAP3 ADD SWAP2 SWAP1 DUP13 ADD SWAP1 PUSH2 0x5627 JUMP JUMPDEST POP SWAP3 DUP11 ADD MLOAD ISZERO ISZERO SWAP12 DUP11 ADD SWAP12 SWAP1 SWAP12 MSTORE POP SWAP9 POP SWAP4 DUP8 ADD SWAP4 SWAP2 DUP8 ADD SWAP2 PUSH1 0x1 ADD PUSH2 0x55F3 JUMP JUMPDEST POP SWAP7 SWAP15 SWAP14 POP POP POP POP POP POP POP POP POP POP POP POP POP POP JUMP JUMPDEST PUSH1 0x80 DUP2 MSTORE PUSH1 0x0 PUSH2 0x569A PUSH1 0x80 DUP4 ADD DUP9 DUP11 PUSH2 0x532C JUMP JUMPDEST DUP3 DUP2 SUB PUSH1 0x20 DUP5 ADD MSTORE PUSH2 0x56AD DUP2 DUP8 DUP10 PUSH2 0x532C JUMP JUMPDEST SWAP2 POP POP DUP4 PUSH1 0x40 DUP4 ADD MSTORE PUSH2 0xFFFF DUP4 AND PUSH1 0x60 DUP4 ADD MSTORE SWAP8 SWAP7 POP POP POP POP POP POP POP JUMP JUMPDEST PUSH1 0x0 DUP1 PUSH1 0x40 DUP4 DUP6 SUB SLT ISZERO PUSH2 0x56DE JUMPI PUSH1 0x0 DUP1 REVERT JUMPDEST DUP3 MLOAD PUSH1 0x1 PUSH1 0x1 PUSH1 0x40 SHL SUB DUP2 GT ISZERO PUSH2 0x56F4 JUMPI PUSH1 0x0 DUP1 REVERT JUMPDEST PUSH2 0x5700 DUP6 DUP3 DUP7 ADD PUSH2 0x5278 JUMP JUMPDEST SWAP3 POP POP PUSH1 0x20 DUP4 ADD MLOAD PUSH2 0x4816 DUP2 PUSH2 0x49AA JUMP JUMPDEST PUSH1 0x0 DUP1 PUSH1 0x40 DUP4 DUP6 SUB SLT ISZERO PUSH2 0x5724 JUMPI PUSH1 0x0 DUP1 REVERT JUMPDEST DUP3 MLOAD PUSH2 0x572F DUP2 PUSH2 0x49AA JUMP JUMPDEST PUSH1 0x20 SWAP4 SWAP1 SWAP4 ADD MLOAD SWAP3 SWAP5 SWAP3 SWAP4 POP POP POP JUMP JUMPDEST PUSH1 0x0 DUP1 DUP4 CALLDATALOAD PUSH1 0x1E NOT DUP5 CALLDATASIZE SUB ADD DUP2 SLT PUSH2 0x5756 JUMPI PUSH1 0x0 DUP1 REVERT JUMPDEST DUP4 ADD PUSH1 0x20 DUP2 ADD SWAP3 POP CALLDATALOAD SWAP1 POP PUSH1 0x1 PUSH1 0x1 PUSH1 0x40 SHL SUB DUP2 GT ISZERO PUSH2 0x5775 JUMPI PUSH1 0x0 DUP1 REVERT JUMPDEST DUP1 PUSH1 0x5 SHL CALLDATASIZE SUB DUP3 SGT ISZERO PUSH2 0x49A3 JUMPI PUSH1 0x0 DUP1 REVERT JUMPDEST DUP2 DUP4 MSTORE PUSH1 0x0 PUSH1 0x20 DUP1 DUP6 ADD SWAP5 POP DUP3 PUSH1 0x0 JUMPDEST DUP6 DUP2 LT ISZERO PUSH2 0x57C6 JUMPI DUP2 CALLDATALOAD PUSH2 0x57AA DUP2 PUSH2 0x473B JUMP JUMPDEST PUSH1 0x1 PUSH1 0x1 PUSH1 0xE0 SHL SUB NOT AND DUP8 MSTORE SWAP6 DUP3 ADD SWAP6 SWAP1 DUP3 ADD SWAP1 PUSH1 0x1 ADD PUSH2 0x5797 JUMP JUMPDEST POP SWAP5 SWAP6 SWAP5 POP POP POP POP POP JUMP JUMPDEST PUSH1 0x0 DUP3 CALLDATALOAD PUSH1 0x5E NOT DUP4 CALLDATASIZE SUB ADD DUP2 SLT PUSH2 0x57E7 JUMPI PUSH1 0x0 DUP1 REVERT JUMPDEST SWAP1 SWAP2 ADD SWAP3 SWAP2 POP POP JUMP JUMPDEST DUP2 DUP4 MSTORE PUSH1 0x0 PUSH1 0x20 DUP1 DUP6 ADD DUP1 DUP2 SWAP7 POP DUP6 PUSH1 0x5 SHL DUP2 ADD SWAP2 POP DUP5 PUSH1 0x0 JUMPDEST DUP8 DUP2 LT ISZERO PUSH2 0x5875 JUMPI DUP3 DUP5 SUB DUP10 MSTORE PUSH2 0x5821 DUP3 DUP9 PUSH2 0x57D1 JUMP JUMPDEST PUSH1 0x60 DUP2 CALLDATALOAD DUP7 MSTORE PUSH2 0x5833 DUP8 DUP4 ADD DUP4 PUSH2 0x573F JUMP JUMPDEST DUP3 DUP10 DUP10 ADD MSTORE PUSH2 0x5845 DUP4 DUP10 ADD DUP3 DUP5 PUSH2 0x5787 JUMP JUMPDEST SWAP3 POP POP POP PUSH1 0x40 DUP1 DUP4 ADD CALLDATALOAD SWAP3 POP PUSH2 0x585A DUP4 PUSH2 0x49AA JUMP JUMPDEST SWAP2 ISZERO ISZERO SWAP6 SWAP1 SWAP2 ADD SWAP5 SWAP1 SWAP5 MSTORE SWAP8 DUP5 ADD SWAP8 SWAP1 DUP5 ADD SWAP1 PUSH1 0x1 ADD PUSH2 0x580A JUMP JUMPDEST POP SWAP2 SWAP8 SWAP7 POP POP POP POP POP POP POP JUMP JUMPDEST PUSH1 0x0 PUSH2 0x140 DUP8 DUP4 MSTORE DUP1 PUSH1 0x20 DUP5 ADD MSTORE PUSH2 0x589C DUP2 DUP5 ADD DUP9 PUSH2 0x48CB JUMP JUMPDEST SWAP1 POP DUP6 CALLDATALOAD PUSH1 0x40 DUP5 ADD MSTORE PUSH1 0x20 DUP7 ADD CALLDATALOAD PUSH1 0x60 DUP5 ADD MSTORE PUSH1 0x40 DUP7 ADD CALLDATALOAD PUSH1 0x80 DUP5 ADD MSTORE PUSH1 0x60 DUP7 ADD CALLDATALOAD PUSH1 0xA0 DUP5 ADD MSTORE PUSH1 0x80 DUP7 ADD CALLDATALOAD PUSH2 0x58D1 DUP2 PUSH2 0x47A6 JUMP JUMPDEST PUSH1 0x1 PUSH1 0x1 PUSH1 0xA0 SHL SUB SWAP1 DUP2 AND PUSH1 0xC0 DUP6 ADD MSTORE PUSH1 0xA0 DUP8 ADD CALLDATALOAD SWAP1 PUSH2 0x58F0 DUP3 PUSH2 0x47A6 JUMP JUMPDEST AND PUSH1 0xE0 DUP5 ADD MSTORE PUSH1 0xC0 DUP7 ADD CALLDATALOAD PUSH2 0x5904 DUP2 PUSH2 0x49AA JUMP JUMPDEST ISZERO ISZERO PUSH2 0x100 DUP5 ADD MSTORE DUP3 DUP2 SUB PUSH2 0x120 DUP5 ADD MSTORE PUSH2 0x5920 DUP2 DUP6 DUP8 PUSH2 0x57F0 JUMP JUMPDEST SWAP9 SWAP8 POP POP POP POP POP POP POP POP JUMP JUMPDEST PUSH1 0x0 DUP1 PUSH1 0x0 PUSH1 0x60 DUP5 DUP7 SUB SLT ISZERO PUSH2 0x5941 JUMPI PUSH1 0x0 DUP1 REVERT JUMPDEST DUP4 MLOAD PUSH2 0x594C DUP2 PUSH2 0x47A6 JUMP JUMPDEST PUSH1 0x20 DUP6 ADD MLOAD PUSH1 0x40 DUP7 ADD MLOAD SWAP2 SWAP5 POP SWAP3 POP PUSH2 0x4A03 DUP2 PUSH2 0x47A6 JUMP JUMPDEST PUSH4 0x4E487B71 PUSH1 0xE0 SHL PUSH1 0x0 MSTORE PUSH1 0x11 PUSH1 0x4 MSTORE PUSH1 0x24 PUSH1 0x0 REVERT JUMPDEST PUSH1 0x0 PUSH1 0x1 DUP3 ADD PUSH2 0x598C JUMPI PUSH2 0x598C PUSH2 0x5964 JUMP JUMPDEST POP PUSH1 0x1 ADD SWAP1 JUMP JUMPDEST DUP4 DUP2 MSTORE PUSH1 0x40 PUSH1 0x20 DUP1 DUP4 ADD DUP3 SWAP1 MSTORE DUP3 DUP3 ADD DUP5 SWAP1 MSTORE PUSH1 0x0 SWAP2 SWAP1 DUP6 SWAP1 PUSH1 0x60 DUP6 ADD DUP5 JUMPDEST DUP8 DUP2 LT ISZERO PUSH2 0x55A1 JUMPI DUP4 CALLDATALOAD DUP3 MSTORE DUP3 DUP5 ADD CALLDATALOAD PUSH2 0x59CB DUP2 PUSH2 0x47A6 JUMP JUMPDEST PUSH1 0x1 PUSH1 0x1 PUSH1 0xA0 SHL SUB AND DUP3 DUP5 ADD MSTORE SWAP3 DUP5 ADD SWAP3 SWAP1 DUP5 ADD SWAP1 PUSH1 0x1 ADD PUSH2 0x59B2 JUMP JUMPDEST PUSH1 0x0 PUSH1 0x40 DUP1 DUP4 ADD DUP7 DUP5 MSTORE PUSH1 0x20 DUP3 DUP2 DUP7 ADD MSTORE DUP2 DUP7 DUP4 MSTORE PUSH1 0x60 SWAP3 POP DUP3 DUP7 ADD SWAP1 POP DUP3 DUP8 PUSH1 0x5 SHL DUP8 ADD ADD DUP9 PUSH1 0x0 JUMPDEST DUP10 DUP2 LT ISZERO PUSH2 0x5AAF JUMPI DUP9 DUP4 SUB PUSH1 0x5F NOT ADD DUP5 MSTORE PUSH2 0x5A2D DUP3 DUP13 PUSH2 0x57D1 JUMP JUMPDEST DUP1 CALLDATALOAD DUP5 MSTORE DUP6 DUP2 ADD CALLDATALOAD PUSH1 0x1E NOT DUP3 CALLDATASIZE SUB ADD DUP2 SLT PUSH2 0x5A47 JUMPI PUSH1 0x0 DUP1 REVERT JUMPDEST DUP2 ADD DUP7 DUP2 ADD SWAP1 CALLDATALOAD PUSH1 0x1 PUSH1 0x1 PUSH1 0x40 SHL SUB DUP2 GT ISZERO PUSH2 0x5A62 JUMPI PUSH1 0x0 DUP1 REVERT JUMPDEST DUP1 CALLDATASIZE SUB DUP3 SGT ISZERO PUSH2 0x5A71 JUMPI PUSH1 0x0 DUP1 REVERT JUMPDEST DUP9 DUP9 DUP8 ADD MSTORE PUSH2 0x5A83 DUP10 DUP8 ADD DUP3 DUP5 PUSH2 0x532C JUMP JUMPDEST SWAP2 POP POP DUP9 DUP3 ADD CALLDATALOAD SWAP2 POP PUSH2 0x5A95 DUP3 PUSH2 0x49AA JUMP JUMPDEST SWAP1 ISZERO ISZERO SWAP4 DUP9 ADD SWAP4 SWAP1 SWAP4 MSTORE SWAP3 DUP5 ADD SWAP3 SWAP1 DUP5 ADD SWAP1 PUSH1 0x1 ADD PUSH2 0x5A12 JUMP JUMPDEST POP SWAP1 SWAP11 SWAP10 POP POP POP POP POP POP POP POP POP POP JUMP JUMPDEST PUSH1 0x0 DUP3 CALLDATALOAD PUSH1 0x5E NOT DUP4 CALLDATASIZE SUB ADD DUP2 SLT PUSH2 0x5AD5 JUMPI PUSH1 0x0 DUP1 REVERT JUMPDEST SWAP2 SWAP1 SWAP2 ADD SWAP3 SWAP2 POP POP JUMP JUMPDEST PUSH1 0x0 DUP1 DUP4 CALLDATALOAD PUSH1 0x1E NOT DUP5 CALLDATASIZE SUB ADD DUP2 SLT PUSH2 0x5AF6 JUMPI PUSH1 0x0 DUP1 REVERT JUMPDEST DUP4 ADD DUP1 CALLDATALOAD SWAP2 POP PUSH1 0x1 PUSH1 0x1 PUSH1 0x40 SHL SUB DUP3 GT ISZERO PUSH2 0x5B10 JUMPI PUSH1 0x0 DUP1 REVERT JUMPDEST PUSH1 0x20 ADD SWAP2 POP CALLDATASIZE DUP2 SWAP1 SUB DUP3 SGT ISZERO PUSH2 0x49A3 JUMPI PUSH1 0x0 DUP1 REVERT JUMPDEST PUSH1 0x0 PUSH1 0xC0 DUP3 DUP5 SUB SLT ISZERO PUSH2 0x5B37 JUMPI PUSH1 0x0 DUP1 REVERT JUMPDEST PUSH1 0x40 MLOAD PUSH1 0xC0 DUP2 ADD DUP2 DUP2 LT PUSH1 0x1 PUSH1 0x1 PUSH1 0x40 SHL SUB DUP3 GT OR ISZERO PUSH2 0x5B59 JUMPI PUSH2 0x5B59 PUSH2 0x4BB6 JUMP JUMPDEST DUP1 PUSH1 0x40 MSTORE POP DUP3 MLOAD DUP2 MSTORE PUSH1 0x20 DUP4 ADD MLOAD PUSH1 0x20 DUP3 ADD MSTORE PUSH1 0x40 DUP4 ADD MLOAD PUSH1 0x40 DUP3 ADD MSTORE PUSH1 0x60 DUP4 ADD MLOAD PUSH2 0x5B84 DUP2 PUSH2 0x47A6 JUMP JUMPDEST PUSH1 0x60 DUP3 ADD MSTORE PUSH1 0x80 DUP4 ADD MLOAD PUSH2 0x5B97 DUP2 PUSH2 0x49AA JUMP JUMPDEST PUSH1 0x80 DUP3 ADD MSTORE PUSH1 0xA0 DUP4 ADD MLOAD PUSH2 0x5BAA DUP2 PUSH2 0x49AA JUMP JUMPDEST PUSH1 0xA0 DUP3 ADD MSTORE SWAP4 SWAP3 POP POP POP JUMP JUMPDEST DUP6 DUP2 MSTORE PUSH1 0x80 PUSH1 0x20 DUP3 ADD MSTORE PUSH1 0x0 PUSH2 0x5BD0 PUSH1 0x80 DUP4 ADD DUP7 DUP9 PUSH2 0x532C JUMP JUMPDEST PUSH1 0x40 DUP4 ADD SWAP5 SWAP1 SWAP5 MSTORE POP SWAP1 ISZERO ISZERO PUSH1 0x60 SWAP1 SWAP2 ADD MSTORE SWAP4 SWAP3 POP POP POP JUMP JUMPDEST PUSH1 0x0 DUP1 PUSH1 0x0 PUSH1 0x60 DUP5 DUP7 SUB SLT ISZERO PUSH2 0x5BFE JUMPI PUSH1 0x0 DUP1 REVERT JUMPDEST DUP4 MLOAD PUSH1 0x1 PUSH1 0x1 PUSH1 0x40 SHL SUB DUP2 GT ISZERO PUSH2 0x5C14 JUMPI PUSH1 0x0 DUP1 REVERT JUMPDEST PUSH2 0x5C20 DUP7 DUP3 DUP8 ADD PUSH2 0x5278 JUMP JUMPDEST SWAP4 POP POP PUSH1 0x20 DUP5 ADD MLOAD SWAP2 POP PUSH1 0x40 DUP5 ADD MLOAD PUSH2 0x4A03 DUP2 PUSH2 0x49AA JUMP JUMPDEST PUSH1 0x0 PUSH1 0x20 DUP1 DUP4 DUP6 SUB SLT ISZERO PUSH2 0x5C4B JUMPI PUSH1 0x0 DUP1 REVERT JUMPDEST DUP3 MLOAD PUSH1 0x1 PUSH1 0x1 PUSH1 0x40 SHL SUB DUP2 GT ISZERO PUSH2 0x5C61 JUMPI PUSH1 0x0 DUP1 REVERT JUMPDEST DUP4 ADD PUSH1 0x1F DUP2 ADD DUP6 SGT PUSH2 0x5C72 JUMPI PUSH1 0x0 DUP1 REVERT JUMPDEST DUP1 MLOAD PUSH2 0x5C80 PUSH2 0x4C6A DUP3 PUSH2 0x5122 JUMP JUMPDEST DUP2 DUP2 MSTORE PUSH1 0x5 SWAP2 SWAP1 SWAP2 SHL DUP3 ADD DUP4 ADD SWAP1 DUP4 DUP2 ADD SWAP1 DUP8 DUP4 GT ISZERO PUSH2 0x5C9F JUMPI PUSH1 0x0 DUP1 REVERT JUMPDEST SWAP3 DUP5 ADD SWAP3 JUMPDEST DUP3 DUP5 LT ISZERO PUSH2 0x526D JUMPI DUP4 MLOAD PUSH2 0x5CB7 DUP2 PUSH2 0x47A6 JUMP JUMPDEST DUP3 MSTORE SWAP3 DUP5 ADD SWAP3 SWAP1 DUP5 ADD SWAP1 PUSH2 0x5CA4 JUMP JUMPDEST DUP1 CALLDATALOAD DUP3 MSTORE PUSH1 0x20 DUP2 ADD CALLDATALOAD PUSH1 0x20 DUP4 ADD MSTORE PUSH1 0x40 DUP2 ADD CALLDATALOAD PUSH1 0x40 DUP4 ADD MSTORE PUSH1 0x60 DUP2 ADD CALLDATALOAD PUSH2 0x5CEC DUP2 PUSH2 0x47A6 JUMP JUMPDEST PUSH1 0x1 PUSH1 0x1 PUSH1 0xA0 SHL SUB AND PUSH1 0x60 DUP4 ADD MSTORE PUSH1 0x80 DUP2 ADD CALLDATALOAD PUSH2 0x5D08 DUP2 PUSH2 0x49AA JUMP JUMPDEST DUP1 ISZERO ISZERO PUSH1 0x80 DUP5 ADD MSTORE POP POP POP JUMP JUMPDEST PUSH1 0x0 PUSH2 0x120 DUP9 DUP4 MSTORE PUSH1 0x20 DUP9 DUP2 DUP6 ADD MSTORE PUSH1 0x40 DUP3 DUP2 DUP7 ADD MSTORE PUSH2 0x5D37 DUP4 DUP7 ADD DUP11 PUSH2 0x48CB JUMP JUMPDEST SWAP3 POP PUSH1 0x60 PUSH2 0x5D47 DUP2 DUP8 ADD DUP11 PUSH2 0x5CC6 JUMP JUMPDEST DUP6 DUP5 SUB PUSH2 0x100 DUP8 ADD MSTORE DUP7 DUP5 MSTORE DUP3 DUP5 ADD PUSH1 0x5 DUP9 SWAP1 SHL DUP6 ADD DUP5 ADD DUP10 PUSH1 0x0 DUP1 JUMPDEST DUP12 DUP2 LT ISZERO PUSH2 0x5DC9 JUMPI DUP9 DUP5 SUB PUSH1 0x1F NOT ADD DUP6 MSTORE PUSH2 0x5D7F DUP4 DUP15 PUSH2 0x57D1 JUMP JUMPDEST DUP1 CALLDATALOAD DUP6 MSTORE PUSH2 0x5D8F DUP10 DUP3 ADD DUP3 PUSH2 0x573F JUMP JUMPDEST DUP9 DUP12 DUP9 ADD MSTORE PUSH2 0x5DA1 DUP10 DUP9 ADD DUP3 DUP5 PUSH2 0x5787 JUMP JUMPDEST SWAP3 DUP11 ADD CALLDATALOAD SWAP3 SWAP2 POP POP PUSH1 0x3 DUP3 LT PUSH2 0x5DB5 JUMPI DUP4 DUP5 REVERT JUMPDEST SWAP5 DUP9 ADD MSTORE SWAP4 DUP8 ADD SWAP4 SWAP2 DUP8 ADD SWAP2 PUSH1 0x1 ADD PUSH2 0x5D64 JUMP JUMPDEST POP SWAP2 SWAP16 SWAP15 POP POP POP POP POP POP POP POP POP POP POP POP POP POP POP JUMP JUMPDEST PUSH1 0x0 DUP1 PUSH1 0x40 DUP4 DUP6 SUB SLT ISZERO PUSH2 0x5DF1 JUMPI PUSH1 0x0 DUP1 REVERT JUMPDEST DUP3 MLOAD PUSH2 0x5DFC DUP2 PUSH2 0x47A6 JUMP JUMPDEST PUSH1 0x20 DUP5 ADD MLOAD SWAP1 SWAP3 POP PUSH2 0x4816 DUP2 PUSH2 0x47A6 JUMP JUMPDEST PUSH1 0x0 PUSH2 0x100 DUP8 DUP4 MSTORE DUP1 PUSH1 0x20 DUP5 ADD MSTORE PUSH2 0x5E27 DUP2 DUP5 ADD DUP9 PUSH2 0x48CB JUMP JUMPDEST SWAP1 POP PUSH2 0x5E36 PUSH1 0x40 DUP5 ADD DUP8 PUSH2 0x5CC6 JUMP JUMPDEST DUP3 DUP2 SUB PUSH1 0xE0 DUP5 ADD MSTORE PUSH2 0x5920 DUP2 DUP6 DUP8 PUSH2 0x57F0 JUMP JUMPDEST PUSH1 0x0 DUP1 PUSH1 0x40 DUP4 DUP6 SUB SLT ISZERO PUSH2 0x5E5C JUMPI PUSH1 0x0 DUP1 REVERT JUMPDEST DUP3 MLOAD SWAP2 POP PUSH1 0x20 DUP4 ADD MLOAD PUSH2 0x4816 DUP2 PUSH2 0x47A6 JUMP JUMPDEST SWAP3 DUP4 MSTORE PUSH1 0x1 PUSH1 0x1 PUSH1 0xA0 SHL SUB SWAP2 SWAP1 SWAP2 AND PUSH1 0x20 DUP4 ADD MSTORE PUSH1 0x1 PUSH1 0x1 PUSH1 0xE0 SHL SUB NOT AND PUSH1 0x40 DUP3 ADD MSTORE PUSH1 0x60 ADD SWAP1 JUMP JUMPDEST DUP2 DUP2 SUB DUP2 DUP2 GT ISZERO PUSH2 0xF46 JUMPI PUSH2 0xF46 PUSH2 0x5964 JUMP JUMPDEST PUSH1 0x0 DUP3 MLOAD PUSH2 0x5AD5 DUP2 DUP5 PUSH1 0x20 DUP8 ADD PUSH2 0x48A7 JUMP INVALID DIFFICULTY PUSH6 0x6C6567617465 PUSH4 0x616C6C20 PUSH10 0x735265616C6D55706772 PUSH2 0x6461 PUSH3 0x6C6520 CHAINID PUSH2 0x696C PUSH6 0x64360894A13B LOG1 LOG3 0x21 MOD PUSH8 0xC828492DB98DCA3E KECCAK256 PUSH23 0xCC3735A920A3CA505D382BBCA26469706673582212200B 0x2D SWAP3 ORIGIN MUL PUSH32 0x90F5F141CADC4DB6F782E61973031E7D2FE1E1184DEF539D87EF64736F6C6343 STOP ADDMOD GT STOP CALLER 0xB5 BALANCE 0x27 PUSH9 0x4A568B3173AE13B9F8 0xA6 ADD PUSH15 0x243E63B6E8EE1178D6A717850B5D61 SUB "
    },
    "gasEstimates": {
      "creation": {
        "codeDepositCost": "4875000",
        "executionCost": "infinite",
        "totalCost": "infinite"
      },
      "external": {
        "": "231",
        "accessControlManager()": "2399",
        "addContextFuncRole(bytes32,bytes4,bytes32)": "infinite",
        "batchGrantRoleAccount((bytes32,address)[])": "infinite",
        "batchRegisterRole((bytes32,string,bool)[])": "infinite",
        "batchRevokeRoleAccount((bytes32,address)[])": "infinite",
        "contractContext()": "506",
        "contractName()": "2448",
        "contractRealm()": "2426",
        "contractVersion()": "2382",
        "domainSeparator()": "4793",
        "getContextFuncs(bytes32)": "infinite",
        "getContextInfo(bytes32)": "infinite",
        "getGroupInfo(bytes32)": "infinite",
        "getGroupRoles(bytes32)": "infinite",
        "getLibraries()": "infinite",
        "getRealmContexts(bytes32)": "infinite",
        "getRealmInfo(bytes32)": "infinite",
        "getRoleAccounts(bytes32)": "infinite",
        "getRoleInfo(bytes32)": "infinite",
        "grantContextRole(bytes32,bytes4,bytes32)": "infinite",
        "grantRoleAccount(bytes32,address)": "infinite",
        "hasAccess(bytes32,address,bytes4)": "infinite",
        "hasContextRole(bytes32,bytes32,bytes4)": "infinite",
        "hasGroupRole(bytes32,bytes32)": "infinite",
        "hasRealmContext(bytes32,bytes32)": "infinite",
        "hasRoleAccount(bytes32,address)": "infinite",
        "initVersion()": "2436",
        "initialize(string,string,string,address)": "infinite",
        "isContextEnabled(bytes32)": "infinite",
        "isContextExists(bytes32)": "infinite",
        "isContextFunctionEnabled(bytes32,bytes4)": "infinite",
        "isContextFunctionExists(bytes32,bytes4)": "infinite",
        "isContextSafeMode(bytes32)": "infinite",
        "isContextUpgradable(bytes32)": "infinite",
        "isGroupEnabled(bytes32)": "infinite",
        "isGroupExists(bytes32)": "infinite",
        "isLivelyAdminRole(address)": "infinite",
        "isLivelyAssetAdminRole(address)": "infinite",
        "isLivelyAssetGroup(bytes32)": "infinite",
        "isLivelyAssetManagerRole(address)": "infinite",
        "isLivelyAssetRealm(bytes32)": "infinite",
        "isLivelyCommunityDaoExecutorRole(address)": "infinite",
        "isLivelyCommunityDaoRole(address)": "infinite",
        "isLivelyDaoGroup(bytes32)": "infinite",
        "isLivelyGeneralGroup(bytes32)": "infinite",
        "isLivelyGeneralRealm(bytes32)": "infinite",
        "isLivelySystemAdminRole(address)": "infinite",
        "isRealmEnabled(bytes32)": "infinite",
        "isRealmExists(bytes32)": "infinite",
        "isRealmUpgradable(bytes32)": "infinite",
        "isRoleEnabled(bytes32)": "infinite",
        "isRoleExists(bytes32)": "infinite",
        "isSafeMode()": "2466",
        "isUpgradable()": "2378",
        "localAdmin()": "2555",
        "proxiableUUID()": "infinite",
        "registerContext(bytes,(bytes32,bytes32,bytes32,address,bool),(bytes32,bytes4[],bool)[])": "infinite",
        "registerGroup(string,bool)": "infinite",
        "registerPredictContext(bytes,(bytes32,bytes32,bytes32,bytes32,address,address,bool),(bytes32,bytes4[],bool)[])": "infinite",
        "registerRealm(string,bool,bool)": "infinite",
        "registerRole(string,bytes32,bool)": "infinite",
        "removeContextFunc(bytes32,bytes4)": "infinite",
        "revokeContextRole(bytes32,bytes4,bytes32)": "infinite",
        "revokeRoleAccount(bytes32,address)": "infinite",
        "setContextRealm(bytes32,bytes32)": "infinite",
        "setContextStatus(bytes32,bool)": "infinite",
        "setGroupStatus(bytes32,bool)": "infinite",
        "setLocalAdmin(address)": "infinite",
        "setRealmStatus(bytes32,bool)": "infinite",
        "setRealmUpgradeStatus(bytes32,bool)": "infinite",
        "setRoleGroup(bytes32,bytes32)": "infinite",
        "setRoleStatus(bytes32,bool)": "infinite",
        "setSafeMode(bool)": "infinite",
        "setUpgradeStatus(bool)": "infinite",
        "subjectAddress()": "infinite",
        "supportsInterface(bytes4)": "infinite",
        "updateContext(bytes32,bytes,(bytes32,bytes32,bytes32,address,bool),(bytes32,bytes4[],uint8)[])": "infinite",
        "upgradeTo(address,bytes,bool)": "infinite",
        "withdrawBalance(address)": "infinite"
      }
    },
    "methodIdentifiers": {
      "accessControlManager()": "b4a0bdf3",
      "addContextFuncRole(bytes32,bytes4,bytes32)": "031c0493",
      "batchGrantRoleAccount((bytes32,address)[])": "93ba3131",
      "batchRegisterRole((bytes32,string,bool)[])": "9e3a2cea",
      "batchRevokeRoleAccount((bytes32,address)[])": "c557020a",
      "contractContext()": "870666cb",
      "contractName()": "75d0c0dc",
      "contractRealm()": "d3e024b8",
      "contractVersion()": "a0a8e460",
      "domainSeparator()": "f698da25",
      "getContextFuncs(bytes32)": "2e2adf00",
      "getContextInfo(bytes32)": "9ebf6246",
      "getGroupInfo(bytes32)": "6b2b7dd8",
      "getGroupRoles(bytes32)": "edf1d1cb",
      "getLibraries()": "3e02bc38",
      "getRealmContexts(bytes32)": "37bfbfe8",
      "getRealmInfo(bytes32)": "3c7d5b25",
      "getRoleAccounts(bytes32)": "e1ed0a82",
      "getRoleInfo(bytes32)": "be409a11",
      "grantContextRole(bytes32,bytes4,bytes32)": "771bcf45",
      "grantRoleAccount(bytes32,address)": "8f09e0f0",
      "hasAccess(bytes32,address,bytes4)": "c7ab39e6",
      "hasContextRole(bytes32,bytes32,bytes4)": "6b3b0159",
      "hasGroupRole(bytes32,bytes32)": "f5122c92",
      "hasRealmContext(bytes32,bytes32)": "d9aba36e",
      "hasRoleAccount(bytes32,address)": "c7ea945c",
      "initVersion()": "38d38c97",
      "initialize(string,string,string,address)": "5c6d8da1",
      "isContextEnabled(bytes32)": "4944f532",
      "isContextExists(bytes32)": "8e703826",
      "isContextFunctionEnabled(bytes32,bytes4)": "b4c4b58f",
      "isContextFunctionExists(bytes32,bytes4)": "11b529b3",
      "isContextSafeMode(bytes32)": "101df54d",
      "isContextUpgradable(bytes32)": "51e70bb0",
      "isGroupEnabled(bytes32)": "3228144d",
      "isGroupExists(bytes32)": "1846d125",
      "isLivelyAdminRole(address)": "be409b57",
      "isLivelyAssetAdminRole(address)": "c34aa021",
      "isLivelyAssetGroup(bytes32)": "5bdaecce",
      "isLivelyAssetManagerRole(address)": "d9d34bf8",
      "isLivelyAssetRealm(bytes32)": "a32ce13d",
      "isLivelyCommunityDaoExecutorRole(address)": "076a6f22",
      "isLivelyCommunityDaoRole(address)": "a92f69c1",
      "isLivelyDaoGroup(bytes32)": "94cfd6e3",
      "isLivelyGeneralGroup(bytes32)": "4dc13c8f",
      "isLivelyGeneralRealm(bytes32)": "91690955",
      "isLivelySystemAdminRole(address)": "41565673",
      "isRealmEnabled(bytes32)": "c48e7ae6",
      "isRealmExists(bytes32)": "45b5203c",
      "isRealmUpgradable(bytes32)": "e25d75f0",
      "isRoleEnabled(bytes32)": "2f032edd",
      "isRoleExists(bytes32)": "dc853dd0",
      "isSafeMode()": "be22465d",
      "isUpgradable()": "5479d940",
      "localAdmin()": "f94a0adb",
      "proxiableUUID()": "52d1902d",
      "registerContext(bytes,(bytes32,bytes32,bytes32,address,bool),(bytes32,bytes4[],bool)[])": "f1df49da",
      "registerGroup(string,bool)": "3f4c99b8",
      "registerPredictContext(bytes,(bytes32,bytes32,bytes32,bytes32,address,address,bool),(bytes32,bytes4[],bool)[])": "7b443379",
      "registerRealm(string,bool,bool)": "4bb1be8c",
      "registerRole(string,bytes32,bool)": "b2dc26e5",
      "removeContextFunc(bytes32,bytes4)": "b58966de",
      "revokeContextRole(bytes32,bytes4,bytes32)": "4346a04b",
      "revokeRoleAccount(bytes32,address)": "df01de45",
      "setContextRealm(bytes32,bytes32)": "d3386401",
      "setContextStatus(bytes32,bool)": "70420ee3",
      "setGroupStatus(bytes32,bool)": "b6c03f03",
      "setLocalAdmin(address)": "d9dc1f19",
      "setRealmStatus(bytes32,bool)": "8b7dbd6c",
      "setRealmUpgradeStatus(bytes32,bool)": "f2c673bd",
      "setRoleGroup(bytes32,bytes32)": "dbf304b0",
      "setRoleStatus(bytes32,bool)": "e71e224e",
      "setSafeMode(bool)": "44b7e5f2",
      "setUpgradeStatus(bool)": "48e6be1c",
      "subjectAddress()": "58dbc45d",
      "supportsInterface(bytes4)": "01ffc9a7",
      "updateContext(bytes32,bytes,(bytes32,bytes32,bytes32,address,bool),(bytes32,bytes4[],uint8)[])": "e65be468",
      "upgradeTo(address,bytes,bool)": "7147855d",
      "withdrawBalance(address)": "756af45f"
    }
  },
  "storageLayout": {
    "storage": [
      {
        "astId": 19657,
        "contract": "src/contracts/acl/AccessControlManager.sol:AccessControlManager",
        "label": "_domainName",
        "offset": 0,
        "slot": "0",
        "type": "t_bytes32"
      },
      {
        "astId": 19659,
        "contract": "src/contracts/acl/AccessControlManager.sol:AccessControlManager",
        "label": "_domainVersion",
        "offset": 0,
        "slot": "1",
        "type": "t_bytes32"
      },
      {
        "astId": 19661,
        "contract": "src/contracts/acl/AccessControlManager.sol:AccessControlManager",
        "label": "_domainRealm",
        "offset": 0,
        "slot": "2",
        "type": "t_bytes32"
      },
      {
        "astId": 19663,
        "contract": "src/contracts/acl/AccessControlManager.sol:AccessControlManager",
        "label": "_accessControlManager",
        "offset": 0,
        "slot": "3",
        "type": "t_address"
      },
      {
        "astId": 19665,
        "contract": "src/contracts/acl/AccessControlManager.sol:AccessControlManager",
        "label": "_isSafeMode",
        "offset": 20,
        "slot": "3",
        "type": "t_bool"
      },
      {
        "astId": 19667,
        "contract": "src/contracts/acl/AccessControlManager.sol:AccessControlManager",
        "label": "_isUpgradable",
        "offset": 21,
        "slot": "3",
        "type": "t_bool"
      },
      {
        "astId": 19672,
        "contract": "src/contracts/acl/AccessControlManager.sol:AccessControlManager",
        "label": "__reserved",
        "offset": 0,
        "slot": "4",
        "type": "t_array(t_uint256)64_storage"
      },
      {
        "astId": 1640,
        "contract": "src/contracts/acl/AccessControlManager.sol:AccessControlManager",
        "label": "_data",
        "offset": 0,
        "slot": "68",
        "type": "t_struct(DataCollections)1637_storage"
      },
      {
        "astId": 19840,
        "contract": "src/contracts/acl/AccessControlManager.sol:AccessControlManager",
        "label": "_initialized",
        "offset": 0,
        "slot": "73",
        "type": "t_uint16"
      },
      {
        "astId": 19843,
        "contract": "src/contracts/acl/AccessControlManager.sol:AccessControlManager",
        "label": "_initializing",
        "offset": 2,
        "slot": "73",
        "type": "t_bool"
      }
    ],
    "types": {
      "t_address": {
        "encoding": "inplace",
        "label": "address",
        "numberOfBytes": "20"
      },
      "t_array(t_bytes32)dyn_storage": {
        "base": "t_bytes32",
        "encoding": "dynamic_array",
        "label": "bytes32[]",
        "numberOfBytes": "32"
      },
      "t_array(t_uint256)64_storage": {
        "base": "t_uint256",
        "encoding": "inplace",
        "label": "uint256[64]",
        "numberOfBytes": "2048"
      },
      "t_bool": {
        "encoding": "inplace",
        "label": "bool",
        "numberOfBytes": "1"
      },
      "t_bytes32": {
        "encoding": "inplace",
        "label": "bytes32",
        "numberOfBytes": "32"
      },
      "t_bytes4": {
        "encoding": "inplace",
        "label": "bytes4",
        "numberOfBytes": "4"
      },
      "t_enum(Status)1560": {
        "encoding": "inplace",
        "label": "enum AccessControlStorage.Status",
        "numberOfBytes": "1"
      },
      "t_mapping(t_address,t_mapping(t_bytes32,t_enum(Status)1560))": {
        "encoding": "mapping",
        "key": "t_address",
        "label": "mapping(address => mapping(bytes32 => enum AccessControlStorage.Status))",
        "numberOfBytes": "32",
        "value": "t_mapping(t_bytes32,t_enum(Status)1560)"
      },
      "t_mapping(t_bytes32,t_enum(Status)1560)": {
        "encoding": "mapping",
        "key": "t_bytes32",
        "label": "mapping(bytes32 => enum AccessControlStorage.Status)",
        "numberOfBytes": "32",
        "value": "t_enum(Status)1560"
      },
      "t_mapping(t_bytes32,t_struct(Context)1581_storage)": {
        "encoding": "mapping",
        "key": "t_bytes32",
        "label": "mapping(bytes32 => struct AccessControlStorage.Context)",
        "numberOfBytes": "32",
        "value": "t_struct(Context)1581_storage"
      },
      "t_mapping(t_bytes32,t_struct(Group)1609_storage)": {
        "encoding": "mapping",
        "key": "t_bytes32",
        "label": "mapping(bytes32 => struct AccessControlStorage.Group)",
        "numberOfBytes": "32",
        "value": "t_struct(Group)1609_storage"
      },
      "t_mapping(t_bytes32,t_struct(Realm)1601_storage)": {
        "encoding": "mapping",
        "key": "t_bytes32",
        "label": "mapping(bytes32 => struct AccessControlStorage.Realm)",
        "numberOfBytes": "32",
        "value": "t_struct(Realm)1601_storage"
      },
      "t_mapping(t_bytes32,t_struct(Role)1591_storage)": {
        "encoding": "mapping",
        "key": "t_bytes32",
        "label": "mapping(bytes32 => struct AccessControlStorage.Role)",
        "numberOfBytes": "32",
        "value": "t_struct(Role)1591_storage"
      },
      "t_mapping(t_bytes32,t_uint256)": {
        "encoding": "mapping",
        "key": "t_bytes32",
        "label": "mapping(bytes32 => uint256)",
        "numberOfBytes": "32",
        "value": "t_uint256"
      },
      "t_mapping(t_bytes4,t_struct(RoleStat)1566_storage)": {
        "encoding": "mapping",
        "key": "t_bytes4",
        "label": "mapping(bytes4 => struct AccessControlStorage.RoleStat)",
        "numberOfBytes": "32",
        "value": "t_struct(RoleStat)1566_storage"
      },
      "t_string_storage": {
        "encoding": "bytes",
        "label": "string",
        "numberOfBytes": "32"
      },
      "t_struct(AddressSet)15618_storage": {
        "encoding": "inplace",
        "label": "struct LEnumerableSet.AddressSet",
        "members": [
          {
            "astId": 15617,
            "contract": "src/contracts/acl/AccessControlManager.sol:AccessControlManager",
            "label": "_inner",
            "offset": 0,
            "slot": "0",
            "type": "t_struct(Set)15317_storage"
          }
        ],
        "numberOfBytes": "64"
      },
      "t_struct(Bytes32Set)15511_storage": {
        "encoding": "inplace",
        "label": "struct LEnumerableSet.Bytes32Set",
        "members": [
          {
            "astId": 15510,
            "contract": "src/contracts/acl/AccessControlManager.sol:AccessControlManager",
            "label": "_inner",
            "offset": 0,
            "slot": "0",
            "type": "t_struct(Set)15317_storage"
          }
        ],
        "numberOfBytes": "64"
      },
      "t_struct(Context)1581_storage": {
        "encoding": "inplace",
        "label": "struct AccessControlStorage.Context",
        "members": [
          {
            "astId": 1568,
            "contract": "src/contracts/acl/AccessControlManager.sol:AccessControlManager",
            "label": "realm",
            "offset": 0,
            "slot": "0",
            "type": "t_bytes32"
          },
          {
            "astId": 1570,
            "contract": "src/contracts/acl/AccessControlManager.sol:AccessControlManager",
            "label": "contractId",
            "offset": 0,
            "slot": "1",
            "type": "t_address"
          },
          {
            "astId": 1572,
            "contract": "src/contracts/acl/AccessControlManager.sol:AccessControlManager",
            "label": "isEnabled",
            "offset": 20,
            "slot": "1",
            "type": "t_bool"
          },
          {
            "astId": 1577,
            "contract": "src/contracts/acl/AccessControlManager.sol:AccessControlManager",
            "label": "resources",
            "offset": 0,
            "slot": "2",
            "type": "t_mapping(t_bytes4,t_struct(RoleStat)1566_storage)"
          },
          {
            "astId": 1580,
            "contract": "src/contracts/acl/AccessControlManager.sol:AccessControlManager",
            "label": "funcSet",
            "offset": 0,
            "slot": "3",
            "type": "t_struct(Bytes32Set)15511_storage"
          }
        ],
        "numberOfBytes": "160"
      },
      "t_struct(DataCollections)1637_storage": {
        "encoding": "inplace",
        "label": "struct AccessControlStorage.DataCollections",
        "members": [
          {
            "astId": 1616,
            "contract": "src/contracts/acl/AccessControlManager.sol:AccessControlManager",
            "label": "accountMap",
            "offset": 0,
            "slot": "0",
            "type": "t_mapping(t_address,t_mapping(t_bytes32,t_enum(Status)1560))"
          },
          {
            "astId": 1621,
            "contract": "src/contracts/acl/AccessControlManager.sol:AccessControlManager",
            "label": "ctxMap",
            "offset": 0,
            "slot": "1",
            "type": "t_mapping(t_bytes32,t_struct(Context)1581_storage)"
          },
          {
            "astId": 1626,
            "contract": "src/contracts/acl/AccessControlManager.sol:AccessControlManager",
            "label": "roleMap",
            "offset": 0,
            "slot": "2",
            "type": "t_mapping(t_bytes32,t_struct(Role)1591_storage)"
          },
          {
            "astId": 1631,
            "contract": "src/contracts/acl/AccessControlManager.sol:AccessControlManager",
            "label": "realmMap",
            "offset": 0,
            "slot": "3",
            "type": "t_mapping(t_bytes32,t_struct(Realm)1601_storage)"
          },
          {
            "astId": 1636,
            "contract": "src/contracts/acl/AccessControlManager.sol:AccessControlManager",
            "label": "groupMap",
            "offset": 0,
            "slot": "4",
            "type": "t_mapping(t_bytes32,t_struct(Group)1609_storage)"
          }
        ],
        "numberOfBytes": "160"
      },
      "t_struct(Group)1609_storage": {
        "encoding": "inplace",
        "label": "struct AccessControlStorage.Group",
        "members": [
          {
            "astId": 1603,
            "contract": "src/contracts/acl/AccessControlManager.sol:AccessControlManager",
            "label": "name",
            "offset": 0,
            "slot": "0",
            "type": "t_string_storage"
          },
          {
            "astId": 1605,
            "contract": "src/contracts/acl/AccessControlManager.sol:AccessControlManager",
            "label": "isEnabled",
            "offset": 0,
            "slot": "1",
            "type": "t_bool"
          },
          {
            "astId": 1608,
            "contract": "src/contracts/acl/AccessControlManager.sol:AccessControlManager",
            "label": "roleSet",
            "offset": 0,
            "slot": "2",
            "type": "t_struct(Bytes32Set)15511_storage"
          }
        ],
        "numberOfBytes": "128"
      },
      "t_struct(Realm)1601_storage": {
        "encoding": "inplace",
        "label": "struct AccessControlStorage.Realm",
        "members": [
          {
            "astId": 1593,
            "contract": "src/contracts/acl/AccessControlManager.sol:AccessControlManager",
            "label": "name",
            "offset": 0,
            "slot": "0",
            "type": "t_string_storage"
          },
          {
            "astId": 1595,
            "contract": "src/contracts/acl/AccessControlManager.sol:AccessControlManager",
            "label": "isEnabled",
            "offset": 0,
            "slot": "1",
            "type": "t_bool"
          },
          {
            "astId": 1597,
            "contract": "src/contracts/acl/AccessControlManager.sol:AccessControlManager",
            "label": "isUpgradable",
            "offset": 1,
            "slot": "1",
            "type": "t_bool"
          },
          {
            "astId": 1600,
            "contract": "src/contracts/acl/AccessControlManager.sol:AccessControlManager",
            "label": "ctxSet",
            "offset": 0,
            "slot": "2",
            "type": "t_struct(Bytes32Set)15511_storage"
          }
        ],
        "numberOfBytes": "128"
      },
      "t_struct(Role)1591_storage": {
        "encoding": "inplace",
        "label": "struct AccessControlStorage.Role",
        "members": [
          {
            "astId": 1583,
            "contract": "src/contracts/acl/AccessControlManager.sol:AccessControlManager",
            "label": "group",
            "offset": 0,
            "slot": "0",
            "type": "t_bytes32"
          },
          {
            "astId": 1585,
            "contract": "src/contracts/acl/AccessControlManager.sol:AccessControlManager",
            "label": "name",
            "offset": 0,
            "slot": "1",
            "type": "t_string_storage"
          },
          {
            "astId": 1587,
            "contract": "src/contracts/acl/AccessControlManager.sol:AccessControlManager",
            "label": "isEnabled",
            "offset": 0,
            "slot": "2",
            "type": "t_bool"
          },
          {
            "astId": 1590,
            "contract": "src/contracts/acl/AccessControlManager.sol:AccessControlManager",
            "label": "accountSet",
            "offset": 0,
            "slot": "3",
            "type": "t_struct(AddressSet)15618_storage"
          }
        ],
        "numberOfBytes": "160"
      },
      "t_struct(RoleStat)1566_storage": {
        "encoding": "inplace",
        "label": "struct AccessControlStorage.RoleStat",
        "members": [
          {
            "astId": 1562,
            "contract": "src/contracts/acl/AccessControlManager.sol:AccessControlManager",
            "label": "role",
            "offset": 0,
            "slot": "0",
            "type": "t_bytes32"
          },
          {
            "astId": 1565,
            "contract": "src/contracts/acl/AccessControlManager.sol:AccessControlManager",
            "label": "status",
            "offset": 0,
            "slot": "1",
            "type": "t_enum(Status)1560"
          }
        ],
        "numberOfBytes": "64"
      },
      "t_struct(Set)15317_storage": {
        "encoding": "inplace",
        "label": "struct LEnumerableSet.Set",
        "members": [
          {
            "astId": 15312,
            "contract": "src/contracts/acl/AccessControlManager.sol:AccessControlManager",
            "label": "_values",
            "offset": 0,
            "slot": "0",
            "type": "t_array(t_bytes32)dyn_storage"
          },
          {
            "astId": 15316,
            "contract": "src/contracts/acl/AccessControlManager.sol:AccessControlManager",
            "label": "_indexes",
            "offset": 0,
            "slot": "1",
            "type": "t_mapping(t_bytes32,t_uint256)"
          }
        ],
        "numberOfBytes": "64"
      },
      "t_uint16": {
        "encoding": "inplace",
        "label": "uint16",
        "numberOfBytes": "2"
      },
      "t_uint256": {
        "encoding": "inplace",
        "label": "uint256",
        "numberOfBytes": "32"
      }
    }
  },
  "userdoc": {
    "kind": "user",
    "methods": {},
    "version": 1
  }
}