{
  "contractName": "LivelyToken",
  "sourceName": "src/contracts/token/lively/LivelyToken.sol",
  "abi": [
    {
      "inputs": [],
      "stateMutability": "nonpayable",
      "type": "constructor"
    },
    {
      "anonymous": false,
      "inputs": [
        {
          "indexed": true,
          "internalType": "address",
          "name": "owner",
          "type": "address"
        },
        {
          "indexed": true,
          "internalType": "address",
          "name": "spender",
          "type": "address"
        },
        {
          "indexed": false,
          "internalType": "uint256",
          "name": "value",
          "type": "uint256"
        }
      ],
      "name": "Approval",
      "type": "event"
    },
    {
      "anonymous": false,
      "inputs": [
        {
          "indexed": true,
          "internalType": "address",
          "name": "owner",
          "type": "address"
        },
        {
          "indexed": true,
          "internalType": "address",
          "name": "spender",
          "type": "address"
        },
        {
          "indexed": false,
          "internalType": "uint256",
          "name": "amount",
          "type": "uint256"
        }
      ],
      "name": "ApprovalDecreased",
      "type": "event"
    },
    {
      "anonymous": false,
      "inputs": [
        {
          "indexed": true,
          "internalType": "address",
          "name": "owner",
          "type": "address"
        },
        {
          "indexed": true,
          "internalType": "address",
          "name": "spender",
          "type": "address"
        },
        {
          "indexed": false,
          "internalType": "uint256",
          "name": "amount",
          "type": "uint256"
        }
      ],
      "name": "ApprovalIncreased",
      "type": "event"
    },
    {
      "anonymous": false,
      "inputs": [
        {
          "indexed": true,
          "internalType": "address",
          "name": "sender",
          "type": "address"
        },
        {
          "indexed": false,
          "internalType": "uint256",
          "name": "totalAmount",
          "type": "uint256"
        }
      ],
      "name": "BatchTokenClaimed",
      "type": "event"
    },
    {
      "anonymous": false,
      "inputs": [
        {
          "indexed": true,
          "internalType": "address",
          "name": "sender",
          "type": "address"
        },
        {
          "indexed": false,
          "internalType": "uint256",
          "name": "totalAmount",
          "type": "uint256"
        }
      ],
      "name": "BatchTokenLocked",
      "type": "event"
    },
    {
      "anonymous": false,
      "inputs": [
        {
          "indexed": true,
          "internalType": "address",
          "name": "sender",
          "type": "address"
        },
        {
          "indexed": false,
          "internalType": "uint256",
          "name": "totalAmount",
          "type": "uint256"
        }
      ],
      "name": "BatchTokenUnlocked",
      "type": "event"
    },
    {
      "anonymous": false,
      "inputs": [
        {
          "indexed": true,
          "internalType": "address",
          "name": "sender",
          "type": "address"
        },
        {
          "indexed": false,
          "internalType": "uint256",
          "name": "totalAmount",
          "type": "uint256"
        }
      ],
      "name": "BatchTransfer",
      "type": "event"
    },
    {
      "anonymous": false,
      "inputs": [
        {
          "indexed": true,
          "internalType": "address",
          "name": "sender",
          "type": "address"
        },
        {
          "indexed": false,
          "internalType": "uint256",
          "name": "totalAmount",
          "type": "uint256"
        }
      ],
      "name": "BatchTransferFrom",
      "type": "event"
    },
    {
      "anonymous": false,
      "inputs": [
        {
          "indexed": true,
          "internalType": "address",
          "name": "sender",
          "type": "address"
        },
        {
          "indexed": true,
          "internalType": "address",
          "name": "account",
          "type": "address"
        },
        {
          "indexed": false,
          "internalType": "uint256",
          "name": "amount",
          "type": "uint256"
        },
        {
          "indexed": false,
          "internalType": "uint256",
          "name": "totalSupply",
          "type": "uint256"
        }
      ],
      "name": "Burn",
      "type": "event"
    },
    {
      "anonymous": false,
      "inputs": [
        {
          "indexed": true,
          "internalType": "address",
          "name": "sender",
          "type": "address"
        },
        {
          "indexed": true,
          "internalType": "address",
          "name": "proxy",
          "type": "address"
        },
        {
          "indexed": true,
          "internalType": "address",
          "name": "subject",
          "type": "address"
        },
        {
          "indexed": false,
          "internalType": "string",
          "name": "name",
          "type": "string"
        },
        {
          "indexed": false,
          "internalType": "string",
          "name": "version",
          "type": "string"
        },
        {
          "indexed": false,
          "internalType": "bytes32",
          "name": "realm",
          "type": "bytes32"
        },
        {
          "indexed": false,
          "internalType": "uint16",
          "name": "initCount",
          "type": "uint16"
        }
      ],
      "name": "Initialized",
      "type": "event"
    },
    {
      "anonymous": false,
      "inputs": [
        {
          "indexed": true,
          "internalType": "address",
          "name": "sender",
          "type": "address"
        },
        {
          "indexed": true,
          "internalType": "address",
          "name": "proxy",
          "type": "address"
        },
        {
          "indexed": false,
          "internalType": "address",
          "name": "newAdmin",
          "type": "address"
        }
      ],
      "name": "LocalAdminChanged",
      "type": "event"
    },
    {
      "anonymous": false,
      "inputs": [
        {
          "indexed": true,
          "internalType": "address",
          "name": "sender",
          "type": "address"
        },
        {
          "indexed": true,
          "internalType": "address",
          "name": "account",
          "type": "address"
        },
        {
          "indexed": false,
          "internalType": "uint256",
          "name": "amount",
          "type": "uint256"
        },
        {
          "indexed": false,
          "internalType": "uint256",
          "name": "totalSupply",
          "type": "uint256"
        }
      ],
      "name": "Mint",
      "type": "event"
    },
    {
      "anonymous": false,
      "inputs": [
        {
          "indexed": true,
          "internalType": "address",
          "name": "sender",
          "type": "address"
        },
        {
          "indexed": true,
          "internalType": "address",
          "name": "account",
          "type": "address"
        }
      ],
      "name": "Paused",
      "type": "event"
    },
    {
      "anonymous": false,
      "inputs": [
        {
          "indexed": true,
          "internalType": "address",
          "name": "sender",
          "type": "address"
        }
      ],
      "name": "PausedAll",
      "type": "event"
    },
    {
      "anonymous": false,
      "inputs": [
        {
          "indexed": true,
          "internalType": "address",
          "name": "sender",
          "type": "address"
        },
        {
          "indexed": true,
          "internalType": "address",
          "name": "proxy",
          "type": "address"
        },
        {
          "indexed": true,
          "internalType": "bytes32",
          "name": "realm",
          "type": "bytes32"
        },
        {
          "indexed": false,
          "internalType": "bool",
          "name": "status",
          "type": "bool"
        }
      ],
      "name": "SafeModeChanged",
      "type": "event"
    },
    {
      "anonymous": false,
      "inputs": [
        {
          "indexed": true,
          "internalType": "address",
          "name": "sender",
          "type": "address"
        },
        {
          "indexed": false,
          "internalType": "uint256",
          "name": "rate",
          "type": "uint256"
        }
      ],
      "name": "TaxRateUpdated",
      "type": "event"
    },
    {
      "anonymous": false,
      "inputs": [
        {
          "indexed": true,
          "internalType": "address",
          "name": "sender",
          "type": "address"
        },
        {
          "indexed": true,
          "internalType": "address",
          "name": "account",
          "type": "address"
        },
        {
          "indexed": false,
          "internalType": "bool",
          "name": "isDeleted",
          "type": "bool"
        }
      ],
      "name": "TaxWhitelistUpdated",
      "type": "event"
    },
    {
      "anonymous": false,
      "inputs": [
        {
          "indexed": true,
          "internalType": "bytes32",
          "name": "id",
          "type": "bytes32"
        },
        {
          "indexed": true,
          "internalType": "address",
          "name": "sender",
          "type": "address"
        },
        {
          "indexed": true,
          "internalType": "address",
          "name": "src",
          "type": "address"
        },
        {
          "indexed": false,
          "internalType": "uint256",
          "name": "amount",
          "type": "uint256"
        }
      ],
      "name": "TokenClaimed",
      "type": "event"
    },
    {
      "anonymous": false,
      "inputs": [
        {
          "indexed": true,
          "internalType": "bytes32",
          "name": "id",
          "type": "bytes32"
        },
        {
          "indexed": true,
          "internalType": "address",
          "name": "sender",
          "type": "address"
        },
        {
          "indexed": true,
          "internalType": "address",
          "name": "src",
          "type": "address"
        },
        {
          "indexed": false,
          "internalType": "address",
          "name": "account",
          "type": "address"
        },
        {
          "indexed": false,
          "internalType": "uint256",
          "name": "timestamp",
          "type": "uint256"
        },
        {
          "indexed": false,
          "internalType": "uint256",
          "name": "amount",
          "type": "uint256"
        }
      ],
      "name": "TokenLocked",
      "type": "event"
    },
    {
      "anonymous": false,
      "inputs": [
        {
          "indexed": true,
          "internalType": "bytes32",
          "name": "id",
          "type": "bytes32"
        },
        {
          "indexed": true,
          "internalType": "address",
          "name": "sender",
          "type": "address"
        },
        {
          "indexed": true,
          "internalType": "address",
          "name": "account",
          "type": "address"
        },
        {
          "indexed": false,
          "internalType": "address",
          "name": "dest",
          "type": "address"
        },
        {
          "indexed": false,
          "internalType": "uint256",
          "name": "amount",
          "type": "uint256"
        },
        {
          "indexed": false,
          "internalType": "string",
          "name": "reason",
          "type": "string"
        }
      ],
      "name": "TokenUnlocked",
      "type": "event"
    },
    {
      "anonymous": false,
      "inputs": [
        {
          "indexed": true,
          "internalType": "address",
          "name": "from",
          "type": "address"
        },
        {
          "indexed": true,
          "internalType": "address",
          "name": "to",
          "type": "address"
        },
        {
          "indexed": false,
          "internalType": "uint256",
          "name": "value",
          "type": "uint256"
        }
      ],
      "name": "Transfer",
      "type": "event"
    },
    {
      "anonymous": false,
      "inputs": [
        {
          "indexed": true,
          "internalType": "address",
          "name": "sender",
          "type": "address"
        },
        {
          "indexed": true,
          "internalType": "address",
          "name": "from",
          "type": "address"
        },
        {
          "indexed": true,
          "internalType": "address",
          "name": "to",
          "type": "address"
        },
        {
          "indexed": false,
          "internalType": "uint256",
          "name": "amount",
          "type": "uint256"
        }
      ],
      "name": "TransferFrom",
      "type": "event"
    },
    {
      "anonymous": false,
      "inputs": [
        {
          "indexed": true,
          "internalType": "address",
          "name": "sender",
          "type": "address"
        },
        {
          "indexed": true,
          "internalType": "address",
          "name": "account",
          "type": "address"
        }
      ],
      "name": "Unpaused",
      "type": "event"
    },
    {
      "anonymous": false,
      "inputs": [
        {
          "indexed": true,
          "internalType": "address",
          "name": "sender",
          "type": "address"
        }
      ],
      "name": "UnpausedAll",
      "type": "event"
    },
    {
      "anonymous": false,
      "inputs": [
        {
          "indexed": true,
          "internalType": "address",
          "name": "sender",
          "type": "address"
        },
        {
          "indexed": true,
          "internalType": "address",
          "name": "proxy",
          "type": "address"
        },
        {
          "indexed": true,
          "internalType": "bytes32",
          "name": "realm",
          "type": "bytes32"
        },
        {
          "indexed": false,
          "internalType": "bool",
          "name": "status",
          "type": "bool"
        }
      ],
      "name": "UpgradeStatusChanged",
      "type": "event"
    },
    {
      "anonymous": false,
      "inputs": [
        {
          "indexed": true,
          "internalType": "address",
          "name": "sender",
          "type": "address"
        },
        {
          "indexed": true,
          "internalType": "address",
          "name": "proxy",
          "type": "address"
        },
        {
          "indexed": true,
          "internalType": "address",
          "name": "newImplementation",
          "type": "address"
        }
      ],
      "name": "Upgraded",
      "type": "event"
    },
    {
      "stateMutability": "payable",
      "type": "fallback"
    },
    {
      "inputs": [],
      "name": "accessControlManager",
      "outputs": [
        {
          "internalType": "address",
          "name": "",
          "type": "address"
        }
      ],
      "stateMutability": "view",
      "type": "function"
    },
    {
      "inputs": [
        {
          "internalType": "address",
          "name": "owner",
          "type": "address"
        },
        {
          "internalType": "address",
          "name": "spender",
          "type": "address"
        }
      ],
      "name": "allowance",
      "outputs": [
        {
          "internalType": "uint256",
          "name": "",
          "type": "uint256"
        }
      ],
      "stateMutability": "view",
      "type": "function"
    },
    {
      "inputs": [
        {
          "internalType": "address",
          "name": "spender",
          "type": "address"
        },
        {
          "internalType": "uint256",
          "name": "amount",
          "type": "uint256"
        }
      ],
      "name": "approve",
      "outputs": [
        {
          "internalType": "bool",
          "name": "",
          "type": "bool"
        }
      ],
      "stateMutability": "nonpayable",
      "type": "function"
    },
    {
      "inputs": [
        {
          "internalType": "address",
          "name": "account",
          "type": "address"
        }
      ],
      "name": "balanceOf",
      "outputs": [
        {
          "internalType": "uint256",
          "name": "",
          "type": "uint256"
        }
      ],
      "stateMutability": "view",
      "type": "function"
    },
    {
      "inputs": [
        {
          "internalType": "bytes32[]",
          "name": "lockIds",
          "type": "bytes32[]"
        }
      ],
      "name": "batchClaimToken",
      "outputs": [
        {
          "internalType": "uint256",
          "name": "",
          "type": "uint256"
        }
      ],
      "stateMutability": "nonpayable",
      "type": "function"
    },
    {
      "inputs": [
        {
          "components": [
            {
              "internalType": "address",
              "name": "source",
              "type": "address"
            },
            {
              "internalType": "address",
              "name": "dest",
              "type": "address"
            },
            {
              "internalType": "uint256",
              "name": "timestamp",
              "type": "uint256"
            },
            {
              "internalType": "uint256",
              "name": "amount",
              "type": "uint256"
            }
          ],
          "internalType": "struct IERC20Lock.LockTokenRequest[]",
          "name": "lockRequest",
          "type": "tuple[]"
        }
      ],
      "name": "batchLockToken",
      "outputs": [
        {
          "internalType": "bytes32[]",
          "name": "",
          "type": "bytes32[]"
        }
      ],
      "stateMutability": "nonpayable",
      "type": "function"
    },
    {
      "inputs": [
        {
          "components": [
            {
              "internalType": "address",
              "name": "to",
              "type": "address"
            },
            {
              "internalType": "uint256",
              "name": "amount",
              "type": "uint256"
            }
          ],
          "internalType": "struct IERC20Extra.BatchTransferRequest[]",
          "name": "request",
          "type": "tuple[]"
        }
      ],
      "name": "batchTransfer",
      "outputs": [
        {
          "internalType": "bool",
          "name": "",
          "type": "bool"
        }
      ],
      "stateMutability": "nonpayable",
      "type": "function"
    },
    {
      "inputs": [
        {
          "components": [
            {
              "internalType": "address",
              "name": "from",
              "type": "address"
            },
            {
              "internalType": "address",
              "name": "to",
              "type": "address"
            },
            {
              "internalType": "uint256",
              "name": "amount",
              "type": "uint256"
            }
          ],
          "internalType": "struct IERC20Extra.BatchTransferFromRequest[]",
          "name": "request",
          "type": "tuple[]"
        }
      ],
      "name": "batchTransferFrom",
      "outputs": [
        {
          "internalType": "bool",
          "name": "",
          "type": "bool"
        }
      ],
      "stateMutability": "nonpayable",
      "type": "function"
    },
    {
      "inputs": [
        {
          "components": [
            {
              "internalType": "bytes32",
              "name": "lockId",
              "type": "bytes32"
            },
            {
              "internalType": "address",
              "name": "account",
              "type": "address"
            },
            {
              "internalType": "string",
              "name": "reason",
              "type": "string"
            }
          ],
          "internalType": "struct IERC20Lock.UnLockTokenRequest[]",
          "name": "unlockRequest",
          "type": "tuple[]"
        }
      ],
      "name": "batchUnlockToken",
      "outputs": [
        {
          "internalType": "uint256",
          "name": "",
          "type": "uint256"
        }
      ],
      "stateMutability": "nonpayable",
      "type": "function"
    },
    {
      "inputs": [
        {
          "components": [
            {
              "internalType": "address",
              "name": "account",
              "type": "address"
            },
            {
              "internalType": "bool",
              "name": "isDeleted",
              "type": "bool"
            }
          ],
          "internalType": "struct IERC20Extra.BatchUpdateTaxWhitelistRequest[]",
          "name": "request",
          "type": "tuple[]"
        }
      ],
      "name": "batchUpdateTaxWhitelist",
      "outputs": [],
      "stateMutability": "nonpayable",
      "type": "function"
    },
    {
      "inputs": [
        {
          "internalType": "address",
          "name": "account",
          "type": "address"
        },
        {
          "internalType": "uint256",
          "name": "amount",
          "type": "uint256"
        }
      ],
      "name": "burn",
      "outputs": [
        {
          "internalType": "uint256",
          "name": "",
          "type": "uint256"
        }
      ],
      "stateMutability": "nonpayable",
      "type": "function"
    },
    {
      "inputs": [
        {
          "internalType": "bytes32",
          "name": "lockId",
          "type": "bytes32"
        }
      ],
      "name": "claimToken",
      "outputs": [
        {
          "internalType": "uint256",
          "name": "",
          "type": "uint256"
        }
      ],
      "stateMutability": "nonpayable",
      "type": "function"
    },
    {
      "inputs": [],
      "name": "contractContext",
      "outputs": [
        {
          "internalType": "bytes32",
          "name": "",
          "type": "bytes32"
        }
      ],
      "stateMutability": "view",
      "type": "function"
    },
    {
      "inputs": [],
      "name": "contractName",
      "outputs": [
        {
          "internalType": "bytes32",
          "name": "",
          "type": "bytes32"
        }
      ],
      "stateMutability": "view",
      "type": "function"
    },
    {
      "inputs": [],
      "name": "contractRealm",
      "outputs": [
        {
          "internalType": "bytes32",
          "name": "",
          "type": "bytes32"
        }
      ],
      "stateMutability": "view",
      "type": "function"
    },
    {
      "inputs": [],
      "name": "contractVersion",
      "outputs": [
        {
          "internalType": "bytes32",
          "name": "",
          "type": "bytes32"
        }
      ],
      "stateMutability": "view",
      "type": "function"
    },
    {
      "inputs": [],
      "name": "decimals",
      "outputs": [
        {
          "internalType": "uint8",
          "name": "",
          "type": "uint8"
        }
      ],
      "stateMutability": "pure",
      "type": "function"
    },
    {
      "inputs": [
        {
          "internalType": "address",
          "name": "spender",
          "type": "address"
        },
        {
          "internalType": "uint256",
          "name": "amount",
          "type": "uint256"
        }
      ],
      "name": "decreaseAllowance",
      "outputs": [
        {
          "internalType": "uint256",
          "name": "",
          "type": "uint256"
        }
      ],
      "stateMutability": "nonpayable",
      "type": "function"
    },
    {
      "inputs": [],
      "name": "domainSeparator",
      "outputs": [
        {
          "internalType": "bytes32",
          "name": "",
          "type": "bytes32"
        }
      ],
      "stateMutability": "view",
      "type": "function"
    },
    {
      "inputs": [
        {
          "internalType": "address",
          "name": "spender",
          "type": "address"
        },
        {
          "internalType": "uint256",
          "name": "amount",
          "type": "uint256"
        }
      ],
      "name": "increaseAllowance",
      "outputs": [
        {
          "internalType": "uint256",
          "name": "",
          "type": "uint256"
        }
      ],
      "stateMutability": "nonpayable",
      "type": "function"
    },
    {
      "inputs": [],
      "name": "initStatus",
      "outputs": [
        {
          "internalType": "bool",
          "name": "",
          "type": "bool"
        }
      ],
      "stateMutability": "view",
      "type": "function"
    },
    {
      "inputs": [],
      "name": "initVersion",
      "outputs": [
        {
          "internalType": "uint16",
          "name": "",
          "type": "uint16"
        }
      ],
      "stateMutability": "view",
      "type": "function"
    },
    {
      "inputs": [
        {
          "components": [
            {
              "internalType": "string",
              "name": "domainName",
              "type": "string"
            },
            {
              "internalType": "string",
              "name": "domainVersion",
              "type": "string"
            },
            {
              "internalType": "string",
              "name": "domainRealm",
              "type": "string"
            },
            {
              "internalType": "bytes",
              "name": "signature",
              "type": "bytes"
            },
            {
              "internalType": "uint256",
              "name": "taxRateValue",
              "type": "uint256"
            },
            {
              "internalType": "address",
              "name": "accessControlManager",
              "type": "address"
            },
            {
              "internalType": "address",
              "name": "assetManager",
              "type": "address"
            }
          ],
          "internalType": "struct LivelyToken.InitRequest",
          "name": "request",
          "type": "tuple"
        }
      ],
      "name": "initialize",
      "outputs": [],
      "stateMutability": "nonpayable",
      "type": "function"
    },
    {
      "inputs": [
        {
          "internalType": "address",
          "name": "account",
          "type": "address"
        }
      ],
      "name": "isPaused",
      "outputs": [
        {
          "internalType": "bool",
          "name": "",
          "type": "bool"
        }
      ],
      "stateMutability": "view",
      "type": "function"
    },
    {
      "inputs": [],
      "name": "isPausedAll",
      "outputs": [
        {
          "internalType": "bool",
          "name": "",
          "type": "bool"
        }
      ],
      "stateMutability": "view",
      "type": "function"
    },
    {
      "inputs": [],
      "name": "isSafeMode",
      "outputs": [
        {
          "internalType": "bool",
          "name": "",
          "type": "bool"
        }
      ],
      "stateMutability": "view",
      "type": "function"
    },
    {
      "inputs": [],
      "name": "isUpgradable",
      "outputs": [
        {
          "internalType": "bool",
          "name": "",
          "type": "bool"
        }
      ],
      "stateMutability": "view",
      "type": "function"
    },
    {
      "inputs": [],
      "name": "localAdmin",
      "outputs": [
        {
          "internalType": "address",
          "name": "",
          "type": "address"
        }
      ],
      "stateMutability": "view",
      "type": "function"
    },
    {
      "inputs": [
        {
          "internalType": "address",
          "name": "account",
          "type": "address"
        }
      ],
      "name": "lockBalanceOf",
      "outputs": [
        {
          "internalType": "uint256",
          "name": "",
          "type": "uint256"
        }
      ],
      "stateMutability": "view",
      "type": "function"
    },
    {
      "inputs": [
        {
          "internalType": "bytes32",
          "name": "lockId",
          "type": "bytes32"
        },
        {
          "internalType": "address",
          "name": "account",
          "type": "address"
        }
      ],
      "name": "lockInfo",
      "outputs": [
        {
          "internalType": "uint256",
          "name": "",
          "type": "uint256"
        },
        {
          "internalType": "uint128",
          "name": "",
          "type": "uint128"
        },
        {
          "internalType": "uint128",
          "name": "",
          "type": "uint128"
        },
        {
          "internalType": "address",
          "name": "",
          "type": "address"
        },
        {
          "internalType": "uint8",
          "name": "",
          "type": "uint8"
        }
      ],
      "stateMutability": "view",
      "type": "function"
    },
    {
      "inputs": [
        {
          "components": [
            {
              "internalType": "address",
              "name": "source",
              "type": "address"
            },
            {
              "internalType": "address",
              "name": "dest",
              "type": "address"
            },
            {
              "internalType": "uint256",
              "name": "timestamp",
              "type": "uint256"
            },
            {
              "internalType": "uint256",
              "name": "amount",
              "type": "uint256"
            }
          ],
          "internalType": "struct IERC20Lock.LockTokenRequest",
          "name": "lockRequest",
          "type": "tuple"
        }
      ],
      "name": "lockToken",
      "outputs": [
        {
          "internalType": "bytes32",
          "name": "",
          "type": "bytes32"
        }
      ],
      "stateMutability": "nonpayable",
      "type": "function"
    },
    {
      "inputs": [
        {
          "internalType": "address",
          "name": "account",
          "type": "address"
        },
        {
          "internalType": "uint256",
          "name": "amount",
          "type": "uint256"
        }
      ],
      "name": "mint",
      "outputs": [
        {
          "internalType": "uint256",
          "name": "",
          "type": "uint256"
        }
      ],
      "stateMutability": "nonpayable",
      "type": "function"
    },
    {
      "inputs": [],
      "name": "name",
      "outputs": [
        {
          "internalType": "string",
          "name": "",
          "type": "string"
        }
      ],
      "stateMutability": "view",
      "type": "function"
    },
    {
      "inputs": [
        {
          "internalType": "address",
          "name": "owner",
          "type": "address"
        }
      ],
      "name": "nonce",
      "outputs": [
        {
          "internalType": "uint256",
          "name": "",
          "type": "uint256"
        }
      ],
      "stateMutability": "view",
      "type": "function"
    },
    {
      "inputs": [
        {
          "internalType": "address",
          "name": "account",
          "type": "address"
        }
      ],
      "name": "pause",
      "outputs": [],
      "stateMutability": "nonpayable",
      "type": "function"
    },
    {
      "inputs": [],
      "name": "pauseAll",
      "outputs": [],
      "stateMutability": "nonpayable",
      "type": "function"
    },
    {
      "inputs": [],
      "name": "pausedAccounts",
      "outputs": [
        {
          "internalType": "address[]",
          "name": "",
          "type": "address[]"
        }
      ],
      "stateMutability": "view",
      "type": "function"
    },
    {
      "inputs": [
        {
          "internalType": "address",
          "name": "owner",
          "type": "address"
        },
        {
          "internalType": "address",
          "name": "spender",
          "type": "address"
        },
        {
          "internalType": "uint256",
          "name": "value",
          "type": "uint256"
        },
        {
          "internalType": "uint256",
          "name": "deadline",
          "type": "uint256"
        },
        {
          "internalType": "bytes",
          "name": "signature",
          "type": "bytes"
        }
      ],
      "name": "permit",
      "outputs": [
        {
          "internalType": "bool",
          "name": "",
          "type": "bool"
        }
      ],
      "stateMutability": "nonpayable",
      "type": "function"
    },
    {
      "inputs": [],
      "name": "proxiableUUID",
      "outputs": [
        {
          "internalType": "bytes32",
          "name": "",
          "type": "bytes32"
        }
      ],
      "stateMutability": "view",
      "type": "function"
    },
    {
      "inputs": [
        {
          "internalType": "address",
          "name": "newLocalAdmin",
          "type": "address"
        }
      ],
      "name": "setLocalAdmin",
      "outputs": [
        {
          "internalType": "bool",
          "name": "",
          "type": "bool"
        }
      ],
      "stateMutability": "nonpayable",
      "type": "function"
    },
    {
      "inputs": [
        {
          "internalType": "bool",
          "name": "status",
          "type": "bool"
        }
      ],
      "name": "setSafeMode",
      "outputs": [
        {
          "internalType": "bool",
          "name": "",
          "type": "bool"
        }
      ],
      "stateMutability": "nonpayable",
      "type": "function"
    },
    {
      "inputs": [
        {
          "internalType": "bool",
          "name": "status",
          "type": "bool"
        }
      ],
      "name": "setUpgradeStatus",
      "outputs": [
        {
          "internalType": "bool",
          "name": "",
          "type": "bool"
        }
      ],
      "stateMutability": "nonpayable",
      "type": "function"
    },
    {
      "inputs": [],
      "name": "subjectAddress",
      "outputs": [
        {
          "internalType": "address",
          "name": "",
          "type": "address"
        }
      ],
      "stateMutability": "view",
      "type": "function"
    },
    {
      "inputs": [
        {
          "internalType": "bytes4",
          "name": "interfaceId",
          "type": "bytes4"
        }
      ],
      "name": "supportsInterface",
      "outputs": [
        {
          "internalType": "bool",
          "name": "",
          "type": "bool"
        }
      ],
      "stateMutability": "view",
      "type": "function"
    },
    {
      "inputs": [],
      "name": "symbol",
      "outputs": [
        {
          "internalType": "string",
          "name": "",
          "type": "string"
        }
      ],
      "stateMutability": "view",
      "type": "function"
    },
    {
      "inputs": [],
      "name": "taxRate",
      "outputs": [
        {
          "internalType": "uint256",
          "name": "",
          "type": "uint256"
        }
      ],
      "stateMutability": "view",
      "type": "function"
    },
    {
      "inputs": [],
      "name": "taxTreasury",
      "outputs": [
        {
          "internalType": "address",
          "name": "",
          "type": "address"
        }
      ],
      "stateMutability": "view",
      "type": "function"
    },
    {
      "inputs": [],
      "name": "taxWhitelist",
      "outputs": [
        {
          "internalType": "address[]",
          "name": "",
          "type": "address[]"
        }
      ],
      "stateMutability": "view",
      "type": "function"
    },
    {
      "inputs": [
        {
          "internalType": "address[7]",
          "name": "assets",
          "type": "address[7]"
        }
      ],
      "name": "tokensDistribution",
      "outputs": [
        {
          "internalType": "bool",
          "name": "",
          "type": "bool"
        }
      ],
      "stateMutability": "nonpayable",
      "type": "function"
    },
    {
      "inputs": [
        {
          "internalType": "address",
          "name": "account",
          "type": "address"
        }
      ],
      "name": "totalBalanceOf",
      "outputs": [
        {
          "internalType": "uint256",
          "name": "",
          "type": "uint256"
        }
      ],
      "stateMutability": "view",
      "type": "function"
    },
    {
      "inputs": [],
      "name": "totalSupply",
      "outputs": [
        {
          "internalType": "uint256",
          "name": "",
          "type": "uint256"
        }
      ],
      "stateMutability": "view",
      "type": "function"
    },
    {
      "inputs": [
        {
          "internalType": "address",
          "name": "recipient",
          "type": "address"
        },
        {
          "internalType": "uint256",
          "name": "amount",
          "type": "uint256"
        }
      ],
      "name": "transfer",
      "outputs": [
        {
          "internalType": "bool",
          "name": "",
          "type": "bool"
        }
      ],
      "stateMutability": "nonpayable",
      "type": "function"
    },
    {
      "inputs": [
        {
          "internalType": "address",
          "name": "source",
          "type": "address"
        },
        {
          "internalType": "address",
          "name": "recipient",
          "type": "address"
        },
        {
          "internalType": "uint256",
          "name": "amount",
          "type": "uint256"
        }
      ],
      "name": "transferFrom",
      "outputs": [
        {
          "internalType": "bool",
          "name": "",
          "type": "bool"
        }
      ],
      "stateMutability": "nonpayable",
      "type": "function"
    },
    {
      "inputs": [
        {
          "components": [
            {
              "internalType": "bytes32",
              "name": "lockId",
              "type": "bytes32"
            },
            {
              "internalType": "address",
              "name": "account",
              "type": "address"
            },
            {
              "internalType": "string",
              "name": "reason",
              "type": "string"
            }
          ],
          "internalType": "struct IERC20Lock.UnLockTokenRequest",
          "name": "unlockRequest",
          "type": "tuple"
        }
      ],
      "name": "unlockToken",
      "outputs": [
        {
          "internalType": "uint256",
          "name": "",
          "type": "uint256"
        }
      ],
      "stateMutability": "nonpayable",
      "type": "function"
    },
    {
      "inputs": [
        {
          "internalType": "address",
          "name": "account",
          "type": "address"
        }
      ],
      "name": "unpause",
      "outputs": [],
      "stateMutability": "nonpayable",
      "type": "function"
    },
    {
      "inputs": [],
      "name": "unpauseAll",
      "outputs": [],
      "stateMutability": "nonpayable",
      "type": "function"
    },
    {
      "inputs": [
        {
          "internalType": "uint256",
          "name": "rate",
          "type": "uint256"
        }
      ],
      "name": "updateTaxRate",
      "outputs": [
        {
          "internalType": "bool",
          "name": "",
          "type": "bool"
        }
      ],
      "stateMutability": "nonpayable",
      "type": "function"
    },
    {
      "inputs": [
        {
          "internalType": "address",
          "name": "account",
          "type": "address"
        },
        {
          "internalType": "bool",
          "name": "isDeleted",
          "type": "bool"
        }
      ],
      "name": "updateTaxWhitelist",
      "outputs": [
        {
          "internalType": "bool",
          "name": "",
          "type": "bool"
        }
      ],
      "stateMutability": "nonpayable",
      "type": "function"
    },
    {
      "inputs": [
        {
          "internalType": "address",
          "name": "newImplementation",
          "type": "address"
        },
        {
          "internalType": "bytes",
          "name": "data",
          "type": "bytes"
        },
        {
          "internalType": "bool",
          "name": "forceCall",
          "type": "bool"
        }
      ],
      "name": "upgradeTo",
      "outputs": [
        {
          "internalType": "bytes",
          "name": "",
          "type": "bytes"
        }
      ],
      "stateMutability": "nonpayable",
      "type": "function"
    },
    {
      "inputs": [
        {
          "internalType": "address",
          "name": "recepient",
          "type": "address"
        }
      ],
      "name": "withdrawBalance",
      "outputs": [],
      "stateMutability": "nonpayable",
      "type": "function"
    },
    {
      "stateMutability": "payable",
      "type": "receive"
    }
  ],
  "bytecode": "0x60a0604052306080523480156200001557600080fd5b506200004360017f360894a13ba1a3210667c828492db98dca3e2076cc3735a920a3ca505d382bbd6200011f565b7f360894a13ba1a3210667c828492db98dca3e2076cc3735a920a3ca505d382bbc1462000074576200007462000147565b620000a160017fb53127684a568b3173ae13b9f8a6016e243e63b6e8ee1178d6a717850b5d61046200011f565b60008051602062005fa483398151915214620000c157620000c162000147565b33620000ea60008051602062005fa483398151915260001b6200011c60201b6200314b1760201c565b80546001600160a01b0319166001600160a01b03929092169190911790556004805461ffff191660011790556200015d565b90565b818103818111156200014157634e487b7160e01b600052601160045260246000fd5b92915050565b634e487b7160e01b600052600160045260246000fd5b608051615de5620001bf60003960008181610f9801528181610fd80152818161116c015281816111ac0152818161136001528181611589015281816115c901528181612aaf01528181612aef01528181612c3f0152612c7f0152615de56000f3fe60806040526004361061036b5760003560e01c806376a67a51116101c4578063a457c2d7116100f6578063d9dc1f191161009a578063f698da251161006c578063f698da2514610a9d578063f94a0adb14610ab2578063faa552a814610ac7578063fdb92ec414610ae757005b8063d9dc1f1914610a28578063dd62ed3e14610a48578063de843a9414610a68578063e3d069a414610a7d57005b8063b4a0bdf3116100d3578063b4a0bdf3146109bd578063be22465d146109db578063c082a123146109f3578063d3e024b814610a1357005b8063a457c2d71461095d578063a5bfa9a91461097d578063a9059cbb1461099d57005b80638bfc07ed116101685780639dc29fac1161013a5780639dc29fac146108e95780639fd5a6cf14610909578063a0a8e46014610929578063a0e6adf11461093e57005b80638bfc07ed1461082757806395d89b41146108875780639a7e18731461089c5780639b5f356e146108c957005b80637d35f355116101a15780637d35f355146107bf578063870666cb146107df5780638a2ddd03146107f45780638a92ab151461080957005b806376a67a5114610768578063771a3a1d146107885780637bf60ff41461079d57005b806348e6be1c1161029d5780635b14f1831161024157806370ae92d21161021357806370ae92d2146106f35780637147855d14610713578063756af45f1461073357806375d0c0dc1461075357005b80635b14f1831461065f57806360fefdec1461067f5780636b8394921461069d57806370a08231146106bd57005b80635479d9401161027a5780635479d940146105e057806357b001f9146105fd57806358dbc45d1461061d578063595c6a671461064a57005b806348e6be1c1461058b5780634b0ee02a146105ab57806352d1902d146105cb57005b80631c6928e81161030f57806339509351116102e1578063395093511461050b57806340c10f191461052b57806344b7e5f21461054b57806346a634d41461056b57005b80631c6928e81461048757806323b872dd146104a7578063313ce567146104c757806338d38c97146104e357005b806310e776ed1161034857806310e776ed146103eb5780631455a1c81461043257806317fdcc8e1461045257806318160ddd1461047257005b806301ffc9a71461037457806306fdde03146103a9578063095ea7b3146103cb57005b3661037257005b005b34801561038057600080fd5b5061039461038f366004614d97565b610b07565b60405190151581526020015b60405180910390f35b3480156103b557600080fd5b506103be610b82565b6040516103a09190614e04565b3480156103d757600080fd5b506103946103e6366004614e2c565b610c14565b3480156103f757600080fd5b50610424610406366004614e58565b6001600160a01b03166000908152604a602052604090206001015490565b6040519081526020016103a0565b34801561043e57600080fd5b5061042461044d366004614eb9565b610c3f565b34801561045e57600080fd5b5061039461046d366004614efa565b610cdb565b34801561047e57600080fd5b50604754610424565b34801561049357600080fd5b506103946104a2366004614f13565b610d32565b3480156104b357600080fd5b506103946104c2366004614f87565b610ea0565b3480156104d357600080fd5b50604051601281526020016103a0565b3480156104ef57600080fd5b506104f8610ecb565b60405161ffff90911681526020016103a0565b34801561051757600080fd5b50610424610526366004614e2c565b610edf565b34801561053757600080fd5b50610424610546366004614e2c565b610f6c565b34801561055757600080fd5b50610394610566366004614fe1565b610f8c565b34801561057757600080fd5b50610394610586366004614ffe565b611141565b34801561059757600080fd5b506103946105a6366004614fe1565b611160565b3480156105b757600080fd5b506104246105c6366004614e58565b611329565b3480156105d757600080fd5b50610424611353565b3480156105ec57600080fd5b50600454610100900460ff16610394565b34801561060957600080fd5b50610372610618366004614e58565b6113e0565b34801561062957600080fd5b506106326114aa565b6040516001600160a01b0390911681526020016103a0565b34801561065657600080fd5b506103726114b4565b34801561066b57600080fd5b5061039461067a366004614e58565b611519565b34801561068b57600080fd5b5060515462010000900460ff16610394565b3480156106a957600080fd5b506104246106b8366004615037565b611539565b3480156106c957600080fd5b506104246106d8366004614e58565b6001600160a01b03166000908152604a602052604090205490565b3480156106ff57600080fd5b5061042461070e366004614e58565b61155c565b34801561071f57600080fd5b506103be61072e3660046150b7565b61157d565b34801561073f57600080fd5b5061037261074e366004614e58565b6116a5565b34801561075f57600080fd5b50600154610424565b34801561077457600080fd5b50610372610783366004614e58565b61175d565b34801561079457600080fd5b50604854610424565b3480156107a957600080fd5b506107b261182d565b6040516103a0919061516e565b3480156107cb57600080fd5b506103726107da3660046151ff565b611839565b3480156107eb57600080fd5b506104246118ca565b34801561080057600080fd5b506103726118d5565b34801561081557600080fd5b506049546001600160a01b0316610632565b34801561083357600080fd5b50610847610842366004615234565b611923565b604080519586526001600160801b03948516602087015292909316918401919091526001600160a01b0316606083015260ff16608082015260a0016103a0565b34801561089357600080fd5b506103be6119a8565b3480156108a857600080fd5b506108bc6108b7366004615259565b6119b7565b6040516103a091906152bb565b3480156108d557600080fd5b506104246108e4366004614eb9565b611b1f565b3480156108f557600080fd5b50610424610904366004614e2c565b611c13565b34801561091557600080fd5b506103946109243660046152f3565b611d41565b34801561093557600080fd5b50600254610424565b34801561094a57600080fd5b50604954600160a01b900460ff16610394565b34801561096957600080fd5b50610424610978366004614e2c565b611f36565b34801561098957600080fd5b50610424610998366004614efa565b611fb4565b3480156109a957600080fd5b506103946109b8366004614e2c565b611fd0565b3480156109c957600080fd5b506000546001600160a01b0316610632565b3480156109e757600080fd5b5060045460ff16610394565b3480156109ff57600080fd5b50610394610a0e36600461539c565b61201f565b348015610a1f57600080fd5b50600354610424565b348015610a3457600080fd5b50610394610a43366004614e58565b612aa3565b348015610a5457600080fd5b50610424610a633660046153be565b612c1d565b348015610a7457600080fd5b506107b2612c29565b348015610a8957600080fd5b50610372610a983660046153ec565b612c35565b348015610aa957600080fd5b50610424613037565b348015610abe57600080fd5b50610632613041565b348015610ad357600080fd5b50610394610ae23660046151ff565b61304b565b348015610af357600080fd5b50610424610b02366004615426565b613125565b60006001600160e01b03198216634a17459160e11b1480610b3857506001600160e01b0319821663e3a31a9d60e01b145b80610b5357506001600160e01b03198216636b88d51560e11b145b80610b6d57506001600160e01b03198216627b720760e91b145b80610b7c5750610b7c8261314e565b92915050565b606060458054610b9190615460565b80601f0160208091040260200160405190810160405280929190818152602001828054610bbd90615460565b8015610c0a5780601f10610bdf57610100808354040283529160200191610c0a565b820191906000526020600020905b815481529060010190602001808311610bed57829003601f168201915b5050505050905090565b6000610c2b63095ea7b360e01b335b60018061319e565b610c3633848461329c565b50600192915050565b6000610c5263028ab43960e31b33610c23565b6000805b83811015610c9d57610c7f858583818110610c7357610c73615494565b905060200201356133a2565b610c8990836154c0565b915080610c95816154d3565b915050610c56565b5060405181815233907ff816ce3b3a52bd5c96a6ac9d4404d206f4e9d482ffa303afbf0dbeea2957f59a906020015b60405180910390a29392505050565b6000610cf0630bfee64760e11b82808061319e565b604882905560405182815233907fb7902185ac0a79231c8be85f0ee0d94806d95d785d216824a078279f5d5bfbae9060200160405180910390a2506001919050565b6000610d4863038d251d60e31b8260018161319e565b6000805b83811015610e5f57610d87858583818110610d6957610d69615494565b610d7f9260206060909202019081019150614e58565b604d90613489565b15610dad5760405162461bcd60e51b8152600401610da4906154ec565b60405180910390fd5b848482818110610dbf57610dbf615494565b9050606002016040013582610dd491906154c0565b9150610e4c858583818110610deb57610deb615494565b610e019260206060909202019081019150614e58565b868684818110610e1357610e13615494565b9050606002016020016020810190610e2b9190614e58565b878785818110610e3d57610e3d615494565b905060600201604001356134ab565b5080610e57816154d3565b915050610d4c565b5060405181815233907f208fdf04989d654cc491d69be8eb64992c7b7407e34a6ac73e7c0361d0591eff906020015b60405180910390a25060019392505050565b6000610eb66323b872dd60e01b8560018061319e565b610ec18484846134ab565b90505b9392505050565b6000610eda60515461ffff1690565b905090565b6000610ef2633950935160e01b33610c23565b33600083610f008387613554565b610f0a91906154c0565b9050610f1782868361329c565b846001600160a01b0316826001600160a01b03167f865ea570c20f0fe0ae579ec567fa79d57a683390554593dc070ea0dcd5f466fb86604051610f5c91815260200190565b60405180910390a3949350505050565b6000610f826340c10f1960e01b8460018061319e565b610ec4838361357f565b60006001600160a01b037f0000000000000000000000000000000000000000000000000000000000000000163003610fd65760405162461bcd60e51b8152600401610da490615523565b7f00000000000000000000000000000000000000000000000000000000000000006001600160a01b031661100861363f565b6001600160a01b03161461102e5760405162461bcd60e51b8152600401610da490615552565b600061103d60515461ffff1690565b61ffff161161108e5760405162461bcd60e51b815260206004820152601860248201527f436f6e7472616374204e6f7420496e697469616c697a656400000000000000006044820152606401610da4565b61109e63225bf2f960e11b613660565b6110e25760405162461bcd60e51b815260206004820152601560248201527429b2ba29b0b332a6b7b232902337b93134b23232b760591b6044820152606401610da4565b6004805460ff191683151517905560035430336001600160a01b03167fdd452a31d2e164a1ea436c084842c27d24ae2548a575a869f71b05a4ed16243f85604051611131911515815260200190565b60405180910390a450805b919050565b60006111566311a98d3560e21b82808061319e565b610ec483836137c7565b60006001600160a01b037f00000000000000000000000000000000000000000000000000000000000000001630036111aa5760405162461bcd60e51b8152600401610da490615523565b7f00000000000000000000000000000000000000000000000000000000000000006001600160a01b03166111dc61363f565b6001600160a01b0316146112025760405162461bcd60e51b8152600401610da490615552565b60045460ff16156112255760405162461bcd60e51b8152600401610da490615580565b611235631239af8760e21b613660565b6112815760405162461bcd60e51b815260206004820152601a60248201527f5365745570677261646553746174757320466f7262696464656e0000000000006044820152606401610da4565b6112896138a3565b6112d55760405162461bcd60e51b815260206004820152601760248201527f5265616c6d205570677261646520466f7262696464656e0000000000000000006044820152606401610da4565b6004805461ff0019166101008415150217905560035430336001600160a01b03167fe9f97ad94c2ba252dcfc525e004f608ac5cb886955d8fc87d9e0ee070a698c5685604051611131911515815260200190565b6001600160a01b0381166000908152604a602052604081208054600190910154610b7c91906154c0565b6000306001600160a01b037f000000000000000000000000000000000000000000000000000000000000000016146113cd5760405162461bcd60e51b815260206004820152601d60248201527f496c6c6567616c20436f6e74726163742044656c656761746563616c6c0000006044820152606401610da4565b50600080516020615d9083398151915290565b6113f46357b001f960e01b6000808061319e565b6001600160a01b03811661141a5760405162461bcd60e51b8152600401610da4906155b7565b611425604d82613489565b6114655760405162461bcd60e51b81526020600482015260116024820152701058d8dbdd5b9d08139bdd08119bdd5b99607a1b6044820152606401610da4565b611470604d826139df565b506040516001600160a01b0382169033907f3d072963433794eb417a69355df67d08bbd73d5076ef653d6863861161d60af390600090a350565b6000610eda61363f565b6114c863595c6a6760e01b6000808061319e565b6049805460ff60a01b1916600160a01b1790556114e23390565b6001600160a01b03167ff1005168aea1429fe9559d51ef6caa33e6426890864e2e6e41e5d54baa7be79f60405160405180910390a2565b60006001600160a01b03821615801590610b7c5750610b7c604d83613489565b60006115536335c1ca4960e11b610c236020850185614e58565b610b7c826139f4565b6001600160a01b0381166000908152604a6020526040812060020154610b7c565b60606001600160a01b037f00000000000000000000000000000000000000000000000000000000000000001630036115c75760405162461bcd60e51b8152600401610da490615523565b7f00000000000000000000000000000000000000000000000000000000000000006001600160a01b03166115f961363f565b6001600160a01b03161461161f5760405162461bcd60e51b8152600401610da490615552565b60045460ff16156116425760405162461bcd60e51b8152600401610da490615580565b600454610100900460ff166116915760405162461bcd60e51b8152602060048201526015602482015274155c19dc9859194810d85b1b0814995a9958dd1959605a1b6044820152606401610da4565b61169a84613aea565b610ec1848484613bb1565b60045460ff16156116c85760405162461bcd60e51b8152600401610da490615580565b6116d863756af45f60e01b613660565b6117245760405162461bcd60e51b815260206004820152601a60248201527f57697468647261772042616c616e636520466f7262696464656e0000000000006044820152606401610da4565b6040516001600160a01b038216904780156108fc02916000818181858888f19350505050158015611759573d6000803e3d6000fd5b5050565b6117716376a67a5160e01b6000808061319e565b6001600160a01b0381166117975760405162461bcd60e51b8152600401610da4906155b7565b6117a2604d82613489565b156117e85760405162461bcd60e51b81526020600482015260166024820152751058d8dbdd5b9d08105b1c9958591e4814185d5cd95960521b6044820152606401610da4565b6117f3604d82613e02565b506040516001600160a01b0382169033907f3dd4f37ca5eaf6c357698a52c806820426d7c9a26adb0991c3bebb09cf23352a90600090a350565b6060610eda604f613e17565b61184d637d35f35560e01b6000808061319e565b60005b818110156118c5576118b283838381811061186d5761186d615494565b6118839260206040909202019081019150614e58565b84848481811061189557611895615494565b90506040020160200160208101906118ad9190614fe1565b6137c7565b50806118bd816154d3565b915050611850565b505050565b6000610eda30613e24565b6118e9638a2ddd0360e01b6000808061319e565b6049805460ff60a01b1916905560405133907f3c1fb1fd79ee84e55a8fe78554c432ef36ea033a9245ce4b650bd824a12554d390600090a2565b6001600160a01b038181166000908152604c60209081526040808320868452909152812080546001820154600283015493948594859485948594919390926001600160801b0380841693600160801b90041691811690600160a01b900460ff166003811115611994576119946155ee565b939c929b5090995097509095509350505050565b606060468054610b9190615460565b60606119ce639a7e187360e01b600060018161319e565b600080836001600160401b038111156119e9576119e9615049565b604051908082528060200260200182016040528015611a12578160200160208202803683370190505b50905060005b84811015611ae157611a4b868683818110611a3557611a35615494565b610d7f9260206080909202019081019150614e58565b15611a685760405162461bcd60e51b8152600401610da4906154ec565b611a88868683818110611a7d57611a7d615494565b9050608002016139f4565b828281518110611a9a57611a9a615494565b602002602001018181525050858582818110611ab857611ab8615494565b9050608002016060013583611acd91906154c0565b925080611ad9816154d3565b915050611a18565b5060405182815233907f8e04d4df873aa900cbe3c4b51af80c003e2a72b8dfd36a6a2e54fdadbf4d11279060200160405180910390a2949350505050565b6000611b35634daf9ab760e11b8260018161319e565b6000805b83811015611be057611b79858583818110611b5657611b56615494565b9050602002810190611b689190615604565b610d7f906040810190602001614e58565b15611b965760405162461bcd60e51b8152600401610da4906154ec565b611bc2858583818110611bab57611bab615494565b9050602002810190611bbd9190615604565b613e63565b611bcc90836154c0565b915080611bd8816154d3565b915050611b39565b5060405181815233907f358ca32fb65dbe46a9aec67304b927cf0c3eaf896217f853f9a93fef2e92072390602001610ccc565b6000611c29632770a7eb60e21b8460018061319e565b6001600160a01b038316611c4f5760405162461bcd60e51b8152600401610da4906155b7565b6001600160a01b0383166000908152604a602052604090205482811015611cb85760405162461bcd60e51b815260206004820152601c60248201527f496e73756666696369656e74204163636f756e742042616c616e6365000000006044820152606401610da4565b6001600160a01b0384166000908152604a60205260408120848303905560478054859290611ce7908490615624565b90915550506047546040805185815260208101929092526001600160a01b0386169133917f5d624aa9c148153ab3446c1b154f660ee7701e549fe9b62dab7171b1c80e6fa2910160405180910390a3505060475492915050565b6000611d57639fd5a6cf60e01b8860018061319e565b83421115611da75760405162461bcd60e51b815260206004820152601760248201527f5065726d697420446561646c696e6520457870697265640000000000000000006044820152606401610da4565b60007f6e71edae12b1b97f4d1f60370fef10105fa2faae0126114a169c64845d6126c9888888611dd68c613f52565b6040805160208101969096526001600160a01b0394851690860152929091166060840152608083015260a082015260c0810186905260e0016040516020818303038152906040528051906020012090506000611e74611e33613f7b565b8360405161190160f01b6020820152602281018390526042810182905260009060620160405160208183030381529060405280519060200120905092915050565b90506000611eb88287878080601f016020809104026020016040519081016040528093929190818152602001838380828437600092019190915250613fe492505050565b9050896001600160a01b0316816001600160a01b031614611f1b5760405162461bcd60e51b815260206004820152601860248201527f496c6c6567616c20454344415341205369676e617475726500000000000000006044820152606401610da4565b611f268a8a8a61329c565b5060019998505050505050505050565b6000611f4963a457c2d760e01b33610c23565b33611f55818585614008565b836001600160a01b0316816001600160a01b03167f2d6189480d1bb13da7c0ed0063fe94af3c19eed814940db43733c4198d00a74285604051611f9a91815260200190565b60405180910390a3611fac8185613554565b949350505050565b6000611fc763a5bfa9a960e01b33610c23565b610b7c826133a2565b6000611fe363a9059cbb60e01b33610c23565b6000604854118015611fff5750611ffd335b604f90613489565b155b156120145761200f338484614079565b610c36565b610c36338484614100565b60045460009060ff16156120455760405162461bcd60e51b8152600401610da490615580565b63c082a12360e01b61205681613660565b6120925760405162461bcd60e51b815260206004820152600d60248201526c1058d8d95cdcc811195b9a5959609a1b6044820152606401610da4565b604954600160a81b900460ff16156120ec5760405162461bcd60e51b815260206004820152601960248201527f546f6b656e20416c7265616479204469737472696275746564000000000000006044820152606401610da4565b60005b6007811015612a7a5783816007811061210a5761210a615494565b60200201602081019061211d9190614e58565b6040516301ffc9a760e01b8152638530fd6360e01b60048201526001600160a01b0391909116906301ffc9a790602401602060405180830381865afa925050508015612186575060408051601f3d908101601f1916820190925261218391810190615642565b60015b6121d25760405162461bcd60e51b815260206004820152601c60248201527f496c6c6567616c20494173736574456e746974792041646472657373000000006044820152606401610da4565b8061221f5760405162461bcd60e51b815260206004820152601c60248201527f496e76616c696420494173736574456e746974792041646472657373000000006044820152606401610da4565b50600184826007811061223457612234615494565b6020020160208101906122479190614e58565b6001600160a01b0316633fe3347a6040518163ffffffff1660e01b8152600401602060405180830381865afa158015612284573d6000803e3d6000fd5b505050506040513d601f19601f820116820180604052508101906122a8919061565f565b60038111156122b9576122b96155ee565b146122fb5760405162461bcd60e51b8152602060048201526012602482015271496e76616c6964204173736574205479706560701b6044820152606401610da4565b3084826007811061230e5761230e615494565b6020020160208101906123219190614e58565b6001600160a01b0316631083f7616040518163ffffffff1660e01b8152600401602060405180830381865afa15801561235e573d6000803e3d6000fd5b505050506040513d601f19601f820116820180604052508101906123829190615680565b6001600160a01b0316146123ce5760405162461bcd60e51b815260206004820152601360248201527224b73b30b634b21020b9b9b2ba102a37b5b2b760691b6044820152606401610da4565b8381600781106123e0576123e0615494565b6020020160208101906123f39190614e58565b6001600160a01b031663c9230c5d6040518163ffffffff1660e01b8152600401602060405180830381865afa158015612430573d6000803e3d6000fd5b505050506040513d601f19601f82011682018060405250810190612454919061569d565b7f4c4956454c595f415544494f5f564944454f5f50524f4752414d5f4153534554036124ba576124b53385836007811061249057612490615494565b6020020160208101906124a39190614e58565b6b019d971e4fe8401e74000000614100565b612a68565b8381600781106124cc576124cc615494565b6020020160208101906124df9190614e58565b6001600160a01b031663c9230c5d6040518163ffffffff1660e01b8152600401602060405180830381865afa15801561251c573d6000803e3d6000fd5b505050506040513d601f19601f82011682018060405250810190612540919061569d565b7f4c4956454c595f464f554e44494e475f5445414d5f4153534554000000000000036125a1576124b53385836007811061257c5761257c615494565b60200201602081019061258f9190614e58565b6b02e87669c308736a04000000614100565b8381600781106125b3576125b3615494565b6020020160208101906125c69190614e58565b6001600160a01b031663c9230c5d6040518163ffffffff1660e01b8152600401602060405180830381865afa158015612603573d6000803e3d6000fd5b505050506040513d601f19601f82011682018060405250810190612627919061569d565b7413125591531657d514915054d5549657d054d4d155605a1b03612680576124b53385836007811061265b5761265b615494565b60200201602081019061266e9190614e58565b6b026c62ad77dc602dae000000614100565b83816007811061269257612692615494565b6020020160208101906126a59190614e58565b6001600160a01b031663c9230c5d6040518163ffffffff1660e01b8152600401602060405180830381865afa1580156126e2573d6000803e3d6000fd5b505050506040513d601f19601f82011682018060405250810190612706919061569d565b7f4c4956454c595f5055424c49435f53414c455f4153534554000000000000000003612767576124b53385836007811061274257612742615494565b6020020160208101906127559190614e58565b6b06765c793fa10079d0000000614100565b83816007811061277957612779615494565b60200201602081019061278c9190614e58565b6001600160a01b031663c9230c5d6040518163ffffffff1660e01b8152600401602060405180830381865afa1580156127c9573d6000803e3d6000fd5b505050506040513d601f19601f820116820180604052508101906127ed919061569d565b7f4c4956454c595f56414c494441544f52535f524557415244535f4153534554000361284d576124b53385836007811061282957612829615494565b60200201602081019061283c9190614e58565b6af8277896582678ac000000614100565b83816007811061285f5761285f615494565b6020020160208101906128729190614e58565b6001600160a01b031663c9230c5d6040518163ffffffff1660e01b8152600401602060405180830381865afa1580156128af573d6000803e3d6000fd5b505050506040513d601f19601f820116820180604052508101906128d3919061569d565b7f4c4956454c595f43524f57445f464f554e44494e475f4153534554000000000003612934576124b53385836007811061290f5761290f615494565b6020020160208101906129229190614e58565b6b01c6f307be4c4687e6000000614100565b83816007811061294657612946615494565b6020020160208101906129599190614e58565b6001600160a01b031663c9230c5d6040518163ffffffff1660e01b8152600401602060405180830381865afa158015612996573d6000803e3d6000fd5b505050506040513d601f19601f820116820180604052508101906129ba919061569d565b7f4c4956454c595f5441585f54524541535552595f41535345540000000000000003612a2a578381600781106129f2576129f2615494565b602002016020810190612a059190614e58565b604980546001600160a01b0319166001600160a01b0392909216919091179055612a68565b60405162461bcd60e51b8152602060048201526013602482015272105cdcd95d08139bdd0814dd5c1c1bdc9d1959606a1b6044820152606401610da4565b80612a72816154d3565b9150506120ef565b506049805460ff60a81b1916600160a81b1790556004805460ff19169055600191505b50919050565b60006001600160a01b037f0000000000000000000000000000000000000000000000000000000000000000163003612aed5760405162461bcd60e51b8152600401610da490615523565b7f00000000000000000000000000000000000000000000000000000000000000006001600160a01b0316612b1f61363f565b6001600160a01b031614612b455760405162461bcd60e51b8152600401610da490615552565b60045460ff1615612b685760405162461bcd60e51b8152600401610da490615580565b612b7863d9dc1f1960e01b613660565b612bc45760405162461bcd60e51b815260206004820152601760248201527f5365744c6f63616c41646d696e20466f7262696464656e0000000000000000006044820152606401610da4565b6001600160a01b038216612c0c5760405162461bcd60e51b815260206004820152600f60248201526e1059191c995cdcc8125b9d985b1a59608a1b6044820152606401610da4565b612c15826141c6565b506001919050565b6000610ec48383613554565b6060610eda604d613e17565b6001600160a01b037f0000000000000000000000000000000000000000000000000000000000000000163003612c7d5760405162461bcd60e51b8152600401610da490615523565b7f00000000000000000000000000000000000000000000000000000000000000006001600160a01b0316612caf61363f565b6001600160a01b031614612cd55760405162461bcd60e51b8152600401610da490615552565b33612cde61423d565b6001600160a01b031614612d2c5760405162461bcd60e51b815260206004820152601560248201527410d85b1b195c88139bdd08105d5d1a1bdc9a5e9959605a1b6044820152606401610da4565b60515462010000900460ff1615808015612d4e5750605154600161ffff909116105b80612d695750303b158015612d69575060515461ffff166001145b612db55760405162461bcd60e51b815260206004820152601c60248201527f436f6e747261637420416c726561647920496e697469616c697a6564000000006044820152606401610da4565b6051805461ffff191660011790558015612ddb576051805462ff00001916620100001790555b6000612dea60408401846156b6565b604051602001612dfb9291906156fc565b60408051601f1981840301815291905280516020909101209050612e45612e2284806156b6565b612e2f60208701876156b6565b85612e4060c08a0160a08b01614e58565b614265565b6040805180820190915260068152654c4956454c5960d01b6020820152604590612e6f9082615752565b5060408051808201909152600381526213159360ea1b6020820152604690612e979082615752565b5060808301356048556049805460ff60a81b191690556004805460ff19166001179055612eca60e0840160c08501614e58565b6040516301ffc9a760e01b815263efe1341760e01b60048201526001600160a01b0391909116906301ffc9a790602401602060405180830381865afa925050508015612f33575060408051601f3d908101601f19168201909252612f3091810190615642565b60015b612f7f5760405162461bcd60e51b815260206004820152601a60248201527f496c6c6567616c204941737365744d616e6167657245524332300000000000006044820152606401610da4565b80612fcc5760405162461bcd60e51b815260206004820152601a60248201527f496e76616c6964204941737365744d616e6167657245524332300000000000006044820152606401610da4565b50612ff2612fe060e0850160c08601614e58565b6b1027e72f1f1281308800000061357f565b5061302061300084806156b6565b61300d60208701876156b6565b8561301b60608a018a6156b6565b61427b565b508015611759576051805462ff0000191690555050565b6000610eda613f7b565b6000610eda61423d565b600061305e631f54aa5560e31b33610c23565b6000805b838110156130f25784848281811061307c5761307c615494565b905060400201602001358261309191906154c0565b91506130e0338686848181106130a9576130a9615494565b6130bf9260206040909202019081019150614e58565b8787858181106130d1576130d1615494565b90506040020160200135614100565b806130ea816154d3565b915050613062565b5060405181815233907f6f8b319642e67cd1f14d773b5289e2e9bc1afce60945a4705b94c4c2ce0d347e90602001610e8e565b6000613142633f6e4bb160e21b610c236040850160208601614e58565b610b7c82613e63565b90565b60006001600160e01b0319821663748be05360e01b148061317f57506001600160e01b031982166352d1902d60e01b145b80610b7c57506301ffc9a760e01b6001600160e01b0319831614610b7c565b60045460ff16156131c15760405162461bcd60e51b8152600401610da490615580565b836131cb81613660565b6132075760405162461bcd60e51b815260206004820152600d60248201526c1058d8d95cdcc811195b9a5959609a1b6044820152606401610da4565b821561326757604954600160a01b900460ff16156132675760405162461bcd60e51b815260206004820152601960248201527f455243323050617573653a2043616c6c2052656a6563746564000000000000006044820152606401610da4565b811561329557613278604d85613489565b156132955760405162461bcd60e51b8152600401610da4906154ec565b5050505050565b6001600160a01b0383166132ea5760405162461bcd60e51b8152602060048201526015602482015274496e76616c6964204f776e6572204164647265737360581b6044820152606401610da4565b6001600160a01b0382166133405760405162461bcd60e51b815260206004820152601760248201527f496e76616c6964205370656e64657220416464726573730000000000000000006044820152606401610da4565b6001600160a01b038381166000818152604b602090815260408083209487168084529482529182902085905590518481527f8c5be1e5ebec7d5bd14f71427d1e84f3dd0314c0f7b2291e5b200ac8c7c3b92591015b60405180910390a3505050565b60405163f7d6b5af60e01b8152604a600482015260248101829052600090819073__$02a10a5b613955ebe0b1689ca5d6d93e29$__9063f7d6b5af90604401602060405180830381865af41580156133fe573d6000803e3d6000fd5b505050506040513d601f19601f82011682018060405250810190613422919061569d565b336000818152604c602090815260408083208884528252918290206002015491518481529394506001600160a01b039091169286917f2a0eb8ca138e1b0c7a85d2f8f43d0f3fe72c27b59c53365fdce897e3e6f3271891015b60405180910390a492915050565b6001600160a01b03811660009081526001830160205260408120541515610ec4565b6048546000903390158015906134c757506134c533611ff5565b155b156134dc576134d7858585614079565b6134e7565b6134e7858585614100565b6134f2858285614008565b836001600160a01b0316856001600160a01b0316826001600160a01b03167f5f7542858008eeb041631f30e6109ae94b83a58e9a58261dd2c42c508850f9398660405161354191815260200190565b60405180910390a4506001949350505050565b6001600160a01b039182166000908152604b6020908152604080832093909416825291909152205490565b60006001600160a01b0383166135a75760405162461bcd60e51b8152600401610da4906155b7565b81604760008282546135b991906154c0565b90915550506001600160a01b0383166000908152604a6020526040812080548492906135e69084906154c0565b90915550506047546040805184815260208101929092526001600160a01b0385169133917f2f00e3cdd69a77be7ed215ec7b2a36784dd158f921fca79ac29deffa353fe6ee910160405180910390a35060475492915050565b6000600080516020615d908339815191525b546001600160a01b0316919050565b600080546001600160a01b0316300361374c5760006363d59cf360e11b61368630613e24565b338560405160240161369a93929190615811565b60408051601f198184030181529190526020810180516001600160e01b03166001600160e01b031990931692909217909152905060006137176136db61363f565b836040518060400160405280601d81526020017f44656c656761746563616c6c20686173416363657373204661696c6564000000815250614401565b905080600182516137289190615624565b8151811061373857613738615494565b60209101015160f81c600114949350505050565b6000546001600160a01b031663c7ab39e661376630613e24565b33856040518463ffffffff1660e01b815260040161378693929190615811565b602060405180830381865afa1580156137a3573d6000803e3d6000fd5b505050506040513d601f19601f82011682018060405250810190610b7c9190615642565b60006001600160a01b038316336001600160a01b03167f85766eb39b0ac39ad7e8afbf36233d9adb1af81136bbea1f94cacd4b2e272c6984604051613810911515815260200190565b60405180910390a3604051634572e0c160e01b8152604a60048201526001600160a01b0384166024820152821515604482015273__$02a10a5b613955ebe0b1689ca5d6d93e29$__90634572e0c190606401602060405180830381865af415801561387f573d6000803e3d6000fd5b505050506040513d601f19601f82011682018060405250810190610ec49190615642565b600080546001600160a01b0316300361396957600063e25d75f060e01b6003546040516024016138d591815260200190565b60408051601f198184030181529190526020810180516001600160e01b03166001600160e01b0319909316929092179091529050600061393561391661363f565b83604051806060016040528060258152602001615d6b60259139614401565b905080600182516139469190615624565b8151811061395657613956615494565b60209101015160f81c6001149392505050565b600054600354604051630e25d75f60e41b81526001600160a01b039092169163e25d75f09161399e9160040190815260200190565b602060405180830381865afa1580156139bb573d6000803e3d6000fd5b505050506040513d601f19601f82011682018060405250810190610eda9190615642565b6000610ec4836001600160a01b0384166144ca565b60008073__$02a10a5b613955ebe0b1689ca5d6d93e29$__6310e1fc40604a856040518363ffffffff1660e01b8152600401613a3192919061583a565b602060405180830381865af4158015613a4e573d6000803e3d6000fd5b505050506040513d601f19601f82011682018060405250810190613a72919061569d565b9050613a816020840184614e58565b6001600160a01b031633827f8c6c9f95afe4c944c9f81d2965f0a9a0c021ce66ac4020dd8b25953a971f9148613abd6040880160208901614e58565b604080516001600160a01b0390921682528089013560208301526060808a0135918301919091520161347b565b613af261363f565b6001600160a01b0316816001600160a01b031603613b525760405162461bcd60e51b815260206004820152601a60248201527f496c6c6567616c204e657720496d706c656d656e746174696f6e0000000000006044820152606401610da4565b613b62637147855d60e01b613660565b613bae5760405162461bcd60e51b815260206004820152601960248201527f5570677261646520436f6e7465787420466f7262696464656e000000000000006044820152606401610da4565b50565b60607f4910fdfa16fed3260ed0e7147f7cc6da11a60208b5b9406d12a635614ffd91435460ff1615613bfb57613be6846145bd565b50604080516000815260208101909152610ec4565b836001600160a01b03166352d1902d6040518163ffffffff1660e01b8152600401602060405180830381865afa925050508015613c55575060408051601f3d908101601f19168201909252613c529181019061569d565b60015b613c995760405162461bcd60e51b8152602060048201526015602482015274125b1b1959d85b0815555414c810dbdb9d1c9858dd605a1b6044820152606401610da4565b600080516020615d908339815191528114613cee5760405162461bcd60e51b8152602060048201526015602482015274125b9d985b1a590815555414c810dbdb9d1c9858dd605a1b6044820152606401610da4565b506040516301ffc9a760e01b815263748be05360e01b60048201526001600160a01b038516906301ffc9a790602401602060405180830381865afa925050508015613d56575060408051601f3d908101601f19168201909252613d5391810190615642565b60015b613da25760405162461bcd60e51b815260206004820152601760248201527f496c6c6567616c204950726f787920436f6e74726163740000000000000000006044820152606401610da4565b80613def5760405162461bcd60e51b815260206004820152601760248201527f496e76616c6964204950726f787920436f6e74726163740000000000000000006044820152606401610da4565b50613dfb84848461463e565b9050610ec4565b6000610ec4836001600160a01b0384166146a8565b60606000610ec4836146f7565b6040516bffffffffffffffffffffffff19606083901b166020820152600090603401604051602081830303815290604052805190602001209050919050565b600080600073__$02a10a5b613955ebe0b1689ca5d6d93e29$__63f1c3afef604a866040518363ffffffff1660e01b8152600401613ea29291906158bb565b6040805180830381865af4158015613ebe573d6000803e3d6000fd5b505050506040513d601f19601f82011682018060405250810190613ee29190615942565b9092509050613ef76040850160208601614e58565b6001600160a01b03163385357f571ab3cb94eb114c4b41e4f4bbbe9625a6c546920db08ddea52bd3ec7cb585868585613f3360408b018b6156b6565b604051613f439493929190615970565b60405180910390a49392505050565b6001600160a01b0381166000908152604a60205260409020600201805460018101825590612a9d565b600154600254604080517f8b73c3c69bb8fe3d512ecc4cf759cc79239f7b179b0ffacaa9a75d522b39400f60208201529081019290925260608201524660808201523060a082015260009060c00160405160208183030381529060405280519060200120905090565b6000806000613ff38585614753565b91509150614000816147c1565b509392505050565b60006140148484613554565b9050818110156140665760405162461bcd60e51b815260206004820152601e60248201527f496e73756666696369656e74204163636f756e7420416c6c6f77616e636500006044820152606401610da4565b614073848484840361329c565b50505050565b60006140906048548361497790919063ffffffff16565b905060006140de826040518060400160405280601c81526020017f496e73756666696369656e74205472616e7366657220416d6f756e74000000008152508561498f9092919063ffffffff16565b6049549091506140f99086906001600160a01b031684614100565b6132958585835b604051633de90db360e01b8152604a60048201526001600160a01b038085166024830152831660448201526064810182905273__$02a10a5b613955ebe0b1689ca5d6d93e29$__90633de90db39060840160006040518083038186803b15801561416957600080fd5b505af415801561417d573d6000803e3d6000fd5b50505050816001600160a01b0316836001600160a01b03167fddf252ad1be2c89b69c2b068fc378daa952ba7f163c4a11628f55a4df523b3ef8360405161339591815260200190565b7fb53127684a568b3173ae13b9f8a6016e243e63b6e8ee1178d6a717850b5d610380546001600160a01b0383166001600160a01b031990911681179091556040805191825251309133917f54ab0d18de7958786ba1ad85966d59baa2b395455f0530dcdcfd732e6af539e29181900360200190a350565b60007fb53127684a568b3173ae13b9f8a6016e243e63b6e8ee1178d6a717850b5d6103613651565b6142738686868686866149bb565b505050505050565b6001546002546003546040516397ca328d60e01b8152600481019390935260248301919091526044820152600090819073__$02a10a5b613955ebe0b1689ca5d6d93e29$__906397ca328d90606401600060405180830381865af41580156142e7573d6000803e3d6000fd5b505050506040513d6000823e601f3d908101601f1916820160405261430f9190810190615afc565b6000546040516378efa4ed60e11b81529294509092506001600160a01b03169063f1df49da90614349908790879087908790600401615bb8565b6020604051808303816000875af1158015614368573d6000803e3d6000fd5b505050506040513d601f19601f8201168201806040525081019061438c919061569d565b5061439561363f565b6001600160a01b031630336001600160a01b03167ff851a1e85477b818fc72ad517ea622cc316f10f67d61c9e740adc151a8b413948c8c8c8c8c6143dc60515461ffff1690565b6040516143ee96959493929190615cc4565b60405180910390a4505050505050505050565b60606001600160a01b0384163b6144555760405162461bcd60e51b8152602060048201526018602482015277496c6c6567616c20436f6e7472616374204164647265737360401b6044820152606401610da4565b600080856001600160a01b0316856040516144709190615d09565b600060405180830381855af49150503d80600081146144ab576040519150601f19603f3d011682016040523d82523d6000602084013e6144b0565b606091505b50915091506144c0828286614bc6565b9695505050505050565b600081815260018301602052604081205480156145b35760006144ee600183615624565b855490915060009061450290600190615624565b905081811461456757600086600001828154811061452257614522615494565b906000526020600020015490508087600001848154811061454557614545615494565b6000918252602080832090910192909255918252600188019052604090208390555b855486908061457857614578615d1b565b600190038181906000526020600020016000905590558560010160008681526020019081526020016000206000905560019350505050610b7c565b6000915050610b7c565b6001600160a01b0381163b61460f5760405162461bcd60e51b8152602060048201526018602482015277496c6c6567616c20436f6e7472616374204164647265737360401b6044820152606401610da4565b600080516020615d9083398151915280546001600160a01b0319166001600160a01b0392909216919091179055565b606061464984614bff565b6000835111806146565750815b1561469157613dfb84846040518060400160405280601381526020017211195b1959d85d1958d85b1b0811985a5b1959606a1b815250614401565b505060408051600081526020810190915292915050565b60008181526001830160205260408120546146ef57508154600181810184556000848152602080822090930184905584548482528286019093526040902091909155610b7c565b506000610b7c565b60608160000180548060200260200160405190810160405280929190818152602001828054801561474757602002820191906000526020600020905b815481526020019060010190808311614733575b50505050509050919050565b60008082516041036147895760208301516040840151606085015160001a61477d87828585614c43565b945094505050506147ba565b82516040036147b257602083015160408401516147a7868383614d30565b9350935050506147ba565b506000905060025b9250929050565b60008160048111156147d5576147d56155ee565b036147dd5750565b60018160048111156147f1576147f16155ee565b0361483e5760405162461bcd60e51b815260206004820152601860248201527f45434453413a20696e76616c6964207369676e617475726500000000000000006044820152606401610da4565b6002816004811115614852576148526155ee565b0361489f5760405162461bcd60e51b815260206004820152601f60248201527f45434453413a20696e76616c6964207369676e6174757265206c656e677468006044820152606401610da4565b60038160048111156148b3576148b36155ee565b0361490b5760405162461bcd60e51b815260206004820152602260248201527f45434453413a20696e76616c6964207369676e6174757265202773272076616c604482015261756560f01b6064820152608401610da4565b600481600481111561491f5761491f6155ee565b03613bae5760405162461bcd60e51b815260206004820152602260248201527f45434453413a20696e76616c6964207369676e6174757265202776272076616c604482015261756560f01b6064820152608401610da4565b6000610ec46127106149898585614d69565b90614d75565b600081848411156149b35760405162461bcd60e51b8152600401610da49190614e04565b505050900390565b60515462010000900460ff16614a135760405162461bcd60e51b815260206004820152601960248201527f436f6e7472616374204e6f7420496e697469616c697a696e67000000000000006044820152606401610da4565b8585604051602001614a269291906156fc565b60408051601f19818403018152908290528051602091820120600155614a509186918691016156fc565b60408051601f19818403018152919052805160209091012060025560038290556001600160a01b038116614a9557600080546001600160a01b03191630179055614bb2565b6040516301ffc9a760e01b8152634d4a792560e01b60048201526001600160a01b038216906301ffc9a790602401602060405180830381865afa925050508015614afc575060408051601f3d908101601f19168201909252614af991810190615642565b60015b614b485760405162461bcd60e51b815260206004820152601c60248201527f496c6c6567616c20416363657373436f6e74726f6c4d616e61676572000000006044820152606401610da4565b80614b955760405162461bcd60e51b815260206004820152601c60248201527f496e76616c696420416363657373436f6e74726f6c4d616e61676572000000006044820152606401610da4565b50600080546001600160a01b0319166001600160a01b0383161790555b6004805461ffff19169055614273336141c6565b60608315614bd5575081610ec4565b825115614be55782518084602001fd5b8160405162461bcd60e51b8152600401610da49190614e04565b614c08816145bd565b6040516001600160a01b03821690309033907f354bd4b6eb65d64e6c79c53fa4f983a5e6bec4824ce4627c71be0b2722f4917e90600090a450565b6000807f7fffffffffffffffffffffffffffffff5d576e7357a4501ddfe92f46681b20a0831115614c7a5750600090506003614d27565b8460ff16601b14158015614c9257508460ff16601c14155b15614ca35750600090506004614d27565b6040805160008082526020820180845289905260ff881692820192909252606081018690526080810185905260019060a0016020604051602081039080840390855afa158015614cf7573d6000803e3d6000fd5b5050604051601f1901519150506001600160a01b038116614d2057600060019250925050614d27565b9150600090505b94509492505050565b6000806001600160ff1b03831681614d4d60ff86901c601b6154c0565b9050614d5b87828885614c43565b935093505050935093915050565b6000610ec48284615d31565b6000610ec48284615d48565b6001600160e01b031981168114613bae57600080fd5b600060208284031215614da957600080fd5b8135610ec481614d81565b60005b83811015614dcf578181015183820152602001614db7565b50506000910152565b60008151808452614df0816020860160208601614db4565b601f01601f19169290920160200192915050565b602081526000610ec46020830184614dd8565b6001600160a01b0381168114613bae57600080fd5b60008060408385031215614e3f57600080fd5b8235614e4a81614e17565b946020939093013593505050565b600060208284031215614e6a57600080fd5b8135610ec481614e17565b60008083601f840112614e8757600080fd5b5081356001600160401b03811115614e9e57600080fd5b6020830191508360208260051b85010111156147ba57600080fd5b60008060208385031215614ecc57600080fd5b82356001600160401b03811115614ee257600080fd5b614eee85828601614e75565b90969095509350505050565b600060208284031215614f0c57600080fd5b5035919050565b60008060208385031215614f2657600080fd5b82356001600160401b0380821115614f3d57600080fd5b818501915085601f830112614f5157600080fd5b813581811115614f6057600080fd5b866020606083028501011115614f7557600080fd5b60209290920196919550909350505050565b600080600060608486031215614f9c57600080fd5b8335614fa781614e17565b92506020840135614fb781614e17565b929592945050506040919091013590565b8015158114613bae57600080fd5b803561113c81614fc8565b600060208284031215614ff357600080fd5b8135610ec481614fc8565b6000806040838503121561501157600080fd5b823561501c81614e17565b9150602083013561502c81614fc8565b809150509250929050565b600060808284031215612a9d57600080fd5b634e487b7160e01b600052604160045260246000fd5b604051606081016001600160401b038111828210171561508157615081615049565b60405290565b604051601f8201601f191681016001600160401b03811182821017156150af576150af615049565b604052919050565b6000806000606084860312156150cc57600080fd5b83356150d781614e17565b92506020848101356001600160401b03808211156150f457600080fd5b818701915087601f83011261510857600080fd5b81358181111561511a5761511a615049565b61512c601f8201601f19168501615087565b9150808252888482850101111561514257600080fd5b808484018584013760008482840101525080945050505061516560408501614fd6565b90509250925092565b6020808252825182820181905260009190848201906040850190845b818110156151af5783516001600160a01b03168352928401929184019160010161518a565b50909695505050505050565b60008083601f8401126151cd57600080fd5b5081356001600160401b038111156151e457600080fd5b6020830191508360208260061b85010111156147ba57600080fd5b6000806020838503121561521257600080fd5b82356001600160401b0381111561522857600080fd5b614eee858286016151bb565b6000806040838503121561524757600080fd5b82359150602083013561502c81614e17565b6000806020838503121561526c57600080fd5b82356001600160401b038082111561528357600080fd5b818501915085601f83011261529757600080fd5b8135818111156152a657600080fd5b8660208260071b8501011115614f7557600080fd5b6020808252825182820181905260009190848201906040850190845b818110156151af578351835292840192918401916001016152d7565b60008060008060008060a0878903121561530c57600080fd5b863561531781614e17565b9550602087013561532781614e17565b9450604087013593506060870135925060808701356001600160401b038082111561535157600080fd5b818901915089601f83011261536557600080fd5b81358181111561537457600080fd5b8a602082850101111561538657600080fd5b6020830194508093505050509295509295509295565b600060e082840312156153ae57600080fd5b8260e083011115612a9d57600080fd5b600080604083850312156153d157600080fd5b82356153dc81614e17565b9150602083013561502c81614e17565b6000602082840312156153fe57600080fd5b81356001600160401b0381111561541457600080fd5b820160e08185031215610ec457600080fd5b60006020828403121561543857600080fd5b81356001600160401b0381111561544e57600080fd5b820160608185031215610ec457600080fd5b600181811c9082168061547457607f821691505b602082108103612a9d57634e487b7160e01b600052602260045260246000fd5b634e487b7160e01b600052603260045260246000fd5b634e487b7160e01b600052601160045260246000fd5b80820180821115610b7c57610b7c6154aa565b6000600182016154e5576154e56154aa565b5060010190565b6020808252601d908201527f455243323050617573653a204163636f756e742053757370656e646564000000604082015260600190565b602080825260159082015274125b1b1959d85b0810dbdb9d1c9858dd0810d85b1b605a1b604082015260600190565b602080825260149082015273141c9bde1e4810d85b1b195908125b9d985b1a5960621b604082015260600190565b60208082526017908201527f536166654d6f64653a2043616c6c2052656a6563746564000000000000000000604082015260600190565b60208082526017908201527f496e76616c6964204163636f756e742041646472657373000000000000000000604082015260600190565b634e487b7160e01b600052602160045260246000fd5b60008235605e1983360301811261561a57600080fd5b9190910192915050565b81810381811115610b7c57610b7c6154aa565b805161113c81614fc8565b60006020828403121561565457600080fd5b8151610ec481614fc8565b60006020828403121561567157600080fd5b815160048110610ec457600080fd5b60006020828403121561569257600080fd5b8151610ec481614e17565b6000602082840312156156af57600080fd5b5051919050565b6000808335601e198436030181126156cd57600080fd5b8301803591506001600160401b038211156156e757600080fd5b6020019150368190038213156147ba57600080fd5b8183823760009101908152919050565b601f8211156118c557600081815260208120601f850160051c810160208610156157335750805b601f850160051c820191505b818110156142735782815560010161573f565b81516001600160401b0381111561576b5761576b615049565b61577f816157798454615460565b8461570c565b602080601f8311600181146157b4576000841561579c5750858301515b600019600386901b1c1916600185901b178555614273565b600085815260208120601f198616915b828110156157e3578886015182559484019460019091019084016157c4565b50858210156158015787850151600019600388901b60f8161c191681555b5050505050600190811b01905550565b9283526001600160a01b039190911660208301526001600160e01b031916604082015260600190565b82815260a08101823561584c81614e17565b6001600160a01b039081166020848101919091528401359061586d82614e17565b8082166040850152505060408301356060830152606083013560808301529392505050565b81835281816020850137506000828201602090810191909152601f909101601f19169091010190565b8281526040602082015281356040820152600060208301356158dc81614e17565b6001600160a01b03166060830152604083013536849003601e1901811261590257600080fd5b83016020810190356001600160401b0381111561591e57600080fd5b80360382131561592d57600080fd5b606060808501526144c060a085018284615892565b6000806040838503121561595557600080fd5b825161596081614e17565b6020939093015192949293505050565b60018060a01b03851681528360208201526060604082015260006144c0606083018486615892565b60006001600160401b038211156159b1576159b1615049565b5060051b60200190565b600082601f8301126159cc57600080fd5b815160206159e16159dc83615998565b615087565b82815260059290921b84018101918181019086841115615a0057600080fd5b8286015b84811015615af15780516001600160401b0380821115615a245760008081fd5b908801906060828b03601f1901811315615a3e5760008081fd5b615a4661505f565b87840151815260408085015184811115615a605760008081fd5b85019350603f84018d13615a745760008081fd5b88840151615a846159dc82615998565b81815260059190911b85018201908a8101908f831115615aa45760008081fd5b958301955b82871015615acb578651615abc81614d81565b8252958b0195908b0190615aa9565b848c015250615add9050858401615637565b908201528652505050918301918301615a04565b509695505050505050565b60008082840360c0811215615b1057600080fd5b60a0811215615b1e57600080fd5b5060405160a081016001600160401b038282108183111715615b4257615b42615049565b8160405285518352602086015160208401526040860151604084015260608601519150615b6e82614e17565b81606084015260808601519150615b8482614fc8565b6080830182905260a086015192945080831115615ba057600080fd5b5050615bae858286016159bb565b9150509250929050565b60e081526000615bcc60e083018688615892565b6020855181850152808601516040818187015280880151915060608281880152808901519250608060018060a01b03841681890152808a0151151560a089015287860360c089015285935088518087528587019450858160051b880101868b016000805b84811015615caf578a8403601f190189528251805185528a8101518b86018990528051898701819052908c01908490898801905b80831015615c8e5783516001600160e01b0319168252928e019260019290920191908e0190615c64565b50928b01511515968b019690965250988a0198935091890191600101615c30565b50919f9e505050505050505050505050505050565b608081526000615cd860808301888a615892565b8281036020840152615ceb818789615892565b91505083604083015261ffff83166060830152979650505050505050565b6000825161561a818460208701614db4565b634e487b7160e01b600052603160045260246000fd5b8082028115828204841417610b7c57610b7c6154aa565b600082615d6557634e487b7160e01b600052601260045260246000fd5b50049056fe44656c656761746563616c6c2069735265616c6d55706772616461626c65204661696c6564360894a13ba1a3210667c828492db98dca3e2076cc3735a920a3ca505d382bbca264697066735822122057e3234f45f6cca8cb4e09dbf1f19c06302b907a790e7899d9de5178672dbc8d64736f6c63430008110033b53127684a568b3173ae13b9f8a6016e243e63b6e8ee1178d6a717850b5d6103",
  "linkReferences": {
    "src/contracts/lib/token/LTokenERC20.sol": {
      "LTokenERC20": [
        {
          "length": 20,
          "start": 13699
        },
        {
          "length": 20,
          "start": 14852
        },
        {
          "length": 20,
          "start": 15288
        },
        {
          "length": 20,
          "start": 16425
        },
        {
          "length": 20,
          "start": 17139
        },
        {
          "length": 20,
          "start": 17516
        }
      ]
    }
  },
  "deployedLinkReferences": {
    "src/contracts/lib/token/LTokenERC20.sol": {
      "LTokenERC20": [
        {
          "length": 20,
          "start": 13252
        },
        {
          "length": 20,
          "start": 14405
        },
        {
          "length": 20,
          "start": 14841
        },
        {
          "length": 20,
          "start": 15978
        },
        {
          "length": 20,
          "start": 16692
        },
        {
          "length": 20,
          "start": 17069
        }
      ]
    }
  },
  "devdoc": {
    "kind": "dev",
    "methods": {
      "proxiableUUID()": {
        "details": "Implementation of the ERC1822 {proxiableUUID} function. This returns the storage slot used by the implementation. It is used to validate that the this implementation remains valid after an upgrade. IMPORTANT: A proxy pointing at a proxiable contract should not be considered proxiable itself, because this risks bricking a proxy that upgrades to it, by delegating to itself until out of gas. Thus it is critical that this function revert if invoked through a proxy. This is guaranteed by the `notDelegated` modifier."
      },
      "supportsInterface(bytes4)": {
        "details": "See {IERC165-supportsInterface}."
      }
    },
    "version": 1
  },
  "evm": {
    "bytecode": {
      "linkReferences": {
        "src/contracts/lib/token/LTokenERC20.sol": {
          "LTokenERC20": [
            {
              "length": 20,
              "start": 13699
            },
            {
              "length": 20,
              "start": 14852
            },
            {
              "length": 20,
              "start": 15288
            },
            {
              "length": 20,
              "start": 16425
            },
            {
              "length": 20,
              "start": 17139
            },
            {
              "length": 20,
              "start": 17516
            }
          ]
        }
      },
      "opcodes": "PUSH1 0xA0 PUSH1 0x40 MSTORE ADDRESS PUSH1 0x80 MSTORE CALLVALUE DUP1 ISZERO PUSH3 0x15 JUMPI PUSH1 0x0 DUP1 REVERT JUMPDEST POP PUSH3 0x43 PUSH1 0x1 PUSH32 0x360894A13BA1A3210667C828492DB98DCA3E2076CC3735A920A3CA505D382BBD PUSH3 0x11F JUMP JUMPDEST PUSH32 0x360894A13BA1A3210667C828492DB98DCA3E2076CC3735A920A3CA505D382BBC EQ PUSH3 0x74 JUMPI PUSH3 0x74 PUSH3 0x147 JUMP JUMPDEST PUSH3 0xA1 PUSH1 0x1 PUSH32 0xB53127684A568B3173AE13B9F8A6016E243E63B6E8EE1178D6A717850B5D6104 PUSH3 0x11F JUMP JUMPDEST PUSH1 0x0 DUP1 MLOAD PUSH1 0x20 PUSH3 0x5FA4 DUP4 CODECOPY DUP2 MLOAD SWAP2 MSTORE EQ PUSH3 0xC1 JUMPI PUSH3 0xC1 PUSH3 0x147 JUMP JUMPDEST CALLER PUSH3 0xEA PUSH1 0x0 DUP1 MLOAD PUSH1 0x20 PUSH3 0x5FA4 DUP4 CODECOPY DUP2 MLOAD SWAP2 MSTORE PUSH1 0x0 SHL PUSH3 0x11C PUSH1 0x20 SHL PUSH3 0x314B OR PUSH1 0x20 SHR JUMP JUMPDEST DUP1 SLOAD PUSH1 0x1 PUSH1 0x1 PUSH1 0xA0 SHL SUB NOT AND PUSH1 0x1 PUSH1 0x1 PUSH1 0xA0 SHL SUB SWAP3 SWAP1 SWAP3 AND SWAP2 SWAP1 SWAP2 OR SWAP1 SSTORE PUSH1 0x4 DUP1 SLOAD PUSH2 0xFFFF NOT AND PUSH1 0x1 OR SWAP1 SSTORE PUSH3 0x15D JUMP JUMPDEST SWAP1 JUMP JUMPDEST DUP2 DUP2 SUB DUP2 DUP2 GT ISZERO PUSH3 0x141 JUMPI PUSH4 0x4E487B71 PUSH1 0xE0 SHL PUSH1 0x0 MSTORE PUSH1 0x11 PUSH1 0x4 MSTORE PUSH1 0x24 PUSH1 0x0 REVERT JUMPDEST SWAP3 SWAP2 POP POP JUMP JUMPDEST PUSH4 0x4E487B71 PUSH1 0xE0 SHL PUSH1 0x0 MSTORE PUSH1 0x1 PUSH1 0x4 MSTORE PUSH1 0x24 PUSH1 0x0 REVERT JUMPDEST PUSH1 0x80 MLOAD PUSH2 0x5DE5 PUSH3 0x1BF PUSH1 0x0 CODECOPY PUSH1 0x0 DUP2 DUP2 PUSH2 0xF98 ADD MSTORE DUP2 DUP2 PUSH2 0xFD8 ADD MSTORE DUP2 DUP2 PUSH2 0x116C ADD MSTORE DUP2 DUP2 PUSH2 0x11AC ADD MSTORE DUP2 DUP2 PUSH2 0x1360 ADD MSTORE DUP2 DUP2 PUSH2 0x1589 ADD MSTORE DUP2 DUP2 PUSH2 0x15C9 ADD MSTORE DUP2 DUP2 PUSH2 0x2AAF ADD MSTORE DUP2 DUP2 PUSH2 0x2AEF ADD MSTORE DUP2 DUP2 PUSH2 0x2C3F ADD MSTORE PUSH2 0x2C7F ADD MSTORE PUSH2 0x5DE5 PUSH1 0x0 RETURN INVALID PUSH1 0x80 PUSH1 0x40 MSTORE PUSH1 0x4 CALLDATASIZE LT PUSH2 0x36B JUMPI PUSH1 0x0 CALLDATALOAD PUSH1 0xE0 SHR DUP1 PUSH4 0x76A67A51 GT PUSH2 0x1C4 JUMPI DUP1 PUSH4 0xA457C2D7 GT PUSH2 0xF6 JUMPI DUP1 PUSH4 0xD9DC1F19 GT PUSH2 0x9A JUMPI DUP1 PUSH4 0xF698DA25 GT PUSH2 0x6C JUMPI DUP1 PUSH4 0xF698DA25 EQ PUSH2 0xA9D JUMPI DUP1 PUSH4 0xF94A0ADB EQ PUSH2 0xAB2 JUMPI DUP1 PUSH4 0xFAA552A8 EQ PUSH2 0xAC7 JUMPI DUP1 PUSH4 0xFDB92EC4 EQ PUSH2 0xAE7 JUMPI STOP JUMPDEST DUP1 PUSH4 0xD9DC1F19 EQ PUSH2 0xA28 JUMPI DUP1 PUSH4 0xDD62ED3E EQ PUSH2 0xA48 JUMPI DUP1 PUSH4 0xDE843A94 EQ PUSH2 0xA68 JUMPI DUP1 PUSH4 0xE3D069A4 EQ PUSH2 0xA7D JUMPI STOP JUMPDEST DUP1 PUSH4 0xB4A0BDF3 GT PUSH2 0xD3 JUMPI DUP1 PUSH4 0xB4A0BDF3 EQ PUSH2 0x9BD JUMPI DUP1 PUSH4 0xBE22465D EQ PUSH2 0x9DB JUMPI DUP1 PUSH4 0xC082A123 EQ PUSH2 0x9F3 JUMPI DUP1 PUSH4 0xD3E024B8 EQ PUSH2 0xA13 JUMPI STOP JUMPDEST DUP1 PUSH4 0xA457C2D7 EQ PUSH2 0x95D JUMPI DUP1 PUSH4 0xA5BFA9A9 EQ PUSH2 0x97D JUMPI DUP1 PUSH4 0xA9059CBB EQ PUSH2 0x99D JUMPI STOP JUMPDEST DUP1 PUSH4 0x8BFC07ED GT PUSH2 0x168 JUMPI DUP1 PUSH4 0x9DC29FAC GT PUSH2 0x13A JUMPI DUP1 PUSH4 0x9DC29FAC EQ PUSH2 0x8E9 JUMPI DUP1 PUSH4 0x9FD5A6CF EQ PUSH2 0x909 JUMPI DUP1 PUSH4 0xA0A8E460 EQ PUSH2 0x929 JUMPI DUP1 PUSH4 0xA0E6ADF1 EQ PUSH2 0x93E JUMPI STOP JUMPDEST DUP1 PUSH4 0x8BFC07ED EQ PUSH2 0x827 JUMPI DUP1 PUSH4 0x95D89B41 EQ PUSH2 0x887 JUMPI DUP1 PUSH4 0x9A7E1873 EQ PUSH2 0x89C JUMPI DUP1 PUSH4 0x9B5F356E EQ PUSH2 0x8C9 JUMPI STOP JUMPDEST DUP1 PUSH4 0x7D35F355 GT PUSH2 0x1A1 JUMPI DUP1 PUSH4 0x7D35F355 EQ PUSH2 0x7BF JUMPI DUP1 PUSH4 0x870666CB EQ PUSH2 0x7DF JUMPI DUP1 PUSH4 0x8A2DDD03 EQ PUSH2 0x7F4 JUMPI DUP1 PUSH4 0x8A92AB15 EQ PUSH2 0x809 JUMPI STOP JUMPDEST DUP1 PUSH4 0x76A67A51 EQ PUSH2 0x768 JUMPI DUP1 PUSH4 0x771A3A1D EQ PUSH2 0x788 JUMPI DUP1 PUSH4 0x7BF60FF4 EQ PUSH2 0x79D JUMPI STOP JUMPDEST DUP1 PUSH4 0x48E6BE1C GT PUSH2 0x29D JUMPI DUP1 PUSH4 0x5B14F183 GT PUSH2 0x241 JUMPI DUP1 PUSH4 0x70AE92D2 GT PUSH2 0x213 JUMPI DUP1 PUSH4 0x70AE92D2 EQ PUSH2 0x6F3 JUMPI DUP1 PUSH4 0x7147855D EQ PUSH2 0x713 JUMPI DUP1 PUSH4 0x756AF45F EQ PUSH2 0x733 JUMPI DUP1 PUSH4 0x75D0C0DC EQ PUSH2 0x753 JUMPI STOP JUMPDEST DUP1 PUSH4 0x5B14F183 EQ PUSH2 0x65F JUMPI DUP1 PUSH4 0x60FEFDEC EQ PUSH2 0x67F JUMPI DUP1 PUSH4 0x6B839492 EQ PUSH2 0x69D JUMPI DUP1 PUSH4 0x70A08231 EQ PUSH2 0x6BD JUMPI STOP JUMPDEST DUP1 PUSH4 0x5479D940 GT PUSH2 0x27A JUMPI DUP1 PUSH4 0x5479D940 EQ PUSH2 0x5E0 JUMPI DUP1 PUSH4 0x57B001F9 EQ PUSH2 0x5FD JUMPI DUP1 PUSH4 0x58DBC45D EQ PUSH2 0x61D JUMPI DUP1 PUSH4 0x595C6A67 EQ PUSH2 0x64A JUMPI STOP JUMPDEST DUP1 PUSH4 0x48E6BE1C EQ PUSH2 0x58B JUMPI DUP1 PUSH4 0x4B0EE02A EQ PUSH2 0x5AB JUMPI DUP1 PUSH4 0x52D1902D EQ PUSH2 0x5CB JUMPI STOP JUMPDEST DUP1 PUSH4 0x1C6928E8 GT PUSH2 0x30F JUMPI DUP1 PUSH4 0x39509351 GT PUSH2 0x2E1 JUMPI DUP1 PUSH4 0x39509351 EQ PUSH2 0x50B JUMPI DUP1 PUSH4 0x40C10F19 EQ PUSH2 0x52B JUMPI DUP1 PUSH4 0x44B7E5F2 EQ PUSH2 0x54B JUMPI DUP1 PUSH4 0x46A634D4 EQ PUSH2 0x56B JUMPI STOP JUMPDEST DUP1 PUSH4 0x1C6928E8 EQ PUSH2 0x487 JUMPI DUP1 PUSH4 0x23B872DD EQ PUSH2 0x4A7 JUMPI DUP1 PUSH4 0x313CE567 EQ PUSH2 0x4C7 JUMPI DUP1 PUSH4 0x38D38C97 EQ PUSH2 0x4E3 JUMPI STOP JUMPDEST DUP1 PUSH4 0x10E776ED GT PUSH2 0x348 JUMPI DUP1 PUSH4 0x10E776ED EQ PUSH2 0x3EB JUMPI DUP1 PUSH4 0x1455A1C8 EQ PUSH2 0x432 JUMPI DUP1 PUSH4 0x17FDCC8E EQ PUSH2 0x452 JUMPI DUP1 PUSH4 0x18160DDD EQ PUSH2 0x472 JUMPI STOP JUMPDEST DUP1 PUSH4 0x1FFC9A7 EQ PUSH2 0x374 JUMPI DUP1 PUSH4 0x6FDDE03 EQ PUSH2 0x3A9 JUMPI DUP1 PUSH4 0x95EA7B3 EQ PUSH2 0x3CB JUMPI STOP JUMPDEST CALLDATASIZE PUSH2 0x372 JUMPI STOP JUMPDEST STOP JUMPDEST CALLVALUE DUP1 ISZERO PUSH2 0x380 JUMPI PUSH1 0x0 DUP1 REVERT JUMPDEST POP PUSH2 0x394 PUSH2 0x38F CALLDATASIZE PUSH1 0x4 PUSH2 0x4D97 JUMP JUMPDEST PUSH2 0xB07 JUMP JUMPDEST PUSH1 0x40 MLOAD SWAP1 ISZERO ISZERO DUP2 MSTORE PUSH1 0x20 ADD JUMPDEST PUSH1 0x40 MLOAD DUP1 SWAP2 SUB SWAP1 RETURN JUMPDEST CALLVALUE DUP1 ISZERO PUSH2 0x3B5 JUMPI PUSH1 0x0 DUP1 REVERT JUMPDEST POP PUSH2 0x3BE PUSH2 0xB82 JUMP JUMPDEST PUSH1 0x40 MLOAD PUSH2 0x3A0 SWAP2 SWAP1 PUSH2 0x4E04 JUMP JUMPDEST CALLVALUE DUP1 ISZERO PUSH2 0x3D7 JUMPI PUSH1 0x0 DUP1 REVERT JUMPDEST POP PUSH2 0x394 PUSH2 0x3E6 CALLDATASIZE PUSH1 0x4 PUSH2 0x4E2C JUMP JUMPDEST PUSH2 0xC14 JUMP JUMPDEST CALLVALUE DUP1 ISZERO PUSH2 0x3F7 JUMPI PUSH1 0x0 DUP1 REVERT JUMPDEST POP PUSH2 0x424 PUSH2 0x406 CALLDATASIZE PUSH1 0x4 PUSH2 0x4E58 JUMP JUMPDEST PUSH1 0x1 PUSH1 0x1 PUSH1 0xA0 SHL SUB AND PUSH1 0x0 SWAP1 DUP2 MSTORE PUSH1 0x4A PUSH1 0x20 MSTORE PUSH1 0x40 SWAP1 KECCAK256 PUSH1 0x1 ADD SLOAD SWAP1 JUMP JUMPDEST PUSH1 0x40 MLOAD SWAP1 DUP2 MSTORE PUSH1 0x20 ADD PUSH2 0x3A0 JUMP JUMPDEST CALLVALUE DUP1 ISZERO PUSH2 0x43E JUMPI PUSH1 0x0 DUP1 REVERT JUMPDEST POP PUSH2 0x424 PUSH2 0x44D CALLDATASIZE PUSH1 0x4 PUSH2 0x4EB9 JUMP JUMPDEST PUSH2 0xC3F JUMP JUMPDEST CALLVALUE DUP1 ISZERO PUSH2 0x45E JUMPI PUSH1 0x0 DUP1 REVERT JUMPDEST POP PUSH2 0x394 PUSH2 0x46D CALLDATASIZE PUSH1 0x4 PUSH2 0x4EFA JUMP JUMPDEST PUSH2 0xCDB JUMP JUMPDEST CALLVALUE DUP1 ISZERO PUSH2 0x47E JUMPI PUSH1 0x0 DUP1 REVERT JUMPDEST POP PUSH1 0x47 SLOAD PUSH2 0x424 JUMP JUMPDEST CALLVALUE DUP1 ISZERO PUSH2 0x493 JUMPI PUSH1 0x0 DUP1 REVERT JUMPDEST POP PUSH2 0x394 PUSH2 0x4A2 CALLDATASIZE PUSH1 0x4 PUSH2 0x4F13 JUMP JUMPDEST PUSH2 0xD32 JUMP JUMPDEST CALLVALUE DUP1 ISZERO PUSH2 0x4B3 JUMPI PUSH1 0x0 DUP1 REVERT JUMPDEST POP PUSH2 0x394 PUSH2 0x4C2 CALLDATASIZE PUSH1 0x4 PUSH2 0x4F87 JUMP JUMPDEST PUSH2 0xEA0 JUMP JUMPDEST CALLVALUE DUP1 ISZERO PUSH2 0x4D3 JUMPI PUSH1 0x0 DUP1 REVERT JUMPDEST POP PUSH1 0x40 MLOAD PUSH1 0x12 DUP2 MSTORE PUSH1 0x20 ADD PUSH2 0x3A0 JUMP JUMPDEST CALLVALUE DUP1 ISZERO PUSH2 0x4EF JUMPI PUSH1 0x0 DUP1 REVERT JUMPDEST POP PUSH2 0x4F8 PUSH2 0xECB JUMP JUMPDEST PUSH1 0x40 MLOAD PUSH2 0xFFFF SWAP1 SWAP2 AND DUP2 MSTORE PUSH1 0x20 ADD PUSH2 0x3A0 JUMP JUMPDEST CALLVALUE DUP1 ISZERO PUSH2 0x517 JUMPI PUSH1 0x0 DUP1 REVERT JUMPDEST POP PUSH2 0x424 PUSH2 0x526 CALLDATASIZE PUSH1 0x4 PUSH2 0x4E2C JUMP JUMPDEST PUSH2 0xEDF JUMP JUMPDEST CALLVALUE DUP1 ISZERO PUSH2 0x537 JUMPI PUSH1 0x0 DUP1 REVERT JUMPDEST POP PUSH2 0x424 PUSH2 0x546 CALLDATASIZE PUSH1 0x4 PUSH2 0x4E2C JUMP JUMPDEST PUSH2 0xF6C JUMP JUMPDEST CALLVALUE DUP1 ISZERO PUSH2 0x557 JUMPI PUSH1 0x0 DUP1 REVERT JUMPDEST POP PUSH2 0x394 PUSH2 0x566 CALLDATASIZE PUSH1 0x4 PUSH2 0x4FE1 JUMP JUMPDEST PUSH2 0xF8C JUMP JUMPDEST CALLVALUE DUP1 ISZERO PUSH2 0x577 JUMPI PUSH1 0x0 DUP1 REVERT JUMPDEST POP PUSH2 0x394 PUSH2 0x586 CALLDATASIZE PUSH1 0x4 PUSH2 0x4FFE JUMP JUMPDEST PUSH2 0x1141 JUMP JUMPDEST CALLVALUE DUP1 ISZERO PUSH2 0x597 JUMPI PUSH1 0x0 DUP1 REVERT JUMPDEST POP PUSH2 0x394 PUSH2 0x5A6 CALLDATASIZE PUSH1 0x4 PUSH2 0x4FE1 JUMP JUMPDEST PUSH2 0x1160 JUMP JUMPDEST CALLVALUE DUP1 ISZERO PUSH2 0x5B7 JUMPI PUSH1 0x0 DUP1 REVERT JUMPDEST POP PUSH2 0x424 PUSH2 0x5C6 CALLDATASIZE PUSH1 0x4 PUSH2 0x4E58 JUMP JUMPDEST PUSH2 0x1329 JUMP JUMPDEST CALLVALUE DUP1 ISZERO PUSH2 0x5D7 JUMPI PUSH1 0x0 DUP1 REVERT JUMPDEST POP PUSH2 0x424 PUSH2 0x1353 JUMP JUMPDEST CALLVALUE DUP1 ISZERO PUSH2 0x5EC JUMPI PUSH1 0x0 DUP1 REVERT JUMPDEST POP PUSH1 0x4 SLOAD PUSH2 0x100 SWAP1 DIV PUSH1 0xFF AND PUSH2 0x394 JUMP JUMPDEST CALLVALUE DUP1 ISZERO PUSH2 0x609 JUMPI PUSH1 0x0 DUP1 REVERT JUMPDEST POP PUSH2 0x372 PUSH2 0x618 CALLDATASIZE PUSH1 0x4 PUSH2 0x4E58 JUMP JUMPDEST PUSH2 0x13E0 JUMP JUMPDEST CALLVALUE DUP1 ISZERO PUSH2 0x629 JUMPI PUSH1 0x0 DUP1 REVERT JUMPDEST POP PUSH2 0x632 PUSH2 0x14AA JUMP JUMPDEST PUSH1 0x40 MLOAD PUSH1 0x1 PUSH1 0x1 PUSH1 0xA0 SHL SUB SWAP1 SWAP2 AND DUP2 MSTORE PUSH1 0x20 ADD PUSH2 0x3A0 JUMP JUMPDEST CALLVALUE DUP1 ISZERO PUSH2 0x656 JUMPI PUSH1 0x0 DUP1 REVERT JUMPDEST POP PUSH2 0x372 PUSH2 0x14B4 JUMP JUMPDEST CALLVALUE DUP1 ISZERO PUSH2 0x66B JUMPI PUSH1 0x0 DUP1 REVERT JUMPDEST POP PUSH2 0x394 PUSH2 0x67A CALLDATASIZE PUSH1 0x4 PUSH2 0x4E58 JUMP JUMPDEST PUSH2 0x1519 JUMP JUMPDEST CALLVALUE DUP1 ISZERO PUSH2 0x68B JUMPI PUSH1 0x0 DUP1 REVERT JUMPDEST POP PUSH1 0x51 SLOAD PUSH3 0x10000 SWAP1 DIV PUSH1 0xFF AND PUSH2 0x394 JUMP JUMPDEST CALLVALUE DUP1 ISZERO PUSH2 0x6A9 JUMPI PUSH1 0x0 DUP1 REVERT JUMPDEST POP PUSH2 0x424 PUSH2 0x6B8 CALLDATASIZE PUSH1 0x4 PUSH2 0x5037 JUMP JUMPDEST PUSH2 0x1539 JUMP JUMPDEST CALLVALUE DUP1 ISZERO PUSH2 0x6C9 JUMPI PUSH1 0x0 DUP1 REVERT JUMPDEST POP PUSH2 0x424 PUSH2 0x6D8 CALLDATASIZE PUSH1 0x4 PUSH2 0x4E58 JUMP JUMPDEST PUSH1 0x1 PUSH1 0x1 PUSH1 0xA0 SHL SUB AND PUSH1 0x0 SWAP1 DUP2 MSTORE PUSH1 0x4A PUSH1 0x20 MSTORE PUSH1 0x40 SWAP1 KECCAK256 SLOAD SWAP1 JUMP JUMPDEST CALLVALUE DUP1 ISZERO PUSH2 0x6FF JUMPI PUSH1 0x0 DUP1 REVERT JUMPDEST POP PUSH2 0x424 PUSH2 0x70E CALLDATASIZE PUSH1 0x4 PUSH2 0x4E58 JUMP JUMPDEST PUSH2 0x155C JUMP JUMPDEST CALLVALUE DUP1 ISZERO PUSH2 0x71F JUMPI PUSH1 0x0 DUP1 REVERT JUMPDEST POP PUSH2 0x3BE PUSH2 0x72E CALLDATASIZE PUSH1 0x4 PUSH2 0x50B7 JUMP JUMPDEST PUSH2 0x157D JUMP JUMPDEST CALLVALUE DUP1 ISZERO PUSH2 0x73F JUMPI PUSH1 0x0 DUP1 REVERT JUMPDEST POP PUSH2 0x372 PUSH2 0x74E CALLDATASIZE PUSH1 0x4 PUSH2 0x4E58 JUMP JUMPDEST PUSH2 0x16A5 JUMP JUMPDEST CALLVALUE DUP1 ISZERO PUSH2 0x75F JUMPI PUSH1 0x0 DUP1 REVERT JUMPDEST POP PUSH1 0x1 SLOAD PUSH2 0x424 JUMP JUMPDEST CALLVALUE DUP1 ISZERO PUSH2 0x774 JUMPI PUSH1 0x0 DUP1 REVERT JUMPDEST POP PUSH2 0x372 PUSH2 0x783 CALLDATASIZE PUSH1 0x4 PUSH2 0x4E58 JUMP JUMPDEST PUSH2 0x175D JUMP JUMPDEST CALLVALUE DUP1 ISZERO PUSH2 0x794 JUMPI PUSH1 0x0 DUP1 REVERT JUMPDEST POP PUSH1 0x48 SLOAD PUSH2 0x424 JUMP JUMPDEST CALLVALUE DUP1 ISZERO PUSH2 0x7A9 JUMPI PUSH1 0x0 DUP1 REVERT JUMPDEST POP PUSH2 0x7B2 PUSH2 0x182D JUMP JUMPDEST PUSH1 0x40 MLOAD PUSH2 0x3A0 SWAP2 SWAP1 PUSH2 0x516E JUMP JUMPDEST CALLVALUE DUP1 ISZERO PUSH2 0x7CB JUMPI PUSH1 0x0 DUP1 REVERT JUMPDEST POP PUSH2 0x372 PUSH2 0x7DA CALLDATASIZE PUSH1 0x4 PUSH2 0x51FF JUMP JUMPDEST PUSH2 0x1839 JUMP JUMPDEST CALLVALUE DUP1 ISZERO PUSH2 0x7EB JUMPI PUSH1 0x0 DUP1 REVERT JUMPDEST POP PUSH2 0x424 PUSH2 0x18CA JUMP JUMPDEST CALLVALUE DUP1 ISZERO PUSH2 0x800 JUMPI PUSH1 0x0 DUP1 REVERT JUMPDEST POP PUSH2 0x372 PUSH2 0x18D5 JUMP JUMPDEST CALLVALUE DUP1 ISZERO PUSH2 0x815 JUMPI PUSH1 0x0 DUP1 REVERT JUMPDEST POP PUSH1 0x49 SLOAD PUSH1 0x1 PUSH1 0x1 PUSH1 0xA0 SHL SUB AND PUSH2 0x632 JUMP JUMPDEST CALLVALUE DUP1 ISZERO PUSH2 0x833 JUMPI PUSH1 0x0 DUP1 REVERT JUMPDEST POP PUSH2 0x847 PUSH2 0x842 CALLDATASIZE PUSH1 0x4 PUSH2 0x5234 JUMP JUMPDEST PUSH2 0x1923 JUMP JUMPDEST PUSH1 0x40 DUP1 MLOAD SWAP6 DUP7 MSTORE PUSH1 0x1 PUSH1 0x1 PUSH1 0x80 SHL SUB SWAP5 DUP6 AND PUSH1 0x20 DUP8 ADD MSTORE SWAP3 SWAP1 SWAP4 AND SWAP2 DUP5 ADD SWAP2 SWAP1 SWAP2 MSTORE PUSH1 0x1 PUSH1 0x1 PUSH1 0xA0 SHL SUB AND PUSH1 0x60 DUP4 ADD MSTORE PUSH1 0xFF AND PUSH1 0x80 DUP3 ADD MSTORE PUSH1 0xA0 ADD PUSH2 0x3A0 JUMP JUMPDEST CALLVALUE DUP1 ISZERO PUSH2 0x893 JUMPI PUSH1 0x0 DUP1 REVERT JUMPDEST POP PUSH2 0x3BE PUSH2 0x19A8 JUMP JUMPDEST CALLVALUE DUP1 ISZERO PUSH2 0x8A8 JUMPI PUSH1 0x0 DUP1 REVERT JUMPDEST POP PUSH2 0x8BC PUSH2 0x8B7 CALLDATASIZE PUSH1 0x4 PUSH2 0x5259 JUMP JUMPDEST PUSH2 0x19B7 JUMP JUMPDEST PUSH1 0x40 MLOAD PUSH2 0x3A0 SWAP2 SWAP1 PUSH2 0x52BB JUMP JUMPDEST CALLVALUE DUP1 ISZERO PUSH2 0x8D5 JUMPI PUSH1 0x0 DUP1 REVERT JUMPDEST POP PUSH2 0x424 PUSH2 0x8E4 CALLDATASIZE PUSH1 0x4 PUSH2 0x4EB9 JUMP JUMPDEST PUSH2 0x1B1F JUMP JUMPDEST CALLVALUE DUP1 ISZERO PUSH2 0x8F5 JUMPI PUSH1 0x0 DUP1 REVERT JUMPDEST POP PUSH2 0x424 PUSH2 0x904 CALLDATASIZE PUSH1 0x4 PUSH2 0x4E2C JUMP JUMPDEST PUSH2 0x1C13 JUMP JUMPDEST CALLVALUE DUP1 ISZERO PUSH2 0x915 JUMPI PUSH1 0x0 DUP1 REVERT JUMPDEST POP PUSH2 0x394 PUSH2 0x924 CALLDATASIZE PUSH1 0x4 PUSH2 0x52F3 JUMP JUMPDEST PUSH2 0x1D41 JUMP JUMPDEST CALLVALUE DUP1 ISZERO PUSH2 0x935 JUMPI PUSH1 0x0 DUP1 REVERT JUMPDEST POP PUSH1 0x2 SLOAD PUSH2 0x424 JUMP JUMPDEST CALLVALUE DUP1 ISZERO PUSH2 0x94A JUMPI PUSH1 0x0 DUP1 REVERT JUMPDEST POP PUSH1 0x49 SLOAD PUSH1 0x1 PUSH1 0xA0 SHL SWAP1 DIV PUSH1 0xFF AND PUSH2 0x394 JUMP JUMPDEST CALLVALUE DUP1 ISZERO PUSH2 0x969 JUMPI PUSH1 0x0 DUP1 REVERT JUMPDEST POP PUSH2 0x424 PUSH2 0x978 CALLDATASIZE PUSH1 0x4 PUSH2 0x4E2C JUMP JUMPDEST PUSH2 0x1F36 JUMP JUMPDEST CALLVALUE DUP1 ISZERO PUSH2 0x989 JUMPI PUSH1 0x0 DUP1 REVERT JUMPDEST POP PUSH2 0x424 PUSH2 0x998 CALLDATASIZE PUSH1 0x4 PUSH2 0x4EFA JUMP JUMPDEST PUSH2 0x1FB4 JUMP JUMPDEST CALLVALUE DUP1 ISZERO PUSH2 0x9A9 JUMPI PUSH1 0x0 DUP1 REVERT JUMPDEST POP PUSH2 0x394 PUSH2 0x9B8 CALLDATASIZE PUSH1 0x4 PUSH2 0x4E2C JUMP JUMPDEST PUSH2 0x1FD0 JUMP JUMPDEST CALLVALUE DUP1 ISZERO PUSH2 0x9C9 JUMPI PUSH1 0x0 DUP1 REVERT JUMPDEST POP PUSH1 0x0 SLOAD PUSH1 0x1 PUSH1 0x1 PUSH1 0xA0 SHL SUB AND PUSH2 0x632 JUMP JUMPDEST CALLVALUE DUP1 ISZERO PUSH2 0x9E7 JUMPI PUSH1 0x0 DUP1 REVERT JUMPDEST POP PUSH1 0x4 SLOAD PUSH1 0xFF AND PUSH2 0x394 JUMP JUMPDEST CALLVALUE DUP1 ISZERO PUSH2 0x9FF JUMPI PUSH1 0x0 DUP1 REVERT JUMPDEST POP PUSH2 0x394 PUSH2 0xA0E CALLDATASIZE PUSH1 0x4 PUSH2 0x539C JUMP JUMPDEST PUSH2 0x201F JUMP JUMPDEST CALLVALUE DUP1 ISZERO PUSH2 0xA1F JUMPI PUSH1 0x0 DUP1 REVERT JUMPDEST POP PUSH1 0x3 SLOAD PUSH2 0x424 JUMP JUMPDEST CALLVALUE DUP1 ISZERO PUSH2 0xA34 JUMPI PUSH1 0x0 DUP1 REVERT JUMPDEST POP PUSH2 0x394 PUSH2 0xA43 CALLDATASIZE PUSH1 0x4 PUSH2 0x4E58 JUMP JUMPDEST PUSH2 0x2AA3 JUMP JUMPDEST CALLVALUE DUP1 ISZERO PUSH2 0xA54 JUMPI PUSH1 0x0 DUP1 REVERT JUMPDEST POP PUSH2 0x424 PUSH2 0xA63 CALLDATASIZE PUSH1 0x4 PUSH2 0x53BE JUMP JUMPDEST PUSH2 0x2C1D JUMP JUMPDEST CALLVALUE DUP1 ISZERO PUSH2 0xA74 JUMPI PUSH1 0x0 DUP1 REVERT JUMPDEST POP PUSH2 0x7B2 PUSH2 0x2C29 JUMP JUMPDEST CALLVALUE DUP1 ISZERO PUSH2 0xA89 JUMPI PUSH1 0x0 DUP1 REVERT JUMPDEST POP PUSH2 0x372 PUSH2 0xA98 CALLDATASIZE PUSH1 0x4 PUSH2 0x53EC JUMP JUMPDEST PUSH2 0x2C35 JUMP JUMPDEST CALLVALUE DUP1 ISZERO PUSH2 0xAA9 JUMPI PUSH1 0x0 DUP1 REVERT JUMPDEST POP PUSH2 0x424 PUSH2 0x3037 JUMP JUMPDEST CALLVALUE DUP1 ISZERO PUSH2 0xABE JUMPI PUSH1 0x0 DUP1 REVERT JUMPDEST POP PUSH2 0x632 PUSH2 0x3041 JUMP JUMPDEST CALLVALUE DUP1 ISZERO PUSH2 0xAD3 JUMPI PUSH1 0x0 DUP1 REVERT JUMPDEST POP PUSH2 0x394 PUSH2 0xAE2 CALLDATASIZE PUSH1 0x4 PUSH2 0x51FF JUMP JUMPDEST PUSH2 0x304B JUMP JUMPDEST CALLVALUE DUP1 ISZERO PUSH2 0xAF3 JUMPI PUSH1 0x0 DUP1 REVERT JUMPDEST POP PUSH2 0x424 PUSH2 0xB02 CALLDATASIZE PUSH1 0x4 PUSH2 0x5426 JUMP JUMPDEST PUSH2 0x3125 JUMP JUMPDEST PUSH1 0x0 PUSH1 0x1 PUSH1 0x1 PUSH1 0xE0 SHL SUB NOT DUP3 AND PUSH4 0x4A174591 PUSH1 0xE1 SHL EQ DUP1 PUSH2 0xB38 JUMPI POP PUSH1 0x1 PUSH1 0x1 PUSH1 0xE0 SHL SUB NOT DUP3 AND PUSH4 0xE3A31A9D PUSH1 0xE0 SHL EQ JUMPDEST DUP1 PUSH2 0xB53 JUMPI POP PUSH1 0x1 PUSH1 0x1 PUSH1 0xE0 SHL SUB NOT DUP3 AND PUSH4 0x6B88D515 PUSH1 0xE1 SHL EQ JUMPDEST DUP1 PUSH2 0xB6D JUMPI POP PUSH1 0x1 PUSH1 0x1 PUSH1 0xE0 SHL SUB NOT DUP3 AND PUSH3 0x7B7207 PUSH1 0xE9 SHL EQ JUMPDEST DUP1 PUSH2 0xB7C JUMPI POP PUSH2 0xB7C DUP3 PUSH2 0x314E JUMP JUMPDEST SWAP3 SWAP2 POP POP JUMP JUMPDEST PUSH1 0x60 PUSH1 0x45 DUP1 SLOAD PUSH2 0xB91 SWAP1 PUSH2 0x5460 JUMP JUMPDEST DUP1 PUSH1 0x1F ADD PUSH1 0x20 DUP1 SWAP2 DIV MUL PUSH1 0x20 ADD PUSH1 0x40 MLOAD SWAP1 DUP2 ADD PUSH1 0x40 MSTORE DUP1 SWAP3 SWAP2 SWAP1 DUP2 DUP2 MSTORE PUSH1 0x20 ADD DUP3 DUP1 SLOAD PUSH2 0xBBD SWAP1 PUSH2 0x5460 JUMP JUMPDEST DUP1 ISZERO PUSH2 0xC0A JUMPI DUP1 PUSH1 0x1F LT PUSH2 0xBDF JUMPI PUSH2 0x100 DUP1 DUP4 SLOAD DIV MUL DUP4 MSTORE SWAP2 PUSH1 0x20 ADD SWAP2 PUSH2 0xC0A JUMP JUMPDEST DUP3 ADD SWAP2 SWAP1 PUSH1 0x0 MSTORE PUSH1 0x20 PUSH1 0x0 KECCAK256 SWAP1 JUMPDEST DUP2 SLOAD DUP2 MSTORE SWAP1 PUSH1 0x1 ADD SWAP1 PUSH1 0x20 ADD DUP1 DUP4 GT PUSH2 0xBED JUMPI DUP3 SWAP1 SUB PUSH1 0x1F AND DUP3 ADD SWAP2 JUMPDEST POP POP POP POP POP SWAP1 POP SWAP1 JUMP JUMPDEST PUSH1 0x0 PUSH2 0xC2B PUSH4 0x95EA7B3 PUSH1 0xE0 SHL CALLER JUMPDEST PUSH1 0x1 DUP1 PUSH2 0x319E JUMP JUMPDEST PUSH2 0xC36 CALLER DUP5 DUP5 PUSH2 0x329C JUMP JUMPDEST POP PUSH1 0x1 SWAP3 SWAP2 POP POP JUMP JUMPDEST PUSH1 0x0 PUSH2 0xC52 PUSH4 0x28AB439 PUSH1 0xE3 SHL CALLER PUSH2 0xC23 JUMP JUMPDEST PUSH1 0x0 DUP1 JUMPDEST DUP4 DUP2 LT ISZERO PUSH2 0xC9D JUMPI PUSH2 0xC7F DUP6 DUP6 DUP4 DUP2 DUP2 LT PUSH2 0xC73 JUMPI PUSH2 0xC73 PUSH2 0x5494 JUMP JUMPDEST SWAP1 POP PUSH1 0x20 MUL ADD CALLDATALOAD PUSH2 0x33A2 JUMP JUMPDEST PUSH2 0xC89 SWAP1 DUP4 PUSH2 0x54C0 JUMP JUMPDEST SWAP2 POP DUP1 PUSH2 0xC95 DUP2 PUSH2 0x54D3 JUMP JUMPDEST SWAP2 POP POP PUSH2 0xC56 JUMP JUMPDEST POP PUSH1 0x40 MLOAD DUP2 DUP2 MSTORE CALLER SWAP1 PUSH32 0xF816CE3B3A52BD5C96A6AC9D4404D206F4E9D482FFA303AFBF0DBEEA2957F59A SWAP1 PUSH1 0x20 ADD JUMPDEST PUSH1 0x40 MLOAD DUP1 SWAP2 SUB SWAP1 LOG2 SWAP4 SWAP3 POP POP POP JUMP JUMPDEST PUSH1 0x0 PUSH2 0xCF0 PUSH4 0xBFEE647 PUSH1 0xE1 SHL DUP3 DUP1 DUP1 PUSH2 0x319E JUMP JUMPDEST PUSH1 0x48 DUP3 SWAP1 SSTORE PUSH1 0x40 MLOAD DUP3 DUP2 MSTORE CALLER SWAP1 PUSH32 0xB7902185AC0A79231C8BE85F0EE0D94806D95D785D216824A078279F5D5BFBAE SWAP1 PUSH1 0x20 ADD PUSH1 0x40 MLOAD DUP1 SWAP2 SUB SWAP1 LOG2 POP PUSH1 0x1 SWAP2 SWAP1 POP JUMP JUMPDEST PUSH1 0x0 PUSH2 0xD48 PUSH4 0x38D251D PUSH1 0xE3 SHL DUP3 PUSH1 0x1 DUP2 PUSH2 0x319E JUMP JUMPDEST PUSH1 0x0 DUP1 JUMPDEST DUP4 DUP2 LT ISZERO PUSH2 0xE5F JUMPI PUSH2 0xD87 DUP6 DUP6 DUP4 DUP2 DUP2 LT PUSH2 0xD69 JUMPI PUSH2 0xD69 PUSH2 0x5494 JUMP JUMPDEST PUSH2 0xD7F SWAP3 PUSH1 0x20 PUSH1 0x60 SWAP1 SWAP3 MUL ADD SWAP1 DUP2 ADD SWAP2 POP PUSH2 0x4E58 JUMP JUMPDEST PUSH1 0x4D SWAP1 PUSH2 0x3489 JUMP JUMPDEST ISZERO PUSH2 0xDAD JUMPI PUSH1 0x40 MLOAD PUSH3 0x461BCD PUSH1 0xE5 SHL DUP2 MSTORE PUSH1 0x4 ADD PUSH2 0xDA4 SWAP1 PUSH2 0x54EC JUMP JUMPDEST PUSH1 0x40 MLOAD DUP1 SWAP2 SUB SWAP1 REVERT JUMPDEST DUP5 DUP5 DUP3 DUP2 DUP2 LT PUSH2 0xDBF JUMPI PUSH2 0xDBF PUSH2 0x5494 JUMP JUMPDEST SWAP1 POP PUSH1 0x60 MUL ADD PUSH1 0x40 ADD CALLDATALOAD DUP3 PUSH2 0xDD4 SWAP2 SWAP1 PUSH2 0x54C0 JUMP JUMPDEST SWAP2 POP PUSH2 0xE4C DUP6 DUP6 DUP4 DUP2 DUP2 LT PUSH2 0xDEB JUMPI PUSH2 0xDEB PUSH2 0x5494 JUMP JUMPDEST PUSH2 0xE01 SWAP3 PUSH1 0x20 PUSH1 0x60 SWAP1 SWAP3 MUL ADD SWAP1 DUP2 ADD SWAP2 POP PUSH2 0x4E58 JUMP JUMPDEST DUP7 DUP7 DUP5 DUP2 DUP2 LT PUSH2 0xE13 JUMPI PUSH2 0xE13 PUSH2 0x5494 JUMP JUMPDEST SWAP1 POP PUSH1 0x60 MUL ADD PUSH1 0x20 ADD PUSH1 0x20 DUP2 ADD SWAP1 PUSH2 0xE2B SWAP2 SWAP1 PUSH2 0x4E58 JUMP JUMPDEST DUP8 DUP8 DUP6 DUP2 DUP2 LT PUSH2 0xE3D JUMPI PUSH2 0xE3D PUSH2 0x5494 JUMP JUMPDEST SWAP1 POP PUSH1 0x60 MUL ADD PUSH1 0x40 ADD CALLDATALOAD PUSH2 0x34AB JUMP JUMPDEST POP DUP1 PUSH2 0xE57 DUP2 PUSH2 0x54D3 JUMP JUMPDEST SWAP2 POP POP PUSH2 0xD4C JUMP JUMPDEST POP PUSH1 0x40 MLOAD DUP2 DUP2 MSTORE CALLER SWAP1 PUSH32 0x208FDF04989D654CC491D69BE8EB64992C7B7407E34A6AC73E7C0361D0591EFF SWAP1 PUSH1 0x20 ADD JUMPDEST PUSH1 0x40 MLOAD DUP1 SWAP2 SUB SWAP1 LOG2 POP PUSH1 0x1 SWAP4 SWAP3 POP POP POP JUMP JUMPDEST PUSH1 0x0 PUSH2 0xEB6 PUSH4 0x23B872DD PUSH1 0xE0 SHL DUP6 PUSH1 0x1 DUP1 PUSH2 0x319E JUMP JUMPDEST PUSH2 0xEC1 DUP5 DUP5 DUP5 PUSH2 0x34AB JUMP JUMPDEST SWAP1 POP JUMPDEST SWAP4 SWAP3 POP POP POP JUMP JUMPDEST PUSH1 0x0 PUSH2 0xEDA PUSH1 0x51 SLOAD PUSH2 0xFFFF AND SWAP1 JUMP JUMPDEST SWAP1 POP SWAP1 JUMP JUMPDEST PUSH1 0x0 PUSH2 0xEF2 PUSH4 0x39509351 PUSH1 0xE0 SHL CALLER PUSH2 0xC23 JUMP JUMPDEST CALLER PUSH1 0x0 DUP4 PUSH2 0xF00 DUP4 DUP8 PUSH2 0x3554 JUMP JUMPDEST PUSH2 0xF0A SWAP2 SWAP1 PUSH2 0x54C0 JUMP JUMPDEST SWAP1 POP PUSH2 0xF17 DUP3 DUP7 DUP4 PUSH2 0x329C JUMP JUMPDEST DUP5 PUSH1 0x1 PUSH1 0x1 PUSH1 0xA0 SHL SUB AND DUP3 PUSH1 0x1 PUSH1 0x1 PUSH1 0xA0 SHL SUB AND PUSH32 0x865EA570C20F0FE0AE579EC567FA79D57A683390554593DC070EA0DCD5F466FB DUP7 PUSH1 0x40 MLOAD PUSH2 0xF5C SWAP2 DUP2 MSTORE PUSH1 0x20 ADD SWAP1 JUMP JUMPDEST PUSH1 0x40 MLOAD DUP1 SWAP2 SUB SWAP1 LOG3 SWAP5 SWAP4 POP POP POP POP JUMP JUMPDEST PUSH1 0x0 PUSH2 0xF82 PUSH4 0x40C10F19 PUSH1 0xE0 SHL DUP5 PUSH1 0x1 DUP1 PUSH2 0x319E JUMP JUMPDEST PUSH2 0xEC4 DUP4 DUP4 PUSH2 0x357F JUMP JUMPDEST PUSH1 0x0 PUSH1 0x1 PUSH1 0x1 PUSH1 0xA0 SHL SUB PUSH32 0x0 AND ADDRESS SUB PUSH2 0xFD6 JUMPI PUSH1 0x40 MLOAD PUSH3 0x461BCD PUSH1 0xE5 SHL DUP2 MSTORE PUSH1 0x4 ADD PUSH2 0xDA4 SWAP1 PUSH2 0x5523 JUMP JUMPDEST PUSH32 0x0 PUSH1 0x1 PUSH1 0x1 PUSH1 0xA0 SHL SUB AND PUSH2 0x1008 PUSH2 0x363F JUMP JUMPDEST PUSH1 0x1 PUSH1 0x1 PUSH1 0xA0 SHL SUB AND EQ PUSH2 0x102E JUMPI PUSH1 0x40 MLOAD PUSH3 0x461BCD PUSH1 0xE5 SHL DUP2 MSTORE PUSH1 0x4 ADD PUSH2 0xDA4 SWAP1 PUSH2 0x5552 JUMP JUMPDEST PUSH1 0x0 PUSH2 0x103D PUSH1 0x51 SLOAD PUSH2 0xFFFF AND SWAP1 JUMP JUMPDEST PUSH2 0xFFFF AND GT PUSH2 0x108E JUMPI PUSH1 0x40 MLOAD PUSH3 0x461BCD PUSH1 0xE5 SHL DUP2 MSTORE PUSH1 0x20 PUSH1 0x4 DUP3 ADD MSTORE PUSH1 0x18 PUSH1 0x24 DUP3 ADD MSTORE PUSH32 0x436F6E7472616374204E6F7420496E697469616C697A65640000000000000000 PUSH1 0x44 DUP3 ADD MSTORE PUSH1 0x64 ADD PUSH2 0xDA4 JUMP JUMPDEST PUSH2 0x109E PUSH4 0x225BF2F9 PUSH1 0xE1 SHL PUSH2 0x3660 JUMP JUMPDEST PUSH2 0x10E2 JUMPI PUSH1 0x40 MLOAD PUSH3 0x461BCD PUSH1 0xE5 SHL DUP2 MSTORE PUSH1 0x20 PUSH1 0x4 DUP3 ADD MSTORE PUSH1 0x15 PUSH1 0x24 DUP3 ADD MSTORE PUSH21 0x29B2BA29B0B332A6B7B232902337B93134B23232B7 PUSH1 0x59 SHL PUSH1 0x44 DUP3 ADD MSTORE PUSH1 0x64 ADD PUSH2 0xDA4 JUMP JUMPDEST PUSH1 0x4 DUP1 SLOAD PUSH1 0xFF NOT AND DUP4 ISZERO ISZERO OR SWAP1 SSTORE PUSH1 0x3 SLOAD ADDRESS CALLER PUSH1 0x1 PUSH1 0x1 PUSH1 0xA0 SHL SUB AND PUSH32 0xDD452A31D2E164A1EA436C084842C27D24AE2548A575A869F71B05A4ED16243F DUP6 PUSH1 0x40 MLOAD PUSH2 0x1131 SWAP2 ISZERO ISZERO DUP2 MSTORE PUSH1 0x20 ADD SWAP1 JUMP JUMPDEST PUSH1 0x40 MLOAD DUP1 SWAP2 SUB SWAP1 LOG4 POP DUP1 JUMPDEST SWAP2 SWAP1 POP JUMP JUMPDEST PUSH1 0x0 PUSH2 0x1156 PUSH4 0x11A98D35 PUSH1 0xE2 SHL DUP3 DUP1 DUP1 PUSH2 0x319E JUMP JUMPDEST PUSH2 0xEC4 DUP4 DUP4 PUSH2 0x37C7 JUMP JUMPDEST PUSH1 0x0 PUSH1 0x1 PUSH1 0x1 PUSH1 0xA0 SHL SUB PUSH32 0x0 AND ADDRESS SUB PUSH2 0x11AA JUMPI PUSH1 0x40 MLOAD PUSH3 0x461BCD PUSH1 0xE5 SHL DUP2 MSTORE PUSH1 0x4 ADD PUSH2 0xDA4 SWAP1 PUSH2 0x5523 JUMP JUMPDEST PUSH32 0x0 PUSH1 0x1 PUSH1 0x1 PUSH1 0xA0 SHL SUB AND PUSH2 0x11DC PUSH2 0x363F JUMP JUMPDEST PUSH1 0x1 PUSH1 0x1 PUSH1 0xA0 SHL SUB AND EQ PUSH2 0x1202 JUMPI PUSH1 0x40 MLOAD PUSH3 0x461BCD PUSH1 0xE5 SHL DUP2 MSTORE PUSH1 0x4 ADD PUSH2 0xDA4 SWAP1 PUSH2 0x5552 JUMP JUMPDEST PUSH1 0x4 SLOAD PUSH1 0xFF AND ISZERO PUSH2 0x1225 JUMPI PUSH1 0x40 MLOAD PUSH3 0x461BCD PUSH1 0xE5 SHL DUP2 MSTORE PUSH1 0x4 ADD PUSH2 0xDA4 SWAP1 PUSH2 0x5580 JUMP JUMPDEST PUSH2 0x1235 PUSH4 0x1239AF87 PUSH1 0xE2 SHL PUSH2 0x3660 JUMP JUMPDEST PUSH2 0x1281 JUMPI PUSH1 0x40 MLOAD PUSH3 0x461BCD PUSH1 0xE5 SHL DUP2 MSTORE PUSH1 0x20 PUSH1 0x4 DUP3 ADD MSTORE PUSH1 0x1A PUSH1 0x24 DUP3 ADD MSTORE PUSH32 0x5365745570677261646553746174757320466F7262696464656E000000000000 PUSH1 0x44 DUP3 ADD MSTORE PUSH1 0x64 ADD PUSH2 0xDA4 JUMP JUMPDEST PUSH2 0x1289 PUSH2 0x38A3 JUMP JUMPDEST PUSH2 0x12D5 JUMPI PUSH1 0x40 MLOAD PUSH3 0x461BCD PUSH1 0xE5 SHL DUP2 MSTORE PUSH1 0x20 PUSH1 0x4 DUP3 ADD MSTORE PUSH1 0x17 PUSH1 0x24 DUP3 ADD MSTORE PUSH32 0x5265616C6D205570677261646520466F7262696464656E000000000000000000 PUSH1 0x44 DUP3 ADD MSTORE PUSH1 0x64 ADD PUSH2 0xDA4 JUMP JUMPDEST PUSH1 0x4 DUP1 SLOAD PUSH2 0xFF00 NOT AND PUSH2 0x100 DUP5 ISZERO ISZERO MUL OR SWAP1 SSTORE PUSH1 0x3 SLOAD ADDRESS CALLER PUSH1 0x1 PUSH1 0x1 PUSH1 0xA0 SHL SUB AND PUSH32 0xE9F97AD94C2BA252DCFC525E004F608AC5CB886955D8FC87D9E0EE070A698C56 DUP6 PUSH1 0x40 MLOAD PUSH2 0x1131 SWAP2 ISZERO ISZERO DUP2 MSTORE PUSH1 0x20 ADD SWAP1 JUMP JUMPDEST PUSH1 0x1 PUSH1 0x1 PUSH1 0xA0 SHL SUB DUP2 AND PUSH1 0x0 SWAP1 DUP2 MSTORE PUSH1 0x4A PUSH1 0x20 MSTORE PUSH1 0x40 DUP2 KECCAK256 DUP1 SLOAD PUSH1 0x1 SWAP1 SWAP2 ADD SLOAD PUSH2 0xB7C SWAP2 SWAP1 PUSH2 0x54C0 JUMP JUMPDEST PUSH1 0x0 ADDRESS PUSH1 0x1 PUSH1 0x1 PUSH1 0xA0 SHL SUB PUSH32 0x0 AND EQ PUSH2 0x13CD JUMPI PUSH1 0x40 MLOAD PUSH3 0x461BCD PUSH1 0xE5 SHL DUP2 MSTORE PUSH1 0x20 PUSH1 0x4 DUP3 ADD MSTORE PUSH1 0x1D PUSH1 0x24 DUP3 ADD MSTORE PUSH32 0x496C6C6567616C20436F6E74726163742044656C656761746563616C6C000000 PUSH1 0x44 DUP3 ADD MSTORE PUSH1 0x64 ADD PUSH2 0xDA4 JUMP JUMPDEST POP PUSH1 0x0 DUP1 MLOAD PUSH1 0x20 PUSH2 0x5D90 DUP4 CODECOPY DUP2 MLOAD SWAP2 MSTORE SWAP1 JUMP JUMPDEST PUSH2 0x13F4 PUSH4 0x57B001F9 PUSH1 0xE0 SHL PUSH1 0x0 DUP1 DUP1 PUSH2 0x319E JUMP JUMPDEST PUSH1 0x1 PUSH1 0x1 PUSH1 0xA0 SHL SUB DUP2 AND PUSH2 0x141A JUMPI PUSH1 0x40 MLOAD PUSH3 0x461BCD PUSH1 0xE5 SHL DUP2 MSTORE PUSH1 0x4 ADD PUSH2 0xDA4 SWAP1 PUSH2 0x55B7 JUMP JUMPDEST PUSH2 0x1425 PUSH1 0x4D DUP3 PUSH2 0x3489 JUMP JUMPDEST PUSH2 0x1465 JUMPI PUSH1 0x40 MLOAD PUSH3 0x461BCD PUSH1 0xE5 SHL DUP2 MSTORE PUSH1 0x20 PUSH1 0x4 DUP3 ADD MSTORE PUSH1 0x11 PUSH1 0x24 DUP3 ADD MSTORE PUSH17 0x1058D8DBDD5B9D08139BDD08119BDD5B99 PUSH1 0x7A SHL PUSH1 0x44 DUP3 ADD MSTORE PUSH1 0x64 ADD PUSH2 0xDA4 JUMP JUMPDEST PUSH2 0x1470 PUSH1 0x4D DUP3 PUSH2 0x39DF JUMP JUMPDEST POP PUSH1 0x40 MLOAD PUSH1 0x1 PUSH1 0x1 PUSH1 0xA0 SHL SUB DUP3 AND SWAP1 CALLER SWAP1 PUSH32 0x3D072963433794EB417A69355DF67D08BBD73D5076EF653D6863861161D60AF3 SWAP1 PUSH1 0x0 SWAP1 LOG3 POP JUMP JUMPDEST PUSH1 0x0 PUSH2 0xEDA PUSH2 0x363F JUMP JUMPDEST PUSH2 0x14C8 PUSH4 0x595C6A67 PUSH1 0xE0 SHL PUSH1 0x0 DUP1 DUP1 PUSH2 0x319E JUMP JUMPDEST PUSH1 0x49 DUP1 SLOAD PUSH1 0xFF PUSH1 0xA0 SHL NOT AND PUSH1 0x1 PUSH1 0xA0 SHL OR SWAP1 SSTORE PUSH2 0x14E2 CALLER SWAP1 JUMP JUMPDEST PUSH1 0x1 PUSH1 0x1 PUSH1 0xA0 SHL SUB AND PUSH32 0xF1005168AEA1429FE9559D51EF6CAA33E6426890864E2E6E41E5D54BAA7BE79F PUSH1 0x40 MLOAD PUSH1 0x40 MLOAD DUP1 SWAP2 SUB SWAP1 LOG2 JUMP JUMPDEST PUSH1 0x0 PUSH1 0x1 PUSH1 0x1 PUSH1 0xA0 SHL SUB DUP3 AND ISZERO DUP1 ISZERO SWAP1 PUSH2 0xB7C JUMPI POP PUSH2 0xB7C PUSH1 0x4D DUP4 PUSH2 0x3489 JUMP JUMPDEST PUSH1 0x0 PUSH2 0x1553 PUSH4 0x35C1CA49 PUSH1 0xE1 SHL PUSH2 0xC23 PUSH1 0x20 DUP6 ADD DUP6 PUSH2 0x4E58 JUMP JUMPDEST PUSH2 0xB7C DUP3 PUSH2 0x39F4 JUMP JUMPDEST PUSH1 0x1 PUSH1 0x1 PUSH1 0xA0 SHL SUB DUP2 AND PUSH1 0x0 SWAP1 DUP2 MSTORE PUSH1 0x4A PUSH1 0x20 MSTORE PUSH1 0x40 DUP2 KECCAK256 PUSH1 0x2 ADD SLOAD PUSH2 0xB7C JUMP JUMPDEST PUSH1 0x60 PUSH1 0x1 PUSH1 0x1 PUSH1 0xA0 SHL SUB PUSH32 0x0 AND ADDRESS SUB PUSH2 0x15C7 JUMPI PUSH1 0x40 MLOAD PUSH3 0x461BCD PUSH1 0xE5 SHL DUP2 MSTORE PUSH1 0x4 ADD PUSH2 0xDA4 SWAP1 PUSH2 0x5523 JUMP JUMPDEST PUSH32 0x0 PUSH1 0x1 PUSH1 0x1 PUSH1 0xA0 SHL SUB AND PUSH2 0x15F9 PUSH2 0x363F JUMP JUMPDEST PUSH1 0x1 PUSH1 0x1 PUSH1 0xA0 SHL SUB AND EQ PUSH2 0x161F JUMPI PUSH1 0x40 MLOAD PUSH3 0x461BCD PUSH1 0xE5 SHL DUP2 MSTORE PUSH1 0x4 ADD PUSH2 0xDA4 SWAP1 PUSH2 0x5552 JUMP JUMPDEST PUSH1 0x4 SLOAD PUSH1 0xFF AND ISZERO PUSH2 0x1642 JUMPI PUSH1 0x40 MLOAD PUSH3 0x461BCD PUSH1 0xE5 SHL DUP2 MSTORE PUSH1 0x4 ADD PUSH2 0xDA4 SWAP1 PUSH2 0x5580 JUMP JUMPDEST PUSH1 0x4 SLOAD PUSH2 0x100 SWAP1 DIV PUSH1 0xFF AND PUSH2 0x1691 JUMPI PUSH1 0x40 MLOAD PUSH3 0x461BCD PUSH1 0xE5 SHL DUP2 MSTORE PUSH1 0x20 PUSH1 0x4 DUP3 ADD MSTORE PUSH1 0x15 PUSH1 0x24 DUP3 ADD MSTORE PUSH21 0x155C19DC9859194810D85B1B0814995A9958DD1959 PUSH1 0x5A SHL PUSH1 0x44 DUP3 ADD MSTORE PUSH1 0x64 ADD PUSH2 0xDA4 JUMP JUMPDEST PUSH2 0x169A DUP5 PUSH2 0x3AEA JUMP JUMPDEST PUSH2 0xEC1 DUP5 DUP5 DUP5 PUSH2 0x3BB1 JUMP JUMPDEST PUSH1 0x4 SLOAD PUSH1 0xFF AND ISZERO PUSH2 0x16C8 JUMPI PUSH1 0x40 MLOAD PUSH3 0x461BCD PUSH1 0xE5 SHL DUP2 MSTORE PUSH1 0x4 ADD PUSH2 0xDA4 SWAP1 PUSH2 0x5580 JUMP JUMPDEST PUSH2 0x16D8 PUSH4 0x756AF45F PUSH1 0xE0 SHL PUSH2 0x3660 JUMP JUMPDEST PUSH2 0x1724 JUMPI PUSH1 0x40 MLOAD PUSH3 0x461BCD PUSH1 0xE5 SHL DUP2 MSTORE PUSH1 0x20 PUSH1 0x4 DUP3 ADD MSTORE PUSH1 0x1A PUSH1 0x24 DUP3 ADD MSTORE PUSH32 0x57697468647261772042616C616E636520466F7262696464656E000000000000 PUSH1 0x44 DUP3 ADD MSTORE PUSH1 0x64 ADD PUSH2 0xDA4 JUMP JUMPDEST PUSH1 0x40 MLOAD PUSH1 0x1 PUSH1 0x1 PUSH1 0xA0 SHL SUB DUP3 AND SWAP1 SELFBALANCE DUP1 ISZERO PUSH2 0x8FC MUL SWAP2 PUSH1 0x0 DUP2 DUP2 DUP2 DUP6 DUP9 DUP9 CALL SWAP4 POP POP POP POP ISZERO DUP1 ISZERO PUSH2 0x1759 JUMPI RETURNDATASIZE PUSH1 0x0 DUP1 RETURNDATACOPY RETURNDATASIZE PUSH1 0x0 REVERT JUMPDEST POP POP JUMP JUMPDEST PUSH2 0x1771 PUSH4 0x76A67A51 PUSH1 0xE0 SHL PUSH1 0x0 DUP1 DUP1 PUSH2 0x319E JUMP JUMPDEST PUSH1 0x1 PUSH1 0x1 PUSH1 0xA0 SHL SUB DUP2 AND PUSH2 0x1797 JUMPI PUSH1 0x40 MLOAD PUSH3 0x461BCD PUSH1 0xE5 SHL DUP2 MSTORE PUSH1 0x4 ADD PUSH2 0xDA4 SWAP1 PUSH2 0x55B7 JUMP JUMPDEST PUSH2 0x17A2 PUSH1 0x4D DUP3 PUSH2 0x3489 JUMP JUMPDEST ISZERO PUSH2 0x17E8 JUMPI PUSH1 0x40 MLOAD PUSH3 0x461BCD PUSH1 0xE5 SHL DUP2 MSTORE PUSH1 0x20 PUSH1 0x4 DUP3 ADD MSTORE PUSH1 0x16 PUSH1 0x24 DUP3 ADD MSTORE PUSH22 0x1058D8DBDD5B9D08105B1C9958591E4814185D5CD959 PUSH1 0x52 SHL PUSH1 0x44 DUP3 ADD MSTORE PUSH1 0x64 ADD PUSH2 0xDA4 JUMP JUMPDEST PUSH2 0x17F3 PUSH1 0x4D DUP3 PUSH2 0x3E02 JUMP JUMPDEST POP PUSH1 0x40 MLOAD PUSH1 0x1 PUSH1 0x1 PUSH1 0xA0 SHL SUB DUP3 AND SWAP1 CALLER SWAP1 PUSH32 0x3DD4F37CA5EAF6C357698A52C806820426D7C9A26ADB0991C3BEBB09CF23352A SWAP1 PUSH1 0x0 SWAP1 LOG3 POP JUMP JUMPDEST PUSH1 0x60 PUSH2 0xEDA PUSH1 0x4F PUSH2 0x3E17 JUMP JUMPDEST PUSH2 0x184D PUSH4 0x7D35F355 PUSH1 0xE0 SHL PUSH1 0x0 DUP1 DUP1 PUSH2 0x319E JUMP JUMPDEST PUSH1 0x0 JUMPDEST DUP2 DUP2 LT ISZERO PUSH2 0x18C5 JUMPI PUSH2 0x18B2 DUP4 DUP4 DUP4 DUP2 DUP2 LT PUSH2 0x186D JUMPI PUSH2 0x186D PUSH2 0x5494 JUMP JUMPDEST PUSH2 0x1883 SWAP3 PUSH1 0x20 PUSH1 0x40 SWAP1 SWAP3 MUL ADD SWAP1 DUP2 ADD SWAP2 POP PUSH2 0x4E58 JUMP JUMPDEST DUP5 DUP5 DUP5 DUP2 DUP2 LT PUSH2 0x1895 JUMPI PUSH2 0x1895 PUSH2 0x5494 JUMP JUMPDEST SWAP1 POP PUSH1 0x40 MUL ADD PUSH1 0x20 ADD PUSH1 0x20 DUP2 ADD SWAP1 PUSH2 0x18AD SWAP2 SWAP1 PUSH2 0x4FE1 JUMP JUMPDEST PUSH2 0x37C7 JUMP JUMPDEST POP DUP1 PUSH2 0x18BD DUP2 PUSH2 0x54D3 JUMP JUMPDEST SWAP2 POP POP PUSH2 0x1850 JUMP JUMPDEST POP POP POP JUMP JUMPDEST PUSH1 0x0 PUSH2 0xEDA ADDRESS PUSH2 0x3E24 JUMP JUMPDEST PUSH2 0x18E9 PUSH4 0x8A2DDD03 PUSH1 0xE0 SHL PUSH1 0x0 DUP1 DUP1 PUSH2 0x319E JUMP JUMPDEST PUSH1 0x49 DUP1 SLOAD PUSH1 0xFF PUSH1 0xA0 SHL NOT AND SWAP1 SSTORE PUSH1 0x40 MLOAD CALLER SWAP1 PUSH32 0x3C1FB1FD79EE84E55A8FE78554C432EF36EA033A9245CE4B650BD824A12554D3 SWAP1 PUSH1 0x0 SWAP1 LOG2 JUMP JUMPDEST PUSH1 0x1 PUSH1 0x1 PUSH1 0xA0 SHL SUB DUP2 DUP2 AND PUSH1 0x0 SWAP1 DUP2 MSTORE PUSH1 0x4C PUSH1 0x20 SWAP1 DUP2 MSTORE PUSH1 0x40 DUP1 DUP4 KECCAK256 DUP7 DUP5 MSTORE SWAP1 SWAP2 MSTORE DUP2 KECCAK256 DUP1 SLOAD PUSH1 0x1 DUP3 ADD SLOAD PUSH1 0x2 DUP4 ADD SLOAD SWAP4 SWAP5 DUP6 SWAP5 DUP6 SWAP5 DUP6 SWAP5 DUP6 SWAP5 SWAP2 SWAP4 SWAP1 SWAP3 PUSH1 0x1 PUSH1 0x1 PUSH1 0x80 SHL SUB DUP1 DUP5 AND SWAP4 PUSH1 0x1 PUSH1 0x80 SHL SWAP1 DIV AND SWAP2 DUP2 AND SWAP1 PUSH1 0x1 PUSH1 0xA0 SHL SWAP1 DIV PUSH1 0xFF AND PUSH1 0x3 DUP2 GT ISZERO PUSH2 0x1994 JUMPI PUSH2 0x1994 PUSH2 0x55EE JUMP JUMPDEST SWAP4 SWAP13 SWAP3 SWAP12 POP SWAP1 SWAP10 POP SWAP8 POP SWAP1 SWAP6 POP SWAP4 POP POP POP POP JUMP JUMPDEST PUSH1 0x60 PUSH1 0x46 DUP1 SLOAD PUSH2 0xB91 SWAP1 PUSH2 0x5460 JUMP JUMPDEST PUSH1 0x60 PUSH2 0x19CE PUSH4 0x9A7E1873 PUSH1 0xE0 SHL PUSH1 0x0 PUSH1 0x1 DUP2 PUSH2 0x319E JUMP JUMPDEST PUSH1 0x0 DUP1 DUP4 PUSH1 0x1 PUSH1 0x1 PUSH1 0x40 SHL SUB DUP2 GT ISZERO PUSH2 0x19E9 JUMPI PUSH2 0x19E9 PUSH2 0x5049 JUMP JUMPDEST PUSH1 0x40 MLOAD SWAP1 DUP1 DUP3 MSTORE DUP1 PUSH1 0x20 MUL PUSH1 0x20 ADD DUP3 ADD PUSH1 0x40 MSTORE DUP1 ISZERO PUSH2 0x1A12 JUMPI DUP2 PUSH1 0x20 ADD PUSH1 0x20 DUP3 MUL DUP1 CALLDATASIZE DUP4 CALLDATACOPY ADD SWAP1 POP JUMPDEST POP SWAP1 POP PUSH1 0x0 JUMPDEST DUP5 DUP2 LT ISZERO PUSH2 0x1AE1 JUMPI PUSH2 0x1A4B DUP7 DUP7 DUP4 DUP2 DUP2 LT PUSH2 0x1A35 JUMPI PUSH2 0x1A35 PUSH2 0x5494 JUMP JUMPDEST PUSH2 0xD7F SWAP3 PUSH1 0x20 PUSH1 0x80 SWAP1 SWAP3 MUL ADD SWAP1 DUP2 ADD SWAP2 POP PUSH2 0x4E58 JUMP JUMPDEST ISZERO PUSH2 0x1A68 JUMPI PUSH1 0x40 MLOAD PUSH3 0x461BCD PUSH1 0xE5 SHL DUP2 MSTORE PUSH1 0x4 ADD PUSH2 0xDA4 SWAP1 PUSH2 0x54EC JUMP JUMPDEST PUSH2 0x1A88 DUP7 DUP7 DUP4 DUP2 DUP2 LT PUSH2 0x1A7D JUMPI PUSH2 0x1A7D PUSH2 0x5494 JUMP JUMPDEST SWAP1 POP PUSH1 0x80 MUL ADD PUSH2 0x39F4 JUMP JUMPDEST DUP3 DUP3 DUP2 MLOAD DUP2 LT PUSH2 0x1A9A JUMPI PUSH2 0x1A9A PUSH2 0x5494 JUMP JUMPDEST PUSH1 0x20 MUL PUSH1 0x20 ADD ADD DUP2 DUP2 MSTORE POP POP DUP6 DUP6 DUP3 DUP2 DUP2 LT PUSH2 0x1AB8 JUMPI PUSH2 0x1AB8 PUSH2 0x5494 JUMP JUMPDEST SWAP1 POP PUSH1 0x80 MUL ADD PUSH1 0x60 ADD CALLDATALOAD DUP4 PUSH2 0x1ACD SWAP2 SWAP1 PUSH2 0x54C0 JUMP JUMPDEST SWAP3 POP DUP1 PUSH2 0x1AD9 DUP2 PUSH2 0x54D3 JUMP JUMPDEST SWAP2 POP POP PUSH2 0x1A18 JUMP JUMPDEST POP PUSH1 0x40 MLOAD DUP3 DUP2 MSTORE CALLER SWAP1 PUSH32 0x8E04D4DF873AA900CBE3C4B51AF80C003E2A72B8DFD36A6A2E54FDADBF4D1127 SWAP1 PUSH1 0x20 ADD PUSH1 0x40 MLOAD DUP1 SWAP2 SUB SWAP1 LOG2 SWAP5 SWAP4 POP POP POP POP JUMP JUMPDEST PUSH1 0x0 PUSH2 0x1B35 PUSH4 0x4DAF9AB7 PUSH1 0xE1 SHL DUP3 PUSH1 0x1 DUP2 PUSH2 0x319E JUMP JUMPDEST PUSH1 0x0 DUP1 JUMPDEST DUP4 DUP2 LT ISZERO PUSH2 0x1BE0 JUMPI PUSH2 0x1B79 DUP6 DUP6 DUP4 DUP2 DUP2 LT PUSH2 0x1B56 JUMPI PUSH2 0x1B56 PUSH2 0x5494 JUMP JUMPDEST SWAP1 POP PUSH1 0x20 MUL DUP2 ADD SWAP1 PUSH2 0x1B68 SWAP2 SWAP1 PUSH2 0x5604 JUMP JUMPDEST PUSH2 0xD7F SWAP1 PUSH1 0x40 DUP2 ADD SWAP1 PUSH1 0x20 ADD PUSH2 0x4E58 JUMP JUMPDEST ISZERO PUSH2 0x1B96 JUMPI PUSH1 0x40 MLOAD PUSH3 0x461BCD PUSH1 0xE5 SHL DUP2 MSTORE PUSH1 0x4 ADD PUSH2 0xDA4 SWAP1 PUSH2 0x54EC JUMP JUMPDEST PUSH2 0x1BC2 DUP6 DUP6 DUP4 DUP2 DUP2 LT PUSH2 0x1BAB JUMPI PUSH2 0x1BAB PUSH2 0x5494 JUMP JUMPDEST SWAP1 POP PUSH1 0x20 MUL DUP2 ADD SWAP1 PUSH2 0x1BBD SWAP2 SWAP1 PUSH2 0x5604 JUMP JUMPDEST PUSH2 0x3E63 JUMP JUMPDEST PUSH2 0x1BCC SWAP1 DUP4 PUSH2 0x54C0 JUMP JUMPDEST SWAP2 POP DUP1 PUSH2 0x1BD8 DUP2 PUSH2 0x54D3 JUMP JUMPDEST SWAP2 POP POP PUSH2 0x1B39 JUMP JUMPDEST POP PUSH1 0x40 MLOAD DUP2 DUP2 MSTORE CALLER SWAP1 PUSH32 0x358CA32FB65DBE46A9AEC67304B927CF0C3EAF896217F853F9A93FEF2E920723 SWAP1 PUSH1 0x20 ADD PUSH2 0xCCC JUMP JUMPDEST PUSH1 0x0 PUSH2 0x1C29 PUSH4 0x2770A7EB PUSH1 0xE2 SHL DUP5 PUSH1 0x1 DUP1 PUSH2 0x319E JUMP JUMPDEST PUSH1 0x1 PUSH1 0x1 PUSH1 0xA0 SHL SUB DUP4 AND PUSH2 0x1C4F JUMPI PUSH1 0x40 MLOAD PUSH3 0x461BCD PUSH1 0xE5 SHL DUP2 MSTORE PUSH1 0x4 ADD PUSH2 0xDA4 SWAP1 PUSH2 0x55B7 JUMP JUMPDEST PUSH1 0x1 PUSH1 0x1 PUSH1 0xA0 SHL SUB DUP4 AND PUSH1 0x0 SWAP1 DUP2 MSTORE PUSH1 0x4A PUSH1 0x20 MSTORE PUSH1 0x40 SWAP1 KECCAK256 SLOAD DUP3 DUP2 LT ISZERO PUSH2 0x1CB8 JUMPI PUSH1 0x40 MLOAD PUSH3 0x461BCD PUSH1 0xE5 SHL DUP2 MSTORE PUSH1 0x20 PUSH1 0x4 DUP3 ADD MSTORE PUSH1 0x1C PUSH1 0x24 DUP3 ADD MSTORE PUSH32 0x496E73756666696369656E74204163636F756E742042616C616E636500000000 PUSH1 0x44 DUP3 ADD MSTORE PUSH1 0x64 ADD PUSH2 0xDA4 JUMP JUMPDEST PUSH1 0x1 PUSH1 0x1 PUSH1 0xA0 SHL SUB DUP5 AND PUSH1 0x0 SWAP1 DUP2 MSTORE PUSH1 0x4A PUSH1 0x20 MSTORE PUSH1 0x40 DUP2 KECCAK256 DUP5 DUP4 SUB SWAP1 SSTORE PUSH1 0x47 DUP1 SLOAD DUP6 SWAP3 SWAP1 PUSH2 0x1CE7 SWAP1 DUP5 SWAP1 PUSH2 0x5624 JUMP JUMPDEST SWAP1 SWAP2 SSTORE POP POP PUSH1 0x47 SLOAD PUSH1 0x40 DUP1 MLOAD DUP6 DUP2 MSTORE PUSH1 0x20 DUP2 ADD SWAP3 SWAP1 SWAP3 MSTORE PUSH1 0x1 PUSH1 0x1 PUSH1 0xA0 SHL SUB DUP7 AND SWAP2 CALLER SWAP2 PUSH32 0x5D624AA9C148153AB3446C1B154F660EE7701E549FE9B62DAB7171B1C80E6FA2 SWAP2 ADD PUSH1 0x40 MLOAD DUP1 SWAP2 SUB SWAP1 LOG3 POP POP PUSH1 0x47 SLOAD SWAP3 SWAP2 POP POP JUMP JUMPDEST PUSH1 0x0 PUSH2 0x1D57 PUSH4 0x9FD5A6CF PUSH1 0xE0 SHL DUP9 PUSH1 0x1 DUP1 PUSH2 0x319E JUMP JUMPDEST DUP4 TIMESTAMP GT ISZERO PUSH2 0x1DA7 JUMPI PUSH1 0x40 MLOAD PUSH3 0x461BCD PUSH1 0xE5 SHL DUP2 MSTORE PUSH1 0x20 PUSH1 0x4 DUP3 ADD MSTORE PUSH1 0x17 PUSH1 0x24 DUP3 ADD MSTORE PUSH32 0x5065726D697420446561646C696E652045787069726564000000000000000000 PUSH1 0x44 DUP3 ADD MSTORE PUSH1 0x64 ADD PUSH2 0xDA4 JUMP JUMPDEST PUSH1 0x0 PUSH32 0x6E71EDAE12B1B97F4D1F60370FEF10105FA2FAAE0126114A169C64845D6126C9 DUP9 DUP9 DUP9 PUSH2 0x1DD6 DUP13 PUSH2 0x3F52 JUMP JUMPDEST PUSH1 0x40 DUP1 MLOAD PUSH1 0x20 DUP2 ADD SWAP7 SWAP1 SWAP7 MSTORE PUSH1 0x1 PUSH1 0x1 PUSH1 0xA0 SHL SUB SWAP5 DUP6 AND SWAP1 DUP7 ADD MSTORE SWAP3 SWAP1 SWAP2 AND PUSH1 0x60 DUP5 ADD MSTORE PUSH1 0x80 DUP4 ADD MSTORE PUSH1 0xA0 DUP3 ADD MSTORE PUSH1 0xC0 DUP2 ADD DUP7 SWAP1 MSTORE PUSH1 0xE0 ADD PUSH1 0x40 MLOAD PUSH1 0x20 DUP2 DUP4 SUB SUB DUP2 MSTORE SWAP1 PUSH1 0x40 MSTORE DUP1 MLOAD SWAP1 PUSH1 0x20 ADD KECCAK256 SWAP1 POP PUSH1 0x0 PUSH2 0x1E74 PUSH2 0x1E33 PUSH2 0x3F7B JUMP JUMPDEST DUP4 PUSH1 0x40 MLOAD PUSH2 0x1901 PUSH1 0xF0 SHL PUSH1 0x20 DUP3 ADD MSTORE PUSH1 0x22 DUP2 ADD DUP4 SWAP1 MSTORE PUSH1 0x42 DUP2 ADD DUP3 SWAP1 MSTORE PUSH1 0x0 SWAP1 PUSH1 0x62 ADD PUSH1 0x40 MLOAD PUSH1 0x20 DUP2 DUP4 SUB SUB DUP2 MSTORE SWAP1 PUSH1 0x40 MSTORE DUP1 MLOAD SWAP1 PUSH1 0x20 ADD KECCAK256 SWAP1 POP SWAP3 SWAP2 POP POP JUMP JUMPDEST SWAP1 POP PUSH1 0x0 PUSH2 0x1EB8 DUP3 DUP8 DUP8 DUP1 DUP1 PUSH1 0x1F ADD PUSH1 0x20 DUP1 SWAP2 DIV MUL PUSH1 0x20 ADD PUSH1 0x40 MLOAD SWAP1 DUP2 ADD PUSH1 0x40 MSTORE DUP1 SWAP4 SWAP3 SWAP2 SWAP1 DUP2 DUP2 MSTORE PUSH1 0x20 ADD DUP4 DUP4 DUP1 DUP3 DUP5 CALLDATACOPY PUSH1 0x0 SWAP3 ADD SWAP2 SWAP1 SWAP2 MSTORE POP PUSH2 0x3FE4 SWAP3 POP POP POP JUMP JUMPDEST SWAP1 POP DUP10 PUSH1 0x1 PUSH1 0x1 PUSH1 0xA0 SHL SUB AND DUP2 PUSH1 0x1 PUSH1 0x1 PUSH1 0xA0 SHL SUB AND EQ PUSH2 0x1F1B JUMPI PUSH1 0x40 MLOAD PUSH3 0x461BCD PUSH1 0xE5 SHL DUP2 MSTORE PUSH1 0x20 PUSH1 0x4 DUP3 ADD MSTORE PUSH1 0x18 PUSH1 0x24 DUP3 ADD MSTORE PUSH32 0x496C6C6567616C20454344415341205369676E61747572650000000000000000 PUSH1 0x44 DUP3 ADD MSTORE PUSH1 0x64 ADD PUSH2 0xDA4 JUMP JUMPDEST PUSH2 0x1F26 DUP11 DUP11 DUP11 PUSH2 0x329C JUMP JUMPDEST POP PUSH1 0x1 SWAP10 SWAP9 POP POP POP POP POP POP POP POP POP JUMP JUMPDEST PUSH1 0x0 PUSH2 0x1F49 PUSH4 0xA457C2D7 PUSH1 0xE0 SHL CALLER PUSH2 0xC23 JUMP JUMPDEST CALLER PUSH2 0x1F55 DUP2 DUP6 DUP6 PUSH2 0x4008 JUMP JUMPDEST DUP4 PUSH1 0x1 PUSH1 0x1 PUSH1 0xA0 SHL SUB AND DUP2 PUSH1 0x1 PUSH1 0x1 PUSH1 0xA0 SHL SUB AND PUSH32 0x2D6189480D1BB13DA7C0ED0063FE94AF3C19EED814940DB43733C4198D00A742 DUP6 PUSH1 0x40 MLOAD PUSH2 0x1F9A SWAP2 DUP2 MSTORE PUSH1 0x20 ADD SWAP1 JUMP JUMPDEST PUSH1 0x40 MLOAD DUP1 SWAP2 SUB SWAP1 LOG3 PUSH2 0x1FAC DUP2 DUP6 PUSH2 0x3554 JUMP JUMPDEST SWAP5 SWAP4 POP POP POP POP JUMP JUMPDEST PUSH1 0x0 PUSH2 0x1FC7 PUSH4 0xA5BFA9A9 PUSH1 0xE0 SHL CALLER PUSH2 0xC23 JUMP JUMPDEST PUSH2 0xB7C DUP3 PUSH2 0x33A2 JUMP JUMPDEST PUSH1 0x0 PUSH2 0x1FE3 PUSH4 0xA9059CBB PUSH1 0xE0 SHL CALLER PUSH2 0xC23 JUMP JUMPDEST PUSH1 0x0 PUSH1 0x48 SLOAD GT DUP1 ISZERO PUSH2 0x1FFF JUMPI POP PUSH2 0x1FFD CALLER JUMPDEST PUSH1 0x4F SWAP1 PUSH2 0x3489 JUMP JUMPDEST ISZERO JUMPDEST ISZERO PUSH2 0x2014 JUMPI PUSH2 0x200F CALLER DUP5 DUP5 PUSH2 0x4079 JUMP JUMPDEST PUSH2 0xC36 JUMP JUMPDEST PUSH2 0xC36 CALLER DUP5 DUP5 PUSH2 0x4100 JUMP JUMPDEST PUSH1 0x4 SLOAD PUSH1 0x0 SWAP1 PUSH1 0xFF AND ISZERO PUSH2 0x2045 JUMPI PUSH1 0x40 MLOAD PUSH3 0x461BCD PUSH1 0xE5 SHL DUP2 MSTORE PUSH1 0x4 ADD PUSH2 0xDA4 SWAP1 PUSH2 0x5580 JUMP JUMPDEST PUSH4 0xC082A123 PUSH1 0xE0 SHL PUSH2 0x2056 DUP2 PUSH2 0x3660 JUMP JUMPDEST PUSH2 0x2092 JUMPI PUSH1 0x40 MLOAD PUSH3 0x461BCD PUSH1 0xE5 SHL DUP2 MSTORE PUSH1 0x20 PUSH1 0x4 DUP3 ADD MSTORE PUSH1 0xD PUSH1 0x24 DUP3 ADD MSTORE PUSH13 0x1058D8D95CDCC811195B9A5959 PUSH1 0x9A SHL PUSH1 0x44 DUP3 ADD MSTORE PUSH1 0x64 ADD PUSH2 0xDA4 JUMP JUMPDEST PUSH1 0x49 SLOAD PUSH1 0x1 PUSH1 0xA8 SHL SWAP1 DIV PUSH1 0xFF AND ISZERO PUSH2 0x20EC JUMPI PUSH1 0x40 MLOAD PUSH3 0x461BCD PUSH1 0xE5 SHL DUP2 MSTORE PUSH1 0x20 PUSH1 0x4 DUP3 ADD MSTORE PUSH1 0x19 PUSH1 0x24 DUP3 ADD MSTORE PUSH32 0x546F6B656E20416C726561647920446973747269627574656400000000000000 PUSH1 0x44 DUP3 ADD MSTORE PUSH1 0x64 ADD PUSH2 0xDA4 JUMP JUMPDEST PUSH1 0x0 JUMPDEST PUSH1 0x7 DUP2 LT ISZERO PUSH2 0x2A7A JUMPI DUP4 DUP2 PUSH1 0x7 DUP2 LT PUSH2 0x210A JUMPI PUSH2 0x210A PUSH2 0x5494 JUMP JUMPDEST PUSH1 0x20 MUL ADD PUSH1 0x20 DUP2 ADD SWAP1 PUSH2 0x211D SWAP2 SWAP1 PUSH2 0x4E58 JUMP JUMPDEST PUSH1 0x40 MLOAD PUSH4 0x1FFC9A7 PUSH1 0xE0 SHL DUP2 MSTORE PUSH4 0x8530FD63 PUSH1 0xE0 SHL PUSH1 0x4 DUP3 ADD MSTORE PUSH1 0x1 PUSH1 0x1 PUSH1 0xA0 SHL SUB SWAP2 SWAP1 SWAP2 AND SWAP1 PUSH4 0x1FFC9A7 SWAP1 PUSH1 0x24 ADD PUSH1 0x20 PUSH1 0x40 MLOAD DUP1 DUP4 SUB DUP2 DUP7 GAS STATICCALL SWAP3 POP POP POP DUP1 ISZERO PUSH2 0x2186 JUMPI POP PUSH1 0x40 DUP1 MLOAD PUSH1 0x1F RETURNDATASIZE SWAP1 DUP2 ADD PUSH1 0x1F NOT AND DUP3 ADD SWAP1 SWAP3 MSTORE PUSH2 0x2183 SWAP2 DUP2 ADD SWAP1 PUSH2 0x5642 JUMP JUMPDEST PUSH1 0x1 JUMPDEST PUSH2 0x21D2 JUMPI PUSH1 0x40 MLOAD PUSH3 0x461BCD PUSH1 0xE5 SHL DUP2 MSTORE PUSH1 0x20 PUSH1 0x4 DUP3 ADD MSTORE PUSH1 0x1C PUSH1 0x24 DUP3 ADD MSTORE PUSH32 0x496C6C6567616C20494173736574456E74697479204164647265737300000000 PUSH1 0x44 DUP3 ADD MSTORE PUSH1 0x64 ADD PUSH2 0xDA4 JUMP JUMPDEST DUP1 PUSH2 0x221F JUMPI PUSH1 0x40 MLOAD PUSH3 0x461BCD PUSH1 0xE5 SHL DUP2 MSTORE PUSH1 0x20 PUSH1 0x4 DUP3 ADD MSTORE PUSH1 0x1C PUSH1 0x24 DUP3 ADD MSTORE PUSH32 0x496E76616C696420494173736574456E74697479204164647265737300000000 PUSH1 0x44 DUP3 ADD MSTORE PUSH1 0x64 ADD PUSH2 0xDA4 JUMP JUMPDEST POP PUSH1 0x1 DUP5 DUP3 PUSH1 0x7 DUP2 LT PUSH2 0x2234 JUMPI PUSH2 0x2234 PUSH2 0x5494 JUMP JUMPDEST PUSH1 0x20 MUL ADD PUSH1 0x20 DUP2 ADD SWAP1 PUSH2 0x2247 SWAP2 SWAP1 PUSH2 0x4E58 JUMP JUMPDEST PUSH1 0x1 PUSH1 0x1 PUSH1 0xA0 SHL SUB AND PUSH4 0x3FE3347A PUSH1 0x40 MLOAD DUP2 PUSH4 0xFFFFFFFF AND PUSH1 0xE0 SHL DUP2 MSTORE PUSH1 0x4 ADD PUSH1 0x20 PUSH1 0x40 MLOAD DUP1 DUP4 SUB DUP2 DUP7 GAS STATICCALL ISZERO DUP1 ISZERO PUSH2 0x2284 JUMPI RETURNDATASIZE PUSH1 0x0 DUP1 RETURNDATACOPY RETURNDATASIZE PUSH1 0x0 REVERT JUMPDEST POP POP POP POP PUSH1 0x40 MLOAD RETURNDATASIZE PUSH1 0x1F NOT PUSH1 0x1F DUP3 ADD AND DUP3 ADD DUP1 PUSH1 0x40 MSTORE POP DUP2 ADD SWAP1 PUSH2 0x22A8 SWAP2 SWAP1 PUSH2 0x565F JUMP JUMPDEST PUSH1 0x3 DUP2 GT ISZERO PUSH2 0x22B9 JUMPI PUSH2 0x22B9 PUSH2 0x55EE JUMP JUMPDEST EQ PUSH2 0x22FB JUMPI PUSH1 0x40 MLOAD PUSH3 0x461BCD PUSH1 0xE5 SHL DUP2 MSTORE PUSH1 0x20 PUSH1 0x4 DUP3 ADD MSTORE PUSH1 0x12 PUSH1 0x24 DUP3 ADD MSTORE PUSH18 0x496E76616C69642041737365742054797065 PUSH1 0x70 SHL PUSH1 0x44 DUP3 ADD MSTORE PUSH1 0x64 ADD PUSH2 0xDA4 JUMP JUMPDEST ADDRESS DUP5 DUP3 PUSH1 0x7 DUP2 LT PUSH2 0x230E JUMPI PUSH2 0x230E PUSH2 0x5494 JUMP JUMPDEST PUSH1 0x20 MUL ADD PUSH1 0x20 DUP2 ADD SWAP1 PUSH2 0x2321 SWAP2 SWAP1 PUSH2 0x4E58 JUMP JUMPDEST PUSH1 0x1 PUSH1 0x1 PUSH1 0xA0 SHL SUB AND PUSH4 0x1083F761 PUSH1 0x40 MLOAD DUP2 PUSH4 0xFFFFFFFF AND PUSH1 0xE0 SHL DUP2 MSTORE PUSH1 0x4 ADD PUSH1 0x20 PUSH1 0x40 MLOAD DUP1 DUP4 SUB DUP2 DUP7 GAS STATICCALL ISZERO DUP1 ISZERO PUSH2 0x235E JUMPI RETURNDATASIZE PUSH1 0x0 DUP1 RETURNDATACOPY RETURNDATASIZE PUSH1 0x0 REVERT JUMPDEST POP POP POP POP PUSH1 0x40 MLOAD RETURNDATASIZE PUSH1 0x1F NOT PUSH1 0x1F DUP3 ADD AND DUP3 ADD DUP1 PUSH1 0x40 MSTORE POP DUP2 ADD SWAP1 PUSH2 0x2382 SWAP2 SWAP1 PUSH2 0x5680 JUMP JUMPDEST PUSH1 0x1 PUSH1 0x1 PUSH1 0xA0 SHL SUB AND EQ PUSH2 0x23CE JUMPI PUSH1 0x40 MLOAD PUSH3 0x461BCD PUSH1 0xE5 SHL DUP2 MSTORE PUSH1 0x20 PUSH1 0x4 DUP3 ADD MSTORE PUSH1 0x13 PUSH1 0x24 DUP3 ADD MSTORE PUSH19 0x24B73B30B634B21020B9B9B2BA102A37B5B2B7 PUSH1 0x69 SHL PUSH1 0x44 DUP3 ADD MSTORE PUSH1 0x64 ADD PUSH2 0xDA4 JUMP JUMPDEST DUP4 DUP2 PUSH1 0x7 DUP2 LT PUSH2 0x23E0 JUMPI PUSH2 0x23E0 PUSH2 0x5494 JUMP JUMPDEST PUSH1 0x20 MUL ADD PUSH1 0x20 DUP2 ADD SWAP1 PUSH2 0x23F3 SWAP2 SWAP1 PUSH2 0x4E58 JUMP JUMPDEST PUSH1 0x1 PUSH1 0x1 PUSH1 0xA0 SHL SUB AND PUSH4 0xC9230C5D PUSH1 0x40 MLOAD DUP2 PUSH4 0xFFFFFFFF AND PUSH1 0xE0 SHL DUP2 MSTORE PUSH1 0x4 ADD PUSH1 0x20 PUSH1 0x40 MLOAD DUP1 DUP4 SUB DUP2 DUP7 GAS STATICCALL ISZERO DUP1 ISZERO PUSH2 0x2430 JUMPI RETURNDATASIZE PUSH1 0x0 DUP1 RETURNDATACOPY RETURNDATASIZE PUSH1 0x0 REVERT JUMPDEST POP POP POP POP PUSH1 0x40 MLOAD RETURNDATASIZE PUSH1 0x1F NOT PUSH1 0x1F DUP3 ADD AND DUP3 ADD DUP1 PUSH1 0x40 MSTORE POP DUP2 ADD SWAP1 PUSH2 0x2454 SWAP2 SWAP1 PUSH2 0x569D JUMP JUMPDEST PUSH32 0x4C4956454C595F415544494F5F564944454F5F50524F4752414D5F4153534554 SUB PUSH2 0x24BA JUMPI PUSH2 0x24B5 CALLER DUP6 DUP4 PUSH1 0x7 DUP2 LT PUSH2 0x2490 JUMPI PUSH2 0x2490 PUSH2 0x5494 JUMP JUMPDEST PUSH1 0x20 MUL ADD PUSH1 0x20 DUP2 ADD SWAP1 PUSH2 0x24A3 SWAP2 SWAP1 PUSH2 0x4E58 JUMP JUMPDEST PUSH12 0x19D971E4FE8401E74000000 PUSH2 0x4100 JUMP JUMPDEST PUSH2 0x2A68 JUMP JUMPDEST DUP4 DUP2 PUSH1 0x7 DUP2 LT PUSH2 0x24CC JUMPI PUSH2 0x24CC PUSH2 0x5494 JUMP JUMPDEST PUSH1 0x20 MUL ADD PUSH1 0x20 DUP2 ADD SWAP1 PUSH2 0x24DF SWAP2 SWAP1 PUSH2 0x4E58 JUMP JUMPDEST PUSH1 0x1 PUSH1 0x1 PUSH1 0xA0 SHL SUB AND PUSH4 0xC9230C5D PUSH1 0x40 MLOAD DUP2 PUSH4 0xFFFFFFFF AND PUSH1 0xE0 SHL DUP2 MSTORE PUSH1 0x4 ADD PUSH1 0x20 PUSH1 0x40 MLOAD DUP1 DUP4 SUB DUP2 DUP7 GAS STATICCALL ISZERO DUP1 ISZERO PUSH2 0x251C JUMPI RETURNDATASIZE PUSH1 0x0 DUP1 RETURNDATACOPY RETURNDATASIZE PUSH1 0x0 REVERT JUMPDEST POP POP POP POP PUSH1 0x40 MLOAD RETURNDATASIZE PUSH1 0x1F NOT PUSH1 0x1F DUP3 ADD AND DUP3 ADD DUP1 PUSH1 0x40 MSTORE POP DUP2 ADD SWAP1 PUSH2 0x2540 SWAP2 SWAP1 PUSH2 0x569D JUMP JUMPDEST PUSH32 0x4C4956454C595F464F554E44494E475F5445414D5F4153534554000000000000 SUB PUSH2 0x25A1 JUMPI PUSH2 0x24B5 CALLER DUP6 DUP4 PUSH1 0x7 DUP2 LT PUSH2 0x257C JUMPI PUSH2 0x257C PUSH2 0x5494 JUMP JUMPDEST PUSH1 0x20 MUL ADD PUSH1 0x20 DUP2 ADD SWAP1 PUSH2 0x258F SWAP2 SWAP1 PUSH2 0x4E58 JUMP JUMPDEST PUSH12 0x2E87669C308736A04000000 PUSH2 0x4100 JUMP JUMPDEST DUP4 DUP2 PUSH1 0x7 DUP2 LT PUSH2 0x25B3 JUMPI PUSH2 0x25B3 PUSH2 0x5494 JUMP JUMPDEST PUSH1 0x20 MUL ADD PUSH1 0x20 DUP2 ADD SWAP1 PUSH2 0x25C6 SWAP2 SWAP1 PUSH2 0x4E58 JUMP JUMPDEST PUSH1 0x1 PUSH1 0x1 PUSH1 0xA0 SHL SUB AND PUSH4 0xC9230C5D PUSH1 0x40 MLOAD DUP2 PUSH4 0xFFFFFFFF AND PUSH1 0xE0 SHL DUP2 MSTORE PUSH1 0x4 ADD PUSH1 0x20 PUSH1 0x40 MLOAD DUP1 DUP4 SUB DUP2 DUP7 GAS STATICCALL ISZERO DUP1 ISZERO PUSH2 0x2603 JUMPI RETURNDATASIZE PUSH1 0x0 DUP1 RETURNDATACOPY RETURNDATASIZE PUSH1 0x0 REVERT JUMPDEST POP POP POP POP PUSH1 0x40 MLOAD RETURNDATASIZE PUSH1 0x1F NOT PUSH1 0x1F DUP3 ADD AND DUP3 ADD DUP1 PUSH1 0x40 MSTORE POP DUP2 ADD SWAP1 PUSH2 0x2627 SWAP2 SWAP1 PUSH2 0x569D JUMP JUMPDEST PUSH21 0x13125591531657D514915054D5549657D054D4D155 PUSH1 0x5A SHL SUB PUSH2 0x2680 JUMPI PUSH2 0x24B5 CALLER DUP6 DUP4 PUSH1 0x7 DUP2 LT PUSH2 0x265B JUMPI PUSH2 0x265B PUSH2 0x5494 JUMP JUMPDEST PUSH1 0x20 MUL ADD PUSH1 0x20 DUP2 ADD SWAP1 PUSH2 0x266E SWAP2 SWAP1 PUSH2 0x4E58 JUMP JUMPDEST PUSH12 0x26C62AD77DC602DAE000000 PUSH2 0x4100 JUMP JUMPDEST DUP4 DUP2 PUSH1 0x7 DUP2 LT PUSH2 0x2692 JUMPI PUSH2 0x2692 PUSH2 0x5494 JUMP JUMPDEST PUSH1 0x20 MUL ADD PUSH1 0x20 DUP2 ADD SWAP1 PUSH2 0x26A5 SWAP2 SWAP1 PUSH2 0x4E58 JUMP JUMPDEST PUSH1 0x1 PUSH1 0x1 PUSH1 0xA0 SHL SUB AND PUSH4 0xC9230C5D PUSH1 0x40 MLOAD DUP2 PUSH4 0xFFFFFFFF AND PUSH1 0xE0 SHL DUP2 MSTORE PUSH1 0x4 ADD PUSH1 0x20 PUSH1 0x40 MLOAD DUP1 DUP4 SUB DUP2 DUP7 GAS STATICCALL ISZERO DUP1 ISZERO PUSH2 0x26E2 JUMPI RETURNDATASIZE PUSH1 0x0 DUP1 RETURNDATACOPY RETURNDATASIZE PUSH1 0x0 REVERT JUMPDEST POP POP POP POP PUSH1 0x40 MLOAD RETURNDATASIZE PUSH1 0x1F NOT PUSH1 0x1F DUP3 ADD AND DUP3 ADD DUP1 PUSH1 0x40 MSTORE POP DUP2 ADD SWAP1 PUSH2 0x2706 SWAP2 SWAP1 PUSH2 0x569D JUMP JUMPDEST PUSH32 0x4C4956454C595F5055424C49435F53414C455F41535345540000000000000000 SUB PUSH2 0x2767 JUMPI PUSH2 0x24B5 CALLER DUP6 DUP4 PUSH1 0x7 DUP2 LT PUSH2 0x2742 JUMPI PUSH2 0x2742 PUSH2 0x5494 JUMP JUMPDEST PUSH1 0x20 MUL ADD PUSH1 0x20 DUP2 ADD SWAP1 PUSH2 0x2755 SWAP2 SWAP1 PUSH2 0x4E58 JUMP JUMPDEST PUSH12 0x6765C793FA10079D0000000 PUSH2 0x4100 JUMP JUMPDEST DUP4 DUP2 PUSH1 0x7 DUP2 LT PUSH2 0x2779 JUMPI PUSH2 0x2779 PUSH2 0x5494 JUMP JUMPDEST PUSH1 0x20 MUL ADD PUSH1 0x20 DUP2 ADD SWAP1 PUSH2 0x278C SWAP2 SWAP1 PUSH2 0x4E58 JUMP JUMPDEST PUSH1 0x1 PUSH1 0x1 PUSH1 0xA0 SHL SUB AND PUSH4 0xC9230C5D PUSH1 0x40 MLOAD DUP2 PUSH4 0xFFFFFFFF AND PUSH1 0xE0 SHL DUP2 MSTORE PUSH1 0x4 ADD PUSH1 0x20 PUSH1 0x40 MLOAD DUP1 DUP4 SUB DUP2 DUP7 GAS STATICCALL ISZERO DUP1 ISZERO PUSH2 0x27C9 JUMPI RETURNDATASIZE PUSH1 0x0 DUP1 RETURNDATACOPY RETURNDATASIZE PUSH1 0x0 REVERT JUMPDEST POP POP POP POP PUSH1 0x40 MLOAD RETURNDATASIZE PUSH1 0x1F NOT PUSH1 0x1F DUP3 ADD AND DUP3 ADD DUP1 PUSH1 0x40 MSTORE POP DUP2 ADD SWAP1 PUSH2 0x27ED SWAP2 SWAP1 PUSH2 0x569D JUMP JUMPDEST PUSH32 0x4C4956454C595F56414C494441544F52535F524557415244535F415353455400 SUB PUSH2 0x284D JUMPI PUSH2 0x24B5 CALLER DUP6 DUP4 PUSH1 0x7 DUP2 LT PUSH2 0x2829 JUMPI PUSH2 0x2829 PUSH2 0x5494 JUMP JUMPDEST PUSH1 0x20 MUL ADD PUSH1 0x20 DUP2 ADD SWAP1 PUSH2 0x283C SWAP2 SWAP1 PUSH2 0x4E58 JUMP JUMPDEST PUSH11 0xF8277896582678AC000000 PUSH2 0x4100 JUMP JUMPDEST DUP4 DUP2 PUSH1 0x7 DUP2 LT PUSH2 0x285F JUMPI PUSH2 0x285F PUSH2 0x5494 JUMP JUMPDEST PUSH1 0x20 MUL ADD PUSH1 0x20 DUP2 ADD SWAP1 PUSH2 0x2872 SWAP2 SWAP1 PUSH2 0x4E58 JUMP JUMPDEST PUSH1 0x1 PUSH1 0x1 PUSH1 0xA0 SHL SUB AND PUSH4 0xC9230C5D PUSH1 0x40 MLOAD DUP2 PUSH4 0xFFFFFFFF AND PUSH1 0xE0 SHL DUP2 MSTORE PUSH1 0x4 ADD PUSH1 0x20 PUSH1 0x40 MLOAD DUP1 DUP4 SUB DUP2 DUP7 GAS STATICCALL ISZERO DUP1 ISZERO PUSH2 0x28AF JUMPI RETURNDATASIZE PUSH1 0x0 DUP1 RETURNDATACOPY RETURNDATASIZE PUSH1 0x0 REVERT JUMPDEST POP POP POP POP PUSH1 0x40 MLOAD RETURNDATASIZE PUSH1 0x1F NOT PUSH1 0x1F DUP3 ADD AND DUP3 ADD DUP1 PUSH1 0x40 MSTORE POP DUP2 ADD SWAP1 PUSH2 0x28D3 SWAP2 SWAP1 PUSH2 0x569D JUMP JUMPDEST PUSH32 0x4C4956454C595F43524F57445F464F554E44494E475F41535345540000000000 SUB PUSH2 0x2934 JUMPI PUSH2 0x24B5 CALLER DUP6 DUP4 PUSH1 0x7 DUP2 LT PUSH2 0x290F JUMPI PUSH2 0x290F PUSH2 0x5494 JUMP JUMPDEST PUSH1 0x20 MUL ADD PUSH1 0x20 DUP2 ADD SWAP1 PUSH2 0x2922 SWAP2 SWAP1 PUSH2 0x4E58 JUMP JUMPDEST PUSH12 0x1C6F307BE4C4687E6000000 PUSH2 0x4100 JUMP JUMPDEST DUP4 DUP2 PUSH1 0x7 DUP2 LT PUSH2 0x2946 JUMPI PUSH2 0x2946 PUSH2 0x5494 JUMP JUMPDEST PUSH1 0x20 MUL ADD PUSH1 0x20 DUP2 ADD SWAP1 PUSH2 0x2959 SWAP2 SWAP1 PUSH2 0x4E58 JUMP JUMPDEST PUSH1 0x1 PUSH1 0x1 PUSH1 0xA0 SHL SUB AND PUSH4 0xC9230C5D PUSH1 0x40 MLOAD DUP2 PUSH4 0xFFFFFFFF AND PUSH1 0xE0 SHL DUP2 MSTORE PUSH1 0x4 ADD PUSH1 0x20 PUSH1 0x40 MLOAD DUP1 DUP4 SUB DUP2 DUP7 GAS STATICCALL ISZERO DUP1 ISZERO PUSH2 0x2996 JUMPI RETURNDATASIZE PUSH1 0x0 DUP1 RETURNDATACOPY RETURNDATASIZE PUSH1 0x0 REVERT JUMPDEST POP POP POP POP PUSH1 0x40 MLOAD RETURNDATASIZE PUSH1 0x1F NOT PUSH1 0x1F DUP3 ADD AND DUP3 ADD DUP1 PUSH1 0x40 MSTORE POP DUP2 ADD SWAP1 PUSH2 0x29BA SWAP2 SWAP1 PUSH2 0x569D JUMP JUMPDEST PUSH32 0x4C4956454C595F5441585F54524541535552595F415353455400000000000000 SUB PUSH2 0x2A2A JUMPI DUP4 DUP2 PUSH1 0x7 DUP2 LT PUSH2 0x29F2 JUMPI PUSH2 0x29F2 PUSH2 0x5494 JUMP JUMPDEST PUSH1 0x20 MUL ADD PUSH1 0x20 DUP2 ADD SWAP1 PUSH2 0x2A05 SWAP2 SWAP1 PUSH2 0x4E58 JUMP JUMPDEST PUSH1 0x49 DUP1 SLOAD PUSH1 0x1 PUSH1 0x1 PUSH1 0xA0 SHL SUB NOT AND PUSH1 0x1 PUSH1 0x1 PUSH1 0xA0 SHL SUB SWAP3 SWAP1 SWAP3 AND SWAP2 SWAP1 SWAP2 OR SWAP1 SSTORE PUSH2 0x2A68 JUMP JUMPDEST PUSH1 0x40 MLOAD PUSH3 0x461BCD PUSH1 0xE5 SHL DUP2 MSTORE PUSH1 0x20 PUSH1 0x4 DUP3 ADD MSTORE PUSH1 0x13 PUSH1 0x24 DUP3 ADD MSTORE PUSH19 0x105CDCD95D08139BDD0814DD5C1C1BDC9D1959 PUSH1 0x6A SHL PUSH1 0x44 DUP3 ADD MSTORE PUSH1 0x64 ADD PUSH2 0xDA4 JUMP JUMPDEST DUP1 PUSH2 0x2A72 DUP2 PUSH2 0x54D3 JUMP JUMPDEST SWAP2 POP POP PUSH2 0x20EF JUMP JUMPDEST POP PUSH1 0x49 DUP1 SLOAD PUSH1 0xFF PUSH1 0xA8 SHL NOT AND PUSH1 0x1 PUSH1 0xA8 SHL OR SWAP1 SSTORE PUSH1 0x4 DUP1 SLOAD PUSH1 0xFF NOT AND SWAP1 SSTORE PUSH1 0x1 SWAP2 POP JUMPDEST POP SWAP2 SWAP1 POP JUMP JUMPDEST PUSH1 0x0 PUSH1 0x1 PUSH1 0x1 PUSH1 0xA0 SHL SUB PUSH32 0x0 AND ADDRESS SUB PUSH2 0x2AED JUMPI PUSH1 0x40 MLOAD PUSH3 0x461BCD PUSH1 0xE5 SHL DUP2 MSTORE PUSH1 0x4 ADD PUSH2 0xDA4 SWAP1 PUSH2 0x5523 JUMP JUMPDEST PUSH32 0x0 PUSH1 0x1 PUSH1 0x1 PUSH1 0xA0 SHL SUB AND PUSH2 0x2B1F PUSH2 0x363F JUMP JUMPDEST PUSH1 0x1 PUSH1 0x1 PUSH1 0xA0 SHL SUB AND EQ PUSH2 0x2B45 JUMPI PUSH1 0x40 MLOAD PUSH3 0x461BCD PUSH1 0xE5 SHL DUP2 MSTORE PUSH1 0x4 ADD PUSH2 0xDA4 SWAP1 PUSH2 0x5552 JUMP JUMPDEST PUSH1 0x4 SLOAD PUSH1 0xFF AND ISZERO PUSH2 0x2B68 JUMPI PUSH1 0x40 MLOAD PUSH3 0x461BCD PUSH1 0xE5 SHL DUP2 MSTORE PUSH1 0x4 ADD PUSH2 0xDA4 SWAP1 PUSH2 0x5580 JUMP JUMPDEST PUSH2 0x2B78 PUSH4 0xD9DC1F19 PUSH1 0xE0 SHL PUSH2 0x3660 JUMP JUMPDEST PUSH2 0x2BC4 JUMPI PUSH1 0x40 MLOAD PUSH3 0x461BCD PUSH1 0xE5 SHL DUP2 MSTORE PUSH1 0x20 PUSH1 0x4 DUP3 ADD MSTORE PUSH1 0x17 PUSH1 0x24 DUP3 ADD MSTORE PUSH32 0x5365744C6F63616C41646D696E20466F7262696464656E000000000000000000 PUSH1 0x44 DUP3 ADD MSTORE PUSH1 0x64 ADD PUSH2 0xDA4 JUMP JUMPDEST PUSH1 0x1 PUSH1 0x1 PUSH1 0xA0 SHL SUB DUP3 AND PUSH2 0x2C0C JUMPI PUSH1 0x40 MLOAD PUSH3 0x461BCD PUSH1 0xE5 SHL DUP2 MSTORE PUSH1 0x20 PUSH1 0x4 DUP3 ADD MSTORE PUSH1 0xF PUSH1 0x24 DUP3 ADD MSTORE PUSH15 0x1059191C995CDCC8125B9D985B1A59 PUSH1 0x8A SHL PUSH1 0x44 DUP3 ADD MSTORE PUSH1 0x64 ADD PUSH2 0xDA4 JUMP JUMPDEST PUSH2 0x2C15 DUP3 PUSH2 0x41C6 JUMP JUMPDEST POP PUSH1 0x1 SWAP2 SWAP1 POP JUMP JUMPDEST PUSH1 0x0 PUSH2 0xEC4 DUP4 DUP4 PUSH2 0x3554 JUMP JUMPDEST PUSH1 0x60 PUSH2 0xEDA PUSH1 0x4D PUSH2 0x3E17 JUMP JUMPDEST PUSH1 0x1 PUSH1 0x1 PUSH1 0xA0 SHL SUB PUSH32 0x0 AND ADDRESS SUB PUSH2 0x2C7D JUMPI PUSH1 0x40 MLOAD PUSH3 0x461BCD PUSH1 0xE5 SHL DUP2 MSTORE PUSH1 0x4 ADD PUSH2 0xDA4 SWAP1 PUSH2 0x5523 JUMP JUMPDEST PUSH32 0x0 PUSH1 0x1 PUSH1 0x1 PUSH1 0xA0 SHL SUB AND PUSH2 0x2CAF PUSH2 0x363F JUMP JUMPDEST PUSH1 0x1 PUSH1 0x1 PUSH1 0xA0 SHL SUB AND EQ PUSH2 0x2CD5 JUMPI PUSH1 0x40 MLOAD PUSH3 0x461BCD PUSH1 0xE5 SHL DUP2 MSTORE PUSH1 0x4 ADD PUSH2 0xDA4 SWAP1 PUSH2 0x5552 JUMP JUMPDEST CALLER PUSH2 0x2CDE PUSH2 0x423D JUMP JUMPDEST PUSH1 0x1 PUSH1 0x1 PUSH1 0xA0 SHL SUB AND EQ PUSH2 0x2D2C JUMPI PUSH1 0x40 MLOAD PUSH3 0x461BCD PUSH1 0xE5 SHL DUP2 MSTORE PUSH1 0x20 PUSH1 0x4 DUP3 ADD MSTORE PUSH1 0x15 PUSH1 0x24 DUP3 ADD MSTORE PUSH21 0x10D85B1B195C88139BDD08105D5D1A1BDC9A5E9959 PUSH1 0x5A SHL PUSH1 0x44 DUP3 ADD MSTORE PUSH1 0x64 ADD PUSH2 0xDA4 JUMP JUMPDEST PUSH1 0x51 SLOAD PUSH3 0x10000 SWAP1 DIV PUSH1 0xFF AND ISZERO DUP1 DUP1 ISZERO PUSH2 0x2D4E JUMPI POP PUSH1 0x51 SLOAD PUSH1 0x1 PUSH2 0xFFFF SWAP1 SWAP2 AND LT JUMPDEST DUP1 PUSH2 0x2D69 JUMPI POP ADDRESS EXTCODESIZE ISZERO DUP1 ISZERO PUSH2 0x2D69 JUMPI POP PUSH1 0x51 SLOAD PUSH2 0xFFFF AND PUSH1 0x1 EQ JUMPDEST PUSH2 0x2DB5 JUMPI PUSH1 0x40 MLOAD PUSH3 0x461BCD PUSH1 0xE5 SHL DUP2 MSTORE PUSH1 0x20 PUSH1 0x4 DUP3 ADD MSTORE PUSH1 0x1C PUSH1 0x24 DUP3 ADD MSTORE PUSH32 0x436F6E747261637420416C726561647920496E697469616C697A656400000000 PUSH1 0x44 DUP3 ADD MSTORE PUSH1 0x64 ADD PUSH2 0xDA4 JUMP JUMPDEST PUSH1 0x51 DUP1 SLOAD PUSH2 0xFFFF NOT AND PUSH1 0x1 OR SWAP1 SSTORE DUP1 ISZERO PUSH2 0x2DDB JUMPI PUSH1 0x51 DUP1 SLOAD PUSH3 0xFF0000 NOT AND PUSH3 0x10000 OR SWAP1 SSTORE JUMPDEST PUSH1 0x0 PUSH2 0x2DEA PUSH1 0x40 DUP5 ADD DUP5 PUSH2 0x56B6 JUMP JUMPDEST PUSH1 0x40 MLOAD PUSH1 0x20 ADD PUSH2 0x2DFB SWAP3 SWAP2 SWAP1 PUSH2 0x56FC JUMP JUMPDEST PUSH1 0x40 DUP1 MLOAD PUSH1 0x1F NOT DUP2 DUP5 SUB ADD DUP2 MSTORE SWAP2 SWAP1 MSTORE DUP1 MLOAD PUSH1 0x20 SWAP1 SWAP2 ADD KECCAK256 SWAP1 POP PUSH2 0x2E45 PUSH2 0x2E22 DUP5 DUP1 PUSH2 0x56B6 JUMP JUMPDEST PUSH2 0x2E2F PUSH1 0x20 DUP8 ADD DUP8 PUSH2 0x56B6 JUMP JUMPDEST DUP6 PUSH2 0x2E40 PUSH1 0xC0 DUP11 ADD PUSH1 0xA0 DUP12 ADD PUSH2 0x4E58 JUMP JUMPDEST PUSH2 0x4265 JUMP JUMPDEST PUSH1 0x40 DUP1 MLOAD DUP1 DUP3 ADD SWAP1 SWAP2 MSTORE PUSH1 0x6 DUP2 MSTORE PUSH6 0x4C4956454C59 PUSH1 0xD0 SHL PUSH1 0x20 DUP3 ADD MSTORE PUSH1 0x45 SWAP1 PUSH2 0x2E6F SWAP1 DUP3 PUSH2 0x5752 JUMP JUMPDEST POP PUSH1 0x40 DUP1 MLOAD DUP1 DUP3 ADD SWAP1 SWAP2 MSTORE PUSH1 0x3 DUP2 MSTORE PUSH3 0x131593 PUSH1 0xEA SHL PUSH1 0x20 DUP3 ADD MSTORE PUSH1 0x46 SWAP1 PUSH2 0x2E97 SWAP1 DUP3 PUSH2 0x5752 JUMP JUMPDEST POP PUSH1 0x80 DUP4 ADD CALLDATALOAD PUSH1 0x48 SSTORE PUSH1 0x49 DUP1 SLOAD PUSH1 0xFF PUSH1 0xA8 SHL NOT AND SWAP1 SSTORE PUSH1 0x4 DUP1 SLOAD PUSH1 0xFF NOT AND PUSH1 0x1 OR SWAP1 SSTORE PUSH2 0x2ECA PUSH1 0xE0 DUP5 ADD PUSH1 0xC0 DUP6 ADD PUSH2 0x4E58 JUMP JUMPDEST PUSH1 0x40 MLOAD PUSH4 0x1FFC9A7 PUSH1 0xE0 SHL DUP2 MSTORE PUSH4 0xEFE13417 PUSH1 0xE0 SHL PUSH1 0x4 DUP3 ADD MSTORE PUSH1 0x1 PUSH1 0x1 PUSH1 0xA0 SHL SUB SWAP2 SWAP1 SWAP2 AND SWAP1 PUSH4 0x1FFC9A7 SWAP1 PUSH1 0x24 ADD PUSH1 0x20 PUSH1 0x40 MLOAD DUP1 DUP4 SUB DUP2 DUP7 GAS STATICCALL SWAP3 POP POP POP DUP1 ISZERO PUSH2 0x2F33 JUMPI POP PUSH1 0x40 DUP1 MLOAD PUSH1 0x1F RETURNDATASIZE SWAP1 DUP2 ADD PUSH1 0x1F NOT AND DUP3 ADD SWAP1 SWAP3 MSTORE PUSH2 0x2F30 SWAP2 DUP2 ADD SWAP1 PUSH2 0x5642 JUMP JUMPDEST PUSH1 0x1 JUMPDEST PUSH2 0x2F7F JUMPI PUSH1 0x40 MLOAD PUSH3 0x461BCD PUSH1 0xE5 SHL DUP2 MSTORE PUSH1 0x20 PUSH1 0x4 DUP3 ADD MSTORE PUSH1 0x1A PUSH1 0x24 DUP3 ADD MSTORE PUSH32 0x496C6C6567616C204941737365744D616E616765724552433230000000000000 PUSH1 0x44 DUP3 ADD MSTORE PUSH1 0x64 ADD PUSH2 0xDA4 JUMP JUMPDEST DUP1 PUSH2 0x2FCC JUMPI PUSH1 0x40 MLOAD PUSH3 0x461BCD PUSH1 0xE5 SHL DUP2 MSTORE PUSH1 0x20 PUSH1 0x4 DUP3 ADD MSTORE PUSH1 0x1A PUSH1 0x24 DUP3 ADD MSTORE PUSH32 0x496E76616C6964204941737365744D616E616765724552433230000000000000 PUSH1 0x44 DUP3 ADD MSTORE PUSH1 0x64 ADD PUSH2 0xDA4 JUMP JUMPDEST POP PUSH2 0x2FF2 PUSH2 0x2FE0 PUSH1 0xE0 DUP6 ADD PUSH1 0xC0 DUP7 ADD PUSH2 0x4E58 JUMP JUMPDEST PUSH12 0x1027E72F1F12813088000000 PUSH2 0x357F JUMP JUMPDEST POP PUSH2 0x3020 PUSH2 0x3000 DUP5 DUP1 PUSH2 0x56B6 JUMP JUMPDEST PUSH2 0x300D PUSH1 0x20 DUP8 ADD DUP8 PUSH2 0x56B6 JUMP JUMPDEST DUP6 PUSH2 0x301B PUSH1 0x60 DUP11 ADD DUP11 PUSH2 0x56B6 JUMP JUMPDEST PUSH2 0x427B JUMP JUMPDEST POP DUP1 ISZERO PUSH2 0x1759 JUMPI PUSH1 0x51 DUP1 SLOAD PUSH3 0xFF0000 NOT AND SWAP1 SSTORE POP POP JUMP JUMPDEST PUSH1 0x0 PUSH2 0xEDA PUSH2 0x3F7B JUMP JUMPDEST PUSH1 0x0 PUSH2 0xEDA PUSH2 0x423D JUMP JUMPDEST PUSH1 0x0 PUSH2 0x305E PUSH4 0x1F54AA55 PUSH1 0xE3 SHL CALLER PUSH2 0xC23 JUMP JUMPDEST PUSH1 0x0 DUP1 JUMPDEST DUP4 DUP2 LT ISZERO PUSH2 0x30F2 JUMPI DUP5 DUP5 DUP3 DUP2 DUP2 LT PUSH2 0x307C JUMPI PUSH2 0x307C PUSH2 0x5494 JUMP JUMPDEST SWAP1 POP PUSH1 0x40 MUL ADD PUSH1 0x20 ADD CALLDATALOAD DUP3 PUSH2 0x3091 SWAP2 SWAP1 PUSH2 0x54C0 JUMP JUMPDEST SWAP2 POP PUSH2 0x30E0 CALLER DUP7 DUP7 DUP5 DUP2 DUP2 LT PUSH2 0x30A9 JUMPI PUSH2 0x30A9 PUSH2 0x5494 JUMP JUMPDEST PUSH2 0x30BF SWAP3 PUSH1 0x20 PUSH1 0x40 SWAP1 SWAP3 MUL ADD SWAP1 DUP2 ADD SWAP2 POP PUSH2 0x4E58 JUMP JUMPDEST DUP8 DUP8 DUP6 DUP2 DUP2 LT PUSH2 0x30D1 JUMPI PUSH2 0x30D1 PUSH2 0x5494 JUMP JUMPDEST SWAP1 POP PUSH1 0x40 MUL ADD PUSH1 0x20 ADD CALLDATALOAD PUSH2 0x4100 JUMP JUMPDEST DUP1 PUSH2 0x30EA DUP2 PUSH2 0x54D3 JUMP JUMPDEST SWAP2 POP POP PUSH2 0x3062 JUMP JUMPDEST POP PUSH1 0x40 MLOAD DUP2 DUP2 MSTORE CALLER SWAP1 PUSH32 0x6F8B319642E67CD1F14D773B5289E2E9BC1AFCE60945A4705B94C4C2CE0D347E SWAP1 PUSH1 0x20 ADD PUSH2 0xE8E JUMP JUMPDEST PUSH1 0x0 PUSH2 0x3142 PUSH4 0x3F6E4BB1 PUSH1 0xE2 SHL PUSH2 0xC23 PUSH1 0x40 DUP6 ADD PUSH1 0x20 DUP7 ADD PUSH2 0x4E58 JUMP JUMPDEST PUSH2 0xB7C DUP3 PUSH2 0x3E63 JUMP JUMPDEST SWAP1 JUMP JUMPDEST PUSH1 0x0 PUSH1 0x1 PUSH1 0x1 PUSH1 0xE0 SHL SUB NOT DUP3 AND PUSH4 0x748BE053 PUSH1 0xE0 SHL EQ DUP1 PUSH2 0x317F JUMPI POP PUSH1 0x1 PUSH1 0x1 PUSH1 0xE0 SHL SUB NOT DUP3 AND PUSH4 0x52D1902D PUSH1 0xE0 SHL EQ JUMPDEST DUP1 PUSH2 0xB7C JUMPI POP PUSH4 0x1FFC9A7 PUSH1 0xE0 SHL PUSH1 0x1 PUSH1 0x1 PUSH1 0xE0 SHL SUB NOT DUP4 AND EQ PUSH2 0xB7C JUMP JUMPDEST PUSH1 0x4 SLOAD PUSH1 0xFF AND ISZERO PUSH2 0x31C1 JUMPI PUSH1 0x40 MLOAD PUSH3 0x461BCD PUSH1 0xE5 SHL DUP2 MSTORE PUSH1 0x4 ADD PUSH2 0xDA4 SWAP1 PUSH2 0x5580 JUMP JUMPDEST DUP4 PUSH2 0x31CB DUP2 PUSH2 0x3660 JUMP JUMPDEST PUSH2 0x3207 JUMPI PUSH1 0x40 MLOAD PUSH3 0x461BCD PUSH1 0xE5 SHL DUP2 MSTORE PUSH1 0x20 PUSH1 0x4 DUP3 ADD MSTORE PUSH1 0xD PUSH1 0x24 DUP3 ADD MSTORE PUSH13 0x1058D8D95CDCC811195B9A5959 PUSH1 0x9A SHL PUSH1 0x44 DUP3 ADD MSTORE PUSH1 0x64 ADD PUSH2 0xDA4 JUMP JUMPDEST DUP3 ISZERO PUSH2 0x3267 JUMPI PUSH1 0x49 SLOAD PUSH1 0x1 PUSH1 0xA0 SHL SWAP1 DIV PUSH1 0xFF AND ISZERO PUSH2 0x3267 JUMPI PUSH1 0x40 MLOAD PUSH3 0x461BCD PUSH1 0xE5 SHL DUP2 MSTORE PUSH1 0x20 PUSH1 0x4 DUP3 ADD MSTORE PUSH1 0x19 PUSH1 0x24 DUP3 ADD MSTORE PUSH32 0x455243323050617573653A2043616C6C2052656A656374656400000000000000 PUSH1 0x44 DUP3 ADD MSTORE PUSH1 0x64 ADD PUSH2 0xDA4 JUMP JUMPDEST DUP2 ISZERO PUSH2 0x3295 JUMPI PUSH2 0x3278 PUSH1 0x4D DUP6 PUSH2 0x3489 JUMP JUMPDEST ISZERO PUSH2 0x3295 JUMPI PUSH1 0x40 MLOAD PUSH3 0x461BCD PUSH1 0xE5 SHL DUP2 MSTORE PUSH1 0x4 ADD PUSH2 0xDA4 SWAP1 PUSH2 0x54EC JUMP JUMPDEST POP POP POP POP POP JUMP JUMPDEST PUSH1 0x1 PUSH1 0x1 PUSH1 0xA0 SHL SUB DUP4 AND PUSH2 0x32EA JUMPI PUSH1 0x40 MLOAD PUSH3 0x461BCD PUSH1 0xE5 SHL DUP2 MSTORE PUSH1 0x20 PUSH1 0x4 DUP3 ADD MSTORE PUSH1 0x15 PUSH1 0x24 DUP3 ADD MSTORE PUSH21 0x496E76616C6964204F776E65722041646472657373 PUSH1 0x58 SHL PUSH1 0x44 DUP3 ADD MSTORE PUSH1 0x64 ADD PUSH2 0xDA4 JUMP JUMPDEST PUSH1 0x1 PUSH1 0x1 PUSH1 0xA0 SHL SUB DUP3 AND PUSH2 0x3340 JUMPI PUSH1 0x40 MLOAD PUSH3 0x461BCD PUSH1 0xE5 SHL DUP2 MSTORE PUSH1 0x20 PUSH1 0x4 DUP3 ADD MSTORE PUSH1 0x17 PUSH1 0x24 DUP3 ADD MSTORE PUSH32 0x496E76616C6964205370656E6465722041646472657373000000000000000000 PUSH1 0x44 DUP3 ADD MSTORE PUSH1 0x64 ADD PUSH2 0xDA4 JUMP JUMPDEST PUSH1 0x1 PUSH1 0x1 PUSH1 0xA0 SHL SUB DUP4 DUP2 AND PUSH1 0x0 DUP2 DUP2 MSTORE PUSH1 0x4B PUSH1 0x20 SWAP1 DUP2 MSTORE PUSH1 0x40 DUP1 DUP4 KECCAK256 SWAP5 DUP8 AND DUP1 DUP5 MSTORE SWAP5 DUP3 MSTORE SWAP2 DUP3 SWAP1 KECCAK256 DUP6 SWAP1 SSTORE SWAP1 MLOAD DUP5 DUP2 MSTORE PUSH32 0x8C5BE1E5EBEC7D5BD14F71427D1E84F3DD0314C0F7B2291E5B200AC8C7C3B925 SWAP2 ADD JUMPDEST PUSH1 0x40 MLOAD DUP1 SWAP2 SUB SWAP1 LOG3 POP POP POP JUMP JUMPDEST PUSH1 0x40 MLOAD PUSH4 0xF7D6B5AF PUSH1 0xE0 SHL DUP2 MSTORE PUSH1 0x4A PUSH1 0x4 DUP3 ADD MSTORE PUSH1 0x24 DUP2 ADD DUP3 SWAP1 MSTORE PUSH1 0x0 SWAP1 DUP2 SWAP1 PUSH20 0x0 SWAP1 PUSH4 0xF7D6B5AF SWAP1 PUSH1 0x44 ADD PUSH1 0x20 PUSH1 0x40 MLOAD DUP1 DUP4 SUB DUP2 DUP7 GAS DELEGATECALL ISZERO DUP1 ISZERO PUSH2 0x33FE JUMPI RETURNDATASIZE PUSH1 0x0 DUP1 RETURNDATACOPY RETURNDATASIZE PUSH1 0x0 REVERT JUMPDEST POP POP POP POP PUSH1 0x40 MLOAD RETURNDATASIZE PUSH1 0x1F NOT PUSH1 0x1F DUP3 ADD AND DUP3 ADD DUP1 PUSH1 0x40 MSTORE POP DUP2 ADD SWAP1 PUSH2 0x3422 SWAP2 SWAP1 PUSH2 0x569D JUMP JUMPDEST CALLER PUSH1 0x0 DUP2 DUP2 MSTORE PUSH1 0x4C PUSH1 0x20 SWAP1 DUP2 MSTORE PUSH1 0x40 DUP1 DUP4 KECCAK256 DUP9 DUP5 MSTORE DUP3 MSTORE SWAP2 DUP3 SWAP1 KECCAK256 PUSH1 0x2 ADD SLOAD SWAP2 MLOAD DUP5 DUP2 MSTORE SWAP4 SWAP5 POP PUSH1 0x1 PUSH1 0x1 PUSH1 0xA0 SHL SUB SWAP1 SWAP2 AND SWAP3 DUP7 SWAP2 PUSH32 0x2A0EB8CA138E1B0C7A85D2F8F43D0F3FE72C27B59C53365FDCE897E3E6F32718 SWAP2 ADD JUMPDEST PUSH1 0x40 MLOAD DUP1 SWAP2 SUB SWAP1 LOG4 SWAP3 SWAP2 POP POP JUMP JUMPDEST PUSH1 0x1 PUSH1 0x1 PUSH1 0xA0 SHL SUB DUP2 AND PUSH1 0x0 SWAP1 DUP2 MSTORE PUSH1 0x1 DUP4 ADD PUSH1 0x20 MSTORE PUSH1 0x40 DUP2 KECCAK256 SLOAD ISZERO ISZERO PUSH2 0xEC4 JUMP JUMPDEST PUSH1 0x48 SLOAD PUSH1 0x0 SWAP1 CALLER SWAP1 ISZERO DUP1 ISZERO SWAP1 PUSH2 0x34C7 JUMPI POP PUSH2 0x34C5 CALLER PUSH2 0x1FF5 JUMP JUMPDEST ISZERO JUMPDEST ISZERO PUSH2 0x34DC JUMPI PUSH2 0x34D7 DUP6 DUP6 DUP6 PUSH2 0x4079 JUMP JUMPDEST PUSH2 0x34E7 JUMP JUMPDEST PUSH2 0x34E7 DUP6 DUP6 DUP6 PUSH2 0x4100 JUMP JUMPDEST PUSH2 0x34F2 DUP6 DUP3 DUP6 PUSH2 0x4008 JUMP JUMPDEST DUP4 PUSH1 0x1 PUSH1 0x1 PUSH1 0xA0 SHL SUB AND DUP6 PUSH1 0x1 PUSH1 0x1 PUSH1 0xA0 SHL SUB AND DUP3 PUSH1 0x1 PUSH1 0x1 PUSH1 0xA0 SHL SUB AND PUSH32 0x5F7542858008EEB041631F30E6109AE94B83A58E9A58261DD2C42C508850F939 DUP7 PUSH1 0x40 MLOAD PUSH2 0x3541 SWAP2 DUP2 MSTORE PUSH1 0x20 ADD SWAP1 JUMP JUMPDEST PUSH1 0x40 MLOAD DUP1 SWAP2 SUB SWAP1 LOG4 POP PUSH1 0x1 SWAP5 SWAP4 POP POP POP POP JUMP JUMPDEST PUSH1 0x1 PUSH1 0x1 PUSH1 0xA0 SHL SUB SWAP2 DUP3 AND PUSH1 0x0 SWAP1 DUP2 MSTORE PUSH1 0x4B PUSH1 0x20 SWAP1 DUP2 MSTORE PUSH1 0x40 DUP1 DUP4 KECCAK256 SWAP4 SWAP1 SWAP5 AND DUP3 MSTORE SWAP2 SWAP1 SWAP2 MSTORE KECCAK256 SLOAD SWAP1 JUMP JUMPDEST PUSH1 0x0 PUSH1 0x1 PUSH1 0x1 PUSH1 0xA0 SHL SUB DUP4 AND PUSH2 0x35A7 JUMPI PUSH1 0x40 MLOAD PUSH3 0x461BCD PUSH1 0xE5 SHL DUP2 MSTORE PUSH1 0x4 ADD PUSH2 0xDA4 SWAP1 PUSH2 0x55B7 JUMP JUMPDEST DUP2 PUSH1 0x47 PUSH1 0x0 DUP3 DUP3 SLOAD PUSH2 0x35B9 SWAP2 SWAP1 PUSH2 0x54C0 JUMP JUMPDEST SWAP1 SWAP2 SSTORE POP POP PUSH1 0x1 PUSH1 0x1 PUSH1 0xA0 SHL SUB DUP4 AND PUSH1 0x0 SWAP1 DUP2 MSTORE PUSH1 0x4A PUSH1 0x20 MSTORE PUSH1 0x40 DUP2 KECCAK256 DUP1 SLOAD DUP5 SWAP3 SWAP1 PUSH2 0x35E6 SWAP1 DUP5 SWAP1 PUSH2 0x54C0 JUMP JUMPDEST SWAP1 SWAP2 SSTORE POP POP PUSH1 0x47 SLOAD PUSH1 0x40 DUP1 MLOAD DUP5 DUP2 MSTORE PUSH1 0x20 DUP2 ADD SWAP3 SWAP1 SWAP3 MSTORE PUSH1 0x1 PUSH1 0x1 PUSH1 0xA0 SHL SUB DUP6 AND SWAP2 CALLER SWAP2 PUSH32 0x2F00E3CDD69A77BE7ED215EC7B2A36784DD158F921FCA79AC29DEFFA353FE6EE SWAP2 ADD PUSH1 0x40 MLOAD DUP1 SWAP2 SUB SWAP1 LOG3 POP PUSH1 0x47 SLOAD SWAP3 SWAP2 POP POP JUMP JUMPDEST PUSH1 0x0 PUSH1 0x0 DUP1 MLOAD PUSH1 0x20 PUSH2 0x5D90 DUP4 CODECOPY DUP2 MLOAD SWAP2 MSTORE JUMPDEST SLOAD PUSH1 0x1 PUSH1 0x1 PUSH1 0xA0 SHL SUB AND SWAP2 SWAP1 POP JUMP JUMPDEST PUSH1 0x0 DUP1 SLOAD PUSH1 0x1 PUSH1 0x1 PUSH1 0xA0 SHL SUB AND ADDRESS SUB PUSH2 0x374C JUMPI PUSH1 0x0 PUSH4 0x63D59CF3 PUSH1 0xE1 SHL PUSH2 0x3686 ADDRESS PUSH2 0x3E24 JUMP JUMPDEST CALLER DUP6 PUSH1 0x40 MLOAD PUSH1 0x24 ADD PUSH2 0x369A SWAP4 SWAP3 SWAP2 SWAP1 PUSH2 0x5811 JUMP JUMPDEST PUSH1 0x40 DUP1 MLOAD PUSH1 0x1F NOT DUP2 DUP5 SUB ADD DUP2 MSTORE SWAP2 SWAP1 MSTORE PUSH1 0x20 DUP2 ADD DUP1 MLOAD PUSH1 0x1 PUSH1 0x1 PUSH1 0xE0 SHL SUB AND PUSH1 0x1 PUSH1 0x1 PUSH1 0xE0 SHL SUB NOT SWAP1 SWAP4 AND SWAP3 SWAP1 SWAP3 OR SWAP1 SWAP2 MSTORE SWAP1 POP PUSH1 0x0 PUSH2 0x3717 PUSH2 0x36DB PUSH2 0x363F JUMP JUMPDEST DUP4 PUSH1 0x40 MLOAD DUP1 PUSH1 0x40 ADD PUSH1 0x40 MSTORE DUP1 PUSH1 0x1D DUP2 MSTORE PUSH1 0x20 ADD PUSH32 0x44656C656761746563616C6C20686173416363657373204661696C6564000000 DUP2 MSTORE POP PUSH2 0x4401 JUMP JUMPDEST SWAP1 POP DUP1 PUSH1 0x1 DUP3 MLOAD PUSH2 0x3728 SWAP2 SWAP1 PUSH2 0x5624 JUMP JUMPDEST DUP2 MLOAD DUP2 LT PUSH2 0x3738 JUMPI PUSH2 0x3738 PUSH2 0x5494 JUMP JUMPDEST PUSH1 0x20 SWAP2 ADD ADD MLOAD PUSH1 0xF8 SHR PUSH1 0x1 EQ SWAP5 SWAP4 POP POP POP POP JUMP JUMPDEST PUSH1 0x0 SLOAD PUSH1 0x1 PUSH1 0x1 PUSH1 0xA0 SHL SUB AND PUSH4 0xC7AB39E6 PUSH2 0x3766 ADDRESS PUSH2 0x3E24 JUMP JUMPDEST CALLER DUP6 PUSH1 0x40 MLOAD DUP5 PUSH4 0xFFFFFFFF AND PUSH1 0xE0 SHL DUP2 MSTORE PUSH1 0x4 ADD PUSH2 0x3786 SWAP4 SWAP3 SWAP2 SWAP1 PUSH2 0x5811 JUMP JUMPDEST PUSH1 0x20 PUSH1 0x40 MLOAD DUP1 DUP4 SUB DUP2 DUP7 GAS STATICCALL ISZERO DUP1 ISZERO PUSH2 0x37A3 JUMPI RETURNDATASIZE PUSH1 0x0 DUP1 RETURNDATACOPY RETURNDATASIZE PUSH1 0x0 REVERT JUMPDEST POP POP POP POP PUSH1 0x40 MLOAD RETURNDATASIZE PUSH1 0x1F NOT PUSH1 0x1F DUP3 ADD AND DUP3 ADD DUP1 PUSH1 0x40 MSTORE POP DUP2 ADD SWAP1 PUSH2 0xB7C SWAP2 SWAP1 PUSH2 0x5642 JUMP JUMPDEST PUSH1 0x0 PUSH1 0x1 PUSH1 0x1 PUSH1 0xA0 SHL SUB DUP4 AND CALLER PUSH1 0x1 PUSH1 0x1 PUSH1 0xA0 SHL SUB AND PUSH32 0x85766EB39B0AC39AD7E8AFBF36233D9ADB1AF81136BBEA1F94CACD4B2E272C69 DUP5 PUSH1 0x40 MLOAD PUSH2 0x3810 SWAP2 ISZERO ISZERO DUP2 MSTORE PUSH1 0x20 ADD SWAP1 JUMP JUMPDEST PUSH1 0x40 MLOAD DUP1 SWAP2 SUB SWAP1 LOG3 PUSH1 0x40 MLOAD PUSH4 0x4572E0C1 PUSH1 0xE0 SHL DUP2 MSTORE PUSH1 0x4A PUSH1 0x4 DUP3 ADD MSTORE PUSH1 0x1 PUSH1 0x1 PUSH1 0xA0 SHL SUB DUP5 AND PUSH1 0x24 DUP3 ADD MSTORE DUP3 ISZERO ISZERO PUSH1 0x44 DUP3 ADD MSTORE PUSH20 0x0 SWAP1 PUSH4 0x4572E0C1 SWAP1 PUSH1 0x64 ADD PUSH1 0x20 PUSH1 0x40 MLOAD DUP1 DUP4 SUB DUP2 DUP7 GAS DELEGATECALL ISZERO DUP1 ISZERO PUSH2 0x387F JUMPI RETURNDATASIZE PUSH1 0x0 DUP1 RETURNDATACOPY RETURNDATASIZE PUSH1 0x0 REVERT JUMPDEST POP POP POP POP PUSH1 0x40 MLOAD RETURNDATASIZE PUSH1 0x1F NOT PUSH1 0x1F DUP3 ADD AND DUP3 ADD DUP1 PUSH1 0x40 MSTORE POP DUP2 ADD SWAP1 PUSH2 0xEC4 SWAP2 SWAP1 PUSH2 0x5642 JUMP JUMPDEST PUSH1 0x0 DUP1 SLOAD PUSH1 0x1 PUSH1 0x1 PUSH1 0xA0 SHL SUB AND ADDRESS SUB PUSH2 0x3969 JUMPI PUSH1 0x0 PUSH4 0xE25D75F0 PUSH1 0xE0 SHL PUSH1 0x3 SLOAD PUSH1 0x40 MLOAD PUSH1 0x24 ADD PUSH2 0x38D5 SWAP2 DUP2 MSTORE PUSH1 0x20 ADD SWAP1 JUMP JUMPDEST PUSH1 0x40 DUP1 MLOAD PUSH1 0x1F NOT DUP2 DUP5 SUB ADD DUP2 MSTORE SWAP2 SWAP1 MSTORE PUSH1 0x20 DUP2 ADD DUP1 MLOAD PUSH1 0x1 PUSH1 0x1 PUSH1 0xE0 SHL SUB AND PUSH1 0x1 PUSH1 0x1 PUSH1 0xE0 SHL SUB NOT SWAP1 SWAP4 AND SWAP3 SWAP1 SWAP3 OR SWAP1 SWAP2 MSTORE SWAP1 POP PUSH1 0x0 PUSH2 0x3935 PUSH2 0x3916 PUSH2 0x363F JUMP JUMPDEST DUP4 PUSH1 0x40 MLOAD DUP1 PUSH1 0x60 ADD PUSH1 0x40 MSTORE DUP1 PUSH1 0x25 DUP2 MSTORE PUSH1 0x20 ADD PUSH2 0x5D6B PUSH1 0x25 SWAP2 CODECOPY PUSH2 0x4401 JUMP JUMPDEST SWAP1 POP DUP1 PUSH1 0x1 DUP3 MLOAD PUSH2 0x3946 SWAP2 SWAP1 PUSH2 0x5624 JUMP JUMPDEST DUP2 MLOAD DUP2 LT PUSH2 0x3956 JUMPI PUSH2 0x3956 PUSH2 0x5494 JUMP JUMPDEST PUSH1 0x20 SWAP2 ADD ADD MLOAD PUSH1 0xF8 SHR PUSH1 0x1 EQ SWAP4 SWAP3 POP POP POP JUMP JUMPDEST PUSH1 0x0 SLOAD PUSH1 0x3 SLOAD PUSH1 0x40 MLOAD PUSH4 0xE25D75F PUSH1 0xE4 SHL DUP2 MSTORE PUSH1 0x1 PUSH1 0x1 PUSH1 0xA0 SHL SUB SWAP1 SWAP3 AND SWAP2 PUSH4 0xE25D75F0 SWAP2 PUSH2 0x399E SWAP2 PUSH1 0x4 ADD SWAP1 DUP2 MSTORE PUSH1 0x20 ADD SWAP1 JUMP JUMPDEST PUSH1 0x20 PUSH1 0x40 MLOAD DUP1 DUP4 SUB DUP2 DUP7 GAS STATICCALL ISZERO DUP1 ISZERO PUSH2 0x39BB JUMPI RETURNDATASIZE PUSH1 0x0 DUP1 RETURNDATACOPY RETURNDATASIZE PUSH1 0x0 REVERT JUMPDEST POP POP POP POP PUSH1 0x40 MLOAD RETURNDATASIZE PUSH1 0x1F NOT PUSH1 0x1F DUP3 ADD AND DUP3 ADD DUP1 PUSH1 0x40 MSTORE POP DUP2 ADD SWAP1 PUSH2 0xEDA SWAP2 SWAP1 PUSH2 0x5642 JUMP JUMPDEST PUSH1 0x0 PUSH2 0xEC4 DUP4 PUSH1 0x1 PUSH1 0x1 PUSH1 0xA0 SHL SUB DUP5 AND PUSH2 0x44CA JUMP JUMPDEST PUSH1 0x0 DUP1 PUSH20 0x0 PUSH4 0x10E1FC40 PUSH1 0x4A DUP6 PUSH1 0x40 MLOAD DUP4 PUSH4 0xFFFFFFFF AND PUSH1 0xE0 SHL DUP2 MSTORE PUSH1 0x4 ADD PUSH2 0x3A31 SWAP3 SWAP2 SWAP1 PUSH2 0x583A JUMP JUMPDEST PUSH1 0x20 PUSH1 0x40 MLOAD DUP1 DUP4 SUB DUP2 DUP7 GAS DELEGATECALL ISZERO DUP1 ISZERO PUSH2 0x3A4E JUMPI RETURNDATASIZE PUSH1 0x0 DUP1 RETURNDATACOPY RETURNDATASIZE PUSH1 0x0 REVERT JUMPDEST POP POP POP POP PUSH1 0x40 MLOAD RETURNDATASIZE PUSH1 0x1F NOT PUSH1 0x1F DUP3 ADD AND DUP3 ADD DUP1 PUSH1 0x40 MSTORE POP DUP2 ADD SWAP1 PUSH2 0x3A72 SWAP2 SWAP1 PUSH2 0x569D JUMP JUMPDEST SWAP1 POP PUSH2 0x3A81 PUSH1 0x20 DUP5 ADD DUP5 PUSH2 0x4E58 JUMP JUMPDEST PUSH1 0x1 PUSH1 0x1 PUSH1 0xA0 SHL SUB AND CALLER DUP3 PUSH32 0x8C6C9F95AFE4C944C9F81D2965F0A9A0C021CE66AC4020DD8B25953A971F9148 PUSH2 0x3ABD PUSH1 0x40 DUP9 ADD PUSH1 0x20 DUP10 ADD PUSH2 0x4E58 JUMP JUMPDEST PUSH1 0x40 DUP1 MLOAD PUSH1 0x1 PUSH1 0x1 PUSH1 0xA0 SHL SUB SWAP1 SWAP3 AND DUP3 MSTORE DUP1 DUP10 ADD CALLDATALOAD PUSH1 0x20 DUP4 ADD MSTORE PUSH1 0x60 DUP1 DUP11 ADD CALLDATALOAD SWAP2 DUP4 ADD SWAP2 SWAP1 SWAP2 MSTORE ADD PUSH2 0x347B JUMP JUMPDEST PUSH2 0x3AF2 PUSH2 0x363F JUMP JUMPDEST PUSH1 0x1 PUSH1 0x1 PUSH1 0xA0 SHL SUB AND DUP2 PUSH1 0x1 PUSH1 0x1 PUSH1 0xA0 SHL SUB AND SUB PUSH2 0x3B52 JUMPI PUSH1 0x40 MLOAD PUSH3 0x461BCD PUSH1 0xE5 SHL DUP2 MSTORE PUSH1 0x20 PUSH1 0x4 DUP3 ADD MSTORE PUSH1 0x1A PUSH1 0x24 DUP3 ADD MSTORE PUSH32 0x496C6C6567616C204E657720496D706C656D656E746174696F6E000000000000 PUSH1 0x44 DUP3 ADD MSTORE PUSH1 0x64 ADD PUSH2 0xDA4 JUMP JUMPDEST PUSH2 0x3B62 PUSH4 0x7147855D PUSH1 0xE0 SHL PUSH2 0x3660 JUMP JUMPDEST PUSH2 0x3BAE JUMPI PUSH1 0x40 MLOAD PUSH3 0x461BCD PUSH1 0xE5 SHL DUP2 MSTORE PUSH1 0x20 PUSH1 0x4 DUP3 ADD MSTORE PUSH1 0x19 PUSH1 0x24 DUP3 ADD MSTORE PUSH32 0x5570677261646520436F6E7465787420466F7262696464656E00000000000000 PUSH1 0x44 DUP3 ADD MSTORE PUSH1 0x64 ADD PUSH2 0xDA4 JUMP JUMPDEST POP JUMP JUMPDEST PUSH1 0x60 PUSH32 0x4910FDFA16FED3260ED0E7147F7CC6DA11A60208B5B9406D12A635614FFD9143 SLOAD PUSH1 0xFF AND ISZERO PUSH2 0x3BFB JUMPI PUSH2 0x3BE6 DUP5 PUSH2 0x45BD JUMP JUMPDEST POP PUSH1 0x40 DUP1 MLOAD PUSH1 0x0 DUP2 MSTORE PUSH1 0x20 DUP2 ADD SWAP1 SWAP2 MSTORE PUSH2 0xEC4 JUMP JUMPDEST DUP4 PUSH1 0x1 PUSH1 0x1 PUSH1 0xA0 SHL SUB AND PUSH4 0x52D1902D PUSH1 0x40 MLOAD DUP2 PUSH4 0xFFFFFFFF AND PUSH1 0xE0 SHL DUP2 MSTORE PUSH1 0x4 ADD PUSH1 0x20 PUSH1 0x40 MLOAD DUP1 DUP4 SUB DUP2 DUP7 GAS STATICCALL SWAP3 POP POP POP DUP1 ISZERO PUSH2 0x3C55 JUMPI POP PUSH1 0x40 DUP1 MLOAD PUSH1 0x1F RETURNDATASIZE SWAP1 DUP2 ADD PUSH1 0x1F NOT AND DUP3 ADD SWAP1 SWAP3 MSTORE PUSH2 0x3C52 SWAP2 DUP2 ADD SWAP1 PUSH2 0x569D JUMP JUMPDEST PUSH1 0x1 JUMPDEST PUSH2 0x3C99 JUMPI PUSH1 0x40 MLOAD PUSH3 0x461BCD PUSH1 0xE5 SHL DUP2 MSTORE PUSH1 0x20 PUSH1 0x4 DUP3 ADD MSTORE PUSH1 0x15 PUSH1 0x24 DUP3 ADD MSTORE PUSH21 0x125B1B1959D85B0815555414C810DBDB9D1C9858DD PUSH1 0x5A SHL PUSH1 0x44 DUP3 ADD MSTORE PUSH1 0x64 ADD PUSH2 0xDA4 JUMP JUMPDEST PUSH1 0x0 DUP1 MLOAD PUSH1 0x20 PUSH2 0x5D90 DUP4 CODECOPY DUP2 MLOAD SWAP2 MSTORE DUP2 EQ PUSH2 0x3CEE JUMPI PUSH1 0x40 MLOAD PUSH3 0x461BCD PUSH1 0xE5 SHL DUP2 MSTORE PUSH1 0x20 PUSH1 0x4 DUP3 ADD MSTORE PUSH1 0x15 PUSH1 0x24 DUP3 ADD MSTORE PUSH21 0x125B9D985B1A590815555414C810DBDB9D1C9858DD PUSH1 0x5A SHL PUSH1 0x44 DUP3 ADD MSTORE PUSH1 0x64 ADD PUSH2 0xDA4 JUMP JUMPDEST POP PUSH1 0x40 MLOAD PUSH4 0x1FFC9A7 PUSH1 0xE0 SHL DUP2 MSTORE PUSH4 0x748BE053 PUSH1 0xE0 SHL PUSH1 0x4 DUP3 ADD MSTORE PUSH1 0x1 PUSH1 0x1 PUSH1 0xA0 SHL SUB DUP6 AND SWAP1 PUSH4 0x1FFC9A7 SWAP1 PUSH1 0x24 ADD PUSH1 0x20 PUSH1 0x40 MLOAD DUP1 DUP4 SUB DUP2 DUP7 GAS STATICCALL SWAP3 POP POP POP DUP1 ISZERO PUSH2 0x3D56 JUMPI POP PUSH1 0x40 DUP1 MLOAD PUSH1 0x1F RETURNDATASIZE SWAP1 DUP2 ADD PUSH1 0x1F NOT AND DUP3 ADD SWAP1 SWAP3 MSTORE PUSH2 0x3D53 SWAP2 DUP2 ADD SWAP1 PUSH2 0x5642 JUMP JUMPDEST PUSH1 0x1 JUMPDEST PUSH2 0x3DA2 JUMPI PUSH1 0x40 MLOAD PUSH3 0x461BCD PUSH1 0xE5 SHL DUP2 MSTORE PUSH1 0x20 PUSH1 0x4 DUP3 ADD MSTORE PUSH1 0x17 PUSH1 0x24 DUP3 ADD MSTORE PUSH32 0x496C6C6567616C204950726F787920436F6E7472616374000000000000000000 PUSH1 0x44 DUP3 ADD MSTORE PUSH1 0x64 ADD PUSH2 0xDA4 JUMP JUMPDEST DUP1 PUSH2 0x3DEF JUMPI PUSH1 0x40 MLOAD PUSH3 0x461BCD PUSH1 0xE5 SHL DUP2 MSTORE PUSH1 0x20 PUSH1 0x4 DUP3 ADD MSTORE PUSH1 0x17 PUSH1 0x24 DUP3 ADD MSTORE PUSH32 0x496E76616C6964204950726F787920436F6E7472616374000000000000000000 PUSH1 0x44 DUP3 ADD MSTORE PUSH1 0x64 ADD PUSH2 0xDA4 JUMP JUMPDEST POP PUSH2 0x3DFB DUP5 DUP5 DUP5 PUSH2 0x463E JUMP JUMPDEST SWAP1 POP PUSH2 0xEC4 JUMP JUMPDEST PUSH1 0x0 PUSH2 0xEC4 DUP4 PUSH1 0x1 PUSH1 0x1 PUSH1 0xA0 SHL SUB DUP5 AND PUSH2 0x46A8 JUMP JUMPDEST PUSH1 0x60 PUSH1 0x0 PUSH2 0xEC4 DUP4 PUSH2 0x46F7 JUMP JUMPDEST PUSH1 0x40 MLOAD PUSH12 0xFFFFFFFFFFFFFFFFFFFFFFFF NOT PUSH1 0x60 DUP4 SWAP1 SHL AND PUSH1 0x20 DUP3 ADD MSTORE PUSH1 0x0 SWAP1 PUSH1 0x34 ADD PUSH1 0x40 MLOAD PUSH1 0x20 DUP2 DUP4 SUB SUB DUP2 MSTORE SWAP1 PUSH1 0x40 MSTORE DUP1 MLOAD SWAP1 PUSH1 0x20 ADD KECCAK256 SWAP1 POP SWAP2 SWAP1 POP JUMP JUMPDEST PUSH1 0x0 DUP1 PUSH1 0x0 PUSH20 0x0 PUSH4 0xF1C3AFEF PUSH1 0x4A DUP7 PUSH1 0x40 MLOAD DUP4 PUSH4 0xFFFFFFFF AND PUSH1 0xE0 SHL DUP2 MSTORE PUSH1 0x4 ADD PUSH2 0x3EA2 SWAP3 SWAP2 SWAP1 PUSH2 0x58BB JUMP JUMPDEST PUSH1 0x40 DUP1 MLOAD DUP1 DUP4 SUB DUP2 DUP7 GAS DELEGATECALL ISZERO DUP1 ISZERO PUSH2 0x3EBE JUMPI RETURNDATASIZE PUSH1 0x0 DUP1 RETURNDATACOPY RETURNDATASIZE PUSH1 0x0 REVERT JUMPDEST POP POP POP POP PUSH1 0x40 MLOAD RETURNDATASIZE PUSH1 0x1F NOT PUSH1 0x1F DUP3 ADD AND DUP3 ADD DUP1 PUSH1 0x40 MSTORE POP DUP2 ADD SWAP1 PUSH2 0x3EE2 SWAP2 SWAP1 PUSH2 0x5942 JUMP JUMPDEST SWAP1 SWAP3 POP SWAP1 POP PUSH2 0x3EF7 PUSH1 0x40 DUP6 ADD PUSH1 0x20 DUP7 ADD PUSH2 0x4E58 JUMP JUMPDEST PUSH1 0x1 PUSH1 0x1 PUSH1 0xA0 SHL SUB AND CALLER DUP6 CALLDATALOAD PUSH32 0x571AB3CB94EB114C4B41E4F4BBBE9625A6C546920DB08DDEA52BD3EC7CB58586 DUP6 DUP6 PUSH2 0x3F33 PUSH1 0x40 DUP12 ADD DUP12 PUSH2 0x56B6 JUMP JUMPDEST PUSH1 0x40 MLOAD PUSH2 0x3F43 SWAP5 SWAP4 SWAP3 SWAP2 SWAP1 PUSH2 0x5970 JUMP JUMPDEST PUSH1 0x40 MLOAD DUP1 SWAP2 SUB SWAP1 LOG4 SWAP4 SWAP3 POP POP POP JUMP JUMPDEST PUSH1 0x1 PUSH1 0x1 PUSH1 0xA0 SHL SUB DUP2 AND PUSH1 0x0 SWAP1 DUP2 MSTORE PUSH1 0x4A PUSH1 0x20 MSTORE PUSH1 0x40 SWAP1 KECCAK256 PUSH1 0x2 ADD DUP1 SLOAD PUSH1 0x1 DUP2 ADD DUP3 SSTORE SWAP1 PUSH2 0x2A9D JUMP JUMPDEST PUSH1 0x1 SLOAD PUSH1 0x2 SLOAD PUSH1 0x40 DUP1 MLOAD PUSH32 0x8B73C3C69BB8FE3D512ECC4CF759CC79239F7B179B0FFACAA9A75D522B39400F PUSH1 0x20 DUP3 ADD MSTORE SWAP1 DUP2 ADD SWAP3 SWAP1 SWAP3 MSTORE PUSH1 0x60 DUP3 ADD MSTORE CHAINID PUSH1 0x80 DUP3 ADD MSTORE ADDRESS PUSH1 0xA0 DUP3 ADD MSTORE PUSH1 0x0 SWAP1 PUSH1 0xC0 ADD PUSH1 0x40 MLOAD PUSH1 0x20 DUP2 DUP4 SUB SUB DUP2 MSTORE SWAP1 PUSH1 0x40 MSTORE DUP1 MLOAD SWAP1 PUSH1 0x20 ADD KECCAK256 SWAP1 POP SWAP1 JUMP JUMPDEST PUSH1 0x0 DUP1 PUSH1 0x0 PUSH2 0x3FF3 DUP6 DUP6 PUSH2 0x4753 JUMP JUMPDEST SWAP2 POP SWAP2 POP PUSH2 0x4000 DUP2 PUSH2 0x47C1 JUMP JUMPDEST POP SWAP4 SWAP3 POP POP POP JUMP JUMPDEST PUSH1 0x0 PUSH2 0x4014 DUP5 DUP5 PUSH2 0x3554 JUMP JUMPDEST SWAP1 POP DUP2 DUP2 LT ISZERO PUSH2 0x4066 JUMPI PUSH1 0x40 MLOAD PUSH3 0x461BCD PUSH1 0xE5 SHL DUP2 MSTORE PUSH1 0x20 PUSH1 0x4 DUP3 ADD MSTORE PUSH1 0x1E PUSH1 0x24 DUP3 ADD MSTORE PUSH32 0x496E73756666696369656E74204163636F756E7420416C6C6F77616E63650000 PUSH1 0x44 DUP3 ADD MSTORE PUSH1 0x64 ADD PUSH2 0xDA4 JUMP JUMPDEST PUSH2 0x4073 DUP5 DUP5 DUP5 DUP5 SUB PUSH2 0x329C JUMP JUMPDEST POP POP POP POP JUMP JUMPDEST PUSH1 0x0 PUSH2 0x4090 PUSH1 0x48 SLOAD DUP4 PUSH2 0x4977 SWAP1 SWAP2 SWAP1 PUSH4 0xFFFFFFFF AND JUMP JUMPDEST SWAP1 POP PUSH1 0x0 PUSH2 0x40DE DUP3 PUSH1 0x40 MLOAD DUP1 PUSH1 0x40 ADD PUSH1 0x40 MSTORE DUP1 PUSH1 0x1C DUP2 MSTORE PUSH1 0x20 ADD PUSH32 0x496E73756666696369656E74205472616E7366657220416D6F756E7400000000 DUP2 MSTORE POP DUP6 PUSH2 0x498F SWAP1 SWAP3 SWAP2 SWAP1 PUSH4 0xFFFFFFFF AND JUMP JUMPDEST PUSH1 0x49 SLOAD SWAP1 SWAP2 POP PUSH2 0x40F9 SWAP1 DUP7 SWAP1 PUSH1 0x1 PUSH1 0x1 PUSH1 0xA0 SHL SUB AND DUP5 PUSH2 0x4100 JUMP JUMPDEST PUSH2 0x3295 DUP6 DUP6 DUP4 JUMPDEST PUSH1 0x40 MLOAD PUSH4 0x3DE90DB3 PUSH1 0xE0 SHL DUP2 MSTORE PUSH1 0x4A PUSH1 0x4 DUP3 ADD MSTORE PUSH1 0x1 PUSH1 0x1 PUSH1 0xA0 SHL SUB DUP1 DUP6 AND PUSH1 0x24 DUP4 ADD MSTORE DUP4 AND PUSH1 0x44 DUP3 ADD MSTORE PUSH1 0x64 DUP2 ADD DUP3 SWAP1 MSTORE PUSH20 0x0 SWAP1 PUSH4 0x3DE90DB3 SWAP1 PUSH1 0x84 ADD PUSH1 0x0 PUSH1 0x40 MLOAD DUP1 DUP4 SUB DUP2 DUP7 DUP1 EXTCODESIZE ISZERO DUP1 ISZERO PUSH2 0x4169 JUMPI PUSH1 0x0 DUP1 REVERT JUMPDEST POP GAS DELEGATECALL ISZERO DUP1 ISZERO PUSH2 0x417D JUMPI RETURNDATASIZE PUSH1 0x0 DUP1 RETURNDATACOPY RETURNDATASIZE PUSH1 0x0 REVERT JUMPDEST POP POP POP POP DUP2 PUSH1 0x1 PUSH1 0x1 PUSH1 0xA0 SHL SUB AND DUP4 PUSH1 0x1 PUSH1 0x1 PUSH1 0xA0 SHL SUB AND PUSH32 0xDDF252AD1BE2C89B69C2B068FC378DAA952BA7F163C4A11628F55A4DF523B3EF DUP4 PUSH1 0x40 MLOAD PUSH2 0x3395 SWAP2 DUP2 MSTORE PUSH1 0x20 ADD SWAP1 JUMP JUMPDEST PUSH32 0xB53127684A568B3173AE13B9F8A6016E243E63B6E8EE1178D6A717850B5D6103 DUP1 SLOAD PUSH1 0x1 PUSH1 0x1 PUSH1 0xA0 SHL SUB DUP4 AND PUSH1 0x1 PUSH1 0x1 PUSH1 0xA0 SHL SUB NOT SWAP1 SWAP2 AND DUP2 OR SWAP1 SWAP2 SSTORE PUSH1 0x40 DUP1 MLOAD SWAP2 DUP3 MSTORE MLOAD ADDRESS SWAP2 CALLER SWAP2 PUSH32 0x54AB0D18DE7958786BA1AD85966D59BAA2B395455F0530DCDCFD732E6AF539E2 SWAP2 DUP2 SWAP1 SUB PUSH1 0x20 ADD SWAP1 LOG3 POP JUMP JUMPDEST PUSH1 0x0 PUSH32 0xB53127684A568B3173AE13B9F8A6016E243E63B6E8EE1178D6A717850B5D6103 PUSH2 0x3651 JUMP JUMPDEST PUSH2 0x4273 DUP7 DUP7 DUP7 DUP7 DUP7 DUP7 PUSH2 0x49BB JUMP JUMPDEST POP POP POP POP POP POP JUMP JUMPDEST PUSH1 0x1 SLOAD PUSH1 0x2 SLOAD PUSH1 0x3 SLOAD PUSH1 0x40 MLOAD PUSH4 0x97CA328D PUSH1 0xE0 SHL DUP2 MSTORE PUSH1 0x4 DUP2 ADD SWAP4 SWAP1 SWAP4 MSTORE PUSH1 0x24 DUP4 ADD SWAP2 SWAP1 SWAP2 MSTORE PUSH1 0x44 DUP3 ADD MSTORE PUSH1 0x0 SWAP1 DUP2 SWAP1 PUSH20 0x0 SWAP1 PUSH4 0x97CA328D SWAP1 PUSH1 0x64 ADD PUSH1 0x0 PUSH1 0x40 MLOAD DUP1 DUP4 SUB DUP2 DUP7 GAS DELEGATECALL ISZERO DUP1 ISZERO PUSH2 0x42E7 JUMPI RETURNDATASIZE PUSH1 0x0 DUP1 RETURNDATACOPY RETURNDATASIZE PUSH1 0x0 REVERT JUMPDEST POP POP POP POP PUSH1 0x40 MLOAD RETURNDATASIZE PUSH1 0x0 DUP3 RETURNDATACOPY PUSH1 0x1F RETURNDATASIZE SWAP1 DUP2 ADD PUSH1 0x1F NOT AND DUP3 ADD PUSH1 0x40 MSTORE PUSH2 0x430F SWAP2 SWAP1 DUP2 ADD SWAP1 PUSH2 0x5AFC JUMP JUMPDEST PUSH1 0x0 SLOAD PUSH1 0x40 MLOAD PUSH4 0x78EFA4ED PUSH1 0xE1 SHL DUP2 MSTORE SWAP3 SWAP5 POP SWAP1 SWAP3 POP PUSH1 0x1 PUSH1 0x1 PUSH1 0xA0 SHL SUB AND SWAP1 PUSH4 0xF1DF49DA SWAP1 PUSH2 0x4349 SWAP1 DUP8 SWAP1 DUP8 SWAP1 DUP8 SWAP1 DUP8 SWAP1 PUSH1 0x4 ADD PUSH2 0x5BB8 JUMP JUMPDEST PUSH1 0x20 PUSH1 0x40 MLOAD DUP1 DUP4 SUB DUP2 PUSH1 0x0 DUP8 GAS CALL ISZERO DUP1 ISZERO PUSH2 0x4368 JUMPI RETURNDATASIZE PUSH1 0x0 DUP1 RETURNDATACOPY RETURNDATASIZE PUSH1 0x0 REVERT JUMPDEST POP POP POP POP PUSH1 0x40 MLOAD RETURNDATASIZE PUSH1 0x1F NOT PUSH1 0x1F DUP3 ADD AND DUP3 ADD DUP1 PUSH1 0x40 MSTORE POP DUP2 ADD SWAP1 PUSH2 0x438C SWAP2 SWAP1 PUSH2 0x569D JUMP JUMPDEST POP PUSH2 0x4395 PUSH2 0x363F JUMP JUMPDEST PUSH1 0x1 PUSH1 0x1 PUSH1 0xA0 SHL SUB AND ADDRESS CALLER PUSH1 0x1 PUSH1 0x1 PUSH1 0xA0 SHL SUB AND PUSH32 0xF851A1E85477B818FC72AD517EA622CC316F10F67D61C9E740ADC151A8B41394 DUP13 DUP13 DUP13 DUP13 DUP13 PUSH2 0x43DC PUSH1 0x51 SLOAD PUSH2 0xFFFF AND SWAP1 JUMP JUMPDEST PUSH1 0x40 MLOAD PUSH2 0x43EE SWAP7 SWAP6 SWAP5 SWAP4 SWAP3 SWAP2 SWAP1 PUSH2 0x5CC4 JUMP JUMPDEST PUSH1 0x40 MLOAD DUP1 SWAP2 SUB SWAP1 LOG4 POP POP POP POP POP POP POP POP POP JUMP JUMPDEST PUSH1 0x60 PUSH1 0x1 PUSH1 0x1 PUSH1 0xA0 SHL SUB DUP5 AND EXTCODESIZE PUSH2 0x4455 JUMPI PUSH1 0x40 MLOAD PUSH3 0x461BCD PUSH1 0xE5 SHL DUP2 MSTORE PUSH1 0x20 PUSH1 0x4 DUP3 ADD MSTORE PUSH1 0x18 PUSH1 0x24 DUP3 ADD MSTORE PUSH24 0x496C6C6567616C20436F6E74726163742041646472657373 PUSH1 0x40 SHL PUSH1 0x44 DUP3 ADD MSTORE PUSH1 0x64 ADD PUSH2 0xDA4 JUMP JUMPDEST PUSH1 0x0 DUP1 DUP6 PUSH1 0x1 PUSH1 0x1 PUSH1 0xA0 SHL SUB AND DUP6 PUSH1 0x40 MLOAD PUSH2 0x4470 SWAP2 SWAP1 PUSH2 0x5D09 JUMP JUMPDEST PUSH1 0x0 PUSH1 0x40 MLOAD DUP1 DUP4 SUB DUP2 DUP6 GAS DELEGATECALL SWAP2 POP POP RETURNDATASIZE DUP1 PUSH1 0x0 DUP2 EQ PUSH2 0x44AB JUMPI PUSH1 0x40 MLOAD SWAP2 POP PUSH1 0x1F NOT PUSH1 0x3F RETURNDATASIZE ADD AND DUP3 ADD PUSH1 0x40 MSTORE RETURNDATASIZE DUP3 MSTORE RETURNDATASIZE PUSH1 0x0 PUSH1 0x20 DUP5 ADD RETURNDATACOPY PUSH2 0x44B0 JUMP JUMPDEST PUSH1 0x60 SWAP2 POP JUMPDEST POP SWAP2 POP SWAP2 POP PUSH2 0x44C0 DUP3 DUP3 DUP7 PUSH2 0x4BC6 JUMP JUMPDEST SWAP7 SWAP6 POP POP POP POP POP POP JUMP JUMPDEST PUSH1 0x0 DUP2 DUP2 MSTORE PUSH1 0x1 DUP4 ADD PUSH1 0x20 MSTORE PUSH1 0x40 DUP2 KECCAK256 SLOAD DUP1 ISZERO PUSH2 0x45B3 JUMPI PUSH1 0x0 PUSH2 0x44EE PUSH1 0x1 DUP4 PUSH2 0x5624 JUMP JUMPDEST DUP6 SLOAD SWAP1 SWAP2 POP PUSH1 0x0 SWAP1 PUSH2 0x4502 SWAP1 PUSH1 0x1 SWAP1 PUSH2 0x5624 JUMP JUMPDEST SWAP1 POP DUP2 DUP2 EQ PUSH2 0x4567 JUMPI PUSH1 0x0 DUP7 PUSH1 0x0 ADD DUP3 DUP2 SLOAD DUP2 LT PUSH2 0x4522 JUMPI PUSH2 0x4522 PUSH2 0x5494 JUMP JUMPDEST SWAP1 PUSH1 0x0 MSTORE PUSH1 0x20 PUSH1 0x0 KECCAK256 ADD SLOAD SWAP1 POP DUP1 DUP8 PUSH1 0x0 ADD DUP5 DUP2 SLOAD DUP2 LT PUSH2 0x4545 JUMPI PUSH2 0x4545 PUSH2 0x5494 JUMP JUMPDEST PUSH1 0x0 SWAP2 DUP3 MSTORE PUSH1 0x20 DUP1 DUP4 KECCAK256 SWAP1 SWAP2 ADD SWAP3 SWAP1 SWAP3 SSTORE SWAP2 DUP3 MSTORE PUSH1 0x1 DUP9 ADD SWAP1 MSTORE PUSH1 0x40 SWAP1 KECCAK256 DUP4 SWAP1 SSTORE JUMPDEST DUP6 SLOAD DUP7 SWAP1 DUP1 PUSH2 0x4578 JUMPI PUSH2 0x4578 PUSH2 0x5D1B JUMP JUMPDEST PUSH1 0x1 SWAP1 SUB DUP2 DUP2 SWAP1 PUSH1 0x0 MSTORE PUSH1 0x20 PUSH1 0x0 KECCAK256 ADD PUSH1 0x0 SWAP1 SSTORE SWAP1 SSTORE DUP6 PUSH1 0x1 ADD PUSH1 0x0 DUP7 DUP2 MSTORE PUSH1 0x20 ADD SWAP1 DUP2 MSTORE PUSH1 0x20 ADD PUSH1 0x0 KECCAK256 PUSH1 0x0 SWAP1 SSTORE PUSH1 0x1 SWAP4 POP POP POP POP PUSH2 0xB7C JUMP JUMPDEST PUSH1 0x0 SWAP2 POP POP PUSH2 0xB7C JUMP JUMPDEST PUSH1 0x1 PUSH1 0x1 PUSH1 0xA0 SHL SUB DUP2 AND EXTCODESIZE PUSH2 0x460F JUMPI PUSH1 0x40 MLOAD PUSH3 0x461BCD PUSH1 0xE5 SHL DUP2 MSTORE PUSH1 0x20 PUSH1 0x4 DUP3 ADD MSTORE PUSH1 0x18 PUSH1 0x24 DUP3 ADD MSTORE PUSH24 0x496C6C6567616C20436F6E74726163742041646472657373 PUSH1 0x40 SHL PUSH1 0x44 DUP3 ADD MSTORE PUSH1 0x64 ADD PUSH2 0xDA4 JUMP JUMPDEST PUSH1 0x0 DUP1 MLOAD PUSH1 0x20 PUSH2 0x5D90 DUP4 CODECOPY DUP2 MLOAD SWAP2 MSTORE DUP1 SLOAD PUSH1 0x1 PUSH1 0x1 PUSH1 0xA0 SHL SUB NOT AND PUSH1 0x1 PUSH1 0x1 PUSH1 0xA0 SHL SUB SWAP3 SWAP1 SWAP3 AND SWAP2 SWAP1 SWAP2 OR SWAP1 SSTORE JUMP JUMPDEST PUSH1 0x60 PUSH2 0x4649 DUP5 PUSH2 0x4BFF JUMP JUMPDEST PUSH1 0x0 DUP4 MLOAD GT DUP1 PUSH2 0x4656 JUMPI POP DUP2 JUMPDEST ISZERO PUSH2 0x4691 JUMPI PUSH2 0x3DFB DUP5 DUP5 PUSH1 0x40 MLOAD DUP1 PUSH1 0x40 ADD PUSH1 0x40 MSTORE DUP1 PUSH1 0x13 DUP2 MSTORE PUSH1 0x20 ADD PUSH19 0x11195B1959D85D1958D85B1B0811985A5B1959 PUSH1 0x6A SHL DUP2 MSTORE POP PUSH2 0x4401 JUMP JUMPDEST POP POP PUSH1 0x40 DUP1 MLOAD PUSH1 0x0 DUP2 MSTORE PUSH1 0x20 DUP2 ADD SWAP1 SWAP2 MSTORE SWAP3 SWAP2 POP POP JUMP JUMPDEST PUSH1 0x0 DUP2 DUP2 MSTORE PUSH1 0x1 DUP4 ADD PUSH1 0x20 MSTORE PUSH1 0x40 DUP2 KECCAK256 SLOAD PUSH2 0x46EF JUMPI POP DUP2 SLOAD PUSH1 0x1 DUP2 DUP2 ADD DUP5 SSTORE PUSH1 0x0 DUP5 DUP2 MSTORE PUSH1 0x20 DUP1 DUP3 KECCAK256 SWAP1 SWAP4 ADD DUP5 SWAP1 SSTORE DUP5 SLOAD DUP5 DUP3 MSTORE DUP3 DUP7 ADD SWAP1 SWAP4 MSTORE PUSH1 0x40 SWAP1 KECCAK256 SWAP2 SWAP1 SWAP2 SSTORE PUSH2 0xB7C JUMP JUMPDEST POP PUSH1 0x0 PUSH2 0xB7C JUMP JUMPDEST PUSH1 0x60 DUP2 PUSH1 0x0 ADD DUP1 SLOAD DUP1 PUSH1 0x20 MUL PUSH1 0x20 ADD PUSH1 0x40 MLOAD SWAP1 DUP2 ADD PUSH1 0x40 MSTORE DUP1 SWAP3 SWAP2 SWAP1 DUP2 DUP2 MSTORE PUSH1 0x20 ADD DUP3 DUP1 SLOAD DUP1 ISZERO PUSH2 0x4747 JUMPI PUSH1 0x20 MUL DUP3 ADD SWAP2 SWAP1 PUSH1 0x0 MSTORE PUSH1 0x20 PUSH1 0x0 KECCAK256 SWAP1 JUMPDEST DUP2 SLOAD DUP2 MSTORE PUSH1 0x20 ADD SWAP1 PUSH1 0x1 ADD SWAP1 DUP1 DUP4 GT PUSH2 0x4733 JUMPI JUMPDEST POP POP POP POP POP SWAP1 POP SWAP2 SWAP1 POP JUMP JUMPDEST PUSH1 0x0 DUP1 DUP3 MLOAD PUSH1 0x41 SUB PUSH2 0x4789 JUMPI PUSH1 0x20 DUP4 ADD MLOAD PUSH1 0x40 DUP5 ADD MLOAD PUSH1 0x60 DUP6 ADD MLOAD PUSH1 0x0 BYTE PUSH2 0x477D DUP8 DUP3 DUP6 DUP6 PUSH2 0x4C43 JUMP JUMPDEST SWAP5 POP SWAP5 POP POP POP POP PUSH2 0x47BA JUMP JUMPDEST DUP3 MLOAD PUSH1 0x40 SUB PUSH2 0x47B2 JUMPI PUSH1 0x20 DUP4 ADD MLOAD PUSH1 0x40 DUP5 ADD MLOAD PUSH2 0x47A7 DUP7 DUP4 DUP4 PUSH2 0x4D30 JUMP JUMPDEST SWAP4 POP SWAP4 POP POP POP PUSH2 0x47BA JUMP JUMPDEST POP PUSH1 0x0 SWAP1 POP PUSH1 0x2 JUMPDEST SWAP3 POP SWAP3 SWAP1 POP JUMP JUMPDEST PUSH1 0x0 DUP2 PUSH1 0x4 DUP2 GT ISZERO PUSH2 0x47D5 JUMPI PUSH2 0x47D5 PUSH2 0x55EE JUMP JUMPDEST SUB PUSH2 0x47DD JUMPI POP JUMP JUMPDEST PUSH1 0x1 DUP2 PUSH1 0x4 DUP2 GT ISZERO PUSH2 0x47F1 JUMPI PUSH2 0x47F1 PUSH2 0x55EE JUMP JUMPDEST SUB PUSH2 0x483E JUMPI PUSH1 0x40 MLOAD PUSH3 0x461BCD PUSH1 0xE5 SHL DUP2 MSTORE PUSH1 0x20 PUSH1 0x4 DUP3 ADD MSTORE PUSH1 0x18 PUSH1 0x24 DUP3 ADD MSTORE PUSH32 0x45434453413A20696E76616C6964207369676E61747572650000000000000000 PUSH1 0x44 DUP3 ADD MSTORE PUSH1 0x64 ADD PUSH2 0xDA4 JUMP JUMPDEST PUSH1 0x2 DUP2 PUSH1 0x4 DUP2 GT ISZERO PUSH2 0x4852 JUMPI PUSH2 0x4852 PUSH2 0x55EE JUMP JUMPDEST SUB PUSH2 0x489F JUMPI PUSH1 0x40 MLOAD PUSH3 0x461BCD PUSH1 0xE5 SHL DUP2 MSTORE PUSH1 0x20 PUSH1 0x4 DUP3 ADD MSTORE PUSH1 0x1F PUSH1 0x24 DUP3 ADD MSTORE PUSH32 0x45434453413A20696E76616C6964207369676E6174757265206C656E67746800 PUSH1 0x44 DUP3 ADD MSTORE PUSH1 0x64 ADD PUSH2 0xDA4 JUMP JUMPDEST PUSH1 0x3 DUP2 PUSH1 0x4 DUP2 GT ISZERO PUSH2 0x48B3 JUMPI PUSH2 0x48B3 PUSH2 0x55EE JUMP JUMPDEST SUB PUSH2 0x490B JUMPI PUSH1 0x40 MLOAD PUSH3 0x461BCD PUSH1 0xE5 SHL DUP2 MSTORE PUSH1 0x20 PUSH1 0x4 DUP3 ADD MSTORE PUSH1 0x22 PUSH1 0x24 DUP3 ADD MSTORE PUSH32 0x45434453413A20696E76616C6964207369676E6174757265202773272076616C PUSH1 0x44 DUP3 ADD MSTORE PUSH2 0x7565 PUSH1 0xF0 SHL PUSH1 0x64 DUP3 ADD MSTORE PUSH1 0x84 ADD PUSH2 0xDA4 JUMP JUMPDEST PUSH1 0x4 DUP2 PUSH1 0x4 DUP2 GT ISZERO PUSH2 0x491F JUMPI PUSH2 0x491F PUSH2 0x55EE JUMP JUMPDEST SUB PUSH2 0x3BAE JUMPI PUSH1 0x40 MLOAD PUSH3 0x461BCD PUSH1 0xE5 SHL DUP2 MSTORE PUSH1 0x20 PUSH1 0x4 DUP3 ADD MSTORE PUSH1 0x22 PUSH1 0x24 DUP3 ADD MSTORE PUSH32 0x45434453413A20696E76616C6964207369676E6174757265202776272076616C PUSH1 0x44 DUP3 ADD MSTORE PUSH2 0x7565 PUSH1 0xF0 SHL PUSH1 0x64 DUP3 ADD MSTORE PUSH1 0x84 ADD PUSH2 0xDA4 JUMP JUMPDEST PUSH1 0x0 PUSH2 0xEC4 PUSH2 0x2710 PUSH2 0x4989 DUP6 DUP6 PUSH2 0x4D69 JUMP JUMPDEST SWAP1 PUSH2 0x4D75 JUMP JUMPDEST PUSH1 0x0 DUP2 DUP5 DUP5 GT ISZERO PUSH2 0x49B3 JUMPI PUSH1 0x40 MLOAD PUSH3 0x461BCD PUSH1 0xE5 SHL DUP2 MSTORE PUSH1 0x4 ADD PUSH2 0xDA4 SWAP2 SWAP1 PUSH2 0x4E04 JUMP JUMPDEST POP POP POP SWAP1 SUB SWAP1 JUMP JUMPDEST PUSH1 0x51 SLOAD PUSH3 0x10000 SWAP1 DIV PUSH1 0xFF AND PUSH2 0x4A13 JUMPI PUSH1 0x40 MLOAD PUSH3 0x461BCD PUSH1 0xE5 SHL DUP2 MSTORE PUSH1 0x20 PUSH1 0x4 DUP3 ADD MSTORE PUSH1 0x19 PUSH1 0x24 DUP3 ADD MSTORE PUSH32 0x436F6E7472616374204E6F7420496E697469616C697A696E6700000000000000 PUSH1 0x44 DUP3 ADD MSTORE PUSH1 0x64 ADD PUSH2 0xDA4 JUMP JUMPDEST DUP6 DUP6 PUSH1 0x40 MLOAD PUSH1 0x20 ADD PUSH2 0x4A26 SWAP3 SWAP2 SWAP1 PUSH2 0x56FC JUMP JUMPDEST PUSH1 0x40 DUP1 MLOAD PUSH1 0x1F NOT DUP2 DUP5 SUB ADD DUP2 MSTORE SWAP1 DUP3 SWAP1 MSTORE DUP1 MLOAD PUSH1 0x20 SWAP2 DUP3 ADD KECCAK256 PUSH1 0x1 SSTORE PUSH2 0x4A50 SWAP2 DUP7 SWAP2 DUP7 SWAP2 ADD PUSH2 0x56FC JUMP JUMPDEST PUSH1 0x40 DUP1 MLOAD PUSH1 0x1F NOT DUP2 DUP5 SUB ADD DUP2 MSTORE SWAP2 SWAP1 MSTORE DUP1 MLOAD PUSH1 0x20 SWAP1 SWAP2 ADD KECCAK256 PUSH1 0x2 SSTORE PUSH1 0x3 DUP3 SWAP1 SSTORE PUSH1 0x1 PUSH1 0x1 PUSH1 0xA0 SHL SUB DUP2 AND PUSH2 0x4A95 JUMPI PUSH1 0x0 DUP1 SLOAD PUSH1 0x1 PUSH1 0x1 PUSH1 0xA0 SHL SUB NOT AND ADDRESS OR SWAP1 SSTORE PUSH2 0x4BB2 JUMP JUMPDEST PUSH1 0x40 MLOAD PUSH4 0x1FFC9A7 PUSH1 0xE0 SHL DUP2 MSTORE PUSH4 0x4D4A7925 PUSH1 0xE0 SHL PUSH1 0x4 DUP3 ADD MSTORE PUSH1 0x1 PUSH1 0x1 PUSH1 0xA0 SHL SUB DUP3 AND SWAP1 PUSH4 0x1FFC9A7 SWAP1 PUSH1 0x24 ADD PUSH1 0x20 PUSH1 0x40 MLOAD DUP1 DUP4 SUB DUP2 DUP7 GAS STATICCALL SWAP3 POP POP POP DUP1 ISZERO PUSH2 0x4AFC JUMPI POP PUSH1 0x40 DUP1 MLOAD PUSH1 0x1F RETURNDATASIZE SWAP1 DUP2 ADD PUSH1 0x1F NOT AND DUP3 ADD SWAP1 SWAP3 MSTORE PUSH2 0x4AF9 SWAP2 DUP2 ADD SWAP1 PUSH2 0x5642 JUMP JUMPDEST PUSH1 0x1 JUMPDEST PUSH2 0x4B48 JUMPI PUSH1 0x40 MLOAD PUSH3 0x461BCD PUSH1 0xE5 SHL DUP2 MSTORE PUSH1 0x20 PUSH1 0x4 DUP3 ADD MSTORE PUSH1 0x1C PUSH1 0x24 DUP3 ADD MSTORE PUSH32 0x496C6C6567616C20416363657373436F6E74726F6C4D616E6167657200000000 PUSH1 0x44 DUP3 ADD MSTORE PUSH1 0x64 ADD PUSH2 0xDA4 JUMP JUMPDEST DUP1 PUSH2 0x4B95 JUMPI PUSH1 0x40 MLOAD PUSH3 0x461BCD PUSH1 0xE5 SHL DUP2 MSTORE PUSH1 0x20 PUSH1 0x4 DUP3 ADD MSTORE PUSH1 0x1C PUSH1 0x24 DUP3 ADD MSTORE PUSH32 0x496E76616C696420416363657373436F6E74726F6C4D616E6167657200000000 PUSH1 0x44 DUP3 ADD MSTORE PUSH1 0x64 ADD PUSH2 0xDA4 JUMP JUMPDEST POP PUSH1 0x0 DUP1 SLOAD PUSH1 0x1 PUSH1 0x1 PUSH1 0xA0 SHL SUB NOT AND PUSH1 0x1 PUSH1 0x1 PUSH1 0xA0 SHL SUB DUP4 AND OR SWAP1 SSTORE JUMPDEST PUSH1 0x4 DUP1 SLOAD PUSH2 0xFFFF NOT AND SWAP1 SSTORE PUSH2 0x4273 CALLER PUSH2 0x41C6 JUMP JUMPDEST PUSH1 0x60 DUP4 ISZERO PUSH2 0x4BD5 JUMPI POP DUP2 PUSH2 0xEC4 JUMP JUMPDEST DUP3 MLOAD ISZERO PUSH2 0x4BE5 JUMPI DUP3 MLOAD DUP1 DUP5 PUSH1 0x20 ADD REVERT JUMPDEST DUP2 PUSH1 0x40 MLOAD PUSH3 0x461BCD PUSH1 0xE5 SHL DUP2 MSTORE PUSH1 0x4 ADD PUSH2 0xDA4 SWAP2 SWAP1 PUSH2 0x4E04 JUMP JUMPDEST PUSH2 0x4C08 DUP2 PUSH2 0x45BD JUMP JUMPDEST PUSH1 0x40 MLOAD PUSH1 0x1 PUSH1 0x1 PUSH1 0xA0 SHL SUB DUP3 AND SWAP1 ADDRESS SWAP1 CALLER SWAP1 PUSH32 0x354BD4B6EB65D64E6C79C53FA4F983A5E6BEC4824CE4627C71BE0B2722F4917E SWAP1 PUSH1 0x0 SWAP1 LOG4 POP JUMP JUMPDEST PUSH1 0x0 DUP1 PUSH32 0x7FFFFFFFFFFFFFFFFFFFFFFFFFFFFFFF5D576E7357A4501DDFE92F46681B20A0 DUP4 GT ISZERO PUSH2 0x4C7A JUMPI POP PUSH1 0x0 SWAP1 POP PUSH1 0x3 PUSH2 0x4D27 JUMP JUMPDEST DUP5 PUSH1 0xFF AND PUSH1 0x1B EQ ISZERO DUP1 ISZERO PUSH2 0x4C92 JUMPI POP DUP5 PUSH1 0xFF AND PUSH1 0x1C EQ ISZERO JUMPDEST ISZERO PUSH2 0x4CA3 JUMPI POP PUSH1 0x0 SWAP1 POP PUSH1 0x4 PUSH2 0x4D27 JUMP JUMPDEST PUSH1 0x40 DUP1 MLOAD PUSH1 0x0 DUP1 DUP3 MSTORE PUSH1 0x20 DUP3 ADD DUP1 DUP5 MSTORE DUP10 SWAP1 MSTORE PUSH1 0xFF DUP9 AND SWAP3 DUP3 ADD SWAP3 SWAP1 SWAP3 MSTORE PUSH1 0x60 DUP2 ADD DUP7 SWAP1 MSTORE PUSH1 0x80 DUP2 ADD DUP6 SWAP1 MSTORE PUSH1 0x1 SWAP1 PUSH1 0xA0 ADD PUSH1 0x20 PUSH1 0x40 MLOAD PUSH1 0x20 DUP2 SUB SWAP1 DUP1 DUP5 SUB SWAP1 DUP6 GAS STATICCALL ISZERO DUP1 ISZERO PUSH2 0x4CF7 JUMPI RETURNDATASIZE PUSH1 0x0 DUP1 RETURNDATACOPY RETURNDATASIZE PUSH1 0x0 REVERT JUMPDEST POP POP PUSH1 0x40 MLOAD PUSH1 0x1F NOT ADD MLOAD SWAP2 POP POP PUSH1 0x1 PUSH1 0x1 PUSH1 0xA0 SHL SUB DUP2 AND PUSH2 0x4D20 JUMPI PUSH1 0x0 PUSH1 0x1 SWAP3 POP SWAP3 POP POP PUSH2 0x4D27 JUMP JUMPDEST SWAP2 POP PUSH1 0x0 SWAP1 POP JUMPDEST SWAP5 POP SWAP5 SWAP3 POP POP POP JUMP JUMPDEST PUSH1 0x0 DUP1 PUSH1 0x1 PUSH1 0x1 PUSH1 0xFF SHL SUB DUP4 AND DUP2 PUSH2 0x4D4D PUSH1 0xFF DUP7 SWAP1 SHR PUSH1 0x1B PUSH2 0x54C0 JUMP JUMPDEST SWAP1 POP PUSH2 0x4D5B DUP8 DUP3 DUP9 DUP6 PUSH2 0x4C43 JUMP JUMPDEST SWAP4 POP SWAP4 POP POP POP SWAP4 POP SWAP4 SWAP2 POP POP JUMP JUMPDEST PUSH1 0x0 PUSH2 0xEC4 DUP3 DUP5 PUSH2 0x5D31 JUMP JUMPDEST PUSH1 0x0 PUSH2 0xEC4 DUP3 DUP5 PUSH2 0x5D48 JUMP JUMPDEST PUSH1 0x1 PUSH1 0x1 PUSH1 0xE0 SHL SUB NOT DUP2 AND DUP2 EQ PUSH2 0x3BAE JUMPI PUSH1 0x0 DUP1 REVERT JUMPDEST PUSH1 0x0 PUSH1 0x20 DUP3 DUP5 SUB SLT ISZERO PUSH2 0x4DA9 JUMPI PUSH1 0x0 DUP1 REVERT JUMPDEST DUP2 CALLDATALOAD PUSH2 0xEC4 DUP2 PUSH2 0x4D81 JUMP JUMPDEST PUSH1 0x0 JUMPDEST DUP4 DUP2 LT ISZERO PUSH2 0x4DCF JUMPI DUP2 DUP2 ADD MLOAD DUP4 DUP3 ADD MSTORE PUSH1 0x20 ADD PUSH2 0x4DB7 JUMP JUMPDEST POP POP PUSH1 0x0 SWAP2 ADD MSTORE JUMP JUMPDEST PUSH1 0x0 DUP2 MLOAD DUP1 DUP5 MSTORE PUSH2 0x4DF0 DUP2 PUSH1 0x20 DUP7 ADD PUSH1 0x20 DUP7 ADD PUSH2 0x4DB4 JUMP JUMPDEST PUSH1 0x1F ADD PUSH1 0x1F NOT AND SWAP3 SWAP1 SWAP3 ADD PUSH1 0x20 ADD SWAP3 SWAP2 POP POP JUMP JUMPDEST PUSH1 0x20 DUP2 MSTORE PUSH1 0x0 PUSH2 0xEC4 PUSH1 0x20 DUP4 ADD DUP5 PUSH2 0x4DD8 JUMP JUMPDEST PUSH1 0x1 PUSH1 0x1 PUSH1 0xA0 SHL SUB DUP2 AND DUP2 EQ PUSH2 0x3BAE JUMPI PUSH1 0x0 DUP1 REVERT JUMPDEST PUSH1 0x0 DUP1 PUSH1 0x40 DUP4 DUP6 SUB SLT ISZERO PUSH2 0x4E3F JUMPI PUSH1 0x0 DUP1 REVERT JUMPDEST DUP3 CALLDATALOAD PUSH2 0x4E4A DUP2 PUSH2 0x4E17 JUMP JUMPDEST SWAP5 PUSH1 0x20 SWAP4 SWAP1 SWAP4 ADD CALLDATALOAD SWAP4 POP POP POP JUMP JUMPDEST PUSH1 0x0 PUSH1 0x20 DUP3 DUP5 SUB SLT ISZERO PUSH2 0x4E6A JUMPI PUSH1 0x0 DUP1 REVERT JUMPDEST DUP2 CALLDATALOAD PUSH2 0xEC4 DUP2 PUSH2 0x4E17 JUMP JUMPDEST PUSH1 0x0 DUP1 DUP4 PUSH1 0x1F DUP5 ADD SLT PUSH2 0x4E87 JUMPI PUSH1 0x0 DUP1 REVERT JUMPDEST POP DUP2 CALLDATALOAD PUSH1 0x1 PUSH1 0x1 PUSH1 0x40 SHL SUB DUP2 GT ISZERO PUSH2 0x4E9E JUMPI PUSH1 0x0 DUP1 REVERT JUMPDEST PUSH1 0x20 DUP4 ADD SWAP2 POP DUP4 PUSH1 0x20 DUP3 PUSH1 0x5 SHL DUP6 ADD ADD GT ISZERO PUSH2 0x47BA JUMPI PUSH1 0x0 DUP1 REVERT JUMPDEST PUSH1 0x0 DUP1 PUSH1 0x20 DUP4 DUP6 SUB SLT ISZERO PUSH2 0x4ECC JUMPI PUSH1 0x0 DUP1 REVERT JUMPDEST DUP3 CALLDATALOAD PUSH1 0x1 PUSH1 0x1 PUSH1 0x40 SHL SUB DUP2 GT ISZERO PUSH2 0x4EE2 JUMPI PUSH1 0x0 DUP1 REVERT JUMPDEST PUSH2 0x4EEE DUP6 DUP3 DUP7 ADD PUSH2 0x4E75 JUMP JUMPDEST SWAP1 SWAP7 SWAP1 SWAP6 POP SWAP4 POP POP POP POP JUMP JUMPDEST PUSH1 0x0 PUSH1 0x20 DUP3 DUP5 SUB SLT ISZERO PUSH2 0x4F0C JUMPI PUSH1 0x0 DUP1 REVERT JUMPDEST POP CALLDATALOAD SWAP2 SWAP1 POP JUMP JUMPDEST PUSH1 0x0 DUP1 PUSH1 0x20 DUP4 DUP6 SUB SLT ISZERO PUSH2 0x4F26 JUMPI PUSH1 0x0 DUP1 REVERT JUMPDEST DUP3 CALLDATALOAD PUSH1 0x1 PUSH1 0x1 PUSH1 0x40 SHL SUB DUP1 DUP3 GT ISZERO PUSH2 0x4F3D JUMPI PUSH1 0x0 DUP1 REVERT JUMPDEST DUP2 DUP6 ADD SWAP2 POP DUP6 PUSH1 0x1F DUP4 ADD SLT PUSH2 0x4F51 JUMPI PUSH1 0x0 DUP1 REVERT JUMPDEST DUP2 CALLDATALOAD DUP2 DUP2 GT ISZERO PUSH2 0x4F60 JUMPI PUSH1 0x0 DUP1 REVERT JUMPDEST DUP7 PUSH1 0x20 PUSH1 0x60 DUP4 MUL DUP6 ADD ADD GT ISZERO PUSH2 0x4F75 JUMPI PUSH1 0x0 DUP1 REVERT JUMPDEST PUSH1 0x20 SWAP3 SWAP1 SWAP3 ADD SWAP7 SWAP2 SWAP6 POP SWAP1 SWAP4 POP POP POP POP JUMP JUMPDEST PUSH1 0x0 DUP1 PUSH1 0x0 PUSH1 0x60 DUP5 DUP7 SUB SLT ISZERO PUSH2 0x4F9C JUMPI PUSH1 0x0 DUP1 REVERT JUMPDEST DUP4 CALLDATALOAD PUSH2 0x4FA7 DUP2 PUSH2 0x4E17 JUMP JUMPDEST SWAP3 POP PUSH1 0x20 DUP5 ADD CALLDATALOAD PUSH2 0x4FB7 DUP2 PUSH2 0x4E17 JUMP JUMPDEST SWAP3 SWAP6 SWAP3 SWAP5 POP POP POP PUSH1 0x40 SWAP2 SWAP1 SWAP2 ADD CALLDATALOAD SWAP1 JUMP JUMPDEST DUP1 ISZERO ISZERO DUP2 EQ PUSH2 0x3BAE JUMPI PUSH1 0x0 DUP1 REVERT JUMPDEST DUP1 CALLDATALOAD PUSH2 0x113C DUP2 PUSH2 0x4FC8 JUMP JUMPDEST PUSH1 0x0 PUSH1 0x20 DUP3 DUP5 SUB SLT ISZERO PUSH2 0x4FF3 JUMPI PUSH1 0x0 DUP1 REVERT JUMPDEST DUP2 CALLDATALOAD PUSH2 0xEC4 DUP2 PUSH2 0x4FC8 JUMP JUMPDEST PUSH1 0x0 DUP1 PUSH1 0x40 DUP4 DUP6 SUB SLT ISZERO PUSH2 0x5011 JUMPI PUSH1 0x0 DUP1 REVERT JUMPDEST DUP3 CALLDATALOAD PUSH2 0x501C DUP2 PUSH2 0x4E17 JUMP JUMPDEST SWAP2 POP PUSH1 0x20 DUP4 ADD CALLDATALOAD PUSH2 0x502C DUP2 PUSH2 0x4FC8 JUMP JUMPDEST DUP1 SWAP2 POP POP SWAP3 POP SWAP3 SWAP1 POP JUMP JUMPDEST PUSH1 0x0 PUSH1 0x80 DUP3 DUP5 SUB SLT ISZERO PUSH2 0x2A9D JUMPI PUSH1 0x0 DUP1 REVERT JUMPDEST PUSH4 0x4E487B71 PUSH1 0xE0 SHL PUSH1 0x0 MSTORE PUSH1 0x41 PUSH1 0x4 MSTORE PUSH1 0x24 PUSH1 0x0 REVERT JUMPDEST PUSH1 0x40 MLOAD PUSH1 0x60 DUP2 ADD PUSH1 0x1 PUSH1 0x1 PUSH1 0x40 SHL SUB DUP2 GT DUP3 DUP3 LT OR ISZERO PUSH2 0x5081 JUMPI PUSH2 0x5081 PUSH2 0x5049 JUMP JUMPDEST PUSH1 0x40 MSTORE SWAP1 JUMP JUMPDEST PUSH1 0x40 MLOAD PUSH1 0x1F DUP3 ADD PUSH1 0x1F NOT AND DUP2 ADD PUSH1 0x1 PUSH1 0x1 PUSH1 0x40 SHL SUB DUP2 GT DUP3 DUP3 LT OR ISZERO PUSH2 0x50AF JUMPI PUSH2 0x50AF PUSH2 0x5049 JUMP JUMPDEST PUSH1 0x40 MSTORE SWAP2 SWAP1 POP JUMP JUMPDEST PUSH1 0x0 DUP1 PUSH1 0x0 PUSH1 0x60 DUP5 DUP7 SUB SLT ISZERO PUSH2 0x50CC JUMPI PUSH1 0x0 DUP1 REVERT JUMPDEST DUP4 CALLDATALOAD PUSH2 0x50D7 DUP2 PUSH2 0x4E17 JUMP JUMPDEST SWAP3 POP PUSH1 0x20 DUP5 DUP2 ADD CALLDATALOAD PUSH1 0x1 PUSH1 0x1 PUSH1 0x40 SHL SUB DUP1 DUP3 GT ISZERO PUSH2 0x50F4 JUMPI PUSH1 0x0 DUP1 REVERT JUMPDEST DUP2 DUP8 ADD SWAP2 POP DUP8 PUSH1 0x1F DUP4 ADD SLT PUSH2 0x5108 JUMPI PUSH1 0x0 DUP1 REVERT JUMPDEST DUP2 CALLDATALOAD DUP2 DUP2 GT ISZERO PUSH2 0x511A JUMPI PUSH2 0x511A PUSH2 0x5049 JUMP JUMPDEST PUSH2 0x512C PUSH1 0x1F DUP3 ADD PUSH1 0x1F NOT AND DUP6 ADD PUSH2 0x5087 JUMP JUMPDEST SWAP2 POP DUP1 DUP3 MSTORE DUP9 DUP5 DUP3 DUP6 ADD ADD GT ISZERO PUSH2 0x5142 JUMPI PUSH1 0x0 DUP1 REVERT JUMPDEST DUP1 DUP5 DUP5 ADD DUP6 DUP5 ADD CALLDATACOPY PUSH1 0x0 DUP5 DUP3 DUP5 ADD ADD MSTORE POP DUP1 SWAP5 POP POP POP POP PUSH2 0x5165 PUSH1 0x40 DUP6 ADD PUSH2 0x4FD6 JUMP JUMPDEST SWAP1 POP SWAP3 POP SWAP3 POP SWAP3 JUMP JUMPDEST PUSH1 0x20 DUP1 DUP3 MSTORE DUP3 MLOAD DUP3 DUP3 ADD DUP2 SWAP1 MSTORE PUSH1 0x0 SWAP2 SWAP1 DUP5 DUP3 ADD SWAP1 PUSH1 0x40 DUP6 ADD SWAP1 DUP5 JUMPDEST DUP2 DUP2 LT ISZERO PUSH2 0x51AF JUMPI DUP4 MLOAD PUSH1 0x1 PUSH1 0x1 PUSH1 0xA0 SHL SUB AND DUP4 MSTORE SWAP3 DUP5 ADD SWAP3 SWAP2 DUP5 ADD SWAP2 PUSH1 0x1 ADD PUSH2 0x518A JUMP JUMPDEST POP SWAP1 SWAP7 SWAP6 POP POP POP POP POP POP JUMP JUMPDEST PUSH1 0x0 DUP1 DUP4 PUSH1 0x1F DUP5 ADD SLT PUSH2 0x51CD JUMPI PUSH1 0x0 DUP1 REVERT JUMPDEST POP DUP2 CALLDATALOAD PUSH1 0x1 PUSH1 0x1 PUSH1 0x40 SHL SUB DUP2 GT ISZERO PUSH2 0x51E4 JUMPI PUSH1 0x0 DUP1 REVERT JUMPDEST PUSH1 0x20 DUP4 ADD SWAP2 POP DUP4 PUSH1 0x20 DUP3 PUSH1 0x6 SHL DUP6 ADD ADD GT ISZERO PUSH2 0x47BA JUMPI PUSH1 0x0 DUP1 REVERT JUMPDEST PUSH1 0x0 DUP1 PUSH1 0x20 DUP4 DUP6 SUB SLT ISZERO PUSH2 0x5212 JUMPI PUSH1 0x0 DUP1 REVERT JUMPDEST DUP3 CALLDATALOAD PUSH1 0x1 PUSH1 0x1 PUSH1 0x40 SHL SUB DUP2 GT ISZERO PUSH2 0x5228 JUMPI PUSH1 0x0 DUP1 REVERT JUMPDEST PUSH2 0x4EEE DUP6 DUP3 DUP7 ADD PUSH2 0x51BB JUMP JUMPDEST PUSH1 0x0 DUP1 PUSH1 0x40 DUP4 DUP6 SUB SLT ISZERO PUSH2 0x5247 JUMPI PUSH1 0x0 DUP1 REVERT JUMPDEST DUP3 CALLDATALOAD SWAP2 POP PUSH1 0x20 DUP4 ADD CALLDATALOAD PUSH2 0x502C DUP2 PUSH2 0x4E17 JUMP JUMPDEST PUSH1 0x0 DUP1 PUSH1 0x20 DUP4 DUP6 SUB SLT ISZERO PUSH2 0x526C JUMPI PUSH1 0x0 DUP1 REVERT JUMPDEST DUP3 CALLDATALOAD PUSH1 0x1 PUSH1 0x1 PUSH1 0x40 SHL SUB DUP1 DUP3 GT ISZERO PUSH2 0x5283 JUMPI PUSH1 0x0 DUP1 REVERT JUMPDEST DUP2 DUP6 ADD SWAP2 POP DUP6 PUSH1 0x1F DUP4 ADD SLT PUSH2 0x5297 JUMPI PUSH1 0x0 DUP1 REVERT JUMPDEST DUP2 CALLDATALOAD DUP2 DUP2 GT ISZERO PUSH2 0x52A6 JUMPI PUSH1 0x0 DUP1 REVERT JUMPDEST DUP7 PUSH1 0x20 DUP3 PUSH1 0x7 SHL DUP6 ADD ADD GT ISZERO PUSH2 0x4F75 JUMPI PUSH1 0x0 DUP1 REVERT JUMPDEST PUSH1 0x20 DUP1 DUP3 MSTORE DUP3 MLOAD DUP3 DUP3 ADD DUP2 SWAP1 MSTORE PUSH1 0x0 SWAP2 SWAP1 DUP5 DUP3 ADD SWAP1 PUSH1 0x40 DUP6 ADD SWAP1 DUP5 JUMPDEST DUP2 DUP2 LT ISZERO PUSH2 0x51AF JUMPI DUP4 MLOAD DUP4 MSTORE SWAP3 DUP5 ADD SWAP3 SWAP2 DUP5 ADD SWAP2 PUSH1 0x1 ADD PUSH2 0x52D7 JUMP JUMPDEST PUSH1 0x0 DUP1 PUSH1 0x0 DUP1 PUSH1 0x0 DUP1 PUSH1 0xA0 DUP8 DUP10 SUB SLT ISZERO PUSH2 0x530C JUMPI PUSH1 0x0 DUP1 REVERT JUMPDEST DUP7 CALLDATALOAD PUSH2 0x5317 DUP2 PUSH2 0x4E17 JUMP JUMPDEST SWAP6 POP PUSH1 0x20 DUP8 ADD CALLDATALOAD PUSH2 0x5327 DUP2 PUSH2 0x4E17 JUMP JUMPDEST SWAP5 POP PUSH1 0x40 DUP8 ADD CALLDATALOAD SWAP4 POP PUSH1 0x60 DUP8 ADD CALLDATALOAD SWAP3 POP PUSH1 0x80 DUP8 ADD CALLDATALOAD PUSH1 0x1 PUSH1 0x1 PUSH1 0x40 SHL SUB DUP1 DUP3 GT ISZERO PUSH2 0x5351 JUMPI PUSH1 0x0 DUP1 REVERT JUMPDEST DUP2 DUP10 ADD SWAP2 POP DUP10 PUSH1 0x1F DUP4 ADD SLT PUSH2 0x5365 JUMPI PUSH1 0x0 DUP1 REVERT JUMPDEST DUP2 CALLDATALOAD DUP2 DUP2 GT ISZERO PUSH2 0x5374 JUMPI PUSH1 0x0 DUP1 REVERT JUMPDEST DUP11 PUSH1 0x20 DUP3 DUP6 ADD ADD GT ISZERO PUSH2 0x5386 JUMPI PUSH1 0x0 DUP1 REVERT JUMPDEST PUSH1 0x20 DUP4 ADD SWAP5 POP DUP1 SWAP4 POP POP POP POP SWAP3 SWAP6 POP SWAP3 SWAP6 POP SWAP3 SWAP6 JUMP JUMPDEST PUSH1 0x0 PUSH1 0xE0 DUP3 DUP5 SUB SLT ISZERO PUSH2 0x53AE JUMPI PUSH1 0x0 DUP1 REVERT JUMPDEST DUP3 PUSH1 0xE0 DUP4 ADD GT ISZERO PUSH2 0x2A9D JUMPI PUSH1 0x0 DUP1 REVERT JUMPDEST PUSH1 0x0 DUP1 PUSH1 0x40 DUP4 DUP6 SUB SLT ISZERO PUSH2 0x53D1 JUMPI PUSH1 0x0 DUP1 REVERT JUMPDEST DUP3 CALLDATALOAD PUSH2 0x53DC DUP2 PUSH2 0x4E17 JUMP JUMPDEST SWAP2 POP PUSH1 0x20 DUP4 ADD CALLDATALOAD PUSH2 0x502C DUP2 PUSH2 0x4E17 JUMP JUMPDEST PUSH1 0x0 PUSH1 0x20 DUP3 DUP5 SUB SLT ISZERO PUSH2 0x53FE JUMPI PUSH1 0x0 DUP1 REVERT JUMPDEST DUP2 CALLDATALOAD PUSH1 0x1 PUSH1 0x1 PUSH1 0x40 SHL SUB DUP2 GT ISZERO PUSH2 0x5414 JUMPI PUSH1 0x0 DUP1 REVERT JUMPDEST DUP3 ADD PUSH1 0xE0 DUP2 DUP6 SUB SLT ISZERO PUSH2 0xEC4 JUMPI PUSH1 0x0 DUP1 REVERT JUMPDEST PUSH1 0x0 PUSH1 0x20 DUP3 DUP5 SUB SLT ISZERO PUSH2 0x5438 JUMPI PUSH1 0x0 DUP1 REVERT JUMPDEST DUP2 CALLDATALOAD PUSH1 0x1 PUSH1 0x1 PUSH1 0x40 SHL SUB DUP2 GT ISZERO PUSH2 0x544E JUMPI PUSH1 0x0 DUP1 REVERT JUMPDEST DUP3 ADD PUSH1 0x60 DUP2 DUP6 SUB SLT ISZERO PUSH2 0xEC4 JUMPI PUSH1 0x0 DUP1 REVERT JUMPDEST PUSH1 0x1 DUP2 DUP2 SHR SWAP1 DUP3 AND DUP1 PUSH2 0x5474 JUMPI PUSH1 0x7F DUP3 AND SWAP2 POP JUMPDEST PUSH1 0x20 DUP3 LT DUP2 SUB PUSH2 0x2A9D JUMPI PUSH4 0x4E487B71 PUSH1 0xE0 SHL PUSH1 0x0 MSTORE PUSH1 0x22 PUSH1 0x4 MSTORE PUSH1 0x24 PUSH1 0x0 REVERT JUMPDEST PUSH4 0x4E487B71 PUSH1 0xE0 SHL PUSH1 0x0 MSTORE PUSH1 0x32 PUSH1 0x4 MSTORE PUSH1 0x24 PUSH1 0x0 REVERT JUMPDEST PUSH4 0x4E487B71 PUSH1 0xE0 SHL PUSH1 0x0 MSTORE PUSH1 0x11 PUSH1 0x4 MSTORE PUSH1 0x24 PUSH1 0x0 REVERT JUMPDEST DUP1 DUP3 ADD DUP1 DUP3 GT ISZERO PUSH2 0xB7C JUMPI PUSH2 0xB7C PUSH2 0x54AA JUMP JUMPDEST PUSH1 0x0 PUSH1 0x1 DUP3 ADD PUSH2 0x54E5 JUMPI PUSH2 0x54E5 PUSH2 0x54AA JUMP JUMPDEST POP PUSH1 0x1 ADD SWAP1 JUMP JUMPDEST PUSH1 0x20 DUP1 DUP3 MSTORE PUSH1 0x1D SWAP1 DUP3 ADD MSTORE PUSH32 0x455243323050617573653A204163636F756E742053757370656E646564000000 PUSH1 0x40 DUP3 ADD MSTORE PUSH1 0x60 ADD SWAP1 JUMP JUMPDEST PUSH1 0x20 DUP1 DUP3 MSTORE PUSH1 0x15 SWAP1 DUP3 ADD MSTORE PUSH21 0x125B1B1959D85B0810DBDB9D1C9858DD0810D85B1B PUSH1 0x5A SHL PUSH1 0x40 DUP3 ADD MSTORE PUSH1 0x60 ADD SWAP1 JUMP JUMPDEST PUSH1 0x20 DUP1 DUP3 MSTORE PUSH1 0x14 SWAP1 DUP3 ADD MSTORE PUSH20 0x141C9BDE1E4810D85B1B195908125B9D985B1A59 PUSH1 0x62 SHL PUSH1 0x40 DUP3 ADD MSTORE PUSH1 0x60 ADD SWAP1 JUMP JUMPDEST PUSH1 0x20 DUP1 DUP3 MSTORE PUSH1 0x17 SWAP1 DUP3 ADD MSTORE PUSH32 0x536166654D6F64653A2043616C6C2052656A6563746564000000000000000000 PUSH1 0x40 DUP3 ADD MSTORE PUSH1 0x60 ADD SWAP1 JUMP JUMPDEST PUSH1 0x20 DUP1 DUP3 MSTORE PUSH1 0x17 SWAP1 DUP3 ADD MSTORE PUSH32 0x496E76616C6964204163636F756E742041646472657373000000000000000000 PUSH1 0x40 DUP3 ADD MSTORE PUSH1 0x60 ADD SWAP1 JUMP JUMPDEST PUSH4 0x4E487B71 PUSH1 0xE0 SHL PUSH1 0x0 MSTORE PUSH1 0x21 PUSH1 0x4 MSTORE PUSH1 0x24 PUSH1 0x0 REVERT JUMPDEST PUSH1 0x0 DUP3 CALLDATALOAD PUSH1 0x5E NOT DUP4 CALLDATASIZE SUB ADD DUP2 SLT PUSH2 0x561A JUMPI PUSH1 0x0 DUP1 REVERT JUMPDEST SWAP2 SWAP1 SWAP2 ADD SWAP3 SWAP2 POP POP JUMP JUMPDEST DUP2 DUP2 SUB DUP2 DUP2 GT ISZERO PUSH2 0xB7C JUMPI PUSH2 0xB7C PUSH2 0x54AA JUMP JUMPDEST DUP1 MLOAD PUSH2 0x113C DUP2 PUSH2 0x4FC8 JUMP JUMPDEST PUSH1 0x0 PUSH1 0x20 DUP3 DUP5 SUB SLT ISZERO PUSH2 0x5654 JUMPI PUSH1 0x0 DUP1 REVERT JUMPDEST DUP2 MLOAD PUSH2 0xEC4 DUP2 PUSH2 0x4FC8 JUMP JUMPDEST PUSH1 0x0 PUSH1 0x20 DUP3 DUP5 SUB SLT ISZERO PUSH2 0x5671 JUMPI PUSH1 0x0 DUP1 REVERT JUMPDEST DUP2 MLOAD PUSH1 0x4 DUP2 LT PUSH2 0xEC4 JUMPI PUSH1 0x0 DUP1 REVERT JUMPDEST PUSH1 0x0 PUSH1 0x20 DUP3 DUP5 SUB SLT ISZERO PUSH2 0x5692 JUMPI PUSH1 0x0 DUP1 REVERT JUMPDEST DUP2 MLOAD PUSH2 0xEC4 DUP2 PUSH2 0x4E17 JUMP JUMPDEST PUSH1 0x0 PUSH1 0x20 DUP3 DUP5 SUB SLT ISZERO PUSH2 0x56AF JUMPI PUSH1 0x0 DUP1 REVERT JUMPDEST POP MLOAD SWAP2 SWAP1 POP JUMP JUMPDEST PUSH1 0x0 DUP1 DUP4 CALLDATALOAD PUSH1 0x1E NOT DUP5 CALLDATASIZE SUB ADD DUP2 SLT PUSH2 0x56CD JUMPI PUSH1 0x0 DUP1 REVERT JUMPDEST DUP4 ADD DUP1 CALLDATALOAD SWAP2 POP PUSH1 0x1 PUSH1 0x1 PUSH1 0x40 SHL SUB DUP3 GT ISZERO PUSH2 0x56E7 JUMPI PUSH1 0x0 DUP1 REVERT JUMPDEST PUSH1 0x20 ADD SWAP2 POP CALLDATASIZE DUP2 SWAP1 SUB DUP3 SGT ISZERO PUSH2 0x47BA JUMPI PUSH1 0x0 DUP1 REVERT JUMPDEST DUP2 DUP4 DUP3 CALLDATACOPY PUSH1 0x0 SWAP2 ADD SWAP1 DUP2 MSTORE SWAP2 SWAP1 POP JUMP JUMPDEST PUSH1 0x1F DUP3 GT ISZERO PUSH2 0x18C5 JUMPI PUSH1 0x0 DUP2 DUP2 MSTORE PUSH1 0x20 DUP2 KECCAK256 PUSH1 0x1F DUP6 ADD PUSH1 0x5 SHR DUP2 ADD PUSH1 0x20 DUP7 LT ISZERO PUSH2 0x5733 JUMPI POP DUP1 JUMPDEST PUSH1 0x1F DUP6 ADD PUSH1 0x5 SHR DUP3 ADD SWAP2 POP JUMPDEST DUP2 DUP2 LT ISZERO PUSH2 0x4273 JUMPI DUP3 DUP2 SSTORE PUSH1 0x1 ADD PUSH2 0x573F JUMP JUMPDEST DUP2 MLOAD PUSH1 0x1 PUSH1 0x1 PUSH1 0x40 SHL SUB DUP2 GT ISZERO PUSH2 0x576B JUMPI PUSH2 0x576B PUSH2 0x5049 JUMP JUMPDEST PUSH2 0x577F DUP2 PUSH2 0x5779 DUP5 SLOAD PUSH2 0x5460 JUMP JUMPDEST DUP5 PUSH2 0x570C JUMP JUMPDEST PUSH1 0x20 DUP1 PUSH1 0x1F DUP4 GT PUSH1 0x1 DUP2 EQ PUSH2 0x57B4 JUMPI PUSH1 0x0 DUP5 ISZERO PUSH2 0x579C JUMPI POP DUP6 DUP4 ADD MLOAD JUMPDEST PUSH1 0x0 NOT PUSH1 0x3 DUP7 SWAP1 SHL SHR NOT AND PUSH1 0x1 DUP6 SWAP1 SHL OR DUP6 SSTORE PUSH2 0x4273 JUMP JUMPDEST PUSH1 0x0 DUP6 DUP2 MSTORE PUSH1 0x20 DUP2 KECCAK256 PUSH1 0x1F NOT DUP7 AND SWAP2 JUMPDEST DUP3 DUP2 LT ISZERO PUSH2 0x57E3 JUMPI DUP9 DUP7 ADD MLOAD DUP3 SSTORE SWAP5 DUP5 ADD SWAP5 PUSH1 0x1 SWAP1 SWAP2 ADD SWAP1 DUP5 ADD PUSH2 0x57C4 JUMP JUMPDEST POP DUP6 DUP3 LT ISZERO PUSH2 0x5801 JUMPI DUP8 DUP6 ADD MLOAD PUSH1 0x0 NOT PUSH1 0x3 DUP9 SWAP1 SHL PUSH1 0xF8 AND SHR NOT AND DUP2 SSTORE JUMPDEST POP POP POP POP POP PUSH1 0x1 SWAP1 DUP2 SHL ADD SWAP1 SSTORE POP JUMP JUMPDEST SWAP3 DUP4 MSTORE PUSH1 0x1 PUSH1 0x1 PUSH1 0xA0 SHL SUB SWAP2 SWAP1 SWAP2 AND PUSH1 0x20 DUP4 ADD MSTORE PUSH1 0x1 PUSH1 0x1 PUSH1 0xE0 SHL SUB NOT AND PUSH1 0x40 DUP3 ADD MSTORE PUSH1 0x60 ADD SWAP1 JUMP JUMPDEST DUP3 DUP2 MSTORE PUSH1 0xA0 DUP2 ADD DUP3 CALLDATALOAD PUSH2 0x584C DUP2 PUSH2 0x4E17 JUMP JUMPDEST PUSH1 0x1 PUSH1 0x1 PUSH1 0xA0 SHL SUB SWAP1 DUP2 AND PUSH1 0x20 DUP5 DUP2 ADD SWAP2 SWAP1 SWAP2 MSTORE DUP5 ADD CALLDATALOAD SWAP1 PUSH2 0x586D DUP3 PUSH2 0x4E17 JUMP JUMPDEST DUP1 DUP3 AND PUSH1 0x40 DUP6 ADD MSTORE POP POP PUSH1 0x40 DUP4 ADD CALLDATALOAD PUSH1 0x60 DUP4 ADD MSTORE PUSH1 0x60 DUP4 ADD CALLDATALOAD PUSH1 0x80 DUP4 ADD MSTORE SWAP4 SWAP3 POP POP POP JUMP JUMPDEST DUP2 DUP4 MSTORE DUP2 DUP2 PUSH1 0x20 DUP6 ADD CALLDATACOPY POP PUSH1 0x0 DUP3 DUP3 ADD PUSH1 0x20 SWAP1 DUP2 ADD SWAP2 SWAP1 SWAP2 MSTORE PUSH1 0x1F SWAP1 SWAP2 ADD PUSH1 0x1F NOT AND SWAP1 SWAP2 ADD ADD SWAP1 JUMP JUMPDEST DUP3 DUP2 MSTORE PUSH1 0x40 PUSH1 0x20 DUP3 ADD MSTORE DUP2 CALLDATALOAD PUSH1 0x40 DUP3 ADD MSTORE PUSH1 0x0 PUSH1 0x20 DUP4 ADD CALLDATALOAD PUSH2 0x58DC DUP2 PUSH2 0x4E17 JUMP JUMPDEST PUSH1 0x1 PUSH1 0x1 PUSH1 0xA0 SHL SUB AND PUSH1 0x60 DUP4 ADD MSTORE PUSH1 0x40 DUP4 ADD CALLDATALOAD CALLDATASIZE DUP5 SWAP1 SUB PUSH1 0x1E NOT ADD DUP2 SLT PUSH2 0x5902 JUMPI PUSH1 0x0 DUP1 REVERT JUMPDEST DUP4 ADD PUSH1 0x20 DUP2 ADD SWAP1 CALLDATALOAD PUSH1 0x1 PUSH1 0x1 PUSH1 0x40 SHL SUB DUP2 GT ISZERO PUSH2 0x591E JUMPI PUSH1 0x0 DUP1 REVERT JUMPDEST DUP1 CALLDATASIZE SUB DUP3 SGT ISZERO PUSH2 0x592D JUMPI PUSH1 0x0 DUP1 REVERT JUMPDEST PUSH1 0x60 PUSH1 0x80 DUP6 ADD MSTORE PUSH2 0x44C0 PUSH1 0xA0 DUP6 ADD DUP3 DUP5 PUSH2 0x5892 JUMP JUMPDEST PUSH1 0x0 DUP1 PUSH1 0x40 DUP4 DUP6 SUB SLT ISZERO PUSH2 0x5955 JUMPI PUSH1 0x0 DUP1 REVERT JUMPDEST DUP3 MLOAD PUSH2 0x5960 DUP2 PUSH2 0x4E17 JUMP JUMPDEST PUSH1 0x20 SWAP4 SWAP1 SWAP4 ADD MLOAD SWAP3 SWAP5 SWAP3 SWAP4 POP POP POP JUMP JUMPDEST PUSH1 0x1 DUP1 PUSH1 0xA0 SHL SUB DUP6 AND DUP2 MSTORE DUP4 PUSH1 0x20 DUP3 ADD MSTORE PUSH1 0x60 PUSH1 0x40 DUP3 ADD MSTORE PUSH1 0x0 PUSH2 0x44C0 PUSH1 0x60 DUP4 ADD DUP5 DUP7 PUSH2 0x5892 JUMP JUMPDEST PUSH1 0x0 PUSH1 0x1 PUSH1 0x1 PUSH1 0x40 SHL SUB DUP3 GT ISZERO PUSH2 0x59B1 JUMPI PUSH2 0x59B1 PUSH2 0x5049 JUMP JUMPDEST POP PUSH1 0x5 SHL PUSH1 0x20 ADD SWAP1 JUMP JUMPDEST PUSH1 0x0 DUP3 PUSH1 0x1F DUP4 ADD SLT PUSH2 0x59CC JUMPI PUSH1 0x0 DUP1 REVERT JUMPDEST DUP2 MLOAD PUSH1 0x20 PUSH2 0x59E1 PUSH2 0x59DC DUP4 PUSH2 0x5998 JUMP JUMPDEST PUSH2 0x5087 JUMP JUMPDEST DUP3 DUP2 MSTORE PUSH1 0x5 SWAP3 SWAP1 SWAP3 SHL DUP5 ADD DUP2 ADD SWAP2 DUP2 DUP2 ADD SWAP1 DUP7 DUP5 GT ISZERO PUSH2 0x5A00 JUMPI PUSH1 0x0 DUP1 REVERT JUMPDEST DUP3 DUP7 ADD JUMPDEST DUP5 DUP2 LT ISZERO PUSH2 0x5AF1 JUMPI DUP1 MLOAD PUSH1 0x1 PUSH1 0x1 PUSH1 0x40 SHL SUB DUP1 DUP3 GT ISZERO PUSH2 0x5A24 JUMPI PUSH1 0x0 DUP1 DUP2 REVERT JUMPDEST SWAP1 DUP9 ADD SWAP1 PUSH1 0x60 DUP3 DUP12 SUB PUSH1 0x1F NOT ADD DUP2 SGT ISZERO PUSH2 0x5A3E JUMPI PUSH1 0x0 DUP1 DUP2 REVERT JUMPDEST PUSH2 0x5A46 PUSH2 0x505F JUMP JUMPDEST DUP8 DUP5 ADD MLOAD DUP2 MSTORE PUSH1 0x40 DUP1 DUP6 ADD MLOAD DUP5 DUP2 GT ISZERO PUSH2 0x5A60 JUMPI PUSH1 0x0 DUP1 DUP2 REVERT JUMPDEST DUP6 ADD SWAP4 POP PUSH1 0x3F DUP5 ADD DUP14 SGT PUSH2 0x5A74 JUMPI PUSH1 0x0 DUP1 DUP2 REVERT JUMPDEST DUP9 DUP5 ADD MLOAD PUSH2 0x5A84 PUSH2 0x59DC DUP3 PUSH2 0x5998 JUMP JUMPDEST DUP2 DUP2 MSTORE PUSH1 0x5 SWAP2 SWAP1 SWAP2 SHL DUP6 ADD DUP3 ADD SWAP1 DUP11 DUP2 ADD SWAP1 DUP16 DUP4 GT ISZERO PUSH2 0x5AA4 JUMPI PUSH1 0x0 DUP1 DUP2 REVERT JUMPDEST SWAP6 DUP4 ADD SWAP6 JUMPDEST DUP3 DUP8 LT ISZERO PUSH2 0x5ACB JUMPI DUP7 MLOAD PUSH2 0x5ABC DUP2 PUSH2 0x4D81 JUMP JUMPDEST DUP3 MSTORE SWAP6 DUP12 ADD SWAP6 SWAP1 DUP12 ADD SWAP1 PUSH2 0x5AA9 JUMP JUMPDEST DUP5 DUP13 ADD MSTORE POP PUSH2 0x5ADD SWAP1 POP DUP6 DUP5 ADD PUSH2 0x5637 JUMP JUMPDEST SWAP1 DUP3 ADD MSTORE DUP7 MSTORE POP POP POP SWAP2 DUP4 ADD SWAP2 DUP4 ADD PUSH2 0x5A04 JUMP JUMPDEST POP SWAP7 SWAP6 POP POP POP POP POP POP JUMP JUMPDEST PUSH1 0x0 DUP1 DUP3 DUP5 SUB PUSH1 0xC0 DUP2 SLT ISZERO PUSH2 0x5B10 JUMPI PUSH1 0x0 DUP1 REVERT JUMPDEST PUSH1 0xA0 DUP2 SLT ISZERO PUSH2 0x5B1E JUMPI PUSH1 0x0 DUP1 REVERT JUMPDEST POP PUSH1 0x40 MLOAD PUSH1 0xA0 DUP2 ADD PUSH1 0x1 PUSH1 0x1 PUSH1 0x40 SHL SUB DUP3 DUP3 LT DUP2 DUP4 GT OR ISZERO PUSH2 0x5B42 JUMPI PUSH2 0x5B42 PUSH2 0x5049 JUMP JUMPDEST DUP2 PUSH1 0x40 MSTORE DUP6 MLOAD DUP4 MSTORE PUSH1 0x20 DUP7 ADD MLOAD PUSH1 0x20 DUP5 ADD MSTORE PUSH1 0x40 DUP7 ADD MLOAD PUSH1 0x40 DUP5 ADD MSTORE PUSH1 0x60 DUP7 ADD MLOAD SWAP2 POP PUSH2 0x5B6E DUP3 PUSH2 0x4E17 JUMP JUMPDEST DUP2 PUSH1 0x60 DUP5 ADD MSTORE PUSH1 0x80 DUP7 ADD MLOAD SWAP2 POP PUSH2 0x5B84 DUP3 PUSH2 0x4FC8 JUMP JUMPDEST PUSH1 0x80 DUP4 ADD DUP3 SWAP1 MSTORE PUSH1 0xA0 DUP7 ADD MLOAD SWAP3 SWAP5 POP DUP1 DUP4 GT ISZERO PUSH2 0x5BA0 JUMPI PUSH1 0x0 DUP1 REVERT JUMPDEST POP POP PUSH2 0x5BAE DUP6 DUP3 DUP7 ADD PUSH2 0x59BB JUMP JUMPDEST SWAP2 POP POP SWAP3 POP SWAP3 SWAP1 POP JUMP JUMPDEST PUSH1 0xE0 DUP2 MSTORE PUSH1 0x0 PUSH2 0x5BCC PUSH1 0xE0 DUP4 ADD DUP7 DUP9 PUSH2 0x5892 JUMP JUMPDEST PUSH1 0x20 DUP6 MLOAD DUP2 DUP6 ADD MSTORE DUP1 DUP7 ADD MLOAD PUSH1 0x40 DUP2 DUP2 DUP8 ADD MSTORE DUP1 DUP9 ADD MLOAD SWAP2 POP PUSH1 0x60 DUP3 DUP2 DUP9 ADD MSTORE DUP1 DUP10 ADD MLOAD SWAP3 POP PUSH1 0x80 PUSH1 0x1 DUP1 PUSH1 0xA0 SHL SUB DUP5 AND DUP2 DUP10 ADD MSTORE DUP1 DUP11 ADD MLOAD ISZERO ISZERO PUSH1 0xA0 DUP10 ADD MSTORE DUP8 DUP7 SUB PUSH1 0xC0 DUP10 ADD MSTORE DUP6 SWAP4 POP DUP9 MLOAD DUP1 DUP8 MSTORE DUP6 DUP8 ADD SWAP5 POP DUP6 DUP2 PUSH1 0x5 SHL DUP9 ADD ADD DUP7 DUP12 ADD PUSH1 0x0 DUP1 JUMPDEST DUP5 DUP2 LT ISZERO PUSH2 0x5CAF JUMPI DUP11 DUP5 SUB PUSH1 0x1F NOT ADD DUP10 MSTORE DUP3 MLOAD DUP1 MLOAD DUP6 MSTORE DUP11 DUP2 ADD MLOAD DUP12 DUP7 ADD DUP10 SWAP1 MSTORE DUP1 MLOAD DUP10 DUP8 ADD DUP2 SWAP1 MSTORE SWAP1 DUP13 ADD SWAP1 DUP5 SWAP1 DUP10 DUP9 ADD SWAP1 JUMPDEST DUP1 DUP4 LT ISZERO PUSH2 0x5C8E JUMPI DUP4 MLOAD PUSH1 0x1 PUSH1 0x1 PUSH1 0xE0 SHL SUB NOT AND DUP3 MSTORE SWAP3 DUP15 ADD SWAP3 PUSH1 0x1 SWAP3 SWAP1 SWAP3 ADD SWAP2 SWAP1 DUP15 ADD SWAP1 PUSH2 0x5C64 JUMP JUMPDEST POP SWAP3 DUP12 ADD MLOAD ISZERO ISZERO SWAP7 DUP12 ADD SWAP7 SWAP1 SWAP7 MSTORE POP SWAP9 DUP11 ADD SWAP9 SWAP4 POP SWAP2 DUP10 ADD SWAP2 PUSH1 0x1 ADD PUSH2 0x5C30 JUMP JUMPDEST POP SWAP2 SWAP16 SWAP15 POP POP POP POP POP POP POP POP POP POP POP POP POP POP POP JUMP JUMPDEST PUSH1 0x80 DUP2 MSTORE PUSH1 0x0 PUSH2 0x5CD8 PUSH1 0x80 DUP4 ADD DUP9 DUP11 PUSH2 0x5892 JUMP JUMPDEST DUP3 DUP2 SUB PUSH1 0x20 DUP5 ADD MSTORE PUSH2 0x5CEB DUP2 DUP8 DUP10 PUSH2 0x5892 JUMP JUMPDEST SWAP2 POP POP DUP4 PUSH1 0x40 DUP4 ADD MSTORE PUSH2 0xFFFF DUP4 AND PUSH1 0x60 DUP4 ADD MSTORE SWAP8 SWAP7 POP POP POP POP POP POP POP JUMP JUMPDEST PUSH1 0x0 DUP3 MLOAD PUSH2 0x561A DUP2 DUP5 PUSH1 0x20 DUP8 ADD PUSH2 0x4DB4 JUMP JUMPDEST PUSH4 0x4E487B71 PUSH1 0xE0 SHL PUSH1 0x0 MSTORE PUSH1 0x31 PUSH1 0x4 MSTORE PUSH1 0x24 PUSH1 0x0 REVERT JUMPDEST DUP1 DUP3 MUL DUP2 ISZERO DUP3 DUP3 DIV DUP5 EQ OR PUSH2 0xB7C JUMPI PUSH2 0xB7C PUSH2 0x54AA JUMP JUMPDEST PUSH1 0x0 DUP3 PUSH2 0x5D65 JUMPI PUSH4 0x4E487B71 PUSH1 0xE0 SHL PUSH1 0x0 MSTORE PUSH1 0x12 PUSH1 0x4 MSTORE PUSH1 0x24 PUSH1 0x0 REVERT JUMPDEST POP DIV SWAP1 JUMP INVALID DIFFICULTY PUSH6 0x6C6567617465 PUSH4 0x616C6C20 PUSH10 0x735265616C6D55706772 PUSH2 0x6461 PUSH3 0x6C6520 CHAINID PUSH2 0x696C PUSH6 0x64360894A13B LOG1 LOG3 0x21 MOD PUSH8 0xC828492DB98DCA3E KECCAK256 PUSH23 0xCC3735A920A3CA505D382BBCA264697066735822122057 0xE3 0x23 0x4F GASLIMIT 0xF6 0xCC 0xA8 0xCB 0x4E MULMOD 0xDB CALL CALL SWAP13 MOD ADDRESS 0x2B SWAP1 PUSH27 0x790E7899D9DE5178672DBC8D64736F6C63430008110033B5312768 0x4A JUMP DUP12 BALANCE PUSH20 0xAE13B9F8A6016E243E63B6E8EE1178D6A717850B 0x5D PUSH2 0x300 "
    },
    "gasEstimates": {
      "creation": {
        "codeDepositCost": "4807400",
        "executionCost": "infinite",
        "totalCost": "infinite"
      },
      "external": {
        "": "209",
        "accessControlManager()": "2398",
        "allowance(address,address)": "infinite",
        "approve(address,uint256)": "infinite",
        "balanceOf(address)": "2665",
        "batchClaimToken(bytes32[])": "infinite",
        "batchLockToken((address,address,uint256,uint256)[])": "infinite",
        "batchTransfer((address,uint256)[])": "infinite",
        "batchTransferFrom((address,address,uint256)[])": "infinite",
        "batchUnlockToken((bytes32,address,string)[])": "infinite",
        "batchUpdateTaxWhitelist((address,bool)[])": "infinite",
        "burn(address,uint256)": "infinite",
        "claimToken(bytes32)": "infinite",
        "contractContext()": "485",
        "contractName()": "2425",
        "contractRealm()": "2425",
        "contractVersion()": "2403",
        "decimals()": "290",
        "decreaseAllowance(address,uint256)": "infinite",
        "domainSeparator()": "4742",
        "increaseAllowance(address,uint256)": "infinite",
        "initStatus()": "2394",
        "initVersion()": "2480",
        "initialize((string,string,string,bytes,uint256,address,address))": "infinite",
        "isPaused(address)": "infinite",
        "isPausedAll()": "2443",
        "isSafeMode()": "2382",
        "isUpgradable()": "2372",
        "localAdmin()": "2489",
        "lockBalanceOf(address)": "2606",
        "lockInfo(bytes32,address)": "7266",
        "lockToken((address,address,uint256,uint256))": "infinite",
        "mint(address,uint256)": "infinite",
        "name()": "infinite",
        "nonce(address)": "2638",
        "pause(address)": "infinite",
        "pauseAll()": "infinite",
        "pausedAccounts()": "infinite",
        "permit(address,address,uint256,uint256,bytes)": "infinite",
        "proxiableUUID()": "infinite",
        "setLocalAdmin(address)": "infinite",
        "setSafeMode(bool)": "infinite",
        "setUpgradeStatus(bool)": "infinite",
        "subjectAddress()": "infinite",
        "supportsInterface(bytes4)": "infinite",
        "symbol()": "infinite",
        "taxRate()": "2383",
        "taxTreasury()": "2465",
        "taxWhitelist()": "infinite",
        "tokensDistribution(address[7])": "infinite",
        "totalBalanceOf(address)": "infinite",
        "totalSupply()": "2427",
        "transfer(address,uint256)": "infinite",
        "transferFrom(address,address,uint256)": "infinite",
        "unlockToken((bytes32,address,string))": "infinite",
        "unpause(address)": "infinite",
        "unpauseAll()": "infinite",
        "updateTaxRate(uint256)": "infinite",
        "updateTaxWhitelist(address,bool)": "infinite",
        "upgradeTo(address,bytes,bool)": "infinite",
        "withdrawBalance(address)": "infinite"
      },
      "internal": {
        "_allowance(address,address)": "2292",
        "_approve(address,address,uint256)": "infinite",
        "_claimToken(bytes32)": "infinite",
        "_initContext(string calldata,string calldata,bytes32,bytes calldata)": "infinite",
        "_lockToken(struct IERC20Lock.LockTokenRequest calldata)": "infinite",
        "_mint(address,uint256)": "infinite",
        "_policyInterceptor(bytes4,address,bool,bool)": "infinite",
        "_spendAllowance(address,address,uint256)": "infinite",
        "_taxTransfer(address,address,uint256)": "infinite",
        "_transfer(address,address,uint256)": "infinite",
        "_transferFrom(address,address,uint256)": "infinite",
        "_unlockToken(struct IERC20Lock.UnLockTokenRequest calldata)": "infinite",
        "_updateTaxWhitelist(address,bool)": "infinite",
        "_useNonce(address)": "24351"
      }
    },
    "methodIdentifiers": {
      "accessControlManager()": "b4a0bdf3",
      "allowance(address,address)": "dd62ed3e",
      "approve(address,uint256)": "095ea7b3",
      "balanceOf(address)": "70a08231",
      "batchClaimToken(bytes32[])": "1455a1c8",
      "batchLockToken((address,address,uint256,uint256)[])": "9a7e1873",
      "batchTransfer((address,uint256)[])": "faa552a8",
      "batchTransferFrom((address,address,uint256)[])": "1c6928e8",
      "batchUnlockToken((bytes32,address,string)[])": "9b5f356e",
      "batchUpdateTaxWhitelist((address,bool)[])": "7d35f355",
      "burn(address,uint256)": "9dc29fac",
      "claimToken(bytes32)": "a5bfa9a9",
      "contractContext()": "870666cb",
      "contractName()": "75d0c0dc",
      "contractRealm()": "d3e024b8",
      "contractVersion()": "a0a8e460",
      "decimals()": "313ce567",
      "decreaseAllowance(address,uint256)": "a457c2d7",
      "domainSeparator()": "f698da25",
      "increaseAllowance(address,uint256)": "39509351",
      "initStatus()": "60fefdec",
      "initVersion()": "38d38c97",
      "initialize((string,string,string,bytes,uint256,address,address))": "e3d069a4",
      "isPaused(address)": "5b14f183",
      "isPausedAll()": "a0e6adf1",
      "isSafeMode()": "be22465d",
      "isUpgradable()": "5479d940",
      "localAdmin()": "f94a0adb",
      "lockBalanceOf(address)": "10e776ed",
      "lockInfo(bytes32,address)": "8bfc07ed",
      "lockToken((address,address,uint256,uint256))": "6b839492",
      "mint(address,uint256)": "40c10f19",
      "name()": "06fdde03",
      "nonce(address)": "70ae92d2",
      "pause(address)": "76a67a51",
      "pauseAll()": "595c6a67",
      "pausedAccounts()": "de843a94",
      "permit(address,address,uint256,uint256,bytes)": "9fd5a6cf",
      "proxiableUUID()": "52d1902d",
      "setLocalAdmin(address)": "d9dc1f19",
      "setSafeMode(bool)": "44b7e5f2",
      "setUpgradeStatus(bool)": "48e6be1c",
      "subjectAddress()": "58dbc45d",
      "supportsInterface(bytes4)": "01ffc9a7",
      "symbol()": "95d89b41",
      "taxRate()": "771a3a1d",
      "taxTreasury()": "8a92ab15",
      "taxWhitelist()": "7bf60ff4",
      "tokensDistribution(address[7])": "c082a123",
      "totalBalanceOf(address)": "4b0ee02a",
      "totalSupply()": "18160ddd",
      "transfer(address,uint256)": "a9059cbb",
      "transferFrom(address,address,uint256)": "23b872dd",
      "unlockToken((bytes32,address,string))": "fdb92ec4",
      "unpause(address)": "57b001f9",
      "unpauseAll()": "8a2ddd03",
      "updateTaxRate(uint256)": "17fdcc8e",
      "updateTaxWhitelist(address,bool)": "46a634d4",
      "upgradeTo(address,bytes,bool)": "7147855d",
      "withdrawBalance(address)": "756af45f"
    }
  },
  "storageLayout": {
    "storage": [
      {
        "astId": 27205,
        "contract": "src/contracts/token/lively/LivelyToken.sol:LivelyToken",
        "label": "_accessControlManager",
        "offset": 0,
        "slot": "0",
        "type": "t_address"
      },
      {
        "astId": 27207,
        "contract": "src/contracts/token/lively/LivelyToken.sol:LivelyToken",
        "label": "_domainName",
        "offset": 0,
        "slot": "1",
        "type": "t_bytes32"
      },
      {
        "astId": 27209,
        "contract": "src/contracts/token/lively/LivelyToken.sol:LivelyToken",
        "label": "_domainVersion",
        "offset": 0,
        "slot": "2",
        "type": "t_bytes32"
      },
      {
        "astId": 27211,
        "contract": "src/contracts/token/lively/LivelyToken.sol:LivelyToken",
        "label": "_domainRealm",
        "offset": 0,
        "slot": "3",
        "type": "t_bytes32"
      },
      {
        "astId": 27213,
        "contract": "src/contracts/token/lively/LivelyToken.sol:LivelyToken",
        "label": "_isSafeMode",
        "offset": 0,
        "slot": "4",
        "type": "t_bool"
      },
      {
        "astId": 27215,
        "contract": "src/contracts/token/lively/LivelyToken.sol:LivelyToken",
        "label": "_isUpgradable",
        "offset": 1,
        "slot": "4",
        "type": "t_bool"
      },
      {
        "astId": 27220,
        "contract": "src/contracts/token/lively/LivelyToken.sol:LivelyToken",
        "label": "__gap",
        "offset": 0,
        "slot": "5",
        "type": "t_array(t_uint256)64_storage"
      },
      {
        "astId": 33133,
        "contract": "src/contracts/token/lively/LivelyToken.sol:LivelyToken",
        "label": "_name",
        "offset": 0,
        "slot": "69",
        "type": "t_string_storage"
      },
      {
        "astId": 33135,
        "contract": "src/contracts/token/lively/LivelyToken.sol:LivelyToken",
        "label": "_symbol",
        "offset": 0,
        "slot": "70",
        "type": "t_string_storage"
      },
      {
        "astId": 33137,
        "contract": "src/contracts/token/lively/LivelyToken.sol:LivelyToken",
        "label": "_totalSupply",
        "offset": 0,
        "slot": "71",
        "type": "t_uint256"
      },
      {
        "astId": 33139,
        "contract": "src/contracts/token/lively/LivelyToken.sol:LivelyToken",
        "label": "_taxRate",
        "offset": 0,
        "slot": "72",
        "type": "t_uint256"
      },
      {
        "astId": 33141,
        "contract": "src/contracts/token/lively/LivelyToken.sol:LivelyToken",
        "label": "_taxTreasury",
        "offset": 0,
        "slot": "73",
        "type": "t_address"
      },
      {
        "astId": 33143,
        "contract": "src/contracts/token/lively/LivelyToken.sol:LivelyToken",
        "label": "_isPaused",
        "offset": 20,
        "slot": "73",
        "type": "t_bool"
      },
      {
        "astId": 33145,
        "contract": "src/contracts/token/lively/LivelyToken.sol:LivelyToken",
        "label": "_isTokenDistributed",
        "offset": 21,
        "slot": "73",
        "type": "t_bool"
      },
      {
        "astId": 33148,
        "contract": "src/contracts/token/lively/LivelyToken.sol:LivelyToken",
        "label": "_data",
        "offset": 0,
        "slot": "74",
        "type": "t_struct(DataCollection)33126_storage"
      },
      {
        "astId": 27393,
        "contract": "src/contracts/token/lively/LivelyToken.sol:LivelyToken",
        "label": "_initialized",
        "offset": 0,
        "slot": "81",
        "type": "t_uint16"
      },
      {
        "astId": 27396,
        "contract": "src/contracts/token/lively/LivelyToken.sol:LivelyToken",
        "label": "_initializing",
        "offset": 2,
        "slot": "81",
        "type": "t_bool"
      }
    ],
    "types": {
      "t_address": {
        "encoding": "inplace",
        "label": "address",
        "numberOfBytes": "20"
      },
      "t_array(t_bytes32)dyn_storage": {
        "base": "t_bytes32",
        "encoding": "dynamic_array",
        "label": "bytes32[]",
        "numberOfBytes": "32"
      },
      "t_array(t_uint256)64_storage": {
        "base": "t_uint256",
        "encoding": "inplace",
        "label": "uint256[64]",
        "numberOfBytes": "2048"
      },
      "t_bool": {
        "encoding": "inplace",
        "label": "bool",
        "numberOfBytes": "1"
      },
      "t_bytes32": {
        "encoding": "inplace",
        "label": "bytes32",
        "numberOfBytes": "32"
      },
      "t_enum(LockState)33081": {
        "encoding": "inplace",
        "label": "enum LivelyStorage.LockState",
        "numberOfBytes": "1"
      },
      "t_mapping(t_address,t_mapping(t_address,t_uint256))": {
        "encoding": "mapping",
        "key": "t_address",
        "label": "mapping(address => mapping(address => uint256))",
        "numberOfBytes": "32",
        "value": "t_mapping(t_address,t_uint256)"
      },
      "t_mapping(t_address,t_mapping(t_bytes32,t_struct(AssetLock)33101_storage))": {
        "encoding": "mapping",
        "key": "t_address",
        "label": "mapping(address => mapping(bytes32 => struct LivelyStorage.AssetLock))",
        "numberOfBytes": "32",
        "value": "t_mapping(t_bytes32,t_struct(AssetLock)33101_storage)"
      },
      "t_mapping(t_address,t_struct(AccountInfo)33089_storage)": {
        "encoding": "mapping",
        "key": "t_address",
        "label": "mapping(address => struct LivelyStorage.AccountInfo)",
        "numberOfBytes": "32",
        "value": "t_struct(AccountInfo)33089_storage"
      },
      "t_mapping(t_address,t_uint256)": {
        "encoding": "mapping",
        "key": "t_address",
        "label": "mapping(address => uint256)",
        "numberOfBytes": "32",
        "value": "t_uint256"
      },
      "t_mapping(t_bytes32,t_struct(AssetLock)33101_storage)": {
        "encoding": "mapping",
        "key": "t_bytes32",
        "label": "mapping(bytes32 => struct LivelyStorage.AssetLock)",
        "numberOfBytes": "32",
        "value": "t_struct(AssetLock)33101_storage"
      },
      "t_mapping(t_bytes32,t_uint256)": {
        "encoding": "mapping",
        "key": "t_bytes32",
        "label": "mapping(bytes32 => uint256)",
        "numberOfBytes": "32",
        "value": "t_uint256"
      },
      "t_string_storage": {
        "encoding": "bytes",
        "label": "string",
        "numberOfBytes": "32"
      },
      "t_struct(AccountInfo)33089_storage": {
        "encoding": "inplace",
        "label": "struct LivelyStorage.AccountInfo",
        "members": [
          {
            "astId": 33083,
            "contract": "src/contracts/token/lively/LivelyToken.sol:LivelyToken",
            "label": "balance",
            "offset": 0,
            "slot": "0",
            "type": "t_uint256"
          },
          {
            "astId": 33085,
            "contract": "src/contracts/token/lively/LivelyToken.sol:LivelyToken",
            "label": "lockBalance",
            "offset": 0,
            "slot": "1",
            "type": "t_uint256"
          },
          {
            "astId": 33088,
            "contract": "src/contracts/token/lively/LivelyToken.sol:LivelyToken",
            "label": "nonce",
            "offset": 0,
            "slot": "2",
            "type": "t_struct(Counter)11264_storage"
          }
        ],
        "numberOfBytes": "96"
      },
      "t_struct(AddressSet)23261_storage": {
        "encoding": "inplace",
        "label": "struct LEnumerableSet.AddressSet",
        "members": [
          {
            "astId": 23260,
            "contract": "src/contracts/token/lively/LivelyToken.sol:LivelyToken",
            "label": "_inner",
            "offset": 0,
            "slot": "0",
            "type": "t_struct(Set)22960_storage"
          }
        ],
        "numberOfBytes": "64"
      },
      "t_struct(AssetLock)33101_storage": {
        "encoding": "inplace",
        "label": "struct LivelyStorage.AssetLock",
        "members": [
          {
            "astId": 33091,
            "contract": "src/contracts/token/lively/LivelyToken.sol:LivelyToken",
            "label": "amount",
            "offset": 0,
            "slot": "0",
            "type": "t_uint256"
          },
          {
            "astId": 33093,
            "contract": "src/contracts/token/lively/LivelyToken.sol:LivelyToken",
            "label": "lockedAt",
            "offset": 0,
            "slot": "1",
            "type": "t_uint128"
          },
          {
            "astId": 33095,
            "contract": "src/contracts/token/lively/LivelyToken.sol:LivelyToken",
            "label": "claimedAt",
            "offset": 16,
            "slot": "1",
            "type": "t_uint128"
          },
          {
            "astId": 33097,
            "contract": "src/contracts/token/lively/LivelyToken.sol:LivelyToken",
            "label": "source",
            "offset": 0,
            "slot": "2",
            "type": "t_address"
          },
          {
            "astId": 33100,
            "contract": "src/contracts/token/lively/LivelyToken.sol:LivelyToken",
            "label": "status",
            "offset": 20,
            "slot": "2",
            "type": "t_enum(LockState)33081"
          }
        ],
        "numberOfBytes": "96"
      },
      "t_struct(Counter)11264_storage": {
        "encoding": "inplace",
        "label": "struct LCounters.Counter",
        "members": [
          {
            "astId": 11263,
            "contract": "src/contracts/token/lively/LivelyToken.sol:LivelyToken",
            "label": "_value",
            "offset": 0,
            "slot": "0",
            "type": "t_uint256"
          }
        ],
        "numberOfBytes": "32"
      },
      "t_struct(DataCollection)33126_storage": {
        "encoding": "inplace",
        "label": "struct LivelyStorage.DataCollection",
        "members": [
          {
            "astId": 33106,
            "contract": "src/contracts/token/lively/LivelyToken.sol:LivelyToken",
            "label": "accounts",
            "offset": 0,
            "slot": "0",
            "type": "t_mapping(t_address,t_struct(AccountInfo)33089_storage)"
          },
          {
            "astId": 33112,
            "contract": "src/contracts/token/lively/LivelyToken.sol:LivelyToken",
            "label": "allowances",
            "offset": 0,
            "slot": "1",
            "type": "t_mapping(t_address,t_mapping(t_address,t_uint256))"
          },
          {
            "astId": 33119,
            "contract": "src/contracts/token/lively/LivelyToken.sol:LivelyToken",
            "label": "locks",
            "offset": 0,
            "slot": "2",
            "type": "t_mapping(t_address,t_mapping(t_bytes32,t_struct(AssetLock)33101_storage))"
          },
          {
            "astId": 33122,
            "contract": "src/contracts/token/lively/LivelyToken.sol:LivelyToken",
            "label": "pausedList",
            "offset": 0,
            "slot": "3",
            "type": "t_struct(AddressSet)23261_storage"
          },
          {
            "astId": 33125,
            "contract": "src/contracts/token/lively/LivelyToken.sol:LivelyToken",
            "label": "taxWhitelist",
            "offset": 0,
            "slot": "5",
            "type": "t_struct(AddressSet)23261_storage"
          }
        ],
        "numberOfBytes": "224"
      },
      "t_struct(Set)22960_storage": {
        "encoding": "inplace",
        "label": "struct LEnumerableSet.Set",
        "members": [
          {
            "astId": 22955,
            "contract": "src/contracts/token/lively/LivelyToken.sol:LivelyToken",
            "label": "_values",
            "offset": 0,
            "slot": "0",
            "type": "t_array(t_bytes32)dyn_storage"
          },
          {
            "astId": 22959,
            "contract": "src/contracts/token/lively/LivelyToken.sol:LivelyToken",
            "label": "_indexes",
            "offset": 0,
            "slot": "1",
            "type": "t_mapping(t_bytes32,t_uint256)"
          }
        ],
        "numberOfBytes": "64"
      },
      "t_uint128": {
        "encoding": "inplace",
        "label": "uint128",
        "numberOfBytes": "16"
      },
      "t_uint16": {
        "encoding": "inplace",
        "label": "uint16",
        "numberOfBytes": "2"
      },
      "t_uint256": {
        "encoding": "inplace",
        "label": "uint256",
        "numberOfBytes": "32"
      }
    }
  },
  "userdoc": {
    "kind": "user",
    "methods": {},
    "version": 1
  }
}