{
  "contractName": "LivelyToken",
  "sourceName": "src/contracts/token/lively/LivelyToken.sol",
  "abi": [
    {
      "inputs": [],
      "stateMutability": "nonpayable",
      "type": "constructor"
    },
    {
      "anonymous": false,
      "inputs": [
        {
          "indexed": true,
          "internalType": "address",
          "name": "owner",
          "type": "address"
        },
        {
          "indexed": true,
          "internalType": "address",
          "name": "spender",
          "type": "address"
        },
        {
          "indexed": false,
          "internalType": "uint256",
          "name": "value",
          "type": "uint256"
        }
      ],
      "name": "Approval",
      "type": "event"
    },
    {
      "anonymous": false,
      "inputs": [
        {
          "indexed": true,
          "internalType": "address",
          "name": "owner",
          "type": "address"
        },
        {
          "indexed": true,
          "internalType": "address",
          "name": "spender",
          "type": "address"
        },
        {
          "indexed": false,
          "internalType": "uint256",
          "name": "amount",
          "type": "uint256"
        }
      ],
      "name": "ApprovalDecreased",
      "type": "event"
    },
    {
      "anonymous": false,
      "inputs": [
        {
          "indexed": true,
          "internalType": "address",
          "name": "owner",
          "type": "address"
        },
        {
          "indexed": true,
          "internalType": "address",
          "name": "spender",
          "type": "address"
        },
        {
          "indexed": false,
          "internalType": "uint256",
          "name": "amount",
          "type": "uint256"
        }
      ],
      "name": "ApprovalIncreased",
      "type": "event"
    },
    {
      "anonymous": false,
      "inputs": [
        {
          "indexed": true,
          "internalType": "address",
          "name": "sender",
          "type": "address"
        },
        {
          "indexed": false,
          "internalType": "uint256",
          "name": "totalAmount",
          "type": "uint256"
        }
      ],
      "name": "BatchTokenClaimed",
      "type": "event"
    },
    {
      "anonymous": false,
      "inputs": [
        {
          "indexed": true,
          "internalType": "address",
          "name": "sender",
          "type": "address"
        },
        {
          "indexed": false,
          "internalType": "uint256",
          "name": "totalAmount",
          "type": "uint256"
        }
      ],
      "name": "BatchTokenLocked",
      "type": "event"
    },
    {
      "anonymous": false,
      "inputs": [
        {
          "indexed": true,
          "internalType": "address",
          "name": "sender",
          "type": "address"
        },
        {
          "indexed": false,
          "internalType": "uint256",
          "name": "totalAmount",
          "type": "uint256"
        }
      ],
      "name": "BatchTokenUnlocked",
      "type": "event"
    },
    {
      "anonymous": false,
      "inputs": [
        {
          "indexed": true,
          "internalType": "address",
          "name": "sender",
          "type": "address"
        },
        {
          "indexed": false,
          "internalType": "uint256",
          "name": "totalAmount",
          "type": "uint256"
        }
      ],
      "name": "BatchTransfer",
      "type": "event"
    },
    {
      "anonymous": false,
      "inputs": [
        {
          "indexed": true,
          "internalType": "address",
          "name": "sender",
          "type": "address"
        },
        {
          "indexed": false,
          "internalType": "uint256",
          "name": "totalAmount",
          "type": "uint256"
        }
      ],
      "name": "BatchTransferFrom",
      "type": "event"
    },
    {
      "anonymous": false,
      "inputs": [
        {
          "indexed": true,
          "internalType": "address",
          "name": "sender",
          "type": "address"
        },
        {
          "indexed": true,
          "internalType": "address",
          "name": "account",
          "type": "address"
        },
        {
          "indexed": false,
          "internalType": "uint256",
          "name": "amount",
          "type": "uint256"
        },
        {
          "indexed": false,
          "internalType": "uint256",
          "name": "totalSupply",
          "type": "uint256"
        }
      ],
      "name": "Burn",
      "type": "event"
    },
    {
      "anonymous": false,
      "inputs": [
        {
          "indexed": true,
          "internalType": "address",
          "name": "sender",
          "type": "address"
        },
        {
          "indexed": true,
          "internalType": "address",
          "name": "proxy",
          "type": "address"
        },
        {
          "indexed": true,
          "internalType": "address",
          "name": "subject",
          "type": "address"
        },
        {
          "indexed": false,
          "internalType": "string",
          "name": "name",
          "type": "string"
        },
        {
          "indexed": false,
          "internalType": "string",
          "name": "version",
          "type": "string"
        },
        {
          "indexed": false,
          "internalType": "bytes32",
          "name": "realm",
          "type": "bytes32"
        },
        {
          "indexed": false,
          "internalType": "uint16",
          "name": "initCount",
          "type": "uint16"
        }
      ],
      "name": "Initialized",
      "type": "event"
    },
    {
      "anonymous": false,
      "inputs": [
        {
          "indexed": true,
          "internalType": "address",
          "name": "sender",
          "type": "address"
        },
        {
          "indexed": true,
          "internalType": "address",
          "name": "proxy",
          "type": "address"
        },
        {
          "indexed": false,
          "internalType": "address",
          "name": "newAdmin",
          "type": "address"
        }
      ],
      "name": "LocalAdminChanged",
      "type": "event"
    },
    {
      "anonymous": false,
      "inputs": [
        {
          "indexed": true,
          "internalType": "address",
          "name": "sender",
          "type": "address"
        },
        {
          "indexed": true,
          "internalType": "address",
          "name": "account",
          "type": "address"
        },
        {
          "indexed": false,
          "internalType": "uint256",
          "name": "amount",
          "type": "uint256"
        },
        {
          "indexed": false,
          "internalType": "uint256",
          "name": "totalSupply",
          "type": "uint256"
        }
      ],
      "name": "Mint",
      "type": "event"
    },
    {
      "anonymous": false,
      "inputs": [
        {
          "indexed": true,
          "internalType": "address",
          "name": "sender",
          "type": "address"
        },
        {
          "indexed": true,
          "internalType": "address",
          "name": "account",
          "type": "address"
        }
      ],
      "name": "Paused",
      "type": "event"
    },
    {
      "anonymous": false,
      "inputs": [
        {
          "indexed": true,
          "internalType": "address",
          "name": "sender",
          "type": "address"
        }
      ],
      "name": "PausedAll",
      "type": "event"
    },
    {
      "anonymous": false,
      "inputs": [
        {
          "indexed": true,
          "internalType": "address",
          "name": "sender",
          "type": "address"
        },
        {
          "indexed": true,
          "internalType": "address",
          "name": "proxy",
          "type": "address"
        },
        {
          "indexed": true,
          "internalType": "bytes32",
          "name": "realm",
          "type": "bytes32"
        },
        {
          "indexed": false,
          "internalType": "bool",
          "name": "status",
          "type": "bool"
        }
      ],
      "name": "SafeModeChanged",
      "type": "event"
    },
    {
      "anonymous": false,
      "inputs": [
        {
          "indexed": true,
          "internalType": "address",
          "name": "sender",
          "type": "address"
        },
        {
          "indexed": false,
          "internalType": "uint256",
          "name": "rate",
          "type": "uint256"
        }
      ],
      "name": "TaxRateUpdated",
      "type": "event"
    },
    {
      "anonymous": false,
      "inputs": [
        {
          "indexed": true,
          "internalType": "address",
          "name": "sender",
          "type": "address"
        },
        {
          "indexed": true,
          "internalType": "address",
          "name": "account",
          "type": "address"
        },
        {
          "indexed": false,
          "internalType": "bool",
          "name": "isDeleted",
          "type": "bool"
        }
      ],
      "name": "TaxWhitelistUpdated",
      "type": "event"
    },
    {
      "anonymous": false,
      "inputs": [
        {
          "indexed": true,
          "internalType": "bytes32",
          "name": "id",
          "type": "bytes32"
        },
        {
          "indexed": true,
          "internalType": "address",
          "name": "sender",
          "type": "address"
        },
        {
          "indexed": true,
          "internalType": "address",
          "name": "src",
          "type": "address"
        },
        {
          "indexed": false,
          "internalType": "uint256",
          "name": "amount",
          "type": "uint256"
        }
      ],
      "name": "TokenClaimed",
      "type": "event"
    },
    {
      "anonymous": false,
      "inputs": [
        {
          "indexed": true,
          "internalType": "bytes32",
          "name": "id",
          "type": "bytes32"
        },
        {
          "indexed": true,
          "internalType": "address",
          "name": "sender",
          "type": "address"
        },
        {
          "indexed": true,
          "internalType": "address",
          "name": "src",
          "type": "address"
        },
        {
          "indexed": false,
          "internalType": "address",
          "name": "account",
          "type": "address"
        },
        {
          "indexed": false,
          "internalType": "uint256",
          "name": "timestamp",
          "type": "uint256"
        },
        {
          "indexed": false,
          "internalType": "uint256",
          "name": "amount",
          "type": "uint256"
        }
      ],
      "name": "TokenLocked",
      "type": "event"
    },
    {
      "anonymous": false,
      "inputs": [
        {
          "indexed": true,
          "internalType": "bytes32",
          "name": "id",
          "type": "bytes32"
        },
        {
          "indexed": true,
          "internalType": "address",
          "name": "sender",
          "type": "address"
        },
        {
          "indexed": true,
          "internalType": "address",
          "name": "account",
          "type": "address"
        },
        {
          "indexed": false,
          "internalType": "address",
          "name": "dest",
          "type": "address"
        },
        {
          "indexed": false,
          "internalType": "uint256",
          "name": "amount",
          "type": "uint256"
        },
        {
          "indexed": false,
          "internalType": "string",
          "name": "reason",
          "type": "string"
        }
      ],
      "name": "TokenUnlocked",
      "type": "event"
    },
    {
      "anonymous": false,
      "inputs": [
        {
          "indexed": true,
          "internalType": "address",
          "name": "from",
          "type": "address"
        },
        {
          "indexed": true,
          "internalType": "address",
          "name": "to",
          "type": "address"
        },
        {
          "indexed": false,
          "internalType": "uint256",
          "name": "value",
          "type": "uint256"
        }
      ],
      "name": "Transfer",
      "type": "event"
    },
    {
      "anonymous": false,
      "inputs": [
        {
          "indexed": true,
          "internalType": "address",
          "name": "sender",
          "type": "address"
        },
        {
          "indexed": true,
          "internalType": "address",
          "name": "from",
          "type": "address"
        },
        {
          "indexed": true,
          "internalType": "address",
          "name": "to",
          "type": "address"
        },
        {
          "indexed": false,
          "internalType": "uint256",
          "name": "amount",
          "type": "uint256"
        }
      ],
      "name": "TransferFrom",
      "type": "event"
    },
    {
      "anonymous": false,
      "inputs": [
        {
          "indexed": true,
          "internalType": "address",
          "name": "sender",
          "type": "address"
        },
        {
          "indexed": true,
          "internalType": "address",
          "name": "account",
          "type": "address"
        }
      ],
      "name": "Unpaused",
      "type": "event"
    },
    {
      "anonymous": false,
      "inputs": [
        {
          "indexed": true,
          "internalType": "address",
          "name": "sender",
          "type": "address"
        }
      ],
      "name": "UnpausedAll",
      "type": "event"
    },
    {
      "anonymous": false,
      "inputs": [
        {
          "indexed": true,
          "internalType": "address",
          "name": "sender",
          "type": "address"
        },
        {
          "indexed": true,
          "internalType": "address",
          "name": "proxy",
          "type": "address"
        },
        {
          "indexed": true,
          "internalType": "bytes32",
          "name": "realm",
          "type": "bytes32"
        },
        {
          "indexed": false,
          "internalType": "bool",
          "name": "status",
          "type": "bool"
        }
      ],
      "name": "UpgradeStatusChanged",
      "type": "event"
    },
    {
      "anonymous": false,
      "inputs": [
        {
          "indexed": true,
          "internalType": "address",
          "name": "sender",
          "type": "address"
        },
        {
          "indexed": true,
          "internalType": "address",
          "name": "proxy",
          "type": "address"
        },
        {
          "indexed": true,
          "internalType": "address",
          "name": "newImplementation",
          "type": "address"
        }
      ],
      "name": "Upgraded",
      "type": "event"
    },
    {
      "stateMutability": "payable",
      "type": "fallback"
    },
    {
      "inputs": [],
      "name": "accessControlManager",
      "outputs": [
        {
          "internalType": "address",
          "name": "",
          "type": "address"
        }
      ],
      "stateMutability": "view",
      "type": "function"
    },
    {
      "inputs": [
        {
          "internalType": "address",
          "name": "owner",
          "type": "address"
        },
        {
          "internalType": "address",
          "name": "spender",
          "type": "address"
        }
      ],
      "name": "allowance",
      "outputs": [
        {
          "internalType": "uint256",
          "name": "",
          "type": "uint256"
        }
      ],
      "stateMutability": "view",
      "type": "function"
    },
    {
      "inputs": [
        {
          "internalType": "address",
          "name": "spender",
          "type": "address"
        },
        {
          "internalType": "uint256",
          "name": "amount",
          "type": "uint256"
        }
      ],
      "name": "approve",
      "outputs": [
        {
          "internalType": "bool",
          "name": "",
          "type": "bool"
        }
      ],
      "stateMutability": "nonpayable",
      "type": "function"
    },
    {
      "inputs": [
        {
          "internalType": "address",
          "name": "account",
          "type": "address"
        }
      ],
      "name": "balanceOf",
      "outputs": [
        {
          "internalType": "uint256",
          "name": "",
          "type": "uint256"
        }
      ],
      "stateMutability": "view",
      "type": "function"
    },
    {
      "inputs": [
        {
          "internalType": "bytes32[]",
          "name": "lockIds",
          "type": "bytes32[]"
        }
      ],
      "name": "batchClaimToken",
      "outputs": [
        {
          "internalType": "uint256",
          "name": "",
          "type": "uint256"
        }
      ],
      "stateMutability": "nonpayable",
      "type": "function"
    },
    {
      "inputs": [
        {
          "components": [
            {
              "internalType": "address",
              "name": "source",
              "type": "address"
            },
            {
              "internalType": "address",
              "name": "dest",
              "type": "address"
            },
            {
              "internalType": "uint256",
              "name": "timestamp",
              "type": "uint256"
            },
            {
              "internalType": "uint256",
              "name": "amount",
              "type": "uint256"
            }
          ],
          "internalType": "struct IERC20Lock.LockTokenRequest[]",
          "name": "lockRequest",
          "type": "tuple[]"
        }
      ],
      "name": "batchLockToken",
      "outputs": [
        {
          "internalType": "bytes32[]",
          "name": "",
          "type": "bytes32[]"
        }
      ],
      "stateMutability": "nonpayable",
      "type": "function"
    },
    {
      "inputs": [
        {
          "components": [
            {
              "internalType": "address",
              "name": "to",
              "type": "address"
            },
            {
              "internalType": "uint256",
              "name": "amount",
              "type": "uint256"
            }
          ],
          "internalType": "struct IERC20Extra.BatchTransferRequest[]",
          "name": "request",
          "type": "tuple[]"
        }
      ],
      "name": "batchTransfer",
      "outputs": [
        {
          "internalType": "bool",
          "name": "",
          "type": "bool"
        }
      ],
      "stateMutability": "nonpayable",
      "type": "function"
    },
    {
      "inputs": [
        {
          "components": [
            {
              "internalType": "address",
              "name": "from",
              "type": "address"
            },
            {
              "internalType": "address",
              "name": "to",
              "type": "address"
            },
            {
              "internalType": "uint256",
              "name": "amount",
              "type": "uint256"
            }
          ],
          "internalType": "struct IERC20Extra.BatchTransferFromRequest[]",
          "name": "request",
          "type": "tuple[]"
        }
      ],
      "name": "batchTransferFrom",
      "outputs": [
        {
          "internalType": "bool",
          "name": "",
          "type": "bool"
        }
      ],
      "stateMutability": "nonpayable",
      "type": "function"
    },
    {
      "inputs": [
        {
          "components": [
            {
              "internalType": "bytes32",
              "name": "lockId",
              "type": "bytes32"
            },
            {
              "internalType": "address",
              "name": "account",
              "type": "address"
            },
            {
              "internalType": "string",
              "name": "reason",
              "type": "string"
            }
          ],
          "internalType": "struct IERC20Lock.UnLockTokenRequest[]",
          "name": "unlockRequest",
          "type": "tuple[]"
        }
      ],
      "name": "batchUnlockToken",
      "outputs": [
        {
          "internalType": "uint256",
          "name": "",
          "type": "uint256"
        }
      ],
      "stateMutability": "nonpayable",
      "type": "function"
    },
    {
      "inputs": [
        {
          "components": [
            {
              "internalType": "address",
              "name": "account",
              "type": "address"
            },
            {
              "internalType": "bool",
              "name": "isDeleted",
              "type": "bool"
            }
          ],
          "internalType": "struct IERC20Extra.BatchUpdateTaxWhitelistRequest[]",
          "name": "request",
          "type": "tuple[]"
        }
      ],
      "name": "batchUpdateTaxWhitelist",
      "outputs": [],
      "stateMutability": "nonpayable",
      "type": "function"
    },
    {
      "inputs": [
        {
          "internalType": "address",
          "name": "account",
          "type": "address"
        },
        {
          "internalType": "uint256",
          "name": "amount",
          "type": "uint256"
        }
      ],
      "name": "burn",
      "outputs": [
        {
          "internalType": "uint256",
          "name": "",
          "type": "uint256"
        }
      ],
      "stateMutability": "nonpayable",
      "type": "function"
    },
    {
      "inputs": [
        {
          "internalType": "bytes32",
          "name": "lockId",
          "type": "bytes32"
        }
      ],
      "name": "claimToken",
      "outputs": [
        {
          "internalType": "uint256",
          "name": "",
          "type": "uint256"
        }
      ],
      "stateMutability": "nonpayable",
      "type": "function"
    },
    {
      "inputs": [],
      "name": "contractContext",
      "outputs": [
        {
          "internalType": "bytes32",
          "name": "",
          "type": "bytes32"
        }
      ],
      "stateMutability": "view",
      "type": "function"
    },
    {
      "inputs": [],
      "name": "contractName",
      "outputs": [
        {
          "internalType": "bytes32",
          "name": "",
          "type": "bytes32"
        }
      ],
      "stateMutability": "view",
      "type": "function"
    },
    {
      "inputs": [],
      "name": "contractRealm",
      "outputs": [
        {
          "internalType": "bytes32",
          "name": "",
          "type": "bytes32"
        }
      ],
      "stateMutability": "view",
      "type": "function"
    },
    {
      "inputs": [],
      "name": "contractVersion",
      "outputs": [
        {
          "internalType": "bytes32",
          "name": "",
          "type": "bytes32"
        }
      ],
      "stateMutability": "view",
      "type": "function"
    },
    {
      "inputs": [],
      "name": "decimals",
      "outputs": [
        {
          "internalType": "uint8",
          "name": "",
          "type": "uint8"
        }
      ],
      "stateMutability": "pure",
      "type": "function"
    },
    {
      "inputs": [
        {
          "internalType": "address",
          "name": "spender",
          "type": "address"
        },
        {
          "internalType": "uint256",
          "name": "amount",
          "type": "uint256"
        }
      ],
      "name": "decreaseAllowance",
      "outputs": [
        {
          "internalType": "uint256",
          "name": "",
          "type": "uint256"
        }
      ],
      "stateMutability": "nonpayable",
      "type": "function"
    },
    {
      "inputs": [],
      "name": "domainSeparator",
      "outputs": [
        {
          "internalType": "bytes32",
          "name": "",
          "type": "bytes32"
        }
      ],
      "stateMutability": "view",
      "type": "function"
    },
    {
      "inputs": [],
      "name": "getLibrary",
      "outputs": [
        {
          "internalType": "address",
          "name": "",
          "type": "address"
        }
      ],
      "stateMutability": "pure",
      "type": "function"
    },
    {
      "inputs": [
        {
          "internalType": "address",
          "name": "spender",
          "type": "address"
        },
        {
          "internalType": "uint256",
          "name": "amount",
          "type": "uint256"
        }
      ],
      "name": "increaseAllowance",
      "outputs": [
        {
          "internalType": "uint256",
          "name": "",
          "type": "uint256"
        }
      ],
      "stateMutability": "nonpayable",
      "type": "function"
    },
    {
      "inputs": [],
      "name": "initVersion",
      "outputs": [
        {
          "internalType": "uint16",
          "name": "",
          "type": "uint16"
        }
      ],
      "stateMutability": "view",
      "type": "function"
    },
    {
      "inputs": [
        {
          "components": [
            {
              "internalType": "string",
              "name": "domainName",
              "type": "string"
            },
            {
              "internalType": "string",
              "name": "domainVersion",
              "type": "string"
            },
            {
              "internalType": "string",
              "name": "domainRealm",
              "type": "string"
            },
            {
              "internalType": "bytes",
              "name": "signature",
              "type": "bytes"
            },
            {
              "internalType": "uint256",
              "name": "taxRateValue",
              "type": "uint256"
            },
            {
              "internalType": "address",
              "name": "accessControlManager",
              "type": "address"
            }
          ],
          "internalType": "struct LivelyToken.InitRequest",
          "name": "request",
          "type": "tuple"
        }
      ],
      "name": "initialize",
      "outputs": [],
      "stateMutability": "nonpayable",
      "type": "function"
    },
    {
      "inputs": [
        {
          "internalType": "address",
          "name": "account",
          "type": "address"
        }
      ],
      "name": "isPaused",
      "outputs": [
        {
          "internalType": "bool",
          "name": "",
          "type": "bool"
        }
      ],
      "stateMutability": "view",
      "type": "function"
    },
    {
      "inputs": [],
      "name": "isPausedAll",
      "outputs": [
        {
          "internalType": "bool",
          "name": "",
          "type": "bool"
        }
      ],
      "stateMutability": "view",
      "type": "function"
    },
    {
      "inputs": [],
      "name": "isSafeMode",
      "outputs": [
        {
          "internalType": "bool",
          "name": "",
          "type": "bool"
        }
      ],
      "stateMutability": "view",
      "type": "function"
    },
    {
      "inputs": [],
      "name": "isUpgradable",
      "outputs": [
        {
          "internalType": "bool",
          "name": "",
          "type": "bool"
        }
      ],
      "stateMutability": "view",
      "type": "function"
    },
    {
      "inputs": [],
      "name": "localAdmin",
      "outputs": [
        {
          "internalType": "address",
          "name": "",
          "type": "address"
        }
      ],
      "stateMutability": "view",
      "type": "function"
    },
    {
      "inputs": [
        {
          "internalType": "address",
          "name": "account",
          "type": "address"
        }
      ],
      "name": "lockBalanceOf",
      "outputs": [
        {
          "internalType": "uint256",
          "name": "",
          "type": "uint256"
        }
      ],
      "stateMutability": "view",
      "type": "function"
    },
    {
      "inputs": [
        {
          "internalType": "bytes32",
          "name": "lockId",
          "type": "bytes32"
        },
        {
          "internalType": "address",
          "name": "account",
          "type": "address"
        }
      ],
      "name": "lockInfo",
      "outputs": [
        {
          "internalType": "uint256",
          "name": "",
          "type": "uint256"
        },
        {
          "internalType": "uint128",
          "name": "",
          "type": "uint128"
        },
        {
          "internalType": "uint128",
          "name": "",
          "type": "uint128"
        },
        {
          "internalType": "address",
          "name": "",
          "type": "address"
        },
        {
          "internalType": "uint8",
          "name": "",
          "type": "uint8"
        }
      ],
      "stateMutability": "view",
      "type": "function"
    },
    {
      "inputs": [
        {
          "components": [
            {
              "internalType": "address",
              "name": "source",
              "type": "address"
            },
            {
              "internalType": "address",
              "name": "dest",
              "type": "address"
            },
            {
              "internalType": "uint256",
              "name": "timestamp",
              "type": "uint256"
            },
            {
              "internalType": "uint256",
              "name": "amount",
              "type": "uint256"
            }
          ],
          "internalType": "struct IERC20Lock.LockTokenRequest",
          "name": "lockRequest",
          "type": "tuple"
        }
      ],
      "name": "lockToken",
      "outputs": [
        {
          "internalType": "bytes32",
          "name": "",
          "type": "bytes32"
        }
      ],
      "stateMutability": "nonpayable",
      "type": "function"
    },
    {
      "inputs": [
        {
          "internalType": "address",
          "name": "account",
          "type": "address"
        },
        {
          "internalType": "uint256",
          "name": "amount",
          "type": "uint256"
        }
      ],
      "name": "mint",
      "outputs": [
        {
          "internalType": "uint256",
          "name": "",
          "type": "uint256"
        }
      ],
      "stateMutability": "nonpayable",
      "type": "function"
    },
    {
      "inputs": [],
      "name": "name",
      "outputs": [
        {
          "internalType": "string",
          "name": "",
          "type": "string"
        }
      ],
      "stateMutability": "view",
      "type": "function"
    },
    {
      "inputs": [
        {
          "internalType": "address",
          "name": "owner",
          "type": "address"
        }
      ],
      "name": "nonce",
      "outputs": [
        {
          "internalType": "uint256",
          "name": "",
          "type": "uint256"
        }
      ],
      "stateMutability": "view",
      "type": "function"
    },
    {
      "inputs": [
        {
          "internalType": "address",
          "name": "account",
          "type": "address"
        }
      ],
      "name": "pause",
      "outputs": [],
      "stateMutability": "nonpayable",
      "type": "function"
    },
    {
      "inputs": [],
      "name": "pauseAll",
      "outputs": [],
      "stateMutability": "nonpayable",
      "type": "function"
    },
    {
      "inputs": [],
      "name": "pausedAccounts",
      "outputs": [
        {
          "internalType": "address[]",
          "name": "",
          "type": "address[]"
        }
      ],
      "stateMutability": "view",
      "type": "function"
    },
    {
      "inputs": [
        {
          "internalType": "address",
          "name": "owner",
          "type": "address"
        },
        {
          "internalType": "address",
          "name": "spender",
          "type": "address"
        },
        {
          "internalType": "uint256",
          "name": "value",
          "type": "uint256"
        },
        {
          "internalType": "uint256",
          "name": "deadline",
          "type": "uint256"
        },
        {
          "internalType": "bytes",
          "name": "signature",
          "type": "bytes"
        }
      ],
      "name": "permit",
      "outputs": [
        {
          "internalType": "bool",
          "name": "",
          "type": "bool"
        }
      ],
      "stateMutability": "nonpayable",
      "type": "function"
    },
    {
      "inputs": [],
      "name": "proxiableUUID",
      "outputs": [
        {
          "internalType": "bytes32",
          "name": "",
          "type": "bytes32"
        }
      ],
      "stateMutability": "view",
      "type": "function"
    },
    {
      "inputs": [
        {
          "internalType": "address",
          "name": "newLocalAdmin",
          "type": "address"
        }
      ],
      "name": "setLocalAdmin",
      "outputs": [
        {
          "internalType": "bool",
          "name": "",
          "type": "bool"
        }
      ],
      "stateMutability": "nonpayable",
      "type": "function"
    },
    {
      "inputs": [
        {
          "internalType": "bool",
          "name": "status",
          "type": "bool"
        }
      ],
      "name": "setSafeMode",
      "outputs": [
        {
          "internalType": "bool",
          "name": "",
          "type": "bool"
        }
      ],
      "stateMutability": "nonpayable",
      "type": "function"
    },
    {
      "inputs": [
        {
          "internalType": "bool",
          "name": "status",
          "type": "bool"
        }
      ],
      "name": "setUpgradeStatus",
      "outputs": [
        {
          "internalType": "bool",
          "name": "",
          "type": "bool"
        }
      ],
      "stateMutability": "nonpayable",
      "type": "function"
    },
    {
      "inputs": [],
      "name": "subjectAddress",
      "outputs": [
        {
          "internalType": "address",
          "name": "",
          "type": "address"
        }
      ],
      "stateMutability": "view",
      "type": "function"
    },
    {
      "inputs": [
        {
          "internalType": "bytes4",
          "name": "interfaceId",
          "type": "bytes4"
        }
      ],
      "name": "supportsInterface",
      "outputs": [
        {
          "internalType": "bool",
          "name": "",
          "type": "bool"
        }
      ],
      "stateMutability": "view",
      "type": "function"
    },
    {
      "inputs": [],
      "name": "symbol",
      "outputs": [
        {
          "internalType": "string",
          "name": "",
          "type": "string"
        }
      ],
      "stateMutability": "view",
      "type": "function"
    },
    {
      "inputs": [],
      "name": "taxRate",
      "outputs": [
        {
          "internalType": "uint256",
          "name": "",
          "type": "uint256"
        }
      ],
      "stateMutability": "view",
      "type": "function"
    },
    {
      "inputs": [],
      "name": "taxTreasury",
      "outputs": [
        {
          "internalType": "address",
          "name": "",
          "type": "address"
        }
      ],
      "stateMutability": "view",
      "type": "function"
    },
    {
      "inputs": [],
      "name": "taxWhitelist",
      "outputs": [
        {
          "internalType": "address[]",
          "name": "",
          "type": "address[]"
        }
      ],
      "stateMutability": "view",
      "type": "function"
    },
    {
      "inputs": [
        {
          "internalType": "address",
          "name": "assetManager",
          "type": "address"
        },
        {
          "internalType": "address[7]",
          "name": "assets",
          "type": "address[7]"
        }
      ],
      "name": "tokensDistribution",
      "outputs": [
        {
          "internalType": "bool",
          "name": "",
          "type": "bool"
        }
      ],
      "stateMutability": "nonpayable",
      "type": "function"
    },
    {
      "inputs": [
        {
          "internalType": "address",
          "name": "account",
          "type": "address"
        }
      ],
      "name": "totalBalanceOf",
      "outputs": [
        {
          "internalType": "uint256",
          "name": "",
          "type": "uint256"
        }
      ],
      "stateMutability": "view",
      "type": "function"
    },
    {
      "inputs": [],
      "name": "totalSupply",
      "outputs": [
        {
          "internalType": "uint256",
          "name": "",
          "type": "uint256"
        }
      ],
      "stateMutability": "view",
      "type": "function"
    },
    {
      "inputs": [
        {
          "internalType": "address",
          "name": "recipient",
          "type": "address"
        },
        {
          "internalType": "uint256",
          "name": "amount",
          "type": "uint256"
        }
      ],
      "name": "transfer",
      "outputs": [
        {
          "internalType": "bool",
          "name": "",
          "type": "bool"
        }
      ],
      "stateMutability": "nonpayable",
      "type": "function"
    },
    {
      "inputs": [
        {
          "internalType": "address",
          "name": "source",
          "type": "address"
        },
        {
          "internalType": "address",
          "name": "recipient",
          "type": "address"
        },
        {
          "internalType": "uint256",
          "name": "amount",
          "type": "uint256"
        }
      ],
      "name": "transferFrom",
      "outputs": [
        {
          "internalType": "bool",
          "name": "",
          "type": "bool"
        }
      ],
      "stateMutability": "nonpayable",
      "type": "function"
    },
    {
      "inputs": [
        {
          "components": [
            {
              "internalType": "bytes32",
              "name": "lockId",
              "type": "bytes32"
            },
            {
              "internalType": "address",
              "name": "account",
              "type": "address"
            },
            {
              "internalType": "string",
              "name": "reason",
              "type": "string"
            }
          ],
          "internalType": "struct IERC20Lock.UnLockTokenRequest",
          "name": "unlockRequest",
          "type": "tuple"
        }
      ],
      "name": "unlockToken",
      "outputs": [
        {
          "internalType": "uint256",
          "name": "",
          "type": "uint256"
        }
      ],
      "stateMutability": "nonpayable",
      "type": "function"
    },
    {
      "inputs": [
        {
          "internalType": "address",
          "name": "account",
          "type": "address"
        }
      ],
      "name": "unpause",
      "outputs": [],
      "stateMutability": "nonpayable",
      "type": "function"
    },
    {
      "inputs": [],
      "name": "unpauseAll",
      "outputs": [],
      "stateMutability": "nonpayable",
      "type": "function"
    },
    {
      "inputs": [
        {
          "internalType": "uint256",
          "name": "rate",
          "type": "uint256"
        }
      ],
      "name": "updateTaxRate",
      "outputs": [
        {
          "internalType": "bool",
          "name": "",
          "type": "bool"
        }
      ],
      "stateMutability": "nonpayable",
      "type": "function"
    },
    {
      "inputs": [
        {
          "internalType": "address",
          "name": "account",
          "type": "address"
        },
        {
          "internalType": "bool",
          "name": "isDeleted",
          "type": "bool"
        }
      ],
      "name": "updateTaxWhitelist",
      "outputs": [
        {
          "internalType": "bool",
          "name": "",
          "type": "bool"
        }
      ],
      "stateMutability": "nonpayable",
      "type": "function"
    },
    {
      "inputs": [
        {
          "internalType": "address",
          "name": "newImplementation",
          "type": "address"
        },
        {
          "internalType": "bytes",
          "name": "data",
          "type": "bytes"
        },
        {
          "internalType": "bool",
          "name": "forceCall",
          "type": "bool"
        }
      ],
      "name": "upgradeTo",
      "outputs": [
        {
          "internalType": "bytes",
          "name": "",
          "type": "bytes"
        }
      ],
      "stateMutability": "nonpayable",
      "type": "function"
    },
    {
      "inputs": [
        {
          "internalType": "address",
          "name": "recepient",
          "type": "address"
        }
      ],
      "name": "withdrawBalance",
      "outputs": [],
      "stateMutability": "nonpayable",
      "type": "function"
    },
    {
      "stateMutability": "payable",
      "type": "receive"
    }
  ],
  "bytecode": "0x60a0604052306080523480156200001557600080fd5b506200004360017f360894a13ba1a3210667c828492db98dca3e2076cc3735a920a3ca505d382bbd6200011f565b7f360894a13ba1a3210667c828492db98dca3e2076cc3735a920a3ca505d382bbc1462000074576200007462000147565b620000a160017fb53127684a568b3173ae13b9f8a6016e243e63b6e8ee1178d6a717850b5d61046200011f565b600080516020620060be83398151915214620000c157620000c162000147565b33620000ea600080516020620060be83398151915260001b6200011c60201b620032011760201c565b80546001600160a01b0319166001600160a01b03929092169190911790556004805461ffff191660011790556200015d565b90565b818103818111156200014157634e487b7160e01b600052601160045260246000fd5b92915050565b634e487b7160e01b600052600160045260246000fd5b608051615eff620001bf60003960008181610c5201528181610c9b0152818161125e0152818161129e0152818161143201528181611472015281816116260152818161184f0152818161188f015281816122ed015261232d0152615eff6000f3fe60806040526004361061036b5760003560e01c80637678922e116101c4578063a0e6adf1116100f6578063d9dc1f191161009a578063f698da251161006c578063f698da2514610aa6578063f94a0adb14610abb578063faa552a814610ad0578063fdb92ec414610af057005b8063d9dc1f1914610a31578063dd62ed3e14610a51578063de843a9414610a71578063ec4ac1f714610a8657005b8063a9059cbb116100d3578063a9059cbb146109c6578063b4a0bdf3146109e6578063be22465d14610a04578063d3e024b814610a1c57005b8063a0e6adf114610967578063a457c2d714610986578063a5bfa9a9146109a657005b80638a92ab15116101685780639b5f356e1161013a5780639b5f356e146108f25780639dc29fac146109125780639fd5a6cf14610932578063a0a8e4601461095257005b80638a92ab15146108325780638bfc07ed1461085057806395d89b41146108b05780639a7e1873146108c557005b80637bf60ff4116101a15780637bf60ff4146107c65780637d35f355146107e8578063870666cb146108085780638a2ddd031461081d57005b80637678922e1461076a57806376a67a5114610791578063771a3a1d146107b157005b806346a634d41161029d578063595c6a671161024157806370ae92d21161021357806370ae92d2146106f55780637147855d14610715578063756af45f1461073557806375d0c0dc1461075557005b8063595c6a671461066a5780635b14f1831461067f5780636b8394921461069f57806370a08231146106bf57005b806352d1902d1161027a57806352d1902d146105eb5780635479d9401461060057806357b001f91461061d57806358dbc45d1461063d57005b806346a634d41461058b57806348e6be1c146105ab5780634b0ee02a146105cb57005b806318160ddd1161030f57806338d38c97116102e157806338d38c9714610503578063395093511461052b57806340c10f191461054b57806344b7e5f21461056b57005b806318160ddd146104925780631c6928e8146104a757806323b872dd146104c7578063313ce567146104e757005b806310e776ed1161034857806310e776ed146103eb5780631408a7f4146104325780631455a1c81461045257806317fdcc8e1461047257005b806301ffc9a71461037457806306fdde03146103a9578063095ea7b3146103cb57005b3661037257005b005b34801561038057600080fd5b5061039461038f366004614eb5565b610b10565b60405190151581526020015b60405180910390f35b3480156103b557600080fd5b506103be610b8b565b6040516103a09190614f22565b3480156103d757600080fd5b506103946103e6366004614f4a565b610c1d565b3480156103f757600080fd5b50610424610406366004614f76565b6001600160a01b03166000908152604a602052604090206001015490565b6040519081526020016103a0565b34801561043e57600080fd5b5061037261044d366004614f93565b610c48565b34801561045e57600080fd5b5061042461046d366004615011565b610f0e565b34801561047e57600080fd5b5061039461048d366004615052565b610faa565b34801561049e57600080fd5b50604754610424565b3480156104b357600080fd5b506103946104c236600461506b565b611001565b3480156104d357600080fd5b506103946104e23660046150df565b611166565b3480156104f357600080fd5b50604051601281526020016103a0565b34801561050f57600080fd5b50610518611191565b60405161ffff90911681526020016103a0565b34801561053757600080fd5b50610424610546366004614f4a565b6111a5565b34801561055757600080fd5b50610424610566366004614f4a565b611232565b34801561057757600080fd5b50610394610586366004615139565b611252565b34801561059757600080fd5b506103946105a6366004615156565b611407565b3480156105b757600080fd5b506103946105c6366004615139565b611426565b3480156105d757600080fd5b506104246105e6366004614f76565b6115ef565b3480156105f757600080fd5b50610424611619565b34801561060c57600080fd5b50600454610100900460ff16610394565b34801561062957600080fd5b50610372610638366004614f76565b6116a6565b34801561064957600080fd5b50610652611770565b6040516001600160a01b0390911681526020016103a0565b34801561067657600080fd5b5061037261177a565b34801561068b57600080fd5b5061039461069a366004614f76565b6117df565b3480156106ab57600080fd5b506104246106ba36600461518f565b6117ff565b3480156106cb57600080fd5b506104246106da366004614f76565b6001600160a01b03166000908152604a602052604090205490565b34801561070157600080fd5b50610424610710366004614f76565b611822565b34801561072157600080fd5b506103be61073036600461520f565b611843565b34801561074157600080fd5b50610372610750366004614f76565b61196b565b34801561076157600080fd5b50600154610424565b34801561077657600080fd5b5073__$02a10a5b613955ebe0b1689ca5d6d93e29$__610652565b34801561079d57600080fd5b506103726107ac366004614f76565b611a1f565b3480156107bd57600080fd5b50604854610424565b3480156107d257600080fd5b506107db611aef565b6040516103a091906152c6565b3480156107f457600080fd5b50610372610803366004615357565b611afb565b34801561081457600080fd5b50610424611b8c565b34801561082957600080fd5b50610372611b97565b34801561083e57600080fd5b506049546001600160a01b0316610652565b34801561085c57600080fd5b5061087061086b36600461538c565b611be5565b604080519586526001600160801b03948516602087015292909316918401919091526001600160a01b0316606083015260ff16608082015260a0016103a0565b3480156108bc57600080fd5b506103be611c6a565b3480156108d157600080fd5b506108e56108e03660046153b1565b611c79565b6040516103a09190615413565b3480156108fe57600080fd5b5061042461090d366004615011565b611de1565b34801561091e57600080fd5b5061042461092d366004614f4a565b611ed5565b34801561093e57600080fd5b5061039461094d36600461544b565b612003565b34801561095e57600080fd5b50600254610424565b34801561097357600080fd5b50604954600160a01b900460ff16610394565b34801561099257600080fd5b506104246109a1366004614f4a565b6121f8565b3480156109b257600080fd5b506104246109c1366004615052565b612276565b3480156109d257600080fd5b506103946109e1366004614f4a565b612292565b3480156109f257600080fd5b506000546001600160a01b0316610652565b348015610a1057600080fd5b5060045460ff16610394565b348015610a2857600080fd5b50600354610424565b348015610a3d57600080fd5b50610394610a4c366004614f76565b6122e1565b348015610a5d57600080fd5b50610424610a6c3660046154f4565b61245b565b348015610a7d57600080fd5b506107db612467565b348015610a9257600080fd5b50610394610aa1366004615522565b612473565b348015610ab257600080fd5b506104246130ed565b348015610ac757600080fd5b506106526130f7565b348015610adc57600080fd5b50610394610aeb366004615357565b613101565b348015610afc57600080fd5b50610424610b0b366004615561565b6131db565b60006001600160e01b03198216634a17459160e11b1480610b4157506001600160e01b0319821663e3a31a9d60e01b145b80610b5c57506001600160e01b03198216636b88d51560e11b145b80610b7657506001600160e01b03198216627b720760e91b145b80610b855750610b8582613204565b92915050565b606060458054610b9a9061559b565b80601f0160208091040260200160405190810160405280929190818152602001828054610bc69061559b565b8015610c135780601f10610be857610100808354040283529160200191610c13565b820191906000526020600020905b815481529060010190602001808311610bf657829003601f168201915b5050505050905090565b6000610c3463095ea7b360e01b335b600180613254565b610c3f338484613352565b50600192915050565b6001600160a01b037f0000000000000000000000000000000000000000000000000000000000000000163003610c995760405162461bcd60e51b8152600401610c90906155cf565b60405180910390fd5b7f00000000000000000000000000000000000000000000000000000000000000006001600160a01b0316610ccb613458565b6001600160a01b031614610cf15760405162461bcd60e51b8152600401610c90906155fe565b33610cfa613479565b6001600160a01b031614610d485760405162461bcd60e51b815260206004820152601560248201527410d85b1b195c88139bdd08105d5d1a1bdc9a5e9959605a1b6044820152606401610c90565b60515462010000900460ff1615808015610d6a5750605154600161ffff909116105b80610d855750303b158015610d85575060515461ffff166001145b610dd15760405162461bcd60e51b815260206004820152601c60248201527f436f6e747261637420416c726561647920496e697469616c697a6564000000006044820152606401610c90565b6051805461ffff191660011790558015610df7576051805462ff00001916620100001790555b6000610e06604084018461562c565b604051602001610e17929190615672565b60408051601f1981840301815291905280516020909101209050610e61610e3e848061562c565b610e4b602087018761562c565b85610e5c60c08a0160a08b01614f76565b6134a1565b6040805180820190915260068152654c4956454c5960d01b6020820152604590610e8b90826156c8565b5060408051808201909152600381526213159360ea1b6020820152604690610eb390826156c8565b5060808301356048556049805460ff60a81b19169055610ef6610ed6848061562c565b610ee3602087018761562c565b85610ef160608a018a61562c565b6134b7565b508015610f0a576051805462ff0000191690555b5050565b6000610f2163028ab43960e31b33610c2c565b6000805b83811015610f6c57610f4e858583818110610f4257610f42615787565b9050602002013561363d565b610f5890836157b3565b915080610f64816157c6565b915050610f25565b5060405181815233907ff816ce3b3a52bd5c96a6ac9d4404d206f4e9d482ffa303afbf0dbeea2957f59a906020015b60405180910390a29392505050565b6000610fbf630bfee64760e11b828080613254565b604882905560405182815233907fb7902185ac0a79231c8be85f0ee0d94806d95d785d216824a078279f5d5bfbae9060200160405180910390a2506001919050565b600061101763038d251d60e31b82600181613254565b6000805b838110156111255761105685858381811061103857611038615787565b61104e9260206060909202019081019150614f76565b604d90613724565b156110735760405162461bcd60e51b8152600401610c90906157df565b84848281811061108557611085615787565b905060600201604001358261109a91906157b3565b91506111128585838181106110b1576110b1615787565b6110c79260206060909202019081019150614f76565b8686848181106110d9576110d9615787565b90506060020160200160208101906110f19190614f76565b87878581811061110357611103615787565b90506060020160400135613746565b508061111d816157c6565b91505061101b565b5060405181815233907f208fdf04989d654cc491d69be8eb64992c7b7407e34a6ac73e7c0361d0591eff906020015b60405180910390a25060019392505050565b600061117c6323b872dd60e01b85600180613254565b611187848484613746565b90505b9392505050565b60006111a060515461ffff1690565b905090565b60006111b8633950935160e01b33610c2c565b336000836111c683876137ef565b6111d091906157b3565b90506111dd828683613352565b846001600160a01b0316826001600160a01b03167f865ea570c20f0fe0ae579ec567fa79d57a683390554593dc070ea0dcd5f466fb8660405161122291815260200190565b60405180910390a3949350505050565b60006112486340c10f1960e01b84600180613254565b61118a838361381a565b60006001600160a01b037f000000000000000000000000000000000000000000000000000000000000000016300361129c5760405162461bcd60e51b8152600401610c90906155cf565b7f00000000000000000000000000000000000000000000000000000000000000006001600160a01b03166112ce613458565b6001600160a01b0316146112f45760405162461bcd60e51b8152600401610c90906155fe565b600061130360515461ffff1690565b61ffff16116113545760405162461bcd60e51b815260206004820152601860248201527f436f6e7472616374204e6f7420496e697469616c697a656400000000000000006044820152606401610c90565b61136463225bf2f960e11b6138da565b6113a85760405162461bcd60e51b815260206004820152601560248201527429b2ba29b0b332a6b7b232902337b93134b23232b760591b6044820152606401610c90565b6004805460ff191683151517905560035430336001600160a01b03167fdd452a31d2e164a1ea436c084842c27d24ae2548a575a869f71b05a4ed16243f856040516113f7911515815260200190565b60405180910390a450805b919050565b600061141c6311a98d3560e21b828080613254565b61118a8383613a41565b60006001600160a01b037f00000000000000000000000000000000000000000000000000000000000000001630036114705760405162461bcd60e51b8152600401610c90906155cf565b7f00000000000000000000000000000000000000000000000000000000000000006001600160a01b03166114a2613458565b6001600160a01b0316146114c85760405162461bcd60e51b8152600401610c90906155fe565b60045460ff16156114eb5760405162461bcd60e51b8152600401610c9090615816565b6114fb631239af8760e21b6138da565b6115475760405162461bcd60e51b815260206004820152601a60248201527f5365745570677261646553746174757320466f7262696464656e0000000000006044820152606401610c90565b61154f613b1d565b61159b5760405162461bcd60e51b815260206004820152601760248201527f5265616c6d205570677261646520466f7262696464656e0000000000000000006044820152606401610c90565b6004805461ff0019166101008415150217905560035430336001600160a01b03167fe9f97ad94c2ba252dcfc525e004f608ac5cb886955d8fc87d9e0ee070a698c56856040516113f7911515815260200190565b6001600160a01b0381166000908152604a602052604081208054600190910154610b8591906157b3565b6000306001600160a01b037f000000000000000000000000000000000000000000000000000000000000000016146116935760405162461bcd60e51b815260206004820152601d60248201527f496c6c6567616c20436f6e74726163742044656c656761746563616c6c0000006044820152606401610c90565b50600080516020615eaa83398151915290565b6116ba6357b001f960e01b60008080613254565b6001600160a01b0381166116e05760405162461bcd60e51b8152600401610c909061584d565b6116eb604d82613724565b61172b5760405162461bcd60e51b81526020600482015260116024820152701058d8dbdd5b9d08139bdd08119bdd5b99607a1b6044820152606401610c90565b611736604d82613c59565b506040516001600160a01b0382169033907f3d072963433794eb417a69355df67d08bbd73d5076ef653d6863861161d60af390600090a350565b60006111a0613458565b61178e63595c6a6760e01b60008080613254565b6049805460ff60a01b1916600160a01b1790556117a83390565b6001600160a01b03167ff1005168aea1429fe9559d51ef6caa33e6426890864e2e6e41e5d54baa7be79f60405160405180910390a2565b60006001600160a01b03821615801590610b855750610b85604d83613724565b60006118196335c1ca4960e11b610c2c6020850185614f76565b610b8582613c6e565b6001600160a01b0381166000908152604a6020526040812060020154610b85565b60606001600160a01b037f000000000000000000000000000000000000000000000000000000000000000016300361188d5760405162461bcd60e51b8152600401610c90906155cf565b7f00000000000000000000000000000000000000000000000000000000000000006001600160a01b03166118bf613458565b6001600160a01b0316146118e55760405162461bcd60e51b8152600401610c90906155fe565b60045460ff16156119085760405162461bcd60e51b8152600401610c9090615816565b600454610100900460ff166119575760405162461bcd60e51b8152602060048201526015602482015274155c19dc9859194810d85b1b0814995a9958dd1959605a1b6044820152606401610c90565b61196084613d64565b611187848484613e2b565b60045460ff161561198e5760405162461bcd60e51b8152600401610c9090615816565b61199e63756af45f60e01b6138da565b6119ea5760405162461bcd60e51b815260206004820152601a60248201527f57697468647261772042616c616e636520466f7262696464656e0000000000006044820152606401610c90565b6040516001600160a01b038216904780156108fc02916000818181858888f19350505050158015610f0a573d6000803e3d6000fd5b611a336376a67a5160e01b60008080613254565b6001600160a01b038116611a595760405162461bcd60e51b8152600401610c909061584d565b611a64604d82613724565b15611aaa5760405162461bcd60e51b81526020600482015260166024820152751058d8dbdd5b9d08105b1c9958591e4814185d5cd95960521b6044820152606401610c90565b611ab5604d8261407c565b506040516001600160a01b0382169033907f3dd4f37ca5eaf6c357698a52c806820426d7c9a26adb0991c3bebb09cf23352a90600090a350565b60606111a0604f614091565b611b0f637d35f35560e01b60008080613254565b60005b81811015611b8757611b74838383818110611b2f57611b2f615787565b611b459260206040909202019081019150614f76565b848484818110611b5757611b57615787565b9050604002016020016020810190611b6f9190615139565b613a41565b5080611b7f816157c6565b915050611b12565b505050565b60006111a03061409e565b611bab638a2ddd0360e01b60008080613254565b6049805460ff60a01b1916905560405133907f3c1fb1fd79ee84e55a8fe78554c432ef36ea033a9245ce4b650bd824a12554d390600090a2565b6001600160a01b038181166000908152604c60209081526040808320868452909152812080546001820154600283015493948594859485948594919390926001600160801b0380841693600160801b90041691811690600160a01b900460ff166003811115611c5657611c56615884565b939c929b5090995097509095509350505050565b606060468054610b9a9061559b565b6060611c90639a7e187360e01b6000600181613254565b600080836001600160401b03811115611cab57611cab6151a1565b604051908082528060200260200182016040528015611cd4578160200160208202803683370190505b50905060005b84811015611da357611d0d868683818110611cf757611cf7615787565b61104e9260206080909202019081019150614f76565b15611d2a5760405162461bcd60e51b8152600401610c90906157df565b611d4a868683818110611d3f57611d3f615787565b905060800201613c6e565b828281518110611d5c57611d5c615787565b602002602001018181525050858582818110611d7a57611d7a615787565b9050608002016060013583611d8f91906157b3565b925080611d9b816157c6565b915050611cda565b5060405182815233907f8e04d4df873aa900cbe3c4b51af80c003e2a72b8dfd36a6a2e54fdadbf4d11279060200160405180910390a2949350505050565b6000611df7634daf9ab760e11b82600181613254565b6000805b83811015611ea257611e3b858583818110611e1857611e18615787565b9050602002810190611e2a919061589a565b61104e906040810190602001614f76565b15611e585760405162461bcd60e51b8152600401610c90906157df565b611e84858583818110611e6d57611e6d615787565b9050602002810190611e7f919061589a565b6140dd565b611e8e90836157b3565b915080611e9a816157c6565b915050611dfb565b5060405181815233907f358ca32fb65dbe46a9aec67304b927cf0c3eaf896217f853f9a93fef2e92072390602001610f9b565b6000611eeb632770a7eb60e21b84600180613254565b6001600160a01b038316611f115760405162461bcd60e51b8152600401610c909061584d565b6001600160a01b0383166000908152604a602052604090205482811015611f7a5760405162461bcd60e51b815260206004820152601c60248201527f496e73756666696369656e74204163636f756e742042616c616e6365000000006044820152606401610c90565b6001600160a01b0384166000908152604a60205260408120848303905560478054859290611fa99084906158ba565b90915550506047546040805185815260208101929092526001600160a01b0386169133917f5d624aa9c148153ab3446c1b154f660ee7701e549fe9b62dab7171b1c80e6fa2910160405180910390a3505060475492915050565b6000612019639fd5a6cf60e01b88600180613254565b834211156120695760405162461bcd60e51b815260206004820152601760248201527f5065726d697420446561646c696e6520457870697265640000000000000000006044820152606401610c90565b60007f6e71edae12b1b97f4d1f60370fef10105fa2faae0126114a169c64845d6126c98888886120988c6141cc565b6040805160208101969096526001600160a01b0394851690860152929091166060840152608083015260a082015260c0810186905260e00160405160208183030381529060405280519060200120905060006121366120f56141f7565b8360405161190160f01b6020820152602281018390526042810182905260009060620160405160208183030381529060405280519060200120905092915050565b9050600061217a8287878080601f01602080910402602001604051908101604052809392919081815260200183838082843760009201919091525061426092505050565b9050896001600160a01b0316816001600160a01b0316146121dd5760405162461bcd60e51b815260206004820152601860248201527f496c6c6567616c20454344415341205369676e617475726500000000000000006044820152606401610c90565b6121e88a8a8a613352565b5060019998505050505050505050565b600061220b63a457c2d760e01b33610c2c565b33612217818585614284565b836001600160a01b0316816001600160a01b03167f2d6189480d1bb13da7c0ed0063fe94af3c19eed814940db43733c4198d00a7428560405161225c91815260200190565b60405180910390a361226e81856137ef565b949350505050565b600061228963a5bfa9a960e01b33610c2c565b610b858261363d565b60006122a563a9059cbb60e01b33610c2c565b60006048541180156122c157506122bf335b604f90613724565b155b156122d6576122d13384846142f5565b610c3f565b610c3f33848461437c565b60006001600160a01b037f000000000000000000000000000000000000000000000000000000000000000016300361232b5760405162461bcd60e51b8152600401610c90906155cf565b7f00000000000000000000000000000000000000000000000000000000000000006001600160a01b031661235d613458565b6001600160a01b0316146123835760405162461bcd60e51b8152600401610c90906155fe565b60045460ff16156123a65760405162461bcd60e51b8152600401610c9090615816565b6123b663d9dc1f1960e01b6138da565b6124025760405162461bcd60e51b815260206004820152601760248201527f5365744c6f63616c41646d696e20466f7262696464656e0000000000000000006044820152606401610c90565b6001600160a01b03821661244a5760405162461bcd60e51b815260206004820152600f60248201526e1059191c995cdcc8125b9d985b1a59608a1b6044820152606401610c90565b61245382614442565b506001919050565b600061118a83836137ef565b60606111a0604d614091565b60045460009060ff16156124995760405162461bcd60e51b8152600401610c9090615816565b63ec4ac1f760e01b6124aa816138da565b6124e65760405162461bcd60e51b815260206004820152600d60248201526c1058d8d95cdcc811195b9a5959609a1b6044820152606401610c90565b604954600160a81b900460ff16156125405760405162461bcd60e51b815260206004820152601960248201527f546f6b656e20416c7265616479204469737472696275746564000000000000006044820152606401610c90565b6040516301ffc9a760e01b8152631c8b5d5b60e11b60048201526001600160a01b038516906301ffc9a790602401602060405180830381865afa9250505080156125a7575060408051601f3d908101601f191682019092526125a4918101906158d8565b60015b6125f35760405162461bcd60e51b815260206004820152601a60248201527f496c6c6567616c204941737365744d616e6167657245524332300000000000006044820152606401610c90565b806126405760405162461bcd60e51b815260206004820152601a60248201527f496e76616c6964204941737365744d616e6167657245524332300000000000006044820152606401610c90565b50612657846b1027e72f1f1281308800000061381a565b5060005b60078110156130ce5783816007811061267657612676615787565b6020020160208101906126899190614f76565b6040516301ffc9a760e01b8152639673b47d60e01b60048201526001600160a01b0391909116906301ffc9a790602401602060405180830381865afa9250505080156126f2575060408051601f3d908101601f191682019092526126ef918101906158d8565b60015b6127355760405162461bcd60e51b8152602060048201526014602482015273496c6c6567616c20494173736574456e7469747960601b6044820152606401610c90565b806127795760405162461bcd60e51b8152602060048201526014602482015273496e76616c696420494173736574456e7469747960601b6044820152606401610c90565b503084826007811061278d5761278d615787565b6020020160208101906127a09190614f76565b6001600160a01b0316631083f7616040518163ffffffff1660e01b8152600401602060405180830381865afa1580156127dd573d6000803e3d6000fd5b505050506040513d601f19601f8201168201806040525081019061280191906158f5565b6001600160a01b03161461284d5760405162461bcd60e51b815260206004820152601360248201527224b73b30b634b21020b9b9b2ba102a37b5b2b760691b6044820152606401610c90565b604080517f4c4956454c595f415544494f5f564944454f5f50524f4752414d5f4153534554602082015201604051602081830303815290604052805190602001208482600781106128a0576128a0615787565b6020020160208101906128b39190614f76565b6001600160a01b031663c9230c5d6040518163ffffffff1660e01b8152600401602060405180830381865afa1580156128f0573d6000803e3d6000fd5b505050506040513d601f19601f820116820180604052508101906129149190615912565b036129865761294684826007811061292e5761292e615787565b6020020160208101906129419190614f76565b6144b9565b6129813385836007811061295c5761295c615787565b60200201602081019061296f9190614f76565b6b019d971e4fe8401e7400000061437c565b6130bc565b6040517f4c4956454c595f464f554e44494e475f5445414d5f41535345540000000000006020820152603a01604051602081830303815290604052805190602001208482600781106129da576129da615787565b6020020160208101906129ed9190614f76565b6001600160a01b031663c9230c5d6040518163ffffffff1660e01b8152600401602060405180830381865afa158015612a2a573d6000803e3d6000fd5b505050506040513d601f19601f82011682018060405250810190612a4e9190615912565b03612aa357612a6884826007811061292e5761292e615787565b61298133858360078110612a7e57612a7e615787565b602002016020810190612a919190614f76565b6b02e87669c308736a0400000061437c565b6040517413125591531657d514915054d5549657d054d4d155605a1b602082015260350160405160208183030381529060405280519060200120848260078110612aef57612aef615787565b602002016020810190612b029190614f76565b6001600160a01b031663c9230c5d6040518163ffffffff1660e01b8152600401602060405180830381865afa158015612b3f573d6000803e3d6000fd5b505050506040513d601f19601f82011682018060405250810190612b639190615912565b03612bb857612b7d84826007811061292e5761292e615787565b61298133858360078110612b9357612b93615787565b602002016020810190612ba69190614f76565b6b026c62ad77dc602dae00000061437c565b6040517f4c4956454c595f5055424c49435f53414c455f41535345540000000000000000602082015260380160405160208183030381529060405280519060200120848260078110612c0c57612c0c615787565b602002016020810190612c1f9190614f76565b6001600160a01b031663c9230c5d6040518163ffffffff1660e01b8152600401602060405180830381865afa158015612c5c573d6000803e3d6000fd5b505050506040513d601f19601f82011682018060405250810190612c809190615912565b03612cd557612c9a84826007811061292e5761292e615787565b61298133858360078110612cb057612cb0615787565b602002016020810190612cc39190614f76565b6b06765c793fa10079d000000061437c565b6040517f4c4956454c595f56414c494441544f52535f524557415244535f4153534554006020820152603f0160405160208183030381529060405280519060200120848260078110612d2957612d29615787565b602002016020810190612d3c9190614f76565b6001600160a01b031663c9230c5d6040518163ffffffff1660e01b8152600401602060405180830381865afa158015612d79573d6000803e3d6000fd5b505050506040513d601f19601f82011682018060405250810190612d9d9190615912565b03612df157612db784826007811061292e5761292e615787565b61298133858360078110612dcd57612dcd615787565b602002016020810190612de09190614f76565b6af8277896582678ac00000061437c565b6040517f4c4956454c595f43524f57445f464f554e44494e475f415353455400000000006020820152603b0160405160208183030381529060405280519060200120848260078110612e4557612e45615787565b602002016020810190612e589190614f76565b6001600160a01b031663c9230c5d6040518163ffffffff1660e01b8152600401602060405180830381865afa158015612e95573d6000803e3d6000fd5b505050506040513d601f19601f82011682018060405250810190612eb99190615912565b03612f0e57612ed384826007811061292e5761292e615787565b61298133858360078110612ee957612ee9615787565b602002016020810190612efc9190614f76565b6b01c6f307be4c4687e600000061437c565b6040517f4c4956454c595f5441585f54524541535552595f415353455400000000000000602082015260390160405160208183030381529060405280519060200120848260078110612f6257612f62615787565b602002016020810190612f759190614f76565b6001600160a01b031663c9230c5d6040518163ffffffff1660e01b8152600401602060405180830381865afa158015612fb2573d6000803e3d6000fd5b505050506040513d601f19601f82011682018060405250810190612fd69190615912565b0361307e576049546001600160a01b0316156130345760405162461bcd60e51b815260206004820152601e60248201527f546178547265617375727920416c7265616479205265676973746572656400006044820152606401610c90565b83816007811061304657613046615787565b6020020160208101906130599190614f76565b604980546001600160a01b0319166001600160a01b03929092169190911790556130bc565b60405162461bcd60e51b8152602060048201526013602482015272105cdcd95d08139bdd0814dd5c1c1bdc9d1959606a1b6044820152606401610c90565b806130c6816157c6565b91505061265b565b506049805460ff60a81b1916600160a81b179055600191505092915050565b60006111a06141f7565b60006111a0613479565b6000613114631f54aa5560e31b33610c2c565b6000805b838110156131a85784848281811061313257613132615787565b905060400201602001358261314791906157b3565b91506131963386868481811061315f5761315f615787565b6131759260206040909202019081019150614f76565b87878581811061318757613187615787565b9050604002016020013561437c565b806131a0816157c6565b915050613118565b5060405181815233907f6f8b319642e67cd1f14d773b5289e2e9bc1afce60945a4705b94c4c2ce0d347e90602001611154565b60006131f8633f6e4bb160e21b610c2c6040850160208601614f76565b610b85826140dd565b90565b60006001600160e01b031982166314751dbf60e01b148061323557506001600160e01b031982166352d1902d60e01b145b80610b8557506301ffc9a760e01b6001600160e01b0319831614610b85565b60045460ff16156132775760405162461bcd60e51b8152600401610c9090615816565b83613281816138da565b6132bd5760405162461bcd60e51b815260206004820152600d60248201526c1058d8d95cdcc811195b9a5959609a1b6044820152606401610c90565b821561331d57604954600160a01b900460ff161561331d5760405162461bcd60e51b815260206004820152601960248201527f455243323050617573653a2043616c6c2052656a6563746564000000000000006044820152606401610c90565b811561334b5761332e604d85613724565b1561334b5760405162461bcd60e51b8152600401610c90906157df565b5050505050565b6001600160a01b0383166133a05760405162461bcd60e51b8152602060048201526015602482015274496e76616c6964204f776e6572204164647265737360581b6044820152606401610c90565b6001600160a01b0382166133f65760405162461bcd60e51b815260206004820152601760248201527f496e76616c6964205370656e64657220416464726573730000000000000000006044820152606401610c90565b6001600160a01b038381166000818152604b602090815260408083209487168084529482529182902085905590518481527f8c5be1e5ebec7d5bd14f71427d1e84f3dd0314c0f7b2291e5b200ac8c7c3b92591015b60405180910390a3505050565b6000600080516020615eaa8339815191525b546001600160a01b0316919050565b60007fb53127684a568b3173ae13b9f8a6016e243e63b6e8ee1178d6a717850b5d610361346a565b6134af86868686868661451f565b505050505050565b6001546002546003546040516397ca328d60e01b8152600481019390935260248301919091526044820152600090819073__$02a10a5b613955ebe0b1689ca5d6d93e29$__906397ca328d90606401600060405180830381865af4158015613523573d6000803e3d6000fd5b505050506040513d6000823e601f3d908101601f1916820160405261354b9190810190615a8f565b6000546040516378efa4ed60e11b81529294509092506001600160a01b03169063f1df49da90613585908790879087908790600401615b74565b6020604051808303816000875af11580156135a4573d6000803e3d6000fd5b505050506040513d601f19601f820116820180604052508101906135c89190615912565b506135d1613458565b6001600160a01b031630336001600160a01b03167ff851a1e85477b818fc72ad517ea622cc316f10f67d61c9e740adc151a8b413948c8c8c8c8c61361860515461ffff1690565b60405161362a96959493929190615c80565b60405180910390a4505050505050505050565b60405163f7d6b5af60e01b8152604a600482015260248101829052600090819073__$02a10a5b613955ebe0b1689ca5d6d93e29$__9063f7d6b5af90604401602060405180830381865af4158015613699573d6000803e3d6000fd5b505050506040513d601f19601f820116820180604052508101906136bd9190615912565b336000818152604c602090815260408083208884528252918290206002015491518481529394506001600160a01b039091169286917f2a0eb8ca138e1b0c7a85d2f8f43d0f3fe72c27b59c53365fdce897e3e6f3271891015b60405180910390a492915050565b6001600160a01b0381166000908152600183016020526040812054151561118a565b6048546000903390158015906137625750613760336122b7565b155b15613777576137728585856142f5565b613782565b61378285858561437c565b61378d858285614284565b836001600160a01b0316856001600160a01b0316826001600160a01b03167f5f7542858008eeb041631f30e6109ae94b83a58e9a58261dd2c42c508850f939866040516137dc91815260200190565b60405180910390a4506001949350505050565b6001600160a01b039182166000908152604b6020908152604080832093909416825291909152205490565b60006001600160a01b0383166138425760405162461bcd60e51b8152600401610c909061584d565b816047600082825461385491906157b3565b90915550506001600160a01b0383166000908152604a6020526040812080548492906138819084906157b3565b90915550506047546040805184815260208101929092526001600160a01b0385169133917f2f00e3cdd69a77be7ed215ec7b2a36784dd158f921fca79ac29deffa353fe6ee910160405180910390a35060475492915050565b600080546001600160a01b031630036139c65760006363d59cf360e11b6139003061409e565b338560405160240161391493929190615cc5565b60408051601f198184030181529190526020810180516001600160e01b03166001600160e01b03199093169290921790915290506000613991613955613458565b836040518060400160405280601d81526020017f44656c656761746563616c6c20686173416363657373204661696c656400000081525061472a565b905080600182516139a291906158ba565b815181106139b2576139b2615787565b60209101015160f81c600114949350505050565b6000546001600160a01b031663c7ab39e66139e03061409e565b33856040518463ffffffff1660e01b8152600401613a0093929190615cc5565b602060405180830381865afa158015613a1d573d6000803e3d6000fd5b505050506040513d601f19601f82011682018060405250810190610b8591906158d8565b60006001600160a01b038316336001600160a01b03167f85766eb39b0ac39ad7e8afbf36233d9adb1af81136bbea1f94cacd4b2e272c6984604051613a8a911515815260200190565b60405180910390a3604051634572e0c160e01b8152604a60048201526001600160a01b0384166024820152821515604482015273__$02a10a5b613955ebe0b1689ca5d6d93e29$__90634572e0c190606401602060405180830381865af4158015613af9573d6000803e3d6000fd5b505050506040513d601f19601f8201168201806040525081019061118a91906158d8565b600080546001600160a01b03163003613be357600063e25d75f060e01b600354604051602401613b4f91815260200190565b60408051601f198184030181529190526020810180516001600160e01b03166001600160e01b03199093169290921790915290506000613baf613b90613458565b83604051806060016040528060258152602001615e856025913961472a565b90508060018251613bc091906158ba565b81518110613bd057613bd0615787565b60209101015160f81c6001149392505050565b600054600354604051630e25d75f60e41b81526001600160a01b039092169163e25d75f091613c189160040190815260200190565b602060405180830381865afa158015613c35573d6000803e3d6000fd5b505050506040513d601f19601f820116820180604052508101906111a091906158d8565b600061118a836001600160a01b0384166147f3565b60008073__$02a10a5b613955ebe0b1689ca5d6d93e29$__6310e1fc40604a856040518363ffffffff1660e01b8152600401613cab929190615cee565b602060405180830381865af4158015613cc8573d6000803e3d6000fd5b505050506040513d601f19601f82011682018060405250810190613cec9190615912565b9050613cfb6020840184614f76565b6001600160a01b031633827f8c6c9f95afe4c944c9f81d2965f0a9a0c021ce66ac4020dd8b25953a971f9148613d376040880160208901614f76565b604080516001600160a01b0390921682528089013560208301526060808a01359183019190915201613716565b613d6c613458565b6001600160a01b0316816001600160a01b031603613dcc5760405162461bcd60e51b815260206004820152601a60248201527f496c6c6567616c204e657720496d706c656d656e746174696f6e0000000000006044820152606401610c90565b613ddc637147855d60e01b6138da565b613e285760405162461bcd60e51b815260206004820152601960248201527f5570677261646520436f6e7465787420466f7262696464656e000000000000006044820152606401610c90565b50565b60607f4910fdfa16fed3260ed0e7147f7cc6da11a60208b5b9406d12a635614ffd91435460ff1615613e7557613e60846148e6565b5060408051600081526020810190915261118a565b836001600160a01b03166352d1902d6040518163ffffffff1660e01b8152600401602060405180830381865afa925050508015613ecf575060408051601f3d908101601f19168201909252613ecc91810190615912565b60015b613f135760405162461bcd60e51b8152602060048201526015602482015274125b1b1959d85b0815555414c810dbdb9d1c9858dd605a1b6044820152606401610c90565b600080516020615eaa8339815191528114613f685760405162461bcd60e51b8152602060048201526015602482015274125b9d985b1a590815555414c810dbdb9d1c9858dd605a1b6044820152606401610c90565b506040516301ffc9a760e01b81526314751dbf60e01b60048201526001600160a01b038516906301ffc9a790602401602060405180830381865afa925050508015613fd0575060408051601f3d908101601f19168201909252613fcd918101906158d8565b60015b61401c5760405162461bcd60e51b815260206004820152601760248201527f496c6c6567616c204950726f787920436f6e74726163740000000000000000006044820152606401610c90565b806140695760405162461bcd60e51b815260206004820152601760248201527f496e76616c6964204950726f787920436f6e74726163740000000000000000006044820152606401610c90565b50614075848484614967565b905061118a565b600061118a836001600160a01b0384166149d1565b6060600061118a83614a20565b6040516bffffffffffffffffffffffff19606083901b166020820152600090603401604051602081830303815290604052805190602001209050919050565b600080600073__$02a10a5b613955ebe0b1689ca5d6d93e29$__63f1c3afef604a866040518363ffffffff1660e01b815260040161411c929190615d46565b6040805180830381865af4158015614138573d6000803e3d6000fd5b505050506040513d601f19601f8201168201806040525081019061415c9190615dcd565b90925090506141716040850160208601614f76565b6001600160a01b03163385357f571ab3cb94eb114c4b41e4f4bbbe9625a6c546920db08ddea52bd3ec7cb5858685856141ad60408b018b61562c565b6040516141bd9493929190615dfb565b60405180910390a49392505050565b6001600160a01b0381166000908152604a602052604090206002018054600181018255905b50919050565b600154600254604080517f8b73c3c69bb8fe3d512ecc4cf759cc79239f7b179b0ffacaa9a75d522b39400f60208201529081019290925260608201524660808201523060a082015260009060c00160405160208183030381529060405280519060200120905090565b600080600061426f8585614a7c565b9150915061427c81614aea565b509392505050565b600061429084846137ef565b9050818110156142e25760405162461bcd60e51b815260206004820152601e60248201527f496e73756666696369656e74204163636f756e7420416c6c6f77616e636500006044820152606401610c90565b6142ef8484848403613352565b50505050565b600061430c60485483614ca090919063ffffffff16565b9050600061435a826040518060400160405280601c81526020017f496e73756666696369656e74205472616e7366657220416d6f756e740000000081525085614cb89092919063ffffffff16565b6049549091506143759086906001600160a01b03168461437c565b61334b8585835b604051633de90db360e01b8152604a60048201526001600160a01b038085166024830152831660448201526064810182905273__$02a10a5b613955ebe0b1689ca5d6d93e29$__90633de90db39060840160006040518083038186803b1580156143e557600080fd5b505af41580156143f9573d6000803e3d6000fd5b50505050816001600160a01b0316836001600160a01b03167fddf252ad1be2c89b69c2b068fc378daa952ba7f163c4a11628f55a4df523b3ef8360405161344b91815260200190565b7fb53127684a568b3173ae13b9f8a6016e243e63b6e8ee1178d6a717850b5d610380546001600160a01b0383166001600160a01b031990911681179091556040805191825251309133917f54ab0d18de7958786ba1ad85966d59baa2b395455f0530dcdcfd732e6af539e29181900360200190a350565b6001600160a01b0381166000908152604a602052604090205415613e285760405162461bcd60e51b815260206004820152601b60248201527f4173736574496420416c726561647920446973747269627574656400000000006044820152606401610c90565b60515462010000900460ff166145775760405162461bcd60e51b815260206004820152601960248201527f436f6e7472616374204e6f7420496e697469616c697a696e67000000000000006044820152606401610c90565b858560405160200161458a929190615672565b60408051601f198184030181529082905280516020918201206001556145b4918691869101615672565b60408051601f19818403018152919052805160209091012060025560038290556001600160a01b0381166145f957600080546001600160a01b03191630179055614716565b6040516301ffc9a760e01b81526314b8343560e31b60048201526001600160a01b038216906301ffc9a790602401602060405180830381865afa925050508015614660575060408051601f3d908101601f1916820190925261465d918101906158d8565b60015b6146ac5760405162461bcd60e51b815260206004820152601c60248201527f496c6c6567616c20416363657373436f6e74726f6c4d616e61676572000000006044820152606401610c90565b806146f95760405162461bcd60e51b815260206004820152601c60248201527f496e76616c696420416363657373436f6e74726f6c4d616e61676572000000006044820152606401610c90565b50600080546001600160a01b0319166001600160a01b0383161790555b6004805461ffff191690556134af33614442565b60606001600160a01b0384163b61477e5760405162461bcd60e51b8152602060048201526018602482015277496c6c6567616c20436f6e7472616374204164647265737360401b6044820152606401610c90565b600080856001600160a01b0316856040516147999190615e23565b600060405180830381855af49150503d80600081146147d4576040519150601f19603f3d011682016040523d82523d6000602084013e6147d9565b606091505b50915091506147e9828286614ce4565b9695505050505050565b600081815260018301602052604081205480156148dc5760006148176001836158ba565b855490915060009061482b906001906158ba565b905081811461489057600086600001828154811061484b5761484b615787565b906000526020600020015490508087600001848154811061486e5761486e615787565b6000918252602080832090910192909255918252600188019052604090208390555b85548690806148a1576148a1615e35565b600190038181906000526020600020016000905590558560010160008681526020019081526020016000206000905560019350505050610b85565b6000915050610b85565b6001600160a01b0381163b6149385760405162461bcd60e51b8152602060048201526018602482015277496c6c6567616c20436f6e7472616374204164647265737360401b6044820152606401610c90565b600080516020615eaa83398151915280546001600160a01b0319166001600160a01b0392909216919091179055565b606061497284614d1d565b60008351118061497f5750815b156149ba5761407584846040518060400160405280601381526020017211195b1959d85d1958d85b1b0811985a5b1959606a1b81525061472a565b505060408051600081526020810190915292915050565b6000818152600183016020526040812054614a1857508154600181810184556000848152602080822090930184905584548482528286019093526040902091909155610b85565b506000610b85565b606081600001805480602002602001604051908101604052809291908181526020018280548015614a7057602002820191906000526020600020905b815481526020019060010190808311614a5c575b50505050509050919050565b6000808251604103614ab25760208301516040840151606085015160001a614aa687828585614d61565b94509450505050614ae3565b8251604003614adb5760208301516040840151614ad0868383614e4e565b935093505050614ae3565b506000905060025b9250929050565b6000816004811115614afe57614afe615884565b03614b065750565b6001816004811115614b1a57614b1a615884565b03614b675760405162461bcd60e51b815260206004820152601860248201527f45434453413a20696e76616c6964207369676e617475726500000000000000006044820152606401610c90565b6002816004811115614b7b57614b7b615884565b03614bc85760405162461bcd60e51b815260206004820152601f60248201527f45434453413a20696e76616c6964207369676e6174757265206c656e677468006044820152606401610c90565b6003816004811115614bdc57614bdc615884565b03614c345760405162461bcd60e51b815260206004820152602260248201527f45434453413a20696e76616c6964207369676e6174757265202773272076616c604482015261756560f01b6064820152608401610c90565b6004816004811115614c4857614c48615884565b03613e285760405162461bcd60e51b815260206004820152602260248201527f45434453413a20696e76616c6964207369676e6174757265202776272076616c604482015261756560f01b6064820152608401610c90565b600061118a612710614cb28585614e87565b90614e93565b60008184841115614cdc5760405162461bcd60e51b8152600401610c909190614f22565b505050900390565b60608315614cf357508161118a565b825115614d035782518084602001fd5b8160405162461bcd60e51b8152600401610c909190614f22565b614d26816148e6565b6040516001600160a01b03821690309033907f354bd4b6eb65d64e6c79c53fa4f983a5e6bec4824ce4627c71be0b2722f4917e90600090a450565b6000807f7fffffffffffffffffffffffffffffff5d576e7357a4501ddfe92f46681b20a0831115614d985750600090506003614e45565b8460ff16601b14158015614db057508460ff16601c14155b15614dc15750600090506004614e45565b6040805160008082526020820180845289905260ff881692820192909252606081018690526080810185905260019060a0016020604051602081039080840390855afa158015614e15573d6000803e3d6000fd5b5050604051601f1901519150506001600160a01b038116614e3e57600060019250925050614e45565b9150600090505b94509492505050565b6000806001600160ff1b03831681614e6b60ff86901c601b6157b3565b9050614e7987828885614d61565b935093505050935093915050565b600061118a8284615e4b565b600061118a8284615e62565b6001600160e01b031981168114613e2857600080fd5b600060208284031215614ec757600080fd5b813561118a81614e9f565b60005b83811015614eed578181015183820152602001614ed5565b50506000910152565b60008151808452614f0e816020860160208601614ed2565b601f01601f19169290920160200192915050565b60208152600061118a6020830184614ef6565b6001600160a01b0381168114613e2857600080fd5b60008060408385031215614f5d57600080fd5b8235614f6881614f35565b946020939093013593505050565b600060208284031215614f8857600080fd5b813561118a81614f35565b600060208284031215614fa557600080fd5b81356001600160401b03811115614fbb57600080fd5b820160c0818503121561118a57600080fd5b60008083601f840112614fdf57600080fd5b5081356001600160401b03811115614ff657600080fd5b6020830191508360208260051b8501011115614ae357600080fd5b6000806020838503121561502457600080fd5b82356001600160401b0381111561503a57600080fd5b61504685828601614fcd565b90969095509350505050565b60006020828403121561506457600080fd5b5035919050565b6000806020838503121561507e57600080fd5b82356001600160401b038082111561509557600080fd5b818501915085601f8301126150a957600080fd5b8135818111156150b857600080fd5b8660206060830285010111156150cd57600080fd5b60209290920196919550909350505050565b6000806000606084860312156150f457600080fd5b83356150ff81614f35565b9250602084013561510f81614f35565b929592945050506040919091013590565b8015158114613e2857600080fd5b803561140281615120565b60006020828403121561514b57600080fd5b813561118a81615120565b6000806040838503121561516957600080fd5b823561517481614f35565b9150602083013561518481615120565b809150509250929050565b6000608082840312156141f157600080fd5b634e487b7160e01b600052604160045260246000fd5b604051606081016001600160401b03811182821017156151d9576151d96151a1565b60405290565b604051601f8201601f191681016001600160401b0381118282101715615207576152076151a1565b604052919050565b60008060006060848603121561522457600080fd5b833561522f81614f35565b92506020848101356001600160401b038082111561524c57600080fd5b818701915087601f83011261526057600080fd5b813581811115615272576152726151a1565b615284601f8201601f191685016151df565b9150808252888482850101111561529a57600080fd5b80848401858401376000848284010152508094505050506152bd6040850161512e565b90509250925092565b6020808252825182820181905260009190848201906040850190845b818110156153075783516001600160a01b0316835292840192918401916001016152e2565b50909695505050505050565b60008083601f84011261532557600080fd5b5081356001600160401b0381111561533c57600080fd5b6020830191508360208260061b8501011115614ae357600080fd5b6000806020838503121561536a57600080fd5b82356001600160401b0381111561538057600080fd5b61504685828601615313565b6000806040838503121561539f57600080fd5b82359150602083013561518481614f35565b600080602083850312156153c457600080fd5b82356001600160401b03808211156153db57600080fd5b818501915085601f8301126153ef57600080fd5b8135818111156153fe57600080fd5b8660208260071b85010111156150cd57600080fd5b6020808252825182820181905260009190848201906040850190845b818110156153075783518352928401929184019160010161542f565b60008060008060008060a0878903121561546457600080fd5b863561546f81614f35565b9550602087013561547f81614f35565b9450604087013593506060870135925060808701356001600160401b03808211156154a957600080fd5b818901915089601f8301126154bd57600080fd5b8135818111156154cc57600080fd5b8a60208285010111156154de57600080fd5b6020830194508093505050509295509295509295565b6000806040838503121561550757600080fd5b823561551281614f35565b9150602083013561518481614f35565b60008061010080848603121561553757600080fd5b833561554281614f35565b925083810185101561555357600080fd5b506020830190509250929050565b60006020828403121561557357600080fd5b81356001600160401b0381111561558957600080fd5b82016060818503121561118a57600080fd5b600181811c908216806155af57607f821691505b6020821081036141f157634e487b7160e01b600052602260045260246000fd5b602080825260159082015274125b1b1959d85b0810dbdb9d1c9858dd0810d85b1b605a1b604082015260600190565b602080825260149082015273141c9bde1e4810d85b1b195908125b9d985b1a5960621b604082015260600190565b6000808335601e1984360301811261564357600080fd5b8301803591506001600160401b0382111561565d57600080fd5b602001915036819003821315614ae357600080fd5b8183823760009101908152919050565b601f821115611b8757600081815260208120601f850160051c810160208610156156a95750805b601f850160051c820191505b818110156134af578281556001016156b5565b81516001600160401b038111156156e1576156e16151a1565b6156f5816156ef845461559b565b84615682565b602080601f83116001811461572a57600084156157125750858301515b600019600386901b1c1916600185901b1785556134af565b600085815260208120601f198616915b828110156157595788860151825594840194600190910190840161573a565b50858210156157775787850151600019600388901b60f8161c191681555b5050505050600190811b01905550565b634e487b7160e01b600052603260045260246000fd5b634e487b7160e01b600052601160045260246000fd5b80820180821115610b8557610b8561579d565b6000600182016157d8576157d861579d565b5060010190565b6020808252601d908201527f455243323050617573653a204163636f756e742053757370656e646564000000604082015260600190565b60208082526017908201527f536166654d6f64653a2043616c6c2052656a6563746564000000000000000000604082015260600190565b60208082526017908201527f496e76616c6964204163636f756e742041646472657373000000000000000000604082015260600190565b634e487b7160e01b600052602160045260246000fd5b60008235605e198336030181126158b057600080fd5b9190910192915050565b81810381811115610b8557610b8561579d565b805161140281615120565b6000602082840312156158ea57600080fd5b815161118a81615120565b60006020828403121561590757600080fd5b815161118a81614f35565b60006020828403121561592457600080fd5b5051919050565b60006001600160401b03821115615944576159446151a1565b5060051b60200190565b600082601f83011261595f57600080fd5b8151602061597461596f8361592b565b6151df565b82815260059290921b8401810191818101908684111561599357600080fd5b8286015b84811015615a845780516001600160401b03808211156159b75760008081fd5b908801906060828b03601f19018113156159d15760008081fd5b6159d96151b7565b878401518152604080850151848111156159f35760008081fd5b85019350603f84018d13615a075760008081fd5b88840151615a1761596f8261592b565b81815260059190911b85018201908a8101908f831115615a375760008081fd5b958301955b82871015615a5e578651615a4f81614e9f565b8252958b0195908b0190615a3c565b848c015250615a7090508584016158cd565b908201528652505050918301918301615997565b509695505050505050565b60008082840360c0811215615aa357600080fd5b60a0811215615ab157600080fd5b5060405160a081016001600160401b038282108183111715615ad557615ad56151a1565b8160405285518352602086015160208401526040860151604084015260608601519150615b0182614f35565b81606084015260808601519150615b1782615120565b6080830182905260a086015192945080831115615b3357600080fd5b5050615b418582860161594e565b9150509250929050565b81835281816020850137506000828201602090810191909152601f909101601f19169091010190565b60e081526000615b8860e083018688615b4b565b6020855181850152808601516040818187015280880151915060608281880152808901519250608060018060a01b03841681890152808a0151151560a089015287860360c089015285935088518087528587019450858160051b880101868b016000805b84811015615c6b578a8403601f190189528251805185528a8101518b86018990528051898701819052908c01908490898801905b80831015615c4a5783516001600160e01b0319168252928e019260019290920191908e0190615c20565b50928b01511515968b019690965250988a0198935091890191600101615bec565b50919f9e505050505050505050505050505050565b608081526000615c9460808301888a615b4b565b8281036020840152615ca7818789615b4b565b91505083604083015261ffff83166060830152979650505050505050565b9283526001600160a01b039190911660208301526001600160e01b031916604082015260600190565b82815260a081018235615d0081614f35565b6001600160a01b0390811660208481019190915284013590615d2182614f35565b8082166040850152505060408301356060830152606083013560808301529392505050565b828152604060208201528135604082015260006020830135615d6781614f35565b6001600160a01b03166060830152604083013536849003601e19018112615d8d57600080fd5b83016020810190356001600160401b03811115615da957600080fd5b803603821315615db857600080fd5b606060808501526147e960a085018284615b4b565b60008060408385031215615de057600080fd5b8251615deb81614f35565b6020939093015192949293505050565b60018060a01b03851681528360208201526060604082015260006147e9606083018486615b4b565b600082516158b0818460208701614ed2565b634e487b7160e01b600052603160045260246000fd5b8082028115828204841417610b8557610b8561579d565b600082615e7f57634e487b7160e01b600052601260045260246000fd5b50049056fe44656c656761746563616c6c2069735265616c6d55706772616461626c65204661696c6564360894a13ba1a3210667c828492db98dca3e2076cc3735a920a3ca505d382bbca264697066735822122080e5131e607ac62cee2342fb35aa082bcf84ac8427a0c308d0f710d4a0d7c65b64736f6c63430008110033b53127684a568b3173ae13b9f8a6016e243e63b6e8ee1178d6a717850b5d6103",
  "linkReferences": {
    "src/contracts/lib/token/LTokenERC20.sol": {
      "LTokenERC20": [
        {
          "length": 20,
          "start": 2360
        },
        {
          "length": 20,
          "start": 13992
        },
        {
          "length": 20,
          "start": 14366
        },
        {
          "length": 20,
          "start": 15486
        },
        {
          "length": 20,
          "start": 15922
        },
        {
          "length": 20,
          "start": 17059
        },
        {
          "length": 20,
          "start": 17775
        }
      ]
    }
  },
  "deployedLinkReferences": {
    "src/contracts/lib/token/LTokenERC20.sol": {
      "LTokenERC20": [
        {
          "length": 20,
          "start": 1913
        },
        {
          "length": 20,
          "start": 13545
        },
        {
          "length": 20,
          "start": 13919
        },
        {
          "length": 20,
          "start": 15039
        },
        {
          "length": 20,
          "start": 15475
        },
        {
          "length": 20,
          "start": 16612
        },
        {
          "length": 20,
          "start": 17328
        }
      ]
    }
  },
  "devdoc": {
    "kind": "dev",
    "methods": {
      "proxiableUUID()": {
        "details": "Implementation of the ERC1822 {proxiableUUID} function. This returns the storage slot used by the implementation. It is used to validate that the this implementation remains valid after an upgrade. IMPORTANT: A proxy pointing at a proxiable contract should not be considered proxiable itself, because this risks bricking a proxy that upgrades to it, by delegating to itself until out of gas. Thus it is critical that this function revert if invoked through a proxy. This is guaranteed by the `notDelegated` modifier."
      },
      "supportsInterface(bytes4)": {
        "details": "See {IERC165-supportsInterface}."
      }
    },
    "version": 1
  },
  "evm": {
    "bytecode": {
      "linkReferences": {
        "src/contracts/lib/token/LTokenERC20.sol": {
          "LTokenERC20": [
            {
              "length": 20,
              "start": 2360
            },
            {
              "length": 20,
              "start": 13992
            },
            {
              "length": 20,
              "start": 14366
            },
            {
              "length": 20,
              "start": 15486
            },
            {
              "length": 20,
              "start": 15922
            },
            {
              "length": 20,
              "start": 17059
            },
            {
              "length": 20,
              "start": 17775
            }
          ]
        }
      },
      "opcodes": "PUSH1 0xA0 PUSH1 0x40 MSTORE ADDRESS PUSH1 0x80 MSTORE CALLVALUE DUP1 ISZERO PUSH3 0x15 JUMPI PUSH1 0x0 DUP1 REVERT JUMPDEST POP PUSH3 0x43 PUSH1 0x1 PUSH32 0x360894A13BA1A3210667C828492DB98DCA3E2076CC3735A920A3CA505D382BBD PUSH3 0x11F JUMP JUMPDEST PUSH32 0x360894A13BA1A3210667C828492DB98DCA3E2076CC3735A920A3CA505D382BBC EQ PUSH3 0x74 JUMPI PUSH3 0x74 PUSH3 0x147 JUMP JUMPDEST PUSH3 0xA1 PUSH1 0x1 PUSH32 0xB53127684A568B3173AE13B9F8A6016E243E63B6E8EE1178D6A717850B5D6104 PUSH3 0x11F JUMP JUMPDEST PUSH1 0x0 DUP1 MLOAD PUSH1 0x20 PUSH3 0x60BE DUP4 CODECOPY DUP2 MLOAD SWAP2 MSTORE EQ PUSH3 0xC1 JUMPI PUSH3 0xC1 PUSH3 0x147 JUMP JUMPDEST CALLER PUSH3 0xEA PUSH1 0x0 DUP1 MLOAD PUSH1 0x20 PUSH3 0x60BE DUP4 CODECOPY DUP2 MLOAD SWAP2 MSTORE PUSH1 0x0 SHL PUSH3 0x11C PUSH1 0x20 SHL PUSH3 0x3201 OR PUSH1 0x20 SHR JUMP JUMPDEST DUP1 SLOAD PUSH1 0x1 PUSH1 0x1 PUSH1 0xA0 SHL SUB NOT AND PUSH1 0x1 PUSH1 0x1 PUSH1 0xA0 SHL SUB SWAP3 SWAP1 SWAP3 AND SWAP2 SWAP1 SWAP2 OR SWAP1 SSTORE PUSH1 0x4 DUP1 SLOAD PUSH2 0xFFFF NOT AND PUSH1 0x1 OR SWAP1 SSTORE PUSH3 0x15D JUMP JUMPDEST SWAP1 JUMP JUMPDEST DUP2 DUP2 SUB DUP2 DUP2 GT ISZERO PUSH3 0x141 JUMPI PUSH4 0x4E487B71 PUSH1 0xE0 SHL PUSH1 0x0 MSTORE PUSH1 0x11 PUSH1 0x4 MSTORE PUSH1 0x24 PUSH1 0x0 REVERT JUMPDEST SWAP3 SWAP2 POP POP JUMP JUMPDEST PUSH4 0x4E487B71 PUSH1 0xE0 SHL PUSH1 0x0 MSTORE PUSH1 0x1 PUSH1 0x4 MSTORE PUSH1 0x24 PUSH1 0x0 REVERT JUMPDEST PUSH1 0x80 MLOAD PUSH2 0x5EFF PUSH3 0x1BF PUSH1 0x0 CODECOPY PUSH1 0x0 DUP2 DUP2 PUSH2 0xC52 ADD MSTORE DUP2 DUP2 PUSH2 0xC9B ADD MSTORE DUP2 DUP2 PUSH2 0x125E ADD MSTORE DUP2 DUP2 PUSH2 0x129E ADD MSTORE DUP2 DUP2 PUSH2 0x1432 ADD MSTORE DUP2 DUP2 PUSH2 0x1472 ADD MSTORE DUP2 DUP2 PUSH2 0x1626 ADD MSTORE DUP2 DUP2 PUSH2 0x184F ADD MSTORE DUP2 DUP2 PUSH2 0x188F ADD MSTORE DUP2 DUP2 PUSH2 0x22ED ADD MSTORE PUSH2 0x232D ADD MSTORE PUSH2 0x5EFF PUSH1 0x0 RETURN INVALID PUSH1 0x80 PUSH1 0x40 MSTORE PUSH1 0x4 CALLDATASIZE LT PUSH2 0x36B JUMPI PUSH1 0x0 CALLDATALOAD PUSH1 0xE0 SHR DUP1 PUSH4 0x7678922E GT PUSH2 0x1C4 JUMPI DUP1 PUSH4 0xA0E6ADF1 GT PUSH2 0xF6 JUMPI DUP1 PUSH4 0xD9DC1F19 GT PUSH2 0x9A JUMPI DUP1 PUSH4 0xF698DA25 GT PUSH2 0x6C JUMPI DUP1 PUSH4 0xF698DA25 EQ PUSH2 0xAA6 JUMPI DUP1 PUSH4 0xF94A0ADB EQ PUSH2 0xABB JUMPI DUP1 PUSH4 0xFAA552A8 EQ PUSH2 0xAD0 JUMPI DUP1 PUSH4 0xFDB92EC4 EQ PUSH2 0xAF0 JUMPI STOP JUMPDEST DUP1 PUSH4 0xD9DC1F19 EQ PUSH2 0xA31 JUMPI DUP1 PUSH4 0xDD62ED3E EQ PUSH2 0xA51 JUMPI DUP1 PUSH4 0xDE843A94 EQ PUSH2 0xA71 JUMPI DUP1 PUSH4 0xEC4AC1F7 EQ PUSH2 0xA86 JUMPI STOP JUMPDEST DUP1 PUSH4 0xA9059CBB GT PUSH2 0xD3 JUMPI DUP1 PUSH4 0xA9059CBB EQ PUSH2 0x9C6 JUMPI DUP1 PUSH4 0xB4A0BDF3 EQ PUSH2 0x9E6 JUMPI DUP1 PUSH4 0xBE22465D EQ PUSH2 0xA04 JUMPI DUP1 PUSH4 0xD3E024B8 EQ PUSH2 0xA1C JUMPI STOP JUMPDEST DUP1 PUSH4 0xA0E6ADF1 EQ PUSH2 0x967 JUMPI DUP1 PUSH4 0xA457C2D7 EQ PUSH2 0x986 JUMPI DUP1 PUSH4 0xA5BFA9A9 EQ PUSH2 0x9A6 JUMPI STOP JUMPDEST DUP1 PUSH4 0x8A92AB15 GT PUSH2 0x168 JUMPI DUP1 PUSH4 0x9B5F356E GT PUSH2 0x13A JUMPI DUP1 PUSH4 0x9B5F356E EQ PUSH2 0x8F2 JUMPI DUP1 PUSH4 0x9DC29FAC EQ PUSH2 0x912 JUMPI DUP1 PUSH4 0x9FD5A6CF EQ PUSH2 0x932 JUMPI DUP1 PUSH4 0xA0A8E460 EQ PUSH2 0x952 JUMPI STOP JUMPDEST DUP1 PUSH4 0x8A92AB15 EQ PUSH2 0x832 JUMPI DUP1 PUSH4 0x8BFC07ED EQ PUSH2 0x850 JUMPI DUP1 PUSH4 0x95D89B41 EQ PUSH2 0x8B0 JUMPI DUP1 PUSH4 0x9A7E1873 EQ PUSH2 0x8C5 JUMPI STOP JUMPDEST DUP1 PUSH4 0x7BF60FF4 GT PUSH2 0x1A1 JUMPI DUP1 PUSH4 0x7BF60FF4 EQ PUSH2 0x7C6 JUMPI DUP1 PUSH4 0x7D35F355 EQ PUSH2 0x7E8 JUMPI DUP1 PUSH4 0x870666CB EQ PUSH2 0x808 JUMPI DUP1 PUSH4 0x8A2DDD03 EQ PUSH2 0x81D JUMPI STOP JUMPDEST DUP1 PUSH4 0x7678922E EQ PUSH2 0x76A JUMPI DUP1 PUSH4 0x76A67A51 EQ PUSH2 0x791 JUMPI DUP1 PUSH4 0x771A3A1D EQ PUSH2 0x7B1 JUMPI STOP JUMPDEST DUP1 PUSH4 0x46A634D4 GT PUSH2 0x29D JUMPI DUP1 PUSH4 0x595C6A67 GT PUSH2 0x241 JUMPI DUP1 PUSH4 0x70AE92D2 GT PUSH2 0x213 JUMPI DUP1 PUSH4 0x70AE92D2 EQ PUSH2 0x6F5 JUMPI DUP1 PUSH4 0x7147855D EQ PUSH2 0x715 JUMPI DUP1 PUSH4 0x756AF45F EQ PUSH2 0x735 JUMPI DUP1 PUSH4 0x75D0C0DC EQ PUSH2 0x755 JUMPI STOP JUMPDEST DUP1 PUSH4 0x595C6A67 EQ PUSH2 0x66A JUMPI DUP1 PUSH4 0x5B14F183 EQ PUSH2 0x67F JUMPI DUP1 PUSH4 0x6B839492 EQ PUSH2 0x69F JUMPI DUP1 PUSH4 0x70A08231 EQ PUSH2 0x6BF JUMPI STOP JUMPDEST DUP1 PUSH4 0x52D1902D GT PUSH2 0x27A JUMPI DUP1 PUSH4 0x52D1902D EQ PUSH2 0x5EB JUMPI DUP1 PUSH4 0x5479D940 EQ PUSH2 0x600 JUMPI DUP1 PUSH4 0x57B001F9 EQ PUSH2 0x61D JUMPI DUP1 PUSH4 0x58DBC45D EQ PUSH2 0x63D JUMPI STOP JUMPDEST DUP1 PUSH4 0x46A634D4 EQ PUSH2 0x58B JUMPI DUP1 PUSH4 0x48E6BE1C EQ PUSH2 0x5AB JUMPI DUP1 PUSH4 0x4B0EE02A EQ PUSH2 0x5CB JUMPI STOP JUMPDEST DUP1 PUSH4 0x18160DDD GT PUSH2 0x30F JUMPI DUP1 PUSH4 0x38D38C97 GT PUSH2 0x2E1 JUMPI DUP1 PUSH4 0x38D38C97 EQ PUSH2 0x503 JUMPI DUP1 PUSH4 0x39509351 EQ PUSH2 0x52B JUMPI DUP1 PUSH4 0x40C10F19 EQ PUSH2 0x54B JUMPI DUP1 PUSH4 0x44B7E5F2 EQ PUSH2 0x56B JUMPI STOP JUMPDEST DUP1 PUSH4 0x18160DDD EQ PUSH2 0x492 JUMPI DUP1 PUSH4 0x1C6928E8 EQ PUSH2 0x4A7 JUMPI DUP1 PUSH4 0x23B872DD EQ PUSH2 0x4C7 JUMPI DUP1 PUSH4 0x313CE567 EQ PUSH2 0x4E7 JUMPI STOP JUMPDEST DUP1 PUSH4 0x10E776ED GT PUSH2 0x348 JUMPI DUP1 PUSH4 0x10E776ED EQ PUSH2 0x3EB JUMPI DUP1 PUSH4 0x1408A7F4 EQ PUSH2 0x432 JUMPI DUP1 PUSH4 0x1455A1C8 EQ PUSH2 0x452 JUMPI DUP1 PUSH4 0x17FDCC8E EQ PUSH2 0x472 JUMPI STOP JUMPDEST DUP1 PUSH4 0x1FFC9A7 EQ PUSH2 0x374 JUMPI DUP1 PUSH4 0x6FDDE03 EQ PUSH2 0x3A9 JUMPI DUP1 PUSH4 0x95EA7B3 EQ PUSH2 0x3CB JUMPI STOP JUMPDEST CALLDATASIZE PUSH2 0x372 JUMPI STOP JUMPDEST STOP JUMPDEST CALLVALUE DUP1 ISZERO PUSH2 0x380 JUMPI PUSH1 0x0 DUP1 REVERT JUMPDEST POP PUSH2 0x394 PUSH2 0x38F CALLDATASIZE PUSH1 0x4 PUSH2 0x4EB5 JUMP JUMPDEST PUSH2 0xB10 JUMP JUMPDEST PUSH1 0x40 MLOAD SWAP1 ISZERO ISZERO DUP2 MSTORE PUSH1 0x20 ADD JUMPDEST PUSH1 0x40 MLOAD DUP1 SWAP2 SUB SWAP1 RETURN JUMPDEST CALLVALUE DUP1 ISZERO PUSH2 0x3B5 JUMPI PUSH1 0x0 DUP1 REVERT JUMPDEST POP PUSH2 0x3BE PUSH2 0xB8B JUMP JUMPDEST PUSH1 0x40 MLOAD PUSH2 0x3A0 SWAP2 SWAP1 PUSH2 0x4F22 JUMP JUMPDEST CALLVALUE DUP1 ISZERO PUSH2 0x3D7 JUMPI PUSH1 0x0 DUP1 REVERT JUMPDEST POP PUSH2 0x394 PUSH2 0x3E6 CALLDATASIZE PUSH1 0x4 PUSH2 0x4F4A JUMP JUMPDEST PUSH2 0xC1D JUMP JUMPDEST CALLVALUE DUP1 ISZERO PUSH2 0x3F7 JUMPI PUSH1 0x0 DUP1 REVERT JUMPDEST POP PUSH2 0x424 PUSH2 0x406 CALLDATASIZE PUSH1 0x4 PUSH2 0x4F76 JUMP JUMPDEST PUSH1 0x1 PUSH1 0x1 PUSH1 0xA0 SHL SUB AND PUSH1 0x0 SWAP1 DUP2 MSTORE PUSH1 0x4A PUSH1 0x20 MSTORE PUSH1 0x40 SWAP1 KECCAK256 PUSH1 0x1 ADD SLOAD SWAP1 JUMP JUMPDEST PUSH1 0x40 MLOAD SWAP1 DUP2 MSTORE PUSH1 0x20 ADD PUSH2 0x3A0 JUMP JUMPDEST CALLVALUE DUP1 ISZERO PUSH2 0x43E JUMPI PUSH1 0x0 DUP1 REVERT JUMPDEST POP PUSH2 0x372 PUSH2 0x44D CALLDATASIZE PUSH1 0x4 PUSH2 0x4F93 JUMP JUMPDEST PUSH2 0xC48 JUMP JUMPDEST CALLVALUE DUP1 ISZERO PUSH2 0x45E JUMPI PUSH1 0x0 DUP1 REVERT JUMPDEST POP PUSH2 0x424 PUSH2 0x46D CALLDATASIZE PUSH1 0x4 PUSH2 0x5011 JUMP JUMPDEST PUSH2 0xF0E JUMP JUMPDEST CALLVALUE DUP1 ISZERO PUSH2 0x47E JUMPI PUSH1 0x0 DUP1 REVERT JUMPDEST POP PUSH2 0x394 PUSH2 0x48D CALLDATASIZE PUSH1 0x4 PUSH2 0x5052 JUMP JUMPDEST PUSH2 0xFAA JUMP JUMPDEST CALLVALUE DUP1 ISZERO PUSH2 0x49E JUMPI PUSH1 0x0 DUP1 REVERT JUMPDEST POP PUSH1 0x47 SLOAD PUSH2 0x424 JUMP JUMPDEST CALLVALUE DUP1 ISZERO PUSH2 0x4B3 JUMPI PUSH1 0x0 DUP1 REVERT JUMPDEST POP PUSH2 0x394 PUSH2 0x4C2 CALLDATASIZE PUSH1 0x4 PUSH2 0x506B JUMP JUMPDEST PUSH2 0x1001 JUMP JUMPDEST CALLVALUE DUP1 ISZERO PUSH2 0x4D3 JUMPI PUSH1 0x0 DUP1 REVERT JUMPDEST POP PUSH2 0x394 PUSH2 0x4E2 CALLDATASIZE PUSH1 0x4 PUSH2 0x50DF JUMP JUMPDEST PUSH2 0x1166 JUMP JUMPDEST CALLVALUE DUP1 ISZERO PUSH2 0x4F3 JUMPI PUSH1 0x0 DUP1 REVERT JUMPDEST POP PUSH1 0x40 MLOAD PUSH1 0x12 DUP2 MSTORE PUSH1 0x20 ADD PUSH2 0x3A0 JUMP JUMPDEST CALLVALUE DUP1 ISZERO PUSH2 0x50F JUMPI PUSH1 0x0 DUP1 REVERT JUMPDEST POP PUSH2 0x518 PUSH2 0x1191 JUMP JUMPDEST PUSH1 0x40 MLOAD PUSH2 0xFFFF SWAP1 SWAP2 AND DUP2 MSTORE PUSH1 0x20 ADD PUSH2 0x3A0 JUMP JUMPDEST CALLVALUE DUP1 ISZERO PUSH2 0x537 JUMPI PUSH1 0x0 DUP1 REVERT JUMPDEST POP PUSH2 0x424 PUSH2 0x546 CALLDATASIZE PUSH1 0x4 PUSH2 0x4F4A JUMP JUMPDEST PUSH2 0x11A5 JUMP JUMPDEST CALLVALUE DUP1 ISZERO PUSH2 0x557 JUMPI PUSH1 0x0 DUP1 REVERT JUMPDEST POP PUSH2 0x424 PUSH2 0x566 CALLDATASIZE PUSH1 0x4 PUSH2 0x4F4A JUMP JUMPDEST PUSH2 0x1232 JUMP JUMPDEST CALLVALUE DUP1 ISZERO PUSH2 0x577 JUMPI PUSH1 0x0 DUP1 REVERT JUMPDEST POP PUSH2 0x394 PUSH2 0x586 CALLDATASIZE PUSH1 0x4 PUSH2 0x5139 JUMP JUMPDEST PUSH2 0x1252 JUMP JUMPDEST CALLVALUE DUP1 ISZERO PUSH2 0x597 JUMPI PUSH1 0x0 DUP1 REVERT JUMPDEST POP PUSH2 0x394 PUSH2 0x5A6 CALLDATASIZE PUSH1 0x4 PUSH2 0x5156 JUMP JUMPDEST PUSH2 0x1407 JUMP JUMPDEST CALLVALUE DUP1 ISZERO PUSH2 0x5B7 JUMPI PUSH1 0x0 DUP1 REVERT JUMPDEST POP PUSH2 0x394 PUSH2 0x5C6 CALLDATASIZE PUSH1 0x4 PUSH2 0x5139 JUMP JUMPDEST PUSH2 0x1426 JUMP JUMPDEST CALLVALUE DUP1 ISZERO PUSH2 0x5D7 JUMPI PUSH1 0x0 DUP1 REVERT JUMPDEST POP PUSH2 0x424 PUSH2 0x5E6 CALLDATASIZE PUSH1 0x4 PUSH2 0x4F76 JUMP JUMPDEST PUSH2 0x15EF JUMP JUMPDEST CALLVALUE DUP1 ISZERO PUSH2 0x5F7 JUMPI PUSH1 0x0 DUP1 REVERT JUMPDEST POP PUSH2 0x424 PUSH2 0x1619 JUMP JUMPDEST CALLVALUE DUP1 ISZERO PUSH2 0x60C JUMPI PUSH1 0x0 DUP1 REVERT JUMPDEST POP PUSH1 0x4 SLOAD PUSH2 0x100 SWAP1 DIV PUSH1 0xFF AND PUSH2 0x394 JUMP JUMPDEST CALLVALUE DUP1 ISZERO PUSH2 0x629 JUMPI PUSH1 0x0 DUP1 REVERT JUMPDEST POP PUSH2 0x372 PUSH2 0x638 CALLDATASIZE PUSH1 0x4 PUSH2 0x4F76 JUMP JUMPDEST PUSH2 0x16A6 JUMP JUMPDEST CALLVALUE DUP1 ISZERO PUSH2 0x649 JUMPI PUSH1 0x0 DUP1 REVERT JUMPDEST POP PUSH2 0x652 PUSH2 0x1770 JUMP JUMPDEST PUSH1 0x40 MLOAD PUSH1 0x1 PUSH1 0x1 PUSH1 0xA0 SHL SUB SWAP1 SWAP2 AND DUP2 MSTORE PUSH1 0x20 ADD PUSH2 0x3A0 JUMP JUMPDEST CALLVALUE DUP1 ISZERO PUSH2 0x676 JUMPI PUSH1 0x0 DUP1 REVERT JUMPDEST POP PUSH2 0x372 PUSH2 0x177A JUMP JUMPDEST CALLVALUE DUP1 ISZERO PUSH2 0x68B JUMPI PUSH1 0x0 DUP1 REVERT JUMPDEST POP PUSH2 0x394 PUSH2 0x69A CALLDATASIZE PUSH1 0x4 PUSH2 0x4F76 JUMP JUMPDEST PUSH2 0x17DF JUMP JUMPDEST CALLVALUE DUP1 ISZERO PUSH2 0x6AB JUMPI PUSH1 0x0 DUP1 REVERT JUMPDEST POP PUSH2 0x424 PUSH2 0x6BA CALLDATASIZE PUSH1 0x4 PUSH2 0x518F JUMP JUMPDEST PUSH2 0x17FF JUMP JUMPDEST CALLVALUE DUP1 ISZERO PUSH2 0x6CB JUMPI PUSH1 0x0 DUP1 REVERT JUMPDEST POP PUSH2 0x424 PUSH2 0x6DA CALLDATASIZE PUSH1 0x4 PUSH2 0x4F76 JUMP JUMPDEST PUSH1 0x1 PUSH1 0x1 PUSH1 0xA0 SHL SUB AND PUSH1 0x0 SWAP1 DUP2 MSTORE PUSH1 0x4A PUSH1 0x20 MSTORE PUSH1 0x40 SWAP1 KECCAK256 SLOAD SWAP1 JUMP JUMPDEST CALLVALUE DUP1 ISZERO PUSH2 0x701 JUMPI PUSH1 0x0 DUP1 REVERT JUMPDEST POP PUSH2 0x424 PUSH2 0x710 CALLDATASIZE PUSH1 0x4 PUSH2 0x4F76 JUMP JUMPDEST PUSH2 0x1822 JUMP JUMPDEST CALLVALUE DUP1 ISZERO PUSH2 0x721 JUMPI PUSH1 0x0 DUP1 REVERT JUMPDEST POP PUSH2 0x3BE PUSH2 0x730 CALLDATASIZE PUSH1 0x4 PUSH2 0x520F JUMP JUMPDEST PUSH2 0x1843 JUMP JUMPDEST CALLVALUE DUP1 ISZERO PUSH2 0x741 JUMPI PUSH1 0x0 DUP1 REVERT JUMPDEST POP PUSH2 0x372 PUSH2 0x750 CALLDATASIZE PUSH1 0x4 PUSH2 0x4F76 JUMP JUMPDEST PUSH2 0x196B JUMP JUMPDEST CALLVALUE DUP1 ISZERO PUSH2 0x761 JUMPI PUSH1 0x0 DUP1 REVERT JUMPDEST POP PUSH1 0x1 SLOAD PUSH2 0x424 JUMP JUMPDEST CALLVALUE DUP1 ISZERO PUSH2 0x776 JUMPI PUSH1 0x0 DUP1 REVERT JUMPDEST POP PUSH20 0x0 PUSH2 0x652 JUMP JUMPDEST CALLVALUE DUP1 ISZERO PUSH2 0x79D JUMPI PUSH1 0x0 DUP1 REVERT JUMPDEST POP PUSH2 0x372 PUSH2 0x7AC CALLDATASIZE PUSH1 0x4 PUSH2 0x4F76 JUMP JUMPDEST PUSH2 0x1A1F JUMP JUMPDEST CALLVALUE DUP1 ISZERO PUSH2 0x7BD JUMPI PUSH1 0x0 DUP1 REVERT JUMPDEST POP PUSH1 0x48 SLOAD PUSH2 0x424 JUMP JUMPDEST CALLVALUE DUP1 ISZERO PUSH2 0x7D2 JUMPI PUSH1 0x0 DUP1 REVERT JUMPDEST POP PUSH2 0x7DB PUSH2 0x1AEF JUMP JUMPDEST PUSH1 0x40 MLOAD PUSH2 0x3A0 SWAP2 SWAP1 PUSH2 0x52C6 JUMP JUMPDEST CALLVALUE DUP1 ISZERO PUSH2 0x7F4 JUMPI PUSH1 0x0 DUP1 REVERT JUMPDEST POP PUSH2 0x372 PUSH2 0x803 CALLDATASIZE PUSH1 0x4 PUSH2 0x5357 JUMP JUMPDEST PUSH2 0x1AFB JUMP JUMPDEST CALLVALUE DUP1 ISZERO PUSH2 0x814 JUMPI PUSH1 0x0 DUP1 REVERT JUMPDEST POP PUSH2 0x424 PUSH2 0x1B8C JUMP JUMPDEST CALLVALUE DUP1 ISZERO PUSH2 0x829 JUMPI PUSH1 0x0 DUP1 REVERT JUMPDEST POP PUSH2 0x372 PUSH2 0x1B97 JUMP JUMPDEST CALLVALUE DUP1 ISZERO PUSH2 0x83E JUMPI PUSH1 0x0 DUP1 REVERT JUMPDEST POP PUSH1 0x49 SLOAD PUSH1 0x1 PUSH1 0x1 PUSH1 0xA0 SHL SUB AND PUSH2 0x652 JUMP JUMPDEST CALLVALUE DUP1 ISZERO PUSH2 0x85C JUMPI PUSH1 0x0 DUP1 REVERT JUMPDEST POP PUSH2 0x870 PUSH2 0x86B CALLDATASIZE PUSH1 0x4 PUSH2 0x538C JUMP JUMPDEST PUSH2 0x1BE5 JUMP JUMPDEST PUSH1 0x40 DUP1 MLOAD SWAP6 DUP7 MSTORE PUSH1 0x1 PUSH1 0x1 PUSH1 0x80 SHL SUB SWAP5 DUP6 AND PUSH1 0x20 DUP8 ADD MSTORE SWAP3 SWAP1 SWAP4 AND SWAP2 DUP5 ADD SWAP2 SWAP1 SWAP2 MSTORE PUSH1 0x1 PUSH1 0x1 PUSH1 0xA0 SHL SUB AND PUSH1 0x60 DUP4 ADD MSTORE PUSH1 0xFF AND PUSH1 0x80 DUP3 ADD MSTORE PUSH1 0xA0 ADD PUSH2 0x3A0 JUMP JUMPDEST CALLVALUE DUP1 ISZERO PUSH2 0x8BC JUMPI PUSH1 0x0 DUP1 REVERT JUMPDEST POP PUSH2 0x3BE PUSH2 0x1C6A JUMP JUMPDEST CALLVALUE DUP1 ISZERO PUSH2 0x8D1 JUMPI PUSH1 0x0 DUP1 REVERT JUMPDEST POP PUSH2 0x8E5 PUSH2 0x8E0 CALLDATASIZE PUSH1 0x4 PUSH2 0x53B1 JUMP JUMPDEST PUSH2 0x1C79 JUMP JUMPDEST PUSH1 0x40 MLOAD PUSH2 0x3A0 SWAP2 SWAP1 PUSH2 0x5413 JUMP JUMPDEST CALLVALUE DUP1 ISZERO PUSH2 0x8FE JUMPI PUSH1 0x0 DUP1 REVERT JUMPDEST POP PUSH2 0x424 PUSH2 0x90D CALLDATASIZE PUSH1 0x4 PUSH2 0x5011 JUMP JUMPDEST PUSH2 0x1DE1 JUMP JUMPDEST CALLVALUE DUP1 ISZERO PUSH2 0x91E JUMPI PUSH1 0x0 DUP1 REVERT JUMPDEST POP PUSH2 0x424 PUSH2 0x92D CALLDATASIZE PUSH1 0x4 PUSH2 0x4F4A JUMP JUMPDEST PUSH2 0x1ED5 JUMP JUMPDEST CALLVALUE DUP1 ISZERO PUSH2 0x93E JUMPI PUSH1 0x0 DUP1 REVERT JUMPDEST POP PUSH2 0x394 PUSH2 0x94D CALLDATASIZE PUSH1 0x4 PUSH2 0x544B JUMP JUMPDEST PUSH2 0x2003 JUMP JUMPDEST CALLVALUE DUP1 ISZERO PUSH2 0x95E JUMPI PUSH1 0x0 DUP1 REVERT JUMPDEST POP PUSH1 0x2 SLOAD PUSH2 0x424 JUMP JUMPDEST CALLVALUE DUP1 ISZERO PUSH2 0x973 JUMPI PUSH1 0x0 DUP1 REVERT JUMPDEST POP PUSH1 0x49 SLOAD PUSH1 0x1 PUSH1 0xA0 SHL SWAP1 DIV PUSH1 0xFF AND PUSH2 0x394 JUMP JUMPDEST CALLVALUE DUP1 ISZERO PUSH2 0x992 JUMPI PUSH1 0x0 DUP1 REVERT JUMPDEST POP PUSH2 0x424 PUSH2 0x9A1 CALLDATASIZE PUSH1 0x4 PUSH2 0x4F4A JUMP JUMPDEST PUSH2 0x21F8 JUMP JUMPDEST CALLVALUE DUP1 ISZERO PUSH2 0x9B2 JUMPI PUSH1 0x0 DUP1 REVERT JUMPDEST POP PUSH2 0x424 PUSH2 0x9C1 CALLDATASIZE PUSH1 0x4 PUSH2 0x5052 JUMP JUMPDEST PUSH2 0x2276 JUMP JUMPDEST CALLVALUE DUP1 ISZERO PUSH2 0x9D2 JUMPI PUSH1 0x0 DUP1 REVERT JUMPDEST POP PUSH2 0x394 PUSH2 0x9E1 CALLDATASIZE PUSH1 0x4 PUSH2 0x4F4A JUMP JUMPDEST PUSH2 0x2292 JUMP JUMPDEST CALLVALUE DUP1 ISZERO PUSH2 0x9F2 JUMPI PUSH1 0x0 DUP1 REVERT JUMPDEST POP PUSH1 0x0 SLOAD PUSH1 0x1 PUSH1 0x1 PUSH1 0xA0 SHL SUB AND PUSH2 0x652 JUMP JUMPDEST CALLVALUE DUP1 ISZERO PUSH2 0xA10 JUMPI PUSH1 0x0 DUP1 REVERT JUMPDEST POP PUSH1 0x4 SLOAD PUSH1 0xFF AND PUSH2 0x394 JUMP JUMPDEST CALLVALUE DUP1 ISZERO PUSH2 0xA28 JUMPI PUSH1 0x0 DUP1 REVERT JUMPDEST POP PUSH1 0x3 SLOAD PUSH2 0x424 JUMP JUMPDEST CALLVALUE DUP1 ISZERO PUSH2 0xA3D JUMPI PUSH1 0x0 DUP1 REVERT JUMPDEST POP PUSH2 0x394 PUSH2 0xA4C CALLDATASIZE PUSH1 0x4 PUSH2 0x4F76 JUMP JUMPDEST PUSH2 0x22E1 JUMP JUMPDEST CALLVALUE DUP1 ISZERO PUSH2 0xA5D JUMPI PUSH1 0x0 DUP1 REVERT JUMPDEST POP PUSH2 0x424 PUSH2 0xA6C CALLDATASIZE PUSH1 0x4 PUSH2 0x54F4 JUMP JUMPDEST PUSH2 0x245B JUMP JUMPDEST CALLVALUE DUP1 ISZERO PUSH2 0xA7D JUMPI PUSH1 0x0 DUP1 REVERT JUMPDEST POP PUSH2 0x7DB PUSH2 0x2467 JUMP JUMPDEST CALLVALUE DUP1 ISZERO PUSH2 0xA92 JUMPI PUSH1 0x0 DUP1 REVERT JUMPDEST POP PUSH2 0x394 PUSH2 0xAA1 CALLDATASIZE PUSH1 0x4 PUSH2 0x5522 JUMP JUMPDEST PUSH2 0x2473 JUMP JUMPDEST CALLVALUE DUP1 ISZERO PUSH2 0xAB2 JUMPI PUSH1 0x0 DUP1 REVERT JUMPDEST POP PUSH2 0x424 PUSH2 0x30ED JUMP JUMPDEST CALLVALUE DUP1 ISZERO PUSH2 0xAC7 JUMPI PUSH1 0x0 DUP1 REVERT JUMPDEST POP PUSH2 0x652 PUSH2 0x30F7 JUMP JUMPDEST CALLVALUE DUP1 ISZERO PUSH2 0xADC JUMPI PUSH1 0x0 DUP1 REVERT JUMPDEST POP PUSH2 0x394 PUSH2 0xAEB CALLDATASIZE PUSH1 0x4 PUSH2 0x5357 JUMP JUMPDEST PUSH2 0x3101 JUMP JUMPDEST CALLVALUE DUP1 ISZERO PUSH2 0xAFC JUMPI PUSH1 0x0 DUP1 REVERT JUMPDEST POP PUSH2 0x424 PUSH2 0xB0B CALLDATASIZE PUSH1 0x4 PUSH2 0x5561 JUMP JUMPDEST PUSH2 0x31DB JUMP JUMPDEST PUSH1 0x0 PUSH1 0x1 PUSH1 0x1 PUSH1 0xE0 SHL SUB NOT DUP3 AND PUSH4 0x4A174591 PUSH1 0xE1 SHL EQ DUP1 PUSH2 0xB41 JUMPI POP PUSH1 0x1 PUSH1 0x1 PUSH1 0xE0 SHL SUB NOT DUP3 AND PUSH4 0xE3A31A9D PUSH1 0xE0 SHL EQ JUMPDEST DUP1 PUSH2 0xB5C JUMPI POP PUSH1 0x1 PUSH1 0x1 PUSH1 0xE0 SHL SUB NOT DUP3 AND PUSH4 0x6B88D515 PUSH1 0xE1 SHL EQ JUMPDEST DUP1 PUSH2 0xB76 JUMPI POP PUSH1 0x1 PUSH1 0x1 PUSH1 0xE0 SHL SUB NOT DUP3 AND PUSH3 0x7B7207 PUSH1 0xE9 SHL EQ JUMPDEST DUP1 PUSH2 0xB85 JUMPI POP PUSH2 0xB85 DUP3 PUSH2 0x3204 JUMP JUMPDEST SWAP3 SWAP2 POP POP JUMP JUMPDEST PUSH1 0x60 PUSH1 0x45 DUP1 SLOAD PUSH2 0xB9A SWAP1 PUSH2 0x559B JUMP JUMPDEST DUP1 PUSH1 0x1F ADD PUSH1 0x20 DUP1 SWAP2 DIV MUL PUSH1 0x20 ADD PUSH1 0x40 MLOAD SWAP1 DUP2 ADD PUSH1 0x40 MSTORE DUP1 SWAP3 SWAP2 SWAP1 DUP2 DUP2 MSTORE PUSH1 0x20 ADD DUP3 DUP1 SLOAD PUSH2 0xBC6 SWAP1 PUSH2 0x559B JUMP JUMPDEST DUP1 ISZERO PUSH2 0xC13 JUMPI DUP1 PUSH1 0x1F LT PUSH2 0xBE8 JUMPI PUSH2 0x100 DUP1 DUP4 SLOAD DIV MUL DUP4 MSTORE SWAP2 PUSH1 0x20 ADD SWAP2 PUSH2 0xC13 JUMP JUMPDEST DUP3 ADD SWAP2 SWAP1 PUSH1 0x0 MSTORE PUSH1 0x20 PUSH1 0x0 KECCAK256 SWAP1 JUMPDEST DUP2 SLOAD DUP2 MSTORE SWAP1 PUSH1 0x1 ADD SWAP1 PUSH1 0x20 ADD DUP1 DUP4 GT PUSH2 0xBF6 JUMPI DUP3 SWAP1 SUB PUSH1 0x1F AND DUP3 ADD SWAP2 JUMPDEST POP POP POP POP POP SWAP1 POP SWAP1 JUMP JUMPDEST PUSH1 0x0 PUSH2 0xC34 PUSH4 0x95EA7B3 PUSH1 0xE0 SHL CALLER JUMPDEST PUSH1 0x1 DUP1 PUSH2 0x3254 JUMP JUMPDEST PUSH2 0xC3F CALLER DUP5 DUP5 PUSH2 0x3352 JUMP JUMPDEST POP PUSH1 0x1 SWAP3 SWAP2 POP POP JUMP JUMPDEST PUSH1 0x1 PUSH1 0x1 PUSH1 0xA0 SHL SUB PUSH32 0x0 AND ADDRESS SUB PUSH2 0xC99 JUMPI PUSH1 0x40 MLOAD PUSH3 0x461BCD PUSH1 0xE5 SHL DUP2 MSTORE PUSH1 0x4 ADD PUSH2 0xC90 SWAP1 PUSH2 0x55CF JUMP JUMPDEST PUSH1 0x40 MLOAD DUP1 SWAP2 SUB SWAP1 REVERT JUMPDEST PUSH32 0x0 PUSH1 0x1 PUSH1 0x1 PUSH1 0xA0 SHL SUB AND PUSH2 0xCCB PUSH2 0x3458 JUMP JUMPDEST PUSH1 0x1 PUSH1 0x1 PUSH1 0xA0 SHL SUB AND EQ PUSH2 0xCF1 JUMPI PUSH1 0x40 MLOAD PUSH3 0x461BCD PUSH1 0xE5 SHL DUP2 MSTORE PUSH1 0x4 ADD PUSH2 0xC90 SWAP1 PUSH2 0x55FE JUMP JUMPDEST CALLER PUSH2 0xCFA PUSH2 0x3479 JUMP JUMPDEST PUSH1 0x1 PUSH1 0x1 PUSH1 0xA0 SHL SUB AND EQ PUSH2 0xD48 JUMPI PUSH1 0x40 MLOAD PUSH3 0x461BCD PUSH1 0xE5 SHL DUP2 MSTORE PUSH1 0x20 PUSH1 0x4 DUP3 ADD MSTORE PUSH1 0x15 PUSH1 0x24 DUP3 ADD MSTORE PUSH21 0x10D85B1B195C88139BDD08105D5D1A1BDC9A5E9959 PUSH1 0x5A SHL PUSH1 0x44 DUP3 ADD MSTORE PUSH1 0x64 ADD PUSH2 0xC90 JUMP JUMPDEST PUSH1 0x51 SLOAD PUSH3 0x10000 SWAP1 DIV PUSH1 0xFF AND ISZERO DUP1 DUP1 ISZERO PUSH2 0xD6A JUMPI POP PUSH1 0x51 SLOAD PUSH1 0x1 PUSH2 0xFFFF SWAP1 SWAP2 AND LT JUMPDEST DUP1 PUSH2 0xD85 JUMPI POP ADDRESS EXTCODESIZE ISZERO DUP1 ISZERO PUSH2 0xD85 JUMPI POP PUSH1 0x51 SLOAD PUSH2 0xFFFF AND PUSH1 0x1 EQ JUMPDEST PUSH2 0xDD1 JUMPI PUSH1 0x40 MLOAD PUSH3 0x461BCD PUSH1 0xE5 SHL DUP2 MSTORE PUSH1 0x20 PUSH1 0x4 DUP3 ADD MSTORE PUSH1 0x1C PUSH1 0x24 DUP3 ADD MSTORE PUSH32 0x436F6E747261637420416C726561647920496E697469616C697A656400000000 PUSH1 0x44 DUP3 ADD MSTORE PUSH1 0x64 ADD PUSH2 0xC90 JUMP JUMPDEST PUSH1 0x51 DUP1 SLOAD PUSH2 0xFFFF NOT AND PUSH1 0x1 OR SWAP1 SSTORE DUP1 ISZERO PUSH2 0xDF7 JUMPI PUSH1 0x51 DUP1 SLOAD PUSH3 0xFF0000 NOT AND PUSH3 0x10000 OR SWAP1 SSTORE JUMPDEST PUSH1 0x0 PUSH2 0xE06 PUSH1 0x40 DUP5 ADD DUP5 PUSH2 0x562C JUMP JUMPDEST PUSH1 0x40 MLOAD PUSH1 0x20 ADD PUSH2 0xE17 SWAP3 SWAP2 SWAP1 PUSH2 0x5672 JUMP JUMPDEST PUSH1 0x40 DUP1 MLOAD PUSH1 0x1F NOT DUP2 DUP5 SUB ADD DUP2 MSTORE SWAP2 SWAP1 MSTORE DUP1 MLOAD PUSH1 0x20 SWAP1 SWAP2 ADD KECCAK256 SWAP1 POP PUSH2 0xE61 PUSH2 0xE3E DUP5 DUP1 PUSH2 0x562C JUMP JUMPDEST PUSH2 0xE4B PUSH1 0x20 DUP8 ADD DUP8 PUSH2 0x562C JUMP JUMPDEST DUP6 PUSH2 0xE5C PUSH1 0xC0 DUP11 ADD PUSH1 0xA0 DUP12 ADD PUSH2 0x4F76 JUMP JUMPDEST PUSH2 0x34A1 JUMP JUMPDEST PUSH1 0x40 DUP1 MLOAD DUP1 DUP3 ADD SWAP1 SWAP2 MSTORE PUSH1 0x6 DUP2 MSTORE PUSH6 0x4C4956454C59 PUSH1 0xD0 SHL PUSH1 0x20 DUP3 ADD MSTORE PUSH1 0x45 SWAP1 PUSH2 0xE8B SWAP1 DUP3 PUSH2 0x56C8 JUMP JUMPDEST POP PUSH1 0x40 DUP1 MLOAD DUP1 DUP3 ADD SWAP1 SWAP2 MSTORE PUSH1 0x3 DUP2 MSTORE PUSH3 0x131593 PUSH1 0xEA SHL PUSH1 0x20 DUP3 ADD MSTORE PUSH1 0x46 SWAP1 PUSH2 0xEB3 SWAP1 DUP3 PUSH2 0x56C8 JUMP JUMPDEST POP PUSH1 0x80 DUP4 ADD CALLDATALOAD PUSH1 0x48 SSTORE PUSH1 0x49 DUP1 SLOAD PUSH1 0xFF PUSH1 0xA8 SHL NOT AND SWAP1 SSTORE PUSH2 0xEF6 PUSH2 0xED6 DUP5 DUP1 PUSH2 0x562C JUMP JUMPDEST PUSH2 0xEE3 PUSH1 0x20 DUP8 ADD DUP8 PUSH2 0x562C JUMP JUMPDEST DUP6 PUSH2 0xEF1 PUSH1 0x60 DUP11 ADD DUP11 PUSH2 0x562C JUMP JUMPDEST PUSH2 0x34B7 JUMP JUMPDEST POP DUP1 ISZERO PUSH2 0xF0A JUMPI PUSH1 0x51 DUP1 SLOAD PUSH3 0xFF0000 NOT AND SWAP1 SSTORE JUMPDEST POP POP JUMP JUMPDEST PUSH1 0x0 PUSH2 0xF21 PUSH4 0x28AB439 PUSH1 0xE3 SHL CALLER PUSH2 0xC2C JUMP JUMPDEST PUSH1 0x0 DUP1 JUMPDEST DUP4 DUP2 LT ISZERO PUSH2 0xF6C JUMPI PUSH2 0xF4E DUP6 DUP6 DUP4 DUP2 DUP2 LT PUSH2 0xF42 JUMPI PUSH2 0xF42 PUSH2 0x5787 JUMP JUMPDEST SWAP1 POP PUSH1 0x20 MUL ADD CALLDATALOAD PUSH2 0x363D JUMP JUMPDEST PUSH2 0xF58 SWAP1 DUP4 PUSH2 0x57B3 JUMP JUMPDEST SWAP2 POP DUP1 PUSH2 0xF64 DUP2 PUSH2 0x57C6 JUMP JUMPDEST SWAP2 POP POP PUSH2 0xF25 JUMP JUMPDEST POP PUSH1 0x40 MLOAD DUP2 DUP2 MSTORE CALLER SWAP1 PUSH32 0xF816CE3B3A52BD5C96A6AC9D4404D206F4E9D482FFA303AFBF0DBEEA2957F59A SWAP1 PUSH1 0x20 ADD JUMPDEST PUSH1 0x40 MLOAD DUP1 SWAP2 SUB SWAP1 LOG2 SWAP4 SWAP3 POP POP POP JUMP JUMPDEST PUSH1 0x0 PUSH2 0xFBF PUSH4 0xBFEE647 PUSH1 0xE1 SHL DUP3 DUP1 DUP1 PUSH2 0x3254 JUMP JUMPDEST PUSH1 0x48 DUP3 SWAP1 SSTORE PUSH1 0x40 MLOAD DUP3 DUP2 MSTORE CALLER SWAP1 PUSH32 0xB7902185AC0A79231C8BE85F0EE0D94806D95D785D216824A078279F5D5BFBAE SWAP1 PUSH1 0x20 ADD PUSH1 0x40 MLOAD DUP1 SWAP2 SUB SWAP1 LOG2 POP PUSH1 0x1 SWAP2 SWAP1 POP JUMP JUMPDEST PUSH1 0x0 PUSH2 0x1017 PUSH4 0x38D251D PUSH1 0xE3 SHL DUP3 PUSH1 0x1 DUP2 PUSH2 0x3254 JUMP JUMPDEST PUSH1 0x0 DUP1 JUMPDEST DUP4 DUP2 LT ISZERO PUSH2 0x1125 JUMPI PUSH2 0x1056 DUP6 DUP6 DUP4 DUP2 DUP2 LT PUSH2 0x1038 JUMPI PUSH2 0x1038 PUSH2 0x5787 JUMP JUMPDEST PUSH2 0x104E SWAP3 PUSH1 0x20 PUSH1 0x60 SWAP1 SWAP3 MUL ADD SWAP1 DUP2 ADD SWAP2 POP PUSH2 0x4F76 JUMP JUMPDEST PUSH1 0x4D SWAP1 PUSH2 0x3724 JUMP JUMPDEST ISZERO PUSH2 0x1073 JUMPI PUSH1 0x40 MLOAD PUSH3 0x461BCD PUSH1 0xE5 SHL DUP2 MSTORE PUSH1 0x4 ADD PUSH2 0xC90 SWAP1 PUSH2 0x57DF JUMP JUMPDEST DUP5 DUP5 DUP3 DUP2 DUP2 LT PUSH2 0x1085 JUMPI PUSH2 0x1085 PUSH2 0x5787 JUMP JUMPDEST SWAP1 POP PUSH1 0x60 MUL ADD PUSH1 0x40 ADD CALLDATALOAD DUP3 PUSH2 0x109A SWAP2 SWAP1 PUSH2 0x57B3 JUMP JUMPDEST SWAP2 POP PUSH2 0x1112 DUP6 DUP6 DUP4 DUP2 DUP2 LT PUSH2 0x10B1 JUMPI PUSH2 0x10B1 PUSH2 0x5787 JUMP JUMPDEST PUSH2 0x10C7 SWAP3 PUSH1 0x20 PUSH1 0x60 SWAP1 SWAP3 MUL ADD SWAP1 DUP2 ADD SWAP2 POP PUSH2 0x4F76 JUMP JUMPDEST DUP7 DUP7 DUP5 DUP2 DUP2 LT PUSH2 0x10D9 JUMPI PUSH2 0x10D9 PUSH2 0x5787 JUMP JUMPDEST SWAP1 POP PUSH1 0x60 MUL ADD PUSH1 0x20 ADD PUSH1 0x20 DUP2 ADD SWAP1 PUSH2 0x10F1 SWAP2 SWAP1 PUSH2 0x4F76 JUMP JUMPDEST DUP8 DUP8 DUP6 DUP2 DUP2 LT PUSH2 0x1103 JUMPI PUSH2 0x1103 PUSH2 0x5787 JUMP JUMPDEST SWAP1 POP PUSH1 0x60 MUL ADD PUSH1 0x40 ADD CALLDATALOAD PUSH2 0x3746 JUMP JUMPDEST POP DUP1 PUSH2 0x111D DUP2 PUSH2 0x57C6 JUMP JUMPDEST SWAP2 POP POP PUSH2 0x101B JUMP JUMPDEST POP PUSH1 0x40 MLOAD DUP2 DUP2 MSTORE CALLER SWAP1 PUSH32 0x208FDF04989D654CC491D69BE8EB64992C7B7407E34A6AC73E7C0361D0591EFF SWAP1 PUSH1 0x20 ADD JUMPDEST PUSH1 0x40 MLOAD DUP1 SWAP2 SUB SWAP1 LOG2 POP PUSH1 0x1 SWAP4 SWAP3 POP POP POP JUMP JUMPDEST PUSH1 0x0 PUSH2 0x117C PUSH4 0x23B872DD PUSH1 0xE0 SHL DUP6 PUSH1 0x1 DUP1 PUSH2 0x3254 JUMP JUMPDEST PUSH2 0x1187 DUP5 DUP5 DUP5 PUSH2 0x3746 JUMP JUMPDEST SWAP1 POP JUMPDEST SWAP4 SWAP3 POP POP POP JUMP JUMPDEST PUSH1 0x0 PUSH2 0x11A0 PUSH1 0x51 SLOAD PUSH2 0xFFFF AND SWAP1 JUMP JUMPDEST SWAP1 POP SWAP1 JUMP JUMPDEST PUSH1 0x0 PUSH2 0x11B8 PUSH4 0x39509351 PUSH1 0xE0 SHL CALLER PUSH2 0xC2C JUMP JUMPDEST CALLER PUSH1 0x0 DUP4 PUSH2 0x11C6 DUP4 DUP8 PUSH2 0x37EF JUMP JUMPDEST PUSH2 0x11D0 SWAP2 SWAP1 PUSH2 0x57B3 JUMP JUMPDEST SWAP1 POP PUSH2 0x11DD DUP3 DUP7 DUP4 PUSH2 0x3352 JUMP JUMPDEST DUP5 PUSH1 0x1 PUSH1 0x1 PUSH1 0xA0 SHL SUB AND DUP3 PUSH1 0x1 PUSH1 0x1 PUSH1 0xA0 SHL SUB AND PUSH32 0x865EA570C20F0FE0AE579EC567FA79D57A683390554593DC070EA0DCD5F466FB DUP7 PUSH1 0x40 MLOAD PUSH2 0x1222 SWAP2 DUP2 MSTORE PUSH1 0x20 ADD SWAP1 JUMP JUMPDEST PUSH1 0x40 MLOAD DUP1 SWAP2 SUB SWAP1 LOG3 SWAP5 SWAP4 POP POP POP POP JUMP JUMPDEST PUSH1 0x0 PUSH2 0x1248 PUSH4 0x40C10F19 PUSH1 0xE0 SHL DUP5 PUSH1 0x1 DUP1 PUSH2 0x3254 JUMP JUMPDEST PUSH2 0x118A DUP4 DUP4 PUSH2 0x381A JUMP JUMPDEST PUSH1 0x0 PUSH1 0x1 PUSH1 0x1 PUSH1 0xA0 SHL SUB PUSH32 0x0 AND ADDRESS SUB PUSH2 0x129C JUMPI PUSH1 0x40 MLOAD PUSH3 0x461BCD PUSH1 0xE5 SHL DUP2 MSTORE PUSH1 0x4 ADD PUSH2 0xC90 SWAP1 PUSH2 0x55CF JUMP JUMPDEST PUSH32 0x0 PUSH1 0x1 PUSH1 0x1 PUSH1 0xA0 SHL SUB AND PUSH2 0x12CE PUSH2 0x3458 JUMP JUMPDEST PUSH1 0x1 PUSH1 0x1 PUSH1 0xA0 SHL SUB AND EQ PUSH2 0x12F4 JUMPI PUSH1 0x40 MLOAD PUSH3 0x461BCD PUSH1 0xE5 SHL DUP2 MSTORE PUSH1 0x4 ADD PUSH2 0xC90 SWAP1 PUSH2 0x55FE JUMP JUMPDEST PUSH1 0x0 PUSH2 0x1303 PUSH1 0x51 SLOAD PUSH2 0xFFFF AND SWAP1 JUMP JUMPDEST PUSH2 0xFFFF AND GT PUSH2 0x1354 JUMPI PUSH1 0x40 MLOAD PUSH3 0x461BCD PUSH1 0xE5 SHL DUP2 MSTORE PUSH1 0x20 PUSH1 0x4 DUP3 ADD MSTORE PUSH1 0x18 PUSH1 0x24 DUP3 ADD MSTORE PUSH32 0x436F6E7472616374204E6F7420496E697469616C697A65640000000000000000 PUSH1 0x44 DUP3 ADD MSTORE PUSH1 0x64 ADD PUSH2 0xC90 JUMP JUMPDEST PUSH2 0x1364 PUSH4 0x225BF2F9 PUSH1 0xE1 SHL PUSH2 0x38DA JUMP JUMPDEST PUSH2 0x13A8 JUMPI PUSH1 0x40 MLOAD PUSH3 0x461BCD PUSH1 0xE5 SHL DUP2 MSTORE PUSH1 0x20 PUSH1 0x4 DUP3 ADD MSTORE PUSH1 0x15 PUSH1 0x24 DUP3 ADD MSTORE PUSH21 0x29B2BA29B0B332A6B7B232902337B93134B23232B7 PUSH1 0x59 SHL PUSH1 0x44 DUP3 ADD MSTORE PUSH1 0x64 ADD PUSH2 0xC90 JUMP JUMPDEST PUSH1 0x4 DUP1 SLOAD PUSH1 0xFF NOT AND DUP4 ISZERO ISZERO OR SWAP1 SSTORE PUSH1 0x3 SLOAD ADDRESS CALLER PUSH1 0x1 PUSH1 0x1 PUSH1 0xA0 SHL SUB AND PUSH32 0xDD452A31D2E164A1EA436C084842C27D24AE2548A575A869F71B05A4ED16243F DUP6 PUSH1 0x40 MLOAD PUSH2 0x13F7 SWAP2 ISZERO ISZERO DUP2 MSTORE PUSH1 0x20 ADD SWAP1 JUMP JUMPDEST PUSH1 0x40 MLOAD DUP1 SWAP2 SUB SWAP1 LOG4 POP DUP1 JUMPDEST SWAP2 SWAP1 POP JUMP JUMPDEST PUSH1 0x0 PUSH2 0x141C PUSH4 0x11A98D35 PUSH1 0xE2 SHL DUP3 DUP1 DUP1 PUSH2 0x3254 JUMP JUMPDEST PUSH2 0x118A DUP4 DUP4 PUSH2 0x3A41 JUMP JUMPDEST PUSH1 0x0 PUSH1 0x1 PUSH1 0x1 PUSH1 0xA0 SHL SUB PUSH32 0x0 AND ADDRESS SUB PUSH2 0x1470 JUMPI PUSH1 0x40 MLOAD PUSH3 0x461BCD PUSH1 0xE5 SHL DUP2 MSTORE PUSH1 0x4 ADD PUSH2 0xC90 SWAP1 PUSH2 0x55CF JUMP JUMPDEST PUSH32 0x0 PUSH1 0x1 PUSH1 0x1 PUSH1 0xA0 SHL SUB AND PUSH2 0x14A2 PUSH2 0x3458 JUMP JUMPDEST PUSH1 0x1 PUSH1 0x1 PUSH1 0xA0 SHL SUB AND EQ PUSH2 0x14C8 JUMPI PUSH1 0x40 MLOAD PUSH3 0x461BCD PUSH1 0xE5 SHL DUP2 MSTORE PUSH1 0x4 ADD PUSH2 0xC90 SWAP1 PUSH2 0x55FE JUMP JUMPDEST PUSH1 0x4 SLOAD PUSH1 0xFF AND ISZERO PUSH2 0x14EB JUMPI PUSH1 0x40 MLOAD PUSH3 0x461BCD PUSH1 0xE5 SHL DUP2 MSTORE PUSH1 0x4 ADD PUSH2 0xC90 SWAP1 PUSH2 0x5816 JUMP JUMPDEST PUSH2 0x14FB PUSH4 0x1239AF87 PUSH1 0xE2 SHL PUSH2 0x38DA JUMP JUMPDEST PUSH2 0x1547 JUMPI PUSH1 0x40 MLOAD PUSH3 0x461BCD PUSH1 0xE5 SHL DUP2 MSTORE PUSH1 0x20 PUSH1 0x4 DUP3 ADD MSTORE PUSH1 0x1A PUSH1 0x24 DUP3 ADD MSTORE PUSH32 0x5365745570677261646553746174757320466F7262696464656E000000000000 PUSH1 0x44 DUP3 ADD MSTORE PUSH1 0x64 ADD PUSH2 0xC90 JUMP JUMPDEST PUSH2 0x154F PUSH2 0x3B1D JUMP JUMPDEST PUSH2 0x159B JUMPI PUSH1 0x40 MLOAD PUSH3 0x461BCD PUSH1 0xE5 SHL DUP2 MSTORE PUSH1 0x20 PUSH1 0x4 DUP3 ADD MSTORE PUSH1 0x17 PUSH1 0x24 DUP3 ADD MSTORE PUSH32 0x5265616C6D205570677261646520466F7262696464656E000000000000000000 PUSH1 0x44 DUP3 ADD MSTORE PUSH1 0x64 ADD PUSH2 0xC90 JUMP JUMPDEST PUSH1 0x4 DUP1 SLOAD PUSH2 0xFF00 NOT AND PUSH2 0x100 DUP5 ISZERO ISZERO MUL OR SWAP1 SSTORE PUSH1 0x3 SLOAD ADDRESS CALLER PUSH1 0x1 PUSH1 0x1 PUSH1 0xA0 SHL SUB AND PUSH32 0xE9F97AD94C2BA252DCFC525E004F608AC5CB886955D8FC87D9E0EE070A698C56 DUP6 PUSH1 0x40 MLOAD PUSH2 0x13F7 SWAP2 ISZERO ISZERO DUP2 MSTORE PUSH1 0x20 ADD SWAP1 JUMP JUMPDEST PUSH1 0x1 PUSH1 0x1 PUSH1 0xA0 SHL SUB DUP2 AND PUSH1 0x0 SWAP1 DUP2 MSTORE PUSH1 0x4A PUSH1 0x20 MSTORE PUSH1 0x40 DUP2 KECCAK256 DUP1 SLOAD PUSH1 0x1 SWAP1 SWAP2 ADD SLOAD PUSH2 0xB85 SWAP2 SWAP1 PUSH2 0x57B3 JUMP JUMPDEST PUSH1 0x0 ADDRESS PUSH1 0x1 PUSH1 0x1 PUSH1 0xA0 SHL SUB PUSH32 0x0 AND EQ PUSH2 0x1693 JUMPI PUSH1 0x40 MLOAD PUSH3 0x461BCD PUSH1 0xE5 SHL DUP2 MSTORE PUSH1 0x20 PUSH1 0x4 DUP3 ADD MSTORE PUSH1 0x1D PUSH1 0x24 DUP3 ADD MSTORE PUSH32 0x496C6C6567616C20436F6E74726163742044656C656761746563616C6C000000 PUSH1 0x44 DUP3 ADD MSTORE PUSH1 0x64 ADD PUSH2 0xC90 JUMP JUMPDEST POP PUSH1 0x0 DUP1 MLOAD PUSH1 0x20 PUSH2 0x5EAA DUP4 CODECOPY DUP2 MLOAD SWAP2 MSTORE SWAP1 JUMP JUMPDEST PUSH2 0x16BA PUSH4 0x57B001F9 PUSH1 0xE0 SHL PUSH1 0x0 DUP1 DUP1 PUSH2 0x3254 JUMP JUMPDEST PUSH1 0x1 PUSH1 0x1 PUSH1 0xA0 SHL SUB DUP2 AND PUSH2 0x16E0 JUMPI PUSH1 0x40 MLOAD PUSH3 0x461BCD PUSH1 0xE5 SHL DUP2 MSTORE PUSH1 0x4 ADD PUSH2 0xC90 SWAP1 PUSH2 0x584D JUMP JUMPDEST PUSH2 0x16EB PUSH1 0x4D DUP3 PUSH2 0x3724 JUMP JUMPDEST PUSH2 0x172B JUMPI PUSH1 0x40 MLOAD PUSH3 0x461BCD PUSH1 0xE5 SHL DUP2 MSTORE PUSH1 0x20 PUSH1 0x4 DUP3 ADD MSTORE PUSH1 0x11 PUSH1 0x24 DUP3 ADD MSTORE PUSH17 0x1058D8DBDD5B9D08139BDD08119BDD5B99 PUSH1 0x7A SHL PUSH1 0x44 DUP3 ADD MSTORE PUSH1 0x64 ADD PUSH2 0xC90 JUMP JUMPDEST PUSH2 0x1736 PUSH1 0x4D DUP3 PUSH2 0x3C59 JUMP JUMPDEST POP PUSH1 0x40 MLOAD PUSH1 0x1 PUSH1 0x1 PUSH1 0xA0 SHL SUB DUP3 AND SWAP1 CALLER SWAP1 PUSH32 0x3D072963433794EB417A69355DF67D08BBD73D5076EF653D6863861161D60AF3 SWAP1 PUSH1 0x0 SWAP1 LOG3 POP JUMP JUMPDEST PUSH1 0x0 PUSH2 0x11A0 PUSH2 0x3458 JUMP JUMPDEST PUSH2 0x178E PUSH4 0x595C6A67 PUSH1 0xE0 SHL PUSH1 0x0 DUP1 DUP1 PUSH2 0x3254 JUMP JUMPDEST PUSH1 0x49 DUP1 SLOAD PUSH1 0xFF PUSH1 0xA0 SHL NOT AND PUSH1 0x1 PUSH1 0xA0 SHL OR SWAP1 SSTORE PUSH2 0x17A8 CALLER SWAP1 JUMP JUMPDEST PUSH1 0x1 PUSH1 0x1 PUSH1 0xA0 SHL SUB AND PUSH32 0xF1005168AEA1429FE9559D51EF6CAA33E6426890864E2E6E41E5D54BAA7BE79F PUSH1 0x40 MLOAD PUSH1 0x40 MLOAD DUP1 SWAP2 SUB SWAP1 LOG2 JUMP JUMPDEST PUSH1 0x0 PUSH1 0x1 PUSH1 0x1 PUSH1 0xA0 SHL SUB DUP3 AND ISZERO DUP1 ISZERO SWAP1 PUSH2 0xB85 JUMPI POP PUSH2 0xB85 PUSH1 0x4D DUP4 PUSH2 0x3724 JUMP JUMPDEST PUSH1 0x0 PUSH2 0x1819 PUSH4 0x35C1CA49 PUSH1 0xE1 SHL PUSH2 0xC2C PUSH1 0x20 DUP6 ADD DUP6 PUSH2 0x4F76 JUMP JUMPDEST PUSH2 0xB85 DUP3 PUSH2 0x3C6E JUMP JUMPDEST PUSH1 0x1 PUSH1 0x1 PUSH1 0xA0 SHL SUB DUP2 AND PUSH1 0x0 SWAP1 DUP2 MSTORE PUSH1 0x4A PUSH1 0x20 MSTORE PUSH1 0x40 DUP2 KECCAK256 PUSH1 0x2 ADD SLOAD PUSH2 0xB85 JUMP JUMPDEST PUSH1 0x60 PUSH1 0x1 PUSH1 0x1 PUSH1 0xA0 SHL SUB PUSH32 0x0 AND ADDRESS SUB PUSH2 0x188D JUMPI PUSH1 0x40 MLOAD PUSH3 0x461BCD PUSH1 0xE5 SHL DUP2 MSTORE PUSH1 0x4 ADD PUSH2 0xC90 SWAP1 PUSH2 0x55CF JUMP JUMPDEST PUSH32 0x0 PUSH1 0x1 PUSH1 0x1 PUSH1 0xA0 SHL SUB AND PUSH2 0x18BF PUSH2 0x3458 JUMP JUMPDEST PUSH1 0x1 PUSH1 0x1 PUSH1 0xA0 SHL SUB AND EQ PUSH2 0x18E5 JUMPI PUSH1 0x40 MLOAD PUSH3 0x461BCD PUSH1 0xE5 SHL DUP2 MSTORE PUSH1 0x4 ADD PUSH2 0xC90 SWAP1 PUSH2 0x55FE JUMP JUMPDEST PUSH1 0x4 SLOAD PUSH1 0xFF AND ISZERO PUSH2 0x1908 JUMPI PUSH1 0x40 MLOAD PUSH3 0x461BCD PUSH1 0xE5 SHL DUP2 MSTORE PUSH1 0x4 ADD PUSH2 0xC90 SWAP1 PUSH2 0x5816 JUMP JUMPDEST PUSH1 0x4 SLOAD PUSH2 0x100 SWAP1 DIV PUSH1 0xFF AND PUSH2 0x1957 JUMPI PUSH1 0x40 MLOAD PUSH3 0x461BCD PUSH1 0xE5 SHL DUP2 MSTORE PUSH1 0x20 PUSH1 0x4 DUP3 ADD MSTORE PUSH1 0x15 PUSH1 0x24 DUP3 ADD MSTORE PUSH21 0x155C19DC9859194810D85B1B0814995A9958DD1959 PUSH1 0x5A SHL PUSH1 0x44 DUP3 ADD MSTORE PUSH1 0x64 ADD PUSH2 0xC90 JUMP JUMPDEST PUSH2 0x1960 DUP5 PUSH2 0x3D64 JUMP JUMPDEST PUSH2 0x1187 DUP5 DUP5 DUP5 PUSH2 0x3E2B JUMP JUMPDEST PUSH1 0x4 SLOAD PUSH1 0xFF AND ISZERO PUSH2 0x198E JUMPI PUSH1 0x40 MLOAD PUSH3 0x461BCD PUSH1 0xE5 SHL DUP2 MSTORE PUSH1 0x4 ADD PUSH2 0xC90 SWAP1 PUSH2 0x5816 JUMP JUMPDEST PUSH2 0x199E PUSH4 0x756AF45F PUSH1 0xE0 SHL PUSH2 0x38DA JUMP JUMPDEST PUSH2 0x19EA JUMPI PUSH1 0x40 MLOAD PUSH3 0x461BCD PUSH1 0xE5 SHL DUP2 MSTORE PUSH1 0x20 PUSH1 0x4 DUP3 ADD MSTORE PUSH1 0x1A PUSH1 0x24 DUP3 ADD MSTORE PUSH32 0x57697468647261772042616C616E636520466F7262696464656E000000000000 PUSH1 0x44 DUP3 ADD MSTORE PUSH1 0x64 ADD PUSH2 0xC90 JUMP JUMPDEST PUSH1 0x40 MLOAD PUSH1 0x1 PUSH1 0x1 PUSH1 0xA0 SHL SUB DUP3 AND SWAP1 SELFBALANCE DUP1 ISZERO PUSH2 0x8FC MUL SWAP2 PUSH1 0x0 DUP2 DUP2 DUP2 DUP6 DUP9 DUP9 CALL SWAP4 POP POP POP POP ISZERO DUP1 ISZERO PUSH2 0xF0A JUMPI RETURNDATASIZE PUSH1 0x0 DUP1 RETURNDATACOPY RETURNDATASIZE PUSH1 0x0 REVERT JUMPDEST PUSH2 0x1A33 PUSH4 0x76A67A51 PUSH1 0xE0 SHL PUSH1 0x0 DUP1 DUP1 PUSH2 0x3254 JUMP JUMPDEST PUSH1 0x1 PUSH1 0x1 PUSH1 0xA0 SHL SUB DUP2 AND PUSH2 0x1A59 JUMPI PUSH1 0x40 MLOAD PUSH3 0x461BCD PUSH1 0xE5 SHL DUP2 MSTORE PUSH1 0x4 ADD PUSH2 0xC90 SWAP1 PUSH2 0x584D JUMP JUMPDEST PUSH2 0x1A64 PUSH1 0x4D DUP3 PUSH2 0x3724 JUMP JUMPDEST ISZERO PUSH2 0x1AAA JUMPI PUSH1 0x40 MLOAD PUSH3 0x461BCD PUSH1 0xE5 SHL DUP2 MSTORE PUSH1 0x20 PUSH1 0x4 DUP3 ADD MSTORE PUSH1 0x16 PUSH1 0x24 DUP3 ADD MSTORE PUSH22 0x1058D8DBDD5B9D08105B1C9958591E4814185D5CD959 PUSH1 0x52 SHL PUSH1 0x44 DUP3 ADD MSTORE PUSH1 0x64 ADD PUSH2 0xC90 JUMP JUMPDEST PUSH2 0x1AB5 PUSH1 0x4D DUP3 PUSH2 0x407C JUMP JUMPDEST POP PUSH1 0x40 MLOAD PUSH1 0x1 PUSH1 0x1 PUSH1 0xA0 SHL SUB DUP3 AND SWAP1 CALLER SWAP1 PUSH32 0x3DD4F37CA5EAF6C357698A52C806820426D7C9A26ADB0991C3BEBB09CF23352A SWAP1 PUSH1 0x0 SWAP1 LOG3 POP JUMP JUMPDEST PUSH1 0x60 PUSH2 0x11A0 PUSH1 0x4F PUSH2 0x4091 JUMP JUMPDEST PUSH2 0x1B0F PUSH4 0x7D35F355 PUSH1 0xE0 SHL PUSH1 0x0 DUP1 DUP1 PUSH2 0x3254 JUMP JUMPDEST PUSH1 0x0 JUMPDEST DUP2 DUP2 LT ISZERO PUSH2 0x1B87 JUMPI PUSH2 0x1B74 DUP4 DUP4 DUP4 DUP2 DUP2 LT PUSH2 0x1B2F JUMPI PUSH2 0x1B2F PUSH2 0x5787 JUMP JUMPDEST PUSH2 0x1B45 SWAP3 PUSH1 0x20 PUSH1 0x40 SWAP1 SWAP3 MUL ADD SWAP1 DUP2 ADD SWAP2 POP PUSH2 0x4F76 JUMP JUMPDEST DUP5 DUP5 DUP5 DUP2 DUP2 LT PUSH2 0x1B57 JUMPI PUSH2 0x1B57 PUSH2 0x5787 JUMP JUMPDEST SWAP1 POP PUSH1 0x40 MUL ADD PUSH1 0x20 ADD PUSH1 0x20 DUP2 ADD SWAP1 PUSH2 0x1B6F SWAP2 SWAP1 PUSH2 0x5139 JUMP JUMPDEST PUSH2 0x3A41 JUMP JUMPDEST POP DUP1 PUSH2 0x1B7F DUP2 PUSH2 0x57C6 JUMP JUMPDEST SWAP2 POP POP PUSH2 0x1B12 JUMP JUMPDEST POP POP POP JUMP JUMPDEST PUSH1 0x0 PUSH2 0x11A0 ADDRESS PUSH2 0x409E JUMP JUMPDEST PUSH2 0x1BAB PUSH4 0x8A2DDD03 PUSH1 0xE0 SHL PUSH1 0x0 DUP1 DUP1 PUSH2 0x3254 JUMP JUMPDEST PUSH1 0x49 DUP1 SLOAD PUSH1 0xFF PUSH1 0xA0 SHL NOT AND SWAP1 SSTORE PUSH1 0x40 MLOAD CALLER SWAP1 PUSH32 0x3C1FB1FD79EE84E55A8FE78554C432EF36EA033A9245CE4B650BD824A12554D3 SWAP1 PUSH1 0x0 SWAP1 LOG2 JUMP JUMPDEST PUSH1 0x1 PUSH1 0x1 PUSH1 0xA0 SHL SUB DUP2 DUP2 AND PUSH1 0x0 SWAP1 DUP2 MSTORE PUSH1 0x4C PUSH1 0x20 SWAP1 DUP2 MSTORE PUSH1 0x40 DUP1 DUP4 KECCAK256 DUP7 DUP5 MSTORE SWAP1 SWAP2 MSTORE DUP2 KECCAK256 DUP1 SLOAD PUSH1 0x1 DUP3 ADD SLOAD PUSH1 0x2 DUP4 ADD SLOAD SWAP4 SWAP5 DUP6 SWAP5 DUP6 SWAP5 DUP6 SWAP5 DUP6 SWAP5 SWAP2 SWAP4 SWAP1 SWAP3 PUSH1 0x1 PUSH1 0x1 PUSH1 0x80 SHL SUB DUP1 DUP5 AND SWAP4 PUSH1 0x1 PUSH1 0x80 SHL SWAP1 DIV AND SWAP2 DUP2 AND SWAP1 PUSH1 0x1 PUSH1 0xA0 SHL SWAP1 DIV PUSH1 0xFF AND PUSH1 0x3 DUP2 GT ISZERO PUSH2 0x1C56 JUMPI PUSH2 0x1C56 PUSH2 0x5884 JUMP JUMPDEST SWAP4 SWAP13 SWAP3 SWAP12 POP SWAP1 SWAP10 POP SWAP8 POP SWAP1 SWAP6 POP SWAP4 POP POP POP POP JUMP JUMPDEST PUSH1 0x60 PUSH1 0x46 DUP1 SLOAD PUSH2 0xB9A SWAP1 PUSH2 0x559B JUMP JUMPDEST PUSH1 0x60 PUSH2 0x1C90 PUSH4 0x9A7E1873 PUSH1 0xE0 SHL PUSH1 0x0 PUSH1 0x1 DUP2 PUSH2 0x3254 JUMP JUMPDEST PUSH1 0x0 DUP1 DUP4 PUSH1 0x1 PUSH1 0x1 PUSH1 0x40 SHL SUB DUP2 GT ISZERO PUSH2 0x1CAB JUMPI PUSH2 0x1CAB PUSH2 0x51A1 JUMP JUMPDEST PUSH1 0x40 MLOAD SWAP1 DUP1 DUP3 MSTORE DUP1 PUSH1 0x20 MUL PUSH1 0x20 ADD DUP3 ADD PUSH1 0x40 MSTORE DUP1 ISZERO PUSH2 0x1CD4 JUMPI DUP2 PUSH1 0x20 ADD PUSH1 0x20 DUP3 MUL DUP1 CALLDATASIZE DUP4 CALLDATACOPY ADD SWAP1 POP JUMPDEST POP SWAP1 POP PUSH1 0x0 JUMPDEST DUP5 DUP2 LT ISZERO PUSH2 0x1DA3 JUMPI PUSH2 0x1D0D DUP7 DUP7 DUP4 DUP2 DUP2 LT PUSH2 0x1CF7 JUMPI PUSH2 0x1CF7 PUSH2 0x5787 JUMP JUMPDEST PUSH2 0x104E SWAP3 PUSH1 0x20 PUSH1 0x80 SWAP1 SWAP3 MUL ADD SWAP1 DUP2 ADD SWAP2 POP PUSH2 0x4F76 JUMP JUMPDEST ISZERO PUSH2 0x1D2A JUMPI PUSH1 0x40 MLOAD PUSH3 0x461BCD PUSH1 0xE5 SHL DUP2 MSTORE PUSH1 0x4 ADD PUSH2 0xC90 SWAP1 PUSH2 0x57DF JUMP JUMPDEST PUSH2 0x1D4A DUP7 DUP7 DUP4 DUP2 DUP2 LT PUSH2 0x1D3F JUMPI PUSH2 0x1D3F PUSH2 0x5787 JUMP JUMPDEST SWAP1 POP PUSH1 0x80 MUL ADD PUSH2 0x3C6E JUMP JUMPDEST DUP3 DUP3 DUP2 MLOAD DUP2 LT PUSH2 0x1D5C JUMPI PUSH2 0x1D5C PUSH2 0x5787 JUMP JUMPDEST PUSH1 0x20 MUL PUSH1 0x20 ADD ADD DUP2 DUP2 MSTORE POP POP DUP6 DUP6 DUP3 DUP2 DUP2 LT PUSH2 0x1D7A JUMPI PUSH2 0x1D7A PUSH2 0x5787 JUMP JUMPDEST SWAP1 POP PUSH1 0x80 MUL ADD PUSH1 0x60 ADD CALLDATALOAD DUP4 PUSH2 0x1D8F SWAP2 SWAP1 PUSH2 0x57B3 JUMP JUMPDEST SWAP3 POP DUP1 PUSH2 0x1D9B DUP2 PUSH2 0x57C6 JUMP JUMPDEST SWAP2 POP POP PUSH2 0x1CDA JUMP JUMPDEST POP PUSH1 0x40 MLOAD DUP3 DUP2 MSTORE CALLER SWAP1 PUSH32 0x8E04D4DF873AA900CBE3C4B51AF80C003E2A72B8DFD36A6A2E54FDADBF4D1127 SWAP1 PUSH1 0x20 ADD PUSH1 0x40 MLOAD DUP1 SWAP2 SUB SWAP1 LOG2 SWAP5 SWAP4 POP POP POP POP JUMP JUMPDEST PUSH1 0x0 PUSH2 0x1DF7 PUSH4 0x4DAF9AB7 PUSH1 0xE1 SHL DUP3 PUSH1 0x1 DUP2 PUSH2 0x3254 JUMP JUMPDEST PUSH1 0x0 DUP1 JUMPDEST DUP4 DUP2 LT ISZERO PUSH2 0x1EA2 JUMPI PUSH2 0x1E3B DUP6 DUP6 DUP4 DUP2 DUP2 LT PUSH2 0x1E18 JUMPI PUSH2 0x1E18 PUSH2 0x5787 JUMP JUMPDEST SWAP1 POP PUSH1 0x20 MUL DUP2 ADD SWAP1 PUSH2 0x1E2A SWAP2 SWAP1 PUSH2 0x589A JUMP JUMPDEST PUSH2 0x104E SWAP1 PUSH1 0x40 DUP2 ADD SWAP1 PUSH1 0x20 ADD PUSH2 0x4F76 JUMP JUMPDEST ISZERO PUSH2 0x1E58 JUMPI PUSH1 0x40 MLOAD PUSH3 0x461BCD PUSH1 0xE5 SHL DUP2 MSTORE PUSH1 0x4 ADD PUSH2 0xC90 SWAP1 PUSH2 0x57DF JUMP JUMPDEST PUSH2 0x1E84 DUP6 DUP6 DUP4 DUP2 DUP2 LT PUSH2 0x1E6D JUMPI PUSH2 0x1E6D PUSH2 0x5787 JUMP JUMPDEST SWAP1 POP PUSH1 0x20 MUL DUP2 ADD SWAP1 PUSH2 0x1E7F SWAP2 SWAP1 PUSH2 0x589A JUMP JUMPDEST PUSH2 0x40DD JUMP JUMPDEST PUSH2 0x1E8E SWAP1 DUP4 PUSH2 0x57B3 JUMP JUMPDEST SWAP2 POP DUP1 PUSH2 0x1E9A DUP2 PUSH2 0x57C6 JUMP JUMPDEST SWAP2 POP POP PUSH2 0x1DFB JUMP JUMPDEST POP PUSH1 0x40 MLOAD DUP2 DUP2 MSTORE CALLER SWAP1 PUSH32 0x358CA32FB65DBE46A9AEC67304B927CF0C3EAF896217F853F9A93FEF2E920723 SWAP1 PUSH1 0x20 ADD PUSH2 0xF9B JUMP JUMPDEST PUSH1 0x0 PUSH2 0x1EEB PUSH4 0x2770A7EB PUSH1 0xE2 SHL DUP5 PUSH1 0x1 DUP1 PUSH2 0x3254 JUMP JUMPDEST PUSH1 0x1 PUSH1 0x1 PUSH1 0xA0 SHL SUB DUP4 AND PUSH2 0x1F11 JUMPI PUSH1 0x40 MLOAD PUSH3 0x461BCD PUSH1 0xE5 SHL DUP2 MSTORE PUSH1 0x4 ADD PUSH2 0xC90 SWAP1 PUSH2 0x584D JUMP JUMPDEST PUSH1 0x1 PUSH1 0x1 PUSH1 0xA0 SHL SUB DUP4 AND PUSH1 0x0 SWAP1 DUP2 MSTORE PUSH1 0x4A PUSH1 0x20 MSTORE PUSH1 0x40 SWAP1 KECCAK256 SLOAD DUP3 DUP2 LT ISZERO PUSH2 0x1F7A JUMPI PUSH1 0x40 MLOAD PUSH3 0x461BCD PUSH1 0xE5 SHL DUP2 MSTORE PUSH1 0x20 PUSH1 0x4 DUP3 ADD MSTORE PUSH1 0x1C PUSH1 0x24 DUP3 ADD MSTORE PUSH32 0x496E73756666696369656E74204163636F756E742042616C616E636500000000 PUSH1 0x44 DUP3 ADD MSTORE PUSH1 0x64 ADD PUSH2 0xC90 JUMP JUMPDEST PUSH1 0x1 PUSH1 0x1 PUSH1 0xA0 SHL SUB DUP5 AND PUSH1 0x0 SWAP1 DUP2 MSTORE PUSH1 0x4A PUSH1 0x20 MSTORE PUSH1 0x40 DUP2 KECCAK256 DUP5 DUP4 SUB SWAP1 SSTORE PUSH1 0x47 DUP1 SLOAD DUP6 SWAP3 SWAP1 PUSH2 0x1FA9 SWAP1 DUP5 SWAP1 PUSH2 0x58BA JUMP JUMPDEST SWAP1 SWAP2 SSTORE POP POP PUSH1 0x47 SLOAD PUSH1 0x40 DUP1 MLOAD DUP6 DUP2 MSTORE PUSH1 0x20 DUP2 ADD SWAP3 SWAP1 SWAP3 MSTORE PUSH1 0x1 PUSH1 0x1 PUSH1 0xA0 SHL SUB DUP7 AND SWAP2 CALLER SWAP2 PUSH32 0x5D624AA9C148153AB3446C1B154F660EE7701E549FE9B62DAB7171B1C80E6FA2 SWAP2 ADD PUSH1 0x40 MLOAD DUP1 SWAP2 SUB SWAP1 LOG3 POP POP PUSH1 0x47 SLOAD SWAP3 SWAP2 POP POP JUMP JUMPDEST PUSH1 0x0 PUSH2 0x2019 PUSH4 0x9FD5A6CF PUSH1 0xE0 SHL DUP9 PUSH1 0x1 DUP1 PUSH2 0x3254 JUMP JUMPDEST DUP4 TIMESTAMP GT ISZERO PUSH2 0x2069 JUMPI PUSH1 0x40 MLOAD PUSH3 0x461BCD PUSH1 0xE5 SHL DUP2 MSTORE PUSH1 0x20 PUSH1 0x4 DUP3 ADD MSTORE PUSH1 0x17 PUSH1 0x24 DUP3 ADD MSTORE PUSH32 0x5065726D697420446561646C696E652045787069726564000000000000000000 PUSH1 0x44 DUP3 ADD MSTORE PUSH1 0x64 ADD PUSH2 0xC90 JUMP JUMPDEST PUSH1 0x0 PUSH32 0x6E71EDAE12B1B97F4D1F60370FEF10105FA2FAAE0126114A169C64845D6126C9 DUP9 DUP9 DUP9 PUSH2 0x2098 DUP13 PUSH2 0x41CC JUMP JUMPDEST PUSH1 0x40 DUP1 MLOAD PUSH1 0x20 DUP2 ADD SWAP7 SWAP1 SWAP7 MSTORE PUSH1 0x1 PUSH1 0x1 PUSH1 0xA0 SHL SUB SWAP5 DUP6 AND SWAP1 DUP7 ADD MSTORE SWAP3 SWAP1 SWAP2 AND PUSH1 0x60 DUP5 ADD MSTORE PUSH1 0x80 DUP4 ADD MSTORE PUSH1 0xA0 DUP3 ADD MSTORE PUSH1 0xC0 DUP2 ADD DUP7 SWAP1 MSTORE PUSH1 0xE0 ADD PUSH1 0x40 MLOAD PUSH1 0x20 DUP2 DUP4 SUB SUB DUP2 MSTORE SWAP1 PUSH1 0x40 MSTORE DUP1 MLOAD SWAP1 PUSH1 0x20 ADD KECCAK256 SWAP1 POP PUSH1 0x0 PUSH2 0x2136 PUSH2 0x20F5 PUSH2 0x41F7 JUMP JUMPDEST DUP4 PUSH1 0x40 MLOAD PUSH2 0x1901 PUSH1 0xF0 SHL PUSH1 0x20 DUP3 ADD MSTORE PUSH1 0x22 DUP2 ADD DUP4 SWAP1 MSTORE PUSH1 0x42 DUP2 ADD DUP3 SWAP1 MSTORE PUSH1 0x0 SWAP1 PUSH1 0x62 ADD PUSH1 0x40 MLOAD PUSH1 0x20 DUP2 DUP4 SUB SUB DUP2 MSTORE SWAP1 PUSH1 0x40 MSTORE DUP1 MLOAD SWAP1 PUSH1 0x20 ADD KECCAK256 SWAP1 POP SWAP3 SWAP2 POP POP JUMP JUMPDEST SWAP1 POP PUSH1 0x0 PUSH2 0x217A DUP3 DUP8 DUP8 DUP1 DUP1 PUSH1 0x1F ADD PUSH1 0x20 DUP1 SWAP2 DIV MUL PUSH1 0x20 ADD PUSH1 0x40 MLOAD SWAP1 DUP2 ADD PUSH1 0x40 MSTORE DUP1 SWAP4 SWAP3 SWAP2 SWAP1 DUP2 DUP2 MSTORE PUSH1 0x20 ADD DUP4 DUP4 DUP1 DUP3 DUP5 CALLDATACOPY PUSH1 0x0 SWAP3 ADD SWAP2 SWAP1 SWAP2 MSTORE POP PUSH2 0x4260 SWAP3 POP POP POP JUMP JUMPDEST SWAP1 POP DUP10 PUSH1 0x1 PUSH1 0x1 PUSH1 0xA0 SHL SUB AND DUP2 PUSH1 0x1 PUSH1 0x1 PUSH1 0xA0 SHL SUB AND EQ PUSH2 0x21DD JUMPI PUSH1 0x40 MLOAD PUSH3 0x461BCD PUSH1 0xE5 SHL DUP2 MSTORE PUSH1 0x20 PUSH1 0x4 DUP3 ADD MSTORE PUSH1 0x18 PUSH1 0x24 DUP3 ADD MSTORE PUSH32 0x496C6C6567616C20454344415341205369676E61747572650000000000000000 PUSH1 0x44 DUP3 ADD MSTORE PUSH1 0x64 ADD PUSH2 0xC90 JUMP JUMPDEST PUSH2 0x21E8 DUP11 DUP11 DUP11 PUSH2 0x3352 JUMP JUMPDEST POP PUSH1 0x1 SWAP10 SWAP9 POP POP POP POP POP POP POP POP POP JUMP JUMPDEST PUSH1 0x0 PUSH2 0x220B PUSH4 0xA457C2D7 PUSH1 0xE0 SHL CALLER PUSH2 0xC2C JUMP JUMPDEST CALLER PUSH2 0x2217 DUP2 DUP6 DUP6 PUSH2 0x4284 JUMP JUMPDEST DUP4 PUSH1 0x1 PUSH1 0x1 PUSH1 0xA0 SHL SUB AND DUP2 PUSH1 0x1 PUSH1 0x1 PUSH1 0xA0 SHL SUB AND PUSH32 0x2D6189480D1BB13DA7C0ED0063FE94AF3C19EED814940DB43733C4198D00A742 DUP6 PUSH1 0x40 MLOAD PUSH2 0x225C SWAP2 DUP2 MSTORE PUSH1 0x20 ADD SWAP1 JUMP JUMPDEST PUSH1 0x40 MLOAD DUP1 SWAP2 SUB SWAP1 LOG3 PUSH2 0x226E DUP2 DUP6 PUSH2 0x37EF JUMP JUMPDEST SWAP5 SWAP4 POP POP POP POP JUMP JUMPDEST PUSH1 0x0 PUSH2 0x2289 PUSH4 0xA5BFA9A9 PUSH1 0xE0 SHL CALLER PUSH2 0xC2C JUMP JUMPDEST PUSH2 0xB85 DUP3 PUSH2 0x363D JUMP JUMPDEST PUSH1 0x0 PUSH2 0x22A5 PUSH4 0xA9059CBB PUSH1 0xE0 SHL CALLER PUSH2 0xC2C JUMP JUMPDEST PUSH1 0x0 PUSH1 0x48 SLOAD GT DUP1 ISZERO PUSH2 0x22C1 JUMPI POP PUSH2 0x22BF CALLER JUMPDEST PUSH1 0x4F SWAP1 PUSH2 0x3724 JUMP JUMPDEST ISZERO JUMPDEST ISZERO PUSH2 0x22D6 JUMPI PUSH2 0x22D1 CALLER DUP5 DUP5 PUSH2 0x42F5 JUMP JUMPDEST PUSH2 0xC3F JUMP JUMPDEST PUSH2 0xC3F CALLER DUP5 DUP5 PUSH2 0x437C JUMP JUMPDEST PUSH1 0x0 PUSH1 0x1 PUSH1 0x1 PUSH1 0xA0 SHL SUB PUSH32 0x0 AND ADDRESS SUB PUSH2 0x232B JUMPI PUSH1 0x40 MLOAD PUSH3 0x461BCD PUSH1 0xE5 SHL DUP2 MSTORE PUSH1 0x4 ADD PUSH2 0xC90 SWAP1 PUSH2 0x55CF JUMP JUMPDEST PUSH32 0x0 PUSH1 0x1 PUSH1 0x1 PUSH1 0xA0 SHL SUB AND PUSH2 0x235D PUSH2 0x3458 JUMP JUMPDEST PUSH1 0x1 PUSH1 0x1 PUSH1 0xA0 SHL SUB AND EQ PUSH2 0x2383 JUMPI PUSH1 0x40 MLOAD PUSH3 0x461BCD PUSH1 0xE5 SHL DUP2 MSTORE PUSH1 0x4 ADD PUSH2 0xC90 SWAP1 PUSH2 0x55FE JUMP JUMPDEST PUSH1 0x4 SLOAD PUSH1 0xFF AND ISZERO PUSH2 0x23A6 JUMPI PUSH1 0x40 MLOAD PUSH3 0x461BCD PUSH1 0xE5 SHL DUP2 MSTORE PUSH1 0x4 ADD PUSH2 0xC90 SWAP1 PUSH2 0x5816 JUMP JUMPDEST PUSH2 0x23B6 PUSH4 0xD9DC1F19 PUSH1 0xE0 SHL PUSH2 0x38DA JUMP JUMPDEST PUSH2 0x2402 JUMPI PUSH1 0x40 MLOAD PUSH3 0x461BCD PUSH1 0xE5 SHL DUP2 MSTORE PUSH1 0x20 PUSH1 0x4 DUP3 ADD MSTORE PUSH1 0x17 PUSH1 0x24 DUP3 ADD MSTORE PUSH32 0x5365744C6F63616C41646D696E20466F7262696464656E000000000000000000 PUSH1 0x44 DUP3 ADD MSTORE PUSH1 0x64 ADD PUSH2 0xC90 JUMP JUMPDEST PUSH1 0x1 PUSH1 0x1 PUSH1 0xA0 SHL SUB DUP3 AND PUSH2 0x244A JUMPI PUSH1 0x40 MLOAD PUSH3 0x461BCD PUSH1 0xE5 SHL DUP2 MSTORE PUSH1 0x20 PUSH1 0x4 DUP3 ADD MSTORE PUSH1 0xF PUSH1 0x24 DUP3 ADD MSTORE PUSH15 0x1059191C995CDCC8125B9D985B1A59 PUSH1 0x8A SHL PUSH1 0x44 DUP3 ADD MSTORE PUSH1 0x64 ADD PUSH2 0xC90 JUMP JUMPDEST PUSH2 0x2453 DUP3 PUSH2 0x4442 JUMP JUMPDEST POP PUSH1 0x1 SWAP2 SWAP1 POP JUMP JUMPDEST PUSH1 0x0 PUSH2 0x118A DUP4 DUP4 PUSH2 0x37EF JUMP JUMPDEST PUSH1 0x60 PUSH2 0x11A0 PUSH1 0x4D PUSH2 0x4091 JUMP JUMPDEST PUSH1 0x4 SLOAD PUSH1 0x0 SWAP1 PUSH1 0xFF AND ISZERO PUSH2 0x2499 JUMPI PUSH1 0x40 MLOAD PUSH3 0x461BCD PUSH1 0xE5 SHL DUP2 MSTORE PUSH1 0x4 ADD PUSH2 0xC90 SWAP1 PUSH2 0x5816 JUMP JUMPDEST PUSH4 0xEC4AC1F7 PUSH1 0xE0 SHL PUSH2 0x24AA DUP2 PUSH2 0x38DA JUMP JUMPDEST PUSH2 0x24E6 JUMPI PUSH1 0x40 MLOAD PUSH3 0x461BCD PUSH1 0xE5 SHL DUP2 MSTORE PUSH1 0x20 PUSH1 0x4 DUP3 ADD MSTORE PUSH1 0xD PUSH1 0x24 DUP3 ADD MSTORE PUSH13 0x1058D8D95CDCC811195B9A5959 PUSH1 0x9A SHL PUSH1 0x44 DUP3 ADD MSTORE PUSH1 0x64 ADD PUSH2 0xC90 JUMP JUMPDEST PUSH1 0x49 SLOAD PUSH1 0x1 PUSH1 0xA8 SHL SWAP1 DIV PUSH1 0xFF AND ISZERO PUSH2 0x2540 JUMPI PUSH1 0x40 MLOAD PUSH3 0x461BCD PUSH1 0xE5 SHL DUP2 MSTORE PUSH1 0x20 PUSH1 0x4 DUP3 ADD MSTORE PUSH1 0x19 PUSH1 0x24 DUP3 ADD MSTORE PUSH32 0x546F6B656E20416C726561647920446973747269627574656400000000000000 PUSH1 0x44 DUP3 ADD MSTORE PUSH1 0x64 ADD PUSH2 0xC90 JUMP JUMPDEST PUSH1 0x40 MLOAD PUSH4 0x1FFC9A7 PUSH1 0xE0 SHL DUP2 MSTORE PUSH4 0x1C8B5D5B PUSH1 0xE1 SHL PUSH1 0x4 DUP3 ADD MSTORE PUSH1 0x1 PUSH1 0x1 PUSH1 0xA0 SHL SUB DUP6 AND SWAP1 PUSH4 0x1FFC9A7 SWAP1 PUSH1 0x24 ADD PUSH1 0x20 PUSH1 0x40 MLOAD DUP1 DUP4 SUB DUP2 DUP7 GAS STATICCALL SWAP3 POP POP POP DUP1 ISZERO PUSH2 0x25A7 JUMPI POP PUSH1 0x40 DUP1 MLOAD PUSH1 0x1F RETURNDATASIZE SWAP1 DUP2 ADD PUSH1 0x1F NOT AND DUP3 ADD SWAP1 SWAP3 MSTORE PUSH2 0x25A4 SWAP2 DUP2 ADD SWAP1 PUSH2 0x58D8 JUMP JUMPDEST PUSH1 0x1 JUMPDEST PUSH2 0x25F3 JUMPI PUSH1 0x40 MLOAD PUSH3 0x461BCD PUSH1 0xE5 SHL DUP2 MSTORE PUSH1 0x20 PUSH1 0x4 DUP3 ADD MSTORE PUSH1 0x1A PUSH1 0x24 DUP3 ADD MSTORE PUSH32 0x496C6C6567616C204941737365744D616E616765724552433230000000000000 PUSH1 0x44 DUP3 ADD MSTORE PUSH1 0x64 ADD PUSH2 0xC90 JUMP JUMPDEST DUP1 PUSH2 0x2640 JUMPI PUSH1 0x40 MLOAD PUSH3 0x461BCD PUSH1 0xE5 SHL DUP2 MSTORE PUSH1 0x20 PUSH1 0x4 DUP3 ADD MSTORE PUSH1 0x1A PUSH1 0x24 DUP3 ADD MSTORE PUSH32 0x496E76616C6964204941737365744D616E616765724552433230000000000000 PUSH1 0x44 DUP3 ADD MSTORE PUSH1 0x64 ADD PUSH2 0xC90 JUMP JUMPDEST POP PUSH2 0x2657 DUP5 PUSH12 0x1027E72F1F12813088000000 PUSH2 0x381A JUMP JUMPDEST POP PUSH1 0x0 JUMPDEST PUSH1 0x7 DUP2 LT ISZERO PUSH2 0x30CE JUMPI DUP4 DUP2 PUSH1 0x7 DUP2 LT PUSH2 0x2676 JUMPI PUSH2 0x2676 PUSH2 0x5787 JUMP JUMPDEST PUSH1 0x20 MUL ADD PUSH1 0x20 DUP2 ADD SWAP1 PUSH2 0x2689 SWAP2 SWAP1 PUSH2 0x4F76 JUMP JUMPDEST PUSH1 0x40 MLOAD PUSH4 0x1FFC9A7 PUSH1 0xE0 SHL DUP2 MSTORE PUSH4 0x9673B47D PUSH1 0xE0 SHL PUSH1 0x4 DUP3 ADD MSTORE PUSH1 0x1 PUSH1 0x1 PUSH1 0xA0 SHL SUB SWAP2 SWAP1 SWAP2 AND SWAP1 PUSH4 0x1FFC9A7 SWAP1 PUSH1 0x24 ADD PUSH1 0x20 PUSH1 0x40 MLOAD DUP1 DUP4 SUB DUP2 DUP7 GAS STATICCALL SWAP3 POP POP POP DUP1 ISZERO PUSH2 0x26F2 JUMPI POP PUSH1 0x40 DUP1 MLOAD PUSH1 0x1F RETURNDATASIZE SWAP1 DUP2 ADD PUSH1 0x1F NOT AND DUP3 ADD SWAP1 SWAP3 MSTORE PUSH2 0x26EF SWAP2 DUP2 ADD SWAP1 PUSH2 0x58D8 JUMP JUMPDEST PUSH1 0x1 JUMPDEST PUSH2 0x2735 JUMPI PUSH1 0x40 MLOAD PUSH3 0x461BCD PUSH1 0xE5 SHL DUP2 MSTORE PUSH1 0x20 PUSH1 0x4 DUP3 ADD MSTORE PUSH1 0x14 PUSH1 0x24 DUP3 ADD MSTORE PUSH20 0x496C6C6567616C20494173736574456E74697479 PUSH1 0x60 SHL PUSH1 0x44 DUP3 ADD MSTORE PUSH1 0x64 ADD PUSH2 0xC90 JUMP JUMPDEST DUP1 PUSH2 0x2779 JUMPI PUSH1 0x40 MLOAD PUSH3 0x461BCD PUSH1 0xE5 SHL DUP2 MSTORE PUSH1 0x20 PUSH1 0x4 DUP3 ADD MSTORE PUSH1 0x14 PUSH1 0x24 DUP3 ADD MSTORE PUSH20 0x496E76616C696420494173736574456E74697479 PUSH1 0x60 SHL PUSH1 0x44 DUP3 ADD MSTORE PUSH1 0x64 ADD PUSH2 0xC90 JUMP JUMPDEST POP ADDRESS DUP5 DUP3 PUSH1 0x7 DUP2 LT PUSH2 0x278D JUMPI PUSH2 0x278D PUSH2 0x5787 JUMP JUMPDEST PUSH1 0x20 MUL ADD PUSH1 0x20 DUP2 ADD SWAP1 PUSH2 0x27A0 SWAP2 SWAP1 PUSH2 0x4F76 JUMP JUMPDEST PUSH1 0x1 PUSH1 0x1 PUSH1 0xA0 SHL SUB AND PUSH4 0x1083F761 PUSH1 0x40 MLOAD DUP2 PUSH4 0xFFFFFFFF AND PUSH1 0xE0 SHL DUP2 MSTORE PUSH1 0x4 ADD PUSH1 0x20 PUSH1 0x40 MLOAD DUP1 DUP4 SUB DUP2 DUP7 GAS STATICCALL ISZERO DUP1 ISZERO PUSH2 0x27DD JUMPI RETURNDATASIZE PUSH1 0x0 DUP1 RETURNDATACOPY RETURNDATASIZE PUSH1 0x0 REVERT JUMPDEST POP POP POP POP PUSH1 0x40 MLOAD RETURNDATASIZE PUSH1 0x1F NOT PUSH1 0x1F DUP3 ADD AND DUP3 ADD DUP1 PUSH1 0x40 MSTORE POP DUP2 ADD SWAP1 PUSH2 0x2801 SWAP2 SWAP1 PUSH2 0x58F5 JUMP JUMPDEST PUSH1 0x1 PUSH1 0x1 PUSH1 0xA0 SHL SUB AND EQ PUSH2 0x284D JUMPI PUSH1 0x40 MLOAD PUSH3 0x461BCD PUSH1 0xE5 SHL DUP2 MSTORE PUSH1 0x20 PUSH1 0x4 DUP3 ADD MSTORE PUSH1 0x13 PUSH1 0x24 DUP3 ADD MSTORE PUSH19 0x24B73B30B634B21020B9B9B2BA102A37B5B2B7 PUSH1 0x69 SHL PUSH1 0x44 DUP3 ADD MSTORE PUSH1 0x64 ADD PUSH2 0xC90 JUMP JUMPDEST PUSH1 0x40 DUP1 MLOAD PUSH32 0x4C4956454C595F415544494F5F564944454F5F50524F4752414D5F4153534554 PUSH1 0x20 DUP3 ADD MSTORE ADD PUSH1 0x40 MLOAD PUSH1 0x20 DUP2 DUP4 SUB SUB DUP2 MSTORE SWAP1 PUSH1 0x40 MSTORE DUP1 MLOAD SWAP1 PUSH1 0x20 ADD KECCAK256 DUP5 DUP3 PUSH1 0x7 DUP2 LT PUSH2 0x28A0 JUMPI PUSH2 0x28A0 PUSH2 0x5787 JUMP JUMPDEST PUSH1 0x20 MUL ADD PUSH1 0x20 DUP2 ADD SWAP1 PUSH2 0x28B3 SWAP2 SWAP1 PUSH2 0x4F76 JUMP JUMPDEST PUSH1 0x1 PUSH1 0x1 PUSH1 0xA0 SHL SUB AND PUSH4 0xC9230C5D PUSH1 0x40 MLOAD DUP2 PUSH4 0xFFFFFFFF AND PUSH1 0xE0 SHL DUP2 MSTORE PUSH1 0x4 ADD PUSH1 0x20 PUSH1 0x40 MLOAD DUP1 DUP4 SUB DUP2 DUP7 GAS STATICCALL ISZERO DUP1 ISZERO PUSH2 0x28F0 JUMPI RETURNDATASIZE PUSH1 0x0 DUP1 RETURNDATACOPY RETURNDATASIZE PUSH1 0x0 REVERT JUMPDEST POP POP POP POP PUSH1 0x40 MLOAD RETURNDATASIZE PUSH1 0x1F NOT PUSH1 0x1F DUP3 ADD AND DUP3 ADD DUP1 PUSH1 0x40 MSTORE POP DUP2 ADD SWAP1 PUSH2 0x2914 SWAP2 SWAP1 PUSH2 0x5912 JUMP JUMPDEST SUB PUSH2 0x2986 JUMPI PUSH2 0x2946 DUP5 DUP3 PUSH1 0x7 DUP2 LT PUSH2 0x292E JUMPI PUSH2 0x292E PUSH2 0x5787 JUMP JUMPDEST PUSH1 0x20 MUL ADD PUSH1 0x20 DUP2 ADD SWAP1 PUSH2 0x2941 SWAP2 SWAP1 PUSH2 0x4F76 JUMP JUMPDEST PUSH2 0x44B9 JUMP JUMPDEST PUSH2 0x2981 CALLER DUP6 DUP4 PUSH1 0x7 DUP2 LT PUSH2 0x295C JUMPI PUSH2 0x295C PUSH2 0x5787 JUMP JUMPDEST PUSH1 0x20 MUL ADD PUSH1 0x20 DUP2 ADD SWAP1 PUSH2 0x296F SWAP2 SWAP1 PUSH2 0x4F76 JUMP JUMPDEST PUSH12 0x19D971E4FE8401E74000000 PUSH2 0x437C JUMP JUMPDEST PUSH2 0x30BC JUMP JUMPDEST PUSH1 0x40 MLOAD PUSH32 0x4C4956454C595F464F554E44494E475F5445414D5F4153534554000000000000 PUSH1 0x20 DUP3 ADD MSTORE PUSH1 0x3A ADD PUSH1 0x40 MLOAD PUSH1 0x20 DUP2 DUP4 SUB SUB DUP2 MSTORE SWAP1 PUSH1 0x40 MSTORE DUP1 MLOAD SWAP1 PUSH1 0x20 ADD KECCAK256 DUP5 DUP3 PUSH1 0x7 DUP2 LT PUSH2 0x29DA JUMPI PUSH2 0x29DA PUSH2 0x5787 JUMP JUMPDEST PUSH1 0x20 MUL ADD PUSH1 0x20 DUP2 ADD SWAP1 PUSH2 0x29ED SWAP2 SWAP1 PUSH2 0x4F76 JUMP JUMPDEST PUSH1 0x1 PUSH1 0x1 PUSH1 0xA0 SHL SUB AND PUSH4 0xC9230C5D PUSH1 0x40 MLOAD DUP2 PUSH4 0xFFFFFFFF AND PUSH1 0xE0 SHL DUP2 MSTORE PUSH1 0x4 ADD PUSH1 0x20 PUSH1 0x40 MLOAD DUP1 DUP4 SUB DUP2 DUP7 GAS STATICCALL ISZERO DUP1 ISZERO PUSH2 0x2A2A JUMPI RETURNDATASIZE PUSH1 0x0 DUP1 RETURNDATACOPY RETURNDATASIZE PUSH1 0x0 REVERT JUMPDEST POP POP POP POP PUSH1 0x40 MLOAD RETURNDATASIZE PUSH1 0x1F NOT PUSH1 0x1F DUP3 ADD AND DUP3 ADD DUP1 PUSH1 0x40 MSTORE POP DUP2 ADD SWAP1 PUSH2 0x2A4E SWAP2 SWAP1 PUSH2 0x5912 JUMP JUMPDEST SUB PUSH2 0x2AA3 JUMPI PUSH2 0x2A68 DUP5 DUP3 PUSH1 0x7 DUP2 LT PUSH2 0x292E JUMPI PUSH2 0x292E PUSH2 0x5787 JUMP JUMPDEST PUSH2 0x2981 CALLER DUP6 DUP4 PUSH1 0x7 DUP2 LT PUSH2 0x2A7E JUMPI PUSH2 0x2A7E PUSH2 0x5787 JUMP JUMPDEST PUSH1 0x20 MUL ADD PUSH1 0x20 DUP2 ADD SWAP1 PUSH2 0x2A91 SWAP2 SWAP1 PUSH2 0x4F76 JUMP JUMPDEST PUSH12 0x2E87669C308736A04000000 PUSH2 0x437C JUMP JUMPDEST PUSH1 0x40 MLOAD PUSH21 0x13125591531657D514915054D5549657D054D4D155 PUSH1 0x5A SHL PUSH1 0x20 DUP3 ADD MSTORE PUSH1 0x35 ADD PUSH1 0x40 MLOAD PUSH1 0x20 DUP2 DUP4 SUB SUB DUP2 MSTORE SWAP1 PUSH1 0x40 MSTORE DUP1 MLOAD SWAP1 PUSH1 0x20 ADD KECCAK256 DUP5 DUP3 PUSH1 0x7 DUP2 LT PUSH2 0x2AEF JUMPI PUSH2 0x2AEF PUSH2 0x5787 JUMP JUMPDEST PUSH1 0x20 MUL ADD PUSH1 0x20 DUP2 ADD SWAP1 PUSH2 0x2B02 SWAP2 SWAP1 PUSH2 0x4F76 JUMP JUMPDEST PUSH1 0x1 PUSH1 0x1 PUSH1 0xA0 SHL SUB AND PUSH4 0xC9230C5D PUSH1 0x40 MLOAD DUP2 PUSH4 0xFFFFFFFF AND PUSH1 0xE0 SHL DUP2 MSTORE PUSH1 0x4 ADD PUSH1 0x20 PUSH1 0x40 MLOAD DUP1 DUP4 SUB DUP2 DUP7 GAS STATICCALL ISZERO DUP1 ISZERO PUSH2 0x2B3F JUMPI RETURNDATASIZE PUSH1 0x0 DUP1 RETURNDATACOPY RETURNDATASIZE PUSH1 0x0 REVERT JUMPDEST POP POP POP POP PUSH1 0x40 MLOAD RETURNDATASIZE PUSH1 0x1F NOT PUSH1 0x1F DUP3 ADD AND DUP3 ADD DUP1 PUSH1 0x40 MSTORE POP DUP2 ADD SWAP1 PUSH2 0x2B63 SWAP2 SWAP1 PUSH2 0x5912 JUMP JUMPDEST SUB PUSH2 0x2BB8 JUMPI PUSH2 0x2B7D DUP5 DUP3 PUSH1 0x7 DUP2 LT PUSH2 0x292E JUMPI PUSH2 0x292E PUSH2 0x5787 JUMP JUMPDEST PUSH2 0x2981 CALLER DUP6 DUP4 PUSH1 0x7 DUP2 LT PUSH2 0x2B93 JUMPI PUSH2 0x2B93 PUSH2 0x5787 JUMP JUMPDEST PUSH1 0x20 MUL ADD PUSH1 0x20 DUP2 ADD SWAP1 PUSH2 0x2BA6 SWAP2 SWAP1 PUSH2 0x4F76 JUMP JUMPDEST PUSH12 0x26C62AD77DC602DAE000000 PUSH2 0x437C JUMP JUMPDEST PUSH1 0x40 MLOAD PUSH32 0x4C4956454C595F5055424C49435F53414C455F41535345540000000000000000 PUSH1 0x20 DUP3 ADD MSTORE PUSH1 0x38 ADD PUSH1 0x40 MLOAD PUSH1 0x20 DUP2 DUP4 SUB SUB DUP2 MSTORE SWAP1 PUSH1 0x40 MSTORE DUP1 MLOAD SWAP1 PUSH1 0x20 ADD KECCAK256 DUP5 DUP3 PUSH1 0x7 DUP2 LT PUSH2 0x2C0C JUMPI PUSH2 0x2C0C PUSH2 0x5787 JUMP JUMPDEST PUSH1 0x20 MUL ADD PUSH1 0x20 DUP2 ADD SWAP1 PUSH2 0x2C1F SWAP2 SWAP1 PUSH2 0x4F76 JUMP JUMPDEST PUSH1 0x1 PUSH1 0x1 PUSH1 0xA0 SHL SUB AND PUSH4 0xC9230C5D PUSH1 0x40 MLOAD DUP2 PUSH4 0xFFFFFFFF AND PUSH1 0xE0 SHL DUP2 MSTORE PUSH1 0x4 ADD PUSH1 0x20 PUSH1 0x40 MLOAD DUP1 DUP4 SUB DUP2 DUP7 GAS STATICCALL ISZERO DUP1 ISZERO PUSH2 0x2C5C JUMPI RETURNDATASIZE PUSH1 0x0 DUP1 RETURNDATACOPY RETURNDATASIZE PUSH1 0x0 REVERT JUMPDEST POP POP POP POP PUSH1 0x40 MLOAD RETURNDATASIZE PUSH1 0x1F NOT PUSH1 0x1F DUP3 ADD AND DUP3 ADD DUP1 PUSH1 0x40 MSTORE POP DUP2 ADD SWAP1 PUSH2 0x2C80 SWAP2 SWAP1 PUSH2 0x5912 JUMP JUMPDEST SUB PUSH2 0x2CD5 JUMPI PUSH2 0x2C9A DUP5 DUP3 PUSH1 0x7 DUP2 LT PUSH2 0x292E JUMPI PUSH2 0x292E PUSH2 0x5787 JUMP JUMPDEST PUSH2 0x2981 CALLER DUP6 DUP4 PUSH1 0x7 DUP2 LT PUSH2 0x2CB0 JUMPI PUSH2 0x2CB0 PUSH2 0x5787 JUMP JUMPDEST PUSH1 0x20 MUL ADD PUSH1 0x20 DUP2 ADD SWAP1 PUSH2 0x2CC3 SWAP2 SWAP1 PUSH2 0x4F76 JUMP JUMPDEST PUSH12 0x6765C793FA10079D0000000 PUSH2 0x437C JUMP JUMPDEST PUSH1 0x40 MLOAD PUSH32 0x4C4956454C595F56414C494441544F52535F524557415244535F415353455400 PUSH1 0x20 DUP3 ADD MSTORE PUSH1 0x3F ADD PUSH1 0x40 MLOAD PUSH1 0x20 DUP2 DUP4 SUB SUB DUP2 MSTORE SWAP1 PUSH1 0x40 MSTORE DUP1 MLOAD SWAP1 PUSH1 0x20 ADD KECCAK256 DUP5 DUP3 PUSH1 0x7 DUP2 LT PUSH2 0x2D29 JUMPI PUSH2 0x2D29 PUSH2 0x5787 JUMP JUMPDEST PUSH1 0x20 MUL ADD PUSH1 0x20 DUP2 ADD SWAP1 PUSH2 0x2D3C SWAP2 SWAP1 PUSH2 0x4F76 JUMP JUMPDEST PUSH1 0x1 PUSH1 0x1 PUSH1 0xA0 SHL SUB AND PUSH4 0xC9230C5D PUSH1 0x40 MLOAD DUP2 PUSH4 0xFFFFFFFF AND PUSH1 0xE0 SHL DUP2 MSTORE PUSH1 0x4 ADD PUSH1 0x20 PUSH1 0x40 MLOAD DUP1 DUP4 SUB DUP2 DUP7 GAS STATICCALL ISZERO DUP1 ISZERO PUSH2 0x2D79 JUMPI RETURNDATASIZE PUSH1 0x0 DUP1 RETURNDATACOPY RETURNDATASIZE PUSH1 0x0 REVERT JUMPDEST POP POP POP POP PUSH1 0x40 MLOAD RETURNDATASIZE PUSH1 0x1F NOT PUSH1 0x1F DUP3 ADD AND DUP3 ADD DUP1 PUSH1 0x40 MSTORE POP DUP2 ADD SWAP1 PUSH2 0x2D9D SWAP2 SWAP1 PUSH2 0x5912 JUMP JUMPDEST SUB PUSH2 0x2DF1 JUMPI PUSH2 0x2DB7 DUP5 DUP3 PUSH1 0x7 DUP2 LT PUSH2 0x292E JUMPI PUSH2 0x292E PUSH2 0x5787 JUMP JUMPDEST PUSH2 0x2981 CALLER DUP6 DUP4 PUSH1 0x7 DUP2 LT PUSH2 0x2DCD JUMPI PUSH2 0x2DCD PUSH2 0x5787 JUMP JUMPDEST PUSH1 0x20 MUL ADD PUSH1 0x20 DUP2 ADD SWAP1 PUSH2 0x2DE0 SWAP2 SWAP1 PUSH2 0x4F76 JUMP JUMPDEST PUSH11 0xF8277896582678AC000000 PUSH2 0x437C JUMP JUMPDEST PUSH1 0x40 MLOAD PUSH32 0x4C4956454C595F43524F57445F464F554E44494E475F41535345540000000000 PUSH1 0x20 DUP3 ADD MSTORE PUSH1 0x3B ADD PUSH1 0x40 MLOAD PUSH1 0x20 DUP2 DUP4 SUB SUB DUP2 MSTORE SWAP1 PUSH1 0x40 MSTORE DUP1 MLOAD SWAP1 PUSH1 0x20 ADD KECCAK256 DUP5 DUP3 PUSH1 0x7 DUP2 LT PUSH2 0x2E45 JUMPI PUSH2 0x2E45 PUSH2 0x5787 JUMP JUMPDEST PUSH1 0x20 MUL ADD PUSH1 0x20 DUP2 ADD SWAP1 PUSH2 0x2E58 SWAP2 SWAP1 PUSH2 0x4F76 JUMP JUMPDEST PUSH1 0x1 PUSH1 0x1 PUSH1 0xA0 SHL SUB AND PUSH4 0xC9230C5D PUSH1 0x40 MLOAD DUP2 PUSH4 0xFFFFFFFF AND PUSH1 0xE0 SHL DUP2 MSTORE PUSH1 0x4 ADD PUSH1 0x20 PUSH1 0x40 MLOAD DUP1 DUP4 SUB DUP2 DUP7 GAS STATICCALL ISZERO DUP1 ISZERO PUSH2 0x2E95 JUMPI RETURNDATASIZE PUSH1 0x0 DUP1 RETURNDATACOPY RETURNDATASIZE PUSH1 0x0 REVERT JUMPDEST POP POP POP POP PUSH1 0x40 MLOAD RETURNDATASIZE PUSH1 0x1F NOT PUSH1 0x1F DUP3 ADD AND DUP3 ADD DUP1 PUSH1 0x40 MSTORE POP DUP2 ADD SWAP1 PUSH2 0x2EB9 SWAP2 SWAP1 PUSH2 0x5912 JUMP JUMPDEST SUB PUSH2 0x2F0E JUMPI PUSH2 0x2ED3 DUP5 DUP3 PUSH1 0x7 DUP2 LT PUSH2 0x292E JUMPI PUSH2 0x292E PUSH2 0x5787 JUMP JUMPDEST PUSH2 0x2981 CALLER DUP6 DUP4 PUSH1 0x7 DUP2 LT PUSH2 0x2EE9 JUMPI PUSH2 0x2EE9 PUSH2 0x5787 JUMP JUMPDEST PUSH1 0x20 MUL ADD PUSH1 0x20 DUP2 ADD SWAP1 PUSH2 0x2EFC SWAP2 SWAP1 PUSH2 0x4F76 JUMP JUMPDEST PUSH12 0x1C6F307BE4C4687E6000000 PUSH2 0x437C JUMP JUMPDEST PUSH1 0x40 MLOAD PUSH32 0x4C4956454C595F5441585F54524541535552595F415353455400000000000000 PUSH1 0x20 DUP3 ADD MSTORE PUSH1 0x39 ADD PUSH1 0x40 MLOAD PUSH1 0x20 DUP2 DUP4 SUB SUB DUP2 MSTORE SWAP1 PUSH1 0x40 MSTORE DUP1 MLOAD SWAP1 PUSH1 0x20 ADD KECCAK256 DUP5 DUP3 PUSH1 0x7 DUP2 LT PUSH2 0x2F62 JUMPI PUSH2 0x2F62 PUSH2 0x5787 JUMP JUMPDEST PUSH1 0x20 MUL ADD PUSH1 0x20 DUP2 ADD SWAP1 PUSH2 0x2F75 SWAP2 SWAP1 PUSH2 0x4F76 JUMP JUMPDEST PUSH1 0x1 PUSH1 0x1 PUSH1 0xA0 SHL SUB AND PUSH4 0xC9230C5D PUSH1 0x40 MLOAD DUP2 PUSH4 0xFFFFFFFF AND PUSH1 0xE0 SHL DUP2 MSTORE PUSH1 0x4 ADD PUSH1 0x20 PUSH1 0x40 MLOAD DUP1 DUP4 SUB DUP2 DUP7 GAS STATICCALL ISZERO DUP1 ISZERO PUSH2 0x2FB2 JUMPI RETURNDATASIZE PUSH1 0x0 DUP1 RETURNDATACOPY RETURNDATASIZE PUSH1 0x0 REVERT JUMPDEST POP POP POP POP PUSH1 0x40 MLOAD RETURNDATASIZE PUSH1 0x1F NOT PUSH1 0x1F DUP3 ADD AND DUP3 ADD DUP1 PUSH1 0x40 MSTORE POP DUP2 ADD SWAP1 PUSH2 0x2FD6 SWAP2 SWAP1 PUSH2 0x5912 JUMP JUMPDEST SUB PUSH2 0x307E JUMPI PUSH1 0x49 SLOAD PUSH1 0x1 PUSH1 0x1 PUSH1 0xA0 SHL SUB AND ISZERO PUSH2 0x3034 JUMPI PUSH1 0x40 MLOAD PUSH3 0x461BCD PUSH1 0xE5 SHL DUP2 MSTORE PUSH1 0x20 PUSH1 0x4 DUP3 ADD MSTORE PUSH1 0x1E PUSH1 0x24 DUP3 ADD MSTORE PUSH32 0x546178547265617375727920416C726561647920526567697374657265640000 PUSH1 0x44 DUP3 ADD MSTORE PUSH1 0x64 ADD PUSH2 0xC90 JUMP JUMPDEST DUP4 DUP2 PUSH1 0x7 DUP2 LT PUSH2 0x3046 JUMPI PUSH2 0x3046 PUSH2 0x5787 JUMP JUMPDEST PUSH1 0x20 MUL ADD PUSH1 0x20 DUP2 ADD SWAP1 PUSH2 0x3059 SWAP2 SWAP1 PUSH2 0x4F76 JUMP JUMPDEST PUSH1 0x49 DUP1 SLOAD PUSH1 0x1 PUSH1 0x1 PUSH1 0xA0 SHL SUB NOT AND PUSH1 0x1 PUSH1 0x1 PUSH1 0xA0 SHL SUB SWAP3 SWAP1 SWAP3 AND SWAP2 SWAP1 SWAP2 OR SWAP1 SSTORE PUSH2 0x30BC JUMP JUMPDEST PUSH1 0x40 MLOAD PUSH3 0x461BCD PUSH1 0xE5 SHL DUP2 MSTORE PUSH1 0x20 PUSH1 0x4 DUP3 ADD MSTORE PUSH1 0x13 PUSH1 0x24 DUP3 ADD MSTORE PUSH19 0x105CDCD95D08139BDD0814DD5C1C1BDC9D1959 PUSH1 0x6A SHL PUSH1 0x44 DUP3 ADD MSTORE PUSH1 0x64 ADD PUSH2 0xC90 JUMP JUMPDEST DUP1 PUSH2 0x30C6 DUP2 PUSH2 0x57C6 JUMP JUMPDEST SWAP2 POP POP PUSH2 0x265B JUMP JUMPDEST POP PUSH1 0x49 DUP1 SLOAD PUSH1 0xFF PUSH1 0xA8 SHL NOT AND PUSH1 0x1 PUSH1 0xA8 SHL OR SWAP1 SSTORE PUSH1 0x1 SWAP2 POP POP SWAP3 SWAP2 POP POP JUMP JUMPDEST PUSH1 0x0 PUSH2 0x11A0 PUSH2 0x41F7 JUMP JUMPDEST PUSH1 0x0 PUSH2 0x11A0 PUSH2 0x3479 JUMP JUMPDEST PUSH1 0x0 PUSH2 0x3114 PUSH4 0x1F54AA55 PUSH1 0xE3 SHL CALLER PUSH2 0xC2C JUMP JUMPDEST PUSH1 0x0 DUP1 JUMPDEST DUP4 DUP2 LT ISZERO PUSH2 0x31A8 JUMPI DUP5 DUP5 DUP3 DUP2 DUP2 LT PUSH2 0x3132 JUMPI PUSH2 0x3132 PUSH2 0x5787 JUMP JUMPDEST SWAP1 POP PUSH1 0x40 MUL ADD PUSH1 0x20 ADD CALLDATALOAD DUP3 PUSH2 0x3147 SWAP2 SWAP1 PUSH2 0x57B3 JUMP JUMPDEST SWAP2 POP PUSH2 0x3196 CALLER DUP7 DUP7 DUP5 DUP2 DUP2 LT PUSH2 0x315F JUMPI PUSH2 0x315F PUSH2 0x5787 JUMP JUMPDEST PUSH2 0x3175 SWAP3 PUSH1 0x20 PUSH1 0x40 SWAP1 SWAP3 MUL ADD SWAP1 DUP2 ADD SWAP2 POP PUSH2 0x4F76 JUMP JUMPDEST DUP8 DUP8 DUP6 DUP2 DUP2 LT PUSH2 0x3187 JUMPI PUSH2 0x3187 PUSH2 0x5787 JUMP JUMPDEST SWAP1 POP PUSH1 0x40 MUL ADD PUSH1 0x20 ADD CALLDATALOAD PUSH2 0x437C JUMP JUMPDEST DUP1 PUSH2 0x31A0 DUP2 PUSH2 0x57C6 JUMP JUMPDEST SWAP2 POP POP PUSH2 0x3118 JUMP JUMPDEST POP PUSH1 0x40 MLOAD DUP2 DUP2 MSTORE CALLER SWAP1 PUSH32 0x6F8B319642E67CD1F14D773B5289E2E9BC1AFCE60945A4705B94C4C2CE0D347E SWAP1 PUSH1 0x20 ADD PUSH2 0x1154 JUMP JUMPDEST PUSH1 0x0 PUSH2 0x31F8 PUSH4 0x3F6E4BB1 PUSH1 0xE2 SHL PUSH2 0xC2C PUSH1 0x40 DUP6 ADD PUSH1 0x20 DUP7 ADD PUSH2 0x4F76 JUMP JUMPDEST PUSH2 0xB85 DUP3 PUSH2 0x40DD JUMP JUMPDEST SWAP1 JUMP JUMPDEST PUSH1 0x0 PUSH1 0x1 PUSH1 0x1 PUSH1 0xE0 SHL SUB NOT DUP3 AND PUSH4 0x14751DBF PUSH1 0xE0 SHL EQ DUP1 PUSH2 0x3235 JUMPI POP PUSH1 0x1 PUSH1 0x1 PUSH1 0xE0 SHL SUB NOT DUP3 AND PUSH4 0x52D1902D PUSH1 0xE0 SHL EQ JUMPDEST DUP1 PUSH2 0xB85 JUMPI POP PUSH4 0x1FFC9A7 PUSH1 0xE0 SHL PUSH1 0x1 PUSH1 0x1 PUSH1 0xE0 SHL SUB NOT DUP4 AND EQ PUSH2 0xB85 JUMP JUMPDEST PUSH1 0x4 SLOAD PUSH1 0xFF AND ISZERO PUSH2 0x3277 JUMPI PUSH1 0x40 MLOAD PUSH3 0x461BCD PUSH1 0xE5 SHL DUP2 MSTORE PUSH1 0x4 ADD PUSH2 0xC90 SWAP1 PUSH2 0x5816 JUMP JUMPDEST DUP4 PUSH2 0x3281 DUP2 PUSH2 0x38DA JUMP JUMPDEST PUSH2 0x32BD JUMPI PUSH1 0x40 MLOAD PUSH3 0x461BCD PUSH1 0xE5 SHL DUP2 MSTORE PUSH1 0x20 PUSH1 0x4 DUP3 ADD MSTORE PUSH1 0xD PUSH1 0x24 DUP3 ADD MSTORE PUSH13 0x1058D8D95CDCC811195B9A5959 PUSH1 0x9A SHL PUSH1 0x44 DUP3 ADD MSTORE PUSH1 0x64 ADD PUSH2 0xC90 JUMP JUMPDEST DUP3 ISZERO PUSH2 0x331D JUMPI PUSH1 0x49 SLOAD PUSH1 0x1 PUSH1 0xA0 SHL SWAP1 DIV PUSH1 0xFF AND ISZERO PUSH2 0x331D JUMPI PUSH1 0x40 MLOAD PUSH3 0x461BCD PUSH1 0xE5 SHL DUP2 MSTORE PUSH1 0x20 PUSH1 0x4 DUP3 ADD MSTORE PUSH1 0x19 PUSH1 0x24 DUP3 ADD MSTORE PUSH32 0x455243323050617573653A2043616C6C2052656A656374656400000000000000 PUSH1 0x44 DUP3 ADD MSTORE PUSH1 0x64 ADD PUSH2 0xC90 JUMP JUMPDEST DUP2 ISZERO PUSH2 0x334B JUMPI PUSH2 0x332E PUSH1 0x4D DUP6 PUSH2 0x3724 JUMP JUMPDEST ISZERO PUSH2 0x334B JUMPI PUSH1 0x40 MLOAD PUSH3 0x461BCD PUSH1 0xE5 SHL DUP2 MSTORE PUSH1 0x4 ADD PUSH2 0xC90 SWAP1 PUSH2 0x57DF JUMP JUMPDEST POP POP POP POP POP JUMP JUMPDEST PUSH1 0x1 PUSH1 0x1 PUSH1 0xA0 SHL SUB DUP4 AND PUSH2 0x33A0 JUMPI PUSH1 0x40 MLOAD PUSH3 0x461BCD PUSH1 0xE5 SHL DUP2 MSTORE PUSH1 0x20 PUSH1 0x4 DUP3 ADD MSTORE PUSH1 0x15 PUSH1 0x24 DUP3 ADD MSTORE PUSH21 0x496E76616C6964204F776E65722041646472657373 PUSH1 0x58 SHL PUSH1 0x44 DUP3 ADD MSTORE PUSH1 0x64 ADD PUSH2 0xC90 JUMP JUMPDEST PUSH1 0x1 PUSH1 0x1 PUSH1 0xA0 SHL SUB DUP3 AND PUSH2 0x33F6 JUMPI PUSH1 0x40 MLOAD PUSH3 0x461BCD PUSH1 0xE5 SHL DUP2 MSTORE PUSH1 0x20 PUSH1 0x4 DUP3 ADD MSTORE PUSH1 0x17 PUSH1 0x24 DUP3 ADD MSTORE PUSH32 0x496E76616C6964205370656E6465722041646472657373000000000000000000 PUSH1 0x44 DUP3 ADD MSTORE PUSH1 0x64 ADD PUSH2 0xC90 JUMP JUMPDEST PUSH1 0x1 PUSH1 0x1 PUSH1 0xA0 SHL SUB DUP4 DUP2 AND PUSH1 0x0 DUP2 DUP2 MSTORE PUSH1 0x4B PUSH1 0x20 SWAP1 DUP2 MSTORE PUSH1 0x40 DUP1 DUP4 KECCAK256 SWAP5 DUP8 AND DUP1 DUP5 MSTORE SWAP5 DUP3 MSTORE SWAP2 DUP3 SWAP1 KECCAK256 DUP6 SWAP1 SSTORE SWAP1 MLOAD DUP5 DUP2 MSTORE PUSH32 0x8C5BE1E5EBEC7D5BD14F71427D1E84F3DD0314C0F7B2291E5B200AC8C7C3B925 SWAP2 ADD JUMPDEST PUSH1 0x40 MLOAD DUP1 SWAP2 SUB SWAP1 LOG3 POP POP POP JUMP JUMPDEST PUSH1 0x0 PUSH1 0x0 DUP1 MLOAD PUSH1 0x20 PUSH2 0x5EAA DUP4 CODECOPY DUP2 MLOAD SWAP2 MSTORE JUMPDEST SLOAD PUSH1 0x1 PUSH1 0x1 PUSH1 0xA0 SHL SUB AND SWAP2 SWAP1 POP JUMP JUMPDEST PUSH1 0x0 PUSH32 0xB53127684A568B3173AE13B9F8A6016E243E63B6E8EE1178D6A717850B5D6103 PUSH2 0x346A JUMP JUMPDEST PUSH2 0x34AF DUP7 DUP7 DUP7 DUP7 DUP7 DUP7 PUSH2 0x451F JUMP JUMPDEST POP POP POP POP POP POP JUMP JUMPDEST PUSH1 0x1 SLOAD PUSH1 0x2 SLOAD PUSH1 0x3 SLOAD PUSH1 0x40 MLOAD PUSH4 0x97CA328D PUSH1 0xE0 SHL DUP2 MSTORE PUSH1 0x4 DUP2 ADD SWAP4 SWAP1 SWAP4 MSTORE PUSH1 0x24 DUP4 ADD SWAP2 SWAP1 SWAP2 MSTORE PUSH1 0x44 DUP3 ADD MSTORE PUSH1 0x0 SWAP1 DUP2 SWAP1 PUSH20 0x0 SWAP1 PUSH4 0x97CA328D SWAP1 PUSH1 0x64 ADD PUSH1 0x0 PUSH1 0x40 MLOAD DUP1 DUP4 SUB DUP2 DUP7 GAS DELEGATECALL ISZERO DUP1 ISZERO PUSH2 0x3523 JUMPI RETURNDATASIZE PUSH1 0x0 DUP1 RETURNDATACOPY RETURNDATASIZE PUSH1 0x0 REVERT JUMPDEST POP POP POP POP PUSH1 0x40 MLOAD RETURNDATASIZE PUSH1 0x0 DUP3 RETURNDATACOPY PUSH1 0x1F RETURNDATASIZE SWAP1 DUP2 ADD PUSH1 0x1F NOT AND DUP3 ADD PUSH1 0x40 MSTORE PUSH2 0x354B SWAP2 SWAP1 DUP2 ADD SWAP1 PUSH2 0x5A8F JUMP JUMPDEST PUSH1 0x0 SLOAD PUSH1 0x40 MLOAD PUSH4 0x78EFA4ED PUSH1 0xE1 SHL DUP2 MSTORE SWAP3 SWAP5 POP SWAP1 SWAP3 POP PUSH1 0x1 PUSH1 0x1 PUSH1 0xA0 SHL SUB AND SWAP1 PUSH4 0xF1DF49DA SWAP1 PUSH2 0x3585 SWAP1 DUP8 SWAP1 DUP8 SWAP1 DUP8 SWAP1 DUP8 SWAP1 PUSH1 0x4 ADD PUSH2 0x5B74 JUMP JUMPDEST PUSH1 0x20 PUSH1 0x40 MLOAD DUP1 DUP4 SUB DUP2 PUSH1 0x0 DUP8 GAS CALL ISZERO DUP1 ISZERO PUSH2 0x35A4 JUMPI RETURNDATASIZE PUSH1 0x0 DUP1 RETURNDATACOPY RETURNDATASIZE PUSH1 0x0 REVERT JUMPDEST POP POP POP POP PUSH1 0x40 MLOAD RETURNDATASIZE PUSH1 0x1F NOT PUSH1 0x1F DUP3 ADD AND DUP3 ADD DUP1 PUSH1 0x40 MSTORE POP DUP2 ADD SWAP1 PUSH2 0x35C8 SWAP2 SWAP1 PUSH2 0x5912 JUMP JUMPDEST POP PUSH2 0x35D1 PUSH2 0x3458 JUMP JUMPDEST PUSH1 0x1 PUSH1 0x1 PUSH1 0xA0 SHL SUB AND ADDRESS CALLER PUSH1 0x1 PUSH1 0x1 PUSH1 0xA0 SHL SUB AND PUSH32 0xF851A1E85477B818FC72AD517EA622CC316F10F67D61C9E740ADC151A8B41394 DUP13 DUP13 DUP13 DUP13 DUP13 PUSH2 0x3618 PUSH1 0x51 SLOAD PUSH2 0xFFFF AND SWAP1 JUMP JUMPDEST PUSH1 0x40 MLOAD PUSH2 0x362A SWAP7 SWAP6 SWAP5 SWAP4 SWAP3 SWAP2 SWAP1 PUSH2 0x5C80 JUMP JUMPDEST PUSH1 0x40 MLOAD DUP1 SWAP2 SUB SWAP1 LOG4 POP POP POP POP POP POP POP POP POP JUMP JUMPDEST PUSH1 0x40 MLOAD PUSH4 0xF7D6B5AF PUSH1 0xE0 SHL DUP2 MSTORE PUSH1 0x4A PUSH1 0x4 DUP3 ADD MSTORE PUSH1 0x24 DUP2 ADD DUP3 SWAP1 MSTORE PUSH1 0x0 SWAP1 DUP2 SWAP1 PUSH20 0x0 SWAP1 PUSH4 0xF7D6B5AF SWAP1 PUSH1 0x44 ADD PUSH1 0x20 PUSH1 0x40 MLOAD DUP1 DUP4 SUB DUP2 DUP7 GAS DELEGATECALL ISZERO DUP1 ISZERO PUSH2 0x3699 JUMPI RETURNDATASIZE PUSH1 0x0 DUP1 RETURNDATACOPY RETURNDATASIZE PUSH1 0x0 REVERT JUMPDEST POP POP POP POP PUSH1 0x40 MLOAD RETURNDATASIZE PUSH1 0x1F NOT PUSH1 0x1F DUP3 ADD AND DUP3 ADD DUP1 PUSH1 0x40 MSTORE POP DUP2 ADD SWAP1 PUSH2 0x36BD SWAP2 SWAP1 PUSH2 0x5912 JUMP JUMPDEST CALLER PUSH1 0x0 DUP2 DUP2 MSTORE PUSH1 0x4C PUSH1 0x20 SWAP1 DUP2 MSTORE PUSH1 0x40 DUP1 DUP4 KECCAK256 DUP9 DUP5 MSTORE DUP3 MSTORE SWAP2 DUP3 SWAP1 KECCAK256 PUSH1 0x2 ADD SLOAD SWAP2 MLOAD DUP5 DUP2 MSTORE SWAP4 SWAP5 POP PUSH1 0x1 PUSH1 0x1 PUSH1 0xA0 SHL SUB SWAP1 SWAP2 AND SWAP3 DUP7 SWAP2 PUSH32 0x2A0EB8CA138E1B0C7A85D2F8F43D0F3FE72C27B59C53365FDCE897E3E6F32718 SWAP2 ADD JUMPDEST PUSH1 0x40 MLOAD DUP1 SWAP2 SUB SWAP1 LOG4 SWAP3 SWAP2 POP POP JUMP JUMPDEST PUSH1 0x1 PUSH1 0x1 PUSH1 0xA0 SHL SUB DUP2 AND PUSH1 0x0 SWAP1 DUP2 MSTORE PUSH1 0x1 DUP4 ADD PUSH1 0x20 MSTORE PUSH1 0x40 DUP2 KECCAK256 SLOAD ISZERO ISZERO PUSH2 0x118A JUMP JUMPDEST PUSH1 0x48 SLOAD PUSH1 0x0 SWAP1 CALLER SWAP1 ISZERO DUP1 ISZERO SWAP1 PUSH2 0x3762 JUMPI POP PUSH2 0x3760 CALLER PUSH2 0x22B7 JUMP JUMPDEST ISZERO JUMPDEST ISZERO PUSH2 0x3777 JUMPI PUSH2 0x3772 DUP6 DUP6 DUP6 PUSH2 0x42F5 JUMP JUMPDEST PUSH2 0x3782 JUMP JUMPDEST PUSH2 0x3782 DUP6 DUP6 DUP6 PUSH2 0x437C JUMP JUMPDEST PUSH2 0x378D DUP6 DUP3 DUP6 PUSH2 0x4284 JUMP JUMPDEST DUP4 PUSH1 0x1 PUSH1 0x1 PUSH1 0xA0 SHL SUB AND DUP6 PUSH1 0x1 PUSH1 0x1 PUSH1 0xA0 SHL SUB AND DUP3 PUSH1 0x1 PUSH1 0x1 PUSH1 0xA0 SHL SUB AND PUSH32 0x5F7542858008EEB041631F30E6109AE94B83A58E9A58261DD2C42C508850F939 DUP7 PUSH1 0x40 MLOAD PUSH2 0x37DC SWAP2 DUP2 MSTORE PUSH1 0x20 ADD SWAP1 JUMP JUMPDEST PUSH1 0x40 MLOAD DUP1 SWAP2 SUB SWAP1 LOG4 POP PUSH1 0x1 SWAP5 SWAP4 POP POP POP POP JUMP JUMPDEST PUSH1 0x1 PUSH1 0x1 PUSH1 0xA0 SHL SUB SWAP2 DUP3 AND PUSH1 0x0 SWAP1 DUP2 MSTORE PUSH1 0x4B PUSH1 0x20 SWAP1 DUP2 MSTORE PUSH1 0x40 DUP1 DUP4 KECCAK256 SWAP4 SWAP1 SWAP5 AND DUP3 MSTORE SWAP2 SWAP1 SWAP2 MSTORE KECCAK256 SLOAD SWAP1 JUMP JUMPDEST PUSH1 0x0 PUSH1 0x1 PUSH1 0x1 PUSH1 0xA0 SHL SUB DUP4 AND PUSH2 0x3842 JUMPI PUSH1 0x40 MLOAD PUSH3 0x461BCD PUSH1 0xE5 SHL DUP2 MSTORE PUSH1 0x4 ADD PUSH2 0xC90 SWAP1 PUSH2 0x584D JUMP JUMPDEST DUP2 PUSH1 0x47 PUSH1 0x0 DUP3 DUP3 SLOAD PUSH2 0x3854 SWAP2 SWAP1 PUSH2 0x57B3 JUMP JUMPDEST SWAP1 SWAP2 SSTORE POP POP PUSH1 0x1 PUSH1 0x1 PUSH1 0xA0 SHL SUB DUP4 AND PUSH1 0x0 SWAP1 DUP2 MSTORE PUSH1 0x4A PUSH1 0x20 MSTORE PUSH1 0x40 DUP2 KECCAK256 DUP1 SLOAD DUP5 SWAP3 SWAP1 PUSH2 0x3881 SWAP1 DUP5 SWAP1 PUSH2 0x57B3 JUMP JUMPDEST SWAP1 SWAP2 SSTORE POP POP PUSH1 0x47 SLOAD PUSH1 0x40 DUP1 MLOAD DUP5 DUP2 MSTORE PUSH1 0x20 DUP2 ADD SWAP3 SWAP1 SWAP3 MSTORE PUSH1 0x1 PUSH1 0x1 PUSH1 0xA0 SHL SUB DUP6 AND SWAP2 CALLER SWAP2 PUSH32 0x2F00E3CDD69A77BE7ED215EC7B2A36784DD158F921FCA79AC29DEFFA353FE6EE SWAP2 ADD PUSH1 0x40 MLOAD DUP1 SWAP2 SUB SWAP1 LOG3 POP PUSH1 0x47 SLOAD SWAP3 SWAP2 POP POP JUMP JUMPDEST PUSH1 0x0 DUP1 SLOAD PUSH1 0x1 PUSH1 0x1 PUSH1 0xA0 SHL SUB AND ADDRESS SUB PUSH2 0x39C6 JUMPI PUSH1 0x0 PUSH4 0x63D59CF3 PUSH1 0xE1 SHL PUSH2 0x3900 ADDRESS PUSH2 0x409E JUMP JUMPDEST CALLER DUP6 PUSH1 0x40 MLOAD PUSH1 0x24 ADD PUSH2 0x3914 SWAP4 SWAP3 SWAP2 SWAP1 PUSH2 0x5CC5 JUMP JUMPDEST PUSH1 0x40 DUP1 MLOAD PUSH1 0x1F NOT DUP2 DUP5 SUB ADD DUP2 MSTORE SWAP2 SWAP1 MSTORE PUSH1 0x20 DUP2 ADD DUP1 MLOAD PUSH1 0x1 PUSH1 0x1 PUSH1 0xE0 SHL SUB AND PUSH1 0x1 PUSH1 0x1 PUSH1 0xE0 SHL SUB NOT SWAP1 SWAP4 AND SWAP3 SWAP1 SWAP3 OR SWAP1 SWAP2 MSTORE SWAP1 POP PUSH1 0x0 PUSH2 0x3991 PUSH2 0x3955 PUSH2 0x3458 JUMP JUMPDEST DUP4 PUSH1 0x40 MLOAD DUP1 PUSH1 0x40 ADD PUSH1 0x40 MSTORE DUP1 PUSH1 0x1D DUP2 MSTORE PUSH1 0x20 ADD PUSH32 0x44656C656761746563616C6C20686173416363657373204661696C6564000000 DUP2 MSTORE POP PUSH2 0x472A JUMP JUMPDEST SWAP1 POP DUP1 PUSH1 0x1 DUP3 MLOAD PUSH2 0x39A2 SWAP2 SWAP1 PUSH2 0x58BA JUMP JUMPDEST DUP2 MLOAD DUP2 LT PUSH2 0x39B2 JUMPI PUSH2 0x39B2 PUSH2 0x5787 JUMP JUMPDEST PUSH1 0x20 SWAP2 ADD ADD MLOAD PUSH1 0xF8 SHR PUSH1 0x1 EQ SWAP5 SWAP4 POP POP POP POP JUMP JUMPDEST PUSH1 0x0 SLOAD PUSH1 0x1 PUSH1 0x1 PUSH1 0xA0 SHL SUB AND PUSH4 0xC7AB39E6 PUSH2 0x39E0 ADDRESS PUSH2 0x409E JUMP JUMPDEST CALLER DUP6 PUSH1 0x40 MLOAD DUP5 PUSH4 0xFFFFFFFF AND PUSH1 0xE0 SHL DUP2 MSTORE PUSH1 0x4 ADD PUSH2 0x3A00 SWAP4 SWAP3 SWAP2 SWAP1 PUSH2 0x5CC5 JUMP JUMPDEST PUSH1 0x20 PUSH1 0x40 MLOAD DUP1 DUP4 SUB DUP2 DUP7 GAS STATICCALL ISZERO DUP1 ISZERO PUSH2 0x3A1D JUMPI RETURNDATASIZE PUSH1 0x0 DUP1 RETURNDATACOPY RETURNDATASIZE PUSH1 0x0 REVERT JUMPDEST POP POP POP POP PUSH1 0x40 MLOAD RETURNDATASIZE PUSH1 0x1F NOT PUSH1 0x1F DUP3 ADD AND DUP3 ADD DUP1 PUSH1 0x40 MSTORE POP DUP2 ADD SWAP1 PUSH2 0xB85 SWAP2 SWAP1 PUSH2 0x58D8 JUMP JUMPDEST PUSH1 0x0 PUSH1 0x1 PUSH1 0x1 PUSH1 0xA0 SHL SUB DUP4 AND CALLER PUSH1 0x1 PUSH1 0x1 PUSH1 0xA0 SHL SUB AND PUSH32 0x85766EB39B0AC39AD7E8AFBF36233D9ADB1AF81136BBEA1F94CACD4B2E272C69 DUP5 PUSH1 0x40 MLOAD PUSH2 0x3A8A SWAP2 ISZERO ISZERO DUP2 MSTORE PUSH1 0x20 ADD SWAP1 JUMP JUMPDEST PUSH1 0x40 MLOAD DUP1 SWAP2 SUB SWAP1 LOG3 PUSH1 0x40 MLOAD PUSH4 0x4572E0C1 PUSH1 0xE0 SHL DUP2 MSTORE PUSH1 0x4A PUSH1 0x4 DUP3 ADD MSTORE PUSH1 0x1 PUSH1 0x1 PUSH1 0xA0 SHL SUB DUP5 AND PUSH1 0x24 DUP3 ADD MSTORE DUP3 ISZERO ISZERO PUSH1 0x44 DUP3 ADD MSTORE PUSH20 0x0 SWAP1 PUSH4 0x4572E0C1 SWAP1 PUSH1 0x64 ADD PUSH1 0x20 PUSH1 0x40 MLOAD DUP1 DUP4 SUB DUP2 DUP7 GAS DELEGATECALL ISZERO DUP1 ISZERO PUSH2 0x3AF9 JUMPI RETURNDATASIZE PUSH1 0x0 DUP1 RETURNDATACOPY RETURNDATASIZE PUSH1 0x0 REVERT JUMPDEST POP POP POP POP PUSH1 0x40 MLOAD RETURNDATASIZE PUSH1 0x1F NOT PUSH1 0x1F DUP3 ADD AND DUP3 ADD DUP1 PUSH1 0x40 MSTORE POP DUP2 ADD SWAP1 PUSH2 0x118A SWAP2 SWAP1 PUSH2 0x58D8 JUMP JUMPDEST PUSH1 0x0 DUP1 SLOAD PUSH1 0x1 PUSH1 0x1 PUSH1 0xA0 SHL SUB AND ADDRESS SUB PUSH2 0x3BE3 JUMPI PUSH1 0x0 PUSH4 0xE25D75F0 PUSH1 0xE0 SHL PUSH1 0x3 SLOAD PUSH1 0x40 MLOAD PUSH1 0x24 ADD PUSH2 0x3B4F SWAP2 DUP2 MSTORE PUSH1 0x20 ADD SWAP1 JUMP JUMPDEST PUSH1 0x40 DUP1 MLOAD PUSH1 0x1F NOT DUP2 DUP5 SUB ADD DUP2 MSTORE SWAP2 SWAP1 MSTORE PUSH1 0x20 DUP2 ADD DUP1 MLOAD PUSH1 0x1 PUSH1 0x1 PUSH1 0xE0 SHL SUB AND PUSH1 0x1 PUSH1 0x1 PUSH1 0xE0 SHL SUB NOT SWAP1 SWAP4 AND SWAP3 SWAP1 SWAP3 OR SWAP1 SWAP2 MSTORE SWAP1 POP PUSH1 0x0 PUSH2 0x3BAF PUSH2 0x3B90 PUSH2 0x3458 JUMP JUMPDEST DUP4 PUSH1 0x40 MLOAD DUP1 PUSH1 0x60 ADD PUSH1 0x40 MSTORE DUP1 PUSH1 0x25 DUP2 MSTORE PUSH1 0x20 ADD PUSH2 0x5E85 PUSH1 0x25 SWAP2 CODECOPY PUSH2 0x472A JUMP JUMPDEST SWAP1 POP DUP1 PUSH1 0x1 DUP3 MLOAD PUSH2 0x3BC0 SWAP2 SWAP1 PUSH2 0x58BA JUMP JUMPDEST DUP2 MLOAD DUP2 LT PUSH2 0x3BD0 JUMPI PUSH2 0x3BD0 PUSH2 0x5787 JUMP JUMPDEST PUSH1 0x20 SWAP2 ADD ADD MLOAD PUSH1 0xF8 SHR PUSH1 0x1 EQ SWAP4 SWAP3 POP POP POP JUMP JUMPDEST PUSH1 0x0 SLOAD PUSH1 0x3 SLOAD PUSH1 0x40 MLOAD PUSH4 0xE25D75F PUSH1 0xE4 SHL DUP2 MSTORE PUSH1 0x1 PUSH1 0x1 PUSH1 0xA0 SHL SUB SWAP1 SWAP3 AND SWAP2 PUSH4 0xE25D75F0 SWAP2 PUSH2 0x3C18 SWAP2 PUSH1 0x4 ADD SWAP1 DUP2 MSTORE PUSH1 0x20 ADD SWAP1 JUMP JUMPDEST PUSH1 0x20 PUSH1 0x40 MLOAD DUP1 DUP4 SUB DUP2 DUP7 GAS STATICCALL ISZERO DUP1 ISZERO PUSH2 0x3C35 JUMPI RETURNDATASIZE PUSH1 0x0 DUP1 RETURNDATACOPY RETURNDATASIZE PUSH1 0x0 REVERT JUMPDEST POP POP POP POP PUSH1 0x40 MLOAD RETURNDATASIZE PUSH1 0x1F NOT PUSH1 0x1F DUP3 ADD AND DUP3 ADD DUP1 PUSH1 0x40 MSTORE POP DUP2 ADD SWAP1 PUSH2 0x11A0 SWAP2 SWAP1 PUSH2 0x58D8 JUMP JUMPDEST PUSH1 0x0 PUSH2 0x118A DUP4 PUSH1 0x1 PUSH1 0x1 PUSH1 0xA0 SHL SUB DUP5 AND PUSH2 0x47F3 JUMP JUMPDEST PUSH1 0x0 DUP1 PUSH20 0x0 PUSH4 0x10E1FC40 PUSH1 0x4A DUP6 PUSH1 0x40 MLOAD DUP4 PUSH4 0xFFFFFFFF AND PUSH1 0xE0 SHL DUP2 MSTORE PUSH1 0x4 ADD PUSH2 0x3CAB SWAP3 SWAP2 SWAP1 PUSH2 0x5CEE JUMP JUMPDEST PUSH1 0x20 PUSH1 0x40 MLOAD DUP1 DUP4 SUB DUP2 DUP7 GAS DELEGATECALL ISZERO DUP1 ISZERO PUSH2 0x3CC8 JUMPI RETURNDATASIZE PUSH1 0x0 DUP1 RETURNDATACOPY RETURNDATASIZE PUSH1 0x0 REVERT JUMPDEST POP POP POP POP PUSH1 0x40 MLOAD RETURNDATASIZE PUSH1 0x1F NOT PUSH1 0x1F DUP3 ADD AND DUP3 ADD DUP1 PUSH1 0x40 MSTORE POP DUP2 ADD SWAP1 PUSH2 0x3CEC SWAP2 SWAP1 PUSH2 0x5912 JUMP JUMPDEST SWAP1 POP PUSH2 0x3CFB PUSH1 0x20 DUP5 ADD DUP5 PUSH2 0x4F76 JUMP JUMPDEST PUSH1 0x1 PUSH1 0x1 PUSH1 0xA0 SHL SUB AND CALLER DUP3 PUSH32 0x8C6C9F95AFE4C944C9F81D2965F0A9A0C021CE66AC4020DD8B25953A971F9148 PUSH2 0x3D37 PUSH1 0x40 DUP9 ADD PUSH1 0x20 DUP10 ADD PUSH2 0x4F76 JUMP JUMPDEST PUSH1 0x40 DUP1 MLOAD PUSH1 0x1 PUSH1 0x1 PUSH1 0xA0 SHL SUB SWAP1 SWAP3 AND DUP3 MSTORE DUP1 DUP10 ADD CALLDATALOAD PUSH1 0x20 DUP4 ADD MSTORE PUSH1 0x60 DUP1 DUP11 ADD CALLDATALOAD SWAP2 DUP4 ADD SWAP2 SWAP1 SWAP2 MSTORE ADD PUSH2 0x3716 JUMP JUMPDEST PUSH2 0x3D6C PUSH2 0x3458 JUMP JUMPDEST PUSH1 0x1 PUSH1 0x1 PUSH1 0xA0 SHL SUB AND DUP2 PUSH1 0x1 PUSH1 0x1 PUSH1 0xA0 SHL SUB AND SUB PUSH2 0x3DCC JUMPI PUSH1 0x40 MLOAD PUSH3 0x461BCD PUSH1 0xE5 SHL DUP2 MSTORE PUSH1 0x20 PUSH1 0x4 DUP3 ADD MSTORE PUSH1 0x1A PUSH1 0x24 DUP3 ADD MSTORE PUSH32 0x496C6C6567616C204E657720496D706C656D656E746174696F6E000000000000 PUSH1 0x44 DUP3 ADD MSTORE PUSH1 0x64 ADD PUSH2 0xC90 JUMP JUMPDEST PUSH2 0x3DDC PUSH4 0x7147855D PUSH1 0xE0 SHL PUSH2 0x38DA JUMP JUMPDEST PUSH2 0x3E28 JUMPI PUSH1 0x40 MLOAD PUSH3 0x461BCD PUSH1 0xE5 SHL DUP2 MSTORE PUSH1 0x20 PUSH1 0x4 DUP3 ADD MSTORE PUSH1 0x19 PUSH1 0x24 DUP3 ADD MSTORE PUSH32 0x5570677261646520436F6E7465787420466F7262696464656E00000000000000 PUSH1 0x44 DUP3 ADD MSTORE PUSH1 0x64 ADD PUSH2 0xC90 JUMP JUMPDEST POP JUMP JUMPDEST PUSH1 0x60 PUSH32 0x4910FDFA16FED3260ED0E7147F7CC6DA11A60208B5B9406D12A635614FFD9143 SLOAD PUSH1 0xFF AND ISZERO PUSH2 0x3E75 JUMPI PUSH2 0x3E60 DUP5 PUSH2 0x48E6 JUMP JUMPDEST POP PUSH1 0x40 DUP1 MLOAD PUSH1 0x0 DUP2 MSTORE PUSH1 0x20 DUP2 ADD SWAP1 SWAP2 MSTORE PUSH2 0x118A JUMP JUMPDEST DUP4 PUSH1 0x1 PUSH1 0x1 PUSH1 0xA0 SHL SUB AND PUSH4 0x52D1902D PUSH1 0x40 MLOAD DUP2 PUSH4 0xFFFFFFFF AND PUSH1 0xE0 SHL DUP2 MSTORE PUSH1 0x4 ADD PUSH1 0x20 PUSH1 0x40 MLOAD DUP1 DUP4 SUB DUP2 DUP7 GAS STATICCALL SWAP3 POP POP POP DUP1 ISZERO PUSH2 0x3ECF JUMPI POP PUSH1 0x40 DUP1 MLOAD PUSH1 0x1F RETURNDATASIZE SWAP1 DUP2 ADD PUSH1 0x1F NOT AND DUP3 ADD SWAP1 SWAP3 MSTORE PUSH2 0x3ECC SWAP2 DUP2 ADD SWAP1 PUSH2 0x5912 JUMP JUMPDEST PUSH1 0x1 JUMPDEST PUSH2 0x3F13 JUMPI PUSH1 0x40 MLOAD PUSH3 0x461BCD PUSH1 0xE5 SHL DUP2 MSTORE PUSH1 0x20 PUSH1 0x4 DUP3 ADD MSTORE PUSH1 0x15 PUSH1 0x24 DUP3 ADD MSTORE PUSH21 0x125B1B1959D85B0815555414C810DBDB9D1C9858DD PUSH1 0x5A SHL PUSH1 0x44 DUP3 ADD MSTORE PUSH1 0x64 ADD PUSH2 0xC90 JUMP JUMPDEST PUSH1 0x0 DUP1 MLOAD PUSH1 0x20 PUSH2 0x5EAA DUP4 CODECOPY DUP2 MLOAD SWAP2 MSTORE DUP2 EQ PUSH2 0x3F68 JUMPI PUSH1 0x40 MLOAD PUSH3 0x461BCD PUSH1 0xE5 SHL DUP2 MSTORE PUSH1 0x20 PUSH1 0x4 DUP3 ADD MSTORE PUSH1 0x15 PUSH1 0x24 DUP3 ADD MSTORE PUSH21 0x125B9D985B1A590815555414C810DBDB9D1C9858DD PUSH1 0x5A SHL PUSH1 0x44 DUP3 ADD MSTORE PUSH1 0x64 ADD PUSH2 0xC90 JUMP JUMPDEST POP PUSH1 0x40 MLOAD PUSH4 0x1FFC9A7 PUSH1 0xE0 SHL DUP2 MSTORE PUSH4 0x14751DBF PUSH1 0xE0 SHL PUSH1 0x4 DUP3 ADD MSTORE PUSH1 0x1 PUSH1 0x1 PUSH1 0xA0 SHL SUB DUP6 AND SWAP1 PUSH4 0x1FFC9A7 SWAP1 PUSH1 0x24 ADD PUSH1 0x20 PUSH1 0x40 MLOAD DUP1 DUP4 SUB DUP2 DUP7 GAS STATICCALL SWAP3 POP POP POP DUP1 ISZERO PUSH2 0x3FD0 JUMPI POP PUSH1 0x40 DUP1 MLOAD PUSH1 0x1F RETURNDATASIZE SWAP1 DUP2 ADD PUSH1 0x1F NOT AND DUP3 ADD SWAP1 SWAP3 MSTORE PUSH2 0x3FCD SWAP2 DUP2 ADD SWAP1 PUSH2 0x58D8 JUMP JUMPDEST PUSH1 0x1 JUMPDEST PUSH2 0x401C JUMPI PUSH1 0x40 MLOAD PUSH3 0x461BCD PUSH1 0xE5 SHL DUP2 MSTORE PUSH1 0x20 PUSH1 0x4 DUP3 ADD MSTORE PUSH1 0x17 PUSH1 0x24 DUP3 ADD MSTORE PUSH32 0x496C6C6567616C204950726F787920436F6E7472616374000000000000000000 PUSH1 0x44 DUP3 ADD MSTORE PUSH1 0x64 ADD PUSH2 0xC90 JUMP JUMPDEST DUP1 PUSH2 0x4069 JUMPI PUSH1 0x40 MLOAD PUSH3 0x461BCD PUSH1 0xE5 SHL DUP2 MSTORE PUSH1 0x20 PUSH1 0x4 DUP3 ADD MSTORE PUSH1 0x17 PUSH1 0x24 DUP3 ADD MSTORE PUSH32 0x496E76616C6964204950726F787920436F6E7472616374000000000000000000 PUSH1 0x44 DUP3 ADD MSTORE PUSH1 0x64 ADD PUSH2 0xC90 JUMP JUMPDEST POP PUSH2 0x4075 DUP5 DUP5 DUP5 PUSH2 0x4967 JUMP JUMPDEST SWAP1 POP PUSH2 0x118A JUMP JUMPDEST PUSH1 0x0 PUSH2 0x118A DUP4 PUSH1 0x1 PUSH1 0x1 PUSH1 0xA0 SHL SUB DUP5 AND PUSH2 0x49D1 JUMP JUMPDEST PUSH1 0x60 PUSH1 0x0 PUSH2 0x118A DUP4 PUSH2 0x4A20 JUMP JUMPDEST PUSH1 0x40 MLOAD PUSH12 0xFFFFFFFFFFFFFFFFFFFFFFFF NOT PUSH1 0x60 DUP4 SWAP1 SHL AND PUSH1 0x20 DUP3 ADD MSTORE PUSH1 0x0 SWAP1 PUSH1 0x34 ADD PUSH1 0x40 MLOAD PUSH1 0x20 DUP2 DUP4 SUB SUB DUP2 MSTORE SWAP1 PUSH1 0x40 MSTORE DUP1 MLOAD SWAP1 PUSH1 0x20 ADD KECCAK256 SWAP1 POP SWAP2 SWAP1 POP JUMP JUMPDEST PUSH1 0x0 DUP1 PUSH1 0x0 PUSH20 0x0 PUSH4 0xF1C3AFEF PUSH1 0x4A DUP7 PUSH1 0x40 MLOAD DUP4 PUSH4 0xFFFFFFFF AND PUSH1 0xE0 SHL DUP2 MSTORE PUSH1 0x4 ADD PUSH2 0x411C SWAP3 SWAP2 SWAP1 PUSH2 0x5D46 JUMP JUMPDEST PUSH1 0x40 DUP1 MLOAD DUP1 DUP4 SUB DUP2 DUP7 GAS DELEGATECALL ISZERO DUP1 ISZERO PUSH2 0x4138 JUMPI RETURNDATASIZE PUSH1 0x0 DUP1 RETURNDATACOPY RETURNDATASIZE PUSH1 0x0 REVERT JUMPDEST POP POP POP POP PUSH1 0x40 MLOAD RETURNDATASIZE PUSH1 0x1F NOT PUSH1 0x1F DUP3 ADD AND DUP3 ADD DUP1 PUSH1 0x40 MSTORE POP DUP2 ADD SWAP1 PUSH2 0x415C SWAP2 SWAP1 PUSH2 0x5DCD JUMP JUMPDEST SWAP1 SWAP3 POP SWAP1 POP PUSH2 0x4171 PUSH1 0x40 DUP6 ADD PUSH1 0x20 DUP7 ADD PUSH2 0x4F76 JUMP JUMPDEST PUSH1 0x1 PUSH1 0x1 PUSH1 0xA0 SHL SUB AND CALLER DUP6 CALLDATALOAD PUSH32 0x571AB3CB94EB114C4B41E4F4BBBE9625A6C546920DB08DDEA52BD3EC7CB58586 DUP6 DUP6 PUSH2 0x41AD PUSH1 0x40 DUP12 ADD DUP12 PUSH2 0x562C JUMP JUMPDEST PUSH1 0x40 MLOAD PUSH2 0x41BD SWAP5 SWAP4 SWAP3 SWAP2 SWAP1 PUSH2 0x5DFB JUMP JUMPDEST PUSH1 0x40 MLOAD DUP1 SWAP2 SUB SWAP1 LOG4 SWAP4 SWAP3 POP POP POP JUMP JUMPDEST PUSH1 0x1 PUSH1 0x1 PUSH1 0xA0 SHL SUB DUP2 AND PUSH1 0x0 SWAP1 DUP2 MSTORE PUSH1 0x4A PUSH1 0x20 MSTORE PUSH1 0x40 SWAP1 KECCAK256 PUSH1 0x2 ADD DUP1 SLOAD PUSH1 0x1 DUP2 ADD DUP3 SSTORE SWAP1 JUMPDEST POP SWAP2 SWAP1 POP JUMP JUMPDEST PUSH1 0x1 SLOAD PUSH1 0x2 SLOAD PUSH1 0x40 DUP1 MLOAD PUSH32 0x8B73C3C69BB8FE3D512ECC4CF759CC79239F7B179B0FFACAA9A75D522B39400F PUSH1 0x20 DUP3 ADD MSTORE SWAP1 DUP2 ADD SWAP3 SWAP1 SWAP3 MSTORE PUSH1 0x60 DUP3 ADD MSTORE CHAINID PUSH1 0x80 DUP3 ADD MSTORE ADDRESS PUSH1 0xA0 DUP3 ADD MSTORE PUSH1 0x0 SWAP1 PUSH1 0xC0 ADD PUSH1 0x40 MLOAD PUSH1 0x20 DUP2 DUP4 SUB SUB DUP2 MSTORE SWAP1 PUSH1 0x40 MSTORE DUP1 MLOAD SWAP1 PUSH1 0x20 ADD KECCAK256 SWAP1 POP SWAP1 JUMP JUMPDEST PUSH1 0x0 DUP1 PUSH1 0x0 PUSH2 0x426F DUP6 DUP6 PUSH2 0x4A7C JUMP JUMPDEST SWAP2 POP SWAP2 POP PUSH2 0x427C DUP2 PUSH2 0x4AEA JUMP JUMPDEST POP SWAP4 SWAP3 POP POP POP JUMP JUMPDEST PUSH1 0x0 PUSH2 0x4290 DUP5 DUP5 PUSH2 0x37EF JUMP JUMPDEST SWAP1 POP DUP2 DUP2 LT ISZERO PUSH2 0x42E2 JUMPI PUSH1 0x40 MLOAD PUSH3 0x461BCD PUSH1 0xE5 SHL DUP2 MSTORE PUSH1 0x20 PUSH1 0x4 DUP3 ADD MSTORE PUSH1 0x1E PUSH1 0x24 DUP3 ADD MSTORE PUSH32 0x496E73756666696369656E74204163636F756E7420416C6C6F77616E63650000 PUSH1 0x44 DUP3 ADD MSTORE PUSH1 0x64 ADD PUSH2 0xC90 JUMP JUMPDEST PUSH2 0x42EF DUP5 DUP5 DUP5 DUP5 SUB PUSH2 0x3352 JUMP JUMPDEST POP POP POP POP JUMP JUMPDEST PUSH1 0x0 PUSH2 0x430C PUSH1 0x48 SLOAD DUP4 PUSH2 0x4CA0 SWAP1 SWAP2 SWAP1 PUSH4 0xFFFFFFFF AND JUMP JUMPDEST SWAP1 POP PUSH1 0x0 PUSH2 0x435A DUP3 PUSH1 0x40 MLOAD DUP1 PUSH1 0x40 ADD PUSH1 0x40 MSTORE DUP1 PUSH1 0x1C DUP2 MSTORE PUSH1 0x20 ADD PUSH32 0x496E73756666696369656E74205472616E7366657220416D6F756E7400000000 DUP2 MSTORE POP DUP6 PUSH2 0x4CB8 SWAP1 SWAP3 SWAP2 SWAP1 PUSH4 0xFFFFFFFF AND JUMP JUMPDEST PUSH1 0x49 SLOAD SWAP1 SWAP2 POP PUSH2 0x4375 SWAP1 DUP7 SWAP1 PUSH1 0x1 PUSH1 0x1 PUSH1 0xA0 SHL SUB AND DUP5 PUSH2 0x437C JUMP JUMPDEST PUSH2 0x334B DUP6 DUP6 DUP4 JUMPDEST PUSH1 0x40 MLOAD PUSH4 0x3DE90DB3 PUSH1 0xE0 SHL DUP2 MSTORE PUSH1 0x4A PUSH1 0x4 DUP3 ADD MSTORE PUSH1 0x1 PUSH1 0x1 PUSH1 0xA0 SHL SUB DUP1 DUP6 AND PUSH1 0x24 DUP4 ADD MSTORE DUP4 AND PUSH1 0x44 DUP3 ADD MSTORE PUSH1 0x64 DUP2 ADD DUP3 SWAP1 MSTORE PUSH20 0x0 SWAP1 PUSH4 0x3DE90DB3 SWAP1 PUSH1 0x84 ADD PUSH1 0x0 PUSH1 0x40 MLOAD DUP1 DUP4 SUB DUP2 DUP7 DUP1 EXTCODESIZE ISZERO DUP1 ISZERO PUSH2 0x43E5 JUMPI PUSH1 0x0 DUP1 REVERT JUMPDEST POP GAS DELEGATECALL ISZERO DUP1 ISZERO PUSH2 0x43F9 JUMPI RETURNDATASIZE PUSH1 0x0 DUP1 RETURNDATACOPY RETURNDATASIZE PUSH1 0x0 REVERT JUMPDEST POP POP POP POP DUP2 PUSH1 0x1 PUSH1 0x1 PUSH1 0xA0 SHL SUB AND DUP4 PUSH1 0x1 PUSH1 0x1 PUSH1 0xA0 SHL SUB AND PUSH32 0xDDF252AD1BE2C89B69C2B068FC378DAA952BA7F163C4A11628F55A4DF523B3EF DUP4 PUSH1 0x40 MLOAD PUSH2 0x344B SWAP2 DUP2 MSTORE PUSH1 0x20 ADD SWAP1 JUMP JUMPDEST PUSH32 0xB53127684A568B3173AE13B9F8A6016E243E63B6E8EE1178D6A717850B5D6103 DUP1 SLOAD PUSH1 0x1 PUSH1 0x1 PUSH1 0xA0 SHL SUB DUP4 AND PUSH1 0x1 PUSH1 0x1 PUSH1 0xA0 SHL SUB NOT SWAP1 SWAP2 AND DUP2 OR SWAP1 SWAP2 SSTORE PUSH1 0x40 DUP1 MLOAD SWAP2 DUP3 MSTORE MLOAD ADDRESS SWAP2 CALLER SWAP2 PUSH32 0x54AB0D18DE7958786BA1AD85966D59BAA2B395455F0530DCDCFD732E6AF539E2 SWAP2 DUP2 SWAP1 SUB PUSH1 0x20 ADD SWAP1 LOG3 POP JUMP JUMPDEST PUSH1 0x1 PUSH1 0x1 PUSH1 0xA0 SHL SUB DUP2 AND PUSH1 0x0 SWAP1 DUP2 MSTORE PUSH1 0x4A PUSH1 0x20 MSTORE PUSH1 0x40 SWAP1 KECCAK256 SLOAD ISZERO PUSH2 0x3E28 JUMPI PUSH1 0x40 MLOAD PUSH3 0x461BCD PUSH1 0xE5 SHL DUP2 MSTORE PUSH1 0x20 PUSH1 0x4 DUP3 ADD MSTORE PUSH1 0x1B PUSH1 0x24 DUP3 ADD MSTORE PUSH32 0x4173736574496420416C72656164792044697374726962757465640000000000 PUSH1 0x44 DUP3 ADD MSTORE PUSH1 0x64 ADD PUSH2 0xC90 JUMP JUMPDEST PUSH1 0x51 SLOAD PUSH3 0x10000 SWAP1 DIV PUSH1 0xFF AND PUSH2 0x4577 JUMPI PUSH1 0x40 MLOAD PUSH3 0x461BCD PUSH1 0xE5 SHL DUP2 MSTORE PUSH1 0x20 PUSH1 0x4 DUP3 ADD MSTORE PUSH1 0x19 PUSH1 0x24 DUP3 ADD MSTORE PUSH32 0x436F6E7472616374204E6F7420496E697469616C697A696E6700000000000000 PUSH1 0x44 DUP3 ADD MSTORE PUSH1 0x64 ADD PUSH2 0xC90 JUMP JUMPDEST DUP6 DUP6 PUSH1 0x40 MLOAD PUSH1 0x20 ADD PUSH2 0x458A SWAP3 SWAP2 SWAP1 PUSH2 0x5672 JUMP JUMPDEST PUSH1 0x40 DUP1 MLOAD PUSH1 0x1F NOT DUP2 DUP5 SUB ADD DUP2 MSTORE SWAP1 DUP3 SWAP1 MSTORE DUP1 MLOAD PUSH1 0x20 SWAP2 DUP3 ADD KECCAK256 PUSH1 0x1 SSTORE PUSH2 0x45B4 SWAP2 DUP7 SWAP2 DUP7 SWAP2 ADD PUSH2 0x5672 JUMP JUMPDEST PUSH1 0x40 DUP1 MLOAD PUSH1 0x1F NOT DUP2 DUP5 SUB ADD DUP2 MSTORE SWAP2 SWAP1 MSTORE DUP1 MLOAD PUSH1 0x20 SWAP1 SWAP2 ADD KECCAK256 PUSH1 0x2 SSTORE PUSH1 0x3 DUP3 SWAP1 SSTORE PUSH1 0x1 PUSH1 0x1 PUSH1 0xA0 SHL SUB DUP2 AND PUSH2 0x45F9 JUMPI PUSH1 0x0 DUP1 SLOAD PUSH1 0x1 PUSH1 0x1 PUSH1 0xA0 SHL SUB NOT AND ADDRESS OR SWAP1 SSTORE PUSH2 0x4716 JUMP JUMPDEST PUSH1 0x40 MLOAD PUSH4 0x1FFC9A7 PUSH1 0xE0 SHL DUP2 MSTORE PUSH4 0x14B83435 PUSH1 0xE3 SHL PUSH1 0x4 DUP3 ADD MSTORE PUSH1 0x1 PUSH1 0x1 PUSH1 0xA0 SHL SUB DUP3 AND SWAP1 PUSH4 0x1FFC9A7 SWAP1 PUSH1 0x24 ADD PUSH1 0x20 PUSH1 0x40 MLOAD DUP1 DUP4 SUB DUP2 DUP7 GAS STATICCALL SWAP3 POP POP POP DUP1 ISZERO PUSH2 0x4660 JUMPI POP PUSH1 0x40 DUP1 MLOAD PUSH1 0x1F RETURNDATASIZE SWAP1 DUP2 ADD PUSH1 0x1F NOT AND DUP3 ADD SWAP1 SWAP3 MSTORE PUSH2 0x465D SWAP2 DUP2 ADD SWAP1 PUSH2 0x58D8 JUMP JUMPDEST PUSH1 0x1 JUMPDEST PUSH2 0x46AC JUMPI PUSH1 0x40 MLOAD PUSH3 0x461BCD PUSH1 0xE5 SHL DUP2 MSTORE PUSH1 0x20 PUSH1 0x4 DUP3 ADD MSTORE PUSH1 0x1C PUSH1 0x24 DUP3 ADD MSTORE PUSH32 0x496C6C6567616C20416363657373436F6E74726F6C4D616E6167657200000000 PUSH1 0x44 DUP3 ADD MSTORE PUSH1 0x64 ADD PUSH2 0xC90 JUMP JUMPDEST DUP1 PUSH2 0x46F9 JUMPI PUSH1 0x40 MLOAD PUSH3 0x461BCD PUSH1 0xE5 SHL DUP2 MSTORE PUSH1 0x20 PUSH1 0x4 DUP3 ADD MSTORE PUSH1 0x1C PUSH1 0x24 DUP3 ADD MSTORE PUSH32 0x496E76616C696420416363657373436F6E74726F6C4D616E6167657200000000 PUSH1 0x44 DUP3 ADD MSTORE PUSH1 0x64 ADD PUSH2 0xC90 JUMP JUMPDEST POP PUSH1 0x0 DUP1 SLOAD PUSH1 0x1 PUSH1 0x1 PUSH1 0xA0 SHL SUB NOT AND PUSH1 0x1 PUSH1 0x1 PUSH1 0xA0 SHL SUB DUP4 AND OR SWAP1 SSTORE JUMPDEST PUSH1 0x4 DUP1 SLOAD PUSH2 0xFFFF NOT AND SWAP1 SSTORE PUSH2 0x34AF CALLER PUSH2 0x4442 JUMP JUMPDEST PUSH1 0x60 PUSH1 0x1 PUSH1 0x1 PUSH1 0xA0 SHL SUB DUP5 AND EXTCODESIZE PUSH2 0x477E JUMPI PUSH1 0x40 MLOAD PUSH3 0x461BCD PUSH1 0xE5 SHL DUP2 MSTORE PUSH1 0x20 PUSH1 0x4 DUP3 ADD MSTORE PUSH1 0x18 PUSH1 0x24 DUP3 ADD MSTORE PUSH24 0x496C6C6567616C20436F6E74726163742041646472657373 PUSH1 0x40 SHL PUSH1 0x44 DUP3 ADD MSTORE PUSH1 0x64 ADD PUSH2 0xC90 JUMP JUMPDEST PUSH1 0x0 DUP1 DUP6 PUSH1 0x1 PUSH1 0x1 PUSH1 0xA0 SHL SUB AND DUP6 PUSH1 0x40 MLOAD PUSH2 0x4799 SWAP2 SWAP1 PUSH2 0x5E23 JUMP JUMPDEST PUSH1 0x0 PUSH1 0x40 MLOAD DUP1 DUP4 SUB DUP2 DUP6 GAS DELEGATECALL SWAP2 POP POP RETURNDATASIZE DUP1 PUSH1 0x0 DUP2 EQ PUSH2 0x47D4 JUMPI PUSH1 0x40 MLOAD SWAP2 POP PUSH1 0x1F NOT PUSH1 0x3F RETURNDATASIZE ADD AND DUP3 ADD PUSH1 0x40 MSTORE RETURNDATASIZE DUP3 MSTORE RETURNDATASIZE PUSH1 0x0 PUSH1 0x20 DUP5 ADD RETURNDATACOPY PUSH2 0x47D9 JUMP JUMPDEST PUSH1 0x60 SWAP2 POP JUMPDEST POP SWAP2 POP SWAP2 POP PUSH2 0x47E9 DUP3 DUP3 DUP7 PUSH2 0x4CE4 JUMP JUMPDEST SWAP7 SWAP6 POP POP POP POP POP POP JUMP JUMPDEST PUSH1 0x0 DUP2 DUP2 MSTORE PUSH1 0x1 DUP4 ADD PUSH1 0x20 MSTORE PUSH1 0x40 DUP2 KECCAK256 SLOAD DUP1 ISZERO PUSH2 0x48DC JUMPI PUSH1 0x0 PUSH2 0x4817 PUSH1 0x1 DUP4 PUSH2 0x58BA JUMP JUMPDEST DUP6 SLOAD SWAP1 SWAP2 POP PUSH1 0x0 SWAP1 PUSH2 0x482B SWAP1 PUSH1 0x1 SWAP1 PUSH2 0x58BA JUMP JUMPDEST SWAP1 POP DUP2 DUP2 EQ PUSH2 0x4890 JUMPI PUSH1 0x0 DUP7 PUSH1 0x0 ADD DUP3 DUP2 SLOAD DUP2 LT PUSH2 0x484B JUMPI PUSH2 0x484B PUSH2 0x5787 JUMP JUMPDEST SWAP1 PUSH1 0x0 MSTORE PUSH1 0x20 PUSH1 0x0 KECCAK256 ADD SLOAD SWAP1 POP DUP1 DUP8 PUSH1 0x0 ADD DUP5 DUP2 SLOAD DUP2 LT PUSH2 0x486E JUMPI PUSH2 0x486E PUSH2 0x5787 JUMP JUMPDEST PUSH1 0x0 SWAP2 DUP3 MSTORE PUSH1 0x20 DUP1 DUP4 KECCAK256 SWAP1 SWAP2 ADD SWAP3 SWAP1 SWAP3 SSTORE SWAP2 DUP3 MSTORE PUSH1 0x1 DUP9 ADD SWAP1 MSTORE PUSH1 0x40 SWAP1 KECCAK256 DUP4 SWAP1 SSTORE JUMPDEST DUP6 SLOAD DUP7 SWAP1 DUP1 PUSH2 0x48A1 JUMPI PUSH2 0x48A1 PUSH2 0x5E35 JUMP JUMPDEST PUSH1 0x1 SWAP1 SUB DUP2 DUP2 SWAP1 PUSH1 0x0 MSTORE PUSH1 0x20 PUSH1 0x0 KECCAK256 ADD PUSH1 0x0 SWAP1 SSTORE SWAP1 SSTORE DUP6 PUSH1 0x1 ADD PUSH1 0x0 DUP7 DUP2 MSTORE PUSH1 0x20 ADD SWAP1 DUP2 MSTORE PUSH1 0x20 ADD PUSH1 0x0 KECCAK256 PUSH1 0x0 SWAP1 SSTORE PUSH1 0x1 SWAP4 POP POP POP POP PUSH2 0xB85 JUMP JUMPDEST PUSH1 0x0 SWAP2 POP POP PUSH2 0xB85 JUMP JUMPDEST PUSH1 0x1 PUSH1 0x1 PUSH1 0xA0 SHL SUB DUP2 AND EXTCODESIZE PUSH2 0x4938 JUMPI PUSH1 0x40 MLOAD PUSH3 0x461BCD PUSH1 0xE5 SHL DUP2 MSTORE PUSH1 0x20 PUSH1 0x4 DUP3 ADD MSTORE PUSH1 0x18 PUSH1 0x24 DUP3 ADD MSTORE PUSH24 0x496C6C6567616C20436F6E74726163742041646472657373 PUSH1 0x40 SHL PUSH1 0x44 DUP3 ADD MSTORE PUSH1 0x64 ADD PUSH2 0xC90 JUMP JUMPDEST PUSH1 0x0 DUP1 MLOAD PUSH1 0x20 PUSH2 0x5EAA DUP4 CODECOPY DUP2 MLOAD SWAP2 MSTORE DUP1 SLOAD PUSH1 0x1 PUSH1 0x1 PUSH1 0xA0 SHL SUB NOT AND PUSH1 0x1 PUSH1 0x1 PUSH1 0xA0 SHL SUB SWAP3 SWAP1 SWAP3 AND SWAP2 SWAP1 SWAP2 OR SWAP1 SSTORE JUMP JUMPDEST PUSH1 0x60 PUSH2 0x4972 DUP5 PUSH2 0x4D1D JUMP JUMPDEST PUSH1 0x0 DUP4 MLOAD GT DUP1 PUSH2 0x497F JUMPI POP DUP2 JUMPDEST ISZERO PUSH2 0x49BA JUMPI PUSH2 0x4075 DUP5 DUP5 PUSH1 0x40 MLOAD DUP1 PUSH1 0x40 ADD PUSH1 0x40 MSTORE DUP1 PUSH1 0x13 DUP2 MSTORE PUSH1 0x20 ADD PUSH19 0x11195B1959D85D1958D85B1B0811985A5B1959 PUSH1 0x6A SHL DUP2 MSTORE POP PUSH2 0x472A JUMP JUMPDEST POP POP PUSH1 0x40 DUP1 MLOAD PUSH1 0x0 DUP2 MSTORE PUSH1 0x20 DUP2 ADD SWAP1 SWAP2 MSTORE SWAP3 SWAP2 POP POP JUMP JUMPDEST PUSH1 0x0 DUP2 DUP2 MSTORE PUSH1 0x1 DUP4 ADD PUSH1 0x20 MSTORE PUSH1 0x40 DUP2 KECCAK256 SLOAD PUSH2 0x4A18 JUMPI POP DUP2 SLOAD PUSH1 0x1 DUP2 DUP2 ADD DUP5 SSTORE PUSH1 0x0 DUP5 DUP2 MSTORE PUSH1 0x20 DUP1 DUP3 KECCAK256 SWAP1 SWAP4 ADD DUP5 SWAP1 SSTORE DUP5 SLOAD DUP5 DUP3 MSTORE DUP3 DUP7 ADD SWAP1 SWAP4 MSTORE PUSH1 0x40 SWAP1 KECCAK256 SWAP2 SWAP1 SWAP2 SSTORE PUSH2 0xB85 JUMP JUMPDEST POP PUSH1 0x0 PUSH2 0xB85 JUMP JUMPDEST PUSH1 0x60 DUP2 PUSH1 0x0 ADD DUP1 SLOAD DUP1 PUSH1 0x20 MUL PUSH1 0x20 ADD PUSH1 0x40 MLOAD SWAP1 DUP2 ADD PUSH1 0x40 MSTORE DUP1 SWAP3 SWAP2 SWAP1 DUP2 DUP2 MSTORE PUSH1 0x20 ADD DUP3 DUP1 SLOAD DUP1 ISZERO PUSH2 0x4A70 JUMPI PUSH1 0x20 MUL DUP3 ADD SWAP2 SWAP1 PUSH1 0x0 MSTORE PUSH1 0x20 PUSH1 0x0 KECCAK256 SWAP1 JUMPDEST DUP2 SLOAD DUP2 MSTORE PUSH1 0x20 ADD SWAP1 PUSH1 0x1 ADD SWAP1 DUP1 DUP4 GT PUSH2 0x4A5C JUMPI JUMPDEST POP POP POP POP POP SWAP1 POP SWAP2 SWAP1 POP JUMP JUMPDEST PUSH1 0x0 DUP1 DUP3 MLOAD PUSH1 0x41 SUB PUSH2 0x4AB2 JUMPI PUSH1 0x20 DUP4 ADD MLOAD PUSH1 0x40 DUP5 ADD MLOAD PUSH1 0x60 DUP6 ADD MLOAD PUSH1 0x0 BYTE PUSH2 0x4AA6 DUP8 DUP3 DUP6 DUP6 PUSH2 0x4D61 JUMP JUMPDEST SWAP5 POP SWAP5 POP POP POP POP PUSH2 0x4AE3 JUMP JUMPDEST DUP3 MLOAD PUSH1 0x40 SUB PUSH2 0x4ADB JUMPI PUSH1 0x20 DUP4 ADD MLOAD PUSH1 0x40 DUP5 ADD MLOAD PUSH2 0x4AD0 DUP7 DUP4 DUP4 PUSH2 0x4E4E JUMP JUMPDEST SWAP4 POP SWAP4 POP POP POP PUSH2 0x4AE3 JUMP JUMPDEST POP PUSH1 0x0 SWAP1 POP PUSH1 0x2 JUMPDEST SWAP3 POP SWAP3 SWAP1 POP JUMP JUMPDEST PUSH1 0x0 DUP2 PUSH1 0x4 DUP2 GT ISZERO PUSH2 0x4AFE JUMPI PUSH2 0x4AFE PUSH2 0x5884 JUMP JUMPDEST SUB PUSH2 0x4B06 JUMPI POP JUMP JUMPDEST PUSH1 0x1 DUP2 PUSH1 0x4 DUP2 GT ISZERO PUSH2 0x4B1A JUMPI PUSH2 0x4B1A PUSH2 0x5884 JUMP JUMPDEST SUB PUSH2 0x4B67 JUMPI PUSH1 0x40 MLOAD PUSH3 0x461BCD PUSH1 0xE5 SHL DUP2 MSTORE PUSH1 0x20 PUSH1 0x4 DUP3 ADD MSTORE PUSH1 0x18 PUSH1 0x24 DUP3 ADD MSTORE PUSH32 0x45434453413A20696E76616C6964207369676E61747572650000000000000000 PUSH1 0x44 DUP3 ADD MSTORE PUSH1 0x64 ADD PUSH2 0xC90 JUMP JUMPDEST PUSH1 0x2 DUP2 PUSH1 0x4 DUP2 GT ISZERO PUSH2 0x4B7B JUMPI PUSH2 0x4B7B PUSH2 0x5884 JUMP JUMPDEST SUB PUSH2 0x4BC8 JUMPI PUSH1 0x40 MLOAD PUSH3 0x461BCD PUSH1 0xE5 SHL DUP2 MSTORE PUSH1 0x20 PUSH1 0x4 DUP3 ADD MSTORE PUSH1 0x1F PUSH1 0x24 DUP3 ADD MSTORE PUSH32 0x45434453413A20696E76616C6964207369676E6174757265206C656E67746800 PUSH1 0x44 DUP3 ADD MSTORE PUSH1 0x64 ADD PUSH2 0xC90 JUMP JUMPDEST PUSH1 0x3 DUP2 PUSH1 0x4 DUP2 GT ISZERO PUSH2 0x4BDC JUMPI PUSH2 0x4BDC PUSH2 0x5884 JUMP JUMPDEST SUB PUSH2 0x4C34 JUMPI PUSH1 0x40 MLOAD PUSH3 0x461BCD PUSH1 0xE5 SHL DUP2 MSTORE PUSH1 0x20 PUSH1 0x4 DUP3 ADD MSTORE PUSH1 0x22 PUSH1 0x24 DUP3 ADD MSTORE PUSH32 0x45434453413A20696E76616C6964207369676E6174757265202773272076616C PUSH1 0x44 DUP3 ADD MSTORE PUSH2 0x7565 PUSH1 0xF0 SHL PUSH1 0x64 DUP3 ADD MSTORE PUSH1 0x84 ADD PUSH2 0xC90 JUMP JUMPDEST PUSH1 0x4 DUP2 PUSH1 0x4 DUP2 GT ISZERO PUSH2 0x4C48 JUMPI PUSH2 0x4C48 PUSH2 0x5884 JUMP JUMPDEST SUB PUSH2 0x3E28 JUMPI PUSH1 0x40 MLOAD PUSH3 0x461BCD PUSH1 0xE5 SHL DUP2 MSTORE PUSH1 0x20 PUSH1 0x4 DUP3 ADD MSTORE PUSH1 0x22 PUSH1 0x24 DUP3 ADD MSTORE PUSH32 0x45434453413A20696E76616C6964207369676E6174757265202776272076616C PUSH1 0x44 DUP3 ADD MSTORE PUSH2 0x7565 PUSH1 0xF0 SHL PUSH1 0x64 DUP3 ADD MSTORE PUSH1 0x84 ADD PUSH2 0xC90 JUMP JUMPDEST PUSH1 0x0 PUSH2 0x118A PUSH2 0x2710 PUSH2 0x4CB2 DUP6 DUP6 PUSH2 0x4E87 JUMP JUMPDEST SWAP1 PUSH2 0x4E93 JUMP JUMPDEST PUSH1 0x0 DUP2 DUP5 DUP5 GT ISZERO PUSH2 0x4CDC JUMPI PUSH1 0x40 MLOAD PUSH3 0x461BCD PUSH1 0xE5 SHL DUP2 MSTORE PUSH1 0x4 ADD PUSH2 0xC90 SWAP2 SWAP1 PUSH2 0x4F22 JUMP JUMPDEST POP POP POP SWAP1 SUB SWAP1 JUMP JUMPDEST PUSH1 0x60 DUP4 ISZERO PUSH2 0x4CF3 JUMPI POP DUP2 PUSH2 0x118A JUMP JUMPDEST DUP3 MLOAD ISZERO PUSH2 0x4D03 JUMPI DUP3 MLOAD DUP1 DUP5 PUSH1 0x20 ADD REVERT JUMPDEST DUP2 PUSH1 0x40 MLOAD PUSH3 0x461BCD PUSH1 0xE5 SHL DUP2 MSTORE PUSH1 0x4 ADD PUSH2 0xC90 SWAP2 SWAP1 PUSH2 0x4F22 JUMP JUMPDEST PUSH2 0x4D26 DUP2 PUSH2 0x48E6 JUMP JUMPDEST PUSH1 0x40 MLOAD PUSH1 0x1 PUSH1 0x1 PUSH1 0xA0 SHL SUB DUP3 AND SWAP1 ADDRESS SWAP1 CALLER SWAP1 PUSH32 0x354BD4B6EB65D64E6C79C53FA4F983A5E6BEC4824CE4627C71BE0B2722F4917E SWAP1 PUSH1 0x0 SWAP1 LOG4 POP JUMP JUMPDEST PUSH1 0x0 DUP1 PUSH32 0x7FFFFFFFFFFFFFFFFFFFFFFFFFFFFFFF5D576E7357A4501DDFE92F46681B20A0 DUP4 GT ISZERO PUSH2 0x4D98 JUMPI POP PUSH1 0x0 SWAP1 POP PUSH1 0x3 PUSH2 0x4E45 JUMP JUMPDEST DUP5 PUSH1 0xFF AND PUSH1 0x1B EQ ISZERO DUP1 ISZERO PUSH2 0x4DB0 JUMPI POP DUP5 PUSH1 0xFF AND PUSH1 0x1C EQ ISZERO JUMPDEST ISZERO PUSH2 0x4DC1 JUMPI POP PUSH1 0x0 SWAP1 POP PUSH1 0x4 PUSH2 0x4E45 JUMP JUMPDEST PUSH1 0x40 DUP1 MLOAD PUSH1 0x0 DUP1 DUP3 MSTORE PUSH1 0x20 DUP3 ADD DUP1 DUP5 MSTORE DUP10 SWAP1 MSTORE PUSH1 0xFF DUP9 AND SWAP3 DUP3 ADD SWAP3 SWAP1 SWAP3 MSTORE PUSH1 0x60 DUP2 ADD DUP7 SWAP1 MSTORE PUSH1 0x80 DUP2 ADD DUP6 SWAP1 MSTORE PUSH1 0x1 SWAP1 PUSH1 0xA0 ADD PUSH1 0x20 PUSH1 0x40 MLOAD PUSH1 0x20 DUP2 SUB SWAP1 DUP1 DUP5 SUB SWAP1 DUP6 GAS STATICCALL ISZERO DUP1 ISZERO PUSH2 0x4E15 JUMPI RETURNDATASIZE PUSH1 0x0 DUP1 RETURNDATACOPY RETURNDATASIZE PUSH1 0x0 REVERT JUMPDEST POP POP PUSH1 0x40 MLOAD PUSH1 0x1F NOT ADD MLOAD SWAP2 POP POP PUSH1 0x1 PUSH1 0x1 PUSH1 0xA0 SHL SUB DUP2 AND PUSH2 0x4E3E JUMPI PUSH1 0x0 PUSH1 0x1 SWAP3 POP SWAP3 POP POP PUSH2 0x4E45 JUMP JUMPDEST SWAP2 POP PUSH1 0x0 SWAP1 POP JUMPDEST SWAP5 POP SWAP5 SWAP3 POP POP POP JUMP JUMPDEST PUSH1 0x0 DUP1 PUSH1 0x1 PUSH1 0x1 PUSH1 0xFF SHL SUB DUP4 AND DUP2 PUSH2 0x4E6B PUSH1 0xFF DUP7 SWAP1 SHR PUSH1 0x1B PUSH2 0x57B3 JUMP JUMPDEST SWAP1 POP PUSH2 0x4E79 DUP8 DUP3 DUP9 DUP6 PUSH2 0x4D61 JUMP JUMPDEST SWAP4 POP SWAP4 POP POP POP SWAP4 POP SWAP4 SWAP2 POP POP JUMP JUMPDEST PUSH1 0x0 PUSH2 0x118A DUP3 DUP5 PUSH2 0x5E4B JUMP JUMPDEST PUSH1 0x0 PUSH2 0x118A DUP3 DUP5 PUSH2 0x5E62 JUMP JUMPDEST PUSH1 0x1 PUSH1 0x1 PUSH1 0xE0 SHL SUB NOT DUP2 AND DUP2 EQ PUSH2 0x3E28 JUMPI PUSH1 0x0 DUP1 REVERT JUMPDEST PUSH1 0x0 PUSH1 0x20 DUP3 DUP5 SUB SLT ISZERO PUSH2 0x4EC7 JUMPI PUSH1 0x0 DUP1 REVERT JUMPDEST DUP2 CALLDATALOAD PUSH2 0x118A DUP2 PUSH2 0x4E9F JUMP JUMPDEST PUSH1 0x0 JUMPDEST DUP4 DUP2 LT ISZERO PUSH2 0x4EED JUMPI DUP2 DUP2 ADD MLOAD DUP4 DUP3 ADD MSTORE PUSH1 0x20 ADD PUSH2 0x4ED5 JUMP JUMPDEST POP POP PUSH1 0x0 SWAP2 ADD MSTORE JUMP JUMPDEST PUSH1 0x0 DUP2 MLOAD DUP1 DUP5 MSTORE PUSH2 0x4F0E DUP2 PUSH1 0x20 DUP7 ADD PUSH1 0x20 DUP7 ADD PUSH2 0x4ED2 JUMP JUMPDEST PUSH1 0x1F ADD PUSH1 0x1F NOT AND SWAP3 SWAP1 SWAP3 ADD PUSH1 0x20 ADD SWAP3 SWAP2 POP POP JUMP JUMPDEST PUSH1 0x20 DUP2 MSTORE PUSH1 0x0 PUSH2 0x118A PUSH1 0x20 DUP4 ADD DUP5 PUSH2 0x4EF6 JUMP JUMPDEST PUSH1 0x1 PUSH1 0x1 PUSH1 0xA0 SHL SUB DUP2 AND DUP2 EQ PUSH2 0x3E28 JUMPI PUSH1 0x0 DUP1 REVERT JUMPDEST PUSH1 0x0 DUP1 PUSH1 0x40 DUP4 DUP6 SUB SLT ISZERO PUSH2 0x4F5D JUMPI PUSH1 0x0 DUP1 REVERT JUMPDEST DUP3 CALLDATALOAD PUSH2 0x4F68 DUP2 PUSH2 0x4F35 JUMP JUMPDEST SWAP5 PUSH1 0x20 SWAP4 SWAP1 SWAP4 ADD CALLDATALOAD SWAP4 POP POP POP JUMP JUMPDEST PUSH1 0x0 PUSH1 0x20 DUP3 DUP5 SUB SLT ISZERO PUSH2 0x4F88 JUMPI PUSH1 0x0 DUP1 REVERT JUMPDEST DUP2 CALLDATALOAD PUSH2 0x118A DUP2 PUSH2 0x4F35 JUMP JUMPDEST PUSH1 0x0 PUSH1 0x20 DUP3 DUP5 SUB SLT ISZERO PUSH2 0x4FA5 JUMPI PUSH1 0x0 DUP1 REVERT JUMPDEST DUP2 CALLDATALOAD PUSH1 0x1 PUSH1 0x1 PUSH1 0x40 SHL SUB DUP2 GT ISZERO PUSH2 0x4FBB JUMPI PUSH1 0x0 DUP1 REVERT JUMPDEST DUP3 ADD PUSH1 0xC0 DUP2 DUP6 SUB SLT ISZERO PUSH2 0x118A JUMPI PUSH1 0x0 DUP1 REVERT JUMPDEST PUSH1 0x0 DUP1 DUP4 PUSH1 0x1F DUP5 ADD SLT PUSH2 0x4FDF JUMPI PUSH1 0x0 DUP1 REVERT JUMPDEST POP DUP2 CALLDATALOAD PUSH1 0x1 PUSH1 0x1 PUSH1 0x40 SHL SUB DUP2 GT ISZERO PUSH2 0x4FF6 JUMPI PUSH1 0x0 DUP1 REVERT JUMPDEST PUSH1 0x20 DUP4 ADD SWAP2 POP DUP4 PUSH1 0x20 DUP3 PUSH1 0x5 SHL DUP6 ADD ADD GT ISZERO PUSH2 0x4AE3 JUMPI PUSH1 0x0 DUP1 REVERT JUMPDEST PUSH1 0x0 DUP1 PUSH1 0x20 DUP4 DUP6 SUB SLT ISZERO PUSH2 0x5024 JUMPI PUSH1 0x0 DUP1 REVERT JUMPDEST DUP3 CALLDATALOAD PUSH1 0x1 PUSH1 0x1 PUSH1 0x40 SHL SUB DUP2 GT ISZERO PUSH2 0x503A JUMPI PUSH1 0x0 DUP1 REVERT JUMPDEST PUSH2 0x5046 DUP6 DUP3 DUP7 ADD PUSH2 0x4FCD JUMP JUMPDEST SWAP1 SWAP7 SWAP1 SWAP6 POP SWAP4 POP POP POP POP JUMP JUMPDEST PUSH1 0x0 PUSH1 0x20 DUP3 DUP5 SUB SLT ISZERO PUSH2 0x5064 JUMPI PUSH1 0x0 DUP1 REVERT JUMPDEST POP CALLDATALOAD SWAP2 SWAP1 POP JUMP JUMPDEST PUSH1 0x0 DUP1 PUSH1 0x20 DUP4 DUP6 SUB SLT ISZERO PUSH2 0x507E JUMPI PUSH1 0x0 DUP1 REVERT JUMPDEST DUP3 CALLDATALOAD PUSH1 0x1 PUSH1 0x1 PUSH1 0x40 SHL SUB DUP1 DUP3 GT ISZERO PUSH2 0x5095 JUMPI PUSH1 0x0 DUP1 REVERT JUMPDEST DUP2 DUP6 ADD SWAP2 POP DUP6 PUSH1 0x1F DUP4 ADD SLT PUSH2 0x50A9 JUMPI PUSH1 0x0 DUP1 REVERT JUMPDEST DUP2 CALLDATALOAD DUP2 DUP2 GT ISZERO PUSH2 0x50B8 JUMPI PUSH1 0x0 DUP1 REVERT JUMPDEST DUP7 PUSH1 0x20 PUSH1 0x60 DUP4 MUL DUP6 ADD ADD GT ISZERO PUSH2 0x50CD JUMPI PUSH1 0x0 DUP1 REVERT JUMPDEST PUSH1 0x20 SWAP3 SWAP1 SWAP3 ADD SWAP7 SWAP2 SWAP6 POP SWAP1 SWAP4 POP POP POP POP JUMP JUMPDEST PUSH1 0x0 DUP1 PUSH1 0x0 PUSH1 0x60 DUP5 DUP7 SUB SLT ISZERO PUSH2 0x50F4 JUMPI PUSH1 0x0 DUP1 REVERT JUMPDEST DUP4 CALLDATALOAD PUSH2 0x50FF DUP2 PUSH2 0x4F35 JUMP JUMPDEST SWAP3 POP PUSH1 0x20 DUP5 ADD CALLDATALOAD PUSH2 0x510F DUP2 PUSH2 0x4F35 JUMP JUMPDEST SWAP3 SWAP6 SWAP3 SWAP5 POP POP POP PUSH1 0x40 SWAP2 SWAP1 SWAP2 ADD CALLDATALOAD SWAP1 JUMP JUMPDEST DUP1 ISZERO ISZERO DUP2 EQ PUSH2 0x3E28 JUMPI PUSH1 0x0 DUP1 REVERT JUMPDEST DUP1 CALLDATALOAD PUSH2 0x1402 DUP2 PUSH2 0x5120 JUMP JUMPDEST PUSH1 0x0 PUSH1 0x20 DUP3 DUP5 SUB SLT ISZERO PUSH2 0x514B JUMPI PUSH1 0x0 DUP1 REVERT JUMPDEST DUP2 CALLDATALOAD PUSH2 0x118A DUP2 PUSH2 0x5120 JUMP JUMPDEST PUSH1 0x0 DUP1 PUSH1 0x40 DUP4 DUP6 SUB SLT ISZERO PUSH2 0x5169 JUMPI PUSH1 0x0 DUP1 REVERT JUMPDEST DUP3 CALLDATALOAD PUSH2 0x5174 DUP2 PUSH2 0x4F35 JUMP JUMPDEST SWAP2 POP PUSH1 0x20 DUP4 ADD CALLDATALOAD PUSH2 0x5184 DUP2 PUSH2 0x5120 JUMP JUMPDEST DUP1 SWAP2 POP POP SWAP3 POP SWAP3 SWAP1 POP JUMP JUMPDEST PUSH1 0x0 PUSH1 0x80 DUP3 DUP5 SUB SLT ISZERO PUSH2 0x41F1 JUMPI PUSH1 0x0 DUP1 REVERT JUMPDEST PUSH4 0x4E487B71 PUSH1 0xE0 SHL PUSH1 0x0 MSTORE PUSH1 0x41 PUSH1 0x4 MSTORE PUSH1 0x24 PUSH1 0x0 REVERT JUMPDEST PUSH1 0x40 MLOAD PUSH1 0x60 DUP2 ADD PUSH1 0x1 PUSH1 0x1 PUSH1 0x40 SHL SUB DUP2 GT DUP3 DUP3 LT OR ISZERO PUSH2 0x51D9 JUMPI PUSH2 0x51D9 PUSH2 0x51A1 JUMP JUMPDEST PUSH1 0x40 MSTORE SWAP1 JUMP JUMPDEST PUSH1 0x40 MLOAD PUSH1 0x1F DUP3 ADD PUSH1 0x1F NOT AND DUP2 ADD PUSH1 0x1 PUSH1 0x1 PUSH1 0x40 SHL SUB DUP2 GT DUP3 DUP3 LT OR ISZERO PUSH2 0x5207 JUMPI PUSH2 0x5207 PUSH2 0x51A1 JUMP JUMPDEST PUSH1 0x40 MSTORE SWAP2 SWAP1 POP JUMP JUMPDEST PUSH1 0x0 DUP1 PUSH1 0x0 PUSH1 0x60 DUP5 DUP7 SUB SLT ISZERO PUSH2 0x5224 JUMPI PUSH1 0x0 DUP1 REVERT JUMPDEST DUP4 CALLDATALOAD PUSH2 0x522F DUP2 PUSH2 0x4F35 JUMP JUMPDEST SWAP3 POP PUSH1 0x20 DUP5 DUP2 ADD CALLDATALOAD PUSH1 0x1 PUSH1 0x1 PUSH1 0x40 SHL SUB DUP1 DUP3 GT ISZERO PUSH2 0x524C JUMPI PUSH1 0x0 DUP1 REVERT JUMPDEST DUP2 DUP8 ADD SWAP2 POP DUP8 PUSH1 0x1F DUP4 ADD SLT PUSH2 0x5260 JUMPI PUSH1 0x0 DUP1 REVERT JUMPDEST DUP2 CALLDATALOAD DUP2 DUP2 GT ISZERO PUSH2 0x5272 JUMPI PUSH2 0x5272 PUSH2 0x51A1 JUMP JUMPDEST PUSH2 0x5284 PUSH1 0x1F DUP3 ADD PUSH1 0x1F NOT AND DUP6 ADD PUSH2 0x51DF JUMP JUMPDEST SWAP2 POP DUP1 DUP3 MSTORE DUP9 DUP5 DUP3 DUP6 ADD ADD GT ISZERO PUSH2 0x529A JUMPI PUSH1 0x0 DUP1 REVERT JUMPDEST DUP1 DUP5 DUP5 ADD DUP6 DUP5 ADD CALLDATACOPY PUSH1 0x0 DUP5 DUP3 DUP5 ADD ADD MSTORE POP DUP1 SWAP5 POP POP POP POP PUSH2 0x52BD PUSH1 0x40 DUP6 ADD PUSH2 0x512E JUMP JUMPDEST SWAP1 POP SWAP3 POP SWAP3 POP SWAP3 JUMP JUMPDEST PUSH1 0x20 DUP1 DUP3 MSTORE DUP3 MLOAD DUP3 DUP3 ADD DUP2 SWAP1 MSTORE PUSH1 0x0 SWAP2 SWAP1 DUP5 DUP3 ADD SWAP1 PUSH1 0x40 DUP6 ADD SWAP1 DUP5 JUMPDEST DUP2 DUP2 LT ISZERO PUSH2 0x5307 JUMPI DUP4 MLOAD PUSH1 0x1 PUSH1 0x1 PUSH1 0xA0 SHL SUB AND DUP4 MSTORE SWAP3 DUP5 ADD SWAP3 SWAP2 DUP5 ADD SWAP2 PUSH1 0x1 ADD PUSH2 0x52E2 JUMP JUMPDEST POP SWAP1 SWAP7 SWAP6 POP POP POP POP POP POP JUMP JUMPDEST PUSH1 0x0 DUP1 DUP4 PUSH1 0x1F DUP5 ADD SLT PUSH2 0x5325 JUMPI PUSH1 0x0 DUP1 REVERT JUMPDEST POP DUP2 CALLDATALOAD PUSH1 0x1 PUSH1 0x1 PUSH1 0x40 SHL SUB DUP2 GT ISZERO PUSH2 0x533C JUMPI PUSH1 0x0 DUP1 REVERT JUMPDEST PUSH1 0x20 DUP4 ADD SWAP2 POP DUP4 PUSH1 0x20 DUP3 PUSH1 0x6 SHL DUP6 ADD ADD GT ISZERO PUSH2 0x4AE3 JUMPI PUSH1 0x0 DUP1 REVERT JUMPDEST PUSH1 0x0 DUP1 PUSH1 0x20 DUP4 DUP6 SUB SLT ISZERO PUSH2 0x536A JUMPI PUSH1 0x0 DUP1 REVERT JUMPDEST DUP3 CALLDATALOAD PUSH1 0x1 PUSH1 0x1 PUSH1 0x40 SHL SUB DUP2 GT ISZERO PUSH2 0x5380 JUMPI PUSH1 0x0 DUP1 REVERT JUMPDEST PUSH2 0x5046 DUP6 DUP3 DUP7 ADD PUSH2 0x5313 JUMP JUMPDEST PUSH1 0x0 DUP1 PUSH1 0x40 DUP4 DUP6 SUB SLT ISZERO PUSH2 0x539F JUMPI PUSH1 0x0 DUP1 REVERT JUMPDEST DUP3 CALLDATALOAD SWAP2 POP PUSH1 0x20 DUP4 ADD CALLDATALOAD PUSH2 0x5184 DUP2 PUSH2 0x4F35 JUMP JUMPDEST PUSH1 0x0 DUP1 PUSH1 0x20 DUP4 DUP6 SUB SLT ISZERO PUSH2 0x53C4 JUMPI PUSH1 0x0 DUP1 REVERT JUMPDEST DUP3 CALLDATALOAD PUSH1 0x1 PUSH1 0x1 PUSH1 0x40 SHL SUB DUP1 DUP3 GT ISZERO PUSH2 0x53DB JUMPI PUSH1 0x0 DUP1 REVERT JUMPDEST DUP2 DUP6 ADD SWAP2 POP DUP6 PUSH1 0x1F DUP4 ADD SLT PUSH2 0x53EF JUMPI PUSH1 0x0 DUP1 REVERT JUMPDEST DUP2 CALLDATALOAD DUP2 DUP2 GT ISZERO PUSH2 0x53FE JUMPI PUSH1 0x0 DUP1 REVERT JUMPDEST DUP7 PUSH1 0x20 DUP3 PUSH1 0x7 SHL DUP6 ADD ADD GT ISZERO PUSH2 0x50CD JUMPI PUSH1 0x0 DUP1 REVERT JUMPDEST PUSH1 0x20 DUP1 DUP3 MSTORE DUP3 MLOAD DUP3 DUP3 ADD DUP2 SWAP1 MSTORE PUSH1 0x0 SWAP2 SWAP1 DUP5 DUP3 ADD SWAP1 PUSH1 0x40 DUP6 ADD SWAP1 DUP5 JUMPDEST DUP2 DUP2 LT ISZERO PUSH2 0x5307 JUMPI DUP4 MLOAD DUP4 MSTORE SWAP3 DUP5 ADD SWAP3 SWAP2 DUP5 ADD SWAP2 PUSH1 0x1 ADD PUSH2 0x542F JUMP JUMPDEST PUSH1 0x0 DUP1 PUSH1 0x0 DUP1 PUSH1 0x0 DUP1 PUSH1 0xA0 DUP8 DUP10 SUB SLT ISZERO PUSH2 0x5464 JUMPI PUSH1 0x0 DUP1 REVERT JUMPDEST DUP7 CALLDATALOAD PUSH2 0x546F DUP2 PUSH2 0x4F35 JUMP JUMPDEST SWAP6 POP PUSH1 0x20 DUP8 ADD CALLDATALOAD PUSH2 0x547F DUP2 PUSH2 0x4F35 JUMP JUMPDEST SWAP5 POP PUSH1 0x40 DUP8 ADD CALLDATALOAD SWAP4 POP PUSH1 0x60 DUP8 ADD CALLDATALOAD SWAP3 POP PUSH1 0x80 DUP8 ADD CALLDATALOAD PUSH1 0x1 PUSH1 0x1 PUSH1 0x40 SHL SUB DUP1 DUP3 GT ISZERO PUSH2 0x54A9 JUMPI PUSH1 0x0 DUP1 REVERT JUMPDEST DUP2 DUP10 ADD SWAP2 POP DUP10 PUSH1 0x1F DUP4 ADD SLT PUSH2 0x54BD JUMPI PUSH1 0x0 DUP1 REVERT JUMPDEST DUP2 CALLDATALOAD DUP2 DUP2 GT ISZERO PUSH2 0x54CC JUMPI PUSH1 0x0 DUP1 REVERT JUMPDEST DUP11 PUSH1 0x20 DUP3 DUP6 ADD ADD GT ISZERO PUSH2 0x54DE JUMPI PUSH1 0x0 DUP1 REVERT JUMPDEST PUSH1 0x20 DUP4 ADD SWAP5 POP DUP1 SWAP4 POP POP POP POP SWAP3 SWAP6 POP SWAP3 SWAP6 POP SWAP3 SWAP6 JUMP JUMPDEST PUSH1 0x0 DUP1 PUSH1 0x40 DUP4 DUP6 SUB SLT ISZERO PUSH2 0x5507 JUMPI PUSH1 0x0 DUP1 REVERT JUMPDEST DUP3 CALLDATALOAD PUSH2 0x5512 DUP2 PUSH2 0x4F35 JUMP JUMPDEST SWAP2 POP PUSH1 0x20 DUP4 ADD CALLDATALOAD PUSH2 0x5184 DUP2 PUSH2 0x4F35 JUMP JUMPDEST PUSH1 0x0 DUP1 PUSH2 0x100 DUP1 DUP5 DUP7 SUB SLT ISZERO PUSH2 0x5537 JUMPI PUSH1 0x0 DUP1 REVERT JUMPDEST DUP4 CALLDATALOAD PUSH2 0x5542 DUP2 PUSH2 0x4F35 JUMP JUMPDEST SWAP3 POP DUP4 DUP2 ADD DUP6 LT ISZERO PUSH2 0x5553 JUMPI PUSH1 0x0 DUP1 REVERT JUMPDEST POP PUSH1 0x20 DUP4 ADD SWAP1 POP SWAP3 POP SWAP3 SWAP1 POP JUMP JUMPDEST PUSH1 0x0 PUSH1 0x20 DUP3 DUP5 SUB SLT ISZERO PUSH2 0x5573 JUMPI PUSH1 0x0 DUP1 REVERT JUMPDEST DUP2 CALLDATALOAD PUSH1 0x1 PUSH1 0x1 PUSH1 0x40 SHL SUB DUP2 GT ISZERO PUSH2 0x5589 JUMPI PUSH1 0x0 DUP1 REVERT JUMPDEST DUP3 ADD PUSH1 0x60 DUP2 DUP6 SUB SLT ISZERO PUSH2 0x118A JUMPI PUSH1 0x0 DUP1 REVERT JUMPDEST PUSH1 0x1 DUP2 DUP2 SHR SWAP1 DUP3 AND DUP1 PUSH2 0x55AF JUMPI PUSH1 0x7F DUP3 AND SWAP2 POP JUMPDEST PUSH1 0x20 DUP3 LT DUP2 SUB PUSH2 0x41F1 JUMPI PUSH4 0x4E487B71 PUSH1 0xE0 SHL PUSH1 0x0 MSTORE PUSH1 0x22 PUSH1 0x4 MSTORE PUSH1 0x24 PUSH1 0x0 REVERT JUMPDEST PUSH1 0x20 DUP1 DUP3 MSTORE PUSH1 0x15 SWAP1 DUP3 ADD MSTORE PUSH21 0x125B1B1959D85B0810DBDB9D1C9858DD0810D85B1B PUSH1 0x5A SHL PUSH1 0x40 DUP3 ADD MSTORE PUSH1 0x60 ADD SWAP1 JUMP JUMPDEST PUSH1 0x20 DUP1 DUP3 MSTORE PUSH1 0x14 SWAP1 DUP3 ADD MSTORE PUSH20 0x141C9BDE1E4810D85B1B195908125B9D985B1A59 PUSH1 0x62 SHL PUSH1 0x40 DUP3 ADD MSTORE PUSH1 0x60 ADD SWAP1 JUMP JUMPDEST PUSH1 0x0 DUP1 DUP4 CALLDATALOAD PUSH1 0x1E NOT DUP5 CALLDATASIZE SUB ADD DUP2 SLT PUSH2 0x5643 JUMPI PUSH1 0x0 DUP1 REVERT JUMPDEST DUP4 ADD DUP1 CALLDATALOAD SWAP2 POP PUSH1 0x1 PUSH1 0x1 PUSH1 0x40 SHL SUB DUP3 GT ISZERO PUSH2 0x565D JUMPI PUSH1 0x0 DUP1 REVERT JUMPDEST PUSH1 0x20 ADD SWAP2 POP CALLDATASIZE DUP2 SWAP1 SUB DUP3 SGT ISZERO PUSH2 0x4AE3 JUMPI PUSH1 0x0 DUP1 REVERT JUMPDEST DUP2 DUP4 DUP3 CALLDATACOPY PUSH1 0x0 SWAP2 ADD SWAP1 DUP2 MSTORE SWAP2 SWAP1 POP JUMP JUMPDEST PUSH1 0x1F DUP3 GT ISZERO PUSH2 0x1B87 JUMPI PUSH1 0x0 DUP2 DUP2 MSTORE PUSH1 0x20 DUP2 KECCAK256 PUSH1 0x1F DUP6 ADD PUSH1 0x5 SHR DUP2 ADD PUSH1 0x20 DUP7 LT ISZERO PUSH2 0x56A9 JUMPI POP DUP1 JUMPDEST PUSH1 0x1F DUP6 ADD PUSH1 0x5 SHR DUP3 ADD SWAP2 POP JUMPDEST DUP2 DUP2 LT ISZERO PUSH2 0x34AF JUMPI DUP3 DUP2 SSTORE PUSH1 0x1 ADD PUSH2 0x56B5 JUMP JUMPDEST DUP2 MLOAD PUSH1 0x1 PUSH1 0x1 PUSH1 0x40 SHL SUB DUP2 GT ISZERO PUSH2 0x56E1 JUMPI PUSH2 0x56E1 PUSH2 0x51A1 JUMP JUMPDEST PUSH2 0x56F5 DUP2 PUSH2 0x56EF DUP5 SLOAD PUSH2 0x559B JUMP JUMPDEST DUP5 PUSH2 0x5682 JUMP JUMPDEST PUSH1 0x20 DUP1 PUSH1 0x1F DUP4 GT PUSH1 0x1 DUP2 EQ PUSH2 0x572A JUMPI PUSH1 0x0 DUP5 ISZERO PUSH2 0x5712 JUMPI POP DUP6 DUP4 ADD MLOAD JUMPDEST PUSH1 0x0 NOT PUSH1 0x3 DUP7 SWAP1 SHL SHR NOT AND PUSH1 0x1 DUP6 SWAP1 SHL OR DUP6 SSTORE PUSH2 0x34AF JUMP JUMPDEST PUSH1 0x0 DUP6 DUP2 MSTORE PUSH1 0x20 DUP2 KECCAK256 PUSH1 0x1F NOT DUP7 AND SWAP2 JUMPDEST DUP3 DUP2 LT ISZERO PUSH2 0x5759 JUMPI DUP9 DUP7 ADD MLOAD DUP3 SSTORE SWAP5 DUP5 ADD SWAP5 PUSH1 0x1 SWAP1 SWAP2 ADD SWAP1 DUP5 ADD PUSH2 0x573A JUMP JUMPDEST POP DUP6 DUP3 LT ISZERO PUSH2 0x5777 JUMPI DUP8 DUP6 ADD MLOAD PUSH1 0x0 NOT PUSH1 0x3 DUP9 SWAP1 SHL PUSH1 0xF8 AND SHR NOT AND DUP2 SSTORE JUMPDEST POP POP POP POP POP PUSH1 0x1 SWAP1 DUP2 SHL ADD SWAP1 SSTORE POP JUMP JUMPDEST PUSH4 0x4E487B71 PUSH1 0xE0 SHL PUSH1 0x0 MSTORE PUSH1 0x32 PUSH1 0x4 MSTORE PUSH1 0x24 PUSH1 0x0 REVERT JUMPDEST PUSH4 0x4E487B71 PUSH1 0xE0 SHL PUSH1 0x0 MSTORE PUSH1 0x11 PUSH1 0x4 MSTORE PUSH1 0x24 PUSH1 0x0 REVERT JUMPDEST DUP1 DUP3 ADD DUP1 DUP3 GT ISZERO PUSH2 0xB85 JUMPI PUSH2 0xB85 PUSH2 0x579D JUMP JUMPDEST PUSH1 0x0 PUSH1 0x1 DUP3 ADD PUSH2 0x57D8 JUMPI PUSH2 0x57D8 PUSH2 0x579D JUMP JUMPDEST POP PUSH1 0x1 ADD SWAP1 JUMP JUMPDEST PUSH1 0x20 DUP1 DUP3 MSTORE PUSH1 0x1D SWAP1 DUP3 ADD MSTORE PUSH32 0x455243323050617573653A204163636F756E742053757370656E646564000000 PUSH1 0x40 DUP3 ADD MSTORE PUSH1 0x60 ADD SWAP1 JUMP JUMPDEST PUSH1 0x20 DUP1 DUP3 MSTORE PUSH1 0x17 SWAP1 DUP3 ADD MSTORE PUSH32 0x536166654D6F64653A2043616C6C2052656A6563746564000000000000000000 PUSH1 0x40 DUP3 ADD MSTORE PUSH1 0x60 ADD SWAP1 JUMP JUMPDEST PUSH1 0x20 DUP1 DUP3 MSTORE PUSH1 0x17 SWAP1 DUP3 ADD MSTORE PUSH32 0x496E76616C6964204163636F756E742041646472657373000000000000000000 PUSH1 0x40 DUP3 ADD MSTORE PUSH1 0x60 ADD SWAP1 JUMP JUMPDEST PUSH4 0x4E487B71 PUSH1 0xE0 SHL PUSH1 0x0 MSTORE PUSH1 0x21 PUSH1 0x4 MSTORE PUSH1 0x24 PUSH1 0x0 REVERT JUMPDEST PUSH1 0x0 DUP3 CALLDATALOAD PUSH1 0x5E NOT DUP4 CALLDATASIZE SUB ADD DUP2 SLT PUSH2 0x58B0 JUMPI PUSH1 0x0 DUP1 REVERT JUMPDEST SWAP2 SWAP1 SWAP2 ADD SWAP3 SWAP2 POP POP JUMP JUMPDEST DUP2 DUP2 SUB DUP2 DUP2 GT ISZERO PUSH2 0xB85 JUMPI PUSH2 0xB85 PUSH2 0x579D JUMP JUMPDEST DUP1 MLOAD PUSH2 0x1402 DUP2 PUSH2 0x5120 JUMP JUMPDEST PUSH1 0x0 PUSH1 0x20 DUP3 DUP5 SUB SLT ISZERO PUSH2 0x58EA JUMPI PUSH1 0x0 DUP1 REVERT JUMPDEST DUP2 MLOAD PUSH2 0x118A DUP2 PUSH2 0x5120 JUMP JUMPDEST PUSH1 0x0 PUSH1 0x20 DUP3 DUP5 SUB SLT ISZERO PUSH2 0x5907 JUMPI PUSH1 0x0 DUP1 REVERT JUMPDEST DUP2 MLOAD PUSH2 0x118A DUP2 PUSH2 0x4F35 JUMP JUMPDEST PUSH1 0x0 PUSH1 0x20 DUP3 DUP5 SUB SLT ISZERO PUSH2 0x5924 JUMPI PUSH1 0x0 DUP1 REVERT JUMPDEST POP MLOAD SWAP2 SWAP1 POP JUMP JUMPDEST PUSH1 0x0 PUSH1 0x1 PUSH1 0x1 PUSH1 0x40 SHL SUB DUP3 GT ISZERO PUSH2 0x5944 JUMPI PUSH2 0x5944 PUSH2 0x51A1 JUMP JUMPDEST POP PUSH1 0x5 SHL PUSH1 0x20 ADD SWAP1 JUMP JUMPDEST PUSH1 0x0 DUP3 PUSH1 0x1F DUP4 ADD SLT PUSH2 0x595F JUMPI PUSH1 0x0 DUP1 REVERT JUMPDEST DUP2 MLOAD PUSH1 0x20 PUSH2 0x5974 PUSH2 0x596F DUP4 PUSH2 0x592B JUMP JUMPDEST PUSH2 0x51DF JUMP JUMPDEST DUP3 DUP2 MSTORE PUSH1 0x5 SWAP3 SWAP1 SWAP3 SHL DUP5 ADD DUP2 ADD SWAP2 DUP2 DUP2 ADD SWAP1 DUP7 DUP5 GT ISZERO PUSH2 0x5993 JUMPI PUSH1 0x0 DUP1 REVERT JUMPDEST DUP3 DUP7 ADD JUMPDEST DUP5 DUP2 LT ISZERO PUSH2 0x5A84 JUMPI DUP1 MLOAD PUSH1 0x1 PUSH1 0x1 PUSH1 0x40 SHL SUB DUP1 DUP3 GT ISZERO PUSH2 0x59B7 JUMPI PUSH1 0x0 DUP1 DUP2 REVERT JUMPDEST SWAP1 DUP9 ADD SWAP1 PUSH1 0x60 DUP3 DUP12 SUB PUSH1 0x1F NOT ADD DUP2 SGT ISZERO PUSH2 0x59D1 JUMPI PUSH1 0x0 DUP1 DUP2 REVERT JUMPDEST PUSH2 0x59D9 PUSH2 0x51B7 JUMP JUMPDEST DUP8 DUP5 ADD MLOAD DUP2 MSTORE PUSH1 0x40 DUP1 DUP6 ADD MLOAD DUP5 DUP2 GT ISZERO PUSH2 0x59F3 JUMPI PUSH1 0x0 DUP1 DUP2 REVERT JUMPDEST DUP6 ADD SWAP4 POP PUSH1 0x3F DUP5 ADD DUP14 SGT PUSH2 0x5A07 JUMPI PUSH1 0x0 DUP1 DUP2 REVERT JUMPDEST DUP9 DUP5 ADD MLOAD PUSH2 0x5A17 PUSH2 0x596F DUP3 PUSH2 0x592B JUMP JUMPDEST DUP2 DUP2 MSTORE PUSH1 0x5 SWAP2 SWAP1 SWAP2 SHL DUP6 ADD DUP3 ADD SWAP1 DUP11 DUP2 ADD SWAP1 DUP16 DUP4 GT ISZERO PUSH2 0x5A37 JUMPI PUSH1 0x0 DUP1 DUP2 REVERT JUMPDEST SWAP6 DUP4 ADD SWAP6 JUMPDEST DUP3 DUP8 LT ISZERO PUSH2 0x5A5E JUMPI DUP7 MLOAD PUSH2 0x5A4F DUP2 PUSH2 0x4E9F JUMP JUMPDEST DUP3 MSTORE SWAP6 DUP12 ADD SWAP6 SWAP1 DUP12 ADD SWAP1 PUSH2 0x5A3C JUMP JUMPDEST DUP5 DUP13 ADD MSTORE POP PUSH2 0x5A70 SWAP1 POP DUP6 DUP5 ADD PUSH2 0x58CD JUMP JUMPDEST SWAP1 DUP3 ADD MSTORE DUP7 MSTORE POP POP POP SWAP2 DUP4 ADD SWAP2 DUP4 ADD PUSH2 0x5997 JUMP JUMPDEST POP SWAP7 SWAP6 POP POP POP POP POP POP JUMP JUMPDEST PUSH1 0x0 DUP1 DUP3 DUP5 SUB PUSH1 0xC0 DUP2 SLT ISZERO PUSH2 0x5AA3 JUMPI PUSH1 0x0 DUP1 REVERT JUMPDEST PUSH1 0xA0 DUP2 SLT ISZERO PUSH2 0x5AB1 JUMPI PUSH1 0x0 DUP1 REVERT JUMPDEST POP PUSH1 0x40 MLOAD PUSH1 0xA0 DUP2 ADD PUSH1 0x1 PUSH1 0x1 PUSH1 0x40 SHL SUB DUP3 DUP3 LT DUP2 DUP4 GT OR ISZERO PUSH2 0x5AD5 JUMPI PUSH2 0x5AD5 PUSH2 0x51A1 JUMP JUMPDEST DUP2 PUSH1 0x40 MSTORE DUP6 MLOAD DUP4 MSTORE PUSH1 0x20 DUP7 ADD MLOAD PUSH1 0x20 DUP5 ADD MSTORE PUSH1 0x40 DUP7 ADD MLOAD PUSH1 0x40 DUP5 ADD MSTORE PUSH1 0x60 DUP7 ADD MLOAD SWAP2 POP PUSH2 0x5B01 DUP3 PUSH2 0x4F35 JUMP JUMPDEST DUP2 PUSH1 0x60 DUP5 ADD MSTORE PUSH1 0x80 DUP7 ADD MLOAD SWAP2 POP PUSH2 0x5B17 DUP3 PUSH2 0x5120 JUMP JUMPDEST PUSH1 0x80 DUP4 ADD DUP3 SWAP1 MSTORE PUSH1 0xA0 DUP7 ADD MLOAD SWAP3 SWAP5 POP DUP1 DUP4 GT ISZERO PUSH2 0x5B33 JUMPI PUSH1 0x0 DUP1 REVERT JUMPDEST POP POP PUSH2 0x5B41 DUP6 DUP3 DUP7 ADD PUSH2 0x594E JUMP JUMPDEST SWAP2 POP POP SWAP3 POP SWAP3 SWAP1 POP JUMP JUMPDEST DUP2 DUP4 MSTORE DUP2 DUP2 PUSH1 0x20 DUP6 ADD CALLDATACOPY POP PUSH1 0x0 DUP3 DUP3 ADD PUSH1 0x20 SWAP1 DUP2 ADD SWAP2 SWAP1 SWAP2 MSTORE PUSH1 0x1F SWAP1 SWAP2 ADD PUSH1 0x1F NOT AND SWAP1 SWAP2 ADD ADD SWAP1 JUMP JUMPDEST PUSH1 0xE0 DUP2 MSTORE PUSH1 0x0 PUSH2 0x5B88 PUSH1 0xE0 DUP4 ADD DUP7 DUP9 PUSH2 0x5B4B JUMP JUMPDEST PUSH1 0x20 DUP6 MLOAD DUP2 DUP6 ADD MSTORE DUP1 DUP7 ADD MLOAD PUSH1 0x40 DUP2 DUP2 DUP8 ADD MSTORE DUP1 DUP9 ADD MLOAD SWAP2 POP PUSH1 0x60 DUP3 DUP2 DUP9 ADD MSTORE DUP1 DUP10 ADD MLOAD SWAP3 POP PUSH1 0x80 PUSH1 0x1 DUP1 PUSH1 0xA0 SHL SUB DUP5 AND DUP2 DUP10 ADD MSTORE DUP1 DUP11 ADD MLOAD ISZERO ISZERO PUSH1 0xA0 DUP10 ADD MSTORE DUP8 DUP7 SUB PUSH1 0xC0 DUP10 ADD MSTORE DUP6 SWAP4 POP DUP9 MLOAD DUP1 DUP8 MSTORE DUP6 DUP8 ADD SWAP5 POP DUP6 DUP2 PUSH1 0x5 SHL DUP9 ADD ADD DUP7 DUP12 ADD PUSH1 0x0 DUP1 JUMPDEST DUP5 DUP2 LT ISZERO PUSH2 0x5C6B JUMPI DUP11 DUP5 SUB PUSH1 0x1F NOT ADD DUP10 MSTORE DUP3 MLOAD DUP1 MLOAD DUP6 MSTORE DUP11 DUP2 ADD MLOAD DUP12 DUP7 ADD DUP10 SWAP1 MSTORE DUP1 MLOAD DUP10 DUP8 ADD DUP2 SWAP1 MSTORE SWAP1 DUP13 ADD SWAP1 DUP5 SWAP1 DUP10 DUP9 ADD SWAP1 JUMPDEST DUP1 DUP4 LT ISZERO PUSH2 0x5C4A JUMPI DUP4 MLOAD PUSH1 0x1 PUSH1 0x1 PUSH1 0xE0 SHL SUB NOT AND DUP3 MSTORE SWAP3 DUP15 ADD SWAP3 PUSH1 0x1 SWAP3 SWAP1 SWAP3 ADD SWAP2 SWAP1 DUP15 ADD SWAP1 PUSH2 0x5C20 JUMP JUMPDEST POP SWAP3 DUP12 ADD MLOAD ISZERO ISZERO SWAP7 DUP12 ADD SWAP7 SWAP1 SWAP7 MSTORE POP SWAP9 DUP11 ADD SWAP9 SWAP4 POP SWAP2 DUP10 ADD SWAP2 PUSH1 0x1 ADD PUSH2 0x5BEC JUMP JUMPDEST POP SWAP2 SWAP16 SWAP15 POP POP POP POP POP POP POP POP POP POP POP POP POP POP POP JUMP JUMPDEST PUSH1 0x80 DUP2 MSTORE PUSH1 0x0 PUSH2 0x5C94 PUSH1 0x80 DUP4 ADD DUP9 DUP11 PUSH2 0x5B4B JUMP JUMPDEST DUP3 DUP2 SUB PUSH1 0x20 DUP5 ADD MSTORE PUSH2 0x5CA7 DUP2 DUP8 DUP10 PUSH2 0x5B4B JUMP JUMPDEST SWAP2 POP POP DUP4 PUSH1 0x40 DUP4 ADD MSTORE PUSH2 0xFFFF DUP4 AND PUSH1 0x60 DUP4 ADD MSTORE SWAP8 SWAP7 POP POP POP POP POP POP POP JUMP JUMPDEST SWAP3 DUP4 MSTORE PUSH1 0x1 PUSH1 0x1 PUSH1 0xA0 SHL SUB SWAP2 SWAP1 SWAP2 AND PUSH1 0x20 DUP4 ADD MSTORE PUSH1 0x1 PUSH1 0x1 PUSH1 0xE0 SHL SUB NOT AND PUSH1 0x40 DUP3 ADD MSTORE PUSH1 0x60 ADD SWAP1 JUMP JUMPDEST DUP3 DUP2 MSTORE PUSH1 0xA0 DUP2 ADD DUP3 CALLDATALOAD PUSH2 0x5D00 DUP2 PUSH2 0x4F35 JUMP JUMPDEST PUSH1 0x1 PUSH1 0x1 PUSH1 0xA0 SHL SUB SWAP1 DUP2 AND PUSH1 0x20 DUP5 DUP2 ADD SWAP2 SWAP1 SWAP2 MSTORE DUP5 ADD CALLDATALOAD SWAP1 PUSH2 0x5D21 DUP3 PUSH2 0x4F35 JUMP JUMPDEST DUP1 DUP3 AND PUSH1 0x40 DUP6 ADD MSTORE POP POP PUSH1 0x40 DUP4 ADD CALLDATALOAD PUSH1 0x60 DUP4 ADD MSTORE PUSH1 0x60 DUP4 ADD CALLDATALOAD PUSH1 0x80 DUP4 ADD MSTORE SWAP4 SWAP3 POP POP POP JUMP JUMPDEST DUP3 DUP2 MSTORE PUSH1 0x40 PUSH1 0x20 DUP3 ADD MSTORE DUP2 CALLDATALOAD PUSH1 0x40 DUP3 ADD MSTORE PUSH1 0x0 PUSH1 0x20 DUP4 ADD CALLDATALOAD PUSH2 0x5D67 DUP2 PUSH2 0x4F35 JUMP JUMPDEST PUSH1 0x1 PUSH1 0x1 PUSH1 0xA0 SHL SUB AND PUSH1 0x60 DUP4 ADD MSTORE PUSH1 0x40 DUP4 ADD CALLDATALOAD CALLDATASIZE DUP5 SWAP1 SUB PUSH1 0x1E NOT ADD DUP2 SLT PUSH2 0x5D8D JUMPI PUSH1 0x0 DUP1 REVERT JUMPDEST DUP4 ADD PUSH1 0x20 DUP2 ADD SWAP1 CALLDATALOAD PUSH1 0x1 PUSH1 0x1 PUSH1 0x40 SHL SUB DUP2 GT ISZERO PUSH2 0x5DA9 JUMPI PUSH1 0x0 DUP1 REVERT JUMPDEST DUP1 CALLDATASIZE SUB DUP3 SGT ISZERO PUSH2 0x5DB8 JUMPI PUSH1 0x0 DUP1 REVERT JUMPDEST PUSH1 0x60 PUSH1 0x80 DUP6 ADD MSTORE PUSH2 0x47E9 PUSH1 0xA0 DUP6 ADD DUP3 DUP5 PUSH2 0x5B4B JUMP JUMPDEST PUSH1 0x0 DUP1 PUSH1 0x40 DUP4 DUP6 SUB SLT ISZERO PUSH2 0x5DE0 JUMPI PUSH1 0x0 DUP1 REVERT JUMPDEST DUP3 MLOAD PUSH2 0x5DEB DUP2 PUSH2 0x4F35 JUMP JUMPDEST PUSH1 0x20 SWAP4 SWAP1 SWAP4 ADD MLOAD SWAP3 SWAP5 SWAP3 SWAP4 POP POP POP JUMP JUMPDEST PUSH1 0x1 DUP1 PUSH1 0xA0 SHL SUB DUP6 AND DUP2 MSTORE DUP4 PUSH1 0x20 DUP3 ADD MSTORE PUSH1 0x60 PUSH1 0x40 DUP3 ADD MSTORE PUSH1 0x0 PUSH2 0x47E9 PUSH1 0x60 DUP4 ADD DUP5 DUP7 PUSH2 0x5B4B JUMP JUMPDEST PUSH1 0x0 DUP3 MLOAD PUSH2 0x58B0 DUP2 DUP5 PUSH1 0x20 DUP8 ADD PUSH2 0x4ED2 JUMP JUMPDEST PUSH4 0x4E487B71 PUSH1 0xE0 SHL PUSH1 0x0 MSTORE PUSH1 0x31 PUSH1 0x4 MSTORE PUSH1 0x24 PUSH1 0x0 REVERT JUMPDEST DUP1 DUP3 MUL DUP2 ISZERO DUP3 DUP3 DIV DUP5 EQ OR PUSH2 0xB85 JUMPI PUSH2 0xB85 PUSH2 0x579D JUMP JUMPDEST PUSH1 0x0 DUP3 PUSH2 0x5E7F JUMPI PUSH4 0x4E487B71 PUSH1 0xE0 SHL PUSH1 0x0 MSTORE PUSH1 0x12 PUSH1 0x4 MSTORE PUSH1 0x24 PUSH1 0x0 REVERT JUMPDEST POP DIV SWAP1 JUMP INVALID DIFFICULTY PUSH6 0x6C6567617465 PUSH4 0x616C6C20 PUSH10 0x735265616C6D55706772 PUSH2 0x6461 PUSH3 0x6C6520 CHAINID PUSH2 0x696C PUSH6 0x64360894A13B LOG1 LOG3 0x21 MOD PUSH8 0xC828492DB98DCA3E KECCAK256 PUSH23 0xCC3735A920A3CA505D382BBCA264697066735822122080 0xE5 SGT 0x1E PUSH1 0x7A 0xC6 0x2C 0xEE 0x23 TIMESTAMP 0xFB CALLDATALOAD 0xAA ADDMOD 0x2B 0xCF DUP5 0xAC DUP5 0x27 LOG0 0xC3 ADDMOD 0xD0 0xF7 LT 0xD4 LOG0 0xD7 0xC6 JUMPDEST PUSH5 0x736F6C6343 STOP ADDMOD GT STOP CALLER 0xB5 BALANCE 0x27 PUSH9 0x4A568B3173AE13B9F8 0xA6 ADD PUSH15 0x243E63B6E8EE1178D6A717850B5D61 SUB "
    },
    "gasEstimates": {
      "creation": {
        "codeDepositCost": "4863800",
        "executionCost": "infinite",
        "totalCost": "infinite"
      },
      "external": {
        "": "209",
        "accessControlManager()": "2420",
        "allowance(address,address)": "infinite",
        "approve(address,uint256)": "infinite",
        "balanceOf(address)": "2665",
        "batchClaimToken(bytes32[])": "infinite",
        "batchLockToken((address,address,uint256,uint256)[])": "infinite",
        "batchTransfer((address,uint256)[])": "infinite",
        "batchTransferFrom((address,address,uint256)[])": "infinite",
        "batchUnlockToken((bytes32,address,string)[])": "infinite",
        "batchUpdateTaxWhitelist((address,bool)[])": "infinite",
        "burn(address,uint256)": "infinite",
        "claimToken(bytes32)": "infinite",
        "contractContext()": "507",
        "contractName()": "2425",
        "contractRealm()": "2425",
        "contractVersion()": "2425",
        "decimals()": "312",
        "decreaseAllowance(address,uint256)": "infinite",
        "domainSeparator()": "4742",
        "getLibrary()": "282",
        "increaseAllowance(address,uint256)": "infinite",
        "initVersion()": "2413",
        "initialize((string,string,string,bytes,uint256,address))": "infinite",
        "isPaused(address)": "infinite",
        "isPausedAll()": "2378",
        "isSafeMode()": "2404",
        "isUpgradable()": "2394",
        "localAdmin()": "2489",
        "lockBalanceOf(address)": "2606",
        "lockInfo(bytes32,address)": "7288",
        "lockToken((address,address,uint256,uint256))": "infinite",
        "mint(address,uint256)": "infinite",
        "name()": "infinite",
        "nonce(address)": "2638",
        "pause(address)": "infinite",
        "pauseAll()": "infinite",
        "pausedAccounts()": "infinite",
        "permit(address,address,uint256,uint256,bytes)": "infinite",
        "proxiableUUID()": "infinite",
        "setLocalAdmin(address)": "infinite",
        "setSafeMode(bool)": "infinite",
        "setUpgradeStatus(bool)": "infinite",
        "subjectAddress()": "infinite",
        "supportsInterface(bytes4)": "infinite",
        "symbol()": "infinite",
        "taxRate()": "2405",
        "taxTreasury()": "2399",
        "taxWhitelist()": "infinite",
        "tokensDistribution(address,address[7])": "infinite",
        "totalBalanceOf(address)": "infinite",
        "totalSupply()": "2361",
        "transfer(address,uint256)": "infinite",
        "transferFrom(address,address,uint256)": "infinite",
        "unlockToken((bytes32,address,string))": "infinite",
        "unpause(address)": "infinite",
        "unpauseAll()": "infinite",
        "updateTaxRate(uint256)": "infinite",
        "updateTaxWhitelist(address,bool)": "infinite",
        "upgradeTo(address,bytes,bool)": "infinite",
        "withdrawBalance(address)": "infinite"
      },
      "internal": {
        "_allowance(address,address)": "2292",
        "_approve(address,address,uint256)": "infinite",
        "_claimToken(bytes32)": "infinite",
        "_initContext(string calldata,string calldata,bytes32,bytes calldata)": "infinite",
        "_lockToken(struct IERC20Lock.LockTokenRequest calldata)": "infinite",
        "_mint(address,uint256)": "infinite",
        "_policyInterceptor(bytes4,address,bool,bool)": "infinite",
        "_spendAllowance(address,address,uint256)": "infinite",
        "_taxTransfer(address,address,uint256)": "infinite",
        "_tokensDistributionValidation(address)": "infinite",
        "_transfer(address,address,uint256)": "infinite",
        "_transferFrom(address,address,uint256)": "infinite",
        "_unlockToken(struct IERC20Lock.UnLockTokenRequest calldata)": "infinite",
        "_updateTaxWhitelist(address,bool)": "infinite",
        "_useNonce(address)": "24340"
      }
    },
    "methodIdentifiers": {
      "accessControlManager()": "b4a0bdf3",
      "allowance(address,address)": "dd62ed3e",
      "approve(address,uint256)": "095ea7b3",
      "balanceOf(address)": "70a08231",
      "batchClaimToken(bytes32[])": "1455a1c8",
      "batchLockToken((address,address,uint256,uint256)[])": "9a7e1873",
      "batchTransfer((address,uint256)[])": "faa552a8",
      "batchTransferFrom((address,address,uint256)[])": "1c6928e8",
      "batchUnlockToken((bytes32,address,string)[])": "9b5f356e",
      "batchUpdateTaxWhitelist((address,bool)[])": "7d35f355",
      "burn(address,uint256)": "9dc29fac",
      "claimToken(bytes32)": "a5bfa9a9",
      "contractContext()": "870666cb",
      "contractName()": "75d0c0dc",
      "contractRealm()": "d3e024b8",
      "contractVersion()": "a0a8e460",
      "decimals()": "313ce567",
      "decreaseAllowance(address,uint256)": "a457c2d7",
      "domainSeparator()": "f698da25",
      "getLibrary()": "7678922e",
      "increaseAllowance(address,uint256)": "39509351",
      "initVersion()": "38d38c97",
      "initialize((string,string,string,bytes,uint256,address))": "1408a7f4",
      "isPaused(address)": "5b14f183",
      "isPausedAll()": "a0e6adf1",
      "isSafeMode()": "be22465d",
      "isUpgradable()": "5479d940",
      "localAdmin()": "f94a0adb",
      "lockBalanceOf(address)": "10e776ed",
      "lockInfo(bytes32,address)": "8bfc07ed",
      "lockToken((address,address,uint256,uint256))": "6b839492",
      "mint(address,uint256)": "40c10f19",
      "name()": "06fdde03",
      "nonce(address)": "70ae92d2",
      "pause(address)": "76a67a51",
      "pauseAll()": "595c6a67",
      "pausedAccounts()": "de843a94",
      "permit(address,address,uint256,uint256,bytes)": "9fd5a6cf",
      "proxiableUUID()": "52d1902d",
      "setLocalAdmin(address)": "d9dc1f19",
      "setSafeMode(bool)": "44b7e5f2",
      "setUpgradeStatus(bool)": "48e6be1c",
      "subjectAddress()": "58dbc45d",
      "supportsInterface(bytes4)": "01ffc9a7",
      "symbol()": "95d89b41",
      "taxRate()": "771a3a1d",
      "taxTreasury()": "8a92ab15",
      "taxWhitelist()": "7bf60ff4",
      "tokensDistribution(address,address[7])": "ec4ac1f7",
      "totalBalanceOf(address)": "4b0ee02a",
      "totalSupply()": "18160ddd",
      "transfer(address,uint256)": "a9059cbb",
      "transferFrom(address,address,uint256)": "23b872dd",
      "unlockToken((bytes32,address,string))": "fdb92ec4",
      "unpause(address)": "57b001f9",
      "unpauseAll()": "8a2ddd03",
      "updateTaxRate(uint256)": "17fdcc8e",
      "updateTaxWhitelist(address,bool)": "46a634d4",
      "upgradeTo(address,bytes,bool)": "7147855d",
      "withdrawBalance(address)": "756af45f"
    }
  },
  "storageLayout": {
    "storage": [
      {
        "astId": 27723,
        "contract": "src/contracts/token/lively/LivelyToken.sol:LivelyToken",
        "label": "_accessControlManager",
        "offset": 0,
        "slot": "0",
        "type": "t_address"
      },
      {
        "astId": 27725,
        "contract": "src/contracts/token/lively/LivelyToken.sol:LivelyToken",
        "label": "_domainName",
        "offset": 0,
        "slot": "1",
        "type": "t_bytes32"
      },
      {
        "astId": 27727,
        "contract": "src/contracts/token/lively/LivelyToken.sol:LivelyToken",
        "label": "_domainVersion",
        "offset": 0,
        "slot": "2",
        "type": "t_bytes32"
      },
      {
        "astId": 27729,
        "contract": "src/contracts/token/lively/LivelyToken.sol:LivelyToken",
        "label": "_domainRealm",
        "offset": 0,
        "slot": "3",
        "type": "t_bytes32"
      },
      {
        "astId": 27731,
        "contract": "src/contracts/token/lively/LivelyToken.sol:LivelyToken",
        "label": "_isSafeMode",
        "offset": 0,
        "slot": "4",
        "type": "t_bool"
      },
      {
        "astId": 27733,
        "contract": "src/contracts/token/lively/LivelyToken.sol:LivelyToken",
        "label": "_isUpgradable",
        "offset": 1,
        "slot": "4",
        "type": "t_bool"
      },
      {
        "astId": 27738,
        "contract": "src/contracts/token/lively/LivelyToken.sol:LivelyToken",
        "label": "__gap",
        "offset": 0,
        "slot": "5",
        "type": "t_array(t_uint256)64_storage"
      },
      {
        "astId": 33454,
        "contract": "src/contracts/token/lively/LivelyToken.sol:LivelyToken",
        "label": "_name",
        "offset": 0,
        "slot": "69",
        "type": "t_string_storage"
      },
      {
        "astId": 33456,
        "contract": "src/contracts/token/lively/LivelyToken.sol:LivelyToken",
        "label": "_symbol",
        "offset": 0,
        "slot": "70",
        "type": "t_string_storage"
      },
      {
        "astId": 33458,
        "contract": "src/contracts/token/lively/LivelyToken.sol:LivelyToken",
        "label": "_totalSupply",
        "offset": 0,
        "slot": "71",
        "type": "t_uint256"
      },
      {
        "astId": 33460,
        "contract": "src/contracts/token/lively/LivelyToken.sol:LivelyToken",
        "label": "_taxRate",
        "offset": 0,
        "slot": "72",
        "type": "t_uint256"
      },
      {
        "astId": 33462,
        "contract": "src/contracts/token/lively/LivelyToken.sol:LivelyToken",
        "label": "_taxTreasury",
        "offset": 0,
        "slot": "73",
        "type": "t_address"
      },
      {
        "astId": 33464,
        "contract": "src/contracts/token/lively/LivelyToken.sol:LivelyToken",
        "label": "_isPaused",
        "offset": 20,
        "slot": "73",
        "type": "t_bool"
      },
      {
        "astId": 33466,
        "contract": "src/contracts/token/lively/LivelyToken.sol:LivelyToken",
        "label": "_isTokenDistributed",
        "offset": 21,
        "slot": "73",
        "type": "t_bool"
      },
      {
        "astId": 33469,
        "contract": "src/contracts/token/lively/LivelyToken.sol:LivelyToken",
        "label": "_data",
        "offset": 0,
        "slot": "74",
        "type": "t_struct(DataCollection)33447_storage"
      },
      {
        "astId": 27906,
        "contract": "src/contracts/token/lively/LivelyToken.sol:LivelyToken",
        "label": "_initialized",
        "offset": 0,
        "slot": "81",
        "type": "t_uint16"
      },
      {
        "astId": 27909,
        "contract": "src/contracts/token/lively/LivelyToken.sol:LivelyToken",
        "label": "_initializing",
        "offset": 2,
        "slot": "81",
        "type": "t_bool"
      }
    ],
    "types": {
      "t_address": {
        "encoding": "inplace",
        "label": "address",
        "numberOfBytes": "20"
      },
      "t_array(t_bytes32)dyn_storage": {
        "base": "t_bytes32",
        "encoding": "dynamic_array",
        "label": "bytes32[]",
        "numberOfBytes": "32"
      },
      "t_array(t_uint256)64_storage": {
        "base": "t_uint256",
        "encoding": "inplace",
        "label": "uint256[64]",
        "numberOfBytes": "2048"
      },
      "t_bool": {
        "encoding": "inplace",
        "label": "bool",
        "numberOfBytes": "1"
      },
      "t_bytes32": {
        "encoding": "inplace",
        "label": "bytes32",
        "numberOfBytes": "32"
      },
      "t_enum(LockState)33402": {
        "encoding": "inplace",
        "label": "enum LivelyStorage.LockState",
        "numberOfBytes": "1"
      },
      "t_mapping(t_address,t_mapping(t_address,t_uint256))": {
        "encoding": "mapping",
        "key": "t_address",
        "label": "mapping(address => mapping(address => uint256))",
        "numberOfBytes": "32",
        "value": "t_mapping(t_address,t_uint256)"
      },
      "t_mapping(t_address,t_mapping(t_bytes32,t_struct(AssetLock)33422_storage))": {
        "encoding": "mapping",
        "key": "t_address",
        "label": "mapping(address => mapping(bytes32 => struct LivelyStorage.AssetLock))",
        "numberOfBytes": "32",
        "value": "t_mapping(t_bytes32,t_struct(AssetLock)33422_storage)"
      },
      "t_mapping(t_address,t_struct(AccountInfo)33410_storage)": {
        "encoding": "mapping",
        "key": "t_address",
        "label": "mapping(address => struct LivelyStorage.AccountInfo)",
        "numberOfBytes": "32",
        "value": "t_struct(AccountInfo)33410_storage"
      },
      "t_mapping(t_address,t_uint256)": {
        "encoding": "mapping",
        "key": "t_address",
        "label": "mapping(address => uint256)",
        "numberOfBytes": "32",
        "value": "t_uint256"
      },
      "t_mapping(t_bytes32,t_struct(AssetLock)33422_storage)": {
        "encoding": "mapping",
        "key": "t_bytes32",
        "label": "mapping(bytes32 => struct LivelyStorage.AssetLock)",
        "numberOfBytes": "32",
        "value": "t_struct(AssetLock)33422_storage"
      },
      "t_mapping(t_bytes32,t_uint256)": {
        "encoding": "mapping",
        "key": "t_bytes32",
        "label": "mapping(bytes32 => uint256)",
        "numberOfBytes": "32",
        "value": "t_uint256"
      },
      "t_string_storage": {
        "encoding": "bytes",
        "label": "string",
        "numberOfBytes": "32"
      },
      "t_struct(AccountInfo)33410_storage": {
        "encoding": "inplace",
        "label": "struct LivelyStorage.AccountInfo",
        "members": [
          {
            "astId": 33404,
            "contract": "src/contracts/token/lively/LivelyToken.sol:LivelyToken",
            "label": "balance",
            "offset": 0,
            "slot": "0",
            "type": "t_uint256"
          },
          {
            "astId": 33406,
            "contract": "src/contracts/token/lively/LivelyToken.sol:LivelyToken",
            "label": "lockBalance",
            "offset": 0,
            "slot": "1",
            "type": "t_uint256"
          },
          {
            "astId": 33409,
            "contract": "src/contracts/token/lively/LivelyToken.sol:LivelyToken",
            "label": "nonce",
            "offset": 0,
            "slot": "2",
            "type": "t_struct(Counter)11344_storage"
          }
        ],
        "numberOfBytes": "96"
      },
      "t_struct(AddressSet)23683_storage": {
        "encoding": "inplace",
        "label": "struct LEnumerableSet.AddressSet",
        "members": [
          {
            "astId": 23682,
            "contract": "src/contracts/token/lively/LivelyToken.sol:LivelyToken",
            "label": "_inner",
            "offset": 0,
            "slot": "0",
            "type": "t_struct(Set)23382_storage"
          }
        ],
        "numberOfBytes": "64"
      },
      "t_struct(AssetLock)33422_storage": {
        "encoding": "inplace",
        "label": "struct LivelyStorage.AssetLock",
        "members": [
          {
            "astId": 33412,
            "contract": "src/contracts/token/lively/LivelyToken.sol:LivelyToken",
            "label": "amount",
            "offset": 0,
            "slot": "0",
            "type": "t_uint256"
          },
          {
            "astId": 33414,
            "contract": "src/contracts/token/lively/LivelyToken.sol:LivelyToken",
            "label": "lockedAt",
            "offset": 0,
            "slot": "1",
            "type": "t_uint128"
          },
          {
            "astId": 33416,
            "contract": "src/contracts/token/lively/LivelyToken.sol:LivelyToken",
            "label": "claimedAt",
            "offset": 16,
            "slot": "1",
            "type": "t_uint128"
          },
          {
            "astId": 33418,
            "contract": "src/contracts/token/lively/LivelyToken.sol:LivelyToken",
            "label": "source",
            "offset": 0,
            "slot": "2",
            "type": "t_address"
          },
          {
            "astId": 33421,
            "contract": "src/contracts/token/lively/LivelyToken.sol:LivelyToken",
            "label": "status",
            "offset": 20,
            "slot": "2",
            "type": "t_enum(LockState)33402"
          }
        ],
        "numberOfBytes": "96"
      },
      "t_struct(Counter)11344_storage": {
        "encoding": "inplace",
        "label": "struct LCounters.Counter",
        "members": [
          {
            "astId": 11343,
            "contract": "src/contracts/token/lively/LivelyToken.sol:LivelyToken",
            "label": "_value",
            "offset": 0,
            "slot": "0",
            "type": "t_uint256"
          }
        ],
        "numberOfBytes": "32"
      },
      "t_struct(DataCollection)33447_storage": {
        "encoding": "inplace",
        "label": "struct LivelyStorage.DataCollection",
        "members": [
          {
            "astId": 33427,
            "contract": "src/contracts/token/lively/LivelyToken.sol:LivelyToken",
            "label": "accounts",
            "offset": 0,
            "slot": "0",
            "type": "t_mapping(t_address,t_struct(AccountInfo)33410_storage)"
          },
          {
            "astId": 33433,
            "contract": "src/contracts/token/lively/LivelyToken.sol:LivelyToken",
            "label": "allowances",
            "offset": 0,
            "slot": "1",
            "type": "t_mapping(t_address,t_mapping(t_address,t_uint256))"
          },
          {
            "astId": 33440,
            "contract": "src/contracts/token/lively/LivelyToken.sol:LivelyToken",
            "label": "locks",
            "offset": 0,
            "slot": "2",
            "type": "t_mapping(t_address,t_mapping(t_bytes32,t_struct(AssetLock)33422_storage))"
          },
          {
            "astId": 33443,
            "contract": "src/contracts/token/lively/LivelyToken.sol:LivelyToken",
            "label": "pausedList",
            "offset": 0,
            "slot": "3",
            "type": "t_struct(AddressSet)23683_storage"
          },
          {
            "astId": 33446,
            "contract": "src/contracts/token/lively/LivelyToken.sol:LivelyToken",
            "label": "taxWhitelist",
            "offset": 0,
            "slot": "5",
            "type": "t_struct(AddressSet)23683_storage"
          }
        ],
        "numberOfBytes": "224"
      },
      "t_struct(Set)23382_storage": {
        "encoding": "inplace",
        "label": "struct LEnumerableSet.Set",
        "members": [
          {
            "astId": 23377,
            "contract": "src/contracts/token/lively/LivelyToken.sol:LivelyToken",
            "label": "_values",
            "offset": 0,
            "slot": "0",
            "type": "t_array(t_bytes32)dyn_storage"
          },
          {
            "astId": 23381,
            "contract": "src/contracts/token/lively/LivelyToken.sol:LivelyToken",
            "label": "_indexes",
            "offset": 0,
            "slot": "1",
            "type": "t_mapping(t_bytes32,t_uint256)"
          }
        ],
        "numberOfBytes": "64"
      },
      "t_uint128": {
        "encoding": "inplace",
        "label": "uint128",
        "numberOfBytes": "16"
      },
      "t_uint16": {
        "encoding": "inplace",
        "label": "uint16",
        "numberOfBytes": "2"
      },
      "t_uint256": {
        "encoding": "inplace",
        "label": "uint256",
        "numberOfBytes": "32"
      }
    }
  },
  "userdoc": {
    "kind": "user",
    "methods": {},
    "version": 1
  }
}