{
  "contractName": "LivelyToken",
  "sourceName": "src/contracts/token/lively/LivelyToken.sol",
  "abi": [
    {
      "inputs": [],
      "stateMutability": "nonpayable",
      "type": "constructor"
    },
    {
      "anonymous": false,
      "inputs": [
        {
          "indexed": true,
          "internalType": "address",
          "name": "owner",
          "type": "address"
        },
        {
          "indexed": true,
          "internalType": "address",
          "name": "spender",
          "type": "address"
        },
        {
          "indexed": false,
          "internalType": "uint256",
          "name": "value",
          "type": "uint256"
        }
      ],
      "name": "Approval",
      "type": "event"
    },
    {
      "anonymous": false,
      "inputs": [
        {
          "indexed": true,
          "internalType": "address",
          "name": "owner",
          "type": "address"
        },
        {
          "indexed": true,
          "internalType": "address",
          "name": "spender",
          "type": "address"
        },
        {
          "indexed": false,
          "internalType": "uint256",
          "name": "amount",
          "type": "uint256"
        }
      ],
      "name": "ApprovalDecreased",
      "type": "event"
    },
    {
      "anonymous": false,
      "inputs": [
        {
          "indexed": true,
          "internalType": "address",
          "name": "owner",
          "type": "address"
        },
        {
          "indexed": true,
          "internalType": "address",
          "name": "spender",
          "type": "address"
        },
        {
          "indexed": false,
          "internalType": "uint256",
          "name": "amount",
          "type": "uint256"
        }
      ],
      "name": "ApprovalIncreased",
      "type": "event"
    },
    {
      "anonymous": false,
      "inputs": [
        {
          "indexed": true,
          "internalType": "address",
          "name": "sender",
          "type": "address"
        },
        {
          "indexed": false,
          "internalType": "uint256",
          "name": "totalAmount",
          "type": "uint256"
        }
      ],
      "name": "BatchTokenClaimed",
      "type": "event"
    },
    {
      "anonymous": false,
      "inputs": [
        {
          "indexed": true,
          "internalType": "address",
          "name": "sender",
          "type": "address"
        },
        {
          "indexed": false,
          "internalType": "uint256",
          "name": "totalAmount",
          "type": "uint256"
        }
      ],
      "name": "BatchTokenLocked",
      "type": "event"
    },
    {
      "anonymous": false,
      "inputs": [
        {
          "indexed": true,
          "internalType": "address",
          "name": "sender",
          "type": "address"
        },
        {
          "indexed": false,
          "internalType": "uint256",
          "name": "totalAmount",
          "type": "uint256"
        }
      ],
      "name": "BatchTokenUnlocked",
      "type": "event"
    },
    {
      "anonymous": false,
      "inputs": [
        {
          "indexed": true,
          "internalType": "address",
          "name": "sender",
          "type": "address"
        },
        {
          "indexed": false,
          "internalType": "uint256",
          "name": "totalAmount",
          "type": "uint256"
        }
      ],
      "name": "BatchTransfer",
      "type": "event"
    },
    {
      "anonymous": false,
      "inputs": [
        {
          "indexed": true,
          "internalType": "address",
          "name": "sender",
          "type": "address"
        },
        {
          "indexed": false,
          "internalType": "uint256",
          "name": "totalAmount",
          "type": "uint256"
        }
      ],
      "name": "BatchTransferFrom",
      "type": "event"
    },
    {
      "anonymous": false,
      "inputs": [
        {
          "indexed": true,
          "internalType": "address",
          "name": "sender",
          "type": "address"
        },
        {
          "indexed": true,
          "internalType": "address",
          "name": "account",
          "type": "address"
        },
        {
          "indexed": false,
          "internalType": "uint256",
          "name": "amount",
          "type": "uint256"
        },
        {
          "indexed": false,
          "internalType": "uint256",
          "name": "totalSupply",
          "type": "uint256"
        }
      ],
      "name": "Burn",
      "type": "event"
    },
    {
      "anonymous": false,
      "inputs": [
        {
          "indexed": true,
          "internalType": "address",
          "name": "sender",
          "type": "address"
        },
        {
          "indexed": true,
          "internalType": "address",
          "name": "proxy",
          "type": "address"
        },
        {
          "indexed": true,
          "internalType": "address",
          "name": "subject",
          "type": "address"
        },
        {
          "indexed": false,
          "internalType": "string",
          "name": "name",
          "type": "string"
        },
        {
          "indexed": false,
          "internalType": "string",
          "name": "version",
          "type": "string"
        },
        {
          "indexed": false,
          "internalType": "bytes32",
          "name": "realm",
          "type": "bytes32"
        },
        {
          "indexed": false,
          "internalType": "uint16",
          "name": "initCount",
          "type": "uint16"
        }
      ],
      "name": "Initialized",
      "type": "event"
    },
    {
      "anonymous": false,
      "inputs": [
        {
          "indexed": true,
          "internalType": "address",
          "name": "sender",
          "type": "address"
        },
        {
          "indexed": true,
          "internalType": "address",
          "name": "proxy",
          "type": "address"
        },
        {
          "indexed": false,
          "internalType": "address",
          "name": "newAdmin",
          "type": "address"
        }
      ],
      "name": "LocalAdminChanged",
      "type": "event"
    },
    {
      "anonymous": false,
      "inputs": [
        {
          "indexed": true,
          "internalType": "address",
          "name": "sender",
          "type": "address"
        },
        {
          "indexed": true,
          "internalType": "address",
          "name": "account",
          "type": "address"
        },
        {
          "indexed": false,
          "internalType": "uint256",
          "name": "amount",
          "type": "uint256"
        },
        {
          "indexed": false,
          "internalType": "uint256",
          "name": "totalSupply",
          "type": "uint256"
        }
      ],
      "name": "Mint",
      "type": "event"
    },
    {
      "anonymous": false,
      "inputs": [
        {
          "indexed": true,
          "internalType": "address",
          "name": "sender",
          "type": "address"
        },
        {
          "indexed": true,
          "internalType": "address",
          "name": "account",
          "type": "address"
        }
      ],
      "name": "Paused",
      "type": "event"
    },
    {
      "anonymous": false,
      "inputs": [
        {
          "indexed": true,
          "internalType": "address",
          "name": "sender",
          "type": "address"
        }
      ],
      "name": "PausedAll",
      "type": "event"
    },
    {
      "anonymous": false,
      "inputs": [
        {
          "indexed": true,
          "internalType": "address",
          "name": "sender",
          "type": "address"
        },
        {
          "indexed": true,
          "internalType": "address",
          "name": "proxy",
          "type": "address"
        },
        {
          "indexed": true,
          "internalType": "bytes32",
          "name": "realm",
          "type": "bytes32"
        },
        {
          "indexed": false,
          "internalType": "bool",
          "name": "status",
          "type": "bool"
        }
      ],
      "name": "SafeModeChanged",
      "type": "event"
    },
    {
      "anonymous": false,
      "inputs": [
        {
          "indexed": true,
          "internalType": "address",
          "name": "sender",
          "type": "address"
        },
        {
          "indexed": false,
          "internalType": "uint256",
          "name": "rate",
          "type": "uint256"
        }
      ],
      "name": "TaxRateUpdated",
      "type": "event"
    },
    {
      "anonymous": false,
      "inputs": [
        {
          "indexed": true,
          "internalType": "address",
          "name": "sender",
          "type": "address"
        },
        {
          "indexed": true,
          "internalType": "address",
          "name": "account",
          "type": "address"
        },
        {
          "indexed": false,
          "internalType": "bool",
          "name": "isDeleted",
          "type": "bool"
        }
      ],
      "name": "TaxWhitelistUpdated",
      "type": "event"
    },
    {
      "anonymous": false,
      "inputs": [
        {
          "indexed": true,
          "internalType": "bytes32",
          "name": "id",
          "type": "bytes32"
        },
        {
          "indexed": true,
          "internalType": "address",
          "name": "sender",
          "type": "address"
        },
        {
          "indexed": true,
          "internalType": "address",
          "name": "src",
          "type": "address"
        },
        {
          "indexed": false,
          "internalType": "uint256",
          "name": "amount",
          "type": "uint256"
        }
      ],
      "name": "TokenClaimed",
      "type": "event"
    },
    {
      "anonymous": false,
      "inputs": [
        {
          "indexed": true,
          "internalType": "bytes32",
          "name": "id",
          "type": "bytes32"
        },
        {
          "indexed": true,
          "internalType": "address",
          "name": "sender",
          "type": "address"
        },
        {
          "indexed": true,
          "internalType": "address",
          "name": "src",
          "type": "address"
        },
        {
          "indexed": false,
          "internalType": "address",
          "name": "account",
          "type": "address"
        },
        {
          "indexed": false,
          "internalType": "uint256",
          "name": "timestamp",
          "type": "uint256"
        },
        {
          "indexed": false,
          "internalType": "uint256",
          "name": "amount",
          "type": "uint256"
        }
      ],
      "name": "TokenLocked",
      "type": "event"
    },
    {
      "anonymous": false,
      "inputs": [
        {
          "indexed": true,
          "internalType": "bytes32",
          "name": "id",
          "type": "bytes32"
        },
        {
          "indexed": true,
          "internalType": "address",
          "name": "sender",
          "type": "address"
        },
        {
          "indexed": true,
          "internalType": "address",
          "name": "account",
          "type": "address"
        },
        {
          "indexed": false,
          "internalType": "address",
          "name": "dest",
          "type": "address"
        },
        {
          "indexed": false,
          "internalType": "uint256",
          "name": "amount",
          "type": "uint256"
        },
        {
          "indexed": false,
          "internalType": "string",
          "name": "reason",
          "type": "string"
        }
      ],
      "name": "TokenUnlocked",
      "type": "event"
    },
    {
      "anonymous": false,
      "inputs": [
        {
          "indexed": true,
          "internalType": "address",
          "name": "from",
          "type": "address"
        },
        {
          "indexed": true,
          "internalType": "address",
          "name": "to",
          "type": "address"
        },
        {
          "indexed": false,
          "internalType": "uint256",
          "name": "value",
          "type": "uint256"
        }
      ],
      "name": "Transfer",
      "type": "event"
    },
    {
      "anonymous": false,
      "inputs": [
        {
          "indexed": true,
          "internalType": "address",
          "name": "sender",
          "type": "address"
        },
        {
          "indexed": true,
          "internalType": "address",
          "name": "from",
          "type": "address"
        },
        {
          "indexed": true,
          "internalType": "address",
          "name": "to",
          "type": "address"
        },
        {
          "indexed": false,
          "internalType": "uint256",
          "name": "amount",
          "type": "uint256"
        }
      ],
      "name": "TransferFrom",
      "type": "event"
    },
    {
      "anonymous": false,
      "inputs": [
        {
          "indexed": true,
          "internalType": "address",
          "name": "sender",
          "type": "address"
        },
        {
          "indexed": true,
          "internalType": "address",
          "name": "account",
          "type": "address"
        }
      ],
      "name": "Unpaused",
      "type": "event"
    },
    {
      "anonymous": false,
      "inputs": [
        {
          "indexed": true,
          "internalType": "address",
          "name": "sender",
          "type": "address"
        }
      ],
      "name": "UnpausedAll",
      "type": "event"
    },
    {
      "anonymous": false,
      "inputs": [
        {
          "indexed": true,
          "internalType": "address",
          "name": "sender",
          "type": "address"
        },
        {
          "indexed": true,
          "internalType": "address",
          "name": "proxy",
          "type": "address"
        },
        {
          "indexed": true,
          "internalType": "bytes32",
          "name": "realm",
          "type": "bytes32"
        },
        {
          "indexed": false,
          "internalType": "bool",
          "name": "status",
          "type": "bool"
        }
      ],
      "name": "UpgradeStatusChanged",
      "type": "event"
    },
    {
      "anonymous": false,
      "inputs": [
        {
          "indexed": true,
          "internalType": "address",
          "name": "sender",
          "type": "address"
        },
        {
          "indexed": true,
          "internalType": "address",
          "name": "proxy",
          "type": "address"
        },
        {
          "indexed": true,
          "internalType": "address",
          "name": "newImplementation",
          "type": "address"
        }
      ],
      "name": "Upgraded",
      "type": "event"
    },
    {
      "stateMutability": "payable",
      "type": "fallback"
    },
    {
      "inputs": [],
      "name": "accessControlManager",
      "outputs": [
        {
          "internalType": "address",
          "name": "",
          "type": "address"
        }
      ],
      "stateMutability": "view",
      "type": "function"
    },
    {
      "inputs": [
        {
          "internalType": "address",
          "name": "owner",
          "type": "address"
        },
        {
          "internalType": "address",
          "name": "spender",
          "type": "address"
        }
      ],
      "name": "allowance",
      "outputs": [
        {
          "internalType": "uint256",
          "name": "",
          "type": "uint256"
        }
      ],
      "stateMutability": "view",
      "type": "function"
    },
    {
      "inputs": [
        {
          "internalType": "address",
          "name": "spender",
          "type": "address"
        },
        {
          "internalType": "uint256",
          "name": "amount",
          "type": "uint256"
        }
      ],
      "name": "approve",
      "outputs": [
        {
          "internalType": "bool",
          "name": "",
          "type": "bool"
        }
      ],
      "stateMutability": "nonpayable",
      "type": "function"
    },
    {
      "inputs": [
        {
          "internalType": "address",
          "name": "account",
          "type": "address"
        }
      ],
      "name": "balanceOf",
      "outputs": [
        {
          "internalType": "uint256",
          "name": "",
          "type": "uint256"
        }
      ],
      "stateMutability": "view",
      "type": "function"
    },
    {
      "inputs": [
        {
          "internalType": "bytes32[]",
          "name": "lockIds",
          "type": "bytes32[]"
        }
      ],
      "name": "batchClaimToken",
      "outputs": [
        {
          "internalType": "uint256",
          "name": "",
          "type": "uint256"
        }
      ],
      "stateMutability": "nonpayable",
      "type": "function"
    },
    {
      "inputs": [
        {
          "components": [
            {
              "internalType": "address",
              "name": "source",
              "type": "address"
            },
            {
              "internalType": "address",
              "name": "dest",
              "type": "address"
            },
            {
              "internalType": "uint256",
              "name": "timestamp",
              "type": "uint256"
            },
            {
              "internalType": "uint256",
              "name": "amount",
              "type": "uint256"
            }
          ],
          "internalType": "struct IERC20Lock.LockTokenRequest[]",
          "name": "lockRequest",
          "type": "tuple[]"
        }
      ],
      "name": "batchLockToken",
      "outputs": [
        {
          "internalType": "bytes32[]",
          "name": "",
          "type": "bytes32[]"
        }
      ],
      "stateMutability": "nonpayable",
      "type": "function"
    },
    {
      "inputs": [
        {
          "components": [
            {
              "internalType": "address",
              "name": "to",
              "type": "address"
            },
            {
              "internalType": "uint256",
              "name": "amount",
              "type": "uint256"
            }
          ],
          "internalType": "struct IERC20Extra.BatchTransferRequest[]",
          "name": "request",
          "type": "tuple[]"
        }
      ],
      "name": "batchTransfer",
      "outputs": [
        {
          "internalType": "bool",
          "name": "",
          "type": "bool"
        }
      ],
      "stateMutability": "nonpayable",
      "type": "function"
    },
    {
      "inputs": [
        {
          "components": [
            {
              "internalType": "address",
              "name": "from",
              "type": "address"
            },
            {
              "internalType": "address",
              "name": "to",
              "type": "address"
            },
            {
              "internalType": "uint256",
              "name": "amount",
              "type": "uint256"
            }
          ],
          "internalType": "struct IERC20Extra.BatchTransferFromRequest[]",
          "name": "request",
          "type": "tuple[]"
        }
      ],
      "name": "batchTransferFrom",
      "outputs": [
        {
          "internalType": "bool",
          "name": "",
          "type": "bool"
        }
      ],
      "stateMutability": "nonpayable",
      "type": "function"
    },
    {
      "inputs": [
        {
          "components": [
            {
              "internalType": "bytes32",
              "name": "lockId",
              "type": "bytes32"
            },
            {
              "internalType": "address",
              "name": "account",
              "type": "address"
            },
            {
              "internalType": "string",
              "name": "reason",
              "type": "string"
            }
          ],
          "internalType": "struct IERC20Lock.UnLockTokenRequest[]",
          "name": "unlockRequest",
          "type": "tuple[]"
        }
      ],
      "name": "batchUnlockToken",
      "outputs": [
        {
          "internalType": "uint256",
          "name": "",
          "type": "uint256"
        }
      ],
      "stateMutability": "nonpayable",
      "type": "function"
    },
    {
      "inputs": [
        {
          "components": [
            {
              "internalType": "address",
              "name": "account",
              "type": "address"
            },
            {
              "internalType": "bool",
              "name": "isDeleted",
              "type": "bool"
            }
          ],
          "internalType": "struct IERC20Extra.BatchUpdateTaxWhitelistRequest[]",
          "name": "request",
          "type": "tuple[]"
        }
      ],
      "name": "batchUpdateTaxWhitelist",
      "outputs": [],
      "stateMutability": "nonpayable",
      "type": "function"
    },
    {
      "inputs": [
        {
          "internalType": "address",
          "name": "account",
          "type": "address"
        },
        {
          "internalType": "uint256",
          "name": "amount",
          "type": "uint256"
        }
      ],
      "name": "burn",
      "outputs": [
        {
          "internalType": "uint256",
          "name": "",
          "type": "uint256"
        }
      ],
      "stateMutability": "nonpayable",
      "type": "function"
    },
    {
      "inputs": [
        {
          "internalType": "bytes32",
          "name": "lockId",
          "type": "bytes32"
        }
      ],
      "name": "claimToken",
      "outputs": [
        {
          "internalType": "uint256",
          "name": "",
          "type": "uint256"
        }
      ],
      "stateMutability": "nonpayable",
      "type": "function"
    },
    {
      "inputs": [],
      "name": "contractContext",
      "outputs": [
        {
          "internalType": "bytes32",
          "name": "",
          "type": "bytes32"
        }
      ],
      "stateMutability": "view",
      "type": "function"
    },
    {
      "inputs": [],
      "name": "contractName",
      "outputs": [
        {
          "internalType": "bytes32",
          "name": "",
          "type": "bytes32"
        }
      ],
      "stateMutability": "view",
      "type": "function"
    },
    {
      "inputs": [],
      "name": "contractRealm",
      "outputs": [
        {
          "internalType": "bytes32",
          "name": "",
          "type": "bytes32"
        }
      ],
      "stateMutability": "view",
      "type": "function"
    },
    {
      "inputs": [],
      "name": "contractVersion",
      "outputs": [
        {
          "internalType": "bytes32",
          "name": "",
          "type": "bytes32"
        }
      ],
      "stateMutability": "view",
      "type": "function"
    },
    {
      "inputs": [],
      "name": "decimals",
      "outputs": [
        {
          "internalType": "uint8",
          "name": "",
          "type": "uint8"
        }
      ],
      "stateMutability": "pure",
      "type": "function"
    },
    {
      "inputs": [
        {
          "internalType": "address",
          "name": "spender",
          "type": "address"
        },
        {
          "internalType": "uint256",
          "name": "amount",
          "type": "uint256"
        }
      ],
      "name": "decreaseAllowance",
      "outputs": [
        {
          "internalType": "uint256",
          "name": "",
          "type": "uint256"
        }
      ],
      "stateMutability": "nonpayable",
      "type": "function"
    },
    {
      "inputs": [],
      "name": "domainSeparator",
      "outputs": [
        {
          "internalType": "bytes32",
          "name": "",
          "type": "bytes32"
        }
      ],
      "stateMutability": "view",
      "type": "function"
    },
    {
      "inputs": [],
      "name": "getLibrary",
      "outputs": [
        {
          "internalType": "address",
          "name": "",
          "type": "address"
        }
      ],
      "stateMutability": "pure",
      "type": "function"
    },
    {
      "inputs": [
        {
          "internalType": "address",
          "name": "spender",
          "type": "address"
        },
        {
          "internalType": "uint256",
          "name": "amount",
          "type": "uint256"
        }
      ],
      "name": "increaseAllowance",
      "outputs": [
        {
          "internalType": "uint256",
          "name": "",
          "type": "uint256"
        }
      ],
      "stateMutability": "nonpayable",
      "type": "function"
    },
    {
      "inputs": [],
      "name": "initVersion",
      "outputs": [
        {
          "internalType": "uint16",
          "name": "",
          "type": "uint16"
        }
      ],
      "stateMutability": "view",
      "type": "function"
    },
    {
      "inputs": [
        {
          "components": [
            {
              "internalType": "string",
              "name": "domainName",
              "type": "string"
            },
            {
              "internalType": "string",
              "name": "domainVersion",
              "type": "string"
            },
            {
              "internalType": "string",
              "name": "domainRealm",
              "type": "string"
            },
            {
              "internalType": "bytes",
              "name": "signature",
              "type": "bytes"
            },
            {
              "internalType": "uint256",
              "name": "taxRateValue",
              "type": "uint256"
            },
            {
              "internalType": "address",
              "name": "accessControlManager",
              "type": "address"
            }
          ],
          "internalType": "struct LivelyToken.InitRequest",
          "name": "request",
          "type": "tuple"
        }
      ],
      "name": "initialize",
      "outputs": [],
      "stateMutability": "nonpayable",
      "type": "function"
    },
    {
      "inputs": [
        {
          "internalType": "address",
          "name": "account",
          "type": "address"
        }
      ],
      "name": "isPaused",
      "outputs": [
        {
          "internalType": "bool",
          "name": "",
          "type": "bool"
        }
      ],
      "stateMutability": "view",
      "type": "function"
    },
    {
      "inputs": [],
      "name": "isPausedAll",
      "outputs": [
        {
          "internalType": "bool",
          "name": "",
          "type": "bool"
        }
      ],
      "stateMutability": "view",
      "type": "function"
    },
    {
      "inputs": [],
      "name": "isSafeMode",
      "outputs": [
        {
          "internalType": "bool",
          "name": "",
          "type": "bool"
        }
      ],
      "stateMutability": "view",
      "type": "function"
    },
    {
      "inputs": [],
      "name": "isUpgradable",
      "outputs": [
        {
          "internalType": "bool",
          "name": "",
          "type": "bool"
        }
      ],
      "stateMutability": "view",
      "type": "function"
    },
    {
      "inputs": [],
      "name": "localAdmin",
      "outputs": [
        {
          "internalType": "address",
          "name": "",
          "type": "address"
        }
      ],
      "stateMutability": "view",
      "type": "function"
    },
    {
      "inputs": [
        {
          "internalType": "address",
          "name": "account",
          "type": "address"
        }
      ],
      "name": "lockBalanceOf",
      "outputs": [
        {
          "internalType": "uint256",
          "name": "",
          "type": "uint256"
        }
      ],
      "stateMutability": "view",
      "type": "function"
    },
    {
      "inputs": [
        {
          "internalType": "bytes32",
          "name": "lockId",
          "type": "bytes32"
        },
        {
          "internalType": "address",
          "name": "account",
          "type": "address"
        }
      ],
      "name": "lockInfo",
      "outputs": [
        {
          "internalType": "uint256",
          "name": "",
          "type": "uint256"
        },
        {
          "internalType": "uint128",
          "name": "",
          "type": "uint128"
        },
        {
          "internalType": "uint128",
          "name": "",
          "type": "uint128"
        },
        {
          "internalType": "address",
          "name": "",
          "type": "address"
        },
        {
          "internalType": "uint8",
          "name": "",
          "type": "uint8"
        }
      ],
      "stateMutability": "view",
      "type": "function"
    },
    {
      "inputs": [
        {
          "components": [
            {
              "internalType": "address",
              "name": "source",
              "type": "address"
            },
            {
              "internalType": "address",
              "name": "dest",
              "type": "address"
            },
            {
              "internalType": "uint256",
              "name": "timestamp",
              "type": "uint256"
            },
            {
              "internalType": "uint256",
              "name": "amount",
              "type": "uint256"
            }
          ],
          "internalType": "struct IERC20Lock.LockTokenRequest",
          "name": "lockRequest",
          "type": "tuple"
        }
      ],
      "name": "lockToken",
      "outputs": [
        {
          "internalType": "bytes32",
          "name": "",
          "type": "bytes32"
        }
      ],
      "stateMutability": "nonpayable",
      "type": "function"
    },
    {
      "inputs": [
        {
          "internalType": "address",
          "name": "account",
          "type": "address"
        },
        {
          "internalType": "uint256",
          "name": "amount",
          "type": "uint256"
        }
      ],
      "name": "mint",
      "outputs": [
        {
          "internalType": "uint256",
          "name": "",
          "type": "uint256"
        }
      ],
      "stateMutability": "nonpayable",
      "type": "function"
    },
    {
      "inputs": [],
      "name": "name",
      "outputs": [
        {
          "internalType": "string",
          "name": "",
          "type": "string"
        }
      ],
      "stateMutability": "view",
      "type": "function"
    },
    {
      "inputs": [
        {
          "internalType": "address",
          "name": "owner",
          "type": "address"
        }
      ],
      "name": "nonce",
      "outputs": [
        {
          "internalType": "uint256",
          "name": "",
          "type": "uint256"
        }
      ],
      "stateMutability": "view",
      "type": "function"
    },
    {
      "inputs": [
        {
          "internalType": "address",
          "name": "account",
          "type": "address"
        }
      ],
      "name": "pause",
      "outputs": [],
      "stateMutability": "nonpayable",
      "type": "function"
    },
    {
      "inputs": [],
      "name": "pauseAll",
      "outputs": [],
      "stateMutability": "nonpayable",
      "type": "function"
    },
    {
      "inputs": [],
      "name": "pausedAccounts",
      "outputs": [
        {
          "internalType": "address[]",
          "name": "",
          "type": "address[]"
        }
      ],
      "stateMutability": "view",
      "type": "function"
    },
    {
      "inputs": [
        {
          "internalType": "address",
          "name": "owner",
          "type": "address"
        },
        {
          "internalType": "address",
          "name": "spender",
          "type": "address"
        },
        {
          "internalType": "uint256",
          "name": "value",
          "type": "uint256"
        },
        {
          "internalType": "uint256",
          "name": "deadline",
          "type": "uint256"
        },
        {
          "internalType": "bytes",
          "name": "signature",
          "type": "bytes"
        }
      ],
      "name": "permit",
      "outputs": [
        {
          "internalType": "bool",
          "name": "",
          "type": "bool"
        }
      ],
      "stateMutability": "nonpayable",
      "type": "function"
    },
    {
      "inputs": [],
      "name": "proxiableUUID",
      "outputs": [
        {
          "internalType": "bytes32",
          "name": "",
          "type": "bytes32"
        }
      ],
      "stateMutability": "view",
      "type": "function"
    },
    {
      "inputs": [
        {
          "internalType": "address",
          "name": "newLocalAdmin",
          "type": "address"
        }
      ],
      "name": "setLocalAdmin",
      "outputs": [
        {
          "internalType": "bool",
          "name": "",
          "type": "bool"
        }
      ],
      "stateMutability": "nonpayable",
      "type": "function"
    },
    {
      "inputs": [
        {
          "internalType": "bool",
          "name": "status",
          "type": "bool"
        }
      ],
      "name": "setSafeMode",
      "outputs": [
        {
          "internalType": "bool",
          "name": "",
          "type": "bool"
        }
      ],
      "stateMutability": "nonpayable",
      "type": "function"
    },
    {
      "inputs": [
        {
          "internalType": "bool",
          "name": "status",
          "type": "bool"
        }
      ],
      "name": "setUpgradeStatus",
      "outputs": [
        {
          "internalType": "bool",
          "name": "",
          "type": "bool"
        }
      ],
      "stateMutability": "nonpayable",
      "type": "function"
    },
    {
      "inputs": [],
      "name": "subjectAddress",
      "outputs": [
        {
          "internalType": "address",
          "name": "",
          "type": "address"
        }
      ],
      "stateMutability": "view",
      "type": "function"
    },
    {
      "inputs": [
        {
          "internalType": "bytes4",
          "name": "interfaceId",
          "type": "bytes4"
        }
      ],
      "name": "supportsInterface",
      "outputs": [
        {
          "internalType": "bool",
          "name": "",
          "type": "bool"
        }
      ],
      "stateMutability": "view",
      "type": "function"
    },
    {
      "inputs": [],
      "name": "symbol",
      "outputs": [
        {
          "internalType": "string",
          "name": "",
          "type": "string"
        }
      ],
      "stateMutability": "view",
      "type": "function"
    },
    {
      "inputs": [],
      "name": "taxRate",
      "outputs": [
        {
          "internalType": "uint256",
          "name": "",
          "type": "uint256"
        }
      ],
      "stateMutability": "view",
      "type": "function"
    },
    {
      "inputs": [],
      "name": "taxTreasury",
      "outputs": [
        {
          "internalType": "address",
          "name": "",
          "type": "address"
        }
      ],
      "stateMutability": "view",
      "type": "function"
    },
    {
      "inputs": [],
      "name": "taxWhitelist",
      "outputs": [
        {
          "internalType": "address[]",
          "name": "",
          "type": "address[]"
        }
      ],
      "stateMutability": "view",
      "type": "function"
    },
    {
      "inputs": [
        {
          "internalType": "address",
          "name": "assetManager",
          "type": "address"
        },
        {
          "internalType": "address[7]",
          "name": "assets",
          "type": "address[7]"
        }
      ],
      "name": "tokensDistribution",
      "outputs": [
        {
          "internalType": "bool",
          "name": "",
          "type": "bool"
        }
      ],
      "stateMutability": "nonpayable",
      "type": "function"
    },
    {
      "inputs": [
        {
          "internalType": "address",
          "name": "account",
          "type": "address"
        }
      ],
      "name": "totalBalanceOf",
      "outputs": [
        {
          "internalType": "uint256",
          "name": "",
          "type": "uint256"
        }
      ],
      "stateMutability": "view",
      "type": "function"
    },
    {
      "inputs": [],
      "name": "totalSupply",
      "outputs": [
        {
          "internalType": "uint256",
          "name": "",
          "type": "uint256"
        }
      ],
      "stateMutability": "view",
      "type": "function"
    },
    {
      "inputs": [
        {
          "internalType": "address",
          "name": "recipient",
          "type": "address"
        },
        {
          "internalType": "uint256",
          "name": "amount",
          "type": "uint256"
        }
      ],
      "name": "transfer",
      "outputs": [
        {
          "internalType": "bool",
          "name": "",
          "type": "bool"
        }
      ],
      "stateMutability": "nonpayable",
      "type": "function"
    },
    {
      "inputs": [
        {
          "internalType": "address",
          "name": "source",
          "type": "address"
        },
        {
          "internalType": "address",
          "name": "recipient",
          "type": "address"
        },
        {
          "internalType": "uint256",
          "name": "amount",
          "type": "uint256"
        }
      ],
      "name": "transferFrom",
      "outputs": [
        {
          "internalType": "bool",
          "name": "",
          "type": "bool"
        }
      ],
      "stateMutability": "nonpayable",
      "type": "function"
    },
    {
      "inputs": [
        {
          "components": [
            {
              "internalType": "bytes32",
              "name": "lockId",
              "type": "bytes32"
            },
            {
              "internalType": "address",
              "name": "account",
              "type": "address"
            },
            {
              "internalType": "string",
              "name": "reason",
              "type": "string"
            }
          ],
          "internalType": "struct IERC20Lock.UnLockTokenRequest",
          "name": "unlockRequest",
          "type": "tuple"
        }
      ],
      "name": "unlockToken",
      "outputs": [
        {
          "internalType": "uint256",
          "name": "",
          "type": "uint256"
        }
      ],
      "stateMutability": "nonpayable",
      "type": "function"
    },
    {
      "inputs": [
        {
          "internalType": "address",
          "name": "account",
          "type": "address"
        }
      ],
      "name": "unpause",
      "outputs": [],
      "stateMutability": "nonpayable",
      "type": "function"
    },
    {
      "inputs": [],
      "name": "unpauseAll",
      "outputs": [],
      "stateMutability": "nonpayable",
      "type": "function"
    },
    {
      "inputs": [
        {
          "internalType": "uint256",
          "name": "rate",
          "type": "uint256"
        }
      ],
      "name": "updateTaxRate",
      "outputs": [
        {
          "internalType": "bool",
          "name": "",
          "type": "bool"
        }
      ],
      "stateMutability": "nonpayable",
      "type": "function"
    },
    {
      "inputs": [
        {
          "internalType": "address",
          "name": "account",
          "type": "address"
        },
        {
          "internalType": "bool",
          "name": "isDeleted",
          "type": "bool"
        }
      ],
      "name": "updateTaxWhitelist",
      "outputs": [
        {
          "internalType": "bool",
          "name": "",
          "type": "bool"
        }
      ],
      "stateMutability": "nonpayable",
      "type": "function"
    },
    {
      "inputs": [
        {
          "internalType": "address",
          "name": "newImplementation",
          "type": "address"
        },
        {
          "internalType": "bytes",
          "name": "data",
          "type": "bytes"
        },
        {
          "internalType": "bool",
          "name": "forceCall",
          "type": "bool"
        }
      ],
      "name": "upgradeTo",
      "outputs": [
        {
          "internalType": "bytes",
          "name": "",
          "type": "bytes"
        }
      ],
      "stateMutability": "nonpayable",
      "type": "function"
    },
    {
      "inputs": [
        {
          "internalType": "address",
          "name": "recepient",
          "type": "address"
        }
      ],
      "name": "withdrawBalance",
      "outputs": [],
      "stateMutability": "nonpayable",
      "type": "function"
    },
    {
      "stateMutability": "payable",
      "type": "receive"
    }
  ],
  "bytecode": "0x60a0604052306080523480156200001557600080fd5b506200004360017f360894a13ba1a3210667c828492db98dca3e2076cc3735a920a3ca505d382bbd62000127565b7f360894a13ba1a3210667c828492db98dca3e2076cc3735a920a3ca505d382bbc146200007457620000746200014f565b620000a160017fb53127684a568b3173ae13b9f8a6016e243e63b6e8ee1178d6a717850b5d610462000127565b6000805160206200611083398151915214620000c157620000c16200014f565b33620000ea6000805160206200611083398151915260001b6200012460201b6200323c1760201c565b80546001600160a01b03929092166001600160a01b03199092169190911790556003805461ffff60a01b1916600160a01b17905562000165565b90565b818103818111156200014957634e487b7160e01b600052601160045260246000fd5b92915050565b634e487b7160e01b600052600160045260246000fd5b608051615f49620001c760003960008181610c5b01528181610ca401528181611267015281816112a70152818161144401528181611484015281816116430152818161186c015281816118ac0152818161231a015261235a0152615f496000f3fe60806040526004361061036b5760003560e01c80637678922e116101c4578063a0e6adf1116100f6578063d9dc1f191161009a578063f698da251161006c578063f698da2514610aaf578063f94a0adb14610ac4578063faa552a814610ad9578063fdb92ec414610af957005b8063d9dc1f1914610a3a578063dd62ed3e14610a5a578063de843a9414610a7a578063ec4ac1f714610a8f57005b8063a9059cbb116100d3578063a9059cbb146109c8578063b4a0bdf3146109e8578063be22465d14610a06578063d3e024b814610a2557005b8063a0e6adf114610969578063a457c2d714610988578063a5bfa9a9146109a857005b80638a92ab15116101685780639b5f356e1161013a5780639b5f356e146108f45780639dc29fac146109145780639fd5a6cf14610934578063a0a8e4601461095457005b80638a92ab15146108345780638bfc07ed1461085257806395d89b41146108b25780639a7e1873146108c757005b80637bf60ff4116101a15780637bf60ff4146107c85780637d35f355146107ea578063870666cb1461080a5780638a2ddd031461081f57005b80637678922e1461076c57806376a67a5114610793578063771a3a1d146107b357005b806346a634d41161029d578063595c6a671161024157806370ae92d21161021357806370ae92d2146106f75780637147855d14610717578063756af45f1461073757806375d0c0dc1461075757005b8063595c6a671461066c5780635b14f183146106815780636b839492146106a157806370a08231146106c157005b806352d1902d1161027a57806352d1902d146105eb5780635479d9401461060057806357b001f91461061f57806358dbc45d1461063f57005b806346a634d41461058b57806348e6be1c146105ab5780634b0ee02a146105cb57005b806318160ddd1161030f57806338d38c97116102e157806338d38c9714610503578063395093511461052b57806340c10f191461054b57806344b7e5f21461056b57005b806318160ddd146104925780631c6928e8146104a757806323b872dd146104c7578063313ce567146104e757005b806310e776ed1161034857806310e776ed146103eb5780631408a7f4146104325780631455a1c81461045257806317fdcc8e1461047257005b806301ffc9a71461037457806306fdde03146103a9578063095ea7b3146103cb57005b3661037257005b005b34801561038057600080fd5b5061039461038f366004614eff565b610b19565b60405190151581526020015b60405180910390f35b3480156103b557600080fd5b506103be610b94565b6040516103a09190614f6c565b3480156103d757600080fd5b506103946103e6366004614f94565b610c26565b3480156103f757600080fd5b50610424610406366004614fc0565b6001600160a01b031660009081526049602052604090206001015490565b6040519081526020016103a0565b34801561043e57600080fd5b5061037261044d366004614fdd565b610c51565b34801561045e57600080fd5b5061042461046d36600461505b565b610f17565b34801561047e57600080fd5b5061039461048d36600461509c565b610fb3565b34801561049e57600080fd5b50604654610424565b3480156104b357600080fd5b506103946104c23660046150b5565b61100a565b3480156104d357600080fd5b506103946104e2366004615129565b61116f565b3480156104f357600080fd5b50604051601281526020016103a0565b34801561050f57600080fd5b5061051861119a565b60405161ffff90911681526020016103a0565b34801561053757600080fd5b50610424610546366004614f94565b6111ae565b34801561055757600080fd5b50610424610566366004614f94565b61123b565b34801561057757600080fd5b50610394610586366004615183565b61125b565b34801561059757600080fd5b506103946105a63660046151a0565b611419565b3480156105b757600080fd5b506103946105c6366004615183565b611438565b3480156105d757600080fd5b506104246105e6366004614fc0565b61160c565b3480156105f757600080fd5b50610424611636565b34801561060c57600080fd5b50600354600160a81b900460ff16610394565b34801561062b57600080fd5b5061037261063a366004614fc0565b6116c3565b34801561064b57600080fd5b5061065461178d565b6040516001600160a01b0390911681526020016103a0565b34801561067857600080fd5b50610372611797565b34801561068d57600080fd5b5061039461069c366004614fc0565b6117fc565b3480156106ad57600080fd5b506104246106bc3660046151d9565b61181c565b3480156106cd57600080fd5b506104246106dc366004614fc0565b6001600160a01b031660009081526049602052604090205490565b34801561070357600080fd5b50610424610712366004614fc0565b61183f565b34801561072357600080fd5b506103be610732366004615259565b611860565b34801561074357600080fd5b50610372610752366004614fc0565b611991565b34801561076357600080fd5b50600054610424565b34801561077857600080fd5b5073__$02a10a5b613955ebe0b1689ca5d6d93e29$__610654565b34801561079f57600080fd5b506103726107ae366004614fc0565b611a4c565b3480156107bf57600080fd5b50604754610424565b3480156107d457600080fd5b506107dd611b1c565b6040516103a09190615310565b3480156107f657600080fd5b506103726108053660046153a1565b611b28565b34801561081657600080fd5b50610424611bb9565b34801561082b57600080fd5b50610372611bc4565b34801561084057600080fd5b506048546001600160a01b0316610654565b34801561085e57600080fd5b5061087261086d3660046153d6565b611c12565b604080519586526001600160801b03948516602087015292909316918401919091526001600160a01b0316606083015260ff16608082015260a0016103a0565b3480156108be57600080fd5b506103be611c97565b3480156108d357600080fd5b506108e76108e23660046153fb565b611ca6565b6040516103a0919061545d565b34801561090057600080fd5b5061042461090f36600461505b565b611e0e565b34801561092057600080fd5b5061042461092f366004614f94565b611f02565b34801561094057600080fd5b5061039461094f366004615495565b612030565b34801561096057600080fd5b50600154610424565b34801561097557600080fd5b50604854600160a01b900460ff16610394565b34801561099457600080fd5b506104246109a3366004614f94565b612225565b3480156109b457600080fd5b506104246109c336600461509c565b6122a3565b3480156109d457600080fd5b506103946109e3366004614f94565b6122bf565b3480156109f457600080fd5b506003546001600160a01b0316610654565b348015610a1257600080fd5b50600354600160a01b900460ff16610394565b348015610a3157600080fd5b50600254610424565b348015610a4657600080fd5b50610394610a55366004614fc0565b61230e565b348015610a6657600080fd5b50610424610a7536600461553e565b61248f565b348015610a8657600080fd5b506107dd61249b565b348015610a9b57600080fd5b50610394610aaa36600461556c565b6124a7565b348015610abb57600080fd5b50610424613128565b348015610ad057600080fd5b50610654613132565b348015610ae557600080fd5b50610394610af43660046153a1565b61313c565b348015610b0557600080fd5b50610424610b143660046155ab565b613216565b60006001600160e01b03198216634a17459160e11b1480610b4a57506001600160e01b0319821663e3a31a9d60e01b145b80610b6557506001600160e01b03198216636b88d51560e11b145b80610b7f57506001600160e01b03198216627b720760e91b145b80610b8e5750610b8e8261323f565b92915050565b606060448054610ba3906155e5565b80601f0160208091040260200160405190810160405280929190818152602001828054610bcf906155e5565b8015610c1c5780601f10610bf157610100808354040283529160200191610c1c565b820191906000526020600020905b815481529060010190602001808311610bff57829003601f168201915b5050505050905090565b6000610c3d63095ea7b360e01b335b60018061328f565b610c48338484613394565b50600192915050565b6001600160a01b037f0000000000000000000000000000000000000000000000000000000000000000163003610ca25760405162461bcd60e51b8152600401610c9990615619565b60405180910390fd5b7f00000000000000000000000000000000000000000000000000000000000000006001600160a01b0316610cd461349a565b6001600160a01b031614610cfa5760405162461bcd60e51b8152600401610c9990615648565b33610d036134bb565b6001600160a01b031614610d515760405162461bcd60e51b815260206004820152601560248201527410d85b1b195c88139bdd08105d5d1a1bdc9a5e9959605a1b6044820152606401610c99565b60505462010000900460ff1615808015610d735750605054600161ffff909116105b80610d8e5750303b158015610d8e575060505461ffff166001145b610dda5760405162461bcd60e51b815260206004820152601c60248201527f436f6e747261637420416c726561647920496e697469616c697a6564000000006044820152606401610c99565b6050805461ffff191660011790558015610e00576050805462ff00001916620100001790555b6000610e0f6040840184615676565b604051602001610e209291906156bc565b60408051601f1981840301815291905280516020909101209050610e6a610e478480615676565b610e546020870187615676565b85610e6560c08a0160a08b01614fc0565b6134e3565b6040805180820190915260068152654c4956454c5960d01b6020820152604490610e949082615712565b5060408051808201909152600381526213159360ea1b6020820152604590610ebc9082615712565b5060808301356047556048805460ff60a81b19169055610eff610edf8480615676565b610eec6020870187615676565b85610efa60608a018a615676565b6134f9565b508015610f13576050805462ff0000191690555b5050565b6000610f2a63028ab43960e31b33610c35565b6000805b83811015610f7557610f57858583818110610f4b57610f4b6157d1565b90506020020135613682565b610f6190836157fd565b915080610f6d81615810565b915050610f2e565b5060405181815233907ff816ce3b3a52bd5c96a6ac9d4404d206f4e9d482ffa303afbf0dbeea2957f59a906020015b60405180910390a29392505050565b6000610fc8630bfee64760e11b82808061328f565b604782905560405182815233907fb7902185ac0a79231c8be85f0ee0d94806d95d785d216824a078279f5d5bfbae9060200160405180910390a2506001919050565b600061102063038d251d60e31b8260018161328f565b6000805b8381101561112e5761105f858583818110611041576110416157d1565b6110579260206060909202019081019150614fc0565b604c90613769565b1561107c5760405162461bcd60e51b8152600401610c9990615829565b84848281811061108e5761108e6157d1565b90506060020160400135826110a391906157fd565b915061111b8585838181106110ba576110ba6157d1565b6110d09260206060909202019081019150614fc0565b8686848181106110e2576110e26157d1565b90506060020160200160208101906110fa9190614fc0565b87878581811061110c5761110c6157d1565b9050606002016040013561378b565b508061112681615810565b915050611024565b5060405181815233907f208fdf04989d654cc491d69be8eb64992c7b7407e34a6ac73e7c0361d0591eff906020015b60405180910390a25060019392505050565b60006111856323b872dd60e01b8560018061328f565b61119084848461378b565b90505b9392505050565b60006111a960505461ffff1690565b905090565b60006111c1633950935160e01b33610c35565b336000836111cf8387613834565b6111d991906157fd565b90506111e6828683613394565b846001600160a01b0316826001600160a01b03167f865ea570c20f0fe0ae579ec567fa79d57a683390554593dc070ea0dcd5f466fb8660405161122b91815260200190565b60405180910390a3949350505050565b60006112516340c10f1960e01b8460018061328f565b611193838361385f565b60006001600160a01b037f00000000000000000000000000000000000000000000000000000000000000001630036112a55760405162461bcd60e51b8152600401610c9990615619565b7f00000000000000000000000000000000000000000000000000000000000000006001600160a01b03166112d761349a565b6001600160a01b0316146112fd5760405162461bcd60e51b8152600401610c9990615648565b600061130c60505461ffff1690565b61ffff161161135d5760405162461bcd60e51b815260206004820152601860248201527f436f6e7472616374204e6f7420496e697469616c697a656400000000000000006044820152606401610c99565b61136d63225bf2f960e11b61391f565b6113b15760405162461bcd60e51b815260206004820152601560248201527429b2ba29b0b332a6b7b232902337b93134b23232b760591b6044820152606401610c99565b6003805460ff60a01b1916600160a01b8415150217905560025430336001600160a01b03167fdd452a31d2e164a1ea436c084842c27d24ae2548a575a869f71b05a4ed16243f85604051611409911515815260200190565b60405180910390a450805b919050565b600061142e6311a98d3560e21b82808061328f565b6111938383613a88565b60006001600160a01b037f00000000000000000000000000000000000000000000000000000000000000001630036114825760405162461bcd60e51b8152600401610c9990615619565b7f00000000000000000000000000000000000000000000000000000000000000006001600160a01b03166114b461349a565b6001600160a01b0316146114da5760405162461bcd60e51b8152600401610c9990615648565b600354600160a01b900460ff16156115045760405162461bcd60e51b8152600401610c9990615860565b611514631239af8760e21b61391f565b6115605760405162461bcd60e51b815260206004820152601a60248201527f5365745570677261646553746174757320466f7262696464656e0000000000006044820152606401610c99565b611568613b64565b6115b45760405162461bcd60e51b815260206004820152601760248201527f5265616c6d205570677261646520466f7262696464656e0000000000000000006044820152606401610c99565b6003805460ff60a81b1916600160a81b8415150217905560025430336001600160a01b03167fe9f97ad94c2ba252dcfc525e004f608ac5cb886955d8fc87d9e0ee070a698c5685604051611409911515815260200190565b6001600160a01b03811660009081526049602052604081208054600190910154610b8e91906157fd565b6000306001600160a01b037f000000000000000000000000000000000000000000000000000000000000000016146116b05760405162461bcd60e51b815260206004820152601d60248201527f496c6c6567616c20436f6e74726163742044656c656761746563616c6c0000006044820152606401610c99565b50600080516020615ef483398151915290565b6116d76357b001f960e01b6000808061328f565b6001600160a01b0381166116fd5760405162461bcd60e51b8152600401610c9990615897565b611708604c82613769565b6117485760405162461bcd60e51b81526020600482015260116024820152701058d8dbdd5b9d08139bdd08119bdd5b99607a1b6044820152606401610c99565b611753604c82613ca2565b506040516001600160a01b0382169033907f3d072963433794eb417a69355df67d08bbd73d5076ef653d6863861161d60af390600090a350565b60006111a961349a565b6117ab63595c6a6760e01b6000808061328f565b6048805460ff60a01b1916600160a01b1790556117c53390565b6001600160a01b03167ff1005168aea1429fe9559d51ef6caa33e6426890864e2e6e41e5d54baa7be79f60405160405180910390a2565b60006001600160a01b03821615801590610b8e5750610b8e604c83613769565b60006118366335c1ca4960e11b610c356020850185614fc0565b610b8e82613cb7565b6001600160a01b038116600090815260496020526040812060020154610b8e565b60606001600160a01b037f00000000000000000000000000000000000000000000000000000000000000001630036118aa5760405162461bcd60e51b8152600401610c9990615619565b7f00000000000000000000000000000000000000000000000000000000000000006001600160a01b03166118dc61349a565b6001600160a01b0316146119025760405162461bcd60e51b8152600401610c9990615648565b600354600160a01b900460ff161561192c5760405162461bcd60e51b8152600401610c9990615860565b600354600160a81b900460ff1661197d5760405162461bcd60e51b8152602060048201526015602482015274155c19dc9859194810d85b1b0814995a9958dd1959605a1b6044820152606401610c99565b61198684613dad565b611190848484613e74565b600354600160a01b900460ff16156119bb5760405162461bcd60e51b8152600401610c9990615860565b6119cb63756af45f60e01b61391f565b611a175760405162461bcd60e51b815260206004820152601a60248201527f57697468647261772042616c616e636520466f7262696464656e0000000000006044820152606401610c99565b6040516001600160a01b038216904780156108fc02916000818181858888f19350505050158015610f13573d6000803e3d6000fd5b611a606376a67a5160e01b6000808061328f565b6001600160a01b038116611a865760405162461bcd60e51b8152600401610c9990615897565b611a91604c82613769565b15611ad75760405162461bcd60e51b81526020600482015260166024820152751058d8dbdd5b9d08105b1c9958591e4814185d5cd95960521b6044820152606401610c99565b611ae2604c826140c5565b506040516001600160a01b0382169033907f3dd4f37ca5eaf6c357698a52c806820426d7c9a26adb0991c3bebb09cf23352a90600090a350565b60606111a9604e6140da565b611b3c637d35f35560e01b6000808061328f565b60005b81811015611bb457611ba1838383818110611b5c57611b5c6157d1565b611b729260206040909202019081019150614fc0565b848484818110611b8457611b846157d1565b9050604002016020016020810190611b9c9190615183565b613a88565b5080611bac81615810565b915050611b3f565b505050565b60006111a9306140e7565b611bd8638a2ddd0360e01b6000808061328f565b6048805460ff60a01b1916905560405133907f3c1fb1fd79ee84e55a8fe78554c432ef36ea033a9245ce4b650bd824a12554d390600090a2565b6001600160a01b038181166000908152604b60209081526040808320868452909152812080546001820154600283015493948594859485948594919390926001600160801b0380841693600160801b90041691811690600160a01b900460ff166003811115611c8357611c836158ce565b939c929b5090995097509095509350505050565b606060458054610ba3906155e5565b6060611cbd639a7e187360e01b600060018161328f565b600080836001600160401b03811115611cd857611cd86151eb565b604051908082528060200260200182016040528015611d01578160200160208202803683370190505b50905060005b84811015611dd057611d3a868683818110611d2457611d246157d1565b6110579260206080909202019081019150614fc0565b15611d575760405162461bcd60e51b8152600401610c9990615829565b611d77868683818110611d6c57611d6c6157d1565b905060800201613cb7565b828281518110611d8957611d896157d1565b602002602001018181525050858582818110611da757611da76157d1565b9050608002016060013583611dbc91906157fd565b925080611dc881615810565b915050611d07565b5060405182815233907f8e04d4df873aa900cbe3c4b51af80c003e2a72b8dfd36a6a2e54fdadbf4d11279060200160405180910390a2949350505050565b6000611e24634daf9ab760e11b8260018161328f565b6000805b83811015611ecf57611e68858583818110611e4557611e456157d1565b9050602002810190611e5791906158e4565b611057906040810190602001614fc0565b15611e855760405162461bcd60e51b8152600401610c9990615829565b611eb1858583818110611e9a57611e9a6157d1565b9050602002810190611eac91906158e4565b614126565b611ebb90836157fd565b915080611ec781615810565b915050611e28565b5060405181815233907f358ca32fb65dbe46a9aec67304b927cf0c3eaf896217f853f9a93fef2e92072390602001610fa4565b6000611f18632770a7eb60e21b8460018061328f565b6001600160a01b038316611f3e5760405162461bcd60e51b8152600401610c9990615897565b6001600160a01b03831660009081526049602052604090205482811015611fa75760405162461bcd60e51b815260206004820152601c60248201527f496e73756666696369656e74204163636f756e742042616c616e6365000000006044820152606401610c99565b6001600160a01b0384166000908152604960205260408120848303905560468054859290611fd6908490615904565b90915550506046546040805185815260208101929092526001600160a01b0386169133917f5d624aa9c148153ab3446c1b154f660ee7701e549fe9b62dab7171b1c80e6fa2910160405180910390a3505060465492915050565b6000612046639fd5a6cf60e01b8860018061328f565b834211156120965760405162461bcd60e51b815260206004820152601760248201527f5065726d697420446561646c696e6520457870697265640000000000000000006044820152606401610c99565b60007f6e71edae12b1b97f4d1f60370fef10105fa2faae0126114a169c64845d6126c98888886120c58c614215565b6040805160208101969096526001600160a01b0394851690860152929091166060840152608083015260a082015260c0810186905260e0016040516020818303038152906040528051906020012090506000612163612122614240565b8360405161190160f01b6020820152602281018390526042810182905260009060620160405160208183030381529060405280519060200120905092915050565b905060006121a78287878080601f0160208091040260200160405190810160405280939291908181526020018383808284376000920191909152506142a792505050565b9050896001600160a01b0316816001600160a01b03161461220a5760405162461bcd60e51b815260206004820152601860248201527f496c6c6567616c20454344415341205369676e617475726500000000000000006044820152606401610c99565b6122158a8a8a613394565b5060019998505050505050505050565b600061223863a457c2d760e01b33610c35565b336122448185856142cb565b836001600160a01b0316816001600160a01b03167f2d6189480d1bb13da7c0ed0063fe94af3c19eed814940db43733c4198d00a7428560405161228991815260200190565b60405180910390a361229b8185613834565b949350505050565b60006122b663a5bfa9a960e01b33610c35565b610b8e82613682565b60006122d263a9059cbb60e01b33610c35565b60006047541180156122ee57506122ec335b604e90613769565b155b15612303576122fe33848461433c565b610c48565b610c483384846143c3565b60006001600160a01b037f00000000000000000000000000000000000000000000000000000000000000001630036123585760405162461bcd60e51b8152600401610c9990615619565b7f00000000000000000000000000000000000000000000000000000000000000006001600160a01b031661238a61349a565b6001600160a01b0316146123b05760405162461bcd60e51b8152600401610c9990615648565b600354600160a01b900460ff16156123da5760405162461bcd60e51b8152600401610c9990615860565b6123ea63d9dc1f1960e01b61391f565b6124365760405162461bcd60e51b815260206004820152601760248201527f5365744c6f63616c41646d696e20466f7262696464656e0000000000000000006044820152606401610c99565b6001600160a01b03821661247e5760405162461bcd60e51b815260206004820152600f60248201526e1059191c995cdcc8125b9d985b1a59608a1b6044820152606401610c99565b61248782614489565b506001919050565b60006111938383613834565b60606111a9604c6140da565b600354600090600160a01b900460ff16156124d45760405162461bcd60e51b8152600401610c9990615860565b63ec4ac1f760e01b6124e58161391f565b6125215760405162461bcd60e51b815260206004820152600d60248201526c1058d8d95cdcc811195b9a5959609a1b6044820152606401610c99565b604854600160a81b900460ff161561257b5760405162461bcd60e51b815260206004820152601960248201527f546f6b656e20416c7265616479204469737472696275746564000000000000006044820152606401610c99565b6040516301ffc9a760e01b8152631c8b5d5b60e11b60048201526001600160a01b038516906301ffc9a790602401602060405180830381865afa9250505080156125e2575060408051601f3d908101601f191682019092526125df91810190615922565b60015b61262e5760405162461bcd60e51b815260206004820152601a60248201527f496c6c6567616c204941737365744d616e6167657245524332300000000000006044820152606401610c99565b8061267b5760405162461bcd60e51b815260206004820152601a60248201527f496e76616c6964204941737365744d616e6167657245524332300000000000006044820152606401610c99565b50612692846b1027e72f1f1281308800000061385f565b5060005b6007811015613109578381600781106126b1576126b16157d1565b6020020160208101906126c49190614fc0565b6040516301ffc9a760e01b8152639673b47d60e01b60048201526001600160a01b0391909116906301ffc9a790602401602060405180830381865afa92505050801561272d575060408051601f3d908101601f1916820190925261272a91810190615922565b60015b6127705760405162461bcd60e51b8152602060048201526014602482015273496c6c6567616c20494173736574456e7469747960601b6044820152606401610c99565b806127b45760405162461bcd60e51b8152602060048201526014602482015273496e76616c696420494173736574456e7469747960601b6044820152606401610c99565b50308482600781106127c8576127c86157d1565b6020020160208101906127db9190614fc0565b6001600160a01b0316631083f7616040518163ffffffff1660e01b8152600401602060405180830381865afa158015612818573d6000803e3d6000fd5b505050506040513d601f19601f8201168201806040525081019061283c919061593f565b6001600160a01b0316146128885760405162461bcd60e51b815260206004820152601360248201527224b73b30b634b21020b9b9b2ba102a37b5b2b760691b6044820152606401610c99565b604080517f4c4956454c595f415544494f5f564944454f5f50524f4752414d5f4153534554602082015201604051602081830303815290604052805190602001208482600781106128db576128db6157d1565b6020020160208101906128ee9190614fc0565b6001600160a01b031663c9230c5d6040518163ffffffff1660e01b8152600401602060405180830381865afa15801561292b573d6000803e3d6000fd5b505050506040513d601f19601f8201168201806040525081019061294f919061595c565b036129c157612981848260078110612969576129696157d1565b60200201602081019061297c9190614fc0565b614500565b6129bc33858360078110612997576129976157d1565b6020020160208101906129aa9190614fc0565b6b019d971e4fe8401e740000006143c3565b6130f7565b6040517f4c4956454c595f464f554e44494e475f5445414d5f41535345540000000000006020820152603a0160405160208183030381529060405280519060200120848260078110612a1557612a156157d1565b602002016020810190612a289190614fc0565b6001600160a01b031663c9230c5d6040518163ffffffff1660e01b8152600401602060405180830381865afa158015612a65573d6000803e3d6000fd5b505050506040513d601f19601f82011682018060405250810190612a89919061595c565b03612ade57612aa3848260078110612969576129696157d1565b6129bc33858360078110612ab957612ab96157d1565b602002016020810190612acc9190614fc0565b6b02e87669c308736a040000006143c3565b6040517413125591531657d514915054d5549657d054d4d155605a1b602082015260350160405160208183030381529060405280519060200120848260078110612b2a57612b2a6157d1565b602002016020810190612b3d9190614fc0565b6001600160a01b031663c9230c5d6040518163ffffffff1660e01b8152600401602060405180830381865afa158015612b7a573d6000803e3d6000fd5b505050506040513d601f19601f82011682018060405250810190612b9e919061595c565b03612bf357612bb8848260078110612969576129696157d1565b6129bc33858360078110612bce57612bce6157d1565b602002016020810190612be19190614fc0565b6b026c62ad77dc602dae0000006143c3565b6040517f4c4956454c595f5055424c49435f53414c455f41535345540000000000000000602082015260380160405160208183030381529060405280519060200120848260078110612c4757612c476157d1565b602002016020810190612c5a9190614fc0565b6001600160a01b031663c9230c5d6040518163ffffffff1660e01b8152600401602060405180830381865afa158015612c97573d6000803e3d6000fd5b505050506040513d601f19601f82011682018060405250810190612cbb919061595c565b03612d1057612cd5848260078110612969576129696157d1565b6129bc33858360078110612ceb57612ceb6157d1565b602002016020810190612cfe9190614fc0565b6b06765c793fa10079d00000006143c3565b6040517f4c4956454c595f56414c494441544f52535f524557415244535f4153534554006020820152603f0160405160208183030381529060405280519060200120848260078110612d6457612d646157d1565b602002016020810190612d779190614fc0565b6001600160a01b031663c9230c5d6040518163ffffffff1660e01b8152600401602060405180830381865afa158015612db4573d6000803e3d6000fd5b505050506040513d601f19601f82011682018060405250810190612dd8919061595c565b03612e2c57612df2848260078110612969576129696157d1565b6129bc33858360078110612e0857612e086157d1565b602002016020810190612e1b9190614fc0565b6af8277896582678ac0000006143c3565b6040517f4c4956454c595f43524f57445f464f554e44494e475f415353455400000000006020820152603b0160405160208183030381529060405280519060200120848260078110612e8057612e806157d1565b602002016020810190612e939190614fc0565b6001600160a01b031663c9230c5d6040518163ffffffff1660e01b8152600401602060405180830381865afa158015612ed0573d6000803e3d6000fd5b505050506040513d601f19601f82011682018060405250810190612ef4919061595c565b03612f4957612f0e848260078110612969576129696157d1565b6129bc33858360078110612f2457612f246157d1565b602002016020810190612f379190614fc0565b6b01c6f307be4c4687e60000006143c3565b6040517f4c4956454c595f5441585f54524541535552595f415353455400000000000000602082015260390160405160208183030381529060405280519060200120848260078110612f9d57612f9d6157d1565b602002016020810190612fb09190614fc0565b6001600160a01b031663c9230c5d6040518163ffffffff1660e01b8152600401602060405180830381865afa158015612fed573d6000803e3d6000fd5b505050506040513d601f19601f82011682018060405250810190613011919061595c565b036130b9576048546001600160a01b03161561306f5760405162461bcd60e51b815260206004820152601e60248201527f546178547265617375727920416c7265616479205265676973746572656400006044820152606401610c99565b838160078110613081576130816157d1565b6020020160208101906130949190614fc0565b604880546001600160a01b0319166001600160a01b03929092169190911790556130f7565b60405162461bcd60e51b8152602060048201526013602482015272105cdcd95d08139bdd0814dd5c1c1bdc9d1959606a1b6044820152606401610c99565b8061310181615810565b915050612696565b506048805460ff60a81b1916600160a81b179055600191505092915050565b60006111a9614240565b60006111a96134bb565b600061314f631f54aa5560e31b33610c35565b6000805b838110156131e35784848281811061316d5761316d6157d1565b905060400201602001358261318291906157fd565b91506131d13386868481811061319a5761319a6157d1565b6131b09260206040909202019081019150614fc0565b8787858181106131c2576131c26157d1565b905060400201602001356143c3565b806131db81615810565b915050613153565b5060405181815233907f6f8b319642e67cd1f14d773b5289e2e9bc1afce60945a4705b94c4c2ce0d347e9060200161115d565b6000613233633f6e4bb160e21b610c356040850160208601614fc0565b610b8e82614126565b90565b60006001600160e01b031982166314751dbf60e01b148061327057506001600160e01b031982166352d1902d60e01b145b80610b8e57506301ffc9a760e01b6001600160e01b0319831614610b8e565b600354600160a01b900460ff16156132b95760405162461bcd60e51b8152600401610c9990615860565b836132c38161391f565b6132ff5760405162461bcd60e51b815260206004820152600d60248201526c1058d8d95cdcc811195b9a5959609a1b6044820152606401610c99565b821561335f57604854600160a01b900460ff161561335f5760405162461bcd60e51b815260206004820152601960248201527f455243323050617573653a2043616c6c2052656a6563746564000000000000006044820152606401610c99565b811561338d57613370604c85613769565b1561338d5760405162461bcd60e51b8152600401610c9990615829565b5050505050565b6001600160a01b0383166133e25760405162461bcd60e51b8152602060048201526015602482015274496e76616c6964204f776e6572204164647265737360581b6044820152606401610c99565b6001600160a01b0382166134385760405162461bcd60e51b815260206004820152601760248201527f496e76616c6964205370656e64657220416464726573730000000000000000006044820152606401610c99565b6001600160a01b038381166000818152604a602090815260408083209487168084529482529182902085905590518481527f8c5be1e5ebec7d5bd14f71427d1e84f3dd0314c0f7b2291e5b200ac8c7c3b92591015b60405180910390a3505050565b6000600080516020615ef48339815191525b546001600160a01b0316919050565b60007fb53127684a568b3173ae13b9f8a6016e243e63b6e8ee1178d6a717850b5d61036134ac565b6134f1868686868686614566565b505050505050565b600080546001546002546040516397ca328d60e01b8152849373__$02a10a5b613955ebe0b1689ca5d6d93e29$__936397ca328d9361354b936004019283526020830191909152604082015260600190565b600060405180830381865af4158015613568573d6000803e3d6000fd5b505050506040513d6000823e601f3d908101601f191682016040526135909190810190615ad9565b6003546040516378efa4ed60e11b81529294509092506001600160a01b03169063f1df49da906135ca908790879087908790600401615bbe565b6020604051808303816000875af11580156135e9573d6000803e3d6000fd5b505050506040513d601f19601f8201168201806040525081019061360d919061595c565b5061361661349a565b6001600160a01b031630336001600160a01b03167ff851a1e85477b818fc72ad517ea622cc316f10f67d61c9e740adc151a8b413948c8c8c8c8c61365d60505461ffff1690565b60405161366f96959493929190615cca565b60405180910390a4505050505050505050565b60405163f7d6b5af60e01b81526049600482015260248101829052600090819073__$02a10a5b613955ebe0b1689ca5d6d93e29$__9063f7d6b5af90604401602060405180830381865af41580156136de573d6000803e3d6000fd5b505050506040513d601f19601f82011682018060405250810190613702919061595c565b336000818152604b602090815260408083208884528252918290206002015491518481529394506001600160a01b039091169286917f2a0eb8ca138e1b0c7a85d2f8f43d0f3fe72c27b59c53365fdce897e3e6f3271891015b60405180910390a492915050565b6001600160a01b03811660009081526001830160205260408120541515611193565b6047546000903390158015906137a757506137a5336122e4565b155b156137bc576137b785858561433c565b6137c7565b6137c78585856143c3565b6137d28582856142cb565b836001600160a01b0316856001600160a01b0316826001600160a01b03167f5f7542858008eeb041631f30e6109ae94b83a58e9a58261dd2c42c508850f9398660405161382191815260200190565b60405180910390a4506001949350505050565b6001600160a01b039182166000908152604a6020908152604080832093909416825291909152205490565b60006001600160a01b0383166138875760405162461bcd60e51b8152600401610c9990615897565b816046600082825461389991906157fd565b90915550506001600160a01b038316600090815260496020526040812080548492906138c69084906157fd565b90915550506046546040805184815260208101929092526001600160a01b0385169133917f2f00e3cdd69a77be7ed215ec7b2a36784dd158f921fca79ac29deffa353fe6ee910160405180910390a35060465492915050565b6003546000906001600160a01b03163003613a0d5760006363d59cf360e11b613947306140e7565b338560405160240161395b93929190615d0f565b60408051601f198184030181529190526020810180516001600160e01b03166001600160e01b031990931692909217909152905060006139d861399c61349a565b836040518060400160405280601d81526020017f44656c656761746563616c6c20686173416363657373204661696c6564000000815250614774565b905080600182516139e99190615904565b815181106139f9576139f96157d1565b60209101015160f81c600114949350505050565b6003546001600160a01b031663c7ab39e6613a27306140e7565b33856040518463ffffffff1660e01b8152600401613a4793929190615d0f565b602060405180830381865afa158015613a64573d6000803e3d6000fd5b505050506040513d601f19601f82011682018060405250810190610b8e9190615922565b60006001600160a01b038316336001600160a01b03167f85766eb39b0ac39ad7e8afbf36233d9adb1af81136bbea1f94cacd4b2e272c6984604051613ad1911515815260200190565b60405180910390a3604051634572e0c160e01b8152604960048201526001600160a01b0384166024820152821515604482015273__$02a10a5b613955ebe0b1689ca5d6d93e29$__90634572e0c190606401602060405180830381865af4158015613b40573d6000803e3d6000fd5b505050506040513d601f19601f820116820180604052508101906111939190615922565b6003546000906001600160a01b03163003613c2c57600063e25d75f060e01b600254604051602401613b9891815260200190565b60408051601f198184030181529190526020810180516001600160e01b03166001600160e01b03199093169290921790915290506000613bf8613bd961349a565b83604051806060016040528060258152602001615ecf60259139614774565b90508060018251613c099190615904565b81518110613c1957613c196157d1565b60209101015160f81c6001149392505050565b600354600254604051630e25d75f60e41b81526001600160a01b039092169163e25d75f091613c619160040190815260200190565b602060405180830381865afa158015613c7e573d6000803e3d6000fd5b505050506040513d601f19601f820116820180604052508101906111a99190615922565b6000611193836001600160a01b03841661483d565b60008073__$02a10a5b613955ebe0b1689ca5d6d93e29$__6310e1fc406049856040518363ffffffff1660e01b8152600401613cf4929190615d38565b602060405180830381865af4158015613d11573d6000803e3d6000fd5b505050506040513d601f19601f82011682018060405250810190613d35919061595c565b9050613d446020840184614fc0565b6001600160a01b031633827f8c6c9f95afe4c944c9f81d2965f0a9a0c021ce66ac4020dd8b25953a971f9148613d806040880160208901614fc0565b604080516001600160a01b0390921682528089013560208301526060808a0135918301919091520161375b565b613db561349a565b6001600160a01b0316816001600160a01b031603613e155760405162461bcd60e51b815260206004820152601a60248201527f496c6c6567616c204e657720496d706c656d656e746174696f6e0000000000006044820152606401610c99565b613e25637147855d60e01b61391f565b613e715760405162461bcd60e51b815260206004820152601960248201527f5570677261646520436f6e7465787420466f7262696464656e000000000000006044820152606401610c99565b50565b60607f4910fdfa16fed3260ed0e7147f7cc6da11a60208b5b9406d12a635614ffd91435460ff1615613ebe57613ea984614930565b50604080516000815260208101909152611193565b836001600160a01b03166352d1902d6040518163ffffffff1660e01b8152600401602060405180830381865afa925050508015613f18575060408051601f3d908101601f19168201909252613f159181019061595c565b60015b613f5c5760405162461bcd60e51b8152602060048201526015602482015274125b1b1959d85b0815555414c810dbdb9d1c9858dd605a1b6044820152606401610c99565b600080516020615ef48339815191528114613fb15760405162461bcd60e51b8152602060048201526015602482015274125b9d985b1a590815555414c810dbdb9d1c9858dd605a1b6044820152606401610c99565b506040516301ffc9a760e01b81526314751dbf60e01b60048201526001600160a01b038516906301ffc9a790602401602060405180830381865afa925050508015614019575060408051601f3d908101601f1916820190925261401691810190615922565b60015b6140655760405162461bcd60e51b815260206004820152601760248201527f496c6c6567616c204950726f787920436f6e74726163740000000000000000006044820152606401610c99565b806140b25760405162461bcd60e51b815260206004820152601760248201527f496e76616c6964204950726f787920436f6e74726163740000000000000000006044820152606401610c99565b506140be8484846149b1565b9050611193565b6000611193836001600160a01b038416614a1b565b6060600061119383614a6a565b6040516bffffffffffffffffffffffff19606083901b166020820152600090603401604051602081830303815290604052805190602001209050919050565b600080600073__$02a10a5b613955ebe0b1689ca5d6d93e29$__63f1c3afef6049866040518363ffffffff1660e01b8152600401614165929190615d90565b6040805180830381865af4158015614181573d6000803e3d6000fd5b505050506040513d601f19601f820116820180604052508101906141a59190615e17565b90925090506141ba6040850160208601614fc0565b6001600160a01b03163385357f571ab3cb94eb114c4b41e4f4bbbe9625a6c546920db08ddea52bd3ec7cb5858685856141f660408b018b615676565b6040516142069493929190615e45565b60405180910390a49392505050565b6001600160a01b03811660009081526049602052604090206002018054600181018255905b50919050565b60008054600154604080517f8b73c3c69bb8fe3d512ecc4cf759cc79239f7b179b0ffacaa9a75d522b39400f60208201529081019290925260608201524660808201523060a082015260c00160405160208183030381529060405280519060200120905090565b60008060006142b68585614ac6565b915091506142c381614b34565b509392505050565b60006142d78484613834565b9050818110156143295760405162461bcd60e51b815260206004820152601e60248201527f496e73756666696369656e74204163636f756e7420416c6c6f77616e636500006044820152606401610c99565b6143368484848403613394565b50505050565b600061435360475483614cea90919063ffffffff16565b905060006143a1826040518060400160405280601c81526020017f496e73756666696369656e74205472616e7366657220416d6f756e740000000081525085614d029092919063ffffffff16565b6048549091506143bc9086906001600160a01b0316846143c3565b61338d8585835b604051633de90db360e01b8152604960048201526001600160a01b038085166024830152831660448201526064810182905273__$02a10a5b613955ebe0b1689ca5d6d93e29$__90633de90db39060840160006040518083038186803b15801561442c57600080fd5b505af4158015614440573d6000803e3d6000fd5b50505050816001600160a01b0316836001600160a01b03167fddf252ad1be2c89b69c2b068fc378daa952ba7f163c4a11628f55a4df523b3ef8360405161348d91815260200190565b7fb53127684a568b3173ae13b9f8a6016e243e63b6e8ee1178d6a717850b5d610380546001600160a01b0383166001600160a01b031990911681179091556040805191825251309133917f54ab0d18de7958786ba1ad85966d59baa2b395455f0530dcdcfd732e6af539e29181900360200190a350565b6001600160a01b03811660009081526049602052604090205415613e715760405162461bcd60e51b815260206004820152601b60248201527f4173736574496420416c726561647920446973747269627574656400000000006044820152606401610c99565b60505462010000900460ff166145be5760405162461bcd60e51b815260206004820152601960248201527f436f6e7472616374204e6f7420496e697469616c697a696e67000000000000006044820152606401610c99565b85856040516020016145d19291906156bc565b60408051601f198184030181529082905280516020918201206000556145fb9186918691016156bc565b60408051601f19818403018152919052805160209091012060015560028290556001600160a01b03811661464057600380546001600160a01b0319163017905561475d565b6040516301ffc9a760e01b81526314b8343560e31b60048201526001600160a01b038216906301ffc9a790602401602060405180830381865afa9250505080156146a7575060408051601f3d908101601f191682019092526146a491810190615922565b60015b6146f35760405162461bcd60e51b815260206004820152601c60248201527f496c6c6567616c20416363657373436f6e74726f6c4d616e61676572000000006044820152606401610c99565b806147405760405162461bcd60e51b815260206004820152601c60248201527f496e76616c696420416363657373436f6e74726f6c4d616e61676572000000006044820152606401610c99565b50600380546001600160a01b0319166001600160a01b0383161790555b6003805461ffff60a01b191690556134f133614489565b60606001600160a01b0384163b6147c85760405162461bcd60e51b8152602060048201526018602482015277496c6c6567616c20436f6e7472616374204164647265737360401b6044820152606401610c99565b600080856001600160a01b0316856040516147e39190615e6d565b600060405180830381855af49150503d806000811461481e576040519150601f19603f3d011682016040523d82523d6000602084013e614823565b606091505b5091509150614833828286614d2e565b9695505050505050565b60008181526001830160205260408120548015614926576000614861600183615904565b855490915060009061487590600190615904565b90508181146148da576000866000018281548110614895576148956157d1565b90600052602060002001549050808760000184815481106148b8576148b86157d1565b6000918252602080832090910192909255918252600188019052604090208390555b85548690806148eb576148eb615e7f565b600190038181906000526020600020016000905590558560010160008681526020019081526020016000206000905560019350505050610b8e565b6000915050610b8e565b6001600160a01b0381163b6149825760405162461bcd60e51b8152602060048201526018602482015277496c6c6567616c20436f6e7472616374204164647265737360401b6044820152606401610c99565b600080516020615ef483398151915280546001600160a01b0319166001600160a01b0392909216919091179055565b60606149bc84614d67565b6000835111806149c95750815b15614a04576140be84846040518060400160405280601381526020017211195b1959d85d1958d85b1b0811985a5b1959606a1b815250614774565b505060408051600081526020810190915292915050565b6000818152600183016020526040812054614a6257508154600181810184556000848152602080822090930184905584548482528286019093526040902091909155610b8e565b506000610b8e565b606081600001805480602002602001604051908101604052809291908181526020018280548015614aba57602002820191906000526020600020905b815481526020019060010190808311614aa6575b50505050509050919050565b6000808251604103614afc5760208301516040840151606085015160001a614af087828585614dab565b94509450505050614b2d565b8251604003614b255760208301516040840151614b1a868383614e98565b935093505050614b2d565b506000905060025b9250929050565b6000816004811115614b4857614b486158ce565b03614b505750565b6001816004811115614b6457614b646158ce565b03614bb15760405162461bcd60e51b815260206004820152601860248201527f45434453413a20696e76616c6964207369676e617475726500000000000000006044820152606401610c99565b6002816004811115614bc557614bc56158ce565b03614c125760405162461bcd60e51b815260206004820152601f60248201527f45434453413a20696e76616c6964207369676e6174757265206c656e677468006044820152606401610c99565b6003816004811115614c2657614c266158ce565b03614c7e5760405162461bcd60e51b815260206004820152602260248201527f45434453413a20696e76616c6964207369676e6174757265202773272076616c604482015261756560f01b6064820152608401610c99565b6004816004811115614c9257614c926158ce565b03613e715760405162461bcd60e51b815260206004820152602260248201527f45434453413a20696e76616c6964207369676e6174757265202776272076616c604482015261756560f01b6064820152608401610c99565b6000611193612710614cfc8585614ed1565b90614edd565b60008184841115614d265760405162461bcd60e51b8152600401610c999190614f6c565b505050900390565b60608315614d3d575081611193565b825115614d4d5782518084602001fd5b8160405162461bcd60e51b8152600401610c999190614f6c565b614d7081614930565b6040516001600160a01b03821690309033907f354bd4b6eb65d64e6c79c53fa4f983a5e6bec4824ce4627c71be0b2722f4917e90600090a450565b6000807f7fffffffffffffffffffffffffffffff5d576e7357a4501ddfe92f46681b20a0831115614de25750600090506003614e8f565b8460ff16601b14158015614dfa57508460ff16601c14155b15614e0b5750600090506004614e8f565b6040805160008082526020820180845289905260ff881692820192909252606081018690526080810185905260019060a0016020604051602081039080840390855afa158015614e5f573d6000803e3d6000fd5b5050604051601f1901519150506001600160a01b038116614e8857600060019250925050614e8f565b9150600090505b94509492505050565b6000806001600160ff1b03831681614eb560ff86901c601b6157fd565b9050614ec387828885614dab565b935093505050935093915050565b60006111938284615e95565b60006111938284615eac565b6001600160e01b031981168114613e7157600080fd5b600060208284031215614f1157600080fd5b813561119381614ee9565b60005b83811015614f37578181015183820152602001614f1f565b50506000910152565b60008151808452614f58816020860160208601614f1c565b601f01601f19169290920160200192915050565b6020815260006111936020830184614f40565b6001600160a01b0381168114613e7157600080fd5b60008060408385031215614fa757600080fd5b8235614fb281614f7f565b946020939093013593505050565b600060208284031215614fd257600080fd5b813561119381614f7f565b600060208284031215614fef57600080fd5b81356001600160401b0381111561500557600080fd5b820160c0818503121561119357600080fd5b60008083601f84011261502957600080fd5b5081356001600160401b0381111561504057600080fd5b6020830191508360208260051b8501011115614b2d57600080fd5b6000806020838503121561506e57600080fd5b82356001600160401b0381111561508457600080fd5b61509085828601615017565b90969095509350505050565b6000602082840312156150ae57600080fd5b5035919050565b600080602083850312156150c857600080fd5b82356001600160401b03808211156150df57600080fd5b818501915085601f8301126150f357600080fd5b81358181111561510257600080fd5b86602060608302850101111561511757600080fd5b60209290920196919550909350505050565b60008060006060848603121561513e57600080fd5b833561514981614f7f565b9250602084013561515981614f7f565b929592945050506040919091013590565b8015158114613e7157600080fd5b80356114148161516a565b60006020828403121561519557600080fd5b81356111938161516a565b600080604083850312156151b357600080fd5b82356151be81614f7f565b915060208301356151ce8161516a565b809150509250929050565b60006080828403121561423a57600080fd5b634e487b7160e01b600052604160045260246000fd5b604051606081016001600160401b0381118282101715615223576152236151eb565b60405290565b604051601f8201601f191681016001600160401b0381118282101715615251576152516151eb565b604052919050565b60008060006060848603121561526e57600080fd5b833561527981614f7f565b92506020848101356001600160401b038082111561529657600080fd5b818701915087601f8301126152aa57600080fd5b8135818111156152bc576152bc6151eb565b6152ce601f8201601f19168501615229565b915080825288848285010111156152e457600080fd5b808484018584013760008482840101525080945050505061530760408501615178565b90509250925092565b6020808252825182820181905260009190848201906040850190845b818110156153515783516001600160a01b03168352928401929184019160010161532c565b50909695505050505050565b60008083601f84011261536f57600080fd5b5081356001600160401b0381111561538657600080fd5b6020830191508360208260061b8501011115614b2d57600080fd5b600080602083850312156153b457600080fd5b82356001600160401b038111156153ca57600080fd5b6150908582860161535d565b600080604083850312156153e957600080fd5b8235915060208301356151ce81614f7f565b6000806020838503121561540e57600080fd5b82356001600160401b038082111561542557600080fd5b818501915085601f83011261543957600080fd5b81358181111561544857600080fd5b8660208260071b850101111561511757600080fd5b6020808252825182820181905260009190848201906040850190845b8181101561535157835183529284019291840191600101615479565b60008060008060008060a087890312156154ae57600080fd5b86356154b981614f7f565b955060208701356154c981614f7f565b9450604087013593506060870135925060808701356001600160401b03808211156154f357600080fd5b818901915089601f83011261550757600080fd5b81358181111561551657600080fd5b8a602082850101111561552857600080fd5b6020830194508093505050509295509295509295565b6000806040838503121561555157600080fd5b823561555c81614f7f565b915060208301356151ce81614f7f565b60008061010080848603121561558157600080fd5b833561558c81614f7f565b925083810185101561559d57600080fd5b506020830190509250929050565b6000602082840312156155bd57600080fd5b81356001600160401b038111156155d357600080fd5b82016060818503121561119357600080fd5b600181811c908216806155f957607f821691505b60208210810361423a57634e487b7160e01b600052602260045260246000fd5b602080825260159082015274125b1b1959d85b0810dbdb9d1c9858dd0810d85b1b605a1b604082015260600190565b602080825260149082015273141c9bde1e4810d85b1b195908125b9d985b1a5960621b604082015260600190565b6000808335601e1984360301811261568d57600080fd5b8301803591506001600160401b038211156156a757600080fd5b602001915036819003821315614b2d57600080fd5b8183823760009101908152919050565b601f821115611bb457600081815260208120601f850160051c810160208610156156f35750805b601f850160051c820191505b818110156134f1578281556001016156ff565b81516001600160401b0381111561572b5761572b6151eb565b61573f8161573984546155e5565b846156cc565b602080601f831160018114615774576000841561575c5750858301515b600019600386901b1c1916600185901b1785556134f1565b600085815260208120601f198616915b828110156157a357888601518255948401946001909101908401615784565b50858210156157c15787850151600019600388901b60f8161c191681555b5050505050600190811b01905550565b634e487b7160e01b600052603260045260246000fd5b634e487b7160e01b600052601160045260246000fd5b80820180821115610b8e57610b8e6157e7565b600060018201615822576158226157e7565b5060010190565b6020808252601d908201527f455243323050617573653a204163636f756e742053757370656e646564000000604082015260600190565b60208082526017908201527f536166654d6f64653a2043616c6c2052656a6563746564000000000000000000604082015260600190565b60208082526017908201527f496e76616c6964204163636f756e742041646472657373000000000000000000604082015260600190565b634e487b7160e01b600052602160045260246000fd5b60008235605e198336030181126158fa57600080fd5b9190910192915050565b81810381811115610b8e57610b8e6157e7565b80516114148161516a565b60006020828403121561593457600080fd5b81516111938161516a565b60006020828403121561595157600080fd5b815161119381614f7f565b60006020828403121561596e57600080fd5b5051919050565b60006001600160401b0382111561598e5761598e6151eb565b5060051b60200190565b600082601f8301126159a957600080fd5b815160206159be6159b983615975565b615229565b82815260059290921b840181019181810190868411156159dd57600080fd5b8286015b84811015615ace5780516001600160401b0380821115615a015760008081fd5b908801906060828b03601f1901811315615a1b5760008081fd5b615a23615201565b87840151815260408085015184811115615a3d5760008081fd5b85019350603f84018d13615a515760008081fd5b88840151615a616159b982615975565b81815260059190911b85018201908a8101908f831115615a815760008081fd5b958301955b82871015615aa8578651615a9981614ee9565b8252958b0195908b0190615a86565b848c015250615aba9050858401615917565b9082015286525050509183019183016159e1565b509695505050505050565b60008082840360c0811215615aed57600080fd5b60a0811215615afb57600080fd5b5060405160a081016001600160401b038282108183111715615b1f57615b1f6151eb565b8160405285518352602086015160208401526040860151604084015260608601519150615b4b82614f7f565b81606084015260808601519150615b618261516a565b6080830182905260a086015192945080831115615b7d57600080fd5b5050615b8b85828601615998565b9150509250929050565b81835281816020850137506000828201602090810191909152601f909101601f19169091010190565b60e081526000615bd260e083018688615b95565b6020855181850152808601516040818187015280880151915060608281880152808901519250608060018060a01b03841681890152808a0151151560a089015287860360c089015285935088518087528587019450858160051b880101868b016000805b84811015615cb5578a8403601f190189528251805185528a8101518b86018990528051898701819052908c01908490898801905b80831015615c945783516001600160e01b0319168252928e019260019290920191908e0190615c6a565b50928b01511515968b019690965250988a0198935091890191600101615c36565b50919f9e505050505050505050505050505050565b608081526000615cde60808301888a615b95565b8281036020840152615cf1818789615b95565b91505083604083015261ffff83166060830152979650505050505050565b9283526001600160a01b039190911660208301526001600160e01b031916604082015260600190565b82815260a081018235615d4a81614f7f565b6001600160a01b0390811660208481019190915284013590615d6b82614f7f565b8082166040850152505060408301356060830152606083013560808301529392505050565b828152604060208201528135604082015260006020830135615db181614f7f565b6001600160a01b03166060830152604083013536849003601e19018112615dd757600080fd5b83016020810190356001600160401b03811115615df357600080fd5b803603821315615e0257600080fd5b6060608085015261483360a085018284615b95565b60008060408385031215615e2a57600080fd5b8251615e3581614f7f565b6020939093015192949293505050565b60018060a01b0385168152836020820152606060408201526000614833606083018486615b95565b600082516158fa818460208701614f1c565b634e487b7160e01b600052603160045260246000fd5b8082028115828204841417610b8e57610b8e6157e7565b600082615ec957634e487b7160e01b600052601260045260246000fd5b50049056fe44656c656761746563616c6c2069735265616c6d55706772616461626c65204661696c6564360894a13ba1a3210667c828492db98dca3e2076cc3735a920a3ca505d382bbca26469706673582212202548b0be05233adaaa82e1149cde94dc0f2edf73d41e4f1f259824cd20dbdd8b64736f6c63430008110033b53127684a568b3173ae13b9f8a6016e243e63b6e8ee1178d6a717850b5d6103",
  "linkReferences": {
    "src/contracts/lib/token/LTokenERC20.sol": {
      "LTokenERC20": [
        {
          "length": 20,
          "start": 2370
        },
        {
          "length": 20,
          "start": 14043
        },
        {
          "length": 20,
          "start": 14443
        },
        {
          "length": 20,
          "start": 15565
        },
        {
          "length": 20,
          "start": 16003
        },
        {
          "length": 20,
          "start": 17140
        },
        {
          "length": 20,
          "start": 17854
        }
      ]
    }
  },
  "deployedLinkReferences": {
    "src/contracts/lib/token/LTokenERC20.sol": {
      "LTokenERC20": [
        {
          "length": 20,
          "start": 1915
        },
        {
          "length": 20,
          "start": 13588
        },
        {
          "length": 20,
          "start": 13988
        },
        {
          "length": 20,
          "start": 15110
        },
        {
          "length": 20,
          "start": 15548
        },
        {
          "length": 20,
          "start": 16685
        },
        {
          "length": 20,
          "start": 17399
        }
      ]
    }
  },
  "devdoc": {
    "kind": "dev",
    "methods": {
      "proxiableUUID()": {
        "details": "Implementation of the ERC1822 {proxiableUUID} function. This returns the storage slot used by the implementation. It is used to validate that the this implementation remains valid after an upgrade. IMPORTANT: A proxy pointing at a proxiable contract should not be considered proxiable itself, because this risks bricking a proxy that upgrades to it, by delegating to itself until out of gas. Thus it is critical that this function revert if invoked through a proxy. This is guaranteed by the `notDelegated` modifier."
      },
      "supportsInterface(bytes4)": {
        "details": "See {IERC165-supportsInterface}."
      }
    },
    "version": 1
  },
  "evm": {
    "bytecode": {
      "linkReferences": {
        "src/contracts/lib/token/LTokenERC20.sol": {
          "LTokenERC20": [
            {
              "length": 20,
              "start": 2370
            },
            {
              "length": 20,
              "start": 14043
            },
            {
              "length": 20,
              "start": 14443
            },
            {
              "length": 20,
              "start": 15565
            },
            {
              "length": 20,
              "start": 16003
            },
            {
              "length": 20,
              "start": 17140
            },
            {
              "length": 20,
              "start": 17854
            }
          ]
        }
      },
      "opcodes": "PUSH1 0xA0 PUSH1 0x40 MSTORE ADDRESS PUSH1 0x80 MSTORE CALLVALUE DUP1 ISZERO PUSH3 0x15 JUMPI PUSH1 0x0 DUP1 REVERT JUMPDEST POP PUSH3 0x43 PUSH1 0x1 PUSH32 0x360894A13BA1A3210667C828492DB98DCA3E2076CC3735A920A3CA505D382BBD PUSH3 0x127 JUMP JUMPDEST PUSH32 0x360894A13BA1A3210667C828492DB98DCA3E2076CC3735A920A3CA505D382BBC EQ PUSH3 0x74 JUMPI PUSH3 0x74 PUSH3 0x14F JUMP JUMPDEST PUSH3 0xA1 PUSH1 0x1 PUSH32 0xB53127684A568B3173AE13B9F8A6016E243E63B6E8EE1178D6A717850B5D6104 PUSH3 0x127 JUMP JUMPDEST PUSH1 0x0 DUP1 MLOAD PUSH1 0x20 PUSH3 0x6110 DUP4 CODECOPY DUP2 MLOAD SWAP2 MSTORE EQ PUSH3 0xC1 JUMPI PUSH3 0xC1 PUSH3 0x14F JUMP JUMPDEST CALLER PUSH3 0xEA PUSH1 0x0 DUP1 MLOAD PUSH1 0x20 PUSH3 0x6110 DUP4 CODECOPY DUP2 MLOAD SWAP2 MSTORE PUSH1 0x0 SHL PUSH3 0x124 PUSH1 0x20 SHL PUSH3 0x323C OR PUSH1 0x20 SHR JUMP JUMPDEST DUP1 SLOAD PUSH1 0x1 PUSH1 0x1 PUSH1 0xA0 SHL SUB SWAP3 SWAP1 SWAP3 AND PUSH1 0x1 PUSH1 0x1 PUSH1 0xA0 SHL SUB NOT SWAP1 SWAP3 AND SWAP2 SWAP1 SWAP2 OR SWAP1 SSTORE PUSH1 0x3 DUP1 SLOAD PUSH2 0xFFFF PUSH1 0xA0 SHL NOT AND PUSH1 0x1 PUSH1 0xA0 SHL OR SWAP1 SSTORE PUSH3 0x165 JUMP JUMPDEST SWAP1 JUMP JUMPDEST DUP2 DUP2 SUB DUP2 DUP2 GT ISZERO PUSH3 0x149 JUMPI PUSH4 0x4E487B71 PUSH1 0xE0 SHL PUSH1 0x0 MSTORE PUSH1 0x11 PUSH1 0x4 MSTORE PUSH1 0x24 PUSH1 0x0 REVERT JUMPDEST SWAP3 SWAP2 POP POP JUMP JUMPDEST PUSH4 0x4E487B71 PUSH1 0xE0 SHL PUSH1 0x0 MSTORE PUSH1 0x1 PUSH1 0x4 MSTORE PUSH1 0x24 PUSH1 0x0 REVERT JUMPDEST PUSH1 0x80 MLOAD PUSH2 0x5F49 PUSH3 0x1C7 PUSH1 0x0 CODECOPY PUSH1 0x0 DUP2 DUP2 PUSH2 0xC5B ADD MSTORE DUP2 DUP2 PUSH2 0xCA4 ADD MSTORE DUP2 DUP2 PUSH2 0x1267 ADD MSTORE DUP2 DUP2 PUSH2 0x12A7 ADD MSTORE DUP2 DUP2 PUSH2 0x1444 ADD MSTORE DUP2 DUP2 PUSH2 0x1484 ADD MSTORE DUP2 DUP2 PUSH2 0x1643 ADD MSTORE DUP2 DUP2 PUSH2 0x186C ADD MSTORE DUP2 DUP2 PUSH2 0x18AC ADD MSTORE DUP2 DUP2 PUSH2 0x231A ADD MSTORE PUSH2 0x235A ADD MSTORE PUSH2 0x5F49 PUSH1 0x0 RETURN INVALID PUSH1 0x80 PUSH1 0x40 MSTORE PUSH1 0x4 CALLDATASIZE LT PUSH2 0x36B JUMPI PUSH1 0x0 CALLDATALOAD PUSH1 0xE0 SHR DUP1 PUSH4 0x7678922E GT PUSH2 0x1C4 JUMPI DUP1 PUSH4 0xA0E6ADF1 GT PUSH2 0xF6 JUMPI DUP1 PUSH4 0xD9DC1F19 GT PUSH2 0x9A JUMPI DUP1 PUSH4 0xF698DA25 GT PUSH2 0x6C JUMPI DUP1 PUSH4 0xF698DA25 EQ PUSH2 0xAAF JUMPI DUP1 PUSH4 0xF94A0ADB EQ PUSH2 0xAC4 JUMPI DUP1 PUSH4 0xFAA552A8 EQ PUSH2 0xAD9 JUMPI DUP1 PUSH4 0xFDB92EC4 EQ PUSH2 0xAF9 JUMPI STOP JUMPDEST DUP1 PUSH4 0xD9DC1F19 EQ PUSH2 0xA3A JUMPI DUP1 PUSH4 0xDD62ED3E EQ PUSH2 0xA5A JUMPI DUP1 PUSH4 0xDE843A94 EQ PUSH2 0xA7A JUMPI DUP1 PUSH4 0xEC4AC1F7 EQ PUSH2 0xA8F JUMPI STOP JUMPDEST DUP1 PUSH4 0xA9059CBB GT PUSH2 0xD3 JUMPI DUP1 PUSH4 0xA9059CBB EQ PUSH2 0x9C8 JUMPI DUP1 PUSH4 0xB4A0BDF3 EQ PUSH2 0x9E8 JUMPI DUP1 PUSH4 0xBE22465D EQ PUSH2 0xA06 JUMPI DUP1 PUSH4 0xD3E024B8 EQ PUSH2 0xA25 JUMPI STOP JUMPDEST DUP1 PUSH4 0xA0E6ADF1 EQ PUSH2 0x969 JUMPI DUP1 PUSH4 0xA457C2D7 EQ PUSH2 0x988 JUMPI DUP1 PUSH4 0xA5BFA9A9 EQ PUSH2 0x9A8 JUMPI STOP JUMPDEST DUP1 PUSH4 0x8A92AB15 GT PUSH2 0x168 JUMPI DUP1 PUSH4 0x9B5F356E GT PUSH2 0x13A JUMPI DUP1 PUSH4 0x9B5F356E EQ PUSH2 0x8F4 JUMPI DUP1 PUSH4 0x9DC29FAC EQ PUSH2 0x914 JUMPI DUP1 PUSH4 0x9FD5A6CF EQ PUSH2 0x934 JUMPI DUP1 PUSH4 0xA0A8E460 EQ PUSH2 0x954 JUMPI STOP JUMPDEST DUP1 PUSH4 0x8A92AB15 EQ PUSH2 0x834 JUMPI DUP1 PUSH4 0x8BFC07ED EQ PUSH2 0x852 JUMPI DUP1 PUSH4 0x95D89B41 EQ PUSH2 0x8B2 JUMPI DUP1 PUSH4 0x9A7E1873 EQ PUSH2 0x8C7 JUMPI STOP JUMPDEST DUP1 PUSH4 0x7BF60FF4 GT PUSH2 0x1A1 JUMPI DUP1 PUSH4 0x7BF60FF4 EQ PUSH2 0x7C8 JUMPI DUP1 PUSH4 0x7D35F355 EQ PUSH2 0x7EA JUMPI DUP1 PUSH4 0x870666CB EQ PUSH2 0x80A JUMPI DUP1 PUSH4 0x8A2DDD03 EQ PUSH2 0x81F JUMPI STOP JUMPDEST DUP1 PUSH4 0x7678922E EQ PUSH2 0x76C JUMPI DUP1 PUSH4 0x76A67A51 EQ PUSH2 0x793 JUMPI DUP1 PUSH4 0x771A3A1D EQ PUSH2 0x7B3 JUMPI STOP JUMPDEST DUP1 PUSH4 0x46A634D4 GT PUSH2 0x29D JUMPI DUP1 PUSH4 0x595C6A67 GT PUSH2 0x241 JUMPI DUP1 PUSH4 0x70AE92D2 GT PUSH2 0x213 JUMPI DUP1 PUSH4 0x70AE92D2 EQ PUSH2 0x6F7 JUMPI DUP1 PUSH4 0x7147855D EQ PUSH2 0x717 JUMPI DUP1 PUSH4 0x756AF45F EQ PUSH2 0x737 JUMPI DUP1 PUSH4 0x75D0C0DC EQ PUSH2 0x757 JUMPI STOP JUMPDEST DUP1 PUSH4 0x595C6A67 EQ PUSH2 0x66C JUMPI DUP1 PUSH4 0x5B14F183 EQ PUSH2 0x681 JUMPI DUP1 PUSH4 0x6B839492 EQ PUSH2 0x6A1 JUMPI DUP1 PUSH4 0x70A08231 EQ PUSH2 0x6C1 JUMPI STOP JUMPDEST DUP1 PUSH4 0x52D1902D GT PUSH2 0x27A JUMPI DUP1 PUSH4 0x52D1902D EQ PUSH2 0x5EB JUMPI DUP1 PUSH4 0x5479D940 EQ PUSH2 0x600 JUMPI DUP1 PUSH4 0x57B001F9 EQ PUSH2 0x61F JUMPI DUP1 PUSH4 0x58DBC45D EQ PUSH2 0x63F JUMPI STOP JUMPDEST DUP1 PUSH4 0x46A634D4 EQ PUSH2 0x58B JUMPI DUP1 PUSH4 0x48E6BE1C EQ PUSH2 0x5AB JUMPI DUP1 PUSH4 0x4B0EE02A EQ PUSH2 0x5CB JUMPI STOP JUMPDEST DUP1 PUSH4 0x18160DDD GT PUSH2 0x30F JUMPI DUP1 PUSH4 0x38D38C97 GT PUSH2 0x2E1 JUMPI DUP1 PUSH4 0x38D38C97 EQ PUSH2 0x503 JUMPI DUP1 PUSH4 0x39509351 EQ PUSH2 0x52B JUMPI DUP1 PUSH4 0x40C10F19 EQ PUSH2 0x54B JUMPI DUP1 PUSH4 0x44B7E5F2 EQ PUSH2 0x56B JUMPI STOP JUMPDEST DUP1 PUSH4 0x18160DDD EQ PUSH2 0x492 JUMPI DUP1 PUSH4 0x1C6928E8 EQ PUSH2 0x4A7 JUMPI DUP1 PUSH4 0x23B872DD EQ PUSH2 0x4C7 JUMPI DUP1 PUSH4 0x313CE567 EQ PUSH2 0x4E7 JUMPI STOP JUMPDEST DUP1 PUSH4 0x10E776ED GT PUSH2 0x348 JUMPI DUP1 PUSH4 0x10E776ED EQ PUSH2 0x3EB JUMPI DUP1 PUSH4 0x1408A7F4 EQ PUSH2 0x432 JUMPI DUP1 PUSH4 0x1455A1C8 EQ PUSH2 0x452 JUMPI DUP1 PUSH4 0x17FDCC8E EQ PUSH2 0x472 JUMPI STOP JUMPDEST DUP1 PUSH4 0x1FFC9A7 EQ PUSH2 0x374 JUMPI DUP1 PUSH4 0x6FDDE03 EQ PUSH2 0x3A9 JUMPI DUP1 PUSH4 0x95EA7B3 EQ PUSH2 0x3CB JUMPI STOP JUMPDEST CALLDATASIZE PUSH2 0x372 JUMPI STOP JUMPDEST STOP JUMPDEST CALLVALUE DUP1 ISZERO PUSH2 0x380 JUMPI PUSH1 0x0 DUP1 REVERT JUMPDEST POP PUSH2 0x394 PUSH2 0x38F CALLDATASIZE PUSH1 0x4 PUSH2 0x4EFF JUMP JUMPDEST PUSH2 0xB19 JUMP JUMPDEST PUSH1 0x40 MLOAD SWAP1 ISZERO ISZERO DUP2 MSTORE PUSH1 0x20 ADD JUMPDEST PUSH1 0x40 MLOAD DUP1 SWAP2 SUB SWAP1 RETURN JUMPDEST CALLVALUE DUP1 ISZERO PUSH2 0x3B5 JUMPI PUSH1 0x0 DUP1 REVERT JUMPDEST POP PUSH2 0x3BE PUSH2 0xB94 JUMP JUMPDEST PUSH1 0x40 MLOAD PUSH2 0x3A0 SWAP2 SWAP1 PUSH2 0x4F6C JUMP JUMPDEST CALLVALUE DUP1 ISZERO PUSH2 0x3D7 JUMPI PUSH1 0x0 DUP1 REVERT JUMPDEST POP PUSH2 0x394 PUSH2 0x3E6 CALLDATASIZE PUSH1 0x4 PUSH2 0x4F94 JUMP JUMPDEST PUSH2 0xC26 JUMP JUMPDEST CALLVALUE DUP1 ISZERO PUSH2 0x3F7 JUMPI PUSH1 0x0 DUP1 REVERT JUMPDEST POP PUSH2 0x424 PUSH2 0x406 CALLDATASIZE PUSH1 0x4 PUSH2 0x4FC0 JUMP JUMPDEST PUSH1 0x1 PUSH1 0x1 PUSH1 0xA0 SHL SUB AND PUSH1 0x0 SWAP1 DUP2 MSTORE PUSH1 0x49 PUSH1 0x20 MSTORE PUSH1 0x40 SWAP1 KECCAK256 PUSH1 0x1 ADD SLOAD SWAP1 JUMP JUMPDEST PUSH1 0x40 MLOAD SWAP1 DUP2 MSTORE PUSH1 0x20 ADD PUSH2 0x3A0 JUMP JUMPDEST CALLVALUE DUP1 ISZERO PUSH2 0x43E JUMPI PUSH1 0x0 DUP1 REVERT JUMPDEST POP PUSH2 0x372 PUSH2 0x44D CALLDATASIZE PUSH1 0x4 PUSH2 0x4FDD JUMP JUMPDEST PUSH2 0xC51 JUMP JUMPDEST CALLVALUE DUP1 ISZERO PUSH2 0x45E JUMPI PUSH1 0x0 DUP1 REVERT JUMPDEST POP PUSH2 0x424 PUSH2 0x46D CALLDATASIZE PUSH1 0x4 PUSH2 0x505B JUMP JUMPDEST PUSH2 0xF17 JUMP JUMPDEST CALLVALUE DUP1 ISZERO PUSH2 0x47E JUMPI PUSH1 0x0 DUP1 REVERT JUMPDEST POP PUSH2 0x394 PUSH2 0x48D CALLDATASIZE PUSH1 0x4 PUSH2 0x509C JUMP JUMPDEST PUSH2 0xFB3 JUMP JUMPDEST CALLVALUE DUP1 ISZERO PUSH2 0x49E JUMPI PUSH1 0x0 DUP1 REVERT JUMPDEST POP PUSH1 0x46 SLOAD PUSH2 0x424 JUMP JUMPDEST CALLVALUE DUP1 ISZERO PUSH2 0x4B3 JUMPI PUSH1 0x0 DUP1 REVERT JUMPDEST POP PUSH2 0x394 PUSH2 0x4C2 CALLDATASIZE PUSH1 0x4 PUSH2 0x50B5 JUMP JUMPDEST PUSH2 0x100A JUMP JUMPDEST CALLVALUE DUP1 ISZERO PUSH2 0x4D3 JUMPI PUSH1 0x0 DUP1 REVERT JUMPDEST POP PUSH2 0x394 PUSH2 0x4E2 CALLDATASIZE PUSH1 0x4 PUSH2 0x5129 JUMP JUMPDEST PUSH2 0x116F JUMP JUMPDEST CALLVALUE DUP1 ISZERO PUSH2 0x4F3 JUMPI PUSH1 0x0 DUP1 REVERT JUMPDEST POP PUSH1 0x40 MLOAD PUSH1 0x12 DUP2 MSTORE PUSH1 0x20 ADD PUSH2 0x3A0 JUMP JUMPDEST CALLVALUE DUP1 ISZERO PUSH2 0x50F JUMPI PUSH1 0x0 DUP1 REVERT JUMPDEST POP PUSH2 0x518 PUSH2 0x119A JUMP JUMPDEST PUSH1 0x40 MLOAD PUSH2 0xFFFF SWAP1 SWAP2 AND DUP2 MSTORE PUSH1 0x20 ADD PUSH2 0x3A0 JUMP JUMPDEST CALLVALUE DUP1 ISZERO PUSH2 0x537 JUMPI PUSH1 0x0 DUP1 REVERT JUMPDEST POP PUSH2 0x424 PUSH2 0x546 CALLDATASIZE PUSH1 0x4 PUSH2 0x4F94 JUMP JUMPDEST PUSH2 0x11AE JUMP JUMPDEST CALLVALUE DUP1 ISZERO PUSH2 0x557 JUMPI PUSH1 0x0 DUP1 REVERT JUMPDEST POP PUSH2 0x424 PUSH2 0x566 CALLDATASIZE PUSH1 0x4 PUSH2 0x4F94 JUMP JUMPDEST PUSH2 0x123B JUMP JUMPDEST CALLVALUE DUP1 ISZERO PUSH2 0x577 JUMPI PUSH1 0x0 DUP1 REVERT JUMPDEST POP PUSH2 0x394 PUSH2 0x586 CALLDATASIZE PUSH1 0x4 PUSH2 0x5183 JUMP JUMPDEST PUSH2 0x125B JUMP JUMPDEST CALLVALUE DUP1 ISZERO PUSH2 0x597 JUMPI PUSH1 0x0 DUP1 REVERT JUMPDEST POP PUSH2 0x394 PUSH2 0x5A6 CALLDATASIZE PUSH1 0x4 PUSH2 0x51A0 JUMP JUMPDEST PUSH2 0x1419 JUMP JUMPDEST CALLVALUE DUP1 ISZERO PUSH2 0x5B7 JUMPI PUSH1 0x0 DUP1 REVERT JUMPDEST POP PUSH2 0x394 PUSH2 0x5C6 CALLDATASIZE PUSH1 0x4 PUSH2 0x5183 JUMP JUMPDEST PUSH2 0x1438 JUMP JUMPDEST CALLVALUE DUP1 ISZERO PUSH2 0x5D7 JUMPI PUSH1 0x0 DUP1 REVERT JUMPDEST POP PUSH2 0x424 PUSH2 0x5E6 CALLDATASIZE PUSH1 0x4 PUSH2 0x4FC0 JUMP JUMPDEST PUSH2 0x160C JUMP JUMPDEST CALLVALUE DUP1 ISZERO PUSH2 0x5F7 JUMPI PUSH1 0x0 DUP1 REVERT JUMPDEST POP PUSH2 0x424 PUSH2 0x1636 JUMP JUMPDEST CALLVALUE DUP1 ISZERO PUSH2 0x60C JUMPI PUSH1 0x0 DUP1 REVERT JUMPDEST POP PUSH1 0x3 SLOAD PUSH1 0x1 PUSH1 0xA8 SHL SWAP1 DIV PUSH1 0xFF AND PUSH2 0x394 JUMP JUMPDEST CALLVALUE DUP1 ISZERO PUSH2 0x62B JUMPI PUSH1 0x0 DUP1 REVERT JUMPDEST POP PUSH2 0x372 PUSH2 0x63A CALLDATASIZE PUSH1 0x4 PUSH2 0x4FC0 JUMP JUMPDEST PUSH2 0x16C3 JUMP JUMPDEST CALLVALUE DUP1 ISZERO PUSH2 0x64B JUMPI PUSH1 0x0 DUP1 REVERT JUMPDEST POP PUSH2 0x654 PUSH2 0x178D JUMP JUMPDEST PUSH1 0x40 MLOAD PUSH1 0x1 PUSH1 0x1 PUSH1 0xA0 SHL SUB SWAP1 SWAP2 AND DUP2 MSTORE PUSH1 0x20 ADD PUSH2 0x3A0 JUMP JUMPDEST CALLVALUE DUP1 ISZERO PUSH2 0x678 JUMPI PUSH1 0x0 DUP1 REVERT JUMPDEST POP PUSH2 0x372 PUSH2 0x1797 JUMP JUMPDEST CALLVALUE DUP1 ISZERO PUSH2 0x68D JUMPI PUSH1 0x0 DUP1 REVERT JUMPDEST POP PUSH2 0x394 PUSH2 0x69C CALLDATASIZE PUSH1 0x4 PUSH2 0x4FC0 JUMP JUMPDEST PUSH2 0x17FC JUMP JUMPDEST CALLVALUE DUP1 ISZERO PUSH2 0x6AD JUMPI PUSH1 0x0 DUP1 REVERT JUMPDEST POP PUSH2 0x424 PUSH2 0x6BC CALLDATASIZE PUSH1 0x4 PUSH2 0x51D9 JUMP JUMPDEST PUSH2 0x181C JUMP JUMPDEST CALLVALUE DUP1 ISZERO PUSH2 0x6CD JUMPI PUSH1 0x0 DUP1 REVERT JUMPDEST POP PUSH2 0x424 PUSH2 0x6DC CALLDATASIZE PUSH1 0x4 PUSH2 0x4FC0 JUMP JUMPDEST PUSH1 0x1 PUSH1 0x1 PUSH1 0xA0 SHL SUB AND PUSH1 0x0 SWAP1 DUP2 MSTORE PUSH1 0x49 PUSH1 0x20 MSTORE PUSH1 0x40 SWAP1 KECCAK256 SLOAD SWAP1 JUMP JUMPDEST CALLVALUE DUP1 ISZERO PUSH2 0x703 JUMPI PUSH1 0x0 DUP1 REVERT JUMPDEST POP PUSH2 0x424 PUSH2 0x712 CALLDATASIZE PUSH1 0x4 PUSH2 0x4FC0 JUMP JUMPDEST PUSH2 0x183F JUMP JUMPDEST CALLVALUE DUP1 ISZERO PUSH2 0x723 JUMPI PUSH1 0x0 DUP1 REVERT JUMPDEST POP PUSH2 0x3BE PUSH2 0x732 CALLDATASIZE PUSH1 0x4 PUSH2 0x5259 JUMP JUMPDEST PUSH2 0x1860 JUMP JUMPDEST CALLVALUE DUP1 ISZERO PUSH2 0x743 JUMPI PUSH1 0x0 DUP1 REVERT JUMPDEST POP PUSH2 0x372 PUSH2 0x752 CALLDATASIZE PUSH1 0x4 PUSH2 0x4FC0 JUMP JUMPDEST PUSH2 0x1991 JUMP JUMPDEST CALLVALUE DUP1 ISZERO PUSH2 0x763 JUMPI PUSH1 0x0 DUP1 REVERT JUMPDEST POP PUSH1 0x0 SLOAD PUSH2 0x424 JUMP JUMPDEST CALLVALUE DUP1 ISZERO PUSH2 0x778 JUMPI PUSH1 0x0 DUP1 REVERT JUMPDEST POP PUSH20 0x0 PUSH2 0x654 JUMP JUMPDEST CALLVALUE DUP1 ISZERO PUSH2 0x79F JUMPI PUSH1 0x0 DUP1 REVERT JUMPDEST POP PUSH2 0x372 PUSH2 0x7AE CALLDATASIZE PUSH1 0x4 PUSH2 0x4FC0 JUMP JUMPDEST PUSH2 0x1A4C JUMP JUMPDEST CALLVALUE DUP1 ISZERO PUSH2 0x7BF JUMPI PUSH1 0x0 DUP1 REVERT JUMPDEST POP PUSH1 0x47 SLOAD PUSH2 0x424 JUMP JUMPDEST CALLVALUE DUP1 ISZERO PUSH2 0x7D4 JUMPI PUSH1 0x0 DUP1 REVERT JUMPDEST POP PUSH2 0x7DD PUSH2 0x1B1C JUMP JUMPDEST PUSH1 0x40 MLOAD PUSH2 0x3A0 SWAP2 SWAP1 PUSH2 0x5310 JUMP JUMPDEST CALLVALUE DUP1 ISZERO PUSH2 0x7F6 JUMPI PUSH1 0x0 DUP1 REVERT JUMPDEST POP PUSH2 0x372 PUSH2 0x805 CALLDATASIZE PUSH1 0x4 PUSH2 0x53A1 JUMP JUMPDEST PUSH2 0x1B28 JUMP JUMPDEST CALLVALUE DUP1 ISZERO PUSH2 0x816 JUMPI PUSH1 0x0 DUP1 REVERT JUMPDEST POP PUSH2 0x424 PUSH2 0x1BB9 JUMP JUMPDEST CALLVALUE DUP1 ISZERO PUSH2 0x82B JUMPI PUSH1 0x0 DUP1 REVERT JUMPDEST POP PUSH2 0x372 PUSH2 0x1BC4 JUMP JUMPDEST CALLVALUE DUP1 ISZERO PUSH2 0x840 JUMPI PUSH1 0x0 DUP1 REVERT JUMPDEST POP PUSH1 0x48 SLOAD PUSH1 0x1 PUSH1 0x1 PUSH1 0xA0 SHL SUB AND PUSH2 0x654 JUMP JUMPDEST CALLVALUE DUP1 ISZERO PUSH2 0x85E JUMPI PUSH1 0x0 DUP1 REVERT JUMPDEST POP PUSH2 0x872 PUSH2 0x86D CALLDATASIZE PUSH1 0x4 PUSH2 0x53D6 JUMP JUMPDEST PUSH2 0x1C12 JUMP JUMPDEST PUSH1 0x40 DUP1 MLOAD SWAP6 DUP7 MSTORE PUSH1 0x1 PUSH1 0x1 PUSH1 0x80 SHL SUB SWAP5 DUP6 AND PUSH1 0x20 DUP8 ADD MSTORE SWAP3 SWAP1 SWAP4 AND SWAP2 DUP5 ADD SWAP2 SWAP1 SWAP2 MSTORE PUSH1 0x1 PUSH1 0x1 PUSH1 0xA0 SHL SUB AND PUSH1 0x60 DUP4 ADD MSTORE PUSH1 0xFF AND PUSH1 0x80 DUP3 ADD MSTORE PUSH1 0xA0 ADD PUSH2 0x3A0 JUMP JUMPDEST CALLVALUE DUP1 ISZERO PUSH2 0x8BE JUMPI PUSH1 0x0 DUP1 REVERT JUMPDEST POP PUSH2 0x3BE PUSH2 0x1C97 JUMP JUMPDEST CALLVALUE DUP1 ISZERO PUSH2 0x8D3 JUMPI PUSH1 0x0 DUP1 REVERT JUMPDEST POP PUSH2 0x8E7 PUSH2 0x8E2 CALLDATASIZE PUSH1 0x4 PUSH2 0x53FB JUMP JUMPDEST PUSH2 0x1CA6 JUMP JUMPDEST PUSH1 0x40 MLOAD PUSH2 0x3A0 SWAP2 SWAP1 PUSH2 0x545D JUMP JUMPDEST CALLVALUE DUP1 ISZERO PUSH2 0x900 JUMPI PUSH1 0x0 DUP1 REVERT JUMPDEST POP PUSH2 0x424 PUSH2 0x90F CALLDATASIZE PUSH1 0x4 PUSH2 0x505B JUMP JUMPDEST PUSH2 0x1E0E JUMP JUMPDEST CALLVALUE DUP1 ISZERO PUSH2 0x920 JUMPI PUSH1 0x0 DUP1 REVERT JUMPDEST POP PUSH2 0x424 PUSH2 0x92F CALLDATASIZE PUSH1 0x4 PUSH2 0x4F94 JUMP JUMPDEST PUSH2 0x1F02 JUMP JUMPDEST CALLVALUE DUP1 ISZERO PUSH2 0x940 JUMPI PUSH1 0x0 DUP1 REVERT JUMPDEST POP PUSH2 0x394 PUSH2 0x94F CALLDATASIZE PUSH1 0x4 PUSH2 0x5495 JUMP JUMPDEST PUSH2 0x2030 JUMP JUMPDEST CALLVALUE DUP1 ISZERO PUSH2 0x960 JUMPI PUSH1 0x0 DUP1 REVERT JUMPDEST POP PUSH1 0x1 SLOAD PUSH2 0x424 JUMP JUMPDEST CALLVALUE DUP1 ISZERO PUSH2 0x975 JUMPI PUSH1 0x0 DUP1 REVERT JUMPDEST POP PUSH1 0x48 SLOAD PUSH1 0x1 PUSH1 0xA0 SHL SWAP1 DIV PUSH1 0xFF AND PUSH2 0x394 JUMP JUMPDEST CALLVALUE DUP1 ISZERO PUSH2 0x994 JUMPI PUSH1 0x0 DUP1 REVERT JUMPDEST POP PUSH2 0x424 PUSH2 0x9A3 CALLDATASIZE PUSH1 0x4 PUSH2 0x4F94 JUMP JUMPDEST PUSH2 0x2225 JUMP JUMPDEST CALLVALUE DUP1 ISZERO PUSH2 0x9B4 JUMPI PUSH1 0x0 DUP1 REVERT JUMPDEST POP PUSH2 0x424 PUSH2 0x9C3 CALLDATASIZE PUSH1 0x4 PUSH2 0x509C JUMP JUMPDEST PUSH2 0x22A3 JUMP JUMPDEST CALLVALUE DUP1 ISZERO PUSH2 0x9D4 JUMPI PUSH1 0x0 DUP1 REVERT JUMPDEST POP PUSH2 0x394 PUSH2 0x9E3 CALLDATASIZE PUSH1 0x4 PUSH2 0x4F94 JUMP JUMPDEST PUSH2 0x22BF JUMP JUMPDEST CALLVALUE DUP1 ISZERO PUSH2 0x9F4 JUMPI PUSH1 0x0 DUP1 REVERT JUMPDEST POP PUSH1 0x3 SLOAD PUSH1 0x1 PUSH1 0x1 PUSH1 0xA0 SHL SUB AND PUSH2 0x654 JUMP JUMPDEST CALLVALUE DUP1 ISZERO PUSH2 0xA12 JUMPI PUSH1 0x0 DUP1 REVERT JUMPDEST POP PUSH1 0x3 SLOAD PUSH1 0x1 PUSH1 0xA0 SHL SWAP1 DIV PUSH1 0xFF AND PUSH2 0x394 JUMP JUMPDEST CALLVALUE DUP1 ISZERO PUSH2 0xA31 JUMPI PUSH1 0x0 DUP1 REVERT JUMPDEST POP PUSH1 0x2 SLOAD PUSH2 0x424 JUMP JUMPDEST CALLVALUE DUP1 ISZERO PUSH2 0xA46 JUMPI PUSH1 0x0 DUP1 REVERT JUMPDEST POP PUSH2 0x394 PUSH2 0xA55 CALLDATASIZE PUSH1 0x4 PUSH2 0x4FC0 JUMP JUMPDEST PUSH2 0x230E JUMP JUMPDEST CALLVALUE DUP1 ISZERO PUSH2 0xA66 JUMPI PUSH1 0x0 DUP1 REVERT JUMPDEST POP PUSH2 0x424 PUSH2 0xA75 CALLDATASIZE PUSH1 0x4 PUSH2 0x553E JUMP JUMPDEST PUSH2 0x248F JUMP JUMPDEST CALLVALUE DUP1 ISZERO PUSH2 0xA86 JUMPI PUSH1 0x0 DUP1 REVERT JUMPDEST POP PUSH2 0x7DD PUSH2 0x249B JUMP JUMPDEST CALLVALUE DUP1 ISZERO PUSH2 0xA9B JUMPI PUSH1 0x0 DUP1 REVERT JUMPDEST POP PUSH2 0x394 PUSH2 0xAAA CALLDATASIZE PUSH1 0x4 PUSH2 0x556C JUMP JUMPDEST PUSH2 0x24A7 JUMP JUMPDEST CALLVALUE DUP1 ISZERO PUSH2 0xABB JUMPI PUSH1 0x0 DUP1 REVERT JUMPDEST POP PUSH2 0x424 PUSH2 0x3128 JUMP JUMPDEST CALLVALUE DUP1 ISZERO PUSH2 0xAD0 JUMPI PUSH1 0x0 DUP1 REVERT JUMPDEST POP PUSH2 0x654 PUSH2 0x3132 JUMP JUMPDEST CALLVALUE DUP1 ISZERO PUSH2 0xAE5 JUMPI PUSH1 0x0 DUP1 REVERT JUMPDEST POP PUSH2 0x394 PUSH2 0xAF4 CALLDATASIZE PUSH1 0x4 PUSH2 0x53A1 JUMP JUMPDEST PUSH2 0x313C JUMP JUMPDEST CALLVALUE DUP1 ISZERO PUSH2 0xB05 JUMPI PUSH1 0x0 DUP1 REVERT JUMPDEST POP PUSH2 0x424 PUSH2 0xB14 CALLDATASIZE PUSH1 0x4 PUSH2 0x55AB JUMP JUMPDEST PUSH2 0x3216 JUMP JUMPDEST PUSH1 0x0 PUSH1 0x1 PUSH1 0x1 PUSH1 0xE0 SHL SUB NOT DUP3 AND PUSH4 0x4A174591 PUSH1 0xE1 SHL EQ DUP1 PUSH2 0xB4A JUMPI POP PUSH1 0x1 PUSH1 0x1 PUSH1 0xE0 SHL SUB NOT DUP3 AND PUSH4 0xE3A31A9D PUSH1 0xE0 SHL EQ JUMPDEST DUP1 PUSH2 0xB65 JUMPI POP PUSH1 0x1 PUSH1 0x1 PUSH1 0xE0 SHL SUB NOT DUP3 AND PUSH4 0x6B88D515 PUSH1 0xE1 SHL EQ JUMPDEST DUP1 PUSH2 0xB7F JUMPI POP PUSH1 0x1 PUSH1 0x1 PUSH1 0xE0 SHL SUB NOT DUP3 AND PUSH3 0x7B7207 PUSH1 0xE9 SHL EQ JUMPDEST DUP1 PUSH2 0xB8E JUMPI POP PUSH2 0xB8E DUP3 PUSH2 0x323F JUMP JUMPDEST SWAP3 SWAP2 POP POP JUMP JUMPDEST PUSH1 0x60 PUSH1 0x44 DUP1 SLOAD PUSH2 0xBA3 SWAP1 PUSH2 0x55E5 JUMP JUMPDEST DUP1 PUSH1 0x1F ADD PUSH1 0x20 DUP1 SWAP2 DIV MUL PUSH1 0x20 ADD PUSH1 0x40 MLOAD SWAP1 DUP2 ADD PUSH1 0x40 MSTORE DUP1 SWAP3 SWAP2 SWAP1 DUP2 DUP2 MSTORE PUSH1 0x20 ADD DUP3 DUP1 SLOAD PUSH2 0xBCF SWAP1 PUSH2 0x55E5 JUMP JUMPDEST DUP1 ISZERO PUSH2 0xC1C JUMPI DUP1 PUSH1 0x1F LT PUSH2 0xBF1 JUMPI PUSH2 0x100 DUP1 DUP4 SLOAD DIV MUL DUP4 MSTORE SWAP2 PUSH1 0x20 ADD SWAP2 PUSH2 0xC1C JUMP JUMPDEST DUP3 ADD SWAP2 SWAP1 PUSH1 0x0 MSTORE PUSH1 0x20 PUSH1 0x0 KECCAK256 SWAP1 JUMPDEST DUP2 SLOAD DUP2 MSTORE SWAP1 PUSH1 0x1 ADD SWAP1 PUSH1 0x20 ADD DUP1 DUP4 GT PUSH2 0xBFF JUMPI DUP3 SWAP1 SUB PUSH1 0x1F AND DUP3 ADD SWAP2 JUMPDEST POP POP POP POP POP SWAP1 POP SWAP1 JUMP JUMPDEST PUSH1 0x0 PUSH2 0xC3D PUSH4 0x95EA7B3 PUSH1 0xE0 SHL CALLER JUMPDEST PUSH1 0x1 DUP1 PUSH2 0x328F JUMP JUMPDEST PUSH2 0xC48 CALLER DUP5 DUP5 PUSH2 0x3394 JUMP JUMPDEST POP PUSH1 0x1 SWAP3 SWAP2 POP POP JUMP JUMPDEST PUSH1 0x1 PUSH1 0x1 PUSH1 0xA0 SHL SUB PUSH32 0x0 AND ADDRESS SUB PUSH2 0xCA2 JUMPI PUSH1 0x40 MLOAD PUSH3 0x461BCD PUSH1 0xE5 SHL DUP2 MSTORE PUSH1 0x4 ADD PUSH2 0xC99 SWAP1 PUSH2 0x5619 JUMP JUMPDEST PUSH1 0x40 MLOAD DUP1 SWAP2 SUB SWAP1 REVERT JUMPDEST PUSH32 0x0 PUSH1 0x1 PUSH1 0x1 PUSH1 0xA0 SHL SUB AND PUSH2 0xCD4 PUSH2 0x349A JUMP JUMPDEST PUSH1 0x1 PUSH1 0x1 PUSH1 0xA0 SHL SUB AND EQ PUSH2 0xCFA JUMPI PUSH1 0x40 MLOAD PUSH3 0x461BCD PUSH1 0xE5 SHL DUP2 MSTORE PUSH1 0x4 ADD PUSH2 0xC99 SWAP1 PUSH2 0x5648 JUMP JUMPDEST CALLER PUSH2 0xD03 PUSH2 0x34BB JUMP JUMPDEST PUSH1 0x1 PUSH1 0x1 PUSH1 0xA0 SHL SUB AND EQ PUSH2 0xD51 JUMPI PUSH1 0x40 MLOAD PUSH3 0x461BCD PUSH1 0xE5 SHL DUP2 MSTORE PUSH1 0x20 PUSH1 0x4 DUP3 ADD MSTORE PUSH1 0x15 PUSH1 0x24 DUP3 ADD MSTORE PUSH21 0x10D85B1B195C88139BDD08105D5D1A1BDC9A5E9959 PUSH1 0x5A SHL PUSH1 0x44 DUP3 ADD MSTORE PUSH1 0x64 ADD PUSH2 0xC99 JUMP JUMPDEST PUSH1 0x50 SLOAD PUSH3 0x10000 SWAP1 DIV PUSH1 0xFF AND ISZERO DUP1 DUP1 ISZERO PUSH2 0xD73 JUMPI POP PUSH1 0x50 SLOAD PUSH1 0x1 PUSH2 0xFFFF SWAP1 SWAP2 AND LT JUMPDEST DUP1 PUSH2 0xD8E JUMPI POP ADDRESS EXTCODESIZE ISZERO DUP1 ISZERO PUSH2 0xD8E JUMPI POP PUSH1 0x50 SLOAD PUSH2 0xFFFF AND PUSH1 0x1 EQ JUMPDEST PUSH2 0xDDA JUMPI PUSH1 0x40 MLOAD PUSH3 0x461BCD PUSH1 0xE5 SHL DUP2 MSTORE PUSH1 0x20 PUSH1 0x4 DUP3 ADD MSTORE PUSH1 0x1C PUSH1 0x24 DUP3 ADD MSTORE PUSH32 0x436F6E747261637420416C726561647920496E697469616C697A656400000000 PUSH1 0x44 DUP3 ADD MSTORE PUSH1 0x64 ADD PUSH2 0xC99 JUMP JUMPDEST PUSH1 0x50 DUP1 SLOAD PUSH2 0xFFFF NOT AND PUSH1 0x1 OR SWAP1 SSTORE DUP1 ISZERO PUSH2 0xE00 JUMPI PUSH1 0x50 DUP1 SLOAD PUSH3 0xFF0000 NOT AND PUSH3 0x10000 OR SWAP1 SSTORE JUMPDEST PUSH1 0x0 PUSH2 0xE0F PUSH1 0x40 DUP5 ADD DUP5 PUSH2 0x5676 JUMP JUMPDEST PUSH1 0x40 MLOAD PUSH1 0x20 ADD PUSH2 0xE20 SWAP3 SWAP2 SWAP1 PUSH2 0x56BC JUMP JUMPDEST PUSH1 0x40 DUP1 MLOAD PUSH1 0x1F NOT DUP2 DUP5 SUB ADD DUP2 MSTORE SWAP2 SWAP1 MSTORE DUP1 MLOAD PUSH1 0x20 SWAP1 SWAP2 ADD KECCAK256 SWAP1 POP PUSH2 0xE6A PUSH2 0xE47 DUP5 DUP1 PUSH2 0x5676 JUMP JUMPDEST PUSH2 0xE54 PUSH1 0x20 DUP8 ADD DUP8 PUSH2 0x5676 JUMP JUMPDEST DUP6 PUSH2 0xE65 PUSH1 0xC0 DUP11 ADD PUSH1 0xA0 DUP12 ADD PUSH2 0x4FC0 JUMP JUMPDEST PUSH2 0x34E3 JUMP JUMPDEST PUSH1 0x40 DUP1 MLOAD DUP1 DUP3 ADD SWAP1 SWAP2 MSTORE PUSH1 0x6 DUP2 MSTORE PUSH6 0x4C4956454C59 PUSH1 0xD0 SHL PUSH1 0x20 DUP3 ADD MSTORE PUSH1 0x44 SWAP1 PUSH2 0xE94 SWAP1 DUP3 PUSH2 0x5712 JUMP JUMPDEST POP PUSH1 0x40 DUP1 MLOAD DUP1 DUP3 ADD SWAP1 SWAP2 MSTORE PUSH1 0x3 DUP2 MSTORE PUSH3 0x131593 PUSH1 0xEA SHL PUSH1 0x20 DUP3 ADD MSTORE PUSH1 0x45 SWAP1 PUSH2 0xEBC SWAP1 DUP3 PUSH2 0x5712 JUMP JUMPDEST POP PUSH1 0x80 DUP4 ADD CALLDATALOAD PUSH1 0x47 SSTORE PUSH1 0x48 DUP1 SLOAD PUSH1 0xFF PUSH1 0xA8 SHL NOT AND SWAP1 SSTORE PUSH2 0xEFF PUSH2 0xEDF DUP5 DUP1 PUSH2 0x5676 JUMP JUMPDEST PUSH2 0xEEC PUSH1 0x20 DUP8 ADD DUP8 PUSH2 0x5676 JUMP JUMPDEST DUP6 PUSH2 0xEFA PUSH1 0x60 DUP11 ADD DUP11 PUSH2 0x5676 JUMP JUMPDEST PUSH2 0x34F9 JUMP JUMPDEST POP DUP1 ISZERO PUSH2 0xF13 JUMPI PUSH1 0x50 DUP1 SLOAD PUSH3 0xFF0000 NOT AND SWAP1 SSTORE JUMPDEST POP POP JUMP JUMPDEST PUSH1 0x0 PUSH2 0xF2A PUSH4 0x28AB439 PUSH1 0xE3 SHL CALLER PUSH2 0xC35 JUMP JUMPDEST PUSH1 0x0 DUP1 JUMPDEST DUP4 DUP2 LT ISZERO PUSH2 0xF75 JUMPI PUSH2 0xF57 DUP6 DUP6 DUP4 DUP2 DUP2 LT PUSH2 0xF4B JUMPI PUSH2 0xF4B PUSH2 0x57D1 JUMP JUMPDEST SWAP1 POP PUSH1 0x20 MUL ADD CALLDATALOAD PUSH2 0x3682 JUMP JUMPDEST PUSH2 0xF61 SWAP1 DUP4 PUSH2 0x57FD JUMP JUMPDEST SWAP2 POP DUP1 PUSH2 0xF6D DUP2 PUSH2 0x5810 JUMP JUMPDEST SWAP2 POP POP PUSH2 0xF2E JUMP JUMPDEST POP PUSH1 0x40 MLOAD DUP2 DUP2 MSTORE CALLER SWAP1 PUSH32 0xF816CE3B3A52BD5C96A6AC9D4404D206F4E9D482FFA303AFBF0DBEEA2957F59A SWAP1 PUSH1 0x20 ADD JUMPDEST PUSH1 0x40 MLOAD DUP1 SWAP2 SUB SWAP1 LOG2 SWAP4 SWAP3 POP POP POP JUMP JUMPDEST PUSH1 0x0 PUSH2 0xFC8 PUSH4 0xBFEE647 PUSH1 0xE1 SHL DUP3 DUP1 DUP1 PUSH2 0x328F JUMP JUMPDEST PUSH1 0x47 DUP3 SWAP1 SSTORE PUSH1 0x40 MLOAD DUP3 DUP2 MSTORE CALLER SWAP1 PUSH32 0xB7902185AC0A79231C8BE85F0EE0D94806D95D785D216824A078279F5D5BFBAE SWAP1 PUSH1 0x20 ADD PUSH1 0x40 MLOAD DUP1 SWAP2 SUB SWAP1 LOG2 POP PUSH1 0x1 SWAP2 SWAP1 POP JUMP JUMPDEST PUSH1 0x0 PUSH2 0x1020 PUSH4 0x38D251D PUSH1 0xE3 SHL DUP3 PUSH1 0x1 DUP2 PUSH2 0x328F JUMP JUMPDEST PUSH1 0x0 DUP1 JUMPDEST DUP4 DUP2 LT ISZERO PUSH2 0x112E JUMPI PUSH2 0x105F DUP6 DUP6 DUP4 DUP2 DUP2 LT PUSH2 0x1041 JUMPI PUSH2 0x1041 PUSH2 0x57D1 JUMP JUMPDEST PUSH2 0x1057 SWAP3 PUSH1 0x20 PUSH1 0x60 SWAP1 SWAP3 MUL ADD SWAP1 DUP2 ADD SWAP2 POP PUSH2 0x4FC0 JUMP JUMPDEST PUSH1 0x4C SWAP1 PUSH2 0x3769 JUMP JUMPDEST ISZERO PUSH2 0x107C JUMPI PUSH1 0x40 MLOAD PUSH3 0x461BCD PUSH1 0xE5 SHL DUP2 MSTORE PUSH1 0x4 ADD PUSH2 0xC99 SWAP1 PUSH2 0x5829 JUMP JUMPDEST DUP5 DUP5 DUP3 DUP2 DUP2 LT PUSH2 0x108E JUMPI PUSH2 0x108E PUSH2 0x57D1 JUMP JUMPDEST SWAP1 POP PUSH1 0x60 MUL ADD PUSH1 0x40 ADD CALLDATALOAD DUP3 PUSH2 0x10A3 SWAP2 SWAP1 PUSH2 0x57FD JUMP JUMPDEST SWAP2 POP PUSH2 0x111B DUP6 DUP6 DUP4 DUP2 DUP2 LT PUSH2 0x10BA JUMPI PUSH2 0x10BA PUSH2 0x57D1 JUMP JUMPDEST PUSH2 0x10D0 SWAP3 PUSH1 0x20 PUSH1 0x60 SWAP1 SWAP3 MUL ADD SWAP1 DUP2 ADD SWAP2 POP PUSH2 0x4FC0 JUMP JUMPDEST DUP7 DUP7 DUP5 DUP2 DUP2 LT PUSH2 0x10E2 JUMPI PUSH2 0x10E2 PUSH2 0x57D1 JUMP JUMPDEST SWAP1 POP PUSH1 0x60 MUL ADD PUSH1 0x20 ADD PUSH1 0x20 DUP2 ADD SWAP1 PUSH2 0x10FA SWAP2 SWAP1 PUSH2 0x4FC0 JUMP JUMPDEST DUP8 DUP8 DUP6 DUP2 DUP2 LT PUSH2 0x110C JUMPI PUSH2 0x110C PUSH2 0x57D1 JUMP JUMPDEST SWAP1 POP PUSH1 0x60 MUL ADD PUSH1 0x40 ADD CALLDATALOAD PUSH2 0x378B JUMP JUMPDEST POP DUP1 PUSH2 0x1126 DUP2 PUSH2 0x5810 JUMP JUMPDEST SWAP2 POP POP PUSH2 0x1024 JUMP JUMPDEST POP PUSH1 0x40 MLOAD DUP2 DUP2 MSTORE CALLER SWAP1 PUSH32 0x208FDF04989D654CC491D69BE8EB64992C7B7407E34A6AC73E7C0361D0591EFF SWAP1 PUSH1 0x20 ADD JUMPDEST PUSH1 0x40 MLOAD DUP1 SWAP2 SUB SWAP1 LOG2 POP PUSH1 0x1 SWAP4 SWAP3 POP POP POP JUMP JUMPDEST PUSH1 0x0 PUSH2 0x1185 PUSH4 0x23B872DD PUSH1 0xE0 SHL DUP6 PUSH1 0x1 DUP1 PUSH2 0x328F JUMP JUMPDEST PUSH2 0x1190 DUP5 DUP5 DUP5 PUSH2 0x378B JUMP JUMPDEST SWAP1 POP JUMPDEST SWAP4 SWAP3 POP POP POP JUMP JUMPDEST PUSH1 0x0 PUSH2 0x11A9 PUSH1 0x50 SLOAD PUSH2 0xFFFF AND SWAP1 JUMP JUMPDEST SWAP1 POP SWAP1 JUMP JUMPDEST PUSH1 0x0 PUSH2 0x11C1 PUSH4 0x39509351 PUSH1 0xE0 SHL CALLER PUSH2 0xC35 JUMP JUMPDEST CALLER PUSH1 0x0 DUP4 PUSH2 0x11CF DUP4 DUP8 PUSH2 0x3834 JUMP JUMPDEST PUSH2 0x11D9 SWAP2 SWAP1 PUSH2 0x57FD JUMP JUMPDEST SWAP1 POP PUSH2 0x11E6 DUP3 DUP7 DUP4 PUSH2 0x3394 JUMP JUMPDEST DUP5 PUSH1 0x1 PUSH1 0x1 PUSH1 0xA0 SHL SUB AND DUP3 PUSH1 0x1 PUSH1 0x1 PUSH1 0xA0 SHL SUB AND PUSH32 0x865EA570C20F0FE0AE579EC567FA79D57A683390554593DC070EA0DCD5F466FB DUP7 PUSH1 0x40 MLOAD PUSH2 0x122B SWAP2 DUP2 MSTORE PUSH1 0x20 ADD SWAP1 JUMP JUMPDEST PUSH1 0x40 MLOAD DUP1 SWAP2 SUB SWAP1 LOG3 SWAP5 SWAP4 POP POP POP POP JUMP JUMPDEST PUSH1 0x0 PUSH2 0x1251 PUSH4 0x40C10F19 PUSH1 0xE0 SHL DUP5 PUSH1 0x1 DUP1 PUSH2 0x328F JUMP JUMPDEST PUSH2 0x1193 DUP4 DUP4 PUSH2 0x385F JUMP JUMPDEST PUSH1 0x0 PUSH1 0x1 PUSH1 0x1 PUSH1 0xA0 SHL SUB PUSH32 0x0 AND ADDRESS SUB PUSH2 0x12A5 JUMPI PUSH1 0x40 MLOAD PUSH3 0x461BCD PUSH1 0xE5 SHL DUP2 MSTORE PUSH1 0x4 ADD PUSH2 0xC99 SWAP1 PUSH2 0x5619 JUMP JUMPDEST PUSH32 0x0 PUSH1 0x1 PUSH1 0x1 PUSH1 0xA0 SHL SUB AND PUSH2 0x12D7 PUSH2 0x349A JUMP JUMPDEST PUSH1 0x1 PUSH1 0x1 PUSH1 0xA0 SHL SUB AND EQ PUSH2 0x12FD JUMPI PUSH1 0x40 MLOAD PUSH3 0x461BCD PUSH1 0xE5 SHL DUP2 MSTORE PUSH1 0x4 ADD PUSH2 0xC99 SWAP1 PUSH2 0x5648 JUMP JUMPDEST PUSH1 0x0 PUSH2 0x130C PUSH1 0x50 SLOAD PUSH2 0xFFFF AND SWAP1 JUMP JUMPDEST PUSH2 0xFFFF AND GT PUSH2 0x135D JUMPI PUSH1 0x40 MLOAD PUSH3 0x461BCD PUSH1 0xE5 SHL DUP2 MSTORE PUSH1 0x20 PUSH1 0x4 DUP3 ADD MSTORE PUSH1 0x18 PUSH1 0x24 DUP3 ADD MSTORE PUSH32 0x436F6E7472616374204E6F7420496E697469616C697A65640000000000000000 PUSH1 0x44 DUP3 ADD MSTORE PUSH1 0x64 ADD PUSH2 0xC99 JUMP JUMPDEST PUSH2 0x136D PUSH4 0x225BF2F9 PUSH1 0xE1 SHL PUSH2 0x391F JUMP JUMPDEST PUSH2 0x13B1 JUMPI PUSH1 0x40 MLOAD PUSH3 0x461BCD PUSH1 0xE5 SHL DUP2 MSTORE PUSH1 0x20 PUSH1 0x4 DUP3 ADD MSTORE PUSH1 0x15 PUSH1 0x24 DUP3 ADD MSTORE PUSH21 0x29B2BA29B0B332A6B7B232902337B93134B23232B7 PUSH1 0x59 SHL PUSH1 0x44 DUP3 ADD MSTORE PUSH1 0x64 ADD PUSH2 0xC99 JUMP JUMPDEST PUSH1 0x3 DUP1 SLOAD PUSH1 0xFF PUSH1 0xA0 SHL NOT AND PUSH1 0x1 PUSH1 0xA0 SHL DUP5 ISZERO ISZERO MUL OR SWAP1 SSTORE PUSH1 0x2 SLOAD ADDRESS CALLER PUSH1 0x1 PUSH1 0x1 PUSH1 0xA0 SHL SUB AND PUSH32 0xDD452A31D2E164A1EA436C084842C27D24AE2548A575A869F71B05A4ED16243F DUP6 PUSH1 0x40 MLOAD PUSH2 0x1409 SWAP2 ISZERO ISZERO DUP2 MSTORE PUSH1 0x20 ADD SWAP1 JUMP JUMPDEST PUSH1 0x40 MLOAD DUP1 SWAP2 SUB SWAP1 LOG4 POP DUP1 JUMPDEST SWAP2 SWAP1 POP JUMP JUMPDEST PUSH1 0x0 PUSH2 0x142E PUSH4 0x11A98D35 PUSH1 0xE2 SHL DUP3 DUP1 DUP1 PUSH2 0x328F JUMP JUMPDEST PUSH2 0x1193 DUP4 DUP4 PUSH2 0x3A88 JUMP JUMPDEST PUSH1 0x0 PUSH1 0x1 PUSH1 0x1 PUSH1 0xA0 SHL SUB PUSH32 0x0 AND ADDRESS SUB PUSH2 0x1482 JUMPI PUSH1 0x40 MLOAD PUSH3 0x461BCD PUSH1 0xE5 SHL DUP2 MSTORE PUSH1 0x4 ADD PUSH2 0xC99 SWAP1 PUSH2 0x5619 JUMP JUMPDEST PUSH32 0x0 PUSH1 0x1 PUSH1 0x1 PUSH1 0xA0 SHL SUB AND PUSH2 0x14B4 PUSH2 0x349A JUMP JUMPDEST PUSH1 0x1 PUSH1 0x1 PUSH1 0xA0 SHL SUB AND EQ PUSH2 0x14DA JUMPI PUSH1 0x40 MLOAD PUSH3 0x461BCD PUSH1 0xE5 SHL DUP2 MSTORE PUSH1 0x4 ADD PUSH2 0xC99 SWAP1 PUSH2 0x5648 JUMP JUMPDEST PUSH1 0x3 SLOAD PUSH1 0x1 PUSH1 0xA0 SHL SWAP1 DIV PUSH1 0xFF AND ISZERO PUSH2 0x1504 JUMPI PUSH1 0x40 MLOAD PUSH3 0x461BCD PUSH1 0xE5 SHL DUP2 MSTORE PUSH1 0x4 ADD PUSH2 0xC99 SWAP1 PUSH2 0x5860 JUMP JUMPDEST PUSH2 0x1514 PUSH4 0x1239AF87 PUSH1 0xE2 SHL PUSH2 0x391F JUMP JUMPDEST PUSH2 0x1560 JUMPI PUSH1 0x40 MLOAD PUSH3 0x461BCD PUSH1 0xE5 SHL DUP2 MSTORE PUSH1 0x20 PUSH1 0x4 DUP3 ADD MSTORE PUSH1 0x1A PUSH1 0x24 DUP3 ADD MSTORE PUSH32 0x5365745570677261646553746174757320466F7262696464656E000000000000 PUSH1 0x44 DUP3 ADD MSTORE PUSH1 0x64 ADD PUSH2 0xC99 JUMP JUMPDEST PUSH2 0x1568 PUSH2 0x3B64 JUMP JUMPDEST PUSH2 0x15B4 JUMPI PUSH1 0x40 MLOAD PUSH3 0x461BCD PUSH1 0xE5 SHL DUP2 MSTORE PUSH1 0x20 PUSH1 0x4 DUP3 ADD MSTORE PUSH1 0x17 PUSH1 0x24 DUP3 ADD MSTORE PUSH32 0x5265616C6D205570677261646520466F7262696464656E000000000000000000 PUSH1 0x44 DUP3 ADD MSTORE PUSH1 0x64 ADD PUSH2 0xC99 JUMP JUMPDEST PUSH1 0x3 DUP1 SLOAD PUSH1 0xFF PUSH1 0xA8 SHL NOT AND PUSH1 0x1 PUSH1 0xA8 SHL DUP5 ISZERO ISZERO MUL OR SWAP1 SSTORE PUSH1 0x2 SLOAD ADDRESS CALLER PUSH1 0x1 PUSH1 0x1 PUSH1 0xA0 SHL SUB AND PUSH32 0xE9F97AD94C2BA252DCFC525E004F608AC5CB886955D8FC87D9E0EE070A698C56 DUP6 PUSH1 0x40 MLOAD PUSH2 0x1409 SWAP2 ISZERO ISZERO DUP2 MSTORE PUSH1 0x20 ADD SWAP1 JUMP JUMPDEST PUSH1 0x1 PUSH1 0x1 PUSH1 0xA0 SHL SUB DUP2 AND PUSH1 0x0 SWAP1 DUP2 MSTORE PUSH1 0x49 PUSH1 0x20 MSTORE PUSH1 0x40 DUP2 KECCAK256 DUP1 SLOAD PUSH1 0x1 SWAP1 SWAP2 ADD SLOAD PUSH2 0xB8E SWAP2 SWAP1 PUSH2 0x57FD JUMP JUMPDEST PUSH1 0x0 ADDRESS PUSH1 0x1 PUSH1 0x1 PUSH1 0xA0 SHL SUB PUSH32 0x0 AND EQ PUSH2 0x16B0 JUMPI PUSH1 0x40 MLOAD PUSH3 0x461BCD PUSH1 0xE5 SHL DUP2 MSTORE PUSH1 0x20 PUSH1 0x4 DUP3 ADD MSTORE PUSH1 0x1D PUSH1 0x24 DUP3 ADD MSTORE PUSH32 0x496C6C6567616C20436F6E74726163742044656C656761746563616C6C000000 PUSH1 0x44 DUP3 ADD MSTORE PUSH1 0x64 ADD PUSH2 0xC99 JUMP JUMPDEST POP PUSH1 0x0 DUP1 MLOAD PUSH1 0x20 PUSH2 0x5EF4 DUP4 CODECOPY DUP2 MLOAD SWAP2 MSTORE SWAP1 JUMP JUMPDEST PUSH2 0x16D7 PUSH4 0x57B001F9 PUSH1 0xE0 SHL PUSH1 0x0 DUP1 DUP1 PUSH2 0x328F JUMP JUMPDEST PUSH1 0x1 PUSH1 0x1 PUSH1 0xA0 SHL SUB DUP2 AND PUSH2 0x16FD JUMPI PUSH1 0x40 MLOAD PUSH3 0x461BCD PUSH1 0xE5 SHL DUP2 MSTORE PUSH1 0x4 ADD PUSH2 0xC99 SWAP1 PUSH2 0x5897 JUMP JUMPDEST PUSH2 0x1708 PUSH1 0x4C DUP3 PUSH2 0x3769 JUMP JUMPDEST PUSH2 0x1748 JUMPI PUSH1 0x40 MLOAD PUSH3 0x461BCD PUSH1 0xE5 SHL DUP2 MSTORE PUSH1 0x20 PUSH1 0x4 DUP3 ADD MSTORE PUSH1 0x11 PUSH1 0x24 DUP3 ADD MSTORE PUSH17 0x1058D8DBDD5B9D08139BDD08119BDD5B99 PUSH1 0x7A SHL PUSH1 0x44 DUP3 ADD MSTORE PUSH1 0x64 ADD PUSH2 0xC99 JUMP JUMPDEST PUSH2 0x1753 PUSH1 0x4C DUP3 PUSH2 0x3CA2 JUMP JUMPDEST POP PUSH1 0x40 MLOAD PUSH1 0x1 PUSH1 0x1 PUSH1 0xA0 SHL SUB DUP3 AND SWAP1 CALLER SWAP1 PUSH32 0x3D072963433794EB417A69355DF67D08BBD73D5076EF653D6863861161D60AF3 SWAP1 PUSH1 0x0 SWAP1 LOG3 POP JUMP JUMPDEST PUSH1 0x0 PUSH2 0x11A9 PUSH2 0x349A JUMP JUMPDEST PUSH2 0x17AB PUSH4 0x595C6A67 PUSH1 0xE0 SHL PUSH1 0x0 DUP1 DUP1 PUSH2 0x328F JUMP JUMPDEST PUSH1 0x48 DUP1 SLOAD PUSH1 0xFF PUSH1 0xA0 SHL NOT AND PUSH1 0x1 PUSH1 0xA0 SHL OR SWAP1 SSTORE PUSH2 0x17C5 CALLER SWAP1 JUMP JUMPDEST PUSH1 0x1 PUSH1 0x1 PUSH1 0xA0 SHL SUB AND PUSH32 0xF1005168AEA1429FE9559D51EF6CAA33E6426890864E2E6E41E5D54BAA7BE79F PUSH1 0x40 MLOAD PUSH1 0x40 MLOAD DUP1 SWAP2 SUB SWAP1 LOG2 JUMP JUMPDEST PUSH1 0x0 PUSH1 0x1 PUSH1 0x1 PUSH1 0xA0 SHL SUB DUP3 AND ISZERO DUP1 ISZERO SWAP1 PUSH2 0xB8E JUMPI POP PUSH2 0xB8E PUSH1 0x4C DUP4 PUSH2 0x3769 JUMP JUMPDEST PUSH1 0x0 PUSH2 0x1836 PUSH4 0x35C1CA49 PUSH1 0xE1 SHL PUSH2 0xC35 PUSH1 0x20 DUP6 ADD DUP6 PUSH2 0x4FC0 JUMP JUMPDEST PUSH2 0xB8E DUP3 PUSH2 0x3CB7 JUMP JUMPDEST PUSH1 0x1 PUSH1 0x1 PUSH1 0xA0 SHL SUB DUP2 AND PUSH1 0x0 SWAP1 DUP2 MSTORE PUSH1 0x49 PUSH1 0x20 MSTORE PUSH1 0x40 DUP2 KECCAK256 PUSH1 0x2 ADD SLOAD PUSH2 0xB8E JUMP JUMPDEST PUSH1 0x60 PUSH1 0x1 PUSH1 0x1 PUSH1 0xA0 SHL SUB PUSH32 0x0 AND ADDRESS SUB PUSH2 0x18AA JUMPI PUSH1 0x40 MLOAD PUSH3 0x461BCD PUSH1 0xE5 SHL DUP2 MSTORE PUSH1 0x4 ADD PUSH2 0xC99 SWAP1 PUSH2 0x5619 JUMP JUMPDEST PUSH32 0x0 PUSH1 0x1 PUSH1 0x1 PUSH1 0xA0 SHL SUB AND PUSH2 0x18DC PUSH2 0x349A JUMP JUMPDEST PUSH1 0x1 PUSH1 0x1 PUSH1 0xA0 SHL SUB AND EQ PUSH2 0x1902 JUMPI PUSH1 0x40 MLOAD PUSH3 0x461BCD PUSH1 0xE5 SHL DUP2 MSTORE PUSH1 0x4 ADD PUSH2 0xC99 SWAP1 PUSH2 0x5648 JUMP JUMPDEST PUSH1 0x3 SLOAD PUSH1 0x1 PUSH1 0xA0 SHL SWAP1 DIV PUSH1 0xFF AND ISZERO PUSH2 0x192C JUMPI PUSH1 0x40 MLOAD PUSH3 0x461BCD PUSH1 0xE5 SHL DUP2 MSTORE PUSH1 0x4 ADD PUSH2 0xC99 SWAP1 PUSH2 0x5860 JUMP JUMPDEST PUSH1 0x3 SLOAD PUSH1 0x1 PUSH1 0xA8 SHL SWAP1 DIV PUSH1 0xFF AND PUSH2 0x197D JUMPI PUSH1 0x40 MLOAD PUSH3 0x461BCD PUSH1 0xE5 SHL DUP2 MSTORE PUSH1 0x20 PUSH1 0x4 DUP3 ADD MSTORE PUSH1 0x15 PUSH1 0x24 DUP3 ADD MSTORE PUSH21 0x155C19DC9859194810D85B1B0814995A9958DD1959 PUSH1 0x5A SHL PUSH1 0x44 DUP3 ADD MSTORE PUSH1 0x64 ADD PUSH2 0xC99 JUMP JUMPDEST PUSH2 0x1986 DUP5 PUSH2 0x3DAD JUMP JUMPDEST PUSH2 0x1190 DUP5 DUP5 DUP5 PUSH2 0x3E74 JUMP JUMPDEST PUSH1 0x3 SLOAD PUSH1 0x1 PUSH1 0xA0 SHL SWAP1 DIV PUSH1 0xFF AND ISZERO PUSH2 0x19BB JUMPI PUSH1 0x40 MLOAD PUSH3 0x461BCD PUSH1 0xE5 SHL DUP2 MSTORE PUSH1 0x4 ADD PUSH2 0xC99 SWAP1 PUSH2 0x5860 JUMP JUMPDEST PUSH2 0x19CB PUSH4 0x756AF45F PUSH1 0xE0 SHL PUSH2 0x391F JUMP JUMPDEST PUSH2 0x1A17 JUMPI PUSH1 0x40 MLOAD PUSH3 0x461BCD PUSH1 0xE5 SHL DUP2 MSTORE PUSH1 0x20 PUSH1 0x4 DUP3 ADD MSTORE PUSH1 0x1A PUSH1 0x24 DUP3 ADD MSTORE PUSH32 0x57697468647261772042616C616E636520466F7262696464656E000000000000 PUSH1 0x44 DUP3 ADD MSTORE PUSH1 0x64 ADD PUSH2 0xC99 JUMP JUMPDEST PUSH1 0x40 MLOAD PUSH1 0x1 PUSH1 0x1 PUSH1 0xA0 SHL SUB DUP3 AND SWAP1 SELFBALANCE DUP1 ISZERO PUSH2 0x8FC MUL SWAP2 PUSH1 0x0 DUP2 DUP2 DUP2 DUP6 DUP9 DUP9 CALL SWAP4 POP POP POP POP ISZERO DUP1 ISZERO PUSH2 0xF13 JUMPI RETURNDATASIZE PUSH1 0x0 DUP1 RETURNDATACOPY RETURNDATASIZE PUSH1 0x0 REVERT JUMPDEST PUSH2 0x1A60 PUSH4 0x76A67A51 PUSH1 0xE0 SHL PUSH1 0x0 DUP1 DUP1 PUSH2 0x328F JUMP JUMPDEST PUSH1 0x1 PUSH1 0x1 PUSH1 0xA0 SHL SUB DUP2 AND PUSH2 0x1A86 JUMPI PUSH1 0x40 MLOAD PUSH3 0x461BCD PUSH1 0xE5 SHL DUP2 MSTORE PUSH1 0x4 ADD PUSH2 0xC99 SWAP1 PUSH2 0x5897 JUMP JUMPDEST PUSH2 0x1A91 PUSH1 0x4C DUP3 PUSH2 0x3769 JUMP JUMPDEST ISZERO PUSH2 0x1AD7 JUMPI PUSH1 0x40 MLOAD PUSH3 0x461BCD PUSH1 0xE5 SHL DUP2 MSTORE PUSH1 0x20 PUSH1 0x4 DUP3 ADD MSTORE PUSH1 0x16 PUSH1 0x24 DUP3 ADD MSTORE PUSH22 0x1058D8DBDD5B9D08105B1C9958591E4814185D5CD959 PUSH1 0x52 SHL PUSH1 0x44 DUP3 ADD MSTORE PUSH1 0x64 ADD PUSH2 0xC99 JUMP JUMPDEST PUSH2 0x1AE2 PUSH1 0x4C DUP3 PUSH2 0x40C5 JUMP JUMPDEST POP PUSH1 0x40 MLOAD PUSH1 0x1 PUSH1 0x1 PUSH1 0xA0 SHL SUB DUP3 AND SWAP1 CALLER SWAP1 PUSH32 0x3DD4F37CA5EAF6C357698A52C806820426D7C9A26ADB0991C3BEBB09CF23352A SWAP1 PUSH1 0x0 SWAP1 LOG3 POP JUMP JUMPDEST PUSH1 0x60 PUSH2 0x11A9 PUSH1 0x4E PUSH2 0x40DA JUMP JUMPDEST PUSH2 0x1B3C PUSH4 0x7D35F355 PUSH1 0xE0 SHL PUSH1 0x0 DUP1 DUP1 PUSH2 0x328F JUMP JUMPDEST PUSH1 0x0 JUMPDEST DUP2 DUP2 LT ISZERO PUSH2 0x1BB4 JUMPI PUSH2 0x1BA1 DUP4 DUP4 DUP4 DUP2 DUP2 LT PUSH2 0x1B5C JUMPI PUSH2 0x1B5C PUSH2 0x57D1 JUMP JUMPDEST PUSH2 0x1B72 SWAP3 PUSH1 0x20 PUSH1 0x40 SWAP1 SWAP3 MUL ADD SWAP1 DUP2 ADD SWAP2 POP PUSH2 0x4FC0 JUMP JUMPDEST DUP5 DUP5 DUP5 DUP2 DUP2 LT PUSH2 0x1B84 JUMPI PUSH2 0x1B84 PUSH2 0x57D1 JUMP JUMPDEST SWAP1 POP PUSH1 0x40 MUL ADD PUSH1 0x20 ADD PUSH1 0x20 DUP2 ADD SWAP1 PUSH2 0x1B9C SWAP2 SWAP1 PUSH2 0x5183 JUMP JUMPDEST PUSH2 0x3A88 JUMP JUMPDEST POP DUP1 PUSH2 0x1BAC DUP2 PUSH2 0x5810 JUMP JUMPDEST SWAP2 POP POP PUSH2 0x1B3F JUMP JUMPDEST POP POP POP JUMP JUMPDEST PUSH1 0x0 PUSH2 0x11A9 ADDRESS PUSH2 0x40E7 JUMP JUMPDEST PUSH2 0x1BD8 PUSH4 0x8A2DDD03 PUSH1 0xE0 SHL PUSH1 0x0 DUP1 DUP1 PUSH2 0x328F JUMP JUMPDEST PUSH1 0x48 DUP1 SLOAD PUSH1 0xFF PUSH1 0xA0 SHL NOT AND SWAP1 SSTORE PUSH1 0x40 MLOAD CALLER SWAP1 PUSH32 0x3C1FB1FD79EE84E55A8FE78554C432EF36EA033A9245CE4B650BD824A12554D3 SWAP1 PUSH1 0x0 SWAP1 LOG2 JUMP JUMPDEST PUSH1 0x1 PUSH1 0x1 PUSH1 0xA0 SHL SUB DUP2 DUP2 AND PUSH1 0x0 SWAP1 DUP2 MSTORE PUSH1 0x4B PUSH1 0x20 SWAP1 DUP2 MSTORE PUSH1 0x40 DUP1 DUP4 KECCAK256 DUP7 DUP5 MSTORE SWAP1 SWAP2 MSTORE DUP2 KECCAK256 DUP1 SLOAD PUSH1 0x1 DUP3 ADD SLOAD PUSH1 0x2 DUP4 ADD SLOAD SWAP4 SWAP5 DUP6 SWAP5 DUP6 SWAP5 DUP6 SWAP5 DUP6 SWAP5 SWAP2 SWAP4 SWAP1 SWAP3 PUSH1 0x1 PUSH1 0x1 PUSH1 0x80 SHL SUB DUP1 DUP5 AND SWAP4 PUSH1 0x1 PUSH1 0x80 SHL SWAP1 DIV AND SWAP2 DUP2 AND SWAP1 PUSH1 0x1 PUSH1 0xA0 SHL SWAP1 DIV PUSH1 0xFF AND PUSH1 0x3 DUP2 GT ISZERO PUSH2 0x1C83 JUMPI PUSH2 0x1C83 PUSH2 0x58CE JUMP JUMPDEST SWAP4 SWAP13 SWAP3 SWAP12 POP SWAP1 SWAP10 POP SWAP8 POP SWAP1 SWAP6 POP SWAP4 POP POP POP POP JUMP JUMPDEST PUSH1 0x60 PUSH1 0x45 DUP1 SLOAD PUSH2 0xBA3 SWAP1 PUSH2 0x55E5 JUMP JUMPDEST PUSH1 0x60 PUSH2 0x1CBD PUSH4 0x9A7E1873 PUSH1 0xE0 SHL PUSH1 0x0 PUSH1 0x1 DUP2 PUSH2 0x328F JUMP JUMPDEST PUSH1 0x0 DUP1 DUP4 PUSH1 0x1 PUSH1 0x1 PUSH1 0x40 SHL SUB DUP2 GT ISZERO PUSH2 0x1CD8 JUMPI PUSH2 0x1CD8 PUSH2 0x51EB JUMP JUMPDEST PUSH1 0x40 MLOAD SWAP1 DUP1 DUP3 MSTORE DUP1 PUSH1 0x20 MUL PUSH1 0x20 ADD DUP3 ADD PUSH1 0x40 MSTORE DUP1 ISZERO PUSH2 0x1D01 JUMPI DUP2 PUSH1 0x20 ADD PUSH1 0x20 DUP3 MUL DUP1 CALLDATASIZE DUP4 CALLDATACOPY ADD SWAP1 POP JUMPDEST POP SWAP1 POP PUSH1 0x0 JUMPDEST DUP5 DUP2 LT ISZERO PUSH2 0x1DD0 JUMPI PUSH2 0x1D3A DUP7 DUP7 DUP4 DUP2 DUP2 LT PUSH2 0x1D24 JUMPI PUSH2 0x1D24 PUSH2 0x57D1 JUMP JUMPDEST PUSH2 0x1057 SWAP3 PUSH1 0x20 PUSH1 0x80 SWAP1 SWAP3 MUL ADD SWAP1 DUP2 ADD SWAP2 POP PUSH2 0x4FC0 JUMP JUMPDEST ISZERO PUSH2 0x1D57 JUMPI PUSH1 0x40 MLOAD PUSH3 0x461BCD PUSH1 0xE5 SHL DUP2 MSTORE PUSH1 0x4 ADD PUSH2 0xC99 SWAP1 PUSH2 0x5829 JUMP JUMPDEST PUSH2 0x1D77 DUP7 DUP7 DUP4 DUP2 DUP2 LT PUSH2 0x1D6C JUMPI PUSH2 0x1D6C PUSH2 0x57D1 JUMP JUMPDEST SWAP1 POP PUSH1 0x80 MUL ADD PUSH2 0x3CB7 JUMP JUMPDEST DUP3 DUP3 DUP2 MLOAD DUP2 LT PUSH2 0x1D89 JUMPI PUSH2 0x1D89 PUSH2 0x57D1 JUMP JUMPDEST PUSH1 0x20 MUL PUSH1 0x20 ADD ADD DUP2 DUP2 MSTORE POP POP DUP6 DUP6 DUP3 DUP2 DUP2 LT PUSH2 0x1DA7 JUMPI PUSH2 0x1DA7 PUSH2 0x57D1 JUMP JUMPDEST SWAP1 POP PUSH1 0x80 MUL ADD PUSH1 0x60 ADD CALLDATALOAD DUP4 PUSH2 0x1DBC SWAP2 SWAP1 PUSH2 0x57FD JUMP JUMPDEST SWAP3 POP DUP1 PUSH2 0x1DC8 DUP2 PUSH2 0x5810 JUMP JUMPDEST SWAP2 POP POP PUSH2 0x1D07 JUMP JUMPDEST POP PUSH1 0x40 MLOAD DUP3 DUP2 MSTORE CALLER SWAP1 PUSH32 0x8E04D4DF873AA900CBE3C4B51AF80C003E2A72B8DFD36A6A2E54FDADBF4D1127 SWAP1 PUSH1 0x20 ADD PUSH1 0x40 MLOAD DUP1 SWAP2 SUB SWAP1 LOG2 SWAP5 SWAP4 POP POP POP POP JUMP JUMPDEST PUSH1 0x0 PUSH2 0x1E24 PUSH4 0x4DAF9AB7 PUSH1 0xE1 SHL DUP3 PUSH1 0x1 DUP2 PUSH2 0x328F JUMP JUMPDEST PUSH1 0x0 DUP1 JUMPDEST DUP4 DUP2 LT ISZERO PUSH2 0x1ECF JUMPI PUSH2 0x1E68 DUP6 DUP6 DUP4 DUP2 DUP2 LT PUSH2 0x1E45 JUMPI PUSH2 0x1E45 PUSH2 0x57D1 JUMP JUMPDEST SWAP1 POP PUSH1 0x20 MUL DUP2 ADD SWAP1 PUSH2 0x1E57 SWAP2 SWAP1 PUSH2 0x58E4 JUMP JUMPDEST PUSH2 0x1057 SWAP1 PUSH1 0x40 DUP2 ADD SWAP1 PUSH1 0x20 ADD PUSH2 0x4FC0 JUMP JUMPDEST ISZERO PUSH2 0x1E85 JUMPI PUSH1 0x40 MLOAD PUSH3 0x461BCD PUSH1 0xE5 SHL DUP2 MSTORE PUSH1 0x4 ADD PUSH2 0xC99 SWAP1 PUSH2 0x5829 JUMP JUMPDEST PUSH2 0x1EB1 DUP6 DUP6 DUP4 DUP2 DUP2 LT PUSH2 0x1E9A JUMPI PUSH2 0x1E9A PUSH2 0x57D1 JUMP JUMPDEST SWAP1 POP PUSH1 0x20 MUL DUP2 ADD SWAP1 PUSH2 0x1EAC SWAP2 SWAP1 PUSH2 0x58E4 JUMP JUMPDEST PUSH2 0x4126 JUMP JUMPDEST PUSH2 0x1EBB SWAP1 DUP4 PUSH2 0x57FD JUMP JUMPDEST SWAP2 POP DUP1 PUSH2 0x1EC7 DUP2 PUSH2 0x5810 JUMP JUMPDEST SWAP2 POP POP PUSH2 0x1E28 JUMP JUMPDEST POP PUSH1 0x40 MLOAD DUP2 DUP2 MSTORE CALLER SWAP1 PUSH32 0x358CA32FB65DBE46A9AEC67304B927CF0C3EAF896217F853F9A93FEF2E920723 SWAP1 PUSH1 0x20 ADD PUSH2 0xFA4 JUMP JUMPDEST PUSH1 0x0 PUSH2 0x1F18 PUSH4 0x2770A7EB PUSH1 0xE2 SHL DUP5 PUSH1 0x1 DUP1 PUSH2 0x328F JUMP JUMPDEST PUSH1 0x1 PUSH1 0x1 PUSH1 0xA0 SHL SUB DUP4 AND PUSH2 0x1F3E JUMPI PUSH1 0x40 MLOAD PUSH3 0x461BCD PUSH1 0xE5 SHL DUP2 MSTORE PUSH1 0x4 ADD PUSH2 0xC99 SWAP1 PUSH2 0x5897 JUMP JUMPDEST PUSH1 0x1 PUSH1 0x1 PUSH1 0xA0 SHL SUB DUP4 AND PUSH1 0x0 SWAP1 DUP2 MSTORE PUSH1 0x49 PUSH1 0x20 MSTORE PUSH1 0x40 SWAP1 KECCAK256 SLOAD DUP3 DUP2 LT ISZERO PUSH2 0x1FA7 JUMPI PUSH1 0x40 MLOAD PUSH3 0x461BCD PUSH1 0xE5 SHL DUP2 MSTORE PUSH1 0x20 PUSH1 0x4 DUP3 ADD MSTORE PUSH1 0x1C PUSH1 0x24 DUP3 ADD MSTORE PUSH32 0x496E73756666696369656E74204163636F756E742042616C616E636500000000 PUSH1 0x44 DUP3 ADD MSTORE PUSH1 0x64 ADD PUSH2 0xC99 JUMP JUMPDEST PUSH1 0x1 PUSH1 0x1 PUSH1 0xA0 SHL SUB DUP5 AND PUSH1 0x0 SWAP1 DUP2 MSTORE PUSH1 0x49 PUSH1 0x20 MSTORE PUSH1 0x40 DUP2 KECCAK256 DUP5 DUP4 SUB SWAP1 SSTORE PUSH1 0x46 DUP1 SLOAD DUP6 SWAP3 SWAP1 PUSH2 0x1FD6 SWAP1 DUP5 SWAP1 PUSH2 0x5904 JUMP JUMPDEST SWAP1 SWAP2 SSTORE POP POP PUSH1 0x46 SLOAD PUSH1 0x40 DUP1 MLOAD DUP6 DUP2 MSTORE PUSH1 0x20 DUP2 ADD SWAP3 SWAP1 SWAP3 MSTORE PUSH1 0x1 PUSH1 0x1 PUSH1 0xA0 SHL SUB DUP7 AND SWAP2 CALLER SWAP2 PUSH32 0x5D624AA9C148153AB3446C1B154F660EE7701E549FE9B62DAB7171B1C80E6FA2 SWAP2 ADD PUSH1 0x40 MLOAD DUP1 SWAP2 SUB SWAP1 LOG3 POP POP PUSH1 0x46 SLOAD SWAP3 SWAP2 POP POP JUMP JUMPDEST PUSH1 0x0 PUSH2 0x2046 PUSH4 0x9FD5A6CF PUSH1 0xE0 SHL DUP9 PUSH1 0x1 DUP1 PUSH2 0x328F JUMP JUMPDEST DUP4 TIMESTAMP GT ISZERO PUSH2 0x2096 JUMPI PUSH1 0x40 MLOAD PUSH3 0x461BCD PUSH1 0xE5 SHL DUP2 MSTORE PUSH1 0x20 PUSH1 0x4 DUP3 ADD MSTORE PUSH1 0x17 PUSH1 0x24 DUP3 ADD MSTORE PUSH32 0x5065726D697420446561646C696E652045787069726564000000000000000000 PUSH1 0x44 DUP3 ADD MSTORE PUSH1 0x64 ADD PUSH2 0xC99 JUMP JUMPDEST PUSH1 0x0 PUSH32 0x6E71EDAE12B1B97F4D1F60370FEF10105FA2FAAE0126114A169C64845D6126C9 DUP9 DUP9 DUP9 PUSH2 0x20C5 DUP13 PUSH2 0x4215 JUMP JUMPDEST PUSH1 0x40 DUP1 MLOAD PUSH1 0x20 DUP2 ADD SWAP7 SWAP1 SWAP7 MSTORE PUSH1 0x1 PUSH1 0x1 PUSH1 0xA0 SHL SUB SWAP5 DUP6 AND SWAP1 DUP7 ADD MSTORE SWAP3 SWAP1 SWAP2 AND PUSH1 0x60 DUP5 ADD MSTORE PUSH1 0x80 DUP4 ADD MSTORE PUSH1 0xA0 DUP3 ADD MSTORE PUSH1 0xC0 DUP2 ADD DUP7 SWAP1 MSTORE PUSH1 0xE0 ADD PUSH1 0x40 MLOAD PUSH1 0x20 DUP2 DUP4 SUB SUB DUP2 MSTORE SWAP1 PUSH1 0x40 MSTORE DUP1 MLOAD SWAP1 PUSH1 0x20 ADD KECCAK256 SWAP1 POP PUSH1 0x0 PUSH2 0x2163 PUSH2 0x2122 PUSH2 0x4240 JUMP JUMPDEST DUP4 PUSH1 0x40 MLOAD PUSH2 0x1901 PUSH1 0xF0 SHL PUSH1 0x20 DUP3 ADD MSTORE PUSH1 0x22 DUP2 ADD DUP4 SWAP1 MSTORE PUSH1 0x42 DUP2 ADD DUP3 SWAP1 MSTORE PUSH1 0x0 SWAP1 PUSH1 0x62 ADD PUSH1 0x40 MLOAD PUSH1 0x20 DUP2 DUP4 SUB SUB DUP2 MSTORE SWAP1 PUSH1 0x40 MSTORE DUP1 MLOAD SWAP1 PUSH1 0x20 ADD KECCAK256 SWAP1 POP SWAP3 SWAP2 POP POP JUMP JUMPDEST SWAP1 POP PUSH1 0x0 PUSH2 0x21A7 DUP3 DUP8 DUP8 DUP1 DUP1 PUSH1 0x1F ADD PUSH1 0x20 DUP1 SWAP2 DIV MUL PUSH1 0x20 ADD PUSH1 0x40 MLOAD SWAP1 DUP2 ADD PUSH1 0x40 MSTORE DUP1 SWAP4 SWAP3 SWAP2 SWAP1 DUP2 DUP2 MSTORE PUSH1 0x20 ADD DUP4 DUP4 DUP1 DUP3 DUP5 CALLDATACOPY PUSH1 0x0 SWAP3 ADD SWAP2 SWAP1 SWAP2 MSTORE POP PUSH2 0x42A7 SWAP3 POP POP POP JUMP JUMPDEST SWAP1 POP DUP10 PUSH1 0x1 PUSH1 0x1 PUSH1 0xA0 SHL SUB AND DUP2 PUSH1 0x1 PUSH1 0x1 PUSH1 0xA0 SHL SUB AND EQ PUSH2 0x220A JUMPI PUSH1 0x40 MLOAD PUSH3 0x461BCD PUSH1 0xE5 SHL DUP2 MSTORE PUSH1 0x20 PUSH1 0x4 DUP3 ADD MSTORE PUSH1 0x18 PUSH1 0x24 DUP3 ADD MSTORE PUSH32 0x496C6C6567616C20454344415341205369676E61747572650000000000000000 PUSH1 0x44 DUP3 ADD MSTORE PUSH1 0x64 ADD PUSH2 0xC99 JUMP JUMPDEST PUSH2 0x2215 DUP11 DUP11 DUP11 PUSH2 0x3394 JUMP JUMPDEST POP PUSH1 0x1 SWAP10 SWAP9 POP POP POP POP POP POP POP POP POP JUMP JUMPDEST PUSH1 0x0 PUSH2 0x2238 PUSH4 0xA457C2D7 PUSH1 0xE0 SHL CALLER PUSH2 0xC35 JUMP JUMPDEST CALLER PUSH2 0x2244 DUP2 DUP6 DUP6 PUSH2 0x42CB JUMP JUMPDEST DUP4 PUSH1 0x1 PUSH1 0x1 PUSH1 0xA0 SHL SUB AND DUP2 PUSH1 0x1 PUSH1 0x1 PUSH1 0xA0 SHL SUB AND PUSH32 0x2D6189480D1BB13DA7C0ED0063FE94AF3C19EED814940DB43733C4198D00A742 DUP6 PUSH1 0x40 MLOAD PUSH2 0x2289 SWAP2 DUP2 MSTORE PUSH1 0x20 ADD SWAP1 JUMP JUMPDEST PUSH1 0x40 MLOAD DUP1 SWAP2 SUB SWAP1 LOG3 PUSH2 0x229B DUP2 DUP6 PUSH2 0x3834 JUMP JUMPDEST SWAP5 SWAP4 POP POP POP POP JUMP JUMPDEST PUSH1 0x0 PUSH2 0x22B6 PUSH4 0xA5BFA9A9 PUSH1 0xE0 SHL CALLER PUSH2 0xC35 JUMP JUMPDEST PUSH2 0xB8E DUP3 PUSH2 0x3682 JUMP JUMPDEST PUSH1 0x0 PUSH2 0x22D2 PUSH4 0xA9059CBB PUSH1 0xE0 SHL CALLER PUSH2 0xC35 JUMP JUMPDEST PUSH1 0x0 PUSH1 0x47 SLOAD GT DUP1 ISZERO PUSH2 0x22EE JUMPI POP PUSH2 0x22EC CALLER JUMPDEST PUSH1 0x4E SWAP1 PUSH2 0x3769 JUMP JUMPDEST ISZERO JUMPDEST ISZERO PUSH2 0x2303 JUMPI PUSH2 0x22FE CALLER DUP5 DUP5 PUSH2 0x433C JUMP JUMPDEST PUSH2 0xC48 JUMP JUMPDEST PUSH2 0xC48 CALLER DUP5 DUP5 PUSH2 0x43C3 JUMP JUMPDEST PUSH1 0x0 PUSH1 0x1 PUSH1 0x1 PUSH1 0xA0 SHL SUB PUSH32 0x0 AND ADDRESS SUB PUSH2 0x2358 JUMPI PUSH1 0x40 MLOAD PUSH3 0x461BCD PUSH1 0xE5 SHL DUP2 MSTORE PUSH1 0x4 ADD PUSH2 0xC99 SWAP1 PUSH2 0x5619 JUMP JUMPDEST PUSH32 0x0 PUSH1 0x1 PUSH1 0x1 PUSH1 0xA0 SHL SUB AND PUSH2 0x238A PUSH2 0x349A JUMP JUMPDEST PUSH1 0x1 PUSH1 0x1 PUSH1 0xA0 SHL SUB AND EQ PUSH2 0x23B0 JUMPI PUSH1 0x40 MLOAD PUSH3 0x461BCD PUSH1 0xE5 SHL DUP2 MSTORE PUSH1 0x4 ADD PUSH2 0xC99 SWAP1 PUSH2 0x5648 JUMP JUMPDEST PUSH1 0x3 SLOAD PUSH1 0x1 PUSH1 0xA0 SHL SWAP1 DIV PUSH1 0xFF AND ISZERO PUSH2 0x23DA JUMPI PUSH1 0x40 MLOAD PUSH3 0x461BCD PUSH1 0xE5 SHL DUP2 MSTORE PUSH1 0x4 ADD PUSH2 0xC99 SWAP1 PUSH2 0x5860 JUMP JUMPDEST PUSH2 0x23EA PUSH4 0xD9DC1F19 PUSH1 0xE0 SHL PUSH2 0x391F JUMP JUMPDEST PUSH2 0x2436 JUMPI PUSH1 0x40 MLOAD PUSH3 0x461BCD PUSH1 0xE5 SHL DUP2 MSTORE PUSH1 0x20 PUSH1 0x4 DUP3 ADD MSTORE PUSH1 0x17 PUSH1 0x24 DUP3 ADD MSTORE PUSH32 0x5365744C6F63616C41646D696E20466F7262696464656E000000000000000000 PUSH1 0x44 DUP3 ADD MSTORE PUSH1 0x64 ADD PUSH2 0xC99 JUMP JUMPDEST PUSH1 0x1 PUSH1 0x1 PUSH1 0xA0 SHL SUB DUP3 AND PUSH2 0x247E JUMPI PUSH1 0x40 MLOAD PUSH3 0x461BCD PUSH1 0xE5 SHL DUP2 MSTORE PUSH1 0x20 PUSH1 0x4 DUP3 ADD MSTORE PUSH1 0xF PUSH1 0x24 DUP3 ADD MSTORE PUSH15 0x1059191C995CDCC8125B9D985B1A59 PUSH1 0x8A SHL PUSH1 0x44 DUP3 ADD MSTORE PUSH1 0x64 ADD PUSH2 0xC99 JUMP JUMPDEST PUSH2 0x2487 DUP3 PUSH2 0x4489 JUMP JUMPDEST POP PUSH1 0x1 SWAP2 SWAP1 POP JUMP JUMPDEST PUSH1 0x0 PUSH2 0x1193 DUP4 DUP4 PUSH2 0x3834 JUMP JUMPDEST PUSH1 0x60 PUSH2 0x11A9 PUSH1 0x4C PUSH2 0x40DA JUMP JUMPDEST PUSH1 0x3 SLOAD PUSH1 0x0 SWAP1 PUSH1 0x1 PUSH1 0xA0 SHL SWAP1 DIV PUSH1 0xFF AND ISZERO PUSH2 0x24D4 JUMPI PUSH1 0x40 MLOAD PUSH3 0x461BCD PUSH1 0xE5 SHL DUP2 MSTORE PUSH1 0x4 ADD PUSH2 0xC99 SWAP1 PUSH2 0x5860 JUMP JUMPDEST PUSH4 0xEC4AC1F7 PUSH1 0xE0 SHL PUSH2 0x24E5 DUP2 PUSH2 0x391F JUMP JUMPDEST PUSH2 0x2521 JUMPI PUSH1 0x40 MLOAD PUSH3 0x461BCD PUSH1 0xE5 SHL DUP2 MSTORE PUSH1 0x20 PUSH1 0x4 DUP3 ADD MSTORE PUSH1 0xD PUSH1 0x24 DUP3 ADD MSTORE PUSH13 0x1058D8D95CDCC811195B9A5959 PUSH1 0x9A SHL PUSH1 0x44 DUP3 ADD MSTORE PUSH1 0x64 ADD PUSH2 0xC99 JUMP JUMPDEST PUSH1 0x48 SLOAD PUSH1 0x1 PUSH1 0xA8 SHL SWAP1 DIV PUSH1 0xFF AND ISZERO PUSH2 0x257B JUMPI PUSH1 0x40 MLOAD PUSH3 0x461BCD PUSH1 0xE5 SHL DUP2 MSTORE PUSH1 0x20 PUSH1 0x4 DUP3 ADD MSTORE PUSH1 0x19 PUSH1 0x24 DUP3 ADD MSTORE PUSH32 0x546F6B656E20416C726561647920446973747269627574656400000000000000 PUSH1 0x44 DUP3 ADD MSTORE PUSH1 0x64 ADD PUSH2 0xC99 JUMP JUMPDEST PUSH1 0x40 MLOAD PUSH4 0x1FFC9A7 PUSH1 0xE0 SHL DUP2 MSTORE PUSH4 0x1C8B5D5B PUSH1 0xE1 SHL PUSH1 0x4 DUP3 ADD MSTORE PUSH1 0x1 PUSH1 0x1 PUSH1 0xA0 SHL SUB DUP6 AND SWAP1 PUSH4 0x1FFC9A7 SWAP1 PUSH1 0x24 ADD PUSH1 0x20 PUSH1 0x40 MLOAD DUP1 DUP4 SUB DUP2 DUP7 GAS STATICCALL SWAP3 POP POP POP DUP1 ISZERO PUSH2 0x25E2 JUMPI POP PUSH1 0x40 DUP1 MLOAD PUSH1 0x1F RETURNDATASIZE SWAP1 DUP2 ADD PUSH1 0x1F NOT AND DUP3 ADD SWAP1 SWAP3 MSTORE PUSH2 0x25DF SWAP2 DUP2 ADD SWAP1 PUSH2 0x5922 JUMP JUMPDEST PUSH1 0x1 JUMPDEST PUSH2 0x262E JUMPI PUSH1 0x40 MLOAD PUSH3 0x461BCD PUSH1 0xE5 SHL DUP2 MSTORE PUSH1 0x20 PUSH1 0x4 DUP3 ADD MSTORE PUSH1 0x1A PUSH1 0x24 DUP3 ADD MSTORE PUSH32 0x496C6C6567616C204941737365744D616E616765724552433230000000000000 PUSH1 0x44 DUP3 ADD MSTORE PUSH1 0x64 ADD PUSH2 0xC99 JUMP JUMPDEST DUP1 PUSH2 0x267B JUMPI PUSH1 0x40 MLOAD PUSH3 0x461BCD PUSH1 0xE5 SHL DUP2 MSTORE PUSH1 0x20 PUSH1 0x4 DUP3 ADD MSTORE PUSH1 0x1A PUSH1 0x24 DUP3 ADD MSTORE PUSH32 0x496E76616C6964204941737365744D616E616765724552433230000000000000 PUSH1 0x44 DUP3 ADD MSTORE PUSH1 0x64 ADD PUSH2 0xC99 JUMP JUMPDEST POP PUSH2 0x2692 DUP5 PUSH12 0x1027E72F1F12813088000000 PUSH2 0x385F JUMP JUMPDEST POP PUSH1 0x0 JUMPDEST PUSH1 0x7 DUP2 LT ISZERO PUSH2 0x3109 JUMPI DUP4 DUP2 PUSH1 0x7 DUP2 LT PUSH2 0x26B1 JUMPI PUSH2 0x26B1 PUSH2 0x57D1 JUMP JUMPDEST PUSH1 0x20 MUL ADD PUSH1 0x20 DUP2 ADD SWAP1 PUSH2 0x26C4 SWAP2 SWAP1 PUSH2 0x4FC0 JUMP JUMPDEST PUSH1 0x40 MLOAD PUSH4 0x1FFC9A7 PUSH1 0xE0 SHL DUP2 MSTORE PUSH4 0x9673B47D PUSH1 0xE0 SHL PUSH1 0x4 DUP3 ADD MSTORE PUSH1 0x1 PUSH1 0x1 PUSH1 0xA0 SHL SUB SWAP2 SWAP1 SWAP2 AND SWAP1 PUSH4 0x1FFC9A7 SWAP1 PUSH1 0x24 ADD PUSH1 0x20 PUSH1 0x40 MLOAD DUP1 DUP4 SUB DUP2 DUP7 GAS STATICCALL SWAP3 POP POP POP DUP1 ISZERO PUSH2 0x272D JUMPI POP PUSH1 0x40 DUP1 MLOAD PUSH1 0x1F RETURNDATASIZE SWAP1 DUP2 ADD PUSH1 0x1F NOT AND DUP3 ADD SWAP1 SWAP3 MSTORE PUSH2 0x272A SWAP2 DUP2 ADD SWAP1 PUSH2 0x5922 JUMP JUMPDEST PUSH1 0x1 JUMPDEST PUSH2 0x2770 JUMPI PUSH1 0x40 MLOAD PUSH3 0x461BCD PUSH1 0xE5 SHL DUP2 MSTORE PUSH1 0x20 PUSH1 0x4 DUP3 ADD MSTORE PUSH1 0x14 PUSH1 0x24 DUP3 ADD MSTORE PUSH20 0x496C6C6567616C20494173736574456E74697479 PUSH1 0x60 SHL PUSH1 0x44 DUP3 ADD MSTORE PUSH1 0x64 ADD PUSH2 0xC99 JUMP JUMPDEST DUP1 PUSH2 0x27B4 JUMPI PUSH1 0x40 MLOAD PUSH3 0x461BCD PUSH1 0xE5 SHL DUP2 MSTORE PUSH1 0x20 PUSH1 0x4 DUP3 ADD MSTORE PUSH1 0x14 PUSH1 0x24 DUP3 ADD MSTORE PUSH20 0x496E76616C696420494173736574456E74697479 PUSH1 0x60 SHL PUSH1 0x44 DUP3 ADD MSTORE PUSH1 0x64 ADD PUSH2 0xC99 JUMP JUMPDEST POP ADDRESS DUP5 DUP3 PUSH1 0x7 DUP2 LT PUSH2 0x27C8 JUMPI PUSH2 0x27C8 PUSH2 0x57D1 JUMP JUMPDEST PUSH1 0x20 MUL ADD PUSH1 0x20 DUP2 ADD SWAP1 PUSH2 0x27DB SWAP2 SWAP1 PUSH2 0x4FC0 JUMP JUMPDEST PUSH1 0x1 PUSH1 0x1 PUSH1 0xA0 SHL SUB AND PUSH4 0x1083F761 PUSH1 0x40 MLOAD DUP2 PUSH4 0xFFFFFFFF AND PUSH1 0xE0 SHL DUP2 MSTORE PUSH1 0x4 ADD PUSH1 0x20 PUSH1 0x40 MLOAD DUP1 DUP4 SUB DUP2 DUP7 GAS STATICCALL ISZERO DUP1 ISZERO PUSH2 0x2818 JUMPI RETURNDATASIZE PUSH1 0x0 DUP1 RETURNDATACOPY RETURNDATASIZE PUSH1 0x0 REVERT JUMPDEST POP POP POP POP PUSH1 0x40 MLOAD RETURNDATASIZE PUSH1 0x1F NOT PUSH1 0x1F DUP3 ADD AND DUP3 ADD DUP1 PUSH1 0x40 MSTORE POP DUP2 ADD SWAP1 PUSH2 0x283C SWAP2 SWAP1 PUSH2 0x593F JUMP JUMPDEST PUSH1 0x1 PUSH1 0x1 PUSH1 0xA0 SHL SUB AND EQ PUSH2 0x2888 JUMPI PUSH1 0x40 MLOAD PUSH3 0x461BCD PUSH1 0xE5 SHL DUP2 MSTORE PUSH1 0x20 PUSH1 0x4 DUP3 ADD MSTORE PUSH1 0x13 PUSH1 0x24 DUP3 ADD MSTORE PUSH19 0x24B73B30B634B21020B9B9B2BA102A37B5B2B7 PUSH1 0x69 SHL PUSH1 0x44 DUP3 ADD MSTORE PUSH1 0x64 ADD PUSH2 0xC99 JUMP JUMPDEST PUSH1 0x40 DUP1 MLOAD PUSH32 0x4C4956454C595F415544494F5F564944454F5F50524F4752414D5F4153534554 PUSH1 0x20 DUP3 ADD MSTORE ADD PUSH1 0x40 MLOAD PUSH1 0x20 DUP2 DUP4 SUB SUB DUP2 MSTORE SWAP1 PUSH1 0x40 MSTORE DUP1 MLOAD SWAP1 PUSH1 0x20 ADD KECCAK256 DUP5 DUP3 PUSH1 0x7 DUP2 LT PUSH2 0x28DB JUMPI PUSH2 0x28DB PUSH2 0x57D1 JUMP JUMPDEST PUSH1 0x20 MUL ADD PUSH1 0x20 DUP2 ADD SWAP1 PUSH2 0x28EE SWAP2 SWAP1 PUSH2 0x4FC0 JUMP JUMPDEST PUSH1 0x1 PUSH1 0x1 PUSH1 0xA0 SHL SUB AND PUSH4 0xC9230C5D PUSH1 0x40 MLOAD DUP2 PUSH4 0xFFFFFFFF AND PUSH1 0xE0 SHL DUP2 MSTORE PUSH1 0x4 ADD PUSH1 0x20 PUSH1 0x40 MLOAD DUP1 DUP4 SUB DUP2 DUP7 GAS STATICCALL ISZERO DUP1 ISZERO PUSH2 0x292B JUMPI RETURNDATASIZE PUSH1 0x0 DUP1 RETURNDATACOPY RETURNDATASIZE PUSH1 0x0 REVERT JUMPDEST POP POP POP POP PUSH1 0x40 MLOAD RETURNDATASIZE PUSH1 0x1F NOT PUSH1 0x1F DUP3 ADD AND DUP3 ADD DUP1 PUSH1 0x40 MSTORE POP DUP2 ADD SWAP1 PUSH2 0x294F SWAP2 SWAP1 PUSH2 0x595C JUMP JUMPDEST SUB PUSH2 0x29C1 JUMPI PUSH2 0x2981 DUP5 DUP3 PUSH1 0x7 DUP2 LT PUSH2 0x2969 JUMPI PUSH2 0x2969 PUSH2 0x57D1 JUMP JUMPDEST PUSH1 0x20 MUL ADD PUSH1 0x20 DUP2 ADD SWAP1 PUSH2 0x297C SWAP2 SWAP1 PUSH2 0x4FC0 JUMP JUMPDEST PUSH2 0x4500 JUMP JUMPDEST PUSH2 0x29BC CALLER DUP6 DUP4 PUSH1 0x7 DUP2 LT PUSH2 0x2997 JUMPI PUSH2 0x2997 PUSH2 0x57D1 JUMP JUMPDEST PUSH1 0x20 MUL ADD PUSH1 0x20 DUP2 ADD SWAP1 PUSH2 0x29AA SWAP2 SWAP1 PUSH2 0x4FC0 JUMP JUMPDEST PUSH12 0x19D971E4FE8401E74000000 PUSH2 0x43C3 JUMP JUMPDEST PUSH2 0x30F7 JUMP JUMPDEST PUSH1 0x40 MLOAD PUSH32 0x4C4956454C595F464F554E44494E475F5445414D5F4153534554000000000000 PUSH1 0x20 DUP3 ADD MSTORE PUSH1 0x3A ADD PUSH1 0x40 MLOAD PUSH1 0x20 DUP2 DUP4 SUB SUB DUP2 MSTORE SWAP1 PUSH1 0x40 MSTORE DUP1 MLOAD SWAP1 PUSH1 0x20 ADD KECCAK256 DUP5 DUP3 PUSH1 0x7 DUP2 LT PUSH2 0x2A15 JUMPI PUSH2 0x2A15 PUSH2 0x57D1 JUMP JUMPDEST PUSH1 0x20 MUL ADD PUSH1 0x20 DUP2 ADD SWAP1 PUSH2 0x2A28 SWAP2 SWAP1 PUSH2 0x4FC0 JUMP JUMPDEST PUSH1 0x1 PUSH1 0x1 PUSH1 0xA0 SHL SUB AND PUSH4 0xC9230C5D PUSH1 0x40 MLOAD DUP2 PUSH4 0xFFFFFFFF AND PUSH1 0xE0 SHL DUP2 MSTORE PUSH1 0x4 ADD PUSH1 0x20 PUSH1 0x40 MLOAD DUP1 DUP4 SUB DUP2 DUP7 GAS STATICCALL ISZERO DUP1 ISZERO PUSH2 0x2A65 JUMPI RETURNDATASIZE PUSH1 0x0 DUP1 RETURNDATACOPY RETURNDATASIZE PUSH1 0x0 REVERT JUMPDEST POP POP POP POP PUSH1 0x40 MLOAD RETURNDATASIZE PUSH1 0x1F NOT PUSH1 0x1F DUP3 ADD AND DUP3 ADD DUP1 PUSH1 0x40 MSTORE POP DUP2 ADD SWAP1 PUSH2 0x2A89 SWAP2 SWAP1 PUSH2 0x595C JUMP JUMPDEST SUB PUSH2 0x2ADE JUMPI PUSH2 0x2AA3 DUP5 DUP3 PUSH1 0x7 DUP2 LT PUSH2 0x2969 JUMPI PUSH2 0x2969 PUSH2 0x57D1 JUMP JUMPDEST PUSH2 0x29BC CALLER DUP6 DUP4 PUSH1 0x7 DUP2 LT PUSH2 0x2AB9 JUMPI PUSH2 0x2AB9 PUSH2 0x57D1 JUMP JUMPDEST PUSH1 0x20 MUL ADD PUSH1 0x20 DUP2 ADD SWAP1 PUSH2 0x2ACC SWAP2 SWAP1 PUSH2 0x4FC0 JUMP JUMPDEST PUSH12 0x2E87669C308736A04000000 PUSH2 0x43C3 JUMP JUMPDEST PUSH1 0x40 MLOAD PUSH21 0x13125591531657D514915054D5549657D054D4D155 PUSH1 0x5A SHL PUSH1 0x20 DUP3 ADD MSTORE PUSH1 0x35 ADD PUSH1 0x40 MLOAD PUSH1 0x20 DUP2 DUP4 SUB SUB DUP2 MSTORE SWAP1 PUSH1 0x40 MSTORE DUP1 MLOAD SWAP1 PUSH1 0x20 ADD KECCAK256 DUP5 DUP3 PUSH1 0x7 DUP2 LT PUSH2 0x2B2A JUMPI PUSH2 0x2B2A PUSH2 0x57D1 JUMP JUMPDEST PUSH1 0x20 MUL ADD PUSH1 0x20 DUP2 ADD SWAP1 PUSH2 0x2B3D SWAP2 SWAP1 PUSH2 0x4FC0 JUMP JUMPDEST PUSH1 0x1 PUSH1 0x1 PUSH1 0xA0 SHL SUB AND PUSH4 0xC9230C5D PUSH1 0x40 MLOAD DUP2 PUSH4 0xFFFFFFFF AND PUSH1 0xE0 SHL DUP2 MSTORE PUSH1 0x4 ADD PUSH1 0x20 PUSH1 0x40 MLOAD DUP1 DUP4 SUB DUP2 DUP7 GAS STATICCALL ISZERO DUP1 ISZERO PUSH2 0x2B7A JUMPI RETURNDATASIZE PUSH1 0x0 DUP1 RETURNDATACOPY RETURNDATASIZE PUSH1 0x0 REVERT JUMPDEST POP POP POP POP PUSH1 0x40 MLOAD RETURNDATASIZE PUSH1 0x1F NOT PUSH1 0x1F DUP3 ADD AND DUP3 ADD DUP1 PUSH1 0x40 MSTORE POP DUP2 ADD SWAP1 PUSH2 0x2B9E SWAP2 SWAP1 PUSH2 0x595C JUMP JUMPDEST SUB PUSH2 0x2BF3 JUMPI PUSH2 0x2BB8 DUP5 DUP3 PUSH1 0x7 DUP2 LT PUSH2 0x2969 JUMPI PUSH2 0x2969 PUSH2 0x57D1 JUMP JUMPDEST PUSH2 0x29BC CALLER DUP6 DUP4 PUSH1 0x7 DUP2 LT PUSH2 0x2BCE JUMPI PUSH2 0x2BCE PUSH2 0x57D1 JUMP JUMPDEST PUSH1 0x20 MUL ADD PUSH1 0x20 DUP2 ADD SWAP1 PUSH2 0x2BE1 SWAP2 SWAP1 PUSH2 0x4FC0 JUMP JUMPDEST PUSH12 0x26C62AD77DC602DAE000000 PUSH2 0x43C3 JUMP JUMPDEST PUSH1 0x40 MLOAD PUSH32 0x4C4956454C595F5055424C49435F53414C455F41535345540000000000000000 PUSH1 0x20 DUP3 ADD MSTORE PUSH1 0x38 ADD PUSH1 0x40 MLOAD PUSH1 0x20 DUP2 DUP4 SUB SUB DUP2 MSTORE SWAP1 PUSH1 0x40 MSTORE DUP1 MLOAD SWAP1 PUSH1 0x20 ADD KECCAK256 DUP5 DUP3 PUSH1 0x7 DUP2 LT PUSH2 0x2C47 JUMPI PUSH2 0x2C47 PUSH2 0x57D1 JUMP JUMPDEST PUSH1 0x20 MUL ADD PUSH1 0x20 DUP2 ADD SWAP1 PUSH2 0x2C5A SWAP2 SWAP1 PUSH2 0x4FC0 JUMP JUMPDEST PUSH1 0x1 PUSH1 0x1 PUSH1 0xA0 SHL SUB AND PUSH4 0xC9230C5D PUSH1 0x40 MLOAD DUP2 PUSH4 0xFFFFFFFF AND PUSH1 0xE0 SHL DUP2 MSTORE PUSH1 0x4 ADD PUSH1 0x20 PUSH1 0x40 MLOAD DUP1 DUP4 SUB DUP2 DUP7 GAS STATICCALL ISZERO DUP1 ISZERO PUSH2 0x2C97 JUMPI RETURNDATASIZE PUSH1 0x0 DUP1 RETURNDATACOPY RETURNDATASIZE PUSH1 0x0 REVERT JUMPDEST POP POP POP POP PUSH1 0x40 MLOAD RETURNDATASIZE PUSH1 0x1F NOT PUSH1 0x1F DUP3 ADD AND DUP3 ADD DUP1 PUSH1 0x40 MSTORE POP DUP2 ADD SWAP1 PUSH2 0x2CBB SWAP2 SWAP1 PUSH2 0x595C JUMP JUMPDEST SUB PUSH2 0x2D10 JUMPI PUSH2 0x2CD5 DUP5 DUP3 PUSH1 0x7 DUP2 LT PUSH2 0x2969 JUMPI PUSH2 0x2969 PUSH2 0x57D1 JUMP JUMPDEST PUSH2 0x29BC CALLER DUP6 DUP4 PUSH1 0x7 DUP2 LT PUSH2 0x2CEB JUMPI PUSH2 0x2CEB PUSH2 0x57D1 JUMP JUMPDEST PUSH1 0x20 MUL ADD PUSH1 0x20 DUP2 ADD SWAP1 PUSH2 0x2CFE SWAP2 SWAP1 PUSH2 0x4FC0 JUMP JUMPDEST PUSH12 0x6765C793FA10079D0000000 PUSH2 0x43C3 JUMP JUMPDEST PUSH1 0x40 MLOAD PUSH32 0x4C4956454C595F56414C494441544F52535F524557415244535F415353455400 PUSH1 0x20 DUP3 ADD MSTORE PUSH1 0x3F ADD PUSH1 0x40 MLOAD PUSH1 0x20 DUP2 DUP4 SUB SUB DUP2 MSTORE SWAP1 PUSH1 0x40 MSTORE DUP1 MLOAD SWAP1 PUSH1 0x20 ADD KECCAK256 DUP5 DUP3 PUSH1 0x7 DUP2 LT PUSH2 0x2D64 JUMPI PUSH2 0x2D64 PUSH2 0x57D1 JUMP JUMPDEST PUSH1 0x20 MUL ADD PUSH1 0x20 DUP2 ADD SWAP1 PUSH2 0x2D77 SWAP2 SWAP1 PUSH2 0x4FC0 JUMP JUMPDEST PUSH1 0x1 PUSH1 0x1 PUSH1 0xA0 SHL SUB AND PUSH4 0xC9230C5D PUSH1 0x40 MLOAD DUP2 PUSH4 0xFFFFFFFF AND PUSH1 0xE0 SHL DUP2 MSTORE PUSH1 0x4 ADD PUSH1 0x20 PUSH1 0x40 MLOAD DUP1 DUP4 SUB DUP2 DUP7 GAS STATICCALL ISZERO DUP1 ISZERO PUSH2 0x2DB4 JUMPI RETURNDATASIZE PUSH1 0x0 DUP1 RETURNDATACOPY RETURNDATASIZE PUSH1 0x0 REVERT JUMPDEST POP POP POP POP PUSH1 0x40 MLOAD RETURNDATASIZE PUSH1 0x1F NOT PUSH1 0x1F DUP3 ADD AND DUP3 ADD DUP1 PUSH1 0x40 MSTORE POP DUP2 ADD SWAP1 PUSH2 0x2DD8 SWAP2 SWAP1 PUSH2 0x595C JUMP JUMPDEST SUB PUSH2 0x2E2C JUMPI PUSH2 0x2DF2 DUP5 DUP3 PUSH1 0x7 DUP2 LT PUSH2 0x2969 JUMPI PUSH2 0x2969 PUSH2 0x57D1 JUMP JUMPDEST PUSH2 0x29BC CALLER DUP6 DUP4 PUSH1 0x7 DUP2 LT PUSH2 0x2E08 JUMPI PUSH2 0x2E08 PUSH2 0x57D1 JUMP JUMPDEST PUSH1 0x20 MUL ADD PUSH1 0x20 DUP2 ADD SWAP1 PUSH2 0x2E1B SWAP2 SWAP1 PUSH2 0x4FC0 JUMP JUMPDEST PUSH11 0xF8277896582678AC000000 PUSH2 0x43C3 JUMP JUMPDEST PUSH1 0x40 MLOAD PUSH32 0x4C4956454C595F43524F57445F464F554E44494E475F41535345540000000000 PUSH1 0x20 DUP3 ADD MSTORE PUSH1 0x3B ADD PUSH1 0x40 MLOAD PUSH1 0x20 DUP2 DUP4 SUB SUB DUP2 MSTORE SWAP1 PUSH1 0x40 MSTORE DUP1 MLOAD SWAP1 PUSH1 0x20 ADD KECCAK256 DUP5 DUP3 PUSH1 0x7 DUP2 LT PUSH2 0x2E80 JUMPI PUSH2 0x2E80 PUSH2 0x57D1 JUMP JUMPDEST PUSH1 0x20 MUL ADD PUSH1 0x20 DUP2 ADD SWAP1 PUSH2 0x2E93 SWAP2 SWAP1 PUSH2 0x4FC0 JUMP JUMPDEST PUSH1 0x1 PUSH1 0x1 PUSH1 0xA0 SHL SUB AND PUSH4 0xC9230C5D PUSH1 0x40 MLOAD DUP2 PUSH4 0xFFFFFFFF AND PUSH1 0xE0 SHL DUP2 MSTORE PUSH1 0x4 ADD PUSH1 0x20 PUSH1 0x40 MLOAD DUP1 DUP4 SUB DUP2 DUP7 GAS STATICCALL ISZERO DUP1 ISZERO PUSH2 0x2ED0 JUMPI RETURNDATASIZE PUSH1 0x0 DUP1 RETURNDATACOPY RETURNDATASIZE PUSH1 0x0 REVERT JUMPDEST POP POP POP POP PUSH1 0x40 MLOAD RETURNDATASIZE PUSH1 0x1F NOT PUSH1 0x1F DUP3 ADD AND DUP3 ADD DUP1 PUSH1 0x40 MSTORE POP DUP2 ADD SWAP1 PUSH2 0x2EF4 SWAP2 SWAP1 PUSH2 0x595C JUMP JUMPDEST SUB PUSH2 0x2F49 JUMPI PUSH2 0x2F0E DUP5 DUP3 PUSH1 0x7 DUP2 LT PUSH2 0x2969 JUMPI PUSH2 0x2969 PUSH2 0x57D1 JUMP JUMPDEST PUSH2 0x29BC CALLER DUP6 DUP4 PUSH1 0x7 DUP2 LT PUSH2 0x2F24 JUMPI PUSH2 0x2F24 PUSH2 0x57D1 JUMP JUMPDEST PUSH1 0x20 MUL ADD PUSH1 0x20 DUP2 ADD SWAP1 PUSH2 0x2F37 SWAP2 SWAP1 PUSH2 0x4FC0 JUMP JUMPDEST PUSH12 0x1C6F307BE4C4687E6000000 PUSH2 0x43C3 JUMP JUMPDEST PUSH1 0x40 MLOAD PUSH32 0x4C4956454C595F5441585F54524541535552595F415353455400000000000000 PUSH1 0x20 DUP3 ADD MSTORE PUSH1 0x39 ADD PUSH1 0x40 MLOAD PUSH1 0x20 DUP2 DUP4 SUB SUB DUP2 MSTORE SWAP1 PUSH1 0x40 MSTORE DUP1 MLOAD SWAP1 PUSH1 0x20 ADD KECCAK256 DUP5 DUP3 PUSH1 0x7 DUP2 LT PUSH2 0x2F9D JUMPI PUSH2 0x2F9D PUSH2 0x57D1 JUMP JUMPDEST PUSH1 0x20 MUL ADD PUSH1 0x20 DUP2 ADD SWAP1 PUSH2 0x2FB0 SWAP2 SWAP1 PUSH2 0x4FC0 JUMP JUMPDEST PUSH1 0x1 PUSH1 0x1 PUSH1 0xA0 SHL SUB AND PUSH4 0xC9230C5D PUSH1 0x40 MLOAD DUP2 PUSH4 0xFFFFFFFF AND PUSH1 0xE0 SHL DUP2 MSTORE PUSH1 0x4 ADD PUSH1 0x20 PUSH1 0x40 MLOAD DUP1 DUP4 SUB DUP2 DUP7 GAS STATICCALL ISZERO DUP1 ISZERO PUSH2 0x2FED JUMPI RETURNDATASIZE PUSH1 0x0 DUP1 RETURNDATACOPY RETURNDATASIZE PUSH1 0x0 REVERT JUMPDEST POP POP POP POP PUSH1 0x40 MLOAD RETURNDATASIZE PUSH1 0x1F NOT PUSH1 0x1F DUP3 ADD AND DUP3 ADD DUP1 PUSH1 0x40 MSTORE POP DUP2 ADD SWAP1 PUSH2 0x3011 SWAP2 SWAP1 PUSH2 0x595C JUMP JUMPDEST SUB PUSH2 0x30B9 JUMPI PUSH1 0x48 SLOAD PUSH1 0x1 PUSH1 0x1 PUSH1 0xA0 SHL SUB AND ISZERO PUSH2 0x306F JUMPI PUSH1 0x40 MLOAD PUSH3 0x461BCD PUSH1 0xE5 SHL DUP2 MSTORE PUSH1 0x20 PUSH1 0x4 DUP3 ADD MSTORE PUSH1 0x1E PUSH1 0x24 DUP3 ADD MSTORE PUSH32 0x546178547265617375727920416C726561647920526567697374657265640000 PUSH1 0x44 DUP3 ADD MSTORE PUSH1 0x64 ADD PUSH2 0xC99 JUMP JUMPDEST DUP4 DUP2 PUSH1 0x7 DUP2 LT PUSH2 0x3081 JUMPI PUSH2 0x3081 PUSH2 0x57D1 JUMP JUMPDEST PUSH1 0x20 MUL ADD PUSH1 0x20 DUP2 ADD SWAP1 PUSH2 0x3094 SWAP2 SWAP1 PUSH2 0x4FC0 JUMP JUMPDEST PUSH1 0x48 DUP1 SLOAD PUSH1 0x1 PUSH1 0x1 PUSH1 0xA0 SHL SUB NOT AND PUSH1 0x1 PUSH1 0x1 PUSH1 0xA0 SHL SUB SWAP3 SWAP1 SWAP3 AND SWAP2 SWAP1 SWAP2 OR SWAP1 SSTORE PUSH2 0x30F7 JUMP JUMPDEST PUSH1 0x40 MLOAD PUSH3 0x461BCD PUSH1 0xE5 SHL DUP2 MSTORE PUSH1 0x20 PUSH1 0x4 DUP3 ADD MSTORE PUSH1 0x13 PUSH1 0x24 DUP3 ADD MSTORE PUSH19 0x105CDCD95D08139BDD0814DD5C1C1BDC9D1959 PUSH1 0x6A SHL PUSH1 0x44 DUP3 ADD MSTORE PUSH1 0x64 ADD PUSH2 0xC99 JUMP JUMPDEST DUP1 PUSH2 0x3101 DUP2 PUSH2 0x5810 JUMP JUMPDEST SWAP2 POP POP PUSH2 0x2696 JUMP JUMPDEST POP PUSH1 0x48 DUP1 SLOAD PUSH1 0xFF PUSH1 0xA8 SHL NOT AND PUSH1 0x1 PUSH1 0xA8 SHL OR SWAP1 SSTORE PUSH1 0x1 SWAP2 POP POP SWAP3 SWAP2 POP POP JUMP JUMPDEST PUSH1 0x0 PUSH2 0x11A9 PUSH2 0x4240 JUMP JUMPDEST PUSH1 0x0 PUSH2 0x11A9 PUSH2 0x34BB JUMP JUMPDEST PUSH1 0x0 PUSH2 0x314F PUSH4 0x1F54AA55 PUSH1 0xE3 SHL CALLER PUSH2 0xC35 JUMP JUMPDEST PUSH1 0x0 DUP1 JUMPDEST DUP4 DUP2 LT ISZERO PUSH2 0x31E3 JUMPI DUP5 DUP5 DUP3 DUP2 DUP2 LT PUSH2 0x316D JUMPI PUSH2 0x316D PUSH2 0x57D1 JUMP JUMPDEST SWAP1 POP PUSH1 0x40 MUL ADD PUSH1 0x20 ADD CALLDATALOAD DUP3 PUSH2 0x3182 SWAP2 SWAP1 PUSH2 0x57FD JUMP JUMPDEST SWAP2 POP PUSH2 0x31D1 CALLER DUP7 DUP7 DUP5 DUP2 DUP2 LT PUSH2 0x319A JUMPI PUSH2 0x319A PUSH2 0x57D1 JUMP JUMPDEST PUSH2 0x31B0 SWAP3 PUSH1 0x20 PUSH1 0x40 SWAP1 SWAP3 MUL ADD SWAP1 DUP2 ADD SWAP2 POP PUSH2 0x4FC0 JUMP JUMPDEST DUP8 DUP8 DUP6 DUP2 DUP2 LT PUSH2 0x31C2 JUMPI PUSH2 0x31C2 PUSH2 0x57D1 JUMP JUMPDEST SWAP1 POP PUSH1 0x40 MUL ADD PUSH1 0x20 ADD CALLDATALOAD PUSH2 0x43C3 JUMP JUMPDEST DUP1 PUSH2 0x31DB DUP2 PUSH2 0x5810 JUMP JUMPDEST SWAP2 POP POP PUSH2 0x3153 JUMP JUMPDEST POP PUSH1 0x40 MLOAD DUP2 DUP2 MSTORE CALLER SWAP1 PUSH32 0x6F8B319642E67CD1F14D773B5289E2E9BC1AFCE60945A4705B94C4C2CE0D347E SWAP1 PUSH1 0x20 ADD PUSH2 0x115D JUMP JUMPDEST PUSH1 0x0 PUSH2 0x3233 PUSH4 0x3F6E4BB1 PUSH1 0xE2 SHL PUSH2 0xC35 PUSH1 0x40 DUP6 ADD PUSH1 0x20 DUP7 ADD PUSH2 0x4FC0 JUMP JUMPDEST PUSH2 0xB8E DUP3 PUSH2 0x4126 JUMP JUMPDEST SWAP1 JUMP JUMPDEST PUSH1 0x0 PUSH1 0x1 PUSH1 0x1 PUSH1 0xE0 SHL SUB NOT DUP3 AND PUSH4 0x14751DBF PUSH1 0xE0 SHL EQ DUP1 PUSH2 0x3270 JUMPI POP PUSH1 0x1 PUSH1 0x1 PUSH1 0xE0 SHL SUB NOT DUP3 AND PUSH4 0x52D1902D PUSH1 0xE0 SHL EQ JUMPDEST DUP1 PUSH2 0xB8E JUMPI POP PUSH4 0x1FFC9A7 PUSH1 0xE0 SHL PUSH1 0x1 PUSH1 0x1 PUSH1 0xE0 SHL SUB NOT DUP4 AND EQ PUSH2 0xB8E JUMP JUMPDEST PUSH1 0x3 SLOAD PUSH1 0x1 PUSH1 0xA0 SHL SWAP1 DIV PUSH1 0xFF AND ISZERO PUSH2 0x32B9 JUMPI PUSH1 0x40 MLOAD PUSH3 0x461BCD PUSH1 0xE5 SHL DUP2 MSTORE PUSH1 0x4 ADD PUSH2 0xC99 SWAP1 PUSH2 0x5860 JUMP JUMPDEST DUP4 PUSH2 0x32C3 DUP2 PUSH2 0x391F JUMP JUMPDEST PUSH2 0x32FF JUMPI PUSH1 0x40 MLOAD PUSH3 0x461BCD PUSH1 0xE5 SHL DUP2 MSTORE PUSH1 0x20 PUSH1 0x4 DUP3 ADD MSTORE PUSH1 0xD PUSH1 0x24 DUP3 ADD MSTORE PUSH13 0x1058D8D95CDCC811195B9A5959 PUSH1 0x9A SHL PUSH1 0x44 DUP3 ADD MSTORE PUSH1 0x64 ADD PUSH2 0xC99 JUMP JUMPDEST DUP3 ISZERO PUSH2 0x335F JUMPI PUSH1 0x48 SLOAD PUSH1 0x1 PUSH1 0xA0 SHL SWAP1 DIV PUSH1 0xFF AND ISZERO PUSH2 0x335F JUMPI PUSH1 0x40 MLOAD PUSH3 0x461BCD PUSH1 0xE5 SHL DUP2 MSTORE PUSH1 0x20 PUSH1 0x4 DUP3 ADD MSTORE PUSH1 0x19 PUSH1 0x24 DUP3 ADD MSTORE PUSH32 0x455243323050617573653A2043616C6C2052656A656374656400000000000000 PUSH1 0x44 DUP3 ADD MSTORE PUSH1 0x64 ADD PUSH2 0xC99 JUMP JUMPDEST DUP2 ISZERO PUSH2 0x338D JUMPI PUSH2 0x3370 PUSH1 0x4C DUP6 PUSH2 0x3769 JUMP JUMPDEST ISZERO PUSH2 0x338D JUMPI PUSH1 0x40 MLOAD PUSH3 0x461BCD PUSH1 0xE5 SHL DUP2 MSTORE PUSH1 0x4 ADD PUSH2 0xC99 SWAP1 PUSH2 0x5829 JUMP JUMPDEST POP POP POP POP POP JUMP JUMPDEST PUSH1 0x1 PUSH1 0x1 PUSH1 0xA0 SHL SUB DUP4 AND PUSH2 0x33E2 JUMPI PUSH1 0x40 MLOAD PUSH3 0x461BCD PUSH1 0xE5 SHL DUP2 MSTORE PUSH1 0x20 PUSH1 0x4 DUP3 ADD MSTORE PUSH1 0x15 PUSH1 0x24 DUP3 ADD MSTORE PUSH21 0x496E76616C6964204F776E65722041646472657373 PUSH1 0x58 SHL PUSH1 0x44 DUP3 ADD MSTORE PUSH1 0x64 ADD PUSH2 0xC99 JUMP JUMPDEST PUSH1 0x1 PUSH1 0x1 PUSH1 0xA0 SHL SUB DUP3 AND PUSH2 0x3438 JUMPI PUSH1 0x40 MLOAD PUSH3 0x461BCD PUSH1 0xE5 SHL DUP2 MSTORE PUSH1 0x20 PUSH1 0x4 DUP3 ADD MSTORE PUSH1 0x17 PUSH1 0x24 DUP3 ADD MSTORE PUSH32 0x496E76616C6964205370656E6465722041646472657373000000000000000000 PUSH1 0x44 DUP3 ADD MSTORE PUSH1 0x64 ADD PUSH2 0xC99 JUMP JUMPDEST PUSH1 0x1 PUSH1 0x1 PUSH1 0xA0 SHL SUB DUP4 DUP2 AND PUSH1 0x0 DUP2 DUP2 MSTORE PUSH1 0x4A PUSH1 0x20 SWAP1 DUP2 MSTORE PUSH1 0x40 DUP1 DUP4 KECCAK256 SWAP5 DUP8 AND DUP1 DUP5 MSTORE SWAP5 DUP3 MSTORE SWAP2 DUP3 SWAP1 KECCAK256 DUP6 SWAP1 SSTORE SWAP1 MLOAD DUP5 DUP2 MSTORE PUSH32 0x8C5BE1E5EBEC7D5BD14F71427D1E84F3DD0314C0F7B2291E5B200AC8C7C3B925 SWAP2 ADD JUMPDEST PUSH1 0x40 MLOAD DUP1 SWAP2 SUB SWAP1 LOG3 POP POP POP JUMP JUMPDEST PUSH1 0x0 PUSH1 0x0 DUP1 MLOAD PUSH1 0x20 PUSH2 0x5EF4 DUP4 CODECOPY DUP2 MLOAD SWAP2 MSTORE JUMPDEST SLOAD PUSH1 0x1 PUSH1 0x1 PUSH1 0xA0 SHL SUB AND SWAP2 SWAP1 POP JUMP JUMPDEST PUSH1 0x0 PUSH32 0xB53127684A568B3173AE13B9F8A6016E243E63B6E8EE1178D6A717850B5D6103 PUSH2 0x34AC JUMP JUMPDEST PUSH2 0x34F1 DUP7 DUP7 DUP7 DUP7 DUP7 DUP7 PUSH2 0x4566 JUMP JUMPDEST POP POP POP POP POP POP JUMP JUMPDEST PUSH1 0x0 DUP1 SLOAD PUSH1 0x1 SLOAD PUSH1 0x2 SLOAD PUSH1 0x40 MLOAD PUSH4 0x97CA328D PUSH1 0xE0 SHL DUP2 MSTORE DUP5 SWAP4 PUSH20 0x0 SWAP4 PUSH4 0x97CA328D SWAP4 PUSH2 0x354B SWAP4 PUSH1 0x4 ADD SWAP3 DUP4 MSTORE PUSH1 0x20 DUP4 ADD SWAP2 SWAP1 SWAP2 MSTORE PUSH1 0x40 DUP3 ADD MSTORE PUSH1 0x60 ADD SWAP1 JUMP JUMPDEST PUSH1 0x0 PUSH1 0x40 MLOAD DUP1 DUP4 SUB DUP2 DUP7 GAS DELEGATECALL ISZERO DUP1 ISZERO PUSH2 0x3568 JUMPI RETURNDATASIZE PUSH1 0x0 DUP1 RETURNDATACOPY RETURNDATASIZE PUSH1 0x0 REVERT JUMPDEST POP POP POP POP PUSH1 0x40 MLOAD RETURNDATASIZE PUSH1 0x0 DUP3 RETURNDATACOPY PUSH1 0x1F RETURNDATASIZE SWAP1 DUP2 ADD PUSH1 0x1F NOT AND DUP3 ADD PUSH1 0x40 MSTORE PUSH2 0x3590 SWAP2 SWAP1 DUP2 ADD SWAP1 PUSH2 0x5AD9 JUMP JUMPDEST PUSH1 0x3 SLOAD PUSH1 0x40 MLOAD PUSH4 0x78EFA4ED PUSH1 0xE1 SHL DUP2 MSTORE SWAP3 SWAP5 POP SWAP1 SWAP3 POP PUSH1 0x1 PUSH1 0x1 PUSH1 0xA0 SHL SUB AND SWAP1 PUSH4 0xF1DF49DA SWAP1 PUSH2 0x35CA SWAP1 DUP8 SWAP1 DUP8 SWAP1 DUP8 SWAP1 DUP8 SWAP1 PUSH1 0x4 ADD PUSH2 0x5BBE JUMP JUMPDEST PUSH1 0x20 PUSH1 0x40 MLOAD DUP1 DUP4 SUB DUP2 PUSH1 0x0 DUP8 GAS CALL ISZERO DUP1 ISZERO PUSH2 0x35E9 JUMPI RETURNDATASIZE PUSH1 0x0 DUP1 RETURNDATACOPY RETURNDATASIZE PUSH1 0x0 REVERT JUMPDEST POP POP POP POP PUSH1 0x40 MLOAD RETURNDATASIZE PUSH1 0x1F NOT PUSH1 0x1F DUP3 ADD AND DUP3 ADD DUP1 PUSH1 0x40 MSTORE POP DUP2 ADD SWAP1 PUSH2 0x360D SWAP2 SWAP1 PUSH2 0x595C JUMP JUMPDEST POP PUSH2 0x3616 PUSH2 0x349A JUMP JUMPDEST PUSH1 0x1 PUSH1 0x1 PUSH1 0xA0 SHL SUB AND ADDRESS CALLER PUSH1 0x1 PUSH1 0x1 PUSH1 0xA0 SHL SUB AND PUSH32 0xF851A1E85477B818FC72AD517EA622CC316F10F67D61C9E740ADC151A8B41394 DUP13 DUP13 DUP13 DUP13 DUP13 PUSH2 0x365D PUSH1 0x50 SLOAD PUSH2 0xFFFF AND SWAP1 JUMP JUMPDEST PUSH1 0x40 MLOAD PUSH2 0x366F SWAP7 SWAP6 SWAP5 SWAP4 SWAP3 SWAP2 SWAP1 PUSH2 0x5CCA JUMP JUMPDEST PUSH1 0x40 MLOAD DUP1 SWAP2 SUB SWAP1 LOG4 POP POP POP POP POP POP POP POP POP JUMP JUMPDEST PUSH1 0x40 MLOAD PUSH4 0xF7D6B5AF PUSH1 0xE0 SHL DUP2 MSTORE PUSH1 0x49 PUSH1 0x4 DUP3 ADD MSTORE PUSH1 0x24 DUP2 ADD DUP3 SWAP1 MSTORE PUSH1 0x0 SWAP1 DUP2 SWAP1 PUSH20 0x0 SWAP1 PUSH4 0xF7D6B5AF SWAP1 PUSH1 0x44 ADD PUSH1 0x20 PUSH1 0x40 MLOAD DUP1 DUP4 SUB DUP2 DUP7 GAS DELEGATECALL ISZERO DUP1 ISZERO PUSH2 0x36DE JUMPI RETURNDATASIZE PUSH1 0x0 DUP1 RETURNDATACOPY RETURNDATASIZE PUSH1 0x0 REVERT JUMPDEST POP POP POP POP PUSH1 0x40 MLOAD RETURNDATASIZE PUSH1 0x1F NOT PUSH1 0x1F DUP3 ADD AND DUP3 ADD DUP1 PUSH1 0x40 MSTORE POP DUP2 ADD SWAP1 PUSH2 0x3702 SWAP2 SWAP1 PUSH2 0x595C JUMP JUMPDEST CALLER PUSH1 0x0 DUP2 DUP2 MSTORE PUSH1 0x4B PUSH1 0x20 SWAP1 DUP2 MSTORE PUSH1 0x40 DUP1 DUP4 KECCAK256 DUP9 DUP5 MSTORE DUP3 MSTORE SWAP2 DUP3 SWAP1 KECCAK256 PUSH1 0x2 ADD SLOAD SWAP2 MLOAD DUP5 DUP2 MSTORE SWAP4 SWAP5 POP PUSH1 0x1 PUSH1 0x1 PUSH1 0xA0 SHL SUB SWAP1 SWAP2 AND SWAP3 DUP7 SWAP2 PUSH32 0x2A0EB8CA138E1B0C7A85D2F8F43D0F3FE72C27B59C53365FDCE897E3E6F32718 SWAP2 ADD JUMPDEST PUSH1 0x40 MLOAD DUP1 SWAP2 SUB SWAP1 LOG4 SWAP3 SWAP2 POP POP JUMP JUMPDEST PUSH1 0x1 PUSH1 0x1 PUSH1 0xA0 SHL SUB DUP2 AND PUSH1 0x0 SWAP1 DUP2 MSTORE PUSH1 0x1 DUP4 ADD PUSH1 0x20 MSTORE PUSH1 0x40 DUP2 KECCAK256 SLOAD ISZERO ISZERO PUSH2 0x1193 JUMP JUMPDEST PUSH1 0x47 SLOAD PUSH1 0x0 SWAP1 CALLER SWAP1 ISZERO DUP1 ISZERO SWAP1 PUSH2 0x37A7 JUMPI POP PUSH2 0x37A5 CALLER PUSH2 0x22E4 JUMP JUMPDEST ISZERO JUMPDEST ISZERO PUSH2 0x37BC JUMPI PUSH2 0x37B7 DUP6 DUP6 DUP6 PUSH2 0x433C JUMP JUMPDEST PUSH2 0x37C7 JUMP JUMPDEST PUSH2 0x37C7 DUP6 DUP6 DUP6 PUSH2 0x43C3 JUMP JUMPDEST PUSH2 0x37D2 DUP6 DUP3 DUP6 PUSH2 0x42CB JUMP JUMPDEST DUP4 PUSH1 0x1 PUSH1 0x1 PUSH1 0xA0 SHL SUB AND DUP6 PUSH1 0x1 PUSH1 0x1 PUSH1 0xA0 SHL SUB AND DUP3 PUSH1 0x1 PUSH1 0x1 PUSH1 0xA0 SHL SUB AND PUSH32 0x5F7542858008EEB041631F30E6109AE94B83A58E9A58261DD2C42C508850F939 DUP7 PUSH1 0x40 MLOAD PUSH2 0x3821 SWAP2 DUP2 MSTORE PUSH1 0x20 ADD SWAP1 JUMP JUMPDEST PUSH1 0x40 MLOAD DUP1 SWAP2 SUB SWAP1 LOG4 POP PUSH1 0x1 SWAP5 SWAP4 POP POP POP POP JUMP JUMPDEST PUSH1 0x1 PUSH1 0x1 PUSH1 0xA0 SHL SUB SWAP2 DUP3 AND PUSH1 0x0 SWAP1 DUP2 MSTORE PUSH1 0x4A PUSH1 0x20 SWAP1 DUP2 MSTORE PUSH1 0x40 DUP1 DUP4 KECCAK256 SWAP4 SWAP1 SWAP5 AND DUP3 MSTORE SWAP2 SWAP1 SWAP2 MSTORE KECCAK256 SLOAD SWAP1 JUMP JUMPDEST PUSH1 0x0 PUSH1 0x1 PUSH1 0x1 PUSH1 0xA0 SHL SUB DUP4 AND PUSH2 0x3887 JUMPI PUSH1 0x40 MLOAD PUSH3 0x461BCD PUSH1 0xE5 SHL DUP2 MSTORE PUSH1 0x4 ADD PUSH2 0xC99 SWAP1 PUSH2 0x5897 JUMP JUMPDEST DUP2 PUSH1 0x46 PUSH1 0x0 DUP3 DUP3 SLOAD PUSH2 0x3899 SWAP2 SWAP1 PUSH2 0x57FD JUMP JUMPDEST SWAP1 SWAP2 SSTORE POP POP PUSH1 0x1 PUSH1 0x1 PUSH1 0xA0 SHL SUB DUP4 AND PUSH1 0x0 SWAP1 DUP2 MSTORE PUSH1 0x49 PUSH1 0x20 MSTORE PUSH1 0x40 DUP2 KECCAK256 DUP1 SLOAD DUP5 SWAP3 SWAP1 PUSH2 0x38C6 SWAP1 DUP5 SWAP1 PUSH2 0x57FD JUMP JUMPDEST SWAP1 SWAP2 SSTORE POP POP PUSH1 0x46 SLOAD PUSH1 0x40 DUP1 MLOAD DUP5 DUP2 MSTORE PUSH1 0x20 DUP2 ADD SWAP3 SWAP1 SWAP3 MSTORE PUSH1 0x1 PUSH1 0x1 PUSH1 0xA0 SHL SUB DUP6 AND SWAP2 CALLER SWAP2 PUSH32 0x2F00E3CDD69A77BE7ED215EC7B2A36784DD158F921FCA79AC29DEFFA353FE6EE SWAP2 ADD PUSH1 0x40 MLOAD DUP1 SWAP2 SUB SWAP1 LOG3 POP PUSH1 0x46 SLOAD SWAP3 SWAP2 POP POP JUMP JUMPDEST PUSH1 0x3 SLOAD PUSH1 0x0 SWAP1 PUSH1 0x1 PUSH1 0x1 PUSH1 0xA0 SHL SUB AND ADDRESS SUB PUSH2 0x3A0D JUMPI PUSH1 0x0 PUSH4 0x63D59CF3 PUSH1 0xE1 SHL PUSH2 0x3947 ADDRESS PUSH2 0x40E7 JUMP JUMPDEST CALLER DUP6 PUSH1 0x40 MLOAD PUSH1 0x24 ADD PUSH2 0x395B SWAP4 SWAP3 SWAP2 SWAP1 PUSH2 0x5D0F JUMP JUMPDEST PUSH1 0x40 DUP1 MLOAD PUSH1 0x1F NOT DUP2 DUP5 SUB ADD DUP2 MSTORE SWAP2 SWAP1 MSTORE PUSH1 0x20 DUP2 ADD DUP1 MLOAD PUSH1 0x1 PUSH1 0x1 PUSH1 0xE0 SHL SUB AND PUSH1 0x1 PUSH1 0x1 PUSH1 0xE0 SHL SUB NOT SWAP1 SWAP4 AND SWAP3 SWAP1 SWAP3 OR SWAP1 SWAP2 MSTORE SWAP1 POP PUSH1 0x0 PUSH2 0x39D8 PUSH2 0x399C PUSH2 0x349A JUMP JUMPDEST DUP4 PUSH1 0x40 MLOAD DUP1 PUSH1 0x40 ADD PUSH1 0x40 MSTORE DUP1 PUSH1 0x1D DUP2 MSTORE PUSH1 0x20 ADD PUSH32 0x44656C656761746563616C6C20686173416363657373204661696C6564000000 DUP2 MSTORE POP PUSH2 0x4774 JUMP JUMPDEST SWAP1 POP DUP1 PUSH1 0x1 DUP3 MLOAD PUSH2 0x39E9 SWAP2 SWAP1 PUSH2 0x5904 JUMP JUMPDEST DUP2 MLOAD DUP2 LT PUSH2 0x39F9 JUMPI PUSH2 0x39F9 PUSH2 0x57D1 JUMP JUMPDEST PUSH1 0x20 SWAP2 ADD ADD MLOAD PUSH1 0xF8 SHR PUSH1 0x1 EQ SWAP5 SWAP4 POP POP POP POP JUMP JUMPDEST PUSH1 0x3 SLOAD PUSH1 0x1 PUSH1 0x1 PUSH1 0xA0 SHL SUB AND PUSH4 0xC7AB39E6 PUSH2 0x3A27 ADDRESS PUSH2 0x40E7 JUMP JUMPDEST CALLER DUP6 PUSH1 0x40 MLOAD DUP5 PUSH4 0xFFFFFFFF AND PUSH1 0xE0 SHL DUP2 MSTORE PUSH1 0x4 ADD PUSH2 0x3A47 SWAP4 SWAP3 SWAP2 SWAP1 PUSH2 0x5D0F JUMP JUMPDEST PUSH1 0x20 PUSH1 0x40 MLOAD DUP1 DUP4 SUB DUP2 DUP7 GAS STATICCALL ISZERO DUP1 ISZERO PUSH2 0x3A64 JUMPI RETURNDATASIZE PUSH1 0x0 DUP1 RETURNDATACOPY RETURNDATASIZE PUSH1 0x0 REVERT JUMPDEST POP POP POP POP PUSH1 0x40 MLOAD RETURNDATASIZE PUSH1 0x1F NOT PUSH1 0x1F DUP3 ADD AND DUP3 ADD DUP1 PUSH1 0x40 MSTORE POP DUP2 ADD SWAP1 PUSH2 0xB8E SWAP2 SWAP1 PUSH2 0x5922 JUMP JUMPDEST PUSH1 0x0 PUSH1 0x1 PUSH1 0x1 PUSH1 0xA0 SHL SUB DUP4 AND CALLER PUSH1 0x1 PUSH1 0x1 PUSH1 0xA0 SHL SUB AND PUSH32 0x85766EB39B0AC39AD7E8AFBF36233D9ADB1AF81136BBEA1F94CACD4B2E272C69 DUP5 PUSH1 0x40 MLOAD PUSH2 0x3AD1 SWAP2 ISZERO ISZERO DUP2 MSTORE PUSH1 0x20 ADD SWAP1 JUMP JUMPDEST PUSH1 0x40 MLOAD DUP1 SWAP2 SUB SWAP1 LOG3 PUSH1 0x40 MLOAD PUSH4 0x4572E0C1 PUSH1 0xE0 SHL DUP2 MSTORE PUSH1 0x49 PUSH1 0x4 DUP3 ADD MSTORE PUSH1 0x1 PUSH1 0x1 PUSH1 0xA0 SHL SUB DUP5 AND PUSH1 0x24 DUP3 ADD MSTORE DUP3 ISZERO ISZERO PUSH1 0x44 DUP3 ADD MSTORE PUSH20 0x0 SWAP1 PUSH4 0x4572E0C1 SWAP1 PUSH1 0x64 ADD PUSH1 0x20 PUSH1 0x40 MLOAD DUP1 DUP4 SUB DUP2 DUP7 GAS DELEGATECALL ISZERO DUP1 ISZERO PUSH2 0x3B40 JUMPI RETURNDATASIZE PUSH1 0x0 DUP1 RETURNDATACOPY RETURNDATASIZE PUSH1 0x0 REVERT JUMPDEST POP POP POP POP PUSH1 0x40 MLOAD RETURNDATASIZE PUSH1 0x1F NOT PUSH1 0x1F DUP3 ADD AND DUP3 ADD DUP1 PUSH1 0x40 MSTORE POP DUP2 ADD SWAP1 PUSH2 0x1193 SWAP2 SWAP1 PUSH2 0x5922 JUMP JUMPDEST PUSH1 0x3 SLOAD PUSH1 0x0 SWAP1 PUSH1 0x1 PUSH1 0x1 PUSH1 0xA0 SHL SUB AND ADDRESS SUB PUSH2 0x3C2C JUMPI PUSH1 0x0 PUSH4 0xE25D75F0 PUSH1 0xE0 SHL PUSH1 0x2 SLOAD PUSH1 0x40 MLOAD PUSH1 0x24 ADD PUSH2 0x3B98 SWAP2 DUP2 MSTORE PUSH1 0x20 ADD SWAP1 JUMP JUMPDEST PUSH1 0x40 DUP1 MLOAD PUSH1 0x1F NOT DUP2 DUP5 SUB ADD DUP2 MSTORE SWAP2 SWAP1 MSTORE PUSH1 0x20 DUP2 ADD DUP1 MLOAD PUSH1 0x1 PUSH1 0x1 PUSH1 0xE0 SHL SUB AND PUSH1 0x1 PUSH1 0x1 PUSH1 0xE0 SHL SUB NOT SWAP1 SWAP4 AND SWAP3 SWAP1 SWAP3 OR SWAP1 SWAP2 MSTORE SWAP1 POP PUSH1 0x0 PUSH2 0x3BF8 PUSH2 0x3BD9 PUSH2 0x349A JUMP JUMPDEST DUP4 PUSH1 0x40 MLOAD DUP1 PUSH1 0x60 ADD PUSH1 0x40 MSTORE DUP1 PUSH1 0x25 DUP2 MSTORE PUSH1 0x20 ADD PUSH2 0x5ECF PUSH1 0x25 SWAP2 CODECOPY PUSH2 0x4774 JUMP JUMPDEST SWAP1 POP DUP1 PUSH1 0x1 DUP3 MLOAD PUSH2 0x3C09 SWAP2 SWAP1 PUSH2 0x5904 JUMP JUMPDEST DUP2 MLOAD DUP2 LT PUSH2 0x3C19 JUMPI PUSH2 0x3C19 PUSH2 0x57D1 JUMP JUMPDEST PUSH1 0x20 SWAP2 ADD ADD MLOAD PUSH1 0xF8 SHR PUSH1 0x1 EQ SWAP4 SWAP3 POP POP POP JUMP JUMPDEST PUSH1 0x3 SLOAD PUSH1 0x2 SLOAD PUSH1 0x40 MLOAD PUSH4 0xE25D75F PUSH1 0xE4 SHL DUP2 MSTORE PUSH1 0x1 PUSH1 0x1 PUSH1 0xA0 SHL SUB SWAP1 SWAP3 AND SWAP2 PUSH4 0xE25D75F0 SWAP2 PUSH2 0x3C61 SWAP2 PUSH1 0x4 ADD SWAP1 DUP2 MSTORE PUSH1 0x20 ADD SWAP1 JUMP JUMPDEST PUSH1 0x20 PUSH1 0x40 MLOAD DUP1 DUP4 SUB DUP2 DUP7 GAS STATICCALL ISZERO DUP1 ISZERO PUSH2 0x3C7E JUMPI RETURNDATASIZE PUSH1 0x0 DUP1 RETURNDATACOPY RETURNDATASIZE PUSH1 0x0 REVERT JUMPDEST POP POP POP POP PUSH1 0x40 MLOAD RETURNDATASIZE PUSH1 0x1F NOT PUSH1 0x1F DUP3 ADD AND DUP3 ADD DUP1 PUSH1 0x40 MSTORE POP DUP2 ADD SWAP1 PUSH2 0x11A9 SWAP2 SWAP1 PUSH2 0x5922 JUMP JUMPDEST PUSH1 0x0 PUSH2 0x1193 DUP4 PUSH1 0x1 PUSH1 0x1 PUSH1 0xA0 SHL SUB DUP5 AND PUSH2 0x483D JUMP JUMPDEST PUSH1 0x0 DUP1 PUSH20 0x0 PUSH4 0x10E1FC40 PUSH1 0x49 DUP6 PUSH1 0x40 MLOAD DUP4 PUSH4 0xFFFFFFFF AND PUSH1 0xE0 SHL DUP2 MSTORE PUSH1 0x4 ADD PUSH2 0x3CF4 SWAP3 SWAP2 SWAP1 PUSH2 0x5D38 JUMP JUMPDEST PUSH1 0x20 PUSH1 0x40 MLOAD DUP1 DUP4 SUB DUP2 DUP7 GAS DELEGATECALL ISZERO DUP1 ISZERO PUSH2 0x3D11 JUMPI RETURNDATASIZE PUSH1 0x0 DUP1 RETURNDATACOPY RETURNDATASIZE PUSH1 0x0 REVERT JUMPDEST POP POP POP POP PUSH1 0x40 MLOAD RETURNDATASIZE PUSH1 0x1F NOT PUSH1 0x1F DUP3 ADD AND DUP3 ADD DUP1 PUSH1 0x40 MSTORE POP DUP2 ADD SWAP1 PUSH2 0x3D35 SWAP2 SWAP1 PUSH2 0x595C JUMP JUMPDEST SWAP1 POP PUSH2 0x3D44 PUSH1 0x20 DUP5 ADD DUP5 PUSH2 0x4FC0 JUMP JUMPDEST PUSH1 0x1 PUSH1 0x1 PUSH1 0xA0 SHL SUB AND CALLER DUP3 PUSH32 0x8C6C9F95AFE4C944C9F81D2965F0A9A0C021CE66AC4020DD8B25953A971F9148 PUSH2 0x3D80 PUSH1 0x40 DUP9 ADD PUSH1 0x20 DUP10 ADD PUSH2 0x4FC0 JUMP JUMPDEST PUSH1 0x40 DUP1 MLOAD PUSH1 0x1 PUSH1 0x1 PUSH1 0xA0 SHL SUB SWAP1 SWAP3 AND DUP3 MSTORE DUP1 DUP10 ADD CALLDATALOAD PUSH1 0x20 DUP4 ADD MSTORE PUSH1 0x60 DUP1 DUP11 ADD CALLDATALOAD SWAP2 DUP4 ADD SWAP2 SWAP1 SWAP2 MSTORE ADD PUSH2 0x375B JUMP JUMPDEST PUSH2 0x3DB5 PUSH2 0x349A JUMP JUMPDEST PUSH1 0x1 PUSH1 0x1 PUSH1 0xA0 SHL SUB AND DUP2 PUSH1 0x1 PUSH1 0x1 PUSH1 0xA0 SHL SUB AND SUB PUSH2 0x3E15 JUMPI PUSH1 0x40 MLOAD PUSH3 0x461BCD PUSH1 0xE5 SHL DUP2 MSTORE PUSH1 0x20 PUSH1 0x4 DUP3 ADD MSTORE PUSH1 0x1A PUSH1 0x24 DUP3 ADD MSTORE PUSH32 0x496C6C6567616C204E657720496D706C656D656E746174696F6E000000000000 PUSH1 0x44 DUP3 ADD MSTORE PUSH1 0x64 ADD PUSH2 0xC99 JUMP JUMPDEST PUSH2 0x3E25 PUSH4 0x7147855D PUSH1 0xE0 SHL PUSH2 0x391F JUMP JUMPDEST PUSH2 0x3E71 JUMPI PUSH1 0x40 MLOAD PUSH3 0x461BCD PUSH1 0xE5 SHL DUP2 MSTORE PUSH1 0x20 PUSH1 0x4 DUP3 ADD MSTORE PUSH1 0x19 PUSH1 0x24 DUP3 ADD MSTORE PUSH32 0x5570677261646520436F6E7465787420466F7262696464656E00000000000000 PUSH1 0x44 DUP3 ADD MSTORE PUSH1 0x64 ADD PUSH2 0xC99 JUMP JUMPDEST POP JUMP JUMPDEST PUSH1 0x60 PUSH32 0x4910FDFA16FED3260ED0E7147F7CC6DA11A60208B5B9406D12A635614FFD9143 SLOAD PUSH1 0xFF AND ISZERO PUSH2 0x3EBE JUMPI PUSH2 0x3EA9 DUP5 PUSH2 0x4930 JUMP JUMPDEST POP PUSH1 0x40 DUP1 MLOAD PUSH1 0x0 DUP2 MSTORE PUSH1 0x20 DUP2 ADD SWAP1 SWAP2 MSTORE PUSH2 0x1193 JUMP JUMPDEST DUP4 PUSH1 0x1 PUSH1 0x1 PUSH1 0xA0 SHL SUB AND PUSH4 0x52D1902D PUSH1 0x40 MLOAD DUP2 PUSH4 0xFFFFFFFF AND PUSH1 0xE0 SHL DUP2 MSTORE PUSH1 0x4 ADD PUSH1 0x20 PUSH1 0x40 MLOAD DUP1 DUP4 SUB DUP2 DUP7 GAS STATICCALL SWAP3 POP POP POP DUP1 ISZERO PUSH2 0x3F18 JUMPI POP PUSH1 0x40 DUP1 MLOAD PUSH1 0x1F RETURNDATASIZE SWAP1 DUP2 ADD PUSH1 0x1F NOT AND DUP3 ADD SWAP1 SWAP3 MSTORE PUSH2 0x3F15 SWAP2 DUP2 ADD SWAP1 PUSH2 0x595C JUMP JUMPDEST PUSH1 0x1 JUMPDEST PUSH2 0x3F5C JUMPI PUSH1 0x40 MLOAD PUSH3 0x461BCD PUSH1 0xE5 SHL DUP2 MSTORE PUSH1 0x20 PUSH1 0x4 DUP3 ADD MSTORE PUSH1 0x15 PUSH1 0x24 DUP3 ADD MSTORE PUSH21 0x125B1B1959D85B0815555414C810DBDB9D1C9858DD PUSH1 0x5A SHL PUSH1 0x44 DUP3 ADD MSTORE PUSH1 0x64 ADD PUSH2 0xC99 JUMP JUMPDEST PUSH1 0x0 DUP1 MLOAD PUSH1 0x20 PUSH2 0x5EF4 DUP4 CODECOPY DUP2 MLOAD SWAP2 MSTORE DUP2 EQ PUSH2 0x3FB1 JUMPI PUSH1 0x40 MLOAD PUSH3 0x461BCD PUSH1 0xE5 SHL DUP2 MSTORE PUSH1 0x20 PUSH1 0x4 DUP3 ADD MSTORE PUSH1 0x15 PUSH1 0x24 DUP3 ADD MSTORE PUSH21 0x125B9D985B1A590815555414C810DBDB9D1C9858DD PUSH1 0x5A SHL PUSH1 0x44 DUP3 ADD MSTORE PUSH1 0x64 ADD PUSH2 0xC99 JUMP JUMPDEST POP PUSH1 0x40 MLOAD PUSH4 0x1FFC9A7 PUSH1 0xE0 SHL DUP2 MSTORE PUSH4 0x14751DBF PUSH1 0xE0 SHL PUSH1 0x4 DUP3 ADD MSTORE PUSH1 0x1 PUSH1 0x1 PUSH1 0xA0 SHL SUB DUP6 AND SWAP1 PUSH4 0x1FFC9A7 SWAP1 PUSH1 0x24 ADD PUSH1 0x20 PUSH1 0x40 MLOAD DUP1 DUP4 SUB DUP2 DUP7 GAS STATICCALL SWAP3 POP POP POP DUP1 ISZERO PUSH2 0x4019 JUMPI POP PUSH1 0x40 DUP1 MLOAD PUSH1 0x1F RETURNDATASIZE SWAP1 DUP2 ADD PUSH1 0x1F NOT AND DUP3 ADD SWAP1 SWAP3 MSTORE PUSH2 0x4016 SWAP2 DUP2 ADD SWAP1 PUSH2 0x5922 JUMP JUMPDEST PUSH1 0x1 JUMPDEST PUSH2 0x4065 JUMPI PUSH1 0x40 MLOAD PUSH3 0x461BCD PUSH1 0xE5 SHL DUP2 MSTORE PUSH1 0x20 PUSH1 0x4 DUP3 ADD MSTORE PUSH1 0x17 PUSH1 0x24 DUP3 ADD MSTORE PUSH32 0x496C6C6567616C204950726F787920436F6E7472616374000000000000000000 PUSH1 0x44 DUP3 ADD MSTORE PUSH1 0x64 ADD PUSH2 0xC99 JUMP JUMPDEST DUP1 PUSH2 0x40B2 JUMPI PUSH1 0x40 MLOAD PUSH3 0x461BCD PUSH1 0xE5 SHL DUP2 MSTORE PUSH1 0x20 PUSH1 0x4 DUP3 ADD MSTORE PUSH1 0x17 PUSH1 0x24 DUP3 ADD MSTORE PUSH32 0x496E76616C6964204950726F787920436F6E7472616374000000000000000000 PUSH1 0x44 DUP3 ADD MSTORE PUSH1 0x64 ADD PUSH2 0xC99 JUMP JUMPDEST POP PUSH2 0x40BE DUP5 DUP5 DUP5 PUSH2 0x49B1 JUMP JUMPDEST SWAP1 POP PUSH2 0x1193 JUMP JUMPDEST PUSH1 0x0 PUSH2 0x1193 DUP4 PUSH1 0x1 PUSH1 0x1 PUSH1 0xA0 SHL SUB DUP5 AND PUSH2 0x4A1B JUMP JUMPDEST PUSH1 0x60 PUSH1 0x0 PUSH2 0x1193 DUP4 PUSH2 0x4A6A JUMP JUMPDEST PUSH1 0x40 MLOAD PUSH12 0xFFFFFFFFFFFFFFFFFFFFFFFF NOT PUSH1 0x60 DUP4 SWAP1 SHL AND PUSH1 0x20 DUP3 ADD MSTORE PUSH1 0x0 SWAP1 PUSH1 0x34 ADD PUSH1 0x40 MLOAD PUSH1 0x20 DUP2 DUP4 SUB SUB DUP2 MSTORE SWAP1 PUSH1 0x40 MSTORE DUP1 MLOAD SWAP1 PUSH1 0x20 ADD KECCAK256 SWAP1 POP SWAP2 SWAP1 POP JUMP JUMPDEST PUSH1 0x0 DUP1 PUSH1 0x0 PUSH20 0x0 PUSH4 0xF1C3AFEF PUSH1 0x49 DUP7 PUSH1 0x40 MLOAD DUP4 PUSH4 0xFFFFFFFF AND PUSH1 0xE0 SHL DUP2 MSTORE PUSH1 0x4 ADD PUSH2 0x4165 SWAP3 SWAP2 SWAP1 PUSH2 0x5D90 JUMP JUMPDEST PUSH1 0x40 DUP1 MLOAD DUP1 DUP4 SUB DUP2 DUP7 GAS DELEGATECALL ISZERO DUP1 ISZERO PUSH2 0x4181 JUMPI RETURNDATASIZE PUSH1 0x0 DUP1 RETURNDATACOPY RETURNDATASIZE PUSH1 0x0 REVERT JUMPDEST POP POP POP POP PUSH1 0x40 MLOAD RETURNDATASIZE PUSH1 0x1F NOT PUSH1 0x1F DUP3 ADD AND DUP3 ADD DUP1 PUSH1 0x40 MSTORE POP DUP2 ADD SWAP1 PUSH2 0x41A5 SWAP2 SWAP1 PUSH2 0x5E17 JUMP JUMPDEST SWAP1 SWAP3 POP SWAP1 POP PUSH2 0x41BA PUSH1 0x40 DUP6 ADD PUSH1 0x20 DUP7 ADD PUSH2 0x4FC0 JUMP JUMPDEST PUSH1 0x1 PUSH1 0x1 PUSH1 0xA0 SHL SUB AND CALLER DUP6 CALLDATALOAD PUSH32 0x571AB3CB94EB114C4B41E4F4BBBE9625A6C546920DB08DDEA52BD3EC7CB58586 DUP6 DUP6 PUSH2 0x41F6 PUSH1 0x40 DUP12 ADD DUP12 PUSH2 0x5676 JUMP JUMPDEST PUSH1 0x40 MLOAD PUSH2 0x4206 SWAP5 SWAP4 SWAP3 SWAP2 SWAP1 PUSH2 0x5E45 JUMP JUMPDEST PUSH1 0x40 MLOAD DUP1 SWAP2 SUB SWAP1 LOG4 SWAP4 SWAP3 POP POP POP JUMP JUMPDEST PUSH1 0x1 PUSH1 0x1 PUSH1 0xA0 SHL SUB DUP2 AND PUSH1 0x0 SWAP1 DUP2 MSTORE PUSH1 0x49 PUSH1 0x20 MSTORE PUSH1 0x40 SWAP1 KECCAK256 PUSH1 0x2 ADD DUP1 SLOAD PUSH1 0x1 DUP2 ADD DUP3 SSTORE SWAP1 JUMPDEST POP SWAP2 SWAP1 POP JUMP JUMPDEST PUSH1 0x0 DUP1 SLOAD PUSH1 0x1 SLOAD PUSH1 0x40 DUP1 MLOAD PUSH32 0x8B73C3C69BB8FE3D512ECC4CF759CC79239F7B179B0FFACAA9A75D522B39400F PUSH1 0x20 DUP3 ADD MSTORE SWAP1 DUP2 ADD SWAP3 SWAP1 SWAP3 MSTORE PUSH1 0x60 DUP3 ADD MSTORE CHAINID PUSH1 0x80 DUP3 ADD MSTORE ADDRESS PUSH1 0xA0 DUP3 ADD MSTORE PUSH1 0xC0 ADD PUSH1 0x40 MLOAD PUSH1 0x20 DUP2 DUP4 SUB SUB DUP2 MSTORE SWAP1 PUSH1 0x40 MSTORE DUP1 MLOAD SWAP1 PUSH1 0x20 ADD KECCAK256 SWAP1 POP SWAP1 JUMP JUMPDEST PUSH1 0x0 DUP1 PUSH1 0x0 PUSH2 0x42B6 DUP6 DUP6 PUSH2 0x4AC6 JUMP JUMPDEST SWAP2 POP SWAP2 POP PUSH2 0x42C3 DUP2 PUSH2 0x4B34 JUMP JUMPDEST POP SWAP4 SWAP3 POP POP POP JUMP JUMPDEST PUSH1 0x0 PUSH2 0x42D7 DUP5 DUP5 PUSH2 0x3834 JUMP JUMPDEST SWAP1 POP DUP2 DUP2 LT ISZERO PUSH2 0x4329 JUMPI PUSH1 0x40 MLOAD PUSH3 0x461BCD PUSH1 0xE5 SHL DUP2 MSTORE PUSH1 0x20 PUSH1 0x4 DUP3 ADD MSTORE PUSH1 0x1E PUSH1 0x24 DUP3 ADD MSTORE PUSH32 0x496E73756666696369656E74204163636F756E7420416C6C6F77616E63650000 PUSH1 0x44 DUP3 ADD MSTORE PUSH1 0x64 ADD PUSH2 0xC99 JUMP JUMPDEST PUSH2 0x4336 DUP5 DUP5 DUP5 DUP5 SUB PUSH2 0x3394 JUMP JUMPDEST POP POP POP POP JUMP JUMPDEST PUSH1 0x0 PUSH2 0x4353 PUSH1 0x47 SLOAD DUP4 PUSH2 0x4CEA SWAP1 SWAP2 SWAP1 PUSH4 0xFFFFFFFF AND JUMP JUMPDEST SWAP1 POP PUSH1 0x0 PUSH2 0x43A1 DUP3 PUSH1 0x40 MLOAD DUP1 PUSH1 0x40 ADD PUSH1 0x40 MSTORE DUP1 PUSH1 0x1C DUP2 MSTORE PUSH1 0x20 ADD PUSH32 0x496E73756666696369656E74205472616E7366657220416D6F756E7400000000 DUP2 MSTORE POP DUP6 PUSH2 0x4D02 SWAP1 SWAP3 SWAP2 SWAP1 PUSH4 0xFFFFFFFF AND JUMP JUMPDEST PUSH1 0x48 SLOAD SWAP1 SWAP2 POP PUSH2 0x43BC SWAP1 DUP7 SWAP1 PUSH1 0x1 PUSH1 0x1 PUSH1 0xA0 SHL SUB AND DUP5 PUSH2 0x43C3 JUMP JUMPDEST PUSH2 0x338D DUP6 DUP6 DUP4 JUMPDEST PUSH1 0x40 MLOAD PUSH4 0x3DE90DB3 PUSH1 0xE0 SHL DUP2 MSTORE PUSH1 0x49 PUSH1 0x4 DUP3 ADD MSTORE PUSH1 0x1 PUSH1 0x1 PUSH1 0xA0 SHL SUB DUP1 DUP6 AND PUSH1 0x24 DUP4 ADD MSTORE DUP4 AND PUSH1 0x44 DUP3 ADD MSTORE PUSH1 0x64 DUP2 ADD DUP3 SWAP1 MSTORE PUSH20 0x0 SWAP1 PUSH4 0x3DE90DB3 SWAP1 PUSH1 0x84 ADD PUSH1 0x0 PUSH1 0x40 MLOAD DUP1 DUP4 SUB DUP2 DUP7 DUP1 EXTCODESIZE ISZERO DUP1 ISZERO PUSH2 0x442C JUMPI PUSH1 0x0 DUP1 REVERT JUMPDEST POP GAS DELEGATECALL ISZERO DUP1 ISZERO PUSH2 0x4440 JUMPI RETURNDATASIZE PUSH1 0x0 DUP1 RETURNDATACOPY RETURNDATASIZE PUSH1 0x0 REVERT JUMPDEST POP POP POP POP DUP2 PUSH1 0x1 PUSH1 0x1 PUSH1 0xA0 SHL SUB AND DUP4 PUSH1 0x1 PUSH1 0x1 PUSH1 0xA0 SHL SUB AND PUSH32 0xDDF252AD1BE2C89B69C2B068FC378DAA952BA7F163C4A11628F55A4DF523B3EF DUP4 PUSH1 0x40 MLOAD PUSH2 0x348D SWAP2 DUP2 MSTORE PUSH1 0x20 ADD SWAP1 JUMP JUMPDEST PUSH32 0xB53127684A568B3173AE13B9F8A6016E243E63B6E8EE1178D6A717850B5D6103 DUP1 SLOAD PUSH1 0x1 PUSH1 0x1 PUSH1 0xA0 SHL SUB DUP4 AND PUSH1 0x1 PUSH1 0x1 PUSH1 0xA0 SHL SUB NOT SWAP1 SWAP2 AND DUP2 OR SWAP1 SWAP2 SSTORE PUSH1 0x40 DUP1 MLOAD SWAP2 DUP3 MSTORE MLOAD ADDRESS SWAP2 CALLER SWAP2 PUSH32 0x54AB0D18DE7958786BA1AD85966D59BAA2B395455F0530DCDCFD732E6AF539E2 SWAP2 DUP2 SWAP1 SUB PUSH1 0x20 ADD SWAP1 LOG3 POP JUMP JUMPDEST PUSH1 0x1 PUSH1 0x1 PUSH1 0xA0 SHL SUB DUP2 AND PUSH1 0x0 SWAP1 DUP2 MSTORE PUSH1 0x49 PUSH1 0x20 MSTORE PUSH1 0x40 SWAP1 KECCAK256 SLOAD ISZERO PUSH2 0x3E71 JUMPI PUSH1 0x40 MLOAD PUSH3 0x461BCD PUSH1 0xE5 SHL DUP2 MSTORE PUSH1 0x20 PUSH1 0x4 DUP3 ADD MSTORE PUSH1 0x1B PUSH1 0x24 DUP3 ADD MSTORE PUSH32 0x4173736574496420416C72656164792044697374726962757465640000000000 PUSH1 0x44 DUP3 ADD MSTORE PUSH1 0x64 ADD PUSH2 0xC99 JUMP JUMPDEST PUSH1 0x50 SLOAD PUSH3 0x10000 SWAP1 DIV PUSH1 0xFF AND PUSH2 0x45BE JUMPI PUSH1 0x40 MLOAD PUSH3 0x461BCD PUSH1 0xE5 SHL DUP2 MSTORE PUSH1 0x20 PUSH1 0x4 DUP3 ADD MSTORE PUSH1 0x19 PUSH1 0x24 DUP3 ADD MSTORE PUSH32 0x436F6E7472616374204E6F7420496E697469616C697A696E6700000000000000 PUSH1 0x44 DUP3 ADD MSTORE PUSH1 0x64 ADD PUSH2 0xC99 JUMP JUMPDEST DUP6 DUP6 PUSH1 0x40 MLOAD PUSH1 0x20 ADD PUSH2 0x45D1 SWAP3 SWAP2 SWAP1 PUSH2 0x56BC JUMP JUMPDEST PUSH1 0x40 DUP1 MLOAD PUSH1 0x1F NOT DUP2 DUP5 SUB ADD DUP2 MSTORE SWAP1 DUP3 SWAP1 MSTORE DUP1 MLOAD PUSH1 0x20 SWAP2 DUP3 ADD KECCAK256 PUSH1 0x0 SSTORE PUSH2 0x45FB SWAP2 DUP7 SWAP2 DUP7 SWAP2 ADD PUSH2 0x56BC JUMP JUMPDEST PUSH1 0x40 DUP1 MLOAD PUSH1 0x1F NOT DUP2 DUP5 SUB ADD DUP2 MSTORE SWAP2 SWAP1 MSTORE DUP1 MLOAD PUSH1 0x20 SWAP1 SWAP2 ADD KECCAK256 PUSH1 0x1 SSTORE PUSH1 0x2 DUP3 SWAP1 SSTORE PUSH1 0x1 PUSH1 0x1 PUSH1 0xA0 SHL SUB DUP2 AND PUSH2 0x4640 JUMPI PUSH1 0x3 DUP1 SLOAD PUSH1 0x1 PUSH1 0x1 PUSH1 0xA0 SHL SUB NOT AND ADDRESS OR SWAP1 SSTORE PUSH2 0x475D JUMP JUMPDEST PUSH1 0x40 MLOAD PUSH4 0x1FFC9A7 PUSH1 0xE0 SHL DUP2 MSTORE PUSH4 0x14B83435 PUSH1 0xE3 SHL PUSH1 0x4 DUP3 ADD MSTORE PUSH1 0x1 PUSH1 0x1 PUSH1 0xA0 SHL SUB DUP3 AND SWAP1 PUSH4 0x1FFC9A7 SWAP1 PUSH1 0x24 ADD PUSH1 0x20 PUSH1 0x40 MLOAD DUP1 DUP4 SUB DUP2 DUP7 GAS STATICCALL SWAP3 POP POP POP DUP1 ISZERO PUSH2 0x46A7 JUMPI POP PUSH1 0x40 DUP1 MLOAD PUSH1 0x1F RETURNDATASIZE SWAP1 DUP2 ADD PUSH1 0x1F NOT AND DUP3 ADD SWAP1 SWAP3 MSTORE PUSH2 0x46A4 SWAP2 DUP2 ADD SWAP1 PUSH2 0x5922 JUMP JUMPDEST PUSH1 0x1 JUMPDEST PUSH2 0x46F3 JUMPI PUSH1 0x40 MLOAD PUSH3 0x461BCD PUSH1 0xE5 SHL DUP2 MSTORE PUSH1 0x20 PUSH1 0x4 DUP3 ADD MSTORE PUSH1 0x1C PUSH1 0x24 DUP3 ADD MSTORE PUSH32 0x496C6C6567616C20416363657373436F6E74726F6C4D616E6167657200000000 PUSH1 0x44 DUP3 ADD MSTORE PUSH1 0x64 ADD PUSH2 0xC99 JUMP JUMPDEST DUP1 PUSH2 0x4740 JUMPI PUSH1 0x40 MLOAD PUSH3 0x461BCD PUSH1 0xE5 SHL DUP2 MSTORE PUSH1 0x20 PUSH1 0x4 DUP3 ADD MSTORE PUSH1 0x1C PUSH1 0x24 DUP3 ADD MSTORE PUSH32 0x496E76616C696420416363657373436F6E74726F6C4D616E6167657200000000 PUSH1 0x44 DUP3 ADD MSTORE PUSH1 0x64 ADD PUSH2 0xC99 JUMP JUMPDEST POP PUSH1 0x3 DUP1 SLOAD PUSH1 0x1 PUSH1 0x1 PUSH1 0xA0 SHL SUB NOT AND PUSH1 0x1 PUSH1 0x1 PUSH1 0xA0 SHL SUB DUP4 AND OR SWAP1 SSTORE JUMPDEST PUSH1 0x3 DUP1 SLOAD PUSH2 0xFFFF PUSH1 0xA0 SHL NOT AND SWAP1 SSTORE PUSH2 0x34F1 CALLER PUSH2 0x4489 JUMP JUMPDEST PUSH1 0x60 PUSH1 0x1 PUSH1 0x1 PUSH1 0xA0 SHL SUB DUP5 AND EXTCODESIZE PUSH2 0x47C8 JUMPI PUSH1 0x40 MLOAD PUSH3 0x461BCD PUSH1 0xE5 SHL DUP2 MSTORE PUSH1 0x20 PUSH1 0x4 DUP3 ADD MSTORE PUSH1 0x18 PUSH1 0x24 DUP3 ADD MSTORE PUSH24 0x496C6C6567616C20436F6E74726163742041646472657373 PUSH1 0x40 SHL PUSH1 0x44 DUP3 ADD MSTORE PUSH1 0x64 ADD PUSH2 0xC99 JUMP JUMPDEST PUSH1 0x0 DUP1 DUP6 PUSH1 0x1 PUSH1 0x1 PUSH1 0xA0 SHL SUB AND DUP6 PUSH1 0x40 MLOAD PUSH2 0x47E3 SWAP2 SWAP1 PUSH2 0x5E6D JUMP JUMPDEST PUSH1 0x0 PUSH1 0x40 MLOAD DUP1 DUP4 SUB DUP2 DUP6 GAS DELEGATECALL SWAP2 POP POP RETURNDATASIZE DUP1 PUSH1 0x0 DUP2 EQ PUSH2 0x481E JUMPI PUSH1 0x40 MLOAD SWAP2 POP PUSH1 0x1F NOT PUSH1 0x3F RETURNDATASIZE ADD AND DUP3 ADD PUSH1 0x40 MSTORE RETURNDATASIZE DUP3 MSTORE RETURNDATASIZE PUSH1 0x0 PUSH1 0x20 DUP5 ADD RETURNDATACOPY PUSH2 0x4823 JUMP JUMPDEST PUSH1 0x60 SWAP2 POP JUMPDEST POP SWAP2 POP SWAP2 POP PUSH2 0x4833 DUP3 DUP3 DUP7 PUSH2 0x4D2E JUMP JUMPDEST SWAP7 SWAP6 POP POP POP POP POP POP JUMP JUMPDEST PUSH1 0x0 DUP2 DUP2 MSTORE PUSH1 0x1 DUP4 ADD PUSH1 0x20 MSTORE PUSH1 0x40 DUP2 KECCAK256 SLOAD DUP1 ISZERO PUSH2 0x4926 JUMPI PUSH1 0x0 PUSH2 0x4861 PUSH1 0x1 DUP4 PUSH2 0x5904 JUMP JUMPDEST DUP6 SLOAD SWAP1 SWAP2 POP PUSH1 0x0 SWAP1 PUSH2 0x4875 SWAP1 PUSH1 0x1 SWAP1 PUSH2 0x5904 JUMP JUMPDEST SWAP1 POP DUP2 DUP2 EQ PUSH2 0x48DA JUMPI PUSH1 0x0 DUP7 PUSH1 0x0 ADD DUP3 DUP2 SLOAD DUP2 LT PUSH2 0x4895 JUMPI PUSH2 0x4895 PUSH2 0x57D1 JUMP JUMPDEST SWAP1 PUSH1 0x0 MSTORE PUSH1 0x20 PUSH1 0x0 KECCAK256 ADD SLOAD SWAP1 POP DUP1 DUP8 PUSH1 0x0 ADD DUP5 DUP2 SLOAD DUP2 LT PUSH2 0x48B8 JUMPI PUSH2 0x48B8 PUSH2 0x57D1 JUMP JUMPDEST PUSH1 0x0 SWAP2 DUP3 MSTORE PUSH1 0x20 DUP1 DUP4 KECCAK256 SWAP1 SWAP2 ADD SWAP3 SWAP1 SWAP3 SSTORE SWAP2 DUP3 MSTORE PUSH1 0x1 DUP9 ADD SWAP1 MSTORE PUSH1 0x40 SWAP1 KECCAK256 DUP4 SWAP1 SSTORE JUMPDEST DUP6 SLOAD DUP7 SWAP1 DUP1 PUSH2 0x48EB JUMPI PUSH2 0x48EB PUSH2 0x5E7F JUMP JUMPDEST PUSH1 0x1 SWAP1 SUB DUP2 DUP2 SWAP1 PUSH1 0x0 MSTORE PUSH1 0x20 PUSH1 0x0 KECCAK256 ADD PUSH1 0x0 SWAP1 SSTORE SWAP1 SSTORE DUP6 PUSH1 0x1 ADD PUSH1 0x0 DUP7 DUP2 MSTORE PUSH1 0x20 ADD SWAP1 DUP2 MSTORE PUSH1 0x20 ADD PUSH1 0x0 KECCAK256 PUSH1 0x0 SWAP1 SSTORE PUSH1 0x1 SWAP4 POP POP POP POP PUSH2 0xB8E JUMP JUMPDEST PUSH1 0x0 SWAP2 POP POP PUSH2 0xB8E JUMP JUMPDEST PUSH1 0x1 PUSH1 0x1 PUSH1 0xA0 SHL SUB DUP2 AND EXTCODESIZE PUSH2 0x4982 JUMPI PUSH1 0x40 MLOAD PUSH3 0x461BCD PUSH1 0xE5 SHL DUP2 MSTORE PUSH1 0x20 PUSH1 0x4 DUP3 ADD MSTORE PUSH1 0x18 PUSH1 0x24 DUP3 ADD MSTORE PUSH24 0x496C6C6567616C20436F6E74726163742041646472657373 PUSH1 0x40 SHL PUSH1 0x44 DUP3 ADD MSTORE PUSH1 0x64 ADD PUSH2 0xC99 JUMP JUMPDEST PUSH1 0x0 DUP1 MLOAD PUSH1 0x20 PUSH2 0x5EF4 DUP4 CODECOPY DUP2 MLOAD SWAP2 MSTORE DUP1 SLOAD PUSH1 0x1 PUSH1 0x1 PUSH1 0xA0 SHL SUB NOT AND PUSH1 0x1 PUSH1 0x1 PUSH1 0xA0 SHL SUB SWAP3 SWAP1 SWAP3 AND SWAP2 SWAP1 SWAP2 OR SWAP1 SSTORE JUMP JUMPDEST PUSH1 0x60 PUSH2 0x49BC DUP5 PUSH2 0x4D67 JUMP JUMPDEST PUSH1 0x0 DUP4 MLOAD GT DUP1 PUSH2 0x49C9 JUMPI POP DUP2 JUMPDEST ISZERO PUSH2 0x4A04 JUMPI PUSH2 0x40BE DUP5 DUP5 PUSH1 0x40 MLOAD DUP1 PUSH1 0x40 ADD PUSH1 0x40 MSTORE DUP1 PUSH1 0x13 DUP2 MSTORE PUSH1 0x20 ADD PUSH19 0x11195B1959D85D1958D85B1B0811985A5B1959 PUSH1 0x6A SHL DUP2 MSTORE POP PUSH2 0x4774 JUMP JUMPDEST POP POP PUSH1 0x40 DUP1 MLOAD PUSH1 0x0 DUP2 MSTORE PUSH1 0x20 DUP2 ADD SWAP1 SWAP2 MSTORE SWAP3 SWAP2 POP POP JUMP JUMPDEST PUSH1 0x0 DUP2 DUP2 MSTORE PUSH1 0x1 DUP4 ADD PUSH1 0x20 MSTORE PUSH1 0x40 DUP2 KECCAK256 SLOAD PUSH2 0x4A62 JUMPI POP DUP2 SLOAD PUSH1 0x1 DUP2 DUP2 ADD DUP5 SSTORE PUSH1 0x0 DUP5 DUP2 MSTORE PUSH1 0x20 DUP1 DUP3 KECCAK256 SWAP1 SWAP4 ADD DUP5 SWAP1 SSTORE DUP5 SLOAD DUP5 DUP3 MSTORE DUP3 DUP7 ADD SWAP1 SWAP4 MSTORE PUSH1 0x40 SWAP1 KECCAK256 SWAP2 SWAP1 SWAP2 SSTORE PUSH2 0xB8E JUMP JUMPDEST POP PUSH1 0x0 PUSH2 0xB8E JUMP JUMPDEST PUSH1 0x60 DUP2 PUSH1 0x0 ADD DUP1 SLOAD DUP1 PUSH1 0x20 MUL PUSH1 0x20 ADD PUSH1 0x40 MLOAD SWAP1 DUP2 ADD PUSH1 0x40 MSTORE DUP1 SWAP3 SWAP2 SWAP1 DUP2 DUP2 MSTORE PUSH1 0x20 ADD DUP3 DUP1 SLOAD DUP1 ISZERO PUSH2 0x4ABA JUMPI PUSH1 0x20 MUL DUP3 ADD SWAP2 SWAP1 PUSH1 0x0 MSTORE PUSH1 0x20 PUSH1 0x0 KECCAK256 SWAP1 JUMPDEST DUP2 SLOAD DUP2 MSTORE PUSH1 0x20 ADD SWAP1 PUSH1 0x1 ADD SWAP1 DUP1 DUP4 GT PUSH2 0x4AA6 JUMPI JUMPDEST POP POP POP POP POP SWAP1 POP SWAP2 SWAP1 POP JUMP JUMPDEST PUSH1 0x0 DUP1 DUP3 MLOAD PUSH1 0x41 SUB PUSH2 0x4AFC JUMPI PUSH1 0x20 DUP4 ADD MLOAD PUSH1 0x40 DUP5 ADD MLOAD PUSH1 0x60 DUP6 ADD MLOAD PUSH1 0x0 BYTE PUSH2 0x4AF0 DUP8 DUP3 DUP6 DUP6 PUSH2 0x4DAB JUMP JUMPDEST SWAP5 POP SWAP5 POP POP POP POP PUSH2 0x4B2D JUMP JUMPDEST DUP3 MLOAD PUSH1 0x40 SUB PUSH2 0x4B25 JUMPI PUSH1 0x20 DUP4 ADD MLOAD PUSH1 0x40 DUP5 ADD MLOAD PUSH2 0x4B1A DUP7 DUP4 DUP4 PUSH2 0x4E98 JUMP JUMPDEST SWAP4 POP SWAP4 POP POP POP PUSH2 0x4B2D JUMP JUMPDEST POP PUSH1 0x0 SWAP1 POP PUSH1 0x2 JUMPDEST SWAP3 POP SWAP3 SWAP1 POP JUMP JUMPDEST PUSH1 0x0 DUP2 PUSH1 0x4 DUP2 GT ISZERO PUSH2 0x4B48 JUMPI PUSH2 0x4B48 PUSH2 0x58CE JUMP JUMPDEST SUB PUSH2 0x4B50 JUMPI POP JUMP JUMPDEST PUSH1 0x1 DUP2 PUSH1 0x4 DUP2 GT ISZERO PUSH2 0x4B64 JUMPI PUSH2 0x4B64 PUSH2 0x58CE JUMP JUMPDEST SUB PUSH2 0x4BB1 JUMPI PUSH1 0x40 MLOAD PUSH3 0x461BCD PUSH1 0xE5 SHL DUP2 MSTORE PUSH1 0x20 PUSH1 0x4 DUP3 ADD MSTORE PUSH1 0x18 PUSH1 0x24 DUP3 ADD MSTORE PUSH32 0x45434453413A20696E76616C6964207369676E61747572650000000000000000 PUSH1 0x44 DUP3 ADD MSTORE PUSH1 0x64 ADD PUSH2 0xC99 JUMP JUMPDEST PUSH1 0x2 DUP2 PUSH1 0x4 DUP2 GT ISZERO PUSH2 0x4BC5 JUMPI PUSH2 0x4BC5 PUSH2 0x58CE JUMP JUMPDEST SUB PUSH2 0x4C12 JUMPI PUSH1 0x40 MLOAD PUSH3 0x461BCD PUSH1 0xE5 SHL DUP2 MSTORE PUSH1 0x20 PUSH1 0x4 DUP3 ADD MSTORE PUSH1 0x1F PUSH1 0x24 DUP3 ADD MSTORE PUSH32 0x45434453413A20696E76616C6964207369676E6174757265206C656E67746800 PUSH1 0x44 DUP3 ADD MSTORE PUSH1 0x64 ADD PUSH2 0xC99 JUMP JUMPDEST PUSH1 0x3 DUP2 PUSH1 0x4 DUP2 GT ISZERO PUSH2 0x4C26 JUMPI PUSH2 0x4C26 PUSH2 0x58CE JUMP JUMPDEST SUB PUSH2 0x4C7E JUMPI PUSH1 0x40 MLOAD PUSH3 0x461BCD PUSH1 0xE5 SHL DUP2 MSTORE PUSH1 0x20 PUSH1 0x4 DUP3 ADD MSTORE PUSH1 0x22 PUSH1 0x24 DUP3 ADD MSTORE PUSH32 0x45434453413A20696E76616C6964207369676E6174757265202773272076616C PUSH1 0x44 DUP3 ADD MSTORE PUSH2 0x7565 PUSH1 0xF0 SHL PUSH1 0x64 DUP3 ADD MSTORE PUSH1 0x84 ADD PUSH2 0xC99 JUMP JUMPDEST PUSH1 0x4 DUP2 PUSH1 0x4 DUP2 GT ISZERO PUSH2 0x4C92 JUMPI PUSH2 0x4C92 PUSH2 0x58CE JUMP JUMPDEST SUB PUSH2 0x3E71 JUMPI PUSH1 0x40 MLOAD PUSH3 0x461BCD PUSH1 0xE5 SHL DUP2 MSTORE PUSH1 0x20 PUSH1 0x4 DUP3 ADD MSTORE PUSH1 0x22 PUSH1 0x24 DUP3 ADD MSTORE PUSH32 0x45434453413A20696E76616C6964207369676E6174757265202776272076616C PUSH1 0x44 DUP3 ADD MSTORE PUSH2 0x7565 PUSH1 0xF0 SHL PUSH1 0x64 DUP3 ADD MSTORE PUSH1 0x84 ADD PUSH2 0xC99 JUMP JUMPDEST PUSH1 0x0 PUSH2 0x1193 PUSH2 0x2710 PUSH2 0x4CFC DUP6 DUP6 PUSH2 0x4ED1 JUMP JUMPDEST SWAP1 PUSH2 0x4EDD JUMP JUMPDEST PUSH1 0x0 DUP2 DUP5 DUP5 GT ISZERO PUSH2 0x4D26 JUMPI PUSH1 0x40 MLOAD PUSH3 0x461BCD PUSH1 0xE5 SHL DUP2 MSTORE PUSH1 0x4 ADD PUSH2 0xC99 SWAP2 SWAP1 PUSH2 0x4F6C JUMP JUMPDEST POP POP POP SWAP1 SUB SWAP1 JUMP JUMPDEST PUSH1 0x60 DUP4 ISZERO PUSH2 0x4D3D JUMPI POP DUP2 PUSH2 0x1193 JUMP JUMPDEST DUP3 MLOAD ISZERO PUSH2 0x4D4D JUMPI DUP3 MLOAD DUP1 DUP5 PUSH1 0x20 ADD REVERT JUMPDEST DUP2 PUSH1 0x40 MLOAD PUSH3 0x461BCD PUSH1 0xE5 SHL DUP2 MSTORE PUSH1 0x4 ADD PUSH2 0xC99 SWAP2 SWAP1 PUSH2 0x4F6C JUMP JUMPDEST PUSH2 0x4D70 DUP2 PUSH2 0x4930 JUMP JUMPDEST PUSH1 0x40 MLOAD PUSH1 0x1 PUSH1 0x1 PUSH1 0xA0 SHL SUB DUP3 AND SWAP1 ADDRESS SWAP1 CALLER SWAP1 PUSH32 0x354BD4B6EB65D64E6C79C53FA4F983A5E6BEC4824CE4627C71BE0B2722F4917E SWAP1 PUSH1 0x0 SWAP1 LOG4 POP JUMP JUMPDEST PUSH1 0x0 DUP1 PUSH32 0x7FFFFFFFFFFFFFFFFFFFFFFFFFFFFFFF5D576E7357A4501DDFE92F46681B20A0 DUP4 GT ISZERO PUSH2 0x4DE2 JUMPI POP PUSH1 0x0 SWAP1 POP PUSH1 0x3 PUSH2 0x4E8F JUMP JUMPDEST DUP5 PUSH1 0xFF AND PUSH1 0x1B EQ ISZERO DUP1 ISZERO PUSH2 0x4DFA JUMPI POP DUP5 PUSH1 0xFF AND PUSH1 0x1C EQ ISZERO JUMPDEST ISZERO PUSH2 0x4E0B JUMPI POP PUSH1 0x0 SWAP1 POP PUSH1 0x4 PUSH2 0x4E8F JUMP JUMPDEST PUSH1 0x40 DUP1 MLOAD PUSH1 0x0 DUP1 DUP3 MSTORE PUSH1 0x20 DUP3 ADD DUP1 DUP5 MSTORE DUP10 SWAP1 MSTORE PUSH1 0xFF DUP9 AND SWAP3 DUP3 ADD SWAP3 SWAP1 SWAP3 MSTORE PUSH1 0x60 DUP2 ADD DUP7 SWAP1 MSTORE PUSH1 0x80 DUP2 ADD DUP6 SWAP1 MSTORE PUSH1 0x1 SWAP1 PUSH1 0xA0 ADD PUSH1 0x20 PUSH1 0x40 MLOAD PUSH1 0x20 DUP2 SUB SWAP1 DUP1 DUP5 SUB SWAP1 DUP6 GAS STATICCALL ISZERO DUP1 ISZERO PUSH2 0x4E5F JUMPI RETURNDATASIZE PUSH1 0x0 DUP1 RETURNDATACOPY RETURNDATASIZE PUSH1 0x0 REVERT JUMPDEST POP POP PUSH1 0x40 MLOAD PUSH1 0x1F NOT ADD MLOAD SWAP2 POP POP PUSH1 0x1 PUSH1 0x1 PUSH1 0xA0 SHL SUB DUP2 AND PUSH2 0x4E88 JUMPI PUSH1 0x0 PUSH1 0x1 SWAP3 POP SWAP3 POP POP PUSH2 0x4E8F JUMP JUMPDEST SWAP2 POP PUSH1 0x0 SWAP1 POP JUMPDEST SWAP5 POP SWAP5 SWAP3 POP POP POP JUMP JUMPDEST PUSH1 0x0 DUP1 PUSH1 0x1 PUSH1 0x1 PUSH1 0xFF SHL SUB DUP4 AND DUP2 PUSH2 0x4EB5 PUSH1 0xFF DUP7 SWAP1 SHR PUSH1 0x1B PUSH2 0x57FD JUMP JUMPDEST SWAP1 POP PUSH2 0x4EC3 DUP8 DUP3 DUP9 DUP6 PUSH2 0x4DAB JUMP JUMPDEST SWAP4 POP SWAP4 POP POP POP SWAP4 POP SWAP4 SWAP2 POP POP JUMP JUMPDEST PUSH1 0x0 PUSH2 0x1193 DUP3 DUP5 PUSH2 0x5E95 JUMP JUMPDEST PUSH1 0x0 PUSH2 0x1193 DUP3 DUP5 PUSH2 0x5EAC JUMP JUMPDEST PUSH1 0x1 PUSH1 0x1 PUSH1 0xE0 SHL SUB NOT DUP2 AND DUP2 EQ PUSH2 0x3E71 JUMPI PUSH1 0x0 DUP1 REVERT JUMPDEST PUSH1 0x0 PUSH1 0x20 DUP3 DUP5 SUB SLT ISZERO PUSH2 0x4F11 JUMPI PUSH1 0x0 DUP1 REVERT JUMPDEST DUP2 CALLDATALOAD PUSH2 0x1193 DUP2 PUSH2 0x4EE9 JUMP JUMPDEST PUSH1 0x0 JUMPDEST DUP4 DUP2 LT ISZERO PUSH2 0x4F37 JUMPI DUP2 DUP2 ADD MLOAD DUP4 DUP3 ADD MSTORE PUSH1 0x20 ADD PUSH2 0x4F1F JUMP JUMPDEST POP POP PUSH1 0x0 SWAP2 ADD MSTORE JUMP JUMPDEST PUSH1 0x0 DUP2 MLOAD DUP1 DUP5 MSTORE PUSH2 0x4F58 DUP2 PUSH1 0x20 DUP7 ADD PUSH1 0x20 DUP7 ADD PUSH2 0x4F1C JUMP JUMPDEST PUSH1 0x1F ADD PUSH1 0x1F NOT AND SWAP3 SWAP1 SWAP3 ADD PUSH1 0x20 ADD SWAP3 SWAP2 POP POP JUMP JUMPDEST PUSH1 0x20 DUP2 MSTORE PUSH1 0x0 PUSH2 0x1193 PUSH1 0x20 DUP4 ADD DUP5 PUSH2 0x4F40 JUMP JUMPDEST PUSH1 0x1 PUSH1 0x1 PUSH1 0xA0 SHL SUB DUP2 AND DUP2 EQ PUSH2 0x3E71 JUMPI PUSH1 0x0 DUP1 REVERT JUMPDEST PUSH1 0x0 DUP1 PUSH1 0x40 DUP4 DUP6 SUB SLT ISZERO PUSH2 0x4FA7 JUMPI PUSH1 0x0 DUP1 REVERT JUMPDEST DUP3 CALLDATALOAD PUSH2 0x4FB2 DUP2 PUSH2 0x4F7F JUMP JUMPDEST SWAP5 PUSH1 0x20 SWAP4 SWAP1 SWAP4 ADD CALLDATALOAD SWAP4 POP POP POP JUMP JUMPDEST PUSH1 0x0 PUSH1 0x20 DUP3 DUP5 SUB SLT ISZERO PUSH2 0x4FD2 JUMPI PUSH1 0x0 DUP1 REVERT JUMPDEST DUP2 CALLDATALOAD PUSH2 0x1193 DUP2 PUSH2 0x4F7F JUMP JUMPDEST PUSH1 0x0 PUSH1 0x20 DUP3 DUP5 SUB SLT ISZERO PUSH2 0x4FEF JUMPI PUSH1 0x0 DUP1 REVERT JUMPDEST DUP2 CALLDATALOAD PUSH1 0x1 PUSH1 0x1 PUSH1 0x40 SHL SUB DUP2 GT ISZERO PUSH2 0x5005 JUMPI PUSH1 0x0 DUP1 REVERT JUMPDEST DUP3 ADD PUSH1 0xC0 DUP2 DUP6 SUB SLT ISZERO PUSH2 0x1193 JUMPI PUSH1 0x0 DUP1 REVERT JUMPDEST PUSH1 0x0 DUP1 DUP4 PUSH1 0x1F DUP5 ADD SLT PUSH2 0x5029 JUMPI PUSH1 0x0 DUP1 REVERT JUMPDEST POP DUP2 CALLDATALOAD PUSH1 0x1 PUSH1 0x1 PUSH1 0x40 SHL SUB DUP2 GT ISZERO PUSH2 0x5040 JUMPI PUSH1 0x0 DUP1 REVERT JUMPDEST PUSH1 0x20 DUP4 ADD SWAP2 POP DUP4 PUSH1 0x20 DUP3 PUSH1 0x5 SHL DUP6 ADD ADD GT ISZERO PUSH2 0x4B2D JUMPI PUSH1 0x0 DUP1 REVERT JUMPDEST PUSH1 0x0 DUP1 PUSH1 0x20 DUP4 DUP6 SUB SLT ISZERO PUSH2 0x506E JUMPI PUSH1 0x0 DUP1 REVERT JUMPDEST DUP3 CALLDATALOAD PUSH1 0x1 PUSH1 0x1 PUSH1 0x40 SHL SUB DUP2 GT ISZERO PUSH2 0x5084 JUMPI PUSH1 0x0 DUP1 REVERT JUMPDEST PUSH2 0x5090 DUP6 DUP3 DUP7 ADD PUSH2 0x5017 JUMP JUMPDEST SWAP1 SWAP7 SWAP1 SWAP6 POP SWAP4 POP POP POP POP JUMP JUMPDEST PUSH1 0x0 PUSH1 0x20 DUP3 DUP5 SUB SLT ISZERO PUSH2 0x50AE JUMPI PUSH1 0x0 DUP1 REVERT JUMPDEST POP CALLDATALOAD SWAP2 SWAP1 POP JUMP JUMPDEST PUSH1 0x0 DUP1 PUSH1 0x20 DUP4 DUP6 SUB SLT ISZERO PUSH2 0x50C8 JUMPI PUSH1 0x0 DUP1 REVERT JUMPDEST DUP3 CALLDATALOAD PUSH1 0x1 PUSH1 0x1 PUSH1 0x40 SHL SUB DUP1 DUP3 GT ISZERO PUSH2 0x50DF JUMPI PUSH1 0x0 DUP1 REVERT JUMPDEST DUP2 DUP6 ADD SWAP2 POP DUP6 PUSH1 0x1F DUP4 ADD SLT PUSH2 0x50F3 JUMPI PUSH1 0x0 DUP1 REVERT JUMPDEST DUP2 CALLDATALOAD DUP2 DUP2 GT ISZERO PUSH2 0x5102 JUMPI PUSH1 0x0 DUP1 REVERT JUMPDEST DUP7 PUSH1 0x20 PUSH1 0x60 DUP4 MUL DUP6 ADD ADD GT ISZERO PUSH2 0x5117 JUMPI PUSH1 0x0 DUP1 REVERT JUMPDEST PUSH1 0x20 SWAP3 SWAP1 SWAP3 ADD SWAP7 SWAP2 SWAP6 POP SWAP1 SWAP4 POP POP POP POP JUMP JUMPDEST PUSH1 0x0 DUP1 PUSH1 0x0 PUSH1 0x60 DUP5 DUP7 SUB SLT ISZERO PUSH2 0x513E JUMPI PUSH1 0x0 DUP1 REVERT JUMPDEST DUP4 CALLDATALOAD PUSH2 0x5149 DUP2 PUSH2 0x4F7F JUMP JUMPDEST SWAP3 POP PUSH1 0x20 DUP5 ADD CALLDATALOAD PUSH2 0x5159 DUP2 PUSH2 0x4F7F JUMP JUMPDEST SWAP3 SWAP6 SWAP3 SWAP5 POP POP POP PUSH1 0x40 SWAP2 SWAP1 SWAP2 ADD CALLDATALOAD SWAP1 JUMP JUMPDEST DUP1 ISZERO ISZERO DUP2 EQ PUSH2 0x3E71 JUMPI PUSH1 0x0 DUP1 REVERT JUMPDEST DUP1 CALLDATALOAD PUSH2 0x1414 DUP2 PUSH2 0x516A JUMP JUMPDEST PUSH1 0x0 PUSH1 0x20 DUP3 DUP5 SUB SLT ISZERO PUSH2 0x5195 JUMPI PUSH1 0x0 DUP1 REVERT JUMPDEST DUP2 CALLDATALOAD PUSH2 0x1193 DUP2 PUSH2 0x516A JUMP JUMPDEST PUSH1 0x0 DUP1 PUSH1 0x40 DUP4 DUP6 SUB SLT ISZERO PUSH2 0x51B3 JUMPI PUSH1 0x0 DUP1 REVERT JUMPDEST DUP3 CALLDATALOAD PUSH2 0x51BE DUP2 PUSH2 0x4F7F JUMP JUMPDEST SWAP2 POP PUSH1 0x20 DUP4 ADD CALLDATALOAD PUSH2 0x51CE DUP2 PUSH2 0x516A JUMP JUMPDEST DUP1 SWAP2 POP POP SWAP3 POP SWAP3 SWAP1 POP JUMP JUMPDEST PUSH1 0x0 PUSH1 0x80 DUP3 DUP5 SUB SLT ISZERO PUSH2 0x423A JUMPI PUSH1 0x0 DUP1 REVERT JUMPDEST PUSH4 0x4E487B71 PUSH1 0xE0 SHL PUSH1 0x0 MSTORE PUSH1 0x41 PUSH1 0x4 MSTORE PUSH1 0x24 PUSH1 0x0 REVERT JUMPDEST PUSH1 0x40 MLOAD PUSH1 0x60 DUP2 ADD PUSH1 0x1 PUSH1 0x1 PUSH1 0x40 SHL SUB DUP2 GT DUP3 DUP3 LT OR ISZERO PUSH2 0x5223 JUMPI PUSH2 0x5223 PUSH2 0x51EB JUMP JUMPDEST PUSH1 0x40 MSTORE SWAP1 JUMP JUMPDEST PUSH1 0x40 MLOAD PUSH1 0x1F DUP3 ADD PUSH1 0x1F NOT AND DUP2 ADD PUSH1 0x1 PUSH1 0x1 PUSH1 0x40 SHL SUB DUP2 GT DUP3 DUP3 LT OR ISZERO PUSH2 0x5251 JUMPI PUSH2 0x5251 PUSH2 0x51EB JUMP JUMPDEST PUSH1 0x40 MSTORE SWAP2 SWAP1 POP JUMP JUMPDEST PUSH1 0x0 DUP1 PUSH1 0x0 PUSH1 0x60 DUP5 DUP7 SUB SLT ISZERO PUSH2 0x526E JUMPI PUSH1 0x0 DUP1 REVERT JUMPDEST DUP4 CALLDATALOAD PUSH2 0x5279 DUP2 PUSH2 0x4F7F JUMP JUMPDEST SWAP3 POP PUSH1 0x20 DUP5 DUP2 ADD CALLDATALOAD PUSH1 0x1 PUSH1 0x1 PUSH1 0x40 SHL SUB DUP1 DUP3 GT ISZERO PUSH2 0x5296 JUMPI PUSH1 0x0 DUP1 REVERT JUMPDEST DUP2 DUP8 ADD SWAP2 POP DUP8 PUSH1 0x1F DUP4 ADD SLT PUSH2 0x52AA JUMPI PUSH1 0x0 DUP1 REVERT JUMPDEST DUP2 CALLDATALOAD DUP2 DUP2 GT ISZERO PUSH2 0x52BC JUMPI PUSH2 0x52BC PUSH2 0x51EB JUMP JUMPDEST PUSH2 0x52CE PUSH1 0x1F DUP3 ADD PUSH1 0x1F NOT AND DUP6 ADD PUSH2 0x5229 JUMP JUMPDEST SWAP2 POP DUP1 DUP3 MSTORE DUP9 DUP5 DUP3 DUP6 ADD ADD GT ISZERO PUSH2 0x52E4 JUMPI PUSH1 0x0 DUP1 REVERT JUMPDEST DUP1 DUP5 DUP5 ADD DUP6 DUP5 ADD CALLDATACOPY PUSH1 0x0 DUP5 DUP3 DUP5 ADD ADD MSTORE POP DUP1 SWAP5 POP POP POP POP PUSH2 0x5307 PUSH1 0x40 DUP6 ADD PUSH2 0x5178 JUMP JUMPDEST SWAP1 POP SWAP3 POP SWAP3 POP SWAP3 JUMP JUMPDEST PUSH1 0x20 DUP1 DUP3 MSTORE DUP3 MLOAD DUP3 DUP3 ADD DUP2 SWAP1 MSTORE PUSH1 0x0 SWAP2 SWAP1 DUP5 DUP3 ADD SWAP1 PUSH1 0x40 DUP6 ADD SWAP1 DUP5 JUMPDEST DUP2 DUP2 LT ISZERO PUSH2 0x5351 JUMPI DUP4 MLOAD PUSH1 0x1 PUSH1 0x1 PUSH1 0xA0 SHL SUB AND DUP4 MSTORE SWAP3 DUP5 ADD SWAP3 SWAP2 DUP5 ADD SWAP2 PUSH1 0x1 ADD PUSH2 0x532C JUMP JUMPDEST POP SWAP1 SWAP7 SWAP6 POP POP POP POP POP POP JUMP JUMPDEST PUSH1 0x0 DUP1 DUP4 PUSH1 0x1F DUP5 ADD SLT PUSH2 0x536F JUMPI PUSH1 0x0 DUP1 REVERT JUMPDEST POP DUP2 CALLDATALOAD PUSH1 0x1 PUSH1 0x1 PUSH1 0x40 SHL SUB DUP2 GT ISZERO PUSH2 0x5386 JUMPI PUSH1 0x0 DUP1 REVERT JUMPDEST PUSH1 0x20 DUP4 ADD SWAP2 POP DUP4 PUSH1 0x20 DUP3 PUSH1 0x6 SHL DUP6 ADD ADD GT ISZERO PUSH2 0x4B2D JUMPI PUSH1 0x0 DUP1 REVERT JUMPDEST PUSH1 0x0 DUP1 PUSH1 0x20 DUP4 DUP6 SUB SLT ISZERO PUSH2 0x53B4 JUMPI PUSH1 0x0 DUP1 REVERT JUMPDEST DUP3 CALLDATALOAD PUSH1 0x1 PUSH1 0x1 PUSH1 0x40 SHL SUB DUP2 GT ISZERO PUSH2 0x53CA JUMPI PUSH1 0x0 DUP1 REVERT JUMPDEST PUSH2 0x5090 DUP6 DUP3 DUP7 ADD PUSH2 0x535D JUMP JUMPDEST PUSH1 0x0 DUP1 PUSH1 0x40 DUP4 DUP6 SUB SLT ISZERO PUSH2 0x53E9 JUMPI PUSH1 0x0 DUP1 REVERT JUMPDEST DUP3 CALLDATALOAD SWAP2 POP PUSH1 0x20 DUP4 ADD CALLDATALOAD PUSH2 0x51CE DUP2 PUSH2 0x4F7F JUMP JUMPDEST PUSH1 0x0 DUP1 PUSH1 0x20 DUP4 DUP6 SUB SLT ISZERO PUSH2 0x540E JUMPI PUSH1 0x0 DUP1 REVERT JUMPDEST DUP3 CALLDATALOAD PUSH1 0x1 PUSH1 0x1 PUSH1 0x40 SHL SUB DUP1 DUP3 GT ISZERO PUSH2 0x5425 JUMPI PUSH1 0x0 DUP1 REVERT JUMPDEST DUP2 DUP6 ADD SWAP2 POP DUP6 PUSH1 0x1F DUP4 ADD SLT PUSH2 0x5439 JUMPI PUSH1 0x0 DUP1 REVERT JUMPDEST DUP2 CALLDATALOAD DUP2 DUP2 GT ISZERO PUSH2 0x5448 JUMPI PUSH1 0x0 DUP1 REVERT JUMPDEST DUP7 PUSH1 0x20 DUP3 PUSH1 0x7 SHL DUP6 ADD ADD GT ISZERO PUSH2 0x5117 JUMPI PUSH1 0x0 DUP1 REVERT JUMPDEST PUSH1 0x20 DUP1 DUP3 MSTORE DUP3 MLOAD DUP3 DUP3 ADD DUP2 SWAP1 MSTORE PUSH1 0x0 SWAP2 SWAP1 DUP5 DUP3 ADD SWAP1 PUSH1 0x40 DUP6 ADD SWAP1 DUP5 JUMPDEST DUP2 DUP2 LT ISZERO PUSH2 0x5351 JUMPI DUP4 MLOAD DUP4 MSTORE SWAP3 DUP5 ADD SWAP3 SWAP2 DUP5 ADD SWAP2 PUSH1 0x1 ADD PUSH2 0x5479 JUMP JUMPDEST PUSH1 0x0 DUP1 PUSH1 0x0 DUP1 PUSH1 0x0 DUP1 PUSH1 0xA0 DUP8 DUP10 SUB SLT ISZERO PUSH2 0x54AE JUMPI PUSH1 0x0 DUP1 REVERT JUMPDEST DUP7 CALLDATALOAD PUSH2 0x54B9 DUP2 PUSH2 0x4F7F JUMP JUMPDEST SWAP6 POP PUSH1 0x20 DUP8 ADD CALLDATALOAD PUSH2 0x54C9 DUP2 PUSH2 0x4F7F JUMP JUMPDEST SWAP5 POP PUSH1 0x40 DUP8 ADD CALLDATALOAD SWAP4 POP PUSH1 0x60 DUP8 ADD CALLDATALOAD SWAP3 POP PUSH1 0x80 DUP8 ADD CALLDATALOAD PUSH1 0x1 PUSH1 0x1 PUSH1 0x40 SHL SUB DUP1 DUP3 GT ISZERO PUSH2 0x54F3 JUMPI PUSH1 0x0 DUP1 REVERT JUMPDEST DUP2 DUP10 ADD SWAP2 POP DUP10 PUSH1 0x1F DUP4 ADD SLT PUSH2 0x5507 JUMPI PUSH1 0x0 DUP1 REVERT JUMPDEST DUP2 CALLDATALOAD DUP2 DUP2 GT ISZERO PUSH2 0x5516 JUMPI PUSH1 0x0 DUP1 REVERT JUMPDEST DUP11 PUSH1 0x20 DUP3 DUP6 ADD ADD GT ISZERO PUSH2 0x5528 JUMPI PUSH1 0x0 DUP1 REVERT JUMPDEST PUSH1 0x20 DUP4 ADD SWAP5 POP DUP1 SWAP4 POP POP POP POP SWAP3 SWAP6 POP SWAP3 SWAP6 POP SWAP3 SWAP6 JUMP JUMPDEST PUSH1 0x0 DUP1 PUSH1 0x40 DUP4 DUP6 SUB SLT ISZERO PUSH2 0x5551 JUMPI PUSH1 0x0 DUP1 REVERT JUMPDEST DUP3 CALLDATALOAD PUSH2 0x555C DUP2 PUSH2 0x4F7F JUMP JUMPDEST SWAP2 POP PUSH1 0x20 DUP4 ADD CALLDATALOAD PUSH2 0x51CE DUP2 PUSH2 0x4F7F JUMP JUMPDEST PUSH1 0x0 DUP1 PUSH2 0x100 DUP1 DUP5 DUP7 SUB SLT ISZERO PUSH2 0x5581 JUMPI PUSH1 0x0 DUP1 REVERT JUMPDEST DUP4 CALLDATALOAD PUSH2 0x558C DUP2 PUSH2 0x4F7F JUMP JUMPDEST SWAP3 POP DUP4 DUP2 ADD DUP6 LT ISZERO PUSH2 0x559D JUMPI PUSH1 0x0 DUP1 REVERT JUMPDEST POP PUSH1 0x20 DUP4 ADD SWAP1 POP SWAP3 POP SWAP3 SWAP1 POP JUMP JUMPDEST PUSH1 0x0 PUSH1 0x20 DUP3 DUP5 SUB SLT ISZERO PUSH2 0x55BD JUMPI PUSH1 0x0 DUP1 REVERT JUMPDEST DUP2 CALLDATALOAD PUSH1 0x1 PUSH1 0x1 PUSH1 0x40 SHL SUB DUP2 GT ISZERO PUSH2 0x55D3 JUMPI PUSH1 0x0 DUP1 REVERT JUMPDEST DUP3 ADD PUSH1 0x60 DUP2 DUP6 SUB SLT ISZERO PUSH2 0x1193 JUMPI PUSH1 0x0 DUP1 REVERT JUMPDEST PUSH1 0x1 DUP2 DUP2 SHR SWAP1 DUP3 AND DUP1 PUSH2 0x55F9 JUMPI PUSH1 0x7F DUP3 AND SWAP2 POP JUMPDEST PUSH1 0x20 DUP3 LT DUP2 SUB PUSH2 0x423A JUMPI PUSH4 0x4E487B71 PUSH1 0xE0 SHL PUSH1 0x0 MSTORE PUSH1 0x22 PUSH1 0x4 MSTORE PUSH1 0x24 PUSH1 0x0 REVERT JUMPDEST PUSH1 0x20 DUP1 DUP3 MSTORE PUSH1 0x15 SWAP1 DUP3 ADD MSTORE PUSH21 0x125B1B1959D85B0810DBDB9D1C9858DD0810D85B1B PUSH1 0x5A SHL PUSH1 0x40 DUP3 ADD MSTORE PUSH1 0x60 ADD SWAP1 JUMP JUMPDEST PUSH1 0x20 DUP1 DUP3 MSTORE PUSH1 0x14 SWAP1 DUP3 ADD MSTORE PUSH20 0x141C9BDE1E4810D85B1B195908125B9D985B1A59 PUSH1 0x62 SHL PUSH1 0x40 DUP3 ADD MSTORE PUSH1 0x60 ADD SWAP1 JUMP JUMPDEST PUSH1 0x0 DUP1 DUP4 CALLDATALOAD PUSH1 0x1E NOT DUP5 CALLDATASIZE SUB ADD DUP2 SLT PUSH2 0x568D JUMPI PUSH1 0x0 DUP1 REVERT JUMPDEST DUP4 ADD DUP1 CALLDATALOAD SWAP2 POP PUSH1 0x1 PUSH1 0x1 PUSH1 0x40 SHL SUB DUP3 GT ISZERO PUSH2 0x56A7 JUMPI PUSH1 0x0 DUP1 REVERT JUMPDEST PUSH1 0x20 ADD SWAP2 POP CALLDATASIZE DUP2 SWAP1 SUB DUP3 SGT ISZERO PUSH2 0x4B2D JUMPI PUSH1 0x0 DUP1 REVERT JUMPDEST DUP2 DUP4 DUP3 CALLDATACOPY PUSH1 0x0 SWAP2 ADD SWAP1 DUP2 MSTORE SWAP2 SWAP1 POP JUMP JUMPDEST PUSH1 0x1F DUP3 GT ISZERO PUSH2 0x1BB4 JUMPI PUSH1 0x0 DUP2 DUP2 MSTORE PUSH1 0x20 DUP2 KECCAK256 PUSH1 0x1F DUP6 ADD PUSH1 0x5 SHR DUP2 ADD PUSH1 0x20 DUP7 LT ISZERO PUSH2 0x56F3 JUMPI POP DUP1 JUMPDEST PUSH1 0x1F DUP6 ADD PUSH1 0x5 SHR DUP3 ADD SWAP2 POP JUMPDEST DUP2 DUP2 LT ISZERO PUSH2 0x34F1 JUMPI DUP3 DUP2 SSTORE PUSH1 0x1 ADD PUSH2 0x56FF JUMP JUMPDEST DUP2 MLOAD PUSH1 0x1 PUSH1 0x1 PUSH1 0x40 SHL SUB DUP2 GT ISZERO PUSH2 0x572B JUMPI PUSH2 0x572B PUSH2 0x51EB JUMP JUMPDEST PUSH2 0x573F DUP2 PUSH2 0x5739 DUP5 SLOAD PUSH2 0x55E5 JUMP JUMPDEST DUP5 PUSH2 0x56CC JUMP JUMPDEST PUSH1 0x20 DUP1 PUSH1 0x1F DUP4 GT PUSH1 0x1 DUP2 EQ PUSH2 0x5774 JUMPI PUSH1 0x0 DUP5 ISZERO PUSH2 0x575C JUMPI POP DUP6 DUP4 ADD MLOAD JUMPDEST PUSH1 0x0 NOT PUSH1 0x3 DUP7 SWAP1 SHL SHR NOT AND PUSH1 0x1 DUP6 SWAP1 SHL OR DUP6 SSTORE PUSH2 0x34F1 JUMP JUMPDEST PUSH1 0x0 DUP6 DUP2 MSTORE PUSH1 0x20 DUP2 KECCAK256 PUSH1 0x1F NOT DUP7 AND SWAP2 JUMPDEST DUP3 DUP2 LT ISZERO PUSH2 0x57A3 JUMPI DUP9 DUP7 ADD MLOAD DUP3 SSTORE SWAP5 DUP5 ADD SWAP5 PUSH1 0x1 SWAP1 SWAP2 ADD SWAP1 DUP5 ADD PUSH2 0x5784 JUMP JUMPDEST POP DUP6 DUP3 LT ISZERO PUSH2 0x57C1 JUMPI DUP8 DUP6 ADD MLOAD PUSH1 0x0 NOT PUSH1 0x3 DUP9 SWAP1 SHL PUSH1 0xF8 AND SHR NOT AND DUP2 SSTORE JUMPDEST POP POP POP POP POP PUSH1 0x1 SWAP1 DUP2 SHL ADD SWAP1 SSTORE POP JUMP JUMPDEST PUSH4 0x4E487B71 PUSH1 0xE0 SHL PUSH1 0x0 MSTORE PUSH1 0x32 PUSH1 0x4 MSTORE PUSH1 0x24 PUSH1 0x0 REVERT JUMPDEST PUSH4 0x4E487B71 PUSH1 0xE0 SHL PUSH1 0x0 MSTORE PUSH1 0x11 PUSH1 0x4 MSTORE PUSH1 0x24 PUSH1 0x0 REVERT JUMPDEST DUP1 DUP3 ADD DUP1 DUP3 GT ISZERO PUSH2 0xB8E JUMPI PUSH2 0xB8E PUSH2 0x57E7 JUMP JUMPDEST PUSH1 0x0 PUSH1 0x1 DUP3 ADD PUSH2 0x5822 JUMPI PUSH2 0x5822 PUSH2 0x57E7 JUMP JUMPDEST POP PUSH1 0x1 ADD SWAP1 JUMP JUMPDEST PUSH1 0x20 DUP1 DUP3 MSTORE PUSH1 0x1D SWAP1 DUP3 ADD MSTORE PUSH32 0x455243323050617573653A204163636F756E742053757370656E646564000000 PUSH1 0x40 DUP3 ADD MSTORE PUSH1 0x60 ADD SWAP1 JUMP JUMPDEST PUSH1 0x20 DUP1 DUP3 MSTORE PUSH1 0x17 SWAP1 DUP3 ADD MSTORE PUSH32 0x536166654D6F64653A2043616C6C2052656A6563746564000000000000000000 PUSH1 0x40 DUP3 ADD MSTORE PUSH1 0x60 ADD SWAP1 JUMP JUMPDEST PUSH1 0x20 DUP1 DUP3 MSTORE PUSH1 0x17 SWAP1 DUP3 ADD MSTORE PUSH32 0x496E76616C6964204163636F756E742041646472657373000000000000000000 PUSH1 0x40 DUP3 ADD MSTORE PUSH1 0x60 ADD SWAP1 JUMP JUMPDEST PUSH4 0x4E487B71 PUSH1 0xE0 SHL PUSH1 0x0 MSTORE PUSH1 0x21 PUSH1 0x4 MSTORE PUSH1 0x24 PUSH1 0x0 REVERT JUMPDEST PUSH1 0x0 DUP3 CALLDATALOAD PUSH1 0x5E NOT DUP4 CALLDATASIZE SUB ADD DUP2 SLT PUSH2 0x58FA JUMPI PUSH1 0x0 DUP1 REVERT JUMPDEST SWAP2 SWAP1 SWAP2 ADD SWAP3 SWAP2 POP POP JUMP JUMPDEST DUP2 DUP2 SUB DUP2 DUP2 GT ISZERO PUSH2 0xB8E JUMPI PUSH2 0xB8E PUSH2 0x57E7 JUMP JUMPDEST DUP1 MLOAD PUSH2 0x1414 DUP2 PUSH2 0x516A JUMP JUMPDEST PUSH1 0x0 PUSH1 0x20 DUP3 DUP5 SUB SLT ISZERO PUSH2 0x5934 JUMPI PUSH1 0x0 DUP1 REVERT JUMPDEST DUP2 MLOAD PUSH2 0x1193 DUP2 PUSH2 0x516A JUMP JUMPDEST PUSH1 0x0 PUSH1 0x20 DUP3 DUP5 SUB SLT ISZERO PUSH2 0x5951 JUMPI PUSH1 0x0 DUP1 REVERT JUMPDEST DUP2 MLOAD PUSH2 0x1193 DUP2 PUSH2 0x4F7F JUMP JUMPDEST PUSH1 0x0 PUSH1 0x20 DUP3 DUP5 SUB SLT ISZERO PUSH2 0x596E JUMPI PUSH1 0x0 DUP1 REVERT JUMPDEST POP MLOAD SWAP2 SWAP1 POP JUMP JUMPDEST PUSH1 0x0 PUSH1 0x1 PUSH1 0x1 PUSH1 0x40 SHL SUB DUP3 GT ISZERO PUSH2 0x598E JUMPI PUSH2 0x598E PUSH2 0x51EB JUMP JUMPDEST POP PUSH1 0x5 SHL PUSH1 0x20 ADD SWAP1 JUMP JUMPDEST PUSH1 0x0 DUP3 PUSH1 0x1F DUP4 ADD SLT PUSH2 0x59A9 JUMPI PUSH1 0x0 DUP1 REVERT JUMPDEST DUP2 MLOAD PUSH1 0x20 PUSH2 0x59BE PUSH2 0x59B9 DUP4 PUSH2 0x5975 JUMP JUMPDEST PUSH2 0x5229 JUMP JUMPDEST DUP3 DUP2 MSTORE PUSH1 0x5 SWAP3 SWAP1 SWAP3 SHL DUP5 ADD DUP2 ADD SWAP2 DUP2 DUP2 ADD SWAP1 DUP7 DUP5 GT ISZERO PUSH2 0x59DD JUMPI PUSH1 0x0 DUP1 REVERT JUMPDEST DUP3 DUP7 ADD JUMPDEST DUP5 DUP2 LT ISZERO PUSH2 0x5ACE JUMPI DUP1 MLOAD PUSH1 0x1 PUSH1 0x1 PUSH1 0x40 SHL SUB DUP1 DUP3 GT ISZERO PUSH2 0x5A01 JUMPI PUSH1 0x0 DUP1 DUP2 REVERT JUMPDEST SWAP1 DUP9 ADD SWAP1 PUSH1 0x60 DUP3 DUP12 SUB PUSH1 0x1F NOT ADD DUP2 SGT ISZERO PUSH2 0x5A1B JUMPI PUSH1 0x0 DUP1 DUP2 REVERT JUMPDEST PUSH2 0x5A23 PUSH2 0x5201 JUMP JUMPDEST DUP8 DUP5 ADD MLOAD DUP2 MSTORE PUSH1 0x40 DUP1 DUP6 ADD MLOAD DUP5 DUP2 GT ISZERO PUSH2 0x5A3D JUMPI PUSH1 0x0 DUP1 DUP2 REVERT JUMPDEST DUP6 ADD SWAP4 POP PUSH1 0x3F DUP5 ADD DUP14 SGT PUSH2 0x5A51 JUMPI PUSH1 0x0 DUP1 DUP2 REVERT JUMPDEST DUP9 DUP5 ADD MLOAD PUSH2 0x5A61 PUSH2 0x59B9 DUP3 PUSH2 0x5975 JUMP JUMPDEST DUP2 DUP2 MSTORE PUSH1 0x5 SWAP2 SWAP1 SWAP2 SHL DUP6 ADD DUP3 ADD SWAP1 DUP11 DUP2 ADD SWAP1 DUP16 DUP4 GT ISZERO PUSH2 0x5A81 JUMPI PUSH1 0x0 DUP1 DUP2 REVERT JUMPDEST SWAP6 DUP4 ADD SWAP6 JUMPDEST DUP3 DUP8 LT ISZERO PUSH2 0x5AA8 JUMPI DUP7 MLOAD PUSH2 0x5A99 DUP2 PUSH2 0x4EE9 JUMP JUMPDEST DUP3 MSTORE SWAP6 DUP12 ADD SWAP6 SWAP1 DUP12 ADD SWAP1 PUSH2 0x5A86 JUMP JUMPDEST DUP5 DUP13 ADD MSTORE POP PUSH2 0x5ABA SWAP1 POP DUP6 DUP5 ADD PUSH2 0x5917 JUMP JUMPDEST SWAP1 DUP3 ADD MSTORE DUP7 MSTORE POP POP POP SWAP2 DUP4 ADD SWAP2 DUP4 ADD PUSH2 0x59E1 JUMP JUMPDEST POP SWAP7 SWAP6 POP POP POP POP POP POP JUMP JUMPDEST PUSH1 0x0 DUP1 DUP3 DUP5 SUB PUSH1 0xC0 DUP2 SLT ISZERO PUSH2 0x5AED JUMPI PUSH1 0x0 DUP1 REVERT JUMPDEST PUSH1 0xA0 DUP2 SLT ISZERO PUSH2 0x5AFB JUMPI PUSH1 0x0 DUP1 REVERT JUMPDEST POP PUSH1 0x40 MLOAD PUSH1 0xA0 DUP2 ADD PUSH1 0x1 PUSH1 0x1 PUSH1 0x40 SHL SUB DUP3 DUP3 LT DUP2 DUP4 GT OR ISZERO PUSH2 0x5B1F JUMPI PUSH2 0x5B1F PUSH2 0x51EB JUMP JUMPDEST DUP2 PUSH1 0x40 MSTORE DUP6 MLOAD DUP4 MSTORE PUSH1 0x20 DUP7 ADD MLOAD PUSH1 0x20 DUP5 ADD MSTORE PUSH1 0x40 DUP7 ADD MLOAD PUSH1 0x40 DUP5 ADD MSTORE PUSH1 0x60 DUP7 ADD MLOAD SWAP2 POP PUSH2 0x5B4B DUP3 PUSH2 0x4F7F JUMP JUMPDEST DUP2 PUSH1 0x60 DUP5 ADD MSTORE PUSH1 0x80 DUP7 ADD MLOAD SWAP2 POP PUSH2 0x5B61 DUP3 PUSH2 0x516A JUMP JUMPDEST PUSH1 0x80 DUP4 ADD DUP3 SWAP1 MSTORE PUSH1 0xA0 DUP7 ADD MLOAD SWAP3 SWAP5 POP DUP1 DUP4 GT ISZERO PUSH2 0x5B7D JUMPI PUSH1 0x0 DUP1 REVERT JUMPDEST POP POP PUSH2 0x5B8B DUP6 DUP3 DUP7 ADD PUSH2 0x5998 JUMP JUMPDEST SWAP2 POP POP SWAP3 POP SWAP3 SWAP1 POP JUMP JUMPDEST DUP2 DUP4 MSTORE DUP2 DUP2 PUSH1 0x20 DUP6 ADD CALLDATACOPY POP PUSH1 0x0 DUP3 DUP3 ADD PUSH1 0x20 SWAP1 DUP2 ADD SWAP2 SWAP1 SWAP2 MSTORE PUSH1 0x1F SWAP1 SWAP2 ADD PUSH1 0x1F NOT AND SWAP1 SWAP2 ADD ADD SWAP1 JUMP JUMPDEST PUSH1 0xE0 DUP2 MSTORE PUSH1 0x0 PUSH2 0x5BD2 PUSH1 0xE0 DUP4 ADD DUP7 DUP9 PUSH2 0x5B95 JUMP JUMPDEST PUSH1 0x20 DUP6 MLOAD DUP2 DUP6 ADD MSTORE DUP1 DUP7 ADD MLOAD PUSH1 0x40 DUP2 DUP2 DUP8 ADD MSTORE DUP1 DUP9 ADD MLOAD SWAP2 POP PUSH1 0x60 DUP3 DUP2 DUP9 ADD MSTORE DUP1 DUP10 ADD MLOAD SWAP3 POP PUSH1 0x80 PUSH1 0x1 DUP1 PUSH1 0xA0 SHL SUB DUP5 AND DUP2 DUP10 ADD MSTORE DUP1 DUP11 ADD MLOAD ISZERO ISZERO PUSH1 0xA0 DUP10 ADD MSTORE DUP8 DUP7 SUB PUSH1 0xC0 DUP10 ADD MSTORE DUP6 SWAP4 POP DUP9 MLOAD DUP1 DUP8 MSTORE DUP6 DUP8 ADD SWAP5 POP DUP6 DUP2 PUSH1 0x5 SHL DUP9 ADD ADD DUP7 DUP12 ADD PUSH1 0x0 DUP1 JUMPDEST DUP5 DUP2 LT ISZERO PUSH2 0x5CB5 JUMPI DUP11 DUP5 SUB PUSH1 0x1F NOT ADD DUP10 MSTORE DUP3 MLOAD DUP1 MLOAD DUP6 MSTORE DUP11 DUP2 ADD MLOAD DUP12 DUP7 ADD DUP10 SWAP1 MSTORE DUP1 MLOAD DUP10 DUP8 ADD DUP2 SWAP1 MSTORE SWAP1 DUP13 ADD SWAP1 DUP5 SWAP1 DUP10 DUP9 ADD SWAP1 JUMPDEST DUP1 DUP4 LT ISZERO PUSH2 0x5C94 JUMPI DUP4 MLOAD PUSH1 0x1 PUSH1 0x1 PUSH1 0xE0 SHL SUB NOT AND DUP3 MSTORE SWAP3 DUP15 ADD SWAP3 PUSH1 0x1 SWAP3 SWAP1 SWAP3 ADD SWAP2 SWAP1 DUP15 ADD SWAP1 PUSH2 0x5C6A JUMP JUMPDEST POP SWAP3 DUP12 ADD MLOAD ISZERO ISZERO SWAP7 DUP12 ADD SWAP7 SWAP1 SWAP7 MSTORE POP SWAP9 DUP11 ADD SWAP9 SWAP4 POP SWAP2 DUP10 ADD SWAP2 PUSH1 0x1 ADD PUSH2 0x5C36 JUMP JUMPDEST POP SWAP2 SWAP16 SWAP15 POP POP POP POP POP POP POP POP POP POP POP POP POP POP POP JUMP JUMPDEST PUSH1 0x80 DUP2 MSTORE PUSH1 0x0 PUSH2 0x5CDE PUSH1 0x80 DUP4 ADD DUP9 DUP11 PUSH2 0x5B95 JUMP JUMPDEST DUP3 DUP2 SUB PUSH1 0x20 DUP5 ADD MSTORE PUSH2 0x5CF1 DUP2 DUP8 DUP10 PUSH2 0x5B95 JUMP JUMPDEST SWAP2 POP POP DUP4 PUSH1 0x40 DUP4 ADD MSTORE PUSH2 0xFFFF DUP4 AND PUSH1 0x60 DUP4 ADD MSTORE SWAP8 SWAP7 POP POP POP POP POP POP POP JUMP JUMPDEST SWAP3 DUP4 MSTORE PUSH1 0x1 PUSH1 0x1 PUSH1 0xA0 SHL SUB SWAP2 SWAP1 SWAP2 AND PUSH1 0x20 DUP4 ADD MSTORE PUSH1 0x1 PUSH1 0x1 PUSH1 0xE0 SHL SUB NOT AND PUSH1 0x40 DUP3 ADD MSTORE PUSH1 0x60 ADD SWAP1 JUMP JUMPDEST DUP3 DUP2 MSTORE PUSH1 0xA0 DUP2 ADD DUP3 CALLDATALOAD PUSH2 0x5D4A DUP2 PUSH2 0x4F7F JUMP JUMPDEST PUSH1 0x1 PUSH1 0x1 PUSH1 0xA0 SHL SUB SWAP1 DUP2 AND PUSH1 0x20 DUP5 DUP2 ADD SWAP2 SWAP1 SWAP2 MSTORE DUP5 ADD CALLDATALOAD SWAP1 PUSH2 0x5D6B DUP3 PUSH2 0x4F7F JUMP JUMPDEST DUP1 DUP3 AND PUSH1 0x40 DUP6 ADD MSTORE POP POP PUSH1 0x40 DUP4 ADD CALLDATALOAD PUSH1 0x60 DUP4 ADD MSTORE PUSH1 0x60 DUP4 ADD CALLDATALOAD PUSH1 0x80 DUP4 ADD MSTORE SWAP4 SWAP3 POP POP POP JUMP JUMPDEST DUP3 DUP2 MSTORE PUSH1 0x40 PUSH1 0x20 DUP3 ADD MSTORE DUP2 CALLDATALOAD PUSH1 0x40 DUP3 ADD MSTORE PUSH1 0x0 PUSH1 0x20 DUP4 ADD CALLDATALOAD PUSH2 0x5DB1 DUP2 PUSH2 0x4F7F JUMP JUMPDEST PUSH1 0x1 PUSH1 0x1 PUSH1 0xA0 SHL SUB AND PUSH1 0x60 DUP4 ADD MSTORE PUSH1 0x40 DUP4 ADD CALLDATALOAD CALLDATASIZE DUP5 SWAP1 SUB PUSH1 0x1E NOT ADD DUP2 SLT PUSH2 0x5DD7 JUMPI PUSH1 0x0 DUP1 REVERT JUMPDEST DUP4 ADD PUSH1 0x20 DUP2 ADD SWAP1 CALLDATALOAD PUSH1 0x1 PUSH1 0x1 PUSH1 0x40 SHL SUB DUP2 GT ISZERO PUSH2 0x5DF3 JUMPI PUSH1 0x0 DUP1 REVERT JUMPDEST DUP1 CALLDATASIZE SUB DUP3 SGT ISZERO PUSH2 0x5E02 JUMPI PUSH1 0x0 DUP1 REVERT JUMPDEST PUSH1 0x60 PUSH1 0x80 DUP6 ADD MSTORE PUSH2 0x4833 PUSH1 0xA0 DUP6 ADD DUP3 DUP5 PUSH2 0x5B95 JUMP JUMPDEST PUSH1 0x0 DUP1 PUSH1 0x40 DUP4 DUP6 SUB SLT ISZERO PUSH2 0x5E2A JUMPI PUSH1 0x0 DUP1 REVERT JUMPDEST DUP3 MLOAD PUSH2 0x5E35 DUP2 PUSH2 0x4F7F JUMP JUMPDEST PUSH1 0x20 SWAP4 SWAP1 SWAP4 ADD MLOAD SWAP3 SWAP5 SWAP3 SWAP4 POP POP POP JUMP JUMPDEST PUSH1 0x1 DUP1 PUSH1 0xA0 SHL SUB DUP6 AND DUP2 MSTORE DUP4 PUSH1 0x20 DUP3 ADD MSTORE PUSH1 0x60 PUSH1 0x40 DUP3 ADD MSTORE PUSH1 0x0 PUSH2 0x4833 PUSH1 0x60 DUP4 ADD DUP5 DUP7 PUSH2 0x5B95 JUMP JUMPDEST PUSH1 0x0 DUP3 MLOAD PUSH2 0x58FA DUP2 DUP5 PUSH1 0x20 DUP8 ADD PUSH2 0x4F1C JUMP JUMPDEST PUSH4 0x4E487B71 PUSH1 0xE0 SHL PUSH1 0x0 MSTORE PUSH1 0x31 PUSH1 0x4 MSTORE PUSH1 0x24 PUSH1 0x0 REVERT JUMPDEST DUP1 DUP3 MUL DUP2 ISZERO DUP3 DUP3 DIV DUP5 EQ OR PUSH2 0xB8E JUMPI PUSH2 0xB8E PUSH2 0x57E7 JUMP JUMPDEST PUSH1 0x0 DUP3 PUSH2 0x5EC9 JUMPI PUSH4 0x4E487B71 PUSH1 0xE0 SHL PUSH1 0x0 MSTORE PUSH1 0x12 PUSH1 0x4 MSTORE PUSH1 0x24 PUSH1 0x0 REVERT JUMPDEST POP DIV SWAP1 JUMP INVALID DIFFICULTY PUSH6 0x6C6567617465 PUSH4 0x616C6C20 PUSH10 0x735265616C6D55706772 PUSH2 0x6461 PUSH3 0x6C6520 CHAINID PUSH2 0x696C PUSH6 0x64360894A13B LOG1 LOG3 0x21 MOD PUSH8 0xC828492DB98DCA3E KECCAK256 PUSH23 0xCC3735A920A3CA505D382BBCA264697066735822122025 BASEFEE 0xB0 0xBE SDIV 0x23 GASPRICE 0xDA 0xAA DUP3 0xE1 EQ SWAP13 0xDE SWAP5 0xDC 0xF 0x2E 0xDF PUSH20 0xD41E4F1F259824CD20DBDD8B64736F6C63430008 GT STOP CALLER 0xB5 BALANCE 0x27 PUSH9 0x4A568B3173AE13B9F8 0xA6 ADD PUSH15 0x243E63B6E8EE1178D6A717850B5D61 SUB "
    },
    "gasEstimates": {
      "creation": {
        "codeDepositCost": "4878600",
        "executionCost": "infinite",
        "totalCost": "infinite"
      },
      "external": {
        "": "209",
        "accessControlManager()": "2420",
        "allowance(address,address)": "infinite",
        "approve(address,uint256)": "infinite",
        "balanceOf(address)": "2665",
        "batchClaimToken(bytes32[])": "infinite",
        "batchLockToken((address,address,uint256,uint256)[])": "infinite",
        "batchTransfer((address,uint256)[])": "infinite",
        "batchTransferFrom((address,address,uint256)[])": "infinite",
        "batchUnlockToken((bytes32,address,string)[])": "infinite",
        "batchUpdateTaxWhitelist((address,bool)[])": "infinite",
        "burn(address,uint256)": "infinite",
        "claimToken(bytes32)": "infinite",
        "contractContext()": "507",
        "contractName()": "2425",
        "contractRealm()": "2425",
        "contractVersion()": "2425",
        "decimals()": "312",
        "decreaseAllowance(address,uint256)": "infinite",
        "domainSeparator()": "4739",
        "getLibrary()": "282",
        "increaseAllowance(address,uint256)": "infinite",
        "initVersion()": "2413",
        "initialize((string,string,string,bytes,uint256,address))": "infinite",
        "isPaused(address)": "infinite",
        "isPausedAll()": "2378",
        "isSafeMode()": "2421",
        "isUpgradable()": "2400",
        "localAdmin()": "2489",
        "lockBalanceOf(address)": "2606",
        "lockInfo(bytes32,address)": "7288",
        "lockToken((address,address,uint256,uint256))": "infinite",
        "mint(address,uint256)": "infinite",
        "name()": "infinite",
        "nonce(address)": "2638",
        "pause(address)": "infinite",
        "pauseAll()": "infinite",
        "pausedAccounts()": "infinite",
        "permit(address,address,uint256,uint256,bytes)": "infinite",
        "proxiableUUID()": "infinite",
        "setLocalAdmin(address)": "infinite",
        "setSafeMode(bool)": "infinite",
        "setUpgradeStatus(bool)": "infinite",
        "subjectAddress()": "infinite",
        "supportsInterface(bytes4)": "infinite",
        "symbol()": "infinite",
        "taxRate()": "2405",
        "taxTreasury()": "2399",
        "taxWhitelist()": "infinite",
        "tokensDistribution(address,address[7])": "infinite",
        "totalBalanceOf(address)": "infinite",
        "totalSupply()": "2361",
        "transfer(address,uint256)": "infinite",
        "transferFrom(address,address,uint256)": "infinite",
        "unlockToken((bytes32,address,string))": "infinite",
        "unpause(address)": "infinite",
        "unpauseAll()": "infinite",
        "updateTaxRate(uint256)": "infinite",
        "updateTaxWhitelist(address,bool)": "infinite",
        "upgradeTo(address,bytes,bool)": "infinite",
        "withdrawBalance(address)": "infinite"
      },
      "internal": {
        "_allowance(address,address)": "2292",
        "_approve(address,address,uint256)": "infinite",
        "_claimToken(bytes32)": "infinite",
        "_initContext(string calldata,string calldata,bytes32,bytes calldata)": "infinite",
        "_lockToken(struct IERC20Lock.LockTokenRequest calldata)": "infinite",
        "_mint(address,uint256)": "infinite",
        "_policyInterceptor(bytes4,address,bool,bool)": "infinite",
        "_spendAllowance(address,address,uint256)": "infinite",
        "_taxTransfer(address,address,uint256)": "infinite",
        "_tokensDistributionValidation(address)": "infinite",
        "_transfer(address,address,uint256)": "infinite",
        "_transferFrom(address,address,uint256)": "infinite",
        "_unlockToken(struct IERC20Lock.UnLockTokenRequest calldata)": "infinite",
        "_updateTaxWhitelist(address,bool)": "infinite",
        "_useNonce(address)": "24340"
      }
    },
    "methodIdentifiers": {
      "accessControlManager()": "b4a0bdf3",
      "allowance(address,address)": "dd62ed3e",
      "approve(address,uint256)": "095ea7b3",
      "balanceOf(address)": "70a08231",
      "batchClaimToken(bytes32[])": "1455a1c8",
      "batchLockToken((address,address,uint256,uint256)[])": "9a7e1873",
      "batchTransfer((address,uint256)[])": "faa552a8",
      "batchTransferFrom((address,address,uint256)[])": "1c6928e8",
      "batchUnlockToken((bytes32,address,string)[])": "9b5f356e",
      "batchUpdateTaxWhitelist((address,bool)[])": "7d35f355",
      "burn(address,uint256)": "9dc29fac",
      "claimToken(bytes32)": "a5bfa9a9",
      "contractContext()": "870666cb",
      "contractName()": "75d0c0dc",
      "contractRealm()": "d3e024b8",
      "contractVersion()": "a0a8e460",
      "decimals()": "313ce567",
      "decreaseAllowance(address,uint256)": "a457c2d7",
      "domainSeparator()": "f698da25",
      "getLibrary()": "7678922e",
      "increaseAllowance(address,uint256)": "39509351",
      "initVersion()": "38d38c97",
      "initialize((string,string,string,bytes,uint256,address))": "1408a7f4",
      "isPaused(address)": "5b14f183",
      "isPausedAll()": "a0e6adf1",
      "isSafeMode()": "be22465d",
      "isUpgradable()": "5479d940",
      "localAdmin()": "f94a0adb",
      "lockBalanceOf(address)": "10e776ed",
      "lockInfo(bytes32,address)": "8bfc07ed",
      "lockToken((address,address,uint256,uint256))": "6b839492",
      "mint(address,uint256)": "40c10f19",
      "name()": "06fdde03",
      "nonce(address)": "70ae92d2",
      "pause(address)": "76a67a51",
      "pauseAll()": "595c6a67",
      "pausedAccounts()": "de843a94",
      "permit(address,address,uint256,uint256,bytes)": "9fd5a6cf",
      "proxiableUUID()": "52d1902d",
      "setLocalAdmin(address)": "d9dc1f19",
      "setSafeMode(bool)": "44b7e5f2",
      "setUpgradeStatus(bool)": "48e6be1c",
      "subjectAddress()": "58dbc45d",
      "supportsInterface(bytes4)": "01ffc9a7",
      "symbol()": "95d89b41",
      "taxRate()": "771a3a1d",
      "taxTreasury()": "8a92ab15",
      "taxWhitelist()": "7bf60ff4",
      "tokensDistribution(address,address[7])": "ec4ac1f7",
      "totalBalanceOf(address)": "4b0ee02a",
      "totalSupply()": "18160ddd",
      "transfer(address,uint256)": "a9059cbb",
      "transferFrom(address,address,uint256)": "23b872dd",
      "unlockToken((bytes32,address,string))": "fdb92ec4",
      "unpause(address)": "57b001f9",
      "unpauseAll()": "8a2ddd03",
      "updateTaxRate(uint256)": "17fdcc8e",
      "updateTaxWhitelist(address,bool)": "46a634d4",
      "upgradeTo(address,bytes,bool)": "7147855d",
      "withdrawBalance(address)": "756af45f"
    }
  },
  "storageLayout": {
    "storage": [
      {
        "astId": 19657,
        "contract": "src/contracts/token/lively/LivelyToken.sol:LivelyToken",
        "label": "_domainName",
        "offset": 0,
        "slot": "0",
        "type": "t_bytes32"
      },
      {
        "astId": 19659,
        "contract": "src/contracts/token/lively/LivelyToken.sol:LivelyToken",
        "label": "_domainVersion",
        "offset": 0,
        "slot": "1",
        "type": "t_bytes32"
      },
      {
        "astId": 19661,
        "contract": "src/contracts/token/lively/LivelyToken.sol:LivelyToken",
        "label": "_domainRealm",
        "offset": 0,
        "slot": "2",
        "type": "t_bytes32"
      },
      {
        "astId": 19663,
        "contract": "src/contracts/token/lively/LivelyToken.sol:LivelyToken",
        "label": "_accessControlManager",
        "offset": 0,
        "slot": "3",
        "type": "t_address"
      },
      {
        "astId": 19665,
        "contract": "src/contracts/token/lively/LivelyToken.sol:LivelyToken",
        "label": "_isSafeMode",
        "offset": 20,
        "slot": "3",
        "type": "t_bool"
      },
      {
        "astId": 19667,
        "contract": "src/contracts/token/lively/LivelyToken.sol:LivelyToken",
        "label": "_isUpgradable",
        "offset": 21,
        "slot": "3",
        "type": "t_bool"
      },
      {
        "astId": 19672,
        "contract": "src/contracts/token/lively/LivelyToken.sol:LivelyToken",
        "label": "__reserved",
        "offset": 0,
        "slot": "4",
        "type": "t_array(t_uint256)64_storage"
      },
      {
        "astId": 25613,
        "contract": "src/contracts/token/lively/LivelyToken.sol:LivelyToken",
        "label": "_name",
        "offset": 0,
        "slot": "68",
        "type": "t_string_storage"
      },
      {
        "astId": 25615,
        "contract": "src/contracts/token/lively/LivelyToken.sol:LivelyToken",
        "label": "_symbol",
        "offset": 0,
        "slot": "69",
        "type": "t_string_storage"
      },
      {
        "astId": 25617,
        "contract": "src/contracts/token/lively/LivelyToken.sol:LivelyToken",
        "label": "_totalSupply",
        "offset": 0,
        "slot": "70",
        "type": "t_uint256"
      },
      {
        "astId": 25619,
        "contract": "src/contracts/token/lively/LivelyToken.sol:LivelyToken",
        "label": "_taxRate",
        "offset": 0,
        "slot": "71",
        "type": "t_uint256"
      },
      {
        "astId": 25621,
        "contract": "src/contracts/token/lively/LivelyToken.sol:LivelyToken",
        "label": "_taxTreasury",
        "offset": 0,
        "slot": "72",
        "type": "t_address"
      },
      {
        "astId": 25623,
        "contract": "src/contracts/token/lively/LivelyToken.sol:LivelyToken",
        "label": "_isPaused",
        "offset": 20,
        "slot": "72",
        "type": "t_bool"
      },
      {
        "astId": 25625,
        "contract": "src/contracts/token/lively/LivelyToken.sol:LivelyToken",
        "label": "_isTokenDistributed",
        "offset": 21,
        "slot": "72",
        "type": "t_bool"
      },
      {
        "astId": 25628,
        "contract": "src/contracts/token/lively/LivelyToken.sol:LivelyToken",
        "label": "_data",
        "offset": 0,
        "slot": "73",
        "type": "t_struct(DataCollection)25606_storage"
      },
      {
        "astId": 19840,
        "contract": "src/contracts/token/lively/LivelyToken.sol:LivelyToken",
        "label": "_initialized",
        "offset": 0,
        "slot": "80",
        "type": "t_uint16"
      },
      {
        "astId": 19843,
        "contract": "src/contracts/token/lively/LivelyToken.sol:LivelyToken",
        "label": "_initializing",
        "offset": 2,
        "slot": "80",
        "type": "t_bool"
      }
    ],
    "types": {
      "t_address": {
        "encoding": "inplace",
        "label": "address",
        "numberOfBytes": "20"
      },
      "t_array(t_bytes32)dyn_storage": {
        "base": "t_bytes32",
        "encoding": "dynamic_array",
        "label": "bytes32[]",
        "numberOfBytes": "32"
      },
      "t_array(t_uint256)64_storage": {
        "base": "t_uint256",
        "encoding": "inplace",
        "label": "uint256[64]",
        "numberOfBytes": "2048"
      },
      "t_bool": {
        "encoding": "inplace",
        "label": "bool",
        "numberOfBytes": "1"
      },
      "t_bytes32": {
        "encoding": "inplace",
        "label": "bytes32",
        "numberOfBytes": "32"
      },
      "t_enum(LockState)25561": {
        "encoding": "inplace",
        "label": "enum LivelyStorage.LockState",
        "numberOfBytes": "1"
      },
      "t_mapping(t_address,t_mapping(t_address,t_uint256))": {
        "encoding": "mapping",
        "key": "t_address",
        "label": "mapping(address => mapping(address => uint256))",
        "numberOfBytes": "32",
        "value": "t_mapping(t_address,t_uint256)"
      },
      "t_mapping(t_address,t_mapping(t_bytes32,t_struct(AssetLock)25581_storage))": {
        "encoding": "mapping",
        "key": "t_address",
        "label": "mapping(address => mapping(bytes32 => struct LivelyStorage.AssetLock))",
        "numberOfBytes": "32",
        "value": "t_mapping(t_bytes32,t_struct(AssetLock)25581_storage)"
      },
      "t_mapping(t_address,t_struct(AccountInfo)25569_storage)": {
        "encoding": "mapping",
        "key": "t_address",
        "label": "mapping(address => struct LivelyStorage.AccountInfo)",
        "numberOfBytes": "32",
        "value": "t_struct(AccountInfo)25569_storage"
      },
      "t_mapping(t_address,t_uint256)": {
        "encoding": "mapping",
        "key": "t_address",
        "label": "mapping(address => uint256)",
        "numberOfBytes": "32",
        "value": "t_uint256"
      },
      "t_mapping(t_bytes32,t_struct(AssetLock)25581_storage)": {
        "encoding": "mapping",
        "key": "t_bytes32",
        "label": "mapping(bytes32 => struct LivelyStorage.AssetLock)",
        "numberOfBytes": "32",
        "value": "t_struct(AssetLock)25581_storage"
      },
      "t_mapping(t_bytes32,t_uint256)": {
        "encoding": "mapping",
        "key": "t_bytes32",
        "label": "mapping(bytes32 => uint256)",
        "numberOfBytes": "32",
        "value": "t_uint256"
      },
      "t_string_storage": {
        "encoding": "bytes",
        "label": "string",
        "numberOfBytes": "32"
      },
      "t_struct(AccountInfo)25569_storage": {
        "encoding": "inplace",
        "label": "struct LivelyStorage.AccountInfo",
        "members": [
          {
            "astId": 25563,
            "contract": "src/contracts/token/lively/LivelyToken.sol:LivelyToken",
            "label": "balance",
            "offset": 0,
            "slot": "0",
            "type": "t_uint256"
          },
          {
            "astId": 25565,
            "contract": "src/contracts/token/lively/LivelyToken.sol:LivelyToken",
            "label": "lockBalance",
            "offset": 0,
            "slot": "1",
            "type": "t_uint256"
          },
          {
            "astId": 25568,
            "contract": "src/contracts/token/lively/LivelyToken.sol:LivelyToken",
            "label": "nonce",
            "offset": 0,
            "slot": "2",
            "type": "t_struct(Counter)3280_storage"
          }
        ],
        "numberOfBytes": "96"
      },
      "t_struct(AddressSet)15618_storage": {
        "encoding": "inplace",
        "label": "struct LEnumerableSet.AddressSet",
        "members": [
          {
            "astId": 15617,
            "contract": "src/contracts/token/lively/LivelyToken.sol:LivelyToken",
            "label": "_inner",
            "offset": 0,
            "slot": "0",
            "type": "t_struct(Set)15317_storage"
          }
        ],
        "numberOfBytes": "64"
      },
      "t_struct(AssetLock)25581_storage": {
        "encoding": "inplace",
        "label": "struct LivelyStorage.AssetLock",
        "members": [
          {
            "astId": 25571,
            "contract": "src/contracts/token/lively/LivelyToken.sol:LivelyToken",
            "label": "amount",
            "offset": 0,
            "slot": "0",
            "type": "t_uint256"
          },
          {
            "astId": 25573,
            "contract": "src/contracts/token/lively/LivelyToken.sol:LivelyToken",
            "label": "lockedAt",
            "offset": 0,
            "slot": "1",
            "type": "t_uint128"
          },
          {
            "astId": 25575,
            "contract": "src/contracts/token/lively/LivelyToken.sol:LivelyToken",
            "label": "claimedAt",
            "offset": 16,
            "slot": "1",
            "type": "t_uint128"
          },
          {
            "astId": 25577,
            "contract": "src/contracts/token/lively/LivelyToken.sol:LivelyToken",
            "label": "source",
            "offset": 0,
            "slot": "2",
            "type": "t_address"
          },
          {
            "astId": 25580,
            "contract": "src/contracts/token/lively/LivelyToken.sol:LivelyToken",
            "label": "status",
            "offset": 20,
            "slot": "2",
            "type": "t_enum(LockState)25561"
          }
        ],
        "numberOfBytes": "96"
      },
      "t_struct(Counter)3280_storage": {
        "encoding": "inplace",
        "label": "struct LCounters.Counter",
        "members": [
          {
            "astId": 3279,
            "contract": "src/contracts/token/lively/LivelyToken.sol:LivelyToken",
            "label": "_value",
            "offset": 0,
            "slot": "0",
            "type": "t_uint256"
          }
        ],
        "numberOfBytes": "32"
      },
      "t_struct(DataCollection)25606_storage": {
        "encoding": "inplace",
        "label": "struct LivelyStorage.DataCollection",
        "members": [
          {
            "astId": 25586,
            "contract": "src/contracts/token/lively/LivelyToken.sol:LivelyToken",
            "label": "accounts",
            "offset": 0,
            "slot": "0",
            "type": "t_mapping(t_address,t_struct(AccountInfo)25569_storage)"
          },
          {
            "astId": 25592,
            "contract": "src/contracts/token/lively/LivelyToken.sol:LivelyToken",
            "label": "allowances",
            "offset": 0,
            "slot": "1",
            "type": "t_mapping(t_address,t_mapping(t_address,t_uint256))"
          },
          {
            "astId": 25599,
            "contract": "src/contracts/token/lively/LivelyToken.sol:LivelyToken",
            "label": "locks",
            "offset": 0,
            "slot": "2",
            "type": "t_mapping(t_address,t_mapping(t_bytes32,t_struct(AssetLock)25581_storage))"
          },
          {
            "astId": 25602,
            "contract": "src/contracts/token/lively/LivelyToken.sol:LivelyToken",
            "label": "pausedList",
            "offset": 0,
            "slot": "3",
            "type": "t_struct(AddressSet)15618_storage"
          },
          {
            "astId": 25605,
            "contract": "src/contracts/token/lively/LivelyToken.sol:LivelyToken",
            "label": "taxWhitelist",
            "offset": 0,
            "slot": "5",
            "type": "t_struct(AddressSet)15618_storage"
          }
        ],
        "numberOfBytes": "224"
      },
      "t_struct(Set)15317_storage": {
        "encoding": "inplace",
        "label": "struct LEnumerableSet.Set",
        "members": [
          {
            "astId": 15312,
            "contract": "src/contracts/token/lively/LivelyToken.sol:LivelyToken",
            "label": "_values",
            "offset": 0,
            "slot": "0",
            "type": "t_array(t_bytes32)dyn_storage"
          },
          {
            "astId": 15316,
            "contract": "src/contracts/token/lively/LivelyToken.sol:LivelyToken",
            "label": "_indexes",
            "offset": 0,
            "slot": "1",
            "type": "t_mapping(t_bytes32,t_uint256)"
          }
        ],
        "numberOfBytes": "64"
      },
      "t_uint128": {
        "encoding": "inplace",
        "label": "uint128",
        "numberOfBytes": "16"
      },
      "t_uint16": {
        "encoding": "inplace",
        "label": "uint16",
        "numberOfBytes": "2"
      },
      "t_uint256": {
        "encoding": "inplace",
        "label": "uint256",
        "numberOfBytes": "32"
      }
    }
  },
  "userdoc": {
    "kind": "user",
    "methods": {},
    "version": 1
  }
}