{
  "contractName": "LContextManagement",
  "sourceName": "src/contracts/lib/acl/LContextManagement.sol",
  "abi": [
    {
      "inputs": [],
      "name": "CTX_MESSAGE_TYPEHASH",
      "outputs": [
        {
          "internalType": "bytes32",
          "name": "",
          "type": "bytes32"
        }
      ],
      "stateMutability": "view",
      "type": "function"
    },
    {
      "inputs": [],
      "name": "LIB_NAME",
      "outputs": [
        {
          "internalType": "bytes32",
          "name": "",
          "type": "bytes32"
        }
      ],
      "stateMutability": "view",
      "type": "function"
    },
    {
      "inputs": [],
      "name": "LIB_VERSION",
      "outputs": [
        {
          "internalType": "bytes32",
          "name": "",
          "type": "bytes32"
        }
      ],
      "stateMutability": "view",
      "type": "function"
    },
    {
      "inputs": [],
      "name": "PREDICT_CTX_MESSAGE_TYPEHASH",
      "outputs": [
        {
          "internalType": "bytes32",
          "name": "",
          "type": "bytes32"
        }
      ],
      "stateMutability": "view",
      "type": "function"
    },
    {
      "inputs": [],
      "name": "TYPE_HASH",
      "outputs": [
        {
          "internalType": "bytes32",
          "name": "",
          "type": "bytes32"
        }
      ],
      "stateMutability": "view",
      "type": "function"
    }
  ],
  "bytecode": "0x613c4a61003a600b82828239805160001a60731461002d57634e487b7160e01b600052600060045260246000fd5b30600052607381538281f3fe73000000000000000000000000000000000000000030146080604052600436106101205760003560e01c806364d4c819116100ac578063b0c255751161007b578063b0c255751461036c578063bec947511461038c578063ec77eb2114610394578063f0b15def146103b4578063faee6718146103db57600080fd5b806364d4c8191461029b5780637134bb45146102c2578063733ae93e146102e55780637cc5941d1461034c57600080fd5b80633e015ef6116100f35780633e015ef6146101e4578063453dd6dc1461021b5780634ac3fdd41461023b578063518bf9601461025b5780635acd816a1461027b57600080fd5b8063099a0c2e1461012557806315922efe1461016a5780632466209b146101a757806334109de2146101bd575b600080fd5b81801561013157600080fd5b50610145610140366004613507565b6103fb565b604080516001600160a01b039384168152929091166020830152015b60405180910390f35b81801561017657600080fd5b5061018a610185366004613598565b610673565b604080519283526001600160a01b03909116602083015201610161565b6101af61087b565b604051908152602001610161565b6101af7f7aabe2571874f2a330ea11c8972d9cc3792d973efc6b36e3e29005861a34418881565b8180156101f057600080fd5b506102046101ff36600461361f565b6108a9565b604080519215158352602083019190915201610161565b81801561022757600080fd5b506101af610236366004613668565b610b9e565b81801561024757600080fd5b5061018a6102563660046136a5565b610e62565b81801561026757600080fd5b506101af610276366004613668565b6110c2565b81801561028757600080fd5b506101af610296366004613668565b611374565b6101af7f8b73c3c69bb8fe3d512ecc4cf759cc79239f7b179b0ffacaa9a75d522b39400f81565b6102d56102d0366004613727565b611621565b6040519015158152602001610161565b6102f86102f3366004613766565b6116c7565b60405161016191908151815260208083015190820152604080830151908201526060808301516001600160a01b03169082015260808083015115159082015260a09182015115159181019190915260c00190565b81801561035857600080fd5b50610204610367366004613799565b611994565b81801561037857600080fd5b506101af6103873660046137d2565b611bc5565b6101af611e5d565b6103a76103a2366004613766565b611e83565b6040516101619190613807565b6101af7f742ceb9720f43497d1f82b10d01407d0e9f305eea4d19d30f9a36e467437594681565b8180156103e757600080fd5b506101af6103f636600461386c565b611fbc565b600080306001600160a01b031663be22465d6040518163ffffffff1660e01b8152600401602060405180830381865afa15801561043c573d6000803e3d6000fd5b505050506040513d601f19601f8201168201806040525081019061046091906138c3565b156104865760405162461bcd60e51b815260040161047d906138e0565b60405180910390fd5b600061051061049b6080880160608901613917565b604080517f7aabe2571874f2a330ea11c8972d9cc3792d973efc6b36e3e29005861a3441886020828101919091526001600160a01b03939093168183015289356060820152828a01356080820152818a013560a0808301919091528251808303909101815260c0909101909152805191012090565b9050600061051d82611fd7565b905060008061052c838b612025565b9092509050600081600481111561054557610545613932565b146105625760405162461bcd60e51b815260040161047d90613948565b73__$c43b1d7058274a71a9734d16e6b6586431$__63487c69608d61058630612093565b6040516001600160e01b031960e085901b1681526105b39291908790631ccb7c8d60e31b9060040161397f565b602060405180830381865af41580156105d0573d6000803e3d6000fd5b505050506040513d601f19601f820116820180604052508101906105f491906138c3565b6106405760405162461bcd60e51b815260206004820152601b60248201527f557064617465436f6e74657874204163636573732044656e6965640000000000604482015260640161047d565b6106618c8c60408c013561065a60a08e0160808f016139ad565b8c8c6120d2565b9c919b50909950505050505050505050565b600080306001600160a01b031663be22465d6040518163ffffffff1660e01b8152600401602060405180830381865afa1580156106b4573d6000803e3d6000fd5b505050506040513d601f19601f820116820180604052508101906106d891906138c3565b156106f55760405162461bcd60e51b815260040161047d906138e0565b600061070a61049b6080880160608901613917565b9050600061071782611fd7565b9050600080610726838b612025565b9092509050600081600481111561073f5761073f613932565b1461075c5760405162461bcd60e51b815260040161047d90613948565b73__$c43b1d7058274a71a9734d16e6b6586431$__63487c69608c61078030612093565b6040516001600160e01b031960e085901b1681526107ad92919087906378efa4ed60e11b9060040161397f565b602060405180830381865af41580156107ca573d6000803e3d6000fd5b505050506040513d601f19601f820116820180604052508101906107ee91906138c3565b61083a5760405162461bcd60e51b815260206004820152601d60248201527f5265676973746572436f6e74657874204163636573732044656e696564000000604482015260640161047d565b61086a8b61084e60808c0160608d01613917565b60408c013561086360a08e0160808f016139ad565b8c8c6127f9565b9b919a509098505050505050505050565b604051640312e302e360dc1b60208201526025015b6040516020818303038152906040528051906020012081565b600080306001600160a01b031663be22465d6040518163ffffffff1660e01b8152600401602060405180830381865afa1580156108ea573d6000803e3d6000fd5b505050506040513d601f19601f8201168201806040525081019061090e91906138c3565b1561092b5760405162461bcd60e51b815260040161047d906138e0565b73__$c43b1d7058274a71a9734d16e6b6586431$__63487c69608661094f30612093565b6040516001600160e01b031960e085901b16815261097c929190339063d338640160e01b9060040161397f565b602060405180830381865af4158015610999573d6000803e3d6000fd5b505050506040513d601f19601f820116820180604052508101906109bd91906138c3565b610a095760405162461bcd60e51b815260206004820152601d60248201527f536574436f6e746578745265616c6d204163636573732044656e696564000000604482015260640161047d565b83610a1330612093565b03610a605760405162461bcd60e51b815260206004820181905260248201527f496c6c6567616c204368616e67652041434c20436f6e74657874205265616c6d604482015260640161047d565b60008481526001808701602052604090912001546001600160a01b0316610a995760405162461bcd60e51b815260040161047d906139ca565b600083815260038601602052604090208054610ab4906139f5565b9050600003610ad55760405162461bcd60e51b815260040161047d90613a29565b6000848152600186016020526040902054839003610b355760405162461bcd60e51b815260206004820152601960248201527f496c6c6567616c205265616c6d204475706c69636174696f6e00000000000000604482015260640161047d565b600084815260018601602090815260408083205486845260038901909252909120610b639060020186612bd6565b5060008581526001870160209081526040808320548352600389019091529020610b909060020186612be9565b506001969095509350505050565b6000306001600160a01b031663be22465d6040518163ffffffff1660e01b8152600401602060405180830381865afa158015610bde573d6000803e3d6000fd5b505050506040513d601f19601f82011682018060405250810190610c0291906138c3565b15610c1f5760405162461bcd60e51b815260040161047d906138e0565b73__$c43b1d7058274a71a9734d16e6b6586431$__63487c696086610c4330612093565b6040516001600160e01b031960e085901b168152610c70929190339063771bcf4560e01b9060040161397f565b602060405180830381865af4158015610c8d573d6000803e3d6000fd5b505050506040513d601f19601f82011682018060405250810190610cb191906138c3565b610cfd5760405162461bcd60e51b815260206004820152601e60248201527f4772616e74436f6e74657874526f6c65204163636573732044656e6965640000604482015260640161047d565b83610d0730612093565b03610d545760405162461bcd60e51b815260206004820152601960248201527f496c6c6567616c204772616e742041434c20436f6e7465787400000000000000604482015260640161047d565b60008481526001808701602052604090912001546001600160a01b0316610d8d5760405162461bcd60e51b815260040161047d906139ca565b600082815260028601602052604090208054610da8906139f5565b9050600003610dc95760405162461bcd60e51b815260040161047d90613a52565b60008481526001860160205260409020610df0906003016001600160e01b03198516612bf5565b610e0c5760405162461bcd60e51b815260040161047d90613a7a565b60008481526001868101602090815260408084206001600160e01b0319881685526002019091529091208381558101805460ff191682805b02179055505050600091825250600191909101602052604090205490565b600080306001600160a01b031663be22465d6040518163ffffffff1660e01b8152600401602060405180830381865afa158015610ea3573d6000803e3d6000fd5b505050506040513d601f19601f82011682018060405250810190610ec791906138c3565b15610ee45760405162461bcd60e51b815260040161047d906138e0565b6000610f7a610ef960c0880160a08901613917565b604080517f742ceb9720f43497d1f82b10d01407d0e9f305eea4d19d30f9a36e46743759466020828101919091526001600160a01b03939093168183015289356060820152828a0135608082810191909152828b013560a08301528a013560c0808301919091528251808303909101815260e0909101909152805191012090565b90506000610f8782611fd7565b9050600080610f96838b612025565b90925090506000816004811115610faf57610faf613932565b14610fcc5760405162461bcd60e51b815260040161047d90613948565b73__$c43b1d7058274a71a9734d16e6b6586431$__63487c69608c610ff030612093565b6040516001600160e01b031960e085901b16815261101d92919087906378efa4ed60e11b9060040161397f565b602060405180830381865af415801561103a573d6000803e3d6000fd5b505050506040513d601f19601f8201168201806040525081019061105e91906138c3565b6110b65760405162461bcd60e51b8152602060048201526024808201527f526567697374657250726564696374436f6e74657874204163636573732044656044820152631b9a595960e21b606482015260840161047d565b61086a8b89898c612c0d565b6000306001600160a01b031663be22465d6040518163ffffffff1660e01b8152600401602060405180830381865afa158015611102573d6000803e3d6000fd5b505050506040513d601f19601f8201168201806040525081019061112691906138c3565b156111435760405162461bcd60e51b815260040161047d906138e0565b73__$c43b1d7058274a71a9734d16e6b6586431$__63487c69608661116730612093565b6040516001600160e01b031960e085901b168152611194929190339063031c049360e01b9060040161397f565b602060405180830381865af41580156111b1573d6000803e3d6000fd5b505050506040513d601f19601f820116820180604052508101906111d591906138c3565b6112215760405162461bcd60e51b815260206004820181905260248201527f416464436f6e7465787446756e63526f6c65204163636573732044656e696564604482015260640161047d565b60008481526001808701602052604090912001546001600160a01b031661125a5760405162461bcd60e51b815260040161047d906139ca565b600082815260028601602052604090208054611275906139f5565b90506000036112965760405162461bcd60e51b815260040161047d90613a52565b600084815260018601602052604090206112bd906003016001600160e01b03198516612bf5565b1561130a5760405162461bcd60e51b815260206004820152601f60248201527f46756e6374696f6e53656c6563746f7220416c72656164792045786973747300604482015260640161047d565b60008481526001868101602081815260408085206001600160e01b031989168087526002820184529186208881558501805460ff1916909517909455938890525261135a91600390910190612bd6565b505050600091825250600191909101602052604090205490565b6000306001600160a01b031663be22465d6040518163ffffffff1660e01b8152600401602060405180830381865afa1580156113b4573d6000803e3d6000fd5b505050506040513d601f19601f820116820180604052508101906113d891906138c3565b156113f55760405162461bcd60e51b815260040161047d906138e0565b73__$c43b1d7058274a71a9734d16e6b6586431$__63487c69608661141930612093565b6040516001600160e01b031960e085901b1681526114469291903390634346a04b60e01b9060040161397f565b602060405180830381865af4158015611463573d6000803e3d6000fd5b505050506040513d601f19601f8201168201806040525081019061148791906138c3565b6114d35760405162461bcd60e51b815260206004820152601f60248201527f5265766f6b65436f6e74657874526f6c65204163636573732044656e69656400604482015260640161047d565b836114dd30612093565b0361152a5760405162461bcd60e51b815260206004820152601a60248201527f496c6c6567616c205265766f6b652041434c20436f6e74657874000000000000604482015260640161047d565b60008481526001808701602052604090912001546001600160a01b03166115635760405162461bcd60e51b815260040161047d906139ca565b60008281526002860160205260409020805461157e906139f5565b905060000361159f5760405162461bcd60e51b815260040161047d90613a52565b600084815260018601602052604090206115c6906003016001600160e01b03198516612bf5565b6115e25760405162461bcd60e51b815260040161047d90613a7a565b60008481526001808701602090815260408084206001600160e01b031988168552600290810190925290922081018054909160ff199091169083610e44565b600083815260018086016020526040822001546001600160a01b0316158015906116725750600084815260018601602090815260408083206001600160e01b03198616845260020190915290205483145b80156116be5750600160008581526001808801602090815260408084206001600160e01b0319881685526002908101909252909220015460ff16908111156116bc576116bc613932565b145b95945050505050565b6040805160c081018252600080825260208201819052918101829052606081018290526080810182905260a081019190915260008281526001808501602052604090912001546001600160a01b03166117325760405162461bcd60e51b815260040161047d906139ca565b6000828152600180850160209081526040808420909201548251631d74303760e21b815292516001600160a01b03909116926375d0c0dc9260048083019391928290030181865afa15801561178b573d6000803e3d6000fd5b505050506040513d601f19601f820116820180604052508101906117af9190613ab1565b6000848152600180870160209081526040808420909201548251630505472360e51b8152925194955092936001600160a01b039093169263a0a8e4609260048082019392918290030181865afa15801561180d573d6000803e3d6000fd5b505050506040513d601f19601f820116820180604052508101906118319190613ab1565b600085815260018088016020908152604080842090920154825163be22465d60e01b8152925194955092936001600160a01b039093169263be22465d9260048082019392918290030181865afa15801561188f573d6000803e3d6000fd5b505050506040513d601f19601f820116820180604052508101906118b391906138c3565b6000868152600180890160209081526040808420909201548251630151e76560e61b8152925194955092936001600160a01b0390931692635479d9409260048082019392918290030181865afa158015611911573d6000803e3d6000fd5b505050506040513d601f19601f8201168201806040525081019061193591906138c3565b6040805160c08101825295865260208087019590955260008881526001808b018088528383208054948a0194909452918a90529552909301546001600160a01b031660608501525015156080830152151560a082015290505b92915050565b600080306001600160a01b031663be22465d6040518163ffffffff1660e01b8152600401602060405180830381865afa1580156119d5573d6000803e3d6000fd5b505050506040513d601f19601f820116820180604052508101906119f991906138c3565b15611a165760405162461bcd60e51b815260040161047d906138e0565b73__$c43b1d7058274a71a9734d16e6b6586431$__63487c696086611a3a30612093565b6040516001600160e01b031960e085901b168152611a6792919033906370420ee360e01b9060040161397f565b602060405180830381865af4158015611a84573d6000803e3d6000fd5b505050506040513d601f19601f82011682018060405250810190611aa891906138c3565b611af45760405162461bcd60e51b815260206004820152601e60248201527f536574436f6e74657874537461747573204163636573732044656e6965640000604482015260640161047d565b83611afe30612093565b03611b555760405162461bcd60e51b815260206004820152602160248201527f496c6c6567616c204368616e67652041434c20436f6e746578742053746174756044820152607360f81b606482015260840161047d565b60008481526001808701602052604090912001546001600160a01b0316611b8e5760405162461bcd60e51b815260040161047d906139ca565b50506000828152600180850160205260409091208082018054841515600160a01b0260ff60a01b1990911617905554935093915050565b6000306001600160a01b031663be22465d6040518163ffffffff1660e01b8152600401602060405180830381865afa158015611c05573d6000803e3d6000fd5b505050506040513d601f19601f82011682018060405250810190611c2991906138c3565b15611c465760405162461bcd60e51b815260040161047d906138e0565b73__$c43b1d7058274a71a9734d16e6b6586431$__63487c696085611c6a30612093565b6040516001600160e01b031960e085901b168152611c979291903390635ac4b36f60e11b9060040161397f565b602060405180830381865af4158015611cb4573d6000803e3d6000fd5b505050506040513d601f19601f82011682018060405250810190611cd891906138c3565b611d245760405162461bcd60e51b815260206004820152601f60248201527f52656d6f7665436f6e7465787446756e63204163636573732044656e69656400604482015260640161047d565b82611d2e30612093565b03611d7b5760405162461bcd60e51b815260206004820152601a60248201527f496c6c6567616c2052656d6f76652041434c20436f6e74657874000000000000604482015260640161047d565b60008381526001808601602052604090912001546001600160a01b0316611db45760405162461bcd60e51b815260040161047d906139ca565b60008381526001850160205260409020611ddb906003016001600160e01b03198416612bf5565b611df75760405162461bcd60e51b815260040161047d90613a7a565b60008381526001808601602081815260408085206001600160e01b03198816808752600282018452918620868155909401805460ff191690559387905252611e4491600390910190612be9565b5050506000908152600191909101602052604090205490565b604051711310dbdb9d195e1d13585b9859d95b595b9d60721b6020820152603201610890565b60008181526001808401602052604090912001546060906001600160a01b0316611ebf5760405162461bcd60e51b815260040161047d906139ca565b60008281526001840160205260408120611edb90600301613037565b67ffffffffffffffff811115611ef357611ef3613407565b604051908082528060200260200182016040528015611f1c578160200160208202803683370190505b50905060005b60008481526001860160205260409020611f3e90600301613037565b8163ffffffff161015611fb45760008481526001860160205260409020611f719060030163ffffffff8084169061304116565b828263ffffffff1681518110611f8957611f89613aca565b6001600160e01b03199092166020928302919091019091015280611fac81613af6565b915050611f22565b509392505050565b6000611fcd868686600187876127f9565b9695505050505050565b600061198e611fe461304d565b8360405161190160f01b6020820152602281018390526042810182905260009060620160405160208183030381529060405280519060200120905092915050565b600080825160410361205b5760208301516040840151606085015160001a61204f87828585613175565b9450945050505061208c565b82516040036120845760208301516040840151612079868383613262565b93509350505061208c565b506000905060025b9250929050565b6040516bffffffffffffffffffffffff19606083901b166020820152600090603401604051602081830303815290604052805190602001209050919050565b600085815260018088016020526040822001546001600160a01b03168061210b5760405162461bcd60e51b815260040161047d906139ca565b6001600160a01b03811633146121635760405162461bcd60e51b815260206004820152601860248201527f55706461746520436f6e7465787420466f7262696464656e0000000000000000604482015260640161047d565b60008681526003890160205260409020805461217e906139f5565b905060000361219f5760405162461bcd60e51b815260040161047d90613a29565b600087815260018981016020526040909120908101805460ff60a01b1916600160a01b8815150217905554861461221c576000878152600189016020908152604080832054835260038b0190915290206121fc9060020188612be9565b506000868152600389016020526040902061221a9060020188612bd6565b505b600087815260018901602052604081208790555b838110156127ed5788600201600086868481811061225057612250613aca565b90506020028101906122629190613b19565b3581526020810191909152604001600020805461227e906139f5565b905060000361229f5760405162461bcd60e51b815260040161047d90613a52565b60005b8585838181106122b4576122b4613aca565b90506020028101906122c69190613b19565b6122d4906020810190613b39565b90508110156127da5760018686848181106122f1576122f1613aca565b90506020028101906123039190613b19565b612314906060810190604001613b83565b600281111561232557612325613932565b14806123765750600086868481811061234057612340613aca565b90506020028101906123529190613b19565b612363906060810190604001613b83565b600281111561237457612374613932565b145b156126305785858381811061238d5761238d613aca565b905060200281019061239f9190613b19565b60008a815260018c0160205260408120913591600201908888868181106123c8576123c8613aca565b90506020028101906123da9190613b19565b6123e8906020810190613b39565b858181106123f8576123f8613aca565b905060200201602081019061240d9190613ba4565b6001600160e01b0319168152602081019190915260400160002055600186868481811061243c5761243c613aca565b905060200281019061244e9190613b19565b61245f906060810190604001613b83565b600281111561247057612470613932565b1461247c57600261247f565b60015b60008a815260018c0160205260408120600201908888868181106124a5576124a5613aca565b90506020028101906124b79190613b19565b6124c5906020810190613b39565b858181106124d5576124d5613aca565b90506020020160208101906124ea9190613ba4565b6001600160e01b0319168152602081019190915260400160002060019081018054909160ff199091169083600281111561252657612526613932565b02179055506125a886868481811061254057612540613aca565b90506020028101906125529190613b19565b612560906020810190613b39565b8381811061257057612570613aca565b90506020020160208101906125859190613ba4565b60008b815260018d0160205260409020600301906001600160e01b031916612bf5565b61262b576126298686848181106125c1576125c1613aca565b90506020028101906125d39190613b19565b6125e1906020810190613b39565b838181106125f1576125f1613aca565b90506020020160208101906126069190613ba4565b60008b815260018d0160205260409020600301906001600160e01b031916612bd6565b505b6127c8565b600089815260018b01602052604081206002019087878581811061265657612656613aca565b90506020028101906126689190613b19565b612676906020810190613b39565b8481811061268657612686613aca565b905060200201602081019061269b9190613ba4565b6001600160e01b0319168152602080820192909252604090810160009081208190558b815260018d019092528120600201908787858181106126df576126df613aca565b90506020028101906126f19190613b19565b6126ff906020810190613b39565b8481811061270f5761270f613aca565b90506020020160208101906127249190613ba4565b6001600160e01b03191681526020810191909152604001600020600101805460ff191690556127c686868481811061275e5761275e613aca565b90506020028101906127709190613b19565b61277e906020810190613b39565b8381811061278e5761278e613aca565b90506020020160208101906127a39190613ba4565b60008b815260018d0160205260409020600301906001600160e01b031916612be9565b505b806127d281613bbf565b9150506122a2565b50806127e581613bbf565b915050612230565b50979650505050505050565b600084815260038701602052604081208054612814906139f5565b90506000036128355760405162461bcd60e51b815260040161047d90613a29565b600061284087612093565b60008181526001808b01602052604090912001549091506001600160a01b0316156128ad5760405162461bcd60e51b815260206004820152601a60248201527f436f6e7465787420416c72656164792052656769737465726564000000000000604482015260640161047d565b600086815260038901602052604090206128ca9060020182612bd6565b5060008181526001808a01602052604082208881559081018054881515600160a01b026001600160a81b03199091166001600160a01b038c1617179055905b84811015612bc85789600201600087878481811061292957612929613aca565b905060200281019061293b9190613b19565b35815260208101919091526040016000208054612957906139f5565b90506000036129785760405162461bcd60e51b815260040161047d90613a52565b60005b86868381811061298d5761298d613aca565b905060200281019061299f9190613b19565b6129ad906020810190613b39565b9050811015612bb5578686838181106129c8576129c8613aca565b90506020028101906129da9190613b19565b356002840160008989868181106129f3576129f3613aca565b9050602002810190612a059190613b19565b612a13906020810190613b39565b85818110612a2357612a23613aca565b9050602002016020810190612a389190613ba4565b6001600160e01b0319168152602081019190915260400160002055868683818110612a6557612a65613aca565b9050602002810190612a779190613b19565b612a889060608101906040016139ad565b612a93576002612a96565b60015b836002016000898986818110612aae57612aae613aca565b9050602002810190612ac09190613b19565b612ace906020810190613b39565b85818110612ade57612ade613aca565b9050602002016020810190612af39190613ba4565b6001600160e01b0319168152602081019190915260400160002060019081018054909160ff1990911690836002811115612b2f57612b2f613932565b0217905550612ba2878784818110612b4957612b49613aca565b9050602002810190612b5b9190613b19565b612b69906020810190613b39565b83818110612b7957612b79613aca565b9050602002016020810190612b8e9190613ba4565b60038501906001600160e01b031916612bd6565b5080612bad81613bbf565b91505061297b565b5080612bc081613bbf565b915050612909565b509098975050505050505050565b6000612be2838361329b565b9392505050565b6000612be283836132ea565b60008181526001830160205260408120541515612be2565b6040808201356000908152600386016020529081208054612c2d906139f5565b9050600003612c4e5760405162461bcd60e51b815260040161047d90613a29565b60006001600160f81b0319612c6960c0850160a08601613917565b6040516001600160f81b031990921660208301526bffffffffffffffffffffffff19606091821b1660218301528401356035820152608084013560558201526075016040516020818303038152906040528051906020012060001c90506000612cd182612093565b60008181526001808a01602052604090912001549091506001600160a01b031615612d3e5760405162461bcd60e51b815260206004820152601a60248201527f436f6e7465787420416c72656164792052656769737465726564000000000000604482015260640161047d565b60408085013560009081526003890160205220612d5e9060020182612bd6565b5060008181526001888101602052604091829020918601358255810180546001600160a01b0319166001600160a01b038516179055612da360e0860160c087016139ad565b600182018054911515600160a01b0260ff60a01b1990921691909117905560005b8681101561302a57886002016000898984818110612de457612de4613aca565b9050602002810190612df69190613b19565b35815260208101919091526040016000208054612e12906139f5565b9050600003612e335760405162461bcd60e51b815260040161047d90613a52565b60005b888883818110612e4857612e48613aca565b9050602002810190612e5a9190613b19565b612e68906020810190613b39565b905081101561301757888883818110612e8357612e83613aca565b9050602002810190612e959190613b19565b356002840160008b8b86818110612eae57612eae613aca565b9050602002810190612ec09190613b19565b612ece906020810190613b39565b85818110612ede57612ede613aca565b9050602002016020810190612ef39190613ba4565b6001600160e01b0319168152602081019190915260400160002055888883818110612f2057612f20613aca565b9050602002810190612f329190613b19565b612f439060608101906040016139ad565b612f4e576002612f51565b60015b8360020160008b8b86818110612f6957612f69613aca565b9050602002810190612f7b9190613b19565b612f89906020810190613b39565b85818110612f9957612f99613aca565b9050602002016020810190612fae9190613ba4565b6001600160e01b0319168152602081019190915260400160002060019081018054909160ff1990911690836002811115612fea57612fea613932565b0217905550613004898984818110612b4957612b49613aca565b508061300f81613bbf565b915050612e36565b508061302281613bbf565b915050612dc4565b5090979650505050505050565b600061198e825490565b6000612be283836133dd565b60007f8b73c3c69bb8fe3d512ecc4cf759cc79239f7b179b0ffacaa9a75d522b39400f306001600160a01b03166375d0c0dc6040518163ffffffff1660e01b8152600401602060405180830381865afa1580156130ae573d6000803e3d6000fd5b505050506040513d601f19601f820116820180604052508101906130d29190613ab1565b306001600160a01b031663a0a8e4606040518163ffffffff1660e01b8152600401602060405180830381865afa158015613110573d6000803e3d6000fd5b505050506040513d601f19601f820116820180604052508101906131349190613ab1565b60408051602081019490945283019190915260608201524660808201523060a082015260c00160405160208183030381529060405280519060200120905090565b6000807f7fffffffffffffffffffffffffffffff5d576e7357a4501ddfe92f46681b20a08311156131ac5750600090506003613259565b8460ff16601b141580156131c457508460ff16601c14155b156131d55750600090506004613259565b6040805160008082526020820180845289905260ff881692820192909252606081018690526080810185905260019060a0016020604051602081039080840390855afa158015613229573d6000803e3d6000fd5b5050604051601f1901519150506001600160a01b03811661325257600060019250925050613259565b9150600090505b94509492505050565b6000806001600160ff1b0383168161327f60ff86901c601b613bd8565b905061328d87828885613175565b935093505050935093915050565b60008181526001830160205260408120546132e25750815460018181018455600084815260208082209093018490558454848252828601909352604090209190915561198e565b50600061198e565b600081815260018301602052604081205480156133d357600061330e600183613beb565b855490915060009061332290600190613beb565b905081811461338757600086600001828154811061334257613342613aca565b906000526020600020015490508087600001848154811061336557613365613aca565b6000918252602080832090910192909255918252600188019052604090208390555b855486908061339857613398613bfe565b60019003818190600052602060002001600090559055856001016000868152602001908152602001600020600090556001935050505061198e565b600091505061198e565b60008260000182815481106133f4576133f4613aca565b9060005260206000200154905092915050565b634e487b7160e01b600052604160045260246000fd5b600082601f83011261342e57600080fd5b813567ffffffffffffffff8082111561344957613449613407565b604051601f8301601f19908116603f0116810190828211818310171561347157613471613407565b8160405283815286602085880101111561348a57600080fd5b836020870160208301376000602085830101528094505050505092915050565b600060a082840312156134bc57600080fd5b50919050565b60008083601f8401126134d457600080fd5b50813567ffffffffffffffff8111156134ec57600080fd5b6020830191508360208260051b850101111561208c57600080fd5b600080600080600080610120878903121561352157600080fd5b8635955060208701359450604087013567ffffffffffffffff8082111561354757600080fd5b6135538a838b0161341d565b95506135628a60608b016134aa565b945061010089013591508082111561357957600080fd5b5061358689828a016134c2565b979a9699509497509295939492505050565b600080600080600061010086880312156135b157600080fd5b85359450602086013567ffffffffffffffff808211156135d057600080fd5b6135dc89838a0161341d565b95506135eb8960408a016134aa565b945060e088013591508082111561360157600080fd5b5061360e888289016134c2565b969995985093965092949392505050565b60008060006060848603121561363457600080fd5b505081359360208301359350604090920135919050565b80356001600160e01b03198116811461366357600080fd5b919050565b6000806000806080858703121561367e57600080fd5b84359350602085013592506136956040860161364b565b9396929550929360600135925050565b60008060008060008587036101408112156136bf57600080fd5b86359550602087013567ffffffffffffffff808211156136de57600080fd5b6136ea8a838b0161341d565b965060e0603f19840112156136fe57600080fd5b60408901955061012089013592508083111561371957600080fd5b505061360e888289016134c2565b6000806000806080858703121561373d57600080fd5b84359350602085013592506040850135915061375b6060860161364b565b905092959194509250565b6000806040838503121561377957600080fd5b50508035926020909101359150565b801515811461379657600080fd5b50565b6000806000606084860312156137ae57600080fd5b833592506020840135915060408401356137c781613788565b809150509250925092565b6000806000606084860312156137e757600080fd5b83359250602084013591506137fe6040850161364b565b90509250925092565b6020808252825182820181905260009190848201906040850190845b818110156138495783516001600160e01b03191683529284019291840191600101613823565b50909695505050505050565b80356001600160a01b038116811461366357600080fd5b60008060008060006080868803121561388457600080fd5b8535945061389460208701613855565b935060408601359250606086013567ffffffffffffffff8111156138b757600080fd5b61360e888289016134c2565b6000602082840312156138d557600080fd5b8151612be281613788565b60208082526017908201527f536166654d6f64653a2043616c6c2052656a6563746564000000000000000000604082015260600190565b60006020828403121561392957600080fd5b612be282613855565b634e487b7160e01b600052602160045260246000fd5b60208082526018908201527f496c6c6567616c20454344415341205369676e61747572650000000000000000604082015260600190565b93845260208401929092526001600160a01b031660408301526001600160e01b031916606082015260800190565b6000602082840312156139bf57600080fd5b8135612be281613788565b60208082526011908201527010dbdb9d195e1d08139bdd08119bdd5b99607a1b604082015260600190565b600181811c90821680613a0957607f821691505b6020821081036134bc57634e487b7160e01b600052602260045260246000fd5b6020808252600f908201526e1499585b1b48139bdd08119bdd5b99608a1b604082015260600190565b6020808252600e908201526d149bdb1948139bdd08119bdd5b9960921b604082015260600190565b6020808252601a908201527f46756e6374696f6e53656c6563746f72204e6f7420466f756e64000000000000604082015260600190565b600060208284031215613ac357600080fd5b5051919050565b634e487b7160e01b600052603260045260246000fd5b634e487b7160e01b600052601160045260246000fd5b600063ffffffff808316818103613b0f57613b0f613ae0565b6001019392505050565b60008235605e19833603018112613b2f57600080fd5b9190910192915050565b6000808335601e19843603018112613b5057600080fd5b83018035915067ffffffffffffffff821115613b6b57600080fd5b6020019150600581901b360382131561208c57600080fd5b600060208284031215613b9557600080fd5b813560038110612be257600080fd5b600060208284031215613bb657600080fd5b612be28261364b565b600060018201613bd157613bd1613ae0565b5060010190565b8082018082111561198e5761198e613ae0565b8181038181111561198e5761198e613ae0565b634e487b7160e01b600052603160045260246000fdfea26469706673582212202f2f5d4d160b16b187b9f08ee74fcfc6e75bab274a86ec00b416a9782bde21c664736f6c63430008110033",
  "linkReferences": {
    "src/contracts/lib/acl/LAccessControl.sol": {
      "LAccessControl": [
        {
          "length": 20,
          "start": 1438
        },
        {
          "length": 20,
          "start": 1944
        },
        {
          "length": 20,
          "start": 2407
        },
        {
          "length": 20,
          "start": 3163
        },
        {
          "length": 20,
          "start": 4104
        },
        {
          "length": 20,
          "start": 4479
        },
        {
          "length": 20,
          "start": 5169
        },
        {
          "length": 20,
          "start": 6738
        },
        {
          "length": 20,
          "start": 7298
        }
      ]
    }
  },
  "deployedLinkReferences": {
    "src/contracts/lib/acl/LAccessControl.sol": {
      "LAccessControl": [
        {
          "length": 20,
          "start": 1380
        },
        {
          "length": 20,
          "start": 1886
        },
        {
          "length": 20,
          "start": 2349
        },
        {
          "length": 20,
          "start": 3105
        },
        {
          "length": 20,
          "start": 4046
        },
        {
          "length": 20,
          "start": 4421
        },
        {
          "length": 20,
          "start": 5111
        },
        {
          "length": 20,
          "start": 6680
        },
        {
          "length": 20,
          "start": 7240
        }
      ]
    }
  },
  "devdoc": {
    "kind": "dev",
    "methods": {},
    "version": 1
  },
  "evm": {
    "bytecode": {
      "linkReferences": {
        "src/contracts/lib/acl/LAccessControl.sol": {
          "LAccessControl": [
            {
              "length": 20,
              "start": 1438
            },
            {
              "length": 20,
              "start": 1944
            },
            {
              "length": 20,
              "start": 2407
            },
            {
              "length": 20,
              "start": 3163
            },
            {
              "length": 20,
              "start": 4104
            },
            {
              "length": 20,
              "start": 4479
            },
            {
              "length": 20,
              "start": 5169
            },
            {
              "length": 20,
              "start": 6738
            },
            {
              "length": 20,
              "start": 7298
            }
          ]
        }
      },
      "opcodes": "PUSH2 0x3C4A PUSH2 0x3A PUSH1 0xB DUP3 DUP3 DUP3 CODECOPY DUP1 MLOAD PUSH1 0x0 BYTE PUSH1 0x73 EQ PUSH2 0x2D JUMPI PUSH4 0x4E487B71 PUSH1 0xE0 SHL PUSH1 0x0 MSTORE PUSH1 0x0 PUSH1 0x4 MSTORE PUSH1 0x24 PUSH1 0x0 REVERT JUMPDEST ADDRESS PUSH1 0x0 MSTORE PUSH1 0x73 DUP2 MSTORE8 DUP3 DUP2 RETURN INVALID PUSH20 0x0 ADDRESS EQ PUSH1 0x80 PUSH1 0x40 MSTORE PUSH1 0x4 CALLDATASIZE LT PUSH2 0x120 JUMPI PUSH1 0x0 CALLDATALOAD PUSH1 0xE0 SHR DUP1 PUSH4 0x64D4C819 GT PUSH2 0xAC JUMPI DUP1 PUSH4 0xB0C25575 GT PUSH2 0x7B JUMPI DUP1 PUSH4 0xB0C25575 EQ PUSH2 0x36C JUMPI DUP1 PUSH4 0xBEC94751 EQ PUSH2 0x38C JUMPI DUP1 PUSH4 0xEC77EB21 EQ PUSH2 0x394 JUMPI DUP1 PUSH4 0xF0B15DEF EQ PUSH2 0x3B4 JUMPI DUP1 PUSH4 0xFAEE6718 EQ PUSH2 0x3DB JUMPI PUSH1 0x0 DUP1 REVERT JUMPDEST DUP1 PUSH4 0x64D4C819 EQ PUSH2 0x29B JUMPI DUP1 PUSH4 0x7134BB45 EQ PUSH2 0x2C2 JUMPI DUP1 PUSH4 0x733AE93E EQ PUSH2 0x2E5 JUMPI DUP1 PUSH4 0x7CC5941D EQ PUSH2 0x34C JUMPI PUSH1 0x0 DUP1 REVERT JUMPDEST DUP1 PUSH4 0x3E015EF6 GT PUSH2 0xF3 JUMPI DUP1 PUSH4 0x3E015EF6 EQ PUSH2 0x1E4 JUMPI DUP1 PUSH4 0x453DD6DC EQ PUSH2 0x21B JUMPI DUP1 PUSH4 0x4AC3FDD4 EQ PUSH2 0x23B JUMPI DUP1 PUSH4 0x518BF960 EQ PUSH2 0x25B JUMPI DUP1 PUSH4 0x5ACD816A EQ PUSH2 0x27B JUMPI PUSH1 0x0 DUP1 REVERT JUMPDEST DUP1 PUSH4 0x99A0C2E EQ PUSH2 0x125 JUMPI DUP1 PUSH4 0x15922EFE EQ PUSH2 0x16A JUMPI DUP1 PUSH4 0x2466209B EQ PUSH2 0x1A7 JUMPI DUP1 PUSH4 0x34109DE2 EQ PUSH2 0x1BD JUMPI JUMPDEST PUSH1 0x0 DUP1 REVERT JUMPDEST DUP2 DUP1 ISZERO PUSH2 0x131 JUMPI PUSH1 0x0 DUP1 REVERT JUMPDEST POP PUSH2 0x145 PUSH2 0x140 CALLDATASIZE PUSH1 0x4 PUSH2 0x3507 JUMP JUMPDEST PUSH2 0x3FB JUMP JUMPDEST PUSH1 0x40 DUP1 MLOAD PUSH1 0x1 PUSH1 0x1 PUSH1 0xA0 SHL SUB SWAP4 DUP5 AND DUP2 MSTORE SWAP3 SWAP1 SWAP2 AND PUSH1 0x20 DUP4 ADD MSTORE ADD JUMPDEST PUSH1 0x40 MLOAD DUP1 SWAP2 SUB SWAP1 RETURN JUMPDEST DUP2 DUP1 ISZERO PUSH2 0x176 JUMPI PUSH1 0x0 DUP1 REVERT JUMPDEST POP PUSH2 0x18A PUSH2 0x185 CALLDATASIZE PUSH1 0x4 PUSH2 0x3598 JUMP JUMPDEST PUSH2 0x673 JUMP JUMPDEST PUSH1 0x40 DUP1 MLOAD SWAP3 DUP4 MSTORE PUSH1 0x1 PUSH1 0x1 PUSH1 0xA0 SHL SUB SWAP1 SWAP2 AND PUSH1 0x20 DUP4 ADD MSTORE ADD PUSH2 0x161 JUMP JUMPDEST PUSH2 0x1AF PUSH2 0x87B JUMP JUMPDEST PUSH1 0x40 MLOAD SWAP1 DUP2 MSTORE PUSH1 0x20 ADD PUSH2 0x161 JUMP JUMPDEST PUSH2 0x1AF PUSH32 0x7AABE2571874F2A330EA11C8972D9CC3792D973EFC6B36E3E29005861A344188 DUP2 JUMP JUMPDEST DUP2 DUP1 ISZERO PUSH2 0x1F0 JUMPI PUSH1 0x0 DUP1 REVERT JUMPDEST POP PUSH2 0x204 PUSH2 0x1FF CALLDATASIZE PUSH1 0x4 PUSH2 0x361F JUMP JUMPDEST PUSH2 0x8A9 JUMP JUMPDEST PUSH1 0x40 DUP1 MLOAD SWAP3 ISZERO ISZERO DUP4 MSTORE PUSH1 0x20 DUP4 ADD SWAP2 SWAP1 SWAP2 MSTORE ADD PUSH2 0x161 JUMP JUMPDEST DUP2 DUP1 ISZERO PUSH2 0x227 JUMPI PUSH1 0x0 DUP1 REVERT JUMPDEST POP PUSH2 0x1AF PUSH2 0x236 CALLDATASIZE PUSH1 0x4 PUSH2 0x3668 JUMP JUMPDEST PUSH2 0xB9E JUMP JUMPDEST DUP2 DUP1 ISZERO PUSH2 0x247 JUMPI PUSH1 0x0 DUP1 REVERT JUMPDEST POP PUSH2 0x18A PUSH2 0x256 CALLDATASIZE PUSH1 0x4 PUSH2 0x36A5 JUMP JUMPDEST PUSH2 0xE62 JUMP JUMPDEST DUP2 DUP1 ISZERO PUSH2 0x267 JUMPI PUSH1 0x0 DUP1 REVERT JUMPDEST POP PUSH2 0x1AF PUSH2 0x276 CALLDATASIZE PUSH1 0x4 PUSH2 0x3668 JUMP JUMPDEST PUSH2 0x10C2 JUMP JUMPDEST DUP2 DUP1 ISZERO PUSH2 0x287 JUMPI PUSH1 0x0 DUP1 REVERT JUMPDEST POP PUSH2 0x1AF PUSH2 0x296 CALLDATASIZE PUSH1 0x4 PUSH2 0x3668 JUMP JUMPDEST PUSH2 0x1374 JUMP JUMPDEST PUSH2 0x1AF PUSH32 0x8B73C3C69BB8FE3D512ECC4CF759CC79239F7B179B0FFACAA9A75D522B39400F DUP2 JUMP JUMPDEST PUSH2 0x2D5 PUSH2 0x2D0 CALLDATASIZE PUSH1 0x4 PUSH2 0x3727 JUMP JUMPDEST PUSH2 0x1621 JUMP JUMPDEST PUSH1 0x40 MLOAD SWAP1 ISZERO ISZERO DUP2 MSTORE PUSH1 0x20 ADD PUSH2 0x161 JUMP JUMPDEST PUSH2 0x2F8 PUSH2 0x2F3 CALLDATASIZE PUSH1 0x4 PUSH2 0x3766 JUMP JUMPDEST PUSH2 0x16C7 JUMP JUMPDEST PUSH1 0x40 MLOAD PUSH2 0x161 SWAP2 SWAP1 DUP2 MLOAD DUP2 MSTORE PUSH1 0x20 DUP1 DUP4 ADD MLOAD SWAP1 DUP3 ADD MSTORE PUSH1 0x40 DUP1 DUP4 ADD MLOAD SWAP1 DUP3 ADD MSTORE PUSH1 0x60 DUP1 DUP4 ADD MLOAD PUSH1 0x1 PUSH1 0x1 PUSH1 0xA0 SHL SUB AND SWAP1 DUP3 ADD MSTORE PUSH1 0x80 DUP1 DUP4 ADD MLOAD ISZERO ISZERO SWAP1 DUP3 ADD MSTORE PUSH1 0xA0 SWAP2 DUP3 ADD MLOAD ISZERO ISZERO SWAP2 DUP2 ADD SWAP2 SWAP1 SWAP2 MSTORE PUSH1 0xC0 ADD SWAP1 JUMP JUMPDEST DUP2 DUP1 ISZERO PUSH2 0x358 JUMPI PUSH1 0x0 DUP1 REVERT JUMPDEST POP PUSH2 0x204 PUSH2 0x367 CALLDATASIZE PUSH1 0x4 PUSH2 0x3799 JUMP JUMPDEST PUSH2 0x1994 JUMP JUMPDEST DUP2 DUP1 ISZERO PUSH2 0x378 JUMPI PUSH1 0x0 DUP1 REVERT JUMPDEST POP PUSH2 0x1AF PUSH2 0x387 CALLDATASIZE PUSH1 0x4 PUSH2 0x37D2 JUMP JUMPDEST PUSH2 0x1BC5 JUMP JUMPDEST PUSH2 0x1AF PUSH2 0x1E5D JUMP JUMPDEST PUSH2 0x3A7 PUSH2 0x3A2 CALLDATASIZE PUSH1 0x4 PUSH2 0x3766 JUMP JUMPDEST PUSH2 0x1E83 JUMP JUMPDEST PUSH1 0x40 MLOAD PUSH2 0x161 SWAP2 SWAP1 PUSH2 0x3807 JUMP JUMPDEST PUSH2 0x1AF PUSH32 0x742CEB9720F43497D1F82B10D01407D0E9F305EEA4D19D30F9A36E4674375946 DUP2 JUMP JUMPDEST DUP2 DUP1 ISZERO PUSH2 0x3E7 JUMPI PUSH1 0x0 DUP1 REVERT JUMPDEST POP PUSH2 0x1AF PUSH2 0x3F6 CALLDATASIZE PUSH1 0x4 PUSH2 0x386C JUMP JUMPDEST PUSH2 0x1FBC JUMP JUMPDEST PUSH1 0x0 DUP1 ADDRESS PUSH1 0x1 PUSH1 0x1 PUSH1 0xA0 SHL SUB AND PUSH4 0xBE22465D PUSH1 0x40 MLOAD DUP2 PUSH4 0xFFFFFFFF AND PUSH1 0xE0 SHL DUP2 MSTORE PUSH1 0x4 ADD PUSH1 0x20 PUSH1 0x40 MLOAD DUP1 DUP4 SUB DUP2 DUP7 GAS STATICCALL ISZERO DUP1 ISZERO PUSH2 0x43C JUMPI RETURNDATASIZE PUSH1 0x0 DUP1 RETURNDATACOPY RETURNDATASIZE PUSH1 0x0 REVERT JUMPDEST POP POP POP POP PUSH1 0x40 MLOAD RETURNDATASIZE PUSH1 0x1F NOT PUSH1 0x1F DUP3 ADD AND DUP3 ADD DUP1 PUSH1 0x40 MSTORE POP DUP2 ADD SWAP1 PUSH2 0x460 SWAP2 SWAP1 PUSH2 0x38C3 JUMP JUMPDEST ISZERO PUSH2 0x486 JUMPI PUSH1 0x40 MLOAD PUSH3 0x461BCD PUSH1 0xE5 SHL DUP2 MSTORE PUSH1 0x4 ADD PUSH2 0x47D SWAP1 PUSH2 0x38E0 JUMP JUMPDEST PUSH1 0x40 MLOAD DUP1 SWAP2 SUB SWAP1 REVERT JUMPDEST PUSH1 0x0 PUSH2 0x510 PUSH2 0x49B PUSH1 0x80 DUP9 ADD PUSH1 0x60 DUP10 ADD PUSH2 0x3917 JUMP JUMPDEST PUSH1 0x40 DUP1 MLOAD PUSH32 0x7AABE2571874F2A330EA11C8972D9CC3792D973EFC6B36E3E29005861A344188 PUSH1 0x20 DUP3 DUP2 ADD SWAP2 SWAP1 SWAP2 MSTORE PUSH1 0x1 PUSH1 0x1 PUSH1 0xA0 SHL SUB SWAP4 SWAP1 SWAP4 AND DUP2 DUP4 ADD MSTORE DUP10 CALLDATALOAD PUSH1 0x60 DUP3 ADD MSTORE DUP3 DUP11 ADD CALLDATALOAD PUSH1 0x80 DUP3 ADD MSTORE DUP2 DUP11 ADD CALLDATALOAD PUSH1 0xA0 DUP1 DUP4 ADD SWAP2 SWAP1 SWAP2 MSTORE DUP3 MLOAD DUP1 DUP4 SUB SWAP1 SWAP2 ADD DUP2 MSTORE PUSH1 0xC0 SWAP1 SWAP2 ADD SWAP1 SWAP2 MSTORE DUP1 MLOAD SWAP2 ADD KECCAK256 SWAP1 JUMP JUMPDEST SWAP1 POP PUSH1 0x0 PUSH2 0x51D DUP3 PUSH2 0x1FD7 JUMP JUMPDEST SWAP1 POP PUSH1 0x0 DUP1 PUSH2 0x52C DUP4 DUP12 PUSH2 0x2025 JUMP JUMPDEST SWAP1 SWAP3 POP SWAP1 POP PUSH1 0x0 DUP2 PUSH1 0x4 DUP2 GT ISZERO PUSH2 0x545 JUMPI PUSH2 0x545 PUSH2 0x3932 JUMP JUMPDEST EQ PUSH2 0x562 JUMPI PUSH1 0x40 MLOAD PUSH3 0x461BCD PUSH1 0xE5 SHL DUP2 MSTORE PUSH1 0x4 ADD PUSH2 0x47D SWAP1 PUSH2 0x3948 JUMP JUMPDEST PUSH20 0x0 PUSH4 0x487C6960 DUP14 PUSH2 0x586 ADDRESS PUSH2 0x2093 JUMP JUMPDEST PUSH1 0x40 MLOAD PUSH1 0x1 PUSH1 0x1 PUSH1 0xE0 SHL SUB NOT PUSH1 0xE0 DUP6 SWAP1 SHL AND DUP2 MSTORE PUSH2 0x5B3 SWAP3 SWAP2 SWAP1 DUP8 SWAP1 PUSH4 0x1CCB7C8D PUSH1 0xE3 SHL SWAP1 PUSH1 0x4 ADD PUSH2 0x397F JUMP JUMPDEST PUSH1 0x20 PUSH1 0x40 MLOAD DUP1 DUP4 SUB DUP2 DUP7 GAS DELEGATECALL ISZERO DUP1 ISZERO PUSH2 0x5D0 JUMPI RETURNDATASIZE PUSH1 0x0 DUP1 RETURNDATACOPY RETURNDATASIZE PUSH1 0x0 REVERT JUMPDEST POP POP POP POP PUSH1 0x40 MLOAD RETURNDATASIZE PUSH1 0x1F NOT PUSH1 0x1F DUP3 ADD AND DUP3 ADD DUP1 PUSH1 0x40 MSTORE POP DUP2 ADD SWAP1 PUSH2 0x5F4 SWAP2 SWAP1 PUSH2 0x38C3 JUMP JUMPDEST PUSH2 0x640 JUMPI PUSH1 0x40 MLOAD PUSH3 0x461BCD PUSH1 0xE5 SHL DUP2 MSTORE PUSH1 0x20 PUSH1 0x4 DUP3 ADD MSTORE PUSH1 0x1B PUSH1 0x24 DUP3 ADD MSTORE PUSH32 0x557064617465436F6E74657874204163636573732044656E6965640000000000 PUSH1 0x44 DUP3 ADD MSTORE PUSH1 0x64 ADD PUSH2 0x47D JUMP JUMPDEST PUSH2 0x661 DUP13 DUP13 PUSH1 0x40 DUP13 ADD CALLDATALOAD PUSH2 0x65A PUSH1 0xA0 DUP15 ADD PUSH1 0x80 DUP16 ADD PUSH2 0x39AD JUMP JUMPDEST DUP13 DUP13 PUSH2 0x20D2 JUMP JUMPDEST SWAP13 SWAP2 SWAP12 POP SWAP1 SWAP10 POP POP POP POP POP POP POP POP POP POP JUMP JUMPDEST PUSH1 0x0 DUP1 ADDRESS PUSH1 0x1 PUSH1 0x1 PUSH1 0xA0 SHL SUB AND PUSH4 0xBE22465D PUSH1 0x40 MLOAD DUP2 PUSH4 0xFFFFFFFF AND PUSH1 0xE0 SHL DUP2 MSTORE PUSH1 0x4 ADD PUSH1 0x20 PUSH1 0x40 MLOAD DUP1 DUP4 SUB DUP2 DUP7 GAS STATICCALL ISZERO DUP1 ISZERO PUSH2 0x6B4 JUMPI RETURNDATASIZE PUSH1 0x0 DUP1 RETURNDATACOPY RETURNDATASIZE PUSH1 0x0 REVERT JUMPDEST POP POP POP POP PUSH1 0x40 MLOAD RETURNDATASIZE PUSH1 0x1F NOT PUSH1 0x1F DUP3 ADD AND DUP3 ADD DUP1 PUSH1 0x40 MSTORE POP DUP2 ADD SWAP1 PUSH2 0x6D8 SWAP2 SWAP1 PUSH2 0x38C3 JUMP JUMPDEST ISZERO PUSH2 0x6F5 JUMPI PUSH1 0x40 MLOAD PUSH3 0x461BCD PUSH1 0xE5 SHL DUP2 MSTORE PUSH1 0x4 ADD PUSH2 0x47D SWAP1 PUSH2 0x38E0 JUMP JUMPDEST PUSH1 0x0 PUSH2 0x70A PUSH2 0x49B PUSH1 0x80 DUP9 ADD PUSH1 0x60 DUP10 ADD PUSH2 0x3917 JUMP JUMPDEST SWAP1 POP PUSH1 0x0 PUSH2 0x717 DUP3 PUSH2 0x1FD7 JUMP JUMPDEST SWAP1 POP PUSH1 0x0 DUP1 PUSH2 0x726 DUP4 DUP12 PUSH2 0x2025 JUMP JUMPDEST SWAP1 SWAP3 POP SWAP1 POP PUSH1 0x0 DUP2 PUSH1 0x4 DUP2 GT ISZERO PUSH2 0x73F JUMPI PUSH2 0x73F PUSH2 0x3932 JUMP JUMPDEST EQ PUSH2 0x75C JUMPI PUSH1 0x40 MLOAD PUSH3 0x461BCD PUSH1 0xE5 SHL DUP2 MSTORE PUSH1 0x4 ADD PUSH2 0x47D SWAP1 PUSH2 0x3948 JUMP JUMPDEST PUSH20 0x0 PUSH4 0x487C6960 DUP13 PUSH2 0x780 ADDRESS PUSH2 0x2093 JUMP JUMPDEST PUSH1 0x40 MLOAD PUSH1 0x1 PUSH1 0x1 PUSH1 0xE0 SHL SUB NOT PUSH1 0xE0 DUP6 SWAP1 SHL AND DUP2 MSTORE PUSH2 0x7AD SWAP3 SWAP2 SWAP1 DUP8 SWAP1 PUSH4 0x78EFA4ED PUSH1 0xE1 SHL SWAP1 PUSH1 0x4 ADD PUSH2 0x397F JUMP JUMPDEST PUSH1 0x20 PUSH1 0x40 MLOAD DUP1 DUP4 SUB DUP2 DUP7 GAS DELEGATECALL ISZERO DUP1 ISZERO PUSH2 0x7CA JUMPI RETURNDATASIZE PUSH1 0x0 DUP1 RETURNDATACOPY RETURNDATASIZE PUSH1 0x0 REVERT JUMPDEST POP POP POP POP PUSH1 0x40 MLOAD RETURNDATASIZE PUSH1 0x1F NOT PUSH1 0x1F DUP3 ADD AND DUP3 ADD DUP1 PUSH1 0x40 MSTORE POP DUP2 ADD SWAP1 PUSH2 0x7EE SWAP2 SWAP1 PUSH2 0x38C3 JUMP JUMPDEST PUSH2 0x83A JUMPI PUSH1 0x40 MLOAD PUSH3 0x461BCD PUSH1 0xE5 SHL DUP2 MSTORE PUSH1 0x20 PUSH1 0x4 DUP3 ADD MSTORE PUSH1 0x1D PUSH1 0x24 DUP3 ADD MSTORE PUSH32 0x5265676973746572436F6E74657874204163636573732044656E696564000000 PUSH1 0x44 DUP3 ADD MSTORE PUSH1 0x64 ADD PUSH2 0x47D JUMP JUMPDEST PUSH2 0x86A DUP12 PUSH2 0x84E PUSH1 0x80 DUP13 ADD PUSH1 0x60 DUP14 ADD PUSH2 0x3917 JUMP JUMPDEST PUSH1 0x40 DUP13 ADD CALLDATALOAD PUSH2 0x863 PUSH1 0xA0 DUP15 ADD PUSH1 0x80 DUP16 ADD PUSH2 0x39AD JUMP JUMPDEST DUP13 DUP13 PUSH2 0x27F9 JUMP JUMPDEST SWAP12 SWAP2 SWAP11 POP SWAP1 SWAP9 POP POP POP POP POP POP POP POP POP JUMP JUMPDEST PUSH1 0x40 MLOAD PUSH5 0x312E302E3 PUSH1 0xDC SHL PUSH1 0x20 DUP3 ADD MSTORE PUSH1 0x25 ADD JUMPDEST PUSH1 0x40 MLOAD PUSH1 0x20 DUP2 DUP4 SUB SUB DUP2 MSTORE SWAP1 PUSH1 0x40 MSTORE DUP1 MLOAD SWAP1 PUSH1 0x20 ADD KECCAK256 DUP2 JUMP JUMPDEST PUSH1 0x0 DUP1 ADDRESS PUSH1 0x1 PUSH1 0x1 PUSH1 0xA0 SHL SUB AND PUSH4 0xBE22465D PUSH1 0x40 MLOAD DUP2 PUSH4 0xFFFFFFFF AND PUSH1 0xE0 SHL DUP2 MSTORE PUSH1 0x4 ADD PUSH1 0x20 PUSH1 0x40 MLOAD DUP1 DUP4 SUB DUP2 DUP7 GAS STATICCALL ISZERO DUP1 ISZERO PUSH2 0x8EA JUMPI RETURNDATASIZE PUSH1 0x0 DUP1 RETURNDATACOPY RETURNDATASIZE PUSH1 0x0 REVERT JUMPDEST POP POP POP POP PUSH1 0x40 MLOAD RETURNDATASIZE PUSH1 0x1F NOT PUSH1 0x1F DUP3 ADD AND DUP3 ADD DUP1 PUSH1 0x40 MSTORE POP DUP2 ADD SWAP1 PUSH2 0x90E SWAP2 SWAP1 PUSH2 0x38C3 JUMP JUMPDEST ISZERO PUSH2 0x92B JUMPI PUSH1 0x40 MLOAD PUSH3 0x461BCD PUSH1 0xE5 SHL DUP2 MSTORE PUSH1 0x4 ADD PUSH2 0x47D SWAP1 PUSH2 0x38E0 JUMP JUMPDEST PUSH20 0x0 PUSH4 0x487C6960 DUP7 PUSH2 0x94F ADDRESS PUSH2 0x2093 JUMP JUMPDEST PUSH1 0x40 MLOAD PUSH1 0x1 PUSH1 0x1 PUSH1 0xE0 SHL SUB NOT PUSH1 0xE0 DUP6 SWAP1 SHL AND DUP2 MSTORE PUSH2 0x97C SWAP3 SWAP2 SWAP1 CALLER SWAP1 PUSH4 0xD3386401 PUSH1 0xE0 SHL SWAP1 PUSH1 0x4 ADD PUSH2 0x397F JUMP JUMPDEST PUSH1 0x20 PUSH1 0x40 MLOAD DUP1 DUP4 SUB DUP2 DUP7 GAS DELEGATECALL ISZERO DUP1 ISZERO PUSH2 0x999 JUMPI RETURNDATASIZE PUSH1 0x0 DUP1 RETURNDATACOPY RETURNDATASIZE PUSH1 0x0 REVERT JUMPDEST POP POP POP POP PUSH1 0x40 MLOAD RETURNDATASIZE PUSH1 0x1F NOT PUSH1 0x1F DUP3 ADD AND DUP3 ADD DUP1 PUSH1 0x40 MSTORE POP DUP2 ADD SWAP1 PUSH2 0x9BD SWAP2 SWAP1 PUSH2 0x38C3 JUMP JUMPDEST PUSH2 0xA09 JUMPI PUSH1 0x40 MLOAD PUSH3 0x461BCD PUSH1 0xE5 SHL DUP2 MSTORE PUSH1 0x20 PUSH1 0x4 DUP3 ADD MSTORE PUSH1 0x1D PUSH1 0x24 DUP3 ADD MSTORE PUSH32 0x536574436F6E746578745265616C6D204163636573732044656E696564000000 PUSH1 0x44 DUP3 ADD MSTORE PUSH1 0x64 ADD PUSH2 0x47D JUMP JUMPDEST DUP4 PUSH2 0xA13 ADDRESS PUSH2 0x2093 JUMP JUMPDEST SUB PUSH2 0xA60 JUMPI PUSH1 0x40 MLOAD PUSH3 0x461BCD PUSH1 0xE5 SHL DUP2 MSTORE PUSH1 0x20 PUSH1 0x4 DUP3 ADD DUP2 SWAP1 MSTORE PUSH1 0x24 DUP3 ADD MSTORE PUSH32 0x496C6C6567616C204368616E67652041434C20436F6E74657874205265616C6D PUSH1 0x44 DUP3 ADD MSTORE PUSH1 0x64 ADD PUSH2 0x47D JUMP JUMPDEST PUSH1 0x0 DUP5 DUP2 MSTORE PUSH1 0x1 DUP1 DUP8 ADD PUSH1 0x20 MSTORE PUSH1 0x40 SWAP1 SWAP2 KECCAK256 ADD SLOAD PUSH1 0x1 PUSH1 0x1 PUSH1 0xA0 SHL SUB AND PUSH2 0xA99 JUMPI PUSH1 0x40 MLOAD PUSH3 0x461BCD PUSH1 0xE5 SHL DUP2 MSTORE PUSH1 0x4 ADD PUSH2 0x47D SWAP1 PUSH2 0x39CA JUMP JUMPDEST PUSH1 0x0 DUP4 DUP2 MSTORE PUSH1 0x3 DUP7 ADD PUSH1 0x20 MSTORE PUSH1 0x40 SWAP1 KECCAK256 DUP1 SLOAD PUSH2 0xAB4 SWAP1 PUSH2 0x39F5 JUMP JUMPDEST SWAP1 POP PUSH1 0x0 SUB PUSH2 0xAD5 JUMPI PUSH1 0x40 MLOAD PUSH3 0x461BCD PUSH1 0xE5 SHL DUP2 MSTORE PUSH1 0x4 ADD PUSH2 0x47D SWAP1 PUSH2 0x3A29 JUMP JUMPDEST PUSH1 0x0 DUP5 DUP2 MSTORE PUSH1 0x1 DUP7 ADD PUSH1 0x20 MSTORE PUSH1 0x40 SWAP1 KECCAK256 SLOAD DUP4 SWAP1 SUB PUSH2 0xB35 JUMPI PUSH1 0x40 MLOAD PUSH3 0x461BCD PUSH1 0xE5 SHL DUP2 MSTORE PUSH1 0x20 PUSH1 0x4 DUP3 ADD MSTORE PUSH1 0x19 PUSH1 0x24 DUP3 ADD MSTORE PUSH32 0x496C6C6567616C205265616C6D204475706C69636174696F6E00000000000000 PUSH1 0x44 DUP3 ADD MSTORE PUSH1 0x64 ADD PUSH2 0x47D JUMP JUMPDEST PUSH1 0x0 DUP5 DUP2 MSTORE PUSH1 0x1 DUP7 ADD PUSH1 0x20 SWAP1 DUP2 MSTORE PUSH1 0x40 DUP1 DUP4 KECCAK256 SLOAD DUP7 DUP5 MSTORE PUSH1 0x3 DUP10 ADD SWAP1 SWAP3 MSTORE SWAP1 SWAP2 KECCAK256 PUSH2 0xB63 SWAP1 PUSH1 0x2 ADD DUP7 PUSH2 0x2BD6 JUMP JUMPDEST POP PUSH1 0x0 DUP6 DUP2 MSTORE PUSH1 0x1 DUP8 ADD PUSH1 0x20 SWAP1 DUP2 MSTORE PUSH1 0x40 DUP1 DUP4 KECCAK256 SLOAD DUP4 MSTORE PUSH1 0x3 DUP10 ADD SWAP1 SWAP2 MSTORE SWAP1 KECCAK256 PUSH2 0xB90 SWAP1 PUSH1 0x2 ADD DUP7 PUSH2 0x2BE9 JUMP JUMPDEST POP PUSH1 0x1 SWAP7 SWAP1 SWAP6 POP SWAP4 POP POP POP POP JUMP JUMPDEST PUSH1 0x0 ADDRESS PUSH1 0x1 PUSH1 0x1 PUSH1 0xA0 SHL SUB AND PUSH4 0xBE22465D PUSH1 0x40 MLOAD DUP2 PUSH4 0xFFFFFFFF AND PUSH1 0xE0 SHL DUP2 MSTORE PUSH1 0x4 ADD PUSH1 0x20 PUSH1 0x40 MLOAD DUP1 DUP4 SUB DUP2 DUP7 GAS STATICCALL ISZERO DUP1 ISZERO PUSH2 0xBDE JUMPI RETURNDATASIZE PUSH1 0x0 DUP1 RETURNDATACOPY RETURNDATASIZE PUSH1 0x0 REVERT JUMPDEST POP POP POP POP PUSH1 0x40 MLOAD RETURNDATASIZE PUSH1 0x1F NOT PUSH1 0x1F DUP3 ADD AND DUP3 ADD DUP1 PUSH1 0x40 MSTORE POP DUP2 ADD SWAP1 PUSH2 0xC02 SWAP2 SWAP1 PUSH2 0x38C3 JUMP JUMPDEST ISZERO PUSH2 0xC1F JUMPI PUSH1 0x40 MLOAD PUSH3 0x461BCD PUSH1 0xE5 SHL DUP2 MSTORE PUSH1 0x4 ADD PUSH2 0x47D SWAP1 PUSH2 0x38E0 JUMP JUMPDEST PUSH20 0x0 PUSH4 0x487C6960 DUP7 PUSH2 0xC43 ADDRESS PUSH2 0x2093 JUMP JUMPDEST PUSH1 0x40 MLOAD PUSH1 0x1 PUSH1 0x1 PUSH1 0xE0 SHL SUB NOT PUSH1 0xE0 DUP6 SWAP1 SHL AND DUP2 MSTORE PUSH2 0xC70 SWAP3 SWAP2 SWAP1 CALLER SWAP1 PUSH4 0x771BCF45 PUSH1 0xE0 SHL SWAP1 PUSH1 0x4 ADD PUSH2 0x397F JUMP JUMPDEST PUSH1 0x20 PUSH1 0x40 MLOAD DUP1 DUP4 SUB DUP2 DUP7 GAS DELEGATECALL ISZERO DUP1 ISZERO PUSH2 0xC8D JUMPI RETURNDATASIZE PUSH1 0x0 DUP1 RETURNDATACOPY RETURNDATASIZE PUSH1 0x0 REVERT JUMPDEST POP POP POP POP PUSH1 0x40 MLOAD RETURNDATASIZE PUSH1 0x1F NOT PUSH1 0x1F DUP3 ADD AND DUP3 ADD DUP1 PUSH1 0x40 MSTORE POP DUP2 ADD SWAP1 PUSH2 0xCB1 SWAP2 SWAP1 PUSH2 0x38C3 JUMP JUMPDEST PUSH2 0xCFD JUMPI PUSH1 0x40 MLOAD PUSH3 0x461BCD PUSH1 0xE5 SHL DUP2 MSTORE PUSH1 0x20 PUSH1 0x4 DUP3 ADD MSTORE PUSH1 0x1E PUSH1 0x24 DUP3 ADD MSTORE PUSH32 0x4772616E74436F6E74657874526F6C65204163636573732044656E6965640000 PUSH1 0x44 DUP3 ADD MSTORE PUSH1 0x64 ADD PUSH2 0x47D JUMP JUMPDEST DUP4 PUSH2 0xD07 ADDRESS PUSH2 0x2093 JUMP JUMPDEST SUB PUSH2 0xD54 JUMPI PUSH1 0x40 MLOAD PUSH3 0x461BCD PUSH1 0xE5 SHL DUP2 MSTORE PUSH1 0x20 PUSH1 0x4 DUP3 ADD MSTORE PUSH1 0x19 PUSH1 0x24 DUP3 ADD MSTORE PUSH32 0x496C6C6567616C204772616E742041434C20436F6E7465787400000000000000 PUSH1 0x44 DUP3 ADD MSTORE PUSH1 0x64 ADD PUSH2 0x47D JUMP JUMPDEST PUSH1 0x0 DUP5 DUP2 MSTORE PUSH1 0x1 DUP1 DUP8 ADD PUSH1 0x20 MSTORE PUSH1 0x40 SWAP1 SWAP2 KECCAK256 ADD SLOAD PUSH1 0x1 PUSH1 0x1 PUSH1 0xA0 SHL SUB AND PUSH2 0xD8D JUMPI PUSH1 0x40 MLOAD PUSH3 0x461BCD PUSH1 0xE5 SHL DUP2 MSTORE PUSH1 0x4 ADD PUSH2 0x47D SWAP1 PUSH2 0x39CA JUMP JUMPDEST PUSH1 0x0 DUP3 DUP2 MSTORE PUSH1 0x2 DUP7 ADD PUSH1 0x20 MSTORE PUSH1 0x40 SWAP1 KECCAK256 DUP1 SLOAD PUSH2 0xDA8 SWAP1 PUSH2 0x39F5 JUMP JUMPDEST SWAP1 POP PUSH1 0x0 SUB PUSH2 0xDC9 JUMPI PUSH1 0x40 MLOAD PUSH3 0x461BCD PUSH1 0xE5 SHL DUP2 MSTORE PUSH1 0x4 ADD PUSH2 0x47D SWAP1 PUSH2 0x3A52 JUMP JUMPDEST PUSH1 0x0 DUP5 DUP2 MSTORE PUSH1 0x1 DUP7 ADD PUSH1 0x20 MSTORE PUSH1 0x40 SWAP1 KECCAK256 PUSH2 0xDF0 SWAP1 PUSH1 0x3 ADD PUSH1 0x1 PUSH1 0x1 PUSH1 0xE0 SHL SUB NOT DUP6 AND PUSH2 0x2BF5 JUMP JUMPDEST PUSH2 0xE0C JUMPI PUSH1 0x40 MLOAD PUSH3 0x461BCD PUSH1 0xE5 SHL DUP2 MSTORE PUSH1 0x4 ADD PUSH2 0x47D SWAP1 PUSH2 0x3A7A JUMP JUMPDEST PUSH1 0x0 DUP5 DUP2 MSTORE PUSH1 0x1 DUP7 DUP2 ADD PUSH1 0x20 SWAP1 DUP2 MSTORE PUSH1 0x40 DUP1 DUP5 KECCAK256 PUSH1 0x1 PUSH1 0x1 PUSH1 0xE0 SHL SUB NOT DUP9 AND DUP6 MSTORE PUSH1 0x2 ADD SWAP1 SWAP2 MSTORE SWAP1 SWAP2 KECCAK256 DUP4 DUP2 SSTORE DUP2 ADD DUP1 SLOAD PUSH1 0xFF NOT AND DUP3 DUP1 JUMPDEST MUL OR SWAP1 SSTORE POP POP POP PUSH1 0x0 SWAP2 DUP3 MSTORE POP PUSH1 0x1 SWAP2 SWAP1 SWAP2 ADD PUSH1 0x20 MSTORE PUSH1 0x40 SWAP1 KECCAK256 SLOAD SWAP1 JUMP JUMPDEST PUSH1 0x0 DUP1 ADDRESS PUSH1 0x1 PUSH1 0x1 PUSH1 0xA0 SHL SUB AND PUSH4 0xBE22465D PUSH1 0x40 MLOAD DUP2 PUSH4 0xFFFFFFFF AND PUSH1 0xE0 SHL DUP2 MSTORE PUSH1 0x4 ADD PUSH1 0x20 PUSH1 0x40 MLOAD DUP1 DUP4 SUB DUP2 DUP7 GAS STATICCALL ISZERO DUP1 ISZERO PUSH2 0xEA3 JUMPI RETURNDATASIZE PUSH1 0x0 DUP1 RETURNDATACOPY RETURNDATASIZE PUSH1 0x0 REVERT JUMPDEST POP POP POP POP PUSH1 0x40 MLOAD RETURNDATASIZE PUSH1 0x1F NOT PUSH1 0x1F DUP3 ADD AND DUP3 ADD DUP1 PUSH1 0x40 MSTORE POP DUP2 ADD SWAP1 PUSH2 0xEC7 SWAP2 SWAP1 PUSH2 0x38C3 JUMP JUMPDEST ISZERO PUSH2 0xEE4 JUMPI PUSH1 0x40 MLOAD PUSH3 0x461BCD PUSH1 0xE5 SHL DUP2 MSTORE PUSH1 0x4 ADD PUSH2 0x47D SWAP1 PUSH2 0x38E0 JUMP JUMPDEST PUSH1 0x0 PUSH2 0xF7A PUSH2 0xEF9 PUSH1 0xC0 DUP9 ADD PUSH1 0xA0 DUP10 ADD PUSH2 0x3917 JUMP JUMPDEST PUSH1 0x40 DUP1 MLOAD PUSH32 0x742CEB9720F43497D1F82B10D01407D0E9F305EEA4D19D30F9A36E4674375946 PUSH1 0x20 DUP3 DUP2 ADD SWAP2 SWAP1 SWAP2 MSTORE PUSH1 0x1 PUSH1 0x1 PUSH1 0xA0 SHL SUB SWAP4 SWAP1 SWAP4 AND DUP2 DUP4 ADD MSTORE DUP10 CALLDATALOAD PUSH1 0x60 DUP3 ADD MSTORE DUP3 DUP11 ADD CALLDATALOAD PUSH1 0x80 DUP3 DUP2 ADD SWAP2 SWAP1 SWAP2 MSTORE DUP3 DUP12 ADD CALLDATALOAD PUSH1 0xA0 DUP4 ADD MSTORE DUP11 ADD CALLDATALOAD PUSH1 0xC0 DUP1 DUP4 ADD SWAP2 SWAP1 SWAP2 MSTORE DUP3 MLOAD DUP1 DUP4 SUB SWAP1 SWAP2 ADD DUP2 MSTORE PUSH1 0xE0 SWAP1 SWAP2 ADD SWAP1 SWAP2 MSTORE DUP1 MLOAD SWAP2 ADD KECCAK256 SWAP1 JUMP JUMPDEST SWAP1 POP PUSH1 0x0 PUSH2 0xF87 DUP3 PUSH2 0x1FD7 JUMP JUMPDEST SWAP1 POP PUSH1 0x0 DUP1 PUSH2 0xF96 DUP4 DUP12 PUSH2 0x2025 JUMP JUMPDEST SWAP1 SWAP3 POP SWAP1 POP PUSH1 0x0 DUP2 PUSH1 0x4 DUP2 GT ISZERO PUSH2 0xFAF JUMPI PUSH2 0xFAF PUSH2 0x3932 JUMP JUMPDEST EQ PUSH2 0xFCC JUMPI PUSH1 0x40 MLOAD PUSH3 0x461BCD PUSH1 0xE5 SHL DUP2 MSTORE PUSH1 0x4 ADD PUSH2 0x47D SWAP1 PUSH2 0x3948 JUMP JUMPDEST PUSH20 0x0 PUSH4 0x487C6960 DUP13 PUSH2 0xFF0 ADDRESS PUSH2 0x2093 JUMP JUMPDEST PUSH1 0x40 MLOAD PUSH1 0x1 PUSH1 0x1 PUSH1 0xE0 SHL SUB NOT PUSH1 0xE0 DUP6 SWAP1 SHL AND DUP2 MSTORE PUSH2 0x101D SWAP3 SWAP2 SWAP1 DUP8 SWAP1 PUSH4 0x78EFA4ED PUSH1 0xE1 SHL SWAP1 PUSH1 0x4 ADD PUSH2 0x397F JUMP JUMPDEST PUSH1 0x20 PUSH1 0x40 MLOAD DUP1 DUP4 SUB DUP2 DUP7 GAS DELEGATECALL ISZERO DUP1 ISZERO PUSH2 0x103A JUMPI RETURNDATASIZE PUSH1 0x0 DUP1 RETURNDATACOPY RETURNDATASIZE PUSH1 0x0 REVERT JUMPDEST POP POP POP POP PUSH1 0x40 MLOAD RETURNDATASIZE PUSH1 0x1F NOT PUSH1 0x1F DUP3 ADD AND DUP3 ADD DUP1 PUSH1 0x40 MSTORE POP DUP2 ADD SWAP1 PUSH2 0x105E SWAP2 SWAP1 PUSH2 0x38C3 JUMP JUMPDEST PUSH2 0x10B6 JUMPI PUSH1 0x40 MLOAD PUSH3 0x461BCD PUSH1 0xE5 SHL DUP2 MSTORE PUSH1 0x20 PUSH1 0x4 DUP3 ADD MSTORE PUSH1 0x24 DUP1 DUP3 ADD MSTORE PUSH32 0x526567697374657250726564696374436F6E7465787420416363657373204465 PUSH1 0x44 DUP3 ADD MSTORE PUSH4 0x1B9A5959 PUSH1 0xE2 SHL PUSH1 0x64 DUP3 ADD MSTORE PUSH1 0x84 ADD PUSH2 0x47D JUMP JUMPDEST PUSH2 0x86A DUP12 DUP10 DUP10 DUP13 PUSH2 0x2C0D JUMP JUMPDEST PUSH1 0x0 ADDRESS PUSH1 0x1 PUSH1 0x1 PUSH1 0xA0 SHL SUB AND PUSH4 0xBE22465D PUSH1 0x40 MLOAD DUP2 PUSH4 0xFFFFFFFF AND PUSH1 0xE0 SHL DUP2 MSTORE PUSH1 0x4 ADD PUSH1 0x20 PUSH1 0x40 MLOAD DUP1 DUP4 SUB DUP2 DUP7 GAS STATICCALL ISZERO DUP1 ISZERO PUSH2 0x1102 JUMPI RETURNDATASIZE PUSH1 0x0 DUP1 RETURNDATACOPY RETURNDATASIZE PUSH1 0x0 REVERT JUMPDEST POP POP POP POP PUSH1 0x40 MLOAD RETURNDATASIZE PUSH1 0x1F NOT PUSH1 0x1F DUP3 ADD AND DUP3 ADD DUP1 PUSH1 0x40 MSTORE POP DUP2 ADD SWAP1 PUSH2 0x1126 SWAP2 SWAP1 PUSH2 0x38C3 JUMP JUMPDEST ISZERO PUSH2 0x1143 JUMPI PUSH1 0x40 MLOAD PUSH3 0x461BCD PUSH1 0xE5 SHL DUP2 MSTORE PUSH1 0x4 ADD PUSH2 0x47D SWAP1 PUSH2 0x38E0 JUMP JUMPDEST PUSH20 0x0 PUSH4 0x487C6960 DUP7 PUSH2 0x1167 ADDRESS PUSH2 0x2093 JUMP JUMPDEST PUSH1 0x40 MLOAD PUSH1 0x1 PUSH1 0x1 PUSH1 0xE0 SHL SUB NOT PUSH1 0xE0 DUP6 SWAP1 SHL AND DUP2 MSTORE PUSH2 0x1194 SWAP3 SWAP2 SWAP1 CALLER SWAP1 PUSH4 0x31C0493 PUSH1 0xE0 SHL SWAP1 PUSH1 0x4 ADD PUSH2 0x397F JUMP JUMPDEST PUSH1 0x20 PUSH1 0x40 MLOAD DUP1 DUP4 SUB DUP2 DUP7 GAS DELEGATECALL ISZERO DUP1 ISZERO PUSH2 0x11B1 JUMPI RETURNDATASIZE PUSH1 0x0 DUP1 RETURNDATACOPY RETURNDATASIZE PUSH1 0x0 REVERT JUMPDEST POP POP POP POP PUSH1 0x40 MLOAD RETURNDATASIZE PUSH1 0x1F NOT PUSH1 0x1F DUP3 ADD AND DUP3 ADD DUP1 PUSH1 0x40 MSTORE POP DUP2 ADD SWAP1 PUSH2 0x11D5 SWAP2 SWAP1 PUSH2 0x38C3 JUMP JUMPDEST PUSH2 0x1221 JUMPI PUSH1 0x40 MLOAD PUSH3 0x461BCD PUSH1 0xE5 SHL DUP2 MSTORE PUSH1 0x20 PUSH1 0x4 DUP3 ADD DUP2 SWAP1 MSTORE PUSH1 0x24 DUP3 ADD MSTORE PUSH32 0x416464436F6E7465787446756E63526F6C65204163636573732044656E696564 PUSH1 0x44 DUP3 ADD MSTORE PUSH1 0x64 ADD PUSH2 0x47D JUMP JUMPDEST PUSH1 0x0 DUP5 DUP2 MSTORE PUSH1 0x1 DUP1 DUP8 ADD PUSH1 0x20 MSTORE PUSH1 0x40 SWAP1 SWAP2 KECCAK256 ADD SLOAD PUSH1 0x1 PUSH1 0x1 PUSH1 0xA0 SHL SUB AND PUSH2 0x125A JUMPI PUSH1 0x40 MLOAD PUSH3 0x461BCD PUSH1 0xE5 SHL DUP2 MSTORE PUSH1 0x4 ADD PUSH2 0x47D SWAP1 PUSH2 0x39CA JUMP JUMPDEST PUSH1 0x0 DUP3 DUP2 MSTORE PUSH1 0x2 DUP7 ADD PUSH1 0x20 MSTORE PUSH1 0x40 SWAP1 KECCAK256 DUP1 SLOAD PUSH2 0x1275 SWAP1 PUSH2 0x39F5 JUMP JUMPDEST SWAP1 POP PUSH1 0x0 SUB PUSH2 0x1296 JUMPI PUSH1 0x40 MLOAD PUSH3 0x461BCD PUSH1 0xE5 SHL DUP2 MSTORE PUSH1 0x4 ADD PUSH2 0x47D SWAP1 PUSH2 0x3A52 JUMP JUMPDEST PUSH1 0x0 DUP5 DUP2 MSTORE PUSH1 0x1 DUP7 ADD PUSH1 0x20 MSTORE PUSH1 0x40 SWAP1 KECCAK256 PUSH2 0x12BD SWAP1 PUSH1 0x3 ADD PUSH1 0x1 PUSH1 0x1 PUSH1 0xE0 SHL SUB NOT DUP6 AND PUSH2 0x2BF5 JUMP JUMPDEST ISZERO PUSH2 0x130A JUMPI PUSH1 0x40 MLOAD PUSH3 0x461BCD PUSH1 0xE5 SHL DUP2 MSTORE PUSH1 0x20 PUSH1 0x4 DUP3 ADD MSTORE PUSH1 0x1F PUSH1 0x24 DUP3 ADD MSTORE PUSH32 0x46756E6374696F6E53656C6563746F7220416C72656164792045786973747300 PUSH1 0x44 DUP3 ADD MSTORE PUSH1 0x64 ADD PUSH2 0x47D JUMP JUMPDEST PUSH1 0x0 DUP5 DUP2 MSTORE PUSH1 0x1 DUP7 DUP2 ADD PUSH1 0x20 DUP2 DUP2 MSTORE PUSH1 0x40 DUP1 DUP6 KECCAK256 PUSH1 0x1 PUSH1 0x1 PUSH1 0xE0 SHL SUB NOT DUP10 AND DUP1 DUP8 MSTORE PUSH1 0x2 DUP3 ADD DUP5 MSTORE SWAP2 DUP7 KECCAK256 DUP9 DUP2 SSTORE DUP6 ADD DUP1 SLOAD PUSH1 0xFF NOT AND SWAP1 SWAP6 OR SWAP1 SWAP5 SSTORE SWAP4 DUP9 SWAP1 MSTORE MSTORE PUSH2 0x135A SWAP2 PUSH1 0x3 SWAP1 SWAP2 ADD SWAP1 PUSH2 0x2BD6 JUMP JUMPDEST POP POP POP PUSH1 0x0 SWAP2 DUP3 MSTORE POP PUSH1 0x1 SWAP2 SWAP1 SWAP2 ADD PUSH1 0x20 MSTORE PUSH1 0x40 SWAP1 KECCAK256 SLOAD SWAP1 JUMP JUMPDEST PUSH1 0x0 ADDRESS PUSH1 0x1 PUSH1 0x1 PUSH1 0xA0 SHL SUB AND PUSH4 0xBE22465D PUSH1 0x40 MLOAD DUP2 PUSH4 0xFFFFFFFF AND PUSH1 0xE0 SHL DUP2 MSTORE PUSH1 0x4 ADD PUSH1 0x20 PUSH1 0x40 MLOAD DUP1 DUP4 SUB DUP2 DUP7 GAS STATICCALL ISZERO DUP1 ISZERO PUSH2 0x13B4 JUMPI RETURNDATASIZE PUSH1 0x0 DUP1 RETURNDATACOPY RETURNDATASIZE PUSH1 0x0 REVERT JUMPDEST POP POP POP POP PUSH1 0x40 MLOAD RETURNDATASIZE PUSH1 0x1F NOT PUSH1 0x1F DUP3 ADD AND DUP3 ADD DUP1 PUSH1 0x40 MSTORE POP DUP2 ADD SWAP1 PUSH2 0x13D8 SWAP2 SWAP1 PUSH2 0x38C3 JUMP JUMPDEST ISZERO PUSH2 0x13F5 JUMPI PUSH1 0x40 MLOAD PUSH3 0x461BCD PUSH1 0xE5 SHL DUP2 MSTORE PUSH1 0x4 ADD PUSH2 0x47D SWAP1 PUSH2 0x38E0 JUMP JUMPDEST PUSH20 0x0 PUSH4 0x487C6960 DUP7 PUSH2 0x1419 ADDRESS PUSH2 0x2093 JUMP JUMPDEST PUSH1 0x40 MLOAD PUSH1 0x1 PUSH1 0x1 PUSH1 0xE0 SHL SUB NOT PUSH1 0xE0 DUP6 SWAP1 SHL AND DUP2 MSTORE PUSH2 0x1446 SWAP3 SWAP2 SWAP1 CALLER SWAP1 PUSH4 0x4346A04B PUSH1 0xE0 SHL SWAP1 PUSH1 0x4 ADD PUSH2 0x397F JUMP JUMPDEST PUSH1 0x20 PUSH1 0x40 MLOAD DUP1 DUP4 SUB DUP2 DUP7 GAS DELEGATECALL ISZERO DUP1 ISZERO PUSH2 0x1463 JUMPI RETURNDATASIZE PUSH1 0x0 DUP1 RETURNDATACOPY RETURNDATASIZE PUSH1 0x0 REVERT JUMPDEST POP POP POP POP PUSH1 0x40 MLOAD RETURNDATASIZE PUSH1 0x1F NOT PUSH1 0x1F DUP3 ADD AND DUP3 ADD DUP1 PUSH1 0x40 MSTORE POP DUP2 ADD SWAP1 PUSH2 0x1487 SWAP2 SWAP1 PUSH2 0x38C3 JUMP JUMPDEST PUSH2 0x14D3 JUMPI PUSH1 0x40 MLOAD PUSH3 0x461BCD PUSH1 0xE5 SHL DUP2 MSTORE PUSH1 0x20 PUSH1 0x4 DUP3 ADD MSTORE PUSH1 0x1F PUSH1 0x24 DUP3 ADD MSTORE PUSH32 0x5265766F6B65436F6E74657874526F6C65204163636573732044656E69656400 PUSH1 0x44 DUP3 ADD MSTORE PUSH1 0x64 ADD PUSH2 0x47D JUMP JUMPDEST DUP4 PUSH2 0x14DD ADDRESS PUSH2 0x2093 JUMP JUMPDEST SUB PUSH2 0x152A JUMPI PUSH1 0x40 MLOAD PUSH3 0x461BCD PUSH1 0xE5 SHL DUP2 MSTORE PUSH1 0x20 PUSH1 0x4 DUP3 ADD MSTORE PUSH1 0x1A PUSH1 0x24 DUP3 ADD MSTORE PUSH32 0x496C6C6567616C205265766F6B652041434C20436F6E74657874000000000000 PUSH1 0x44 DUP3 ADD MSTORE PUSH1 0x64 ADD PUSH2 0x47D JUMP JUMPDEST PUSH1 0x0 DUP5 DUP2 MSTORE PUSH1 0x1 DUP1 DUP8 ADD PUSH1 0x20 MSTORE PUSH1 0x40 SWAP1 SWAP2 KECCAK256 ADD SLOAD PUSH1 0x1 PUSH1 0x1 PUSH1 0xA0 SHL SUB AND PUSH2 0x1563 JUMPI PUSH1 0x40 MLOAD PUSH3 0x461BCD PUSH1 0xE5 SHL DUP2 MSTORE PUSH1 0x4 ADD PUSH2 0x47D SWAP1 PUSH2 0x39CA JUMP JUMPDEST PUSH1 0x0 DUP3 DUP2 MSTORE PUSH1 0x2 DUP7 ADD PUSH1 0x20 MSTORE PUSH1 0x40 SWAP1 KECCAK256 DUP1 SLOAD PUSH2 0x157E SWAP1 PUSH2 0x39F5 JUMP JUMPDEST SWAP1 POP PUSH1 0x0 SUB PUSH2 0x159F JUMPI PUSH1 0x40 MLOAD PUSH3 0x461BCD PUSH1 0xE5 SHL DUP2 MSTORE PUSH1 0x4 ADD PUSH2 0x47D SWAP1 PUSH2 0x3A52 JUMP JUMPDEST PUSH1 0x0 DUP5 DUP2 MSTORE PUSH1 0x1 DUP7 ADD PUSH1 0x20 MSTORE PUSH1 0x40 SWAP1 KECCAK256 PUSH2 0x15C6 SWAP1 PUSH1 0x3 ADD PUSH1 0x1 PUSH1 0x1 PUSH1 0xE0 SHL SUB NOT DUP6 AND PUSH2 0x2BF5 JUMP JUMPDEST PUSH2 0x15E2 JUMPI PUSH1 0x40 MLOAD PUSH3 0x461BCD PUSH1 0xE5 SHL DUP2 MSTORE PUSH1 0x4 ADD PUSH2 0x47D SWAP1 PUSH2 0x3A7A JUMP JUMPDEST PUSH1 0x0 DUP5 DUP2 MSTORE PUSH1 0x1 DUP1 DUP8 ADD PUSH1 0x20 SWAP1 DUP2 MSTORE PUSH1 0x40 DUP1 DUP5 KECCAK256 PUSH1 0x1 PUSH1 0x1 PUSH1 0xE0 SHL SUB NOT DUP9 AND DUP6 MSTORE PUSH1 0x2 SWAP1 DUP2 ADD SWAP1 SWAP3 MSTORE SWAP1 SWAP3 KECCAK256 DUP2 ADD DUP1 SLOAD SWAP1 SWAP2 PUSH1 0xFF NOT SWAP1 SWAP2 AND SWAP1 DUP4 PUSH2 0xE44 JUMP JUMPDEST PUSH1 0x0 DUP4 DUP2 MSTORE PUSH1 0x1 DUP1 DUP7 ADD PUSH1 0x20 MSTORE PUSH1 0x40 DUP3 KECCAK256 ADD SLOAD PUSH1 0x1 PUSH1 0x1 PUSH1 0xA0 SHL SUB AND ISZERO DUP1 ISZERO SWAP1 PUSH2 0x1672 JUMPI POP PUSH1 0x0 DUP5 DUP2 MSTORE PUSH1 0x1 DUP7 ADD PUSH1 0x20 SWAP1 DUP2 MSTORE PUSH1 0x40 DUP1 DUP4 KECCAK256 PUSH1 0x1 PUSH1 0x1 PUSH1 0xE0 SHL SUB NOT DUP7 AND DUP5 MSTORE PUSH1 0x2 ADD SWAP1 SWAP2 MSTORE SWAP1 KECCAK256 SLOAD DUP4 EQ JUMPDEST DUP1 ISZERO PUSH2 0x16BE JUMPI POP PUSH1 0x1 PUSH1 0x0 DUP6 DUP2 MSTORE PUSH1 0x1 DUP1 DUP9 ADD PUSH1 0x20 SWAP1 DUP2 MSTORE PUSH1 0x40 DUP1 DUP5 KECCAK256 PUSH1 0x1 PUSH1 0x1 PUSH1 0xE0 SHL SUB NOT DUP9 AND DUP6 MSTORE PUSH1 0x2 SWAP1 DUP2 ADD SWAP1 SWAP3 MSTORE SWAP1 SWAP3 KECCAK256 ADD SLOAD PUSH1 0xFF AND SWAP1 DUP2 GT ISZERO PUSH2 0x16BC JUMPI PUSH2 0x16BC PUSH2 0x3932 JUMP JUMPDEST EQ JUMPDEST SWAP6 SWAP5 POP POP POP POP POP JUMP JUMPDEST PUSH1 0x40 DUP1 MLOAD PUSH1 0xC0 DUP2 ADD DUP3 MSTORE PUSH1 0x0 DUP1 DUP3 MSTORE PUSH1 0x20 DUP3 ADD DUP2 SWAP1 MSTORE SWAP2 DUP2 ADD DUP3 SWAP1 MSTORE PUSH1 0x60 DUP2 ADD DUP3 SWAP1 MSTORE PUSH1 0x80 DUP2 ADD DUP3 SWAP1 MSTORE PUSH1 0xA0 DUP2 ADD SWAP2 SWAP1 SWAP2 MSTORE PUSH1 0x0 DUP3 DUP2 MSTORE PUSH1 0x1 DUP1 DUP6 ADD PUSH1 0x20 MSTORE PUSH1 0x40 SWAP1 SWAP2 KECCAK256 ADD SLOAD PUSH1 0x1 PUSH1 0x1 PUSH1 0xA0 SHL SUB AND PUSH2 0x1732 JUMPI PUSH1 0x40 MLOAD PUSH3 0x461BCD PUSH1 0xE5 SHL DUP2 MSTORE PUSH1 0x4 ADD PUSH2 0x47D SWAP1 PUSH2 0x39CA JUMP JUMPDEST PUSH1 0x0 DUP3 DUP2 MSTORE PUSH1 0x1 DUP1 DUP6 ADD PUSH1 0x20 SWAP1 DUP2 MSTORE PUSH1 0x40 DUP1 DUP5 KECCAK256 SWAP1 SWAP3 ADD SLOAD DUP3 MLOAD PUSH4 0x1D743037 PUSH1 0xE2 SHL DUP2 MSTORE SWAP3 MLOAD PUSH1 0x1 PUSH1 0x1 PUSH1 0xA0 SHL SUB SWAP1 SWAP2 AND SWAP3 PUSH4 0x75D0C0DC SWAP3 PUSH1 0x4 DUP1 DUP4 ADD SWAP4 SWAP2 SWAP3 DUP3 SWAP1 SUB ADD DUP2 DUP7 GAS STATICCALL ISZERO DUP1 ISZERO PUSH2 0x178B JUMPI RETURNDATASIZE PUSH1 0x0 DUP1 RETURNDATACOPY RETURNDATASIZE PUSH1 0x0 REVERT JUMPDEST POP POP POP POP PUSH1 0x40 MLOAD RETURNDATASIZE PUSH1 0x1F NOT PUSH1 0x1F DUP3 ADD AND DUP3 ADD DUP1 PUSH1 0x40 MSTORE POP DUP2 ADD SWAP1 PUSH2 0x17AF SWAP2 SWAP1 PUSH2 0x3AB1 JUMP JUMPDEST PUSH1 0x0 DUP5 DUP2 MSTORE PUSH1 0x1 DUP1 DUP8 ADD PUSH1 0x20 SWAP1 DUP2 MSTORE PUSH1 0x40 DUP1 DUP5 KECCAK256 SWAP1 SWAP3 ADD SLOAD DUP3 MLOAD PUSH4 0x5054723 PUSH1 0xE5 SHL DUP2 MSTORE SWAP3 MLOAD SWAP5 SWAP6 POP SWAP3 SWAP4 PUSH1 0x1 PUSH1 0x1 PUSH1 0xA0 SHL SUB SWAP1 SWAP4 AND SWAP3 PUSH4 0xA0A8E460 SWAP3 PUSH1 0x4 DUP1 DUP3 ADD SWAP4 SWAP3 SWAP2 DUP3 SWAP1 SUB ADD DUP2 DUP7 GAS STATICCALL ISZERO DUP1 ISZERO PUSH2 0x180D JUMPI RETURNDATASIZE PUSH1 0x0 DUP1 RETURNDATACOPY RETURNDATASIZE PUSH1 0x0 REVERT JUMPDEST POP POP POP POP PUSH1 0x40 MLOAD RETURNDATASIZE PUSH1 0x1F NOT PUSH1 0x1F DUP3 ADD AND DUP3 ADD DUP1 PUSH1 0x40 MSTORE POP DUP2 ADD SWAP1 PUSH2 0x1831 SWAP2 SWAP1 PUSH2 0x3AB1 JUMP JUMPDEST PUSH1 0x0 DUP6 DUP2 MSTORE PUSH1 0x1 DUP1 DUP9 ADD PUSH1 0x20 SWAP1 DUP2 MSTORE PUSH1 0x40 DUP1 DUP5 KECCAK256 SWAP1 SWAP3 ADD SLOAD DUP3 MLOAD PUSH4 0xBE22465D PUSH1 0xE0 SHL DUP2 MSTORE SWAP3 MLOAD SWAP5 SWAP6 POP SWAP3 SWAP4 PUSH1 0x1 PUSH1 0x1 PUSH1 0xA0 SHL SUB SWAP1 SWAP4 AND SWAP3 PUSH4 0xBE22465D SWAP3 PUSH1 0x4 DUP1 DUP3 ADD SWAP4 SWAP3 SWAP2 DUP3 SWAP1 SUB ADD DUP2 DUP7 GAS STATICCALL ISZERO DUP1 ISZERO PUSH2 0x188F JUMPI RETURNDATASIZE PUSH1 0x0 DUP1 RETURNDATACOPY RETURNDATASIZE PUSH1 0x0 REVERT JUMPDEST POP POP POP POP PUSH1 0x40 MLOAD RETURNDATASIZE PUSH1 0x1F NOT PUSH1 0x1F DUP3 ADD AND DUP3 ADD DUP1 PUSH1 0x40 MSTORE POP DUP2 ADD SWAP1 PUSH2 0x18B3 SWAP2 SWAP1 PUSH2 0x38C3 JUMP JUMPDEST PUSH1 0x0 DUP7 DUP2 MSTORE PUSH1 0x1 DUP1 DUP10 ADD PUSH1 0x20 SWAP1 DUP2 MSTORE PUSH1 0x40 DUP1 DUP5 KECCAK256 SWAP1 SWAP3 ADD SLOAD DUP3 MLOAD PUSH4 0x151E765 PUSH1 0xE6 SHL DUP2 MSTORE SWAP3 MLOAD SWAP5 SWAP6 POP SWAP3 SWAP4 PUSH1 0x1 PUSH1 0x1 PUSH1 0xA0 SHL SUB SWAP1 SWAP4 AND SWAP3 PUSH4 0x5479D940 SWAP3 PUSH1 0x4 DUP1 DUP3 ADD SWAP4 SWAP3 SWAP2 DUP3 SWAP1 SUB ADD DUP2 DUP7 GAS STATICCALL ISZERO DUP1 ISZERO PUSH2 0x1911 JUMPI RETURNDATASIZE PUSH1 0x0 DUP1 RETURNDATACOPY RETURNDATASIZE PUSH1 0x0 REVERT JUMPDEST POP POP POP POP PUSH1 0x40 MLOAD RETURNDATASIZE PUSH1 0x1F NOT PUSH1 0x1F DUP3 ADD AND DUP3 ADD DUP1 PUSH1 0x40 MSTORE POP DUP2 ADD SWAP1 PUSH2 0x1935 SWAP2 SWAP1 PUSH2 0x38C3 JUMP JUMPDEST PUSH1 0x40 DUP1 MLOAD PUSH1 0xC0 DUP2 ADD DUP3 MSTORE SWAP6 DUP7 MSTORE PUSH1 0x20 DUP1 DUP8 ADD SWAP6 SWAP1 SWAP6 MSTORE PUSH1 0x0 DUP9 DUP2 MSTORE PUSH1 0x1 DUP1 DUP12 ADD DUP1 DUP9 MSTORE DUP4 DUP4 KECCAK256 DUP1 SLOAD SWAP5 DUP11 ADD SWAP5 SWAP1 SWAP5 MSTORE SWAP2 DUP11 SWAP1 MSTORE SWAP6 MSTORE SWAP1 SWAP4 ADD SLOAD PUSH1 0x1 PUSH1 0x1 PUSH1 0xA0 SHL SUB AND PUSH1 0x60 DUP6 ADD MSTORE POP ISZERO ISZERO PUSH1 0x80 DUP4 ADD MSTORE ISZERO ISZERO PUSH1 0xA0 DUP3 ADD MSTORE SWAP1 POP JUMPDEST SWAP3 SWAP2 POP POP JUMP JUMPDEST PUSH1 0x0 DUP1 ADDRESS PUSH1 0x1 PUSH1 0x1 PUSH1 0xA0 SHL SUB AND PUSH4 0xBE22465D PUSH1 0x40 MLOAD DUP2 PUSH4 0xFFFFFFFF AND PUSH1 0xE0 SHL DUP2 MSTORE PUSH1 0x4 ADD PUSH1 0x20 PUSH1 0x40 MLOAD DUP1 DUP4 SUB DUP2 DUP7 GAS STATICCALL ISZERO DUP1 ISZERO PUSH2 0x19D5 JUMPI RETURNDATASIZE PUSH1 0x0 DUP1 RETURNDATACOPY RETURNDATASIZE PUSH1 0x0 REVERT JUMPDEST POP POP POP POP PUSH1 0x40 MLOAD RETURNDATASIZE PUSH1 0x1F NOT PUSH1 0x1F DUP3 ADD AND DUP3 ADD DUP1 PUSH1 0x40 MSTORE POP DUP2 ADD SWAP1 PUSH2 0x19F9 SWAP2 SWAP1 PUSH2 0x38C3 JUMP JUMPDEST ISZERO PUSH2 0x1A16 JUMPI PUSH1 0x40 MLOAD PUSH3 0x461BCD PUSH1 0xE5 SHL DUP2 MSTORE PUSH1 0x4 ADD PUSH2 0x47D SWAP1 PUSH2 0x38E0 JUMP JUMPDEST PUSH20 0x0 PUSH4 0x487C6960 DUP7 PUSH2 0x1A3A ADDRESS PUSH2 0x2093 JUMP JUMPDEST PUSH1 0x40 MLOAD PUSH1 0x1 PUSH1 0x1 PUSH1 0xE0 SHL SUB NOT PUSH1 0xE0 DUP6 SWAP1 SHL AND DUP2 MSTORE PUSH2 0x1A67 SWAP3 SWAP2 SWAP1 CALLER SWAP1 PUSH4 0x70420EE3 PUSH1 0xE0 SHL SWAP1 PUSH1 0x4 ADD PUSH2 0x397F JUMP JUMPDEST PUSH1 0x20 PUSH1 0x40 MLOAD DUP1 DUP4 SUB DUP2 DUP7 GAS DELEGATECALL ISZERO DUP1 ISZERO PUSH2 0x1A84 JUMPI RETURNDATASIZE PUSH1 0x0 DUP1 RETURNDATACOPY RETURNDATASIZE PUSH1 0x0 REVERT JUMPDEST POP POP POP POP PUSH1 0x40 MLOAD RETURNDATASIZE PUSH1 0x1F NOT PUSH1 0x1F DUP3 ADD AND DUP3 ADD DUP1 PUSH1 0x40 MSTORE POP DUP2 ADD SWAP1 PUSH2 0x1AA8 SWAP2 SWAP1 PUSH2 0x38C3 JUMP JUMPDEST PUSH2 0x1AF4 JUMPI PUSH1 0x40 MLOAD PUSH3 0x461BCD PUSH1 0xE5 SHL DUP2 MSTORE PUSH1 0x20 PUSH1 0x4 DUP3 ADD MSTORE PUSH1 0x1E PUSH1 0x24 DUP3 ADD MSTORE PUSH32 0x536574436F6E74657874537461747573204163636573732044656E6965640000 PUSH1 0x44 DUP3 ADD MSTORE PUSH1 0x64 ADD PUSH2 0x47D JUMP JUMPDEST DUP4 PUSH2 0x1AFE ADDRESS PUSH2 0x2093 JUMP JUMPDEST SUB PUSH2 0x1B55 JUMPI PUSH1 0x40 MLOAD PUSH3 0x461BCD PUSH1 0xE5 SHL DUP2 MSTORE PUSH1 0x20 PUSH1 0x4 DUP3 ADD MSTORE PUSH1 0x21 PUSH1 0x24 DUP3 ADD MSTORE PUSH32 0x496C6C6567616C204368616E67652041434C20436F6E74657874205374617475 PUSH1 0x44 DUP3 ADD MSTORE PUSH1 0x73 PUSH1 0xF8 SHL PUSH1 0x64 DUP3 ADD MSTORE PUSH1 0x84 ADD PUSH2 0x47D JUMP JUMPDEST PUSH1 0x0 DUP5 DUP2 MSTORE PUSH1 0x1 DUP1 DUP8 ADD PUSH1 0x20 MSTORE PUSH1 0x40 SWAP1 SWAP2 KECCAK256 ADD SLOAD PUSH1 0x1 PUSH1 0x1 PUSH1 0xA0 SHL SUB AND PUSH2 0x1B8E JUMPI PUSH1 0x40 MLOAD PUSH3 0x461BCD PUSH1 0xE5 SHL DUP2 MSTORE PUSH1 0x4 ADD PUSH2 0x47D SWAP1 PUSH2 0x39CA JUMP JUMPDEST POP POP PUSH1 0x0 DUP3 DUP2 MSTORE PUSH1 0x1 DUP1 DUP6 ADD PUSH1 0x20 MSTORE PUSH1 0x40 SWAP1 SWAP2 KECCAK256 DUP1 DUP3 ADD DUP1 SLOAD DUP5 ISZERO ISZERO PUSH1 0x1 PUSH1 0xA0 SHL MUL PUSH1 0xFF PUSH1 0xA0 SHL NOT SWAP1 SWAP2 AND OR SWAP1 SSTORE SLOAD SWAP4 POP SWAP4 SWAP2 POP POP JUMP JUMPDEST PUSH1 0x0 ADDRESS PUSH1 0x1 PUSH1 0x1 PUSH1 0xA0 SHL SUB AND PUSH4 0xBE22465D PUSH1 0x40 MLOAD DUP2 PUSH4 0xFFFFFFFF AND PUSH1 0xE0 SHL DUP2 MSTORE PUSH1 0x4 ADD PUSH1 0x20 PUSH1 0x40 MLOAD DUP1 DUP4 SUB DUP2 DUP7 GAS STATICCALL ISZERO DUP1 ISZERO PUSH2 0x1C05 JUMPI RETURNDATASIZE PUSH1 0x0 DUP1 RETURNDATACOPY RETURNDATASIZE PUSH1 0x0 REVERT JUMPDEST POP POP POP POP PUSH1 0x40 MLOAD RETURNDATASIZE PUSH1 0x1F NOT PUSH1 0x1F DUP3 ADD AND DUP3 ADD DUP1 PUSH1 0x40 MSTORE POP DUP2 ADD SWAP1 PUSH2 0x1C29 SWAP2 SWAP1 PUSH2 0x38C3 JUMP JUMPDEST ISZERO PUSH2 0x1C46 JUMPI PUSH1 0x40 MLOAD PUSH3 0x461BCD PUSH1 0xE5 SHL DUP2 MSTORE PUSH1 0x4 ADD PUSH2 0x47D SWAP1 PUSH2 0x38E0 JUMP JUMPDEST PUSH20 0x0 PUSH4 0x487C6960 DUP6 PUSH2 0x1C6A ADDRESS PUSH2 0x2093 JUMP JUMPDEST PUSH1 0x40 MLOAD PUSH1 0x1 PUSH1 0x1 PUSH1 0xE0 SHL SUB NOT PUSH1 0xE0 DUP6 SWAP1 SHL AND DUP2 MSTORE PUSH2 0x1C97 SWAP3 SWAP2 SWAP1 CALLER SWAP1 PUSH4 0x5AC4B36F PUSH1 0xE1 SHL SWAP1 PUSH1 0x4 ADD PUSH2 0x397F JUMP JUMPDEST PUSH1 0x20 PUSH1 0x40 MLOAD DUP1 DUP4 SUB DUP2 DUP7 GAS DELEGATECALL ISZERO DUP1 ISZERO PUSH2 0x1CB4 JUMPI RETURNDATASIZE PUSH1 0x0 DUP1 RETURNDATACOPY RETURNDATASIZE PUSH1 0x0 REVERT JUMPDEST POP POP POP POP PUSH1 0x40 MLOAD RETURNDATASIZE PUSH1 0x1F NOT PUSH1 0x1F DUP3 ADD AND DUP3 ADD DUP1 PUSH1 0x40 MSTORE POP DUP2 ADD SWAP1 PUSH2 0x1CD8 SWAP2 SWAP1 PUSH2 0x38C3 JUMP JUMPDEST PUSH2 0x1D24 JUMPI PUSH1 0x40 MLOAD PUSH3 0x461BCD PUSH1 0xE5 SHL DUP2 MSTORE PUSH1 0x20 PUSH1 0x4 DUP3 ADD MSTORE PUSH1 0x1F PUSH1 0x24 DUP3 ADD MSTORE PUSH32 0x52656D6F7665436F6E7465787446756E63204163636573732044656E69656400 PUSH1 0x44 DUP3 ADD MSTORE PUSH1 0x64 ADD PUSH2 0x47D JUMP JUMPDEST DUP3 PUSH2 0x1D2E ADDRESS PUSH2 0x2093 JUMP JUMPDEST SUB PUSH2 0x1D7B JUMPI PUSH1 0x40 MLOAD PUSH3 0x461BCD PUSH1 0xE5 SHL DUP2 MSTORE PUSH1 0x20 PUSH1 0x4 DUP3 ADD MSTORE PUSH1 0x1A PUSH1 0x24 DUP3 ADD MSTORE PUSH32 0x496C6C6567616C2052656D6F76652041434C20436F6E74657874000000000000 PUSH1 0x44 DUP3 ADD MSTORE PUSH1 0x64 ADD PUSH2 0x47D JUMP JUMPDEST PUSH1 0x0 DUP4 DUP2 MSTORE PUSH1 0x1 DUP1 DUP7 ADD PUSH1 0x20 MSTORE PUSH1 0x40 SWAP1 SWAP2 KECCAK256 ADD SLOAD PUSH1 0x1 PUSH1 0x1 PUSH1 0xA0 SHL SUB AND PUSH2 0x1DB4 JUMPI PUSH1 0x40 MLOAD PUSH3 0x461BCD PUSH1 0xE5 SHL DUP2 MSTORE PUSH1 0x4 ADD PUSH2 0x47D SWAP1 PUSH2 0x39CA JUMP JUMPDEST PUSH1 0x0 DUP4 DUP2 MSTORE PUSH1 0x1 DUP6 ADD PUSH1 0x20 MSTORE PUSH1 0x40 SWAP1 KECCAK256 PUSH2 0x1DDB SWAP1 PUSH1 0x3 ADD PUSH1 0x1 PUSH1 0x1 PUSH1 0xE0 SHL SUB NOT DUP5 AND PUSH2 0x2BF5 JUMP JUMPDEST PUSH2 0x1DF7 JUMPI PUSH1 0x40 MLOAD PUSH3 0x461BCD PUSH1 0xE5 SHL DUP2 MSTORE PUSH1 0x4 ADD PUSH2 0x47D SWAP1 PUSH2 0x3A7A JUMP JUMPDEST PUSH1 0x0 DUP4 DUP2 MSTORE PUSH1 0x1 DUP1 DUP7 ADD PUSH1 0x20 DUP2 DUP2 MSTORE PUSH1 0x40 DUP1 DUP6 KECCAK256 PUSH1 0x1 PUSH1 0x1 PUSH1 0xE0 SHL SUB NOT DUP9 AND DUP1 DUP8 MSTORE PUSH1 0x2 DUP3 ADD DUP5 MSTORE SWAP2 DUP7 KECCAK256 DUP7 DUP2 SSTORE SWAP1 SWAP5 ADD DUP1 SLOAD PUSH1 0xFF NOT AND SWAP1 SSTORE SWAP4 DUP8 SWAP1 MSTORE MSTORE PUSH2 0x1E44 SWAP2 PUSH1 0x3 SWAP1 SWAP2 ADD SWAP1 PUSH2 0x2BE9 JUMP JUMPDEST POP POP POP PUSH1 0x0 SWAP1 DUP2 MSTORE PUSH1 0x1 SWAP2 SWAP1 SWAP2 ADD PUSH1 0x20 MSTORE PUSH1 0x40 SWAP1 KECCAK256 SLOAD SWAP1 JUMP JUMPDEST PUSH1 0x40 MLOAD PUSH18 0x1310DBDB9D195E1D13585B9859D95B595B9D PUSH1 0x72 SHL PUSH1 0x20 DUP3 ADD MSTORE PUSH1 0x32 ADD PUSH2 0x890 JUMP JUMPDEST PUSH1 0x0 DUP2 DUP2 MSTORE PUSH1 0x1 DUP1 DUP5 ADD PUSH1 0x20 MSTORE PUSH1 0x40 SWAP1 SWAP2 KECCAK256 ADD SLOAD PUSH1 0x60 SWAP1 PUSH1 0x1 PUSH1 0x1 PUSH1 0xA0 SHL SUB AND PUSH2 0x1EBF JUMPI PUSH1 0x40 MLOAD PUSH3 0x461BCD PUSH1 0xE5 SHL DUP2 MSTORE PUSH1 0x4 ADD PUSH2 0x47D SWAP1 PUSH2 0x39CA JUMP JUMPDEST PUSH1 0x0 DUP3 DUP2 MSTORE PUSH1 0x1 DUP5 ADD PUSH1 0x20 MSTORE PUSH1 0x40 DUP2 KECCAK256 PUSH2 0x1EDB SWAP1 PUSH1 0x3 ADD PUSH2 0x3037 JUMP JUMPDEST PUSH8 0xFFFFFFFFFFFFFFFF DUP2 GT ISZERO PUSH2 0x1EF3 JUMPI PUSH2 0x1EF3 PUSH2 0x3407 JUMP JUMPDEST PUSH1 0x40 MLOAD SWAP1 DUP1 DUP3 MSTORE DUP1 PUSH1 0x20 MUL PUSH1 0x20 ADD DUP3 ADD PUSH1 0x40 MSTORE DUP1 ISZERO PUSH2 0x1F1C JUMPI DUP2 PUSH1 0x20 ADD PUSH1 0x20 DUP3 MUL DUP1 CALLDATASIZE DUP4 CALLDATACOPY ADD SWAP1 POP JUMPDEST POP SWAP1 POP PUSH1 0x0 JUMPDEST PUSH1 0x0 DUP5 DUP2 MSTORE PUSH1 0x1 DUP7 ADD PUSH1 0x20 MSTORE PUSH1 0x40 SWAP1 KECCAK256 PUSH2 0x1F3E SWAP1 PUSH1 0x3 ADD PUSH2 0x3037 JUMP JUMPDEST DUP2 PUSH4 0xFFFFFFFF AND LT ISZERO PUSH2 0x1FB4 JUMPI PUSH1 0x0 DUP5 DUP2 MSTORE PUSH1 0x1 DUP7 ADD PUSH1 0x20 MSTORE PUSH1 0x40 SWAP1 KECCAK256 PUSH2 0x1F71 SWAP1 PUSH1 0x3 ADD PUSH4 0xFFFFFFFF DUP1 DUP5 AND SWAP1 PUSH2 0x3041 AND JUMP JUMPDEST DUP3 DUP3 PUSH4 0xFFFFFFFF AND DUP2 MLOAD DUP2 LT PUSH2 0x1F89 JUMPI PUSH2 0x1F89 PUSH2 0x3ACA JUMP JUMPDEST PUSH1 0x1 PUSH1 0x1 PUSH1 0xE0 SHL SUB NOT SWAP1 SWAP3 AND PUSH1 0x20 SWAP3 DUP4 MUL SWAP2 SWAP1 SWAP2 ADD SWAP1 SWAP2 ADD MSTORE DUP1 PUSH2 0x1FAC DUP2 PUSH2 0x3AF6 JUMP JUMPDEST SWAP2 POP POP PUSH2 0x1F22 JUMP JUMPDEST POP SWAP4 SWAP3 POP POP POP JUMP JUMPDEST PUSH1 0x0 PUSH2 0x1FCD DUP7 DUP7 DUP7 PUSH1 0x1 DUP8 DUP8 PUSH2 0x27F9 JUMP JUMPDEST SWAP7 SWAP6 POP POP POP POP POP POP JUMP JUMPDEST PUSH1 0x0 PUSH2 0x198E PUSH2 0x1FE4 PUSH2 0x304D JUMP JUMPDEST DUP4 PUSH1 0x40 MLOAD PUSH2 0x1901 PUSH1 0xF0 SHL PUSH1 0x20 DUP3 ADD MSTORE PUSH1 0x22 DUP2 ADD DUP4 SWAP1 MSTORE PUSH1 0x42 DUP2 ADD DUP3 SWAP1 MSTORE PUSH1 0x0 SWAP1 PUSH1 0x62 ADD PUSH1 0x40 MLOAD PUSH1 0x20 DUP2 DUP4 SUB SUB DUP2 MSTORE SWAP1 PUSH1 0x40 MSTORE DUP1 MLOAD SWAP1 PUSH1 0x20 ADD KECCAK256 SWAP1 POP SWAP3 SWAP2 POP POP JUMP JUMPDEST PUSH1 0x0 DUP1 DUP3 MLOAD PUSH1 0x41 SUB PUSH2 0x205B JUMPI PUSH1 0x20 DUP4 ADD MLOAD PUSH1 0x40 DUP5 ADD MLOAD PUSH1 0x60 DUP6 ADD MLOAD PUSH1 0x0 BYTE PUSH2 0x204F DUP8 DUP3 DUP6 DUP6 PUSH2 0x3175 JUMP JUMPDEST SWAP5 POP SWAP5 POP POP POP POP PUSH2 0x208C JUMP JUMPDEST DUP3 MLOAD PUSH1 0x40 SUB PUSH2 0x2084 JUMPI PUSH1 0x20 DUP4 ADD MLOAD PUSH1 0x40 DUP5 ADD MLOAD PUSH2 0x2079 DUP7 DUP4 DUP4 PUSH2 0x3262 JUMP JUMPDEST SWAP4 POP SWAP4 POP POP POP PUSH2 0x208C JUMP JUMPDEST POP PUSH1 0x0 SWAP1 POP PUSH1 0x2 JUMPDEST SWAP3 POP SWAP3 SWAP1 POP JUMP JUMPDEST PUSH1 0x40 MLOAD PUSH12 0xFFFFFFFFFFFFFFFFFFFFFFFF NOT PUSH1 0x60 DUP4 SWAP1 SHL AND PUSH1 0x20 DUP3 ADD MSTORE PUSH1 0x0 SWAP1 PUSH1 0x34 ADD PUSH1 0x40 MLOAD PUSH1 0x20 DUP2 DUP4 SUB SUB DUP2 MSTORE SWAP1 PUSH1 0x40 MSTORE DUP1 MLOAD SWAP1 PUSH1 0x20 ADD KECCAK256 SWAP1 POP SWAP2 SWAP1 POP JUMP JUMPDEST PUSH1 0x0 DUP6 DUP2 MSTORE PUSH1 0x1 DUP1 DUP9 ADD PUSH1 0x20 MSTORE PUSH1 0x40 DUP3 KECCAK256 ADD SLOAD PUSH1 0x1 PUSH1 0x1 PUSH1 0xA0 SHL SUB AND DUP1 PUSH2 0x210B JUMPI PUSH1 0x40 MLOAD PUSH3 0x461BCD PUSH1 0xE5 SHL DUP2 MSTORE PUSH1 0x4 ADD PUSH2 0x47D SWAP1 PUSH2 0x39CA JUMP JUMPDEST PUSH1 0x1 PUSH1 0x1 PUSH1 0xA0 SHL SUB DUP2 AND CALLER EQ PUSH2 0x2163 JUMPI PUSH1 0x40 MLOAD PUSH3 0x461BCD PUSH1 0xE5 SHL DUP2 MSTORE PUSH1 0x20 PUSH1 0x4 DUP3 ADD MSTORE PUSH1 0x18 PUSH1 0x24 DUP3 ADD MSTORE PUSH32 0x55706461746520436F6E7465787420466F7262696464656E0000000000000000 PUSH1 0x44 DUP3 ADD MSTORE PUSH1 0x64 ADD PUSH2 0x47D JUMP JUMPDEST PUSH1 0x0 DUP7 DUP2 MSTORE PUSH1 0x3 DUP10 ADD PUSH1 0x20 MSTORE PUSH1 0x40 SWAP1 KECCAK256 DUP1 SLOAD PUSH2 0x217E SWAP1 PUSH2 0x39F5 JUMP JUMPDEST SWAP1 POP PUSH1 0x0 SUB PUSH2 0x219F JUMPI PUSH1 0x40 MLOAD PUSH3 0x461BCD PUSH1 0xE5 SHL DUP2 MSTORE PUSH1 0x4 ADD PUSH2 0x47D SWAP1 PUSH2 0x3A29 JUMP JUMPDEST PUSH1 0x0 DUP8 DUP2 MSTORE PUSH1 0x1 DUP10 DUP2 ADD PUSH1 0x20 MSTORE PUSH1 0x40 SWAP1 SWAP2 KECCAK256 SWAP1 DUP2 ADD DUP1 SLOAD PUSH1 0xFF PUSH1 0xA0 SHL NOT AND PUSH1 0x1 PUSH1 0xA0 SHL DUP9 ISZERO ISZERO MUL OR SWAP1 SSTORE SLOAD DUP7 EQ PUSH2 0x221C JUMPI PUSH1 0x0 DUP8 DUP2 MSTORE PUSH1 0x1 DUP10 ADD PUSH1 0x20 SWAP1 DUP2 MSTORE PUSH1 0x40 DUP1 DUP4 KECCAK256 SLOAD DUP4 MSTORE PUSH1 0x3 DUP12 ADD SWAP1 SWAP2 MSTORE SWAP1 KECCAK256 PUSH2 0x21FC SWAP1 PUSH1 0x2 ADD DUP9 PUSH2 0x2BE9 JUMP JUMPDEST POP PUSH1 0x0 DUP7 DUP2 MSTORE PUSH1 0x3 DUP10 ADD PUSH1 0x20 MSTORE PUSH1 0x40 SWAP1 KECCAK256 PUSH2 0x221A SWAP1 PUSH1 0x2 ADD DUP9 PUSH2 0x2BD6 JUMP JUMPDEST POP JUMPDEST PUSH1 0x0 DUP8 DUP2 MSTORE PUSH1 0x1 DUP10 ADD PUSH1 0x20 MSTORE PUSH1 0x40 DUP2 KECCAK256 DUP8 SWAP1 SSTORE JUMPDEST DUP4 DUP2 LT ISZERO PUSH2 0x27ED JUMPI DUP9 PUSH1 0x2 ADD PUSH1 0x0 DUP7 DUP7 DUP5 DUP2 DUP2 LT PUSH2 0x2250 JUMPI PUSH2 0x2250 PUSH2 0x3ACA JUMP JUMPDEST SWAP1 POP PUSH1 0x20 MUL DUP2 ADD SWAP1 PUSH2 0x2262 SWAP2 SWAP1 PUSH2 0x3B19 JUMP JUMPDEST CALLDATALOAD DUP2 MSTORE PUSH1 0x20 DUP2 ADD SWAP2 SWAP1 SWAP2 MSTORE PUSH1 0x40 ADD PUSH1 0x0 KECCAK256 DUP1 SLOAD PUSH2 0x227E SWAP1 PUSH2 0x39F5 JUMP JUMPDEST SWAP1 POP PUSH1 0x0 SUB PUSH2 0x229F JUMPI PUSH1 0x40 MLOAD PUSH3 0x461BCD PUSH1 0xE5 SHL DUP2 MSTORE PUSH1 0x4 ADD PUSH2 0x47D SWAP1 PUSH2 0x3A52 JUMP JUMPDEST PUSH1 0x0 JUMPDEST DUP6 DUP6 DUP4 DUP2 DUP2 LT PUSH2 0x22B4 JUMPI PUSH2 0x22B4 PUSH2 0x3ACA JUMP JUMPDEST SWAP1 POP PUSH1 0x20 MUL DUP2 ADD SWAP1 PUSH2 0x22C6 SWAP2 SWAP1 PUSH2 0x3B19 JUMP JUMPDEST PUSH2 0x22D4 SWAP1 PUSH1 0x20 DUP2 ADD SWAP1 PUSH2 0x3B39 JUMP JUMPDEST SWAP1 POP DUP2 LT ISZERO PUSH2 0x27DA JUMPI PUSH1 0x1 DUP7 DUP7 DUP5 DUP2 DUP2 LT PUSH2 0x22F1 JUMPI PUSH2 0x22F1 PUSH2 0x3ACA JUMP JUMPDEST SWAP1 POP PUSH1 0x20 MUL DUP2 ADD SWAP1 PUSH2 0x2303 SWAP2 SWAP1 PUSH2 0x3B19 JUMP JUMPDEST PUSH2 0x2314 SWAP1 PUSH1 0x60 DUP2 ADD SWAP1 PUSH1 0x40 ADD PUSH2 0x3B83 JUMP JUMPDEST PUSH1 0x2 DUP2 GT ISZERO PUSH2 0x2325 JUMPI PUSH2 0x2325 PUSH2 0x3932 JUMP JUMPDEST EQ DUP1 PUSH2 0x2376 JUMPI POP PUSH1 0x0 DUP7 DUP7 DUP5 DUP2 DUP2 LT PUSH2 0x2340 JUMPI PUSH2 0x2340 PUSH2 0x3ACA JUMP JUMPDEST SWAP1 POP PUSH1 0x20 MUL DUP2 ADD SWAP1 PUSH2 0x2352 SWAP2 SWAP1 PUSH2 0x3B19 JUMP JUMPDEST PUSH2 0x2363 SWAP1 PUSH1 0x60 DUP2 ADD SWAP1 PUSH1 0x40 ADD PUSH2 0x3B83 JUMP JUMPDEST PUSH1 0x2 DUP2 GT ISZERO PUSH2 0x2374 JUMPI PUSH2 0x2374 PUSH2 0x3932 JUMP JUMPDEST EQ JUMPDEST ISZERO PUSH2 0x2630 JUMPI DUP6 DUP6 DUP4 DUP2 DUP2 LT PUSH2 0x238D JUMPI PUSH2 0x238D PUSH2 0x3ACA JUMP JUMPDEST SWAP1 POP PUSH1 0x20 MUL DUP2 ADD SWAP1 PUSH2 0x239F SWAP2 SWAP1 PUSH2 0x3B19 JUMP JUMPDEST PUSH1 0x0 DUP11 DUP2 MSTORE PUSH1 0x1 DUP13 ADD PUSH1 0x20 MSTORE PUSH1 0x40 DUP2 KECCAK256 SWAP2 CALLDATALOAD SWAP2 PUSH1 0x2 ADD SWAP1 DUP9 DUP9 DUP7 DUP2 DUP2 LT PUSH2 0x23C8 JUMPI PUSH2 0x23C8 PUSH2 0x3ACA JUMP JUMPDEST SWAP1 POP PUSH1 0x20 MUL DUP2 ADD SWAP1 PUSH2 0x23DA SWAP2 SWAP1 PUSH2 0x3B19 JUMP JUMPDEST PUSH2 0x23E8 SWAP1 PUSH1 0x20 DUP2 ADD SWAP1 PUSH2 0x3B39 JUMP JUMPDEST DUP6 DUP2 DUP2 LT PUSH2 0x23F8 JUMPI PUSH2 0x23F8 PUSH2 0x3ACA JUMP JUMPDEST SWAP1 POP PUSH1 0x20 MUL ADD PUSH1 0x20 DUP2 ADD SWAP1 PUSH2 0x240D SWAP2 SWAP1 PUSH2 0x3BA4 JUMP JUMPDEST PUSH1 0x1 PUSH1 0x1 PUSH1 0xE0 SHL SUB NOT AND DUP2 MSTORE PUSH1 0x20 DUP2 ADD SWAP2 SWAP1 SWAP2 MSTORE PUSH1 0x40 ADD PUSH1 0x0 KECCAK256 SSTORE PUSH1 0x1 DUP7 DUP7 DUP5 DUP2 DUP2 LT PUSH2 0x243C JUMPI PUSH2 0x243C PUSH2 0x3ACA JUMP JUMPDEST SWAP1 POP PUSH1 0x20 MUL DUP2 ADD SWAP1 PUSH2 0x244E SWAP2 SWAP1 PUSH2 0x3B19 JUMP JUMPDEST PUSH2 0x245F SWAP1 PUSH1 0x60 DUP2 ADD SWAP1 PUSH1 0x40 ADD PUSH2 0x3B83 JUMP JUMPDEST PUSH1 0x2 DUP2 GT ISZERO PUSH2 0x2470 JUMPI PUSH2 0x2470 PUSH2 0x3932 JUMP JUMPDEST EQ PUSH2 0x247C JUMPI PUSH1 0x2 PUSH2 0x247F JUMP JUMPDEST PUSH1 0x1 JUMPDEST PUSH1 0x0 DUP11 DUP2 MSTORE PUSH1 0x1 DUP13 ADD PUSH1 0x20 MSTORE PUSH1 0x40 DUP2 KECCAK256 PUSH1 0x2 ADD SWAP1 DUP9 DUP9 DUP7 DUP2 DUP2 LT PUSH2 0x24A5 JUMPI PUSH2 0x24A5 PUSH2 0x3ACA JUMP JUMPDEST SWAP1 POP PUSH1 0x20 MUL DUP2 ADD SWAP1 PUSH2 0x24B7 SWAP2 SWAP1 PUSH2 0x3B19 JUMP JUMPDEST PUSH2 0x24C5 SWAP1 PUSH1 0x20 DUP2 ADD SWAP1 PUSH2 0x3B39 JUMP JUMPDEST DUP6 DUP2 DUP2 LT PUSH2 0x24D5 JUMPI PUSH2 0x24D5 PUSH2 0x3ACA JUMP JUMPDEST SWAP1 POP PUSH1 0x20 MUL ADD PUSH1 0x20 DUP2 ADD SWAP1 PUSH2 0x24EA SWAP2 SWAP1 PUSH2 0x3BA4 JUMP JUMPDEST PUSH1 0x1 PUSH1 0x1 PUSH1 0xE0 SHL SUB NOT AND DUP2 MSTORE PUSH1 0x20 DUP2 ADD SWAP2 SWAP1 SWAP2 MSTORE PUSH1 0x40 ADD PUSH1 0x0 KECCAK256 PUSH1 0x1 SWAP1 DUP2 ADD DUP1 SLOAD SWAP1 SWAP2 PUSH1 0xFF NOT SWAP1 SWAP2 AND SWAP1 DUP4 PUSH1 0x2 DUP2 GT ISZERO PUSH2 0x2526 JUMPI PUSH2 0x2526 PUSH2 0x3932 JUMP JUMPDEST MUL OR SWAP1 SSTORE POP PUSH2 0x25A8 DUP7 DUP7 DUP5 DUP2 DUP2 LT PUSH2 0x2540 JUMPI PUSH2 0x2540 PUSH2 0x3ACA JUMP JUMPDEST SWAP1 POP PUSH1 0x20 MUL DUP2 ADD SWAP1 PUSH2 0x2552 SWAP2 SWAP1 PUSH2 0x3B19 JUMP JUMPDEST PUSH2 0x2560 SWAP1 PUSH1 0x20 DUP2 ADD SWAP1 PUSH2 0x3B39 JUMP JUMPDEST DUP4 DUP2 DUP2 LT PUSH2 0x2570 JUMPI PUSH2 0x2570 PUSH2 0x3ACA JUMP JUMPDEST SWAP1 POP PUSH1 0x20 MUL ADD PUSH1 0x20 DUP2 ADD SWAP1 PUSH2 0x2585 SWAP2 SWAP1 PUSH2 0x3BA4 JUMP JUMPDEST PUSH1 0x0 DUP12 DUP2 MSTORE PUSH1 0x1 DUP14 ADD PUSH1 0x20 MSTORE PUSH1 0x40 SWAP1 KECCAK256 PUSH1 0x3 ADD SWAP1 PUSH1 0x1 PUSH1 0x1 PUSH1 0xE0 SHL SUB NOT AND PUSH2 0x2BF5 JUMP JUMPDEST PUSH2 0x262B JUMPI PUSH2 0x2629 DUP7 DUP7 DUP5 DUP2 DUP2 LT PUSH2 0x25C1 JUMPI PUSH2 0x25C1 PUSH2 0x3ACA JUMP JUMPDEST SWAP1 POP PUSH1 0x20 MUL DUP2 ADD SWAP1 PUSH2 0x25D3 SWAP2 SWAP1 PUSH2 0x3B19 JUMP JUMPDEST PUSH2 0x25E1 SWAP1 PUSH1 0x20 DUP2 ADD SWAP1 PUSH2 0x3B39 JUMP JUMPDEST DUP4 DUP2 DUP2 LT PUSH2 0x25F1 JUMPI PUSH2 0x25F1 PUSH2 0x3ACA JUMP JUMPDEST SWAP1 POP PUSH1 0x20 MUL ADD PUSH1 0x20 DUP2 ADD SWAP1 PUSH2 0x2606 SWAP2 SWAP1 PUSH2 0x3BA4 JUMP JUMPDEST PUSH1 0x0 DUP12 DUP2 MSTORE PUSH1 0x1 DUP14 ADD PUSH1 0x20 MSTORE PUSH1 0x40 SWAP1 KECCAK256 PUSH1 0x3 ADD SWAP1 PUSH1 0x1 PUSH1 0x1 PUSH1 0xE0 SHL SUB NOT AND PUSH2 0x2BD6 JUMP JUMPDEST POP JUMPDEST PUSH2 0x27C8 JUMP JUMPDEST PUSH1 0x0 DUP10 DUP2 MSTORE PUSH1 0x1 DUP12 ADD PUSH1 0x20 MSTORE PUSH1 0x40 DUP2 KECCAK256 PUSH1 0x2 ADD SWAP1 DUP8 DUP8 DUP6 DUP2 DUP2 LT PUSH2 0x2656 JUMPI PUSH2 0x2656 PUSH2 0x3ACA JUMP JUMPDEST SWAP1 POP PUSH1 0x20 MUL DUP2 ADD SWAP1 PUSH2 0x2668 SWAP2 SWAP1 PUSH2 0x3B19 JUMP JUMPDEST PUSH2 0x2676 SWAP1 PUSH1 0x20 DUP2 ADD SWAP1 PUSH2 0x3B39 JUMP JUMPDEST DUP5 DUP2 DUP2 LT PUSH2 0x2686 JUMPI PUSH2 0x2686 PUSH2 0x3ACA JUMP JUMPDEST SWAP1 POP PUSH1 0x20 MUL ADD PUSH1 0x20 DUP2 ADD SWAP1 PUSH2 0x269B SWAP2 SWAP1 PUSH2 0x3BA4 JUMP JUMPDEST PUSH1 0x1 PUSH1 0x1 PUSH1 0xE0 SHL SUB NOT AND DUP2 MSTORE PUSH1 0x20 DUP1 DUP3 ADD SWAP3 SWAP1 SWAP3 MSTORE PUSH1 0x40 SWAP1 DUP2 ADD PUSH1 0x0 SWAP1 DUP2 KECCAK256 DUP2 SWAP1 SSTORE DUP12 DUP2 MSTORE PUSH1 0x1 DUP14 ADD SWAP1 SWAP3 MSTORE DUP2 KECCAK256 PUSH1 0x2 ADD SWAP1 DUP8 DUP8 DUP6 DUP2 DUP2 LT PUSH2 0x26DF JUMPI PUSH2 0x26DF PUSH2 0x3ACA JUMP JUMPDEST SWAP1 POP PUSH1 0x20 MUL DUP2 ADD SWAP1 PUSH2 0x26F1 SWAP2 SWAP1 PUSH2 0x3B19 JUMP JUMPDEST PUSH2 0x26FF SWAP1 PUSH1 0x20 DUP2 ADD SWAP1 PUSH2 0x3B39 JUMP JUMPDEST DUP5 DUP2 DUP2 LT PUSH2 0x270F JUMPI PUSH2 0x270F PUSH2 0x3ACA JUMP JUMPDEST SWAP1 POP PUSH1 0x20 MUL ADD PUSH1 0x20 DUP2 ADD SWAP1 PUSH2 0x2724 SWAP2 SWAP1 PUSH2 0x3BA4 JUMP JUMPDEST PUSH1 0x1 PUSH1 0x1 PUSH1 0xE0 SHL SUB NOT AND DUP2 MSTORE PUSH1 0x20 DUP2 ADD SWAP2 SWAP1 SWAP2 MSTORE PUSH1 0x40 ADD PUSH1 0x0 KECCAK256 PUSH1 0x1 ADD DUP1 SLOAD PUSH1 0xFF NOT AND SWAP1 SSTORE PUSH2 0x27C6 DUP7 DUP7 DUP5 DUP2 DUP2 LT PUSH2 0x275E JUMPI PUSH2 0x275E PUSH2 0x3ACA JUMP JUMPDEST SWAP1 POP PUSH1 0x20 MUL DUP2 ADD SWAP1 PUSH2 0x2770 SWAP2 SWAP1 PUSH2 0x3B19 JUMP JUMPDEST PUSH2 0x277E SWAP1 PUSH1 0x20 DUP2 ADD SWAP1 PUSH2 0x3B39 JUMP JUMPDEST DUP4 DUP2 DUP2 LT PUSH2 0x278E JUMPI PUSH2 0x278E PUSH2 0x3ACA JUMP JUMPDEST SWAP1 POP PUSH1 0x20 MUL ADD PUSH1 0x20 DUP2 ADD SWAP1 PUSH2 0x27A3 SWAP2 SWAP1 PUSH2 0x3BA4 JUMP JUMPDEST PUSH1 0x0 DUP12 DUP2 MSTORE PUSH1 0x1 DUP14 ADD PUSH1 0x20 MSTORE PUSH1 0x40 SWAP1 KECCAK256 PUSH1 0x3 ADD SWAP1 PUSH1 0x1 PUSH1 0x1 PUSH1 0xE0 SHL SUB NOT AND PUSH2 0x2BE9 JUMP JUMPDEST POP JUMPDEST DUP1 PUSH2 0x27D2 DUP2 PUSH2 0x3BBF JUMP JUMPDEST SWAP2 POP POP PUSH2 0x22A2 JUMP JUMPDEST POP DUP1 PUSH2 0x27E5 DUP2 PUSH2 0x3BBF JUMP JUMPDEST SWAP2 POP POP PUSH2 0x2230 JUMP JUMPDEST POP SWAP8 SWAP7 POP POP POP POP POP POP POP JUMP JUMPDEST PUSH1 0x0 DUP5 DUP2 MSTORE PUSH1 0x3 DUP8 ADD PUSH1 0x20 MSTORE PUSH1 0x40 DUP2 KECCAK256 DUP1 SLOAD PUSH2 0x2814 SWAP1 PUSH2 0x39F5 JUMP JUMPDEST SWAP1 POP PUSH1 0x0 SUB PUSH2 0x2835 JUMPI PUSH1 0x40 MLOAD PUSH3 0x461BCD PUSH1 0xE5 SHL DUP2 MSTORE PUSH1 0x4 ADD PUSH2 0x47D SWAP1 PUSH2 0x3A29 JUMP JUMPDEST PUSH1 0x0 PUSH2 0x2840 DUP8 PUSH2 0x2093 JUMP JUMPDEST PUSH1 0x0 DUP2 DUP2 MSTORE PUSH1 0x1 DUP1 DUP12 ADD PUSH1 0x20 MSTORE PUSH1 0x40 SWAP1 SWAP2 KECCAK256 ADD SLOAD SWAP1 SWAP2 POP PUSH1 0x1 PUSH1 0x1 PUSH1 0xA0 SHL SUB AND ISZERO PUSH2 0x28AD JUMPI PUSH1 0x40 MLOAD PUSH3 0x461BCD PUSH1 0xE5 SHL DUP2 MSTORE PUSH1 0x20 PUSH1 0x4 DUP3 ADD MSTORE PUSH1 0x1A PUSH1 0x24 DUP3 ADD MSTORE PUSH32 0x436F6E7465787420416C72656164792052656769737465726564000000000000 PUSH1 0x44 DUP3 ADD MSTORE PUSH1 0x64 ADD PUSH2 0x47D JUMP JUMPDEST PUSH1 0x0 DUP7 DUP2 MSTORE PUSH1 0x3 DUP10 ADD PUSH1 0x20 MSTORE PUSH1 0x40 SWAP1 KECCAK256 PUSH2 0x28CA SWAP1 PUSH1 0x2 ADD DUP3 PUSH2 0x2BD6 JUMP JUMPDEST POP PUSH1 0x0 DUP2 DUP2 MSTORE PUSH1 0x1 DUP1 DUP11 ADD PUSH1 0x20 MSTORE PUSH1 0x40 DUP3 KECCAK256 DUP9 DUP2 SSTORE SWAP1 DUP2 ADD DUP1 SLOAD DUP9 ISZERO ISZERO PUSH1 0x1 PUSH1 0xA0 SHL MUL PUSH1 0x1 PUSH1 0x1 PUSH1 0xA8 SHL SUB NOT SWAP1 SWAP2 AND PUSH1 0x1 PUSH1 0x1 PUSH1 0xA0 SHL SUB DUP13 AND OR OR SWAP1 SSTORE SWAP1 JUMPDEST DUP5 DUP2 LT ISZERO PUSH2 0x2BC8 JUMPI DUP10 PUSH1 0x2 ADD PUSH1 0x0 DUP8 DUP8 DUP5 DUP2 DUP2 LT PUSH2 0x2929 JUMPI PUSH2 0x2929 PUSH2 0x3ACA JUMP JUMPDEST SWAP1 POP PUSH1 0x20 MUL DUP2 ADD SWAP1 PUSH2 0x293B SWAP2 SWAP1 PUSH2 0x3B19 JUMP JUMPDEST CALLDATALOAD DUP2 MSTORE PUSH1 0x20 DUP2 ADD SWAP2 SWAP1 SWAP2 MSTORE PUSH1 0x40 ADD PUSH1 0x0 KECCAK256 DUP1 SLOAD PUSH2 0x2957 SWAP1 PUSH2 0x39F5 JUMP JUMPDEST SWAP1 POP PUSH1 0x0 SUB PUSH2 0x2978 JUMPI PUSH1 0x40 MLOAD PUSH3 0x461BCD PUSH1 0xE5 SHL DUP2 MSTORE PUSH1 0x4 ADD PUSH2 0x47D SWAP1 PUSH2 0x3A52 JUMP JUMPDEST PUSH1 0x0 JUMPDEST DUP7 DUP7 DUP4 DUP2 DUP2 LT PUSH2 0x298D JUMPI PUSH2 0x298D PUSH2 0x3ACA JUMP JUMPDEST SWAP1 POP PUSH1 0x20 MUL DUP2 ADD SWAP1 PUSH2 0x299F SWAP2 SWAP1 PUSH2 0x3B19 JUMP JUMPDEST PUSH2 0x29AD SWAP1 PUSH1 0x20 DUP2 ADD SWAP1 PUSH2 0x3B39 JUMP JUMPDEST SWAP1 POP DUP2 LT ISZERO PUSH2 0x2BB5 JUMPI DUP7 DUP7 DUP4 DUP2 DUP2 LT PUSH2 0x29C8 JUMPI PUSH2 0x29C8 PUSH2 0x3ACA JUMP JUMPDEST SWAP1 POP PUSH1 0x20 MUL DUP2 ADD SWAP1 PUSH2 0x29DA SWAP2 SWAP1 PUSH2 0x3B19 JUMP JUMPDEST CALLDATALOAD PUSH1 0x2 DUP5 ADD PUSH1 0x0 DUP10 DUP10 DUP7 DUP2 DUP2 LT PUSH2 0x29F3 JUMPI PUSH2 0x29F3 PUSH2 0x3ACA JUMP JUMPDEST SWAP1 POP PUSH1 0x20 MUL DUP2 ADD SWAP1 PUSH2 0x2A05 SWAP2 SWAP1 PUSH2 0x3B19 JUMP JUMPDEST PUSH2 0x2A13 SWAP1 PUSH1 0x20 DUP2 ADD SWAP1 PUSH2 0x3B39 JUMP JUMPDEST DUP6 DUP2 DUP2 LT PUSH2 0x2A23 JUMPI PUSH2 0x2A23 PUSH2 0x3ACA JUMP JUMPDEST SWAP1 POP PUSH1 0x20 MUL ADD PUSH1 0x20 DUP2 ADD SWAP1 PUSH2 0x2A38 SWAP2 SWAP1 PUSH2 0x3BA4 JUMP JUMPDEST PUSH1 0x1 PUSH1 0x1 PUSH1 0xE0 SHL SUB NOT AND DUP2 MSTORE PUSH1 0x20 DUP2 ADD SWAP2 SWAP1 SWAP2 MSTORE PUSH1 0x40 ADD PUSH1 0x0 KECCAK256 SSTORE DUP7 DUP7 DUP4 DUP2 DUP2 LT PUSH2 0x2A65 JUMPI PUSH2 0x2A65 PUSH2 0x3ACA JUMP JUMPDEST SWAP1 POP PUSH1 0x20 MUL DUP2 ADD SWAP1 PUSH2 0x2A77 SWAP2 SWAP1 PUSH2 0x3B19 JUMP JUMPDEST PUSH2 0x2A88 SWAP1 PUSH1 0x60 DUP2 ADD SWAP1 PUSH1 0x40 ADD PUSH2 0x39AD JUMP JUMPDEST PUSH2 0x2A93 JUMPI PUSH1 0x2 PUSH2 0x2A96 JUMP JUMPDEST PUSH1 0x1 JUMPDEST DUP4 PUSH1 0x2 ADD PUSH1 0x0 DUP10 DUP10 DUP7 DUP2 DUP2 LT PUSH2 0x2AAE JUMPI PUSH2 0x2AAE PUSH2 0x3ACA JUMP JUMPDEST SWAP1 POP PUSH1 0x20 MUL DUP2 ADD SWAP1 PUSH2 0x2AC0 SWAP2 SWAP1 PUSH2 0x3B19 JUMP JUMPDEST PUSH2 0x2ACE SWAP1 PUSH1 0x20 DUP2 ADD SWAP1 PUSH2 0x3B39 JUMP JUMPDEST DUP6 DUP2 DUP2 LT PUSH2 0x2ADE JUMPI PUSH2 0x2ADE PUSH2 0x3ACA JUMP JUMPDEST SWAP1 POP PUSH1 0x20 MUL ADD PUSH1 0x20 DUP2 ADD SWAP1 PUSH2 0x2AF3 SWAP2 SWAP1 PUSH2 0x3BA4 JUMP JUMPDEST PUSH1 0x1 PUSH1 0x1 PUSH1 0xE0 SHL SUB NOT AND DUP2 MSTORE PUSH1 0x20 DUP2 ADD SWAP2 SWAP1 SWAP2 MSTORE PUSH1 0x40 ADD PUSH1 0x0 KECCAK256 PUSH1 0x1 SWAP1 DUP2 ADD DUP1 SLOAD SWAP1 SWAP2 PUSH1 0xFF NOT SWAP1 SWAP2 AND SWAP1 DUP4 PUSH1 0x2 DUP2 GT ISZERO PUSH2 0x2B2F JUMPI PUSH2 0x2B2F PUSH2 0x3932 JUMP JUMPDEST MUL OR SWAP1 SSTORE POP PUSH2 0x2BA2 DUP8 DUP8 DUP5 DUP2 DUP2 LT PUSH2 0x2B49 JUMPI PUSH2 0x2B49 PUSH2 0x3ACA JUMP JUMPDEST SWAP1 POP PUSH1 0x20 MUL DUP2 ADD SWAP1 PUSH2 0x2B5B SWAP2 SWAP1 PUSH2 0x3B19 JUMP JUMPDEST PUSH2 0x2B69 SWAP1 PUSH1 0x20 DUP2 ADD SWAP1 PUSH2 0x3B39 JUMP JUMPDEST DUP4 DUP2 DUP2 LT PUSH2 0x2B79 JUMPI PUSH2 0x2B79 PUSH2 0x3ACA JUMP JUMPDEST SWAP1 POP PUSH1 0x20 MUL ADD PUSH1 0x20 DUP2 ADD SWAP1 PUSH2 0x2B8E SWAP2 SWAP1 PUSH2 0x3BA4 JUMP JUMPDEST PUSH1 0x3 DUP6 ADD SWAP1 PUSH1 0x1 PUSH1 0x1 PUSH1 0xE0 SHL SUB NOT AND PUSH2 0x2BD6 JUMP JUMPDEST POP DUP1 PUSH2 0x2BAD DUP2 PUSH2 0x3BBF JUMP JUMPDEST SWAP2 POP POP PUSH2 0x297B JUMP JUMPDEST POP DUP1 PUSH2 0x2BC0 DUP2 PUSH2 0x3BBF JUMP JUMPDEST SWAP2 POP POP PUSH2 0x2909 JUMP JUMPDEST POP SWAP1 SWAP9 SWAP8 POP POP POP POP POP POP POP POP JUMP JUMPDEST PUSH1 0x0 PUSH2 0x2BE2 DUP4 DUP4 PUSH2 0x329B JUMP JUMPDEST SWAP4 SWAP3 POP POP POP JUMP JUMPDEST PUSH1 0x0 PUSH2 0x2BE2 DUP4 DUP4 PUSH2 0x32EA JUMP JUMPDEST PUSH1 0x0 DUP2 DUP2 MSTORE PUSH1 0x1 DUP4 ADD PUSH1 0x20 MSTORE PUSH1 0x40 DUP2 KECCAK256 SLOAD ISZERO ISZERO PUSH2 0x2BE2 JUMP JUMPDEST PUSH1 0x40 DUP1 DUP3 ADD CALLDATALOAD PUSH1 0x0 SWAP1 DUP2 MSTORE PUSH1 0x3 DUP7 ADD PUSH1 0x20 MSTORE SWAP1 DUP2 KECCAK256 DUP1 SLOAD PUSH2 0x2C2D SWAP1 PUSH2 0x39F5 JUMP JUMPDEST SWAP1 POP PUSH1 0x0 SUB PUSH2 0x2C4E JUMPI PUSH1 0x40 MLOAD PUSH3 0x461BCD PUSH1 0xE5 SHL DUP2 MSTORE PUSH1 0x4 ADD PUSH2 0x47D SWAP1 PUSH2 0x3A29 JUMP JUMPDEST PUSH1 0x0 PUSH1 0x1 PUSH1 0x1 PUSH1 0xF8 SHL SUB NOT PUSH2 0x2C69 PUSH1 0xC0 DUP6 ADD PUSH1 0xA0 DUP7 ADD PUSH2 0x3917 JUMP JUMPDEST PUSH1 0x40 MLOAD PUSH1 0x1 PUSH1 0x1 PUSH1 0xF8 SHL SUB NOT SWAP1 SWAP3 AND PUSH1 0x20 DUP4 ADD MSTORE PUSH12 0xFFFFFFFFFFFFFFFFFFFFFFFF NOT PUSH1 0x60 SWAP2 DUP3 SHL AND PUSH1 0x21 DUP4 ADD MSTORE DUP5 ADD CALLDATALOAD PUSH1 0x35 DUP3 ADD MSTORE PUSH1 0x80 DUP5 ADD CALLDATALOAD PUSH1 0x55 DUP3 ADD MSTORE PUSH1 0x75 ADD PUSH1 0x40 MLOAD PUSH1 0x20 DUP2 DUP4 SUB SUB DUP2 MSTORE SWAP1 PUSH1 0x40 MSTORE DUP1 MLOAD SWAP1 PUSH1 0x20 ADD KECCAK256 PUSH1 0x0 SHR SWAP1 POP PUSH1 0x0 PUSH2 0x2CD1 DUP3 PUSH2 0x2093 JUMP JUMPDEST PUSH1 0x0 DUP2 DUP2 MSTORE PUSH1 0x1 DUP1 DUP11 ADD PUSH1 0x20 MSTORE PUSH1 0x40 SWAP1 SWAP2 KECCAK256 ADD SLOAD SWAP1 SWAP2 POP PUSH1 0x1 PUSH1 0x1 PUSH1 0xA0 SHL SUB AND ISZERO PUSH2 0x2D3E JUMPI PUSH1 0x40 MLOAD PUSH3 0x461BCD PUSH1 0xE5 SHL DUP2 MSTORE PUSH1 0x20 PUSH1 0x4 DUP3 ADD MSTORE PUSH1 0x1A PUSH1 0x24 DUP3 ADD MSTORE PUSH32 0x436F6E7465787420416C72656164792052656769737465726564000000000000 PUSH1 0x44 DUP3 ADD MSTORE PUSH1 0x64 ADD PUSH2 0x47D JUMP JUMPDEST PUSH1 0x40 DUP1 DUP6 ADD CALLDATALOAD PUSH1 0x0 SWAP1 DUP2 MSTORE PUSH1 0x3 DUP10 ADD PUSH1 0x20 MSTORE KECCAK256 PUSH2 0x2D5E SWAP1 PUSH1 0x2 ADD DUP3 PUSH2 0x2BD6 JUMP JUMPDEST POP PUSH1 0x0 DUP2 DUP2 MSTORE PUSH1 0x1 DUP9 DUP2 ADD PUSH1 0x20 MSTORE PUSH1 0x40 SWAP2 DUP3 SWAP1 KECCAK256 SWAP2 DUP7 ADD CALLDATALOAD DUP3 SSTORE DUP2 ADD DUP1 SLOAD PUSH1 0x1 PUSH1 0x1 PUSH1 0xA0 SHL SUB NOT AND PUSH1 0x1 PUSH1 0x1 PUSH1 0xA0 SHL SUB DUP6 AND OR SWAP1 SSTORE PUSH2 0x2DA3 PUSH1 0xE0 DUP7 ADD PUSH1 0xC0 DUP8 ADD PUSH2 0x39AD JUMP JUMPDEST PUSH1 0x1 DUP3 ADD DUP1 SLOAD SWAP2 ISZERO ISZERO PUSH1 0x1 PUSH1 0xA0 SHL MUL PUSH1 0xFF PUSH1 0xA0 SHL NOT SWAP1 SWAP3 AND SWAP2 SWAP1 SWAP2 OR SWAP1 SSTORE PUSH1 0x0 JUMPDEST DUP7 DUP2 LT ISZERO PUSH2 0x302A JUMPI DUP9 PUSH1 0x2 ADD PUSH1 0x0 DUP10 DUP10 DUP5 DUP2 DUP2 LT PUSH2 0x2DE4 JUMPI PUSH2 0x2DE4 PUSH2 0x3ACA JUMP JUMPDEST SWAP1 POP PUSH1 0x20 MUL DUP2 ADD SWAP1 PUSH2 0x2DF6 SWAP2 SWAP1 PUSH2 0x3B19 JUMP JUMPDEST CALLDATALOAD DUP2 MSTORE PUSH1 0x20 DUP2 ADD SWAP2 SWAP1 SWAP2 MSTORE PUSH1 0x40 ADD PUSH1 0x0 KECCAK256 DUP1 SLOAD PUSH2 0x2E12 SWAP1 PUSH2 0x39F5 JUMP JUMPDEST SWAP1 POP PUSH1 0x0 SUB PUSH2 0x2E33 JUMPI PUSH1 0x40 MLOAD PUSH3 0x461BCD PUSH1 0xE5 SHL DUP2 MSTORE PUSH1 0x4 ADD PUSH2 0x47D SWAP1 PUSH2 0x3A52 JUMP JUMPDEST PUSH1 0x0 JUMPDEST DUP9 DUP9 DUP4 DUP2 DUP2 LT PUSH2 0x2E48 JUMPI PUSH2 0x2E48 PUSH2 0x3ACA JUMP JUMPDEST SWAP1 POP PUSH1 0x20 MUL DUP2 ADD SWAP1 PUSH2 0x2E5A SWAP2 SWAP1 PUSH2 0x3B19 JUMP JUMPDEST PUSH2 0x2E68 SWAP1 PUSH1 0x20 DUP2 ADD SWAP1 PUSH2 0x3B39 JUMP JUMPDEST SWAP1 POP DUP2 LT ISZERO PUSH2 0x3017 JUMPI DUP9 DUP9 DUP4 DUP2 DUP2 LT PUSH2 0x2E83 JUMPI PUSH2 0x2E83 PUSH2 0x3ACA JUMP JUMPDEST SWAP1 POP PUSH1 0x20 MUL DUP2 ADD SWAP1 PUSH2 0x2E95 SWAP2 SWAP1 PUSH2 0x3B19 JUMP JUMPDEST CALLDATALOAD PUSH1 0x2 DUP5 ADD PUSH1 0x0 DUP12 DUP12 DUP7 DUP2 DUP2 LT PUSH2 0x2EAE JUMPI PUSH2 0x2EAE PUSH2 0x3ACA JUMP JUMPDEST SWAP1 POP PUSH1 0x20 MUL DUP2 ADD SWAP1 PUSH2 0x2EC0 SWAP2 SWAP1 PUSH2 0x3B19 JUMP JUMPDEST PUSH2 0x2ECE SWAP1 PUSH1 0x20 DUP2 ADD SWAP1 PUSH2 0x3B39 JUMP JUMPDEST DUP6 DUP2 DUP2 LT PUSH2 0x2EDE JUMPI PUSH2 0x2EDE PUSH2 0x3ACA JUMP JUMPDEST SWAP1 POP PUSH1 0x20 MUL ADD PUSH1 0x20 DUP2 ADD SWAP1 PUSH2 0x2EF3 SWAP2 SWAP1 PUSH2 0x3BA4 JUMP JUMPDEST PUSH1 0x1 PUSH1 0x1 PUSH1 0xE0 SHL SUB NOT AND DUP2 MSTORE PUSH1 0x20 DUP2 ADD SWAP2 SWAP1 SWAP2 MSTORE PUSH1 0x40 ADD PUSH1 0x0 KECCAK256 SSTORE DUP9 DUP9 DUP4 DUP2 DUP2 LT PUSH2 0x2F20 JUMPI PUSH2 0x2F20 PUSH2 0x3ACA JUMP JUMPDEST SWAP1 POP PUSH1 0x20 MUL DUP2 ADD SWAP1 PUSH2 0x2F32 SWAP2 SWAP1 PUSH2 0x3B19 JUMP JUMPDEST PUSH2 0x2F43 SWAP1 PUSH1 0x60 DUP2 ADD SWAP1 PUSH1 0x40 ADD PUSH2 0x39AD JUMP JUMPDEST PUSH2 0x2F4E JUMPI PUSH1 0x2 PUSH2 0x2F51 JUMP JUMPDEST PUSH1 0x1 JUMPDEST DUP4 PUSH1 0x2 ADD PUSH1 0x0 DUP12 DUP12 DUP7 DUP2 DUP2 LT PUSH2 0x2F69 JUMPI PUSH2 0x2F69 PUSH2 0x3ACA JUMP JUMPDEST SWAP1 POP PUSH1 0x20 MUL DUP2 ADD SWAP1 PUSH2 0x2F7B SWAP2 SWAP1 PUSH2 0x3B19 JUMP JUMPDEST PUSH2 0x2F89 SWAP1 PUSH1 0x20 DUP2 ADD SWAP1 PUSH2 0x3B39 JUMP JUMPDEST DUP6 DUP2 DUP2 LT PUSH2 0x2F99 JUMPI PUSH2 0x2F99 PUSH2 0x3ACA JUMP JUMPDEST SWAP1 POP PUSH1 0x20 MUL ADD PUSH1 0x20 DUP2 ADD SWAP1 PUSH2 0x2FAE SWAP2 SWAP1 PUSH2 0x3BA4 JUMP JUMPDEST PUSH1 0x1 PUSH1 0x1 PUSH1 0xE0 SHL SUB NOT AND DUP2 MSTORE PUSH1 0x20 DUP2 ADD SWAP2 SWAP1 SWAP2 MSTORE PUSH1 0x40 ADD PUSH1 0x0 KECCAK256 PUSH1 0x1 SWAP1 DUP2 ADD DUP1 SLOAD SWAP1 SWAP2 PUSH1 0xFF NOT SWAP1 SWAP2 AND SWAP1 DUP4 PUSH1 0x2 DUP2 GT ISZERO PUSH2 0x2FEA JUMPI PUSH2 0x2FEA PUSH2 0x3932 JUMP JUMPDEST MUL OR SWAP1 SSTORE POP PUSH2 0x3004 DUP10 DUP10 DUP5 DUP2 DUP2 LT PUSH2 0x2B49 JUMPI PUSH2 0x2B49 PUSH2 0x3ACA JUMP JUMPDEST POP DUP1 PUSH2 0x300F DUP2 PUSH2 0x3BBF JUMP JUMPDEST SWAP2 POP POP PUSH2 0x2E36 JUMP JUMPDEST POP DUP1 PUSH2 0x3022 DUP2 PUSH2 0x3BBF JUMP JUMPDEST SWAP2 POP POP PUSH2 0x2DC4 JUMP JUMPDEST POP SWAP1 SWAP8 SWAP7 POP POP POP POP POP POP POP JUMP JUMPDEST PUSH1 0x0 PUSH2 0x198E DUP3 SLOAD SWAP1 JUMP JUMPDEST PUSH1 0x0 PUSH2 0x2BE2 DUP4 DUP4 PUSH2 0x33DD JUMP JUMPDEST PUSH1 0x0 PUSH32 0x8B73C3C69BB8FE3D512ECC4CF759CC79239F7B179B0FFACAA9A75D522B39400F ADDRESS PUSH1 0x1 PUSH1 0x1 PUSH1 0xA0 SHL SUB AND PUSH4 0x75D0C0DC PUSH1 0x40 MLOAD DUP2 PUSH4 0xFFFFFFFF AND PUSH1 0xE0 SHL DUP2 MSTORE PUSH1 0x4 ADD PUSH1 0x20 PUSH1 0x40 MLOAD DUP1 DUP4 SUB DUP2 DUP7 GAS STATICCALL ISZERO DUP1 ISZERO PUSH2 0x30AE JUMPI RETURNDATASIZE PUSH1 0x0 DUP1 RETURNDATACOPY RETURNDATASIZE PUSH1 0x0 REVERT JUMPDEST POP POP POP POP PUSH1 0x40 MLOAD RETURNDATASIZE PUSH1 0x1F NOT PUSH1 0x1F DUP3 ADD AND DUP3 ADD DUP1 PUSH1 0x40 MSTORE POP DUP2 ADD SWAP1 PUSH2 0x30D2 SWAP2 SWAP1 PUSH2 0x3AB1 JUMP JUMPDEST ADDRESS PUSH1 0x1 PUSH1 0x1 PUSH1 0xA0 SHL SUB AND PUSH4 0xA0A8E460 PUSH1 0x40 MLOAD DUP2 PUSH4 0xFFFFFFFF AND PUSH1 0xE0 SHL DUP2 MSTORE PUSH1 0x4 ADD PUSH1 0x20 PUSH1 0x40 MLOAD DUP1 DUP4 SUB DUP2 DUP7 GAS STATICCALL ISZERO DUP1 ISZERO PUSH2 0x3110 JUMPI RETURNDATASIZE PUSH1 0x0 DUP1 RETURNDATACOPY RETURNDATASIZE PUSH1 0x0 REVERT JUMPDEST POP POP POP POP PUSH1 0x40 MLOAD RETURNDATASIZE PUSH1 0x1F NOT PUSH1 0x1F DUP3 ADD AND DUP3 ADD DUP1 PUSH1 0x40 MSTORE POP DUP2 ADD SWAP1 PUSH2 0x3134 SWAP2 SWAP1 PUSH2 0x3AB1 JUMP JUMPDEST PUSH1 0x40 DUP1 MLOAD PUSH1 0x20 DUP2 ADD SWAP5 SWAP1 SWAP5 MSTORE DUP4 ADD SWAP2 SWAP1 SWAP2 MSTORE PUSH1 0x60 DUP3 ADD MSTORE CHAINID PUSH1 0x80 DUP3 ADD MSTORE ADDRESS PUSH1 0xA0 DUP3 ADD MSTORE PUSH1 0xC0 ADD PUSH1 0x40 MLOAD PUSH1 0x20 DUP2 DUP4 SUB SUB DUP2 MSTORE SWAP1 PUSH1 0x40 MSTORE DUP1 MLOAD SWAP1 PUSH1 0x20 ADD KECCAK256 SWAP1 POP SWAP1 JUMP JUMPDEST PUSH1 0x0 DUP1 PUSH32 0x7FFFFFFFFFFFFFFFFFFFFFFFFFFFFFFF5D576E7357A4501DDFE92F46681B20A0 DUP4 GT ISZERO PUSH2 0x31AC JUMPI POP PUSH1 0x0 SWAP1 POP PUSH1 0x3 PUSH2 0x3259 JUMP JUMPDEST DUP5 PUSH1 0xFF AND PUSH1 0x1B EQ ISZERO DUP1 ISZERO PUSH2 0x31C4 JUMPI POP DUP5 PUSH1 0xFF AND PUSH1 0x1C EQ ISZERO JUMPDEST ISZERO PUSH2 0x31D5 JUMPI POP PUSH1 0x0 SWAP1 POP PUSH1 0x4 PUSH2 0x3259 JUMP JUMPDEST PUSH1 0x40 DUP1 MLOAD PUSH1 0x0 DUP1 DUP3 MSTORE PUSH1 0x20 DUP3 ADD DUP1 DUP5 MSTORE DUP10 SWAP1 MSTORE PUSH1 0xFF DUP9 AND SWAP3 DUP3 ADD SWAP3 SWAP1 SWAP3 MSTORE PUSH1 0x60 DUP2 ADD DUP7 SWAP1 MSTORE PUSH1 0x80 DUP2 ADD DUP6 SWAP1 MSTORE PUSH1 0x1 SWAP1 PUSH1 0xA0 ADD PUSH1 0x20 PUSH1 0x40 MLOAD PUSH1 0x20 DUP2 SUB SWAP1 DUP1 DUP5 SUB SWAP1 DUP6 GAS STATICCALL ISZERO DUP1 ISZERO PUSH2 0x3229 JUMPI RETURNDATASIZE PUSH1 0x0 DUP1 RETURNDATACOPY RETURNDATASIZE PUSH1 0x0 REVERT JUMPDEST POP POP PUSH1 0x40 MLOAD PUSH1 0x1F NOT ADD MLOAD SWAP2 POP POP PUSH1 0x1 PUSH1 0x1 PUSH1 0xA0 SHL SUB DUP2 AND PUSH2 0x3252 JUMPI PUSH1 0x0 PUSH1 0x1 SWAP3 POP SWAP3 POP POP PUSH2 0x3259 JUMP JUMPDEST SWAP2 POP PUSH1 0x0 SWAP1 POP JUMPDEST SWAP5 POP SWAP5 SWAP3 POP POP POP JUMP JUMPDEST PUSH1 0x0 DUP1 PUSH1 0x1 PUSH1 0x1 PUSH1 0xFF SHL SUB DUP4 AND DUP2 PUSH2 0x327F PUSH1 0xFF DUP7 SWAP1 SHR PUSH1 0x1B PUSH2 0x3BD8 JUMP JUMPDEST SWAP1 POP PUSH2 0x328D DUP8 DUP3 DUP9 DUP6 PUSH2 0x3175 JUMP JUMPDEST SWAP4 POP SWAP4 POP POP POP SWAP4 POP SWAP4 SWAP2 POP POP JUMP JUMPDEST PUSH1 0x0 DUP2 DUP2 MSTORE PUSH1 0x1 DUP4 ADD PUSH1 0x20 MSTORE PUSH1 0x40 DUP2 KECCAK256 SLOAD PUSH2 0x32E2 JUMPI POP DUP2 SLOAD PUSH1 0x1 DUP2 DUP2 ADD DUP5 SSTORE PUSH1 0x0 DUP5 DUP2 MSTORE PUSH1 0x20 DUP1 DUP3 KECCAK256 SWAP1 SWAP4 ADD DUP5 SWAP1 SSTORE DUP5 SLOAD DUP5 DUP3 MSTORE DUP3 DUP7 ADD SWAP1 SWAP4 MSTORE PUSH1 0x40 SWAP1 KECCAK256 SWAP2 SWAP1 SWAP2 SSTORE PUSH2 0x198E JUMP JUMPDEST POP PUSH1 0x0 PUSH2 0x198E JUMP JUMPDEST PUSH1 0x0 DUP2 DUP2 MSTORE PUSH1 0x1 DUP4 ADD PUSH1 0x20 MSTORE PUSH1 0x40 DUP2 KECCAK256 SLOAD DUP1 ISZERO PUSH2 0x33D3 JUMPI PUSH1 0x0 PUSH2 0x330E PUSH1 0x1 DUP4 PUSH2 0x3BEB JUMP JUMPDEST DUP6 SLOAD SWAP1 SWAP2 POP PUSH1 0x0 SWAP1 PUSH2 0x3322 SWAP1 PUSH1 0x1 SWAP1 PUSH2 0x3BEB JUMP JUMPDEST SWAP1 POP DUP2 DUP2 EQ PUSH2 0x3387 JUMPI PUSH1 0x0 DUP7 PUSH1 0x0 ADD DUP3 DUP2 SLOAD DUP2 LT PUSH2 0x3342 JUMPI PUSH2 0x3342 PUSH2 0x3ACA JUMP JUMPDEST SWAP1 PUSH1 0x0 MSTORE PUSH1 0x20 PUSH1 0x0 KECCAK256 ADD SLOAD SWAP1 POP DUP1 DUP8 PUSH1 0x0 ADD DUP5 DUP2 SLOAD DUP2 LT PUSH2 0x3365 JUMPI PUSH2 0x3365 PUSH2 0x3ACA JUMP JUMPDEST PUSH1 0x0 SWAP2 DUP3 MSTORE PUSH1 0x20 DUP1 DUP4 KECCAK256 SWAP1 SWAP2 ADD SWAP3 SWAP1 SWAP3 SSTORE SWAP2 DUP3 MSTORE PUSH1 0x1 DUP9 ADD SWAP1 MSTORE PUSH1 0x40 SWAP1 KECCAK256 DUP4 SWAP1 SSTORE JUMPDEST DUP6 SLOAD DUP7 SWAP1 DUP1 PUSH2 0x3398 JUMPI PUSH2 0x3398 PUSH2 0x3BFE JUMP JUMPDEST PUSH1 0x1 SWAP1 SUB DUP2 DUP2 SWAP1 PUSH1 0x0 MSTORE PUSH1 0x20 PUSH1 0x0 KECCAK256 ADD PUSH1 0x0 SWAP1 SSTORE SWAP1 SSTORE DUP6 PUSH1 0x1 ADD PUSH1 0x0 DUP7 DUP2 MSTORE PUSH1 0x20 ADD SWAP1 DUP2 MSTORE PUSH1 0x20 ADD PUSH1 0x0 KECCAK256 PUSH1 0x0 SWAP1 SSTORE PUSH1 0x1 SWAP4 POP POP POP POP PUSH2 0x198E JUMP JUMPDEST PUSH1 0x0 SWAP2 POP POP PUSH2 0x198E JUMP JUMPDEST PUSH1 0x0 DUP3 PUSH1 0x0 ADD DUP3 DUP2 SLOAD DUP2 LT PUSH2 0x33F4 JUMPI PUSH2 0x33F4 PUSH2 0x3ACA JUMP JUMPDEST SWAP1 PUSH1 0x0 MSTORE PUSH1 0x20 PUSH1 0x0 KECCAK256 ADD SLOAD SWAP1 POP SWAP3 SWAP2 POP POP JUMP JUMPDEST PUSH4 0x4E487B71 PUSH1 0xE0 SHL PUSH1 0x0 MSTORE PUSH1 0x41 PUSH1 0x4 MSTORE PUSH1 0x24 PUSH1 0x0 REVERT JUMPDEST PUSH1 0x0 DUP3 PUSH1 0x1F DUP4 ADD SLT PUSH2 0x342E JUMPI PUSH1 0x0 DUP1 REVERT JUMPDEST DUP2 CALLDATALOAD PUSH8 0xFFFFFFFFFFFFFFFF DUP1 DUP3 GT ISZERO PUSH2 0x3449 JUMPI PUSH2 0x3449 PUSH2 0x3407 JUMP JUMPDEST PUSH1 0x40 MLOAD PUSH1 0x1F DUP4 ADD PUSH1 0x1F NOT SWAP1 DUP2 AND PUSH1 0x3F ADD AND DUP2 ADD SWAP1 DUP3 DUP3 GT DUP2 DUP4 LT OR ISZERO PUSH2 0x3471 JUMPI PUSH2 0x3471 PUSH2 0x3407 JUMP JUMPDEST DUP2 PUSH1 0x40 MSTORE DUP4 DUP2 MSTORE DUP7 PUSH1 0x20 DUP6 DUP9 ADD ADD GT ISZERO PUSH2 0x348A JUMPI PUSH1 0x0 DUP1 REVERT JUMPDEST DUP4 PUSH1 0x20 DUP8 ADD PUSH1 0x20 DUP4 ADD CALLDATACOPY PUSH1 0x0 PUSH1 0x20 DUP6 DUP4 ADD ADD MSTORE DUP1 SWAP5 POP POP POP POP POP SWAP3 SWAP2 POP POP JUMP JUMPDEST PUSH1 0x0 PUSH1 0xA0 DUP3 DUP5 SUB SLT ISZERO PUSH2 0x34BC JUMPI PUSH1 0x0 DUP1 REVERT JUMPDEST POP SWAP2 SWAP1 POP JUMP JUMPDEST PUSH1 0x0 DUP1 DUP4 PUSH1 0x1F DUP5 ADD SLT PUSH2 0x34D4 JUMPI PUSH1 0x0 DUP1 REVERT JUMPDEST POP DUP2 CALLDATALOAD PUSH8 0xFFFFFFFFFFFFFFFF DUP2 GT ISZERO PUSH2 0x34EC JUMPI PUSH1 0x0 DUP1 REVERT JUMPDEST PUSH1 0x20 DUP4 ADD SWAP2 POP DUP4 PUSH1 0x20 DUP3 PUSH1 0x5 SHL DUP6 ADD ADD GT ISZERO PUSH2 0x208C JUMPI PUSH1 0x0 DUP1 REVERT JUMPDEST PUSH1 0x0 DUP1 PUSH1 0x0 DUP1 PUSH1 0x0 DUP1 PUSH2 0x120 DUP8 DUP10 SUB SLT ISZERO PUSH2 0x3521 JUMPI PUSH1 0x0 DUP1 REVERT JUMPDEST DUP7 CALLDATALOAD SWAP6 POP PUSH1 0x20 DUP8 ADD CALLDATALOAD SWAP5 POP PUSH1 0x40 DUP8 ADD CALLDATALOAD PUSH8 0xFFFFFFFFFFFFFFFF DUP1 DUP3 GT ISZERO PUSH2 0x3547 JUMPI PUSH1 0x0 DUP1 REVERT JUMPDEST PUSH2 0x3553 DUP11 DUP4 DUP12 ADD PUSH2 0x341D JUMP JUMPDEST SWAP6 POP PUSH2 0x3562 DUP11 PUSH1 0x60 DUP12 ADD PUSH2 0x34AA JUMP JUMPDEST SWAP5 POP PUSH2 0x100 DUP10 ADD CALLDATALOAD SWAP2 POP DUP1 DUP3 GT ISZERO PUSH2 0x3579 JUMPI PUSH1 0x0 DUP1 REVERT JUMPDEST POP PUSH2 0x3586 DUP10 DUP3 DUP11 ADD PUSH2 0x34C2 JUMP JUMPDEST SWAP8 SWAP11 SWAP7 SWAP10 POP SWAP5 SWAP8 POP SWAP3 SWAP6 SWAP4 SWAP5 SWAP3 POP POP POP JUMP JUMPDEST PUSH1 0x0 DUP1 PUSH1 0x0 DUP1 PUSH1 0x0 PUSH2 0x100 DUP7 DUP9 SUB SLT ISZERO PUSH2 0x35B1 JUMPI PUSH1 0x0 DUP1 REVERT JUMPDEST DUP6 CALLDATALOAD SWAP5 POP PUSH1 0x20 DUP7 ADD CALLDATALOAD PUSH8 0xFFFFFFFFFFFFFFFF DUP1 DUP3 GT ISZERO PUSH2 0x35D0 JUMPI PUSH1 0x0 DUP1 REVERT JUMPDEST PUSH2 0x35DC DUP10 DUP4 DUP11 ADD PUSH2 0x341D JUMP JUMPDEST SWAP6 POP PUSH2 0x35EB DUP10 PUSH1 0x40 DUP11 ADD PUSH2 0x34AA JUMP JUMPDEST SWAP5 POP PUSH1 0xE0 DUP9 ADD CALLDATALOAD SWAP2 POP DUP1 DUP3 GT ISZERO PUSH2 0x3601 JUMPI PUSH1 0x0 DUP1 REVERT JUMPDEST POP PUSH2 0x360E DUP9 DUP3 DUP10 ADD PUSH2 0x34C2 JUMP JUMPDEST SWAP7 SWAP10 SWAP6 SWAP9 POP SWAP4 SWAP7 POP SWAP3 SWAP5 SWAP4 SWAP3 POP POP POP JUMP JUMPDEST PUSH1 0x0 DUP1 PUSH1 0x0 PUSH1 0x60 DUP5 DUP7 SUB SLT ISZERO PUSH2 0x3634 JUMPI PUSH1 0x0 DUP1 REVERT JUMPDEST POP POP DUP2 CALLDATALOAD SWAP4 PUSH1 0x20 DUP4 ADD CALLDATALOAD SWAP4 POP PUSH1 0x40 SWAP1 SWAP3 ADD CALLDATALOAD SWAP2 SWAP1 POP JUMP JUMPDEST DUP1 CALLDATALOAD PUSH1 0x1 PUSH1 0x1 PUSH1 0xE0 SHL SUB NOT DUP2 AND DUP2 EQ PUSH2 0x3663 JUMPI PUSH1 0x0 DUP1 REVERT JUMPDEST SWAP2 SWAP1 POP JUMP JUMPDEST PUSH1 0x0 DUP1 PUSH1 0x0 DUP1 PUSH1 0x80 DUP6 DUP8 SUB SLT ISZERO PUSH2 0x367E JUMPI PUSH1 0x0 DUP1 REVERT JUMPDEST DUP5 CALLDATALOAD SWAP4 POP PUSH1 0x20 DUP6 ADD CALLDATALOAD SWAP3 POP PUSH2 0x3695 PUSH1 0x40 DUP7 ADD PUSH2 0x364B JUMP JUMPDEST SWAP4 SWAP7 SWAP3 SWAP6 POP SWAP3 SWAP4 PUSH1 0x60 ADD CALLDATALOAD SWAP3 POP POP JUMP JUMPDEST PUSH1 0x0 DUP1 PUSH1 0x0 DUP1 PUSH1 0x0 DUP6 DUP8 SUB PUSH2 0x140 DUP2 SLT ISZERO PUSH2 0x36BF JUMPI PUSH1 0x0 DUP1 REVERT JUMPDEST DUP7 CALLDATALOAD SWAP6 POP PUSH1 0x20 DUP8 ADD CALLDATALOAD PUSH8 0xFFFFFFFFFFFFFFFF DUP1 DUP3 GT ISZERO PUSH2 0x36DE JUMPI PUSH1 0x0 DUP1 REVERT JUMPDEST PUSH2 0x36EA DUP11 DUP4 DUP12 ADD PUSH2 0x341D JUMP JUMPDEST SWAP7 POP PUSH1 0xE0 PUSH1 0x3F NOT DUP5 ADD SLT ISZERO PUSH2 0x36FE JUMPI PUSH1 0x0 DUP1 REVERT JUMPDEST PUSH1 0x40 DUP10 ADD SWAP6 POP PUSH2 0x120 DUP10 ADD CALLDATALOAD SWAP3 POP DUP1 DUP4 GT ISZERO PUSH2 0x3719 JUMPI PUSH1 0x0 DUP1 REVERT JUMPDEST POP POP PUSH2 0x360E DUP9 DUP3 DUP10 ADD PUSH2 0x34C2 JUMP JUMPDEST PUSH1 0x0 DUP1 PUSH1 0x0 DUP1 PUSH1 0x80 DUP6 DUP8 SUB SLT ISZERO PUSH2 0x373D JUMPI PUSH1 0x0 DUP1 REVERT JUMPDEST DUP5 CALLDATALOAD SWAP4 POP PUSH1 0x20 DUP6 ADD CALLDATALOAD SWAP3 POP PUSH1 0x40 DUP6 ADD CALLDATALOAD SWAP2 POP PUSH2 0x375B PUSH1 0x60 DUP7 ADD PUSH2 0x364B JUMP JUMPDEST SWAP1 POP SWAP3 SWAP6 SWAP2 SWAP5 POP SWAP3 POP JUMP JUMPDEST PUSH1 0x0 DUP1 PUSH1 0x40 DUP4 DUP6 SUB SLT ISZERO PUSH2 0x3779 JUMPI PUSH1 0x0 DUP1 REVERT JUMPDEST POP POP DUP1 CALLDATALOAD SWAP3 PUSH1 0x20 SWAP1 SWAP2 ADD CALLDATALOAD SWAP2 POP JUMP JUMPDEST DUP1 ISZERO ISZERO DUP2 EQ PUSH2 0x3796 JUMPI PUSH1 0x0 DUP1 REVERT JUMPDEST POP JUMP JUMPDEST PUSH1 0x0 DUP1 PUSH1 0x0 PUSH1 0x60 DUP5 DUP7 SUB SLT ISZERO PUSH2 0x37AE JUMPI PUSH1 0x0 DUP1 REVERT JUMPDEST DUP4 CALLDATALOAD SWAP3 POP PUSH1 0x20 DUP5 ADD CALLDATALOAD SWAP2 POP PUSH1 0x40 DUP5 ADD CALLDATALOAD PUSH2 0x37C7 DUP2 PUSH2 0x3788 JUMP JUMPDEST DUP1 SWAP2 POP POP SWAP3 POP SWAP3 POP SWAP3 JUMP JUMPDEST PUSH1 0x0 DUP1 PUSH1 0x0 PUSH1 0x60 DUP5 DUP7 SUB SLT ISZERO PUSH2 0x37E7 JUMPI PUSH1 0x0 DUP1 REVERT JUMPDEST DUP4 CALLDATALOAD SWAP3 POP PUSH1 0x20 DUP5 ADD CALLDATALOAD SWAP2 POP PUSH2 0x37FE PUSH1 0x40 DUP6 ADD PUSH2 0x364B JUMP JUMPDEST SWAP1 POP SWAP3 POP SWAP3 POP SWAP3 JUMP JUMPDEST PUSH1 0x20 DUP1 DUP3 MSTORE DUP3 MLOAD DUP3 DUP3 ADD DUP2 SWAP1 MSTORE PUSH1 0x0 SWAP2 SWAP1 DUP5 DUP3 ADD SWAP1 PUSH1 0x40 DUP6 ADD SWAP1 DUP5 JUMPDEST DUP2 DUP2 LT ISZERO PUSH2 0x3849 JUMPI DUP4 MLOAD PUSH1 0x1 PUSH1 0x1 PUSH1 0xE0 SHL SUB NOT AND DUP4 MSTORE SWAP3 DUP5 ADD SWAP3 SWAP2 DUP5 ADD SWAP2 PUSH1 0x1 ADD PUSH2 0x3823 JUMP JUMPDEST POP SWAP1 SWAP7 SWAP6 POP POP POP POP POP POP JUMP JUMPDEST DUP1 CALLDATALOAD PUSH1 0x1 PUSH1 0x1 PUSH1 0xA0 SHL SUB DUP2 AND DUP2 EQ PUSH2 0x3663 JUMPI PUSH1 0x0 DUP1 REVERT JUMPDEST PUSH1 0x0 DUP1 PUSH1 0x0 DUP1 PUSH1 0x0 PUSH1 0x80 DUP7 DUP9 SUB SLT ISZERO PUSH2 0x3884 JUMPI PUSH1 0x0 DUP1 REVERT JUMPDEST DUP6 CALLDATALOAD SWAP5 POP PUSH2 0x3894 PUSH1 0x20 DUP8 ADD PUSH2 0x3855 JUMP JUMPDEST SWAP4 POP PUSH1 0x40 DUP7 ADD CALLDATALOAD SWAP3 POP PUSH1 0x60 DUP7 ADD CALLDATALOAD PUSH8 0xFFFFFFFFFFFFFFFF DUP2 GT ISZERO PUSH2 0x38B7 JUMPI PUSH1 0x0 DUP1 REVERT JUMPDEST PUSH2 0x360E DUP9 DUP3 DUP10 ADD PUSH2 0x34C2 JUMP JUMPDEST PUSH1 0x0 PUSH1 0x20 DUP3 DUP5 SUB SLT ISZERO PUSH2 0x38D5 JUMPI PUSH1 0x0 DUP1 REVERT JUMPDEST DUP2 MLOAD PUSH2 0x2BE2 DUP2 PUSH2 0x3788 JUMP JUMPDEST PUSH1 0x20 DUP1 DUP3 MSTORE PUSH1 0x17 SWAP1 DUP3 ADD MSTORE PUSH32 0x536166654D6F64653A2043616C6C2052656A6563746564000000000000000000 PUSH1 0x40 DUP3 ADD MSTORE PUSH1 0x60 ADD SWAP1 JUMP JUMPDEST PUSH1 0x0 PUSH1 0x20 DUP3 DUP5 SUB SLT ISZERO PUSH2 0x3929 JUMPI PUSH1 0x0 DUP1 REVERT JUMPDEST PUSH2 0x2BE2 DUP3 PUSH2 0x3855 JUMP JUMPDEST PUSH4 0x4E487B71 PUSH1 0xE0 SHL PUSH1 0x0 MSTORE PUSH1 0x21 PUSH1 0x4 MSTORE PUSH1 0x24 PUSH1 0x0 REVERT JUMPDEST PUSH1 0x20 DUP1 DUP3 MSTORE PUSH1 0x18 SWAP1 DUP3 ADD MSTORE PUSH32 0x496C6C6567616C20454344415341205369676E61747572650000000000000000 PUSH1 0x40 DUP3 ADD MSTORE PUSH1 0x60 ADD SWAP1 JUMP JUMPDEST SWAP4 DUP5 MSTORE PUSH1 0x20 DUP5 ADD SWAP3 SWAP1 SWAP3 MSTORE PUSH1 0x1 PUSH1 0x1 PUSH1 0xA0 SHL SUB AND PUSH1 0x40 DUP4 ADD MSTORE PUSH1 0x1 PUSH1 0x1 PUSH1 0xE0 SHL SUB NOT AND PUSH1 0x60 DUP3 ADD MSTORE PUSH1 0x80 ADD SWAP1 JUMP JUMPDEST PUSH1 0x0 PUSH1 0x20 DUP3 DUP5 SUB SLT ISZERO PUSH2 0x39BF JUMPI PUSH1 0x0 DUP1 REVERT JUMPDEST DUP2 CALLDATALOAD PUSH2 0x2BE2 DUP2 PUSH2 0x3788 JUMP JUMPDEST PUSH1 0x20 DUP1 DUP3 MSTORE PUSH1 0x11 SWAP1 DUP3 ADD MSTORE PUSH17 0x10DBDB9D195E1D08139BDD08119BDD5B99 PUSH1 0x7A SHL PUSH1 0x40 DUP3 ADD MSTORE PUSH1 0x60 ADD SWAP1 JUMP JUMPDEST PUSH1 0x1 DUP2 DUP2 SHR SWAP1 DUP3 AND DUP1 PUSH2 0x3A09 JUMPI PUSH1 0x7F DUP3 AND SWAP2 POP JUMPDEST PUSH1 0x20 DUP3 LT DUP2 SUB PUSH2 0x34BC JUMPI PUSH4 0x4E487B71 PUSH1 0xE0 SHL PUSH1 0x0 MSTORE PUSH1 0x22 PUSH1 0x4 MSTORE PUSH1 0x24 PUSH1 0x0 REVERT JUMPDEST PUSH1 0x20 DUP1 DUP3 MSTORE PUSH1 0xF SWAP1 DUP3 ADD MSTORE PUSH15 0x1499585B1B48139BDD08119BDD5B99 PUSH1 0x8A SHL PUSH1 0x40 DUP3 ADD MSTORE PUSH1 0x60 ADD SWAP1 JUMP JUMPDEST PUSH1 0x20 DUP1 DUP3 MSTORE PUSH1 0xE SWAP1 DUP3 ADD MSTORE PUSH14 0x149BDB1948139BDD08119BDD5B99 PUSH1 0x92 SHL PUSH1 0x40 DUP3 ADD MSTORE PUSH1 0x60 ADD SWAP1 JUMP JUMPDEST PUSH1 0x20 DUP1 DUP3 MSTORE PUSH1 0x1A SWAP1 DUP3 ADD MSTORE PUSH32 0x46756E6374696F6E53656C6563746F72204E6F7420466F756E64000000000000 PUSH1 0x40 DUP3 ADD MSTORE PUSH1 0x60 ADD SWAP1 JUMP JUMPDEST PUSH1 0x0 PUSH1 0x20 DUP3 DUP5 SUB SLT ISZERO PUSH2 0x3AC3 JUMPI PUSH1 0x0 DUP1 REVERT JUMPDEST POP MLOAD SWAP2 SWAP1 POP JUMP JUMPDEST PUSH4 0x4E487B71 PUSH1 0xE0 SHL PUSH1 0x0 MSTORE PUSH1 0x32 PUSH1 0x4 MSTORE PUSH1 0x24 PUSH1 0x0 REVERT JUMPDEST PUSH4 0x4E487B71 PUSH1 0xE0 SHL PUSH1 0x0 MSTORE PUSH1 0x11 PUSH1 0x4 MSTORE PUSH1 0x24 PUSH1 0x0 REVERT JUMPDEST PUSH1 0x0 PUSH4 0xFFFFFFFF DUP1 DUP4 AND DUP2 DUP2 SUB PUSH2 0x3B0F JUMPI PUSH2 0x3B0F PUSH2 0x3AE0 JUMP JUMPDEST PUSH1 0x1 ADD SWAP4 SWAP3 POP POP POP JUMP JUMPDEST PUSH1 0x0 DUP3 CALLDATALOAD PUSH1 0x5E NOT DUP4 CALLDATASIZE SUB ADD DUP2 SLT PUSH2 0x3B2F JUMPI PUSH1 0x0 DUP1 REVERT JUMPDEST SWAP2 SWAP1 SWAP2 ADD SWAP3 SWAP2 POP POP JUMP JUMPDEST PUSH1 0x0 DUP1 DUP4 CALLDATALOAD PUSH1 0x1E NOT DUP5 CALLDATASIZE SUB ADD DUP2 SLT PUSH2 0x3B50 JUMPI PUSH1 0x0 DUP1 REVERT JUMPDEST DUP4 ADD DUP1 CALLDATALOAD SWAP2 POP PUSH8 0xFFFFFFFFFFFFFFFF DUP3 GT ISZERO PUSH2 0x3B6B JUMPI PUSH1 0x0 DUP1 REVERT JUMPDEST PUSH1 0x20 ADD SWAP2 POP PUSH1 0x5 DUP2 SWAP1 SHL CALLDATASIZE SUB DUP3 SGT ISZERO PUSH2 0x208C JUMPI PUSH1 0x0 DUP1 REVERT JUMPDEST PUSH1 0x0 PUSH1 0x20 DUP3 DUP5 SUB SLT ISZERO PUSH2 0x3B95 JUMPI PUSH1 0x0 DUP1 REVERT JUMPDEST DUP2 CALLDATALOAD PUSH1 0x3 DUP2 LT PUSH2 0x2BE2 JUMPI PUSH1 0x0 DUP1 REVERT JUMPDEST PUSH1 0x0 PUSH1 0x20 DUP3 DUP5 SUB SLT ISZERO PUSH2 0x3BB6 JUMPI PUSH1 0x0 DUP1 REVERT JUMPDEST PUSH2 0x2BE2 DUP3 PUSH2 0x364B JUMP JUMPDEST PUSH1 0x0 PUSH1 0x1 DUP3 ADD PUSH2 0x3BD1 JUMPI PUSH2 0x3BD1 PUSH2 0x3AE0 JUMP JUMPDEST POP PUSH1 0x1 ADD SWAP1 JUMP JUMPDEST DUP1 DUP3 ADD DUP1 DUP3 GT ISZERO PUSH2 0x198E JUMPI PUSH2 0x198E PUSH2 0x3AE0 JUMP JUMPDEST DUP2 DUP2 SUB DUP2 DUP2 GT ISZERO PUSH2 0x198E JUMPI PUSH2 0x198E PUSH2 0x3AE0 JUMP JUMPDEST PUSH4 0x4E487B71 PUSH1 0xE0 SHL PUSH1 0x0 MSTORE PUSH1 0x31 PUSH1 0x4 MSTORE PUSH1 0x24 PUSH1 0x0 REVERT INVALID LOG2 PUSH5 0x6970667358 0x22 SLT KECCAK256 0x2F 0x2F 0x5D 0x4D AND SIGNEXTEND AND 0xB1 DUP8 0xB9 CREATE DUP15 0xE7 0x4F 0xCF 0xC6 0xE7 JUMPDEST 0xAB 0x27 0x4A DUP7 0xEC STOP 0xB4 AND 0xA9 PUSH25 0x2BDE21C664736F6C6343000811003300000000000000000000 "
    },
    "gasEstimates": {
      "creation": {
        "codeDepositCost": "3086800",
        "executionCost": "3435",
        "totalCost": "3090235"
      },
      "external": {
        "CTX_MESSAGE_TYPEHASH()": "269",
        "LIB_NAME()": "370",
        "LIB_VERSION()": "383",
        "PREDICT_CTX_MESSAGE_TYPEHASH()": "267",
        "TYPE_HASH()": "202",
        "addContextFuncRole(AccessControlStorage.DataMaps storage,bytes32,bytes4,bytes32)": "infinite",
        "getContextFuncs(AccessControlStorage.DataMaps storage,bytes32)": "infinite",
        "getContextInfo(AccessControlStorage.DataMaps storage,bytes32)": "infinite",
        "grantContextRole(AccessControlStorage.DataMaps storage,bytes32,bytes4,bytes32)": "infinite",
        "hasContextRole(AccessControlStorage.DataMaps storage,bytes32,bytes32,bytes4)": "7341",
        "registerAccessControlManagerContext(AccessControlStorage.DataMaps storage,address,bytes32,IContextManagement.RequestRegisterContext[])": "infinite",
        "registerContext(AccessControlStorage.DataMaps storage,bytes,IContextManagement.RequestContext,IContextManagement.RequestRegisterContext[])": "infinite",
        "registerPredictContext(AccessControlStorage.DataMaps storage,bytes,IContextManagement.RequestPredictContext,IContextManagement.RequestRegisterContext[])": "infinite",
        "removeContextFunc(AccessControlStorage.DataMaps storage,bytes32,bytes4)": "infinite",
        "revokeContextRole(AccessControlStorage.DataMaps storage,bytes32,bytes4,bytes32)": "infinite",
        "setContextRealm(AccessControlStorage.DataMaps storage,bytes32,bytes32)": "infinite",
        "setContextStatus(AccessControlStorage.DataMaps storage,bytes32,bool)": "infinite",
        "updateContext(AccessControlStorage.DataMaps storage,bytes32,bytes,IContextManagement.RequestContext,IContextManagement.RequestUpdateContext[])": "infinite"
      },
      "internal": {
        "_domainSeparatorV4()": "infinite",
        "_getContextMessageHash(address,bytes32,bytes32,bytes32)": "infinite",
        "_getPredictContextMessageHash(address,bytes32,bytes32,bytes32,bytes32)": "infinite",
        "_hashTypedDataV4(bytes32)": "infinite",
        "_registerContext(struct AccessControlStorage.DataMaps storage pointer,address,bytes32,bool,struct IContextManagement.RequestRegisterContext calldata[] calldata)": "infinite",
        "_registerPredictContext(struct AccessControlStorage.DataMaps storage pointer,struct IContextManagement.RequestRegisterContext calldata[] calldata,struct IContextManagement.RequestPredictContext calldata)": "infinite",
        "_updateContext(struct AccessControlStorage.DataMaps storage pointer,bytes32,bytes32,bool,struct IContextManagement.RequestUpdateContext calldata[] calldata)": "infinite"
      }
    },
    "methodIdentifiers": {
      "CTX_MESSAGE_TYPEHASH()": "34109de2",
      "LIB_NAME()": "bec94751",
      "LIB_VERSION()": "2466209b",
      "PREDICT_CTX_MESSAGE_TYPEHASH()": "f0b15def",
      "TYPE_HASH()": "64d4c819",
      "addContextFuncRole(AccessControlStorage.DataMaps storage,bytes32,bytes4,bytes32)": "518bf960",
      "getContextFuncs(AccessControlStorage.DataMaps storage,bytes32)": "ec77eb21",
      "getContextInfo(AccessControlStorage.DataMaps storage,bytes32)": "733ae93e",
      "grantContextRole(AccessControlStorage.DataMaps storage,bytes32,bytes4,bytes32)": "453dd6dc",
      "hasContextRole(AccessControlStorage.DataMaps storage,bytes32,bytes32,bytes4)": "7134bb45",
      "registerAccessControlManagerContext(AccessControlStorage.DataMaps storage,address,bytes32,IContextManagement.RequestRegisterContext[])": "faee6718",
      "registerContext(AccessControlStorage.DataMaps storage,bytes,IContextManagement.RequestContext,IContextManagement.RequestRegisterContext[])": "15922efe",
      "registerPredictContext(AccessControlStorage.DataMaps storage,bytes,IContextManagement.RequestPredictContext,IContextManagement.RequestRegisterContext[])": "4ac3fdd4",
      "removeContextFunc(AccessControlStorage.DataMaps storage,bytes32,bytes4)": "b0c25575",
      "revokeContextRole(AccessControlStorage.DataMaps storage,bytes32,bytes4,bytes32)": "5acd816a",
      "setContextRealm(AccessControlStorage.DataMaps storage,bytes32,bytes32)": "3e015ef6",
      "setContextStatus(AccessControlStorage.DataMaps storage,bytes32,bool)": "7cc5941d",
      "updateContext(AccessControlStorage.DataMaps storage,bytes32,bytes,IContextManagement.RequestContext,IContextManagement.RequestUpdateContext[])": "099a0c2e"
    }
  },
  "storageLayout": {
    "storage": [],
    "types": null
  },
  "userdoc": {
    "kind": "user",
    "methods": {},
    "version": 1
  }
}