{
  "contractName": "LContextManagement",
  "sourceName": "src/contracts/lib/acl/LContextManagement.sol",
  "abi": [
    {
      "inputs": [],
      "name": "CTX_MESSAGE_TYPEHASH",
      "outputs": [
        {
          "internalType": "bytes32",
          "name": "",
          "type": "bytes32"
        }
      ],
      "stateMutability": "view",
      "type": "function"
    },
    {
      "inputs": [],
      "name": "LIB_NAME",
      "outputs": [
        {
          "internalType": "bytes32",
          "name": "",
          "type": "bytes32"
        }
      ],
      "stateMutability": "view",
      "type": "function"
    },
    {
      "inputs": [],
      "name": "LIB_VERSION",
      "outputs": [
        {
          "internalType": "bytes32",
          "name": "",
          "type": "bytes32"
        }
      ],
      "stateMutability": "view",
      "type": "function"
    },
    {
      "inputs": [],
      "name": "PREDICT_CTX_MESSAGE_TYPEHASH",
      "outputs": [
        {
          "internalType": "bytes32",
          "name": "",
          "type": "bytes32"
        }
      ],
      "stateMutability": "view",
      "type": "function"
    },
    {
      "inputs": [],
      "name": "TYPE_HASH",
      "outputs": [
        {
          "internalType": "bytes32",
          "name": "",
          "type": "bytes32"
        }
      ],
      "stateMutability": "view",
      "type": "function"
    }
  ],
  "bytecode": "0x613c3461003a600b82828239805160001a60731461002d57634e487b7160e01b600052600060045260246000fd5b30600052607381538281f3fe73000000000000000000000000000000000000000030146080604052600436106101205760003560e01c806364d4c819116100ac578063b0c255751161007b578063b0c255751461036c578063bec947511461038c578063ec77eb2114610394578063f0b15def146103b4578063faee6718146103db57600080fd5b806364d4c8191461029b5780637134bb45146102c2578063733ae93e146102e55780637cc5941d1461034c57600080fd5b80633e015ef6116100f35780633e015ef6146101e4578063453dd6dc1461021b5780634ac3fdd41461023b578063518bf9601461025b5780635acd816a1461027b57600080fd5b8063099a0c2e1461012557806315922efe1461016a5780632466209b146101a757806334109de2146101bd575b600080fd5b81801561013157600080fd5b506101456101403660046134f1565b6103fb565b604080516001600160a01b039384168152929091166020830152015b60405180910390f35b81801561017657600080fd5b5061018a610185366004613582565b610673565b604080519283526001600160a01b03909116602083015201610161565b6101af61087b565b604051908152602001610161565b6101af7f7aabe2571874f2a330ea11c8972d9cc3792d973efc6b36e3e29005861a34418881565b8180156101f057600080fd5b506102046101ff366004613609565b6108a9565b604080519215158352602083019190915201610161565b81801561022757600080fd5b506101af610236366004613652565b610b9e565b81801561024757600080fd5b5061018a61025636600461368f565b610e62565b81801561026757600080fd5b506101af610276366004613652565b6110ac565b81801561028757600080fd5b506101af610296366004613652565b61135e565b6101af7f8b73c3c69bb8fe3d512ecc4cf759cc79239f7b179b0ffacaa9a75d522b39400f81565b6102d56102d0366004613711565b61160b565b6040519015158152602001610161565b6102f86102f3366004613750565b6116b1565b60405161016191908151815260208083015190820152604080830151908201526060808301516001600160a01b03169082015260808083015115159082015260a09182015115159181019190915260c00190565b81801561035857600080fd5b50610204610367366004613783565b61197e565b81801561037857600080fd5b506101af6103873660046137bc565b611baf565b6101af611e47565b6103a76103a2366004613750565b611e6d565b60405161016191906137f1565b6101af7f210e35e86b887de2dcef95a381a8278f979cd7b7bbbe99972070d2549710564681565b8180156103e757600080fd5b506101af6103f6366004613856565b611fa6565b600080306001600160a01b031663be22465d6040518163ffffffff1660e01b8152600401602060405180830381865afa15801561043c573d6000803e3d6000fd5b505050506040513d601f19601f8201168201806040525081019061046091906138ad565b156104865760405162461bcd60e51b815260040161047d906138ca565b60405180910390fd5b600061051061049b6080880160608901613901565b604080517f7aabe2571874f2a330ea11c8972d9cc3792d973efc6b36e3e29005861a3441886020828101919091526001600160a01b03939093168183015289356060820152828a01356080820152818a013560a0808301919091528251808303909101815260c0909101909152805191012090565b9050600061051d82611fc1565b905060008061052c838b61200f565b909250905060008160048111156105455761054561391c565b146105625760405162461bcd60e51b815260040161047d90613932565b73__$c43b1d7058274a71a9734d16e6b6586431$__63487c69608d6105863061207d565b6040516001600160e01b031960e085901b1681526105b39291908790631ccb7c8d60e31b90600401613969565b602060405180830381865af41580156105d0573d6000803e3d6000fd5b505050506040513d601f19601f820116820180604052508101906105f491906138ad565b6106405760405162461bcd60e51b815260206004820152601b60248201527f557064617465436f6e74657874204163636573732044656e6965640000000000604482015260640161047d565b6106618c8c60408c013561065a60a08e0160808f01613997565b8c8c6120bc565b9c919b50909950505050505050505050565b600080306001600160a01b031663be22465d6040518163ffffffff1660e01b8152600401602060405180830381865afa1580156106b4573d6000803e3d6000fd5b505050506040513d601f19601f820116820180604052508101906106d891906138ad565b156106f55760405162461bcd60e51b815260040161047d906138ca565b600061070a61049b6080880160608901613901565b9050600061071782611fc1565b9050600080610726838b61200f565b9092509050600081600481111561073f5761073f61391c565b1461075c5760405162461bcd60e51b815260040161047d90613932565b73__$c43b1d7058274a71a9734d16e6b6586431$__63487c69608c6107803061207d565b6040516001600160e01b031960e085901b1681526107ad92919087906378efa4ed60e11b90600401613969565b602060405180830381865af41580156107ca573d6000803e3d6000fd5b505050506040513d601f19601f820116820180604052508101906107ee91906138ad565b61083a5760405162461bcd60e51b815260206004820152601d60248201527f5265676973746572436f6e74657874204163636573732044656e696564000000604482015260640161047d565b61086a8b61084e60808c0160608d01613901565b60408c013561086360a08e0160808f01613997565b8c8c6127e3565b9b919a509098505050505050505050565b604051640312e302e360dc1b60208201526025015b6040516020818303038152906040528051906020012081565b600080306001600160a01b031663be22465d6040518163ffffffff1660e01b8152600401602060405180830381865afa1580156108ea573d6000803e3d6000fd5b505050506040513d601f19601f8201168201806040525081019061090e91906138ad565b1561092b5760405162461bcd60e51b815260040161047d906138ca565b73__$c43b1d7058274a71a9734d16e6b6586431$__63487c69608661094f3061207d565b6040516001600160e01b031960e085901b16815261097c929190339063d338640160e01b90600401613969565b602060405180830381865af4158015610999573d6000803e3d6000fd5b505050506040513d601f19601f820116820180604052508101906109bd91906138ad565b610a095760405162461bcd60e51b815260206004820152601d60248201527f536574436f6e746578745265616c6d204163636573732044656e696564000000604482015260640161047d565b83610a133061207d565b03610a605760405162461bcd60e51b815260206004820181905260248201527f496c6c6567616c204368616e67652041434c20436f6e74657874205265616c6d604482015260640161047d565b60008481526001808701602052604090912001546001600160a01b0316610a995760405162461bcd60e51b815260040161047d906139b4565b600083815260038601602052604090208054610ab4906139df565b9050600003610ad55760405162461bcd60e51b815260040161047d90613a13565b6000848152600186016020526040902054839003610b355760405162461bcd60e51b815260206004820152601960248201527f496c6c6567616c205265616c6d204475706c69636174696f6e00000000000000604482015260640161047d565b600084815260018601602090815260408083205486845260038901909252909120610b639060020186612bc0565b5060008581526001870160209081526040808320548352600389019091529020610b909060020186612bd3565b506001969095509350505050565b6000306001600160a01b031663be22465d6040518163ffffffff1660e01b8152600401602060405180830381865afa158015610bde573d6000803e3d6000fd5b505050506040513d601f19601f82011682018060405250810190610c0291906138ad565b15610c1f5760405162461bcd60e51b815260040161047d906138ca565b73__$c43b1d7058274a71a9734d16e6b6586431$__63487c696086610c433061207d565b6040516001600160e01b031960e085901b168152610c70929190339063771bcf4560e01b90600401613969565b602060405180830381865af4158015610c8d573d6000803e3d6000fd5b505050506040513d601f19601f82011682018060405250810190610cb191906138ad565b610cfd5760405162461bcd60e51b815260206004820152601e60248201527f4772616e74436f6e74657874526f6c65204163636573732044656e6965640000604482015260640161047d565b83610d073061207d565b03610d545760405162461bcd60e51b815260206004820152601960248201527f496c6c6567616c204772616e742041434c20436f6e7465787400000000000000604482015260640161047d565b60008481526001808701602052604090912001546001600160a01b0316610d8d5760405162461bcd60e51b815260040161047d906139b4565b600082815260028601602052604090208054610da8906139df565b9050600003610dc95760405162461bcd60e51b815260040161047d90613a3c565b60008481526001860160205260409020610df0906003016001600160e01b03198516612bdf565b610e0c5760405162461bcd60e51b815260040161047d90613a64565b60008481526001868101602090815260408084206001600160e01b0319881685526002019091529091208381558101805460ff191682805b02179055505050600091825250600191909101602052604090205490565b600080306001600160a01b031663be22465d6040518163ffffffff1660e01b8152600401602060405180830381865afa158015610ea3573d6000803e3d6000fd5b505050506040513d601f19601f82011682018060405250810190610ec791906138ad565b15610ee45760405162461bcd60e51b815260040161047d906138ca565b6000610f64610ef960c0880160a08901613901565b604080517f210e35e86b887de2dcef95a381a8278f979cd7b7bbbe99972070d254971056466020808301919091526001600160a01b039390931681830152818a013560608201526080808b0135828201528251808303909101815260a0909101909152805191012090565b90506000610f7182611fc1565b9050600080610f80838b61200f565b90925090506000816004811115610f9957610f9961391c565b14610fb65760405162461bcd60e51b815260040161047d90613932565b73__$c43b1d7058274a71a9734d16e6b6586431$__63487c69608c610fda3061207d565b6040516001600160e01b031960e085901b16815261100792919087906378efa4ed60e11b90600401613969565b602060405180830381865af4158015611024573d6000803e3d6000fd5b505050506040513d601f19601f8201168201806040525081019061104891906138ad565b6110a05760405162461bcd60e51b8152602060048201526024808201527f526567697374657250726564696374436f6e74657874204163636573732044656044820152631b9a595960e21b606482015260840161047d565b61086a8b89898c612bf7565b6000306001600160a01b031663be22465d6040518163ffffffff1660e01b8152600401602060405180830381865afa1580156110ec573d6000803e3d6000fd5b505050506040513d601f19601f8201168201806040525081019061111091906138ad565b1561112d5760405162461bcd60e51b815260040161047d906138ca565b73__$c43b1d7058274a71a9734d16e6b6586431$__63487c6960866111513061207d565b6040516001600160e01b031960e085901b16815261117e929190339063031c049360e01b90600401613969565b602060405180830381865af415801561119b573d6000803e3d6000fd5b505050506040513d601f19601f820116820180604052508101906111bf91906138ad565b61120b5760405162461bcd60e51b815260206004820181905260248201527f416464436f6e7465787446756e63526f6c65204163636573732044656e696564604482015260640161047d565b60008481526001808701602052604090912001546001600160a01b03166112445760405162461bcd60e51b815260040161047d906139b4565b60008281526002860160205260409020805461125f906139df565b90506000036112805760405162461bcd60e51b815260040161047d90613a3c565b600084815260018601602052604090206112a7906003016001600160e01b03198516612bdf565b156112f45760405162461bcd60e51b815260206004820152601f60248201527f46756e6374696f6e53656c6563746f7220416c72656164792045786973747300604482015260640161047d565b60008481526001868101602081815260408085206001600160e01b031989168087526002820184529186208881558501805460ff1916909517909455938890525261134491600390910190612bc0565b505050600091825250600191909101602052604090205490565b6000306001600160a01b031663be22465d6040518163ffffffff1660e01b8152600401602060405180830381865afa15801561139e573d6000803e3d6000fd5b505050506040513d601f19601f820116820180604052508101906113c291906138ad565b156113df5760405162461bcd60e51b815260040161047d906138ca565b73__$c43b1d7058274a71a9734d16e6b6586431$__63487c6960866114033061207d565b6040516001600160e01b031960e085901b1681526114309291903390634346a04b60e01b90600401613969565b602060405180830381865af415801561144d573d6000803e3d6000fd5b505050506040513d601f19601f8201168201806040525081019061147191906138ad565b6114bd5760405162461bcd60e51b815260206004820152601f60248201527f5265766f6b65436f6e74657874526f6c65204163636573732044656e69656400604482015260640161047d565b836114c73061207d565b036115145760405162461bcd60e51b815260206004820152601a60248201527f496c6c6567616c205265766f6b652041434c20436f6e74657874000000000000604482015260640161047d565b60008481526001808701602052604090912001546001600160a01b031661154d5760405162461bcd60e51b815260040161047d906139b4565b600082815260028601602052604090208054611568906139df565b90506000036115895760405162461bcd60e51b815260040161047d90613a3c565b600084815260018601602052604090206115b0906003016001600160e01b03198516612bdf565b6115cc5760405162461bcd60e51b815260040161047d90613a64565b60008481526001808701602090815260408084206001600160e01b031988168552600290810190925290922081018054909160ff199091169083610e44565b600083815260018086016020526040822001546001600160a01b03161580159061165c5750600084815260018601602090815260408083206001600160e01b03198616845260020190915290205483145b80156116a85750600160008581526001808801602090815260408084206001600160e01b0319881685526002908101909252909220015460ff16908111156116a6576116a661391c565b145b95945050505050565b6040805160c081018252600080825260208201819052918101829052606081018290526080810182905260a081019190915260008281526001808501602052604090912001546001600160a01b031661171c5760405162461bcd60e51b815260040161047d906139b4565b6000828152600180850160209081526040808420909201548251631d74303760e21b815292516001600160a01b03909116926375d0c0dc9260048083019391928290030181865afa158015611775573d6000803e3d6000fd5b505050506040513d601f19601f820116820180604052508101906117999190613a9b565b6000848152600180870160209081526040808420909201548251630505472360e51b8152925194955092936001600160a01b039093169263a0a8e4609260048082019392918290030181865afa1580156117f7573d6000803e3d6000fd5b505050506040513d601f19601f8201168201806040525081019061181b9190613a9b565b600085815260018088016020908152604080842090920154825163be22465d60e01b8152925194955092936001600160a01b039093169263be22465d9260048082019392918290030181865afa158015611879573d6000803e3d6000fd5b505050506040513d601f19601f8201168201806040525081019061189d91906138ad565b6000868152600180890160209081526040808420909201548251630151e76560e61b8152925194955092936001600160a01b0390931692635479d9409260048082019392918290030181865afa1580156118fb573d6000803e3d6000fd5b505050506040513d601f19601f8201168201806040525081019061191f91906138ad565b6040805160c08101825295865260208087019590955260008881526001808b018088528383208054948a0194909452918a90529552909301546001600160a01b031660608501525015156080830152151560a082015290505b92915050565b600080306001600160a01b031663be22465d6040518163ffffffff1660e01b8152600401602060405180830381865afa1580156119bf573d6000803e3d6000fd5b505050506040513d601f19601f820116820180604052508101906119e391906138ad565b15611a005760405162461bcd60e51b815260040161047d906138ca565b73__$c43b1d7058274a71a9734d16e6b6586431$__63487c696086611a243061207d565b6040516001600160e01b031960e085901b168152611a5192919033906370420ee360e01b90600401613969565b602060405180830381865af4158015611a6e573d6000803e3d6000fd5b505050506040513d601f19601f82011682018060405250810190611a9291906138ad565b611ade5760405162461bcd60e51b815260206004820152601e60248201527f536574436f6e74657874537461747573204163636573732044656e6965640000604482015260640161047d565b83611ae83061207d565b03611b3f5760405162461bcd60e51b815260206004820152602160248201527f496c6c6567616c204368616e67652041434c20436f6e746578742053746174756044820152607360f81b606482015260840161047d565b60008481526001808701602052604090912001546001600160a01b0316611b785760405162461bcd60e51b815260040161047d906139b4565b50506000828152600180850160205260409091208082018054841515600160a01b0260ff60a01b1990911617905554935093915050565b6000306001600160a01b031663be22465d6040518163ffffffff1660e01b8152600401602060405180830381865afa158015611bef573d6000803e3d6000fd5b505050506040513d601f19601f82011682018060405250810190611c1391906138ad565b15611c305760405162461bcd60e51b815260040161047d906138ca565b73__$c43b1d7058274a71a9734d16e6b6586431$__63487c696085611c543061207d565b6040516001600160e01b031960e085901b168152611c819291903390635ac4b36f60e11b90600401613969565b602060405180830381865af4158015611c9e573d6000803e3d6000fd5b505050506040513d601f19601f82011682018060405250810190611cc291906138ad565b611d0e5760405162461bcd60e51b815260206004820152601f60248201527f52656d6f7665436f6e7465787446756e63204163636573732044656e69656400604482015260640161047d565b82611d183061207d565b03611d655760405162461bcd60e51b815260206004820152601a60248201527f496c6c6567616c2052656d6f76652041434c20436f6e74657874000000000000604482015260640161047d565b60008381526001808601602052604090912001546001600160a01b0316611d9e5760405162461bcd60e51b815260040161047d906139b4565b60008381526001850160205260409020611dc5906003016001600160e01b03198416612bdf565b611de15760405162461bcd60e51b815260040161047d90613a64565b60008381526001808601602081815260408085206001600160e01b03198816808752600282018452918620868155909401805460ff191690559387905252611e2e91600390910190612bd3565b5050506000908152600191909101602052604090205490565b604051711310dbdb9d195e1d13585b9859d95b595b9d60721b6020820152603201610890565b60008181526001808401602052604090912001546060906001600160a01b0316611ea95760405162461bcd60e51b815260040161047d906139b4565b60008281526001840160205260408120611ec590600301613021565b67ffffffffffffffff811115611edd57611edd6133f1565b604051908082528060200260200182016040528015611f06578160200160208202803683370190505b50905060005b60008481526001860160205260409020611f2890600301613021565b8163ffffffff161015611f9e5760008481526001860160205260409020611f5b9060030163ffffffff8084169061302b16565b828263ffffffff1681518110611f7357611f73613ab4565b6001600160e01b03199092166020928302919091019091015280611f9681613ae0565b915050611f0c565b509392505050565b6000611fb7868686600187876127e3565b9695505050505050565b6000611978611fce613037565b8360405161190160f01b6020820152602281018390526042810182905260009060620160405160208183030381529060405280519060200120905092915050565b60008082516041036120455760208301516040840151606085015160001a6120398782858561315f565b94509450505050612076565b825160400361206e576020830151604084015161206386838361324c565b935093505050612076565b506000905060025b9250929050565b6040516bffffffffffffffffffffffff19606083901b166020820152600090603401604051602081830303815290604052805190602001209050919050565b600085815260018088016020526040822001546001600160a01b0316806120f55760405162461bcd60e51b815260040161047d906139b4565b6001600160a01b038116331461214d5760405162461bcd60e51b815260206004820152601860248201527f55706461746520436f6e7465787420466f7262696464656e0000000000000000604482015260640161047d565b600086815260038901602052604090208054612168906139df565b90506000036121895760405162461bcd60e51b815260040161047d90613a13565b600087815260018981016020526040909120908101805460ff60a01b1916600160a01b88151502179055548614612206576000878152600189016020908152604080832054835260038b0190915290206121e69060020188612bd3565b50600086815260038901602052604090206122049060020188612bc0565b505b600087815260018901602052604081208790555b838110156127d75788600201600086868481811061223a5761223a613ab4565b905060200281019061224c9190613b03565b35815260208101919091526040016000208054612268906139df565b90506000036122895760405162461bcd60e51b815260040161047d90613a3c565b60005b85858381811061229e5761229e613ab4565b90506020028101906122b09190613b03565b6122be906020810190613b23565b90508110156127c45760018686848181106122db576122db613ab4565b90506020028101906122ed9190613b03565b6122fe906060810190604001613b6d565b600281111561230f5761230f61391c565b14806123605750600086868481811061232a5761232a613ab4565b905060200281019061233c9190613b03565b61234d906060810190604001613b6d565b600281111561235e5761235e61391c565b145b1561261a5785858381811061237757612377613ab4565b90506020028101906123899190613b03565b60008a815260018c0160205260408120913591600201908888868181106123b2576123b2613ab4565b90506020028101906123c49190613b03565b6123d2906020810190613b23565b858181106123e2576123e2613ab4565b90506020020160208101906123f79190613b8e565b6001600160e01b0319168152602081019190915260400160002055600186868481811061242657612426613ab4565b90506020028101906124389190613b03565b612449906060810190604001613b6d565b600281111561245a5761245a61391c565b14612466576002612469565b60015b60008a815260018c01602052604081206002019088888681811061248f5761248f613ab4565b90506020028101906124a19190613b03565b6124af906020810190613b23565b858181106124bf576124bf613ab4565b90506020020160208101906124d49190613b8e565b6001600160e01b0319168152602081019190915260400160002060019081018054909160ff19909116908360028111156125105761251061391c565b021790555061259286868481811061252a5761252a613ab4565b905060200281019061253c9190613b03565b61254a906020810190613b23565b8381811061255a5761255a613ab4565b905060200201602081019061256f9190613b8e565b60008b815260018d0160205260409020600301906001600160e01b031916612bdf565b612615576126138686848181106125ab576125ab613ab4565b90506020028101906125bd9190613b03565b6125cb906020810190613b23565b838181106125db576125db613ab4565b90506020020160208101906125f09190613b8e565b60008b815260018d0160205260409020600301906001600160e01b031916612bc0565b505b6127b2565b600089815260018b01602052604081206002019087878581811061264057612640613ab4565b90506020028101906126529190613b03565b612660906020810190613b23565b8481811061267057612670613ab4565b90506020020160208101906126859190613b8e565b6001600160e01b0319168152602080820192909252604090810160009081208190558b815260018d019092528120600201908787858181106126c9576126c9613ab4565b90506020028101906126db9190613b03565b6126e9906020810190613b23565b848181106126f9576126f9613ab4565b905060200201602081019061270e9190613b8e565b6001600160e01b03191681526020810191909152604001600020600101805460ff191690556127b086868481811061274857612748613ab4565b905060200281019061275a9190613b03565b612768906020810190613b23565b8381811061277857612778613ab4565b905060200201602081019061278d9190613b8e565b60008b815260018d0160205260409020600301906001600160e01b031916612bd3565b505b806127bc81613ba9565b91505061228c565b50806127cf81613ba9565b91505061221a565b50979650505050505050565b6000848152600387016020526040812080546127fe906139df565b905060000361281f5760405162461bcd60e51b815260040161047d90613a13565b600061282a8761207d565b60008181526001808b01602052604090912001549091506001600160a01b0316156128975760405162461bcd60e51b815260206004820152601a60248201527f436f6e7465787420416c72656164792052656769737465726564000000000000604482015260640161047d565b600086815260038901602052604090206128b49060020182612bc0565b5060008181526001808a01602052604082208881559081018054881515600160a01b026001600160a81b03199091166001600160a01b038c1617179055905b84811015612bb25789600201600087878481811061291357612913613ab4565b90506020028101906129259190613b03565b35815260208101919091526040016000208054612941906139df565b90506000036129625760405162461bcd60e51b815260040161047d90613a3c565b60005b86868381811061297757612977613ab4565b90506020028101906129899190613b03565b612997906020810190613b23565b9050811015612b9f578686838181106129b2576129b2613ab4565b90506020028101906129c49190613b03565b356002840160008989868181106129dd576129dd613ab4565b90506020028101906129ef9190613b03565b6129fd906020810190613b23565b85818110612a0d57612a0d613ab4565b9050602002016020810190612a229190613b8e565b6001600160e01b0319168152602081019190915260400160002055868683818110612a4f57612a4f613ab4565b9050602002810190612a619190613b03565b612a72906060810190604001613997565b612a7d576002612a80565b60015b836002016000898986818110612a9857612a98613ab4565b9050602002810190612aaa9190613b03565b612ab8906020810190613b23565b85818110612ac857612ac8613ab4565b9050602002016020810190612add9190613b8e565b6001600160e01b0319168152602081019190915260400160002060019081018054909160ff1990911690836002811115612b1957612b1961391c565b0217905550612b8c878784818110612b3357612b33613ab4565b9050602002810190612b459190613b03565b612b53906020810190613b23565b83818110612b6357612b63613ab4565b9050602002016020810190612b789190613b8e565b60038501906001600160e01b031916612bc0565b5080612b9781613ba9565b915050612965565b5080612baa81613ba9565b9150506128f3565b509098975050505050505050565b6000612bcc8383613285565b9392505050565b6000612bcc83836132d4565b60008181526001830160205260408120541515612bcc565b6040808201356000908152600386016020529081208054612c17906139df565b9050600003612c385760405162461bcd60e51b815260040161047d90613a13565b60006001600160f81b0319612c5360c0850160a08601613901565b6040516001600160f81b031990921660208301526bffffffffffffffffffffffff19606091821b1660218301528401356035820152608084013560558201526075016040516020818303038152906040528051906020012060001c90506000612cbb8261207d565b60008181526001808a01602052604090912001549091506001600160a01b031615612d285760405162461bcd60e51b815260206004820152601a60248201527f436f6e7465787420416c72656164792052656769737465726564000000000000604482015260640161047d565b60408085013560009081526003890160205220612d489060020182612bc0565b5060008181526001888101602052604091829020918601358255810180546001600160a01b0319166001600160a01b038516179055612d8d60e0860160c08701613997565b600182018054911515600160a01b0260ff60a01b1990921691909117905560005b8681101561301457886002016000898984818110612dce57612dce613ab4565b9050602002810190612de09190613b03565b35815260208101919091526040016000208054612dfc906139df565b9050600003612e1d5760405162461bcd60e51b815260040161047d90613a3c565b60005b888883818110612e3257612e32613ab4565b9050602002810190612e449190613b03565b612e52906020810190613b23565b905081101561300157888883818110612e6d57612e6d613ab4565b9050602002810190612e7f9190613b03565b356002840160008b8b86818110612e9857612e98613ab4565b9050602002810190612eaa9190613b03565b612eb8906020810190613b23565b85818110612ec857612ec8613ab4565b9050602002016020810190612edd9190613b8e565b6001600160e01b0319168152602081019190915260400160002055888883818110612f0a57612f0a613ab4565b9050602002810190612f1c9190613b03565b612f2d906060810190604001613997565b612f38576002612f3b565b60015b8360020160008b8b86818110612f5357612f53613ab4565b9050602002810190612f659190613b03565b612f73906020810190613b23565b85818110612f8357612f83613ab4565b9050602002016020810190612f989190613b8e565b6001600160e01b0319168152602081019190915260400160002060019081018054909160ff1990911690836002811115612fd457612fd461391c565b0217905550612fee898984818110612b3357612b33613ab4565b5080612ff981613ba9565b915050612e20565b508061300c81613ba9565b915050612dae565b5090979650505050505050565b6000611978825490565b6000612bcc83836133c7565b60007f8b73c3c69bb8fe3d512ecc4cf759cc79239f7b179b0ffacaa9a75d522b39400f306001600160a01b03166375d0c0dc6040518163ffffffff1660e01b8152600401602060405180830381865afa158015613098573d6000803e3d6000fd5b505050506040513d601f19601f820116820180604052508101906130bc9190613a9b565b306001600160a01b031663a0a8e4606040518163ffffffff1660e01b8152600401602060405180830381865afa1580156130fa573d6000803e3d6000fd5b505050506040513d601f19601f8201168201806040525081019061311e9190613a9b565b60408051602081019490945283019190915260608201524660808201523060a082015260c00160405160208183030381529060405280519060200120905090565b6000807f7fffffffffffffffffffffffffffffff5d576e7357a4501ddfe92f46681b20a08311156131965750600090506003613243565b8460ff16601b141580156131ae57508460ff16601c14155b156131bf5750600090506004613243565b6040805160008082526020820180845289905260ff881692820192909252606081018690526080810185905260019060a0016020604051602081039080840390855afa158015613213573d6000803e3d6000fd5b5050604051601f1901519150506001600160a01b03811661323c57600060019250925050613243565b9150600090505b94509492505050565b6000806001600160ff1b0383168161326960ff86901c601b613bc2565b90506132778782888561315f565b935093505050935093915050565b60008181526001830160205260408120546132cc57508154600181810184556000848152602080822090930184905584548482528286019093526040902091909155611978565b506000611978565b600081815260018301602052604081205480156133bd5760006132f8600183613bd5565b855490915060009061330c90600190613bd5565b905081811461337157600086600001828154811061332c5761332c613ab4565b906000526020600020015490508087600001848154811061334f5761334f613ab4565b6000918252602080832090910192909255918252600188019052604090208390555b855486908061338257613382613be8565b600190038181906000526020600020016000905590558560010160008681526020019081526020016000206000905560019350505050611978565b6000915050611978565b60008260000182815481106133de576133de613ab4565b9060005260206000200154905092915050565b634e487b7160e01b600052604160045260246000fd5b600082601f83011261341857600080fd5b813567ffffffffffffffff80821115613433576134336133f1565b604051601f8301601f19908116603f0116810190828211818310171561345b5761345b6133f1565b8160405283815286602085880101111561347457600080fd5b836020870160208301376000602085830101528094505050505092915050565b600060a082840312156134a657600080fd5b50919050565b60008083601f8401126134be57600080fd5b50813567ffffffffffffffff8111156134d657600080fd5b6020830191508360208260051b850101111561207657600080fd5b600080600080600080610120878903121561350b57600080fd5b8635955060208701359450604087013567ffffffffffffffff8082111561353157600080fd5b61353d8a838b01613407565b955061354c8a60608b01613494565b945061010089013591508082111561356357600080fd5b5061357089828a016134ac565b979a9699509497509295939492505050565b6000806000806000610100868803121561359b57600080fd5b85359450602086013567ffffffffffffffff808211156135ba57600080fd5b6135c689838a01613407565b95506135d58960408a01613494565b945060e08801359150808211156135eb57600080fd5b506135f8888289016134ac565b969995985093965092949392505050565b60008060006060848603121561361e57600080fd5b505081359360208301359350604090920135919050565b80356001600160e01b03198116811461364d57600080fd5b919050565b6000806000806080858703121561366857600080fd5b843593506020850135925061367f60408601613635565b9396929550929360600135925050565b60008060008060008587036101408112156136a957600080fd5b86359550602087013567ffffffffffffffff808211156136c857600080fd5b6136d48a838b01613407565b965060e0603f19840112156136e857600080fd5b60408901955061012089013592508083111561370357600080fd5b50506135f8888289016134ac565b6000806000806080858703121561372757600080fd5b84359350602085013592506040850135915061374560608601613635565b905092959194509250565b6000806040838503121561376357600080fd5b50508035926020909101359150565b801515811461378057600080fd5b50565b60008060006060848603121561379857600080fd5b833592506020840135915060408401356137b181613772565b809150509250925092565b6000806000606084860312156137d157600080fd5b83359250602084013591506137e860408501613635565b90509250925092565b6020808252825182820181905260009190848201906040850190845b818110156138335783516001600160e01b0319168352928401929184019160010161380d565b50909695505050505050565b80356001600160a01b038116811461364d57600080fd5b60008060008060006080868803121561386e57600080fd5b8535945061387e6020870161383f565b935060408601359250606086013567ffffffffffffffff8111156138a157600080fd5b6135f8888289016134ac565b6000602082840312156138bf57600080fd5b8151612bcc81613772565b60208082526017908201527f536166654d6f64653a2043616c6c2052656a6563746564000000000000000000604082015260600190565b60006020828403121561391357600080fd5b612bcc8261383f565b634e487b7160e01b600052602160045260246000fd5b60208082526018908201527f496c6c6567616c20454344415341205369676e61747572650000000000000000604082015260600190565b93845260208401929092526001600160a01b031660408301526001600160e01b031916606082015260800190565b6000602082840312156139a957600080fd5b8135612bcc81613772565b60208082526011908201527010dbdb9d195e1d08139bdd08119bdd5b99607a1b604082015260600190565b600181811c908216806139f357607f821691505b6020821081036134a657634e487b7160e01b600052602260045260246000fd5b6020808252600f908201526e1499585b1b48139bdd08119bdd5b99608a1b604082015260600190565b6020808252600e908201526d149bdb1948139bdd08119bdd5b9960921b604082015260600190565b6020808252601a908201527f46756e6374696f6e53656c6563746f72204e6f7420466f756e64000000000000604082015260600190565b600060208284031215613aad57600080fd5b5051919050565b634e487b7160e01b600052603260045260246000fd5b634e487b7160e01b600052601160045260246000fd5b600063ffffffff808316818103613af957613af9613aca565b6001019392505050565b60008235605e19833603018112613b1957600080fd5b9190910192915050565b6000808335601e19843603018112613b3a57600080fd5b83018035915067ffffffffffffffff821115613b5557600080fd5b6020019150600581901b360382131561207657600080fd5b600060208284031215613b7f57600080fd5b813560038110612bcc57600080fd5b600060208284031215613ba057600080fd5b612bcc82613635565b600060018201613bbb57613bbb613aca565b5060010190565b8082018082111561197857611978613aca565b8181038181111561197857611978613aca565b634e487b7160e01b600052603160045260246000fdfea26469706673582212207632350e143cb694ccb8dc1e38d5070d2d08229f885d1982e7401977b33f41b964736f6c63430008110033",
  "linkReferences": {
    "src/contracts/lib/acl/LAccessControl.sol": {
      "LAccessControl": [
        {
          "length": 20,
          "start": 1438
        },
        {
          "length": 20,
          "start": 1944
        },
        {
          "length": 20,
          "start": 2407
        },
        {
          "length": 20,
          "start": 3163
        },
        {
          "length": 20,
          "start": 4082
        },
        {
          "length": 20,
          "start": 4457
        },
        {
          "length": 20,
          "start": 5147
        },
        {
          "length": 20,
          "start": 6716
        },
        {
          "length": 20,
          "start": 7276
        }
      ]
    }
  },
  "deployedLinkReferences": {
    "src/contracts/lib/acl/LAccessControl.sol": {
      "LAccessControl": [
        {
          "length": 20,
          "start": 1380
        },
        {
          "length": 20,
          "start": 1886
        },
        {
          "length": 20,
          "start": 2349
        },
        {
          "length": 20,
          "start": 3105
        },
        {
          "length": 20,
          "start": 4024
        },
        {
          "length": 20,
          "start": 4399
        },
        {
          "length": 20,
          "start": 5089
        },
        {
          "length": 20,
          "start": 6658
        },
        {
          "length": 20,
          "start": 7218
        }
      ]
    }
  },
  "devdoc": {
    "kind": "dev",
    "methods": {},
    "version": 1
  },
  "evm": {
    "bytecode": {
      "linkReferences": {
        "src/contracts/lib/acl/LAccessControl.sol": {
          "LAccessControl": [
            {
              "length": 20,
              "start": 1438
            },
            {
              "length": 20,
              "start": 1944
            },
            {
              "length": 20,
              "start": 2407
            },
            {
              "length": 20,
              "start": 3163
            },
            {
              "length": 20,
              "start": 4082
            },
            {
              "length": 20,
              "start": 4457
            },
            {
              "length": 20,
              "start": 5147
            },
            {
              "length": 20,
              "start": 6716
            },
            {
              "length": 20,
              "start": 7276
            }
          ]
        }
      },
      "opcodes": "PUSH2 0x3C34 PUSH2 0x3A PUSH1 0xB DUP3 DUP3 DUP3 CODECOPY DUP1 MLOAD PUSH1 0x0 BYTE PUSH1 0x73 EQ PUSH2 0x2D JUMPI PUSH4 0x4E487B71 PUSH1 0xE0 SHL PUSH1 0x0 MSTORE PUSH1 0x0 PUSH1 0x4 MSTORE PUSH1 0x24 PUSH1 0x0 REVERT JUMPDEST ADDRESS PUSH1 0x0 MSTORE PUSH1 0x73 DUP2 MSTORE8 DUP3 DUP2 RETURN INVALID PUSH20 0x0 ADDRESS EQ PUSH1 0x80 PUSH1 0x40 MSTORE PUSH1 0x4 CALLDATASIZE LT PUSH2 0x120 JUMPI PUSH1 0x0 CALLDATALOAD PUSH1 0xE0 SHR DUP1 PUSH4 0x64D4C819 GT PUSH2 0xAC JUMPI DUP1 PUSH4 0xB0C25575 GT PUSH2 0x7B JUMPI DUP1 PUSH4 0xB0C25575 EQ PUSH2 0x36C JUMPI DUP1 PUSH4 0xBEC94751 EQ PUSH2 0x38C JUMPI DUP1 PUSH4 0xEC77EB21 EQ PUSH2 0x394 JUMPI DUP1 PUSH4 0xF0B15DEF EQ PUSH2 0x3B4 JUMPI DUP1 PUSH4 0xFAEE6718 EQ PUSH2 0x3DB JUMPI PUSH1 0x0 DUP1 REVERT JUMPDEST DUP1 PUSH4 0x64D4C819 EQ PUSH2 0x29B JUMPI DUP1 PUSH4 0x7134BB45 EQ PUSH2 0x2C2 JUMPI DUP1 PUSH4 0x733AE93E EQ PUSH2 0x2E5 JUMPI DUP1 PUSH4 0x7CC5941D EQ PUSH2 0x34C JUMPI PUSH1 0x0 DUP1 REVERT JUMPDEST DUP1 PUSH4 0x3E015EF6 GT PUSH2 0xF3 JUMPI DUP1 PUSH4 0x3E015EF6 EQ PUSH2 0x1E4 JUMPI DUP1 PUSH4 0x453DD6DC EQ PUSH2 0x21B JUMPI DUP1 PUSH4 0x4AC3FDD4 EQ PUSH2 0x23B JUMPI DUP1 PUSH4 0x518BF960 EQ PUSH2 0x25B JUMPI DUP1 PUSH4 0x5ACD816A EQ PUSH2 0x27B JUMPI PUSH1 0x0 DUP1 REVERT JUMPDEST DUP1 PUSH4 0x99A0C2E EQ PUSH2 0x125 JUMPI DUP1 PUSH4 0x15922EFE EQ PUSH2 0x16A JUMPI DUP1 PUSH4 0x2466209B EQ PUSH2 0x1A7 JUMPI DUP1 PUSH4 0x34109DE2 EQ PUSH2 0x1BD JUMPI JUMPDEST PUSH1 0x0 DUP1 REVERT JUMPDEST DUP2 DUP1 ISZERO PUSH2 0x131 JUMPI PUSH1 0x0 DUP1 REVERT JUMPDEST POP PUSH2 0x145 PUSH2 0x140 CALLDATASIZE PUSH1 0x4 PUSH2 0x34F1 JUMP JUMPDEST PUSH2 0x3FB JUMP JUMPDEST PUSH1 0x40 DUP1 MLOAD PUSH1 0x1 PUSH1 0x1 PUSH1 0xA0 SHL SUB SWAP4 DUP5 AND DUP2 MSTORE SWAP3 SWAP1 SWAP2 AND PUSH1 0x20 DUP4 ADD MSTORE ADD JUMPDEST PUSH1 0x40 MLOAD DUP1 SWAP2 SUB SWAP1 RETURN JUMPDEST DUP2 DUP1 ISZERO PUSH2 0x176 JUMPI PUSH1 0x0 DUP1 REVERT JUMPDEST POP PUSH2 0x18A PUSH2 0x185 CALLDATASIZE PUSH1 0x4 PUSH2 0x3582 JUMP JUMPDEST PUSH2 0x673 JUMP JUMPDEST PUSH1 0x40 DUP1 MLOAD SWAP3 DUP4 MSTORE PUSH1 0x1 PUSH1 0x1 PUSH1 0xA0 SHL SUB SWAP1 SWAP2 AND PUSH1 0x20 DUP4 ADD MSTORE ADD PUSH2 0x161 JUMP JUMPDEST PUSH2 0x1AF PUSH2 0x87B JUMP JUMPDEST PUSH1 0x40 MLOAD SWAP1 DUP2 MSTORE PUSH1 0x20 ADD PUSH2 0x161 JUMP JUMPDEST PUSH2 0x1AF PUSH32 0x7AABE2571874F2A330EA11C8972D9CC3792D973EFC6B36E3E29005861A344188 DUP2 JUMP JUMPDEST DUP2 DUP1 ISZERO PUSH2 0x1F0 JUMPI PUSH1 0x0 DUP1 REVERT JUMPDEST POP PUSH2 0x204 PUSH2 0x1FF CALLDATASIZE PUSH1 0x4 PUSH2 0x3609 JUMP JUMPDEST PUSH2 0x8A9 JUMP JUMPDEST PUSH1 0x40 DUP1 MLOAD SWAP3 ISZERO ISZERO DUP4 MSTORE PUSH1 0x20 DUP4 ADD SWAP2 SWAP1 SWAP2 MSTORE ADD PUSH2 0x161 JUMP JUMPDEST DUP2 DUP1 ISZERO PUSH2 0x227 JUMPI PUSH1 0x0 DUP1 REVERT JUMPDEST POP PUSH2 0x1AF PUSH2 0x236 CALLDATASIZE PUSH1 0x4 PUSH2 0x3652 JUMP JUMPDEST PUSH2 0xB9E JUMP JUMPDEST DUP2 DUP1 ISZERO PUSH2 0x247 JUMPI PUSH1 0x0 DUP1 REVERT JUMPDEST POP PUSH2 0x18A PUSH2 0x256 CALLDATASIZE PUSH1 0x4 PUSH2 0x368F JUMP JUMPDEST PUSH2 0xE62 JUMP JUMPDEST DUP2 DUP1 ISZERO PUSH2 0x267 JUMPI PUSH1 0x0 DUP1 REVERT JUMPDEST POP PUSH2 0x1AF PUSH2 0x276 CALLDATASIZE PUSH1 0x4 PUSH2 0x3652 JUMP JUMPDEST PUSH2 0x10AC JUMP JUMPDEST DUP2 DUP1 ISZERO PUSH2 0x287 JUMPI PUSH1 0x0 DUP1 REVERT JUMPDEST POP PUSH2 0x1AF PUSH2 0x296 CALLDATASIZE PUSH1 0x4 PUSH2 0x3652 JUMP JUMPDEST PUSH2 0x135E JUMP JUMPDEST PUSH2 0x1AF PUSH32 0x8B73C3C69BB8FE3D512ECC4CF759CC79239F7B179B0FFACAA9A75D522B39400F DUP2 JUMP JUMPDEST PUSH2 0x2D5 PUSH2 0x2D0 CALLDATASIZE PUSH1 0x4 PUSH2 0x3711 JUMP JUMPDEST PUSH2 0x160B JUMP JUMPDEST PUSH1 0x40 MLOAD SWAP1 ISZERO ISZERO DUP2 MSTORE PUSH1 0x20 ADD PUSH2 0x161 JUMP JUMPDEST PUSH2 0x2F8 PUSH2 0x2F3 CALLDATASIZE PUSH1 0x4 PUSH2 0x3750 JUMP JUMPDEST PUSH2 0x16B1 JUMP JUMPDEST PUSH1 0x40 MLOAD PUSH2 0x161 SWAP2 SWAP1 DUP2 MLOAD DUP2 MSTORE PUSH1 0x20 DUP1 DUP4 ADD MLOAD SWAP1 DUP3 ADD MSTORE PUSH1 0x40 DUP1 DUP4 ADD MLOAD SWAP1 DUP3 ADD MSTORE PUSH1 0x60 DUP1 DUP4 ADD MLOAD PUSH1 0x1 PUSH1 0x1 PUSH1 0xA0 SHL SUB AND SWAP1 DUP3 ADD MSTORE PUSH1 0x80 DUP1 DUP4 ADD MLOAD ISZERO ISZERO SWAP1 DUP3 ADD MSTORE PUSH1 0xA0 SWAP2 DUP3 ADD MLOAD ISZERO ISZERO SWAP2 DUP2 ADD SWAP2 SWAP1 SWAP2 MSTORE PUSH1 0xC0 ADD SWAP1 JUMP JUMPDEST DUP2 DUP1 ISZERO PUSH2 0x358 JUMPI PUSH1 0x0 DUP1 REVERT JUMPDEST POP PUSH2 0x204 PUSH2 0x367 CALLDATASIZE PUSH1 0x4 PUSH2 0x3783 JUMP JUMPDEST PUSH2 0x197E JUMP JUMPDEST DUP2 DUP1 ISZERO PUSH2 0x378 JUMPI PUSH1 0x0 DUP1 REVERT JUMPDEST POP PUSH2 0x1AF PUSH2 0x387 CALLDATASIZE PUSH1 0x4 PUSH2 0x37BC JUMP JUMPDEST PUSH2 0x1BAF JUMP JUMPDEST PUSH2 0x1AF PUSH2 0x1E47 JUMP JUMPDEST PUSH2 0x3A7 PUSH2 0x3A2 CALLDATASIZE PUSH1 0x4 PUSH2 0x3750 JUMP JUMPDEST PUSH2 0x1E6D JUMP JUMPDEST PUSH1 0x40 MLOAD PUSH2 0x161 SWAP2 SWAP1 PUSH2 0x37F1 JUMP JUMPDEST PUSH2 0x1AF PUSH32 0x210E35E86B887DE2DCEF95A381A8278F979CD7B7BBBE99972070D25497105646 DUP2 JUMP JUMPDEST DUP2 DUP1 ISZERO PUSH2 0x3E7 JUMPI PUSH1 0x0 DUP1 REVERT JUMPDEST POP PUSH2 0x1AF PUSH2 0x3F6 CALLDATASIZE PUSH1 0x4 PUSH2 0x3856 JUMP JUMPDEST PUSH2 0x1FA6 JUMP JUMPDEST PUSH1 0x0 DUP1 ADDRESS PUSH1 0x1 PUSH1 0x1 PUSH1 0xA0 SHL SUB AND PUSH4 0xBE22465D PUSH1 0x40 MLOAD DUP2 PUSH4 0xFFFFFFFF AND PUSH1 0xE0 SHL DUP2 MSTORE PUSH1 0x4 ADD PUSH1 0x20 PUSH1 0x40 MLOAD DUP1 DUP4 SUB DUP2 DUP7 GAS STATICCALL ISZERO DUP1 ISZERO PUSH2 0x43C JUMPI RETURNDATASIZE PUSH1 0x0 DUP1 RETURNDATACOPY RETURNDATASIZE PUSH1 0x0 REVERT JUMPDEST POP POP POP POP PUSH1 0x40 MLOAD RETURNDATASIZE PUSH1 0x1F NOT PUSH1 0x1F DUP3 ADD AND DUP3 ADD DUP1 PUSH1 0x40 MSTORE POP DUP2 ADD SWAP1 PUSH2 0x460 SWAP2 SWAP1 PUSH2 0x38AD JUMP JUMPDEST ISZERO PUSH2 0x486 JUMPI PUSH1 0x40 MLOAD PUSH3 0x461BCD PUSH1 0xE5 SHL DUP2 MSTORE PUSH1 0x4 ADD PUSH2 0x47D SWAP1 PUSH2 0x38CA JUMP JUMPDEST PUSH1 0x40 MLOAD DUP1 SWAP2 SUB SWAP1 REVERT JUMPDEST PUSH1 0x0 PUSH2 0x510 PUSH2 0x49B PUSH1 0x80 DUP9 ADD PUSH1 0x60 DUP10 ADD PUSH2 0x3901 JUMP JUMPDEST PUSH1 0x40 DUP1 MLOAD PUSH32 0x7AABE2571874F2A330EA11C8972D9CC3792D973EFC6B36E3E29005861A344188 PUSH1 0x20 DUP3 DUP2 ADD SWAP2 SWAP1 SWAP2 MSTORE PUSH1 0x1 PUSH1 0x1 PUSH1 0xA0 SHL SUB SWAP4 SWAP1 SWAP4 AND DUP2 DUP4 ADD MSTORE DUP10 CALLDATALOAD PUSH1 0x60 DUP3 ADD MSTORE DUP3 DUP11 ADD CALLDATALOAD PUSH1 0x80 DUP3 ADD MSTORE DUP2 DUP11 ADD CALLDATALOAD PUSH1 0xA0 DUP1 DUP4 ADD SWAP2 SWAP1 SWAP2 MSTORE DUP3 MLOAD DUP1 DUP4 SUB SWAP1 SWAP2 ADD DUP2 MSTORE PUSH1 0xC0 SWAP1 SWAP2 ADD SWAP1 SWAP2 MSTORE DUP1 MLOAD SWAP2 ADD KECCAK256 SWAP1 JUMP JUMPDEST SWAP1 POP PUSH1 0x0 PUSH2 0x51D DUP3 PUSH2 0x1FC1 JUMP JUMPDEST SWAP1 POP PUSH1 0x0 DUP1 PUSH2 0x52C DUP4 DUP12 PUSH2 0x200F JUMP JUMPDEST SWAP1 SWAP3 POP SWAP1 POP PUSH1 0x0 DUP2 PUSH1 0x4 DUP2 GT ISZERO PUSH2 0x545 JUMPI PUSH2 0x545 PUSH2 0x391C JUMP JUMPDEST EQ PUSH2 0x562 JUMPI PUSH1 0x40 MLOAD PUSH3 0x461BCD PUSH1 0xE5 SHL DUP2 MSTORE PUSH1 0x4 ADD PUSH2 0x47D SWAP1 PUSH2 0x3932 JUMP JUMPDEST PUSH20 0x0 PUSH4 0x487C6960 DUP14 PUSH2 0x586 ADDRESS PUSH2 0x207D JUMP JUMPDEST PUSH1 0x40 MLOAD PUSH1 0x1 PUSH1 0x1 PUSH1 0xE0 SHL SUB NOT PUSH1 0xE0 DUP6 SWAP1 SHL AND DUP2 MSTORE PUSH2 0x5B3 SWAP3 SWAP2 SWAP1 DUP8 SWAP1 PUSH4 0x1CCB7C8D PUSH1 0xE3 SHL SWAP1 PUSH1 0x4 ADD PUSH2 0x3969 JUMP JUMPDEST PUSH1 0x20 PUSH1 0x40 MLOAD DUP1 DUP4 SUB DUP2 DUP7 GAS DELEGATECALL ISZERO DUP1 ISZERO PUSH2 0x5D0 JUMPI RETURNDATASIZE PUSH1 0x0 DUP1 RETURNDATACOPY RETURNDATASIZE PUSH1 0x0 REVERT JUMPDEST POP POP POP POP PUSH1 0x40 MLOAD RETURNDATASIZE PUSH1 0x1F NOT PUSH1 0x1F DUP3 ADD AND DUP3 ADD DUP1 PUSH1 0x40 MSTORE POP DUP2 ADD SWAP1 PUSH2 0x5F4 SWAP2 SWAP1 PUSH2 0x38AD JUMP JUMPDEST PUSH2 0x640 JUMPI PUSH1 0x40 MLOAD PUSH3 0x461BCD PUSH1 0xE5 SHL DUP2 MSTORE PUSH1 0x20 PUSH1 0x4 DUP3 ADD MSTORE PUSH1 0x1B PUSH1 0x24 DUP3 ADD MSTORE PUSH32 0x557064617465436F6E74657874204163636573732044656E6965640000000000 PUSH1 0x44 DUP3 ADD MSTORE PUSH1 0x64 ADD PUSH2 0x47D JUMP JUMPDEST PUSH2 0x661 DUP13 DUP13 PUSH1 0x40 DUP13 ADD CALLDATALOAD PUSH2 0x65A PUSH1 0xA0 DUP15 ADD PUSH1 0x80 DUP16 ADD PUSH2 0x3997 JUMP JUMPDEST DUP13 DUP13 PUSH2 0x20BC JUMP JUMPDEST SWAP13 SWAP2 SWAP12 POP SWAP1 SWAP10 POP POP POP POP POP POP POP POP POP POP JUMP JUMPDEST PUSH1 0x0 DUP1 ADDRESS PUSH1 0x1 PUSH1 0x1 PUSH1 0xA0 SHL SUB AND PUSH4 0xBE22465D PUSH1 0x40 MLOAD DUP2 PUSH4 0xFFFFFFFF AND PUSH1 0xE0 SHL DUP2 MSTORE PUSH1 0x4 ADD PUSH1 0x20 PUSH1 0x40 MLOAD DUP1 DUP4 SUB DUP2 DUP7 GAS STATICCALL ISZERO DUP1 ISZERO PUSH2 0x6B4 JUMPI RETURNDATASIZE PUSH1 0x0 DUP1 RETURNDATACOPY RETURNDATASIZE PUSH1 0x0 REVERT JUMPDEST POP POP POP POP PUSH1 0x40 MLOAD RETURNDATASIZE PUSH1 0x1F NOT PUSH1 0x1F DUP3 ADD AND DUP3 ADD DUP1 PUSH1 0x40 MSTORE POP DUP2 ADD SWAP1 PUSH2 0x6D8 SWAP2 SWAP1 PUSH2 0x38AD JUMP JUMPDEST ISZERO PUSH2 0x6F5 JUMPI PUSH1 0x40 MLOAD PUSH3 0x461BCD PUSH1 0xE5 SHL DUP2 MSTORE PUSH1 0x4 ADD PUSH2 0x47D SWAP1 PUSH2 0x38CA JUMP JUMPDEST PUSH1 0x0 PUSH2 0x70A PUSH2 0x49B PUSH1 0x80 DUP9 ADD PUSH1 0x60 DUP10 ADD PUSH2 0x3901 JUMP JUMPDEST SWAP1 POP PUSH1 0x0 PUSH2 0x717 DUP3 PUSH2 0x1FC1 JUMP JUMPDEST SWAP1 POP PUSH1 0x0 DUP1 PUSH2 0x726 DUP4 DUP12 PUSH2 0x200F JUMP JUMPDEST SWAP1 SWAP3 POP SWAP1 POP PUSH1 0x0 DUP2 PUSH1 0x4 DUP2 GT ISZERO PUSH2 0x73F JUMPI PUSH2 0x73F PUSH2 0x391C JUMP JUMPDEST EQ PUSH2 0x75C JUMPI PUSH1 0x40 MLOAD PUSH3 0x461BCD PUSH1 0xE5 SHL DUP2 MSTORE PUSH1 0x4 ADD PUSH2 0x47D SWAP1 PUSH2 0x3932 JUMP JUMPDEST PUSH20 0x0 PUSH4 0x487C6960 DUP13 PUSH2 0x780 ADDRESS PUSH2 0x207D JUMP JUMPDEST PUSH1 0x40 MLOAD PUSH1 0x1 PUSH1 0x1 PUSH1 0xE0 SHL SUB NOT PUSH1 0xE0 DUP6 SWAP1 SHL AND DUP2 MSTORE PUSH2 0x7AD SWAP3 SWAP2 SWAP1 DUP8 SWAP1 PUSH4 0x78EFA4ED PUSH1 0xE1 SHL SWAP1 PUSH1 0x4 ADD PUSH2 0x3969 JUMP JUMPDEST PUSH1 0x20 PUSH1 0x40 MLOAD DUP1 DUP4 SUB DUP2 DUP7 GAS DELEGATECALL ISZERO DUP1 ISZERO PUSH2 0x7CA JUMPI RETURNDATASIZE PUSH1 0x0 DUP1 RETURNDATACOPY RETURNDATASIZE PUSH1 0x0 REVERT JUMPDEST POP POP POP POP PUSH1 0x40 MLOAD RETURNDATASIZE PUSH1 0x1F NOT PUSH1 0x1F DUP3 ADD AND DUP3 ADD DUP1 PUSH1 0x40 MSTORE POP DUP2 ADD SWAP1 PUSH2 0x7EE SWAP2 SWAP1 PUSH2 0x38AD JUMP JUMPDEST PUSH2 0x83A JUMPI PUSH1 0x40 MLOAD PUSH3 0x461BCD PUSH1 0xE5 SHL DUP2 MSTORE PUSH1 0x20 PUSH1 0x4 DUP3 ADD MSTORE PUSH1 0x1D PUSH1 0x24 DUP3 ADD MSTORE PUSH32 0x5265676973746572436F6E74657874204163636573732044656E696564000000 PUSH1 0x44 DUP3 ADD MSTORE PUSH1 0x64 ADD PUSH2 0x47D JUMP JUMPDEST PUSH2 0x86A DUP12 PUSH2 0x84E PUSH1 0x80 DUP13 ADD PUSH1 0x60 DUP14 ADD PUSH2 0x3901 JUMP JUMPDEST PUSH1 0x40 DUP13 ADD CALLDATALOAD PUSH2 0x863 PUSH1 0xA0 DUP15 ADD PUSH1 0x80 DUP16 ADD PUSH2 0x3997 JUMP JUMPDEST DUP13 DUP13 PUSH2 0x27E3 JUMP JUMPDEST SWAP12 SWAP2 SWAP11 POP SWAP1 SWAP9 POP POP POP POP POP POP POP POP POP JUMP JUMPDEST PUSH1 0x40 MLOAD PUSH5 0x312E302E3 PUSH1 0xDC SHL PUSH1 0x20 DUP3 ADD MSTORE PUSH1 0x25 ADD JUMPDEST PUSH1 0x40 MLOAD PUSH1 0x20 DUP2 DUP4 SUB SUB DUP2 MSTORE SWAP1 PUSH1 0x40 MSTORE DUP1 MLOAD SWAP1 PUSH1 0x20 ADD KECCAK256 DUP2 JUMP JUMPDEST PUSH1 0x0 DUP1 ADDRESS PUSH1 0x1 PUSH1 0x1 PUSH1 0xA0 SHL SUB AND PUSH4 0xBE22465D PUSH1 0x40 MLOAD DUP2 PUSH4 0xFFFFFFFF AND PUSH1 0xE0 SHL DUP2 MSTORE PUSH1 0x4 ADD PUSH1 0x20 PUSH1 0x40 MLOAD DUP1 DUP4 SUB DUP2 DUP7 GAS STATICCALL ISZERO DUP1 ISZERO PUSH2 0x8EA JUMPI RETURNDATASIZE PUSH1 0x0 DUP1 RETURNDATACOPY RETURNDATASIZE PUSH1 0x0 REVERT JUMPDEST POP POP POP POP PUSH1 0x40 MLOAD RETURNDATASIZE PUSH1 0x1F NOT PUSH1 0x1F DUP3 ADD AND DUP3 ADD DUP1 PUSH1 0x40 MSTORE POP DUP2 ADD SWAP1 PUSH2 0x90E SWAP2 SWAP1 PUSH2 0x38AD JUMP JUMPDEST ISZERO PUSH2 0x92B JUMPI PUSH1 0x40 MLOAD PUSH3 0x461BCD PUSH1 0xE5 SHL DUP2 MSTORE PUSH1 0x4 ADD PUSH2 0x47D SWAP1 PUSH2 0x38CA JUMP JUMPDEST PUSH20 0x0 PUSH4 0x487C6960 DUP7 PUSH2 0x94F ADDRESS PUSH2 0x207D JUMP JUMPDEST PUSH1 0x40 MLOAD PUSH1 0x1 PUSH1 0x1 PUSH1 0xE0 SHL SUB NOT PUSH1 0xE0 DUP6 SWAP1 SHL AND DUP2 MSTORE PUSH2 0x97C SWAP3 SWAP2 SWAP1 CALLER SWAP1 PUSH4 0xD3386401 PUSH1 0xE0 SHL SWAP1 PUSH1 0x4 ADD PUSH2 0x3969 JUMP JUMPDEST PUSH1 0x20 PUSH1 0x40 MLOAD DUP1 DUP4 SUB DUP2 DUP7 GAS DELEGATECALL ISZERO DUP1 ISZERO PUSH2 0x999 JUMPI RETURNDATASIZE PUSH1 0x0 DUP1 RETURNDATACOPY RETURNDATASIZE PUSH1 0x0 REVERT JUMPDEST POP POP POP POP PUSH1 0x40 MLOAD RETURNDATASIZE PUSH1 0x1F NOT PUSH1 0x1F DUP3 ADD AND DUP3 ADD DUP1 PUSH1 0x40 MSTORE POP DUP2 ADD SWAP1 PUSH2 0x9BD SWAP2 SWAP1 PUSH2 0x38AD JUMP JUMPDEST PUSH2 0xA09 JUMPI PUSH1 0x40 MLOAD PUSH3 0x461BCD PUSH1 0xE5 SHL DUP2 MSTORE PUSH1 0x20 PUSH1 0x4 DUP3 ADD MSTORE PUSH1 0x1D PUSH1 0x24 DUP3 ADD MSTORE PUSH32 0x536574436F6E746578745265616C6D204163636573732044656E696564000000 PUSH1 0x44 DUP3 ADD MSTORE PUSH1 0x64 ADD PUSH2 0x47D JUMP JUMPDEST DUP4 PUSH2 0xA13 ADDRESS PUSH2 0x207D JUMP JUMPDEST SUB PUSH2 0xA60 JUMPI PUSH1 0x40 MLOAD PUSH3 0x461BCD PUSH1 0xE5 SHL DUP2 MSTORE PUSH1 0x20 PUSH1 0x4 DUP3 ADD DUP2 SWAP1 MSTORE PUSH1 0x24 DUP3 ADD MSTORE PUSH32 0x496C6C6567616C204368616E67652041434C20436F6E74657874205265616C6D PUSH1 0x44 DUP3 ADD MSTORE PUSH1 0x64 ADD PUSH2 0x47D JUMP JUMPDEST PUSH1 0x0 DUP5 DUP2 MSTORE PUSH1 0x1 DUP1 DUP8 ADD PUSH1 0x20 MSTORE PUSH1 0x40 SWAP1 SWAP2 KECCAK256 ADD SLOAD PUSH1 0x1 PUSH1 0x1 PUSH1 0xA0 SHL SUB AND PUSH2 0xA99 JUMPI PUSH1 0x40 MLOAD PUSH3 0x461BCD PUSH1 0xE5 SHL DUP2 MSTORE PUSH1 0x4 ADD PUSH2 0x47D SWAP1 PUSH2 0x39B4 JUMP JUMPDEST PUSH1 0x0 DUP4 DUP2 MSTORE PUSH1 0x3 DUP7 ADD PUSH1 0x20 MSTORE PUSH1 0x40 SWAP1 KECCAK256 DUP1 SLOAD PUSH2 0xAB4 SWAP1 PUSH2 0x39DF JUMP JUMPDEST SWAP1 POP PUSH1 0x0 SUB PUSH2 0xAD5 JUMPI PUSH1 0x40 MLOAD PUSH3 0x461BCD PUSH1 0xE5 SHL DUP2 MSTORE PUSH1 0x4 ADD PUSH2 0x47D SWAP1 PUSH2 0x3A13 JUMP JUMPDEST PUSH1 0x0 DUP5 DUP2 MSTORE PUSH1 0x1 DUP7 ADD PUSH1 0x20 MSTORE PUSH1 0x40 SWAP1 KECCAK256 SLOAD DUP4 SWAP1 SUB PUSH2 0xB35 JUMPI PUSH1 0x40 MLOAD PUSH3 0x461BCD PUSH1 0xE5 SHL DUP2 MSTORE PUSH1 0x20 PUSH1 0x4 DUP3 ADD MSTORE PUSH1 0x19 PUSH1 0x24 DUP3 ADD MSTORE PUSH32 0x496C6C6567616C205265616C6D204475706C69636174696F6E00000000000000 PUSH1 0x44 DUP3 ADD MSTORE PUSH1 0x64 ADD PUSH2 0x47D JUMP JUMPDEST PUSH1 0x0 DUP5 DUP2 MSTORE PUSH1 0x1 DUP7 ADD PUSH1 0x20 SWAP1 DUP2 MSTORE PUSH1 0x40 DUP1 DUP4 KECCAK256 SLOAD DUP7 DUP5 MSTORE PUSH1 0x3 DUP10 ADD SWAP1 SWAP3 MSTORE SWAP1 SWAP2 KECCAK256 PUSH2 0xB63 SWAP1 PUSH1 0x2 ADD DUP7 PUSH2 0x2BC0 JUMP JUMPDEST POP PUSH1 0x0 DUP6 DUP2 MSTORE PUSH1 0x1 DUP8 ADD PUSH1 0x20 SWAP1 DUP2 MSTORE PUSH1 0x40 DUP1 DUP4 KECCAK256 SLOAD DUP4 MSTORE PUSH1 0x3 DUP10 ADD SWAP1 SWAP2 MSTORE SWAP1 KECCAK256 PUSH2 0xB90 SWAP1 PUSH1 0x2 ADD DUP7 PUSH2 0x2BD3 JUMP JUMPDEST POP PUSH1 0x1 SWAP7 SWAP1 SWAP6 POP SWAP4 POP POP POP POP JUMP JUMPDEST PUSH1 0x0 ADDRESS PUSH1 0x1 PUSH1 0x1 PUSH1 0xA0 SHL SUB AND PUSH4 0xBE22465D PUSH1 0x40 MLOAD DUP2 PUSH4 0xFFFFFFFF AND PUSH1 0xE0 SHL DUP2 MSTORE PUSH1 0x4 ADD PUSH1 0x20 PUSH1 0x40 MLOAD DUP1 DUP4 SUB DUP2 DUP7 GAS STATICCALL ISZERO DUP1 ISZERO PUSH2 0xBDE JUMPI RETURNDATASIZE PUSH1 0x0 DUP1 RETURNDATACOPY RETURNDATASIZE PUSH1 0x0 REVERT JUMPDEST POP POP POP POP PUSH1 0x40 MLOAD RETURNDATASIZE PUSH1 0x1F NOT PUSH1 0x1F DUP3 ADD AND DUP3 ADD DUP1 PUSH1 0x40 MSTORE POP DUP2 ADD SWAP1 PUSH2 0xC02 SWAP2 SWAP1 PUSH2 0x38AD JUMP JUMPDEST ISZERO PUSH2 0xC1F JUMPI PUSH1 0x40 MLOAD PUSH3 0x461BCD PUSH1 0xE5 SHL DUP2 MSTORE PUSH1 0x4 ADD PUSH2 0x47D SWAP1 PUSH2 0x38CA JUMP JUMPDEST PUSH20 0x0 PUSH4 0x487C6960 DUP7 PUSH2 0xC43 ADDRESS PUSH2 0x207D JUMP JUMPDEST PUSH1 0x40 MLOAD PUSH1 0x1 PUSH1 0x1 PUSH1 0xE0 SHL SUB NOT PUSH1 0xE0 DUP6 SWAP1 SHL AND DUP2 MSTORE PUSH2 0xC70 SWAP3 SWAP2 SWAP1 CALLER SWAP1 PUSH4 0x771BCF45 PUSH1 0xE0 SHL SWAP1 PUSH1 0x4 ADD PUSH2 0x3969 JUMP JUMPDEST PUSH1 0x20 PUSH1 0x40 MLOAD DUP1 DUP4 SUB DUP2 DUP7 GAS DELEGATECALL ISZERO DUP1 ISZERO PUSH2 0xC8D JUMPI RETURNDATASIZE PUSH1 0x0 DUP1 RETURNDATACOPY RETURNDATASIZE PUSH1 0x0 REVERT JUMPDEST POP POP POP POP PUSH1 0x40 MLOAD RETURNDATASIZE PUSH1 0x1F NOT PUSH1 0x1F DUP3 ADD AND DUP3 ADD DUP1 PUSH1 0x40 MSTORE POP DUP2 ADD SWAP1 PUSH2 0xCB1 SWAP2 SWAP1 PUSH2 0x38AD JUMP JUMPDEST PUSH2 0xCFD JUMPI PUSH1 0x40 MLOAD PUSH3 0x461BCD PUSH1 0xE5 SHL DUP2 MSTORE PUSH1 0x20 PUSH1 0x4 DUP3 ADD MSTORE PUSH1 0x1E PUSH1 0x24 DUP3 ADD MSTORE PUSH32 0x4772616E74436F6E74657874526F6C65204163636573732044656E6965640000 PUSH1 0x44 DUP3 ADD MSTORE PUSH1 0x64 ADD PUSH2 0x47D JUMP JUMPDEST DUP4 PUSH2 0xD07 ADDRESS PUSH2 0x207D JUMP JUMPDEST SUB PUSH2 0xD54 JUMPI PUSH1 0x40 MLOAD PUSH3 0x461BCD PUSH1 0xE5 SHL DUP2 MSTORE PUSH1 0x20 PUSH1 0x4 DUP3 ADD MSTORE PUSH1 0x19 PUSH1 0x24 DUP3 ADD MSTORE PUSH32 0x496C6C6567616C204772616E742041434C20436F6E7465787400000000000000 PUSH1 0x44 DUP3 ADD MSTORE PUSH1 0x64 ADD PUSH2 0x47D JUMP JUMPDEST PUSH1 0x0 DUP5 DUP2 MSTORE PUSH1 0x1 DUP1 DUP8 ADD PUSH1 0x20 MSTORE PUSH1 0x40 SWAP1 SWAP2 KECCAK256 ADD SLOAD PUSH1 0x1 PUSH1 0x1 PUSH1 0xA0 SHL SUB AND PUSH2 0xD8D JUMPI PUSH1 0x40 MLOAD PUSH3 0x461BCD PUSH1 0xE5 SHL DUP2 MSTORE PUSH1 0x4 ADD PUSH2 0x47D SWAP1 PUSH2 0x39B4 JUMP JUMPDEST PUSH1 0x0 DUP3 DUP2 MSTORE PUSH1 0x2 DUP7 ADD PUSH1 0x20 MSTORE PUSH1 0x40 SWAP1 KECCAK256 DUP1 SLOAD PUSH2 0xDA8 SWAP1 PUSH2 0x39DF JUMP JUMPDEST SWAP1 POP PUSH1 0x0 SUB PUSH2 0xDC9 JUMPI PUSH1 0x40 MLOAD PUSH3 0x461BCD PUSH1 0xE5 SHL DUP2 MSTORE PUSH1 0x4 ADD PUSH2 0x47D SWAP1 PUSH2 0x3A3C JUMP JUMPDEST PUSH1 0x0 DUP5 DUP2 MSTORE PUSH1 0x1 DUP7 ADD PUSH1 0x20 MSTORE PUSH1 0x40 SWAP1 KECCAK256 PUSH2 0xDF0 SWAP1 PUSH1 0x3 ADD PUSH1 0x1 PUSH1 0x1 PUSH1 0xE0 SHL SUB NOT DUP6 AND PUSH2 0x2BDF JUMP JUMPDEST PUSH2 0xE0C JUMPI PUSH1 0x40 MLOAD PUSH3 0x461BCD PUSH1 0xE5 SHL DUP2 MSTORE PUSH1 0x4 ADD PUSH2 0x47D SWAP1 PUSH2 0x3A64 JUMP JUMPDEST PUSH1 0x0 DUP5 DUP2 MSTORE PUSH1 0x1 DUP7 DUP2 ADD PUSH1 0x20 SWAP1 DUP2 MSTORE PUSH1 0x40 DUP1 DUP5 KECCAK256 PUSH1 0x1 PUSH1 0x1 PUSH1 0xE0 SHL SUB NOT DUP9 AND DUP6 MSTORE PUSH1 0x2 ADD SWAP1 SWAP2 MSTORE SWAP1 SWAP2 KECCAK256 DUP4 DUP2 SSTORE DUP2 ADD DUP1 SLOAD PUSH1 0xFF NOT AND DUP3 DUP1 JUMPDEST MUL OR SWAP1 SSTORE POP POP POP PUSH1 0x0 SWAP2 DUP3 MSTORE POP PUSH1 0x1 SWAP2 SWAP1 SWAP2 ADD PUSH1 0x20 MSTORE PUSH1 0x40 SWAP1 KECCAK256 SLOAD SWAP1 JUMP JUMPDEST PUSH1 0x0 DUP1 ADDRESS PUSH1 0x1 PUSH1 0x1 PUSH1 0xA0 SHL SUB AND PUSH4 0xBE22465D PUSH1 0x40 MLOAD DUP2 PUSH4 0xFFFFFFFF AND PUSH1 0xE0 SHL DUP2 MSTORE PUSH1 0x4 ADD PUSH1 0x20 PUSH1 0x40 MLOAD DUP1 DUP4 SUB DUP2 DUP7 GAS STATICCALL ISZERO DUP1 ISZERO PUSH2 0xEA3 JUMPI RETURNDATASIZE PUSH1 0x0 DUP1 RETURNDATACOPY RETURNDATASIZE PUSH1 0x0 REVERT JUMPDEST POP POP POP POP PUSH1 0x40 MLOAD RETURNDATASIZE PUSH1 0x1F NOT PUSH1 0x1F DUP3 ADD AND DUP3 ADD DUP1 PUSH1 0x40 MSTORE POP DUP2 ADD SWAP1 PUSH2 0xEC7 SWAP2 SWAP1 PUSH2 0x38AD JUMP JUMPDEST ISZERO PUSH2 0xEE4 JUMPI PUSH1 0x40 MLOAD PUSH3 0x461BCD PUSH1 0xE5 SHL DUP2 MSTORE PUSH1 0x4 ADD PUSH2 0x47D SWAP1 PUSH2 0x38CA JUMP JUMPDEST PUSH1 0x0 PUSH2 0xF64 PUSH2 0xEF9 PUSH1 0xC0 DUP9 ADD PUSH1 0xA0 DUP10 ADD PUSH2 0x3901 JUMP JUMPDEST PUSH1 0x40 DUP1 MLOAD PUSH32 0x210E35E86B887DE2DCEF95A381A8278F979CD7B7BBBE99972070D25497105646 PUSH1 0x20 DUP1 DUP4 ADD SWAP2 SWAP1 SWAP2 MSTORE PUSH1 0x1 PUSH1 0x1 PUSH1 0xA0 SHL SUB SWAP4 SWAP1 SWAP4 AND DUP2 DUP4 ADD MSTORE DUP2 DUP11 ADD CALLDATALOAD PUSH1 0x60 DUP3 ADD MSTORE PUSH1 0x80 DUP1 DUP12 ADD CALLDATALOAD DUP3 DUP3 ADD MSTORE DUP3 MLOAD DUP1 DUP4 SUB SWAP1 SWAP2 ADD DUP2 MSTORE PUSH1 0xA0 SWAP1 SWAP2 ADD SWAP1 SWAP2 MSTORE DUP1 MLOAD SWAP2 ADD KECCAK256 SWAP1 JUMP JUMPDEST SWAP1 POP PUSH1 0x0 PUSH2 0xF71 DUP3 PUSH2 0x1FC1 JUMP JUMPDEST SWAP1 POP PUSH1 0x0 DUP1 PUSH2 0xF80 DUP4 DUP12 PUSH2 0x200F JUMP JUMPDEST SWAP1 SWAP3 POP SWAP1 POP PUSH1 0x0 DUP2 PUSH1 0x4 DUP2 GT ISZERO PUSH2 0xF99 JUMPI PUSH2 0xF99 PUSH2 0x391C JUMP JUMPDEST EQ PUSH2 0xFB6 JUMPI PUSH1 0x40 MLOAD PUSH3 0x461BCD PUSH1 0xE5 SHL DUP2 MSTORE PUSH1 0x4 ADD PUSH2 0x47D SWAP1 PUSH2 0x3932 JUMP JUMPDEST PUSH20 0x0 PUSH4 0x487C6960 DUP13 PUSH2 0xFDA ADDRESS PUSH2 0x207D JUMP JUMPDEST PUSH1 0x40 MLOAD PUSH1 0x1 PUSH1 0x1 PUSH1 0xE0 SHL SUB NOT PUSH1 0xE0 DUP6 SWAP1 SHL AND DUP2 MSTORE PUSH2 0x1007 SWAP3 SWAP2 SWAP1 DUP8 SWAP1 PUSH4 0x78EFA4ED PUSH1 0xE1 SHL SWAP1 PUSH1 0x4 ADD PUSH2 0x3969 JUMP JUMPDEST PUSH1 0x20 PUSH1 0x40 MLOAD DUP1 DUP4 SUB DUP2 DUP7 GAS DELEGATECALL ISZERO DUP1 ISZERO PUSH2 0x1024 JUMPI RETURNDATASIZE PUSH1 0x0 DUP1 RETURNDATACOPY RETURNDATASIZE PUSH1 0x0 REVERT JUMPDEST POP POP POP POP PUSH1 0x40 MLOAD RETURNDATASIZE PUSH1 0x1F NOT PUSH1 0x1F DUP3 ADD AND DUP3 ADD DUP1 PUSH1 0x40 MSTORE POP DUP2 ADD SWAP1 PUSH2 0x1048 SWAP2 SWAP1 PUSH2 0x38AD JUMP JUMPDEST PUSH2 0x10A0 JUMPI PUSH1 0x40 MLOAD PUSH3 0x461BCD PUSH1 0xE5 SHL DUP2 MSTORE PUSH1 0x20 PUSH1 0x4 DUP3 ADD MSTORE PUSH1 0x24 DUP1 DUP3 ADD MSTORE PUSH32 0x526567697374657250726564696374436F6E7465787420416363657373204465 PUSH1 0x44 DUP3 ADD MSTORE PUSH4 0x1B9A5959 PUSH1 0xE2 SHL PUSH1 0x64 DUP3 ADD MSTORE PUSH1 0x84 ADD PUSH2 0x47D JUMP JUMPDEST PUSH2 0x86A DUP12 DUP10 DUP10 DUP13 PUSH2 0x2BF7 JUMP JUMPDEST PUSH1 0x0 ADDRESS PUSH1 0x1 PUSH1 0x1 PUSH1 0xA0 SHL SUB AND PUSH4 0xBE22465D PUSH1 0x40 MLOAD DUP2 PUSH4 0xFFFFFFFF AND PUSH1 0xE0 SHL DUP2 MSTORE PUSH1 0x4 ADD PUSH1 0x20 PUSH1 0x40 MLOAD DUP1 DUP4 SUB DUP2 DUP7 GAS STATICCALL ISZERO DUP1 ISZERO PUSH2 0x10EC JUMPI RETURNDATASIZE PUSH1 0x0 DUP1 RETURNDATACOPY RETURNDATASIZE PUSH1 0x0 REVERT JUMPDEST POP POP POP POP PUSH1 0x40 MLOAD RETURNDATASIZE PUSH1 0x1F NOT PUSH1 0x1F DUP3 ADD AND DUP3 ADD DUP1 PUSH1 0x40 MSTORE POP DUP2 ADD SWAP1 PUSH2 0x1110 SWAP2 SWAP1 PUSH2 0x38AD JUMP JUMPDEST ISZERO PUSH2 0x112D JUMPI PUSH1 0x40 MLOAD PUSH3 0x461BCD PUSH1 0xE5 SHL DUP2 MSTORE PUSH1 0x4 ADD PUSH2 0x47D SWAP1 PUSH2 0x38CA JUMP JUMPDEST PUSH20 0x0 PUSH4 0x487C6960 DUP7 PUSH2 0x1151 ADDRESS PUSH2 0x207D JUMP JUMPDEST PUSH1 0x40 MLOAD PUSH1 0x1 PUSH1 0x1 PUSH1 0xE0 SHL SUB NOT PUSH1 0xE0 DUP6 SWAP1 SHL AND DUP2 MSTORE PUSH2 0x117E SWAP3 SWAP2 SWAP1 CALLER SWAP1 PUSH4 0x31C0493 PUSH1 0xE0 SHL SWAP1 PUSH1 0x4 ADD PUSH2 0x3969 JUMP JUMPDEST PUSH1 0x20 PUSH1 0x40 MLOAD DUP1 DUP4 SUB DUP2 DUP7 GAS DELEGATECALL ISZERO DUP1 ISZERO PUSH2 0x119B JUMPI RETURNDATASIZE PUSH1 0x0 DUP1 RETURNDATACOPY RETURNDATASIZE PUSH1 0x0 REVERT JUMPDEST POP POP POP POP PUSH1 0x40 MLOAD RETURNDATASIZE PUSH1 0x1F NOT PUSH1 0x1F DUP3 ADD AND DUP3 ADD DUP1 PUSH1 0x40 MSTORE POP DUP2 ADD SWAP1 PUSH2 0x11BF SWAP2 SWAP1 PUSH2 0x38AD JUMP JUMPDEST PUSH2 0x120B JUMPI PUSH1 0x40 MLOAD PUSH3 0x461BCD PUSH1 0xE5 SHL DUP2 MSTORE PUSH1 0x20 PUSH1 0x4 DUP3 ADD DUP2 SWAP1 MSTORE PUSH1 0x24 DUP3 ADD MSTORE PUSH32 0x416464436F6E7465787446756E63526F6C65204163636573732044656E696564 PUSH1 0x44 DUP3 ADD MSTORE PUSH1 0x64 ADD PUSH2 0x47D JUMP JUMPDEST PUSH1 0x0 DUP5 DUP2 MSTORE PUSH1 0x1 DUP1 DUP8 ADD PUSH1 0x20 MSTORE PUSH1 0x40 SWAP1 SWAP2 KECCAK256 ADD SLOAD PUSH1 0x1 PUSH1 0x1 PUSH1 0xA0 SHL SUB AND PUSH2 0x1244 JUMPI PUSH1 0x40 MLOAD PUSH3 0x461BCD PUSH1 0xE5 SHL DUP2 MSTORE PUSH1 0x4 ADD PUSH2 0x47D SWAP1 PUSH2 0x39B4 JUMP JUMPDEST PUSH1 0x0 DUP3 DUP2 MSTORE PUSH1 0x2 DUP7 ADD PUSH1 0x20 MSTORE PUSH1 0x40 SWAP1 KECCAK256 DUP1 SLOAD PUSH2 0x125F SWAP1 PUSH2 0x39DF JUMP JUMPDEST SWAP1 POP PUSH1 0x0 SUB PUSH2 0x1280 JUMPI PUSH1 0x40 MLOAD PUSH3 0x461BCD PUSH1 0xE5 SHL DUP2 MSTORE PUSH1 0x4 ADD PUSH2 0x47D SWAP1 PUSH2 0x3A3C JUMP JUMPDEST PUSH1 0x0 DUP5 DUP2 MSTORE PUSH1 0x1 DUP7 ADD PUSH1 0x20 MSTORE PUSH1 0x40 SWAP1 KECCAK256 PUSH2 0x12A7 SWAP1 PUSH1 0x3 ADD PUSH1 0x1 PUSH1 0x1 PUSH1 0xE0 SHL SUB NOT DUP6 AND PUSH2 0x2BDF JUMP JUMPDEST ISZERO PUSH2 0x12F4 JUMPI PUSH1 0x40 MLOAD PUSH3 0x461BCD PUSH1 0xE5 SHL DUP2 MSTORE PUSH1 0x20 PUSH1 0x4 DUP3 ADD MSTORE PUSH1 0x1F PUSH1 0x24 DUP3 ADD MSTORE PUSH32 0x46756E6374696F6E53656C6563746F7220416C72656164792045786973747300 PUSH1 0x44 DUP3 ADD MSTORE PUSH1 0x64 ADD PUSH2 0x47D JUMP JUMPDEST PUSH1 0x0 DUP5 DUP2 MSTORE PUSH1 0x1 DUP7 DUP2 ADD PUSH1 0x20 DUP2 DUP2 MSTORE PUSH1 0x40 DUP1 DUP6 KECCAK256 PUSH1 0x1 PUSH1 0x1 PUSH1 0xE0 SHL SUB NOT DUP10 AND DUP1 DUP8 MSTORE PUSH1 0x2 DUP3 ADD DUP5 MSTORE SWAP2 DUP7 KECCAK256 DUP9 DUP2 SSTORE DUP6 ADD DUP1 SLOAD PUSH1 0xFF NOT AND SWAP1 SWAP6 OR SWAP1 SWAP5 SSTORE SWAP4 DUP9 SWAP1 MSTORE MSTORE PUSH2 0x1344 SWAP2 PUSH1 0x3 SWAP1 SWAP2 ADD SWAP1 PUSH2 0x2BC0 JUMP JUMPDEST POP POP POP PUSH1 0x0 SWAP2 DUP3 MSTORE POP PUSH1 0x1 SWAP2 SWAP1 SWAP2 ADD PUSH1 0x20 MSTORE PUSH1 0x40 SWAP1 KECCAK256 SLOAD SWAP1 JUMP JUMPDEST PUSH1 0x0 ADDRESS PUSH1 0x1 PUSH1 0x1 PUSH1 0xA0 SHL SUB AND PUSH4 0xBE22465D PUSH1 0x40 MLOAD DUP2 PUSH4 0xFFFFFFFF AND PUSH1 0xE0 SHL DUP2 MSTORE PUSH1 0x4 ADD PUSH1 0x20 PUSH1 0x40 MLOAD DUP1 DUP4 SUB DUP2 DUP7 GAS STATICCALL ISZERO DUP1 ISZERO PUSH2 0x139E JUMPI RETURNDATASIZE PUSH1 0x0 DUP1 RETURNDATACOPY RETURNDATASIZE PUSH1 0x0 REVERT JUMPDEST POP POP POP POP PUSH1 0x40 MLOAD RETURNDATASIZE PUSH1 0x1F NOT PUSH1 0x1F DUP3 ADD AND DUP3 ADD DUP1 PUSH1 0x40 MSTORE POP DUP2 ADD SWAP1 PUSH2 0x13C2 SWAP2 SWAP1 PUSH2 0x38AD JUMP JUMPDEST ISZERO PUSH2 0x13DF JUMPI PUSH1 0x40 MLOAD PUSH3 0x461BCD PUSH1 0xE5 SHL DUP2 MSTORE PUSH1 0x4 ADD PUSH2 0x47D SWAP1 PUSH2 0x38CA JUMP JUMPDEST PUSH20 0x0 PUSH4 0x487C6960 DUP7 PUSH2 0x1403 ADDRESS PUSH2 0x207D JUMP JUMPDEST PUSH1 0x40 MLOAD PUSH1 0x1 PUSH1 0x1 PUSH1 0xE0 SHL SUB NOT PUSH1 0xE0 DUP6 SWAP1 SHL AND DUP2 MSTORE PUSH2 0x1430 SWAP3 SWAP2 SWAP1 CALLER SWAP1 PUSH4 0x4346A04B PUSH1 0xE0 SHL SWAP1 PUSH1 0x4 ADD PUSH2 0x3969 JUMP JUMPDEST PUSH1 0x20 PUSH1 0x40 MLOAD DUP1 DUP4 SUB DUP2 DUP7 GAS DELEGATECALL ISZERO DUP1 ISZERO PUSH2 0x144D JUMPI RETURNDATASIZE PUSH1 0x0 DUP1 RETURNDATACOPY RETURNDATASIZE PUSH1 0x0 REVERT JUMPDEST POP POP POP POP PUSH1 0x40 MLOAD RETURNDATASIZE PUSH1 0x1F NOT PUSH1 0x1F DUP3 ADD AND DUP3 ADD DUP1 PUSH1 0x40 MSTORE POP DUP2 ADD SWAP1 PUSH2 0x1471 SWAP2 SWAP1 PUSH2 0x38AD JUMP JUMPDEST PUSH2 0x14BD JUMPI PUSH1 0x40 MLOAD PUSH3 0x461BCD PUSH1 0xE5 SHL DUP2 MSTORE PUSH1 0x20 PUSH1 0x4 DUP3 ADD MSTORE PUSH1 0x1F PUSH1 0x24 DUP3 ADD MSTORE PUSH32 0x5265766F6B65436F6E74657874526F6C65204163636573732044656E69656400 PUSH1 0x44 DUP3 ADD MSTORE PUSH1 0x64 ADD PUSH2 0x47D JUMP JUMPDEST DUP4 PUSH2 0x14C7 ADDRESS PUSH2 0x207D JUMP JUMPDEST SUB PUSH2 0x1514 JUMPI PUSH1 0x40 MLOAD PUSH3 0x461BCD PUSH1 0xE5 SHL DUP2 MSTORE PUSH1 0x20 PUSH1 0x4 DUP3 ADD MSTORE PUSH1 0x1A PUSH1 0x24 DUP3 ADD MSTORE PUSH32 0x496C6C6567616C205265766F6B652041434C20436F6E74657874000000000000 PUSH1 0x44 DUP3 ADD MSTORE PUSH1 0x64 ADD PUSH2 0x47D JUMP JUMPDEST PUSH1 0x0 DUP5 DUP2 MSTORE PUSH1 0x1 DUP1 DUP8 ADD PUSH1 0x20 MSTORE PUSH1 0x40 SWAP1 SWAP2 KECCAK256 ADD SLOAD PUSH1 0x1 PUSH1 0x1 PUSH1 0xA0 SHL SUB AND PUSH2 0x154D JUMPI PUSH1 0x40 MLOAD PUSH3 0x461BCD PUSH1 0xE5 SHL DUP2 MSTORE PUSH1 0x4 ADD PUSH2 0x47D SWAP1 PUSH2 0x39B4 JUMP JUMPDEST PUSH1 0x0 DUP3 DUP2 MSTORE PUSH1 0x2 DUP7 ADD PUSH1 0x20 MSTORE PUSH1 0x40 SWAP1 KECCAK256 DUP1 SLOAD PUSH2 0x1568 SWAP1 PUSH2 0x39DF JUMP JUMPDEST SWAP1 POP PUSH1 0x0 SUB PUSH2 0x1589 JUMPI PUSH1 0x40 MLOAD PUSH3 0x461BCD PUSH1 0xE5 SHL DUP2 MSTORE PUSH1 0x4 ADD PUSH2 0x47D SWAP1 PUSH2 0x3A3C JUMP JUMPDEST PUSH1 0x0 DUP5 DUP2 MSTORE PUSH1 0x1 DUP7 ADD PUSH1 0x20 MSTORE PUSH1 0x40 SWAP1 KECCAK256 PUSH2 0x15B0 SWAP1 PUSH1 0x3 ADD PUSH1 0x1 PUSH1 0x1 PUSH1 0xE0 SHL SUB NOT DUP6 AND PUSH2 0x2BDF JUMP JUMPDEST PUSH2 0x15CC JUMPI PUSH1 0x40 MLOAD PUSH3 0x461BCD PUSH1 0xE5 SHL DUP2 MSTORE PUSH1 0x4 ADD PUSH2 0x47D SWAP1 PUSH2 0x3A64 JUMP JUMPDEST PUSH1 0x0 DUP5 DUP2 MSTORE PUSH1 0x1 DUP1 DUP8 ADD PUSH1 0x20 SWAP1 DUP2 MSTORE PUSH1 0x40 DUP1 DUP5 KECCAK256 PUSH1 0x1 PUSH1 0x1 PUSH1 0xE0 SHL SUB NOT DUP9 AND DUP6 MSTORE PUSH1 0x2 SWAP1 DUP2 ADD SWAP1 SWAP3 MSTORE SWAP1 SWAP3 KECCAK256 DUP2 ADD DUP1 SLOAD SWAP1 SWAP2 PUSH1 0xFF NOT SWAP1 SWAP2 AND SWAP1 DUP4 PUSH2 0xE44 JUMP JUMPDEST PUSH1 0x0 DUP4 DUP2 MSTORE PUSH1 0x1 DUP1 DUP7 ADD PUSH1 0x20 MSTORE PUSH1 0x40 DUP3 KECCAK256 ADD SLOAD PUSH1 0x1 PUSH1 0x1 PUSH1 0xA0 SHL SUB AND ISZERO DUP1 ISZERO SWAP1 PUSH2 0x165C JUMPI POP PUSH1 0x0 DUP5 DUP2 MSTORE PUSH1 0x1 DUP7 ADD PUSH1 0x20 SWAP1 DUP2 MSTORE PUSH1 0x40 DUP1 DUP4 KECCAK256 PUSH1 0x1 PUSH1 0x1 PUSH1 0xE0 SHL SUB NOT DUP7 AND DUP5 MSTORE PUSH1 0x2 ADD SWAP1 SWAP2 MSTORE SWAP1 KECCAK256 SLOAD DUP4 EQ JUMPDEST DUP1 ISZERO PUSH2 0x16A8 JUMPI POP PUSH1 0x1 PUSH1 0x0 DUP6 DUP2 MSTORE PUSH1 0x1 DUP1 DUP9 ADD PUSH1 0x20 SWAP1 DUP2 MSTORE PUSH1 0x40 DUP1 DUP5 KECCAK256 PUSH1 0x1 PUSH1 0x1 PUSH1 0xE0 SHL SUB NOT DUP9 AND DUP6 MSTORE PUSH1 0x2 SWAP1 DUP2 ADD SWAP1 SWAP3 MSTORE SWAP1 SWAP3 KECCAK256 ADD SLOAD PUSH1 0xFF AND SWAP1 DUP2 GT ISZERO PUSH2 0x16A6 JUMPI PUSH2 0x16A6 PUSH2 0x391C JUMP JUMPDEST EQ JUMPDEST SWAP6 SWAP5 POP POP POP POP POP JUMP JUMPDEST PUSH1 0x40 DUP1 MLOAD PUSH1 0xC0 DUP2 ADD DUP3 MSTORE PUSH1 0x0 DUP1 DUP3 MSTORE PUSH1 0x20 DUP3 ADD DUP2 SWAP1 MSTORE SWAP2 DUP2 ADD DUP3 SWAP1 MSTORE PUSH1 0x60 DUP2 ADD DUP3 SWAP1 MSTORE PUSH1 0x80 DUP2 ADD DUP3 SWAP1 MSTORE PUSH1 0xA0 DUP2 ADD SWAP2 SWAP1 SWAP2 MSTORE PUSH1 0x0 DUP3 DUP2 MSTORE PUSH1 0x1 DUP1 DUP6 ADD PUSH1 0x20 MSTORE PUSH1 0x40 SWAP1 SWAP2 KECCAK256 ADD SLOAD PUSH1 0x1 PUSH1 0x1 PUSH1 0xA0 SHL SUB AND PUSH2 0x171C JUMPI PUSH1 0x40 MLOAD PUSH3 0x461BCD PUSH1 0xE5 SHL DUP2 MSTORE PUSH1 0x4 ADD PUSH2 0x47D SWAP1 PUSH2 0x39B4 JUMP JUMPDEST PUSH1 0x0 DUP3 DUP2 MSTORE PUSH1 0x1 DUP1 DUP6 ADD PUSH1 0x20 SWAP1 DUP2 MSTORE PUSH1 0x40 DUP1 DUP5 KECCAK256 SWAP1 SWAP3 ADD SLOAD DUP3 MLOAD PUSH4 0x1D743037 PUSH1 0xE2 SHL DUP2 MSTORE SWAP3 MLOAD PUSH1 0x1 PUSH1 0x1 PUSH1 0xA0 SHL SUB SWAP1 SWAP2 AND SWAP3 PUSH4 0x75D0C0DC SWAP3 PUSH1 0x4 DUP1 DUP4 ADD SWAP4 SWAP2 SWAP3 DUP3 SWAP1 SUB ADD DUP2 DUP7 GAS STATICCALL ISZERO DUP1 ISZERO PUSH2 0x1775 JUMPI RETURNDATASIZE PUSH1 0x0 DUP1 RETURNDATACOPY RETURNDATASIZE PUSH1 0x0 REVERT JUMPDEST POP POP POP POP PUSH1 0x40 MLOAD RETURNDATASIZE PUSH1 0x1F NOT PUSH1 0x1F DUP3 ADD AND DUP3 ADD DUP1 PUSH1 0x40 MSTORE POP DUP2 ADD SWAP1 PUSH2 0x1799 SWAP2 SWAP1 PUSH2 0x3A9B JUMP JUMPDEST PUSH1 0x0 DUP5 DUP2 MSTORE PUSH1 0x1 DUP1 DUP8 ADD PUSH1 0x20 SWAP1 DUP2 MSTORE PUSH1 0x40 DUP1 DUP5 KECCAK256 SWAP1 SWAP3 ADD SLOAD DUP3 MLOAD PUSH4 0x5054723 PUSH1 0xE5 SHL DUP2 MSTORE SWAP3 MLOAD SWAP5 SWAP6 POP SWAP3 SWAP4 PUSH1 0x1 PUSH1 0x1 PUSH1 0xA0 SHL SUB SWAP1 SWAP4 AND SWAP3 PUSH4 0xA0A8E460 SWAP3 PUSH1 0x4 DUP1 DUP3 ADD SWAP4 SWAP3 SWAP2 DUP3 SWAP1 SUB ADD DUP2 DUP7 GAS STATICCALL ISZERO DUP1 ISZERO PUSH2 0x17F7 JUMPI RETURNDATASIZE PUSH1 0x0 DUP1 RETURNDATACOPY RETURNDATASIZE PUSH1 0x0 REVERT JUMPDEST POP POP POP POP PUSH1 0x40 MLOAD RETURNDATASIZE PUSH1 0x1F NOT PUSH1 0x1F DUP3 ADD AND DUP3 ADD DUP1 PUSH1 0x40 MSTORE POP DUP2 ADD SWAP1 PUSH2 0x181B SWAP2 SWAP1 PUSH2 0x3A9B JUMP JUMPDEST PUSH1 0x0 DUP6 DUP2 MSTORE PUSH1 0x1 DUP1 DUP9 ADD PUSH1 0x20 SWAP1 DUP2 MSTORE PUSH1 0x40 DUP1 DUP5 KECCAK256 SWAP1 SWAP3 ADD SLOAD DUP3 MLOAD PUSH4 0xBE22465D PUSH1 0xE0 SHL DUP2 MSTORE SWAP3 MLOAD SWAP5 SWAP6 POP SWAP3 SWAP4 PUSH1 0x1 PUSH1 0x1 PUSH1 0xA0 SHL SUB SWAP1 SWAP4 AND SWAP3 PUSH4 0xBE22465D SWAP3 PUSH1 0x4 DUP1 DUP3 ADD SWAP4 SWAP3 SWAP2 DUP3 SWAP1 SUB ADD DUP2 DUP7 GAS STATICCALL ISZERO DUP1 ISZERO PUSH2 0x1879 JUMPI RETURNDATASIZE PUSH1 0x0 DUP1 RETURNDATACOPY RETURNDATASIZE PUSH1 0x0 REVERT JUMPDEST POP POP POP POP PUSH1 0x40 MLOAD RETURNDATASIZE PUSH1 0x1F NOT PUSH1 0x1F DUP3 ADD AND DUP3 ADD DUP1 PUSH1 0x40 MSTORE POP DUP2 ADD SWAP1 PUSH2 0x189D SWAP2 SWAP1 PUSH2 0x38AD JUMP JUMPDEST PUSH1 0x0 DUP7 DUP2 MSTORE PUSH1 0x1 DUP1 DUP10 ADD PUSH1 0x20 SWAP1 DUP2 MSTORE PUSH1 0x40 DUP1 DUP5 KECCAK256 SWAP1 SWAP3 ADD SLOAD DUP3 MLOAD PUSH4 0x151E765 PUSH1 0xE6 SHL DUP2 MSTORE SWAP3 MLOAD SWAP5 SWAP6 POP SWAP3 SWAP4 PUSH1 0x1 PUSH1 0x1 PUSH1 0xA0 SHL SUB SWAP1 SWAP4 AND SWAP3 PUSH4 0x5479D940 SWAP3 PUSH1 0x4 DUP1 DUP3 ADD SWAP4 SWAP3 SWAP2 DUP3 SWAP1 SUB ADD DUP2 DUP7 GAS STATICCALL ISZERO DUP1 ISZERO PUSH2 0x18FB JUMPI RETURNDATASIZE PUSH1 0x0 DUP1 RETURNDATACOPY RETURNDATASIZE PUSH1 0x0 REVERT JUMPDEST POP POP POP POP PUSH1 0x40 MLOAD RETURNDATASIZE PUSH1 0x1F NOT PUSH1 0x1F DUP3 ADD AND DUP3 ADD DUP1 PUSH1 0x40 MSTORE POP DUP2 ADD SWAP1 PUSH2 0x191F SWAP2 SWAP1 PUSH2 0x38AD JUMP JUMPDEST PUSH1 0x40 DUP1 MLOAD PUSH1 0xC0 DUP2 ADD DUP3 MSTORE SWAP6 DUP7 MSTORE PUSH1 0x20 DUP1 DUP8 ADD SWAP6 SWAP1 SWAP6 MSTORE PUSH1 0x0 DUP9 DUP2 MSTORE PUSH1 0x1 DUP1 DUP12 ADD DUP1 DUP9 MSTORE DUP4 DUP4 KECCAK256 DUP1 SLOAD SWAP5 DUP11 ADD SWAP5 SWAP1 SWAP5 MSTORE SWAP2 DUP11 SWAP1 MSTORE SWAP6 MSTORE SWAP1 SWAP4 ADD SLOAD PUSH1 0x1 PUSH1 0x1 PUSH1 0xA0 SHL SUB AND PUSH1 0x60 DUP6 ADD MSTORE POP ISZERO ISZERO PUSH1 0x80 DUP4 ADD MSTORE ISZERO ISZERO PUSH1 0xA0 DUP3 ADD MSTORE SWAP1 POP JUMPDEST SWAP3 SWAP2 POP POP JUMP JUMPDEST PUSH1 0x0 DUP1 ADDRESS PUSH1 0x1 PUSH1 0x1 PUSH1 0xA0 SHL SUB AND PUSH4 0xBE22465D PUSH1 0x40 MLOAD DUP2 PUSH4 0xFFFFFFFF AND PUSH1 0xE0 SHL DUP2 MSTORE PUSH1 0x4 ADD PUSH1 0x20 PUSH1 0x40 MLOAD DUP1 DUP4 SUB DUP2 DUP7 GAS STATICCALL ISZERO DUP1 ISZERO PUSH2 0x19BF JUMPI RETURNDATASIZE PUSH1 0x0 DUP1 RETURNDATACOPY RETURNDATASIZE PUSH1 0x0 REVERT JUMPDEST POP POP POP POP PUSH1 0x40 MLOAD RETURNDATASIZE PUSH1 0x1F NOT PUSH1 0x1F DUP3 ADD AND DUP3 ADD DUP1 PUSH1 0x40 MSTORE POP DUP2 ADD SWAP1 PUSH2 0x19E3 SWAP2 SWAP1 PUSH2 0x38AD JUMP JUMPDEST ISZERO PUSH2 0x1A00 JUMPI PUSH1 0x40 MLOAD PUSH3 0x461BCD PUSH1 0xE5 SHL DUP2 MSTORE PUSH1 0x4 ADD PUSH2 0x47D SWAP1 PUSH2 0x38CA JUMP JUMPDEST PUSH20 0x0 PUSH4 0x487C6960 DUP7 PUSH2 0x1A24 ADDRESS PUSH2 0x207D JUMP JUMPDEST PUSH1 0x40 MLOAD PUSH1 0x1 PUSH1 0x1 PUSH1 0xE0 SHL SUB NOT PUSH1 0xE0 DUP6 SWAP1 SHL AND DUP2 MSTORE PUSH2 0x1A51 SWAP3 SWAP2 SWAP1 CALLER SWAP1 PUSH4 0x70420EE3 PUSH1 0xE0 SHL SWAP1 PUSH1 0x4 ADD PUSH2 0x3969 JUMP JUMPDEST PUSH1 0x20 PUSH1 0x40 MLOAD DUP1 DUP4 SUB DUP2 DUP7 GAS DELEGATECALL ISZERO DUP1 ISZERO PUSH2 0x1A6E JUMPI RETURNDATASIZE PUSH1 0x0 DUP1 RETURNDATACOPY RETURNDATASIZE PUSH1 0x0 REVERT JUMPDEST POP POP POP POP PUSH1 0x40 MLOAD RETURNDATASIZE PUSH1 0x1F NOT PUSH1 0x1F DUP3 ADD AND DUP3 ADD DUP1 PUSH1 0x40 MSTORE POP DUP2 ADD SWAP1 PUSH2 0x1A92 SWAP2 SWAP1 PUSH2 0x38AD JUMP JUMPDEST PUSH2 0x1ADE JUMPI PUSH1 0x40 MLOAD PUSH3 0x461BCD PUSH1 0xE5 SHL DUP2 MSTORE PUSH1 0x20 PUSH1 0x4 DUP3 ADD MSTORE PUSH1 0x1E PUSH1 0x24 DUP3 ADD MSTORE PUSH32 0x536574436F6E74657874537461747573204163636573732044656E6965640000 PUSH1 0x44 DUP3 ADD MSTORE PUSH1 0x64 ADD PUSH2 0x47D JUMP JUMPDEST DUP4 PUSH2 0x1AE8 ADDRESS PUSH2 0x207D JUMP JUMPDEST SUB PUSH2 0x1B3F JUMPI PUSH1 0x40 MLOAD PUSH3 0x461BCD PUSH1 0xE5 SHL DUP2 MSTORE PUSH1 0x20 PUSH1 0x4 DUP3 ADD MSTORE PUSH1 0x21 PUSH1 0x24 DUP3 ADD MSTORE PUSH32 0x496C6C6567616C204368616E67652041434C20436F6E74657874205374617475 PUSH1 0x44 DUP3 ADD MSTORE PUSH1 0x73 PUSH1 0xF8 SHL PUSH1 0x64 DUP3 ADD MSTORE PUSH1 0x84 ADD PUSH2 0x47D JUMP JUMPDEST PUSH1 0x0 DUP5 DUP2 MSTORE PUSH1 0x1 DUP1 DUP8 ADD PUSH1 0x20 MSTORE PUSH1 0x40 SWAP1 SWAP2 KECCAK256 ADD SLOAD PUSH1 0x1 PUSH1 0x1 PUSH1 0xA0 SHL SUB AND PUSH2 0x1B78 JUMPI PUSH1 0x40 MLOAD PUSH3 0x461BCD PUSH1 0xE5 SHL DUP2 MSTORE PUSH1 0x4 ADD PUSH2 0x47D SWAP1 PUSH2 0x39B4 JUMP JUMPDEST POP POP PUSH1 0x0 DUP3 DUP2 MSTORE PUSH1 0x1 DUP1 DUP6 ADD PUSH1 0x20 MSTORE PUSH1 0x40 SWAP1 SWAP2 KECCAK256 DUP1 DUP3 ADD DUP1 SLOAD DUP5 ISZERO ISZERO PUSH1 0x1 PUSH1 0xA0 SHL MUL PUSH1 0xFF PUSH1 0xA0 SHL NOT SWAP1 SWAP2 AND OR SWAP1 SSTORE SLOAD SWAP4 POP SWAP4 SWAP2 POP POP JUMP JUMPDEST PUSH1 0x0 ADDRESS PUSH1 0x1 PUSH1 0x1 PUSH1 0xA0 SHL SUB AND PUSH4 0xBE22465D PUSH1 0x40 MLOAD DUP2 PUSH4 0xFFFFFFFF AND PUSH1 0xE0 SHL DUP2 MSTORE PUSH1 0x4 ADD PUSH1 0x20 PUSH1 0x40 MLOAD DUP1 DUP4 SUB DUP2 DUP7 GAS STATICCALL ISZERO DUP1 ISZERO PUSH2 0x1BEF JUMPI RETURNDATASIZE PUSH1 0x0 DUP1 RETURNDATACOPY RETURNDATASIZE PUSH1 0x0 REVERT JUMPDEST POP POP POP POP PUSH1 0x40 MLOAD RETURNDATASIZE PUSH1 0x1F NOT PUSH1 0x1F DUP3 ADD AND DUP3 ADD DUP1 PUSH1 0x40 MSTORE POP DUP2 ADD SWAP1 PUSH2 0x1C13 SWAP2 SWAP1 PUSH2 0x38AD JUMP JUMPDEST ISZERO PUSH2 0x1C30 JUMPI PUSH1 0x40 MLOAD PUSH3 0x461BCD PUSH1 0xE5 SHL DUP2 MSTORE PUSH1 0x4 ADD PUSH2 0x47D SWAP1 PUSH2 0x38CA JUMP JUMPDEST PUSH20 0x0 PUSH4 0x487C6960 DUP6 PUSH2 0x1C54 ADDRESS PUSH2 0x207D JUMP JUMPDEST PUSH1 0x40 MLOAD PUSH1 0x1 PUSH1 0x1 PUSH1 0xE0 SHL SUB NOT PUSH1 0xE0 DUP6 SWAP1 SHL AND DUP2 MSTORE PUSH2 0x1C81 SWAP3 SWAP2 SWAP1 CALLER SWAP1 PUSH4 0x5AC4B36F PUSH1 0xE1 SHL SWAP1 PUSH1 0x4 ADD PUSH2 0x3969 JUMP JUMPDEST PUSH1 0x20 PUSH1 0x40 MLOAD DUP1 DUP4 SUB DUP2 DUP7 GAS DELEGATECALL ISZERO DUP1 ISZERO PUSH2 0x1C9E JUMPI RETURNDATASIZE PUSH1 0x0 DUP1 RETURNDATACOPY RETURNDATASIZE PUSH1 0x0 REVERT JUMPDEST POP POP POP POP PUSH1 0x40 MLOAD RETURNDATASIZE PUSH1 0x1F NOT PUSH1 0x1F DUP3 ADD AND DUP3 ADD DUP1 PUSH1 0x40 MSTORE POP DUP2 ADD SWAP1 PUSH2 0x1CC2 SWAP2 SWAP1 PUSH2 0x38AD JUMP JUMPDEST PUSH2 0x1D0E JUMPI PUSH1 0x40 MLOAD PUSH3 0x461BCD PUSH1 0xE5 SHL DUP2 MSTORE PUSH1 0x20 PUSH1 0x4 DUP3 ADD MSTORE PUSH1 0x1F PUSH1 0x24 DUP3 ADD MSTORE PUSH32 0x52656D6F7665436F6E7465787446756E63204163636573732044656E69656400 PUSH1 0x44 DUP3 ADD MSTORE PUSH1 0x64 ADD PUSH2 0x47D JUMP JUMPDEST DUP3 PUSH2 0x1D18 ADDRESS PUSH2 0x207D JUMP JUMPDEST SUB PUSH2 0x1D65 JUMPI PUSH1 0x40 MLOAD PUSH3 0x461BCD PUSH1 0xE5 SHL DUP2 MSTORE PUSH1 0x20 PUSH1 0x4 DUP3 ADD MSTORE PUSH1 0x1A PUSH1 0x24 DUP3 ADD MSTORE PUSH32 0x496C6C6567616C2052656D6F76652041434C20436F6E74657874000000000000 PUSH1 0x44 DUP3 ADD MSTORE PUSH1 0x64 ADD PUSH2 0x47D JUMP JUMPDEST PUSH1 0x0 DUP4 DUP2 MSTORE PUSH1 0x1 DUP1 DUP7 ADD PUSH1 0x20 MSTORE PUSH1 0x40 SWAP1 SWAP2 KECCAK256 ADD SLOAD PUSH1 0x1 PUSH1 0x1 PUSH1 0xA0 SHL SUB AND PUSH2 0x1D9E JUMPI PUSH1 0x40 MLOAD PUSH3 0x461BCD PUSH1 0xE5 SHL DUP2 MSTORE PUSH1 0x4 ADD PUSH2 0x47D SWAP1 PUSH2 0x39B4 JUMP JUMPDEST PUSH1 0x0 DUP4 DUP2 MSTORE PUSH1 0x1 DUP6 ADD PUSH1 0x20 MSTORE PUSH1 0x40 SWAP1 KECCAK256 PUSH2 0x1DC5 SWAP1 PUSH1 0x3 ADD PUSH1 0x1 PUSH1 0x1 PUSH1 0xE0 SHL SUB NOT DUP5 AND PUSH2 0x2BDF JUMP JUMPDEST PUSH2 0x1DE1 JUMPI PUSH1 0x40 MLOAD PUSH3 0x461BCD PUSH1 0xE5 SHL DUP2 MSTORE PUSH1 0x4 ADD PUSH2 0x47D SWAP1 PUSH2 0x3A64 JUMP JUMPDEST PUSH1 0x0 DUP4 DUP2 MSTORE PUSH1 0x1 DUP1 DUP7 ADD PUSH1 0x20 DUP2 DUP2 MSTORE PUSH1 0x40 DUP1 DUP6 KECCAK256 PUSH1 0x1 PUSH1 0x1 PUSH1 0xE0 SHL SUB NOT DUP9 AND DUP1 DUP8 MSTORE PUSH1 0x2 DUP3 ADD DUP5 MSTORE SWAP2 DUP7 KECCAK256 DUP7 DUP2 SSTORE SWAP1 SWAP5 ADD DUP1 SLOAD PUSH1 0xFF NOT AND SWAP1 SSTORE SWAP4 DUP8 SWAP1 MSTORE MSTORE PUSH2 0x1E2E SWAP2 PUSH1 0x3 SWAP1 SWAP2 ADD SWAP1 PUSH2 0x2BD3 JUMP JUMPDEST POP POP POP PUSH1 0x0 SWAP1 DUP2 MSTORE PUSH1 0x1 SWAP2 SWAP1 SWAP2 ADD PUSH1 0x20 MSTORE PUSH1 0x40 SWAP1 KECCAK256 SLOAD SWAP1 JUMP JUMPDEST PUSH1 0x40 MLOAD PUSH18 0x1310DBDB9D195E1D13585B9859D95B595B9D PUSH1 0x72 SHL PUSH1 0x20 DUP3 ADD MSTORE PUSH1 0x32 ADD PUSH2 0x890 JUMP JUMPDEST PUSH1 0x0 DUP2 DUP2 MSTORE PUSH1 0x1 DUP1 DUP5 ADD PUSH1 0x20 MSTORE PUSH1 0x40 SWAP1 SWAP2 KECCAK256 ADD SLOAD PUSH1 0x60 SWAP1 PUSH1 0x1 PUSH1 0x1 PUSH1 0xA0 SHL SUB AND PUSH2 0x1EA9 JUMPI PUSH1 0x40 MLOAD PUSH3 0x461BCD PUSH1 0xE5 SHL DUP2 MSTORE PUSH1 0x4 ADD PUSH2 0x47D SWAP1 PUSH2 0x39B4 JUMP JUMPDEST PUSH1 0x0 DUP3 DUP2 MSTORE PUSH1 0x1 DUP5 ADD PUSH1 0x20 MSTORE PUSH1 0x40 DUP2 KECCAK256 PUSH2 0x1EC5 SWAP1 PUSH1 0x3 ADD PUSH2 0x3021 JUMP JUMPDEST PUSH8 0xFFFFFFFFFFFFFFFF DUP2 GT ISZERO PUSH2 0x1EDD JUMPI PUSH2 0x1EDD PUSH2 0x33F1 JUMP JUMPDEST PUSH1 0x40 MLOAD SWAP1 DUP1 DUP3 MSTORE DUP1 PUSH1 0x20 MUL PUSH1 0x20 ADD DUP3 ADD PUSH1 0x40 MSTORE DUP1 ISZERO PUSH2 0x1F06 JUMPI DUP2 PUSH1 0x20 ADD PUSH1 0x20 DUP3 MUL DUP1 CALLDATASIZE DUP4 CALLDATACOPY ADD SWAP1 POP JUMPDEST POP SWAP1 POP PUSH1 0x0 JUMPDEST PUSH1 0x0 DUP5 DUP2 MSTORE PUSH1 0x1 DUP7 ADD PUSH1 0x20 MSTORE PUSH1 0x40 SWAP1 KECCAK256 PUSH2 0x1F28 SWAP1 PUSH1 0x3 ADD PUSH2 0x3021 JUMP JUMPDEST DUP2 PUSH4 0xFFFFFFFF AND LT ISZERO PUSH2 0x1F9E JUMPI PUSH1 0x0 DUP5 DUP2 MSTORE PUSH1 0x1 DUP7 ADD PUSH1 0x20 MSTORE PUSH1 0x40 SWAP1 KECCAK256 PUSH2 0x1F5B SWAP1 PUSH1 0x3 ADD PUSH4 0xFFFFFFFF DUP1 DUP5 AND SWAP1 PUSH2 0x302B AND JUMP JUMPDEST DUP3 DUP3 PUSH4 0xFFFFFFFF AND DUP2 MLOAD DUP2 LT PUSH2 0x1F73 JUMPI PUSH2 0x1F73 PUSH2 0x3AB4 JUMP JUMPDEST PUSH1 0x1 PUSH1 0x1 PUSH1 0xE0 SHL SUB NOT SWAP1 SWAP3 AND PUSH1 0x20 SWAP3 DUP4 MUL SWAP2 SWAP1 SWAP2 ADD SWAP1 SWAP2 ADD MSTORE DUP1 PUSH2 0x1F96 DUP2 PUSH2 0x3AE0 JUMP JUMPDEST SWAP2 POP POP PUSH2 0x1F0C JUMP JUMPDEST POP SWAP4 SWAP3 POP POP POP JUMP JUMPDEST PUSH1 0x0 PUSH2 0x1FB7 DUP7 DUP7 DUP7 PUSH1 0x1 DUP8 DUP8 PUSH2 0x27E3 JUMP JUMPDEST SWAP7 SWAP6 POP POP POP POP POP POP JUMP JUMPDEST PUSH1 0x0 PUSH2 0x1978 PUSH2 0x1FCE PUSH2 0x3037 JUMP JUMPDEST DUP4 PUSH1 0x40 MLOAD PUSH2 0x1901 PUSH1 0xF0 SHL PUSH1 0x20 DUP3 ADD MSTORE PUSH1 0x22 DUP2 ADD DUP4 SWAP1 MSTORE PUSH1 0x42 DUP2 ADD DUP3 SWAP1 MSTORE PUSH1 0x0 SWAP1 PUSH1 0x62 ADD PUSH1 0x40 MLOAD PUSH1 0x20 DUP2 DUP4 SUB SUB DUP2 MSTORE SWAP1 PUSH1 0x40 MSTORE DUP1 MLOAD SWAP1 PUSH1 0x20 ADD KECCAK256 SWAP1 POP SWAP3 SWAP2 POP POP JUMP JUMPDEST PUSH1 0x0 DUP1 DUP3 MLOAD PUSH1 0x41 SUB PUSH2 0x2045 JUMPI PUSH1 0x20 DUP4 ADD MLOAD PUSH1 0x40 DUP5 ADD MLOAD PUSH1 0x60 DUP6 ADD MLOAD PUSH1 0x0 BYTE PUSH2 0x2039 DUP8 DUP3 DUP6 DUP6 PUSH2 0x315F JUMP JUMPDEST SWAP5 POP SWAP5 POP POP POP POP PUSH2 0x2076 JUMP JUMPDEST DUP3 MLOAD PUSH1 0x40 SUB PUSH2 0x206E JUMPI PUSH1 0x20 DUP4 ADD MLOAD PUSH1 0x40 DUP5 ADD MLOAD PUSH2 0x2063 DUP7 DUP4 DUP4 PUSH2 0x324C JUMP JUMPDEST SWAP4 POP SWAP4 POP POP POP PUSH2 0x2076 JUMP JUMPDEST POP PUSH1 0x0 SWAP1 POP PUSH1 0x2 JUMPDEST SWAP3 POP SWAP3 SWAP1 POP JUMP JUMPDEST PUSH1 0x40 MLOAD PUSH12 0xFFFFFFFFFFFFFFFFFFFFFFFF NOT PUSH1 0x60 DUP4 SWAP1 SHL AND PUSH1 0x20 DUP3 ADD MSTORE PUSH1 0x0 SWAP1 PUSH1 0x34 ADD PUSH1 0x40 MLOAD PUSH1 0x20 DUP2 DUP4 SUB SUB DUP2 MSTORE SWAP1 PUSH1 0x40 MSTORE DUP1 MLOAD SWAP1 PUSH1 0x20 ADD KECCAK256 SWAP1 POP SWAP2 SWAP1 POP JUMP JUMPDEST PUSH1 0x0 DUP6 DUP2 MSTORE PUSH1 0x1 DUP1 DUP9 ADD PUSH1 0x20 MSTORE PUSH1 0x40 DUP3 KECCAK256 ADD SLOAD PUSH1 0x1 PUSH1 0x1 PUSH1 0xA0 SHL SUB AND DUP1 PUSH2 0x20F5 JUMPI PUSH1 0x40 MLOAD PUSH3 0x461BCD PUSH1 0xE5 SHL DUP2 MSTORE PUSH1 0x4 ADD PUSH2 0x47D SWAP1 PUSH2 0x39B4 JUMP JUMPDEST PUSH1 0x1 PUSH1 0x1 PUSH1 0xA0 SHL SUB DUP2 AND CALLER EQ PUSH2 0x214D JUMPI PUSH1 0x40 MLOAD PUSH3 0x461BCD PUSH1 0xE5 SHL DUP2 MSTORE PUSH1 0x20 PUSH1 0x4 DUP3 ADD MSTORE PUSH1 0x18 PUSH1 0x24 DUP3 ADD MSTORE PUSH32 0x55706461746520436F6E7465787420466F7262696464656E0000000000000000 PUSH1 0x44 DUP3 ADD MSTORE PUSH1 0x64 ADD PUSH2 0x47D JUMP JUMPDEST PUSH1 0x0 DUP7 DUP2 MSTORE PUSH1 0x3 DUP10 ADD PUSH1 0x20 MSTORE PUSH1 0x40 SWAP1 KECCAK256 DUP1 SLOAD PUSH2 0x2168 SWAP1 PUSH2 0x39DF JUMP JUMPDEST SWAP1 POP PUSH1 0x0 SUB PUSH2 0x2189 JUMPI PUSH1 0x40 MLOAD PUSH3 0x461BCD PUSH1 0xE5 SHL DUP2 MSTORE PUSH1 0x4 ADD PUSH2 0x47D SWAP1 PUSH2 0x3A13 JUMP JUMPDEST PUSH1 0x0 DUP8 DUP2 MSTORE PUSH1 0x1 DUP10 DUP2 ADD PUSH1 0x20 MSTORE PUSH1 0x40 SWAP1 SWAP2 KECCAK256 SWAP1 DUP2 ADD DUP1 SLOAD PUSH1 0xFF PUSH1 0xA0 SHL NOT AND PUSH1 0x1 PUSH1 0xA0 SHL DUP9 ISZERO ISZERO MUL OR SWAP1 SSTORE SLOAD DUP7 EQ PUSH2 0x2206 JUMPI PUSH1 0x0 DUP8 DUP2 MSTORE PUSH1 0x1 DUP10 ADD PUSH1 0x20 SWAP1 DUP2 MSTORE PUSH1 0x40 DUP1 DUP4 KECCAK256 SLOAD DUP4 MSTORE PUSH1 0x3 DUP12 ADD SWAP1 SWAP2 MSTORE SWAP1 KECCAK256 PUSH2 0x21E6 SWAP1 PUSH1 0x2 ADD DUP9 PUSH2 0x2BD3 JUMP JUMPDEST POP PUSH1 0x0 DUP7 DUP2 MSTORE PUSH1 0x3 DUP10 ADD PUSH1 0x20 MSTORE PUSH1 0x40 SWAP1 KECCAK256 PUSH2 0x2204 SWAP1 PUSH1 0x2 ADD DUP9 PUSH2 0x2BC0 JUMP JUMPDEST POP JUMPDEST PUSH1 0x0 DUP8 DUP2 MSTORE PUSH1 0x1 DUP10 ADD PUSH1 0x20 MSTORE PUSH1 0x40 DUP2 KECCAK256 DUP8 SWAP1 SSTORE JUMPDEST DUP4 DUP2 LT ISZERO PUSH2 0x27D7 JUMPI DUP9 PUSH1 0x2 ADD PUSH1 0x0 DUP7 DUP7 DUP5 DUP2 DUP2 LT PUSH2 0x223A JUMPI PUSH2 0x223A PUSH2 0x3AB4 JUMP JUMPDEST SWAP1 POP PUSH1 0x20 MUL DUP2 ADD SWAP1 PUSH2 0x224C SWAP2 SWAP1 PUSH2 0x3B03 JUMP JUMPDEST CALLDATALOAD DUP2 MSTORE PUSH1 0x20 DUP2 ADD SWAP2 SWAP1 SWAP2 MSTORE PUSH1 0x40 ADD PUSH1 0x0 KECCAK256 DUP1 SLOAD PUSH2 0x2268 SWAP1 PUSH2 0x39DF JUMP JUMPDEST SWAP1 POP PUSH1 0x0 SUB PUSH2 0x2289 JUMPI PUSH1 0x40 MLOAD PUSH3 0x461BCD PUSH1 0xE5 SHL DUP2 MSTORE PUSH1 0x4 ADD PUSH2 0x47D SWAP1 PUSH2 0x3A3C JUMP JUMPDEST PUSH1 0x0 JUMPDEST DUP6 DUP6 DUP4 DUP2 DUP2 LT PUSH2 0x229E JUMPI PUSH2 0x229E PUSH2 0x3AB4 JUMP JUMPDEST SWAP1 POP PUSH1 0x20 MUL DUP2 ADD SWAP1 PUSH2 0x22B0 SWAP2 SWAP1 PUSH2 0x3B03 JUMP JUMPDEST PUSH2 0x22BE SWAP1 PUSH1 0x20 DUP2 ADD SWAP1 PUSH2 0x3B23 JUMP JUMPDEST SWAP1 POP DUP2 LT ISZERO PUSH2 0x27C4 JUMPI PUSH1 0x1 DUP7 DUP7 DUP5 DUP2 DUP2 LT PUSH2 0x22DB JUMPI PUSH2 0x22DB PUSH2 0x3AB4 JUMP JUMPDEST SWAP1 POP PUSH1 0x20 MUL DUP2 ADD SWAP1 PUSH2 0x22ED SWAP2 SWAP1 PUSH2 0x3B03 JUMP JUMPDEST PUSH2 0x22FE SWAP1 PUSH1 0x60 DUP2 ADD SWAP1 PUSH1 0x40 ADD PUSH2 0x3B6D JUMP JUMPDEST PUSH1 0x2 DUP2 GT ISZERO PUSH2 0x230F JUMPI PUSH2 0x230F PUSH2 0x391C JUMP JUMPDEST EQ DUP1 PUSH2 0x2360 JUMPI POP PUSH1 0x0 DUP7 DUP7 DUP5 DUP2 DUP2 LT PUSH2 0x232A JUMPI PUSH2 0x232A PUSH2 0x3AB4 JUMP JUMPDEST SWAP1 POP PUSH1 0x20 MUL DUP2 ADD SWAP1 PUSH2 0x233C SWAP2 SWAP1 PUSH2 0x3B03 JUMP JUMPDEST PUSH2 0x234D SWAP1 PUSH1 0x60 DUP2 ADD SWAP1 PUSH1 0x40 ADD PUSH2 0x3B6D JUMP JUMPDEST PUSH1 0x2 DUP2 GT ISZERO PUSH2 0x235E JUMPI PUSH2 0x235E PUSH2 0x391C JUMP JUMPDEST EQ JUMPDEST ISZERO PUSH2 0x261A JUMPI DUP6 DUP6 DUP4 DUP2 DUP2 LT PUSH2 0x2377 JUMPI PUSH2 0x2377 PUSH2 0x3AB4 JUMP JUMPDEST SWAP1 POP PUSH1 0x20 MUL DUP2 ADD SWAP1 PUSH2 0x2389 SWAP2 SWAP1 PUSH2 0x3B03 JUMP JUMPDEST PUSH1 0x0 DUP11 DUP2 MSTORE PUSH1 0x1 DUP13 ADD PUSH1 0x20 MSTORE PUSH1 0x40 DUP2 KECCAK256 SWAP2 CALLDATALOAD SWAP2 PUSH1 0x2 ADD SWAP1 DUP9 DUP9 DUP7 DUP2 DUP2 LT PUSH2 0x23B2 JUMPI PUSH2 0x23B2 PUSH2 0x3AB4 JUMP JUMPDEST SWAP1 POP PUSH1 0x20 MUL DUP2 ADD SWAP1 PUSH2 0x23C4 SWAP2 SWAP1 PUSH2 0x3B03 JUMP JUMPDEST PUSH2 0x23D2 SWAP1 PUSH1 0x20 DUP2 ADD SWAP1 PUSH2 0x3B23 JUMP JUMPDEST DUP6 DUP2 DUP2 LT PUSH2 0x23E2 JUMPI PUSH2 0x23E2 PUSH2 0x3AB4 JUMP JUMPDEST SWAP1 POP PUSH1 0x20 MUL ADD PUSH1 0x20 DUP2 ADD SWAP1 PUSH2 0x23F7 SWAP2 SWAP1 PUSH2 0x3B8E JUMP JUMPDEST PUSH1 0x1 PUSH1 0x1 PUSH1 0xE0 SHL SUB NOT AND DUP2 MSTORE PUSH1 0x20 DUP2 ADD SWAP2 SWAP1 SWAP2 MSTORE PUSH1 0x40 ADD PUSH1 0x0 KECCAK256 SSTORE PUSH1 0x1 DUP7 DUP7 DUP5 DUP2 DUP2 LT PUSH2 0x2426 JUMPI PUSH2 0x2426 PUSH2 0x3AB4 JUMP JUMPDEST SWAP1 POP PUSH1 0x20 MUL DUP2 ADD SWAP1 PUSH2 0x2438 SWAP2 SWAP1 PUSH2 0x3B03 JUMP JUMPDEST PUSH2 0x2449 SWAP1 PUSH1 0x60 DUP2 ADD SWAP1 PUSH1 0x40 ADD PUSH2 0x3B6D JUMP JUMPDEST PUSH1 0x2 DUP2 GT ISZERO PUSH2 0x245A JUMPI PUSH2 0x245A PUSH2 0x391C JUMP JUMPDEST EQ PUSH2 0x2466 JUMPI PUSH1 0x2 PUSH2 0x2469 JUMP JUMPDEST PUSH1 0x1 JUMPDEST PUSH1 0x0 DUP11 DUP2 MSTORE PUSH1 0x1 DUP13 ADD PUSH1 0x20 MSTORE PUSH1 0x40 DUP2 KECCAK256 PUSH1 0x2 ADD SWAP1 DUP9 DUP9 DUP7 DUP2 DUP2 LT PUSH2 0x248F JUMPI PUSH2 0x248F PUSH2 0x3AB4 JUMP JUMPDEST SWAP1 POP PUSH1 0x20 MUL DUP2 ADD SWAP1 PUSH2 0x24A1 SWAP2 SWAP1 PUSH2 0x3B03 JUMP JUMPDEST PUSH2 0x24AF SWAP1 PUSH1 0x20 DUP2 ADD SWAP1 PUSH2 0x3B23 JUMP JUMPDEST DUP6 DUP2 DUP2 LT PUSH2 0x24BF JUMPI PUSH2 0x24BF PUSH2 0x3AB4 JUMP JUMPDEST SWAP1 POP PUSH1 0x20 MUL ADD PUSH1 0x20 DUP2 ADD SWAP1 PUSH2 0x24D4 SWAP2 SWAP1 PUSH2 0x3B8E JUMP JUMPDEST PUSH1 0x1 PUSH1 0x1 PUSH1 0xE0 SHL SUB NOT AND DUP2 MSTORE PUSH1 0x20 DUP2 ADD SWAP2 SWAP1 SWAP2 MSTORE PUSH1 0x40 ADD PUSH1 0x0 KECCAK256 PUSH1 0x1 SWAP1 DUP2 ADD DUP1 SLOAD SWAP1 SWAP2 PUSH1 0xFF NOT SWAP1 SWAP2 AND SWAP1 DUP4 PUSH1 0x2 DUP2 GT ISZERO PUSH2 0x2510 JUMPI PUSH2 0x2510 PUSH2 0x391C JUMP JUMPDEST MUL OR SWAP1 SSTORE POP PUSH2 0x2592 DUP7 DUP7 DUP5 DUP2 DUP2 LT PUSH2 0x252A JUMPI PUSH2 0x252A PUSH2 0x3AB4 JUMP JUMPDEST SWAP1 POP PUSH1 0x20 MUL DUP2 ADD SWAP1 PUSH2 0x253C SWAP2 SWAP1 PUSH2 0x3B03 JUMP JUMPDEST PUSH2 0x254A SWAP1 PUSH1 0x20 DUP2 ADD SWAP1 PUSH2 0x3B23 JUMP JUMPDEST DUP4 DUP2 DUP2 LT PUSH2 0x255A JUMPI PUSH2 0x255A PUSH2 0x3AB4 JUMP JUMPDEST SWAP1 POP PUSH1 0x20 MUL ADD PUSH1 0x20 DUP2 ADD SWAP1 PUSH2 0x256F SWAP2 SWAP1 PUSH2 0x3B8E JUMP JUMPDEST PUSH1 0x0 DUP12 DUP2 MSTORE PUSH1 0x1 DUP14 ADD PUSH1 0x20 MSTORE PUSH1 0x40 SWAP1 KECCAK256 PUSH1 0x3 ADD SWAP1 PUSH1 0x1 PUSH1 0x1 PUSH1 0xE0 SHL SUB NOT AND PUSH2 0x2BDF JUMP JUMPDEST PUSH2 0x2615 JUMPI PUSH2 0x2613 DUP7 DUP7 DUP5 DUP2 DUP2 LT PUSH2 0x25AB JUMPI PUSH2 0x25AB PUSH2 0x3AB4 JUMP JUMPDEST SWAP1 POP PUSH1 0x20 MUL DUP2 ADD SWAP1 PUSH2 0x25BD SWAP2 SWAP1 PUSH2 0x3B03 JUMP JUMPDEST PUSH2 0x25CB SWAP1 PUSH1 0x20 DUP2 ADD SWAP1 PUSH2 0x3B23 JUMP JUMPDEST DUP4 DUP2 DUP2 LT PUSH2 0x25DB JUMPI PUSH2 0x25DB PUSH2 0x3AB4 JUMP JUMPDEST SWAP1 POP PUSH1 0x20 MUL ADD PUSH1 0x20 DUP2 ADD SWAP1 PUSH2 0x25F0 SWAP2 SWAP1 PUSH2 0x3B8E JUMP JUMPDEST PUSH1 0x0 DUP12 DUP2 MSTORE PUSH1 0x1 DUP14 ADD PUSH1 0x20 MSTORE PUSH1 0x40 SWAP1 KECCAK256 PUSH1 0x3 ADD SWAP1 PUSH1 0x1 PUSH1 0x1 PUSH1 0xE0 SHL SUB NOT AND PUSH2 0x2BC0 JUMP JUMPDEST POP JUMPDEST PUSH2 0x27B2 JUMP JUMPDEST PUSH1 0x0 DUP10 DUP2 MSTORE PUSH1 0x1 DUP12 ADD PUSH1 0x20 MSTORE PUSH1 0x40 DUP2 KECCAK256 PUSH1 0x2 ADD SWAP1 DUP8 DUP8 DUP6 DUP2 DUP2 LT PUSH2 0x2640 JUMPI PUSH2 0x2640 PUSH2 0x3AB4 JUMP JUMPDEST SWAP1 POP PUSH1 0x20 MUL DUP2 ADD SWAP1 PUSH2 0x2652 SWAP2 SWAP1 PUSH2 0x3B03 JUMP JUMPDEST PUSH2 0x2660 SWAP1 PUSH1 0x20 DUP2 ADD SWAP1 PUSH2 0x3B23 JUMP JUMPDEST DUP5 DUP2 DUP2 LT PUSH2 0x2670 JUMPI PUSH2 0x2670 PUSH2 0x3AB4 JUMP JUMPDEST SWAP1 POP PUSH1 0x20 MUL ADD PUSH1 0x20 DUP2 ADD SWAP1 PUSH2 0x2685 SWAP2 SWAP1 PUSH2 0x3B8E JUMP JUMPDEST PUSH1 0x1 PUSH1 0x1 PUSH1 0xE0 SHL SUB NOT AND DUP2 MSTORE PUSH1 0x20 DUP1 DUP3 ADD SWAP3 SWAP1 SWAP3 MSTORE PUSH1 0x40 SWAP1 DUP2 ADD PUSH1 0x0 SWAP1 DUP2 KECCAK256 DUP2 SWAP1 SSTORE DUP12 DUP2 MSTORE PUSH1 0x1 DUP14 ADD SWAP1 SWAP3 MSTORE DUP2 KECCAK256 PUSH1 0x2 ADD SWAP1 DUP8 DUP8 DUP6 DUP2 DUP2 LT PUSH2 0x26C9 JUMPI PUSH2 0x26C9 PUSH2 0x3AB4 JUMP JUMPDEST SWAP1 POP PUSH1 0x20 MUL DUP2 ADD SWAP1 PUSH2 0x26DB SWAP2 SWAP1 PUSH2 0x3B03 JUMP JUMPDEST PUSH2 0x26E9 SWAP1 PUSH1 0x20 DUP2 ADD SWAP1 PUSH2 0x3B23 JUMP JUMPDEST DUP5 DUP2 DUP2 LT PUSH2 0x26F9 JUMPI PUSH2 0x26F9 PUSH2 0x3AB4 JUMP JUMPDEST SWAP1 POP PUSH1 0x20 MUL ADD PUSH1 0x20 DUP2 ADD SWAP1 PUSH2 0x270E SWAP2 SWAP1 PUSH2 0x3B8E JUMP JUMPDEST PUSH1 0x1 PUSH1 0x1 PUSH1 0xE0 SHL SUB NOT AND DUP2 MSTORE PUSH1 0x20 DUP2 ADD SWAP2 SWAP1 SWAP2 MSTORE PUSH1 0x40 ADD PUSH1 0x0 KECCAK256 PUSH1 0x1 ADD DUP1 SLOAD PUSH1 0xFF NOT AND SWAP1 SSTORE PUSH2 0x27B0 DUP7 DUP7 DUP5 DUP2 DUP2 LT PUSH2 0x2748 JUMPI PUSH2 0x2748 PUSH2 0x3AB4 JUMP JUMPDEST SWAP1 POP PUSH1 0x20 MUL DUP2 ADD SWAP1 PUSH2 0x275A SWAP2 SWAP1 PUSH2 0x3B03 JUMP JUMPDEST PUSH2 0x2768 SWAP1 PUSH1 0x20 DUP2 ADD SWAP1 PUSH2 0x3B23 JUMP JUMPDEST DUP4 DUP2 DUP2 LT PUSH2 0x2778 JUMPI PUSH2 0x2778 PUSH2 0x3AB4 JUMP JUMPDEST SWAP1 POP PUSH1 0x20 MUL ADD PUSH1 0x20 DUP2 ADD SWAP1 PUSH2 0x278D SWAP2 SWAP1 PUSH2 0x3B8E JUMP JUMPDEST PUSH1 0x0 DUP12 DUP2 MSTORE PUSH1 0x1 DUP14 ADD PUSH1 0x20 MSTORE PUSH1 0x40 SWAP1 KECCAK256 PUSH1 0x3 ADD SWAP1 PUSH1 0x1 PUSH1 0x1 PUSH1 0xE0 SHL SUB NOT AND PUSH2 0x2BD3 JUMP JUMPDEST POP JUMPDEST DUP1 PUSH2 0x27BC DUP2 PUSH2 0x3BA9 JUMP JUMPDEST SWAP2 POP POP PUSH2 0x228C JUMP JUMPDEST POP DUP1 PUSH2 0x27CF DUP2 PUSH2 0x3BA9 JUMP JUMPDEST SWAP2 POP POP PUSH2 0x221A JUMP JUMPDEST POP SWAP8 SWAP7 POP POP POP POP POP POP POP JUMP JUMPDEST PUSH1 0x0 DUP5 DUP2 MSTORE PUSH1 0x3 DUP8 ADD PUSH1 0x20 MSTORE PUSH1 0x40 DUP2 KECCAK256 DUP1 SLOAD PUSH2 0x27FE SWAP1 PUSH2 0x39DF JUMP JUMPDEST SWAP1 POP PUSH1 0x0 SUB PUSH2 0x281F JUMPI PUSH1 0x40 MLOAD PUSH3 0x461BCD PUSH1 0xE5 SHL DUP2 MSTORE PUSH1 0x4 ADD PUSH2 0x47D SWAP1 PUSH2 0x3A13 JUMP JUMPDEST PUSH1 0x0 PUSH2 0x282A DUP8 PUSH2 0x207D JUMP JUMPDEST PUSH1 0x0 DUP2 DUP2 MSTORE PUSH1 0x1 DUP1 DUP12 ADD PUSH1 0x20 MSTORE PUSH1 0x40 SWAP1 SWAP2 KECCAK256 ADD SLOAD SWAP1 SWAP2 POP PUSH1 0x1 PUSH1 0x1 PUSH1 0xA0 SHL SUB AND ISZERO PUSH2 0x2897 JUMPI PUSH1 0x40 MLOAD PUSH3 0x461BCD PUSH1 0xE5 SHL DUP2 MSTORE PUSH1 0x20 PUSH1 0x4 DUP3 ADD MSTORE PUSH1 0x1A PUSH1 0x24 DUP3 ADD MSTORE PUSH32 0x436F6E7465787420416C72656164792052656769737465726564000000000000 PUSH1 0x44 DUP3 ADD MSTORE PUSH1 0x64 ADD PUSH2 0x47D JUMP JUMPDEST PUSH1 0x0 DUP7 DUP2 MSTORE PUSH1 0x3 DUP10 ADD PUSH1 0x20 MSTORE PUSH1 0x40 SWAP1 KECCAK256 PUSH2 0x28B4 SWAP1 PUSH1 0x2 ADD DUP3 PUSH2 0x2BC0 JUMP JUMPDEST POP PUSH1 0x0 DUP2 DUP2 MSTORE PUSH1 0x1 DUP1 DUP11 ADD PUSH1 0x20 MSTORE PUSH1 0x40 DUP3 KECCAK256 DUP9 DUP2 SSTORE SWAP1 DUP2 ADD DUP1 SLOAD DUP9 ISZERO ISZERO PUSH1 0x1 PUSH1 0xA0 SHL MUL PUSH1 0x1 PUSH1 0x1 PUSH1 0xA8 SHL SUB NOT SWAP1 SWAP2 AND PUSH1 0x1 PUSH1 0x1 PUSH1 0xA0 SHL SUB DUP13 AND OR OR SWAP1 SSTORE SWAP1 JUMPDEST DUP5 DUP2 LT ISZERO PUSH2 0x2BB2 JUMPI DUP10 PUSH1 0x2 ADD PUSH1 0x0 DUP8 DUP8 DUP5 DUP2 DUP2 LT PUSH2 0x2913 JUMPI PUSH2 0x2913 PUSH2 0x3AB4 JUMP JUMPDEST SWAP1 POP PUSH1 0x20 MUL DUP2 ADD SWAP1 PUSH2 0x2925 SWAP2 SWAP1 PUSH2 0x3B03 JUMP JUMPDEST CALLDATALOAD DUP2 MSTORE PUSH1 0x20 DUP2 ADD SWAP2 SWAP1 SWAP2 MSTORE PUSH1 0x40 ADD PUSH1 0x0 KECCAK256 DUP1 SLOAD PUSH2 0x2941 SWAP1 PUSH2 0x39DF JUMP JUMPDEST SWAP1 POP PUSH1 0x0 SUB PUSH2 0x2962 JUMPI PUSH1 0x40 MLOAD PUSH3 0x461BCD PUSH1 0xE5 SHL DUP2 MSTORE PUSH1 0x4 ADD PUSH2 0x47D SWAP1 PUSH2 0x3A3C JUMP JUMPDEST PUSH1 0x0 JUMPDEST DUP7 DUP7 DUP4 DUP2 DUP2 LT PUSH2 0x2977 JUMPI PUSH2 0x2977 PUSH2 0x3AB4 JUMP JUMPDEST SWAP1 POP PUSH1 0x20 MUL DUP2 ADD SWAP1 PUSH2 0x2989 SWAP2 SWAP1 PUSH2 0x3B03 JUMP JUMPDEST PUSH2 0x2997 SWAP1 PUSH1 0x20 DUP2 ADD SWAP1 PUSH2 0x3B23 JUMP JUMPDEST SWAP1 POP DUP2 LT ISZERO PUSH2 0x2B9F JUMPI DUP7 DUP7 DUP4 DUP2 DUP2 LT PUSH2 0x29B2 JUMPI PUSH2 0x29B2 PUSH2 0x3AB4 JUMP JUMPDEST SWAP1 POP PUSH1 0x20 MUL DUP2 ADD SWAP1 PUSH2 0x29C4 SWAP2 SWAP1 PUSH2 0x3B03 JUMP JUMPDEST CALLDATALOAD PUSH1 0x2 DUP5 ADD PUSH1 0x0 DUP10 DUP10 DUP7 DUP2 DUP2 LT PUSH2 0x29DD JUMPI PUSH2 0x29DD PUSH2 0x3AB4 JUMP JUMPDEST SWAP1 POP PUSH1 0x20 MUL DUP2 ADD SWAP1 PUSH2 0x29EF SWAP2 SWAP1 PUSH2 0x3B03 JUMP JUMPDEST PUSH2 0x29FD SWAP1 PUSH1 0x20 DUP2 ADD SWAP1 PUSH2 0x3B23 JUMP JUMPDEST DUP6 DUP2 DUP2 LT PUSH2 0x2A0D JUMPI PUSH2 0x2A0D PUSH2 0x3AB4 JUMP JUMPDEST SWAP1 POP PUSH1 0x20 MUL ADD PUSH1 0x20 DUP2 ADD SWAP1 PUSH2 0x2A22 SWAP2 SWAP1 PUSH2 0x3B8E JUMP JUMPDEST PUSH1 0x1 PUSH1 0x1 PUSH1 0xE0 SHL SUB NOT AND DUP2 MSTORE PUSH1 0x20 DUP2 ADD SWAP2 SWAP1 SWAP2 MSTORE PUSH1 0x40 ADD PUSH1 0x0 KECCAK256 SSTORE DUP7 DUP7 DUP4 DUP2 DUP2 LT PUSH2 0x2A4F JUMPI PUSH2 0x2A4F PUSH2 0x3AB4 JUMP JUMPDEST SWAP1 POP PUSH1 0x20 MUL DUP2 ADD SWAP1 PUSH2 0x2A61 SWAP2 SWAP1 PUSH2 0x3B03 JUMP JUMPDEST PUSH2 0x2A72 SWAP1 PUSH1 0x60 DUP2 ADD SWAP1 PUSH1 0x40 ADD PUSH2 0x3997 JUMP JUMPDEST PUSH2 0x2A7D JUMPI PUSH1 0x2 PUSH2 0x2A80 JUMP JUMPDEST PUSH1 0x1 JUMPDEST DUP4 PUSH1 0x2 ADD PUSH1 0x0 DUP10 DUP10 DUP7 DUP2 DUP2 LT PUSH2 0x2A98 JUMPI PUSH2 0x2A98 PUSH2 0x3AB4 JUMP JUMPDEST SWAP1 POP PUSH1 0x20 MUL DUP2 ADD SWAP1 PUSH2 0x2AAA SWAP2 SWAP1 PUSH2 0x3B03 JUMP JUMPDEST PUSH2 0x2AB8 SWAP1 PUSH1 0x20 DUP2 ADD SWAP1 PUSH2 0x3B23 JUMP JUMPDEST DUP6 DUP2 DUP2 LT PUSH2 0x2AC8 JUMPI PUSH2 0x2AC8 PUSH2 0x3AB4 JUMP JUMPDEST SWAP1 POP PUSH1 0x20 MUL ADD PUSH1 0x20 DUP2 ADD SWAP1 PUSH2 0x2ADD SWAP2 SWAP1 PUSH2 0x3B8E JUMP JUMPDEST PUSH1 0x1 PUSH1 0x1 PUSH1 0xE0 SHL SUB NOT AND DUP2 MSTORE PUSH1 0x20 DUP2 ADD SWAP2 SWAP1 SWAP2 MSTORE PUSH1 0x40 ADD PUSH1 0x0 KECCAK256 PUSH1 0x1 SWAP1 DUP2 ADD DUP1 SLOAD SWAP1 SWAP2 PUSH1 0xFF NOT SWAP1 SWAP2 AND SWAP1 DUP4 PUSH1 0x2 DUP2 GT ISZERO PUSH2 0x2B19 JUMPI PUSH2 0x2B19 PUSH2 0x391C JUMP JUMPDEST MUL OR SWAP1 SSTORE POP PUSH2 0x2B8C DUP8 DUP8 DUP5 DUP2 DUP2 LT PUSH2 0x2B33 JUMPI PUSH2 0x2B33 PUSH2 0x3AB4 JUMP JUMPDEST SWAP1 POP PUSH1 0x20 MUL DUP2 ADD SWAP1 PUSH2 0x2B45 SWAP2 SWAP1 PUSH2 0x3B03 JUMP JUMPDEST PUSH2 0x2B53 SWAP1 PUSH1 0x20 DUP2 ADD SWAP1 PUSH2 0x3B23 JUMP JUMPDEST DUP4 DUP2 DUP2 LT PUSH2 0x2B63 JUMPI PUSH2 0x2B63 PUSH2 0x3AB4 JUMP JUMPDEST SWAP1 POP PUSH1 0x20 MUL ADD PUSH1 0x20 DUP2 ADD SWAP1 PUSH2 0x2B78 SWAP2 SWAP1 PUSH2 0x3B8E JUMP JUMPDEST PUSH1 0x3 DUP6 ADD SWAP1 PUSH1 0x1 PUSH1 0x1 PUSH1 0xE0 SHL SUB NOT AND PUSH2 0x2BC0 JUMP JUMPDEST POP DUP1 PUSH2 0x2B97 DUP2 PUSH2 0x3BA9 JUMP JUMPDEST SWAP2 POP POP PUSH2 0x2965 JUMP JUMPDEST POP DUP1 PUSH2 0x2BAA DUP2 PUSH2 0x3BA9 JUMP JUMPDEST SWAP2 POP POP PUSH2 0x28F3 JUMP JUMPDEST POP SWAP1 SWAP9 SWAP8 POP POP POP POP POP POP POP POP JUMP JUMPDEST PUSH1 0x0 PUSH2 0x2BCC DUP4 DUP4 PUSH2 0x3285 JUMP JUMPDEST SWAP4 SWAP3 POP POP POP JUMP JUMPDEST PUSH1 0x0 PUSH2 0x2BCC DUP4 DUP4 PUSH2 0x32D4 JUMP JUMPDEST PUSH1 0x0 DUP2 DUP2 MSTORE PUSH1 0x1 DUP4 ADD PUSH1 0x20 MSTORE PUSH1 0x40 DUP2 KECCAK256 SLOAD ISZERO ISZERO PUSH2 0x2BCC JUMP JUMPDEST PUSH1 0x40 DUP1 DUP3 ADD CALLDATALOAD PUSH1 0x0 SWAP1 DUP2 MSTORE PUSH1 0x3 DUP7 ADD PUSH1 0x20 MSTORE SWAP1 DUP2 KECCAK256 DUP1 SLOAD PUSH2 0x2C17 SWAP1 PUSH2 0x39DF JUMP JUMPDEST SWAP1 POP PUSH1 0x0 SUB PUSH2 0x2C38 JUMPI PUSH1 0x40 MLOAD PUSH3 0x461BCD PUSH1 0xE5 SHL DUP2 MSTORE PUSH1 0x4 ADD PUSH2 0x47D SWAP1 PUSH2 0x3A13 JUMP JUMPDEST PUSH1 0x0 PUSH1 0x1 PUSH1 0x1 PUSH1 0xF8 SHL SUB NOT PUSH2 0x2C53 PUSH1 0xC0 DUP6 ADD PUSH1 0xA0 DUP7 ADD PUSH2 0x3901 JUMP JUMPDEST PUSH1 0x40 MLOAD PUSH1 0x1 PUSH1 0x1 PUSH1 0xF8 SHL SUB NOT SWAP1 SWAP3 AND PUSH1 0x20 DUP4 ADD MSTORE PUSH12 0xFFFFFFFFFFFFFFFFFFFFFFFF NOT PUSH1 0x60 SWAP2 DUP3 SHL AND PUSH1 0x21 DUP4 ADD MSTORE DUP5 ADD CALLDATALOAD PUSH1 0x35 DUP3 ADD MSTORE PUSH1 0x80 DUP5 ADD CALLDATALOAD PUSH1 0x55 DUP3 ADD MSTORE PUSH1 0x75 ADD PUSH1 0x40 MLOAD PUSH1 0x20 DUP2 DUP4 SUB SUB DUP2 MSTORE SWAP1 PUSH1 0x40 MSTORE DUP1 MLOAD SWAP1 PUSH1 0x20 ADD KECCAK256 PUSH1 0x0 SHR SWAP1 POP PUSH1 0x0 PUSH2 0x2CBB DUP3 PUSH2 0x207D JUMP JUMPDEST PUSH1 0x0 DUP2 DUP2 MSTORE PUSH1 0x1 DUP1 DUP11 ADD PUSH1 0x20 MSTORE PUSH1 0x40 SWAP1 SWAP2 KECCAK256 ADD SLOAD SWAP1 SWAP2 POP PUSH1 0x1 PUSH1 0x1 PUSH1 0xA0 SHL SUB AND ISZERO PUSH2 0x2D28 JUMPI PUSH1 0x40 MLOAD PUSH3 0x461BCD PUSH1 0xE5 SHL DUP2 MSTORE PUSH1 0x20 PUSH1 0x4 DUP3 ADD MSTORE PUSH1 0x1A PUSH1 0x24 DUP3 ADD MSTORE PUSH32 0x436F6E7465787420416C72656164792052656769737465726564000000000000 PUSH1 0x44 DUP3 ADD MSTORE PUSH1 0x64 ADD PUSH2 0x47D JUMP JUMPDEST PUSH1 0x40 DUP1 DUP6 ADD CALLDATALOAD PUSH1 0x0 SWAP1 DUP2 MSTORE PUSH1 0x3 DUP10 ADD PUSH1 0x20 MSTORE KECCAK256 PUSH2 0x2D48 SWAP1 PUSH1 0x2 ADD DUP3 PUSH2 0x2BC0 JUMP JUMPDEST POP PUSH1 0x0 DUP2 DUP2 MSTORE PUSH1 0x1 DUP9 DUP2 ADD PUSH1 0x20 MSTORE PUSH1 0x40 SWAP2 DUP3 SWAP1 KECCAK256 SWAP2 DUP7 ADD CALLDATALOAD DUP3 SSTORE DUP2 ADD DUP1 SLOAD PUSH1 0x1 PUSH1 0x1 PUSH1 0xA0 SHL SUB NOT AND PUSH1 0x1 PUSH1 0x1 PUSH1 0xA0 SHL SUB DUP6 AND OR SWAP1 SSTORE PUSH2 0x2D8D PUSH1 0xE0 DUP7 ADD PUSH1 0xC0 DUP8 ADD PUSH2 0x3997 JUMP JUMPDEST PUSH1 0x1 DUP3 ADD DUP1 SLOAD SWAP2 ISZERO ISZERO PUSH1 0x1 PUSH1 0xA0 SHL MUL PUSH1 0xFF PUSH1 0xA0 SHL NOT SWAP1 SWAP3 AND SWAP2 SWAP1 SWAP2 OR SWAP1 SSTORE PUSH1 0x0 JUMPDEST DUP7 DUP2 LT ISZERO PUSH2 0x3014 JUMPI DUP9 PUSH1 0x2 ADD PUSH1 0x0 DUP10 DUP10 DUP5 DUP2 DUP2 LT PUSH2 0x2DCE JUMPI PUSH2 0x2DCE PUSH2 0x3AB4 JUMP JUMPDEST SWAP1 POP PUSH1 0x20 MUL DUP2 ADD SWAP1 PUSH2 0x2DE0 SWAP2 SWAP1 PUSH2 0x3B03 JUMP JUMPDEST CALLDATALOAD DUP2 MSTORE PUSH1 0x20 DUP2 ADD SWAP2 SWAP1 SWAP2 MSTORE PUSH1 0x40 ADD PUSH1 0x0 KECCAK256 DUP1 SLOAD PUSH2 0x2DFC SWAP1 PUSH2 0x39DF JUMP JUMPDEST SWAP1 POP PUSH1 0x0 SUB PUSH2 0x2E1D JUMPI PUSH1 0x40 MLOAD PUSH3 0x461BCD PUSH1 0xE5 SHL DUP2 MSTORE PUSH1 0x4 ADD PUSH2 0x47D SWAP1 PUSH2 0x3A3C JUMP JUMPDEST PUSH1 0x0 JUMPDEST DUP9 DUP9 DUP4 DUP2 DUP2 LT PUSH2 0x2E32 JUMPI PUSH2 0x2E32 PUSH2 0x3AB4 JUMP JUMPDEST SWAP1 POP PUSH1 0x20 MUL DUP2 ADD SWAP1 PUSH2 0x2E44 SWAP2 SWAP1 PUSH2 0x3B03 JUMP JUMPDEST PUSH2 0x2E52 SWAP1 PUSH1 0x20 DUP2 ADD SWAP1 PUSH2 0x3B23 JUMP JUMPDEST SWAP1 POP DUP2 LT ISZERO PUSH2 0x3001 JUMPI DUP9 DUP9 DUP4 DUP2 DUP2 LT PUSH2 0x2E6D JUMPI PUSH2 0x2E6D PUSH2 0x3AB4 JUMP JUMPDEST SWAP1 POP PUSH1 0x20 MUL DUP2 ADD SWAP1 PUSH2 0x2E7F SWAP2 SWAP1 PUSH2 0x3B03 JUMP JUMPDEST CALLDATALOAD PUSH1 0x2 DUP5 ADD PUSH1 0x0 DUP12 DUP12 DUP7 DUP2 DUP2 LT PUSH2 0x2E98 JUMPI PUSH2 0x2E98 PUSH2 0x3AB4 JUMP JUMPDEST SWAP1 POP PUSH1 0x20 MUL DUP2 ADD SWAP1 PUSH2 0x2EAA SWAP2 SWAP1 PUSH2 0x3B03 JUMP JUMPDEST PUSH2 0x2EB8 SWAP1 PUSH1 0x20 DUP2 ADD SWAP1 PUSH2 0x3B23 JUMP JUMPDEST DUP6 DUP2 DUP2 LT PUSH2 0x2EC8 JUMPI PUSH2 0x2EC8 PUSH2 0x3AB4 JUMP JUMPDEST SWAP1 POP PUSH1 0x20 MUL ADD PUSH1 0x20 DUP2 ADD SWAP1 PUSH2 0x2EDD SWAP2 SWAP1 PUSH2 0x3B8E JUMP JUMPDEST PUSH1 0x1 PUSH1 0x1 PUSH1 0xE0 SHL SUB NOT AND DUP2 MSTORE PUSH1 0x20 DUP2 ADD SWAP2 SWAP1 SWAP2 MSTORE PUSH1 0x40 ADD PUSH1 0x0 KECCAK256 SSTORE DUP9 DUP9 DUP4 DUP2 DUP2 LT PUSH2 0x2F0A JUMPI PUSH2 0x2F0A PUSH2 0x3AB4 JUMP JUMPDEST SWAP1 POP PUSH1 0x20 MUL DUP2 ADD SWAP1 PUSH2 0x2F1C SWAP2 SWAP1 PUSH2 0x3B03 JUMP JUMPDEST PUSH2 0x2F2D SWAP1 PUSH1 0x60 DUP2 ADD SWAP1 PUSH1 0x40 ADD PUSH2 0x3997 JUMP JUMPDEST PUSH2 0x2F38 JUMPI PUSH1 0x2 PUSH2 0x2F3B JUMP JUMPDEST PUSH1 0x1 JUMPDEST DUP4 PUSH1 0x2 ADD PUSH1 0x0 DUP12 DUP12 DUP7 DUP2 DUP2 LT PUSH2 0x2F53 JUMPI PUSH2 0x2F53 PUSH2 0x3AB4 JUMP JUMPDEST SWAP1 POP PUSH1 0x20 MUL DUP2 ADD SWAP1 PUSH2 0x2F65 SWAP2 SWAP1 PUSH2 0x3B03 JUMP JUMPDEST PUSH2 0x2F73 SWAP1 PUSH1 0x20 DUP2 ADD SWAP1 PUSH2 0x3B23 JUMP JUMPDEST DUP6 DUP2 DUP2 LT PUSH2 0x2F83 JUMPI PUSH2 0x2F83 PUSH2 0x3AB4 JUMP JUMPDEST SWAP1 POP PUSH1 0x20 MUL ADD PUSH1 0x20 DUP2 ADD SWAP1 PUSH2 0x2F98 SWAP2 SWAP1 PUSH2 0x3B8E JUMP JUMPDEST PUSH1 0x1 PUSH1 0x1 PUSH1 0xE0 SHL SUB NOT AND DUP2 MSTORE PUSH1 0x20 DUP2 ADD SWAP2 SWAP1 SWAP2 MSTORE PUSH1 0x40 ADD PUSH1 0x0 KECCAK256 PUSH1 0x1 SWAP1 DUP2 ADD DUP1 SLOAD SWAP1 SWAP2 PUSH1 0xFF NOT SWAP1 SWAP2 AND SWAP1 DUP4 PUSH1 0x2 DUP2 GT ISZERO PUSH2 0x2FD4 JUMPI PUSH2 0x2FD4 PUSH2 0x391C JUMP JUMPDEST MUL OR SWAP1 SSTORE POP PUSH2 0x2FEE DUP10 DUP10 DUP5 DUP2 DUP2 LT PUSH2 0x2B33 JUMPI PUSH2 0x2B33 PUSH2 0x3AB4 JUMP JUMPDEST POP DUP1 PUSH2 0x2FF9 DUP2 PUSH2 0x3BA9 JUMP JUMPDEST SWAP2 POP POP PUSH2 0x2E20 JUMP JUMPDEST POP DUP1 PUSH2 0x300C DUP2 PUSH2 0x3BA9 JUMP JUMPDEST SWAP2 POP POP PUSH2 0x2DAE JUMP JUMPDEST POP SWAP1 SWAP8 SWAP7 POP POP POP POP POP POP POP JUMP JUMPDEST PUSH1 0x0 PUSH2 0x1978 DUP3 SLOAD SWAP1 JUMP JUMPDEST PUSH1 0x0 PUSH2 0x2BCC DUP4 DUP4 PUSH2 0x33C7 JUMP JUMPDEST PUSH1 0x0 PUSH32 0x8B73C3C69BB8FE3D512ECC4CF759CC79239F7B179B0FFACAA9A75D522B39400F ADDRESS PUSH1 0x1 PUSH1 0x1 PUSH1 0xA0 SHL SUB AND PUSH4 0x75D0C0DC PUSH1 0x40 MLOAD DUP2 PUSH4 0xFFFFFFFF AND PUSH1 0xE0 SHL DUP2 MSTORE PUSH1 0x4 ADD PUSH1 0x20 PUSH1 0x40 MLOAD DUP1 DUP4 SUB DUP2 DUP7 GAS STATICCALL ISZERO DUP1 ISZERO PUSH2 0x3098 JUMPI RETURNDATASIZE PUSH1 0x0 DUP1 RETURNDATACOPY RETURNDATASIZE PUSH1 0x0 REVERT JUMPDEST POP POP POP POP PUSH1 0x40 MLOAD RETURNDATASIZE PUSH1 0x1F NOT PUSH1 0x1F DUP3 ADD AND DUP3 ADD DUP1 PUSH1 0x40 MSTORE POP DUP2 ADD SWAP1 PUSH2 0x30BC SWAP2 SWAP1 PUSH2 0x3A9B JUMP JUMPDEST ADDRESS PUSH1 0x1 PUSH1 0x1 PUSH1 0xA0 SHL SUB AND PUSH4 0xA0A8E460 PUSH1 0x40 MLOAD DUP2 PUSH4 0xFFFFFFFF AND PUSH1 0xE0 SHL DUP2 MSTORE PUSH1 0x4 ADD PUSH1 0x20 PUSH1 0x40 MLOAD DUP1 DUP4 SUB DUP2 DUP7 GAS STATICCALL ISZERO DUP1 ISZERO PUSH2 0x30FA JUMPI RETURNDATASIZE PUSH1 0x0 DUP1 RETURNDATACOPY RETURNDATASIZE PUSH1 0x0 REVERT JUMPDEST POP POP POP POP PUSH1 0x40 MLOAD RETURNDATASIZE PUSH1 0x1F NOT PUSH1 0x1F DUP3 ADD AND DUP3 ADD DUP1 PUSH1 0x40 MSTORE POP DUP2 ADD SWAP1 PUSH2 0x311E SWAP2 SWAP1 PUSH2 0x3A9B JUMP JUMPDEST PUSH1 0x40 DUP1 MLOAD PUSH1 0x20 DUP2 ADD SWAP5 SWAP1 SWAP5 MSTORE DUP4 ADD SWAP2 SWAP1 SWAP2 MSTORE PUSH1 0x60 DUP3 ADD MSTORE CHAINID PUSH1 0x80 DUP3 ADD MSTORE ADDRESS PUSH1 0xA0 DUP3 ADD MSTORE PUSH1 0xC0 ADD PUSH1 0x40 MLOAD PUSH1 0x20 DUP2 DUP4 SUB SUB DUP2 MSTORE SWAP1 PUSH1 0x40 MSTORE DUP1 MLOAD SWAP1 PUSH1 0x20 ADD KECCAK256 SWAP1 POP SWAP1 JUMP JUMPDEST PUSH1 0x0 DUP1 PUSH32 0x7FFFFFFFFFFFFFFFFFFFFFFFFFFFFFFF5D576E7357A4501DDFE92F46681B20A0 DUP4 GT ISZERO PUSH2 0x3196 JUMPI POP PUSH1 0x0 SWAP1 POP PUSH1 0x3 PUSH2 0x3243 JUMP JUMPDEST DUP5 PUSH1 0xFF AND PUSH1 0x1B EQ ISZERO DUP1 ISZERO PUSH2 0x31AE JUMPI POP DUP5 PUSH1 0xFF AND PUSH1 0x1C EQ ISZERO JUMPDEST ISZERO PUSH2 0x31BF JUMPI POP PUSH1 0x0 SWAP1 POP PUSH1 0x4 PUSH2 0x3243 JUMP JUMPDEST PUSH1 0x40 DUP1 MLOAD PUSH1 0x0 DUP1 DUP3 MSTORE PUSH1 0x20 DUP3 ADD DUP1 DUP5 MSTORE DUP10 SWAP1 MSTORE PUSH1 0xFF DUP9 AND SWAP3 DUP3 ADD SWAP3 SWAP1 SWAP3 MSTORE PUSH1 0x60 DUP2 ADD DUP7 SWAP1 MSTORE PUSH1 0x80 DUP2 ADD DUP6 SWAP1 MSTORE PUSH1 0x1 SWAP1 PUSH1 0xA0 ADD PUSH1 0x20 PUSH1 0x40 MLOAD PUSH1 0x20 DUP2 SUB SWAP1 DUP1 DUP5 SUB SWAP1 DUP6 GAS STATICCALL ISZERO DUP1 ISZERO PUSH2 0x3213 JUMPI RETURNDATASIZE PUSH1 0x0 DUP1 RETURNDATACOPY RETURNDATASIZE PUSH1 0x0 REVERT JUMPDEST POP POP PUSH1 0x40 MLOAD PUSH1 0x1F NOT ADD MLOAD SWAP2 POP POP PUSH1 0x1 PUSH1 0x1 PUSH1 0xA0 SHL SUB DUP2 AND PUSH2 0x323C JUMPI PUSH1 0x0 PUSH1 0x1 SWAP3 POP SWAP3 POP POP PUSH2 0x3243 JUMP JUMPDEST SWAP2 POP PUSH1 0x0 SWAP1 POP JUMPDEST SWAP5 POP SWAP5 SWAP3 POP POP POP JUMP JUMPDEST PUSH1 0x0 DUP1 PUSH1 0x1 PUSH1 0x1 PUSH1 0xFF SHL SUB DUP4 AND DUP2 PUSH2 0x3269 PUSH1 0xFF DUP7 SWAP1 SHR PUSH1 0x1B PUSH2 0x3BC2 JUMP JUMPDEST SWAP1 POP PUSH2 0x3277 DUP8 DUP3 DUP9 DUP6 PUSH2 0x315F JUMP JUMPDEST SWAP4 POP SWAP4 POP POP POP SWAP4 POP SWAP4 SWAP2 POP POP JUMP JUMPDEST PUSH1 0x0 DUP2 DUP2 MSTORE PUSH1 0x1 DUP4 ADD PUSH1 0x20 MSTORE PUSH1 0x40 DUP2 KECCAK256 SLOAD PUSH2 0x32CC JUMPI POP DUP2 SLOAD PUSH1 0x1 DUP2 DUP2 ADD DUP5 SSTORE PUSH1 0x0 DUP5 DUP2 MSTORE PUSH1 0x20 DUP1 DUP3 KECCAK256 SWAP1 SWAP4 ADD DUP5 SWAP1 SSTORE DUP5 SLOAD DUP5 DUP3 MSTORE DUP3 DUP7 ADD SWAP1 SWAP4 MSTORE PUSH1 0x40 SWAP1 KECCAK256 SWAP2 SWAP1 SWAP2 SSTORE PUSH2 0x1978 JUMP JUMPDEST POP PUSH1 0x0 PUSH2 0x1978 JUMP JUMPDEST PUSH1 0x0 DUP2 DUP2 MSTORE PUSH1 0x1 DUP4 ADD PUSH1 0x20 MSTORE PUSH1 0x40 DUP2 KECCAK256 SLOAD DUP1 ISZERO PUSH2 0x33BD JUMPI PUSH1 0x0 PUSH2 0x32F8 PUSH1 0x1 DUP4 PUSH2 0x3BD5 JUMP JUMPDEST DUP6 SLOAD SWAP1 SWAP2 POP PUSH1 0x0 SWAP1 PUSH2 0x330C SWAP1 PUSH1 0x1 SWAP1 PUSH2 0x3BD5 JUMP JUMPDEST SWAP1 POP DUP2 DUP2 EQ PUSH2 0x3371 JUMPI PUSH1 0x0 DUP7 PUSH1 0x0 ADD DUP3 DUP2 SLOAD DUP2 LT PUSH2 0x332C JUMPI PUSH2 0x332C PUSH2 0x3AB4 JUMP JUMPDEST SWAP1 PUSH1 0x0 MSTORE PUSH1 0x20 PUSH1 0x0 KECCAK256 ADD SLOAD SWAP1 POP DUP1 DUP8 PUSH1 0x0 ADD DUP5 DUP2 SLOAD DUP2 LT PUSH2 0x334F JUMPI PUSH2 0x334F PUSH2 0x3AB4 JUMP JUMPDEST PUSH1 0x0 SWAP2 DUP3 MSTORE PUSH1 0x20 DUP1 DUP4 KECCAK256 SWAP1 SWAP2 ADD SWAP3 SWAP1 SWAP3 SSTORE SWAP2 DUP3 MSTORE PUSH1 0x1 DUP9 ADD SWAP1 MSTORE PUSH1 0x40 SWAP1 KECCAK256 DUP4 SWAP1 SSTORE JUMPDEST DUP6 SLOAD DUP7 SWAP1 DUP1 PUSH2 0x3382 JUMPI PUSH2 0x3382 PUSH2 0x3BE8 JUMP JUMPDEST PUSH1 0x1 SWAP1 SUB DUP2 DUP2 SWAP1 PUSH1 0x0 MSTORE PUSH1 0x20 PUSH1 0x0 KECCAK256 ADD PUSH1 0x0 SWAP1 SSTORE SWAP1 SSTORE DUP6 PUSH1 0x1 ADD PUSH1 0x0 DUP7 DUP2 MSTORE PUSH1 0x20 ADD SWAP1 DUP2 MSTORE PUSH1 0x20 ADD PUSH1 0x0 KECCAK256 PUSH1 0x0 SWAP1 SSTORE PUSH1 0x1 SWAP4 POP POP POP POP PUSH2 0x1978 JUMP JUMPDEST PUSH1 0x0 SWAP2 POP POP PUSH2 0x1978 JUMP JUMPDEST PUSH1 0x0 DUP3 PUSH1 0x0 ADD DUP3 DUP2 SLOAD DUP2 LT PUSH2 0x33DE JUMPI PUSH2 0x33DE PUSH2 0x3AB4 JUMP JUMPDEST SWAP1 PUSH1 0x0 MSTORE PUSH1 0x20 PUSH1 0x0 KECCAK256 ADD SLOAD SWAP1 POP SWAP3 SWAP2 POP POP JUMP JUMPDEST PUSH4 0x4E487B71 PUSH1 0xE0 SHL PUSH1 0x0 MSTORE PUSH1 0x41 PUSH1 0x4 MSTORE PUSH1 0x24 PUSH1 0x0 REVERT JUMPDEST PUSH1 0x0 DUP3 PUSH1 0x1F DUP4 ADD SLT PUSH2 0x3418 JUMPI PUSH1 0x0 DUP1 REVERT JUMPDEST DUP2 CALLDATALOAD PUSH8 0xFFFFFFFFFFFFFFFF DUP1 DUP3 GT ISZERO PUSH2 0x3433 JUMPI PUSH2 0x3433 PUSH2 0x33F1 JUMP JUMPDEST PUSH1 0x40 MLOAD PUSH1 0x1F DUP4 ADD PUSH1 0x1F NOT SWAP1 DUP2 AND PUSH1 0x3F ADD AND DUP2 ADD SWAP1 DUP3 DUP3 GT DUP2 DUP4 LT OR ISZERO PUSH2 0x345B JUMPI PUSH2 0x345B PUSH2 0x33F1 JUMP JUMPDEST DUP2 PUSH1 0x40 MSTORE DUP4 DUP2 MSTORE DUP7 PUSH1 0x20 DUP6 DUP9 ADD ADD GT ISZERO PUSH2 0x3474 JUMPI PUSH1 0x0 DUP1 REVERT JUMPDEST DUP4 PUSH1 0x20 DUP8 ADD PUSH1 0x20 DUP4 ADD CALLDATACOPY PUSH1 0x0 PUSH1 0x20 DUP6 DUP4 ADD ADD MSTORE DUP1 SWAP5 POP POP POP POP POP SWAP3 SWAP2 POP POP JUMP JUMPDEST PUSH1 0x0 PUSH1 0xA0 DUP3 DUP5 SUB SLT ISZERO PUSH2 0x34A6 JUMPI PUSH1 0x0 DUP1 REVERT JUMPDEST POP SWAP2 SWAP1 POP JUMP JUMPDEST PUSH1 0x0 DUP1 DUP4 PUSH1 0x1F DUP5 ADD SLT PUSH2 0x34BE JUMPI PUSH1 0x0 DUP1 REVERT JUMPDEST POP DUP2 CALLDATALOAD PUSH8 0xFFFFFFFFFFFFFFFF DUP2 GT ISZERO PUSH2 0x34D6 JUMPI PUSH1 0x0 DUP1 REVERT JUMPDEST PUSH1 0x20 DUP4 ADD SWAP2 POP DUP4 PUSH1 0x20 DUP3 PUSH1 0x5 SHL DUP6 ADD ADD GT ISZERO PUSH2 0x2076 JUMPI PUSH1 0x0 DUP1 REVERT JUMPDEST PUSH1 0x0 DUP1 PUSH1 0x0 DUP1 PUSH1 0x0 DUP1 PUSH2 0x120 DUP8 DUP10 SUB SLT ISZERO PUSH2 0x350B JUMPI PUSH1 0x0 DUP1 REVERT JUMPDEST DUP7 CALLDATALOAD SWAP6 POP PUSH1 0x20 DUP8 ADD CALLDATALOAD SWAP5 POP PUSH1 0x40 DUP8 ADD CALLDATALOAD PUSH8 0xFFFFFFFFFFFFFFFF DUP1 DUP3 GT ISZERO PUSH2 0x3531 JUMPI PUSH1 0x0 DUP1 REVERT JUMPDEST PUSH2 0x353D DUP11 DUP4 DUP12 ADD PUSH2 0x3407 JUMP JUMPDEST SWAP6 POP PUSH2 0x354C DUP11 PUSH1 0x60 DUP12 ADD PUSH2 0x3494 JUMP JUMPDEST SWAP5 POP PUSH2 0x100 DUP10 ADD CALLDATALOAD SWAP2 POP DUP1 DUP3 GT ISZERO PUSH2 0x3563 JUMPI PUSH1 0x0 DUP1 REVERT JUMPDEST POP PUSH2 0x3570 DUP10 DUP3 DUP11 ADD PUSH2 0x34AC JUMP JUMPDEST SWAP8 SWAP11 SWAP7 SWAP10 POP SWAP5 SWAP8 POP SWAP3 SWAP6 SWAP4 SWAP5 SWAP3 POP POP POP JUMP JUMPDEST PUSH1 0x0 DUP1 PUSH1 0x0 DUP1 PUSH1 0x0 PUSH2 0x100 DUP7 DUP9 SUB SLT ISZERO PUSH2 0x359B JUMPI PUSH1 0x0 DUP1 REVERT JUMPDEST DUP6 CALLDATALOAD SWAP5 POP PUSH1 0x20 DUP7 ADD CALLDATALOAD PUSH8 0xFFFFFFFFFFFFFFFF DUP1 DUP3 GT ISZERO PUSH2 0x35BA JUMPI PUSH1 0x0 DUP1 REVERT JUMPDEST PUSH2 0x35C6 DUP10 DUP4 DUP11 ADD PUSH2 0x3407 JUMP JUMPDEST SWAP6 POP PUSH2 0x35D5 DUP10 PUSH1 0x40 DUP11 ADD PUSH2 0x3494 JUMP JUMPDEST SWAP5 POP PUSH1 0xE0 DUP9 ADD CALLDATALOAD SWAP2 POP DUP1 DUP3 GT ISZERO PUSH2 0x35EB JUMPI PUSH1 0x0 DUP1 REVERT JUMPDEST POP PUSH2 0x35F8 DUP9 DUP3 DUP10 ADD PUSH2 0x34AC JUMP JUMPDEST SWAP7 SWAP10 SWAP6 SWAP9 POP SWAP4 SWAP7 POP SWAP3 SWAP5 SWAP4 SWAP3 POP POP POP JUMP JUMPDEST PUSH1 0x0 DUP1 PUSH1 0x0 PUSH1 0x60 DUP5 DUP7 SUB SLT ISZERO PUSH2 0x361E JUMPI PUSH1 0x0 DUP1 REVERT JUMPDEST POP POP DUP2 CALLDATALOAD SWAP4 PUSH1 0x20 DUP4 ADD CALLDATALOAD SWAP4 POP PUSH1 0x40 SWAP1 SWAP3 ADD CALLDATALOAD SWAP2 SWAP1 POP JUMP JUMPDEST DUP1 CALLDATALOAD PUSH1 0x1 PUSH1 0x1 PUSH1 0xE0 SHL SUB NOT DUP2 AND DUP2 EQ PUSH2 0x364D JUMPI PUSH1 0x0 DUP1 REVERT JUMPDEST SWAP2 SWAP1 POP JUMP JUMPDEST PUSH1 0x0 DUP1 PUSH1 0x0 DUP1 PUSH1 0x80 DUP6 DUP8 SUB SLT ISZERO PUSH2 0x3668 JUMPI PUSH1 0x0 DUP1 REVERT JUMPDEST DUP5 CALLDATALOAD SWAP4 POP PUSH1 0x20 DUP6 ADD CALLDATALOAD SWAP3 POP PUSH2 0x367F PUSH1 0x40 DUP7 ADD PUSH2 0x3635 JUMP JUMPDEST SWAP4 SWAP7 SWAP3 SWAP6 POP SWAP3 SWAP4 PUSH1 0x60 ADD CALLDATALOAD SWAP3 POP POP JUMP JUMPDEST PUSH1 0x0 DUP1 PUSH1 0x0 DUP1 PUSH1 0x0 DUP6 DUP8 SUB PUSH2 0x140 DUP2 SLT ISZERO PUSH2 0x36A9 JUMPI PUSH1 0x0 DUP1 REVERT JUMPDEST DUP7 CALLDATALOAD SWAP6 POP PUSH1 0x20 DUP8 ADD CALLDATALOAD PUSH8 0xFFFFFFFFFFFFFFFF DUP1 DUP3 GT ISZERO PUSH2 0x36C8 JUMPI PUSH1 0x0 DUP1 REVERT JUMPDEST PUSH2 0x36D4 DUP11 DUP4 DUP12 ADD PUSH2 0x3407 JUMP JUMPDEST SWAP7 POP PUSH1 0xE0 PUSH1 0x3F NOT DUP5 ADD SLT ISZERO PUSH2 0x36E8 JUMPI PUSH1 0x0 DUP1 REVERT JUMPDEST PUSH1 0x40 DUP10 ADD SWAP6 POP PUSH2 0x120 DUP10 ADD CALLDATALOAD SWAP3 POP DUP1 DUP4 GT ISZERO PUSH2 0x3703 JUMPI PUSH1 0x0 DUP1 REVERT JUMPDEST POP POP PUSH2 0x35F8 DUP9 DUP3 DUP10 ADD PUSH2 0x34AC JUMP JUMPDEST PUSH1 0x0 DUP1 PUSH1 0x0 DUP1 PUSH1 0x80 DUP6 DUP8 SUB SLT ISZERO PUSH2 0x3727 JUMPI PUSH1 0x0 DUP1 REVERT JUMPDEST DUP5 CALLDATALOAD SWAP4 POP PUSH1 0x20 DUP6 ADD CALLDATALOAD SWAP3 POP PUSH1 0x40 DUP6 ADD CALLDATALOAD SWAP2 POP PUSH2 0x3745 PUSH1 0x60 DUP7 ADD PUSH2 0x3635 JUMP JUMPDEST SWAP1 POP SWAP3 SWAP6 SWAP2 SWAP5 POP SWAP3 POP JUMP JUMPDEST PUSH1 0x0 DUP1 PUSH1 0x40 DUP4 DUP6 SUB SLT ISZERO PUSH2 0x3763 JUMPI PUSH1 0x0 DUP1 REVERT JUMPDEST POP POP DUP1 CALLDATALOAD SWAP3 PUSH1 0x20 SWAP1 SWAP2 ADD CALLDATALOAD SWAP2 POP JUMP JUMPDEST DUP1 ISZERO ISZERO DUP2 EQ PUSH2 0x3780 JUMPI PUSH1 0x0 DUP1 REVERT JUMPDEST POP JUMP JUMPDEST PUSH1 0x0 DUP1 PUSH1 0x0 PUSH1 0x60 DUP5 DUP7 SUB SLT ISZERO PUSH2 0x3798 JUMPI PUSH1 0x0 DUP1 REVERT JUMPDEST DUP4 CALLDATALOAD SWAP3 POP PUSH1 0x20 DUP5 ADD CALLDATALOAD SWAP2 POP PUSH1 0x40 DUP5 ADD CALLDATALOAD PUSH2 0x37B1 DUP2 PUSH2 0x3772 JUMP JUMPDEST DUP1 SWAP2 POP POP SWAP3 POP SWAP3 POP SWAP3 JUMP JUMPDEST PUSH1 0x0 DUP1 PUSH1 0x0 PUSH1 0x60 DUP5 DUP7 SUB SLT ISZERO PUSH2 0x37D1 JUMPI PUSH1 0x0 DUP1 REVERT JUMPDEST DUP4 CALLDATALOAD SWAP3 POP PUSH1 0x20 DUP5 ADD CALLDATALOAD SWAP2 POP PUSH2 0x37E8 PUSH1 0x40 DUP6 ADD PUSH2 0x3635 JUMP JUMPDEST SWAP1 POP SWAP3 POP SWAP3 POP SWAP3 JUMP JUMPDEST PUSH1 0x20 DUP1 DUP3 MSTORE DUP3 MLOAD DUP3 DUP3 ADD DUP2 SWAP1 MSTORE PUSH1 0x0 SWAP2 SWAP1 DUP5 DUP3 ADD SWAP1 PUSH1 0x40 DUP6 ADD SWAP1 DUP5 JUMPDEST DUP2 DUP2 LT ISZERO PUSH2 0x3833 JUMPI DUP4 MLOAD PUSH1 0x1 PUSH1 0x1 PUSH1 0xE0 SHL SUB NOT AND DUP4 MSTORE SWAP3 DUP5 ADD SWAP3 SWAP2 DUP5 ADD SWAP2 PUSH1 0x1 ADD PUSH2 0x380D JUMP JUMPDEST POP SWAP1 SWAP7 SWAP6 POP POP POP POP POP POP JUMP JUMPDEST DUP1 CALLDATALOAD PUSH1 0x1 PUSH1 0x1 PUSH1 0xA0 SHL SUB DUP2 AND DUP2 EQ PUSH2 0x364D JUMPI PUSH1 0x0 DUP1 REVERT JUMPDEST PUSH1 0x0 DUP1 PUSH1 0x0 DUP1 PUSH1 0x0 PUSH1 0x80 DUP7 DUP9 SUB SLT ISZERO PUSH2 0x386E JUMPI PUSH1 0x0 DUP1 REVERT JUMPDEST DUP6 CALLDATALOAD SWAP5 POP PUSH2 0x387E PUSH1 0x20 DUP8 ADD PUSH2 0x383F JUMP JUMPDEST SWAP4 POP PUSH1 0x40 DUP7 ADD CALLDATALOAD SWAP3 POP PUSH1 0x60 DUP7 ADD CALLDATALOAD PUSH8 0xFFFFFFFFFFFFFFFF DUP2 GT ISZERO PUSH2 0x38A1 JUMPI PUSH1 0x0 DUP1 REVERT JUMPDEST PUSH2 0x35F8 DUP9 DUP3 DUP10 ADD PUSH2 0x34AC JUMP JUMPDEST PUSH1 0x0 PUSH1 0x20 DUP3 DUP5 SUB SLT ISZERO PUSH2 0x38BF JUMPI PUSH1 0x0 DUP1 REVERT JUMPDEST DUP2 MLOAD PUSH2 0x2BCC DUP2 PUSH2 0x3772 JUMP JUMPDEST PUSH1 0x20 DUP1 DUP3 MSTORE PUSH1 0x17 SWAP1 DUP3 ADD MSTORE PUSH32 0x536166654D6F64653A2043616C6C2052656A6563746564000000000000000000 PUSH1 0x40 DUP3 ADD MSTORE PUSH1 0x60 ADD SWAP1 JUMP JUMPDEST PUSH1 0x0 PUSH1 0x20 DUP3 DUP5 SUB SLT ISZERO PUSH2 0x3913 JUMPI PUSH1 0x0 DUP1 REVERT JUMPDEST PUSH2 0x2BCC DUP3 PUSH2 0x383F JUMP JUMPDEST PUSH4 0x4E487B71 PUSH1 0xE0 SHL PUSH1 0x0 MSTORE PUSH1 0x21 PUSH1 0x4 MSTORE PUSH1 0x24 PUSH1 0x0 REVERT JUMPDEST PUSH1 0x20 DUP1 DUP3 MSTORE PUSH1 0x18 SWAP1 DUP3 ADD MSTORE PUSH32 0x496C6C6567616C20454344415341205369676E61747572650000000000000000 PUSH1 0x40 DUP3 ADD MSTORE PUSH1 0x60 ADD SWAP1 JUMP JUMPDEST SWAP4 DUP5 MSTORE PUSH1 0x20 DUP5 ADD SWAP3 SWAP1 SWAP3 MSTORE PUSH1 0x1 PUSH1 0x1 PUSH1 0xA0 SHL SUB AND PUSH1 0x40 DUP4 ADD MSTORE PUSH1 0x1 PUSH1 0x1 PUSH1 0xE0 SHL SUB NOT AND PUSH1 0x60 DUP3 ADD MSTORE PUSH1 0x80 ADD SWAP1 JUMP JUMPDEST PUSH1 0x0 PUSH1 0x20 DUP3 DUP5 SUB SLT ISZERO PUSH2 0x39A9 JUMPI PUSH1 0x0 DUP1 REVERT JUMPDEST DUP2 CALLDATALOAD PUSH2 0x2BCC DUP2 PUSH2 0x3772 JUMP JUMPDEST PUSH1 0x20 DUP1 DUP3 MSTORE PUSH1 0x11 SWAP1 DUP3 ADD MSTORE PUSH17 0x10DBDB9D195E1D08139BDD08119BDD5B99 PUSH1 0x7A SHL PUSH1 0x40 DUP3 ADD MSTORE PUSH1 0x60 ADD SWAP1 JUMP JUMPDEST PUSH1 0x1 DUP2 DUP2 SHR SWAP1 DUP3 AND DUP1 PUSH2 0x39F3 JUMPI PUSH1 0x7F DUP3 AND SWAP2 POP JUMPDEST PUSH1 0x20 DUP3 LT DUP2 SUB PUSH2 0x34A6 JUMPI PUSH4 0x4E487B71 PUSH1 0xE0 SHL PUSH1 0x0 MSTORE PUSH1 0x22 PUSH1 0x4 MSTORE PUSH1 0x24 PUSH1 0x0 REVERT JUMPDEST PUSH1 0x20 DUP1 DUP3 MSTORE PUSH1 0xF SWAP1 DUP3 ADD MSTORE PUSH15 0x1499585B1B48139BDD08119BDD5B99 PUSH1 0x8A SHL PUSH1 0x40 DUP3 ADD MSTORE PUSH1 0x60 ADD SWAP1 JUMP JUMPDEST PUSH1 0x20 DUP1 DUP3 MSTORE PUSH1 0xE SWAP1 DUP3 ADD MSTORE PUSH14 0x149BDB1948139BDD08119BDD5B99 PUSH1 0x92 SHL PUSH1 0x40 DUP3 ADD MSTORE PUSH1 0x60 ADD SWAP1 JUMP JUMPDEST PUSH1 0x20 DUP1 DUP3 MSTORE PUSH1 0x1A SWAP1 DUP3 ADD MSTORE PUSH32 0x46756E6374696F6E53656C6563746F72204E6F7420466F756E64000000000000 PUSH1 0x40 DUP3 ADD MSTORE PUSH1 0x60 ADD SWAP1 JUMP JUMPDEST PUSH1 0x0 PUSH1 0x20 DUP3 DUP5 SUB SLT ISZERO PUSH2 0x3AAD JUMPI PUSH1 0x0 DUP1 REVERT JUMPDEST POP MLOAD SWAP2 SWAP1 POP JUMP JUMPDEST PUSH4 0x4E487B71 PUSH1 0xE0 SHL PUSH1 0x0 MSTORE PUSH1 0x32 PUSH1 0x4 MSTORE PUSH1 0x24 PUSH1 0x0 REVERT JUMPDEST PUSH4 0x4E487B71 PUSH1 0xE0 SHL PUSH1 0x0 MSTORE PUSH1 0x11 PUSH1 0x4 MSTORE PUSH1 0x24 PUSH1 0x0 REVERT JUMPDEST PUSH1 0x0 PUSH4 0xFFFFFFFF DUP1 DUP4 AND DUP2 DUP2 SUB PUSH2 0x3AF9 JUMPI PUSH2 0x3AF9 PUSH2 0x3ACA JUMP JUMPDEST PUSH1 0x1 ADD SWAP4 SWAP3 POP POP POP JUMP JUMPDEST PUSH1 0x0 DUP3 CALLDATALOAD PUSH1 0x5E NOT DUP4 CALLDATASIZE SUB ADD DUP2 SLT PUSH2 0x3B19 JUMPI PUSH1 0x0 DUP1 REVERT JUMPDEST SWAP2 SWAP1 SWAP2 ADD SWAP3 SWAP2 POP POP JUMP JUMPDEST PUSH1 0x0 DUP1 DUP4 CALLDATALOAD PUSH1 0x1E NOT DUP5 CALLDATASIZE SUB ADD DUP2 SLT PUSH2 0x3B3A JUMPI PUSH1 0x0 DUP1 REVERT JUMPDEST DUP4 ADD DUP1 CALLDATALOAD SWAP2 POP PUSH8 0xFFFFFFFFFFFFFFFF DUP3 GT ISZERO PUSH2 0x3B55 JUMPI PUSH1 0x0 DUP1 REVERT JUMPDEST PUSH1 0x20 ADD SWAP2 POP PUSH1 0x5 DUP2 SWAP1 SHL CALLDATASIZE SUB DUP3 SGT ISZERO PUSH2 0x2076 JUMPI PUSH1 0x0 DUP1 REVERT JUMPDEST PUSH1 0x0 PUSH1 0x20 DUP3 DUP5 SUB SLT ISZERO PUSH2 0x3B7F JUMPI PUSH1 0x0 DUP1 REVERT JUMPDEST DUP2 CALLDATALOAD PUSH1 0x3 DUP2 LT PUSH2 0x2BCC JUMPI PUSH1 0x0 DUP1 REVERT JUMPDEST PUSH1 0x0 PUSH1 0x20 DUP3 DUP5 SUB SLT ISZERO PUSH2 0x3BA0 JUMPI PUSH1 0x0 DUP1 REVERT JUMPDEST PUSH2 0x2BCC DUP3 PUSH2 0x3635 JUMP JUMPDEST PUSH1 0x0 PUSH1 0x1 DUP3 ADD PUSH2 0x3BBB JUMPI PUSH2 0x3BBB PUSH2 0x3ACA JUMP JUMPDEST POP PUSH1 0x1 ADD SWAP1 JUMP JUMPDEST DUP1 DUP3 ADD DUP1 DUP3 GT ISZERO PUSH2 0x1978 JUMPI PUSH2 0x1978 PUSH2 0x3ACA JUMP JUMPDEST DUP2 DUP2 SUB DUP2 DUP2 GT ISZERO PUSH2 0x1978 JUMPI PUSH2 0x1978 PUSH2 0x3ACA JUMP JUMPDEST PUSH4 0x4E487B71 PUSH1 0xE0 SHL PUSH1 0x0 MSTORE PUSH1 0x31 PUSH1 0x4 MSTORE PUSH1 0x24 PUSH1 0x0 REVERT INVALID LOG2 PUSH5 0x6970667358 0x22 SLT KECCAK256 PUSH23 0x32350E143CB694CCB8DC1E38D5070D2D08229F885D1982 0xE7 BLOCKHASH NOT PUSH24 0xB33F41B964736F6C63430008110033000000000000000000 "
    },
    "gasEstimates": {
      "creation": {
        "codeDepositCost": "3082400",
        "executionCost": "3427",
        "totalCost": "3085827"
      },
      "external": {
        "CTX_MESSAGE_TYPEHASH()": "269",
        "LIB_NAME()": "370",
        "LIB_VERSION()": "383",
        "PREDICT_CTX_MESSAGE_TYPEHASH()": "267",
        "TYPE_HASH()": "202",
        "addContextFuncRole(AccessControlStorage.DataMaps storage,bytes32,bytes4,bytes32)": "infinite",
        "getContextFuncs(AccessControlStorage.DataMaps storage,bytes32)": "infinite",
        "getContextInfo(AccessControlStorage.DataMaps storage,bytes32)": "infinite",
        "grantContextRole(AccessControlStorage.DataMaps storage,bytes32,bytes4,bytes32)": "infinite",
        "hasContextRole(AccessControlStorage.DataMaps storage,bytes32,bytes32,bytes4)": "7341",
        "registerAccessControlManagerContext(AccessControlStorage.DataMaps storage,address,bytes32,IContextManagement.RequestRegisterContext[])": "infinite",
        "registerContext(AccessControlStorage.DataMaps storage,bytes,IContextManagement.RequestContext,IContextManagement.RequestRegisterContext[])": "infinite",
        "registerPredictContext(AccessControlStorage.DataMaps storage,bytes,IContextManagement.RequestPredictContext,IContextManagement.RequestRegisterContext[])": "infinite",
        "removeContextFunc(AccessControlStorage.DataMaps storage,bytes32,bytes4)": "infinite",
        "revokeContextRole(AccessControlStorage.DataMaps storage,bytes32,bytes4,bytes32)": "infinite",
        "setContextRealm(AccessControlStorage.DataMaps storage,bytes32,bytes32)": "infinite",
        "setContextStatus(AccessControlStorage.DataMaps storage,bytes32,bool)": "infinite",
        "updateContext(AccessControlStorage.DataMaps storage,bytes32,bytes,IContextManagement.RequestContext,IContextManagement.RequestUpdateContext[])": "infinite"
      },
      "internal": {
        "_domainSeparatorV4()": "infinite",
        "_getContextMessageHash(address,bytes32,bytes32,bytes32)": "infinite",
        "_getPredictContextMessageHash(address,bytes32,bytes32)": "infinite",
        "_hashTypedDataV4(bytes32)": "infinite",
        "_registerContext(struct AccessControlStorage.DataMaps storage pointer,address,bytes32,bool,struct IContextManagement.RequestRegisterContext calldata[] calldata)": "infinite",
        "_registerPredictContext(struct AccessControlStorage.DataMaps storage pointer,struct IContextManagement.RequestRegisterContext calldata[] calldata,struct IContextManagement.RequestPredictContext calldata)": "infinite",
        "_updateContext(struct AccessControlStorage.DataMaps storage pointer,bytes32,bytes32,bool,struct IContextManagement.RequestUpdateContext calldata[] calldata)": "infinite"
      }
    },
    "methodIdentifiers": {
      "CTX_MESSAGE_TYPEHASH()": "34109de2",
      "LIB_NAME()": "bec94751",
      "LIB_VERSION()": "2466209b",
      "PREDICT_CTX_MESSAGE_TYPEHASH()": "f0b15def",
      "TYPE_HASH()": "64d4c819",
      "addContextFuncRole(AccessControlStorage.DataMaps storage,bytes32,bytes4,bytes32)": "518bf960",
      "getContextFuncs(AccessControlStorage.DataMaps storage,bytes32)": "ec77eb21",
      "getContextInfo(AccessControlStorage.DataMaps storage,bytes32)": "733ae93e",
      "grantContextRole(AccessControlStorage.DataMaps storage,bytes32,bytes4,bytes32)": "453dd6dc",
      "hasContextRole(AccessControlStorage.DataMaps storage,bytes32,bytes32,bytes4)": "7134bb45",
      "registerAccessControlManagerContext(AccessControlStorage.DataMaps storage,address,bytes32,IContextManagement.RequestRegisterContext[])": "faee6718",
      "registerContext(AccessControlStorage.DataMaps storage,bytes,IContextManagement.RequestContext,IContextManagement.RequestRegisterContext[])": "15922efe",
      "registerPredictContext(AccessControlStorage.DataMaps storage,bytes,IContextManagement.RequestPredictContext,IContextManagement.RequestRegisterContext[])": "4ac3fdd4",
      "removeContextFunc(AccessControlStorage.DataMaps storage,bytes32,bytes4)": "b0c25575",
      "revokeContextRole(AccessControlStorage.DataMaps storage,bytes32,bytes4,bytes32)": "5acd816a",
      "setContextRealm(AccessControlStorage.DataMaps storage,bytes32,bytes32)": "3e015ef6",
      "setContextStatus(AccessControlStorage.DataMaps storage,bytes32,bool)": "7cc5941d",
      "updateContext(AccessControlStorage.DataMaps storage,bytes32,bytes,IContextManagement.RequestContext,IContextManagement.RequestUpdateContext[])": "099a0c2e"
    }
  },
  "storageLayout": {
    "storage": [],
    "types": null
  },
  "userdoc": {
    "kind": "user",
    "methods": {},
    "version": 1
  }
}