{
  "contractName": "LContextManagement",
  "sourceName": "src/contracts/lib/acl/LContextManagement.sol",
  "abi": [
    {
      "inputs": [],
      "name": "CTX_MESSAGE_TYPEHASH",
      "outputs": [
        {
          "internalType": "bytes32",
          "name": "",
          "type": "bytes32"
        }
      ],
      "stateMutability": "view",
      "type": "function"
    },
    {
      "inputs": [],
      "name": "LIB_NAME",
      "outputs": [
        {
          "internalType": "bytes32",
          "name": "",
          "type": "bytes32"
        }
      ],
      "stateMutability": "view",
      "type": "function"
    },
    {
      "inputs": [],
      "name": "LIB_VERSION",
      "outputs": [
        {
          "internalType": "bytes32",
          "name": "",
          "type": "bytes32"
        }
      ],
      "stateMutability": "view",
      "type": "function"
    },
    {
      "inputs": [],
      "name": "PREDICT_CTX_MESSAGE_TYPEHASH",
      "outputs": [
        {
          "internalType": "bytes32",
          "name": "",
          "type": "bytes32"
        }
      ],
      "stateMutability": "view",
      "type": "function"
    },
    {
      "inputs": [],
      "name": "TYPE_HASH",
      "outputs": [
        {
          "internalType": "bytes32",
          "name": "",
          "type": "bytes32"
        }
      ],
      "stateMutability": "view",
      "type": "function"
    },
    {
      "inputs": [],
      "name": "getLibrary",
      "outputs": [
        {
          "internalType": "address",
          "name": "",
          "type": "address"
        }
      ],
      "stateMutability": "pure",
      "type": "function"
    }
  ],
  "bytecode": "0x613edc61003a600b82828239805160001a60731461002d57634e487b7160e01b600052600060045260246000fd5b30600052607381538281f3fe73000000000000000000000000000000000000000030146080604052600436106101365760003560e01c80638533777c116100b7578063bec947511161007b578063bec94751146103d7578063d94f2470146103df578063ebcc861e1461041f578063ef20d55d1461043f578063f0b15def1461045f57600080fd5b80638533777c146102e65780639bbafb11146102f9578063a234dae314610360578063a64c0bb014610380578063adfc581b146103a057600080fd5b806364d4c819116100fe57806364d4c8191461021757806366cd3f061461023e5780636da4c23c1461025e5780637678922e1461029b57806376fd3e82146102c657600080fd5b80630ec7ee0e1461013b5780632466209b1461018a57806330221dec146101a057806334109de2146101d05780634a56c0b8146101f7575b600080fd5b81801561014757600080fd5b5061015b6101563660046137c3565b610486565b604080516001600160a01b03948516815260208101939093529216918101919091526060015b60405180910390f35b61019261079c565b604051908152602001610181565b8180156101ac57600080fd5b506101c06101bb366004613856565b6107ca565b6040519015158152602001610181565b6101927f7aabe2571874f2a330ea11c8972d9cc3792d973efc6b36e3e29005861a34418881565b81801561020357600080fd5b506101926102123660046138a9565b6108b5565b6101927f8b73c3c69bb8fe3d512ecc4cf759cc79239f7b179b0ffacaa9a75d522b39400f81565b61025161024c3660046138de565b610b4d565b6040516101819190613900565b81801561026a57600080fd5b5061027e610279366004613966565b610c86565b604080519283526001600160a01b03909116602083015201610181565b6040516001600160a01b0373__$c43b1d7058274a71a9734d16e6b6586431$__168152602001610181565b8180156102d257600080fd5b506101926102e13660046139dc565b610f8d565b6101c06102f4366004613a19565b611254565b61030c6103073660046138de565b6112fa565b60405161018191908151815260208083015190820152604080830151908201526060808301516001600160a01b03169082015260808083015115159082015260a09182015115159181019190915260c00190565b81801561036c57600080fd5b5061019261037b3660046139dc565b6115c6565b81801561038c57600080fd5b5061019261039b366004613a6f565b61187b565b8180156103ac57600080fd5b506103c06103bb366004613ac6565b611896565b604080519215158352602083019190915201610181565b610192611b8b565b8180156103eb57600080fd5b506103ff6103fa366004613966565b611bb1565b604080516001600160a01b03938416815292909116602083015201610181565b81801561042b57600080fd5b506103c061043a366004613b03565b611da1565b81801561044b57600080fd5b5061019261045a3660046139dc565b611fd2565b6101927ffc434588684348dd50856b075c47bed14245c1030aa04c32955af5549981462781565b6000806000306001600160a01b031663be22465d6040518163ffffffff1660e01b8152600401602060405180830381865afa1580156104c9573d6000803e3d6000fd5b505050506040513d601f19601f820116820180604052508101906104ed9190613b3c565b156105135760405162461bcd60e51b815260040161050a90613b59565b60405180910390fd5b60006105a461052860c0890160a08a01613b90565b61053860a08a0160808b01613b90565b604080517ffc434588684348dd50856b075c47bed14245c1030aa04c32955af554998146276020808301919091526001600160a01b0394851682840152929093166060840152808b01356080808501919091528151808503909101815260a09093019052815191012090565b905060006105b182612282565b90506000806105c0838c6122d0565b909250905060008160048111156105d9576105d9613bab565b146105f65760405162461bcd60e51b815260040161050a90613bc1565b73__$c43b1d7058274a71a9734d16e6b6586431$__63513d425a8d61061a3061233e565b6040516001600160e01b031960e085901b16815261064792919087906378efa4ed60e11b90600401613bf8565b602060405180830381865af4158015610664573d6000803e3d6000fd5b505050506040513d601f19601f820116820180604052508101906106889190613b3c565b6106e05760405162461bcd60e51b8152602060048201526024808201527f526567697374657250726564696374436f6e74657874204163636573732044656044820152631b9a595960e21b606482015260840161050a565b60058c015460ff166107435760405162461bcd60e51b815260206004820152602660248201527f5265676973746572205072656469637420436f6e74657874204e6f74205065726044820152651b5a5d1d195960d21b606482015260840161050a565b60058c0180546001919060009061075e90849060ff16613c3c565b92506101000a81548160ff021916908360ff1602179055506000806107858e8c8c8f61237d565b909f909e50939c50929a5050505050505050505050565b604051640312e302e360dc1b60208201526025015b6040516020818303038152906040528051906020012081565b600073__$c43b1d7058274a71a9734d16e6b6586431$__63513d425a846107f03061233e565b6040516001600160e01b031960e085901b16815261081d9291903390633cbe67e960e21b90600401613bf8565b602060405180830381865af415801561083a573d6000803e3d6000fd5b505050506040513d601f19601f8201168201806040525081019061085e9190613b3c565b61089a5760405162461bcd60e51b815260206004820152600d60248201526c1058d8d95cdcc811195b9a5959609a1b604482015260640161050a565b5060058201805460ff191660ff831617905560015b92915050565b6000306001600160a01b031663be22465d6040518163ffffffff1660e01b8152600401602060405180830381865afa1580156108f5573d6000803e3d6000fd5b505050506040513d601f19601f820116820180604052508101906109199190613b3c565b156109365760405162461bcd60e51b815260040161050a90613b59565b73__$c43b1d7058274a71a9734d16e6b6586431$__63513d425a8561095a3061233e565b6040516001600160e01b031960e085901b1681526109879291903390635ac4b36f60e11b90600401613bf8565b602060405180830381865af41580156109a4573d6000803e3d6000fd5b505050506040513d601f19601f820116820180604052508101906109c89190613b3c565b610a145760405162461bcd60e51b815260206004820152601f60248201527f52656d6f7665436f6e7465787446756e63204163636573732044656e69656400604482015260640161050a565b82610a1e3061233e565b03610a6b5760405162461bcd60e51b815260206004820152601a60248201527f496c6c6567616c2052656d6f76652041434c20436f6e74657874000000000000604482015260640161050a565b60008381526001808601602052604090912001546001600160a01b0316610aa45760405162461bcd60e51b815260040161050a90613c55565b60008381526001850160205260409020610acb906003016001600160e01b03198416612828565b610ae75760405162461bcd60e51b815260040161050a90613c80565b60008381526001808601602081815260408085206001600160e01b03198816808752600282018452918620868155909401805460ff191690559387905252610b3491600390910190612843565b5050506000908152600191909101602052604090205490565b60008181526001808401602052604090912001546060906001600160a01b0316610b895760405162461bcd60e51b815260040161050a90613c55565b60008281526001840160205260408120610ba59060030161284f565b67ffffffffffffffff811115610bbd57610bbd6136db565b604051908082528060200260200182016040528015610be6578160200160208202803683370190505b50905060005b60008481526001860160205260409020610c089060030161284f565b8163ffffffff161015610c7e5760008481526001860160205260409020610c3b9060030163ffffffff8084169061285916565b828263ffffffff1681518110610c5357610c53613cb7565b6001600160e01b03199092166020928302919091019091015280610c7681613ccd565b915050610bec565b509392505050565b600080306001600160a01b031663be22465d6040518163ffffffff1660e01b8152600401602060405180830381865afa158015610cc7573d6000803e3d6000fd5b505050506040513d601f19601f82011682018060405250810190610ceb9190613b3c565b15610d085760405162461bcd60e51b815260040161050a90613b59565b6000610d92610d1d6080880160608901613b90565b604080517f7aabe2571874f2a330ea11c8972d9cc3792d973efc6b36e3e29005861a3441886020828101919091526001600160a01b03939093168183015289356060820152828a01356080820152818a013560a0808301919091528251808303909101815260c0909101909152805191012090565b90506000610d9f82612282565b9050600080610dae838b6122d0565b90925090506000816004811115610dc757610dc7613bab565b14610de45760405162461bcd60e51b815260040161050a90613bc1565b73__$c43b1d7058274a71a9734d16e6b6586431$__63513d425a8c610e083061233e565b6040516001600160e01b031960e085901b168152610e3592919087906378efa4ed60e11b90600401613bf8565b602060405180830381865af4158015610e52573d6000803e3d6000fd5b505050506040513d601f19601f82011682018060405250810190610e769190613b3c565b610ec25760405162461bcd60e51b815260206004820152601d60248201527f5265676973746572436f6e74657874204163636573732044656e696564000000604482015260640161050a565b60058b015460ff16610f165760405162461bcd60e51b815260206004820152601e60248201527f526567697374657220436f6e74657874204e6f74205065726d69747465640000604482015260640161050a565b60058b01805460019190600090610f3190849060ff16613c3c565b92506101000a81548160ff021916908360ff160217905550610f7c8b8a6060016020810190610f609190613b90565b60408c0135610f7560a08e0160808f01613cf0565b8c8c612865565b9b919a509098505050505050505050565b6000306001600160a01b031663be22465d6040518163ffffffff1660e01b8152600401602060405180830381865afa158015610fcd573d6000803e3d6000fd5b505050506040513d601f19601f82011682018060405250810190610ff19190613b3c565b1561100e5760405162461bcd60e51b815260040161050a90613b59565b73__$c43b1d7058274a71a9734d16e6b6586431$__63513d425a866110323061233e565b6040516001600160e01b031960e085901b16815261105f929190339063771bcf4560e01b90600401613bf8565b602060405180830381865af415801561107c573d6000803e3d6000fd5b505050506040513d601f19601f820116820180604052508101906110a09190613b3c565b6110ec5760405162461bcd60e51b815260206004820152601e60248201527f4772616e74436f6e74657874526f6c65204163636573732044656e6965640000604482015260640161050a565b836110f63061233e565b036111435760405162461bcd60e51b815260206004820152601960248201527f496c6c6567616c204772616e742041434c20436f6e7465787400000000000000604482015260640161050a565b60008481526001808701602052604090912001546001600160a01b031661117c5760405162461bcd60e51b815260040161050a90613c55565b60008281526002860160205260409020600101805461119a90613d0d565b90506000036111bb5760405162461bcd60e51b815260040161050a90613d41565b600084815260018601602052604090206111e2906003016001600160e01b03198516612828565b6111fe5760405162461bcd60e51b815260040161050a90613c80565b60008481526001868101602090815260408084206001600160e01b0319881685526002019091529091208381558101805460ff191682805b02179055505050600091825250600191909101602052604090205490565b600083815260018086016020526040822001546001600160a01b0316158015906112a55750600084815260018601602090815260408083206001600160e01b03198616845260020190915290205483145b80156112f15750600160008581526001808801602090815260408084206001600160e01b0319881685526002908101909252909220015460ff16908111156112ef576112ef613bab565b145b95945050505050565b6040805160c081018252600080825260208201819052918101829052606081018290526080810182905260a081019190915260008281526001808501602052604090912001546001600160a01b03166113655760405162461bcd60e51b815260040161050a90613c55565b6000828152600180850160209081526040808420909201548251631d74303760e21b815292516001600160a01b03909116926375d0c0dc9260048083019391928290030181865afa1580156113be573d6000803e3d6000fd5b505050506040513d601f19601f820116820180604052508101906113e29190613d69565b6000848152600180870160209081526040808420909201548251630505472360e51b8152925194955092936001600160a01b039093169263a0a8e4609260048082019392918290030181865afa158015611440573d6000803e3d6000fd5b505050506040513d601f19601f820116820180604052508101906114649190613d69565b600085815260018088016020908152604080842090920154825163be22465d60e01b8152925194955092936001600160a01b039093169263be22465d9260048082019392918290030181865afa1580156114c2573d6000803e3d6000fd5b505050506040513d601f19601f820116820180604052508101906114e69190613b3c565b6000868152600180890160209081526040808420909201548251630151e76560e61b8152925194955092936001600160a01b0390931692635479d9409260048082019392918290030181865afa158015611544573d6000803e3d6000fd5b505050506040513d601f19601f820116820180604052508101906115689190613b3c565b6040805160c08101825295865260208087019590955260008881526001808b018088528383208054948a0194909452918a90529552909301546001600160a01b031660608501525015156080830152151560a0820152905092915050565b6000306001600160a01b031663be22465d6040518163ffffffff1660e01b8152600401602060405180830381865afa158015611606573d6000803e3d6000fd5b505050506040513d601f19601f8201168201806040525081019061162a9190613b3c565b156116475760405162461bcd60e51b815260040161050a90613b59565b73__$c43b1d7058274a71a9734d16e6b6586431$__63513d425a8661166b3061233e565b6040516001600160e01b031960e085901b168152611698929190339063031c049360e01b90600401613bf8565b602060405180830381865af41580156116b5573d6000803e3d6000fd5b505050506040513d601f19601f820116820180604052508101906116d99190613b3c565b6117255760405162461bcd60e51b815260206004820181905260248201527f416464436f6e7465787446756e63526f6c65204163636573732044656e696564604482015260640161050a565b60008481526001808701602052604090912001546001600160a01b031661175e5760405162461bcd60e51b815260040161050a90613c55565b60008281526002860160205260409020600101805461177c90613d0d565b905060000361179d5760405162461bcd60e51b815260040161050a90613d41565b600084815260018601602052604090206117c4906003016001600160e01b03198516612828565b156118115760405162461bcd60e51b815260206004820152601f60248201527f46756e6374696f6e53656c6563746f7220416c72656164792045786973747300604482015260640161050a565b60008481526001868101602081815260408085206001600160e01b031989168087526002820184529186208881558501805460ff1916909517909455938890525261186191600390910190612bed565b505050600091825250600191909101602052604090205490565b600061188c86868660018787612865565b9695505050505050565b600080306001600160a01b031663be22465d6040518163ffffffff1660e01b8152600401602060405180830381865afa1580156118d7573d6000803e3d6000fd5b505050506040513d601f19601f820116820180604052508101906118fb9190613b3c565b156119185760405162461bcd60e51b815260040161050a90613b59565b73__$c43b1d7058274a71a9734d16e6b6586431$__63513d425a8661193c3061233e565b6040516001600160e01b031960e085901b168152611969929190339063d338640160e01b90600401613bf8565b602060405180830381865af4158015611986573d6000803e3d6000fd5b505050506040513d601f19601f820116820180604052508101906119aa9190613b3c565b6119f65760405162461bcd60e51b815260206004820152601d60248201527f536574436f6e746578745265616c6d204163636573732044656e696564000000604482015260640161050a565b83611a003061233e565b03611a4d5760405162461bcd60e51b815260206004820181905260248201527f496c6c6567616c204368616e67652041434c20436f6e74657874205265616c6d604482015260640161050a565b60008481526001808701602052604090912001546001600160a01b0316611a865760405162461bcd60e51b815260040161050a90613c55565b600083815260038601602052604090208054611aa190613d0d565b9050600003611ac25760405162461bcd60e51b815260040161050a90613d82565b6000848152600186016020526040902054839003611b225760405162461bcd60e51b815260206004820152601960248201527f496c6c6567616c205265616c6d204475706c69636174696f6e00000000000000604482015260640161050a565b600084815260018601602090815260408083205486845260038901909252909120611b509060020186612bed565b5060008581526001870160209081526040808320548352600389019091529020611b7d9060020186612843565b506001969095509350505050565b604051711310dbdb9d195e1d13585b9859d95b595b9d60721b60208201526032016107b1565b600080306001600160a01b031663be22465d6040518163ffffffff1660e01b8152600401602060405180830381865afa158015611bf2573d6000803e3d6000fd5b505050506040513d601f19601f82011682018060405250810190611c169190613b3c565b15611c335760405162461bcd60e51b815260040161050a90613b59565b6000611c48610d1d6080880160608901613b90565b90506000611c5582612282565b9050600080611c64838b6122d0565b90925090506000816004811115611c7d57611c7d613bab565b14611c9a5760405162461bcd60e51b815260040161050a90613bc1565b73__$c43b1d7058274a71a9734d16e6b6586431$__63513d425a8c611cbe3061233e565b6040516001600160e01b031960e085901b168152611ceb92919087906371d569d960e01b90600401613bf8565b602060405180830381865af4158015611d08573d6000803e3d6000fd5b505050506040513d601f19601f82011682018060405250810190611d2c9190613b3c565b611d785760405162461bcd60e51b815260206004820152601b60248201527f557064617465436f6e74657874204163636573732044656e6965640000000000604482015260640161050a565b610f7c8b611d853361233e565b60408c0135611d9a60a08e0160808f01613cf0565b8c8c612bf9565b600080306001600160a01b031663be22465d6040518163ffffffff1660e01b8152600401602060405180830381865afa158015611de2573d6000803e3d6000fd5b505050506040513d601f19601f82011682018060405250810190611e069190613b3c565b15611e235760405162461bcd60e51b815260040161050a90613b59565b73__$c43b1d7058274a71a9734d16e6b6586431$__63513d425a86611e473061233e565b6040516001600160e01b031960e085901b168152611e7492919033906370420ee360e01b90600401613bf8565b602060405180830381865af4158015611e91573d6000803e3d6000fd5b505050506040513d601f19601f82011682018060405250810190611eb59190613b3c565b611f015760405162461bcd60e51b815260206004820152601e60248201527f536574436f6e74657874537461747573204163636573732044656e6965640000604482015260640161050a565b83611f0b3061233e565b03611f625760405162461bcd60e51b815260206004820152602160248201527f496c6c6567616c204368616e67652041434c20436f6e746578742053746174756044820152607360f81b606482015260840161050a565b60008481526001808701602052604090912001546001600160a01b0316611f9b5760405162461bcd60e51b815260040161050a90613c55565b50506000828152600180850160205260409091208082018054841515600160a01b0260ff60a01b1990911617905554935093915050565b6000306001600160a01b031663be22465d6040518163ffffffff1660e01b8152600401602060405180830381865afa158015612012573d6000803e3d6000fd5b505050506040513d601f19601f820116820180604052508101906120369190613b3c565b156120535760405162461bcd60e51b815260040161050a90613b59565b73__$c43b1d7058274a71a9734d16e6b6586431$__63513d425a866120773061233e565b6040516001600160e01b031960e085901b1681526120a49291903390634346a04b60e01b90600401613bf8565b602060405180830381865af41580156120c1573d6000803e3d6000fd5b505050506040513d601f19601f820116820180604052508101906120e59190613b3c565b6121315760405162461bcd60e51b815260206004820152601f60248201527f5265766f6b65436f6e74657874526f6c65204163636573732044656e69656400604482015260640161050a565b8361213b3061233e565b036121885760405162461bcd60e51b815260206004820152601a60248201527f496c6c6567616c205265766f6b652041434c20436f6e74657874000000000000604482015260640161050a565b60008481526001808701602052604090912001546001600160a01b03166121c15760405162461bcd60e51b815260040161050a90613c55565b6000828152600286016020526040902060010180546121df90613d0d565b90506000036122005760405162461bcd60e51b815260040161050a90613d41565b60008481526001860160205260409020612227906003016001600160e01b03198516612828565b6122435760405162461bcd60e51b815260040161050a90613c80565b60008481526001808701602090815260408084206001600160e01b031988168552600290810190925290922081018054909160ff199091169083611236565b60006108af61228f613324565b8360405161190160f01b6020820152602281018390526042810182905260009060620160405160208183030381529060405280519060200120905092915050565b60008082516041036123065760208301516040840151606085015160001a6122fa8782858561344c565b94509450505050612337565b825160400361232f5760208301516040840151612324868383613536565b935093505050612337565b506000905060025b9250929050565b6040516bffffffffffffffffffffffff19606083901b166020820152600090603401604051602081830303815290604052805190602001209050919050565b60408082013560009081526003860160205290812080548291906123a090613d0d565b90506000036123c15760405162461bcd60e51b815260040161050a90613d82565b600061245460608501356123db60c0870160a08801613b90565b6123eb60a0880160808901613b90565b6001600160a01b03169190604051733d602d80600a3d3981f3363d3d373d3d3d363d7360601b8152606093841b60148201526f5af43d82803e903d91602b57fd5bf3ff60801b6028820152921b6038830152604c8201526037808220606c830152605591012090565b905060006124618261233e565b60008181526001808b01602052604090912001549091506001600160a01b0316156124ce5760405162461bcd60e51b815260206004820152601a60248201527f436f6e7465787420416c72656164792052656769737465726564000000000000604482015260640161050a565b604080860135600090815260038a01602052206124ee9060020182612bed565b5060008181526001898101602052604091829020918701358255810180546001600160a01b0319166001600160a01b03851617905561253360e0870160c08801613cf0565b600182018054911515600160a01b0260ff60a01b1990921691909117905560005b87811015612817578960020160008a8a8481811061257457612574613cb7565b90506020028101906125869190613dab565b60000135815260200190815260200160002060010180546125a690613d0d565b90506000036125c75760405162461bcd60e51b815260040161050a90613d41565b60005b8989838181106125dc576125dc613cb7565b90506020028101906125ee9190613dab565b6125fc906020810190613dcb565b90508110156128045789898381811061261757612617613cb7565b90506020028101906126299190613dab565b356002840160008c8c8681811061264257612642613cb7565b90506020028101906126549190613dab565b612662906020810190613dcb565b8581811061267257612672613cb7565b90506020020160208101906126879190613e15565b6001600160e01b03191681526020810191909152604001600020558989838181106126b4576126b4613cb7565b90506020028101906126c69190613dab565b6126d7906060810190604001613cf0565b6126e25760026126e5565b60015b8360020160008c8c868181106126fd576126fd613cb7565b905060200281019061270f9190613dab565b61271d906020810190613dcb565b8581811061272d5761272d613cb7565b90506020020160208101906127429190613e15565b6001600160e01b0319168152602081019190915260400160002060019081018054909160ff199091169083600281111561277e5761277e613bab565b02179055506127f18a8a8481811061279857612798613cb7565b90506020028101906127aa9190613dab565b6127b8906020810190613dcb565b838181106127c8576127c8613cb7565b90506020020160208101906127dd9190613e15565b60038501906001600160e01b031916612bed565b50806127fc81613e30565b9150506125ca565b508061280f81613e30565b915050612554565b509193509150505b94509492505050565b600081815260018301602052604081205415155b9392505050565b600061283c838361356f565b60006108af825490565b600061283c8383613662565b60008481526003870160205260408120805461288090613d0d565b90506000036128a15760405162461bcd60e51b815260040161050a90613d82565b60006128ac8761233e565b60008181526001808b01602052604090912001549091506001600160a01b0316156129195760405162461bcd60e51b815260206004820152601a60248201527f436f6e7465787420416c72656164792052656769737465726564000000000000604482015260640161050a565b600086815260038901602052604090206129369060020182612bed565b5060008181526001808a01602052604082208881559081018054881515600160a01b026001600160a81b03199091166001600160a01b038c1617179055905b84811015612bdf5789600201600087878481811061299557612995613cb7565b90506020028101906129a79190613dab565b60000135815260200190815260200160002060010180546129c790613d0d565b90506000036129e85760405162461bcd60e51b815260040161050a90613d41565b60005b8686838181106129fd576129fd613cb7565b9050602002810190612a0f9190613dab565b612a1d906020810190613dcb565b9050811015612bcc57868683818110612a3857612a38613cb7565b9050602002810190612a4a9190613dab565b35600284016000898986818110612a6357612a63613cb7565b9050602002810190612a759190613dab565b612a83906020810190613dcb565b85818110612a9357612a93613cb7565b9050602002016020810190612aa89190613e15565b6001600160e01b0319168152602081019190915260400160002055868683818110612ad557612ad5613cb7565b9050602002810190612ae79190613dab565b612af8906060810190604001613cf0565b612b03576002612b06565b60015b836002016000898986818110612b1e57612b1e613cb7565b9050602002810190612b309190613dab565b612b3e906020810190613dcb565b85818110612b4e57612b4e613cb7565b9050602002016020810190612b639190613e15565b6001600160e01b0319168152602081019190915260400160002060019081018054909160ff1990911690836002811115612b9f57612b9f613bab565b0217905550612bb987878481811061279857612798613cb7565b5080612bc481613e30565b9150506129eb565b5080612bd781613e30565b915050612975565b509098975050505050505050565b600061283c838361368c565b600085815260018088016020526040822001546001600160a01b031680612c325760405162461bcd60e51b815260040161050a90613c55565b6001600160a01b0381163314612c8a5760405162461bcd60e51b815260206004820152601860248201527f55706461746520436f6e7465787420466f7262696464656e0000000000000000604482015260640161050a565b600086815260038901602052604090208054612ca590613d0d565b9050600003612cc65760405162461bcd60e51b815260040161050a90613d82565b600087815260018981016020526040909120908101805460ff60a01b1916600160a01b88151502179055548614612d43576000878152600189016020908152604080832054835260038b019091529020612d239060020188612843565b5060008681526003890160205260409020612d419060020188612bed565b505b600087815260018901602052604081208790555b8381101561331857886002016000868684818110612d7757612d77613cb7565b9050602002810190612d899190613dab565b6000013581526020019081526020016000206001018054612da990613d0d565b9050600003612dca5760405162461bcd60e51b815260040161050a90613d41565b60005b858583818110612ddf57612ddf613cb7565b9050602002810190612df19190613dab565b612dff906020810190613dcb565b9050811015613305576001868684818110612e1c57612e1c613cb7565b9050602002810190612e2e9190613dab565b612e3f906060810190604001613e49565b6002811115612e5057612e50613bab565b1480612ea157506000868684818110612e6b57612e6b613cb7565b9050602002810190612e7d9190613dab565b612e8e906060810190604001613e49565b6002811115612e9f57612e9f613bab565b145b1561315b57858583818110612eb857612eb8613cb7565b9050602002810190612eca9190613dab565b60008a815260018c016020526040812091359160020190888886818110612ef357612ef3613cb7565b9050602002810190612f059190613dab565b612f13906020810190613dcb565b85818110612f2357612f23613cb7565b9050602002016020810190612f389190613e15565b6001600160e01b03191681526020810191909152604001600020556001868684818110612f6757612f67613cb7565b9050602002810190612f799190613dab565b612f8a906060810190604001613e49565b6002811115612f9b57612f9b613bab565b14612fa7576002612faa565b60015b60008a815260018c016020526040812060020190888886818110612fd057612fd0613cb7565b9050602002810190612fe29190613dab565b612ff0906020810190613dcb565b8581811061300057613000613cb7565b90506020020160208101906130159190613e15565b6001600160e01b0319168152602081019190915260400160002060019081018054909160ff199091169083600281111561305157613051613bab565b02179055506130d386868481811061306b5761306b613cb7565b905060200281019061307d9190613dab565b61308b906020810190613dcb565b8381811061309b5761309b613cb7565b90506020020160208101906130b09190613e15565b60008b815260018d0160205260409020600301906001600160e01b031916612828565b613156576131548686848181106130ec576130ec613cb7565b90506020028101906130fe9190613dab565b61310c906020810190613dcb565b8381811061311c5761311c613cb7565b90506020020160208101906131319190613e15565b60008b815260018d0160205260409020600301906001600160e01b031916612bed565b505b6132f3565b600089815260018b01602052604081206002019087878581811061318157613181613cb7565b90506020028101906131939190613dab565b6131a1906020810190613dcb565b848181106131b1576131b1613cb7565b90506020020160208101906131c69190613e15565b6001600160e01b0319168152602080820192909252604090810160009081208190558b815260018d0190925281206002019087878581811061320a5761320a613cb7565b905060200281019061321c9190613dab565b61322a906020810190613dcb565b8481811061323a5761323a613cb7565b905060200201602081019061324f9190613e15565b6001600160e01b03191681526020810191909152604001600020600101805460ff191690556132f186868481811061328957613289613cb7565b905060200281019061329b9190613dab565b6132a9906020810190613dcb565b838181106132b9576132b9613cb7565b90506020020160208101906132ce9190613e15565b60008b815260018d0160205260409020600301906001600160e01b031916612843565b505b806132fd81613e30565b915050612dcd565b508061331081613e30565b915050612d57565b50979650505050505050565b60007f8b73c3c69bb8fe3d512ecc4cf759cc79239f7b179b0ffacaa9a75d522b39400f306001600160a01b03166375d0c0dc6040518163ffffffff1660e01b8152600401602060405180830381865afa158015613385573d6000803e3d6000fd5b505050506040513d601f19601f820116820180604052508101906133a99190613d69565b306001600160a01b031663a0a8e4606040518163ffffffff1660e01b8152600401602060405180830381865afa1580156133e7573d6000803e3d6000fd5b505050506040513d601f19601f8201168201806040525081019061340b9190613d69565b60408051602081019490945283019190915260608201524660808201523060a082015260c00160405160208183030381529060405280519060200120905090565b6000807f7fffffffffffffffffffffffffffffff5d576e7357a4501ddfe92f46681b20a0831115613483575060009050600361281f565b8460ff16601b1415801561349b57508460ff16601c14155b156134ac575060009050600461281f565b6040805160008082526020820180845289905260ff881692820192909252606081018690526080810185905260019060a0016020604051602081039080840390855afa158015613500573d6000803e3d6000fd5b5050604051601f1901519150506001600160a01b0381166135295760006001925092505061281f565b9660009650945050505050565b6000806001600160ff1b0383168161355360ff86901c601b613e6a565b90506135618782888561344c565b935093505050935093915050565b60008181526001830160205260408120548015613658576000613593600183613e7d565b85549091506000906135a790600190613e7d565b905081811461360c5760008660000182815481106135c7576135c7613cb7565b90600052602060002001549050808760000184815481106135ea576135ea613cb7565b6000918252602080832090910192909255918252600188019052604090208390555b855486908061361d5761361d613e90565b6001900381819060005260206000200160009055905585600101600086815260200190815260200160002060009055600193505050506108af565b60009150506108af565b600082600001828154811061367957613679613cb7565b9060005260206000200154905092915050565b60008181526001830160205260408120546136d3575081546001818101845560008481526020808220909301849055845484825282860190935260409020919091556108af565b5060006108af565b634e487b7160e01b600052604160045260246000fd5b600082601f83011261370257600080fd5b813567ffffffffffffffff8082111561371d5761371d6136db565b604051601f8301601f19908116603f01168101908282118183101715613745576137456136db565b8160405283815286602085880101111561375e57600080fd5b836020870160208301376000602085830101528094505050505092915050565b60008083601f84011261379057600080fd5b50813567ffffffffffffffff8111156137a857600080fd5b6020830191508360208260051b850101111561233757600080fd5b60008060008060008587036101408112156137dd57600080fd5b86359550602087013567ffffffffffffffff808211156137fc57600080fd5b6138088a838b016136f1565b965060e0603f198401121561381c57600080fd5b60408901955061012089013592508083111561383757600080fd5b50506138458882890161377e565b969995985093965092949392505050565b6000806040838503121561386957600080fd5b82359150602083013560ff8116811461388157600080fd5b809150509250929050565b80356001600160e01b0319811681146138a457600080fd5b919050565b6000806000606084860312156138be57600080fd5b83359250602084013591506138d56040850161388c565b90509250925092565b600080604083850312156138f157600080fd5b50508035926020909101359150565b6020808252825182820181905260009190848201906040850190845b818110156139425783516001600160e01b0319168352928401929184019160010161391c565b50909695505050505050565b600060a0828403121561396057600080fd5b50919050565b6000806000806000610100868803121561397f57600080fd5b85359450602086013567ffffffffffffffff8082111561399e57600080fd5b6139aa89838a016136f1565b95506139b98960408a0161394e565b945060e08801359150808211156139cf57600080fd5b506138458882890161377e565b600080600080608085870312156139f257600080fd5b8435935060208501359250613a096040860161388c565b9396929550929360600135925050565b60008060008060808587031215613a2f57600080fd5b843593506020850135925060408501359150613a4d6060860161388c565b905092959194509250565b80356001600160a01b03811681146138a457600080fd5b600080600080600060808688031215613a8757600080fd5b85359450613a9760208701613a58565b935060408601359250606086013567ffffffffffffffff811115613aba57600080fd5b6138458882890161377e565b600080600060608486031215613adb57600080fd5b505081359360208301359350604090920135919050565b8015158114613b0057600080fd5b50565b600080600060608486031215613b1857600080fd5b83359250602084013591506040840135613b3181613af2565b809150509250925092565b600060208284031215613b4e57600080fd5b815161283c81613af2565b60208082526017908201527f536166654d6f64653a2043616c6c2052656a6563746564000000000000000000604082015260600190565b600060208284031215613ba257600080fd5b61283c82613a58565b634e487b7160e01b600052602160045260246000fd5b60208082526018908201527f496c6c6567616c20454344415341205369676e61747572650000000000000000604082015260600190565b93845260208401929092526001600160a01b031660408301526001600160e01b031916606082015260800190565b634e487b7160e01b600052601160045260246000fd5b60ff82811682821603908111156108af576108af613c26565b60208082526011908201527010dbdb9d195e1d08139bdd08119bdd5b99607a1b604082015260600190565b6020808252601a908201527f46756e6374696f6e53656c6563746f72204e6f7420466f756e64000000000000604082015260600190565b634e487b7160e01b600052603260045260246000fd5b600063ffffffff808316818103613ce657613ce6613c26565b6001019392505050565b600060208284031215613d0257600080fd5b813561283c81613af2565b600181811c90821680613d2157607f821691505b60208210810361396057634e487b7160e01b600052602260045260246000fd5b6020808252600e908201526d149bdb1948139bdd08119bdd5b9960921b604082015260600190565b600060208284031215613d7b57600080fd5b5051919050565b6020808252600f908201526e1499585b1b48139bdd08119bdd5b99608a1b604082015260600190565b60008235605e19833603018112613dc157600080fd5b9190910192915050565b6000808335601e19843603018112613de257600080fd5b83018035915067ffffffffffffffff821115613dfd57600080fd5b6020019150600581901b360382131561233757600080fd5b600060208284031215613e2757600080fd5b61283c8261388c565b600060018201613e4257613e42613c26565b5060010190565b600060208284031215613e5b57600080fd5b81356003811061283c57600080fd5b808201808211156108af576108af613c26565b818103818111156108af576108af613c26565b634e487b7160e01b600052603160045260246000fdfea26469706673582212202cb56fdeb524314b62a667dc49206e10e2e4f0d826b7480044c95a12e3aa160d64736f6c63430008110033",
  "linkReferences": {
    "src/contracts/lib/acl/LAccessControl.sol": {
      "LAccessControl": [
        {
          "length": 20,
          "start": 738
        },
        {
          "length": 20,
          "start": 1586
        },
        {
          "length": 20,
          "start": 2056
        },
        {
          "length": 20,
          "start": 2418
        },
        {
          "length": 20,
          "start": 3616
        },
        {
          "length": 20,
          "start": 4170
        },
        {
          "length": 20,
          "start": 5763
        },
        {
          "length": 20,
          "start": 6484
        },
        {
          "length": 20,
          "start": 7382
        },
        {
          "length": 20,
          "start": 7775
        },
        {
          "length": 20,
          "start": 8335
        }
      ]
    }
  },
  "deployedLinkReferences": {
    "src/contracts/lib/acl/LAccessControl.sol": {
      "LAccessControl": [
        {
          "length": 20,
          "start": 680
        },
        {
          "length": 20,
          "start": 1528
        },
        {
          "length": 20,
          "start": 1998
        },
        {
          "length": 20,
          "start": 2360
        },
        {
          "length": 20,
          "start": 3558
        },
        {
          "length": 20,
          "start": 4112
        },
        {
          "length": 20,
          "start": 5705
        },
        {
          "length": 20,
          "start": 6426
        },
        {
          "length": 20,
          "start": 7324
        },
        {
          "length": 20,
          "start": 7717
        },
        {
          "length": 20,
          "start": 8277
        }
      ]
    }
  },
  "devdoc": {
    "author": "Sina Tadayon, https://github.com/SinaTadayon",
    "kind": "dev",
    "methods": {},
    "title": "Context Management Library",
    "version": 1
  },
  "evm": {
    "bytecode": {
      "linkReferences": {
        "src/contracts/lib/acl/LAccessControl.sol": {
          "LAccessControl": [
            {
              "length": 20,
              "start": 738
            },
            {
              "length": 20,
              "start": 1586
            },
            {
              "length": 20,
              "start": 2056
            },
            {
              "length": 20,
              "start": 2418
            },
            {
              "length": 20,
              "start": 3616
            },
            {
              "length": 20,
              "start": 4170
            },
            {
              "length": 20,
              "start": 5763
            },
            {
              "length": 20,
              "start": 6484
            },
            {
              "length": 20,
              "start": 7382
            },
            {
              "length": 20,
              "start": 7775
            },
            {
              "length": 20,
              "start": 8335
            }
          ]
        }
      },
      "opcodes": "PUSH2 0x3EDC PUSH2 0x3A PUSH1 0xB DUP3 DUP3 DUP3 CODECOPY DUP1 MLOAD PUSH1 0x0 BYTE PUSH1 0x73 EQ PUSH2 0x2D JUMPI PUSH4 0x4E487B71 PUSH1 0xE0 SHL PUSH1 0x0 MSTORE PUSH1 0x0 PUSH1 0x4 MSTORE PUSH1 0x24 PUSH1 0x0 REVERT JUMPDEST ADDRESS PUSH1 0x0 MSTORE PUSH1 0x73 DUP2 MSTORE8 DUP3 DUP2 RETURN INVALID PUSH20 0x0 ADDRESS EQ PUSH1 0x80 PUSH1 0x40 MSTORE PUSH1 0x4 CALLDATASIZE LT PUSH2 0x136 JUMPI PUSH1 0x0 CALLDATALOAD PUSH1 0xE0 SHR DUP1 PUSH4 0x8533777C GT PUSH2 0xB7 JUMPI DUP1 PUSH4 0xBEC94751 GT PUSH2 0x7B JUMPI DUP1 PUSH4 0xBEC94751 EQ PUSH2 0x3D7 JUMPI DUP1 PUSH4 0xD94F2470 EQ PUSH2 0x3DF JUMPI DUP1 PUSH4 0xEBCC861E EQ PUSH2 0x41F JUMPI DUP1 PUSH4 0xEF20D55D EQ PUSH2 0x43F JUMPI DUP1 PUSH4 0xF0B15DEF EQ PUSH2 0x45F JUMPI PUSH1 0x0 DUP1 REVERT JUMPDEST DUP1 PUSH4 0x8533777C EQ PUSH2 0x2E6 JUMPI DUP1 PUSH4 0x9BBAFB11 EQ PUSH2 0x2F9 JUMPI DUP1 PUSH4 0xA234DAE3 EQ PUSH2 0x360 JUMPI DUP1 PUSH4 0xA64C0BB0 EQ PUSH2 0x380 JUMPI DUP1 PUSH4 0xADFC581B EQ PUSH2 0x3A0 JUMPI PUSH1 0x0 DUP1 REVERT JUMPDEST DUP1 PUSH4 0x64D4C819 GT PUSH2 0xFE JUMPI DUP1 PUSH4 0x64D4C819 EQ PUSH2 0x217 JUMPI DUP1 PUSH4 0x66CD3F06 EQ PUSH2 0x23E JUMPI DUP1 PUSH4 0x6DA4C23C EQ PUSH2 0x25E JUMPI DUP1 PUSH4 0x7678922E EQ PUSH2 0x29B JUMPI DUP1 PUSH4 0x76FD3E82 EQ PUSH2 0x2C6 JUMPI PUSH1 0x0 DUP1 REVERT JUMPDEST DUP1 PUSH4 0xEC7EE0E EQ PUSH2 0x13B JUMPI DUP1 PUSH4 0x2466209B EQ PUSH2 0x18A JUMPI DUP1 PUSH4 0x30221DEC EQ PUSH2 0x1A0 JUMPI DUP1 PUSH4 0x34109DE2 EQ PUSH2 0x1D0 JUMPI DUP1 PUSH4 0x4A56C0B8 EQ PUSH2 0x1F7 JUMPI JUMPDEST PUSH1 0x0 DUP1 REVERT JUMPDEST DUP2 DUP1 ISZERO PUSH2 0x147 JUMPI PUSH1 0x0 DUP1 REVERT JUMPDEST POP PUSH2 0x15B PUSH2 0x156 CALLDATASIZE PUSH1 0x4 PUSH2 0x37C3 JUMP JUMPDEST PUSH2 0x486 JUMP JUMPDEST PUSH1 0x40 DUP1 MLOAD PUSH1 0x1 PUSH1 0x1 PUSH1 0xA0 SHL SUB SWAP5 DUP6 AND DUP2 MSTORE PUSH1 0x20 DUP2 ADD SWAP4 SWAP1 SWAP4 MSTORE SWAP3 AND SWAP2 DUP2 ADD SWAP2 SWAP1 SWAP2 MSTORE PUSH1 0x60 ADD JUMPDEST PUSH1 0x40 MLOAD DUP1 SWAP2 SUB SWAP1 RETURN JUMPDEST PUSH2 0x192 PUSH2 0x79C JUMP JUMPDEST PUSH1 0x40 MLOAD SWAP1 DUP2 MSTORE PUSH1 0x20 ADD PUSH2 0x181 JUMP JUMPDEST DUP2 DUP1 ISZERO PUSH2 0x1AC JUMPI PUSH1 0x0 DUP1 REVERT JUMPDEST POP PUSH2 0x1C0 PUSH2 0x1BB CALLDATASIZE PUSH1 0x4 PUSH2 0x3856 JUMP JUMPDEST PUSH2 0x7CA JUMP JUMPDEST PUSH1 0x40 MLOAD SWAP1 ISZERO ISZERO DUP2 MSTORE PUSH1 0x20 ADD PUSH2 0x181 JUMP JUMPDEST PUSH2 0x192 PUSH32 0x7AABE2571874F2A330EA11C8972D9CC3792D973EFC6B36E3E29005861A344188 DUP2 JUMP JUMPDEST DUP2 DUP1 ISZERO PUSH2 0x203 JUMPI PUSH1 0x0 DUP1 REVERT JUMPDEST POP PUSH2 0x192 PUSH2 0x212 CALLDATASIZE PUSH1 0x4 PUSH2 0x38A9 JUMP JUMPDEST PUSH2 0x8B5 JUMP JUMPDEST PUSH2 0x192 PUSH32 0x8B73C3C69BB8FE3D512ECC4CF759CC79239F7B179B0FFACAA9A75D522B39400F DUP2 JUMP JUMPDEST PUSH2 0x251 PUSH2 0x24C CALLDATASIZE PUSH1 0x4 PUSH2 0x38DE JUMP JUMPDEST PUSH2 0xB4D JUMP JUMPDEST PUSH1 0x40 MLOAD PUSH2 0x181 SWAP2 SWAP1 PUSH2 0x3900 JUMP JUMPDEST DUP2 DUP1 ISZERO PUSH2 0x26A JUMPI PUSH1 0x0 DUP1 REVERT JUMPDEST POP PUSH2 0x27E PUSH2 0x279 CALLDATASIZE PUSH1 0x4 PUSH2 0x3966 JUMP JUMPDEST PUSH2 0xC86 JUMP JUMPDEST PUSH1 0x40 DUP1 MLOAD SWAP3 DUP4 MSTORE PUSH1 0x1 PUSH1 0x1 PUSH1 0xA0 SHL SUB SWAP1 SWAP2 AND PUSH1 0x20 DUP4 ADD MSTORE ADD PUSH2 0x181 JUMP JUMPDEST PUSH1 0x40 MLOAD PUSH1 0x1 PUSH1 0x1 PUSH1 0xA0 SHL SUB PUSH20 0x0 AND DUP2 MSTORE PUSH1 0x20 ADD PUSH2 0x181 JUMP JUMPDEST DUP2 DUP1 ISZERO PUSH2 0x2D2 JUMPI PUSH1 0x0 DUP1 REVERT JUMPDEST POP PUSH2 0x192 PUSH2 0x2E1 CALLDATASIZE PUSH1 0x4 PUSH2 0x39DC JUMP JUMPDEST PUSH2 0xF8D JUMP JUMPDEST PUSH2 0x1C0 PUSH2 0x2F4 CALLDATASIZE PUSH1 0x4 PUSH2 0x3A19 JUMP JUMPDEST PUSH2 0x1254 JUMP JUMPDEST PUSH2 0x30C PUSH2 0x307 CALLDATASIZE PUSH1 0x4 PUSH2 0x38DE JUMP JUMPDEST PUSH2 0x12FA JUMP JUMPDEST PUSH1 0x40 MLOAD PUSH2 0x181 SWAP2 SWAP1 DUP2 MLOAD DUP2 MSTORE PUSH1 0x20 DUP1 DUP4 ADD MLOAD SWAP1 DUP3 ADD MSTORE PUSH1 0x40 DUP1 DUP4 ADD MLOAD SWAP1 DUP3 ADD MSTORE PUSH1 0x60 DUP1 DUP4 ADD MLOAD PUSH1 0x1 PUSH1 0x1 PUSH1 0xA0 SHL SUB AND SWAP1 DUP3 ADD MSTORE PUSH1 0x80 DUP1 DUP4 ADD MLOAD ISZERO ISZERO SWAP1 DUP3 ADD MSTORE PUSH1 0xA0 SWAP2 DUP3 ADD MLOAD ISZERO ISZERO SWAP2 DUP2 ADD SWAP2 SWAP1 SWAP2 MSTORE PUSH1 0xC0 ADD SWAP1 JUMP JUMPDEST DUP2 DUP1 ISZERO PUSH2 0x36C JUMPI PUSH1 0x0 DUP1 REVERT JUMPDEST POP PUSH2 0x192 PUSH2 0x37B CALLDATASIZE PUSH1 0x4 PUSH2 0x39DC JUMP JUMPDEST PUSH2 0x15C6 JUMP JUMPDEST DUP2 DUP1 ISZERO PUSH2 0x38C JUMPI PUSH1 0x0 DUP1 REVERT JUMPDEST POP PUSH2 0x192 PUSH2 0x39B CALLDATASIZE PUSH1 0x4 PUSH2 0x3A6F JUMP JUMPDEST PUSH2 0x187B JUMP JUMPDEST DUP2 DUP1 ISZERO PUSH2 0x3AC JUMPI PUSH1 0x0 DUP1 REVERT JUMPDEST POP PUSH2 0x3C0 PUSH2 0x3BB CALLDATASIZE PUSH1 0x4 PUSH2 0x3AC6 JUMP JUMPDEST PUSH2 0x1896 JUMP JUMPDEST PUSH1 0x40 DUP1 MLOAD SWAP3 ISZERO ISZERO DUP4 MSTORE PUSH1 0x20 DUP4 ADD SWAP2 SWAP1 SWAP2 MSTORE ADD PUSH2 0x181 JUMP JUMPDEST PUSH2 0x192 PUSH2 0x1B8B JUMP JUMPDEST DUP2 DUP1 ISZERO PUSH2 0x3EB JUMPI PUSH1 0x0 DUP1 REVERT JUMPDEST POP PUSH2 0x3FF PUSH2 0x3FA CALLDATASIZE PUSH1 0x4 PUSH2 0x3966 JUMP JUMPDEST PUSH2 0x1BB1 JUMP JUMPDEST PUSH1 0x40 DUP1 MLOAD PUSH1 0x1 PUSH1 0x1 PUSH1 0xA0 SHL SUB SWAP4 DUP5 AND DUP2 MSTORE SWAP3 SWAP1 SWAP2 AND PUSH1 0x20 DUP4 ADD MSTORE ADD PUSH2 0x181 JUMP JUMPDEST DUP2 DUP1 ISZERO PUSH2 0x42B JUMPI PUSH1 0x0 DUP1 REVERT JUMPDEST POP PUSH2 0x3C0 PUSH2 0x43A CALLDATASIZE PUSH1 0x4 PUSH2 0x3B03 JUMP JUMPDEST PUSH2 0x1DA1 JUMP JUMPDEST DUP2 DUP1 ISZERO PUSH2 0x44B JUMPI PUSH1 0x0 DUP1 REVERT JUMPDEST POP PUSH2 0x192 PUSH2 0x45A CALLDATASIZE PUSH1 0x4 PUSH2 0x39DC JUMP JUMPDEST PUSH2 0x1FD2 JUMP JUMPDEST PUSH2 0x192 PUSH32 0xFC434588684348DD50856B075C47BED14245C1030AA04C32955AF55499814627 DUP2 JUMP JUMPDEST PUSH1 0x0 DUP1 PUSH1 0x0 ADDRESS PUSH1 0x1 PUSH1 0x1 PUSH1 0xA0 SHL SUB AND PUSH4 0xBE22465D PUSH1 0x40 MLOAD DUP2 PUSH4 0xFFFFFFFF AND PUSH1 0xE0 SHL DUP2 MSTORE PUSH1 0x4 ADD PUSH1 0x20 PUSH1 0x40 MLOAD DUP1 DUP4 SUB DUP2 DUP7 GAS STATICCALL ISZERO DUP1 ISZERO PUSH2 0x4C9 JUMPI RETURNDATASIZE PUSH1 0x0 DUP1 RETURNDATACOPY RETURNDATASIZE PUSH1 0x0 REVERT JUMPDEST POP POP POP POP PUSH1 0x40 MLOAD RETURNDATASIZE PUSH1 0x1F NOT PUSH1 0x1F DUP3 ADD AND DUP3 ADD DUP1 PUSH1 0x40 MSTORE POP DUP2 ADD SWAP1 PUSH2 0x4ED SWAP2 SWAP1 PUSH2 0x3B3C JUMP JUMPDEST ISZERO PUSH2 0x513 JUMPI PUSH1 0x40 MLOAD PUSH3 0x461BCD PUSH1 0xE5 SHL DUP2 MSTORE PUSH1 0x4 ADD PUSH2 0x50A SWAP1 PUSH2 0x3B59 JUMP JUMPDEST PUSH1 0x40 MLOAD DUP1 SWAP2 SUB SWAP1 REVERT JUMPDEST PUSH1 0x0 PUSH2 0x5A4 PUSH2 0x528 PUSH1 0xC0 DUP10 ADD PUSH1 0xA0 DUP11 ADD PUSH2 0x3B90 JUMP JUMPDEST PUSH2 0x538 PUSH1 0xA0 DUP11 ADD PUSH1 0x80 DUP12 ADD PUSH2 0x3B90 JUMP JUMPDEST PUSH1 0x40 DUP1 MLOAD PUSH32 0xFC434588684348DD50856B075C47BED14245C1030AA04C32955AF55499814627 PUSH1 0x20 DUP1 DUP4 ADD SWAP2 SWAP1 SWAP2 MSTORE PUSH1 0x1 PUSH1 0x1 PUSH1 0xA0 SHL SUB SWAP5 DUP6 AND DUP3 DUP5 ADD MSTORE SWAP3 SWAP1 SWAP4 AND PUSH1 0x60 DUP5 ADD MSTORE DUP1 DUP12 ADD CALLDATALOAD PUSH1 0x80 DUP1 DUP6 ADD SWAP2 SWAP1 SWAP2 MSTORE DUP2 MLOAD DUP1 DUP6 SUB SWAP1 SWAP2 ADD DUP2 MSTORE PUSH1 0xA0 SWAP1 SWAP4 ADD SWAP1 MSTORE DUP2 MLOAD SWAP2 ADD KECCAK256 SWAP1 JUMP JUMPDEST SWAP1 POP PUSH1 0x0 PUSH2 0x5B1 DUP3 PUSH2 0x2282 JUMP JUMPDEST SWAP1 POP PUSH1 0x0 DUP1 PUSH2 0x5C0 DUP4 DUP13 PUSH2 0x22D0 JUMP JUMPDEST SWAP1 SWAP3 POP SWAP1 POP PUSH1 0x0 DUP2 PUSH1 0x4 DUP2 GT ISZERO PUSH2 0x5D9 JUMPI PUSH2 0x5D9 PUSH2 0x3BAB JUMP JUMPDEST EQ PUSH2 0x5F6 JUMPI PUSH1 0x40 MLOAD PUSH3 0x461BCD PUSH1 0xE5 SHL DUP2 MSTORE PUSH1 0x4 ADD PUSH2 0x50A SWAP1 PUSH2 0x3BC1 JUMP JUMPDEST PUSH20 0x0 PUSH4 0x513D425A DUP14 PUSH2 0x61A ADDRESS PUSH2 0x233E JUMP JUMPDEST PUSH1 0x40 MLOAD PUSH1 0x1 PUSH1 0x1 PUSH1 0xE0 SHL SUB NOT PUSH1 0xE0 DUP6 SWAP1 SHL AND DUP2 MSTORE PUSH2 0x647 SWAP3 SWAP2 SWAP1 DUP8 SWAP1 PUSH4 0x78EFA4ED PUSH1 0xE1 SHL SWAP1 PUSH1 0x4 ADD PUSH2 0x3BF8 JUMP JUMPDEST PUSH1 0x20 PUSH1 0x40 MLOAD DUP1 DUP4 SUB DUP2 DUP7 GAS DELEGATECALL ISZERO DUP1 ISZERO PUSH2 0x664 JUMPI RETURNDATASIZE PUSH1 0x0 DUP1 RETURNDATACOPY RETURNDATASIZE PUSH1 0x0 REVERT JUMPDEST POP POP POP POP PUSH1 0x40 MLOAD RETURNDATASIZE PUSH1 0x1F NOT PUSH1 0x1F DUP3 ADD AND DUP3 ADD DUP1 PUSH1 0x40 MSTORE POP DUP2 ADD SWAP1 PUSH2 0x688 SWAP2 SWAP1 PUSH2 0x3B3C JUMP JUMPDEST PUSH2 0x6E0 JUMPI PUSH1 0x40 MLOAD PUSH3 0x461BCD PUSH1 0xE5 SHL DUP2 MSTORE PUSH1 0x20 PUSH1 0x4 DUP3 ADD MSTORE PUSH1 0x24 DUP1 DUP3 ADD MSTORE PUSH32 0x526567697374657250726564696374436F6E7465787420416363657373204465 PUSH1 0x44 DUP3 ADD MSTORE PUSH4 0x1B9A5959 PUSH1 0xE2 SHL PUSH1 0x64 DUP3 ADD MSTORE PUSH1 0x84 ADD PUSH2 0x50A JUMP JUMPDEST PUSH1 0x5 DUP13 ADD SLOAD PUSH1 0xFF AND PUSH2 0x743 JUMPI PUSH1 0x40 MLOAD PUSH3 0x461BCD PUSH1 0xE5 SHL DUP2 MSTORE PUSH1 0x20 PUSH1 0x4 DUP3 ADD MSTORE PUSH1 0x26 PUSH1 0x24 DUP3 ADD MSTORE PUSH32 0x5265676973746572205072656469637420436F6E74657874204E6F7420506572 PUSH1 0x44 DUP3 ADD MSTORE PUSH6 0x1B5A5D1D1959 PUSH1 0xD2 SHL PUSH1 0x64 DUP3 ADD MSTORE PUSH1 0x84 ADD PUSH2 0x50A JUMP JUMPDEST PUSH1 0x5 DUP13 ADD DUP1 SLOAD PUSH1 0x1 SWAP2 SWAP1 PUSH1 0x0 SWAP1 PUSH2 0x75E SWAP1 DUP5 SWAP1 PUSH1 0xFF AND PUSH2 0x3C3C JUMP JUMPDEST SWAP3 POP PUSH2 0x100 EXP DUP2 SLOAD DUP2 PUSH1 0xFF MUL NOT AND SWAP1 DUP4 PUSH1 0xFF AND MUL OR SWAP1 SSTORE POP PUSH1 0x0 DUP1 PUSH2 0x785 DUP15 DUP13 DUP13 DUP16 PUSH2 0x237D JUMP JUMPDEST SWAP1 SWAP16 SWAP1 SWAP15 POP SWAP4 SWAP13 POP SWAP3 SWAP11 POP POP POP POP POP POP POP POP POP POP POP JUMP JUMPDEST PUSH1 0x40 MLOAD PUSH5 0x312E302E3 PUSH1 0xDC SHL PUSH1 0x20 DUP3 ADD MSTORE PUSH1 0x25 ADD JUMPDEST PUSH1 0x40 MLOAD PUSH1 0x20 DUP2 DUP4 SUB SUB DUP2 MSTORE SWAP1 PUSH1 0x40 MSTORE DUP1 MLOAD SWAP1 PUSH1 0x20 ADD KECCAK256 DUP2 JUMP JUMPDEST PUSH1 0x0 PUSH20 0x0 PUSH4 0x513D425A DUP5 PUSH2 0x7F0 ADDRESS PUSH2 0x233E JUMP JUMPDEST PUSH1 0x40 MLOAD PUSH1 0x1 PUSH1 0x1 PUSH1 0xE0 SHL SUB NOT PUSH1 0xE0 DUP6 SWAP1 SHL AND DUP2 MSTORE PUSH2 0x81D SWAP3 SWAP2 SWAP1 CALLER SWAP1 PUSH4 0x3CBE67E9 PUSH1 0xE2 SHL SWAP1 PUSH1 0x4 ADD PUSH2 0x3BF8 JUMP JUMPDEST PUSH1 0x20 PUSH1 0x40 MLOAD DUP1 DUP4 SUB DUP2 DUP7 GAS DELEGATECALL ISZERO DUP1 ISZERO PUSH2 0x83A JUMPI RETURNDATASIZE PUSH1 0x0 DUP1 RETURNDATACOPY RETURNDATASIZE PUSH1 0x0 REVERT JUMPDEST POP POP POP POP PUSH1 0x40 MLOAD RETURNDATASIZE PUSH1 0x1F NOT PUSH1 0x1F DUP3 ADD AND DUP3 ADD DUP1 PUSH1 0x40 MSTORE POP DUP2 ADD SWAP1 PUSH2 0x85E SWAP2 SWAP1 PUSH2 0x3B3C JUMP JUMPDEST PUSH2 0x89A JUMPI PUSH1 0x40 MLOAD PUSH3 0x461BCD PUSH1 0xE5 SHL DUP2 MSTORE PUSH1 0x20 PUSH1 0x4 DUP3 ADD MSTORE PUSH1 0xD PUSH1 0x24 DUP3 ADD MSTORE PUSH13 0x1058D8D95CDCC811195B9A5959 PUSH1 0x9A SHL PUSH1 0x44 DUP3 ADD MSTORE PUSH1 0x64 ADD PUSH2 0x50A JUMP JUMPDEST POP PUSH1 0x5 DUP3 ADD DUP1 SLOAD PUSH1 0xFF NOT AND PUSH1 0xFF DUP4 AND OR SWAP1 SSTORE PUSH1 0x1 JUMPDEST SWAP3 SWAP2 POP POP JUMP JUMPDEST PUSH1 0x0 ADDRESS PUSH1 0x1 PUSH1 0x1 PUSH1 0xA0 SHL SUB AND PUSH4 0xBE22465D PUSH1 0x40 MLOAD DUP2 PUSH4 0xFFFFFFFF AND PUSH1 0xE0 SHL DUP2 MSTORE PUSH1 0x4 ADD PUSH1 0x20 PUSH1 0x40 MLOAD DUP1 DUP4 SUB DUP2 DUP7 GAS STATICCALL ISZERO DUP1 ISZERO PUSH2 0x8F5 JUMPI RETURNDATASIZE PUSH1 0x0 DUP1 RETURNDATACOPY RETURNDATASIZE PUSH1 0x0 REVERT JUMPDEST POP POP POP POP PUSH1 0x40 MLOAD RETURNDATASIZE PUSH1 0x1F NOT PUSH1 0x1F DUP3 ADD AND DUP3 ADD DUP1 PUSH1 0x40 MSTORE POP DUP2 ADD SWAP1 PUSH2 0x919 SWAP2 SWAP1 PUSH2 0x3B3C JUMP JUMPDEST ISZERO PUSH2 0x936 JUMPI PUSH1 0x40 MLOAD PUSH3 0x461BCD PUSH1 0xE5 SHL DUP2 MSTORE PUSH1 0x4 ADD PUSH2 0x50A SWAP1 PUSH2 0x3B59 JUMP JUMPDEST PUSH20 0x0 PUSH4 0x513D425A DUP6 PUSH2 0x95A ADDRESS PUSH2 0x233E JUMP JUMPDEST PUSH1 0x40 MLOAD PUSH1 0x1 PUSH1 0x1 PUSH1 0xE0 SHL SUB NOT PUSH1 0xE0 DUP6 SWAP1 SHL AND DUP2 MSTORE PUSH2 0x987 SWAP3 SWAP2 SWAP1 CALLER SWAP1 PUSH4 0x5AC4B36F PUSH1 0xE1 SHL SWAP1 PUSH1 0x4 ADD PUSH2 0x3BF8 JUMP JUMPDEST PUSH1 0x20 PUSH1 0x40 MLOAD DUP1 DUP4 SUB DUP2 DUP7 GAS DELEGATECALL ISZERO DUP1 ISZERO PUSH2 0x9A4 JUMPI RETURNDATASIZE PUSH1 0x0 DUP1 RETURNDATACOPY RETURNDATASIZE PUSH1 0x0 REVERT JUMPDEST POP POP POP POP PUSH1 0x40 MLOAD RETURNDATASIZE PUSH1 0x1F NOT PUSH1 0x1F DUP3 ADD AND DUP3 ADD DUP1 PUSH1 0x40 MSTORE POP DUP2 ADD SWAP1 PUSH2 0x9C8 SWAP2 SWAP1 PUSH2 0x3B3C JUMP JUMPDEST PUSH2 0xA14 JUMPI PUSH1 0x40 MLOAD PUSH3 0x461BCD PUSH1 0xE5 SHL DUP2 MSTORE PUSH1 0x20 PUSH1 0x4 DUP3 ADD MSTORE PUSH1 0x1F PUSH1 0x24 DUP3 ADD MSTORE PUSH32 0x52656D6F7665436F6E7465787446756E63204163636573732044656E69656400 PUSH1 0x44 DUP3 ADD MSTORE PUSH1 0x64 ADD PUSH2 0x50A JUMP JUMPDEST DUP3 PUSH2 0xA1E ADDRESS PUSH2 0x233E JUMP JUMPDEST SUB PUSH2 0xA6B JUMPI PUSH1 0x40 MLOAD PUSH3 0x461BCD PUSH1 0xE5 SHL DUP2 MSTORE PUSH1 0x20 PUSH1 0x4 DUP3 ADD MSTORE PUSH1 0x1A PUSH1 0x24 DUP3 ADD MSTORE PUSH32 0x496C6C6567616C2052656D6F76652041434C20436F6E74657874000000000000 PUSH1 0x44 DUP3 ADD MSTORE PUSH1 0x64 ADD PUSH2 0x50A JUMP JUMPDEST PUSH1 0x0 DUP4 DUP2 MSTORE PUSH1 0x1 DUP1 DUP7 ADD PUSH1 0x20 MSTORE PUSH1 0x40 SWAP1 SWAP2 KECCAK256 ADD SLOAD PUSH1 0x1 PUSH1 0x1 PUSH1 0xA0 SHL SUB AND PUSH2 0xAA4 JUMPI PUSH1 0x40 MLOAD PUSH3 0x461BCD PUSH1 0xE5 SHL DUP2 MSTORE PUSH1 0x4 ADD PUSH2 0x50A SWAP1 PUSH2 0x3C55 JUMP JUMPDEST PUSH1 0x0 DUP4 DUP2 MSTORE PUSH1 0x1 DUP6 ADD PUSH1 0x20 MSTORE PUSH1 0x40 SWAP1 KECCAK256 PUSH2 0xACB SWAP1 PUSH1 0x3 ADD PUSH1 0x1 PUSH1 0x1 PUSH1 0xE0 SHL SUB NOT DUP5 AND PUSH2 0x2828 JUMP JUMPDEST PUSH2 0xAE7 JUMPI PUSH1 0x40 MLOAD PUSH3 0x461BCD PUSH1 0xE5 SHL DUP2 MSTORE PUSH1 0x4 ADD PUSH2 0x50A SWAP1 PUSH2 0x3C80 JUMP JUMPDEST PUSH1 0x0 DUP4 DUP2 MSTORE PUSH1 0x1 DUP1 DUP7 ADD PUSH1 0x20 DUP2 DUP2 MSTORE PUSH1 0x40 DUP1 DUP6 KECCAK256 PUSH1 0x1 PUSH1 0x1 PUSH1 0xE0 SHL SUB NOT DUP9 AND DUP1 DUP8 MSTORE PUSH1 0x2 DUP3 ADD DUP5 MSTORE SWAP2 DUP7 KECCAK256 DUP7 DUP2 SSTORE SWAP1 SWAP5 ADD DUP1 SLOAD PUSH1 0xFF NOT AND SWAP1 SSTORE SWAP4 DUP8 SWAP1 MSTORE MSTORE PUSH2 0xB34 SWAP2 PUSH1 0x3 SWAP1 SWAP2 ADD SWAP1 PUSH2 0x2843 JUMP JUMPDEST POP POP POP PUSH1 0x0 SWAP1 DUP2 MSTORE PUSH1 0x1 SWAP2 SWAP1 SWAP2 ADD PUSH1 0x20 MSTORE PUSH1 0x40 SWAP1 KECCAK256 SLOAD SWAP1 JUMP JUMPDEST PUSH1 0x0 DUP2 DUP2 MSTORE PUSH1 0x1 DUP1 DUP5 ADD PUSH1 0x20 MSTORE PUSH1 0x40 SWAP1 SWAP2 KECCAK256 ADD SLOAD PUSH1 0x60 SWAP1 PUSH1 0x1 PUSH1 0x1 PUSH1 0xA0 SHL SUB AND PUSH2 0xB89 JUMPI PUSH1 0x40 MLOAD PUSH3 0x461BCD PUSH1 0xE5 SHL DUP2 MSTORE PUSH1 0x4 ADD PUSH2 0x50A SWAP1 PUSH2 0x3C55 JUMP JUMPDEST PUSH1 0x0 DUP3 DUP2 MSTORE PUSH1 0x1 DUP5 ADD PUSH1 0x20 MSTORE PUSH1 0x40 DUP2 KECCAK256 PUSH2 0xBA5 SWAP1 PUSH1 0x3 ADD PUSH2 0x284F JUMP JUMPDEST PUSH8 0xFFFFFFFFFFFFFFFF DUP2 GT ISZERO PUSH2 0xBBD JUMPI PUSH2 0xBBD PUSH2 0x36DB JUMP JUMPDEST PUSH1 0x40 MLOAD SWAP1 DUP1 DUP3 MSTORE DUP1 PUSH1 0x20 MUL PUSH1 0x20 ADD DUP3 ADD PUSH1 0x40 MSTORE DUP1 ISZERO PUSH2 0xBE6 JUMPI DUP2 PUSH1 0x20 ADD PUSH1 0x20 DUP3 MUL DUP1 CALLDATASIZE DUP4 CALLDATACOPY ADD SWAP1 POP JUMPDEST POP SWAP1 POP PUSH1 0x0 JUMPDEST PUSH1 0x0 DUP5 DUP2 MSTORE PUSH1 0x1 DUP7 ADD PUSH1 0x20 MSTORE PUSH1 0x40 SWAP1 KECCAK256 PUSH2 0xC08 SWAP1 PUSH1 0x3 ADD PUSH2 0x284F JUMP JUMPDEST DUP2 PUSH4 0xFFFFFFFF AND LT ISZERO PUSH2 0xC7E JUMPI PUSH1 0x0 DUP5 DUP2 MSTORE PUSH1 0x1 DUP7 ADD PUSH1 0x20 MSTORE PUSH1 0x40 SWAP1 KECCAK256 PUSH2 0xC3B SWAP1 PUSH1 0x3 ADD PUSH4 0xFFFFFFFF DUP1 DUP5 AND SWAP1 PUSH2 0x2859 AND JUMP JUMPDEST DUP3 DUP3 PUSH4 0xFFFFFFFF AND DUP2 MLOAD DUP2 LT PUSH2 0xC53 JUMPI PUSH2 0xC53 PUSH2 0x3CB7 JUMP JUMPDEST PUSH1 0x1 PUSH1 0x1 PUSH1 0xE0 SHL SUB NOT SWAP1 SWAP3 AND PUSH1 0x20 SWAP3 DUP4 MUL SWAP2 SWAP1 SWAP2 ADD SWAP1 SWAP2 ADD MSTORE DUP1 PUSH2 0xC76 DUP2 PUSH2 0x3CCD JUMP JUMPDEST SWAP2 POP POP PUSH2 0xBEC JUMP JUMPDEST POP SWAP4 SWAP3 POP POP POP JUMP JUMPDEST PUSH1 0x0 DUP1 ADDRESS PUSH1 0x1 PUSH1 0x1 PUSH1 0xA0 SHL SUB AND PUSH4 0xBE22465D PUSH1 0x40 MLOAD DUP2 PUSH4 0xFFFFFFFF AND PUSH1 0xE0 SHL DUP2 MSTORE PUSH1 0x4 ADD PUSH1 0x20 PUSH1 0x40 MLOAD DUP1 DUP4 SUB DUP2 DUP7 GAS STATICCALL ISZERO DUP1 ISZERO PUSH2 0xCC7 JUMPI RETURNDATASIZE PUSH1 0x0 DUP1 RETURNDATACOPY RETURNDATASIZE PUSH1 0x0 REVERT JUMPDEST POP POP POP POP PUSH1 0x40 MLOAD RETURNDATASIZE PUSH1 0x1F NOT PUSH1 0x1F DUP3 ADD AND DUP3 ADD DUP1 PUSH1 0x40 MSTORE POP DUP2 ADD SWAP1 PUSH2 0xCEB SWAP2 SWAP1 PUSH2 0x3B3C JUMP JUMPDEST ISZERO PUSH2 0xD08 JUMPI PUSH1 0x40 MLOAD PUSH3 0x461BCD PUSH1 0xE5 SHL DUP2 MSTORE PUSH1 0x4 ADD PUSH2 0x50A SWAP1 PUSH2 0x3B59 JUMP JUMPDEST PUSH1 0x0 PUSH2 0xD92 PUSH2 0xD1D PUSH1 0x80 DUP9 ADD PUSH1 0x60 DUP10 ADD PUSH2 0x3B90 JUMP JUMPDEST PUSH1 0x40 DUP1 MLOAD PUSH32 0x7AABE2571874F2A330EA11C8972D9CC3792D973EFC6B36E3E29005861A344188 PUSH1 0x20 DUP3 DUP2 ADD SWAP2 SWAP1 SWAP2 MSTORE PUSH1 0x1 PUSH1 0x1 PUSH1 0xA0 SHL SUB SWAP4 SWAP1 SWAP4 AND DUP2 DUP4 ADD MSTORE DUP10 CALLDATALOAD PUSH1 0x60 DUP3 ADD MSTORE DUP3 DUP11 ADD CALLDATALOAD PUSH1 0x80 DUP3 ADD MSTORE DUP2 DUP11 ADD CALLDATALOAD PUSH1 0xA0 DUP1 DUP4 ADD SWAP2 SWAP1 SWAP2 MSTORE DUP3 MLOAD DUP1 DUP4 SUB SWAP1 SWAP2 ADD DUP2 MSTORE PUSH1 0xC0 SWAP1 SWAP2 ADD SWAP1 SWAP2 MSTORE DUP1 MLOAD SWAP2 ADD KECCAK256 SWAP1 JUMP JUMPDEST SWAP1 POP PUSH1 0x0 PUSH2 0xD9F DUP3 PUSH2 0x2282 JUMP JUMPDEST SWAP1 POP PUSH1 0x0 DUP1 PUSH2 0xDAE DUP4 DUP12 PUSH2 0x22D0 JUMP JUMPDEST SWAP1 SWAP3 POP SWAP1 POP PUSH1 0x0 DUP2 PUSH1 0x4 DUP2 GT ISZERO PUSH2 0xDC7 JUMPI PUSH2 0xDC7 PUSH2 0x3BAB JUMP JUMPDEST EQ PUSH2 0xDE4 JUMPI PUSH1 0x40 MLOAD PUSH3 0x461BCD PUSH1 0xE5 SHL DUP2 MSTORE PUSH1 0x4 ADD PUSH2 0x50A SWAP1 PUSH2 0x3BC1 JUMP JUMPDEST PUSH20 0x0 PUSH4 0x513D425A DUP13 PUSH2 0xE08 ADDRESS PUSH2 0x233E JUMP JUMPDEST PUSH1 0x40 MLOAD PUSH1 0x1 PUSH1 0x1 PUSH1 0xE0 SHL SUB NOT PUSH1 0xE0 DUP6 SWAP1 SHL AND DUP2 MSTORE PUSH2 0xE35 SWAP3 SWAP2 SWAP1 DUP8 SWAP1 PUSH4 0x78EFA4ED PUSH1 0xE1 SHL SWAP1 PUSH1 0x4 ADD PUSH2 0x3BF8 JUMP JUMPDEST PUSH1 0x20 PUSH1 0x40 MLOAD DUP1 DUP4 SUB DUP2 DUP7 GAS DELEGATECALL ISZERO DUP1 ISZERO PUSH2 0xE52 JUMPI RETURNDATASIZE PUSH1 0x0 DUP1 RETURNDATACOPY RETURNDATASIZE PUSH1 0x0 REVERT JUMPDEST POP POP POP POP PUSH1 0x40 MLOAD RETURNDATASIZE PUSH1 0x1F NOT PUSH1 0x1F DUP3 ADD AND DUP3 ADD DUP1 PUSH1 0x40 MSTORE POP DUP2 ADD SWAP1 PUSH2 0xE76 SWAP2 SWAP1 PUSH2 0x3B3C JUMP JUMPDEST PUSH2 0xEC2 JUMPI PUSH1 0x40 MLOAD PUSH3 0x461BCD PUSH1 0xE5 SHL DUP2 MSTORE PUSH1 0x20 PUSH1 0x4 DUP3 ADD MSTORE PUSH1 0x1D PUSH1 0x24 DUP3 ADD MSTORE PUSH32 0x5265676973746572436F6E74657874204163636573732044656E696564000000 PUSH1 0x44 DUP3 ADD MSTORE PUSH1 0x64 ADD PUSH2 0x50A JUMP JUMPDEST PUSH1 0x5 DUP12 ADD SLOAD PUSH1 0xFF AND PUSH2 0xF16 JUMPI PUSH1 0x40 MLOAD PUSH3 0x461BCD PUSH1 0xE5 SHL DUP2 MSTORE PUSH1 0x20 PUSH1 0x4 DUP3 ADD MSTORE PUSH1 0x1E PUSH1 0x24 DUP3 ADD MSTORE PUSH32 0x526567697374657220436F6E74657874204E6F74205065726D69747465640000 PUSH1 0x44 DUP3 ADD MSTORE PUSH1 0x64 ADD PUSH2 0x50A JUMP JUMPDEST PUSH1 0x5 DUP12 ADD DUP1 SLOAD PUSH1 0x1 SWAP2 SWAP1 PUSH1 0x0 SWAP1 PUSH2 0xF31 SWAP1 DUP5 SWAP1 PUSH1 0xFF AND PUSH2 0x3C3C JUMP JUMPDEST SWAP3 POP PUSH2 0x100 EXP DUP2 SLOAD DUP2 PUSH1 0xFF MUL NOT AND SWAP1 DUP4 PUSH1 0xFF AND MUL OR SWAP1 SSTORE POP PUSH2 0xF7C DUP12 DUP11 PUSH1 0x60 ADD PUSH1 0x20 DUP2 ADD SWAP1 PUSH2 0xF60 SWAP2 SWAP1 PUSH2 0x3B90 JUMP JUMPDEST PUSH1 0x40 DUP13 ADD CALLDATALOAD PUSH2 0xF75 PUSH1 0xA0 DUP15 ADD PUSH1 0x80 DUP16 ADD PUSH2 0x3CF0 JUMP JUMPDEST DUP13 DUP13 PUSH2 0x2865 JUMP JUMPDEST SWAP12 SWAP2 SWAP11 POP SWAP1 SWAP9 POP POP POP POP POP POP POP POP POP JUMP JUMPDEST PUSH1 0x0 ADDRESS PUSH1 0x1 PUSH1 0x1 PUSH1 0xA0 SHL SUB AND PUSH4 0xBE22465D PUSH1 0x40 MLOAD DUP2 PUSH4 0xFFFFFFFF AND PUSH1 0xE0 SHL DUP2 MSTORE PUSH1 0x4 ADD PUSH1 0x20 PUSH1 0x40 MLOAD DUP1 DUP4 SUB DUP2 DUP7 GAS STATICCALL ISZERO DUP1 ISZERO PUSH2 0xFCD JUMPI RETURNDATASIZE PUSH1 0x0 DUP1 RETURNDATACOPY RETURNDATASIZE PUSH1 0x0 REVERT JUMPDEST POP POP POP POP PUSH1 0x40 MLOAD RETURNDATASIZE PUSH1 0x1F NOT PUSH1 0x1F DUP3 ADD AND DUP3 ADD DUP1 PUSH1 0x40 MSTORE POP DUP2 ADD SWAP1 PUSH2 0xFF1 SWAP2 SWAP1 PUSH2 0x3B3C JUMP JUMPDEST ISZERO PUSH2 0x100E JUMPI PUSH1 0x40 MLOAD PUSH3 0x461BCD PUSH1 0xE5 SHL DUP2 MSTORE PUSH1 0x4 ADD PUSH2 0x50A SWAP1 PUSH2 0x3B59 JUMP JUMPDEST PUSH20 0x0 PUSH4 0x513D425A DUP7 PUSH2 0x1032 ADDRESS PUSH2 0x233E JUMP JUMPDEST PUSH1 0x40 MLOAD PUSH1 0x1 PUSH1 0x1 PUSH1 0xE0 SHL SUB NOT PUSH1 0xE0 DUP6 SWAP1 SHL AND DUP2 MSTORE PUSH2 0x105F SWAP3 SWAP2 SWAP1 CALLER SWAP1 PUSH4 0x771BCF45 PUSH1 0xE0 SHL SWAP1 PUSH1 0x4 ADD PUSH2 0x3BF8 JUMP JUMPDEST PUSH1 0x20 PUSH1 0x40 MLOAD DUP1 DUP4 SUB DUP2 DUP7 GAS DELEGATECALL ISZERO DUP1 ISZERO PUSH2 0x107C JUMPI RETURNDATASIZE PUSH1 0x0 DUP1 RETURNDATACOPY RETURNDATASIZE PUSH1 0x0 REVERT JUMPDEST POP POP POP POP PUSH1 0x40 MLOAD RETURNDATASIZE PUSH1 0x1F NOT PUSH1 0x1F DUP3 ADD AND DUP3 ADD DUP1 PUSH1 0x40 MSTORE POP DUP2 ADD SWAP1 PUSH2 0x10A0 SWAP2 SWAP1 PUSH2 0x3B3C JUMP JUMPDEST PUSH2 0x10EC JUMPI PUSH1 0x40 MLOAD PUSH3 0x461BCD PUSH1 0xE5 SHL DUP2 MSTORE PUSH1 0x20 PUSH1 0x4 DUP3 ADD MSTORE PUSH1 0x1E PUSH1 0x24 DUP3 ADD MSTORE PUSH32 0x4772616E74436F6E74657874526F6C65204163636573732044656E6965640000 PUSH1 0x44 DUP3 ADD MSTORE PUSH1 0x64 ADD PUSH2 0x50A JUMP JUMPDEST DUP4 PUSH2 0x10F6 ADDRESS PUSH2 0x233E JUMP JUMPDEST SUB PUSH2 0x1143 JUMPI PUSH1 0x40 MLOAD PUSH3 0x461BCD PUSH1 0xE5 SHL DUP2 MSTORE PUSH1 0x20 PUSH1 0x4 DUP3 ADD MSTORE PUSH1 0x19 PUSH1 0x24 DUP3 ADD MSTORE PUSH32 0x496C6C6567616C204772616E742041434C20436F6E7465787400000000000000 PUSH1 0x44 DUP3 ADD MSTORE PUSH1 0x64 ADD PUSH2 0x50A JUMP JUMPDEST PUSH1 0x0 DUP5 DUP2 MSTORE PUSH1 0x1 DUP1 DUP8 ADD PUSH1 0x20 MSTORE PUSH1 0x40 SWAP1 SWAP2 KECCAK256 ADD SLOAD PUSH1 0x1 PUSH1 0x1 PUSH1 0xA0 SHL SUB AND PUSH2 0x117C JUMPI PUSH1 0x40 MLOAD PUSH3 0x461BCD PUSH1 0xE5 SHL DUP2 MSTORE PUSH1 0x4 ADD PUSH2 0x50A SWAP1 PUSH2 0x3C55 JUMP JUMPDEST PUSH1 0x0 DUP3 DUP2 MSTORE PUSH1 0x2 DUP7 ADD PUSH1 0x20 MSTORE PUSH1 0x40 SWAP1 KECCAK256 PUSH1 0x1 ADD DUP1 SLOAD PUSH2 0x119A SWAP1 PUSH2 0x3D0D JUMP JUMPDEST SWAP1 POP PUSH1 0x0 SUB PUSH2 0x11BB JUMPI PUSH1 0x40 MLOAD PUSH3 0x461BCD PUSH1 0xE5 SHL DUP2 MSTORE PUSH1 0x4 ADD PUSH2 0x50A SWAP1 PUSH2 0x3D41 JUMP JUMPDEST PUSH1 0x0 DUP5 DUP2 MSTORE PUSH1 0x1 DUP7 ADD PUSH1 0x20 MSTORE PUSH1 0x40 SWAP1 KECCAK256 PUSH2 0x11E2 SWAP1 PUSH1 0x3 ADD PUSH1 0x1 PUSH1 0x1 PUSH1 0xE0 SHL SUB NOT DUP6 AND PUSH2 0x2828 JUMP JUMPDEST PUSH2 0x11FE JUMPI PUSH1 0x40 MLOAD PUSH3 0x461BCD PUSH1 0xE5 SHL DUP2 MSTORE PUSH1 0x4 ADD PUSH2 0x50A SWAP1 PUSH2 0x3C80 JUMP JUMPDEST PUSH1 0x0 DUP5 DUP2 MSTORE PUSH1 0x1 DUP7 DUP2 ADD PUSH1 0x20 SWAP1 DUP2 MSTORE PUSH1 0x40 DUP1 DUP5 KECCAK256 PUSH1 0x1 PUSH1 0x1 PUSH1 0xE0 SHL SUB NOT DUP9 AND DUP6 MSTORE PUSH1 0x2 ADD SWAP1 SWAP2 MSTORE SWAP1 SWAP2 KECCAK256 DUP4 DUP2 SSTORE DUP2 ADD DUP1 SLOAD PUSH1 0xFF NOT AND DUP3 DUP1 JUMPDEST MUL OR SWAP1 SSTORE POP POP POP PUSH1 0x0 SWAP2 DUP3 MSTORE POP PUSH1 0x1 SWAP2 SWAP1 SWAP2 ADD PUSH1 0x20 MSTORE PUSH1 0x40 SWAP1 KECCAK256 SLOAD SWAP1 JUMP JUMPDEST PUSH1 0x0 DUP4 DUP2 MSTORE PUSH1 0x1 DUP1 DUP7 ADD PUSH1 0x20 MSTORE PUSH1 0x40 DUP3 KECCAK256 ADD SLOAD PUSH1 0x1 PUSH1 0x1 PUSH1 0xA0 SHL SUB AND ISZERO DUP1 ISZERO SWAP1 PUSH2 0x12A5 JUMPI POP PUSH1 0x0 DUP5 DUP2 MSTORE PUSH1 0x1 DUP7 ADD PUSH1 0x20 SWAP1 DUP2 MSTORE PUSH1 0x40 DUP1 DUP4 KECCAK256 PUSH1 0x1 PUSH1 0x1 PUSH1 0xE0 SHL SUB NOT DUP7 AND DUP5 MSTORE PUSH1 0x2 ADD SWAP1 SWAP2 MSTORE SWAP1 KECCAK256 SLOAD DUP4 EQ JUMPDEST DUP1 ISZERO PUSH2 0x12F1 JUMPI POP PUSH1 0x1 PUSH1 0x0 DUP6 DUP2 MSTORE PUSH1 0x1 DUP1 DUP9 ADD PUSH1 0x20 SWAP1 DUP2 MSTORE PUSH1 0x40 DUP1 DUP5 KECCAK256 PUSH1 0x1 PUSH1 0x1 PUSH1 0xE0 SHL SUB NOT DUP9 AND DUP6 MSTORE PUSH1 0x2 SWAP1 DUP2 ADD SWAP1 SWAP3 MSTORE SWAP1 SWAP3 KECCAK256 ADD SLOAD PUSH1 0xFF AND SWAP1 DUP2 GT ISZERO PUSH2 0x12EF JUMPI PUSH2 0x12EF PUSH2 0x3BAB JUMP JUMPDEST EQ JUMPDEST SWAP6 SWAP5 POP POP POP POP POP JUMP JUMPDEST PUSH1 0x40 DUP1 MLOAD PUSH1 0xC0 DUP2 ADD DUP3 MSTORE PUSH1 0x0 DUP1 DUP3 MSTORE PUSH1 0x20 DUP3 ADD DUP2 SWAP1 MSTORE SWAP2 DUP2 ADD DUP3 SWAP1 MSTORE PUSH1 0x60 DUP2 ADD DUP3 SWAP1 MSTORE PUSH1 0x80 DUP2 ADD DUP3 SWAP1 MSTORE PUSH1 0xA0 DUP2 ADD SWAP2 SWAP1 SWAP2 MSTORE PUSH1 0x0 DUP3 DUP2 MSTORE PUSH1 0x1 DUP1 DUP6 ADD PUSH1 0x20 MSTORE PUSH1 0x40 SWAP1 SWAP2 KECCAK256 ADD SLOAD PUSH1 0x1 PUSH1 0x1 PUSH1 0xA0 SHL SUB AND PUSH2 0x1365 JUMPI PUSH1 0x40 MLOAD PUSH3 0x461BCD PUSH1 0xE5 SHL DUP2 MSTORE PUSH1 0x4 ADD PUSH2 0x50A SWAP1 PUSH2 0x3C55 JUMP JUMPDEST PUSH1 0x0 DUP3 DUP2 MSTORE PUSH1 0x1 DUP1 DUP6 ADD PUSH1 0x20 SWAP1 DUP2 MSTORE PUSH1 0x40 DUP1 DUP5 KECCAK256 SWAP1 SWAP3 ADD SLOAD DUP3 MLOAD PUSH4 0x1D743037 PUSH1 0xE2 SHL DUP2 MSTORE SWAP3 MLOAD PUSH1 0x1 PUSH1 0x1 PUSH1 0xA0 SHL SUB SWAP1 SWAP2 AND SWAP3 PUSH4 0x75D0C0DC SWAP3 PUSH1 0x4 DUP1 DUP4 ADD SWAP4 SWAP2 SWAP3 DUP3 SWAP1 SUB ADD DUP2 DUP7 GAS STATICCALL ISZERO DUP1 ISZERO PUSH2 0x13BE JUMPI RETURNDATASIZE PUSH1 0x0 DUP1 RETURNDATACOPY RETURNDATASIZE PUSH1 0x0 REVERT JUMPDEST POP POP POP POP PUSH1 0x40 MLOAD RETURNDATASIZE PUSH1 0x1F NOT PUSH1 0x1F DUP3 ADD AND DUP3 ADD DUP1 PUSH1 0x40 MSTORE POP DUP2 ADD SWAP1 PUSH2 0x13E2 SWAP2 SWAP1 PUSH2 0x3D69 JUMP JUMPDEST PUSH1 0x0 DUP5 DUP2 MSTORE PUSH1 0x1 DUP1 DUP8 ADD PUSH1 0x20 SWAP1 DUP2 MSTORE PUSH1 0x40 DUP1 DUP5 KECCAK256 SWAP1 SWAP3 ADD SLOAD DUP3 MLOAD PUSH4 0x5054723 PUSH1 0xE5 SHL DUP2 MSTORE SWAP3 MLOAD SWAP5 SWAP6 POP SWAP3 SWAP4 PUSH1 0x1 PUSH1 0x1 PUSH1 0xA0 SHL SUB SWAP1 SWAP4 AND SWAP3 PUSH4 0xA0A8E460 SWAP3 PUSH1 0x4 DUP1 DUP3 ADD SWAP4 SWAP3 SWAP2 DUP3 SWAP1 SUB ADD DUP2 DUP7 GAS STATICCALL ISZERO DUP1 ISZERO PUSH2 0x1440 JUMPI RETURNDATASIZE PUSH1 0x0 DUP1 RETURNDATACOPY RETURNDATASIZE PUSH1 0x0 REVERT JUMPDEST POP POP POP POP PUSH1 0x40 MLOAD RETURNDATASIZE PUSH1 0x1F NOT PUSH1 0x1F DUP3 ADD AND DUP3 ADD DUP1 PUSH1 0x40 MSTORE POP DUP2 ADD SWAP1 PUSH2 0x1464 SWAP2 SWAP1 PUSH2 0x3D69 JUMP JUMPDEST PUSH1 0x0 DUP6 DUP2 MSTORE PUSH1 0x1 DUP1 DUP9 ADD PUSH1 0x20 SWAP1 DUP2 MSTORE PUSH1 0x40 DUP1 DUP5 KECCAK256 SWAP1 SWAP3 ADD SLOAD DUP3 MLOAD PUSH4 0xBE22465D PUSH1 0xE0 SHL DUP2 MSTORE SWAP3 MLOAD SWAP5 SWAP6 POP SWAP3 SWAP4 PUSH1 0x1 PUSH1 0x1 PUSH1 0xA0 SHL SUB SWAP1 SWAP4 AND SWAP3 PUSH4 0xBE22465D SWAP3 PUSH1 0x4 DUP1 DUP3 ADD SWAP4 SWAP3 SWAP2 DUP3 SWAP1 SUB ADD DUP2 DUP7 GAS STATICCALL ISZERO DUP1 ISZERO PUSH2 0x14C2 JUMPI RETURNDATASIZE PUSH1 0x0 DUP1 RETURNDATACOPY RETURNDATASIZE PUSH1 0x0 REVERT JUMPDEST POP POP POP POP PUSH1 0x40 MLOAD RETURNDATASIZE PUSH1 0x1F NOT PUSH1 0x1F DUP3 ADD AND DUP3 ADD DUP1 PUSH1 0x40 MSTORE POP DUP2 ADD SWAP1 PUSH2 0x14E6 SWAP2 SWAP1 PUSH2 0x3B3C JUMP JUMPDEST PUSH1 0x0 DUP7 DUP2 MSTORE PUSH1 0x1 DUP1 DUP10 ADD PUSH1 0x20 SWAP1 DUP2 MSTORE PUSH1 0x40 DUP1 DUP5 KECCAK256 SWAP1 SWAP3 ADD SLOAD DUP3 MLOAD PUSH4 0x151E765 PUSH1 0xE6 SHL DUP2 MSTORE SWAP3 MLOAD SWAP5 SWAP6 POP SWAP3 SWAP4 PUSH1 0x1 PUSH1 0x1 PUSH1 0xA0 SHL SUB SWAP1 SWAP4 AND SWAP3 PUSH4 0x5479D940 SWAP3 PUSH1 0x4 DUP1 DUP3 ADD SWAP4 SWAP3 SWAP2 DUP3 SWAP1 SUB ADD DUP2 DUP7 GAS STATICCALL ISZERO DUP1 ISZERO PUSH2 0x1544 JUMPI RETURNDATASIZE PUSH1 0x0 DUP1 RETURNDATACOPY RETURNDATASIZE PUSH1 0x0 REVERT JUMPDEST POP POP POP POP PUSH1 0x40 MLOAD RETURNDATASIZE PUSH1 0x1F NOT PUSH1 0x1F DUP3 ADD AND DUP3 ADD DUP1 PUSH1 0x40 MSTORE POP DUP2 ADD SWAP1 PUSH2 0x1568 SWAP2 SWAP1 PUSH2 0x3B3C JUMP JUMPDEST PUSH1 0x40 DUP1 MLOAD PUSH1 0xC0 DUP2 ADD DUP3 MSTORE SWAP6 DUP7 MSTORE PUSH1 0x20 DUP1 DUP8 ADD SWAP6 SWAP1 SWAP6 MSTORE PUSH1 0x0 DUP9 DUP2 MSTORE PUSH1 0x1 DUP1 DUP12 ADD DUP1 DUP9 MSTORE DUP4 DUP4 KECCAK256 DUP1 SLOAD SWAP5 DUP11 ADD SWAP5 SWAP1 SWAP5 MSTORE SWAP2 DUP11 SWAP1 MSTORE SWAP6 MSTORE SWAP1 SWAP4 ADD SLOAD PUSH1 0x1 PUSH1 0x1 PUSH1 0xA0 SHL SUB AND PUSH1 0x60 DUP6 ADD MSTORE POP ISZERO ISZERO PUSH1 0x80 DUP4 ADD MSTORE ISZERO ISZERO PUSH1 0xA0 DUP3 ADD MSTORE SWAP1 POP SWAP3 SWAP2 POP POP JUMP JUMPDEST PUSH1 0x0 ADDRESS PUSH1 0x1 PUSH1 0x1 PUSH1 0xA0 SHL SUB AND PUSH4 0xBE22465D PUSH1 0x40 MLOAD DUP2 PUSH4 0xFFFFFFFF AND PUSH1 0xE0 SHL DUP2 MSTORE PUSH1 0x4 ADD PUSH1 0x20 PUSH1 0x40 MLOAD DUP1 DUP4 SUB DUP2 DUP7 GAS STATICCALL ISZERO DUP1 ISZERO PUSH2 0x1606 JUMPI RETURNDATASIZE PUSH1 0x0 DUP1 RETURNDATACOPY RETURNDATASIZE PUSH1 0x0 REVERT JUMPDEST POP POP POP POP PUSH1 0x40 MLOAD RETURNDATASIZE PUSH1 0x1F NOT PUSH1 0x1F DUP3 ADD AND DUP3 ADD DUP1 PUSH1 0x40 MSTORE POP DUP2 ADD SWAP1 PUSH2 0x162A SWAP2 SWAP1 PUSH2 0x3B3C JUMP JUMPDEST ISZERO PUSH2 0x1647 JUMPI PUSH1 0x40 MLOAD PUSH3 0x461BCD PUSH1 0xE5 SHL DUP2 MSTORE PUSH1 0x4 ADD PUSH2 0x50A SWAP1 PUSH2 0x3B59 JUMP JUMPDEST PUSH20 0x0 PUSH4 0x513D425A DUP7 PUSH2 0x166B ADDRESS PUSH2 0x233E JUMP JUMPDEST PUSH1 0x40 MLOAD PUSH1 0x1 PUSH1 0x1 PUSH1 0xE0 SHL SUB NOT PUSH1 0xE0 DUP6 SWAP1 SHL AND DUP2 MSTORE PUSH2 0x1698 SWAP3 SWAP2 SWAP1 CALLER SWAP1 PUSH4 0x31C0493 PUSH1 0xE0 SHL SWAP1 PUSH1 0x4 ADD PUSH2 0x3BF8 JUMP JUMPDEST PUSH1 0x20 PUSH1 0x40 MLOAD DUP1 DUP4 SUB DUP2 DUP7 GAS DELEGATECALL ISZERO DUP1 ISZERO PUSH2 0x16B5 JUMPI RETURNDATASIZE PUSH1 0x0 DUP1 RETURNDATACOPY RETURNDATASIZE PUSH1 0x0 REVERT JUMPDEST POP POP POP POP PUSH1 0x40 MLOAD RETURNDATASIZE PUSH1 0x1F NOT PUSH1 0x1F DUP3 ADD AND DUP3 ADD DUP1 PUSH1 0x40 MSTORE POP DUP2 ADD SWAP1 PUSH2 0x16D9 SWAP2 SWAP1 PUSH2 0x3B3C JUMP JUMPDEST PUSH2 0x1725 JUMPI PUSH1 0x40 MLOAD PUSH3 0x461BCD PUSH1 0xE5 SHL DUP2 MSTORE PUSH1 0x20 PUSH1 0x4 DUP3 ADD DUP2 SWAP1 MSTORE PUSH1 0x24 DUP3 ADD MSTORE PUSH32 0x416464436F6E7465787446756E63526F6C65204163636573732044656E696564 PUSH1 0x44 DUP3 ADD MSTORE PUSH1 0x64 ADD PUSH2 0x50A JUMP JUMPDEST PUSH1 0x0 DUP5 DUP2 MSTORE PUSH1 0x1 DUP1 DUP8 ADD PUSH1 0x20 MSTORE PUSH1 0x40 SWAP1 SWAP2 KECCAK256 ADD SLOAD PUSH1 0x1 PUSH1 0x1 PUSH1 0xA0 SHL SUB AND PUSH2 0x175E JUMPI PUSH1 0x40 MLOAD PUSH3 0x461BCD PUSH1 0xE5 SHL DUP2 MSTORE PUSH1 0x4 ADD PUSH2 0x50A SWAP1 PUSH2 0x3C55 JUMP JUMPDEST PUSH1 0x0 DUP3 DUP2 MSTORE PUSH1 0x2 DUP7 ADD PUSH1 0x20 MSTORE PUSH1 0x40 SWAP1 KECCAK256 PUSH1 0x1 ADD DUP1 SLOAD PUSH2 0x177C SWAP1 PUSH2 0x3D0D JUMP JUMPDEST SWAP1 POP PUSH1 0x0 SUB PUSH2 0x179D JUMPI PUSH1 0x40 MLOAD PUSH3 0x461BCD PUSH1 0xE5 SHL DUP2 MSTORE PUSH1 0x4 ADD PUSH2 0x50A SWAP1 PUSH2 0x3D41 JUMP JUMPDEST PUSH1 0x0 DUP5 DUP2 MSTORE PUSH1 0x1 DUP7 ADD PUSH1 0x20 MSTORE PUSH1 0x40 SWAP1 KECCAK256 PUSH2 0x17C4 SWAP1 PUSH1 0x3 ADD PUSH1 0x1 PUSH1 0x1 PUSH1 0xE0 SHL SUB NOT DUP6 AND PUSH2 0x2828 JUMP JUMPDEST ISZERO PUSH2 0x1811 JUMPI PUSH1 0x40 MLOAD PUSH3 0x461BCD PUSH1 0xE5 SHL DUP2 MSTORE PUSH1 0x20 PUSH1 0x4 DUP3 ADD MSTORE PUSH1 0x1F PUSH1 0x24 DUP3 ADD MSTORE PUSH32 0x46756E6374696F6E53656C6563746F7220416C72656164792045786973747300 PUSH1 0x44 DUP3 ADD MSTORE PUSH1 0x64 ADD PUSH2 0x50A JUMP JUMPDEST PUSH1 0x0 DUP5 DUP2 MSTORE PUSH1 0x1 DUP7 DUP2 ADD PUSH1 0x20 DUP2 DUP2 MSTORE PUSH1 0x40 DUP1 DUP6 KECCAK256 PUSH1 0x1 PUSH1 0x1 PUSH1 0xE0 SHL SUB NOT DUP10 AND DUP1 DUP8 MSTORE PUSH1 0x2 DUP3 ADD DUP5 MSTORE SWAP2 DUP7 KECCAK256 DUP9 DUP2 SSTORE DUP6 ADD DUP1 SLOAD PUSH1 0xFF NOT AND SWAP1 SWAP6 OR SWAP1 SWAP5 SSTORE SWAP4 DUP9 SWAP1 MSTORE MSTORE PUSH2 0x1861 SWAP2 PUSH1 0x3 SWAP1 SWAP2 ADD SWAP1 PUSH2 0x2BED JUMP JUMPDEST POP POP POP PUSH1 0x0 SWAP2 DUP3 MSTORE POP PUSH1 0x1 SWAP2 SWAP1 SWAP2 ADD PUSH1 0x20 MSTORE PUSH1 0x40 SWAP1 KECCAK256 SLOAD SWAP1 JUMP JUMPDEST PUSH1 0x0 PUSH2 0x188C DUP7 DUP7 DUP7 PUSH1 0x1 DUP8 DUP8 PUSH2 0x2865 JUMP JUMPDEST SWAP7 SWAP6 POP POP POP POP POP POP JUMP JUMPDEST PUSH1 0x0 DUP1 ADDRESS PUSH1 0x1 PUSH1 0x1 PUSH1 0xA0 SHL SUB AND PUSH4 0xBE22465D PUSH1 0x40 MLOAD DUP2 PUSH4 0xFFFFFFFF AND PUSH1 0xE0 SHL DUP2 MSTORE PUSH1 0x4 ADD PUSH1 0x20 PUSH1 0x40 MLOAD DUP1 DUP4 SUB DUP2 DUP7 GAS STATICCALL ISZERO DUP1 ISZERO PUSH2 0x18D7 JUMPI RETURNDATASIZE PUSH1 0x0 DUP1 RETURNDATACOPY RETURNDATASIZE PUSH1 0x0 REVERT JUMPDEST POP POP POP POP PUSH1 0x40 MLOAD RETURNDATASIZE PUSH1 0x1F NOT PUSH1 0x1F DUP3 ADD AND DUP3 ADD DUP1 PUSH1 0x40 MSTORE POP DUP2 ADD SWAP1 PUSH2 0x18FB SWAP2 SWAP1 PUSH2 0x3B3C JUMP JUMPDEST ISZERO PUSH2 0x1918 JUMPI PUSH1 0x40 MLOAD PUSH3 0x461BCD PUSH1 0xE5 SHL DUP2 MSTORE PUSH1 0x4 ADD PUSH2 0x50A SWAP1 PUSH2 0x3B59 JUMP JUMPDEST PUSH20 0x0 PUSH4 0x513D425A DUP7 PUSH2 0x193C ADDRESS PUSH2 0x233E JUMP JUMPDEST PUSH1 0x40 MLOAD PUSH1 0x1 PUSH1 0x1 PUSH1 0xE0 SHL SUB NOT PUSH1 0xE0 DUP6 SWAP1 SHL AND DUP2 MSTORE PUSH2 0x1969 SWAP3 SWAP2 SWAP1 CALLER SWAP1 PUSH4 0xD3386401 PUSH1 0xE0 SHL SWAP1 PUSH1 0x4 ADD PUSH2 0x3BF8 JUMP JUMPDEST PUSH1 0x20 PUSH1 0x40 MLOAD DUP1 DUP4 SUB DUP2 DUP7 GAS DELEGATECALL ISZERO DUP1 ISZERO PUSH2 0x1986 JUMPI RETURNDATASIZE PUSH1 0x0 DUP1 RETURNDATACOPY RETURNDATASIZE PUSH1 0x0 REVERT JUMPDEST POP POP POP POP PUSH1 0x40 MLOAD RETURNDATASIZE PUSH1 0x1F NOT PUSH1 0x1F DUP3 ADD AND DUP3 ADD DUP1 PUSH1 0x40 MSTORE POP DUP2 ADD SWAP1 PUSH2 0x19AA SWAP2 SWAP1 PUSH2 0x3B3C JUMP JUMPDEST PUSH2 0x19F6 JUMPI PUSH1 0x40 MLOAD PUSH3 0x461BCD PUSH1 0xE5 SHL DUP2 MSTORE PUSH1 0x20 PUSH1 0x4 DUP3 ADD MSTORE PUSH1 0x1D PUSH1 0x24 DUP3 ADD MSTORE PUSH32 0x536574436F6E746578745265616C6D204163636573732044656E696564000000 PUSH1 0x44 DUP3 ADD MSTORE PUSH1 0x64 ADD PUSH2 0x50A JUMP JUMPDEST DUP4 PUSH2 0x1A00 ADDRESS PUSH2 0x233E JUMP JUMPDEST SUB PUSH2 0x1A4D JUMPI PUSH1 0x40 MLOAD PUSH3 0x461BCD PUSH1 0xE5 SHL DUP2 MSTORE PUSH1 0x20 PUSH1 0x4 DUP3 ADD DUP2 SWAP1 MSTORE PUSH1 0x24 DUP3 ADD MSTORE PUSH32 0x496C6C6567616C204368616E67652041434C20436F6E74657874205265616C6D PUSH1 0x44 DUP3 ADD MSTORE PUSH1 0x64 ADD PUSH2 0x50A JUMP JUMPDEST PUSH1 0x0 DUP5 DUP2 MSTORE PUSH1 0x1 DUP1 DUP8 ADD PUSH1 0x20 MSTORE PUSH1 0x40 SWAP1 SWAP2 KECCAK256 ADD SLOAD PUSH1 0x1 PUSH1 0x1 PUSH1 0xA0 SHL SUB AND PUSH2 0x1A86 JUMPI PUSH1 0x40 MLOAD PUSH3 0x461BCD PUSH1 0xE5 SHL DUP2 MSTORE PUSH1 0x4 ADD PUSH2 0x50A SWAP1 PUSH2 0x3C55 JUMP JUMPDEST PUSH1 0x0 DUP4 DUP2 MSTORE PUSH1 0x3 DUP7 ADD PUSH1 0x20 MSTORE PUSH1 0x40 SWAP1 KECCAK256 DUP1 SLOAD PUSH2 0x1AA1 SWAP1 PUSH2 0x3D0D JUMP JUMPDEST SWAP1 POP PUSH1 0x0 SUB PUSH2 0x1AC2 JUMPI PUSH1 0x40 MLOAD PUSH3 0x461BCD PUSH1 0xE5 SHL DUP2 MSTORE PUSH1 0x4 ADD PUSH2 0x50A SWAP1 PUSH2 0x3D82 JUMP JUMPDEST PUSH1 0x0 DUP5 DUP2 MSTORE PUSH1 0x1 DUP7 ADD PUSH1 0x20 MSTORE PUSH1 0x40 SWAP1 KECCAK256 SLOAD DUP4 SWAP1 SUB PUSH2 0x1B22 JUMPI PUSH1 0x40 MLOAD PUSH3 0x461BCD PUSH1 0xE5 SHL DUP2 MSTORE PUSH1 0x20 PUSH1 0x4 DUP3 ADD MSTORE PUSH1 0x19 PUSH1 0x24 DUP3 ADD MSTORE PUSH32 0x496C6C6567616C205265616C6D204475706C69636174696F6E00000000000000 PUSH1 0x44 DUP3 ADD MSTORE PUSH1 0x64 ADD PUSH2 0x50A JUMP JUMPDEST PUSH1 0x0 DUP5 DUP2 MSTORE PUSH1 0x1 DUP7 ADD PUSH1 0x20 SWAP1 DUP2 MSTORE PUSH1 0x40 DUP1 DUP4 KECCAK256 SLOAD DUP7 DUP5 MSTORE PUSH1 0x3 DUP10 ADD SWAP1 SWAP3 MSTORE SWAP1 SWAP2 KECCAK256 PUSH2 0x1B50 SWAP1 PUSH1 0x2 ADD DUP7 PUSH2 0x2BED JUMP JUMPDEST POP PUSH1 0x0 DUP6 DUP2 MSTORE PUSH1 0x1 DUP8 ADD PUSH1 0x20 SWAP1 DUP2 MSTORE PUSH1 0x40 DUP1 DUP4 KECCAK256 SLOAD DUP4 MSTORE PUSH1 0x3 DUP10 ADD SWAP1 SWAP2 MSTORE SWAP1 KECCAK256 PUSH2 0x1B7D SWAP1 PUSH1 0x2 ADD DUP7 PUSH2 0x2843 JUMP JUMPDEST POP PUSH1 0x1 SWAP7 SWAP1 SWAP6 POP SWAP4 POP POP POP POP JUMP JUMPDEST PUSH1 0x40 MLOAD PUSH18 0x1310DBDB9D195E1D13585B9859D95B595B9D PUSH1 0x72 SHL PUSH1 0x20 DUP3 ADD MSTORE PUSH1 0x32 ADD PUSH2 0x7B1 JUMP JUMPDEST PUSH1 0x0 DUP1 ADDRESS PUSH1 0x1 PUSH1 0x1 PUSH1 0xA0 SHL SUB AND PUSH4 0xBE22465D PUSH1 0x40 MLOAD DUP2 PUSH4 0xFFFFFFFF AND PUSH1 0xE0 SHL DUP2 MSTORE PUSH1 0x4 ADD PUSH1 0x20 PUSH1 0x40 MLOAD DUP1 DUP4 SUB DUP2 DUP7 GAS STATICCALL ISZERO DUP1 ISZERO PUSH2 0x1BF2 JUMPI RETURNDATASIZE PUSH1 0x0 DUP1 RETURNDATACOPY RETURNDATASIZE PUSH1 0x0 REVERT JUMPDEST POP POP POP POP PUSH1 0x40 MLOAD RETURNDATASIZE PUSH1 0x1F NOT PUSH1 0x1F DUP3 ADD AND DUP3 ADD DUP1 PUSH1 0x40 MSTORE POP DUP2 ADD SWAP1 PUSH2 0x1C16 SWAP2 SWAP1 PUSH2 0x3B3C JUMP JUMPDEST ISZERO PUSH2 0x1C33 JUMPI PUSH1 0x40 MLOAD PUSH3 0x461BCD PUSH1 0xE5 SHL DUP2 MSTORE PUSH1 0x4 ADD PUSH2 0x50A SWAP1 PUSH2 0x3B59 JUMP JUMPDEST PUSH1 0x0 PUSH2 0x1C48 PUSH2 0xD1D PUSH1 0x80 DUP9 ADD PUSH1 0x60 DUP10 ADD PUSH2 0x3B90 JUMP JUMPDEST SWAP1 POP PUSH1 0x0 PUSH2 0x1C55 DUP3 PUSH2 0x2282 JUMP JUMPDEST SWAP1 POP PUSH1 0x0 DUP1 PUSH2 0x1C64 DUP4 DUP12 PUSH2 0x22D0 JUMP JUMPDEST SWAP1 SWAP3 POP SWAP1 POP PUSH1 0x0 DUP2 PUSH1 0x4 DUP2 GT ISZERO PUSH2 0x1C7D JUMPI PUSH2 0x1C7D PUSH2 0x3BAB JUMP JUMPDEST EQ PUSH2 0x1C9A JUMPI PUSH1 0x40 MLOAD PUSH3 0x461BCD PUSH1 0xE5 SHL DUP2 MSTORE PUSH1 0x4 ADD PUSH2 0x50A SWAP1 PUSH2 0x3BC1 JUMP JUMPDEST PUSH20 0x0 PUSH4 0x513D425A DUP13 PUSH2 0x1CBE ADDRESS PUSH2 0x233E JUMP JUMPDEST PUSH1 0x40 MLOAD PUSH1 0x1 PUSH1 0x1 PUSH1 0xE0 SHL SUB NOT PUSH1 0xE0 DUP6 SWAP1 SHL AND DUP2 MSTORE PUSH2 0x1CEB SWAP3 SWAP2 SWAP1 DUP8 SWAP1 PUSH4 0x71D569D9 PUSH1 0xE0 SHL SWAP1 PUSH1 0x4 ADD PUSH2 0x3BF8 JUMP JUMPDEST PUSH1 0x20 PUSH1 0x40 MLOAD DUP1 DUP4 SUB DUP2 DUP7 GAS DELEGATECALL ISZERO DUP1 ISZERO PUSH2 0x1D08 JUMPI RETURNDATASIZE PUSH1 0x0 DUP1 RETURNDATACOPY RETURNDATASIZE PUSH1 0x0 REVERT JUMPDEST POP POP POP POP PUSH1 0x40 MLOAD RETURNDATASIZE PUSH1 0x1F NOT PUSH1 0x1F DUP3 ADD AND DUP3 ADD DUP1 PUSH1 0x40 MSTORE POP DUP2 ADD SWAP1 PUSH2 0x1D2C SWAP2 SWAP1 PUSH2 0x3B3C JUMP JUMPDEST PUSH2 0x1D78 JUMPI PUSH1 0x40 MLOAD PUSH3 0x461BCD PUSH1 0xE5 SHL DUP2 MSTORE PUSH1 0x20 PUSH1 0x4 DUP3 ADD MSTORE PUSH1 0x1B PUSH1 0x24 DUP3 ADD MSTORE PUSH32 0x557064617465436F6E74657874204163636573732044656E6965640000000000 PUSH1 0x44 DUP3 ADD MSTORE PUSH1 0x64 ADD PUSH2 0x50A JUMP JUMPDEST PUSH2 0xF7C DUP12 PUSH2 0x1D85 CALLER PUSH2 0x233E JUMP JUMPDEST PUSH1 0x40 DUP13 ADD CALLDATALOAD PUSH2 0x1D9A PUSH1 0xA0 DUP15 ADD PUSH1 0x80 DUP16 ADD PUSH2 0x3CF0 JUMP JUMPDEST DUP13 DUP13 PUSH2 0x2BF9 JUMP JUMPDEST PUSH1 0x0 DUP1 ADDRESS PUSH1 0x1 PUSH1 0x1 PUSH1 0xA0 SHL SUB AND PUSH4 0xBE22465D PUSH1 0x40 MLOAD DUP2 PUSH4 0xFFFFFFFF AND PUSH1 0xE0 SHL DUP2 MSTORE PUSH1 0x4 ADD PUSH1 0x20 PUSH1 0x40 MLOAD DUP1 DUP4 SUB DUP2 DUP7 GAS STATICCALL ISZERO DUP1 ISZERO PUSH2 0x1DE2 JUMPI RETURNDATASIZE PUSH1 0x0 DUP1 RETURNDATACOPY RETURNDATASIZE PUSH1 0x0 REVERT JUMPDEST POP POP POP POP PUSH1 0x40 MLOAD RETURNDATASIZE PUSH1 0x1F NOT PUSH1 0x1F DUP3 ADD AND DUP3 ADD DUP1 PUSH1 0x40 MSTORE POP DUP2 ADD SWAP1 PUSH2 0x1E06 SWAP2 SWAP1 PUSH2 0x3B3C JUMP JUMPDEST ISZERO PUSH2 0x1E23 JUMPI PUSH1 0x40 MLOAD PUSH3 0x461BCD PUSH1 0xE5 SHL DUP2 MSTORE PUSH1 0x4 ADD PUSH2 0x50A SWAP1 PUSH2 0x3B59 JUMP JUMPDEST PUSH20 0x0 PUSH4 0x513D425A DUP7 PUSH2 0x1E47 ADDRESS PUSH2 0x233E JUMP JUMPDEST PUSH1 0x40 MLOAD PUSH1 0x1 PUSH1 0x1 PUSH1 0xE0 SHL SUB NOT PUSH1 0xE0 DUP6 SWAP1 SHL AND DUP2 MSTORE PUSH2 0x1E74 SWAP3 SWAP2 SWAP1 CALLER SWAP1 PUSH4 0x70420EE3 PUSH1 0xE0 SHL SWAP1 PUSH1 0x4 ADD PUSH2 0x3BF8 JUMP JUMPDEST PUSH1 0x20 PUSH1 0x40 MLOAD DUP1 DUP4 SUB DUP2 DUP7 GAS DELEGATECALL ISZERO DUP1 ISZERO PUSH2 0x1E91 JUMPI RETURNDATASIZE PUSH1 0x0 DUP1 RETURNDATACOPY RETURNDATASIZE PUSH1 0x0 REVERT JUMPDEST POP POP POP POP PUSH1 0x40 MLOAD RETURNDATASIZE PUSH1 0x1F NOT PUSH1 0x1F DUP3 ADD AND DUP3 ADD DUP1 PUSH1 0x40 MSTORE POP DUP2 ADD SWAP1 PUSH2 0x1EB5 SWAP2 SWAP1 PUSH2 0x3B3C JUMP JUMPDEST PUSH2 0x1F01 JUMPI PUSH1 0x40 MLOAD PUSH3 0x461BCD PUSH1 0xE5 SHL DUP2 MSTORE PUSH1 0x20 PUSH1 0x4 DUP3 ADD MSTORE PUSH1 0x1E PUSH1 0x24 DUP3 ADD MSTORE PUSH32 0x536574436F6E74657874537461747573204163636573732044656E6965640000 PUSH1 0x44 DUP3 ADD MSTORE PUSH1 0x64 ADD PUSH2 0x50A JUMP JUMPDEST DUP4 PUSH2 0x1F0B ADDRESS PUSH2 0x233E JUMP JUMPDEST SUB PUSH2 0x1F62 JUMPI PUSH1 0x40 MLOAD PUSH3 0x461BCD PUSH1 0xE5 SHL DUP2 MSTORE PUSH1 0x20 PUSH1 0x4 DUP3 ADD MSTORE PUSH1 0x21 PUSH1 0x24 DUP3 ADD MSTORE PUSH32 0x496C6C6567616C204368616E67652041434C20436F6E74657874205374617475 PUSH1 0x44 DUP3 ADD MSTORE PUSH1 0x73 PUSH1 0xF8 SHL PUSH1 0x64 DUP3 ADD MSTORE PUSH1 0x84 ADD PUSH2 0x50A JUMP JUMPDEST PUSH1 0x0 DUP5 DUP2 MSTORE PUSH1 0x1 DUP1 DUP8 ADD PUSH1 0x20 MSTORE PUSH1 0x40 SWAP1 SWAP2 KECCAK256 ADD SLOAD PUSH1 0x1 PUSH1 0x1 PUSH1 0xA0 SHL SUB AND PUSH2 0x1F9B JUMPI PUSH1 0x40 MLOAD PUSH3 0x461BCD PUSH1 0xE5 SHL DUP2 MSTORE PUSH1 0x4 ADD PUSH2 0x50A SWAP1 PUSH2 0x3C55 JUMP JUMPDEST POP POP PUSH1 0x0 DUP3 DUP2 MSTORE PUSH1 0x1 DUP1 DUP6 ADD PUSH1 0x20 MSTORE PUSH1 0x40 SWAP1 SWAP2 KECCAK256 DUP1 DUP3 ADD DUP1 SLOAD DUP5 ISZERO ISZERO PUSH1 0x1 PUSH1 0xA0 SHL MUL PUSH1 0xFF PUSH1 0xA0 SHL NOT SWAP1 SWAP2 AND OR SWAP1 SSTORE SLOAD SWAP4 POP SWAP4 SWAP2 POP POP JUMP JUMPDEST PUSH1 0x0 ADDRESS PUSH1 0x1 PUSH1 0x1 PUSH1 0xA0 SHL SUB AND PUSH4 0xBE22465D PUSH1 0x40 MLOAD DUP2 PUSH4 0xFFFFFFFF AND PUSH1 0xE0 SHL DUP2 MSTORE PUSH1 0x4 ADD PUSH1 0x20 PUSH1 0x40 MLOAD DUP1 DUP4 SUB DUP2 DUP7 GAS STATICCALL ISZERO DUP1 ISZERO PUSH2 0x2012 JUMPI RETURNDATASIZE PUSH1 0x0 DUP1 RETURNDATACOPY RETURNDATASIZE PUSH1 0x0 REVERT JUMPDEST POP POP POP POP PUSH1 0x40 MLOAD RETURNDATASIZE PUSH1 0x1F NOT PUSH1 0x1F DUP3 ADD AND DUP3 ADD DUP1 PUSH1 0x40 MSTORE POP DUP2 ADD SWAP1 PUSH2 0x2036 SWAP2 SWAP1 PUSH2 0x3B3C JUMP JUMPDEST ISZERO PUSH2 0x2053 JUMPI PUSH1 0x40 MLOAD PUSH3 0x461BCD PUSH1 0xE5 SHL DUP2 MSTORE PUSH1 0x4 ADD PUSH2 0x50A SWAP1 PUSH2 0x3B59 JUMP JUMPDEST PUSH20 0x0 PUSH4 0x513D425A DUP7 PUSH2 0x2077 ADDRESS PUSH2 0x233E JUMP JUMPDEST PUSH1 0x40 MLOAD PUSH1 0x1 PUSH1 0x1 PUSH1 0xE0 SHL SUB NOT PUSH1 0xE0 DUP6 SWAP1 SHL AND DUP2 MSTORE PUSH2 0x20A4 SWAP3 SWAP2 SWAP1 CALLER SWAP1 PUSH4 0x4346A04B PUSH1 0xE0 SHL SWAP1 PUSH1 0x4 ADD PUSH2 0x3BF8 JUMP JUMPDEST PUSH1 0x20 PUSH1 0x40 MLOAD DUP1 DUP4 SUB DUP2 DUP7 GAS DELEGATECALL ISZERO DUP1 ISZERO PUSH2 0x20C1 JUMPI RETURNDATASIZE PUSH1 0x0 DUP1 RETURNDATACOPY RETURNDATASIZE PUSH1 0x0 REVERT JUMPDEST POP POP POP POP PUSH1 0x40 MLOAD RETURNDATASIZE PUSH1 0x1F NOT PUSH1 0x1F DUP3 ADD AND DUP3 ADD DUP1 PUSH1 0x40 MSTORE POP DUP2 ADD SWAP1 PUSH2 0x20E5 SWAP2 SWAP1 PUSH2 0x3B3C JUMP JUMPDEST PUSH2 0x2131 JUMPI PUSH1 0x40 MLOAD PUSH3 0x461BCD PUSH1 0xE5 SHL DUP2 MSTORE PUSH1 0x20 PUSH1 0x4 DUP3 ADD MSTORE PUSH1 0x1F PUSH1 0x24 DUP3 ADD MSTORE PUSH32 0x5265766F6B65436F6E74657874526F6C65204163636573732044656E69656400 PUSH1 0x44 DUP3 ADD MSTORE PUSH1 0x64 ADD PUSH2 0x50A JUMP JUMPDEST DUP4 PUSH2 0x213B ADDRESS PUSH2 0x233E JUMP JUMPDEST SUB PUSH2 0x2188 JUMPI PUSH1 0x40 MLOAD PUSH3 0x461BCD PUSH1 0xE5 SHL DUP2 MSTORE PUSH1 0x20 PUSH1 0x4 DUP3 ADD MSTORE PUSH1 0x1A PUSH1 0x24 DUP3 ADD MSTORE PUSH32 0x496C6C6567616C205265766F6B652041434C20436F6E74657874000000000000 PUSH1 0x44 DUP3 ADD MSTORE PUSH1 0x64 ADD PUSH2 0x50A JUMP JUMPDEST PUSH1 0x0 DUP5 DUP2 MSTORE PUSH1 0x1 DUP1 DUP8 ADD PUSH1 0x20 MSTORE PUSH1 0x40 SWAP1 SWAP2 KECCAK256 ADD SLOAD PUSH1 0x1 PUSH1 0x1 PUSH1 0xA0 SHL SUB AND PUSH2 0x21C1 JUMPI PUSH1 0x40 MLOAD PUSH3 0x461BCD PUSH1 0xE5 SHL DUP2 MSTORE PUSH1 0x4 ADD PUSH2 0x50A SWAP1 PUSH2 0x3C55 JUMP JUMPDEST PUSH1 0x0 DUP3 DUP2 MSTORE PUSH1 0x2 DUP7 ADD PUSH1 0x20 MSTORE PUSH1 0x40 SWAP1 KECCAK256 PUSH1 0x1 ADD DUP1 SLOAD PUSH2 0x21DF SWAP1 PUSH2 0x3D0D JUMP JUMPDEST SWAP1 POP PUSH1 0x0 SUB PUSH2 0x2200 JUMPI PUSH1 0x40 MLOAD PUSH3 0x461BCD PUSH1 0xE5 SHL DUP2 MSTORE PUSH1 0x4 ADD PUSH2 0x50A SWAP1 PUSH2 0x3D41 JUMP JUMPDEST PUSH1 0x0 DUP5 DUP2 MSTORE PUSH1 0x1 DUP7 ADD PUSH1 0x20 MSTORE PUSH1 0x40 SWAP1 KECCAK256 PUSH2 0x2227 SWAP1 PUSH1 0x3 ADD PUSH1 0x1 PUSH1 0x1 PUSH1 0xE0 SHL SUB NOT DUP6 AND PUSH2 0x2828 JUMP JUMPDEST PUSH2 0x2243 JUMPI PUSH1 0x40 MLOAD PUSH3 0x461BCD PUSH1 0xE5 SHL DUP2 MSTORE PUSH1 0x4 ADD PUSH2 0x50A SWAP1 PUSH2 0x3C80 JUMP JUMPDEST PUSH1 0x0 DUP5 DUP2 MSTORE PUSH1 0x1 DUP1 DUP8 ADD PUSH1 0x20 SWAP1 DUP2 MSTORE PUSH1 0x40 DUP1 DUP5 KECCAK256 PUSH1 0x1 PUSH1 0x1 PUSH1 0xE0 SHL SUB NOT DUP9 AND DUP6 MSTORE PUSH1 0x2 SWAP1 DUP2 ADD SWAP1 SWAP3 MSTORE SWAP1 SWAP3 KECCAK256 DUP2 ADD DUP1 SLOAD SWAP1 SWAP2 PUSH1 0xFF NOT SWAP1 SWAP2 AND SWAP1 DUP4 PUSH2 0x1236 JUMP JUMPDEST PUSH1 0x0 PUSH2 0x8AF PUSH2 0x228F PUSH2 0x3324 JUMP JUMPDEST DUP4 PUSH1 0x40 MLOAD PUSH2 0x1901 PUSH1 0xF0 SHL PUSH1 0x20 DUP3 ADD MSTORE PUSH1 0x22 DUP2 ADD DUP4 SWAP1 MSTORE PUSH1 0x42 DUP2 ADD DUP3 SWAP1 MSTORE PUSH1 0x0 SWAP1 PUSH1 0x62 ADD PUSH1 0x40 MLOAD PUSH1 0x20 DUP2 DUP4 SUB SUB DUP2 MSTORE SWAP1 PUSH1 0x40 MSTORE DUP1 MLOAD SWAP1 PUSH1 0x20 ADD KECCAK256 SWAP1 POP SWAP3 SWAP2 POP POP JUMP JUMPDEST PUSH1 0x0 DUP1 DUP3 MLOAD PUSH1 0x41 SUB PUSH2 0x2306 JUMPI PUSH1 0x20 DUP4 ADD MLOAD PUSH1 0x40 DUP5 ADD MLOAD PUSH1 0x60 DUP6 ADD MLOAD PUSH1 0x0 BYTE PUSH2 0x22FA DUP8 DUP3 DUP6 DUP6 PUSH2 0x344C JUMP JUMPDEST SWAP5 POP SWAP5 POP POP POP POP PUSH2 0x2337 JUMP JUMPDEST DUP3 MLOAD PUSH1 0x40 SUB PUSH2 0x232F JUMPI PUSH1 0x20 DUP4 ADD MLOAD PUSH1 0x40 DUP5 ADD MLOAD PUSH2 0x2324 DUP7 DUP4 DUP4 PUSH2 0x3536 JUMP JUMPDEST SWAP4 POP SWAP4 POP POP POP PUSH2 0x2337 JUMP JUMPDEST POP PUSH1 0x0 SWAP1 POP PUSH1 0x2 JUMPDEST SWAP3 POP SWAP3 SWAP1 POP JUMP JUMPDEST PUSH1 0x40 MLOAD PUSH12 0xFFFFFFFFFFFFFFFFFFFFFFFF NOT PUSH1 0x60 DUP4 SWAP1 SHL AND PUSH1 0x20 DUP3 ADD MSTORE PUSH1 0x0 SWAP1 PUSH1 0x34 ADD PUSH1 0x40 MLOAD PUSH1 0x20 DUP2 DUP4 SUB SUB DUP2 MSTORE SWAP1 PUSH1 0x40 MSTORE DUP1 MLOAD SWAP1 PUSH1 0x20 ADD KECCAK256 SWAP1 POP SWAP2 SWAP1 POP JUMP JUMPDEST PUSH1 0x40 DUP1 DUP3 ADD CALLDATALOAD PUSH1 0x0 SWAP1 DUP2 MSTORE PUSH1 0x3 DUP7 ADD PUSH1 0x20 MSTORE SWAP1 DUP2 KECCAK256 DUP1 SLOAD DUP3 SWAP2 SWAP1 PUSH2 0x23A0 SWAP1 PUSH2 0x3D0D JUMP JUMPDEST SWAP1 POP PUSH1 0x0 SUB PUSH2 0x23C1 JUMPI PUSH1 0x40 MLOAD PUSH3 0x461BCD PUSH1 0xE5 SHL DUP2 MSTORE PUSH1 0x4 ADD PUSH2 0x50A SWAP1 PUSH2 0x3D82 JUMP JUMPDEST PUSH1 0x0 PUSH2 0x2454 PUSH1 0x60 DUP6 ADD CALLDATALOAD PUSH2 0x23DB PUSH1 0xC0 DUP8 ADD PUSH1 0xA0 DUP9 ADD PUSH2 0x3B90 JUMP JUMPDEST PUSH2 0x23EB PUSH1 0xA0 DUP9 ADD PUSH1 0x80 DUP10 ADD PUSH2 0x3B90 JUMP JUMPDEST PUSH1 0x1 PUSH1 0x1 PUSH1 0xA0 SHL SUB AND SWAP2 SWAP1 PUSH1 0x40 MLOAD PUSH20 0x3D602D80600A3D3981F3363D3D373D3D3D363D73 PUSH1 0x60 SHL DUP2 MSTORE PUSH1 0x60 SWAP4 DUP5 SHL PUSH1 0x14 DUP3 ADD MSTORE PUSH16 0x5AF43D82803E903D91602B57FD5BF3FF PUSH1 0x80 SHL PUSH1 0x28 DUP3 ADD MSTORE SWAP3 SHL PUSH1 0x38 DUP4 ADD MSTORE PUSH1 0x4C DUP3 ADD MSTORE PUSH1 0x37 DUP1 DUP3 KECCAK256 PUSH1 0x6C DUP4 ADD MSTORE PUSH1 0x55 SWAP2 ADD KECCAK256 SWAP1 JUMP JUMPDEST SWAP1 POP PUSH1 0x0 PUSH2 0x2461 DUP3 PUSH2 0x233E JUMP JUMPDEST PUSH1 0x0 DUP2 DUP2 MSTORE PUSH1 0x1 DUP1 DUP12 ADD PUSH1 0x20 MSTORE PUSH1 0x40 SWAP1 SWAP2 KECCAK256 ADD SLOAD SWAP1 SWAP2 POP PUSH1 0x1 PUSH1 0x1 PUSH1 0xA0 SHL SUB AND ISZERO PUSH2 0x24CE JUMPI PUSH1 0x40 MLOAD PUSH3 0x461BCD PUSH1 0xE5 SHL DUP2 MSTORE PUSH1 0x20 PUSH1 0x4 DUP3 ADD MSTORE PUSH1 0x1A PUSH1 0x24 DUP3 ADD MSTORE PUSH32 0x436F6E7465787420416C72656164792052656769737465726564000000000000 PUSH1 0x44 DUP3 ADD MSTORE PUSH1 0x64 ADD PUSH2 0x50A JUMP JUMPDEST PUSH1 0x40 DUP1 DUP7 ADD CALLDATALOAD PUSH1 0x0 SWAP1 DUP2 MSTORE PUSH1 0x3 DUP11 ADD PUSH1 0x20 MSTORE KECCAK256 PUSH2 0x24EE SWAP1 PUSH1 0x2 ADD DUP3 PUSH2 0x2BED JUMP JUMPDEST POP PUSH1 0x0 DUP2 DUP2 MSTORE PUSH1 0x1 DUP10 DUP2 ADD PUSH1 0x20 MSTORE PUSH1 0x40 SWAP2 DUP3 SWAP1 KECCAK256 SWAP2 DUP8 ADD CALLDATALOAD DUP3 SSTORE DUP2 ADD DUP1 SLOAD PUSH1 0x1 PUSH1 0x1 PUSH1 0xA0 SHL SUB NOT AND PUSH1 0x1 PUSH1 0x1 PUSH1 0xA0 SHL SUB DUP6 AND OR SWAP1 SSTORE PUSH2 0x2533 PUSH1 0xE0 DUP8 ADD PUSH1 0xC0 DUP9 ADD PUSH2 0x3CF0 JUMP JUMPDEST PUSH1 0x1 DUP3 ADD DUP1 SLOAD SWAP2 ISZERO ISZERO PUSH1 0x1 PUSH1 0xA0 SHL MUL PUSH1 0xFF PUSH1 0xA0 SHL NOT SWAP1 SWAP3 AND SWAP2 SWAP1 SWAP2 OR SWAP1 SSTORE PUSH1 0x0 JUMPDEST DUP8 DUP2 LT ISZERO PUSH2 0x2817 JUMPI DUP10 PUSH1 0x2 ADD PUSH1 0x0 DUP11 DUP11 DUP5 DUP2 DUP2 LT PUSH2 0x2574 JUMPI PUSH2 0x2574 PUSH2 0x3CB7 JUMP JUMPDEST SWAP1 POP PUSH1 0x20 MUL DUP2 ADD SWAP1 PUSH2 0x2586 SWAP2 SWAP1 PUSH2 0x3DAB JUMP JUMPDEST PUSH1 0x0 ADD CALLDATALOAD DUP2 MSTORE PUSH1 0x20 ADD SWAP1 DUP2 MSTORE PUSH1 0x20 ADD PUSH1 0x0 KECCAK256 PUSH1 0x1 ADD DUP1 SLOAD PUSH2 0x25A6 SWAP1 PUSH2 0x3D0D JUMP JUMPDEST SWAP1 POP PUSH1 0x0 SUB PUSH2 0x25C7 JUMPI PUSH1 0x40 MLOAD PUSH3 0x461BCD PUSH1 0xE5 SHL DUP2 MSTORE PUSH1 0x4 ADD PUSH2 0x50A SWAP1 PUSH2 0x3D41 JUMP JUMPDEST PUSH1 0x0 JUMPDEST DUP10 DUP10 DUP4 DUP2 DUP2 LT PUSH2 0x25DC JUMPI PUSH2 0x25DC PUSH2 0x3CB7 JUMP JUMPDEST SWAP1 POP PUSH1 0x20 MUL DUP2 ADD SWAP1 PUSH2 0x25EE SWAP2 SWAP1 PUSH2 0x3DAB JUMP JUMPDEST PUSH2 0x25FC SWAP1 PUSH1 0x20 DUP2 ADD SWAP1 PUSH2 0x3DCB JUMP JUMPDEST SWAP1 POP DUP2 LT ISZERO PUSH2 0x2804 JUMPI DUP10 DUP10 DUP4 DUP2 DUP2 LT PUSH2 0x2617 JUMPI PUSH2 0x2617 PUSH2 0x3CB7 JUMP JUMPDEST SWAP1 POP PUSH1 0x20 MUL DUP2 ADD SWAP1 PUSH2 0x2629 SWAP2 SWAP1 PUSH2 0x3DAB JUMP JUMPDEST CALLDATALOAD PUSH1 0x2 DUP5 ADD PUSH1 0x0 DUP13 DUP13 DUP7 DUP2 DUP2 LT PUSH2 0x2642 JUMPI PUSH2 0x2642 PUSH2 0x3CB7 JUMP JUMPDEST SWAP1 POP PUSH1 0x20 MUL DUP2 ADD SWAP1 PUSH2 0x2654 SWAP2 SWAP1 PUSH2 0x3DAB JUMP JUMPDEST PUSH2 0x2662 SWAP1 PUSH1 0x20 DUP2 ADD SWAP1 PUSH2 0x3DCB JUMP JUMPDEST DUP6 DUP2 DUP2 LT PUSH2 0x2672 JUMPI PUSH2 0x2672 PUSH2 0x3CB7 JUMP JUMPDEST SWAP1 POP PUSH1 0x20 MUL ADD PUSH1 0x20 DUP2 ADD SWAP1 PUSH2 0x2687 SWAP2 SWAP1 PUSH2 0x3E15 JUMP JUMPDEST PUSH1 0x1 PUSH1 0x1 PUSH1 0xE0 SHL SUB NOT AND DUP2 MSTORE PUSH1 0x20 DUP2 ADD SWAP2 SWAP1 SWAP2 MSTORE PUSH1 0x40 ADD PUSH1 0x0 KECCAK256 SSTORE DUP10 DUP10 DUP4 DUP2 DUP2 LT PUSH2 0x26B4 JUMPI PUSH2 0x26B4 PUSH2 0x3CB7 JUMP JUMPDEST SWAP1 POP PUSH1 0x20 MUL DUP2 ADD SWAP1 PUSH2 0x26C6 SWAP2 SWAP1 PUSH2 0x3DAB JUMP JUMPDEST PUSH2 0x26D7 SWAP1 PUSH1 0x60 DUP2 ADD SWAP1 PUSH1 0x40 ADD PUSH2 0x3CF0 JUMP JUMPDEST PUSH2 0x26E2 JUMPI PUSH1 0x2 PUSH2 0x26E5 JUMP JUMPDEST PUSH1 0x1 JUMPDEST DUP4 PUSH1 0x2 ADD PUSH1 0x0 DUP13 DUP13 DUP7 DUP2 DUP2 LT PUSH2 0x26FD JUMPI PUSH2 0x26FD PUSH2 0x3CB7 JUMP JUMPDEST SWAP1 POP PUSH1 0x20 MUL DUP2 ADD SWAP1 PUSH2 0x270F SWAP2 SWAP1 PUSH2 0x3DAB JUMP JUMPDEST PUSH2 0x271D SWAP1 PUSH1 0x20 DUP2 ADD SWAP1 PUSH2 0x3DCB JUMP JUMPDEST DUP6 DUP2 DUP2 LT PUSH2 0x272D JUMPI PUSH2 0x272D PUSH2 0x3CB7 JUMP JUMPDEST SWAP1 POP PUSH1 0x20 MUL ADD PUSH1 0x20 DUP2 ADD SWAP1 PUSH2 0x2742 SWAP2 SWAP1 PUSH2 0x3E15 JUMP JUMPDEST PUSH1 0x1 PUSH1 0x1 PUSH1 0xE0 SHL SUB NOT AND DUP2 MSTORE PUSH1 0x20 DUP2 ADD SWAP2 SWAP1 SWAP2 MSTORE PUSH1 0x40 ADD PUSH1 0x0 KECCAK256 PUSH1 0x1 SWAP1 DUP2 ADD DUP1 SLOAD SWAP1 SWAP2 PUSH1 0xFF NOT SWAP1 SWAP2 AND SWAP1 DUP4 PUSH1 0x2 DUP2 GT ISZERO PUSH2 0x277E JUMPI PUSH2 0x277E PUSH2 0x3BAB JUMP JUMPDEST MUL OR SWAP1 SSTORE POP PUSH2 0x27F1 DUP11 DUP11 DUP5 DUP2 DUP2 LT PUSH2 0x2798 JUMPI PUSH2 0x2798 PUSH2 0x3CB7 JUMP JUMPDEST SWAP1 POP PUSH1 0x20 MUL DUP2 ADD SWAP1 PUSH2 0x27AA SWAP2 SWAP1 PUSH2 0x3DAB JUMP JUMPDEST PUSH2 0x27B8 SWAP1 PUSH1 0x20 DUP2 ADD SWAP1 PUSH2 0x3DCB JUMP JUMPDEST DUP4 DUP2 DUP2 LT PUSH2 0x27C8 JUMPI PUSH2 0x27C8 PUSH2 0x3CB7 JUMP JUMPDEST SWAP1 POP PUSH1 0x20 MUL ADD PUSH1 0x20 DUP2 ADD SWAP1 PUSH2 0x27DD SWAP2 SWAP1 PUSH2 0x3E15 JUMP JUMPDEST PUSH1 0x3 DUP6 ADD SWAP1 PUSH1 0x1 PUSH1 0x1 PUSH1 0xE0 SHL SUB NOT AND PUSH2 0x2BED JUMP JUMPDEST POP DUP1 PUSH2 0x27FC DUP2 PUSH2 0x3E30 JUMP JUMPDEST SWAP2 POP POP PUSH2 0x25CA JUMP JUMPDEST POP DUP1 PUSH2 0x280F DUP2 PUSH2 0x3E30 JUMP JUMPDEST SWAP2 POP POP PUSH2 0x2554 JUMP JUMPDEST POP SWAP2 SWAP4 POP SWAP2 POP POP JUMPDEST SWAP5 POP SWAP5 SWAP3 POP POP POP JUMP JUMPDEST PUSH1 0x0 DUP2 DUP2 MSTORE PUSH1 0x1 DUP4 ADD PUSH1 0x20 MSTORE PUSH1 0x40 DUP2 KECCAK256 SLOAD ISZERO ISZERO JUMPDEST SWAP4 SWAP3 POP POP POP JUMP JUMPDEST PUSH1 0x0 PUSH2 0x283C DUP4 DUP4 PUSH2 0x356F JUMP JUMPDEST PUSH1 0x0 PUSH2 0x8AF DUP3 SLOAD SWAP1 JUMP JUMPDEST PUSH1 0x0 PUSH2 0x283C DUP4 DUP4 PUSH2 0x3662 JUMP JUMPDEST PUSH1 0x0 DUP5 DUP2 MSTORE PUSH1 0x3 DUP8 ADD PUSH1 0x20 MSTORE PUSH1 0x40 DUP2 KECCAK256 DUP1 SLOAD PUSH2 0x2880 SWAP1 PUSH2 0x3D0D JUMP JUMPDEST SWAP1 POP PUSH1 0x0 SUB PUSH2 0x28A1 JUMPI PUSH1 0x40 MLOAD PUSH3 0x461BCD PUSH1 0xE5 SHL DUP2 MSTORE PUSH1 0x4 ADD PUSH2 0x50A SWAP1 PUSH2 0x3D82 JUMP JUMPDEST PUSH1 0x0 PUSH2 0x28AC DUP8 PUSH2 0x233E JUMP JUMPDEST PUSH1 0x0 DUP2 DUP2 MSTORE PUSH1 0x1 DUP1 DUP12 ADD PUSH1 0x20 MSTORE PUSH1 0x40 SWAP1 SWAP2 KECCAK256 ADD SLOAD SWAP1 SWAP2 POP PUSH1 0x1 PUSH1 0x1 PUSH1 0xA0 SHL SUB AND ISZERO PUSH2 0x2919 JUMPI PUSH1 0x40 MLOAD PUSH3 0x461BCD PUSH1 0xE5 SHL DUP2 MSTORE PUSH1 0x20 PUSH1 0x4 DUP3 ADD MSTORE PUSH1 0x1A PUSH1 0x24 DUP3 ADD MSTORE PUSH32 0x436F6E7465787420416C72656164792052656769737465726564000000000000 PUSH1 0x44 DUP3 ADD MSTORE PUSH1 0x64 ADD PUSH2 0x50A JUMP JUMPDEST PUSH1 0x0 DUP7 DUP2 MSTORE PUSH1 0x3 DUP10 ADD PUSH1 0x20 MSTORE PUSH1 0x40 SWAP1 KECCAK256 PUSH2 0x2936 SWAP1 PUSH1 0x2 ADD DUP3 PUSH2 0x2BED JUMP JUMPDEST POP PUSH1 0x0 DUP2 DUP2 MSTORE PUSH1 0x1 DUP1 DUP11 ADD PUSH1 0x20 MSTORE PUSH1 0x40 DUP3 KECCAK256 DUP9 DUP2 SSTORE SWAP1 DUP2 ADD DUP1 SLOAD DUP9 ISZERO ISZERO PUSH1 0x1 PUSH1 0xA0 SHL MUL PUSH1 0x1 PUSH1 0x1 PUSH1 0xA8 SHL SUB NOT SWAP1 SWAP2 AND PUSH1 0x1 PUSH1 0x1 PUSH1 0xA0 SHL SUB DUP13 AND OR OR SWAP1 SSTORE SWAP1 JUMPDEST DUP5 DUP2 LT ISZERO PUSH2 0x2BDF JUMPI DUP10 PUSH1 0x2 ADD PUSH1 0x0 DUP8 DUP8 DUP5 DUP2 DUP2 LT PUSH2 0x2995 JUMPI PUSH2 0x2995 PUSH2 0x3CB7 JUMP JUMPDEST SWAP1 POP PUSH1 0x20 MUL DUP2 ADD SWAP1 PUSH2 0x29A7 SWAP2 SWAP1 PUSH2 0x3DAB JUMP JUMPDEST PUSH1 0x0 ADD CALLDATALOAD DUP2 MSTORE PUSH1 0x20 ADD SWAP1 DUP2 MSTORE PUSH1 0x20 ADD PUSH1 0x0 KECCAK256 PUSH1 0x1 ADD DUP1 SLOAD PUSH2 0x29C7 SWAP1 PUSH2 0x3D0D JUMP JUMPDEST SWAP1 POP PUSH1 0x0 SUB PUSH2 0x29E8 JUMPI PUSH1 0x40 MLOAD PUSH3 0x461BCD PUSH1 0xE5 SHL DUP2 MSTORE PUSH1 0x4 ADD PUSH2 0x50A SWAP1 PUSH2 0x3D41 JUMP JUMPDEST PUSH1 0x0 JUMPDEST DUP7 DUP7 DUP4 DUP2 DUP2 LT PUSH2 0x29FD JUMPI PUSH2 0x29FD PUSH2 0x3CB7 JUMP JUMPDEST SWAP1 POP PUSH1 0x20 MUL DUP2 ADD SWAP1 PUSH2 0x2A0F SWAP2 SWAP1 PUSH2 0x3DAB JUMP JUMPDEST PUSH2 0x2A1D SWAP1 PUSH1 0x20 DUP2 ADD SWAP1 PUSH2 0x3DCB JUMP JUMPDEST SWAP1 POP DUP2 LT ISZERO PUSH2 0x2BCC JUMPI DUP7 DUP7 DUP4 DUP2 DUP2 LT PUSH2 0x2A38 JUMPI PUSH2 0x2A38 PUSH2 0x3CB7 JUMP JUMPDEST SWAP1 POP PUSH1 0x20 MUL DUP2 ADD SWAP1 PUSH2 0x2A4A SWAP2 SWAP1 PUSH2 0x3DAB JUMP JUMPDEST CALLDATALOAD PUSH1 0x2 DUP5 ADD PUSH1 0x0 DUP10 DUP10 DUP7 DUP2 DUP2 LT PUSH2 0x2A63 JUMPI PUSH2 0x2A63 PUSH2 0x3CB7 JUMP JUMPDEST SWAP1 POP PUSH1 0x20 MUL DUP2 ADD SWAP1 PUSH2 0x2A75 SWAP2 SWAP1 PUSH2 0x3DAB JUMP JUMPDEST PUSH2 0x2A83 SWAP1 PUSH1 0x20 DUP2 ADD SWAP1 PUSH2 0x3DCB JUMP JUMPDEST DUP6 DUP2 DUP2 LT PUSH2 0x2A93 JUMPI PUSH2 0x2A93 PUSH2 0x3CB7 JUMP JUMPDEST SWAP1 POP PUSH1 0x20 MUL ADD PUSH1 0x20 DUP2 ADD SWAP1 PUSH2 0x2AA8 SWAP2 SWAP1 PUSH2 0x3E15 JUMP JUMPDEST PUSH1 0x1 PUSH1 0x1 PUSH1 0xE0 SHL SUB NOT AND DUP2 MSTORE PUSH1 0x20 DUP2 ADD SWAP2 SWAP1 SWAP2 MSTORE PUSH1 0x40 ADD PUSH1 0x0 KECCAK256 SSTORE DUP7 DUP7 DUP4 DUP2 DUP2 LT PUSH2 0x2AD5 JUMPI PUSH2 0x2AD5 PUSH2 0x3CB7 JUMP JUMPDEST SWAP1 POP PUSH1 0x20 MUL DUP2 ADD SWAP1 PUSH2 0x2AE7 SWAP2 SWAP1 PUSH2 0x3DAB JUMP JUMPDEST PUSH2 0x2AF8 SWAP1 PUSH1 0x60 DUP2 ADD SWAP1 PUSH1 0x40 ADD PUSH2 0x3CF0 JUMP JUMPDEST PUSH2 0x2B03 JUMPI PUSH1 0x2 PUSH2 0x2B06 JUMP JUMPDEST PUSH1 0x1 JUMPDEST DUP4 PUSH1 0x2 ADD PUSH1 0x0 DUP10 DUP10 DUP7 DUP2 DUP2 LT PUSH2 0x2B1E JUMPI PUSH2 0x2B1E PUSH2 0x3CB7 JUMP JUMPDEST SWAP1 POP PUSH1 0x20 MUL DUP2 ADD SWAP1 PUSH2 0x2B30 SWAP2 SWAP1 PUSH2 0x3DAB JUMP JUMPDEST PUSH2 0x2B3E SWAP1 PUSH1 0x20 DUP2 ADD SWAP1 PUSH2 0x3DCB JUMP JUMPDEST DUP6 DUP2 DUP2 LT PUSH2 0x2B4E JUMPI PUSH2 0x2B4E PUSH2 0x3CB7 JUMP JUMPDEST SWAP1 POP PUSH1 0x20 MUL ADD PUSH1 0x20 DUP2 ADD SWAP1 PUSH2 0x2B63 SWAP2 SWAP1 PUSH2 0x3E15 JUMP JUMPDEST PUSH1 0x1 PUSH1 0x1 PUSH1 0xE0 SHL SUB NOT AND DUP2 MSTORE PUSH1 0x20 DUP2 ADD SWAP2 SWAP1 SWAP2 MSTORE PUSH1 0x40 ADD PUSH1 0x0 KECCAK256 PUSH1 0x1 SWAP1 DUP2 ADD DUP1 SLOAD SWAP1 SWAP2 PUSH1 0xFF NOT SWAP1 SWAP2 AND SWAP1 DUP4 PUSH1 0x2 DUP2 GT ISZERO PUSH2 0x2B9F JUMPI PUSH2 0x2B9F PUSH2 0x3BAB JUMP JUMPDEST MUL OR SWAP1 SSTORE POP PUSH2 0x2BB9 DUP8 DUP8 DUP5 DUP2 DUP2 LT PUSH2 0x2798 JUMPI PUSH2 0x2798 PUSH2 0x3CB7 JUMP JUMPDEST POP DUP1 PUSH2 0x2BC4 DUP2 PUSH2 0x3E30 JUMP JUMPDEST SWAP2 POP POP PUSH2 0x29EB JUMP JUMPDEST POP DUP1 PUSH2 0x2BD7 DUP2 PUSH2 0x3E30 JUMP JUMPDEST SWAP2 POP POP PUSH2 0x2975 JUMP JUMPDEST POP SWAP1 SWAP9 SWAP8 POP POP POP POP POP POP POP POP JUMP JUMPDEST PUSH1 0x0 PUSH2 0x283C DUP4 DUP4 PUSH2 0x368C JUMP JUMPDEST PUSH1 0x0 DUP6 DUP2 MSTORE PUSH1 0x1 DUP1 DUP9 ADD PUSH1 0x20 MSTORE PUSH1 0x40 DUP3 KECCAK256 ADD SLOAD PUSH1 0x1 PUSH1 0x1 PUSH1 0xA0 SHL SUB AND DUP1 PUSH2 0x2C32 JUMPI PUSH1 0x40 MLOAD PUSH3 0x461BCD PUSH1 0xE5 SHL DUP2 MSTORE PUSH1 0x4 ADD PUSH2 0x50A SWAP1 PUSH2 0x3C55 JUMP JUMPDEST PUSH1 0x1 PUSH1 0x1 PUSH1 0xA0 SHL SUB DUP2 AND CALLER EQ PUSH2 0x2C8A JUMPI PUSH1 0x40 MLOAD PUSH3 0x461BCD PUSH1 0xE5 SHL DUP2 MSTORE PUSH1 0x20 PUSH1 0x4 DUP3 ADD MSTORE PUSH1 0x18 PUSH1 0x24 DUP3 ADD MSTORE PUSH32 0x55706461746520436F6E7465787420466F7262696464656E0000000000000000 PUSH1 0x44 DUP3 ADD MSTORE PUSH1 0x64 ADD PUSH2 0x50A JUMP JUMPDEST PUSH1 0x0 DUP7 DUP2 MSTORE PUSH1 0x3 DUP10 ADD PUSH1 0x20 MSTORE PUSH1 0x40 SWAP1 KECCAK256 DUP1 SLOAD PUSH2 0x2CA5 SWAP1 PUSH2 0x3D0D JUMP JUMPDEST SWAP1 POP PUSH1 0x0 SUB PUSH2 0x2CC6 JUMPI PUSH1 0x40 MLOAD PUSH3 0x461BCD PUSH1 0xE5 SHL DUP2 MSTORE PUSH1 0x4 ADD PUSH2 0x50A SWAP1 PUSH2 0x3D82 JUMP JUMPDEST PUSH1 0x0 DUP8 DUP2 MSTORE PUSH1 0x1 DUP10 DUP2 ADD PUSH1 0x20 MSTORE PUSH1 0x40 SWAP1 SWAP2 KECCAK256 SWAP1 DUP2 ADD DUP1 SLOAD PUSH1 0xFF PUSH1 0xA0 SHL NOT AND PUSH1 0x1 PUSH1 0xA0 SHL DUP9 ISZERO ISZERO MUL OR SWAP1 SSTORE SLOAD DUP7 EQ PUSH2 0x2D43 JUMPI PUSH1 0x0 DUP8 DUP2 MSTORE PUSH1 0x1 DUP10 ADD PUSH1 0x20 SWAP1 DUP2 MSTORE PUSH1 0x40 DUP1 DUP4 KECCAK256 SLOAD DUP4 MSTORE PUSH1 0x3 DUP12 ADD SWAP1 SWAP2 MSTORE SWAP1 KECCAK256 PUSH2 0x2D23 SWAP1 PUSH1 0x2 ADD DUP9 PUSH2 0x2843 JUMP JUMPDEST POP PUSH1 0x0 DUP7 DUP2 MSTORE PUSH1 0x3 DUP10 ADD PUSH1 0x20 MSTORE PUSH1 0x40 SWAP1 KECCAK256 PUSH2 0x2D41 SWAP1 PUSH1 0x2 ADD DUP9 PUSH2 0x2BED JUMP JUMPDEST POP JUMPDEST PUSH1 0x0 DUP8 DUP2 MSTORE PUSH1 0x1 DUP10 ADD PUSH1 0x20 MSTORE PUSH1 0x40 DUP2 KECCAK256 DUP8 SWAP1 SSTORE JUMPDEST DUP4 DUP2 LT ISZERO PUSH2 0x3318 JUMPI DUP9 PUSH1 0x2 ADD PUSH1 0x0 DUP7 DUP7 DUP5 DUP2 DUP2 LT PUSH2 0x2D77 JUMPI PUSH2 0x2D77 PUSH2 0x3CB7 JUMP JUMPDEST SWAP1 POP PUSH1 0x20 MUL DUP2 ADD SWAP1 PUSH2 0x2D89 SWAP2 SWAP1 PUSH2 0x3DAB JUMP JUMPDEST PUSH1 0x0 ADD CALLDATALOAD DUP2 MSTORE PUSH1 0x20 ADD SWAP1 DUP2 MSTORE PUSH1 0x20 ADD PUSH1 0x0 KECCAK256 PUSH1 0x1 ADD DUP1 SLOAD PUSH2 0x2DA9 SWAP1 PUSH2 0x3D0D JUMP JUMPDEST SWAP1 POP PUSH1 0x0 SUB PUSH2 0x2DCA JUMPI PUSH1 0x40 MLOAD PUSH3 0x461BCD PUSH1 0xE5 SHL DUP2 MSTORE PUSH1 0x4 ADD PUSH2 0x50A SWAP1 PUSH2 0x3D41 JUMP JUMPDEST PUSH1 0x0 JUMPDEST DUP6 DUP6 DUP4 DUP2 DUP2 LT PUSH2 0x2DDF JUMPI PUSH2 0x2DDF PUSH2 0x3CB7 JUMP JUMPDEST SWAP1 POP PUSH1 0x20 MUL DUP2 ADD SWAP1 PUSH2 0x2DF1 SWAP2 SWAP1 PUSH2 0x3DAB JUMP JUMPDEST PUSH2 0x2DFF SWAP1 PUSH1 0x20 DUP2 ADD SWAP1 PUSH2 0x3DCB JUMP JUMPDEST SWAP1 POP DUP2 LT ISZERO PUSH2 0x3305 JUMPI PUSH1 0x1 DUP7 DUP7 DUP5 DUP2 DUP2 LT PUSH2 0x2E1C JUMPI PUSH2 0x2E1C PUSH2 0x3CB7 JUMP JUMPDEST SWAP1 POP PUSH1 0x20 MUL DUP2 ADD SWAP1 PUSH2 0x2E2E SWAP2 SWAP1 PUSH2 0x3DAB JUMP JUMPDEST PUSH2 0x2E3F SWAP1 PUSH1 0x60 DUP2 ADD SWAP1 PUSH1 0x40 ADD PUSH2 0x3E49 JUMP JUMPDEST PUSH1 0x2 DUP2 GT ISZERO PUSH2 0x2E50 JUMPI PUSH2 0x2E50 PUSH2 0x3BAB JUMP JUMPDEST EQ DUP1 PUSH2 0x2EA1 JUMPI POP PUSH1 0x0 DUP7 DUP7 DUP5 DUP2 DUP2 LT PUSH2 0x2E6B JUMPI PUSH2 0x2E6B PUSH2 0x3CB7 JUMP JUMPDEST SWAP1 POP PUSH1 0x20 MUL DUP2 ADD SWAP1 PUSH2 0x2E7D SWAP2 SWAP1 PUSH2 0x3DAB JUMP JUMPDEST PUSH2 0x2E8E SWAP1 PUSH1 0x60 DUP2 ADD SWAP1 PUSH1 0x40 ADD PUSH2 0x3E49 JUMP JUMPDEST PUSH1 0x2 DUP2 GT ISZERO PUSH2 0x2E9F JUMPI PUSH2 0x2E9F PUSH2 0x3BAB JUMP JUMPDEST EQ JUMPDEST ISZERO PUSH2 0x315B JUMPI DUP6 DUP6 DUP4 DUP2 DUP2 LT PUSH2 0x2EB8 JUMPI PUSH2 0x2EB8 PUSH2 0x3CB7 JUMP JUMPDEST SWAP1 POP PUSH1 0x20 MUL DUP2 ADD SWAP1 PUSH2 0x2ECA SWAP2 SWAP1 PUSH2 0x3DAB JUMP JUMPDEST PUSH1 0x0 DUP11 DUP2 MSTORE PUSH1 0x1 DUP13 ADD PUSH1 0x20 MSTORE PUSH1 0x40 DUP2 KECCAK256 SWAP2 CALLDATALOAD SWAP2 PUSH1 0x2 ADD SWAP1 DUP9 DUP9 DUP7 DUP2 DUP2 LT PUSH2 0x2EF3 JUMPI PUSH2 0x2EF3 PUSH2 0x3CB7 JUMP JUMPDEST SWAP1 POP PUSH1 0x20 MUL DUP2 ADD SWAP1 PUSH2 0x2F05 SWAP2 SWAP1 PUSH2 0x3DAB JUMP JUMPDEST PUSH2 0x2F13 SWAP1 PUSH1 0x20 DUP2 ADD SWAP1 PUSH2 0x3DCB JUMP JUMPDEST DUP6 DUP2 DUP2 LT PUSH2 0x2F23 JUMPI PUSH2 0x2F23 PUSH2 0x3CB7 JUMP JUMPDEST SWAP1 POP PUSH1 0x20 MUL ADD PUSH1 0x20 DUP2 ADD SWAP1 PUSH2 0x2F38 SWAP2 SWAP1 PUSH2 0x3E15 JUMP JUMPDEST PUSH1 0x1 PUSH1 0x1 PUSH1 0xE0 SHL SUB NOT AND DUP2 MSTORE PUSH1 0x20 DUP2 ADD SWAP2 SWAP1 SWAP2 MSTORE PUSH1 0x40 ADD PUSH1 0x0 KECCAK256 SSTORE PUSH1 0x1 DUP7 DUP7 DUP5 DUP2 DUP2 LT PUSH2 0x2F67 JUMPI PUSH2 0x2F67 PUSH2 0x3CB7 JUMP JUMPDEST SWAP1 POP PUSH1 0x20 MUL DUP2 ADD SWAP1 PUSH2 0x2F79 SWAP2 SWAP1 PUSH2 0x3DAB JUMP JUMPDEST PUSH2 0x2F8A SWAP1 PUSH1 0x60 DUP2 ADD SWAP1 PUSH1 0x40 ADD PUSH2 0x3E49 JUMP JUMPDEST PUSH1 0x2 DUP2 GT ISZERO PUSH2 0x2F9B JUMPI PUSH2 0x2F9B PUSH2 0x3BAB JUMP JUMPDEST EQ PUSH2 0x2FA7 JUMPI PUSH1 0x2 PUSH2 0x2FAA JUMP JUMPDEST PUSH1 0x1 JUMPDEST PUSH1 0x0 DUP11 DUP2 MSTORE PUSH1 0x1 DUP13 ADD PUSH1 0x20 MSTORE PUSH1 0x40 DUP2 KECCAK256 PUSH1 0x2 ADD SWAP1 DUP9 DUP9 DUP7 DUP2 DUP2 LT PUSH2 0x2FD0 JUMPI PUSH2 0x2FD0 PUSH2 0x3CB7 JUMP JUMPDEST SWAP1 POP PUSH1 0x20 MUL DUP2 ADD SWAP1 PUSH2 0x2FE2 SWAP2 SWAP1 PUSH2 0x3DAB JUMP JUMPDEST PUSH2 0x2FF0 SWAP1 PUSH1 0x20 DUP2 ADD SWAP1 PUSH2 0x3DCB JUMP JUMPDEST DUP6 DUP2 DUP2 LT PUSH2 0x3000 JUMPI PUSH2 0x3000 PUSH2 0x3CB7 JUMP JUMPDEST SWAP1 POP PUSH1 0x20 MUL ADD PUSH1 0x20 DUP2 ADD SWAP1 PUSH2 0x3015 SWAP2 SWAP1 PUSH2 0x3E15 JUMP JUMPDEST PUSH1 0x1 PUSH1 0x1 PUSH1 0xE0 SHL SUB NOT AND DUP2 MSTORE PUSH1 0x20 DUP2 ADD SWAP2 SWAP1 SWAP2 MSTORE PUSH1 0x40 ADD PUSH1 0x0 KECCAK256 PUSH1 0x1 SWAP1 DUP2 ADD DUP1 SLOAD SWAP1 SWAP2 PUSH1 0xFF NOT SWAP1 SWAP2 AND SWAP1 DUP4 PUSH1 0x2 DUP2 GT ISZERO PUSH2 0x3051 JUMPI PUSH2 0x3051 PUSH2 0x3BAB JUMP JUMPDEST MUL OR SWAP1 SSTORE POP PUSH2 0x30D3 DUP7 DUP7 DUP5 DUP2 DUP2 LT PUSH2 0x306B JUMPI PUSH2 0x306B PUSH2 0x3CB7 JUMP JUMPDEST SWAP1 POP PUSH1 0x20 MUL DUP2 ADD SWAP1 PUSH2 0x307D SWAP2 SWAP1 PUSH2 0x3DAB JUMP JUMPDEST PUSH2 0x308B SWAP1 PUSH1 0x20 DUP2 ADD SWAP1 PUSH2 0x3DCB JUMP JUMPDEST DUP4 DUP2 DUP2 LT PUSH2 0x309B JUMPI PUSH2 0x309B PUSH2 0x3CB7 JUMP JUMPDEST SWAP1 POP PUSH1 0x20 MUL ADD PUSH1 0x20 DUP2 ADD SWAP1 PUSH2 0x30B0 SWAP2 SWAP1 PUSH2 0x3E15 JUMP JUMPDEST PUSH1 0x0 DUP12 DUP2 MSTORE PUSH1 0x1 DUP14 ADD PUSH1 0x20 MSTORE PUSH1 0x40 SWAP1 KECCAK256 PUSH1 0x3 ADD SWAP1 PUSH1 0x1 PUSH1 0x1 PUSH1 0xE0 SHL SUB NOT AND PUSH2 0x2828 JUMP JUMPDEST PUSH2 0x3156 JUMPI PUSH2 0x3154 DUP7 DUP7 DUP5 DUP2 DUP2 LT PUSH2 0x30EC JUMPI PUSH2 0x30EC PUSH2 0x3CB7 JUMP JUMPDEST SWAP1 POP PUSH1 0x20 MUL DUP2 ADD SWAP1 PUSH2 0x30FE SWAP2 SWAP1 PUSH2 0x3DAB JUMP JUMPDEST PUSH2 0x310C SWAP1 PUSH1 0x20 DUP2 ADD SWAP1 PUSH2 0x3DCB JUMP JUMPDEST DUP4 DUP2 DUP2 LT PUSH2 0x311C JUMPI PUSH2 0x311C PUSH2 0x3CB7 JUMP JUMPDEST SWAP1 POP PUSH1 0x20 MUL ADD PUSH1 0x20 DUP2 ADD SWAP1 PUSH2 0x3131 SWAP2 SWAP1 PUSH2 0x3E15 JUMP JUMPDEST PUSH1 0x0 DUP12 DUP2 MSTORE PUSH1 0x1 DUP14 ADD PUSH1 0x20 MSTORE PUSH1 0x40 SWAP1 KECCAK256 PUSH1 0x3 ADD SWAP1 PUSH1 0x1 PUSH1 0x1 PUSH1 0xE0 SHL SUB NOT AND PUSH2 0x2BED JUMP JUMPDEST POP JUMPDEST PUSH2 0x32F3 JUMP JUMPDEST PUSH1 0x0 DUP10 DUP2 MSTORE PUSH1 0x1 DUP12 ADD PUSH1 0x20 MSTORE PUSH1 0x40 DUP2 KECCAK256 PUSH1 0x2 ADD SWAP1 DUP8 DUP8 DUP6 DUP2 DUP2 LT PUSH2 0x3181 JUMPI PUSH2 0x3181 PUSH2 0x3CB7 JUMP JUMPDEST SWAP1 POP PUSH1 0x20 MUL DUP2 ADD SWAP1 PUSH2 0x3193 SWAP2 SWAP1 PUSH2 0x3DAB JUMP JUMPDEST PUSH2 0x31A1 SWAP1 PUSH1 0x20 DUP2 ADD SWAP1 PUSH2 0x3DCB JUMP JUMPDEST DUP5 DUP2 DUP2 LT PUSH2 0x31B1 JUMPI PUSH2 0x31B1 PUSH2 0x3CB7 JUMP JUMPDEST SWAP1 POP PUSH1 0x20 MUL ADD PUSH1 0x20 DUP2 ADD SWAP1 PUSH2 0x31C6 SWAP2 SWAP1 PUSH2 0x3E15 JUMP JUMPDEST PUSH1 0x1 PUSH1 0x1 PUSH1 0xE0 SHL SUB NOT AND DUP2 MSTORE PUSH1 0x20 DUP1 DUP3 ADD SWAP3 SWAP1 SWAP3 MSTORE PUSH1 0x40 SWAP1 DUP2 ADD PUSH1 0x0 SWAP1 DUP2 KECCAK256 DUP2 SWAP1 SSTORE DUP12 DUP2 MSTORE PUSH1 0x1 DUP14 ADD SWAP1 SWAP3 MSTORE DUP2 KECCAK256 PUSH1 0x2 ADD SWAP1 DUP8 DUP8 DUP6 DUP2 DUP2 LT PUSH2 0x320A JUMPI PUSH2 0x320A PUSH2 0x3CB7 JUMP JUMPDEST SWAP1 POP PUSH1 0x20 MUL DUP2 ADD SWAP1 PUSH2 0x321C SWAP2 SWAP1 PUSH2 0x3DAB JUMP JUMPDEST PUSH2 0x322A SWAP1 PUSH1 0x20 DUP2 ADD SWAP1 PUSH2 0x3DCB JUMP JUMPDEST DUP5 DUP2 DUP2 LT PUSH2 0x323A JUMPI PUSH2 0x323A PUSH2 0x3CB7 JUMP JUMPDEST SWAP1 POP PUSH1 0x20 MUL ADD PUSH1 0x20 DUP2 ADD SWAP1 PUSH2 0x324F SWAP2 SWAP1 PUSH2 0x3E15 JUMP JUMPDEST PUSH1 0x1 PUSH1 0x1 PUSH1 0xE0 SHL SUB NOT AND DUP2 MSTORE PUSH1 0x20 DUP2 ADD SWAP2 SWAP1 SWAP2 MSTORE PUSH1 0x40 ADD PUSH1 0x0 KECCAK256 PUSH1 0x1 ADD DUP1 SLOAD PUSH1 0xFF NOT AND SWAP1 SSTORE PUSH2 0x32F1 DUP7 DUP7 DUP5 DUP2 DUP2 LT PUSH2 0x3289 JUMPI PUSH2 0x3289 PUSH2 0x3CB7 JUMP JUMPDEST SWAP1 POP PUSH1 0x20 MUL DUP2 ADD SWAP1 PUSH2 0x329B SWAP2 SWAP1 PUSH2 0x3DAB JUMP JUMPDEST PUSH2 0x32A9 SWAP1 PUSH1 0x20 DUP2 ADD SWAP1 PUSH2 0x3DCB JUMP JUMPDEST DUP4 DUP2 DUP2 LT PUSH2 0x32B9 JUMPI PUSH2 0x32B9 PUSH2 0x3CB7 JUMP JUMPDEST SWAP1 POP PUSH1 0x20 MUL ADD PUSH1 0x20 DUP2 ADD SWAP1 PUSH2 0x32CE SWAP2 SWAP1 PUSH2 0x3E15 JUMP JUMPDEST PUSH1 0x0 DUP12 DUP2 MSTORE PUSH1 0x1 DUP14 ADD PUSH1 0x20 MSTORE PUSH1 0x40 SWAP1 KECCAK256 PUSH1 0x3 ADD SWAP1 PUSH1 0x1 PUSH1 0x1 PUSH1 0xE0 SHL SUB NOT AND PUSH2 0x2843 JUMP JUMPDEST POP JUMPDEST DUP1 PUSH2 0x32FD DUP2 PUSH2 0x3E30 JUMP JUMPDEST SWAP2 POP POP PUSH2 0x2DCD JUMP JUMPDEST POP DUP1 PUSH2 0x3310 DUP2 PUSH2 0x3E30 JUMP JUMPDEST SWAP2 POP POP PUSH2 0x2D57 JUMP JUMPDEST POP SWAP8 SWAP7 POP POP POP POP POP POP POP JUMP JUMPDEST PUSH1 0x0 PUSH32 0x8B73C3C69BB8FE3D512ECC4CF759CC79239F7B179B0FFACAA9A75D522B39400F ADDRESS PUSH1 0x1 PUSH1 0x1 PUSH1 0xA0 SHL SUB AND PUSH4 0x75D0C0DC PUSH1 0x40 MLOAD DUP2 PUSH4 0xFFFFFFFF AND PUSH1 0xE0 SHL DUP2 MSTORE PUSH1 0x4 ADD PUSH1 0x20 PUSH1 0x40 MLOAD DUP1 DUP4 SUB DUP2 DUP7 GAS STATICCALL ISZERO DUP1 ISZERO PUSH2 0x3385 JUMPI RETURNDATASIZE PUSH1 0x0 DUP1 RETURNDATACOPY RETURNDATASIZE PUSH1 0x0 REVERT JUMPDEST POP POP POP POP PUSH1 0x40 MLOAD RETURNDATASIZE PUSH1 0x1F NOT PUSH1 0x1F DUP3 ADD AND DUP3 ADD DUP1 PUSH1 0x40 MSTORE POP DUP2 ADD SWAP1 PUSH2 0x33A9 SWAP2 SWAP1 PUSH2 0x3D69 JUMP JUMPDEST ADDRESS PUSH1 0x1 PUSH1 0x1 PUSH1 0xA0 SHL SUB AND PUSH4 0xA0A8E460 PUSH1 0x40 MLOAD DUP2 PUSH4 0xFFFFFFFF AND PUSH1 0xE0 SHL DUP2 MSTORE PUSH1 0x4 ADD PUSH1 0x20 PUSH1 0x40 MLOAD DUP1 DUP4 SUB DUP2 DUP7 GAS STATICCALL ISZERO DUP1 ISZERO PUSH2 0x33E7 JUMPI RETURNDATASIZE PUSH1 0x0 DUP1 RETURNDATACOPY RETURNDATASIZE PUSH1 0x0 REVERT JUMPDEST POP POP POP POP PUSH1 0x40 MLOAD RETURNDATASIZE PUSH1 0x1F NOT PUSH1 0x1F DUP3 ADD AND DUP3 ADD DUP1 PUSH1 0x40 MSTORE POP DUP2 ADD SWAP1 PUSH2 0x340B SWAP2 SWAP1 PUSH2 0x3D69 JUMP JUMPDEST PUSH1 0x40 DUP1 MLOAD PUSH1 0x20 DUP2 ADD SWAP5 SWAP1 SWAP5 MSTORE DUP4 ADD SWAP2 SWAP1 SWAP2 MSTORE PUSH1 0x60 DUP3 ADD MSTORE CHAINID PUSH1 0x80 DUP3 ADD MSTORE ADDRESS PUSH1 0xA0 DUP3 ADD MSTORE PUSH1 0xC0 ADD PUSH1 0x40 MLOAD PUSH1 0x20 DUP2 DUP4 SUB SUB DUP2 MSTORE SWAP1 PUSH1 0x40 MSTORE DUP1 MLOAD SWAP1 PUSH1 0x20 ADD KECCAK256 SWAP1 POP SWAP1 JUMP JUMPDEST PUSH1 0x0 DUP1 PUSH32 0x7FFFFFFFFFFFFFFFFFFFFFFFFFFFFFFF5D576E7357A4501DDFE92F46681B20A0 DUP4 GT ISZERO PUSH2 0x3483 JUMPI POP PUSH1 0x0 SWAP1 POP PUSH1 0x3 PUSH2 0x281F JUMP JUMPDEST DUP5 PUSH1 0xFF AND PUSH1 0x1B EQ ISZERO DUP1 ISZERO PUSH2 0x349B JUMPI POP DUP5 PUSH1 0xFF AND PUSH1 0x1C EQ ISZERO JUMPDEST ISZERO PUSH2 0x34AC JUMPI POP PUSH1 0x0 SWAP1 POP PUSH1 0x4 PUSH2 0x281F JUMP JUMPDEST PUSH1 0x40 DUP1 MLOAD PUSH1 0x0 DUP1 DUP3 MSTORE PUSH1 0x20 DUP3 ADD DUP1 DUP5 MSTORE DUP10 SWAP1 MSTORE PUSH1 0xFF DUP9 AND SWAP3 DUP3 ADD SWAP3 SWAP1 SWAP3 MSTORE PUSH1 0x60 DUP2 ADD DUP7 SWAP1 MSTORE PUSH1 0x80 DUP2 ADD DUP6 SWAP1 MSTORE PUSH1 0x1 SWAP1 PUSH1 0xA0 ADD PUSH1 0x20 PUSH1 0x40 MLOAD PUSH1 0x20 DUP2 SUB SWAP1 DUP1 DUP5 SUB SWAP1 DUP6 GAS STATICCALL ISZERO DUP1 ISZERO PUSH2 0x3500 JUMPI RETURNDATASIZE PUSH1 0x0 DUP1 RETURNDATACOPY RETURNDATASIZE PUSH1 0x0 REVERT JUMPDEST POP POP PUSH1 0x40 MLOAD PUSH1 0x1F NOT ADD MLOAD SWAP2 POP POP PUSH1 0x1 PUSH1 0x1 PUSH1 0xA0 SHL SUB DUP2 AND PUSH2 0x3529 JUMPI PUSH1 0x0 PUSH1 0x1 SWAP3 POP SWAP3 POP POP PUSH2 0x281F JUMP JUMPDEST SWAP7 PUSH1 0x0 SWAP7 POP SWAP5 POP POP POP POP POP JUMP JUMPDEST PUSH1 0x0 DUP1 PUSH1 0x1 PUSH1 0x1 PUSH1 0xFF SHL SUB DUP4 AND DUP2 PUSH2 0x3553 PUSH1 0xFF DUP7 SWAP1 SHR PUSH1 0x1B PUSH2 0x3E6A JUMP JUMPDEST SWAP1 POP PUSH2 0x3561 DUP8 DUP3 DUP9 DUP6 PUSH2 0x344C JUMP JUMPDEST SWAP4 POP SWAP4 POP POP POP SWAP4 POP SWAP4 SWAP2 POP POP JUMP JUMPDEST PUSH1 0x0 DUP2 DUP2 MSTORE PUSH1 0x1 DUP4 ADD PUSH1 0x20 MSTORE PUSH1 0x40 DUP2 KECCAK256 SLOAD DUP1 ISZERO PUSH2 0x3658 JUMPI PUSH1 0x0 PUSH2 0x3593 PUSH1 0x1 DUP4 PUSH2 0x3E7D JUMP JUMPDEST DUP6 SLOAD SWAP1 SWAP2 POP PUSH1 0x0 SWAP1 PUSH2 0x35A7 SWAP1 PUSH1 0x1 SWAP1 PUSH2 0x3E7D JUMP JUMPDEST SWAP1 POP DUP2 DUP2 EQ PUSH2 0x360C JUMPI PUSH1 0x0 DUP7 PUSH1 0x0 ADD DUP3 DUP2 SLOAD DUP2 LT PUSH2 0x35C7 JUMPI PUSH2 0x35C7 PUSH2 0x3CB7 JUMP JUMPDEST SWAP1 PUSH1 0x0 MSTORE PUSH1 0x20 PUSH1 0x0 KECCAK256 ADD SLOAD SWAP1 POP DUP1 DUP8 PUSH1 0x0 ADD DUP5 DUP2 SLOAD DUP2 LT PUSH2 0x35EA JUMPI PUSH2 0x35EA PUSH2 0x3CB7 JUMP JUMPDEST PUSH1 0x0 SWAP2 DUP3 MSTORE PUSH1 0x20 DUP1 DUP4 KECCAK256 SWAP1 SWAP2 ADD SWAP3 SWAP1 SWAP3 SSTORE SWAP2 DUP3 MSTORE PUSH1 0x1 DUP9 ADD SWAP1 MSTORE PUSH1 0x40 SWAP1 KECCAK256 DUP4 SWAP1 SSTORE JUMPDEST DUP6 SLOAD DUP7 SWAP1 DUP1 PUSH2 0x361D JUMPI PUSH2 0x361D PUSH2 0x3E90 JUMP JUMPDEST PUSH1 0x1 SWAP1 SUB DUP2 DUP2 SWAP1 PUSH1 0x0 MSTORE PUSH1 0x20 PUSH1 0x0 KECCAK256 ADD PUSH1 0x0 SWAP1 SSTORE SWAP1 SSTORE DUP6 PUSH1 0x1 ADD PUSH1 0x0 DUP7 DUP2 MSTORE PUSH1 0x20 ADD SWAP1 DUP2 MSTORE PUSH1 0x20 ADD PUSH1 0x0 KECCAK256 PUSH1 0x0 SWAP1 SSTORE PUSH1 0x1 SWAP4 POP POP POP POP PUSH2 0x8AF JUMP JUMPDEST PUSH1 0x0 SWAP2 POP POP PUSH2 0x8AF JUMP JUMPDEST PUSH1 0x0 DUP3 PUSH1 0x0 ADD DUP3 DUP2 SLOAD DUP2 LT PUSH2 0x3679 JUMPI PUSH2 0x3679 PUSH2 0x3CB7 JUMP JUMPDEST SWAP1 PUSH1 0x0 MSTORE PUSH1 0x20 PUSH1 0x0 KECCAK256 ADD SLOAD SWAP1 POP SWAP3 SWAP2 POP POP JUMP JUMPDEST PUSH1 0x0 DUP2 DUP2 MSTORE PUSH1 0x1 DUP4 ADD PUSH1 0x20 MSTORE PUSH1 0x40 DUP2 KECCAK256 SLOAD PUSH2 0x36D3 JUMPI POP DUP2 SLOAD PUSH1 0x1 DUP2 DUP2 ADD DUP5 SSTORE PUSH1 0x0 DUP5 DUP2 MSTORE PUSH1 0x20 DUP1 DUP3 KECCAK256 SWAP1 SWAP4 ADD DUP5 SWAP1 SSTORE DUP5 SLOAD DUP5 DUP3 MSTORE DUP3 DUP7 ADD SWAP1 SWAP4 MSTORE PUSH1 0x40 SWAP1 KECCAK256 SWAP2 SWAP1 SWAP2 SSTORE PUSH2 0x8AF JUMP JUMPDEST POP PUSH1 0x0 PUSH2 0x8AF JUMP JUMPDEST PUSH4 0x4E487B71 PUSH1 0xE0 SHL PUSH1 0x0 MSTORE PUSH1 0x41 PUSH1 0x4 MSTORE PUSH1 0x24 PUSH1 0x0 REVERT JUMPDEST PUSH1 0x0 DUP3 PUSH1 0x1F DUP4 ADD SLT PUSH2 0x3702 JUMPI PUSH1 0x0 DUP1 REVERT JUMPDEST DUP2 CALLDATALOAD PUSH8 0xFFFFFFFFFFFFFFFF DUP1 DUP3 GT ISZERO PUSH2 0x371D JUMPI PUSH2 0x371D PUSH2 0x36DB JUMP JUMPDEST PUSH1 0x40 MLOAD PUSH1 0x1F DUP4 ADD PUSH1 0x1F NOT SWAP1 DUP2 AND PUSH1 0x3F ADD AND DUP2 ADD SWAP1 DUP3 DUP3 GT DUP2 DUP4 LT OR ISZERO PUSH2 0x3745 JUMPI PUSH2 0x3745 PUSH2 0x36DB JUMP JUMPDEST DUP2 PUSH1 0x40 MSTORE DUP4 DUP2 MSTORE DUP7 PUSH1 0x20 DUP6 DUP9 ADD ADD GT ISZERO PUSH2 0x375E JUMPI PUSH1 0x0 DUP1 REVERT JUMPDEST DUP4 PUSH1 0x20 DUP8 ADD PUSH1 0x20 DUP4 ADD CALLDATACOPY PUSH1 0x0 PUSH1 0x20 DUP6 DUP4 ADD ADD MSTORE DUP1 SWAP5 POP POP POP POP POP SWAP3 SWAP2 POP POP JUMP JUMPDEST PUSH1 0x0 DUP1 DUP4 PUSH1 0x1F DUP5 ADD SLT PUSH2 0x3790 JUMPI PUSH1 0x0 DUP1 REVERT JUMPDEST POP DUP2 CALLDATALOAD PUSH8 0xFFFFFFFFFFFFFFFF DUP2 GT ISZERO PUSH2 0x37A8 JUMPI PUSH1 0x0 DUP1 REVERT JUMPDEST PUSH1 0x20 DUP4 ADD SWAP2 POP DUP4 PUSH1 0x20 DUP3 PUSH1 0x5 SHL DUP6 ADD ADD GT ISZERO PUSH2 0x2337 JUMPI PUSH1 0x0 DUP1 REVERT JUMPDEST PUSH1 0x0 DUP1 PUSH1 0x0 DUP1 PUSH1 0x0 DUP6 DUP8 SUB PUSH2 0x140 DUP2 SLT ISZERO PUSH2 0x37DD JUMPI PUSH1 0x0 DUP1 REVERT JUMPDEST DUP7 CALLDATALOAD SWAP6 POP PUSH1 0x20 DUP8 ADD CALLDATALOAD PUSH8 0xFFFFFFFFFFFFFFFF DUP1 DUP3 GT ISZERO PUSH2 0x37FC JUMPI PUSH1 0x0 DUP1 REVERT JUMPDEST PUSH2 0x3808 DUP11 DUP4 DUP12 ADD PUSH2 0x36F1 JUMP JUMPDEST SWAP7 POP PUSH1 0xE0 PUSH1 0x3F NOT DUP5 ADD SLT ISZERO PUSH2 0x381C JUMPI PUSH1 0x0 DUP1 REVERT JUMPDEST PUSH1 0x40 DUP10 ADD SWAP6 POP PUSH2 0x120 DUP10 ADD CALLDATALOAD SWAP3 POP DUP1 DUP4 GT ISZERO PUSH2 0x3837 JUMPI PUSH1 0x0 DUP1 REVERT JUMPDEST POP POP PUSH2 0x3845 DUP9 DUP3 DUP10 ADD PUSH2 0x377E JUMP JUMPDEST SWAP7 SWAP10 SWAP6 SWAP9 POP SWAP4 SWAP7 POP SWAP3 SWAP5 SWAP4 SWAP3 POP POP POP JUMP JUMPDEST PUSH1 0x0 DUP1 PUSH1 0x40 DUP4 DUP6 SUB SLT ISZERO PUSH2 0x3869 JUMPI PUSH1 0x0 DUP1 REVERT JUMPDEST DUP3 CALLDATALOAD SWAP2 POP PUSH1 0x20 DUP4 ADD CALLDATALOAD PUSH1 0xFF DUP2 AND DUP2 EQ PUSH2 0x3881 JUMPI PUSH1 0x0 DUP1 REVERT JUMPDEST DUP1 SWAP2 POP POP SWAP3 POP SWAP3 SWAP1 POP JUMP JUMPDEST DUP1 CALLDATALOAD PUSH1 0x1 PUSH1 0x1 PUSH1 0xE0 SHL SUB NOT DUP2 AND DUP2 EQ PUSH2 0x38A4 JUMPI PUSH1 0x0 DUP1 REVERT JUMPDEST SWAP2 SWAP1 POP JUMP JUMPDEST PUSH1 0x0 DUP1 PUSH1 0x0 PUSH1 0x60 DUP5 DUP7 SUB SLT ISZERO PUSH2 0x38BE JUMPI PUSH1 0x0 DUP1 REVERT JUMPDEST DUP4 CALLDATALOAD SWAP3 POP PUSH1 0x20 DUP5 ADD CALLDATALOAD SWAP2 POP PUSH2 0x38D5 PUSH1 0x40 DUP6 ADD PUSH2 0x388C JUMP JUMPDEST SWAP1 POP SWAP3 POP SWAP3 POP SWAP3 JUMP JUMPDEST PUSH1 0x0 DUP1 PUSH1 0x40 DUP4 DUP6 SUB SLT ISZERO PUSH2 0x38F1 JUMPI PUSH1 0x0 DUP1 REVERT JUMPDEST POP POP DUP1 CALLDATALOAD SWAP3 PUSH1 0x20 SWAP1 SWAP2 ADD CALLDATALOAD SWAP2 POP JUMP JUMPDEST PUSH1 0x20 DUP1 DUP3 MSTORE DUP3 MLOAD DUP3 DUP3 ADD DUP2 SWAP1 MSTORE PUSH1 0x0 SWAP2 SWAP1 DUP5 DUP3 ADD SWAP1 PUSH1 0x40 DUP6 ADD SWAP1 DUP5 JUMPDEST DUP2 DUP2 LT ISZERO PUSH2 0x3942 JUMPI DUP4 MLOAD PUSH1 0x1 PUSH1 0x1 PUSH1 0xE0 SHL SUB NOT AND DUP4 MSTORE SWAP3 DUP5 ADD SWAP3 SWAP2 DUP5 ADD SWAP2 PUSH1 0x1 ADD PUSH2 0x391C JUMP JUMPDEST POP SWAP1 SWAP7 SWAP6 POP POP POP POP POP POP JUMP JUMPDEST PUSH1 0x0 PUSH1 0xA0 DUP3 DUP5 SUB SLT ISZERO PUSH2 0x3960 JUMPI PUSH1 0x0 DUP1 REVERT JUMPDEST POP SWAP2 SWAP1 POP JUMP JUMPDEST PUSH1 0x0 DUP1 PUSH1 0x0 DUP1 PUSH1 0x0 PUSH2 0x100 DUP7 DUP9 SUB SLT ISZERO PUSH2 0x397F JUMPI PUSH1 0x0 DUP1 REVERT JUMPDEST DUP6 CALLDATALOAD SWAP5 POP PUSH1 0x20 DUP7 ADD CALLDATALOAD PUSH8 0xFFFFFFFFFFFFFFFF DUP1 DUP3 GT ISZERO PUSH2 0x399E JUMPI PUSH1 0x0 DUP1 REVERT JUMPDEST PUSH2 0x39AA DUP10 DUP4 DUP11 ADD PUSH2 0x36F1 JUMP JUMPDEST SWAP6 POP PUSH2 0x39B9 DUP10 PUSH1 0x40 DUP11 ADD PUSH2 0x394E JUMP JUMPDEST SWAP5 POP PUSH1 0xE0 DUP9 ADD CALLDATALOAD SWAP2 POP DUP1 DUP3 GT ISZERO PUSH2 0x39CF JUMPI PUSH1 0x0 DUP1 REVERT JUMPDEST POP PUSH2 0x3845 DUP9 DUP3 DUP10 ADD PUSH2 0x377E JUMP JUMPDEST PUSH1 0x0 DUP1 PUSH1 0x0 DUP1 PUSH1 0x80 DUP6 DUP8 SUB SLT ISZERO PUSH2 0x39F2 JUMPI PUSH1 0x0 DUP1 REVERT JUMPDEST DUP5 CALLDATALOAD SWAP4 POP PUSH1 0x20 DUP6 ADD CALLDATALOAD SWAP3 POP PUSH2 0x3A09 PUSH1 0x40 DUP7 ADD PUSH2 0x388C JUMP JUMPDEST SWAP4 SWAP7 SWAP3 SWAP6 POP SWAP3 SWAP4 PUSH1 0x60 ADD CALLDATALOAD SWAP3 POP POP JUMP JUMPDEST PUSH1 0x0 DUP1 PUSH1 0x0 DUP1 PUSH1 0x80 DUP6 DUP8 SUB SLT ISZERO PUSH2 0x3A2F JUMPI PUSH1 0x0 DUP1 REVERT JUMPDEST DUP5 CALLDATALOAD SWAP4 POP PUSH1 0x20 DUP6 ADD CALLDATALOAD SWAP3 POP PUSH1 0x40 DUP6 ADD CALLDATALOAD SWAP2 POP PUSH2 0x3A4D PUSH1 0x60 DUP7 ADD PUSH2 0x388C JUMP JUMPDEST SWAP1 POP SWAP3 SWAP6 SWAP2 SWAP5 POP SWAP3 POP JUMP JUMPDEST DUP1 CALLDATALOAD PUSH1 0x1 PUSH1 0x1 PUSH1 0xA0 SHL SUB DUP2 AND DUP2 EQ PUSH2 0x38A4 JUMPI PUSH1 0x0 DUP1 REVERT JUMPDEST PUSH1 0x0 DUP1 PUSH1 0x0 DUP1 PUSH1 0x0 PUSH1 0x80 DUP7 DUP9 SUB SLT ISZERO PUSH2 0x3A87 JUMPI PUSH1 0x0 DUP1 REVERT JUMPDEST DUP6 CALLDATALOAD SWAP5 POP PUSH2 0x3A97 PUSH1 0x20 DUP8 ADD PUSH2 0x3A58 JUMP JUMPDEST SWAP4 POP PUSH1 0x40 DUP7 ADD CALLDATALOAD SWAP3 POP PUSH1 0x60 DUP7 ADD CALLDATALOAD PUSH8 0xFFFFFFFFFFFFFFFF DUP2 GT ISZERO PUSH2 0x3ABA JUMPI PUSH1 0x0 DUP1 REVERT JUMPDEST PUSH2 0x3845 DUP9 DUP3 DUP10 ADD PUSH2 0x377E JUMP JUMPDEST PUSH1 0x0 DUP1 PUSH1 0x0 PUSH1 0x60 DUP5 DUP7 SUB SLT ISZERO PUSH2 0x3ADB JUMPI PUSH1 0x0 DUP1 REVERT JUMPDEST POP POP DUP2 CALLDATALOAD SWAP4 PUSH1 0x20 DUP4 ADD CALLDATALOAD SWAP4 POP PUSH1 0x40 SWAP1 SWAP3 ADD CALLDATALOAD SWAP2 SWAP1 POP JUMP JUMPDEST DUP1 ISZERO ISZERO DUP2 EQ PUSH2 0x3B00 JUMPI PUSH1 0x0 DUP1 REVERT JUMPDEST POP JUMP JUMPDEST PUSH1 0x0 DUP1 PUSH1 0x0 PUSH1 0x60 DUP5 DUP7 SUB SLT ISZERO PUSH2 0x3B18 JUMPI PUSH1 0x0 DUP1 REVERT JUMPDEST DUP4 CALLDATALOAD SWAP3 POP PUSH1 0x20 DUP5 ADD CALLDATALOAD SWAP2 POP PUSH1 0x40 DUP5 ADD CALLDATALOAD PUSH2 0x3B31 DUP2 PUSH2 0x3AF2 JUMP JUMPDEST DUP1 SWAP2 POP POP SWAP3 POP SWAP3 POP SWAP3 JUMP JUMPDEST PUSH1 0x0 PUSH1 0x20 DUP3 DUP5 SUB SLT ISZERO PUSH2 0x3B4E JUMPI PUSH1 0x0 DUP1 REVERT JUMPDEST DUP2 MLOAD PUSH2 0x283C DUP2 PUSH2 0x3AF2 JUMP JUMPDEST PUSH1 0x20 DUP1 DUP3 MSTORE PUSH1 0x17 SWAP1 DUP3 ADD MSTORE PUSH32 0x536166654D6F64653A2043616C6C2052656A6563746564000000000000000000 PUSH1 0x40 DUP3 ADD MSTORE PUSH1 0x60 ADD SWAP1 JUMP JUMPDEST PUSH1 0x0 PUSH1 0x20 DUP3 DUP5 SUB SLT ISZERO PUSH2 0x3BA2 JUMPI PUSH1 0x0 DUP1 REVERT JUMPDEST PUSH2 0x283C DUP3 PUSH2 0x3A58 JUMP JUMPDEST PUSH4 0x4E487B71 PUSH1 0xE0 SHL PUSH1 0x0 MSTORE PUSH1 0x21 PUSH1 0x4 MSTORE PUSH1 0x24 PUSH1 0x0 REVERT JUMPDEST PUSH1 0x20 DUP1 DUP3 MSTORE PUSH1 0x18 SWAP1 DUP3 ADD MSTORE PUSH32 0x496C6C6567616C20454344415341205369676E61747572650000000000000000 PUSH1 0x40 DUP3 ADD MSTORE PUSH1 0x60 ADD SWAP1 JUMP JUMPDEST SWAP4 DUP5 MSTORE PUSH1 0x20 DUP5 ADD SWAP3 SWAP1 SWAP3 MSTORE PUSH1 0x1 PUSH1 0x1 PUSH1 0xA0 SHL SUB AND PUSH1 0x40 DUP4 ADD MSTORE PUSH1 0x1 PUSH1 0x1 PUSH1 0xE0 SHL SUB NOT AND PUSH1 0x60 DUP3 ADD MSTORE PUSH1 0x80 ADD SWAP1 JUMP JUMPDEST PUSH4 0x4E487B71 PUSH1 0xE0 SHL PUSH1 0x0 MSTORE PUSH1 0x11 PUSH1 0x4 MSTORE PUSH1 0x24 PUSH1 0x0 REVERT JUMPDEST PUSH1 0xFF DUP3 DUP2 AND DUP3 DUP3 AND SUB SWAP1 DUP2 GT ISZERO PUSH2 0x8AF JUMPI PUSH2 0x8AF PUSH2 0x3C26 JUMP JUMPDEST PUSH1 0x20 DUP1 DUP3 MSTORE PUSH1 0x11 SWAP1 DUP3 ADD MSTORE PUSH17 0x10DBDB9D195E1D08139BDD08119BDD5B99 PUSH1 0x7A SHL PUSH1 0x40 DUP3 ADD MSTORE PUSH1 0x60 ADD SWAP1 JUMP JUMPDEST PUSH1 0x20 DUP1 DUP3 MSTORE PUSH1 0x1A SWAP1 DUP3 ADD MSTORE PUSH32 0x46756E6374696F6E53656C6563746F72204E6F7420466F756E64000000000000 PUSH1 0x40 DUP3 ADD MSTORE PUSH1 0x60 ADD SWAP1 JUMP JUMPDEST PUSH4 0x4E487B71 PUSH1 0xE0 SHL PUSH1 0x0 MSTORE PUSH1 0x32 PUSH1 0x4 MSTORE PUSH1 0x24 PUSH1 0x0 REVERT JUMPDEST PUSH1 0x0 PUSH4 0xFFFFFFFF DUP1 DUP4 AND DUP2 DUP2 SUB PUSH2 0x3CE6 JUMPI PUSH2 0x3CE6 PUSH2 0x3C26 JUMP JUMPDEST PUSH1 0x1 ADD SWAP4 SWAP3 POP POP POP JUMP JUMPDEST PUSH1 0x0 PUSH1 0x20 DUP3 DUP5 SUB SLT ISZERO PUSH2 0x3D02 JUMPI PUSH1 0x0 DUP1 REVERT JUMPDEST DUP2 CALLDATALOAD PUSH2 0x283C DUP2 PUSH2 0x3AF2 JUMP JUMPDEST PUSH1 0x1 DUP2 DUP2 SHR SWAP1 DUP3 AND DUP1 PUSH2 0x3D21 JUMPI PUSH1 0x7F DUP3 AND SWAP2 POP JUMPDEST PUSH1 0x20 DUP3 LT DUP2 SUB PUSH2 0x3960 JUMPI PUSH4 0x4E487B71 PUSH1 0xE0 SHL PUSH1 0x0 MSTORE PUSH1 0x22 PUSH1 0x4 MSTORE PUSH1 0x24 PUSH1 0x0 REVERT JUMPDEST PUSH1 0x20 DUP1 DUP3 MSTORE PUSH1 0xE SWAP1 DUP3 ADD MSTORE PUSH14 0x149BDB1948139BDD08119BDD5B99 PUSH1 0x92 SHL PUSH1 0x40 DUP3 ADD MSTORE PUSH1 0x60 ADD SWAP1 JUMP JUMPDEST PUSH1 0x0 PUSH1 0x20 DUP3 DUP5 SUB SLT ISZERO PUSH2 0x3D7B JUMPI PUSH1 0x0 DUP1 REVERT JUMPDEST POP MLOAD SWAP2 SWAP1 POP JUMP JUMPDEST PUSH1 0x20 DUP1 DUP3 MSTORE PUSH1 0xF SWAP1 DUP3 ADD MSTORE PUSH15 0x1499585B1B48139BDD08119BDD5B99 PUSH1 0x8A SHL PUSH1 0x40 DUP3 ADD MSTORE PUSH1 0x60 ADD SWAP1 JUMP JUMPDEST PUSH1 0x0 DUP3 CALLDATALOAD PUSH1 0x5E NOT DUP4 CALLDATASIZE SUB ADD DUP2 SLT PUSH2 0x3DC1 JUMPI PUSH1 0x0 DUP1 REVERT JUMPDEST SWAP2 SWAP1 SWAP2 ADD SWAP3 SWAP2 POP POP JUMP JUMPDEST PUSH1 0x0 DUP1 DUP4 CALLDATALOAD PUSH1 0x1E NOT DUP5 CALLDATASIZE SUB ADD DUP2 SLT PUSH2 0x3DE2 JUMPI PUSH1 0x0 DUP1 REVERT JUMPDEST DUP4 ADD DUP1 CALLDATALOAD SWAP2 POP PUSH8 0xFFFFFFFFFFFFFFFF DUP3 GT ISZERO PUSH2 0x3DFD JUMPI PUSH1 0x0 DUP1 REVERT JUMPDEST PUSH1 0x20 ADD SWAP2 POP PUSH1 0x5 DUP2 SWAP1 SHL CALLDATASIZE SUB DUP3 SGT ISZERO PUSH2 0x2337 JUMPI PUSH1 0x0 DUP1 REVERT JUMPDEST PUSH1 0x0 PUSH1 0x20 DUP3 DUP5 SUB SLT ISZERO PUSH2 0x3E27 JUMPI PUSH1 0x0 DUP1 REVERT JUMPDEST PUSH2 0x283C DUP3 PUSH2 0x388C JUMP JUMPDEST PUSH1 0x0 PUSH1 0x1 DUP3 ADD PUSH2 0x3E42 JUMPI PUSH2 0x3E42 PUSH2 0x3C26 JUMP JUMPDEST POP PUSH1 0x1 ADD SWAP1 JUMP JUMPDEST PUSH1 0x0 PUSH1 0x20 DUP3 DUP5 SUB SLT ISZERO PUSH2 0x3E5B JUMPI PUSH1 0x0 DUP1 REVERT JUMPDEST DUP2 CALLDATALOAD PUSH1 0x3 DUP2 LT PUSH2 0x283C JUMPI PUSH1 0x0 DUP1 REVERT JUMPDEST DUP1 DUP3 ADD DUP1 DUP3 GT ISZERO PUSH2 0x8AF JUMPI PUSH2 0x8AF PUSH2 0x3C26 JUMP JUMPDEST DUP2 DUP2 SUB DUP2 DUP2 GT ISZERO PUSH2 0x8AF JUMPI PUSH2 0x8AF PUSH2 0x3C26 JUMP JUMPDEST PUSH4 0x4E487B71 PUSH1 0xE0 SHL PUSH1 0x0 MSTORE PUSH1 0x31 PUSH1 0x4 MSTORE PUSH1 0x24 PUSH1 0x0 REVERT INVALID LOG2 PUSH5 0x6970667358 0x22 SLT KECCAK256 0x2C 0xB5 PUSH16 0xDEB524314B62A667DC49206E10E2E4F0 0xD8 0x26 0xB7 BASEFEE STOP DIFFICULTY 0xC9 GAS SLT 0xE3 0xAA AND 0xD PUSH5 0x736F6C6343 STOP ADDMOD GT STOP CALLER "
    },
    "gasEstimates": {
      "creation": {
        "codeDepositCost": "3218400",
        "executionCost": "3599",
        "totalCost": "3221999"
      },
      "external": {
        "CTX_MESSAGE_TYPEHASH()": "269",
        "LIB_NAME()": "348",
        "LIB_VERSION()": "361",
        "PREDICT_CTX_MESSAGE_TYPEHASH()": "289",
        "TYPE_HASH()": "202",
        "addContextFuncRole(AccessControlStorage.DataCollections storage,bytes32,bytes4,bytes32)": "infinite",
        "getContextFuncs(AccessControlStorage.DataCollections storage,bytes32)": "infinite",
        "getContextInfo(AccessControlStorage.DataCollections storage,bytes32)": "infinite",
        "getLibrary()": "268",
        "grantContextRole(AccessControlStorage.DataCollections storage,bytes32,bytes4,bytes32)": "infinite",
        "hasContextRole(AccessControlStorage.DataCollections storage,bytes32,bytes32,bytes4)": "7319",
        "registerAccessControlManagerContext(AccessControlStorage.DataCollections storage,address,bytes32,IContextManagement.RequestRegisterContext[])": "infinite",
        "registerContext(AccessControlStorage.DataCollections storage,bytes,IContextManagement.RequestContext,IContextManagement.RequestRegisterContext[])": "infinite",
        "registerPredictContext(AccessControlStorage.DataCollections storage,bytes,IContextManagement.RequestPredictContext,IContextManagement.RequestRegisterContext[])": "infinite",
        "removeContextFunc(AccessControlStorage.DataCollections storage,bytes32,bytes4)": "infinite",
        "revokeContextRole(AccessControlStorage.DataCollections storage,bytes32,bytes4,bytes32)": "infinite",
        "setContextRealm(AccessControlStorage.DataCollections storage,bytes32,bytes32)": "infinite",
        "setContextStatus(AccessControlStorage.DataCollections storage,bytes32,bool)": "infinite",
        "setPermitRegisterContext(AccessControlStorage.DataCollections storage,uint8)": "infinite",
        "updateContext(AccessControlStorage.DataCollections storage,bytes,IContextManagement.RequestContext,IContextManagement.RequestUpdateContext[])": "infinite"
      },
      "internal": {
        "_domainSeparatorV4()": "infinite",
        "_getContextMessageHash(address,bytes32,bytes32,bytes32)": "infinite",
        "_getPredictContextMessageHash(address,address,bytes32)": "infinite",
        "_hashTypedDataV4(bytes32)": "infinite",
        "_registerContext(struct AccessControlStorage.DataCollections storage pointer,address,bytes32,bool,struct IContextManagement.RequestRegisterContext calldata[] calldata)": "infinite",
        "_registerPredictContext(struct AccessControlStorage.DataCollections storage pointer,struct IContextManagement.RequestRegisterContext calldata[] calldata,struct IContextManagement.RequestPredictContext calldata)": "infinite",
        "_updateContext(struct AccessControlStorage.DataCollections storage pointer,bytes32,bytes32,bool,struct IContextManagement.RequestUpdateContext calldata[] calldata)": "infinite"
      }
    },
    "methodIdentifiers": {
      "CTX_MESSAGE_TYPEHASH()": "34109de2",
      "LIB_NAME()": "bec94751",
      "LIB_VERSION()": "2466209b",
      "PREDICT_CTX_MESSAGE_TYPEHASH()": "f0b15def",
      "TYPE_HASH()": "64d4c819",
      "addContextFuncRole(AccessControlStorage.DataCollections storage,bytes32,bytes4,bytes32)": "a234dae3",
      "getContextFuncs(AccessControlStorage.DataCollections storage,bytes32)": "66cd3f06",
      "getContextInfo(AccessControlStorage.DataCollections storage,bytes32)": "9bbafb11",
      "getLibrary()": "7678922e",
      "grantContextRole(AccessControlStorage.DataCollections storage,bytes32,bytes4,bytes32)": "76fd3e82",
      "hasContextRole(AccessControlStorage.DataCollections storage,bytes32,bytes32,bytes4)": "8533777c",
      "registerAccessControlManagerContext(AccessControlStorage.DataCollections storage,address,bytes32,IContextManagement.RequestRegisterContext[])": "a64c0bb0",
      "registerContext(AccessControlStorage.DataCollections storage,bytes,IContextManagement.RequestContext,IContextManagement.RequestRegisterContext[])": "6da4c23c",
      "registerPredictContext(AccessControlStorage.DataCollections storage,bytes,IContextManagement.RequestPredictContext,IContextManagement.RequestRegisterContext[])": "0ec7ee0e",
      "removeContextFunc(AccessControlStorage.DataCollections storage,bytes32,bytes4)": "4a56c0b8",
      "revokeContextRole(AccessControlStorage.DataCollections storage,bytes32,bytes4,bytes32)": "ef20d55d",
      "setContextRealm(AccessControlStorage.DataCollections storage,bytes32,bytes32)": "adfc581b",
      "setContextStatus(AccessControlStorage.DataCollections storage,bytes32,bool)": "ebcc861e",
      "setPermitRegisterContext(AccessControlStorage.DataCollections storage,uint8)": "30221dec",
      "updateContext(AccessControlStorage.DataCollections storage,bytes,IContextManagement.RequestContext,IContextManagement.RequestUpdateContext[])": "d94f2470"
    }
  },
  "storageLayout": {
    "storage": [],
    "types": null
  },
  "userdoc": {
    "kind": "user",
    "methods": {},
    "version": 1
  }
}