{
  "contractName": "LContextManagement",
  "sourceName": "src/contracts/lib/acl/LContextManagement.sol",
  "abi": [
    {
      "inputs": [],
      "name": "CTX_MESSAGE_TYPEHASH",
      "outputs": [
        {
          "internalType": "bytes32",
          "name": "",
          "type": "bytes32"
        }
      ],
      "stateMutability": "view",
      "type": "function"
    },
    {
      "inputs": [],
      "name": "LIB_NAME",
      "outputs": [
        {
          "internalType": "bytes32",
          "name": "",
          "type": "bytes32"
        }
      ],
      "stateMutability": "view",
      "type": "function"
    },
    {
      "inputs": [],
      "name": "LIB_VERSION",
      "outputs": [
        {
          "internalType": "bytes32",
          "name": "",
          "type": "bytes32"
        }
      ],
      "stateMutability": "view",
      "type": "function"
    },
    {
      "inputs": [],
      "name": "PREDICT_CTX_MESSAGE_TYPEHASH",
      "outputs": [
        {
          "internalType": "bytes32",
          "name": "",
          "type": "bytes32"
        }
      ],
      "stateMutability": "view",
      "type": "function"
    },
    {
      "inputs": [],
      "name": "TYPE_HASH",
      "outputs": [
        {
          "internalType": "bytes32",
          "name": "",
          "type": "bytes32"
        }
      ],
      "stateMutability": "view",
      "type": "function"
    },
    {
      "inputs": [],
      "name": "getLibrary",
      "outputs": [
        {
          "internalType": "address",
          "name": "",
          "type": "address"
        }
      ],
      "stateMutability": "pure",
      "type": "function"
    }
  ],
  "bytecode": "0x613ce261003a600b82828239805160001a60731461002d57634e487b7160e01b600052600060045260246000fd5b30600052607381538281f3fe730000000000000000000000000000000000000000301460806040526004361061012b5760003560e01c806364d4c819116100b7578063b0c255751161007b578063b0c25575146103cc578063bec94751146103ec578063ec77eb21146103f4578063f0b15def14610414578063faee67181461043b57600080fd5b806364d4c819146102d05780637134bb45146102f7578063733ae93e1461031a5780637678922e146103815780637cc5941d146103ac57600080fd5b80633e015ef6116100fe5780633e015ef6146101ef578063453dd6dc146102265780634ac3fdd414610246578063518bf960146102905780635acd816a146102b057600080fd5b8063099a0c2e1461013057806315922efe146101755780632466209b146101b257806334109de2146101c8575b600080fd5b81801561013c57600080fd5b5061015061014b36600461359f565b61045b565b604080516001600160a01b039384168152929091166020830152015b60405180910390f35b81801561018157600080fd5b50610195610190366004613630565b6106d3565b604080519283526001600160a01b0390911660208301520161016c565b6101ba6108db565b60405190815260200161016c565b6101ba7f7aabe2571874f2a330ea11c8972d9cc3792d973efc6b36e3e29005861a34418881565b8180156101fb57600080fd5b5061020f61020a3660046136b7565b610909565b60408051921515835260208301919091520161016c565b81801561023257600080fd5b506101ba610241366004613700565b610bfe565b81801561025257600080fd5b5061026661026136600461373d565b610ec2565b604080516001600160a01b039485168152602081019390935292169181019190915260600161016c565b81801561029c57600080fd5b506101ba6102ab366004613700565b611139565b8180156102bc57600080fd5b506101ba6102cb366004613700565b6113eb565b6101ba7f8b73c3c69bb8fe3d512ecc4cf759cc79239f7b179b0ffacaa9a75d522b39400f81565b61030a6103053660046137bf565b611698565b604051901515815260200161016c565b61032d6103283660046137fe565b61173e565b60405161016c91908151815260208083015190820152604080830151908201526060808301516001600160a01b03169082015260808083015115159082015260a09182015115159181019190915260c00190565b6040516001600160a01b0373__$c43b1d7058274a71a9734d16e6b6586431$__16815260200161016c565b8180156103b857600080fd5b5061020f6103c7366004613831565b611a0b565b8180156103d857600080fd5b506101ba6103e736600461386a565b611c3c565b6101ba611ed4565b6104076104023660046137fe565b611efa565b60405161016c919061389f565b6101ba7ffc434588684348dd50856b075c47bed14245c1030aa04c32955af5549981462781565b81801561044757600080fd5b506101ba610456366004613904565b612033565b600080306001600160a01b031663be22465d6040518163ffffffff1660e01b8152600401602060405180830381865afa15801561049c573d6000803e3d6000fd5b505050506040513d601f19601f820116820180604052508101906104c0919061395b565b156104e65760405162461bcd60e51b81526004016104dd90613978565b60405180910390fd5b60006105706104fb60808801606089016139af565b604080517f7aabe2571874f2a330ea11c8972d9cc3792d973efc6b36e3e29005861a3441886020828101919091526001600160a01b03939093168183015289356060820152828a01356080820152818a013560a0808301919091528251808303909101815260c0909101909152805191012090565b9050600061057d8261204e565b905060008061058c838b61209c565b909250905060008160048111156105a5576105a56139ca565b146105c25760405162461bcd60e51b81526004016104dd906139e0565b73__$c43b1d7058274a71a9734d16e6b6586431$__63487c69608d6105e63061210a565b6040516001600160e01b031960e085901b1681526106139291908790631ccb7c8d60e31b90600401613a17565b602060405180830381865af4158015610630573d6000803e3d6000fd5b505050506040513d601f19601f82011682018060405250810190610654919061395b565b6106a05760405162461bcd60e51b815260206004820152601b60248201527f557064617465436f6e74657874204163636573732044656e696564000000000060448201526064016104dd565b6106c18c8c60408c01356106ba60a08e0160808f01613a45565b8c8c612149565b9c919b50909950505050505050505050565b600080306001600160a01b031663be22465d6040518163ffffffff1660e01b8152600401602060405180830381865afa158015610714573d6000803e3d6000fd5b505050506040513d601f19601f82011682018060405250810190610738919061395b565b156107555760405162461bcd60e51b81526004016104dd90613978565b600061076a6104fb60808801606089016139af565b905060006107778261204e565b9050600080610786838b61209c565b9092509050600081600481111561079f5761079f6139ca565b146107bc5760405162461bcd60e51b81526004016104dd906139e0565b73__$c43b1d7058274a71a9734d16e6b6586431$__63487c69608c6107e03061210a565b6040516001600160e01b031960e085901b16815261080d92919087906378efa4ed60e11b90600401613a17565b602060405180830381865af415801561082a573d6000803e3d6000fd5b505050506040513d601f19601f8201168201806040525081019061084e919061395b565b61089a5760405162461bcd60e51b815260206004820152601d60248201527f5265676973746572436f6e74657874204163636573732044656e69656400000060448201526064016104dd565b6108ca8b6108ae60808c0160608d016139af565b60408c01356108c360a08e0160808f01613a45565b8c8c612870565b9b919a509098505050505050505050565b604051640312e302e360dc1b60208201526025015b6040516020818303038152906040528051906020012081565b600080306001600160a01b031663be22465d6040518163ffffffff1660e01b8152600401602060405180830381865afa15801561094a573d6000803e3d6000fd5b505050506040513d601f19601f8201168201806040525081019061096e919061395b565b1561098b5760405162461bcd60e51b81526004016104dd90613978565b73__$c43b1d7058274a71a9734d16e6b6586431$__63487c6960866109af3061210a565b6040516001600160e01b031960e085901b1681526109dc929190339063d338640160e01b90600401613a17565b602060405180830381865af41580156109f9573d6000803e3d6000fd5b505050506040513d601f19601f82011682018060405250810190610a1d919061395b565b610a695760405162461bcd60e51b815260206004820152601d60248201527f536574436f6e746578745265616c6d204163636573732044656e69656400000060448201526064016104dd565b83610a733061210a565b03610ac05760405162461bcd60e51b815260206004820181905260248201527f496c6c6567616c204368616e67652041434c20436f6e74657874205265616c6d60448201526064016104dd565b60008481526001808701602052604090912001546001600160a01b0316610af95760405162461bcd60e51b81526004016104dd90613a62565b600083815260038601602052604090208054610b1490613a8d565b9050600003610b355760405162461bcd60e51b81526004016104dd90613ac1565b6000848152600186016020526040902054839003610b955760405162461bcd60e51b815260206004820152601960248201527f496c6c6567616c205265616c6d204475706c69636174696f6e0000000000000060448201526064016104dd565b600084815260018601602090815260408083205486845260038901909252909120610bc39060020186612c4d565b5060008581526001870160209081526040808320548352600389019091529020610bf09060020186612c60565b506001969095509350505050565b6000306001600160a01b031663be22465d6040518163ffffffff1660e01b8152600401602060405180830381865afa158015610c3e573d6000803e3d6000fd5b505050506040513d601f19601f82011682018060405250810190610c62919061395b565b15610c7f5760405162461bcd60e51b81526004016104dd90613978565b73__$c43b1d7058274a71a9734d16e6b6586431$__63487c696086610ca33061210a565b6040516001600160e01b031960e085901b168152610cd0929190339063771bcf4560e01b90600401613a17565b602060405180830381865af4158015610ced573d6000803e3d6000fd5b505050506040513d601f19601f82011682018060405250810190610d11919061395b565b610d5d5760405162461bcd60e51b815260206004820152601e60248201527f4772616e74436f6e74657874526f6c65204163636573732044656e696564000060448201526064016104dd565b83610d673061210a565b03610db45760405162461bcd60e51b815260206004820152601960248201527f496c6c6567616c204772616e742041434c20436f6e746578740000000000000060448201526064016104dd565b60008481526001808701602052604090912001546001600160a01b0316610ded5760405162461bcd60e51b81526004016104dd90613a62565b600082815260028601602052604090208054610e0890613a8d565b9050600003610e295760405162461bcd60e51b81526004016104dd90613aea565b60008481526001860160205260409020610e50906003016001600160e01b03198516612c6c565b610e6c5760405162461bcd60e51b81526004016104dd90613b12565b60008481526001868101602090815260408084206001600160e01b0319881685526002019091529091208381558101805460ff191682805b02179055505050600091825250600191909101602052604090205490565b6000806000306001600160a01b031663be22465d6040518163ffffffff1660e01b8152600401602060405180830381865afa158015610f05573d6000803e3d6000fd5b505050506040513d601f19601f82011682018060405250810190610f29919061395b565b15610f465760405162461bcd60e51b81526004016104dd90613978565b6000610fd7610f5b60c0890160a08a016139af565b610f6b60a08a0160808b016139af565b604080517ffc434588684348dd50856b075c47bed14245c1030aa04c32955af554998146276020808301919091526001600160a01b0394851682840152929093166060840152808b01356080808501919091528151808503909101815260a09093019052815191012090565b90506000610fe48261204e565b9050600080610ff3838c61209c565b9092509050600081600481111561100c5761100c6139ca565b146110295760405162461bcd60e51b81526004016104dd906139e0565b73__$c43b1d7058274a71a9734d16e6b6586431$__63487c69608d61104d3061210a565b6040516001600160e01b031960e085901b16815261107a92919087906378efa4ed60e11b90600401613a17565b602060405180830381865af4158015611097573d6000803e3d6000fd5b505050506040513d601f19601f820116820180604052508101906110bb919061395b565b6111135760405162461bcd60e51b8152602060048201526024808201527f526567697374657250726564696374436f6e74657874204163636573732044656044820152631b9a595960e21b60648201526084016104dd565b6000806111228e8c8c8f612c84565b909f909e50939c50929a5050505050505050505050565b6000306001600160a01b031663be22465d6040518163ffffffff1660e01b8152600401602060405180830381865afa158015611179573d6000803e3d6000fd5b505050506040513d601f19601f8201168201806040525081019061119d919061395b565b156111ba5760405162461bcd60e51b81526004016104dd90613978565b73__$c43b1d7058274a71a9734d16e6b6586431$__63487c6960866111de3061210a565b6040516001600160e01b031960e085901b16815261120b929190339063031c049360e01b90600401613a17565b602060405180830381865af4158015611228573d6000803e3d6000fd5b505050506040513d601f19601f8201168201806040525081019061124c919061395b565b6112985760405162461bcd60e51b815260206004820181905260248201527f416464436f6e7465787446756e63526f6c65204163636573732044656e69656460448201526064016104dd565b60008481526001808701602052604090912001546001600160a01b03166112d15760405162461bcd60e51b81526004016104dd90613a62565b6000828152600286016020526040902080546112ec90613a8d565b905060000361130d5760405162461bcd60e51b81526004016104dd90613aea565b60008481526001860160205260409020611334906003016001600160e01b03198516612c6c565b156113815760405162461bcd60e51b815260206004820152601f60248201527f46756e6374696f6e53656c6563746f7220416c7265616479204578697374730060448201526064016104dd565b60008481526001868101602081815260408085206001600160e01b031989168087526002820184529186208881558501805460ff191690951790945593889052526113d191600390910190612c4d565b505050600091825250600191909101602052604090205490565b6000306001600160a01b031663be22465d6040518163ffffffff1660e01b8152600401602060405180830381865afa15801561142b573d6000803e3d6000fd5b505050506040513d601f19601f8201168201806040525081019061144f919061395b565b1561146c5760405162461bcd60e51b81526004016104dd90613978565b73__$c43b1d7058274a71a9734d16e6b6586431$__63487c6960866114903061210a565b6040516001600160e01b031960e085901b1681526114bd9291903390634346a04b60e01b90600401613a17565b602060405180830381865af41580156114da573d6000803e3d6000fd5b505050506040513d601f19601f820116820180604052508101906114fe919061395b565b61154a5760405162461bcd60e51b815260206004820152601f60248201527f5265766f6b65436f6e74657874526f6c65204163636573732044656e6965640060448201526064016104dd565b836115543061210a565b036115a15760405162461bcd60e51b815260206004820152601a60248201527f496c6c6567616c205265766f6b652041434c20436f6e7465787400000000000060448201526064016104dd565b60008481526001808701602052604090912001546001600160a01b03166115da5760405162461bcd60e51b81526004016104dd90613a62565b6000828152600286016020526040902080546115f590613a8d565b90506000036116165760405162461bcd60e51b81526004016104dd90613aea565b6000848152600186016020526040902061163d906003016001600160e01b03198516612c6c565b6116595760405162461bcd60e51b81526004016104dd90613b12565b60008481526001808701602090815260408084206001600160e01b031988168552600290810190925290922081018054909160ff199091169083610ea4565b600083815260018086016020526040822001546001600160a01b0316158015906116e95750600084815260018601602090815260408083206001600160e01b03198616845260020190915290205483145b80156117355750600160008581526001808801602090815260408084206001600160e01b0319881685526002908101909252909220015460ff1690811115611733576117336139ca565b145b95945050505050565b6040805160c081018252600080825260208201819052918101829052606081018290526080810182905260a081019190915260008281526001808501602052604090912001546001600160a01b03166117a95760405162461bcd60e51b81526004016104dd90613a62565b6000828152600180850160209081526040808420909201548251631d74303760e21b815292516001600160a01b03909116926375d0c0dc9260048083019391928290030181865afa158015611802573d6000803e3d6000fd5b505050506040513d601f19601f820116820180604052508101906118269190613b49565b6000848152600180870160209081526040808420909201548251630505472360e51b8152925194955092936001600160a01b039093169263a0a8e4609260048082019392918290030181865afa158015611884573d6000803e3d6000fd5b505050506040513d601f19601f820116820180604052508101906118a89190613b49565b600085815260018088016020908152604080842090920154825163be22465d60e01b8152925194955092936001600160a01b039093169263be22465d9260048082019392918290030181865afa158015611906573d6000803e3d6000fd5b505050506040513d601f19601f8201168201806040525081019061192a919061395b565b6000868152600180890160209081526040808420909201548251630151e76560e61b8152925194955092936001600160a01b0390931692635479d9409260048082019392918290030181865afa158015611988573d6000803e3d6000fd5b505050506040513d601f19601f820116820180604052508101906119ac919061395b565b6040805160c08101825295865260208087019590955260008881526001808b018088528383208054948a0194909452918a90529552909301546001600160a01b031660608501525015156080830152151560a082015290505b92915050565b600080306001600160a01b031663be22465d6040518163ffffffff1660e01b8152600401602060405180830381865afa158015611a4c573d6000803e3d6000fd5b505050506040513d601f19601f82011682018060405250810190611a70919061395b565b15611a8d5760405162461bcd60e51b81526004016104dd90613978565b73__$c43b1d7058274a71a9734d16e6b6586431$__63487c696086611ab13061210a565b6040516001600160e01b031960e085901b168152611ade92919033906370420ee360e01b90600401613a17565b602060405180830381865af4158015611afb573d6000803e3d6000fd5b505050506040513d601f19601f82011682018060405250810190611b1f919061395b565b611b6b5760405162461bcd60e51b815260206004820152601e60248201527f536574436f6e74657874537461747573204163636573732044656e696564000060448201526064016104dd565b83611b753061210a565b03611bcc5760405162461bcd60e51b815260206004820152602160248201527f496c6c6567616c204368616e67652041434c20436f6e746578742053746174756044820152607360f81b60648201526084016104dd565b60008481526001808701602052604090912001546001600160a01b0316611c055760405162461bcd60e51b81526004016104dd90613a62565b50506000828152600180850160205260409091208082018054841515600160a01b0260ff60a01b1990911617905554935093915050565b6000306001600160a01b031663be22465d6040518163ffffffff1660e01b8152600401602060405180830381865afa158015611c7c573d6000803e3d6000fd5b505050506040513d601f19601f82011682018060405250810190611ca0919061395b565b15611cbd5760405162461bcd60e51b81526004016104dd90613978565b73__$c43b1d7058274a71a9734d16e6b6586431$__63487c696085611ce13061210a565b6040516001600160e01b031960e085901b168152611d0e9291903390635ac4b36f60e11b90600401613a17565b602060405180830381865af4158015611d2b573d6000803e3d6000fd5b505050506040513d601f19601f82011682018060405250810190611d4f919061395b565b611d9b5760405162461bcd60e51b815260206004820152601f60248201527f52656d6f7665436f6e7465787446756e63204163636573732044656e6965640060448201526064016104dd565b82611da53061210a565b03611df25760405162461bcd60e51b815260206004820152601a60248201527f496c6c6567616c2052656d6f76652041434c20436f6e7465787400000000000060448201526064016104dd565b60008381526001808601602052604090912001546001600160a01b0316611e2b5760405162461bcd60e51b81526004016104dd90613a62565b60008381526001850160205260409020611e52906003016001600160e01b03198416612c6c565b611e6e5760405162461bcd60e51b81526004016104dd90613b12565b60008381526001808601602081815260408085206001600160e01b03198816808752600282018452918620868155909401805460ff191690559387905252611ebb91600390910190612c60565b5050506000908152600191909101602052604090205490565b604051711310dbdb9d195e1d13585b9859d95b595b9d60721b60208201526032016108f0565b60008181526001808401602052604090912001546060906001600160a01b0316611f365760405162461bcd60e51b81526004016104dd90613a62565b60008281526001840160205260408120611f52906003016130d2565b67ffffffffffffffff811115611f6a57611f6a61349f565b604051908082528060200260200182016040528015611f93578160200160208202803683370190505b50905060005b60008481526001860160205260409020611fb5906003016130d2565b8163ffffffff16101561202b5760008481526001860160205260409020611fe89060030163ffffffff808416906130dc16565b828263ffffffff168151811061200057612000613b62565b6001600160e01b0319909216602092830291909101909101528061202381613b8e565b915050611f99565b509392505050565b600061204486868660018787612870565b9695505050505050565b6000611a0561205b6130e8565b8360405161190160f01b6020820152602281018390526042810182905260009060620160405160208183030381529060405280519060200120905092915050565b60008082516041036120d25760208301516040840151606085015160001a6120c687828585613210565b94509450505050612103565b82516040036120fb57602083015160408401516120f08683836132fa565b935093505050612103565b506000905060025b9250929050565b6040516bffffffffffffffffffffffff19606083901b166020820152600090603401604051602081830303815290604052805190602001209050919050565b600085815260018088016020526040822001546001600160a01b0316806121825760405162461bcd60e51b81526004016104dd90613a62565b6001600160a01b03811633146121da5760405162461bcd60e51b815260206004820152601860248201527f55706461746520436f6e7465787420466f7262696464656e000000000000000060448201526064016104dd565b6000868152600389016020526040902080546121f590613a8d565b90506000036122165760405162461bcd60e51b81526004016104dd90613ac1565b600087815260018981016020526040909120908101805460ff60a01b1916600160a01b88151502179055548614612293576000878152600189016020908152604080832054835260038b0190915290206122739060020188612c60565b50600086815260038901602052604090206122919060020188612c4d565b505b600087815260018901602052604081208790555b83811015612864578860020160008686848181106122c7576122c7613b62565b90506020028101906122d99190613bb1565b358152602081019190915260400160002080546122f590613a8d565b90506000036123165760405162461bcd60e51b81526004016104dd90613aea565b60005b85858381811061232b5761232b613b62565b905060200281019061233d9190613bb1565b61234b906020810190613bd1565b905081101561285157600186868481811061236857612368613b62565b905060200281019061237a9190613bb1565b61238b906060810190604001613c1b565b600281111561239c5761239c6139ca565b14806123ed575060008686848181106123b7576123b7613b62565b90506020028101906123c99190613bb1565b6123da906060810190604001613c1b565b60028111156123eb576123eb6139ca565b145b156126a75785858381811061240457612404613b62565b90506020028101906124169190613bb1565b60008a815260018c01602052604081209135916002019088888681811061243f5761243f613b62565b90506020028101906124519190613bb1565b61245f906020810190613bd1565b8581811061246f5761246f613b62565b90506020020160208101906124849190613c3c565b6001600160e01b031916815260208101919091526040016000205560018686848181106124b3576124b3613b62565b90506020028101906124c59190613bb1565b6124d6906060810190604001613c1b565b60028111156124e7576124e76139ca565b146124f35760026124f6565b60015b60008a815260018c01602052604081206002019088888681811061251c5761251c613b62565b905060200281019061252e9190613bb1565b61253c906020810190613bd1565b8581811061254c5761254c613b62565b90506020020160208101906125619190613c3c565b6001600160e01b0319168152602081019190915260400160002060019081018054909160ff199091169083600281111561259d5761259d6139ca565b021790555061261f8686848181106125b7576125b7613b62565b90506020028101906125c99190613bb1565b6125d7906020810190613bd1565b838181106125e7576125e7613b62565b90506020020160208101906125fc9190613c3c565b60008b815260018d0160205260409020600301906001600160e01b031916612c6c565b6126a2576126a086868481811061263857612638613b62565b905060200281019061264a9190613bb1565b612658906020810190613bd1565b8381811061266857612668613b62565b905060200201602081019061267d9190613c3c565b60008b815260018d0160205260409020600301906001600160e01b031916612c4d565b505b61283f565b600089815260018b0160205260408120600201908787858181106126cd576126cd613b62565b90506020028101906126df9190613bb1565b6126ed906020810190613bd1565b848181106126fd576126fd613b62565b90506020020160208101906127129190613c3c565b6001600160e01b0319168152602080820192909252604090810160009081208190558b815260018d0190925281206002019087878581811061275657612756613b62565b90506020028101906127689190613bb1565b612776906020810190613bd1565b8481811061278657612786613b62565b905060200201602081019061279b9190613c3c565b6001600160e01b03191681526020810191909152604001600020600101805460ff1916905561283d8686848181106127d5576127d5613b62565b90506020028101906127e79190613bb1565b6127f5906020810190613bd1565b8381811061280557612805613b62565b905060200201602081019061281a9190613c3c565b60008b815260018d0160205260409020600301906001600160e01b031916612c60565b505b8061284981613c57565b915050612319565b508061285c81613c57565b9150506122a7565b50979650505050505050565b60008481526003870160205260408120805461288b90613a8d565b90506000036128ac5760405162461bcd60e51b81526004016104dd90613ac1565b60006128b78761210a565b60008181526001808b01602052604090912001549091506001600160a01b0316156129245760405162461bcd60e51b815260206004820152601a60248201527f436f6e7465787420416c7265616479205265676973746572656400000000000060448201526064016104dd565b600086815260038901602052604090206129419060020182612c4d565b5060008181526001808a01602052604082208881559081018054881515600160a01b026001600160a81b03199091166001600160a01b038c1617179055905b84811015612c3f578960020160008787848181106129a0576129a0613b62565b90506020028101906129b29190613bb1565b358152602081019190915260400160002080546129ce90613a8d565b90506000036129ef5760405162461bcd60e51b81526004016104dd90613aea565b60005b868683818110612a0457612a04613b62565b9050602002810190612a169190613bb1565b612a24906020810190613bd1565b9050811015612c2c57868683818110612a3f57612a3f613b62565b9050602002810190612a519190613bb1565b35600284016000898986818110612a6a57612a6a613b62565b9050602002810190612a7c9190613bb1565b612a8a906020810190613bd1565b85818110612a9a57612a9a613b62565b9050602002016020810190612aaf9190613c3c565b6001600160e01b0319168152602081019190915260400160002055868683818110612adc57612adc613b62565b9050602002810190612aee9190613bb1565b612aff906060810190604001613a45565b612b0a576002612b0d565b60015b836002016000898986818110612b2557612b25613b62565b9050602002810190612b379190613bb1565b612b45906020810190613bd1565b85818110612b5557612b55613b62565b9050602002016020810190612b6a9190613c3c565b6001600160e01b0319168152602081019190915260400160002060019081018054909160ff1990911690836002811115612ba657612ba66139ca565b0217905550612c19878784818110612bc057612bc0613b62565b9050602002810190612bd29190613bb1565b612be0906020810190613bd1565b83818110612bf057612bf0613b62565b9050602002016020810190612c059190613c3c565b60038501906001600160e01b031916612c4d565b5080612c2481613c57565b9150506129f2565b5080612c3781613c57565b915050612980565b509098975050505050505050565b6000612c598383613333565b9392505050565b6000612c598383613382565b60008181526001830160205260408120541515612c59565b6040808201356000908152600386016020529081208054829190612ca790613a8d565b9050600003612cc85760405162461bcd60e51b81526004016104dd90613ac1565b6000612d5b6060850135612ce260c0870160a088016139af565b612cf260a08801608089016139af565b6001600160a01b03169190604051733d602d80600a3d3981f3363d3d373d3d3d363d7360601b8152606093841b60148201526f5af43d82803e903d91602b57fd5bf3ff60801b6028820152921b6038830152604c8201526037808220606c830152605591012090565b90506000612d688261210a565b60008181526001808b01602052604090912001549091506001600160a01b031615612dd55760405162461bcd60e51b815260206004820152601a60248201527f436f6e7465787420416c7265616479205265676973746572656400000000000060448201526064016104dd565b604080860135600090815260038a0160205220612df59060020182612c4d565b5060008181526001898101602052604091829020918701358255810180546001600160a01b0319166001600160a01b038516179055612e3a60e0870160c08801613a45565b600182018054911515600160a01b0260ff60a01b1990921691909117905560005b878110156130c1578960020160008a8a84818110612e7b57612e7b613b62565b9050602002810190612e8d9190613bb1565b35815260208101919091526040016000208054612ea990613a8d565b9050600003612eca5760405162461bcd60e51b81526004016104dd90613aea565b60005b898983818110612edf57612edf613b62565b9050602002810190612ef19190613bb1565b612eff906020810190613bd1565b90508110156130ae57898983818110612f1a57612f1a613b62565b9050602002810190612f2c9190613bb1565b356002840160008c8c86818110612f4557612f45613b62565b9050602002810190612f579190613bb1565b612f65906020810190613bd1565b85818110612f7557612f75613b62565b9050602002016020810190612f8a9190613c3c565b6001600160e01b0319168152602081019190915260400160002055898983818110612fb757612fb7613b62565b9050602002810190612fc99190613bb1565b612fda906060810190604001613a45565b612fe5576002612fe8565b60015b8360020160008c8c8681811061300057613000613b62565b90506020028101906130129190613bb1565b613020906020810190613bd1565b8581811061303057613030613b62565b90506020020160208101906130459190613c3c565b6001600160e01b0319168152602081019190915260400160002060019081018054909160ff1990911690836002811115613081576130816139ca565b021790555061309b8a8a84818110612bc057612bc0613b62565b50806130a681613c57565b915050612ecd565b50806130b981613c57565b915050612e5b565b509193509150505b94509492505050565b6000611a05825490565b6000612c598383613475565b60007f8b73c3c69bb8fe3d512ecc4cf759cc79239f7b179b0ffacaa9a75d522b39400f306001600160a01b03166375d0c0dc6040518163ffffffff1660e01b8152600401602060405180830381865afa158015613149573d6000803e3d6000fd5b505050506040513d601f19601f8201168201806040525081019061316d9190613b49565b306001600160a01b031663a0a8e4606040518163ffffffff1660e01b8152600401602060405180830381865afa1580156131ab573d6000803e3d6000fd5b505050506040513d601f19601f820116820180604052508101906131cf9190613b49565b60408051602081019490945283019190915260608201524660808201523060a082015260c00160405160208183030381529060405280519060200120905090565b6000807f7fffffffffffffffffffffffffffffff5d576e7357a4501ddfe92f46681b20a083111561324757506000905060036130c9565b8460ff16601b1415801561325f57508460ff16601c14155b1561327057506000905060046130c9565b6040805160008082526020820180845289905260ff881692820192909252606081018690526080810185905260019060a0016020604051602081039080840390855afa1580156132c4573d6000803e3d6000fd5b5050604051601f1901519150506001600160a01b0381166132ed576000600192509250506130c9565b9660009650945050505050565b6000806001600160ff1b0383168161331760ff86901c601b613c70565b905061332587828885613210565b935093505050935093915050565b600081815260018301602052604081205461337a57508154600181810184556000848152602080822090930184905584548482528286019093526040902091909155611a05565b506000611a05565b6000818152600183016020526040812054801561346b5760006133a6600183613c83565b85549091506000906133ba90600190613c83565b905081811461341f5760008660000182815481106133da576133da613b62565b90600052602060002001549050808760000184815481106133fd576133fd613b62565b6000918252602080832090910192909255918252600188019052604090208390555b855486908061343057613430613c96565b600190038181906000526020600020016000905590558560010160008681526020019081526020016000206000905560019350505050611a05565b6000915050611a05565b600082600001828154811061348c5761348c613b62565b9060005260206000200154905092915050565b634e487b7160e01b600052604160045260246000fd5b600082601f8301126134c657600080fd5b813567ffffffffffffffff808211156134e1576134e161349f565b604051601f8301601f19908116603f011681019082821181831017156135095761350961349f565b8160405283815286602085880101111561352257600080fd5b836020870160208301376000602085830101528094505050505092915050565b600060a0828403121561355457600080fd5b50919050565b60008083601f84011261356c57600080fd5b50813567ffffffffffffffff81111561358457600080fd5b6020830191508360208260051b850101111561210357600080fd5b60008060008060008061012087890312156135b957600080fd5b8635955060208701359450604087013567ffffffffffffffff808211156135df57600080fd5b6135eb8a838b016134b5565b95506135fa8a60608b01613542565b945061010089013591508082111561361157600080fd5b5061361e89828a0161355a565b979a9699509497509295939492505050565b6000806000806000610100868803121561364957600080fd5b85359450602086013567ffffffffffffffff8082111561366857600080fd5b61367489838a016134b5565b95506136838960408a01613542565b945060e088013591508082111561369957600080fd5b506136a68882890161355a565b969995985093965092949392505050565b6000806000606084860312156136cc57600080fd5b505081359360208301359350604090920135919050565b80356001600160e01b0319811681146136fb57600080fd5b919050565b6000806000806080858703121561371657600080fd5b843593506020850135925061372d604086016136e3565b9396929550929360600135925050565b600080600080600085870361014081121561375757600080fd5b86359550602087013567ffffffffffffffff8082111561377657600080fd5b6137828a838b016134b5565b965060e0603f198401121561379657600080fd5b6040890195506101208901359250808311156137b157600080fd5b50506136a68882890161355a565b600080600080608085870312156137d557600080fd5b8435935060208501359250604085013591506137f3606086016136e3565b905092959194509250565b6000806040838503121561381157600080fd5b50508035926020909101359150565b801515811461382e57600080fd5b50565b60008060006060848603121561384657600080fd5b8335925060208401359150604084013561385f81613820565b809150509250925092565b60008060006060848603121561387f57600080fd5b8335925060208401359150613896604085016136e3565b90509250925092565b6020808252825182820181905260009190848201906040850190845b818110156138e15783516001600160e01b031916835292840192918401916001016138bb565b50909695505050505050565b80356001600160a01b03811681146136fb57600080fd5b60008060008060006080868803121561391c57600080fd5b8535945061392c602087016138ed565b935060408601359250606086013567ffffffffffffffff81111561394f57600080fd5b6136a68882890161355a565b60006020828403121561396d57600080fd5b8151612c5981613820565b60208082526017908201527f536166654d6f64653a2043616c6c2052656a6563746564000000000000000000604082015260600190565b6000602082840312156139c157600080fd5b612c59826138ed565b634e487b7160e01b600052602160045260246000fd5b60208082526018908201527f496c6c6567616c20454344415341205369676e61747572650000000000000000604082015260600190565b93845260208401929092526001600160a01b031660408301526001600160e01b031916606082015260800190565b600060208284031215613a5757600080fd5b8135612c5981613820565b60208082526011908201527010dbdb9d195e1d08139bdd08119bdd5b99607a1b604082015260600190565b600181811c90821680613aa157607f821691505b60208210810361355457634e487b7160e01b600052602260045260246000fd5b6020808252600f908201526e1499585b1b48139bdd08119bdd5b99608a1b604082015260600190565b6020808252600e908201526d149bdb1948139bdd08119bdd5b9960921b604082015260600190565b6020808252601a908201527f46756e6374696f6e53656c6563746f72204e6f7420466f756e64000000000000604082015260600190565b600060208284031215613b5b57600080fd5b5051919050565b634e487b7160e01b600052603260045260246000fd5b634e487b7160e01b600052601160045260246000fd5b600063ffffffff808316818103613ba757613ba7613b78565b6001019392505050565b60008235605e19833603018112613bc757600080fd5b9190910192915050565b6000808335601e19843603018112613be857600080fd5b83018035915067ffffffffffffffff821115613c0357600080fd5b6020019150600581901b360382131561210357600080fd5b600060208284031215613c2d57600080fd5b813560038110612c5957600080fd5b600060208284031215613c4e57600080fd5b612c59826136e3565b600060018201613c6957613c69613b78565b5060010190565b80820180821115611a0557611a05613b78565b81810381811115611a0557611a05613b78565b634e487b7160e01b600052603160045260246000fdfea264697066735822122079799bed46034f98be1fb9b9d8a6c32279943b85cdef1336bfbc6636b1b1e67064736f6c63430008110033",
  "linkReferences": {
    "src/contracts/lib/acl/LAccessControl.sol": {
      "LAccessControl": [
        {
          "length": 20,
          "start": 968
        },
        {
          "length": 20,
          "start": 1534
        },
        {
          "length": 20,
          "start": 2040
        },
        {
          "length": 20,
          "start": 2503
        },
        {
          "length": 20,
          "start": 3259
        },
        {
          "length": 20,
          "start": 4197
        },
        {
          "length": 20,
          "start": 4598
        },
        {
          "length": 20,
          "start": 5288
        },
        {
          "length": 20,
          "start": 6857
        },
        {
          "length": 20,
          "start": 7417
        }
      ]
    }
  },
  "deployedLinkReferences": {
    "src/contracts/lib/acl/LAccessControl.sol": {
      "LAccessControl": [
        {
          "length": 20,
          "start": 910
        },
        {
          "length": 20,
          "start": 1476
        },
        {
          "length": 20,
          "start": 1982
        },
        {
          "length": 20,
          "start": 2445
        },
        {
          "length": 20,
          "start": 3201
        },
        {
          "length": 20,
          "start": 4139
        },
        {
          "length": 20,
          "start": 4540
        },
        {
          "length": 20,
          "start": 5230
        },
        {
          "length": 20,
          "start": 6799
        },
        {
          "length": 20,
          "start": 7359
        }
      ]
    }
  },
  "devdoc": {
    "kind": "dev",
    "methods": {},
    "version": 1
  },
  "evm": {
    "bytecode": {
      "linkReferences": {
        "src/contracts/lib/acl/LAccessControl.sol": {
          "LAccessControl": [
            {
              "length": 20,
              "start": 968
            },
            {
              "length": 20,
              "start": 1534
            },
            {
              "length": 20,
              "start": 2040
            },
            {
              "length": 20,
              "start": 2503
            },
            {
              "length": 20,
              "start": 3259
            },
            {
              "length": 20,
              "start": 4197
            },
            {
              "length": 20,
              "start": 4598
            },
            {
              "length": 20,
              "start": 5288
            },
            {
              "length": 20,
              "start": 6857
            },
            {
              "length": 20,
              "start": 7417
            }
          ]
        }
      },
      "opcodes": "PUSH2 0x3CE2 PUSH2 0x3A PUSH1 0xB DUP3 DUP3 DUP3 CODECOPY DUP1 MLOAD PUSH1 0x0 BYTE PUSH1 0x73 EQ PUSH2 0x2D JUMPI PUSH4 0x4E487B71 PUSH1 0xE0 SHL PUSH1 0x0 MSTORE PUSH1 0x0 PUSH1 0x4 MSTORE PUSH1 0x24 PUSH1 0x0 REVERT JUMPDEST ADDRESS PUSH1 0x0 MSTORE PUSH1 0x73 DUP2 MSTORE8 DUP3 DUP2 RETURN INVALID PUSH20 0x0 ADDRESS EQ PUSH1 0x80 PUSH1 0x40 MSTORE PUSH1 0x4 CALLDATASIZE LT PUSH2 0x12B JUMPI PUSH1 0x0 CALLDATALOAD PUSH1 0xE0 SHR DUP1 PUSH4 0x64D4C819 GT PUSH2 0xB7 JUMPI DUP1 PUSH4 0xB0C25575 GT PUSH2 0x7B JUMPI DUP1 PUSH4 0xB0C25575 EQ PUSH2 0x3CC JUMPI DUP1 PUSH4 0xBEC94751 EQ PUSH2 0x3EC JUMPI DUP1 PUSH4 0xEC77EB21 EQ PUSH2 0x3F4 JUMPI DUP1 PUSH4 0xF0B15DEF EQ PUSH2 0x414 JUMPI DUP1 PUSH4 0xFAEE6718 EQ PUSH2 0x43B JUMPI PUSH1 0x0 DUP1 REVERT JUMPDEST DUP1 PUSH4 0x64D4C819 EQ PUSH2 0x2D0 JUMPI DUP1 PUSH4 0x7134BB45 EQ PUSH2 0x2F7 JUMPI DUP1 PUSH4 0x733AE93E EQ PUSH2 0x31A JUMPI DUP1 PUSH4 0x7678922E EQ PUSH2 0x381 JUMPI DUP1 PUSH4 0x7CC5941D EQ PUSH2 0x3AC JUMPI PUSH1 0x0 DUP1 REVERT JUMPDEST DUP1 PUSH4 0x3E015EF6 GT PUSH2 0xFE JUMPI DUP1 PUSH4 0x3E015EF6 EQ PUSH2 0x1EF JUMPI DUP1 PUSH4 0x453DD6DC EQ PUSH2 0x226 JUMPI DUP1 PUSH4 0x4AC3FDD4 EQ PUSH2 0x246 JUMPI DUP1 PUSH4 0x518BF960 EQ PUSH2 0x290 JUMPI DUP1 PUSH4 0x5ACD816A EQ PUSH2 0x2B0 JUMPI PUSH1 0x0 DUP1 REVERT JUMPDEST DUP1 PUSH4 0x99A0C2E EQ PUSH2 0x130 JUMPI DUP1 PUSH4 0x15922EFE EQ PUSH2 0x175 JUMPI DUP1 PUSH4 0x2466209B EQ PUSH2 0x1B2 JUMPI DUP1 PUSH4 0x34109DE2 EQ PUSH2 0x1C8 JUMPI JUMPDEST PUSH1 0x0 DUP1 REVERT JUMPDEST DUP2 DUP1 ISZERO PUSH2 0x13C JUMPI PUSH1 0x0 DUP1 REVERT JUMPDEST POP PUSH2 0x150 PUSH2 0x14B CALLDATASIZE PUSH1 0x4 PUSH2 0x359F JUMP JUMPDEST PUSH2 0x45B JUMP JUMPDEST PUSH1 0x40 DUP1 MLOAD PUSH1 0x1 PUSH1 0x1 PUSH1 0xA0 SHL SUB SWAP4 DUP5 AND DUP2 MSTORE SWAP3 SWAP1 SWAP2 AND PUSH1 0x20 DUP4 ADD MSTORE ADD JUMPDEST PUSH1 0x40 MLOAD DUP1 SWAP2 SUB SWAP1 RETURN JUMPDEST DUP2 DUP1 ISZERO PUSH2 0x181 JUMPI PUSH1 0x0 DUP1 REVERT JUMPDEST POP PUSH2 0x195 PUSH2 0x190 CALLDATASIZE PUSH1 0x4 PUSH2 0x3630 JUMP JUMPDEST PUSH2 0x6D3 JUMP JUMPDEST PUSH1 0x40 DUP1 MLOAD SWAP3 DUP4 MSTORE PUSH1 0x1 PUSH1 0x1 PUSH1 0xA0 SHL SUB SWAP1 SWAP2 AND PUSH1 0x20 DUP4 ADD MSTORE ADD PUSH2 0x16C JUMP JUMPDEST PUSH2 0x1BA PUSH2 0x8DB JUMP JUMPDEST PUSH1 0x40 MLOAD SWAP1 DUP2 MSTORE PUSH1 0x20 ADD PUSH2 0x16C JUMP JUMPDEST PUSH2 0x1BA PUSH32 0x7AABE2571874F2A330EA11C8972D9CC3792D973EFC6B36E3E29005861A344188 DUP2 JUMP JUMPDEST DUP2 DUP1 ISZERO PUSH2 0x1FB JUMPI PUSH1 0x0 DUP1 REVERT JUMPDEST POP PUSH2 0x20F PUSH2 0x20A CALLDATASIZE PUSH1 0x4 PUSH2 0x36B7 JUMP JUMPDEST PUSH2 0x909 JUMP JUMPDEST PUSH1 0x40 DUP1 MLOAD SWAP3 ISZERO ISZERO DUP4 MSTORE PUSH1 0x20 DUP4 ADD SWAP2 SWAP1 SWAP2 MSTORE ADD PUSH2 0x16C JUMP JUMPDEST DUP2 DUP1 ISZERO PUSH2 0x232 JUMPI PUSH1 0x0 DUP1 REVERT JUMPDEST POP PUSH2 0x1BA PUSH2 0x241 CALLDATASIZE PUSH1 0x4 PUSH2 0x3700 JUMP JUMPDEST PUSH2 0xBFE JUMP JUMPDEST DUP2 DUP1 ISZERO PUSH2 0x252 JUMPI PUSH1 0x0 DUP1 REVERT JUMPDEST POP PUSH2 0x266 PUSH2 0x261 CALLDATASIZE PUSH1 0x4 PUSH2 0x373D JUMP JUMPDEST PUSH2 0xEC2 JUMP JUMPDEST PUSH1 0x40 DUP1 MLOAD PUSH1 0x1 PUSH1 0x1 PUSH1 0xA0 SHL SUB SWAP5 DUP6 AND DUP2 MSTORE PUSH1 0x20 DUP2 ADD SWAP4 SWAP1 SWAP4 MSTORE SWAP3 AND SWAP2 DUP2 ADD SWAP2 SWAP1 SWAP2 MSTORE PUSH1 0x60 ADD PUSH2 0x16C JUMP JUMPDEST DUP2 DUP1 ISZERO PUSH2 0x29C JUMPI PUSH1 0x0 DUP1 REVERT JUMPDEST POP PUSH2 0x1BA PUSH2 0x2AB CALLDATASIZE PUSH1 0x4 PUSH2 0x3700 JUMP JUMPDEST PUSH2 0x1139 JUMP JUMPDEST DUP2 DUP1 ISZERO PUSH2 0x2BC JUMPI PUSH1 0x0 DUP1 REVERT JUMPDEST POP PUSH2 0x1BA PUSH2 0x2CB CALLDATASIZE PUSH1 0x4 PUSH2 0x3700 JUMP JUMPDEST PUSH2 0x13EB JUMP JUMPDEST PUSH2 0x1BA PUSH32 0x8B73C3C69BB8FE3D512ECC4CF759CC79239F7B179B0FFACAA9A75D522B39400F DUP2 JUMP JUMPDEST PUSH2 0x30A PUSH2 0x305 CALLDATASIZE PUSH1 0x4 PUSH2 0x37BF JUMP JUMPDEST PUSH2 0x1698 JUMP JUMPDEST PUSH1 0x40 MLOAD SWAP1 ISZERO ISZERO DUP2 MSTORE PUSH1 0x20 ADD PUSH2 0x16C JUMP JUMPDEST PUSH2 0x32D PUSH2 0x328 CALLDATASIZE PUSH1 0x4 PUSH2 0x37FE JUMP JUMPDEST PUSH2 0x173E JUMP JUMPDEST PUSH1 0x40 MLOAD PUSH2 0x16C SWAP2 SWAP1 DUP2 MLOAD DUP2 MSTORE PUSH1 0x20 DUP1 DUP4 ADD MLOAD SWAP1 DUP3 ADD MSTORE PUSH1 0x40 DUP1 DUP4 ADD MLOAD SWAP1 DUP3 ADD MSTORE PUSH1 0x60 DUP1 DUP4 ADD MLOAD PUSH1 0x1 PUSH1 0x1 PUSH1 0xA0 SHL SUB AND SWAP1 DUP3 ADD MSTORE PUSH1 0x80 DUP1 DUP4 ADD MLOAD ISZERO ISZERO SWAP1 DUP3 ADD MSTORE PUSH1 0xA0 SWAP2 DUP3 ADD MLOAD ISZERO ISZERO SWAP2 DUP2 ADD SWAP2 SWAP1 SWAP2 MSTORE PUSH1 0xC0 ADD SWAP1 JUMP JUMPDEST PUSH1 0x40 MLOAD PUSH1 0x1 PUSH1 0x1 PUSH1 0xA0 SHL SUB PUSH20 0x0 AND DUP2 MSTORE PUSH1 0x20 ADD PUSH2 0x16C JUMP JUMPDEST DUP2 DUP1 ISZERO PUSH2 0x3B8 JUMPI PUSH1 0x0 DUP1 REVERT JUMPDEST POP PUSH2 0x20F PUSH2 0x3C7 CALLDATASIZE PUSH1 0x4 PUSH2 0x3831 JUMP JUMPDEST PUSH2 0x1A0B JUMP JUMPDEST DUP2 DUP1 ISZERO PUSH2 0x3D8 JUMPI PUSH1 0x0 DUP1 REVERT JUMPDEST POP PUSH2 0x1BA PUSH2 0x3E7 CALLDATASIZE PUSH1 0x4 PUSH2 0x386A JUMP JUMPDEST PUSH2 0x1C3C JUMP JUMPDEST PUSH2 0x1BA PUSH2 0x1ED4 JUMP JUMPDEST PUSH2 0x407 PUSH2 0x402 CALLDATASIZE PUSH1 0x4 PUSH2 0x37FE JUMP JUMPDEST PUSH2 0x1EFA JUMP JUMPDEST PUSH1 0x40 MLOAD PUSH2 0x16C SWAP2 SWAP1 PUSH2 0x389F JUMP JUMPDEST PUSH2 0x1BA PUSH32 0xFC434588684348DD50856B075C47BED14245C1030AA04C32955AF55499814627 DUP2 JUMP JUMPDEST DUP2 DUP1 ISZERO PUSH2 0x447 JUMPI PUSH1 0x0 DUP1 REVERT JUMPDEST POP PUSH2 0x1BA PUSH2 0x456 CALLDATASIZE PUSH1 0x4 PUSH2 0x3904 JUMP JUMPDEST PUSH2 0x2033 JUMP JUMPDEST PUSH1 0x0 DUP1 ADDRESS PUSH1 0x1 PUSH1 0x1 PUSH1 0xA0 SHL SUB AND PUSH4 0xBE22465D PUSH1 0x40 MLOAD DUP2 PUSH4 0xFFFFFFFF AND PUSH1 0xE0 SHL DUP2 MSTORE PUSH1 0x4 ADD PUSH1 0x20 PUSH1 0x40 MLOAD DUP1 DUP4 SUB DUP2 DUP7 GAS STATICCALL ISZERO DUP1 ISZERO PUSH2 0x49C JUMPI RETURNDATASIZE PUSH1 0x0 DUP1 RETURNDATACOPY RETURNDATASIZE PUSH1 0x0 REVERT JUMPDEST POP POP POP POP PUSH1 0x40 MLOAD RETURNDATASIZE PUSH1 0x1F NOT PUSH1 0x1F DUP3 ADD AND DUP3 ADD DUP1 PUSH1 0x40 MSTORE POP DUP2 ADD SWAP1 PUSH2 0x4C0 SWAP2 SWAP1 PUSH2 0x395B JUMP JUMPDEST ISZERO PUSH2 0x4E6 JUMPI PUSH1 0x40 MLOAD PUSH3 0x461BCD PUSH1 0xE5 SHL DUP2 MSTORE PUSH1 0x4 ADD PUSH2 0x4DD SWAP1 PUSH2 0x3978 JUMP JUMPDEST PUSH1 0x40 MLOAD DUP1 SWAP2 SUB SWAP1 REVERT JUMPDEST PUSH1 0x0 PUSH2 0x570 PUSH2 0x4FB PUSH1 0x80 DUP9 ADD PUSH1 0x60 DUP10 ADD PUSH2 0x39AF JUMP JUMPDEST PUSH1 0x40 DUP1 MLOAD PUSH32 0x7AABE2571874F2A330EA11C8972D9CC3792D973EFC6B36E3E29005861A344188 PUSH1 0x20 DUP3 DUP2 ADD SWAP2 SWAP1 SWAP2 MSTORE PUSH1 0x1 PUSH1 0x1 PUSH1 0xA0 SHL SUB SWAP4 SWAP1 SWAP4 AND DUP2 DUP4 ADD MSTORE DUP10 CALLDATALOAD PUSH1 0x60 DUP3 ADD MSTORE DUP3 DUP11 ADD CALLDATALOAD PUSH1 0x80 DUP3 ADD MSTORE DUP2 DUP11 ADD CALLDATALOAD PUSH1 0xA0 DUP1 DUP4 ADD SWAP2 SWAP1 SWAP2 MSTORE DUP3 MLOAD DUP1 DUP4 SUB SWAP1 SWAP2 ADD DUP2 MSTORE PUSH1 0xC0 SWAP1 SWAP2 ADD SWAP1 SWAP2 MSTORE DUP1 MLOAD SWAP2 ADD KECCAK256 SWAP1 JUMP JUMPDEST SWAP1 POP PUSH1 0x0 PUSH2 0x57D DUP3 PUSH2 0x204E JUMP JUMPDEST SWAP1 POP PUSH1 0x0 DUP1 PUSH2 0x58C DUP4 DUP12 PUSH2 0x209C JUMP JUMPDEST SWAP1 SWAP3 POP SWAP1 POP PUSH1 0x0 DUP2 PUSH1 0x4 DUP2 GT ISZERO PUSH2 0x5A5 JUMPI PUSH2 0x5A5 PUSH2 0x39CA JUMP JUMPDEST EQ PUSH2 0x5C2 JUMPI PUSH1 0x40 MLOAD PUSH3 0x461BCD PUSH1 0xE5 SHL DUP2 MSTORE PUSH1 0x4 ADD PUSH2 0x4DD SWAP1 PUSH2 0x39E0 JUMP JUMPDEST PUSH20 0x0 PUSH4 0x487C6960 DUP14 PUSH2 0x5E6 ADDRESS PUSH2 0x210A JUMP JUMPDEST PUSH1 0x40 MLOAD PUSH1 0x1 PUSH1 0x1 PUSH1 0xE0 SHL SUB NOT PUSH1 0xE0 DUP6 SWAP1 SHL AND DUP2 MSTORE PUSH2 0x613 SWAP3 SWAP2 SWAP1 DUP8 SWAP1 PUSH4 0x1CCB7C8D PUSH1 0xE3 SHL SWAP1 PUSH1 0x4 ADD PUSH2 0x3A17 JUMP JUMPDEST PUSH1 0x20 PUSH1 0x40 MLOAD DUP1 DUP4 SUB DUP2 DUP7 GAS DELEGATECALL ISZERO DUP1 ISZERO PUSH2 0x630 JUMPI RETURNDATASIZE PUSH1 0x0 DUP1 RETURNDATACOPY RETURNDATASIZE PUSH1 0x0 REVERT JUMPDEST POP POP POP POP PUSH1 0x40 MLOAD RETURNDATASIZE PUSH1 0x1F NOT PUSH1 0x1F DUP3 ADD AND DUP3 ADD DUP1 PUSH1 0x40 MSTORE POP DUP2 ADD SWAP1 PUSH2 0x654 SWAP2 SWAP1 PUSH2 0x395B JUMP JUMPDEST PUSH2 0x6A0 JUMPI PUSH1 0x40 MLOAD PUSH3 0x461BCD PUSH1 0xE5 SHL DUP2 MSTORE PUSH1 0x20 PUSH1 0x4 DUP3 ADD MSTORE PUSH1 0x1B PUSH1 0x24 DUP3 ADD MSTORE PUSH32 0x557064617465436F6E74657874204163636573732044656E6965640000000000 PUSH1 0x44 DUP3 ADD MSTORE PUSH1 0x64 ADD PUSH2 0x4DD JUMP JUMPDEST PUSH2 0x6C1 DUP13 DUP13 PUSH1 0x40 DUP13 ADD CALLDATALOAD PUSH2 0x6BA PUSH1 0xA0 DUP15 ADD PUSH1 0x80 DUP16 ADD PUSH2 0x3A45 JUMP JUMPDEST DUP13 DUP13 PUSH2 0x2149 JUMP JUMPDEST SWAP13 SWAP2 SWAP12 POP SWAP1 SWAP10 POP POP POP POP POP POP POP POP POP POP JUMP JUMPDEST PUSH1 0x0 DUP1 ADDRESS PUSH1 0x1 PUSH1 0x1 PUSH1 0xA0 SHL SUB AND PUSH4 0xBE22465D PUSH1 0x40 MLOAD DUP2 PUSH4 0xFFFFFFFF AND PUSH1 0xE0 SHL DUP2 MSTORE PUSH1 0x4 ADD PUSH1 0x20 PUSH1 0x40 MLOAD DUP1 DUP4 SUB DUP2 DUP7 GAS STATICCALL ISZERO DUP1 ISZERO PUSH2 0x714 JUMPI RETURNDATASIZE PUSH1 0x0 DUP1 RETURNDATACOPY RETURNDATASIZE PUSH1 0x0 REVERT JUMPDEST POP POP POP POP PUSH1 0x40 MLOAD RETURNDATASIZE PUSH1 0x1F NOT PUSH1 0x1F DUP3 ADD AND DUP3 ADD DUP1 PUSH1 0x40 MSTORE POP DUP2 ADD SWAP1 PUSH2 0x738 SWAP2 SWAP1 PUSH2 0x395B JUMP JUMPDEST ISZERO PUSH2 0x755 JUMPI PUSH1 0x40 MLOAD PUSH3 0x461BCD PUSH1 0xE5 SHL DUP2 MSTORE PUSH1 0x4 ADD PUSH2 0x4DD SWAP1 PUSH2 0x3978 JUMP JUMPDEST PUSH1 0x0 PUSH2 0x76A PUSH2 0x4FB PUSH1 0x80 DUP9 ADD PUSH1 0x60 DUP10 ADD PUSH2 0x39AF JUMP JUMPDEST SWAP1 POP PUSH1 0x0 PUSH2 0x777 DUP3 PUSH2 0x204E JUMP JUMPDEST SWAP1 POP PUSH1 0x0 DUP1 PUSH2 0x786 DUP4 DUP12 PUSH2 0x209C JUMP JUMPDEST SWAP1 SWAP3 POP SWAP1 POP PUSH1 0x0 DUP2 PUSH1 0x4 DUP2 GT ISZERO PUSH2 0x79F JUMPI PUSH2 0x79F PUSH2 0x39CA JUMP JUMPDEST EQ PUSH2 0x7BC JUMPI PUSH1 0x40 MLOAD PUSH3 0x461BCD PUSH1 0xE5 SHL DUP2 MSTORE PUSH1 0x4 ADD PUSH2 0x4DD SWAP1 PUSH2 0x39E0 JUMP JUMPDEST PUSH20 0x0 PUSH4 0x487C6960 DUP13 PUSH2 0x7E0 ADDRESS PUSH2 0x210A JUMP JUMPDEST PUSH1 0x40 MLOAD PUSH1 0x1 PUSH1 0x1 PUSH1 0xE0 SHL SUB NOT PUSH1 0xE0 DUP6 SWAP1 SHL AND DUP2 MSTORE PUSH2 0x80D SWAP3 SWAP2 SWAP1 DUP8 SWAP1 PUSH4 0x78EFA4ED PUSH1 0xE1 SHL SWAP1 PUSH1 0x4 ADD PUSH2 0x3A17 JUMP JUMPDEST PUSH1 0x20 PUSH1 0x40 MLOAD DUP1 DUP4 SUB DUP2 DUP7 GAS DELEGATECALL ISZERO DUP1 ISZERO PUSH2 0x82A JUMPI RETURNDATASIZE PUSH1 0x0 DUP1 RETURNDATACOPY RETURNDATASIZE PUSH1 0x0 REVERT JUMPDEST POP POP POP POP PUSH1 0x40 MLOAD RETURNDATASIZE PUSH1 0x1F NOT PUSH1 0x1F DUP3 ADD AND DUP3 ADD DUP1 PUSH1 0x40 MSTORE POP DUP2 ADD SWAP1 PUSH2 0x84E SWAP2 SWAP1 PUSH2 0x395B JUMP JUMPDEST PUSH2 0x89A JUMPI PUSH1 0x40 MLOAD PUSH3 0x461BCD PUSH1 0xE5 SHL DUP2 MSTORE PUSH1 0x20 PUSH1 0x4 DUP3 ADD MSTORE PUSH1 0x1D PUSH1 0x24 DUP3 ADD MSTORE PUSH32 0x5265676973746572436F6E74657874204163636573732044656E696564000000 PUSH1 0x44 DUP3 ADD MSTORE PUSH1 0x64 ADD PUSH2 0x4DD JUMP JUMPDEST PUSH2 0x8CA DUP12 PUSH2 0x8AE PUSH1 0x80 DUP13 ADD PUSH1 0x60 DUP14 ADD PUSH2 0x39AF JUMP JUMPDEST PUSH1 0x40 DUP13 ADD CALLDATALOAD PUSH2 0x8C3 PUSH1 0xA0 DUP15 ADD PUSH1 0x80 DUP16 ADD PUSH2 0x3A45 JUMP JUMPDEST DUP13 DUP13 PUSH2 0x2870 JUMP JUMPDEST SWAP12 SWAP2 SWAP11 POP SWAP1 SWAP9 POP POP POP POP POP POP POP POP POP JUMP JUMPDEST PUSH1 0x40 MLOAD PUSH5 0x312E302E3 PUSH1 0xDC SHL PUSH1 0x20 DUP3 ADD MSTORE PUSH1 0x25 ADD JUMPDEST PUSH1 0x40 MLOAD PUSH1 0x20 DUP2 DUP4 SUB SUB DUP2 MSTORE SWAP1 PUSH1 0x40 MSTORE DUP1 MLOAD SWAP1 PUSH1 0x20 ADD KECCAK256 DUP2 JUMP JUMPDEST PUSH1 0x0 DUP1 ADDRESS PUSH1 0x1 PUSH1 0x1 PUSH1 0xA0 SHL SUB AND PUSH4 0xBE22465D PUSH1 0x40 MLOAD DUP2 PUSH4 0xFFFFFFFF AND PUSH1 0xE0 SHL DUP2 MSTORE PUSH1 0x4 ADD PUSH1 0x20 PUSH1 0x40 MLOAD DUP1 DUP4 SUB DUP2 DUP7 GAS STATICCALL ISZERO DUP1 ISZERO PUSH2 0x94A JUMPI RETURNDATASIZE PUSH1 0x0 DUP1 RETURNDATACOPY RETURNDATASIZE PUSH1 0x0 REVERT JUMPDEST POP POP POP POP PUSH1 0x40 MLOAD RETURNDATASIZE PUSH1 0x1F NOT PUSH1 0x1F DUP3 ADD AND DUP3 ADD DUP1 PUSH1 0x40 MSTORE POP DUP2 ADD SWAP1 PUSH2 0x96E SWAP2 SWAP1 PUSH2 0x395B JUMP JUMPDEST ISZERO PUSH2 0x98B JUMPI PUSH1 0x40 MLOAD PUSH3 0x461BCD PUSH1 0xE5 SHL DUP2 MSTORE PUSH1 0x4 ADD PUSH2 0x4DD SWAP1 PUSH2 0x3978 JUMP JUMPDEST PUSH20 0x0 PUSH4 0x487C6960 DUP7 PUSH2 0x9AF ADDRESS PUSH2 0x210A JUMP JUMPDEST PUSH1 0x40 MLOAD PUSH1 0x1 PUSH1 0x1 PUSH1 0xE0 SHL SUB NOT PUSH1 0xE0 DUP6 SWAP1 SHL AND DUP2 MSTORE PUSH2 0x9DC SWAP3 SWAP2 SWAP1 CALLER SWAP1 PUSH4 0xD3386401 PUSH1 0xE0 SHL SWAP1 PUSH1 0x4 ADD PUSH2 0x3A17 JUMP JUMPDEST PUSH1 0x20 PUSH1 0x40 MLOAD DUP1 DUP4 SUB DUP2 DUP7 GAS DELEGATECALL ISZERO DUP1 ISZERO PUSH2 0x9F9 JUMPI RETURNDATASIZE PUSH1 0x0 DUP1 RETURNDATACOPY RETURNDATASIZE PUSH1 0x0 REVERT JUMPDEST POP POP POP POP PUSH1 0x40 MLOAD RETURNDATASIZE PUSH1 0x1F NOT PUSH1 0x1F DUP3 ADD AND DUP3 ADD DUP1 PUSH1 0x40 MSTORE POP DUP2 ADD SWAP1 PUSH2 0xA1D SWAP2 SWAP1 PUSH2 0x395B JUMP JUMPDEST PUSH2 0xA69 JUMPI PUSH1 0x40 MLOAD PUSH3 0x461BCD PUSH1 0xE5 SHL DUP2 MSTORE PUSH1 0x20 PUSH1 0x4 DUP3 ADD MSTORE PUSH1 0x1D PUSH1 0x24 DUP3 ADD MSTORE PUSH32 0x536574436F6E746578745265616C6D204163636573732044656E696564000000 PUSH1 0x44 DUP3 ADD MSTORE PUSH1 0x64 ADD PUSH2 0x4DD JUMP JUMPDEST DUP4 PUSH2 0xA73 ADDRESS PUSH2 0x210A JUMP JUMPDEST SUB PUSH2 0xAC0 JUMPI PUSH1 0x40 MLOAD PUSH3 0x461BCD PUSH1 0xE5 SHL DUP2 MSTORE PUSH1 0x20 PUSH1 0x4 DUP3 ADD DUP2 SWAP1 MSTORE PUSH1 0x24 DUP3 ADD MSTORE PUSH32 0x496C6C6567616C204368616E67652041434C20436F6E74657874205265616C6D PUSH1 0x44 DUP3 ADD MSTORE PUSH1 0x64 ADD PUSH2 0x4DD JUMP JUMPDEST PUSH1 0x0 DUP5 DUP2 MSTORE PUSH1 0x1 DUP1 DUP8 ADD PUSH1 0x20 MSTORE PUSH1 0x40 SWAP1 SWAP2 KECCAK256 ADD SLOAD PUSH1 0x1 PUSH1 0x1 PUSH1 0xA0 SHL SUB AND PUSH2 0xAF9 JUMPI PUSH1 0x40 MLOAD PUSH3 0x461BCD PUSH1 0xE5 SHL DUP2 MSTORE PUSH1 0x4 ADD PUSH2 0x4DD SWAP1 PUSH2 0x3A62 JUMP JUMPDEST PUSH1 0x0 DUP4 DUP2 MSTORE PUSH1 0x3 DUP7 ADD PUSH1 0x20 MSTORE PUSH1 0x40 SWAP1 KECCAK256 DUP1 SLOAD PUSH2 0xB14 SWAP1 PUSH2 0x3A8D JUMP JUMPDEST SWAP1 POP PUSH1 0x0 SUB PUSH2 0xB35 JUMPI PUSH1 0x40 MLOAD PUSH3 0x461BCD PUSH1 0xE5 SHL DUP2 MSTORE PUSH1 0x4 ADD PUSH2 0x4DD SWAP1 PUSH2 0x3AC1 JUMP JUMPDEST PUSH1 0x0 DUP5 DUP2 MSTORE PUSH1 0x1 DUP7 ADD PUSH1 0x20 MSTORE PUSH1 0x40 SWAP1 KECCAK256 SLOAD DUP4 SWAP1 SUB PUSH2 0xB95 JUMPI PUSH1 0x40 MLOAD PUSH3 0x461BCD PUSH1 0xE5 SHL DUP2 MSTORE PUSH1 0x20 PUSH1 0x4 DUP3 ADD MSTORE PUSH1 0x19 PUSH1 0x24 DUP3 ADD MSTORE PUSH32 0x496C6C6567616C205265616C6D204475706C69636174696F6E00000000000000 PUSH1 0x44 DUP3 ADD MSTORE PUSH1 0x64 ADD PUSH2 0x4DD JUMP JUMPDEST PUSH1 0x0 DUP5 DUP2 MSTORE PUSH1 0x1 DUP7 ADD PUSH1 0x20 SWAP1 DUP2 MSTORE PUSH1 0x40 DUP1 DUP4 KECCAK256 SLOAD DUP7 DUP5 MSTORE PUSH1 0x3 DUP10 ADD SWAP1 SWAP3 MSTORE SWAP1 SWAP2 KECCAK256 PUSH2 0xBC3 SWAP1 PUSH1 0x2 ADD DUP7 PUSH2 0x2C4D JUMP JUMPDEST POP PUSH1 0x0 DUP6 DUP2 MSTORE PUSH1 0x1 DUP8 ADD PUSH1 0x20 SWAP1 DUP2 MSTORE PUSH1 0x40 DUP1 DUP4 KECCAK256 SLOAD DUP4 MSTORE PUSH1 0x3 DUP10 ADD SWAP1 SWAP2 MSTORE SWAP1 KECCAK256 PUSH2 0xBF0 SWAP1 PUSH1 0x2 ADD DUP7 PUSH2 0x2C60 JUMP JUMPDEST POP PUSH1 0x1 SWAP7 SWAP1 SWAP6 POP SWAP4 POP POP POP POP JUMP JUMPDEST PUSH1 0x0 ADDRESS PUSH1 0x1 PUSH1 0x1 PUSH1 0xA0 SHL SUB AND PUSH4 0xBE22465D PUSH1 0x40 MLOAD DUP2 PUSH4 0xFFFFFFFF AND PUSH1 0xE0 SHL DUP2 MSTORE PUSH1 0x4 ADD PUSH1 0x20 PUSH1 0x40 MLOAD DUP1 DUP4 SUB DUP2 DUP7 GAS STATICCALL ISZERO DUP1 ISZERO PUSH2 0xC3E JUMPI RETURNDATASIZE PUSH1 0x0 DUP1 RETURNDATACOPY RETURNDATASIZE PUSH1 0x0 REVERT JUMPDEST POP POP POP POP PUSH1 0x40 MLOAD RETURNDATASIZE PUSH1 0x1F NOT PUSH1 0x1F DUP3 ADD AND DUP3 ADD DUP1 PUSH1 0x40 MSTORE POP DUP2 ADD SWAP1 PUSH2 0xC62 SWAP2 SWAP1 PUSH2 0x395B JUMP JUMPDEST ISZERO PUSH2 0xC7F JUMPI PUSH1 0x40 MLOAD PUSH3 0x461BCD PUSH1 0xE5 SHL DUP2 MSTORE PUSH1 0x4 ADD PUSH2 0x4DD SWAP1 PUSH2 0x3978 JUMP JUMPDEST PUSH20 0x0 PUSH4 0x487C6960 DUP7 PUSH2 0xCA3 ADDRESS PUSH2 0x210A JUMP JUMPDEST PUSH1 0x40 MLOAD PUSH1 0x1 PUSH1 0x1 PUSH1 0xE0 SHL SUB NOT PUSH1 0xE0 DUP6 SWAP1 SHL AND DUP2 MSTORE PUSH2 0xCD0 SWAP3 SWAP2 SWAP1 CALLER SWAP1 PUSH4 0x771BCF45 PUSH1 0xE0 SHL SWAP1 PUSH1 0x4 ADD PUSH2 0x3A17 JUMP JUMPDEST PUSH1 0x20 PUSH1 0x40 MLOAD DUP1 DUP4 SUB DUP2 DUP7 GAS DELEGATECALL ISZERO DUP1 ISZERO PUSH2 0xCED JUMPI RETURNDATASIZE PUSH1 0x0 DUP1 RETURNDATACOPY RETURNDATASIZE PUSH1 0x0 REVERT JUMPDEST POP POP POP POP PUSH1 0x40 MLOAD RETURNDATASIZE PUSH1 0x1F NOT PUSH1 0x1F DUP3 ADD AND DUP3 ADD DUP1 PUSH1 0x40 MSTORE POP DUP2 ADD SWAP1 PUSH2 0xD11 SWAP2 SWAP1 PUSH2 0x395B JUMP JUMPDEST PUSH2 0xD5D JUMPI PUSH1 0x40 MLOAD PUSH3 0x461BCD PUSH1 0xE5 SHL DUP2 MSTORE PUSH1 0x20 PUSH1 0x4 DUP3 ADD MSTORE PUSH1 0x1E PUSH1 0x24 DUP3 ADD MSTORE PUSH32 0x4772616E74436F6E74657874526F6C65204163636573732044656E6965640000 PUSH1 0x44 DUP3 ADD MSTORE PUSH1 0x64 ADD PUSH2 0x4DD JUMP JUMPDEST DUP4 PUSH2 0xD67 ADDRESS PUSH2 0x210A JUMP JUMPDEST SUB PUSH2 0xDB4 JUMPI PUSH1 0x40 MLOAD PUSH3 0x461BCD PUSH1 0xE5 SHL DUP2 MSTORE PUSH1 0x20 PUSH1 0x4 DUP3 ADD MSTORE PUSH1 0x19 PUSH1 0x24 DUP3 ADD MSTORE PUSH32 0x496C6C6567616C204772616E742041434C20436F6E7465787400000000000000 PUSH1 0x44 DUP3 ADD MSTORE PUSH1 0x64 ADD PUSH2 0x4DD JUMP JUMPDEST PUSH1 0x0 DUP5 DUP2 MSTORE PUSH1 0x1 DUP1 DUP8 ADD PUSH1 0x20 MSTORE PUSH1 0x40 SWAP1 SWAP2 KECCAK256 ADD SLOAD PUSH1 0x1 PUSH1 0x1 PUSH1 0xA0 SHL SUB AND PUSH2 0xDED JUMPI PUSH1 0x40 MLOAD PUSH3 0x461BCD PUSH1 0xE5 SHL DUP2 MSTORE PUSH1 0x4 ADD PUSH2 0x4DD SWAP1 PUSH2 0x3A62 JUMP JUMPDEST PUSH1 0x0 DUP3 DUP2 MSTORE PUSH1 0x2 DUP7 ADD PUSH1 0x20 MSTORE PUSH1 0x40 SWAP1 KECCAK256 DUP1 SLOAD PUSH2 0xE08 SWAP1 PUSH2 0x3A8D JUMP JUMPDEST SWAP1 POP PUSH1 0x0 SUB PUSH2 0xE29 JUMPI PUSH1 0x40 MLOAD PUSH3 0x461BCD PUSH1 0xE5 SHL DUP2 MSTORE PUSH1 0x4 ADD PUSH2 0x4DD SWAP1 PUSH2 0x3AEA JUMP JUMPDEST PUSH1 0x0 DUP5 DUP2 MSTORE PUSH1 0x1 DUP7 ADD PUSH1 0x20 MSTORE PUSH1 0x40 SWAP1 KECCAK256 PUSH2 0xE50 SWAP1 PUSH1 0x3 ADD PUSH1 0x1 PUSH1 0x1 PUSH1 0xE0 SHL SUB NOT DUP6 AND PUSH2 0x2C6C JUMP JUMPDEST PUSH2 0xE6C JUMPI PUSH1 0x40 MLOAD PUSH3 0x461BCD PUSH1 0xE5 SHL DUP2 MSTORE PUSH1 0x4 ADD PUSH2 0x4DD SWAP1 PUSH2 0x3B12 JUMP JUMPDEST PUSH1 0x0 DUP5 DUP2 MSTORE PUSH1 0x1 DUP7 DUP2 ADD PUSH1 0x20 SWAP1 DUP2 MSTORE PUSH1 0x40 DUP1 DUP5 KECCAK256 PUSH1 0x1 PUSH1 0x1 PUSH1 0xE0 SHL SUB NOT DUP9 AND DUP6 MSTORE PUSH1 0x2 ADD SWAP1 SWAP2 MSTORE SWAP1 SWAP2 KECCAK256 DUP4 DUP2 SSTORE DUP2 ADD DUP1 SLOAD PUSH1 0xFF NOT AND DUP3 DUP1 JUMPDEST MUL OR SWAP1 SSTORE POP POP POP PUSH1 0x0 SWAP2 DUP3 MSTORE POP PUSH1 0x1 SWAP2 SWAP1 SWAP2 ADD PUSH1 0x20 MSTORE PUSH1 0x40 SWAP1 KECCAK256 SLOAD SWAP1 JUMP JUMPDEST PUSH1 0x0 DUP1 PUSH1 0x0 ADDRESS PUSH1 0x1 PUSH1 0x1 PUSH1 0xA0 SHL SUB AND PUSH4 0xBE22465D PUSH1 0x40 MLOAD DUP2 PUSH4 0xFFFFFFFF AND PUSH1 0xE0 SHL DUP2 MSTORE PUSH1 0x4 ADD PUSH1 0x20 PUSH1 0x40 MLOAD DUP1 DUP4 SUB DUP2 DUP7 GAS STATICCALL ISZERO DUP1 ISZERO PUSH2 0xF05 JUMPI RETURNDATASIZE PUSH1 0x0 DUP1 RETURNDATACOPY RETURNDATASIZE PUSH1 0x0 REVERT JUMPDEST POP POP POP POP PUSH1 0x40 MLOAD RETURNDATASIZE PUSH1 0x1F NOT PUSH1 0x1F DUP3 ADD AND DUP3 ADD DUP1 PUSH1 0x40 MSTORE POP DUP2 ADD SWAP1 PUSH2 0xF29 SWAP2 SWAP1 PUSH2 0x395B JUMP JUMPDEST ISZERO PUSH2 0xF46 JUMPI PUSH1 0x40 MLOAD PUSH3 0x461BCD PUSH1 0xE5 SHL DUP2 MSTORE PUSH1 0x4 ADD PUSH2 0x4DD SWAP1 PUSH2 0x3978 JUMP JUMPDEST PUSH1 0x0 PUSH2 0xFD7 PUSH2 0xF5B PUSH1 0xC0 DUP10 ADD PUSH1 0xA0 DUP11 ADD PUSH2 0x39AF JUMP JUMPDEST PUSH2 0xF6B PUSH1 0xA0 DUP11 ADD PUSH1 0x80 DUP12 ADD PUSH2 0x39AF JUMP JUMPDEST PUSH1 0x40 DUP1 MLOAD PUSH32 0xFC434588684348DD50856B075C47BED14245C1030AA04C32955AF55499814627 PUSH1 0x20 DUP1 DUP4 ADD SWAP2 SWAP1 SWAP2 MSTORE PUSH1 0x1 PUSH1 0x1 PUSH1 0xA0 SHL SUB SWAP5 DUP6 AND DUP3 DUP5 ADD MSTORE SWAP3 SWAP1 SWAP4 AND PUSH1 0x60 DUP5 ADD MSTORE DUP1 DUP12 ADD CALLDATALOAD PUSH1 0x80 DUP1 DUP6 ADD SWAP2 SWAP1 SWAP2 MSTORE DUP2 MLOAD DUP1 DUP6 SUB SWAP1 SWAP2 ADD DUP2 MSTORE PUSH1 0xA0 SWAP1 SWAP4 ADD SWAP1 MSTORE DUP2 MLOAD SWAP2 ADD KECCAK256 SWAP1 JUMP JUMPDEST SWAP1 POP PUSH1 0x0 PUSH2 0xFE4 DUP3 PUSH2 0x204E JUMP JUMPDEST SWAP1 POP PUSH1 0x0 DUP1 PUSH2 0xFF3 DUP4 DUP13 PUSH2 0x209C JUMP JUMPDEST SWAP1 SWAP3 POP SWAP1 POP PUSH1 0x0 DUP2 PUSH1 0x4 DUP2 GT ISZERO PUSH2 0x100C JUMPI PUSH2 0x100C PUSH2 0x39CA JUMP JUMPDEST EQ PUSH2 0x1029 JUMPI PUSH1 0x40 MLOAD PUSH3 0x461BCD PUSH1 0xE5 SHL DUP2 MSTORE PUSH1 0x4 ADD PUSH2 0x4DD SWAP1 PUSH2 0x39E0 JUMP JUMPDEST PUSH20 0x0 PUSH4 0x487C6960 DUP14 PUSH2 0x104D ADDRESS PUSH2 0x210A JUMP JUMPDEST PUSH1 0x40 MLOAD PUSH1 0x1 PUSH1 0x1 PUSH1 0xE0 SHL SUB NOT PUSH1 0xE0 DUP6 SWAP1 SHL AND DUP2 MSTORE PUSH2 0x107A SWAP3 SWAP2 SWAP1 DUP8 SWAP1 PUSH4 0x78EFA4ED PUSH1 0xE1 SHL SWAP1 PUSH1 0x4 ADD PUSH2 0x3A17 JUMP JUMPDEST PUSH1 0x20 PUSH1 0x40 MLOAD DUP1 DUP4 SUB DUP2 DUP7 GAS DELEGATECALL ISZERO DUP1 ISZERO PUSH2 0x1097 JUMPI RETURNDATASIZE PUSH1 0x0 DUP1 RETURNDATACOPY RETURNDATASIZE PUSH1 0x0 REVERT JUMPDEST POP POP POP POP PUSH1 0x40 MLOAD RETURNDATASIZE PUSH1 0x1F NOT PUSH1 0x1F DUP3 ADD AND DUP3 ADD DUP1 PUSH1 0x40 MSTORE POP DUP2 ADD SWAP1 PUSH2 0x10BB SWAP2 SWAP1 PUSH2 0x395B JUMP JUMPDEST PUSH2 0x1113 JUMPI PUSH1 0x40 MLOAD PUSH3 0x461BCD PUSH1 0xE5 SHL DUP2 MSTORE PUSH1 0x20 PUSH1 0x4 DUP3 ADD MSTORE PUSH1 0x24 DUP1 DUP3 ADD MSTORE PUSH32 0x526567697374657250726564696374436F6E7465787420416363657373204465 PUSH1 0x44 DUP3 ADD MSTORE PUSH4 0x1B9A5959 PUSH1 0xE2 SHL PUSH1 0x64 DUP3 ADD MSTORE PUSH1 0x84 ADD PUSH2 0x4DD JUMP JUMPDEST PUSH1 0x0 DUP1 PUSH2 0x1122 DUP15 DUP13 DUP13 DUP16 PUSH2 0x2C84 JUMP JUMPDEST SWAP1 SWAP16 SWAP1 SWAP15 POP SWAP4 SWAP13 POP SWAP3 SWAP11 POP POP POP POP POP POP POP POP POP POP POP JUMP JUMPDEST PUSH1 0x0 ADDRESS PUSH1 0x1 PUSH1 0x1 PUSH1 0xA0 SHL SUB AND PUSH4 0xBE22465D PUSH1 0x40 MLOAD DUP2 PUSH4 0xFFFFFFFF AND PUSH1 0xE0 SHL DUP2 MSTORE PUSH1 0x4 ADD PUSH1 0x20 PUSH1 0x40 MLOAD DUP1 DUP4 SUB DUP2 DUP7 GAS STATICCALL ISZERO DUP1 ISZERO PUSH2 0x1179 JUMPI RETURNDATASIZE PUSH1 0x0 DUP1 RETURNDATACOPY RETURNDATASIZE PUSH1 0x0 REVERT JUMPDEST POP POP POP POP PUSH1 0x40 MLOAD RETURNDATASIZE PUSH1 0x1F NOT PUSH1 0x1F DUP3 ADD AND DUP3 ADD DUP1 PUSH1 0x40 MSTORE POP DUP2 ADD SWAP1 PUSH2 0x119D SWAP2 SWAP1 PUSH2 0x395B JUMP JUMPDEST ISZERO PUSH2 0x11BA JUMPI PUSH1 0x40 MLOAD PUSH3 0x461BCD PUSH1 0xE5 SHL DUP2 MSTORE PUSH1 0x4 ADD PUSH2 0x4DD SWAP1 PUSH2 0x3978 JUMP JUMPDEST PUSH20 0x0 PUSH4 0x487C6960 DUP7 PUSH2 0x11DE ADDRESS PUSH2 0x210A JUMP JUMPDEST PUSH1 0x40 MLOAD PUSH1 0x1 PUSH1 0x1 PUSH1 0xE0 SHL SUB NOT PUSH1 0xE0 DUP6 SWAP1 SHL AND DUP2 MSTORE PUSH2 0x120B SWAP3 SWAP2 SWAP1 CALLER SWAP1 PUSH4 0x31C0493 PUSH1 0xE0 SHL SWAP1 PUSH1 0x4 ADD PUSH2 0x3A17 JUMP JUMPDEST PUSH1 0x20 PUSH1 0x40 MLOAD DUP1 DUP4 SUB DUP2 DUP7 GAS DELEGATECALL ISZERO DUP1 ISZERO PUSH2 0x1228 JUMPI RETURNDATASIZE PUSH1 0x0 DUP1 RETURNDATACOPY RETURNDATASIZE PUSH1 0x0 REVERT JUMPDEST POP POP POP POP PUSH1 0x40 MLOAD RETURNDATASIZE PUSH1 0x1F NOT PUSH1 0x1F DUP3 ADD AND DUP3 ADD DUP1 PUSH1 0x40 MSTORE POP DUP2 ADD SWAP1 PUSH2 0x124C SWAP2 SWAP1 PUSH2 0x395B JUMP JUMPDEST PUSH2 0x1298 JUMPI PUSH1 0x40 MLOAD PUSH3 0x461BCD PUSH1 0xE5 SHL DUP2 MSTORE PUSH1 0x20 PUSH1 0x4 DUP3 ADD DUP2 SWAP1 MSTORE PUSH1 0x24 DUP3 ADD MSTORE PUSH32 0x416464436F6E7465787446756E63526F6C65204163636573732044656E696564 PUSH1 0x44 DUP3 ADD MSTORE PUSH1 0x64 ADD PUSH2 0x4DD JUMP JUMPDEST PUSH1 0x0 DUP5 DUP2 MSTORE PUSH1 0x1 DUP1 DUP8 ADD PUSH1 0x20 MSTORE PUSH1 0x40 SWAP1 SWAP2 KECCAK256 ADD SLOAD PUSH1 0x1 PUSH1 0x1 PUSH1 0xA0 SHL SUB AND PUSH2 0x12D1 JUMPI PUSH1 0x40 MLOAD PUSH3 0x461BCD PUSH1 0xE5 SHL DUP2 MSTORE PUSH1 0x4 ADD PUSH2 0x4DD SWAP1 PUSH2 0x3A62 JUMP JUMPDEST PUSH1 0x0 DUP3 DUP2 MSTORE PUSH1 0x2 DUP7 ADD PUSH1 0x20 MSTORE PUSH1 0x40 SWAP1 KECCAK256 DUP1 SLOAD PUSH2 0x12EC SWAP1 PUSH2 0x3A8D JUMP JUMPDEST SWAP1 POP PUSH1 0x0 SUB PUSH2 0x130D JUMPI PUSH1 0x40 MLOAD PUSH3 0x461BCD PUSH1 0xE5 SHL DUP2 MSTORE PUSH1 0x4 ADD PUSH2 0x4DD SWAP1 PUSH2 0x3AEA JUMP JUMPDEST PUSH1 0x0 DUP5 DUP2 MSTORE PUSH1 0x1 DUP7 ADD PUSH1 0x20 MSTORE PUSH1 0x40 SWAP1 KECCAK256 PUSH2 0x1334 SWAP1 PUSH1 0x3 ADD PUSH1 0x1 PUSH1 0x1 PUSH1 0xE0 SHL SUB NOT DUP6 AND PUSH2 0x2C6C JUMP JUMPDEST ISZERO PUSH2 0x1381 JUMPI PUSH1 0x40 MLOAD PUSH3 0x461BCD PUSH1 0xE5 SHL DUP2 MSTORE PUSH1 0x20 PUSH1 0x4 DUP3 ADD MSTORE PUSH1 0x1F PUSH1 0x24 DUP3 ADD MSTORE PUSH32 0x46756E6374696F6E53656C6563746F7220416C72656164792045786973747300 PUSH1 0x44 DUP3 ADD MSTORE PUSH1 0x64 ADD PUSH2 0x4DD JUMP JUMPDEST PUSH1 0x0 DUP5 DUP2 MSTORE PUSH1 0x1 DUP7 DUP2 ADD PUSH1 0x20 DUP2 DUP2 MSTORE PUSH1 0x40 DUP1 DUP6 KECCAK256 PUSH1 0x1 PUSH1 0x1 PUSH1 0xE0 SHL SUB NOT DUP10 AND DUP1 DUP8 MSTORE PUSH1 0x2 DUP3 ADD DUP5 MSTORE SWAP2 DUP7 KECCAK256 DUP9 DUP2 SSTORE DUP6 ADD DUP1 SLOAD PUSH1 0xFF NOT AND SWAP1 SWAP6 OR SWAP1 SWAP5 SSTORE SWAP4 DUP9 SWAP1 MSTORE MSTORE PUSH2 0x13D1 SWAP2 PUSH1 0x3 SWAP1 SWAP2 ADD SWAP1 PUSH2 0x2C4D JUMP JUMPDEST POP POP POP PUSH1 0x0 SWAP2 DUP3 MSTORE POP PUSH1 0x1 SWAP2 SWAP1 SWAP2 ADD PUSH1 0x20 MSTORE PUSH1 0x40 SWAP1 KECCAK256 SLOAD SWAP1 JUMP JUMPDEST PUSH1 0x0 ADDRESS PUSH1 0x1 PUSH1 0x1 PUSH1 0xA0 SHL SUB AND PUSH4 0xBE22465D PUSH1 0x40 MLOAD DUP2 PUSH4 0xFFFFFFFF AND PUSH1 0xE0 SHL DUP2 MSTORE PUSH1 0x4 ADD PUSH1 0x20 PUSH1 0x40 MLOAD DUP1 DUP4 SUB DUP2 DUP7 GAS STATICCALL ISZERO DUP1 ISZERO PUSH2 0x142B JUMPI RETURNDATASIZE PUSH1 0x0 DUP1 RETURNDATACOPY RETURNDATASIZE PUSH1 0x0 REVERT JUMPDEST POP POP POP POP PUSH1 0x40 MLOAD RETURNDATASIZE PUSH1 0x1F NOT PUSH1 0x1F DUP3 ADD AND DUP3 ADD DUP1 PUSH1 0x40 MSTORE POP DUP2 ADD SWAP1 PUSH2 0x144F SWAP2 SWAP1 PUSH2 0x395B JUMP JUMPDEST ISZERO PUSH2 0x146C JUMPI PUSH1 0x40 MLOAD PUSH3 0x461BCD PUSH1 0xE5 SHL DUP2 MSTORE PUSH1 0x4 ADD PUSH2 0x4DD SWAP1 PUSH2 0x3978 JUMP JUMPDEST PUSH20 0x0 PUSH4 0x487C6960 DUP7 PUSH2 0x1490 ADDRESS PUSH2 0x210A JUMP JUMPDEST PUSH1 0x40 MLOAD PUSH1 0x1 PUSH1 0x1 PUSH1 0xE0 SHL SUB NOT PUSH1 0xE0 DUP6 SWAP1 SHL AND DUP2 MSTORE PUSH2 0x14BD SWAP3 SWAP2 SWAP1 CALLER SWAP1 PUSH4 0x4346A04B PUSH1 0xE0 SHL SWAP1 PUSH1 0x4 ADD PUSH2 0x3A17 JUMP JUMPDEST PUSH1 0x20 PUSH1 0x40 MLOAD DUP1 DUP4 SUB DUP2 DUP7 GAS DELEGATECALL ISZERO DUP1 ISZERO PUSH2 0x14DA JUMPI RETURNDATASIZE PUSH1 0x0 DUP1 RETURNDATACOPY RETURNDATASIZE PUSH1 0x0 REVERT JUMPDEST POP POP POP POP PUSH1 0x40 MLOAD RETURNDATASIZE PUSH1 0x1F NOT PUSH1 0x1F DUP3 ADD AND DUP3 ADD DUP1 PUSH1 0x40 MSTORE POP DUP2 ADD SWAP1 PUSH2 0x14FE SWAP2 SWAP1 PUSH2 0x395B JUMP JUMPDEST PUSH2 0x154A JUMPI PUSH1 0x40 MLOAD PUSH3 0x461BCD PUSH1 0xE5 SHL DUP2 MSTORE PUSH1 0x20 PUSH1 0x4 DUP3 ADD MSTORE PUSH1 0x1F PUSH1 0x24 DUP3 ADD MSTORE PUSH32 0x5265766F6B65436F6E74657874526F6C65204163636573732044656E69656400 PUSH1 0x44 DUP3 ADD MSTORE PUSH1 0x64 ADD PUSH2 0x4DD JUMP JUMPDEST DUP4 PUSH2 0x1554 ADDRESS PUSH2 0x210A JUMP JUMPDEST SUB PUSH2 0x15A1 JUMPI PUSH1 0x40 MLOAD PUSH3 0x461BCD PUSH1 0xE5 SHL DUP2 MSTORE PUSH1 0x20 PUSH1 0x4 DUP3 ADD MSTORE PUSH1 0x1A PUSH1 0x24 DUP3 ADD MSTORE PUSH32 0x496C6C6567616C205265766F6B652041434C20436F6E74657874000000000000 PUSH1 0x44 DUP3 ADD MSTORE PUSH1 0x64 ADD PUSH2 0x4DD JUMP JUMPDEST PUSH1 0x0 DUP5 DUP2 MSTORE PUSH1 0x1 DUP1 DUP8 ADD PUSH1 0x20 MSTORE PUSH1 0x40 SWAP1 SWAP2 KECCAK256 ADD SLOAD PUSH1 0x1 PUSH1 0x1 PUSH1 0xA0 SHL SUB AND PUSH2 0x15DA JUMPI PUSH1 0x40 MLOAD PUSH3 0x461BCD PUSH1 0xE5 SHL DUP2 MSTORE PUSH1 0x4 ADD PUSH2 0x4DD SWAP1 PUSH2 0x3A62 JUMP JUMPDEST PUSH1 0x0 DUP3 DUP2 MSTORE PUSH1 0x2 DUP7 ADD PUSH1 0x20 MSTORE PUSH1 0x40 SWAP1 KECCAK256 DUP1 SLOAD PUSH2 0x15F5 SWAP1 PUSH2 0x3A8D JUMP JUMPDEST SWAP1 POP PUSH1 0x0 SUB PUSH2 0x1616 JUMPI PUSH1 0x40 MLOAD PUSH3 0x461BCD PUSH1 0xE5 SHL DUP2 MSTORE PUSH1 0x4 ADD PUSH2 0x4DD SWAP1 PUSH2 0x3AEA JUMP JUMPDEST PUSH1 0x0 DUP5 DUP2 MSTORE PUSH1 0x1 DUP7 ADD PUSH1 0x20 MSTORE PUSH1 0x40 SWAP1 KECCAK256 PUSH2 0x163D SWAP1 PUSH1 0x3 ADD PUSH1 0x1 PUSH1 0x1 PUSH1 0xE0 SHL SUB NOT DUP6 AND PUSH2 0x2C6C JUMP JUMPDEST PUSH2 0x1659 JUMPI PUSH1 0x40 MLOAD PUSH3 0x461BCD PUSH1 0xE5 SHL DUP2 MSTORE PUSH1 0x4 ADD PUSH2 0x4DD SWAP1 PUSH2 0x3B12 JUMP JUMPDEST PUSH1 0x0 DUP5 DUP2 MSTORE PUSH1 0x1 DUP1 DUP8 ADD PUSH1 0x20 SWAP1 DUP2 MSTORE PUSH1 0x40 DUP1 DUP5 KECCAK256 PUSH1 0x1 PUSH1 0x1 PUSH1 0xE0 SHL SUB NOT DUP9 AND DUP6 MSTORE PUSH1 0x2 SWAP1 DUP2 ADD SWAP1 SWAP3 MSTORE SWAP1 SWAP3 KECCAK256 DUP2 ADD DUP1 SLOAD SWAP1 SWAP2 PUSH1 0xFF NOT SWAP1 SWAP2 AND SWAP1 DUP4 PUSH2 0xEA4 JUMP JUMPDEST PUSH1 0x0 DUP4 DUP2 MSTORE PUSH1 0x1 DUP1 DUP7 ADD PUSH1 0x20 MSTORE PUSH1 0x40 DUP3 KECCAK256 ADD SLOAD PUSH1 0x1 PUSH1 0x1 PUSH1 0xA0 SHL SUB AND ISZERO DUP1 ISZERO SWAP1 PUSH2 0x16E9 JUMPI POP PUSH1 0x0 DUP5 DUP2 MSTORE PUSH1 0x1 DUP7 ADD PUSH1 0x20 SWAP1 DUP2 MSTORE PUSH1 0x40 DUP1 DUP4 KECCAK256 PUSH1 0x1 PUSH1 0x1 PUSH1 0xE0 SHL SUB NOT DUP7 AND DUP5 MSTORE PUSH1 0x2 ADD SWAP1 SWAP2 MSTORE SWAP1 KECCAK256 SLOAD DUP4 EQ JUMPDEST DUP1 ISZERO PUSH2 0x1735 JUMPI POP PUSH1 0x1 PUSH1 0x0 DUP6 DUP2 MSTORE PUSH1 0x1 DUP1 DUP9 ADD PUSH1 0x20 SWAP1 DUP2 MSTORE PUSH1 0x40 DUP1 DUP5 KECCAK256 PUSH1 0x1 PUSH1 0x1 PUSH1 0xE0 SHL SUB NOT DUP9 AND DUP6 MSTORE PUSH1 0x2 SWAP1 DUP2 ADD SWAP1 SWAP3 MSTORE SWAP1 SWAP3 KECCAK256 ADD SLOAD PUSH1 0xFF AND SWAP1 DUP2 GT ISZERO PUSH2 0x1733 JUMPI PUSH2 0x1733 PUSH2 0x39CA JUMP JUMPDEST EQ JUMPDEST SWAP6 SWAP5 POP POP POP POP POP JUMP JUMPDEST PUSH1 0x40 DUP1 MLOAD PUSH1 0xC0 DUP2 ADD DUP3 MSTORE PUSH1 0x0 DUP1 DUP3 MSTORE PUSH1 0x20 DUP3 ADD DUP2 SWAP1 MSTORE SWAP2 DUP2 ADD DUP3 SWAP1 MSTORE PUSH1 0x60 DUP2 ADD DUP3 SWAP1 MSTORE PUSH1 0x80 DUP2 ADD DUP3 SWAP1 MSTORE PUSH1 0xA0 DUP2 ADD SWAP2 SWAP1 SWAP2 MSTORE PUSH1 0x0 DUP3 DUP2 MSTORE PUSH1 0x1 DUP1 DUP6 ADD PUSH1 0x20 MSTORE PUSH1 0x40 SWAP1 SWAP2 KECCAK256 ADD SLOAD PUSH1 0x1 PUSH1 0x1 PUSH1 0xA0 SHL SUB AND PUSH2 0x17A9 JUMPI PUSH1 0x40 MLOAD PUSH3 0x461BCD PUSH1 0xE5 SHL DUP2 MSTORE PUSH1 0x4 ADD PUSH2 0x4DD SWAP1 PUSH2 0x3A62 JUMP JUMPDEST PUSH1 0x0 DUP3 DUP2 MSTORE PUSH1 0x1 DUP1 DUP6 ADD PUSH1 0x20 SWAP1 DUP2 MSTORE PUSH1 0x40 DUP1 DUP5 KECCAK256 SWAP1 SWAP3 ADD SLOAD DUP3 MLOAD PUSH4 0x1D743037 PUSH1 0xE2 SHL DUP2 MSTORE SWAP3 MLOAD PUSH1 0x1 PUSH1 0x1 PUSH1 0xA0 SHL SUB SWAP1 SWAP2 AND SWAP3 PUSH4 0x75D0C0DC SWAP3 PUSH1 0x4 DUP1 DUP4 ADD SWAP4 SWAP2 SWAP3 DUP3 SWAP1 SUB ADD DUP2 DUP7 GAS STATICCALL ISZERO DUP1 ISZERO PUSH2 0x1802 JUMPI RETURNDATASIZE PUSH1 0x0 DUP1 RETURNDATACOPY RETURNDATASIZE PUSH1 0x0 REVERT JUMPDEST POP POP POP POP PUSH1 0x40 MLOAD RETURNDATASIZE PUSH1 0x1F NOT PUSH1 0x1F DUP3 ADD AND DUP3 ADD DUP1 PUSH1 0x40 MSTORE POP DUP2 ADD SWAP1 PUSH2 0x1826 SWAP2 SWAP1 PUSH2 0x3B49 JUMP JUMPDEST PUSH1 0x0 DUP5 DUP2 MSTORE PUSH1 0x1 DUP1 DUP8 ADD PUSH1 0x20 SWAP1 DUP2 MSTORE PUSH1 0x40 DUP1 DUP5 KECCAK256 SWAP1 SWAP3 ADD SLOAD DUP3 MLOAD PUSH4 0x5054723 PUSH1 0xE5 SHL DUP2 MSTORE SWAP3 MLOAD SWAP5 SWAP6 POP SWAP3 SWAP4 PUSH1 0x1 PUSH1 0x1 PUSH1 0xA0 SHL SUB SWAP1 SWAP4 AND SWAP3 PUSH4 0xA0A8E460 SWAP3 PUSH1 0x4 DUP1 DUP3 ADD SWAP4 SWAP3 SWAP2 DUP3 SWAP1 SUB ADD DUP2 DUP7 GAS STATICCALL ISZERO DUP1 ISZERO PUSH2 0x1884 JUMPI RETURNDATASIZE PUSH1 0x0 DUP1 RETURNDATACOPY RETURNDATASIZE PUSH1 0x0 REVERT JUMPDEST POP POP POP POP PUSH1 0x40 MLOAD RETURNDATASIZE PUSH1 0x1F NOT PUSH1 0x1F DUP3 ADD AND DUP3 ADD DUP1 PUSH1 0x40 MSTORE POP DUP2 ADD SWAP1 PUSH2 0x18A8 SWAP2 SWAP1 PUSH2 0x3B49 JUMP JUMPDEST PUSH1 0x0 DUP6 DUP2 MSTORE PUSH1 0x1 DUP1 DUP9 ADD PUSH1 0x20 SWAP1 DUP2 MSTORE PUSH1 0x40 DUP1 DUP5 KECCAK256 SWAP1 SWAP3 ADD SLOAD DUP3 MLOAD PUSH4 0xBE22465D PUSH1 0xE0 SHL DUP2 MSTORE SWAP3 MLOAD SWAP5 SWAP6 POP SWAP3 SWAP4 PUSH1 0x1 PUSH1 0x1 PUSH1 0xA0 SHL SUB SWAP1 SWAP4 AND SWAP3 PUSH4 0xBE22465D SWAP3 PUSH1 0x4 DUP1 DUP3 ADD SWAP4 SWAP3 SWAP2 DUP3 SWAP1 SUB ADD DUP2 DUP7 GAS STATICCALL ISZERO DUP1 ISZERO PUSH2 0x1906 JUMPI RETURNDATASIZE PUSH1 0x0 DUP1 RETURNDATACOPY RETURNDATASIZE PUSH1 0x0 REVERT JUMPDEST POP POP POP POP PUSH1 0x40 MLOAD RETURNDATASIZE PUSH1 0x1F NOT PUSH1 0x1F DUP3 ADD AND DUP3 ADD DUP1 PUSH1 0x40 MSTORE POP DUP2 ADD SWAP1 PUSH2 0x192A SWAP2 SWAP1 PUSH2 0x395B JUMP JUMPDEST PUSH1 0x0 DUP7 DUP2 MSTORE PUSH1 0x1 DUP1 DUP10 ADD PUSH1 0x20 SWAP1 DUP2 MSTORE PUSH1 0x40 DUP1 DUP5 KECCAK256 SWAP1 SWAP3 ADD SLOAD DUP3 MLOAD PUSH4 0x151E765 PUSH1 0xE6 SHL DUP2 MSTORE SWAP3 MLOAD SWAP5 SWAP6 POP SWAP3 SWAP4 PUSH1 0x1 PUSH1 0x1 PUSH1 0xA0 SHL SUB SWAP1 SWAP4 AND SWAP3 PUSH4 0x5479D940 SWAP3 PUSH1 0x4 DUP1 DUP3 ADD SWAP4 SWAP3 SWAP2 DUP3 SWAP1 SUB ADD DUP2 DUP7 GAS STATICCALL ISZERO DUP1 ISZERO PUSH2 0x1988 JUMPI RETURNDATASIZE PUSH1 0x0 DUP1 RETURNDATACOPY RETURNDATASIZE PUSH1 0x0 REVERT JUMPDEST POP POP POP POP PUSH1 0x40 MLOAD RETURNDATASIZE PUSH1 0x1F NOT PUSH1 0x1F DUP3 ADD AND DUP3 ADD DUP1 PUSH1 0x40 MSTORE POP DUP2 ADD SWAP1 PUSH2 0x19AC SWAP2 SWAP1 PUSH2 0x395B JUMP JUMPDEST PUSH1 0x40 DUP1 MLOAD PUSH1 0xC0 DUP2 ADD DUP3 MSTORE SWAP6 DUP7 MSTORE PUSH1 0x20 DUP1 DUP8 ADD SWAP6 SWAP1 SWAP6 MSTORE PUSH1 0x0 DUP9 DUP2 MSTORE PUSH1 0x1 DUP1 DUP12 ADD DUP1 DUP9 MSTORE DUP4 DUP4 KECCAK256 DUP1 SLOAD SWAP5 DUP11 ADD SWAP5 SWAP1 SWAP5 MSTORE SWAP2 DUP11 SWAP1 MSTORE SWAP6 MSTORE SWAP1 SWAP4 ADD SLOAD PUSH1 0x1 PUSH1 0x1 PUSH1 0xA0 SHL SUB AND PUSH1 0x60 DUP6 ADD MSTORE POP ISZERO ISZERO PUSH1 0x80 DUP4 ADD MSTORE ISZERO ISZERO PUSH1 0xA0 DUP3 ADD MSTORE SWAP1 POP JUMPDEST SWAP3 SWAP2 POP POP JUMP JUMPDEST PUSH1 0x0 DUP1 ADDRESS PUSH1 0x1 PUSH1 0x1 PUSH1 0xA0 SHL SUB AND PUSH4 0xBE22465D PUSH1 0x40 MLOAD DUP2 PUSH4 0xFFFFFFFF AND PUSH1 0xE0 SHL DUP2 MSTORE PUSH1 0x4 ADD PUSH1 0x20 PUSH1 0x40 MLOAD DUP1 DUP4 SUB DUP2 DUP7 GAS STATICCALL ISZERO DUP1 ISZERO PUSH2 0x1A4C JUMPI RETURNDATASIZE PUSH1 0x0 DUP1 RETURNDATACOPY RETURNDATASIZE PUSH1 0x0 REVERT JUMPDEST POP POP POP POP PUSH1 0x40 MLOAD RETURNDATASIZE PUSH1 0x1F NOT PUSH1 0x1F DUP3 ADD AND DUP3 ADD DUP1 PUSH1 0x40 MSTORE POP DUP2 ADD SWAP1 PUSH2 0x1A70 SWAP2 SWAP1 PUSH2 0x395B JUMP JUMPDEST ISZERO PUSH2 0x1A8D JUMPI PUSH1 0x40 MLOAD PUSH3 0x461BCD PUSH1 0xE5 SHL DUP2 MSTORE PUSH1 0x4 ADD PUSH2 0x4DD SWAP1 PUSH2 0x3978 JUMP JUMPDEST PUSH20 0x0 PUSH4 0x487C6960 DUP7 PUSH2 0x1AB1 ADDRESS PUSH2 0x210A JUMP JUMPDEST PUSH1 0x40 MLOAD PUSH1 0x1 PUSH1 0x1 PUSH1 0xE0 SHL SUB NOT PUSH1 0xE0 DUP6 SWAP1 SHL AND DUP2 MSTORE PUSH2 0x1ADE SWAP3 SWAP2 SWAP1 CALLER SWAP1 PUSH4 0x70420EE3 PUSH1 0xE0 SHL SWAP1 PUSH1 0x4 ADD PUSH2 0x3A17 JUMP JUMPDEST PUSH1 0x20 PUSH1 0x40 MLOAD DUP1 DUP4 SUB DUP2 DUP7 GAS DELEGATECALL ISZERO DUP1 ISZERO PUSH2 0x1AFB JUMPI RETURNDATASIZE PUSH1 0x0 DUP1 RETURNDATACOPY RETURNDATASIZE PUSH1 0x0 REVERT JUMPDEST POP POP POP POP PUSH1 0x40 MLOAD RETURNDATASIZE PUSH1 0x1F NOT PUSH1 0x1F DUP3 ADD AND DUP3 ADD DUP1 PUSH1 0x40 MSTORE POP DUP2 ADD SWAP1 PUSH2 0x1B1F SWAP2 SWAP1 PUSH2 0x395B JUMP JUMPDEST PUSH2 0x1B6B JUMPI PUSH1 0x40 MLOAD PUSH3 0x461BCD PUSH1 0xE5 SHL DUP2 MSTORE PUSH1 0x20 PUSH1 0x4 DUP3 ADD MSTORE PUSH1 0x1E PUSH1 0x24 DUP3 ADD MSTORE PUSH32 0x536574436F6E74657874537461747573204163636573732044656E6965640000 PUSH1 0x44 DUP3 ADD MSTORE PUSH1 0x64 ADD PUSH2 0x4DD JUMP JUMPDEST DUP4 PUSH2 0x1B75 ADDRESS PUSH2 0x210A JUMP JUMPDEST SUB PUSH2 0x1BCC JUMPI PUSH1 0x40 MLOAD PUSH3 0x461BCD PUSH1 0xE5 SHL DUP2 MSTORE PUSH1 0x20 PUSH1 0x4 DUP3 ADD MSTORE PUSH1 0x21 PUSH1 0x24 DUP3 ADD MSTORE PUSH32 0x496C6C6567616C204368616E67652041434C20436F6E74657874205374617475 PUSH1 0x44 DUP3 ADD MSTORE PUSH1 0x73 PUSH1 0xF8 SHL PUSH1 0x64 DUP3 ADD MSTORE PUSH1 0x84 ADD PUSH2 0x4DD JUMP JUMPDEST PUSH1 0x0 DUP5 DUP2 MSTORE PUSH1 0x1 DUP1 DUP8 ADD PUSH1 0x20 MSTORE PUSH1 0x40 SWAP1 SWAP2 KECCAK256 ADD SLOAD PUSH1 0x1 PUSH1 0x1 PUSH1 0xA0 SHL SUB AND PUSH2 0x1C05 JUMPI PUSH1 0x40 MLOAD PUSH3 0x461BCD PUSH1 0xE5 SHL DUP2 MSTORE PUSH1 0x4 ADD PUSH2 0x4DD SWAP1 PUSH2 0x3A62 JUMP JUMPDEST POP POP PUSH1 0x0 DUP3 DUP2 MSTORE PUSH1 0x1 DUP1 DUP6 ADD PUSH1 0x20 MSTORE PUSH1 0x40 SWAP1 SWAP2 KECCAK256 DUP1 DUP3 ADD DUP1 SLOAD DUP5 ISZERO ISZERO PUSH1 0x1 PUSH1 0xA0 SHL MUL PUSH1 0xFF PUSH1 0xA0 SHL NOT SWAP1 SWAP2 AND OR SWAP1 SSTORE SLOAD SWAP4 POP SWAP4 SWAP2 POP POP JUMP JUMPDEST PUSH1 0x0 ADDRESS PUSH1 0x1 PUSH1 0x1 PUSH1 0xA0 SHL SUB AND PUSH4 0xBE22465D PUSH1 0x40 MLOAD DUP2 PUSH4 0xFFFFFFFF AND PUSH1 0xE0 SHL DUP2 MSTORE PUSH1 0x4 ADD PUSH1 0x20 PUSH1 0x40 MLOAD DUP1 DUP4 SUB DUP2 DUP7 GAS STATICCALL ISZERO DUP1 ISZERO PUSH2 0x1C7C JUMPI RETURNDATASIZE PUSH1 0x0 DUP1 RETURNDATACOPY RETURNDATASIZE PUSH1 0x0 REVERT JUMPDEST POP POP POP POP PUSH1 0x40 MLOAD RETURNDATASIZE PUSH1 0x1F NOT PUSH1 0x1F DUP3 ADD AND DUP3 ADD DUP1 PUSH1 0x40 MSTORE POP DUP2 ADD SWAP1 PUSH2 0x1CA0 SWAP2 SWAP1 PUSH2 0x395B JUMP JUMPDEST ISZERO PUSH2 0x1CBD JUMPI PUSH1 0x40 MLOAD PUSH3 0x461BCD PUSH1 0xE5 SHL DUP2 MSTORE PUSH1 0x4 ADD PUSH2 0x4DD SWAP1 PUSH2 0x3978 JUMP JUMPDEST PUSH20 0x0 PUSH4 0x487C6960 DUP6 PUSH2 0x1CE1 ADDRESS PUSH2 0x210A JUMP JUMPDEST PUSH1 0x40 MLOAD PUSH1 0x1 PUSH1 0x1 PUSH1 0xE0 SHL SUB NOT PUSH1 0xE0 DUP6 SWAP1 SHL AND DUP2 MSTORE PUSH2 0x1D0E SWAP3 SWAP2 SWAP1 CALLER SWAP1 PUSH4 0x5AC4B36F PUSH1 0xE1 SHL SWAP1 PUSH1 0x4 ADD PUSH2 0x3A17 JUMP JUMPDEST PUSH1 0x20 PUSH1 0x40 MLOAD DUP1 DUP4 SUB DUP2 DUP7 GAS DELEGATECALL ISZERO DUP1 ISZERO PUSH2 0x1D2B JUMPI RETURNDATASIZE PUSH1 0x0 DUP1 RETURNDATACOPY RETURNDATASIZE PUSH1 0x0 REVERT JUMPDEST POP POP POP POP PUSH1 0x40 MLOAD RETURNDATASIZE PUSH1 0x1F NOT PUSH1 0x1F DUP3 ADD AND DUP3 ADD DUP1 PUSH1 0x40 MSTORE POP DUP2 ADD SWAP1 PUSH2 0x1D4F SWAP2 SWAP1 PUSH2 0x395B JUMP JUMPDEST PUSH2 0x1D9B JUMPI PUSH1 0x40 MLOAD PUSH3 0x461BCD PUSH1 0xE5 SHL DUP2 MSTORE PUSH1 0x20 PUSH1 0x4 DUP3 ADD MSTORE PUSH1 0x1F PUSH1 0x24 DUP3 ADD MSTORE PUSH32 0x52656D6F7665436F6E7465787446756E63204163636573732044656E69656400 PUSH1 0x44 DUP3 ADD MSTORE PUSH1 0x64 ADD PUSH2 0x4DD JUMP JUMPDEST DUP3 PUSH2 0x1DA5 ADDRESS PUSH2 0x210A JUMP JUMPDEST SUB PUSH2 0x1DF2 JUMPI PUSH1 0x40 MLOAD PUSH3 0x461BCD PUSH1 0xE5 SHL DUP2 MSTORE PUSH1 0x20 PUSH1 0x4 DUP3 ADD MSTORE PUSH1 0x1A PUSH1 0x24 DUP3 ADD MSTORE PUSH32 0x496C6C6567616C2052656D6F76652041434C20436F6E74657874000000000000 PUSH1 0x44 DUP3 ADD MSTORE PUSH1 0x64 ADD PUSH2 0x4DD JUMP JUMPDEST PUSH1 0x0 DUP4 DUP2 MSTORE PUSH1 0x1 DUP1 DUP7 ADD PUSH1 0x20 MSTORE PUSH1 0x40 SWAP1 SWAP2 KECCAK256 ADD SLOAD PUSH1 0x1 PUSH1 0x1 PUSH1 0xA0 SHL SUB AND PUSH2 0x1E2B JUMPI PUSH1 0x40 MLOAD PUSH3 0x461BCD PUSH1 0xE5 SHL DUP2 MSTORE PUSH1 0x4 ADD PUSH2 0x4DD SWAP1 PUSH2 0x3A62 JUMP JUMPDEST PUSH1 0x0 DUP4 DUP2 MSTORE PUSH1 0x1 DUP6 ADD PUSH1 0x20 MSTORE PUSH1 0x40 SWAP1 KECCAK256 PUSH2 0x1E52 SWAP1 PUSH1 0x3 ADD PUSH1 0x1 PUSH1 0x1 PUSH1 0xE0 SHL SUB NOT DUP5 AND PUSH2 0x2C6C JUMP JUMPDEST PUSH2 0x1E6E JUMPI PUSH1 0x40 MLOAD PUSH3 0x461BCD PUSH1 0xE5 SHL DUP2 MSTORE PUSH1 0x4 ADD PUSH2 0x4DD SWAP1 PUSH2 0x3B12 JUMP JUMPDEST PUSH1 0x0 DUP4 DUP2 MSTORE PUSH1 0x1 DUP1 DUP7 ADD PUSH1 0x20 DUP2 DUP2 MSTORE PUSH1 0x40 DUP1 DUP6 KECCAK256 PUSH1 0x1 PUSH1 0x1 PUSH1 0xE0 SHL SUB NOT DUP9 AND DUP1 DUP8 MSTORE PUSH1 0x2 DUP3 ADD DUP5 MSTORE SWAP2 DUP7 KECCAK256 DUP7 DUP2 SSTORE SWAP1 SWAP5 ADD DUP1 SLOAD PUSH1 0xFF NOT AND SWAP1 SSTORE SWAP4 DUP8 SWAP1 MSTORE MSTORE PUSH2 0x1EBB SWAP2 PUSH1 0x3 SWAP1 SWAP2 ADD SWAP1 PUSH2 0x2C60 JUMP JUMPDEST POP POP POP PUSH1 0x0 SWAP1 DUP2 MSTORE PUSH1 0x1 SWAP2 SWAP1 SWAP2 ADD PUSH1 0x20 MSTORE PUSH1 0x40 SWAP1 KECCAK256 SLOAD SWAP1 JUMP JUMPDEST PUSH1 0x40 MLOAD PUSH18 0x1310DBDB9D195E1D13585B9859D95B595B9D PUSH1 0x72 SHL PUSH1 0x20 DUP3 ADD MSTORE PUSH1 0x32 ADD PUSH2 0x8F0 JUMP JUMPDEST PUSH1 0x0 DUP2 DUP2 MSTORE PUSH1 0x1 DUP1 DUP5 ADD PUSH1 0x20 MSTORE PUSH1 0x40 SWAP1 SWAP2 KECCAK256 ADD SLOAD PUSH1 0x60 SWAP1 PUSH1 0x1 PUSH1 0x1 PUSH1 0xA0 SHL SUB AND PUSH2 0x1F36 JUMPI PUSH1 0x40 MLOAD PUSH3 0x461BCD PUSH1 0xE5 SHL DUP2 MSTORE PUSH1 0x4 ADD PUSH2 0x4DD SWAP1 PUSH2 0x3A62 JUMP JUMPDEST PUSH1 0x0 DUP3 DUP2 MSTORE PUSH1 0x1 DUP5 ADD PUSH1 0x20 MSTORE PUSH1 0x40 DUP2 KECCAK256 PUSH2 0x1F52 SWAP1 PUSH1 0x3 ADD PUSH2 0x30D2 JUMP JUMPDEST PUSH8 0xFFFFFFFFFFFFFFFF DUP2 GT ISZERO PUSH2 0x1F6A JUMPI PUSH2 0x1F6A PUSH2 0x349F JUMP JUMPDEST PUSH1 0x40 MLOAD SWAP1 DUP1 DUP3 MSTORE DUP1 PUSH1 0x20 MUL PUSH1 0x20 ADD DUP3 ADD PUSH1 0x40 MSTORE DUP1 ISZERO PUSH2 0x1F93 JUMPI DUP2 PUSH1 0x20 ADD PUSH1 0x20 DUP3 MUL DUP1 CALLDATASIZE DUP4 CALLDATACOPY ADD SWAP1 POP JUMPDEST POP SWAP1 POP PUSH1 0x0 JUMPDEST PUSH1 0x0 DUP5 DUP2 MSTORE PUSH1 0x1 DUP7 ADD PUSH1 0x20 MSTORE PUSH1 0x40 SWAP1 KECCAK256 PUSH2 0x1FB5 SWAP1 PUSH1 0x3 ADD PUSH2 0x30D2 JUMP JUMPDEST DUP2 PUSH4 0xFFFFFFFF AND LT ISZERO PUSH2 0x202B JUMPI PUSH1 0x0 DUP5 DUP2 MSTORE PUSH1 0x1 DUP7 ADD PUSH1 0x20 MSTORE PUSH1 0x40 SWAP1 KECCAK256 PUSH2 0x1FE8 SWAP1 PUSH1 0x3 ADD PUSH4 0xFFFFFFFF DUP1 DUP5 AND SWAP1 PUSH2 0x30DC AND JUMP JUMPDEST DUP3 DUP3 PUSH4 0xFFFFFFFF AND DUP2 MLOAD DUP2 LT PUSH2 0x2000 JUMPI PUSH2 0x2000 PUSH2 0x3B62 JUMP JUMPDEST PUSH1 0x1 PUSH1 0x1 PUSH1 0xE0 SHL SUB NOT SWAP1 SWAP3 AND PUSH1 0x20 SWAP3 DUP4 MUL SWAP2 SWAP1 SWAP2 ADD SWAP1 SWAP2 ADD MSTORE DUP1 PUSH2 0x2023 DUP2 PUSH2 0x3B8E JUMP JUMPDEST SWAP2 POP POP PUSH2 0x1F99 JUMP JUMPDEST POP SWAP4 SWAP3 POP POP POP JUMP JUMPDEST PUSH1 0x0 PUSH2 0x2044 DUP7 DUP7 DUP7 PUSH1 0x1 DUP8 DUP8 PUSH2 0x2870 JUMP JUMPDEST SWAP7 SWAP6 POP POP POP POP POP POP JUMP JUMPDEST PUSH1 0x0 PUSH2 0x1A05 PUSH2 0x205B PUSH2 0x30E8 JUMP JUMPDEST DUP4 PUSH1 0x40 MLOAD PUSH2 0x1901 PUSH1 0xF0 SHL PUSH1 0x20 DUP3 ADD MSTORE PUSH1 0x22 DUP2 ADD DUP4 SWAP1 MSTORE PUSH1 0x42 DUP2 ADD DUP3 SWAP1 MSTORE PUSH1 0x0 SWAP1 PUSH1 0x62 ADD PUSH1 0x40 MLOAD PUSH1 0x20 DUP2 DUP4 SUB SUB DUP2 MSTORE SWAP1 PUSH1 0x40 MSTORE DUP1 MLOAD SWAP1 PUSH1 0x20 ADD KECCAK256 SWAP1 POP SWAP3 SWAP2 POP POP JUMP JUMPDEST PUSH1 0x0 DUP1 DUP3 MLOAD PUSH1 0x41 SUB PUSH2 0x20D2 JUMPI PUSH1 0x20 DUP4 ADD MLOAD PUSH1 0x40 DUP5 ADD MLOAD PUSH1 0x60 DUP6 ADD MLOAD PUSH1 0x0 BYTE PUSH2 0x20C6 DUP8 DUP3 DUP6 DUP6 PUSH2 0x3210 JUMP JUMPDEST SWAP5 POP SWAP5 POP POP POP POP PUSH2 0x2103 JUMP JUMPDEST DUP3 MLOAD PUSH1 0x40 SUB PUSH2 0x20FB JUMPI PUSH1 0x20 DUP4 ADD MLOAD PUSH1 0x40 DUP5 ADD MLOAD PUSH2 0x20F0 DUP7 DUP4 DUP4 PUSH2 0x32FA JUMP JUMPDEST SWAP4 POP SWAP4 POP POP POP PUSH2 0x2103 JUMP JUMPDEST POP PUSH1 0x0 SWAP1 POP PUSH1 0x2 JUMPDEST SWAP3 POP SWAP3 SWAP1 POP JUMP JUMPDEST PUSH1 0x40 MLOAD PUSH12 0xFFFFFFFFFFFFFFFFFFFFFFFF NOT PUSH1 0x60 DUP4 SWAP1 SHL AND PUSH1 0x20 DUP3 ADD MSTORE PUSH1 0x0 SWAP1 PUSH1 0x34 ADD PUSH1 0x40 MLOAD PUSH1 0x20 DUP2 DUP4 SUB SUB DUP2 MSTORE SWAP1 PUSH1 0x40 MSTORE DUP1 MLOAD SWAP1 PUSH1 0x20 ADD KECCAK256 SWAP1 POP SWAP2 SWAP1 POP JUMP JUMPDEST PUSH1 0x0 DUP6 DUP2 MSTORE PUSH1 0x1 DUP1 DUP9 ADD PUSH1 0x20 MSTORE PUSH1 0x40 DUP3 KECCAK256 ADD SLOAD PUSH1 0x1 PUSH1 0x1 PUSH1 0xA0 SHL SUB AND DUP1 PUSH2 0x2182 JUMPI PUSH1 0x40 MLOAD PUSH3 0x461BCD PUSH1 0xE5 SHL DUP2 MSTORE PUSH1 0x4 ADD PUSH2 0x4DD SWAP1 PUSH2 0x3A62 JUMP JUMPDEST PUSH1 0x1 PUSH1 0x1 PUSH1 0xA0 SHL SUB DUP2 AND CALLER EQ PUSH2 0x21DA JUMPI PUSH1 0x40 MLOAD PUSH3 0x461BCD PUSH1 0xE5 SHL DUP2 MSTORE PUSH1 0x20 PUSH1 0x4 DUP3 ADD MSTORE PUSH1 0x18 PUSH1 0x24 DUP3 ADD MSTORE PUSH32 0x55706461746520436F6E7465787420466F7262696464656E0000000000000000 PUSH1 0x44 DUP3 ADD MSTORE PUSH1 0x64 ADD PUSH2 0x4DD JUMP JUMPDEST PUSH1 0x0 DUP7 DUP2 MSTORE PUSH1 0x3 DUP10 ADD PUSH1 0x20 MSTORE PUSH1 0x40 SWAP1 KECCAK256 DUP1 SLOAD PUSH2 0x21F5 SWAP1 PUSH2 0x3A8D JUMP JUMPDEST SWAP1 POP PUSH1 0x0 SUB PUSH2 0x2216 JUMPI PUSH1 0x40 MLOAD PUSH3 0x461BCD PUSH1 0xE5 SHL DUP2 MSTORE PUSH1 0x4 ADD PUSH2 0x4DD SWAP1 PUSH2 0x3AC1 JUMP JUMPDEST PUSH1 0x0 DUP8 DUP2 MSTORE PUSH1 0x1 DUP10 DUP2 ADD PUSH1 0x20 MSTORE PUSH1 0x40 SWAP1 SWAP2 KECCAK256 SWAP1 DUP2 ADD DUP1 SLOAD PUSH1 0xFF PUSH1 0xA0 SHL NOT AND PUSH1 0x1 PUSH1 0xA0 SHL DUP9 ISZERO ISZERO MUL OR SWAP1 SSTORE SLOAD DUP7 EQ PUSH2 0x2293 JUMPI PUSH1 0x0 DUP8 DUP2 MSTORE PUSH1 0x1 DUP10 ADD PUSH1 0x20 SWAP1 DUP2 MSTORE PUSH1 0x40 DUP1 DUP4 KECCAK256 SLOAD DUP4 MSTORE PUSH1 0x3 DUP12 ADD SWAP1 SWAP2 MSTORE SWAP1 KECCAK256 PUSH2 0x2273 SWAP1 PUSH1 0x2 ADD DUP9 PUSH2 0x2C60 JUMP JUMPDEST POP PUSH1 0x0 DUP7 DUP2 MSTORE PUSH1 0x3 DUP10 ADD PUSH1 0x20 MSTORE PUSH1 0x40 SWAP1 KECCAK256 PUSH2 0x2291 SWAP1 PUSH1 0x2 ADD DUP9 PUSH2 0x2C4D JUMP JUMPDEST POP JUMPDEST PUSH1 0x0 DUP8 DUP2 MSTORE PUSH1 0x1 DUP10 ADD PUSH1 0x20 MSTORE PUSH1 0x40 DUP2 KECCAK256 DUP8 SWAP1 SSTORE JUMPDEST DUP4 DUP2 LT ISZERO PUSH2 0x2864 JUMPI DUP9 PUSH1 0x2 ADD PUSH1 0x0 DUP7 DUP7 DUP5 DUP2 DUP2 LT PUSH2 0x22C7 JUMPI PUSH2 0x22C7 PUSH2 0x3B62 JUMP JUMPDEST SWAP1 POP PUSH1 0x20 MUL DUP2 ADD SWAP1 PUSH2 0x22D9 SWAP2 SWAP1 PUSH2 0x3BB1 JUMP JUMPDEST CALLDATALOAD DUP2 MSTORE PUSH1 0x20 DUP2 ADD SWAP2 SWAP1 SWAP2 MSTORE PUSH1 0x40 ADD PUSH1 0x0 KECCAK256 DUP1 SLOAD PUSH2 0x22F5 SWAP1 PUSH2 0x3A8D JUMP JUMPDEST SWAP1 POP PUSH1 0x0 SUB PUSH2 0x2316 JUMPI PUSH1 0x40 MLOAD PUSH3 0x461BCD PUSH1 0xE5 SHL DUP2 MSTORE PUSH1 0x4 ADD PUSH2 0x4DD SWAP1 PUSH2 0x3AEA JUMP JUMPDEST PUSH1 0x0 JUMPDEST DUP6 DUP6 DUP4 DUP2 DUP2 LT PUSH2 0x232B JUMPI PUSH2 0x232B PUSH2 0x3B62 JUMP JUMPDEST SWAP1 POP PUSH1 0x20 MUL DUP2 ADD SWAP1 PUSH2 0x233D SWAP2 SWAP1 PUSH2 0x3BB1 JUMP JUMPDEST PUSH2 0x234B SWAP1 PUSH1 0x20 DUP2 ADD SWAP1 PUSH2 0x3BD1 JUMP JUMPDEST SWAP1 POP DUP2 LT ISZERO PUSH2 0x2851 JUMPI PUSH1 0x1 DUP7 DUP7 DUP5 DUP2 DUP2 LT PUSH2 0x2368 JUMPI PUSH2 0x2368 PUSH2 0x3B62 JUMP JUMPDEST SWAP1 POP PUSH1 0x20 MUL DUP2 ADD SWAP1 PUSH2 0x237A SWAP2 SWAP1 PUSH2 0x3BB1 JUMP JUMPDEST PUSH2 0x238B SWAP1 PUSH1 0x60 DUP2 ADD SWAP1 PUSH1 0x40 ADD PUSH2 0x3C1B JUMP JUMPDEST PUSH1 0x2 DUP2 GT ISZERO PUSH2 0x239C JUMPI PUSH2 0x239C PUSH2 0x39CA JUMP JUMPDEST EQ DUP1 PUSH2 0x23ED JUMPI POP PUSH1 0x0 DUP7 DUP7 DUP5 DUP2 DUP2 LT PUSH2 0x23B7 JUMPI PUSH2 0x23B7 PUSH2 0x3B62 JUMP JUMPDEST SWAP1 POP PUSH1 0x20 MUL DUP2 ADD SWAP1 PUSH2 0x23C9 SWAP2 SWAP1 PUSH2 0x3BB1 JUMP JUMPDEST PUSH2 0x23DA SWAP1 PUSH1 0x60 DUP2 ADD SWAP1 PUSH1 0x40 ADD PUSH2 0x3C1B JUMP JUMPDEST PUSH1 0x2 DUP2 GT ISZERO PUSH2 0x23EB JUMPI PUSH2 0x23EB PUSH2 0x39CA JUMP JUMPDEST EQ JUMPDEST ISZERO PUSH2 0x26A7 JUMPI DUP6 DUP6 DUP4 DUP2 DUP2 LT PUSH2 0x2404 JUMPI PUSH2 0x2404 PUSH2 0x3B62 JUMP JUMPDEST SWAP1 POP PUSH1 0x20 MUL DUP2 ADD SWAP1 PUSH2 0x2416 SWAP2 SWAP1 PUSH2 0x3BB1 JUMP JUMPDEST PUSH1 0x0 DUP11 DUP2 MSTORE PUSH1 0x1 DUP13 ADD PUSH1 0x20 MSTORE PUSH1 0x40 DUP2 KECCAK256 SWAP2 CALLDATALOAD SWAP2 PUSH1 0x2 ADD SWAP1 DUP9 DUP9 DUP7 DUP2 DUP2 LT PUSH2 0x243F JUMPI PUSH2 0x243F PUSH2 0x3B62 JUMP JUMPDEST SWAP1 POP PUSH1 0x20 MUL DUP2 ADD SWAP1 PUSH2 0x2451 SWAP2 SWAP1 PUSH2 0x3BB1 JUMP JUMPDEST PUSH2 0x245F SWAP1 PUSH1 0x20 DUP2 ADD SWAP1 PUSH2 0x3BD1 JUMP JUMPDEST DUP6 DUP2 DUP2 LT PUSH2 0x246F JUMPI PUSH2 0x246F PUSH2 0x3B62 JUMP JUMPDEST SWAP1 POP PUSH1 0x20 MUL ADD PUSH1 0x20 DUP2 ADD SWAP1 PUSH2 0x2484 SWAP2 SWAP1 PUSH2 0x3C3C JUMP JUMPDEST PUSH1 0x1 PUSH1 0x1 PUSH1 0xE0 SHL SUB NOT AND DUP2 MSTORE PUSH1 0x20 DUP2 ADD SWAP2 SWAP1 SWAP2 MSTORE PUSH1 0x40 ADD PUSH1 0x0 KECCAK256 SSTORE PUSH1 0x1 DUP7 DUP7 DUP5 DUP2 DUP2 LT PUSH2 0x24B3 JUMPI PUSH2 0x24B3 PUSH2 0x3B62 JUMP JUMPDEST SWAP1 POP PUSH1 0x20 MUL DUP2 ADD SWAP1 PUSH2 0x24C5 SWAP2 SWAP1 PUSH2 0x3BB1 JUMP JUMPDEST PUSH2 0x24D6 SWAP1 PUSH1 0x60 DUP2 ADD SWAP1 PUSH1 0x40 ADD PUSH2 0x3C1B JUMP JUMPDEST PUSH1 0x2 DUP2 GT ISZERO PUSH2 0x24E7 JUMPI PUSH2 0x24E7 PUSH2 0x39CA JUMP JUMPDEST EQ PUSH2 0x24F3 JUMPI PUSH1 0x2 PUSH2 0x24F6 JUMP JUMPDEST PUSH1 0x1 JUMPDEST PUSH1 0x0 DUP11 DUP2 MSTORE PUSH1 0x1 DUP13 ADD PUSH1 0x20 MSTORE PUSH1 0x40 DUP2 KECCAK256 PUSH1 0x2 ADD SWAP1 DUP9 DUP9 DUP7 DUP2 DUP2 LT PUSH2 0x251C JUMPI PUSH2 0x251C PUSH2 0x3B62 JUMP JUMPDEST SWAP1 POP PUSH1 0x20 MUL DUP2 ADD SWAP1 PUSH2 0x252E SWAP2 SWAP1 PUSH2 0x3BB1 JUMP JUMPDEST PUSH2 0x253C SWAP1 PUSH1 0x20 DUP2 ADD SWAP1 PUSH2 0x3BD1 JUMP JUMPDEST DUP6 DUP2 DUP2 LT PUSH2 0x254C JUMPI PUSH2 0x254C PUSH2 0x3B62 JUMP JUMPDEST SWAP1 POP PUSH1 0x20 MUL ADD PUSH1 0x20 DUP2 ADD SWAP1 PUSH2 0x2561 SWAP2 SWAP1 PUSH2 0x3C3C JUMP JUMPDEST PUSH1 0x1 PUSH1 0x1 PUSH1 0xE0 SHL SUB NOT AND DUP2 MSTORE PUSH1 0x20 DUP2 ADD SWAP2 SWAP1 SWAP2 MSTORE PUSH1 0x40 ADD PUSH1 0x0 KECCAK256 PUSH1 0x1 SWAP1 DUP2 ADD DUP1 SLOAD SWAP1 SWAP2 PUSH1 0xFF NOT SWAP1 SWAP2 AND SWAP1 DUP4 PUSH1 0x2 DUP2 GT ISZERO PUSH2 0x259D JUMPI PUSH2 0x259D PUSH2 0x39CA JUMP JUMPDEST MUL OR SWAP1 SSTORE POP PUSH2 0x261F DUP7 DUP7 DUP5 DUP2 DUP2 LT PUSH2 0x25B7 JUMPI PUSH2 0x25B7 PUSH2 0x3B62 JUMP JUMPDEST SWAP1 POP PUSH1 0x20 MUL DUP2 ADD SWAP1 PUSH2 0x25C9 SWAP2 SWAP1 PUSH2 0x3BB1 JUMP JUMPDEST PUSH2 0x25D7 SWAP1 PUSH1 0x20 DUP2 ADD SWAP1 PUSH2 0x3BD1 JUMP JUMPDEST DUP4 DUP2 DUP2 LT PUSH2 0x25E7 JUMPI PUSH2 0x25E7 PUSH2 0x3B62 JUMP JUMPDEST SWAP1 POP PUSH1 0x20 MUL ADD PUSH1 0x20 DUP2 ADD SWAP1 PUSH2 0x25FC SWAP2 SWAP1 PUSH2 0x3C3C JUMP JUMPDEST PUSH1 0x0 DUP12 DUP2 MSTORE PUSH1 0x1 DUP14 ADD PUSH1 0x20 MSTORE PUSH1 0x40 SWAP1 KECCAK256 PUSH1 0x3 ADD SWAP1 PUSH1 0x1 PUSH1 0x1 PUSH1 0xE0 SHL SUB NOT AND PUSH2 0x2C6C JUMP JUMPDEST PUSH2 0x26A2 JUMPI PUSH2 0x26A0 DUP7 DUP7 DUP5 DUP2 DUP2 LT PUSH2 0x2638 JUMPI PUSH2 0x2638 PUSH2 0x3B62 JUMP JUMPDEST SWAP1 POP PUSH1 0x20 MUL DUP2 ADD SWAP1 PUSH2 0x264A SWAP2 SWAP1 PUSH2 0x3BB1 JUMP JUMPDEST PUSH2 0x2658 SWAP1 PUSH1 0x20 DUP2 ADD SWAP1 PUSH2 0x3BD1 JUMP JUMPDEST DUP4 DUP2 DUP2 LT PUSH2 0x2668 JUMPI PUSH2 0x2668 PUSH2 0x3B62 JUMP JUMPDEST SWAP1 POP PUSH1 0x20 MUL ADD PUSH1 0x20 DUP2 ADD SWAP1 PUSH2 0x267D SWAP2 SWAP1 PUSH2 0x3C3C JUMP JUMPDEST PUSH1 0x0 DUP12 DUP2 MSTORE PUSH1 0x1 DUP14 ADD PUSH1 0x20 MSTORE PUSH1 0x40 SWAP1 KECCAK256 PUSH1 0x3 ADD SWAP1 PUSH1 0x1 PUSH1 0x1 PUSH1 0xE0 SHL SUB NOT AND PUSH2 0x2C4D JUMP JUMPDEST POP JUMPDEST PUSH2 0x283F JUMP JUMPDEST PUSH1 0x0 DUP10 DUP2 MSTORE PUSH1 0x1 DUP12 ADD PUSH1 0x20 MSTORE PUSH1 0x40 DUP2 KECCAK256 PUSH1 0x2 ADD SWAP1 DUP8 DUP8 DUP6 DUP2 DUP2 LT PUSH2 0x26CD JUMPI PUSH2 0x26CD PUSH2 0x3B62 JUMP JUMPDEST SWAP1 POP PUSH1 0x20 MUL DUP2 ADD SWAP1 PUSH2 0x26DF SWAP2 SWAP1 PUSH2 0x3BB1 JUMP JUMPDEST PUSH2 0x26ED SWAP1 PUSH1 0x20 DUP2 ADD SWAP1 PUSH2 0x3BD1 JUMP JUMPDEST DUP5 DUP2 DUP2 LT PUSH2 0x26FD JUMPI PUSH2 0x26FD PUSH2 0x3B62 JUMP JUMPDEST SWAP1 POP PUSH1 0x20 MUL ADD PUSH1 0x20 DUP2 ADD SWAP1 PUSH2 0x2712 SWAP2 SWAP1 PUSH2 0x3C3C JUMP JUMPDEST PUSH1 0x1 PUSH1 0x1 PUSH1 0xE0 SHL SUB NOT AND DUP2 MSTORE PUSH1 0x20 DUP1 DUP3 ADD SWAP3 SWAP1 SWAP3 MSTORE PUSH1 0x40 SWAP1 DUP2 ADD PUSH1 0x0 SWAP1 DUP2 KECCAK256 DUP2 SWAP1 SSTORE DUP12 DUP2 MSTORE PUSH1 0x1 DUP14 ADD SWAP1 SWAP3 MSTORE DUP2 KECCAK256 PUSH1 0x2 ADD SWAP1 DUP8 DUP8 DUP6 DUP2 DUP2 LT PUSH2 0x2756 JUMPI PUSH2 0x2756 PUSH2 0x3B62 JUMP JUMPDEST SWAP1 POP PUSH1 0x20 MUL DUP2 ADD SWAP1 PUSH2 0x2768 SWAP2 SWAP1 PUSH2 0x3BB1 JUMP JUMPDEST PUSH2 0x2776 SWAP1 PUSH1 0x20 DUP2 ADD SWAP1 PUSH2 0x3BD1 JUMP JUMPDEST DUP5 DUP2 DUP2 LT PUSH2 0x2786 JUMPI PUSH2 0x2786 PUSH2 0x3B62 JUMP JUMPDEST SWAP1 POP PUSH1 0x20 MUL ADD PUSH1 0x20 DUP2 ADD SWAP1 PUSH2 0x279B SWAP2 SWAP1 PUSH2 0x3C3C JUMP JUMPDEST PUSH1 0x1 PUSH1 0x1 PUSH1 0xE0 SHL SUB NOT AND DUP2 MSTORE PUSH1 0x20 DUP2 ADD SWAP2 SWAP1 SWAP2 MSTORE PUSH1 0x40 ADD PUSH1 0x0 KECCAK256 PUSH1 0x1 ADD DUP1 SLOAD PUSH1 0xFF NOT AND SWAP1 SSTORE PUSH2 0x283D DUP7 DUP7 DUP5 DUP2 DUP2 LT PUSH2 0x27D5 JUMPI PUSH2 0x27D5 PUSH2 0x3B62 JUMP JUMPDEST SWAP1 POP PUSH1 0x20 MUL DUP2 ADD SWAP1 PUSH2 0x27E7 SWAP2 SWAP1 PUSH2 0x3BB1 JUMP JUMPDEST PUSH2 0x27F5 SWAP1 PUSH1 0x20 DUP2 ADD SWAP1 PUSH2 0x3BD1 JUMP JUMPDEST DUP4 DUP2 DUP2 LT PUSH2 0x2805 JUMPI PUSH2 0x2805 PUSH2 0x3B62 JUMP JUMPDEST SWAP1 POP PUSH1 0x20 MUL ADD PUSH1 0x20 DUP2 ADD SWAP1 PUSH2 0x281A SWAP2 SWAP1 PUSH2 0x3C3C JUMP JUMPDEST PUSH1 0x0 DUP12 DUP2 MSTORE PUSH1 0x1 DUP14 ADD PUSH1 0x20 MSTORE PUSH1 0x40 SWAP1 KECCAK256 PUSH1 0x3 ADD SWAP1 PUSH1 0x1 PUSH1 0x1 PUSH1 0xE0 SHL SUB NOT AND PUSH2 0x2C60 JUMP JUMPDEST POP JUMPDEST DUP1 PUSH2 0x2849 DUP2 PUSH2 0x3C57 JUMP JUMPDEST SWAP2 POP POP PUSH2 0x2319 JUMP JUMPDEST POP DUP1 PUSH2 0x285C DUP2 PUSH2 0x3C57 JUMP JUMPDEST SWAP2 POP POP PUSH2 0x22A7 JUMP JUMPDEST POP SWAP8 SWAP7 POP POP POP POP POP POP POP JUMP JUMPDEST PUSH1 0x0 DUP5 DUP2 MSTORE PUSH1 0x3 DUP8 ADD PUSH1 0x20 MSTORE PUSH1 0x40 DUP2 KECCAK256 DUP1 SLOAD PUSH2 0x288B SWAP1 PUSH2 0x3A8D JUMP JUMPDEST SWAP1 POP PUSH1 0x0 SUB PUSH2 0x28AC JUMPI PUSH1 0x40 MLOAD PUSH3 0x461BCD PUSH1 0xE5 SHL DUP2 MSTORE PUSH1 0x4 ADD PUSH2 0x4DD SWAP1 PUSH2 0x3AC1 JUMP JUMPDEST PUSH1 0x0 PUSH2 0x28B7 DUP8 PUSH2 0x210A JUMP JUMPDEST PUSH1 0x0 DUP2 DUP2 MSTORE PUSH1 0x1 DUP1 DUP12 ADD PUSH1 0x20 MSTORE PUSH1 0x40 SWAP1 SWAP2 KECCAK256 ADD SLOAD SWAP1 SWAP2 POP PUSH1 0x1 PUSH1 0x1 PUSH1 0xA0 SHL SUB AND ISZERO PUSH2 0x2924 JUMPI PUSH1 0x40 MLOAD PUSH3 0x461BCD PUSH1 0xE5 SHL DUP2 MSTORE PUSH1 0x20 PUSH1 0x4 DUP3 ADD MSTORE PUSH1 0x1A PUSH1 0x24 DUP3 ADD MSTORE PUSH32 0x436F6E7465787420416C72656164792052656769737465726564000000000000 PUSH1 0x44 DUP3 ADD MSTORE PUSH1 0x64 ADD PUSH2 0x4DD JUMP JUMPDEST PUSH1 0x0 DUP7 DUP2 MSTORE PUSH1 0x3 DUP10 ADD PUSH1 0x20 MSTORE PUSH1 0x40 SWAP1 KECCAK256 PUSH2 0x2941 SWAP1 PUSH1 0x2 ADD DUP3 PUSH2 0x2C4D JUMP JUMPDEST POP PUSH1 0x0 DUP2 DUP2 MSTORE PUSH1 0x1 DUP1 DUP11 ADD PUSH1 0x20 MSTORE PUSH1 0x40 DUP3 KECCAK256 DUP9 DUP2 SSTORE SWAP1 DUP2 ADD DUP1 SLOAD DUP9 ISZERO ISZERO PUSH1 0x1 PUSH1 0xA0 SHL MUL PUSH1 0x1 PUSH1 0x1 PUSH1 0xA8 SHL SUB NOT SWAP1 SWAP2 AND PUSH1 0x1 PUSH1 0x1 PUSH1 0xA0 SHL SUB DUP13 AND OR OR SWAP1 SSTORE SWAP1 JUMPDEST DUP5 DUP2 LT ISZERO PUSH2 0x2C3F JUMPI DUP10 PUSH1 0x2 ADD PUSH1 0x0 DUP8 DUP8 DUP5 DUP2 DUP2 LT PUSH2 0x29A0 JUMPI PUSH2 0x29A0 PUSH2 0x3B62 JUMP JUMPDEST SWAP1 POP PUSH1 0x20 MUL DUP2 ADD SWAP1 PUSH2 0x29B2 SWAP2 SWAP1 PUSH2 0x3BB1 JUMP JUMPDEST CALLDATALOAD DUP2 MSTORE PUSH1 0x20 DUP2 ADD SWAP2 SWAP1 SWAP2 MSTORE PUSH1 0x40 ADD PUSH1 0x0 KECCAK256 DUP1 SLOAD PUSH2 0x29CE SWAP1 PUSH2 0x3A8D JUMP JUMPDEST SWAP1 POP PUSH1 0x0 SUB PUSH2 0x29EF JUMPI PUSH1 0x40 MLOAD PUSH3 0x461BCD PUSH1 0xE5 SHL DUP2 MSTORE PUSH1 0x4 ADD PUSH2 0x4DD SWAP1 PUSH2 0x3AEA JUMP JUMPDEST PUSH1 0x0 JUMPDEST DUP7 DUP7 DUP4 DUP2 DUP2 LT PUSH2 0x2A04 JUMPI PUSH2 0x2A04 PUSH2 0x3B62 JUMP JUMPDEST SWAP1 POP PUSH1 0x20 MUL DUP2 ADD SWAP1 PUSH2 0x2A16 SWAP2 SWAP1 PUSH2 0x3BB1 JUMP JUMPDEST PUSH2 0x2A24 SWAP1 PUSH1 0x20 DUP2 ADD SWAP1 PUSH2 0x3BD1 JUMP JUMPDEST SWAP1 POP DUP2 LT ISZERO PUSH2 0x2C2C JUMPI DUP7 DUP7 DUP4 DUP2 DUP2 LT PUSH2 0x2A3F JUMPI PUSH2 0x2A3F PUSH2 0x3B62 JUMP JUMPDEST SWAP1 POP PUSH1 0x20 MUL DUP2 ADD SWAP1 PUSH2 0x2A51 SWAP2 SWAP1 PUSH2 0x3BB1 JUMP JUMPDEST CALLDATALOAD PUSH1 0x2 DUP5 ADD PUSH1 0x0 DUP10 DUP10 DUP7 DUP2 DUP2 LT PUSH2 0x2A6A JUMPI PUSH2 0x2A6A PUSH2 0x3B62 JUMP JUMPDEST SWAP1 POP PUSH1 0x20 MUL DUP2 ADD SWAP1 PUSH2 0x2A7C SWAP2 SWAP1 PUSH2 0x3BB1 JUMP JUMPDEST PUSH2 0x2A8A SWAP1 PUSH1 0x20 DUP2 ADD SWAP1 PUSH2 0x3BD1 JUMP JUMPDEST DUP6 DUP2 DUP2 LT PUSH2 0x2A9A JUMPI PUSH2 0x2A9A PUSH2 0x3B62 JUMP JUMPDEST SWAP1 POP PUSH1 0x20 MUL ADD PUSH1 0x20 DUP2 ADD SWAP1 PUSH2 0x2AAF SWAP2 SWAP1 PUSH2 0x3C3C JUMP JUMPDEST PUSH1 0x1 PUSH1 0x1 PUSH1 0xE0 SHL SUB NOT AND DUP2 MSTORE PUSH1 0x20 DUP2 ADD SWAP2 SWAP1 SWAP2 MSTORE PUSH1 0x40 ADD PUSH1 0x0 KECCAK256 SSTORE DUP7 DUP7 DUP4 DUP2 DUP2 LT PUSH2 0x2ADC JUMPI PUSH2 0x2ADC PUSH2 0x3B62 JUMP JUMPDEST SWAP1 POP PUSH1 0x20 MUL DUP2 ADD SWAP1 PUSH2 0x2AEE SWAP2 SWAP1 PUSH2 0x3BB1 JUMP JUMPDEST PUSH2 0x2AFF SWAP1 PUSH1 0x60 DUP2 ADD SWAP1 PUSH1 0x40 ADD PUSH2 0x3A45 JUMP JUMPDEST PUSH2 0x2B0A JUMPI PUSH1 0x2 PUSH2 0x2B0D JUMP JUMPDEST PUSH1 0x1 JUMPDEST DUP4 PUSH1 0x2 ADD PUSH1 0x0 DUP10 DUP10 DUP7 DUP2 DUP2 LT PUSH2 0x2B25 JUMPI PUSH2 0x2B25 PUSH2 0x3B62 JUMP JUMPDEST SWAP1 POP PUSH1 0x20 MUL DUP2 ADD SWAP1 PUSH2 0x2B37 SWAP2 SWAP1 PUSH2 0x3BB1 JUMP JUMPDEST PUSH2 0x2B45 SWAP1 PUSH1 0x20 DUP2 ADD SWAP1 PUSH2 0x3BD1 JUMP JUMPDEST DUP6 DUP2 DUP2 LT PUSH2 0x2B55 JUMPI PUSH2 0x2B55 PUSH2 0x3B62 JUMP JUMPDEST SWAP1 POP PUSH1 0x20 MUL ADD PUSH1 0x20 DUP2 ADD SWAP1 PUSH2 0x2B6A SWAP2 SWAP1 PUSH2 0x3C3C JUMP JUMPDEST PUSH1 0x1 PUSH1 0x1 PUSH1 0xE0 SHL SUB NOT AND DUP2 MSTORE PUSH1 0x20 DUP2 ADD SWAP2 SWAP1 SWAP2 MSTORE PUSH1 0x40 ADD PUSH1 0x0 KECCAK256 PUSH1 0x1 SWAP1 DUP2 ADD DUP1 SLOAD SWAP1 SWAP2 PUSH1 0xFF NOT SWAP1 SWAP2 AND SWAP1 DUP4 PUSH1 0x2 DUP2 GT ISZERO PUSH2 0x2BA6 JUMPI PUSH2 0x2BA6 PUSH2 0x39CA JUMP JUMPDEST MUL OR SWAP1 SSTORE POP PUSH2 0x2C19 DUP8 DUP8 DUP5 DUP2 DUP2 LT PUSH2 0x2BC0 JUMPI PUSH2 0x2BC0 PUSH2 0x3B62 JUMP JUMPDEST SWAP1 POP PUSH1 0x20 MUL DUP2 ADD SWAP1 PUSH2 0x2BD2 SWAP2 SWAP1 PUSH2 0x3BB1 JUMP JUMPDEST PUSH2 0x2BE0 SWAP1 PUSH1 0x20 DUP2 ADD SWAP1 PUSH2 0x3BD1 JUMP JUMPDEST DUP4 DUP2 DUP2 LT PUSH2 0x2BF0 JUMPI PUSH2 0x2BF0 PUSH2 0x3B62 JUMP JUMPDEST SWAP1 POP PUSH1 0x20 MUL ADD PUSH1 0x20 DUP2 ADD SWAP1 PUSH2 0x2C05 SWAP2 SWAP1 PUSH2 0x3C3C JUMP JUMPDEST PUSH1 0x3 DUP6 ADD SWAP1 PUSH1 0x1 PUSH1 0x1 PUSH1 0xE0 SHL SUB NOT AND PUSH2 0x2C4D JUMP JUMPDEST POP DUP1 PUSH2 0x2C24 DUP2 PUSH2 0x3C57 JUMP JUMPDEST SWAP2 POP POP PUSH2 0x29F2 JUMP JUMPDEST POP DUP1 PUSH2 0x2C37 DUP2 PUSH2 0x3C57 JUMP JUMPDEST SWAP2 POP POP PUSH2 0x2980 JUMP JUMPDEST POP SWAP1 SWAP9 SWAP8 POP POP POP POP POP POP POP POP JUMP JUMPDEST PUSH1 0x0 PUSH2 0x2C59 DUP4 DUP4 PUSH2 0x3333 JUMP JUMPDEST SWAP4 SWAP3 POP POP POP JUMP JUMPDEST PUSH1 0x0 PUSH2 0x2C59 DUP4 DUP4 PUSH2 0x3382 JUMP JUMPDEST PUSH1 0x0 DUP2 DUP2 MSTORE PUSH1 0x1 DUP4 ADD PUSH1 0x20 MSTORE PUSH1 0x40 DUP2 KECCAK256 SLOAD ISZERO ISZERO PUSH2 0x2C59 JUMP JUMPDEST PUSH1 0x40 DUP1 DUP3 ADD CALLDATALOAD PUSH1 0x0 SWAP1 DUP2 MSTORE PUSH1 0x3 DUP7 ADD PUSH1 0x20 MSTORE SWAP1 DUP2 KECCAK256 DUP1 SLOAD DUP3 SWAP2 SWAP1 PUSH2 0x2CA7 SWAP1 PUSH2 0x3A8D JUMP JUMPDEST SWAP1 POP PUSH1 0x0 SUB PUSH2 0x2CC8 JUMPI PUSH1 0x40 MLOAD PUSH3 0x461BCD PUSH1 0xE5 SHL DUP2 MSTORE PUSH1 0x4 ADD PUSH2 0x4DD SWAP1 PUSH2 0x3AC1 JUMP JUMPDEST PUSH1 0x0 PUSH2 0x2D5B PUSH1 0x60 DUP6 ADD CALLDATALOAD PUSH2 0x2CE2 PUSH1 0xC0 DUP8 ADD PUSH1 0xA0 DUP9 ADD PUSH2 0x39AF JUMP JUMPDEST PUSH2 0x2CF2 PUSH1 0xA0 DUP9 ADD PUSH1 0x80 DUP10 ADD PUSH2 0x39AF JUMP JUMPDEST PUSH1 0x1 PUSH1 0x1 PUSH1 0xA0 SHL SUB AND SWAP2 SWAP1 PUSH1 0x40 MLOAD PUSH20 0x3D602D80600A3D3981F3363D3D373D3D3D363D73 PUSH1 0x60 SHL DUP2 MSTORE PUSH1 0x60 SWAP4 DUP5 SHL PUSH1 0x14 DUP3 ADD MSTORE PUSH16 0x5AF43D82803E903D91602B57FD5BF3FF PUSH1 0x80 SHL PUSH1 0x28 DUP3 ADD MSTORE SWAP3 SHL PUSH1 0x38 DUP4 ADD MSTORE PUSH1 0x4C DUP3 ADD MSTORE PUSH1 0x37 DUP1 DUP3 KECCAK256 PUSH1 0x6C DUP4 ADD MSTORE PUSH1 0x55 SWAP2 ADD KECCAK256 SWAP1 JUMP JUMPDEST SWAP1 POP PUSH1 0x0 PUSH2 0x2D68 DUP3 PUSH2 0x210A JUMP JUMPDEST PUSH1 0x0 DUP2 DUP2 MSTORE PUSH1 0x1 DUP1 DUP12 ADD PUSH1 0x20 MSTORE PUSH1 0x40 SWAP1 SWAP2 KECCAK256 ADD SLOAD SWAP1 SWAP2 POP PUSH1 0x1 PUSH1 0x1 PUSH1 0xA0 SHL SUB AND ISZERO PUSH2 0x2DD5 JUMPI PUSH1 0x40 MLOAD PUSH3 0x461BCD PUSH1 0xE5 SHL DUP2 MSTORE PUSH1 0x20 PUSH1 0x4 DUP3 ADD MSTORE PUSH1 0x1A PUSH1 0x24 DUP3 ADD MSTORE PUSH32 0x436F6E7465787420416C72656164792052656769737465726564000000000000 PUSH1 0x44 DUP3 ADD MSTORE PUSH1 0x64 ADD PUSH2 0x4DD JUMP JUMPDEST PUSH1 0x40 DUP1 DUP7 ADD CALLDATALOAD PUSH1 0x0 SWAP1 DUP2 MSTORE PUSH1 0x3 DUP11 ADD PUSH1 0x20 MSTORE KECCAK256 PUSH2 0x2DF5 SWAP1 PUSH1 0x2 ADD DUP3 PUSH2 0x2C4D JUMP JUMPDEST POP PUSH1 0x0 DUP2 DUP2 MSTORE PUSH1 0x1 DUP10 DUP2 ADD PUSH1 0x20 MSTORE PUSH1 0x40 SWAP2 DUP3 SWAP1 KECCAK256 SWAP2 DUP8 ADD CALLDATALOAD DUP3 SSTORE DUP2 ADD DUP1 SLOAD PUSH1 0x1 PUSH1 0x1 PUSH1 0xA0 SHL SUB NOT AND PUSH1 0x1 PUSH1 0x1 PUSH1 0xA0 SHL SUB DUP6 AND OR SWAP1 SSTORE PUSH2 0x2E3A PUSH1 0xE0 DUP8 ADD PUSH1 0xC0 DUP9 ADD PUSH2 0x3A45 JUMP JUMPDEST PUSH1 0x1 DUP3 ADD DUP1 SLOAD SWAP2 ISZERO ISZERO PUSH1 0x1 PUSH1 0xA0 SHL MUL PUSH1 0xFF PUSH1 0xA0 SHL NOT SWAP1 SWAP3 AND SWAP2 SWAP1 SWAP2 OR SWAP1 SSTORE PUSH1 0x0 JUMPDEST DUP8 DUP2 LT ISZERO PUSH2 0x30C1 JUMPI DUP10 PUSH1 0x2 ADD PUSH1 0x0 DUP11 DUP11 DUP5 DUP2 DUP2 LT PUSH2 0x2E7B JUMPI PUSH2 0x2E7B PUSH2 0x3B62 JUMP JUMPDEST SWAP1 POP PUSH1 0x20 MUL DUP2 ADD SWAP1 PUSH2 0x2E8D SWAP2 SWAP1 PUSH2 0x3BB1 JUMP JUMPDEST CALLDATALOAD DUP2 MSTORE PUSH1 0x20 DUP2 ADD SWAP2 SWAP1 SWAP2 MSTORE PUSH1 0x40 ADD PUSH1 0x0 KECCAK256 DUP1 SLOAD PUSH2 0x2EA9 SWAP1 PUSH2 0x3A8D JUMP JUMPDEST SWAP1 POP PUSH1 0x0 SUB PUSH2 0x2ECA JUMPI PUSH1 0x40 MLOAD PUSH3 0x461BCD PUSH1 0xE5 SHL DUP2 MSTORE PUSH1 0x4 ADD PUSH2 0x4DD SWAP1 PUSH2 0x3AEA JUMP JUMPDEST PUSH1 0x0 JUMPDEST DUP10 DUP10 DUP4 DUP2 DUP2 LT PUSH2 0x2EDF JUMPI PUSH2 0x2EDF PUSH2 0x3B62 JUMP JUMPDEST SWAP1 POP PUSH1 0x20 MUL DUP2 ADD SWAP1 PUSH2 0x2EF1 SWAP2 SWAP1 PUSH2 0x3BB1 JUMP JUMPDEST PUSH2 0x2EFF SWAP1 PUSH1 0x20 DUP2 ADD SWAP1 PUSH2 0x3BD1 JUMP JUMPDEST SWAP1 POP DUP2 LT ISZERO PUSH2 0x30AE JUMPI DUP10 DUP10 DUP4 DUP2 DUP2 LT PUSH2 0x2F1A JUMPI PUSH2 0x2F1A PUSH2 0x3B62 JUMP JUMPDEST SWAP1 POP PUSH1 0x20 MUL DUP2 ADD SWAP1 PUSH2 0x2F2C SWAP2 SWAP1 PUSH2 0x3BB1 JUMP JUMPDEST CALLDATALOAD PUSH1 0x2 DUP5 ADD PUSH1 0x0 DUP13 DUP13 DUP7 DUP2 DUP2 LT PUSH2 0x2F45 JUMPI PUSH2 0x2F45 PUSH2 0x3B62 JUMP JUMPDEST SWAP1 POP PUSH1 0x20 MUL DUP2 ADD SWAP1 PUSH2 0x2F57 SWAP2 SWAP1 PUSH2 0x3BB1 JUMP JUMPDEST PUSH2 0x2F65 SWAP1 PUSH1 0x20 DUP2 ADD SWAP1 PUSH2 0x3BD1 JUMP JUMPDEST DUP6 DUP2 DUP2 LT PUSH2 0x2F75 JUMPI PUSH2 0x2F75 PUSH2 0x3B62 JUMP JUMPDEST SWAP1 POP PUSH1 0x20 MUL ADD PUSH1 0x20 DUP2 ADD SWAP1 PUSH2 0x2F8A SWAP2 SWAP1 PUSH2 0x3C3C JUMP JUMPDEST PUSH1 0x1 PUSH1 0x1 PUSH1 0xE0 SHL SUB NOT AND DUP2 MSTORE PUSH1 0x20 DUP2 ADD SWAP2 SWAP1 SWAP2 MSTORE PUSH1 0x40 ADD PUSH1 0x0 KECCAK256 SSTORE DUP10 DUP10 DUP4 DUP2 DUP2 LT PUSH2 0x2FB7 JUMPI PUSH2 0x2FB7 PUSH2 0x3B62 JUMP JUMPDEST SWAP1 POP PUSH1 0x20 MUL DUP2 ADD SWAP1 PUSH2 0x2FC9 SWAP2 SWAP1 PUSH2 0x3BB1 JUMP JUMPDEST PUSH2 0x2FDA SWAP1 PUSH1 0x60 DUP2 ADD SWAP1 PUSH1 0x40 ADD PUSH2 0x3A45 JUMP JUMPDEST PUSH2 0x2FE5 JUMPI PUSH1 0x2 PUSH2 0x2FE8 JUMP JUMPDEST PUSH1 0x1 JUMPDEST DUP4 PUSH1 0x2 ADD PUSH1 0x0 DUP13 DUP13 DUP7 DUP2 DUP2 LT PUSH2 0x3000 JUMPI PUSH2 0x3000 PUSH2 0x3B62 JUMP JUMPDEST SWAP1 POP PUSH1 0x20 MUL DUP2 ADD SWAP1 PUSH2 0x3012 SWAP2 SWAP1 PUSH2 0x3BB1 JUMP JUMPDEST PUSH2 0x3020 SWAP1 PUSH1 0x20 DUP2 ADD SWAP1 PUSH2 0x3BD1 JUMP JUMPDEST DUP6 DUP2 DUP2 LT PUSH2 0x3030 JUMPI PUSH2 0x3030 PUSH2 0x3B62 JUMP JUMPDEST SWAP1 POP PUSH1 0x20 MUL ADD PUSH1 0x20 DUP2 ADD SWAP1 PUSH2 0x3045 SWAP2 SWAP1 PUSH2 0x3C3C JUMP JUMPDEST PUSH1 0x1 PUSH1 0x1 PUSH1 0xE0 SHL SUB NOT AND DUP2 MSTORE PUSH1 0x20 DUP2 ADD SWAP2 SWAP1 SWAP2 MSTORE PUSH1 0x40 ADD PUSH1 0x0 KECCAK256 PUSH1 0x1 SWAP1 DUP2 ADD DUP1 SLOAD SWAP1 SWAP2 PUSH1 0xFF NOT SWAP1 SWAP2 AND SWAP1 DUP4 PUSH1 0x2 DUP2 GT ISZERO PUSH2 0x3081 JUMPI PUSH2 0x3081 PUSH2 0x39CA JUMP JUMPDEST MUL OR SWAP1 SSTORE POP PUSH2 0x309B DUP11 DUP11 DUP5 DUP2 DUP2 LT PUSH2 0x2BC0 JUMPI PUSH2 0x2BC0 PUSH2 0x3B62 JUMP JUMPDEST POP DUP1 PUSH2 0x30A6 DUP2 PUSH2 0x3C57 JUMP JUMPDEST SWAP2 POP POP PUSH2 0x2ECD JUMP JUMPDEST POP DUP1 PUSH2 0x30B9 DUP2 PUSH2 0x3C57 JUMP JUMPDEST SWAP2 POP POP PUSH2 0x2E5B JUMP JUMPDEST POP SWAP2 SWAP4 POP SWAP2 POP POP JUMPDEST SWAP5 POP SWAP5 SWAP3 POP POP POP JUMP JUMPDEST PUSH1 0x0 PUSH2 0x1A05 DUP3 SLOAD SWAP1 JUMP JUMPDEST PUSH1 0x0 PUSH2 0x2C59 DUP4 DUP4 PUSH2 0x3475 JUMP JUMPDEST PUSH1 0x0 PUSH32 0x8B73C3C69BB8FE3D512ECC4CF759CC79239F7B179B0FFACAA9A75D522B39400F ADDRESS PUSH1 0x1 PUSH1 0x1 PUSH1 0xA0 SHL SUB AND PUSH4 0x75D0C0DC PUSH1 0x40 MLOAD DUP2 PUSH4 0xFFFFFFFF AND PUSH1 0xE0 SHL DUP2 MSTORE PUSH1 0x4 ADD PUSH1 0x20 PUSH1 0x40 MLOAD DUP1 DUP4 SUB DUP2 DUP7 GAS STATICCALL ISZERO DUP1 ISZERO PUSH2 0x3149 JUMPI RETURNDATASIZE PUSH1 0x0 DUP1 RETURNDATACOPY RETURNDATASIZE PUSH1 0x0 REVERT JUMPDEST POP POP POP POP PUSH1 0x40 MLOAD RETURNDATASIZE PUSH1 0x1F NOT PUSH1 0x1F DUP3 ADD AND DUP3 ADD DUP1 PUSH1 0x40 MSTORE POP DUP2 ADD SWAP1 PUSH2 0x316D SWAP2 SWAP1 PUSH2 0x3B49 JUMP JUMPDEST ADDRESS PUSH1 0x1 PUSH1 0x1 PUSH1 0xA0 SHL SUB AND PUSH4 0xA0A8E460 PUSH1 0x40 MLOAD DUP2 PUSH4 0xFFFFFFFF AND PUSH1 0xE0 SHL DUP2 MSTORE PUSH1 0x4 ADD PUSH1 0x20 PUSH1 0x40 MLOAD DUP1 DUP4 SUB DUP2 DUP7 GAS STATICCALL ISZERO DUP1 ISZERO PUSH2 0x31AB JUMPI RETURNDATASIZE PUSH1 0x0 DUP1 RETURNDATACOPY RETURNDATASIZE PUSH1 0x0 REVERT JUMPDEST POP POP POP POP PUSH1 0x40 MLOAD RETURNDATASIZE PUSH1 0x1F NOT PUSH1 0x1F DUP3 ADD AND DUP3 ADD DUP1 PUSH1 0x40 MSTORE POP DUP2 ADD SWAP1 PUSH2 0x31CF SWAP2 SWAP1 PUSH2 0x3B49 JUMP JUMPDEST PUSH1 0x40 DUP1 MLOAD PUSH1 0x20 DUP2 ADD SWAP5 SWAP1 SWAP5 MSTORE DUP4 ADD SWAP2 SWAP1 SWAP2 MSTORE PUSH1 0x60 DUP3 ADD MSTORE CHAINID PUSH1 0x80 DUP3 ADD MSTORE ADDRESS PUSH1 0xA0 DUP3 ADD MSTORE PUSH1 0xC0 ADD PUSH1 0x40 MLOAD PUSH1 0x20 DUP2 DUP4 SUB SUB DUP2 MSTORE SWAP1 PUSH1 0x40 MSTORE DUP1 MLOAD SWAP1 PUSH1 0x20 ADD KECCAK256 SWAP1 POP SWAP1 JUMP JUMPDEST PUSH1 0x0 DUP1 PUSH32 0x7FFFFFFFFFFFFFFFFFFFFFFFFFFFFFFF5D576E7357A4501DDFE92F46681B20A0 DUP4 GT ISZERO PUSH2 0x3247 JUMPI POP PUSH1 0x0 SWAP1 POP PUSH1 0x3 PUSH2 0x30C9 JUMP JUMPDEST DUP5 PUSH1 0xFF AND PUSH1 0x1B EQ ISZERO DUP1 ISZERO PUSH2 0x325F JUMPI POP DUP5 PUSH1 0xFF AND PUSH1 0x1C EQ ISZERO JUMPDEST ISZERO PUSH2 0x3270 JUMPI POP PUSH1 0x0 SWAP1 POP PUSH1 0x4 PUSH2 0x30C9 JUMP JUMPDEST PUSH1 0x40 DUP1 MLOAD PUSH1 0x0 DUP1 DUP3 MSTORE PUSH1 0x20 DUP3 ADD DUP1 DUP5 MSTORE DUP10 SWAP1 MSTORE PUSH1 0xFF DUP9 AND SWAP3 DUP3 ADD SWAP3 SWAP1 SWAP3 MSTORE PUSH1 0x60 DUP2 ADD DUP7 SWAP1 MSTORE PUSH1 0x80 DUP2 ADD DUP6 SWAP1 MSTORE PUSH1 0x1 SWAP1 PUSH1 0xA0 ADD PUSH1 0x20 PUSH1 0x40 MLOAD PUSH1 0x20 DUP2 SUB SWAP1 DUP1 DUP5 SUB SWAP1 DUP6 GAS STATICCALL ISZERO DUP1 ISZERO PUSH2 0x32C4 JUMPI RETURNDATASIZE PUSH1 0x0 DUP1 RETURNDATACOPY RETURNDATASIZE PUSH1 0x0 REVERT JUMPDEST POP POP PUSH1 0x40 MLOAD PUSH1 0x1F NOT ADD MLOAD SWAP2 POP POP PUSH1 0x1 PUSH1 0x1 PUSH1 0xA0 SHL SUB DUP2 AND PUSH2 0x32ED JUMPI PUSH1 0x0 PUSH1 0x1 SWAP3 POP SWAP3 POP POP PUSH2 0x30C9 JUMP JUMPDEST SWAP7 PUSH1 0x0 SWAP7 POP SWAP5 POP POP POP POP POP JUMP JUMPDEST PUSH1 0x0 DUP1 PUSH1 0x1 PUSH1 0x1 PUSH1 0xFF SHL SUB DUP4 AND DUP2 PUSH2 0x3317 PUSH1 0xFF DUP7 SWAP1 SHR PUSH1 0x1B PUSH2 0x3C70 JUMP JUMPDEST SWAP1 POP PUSH2 0x3325 DUP8 DUP3 DUP9 DUP6 PUSH2 0x3210 JUMP JUMPDEST SWAP4 POP SWAP4 POP POP POP SWAP4 POP SWAP4 SWAP2 POP POP JUMP JUMPDEST PUSH1 0x0 DUP2 DUP2 MSTORE PUSH1 0x1 DUP4 ADD PUSH1 0x20 MSTORE PUSH1 0x40 DUP2 KECCAK256 SLOAD PUSH2 0x337A JUMPI POP DUP2 SLOAD PUSH1 0x1 DUP2 DUP2 ADD DUP5 SSTORE PUSH1 0x0 DUP5 DUP2 MSTORE PUSH1 0x20 DUP1 DUP3 KECCAK256 SWAP1 SWAP4 ADD DUP5 SWAP1 SSTORE DUP5 SLOAD DUP5 DUP3 MSTORE DUP3 DUP7 ADD SWAP1 SWAP4 MSTORE PUSH1 0x40 SWAP1 KECCAK256 SWAP2 SWAP1 SWAP2 SSTORE PUSH2 0x1A05 JUMP JUMPDEST POP PUSH1 0x0 PUSH2 0x1A05 JUMP JUMPDEST PUSH1 0x0 DUP2 DUP2 MSTORE PUSH1 0x1 DUP4 ADD PUSH1 0x20 MSTORE PUSH1 0x40 DUP2 KECCAK256 SLOAD DUP1 ISZERO PUSH2 0x346B JUMPI PUSH1 0x0 PUSH2 0x33A6 PUSH1 0x1 DUP4 PUSH2 0x3C83 JUMP JUMPDEST DUP6 SLOAD SWAP1 SWAP2 POP PUSH1 0x0 SWAP1 PUSH2 0x33BA SWAP1 PUSH1 0x1 SWAP1 PUSH2 0x3C83 JUMP JUMPDEST SWAP1 POP DUP2 DUP2 EQ PUSH2 0x341F JUMPI PUSH1 0x0 DUP7 PUSH1 0x0 ADD DUP3 DUP2 SLOAD DUP2 LT PUSH2 0x33DA JUMPI PUSH2 0x33DA PUSH2 0x3B62 JUMP JUMPDEST SWAP1 PUSH1 0x0 MSTORE PUSH1 0x20 PUSH1 0x0 KECCAK256 ADD SLOAD SWAP1 POP DUP1 DUP8 PUSH1 0x0 ADD DUP5 DUP2 SLOAD DUP2 LT PUSH2 0x33FD JUMPI PUSH2 0x33FD PUSH2 0x3B62 JUMP JUMPDEST PUSH1 0x0 SWAP2 DUP3 MSTORE PUSH1 0x20 DUP1 DUP4 KECCAK256 SWAP1 SWAP2 ADD SWAP3 SWAP1 SWAP3 SSTORE SWAP2 DUP3 MSTORE PUSH1 0x1 DUP9 ADD SWAP1 MSTORE PUSH1 0x40 SWAP1 KECCAK256 DUP4 SWAP1 SSTORE JUMPDEST DUP6 SLOAD DUP7 SWAP1 DUP1 PUSH2 0x3430 JUMPI PUSH2 0x3430 PUSH2 0x3C96 JUMP JUMPDEST PUSH1 0x1 SWAP1 SUB DUP2 DUP2 SWAP1 PUSH1 0x0 MSTORE PUSH1 0x20 PUSH1 0x0 KECCAK256 ADD PUSH1 0x0 SWAP1 SSTORE SWAP1 SSTORE DUP6 PUSH1 0x1 ADD PUSH1 0x0 DUP7 DUP2 MSTORE PUSH1 0x20 ADD SWAP1 DUP2 MSTORE PUSH1 0x20 ADD PUSH1 0x0 KECCAK256 PUSH1 0x0 SWAP1 SSTORE PUSH1 0x1 SWAP4 POP POP POP POP PUSH2 0x1A05 JUMP JUMPDEST PUSH1 0x0 SWAP2 POP POP PUSH2 0x1A05 JUMP JUMPDEST PUSH1 0x0 DUP3 PUSH1 0x0 ADD DUP3 DUP2 SLOAD DUP2 LT PUSH2 0x348C JUMPI PUSH2 0x348C PUSH2 0x3B62 JUMP JUMPDEST SWAP1 PUSH1 0x0 MSTORE PUSH1 0x20 PUSH1 0x0 KECCAK256 ADD SLOAD SWAP1 POP SWAP3 SWAP2 POP POP JUMP JUMPDEST PUSH4 0x4E487B71 PUSH1 0xE0 SHL PUSH1 0x0 MSTORE PUSH1 0x41 PUSH1 0x4 MSTORE PUSH1 0x24 PUSH1 0x0 REVERT JUMPDEST PUSH1 0x0 DUP3 PUSH1 0x1F DUP4 ADD SLT PUSH2 0x34C6 JUMPI PUSH1 0x0 DUP1 REVERT JUMPDEST DUP2 CALLDATALOAD PUSH8 0xFFFFFFFFFFFFFFFF DUP1 DUP3 GT ISZERO PUSH2 0x34E1 JUMPI PUSH2 0x34E1 PUSH2 0x349F JUMP JUMPDEST PUSH1 0x40 MLOAD PUSH1 0x1F DUP4 ADD PUSH1 0x1F NOT SWAP1 DUP2 AND PUSH1 0x3F ADD AND DUP2 ADD SWAP1 DUP3 DUP3 GT DUP2 DUP4 LT OR ISZERO PUSH2 0x3509 JUMPI PUSH2 0x3509 PUSH2 0x349F JUMP JUMPDEST DUP2 PUSH1 0x40 MSTORE DUP4 DUP2 MSTORE DUP7 PUSH1 0x20 DUP6 DUP9 ADD ADD GT ISZERO PUSH2 0x3522 JUMPI PUSH1 0x0 DUP1 REVERT JUMPDEST DUP4 PUSH1 0x20 DUP8 ADD PUSH1 0x20 DUP4 ADD CALLDATACOPY PUSH1 0x0 PUSH1 0x20 DUP6 DUP4 ADD ADD MSTORE DUP1 SWAP5 POP POP POP POP POP SWAP3 SWAP2 POP POP JUMP JUMPDEST PUSH1 0x0 PUSH1 0xA0 DUP3 DUP5 SUB SLT ISZERO PUSH2 0x3554 JUMPI PUSH1 0x0 DUP1 REVERT JUMPDEST POP SWAP2 SWAP1 POP JUMP JUMPDEST PUSH1 0x0 DUP1 DUP4 PUSH1 0x1F DUP5 ADD SLT PUSH2 0x356C JUMPI PUSH1 0x0 DUP1 REVERT JUMPDEST POP DUP2 CALLDATALOAD PUSH8 0xFFFFFFFFFFFFFFFF DUP2 GT ISZERO PUSH2 0x3584 JUMPI PUSH1 0x0 DUP1 REVERT JUMPDEST PUSH1 0x20 DUP4 ADD SWAP2 POP DUP4 PUSH1 0x20 DUP3 PUSH1 0x5 SHL DUP6 ADD ADD GT ISZERO PUSH2 0x2103 JUMPI PUSH1 0x0 DUP1 REVERT JUMPDEST PUSH1 0x0 DUP1 PUSH1 0x0 DUP1 PUSH1 0x0 DUP1 PUSH2 0x120 DUP8 DUP10 SUB SLT ISZERO PUSH2 0x35B9 JUMPI PUSH1 0x0 DUP1 REVERT JUMPDEST DUP7 CALLDATALOAD SWAP6 POP PUSH1 0x20 DUP8 ADD CALLDATALOAD SWAP5 POP PUSH1 0x40 DUP8 ADD CALLDATALOAD PUSH8 0xFFFFFFFFFFFFFFFF DUP1 DUP3 GT ISZERO PUSH2 0x35DF JUMPI PUSH1 0x0 DUP1 REVERT JUMPDEST PUSH2 0x35EB DUP11 DUP4 DUP12 ADD PUSH2 0x34B5 JUMP JUMPDEST SWAP6 POP PUSH2 0x35FA DUP11 PUSH1 0x60 DUP12 ADD PUSH2 0x3542 JUMP JUMPDEST SWAP5 POP PUSH2 0x100 DUP10 ADD CALLDATALOAD SWAP2 POP DUP1 DUP3 GT ISZERO PUSH2 0x3611 JUMPI PUSH1 0x0 DUP1 REVERT JUMPDEST POP PUSH2 0x361E DUP10 DUP3 DUP11 ADD PUSH2 0x355A JUMP JUMPDEST SWAP8 SWAP11 SWAP7 SWAP10 POP SWAP5 SWAP8 POP SWAP3 SWAP6 SWAP4 SWAP5 SWAP3 POP POP POP JUMP JUMPDEST PUSH1 0x0 DUP1 PUSH1 0x0 DUP1 PUSH1 0x0 PUSH2 0x100 DUP7 DUP9 SUB SLT ISZERO PUSH2 0x3649 JUMPI PUSH1 0x0 DUP1 REVERT JUMPDEST DUP6 CALLDATALOAD SWAP5 POP PUSH1 0x20 DUP7 ADD CALLDATALOAD PUSH8 0xFFFFFFFFFFFFFFFF DUP1 DUP3 GT ISZERO PUSH2 0x3668 JUMPI PUSH1 0x0 DUP1 REVERT JUMPDEST PUSH2 0x3674 DUP10 DUP4 DUP11 ADD PUSH2 0x34B5 JUMP JUMPDEST SWAP6 POP PUSH2 0x3683 DUP10 PUSH1 0x40 DUP11 ADD PUSH2 0x3542 JUMP JUMPDEST SWAP5 POP PUSH1 0xE0 DUP9 ADD CALLDATALOAD SWAP2 POP DUP1 DUP3 GT ISZERO PUSH2 0x3699 JUMPI PUSH1 0x0 DUP1 REVERT JUMPDEST POP PUSH2 0x36A6 DUP9 DUP3 DUP10 ADD PUSH2 0x355A JUMP JUMPDEST SWAP7 SWAP10 SWAP6 SWAP9 POP SWAP4 SWAP7 POP SWAP3 SWAP5 SWAP4 SWAP3 POP POP POP JUMP JUMPDEST PUSH1 0x0 DUP1 PUSH1 0x0 PUSH1 0x60 DUP5 DUP7 SUB SLT ISZERO PUSH2 0x36CC JUMPI PUSH1 0x0 DUP1 REVERT JUMPDEST POP POP DUP2 CALLDATALOAD SWAP4 PUSH1 0x20 DUP4 ADD CALLDATALOAD SWAP4 POP PUSH1 0x40 SWAP1 SWAP3 ADD CALLDATALOAD SWAP2 SWAP1 POP JUMP JUMPDEST DUP1 CALLDATALOAD PUSH1 0x1 PUSH1 0x1 PUSH1 0xE0 SHL SUB NOT DUP2 AND DUP2 EQ PUSH2 0x36FB JUMPI PUSH1 0x0 DUP1 REVERT JUMPDEST SWAP2 SWAP1 POP JUMP JUMPDEST PUSH1 0x0 DUP1 PUSH1 0x0 DUP1 PUSH1 0x80 DUP6 DUP8 SUB SLT ISZERO PUSH2 0x3716 JUMPI PUSH1 0x0 DUP1 REVERT JUMPDEST DUP5 CALLDATALOAD SWAP4 POP PUSH1 0x20 DUP6 ADD CALLDATALOAD SWAP3 POP PUSH2 0x372D PUSH1 0x40 DUP7 ADD PUSH2 0x36E3 JUMP JUMPDEST SWAP4 SWAP7 SWAP3 SWAP6 POP SWAP3 SWAP4 PUSH1 0x60 ADD CALLDATALOAD SWAP3 POP POP JUMP JUMPDEST PUSH1 0x0 DUP1 PUSH1 0x0 DUP1 PUSH1 0x0 DUP6 DUP8 SUB PUSH2 0x140 DUP2 SLT ISZERO PUSH2 0x3757 JUMPI PUSH1 0x0 DUP1 REVERT JUMPDEST DUP7 CALLDATALOAD SWAP6 POP PUSH1 0x20 DUP8 ADD CALLDATALOAD PUSH8 0xFFFFFFFFFFFFFFFF DUP1 DUP3 GT ISZERO PUSH2 0x3776 JUMPI PUSH1 0x0 DUP1 REVERT JUMPDEST PUSH2 0x3782 DUP11 DUP4 DUP12 ADD PUSH2 0x34B5 JUMP JUMPDEST SWAP7 POP PUSH1 0xE0 PUSH1 0x3F NOT DUP5 ADD SLT ISZERO PUSH2 0x3796 JUMPI PUSH1 0x0 DUP1 REVERT JUMPDEST PUSH1 0x40 DUP10 ADD SWAP6 POP PUSH2 0x120 DUP10 ADD CALLDATALOAD SWAP3 POP DUP1 DUP4 GT ISZERO PUSH2 0x37B1 JUMPI PUSH1 0x0 DUP1 REVERT JUMPDEST POP POP PUSH2 0x36A6 DUP9 DUP3 DUP10 ADD PUSH2 0x355A JUMP JUMPDEST PUSH1 0x0 DUP1 PUSH1 0x0 DUP1 PUSH1 0x80 DUP6 DUP8 SUB SLT ISZERO PUSH2 0x37D5 JUMPI PUSH1 0x0 DUP1 REVERT JUMPDEST DUP5 CALLDATALOAD SWAP4 POP PUSH1 0x20 DUP6 ADD CALLDATALOAD SWAP3 POP PUSH1 0x40 DUP6 ADD CALLDATALOAD SWAP2 POP PUSH2 0x37F3 PUSH1 0x60 DUP7 ADD PUSH2 0x36E3 JUMP JUMPDEST SWAP1 POP SWAP3 SWAP6 SWAP2 SWAP5 POP SWAP3 POP JUMP JUMPDEST PUSH1 0x0 DUP1 PUSH1 0x40 DUP4 DUP6 SUB SLT ISZERO PUSH2 0x3811 JUMPI PUSH1 0x0 DUP1 REVERT JUMPDEST POP POP DUP1 CALLDATALOAD SWAP3 PUSH1 0x20 SWAP1 SWAP2 ADD CALLDATALOAD SWAP2 POP JUMP JUMPDEST DUP1 ISZERO ISZERO DUP2 EQ PUSH2 0x382E JUMPI PUSH1 0x0 DUP1 REVERT JUMPDEST POP JUMP JUMPDEST PUSH1 0x0 DUP1 PUSH1 0x0 PUSH1 0x60 DUP5 DUP7 SUB SLT ISZERO PUSH2 0x3846 JUMPI PUSH1 0x0 DUP1 REVERT JUMPDEST DUP4 CALLDATALOAD SWAP3 POP PUSH1 0x20 DUP5 ADD CALLDATALOAD SWAP2 POP PUSH1 0x40 DUP5 ADD CALLDATALOAD PUSH2 0x385F DUP2 PUSH2 0x3820 JUMP JUMPDEST DUP1 SWAP2 POP POP SWAP3 POP SWAP3 POP SWAP3 JUMP JUMPDEST PUSH1 0x0 DUP1 PUSH1 0x0 PUSH1 0x60 DUP5 DUP7 SUB SLT ISZERO PUSH2 0x387F JUMPI PUSH1 0x0 DUP1 REVERT JUMPDEST DUP4 CALLDATALOAD SWAP3 POP PUSH1 0x20 DUP5 ADD CALLDATALOAD SWAP2 POP PUSH2 0x3896 PUSH1 0x40 DUP6 ADD PUSH2 0x36E3 JUMP JUMPDEST SWAP1 POP SWAP3 POP SWAP3 POP SWAP3 JUMP JUMPDEST PUSH1 0x20 DUP1 DUP3 MSTORE DUP3 MLOAD DUP3 DUP3 ADD DUP2 SWAP1 MSTORE PUSH1 0x0 SWAP2 SWAP1 DUP5 DUP3 ADD SWAP1 PUSH1 0x40 DUP6 ADD SWAP1 DUP5 JUMPDEST DUP2 DUP2 LT ISZERO PUSH2 0x38E1 JUMPI DUP4 MLOAD PUSH1 0x1 PUSH1 0x1 PUSH1 0xE0 SHL SUB NOT AND DUP4 MSTORE SWAP3 DUP5 ADD SWAP3 SWAP2 DUP5 ADD SWAP2 PUSH1 0x1 ADD PUSH2 0x38BB JUMP JUMPDEST POP SWAP1 SWAP7 SWAP6 POP POP POP POP POP POP JUMP JUMPDEST DUP1 CALLDATALOAD PUSH1 0x1 PUSH1 0x1 PUSH1 0xA0 SHL SUB DUP2 AND DUP2 EQ PUSH2 0x36FB JUMPI PUSH1 0x0 DUP1 REVERT JUMPDEST PUSH1 0x0 DUP1 PUSH1 0x0 DUP1 PUSH1 0x0 PUSH1 0x80 DUP7 DUP9 SUB SLT ISZERO PUSH2 0x391C JUMPI PUSH1 0x0 DUP1 REVERT JUMPDEST DUP6 CALLDATALOAD SWAP5 POP PUSH2 0x392C PUSH1 0x20 DUP8 ADD PUSH2 0x38ED JUMP JUMPDEST SWAP4 POP PUSH1 0x40 DUP7 ADD CALLDATALOAD SWAP3 POP PUSH1 0x60 DUP7 ADD CALLDATALOAD PUSH8 0xFFFFFFFFFFFFFFFF DUP2 GT ISZERO PUSH2 0x394F JUMPI PUSH1 0x0 DUP1 REVERT JUMPDEST PUSH2 0x36A6 DUP9 DUP3 DUP10 ADD PUSH2 0x355A JUMP JUMPDEST PUSH1 0x0 PUSH1 0x20 DUP3 DUP5 SUB SLT ISZERO PUSH2 0x396D JUMPI PUSH1 0x0 DUP1 REVERT JUMPDEST DUP2 MLOAD PUSH2 0x2C59 DUP2 PUSH2 0x3820 JUMP JUMPDEST PUSH1 0x20 DUP1 DUP3 MSTORE PUSH1 0x17 SWAP1 DUP3 ADD MSTORE PUSH32 0x536166654D6F64653A2043616C6C2052656A6563746564000000000000000000 PUSH1 0x40 DUP3 ADD MSTORE PUSH1 0x60 ADD SWAP1 JUMP JUMPDEST PUSH1 0x0 PUSH1 0x20 DUP3 DUP5 SUB SLT ISZERO PUSH2 0x39C1 JUMPI PUSH1 0x0 DUP1 REVERT JUMPDEST PUSH2 0x2C59 DUP3 PUSH2 0x38ED JUMP JUMPDEST PUSH4 0x4E487B71 PUSH1 0xE0 SHL PUSH1 0x0 MSTORE PUSH1 0x21 PUSH1 0x4 MSTORE PUSH1 0x24 PUSH1 0x0 REVERT JUMPDEST PUSH1 0x20 DUP1 DUP3 MSTORE PUSH1 0x18 SWAP1 DUP3 ADD MSTORE PUSH32 0x496C6C6567616C20454344415341205369676E61747572650000000000000000 PUSH1 0x40 DUP3 ADD MSTORE PUSH1 0x60 ADD SWAP1 JUMP JUMPDEST SWAP4 DUP5 MSTORE PUSH1 0x20 DUP5 ADD SWAP3 SWAP1 SWAP3 MSTORE PUSH1 0x1 PUSH1 0x1 PUSH1 0xA0 SHL SUB AND PUSH1 0x40 DUP4 ADD MSTORE PUSH1 0x1 PUSH1 0x1 PUSH1 0xE0 SHL SUB NOT AND PUSH1 0x60 DUP3 ADD MSTORE PUSH1 0x80 ADD SWAP1 JUMP JUMPDEST PUSH1 0x0 PUSH1 0x20 DUP3 DUP5 SUB SLT ISZERO PUSH2 0x3A57 JUMPI PUSH1 0x0 DUP1 REVERT JUMPDEST DUP2 CALLDATALOAD PUSH2 0x2C59 DUP2 PUSH2 0x3820 JUMP JUMPDEST PUSH1 0x20 DUP1 DUP3 MSTORE PUSH1 0x11 SWAP1 DUP3 ADD MSTORE PUSH17 0x10DBDB9D195E1D08139BDD08119BDD5B99 PUSH1 0x7A SHL PUSH1 0x40 DUP3 ADD MSTORE PUSH1 0x60 ADD SWAP1 JUMP JUMPDEST PUSH1 0x1 DUP2 DUP2 SHR SWAP1 DUP3 AND DUP1 PUSH2 0x3AA1 JUMPI PUSH1 0x7F DUP3 AND SWAP2 POP JUMPDEST PUSH1 0x20 DUP3 LT DUP2 SUB PUSH2 0x3554 JUMPI PUSH4 0x4E487B71 PUSH1 0xE0 SHL PUSH1 0x0 MSTORE PUSH1 0x22 PUSH1 0x4 MSTORE PUSH1 0x24 PUSH1 0x0 REVERT JUMPDEST PUSH1 0x20 DUP1 DUP3 MSTORE PUSH1 0xF SWAP1 DUP3 ADD MSTORE PUSH15 0x1499585B1B48139BDD08119BDD5B99 PUSH1 0x8A SHL PUSH1 0x40 DUP3 ADD MSTORE PUSH1 0x60 ADD SWAP1 JUMP JUMPDEST PUSH1 0x20 DUP1 DUP3 MSTORE PUSH1 0xE SWAP1 DUP3 ADD MSTORE PUSH14 0x149BDB1948139BDD08119BDD5B99 PUSH1 0x92 SHL PUSH1 0x40 DUP3 ADD MSTORE PUSH1 0x60 ADD SWAP1 JUMP JUMPDEST PUSH1 0x20 DUP1 DUP3 MSTORE PUSH1 0x1A SWAP1 DUP3 ADD MSTORE PUSH32 0x46756E6374696F6E53656C6563746F72204E6F7420466F756E64000000000000 PUSH1 0x40 DUP3 ADD MSTORE PUSH1 0x60 ADD SWAP1 JUMP JUMPDEST PUSH1 0x0 PUSH1 0x20 DUP3 DUP5 SUB SLT ISZERO PUSH2 0x3B5B JUMPI PUSH1 0x0 DUP1 REVERT JUMPDEST POP MLOAD SWAP2 SWAP1 POP JUMP JUMPDEST PUSH4 0x4E487B71 PUSH1 0xE0 SHL PUSH1 0x0 MSTORE PUSH1 0x32 PUSH1 0x4 MSTORE PUSH1 0x24 PUSH1 0x0 REVERT JUMPDEST PUSH4 0x4E487B71 PUSH1 0xE0 SHL PUSH1 0x0 MSTORE PUSH1 0x11 PUSH1 0x4 MSTORE PUSH1 0x24 PUSH1 0x0 REVERT JUMPDEST PUSH1 0x0 PUSH4 0xFFFFFFFF DUP1 DUP4 AND DUP2 DUP2 SUB PUSH2 0x3BA7 JUMPI PUSH2 0x3BA7 PUSH2 0x3B78 JUMP JUMPDEST PUSH1 0x1 ADD SWAP4 SWAP3 POP POP POP JUMP JUMPDEST PUSH1 0x0 DUP3 CALLDATALOAD PUSH1 0x5E NOT DUP4 CALLDATASIZE SUB ADD DUP2 SLT PUSH2 0x3BC7 JUMPI PUSH1 0x0 DUP1 REVERT JUMPDEST SWAP2 SWAP1 SWAP2 ADD SWAP3 SWAP2 POP POP JUMP JUMPDEST PUSH1 0x0 DUP1 DUP4 CALLDATALOAD PUSH1 0x1E NOT DUP5 CALLDATASIZE SUB ADD DUP2 SLT PUSH2 0x3BE8 JUMPI PUSH1 0x0 DUP1 REVERT JUMPDEST DUP4 ADD DUP1 CALLDATALOAD SWAP2 POP PUSH8 0xFFFFFFFFFFFFFFFF DUP3 GT ISZERO PUSH2 0x3C03 JUMPI PUSH1 0x0 DUP1 REVERT JUMPDEST PUSH1 0x20 ADD SWAP2 POP PUSH1 0x5 DUP2 SWAP1 SHL CALLDATASIZE SUB DUP3 SGT ISZERO PUSH2 0x2103 JUMPI PUSH1 0x0 DUP1 REVERT JUMPDEST PUSH1 0x0 PUSH1 0x20 DUP3 DUP5 SUB SLT ISZERO PUSH2 0x3C2D JUMPI PUSH1 0x0 DUP1 REVERT JUMPDEST DUP2 CALLDATALOAD PUSH1 0x3 DUP2 LT PUSH2 0x2C59 JUMPI PUSH1 0x0 DUP1 REVERT JUMPDEST PUSH1 0x0 PUSH1 0x20 DUP3 DUP5 SUB SLT ISZERO PUSH2 0x3C4E JUMPI PUSH1 0x0 DUP1 REVERT JUMPDEST PUSH2 0x2C59 DUP3 PUSH2 0x36E3 JUMP JUMPDEST PUSH1 0x0 PUSH1 0x1 DUP3 ADD PUSH2 0x3C69 JUMPI PUSH2 0x3C69 PUSH2 0x3B78 JUMP JUMPDEST POP PUSH1 0x1 ADD SWAP1 JUMP JUMPDEST DUP1 DUP3 ADD DUP1 DUP3 GT ISZERO PUSH2 0x1A05 JUMPI PUSH2 0x1A05 PUSH2 0x3B78 JUMP JUMPDEST DUP2 DUP2 SUB DUP2 DUP2 GT ISZERO PUSH2 0x1A05 JUMPI PUSH2 0x1A05 PUSH2 0x3B78 JUMP JUMPDEST PUSH4 0x4E487B71 PUSH1 0xE0 SHL PUSH1 0x0 MSTORE PUSH1 0x31 PUSH1 0x4 MSTORE PUSH1 0x24 PUSH1 0x0 REVERT INVALID LOG2 PUSH5 0x6970667358 0x22 SLT KECCAK256 PUSH26 0x799BED46034F98BE1FB9B9D8A6C32279943B85CDEF1336BFBC66 CALLDATASIZE 0xB1 0xB1 0xE6 PUSH17 0x64736F6C63430008110033000000000000 "
    },
    "gasEstimates": {
      "creation": {
        "codeDepositCost": "3117200",
        "executionCost": "3475",
        "totalCost": "3120675"
      },
      "external": {
        "CTX_MESSAGE_TYPEHASH()": "269",
        "LIB_NAME()": "370",
        "LIB_VERSION()": "383",
        "PREDICT_CTX_MESSAGE_TYPEHASH()": "267",
        "TYPE_HASH()": "202",
        "addContextFuncRole(AccessControlStorage.DataMaps storage,bytes32,bytes4,bytes32)": "infinite",
        "getContextFuncs(AccessControlStorage.DataMaps storage,bytes32)": "infinite",
        "getContextInfo(AccessControlStorage.DataMaps storage,bytes32)": "infinite",
        "getLibrary()": "268",
        "grantContextRole(AccessControlStorage.DataMaps storage,bytes32,bytes4,bytes32)": "infinite",
        "hasContextRole(AccessControlStorage.DataMaps storage,bytes32,bytes32,bytes4)": "7341",
        "registerAccessControlManagerContext(AccessControlStorage.DataMaps storage,address,bytes32,IContextManagement.RequestRegisterContext[])": "infinite",
        "registerContext(AccessControlStorage.DataMaps storage,bytes,IContextManagement.RequestContext,IContextManagement.RequestRegisterContext[])": "infinite",
        "registerPredictContext(AccessControlStorage.DataMaps storage,bytes,IContextManagement.RequestPredictContext,IContextManagement.RequestRegisterContext[])": "infinite",
        "removeContextFunc(AccessControlStorage.DataMaps storage,bytes32,bytes4)": "infinite",
        "revokeContextRole(AccessControlStorage.DataMaps storage,bytes32,bytes4,bytes32)": "infinite",
        "setContextRealm(AccessControlStorage.DataMaps storage,bytes32,bytes32)": "infinite",
        "setContextStatus(AccessControlStorage.DataMaps storage,bytes32,bool)": "infinite",
        "updateContext(AccessControlStorage.DataMaps storage,bytes32,bytes,IContextManagement.RequestContext,IContextManagement.RequestUpdateContext[])": "infinite"
      },
      "internal": {
        "_domainSeparatorV4()": "infinite",
        "_getContextMessageHash(address,bytes32,bytes32,bytes32)": "infinite",
        "_getPredictContextMessageHash(address,address,bytes32)": "infinite",
        "_hashTypedDataV4(bytes32)": "infinite",
        "_registerContext(struct AccessControlStorage.DataMaps storage pointer,address,bytes32,bool,struct IContextManagement.RequestRegisterContext calldata[] calldata)": "infinite",
        "_registerPredictContext(struct AccessControlStorage.DataMaps storage pointer,struct IContextManagement.RequestRegisterContext calldata[] calldata,struct IContextManagement.RequestPredictContext calldata)": "infinite",
        "_updateContext(struct AccessControlStorage.DataMaps storage pointer,bytes32,bytes32,bool,struct IContextManagement.RequestUpdateContext calldata[] calldata)": "infinite"
      }
    },
    "methodIdentifiers": {
      "CTX_MESSAGE_TYPEHASH()": "34109de2",
      "LIB_NAME()": "bec94751",
      "LIB_VERSION()": "2466209b",
      "PREDICT_CTX_MESSAGE_TYPEHASH()": "f0b15def",
      "TYPE_HASH()": "64d4c819",
      "addContextFuncRole(AccessControlStorage.DataMaps storage,bytes32,bytes4,bytes32)": "518bf960",
      "getContextFuncs(AccessControlStorage.DataMaps storage,bytes32)": "ec77eb21",
      "getContextInfo(AccessControlStorage.DataMaps storage,bytes32)": "733ae93e",
      "getLibrary()": "7678922e",
      "grantContextRole(AccessControlStorage.DataMaps storage,bytes32,bytes4,bytes32)": "453dd6dc",
      "hasContextRole(AccessControlStorage.DataMaps storage,bytes32,bytes32,bytes4)": "7134bb45",
      "registerAccessControlManagerContext(AccessControlStorage.DataMaps storage,address,bytes32,IContextManagement.RequestRegisterContext[])": "faee6718",
      "registerContext(AccessControlStorage.DataMaps storage,bytes,IContextManagement.RequestContext,IContextManagement.RequestRegisterContext[])": "15922efe",
      "registerPredictContext(AccessControlStorage.DataMaps storage,bytes,IContextManagement.RequestPredictContext,IContextManagement.RequestRegisterContext[])": "4ac3fdd4",
      "removeContextFunc(AccessControlStorage.DataMaps storage,bytes32,bytes4)": "b0c25575",
      "revokeContextRole(AccessControlStorage.DataMaps storage,bytes32,bytes4,bytes32)": "5acd816a",
      "setContextRealm(AccessControlStorage.DataMaps storage,bytes32,bytes32)": "3e015ef6",
      "setContextStatus(AccessControlStorage.DataMaps storage,bytes32,bool)": "7cc5941d",
      "updateContext(AccessControlStorage.DataMaps storage,bytes32,bytes,IContextManagement.RequestContext,IContextManagement.RequestUpdateContext[])": "099a0c2e"
    }
  },
  "storageLayout": {
    "storage": [],
    "types": null
  },
  "userdoc": {
    "kind": "user",
    "methods": {},
    "version": 1
  }
}