{
  "contractName": "LContextManagement",
  "sourceName": "src/contracts/lib/acl/LContextManagement.sol",
  "abi": [
    {
      "inputs": [],
      "name": "LIB_NAME",
      "outputs": [
        {
          "internalType": "bytes32",
          "name": "",
          "type": "bytes32"
        }
      ],
      "stateMutability": "view",
      "type": "function"
    },
    {
      "inputs": [],
      "name": "LIB_VERSION",
      "outputs": [
        {
          "internalType": "bytes32",
          "name": "",
          "type": "bytes32"
        }
      ],
      "stateMutability": "view",
      "type": "function"
    },
    {
      "inputs": [],
      "name": "MESSAGE_TYPEHASH",
      "outputs": [
        {
          "internalType": "bytes32",
          "name": "",
          "type": "bytes32"
        }
      ],
      "stateMutability": "view",
      "type": "function"
    },
    {
      "inputs": [],
      "name": "TYPE_HASH",
      "outputs": [
        {
          "internalType": "bytes32",
          "name": "",
          "type": "bytes32"
        }
      ],
      "stateMutability": "view",
      "type": "function"
    }
  ],
  "bytecode": "0x6134b461003a600b82828239805160001a60731461002d57634e487b7160e01b600052600060045260246000fd5b30600052607381538281f3fe730000000000000000000000000000000000000000301460806040526004361061010a5760003560e01c806364d4c819116100a1578063b0c2557511610070578063b0c2557514610336578063bec9475114610356578063ec77eb211461035e578063faee67181461037e57600080fd5b806364d4c819146102655780637134bb451461028c578063733ae93e146102af5780637cc5941d1461031657600080fd5b8063453dd6dc116100dd578063453dd6dc146101de57806346e356b1146101fe578063518bf960146102255780635acd816a1461024557600080fd5b8063099a0c2e1461010f57806315922efe146101545780632466209b146101915780633e015ef6146101a7575b600080fd5b81801561011b57600080fd5b5061012f61012a366004612e21565b61039e565b604080516001600160a01b039384168152929091166020830152015b60405180910390f35b81801561016057600080fd5b5061017461016f366004612eb2565b610641565b604080519283526001600160a01b0390911660208301520161014b565b610199610874565b60405190815260200161014b565b8180156101b357600080fd5b506101c76101c2366004612f39565b6108a2565b60408051921515835260208301919091520161014b565b8180156101ea57600080fd5b506101996101f9366004612f82565b610b97565b6101997f4a65858b24bdcc6ceae14293bf88954cd6374d5501bb4a687a74366659901cb481565b81801561023157600080fd5b50610199610240366004612f82565b610e5b565b81801561025157600080fd5b50610199610260366004612f82565b61110d565b6101997f8b73c3c69bb8fe3d512ecc4cf759cc79239f7b179b0ffacaa9a75d522b39400f81565b61029f61029a366004612fbf565b6113ba565b604051901515815260200161014b565b6102c26102bd366004612ffe565b611460565b60405161014b91908151815260208083015190820152604080830151908201526060808301516001600160a01b03169082015260808083015115159082015260a09182015115159181019190915260c00190565b81801561032257600080fd5b506101c7610331366004613031565b61172d565b81801561034257600080fd5b5061019961035136600461306a565b61195e565b610199611bf6565b61037161036c366004612ffe565b611c1c565b60405161014b919061309f565b81801561038a57600080fd5b50610199610399366004613104565b611d55565b600080306001600160a01b031663be22465d6040518163ffffffff1660e01b8152600401602060405180830381865afa1580156103df573d6000803e3d6000fd5b505050506040513d601f19601f82011682018060405250810190610403919061315b565b156104295760405162461bcd60e51b815260040161042090613178565b60405180910390fd5b60006104b361043e60808801606089016131af565b604080517f4a65858b24bdcc6ceae14293bf88954cd6374d5501bb4a687a74366659901cb46020828101919091526001600160a01b03939093168183015289356060820152828a01356080820152818a013560a0808301919091528251808303909101815260c0909101909152805191012090565b905060006104c082611d70565b90506000806104cf838b611dbe565b909250905060008160048111156104e8576104e86131ca565b146105305760405162461bcd60e51b8152602060048201526018602482015277496c6c6567616c20454344415341205369676e617475726560401b6044820152606401610420565b73__$c43b1d7058274a71a9734d16e6b6586431$__63487c69608d61055430611e2c565b6040516001600160e01b031960e085901b1681526105819291908790631ccb7c8d60e31b906004016131e0565b602060405180830381865af415801561059e573d6000803e3d6000fd5b505050506040513d601f19601f820116820180604052508101906105c2919061315b565b61060e5760405162461bcd60e51b815260206004820152601b60248201527f557064617465436f6e74657874204163636573732044656e69656400000000006044820152606401610420565b61062f8c8c60408c013561062860a08e0160808f0161320e565b8c8c611e6b565b9c919b50909950505050505050505050565b600080306001600160a01b031663be22465d6040518163ffffffff1660e01b8152600401602060405180830381865afa158015610682573d6000803e3d6000fd5b505050506040513d601f19601f820116820180604052508101906106a6919061315b565b156106c35760405162461bcd60e51b815260040161042090613178565b60006106d861043e60808801606089016131af565b905060006106e582611d70565b90506000806106f4838b611dbe565b9092509050600081600481111561070d5761070d6131ca565b146107555760405162461bcd60e51b8152602060048201526018602482015277496c6c6567616c20454344415341205369676e617475726560401b6044820152606401610420565b73__$c43b1d7058274a71a9734d16e6b6586431$__63487c69608c61077930611e2c565b6040516001600160e01b031960e085901b1681526107a692919087906378efa4ed60e11b906004016131e0565b602060405180830381865af41580156107c3573d6000803e3d6000fd5b505050506040513d601f19601f820116820180604052508101906107e7919061315b565b6108335760405162461bcd60e51b815260206004820152601d60248201527f5265676973746572436f6e74657874204163636573732044656e6965640000006044820152606401610420565b6108638b61084760808c0160608d016131af565b60408c013561085c60a08e0160808f0161320e565b8c8c612592565b9b919a509098505050505050505050565b604051640312e302e360dc1b60208201526025015b6040516020818303038152906040528051906020012081565b600080306001600160a01b031663be22465d6040518163ffffffff1660e01b8152600401602060405180830381865afa1580156108e3573d6000803e3d6000fd5b505050506040513d601f19601f82011682018060405250810190610907919061315b565b156109245760405162461bcd60e51b815260040161042090613178565b73__$c43b1d7058274a71a9734d16e6b6586431$__63487c69608661094830611e2c565b6040516001600160e01b031960e085901b168152610975929190339063d338640160e01b906004016131e0565b602060405180830381865af4158015610992573d6000803e3d6000fd5b505050506040513d601f19601f820116820180604052508101906109b6919061315b565b610a025760405162461bcd60e51b815260206004820152601d60248201527f536574436f6e746578745265616c6d204163636573732044656e6965640000006044820152606401610420565b83610a0c30611e2c565b03610a595760405162461bcd60e51b815260206004820181905260248201527f496c6c6567616c204368616e67652041434c20436f6e74657874205265616c6d6044820152606401610420565b60008481526001808701602052604090912001546001600160a01b0316610a925760405162461bcd60e51b81526004016104209061322b565b600083815260038601602052604090208054610aad90613256565b9050600003610ace5760405162461bcd60e51b81526004016104209061328a565b6000848152600186016020526040902054839003610b2e5760405162461bcd60e51b815260206004820152601960248201527f496c6c6567616c205265616c6d204475706c69636174696f6e000000000000006044820152606401610420565b600084815260018601602090815260408083205486845260038901909252909120610b5c906002018661296f565b5060008581526001870160209081526040808320548352600389019091529020610b899060020186612982565b506001969095509350505050565b6000306001600160a01b031663be22465d6040518163ffffffff1660e01b8152600401602060405180830381865afa158015610bd7573d6000803e3d6000fd5b505050506040513d601f19601f82011682018060405250810190610bfb919061315b565b15610c185760405162461bcd60e51b815260040161042090613178565b73__$c43b1d7058274a71a9734d16e6b6586431$__63487c696086610c3c30611e2c565b6040516001600160e01b031960e085901b168152610c69929190339063771bcf4560e01b906004016131e0565b602060405180830381865af4158015610c86573d6000803e3d6000fd5b505050506040513d601f19601f82011682018060405250810190610caa919061315b565b610cf65760405162461bcd60e51b815260206004820152601e60248201527f4772616e74436f6e74657874526f6c65204163636573732044656e69656400006044820152606401610420565b83610d0030611e2c565b03610d4d5760405162461bcd60e51b815260206004820152601960248201527f496c6c6567616c204772616e742041434c20436f6e74657874000000000000006044820152606401610420565b60008481526001808701602052604090912001546001600160a01b0316610d865760405162461bcd60e51b81526004016104209061322b565b600082815260028601602052604090208054610da190613256565b9050600003610dc25760405162461bcd60e51b8152600401610420906132b3565b60008481526001860160205260409020610de9906003016001600160e01b0319851661298e565b610e055760405162461bcd60e51b8152600401610420906132db565b60008481526001868101602090815260408084206001600160e01b0319881685526002019091529091208381558101805460ff191682805b02179055505050600091825250600191909101602052604090205490565b6000306001600160a01b031663be22465d6040518163ffffffff1660e01b8152600401602060405180830381865afa158015610e9b573d6000803e3d6000fd5b505050506040513d601f19601f82011682018060405250810190610ebf919061315b565b15610edc5760405162461bcd60e51b815260040161042090613178565b73__$c43b1d7058274a71a9734d16e6b6586431$__63487c696086610f0030611e2c565b6040516001600160e01b031960e085901b168152610f2d929190339063031c049360e01b906004016131e0565b602060405180830381865af4158015610f4a573d6000803e3d6000fd5b505050506040513d601f19601f82011682018060405250810190610f6e919061315b565b610fba5760405162461bcd60e51b815260206004820181905260248201527f416464436f6e7465787446756e63526f6c65204163636573732044656e6965646044820152606401610420565b60008481526001808701602052604090912001546001600160a01b0316610ff35760405162461bcd60e51b81526004016104209061322b565b60008281526002860160205260409020805461100e90613256565b905060000361102f5760405162461bcd60e51b8152600401610420906132b3565b60008481526001860160205260409020611056906003016001600160e01b0319851661298e565b156110a35760405162461bcd60e51b815260206004820152601f60248201527f46756e6374696f6e53656c6563746f7220416c726561647920457869737473006044820152606401610420565b60008481526001868101602081815260408085206001600160e01b031989168087526002820184529186208881558501805460ff191690951790945593889052526110f39160039091019061296f565b505050600091825250600191909101602052604090205490565b6000306001600160a01b031663be22465d6040518163ffffffff1660e01b8152600401602060405180830381865afa15801561114d573d6000803e3d6000fd5b505050506040513d601f19601f82011682018060405250810190611171919061315b565b1561118e5760405162461bcd60e51b815260040161042090613178565b73__$c43b1d7058274a71a9734d16e6b6586431$__63487c6960866111b230611e2c565b6040516001600160e01b031960e085901b1681526111df9291903390634346a04b60e01b906004016131e0565b602060405180830381865af41580156111fc573d6000803e3d6000fd5b505050506040513d601f19601f82011682018060405250810190611220919061315b565b61126c5760405162461bcd60e51b815260206004820152601f60248201527f5265766f6b65436f6e74657874526f6c65204163636573732044656e696564006044820152606401610420565b8361127630611e2c565b036112c35760405162461bcd60e51b815260206004820152601a60248201527f496c6c6567616c205265766f6b652041434c20436f6e746578740000000000006044820152606401610420565b60008481526001808701602052604090912001546001600160a01b03166112fc5760405162461bcd60e51b81526004016104209061322b565b60008281526002860160205260409020805461131790613256565b90506000036113385760405162461bcd60e51b8152600401610420906132b3565b6000848152600186016020526040902061135f906003016001600160e01b0319851661298e565b61137b5760405162461bcd60e51b8152600401610420906132db565b60008481526001808701602090815260408084206001600160e01b031988168552600290810190925290922081018054909160ff199091169083610e3d565b600083815260018086016020526040822001546001600160a01b03161580159061140b5750600084815260018601602090815260408083206001600160e01b03198616845260020190915290205483145b80156114575750600160008581526001808801602090815260408084206001600160e01b0319881685526002908101909252909220015460ff1690811115611455576114556131ca565b145b95945050505050565b6040805160c081018252600080825260208201819052918101829052606081018290526080810182905260a081019190915260008281526001808501602052604090912001546001600160a01b03166114cb5760405162461bcd60e51b81526004016104209061322b565b6000828152600180850160209081526040808420909201548251631d74303760e21b815292516001600160a01b03909116926375d0c0dc9260048083019391928290030181865afa158015611524573d6000803e3d6000fd5b505050506040513d601f19601f820116820180604052508101906115489190613312565b6000848152600180870160209081526040808420909201548251630505472360e51b8152925194955092936001600160a01b039093169263a0a8e4609260048082019392918290030181865afa1580156115a6573d6000803e3d6000fd5b505050506040513d601f19601f820116820180604052508101906115ca9190613312565b600085815260018088016020908152604080842090920154825163be22465d60e01b8152925194955092936001600160a01b039093169263be22465d9260048082019392918290030181865afa158015611628573d6000803e3d6000fd5b505050506040513d601f19601f8201168201806040525081019061164c919061315b565b6000868152600180890160209081526040808420909201548251630151e76560e61b8152925194955092936001600160a01b0390931692635479d9409260048082019392918290030181865afa1580156116aa573d6000803e3d6000fd5b505050506040513d601f19601f820116820180604052508101906116ce919061315b565b6040805160c08101825295865260208087019590955260008881526001808b018088528383208054948a0194909452918a90529552909301546001600160a01b031660608501525015156080830152151560a082015290505b92915050565b600080306001600160a01b031663be22465d6040518163ffffffff1660e01b8152600401602060405180830381865afa15801561176e573d6000803e3d6000fd5b505050506040513d601f19601f82011682018060405250810190611792919061315b565b156117af5760405162461bcd60e51b815260040161042090613178565b73__$c43b1d7058274a71a9734d16e6b6586431$__63487c6960866117d330611e2c565b6040516001600160e01b031960e085901b16815261180092919033906370420ee360e01b906004016131e0565b602060405180830381865af415801561181d573d6000803e3d6000fd5b505050506040513d601f19601f82011682018060405250810190611841919061315b565b61188d5760405162461bcd60e51b815260206004820152601e60248201527f536574436f6e74657874537461747573204163636573732044656e69656400006044820152606401610420565b8361189730611e2c565b036118ee5760405162461bcd60e51b815260206004820152602160248201527f496c6c6567616c204368616e67652041434c20436f6e746578742053746174756044820152607360f81b6064820152608401610420565b60008481526001808701602052604090912001546001600160a01b03166119275760405162461bcd60e51b81526004016104209061322b565b50506000828152600180850160205260409091208082018054841515600160a01b0260ff60a01b1990911617905554935093915050565b6000306001600160a01b031663be22465d6040518163ffffffff1660e01b8152600401602060405180830381865afa15801561199e573d6000803e3d6000fd5b505050506040513d601f19601f820116820180604052508101906119c2919061315b565b156119df5760405162461bcd60e51b815260040161042090613178565b73__$c43b1d7058274a71a9734d16e6b6586431$__63487c696085611a0330611e2c565b6040516001600160e01b031960e085901b168152611a309291903390635ac4b36f60e11b906004016131e0565b602060405180830381865af4158015611a4d573d6000803e3d6000fd5b505050506040513d601f19601f82011682018060405250810190611a71919061315b565b611abd5760405162461bcd60e51b815260206004820152601f60248201527f52656d6f7665436f6e7465787446756e63204163636573732044656e696564006044820152606401610420565b82611ac730611e2c565b03611b145760405162461bcd60e51b815260206004820152601a60248201527f496c6c6567616c2052656d6f76652041434c20436f6e746578740000000000006044820152606401610420565b60008381526001808601602052604090912001546001600160a01b0316611b4d5760405162461bcd60e51b81526004016104209061322b565b60008381526001850160205260409020611b74906003016001600160e01b0319841661298e565b611b905760405162461bcd60e51b8152600401610420906132db565b60008381526001808601602081815260408085206001600160e01b03198816808752600282018452918620868155909401805460ff191690559387905252611bdd91600390910190612982565b5050506000908152600191909101602052604090205490565b604051711310dbdb9d195e1d13585b9859d95b595b9d60721b6020820152603201610889565b60008181526001808401602052604090912001546060906001600160a01b0316611c585760405162461bcd60e51b81526004016104209061322b565b60008281526001840160205260408120611c74906003016129a6565b67ffffffffffffffff811115611c8c57611c8c612d21565b604051908082528060200260200182016040528015611cb5578160200160208202803683370190505b50905060005b60008481526001860160205260409020611cd7906003016129a6565b8163ffffffff161015611d4d5760008481526001860160205260409020611d0a9060030163ffffffff808416906129b016565b828263ffffffff1681518110611d2257611d2261332b565b6001600160e01b03199092166020928302919091019091015280611d4581613357565b915050611cbb565b509392505050565b6000611d6686868660018787612592565b9695505050505050565b6000611727611d7d6129bc565b8360405161190160f01b6020820152602281018390526042810182905260009060620160405160208183030381529060405280519060200120905092915050565b6000808251604103611df45760208301516040840151606085015160001a611de887828585612a8f565b94509450505050611e25565b8251604003611e1d5760208301516040840151611e12868383612b7c565b935093505050611e25565b506000905060025b9250929050565b6040516bffffffffffffffffffffffff19606083901b166020820152600090603401604051602081830303815290604052805190602001209050919050565b600085815260018088016020526040822001546001600160a01b031680611ea45760405162461bcd60e51b81526004016104209061322b565b6001600160a01b0381163314611efc5760405162461bcd60e51b815260206004820152601860248201527f55706461746520436f6e7465787420466f7262696464656e00000000000000006044820152606401610420565b600086815260038901602052604090208054611f1790613256565b9050600003611f385760405162461bcd60e51b81526004016104209061328a565b600087815260018981016020526040909120908101805460ff60a01b1916600160a01b88151502179055548614611fb5576000878152600189016020908152604080832054835260038b019091529020611f959060020188612982565b5060008681526003890160205260409020611fb3906002018861296f565b505b600087815260018901602052604081208790555b8381101561258657886002016000868684818110611fe957611fe961332b565b9050602002810190611ffb919061337a565b3581526020810191909152604001600020805461201790613256565b90506000036120385760405162461bcd60e51b8152600401610420906132b3565b60005b85858381811061204d5761204d61332b565b905060200281019061205f919061337a565b61206d90602081019061339a565b905081101561257357600186868481811061208a5761208a61332b565b905060200281019061209c919061337a565b6120ad9060608101906040016133e4565b60028111156120be576120be6131ca565b148061210f575060008686848181106120d9576120d961332b565b90506020028101906120eb919061337a565b6120fc9060608101906040016133e4565b600281111561210d5761210d6131ca565b145b156123c9578585838181106121265761212661332b565b9050602002810190612138919061337a565b60008a815260018c0160205260408120913591600201908888868181106121615761216161332b565b9050602002810190612173919061337a565b61218190602081019061339a565b858181106121915761219161332b565b90506020020160208101906121a69190613405565b6001600160e01b031916815260208101919091526040016000205560018686848181106121d5576121d561332b565b90506020028101906121e7919061337a565b6121f89060608101906040016133e4565b6002811115612209576122096131ca565b14612215576002612218565b60015b60008a815260018c01602052604081206002019088888681811061223e5761223e61332b565b9050602002810190612250919061337a565b61225e90602081019061339a565b8581811061226e5761226e61332b565b90506020020160208101906122839190613405565b6001600160e01b0319168152602081019190915260400160002060019081018054909160ff19909116908360028111156122bf576122bf6131ca565b02179055506123418686848181106122d9576122d961332b565b90506020028101906122eb919061337a565b6122f990602081019061339a565b838181106123095761230961332b565b905060200201602081019061231e9190613405565b60008b815260018d0160205260409020600301906001600160e01b03191661298e565b6123c4576123c286868481811061235a5761235a61332b565b905060200281019061236c919061337a565b61237a90602081019061339a565b8381811061238a5761238a61332b565b905060200201602081019061239f9190613405565b60008b815260018d0160205260409020600301906001600160e01b03191661296f565b505b612561565b600089815260018b0160205260408120600201908787858181106123ef576123ef61332b565b9050602002810190612401919061337a565b61240f90602081019061339a565b8481811061241f5761241f61332b565b90506020020160208101906124349190613405565b6001600160e01b0319168152602080820192909252604090810160009081208190558b815260018d019092528120600201908787858181106124785761247861332b565b905060200281019061248a919061337a565b61249890602081019061339a565b848181106124a8576124a861332b565b90506020020160208101906124bd9190613405565b6001600160e01b03191681526020810191909152604001600020600101805460ff1916905561255f8686848181106124f7576124f761332b565b9050602002810190612509919061337a565b61251790602081019061339a565b838181106125275761252761332b565b905060200201602081019061253c9190613405565b60008b815260018d0160205260409020600301906001600160e01b031916612982565b505b8061256b81613420565b91505061203b565b508061257e81613420565b915050611fc9565b50979650505050505050565b6000848152600387016020526040812080546125ad90613256565b90506000036125ce5760405162461bcd60e51b81526004016104209061328a565b60006125d987611e2c565b60008181526001808b01602052604090912001549091506001600160a01b0316156126465760405162461bcd60e51b815260206004820152601a60248201527f436f6e7465787420416c726561647920526567697374657265640000000000006044820152606401610420565b60008681526003890160205260409020612663906002018261296f565b5060008181526001808a01602052604082208881559081018054881515600160a01b026001600160a81b03199091166001600160a01b038c1617179055905b84811015612961578960020160008787848181106126c2576126c261332b565b90506020028101906126d4919061337a565b358152602081019190915260400160002080546126f090613256565b90506000036127115760405162461bcd60e51b8152600401610420906132b3565b60005b8686838181106127265761272661332b565b9050602002810190612738919061337a565b61274690602081019061339a565b905081101561294e578686838181106127615761276161332b565b9050602002810190612773919061337a565b3560028401600089898681811061278c5761278c61332b565b905060200281019061279e919061337a565b6127ac90602081019061339a565b858181106127bc576127bc61332b565b90506020020160208101906127d19190613405565b6001600160e01b03191681526020810191909152604001600020558686838181106127fe576127fe61332b565b9050602002810190612810919061337a565b61282190606081019060400161320e565b61282c57600261282f565b60015b8360020160008989868181106128475761284761332b565b9050602002810190612859919061337a565b61286790602081019061339a565b858181106128775761287761332b565b905060200201602081019061288c9190613405565b6001600160e01b0319168152602081019190915260400160002060019081018054909160ff19909116908360028111156128c8576128c86131ca565b021790555061293b8787848181106128e2576128e261332b565b90506020028101906128f4919061337a565b61290290602081019061339a565b838181106129125761291261332b565b90506020020160208101906129279190613405565b60038501906001600160e01b03191661296f565b508061294681613420565b915050612714565b508061295981613420565b9150506126a2565b509098975050505050505050565b600061297b8383612bb5565b9392505050565b600061297b8383612c04565b6000818152600183016020526040812054151561297b565b6000611727825490565b600061297b8383612cf7565b60007f8b73c3c69bb8fe3d512ecc4cf759cc79239f7b179b0ffacaa9a75d522b39400f604051602001612a0790711310dbdb9d195e1d13585b9859d95b595b9d60721b815260120190565b60405160208183030381529060405280519060200120604051602001612a3890640312e302e360dc1b815260050190565b60408051601f1981840301815282825280516020918201209083019490945281019190915260608101919091524660808201523060a082015260c00160405160208183030381529060405280519060200120905090565b6000807f7fffffffffffffffffffffffffffffff5d576e7357a4501ddfe92f46681b20a0831115612ac65750600090506003612b73565b8460ff16601b14158015612ade57508460ff16601c14155b15612aef5750600090506004612b73565b6040805160008082526020820180845289905260ff881692820192909252606081018690526080810185905260019060a0016020604051602081039080840390855afa158015612b43573d6000803e3d6000fd5b5050604051601f1901519150506001600160a01b038116612b6c57600060019250925050612b73565b9150600090505b94509492505050565b6000806001600160ff1b03831681612b9960ff86901c601b613439565b9050612ba787828885612a8f565b935093505050935093915050565b6000818152600183016020526040812054612bfc57508154600181810184556000848152602080822090930184905584548482528286019093526040902091909155611727565b506000611727565b60008181526001830160205260408120548015612ced576000612c28600183613451565b8554909150600090612c3c90600190613451565b9050818114612ca1576000866000018281548110612c5c57612c5c61332b565b9060005260206000200154905080876000018481548110612c7f57612c7f61332b565b6000918252602080832090910192909255918252600188019052604090208390555b8554869080612cb257612cb2613468565b600190038181906000526020600020016000905590558560010160008681526020019081526020016000206000905560019350505050611727565b6000915050611727565b6000826000018281548110612d0e57612d0e61332b565b9060005260206000200154905092915050565b634e487b7160e01b600052604160045260246000fd5b600082601f830112612d4857600080fd5b813567ffffffffffffffff80821115612d6357612d63612d21565b604051601f8301601f19908116603f01168101908282118183101715612d8b57612d8b612d21565b81604052838152866020858801011115612da457600080fd5b836020870160208301376000602085830101528094505050505092915050565b600060a08284031215612dd657600080fd5b50919050565b60008083601f840112612dee57600080fd5b50813567ffffffffffffffff811115612e0657600080fd5b6020830191508360208260051b8501011115611e2557600080fd5b6000806000806000806101208789031215612e3b57600080fd5b8635955060208701359450604087013567ffffffffffffffff80821115612e6157600080fd5b612e6d8a838b01612d37565b9550612e7c8a60608b01612dc4565b9450610100890135915080821115612e9357600080fd5b50612ea089828a01612ddc565b979a9699509497509295939492505050565b60008060008060006101008688031215612ecb57600080fd5b85359450602086013567ffffffffffffffff80821115612eea57600080fd5b612ef689838a01612d37565b9550612f058960408a01612dc4565b945060e0880135915080821115612f1b57600080fd5b50612f2888828901612ddc565b969995985093965092949392505050565b600080600060608486031215612f4e57600080fd5b505081359360208301359350604090920135919050565b80356001600160e01b031981168114612f7d57600080fd5b919050565b60008060008060808587031215612f9857600080fd5b8435935060208501359250612faf60408601612f65565b9396929550929360600135925050565b60008060008060808587031215612fd557600080fd5b843593506020850135925060408501359150612ff360608601612f65565b905092959194509250565b6000806040838503121561301157600080fd5b50508035926020909101359150565b801515811461302e57600080fd5b50565b60008060006060848603121561304657600080fd5b8335925060208401359150604084013561305f81613020565b809150509250925092565b60008060006060848603121561307f57600080fd5b833592506020840135915061309660408501612f65565b90509250925092565b6020808252825182820181905260009190848201906040850190845b818110156130e15783516001600160e01b031916835292840192918401916001016130bb565b50909695505050505050565b80356001600160a01b0381168114612f7d57600080fd5b60008060008060006080868803121561311c57600080fd5b8535945061312c602087016130ed565b935060408601359250606086013567ffffffffffffffff81111561314f57600080fd5b612f2888828901612ddc565b60006020828403121561316d57600080fd5b815161297b81613020565b60208082526017908201527f536166654d6f64653a2043616c6c2052656a6563746564000000000000000000604082015260600190565b6000602082840312156131c157600080fd5b61297b826130ed565b634e487b7160e01b600052602160045260246000fd5b93845260208401929092526001600160a01b031660408301526001600160e01b031916606082015260800190565b60006020828403121561322057600080fd5b813561297b81613020565b60208082526011908201527010dbdb9d195e1d08139bdd08119bdd5b99607a1b604082015260600190565b600181811c9082168061326a57607f821691505b602082108103612dd657634e487b7160e01b600052602260045260246000fd5b6020808252600f908201526e1499585b1b48139bdd08119bdd5b99608a1b604082015260600190565b6020808252600e908201526d149bdb1948139bdd08119bdd5b9960921b604082015260600190565b6020808252601a908201527f46756e6374696f6e53656c6563746f72204e6f7420466f756e64000000000000604082015260600190565b60006020828403121561332457600080fd5b5051919050565b634e487b7160e01b600052603260045260246000fd5b634e487b7160e01b600052601160045260246000fd5b600063ffffffff80831681810361337057613370613341565b6001019392505050565b60008235605e1983360301811261339057600080fd5b9190910192915050565b6000808335601e198436030181126133b157600080fd5b83018035915067ffffffffffffffff8211156133cc57600080fd5b6020019150600581901b3603821315611e2557600080fd5b6000602082840312156133f657600080fd5b81356003811061297b57600080fd5b60006020828403121561341757600080fd5b61297b82612f65565b60006001820161343257613432613341565b5060010190565b6000821982111561344c5761344c613341565b500190565b60008282101561346357613463613341565b500390565b634e487b7160e01b600052603160045260246000fdfea264697066735822122051fbda87e2267f188db9d9edc52333930e0d006dbf4276d40ef2b572031b36c864736f6c634300080f0033",
  "linkReferences": {
    "src/contracts/lib/acl/LAccessControl.sol": {
      "LAccessControl": [
        {
          "length": 20,
          "start": 1388
        },
        {
          "length": 20,
          "start": 1937
        },
        {
          "length": 20,
          "start": 2400
        },
        {
          "length": 20,
          "start": 3156
        },
        {
          "length": 20,
          "start": 3864
        },
        {
          "length": 20,
          "start": 4554
        },
        {
          "length": 20,
          "start": 6123
        },
        {
          "length": 20,
          "start": 6683
        }
      ]
    }
  },
  "deployedLinkReferences": {
    "src/contracts/lib/acl/LAccessControl.sol": {
      "LAccessControl": [
        {
          "length": 20,
          "start": 1330
        },
        {
          "length": 20,
          "start": 1879
        },
        {
          "length": 20,
          "start": 2342
        },
        {
          "length": 20,
          "start": 3098
        },
        {
          "length": 20,
          "start": 3806
        },
        {
          "length": 20,
          "start": 4496
        },
        {
          "length": 20,
          "start": 6065
        },
        {
          "length": 20,
          "start": 6625
        }
      ]
    }
  },
  "devdoc": {
    "kind": "dev",
    "methods": {},
    "version": 1
  },
  "evm": {
    "bytecode": {
      "linkReferences": {
        "src/contracts/lib/acl/LAccessControl.sol": {
          "LAccessControl": [
            {
              "length": 20,
              "start": 1388
            },
            {
              "length": 20,
              "start": 1937
            },
            {
              "length": 20,
              "start": 2400
            },
            {
              "length": 20,
              "start": 3156
            },
            {
              "length": 20,
              "start": 3864
            },
            {
              "length": 20,
              "start": 4554
            },
            {
              "length": 20,
              "start": 6123
            },
            {
              "length": 20,
              "start": 6683
            }
          ]
        }
      },
      "opcodes": "PUSH2 0x34B4 PUSH2 0x3A PUSH1 0xB DUP3 DUP3 DUP3 CODECOPY DUP1 MLOAD PUSH1 0x0 BYTE PUSH1 0x73 EQ PUSH2 0x2D JUMPI PUSH4 0x4E487B71 PUSH1 0xE0 SHL PUSH1 0x0 MSTORE PUSH1 0x0 PUSH1 0x4 MSTORE PUSH1 0x24 PUSH1 0x0 REVERT JUMPDEST ADDRESS PUSH1 0x0 MSTORE PUSH1 0x73 DUP2 MSTORE8 DUP3 DUP2 RETURN INVALID PUSH20 0x0 ADDRESS EQ PUSH1 0x80 PUSH1 0x40 MSTORE PUSH1 0x4 CALLDATASIZE LT PUSH2 0x10A JUMPI PUSH1 0x0 CALLDATALOAD PUSH1 0xE0 SHR DUP1 PUSH4 0x64D4C819 GT PUSH2 0xA1 JUMPI DUP1 PUSH4 0xB0C25575 GT PUSH2 0x70 JUMPI DUP1 PUSH4 0xB0C25575 EQ PUSH2 0x336 JUMPI DUP1 PUSH4 0xBEC94751 EQ PUSH2 0x356 JUMPI DUP1 PUSH4 0xEC77EB21 EQ PUSH2 0x35E JUMPI DUP1 PUSH4 0xFAEE6718 EQ PUSH2 0x37E JUMPI PUSH1 0x0 DUP1 REVERT JUMPDEST DUP1 PUSH4 0x64D4C819 EQ PUSH2 0x265 JUMPI DUP1 PUSH4 0x7134BB45 EQ PUSH2 0x28C JUMPI DUP1 PUSH4 0x733AE93E EQ PUSH2 0x2AF JUMPI DUP1 PUSH4 0x7CC5941D EQ PUSH2 0x316 JUMPI PUSH1 0x0 DUP1 REVERT JUMPDEST DUP1 PUSH4 0x453DD6DC GT PUSH2 0xDD JUMPI DUP1 PUSH4 0x453DD6DC EQ PUSH2 0x1DE JUMPI DUP1 PUSH4 0x46E356B1 EQ PUSH2 0x1FE JUMPI DUP1 PUSH4 0x518BF960 EQ PUSH2 0x225 JUMPI DUP1 PUSH4 0x5ACD816A EQ PUSH2 0x245 JUMPI PUSH1 0x0 DUP1 REVERT JUMPDEST DUP1 PUSH4 0x99A0C2E EQ PUSH2 0x10F JUMPI DUP1 PUSH4 0x15922EFE EQ PUSH2 0x154 JUMPI DUP1 PUSH4 0x2466209B EQ PUSH2 0x191 JUMPI DUP1 PUSH4 0x3E015EF6 EQ PUSH2 0x1A7 JUMPI JUMPDEST PUSH1 0x0 DUP1 REVERT JUMPDEST DUP2 DUP1 ISZERO PUSH2 0x11B JUMPI PUSH1 0x0 DUP1 REVERT JUMPDEST POP PUSH2 0x12F PUSH2 0x12A CALLDATASIZE PUSH1 0x4 PUSH2 0x2E21 JUMP JUMPDEST PUSH2 0x39E JUMP JUMPDEST PUSH1 0x40 DUP1 MLOAD PUSH1 0x1 PUSH1 0x1 PUSH1 0xA0 SHL SUB SWAP4 DUP5 AND DUP2 MSTORE SWAP3 SWAP1 SWAP2 AND PUSH1 0x20 DUP4 ADD MSTORE ADD JUMPDEST PUSH1 0x40 MLOAD DUP1 SWAP2 SUB SWAP1 RETURN JUMPDEST DUP2 DUP1 ISZERO PUSH2 0x160 JUMPI PUSH1 0x0 DUP1 REVERT JUMPDEST POP PUSH2 0x174 PUSH2 0x16F CALLDATASIZE PUSH1 0x4 PUSH2 0x2EB2 JUMP JUMPDEST PUSH2 0x641 JUMP JUMPDEST PUSH1 0x40 DUP1 MLOAD SWAP3 DUP4 MSTORE PUSH1 0x1 PUSH1 0x1 PUSH1 0xA0 SHL SUB SWAP1 SWAP2 AND PUSH1 0x20 DUP4 ADD MSTORE ADD PUSH2 0x14B JUMP JUMPDEST PUSH2 0x199 PUSH2 0x874 JUMP JUMPDEST PUSH1 0x40 MLOAD SWAP1 DUP2 MSTORE PUSH1 0x20 ADD PUSH2 0x14B JUMP JUMPDEST DUP2 DUP1 ISZERO PUSH2 0x1B3 JUMPI PUSH1 0x0 DUP1 REVERT JUMPDEST POP PUSH2 0x1C7 PUSH2 0x1C2 CALLDATASIZE PUSH1 0x4 PUSH2 0x2F39 JUMP JUMPDEST PUSH2 0x8A2 JUMP JUMPDEST PUSH1 0x40 DUP1 MLOAD SWAP3 ISZERO ISZERO DUP4 MSTORE PUSH1 0x20 DUP4 ADD SWAP2 SWAP1 SWAP2 MSTORE ADD PUSH2 0x14B JUMP JUMPDEST DUP2 DUP1 ISZERO PUSH2 0x1EA JUMPI PUSH1 0x0 DUP1 REVERT JUMPDEST POP PUSH2 0x199 PUSH2 0x1F9 CALLDATASIZE PUSH1 0x4 PUSH2 0x2F82 JUMP JUMPDEST PUSH2 0xB97 JUMP JUMPDEST PUSH2 0x199 PUSH32 0x4A65858B24BDCC6CEAE14293BF88954CD6374D5501BB4A687A74366659901CB4 DUP2 JUMP JUMPDEST DUP2 DUP1 ISZERO PUSH2 0x231 JUMPI PUSH1 0x0 DUP1 REVERT JUMPDEST POP PUSH2 0x199 PUSH2 0x240 CALLDATASIZE PUSH1 0x4 PUSH2 0x2F82 JUMP JUMPDEST PUSH2 0xE5B JUMP JUMPDEST DUP2 DUP1 ISZERO PUSH2 0x251 JUMPI PUSH1 0x0 DUP1 REVERT JUMPDEST POP PUSH2 0x199 PUSH2 0x260 CALLDATASIZE PUSH1 0x4 PUSH2 0x2F82 JUMP JUMPDEST PUSH2 0x110D JUMP JUMPDEST PUSH2 0x199 PUSH32 0x8B73C3C69BB8FE3D512ECC4CF759CC79239F7B179B0FFACAA9A75D522B39400F DUP2 JUMP JUMPDEST PUSH2 0x29F PUSH2 0x29A CALLDATASIZE PUSH1 0x4 PUSH2 0x2FBF JUMP JUMPDEST PUSH2 0x13BA JUMP JUMPDEST PUSH1 0x40 MLOAD SWAP1 ISZERO ISZERO DUP2 MSTORE PUSH1 0x20 ADD PUSH2 0x14B JUMP JUMPDEST PUSH2 0x2C2 PUSH2 0x2BD CALLDATASIZE PUSH1 0x4 PUSH2 0x2FFE JUMP JUMPDEST PUSH2 0x1460 JUMP JUMPDEST PUSH1 0x40 MLOAD PUSH2 0x14B SWAP2 SWAP1 DUP2 MLOAD DUP2 MSTORE PUSH1 0x20 DUP1 DUP4 ADD MLOAD SWAP1 DUP3 ADD MSTORE PUSH1 0x40 DUP1 DUP4 ADD MLOAD SWAP1 DUP3 ADD MSTORE PUSH1 0x60 DUP1 DUP4 ADD MLOAD PUSH1 0x1 PUSH1 0x1 PUSH1 0xA0 SHL SUB AND SWAP1 DUP3 ADD MSTORE PUSH1 0x80 DUP1 DUP4 ADD MLOAD ISZERO ISZERO SWAP1 DUP3 ADD MSTORE PUSH1 0xA0 SWAP2 DUP3 ADD MLOAD ISZERO ISZERO SWAP2 DUP2 ADD SWAP2 SWAP1 SWAP2 MSTORE PUSH1 0xC0 ADD SWAP1 JUMP JUMPDEST DUP2 DUP1 ISZERO PUSH2 0x322 JUMPI PUSH1 0x0 DUP1 REVERT JUMPDEST POP PUSH2 0x1C7 PUSH2 0x331 CALLDATASIZE PUSH1 0x4 PUSH2 0x3031 JUMP JUMPDEST PUSH2 0x172D JUMP JUMPDEST DUP2 DUP1 ISZERO PUSH2 0x342 JUMPI PUSH1 0x0 DUP1 REVERT JUMPDEST POP PUSH2 0x199 PUSH2 0x351 CALLDATASIZE PUSH1 0x4 PUSH2 0x306A JUMP JUMPDEST PUSH2 0x195E JUMP JUMPDEST PUSH2 0x199 PUSH2 0x1BF6 JUMP JUMPDEST PUSH2 0x371 PUSH2 0x36C CALLDATASIZE PUSH1 0x4 PUSH2 0x2FFE JUMP JUMPDEST PUSH2 0x1C1C JUMP JUMPDEST PUSH1 0x40 MLOAD PUSH2 0x14B SWAP2 SWAP1 PUSH2 0x309F JUMP JUMPDEST DUP2 DUP1 ISZERO PUSH2 0x38A JUMPI PUSH1 0x0 DUP1 REVERT JUMPDEST POP PUSH2 0x199 PUSH2 0x399 CALLDATASIZE PUSH1 0x4 PUSH2 0x3104 JUMP JUMPDEST PUSH2 0x1D55 JUMP JUMPDEST PUSH1 0x0 DUP1 ADDRESS PUSH1 0x1 PUSH1 0x1 PUSH1 0xA0 SHL SUB AND PUSH4 0xBE22465D PUSH1 0x40 MLOAD DUP2 PUSH4 0xFFFFFFFF AND PUSH1 0xE0 SHL DUP2 MSTORE PUSH1 0x4 ADD PUSH1 0x20 PUSH1 0x40 MLOAD DUP1 DUP4 SUB DUP2 DUP7 GAS STATICCALL ISZERO DUP1 ISZERO PUSH2 0x3DF JUMPI RETURNDATASIZE PUSH1 0x0 DUP1 RETURNDATACOPY RETURNDATASIZE PUSH1 0x0 REVERT JUMPDEST POP POP POP POP PUSH1 0x40 MLOAD RETURNDATASIZE PUSH1 0x1F NOT PUSH1 0x1F DUP3 ADD AND DUP3 ADD DUP1 PUSH1 0x40 MSTORE POP DUP2 ADD SWAP1 PUSH2 0x403 SWAP2 SWAP1 PUSH2 0x315B JUMP JUMPDEST ISZERO PUSH2 0x429 JUMPI PUSH1 0x40 MLOAD PUSH3 0x461BCD PUSH1 0xE5 SHL DUP2 MSTORE PUSH1 0x4 ADD PUSH2 0x420 SWAP1 PUSH2 0x3178 JUMP JUMPDEST PUSH1 0x40 MLOAD DUP1 SWAP2 SUB SWAP1 REVERT JUMPDEST PUSH1 0x0 PUSH2 0x4B3 PUSH2 0x43E PUSH1 0x80 DUP9 ADD PUSH1 0x60 DUP10 ADD PUSH2 0x31AF JUMP JUMPDEST PUSH1 0x40 DUP1 MLOAD PUSH32 0x4A65858B24BDCC6CEAE14293BF88954CD6374D5501BB4A687A74366659901CB4 PUSH1 0x20 DUP3 DUP2 ADD SWAP2 SWAP1 SWAP2 MSTORE PUSH1 0x1 PUSH1 0x1 PUSH1 0xA0 SHL SUB SWAP4 SWAP1 SWAP4 AND DUP2 DUP4 ADD MSTORE DUP10 CALLDATALOAD PUSH1 0x60 DUP3 ADD MSTORE DUP3 DUP11 ADD CALLDATALOAD PUSH1 0x80 DUP3 ADD MSTORE DUP2 DUP11 ADD CALLDATALOAD PUSH1 0xA0 DUP1 DUP4 ADD SWAP2 SWAP1 SWAP2 MSTORE DUP3 MLOAD DUP1 DUP4 SUB SWAP1 SWAP2 ADD DUP2 MSTORE PUSH1 0xC0 SWAP1 SWAP2 ADD SWAP1 SWAP2 MSTORE DUP1 MLOAD SWAP2 ADD KECCAK256 SWAP1 JUMP JUMPDEST SWAP1 POP PUSH1 0x0 PUSH2 0x4C0 DUP3 PUSH2 0x1D70 JUMP JUMPDEST SWAP1 POP PUSH1 0x0 DUP1 PUSH2 0x4CF DUP4 DUP12 PUSH2 0x1DBE JUMP JUMPDEST SWAP1 SWAP3 POP SWAP1 POP PUSH1 0x0 DUP2 PUSH1 0x4 DUP2 GT ISZERO PUSH2 0x4E8 JUMPI PUSH2 0x4E8 PUSH2 0x31CA JUMP JUMPDEST EQ PUSH2 0x530 JUMPI PUSH1 0x40 MLOAD PUSH3 0x461BCD PUSH1 0xE5 SHL DUP2 MSTORE PUSH1 0x20 PUSH1 0x4 DUP3 ADD MSTORE PUSH1 0x18 PUSH1 0x24 DUP3 ADD MSTORE PUSH24 0x496C6C6567616C20454344415341205369676E6174757265 PUSH1 0x40 SHL PUSH1 0x44 DUP3 ADD MSTORE PUSH1 0x64 ADD PUSH2 0x420 JUMP JUMPDEST PUSH20 0x0 PUSH4 0x487C6960 DUP14 PUSH2 0x554 ADDRESS PUSH2 0x1E2C JUMP JUMPDEST PUSH1 0x40 MLOAD PUSH1 0x1 PUSH1 0x1 PUSH1 0xE0 SHL SUB NOT PUSH1 0xE0 DUP6 SWAP1 SHL AND DUP2 MSTORE PUSH2 0x581 SWAP3 SWAP2 SWAP1 DUP8 SWAP1 PUSH4 0x1CCB7C8D PUSH1 0xE3 SHL SWAP1 PUSH1 0x4 ADD PUSH2 0x31E0 JUMP JUMPDEST PUSH1 0x20 PUSH1 0x40 MLOAD DUP1 DUP4 SUB DUP2 DUP7 GAS DELEGATECALL ISZERO DUP1 ISZERO PUSH2 0x59E JUMPI RETURNDATASIZE PUSH1 0x0 DUP1 RETURNDATACOPY RETURNDATASIZE PUSH1 0x0 REVERT JUMPDEST POP POP POP POP PUSH1 0x40 MLOAD RETURNDATASIZE PUSH1 0x1F NOT PUSH1 0x1F DUP3 ADD AND DUP3 ADD DUP1 PUSH1 0x40 MSTORE POP DUP2 ADD SWAP1 PUSH2 0x5C2 SWAP2 SWAP1 PUSH2 0x315B JUMP JUMPDEST PUSH2 0x60E JUMPI PUSH1 0x40 MLOAD PUSH3 0x461BCD PUSH1 0xE5 SHL DUP2 MSTORE PUSH1 0x20 PUSH1 0x4 DUP3 ADD MSTORE PUSH1 0x1B PUSH1 0x24 DUP3 ADD MSTORE PUSH32 0x557064617465436F6E74657874204163636573732044656E6965640000000000 PUSH1 0x44 DUP3 ADD MSTORE PUSH1 0x64 ADD PUSH2 0x420 JUMP JUMPDEST PUSH2 0x62F DUP13 DUP13 PUSH1 0x40 DUP13 ADD CALLDATALOAD PUSH2 0x628 PUSH1 0xA0 DUP15 ADD PUSH1 0x80 DUP16 ADD PUSH2 0x320E JUMP JUMPDEST DUP13 DUP13 PUSH2 0x1E6B JUMP JUMPDEST SWAP13 SWAP2 SWAP12 POP SWAP1 SWAP10 POP POP POP POP POP POP POP POP POP POP JUMP JUMPDEST PUSH1 0x0 DUP1 ADDRESS PUSH1 0x1 PUSH1 0x1 PUSH1 0xA0 SHL SUB AND PUSH4 0xBE22465D PUSH1 0x40 MLOAD DUP2 PUSH4 0xFFFFFFFF AND PUSH1 0xE0 SHL DUP2 MSTORE PUSH1 0x4 ADD PUSH1 0x20 PUSH1 0x40 MLOAD DUP1 DUP4 SUB DUP2 DUP7 GAS STATICCALL ISZERO DUP1 ISZERO PUSH2 0x682 JUMPI RETURNDATASIZE PUSH1 0x0 DUP1 RETURNDATACOPY RETURNDATASIZE PUSH1 0x0 REVERT JUMPDEST POP POP POP POP PUSH1 0x40 MLOAD RETURNDATASIZE PUSH1 0x1F NOT PUSH1 0x1F DUP3 ADD AND DUP3 ADD DUP1 PUSH1 0x40 MSTORE POP DUP2 ADD SWAP1 PUSH2 0x6A6 SWAP2 SWAP1 PUSH2 0x315B JUMP JUMPDEST ISZERO PUSH2 0x6C3 JUMPI PUSH1 0x40 MLOAD PUSH3 0x461BCD PUSH1 0xE5 SHL DUP2 MSTORE PUSH1 0x4 ADD PUSH2 0x420 SWAP1 PUSH2 0x3178 JUMP JUMPDEST PUSH1 0x0 PUSH2 0x6D8 PUSH2 0x43E PUSH1 0x80 DUP9 ADD PUSH1 0x60 DUP10 ADD PUSH2 0x31AF JUMP JUMPDEST SWAP1 POP PUSH1 0x0 PUSH2 0x6E5 DUP3 PUSH2 0x1D70 JUMP JUMPDEST SWAP1 POP PUSH1 0x0 DUP1 PUSH2 0x6F4 DUP4 DUP12 PUSH2 0x1DBE JUMP JUMPDEST SWAP1 SWAP3 POP SWAP1 POP PUSH1 0x0 DUP2 PUSH1 0x4 DUP2 GT ISZERO PUSH2 0x70D JUMPI PUSH2 0x70D PUSH2 0x31CA JUMP JUMPDEST EQ PUSH2 0x755 JUMPI PUSH1 0x40 MLOAD PUSH3 0x461BCD PUSH1 0xE5 SHL DUP2 MSTORE PUSH1 0x20 PUSH1 0x4 DUP3 ADD MSTORE PUSH1 0x18 PUSH1 0x24 DUP3 ADD MSTORE PUSH24 0x496C6C6567616C20454344415341205369676E6174757265 PUSH1 0x40 SHL PUSH1 0x44 DUP3 ADD MSTORE PUSH1 0x64 ADD PUSH2 0x420 JUMP JUMPDEST PUSH20 0x0 PUSH4 0x487C6960 DUP13 PUSH2 0x779 ADDRESS PUSH2 0x1E2C JUMP JUMPDEST PUSH1 0x40 MLOAD PUSH1 0x1 PUSH1 0x1 PUSH1 0xE0 SHL SUB NOT PUSH1 0xE0 DUP6 SWAP1 SHL AND DUP2 MSTORE PUSH2 0x7A6 SWAP3 SWAP2 SWAP1 DUP8 SWAP1 PUSH4 0x78EFA4ED PUSH1 0xE1 SHL SWAP1 PUSH1 0x4 ADD PUSH2 0x31E0 JUMP JUMPDEST PUSH1 0x20 PUSH1 0x40 MLOAD DUP1 DUP4 SUB DUP2 DUP7 GAS DELEGATECALL ISZERO DUP1 ISZERO PUSH2 0x7C3 JUMPI RETURNDATASIZE PUSH1 0x0 DUP1 RETURNDATACOPY RETURNDATASIZE PUSH1 0x0 REVERT JUMPDEST POP POP POP POP PUSH1 0x40 MLOAD RETURNDATASIZE PUSH1 0x1F NOT PUSH1 0x1F DUP3 ADD AND DUP3 ADD DUP1 PUSH1 0x40 MSTORE POP DUP2 ADD SWAP1 PUSH2 0x7E7 SWAP2 SWAP1 PUSH2 0x315B JUMP JUMPDEST PUSH2 0x833 JUMPI PUSH1 0x40 MLOAD PUSH3 0x461BCD PUSH1 0xE5 SHL DUP2 MSTORE PUSH1 0x20 PUSH1 0x4 DUP3 ADD MSTORE PUSH1 0x1D PUSH1 0x24 DUP3 ADD MSTORE PUSH32 0x5265676973746572436F6E74657874204163636573732044656E696564000000 PUSH1 0x44 DUP3 ADD MSTORE PUSH1 0x64 ADD PUSH2 0x420 JUMP JUMPDEST PUSH2 0x863 DUP12 PUSH2 0x847 PUSH1 0x80 DUP13 ADD PUSH1 0x60 DUP14 ADD PUSH2 0x31AF JUMP JUMPDEST PUSH1 0x40 DUP13 ADD CALLDATALOAD PUSH2 0x85C PUSH1 0xA0 DUP15 ADD PUSH1 0x80 DUP16 ADD PUSH2 0x320E JUMP JUMPDEST DUP13 DUP13 PUSH2 0x2592 JUMP JUMPDEST SWAP12 SWAP2 SWAP11 POP SWAP1 SWAP9 POP POP POP POP POP POP POP POP POP JUMP JUMPDEST PUSH1 0x40 MLOAD PUSH5 0x312E302E3 PUSH1 0xDC SHL PUSH1 0x20 DUP3 ADD MSTORE PUSH1 0x25 ADD JUMPDEST PUSH1 0x40 MLOAD PUSH1 0x20 DUP2 DUP4 SUB SUB DUP2 MSTORE SWAP1 PUSH1 0x40 MSTORE DUP1 MLOAD SWAP1 PUSH1 0x20 ADD KECCAK256 DUP2 JUMP JUMPDEST PUSH1 0x0 DUP1 ADDRESS PUSH1 0x1 PUSH1 0x1 PUSH1 0xA0 SHL SUB AND PUSH4 0xBE22465D PUSH1 0x40 MLOAD DUP2 PUSH4 0xFFFFFFFF AND PUSH1 0xE0 SHL DUP2 MSTORE PUSH1 0x4 ADD PUSH1 0x20 PUSH1 0x40 MLOAD DUP1 DUP4 SUB DUP2 DUP7 GAS STATICCALL ISZERO DUP1 ISZERO PUSH2 0x8E3 JUMPI RETURNDATASIZE PUSH1 0x0 DUP1 RETURNDATACOPY RETURNDATASIZE PUSH1 0x0 REVERT JUMPDEST POP POP POP POP PUSH1 0x40 MLOAD RETURNDATASIZE PUSH1 0x1F NOT PUSH1 0x1F DUP3 ADD AND DUP3 ADD DUP1 PUSH1 0x40 MSTORE POP DUP2 ADD SWAP1 PUSH2 0x907 SWAP2 SWAP1 PUSH2 0x315B JUMP JUMPDEST ISZERO PUSH2 0x924 JUMPI PUSH1 0x40 MLOAD PUSH3 0x461BCD PUSH1 0xE5 SHL DUP2 MSTORE PUSH1 0x4 ADD PUSH2 0x420 SWAP1 PUSH2 0x3178 JUMP JUMPDEST PUSH20 0x0 PUSH4 0x487C6960 DUP7 PUSH2 0x948 ADDRESS PUSH2 0x1E2C JUMP JUMPDEST PUSH1 0x40 MLOAD PUSH1 0x1 PUSH1 0x1 PUSH1 0xE0 SHL SUB NOT PUSH1 0xE0 DUP6 SWAP1 SHL AND DUP2 MSTORE PUSH2 0x975 SWAP3 SWAP2 SWAP1 CALLER SWAP1 PUSH4 0xD3386401 PUSH1 0xE0 SHL SWAP1 PUSH1 0x4 ADD PUSH2 0x31E0 JUMP JUMPDEST PUSH1 0x20 PUSH1 0x40 MLOAD DUP1 DUP4 SUB DUP2 DUP7 GAS DELEGATECALL ISZERO DUP1 ISZERO PUSH2 0x992 JUMPI RETURNDATASIZE PUSH1 0x0 DUP1 RETURNDATACOPY RETURNDATASIZE PUSH1 0x0 REVERT JUMPDEST POP POP POP POP PUSH1 0x40 MLOAD RETURNDATASIZE PUSH1 0x1F NOT PUSH1 0x1F DUP3 ADD AND DUP3 ADD DUP1 PUSH1 0x40 MSTORE POP DUP2 ADD SWAP1 PUSH2 0x9B6 SWAP2 SWAP1 PUSH2 0x315B JUMP JUMPDEST PUSH2 0xA02 JUMPI PUSH1 0x40 MLOAD PUSH3 0x461BCD PUSH1 0xE5 SHL DUP2 MSTORE PUSH1 0x20 PUSH1 0x4 DUP3 ADD MSTORE PUSH1 0x1D PUSH1 0x24 DUP3 ADD MSTORE PUSH32 0x536574436F6E746578745265616C6D204163636573732044656E696564000000 PUSH1 0x44 DUP3 ADD MSTORE PUSH1 0x64 ADD PUSH2 0x420 JUMP JUMPDEST DUP4 PUSH2 0xA0C ADDRESS PUSH2 0x1E2C JUMP JUMPDEST SUB PUSH2 0xA59 JUMPI PUSH1 0x40 MLOAD PUSH3 0x461BCD PUSH1 0xE5 SHL DUP2 MSTORE PUSH1 0x20 PUSH1 0x4 DUP3 ADD DUP2 SWAP1 MSTORE PUSH1 0x24 DUP3 ADD MSTORE PUSH32 0x496C6C6567616C204368616E67652041434C20436F6E74657874205265616C6D PUSH1 0x44 DUP3 ADD MSTORE PUSH1 0x64 ADD PUSH2 0x420 JUMP JUMPDEST PUSH1 0x0 DUP5 DUP2 MSTORE PUSH1 0x1 DUP1 DUP8 ADD PUSH1 0x20 MSTORE PUSH1 0x40 SWAP1 SWAP2 KECCAK256 ADD SLOAD PUSH1 0x1 PUSH1 0x1 PUSH1 0xA0 SHL SUB AND PUSH2 0xA92 JUMPI PUSH1 0x40 MLOAD PUSH3 0x461BCD PUSH1 0xE5 SHL DUP2 MSTORE PUSH1 0x4 ADD PUSH2 0x420 SWAP1 PUSH2 0x322B JUMP JUMPDEST PUSH1 0x0 DUP4 DUP2 MSTORE PUSH1 0x3 DUP7 ADD PUSH1 0x20 MSTORE PUSH1 0x40 SWAP1 KECCAK256 DUP1 SLOAD PUSH2 0xAAD SWAP1 PUSH2 0x3256 JUMP JUMPDEST SWAP1 POP PUSH1 0x0 SUB PUSH2 0xACE JUMPI PUSH1 0x40 MLOAD PUSH3 0x461BCD PUSH1 0xE5 SHL DUP2 MSTORE PUSH1 0x4 ADD PUSH2 0x420 SWAP1 PUSH2 0x328A JUMP JUMPDEST PUSH1 0x0 DUP5 DUP2 MSTORE PUSH1 0x1 DUP7 ADD PUSH1 0x20 MSTORE PUSH1 0x40 SWAP1 KECCAK256 SLOAD DUP4 SWAP1 SUB PUSH2 0xB2E JUMPI PUSH1 0x40 MLOAD PUSH3 0x461BCD PUSH1 0xE5 SHL DUP2 MSTORE PUSH1 0x20 PUSH1 0x4 DUP3 ADD MSTORE PUSH1 0x19 PUSH1 0x24 DUP3 ADD MSTORE PUSH32 0x496C6C6567616C205265616C6D204475706C69636174696F6E00000000000000 PUSH1 0x44 DUP3 ADD MSTORE PUSH1 0x64 ADD PUSH2 0x420 JUMP JUMPDEST PUSH1 0x0 DUP5 DUP2 MSTORE PUSH1 0x1 DUP7 ADD PUSH1 0x20 SWAP1 DUP2 MSTORE PUSH1 0x40 DUP1 DUP4 KECCAK256 SLOAD DUP7 DUP5 MSTORE PUSH1 0x3 DUP10 ADD SWAP1 SWAP3 MSTORE SWAP1 SWAP2 KECCAK256 PUSH2 0xB5C SWAP1 PUSH1 0x2 ADD DUP7 PUSH2 0x296F JUMP JUMPDEST POP PUSH1 0x0 DUP6 DUP2 MSTORE PUSH1 0x1 DUP8 ADD PUSH1 0x20 SWAP1 DUP2 MSTORE PUSH1 0x40 DUP1 DUP4 KECCAK256 SLOAD DUP4 MSTORE PUSH1 0x3 DUP10 ADD SWAP1 SWAP2 MSTORE SWAP1 KECCAK256 PUSH2 0xB89 SWAP1 PUSH1 0x2 ADD DUP7 PUSH2 0x2982 JUMP JUMPDEST POP PUSH1 0x1 SWAP7 SWAP1 SWAP6 POP SWAP4 POP POP POP POP JUMP JUMPDEST PUSH1 0x0 ADDRESS PUSH1 0x1 PUSH1 0x1 PUSH1 0xA0 SHL SUB AND PUSH4 0xBE22465D PUSH1 0x40 MLOAD DUP2 PUSH4 0xFFFFFFFF AND PUSH1 0xE0 SHL DUP2 MSTORE PUSH1 0x4 ADD PUSH1 0x20 PUSH1 0x40 MLOAD DUP1 DUP4 SUB DUP2 DUP7 GAS STATICCALL ISZERO DUP1 ISZERO PUSH2 0xBD7 JUMPI RETURNDATASIZE PUSH1 0x0 DUP1 RETURNDATACOPY RETURNDATASIZE PUSH1 0x0 REVERT JUMPDEST POP POP POP POP PUSH1 0x40 MLOAD RETURNDATASIZE PUSH1 0x1F NOT PUSH1 0x1F DUP3 ADD AND DUP3 ADD DUP1 PUSH1 0x40 MSTORE POP DUP2 ADD SWAP1 PUSH2 0xBFB SWAP2 SWAP1 PUSH2 0x315B JUMP JUMPDEST ISZERO PUSH2 0xC18 JUMPI PUSH1 0x40 MLOAD PUSH3 0x461BCD PUSH1 0xE5 SHL DUP2 MSTORE PUSH1 0x4 ADD PUSH2 0x420 SWAP1 PUSH2 0x3178 JUMP JUMPDEST PUSH20 0x0 PUSH4 0x487C6960 DUP7 PUSH2 0xC3C ADDRESS PUSH2 0x1E2C JUMP JUMPDEST PUSH1 0x40 MLOAD PUSH1 0x1 PUSH1 0x1 PUSH1 0xE0 SHL SUB NOT PUSH1 0xE0 DUP6 SWAP1 SHL AND DUP2 MSTORE PUSH2 0xC69 SWAP3 SWAP2 SWAP1 CALLER SWAP1 PUSH4 0x771BCF45 PUSH1 0xE0 SHL SWAP1 PUSH1 0x4 ADD PUSH2 0x31E0 JUMP JUMPDEST PUSH1 0x20 PUSH1 0x40 MLOAD DUP1 DUP4 SUB DUP2 DUP7 GAS DELEGATECALL ISZERO DUP1 ISZERO PUSH2 0xC86 JUMPI RETURNDATASIZE PUSH1 0x0 DUP1 RETURNDATACOPY RETURNDATASIZE PUSH1 0x0 REVERT JUMPDEST POP POP POP POP PUSH1 0x40 MLOAD RETURNDATASIZE PUSH1 0x1F NOT PUSH1 0x1F DUP3 ADD AND DUP3 ADD DUP1 PUSH1 0x40 MSTORE POP DUP2 ADD SWAP1 PUSH2 0xCAA SWAP2 SWAP1 PUSH2 0x315B JUMP JUMPDEST PUSH2 0xCF6 JUMPI PUSH1 0x40 MLOAD PUSH3 0x461BCD PUSH1 0xE5 SHL DUP2 MSTORE PUSH1 0x20 PUSH1 0x4 DUP3 ADD MSTORE PUSH1 0x1E PUSH1 0x24 DUP3 ADD MSTORE PUSH32 0x4772616E74436F6E74657874526F6C65204163636573732044656E6965640000 PUSH1 0x44 DUP3 ADD MSTORE PUSH1 0x64 ADD PUSH2 0x420 JUMP JUMPDEST DUP4 PUSH2 0xD00 ADDRESS PUSH2 0x1E2C JUMP JUMPDEST SUB PUSH2 0xD4D JUMPI PUSH1 0x40 MLOAD PUSH3 0x461BCD PUSH1 0xE5 SHL DUP2 MSTORE PUSH1 0x20 PUSH1 0x4 DUP3 ADD MSTORE PUSH1 0x19 PUSH1 0x24 DUP3 ADD MSTORE PUSH32 0x496C6C6567616C204772616E742041434C20436F6E7465787400000000000000 PUSH1 0x44 DUP3 ADD MSTORE PUSH1 0x64 ADD PUSH2 0x420 JUMP JUMPDEST PUSH1 0x0 DUP5 DUP2 MSTORE PUSH1 0x1 DUP1 DUP8 ADD PUSH1 0x20 MSTORE PUSH1 0x40 SWAP1 SWAP2 KECCAK256 ADD SLOAD PUSH1 0x1 PUSH1 0x1 PUSH1 0xA0 SHL SUB AND PUSH2 0xD86 JUMPI PUSH1 0x40 MLOAD PUSH3 0x461BCD PUSH1 0xE5 SHL DUP2 MSTORE PUSH1 0x4 ADD PUSH2 0x420 SWAP1 PUSH2 0x322B JUMP JUMPDEST PUSH1 0x0 DUP3 DUP2 MSTORE PUSH1 0x2 DUP7 ADD PUSH1 0x20 MSTORE PUSH1 0x40 SWAP1 KECCAK256 DUP1 SLOAD PUSH2 0xDA1 SWAP1 PUSH2 0x3256 JUMP JUMPDEST SWAP1 POP PUSH1 0x0 SUB PUSH2 0xDC2 JUMPI PUSH1 0x40 MLOAD PUSH3 0x461BCD PUSH1 0xE5 SHL DUP2 MSTORE PUSH1 0x4 ADD PUSH2 0x420 SWAP1 PUSH2 0x32B3 JUMP JUMPDEST PUSH1 0x0 DUP5 DUP2 MSTORE PUSH1 0x1 DUP7 ADD PUSH1 0x20 MSTORE PUSH1 0x40 SWAP1 KECCAK256 PUSH2 0xDE9 SWAP1 PUSH1 0x3 ADD PUSH1 0x1 PUSH1 0x1 PUSH1 0xE0 SHL SUB NOT DUP6 AND PUSH2 0x298E JUMP JUMPDEST PUSH2 0xE05 JUMPI PUSH1 0x40 MLOAD PUSH3 0x461BCD PUSH1 0xE5 SHL DUP2 MSTORE PUSH1 0x4 ADD PUSH2 0x420 SWAP1 PUSH2 0x32DB JUMP JUMPDEST PUSH1 0x0 DUP5 DUP2 MSTORE PUSH1 0x1 DUP7 DUP2 ADD PUSH1 0x20 SWAP1 DUP2 MSTORE PUSH1 0x40 DUP1 DUP5 KECCAK256 PUSH1 0x1 PUSH1 0x1 PUSH1 0xE0 SHL SUB NOT DUP9 AND DUP6 MSTORE PUSH1 0x2 ADD SWAP1 SWAP2 MSTORE SWAP1 SWAP2 KECCAK256 DUP4 DUP2 SSTORE DUP2 ADD DUP1 SLOAD PUSH1 0xFF NOT AND DUP3 DUP1 JUMPDEST MUL OR SWAP1 SSTORE POP POP POP PUSH1 0x0 SWAP2 DUP3 MSTORE POP PUSH1 0x1 SWAP2 SWAP1 SWAP2 ADD PUSH1 0x20 MSTORE PUSH1 0x40 SWAP1 KECCAK256 SLOAD SWAP1 JUMP JUMPDEST PUSH1 0x0 ADDRESS PUSH1 0x1 PUSH1 0x1 PUSH1 0xA0 SHL SUB AND PUSH4 0xBE22465D PUSH1 0x40 MLOAD DUP2 PUSH4 0xFFFFFFFF AND PUSH1 0xE0 SHL DUP2 MSTORE PUSH1 0x4 ADD PUSH1 0x20 PUSH1 0x40 MLOAD DUP1 DUP4 SUB DUP2 DUP7 GAS STATICCALL ISZERO DUP1 ISZERO PUSH2 0xE9B JUMPI RETURNDATASIZE PUSH1 0x0 DUP1 RETURNDATACOPY RETURNDATASIZE PUSH1 0x0 REVERT JUMPDEST POP POP POP POP PUSH1 0x40 MLOAD RETURNDATASIZE PUSH1 0x1F NOT PUSH1 0x1F DUP3 ADD AND DUP3 ADD DUP1 PUSH1 0x40 MSTORE POP DUP2 ADD SWAP1 PUSH2 0xEBF SWAP2 SWAP1 PUSH2 0x315B JUMP JUMPDEST ISZERO PUSH2 0xEDC JUMPI PUSH1 0x40 MLOAD PUSH3 0x461BCD PUSH1 0xE5 SHL DUP2 MSTORE PUSH1 0x4 ADD PUSH2 0x420 SWAP1 PUSH2 0x3178 JUMP JUMPDEST PUSH20 0x0 PUSH4 0x487C6960 DUP7 PUSH2 0xF00 ADDRESS PUSH2 0x1E2C JUMP JUMPDEST PUSH1 0x40 MLOAD PUSH1 0x1 PUSH1 0x1 PUSH1 0xE0 SHL SUB NOT PUSH1 0xE0 DUP6 SWAP1 SHL AND DUP2 MSTORE PUSH2 0xF2D SWAP3 SWAP2 SWAP1 CALLER SWAP1 PUSH4 0x31C0493 PUSH1 0xE0 SHL SWAP1 PUSH1 0x4 ADD PUSH2 0x31E0 JUMP JUMPDEST PUSH1 0x20 PUSH1 0x40 MLOAD DUP1 DUP4 SUB DUP2 DUP7 GAS DELEGATECALL ISZERO DUP1 ISZERO PUSH2 0xF4A JUMPI RETURNDATASIZE PUSH1 0x0 DUP1 RETURNDATACOPY RETURNDATASIZE PUSH1 0x0 REVERT JUMPDEST POP POP POP POP PUSH1 0x40 MLOAD RETURNDATASIZE PUSH1 0x1F NOT PUSH1 0x1F DUP3 ADD AND DUP3 ADD DUP1 PUSH1 0x40 MSTORE POP DUP2 ADD SWAP1 PUSH2 0xF6E SWAP2 SWAP1 PUSH2 0x315B JUMP JUMPDEST PUSH2 0xFBA JUMPI PUSH1 0x40 MLOAD PUSH3 0x461BCD PUSH1 0xE5 SHL DUP2 MSTORE PUSH1 0x20 PUSH1 0x4 DUP3 ADD DUP2 SWAP1 MSTORE PUSH1 0x24 DUP3 ADD MSTORE PUSH32 0x416464436F6E7465787446756E63526F6C65204163636573732044656E696564 PUSH1 0x44 DUP3 ADD MSTORE PUSH1 0x64 ADD PUSH2 0x420 JUMP JUMPDEST PUSH1 0x0 DUP5 DUP2 MSTORE PUSH1 0x1 DUP1 DUP8 ADD PUSH1 0x20 MSTORE PUSH1 0x40 SWAP1 SWAP2 KECCAK256 ADD SLOAD PUSH1 0x1 PUSH1 0x1 PUSH1 0xA0 SHL SUB AND PUSH2 0xFF3 JUMPI PUSH1 0x40 MLOAD PUSH3 0x461BCD PUSH1 0xE5 SHL DUP2 MSTORE PUSH1 0x4 ADD PUSH2 0x420 SWAP1 PUSH2 0x322B JUMP JUMPDEST PUSH1 0x0 DUP3 DUP2 MSTORE PUSH1 0x2 DUP7 ADD PUSH1 0x20 MSTORE PUSH1 0x40 SWAP1 KECCAK256 DUP1 SLOAD PUSH2 0x100E SWAP1 PUSH2 0x3256 JUMP JUMPDEST SWAP1 POP PUSH1 0x0 SUB PUSH2 0x102F JUMPI PUSH1 0x40 MLOAD PUSH3 0x461BCD PUSH1 0xE5 SHL DUP2 MSTORE PUSH1 0x4 ADD PUSH2 0x420 SWAP1 PUSH2 0x32B3 JUMP JUMPDEST PUSH1 0x0 DUP5 DUP2 MSTORE PUSH1 0x1 DUP7 ADD PUSH1 0x20 MSTORE PUSH1 0x40 SWAP1 KECCAK256 PUSH2 0x1056 SWAP1 PUSH1 0x3 ADD PUSH1 0x1 PUSH1 0x1 PUSH1 0xE0 SHL SUB NOT DUP6 AND PUSH2 0x298E JUMP JUMPDEST ISZERO PUSH2 0x10A3 JUMPI PUSH1 0x40 MLOAD PUSH3 0x461BCD PUSH1 0xE5 SHL DUP2 MSTORE PUSH1 0x20 PUSH1 0x4 DUP3 ADD MSTORE PUSH1 0x1F PUSH1 0x24 DUP3 ADD MSTORE PUSH32 0x46756E6374696F6E53656C6563746F7220416C72656164792045786973747300 PUSH1 0x44 DUP3 ADD MSTORE PUSH1 0x64 ADD PUSH2 0x420 JUMP JUMPDEST PUSH1 0x0 DUP5 DUP2 MSTORE PUSH1 0x1 DUP7 DUP2 ADD PUSH1 0x20 DUP2 DUP2 MSTORE PUSH1 0x40 DUP1 DUP6 KECCAK256 PUSH1 0x1 PUSH1 0x1 PUSH1 0xE0 SHL SUB NOT DUP10 AND DUP1 DUP8 MSTORE PUSH1 0x2 DUP3 ADD DUP5 MSTORE SWAP2 DUP7 KECCAK256 DUP9 DUP2 SSTORE DUP6 ADD DUP1 SLOAD PUSH1 0xFF NOT AND SWAP1 SWAP6 OR SWAP1 SWAP5 SSTORE SWAP4 DUP9 SWAP1 MSTORE MSTORE PUSH2 0x10F3 SWAP2 PUSH1 0x3 SWAP1 SWAP2 ADD SWAP1 PUSH2 0x296F JUMP JUMPDEST POP POP POP PUSH1 0x0 SWAP2 DUP3 MSTORE POP PUSH1 0x1 SWAP2 SWAP1 SWAP2 ADD PUSH1 0x20 MSTORE PUSH1 0x40 SWAP1 KECCAK256 SLOAD SWAP1 JUMP JUMPDEST PUSH1 0x0 ADDRESS PUSH1 0x1 PUSH1 0x1 PUSH1 0xA0 SHL SUB AND PUSH4 0xBE22465D PUSH1 0x40 MLOAD DUP2 PUSH4 0xFFFFFFFF AND PUSH1 0xE0 SHL DUP2 MSTORE PUSH1 0x4 ADD PUSH1 0x20 PUSH1 0x40 MLOAD DUP1 DUP4 SUB DUP2 DUP7 GAS STATICCALL ISZERO DUP1 ISZERO PUSH2 0x114D JUMPI RETURNDATASIZE PUSH1 0x0 DUP1 RETURNDATACOPY RETURNDATASIZE PUSH1 0x0 REVERT JUMPDEST POP POP POP POP PUSH1 0x40 MLOAD RETURNDATASIZE PUSH1 0x1F NOT PUSH1 0x1F DUP3 ADD AND DUP3 ADD DUP1 PUSH1 0x40 MSTORE POP DUP2 ADD SWAP1 PUSH2 0x1171 SWAP2 SWAP1 PUSH2 0x315B JUMP JUMPDEST ISZERO PUSH2 0x118E JUMPI PUSH1 0x40 MLOAD PUSH3 0x461BCD PUSH1 0xE5 SHL DUP2 MSTORE PUSH1 0x4 ADD PUSH2 0x420 SWAP1 PUSH2 0x3178 JUMP JUMPDEST PUSH20 0x0 PUSH4 0x487C6960 DUP7 PUSH2 0x11B2 ADDRESS PUSH2 0x1E2C JUMP JUMPDEST PUSH1 0x40 MLOAD PUSH1 0x1 PUSH1 0x1 PUSH1 0xE0 SHL SUB NOT PUSH1 0xE0 DUP6 SWAP1 SHL AND DUP2 MSTORE PUSH2 0x11DF SWAP3 SWAP2 SWAP1 CALLER SWAP1 PUSH4 0x4346A04B PUSH1 0xE0 SHL SWAP1 PUSH1 0x4 ADD PUSH2 0x31E0 JUMP JUMPDEST PUSH1 0x20 PUSH1 0x40 MLOAD DUP1 DUP4 SUB DUP2 DUP7 GAS DELEGATECALL ISZERO DUP1 ISZERO PUSH2 0x11FC JUMPI RETURNDATASIZE PUSH1 0x0 DUP1 RETURNDATACOPY RETURNDATASIZE PUSH1 0x0 REVERT JUMPDEST POP POP POP POP PUSH1 0x40 MLOAD RETURNDATASIZE PUSH1 0x1F NOT PUSH1 0x1F DUP3 ADD AND DUP3 ADD DUP1 PUSH1 0x40 MSTORE POP DUP2 ADD SWAP1 PUSH2 0x1220 SWAP2 SWAP1 PUSH2 0x315B JUMP JUMPDEST PUSH2 0x126C JUMPI PUSH1 0x40 MLOAD PUSH3 0x461BCD PUSH1 0xE5 SHL DUP2 MSTORE PUSH1 0x20 PUSH1 0x4 DUP3 ADD MSTORE PUSH1 0x1F PUSH1 0x24 DUP3 ADD MSTORE PUSH32 0x5265766F6B65436F6E74657874526F6C65204163636573732044656E69656400 PUSH1 0x44 DUP3 ADD MSTORE PUSH1 0x64 ADD PUSH2 0x420 JUMP JUMPDEST DUP4 PUSH2 0x1276 ADDRESS PUSH2 0x1E2C JUMP JUMPDEST SUB PUSH2 0x12C3 JUMPI PUSH1 0x40 MLOAD PUSH3 0x461BCD PUSH1 0xE5 SHL DUP2 MSTORE PUSH1 0x20 PUSH1 0x4 DUP3 ADD MSTORE PUSH1 0x1A PUSH1 0x24 DUP3 ADD MSTORE PUSH32 0x496C6C6567616C205265766F6B652041434C20436F6E74657874000000000000 PUSH1 0x44 DUP3 ADD MSTORE PUSH1 0x64 ADD PUSH2 0x420 JUMP JUMPDEST PUSH1 0x0 DUP5 DUP2 MSTORE PUSH1 0x1 DUP1 DUP8 ADD PUSH1 0x20 MSTORE PUSH1 0x40 SWAP1 SWAP2 KECCAK256 ADD SLOAD PUSH1 0x1 PUSH1 0x1 PUSH1 0xA0 SHL SUB AND PUSH2 0x12FC JUMPI PUSH1 0x40 MLOAD PUSH3 0x461BCD PUSH1 0xE5 SHL DUP2 MSTORE PUSH1 0x4 ADD PUSH2 0x420 SWAP1 PUSH2 0x322B JUMP JUMPDEST PUSH1 0x0 DUP3 DUP2 MSTORE PUSH1 0x2 DUP7 ADD PUSH1 0x20 MSTORE PUSH1 0x40 SWAP1 KECCAK256 DUP1 SLOAD PUSH2 0x1317 SWAP1 PUSH2 0x3256 JUMP JUMPDEST SWAP1 POP PUSH1 0x0 SUB PUSH2 0x1338 JUMPI PUSH1 0x40 MLOAD PUSH3 0x461BCD PUSH1 0xE5 SHL DUP2 MSTORE PUSH1 0x4 ADD PUSH2 0x420 SWAP1 PUSH2 0x32B3 JUMP JUMPDEST PUSH1 0x0 DUP5 DUP2 MSTORE PUSH1 0x1 DUP7 ADD PUSH1 0x20 MSTORE PUSH1 0x40 SWAP1 KECCAK256 PUSH2 0x135F SWAP1 PUSH1 0x3 ADD PUSH1 0x1 PUSH1 0x1 PUSH1 0xE0 SHL SUB NOT DUP6 AND PUSH2 0x298E JUMP JUMPDEST PUSH2 0x137B JUMPI PUSH1 0x40 MLOAD PUSH3 0x461BCD PUSH1 0xE5 SHL DUP2 MSTORE PUSH1 0x4 ADD PUSH2 0x420 SWAP1 PUSH2 0x32DB JUMP JUMPDEST PUSH1 0x0 DUP5 DUP2 MSTORE PUSH1 0x1 DUP1 DUP8 ADD PUSH1 0x20 SWAP1 DUP2 MSTORE PUSH1 0x40 DUP1 DUP5 KECCAK256 PUSH1 0x1 PUSH1 0x1 PUSH1 0xE0 SHL SUB NOT DUP9 AND DUP6 MSTORE PUSH1 0x2 SWAP1 DUP2 ADD SWAP1 SWAP3 MSTORE SWAP1 SWAP3 KECCAK256 DUP2 ADD DUP1 SLOAD SWAP1 SWAP2 PUSH1 0xFF NOT SWAP1 SWAP2 AND SWAP1 DUP4 PUSH2 0xE3D JUMP JUMPDEST PUSH1 0x0 DUP4 DUP2 MSTORE PUSH1 0x1 DUP1 DUP7 ADD PUSH1 0x20 MSTORE PUSH1 0x40 DUP3 KECCAK256 ADD SLOAD PUSH1 0x1 PUSH1 0x1 PUSH1 0xA0 SHL SUB AND ISZERO DUP1 ISZERO SWAP1 PUSH2 0x140B JUMPI POP PUSH1 0x0 DUP5 DUP2 MSTORE PUSH1 0x1 DUP7 ADD PUSH1 0x20 SWAP1 DUP2 MSTORE PUSH1 0x40 DUP1 DUP4 KECCAK256 PUSH1 0x1 PUSH1 0x1 PUSH1 0xE0 SHL SUB NOT DUP7 AND DUP5 MSTORE PUSH1 0x2 ADD SWAP1 SWAP2 MSTORE SWAP1 KECCAK256 SLOAD DUP4 EQ JUMPDEST DUP1 ISZERO PUSH2 0x1457 JUMPI POP PUSH1 0x1 PUSH1 0x0 DUP6 DUP2 MSTORE PUSH1 0x1 DUP1 DUP9 ADD PUSH1 0x20 SWAP1 DUP2 MSTORE PUSH1 0x40 DUP1 DUP5 KECCAK256 PUSH1 0x1 PUSH1 0x1 PUSH1 0xE0 SHL SUB NOT DUP9 AND DUP6 MSTORE PUSH1 0x2 SWAP1 DUP2 ADD SWAP1 SWAP3 MSTORE SWAP1 SWAP3 KECCAK256 ADD SLOAD PUSH1 0xFF AND SWAP1 DUP2 GT ISZERO PUSH2 0x1455 JUMPI PUSH2 0x1455 PUSH2 0x31CA JUMP JUMPDEST EQ JUMPDEST SWAP6 SWAP5 POP POP POP POP POP JUMP JUMPDEST PUSH1 0x40 DUP1 MLOAD PUSH1 0xC0 DUP2 ADD DUP3 MSTORE PUSH1 0x0 DUP1 DUP3 MSTORE PUSH1 0x20 DUP3 ADD DUP2 SWAP1 MSTORE SWAP2 DUP2 ADD DUP3 SWAP1 MSTORE PUSH1 0x60 DUP2 ADD DUP3 SWAP1 MSTORE PUSH1 0x80 DUP2 ADD DUP3 SWAP1 MSTORE PUSH1 0xA0 DUP2 ADD SWAP2 SWAP1 SWAP2 MSTORE PUSH1 0x0 DUP3 DUP2 MSTORE PUSH1 0x1 DUP1 DUP6 ADD PUSH1 0x20 MSTORE PUSH1 0x40 SWAP1 SWAP2 KECCAK256 ADD SLOAD PUSH1 0x1 PUSH1 0x1 PUSH1 0xA0 SHL SUB AND PUSH2 0x14CB JUMPI PUSH1 0x40 MLOAD PUSH3 0x461BCD PUSH1 0xE5 SHL DUP2 MSTORE PUSH1 0x4 ADD PUSH2 0x420 SWAP1 PUSH2 0x322B JUMP JUMPDEST PUSH1 0x0 DUP3 DUP2 MSTORE PUSH1 0x1 DUP1 DUP6 ADD PUSH1 0x20 SWAP1 DUP2 MSTORE PUSH1 0x40 DUP1 DUP5 KECCAK256 SWAP1 SWAP3 ADD SLOAD DUP3 MLOAD PUSH4 0x1D743037 PUSH1 0xE2 SHL DUP2 MSTORE SWAP3 MLOAD PUSH1 0x1 PUSH1 0x1 PUSH1 0xA0 SHL SUB SWAP1 SWAP2 AND SWAP3 PUSH4 0x75D0C0DC SWAP3 PUSH1 0x4 DUP1 DUP4 ADD SWAP4 SWAP2 SWAP3 DUP3 SWAP1 SUB ADD DUP2 DUP7 GAS STATICCALL ISZERO DUP1 ISZERO PUSH2 0x1524 JUMPI RETURNDATASIZE PUSH1 0x0 DUP1 RETURNDATACOPY RETURNDATASIZE PUSH1 0x0 REVERT JUMPDEST POP POP POP POP PUSH1 0x40 MLOAD RETURNDATASIZE PUSH1 0x1F NOT PUSH1 0x1F DUP3 ADD AND DUP3 ADD DUP1 PUSH1 0x40 MSTORE POP DUP2 ADD SWAP1 PUSH2 0x1548 SWAP2 SWAP1 PUSH2 0x3312 JUMP JUMPDEST PUSH1 0x0 DUP5 DUP2 MSTORE PUSH1 0x1 DUP1 DUP8 ADD PUSH1 0x20 SWAP1 DUP2 MSTORE PUSH1 0x40 DUP1 DUP5 KECCAK256 SWAP1 SWAP3 ADD SLOAD DUP3 MLOAD PUSH4 0x5054723 PUSH1 0xE5 SHL DUP2 MSTORE SWAP3 MLOAD SWAP5 SWAP6 POP SWAP3 SWAP4 PUSH1 0x1 PUSH1 0x1 PUSH1 0xA0 SHL SUB SWAP1 SWAP4 AND SWAP3 PUSH4 0xA0A8E460 SWAP3 PUSH1 0x4 DUP1 DUP3 ADD SWAP4 SWAP3 SWAP2 DUP3 SWAP1 SUB ADD DUP2 DUP7 GAS STATICCALL ISZERO DUP1 ISZERO PUSH2 0x15A6 JUMPI RETURNDATASIZE PUSH1 0x0 DUP1 RETURNDATACOPY RETURNDATASIZE PUSH1 0x0 REVERT JUMPDEST POP POP POP POP PUSH1 0x40 MLOAD RETURNDATASIZE PUSH1 0x1F NOT PUSH1 0x1F DUP3 ADD AND DUP3 ADD DUP1 PUSH1 0x40 MSTORE POP DUP2 ADD SWAP1 PUSH2 0x15CA SWAP2 SWAP1 PUSH2 0x3312 JUMP JUMPDEST PUSH1 0x0 DUP6 DUP2 MSTORE PUSH1 0x1 DUP1 DUP9 ADD PUSH1 0x20 SWAP1 DUP2 MSTORE PUSH1 0x40 DUP1 DUP5 KECCAK256 SWAP1 SWAP3 ADD SLOAD DUP3 MLOAD PUSH4 0xBE22465D PUSH1 0xE0 SHL DUP2 MSTORE SWAP3 MLOAD SWAP5 SWAP6 POP SWAP3 SWAP4 PUSH1 0x1 PUSH1 0x1 PUSH1 0xA0 SHL SUB SWAP1 SWAP4 AND SWAP3 PUSH4 0xBE22465D SWAP3 PUSH1 0x4 DUP1 DUP3 ADD SWAP4 SWAP3 SWAP2 DUP3 SWAP1 SUB ADD DUP2 DUP7 GAS STATICCALL ISZERO DUP1 ISZERO PUSH2 0x1628 JUMPI RETURNDATASIZE PUSH1 0x0 DUP1 RETURNDATACOPY RETURNDATASIZE PUSH1 0x0 REVERT JUMPDEST POP POP POP POP PUSH1 0x40 MLOAD RETURNDATASIZE PUSH1 0x1F NOT PUSH1 0x1F DUP3 ADD AND DUP3 ADD DUP1 PUSH1 0x40 MSTORE POP DUP2 ADD SWAP1 PUSH2 0x164C SWAP2 SWAP1 PUSH2 0x315B JUMP JUMPDEST PUSH1 0x0 DUP7 DUP2 MSTORE PUSH1 0x1 DUP1 DUP10 ADD PUSH1 0x20 SWAP1 DUP2 MSTORE PUSH1 0x40 DUP1 DUP5 KECCAK256 SWAP1 SWAP3 ADD SLOAD DUP3 MLOAD PUSH4 0x151E765 PUSH1 0xE6 SHL DUP2 MSTORE SWAP3 MLOAD SWAP5 SWAP6 POP SWAP3 SWAP4 PUSH1 0x1 PUSH1 0x1 PUSH1 0xA0 SHL SUB SWAP1 SWAP4 AND SWAP3 PUSH4 0x5479D940 SWAP3 PUSH1 0x4 DUP1 DUP3 ADD SWAP4 SWAP3 SWAP2 DUP3 SWAP1 SUB ADD DUP2 DUP7 GAS STATICCALL ISZERO DUP1 ISZERO PUSH2 0x16AA JUMPI RETURNDATASIZE PUSH1 0x0 DUP1 RETURNDATACOPY RETURNDATASIZE PUSH1 0x0 REVERT JUMPDEST POP POP POP POP PUSH1 0x40 MLOAD RETURNDATASIZE PUSH1 0x1F NOT PUSH1 0x1F DUP3 ADD AND DUP3 ADD DUP1 PUSH1 0x40 MSTORE POP DUP2 ADD SWAP1 PUSH2 0x16CE SWAP2 SWAP1 PUSH2 0x315B JUMP JUMPDEST PUSH1 0x40 DUP1 MLOAD PUSH1 0xC0 DUP2 ADD DUP3 MSTORE SWAP6 DUP7 MSTORE PUSH1 0x20 DUP1 DUP8 ADD SWAP6 SWAP1 SWAP6 MSTORE PUSH1 0x0 DUP9 DUP2 MSTORE PUSH1 0x1 DUP1 DUP12 ADD DUP1 DUP9 MSTORE DUP4 DUP4 KECCAK256 DUP1 SLOAD SWAP5 DUP11 ADD SWAP5 SWAP1 SWAP5 MSTORE SWAP2 DUP11 SWAP1 MSTORE SWAP6 MSTORE SWAP1 SWAP4 ADD SLOAD PUSH1 0x1 PUSH1 0x1 PUSH1 0xA0 SHL SUB AND PUSH1 0x60 DUP6 ADD MSTORE POP ISZERO ISZERO PUSH1 0x80 DUP4 ADD MSTORE ISZERO ISZERO PUSH1 0xA0 DUP3 ADD MSTORE SWAP1 POP JUMPDEST SWAP3 SWAP2 POP POP JUMP JUMPDEST PUSH1 0x0 DUP1 ADDRESS PUSH1 0x1 PUSH1 0x1 PUSH1 0xA0 SHL SUB AND PUSH4 0xBE22465D PUSH1 0x40 MLOAD DUP2 PUSH4 0xFFFFFFFF AND PUSH1 0xE0 SHL DUP2 MSTORE PUSH1 0x4 ADD PUSH1 0x20 PUSH1 0x40 MLOAD DUP1 DUP4 SUB DUP2 DUP7 GAS STATICCALL ISZERO DUP1 ISZERO PUSH2 0x176E JUMPI RETURNDATASIZE PUSH1 0x0 DUP1 RETURNDATACOPY RETURNDATASIZE PUSH1 0x0 REVERT JUMPDEST POP POP POP POP PUSH1 0x40 MLOAD RETURNDATASIZE PUSH1 0x1F NOT PUSH1 0x1F DUP3 ADD AND DUP3 ADD DUP1 PUSH1 0x40 MSTORE POP DUP2 ADD SWAP1 PUSH2 0x1792 SWAP2 SWAP1 PUSH2 0x315B JUMP JUMPDEST ISZERO PUSH2 0x17AF JUMPI PUSH1 0x40 MLOAD PUSH3 0x461BCD PUSH1 0xE5 SHL DUP2 MSTORE PUSH1 0x4 ADD PUSH2 0x420 SWAP1 PUSH2 0x3178 JUMP JUMPDEST PUSH20 0x0 PUSH4 0x487C6960 DUP7 PUSH2 0x17D3 ADDRESS PUSH2 0x1E2C JUMP JUMPDEST PUSH1 0x40 MLOAD PUSH1 0x1 PUSH1 0x1 PUSH1 0xE0 SHL SUB NOT PUSH1 0xE0 DUP6 SWAP1 SHL AND DUP2 MSTORE PUSH2 0x1800 SWAP3 SWAP2 SWAP1 CALLER SWAP1 PUSH4 0x70420EE3 PUSH1 0xE0 SHL SWAP1 PUSH1 0x4 ADD PUSH2 0x31E0 JUMP JUMPDEST PUSH1 0x20 PUSH1 0x40 MLOAD DUP1 DUP4 SUB DUP2 DUP7 GAS DELEGATECALL ISZERO DUP1 ISZERO PUSH2 0x181D JUMPI RETURNDATASIZE PUSH1 0x0 DUP1 RETURNDATACOPY RETURNDATASIZE PUSH1 0x0 REVERT JUMPDEST POP POP POP POP PUSH1 0x40 MLOAD RETURNDATASIZE PUSH1 0x1F NOT PUSH1 0x1F DUP3 ADD AND DUP3 ADD DUP1 PUSH1 0x40 MSTORE POP DUP2 ADD SWAP1 PUSH2 0x1841 SWAP2 SWAP1 PUSH2 0x315B JUMP JUMPDEST PUSH2 0x188D JUMPI PUSH1 0x40 MLOAD PUSH3 0x461BCD PUSH1 0xE5 SHL DUP2 MSTORE PUSH1 0x20 PUSH1 0x4 DUP3 ADD MSTORE PUSH1 0x1E PUSH1 0x24 DUP3 ADD MSTORE PUSH32 0x536574436F6E74657874537461747573204163636573732044656E6965640000 PUSH1 0x44 DUP3 ADD MSTORE PUSH1 0x64 ADD PUSH2 0x420 JUMP JUMPDEST DUP4 PUSH2 0x1897 ADDRESS PUSH2 0x1E2C JUMP JUMPDEST SUB PUSH2 0x18EE JUMPI PUSH1 0x40 MLOAD PUSH3 0x461BCD PUSH1 0xE5 SHL DUP2 MSTORE PUSH1 0x20 PUSH1 0x4 DUP3 ADD MSTORE PUSH1 0x21 PUSH1 0x24 DUP3 ADD MSTORE PUSH32 0x496C6C6567616C204368616E67652041434C20436F6E74657874205374617475 PUSH1 0x44 DUP3 ADD MSTORE PUSH1 0x73 PUSH1 0xF8 SHL PUSH1 0x64 DUP3 ADD MSTORE PUSH1 0x84 ADD PUSH2 0x420 JUMP JUMPDEST PUSH1 0x0 DUP5 DUP2 MSTORE PUSH1 0x1 DUP1 DUP8 ADD PUSH1 0x20 MSTORE PUSH1 0x40 SWAP1 SWAP2 KECCAK256 ADD SLOAD PUSH1 0x1 PUSH1 0x1 PUSH1 0xA0 SHL SUB AND PUSH2 0x1927 JUMPI PUSH1 0x40 MLOAD PUSH3 0x461BCD PUSH1 0xE5 SHL DUP2 MSTORE PUSH1 0x4 ADD PUSH2 0x420 SWAP1 PUSH2 0x322B JUMP JUMPDEST POP POP PUSH1 0x0 DUP3 DUP2 MSTORE PUSH1 0x1 DUP1 DUP6 ADD PUSH1 0x20 MSTORE PUSH1 0x40 SWAP1 SWAP2 KECCAK256 DUP1 DUP3 ADD DUP1 SLOAD DUP5 ISZERO ISZERO PUSH1 0x1 PUSH1 0xA0 SHL MUL PUSH1 0xFF PUSH1 0xA0 SHL NOT SWAP1 SWAP2 AND OR SWAP1 SSTORE SLOAD SWAP4 POP SWAP4 SWAP2 POP POP JUMP JUMPDEST PUSH1 0x0 ADDRESS PUSH1 0x1 PUSH1 0x1 PUSH1 0xA0 SHL SUB AND PUSH4 0xBE22465D PUSH1 0x40 MLOAD DUP2 PUSH4 0xFFFFFFFF AND PUSH1 0xE0 SHL DUP2 MSTORE PUSH1 0x4 ADD PUSH1 0x20 PUSH1 0x40 MLOAD DUP1 DUP4 SUB DUP2 DUP7 GAS STATICCALL ISZERO DUP1 ISZERO PUSH2 0x199E JUMPI RETURNDATASIZE PUSH1 0x0 DUP1 RETURNDATACOPY RETURNDATASIZE PUSH1 0x0 REVERT JUMPDEST POP POP POP POP PUSH1 0x40 MLOAD RETURNDATASIZE PUSH1 0x1F NOT PUSH1 0x1F DUP3 ADD AND DUP3 ADD DUP1 PUSH1 0x40 MSTORE POP DUP2 ADD SWAP1 PUSH2 0x19C2 SWAP2 SWAP1 PUSH2 0x315B JUMP JUMPDEST ISZERO PUSH2 0x19DF JUMPI PUSH1 0x40 MLOAD PUSH3 0x461BCD PUSH1 0xE5 SHL DUP2 MSTORE PUSH1 0x4 ADD PUSH2 0x420 SWAP1 PUSH2 0x3178 JUMP JUMPDEST PUSH20 0x0 PUSH4 0x487C6960 DUP6 PUSH2 0x1A03 ADDRESS PUSH2 0x1E2C JUMP JUMPDEST PUSH1 0x40 MLOAD PUSH1 0x1 PUSH1 0x1 PUSH1 0xE0 SHL SUB NOT PUSH1 0xE0 DUP6 SWAP1 SHL AND DUP2 MSTORE PUSH2 0x1A30 SWAP3 SWAP2 SWAP1 CALLER SWAP1 PUSH4 0x5AC4B36F PUSH1 0xE1 SHL SWAP1 PUSH1 0x4 ADD PUSH2 0x31E0 JUMP JUMPDEST PUSH1 0x20 PUSH1 0x40 MLOAD DUP1 DUP4 SUB DUP2 DUP7 GAS DELEGATECALL ISZERO DUP1 ISZERO PUSH2 0x1A4D JUMPI RETURNDATASIZE PUSH1 0x0 DUP1 RETURNDATACOPY RETURNDATASIZE PUSH1 0x0 REVERT JUMPDEST POP POP POP POP PUSH1 0x40 MLOAD RETURNDATASIZE PUSH1 0x1F NOT PUSH1 0x1F DUP3 ADD AND DUP3 ADD DUP1 PUSH1 0x40 MSTORE POP DUP2 ADD SWAP1 PUSH2 0x1A71 SWAP2 SWAP1 PUSH2 0x315B JUMP JUMPDEST PUSH2 0x1ABD JUMPI PUSH1 0x40 MLOAD PUSH3 0x461BCD PUSH1 0xE5 SHL DUP2 MSTORE PUSH1 0x20 PUSH1 0x4 DUP3 ADD MSTORE PUSH1 0x1F PUSH1 0x24 DUP3 ADD MSTORE PUSH32 0x52656D6F7665436F6E7465787446756E63204163636573732044656E69656400 PUSH1 0x44 DUP3 ADD MSTORE PUSH1 0x64 ADD PUSH2 0x420 JUMP JUMPDEST DUP3 PUSH2 0x1AC7 ADDRESS PUSH2 0x1E2C JUMP JUMPDEST SUB PUSH2 0x1B14 JUMPI PUSH1 0x40 MLOAD PUSH3 0x461BCD PUSH1 0xE5 SHL DUP2 MSTORE PUSH1 0x20 PUSH1 0x4 DUP3 ADD MSTORE PUSH1 0x1A PUSH1 0x24 DUP3 ADD MSTORE PUSH32 0x496C6C6567616C2052656D6F76652041434C20436F6E74657874000000000000 PUSH1 0x44 DUP3 ADD MSTORE PUSH1 0x64 ADD PUSH2 0x420 JUMP JUMPDEST PUSH1 0x0 DUP4 DUP2 MSTORE PUSH1 0x1 DUP1 DUP7 ADD PUSH1 0x20 MSTORE PUSH1 0x40 SWAP1 SWAP2 KECCAK256 ADD SLOAD PUSH1 0x1 PUSH1 0x1 PUSH1 0xA0 SHL SUB AND PUSH2 0x1B4D JUMPI PUSH1 0x40 MLOAD PUSH3 0x461BCD PUSH1 0xE5 SHL DUP2 MSTORE PUSH1 0x4 ADD PUSH2 0x420 SWAP1 PUSH2 0x322B JUMP JUMPDEST PUSH1 0x0 DUP4 DUP2 MSTORE PUSH1 0x1 DUP6 ADD PUSH1 0x20 MSTORE PUSH1 0x40 SWAP1 KECCAK256 PUSH2 0x1B74 SWAP1 PUSH1 0x3 ADD PUSH1 0x1 PUSH1 0x1 PUSH1 0xE0 SHL SUB NOT DUP5 AND PUSH2 0x298E JUMP JUMPDEST PUSH2 0x1B90 JUMPI PUSH1 0x40 MLOAD PUSH3 0x461BCD PUSH1 0xE5 SHL DUP2 MSTORE PUSH1 0x4 ADD PUSH2 0x420 SWAP1 PUSH2 0x32DB JUMP JUMPDEST PUSH1 0x0 DUP4 DUP2 MSTORE PUSH1 0x1 DUP1 DUP7 ADD PUSH1 0x20 DUP2 DUP2 MSTORE PUSH1 0x40 DUP1 DUP6 KECCAK256 PUSH1 0x1 PUSH1 0x1 PUSH1 0xE0 SHL SUB NOT DUP9 AND DUP1 DUP8 MSTORE PUSH1 0x2 DUP3 ADD DUP5 MSTORE SWAP2 DUP7 KECCAK256 DUP7 DUP2 SSTORE SWAP1 SWAP5 ADD DUP1 SLOAD PUSH1 0xFF NOT AND SWAP1 SSTORE SWAP4 DUP8 SWAP1 MSTORE MSTORE PUSH2 0x1BDD SWAP2 PUSH1 0x3 SWAP1 SWAP2 ADD SWAP1 PUSH2 0x2982 JUMP JUMPDEST POP POP POP PUSH1 0x0 SWAP1 DUP2 MSTORE PUSH1 0x1 SWAP2 SWAP1 SWAP2 ADD PUSH1 0x20 MSTORE PUSH1 0x40 SWAP1 KECCAK256 SLOAD SWAP1 JUMP JUMPDEST PUSH1 0x40 MLOAD PUSH18 0x1310DBDB9D195E1D13585B9859D95B595B9D PUSH1 0x72 SHL PUSH1 0x20 DUP3 ADD MSTORE PUSH1 0x32 ADD PUSH2 0x889 JUMP JUMPDEST PUSH1 0x0 DUP2 DUP2 MSTORE PUSH1 0x1 DUP1 DUP5 ADD PUSH1 0x20 MSTORE PUSH1 0x40 SWAP1 SWAP2 KECCAK256 ADD SLOAD PUSH1 0x60 SWAP1 PUSH1 0x1 PUSH1 0x1 PUSH1 0xA0 SHL SUB AND PUSH2 0x1C58 JUMPI PUSH1 0x40 MLOAD PUSH3 0x461BCD PUSH1 0xE5 SHL DUP2 MSTORE PUSH1 0x4 ADD PUSH2 0x420 SWAP1 PUSH2 0x322B JUMP JUMPDEST PUSH1 0x0 DUP3 DUP2 MSTORE PUSH1 0x1 DUP5 ADD PUSH1 0x20 MSTORE PUSH1 0x40 DUP2 KECCAK256 PUSH2 0x1C74 SWAP1 PUSH1 0x3 ADD PUSH2 0x29A6 JUMP JUMPDEST PUSH8 0xFFFFFFFFFFFFFFFF DUP2 GT ISZERO PUSH2 0x1C8C JUMPI PUSH2 0x1C8C PUSH2 0x2D21 JUMP JUMPDEST PUSH1 0x40 MLOAD SWAP1 DUP1 DUP3 MSTORE DUP1 PUSH1 0x20 MUL PUSH1 0x20 ADD DUP3 ADD PUSH1 0x40 MSTORE DUP1 ISZERO PUSH2 0x1CB5 JUMPI DUP2 PUSH1 0x20 ADD PUSH1 0x20 DUP3 MUL DUP1 CALLDATASIZE DUP4 CALLDATACOPY ADD SWAP1 POP JUMPDEST POP SWAP1 POP PUSH1 0x0 JUMPDEST PUSH1 0x0 DUP5 DUP2 MSTORE PUSH1 0x1 DUP7 ADD PUSH1 0x20 MSTORE PUSH1 0x40 SWAP1 KECCAK256 PUSH2 0x1CD7 SWAP1 PUSH1 0x3 ADD PUSH2 0x29A6 JUMP JUMPDEST DUP2 PUSH4 0xFFFFFFFF AND LT ISZERO PUSH2 0x1D4D JUMPI PUSH1 0x0 DUP5 DUP2 MSTORE PUSH1 0x1 DUP7 ADD PUSH1 0x20 MSTORE PUSH1 0x40 SWAP1 KECCAK256 PUSH2 0x1D0A SWAP1 PUSH1 0x3 ADD PUSH4 0xFFFFFFFF DUP1 DUP5 AND SWAP1 PUSH2 0x29B0 AND JUMP JUMPDEST DUP3 DUP3 PUSH4 0xFFFFFFFF AND DUP2 MLOAD DUP2 LT PUSH2 0x1D22 JUMPI PUSH2 0x1D22 PUSH2 0x332B JUMP JUMPDEST PUSH1 0x1 PUSH1 0x1 PUSH1 0xE0 SHL SUB NOT SWAP1 SWAP3 AND PUSH1 0x20 SWAP3 DUP4 MUL SWAP2 SWAP1 SWAP2 ADD SWAP1 SWAP2 ADD MSTORE DUP1 PUSH2 0x1D45 DUP2 PUSH2 0x3357 JUMP JUMPDEST SWAP2 POP POP PUSH2 0x1CBB JUMP JUMPDEST POP SWAP4 SWAP3 POP POP POP JUMP JUMPDEST PUSH1 0x0 PUSH2 0x1D66 DUP7 DUP7 DUP7 PUSH1 0x1 DUP8 DUP8 PUSH2 0x2592 JUMP JUMPDEST SWAP7 SWAP6 POP POP POP POP POP POP JUMP JUMPDEST PUSH1 0x0 PUSH2 0x1727 PUSH2 0x1D7D PUSH2 0x29BC JUMP JUMPDEST DUP4 PUSH1 0x40 MLOAD PUSH2 0x1901 PUSH1 0xF0 SHL PUSH1 0x20 DUP3 ADD MSTORE PUSH1 0x22 DUP2 ADD DUP4 SWAP1 MSTORE PUSH1 0x42 DUP2 ADD DUP3 SWAP1 MSTORE PUSH1 0x0 SWAP1 PUSH1 0x62 ADD PUSH1 0x40 MLOAD PUSH1 0x20 DUP2 DUP4 SUB SUB DUP2 MSTORE SWAP1 PUSH1 0x40 MSTORE DUP1 MLOAD SWAP1 PUSH1 0x20 ADD KECCAK256 SWAP1 POP SWAP3 SWAP2 POP POP JUMP JUMPDEST PUSH1 0x0 DUP1 DUP3 MLOAD PUSH1 0x41 SUB PUSH2 0x1DF4 JUMPI PUSH1 0x20 DUP4 ADD MLOAD PUSH1 0x40 DUP5 ADD MLOAD PUSH1 0x60 DUP6 ADD MLOAD PUSH1 0x0 BYTE PUSH2 0x1DE8 DUP8 DUP3 DUP6 DUP6 PUSH2 0x2A8F JUMP JUMPDEST SWAP5 POP SWAP5 POP POP POP POP PUSH2 0x1E25 JUMP JUMPDEST DUP3 MLOAD PUSH1 0x40 SUB PUSH2 0x1E1D JUMPI PUSH1 0x20 DUP4 ADD MLOAD PUSH1 0x40 DUP5 ADD MLOAD PUSH2 0x1E12 DUP7 DUP4 DUP4 PUSH2 0x2B7C JUMP JUMPDEST SWAP4 POP SWAP4 POP POP POP PUSH2 0x1E25 JUMP JUMPDEST POP PUSH1 0x0 SWAP1 POP PUSH1 0x2 JUMPDEST SWAP3 POP SWAP3 SWAP1 POP JUMP JUMPDEST PUSH1 0x40 MLOAD PUSH12 0xFFFFFFFFFFFFFFFFFFFFFFFF NOT PUSH1 0x60 DUP4 SWAP1 SHL AND PUSH1 0x20 DUP3 ADD MSTORE PUSH1 0x0 SWAP1 PUSH1 0x34 ADD PUSH1 0x40 MLOAD PUSH1 0x20 DUP2 DUP4 SUB SUB DUP2 MSTORE SWAP1 PUSH1 0x40 MSTORE DUP1 MLOAD SWAP1 PUSH1 0x20 ADD KECCAK256 SWAP1 POP SWAP2 SWAP1 POP JUMP JUMPDEST PUSH1 0x0 DUP6 DUP2 MSTORE PUSH1 0x1 DUP1 DUP9 ADD PUSH1 0x20 MSTORE PUSH1 0x40 DUP3 KECCAK256 ADD SLOAD PUSH1 0x1 PUSH1 0x1 PUSH1 0xA0 SHL SUB AND DUP1 PUSH2 0x1EA4 JUMPI PUSH1 0x40 MLOAD PUSH3 0x461BCD PUSH1 0xE5 SHL DUP2 MSTORE PUSH1 0x4 ADD PUSH2 0x420 SWAP1 PUSH2 0x322B JUMP JUMPDEST PUSH1 0x1 PUSH1 0x1 PUSH1 0xA0 SHL SUB DUP2 AND CALLER EQ PUSH2 0x1EFC JUMPI PUSH1 0x40 MLOAD PUSH3 0x461BCD PUSH1 0xE5 SHL DUP2 MSTORE PUSH1 0x20 PUSH1 0x4 DUP3 ADD MSTORE PUSH1 0x18 PUSH1 0x24 DUP3 ADD MSTORE PUSH32 0x55706461746520436F6E7465787420466F7262696464656E0000000000000000 PUSH1 0x44 DUP3 ADD MSTORE PUSH1 0x64 ADD PUSH2 0x420 JUMP JUMPDEST PUSH1 0x0 DUP7 DUP2 MSTORE PUSH1 0x3 DUP10 ADD PUSH1 0x20 MSTORE PUSH1 0x40 SWAP1 KECCAK256 DUP1 SLOAD PUSH2 0x1F17 SWAP1 PUSH2 0x3256 JUMP JUMPDEST SWAP1 POP PUSH1 0x0 SUB PUSH2 0x1F38 JUMPI PUSH1 0x40 MLOAD PUSH3 0x461BCD PUSH1 0xE5 SHL DUP2 MSTORE PUSH1 0x4 ADD PUSH2 0x420 SWAP1 PUSH2 0x328A JUMP JUMPDEST PUSH1 0x0 DUP8 DUP2 MSTORE PUSH1 0x1 DUP10 DUP2 ADD PUSH1 0x20 MSTORE PUSH1 0x40 SWAP1 SWAP2 KECCAK256 SWAP1 DUP2 ADD DUP1 SLOAD PUSH1 0xFF PUSH1 0xA0 SHL NOT AND PUSH1 0x1 PUSH1 0xA0 SHL DUP9 ISZERO ISZERO MUL OR SWAP1 SSTORE SLOAD DUP7 EQ PUSH2 0x1FB5 JUMPI PUSH1 0x0 DUP8 DUP2 MSTORE PUSH1 0x1 DUP10 ADD PUSH1 0x20 SWAP1 DUP2 MSTORE PUSH1 0x40 DUP1 DUP4 KECCAK256 SLOAD DUP4 MSTORE PUSH1 0x3 DUP12 ADD SWAP1 SWAP2 MSTORE SWAP1 KECCAK256 PUSH2 0x1F95 SWAP1 PUSH1 0x2 ADD DUP9 PUSH2 0x2982 JUMP JUMPDEST POP PUSH1 0x0 DUP7 DUP2 MSTORE PUSH1 0x3 DUP10 ADD PUSH1 0x20 MSTORE PUSH1 0x40 SWAP1 KECCAK256 PUSH2 0x1FB3 SWAP1 PUSH1 0x2 ADD DUP9 PUSH2 0x296F JUMP JUMPDEST POP JUMPDEST PUSH1 0x0 DUP8 DUP2 MSTORE PUSH1 0x1 DUP10 ADD PUSH1 0x20 MSTORE PUSH1 0x40 DUP2 KECCAK256 DUP8 SWAP1 SSTORE JUMPDEST DUP4 DUP2 LT ISZERO PUSH2 0x2586 JUMPI DUP9 PUSH1 0x2 ADD PUSH1 0x0 DUP7 DUP7 DUP5 DUP2 DUP2 LT PUSH2 0x1FE9 JUMPI PUSH2 0x1FE9 PUSH2 0x332B JUMP JUMPDEST SWAP1 POP PUSH1 0x20 MUL DUP2 ADD SWAP1 PUSH2 0x1FFB SWAP2 SWAP1 PUSH2 0x337A JUMP JUMPDEST CALLDATALOAD DUP2 MSTORE PUSH1 0x20 DUP2 ADD SWAP2 SWAP1 SWAP2 MSTORE PUSH1 0x40 ADD PUSH1 0x0 KECCAK256 DUP1 SLOAD PUSH2 0x2017 SWAP1 PUSH2 0x3256 JUMP JUMPDEST SWAP1 POP PUSH1 0x0 SUB PUSH2 0x2038 JUMPI PUSH1 0x40 MLOAD PUSH3 0x461BCD PUSH1 0xE5 SHL DUP2 MSTORE PUSH1 0x4 ADD PUSH2 0x420 SWAP1 PUSH2 0x32B3 JUMP JUMPDEST PUSH1 0x0 JUMPDEST DUP6 DUP6 DUP4 DUP2 DUP2 LT PUSH2 0x204D JUMPI PUSH2 0x204D PUSH2 0x332B JUMP JUMPDEST SWAP1 POP PUSH1 0x20 MUL DUP2 ADD SWAP1 PUSH2 0x205F SWAP2 SWAP1 PUSH2 0x337A JUMP JUMPDEST PUSH2 0x206D SWAP1 PUSH1 0x20 DUP2 ADD SWAP1 PUSH2 0x339A JUMP JUMPDEST SWAP1 POP DUP2 LT ISZERO PUSH2 0x2573 JUMPI PUSH1 0x1 DUP7 DUP7 DUP5 DUP2 DUP2 LT PUSH2 0x208A JUMPI PUSH2 0x208A PUSH2 0x332B JUMP JUMPDEST SWAP1 POP PUSH1 0x20 MUL DUP2 ADD SWAP1 PUSH2 0x209C SWAP2 SWAP1 PUSH2 0x337A JUMP JUMPDEST PUSH2 0x20AD SWAP1 PUSH1 0x60 DUP2 ADD SWAP1 PUSH1 0x40 ADD PUSH2 0x33E4 JUMP JUMPDEST PUSH1 0x2 DUP2 GT ISZERO PUSH2 0x20BE JUMPI PUSH2 0x20BE PUSH2 0x31CA JUMP JUMPDEST EQ DUP1 PUSH2 0x210F JUMPI POP PUSH1 0x0 DUP7 DUP7 DUP5 DUP2 DUP2 LT PUSH2 0x20D9 JUMPI PUSH2 0x20D9 PUSH2 0x332B JUMP JUMPDEST SWAP1 POP PUSH1 0x20 MUL DUP2 ADD SWAP1 PUSH2 0x20EB SWAP2 SWAP1 PUSH2 0x337A JUMP JUMPDEST PUSH2 0x20FC SWAP1 PUSH1 0x60 DUP2 ADD SWAP1 PUSH1 0x40 ADD PUSH2 0x33E4 JUMP JUMPDEST PUSH1 0x2 DUP2 GT ISZERO PUSH2 0x210D JUMPI PUSH2 0x210D PUSH2 0x31CA JUMP JUMPDEST EQ JUMPDEST ISZERO PUSH2 0x23C9 JUMPI DUP6 DUP6 DUP4 DUP2 DUP2 LT PUSH2 0x2126 JUMPI PUSH2 0x2126 PUSH2 0x332B JUMP JUMPDEST SWAP1 POP PUSH1 0x20 MUL DUP2 ADD SWAP1 PUSH2 0x2138 SWAP2 SWAP1 PUSH2 0x337A JUMP JUMPDEST PUSH1 0x0 DUP11 DUP2 MSTORE PUSH1 0x1 DUP13 ADD PUSH1 0x20 MSTORE PUSH1 0x40 DUP2 KECCAK256 SWAP2 CALLDATALOAD SWAP2 PUSH1 0x2 ADD SWAP1 DUP9 DUP9 DUP7 DUP2 DUP2 LT PUSH2 0x2161 JUMPI PUSH2 0x2161 PUSH2 0x332B JUMP JUMPDEST SWAP1 POP PUSH1 0x20 MUL DUP2 ADD SWAP1 PUSH2 0x2173 SWAP2 SWAP1 PUSH2 0x337A JUMP JUMPDEST PUSH2 0x2181 SWAP1 PUSH1 0x20 DUP2 ADD SWAP1 PUSH2 0x339A JUMP JUMPDEST DUP6 DUP2 DUP2 LT PUSH2 0x2191 JUMPI PUSH2 0x2191 PUSH2 0x332B JUMP JUMPDEST SWAP1 POP PUSH1 0x20 MUL ADD PUSH1 0x20 DUP2 ADD SWAP1 PUSH2 0x21A6 SWAP2 SWAP1 PUSH2 0x3405 JUMP JUMPDEST PUSH1 0x1 PUSH1 0x1 PUSH1 0xE0 SHL SUB NOT AND DUP2 MSTORE PUSH1 0x20 DUP2 ADD SWAP2 SWAP1 SWAP2 MSTORE PUSH1 0x40 ADD PUSH1 0x0 KECCAK256 SSTORE PUSH1 0x1 DUP7 DUP7 DUP5 DUP2 DUP2 LT PUSH2 0x21D5 JUMPI PUSH2 0x21D5 PUSH2 0x332B JUMP JUMPDEST SWAP1 POP PUSH1 0x20 MUL DUP2 ADD SWAP1 PUSH2 0x21E7 SWAP2 SWAP1 PUSH2 0x337A JUMP JUMPDEST PUSH2 0x21F8 SWAP1 PUSH1 0x60 DUP2 ADD SWAP1 PUSH1 0x40 ADD PUSH2 0x33E4 JUMP JUMPDEST PUSH1 0x2 DUP2 GT ISZERO PUSH2 0x2209 JUMPI PUSH2 0x2209 PUSH2 0x31CA JUMP JUMPDEST EQ PUSH2 0x2215 JUMPI PUSH1 0x2 PUSH2 0x2218 JUMP JUMPDEST PUSH1 0x1 JUMPDEST PUSH1 0x0 DUP11 DUP2 MSTORE PUSH1 0x1 DUP13 ADD PUSH1 0x20 MSTORE PUSH1 0x40 DUP2 KECCAK256 PUSH1 0x2 ADD SWAP1 DUP9 DUP9 DUP7 DUP2 DUP2 LT PUSH2 0x223E JUMPI PUSH2 0x223E PUSH2 0x332B JUMP JUMPDEST SWAP1 POP PUSH1 0x20 MUL DUP2 ADD SWAP1 PUSH2 0x2250 SWAP2 SWAP1 PUSH2 0x337A JUMP JUMPDEST PUSH2 0x225E SWAP1 PUSH1 0x20 DUP2 ADD SWAP1 PUSH2 0x339A JUMP JUMPDEST DUP6 DUP2 DUP2 LT PUSH2 0x226E JUMPI PUSH2 0x226E PUSH2 0x332B JUMP JUMPDEST SWAP1 POP PUSH1 0x20 MUL ADD PUSH1 0x20 DUP2 ADD SWAP1 PUSH2 0x2283 SWAP2 SWAP1 PUSH2 0x3405 JUMP JUMPDEST PUSH1 0x1 PUSH1 0x1 PUSH1 0xE0 SHL SUB NOT AND DUP2 MSTORE PUSH1 0x20 DUP2 ADD SWAP2 SWAP1 SWAP2 MSTORE PUSH1 0x40 ADD PUSH1 0x0 KECCAK256 PUSH1 0x1 SWAP1 DUP2 ADD DUP1 SLOAD SWAP1 SWAP2 PUSH1 0xFF NOT SWAP1 SWAP2 AND SWAP1 DUP4 PUSH1 0x2 DUP2 GT ISZERO PUSH2 0x22BF JUMPI PUSH2 0x22BF PUSH2 0x31CA JUMP JUMPDEST MUL OR SWAP1 SSTORE POP PUSH2 0x2341 DUP7 DUP7 DUP5 DUP2 DUP2 LT PUSH2 0x22D9 JUMPI PUSH2 0x22D9 PUSH2 0x332B JUMP JUMPDEST SWAP1 POP PUSH1 0x20 MUL DUP2 ADD SWAP1 PUSH2 0x22EB SWAP2 SWAP1 PUSH2 0x337A JUMP JUMPDEST PUSH2 0x22F9 SWAP1 PUSH1 0x20 DUP2 ADD SWAP1 PUSH2 0x339A JUMP JUMPDEST DUP4 DUP2 DUP2 LT PUSH2 0x2309 JUMPI PUSH2 0x2309 PUSH2 0x332B JUMP JUMPDEST SWAP1 POP PUSH1 0x20 MUL ADD PUSH1 0x20 DUP2 ADD SWAP1 PUSH2 0x231E SWAP2 SWAP1 PUSH2 0x3405 JUMP JUMPDEST PUSH1 0x0 DUP12 DUP2 MSTORE PUSH1 0x1 DUP14 ADD PUSH1 0x20 MSTORE PUSH1 0x40 SWAP1 KECCAK256 PUSH1 0x3 ADD SWAP1 PUSH1 0x1 PUSH1 0x1 PUSH1 0xE0 SHL SUB NOT AND PUSH2 0x298E JUMP JUMPDEST PUSH2 0x23C4 JUMPI PUSH2 0x23C2 DUP7 DUP7 DUP5 DUP2 DUP2 LT PUSH2 0x235A JUMPI PUSH2 0x235A PUSH2 0x332B JUMP JUMPDEST SWAP1 POP PUSH1 0x20 MUL DUP2 ADD SWAP1 PUSH2 0x236C SWAP2 SWAP1 PUSH2 0x337A JUMP JUMPDEST PUSH2 0x237A SWAP1 PUSH1 0x20 DUP2 ADD SWAP1 PUSH2 0x339A JUMP JUMPDEST DUP4 DUP2 DUP2 LT PUSH2 0x238A JUMPI PUSH2 0x238A PUSH2 0x332B JUMP JUMPDEST SWAP1 POP PUSH1 0x20 MUL ADD PUSH1 0x20 DUP2 ADD SWAP1 PUSH2 0x239F SWAP2 SWAP1 PUSH2 0x3405 JUMP JUMPDEST PUSH1 0x0 DUP12 DUP2 MSTORE PUSH1 0x1 DUP14 ADD PUSH1 0x20 MSTORE PUSH1 0x40 SWAP1 KECCAK256 PUSH1 0x3 ADD SWAP1 PUSH1 0x1 PUSH1 0x1 PUSH1 0xE0 SHL SUB NOT AND PUSH2 0x296F JUMP JUMPDEST POP JUMPDEST PUSH2 0x2561 JUMP JUMPDEST PUSH1 0x0 DUP10 DUP2 MSTORE PUSH1 0x1 DUP12 ADD PUSH1 0x20 MSTORE PUSH1 0x40 DUP2 KECCAK256 PUSH1 0x2 ADD SWAP1 DUP8 DUP8 DUP6 DUP2 DUP2 LT PUSH2 0x23EF JUMPI PUSH2 0x23EF PUSH2 0x332B JUMP JUMPDEST SWAP1 POP PUSH1 0x20 MUL DUP2 ADD SWAP1 PUSH2 0x2401 SWAP2 SWAP1 PUSH2 0x337A JUMP JUMPDEST PUSH2 0x240F SWAP1 PUSH1 0x20 DUP2 ADD SWAP1 PUSH2 0x339A JUMP JUMPDEST DUP5 DUP2 DUP2 LT PUSH2 0x241F JUMPI PUSH2 0x241F PUSH2 0x332B JUMP JUMPDEST SWAP1 POP PUSH1 0x20 MUL ADD PUSH1 0x20 DUP2 ADD SWAP1 PUSH2 0x2434 SWAP2 SWAP1 PUSH2 0x3405 JUMP JUMPDEST PUSH1 0x1 PUSH1 0x1 PUSH1 0xE0 SHL SUB NOT AND DUP2 MSTORE PUSH1 0x20 DUP1 DUP3 ADD SWAP3 SWAP1 SWAP3 MSTORE PUSH1 0x40 SWAP1 DUP2 ADD PUSH1 0x0 SWAP1 DUP2 KECCAK256 DUP2 SWAP1 SSTORE DUP12 DUP2 MSTORE PUSH1 0x1 DUP14 ADD SWAP1 SWAP3 MSTORE DUP2 KECCAK256 PUSH1 0x2 ADD SWAP1 DUP8 DUP8 DUP6 DUP2 DUP2 LT PUSH2 0x2478 JUMPI PUSH2 0x2478 PUSH2 0x332B JUMP JUMPDEST SWAP1 POP PUSH1 0x20 MUL DUP2 ADD SWAP1 PUSH2 0x248A SWAP2 SWAP1 PUSH2 0x337A JUMP JUMPDEST PUSH2 0x2498 SWAP1 PUSH1 0x20 DUP2 ADD SWAP1 PUSH2 0x339A JUMP JUMPDEST DUP5 DUP2 DUP2 LT PUSH2 0x24A8 JUMPI PUSH2 0x24A8 PUSH2 0x332B JUMP JUMPDEST SWAP1 POP PUSH1 0x20 MUL ADD PUSH1 0x20 DUP2 ADD SWAP1 PUSH2 0x24BD SWAP2 SWAP1 PUSH2 0x3405 JUMP JUMPDEST PUSH1 0x1 PUSH1 0x1 PUSH1 0xE0 SHL SUB NOT AND DUP2 MSTORE PUSH1 0x20 DUP2 ADD SWAP2 SWAP1 SWAP2 MSTORE PUSH1 0x40 ADD PUSH1 0x0 KECCAK256 PUSH1 0x1 ADD DUP1 SLOAD PUSH1 0xFF NOT AND SWAP1 SSTORE PUSH2 0x255F DUP7 DUP7 DUP5 DUP2 DUP2 LT PUSH2 0x24F7 JUMPI PUSH2 0x24F7 PUSH2 0x332B JUMP JUMPDEST SWAP1 POP PUSH1 0x20 MUL DUP2 ADD SWAP1 PUSH2 0x2509 SWAP2 SWAP1 PUSH2 0x337A JUMP JUMPDEST PUSH2 0x2517 SWAP1 PUSH1 0x20 DUP2 ADD SWAP1 PUSH2 0x339A JUMP JUMPDEST DUP4 DUP2 DUP2 LT PUSH2 0x2527 JUMPI PUSH2 0x2527 PUSH2 0x332B JUMP JUMPDEST SWAP1 POP PUSH1 0x20 MUL ADD PUSH1 0x20 DUP2 ADD SWAP1 PUSH2 0x253C SWAP2 SWAP1 PUSH2 0x3405 JUMP JUMPDEST PUSH1 0x0 DUP12 DUP2 MSTORE PUSH1 0x1 DUP14 ADD PUSH1 0x20 MSTORE PUSH1 0x40 SWAP1 KECCAK256 PUSH1 0x3 ADD SWAP1 PUSH1 0x1 PUSH1 0x1 PUSH1 0xE0 SHL SUB NOT AND PUSH2 0x2982 JUMP JUMPDEST POP JUMPDEST DUP1 PUSH2 0x256B DUP2 PUSH2 0x3420 JUMP JUMPDEST SWAP2 POP POP PUSH2 0x203B JUMP JUMPDEST POP DUP1 PUSH2 0x257E DUP2 PUSH2 0x3420 JUMP JUMPDEST SWAP2 POP POP PUSH2 0x1FC9 JUMP JUMPDEST POP SWAP8 SWAP7 POP POP POP POP POP POP POP JUMP JUMPDEST PUSH1 0x0 DUP5 DUP2 MSTORE PUSH1 0x3 DUP8 ADD PUSH1 0x20 MSTORE PUSH1 0x40 DUP2 KECCAK256 DUP1 SLOAD PUSH2 0x25AD SWAP1 PUSH2 0x3256 JUMP JUMPDEST SWAP1 POP PUSH1 0x0 SUB PUSH2 0x25CE JUMPI PUSH1 0x40 MLOAD PUSH3 0x461BCD PUSH1 0xE5 SHL DUP2 MSTORE PUSH1 0x4 ADD PUSH2 0x420 SWAP1 PUSH2 0x328A JUMP JUMPDEST PUSH1 0x0 PUSH2 0x25D9 DUP8 PUSH2 0x1E2C JUMP JUMPDEST PUSH1 0x0 DUP2 DUP2 MSTORE PUSH1 0x1 DUP1 DUP12 ADD PUSH1 0x20 MSTORE PUSH1 0x40 SWAP1 SWAP2 KECCAK256 ADD SLOAD SWAP1 SWAP2 POP PUSH1 0x1 PUSH1 0x1 PUSH1 0xA0 SHL SUB AND ISZERO PUSH2 0x2646 JUMPI PUSH1 0x40 MLOAD PUSH3 0x461BCD PUSH1 0xE5 SHL DUP2 MSTORE PUSH1 0x20 PUSH1 0x4 DUP3 ADD MSTORE PUSH1 0x1A PUSH1 0x24 DUP3 ADD MSTORE PUSH32 0x436F6E7465787420416C72656164792052656769737465726564000000000000 PUSH1 0x44 DUP3 ADD MSTORE PUSH1 0x64 ADD PUSH2 0x420 JUMP JUMPDEST PUSH1 0x0 DUP7 DUP2 MSTORE PUSH1 0x3 DUP10 ADD PUSH1 0x20 MSTORE PUSH1 0x40 SWAP1 KECCAK256 PUSH2 0x2663 SWAP1 PUSH1 0x2 ADD DUP3 PUSH2 0x296F JUMP JUMPDEST POP PUSH1 0x0 DUP2 DUP2 MSTORE PUSH1 0x1 DUP1 DUP11 ADD PUSH1 0x20 MSTORE PUSH1 0x40 DUP3 KECCAK256 DUP9 DUP2 SSTORE SWAP1 DUP2 ADD DUP1 SLOAD DUP9 ISZERO ISZERO PUSH1 0x1 PUSH1 0xA0 SHL MUL PUSH1 0x1 PUSH1 0x1 PUSH1 0xA8 SHL SUB NOT SWAP1 SWAP2 AND PUSH1 0x1 PUSH1 0x1 PUSH1 0xA0 SHL SUB DUP13 AND OR OR SWAP1 SSTORE SWAP1 JUMPDEST DUP5 DUP2 LT ISZERO PUSH2 0x2961 JUMPI DUP10 PUSH1 0x2 ADD PUSH1 0x0 DUP8 DUP8 DUP5 DUP2 DUP2 LT PUSH2 0x26C2 JUMPI PUSH2 0x26C2 PUSH2 0x332B JUMP JUMPDEST SWAP1 POP PUSH1 0x20 MUL DUP2 ADD SWAP1 PUSH2 0x26D4 SWAP2 SWAP1 PUSH2 0x337A JUMP JUMPDEST CALLDATALOAD DUP2 MSTORE PUSH1 0x20 DUP2 ADD SWAP2 SWAP1 SWAP2 MSTORE PUSH1 0x40 ADD PUSH1 0x0 KECCAK256 DUP1 SLOAD PUSH2 0x26F0 SWAP1 PUSH2 0x3256 JUMP JUMPDEST SWAP1 POP PUSH1 0x0 SUB PUSH2 0x2711 JUMPI PUSH1 0x40 MLOAD PUSH3 0x461BCD PUSH1 0xE5 SHL DUP2 MSTORE PUSH1 0x4 ADD PUSH2 0x420 SWAP1 PUSH2 0x32B3 JUMP JUMPDEST PUSH1 0x0 JUMPDEST DUP7 DUP7 DUP4 DUP2 DUP2 LT PUSH2 0x2726 JUMPI PUSH2 0x2726 PUSH2 0x332B JUMP JUMPDEST SWAP1 POP PUSH1 0x20 MUL DUP2 ADD SWAP1 PUSH2 0x2738 SWAP2 SWAP1 PUSH2 0x337A JUMP JUMPDEST PUSH2 0x2746 SWAP1 PUSH1 0x20 DUP2 ADD SWAP1 PUSH2 0x339A JUMP JUMPDEST SWAP1 POP DUP2 LT ISZERO PUSH2 0x294E JUMPI DUP7 DUP7 DUP4 DUP2 DUP2 LT PUSH2 0x2761 JUMPI PUSH2 0x2761 PUSH2 0x332B JUMP JUMPDEST SWAP1 POP PUSH1 0x20 MUL DUP2 ADD SWAP1 PUSH2 0x2773 SWAP2 SWAP1 PUSH2 0x337A JUMP JUMPDEST CALLDATALOAD PUSH1 0x2 DUP5 ADD PUSH1 0x0 DUP10 DUP10 DUP7 DUP2 DUP2 LT PUSH2 0x278C JUMPI PUSH2 0x278C PUSH2 0x332B JUMP JUMPDEST SWAP1 POP PUSH1 0x20 MUL DUP2 ADD SWAP1 PUSH2 0x279E SWAP2 SWAP1 PUSH2 0x337A JUMP JUMPDEST PUSH2 0x27AC SWAP1 PUSH1 0x20 DUP2 ADD SWAP1 PUSH2 0x339A JUMP JUMPDEST DUP6 DUP2 DUP2 LT PUSH2 0x27BC JUMPI PUSH2 0x27BC PUSH2 0x332B JUMP JUMPDEST SWAP1 POP PUSH1 0x20 MUL ADD PUSH1 0x20 DUP2 ADD SWAP1 PUSH2 0x27D1 SWAP2 SWAP1 PUSH2 0x3405 JUMP JUMPDEST PUSH1 0x1 PUSH1 0x1 PUSH1 0xE0 SHL SUB NOT AND DUP2 MSTORE PUSH1 0x20 DUP2 ADD SWAP2 SWAP1 SWAP2 MSTORE PUSH1 0x40 ADD PUSH1 0x0 KECCAK256 SSTORE DUP7 DUP7 DUP4 DUP2 DUP2 LT PUSH2 0x27FE JUMPI PUSH2 0x27FE PUSH2 0x332B JUMP JUMPDEST SWAP1 POP PUSH1 0x20 MUL DUP2 ADD SWAP1 PUSH2 0x2810 SWAP2 SWAP1 PUSH2 0x337A JUMP JUMPDEST PUSH2 0x2821 SWAP1 PUSH1 0x60 DUP2 ADD SWAP1 PUSH1 0x40 ADD PUSH2 0x320E JUMP JUMPDEST PUSH2 0x282C JUMPI PUSH1 0x2 PUSH2 0x282F JUMP JUMPDEST PUSH1 0x1 JUMPDEST DUP4 PUSH1 0x2 ADD PUSH1 0x0 DUP10 DUP10 DUP7 DUP2 DUP2 LT PUSH2 0x2847 JUMPI PUSH2 0x2847 PUSH2 0x332B JUMP JUMPDEST SWAP1 POP PUSH1 0x20 MUL DUP2 ADD SWAP1 PUSH2 0x2859 SWAP2 SWAP1 PUSH2 0x337A JUMP JUMPDEST PUSH2 0x2867 SWAP1 PUSH1 0x20 DUP2 ADD SWAP1 PUSH2 0x339A JUMP JUMPDEST DUP6 DUP2 DUP2 LT PUSH2 0x2877 JUMPI PUSH2 0x2877 PUSH2 0x332B JUMP JUMPDEST SWAP1 POP PUSH1 0x20 MUL ADD PUSH1 0x20 DUP2 ADD SWAP1 PUSH2 0x288C SWAP2 SWAP1 PUSH2 0x3405 JUMP JUMPDEST PUSH1 0x1 PUSH1 0x1 PUSH1 0xE0 SHL SUB NOT AND DUP2 MSTORE PUSH1 0x20 DUP2 ADD SWAP2 SWAP1 SWAP2 MSTORE PUSH1 0x40 ADD PUSH1 0x0 KECCAK256 PUSH1 0x1 SWAP1 DUP2 ADD DUP1 SLOAD SWAP1 SWAP2 PUSH1 0xFF NOT SWAP1 SWAP2 AND SWAP1 DUP4 PUSH1 0x2 DUP2 GT ISZERO PUSH2 0x28C8 JUMPI PUSH2 0x28C8 PUSH2 0x31CA JUMP JUMPDEST MUL OR SWAP1 SSTORE POP PUSH2 0x293B DUP8 DUP8 DUP5 DUP2 DUP2 LT PUSH2 0x28E2 JUMPI PUSH2 0x28E2 PUSH2 0x332B JUMP JUMPDEST SWAP1 POP PUSH1 0x20 MUL DUP2 ADD SWAP1 PUSH2 0x28F4 SWAP2 SWAP1 PUSH2 0x337A JUMP JUMPDEST PUSH2 0x2902 SWAP1 PUSH1 0x20 DUP2 ADD SWAP1 PUSH2 0x339A JUMP JUMPDEST DUP4 DUP2 DUP2 LT PUSH2 0x2912 JUMPI PUSH2 0x2912 PUSH2 0x332B JUMP JUMPDEST SWAP1 POP PUSH1 0x20 MUL ADD PUSH1 0x20 DUP2 ADD SWAP1 PUSH2 0x2927 SWAP2 SWAP1 PUSH2 0x3405 JUMP JUMPDEST PUSH1 0x3 DUP6 ADD SWAP1 PUSH1 0x1 PUSH1 0x1 PUSH1 0xE0 SHL SUB NOT AND PUSH2 0x296F JUMP JUMPDEST POP DUP1 PUSH2 0x2946 DUP2 PUSH2 0x3420 JUMP JUMPDEST SWAP2 POP POP PUSH2 0x2714 JUMP JUMPDEST POP DUP1 PUSH2 0x2959 DUP2 PUSH2 0x3420 JUMP JUMPDEST SWAP2 POP POP PUSH2 0x26A2 JUMP JUMPDEST POP SWAP1 SWAP9 SWAP8 POP POP POP POP POP POP POP POP JUMP JUMPDEST PUSH1 0x0 PUSH2 0x297B DUP4 DUP4 PUSH2 0x2BB5 JUMP JUMPDEST SWAP4 SWAP3 POP POP POP JUMP JUMPDEST PUSH1 0x0 PUSH2 0x297B DUP4 DUP4 PUSH2 0x2C04 JUMP JUMPDEST PUSH1 0x0 DUP2 DUP2 MSTORE PUSH1 0x1 DUP4 ADD PUSH1 0x20 MSTORE PUSH1 0x40 DUP2 KECCAK256 SLOAD ISZERO ISZERO PUSH2 0x297B JUMP JUMPDEST PUSH1 0x0 PUSH2 0x1727 DUP3 SLOAD SWAP1 JUMP JUMPDEST PUSH1 0x0 PUSH2 0x297B DUP4 DUP4 PUSH2 0x2CF7 JUMP JUMPDEST PUSH1 0x0 PUSH32 0x8B73C3C69BB8FE3D512ECC4CF759CC79239F7B179B0FFACAA9A75D522B39400F PUSH1 0x40 MLOAD PUSH1 0x20 ADD PUSH2 0x2A07 SWAP1 PUSH18 0x1310DBDB9D195E1D13585B9859D95B595B9D PUSH1 0x72 SHL DUP2 MSTORE PUSH1 0x12 ADD SWAP1 JUMP JUMPDEST PUSH1 0x40 MLOAD PUSH1 0x20 DUP2 DUP4 SUB SUB DUP2 MSTORE SWAP1 PUSH1 0x40 MSTORE DUP1 MLOAD SWAP1 PUSH1 0x20 ADD KECCAK256 PUSH1 0x40 MLOAD PUSH1 0x20 ADD PUSH2 0x2A38 SWAP1 PUSH5 0x312E302E3 PUSH1 0xDC SHL DUP2 MSTORE PUSH1 0x5 ADD SWAP1 JUMP JUMPDEST PUSH1 0x40 DUP1 MLOAD PUSH1 0x1F NOT DUP2 DUP5 SUB ADD DUP2 MSTORE DUP3 DUP3 MSTORE DUP1 MLOAD PUSH1 0x20 SWAP2 DUP3 ADD KECCAK256 SWAP1 DUP4 ADD SWAP5 SWAP1 SWAP5 MSTORE DUP2 ADD SWAP2 SWAP1 SWAP2 MSTORE PUSH1 0x60 DUP2 ADD SWAP2 SWAP1 SWAP2 MSTORE CHAINID PUSH1 0x80 DUP3 ADD MSTORE ADDRESS PUSH1 0xA0 DUP3 ADD MSTORE PUSH1 0xC0 ADD PUSH1 0x40 MLOAD PUSH1 0x20 DUP2 DUP4 SUB SUB DUP2 MSTORE SWAP1 PUSH1 0x40 MSTORE DUP1 MLOAD SWAP1 PUSH1 0x20 ADD KECCAK256 SWAP1 POP SWAP1 JUMP JUMPDEST PUSH1 0x0 DUP1 PUSH32 0x7FFFFFFFFFFFFFFFFFFFFFFFFFFFFFFF5D576E7357A4501DDFE92F46681B20A0 DUP4 GT ISZERO PUSH2 0x2AC6 JUMPI POP PUSH1 0x0 SWAP1 POP PUSH1 0x3 PUSH2 0x2B73 JUMP JUMPDEST DUP5 PUSH1 0xFF AND PUSH1 0x1B EQ ISZERO DUP1 ISZERO PUSH2 0x2ADE JUMPI POP DUP5 PUSH1 0xFF AND PUSH1 0x1C EQ ISZERO JUMPDEST ISZERO PUSH2 0x2AEF JUMPI POP PUSH1 0x0 SWAP1 POP PUSH1 0x4 PUSH2 0x2B73 JUMP JUMPDEST PUSH1 0x40 DUP1 MLOAD PUSH1 0x0 DUP1 DUP3 MSTORE PUSH1 0x20 DUP3 ADD DUP1 DUP5 MSTORE DUP10 SWAP1 MSTORE PUSH1 0xFF DUP9 AND SWAP3 DUP3 ADD SWAP3 SWAP1 SWAP3 MSTORE PUSH1 0x60 DUP2 ADD DUP7 SWAP1 MSTORE PUSH1 0x80 DUP2 ADD DUP6 SWAP1 MSTORE PUSH1 0x1 SWAP1 PUSH1 0xA0 ADD PUSH1 0x20 PUSH1 0x40 MLOAD PUSH1 0x20 DUP2 SUB SWAP1 DUP1 DUP5 SUB SWAP1 DUP6 GAS STATICCALL ISZERO DUP1 ISZERO PUSH2 0x2B43 JUMPI RETURNDATASIZE PUSH1 0x0 DUP1 RETURNDATACOPY RETURNDATASIZE PUSH1 0x0 REVERT JUMPDEST POP POP PUSH1 0x40 MLOAD PUSH1 0x1F NOT ADD MLOAD SWAP2 POP POP PUSH1 0x1 PUSH1 0x1 PUSH1 0xA0 SHL SUB DUP2 AND PUSH2 0x2B6C JUMPI PUSH1 0x0 PUSH1 0x1 SWAP3 POP SWAP3 POP POP PUSH2 0x2B73 JUMP JUMPDEST SWAP2 POP PUSH1 0x0 SWAP1 POP JUMPDEST SWAP5 POP SWAP5 SWAP3 POP POP POP JUMP JUMPDEST PUSH1 0x0 DUP1 PUSH1 0x1 PUSH1 0x1 PUSH1 0xFF SHL SUB DUP4 AND DUP2 PUSH2 0x2B99 PUSH1 0xFF DUP7 SWAP1 SHR PUSH1 0x1B PUSH2 0x3439 JUMP JUMPDEST SWAP1 POP PUSH2 0x2BA7 DUP8 DUP3 DUP9 DUP6 PUSH2 0x2A8F JUMP JUMPDEST SWAP4 POP SWAP4 POP POP POP SWAP4 POP SWAP4 SWAP2 POP POP JUMP JUMPDEST PUSH1 0x0 DUP2 DUP2 MSTORE PUSH1 0x1 DUP4 ADD PUSH1 0x20 MSTORE PUSH1 0x40 DUP2 KECCAK256 SLOAD PUSH2 0x2BFC JUMPI POP DUP2 SLOAD PUSH1 0x1 DUP2 DUP2 ADD DUP5 SSTORE PUSH1 0x0 DUP5 DUP2 MSTORE PUSH1 0x20 DUP1 DUP3 KECCAK256 SWAP1 SWAP4 ADD DUP5 SWAP1 SSTORE DUP5 SLOAD DUP5 DUP3 MSTORE DUP3 DUP7 ADD SWAP1 SWAP4 MSTORE PUSH1 0x40 SWAP1 KECCAK256 SWAP2 SWAP1 SWAP2 SSTORE PUSH2 0x1727 JUMP JUMPDEST POP PUSH1 0x0 PUSH2 0x1727 JUMP JUMPDEST PUSH1 0x0 DUP2 DUP2 MSTORE PUSH1 0x1 DUP4 ADD PUSH1 0x20 MSTORE PUSH1 0x40 DUP2 KECCAK256 SLOAD DUP1 ISZERO PUSH2 0x2CED JUMPI PUSH1 0x0 PUSH2 0x2C28 PUSH1 0x1 DUP4 PUSH2 0x3451 JUMP JUMPDEST DUP6 SLOAD SWAP1 SWAP2 POP PUSH1 0x0 SWAP1 PUSH2 0x2C3C SWAP1 PUSH1 0x1 SWAP1 PUSH2 0x3451 JUMP JUMPDEST SWAP1 POP DUP2 DUP2 EQ PUSH2 0x2CA1 JUMPI PUSH1 0x0 DUP7 PUSH1 0x0 ADD DUP3 DUP2 SLOAD DUP2 LT PUSH2 0x2C5C JUMPI PUSH2 0x2C5C PUSH2 0x332B JUMP JUMPDEST SWAP1 PUSH1 0x0 MSTORE PUSH1 0x20 PUSH1 0x0 KECCAK256 ADD SLOAD SWAP1 POP DUP1 DUP8 PUSH1 0x0 ADD DUP5 DUP2 SLOAD DUP2 LT PUSH2 0x2C7F JUMPI PUSH2 0x2C7F PUSH2 0x332B JUMP JUMPDEST PUSH1 0x0 SWAP2 DUP3 MSTORE PUSH1 0x20 DUP1 DUP4 KECCAK256 SWAP1 SWAP2 ADD SWAP3 SWAP1 SWAP3 SSTORE SWAP2 DUP3 MSTORE PUSH1 0x1 DUP9 ADD SWAP1 MSTORE PUSH1 0x40 SWAP1 KECCAK256 DUP4 SWAP1 SSTORE JUMPDEST DUP6 SLOAD DUP7 SWAP1 DUP1 PUSH2 0x2CB2 JUMPI PUSH2 0x2CB2 PUSH2 0x3468 JUMP JUMPDEST PUSH1 0x1 SWAP1 SUB DUP2 DUP2 SWAP1 PUSH1 0x0 MSTORE PUSH1 0x20 PUSH1 0x0 KECCAK256 ADD PUSH1 0x0 SWAP1 SSTORE SWAP1 SSTORE DUP6 PUSH1 0x1 ADD PUSH1 0x0 DUP7 DUP2 MSTORE PUSH1 0x20 ADD SWAP1 DUP2 MSTORE PUSH1 0x20 ADD PUSH1 0x0 KECCAK256 PUSH1 0x0 SWAP1 SSTORE PUSH1 0x1 SWAP4 POP POP POP POP PUSH2 0x1727 JUMP JUMPDEST PUSH1 0x0 SWAP2 POP POP PUSH2 0x1727 JUMP JUMPDEST PUSH1 0x0 DUP3 PUSH1 0x0 ADD DUP3 DUP2 SLOAD DUP2 LT PUSH2 0x2D0E JUMPI PUSH2 0x2D0E PUSH2 0x332B JUMP JUMPDEST SWAP1 PUSH1 0x0 MSTORE PUSH1 0x20 PUSH1 0x0 KECCAK256 ADD SLOAD SWAP1 POP SWAP3 SWAP2 POP POP JUMP JUMPDEST PUSH4 0x4E487B71 PUSH1 0xE0 SHL PUSH1 0x0 MSTORE PUSH1 0x41 PUSH1 0x4 MSTORE PUSH1 0x24 PUSH1 0x0 REVERT JUMPDEST PUSH1 0x0 DUP3 PUSH1 0x1F DUP4 ADD SLT PUSH2 0x2D48 JUMPI PUSH1 0x0 DUP1 REVERT JUMPDEST DUP2 CALLDATALOAD PUSH8 0xFFFFFFFFFFFFFFFF DUP1 DUP3 GT ISZERO PUSH2 0x2D63 JUMPI PUSH2 0x2D63 PUSH2 0x2D21 JUMP JUMPDEST PUSH1 0x40 MLOAD PUSH1 0x1F DUP4 ADD PUSH1 0x1F NOT SWAP1 DUP2 AND PUSH1 0x3F ADD AND DUP2 ADD SWAP1 DUP3 DUP3 GT DUP2 DUP4 LT OR ISZERO PUSH2 0x2D8B JUMPI PUSH2 0x2D8B PUSH2 0x2D21 JUMP JUMPDEST DUP2 PUSH1 0x40 MSTORE DUP4 DUP2 MSTORE DUP7 PUSH1 0x20 DUP6 DUP9 ADD ADD GT ISZERO PUSH2 0x2DA4 JUMPI PUSH1 0x0 DUP1 REVERT JUMPDEST DUP4 PUSH1 0x20 DUP8 ADD PUSH1 0x20 DUP4 ADD CALLDATACOPY PUSH1 0x0 PUSH1 0x20 DUP6 DUP4 ADD ADD MSTORE DUP1 SWAP5 POP POP POP POP POP SWAP3 SWAP2 POP POP JUMP JUMPDEST PUSH1 0x0 PUSH1 0xA0 DUP3 DUP5 SUB SLT ISZERO PUSH2 0x2DD6 JUMPI PUSH1 0x0 DUP1 REVERT JUMPDEST POP SWAP2 SWAP1 POP JUMP JUMPDEST PUSH1 0x0 DUP1 DUP4 PUSH1 0x1F DUP5 ADD SLT PUSH2 0x2DEE JUMPI PUSH1 0x0 DUP1 REVERT JUMPDEST POP DUP2 CALLDATALOAD PUSH8 0xFFFFFFFFFFFFFFFF DUP2 GT ISZERO PUSH2 0x2E06 JUMPI PUSH1 0x0 DUP1 REVERT JUMPDEST PUSH1 0x20 DUP4 ADD SWAP2 POP DUP4 PUSH1 0x20 DUP3 PUSH1 0x5 SHL DUP6 ADD ADD GT ISZERO PUSH2 0x1E25 JUMPI PUSH1 0x0 DUP1 REVERT JUMPDEST PUSH1 0x0 DUP1 PUSH1 0x0 DUP1 PUSH1 0x0 DUP1 PUSH2 0x120 DUP8 DUP10 SUB SLT ISZERO PUSH2 0x2E3B JUMPI PUSH1 0x0 DUP1 REVERT JUMPDEST DUP7 CALLDATALOAD SWAP6 POP PUSH1 0x20 DUP8 ADD CALLDATALOAD SWAP5 POP PUSH1 0x40 DUP8 ADD CALLDATALOAD PUSH8 0xFFFFFFFFFFFFFFFF DUP1 DUP3 GT ISZERO PUSH2 0x2E61 JUMPI PUSH1 0x0 DUP1 REVERT JUMPDEST PUSH2 0x2E6D DUP11 DUP4 DUP12 ADD PUSH2 0x2D37 JUMP JUMPDEST SWAP6 POP PUSH2 0x2E7C DUP11 PUSH1 0x60 DUP12 ADD PUSH2 0x2DC4 JUMP JUMPDEST SWAP5 POP PUSH2 0x100 DUP10 ADD CALLDATALOAD SWAP2 POP DUP1 DUP3 GT ISZERO PUSH2 0x2E93 JUMPI PUSH1 0x0 DUP1 REVERT JUMPDEST POP PUSH2 0x2EA0 DUP10 DUP3 DUP11 ADD PUSH2 0x2DDC JUMP JUMPDEST SWAP8 SWAP11 SWAP7 SWAP10 POP SWAP5 SWAP8 POP SWAP3 SWAP6 SWAP4 SWAP5 SWAP3 POP POP POP JUMP JUMPDEST PUSH1 0x0 DUP1 PUSH1 0x0 DUP1 PUSH1 0x0 PUSH2 0x100 DUP7 DUP9 SUB SLT ISZERO PUSH2 0x2ECB JUMPI PUSH1 0x0 DUP1 REVERT JUMPDEST DUP6 CALLDATALOAD SWAP5 POP PUSH1 0x20 DUP7 ADD CALLDATALOAD PUSH8 0xFFFFFFFFFFFFFFFF DUP1 DUP3 GT ISZERO PUSH2 0x2EEA JUMPI PUSH1 0x0 DUP1 REVERT JUMPDEST PUSH2 0x2EF6 DUP10 DUP4 DUP11 ADD PUSH2 0x2D37 JUMP JUMPDEST SWAP6 POP PUSH2 0x2F05 DUP10 PUSH1 0x40 DUP11 ADD PUSH2 0x2DC4 JUMP JUMPDEST SWAP5 POP PUSH1 0xE0 DUP9 ADD CALLDATALOAD SWAP2 POP DUP1 DUP3 GT ISZERO PUSH2 0x2F1B JUMPI PUSH1 0x0 DUP1 REVERT JUMPDEST POP PUSH2 0x2F28 DUP9 DUP3 DUP10 ADD PUSH2 0x2DDC JUMP JUMPDEST SWAP7 SWAP10 SWAP6 SWAP9 POP SWAP4 SWAP7 POP SWAP3 SWAP5 SWAP4 SWAP3 POP POP POP JUMP JUMPDEST PUSH1 0x0 DUP1 PUSH1 0x0 PUSH1 0x60 DUP5 DUP7 SUB SLT ISZERO PUSH2 0x2F4E JUMPI PUSH1 0x0 DUP1 REVERT JUMPDEST POP POP DUP2 CALLDATALOAD SWAP4 PUSH1 0x20 DUP4 ADD CALLDATALOAD SWAP4 POP PUSH1 0x40 SWAP1 SWAP3 ADD CALLDATALOAD SWAP2 SWAP1 POP JUMP JUMPDEST DUP1 CALLDATALOAD PUSH1 0x1 PUSH1 0x1 PUSH1 0xE0 SHL SUB NOT DUP2 AND DUP2 EQ PUSH2 0x2F7D JUMPI PUSH1 0x0 DUP1 REVERT JUMPDEST SWAP2 SWAP1 POP JUMP JUMPDEST PUSH1 0x0 DUP1 PUSH1 0x0 DUP1 PUSH1 0x80 DUP6 DUP8 SUB SLT ISZERO PUSH2 0x2F98 JUMPI PUSH1 0x0 DUP1 REVERT JUMPDEST DUP5 CALLDATALOAD SWAP4 POP PUSH1 0x20 DUP6 ADD CALLDATALOAD SWAP3 POP PUSH2 0x2FAF PUSH1 0x40 DUP7 ADD PUSH2 0x2F65 JUMP JUMPDEST SWAP4 SWAP7 SWAP3 SWAP6 POP SWAP3 SWAP4 PUSH1 0x60 ADD CALLDATALOAD SWAP3 POP POP JUMP JUMPDEST PUSH1 0x0 DUP1 PUSH1 0x0 DUP1 PUSH1 0x80 DUP6 DUP8 SUB SLT ISZERO PUSH2 0x2FD5 JUMPI PUSH1 0x0 DUP1 REVERT JUMPDEST DUP5 CALLDATALOAD SWAP4 POP PUSH1 0x20 DUP6 ADD CALLDATALOAD SWAP3 POP PUSH1 0x40 DUP6 ADD CALLDATALOAD SWAP2 POP PUSH2 0x2FF3 PUSH1 0x60 DUP7 ADD PUSH2 0x2F65 JUMP JUMPDEST SWAP1 POP SWAP3 SWAP6 SWAP2 SWAP5 POP SWAP3 POP JUMP JUMPDEST PUSH1 0x0 DUP1 PUSH1 0x40 DUP4 DUP6 SUB SLT ISZERO PUSH2 0x3011 JUMPI PUSH1 0x0 DUP1 REVERT JUMPDEST POP POP DUP1 CALLDATALOAD SWAP3 PUSH1 0x20 SWAP1 SWAP2 ADD CALLDATALOAD SWAP2 POP JUMP JUMPDEST DUP1 ISZERO ISZERO DUP2 EQ PUSH2 0x302E JUMPI PUSH1 0x0 DUP1 REVERT JUMPDEST POP JUMP JUMPDEST PUSH1 0x0 DUP1 PUSH1 0x0 PUSH1 0x60 DUP5 DUP7 SUB SLT ISZERO PUSH2 0x3046 JUMPI PUSH1 0x0 DUP1 REVERT JUMPDEST DUP4 CALLDATALOAD SWAP3 POP PUSH1 0x20 DUP5 ADD CALLDATALOAD SWAP2 POP PUSH1 0x40 DUP5 ADD CALLDATALOAD PUSH2 0x305F DUP2 PUSH2 0x3020 JUMP JUMPDEST DUP1 SWAP2 POP POP SWAP3 POP SWAP3 POP SWAP3 JUMP JUMPDEST PUSH1 0x0 DUP1 PUSH1 0x0 PUSH1 0x60 DUP5 DUP7 SUB SLT ISZERO PUSH2 0x307F JUMPI PUSH1 0x0 DUP1 REVERT JUMPDEST DUP4 CALLDATALOAD SWAP3 POP PUSH1 0x20 DUP5 ADD CALLDATALOAD SWAP2 POP PUSH2 0x3096 PUSH1 0x40 DUP6 ADD PUSH2 0x2F65 JUMP JUMPDEST SWAP1 POP SWAP3 POP SWAP3 POP SWAP3 JUMP JUMPDEST PUSH1 0x20 DUP1 DUP3 MSTORE DUP3 MLOAD DUP3 DUP3 ADD DUP2 SWAP1 MSTORE PUSH1 0x0 SWAP2 SWAP1 DUP5 DUP3 ADD SWAP1 PUSH1 0x40 DUP6 ADD SWAP1 DUP5 JUMPDEST DUP2 DUP2 LT ISZERO PUSH2 0x30E1 JUMPI DUP4 MLOAD PUSH1 0x1 PUSH1 0x1 PUSH1 0xE0 SHL SUB NOT AND DUP4 MSTORE SWAP3 DUP5 ADD SWAP3 SWAP2 DUP5 ADD SWAP2 PUSH1 0x1 ADD PUSH2 0x30BB JUMP JUMPDEST POP SWAP1 SWAP7 SWAP6 POP POP POP POP POP POP JUMP JUMPDEST DUP1 CALLDATALOAD PUSH1 0x1 PUSH1 0x1 PUSH1 0xA0 SHL SUB DUP2 AND DUP2 EQ PUSH2 0x2F7D JUMPI PUSH1 0x0 DUP1 REVERT JUMPDEST PUSH1 0x0 DUP1 PUSH1 0x0 DUP1 PUSH1 0x0 PUSH1 0x80 DUP7 DUP9 SUB SLT ISZERO PUSH2 0x311C JUMPI PUSH1 0x0 DUP1 REVERT JUMPDEST DUP6 CALLDATALOAD SWAP5 POP PUSH2 0x312C PUSH1 0x20 DUP8 ADD PUSH2 0x30ED JUMP JUMPDEST SWAP4 POP PUSH1 0x40 DUP7 ADD CALLDATALOAD SWAP3 POP PUSH1 0x60 DUP7 ADD CALLDATALOAD PUSH8 0xFFFFFFFFFFFFFFFF DUP2 GT ISZERO PUSH2 0x314F JUMPI PUSH1 0x0 DUP1 REVERT JUMPDEST PUSH2 0x2F28 DUP9 DUP3 DUP10 ADD PUSH2 0x2DDC JUMP JUMPDEST PUSH1 0x0 PUSH1 0x20 DUP3 DUP5 SUB SLT ISZERO PUSH2 0x316D JUMPI PUSH1 0x0 DUP1 REVERT JUMPDEST DUP2 MLOAD PUSH2 0x297B DUP2 PUSH2 0x3020 JUMP JUMPDEST PUSH1 0x20 DUP1 DUP3 MSTORE PUSH1 0x17 SWAP1 DUP3 ADD MSTORE PUSH32 0x536166654D6F64653A2043616C6C2052656A6563746564000000000000000000 PUSH1 0x40 DUP3 ADD MSTORE PUSH1 0x60 ADD SWAP1 JUMP JUMPDEST PUSH1 0x0 PUSH1 0x20 DUP3 DUP5 SUB SLT ISZERO PUSH2 0x31C1 JUMPI PUSH1 0x0 DUP1 REVERT JUMPDEST PUSH2 0x297B DUP3 PUSH2 0x30ED JUMP JUMPDEST PUSH4 0x4E487B71 PUSH1 0xE0 SHL PUSH1 0x0 MSTORE PUSH1 0x21 PUSH1 0x4 MSTORE PUSH1 0x24 PUSH1 0x0 REVERT JUMPDEST SWAP4 DUP5 MSTORE PUSH1 0x20 DUP5 ADD SWAP3 SWAP1 SWAP3 MSTORE PUSH1 0x1 PUSH1 0x1 PUSH1 0xA0 SHL SUB AND PUSH1 0x40 DUP4 ADD MSTORE PUSH1 0x1 PUSH1 0x1 PUSH1 0xE0 SHL SUB NOT AND PUSH1 0x60 DUP3 ADD MSTORE PUSH1 0x80 ADD SWAP1 JUMP JUMPDEST PUSH1 0x0 PUSH1 0x20 DUP3 DUP5 SUB SLT ISZERO PUSH2 0x3220 JUMPI PUSH1 0x0 DUP1 REVERT JUMPDEST DUP2 CALLDATALOAD PUSH2 0x297B DUP2 PUSH2 0x3020 JUMP JUMPDEST PUSH1 0x20 DUP1 DUP3 MSTORE PUSH1 0x11 SWAP1 DUP3 ADD MSTORE PUSH17 0x10DBDB9D195E1D08139BDD08119BDD5B99 PUSH1 0x7A SHL PUSH1 0x40 DUP3 ADD MSTORE PUSH1 0x60 ADD SWAP1 JUMP JUMPDEST PUSH1 0x1 DUP2 DUP2 SHR SWAP1 DUP3 AND DUP1 PUSH2 0x326A JUMPI PUSH1 0x7F DUP3 AND SWAP2 POP JUMPDEST PUSH1 0x20 DUP3 LT DUP2 SUB PUSH2 0x2DD6 JUMPI PUSH4 0x4E487B71 PUSH1 0xE0 SHL PUSH1 0x0 MSTORE PUSH1 0x22 PUSH1 0x4 MSTORE PUSH1 0x24 PUSH1 0x0 REVERT JUMPDEST PUSH1 0x20 DUP1 DUP3 MSTORE PUSH1 0xF SWAP1 DUP3 ADD MSTORE PUSH15 0x1499585B1B48139BDD08119BDD5B99 PUSH1 0x8A SHL PUSH1 0x40 DUP3 ADD MSTORE PUSH1 0x60 ADD SWAP1 JUMP JUMPDEST PUSH1 0x20 DUP1 DUP3 MSTORE PUSH1 0xE SWAP1 DUP3 ADD MSTORE PUSH14 0x149BDB1948139BDD08119BDD5B99 PUSH1 0x92 SHL PUSH1 0x40 DUP3 ADD MSTORE PUSH1 0x60 ADD SWAP1 JUMP JUMPDEST PUSH1 0x20 DUP1 DUP3 MSTORE PUSH1 0x1A SWAP1 DUP3 ADD MSTORE PUSH32 0x46756E6374696F6E53656C6563746F72204E6F7420466F756E64000000000000 PUSH1 0x40 DUP3 ADD MSTORE PUSH1 0x60 ADD SWAP1 JUMP JUMPDEST PUSH1 0x0 PUSH1 0x20 DUP3 DUP5 SUB SLT ISZERO PUSH2 0x3324 JUMPI PUSH1 0x0 DUP1 REVERT JUMPDEST POP MLOAD SWAP2 SWAP1 POP JUMP JUMPDEST PUSH4 0x4E487B71 PUSH1 0xE0 SHL PUSH1 0x0 MSTORE PUSH1 0x32 PUSH1 0x4 MSTORE PUSH1 0x24 PUSH1 0x0 REVERT JUMPDEST PUSH4 0x4E487B71 PUSH1 0xE0 SHL PUSH1 0x0 MSTORE PUSH1 0x11 PUSH1 0x4 MSTORE PUSH1 0x24 PUSH1 0x0 REVERT JUMPDEST PUSH1 0x0 PUSH4 0xFFFFFFFF DUP1 DUP4 AND DUP2 DUP2 SUB PUSH2 0x3370 JUMPI PUSH2 0x3370 PUSH2 0x3341 JUMP JUMPDEST PUSH1 0x1 ADD SWAP4 SWAP3 POP POP POP JUMP JUMPDEST PUSH1 0x0 DUP3 CALLDATALOAD PUSH1 0x5E NOT DUP4 CALLDATASIZE SUB ADD DUP2 SLT PUSH2 0x3390 JUMPI PUSH1 0x0 DUP1 REVERT JUMPDEST SWAP2 SWAP1 SWAP2 ADD SWAP3 SWAP2 POP POP JUMP JUMPDEST PUSH1 0x0 DUP1 DUP4 CALLDATALOAD PUSH1 0x1E NOT DUP5 CALLDATASIZE SUB ADD DUP2 SLT PUSH2 0x33B1 JUMPI PUSH1 0x0 DUP1 REVERT JUMPDEST DUP4 ADD DUP1 CALLDATALOAD SWAP2 POP PUSH8 0xFFFFFFFFFFFFFFFF DUP3 GT ISZERO PUSH2 0x33CC JUMPI PUSH1 0x0 DUP1 REVERT JUMPDEST PUSH1 0x20 ADD SWAP2 POP PUSH1 0x5 DUP2 SWAP1 SHL CALLDATASIZE SUB DUP3 SGT ISZERO PUSH2 0x1E25 JUMPI PUSH1 0x0 DUP1 REVERT JUMPDEST PUSH1 0x0 PUSH1 0x20 DUP3 DUP5 SUB SLT ISZERO PUSH2 0x33F6 JUMPI PUSH1 0x0 DUP1 REVERT JUMPDEST DUP2 CALLDATALOAD PUSH1 0x3 DUP2 LT PUSH2 0x297B JUMPI PUSH1 0x0 DUP1 REVERT JUMPDEST PUSH1 0x0 PUSH1 0x20 DUP3 DUP5 SUB SLT ISZERO PUSH2 0x3417 JUMPI PUSH1 0x0 DUP1 REVERT JUMPDEST PUSH2 0x297B DUP3 PUSH2 0x2F65 JUMP JUMPDEST PUSH1 0x0 PUSH1 0x1 DUP3 ADD PUSH2 0x3432 JUMPI PUSH2 0x3432 PUSH2 0x3341 JUMP JUMPDEST POP PUSH1 0x1 ADD SWAP1 JUMP JUMPDEST PUSH1 0x0 DUP3 NOT DUP3 GT ISZERO PUSH2 0x344C JUMPI PUSH2 0x344C PUSH2 0x3341 JUMP JUMPDEST POP ADD SWAP1 JUMP JUMPDEST PUSH1 0x0 DUP3 DUP3 LT ISZERO PUSH2 0x3463 JUMPI PUSH2 0x3463 PUSH2 0x3341 JUMP JUMPDEST POP SUB SWAP1 JUMP JUMPDEST PUSH4 0x4E487B71 PUSH1 0xE0 SHL PUSH1 0x0 MSTORE PUSH1 0x31 PUSH1 0x4 MSTORE PUSH1 0x24 PUSH1 0x0 REVERT INVALID LOG2 PUSH5 0x6970667358 0x22 SLT KECCAK256 MLOAD 0xFB 0xDA DUP8 0xE2 0x26 PUSH32 0x188DB9D9EDC52333930E0D006DBF4276D40EF2B572031B36C864736F6C634300 ADDMOD 0xF STOP CALLER "
    },
    "gasEstimates": {
      "creation": {
        "codeDepositCost": "2698400",
        "executionCost": "2961",
        "totalCost": "2701361"
      },
      "external": {
        "LIB_NAME()": "370",
        "LIB_VERSION()": "383",
        "MESSAGE_TYPEHASH()": "224",
        "TYPE_HASH()": "202",
        "addContextFuncRole(AccessControlStorage.DataMaps storage,bytes32,bytes4,bytes32)": "infinite",
        "getContextFuncs(AccessControlStorage.DataMaps storage,bytes32)": "infinite",
        "getContextInfo(AccessControlStorage.DataMaps storage,bytes32)": "infinite",
        "grantContextRole(AccessControlStorage.DataMaps storage,bytes32,bytes4,bytes32)": "infinite",
        "hasContextRole(AccessControlStorage.DataMaps storage,bytes32,bytes32,bytes4)": "7341",
        "registerAccessControlManagerContext(AccessControlStorage.DataMaps storage,address,bytes32,IContextManagement.RequestRegisterContext[])": "infinite",
        "registerContext(AccessControlStorage.DataMaps storage,bytes,IContextManagement.RequestContext,IContextManagement.RequestRegisterContext[])": "infinite",
        "removeContextFunc(AccessControlStorage.DataMaps storage,bytes32,bytes4)": "infinite",
        "revokeContextRole(AccessControlStorage.DataMaps storage,bytes32,bytes4,bytes32)": "infinite",
        "setContextRealm(AccessControlStorage.DataMaps storage,bytes32,bytes32)": "infinite",
        "setContextStatus(AccessControlStorage.DataMaps storage,bytes32,bool)": "infinite",
        "updateContext(AccessControlStorage.DataMaps storage,bytes32,bytes,IContextManagement.RequestContext,IContextManagement.RequestUpdateContext[])": "infinite"
      },
      "internal": {
        "_domainSeparatorV4()": "infinite",
        "_getMessageHash(address,bytes32,bytes32,bytes32)": "infinite",
        "_hashTypedDataV4(bytes32)": "infinite",
        "_registerContext(struct AccessControlStorage.DataMaps storage pointer,address,bytes32,bool,struct IContextManagement.RequestRegisterContext calldata[] calldata)": "infinite",
        "_updateContext(struct AccessControlStorage.DataMaps storage pointer,bytes32,bytes32,bool,struct IContextManagement.RequestUpdateContext calldata[] calldata)": "infinite"
      }
    },
    "methodIdentifiers": {
      "LIB_NAME()": "bec94751",
      "LIB_VERSION()": "2466209b",
      "MESSAGE_TYPEHASH()": "46e356b1",
      "TYPE_HASH()": "64d4c819",
      "addContextFuncRole(AccessControlStorage.DataMaps storage,bytes32,bytes4,bytes32)": "518bf960",
      "getContextFuncs(AccessControlStorage.DataMaps storage,bytes32)": "ec77eb21",
      "getContextInfo(AccessControlStorage.DataMaps storage,bytes32)": "733ae93e",
      "grantContextRole(AccessControlStorage.DataMaps storage,bytes32,bytes4,bytes32)": "453dd6dc",
      "hasContextRole(AccessControlStorage.DataMaps storage,bytes32,bytes32,bytes4)": "7134bb45",
      "registerAccessControlManagerContext(AccessControlStorage.DataMaps storage,address,bytes32,IContextManagement.RequestRegisterContext[])": "faee6718",
      "registerContext(AccessControlStorage.DataMaps storage,bytes,IContextManagement.RequestContext,IContextManagement.RequestRegisterContext[])": "15922efe",
      "removeContextFunc(AccessControlStorage.DataMaps storage,bytes32,bytes4)": "b0c25575",
      "revokeContextRole(AccessControlStorage.DataMaps storage,bytes32,bytes4,bytes32)": "5acd816a",
      "setContextRealm(AccessControlStorage.DataMaps storage,bytes32,bytes32)": "3e015ef6",
      "setContextStatus(AccessControlStorage.DataMaps storage,bytes32,bool)": "7cc5941d",
      "updateContext(AccessControlStorage.DataMaps storage,bytes32,bytes,IContextManagement.RequestContext,IContextManagement.RequestUpdateContext[])": "099a0c2e"
    }
  },
  "storageLayout": {
    "storage": [],
    "types": null
  },
  "userdoc": {
    "kind": "user",
    "methods": {},
    "version": 1
  }
}