{
  "contractName": "ACLManager",
  "sourceName": "src/contracts/acl/ACLManager.sol",
  "abi": [
    {
      "inputs": [],
      "stateMutability": "nonpayable",
      "type": "constructor"
    },
    {
      "anonymous": false,
      "inputs": [
        {
          "indexed": true,
          "internalType": "address",
          "name": "sender",
          "type": "address"
        },
        {
          "indexed": true,
          "internalType": "address",
          "name": "facetId",
          "type": "address"
        },
        {
          "indexed": false,
          "internalType": "bytes4",
          "name": "selector",
          "type": "bytes4"
        },
        {
          "indexed": false,
          "internalType": "enum IACLCommons.ActionType",
          "name": "action",
          "type": "uint8"
        }
      ],
      "name": "ACLFacetFunctionUpgraded",
      "type": "event"
    },
    {
      "anonymous": false,
      "inputs": [
        {
          "indexed": true,
          "internalType": "address",
          "name": "sender",
          "type": "address"
        },
        {
          "indexed": true,
          "internalType": "address",
          "name": "facetId",
          "type": "address"
        },
        {
          "indexed": true,
          "internalType": "address",
          "name": "subjectId",
          "type": "address"
        },
        {
          "indexed": false,
          "internalType": "bytes4",
          "name": "interfaceId",
          "type": "bytes4"
        }
      ],
      "name": "ACLFacetRegistered",
      "type": "event"
    },
    {
      "anonymous": false,
      "inputs": [
        {
          "indexed": true,
          "internalType": "address",
          "name": "sender",
          "type": "address"
        },
        {
          "indexed": true,
          "internalType": "address",
          "name": "facetId",
          "type": "address"
        },
        {
          "indexed": true,
          "internalType": "address",
          "name": "subjectId",
          "type": "address"
        },
        {
          "indexed": false,
          "internalType": "bytes4",
          "name": "interfaceId",
          "type": "bytes4"
        }
      ],
      "name": "ACLFacetUpgraded",
      "type": "event"
    },
    {
      "anonymous": false,
      "inputs": [
        {
          "indexed": true,
          "internalType": "address",
          "name": "sender",
          "type": "address"
        },
        {
          "indexed": true,
          "internalType": "bytes32",
          "name": "agentId",
          "type": "bytes32"
        },
        {
          "indexed": true,
          "internalType": "bytes32",
          "name": "policyId",
          "type": "bytes32"
        },
        {
          "indexed": false,
          "internalType": "enum IACLCommons.ActionType",
          "name": "action",
          "type": "uint8"
        }
      ],
      "name": "AgentReferredByPolicyUpdated",
      "type": "event"
    },
    {
      "anonymous": false,
      "inputs": [
        {
          "indexed": true,
          "internalType": "address",
          "name": "sender",
          "type": "address"
        },
        {
          "indexed": true,
          "internalType": "bytes32",
          "name": "agentId",
          "type": "bytes32"
        },
        {
          "indexed": true,
          "internalType": "bytes32",
          "name": "scopeId",
          "type": "bytes32"
        },
        {
          "indexed": false,
          "internalType": "enum IACLCommons.ActionType",
          "name": "action",
          "type": "uint8"
        }
      ],
      "name": "AgentReferredByScopeUpdated",
      "type": "event"
    },
    {
      "anonymous": false,
      "inputs": [
        {
          "indexed": true,
          "internalType": "address",
          "name": "sender",
          "type": "address"
        },
        {
          "indexed": true,
          "internalType": "address",
          "name": "proxy",
          "type": "address"
        },
        {
          "indexed": true,
          "internalType": "address",
          "name": "subject",
          "type": "address"
        },
        {
          "indexed": false,
          "internalType": "string",
          "name": "name",
          "type": "string"
        },
        {
          "indexed": false,
          "internalType": "string",
          "name": "version",
          "type": "string"
        },
        {
          "indexed": false,
          "internalType": "uint16",
          "name": "initCount",
          "type": "uint16"
        }
      ],
      "name": "Initialized",
      "type": "event"
    },
    {
      "anonymous": false,
      "inputs": [
        {
          "indexed": true,
          "internalType": "address",
          "name": "sender",
          "type": "address"
        },
        {
          "indexed": true,
          "internalType": "address",
          "name": "proxy",
          "type": "address"
        },
        {
          "indexed": false,
          "internalType": "address",
          "name": "acl",
          "type": "address"
        }
      ],
      "name": "ProxyAccessControlUpdated",
      "type": "event"
    },
    {
      "anonymous": false,
      "inputs": [
        {
          "indexed": true,
          "internalType": "address",
          "name": "sender",
          "type": "address"
        },
        {
          "indexed": true,
          "internalType": "address",
          "name": "proxy",
          "type": "address"
        },
        {
          "indexed": false,
          "internalType": "address",
          "name": "newAdmin",
          "type": "address"
        }
      ],
      "name": "ProxyLocalAdminUpdated",
      "type": "event"
    },
    {
      "anonymous": false,
      "inputs": [
        {
          "indexed": true,
          "internalType": "address",
          "name": "sender",
          "type": "address"
        },
        {
          "indexed": true,
          "internalType": "address",
          "name": "proxy",
          "type": "address"
        },
        {
          "indexed": false,
          "internalType": "enum IBaseProxy.ProxySafeModeStatus",
          "name": "sstat",
          "type": "uint8"
        }
      ],
      "name": "ProxySafeModeUpdated",
      "type": "event"
    },
    {
      "anonymous": false,
      "inputs": [
        {
          "indexed": true,
          "internalType": "address",
          "name": "sender",
          "type": "address"
        },
        {
          "indexed": true,
          "internalType": "address",
          "name": "proxy",
          "type": "address"
        },
        {
          "indexed": false,
          "internalType": "enum IBaseProxy.ProxyUpgradabilityStatus",
          "name": "ustat",
          "type": "uint8"
        }
      ],
      "name": "ProxyUpdatabilityUpdated",
      "type": "event"
    },
    {
      "anonymous": false,
      "inputs": [
        {
          "indexed": true,
          "internalType": "address",
          "name": "sender",
          "type": "address"
        },
        {
          "indexed": true,
          "internalType": "address",
          "name": "proxy",
          "type": "address"
        },
        {
          "indexed": true,
          "internalType": "address",
          "name": "newImplementation",
          "type": "address"
        }
      ],
      "name": "ProxyUpgraded",
      "type": "event"
    },
    {
      "anonymous": false,
      "inputs": [
        {
          "indexed": true,
          "internalType": "address",
          "name": "sender",
          "type": "address"
        },
        {
          "indexed": true,
          "internalType": "bytes32",
          "name": "scopeId",
          "type": "bytes32"
        },
        {
          "indexed": true,
          "internalType": "bytes32",
          "name": "agentId",
          "type": "bytes32"
        },
        {
          "indexed": false,
          "internalType": "enum IACLCommons.ActionType",
          "name": "action",
          "type": "uint8"
        }
      ],
      "name": "ScopeReferredByAgentUpdated",
      "type": "event"
    },
    {
      "anonymous": false,
      "inputs": [
        {
          "indexed": true,
          "internalType": "address",
          "name": "sender",
          "type": "address"
        },
        {
          "indexed": true,
          "internalType": "bytes32",
          "name": "scopeId",
          "type": "bytes32"
        },
        {
          "indexed": true,
          "internalType": "bytes32",
          "name": "policyId",
          "type": "bytes32"
        },
        {
          "indexed": false,
          "internalType": "enum IACLCommons.ActionType",
          "name": "action",
          "type": "uint8"
        }
      ],
      "name": "ScopeReferredByPolicyUpdated",
      "type": "event"
    },
    {
      "stateMutability": "payable",
      "type": "fallback"
    },
    {
      "inputs": [],
      "name": "CTX_MESSAGE_TYPEHASH",
      "outputs": [
        {
          "internalType": "bytes32",
          "name": "",
          "type": "bytes32"
        }
      ],
      "stateMutability": "view",
      "type": "function"
    },
    {
      "inputs": [],
      "name": "FUNCTION_MESSAGE_TYPEHASH",
      "outputs": [
        {
          "internalType": "bytes32",
          "name": "",
          "type": "bytes32"
        }
      ],
      "stateMutability": "view",
      "type": "function"
    },
    {
      "inputs": [],
      "name": "PREDICT_CTX_MESSAGE_TYPEHASH",
      "outputs": [
        {
          "internalType": "bytes32",
          "name": "",
          "type": "bytes32"
        }
      ],
      "stateMutability": "view",
      "type": "function"
    },
    {
      "inputs": [],
      "name": "TYPE_HASH",
      "outputs": [
        {
          "internalType": "bytes32",
          "name": "",
          "type": "bytes32"
        }
      ],
      "stateMutability": "view",
      "type": "function"
    },
    {
      "inputs": [],
      "name": "accessControlManager",
      "outputs": [
        {
          "internalType": "address",
          "name": "",
          "type": "address"
        }
      ],
      "stateMutability": "view",
      "type": "function"
    },
    {
      "inputs": [],
      "name": "aclGetFacets",
      "outputs": [
        {
          "internalType": "address[]",
          "name": "",
          "type": "address[]"
        }
      ],
      "stateMutability": "view",
      "type": "function"
    },
    {
      "inputs": [
        {
          "components": [
            {
              "internalType": "address",
              "name": "facetId",
              "type": "address"
            },
            {
              "internalType": "address",
              "name": "subjectId",
              "type": "address"
            },
            {
              "internalType": "bytes4",
              "name": "interfaceId",
              "type": "bytes4"
            },
            {
              "internalType": "bytes4[]",
              "name": "selectors",
              "type": "bytes4[]"
            }
          ],
          "internalType": "struct IACLManager.FacetRegisterRequest[]",
          "name": "requests",
          "type": "tuple[]"
        }
      ],
      "name": "aclRegisterFacet",
      "outputs": [
        {
          "internalType": "bool",
          "name": "",
          "type": "bool"
        }
      ],
      "stateMutability": "nonpayable",
      "type": "function"
    },
    {
      "inputs": [
        {
          "components": [
            {
              "internalType": "address",
              "name": "facetId",
              "type": "address"
            },
            {
              "internalType": "address",
              "name": "subjectId",
              "type": "address"
            },
            {
              "internalType": "bytes4",
              "name": "interfaceId",
              "type": "bytes4"
            },
            {
              "components": [
                {
                  "internalType": "enum IACLCommons.ActionType",
                  "name": "action",
                  "type": "uint8"
                },
                {
                  "internalType": "bytes4[]",
                  "name": "selectors",
                  "type": "bytes4[]"
                }
              ],
              "internalType": "struct IACLManager.FacetSelectorUpgradeRequest[]",
              "name": "functions",
              "type": "tuple[]"
            }
          ],
          "internalType": "struct IACLManager.FacetUpgradeRequest[]",
          "name": "requests",
          "type": "tuple[]"
        }
      ],
      "name": "aclUpgradeFacet",
      "outputs": [
        {
          "internalType": "bool",
          "name": "",
          "type": "bool"
        }
      ],
      "stateMutability": "nonpayable",
      "type": "function"
    },
    {
      "inputs": [],
      "name": "contractName",
      "outputs": [
        {
          "internalType": "string",
          "name": "",
          "type": "string"
        }
      ],
      "stateMutability": "view",
      "type": "function"
    },
    {
      "inputs": [],
      "name": "contractVersion",
      "outputs": [
        {
          "internalType": "string",
          "name": "",
          "type": "string"
        }
      ],
      "stateMutability": "view",
      "type": "function"
    },
    {
      "inputs": [],
      "name": "domainSeparator",
      "outputs": [
        {
          "internalType": "bytes32",
          "name": "",
          "type": "bytes32"
        }
      ],
      "stateMutability": "view",
      "type": "function"
    },
    {
      "inputs": [],
      "name": "getFirstInit",
      "outputs": [
        {
          "internalType": "bool",
          "name": "",
          "type": "bool"
        }
      ],
      "stateMutability": "view",
      "type": "function"
    },
    {
      "inputs": [],
      "name": "getLibrary",
      "outputs": [
        {
          "internalType": "address",
          "name": "",
          "type": "address"
        }
      ],
      "stateMutability": "pure",
      "type": "function"
    },
    {
      "inputs": [
        {
          "internalType": "address",
          "name": "contextManagerAddress",
          "type": "address"
        },
        {
          "internalType": "address",
          "name": "functionManagerAddress",
          "type": "address"
        },
        {
          "internalType": "address",
          "name": "livelyAdmin",
          "type": "address"
        },
        {
          "internalType": "address",
          "name": "systemAdmin",
          "type": "address"
        }
      ],
      "name": "initACL",
      "outputs": [],
      "stateMutability": "nonpayable",
      "type": "function"
    },
    {
      "inputs": [],
      "name": "initVersion",
      "outputs": [
        {
          "internalType": "uint16",
          "name": "",
          "type": "uint16"
        }
      ],
      "stateMutability": "view",
      "type": "function"
    },
    {
      "inputs": [
        {
          "internalType": "string",
          "name": "contractName",
          "type": "string"
        },
        {
          "internalType": "string",
          "name": "contractVersion",
          "type": "string"
        }
      ],
      "name": "initialize",
      "outputs": [],
      "stateMutability": "nonpayable",
      "type": "function"
    },
    {
      "inputs": [],
      "name": "localAdmin",
      "outputs": [
        {
          "internalType": "address",
          "name": "",
          "type": "address"
        }
      ],
      "stateMutability": "view",
      "type": "function"
    },
    {
      "inputs": [],
      "name": "proxiableUUID",
      "outputs": [
        {
          "internalType": "bytes32",
          "name": "",
          "type": "bytes32"
        }
      ],
      "stateMutability": "view",
      "type": "function"
    },
    {
      "inputs": [],
      "name": "proxyInfo",
      "outputs": [
        {
          "components": [
            {
              "internalType": "bytes32",
              "name": "domainSeparator",
              "type": "bytes32"
            },
            {
              "internalType": "string",
              "name": "name",
              "type": "string"
            },
            {
              "internalType": "string",
              "name": "version",
              "type": "string"
            },
            {
              "internalType": "address",
              "name": "acl",
              "type": "address"
            },
            {
              "internalType": "address",
              "name": "subject",
              "type": "address"
            },
            {
              "internalType": "address",
              "name": "localAdmin",
              "type": "address"
            },
            {
              "internalType": "uint16",
              "name": "initVersion",
              "type": "uint16"
            },
            {
              "internalType": "enum IBaseProxy.ProxySafeModeStatus",
              "name": "sstat",
              "type": "uint8"
            },
            {
              "internalType": "enum IBaseProxy.ProxyUpgradabilityStatus",
              "name": "ustat",
              "type": "uint8"
            }
          ],
          "internalType": "struct IProxy.ProxyInfo",
          "name": "",
          "type": "tuple"
        }
      ],
      "stateMutability": "view",
      "type": "function"
    },
    {
      "inputs": [],
      "name": "safeModeStatus",
      "outputs": [
        {
          "internalType": "enum IBaseProxy.ProxySafeModeStatus",
          "name": "",
          "type": "uint8"
        }
      ],
      "stateMutability": "view",
      "type": "function"
    },
    {
      "inputs": [
        {
          "internalType": "address",
          "name": "acl",
          "type": "address"
        }
      ],
      "name": "setAccessControlManager",
      "outputs": [
        {
          "internalType": "bool",
          "name": "",
          "type": "bool"
        }
      ],
      "stateMutability": "nonpayable",
      "type": "function"
    },
    {
      "inputs": [
        {
          "internalType": "address",
          "name": "newLocalAdmin",
          "type": "address"
        }
      ],
      "name": "setLocalAdmin",
      "outputs": [
        {
          "internalType": "bool",
          "name": "",
          "type": "bool"
        }
      ],
      "stateMutability": "nonpayable",
      "type": "function"
    },
    {
      "inputs": [
        {
          "internalType": "enum IBaseProxy.ProxySafeModeStatus",
          "name": "sstat",
          "type": "uint8"
        }
      ],
      "name": "setSafeModeStatus",
      "outputs": [
        {
          "internalType": "bool",
          "name": "",
          "type": "bool"
        }
      ],
      "stateMutability": "nonpayable",
      "type": "function"
    },
    {
      "inputs": [
        {
          "internalType": "enum IBaseProxy.ProxyUpgradabilityStatus",
          "name": "ustat",
          "type": "uint8"
        }
      ],
      "name": "setUpgradabilityStatus",
      "outputs": [
        {
          "internalType": "bool",
          "name": "",
          "type": "bool"
        }
      ],
      "stateMutability": "nonpayable",
      "type": "function"
    },
    {
      "inputs": [],
      "name": "subjectAddress",
      "outputs": [
        {
          "internalType": "address",
          "name": "",
          "type": "address"
        }
      ],
      "stateMutability": "view",
      "type": "function"
    },
    {
      "inputs": [
        {
          "internalType": "bytes4",
          "name": "interfaceId",
          "type": "bytes4"
        }
      ],
      "name": "supportsInterface",
      "outputs": [
        {
          "internalType": "bool",
          "name": "",
          "type": "bool"
        }
      ],
      "stateMutability": "view",
      "type": "function"
    },
    {
      "inputs": [],
      "name": "upgradabilityStatus",
      "outputs": [
        {
          "internalType": "enum IBaseProxy.ProxyUpgradabilityStatus",
          "name": "",
          "type": "uint8"
        }
      ],
      "stateMutability": "view",
      "type": "function"
    },
    {
      "inputs": [
        {
          "internalType": "address",
          "name": "newImplementation",
          "type": "address"
        },
        {
          "internalType": "bytes",
          "name": "data",
          "type": "bytes"
        },
        {
          "internalType": "bool",
          "name": "forceCall",
          "type": "bool"
        }
      ],
      "name": "upgradeTo",
      "outputs": [
        {
          "internalType": "bytes",
          "name": "",
          "type": "bytes"
        }
      ],
      "stateMutability": "nonpayable",
      "type": "function"
    },
    {
      "inputs": [
        {
          "internalType": "address",
          "name": "recepient",
          "type": "address"
        }
      ],
      "name": "withdrawBalance",
      "outputs": [
        {
          "internalType": "uint256",
          "name": "",
          "type": "uint256"
        }
      ],
      "stateMutability": "nonpayable",
      "type": "function"
    },
    {
      "stateMutability": "payable",
      "type": "receive"
    }
  ],
  "bytecode": "0x60a0604052306080523480156200001557600080fd5b506200004360017f360894a13ba1a3210667c828492db98dca3e2076cc3735a920a3ca505d382bbd62000125565b7f360894a13ba1a3210667c828492db98dca3e2076cc3735a920a3ca505d382bbc146200007457620000746200014d565b620000a160017fb53127684a568b3173ae13b9f8a6016e243e63b6e8ee1178d6a717850b5d610462000125565b60008051602062005f0683398151915214620000c157620000c16200014d565b33620000ea60008051602062005f0683398151915260001b6200012260201b620026721760201c565b80546001600160a01b0319166001600160a01b03929092169190911790556002805461ffff60a01b1916608160a11b17905562000163565b90565b818103818111156200014757634e487b7160e01b600052601160045260246000fd5b92915050565b634e487b7160e01b600052600160045260246000fd5b608051615d09620001fd600039600081816106f801528181610741015281816109fe01528181610a3e01528181610b4601528181610b8601528181610cb401528181610cf401528181611a5101528181611a9101528181611cee01528181611d6f01528181611daf01528181611e6d01528181611ead0152818161233501528181612375015281816124f801526125380152615d096000f3fe6080604052600436106101ae5760003560e01c80637147855d116100eb578063d49e164d1161008f578063f698da2511610061578063f698da2514610554578063f708ceb014610569578063f94a0adb14610589578063fbad36841461059e57005b8063d49e164d146104aa578063d9dc1f19146104cc578063f0b15def146104ec578063f33b6d481461052057005b80637678922e116100c85780637678922e14610428578063a0a8e4601461044f578063a304e35314610464578063b4a0bdf31461048c57005b80637147855d146103c6578063756af45f146103f357806375d0c0dc1461041357005b8063399d6e381161015257806352d1902d1161012f57806352d1902d1461033057806354b8c9881461034557806358dbc45d1461036557806364d4c8191461039257005b8063399d6e38146102d0578063432ae66e146102f05780634cd88b761461031057005b80631f402ac21161018b5780631f402ac21461022e5780632c4b4fff1461024e57806334109de21461026657806338d38c97146102a857005b806301ffc9a7146101b757806303c5a9d8146101ec5780630e32cb861461020e57005b366101b557005b005b3480156101c357600080fd5b506101d76101d2366004614f2d565b6105bd565b60405190151581526020015b60405180910390f35b3480156101f857600080fd5b506102016106db565b6040516101e39190614f48565b34801561021a57600080fd5b506101d7610229366004614fac565b6106ec565b34801561023a57600080fd5b506101d7610249366004615013565b6109f2565b34801561025a57600080fd5b5060435460ff166101d7565b34801561027257600080fd5b5061029a7f7aabe2571874f2a330ea11c8972d9cc3792d973efc6b36e3e29005861a34418881565b6040519081526020016101e3565b3480156102b457600080fd5b506102bd610b2b565b60405161ffff90911681526020016101e3565b3480156102dc57600080fd5b506101d76102eb366004615062565b610b3a565b3480156102fc57600080fd5b506101d761030b366004615013565b610ca8565b34801561031c57600080fd5b506101b561032b3660046150c1565b611a47565b34801561033c57600080fd5b5061029a611ce1565b34801561035157600080fd5b506101b561036036600461512d565b611d65565b34801561037157600080fd5b5061037a611e57565b6040516001600160a01b0390911681526020016101e3565b34801561039e57600080fd5b5061029a7f8b73c3c69bb8fe3d512ecc4cf759cc79239f7b179b0ffacaa9a75d522b39400f81565b3480156103d257600080fd5b506103e66103e13660046151b0565b611e61565b6040516101e391906152d2565b3480156103ff57600080fd5b5061029a61040e366004614fac565b611fbc565b34801561041f57600080fd5b506103e661205e565b34801561043457600080fd5b5073__$c43b1d7058274a71a9734d16e6b6586431$__61037a565b34801561045b57600080fd5b506103e66120f0565b34801561047057600080fd5b50600254600160a01b900460ff165b6040516101e39190615326565b34801561049857600080fd5b506002546001600160a01b031661037a565b3480156104b657600080fd5b506104bf6120ff565b6040516101e39190615339565b3480156104d857600080fd5b506101d76104e7366004614fac565b612329565b3480156104f857600080fd5b5061029a7ffc434588684348dd50856b075c47bed14245c1030aa04c32955af5549981462781565b34801561052c57600080fd5b5061029a7f31238da5536ef05686d34ccf0de000a4926293566b3711f6e73963b73ad026fe81565b34801561056057600080fd5b5061029a6124e2565b34801561057557600080fd5b506101d7610584366004615062565b6124ec565b34801561059557600080fd5b5061037a612668565b3480156105aa57600080fd5b50600254600160a81b900460ff1661047f565b60006001600160e01b03198216637a32793760e01b14806105ee57506001600160e01b03198216635ee4c92f60e11b145b8061060957506001600160e01b031982166316f1515960e21b145b8061062457506001600160e01b031982166374a80b8b60e11b145b8061063f57506001600160e01b03198216632bcf237b60e21b145b8061065a57506001600160e01b0319821663f7da362160e01b145b8061067557506001600160e01b03198216635180e0f960e11b145b8061069057506001600160e01b031982166351eb353f60e01b145b806106ab57506001600160e01b0319821663fa07f5d760e01b145b806106c657506001600160e01b031982166307a5204b60e01b145b806106d557506106d582612675565b92915050565b60606106e7604a6126c5565b905090565b60006001600160a01b037f000000000000000000000000000000000000000000000000000000000000000016300361073f5760405162461bcd60e51b815260040161073690615406565b60405180910390fd5b7f00000000000000000000000000000000000000000000000000000000000000006001600160a01b03166107716126d2565b6001600160a01b0316146107975760405162461bcd60e51b81526004016107369061542c565b336107a06126f3565b6001600160a01b0316146107c65760405162461bcd60e51b815260040161073690615452565b600160028054600160a01b900460ff16908111156107e6576107e66152e5565b146108035760405162461bcd60e51b81526004016107369061547a565b6002808054600160a81b900460ff1690811115610822576108226152e5565b146108605760405162461bcd60e51b815260206004820152600e60248201526d496c6c6567616c2055706461746560901b6044820152606401610736565b6001600160a01b0382166108a85760405162461bcd60e51b815260206004820152600f60248201526e496c6c6567616c204164647265737360881b6044820152606401610736565b6002546001600160a01b0316156108e5576108c963d9dc1f1960e01b61271b565b6108e55760405162461bcd60e51b81526004016107369061549c565b6040516301ffc9a760e01b81526001600160a01b038316906301ffc9a79061091890637a32793760e01b906004016154bf565b602060405180830381865afa158015610935573d6000803e3d6000fd5b505050506040513d601f19601f8201168201806040525081019061095991906154d4565b6109935760405162461bcd60e51b815260206004820152600b60248201526a125b1b1959d85b081050d360aa1b6044820152606401610736565b600280546001600160a01b0319166001600160a01b038416908117909155604051908152309033907f410bf468eebeeed60acaedb904afb2db7c0bb0131f7d14c3714d81b14fe8ed3c906020015b60405180910390a35060015b919050565b60006001600160a01b037f0000000000000000000000000000000000000000000000000000000000000000163003610a3c5760405162461bcd60e51b815260040161073690615406565b7f00000000000000000000000000000000000000000000000000000000000000006001600160a01b0316610a6e6126d2565b6001600160a01b031614610a945760405162461bcd60e51b81526004016107369061542c565b60435460ff1615610adf5733610aa86126f3565b6001600160a01b031614610ace5760405162461bcd60e51b81526004016107369061549c565b610ad88383612907565b90506106d5565b610aef630fa0156160e11b61271b565b610ace5760405162461bcd60e51b815260206004820152600d60248201526c1058d8d95cdcc811195b9a5959609a1b6044820152606401610736565b60006106e7604c5461ffff1690565b60006001600160a01b037f0000000000000000000000000000000000000000000000000000000000000000163003610b845760405162461bcd60e51b815260040161073690615406565b7f00000000000000000000000000000000000000000000000000000000000000006001600160a01b0316610bb66126d2565b6001600160a01b031614610bdc5760405162461bcd60e51b81526004016107369061542c565b600160028054600160a01b900460ff1690811115610bfc57610bfc6152e5565b14610c195760405162461bcd60e51b81526004016107369061547a565b610c29630733adc760e31b61271b565b610c455760405162461bcd60e51b81526004016107369061549c565b6002805483919060ff60a81b1916600160a81b8383811115610c6957610c696152e5565b021790555030336001600160a01b03167ff5912c5e436152157ed2b4a84bc313b4b1fe09a15b941f195d23c99a1b8c45ad846040516109e19190615326565b60006001600160a01b037f0000000000000000000000000000000000000000000000000000000000000000163003610cf25760405162461bcd60e51b815260040161073690615406565b7f00000000000000000000000000000000000000000000000000000000000000006001600160a01b0316610d246126d2565b6001600160a01b031614610d4a5760405162461bcd60e51b81526004016107369061542c565b632195733760e11b610d5b8161271b565b610d775760405162461bcd60e51b81526004016107369061549c565b60005b83811015611a3a57610dbf858583818110610d9757610d976154f1565b9050602002810190610da99190615507565b610db7906020810190614fac565b604a90612acf565b610dfd5760405162461bcd60e51b815260206004820152600f60248201526e119858d95d08139bdd08119bdd5b99608a1b6044820152606401610736565b6000604981878785818110610e1457610e146154f1565b9050602002810190610e269190615507565b610e34906020810190614fac565b6001600160a01b03168152602081019190915260400160009081209150868684818110610e6357610e636154f1565b9050602002810190610e759190615507565b610e86906040810190602001614fac565b6001600160a01b031614158015610edf5750858583818110610eaa57610eaa6154f1565b9050602002810190610ebc9190615507565b610ecd906040810190602001614fac565b81546001600160a01b03908116911614155b610f1d5760405162461bcd60e51b815260206004820152600f60248201526e496c6c6567616c205570677261646560881b6044820152606401610736565b858583818110610f2f57610f2f6154f1565b9050602002810190610f419190615507565b610f52906040810190602001614fac565b81546001600160a01b0319166001600160a01b03919091161781556000868684818110610f8157610f816154f1565b9050602002810190610f939190615507565b610fa4906060810190604001614f2d565b6001600160e01b031916148015906110095750858583818110610fc957610fc96154f1565b9050602002810190610fdb9190615507565b610fec906060810190604001614f2d565b8154600160a01b900460e01b6001600160e01b0319908116911614155b1561117357858583818110611020576110206154f1565b90506020028101906110329190615507565b611040906020810190614fac565b6001600160a01b03166301ffc9a7878785818110611060576110606154f1565b90506020028101906110729190615507565b611083906060810190604001614f2d565b6040518263ffffffff1660e01b815260040161109f91906154bf565b602060405180830381865afa1580156110bc573d6000803e3d6000fd5b505050506040513d601f19601f820116820180604052508101906110e091906154d4565b6111205760405162461bcd60e51b8152602060048201526011602482015270496c6c6567616c20496e7465726661636560781b6044820152606401610736565b858583818110611132576111326154f1565b90506020028101906111449190615507565b611155906060810190604001614f2d565b815460e09190911c600160a01b0263ffffffff60a01b199091161781555b60005b868684818110611188576111886154f1565b905060200281019061119a9190615507565b6111a8906060810190615527565b90508110156119415760028787858181106111c5576111c56154f1565b90506020028101906111d79190615507565b6111e5906060810190615527565b838181106111f5576111f56154f1565b90506020028101906112079190615571565b611215906020810190615062565b6002811115611226576112266152e5565b036115525760005b878785818110611240576112406154f1565b90506020028101906112529190615507565b611260906060810190615527565b83818110611270576112706154f1565b90506020028101906112829190615571565b611290906020810190615527565b905081101561154c5760006048818a8a888181106112b0576112b06154f1565b90506020028101906112c29190615507565b6112d0906060810190615527565b868181106112e0576112e06154f1565b90506020028101906112f29190615571565b611300906020810190615527565b85818110611310576113106154f1565b90506020020160208101906113259190614f2d565b6001600160e01b03191681526020810191909152604001600020546001600160a01b03160361138b5760405162461bcd60e51b815260206004820152601260248201527114d95b1958dd1bdc88139bdd08119bdd5b9960721b6044820152606401610736565b604860008989878181106113a1576113a16154f1565b90506020028101906113b39190615507565b6113c1906060810190615527565b858181106113d1576113d16154f1565b90506020028101906113e39190615571565b6113f1906020810190615527565b84818110611401576114016154f1565b90506020020160208101906114169190614f2d565b6001600160e01b0319168152602081019190915260400160002080546001600160a01b0319169055878785818110611450576114506154f1565b90506020028101906114629190615507565b611470906020810190614fac565b6001600160a01b0316337f9ce5bd496043667ec2a3f3ed9b7966ae36677dd0b6a42eef782c66c6fa2489638a8a888181106114ad576114ad6154f1565b90506020028101906114bf9190615507565b6114cd906060810190615527565b868181106114dd576114dd6154f1565b90506020028101906114ef9190615571565b6114fd906020810190615527565b8581811061150d5761150d6154f1565b90506020020160208101906115229190614f2d565b6002604051611532929190615587565b60405180910390a380611544816155c4565b91505061122e565b5061192f565b6000878785818110611566576115666154f1565b90506020028101906115789190615507565b611586906060810190615527565b83818110611596576115966154f1565b90506020028101906115a89190615571565b6115b6906020810190615062565b60028111156115c7576115c76152e5565b0361192f5760005b8787858181106115e1576115e16154f1565b90506020028101906115f39190615507565b611601906060810190615527565b83818110611611576116116154f1565b90506020028101906116239190615571565b611631906020810190615527565b905081101561192d5760006048818a8a88818110611651576116516154f1565b90506020028101906116639190615507565b611671906060810190615527565b86818110611681576116816154f1565b90506020028101906116939190615571565b6116a1906020810190615527565b858181106116b1576116b16154f1565b90506020020160208101906116c69190614f2d565b6001600160e01b03191681526020810191909152604001600020546001600160a01b03161461172a5760405162461bcd60e51b815260206004820152601060248201526f24b63632b3b0b61029b2b632b1ba37b960811b6044820152606401610736565b87878581811061173c5761173c6154f1565b905060200281019061174e9190615507565b61175c906020810190614fac565b604860008a8a88818110611772576117726154f1565b90506020028101906117849190615507565b611792906060810190615527565b868181106117a2576117a26154f1565b90506020028101906117b49190615571565b6117c2906020810190615527565b858181106117d2576117d26154f1565b90506020020160208101906117e79190614f2d565b6001600160e01b0319168152602081019190915260400160002080546001600160a01b0319166001600160a01b0392909216919091179055878785818110611831576118316154f1565b90506020028101906118439190615507565b611851906020810190614fac565b6001600160a01b0316337f9ce5bd496043667ec2a3f3ed9b7966ae36677dd0b6a42eef782c66c6fa2489638a8a8881811061188e5761188e6154f1565b90506020028101906118a09190615507565b6118ae906060810190615527565b868181106118be576118be6154f1565b90506020028101906118d09190615571565b6118de906020810190615527565b858181106118ee576118ee6154f1565b90506020020160208101906119039190614f2d565b6000604051611913929190615587565b60405180910390a380611925816155c4565b9150506115cf565b505b80611939816155c4565b915050611176565b50858583818110611954576119546154f1565b90506020028101906119669190615507565b611977906040810190602001614fac565b6001600160a01b0316868684818110611992576119926154f1565b90506020028101906119a49190615507565b6119b2906020810190614fac565b6001600160a01b0316337fa95a243b8cfdb38c19f4bd2555bae013e874dc4dabfbc1b83a0769ef6b50332e8989878181106119ef576119ef6154f1565b9050602002810190611a019190615507565b611a12906060810190604001614f2d565b604051611a1f91906154bf565b60405180910390a45080611a32816155c4565b915050610d7a565b50600191505b5092915050565b6001600160a01b037f0000000000000000000000000000000000000000000000000000000000000000163003611a8f5760405162461bcd60e51b815260040161073690615406565b7f00000000000000000000000000000000000000000000000000000000000000006001600160a01b0316611ac16126d2565b6001600160a01b031614611ae75760405162461bcd60e51b81526004016107369061542c565b33611af06126f3565b6001600160a01b031614611b165760405162461bcd60e51b815260040161073690615452565b604c5462010000900460ff1615808015611b385750604c54600161ffff909116105b80611b535750303b158015611b535750604c5461ffff166001145b611b9f5760405162461bcd60e51b815260206004820152601c60248201527f436f6e747261637420416c726561647920496e697469616c697a6564000000006044820152606401610736565b604c805461ffff191660011790558015611bc557604c805462ff00001916620100001790555b73__$c43b1d7058274a71a9734d16e6b6586431$__638439d9ba6044611be96126d2565b6040516001600160e01b031960e085901b16815260048101929092526001600160a01b0316602482015260440160006040518083038186803b158015611c2e57600080fd5b505af4158015611c42573d6000803e3d6000fd5b50505050611c538585858530612af1565b6043805460ff19166001179055611c686126d2565b6001600160a01b031630336001600160a01b03167f247ab7b17ee489fa140c6666edc3822eefed2727610cd6e37192462b87244c6088888888611cae604c5461ffff1690565b604051611cbf959493929190615606565b60405180910390a48015611cda57604c805462ff0000191690555b5050505050565b6000306001600160a01b037f00000000000000000000000000000000000000000000000000000000000000001614611d525760405162461bcd60e51b8152602060048201526014602482015273125b1b1959d85b0811195b1959d85d1958d85b1b60621b6044820152606401610736565b50600080516020615ba283398151915290565b6001600160a01b037f0000000000000000000000000000000000000000000000000000000000000000163003611dad5760405162461bcd60e51b815260040161073690615406565b7f00000000000000000000000000000000000000000000000000000000000000006001600160a01b0316611ddf6126d2565b6001600160a01b031614611e055760405162461bcd60e51b81526004016107369061542c565b33611e0e6126f3565b6001600160a01b031614611e345760405162461bcd60e51b815260040161073690615452565b611e3e8282612afe565b611e518484611e4c85613a72565b613ab2565b50505050565b60006106e76126d2565b60606001600160a01b037f0000000000000000000000000000000000000000000000000000000000000000163003611eab5760405162461bcd60e51b815260040161073690615406565b7f00000000000000000000000000000000000000000000000000000000000000006001600160a01b0316611edd6126d2565b6001600160a01b031614611f035760405162461bcd60e51b81526004016107369061542c565b600160028054600160a01b900460ff1690811115611f2357611f236152e5565b14611f405760405162461bcd60e51b81526004016107369061547a565b6002808054600160a81b900460ff1690811115611f5f57611f5f6152e5565b14611f9e5760405162461bcd60e51b815260206004820152600f60248201526e496c6c6567616c205570677261646560881b6044820152606401610736565b611fa7846140d4565b611fb2848484614155565b90505b9392505050565b6000600160028054600160a01b900460ff1690811115611fde57611fde6152e5565b14611ffb5760405162461bcd60e51b81526004016107369061547a565b61200b63756af45f60e01b61271b565b6120275760405162461bcd60e51b81526004016107369061549c565b60405147906001600160a01b038416904780156108fc02916000818181858888f19350505050158015611a40573d6000803e3d6000fd5b60606000805461206d90615644565b80601f016020809104026020016040519081016040528092919081815260200182805461209990615644565b80156120e65780601f106120bb576101008083540402835291602001916120e6565b820191906000526020600020905b8154815290600101906020018083116120c957829003601f168201915b5050505050905090565b60606001805461206d90615644565b61214e604080516101208101825260008082526060602083018190529282018390529181018290526080810182905260a0810182905260c081018290529060e082019081526020016000905290565b604051806101200160405280612162614311565b81526020016000805461217490615644565b80601f01602080910402602001604051908101604052809291908181526020018280546121a090615644565b80156121ed5780601f106121c2576101008083540402835291602001916121ed565b820191906000526020600020905b8154815290600101906020018083116121d057829003601f168201915b505050505081526020016001805461220490615644565b80601f016020809104026020016040519081016040528092919081815260200182805461223090615644565b801561227d5780601f106122525761010080835404028352916020019161227d565b820191906000526020600020905b81548152906001019060200180831161226057829003601f168201915b50505091835250506002546001600160a01b031660208201526040016122a16126d2565b6001600160a01b031681526020016122b76126f3565b6001600160a01b031681526020016122d2604c5461ffff1690565b61ffff168152602001600260149054906101000a900460ff1660028111156122fc576122fc6152e5565b8152602001600260159054906101000a900460ff166002811115612322576123226152e5565b9052919050565b60006001600160a01b037f00000000000000000000000000000000000000000000000000000000000000001630036123735760405162461bcd60e51b815260040161073690615406565b7f00000000000000000000000000000000000000000000000000000000000000006001600160a01b03166123a56126d2565b6001600160a01b0316146123cb5760405162461bcd60e51b81526004016107369061542c565b600160028054600160a01b900460ff16908111156123eb576123eb6152e5565b146124085760405162461bcd60e51b81526004016107369061547a565b6002808054600160a81b900460ff1690811115612427576124276152e5565b146124655760405162461bcd60e51b815260206004820152600e60248201526d496c6c6567616c2055706461746560901b6044820152606401610736565b61247563d9dc1f1960e01b61271b565b6124915760405162461bcd60e51b81526004016107369061549c565b6001600160a01b0382166124d15760405162461bcd60e51b8152602060048201526007602482015266125b9d985b1a5960ca1b6044820152606401610736565b6124da826143c5565b506001919050565b60006106e7614311565b60006001600160a01b037f00000000000000000000000000000000000000000000000000000000000000001630036125365760405162461bcd60e51b815260040161073690615406565b7f00000000000000000000000000000000000000000000000000000000000000006001600160a01b03166125686126d2565b6001600160a01b03161461258e5760405162461bcd60e51b81526004016107369061542c565b600061259d604c5461ffff1690565b61ffff16116125d95760405162461bcd60e51b81526020600482015260086024820152671393d5081253925560c21b6044820152606401610736565b6125e9630f708ceb60e41b61271b565b6126055760405162461bcd60e51b81526004016107369061549c565b6002805483919060ff60a01b1916600160a01b8383811115612629576126296152e5565b021790555030336001600160a01b03167fc08ec585c25f1907baaab6f278c5994531a2e34c59935b3fcfe813067a3b4878846040516109e19190615326565b60006106e76126f3565b90565b60006001600160e01b031982166327d8f1fd60e21b14806126a657506001600160e01b031982166352d1902d60e01b145b806106d557506301ffc9a760e01b6001600160e01b03198316146106d5565b60606000611fb58361443c565b6000600080516020615ba28339815191525b546001600160a01b0316919050565b60007fb53127684a568b3173ae13b9f8a6016e243e63b6e8ee1178d6a717850b5d61036126e4565b6002546000906001600160a01b0316300361288c576040805160048152602481019091526020810180516001600160e01b0316632c4b4fff60e01b17905260006127916127666126d2565b836040518060400160405280600c81526020016b1110d85b1b0811985a5b195960a21b815250614498565b905080600182516127a2919061567e565b815181106127b2576127b26154f1565b016020015160f81c6001036127cb575060009392505050565b6317897ab960e11b30856127de33613a72565b6040516024016127f093929190615691565b60408051601f198184030181529190526020810180516001600160e01b03166001600160e01b031990931692909217909152915061285761282f6126d2565b83604051806040016040528060098152602001682337b93134b23232b760b91b815250614498565b90508060018251612868919061567e565b81518110612878576128786154f1565b60209101015160f81c600114949350505050565b6002546001600160a01b0316632f12f57230846128a833613a72565b6040518463ffffffff1660e01b81526004016128c693929190615691565b602060405180830381865afa1580156128e3573d6000803e3d6000fd5b505050506040513d601f19601f820116820180604052508101906106d591906154d4565b6000805b82811015612aa95773__$c43b1d7058274a71a9734d16e6b6586431$__6359c893fc6044868685818110612941576129416154f1565b90506020028101906129539190615507565b6040518363ffffffff1660e01b8152600401612970929190615704565b602060405180830381865af415801561298d573d6000803e3d6000fd5b505050506040513d601f19601f820116820180604052508101906129b191906154d4565b508383828181106129c4576129c46154f1565b90506020028101906129d69190615507565b6129e7906040810190602001614fac565b6001600160a01b0316848483818110612a0257612a026154f1565b9050602002810190612a149190615507565b612a22906020810190614fac565b6001600160a01b0316337f4bbc396cec9c30168738b02b4fce7eb9546ab2c23c1dcdb52bd556a8e16a128e878786818110612a5f57612a5f6154f1565b9050602002810190612a719190615507565b612a82906060810190604001614f2d565b604051612a8f91906154bf565b60405180910390a480612aa1816155c4565b91505061290b565b50600b612ab6604a614566565b10612ac6576043805460ff191690555b50600192915050565b6001600160a01b03811660009081526001830160205260408120541515611fb5565b611cda8585858585614570565b6000612b38604051602001612b12906157b2565b60405160208183030381529060405280519060200120604461472d90919063ffffffff16565b90506040518060400160405280602081526020017f4c4956454c595f56455253455f4c4956454c595f474c4f42414c5f53434f5045815250816003019081612b80919061582a565b5060028101805461ffff191661ffff17905560018101805468ffff00000000ffffff191668ffff00000000020405179055604051600080516020615bc28339815191526020820152603f0160408051808303601f190181529082905280516020918201208355600080516020615bc283398151915290820152600090612c2a90603f015b6040516020818303038152906040528051906020012060446147d390919063ffffffff16565b90506040518060400160405280601f8152602001600080516020615bc2833981519152815250816003019081612c60919061582a565b5060048101805461ffff19166003179055604051612c80906020016157b2565b60408051601f198184030181529082905280516020918201206002840155612ca891016158ea565b60408051601f19818403018152908290528051602091820120835560018301805468ffff00000000ffffff191668ffff00000000020403179055612d1891612cf091016158ea565b604051602081830303815290604052805190602001208260060161487590919063ffffffff16565b506000612d53604051602001612d2d906158ea565b60405160208183030381529060405280519060200120604461488190919063ffffffff16565b9050604051806060016040528060258152602001615c6f602591396004820190612d7d908261582a565b50604051602001612d8d906157b2565b60408051601f1981840301815282825280516020918201206002850155600080516020615bc2833981519152818401528151601f818503018152603f84019092528151910120600383015560058201805463ffffffff1916600717905560018201805468ffff00000000ffffff1916670700000000020402179055612e1490605f016158ea565b60408051601f19818403018152919052805160209091012081556000612e3986613a72565b90506000612e48604483614926565b6002810180546001600160a01b038a166001600160b01b03199091161761ffff60a01b179055604051909150612e80906020016158ea565b60408051601f19818403018152908290528051602091820120835560018301805462ffffff191662020401179055600080516020615bc283398151915290820152612ef190603f015b604051602081830303815290604052805190602001208260030161487590919063ffffffff16565b50604051600080516020615c4f8339815191526020820152612f1590603e01612ec9565b50604051600080516020615c948339815191526020820152612f3990603e01612ec9565b50604051600080516020615cb48339815191526020820152612f5d90603f01612ec9565b50604051602001612f6d906158ea565b60408051808303601f190181528282528051602091820120600086815260058901835292832055600080516020615b828339815191529083015290612fb490603f01612c04565b90506040518060400160405280601f8152602001600080516020615b82833981519152815250816003019081612fea919061582a565b5060048101805461ffff191661ffff17905560405161300b906020016157b2565b60408051601f19818403018152908290528051602091820120600284015561303391016158ea565b60408051601f19818403018152908290528051602091820120835560018301805468ffff00000000ffffff191668ffff0000000002040317905561307b91612cf09101615921565b506000613090604051602001612d2d90615921565b9050604051806060016040528060258152602001615b5d6025913960048201906130ba908261582a565b506040516020016130ca906157b2565b60408051601f1981840301815282825280516020918201206002850155600080516020615b82833981519152818401528151601f818503018152603f84019092528151910120600383015560058201805463ffffffff1916600717905560018201805468ffff00000000ffffff191667070000000002040217905561315190605f016158ea565b60408051601f1981840301815291905280516020909101208155600061317689613a72565b90506000613185604483614926565b60028101805461ffff60a01b191661ffff60a01b1790556040519091506131c490612ec990602001600080516020615b828339815191528152601f0190565b50600281018054600160b61b600163ffff000160a01b03199091166001600160a01b038d16171790556040516131fc906020016158ea565b60408051601f19818403018152908290528051602091820120835560018301805462ffffff1916620204011790556132349101615921565b60408051808303601f190181528282528051602091820120600086815260058901835292832055600080516020615c4f833981519152908301529061327b90603e01612c04565b90506040518060400160405280601e8152602001600080516020615c4f8339815191528152508160030190816132b1919061582a565b5060048101805461ffff191660031790556040516132d1906020016157b2565b60408051601f1981840301815290829052805160209182012060028401556132f991016158ea565b60408051601f19818403018152908290528051602091820120835560018301805468ffff00000000ffffff191668ffff0000000002040317905561334191612cf09101615958565b5060405160200161335190615958565b60408051601f19818403018152828252805160209182012060008b815260058601835292832055909161338891612d2d9101615958565b9050604051806060016040528060248152602001615c066024913960048201906133b2908261582a565b506040516020016133c2906157b2565b60408051601f1981840301815282825280516020918201206002850155600080516020615c4f833981519152818401528151601e818503018152603e84019092528151910120600383015560058201805463ffffffff1916600717905560018201805468ffff00000000ffffff191667070000000002040217905561344990605e016158ea565b60408051808303601f190181529082905280516020918201208355600080516020615c948339815191529082015260009061348690603e01612c04565b90506040518060400160405280601e8152602001600080516020615c948339815191528152508160030190816134bc919061582a565b5060048101805461ffff191660031790556040516134dc906020016157b2565b60408051601f19818403018152908290528051602091820120600284015561350491016158ea565b60408051601f19818403018152908290528051602091820120835560018301805468ffff00000000ffffff191668ffff0000000002040317905561354c91612cf0910161598e565b5060405160200161355c9061598e565b60408051601f19818403018152828252805160209182012060008d815260058601835292832055909161359391612d2d910161598e565b9050604051806060016040528060248152602001615be26024913960048201906135bd908261582a565b506040516020016135cd906157b2565b60408051601f1981840301815282825280516020918201206002850155600080516020615c94833981519152818401528151601e818503018152603e84019092528151910120600383015560058201805463ffffffff1916600717905560018201805468ffff00000000ffffff191667070000000002040217905561365490605e016158ea565b60408051808303601f190181529082905280516020918201208355600080516020615cb48339815191529082015260009061369190603f01612c04565b90506040518060400160405280601f8152602001600080516020615cb48339815191528152508160030190816136c7919061582a565b5060048101805461ffff191660031790556040516136e7906020016157b2565b60408051601f19818403018152908290528051602091820120600284015561370f91016158ea565b60408051601f19818403018152908290528051602091820120835560018301805468ffff00000000ffffff191668ffff0000000002040317905561375791612cf091016159c4565b50604051602001613767906159c4565b60408051601f19818403018152828252805160209182012060008f815260058601835292832055909161379e91612d2d91016159c4565b9050604051806060016040528060258152602001615c2a6025913960048201906137c8908261582a565b506040516020016137d8906157b2565b60408051601f1981840301815282825280516020918201206002850155600080516020615cb4833981519152818401528151601f818503018152603f84019092528151910120600383015560058201805463ffffffff1916600717905560018201805468ffff00000000ffffff191667070000000002040217905561385f90605f016158ea565b60408051808303601f1901815290829052805160209182012083557f4c4956454c595f56455253455f414e4f4e594d4f55535f545950450000000000908201526000906138ae90603b01612c04565b90506040518060400160405280601b81526020017f4c4956454c595f56455253455f414e4f4e594d4f55535f5459504500000000008152508160030190816138f6919061582a565b5060048101805461ffff19169055604051613913906020016157b2565b60408051601f19818403018152908290528051602091820120600284015561393b91016158ea565b60408051601f19818403018152908290528051602091820120835560018301805468ffff00000000ffffff191668ffff00000000020403179055744c4956454c595f56455253455f414e595f5459504560581b908201526000906139a190603501612c04565b9050604051806040016040528060158152602001744c4956454c595f56455253455f414e595f5459504560581b8152508160030190816139e1919061582a565b5060048101805461ffff191690556040516139fe906020016157b2565b60408051601f198184030181529082905280516020918201206002840155613a2691016158ea565b60408051601f1981840301815291905280516020909101208155600101805468ffff00000000ffffff191668ffff00000000020403179055505050505050505050505050505050505050565b6040516bffffffffffffffffffffffff19606083901b1660208201526000906034015b604051602081830303815290604052805190602001209050919050565b6000613aea604051806040016040528060158152602001744c4956454c595f56455253455f41434c5f5459504560581b8152506149c7565b90506000613b26604051806040016040528060178152602001762624ab22a62cafab22a929a2afa0a1a62fa227a6a0a4a760491b8152506149c7565b90506000613b356044836149da565b9050604051806040016040528060178152602001762624ab22a62cafab22a929a2afa0a1a62fa227a6a0a4a760491b815250816003019081613b77919061582a565b5060028101805461ffff191660019081179091558101805468ffff00000000ffffff191668ffff000000000204041790558281556040805180820190915260168152754c4956454c595f56455253455f41434c5f5245414c4d60501b6020820152600090613be4906149c7565b9050613c156040518060400160405280600e81526020016d030b1b6102932b0b6369024a21d160951b815250614a80565b613c1e81614ac3565b6000613c2b604483614b08565b9050604051806040016040528060168152602001754c4956454c595f56455253455f41434c5f5245414c4d60501b815250816004019081613c6c919061582a565b5060038101805463ffffffff191660101790556002810184905560018101805468ffff00000000ffffff191668ffff000000000204031790558481556000613cb389613a72565b90506000613cc2604483614bae565b600281018590556003810180546001600160a01b0319166001600160a01b038d1617905560018101805468ffff00000000ffffff191668ffff0000000002040217905587815590506000613d158a613a72565b90506000613d24604483614bae565b600281018790556003810180546001600160a01b0319166001600160a01b038e1617905560018101805468ffff00000000ffffff191668ffff0000000002040217905589815590506000613d7f8d63de9fa79760e01b614c54565b90506000613d8e604483614ca4565b6003810187905560048101805464ffffffffff191664c8de9fa79717905560018101805468ffff00000000ffffff191668ffff000000000204011790558b815560408051600080516020615b828339815191526020808301919091528251601f818403018152603f9092019092528051910120600282015590506000613e1b8e6302d2432960e61b614c54565b90506000613e2a604483614ca4565b6003810189905560048101805464c8b490ca4064ffffffffff1990911617905560018101805468ffff0000000002040168ffff00000000ffffff199091161790558d8155604051600080516020615b828339815191526020820152909150603f0160408051601f1981840301815291905280516020909101206002820155613eb56004880185614875565b50613ec36004860183614875565b50613ed160058a0189614875565b50613edf60058a0187614875565b50613eed60048c018b614875565b5050505050505050506000613f0c8660446147d390919063ffffffff16565b9050604051806040016040528060158152602001744c4956454c595f56455253455f41434c5f5459504560581b815250816003019081613f4c919061582a565b5060048101805461ffff1916600317905560028101859055604051613f73906020016158ea565b60408051601f198184030181528282528051602091820120845560018401805468ffff00000000ffffff191668ffff00000000020403179055828201909152601b82527f4c4956454c595f56455253455f41434c5f41444d494e5f524f4c45000000000090820152600090613fe7906149c7565b90506000613ff6604483614881565b90506040518060400160405280601b81526020017f4c4956454c595f56455253455f41434c5f41444d494e5f524f4c45000000000081525081600401908161403e919061582a565b50600281018790556003810188905560058101805463ffffffff1916600717905560018101805468ffff00000000ffffff191667070000000002040217905560405161408c906020016158ea565b60408051601f19818403018152919052805160209091012081556140b36006840183614875565b50506000978852600590910160205260409096209590955550505050505050565b6140dc6126d2565b6001600160a01b0316816001600160a01b0316036141265760405162461bcd60e51b8152602060048201526007602482015266125b1b1959d85b60ca1b6044820152606401610736565b614136637147855d60e01b61271b565b6141525760405162461bcd60e51b81526004016107369061549c565b50565b60607f4910fdfa16fed3260ed0e7147f7cc6da11a60208b5b9406d12a635614ffd91435460ff161561419f5761418a84614d49565b50604080516000815260208101909152611fb5565b600080516020615ba283398151915260001b846001600160a01b03166352d1902d6040518163ffffffff1660e01b8152600401602060405180830381865afa1580156141ef573d6000803e3d6000fd5b505050506040513d601f19601f8201168201806040525081019061421391906159fb565b1461424f5760405162461bcd60e51b815260206004820152600c60248201526b496c6c6567616c205555505360a01b6044820152606401610736565b6040516301ffc9a760e01b81526001600160a01b038516906301ffc9a790614282906327d8f1fd60e21b906004016154bf565b602060405180830381865afa15801561429f573d6000803e3d6000fd5b505050506040513d601f19601f820116820180604052508101906142c391906154d4565b6142ff5760405162461bcd60e51b815260206004820152600d60248201526c496c6c6567616c2050726f787960981b6044820152606401610736565b61430a848484614dbe565b9050611fb5565b60007f8b73c3c69bb8fe3d512ecc4cf759cc79239f7b179b0ffacaa9a75d522b39400f60006040516020016143469190615a14565b60405160208183030381529060405280519060200120600160405160200161436e9190615a14565b60408051601f1981840301815282825280516020918201209083019490945281019190915260608101919091524660808201523060a082015260c00160405160208183030381529060405280519060200120905090565b7fb53127684a568b3173ae13b9f8a6016e243e63b6e8ee1178d6a717850b5d610380546001600160a01b0383166001600160a01b031990911681179091556040805191825251309133917f63fdbed5f2909ec44e3becc51e9d29654ce1447747914e8a6ebc019e7f640b8b9181900360200190a350565b60608160000180548060200260200160405190810160405280929190818152602001828054801561448c57602002820191906000526020600020905b815481526020019060010190808311614478575b50505050509050919050565b60606001600160a01b0384163b6144f15760405162461bcd60e51b815260206004820152601860248201527f496c6c6567616c20436f6e7472616374204164647265737300000000000000006044820152606401610736565b600080856001600160a01b03168560405161450c9190615a8a565b600060405180830381855af49150503d8060008114614547576040519150601f19603f3d011682016040523d82523d6000602084013e61454c565b606091505b509150915061455c828286614e28565b9695505050505050565b60006106d5825490565b604c5462010000900460ff166145c85760405162461bcd60e51b815260206004820152601960248201527f436f6e7472616374204e6f7420496e697469616c697a696e67000000000000006044820152606401610736565b60006145d5858783615a9c565b5060016145e3838583615a9c565b506001600160a01b03811630146146a7576040516301ffc9a760e01b81526001600160a01b038216906301ffc9a79061462790637a32793760e01b906004016154bf565b602060405180830381865afa158015614644573d6000803e3d6000fd5b505050506040513d601f19601f8201168201806040525081019061466891906154d4565b6146a25760405162461bcd60e51b815260206004820152600b60248201526a125b1b1959d85b081050d360aa1b6044820152606401610736565b6146f3565b6146b7637a32793760e01b6105bd565b6146f35760405162461bcd60e51b815260206004820152600d60248201526c139bdd0814dd5c1c1bdc9d1959609a1b6044820152606401610736565b600280546001600160a01b038316600161ff0160a01b031990911617600160a81b1760ff60a01b1916600160a01b179055611cda336143c5565b6000818152600183016020526040812081600182015460ff166005811115614757576147576152e5565b148061477b57506005600182015460ff166005811115614779576147796152e5565b145b156147985760408051848152600186016020820152209150611a40565b60405162461bcd60e51b815260206004820152601060248201526f125b1b1959d85b0811d2510814db1bdd60821b6044820152606401610736565b600081815260208390526040812081600182015460ff1660038111156147fb576147fb6152e5565b148061481f57506003600182015460ff16600381111561481d5761481d6152e5565b145b1561483a576040805184815260208101869052209150611a40565b60405162461bcd60e51b815260206004820152601060248201526f125b1b1959d85b081512510814db1bdd60821b6044820152606401610736565b6000611fb58383614e61565b600081815260208390526040812081600182015460ff1660038111156148a9576148a96152e5565b14806148cd57506002600182015460ff1660038111156148cb576148cb6152e5565b145b156148e8576040805184815260208101869052209150611a40565b60405162461bcd60e51b8152602060048201526013602482015272125b1b1959d85b08149bdb1952590814db1bdd606a1b6044820152606401610736565b600081815260208390526040812081600182015460ff16600381111561494e5761494e6152e5565b1480614971575060018082015460ff16600381111561496f5761496f6152e5565b145b1561498c576040805184815260208101869052209150611a40565b60405162461bcd60e51b815260206004820152601060248201526f125b1b1959d85b081352510814db1bdd60821b6044820152606401610736565b600081604051602001613a959190615a8a565b6000818152600183016020526040812081600182015460ff166005811115614a0457614a046152e5565b1480614a2857506004600182015460ff166005811115614a2657614a266152e5565b145b15614a455760408051848152600186016020820152209150611a40565b60405162461bcd60e51b815260206004820152601060248201526f125b1b1959d85b081112510814db1bdd60821b6044820152606401610736565b61415281604051602401614a9491906152d2565b60408051601f198184030181529190526020810180516001600160e01b031663104c13eb60e21b179052614eb0565b61415281604051602401614ad991815260200190565b60408051601f198184030181529190526020810180516001600160e01b03166327b7cf8560e01b179052614eb0565b6000818152600183016020526040812081600182015460ff166005811115614b3257614b326152e5565b1480614b5657506003600182015460ff166005811115614b5457614b546152e5565b145b15614b735760408051848152600186016020820152209150611a40565b60405162461bcd60e51b815260206004820152601060248201526f125b1b195859db081492510814db1bdd60821b6044820152606401610736565b6000818152600183016020526040812081600182015460ff166005811115614bd857614bd86152e5565b1480614bfc57506002600182015460ff166005811115614bfa57614bfa6152e5565b145b15614c195760408051848152600186016020820152209150611a40565b60405162461bcd60e51b815260206004820152601060248201526f125b1b1959d85b0810d2510814db1bdd60821b6044820152606401610736565b6040516bffffffffffffffffffffffff19606084901b1660208201526001600160e01b03198216603482015260009060380160405160208183030381529060405280519060200120905092915050565b6000818152600183016020526040812081600182015460ff166005811115614cce57614cce6152e5565b1480614cf1575060018082015460ff166005811115614cef57614cef6152e5565b145b15614d0e5760408051848152600186016020820152209150611a40565b60405162461bcd60e51b815260206004820152601060248201526f125b1b1959d85b081192510814db1bdd60821b6044820152606401610736565b6001600160a01b0381163b614d8f5760405162461bcd60e51b815260206004820152600c60248201526b125b1b1959d85b08125b5c1b60a21b6044820152606401610736565b600080516020615ba283398151915280546001600160a01b0319166001600160a01b0392909216919091179055565b6060614dc984614ed1565b600083511180614dd65750815b15614e115761430a84846040518060400160405280601381526020017211195b1959d85d1958d85b1b0811985a5b1959606a1b815250614498565b505060408051600081526020810190915292915050565b60608315614e37575081611fb5565b825115614e475782518084602001fd5b8160405162461bcd60e51b815260040161073691906152d2565b6000818152600183016020526040812054614ea8575081546001818101845560008481526020808220909301849055845484825282860190935260409020919091556106d5565b5060006106d5565b80516a636f6e736f6c652e6c6f67602083016000808483855afa5050505050565b614eda81614d49565b6040516001600160a01b03821690309033907f8ee0f2bd29c0e6a975c3cc2e47cf2e01b5f23a9a8a02e0ed6a5a070269de3d2d90600090a450565b80356001600160e01b0319811681146109ed57600080fd5b600060208284031215614f3f57600080fd5b611fb582614f15565b6020808252825182820181905260009190848201906040850190845b81811015614f895783516001600160a01b031683529284019291840191600101614f64565b50909695505050505050565b80356001600160a01b03811681146109ed57600080fd5b600060208284031215614fbe57600080fd5b611fb582614f95565b60008083601f840112614fd957600080fd5b50813567ffffffffffffffff811115614ff157600080fd5b6020830191508360208260051b850101111561500c57600080fd5b9250929050565b6000806020838503121561502657600080fd5b823567ffffffffffffffff81111561503d57600080fd5b61504985828601614fc7565b90969095509350505050565b6003811061415257600080fd5b60006020828403121561507457600080fd5b8135611fb581615055565b60008083601f84011261509157600080fd5b50813567ffffffffffffffff8111156150a957600080fd5b60208301915083602082850101111561500c57600080fd5b600080600080604085870312156150d757600080fd5b843567ffffffffffffffff808211156150ef57600080fd5b6150fb8883890161507f565b9096509450602087013591508082111561511457600080fd5b506151218782880161507f565b95989497509550505050565b6000806000806080858703121561514357600080fd5b61514c85614f95565b935061515a60208601614f95565b925061516860408601614f95565b915061517660608601614f95565b905092959194509250565b634e487b7160e01b600052604160045260246000fd5b801515811461415257600080fd5b80356109ed81615197565b6000806000606084860312156151c557600080fd5b6151ce84614f95565b9250602084013567ffffffffffffffff808211156151eb57600080fd5b818601915086601f8301126151ff57600080fd5b81358181111561521157615211615181565b604051601f8201601f19908116603f0116810190838211818310171561523957615239615181565b8160405282815289602084870101111561525257600080fd5b826020860160208301376000602084830101528096505050505050615279604085016151a5565b90509250925092565b60005b8381101561529d578181015183820152602001615285565b50506000910152565b600081518084526152be816020860160208601615282565b601f01601f19169290920160200192915050565b602081526000611fb560208301846152a6565b634e487b7160e01b600052602160045260246000fd5b6003811061415257634e487b7160e01b600052602160045260246000fd5b615322816152fb565b9052565b60208101615333836152fb565b91905290565b6020815281516020820152600060208301516101208060408501526153626101408501836152a6565b91506040850151601f1985840301606086015261537f83826152a6565b925050606085015161539c60808601826001600160a01b03169052565b5060808501516001600160a01b03811660a08601525060a08501516001600160a01b03811660c08601525060c085015161ffff811660e08601525060e08501516101006153eb81870183615319565b86015190506153fc85830182615319565b5090949350505050565b6020808252600c908201526b125b1b1959d85b0810d85b1b60a21b604082015260600190565b6020808252600c908201526b125b9d985b1a590810d85b1b60a21b604082015260600190565b6020808252600e908201526d139bdd08105d5d1a1bdc9a5e995960921b604082015260600190565b60208082526008908201526714995a9958dd195960c21b604082015260600190565b6020808252600990820152682337b93134b23232b760b91b604082015260600190565b6001600160e01b031991909116815260200190565b6000602082840312156154e657600080fd5b8151611fb581615197565b634e487b7160e01b600052603260045260246000fd5b60008235607e1983360301811261551d57600080fd5b9190910192915050565b6000808335601e1984360301811261553e57600080fd5b83018035915067ffffffffffffffff82111561555957600080fd5b6020019150600581901b360382131561500c57600080fd5b60008235603e1983360301811261551d57600080fd5b6001600160e01b031983168152604081016155a1836152fb565b8260208301529392505050565b634e487b7160e01b600052601160045260246000fd5b6000600182016155d6576155d66155ae565b5060010190565b81835281816020850137506000828201602090810191909152601f909101601f19169091010190565b60608152600061561a6060830187896155dd565b828103602084015261562d8186886155dd565b91505061ffff831660408301529695505050505050565b600181811c9082168061565857607f821691505b60208210810361567857634e487b7160e01b600052602260045260246000fd5b50919050565b818103818111156106d5576106d56155ae565b6001600160a01b039390931683526001600160e01b0319919091166020830152604082015260600190565b8183526000602080850194508260005b858110156156f9576001600160e01b03196156e683614f15565b16875295820195908201906001016156cc565b509495945050505050565b8281526040602082015260006001600160a01b038061572285614f95565b1660408401528061573560208601614f95565b166060840152506001600160e01b031961575160408501614f15565b1660808301526060830135601e1984360301811261576e57600080fd5b830160208101903567ffffffffffffffff81111561578b57600080fd5b8060051b360382131561579d57600080fd5b608060a085015261455c60c0850182846156bc565b7f4c4956454c595f56455253455f4c4956454c595f474c4f42414c5f53434f5045815260200190565b601f82111561582557600081815260208120601f850160051c810160208610156158025750805b601f850160051c820191505b818110156158215782815560010161580e565b5050505b505050565b815167ffffffffffffffff81111561584457615844615181565b615858816158528454615644565b846157db565b602080601f83116001811461588d57600084156158755750858301515b600019600386901b1c1916600185901b178555615821565b600085815260208120601f198616915b828110156158bc5788860151825594840194600190910190840161589d565b50858210156158da5787850151600019600388901b60f8161c191681555b5050505050600190811b01905550565b7f4c4956454c595f56455253455f4c4956454c595f4d41535445525f41444d494e8152645f524f4c4560d81b602082015260250190565b7f4c4956454c595f56455253455f53595354454d5f4d41535445525f41444d494e8152645f524f4c4560d81b602082015260250190565b7f4c4956454c595f56455253455f53434f50455f4d41535445525f41444d494e5f815263524f4c4560e01b602082015260240190565b7f4c4956454c595f56455253455f4147454e545f4d41535445525f41444d494e5f815263524f4c4560e01b602082015260240190565b7f4c4956454c595f56455253455f504f4c4943595f4d41535445525f41444d494e8152645f524f4c4560d81b602082015260250190565b600060208284031215615a0d57600080fd5b5051919050565b6000808354615a2281615644565b60018281168015615a3a5760018114615a4f57615a7e565b60ff1984168752821515830287019450615a7e565b8760005260208060002060005b85811015615a755781548a820152908401908201615a5c565b50505082870194505b50929695505050505050565b6000825161551d818460208701615282565b67ffffffffffffffff831115615ab457615ab4615181565b615ac883615ac28354615644565b836157db565b6000601f841160018114615afc5760008515615ae45750838201355b600019600387901b1c1916600186901b178355611cda565b600083815260209020601f19861690835b82811015615b2d5786850135825560209485019460019092019101615b0d565b5086821015615b4a5760001960f88860031b161c19848701351681555b505060018560011b018355505050505056fe4c4956454c595f56455253455f53595354454d5f4d41535445525f41444d494e5f524f4c454c4956454c595f56455253455f53595354454d5f4d41535445525f5459504500360894a13ba1a3210667c828492db98dca3e2076cc3735a920a3ca505d382bbc4c4956454c595f56455253455f4c4956454c595f4d41535445525f54595045004c4956454c595f56455253455f41474e45545f4d41535445525f41444d494e5f524f4c454c4956454c595f56455253455f53434f50455f4d41535445525f41444d494e5f524f4c454c4956454c595f56455253455f504f4c4943595f4d41535445525f41444d494e5f524f4c454c4956454c595f56455253455f53434f50455f4d41535445525f5459504500004c4956454c595f56455253455f4c4956454c595f4d41535445525f41444d494e5f524f4c454c4956454c595f56455253455f4147454e545f4d41535445525f5459504500004c4956454c595f56455253455f504f4c4943595f4d41535445525f5459504500a2646970667358221220221fd1794606b4a2df79429435755c0e2e94d4ab896d95aafe225a3d1486fcb564736f6c63430008110033b53127684a568b3173ae13b9f8a6016e243e63b6e8ee1178d6a717850b5d6103",
  "linkReferences": {
    "src/contracts/lib/acl/LAccessControl.sol": {
      "LAccessControl": [
        {
          "length": 20,
          "start": 1588
        },
        {
          "length": 20,
          "start": 7620
        },
        {
          "length": 20,
          "start": 11026
        }
      ]
    }
  },
  "deployedLinkReferences": {
    "src/contracts/lib/acl/LAccessControl.sol": {
      "LAccessControl": [
        {
          "length": 20,
          "start": 1079
        },
        {
          "length": 20,
          "start": 7111
        },
        {
          "length": 20,
          "start": 10517
        }
      ]
    }
  },
  "devdoc": {
    "author": "Sina Tadayon, https://github.com/SinaTadayon",
    "kind": "dev",
    "methods": {
      "proxiableUUID()": {
        "details": "Implementation of the ERC1822 {proxiableUUID} function. This returns the storage slot used by the implementation. It is used to validate that the this implementation remains valid after an upgrade. IMPORTANT: A proxy pointing at a proxiable contract should not be considered proxiable itself, because this risks bricking a proxy that upgrades to it, by delegating to itself until out of gas. Thus it is critical that this function revert if invoked through a proxy. This is guaranteed by the `notDelegated` modifier."
      },
      "supportsInterface(bytes4)": {
        "details": "See {IERC165-supportsInterface}."
      }
    },
    "title": "Access Control Manager Contract",
    "version": 1
  },
  "evm": {
    "bytecode": {
      "linkReferences": {
        "src/contracts/lib/acl/LAccessControl.sol": {
          "LAccessControl": [
            {
              "length": 20,
              "start": 1588
            },
            {
              "length": 20,
              "start": 7620
            },
            {
              "length": 20,
              "start": 11026
            }
          ]
        }
      },
      "opcodes": "PUSH1 0xA0 PUSH1 0x40 MSTORE ADDRESS PUSH1 0x80 MSTORE CALLVALUE DUP1 ISZERO PUSH3 0x15 JUMPI PUSH1 0x0 DUP1 REVERT JUMPDEST POP PUSH3 0x43 PUSH1 0x1 PUSH32 0x360894A13BA1A3210667C828492DB98DCA3E2076CC3735A920A3CA505D382BBD PUSH3 0x125 JUMP JUMPDEST PUSH32 0x360894A13BA1A3210667C828492DB98DCA3E2076CC3735A920A3CA505D382BBC EQ PUSH3 0x74 JUMPI PUSH3 0x74 PUSH3 0x14D JUMP JUMPDEST PUSH3 0xA1 PUSH1 0x1 PUSH32 0xB53127684A568B3173AE13B9F8A6016E243E63B6E8EE1178D6A717850B5D6104 PUSH3 0x125 JUMP JUMPDEST PUSH1 0x0 DUP1 MLOAD PUSH1 0x20 PUSH3 0x5F06 DUP4 CODECOPY DUP2 MLOAD SWAP2 MSTORE EQ PUSH3 0xC1 JUMPI PUSH3 0xC1 PUSH3 0x14D JUMP JUMPDEST CALLER PUSH3 0xEA PUSH1 0x0 DUP1 MLOAD PUSH1 0x20 PUSH3 0x5F06 DUP4 CODECOPY DUP2 MLOAD SWAP2 MSTORE PUSH1 0x0 SHL PUSH3 0x122 PUSH1 0x20 SHL PUSH3 0x2672 OR PUSH1 0x20 SHR JUMP JUMPDEST DUP1 SLOAD PUSH1 0x1 PUSH1 0x1 PUSH1 0xA0 SHL SUB NOT AND PUSH1 0x1 PUSH1 0x1 PUSH1 0xA0 SHL SUB SWAP3 SWAP1 SWAP3 AND SWAP2 SWAP1 SWAP2 OR SWAP1 SSTORE PUSH1 0x2 DUP1 SLOAD PUSH2 0xFFFF PUSH1 0xA0 SHL NOT AND PUSH1 0x81 PUSH1 0xA1 SHL OR SWAP1 SSTORE PUSH3 0x163 JUMP JUMPDEST SWAP1 JUMP JUMPDEST DUP2 DUP2 SUB DUP2 DUP2 GT ISZERO PUSH3 0x147 JUMPI PUSH4 0x4E487B71 PUSH1 0xE0 SHL PUSH1 0x0 MSTORE PUSH1 0x11 PUSH1 0x4 MSTORE PUSH1 0x24 PUSH1 0x0 REVERT JUMPDEST SWAP3 SWAP2 POP POP JUMP JUMPDEST PUSH4 0x4E487B71 PUSH1 0xE0 SHL PUSH1 0x0 MSTORE PUSH1 0x1 PUSH1 0x4 MSTORE PUSH1 0x24 PUSH1 0x0 REVERT JUMPDEST PUSH1 0x80 MLOAD PUSH2 0x5D09 PUSH3 0x1FD PUSH1 0x0 CODECOPY PUSH1 0x0 DUP2 DUP2 PUSH2 0x6F8 ADD MSTORE DUP2 DUP2 PUSH2 0x741 ADD MSTORE DUP2 DUP2 PUSH2 0x9FE ADD MSTORE DUP2 DUP2 PUSH2 0xA3E ADD MSTORE DUP2 DUP2 PUSH2 0xB46 ADD MSTORE DUP2 DUP2 PUSH2 0xB86 ADD MSTORE DUP2 DUP2 PUSH2 0xCB4 ADD MSTORE DUP2 DUP2 PUSH2 0xCF4 ADD MSTORE DUP2 DUP2 PUSH2 0x1A51 ADD MSTORE DUP2 DUP2 PUSH2 0x1A91 ADD MSTORE DUP2 DUP2 PUSH2 0x1CEE ADD MSTORE DUP2 DUP2 PUSH2 0x1D6F ADD MSTORE DUP2 DUP2 PUSH2 0x1DAF ADD MSTORE DUP2 DUP2 PUSH2 0x1E6D ADD MSTORE DUP2 DUP2 PUSH2 0x1EAD ADD MSTORE DUP2 DUP2 PUSH2 0x2335 ADD MSTORE DUP2 DUP2 PUSH2 0x2375 ADD MSTORE DUP2 DUP2 PUSH2 0x24F8 ADD MSTORE PUSH2 0x2538 ADD MSTORE PUSH2 0x5D09 PUSH1 0x0 RETURN INVALID PUSH1 0x80 PUSH1 0x40 MSTORE PUSH1 0x4 CALLDATASIZE LT PUSH2 0x1AE JUMPI PUSH1 0x0 CALLDATALOAD PUSH1 0xE0 SHR DUP1 PUSH4 0x7147855D GT PUSH2 0xEB JUMPI DUP1 PUSH4 0xD49E164D GT PUSH2 0x8F JUMPI DUP1 PUSH4 0xF698DA25 GT PUSH2 0x61 JUMPI DUP1 PUSH4 0xF698DA25 EQ PUSH2 0x554 JUMPI DUP1 PUSH4 0xF708CEB0 EQ PUSH2 0x569 JUMPI DUP1 PUSH4 0xF94A0ADB EQ PUSH2 0x589 JUMPI DUP1 PUSH4 0xFBAD3684 EQ PUSH2 0x59E JUMPI STOP JUMPDEST DUP1 PUSH4 0xD49E164D EQ PUSH2 0x4AA JUMPI DUP1 PUSH4 0xD9DC1F19 EQ PUSH2 0x4CC JUMPI DUP1 PUSH4 0xF0B15DEF EQ PUSH2 0x4EC JUMPI DUP1 PUSH4 0xF33B6D48 EQ PUSH2 0x520 JUMPI STOP JUMPDEST DUP1 PUSH4 0x7678922E GT PUSH2 0xC8 JUMPI DUP1 PUSH4 0x7678922E EQ PUSH2 0x428 JUMPI DUP1 PUSH4 0xA0A8E460 EQ PUSH2 0x44F JUMPI DUP1 PUSH4 0xA304E353 EQ PUSH2 0x464 JUMPI DUP1 PUSH4 0xB4A0BDF3 EQ PUSH2 0x48C JUMPI STOP JUMPDEST DUP1 PUSH4 0x7147855D EQ PUSH2 0x3C6 JUMPI DUP1 PUSH4 0x756AF45F EQ PUSH2 0x3F3 JUMPI DUP1 PUSH4 0x75D0C0DC EQ PUSH2 0x413 JUMPI STOP JUMPDEST DUP1 PUSH4 0x399D6E38 GT PUSH2 0x152 JUMPI DUP1 PUSH4 0x52D1902D GT PUSH2 0x12F JUMPI DUP1 PUSH4 0x52D1902D EQ PUSH2 0x330 JUMPI DUP1 PUSH4 0x54B8C988 EQ PUSH2 0x345 JUMPI DUP1 PUSH4 0x58DBC45D EQ PUSH2 0x365 JUMPI DUP1 PUSH4 0x64D4C819 EQ PUSH2 0x392 JUMPI STOP JUMPDEST DUP1 PUSH4 0x399D6E38 EQ PUSH2 0x2D0 JUMPI DUP1 PUSH4 0x432AE66E EQ PUSH2 0x2F0 JUMPI DUP1 PUSH4 0x4CD88B76 EQ PUSH2 0x310 JUMPI STOP JUMPDEST DUP1 PUSH4 0x1F402AC2 GT PUSH2 0x18B JUMPI DUP1 PUSH4 0x1F402AC2 EQ PUSH2 0x22E JUMPI DUP1 PUSH4 0x2C4B4FFF EQ PUSH2 0x24E JUMPI DUP1 PUSH4 0x34109DE2 EQ PUSH2 0x266 JUMPI DUP1 PUSH4 0x38D38C97 EQ PUSH2 0x2A8 JUMPI STOP JUMPDEST DUP1 PUSH4 0x1FFC9A7 EQ PUSH2 0x1B7 JUMPI DUP1 PUSH4 0x3C5A9D8 EQ PUSH2 0x1EC JUMPI DUP1 PUSH4 0xE32CB86 EQ PUSH2 0x20E JUMPI STOP JUMPDEST CALLDATASIZE PUSH2 0x1B5 JUMPI STOP JUMPDEST STOP JUMPDEST CALLVALUE DUP1 ISZERO PUSH2 0x1C3 JUMPI PUSH1 0x0 DUP1 REVERT JUMPDEST POP PUSH2 0x1D7 PUSH2 0x1D2 CALLDATASIZE PUSH1 0x4 PUSH2 0x4F2D JUMP JUMPDEST PUSH2 0x5BD JUMP JUMPDEST PUSH1 0x40 MLOAD SWAP1 ISZERO ISZERO DUP2 MSTORE PUSH1 0x20 ADD JUMPDEST PUSH1 0x40 MLOAD DUP1 SWAP2 SUB SWAP1 RETURN JUMPDEST CALLVALUE DUP1 ISZERO PUSH2 0x1F8 JUMPI PUSH1 0x0 DUP1 REVERT JUMPDEST POP PUSH2 0x201 PUSH2 0x6DB JUMP JUMPDEST PUSH1 0x40 MLOAD PUSH2 0x1E3 SWAP2 SWAP1 PUSH2 0x4F48 JUMP JUMPDEST CALLVALUE DUP1 ISZERO PUSH2 0x21A JUMPI PUSH1 0x0 DUP1 REVERT JUMPDEST POP PUSH2 0x1D7 PUSH2 0x229 CALLDATASIZE PUSH1 0x4 PUSH2 0x4FAC JUMP JUMPDEST PUSH2 0x6EC JUMP JUMPDEST CALLVALUE DUP1 ISZERO PUSH2 0x23A JUMPI PUSH1 0x0 DUP1 REVERT JUMPDEST POP PUSH2 0x1D7 PUSH2 0x249 CALLDATASIZE PUSH1 0x4 PUSH2 0x5013 JUMP JUMPDEST PUSH2 0x9F2 JUMP JUMPDEST CALLVALUE DUP1 ISZERO PUSH2 0x25A JUMPI PUSH1 0x0 DUP1 REVERT JUMPDEST POP PUSH1 0x43 SLOAD PUSH1 0xFF AND PUSH2 0x1D7 JUMP JUMPDEST CALLVALUE DUP1 ISZERO PUSH2 0x272 JUMPI PUSH1 0x0 DUP1 REVERT JUMPDEST POP PUSH2 0x29A PUSH32 0x7AABE2571874F2A330EA11C8972D9CC3792D973EFC6B36E3E29005861A344188 DUP2 JUMP JUMPDEST PUSH1 0x40 MLOAD SWAP1 DUP2 MSTORE PUSH1 0x20 ADD PUSH2 0x1E3 JUMP JUMPDEST CALLVALUE DUP1 ISZERO PUSH2 0x2B4 JUMPI PUSH1 0x0 DUP1 REVERT JUMPDEST POP PUSH2 0x2BD PUSH2 0xB2B JUMP JUMPDEST PUSH1 0x40 MLOAD PUSH2 0xFFFF SWAP1 SWAP2 AND DUP2 MSTORE PUSH1 0x20 ADD PUSH2 0x1E3 JUMP JUMPDEST CALLVALUE DUP1 ISZERO PUSH2 0x2DC JUMPI PUSH1 0x0 DUP1 REVERT JUMPDEST POP PUSH2 0x1D7 PUSH2 0x2EB CALLDATASIZE PUSH1 0x4 PUSH2 0x5062 JUMP JUMPDEST PUSH2 0xB3A JUMP JUMPDEST CALLVALUE DUP1 ISZERO PUSH2 0x2FC JUMPI PUSH1 0x0 DUP1 REVERT JUMPDEST POP PUSH2 0x1D7 PUSH2 0x30B CALLDATASIZE PUSH1 0x4 PUSH2 0x5013 JUMP JUMPDEST PUSH2 0xCA8 JUMP JUMPDEST CALLVALUE DUP1 ISZERO PUSH2 0x31C JUMPI PUSH1 0x0 DUP1 REVERT JUMPDEST POP PUSH2 0x1B5 PUSH2 0x32B CALLDATASIZE PUSH1 0x4 PUSH2 0x50C1 JUMP JUMPDEST PUSH2 0x1A47 JUMP JUMPDEST CALLVALUE DUP1 ISZERO PUSH2 0x33C JUMPI PUSH1 0x0 DUP1 REVERT JUMPDEST POP PUSH2 0x29A PUSH2 0x1CE1 JUMP JUMPDEST CALLVALUE DUP1 ISZERO PUSH2 0x351 JUMPI PUSH1 0x0 DUP1 REVERT JUMPDEST POP PUSH2 0x1B5 PUSH2 0x360 CALLDATASIZE PUSH1 0x4 PUSH2 0x512D JUMP JUMPDEST PUSH2 0x1D65 JUMP JUMPDEST CALLVALUE DUP1 ISZERO PUSH2 0x371 JUMPI PUSH1 0x0 DUP1 REVERT JUMPDEST POP PUSH2 0x37A PUSH2 0x1E57 JUMP JUMPDEST PUSH1 0x40 MLOAD PUSH1 0x1 PUSH1 0x1 PUSH1 0xA0 SHL SUB SWAP1 SWAP2 AND DUP2 MSTORE PUSH1 0x20 ADD PUSH2 0x1E3 JUMP JUMPDEST CALLVALUE DUP1 ISZERO PUSH2 0x39E JUMPI PUSH1 0x0 DUP1 REVERT JUMPDEST POP PUSH2 0x29A PUSH32 0x8B73C3C69BB8FE3D512ECC4CF759CC79239F7B179B0FFACAA9A75D522B39400F DUP2 JUMP JUMPDEST CALLVALUE DUP1 ISZERO PUSH2 0x3D2 JUMPI PUSH1 0x0 DUP1 REVERT JUMPDEST POP PUSH2 0x3E6 PUSH2 0x3E1 CALLDATASIZE PUSH1 0x4 PUSH2 0x51B0 JUMP JUMPDEST PUSH2 0x1E61 JUMP JUMPDEST PUSH1 0x40 MLOAD PUSH2 0x1E3 SWAP2 SWAP1 PUSH2 0x52D2 JUMP JUMPDEST CALLVALUE DUP1 ISZERO PUSH2 0x3FF JUMPI PUSH1 0x0 DUP1 REVERT JUMPDEST POP PUSH2 0x29A PUSH2 0x40E CALLDATASIZE PUSH1 0x4 PUSH2 0x4FAC JUMP JUMPDEST PUSH2 0x1FBC JUMP JUMPDEST CALLVALUE DUP1 ISZERO PUSH2 0x41F JUMPI PUSH1 0x0 DUP1 REVERT JUMPDEST POP PUSH2 0x3E6 PUSH2 0x205E JUMP JUMPDEST CALLVALUE DUP1 ISZERO PUSH2 0x434 JUMPI PUSH1 0x0 DUP1 REVERT JUMPDEST POP PUSH20 0x0 PUSH2 0x37A JUMP JUMPDEST CALLVALUE DUP1 ISZERO PUSH2 0x45B JUMPI PUSH1 0x0 DUP1 REVERT JUMPDEST POP PUSH2 0x3E6 PUSH2 0x20F0 JUMP JUMPDEST CALLVALUE DUP1 ISZERO PUSH2 0x470 JUMPI PUSH1 0x0 DUP1 REVERT JUMPDEST POP PUSH1 0x2 SLOAD PUSH1 0x1 PUSH1 0xA0 SHL SWAP1 DIV PUSH1 0xFF AND JUMPDEST PUSH1 0x40 MLOAD PUSH2 0x1E3 SWAP2 SWAP1 PUSH2 0x5326 JUMP JUMPDEST CALLVALUE DUP1 ISZERO PUSH2 0x498 JUMPI PUSH1 0x0 DUP1 REVERT JUMPDEST POP PUSH1 0x2 SLOAD PUSH1 0x1 PUSH1 0x1 PUSH1 0xA0 SHL SUB AND PUSH2 0x37A JUMP JUMPDEST CALLVALUE DUP1 ISZERO PUSH2 0x4B6 JUMPI PUSH1 0x0 DUP1 REVERT JUMPDEST POP PUSH2 0x4BF PUSH2 0x20FF JUMP JUMPDEST PUSH1 0x40 MLOAD PUSH2 0x1E3 SWAP2 SWAP1 PUSH2 0x5339 JUMP JUMPDEST CALLVALUE DUP1 ISZERO PUSH2 0x4D8 JUMPI PUSH1 0x0 DUP1 REVERT JUMPDEST POP PUSH2 0x1D7 PUSH2 0x4E7 CALLDATASIZE PUSH1 0x4 PUSH2 0x4FAC JUMP JUMPDEST PUSH2 0x2329 JUMP JUMPDEST CALLVALUE DUP1 ISZERO PUSH2 0x4F8 JUMPI PUSH1 0x0 DUP1 REVERT JUMPDEST POP PUSH2 0x29A PUSH32 0xFC434588684348DD50856B075C47BED14245C1030AA04C32955AF55499814627 DUP2 JUMP JUMPDEST CALLVALUE DUP1 ISZERO PUSH2 0x52C JUMPI PUSH1 0x0 DUP1 REVERT JUMPDEST POP PUSH2 0x29A PUSH32 0x31238DA5536EF05686D34CCF0DE000A4926293566B3711F6E73963B73AD026FE DUP2 JUMP JUMPDEST CALLVALUE DUP1 ISZERO PUSH2 0x560 JUMPI PUSH1 0x0 DUP1 REVERT JUMPDEST POP PUSH2 0x29A PUSH2 0x24E2 JUMP JUMPDEST CALLVALUE DUP1 ISZERO PUSH2 0x575 JUMPI PUSH1 0x0 DUP1 REVERT JUMPDEST POP PUSH2 0x1D7 PUSH2 0x584 CALLDATASIZE PUSH1 0x4 PUSH2 0x5062 JUMP JUMPDEST PUSH2 0x24EC JUMP JUMPDEST CALLVALUE DUP1 ISZERO PUSH2 0x595 JUMPI PUSH1 0x0 DUP1 REVERT JUMPDEST POP PUSH2 0x37A PUSH2 0x2668 JUMP JUMPDEST CALLVALUE DUP1 ISZERO PUSH2 0x5AA JUMPI PUSH1 0x0 DUP1 REVERT JUMPDEST POP PUSH1 0x2 SLOAD PUSH1 0x1 PUSH1 0xA8 SHL SWAP1 DIV PUSH1 0xFF AND PUSH2 0x47F JUMP JUMPDEST PUSH1 0x0 PUSH1 0x1 PUSH1 0x1 PUSH1 0xE0 SHL SUB NOT DUP3 AND PUSH4 0x7A327937 PUSH1 0xE0 SHL EQ DUP1 PUSH2 0x5EE JUMPI POP PUSH1 0x1 PUSH1 0x1 PUSH1 0xE0 SHL SUB NOT DUP3 AND PUSH4 0x5EE4C92F PUSH1 0xE1 SHL EQ JUMPDEST DUP1 PUSH2 0x609 JUMPI POP PUSH1 0x1 PUSH1 0x1 PUSH1 0xE0 SHL SUB NOT DUP3 AND PUSH4 0x16F15159 PUSH1 0xE2 SHL EQ JUMPDEST DUP1 PUSH2 0x624 JUMPI POP PUSH1 0x1 PUSH1 0x1 PUSH1 0xE0 SHL SUB NOT DUP3 AND PUSH4 0x74A80B8B PUSH1 0xE1 SHL EQ JUMPDEST DUP1 PUSH2 0x63F JUMPI POP PUSH1 0x1 PUSH1 0x1 PUSH1 0xE0 SHL SUB NOT DUP3 AND PUSH4 0x2BCF237B PUSH1 0xE2 SHL EQ JUMPDEST DUP1 PUSH2 0x65A JUMPI POP PUSH1 0x1 PUSH1 0x1 PUSH1 0xE0 SHL SUB NOT DUP3 AND PUSH4 0xF7DA3621 PUSH1 0xE0 SHL EQ JUMPDEST DUP1 PUSH2 0x675 JUMPI POP PUSH1 0x1 PUSH1 0x1 PUSH1 0xE0 SHL SUB NOT DUP3 AND PUSH4 0x5180E0F9 PUSH1 0xE1 SHL EQ JUMPDEST DUP1 PUSH2 0x690 JUMPI POP PUSH1 0x1 PUSH1 0x1 PUSH1 0xE0 SHL SUB NOT DUP3 AND PUSH4 0x51EB353F PUSH1 0xE0 SHL EQ JUMPDEST DUP1 PUSH2 0x6AB JUMPI POP PUSH1 0x1 PUSH1 0x1 PUSH1 0xE0 SHL SUB NOT DUP3 AND PUSH4 0xFA07F5D7 PUSH1 0xE0 SHL EQ JUMPDEST DUP1 PUSH2 0x6C6 JUMPI POP PUSH1 0x1 PUSH1 0x1 PUSH1 0xE0 SHL SUB NOT DUP3 AND PUSH4 0x7A5204B PUSH1 0xE0 SHL EQ JUMPDEST DUP1 PUSH2 0x6D5 JUMPI POP PUSH2 0x6D5 DUP3 PUSH2 0x2675 JUMP JUMPDEST SWAP3 SWAP2 POP POP JUMP JUMPDEST PUSH1 0x60 PUSH2 0x6E7 PUSH1 0x4A PUSH2 0x26C5 JUMP JUMPDEST SWAP1 POP SWAP1 JUMP JUMPDEST PUSH1 0x0 PUSH1 0x1 PUSH1 0x1 PUSH1 0xA0 SHL SUB PUSH32 0x0 AND ADDRESS SUB PUSH2 0x73F JUMPI PUSH1 0x40 MLOAD PUSH3 0x461BCD PUSH1 0xE5 SHL DUP2 MSTORE PUSH1 0x4 ADD PUSH2 0x736 SWAP1 PUSH2 0x5406 JUMP JUMPDEST PUSH1 0x40 MLOAD DUP1 SWAP2 SUB SWAP1 REVERT JUMPDEST PUSH32 0x0 PUSH1 0x1 PUSH1 0x1 PUSH1 0xA0 SHL SUB AND PUSH2 0x771 PUSH2 0x26D2 JUMP JUMPDEST PUSH1 0x1 PUSH1 0x1 PUSH1 0xA0 SHL SUB AND EQ PUSH2 0x797 JUMPI PUSH1 0x40 MLOAD PUSH3 0x461BCD PUSH1 0xE5 SHL DUP2 MSTORE PUSH1 0x4 ADD PUSH2 0x736 SWAP1 PUSH2 0x542C JUMP JUMPDEST CALLER PUSH2 0x7A0 PUSH2 0x26F3 JUMP JUMPDEST PUSH1 0x1 PUSH1 0x1 PUSH1 0xA0 SHL SUB AND EQ PUSH2 0x7C6 JUMPI PUSH1 0x40 MLOAD PUSH3 0x461BCD PUSH1 0xE5 SHL DUP2 MSTORE PUSH1 0x4 ADD PUSH2 0x736 SWAP1 PUSH2 0x5452 JUMP JUMPDEST PUSH1 0x1 PUSH1 0x2 DUP1 SLOAD PUSH1 0x1 PUSH1 0xA0 SHL SWAP1 DIV PUSH1 0xFF AND SWAP1 DUP2 GT ISZERO PUSH2 0x7E6 JUMPI PUSH2 0x7E6 PUSH2 0x52E5 JUMP JUMPDEST EQ PUSH2 0x803 JUMPI PUSH1 0x40 MLOAD PUSH3 0x461BCD PUSH1 0xE5 SHL DUP2 MSTORE PUSH1 0x4 ADD PUSH2 0x736 SWAP1 PUSH2 0x547A JUMP JUMPDEST PUSH1 0x2 DUP1 DUP1 SLOAD PUSH1 0x1 PUSH1 0xA8 SHL SWAP1 DIV PUSH1 0xFF AND SWAP1 DUP2 GT ISZERO PUSH2 0x822 JUMPI PUSH2 0x822 PUSH2 0x52E5 JUMP JUMPDEST EQ PUSH2 0x860 JUMPI PUSH1 0x40 MLOAD PUSH3 0x461BCD PUSH1 0xE5 SHL DUP2 MSTORE PUSH1 0x20 PUSH1 0x4 DUP3 ADD MSTORE PUSH1 0xE PUSH1 0x24 DUP3 ADD MSTORE PUSH14 0x496C6C6567616C20557064617465 PUSH1 0x90 SHL PUSH1 0x44 DUP3 ADD MSTORE PUSH1 0x64 ADD PUSH2 0x736 JUMP JUMPDEST PUSH1 0x1 PUSH1 0x1 PUSH1 0xA0 SHL SUB DUP3 AND PUSH2 0x8A8 JUMPI PUSH1 0x40 MLOAD PUSH3 0x461BCD PUSH1 0xE5 SHL DUP2 MSTORE PUSH1 0x20 PUSH1 0x4 DUP3 ADD MSTORE PUSH1 0xF PUSH1 0x24 DUP3 ADD MSTORE PUSH15 0x496C6C6567616C2041646472657373 PUSH1 0x88 SHL PUSH1 0x44 DUP3 ADD MSTORE PUSH1 0x64 ADD PUSH2 0x736 JUMP JUMPDEST PUSH1 0x2 SLOAD PUSH1 0x1 PUSH1 0x1 PUSH1 0xA0 SHL SUB AND ISZERO PUSH2 0x8E5 JUMPI PUSH2 0x8C9 PUSH4 0xD9DC1F19 PUSH1 0xE0 SHL PUSH2 0x271B JUMP JUMPDEST PUSH2 0x8E5 JUMPI PUSH1 0x40 MLOAD PUSH3 0x461BCD PUSH1 0xE5 SHL DUP2 MSTORE PUSH1 0x4 ADD PUSH2 0x736 SWAP1 PUSH2 0x549C JUMP JUMPDEST PUSH1 0x40 MLOAD PUSH4 0x1FFC9A7 PUSH1 0xE0 SHL DUP2 MSTORE PUSH1 0x1 PUSH1 0x1 PUSH1 0xA0 SHL SUB DUP4 AND SWAP1 PUSH4 0x1FFC9A7 SWAP1 PUSH2 0x918 SWAP1 PUSH4 0x7A327937 PUSH1 0xE0 SHL SWAP1 PUSH1 0x4 ADD PUSH2 0x54BF JUMP JUMPDEST PUSH1 0x20 PUSH1 0x40 MLOAD DUP1 DUP4 SUB DUP2 DUP7 GAS STATICCALL ISZERO DUP1 ISZERO PUSH2 0x935 JUMPI RETURNDATASIZE PUSH1 0x0 DUP1 RETURNDATACOPY RETURNDATASIZE PUSH1 0x0 REVERT JUMPDEST POP POP POP POP PUSH1 0x40 MLOAD RETURNDATASIZE PUSH1 0x1F NOT PUSH1 0x1F DUP3 ADD AND DUP3 ADD DUP1 PUSH1 0x40 MSTORE POP DUP2 ADD SWAP1 PUSH2 0x959 SWAP2 SWAP1 PUSH2 0x54D4 JUMP JUMPDEST PUSH2 0x993 JUMPI PUSH1 0x40 MLOAD PUSH3 0x461BCD PUSH1 0xE5 SHL DUP2 MSTORE PUSH1 0x20 PUSH1 0x4 DUP3 ADD MSTORE PUSH1 0xB PUSH1 0x24 DUP3 ADD MSTORE PUSH11 0x125B1B1959D85B081050D3 PUSH1 0xAA SHL PUSH1 0x44 DUP3 ADD MSTORE PUSH1 0x64 ADD PUSH2 0x736 JUMP JUMPDEST PUSH1 0x2 DUP1 SLOAD PUSH1 0x1 PUSH1 0x1 PUSH1 0xA0 SHL SUB NOT AND PUSH1 0x1 PUSH1 0x1 PUSH1 0xA0 SHL SUB DUP5 AND SWAP1 DUP2 OR SWAP1 SWAP2 SSTORE PUSH1 0x40 MLOAD SWAP1 DUP2 MSTORE ADDRESS SWAP1 CALLER SWAP1 PUSH32 0x410BF468EEBEEED60ACAEDB904AFB2DB7C0BB0131F7D14C3714D81B14FE8ED3C SWAP1 PUSH1 0x20 ADD JUMPDEST PUSH1 0x40 MLOAD DUP1 SWAP2 SUB SWAP1 LOG3 POP PUSH1 0x1 JUMPDEST SWAP2 SWAP1 POP JUMP JUMPDEST PUSH1 0x0 PUSH1 0x1 PUSH1 0x1 PUSH1 0xA0 SHL SUB PUSH32 0x0 AND ADDRESS SUB PUSH2 0xA3C JUMPI PUSH1 0x40 MLOAD PUSH3 0x461BCD PUSH1 0xE5 SHL DUP2 MSTORE PUSH1 0x4 ADD PUSH2 0x736 SWAP1 PUSH2 0x5406 JUMP JUMPDEST PUSH32 0x0 PUSH1 0x1 PUSH1 0x1 PUSH1 0xA0 SHL SUB AND PUSH2 0xA6E PUSH2 0x26D2 JUMP JUMPDEST PUSH1 0x1 PUSH1 0x1 PUSH1 0xA0 SHL SUB AND EQ PUSH2 0xA94 JUMPI PUSH1 0x40 MLOAD PUSH3 0x461BCD PUSH1 0xE5 SHL DUP2 MSTORE PUSH1 0x4 ADD PUSH2 0x736 SWAP1 PUSH2 0x542C JUMP JUMPDEST PUSH1 0x43 SLOAD PUSH1 0xFF AND ISZERO PUSH2 0xADF JUMPI CALLER PUSH2 0xAA8 PUSH2 0x26F3 JUMP JUMPDEST PUSH1 0x1 PUSH1 0x1 PUSH1 0xA0 SHL SUB AND EQ PUSH2 0xACE JUMPI PUSH1 0x40 MLOAD PUSH3 0x461BCD PUSH1 0xE5 SHL DUP2 MSTORE PUSH1 0x4 ADD PUSH2 0x736 SWAP1 PUSH2 0x549C JUMP JUMPDEST PUSH2 0xAD8 DUP4 DUP4 PUSH2 0x2907 JUMP JUMPDEST SWAP1 POP PUSH2 0x6D5 JUMP JUMPDEST PUSH2 0xAEF PUSH4 0xFA01561 PUSH1 0xE1 SHL PUSH2 0x271B JUMP JUMPDEST PUSH2 0xACE JUMPI PUSH1 0x40 MLOAD PUSH3 0x461BCD PUSH1 0xE5 SHL DUP2 MSTORE PUSH1 0x20 PUSH1 0x4 DUP3 ADD MSTORE PUSH1 0xD PUSH1 0x24 DUP3 ADD MSTORE PUSH13 0x1058D8D95CDCC811195B9A5959 PUSH1 0x9A SHL PUSH1 0x44 DUP3 ADD MSTORE PUSH1 0x64 ADD PUSH2 0x736 JUMP JUMPDEST PUSH1 0x0 PUSH2 0x6E7 PUSH1 0x4C SLOAD PUSH2 0xFFFF AND SWAP1 JUMP JUMPDEST PUSH1 0x0 PUSH1 0x1 PUSH1 0x1 PUSH1 0xA0 SHL SUB PUSH32 0x0 AND ADDRESS SUB PUSH2 0xB84 JUMPI PUSH1 0x40 MLOAD PUSH3 0x461BCD PUSH1 0xE5 SHL DUP2 MSTORE PUSH1 0x4 ADD PUSH2 0x736 SWAP1 PUSH2 0x5406 JUMP JUMPDEST PUSH32 0x0 PUSH1 0x1 PUSH1 0x1 PUSH1 0xA0 SHL SUB AND PUSH2 0xBB6 PUSH2 0x26D2 JUMP JUMPDEST PUSH1 0x1 PUSH1 0x1 PUSH1 0xA0 SHL SUB AND EQ PUSH2 0xBDC JUMPI PUSH1 0x40 MLOAD PUSH3 0x461BCD PUSH1 0xE5 SHL DUP2 MSTORE PUSH1 0x4 ADD PUSH2 0x736 SWAP1 PUSH2 0x542C JUMP JUMPDEST PUSH1 0x1 PUSH1 0x2 DUP1 SLOAD PUSH1 0x1 PUSH1 0xA0 SHL SWAP1 DIV PUSH1 0xFF AND SWAP1 DUP2 GT ISZERO PUSH2 0xBFC JUMPI PUSH2 0xBFC PUSH2 0x52E5 JUMP JUMPDEST EQ PUSH2 0xC19 JUMPI PUSH1 0x40 MLOAD PUSH3 0x461BCD PUSH1 0xE5 SHL DUP2 MSTORE PUSH1 0x4 ADD PUSH2 0x736 SWAP1 PUSH2 0x547A JUMP JUMPDEST PUSH2 0xC29 PUSH4 0x733ADC7 PUSH1 0xE3 SHL PUSH2 0x271B JUMP JUMPDEST PUSH2 0xC45 JUMPI PUSH1 0x40 MLOAD PUSH3 0x461BCD PUSH1 0xE5 SHL DUP2 MSTORE PUSH1 0x4 ADD PUSH2 0x736 SWAP1 PUSH2 0x549C JUMP JUMPDEST PUSH1 0x2 DUP1 SLOAD DUP4 SWAP2 SWAP1 PUSH1 0xFF PUSH1 0xA8 SHL NOT AND PUSH1 0x1 PUSH1 0xA8 SHL DUP4 DUP4 DUP2 GT ISZERO PUSH2 0xC69 JUMPI PUSH2 0xC69 PUSH2 0x52E5 JUMP JUMPDEST MUL OR SWAP1 SSTORE POP ADDRESS CALLER PUSH1 0x1 PUSH1 0x1 PUSH1 0xA0 SHL SUB AND PUSH32 0xF5912C5E436152157ED2B4A84BC313B4B1FE09A15B941F195D23C99A1B8C45AD DUP5 PUSH1 0x40 MLOAD PUSH2 0x9E1 SWAP2 SWAP1 PUSH2 0x5326 JUMP JUMPDEST PUSH1 0x0 PUSH1 0x1 PUSH1 0x1 PUSH1 0xA0 SHL SUB PUSH32 0x0 AND ADDRESS SUB PUSH2 0xCF2 JUMPI PUSH1 0x40 MLOAD PUSH3 0x461BCD PUSH1 0xE5 SHL DUP2 MSTORE PUSH1 0x4 ADD PUSH2 0x736 SWAP1 PUSH2 0x5406 JUMP JUMPDEST PUSH32 0x0 PUSH1 0x1 PUSH1 0x1 PUSH1 0xA0 SHL SUB AND PUSH2 0xD24 PUSH2 0x26D2 JUMP JUMPDEST PUSH1 0x1 PUSH1 0x1 PUSH1 0xA0 SHL SUB AND EQ PUSH2 0xD4A JUMPI PUSH1 0x40 MLOAD PUSH3 0x461BCD PUSH1 0xE5 SHL DUP2 MSTORE PUSH1 0x4 ADD PUSH2 0x736 SWAP1 PUSH2 0x542C JUMP JUMPDEST PUSH4 0x21957337 PUSH1 0xE1 SHL PUSH2 0xD5B DUP2 PUSH2 0x271B JUMP JUMPDEST PUSH2 0xD77 JUMPI PUSH1 0x40 MLOAD PUSH3 0x461BCD PUSH1 0xE5 SHL DUP2 MSTORE PUSH1 0x4 ADD PUSH2 0x736 SWAP1 PUSH2 0x549C JUMP JUMPDEST PUSH1 0x0 JUMPDEST DUP4 DUP2 LT ISZERO PUSH2 0x1A3A JUMPI PUSH2 0xDBF DUP6 DUP6 DUP4 DUP2 DUP2 LT PUSH2 0xD97 JUMPI PUSH2 0xD97 PUSH2 0x54F1 JUMP JUMPDEST SWAP1 POP PUSH1 0x20 MUL DUP2 ADD SWAP1 PUSH2 0xDA9 SWAP2 SWAP1 PUSH2 0x5507 JUMP JUMPDEST PUSH2 0xDB7 SWAP1 PUSH1 0x20 DUP2 ADD SWAP1 PUSH2 0x4FAC JUMP JUMPDEST PUSH1 0x4A SWAP1 PUSH2 0x2ACF JUMP JUMPDEST PUSH2 0xDFD JUMPI PUSH1 0x40 MLOAD PUSH3 0x461BCD PUSH1 0xE5 SHL DUP2 MSTORE PUSH1 0x20 PUSH1 0x4 DUP3 ADD MSTORE PUSH1 0xF PUSH1 0x24 DUP3 ADD MSTORE PUSH15 0x119858D95D08139BDD08119BDD5B99 PUSH1 0x8A SHL PUSH1 0x44 DUP3 ADD MSTORE PUSH1 0x64 ADD PUSH2 0x736 JUMP JUMPDEST PUSH1 0x0 PUSH1 0x49 DUP2 DUP8 DUP8 DUP6 DUP2 DUP2 LT PUSH2 0xE14 JUMPI PUSH2 0xE14 PUSH2 0x54F1 JUMP JUMPDEST SWAP1 POP PUSH1 0x20 MUL DUP2 ADD SWAP1 PUSH2 0xE26 SWAP2 SWAP1 PUSH2 0x5507 JUMP JUMPDEST PUSH2 0xE34 SWAP1 PUSH1 0x20 DUP2 ADD SWAP1 PUSH2 0x4FAC JUMP JUMPDEST PUSH1 0x1 PUSH1 0x1 PUSH1 0xA0 SHL SUB AND DUP2 MSTORE PUSH1 0x20 DUP2 ADD SWAP2 SWAP1 SWAP2 MSTORE PUSH1 0x40 ADD PUSH1 0x0 SWAP1 DUP2 KECCAK256 SWAP2 POP DUP7 DUP7 DUP5 DUP2 DUP2 LT PUSH2 0xE63 JUMPI PUSH2 0xE63 PUSH2 0x54F1 JUMP JUMPDEST SWAP1 POP PUSH1 0x20 MUL DUP2 ADD SWAP1 PUSH2 0xE75 SWAP2 SWAP1 PUSH2 0x5507 JUMP JUMPDEST PUSH2 0xE86 SWAP1 PUSH1 0x40 DUP2 ADD SWAP1 PUSH1 0x20 ADD PUSH2 0x4FAC JUMP JUMPDEST PUSH1 0x1 PUSH1 0x1 PUSH1 0xA0 SHL SUB AND EQ ISZERO DUP1 ISZERO PUSH2 0xEDF JUMPI POP DUP6 DUP6 DUP4 DUP2 DUP2 LT PUSH2 0xEAA JUMPI PUSH2 0xEAA PUSH2 0x54F1 JUMP JUMPDEST SWAP1 POP PUSH1 0x20 MUL DUP2 ADD SWAP1 PUSH2 0xEBC SWAP2 SWAP1 PUSH2 0x5507 JUMP JUMPDEST PUSH2 0xECD SWAP1 PUSH1 0x40 DUP2 ADD SWAP1 PUSH1 0x20 ADD PUSH2 0x4FAC JUMP JUMPDEST DUP2 SLOAD PUSH1 0x1 PUSH1 0x1 PUSH1 0xA0 SHL SUB SWAP1 DUP2 AND SWAP2 AND EQ ISZERO JUMPDEST PUSH2 0xF1D JUMPI PUSH1 0x40 MLOAD PUSH3 0x461BCD PUSH1 0xE5 SHL DUP2 MSTORE PUSH1 0x20 PUSH1 0x4 DUP3 ADD MSTORE PUSH1 0xF PUSH1 0x24 DUP3 ADD MSTORE PUSH15 0x496C6C6567616C2055706772616465 PUSH1 0x88 SHL PUSH1 0x44 DUP3 ADD MSTORE PUSH1 0x64 ADD PUSH2 0x736 JUMP JUMPDEST DUP6 DUP6 DUP4 DUP2 DUP2 LT PUSH2 0xF2F JUMPI PUSH2 0xF2F PUSH2 0x54F1 JUMP JUMPDEST SWAP1 POP PUSH1 0x20 MUL DUP2 ADD SWAP1 PUSH2 0xF41 SWAP2 SWAP1 PUSH2 0x5507 JUMP JUMPDEST PUSH2 0xF52 SWAP1 PUSH1 0x40 DUP2 ADD SWAP1 PUSH1 0x20 ADD PUSH2 0x4FAC JUMP JUMPDEST DUP2 SLOAD PUSH1 0x1 PUSH1 0x1 PUSH1 0xA0 SHL SUB NOT AND PUSH1 0x1 PUSH1 0x1 PUSH1 0xA0 SHL SUB SWAP2 SWAP1 SWAP2 AND OR DUP2 SSTORE PUSH1 0x0 DUP7 DUP7 DUP5 DUP2 DUP2 LT PUSH2 0xF81 JUMPI PUSH2 0xF81 PUSH2 0x54F1 JUMP JUMPDEST SWAP1 POP PUSH1 0x20 MUL DUP2 ADD SWAP1 PUSH2 0xF93 SWAP2 SWAP1 PUSH2 0x5507 JUMP JUMPDEST PUSH2 0xFA4 SWAP1 PUSH1 0x60 DUP2 ADD SWAP1 PUSH1 0x40 ADD PUSH2 0x4F2D JUMP JUMPDEST PUSH1 0x1 PUSH1 0x1 PUSH1 0xE0 SHL SUB NOT AND EQ DUP1 ISZERO SWAP1 PUSH2 0x1009 JUMPI POP DUP6 DUP6 DUP4 DUP2 DUP2 LT PUSH2 0xFC9 JUMPI PUSH2 0xFC9 PUSH2 0x54F1 JUMP JUMPDEST SWAP1 POP PUSH1 0x20 MUL DUP2 ADD SWAP1 PUSH2 0xFDB SWAP2 SWAP1 PUSH2 0x5507 JUMP JUMPDEST PUSH2 0xFEC SWAP1 PUSH1 0x60 DUP2 ADD SWAP1 PUSH1 0x40 ADD PUSH2 0x4F2D JUMP JUMPDEST DUP2 SLOAD PUSH1 0x1 PUSH1 0xA0 SHL SWAP1 DIV PUSH1 0xE0 SHL PUSH1 0x1 PUSH1 0x1 PUSH1 0xE0 SHL SUB NOT SWAP1 DUP2 AND SWAP2 AND EQ ISZERO JUMPDEST ISZERO PUSH2 0x1173 JUMPI DUP6 DUP6 DUP4 DUP2 DUP2 LT PUSH2 0x1020 JUMPI PUSH2 0x1020 PUSH2 0x54F1 JUMP JUMPDEST SWAP1 POP PUSH1 0x20 MUL DUP2 ADD SWAP1 PUSH2 0x1032 SWAP2 SWAP1 PUSH2 0x5507 JUMP JUMPDEST PUSH2 0x1040 SWAP1 PUSH1 0x20 DUP2 ADD SWAP1 PUSH2 0x4FAC JUMP JUMPDEST PUSH1 0x1 PUSH1 0x1 PUSH1 0xA0 SHL SUB AND PUSH4 0x1FFC9A7 DUP8 DUP8 DUP6 DUP2 DUP2 LT PUSH2 0x1060 JUMPI PUSH2 0x1060 PUSH2 0x54F1 JUMP JUMPDEST SWAP1 POP PUSH1 0x20 MUL DUP2 ADD SWAP1 PUSH2 0x1072 SWAP2 SWAP1 PUSH2 0x5507 JUMP JUMPDEST PUSH2 0x1083 SWAP1 PUSH1 0x60 DUP2 ADD SWAP1 PUSH1 0x40 ADD PUSH2 0x4F2D JUMP JUMPDEST PUSH1 0x40 MLOAD DUP3 PUSH4 0xFFFFFFFF AND PUSH1 0xE0 SHL DUP2 MSTORE PUSH1 0x4 ADD PUSH2 0x109F SWAP2 SWAP1 PUSH2 0x54BF JUMP JUMPDEST PUSH1 0x20 PUSH1 0x40 MLOAD DUP1 DUP4 SUB DUP2 DUP7 GAS STATICCALL ISZERO DUP1 ISZERO PUSH2 0x10BC JUMPI RETURNDATASIZE PUSH1 0x0 DUP1 RETURNDATACOPY RETURNDATASIZE PUSH1 0x0 REVERT JUMPDEST POP POP POP POP PUSH1 0x40 MLOAD RETURNDATASIZE PUSH1 0x1F NOT PUSH1 0x1F DUP3 ADD AND DUP3 ADD DUP1 PUSH1 0x40 MSTORE POP DUP2 ADD SWAP1 PUSH2 0x10E0 SWAP2 SWAP1 PUSH2 0x54D4 JUMP JUMPDEST PUSH2 0x1120 JUMPI PUSH1 0x40 MLOAD PUSH3 0x461BCD PUSH1 0xE5 SHL DUP2 MSTORE PUSH1 0x20 PUSH1 0x4 DUP3 ADD MSTORE PUSH1 0x11 PUSH1 0x24 DUP3 ADD MSTORE PUSH17 0x496C6C6567616C20496E74657266616365 PUSH1 0x78 SHL PUSH1 0x44 DUP3 ADD MSTORE PUSH1 0x64 ADD PUSH2 0x736 JUMP JUMPDEST DUP6 DUP6 DUP4 DUP2 DUP2 LT PUSH2 0x1132 JUMPI PUSH2 0x1132 PUSH2 0x54F1 JUMP JUMPDEST SWAP1 POP PUSH1 0x20 MUL DUP2 ADD SWAP1 PUSH2 0x1144 SWAP2 SWAP1 PUSH2 0x5507 JUMP JUMPDEST PUSH2 0x1155 SWAP1 PUSH1 0x60 DUP2 ADD SWAP1 PUSH1 0x40 ADD PUSH2 0x4F2D JUMP JUMPDEST DUP2 SLOAD PUSH1 0xE0 SWAP2 SWAP1 SWAP2 SHR PUSH1 0x1 PUSH1 0xA0 SHL MUL PUSH4 0xFFFFFFFF PUSH1 0xA0 SHL NOT SWAP1 SWAP2 AND OR DUP2 SSTORE JUMPDEST PUSH1 0x0 JUMPDEST DUP7 DUP7 DUP5 DUP2 DUP2 LT PUSH2 0x1188 JUMPI PUSH2 0x1188 PUSH2 0x54F1 JUMP JUMPDEST SWAP1 POP PUSH1 0x20 MUL DUP2 ADD SWAP1 PUSH2 0x119A SWAP2 SWAP1 PUSH2 0x5507 JUMP JUMPDEST PUSH2 0x11A8 SWAP1 PUSH1 0x60 DUP2 ADD SWAP1 PUSH2 0x5527 JUMP JUMPDEST SWAP1 POP DUP2 LT ISZERO PUSH2 0x1941 JUMPI PUSH1 0x2 DUP8 DUP8 DUP6 DUP2 DUP2 LT PUSH2 0x11C5 JUMPI PUSH2 0x11C5 PUSH2 0x54F1 JUMP JUMPDEST SWAP1 POP PUSH1 0x20 MUL DUP2 ADD SWAP1 PUSH2 0x11D7 SWAP2 SWAP1 PUSH2 0x5507 JUMP JUMPDEST PUSH2 0x11E5 SWAP1 PUSH1 0x60 DUP2 ADD SWAP1 PUSH2 0x5527 JUMP JUMPDEST DUP4 DUP2 DUP2 LT PUSH2 0x11F5 JUMPI PUSH2 0x11F5 PUSH2 0x54F1 JUMP JUMPDEST SWAP1 POP PUSH1 0x20 MUL DUP2 ADD SWAP1 PUSH2 0x1207 SWAP2 SWAP1 PUSH2 0x5571 JUMP JUMPDEST PUSH2 0x1215 SWAP1 PUSH1 0x20 DUP2 ADD SWAP1 PUSH2 0x5062 JUMP JUMPDEST PUSH1 0x2 DUP2 GT ISZERO PUSH2 0x1226 JUMPI PUSH2 0x1226 PUSH2 0x52E5 JUMP JUMPDEST SUB PUSH2 0x1552 JUMPI PUSH1 0x0 JUMPDEST DUP8 DUP8 DUP6 DUP2 DUP2 LT PUSH2 0x1240 JUMPI PUSH2 0x1240 PUSH2 0x54F1 JUMP JUMPDEST SWAP1 POP PUSH1 0x20 MUL DUP2 ADD SWAP1 PUSH2 0x1252 SWAP2 SWAP1 PUSH2 0x5507 JUMP JUMPDEST PUSH2 0x1260 SWAP1 PUSH1 0x60 DUP2 ADD SWAP1 PUSH2 0x5527 JUMP JUMPDEST DUP4 DUP2 DUP2 LT PUSH2 0x1270 JUMPI PUSH2 0x1270 PUSH2 0x54F1 JUMP JUMPDEST SWAP1 POP PUSH1 0x20 MUL DUP2 ADD SWAP1 PUSH2 0x1282 SWAP2 SWAP1 PUSH2 0x5571 JUMP JUMPDEST PUSH2 0x1290 SWAP1 PUSH1 0x20 DUP2 ADD SWAP1 PUSH2 0x5527 JUMP JUMPDEST SWAP1 POP DUP2 LT ISZERO PUSH2 0x154C JUMPI PUSH1 0x0 PUSH1 0x48 DUP2 DUP11 DUP11 DUP9 DUP2 DUP2 LT PUSH2 0x12B0 JUMPI PUSH2 0x12B0 PUSH2 0x54F1 JUMP JUMPDEST SWAP1 POP PUSH1 0x20 MUL DUP2 ADD SWAP1 PUSH2 0x12C2 SWAP2 SWAP1 PUSH2 0x5507 JUMP JUMPDEST PUSH2 0x12D0 SWAP1 PUSH1 0x60 DUP2 ADD SWAP1 PUSH2 0x5527 JUMP JUMPDEST DUP7 DUP2 DUP2 LT PUSH2 0x12E0 JUMPI PUSH2 0x12E0 PUSH2 0x54F1 JUMP JUMPDEST SWAP1 POP PUSH1 0x20 MUL DUP2 ADD SWAP1 PUSH2 0x12F2 SWAP2 SWAP1 PUSH2 0x5571 JUMP JUMPDEST PUSH2 0x1300 SWAP1 PUSH1 0x20 DUP2 ADD SWAP1 PUSH2 0x5527 JUMP JUMPDEST DUP6 DUP2 DUP2 LT PUSH2 0x1310 JUMPI PUSH2 0x1310 PUSH2 0x54F1 JUMP JUMPDEST SWAP1 POP PUSH1 0x20 MUL ADD PUSH1 0x20 DUP2 ADD SWAP1 PUSH2 0x1325 SWAP2 SWAP1 PUSH2 0x4F2D JUMP JUMPDEST PUSH1 0x1 PUSH1 0x1 PUSH1 0xE0 SHL SUB NOT AND DUP2 MSTORE PUSH1 0x20 DUP2 ADD SWAP2 SWAP1 SWAP2 MSTORE PUSH1 0x40 ADD PUSH1 0x0 KECCAK256 SLOAD PUSH1 0x1 PUSH1 0x1 PUSH1 0xA0 SHL SUB AND SUB PUSH2 0x138B JUMPI PUSH1 0x40 MLOAD PUSH3 0x461BCD PUSH1 0xE5 SHL DUP2 MSTORE PUSH1 0x20 PUSH1 0x4 DUP3 ADD MSTORE PUSH1 0x12 PUSH1 0x24 DUP3 ADD MSTORE PUSH18 0x14D95B1958DD1BDC88139BDD08119BDD5B99 PUSH1 0x72 SHL PUSH1 0x44 DUP3 ADD MSTORE PUSH1 0x64 ADD PUSH2 0x736 JUMP JUMPDEST PUSH1 0x48 PUSH1 0x0 DUP10 DUP10 DUP8 DUP2 DUP2 LT PUSH2 0x13A1 JUMPI PUSH2 0x13A1 PUSH2 0x54F1 JUMP JUMPDEST SWAP1 POP PUSH1 0x20 MUL DUP2 ADD SWAP1 PUSH2 0x13B3 SWAP2 SWAP1 PUSH2 0x5507 JUMP JUMPDEST PUSH2 0x13C1 SWAP1 PUSH1 0x60 DUP2 ADD SWAP1 PUSH2 0x5527 JUMP JUMPDEST DUP6 DUP2 DUP2 LT PUSH2 0x13D1 JUMPI PUSH2 0x13D1 PUSH2 0x54F1 JUMP JUMPDEST SWAP1 POP PUSH1 0x20 MUL DUP2 ADD SWAP1 PUSH2 0x13E3 SWAP2 SWAP1 PUSH2 0x5571 JUMP JUMPDEST PUSH2 0x13F1 SWAP1 PUSH1 0x20 DUP2 ADD SWAP1 PUSH2 0x5527 JUMP JUMPDEST DUP5 DUP2 DUP2 LT PUSH2 0x1401 JUMPI PUSH2 0x1401 PUSH2 0x54F1 JUMP JUMPDEST SWAP1 POP PUSH1 0x20 MUL ADD PUSH1 0x20 DUP2 ADD SWAP1 PUSH2 0x1416 SWAP2 SWAP1 PUSH2 0x4F2D JUMP JUMPDEST PUSH1 0x1 PUSH1 0x1 PUSH1 0xE0 SHL SUB NOT AND DUP2 MSTORE PUSH1 0x20 DUP2 ADD SWAP2 SWAP1 SWAP2 MSTORE PUSH1 0x40 ADD PUSH1 0x0 KECCAK256 DUP1 SLOAD PUSH1 0x1 PUSH1 0x1 PUSH1 0xA0 SHL SUB NOT AND SWAP1 SSTORE DUP8 DUP8 DUP6 DUP2 DUP2 LT PUSH2 0x1450 JUMPI PUSH2 0x1450 PUSH2 0x54F1 JUMP JUMPDEST SWAP1 POP PUSH1 0x20 MUL DUP2 ADD SWAP1 PUSH2 0x1462 SWAP2 SWAP1 PUSH2 0x5507 JUMP JUMPDEST PUSH2 0x1470 SWAP1 PUSH1 0x20 DUP2 ADD SWAP1 PUSH2 0x4FAC JUMP JUMPDEST PUSH1 0x1 PUSH1 0x1 PUSH1 0xA0 SHL SUB AND CALLER PUSH32 0x9CE5BD496043667EC2A3F3ED9B7966AE36677DD0B6A42EEF782C66C6FA248963 DUP11 DUP11 DUP9 DUP2 DUP2 LT PUSH2 0x14AD JUMPI PUSH2 0x14AD PUSH2 0x54F1 JUMP JUMPDEST SWAP1 POP PUSH1 0x20 MUL DUP2 ADD SWAP1 PUSH2 0x14BF SWAP2 SWAP1 PUSH2 0x5507 JUMP JUMPDEST PUSH2 0x14CD SWAP1 PUSH1 0x60 DUP2 ADD SWAP1 PUSH2 0x5527 JUMP JUMPDEST DUP7 DUP2 DUP2 LT PUSH2 0x14DD JUMPI PUSH2 0x14DD PUSH2 0x54F1 JUMP JUMPDEST SWAP1 POP PUSH1 0x20 MUL DUP2 ADD SWAP1 PUSH2 0x14EF SWAP2 SWAP1 PUSH2 0x5571 JUMP JUMPDEST PUSH2 0x14FD SWAP1 PUSH1 0x20 DUP2 ADD SWAP1 PUSH2 0x5527 JUMP JUMPDEST DUP6 DUP2 DUP2 LT PUSH2 0x150D JUMPI PUSH2 0x150D PUSH2 0x54F1 JUMP JUMPDEST SWAP1 POP PUSH1 0x20 MUL ADD PUSH1 0x20 DUP2 ADD SWAP1 PUSH2 0x1522 SWAP2 SWAP1 PUSH2 0x4F2D JUMP JUMPDEST PUSH1 0x2 PUSH1 0x40 MLOAD PUSH2 0x1532 SWAP3 SWAP2 SWAP1 PUSH2 0x5587 JUMP JUMPDEST PUSH1 0x40 MLOAD DUP1 SWAP2 SUB SWAP1 LOG3 DUP1 PUSH2 0x1544 DUP2 PUSH2 0x55C4 JUMP JUMPDEST SWAP2 POP POP PUSH2 0x122E JUMP JUMPDEST POP PUSH2 0x192F JUMP JUMPDEST PUSH1 0x0 DUP8 DUP8 DUP6 DUP2 DUP2 LT PUSH2 0x1566 JUMPI PUSH2 0x1566 PUSH2 0x54F1 JUMP JUMPDEST SWAP1 POP PUSH1 0x20 MUL DUP2 ADD SWAP1 PUSH2 0x1578 SWAP2 SWAP1 PUSH2 0x5507 JUMP JUMPDEST PUSH2 0x1586 SWAP1 PUSH1 0x60 DUP2 ADD SWAP1 PUSH2 0x5527 JUMP JUMPDEST DUP4 DUP2 DUP2 LT PUSH2 0x1596 JUMPI PUSH2 0x1596 PUSH2 0x54F1 JUMP JUMPDEST SWAP1 POP PUSH1 0x20 MUL DUP2 ADD SWAP1 PUSH2 0x15A8 SWAP2 SWAP1 PUSH2 0x5571 JUMP JUMPDEST PUSH2 0x15B6 SWAP1 PUSH1 0x20 DUP2 ADD SWAP1 PUSH2 0x5062 JUMP JUMPDEST PUSH1 0x2 DUP2 GT ISZERO PUSH2 0x15C7 JUMPI PUSH2 0x15C7 PUSH2 0x52E5 JUMP JUMPDEST SUB PUSH2 0x192F JUMPI PUSH1 0x0 JUMPDEST DUP8 DUP8 DUP6 DUP2 DUP2 LT PUSH2 0x15E1 JUMPI PUSH2 0x15E1 PUSH2 0x54F1 JUMP JUMPDEST SWAP1 POP PUSH1 0x20 MUL DUP2 ADD SWAP1 PUSH2 0x15F3 SWAP2 SWAP1 PUSH2 0x5507 JUMP JUMPDEST PUSH2 0x1601 SWAP1 PUSH1 0x60 DUP2 ADD SWAP1 PUSH2 0x5527 JUMP JUMPDEST DUP4 DUP2 DUP2 LT PUSH2 0x1611 JUMPI PUSH2 0x1611 PUSH2 0x54F1 JUMP JUMPDEST SWAP1 POP PUSH1 0x20 MUL DUP2 ADD SWAP1 PUSH2 0x1623 SWAP2 SWAP1 PUSH2 0x5571 JUMP JUMPDEST PUSH2 0x1631 SWAP1 PUSH1 0x20 DUP2 ADD SWAP1 PUSH2 0x5527 JUMP JUMPDEST SWAP1 POP DUP2 LT ISZERO PUSH2 0x192D JUMPI PUSH1 0x0 PUSH1 0x48 DUP2 DUP11 DUP11 DUP9 DUP2 DUP2 LT PUSH2 0x1651 JUMPI PUSH2 0x1651 PUSH2 0x54F1 JUMP JUMPDEST SWAP1 POP PUSH1 0x20 MUL DUP2 ADD SWAP1 PUSH2 0x1663 SWAP2 SWAP1 PUSH2 0x5507 JUMP JUMPDEST PUSH2 0x1671 SWAP1 PUSH1 0x60 DUP2 ADD SWAP1 PUSH2 0x5527 JUMP JUMPDEST DUP7 DUP2 DUP2 LT PUSH2 0x1681 JUMPI PUSH2 0x1681 PUSH2 0x54F1 JUMP JUMPDEST SWAP1 POP PUSH1 0x20 MUL DUP2 ADD SWAP1 PUSH2 0x1693 SWAP2 SWAP1 PUSH2 0x5571 JUMP JUMPDEST PUSH2 0x16A1 SWAP1 PUSH1 0x20 DUP2 ADD SWAP1 PUSH2 0x5527 JUMP JUMPDEST DUP6 DUP2 DUP2 LT PUSH2 0x16B1 JUMPI PUSH2 0x16B1 PUSH2 0x54F1 JUMP JUMPDEST SWAP1 POP PUSH1 0x20 MUL ADD PUSH1 0x20 DUP2 ADD SWAP1 PUSH2 0x16C6 SWAP2 SWAP1 PUSH2 0x4F2D JUMP JUMPDEST PUSH1 0x1 PUSH1 0x1 PUSH1 0xE0 SHL SUB NOT AND DUP2 MSTORE PUSH1 0x20 DUP2 ADD SWAP2 SWAP1 SWAP2 MSTORE PUSH1 0x40 ADD PUSH1 0x0 KECCAK256 SLOAD PUSH1 0x1 PUSH1 0x1 PUSH1 0xA0 SHL SUB AND EQ PUSH2 0x172A JUMPI PUSH1 0x40 MLOAD PUSH3 0x461BCD PUSH1 0xE5 SHL DUP2 MSTORE PUSH1 0x20 PUSH1 0x4 DUP3 ADD MSTORE PUSH1 0x10 PUSH1 0x24 DUP3 ADD MSTORE PUSH16 0x24B63632B3B0B61029B2B632B1BA37B9 PUSH1 0x81 SHL PUSH1 0x44 DUP3 ADD MSTORE PUSH1 0x64 ADD PUSH2 0x736 JUMP JUMPDEST DUP8 DUP8 DUP6 DUP2 DUP2 LT PUSH2 0x173C JUMPI PUSH2 0x173C PUSH2 0x54F1 JUMP JUMPDEST SWAP1 POP PUSH1 0x20 MUL DUP2 ADD SWAP1 PUSH2 0x174E SWAP2 SWAP1 PUSH2 0x5507 JUMP JUMPDEST PUSH2 0x175C SWAP1 PUSH1 0x20 DUP2 ADD SWAP1 PUSH2 0x4FAC JUMP JUMPDEST PUSH1 0x48 PUSH1 0x0 DUP11 DUP11 DUP9 DUP2 DUP2 LT PUSH2 0x1772 JUMPI PUSH2 0x1772 PUSH2 0x54F1 JUMP JUMPDEST SWAP1 POP PUSH1 0x20 MUL DUP2 ADD SWAP1 PUSH2 0x1784 SWAP2 SWAP1 PUSH2 0x5507 JUMP JUMPDEST PUSH2 0x1792 SWAP1 PUSH1 0x60 DUP2 ADD SWAP1 PUSH2 0x5527 JUMP JUMPDEST DUP7 DUP2 DUP2 LT PUSH2 0x17A2 JUMPI PUSH2 0x17A2 PUSH2 0x54F1 JUMP JUMPDEST SWAP1 POP PUSH1 0x20 MUL DUP2 ADD SWAP1 PUSH2 0x17B4 SWAP2 SWAP1 PUSH2 0x5571 JUMP JUMPDEST PUSH2 0x17C2 SWAP1 PUSH1 0x20 DUP2 ADD SWAP1 PUSH2 0x5527 JUMP JUMPDEST DUP6 DUP2 DUP2 LT PUSH2 0x17D2 JUMPI PUSH2 0x17D2 PUSH2 0x54F1 JUMP JUMPDEST SWAP1 POP PUSH1 0x20 MUL ADD PUSH1 0x20 DUP2 ADD SWAP1 PUSH2 0x17E7 SWAP2 SWAP1 PUSH2 0x4F2D JUMP JUMPDEST PUSH1 0x1 PUSH1 0x1 PUSH1 0xE0 SHL SUB NOT AND DUP2 MSTORE PUSH1 0x20 DUP2 ADD SWAP2 SWAP1 SWAP2 MSTORE PUSH1 0x40 ADD PUSH1 0x0 KECCAK256 DUP1 SLOAD PUSH1 0x1 PUSH1 0x1 PUSH1 0xA0 SHL SUB NOT AND PUSH1 0x1 PUSH1 0x1 PUSH1 0xA0 SHL SUB SWAP3 SWAP1 SWAP3 AND SWAP2 SWAP1 SWAP2 OR SWAP1 SSTORE DUP8 DUP8 DUP6 DUP2 DUP2 LT PUSH2 0x1831 JUMPI PUSH2 0x1831 PUSH2 0x54F1 JUMP JUMPDEST SWAP1 POP PUSH1 0x20 MUL DUP2 ADD SWAP1 PUSH2 0x1843 SWAP2 SWAP1 PUSH2 0x5507 JUMP JUMPDEST PUSH2 0x1851 SWAP1 PUSH1 0x20 DUP2 ADD SWAP1 PUSH2 0x4FAC JUMP JUMPDEST PUSH1 0x1 PUSH1 0x1 PUSH1 0xA0 SHL SUB AND CALLER PUSH32 0x9CE5BD496043667EC2A3F3ED9B7966AE36677DD0B6A42EEF782C66C6FA248963 DUP11 DUP11 DUP9 DUP2 DUP2 LT PUSH2 0x188E JUMPI PUSH2 0x188E PUSH2 0x54F1 JUMP JUMPDEST SWAP1 POP PUSH1 0x20 MUL DUP2 ADD SWAP1 PUSH2 0x18A0 SWAP2 SWAP1 PUSH2 0x5507 JUMP JUMPDEST PUSH2 0x18AE SWAP1 PUSH1 0x60 DUP2 ADD SWAP1 PUSH2 0x5527 JUMP JUMPDEST DUP7 DUP2 DUP2 LT PUSH2 0x18BE JUMPI PUSH2 0x18BE PUSH2 0x54F1 JUMP JUMPDEST SWAP1 POP PUSH1 0x20 MUL DUP2 ADD SWAP1 PUSH2 0x18D0 SWAP2 SWAP1 PUSH2 0x5571 JUMP JUMPDEST PUSH2 0x18DE SWAP1 PUSH1 0x20 DUP2 ADD SWAP1 PUSH2 0x5527 JUMP JUMPDEST DUP6 DUP2 DUP2 LT PUSH2 0x18EE JUMPI PUSH2 0x18EE PUSH2 0x54F1 JUMP JUMPDEST SWAP1 POP PUSH1 0x20 MUL ADD PUSH1 0x20 DUP2 ADD SWAP1 PUSH2 0x1903 SWAP2 SWAP1 PUSH2 0x4F2D JUMP JUMPDEST PUSH1 0x0 PUSH1 0x40 MLOAD PUSH2 0x1913 SWAP3 SWAP2 SWAP1 PUSH2 0x5587 JUMP JUMPDEST PUSH1 0x40 MLOAD DUP1 SWAP2 SUB SWAP1 LOG3 DUP1 PUSH2 0x1925 DUP2 PUSH2 0x55C4 JUMP JUMPDEST SWAP2 POP POP PUSH2 0x15CF JUMP JUMPDEST POP JUMPDEST DUP1 PUSH2 0x1939 DUP2 PUSH2 0x55C4 JUMP JUMPDEST SWAP2 POP POP PUSH2 0x1176 JUMP JUMPDEST POP DUP6 DUP6 DUP4 DUP2 DUP2 LT PUSH2 0x1954 JUMPI PUSH2 0x1954 PUSH2 0x54F1 JUMP JUMPDEST SWAP1 POP PUSH1 0x20 MUL DUP2 ADD SWAP1 PUSH2 0x1966 SWAP2 SWAP1 PUSH2 0x5507 JUMP JUMPDEST PUSH2 0x1977 SWAP1 PUSH1 0x40 DUP2 ADD SWAP1 PUSH1 0x20 ADD PUSH2 0x4FAC JUMP JUMPDEST PUSH1 0x1 PUSH1 0x1 PUSH1 0xA0 SHL SUB AND DUP7 DUP7 DUP5 DUP2 DUP2 LT PUSH2 0x1992 JUMPI PUSH2 0x1992 PUSH2 0x54F1 JUMP JUMPDEST SWAP1 POP PUSH1 0x20 MUL DUP2 ADD SWAP1 PUSH2 0x19A4 SWAP2 SWAP1 PUSH2 0x5507 JUMP JUMPDEST PUSH2 0x19B2 SWAP1 PUSH1 0x20 DUP2 ADD SWAP1 PUSH2 0x4FAC JUMP JUMPDEST PUSH1 0x1 PUSH1 0x1 PUSH1 0xA0 SHL SUB AND CALLER PUSH32 0xA95A243B8CFDB38C19F4BD2555BAE013E874DC4DABFBC1B83A0769EF6B50332E DUP10 DUP10 DUP8 DUP2 DUP2 LT PUSH2 0x19EF JUMPI PUSH2 0x19EF PUSH2 0x54F1 JUMP JUMPDEST SWAP1 POP PUSH1 0x20 MUL DUP2 ADD SWAP1 PUSH2 0x1A01 SWAP2 SWAP1 PUSH2 0x5507 JUMP JUMPDEST PUSH2 0x1A12 SWAP1 PUSH1 0x60 DUP2 ADD SWAP1 PUSH1 0x40 ADD PUSH2 0x4F2D JUMP JUMPDEST PUSH1 0x40 MLOAD PUSH2 0x1A1F SWAP2 SWAP1 PUSH2 0x54BF JUMP JUMPDEST PUSH1 0x40 MLOAD DUP1 SWAP2 SUB SWAP1 LOG4 POP DUP1 PUSH2 0x1A32 DUP2 PUSH2 0x55C4 JUMP JUMPDEST SWAP2 POP POP PUSH2 0xD7A JUMP JUMPDEST POP PUSH1 0x1 SWAP2 POP JUMPDEST POP SWAP3 SWAP2 POP POP JUMP JUMPDEST PUSH1 0x1 PUSH1 0x1 PUSH1 0xA0 SHL SUB PUSH32 0x0 AND ADDRESS SUB PUSH2 0x1A8F JUMPI PUSH1 0x40 MLOAD PUSH3 0x461BCD PUSH1 0xE5 SHL DUP2 MSTORE PUSH1 0x4 ADD PUSH2 0x736 SWAP1 PUSH2 0x5406 JUMP JUMPDEST PUSH32 0x0 PUSH1 0x1 PUSH1 0x1 PUSH1 0xA0 SHL SUB AND PUSH2 0x1AC1 PUSH2 0x26D2 JUMP JUMPDEST PUSH1 0x1 PUSH1 0x1 PUSH1 0xA0 SHL SUB AND EQ PUSH2 0x1AE7 JUMPI PUSH1 0x40 MLOAD PUSH3 0x461BCD PUSH1 0xE5 SHL DUP2 MSTORE PUSH1 0x4 ADD PUSH2 0x736 SWAP1 PUSH2 0x542C JUMP JUMPDEST CALLER PUSH2 0x1AF0 PUSH2 0x26F3 JUMP JUMPDEST PUSH1 0x1 PUSH1 0x1 PUSH1 0xA0 SHL SUB AND EQ PUSH2 0x1B16 JUMPI PUSH1 0x40 MLOAD PUSH3 0x461BCD PUSH1 0xE5 SHL DUP2 MSTORE PUSH1 0x4 ADD PUSH2 0x736 SWAP1 PUSH2 0x5452 JUMP JUMPDEST PUSH1 0x4C SLOAD PUSH3 0x10000 SWAP1 DIV PUSH1 0xFF AND ISZERO DUP1 DUP1 ISZERO PUSH2 0x1B38 JUMPI POP PUSH1 0x4C SLOAD PUSH1 0x1 PUSH2 0xFFFF SWAP1 SWAP2 AND LT JUMPDEST DUP1 PUSH2 0x1B53 JUMPI POP ADDRESS EXTCODESIZE ISZERO DUP1 ISZERO PUSH2 0x1B53 JUMPI POP PUSH1 0x4C SLOAD PUSH2 0xFFFF AND PUSH1 0x1 EQ JUMPDEST PUSH2 0x1B9F JUMPI PUSH1 0x40 MLOAD PUSH3 0x461BCD PUSH1 0xE5 SHL DUP2 MSTORE PUSH1 0x20 PUSH1 0x4 DUP3 ADD MSTORE PUSH1 0x1C PUSH1 0x24 DUP3 ADD MSTORE PUSH32 0x436F6E747261637420416C726561647920496E697469616C697A656400000000 PUSH1 0x44 DUP3 ADD MSTORE PUSH1 0x64 ADD PUSH2 0x736 JUMP JUMPDEST PUSH1 0x4C DUP1 SLOAD PUSH2 0xFFFF NOT AND PUSH1 0x1 OR SWAP1 SSTORE DUP1 ISZERO PUSH2 0x1BC5 JUMPI PUSH1 0x4C DUP1 SLOAD PUSH3 0xFF0000 NOT AND PUSH3 0x10000 OR SWAP1 SSTORE JUMPDEST PUSH20 0x0 PUSH4 0x8439D9BA PUSH1 0x44 PUSH2 0x1BE9 PUSH2 0x26D2 JUMP JUMPDEST PUSH1 0x40 MLOAD PUSH1 0x1 PUSH1 0x1 PUSH1 0xE0 SHL SUB NOT PUSH1 0xE0 DUP6 SWAP1 SHL AND DUP2 MSTORE PUSH1 0x4 DUP2 ADD SWAP3 SWAP1 SWAP3 MSTORE PUSH1 0x1 PUSH1 0x1 PUSH1 0xA0 SHL SUB AND PUSH1 0x24 DUP3 ADD MSTORE PUSH1 0x44 ADD PUSH1 0x0 PUSH1 0x40 MLOAD DUP1 DUP4 SUB DUP2 DUP7 DUP1 EXTCODESIZE ISZERO DUP1 ISZERO PUSH2 0x1C2E JUMPI PUSH1 0x0 DUP1 REVERT JUMPDEST POP GAS DELEGATECALL ISZERO DUP1 ISZERO PUSH2 0x1C42 JUMPI RETURNDATASIZE PUSH1 0x0 DUP1 RETURNDATACOPY RETURNDATASIZE PUSH1 0x0 REVERT JUMPDEST POP POP POP POP PUSH2 0x1C53 DUP6 DUP6 DUP6 DUP6 ADDRESS PUSH2 0x2AF1 JUMP JUMPDEST PUSH1 0x43 DUP1 SLOAD PUSH1 0xFF NOT AND PUSH1 0x1 OR SWAP1 SSTORE PUSH2 0x1C68 PUSH2 0x26D2 JUMP JUMPDEST PUSH1 0x1 PUSH1 0x1 PUSH1 0xA0 SHL SUB AND ADDRESS CALLER PUSH1 0x1 PUSH1 0x1 PUSH1 0xA0 SHL SUB AND PUSH32 0x247AB7B17EE489FA140C6666EDC3822EEFED2727610CD6E37192462B87244C60 DUP9 DUP9 DUP9 DUP9 PUSH2 0x1CAE PUSH1 0x4C SLOAD PUSH2 0xFFFF AND SWAP1 JUMP JUMPDEST PUSH1 0x40 MLOAD PUSH2 0x1CBF SWAP6 SWAP5 SWAP4 SWAP3 SWAP2 SWAP1 PUSH2 0x5606 JUMP JUMPDEST PUSH1 0x40 MLOAD DUP1 SWAP2 SUB SWAP1 LOG4 DUP1 ISZERO PUSH2 0x1CDA JUMPI PUSH1 0x4C DUP1 SLOAD PUSH3 0xFF0000 NOT AND SWAP1 SSTORE JUMPDEST POP POP POP POP POP JUMP JUMPDEST PUSH1 0x0 ADDRESS PUSH1 0x1 PUSH1 0x1 PUSH1 0xA0 SHL SUB PUSH32 0x0 AND EQ PUSH2 0x1D52 JUMPI PUSH1 0x40 MLOAD PUSH3 0x461BCD PUSH1 0xE5 SHL DUP2 MSTORE PUSH1 0x20 PUSH1 0x4 DUP3 ADD MSTORE PUSH1 0x14 PUSH1 0x24 DUP3 ADD MSTORE PUSH20 0x125B1B1959D85B0811195B1959D85D1958D85B1B PUSH1 0x62 SHL PUSH1 0x44 DUP3 ADD MSTORE PUSH1 0x64 ADD PUSH2 0x736 JUMP JUMPDEST POP PUSH1 0x0 DUP1 MLOAD PUSH1 0x20 PUSH2 0x5BA2 DUP4 CODECOPY DUP2 MLOAD SWAP2 MSTORE SWAP1 JUMP JUMPDEST PUSH1 0x1 PUSH1 0x1 PUSH1 0xA0 SHL SUB PUSH32 0x0 AND ADDRESS SUB PUSH2 0x1DAD JUMPI PUSH1 0x40 MLOAD PUSH3 0x461BCD PUSH1 0xE5 SHL DUP2 MSTORE PUSH1 0x4 ADD PUSH2 0x736 SWAP1 PUSH2 0x5406 JUMP JUMPDEST PUSH32 0x0 PUSH1 0x1 PUSH1 0x1 PUSH1 0xA0 SHL SUB AND PUSH2 0x1DDF PUSH2 0x26D2 JUMP JUMPDEST PUSH1 0x1 PUSH1 0x1 PUSH1 0xA0 SHL SUB AND EQ PUSH2 0x1E05 JUMPI PUSH1 0x40 MLOAD PUSH3 0x461BCD PUSH1 0xE5 SHL DUP2 MSTORE PUSH1 0x4 ADD PUSH2 0x736 SWAP1 PUSH2 0x542C JUMP JUMPDEST CALLER PUSH2 0x1E0E PUSH2 0x26F3 JUMP JUMPDEST PUSH1 0x1 PUSH1 0x1 PUSH1 0xA0 SHL SUB AND EQ PUSH2 0x1E34 JUMPI PUSH1 0x40 MLOAD PUSH3 0x461BCD PUSH1 0xE5 SHL DUP2 MSTORE PUSH1 0x4 ADD PUSH2 0x736 SWAP1 PUSH2 0x5452 JUMP JUMPDEST PUSH2 0x1E3E DUP3 DUP3 PUSH2 0x2AFE JUMP JUMPDEST PUSH2 0x1E51 DUP5 DUP5 PUSH2 0x1E4C DUP6 PUSH2 0x3A72 JUMP JUMPDEST PUSH2 0x3AB2 JUMP JUMPDEST POP POP POP POP JUMP JUMPDEST PUSH1 0x0 PUSH2 0x6E7 PUSH2 0x26D2 JUMP JUMPDEST PUSH1 0x60 PUSH1 0x1 PUSH1 0x1 PUSH1 0xA0 SHL SUB PUSH32 0x0 AND ADDRESS SUB PUSH2 0x1EAB JUMPI PUSH1 0x40 MLOAD PUSH3 0x461BCD PUSH1 0xE5 SHL DUP2 MSTORE PUSH1 0x4 ADD PUSH2 0x736 SWAP1 PUSH2 0x5406 JUMP JUMPDEST PUSH32 0x0 PUSH1 0x1 PUSH1 0x1 PUSH1 0xA0 SHL SUB AND PUSH2 0x1EDD PUSH2 0x26D2 JUMP JUMPDEST PUSH1 0x1 PUSH1 0x1 PUSH1 0xA0 SHL SUB AND EQ PUSH2 0x1F03 JUMPI PUSH1 0x40 MLOAD PUSH3 0x461BCD PUSH1 0xE5 SHL DUP2 MSTORE PUSH1 0x4 ADD PUSH2 0x736 SWAP1 PUSH2 0x542C JUMP JUMPDEST PUSH1 0x1 PUSH1 0x2 DUP1 SLOAD PUSH1 0x1 PUSH1 0xA0 SHL SWAP1 DIV PUSH1 0xFF AND SWAP1 DUP2 GT ISZERO PUSH2 0x1F23 JUMPI PUSH2 0x1F23 PUSH2 0x52E5 JUMP JUMPDEST EQ PUSH2 0x1F40 JUMPI PUSH1 0x40 MLOAD PUSH3 0x461BCD PUSH1 0xE5 SHL DUP2 MSTORE PUSH1 0x4 ADD PUSH2 0x736 SWAP1 PUSH2 0x547A JUMP JUMPDEST PUSH1 0x2 DUP1 DUP1 SLOAD PUSH1 0x1 PUSH1 0xA8 SHL SWAP1 DIV PUSH1 0xFF AND SWAP1 DUP2 GT ISZERO PUSH2 0x1F5F JUMPI PUSH2 0x1F5F PUSH2 0x52E5 JUMP JUMPDEST EQ PUSH2 0x1F9E JUMPI PUSH1 0x40 MLOAD PUSH3 0x461BCD PUSH1 0xE5 SHL DUP2 MSTORE PUSH1 0x20 PUSH1 0x4 DUP3 ADD MSTORE PUSH1 0xF PUSH1 0x24 DUP3 ADD MSTORE PUSH15 0x496C6C6567616C2055706772616465 PUSH1 0x88 SHL PUSH1 0x44 DUP3 ADD MSTORE PUSH1 0x64 ADD PUSH2 0x736 JUMP JUMPDEST PUSH2 0x1FA7 DUP5 PUSH2 0x40D4 JUMP JUMPDEST PUSH2 0x1FB2 DUP5 DUP5 DUP5 PUSH2 0x4155 JUMP JUMPDEST SWAP1 POP JUMPDEST SWAP4 SWAP3 POP POP POP JUMP JUMPDEST PUSH1 0x0 PUSH1 0x1 PUSH1 0x2 DUP1 SLOAD PUSH1 0x1 PUSH1 0xA0 SHL SWAP1 DIV PUSH1 0xFF AND SWAP1 DUP2 GT ISZERO PUSH2 0x1FDE JUMPI PUSH2 0x1FDE PUSH2 0x52E5 JUMP JUMPDEST EQ PUSH2 0x1FFB JUMPI PUSH1 0x40 MLOAD PUSH3 0x461BCD PUSH1 0xE5 SHL DUP2 MSTORE PUSH1 0x4 ADD PUSH2 0x736 SWAP1 PUSH2 0x547A JUMP JUMPDEST PUSH2 0x200B PUSH4 0x756AF45F PUSH1 0xE0 SHL PUSH2 0x271B JUMP JUMPDEST PUSH2 0x2027 JUMPI PUSH1 0x40 MLOAD PUSH3 0x461BCD PUSH1 0xE5 SHL DUP2 MSTORE PUSH1 0x4 ADD PUSH2 0x736 SWAP1 PUSH2 0x549C JUMP JUMPDEST PUSH1 0x40 MLOAD SELFBALANCE SWAP1 PUSH1 0x1 PUSH1 0x1 PUSH1 0xA0 SHL SUB DUP5 AND SWAP1 SELFBALANCE DUP1 ISZERO PUSH2 0x8FC MUL SWAP2 PUSH1 0x0 DUP2 DUP2 DUP2 DUP6 DUP9 DUP9 CALL SWAP4 POP POP POP POP ISZERO DUP1 ISZERO PUSH2 0x1A40 JUMPI RETURNDATASIZE PUSH1 0x0 DUP1 RETURNDATACOPY RETURNDATASIZE PUSH1 0x0 REVERT JUMPDEST PUSH1 0x60 PUSH1 0x0 DUP1 SLOAD PUSH2 0x206D SWAP1 PUSH2 0x5644 JUMP JUMPDEST DUP1 PUSH1 0x1F ADD PUSH1 0x20 DUP1 SWAP2 DIV MUL PUSH1 0x20 ADD PUSH1 0x40 MLOAD SWAP1 DUP2 ADD PUSH1 0x40 MSTORE DUP1 SWAP3 SWAP2 SWAP1 DUP2 DUP2 MSTORE PUSH1 0x20 ADD DUP3 DUP1 SLOAD PUSH2 0x2099 SWAP1 PUSH2 0x5644 JUMP JUMPDEST DUP1 ISZERO PUSH2 0x20E6 JUMPI DUP1 PUSH1 0x1F LT PUSH2 0x20BB JUMPI PUSH2 0x100 DUP1 DUP4 SLOAD DIV MUL DUP4 MSTORE SWAP2 PUSH1 0x20 ADD SWAP2 PUSH2 0x20E6 JUMP JUMPDEST DUP3 ADD SWAP2 SWAP1 PUSH1 0x0 MSTORE PUSH1 0x20 PUSH1 0x0 KECCAK256 SWAP1 JUMPDEST DUP2 SLOAD DUP2 MSTORE SWAP1 PUSH1 0x1 ADD SWAP1 PUSH1 0x20 ADD DUP1 DUP4 GT PUSH2 0x20C9 JUMPI DUP3 SWAP1 SUB PUSH1 0x1F AND DUP3 ADD SWAP2 JUMPDEST POP POP POP POP POP SWAP1 POP SWAP1 JUMP JUMPDEST PUSH1 0x60 PUSH1 0x1 DUP1 SLOAD PUSH2 0x206D SWAP1 PUSH2 0x5644 JUMP JUMPDEST PUSH2 0x214E PUSH1 0x40 DUP1 MLOAD PUSH2 0x120 DUP2 ADD DUP3 MSTORE PUSH1 0x0 DUP1 DUP3 MSTORE PUSH1 0x60 PUSH1 0x20 DUP4 ADD DUP2 SWAP1 MSTORE SWAP3 DUP3 ADD DUP4 SWAP1 MSTORE SWAP2 DUP2 ADD DUP3 SWAP1 MSTORE PUSH1 0x80 DUP2 ADD DUP3 SWAP1 MSTORE PUSH1 0xA0 DUP2 ADD DUP3 SWAP1 MSTORE PUSH1 0xC0 DUP2 ADD DUP3 SWAP1 MSTORE SWAP1 PUSH1 0xE0 DUP3 ADD SWAP1 DUP2 MSTORE PUSH1 0x20 ADD PUSH1 0x0 SWAP1 MSTORE SWAP1 JUMP JUMPDEST PUSH1 0x40 MLOAD DUP1 PUSH2 0x120 ADD PUSH1 0x40 MSTORE DUP1 PUSH2 0x2162 PUSH2 0x4311 JUMP JUMPDEST DUP2 MSTORE PUSH1 0x20 ADD PUSH1 0x0 DUP1 SLOAD PUSH2 0x2174 SWAP1 PUSH2 0x5644 JUMP JUMPDEST DUP1 PUSH1 0x1F ADD PUSH1 0x20 DUP1 SWAP2 DIV MUL PUSH1 0x20 ADD PUSH1 0x40 MLOAD SWAP1 DUP2 ADD PUSH1 0x40 MSTORE DUP1 SWAP3 SWAP2 SWAP1 DUP2 DUP2 MSTORE PUSH1 0x20 ADD DUP3 DUP1 SLOAD PUSH2 0x21A0 SWAP1 PUSH2 0x5644 JUMP JUMPDEST DUP1 ISZERO PUSH2 0x21ED JUMPI DUP1 PUSH1 0x1F LT PUSH2 0x21C2 JUMPI PUSH2 0x100 DUP1 DUP4 SLOAD DIV MUL DUP4 MSTORE SWAP2 PUSH1 0x20 ADD SWAP2 PUSH2 0x21ED JUMP JUMPDEST DUP3 ADD SWAP2 SWAP1 PUSH1 0x0 MSTORE PUSH1 0x20 PUSH1 0x0 KECCAK256 SWAP1 JUMPDEST DUP2 SLOAD DUP2 MSTORE SWAP1 PUSH1 0x1 ADD SWAP1 PUSH1 0x20 ADD DUP1 DUP4 GT PUSH2 0x21D0 JUMPI DUP3 SWAP1 SUB PUSH1 0x1F AND DUP3 ADD SWAP2 JUMPDEST POP POP POP POP POP DUP2 MSTORE PUSH1 0x20 ADD PUSH1 0x1 DUP1 SLOAD PUSH2 0x2204 SWAP1 PUSH2 0x5644 JUMP JUMPDEST DUP1 PUSH1 0x1F ADD PUSH1 0x20 DUP1 SWAP2 DIV MUL PUSH1 0x20 ADD PUSH1 0x40 MLOAD SWAP1 DUP2 ADD PUSH1 0x40 MSTORE DUP1 SWAP3 SWAP2 SWAP1 DUP2 DUP2 MSTORE PUSH1 0x20 ADD DUP3 DUP1 SLOAD PUSH2 0x2230 SWAP1 PUSH2 0x5644 JUMP JUMPDEST DUP1 ISZERO PUSH2 0x227D JUMPI DUP1 PUSH1 0x1F LT PUSH2 0x2252 JUMPI PUSH2 0x100 DUP1 DUP4 SLOAD DIV MUL DUP4 MSTORE SWAP2 PUSH1 0x20 ADD SWAP2 PUSH2 0x227D JUMP JUMPDEST DUP3 ADD SWAP2 SWAP1 PUSH1 0x0 MSTORE PUSH1 0x20 PUSH1 0x0 KECCAK256 SWAP1 JUMPDEST DUP2 SLOAD DUP2 MSTORE SWAP1 PUSH1 0x1 ADD SWAP1 PUSH1 0x20 ADD DUP1 DUP4 GT PUSH2 0x2260 JUMPI DUP3 SWAP1 SUB PUSH1 0x1F AND DUP3 ADD SWAP2 JUMPDEST POP POP POP SWAP2 DUP4 MSTORE POP POP PUSH1 0x2 SLOAD PUSH1 0x1 PUSH1 0x1 PUSH1 0xA0 SHL SUB AND PUSH1 0x20 DUP3 ADD MSTORE PUSH1 0x40 ADD PUSH2 0x22A1 PUSH2 0x26D2 JUMP JUMPDEST PUSH1 0x1 PUSH1 0x1 PUSH1 0xA0 SHL SUB AND DUP2 MSTORE PUSH1 0x20 ADD PUSH2 0x22B7 PUSH2 0x26F3 JUMP JUMPDEST PUSH1 0x1 PUSH1 0x1 PUSH1 0xA0 SHL SUB AND DUP2 MSTORE PUSH1 0x20 ADD PUSH2 0x22D2 PUSH1 0x4C SLOAD PUSH2 0xFFFF AND SWAP1 JUMP JUMPDEST PUSH2 0xFFFF AND DUP2 MSTORE PUSH1 0x20 ADD PUSH1 0x2 PUSH1 0x14 SWAP1 SLOAD SWAP1 PUSH2 0x100 EXP SWAP1 DIV PUSH1 0xFF AND PUSH1 0x2 DUP2 GT ISZERO PUSH2 0x22FC JUMPI PUSH2 0x22FC PUSH2 0x52E5 JUMP JUMPDEST DUP2 MSTORE PUSH1 0x20 ADD PUSH1 0x2 PUSH1 0x15 SWAP1 SLOAD SWAP1 PUSH2 0x100 EXP SWAP1 DIV PUSH1 0xFF AND PUSH1 0x2 DUP2 GT ISZERO PUSH2 0x2322 JUMPI PUSH2 0x2322 PUSH2 0x52E5 JUMP JUMPDEST SWAP1 MSTORE SWAP2 SWAP1 POP JUMP JUMPDEST PUSH1 0x0 PUSH1 0x1 PUSH1 0x1 PUSH1 0xA0 SHL SUB PUSH32 0x0 AND ADDRESS SUB PUSH2 0x2373 JUMPI PUSH1 0x40 MLOAD PUSH3 0x461BCD PUSH1 0xE5 SHL DUP2 MSTORE PUSH1 0x4 ADD PUSH2 0x736 SWAP1 PUSH2 0x5406 JUMP JUMPDEST PUSH32 0x0 PUSH1 0x1 PUSH1 0x1 PUSH1 0xA0 SHL SUB AND PUSH2 0x23A5 PUSH2 0x26D2 JUMP JUMPDEST PUSH1 0x1 PUSH1 0x1 PUSH1 0xA0 SHL SUB AND EQ PUSH2 0x23CB JUMPI PUSH1 0x40 MLOAD PUSH3 0x461BCD PUSH1 0xE5 SHL DUP2 MSTORE PUSH1 0x4 ADD PUSH2 0x736 SWAP1 PUSH2 0x542C JUMP JUMPDEST PUSH1 0x1 PUSH1 0x2 DUP1 SLOAD PUSH1 0x1 PUSH1 0xA0 SHL SWAP1 DIV PUSH1 0xFF AND SWAP1 DUP2 GT ISZERO PUSH2 0x23EB JUMPI PUSH2 0x23EB PUSH2 0x52E5 JUMP JUMPDEST EQ PUSH2 0x2408 JUMPI PUSH1 0x40 MLOAD PUSH3 0x461BCD PUSH1 0xE5 SHL DUP2 MSTORE PUSH1 0x4 ADD PUSH2 0x736 SWAP1 PUSH2 0x547A JUMP JUMPDEST PUSH1 0x2 DUP1 DUP1 SLOAD PUSH1 0x1 PUSH1 0xA8 SHL SWAP1 DIV PUSH1 0xFF AND SWAP1 DUP2 GT ISZERO PUSH2 0x2427 JUMPI PUSH2 0x2427 PUSH2 0x52E5 JUMP JUMPDEST EQ PUSH2 0x2465 JUMPI PUSH1 0x40 MLOAD PUSH3 0x461BCD PUSH1 0xE5 SHL DUP2 MSTORE PUSH1 0x20 PUSH1 0x4 DUP3 ADD MSTORE PUSH1 0xE PUSH1 0x24 DUP3 ADD MSTORE PUSH14 0x496C6C6567616C20557064617465 PUSH1 0x90 SHL PUSH1 0x44 DUP3 ADD MSTORE PUSH1 0x64 ADD PUSH2 0x736 JUMP JUMPDEST PUSH2 0x2475 PUSH4 0xD9DC1F19 PUSH1 0xE0 SHL PUSH2 0x271B JUMP JUMPDEST PUSH2 0x2491 JUMPI PUSH1 0x40 MLOAD PUSH3 0x461BCD PUSH1 0xE5 SHL DUP2 MSTORE PUSH1 0x4 ADD PUSH2 0x736 SWAP1 PUSH2 0x549C JUMP JUMPDEST PUSH1 0x1 PUSH1 0x1 PUSH1 0xA0 SHL SUB DUP3 AND PUSH2 0x24D1 JUMPI PUSH1 0x40 MLOAD PUSH3 0x461BCD PUSH1 0xE5 SHL DUP2 MSTORE PUSH1 0x20 PUSH1 0x4 DUP3 ADD MSTORE PUSH1 0x7 PUSH1 0x24 DUP3 ADD MSTORE PUSH7 0x125B9D985B1A59 PUSH1 0xCA SHL PUSH1 0x44 DUP3 ADD MSTORE PUSH1 0x64 ADD PUSH2 0x736 JUMP JUMPDEST PUSH2 0x24DA DUP3 PUSH2 0x43C5 JUMP JUMPDEST POP PUSH1 0x1 SWAP2 SWAP1 POP JUMP JUMPDEST PUSH1 0x0 PUSH2 0x6E7 PUSH2 0x4311 JUMP JUMPDEST PUSH1 0x0 PUSH1 0x1 PUSH1 0x1 PUSH1 0xA0 SHL SUB PUSH32 0x0 AND ADDRESS SUB PUSH2 0x2536 JUMPI PUSH1 0x40 MLOAD PUSH3 0x461BCD PUSH1 0xE5 SHL DUP2 MSTORE PUSH1 0x4 ADD PUSH2 0x736 SWAP1 PUSH2 0x5406 JUMP JUMPDEST PUSH32 0x0 PUSH1 0x1 PUSH1 0x1 PUSH1 0xA0 SHL SUB AND PUSH2 0x2568 PUSH2 0x26D2 JUMP JUMPDEST PUSH1 0x1 PUSH1 0x1 PUSH1 0xA0 SHL SUB AND EQ PUSH2 0x258E JUMPI PUSH1 0x40 MLOAD PUSH3 0x461BCD PUSH1 0xE5 SHL DUP2 MSTORE PUSH1 0x4 ADD PUSH2 0x736 SWAP1 PUSH2 0x542C JUMP JUMPDEST PUSH1 0x0 PUSH2 0x259D PUSH1 0x4C SLOAD PUSH2 0xFFFF AND SWAP1 JUMP JUMPDEST PUSH2 0xFFFF AND GT PUSH2 0x25D9 JUMPI PUSH1 0x40 MLOAD PUSH3 0x461BCD PUSH1 0xE5 SHL DUP2 MSTORE PUSH1 0x20 PUSH1 0x4 DUP3 ADD MSTORE PUSH1 0x8 PUSH1 0x24 DUP3 ADD MSTORE PUSH8 0x1393D50812539255 PUSH1 0xC2 SHL PUSH1 0x44 DUP3 ADD MSTORE PUSH1 0x64 ADD PUSH2 0x736 JUMP JUMPDEST PUSH2 0x25E9 PUSH4 0xF708CEB PUSH1 0xE4 SHL PUSH2 0x271B JUMP JUMPDEST PUSH2 0x2605 JUMPI PUSH1 0x40 MLOAD PUSH3 0x461BCD PUSH1 0xE5 SHL DUP2 MSTORE PUSH1 0x4 ADD PUSH2 0x736 SWAP1 PUSH2 0x549C JUMP JUMPDEST PUSH1 0x2 DUP1 SLOAD DUP4 SWAP2 SWAP1 PUSH1 0xFF PUSH1 0xA0 SHL NOT AND PUSH1 0x1 PUSH1 0xA0 SHL DUP4 DUP4 DUP2 GT ISZERO PUSH2 0x2629 JUMPI PUSH2 0x2629 PUSH2 0x52E5 JUMP JUMPDEST MUL OR SWAP1 SSTORE POP ADDRESS CALLER PUSH1 0x1 PUSH1 0x1 PUSH1 0xA0 SHL SUB AND PUSH32 0xC08EC585C25F1907BAAAB6F278C5994531A2E34C59935B3FCFE813067A3B4878 DUP5 PUSH1 0x40 MLOAD PUSH2 0x9E1 SWAP2 SWAP1 PUSH2 0x5326 JUMP JUMPDEST PUSH1 0x0 PUSH2 0x6E7 PUSH2 0x26F3 JUMP JUMPDEST SWAP1 JUMP JUMPDEST PUSH1 0x0 PUSH1 0x1 PUSH1 0x1 PUSH1 0xE0 SHL SUB NOT DUP3 AND PUSH4 0x27D8F1FD PUSH1 0xE2 SHL EQ DUP1 PUSH2 0x26A6 JUMPI POP PUSH1 0x1 PUSH1 0x1 PUSH1 0xE0 SHL SUB NOT DUP3 AND PUSH4 0x52D1902D PUSH1 0xE0 SHL EQ JUMPDEST DUP1 PUSH2 0x6D5 JUMPI POP PUSH4 0x1FFC9A7 PUSH1 0xE0 SHL PUSH1 0x1 PUSH1 0x1 PUSH1 0xE0 SHL SUB NOT DUP4 AND EQ PUSH2 0x6D5 JUMP JUMPDEST PUSH1 0x60 PUSH1 0x0 PUSH2 0x1FB5 DUP4 PUSH2 0x443C JUMP JUMPDEST PUSH1 0x0 PUSH1 0x0 DUP1 MLOAD PUSH1 0x20 PUSH2 0x5BA2 DUP4 CODECOPY DUP2 MLOAD SWAP2 MSTORE JUMPDEST SLOAD PUSH1 0x1 PUSH1 0x1 PUSH1 0xA0 SHL SUB AND SWAP2 SWAP1 POP JUMP JUMPDEST PUSH1 0x0 PUSH32 0xB53127684A568B3173AE13B9F8A6016E243E63B6E8EE1178D6A717850B5D6103 PUSH2 0x26E4 JUMP JUMPDEST PUSH1 0x2 SLOAD PUSH1 0x0 SWAP1 PUSH1 0x1 PUSH1 0x1 PUSH1 0xA0 SHL SUB AND ADDRESS SUB PUSH2 0x288C JUMPI PUSH1 0x40 DUP1 MLOAD PUSH1 0x4 DUP2 MSTORE PUSH1 0x24 DUP2 ADD SWAP1 SWAP2 MSTORE PUSH1 0x20 DUP2 ADD DUP1 MLOAD PUSH1 0x1 PUSH1 0x1 PUSH1 0xE0 SHL SUB AND PUSH4 0x2C4B4FFF PUSH1 0xE0 SHL OR SWAP1 MSTORE PUSH1 0x0 PUSH2 0x2791 PUSH2 0x2766 PUSH2 0x26D2 JUMP JUMPDEST DUP4 PUSH1 0x40 MLOAD DUP1 PUSH1 0x40 ADD PUSH1 0x40 MSTORE DUP1 PUSH1 0xC DUP2 MSTORE PUSH1 0x20 ADD PUSH12 0x1110D85B1B0811985A5B1959 PUSH1 0xA2 SHL DUP2 MSTORE POP PUSH2 0x4498 JUMP JUMPDEST SWAP1 POP DUP1 PUSH1 0x1 DUP3 MLOAD PUSH2 0x27A2 SWAP2 SWAP1 PUSH2 0x567E JUMP JUMPDEST DUP2 MLOAD DUP2 LT PUSH2 0x27B2 JUMPI PUSH2 0x27B2 PUSH2 0x54F1 JUMP JUMPDEST ADD PUSH1 0x20 ADD MLOAD PUSH1 0xF8 SHR PUSH1 0x1 SUB PUSH2 0x27CB JUMPI POP PUSH1 0x0 SWAP4 SWAP3 POP POP POP JUMP JUMPDEST PUSH4 0x17897AB9 PUSH1 0xE1 SHL ADDRESS DUP6 PUSH2 0x27DE CALLER PUSH2 0x3A72 JUMP JUMPDEST PUSH1 0x40 MLOAD PUSH1 0x24 ADD PUSH2 0x27F0 SWAP4 SWAP3 SWAP2 SWAP1 PUSH2 0x5691 JUMP JUMPDEST PUSH1 0x40 DUP1 MLOAD PUSH1 0x1F NOT DUP2 DUP5 SUB ADD DUP2 MSTORE SWAP2 SWAP1 MSTORE PUSH1 0x20 DUP2 ADD DUP1 MLOAD PUSH1 0x1 PUSH1 0x1 PUSH1 0xE0 SHL SUB AND PUSH1 0x1 PUSH1 0x1 PUSH1 0xE0 SHL SUB NOT SWAP1 SWAP4 AND SWAP3 SWAP1 SWAP3 OR SWAP1 SWAP2 MSTORE SWAP2 POP PUSH2 0x2857 PUSH2 0x282F PUSH2 0x26D2 JUMP JUMPDEST DUP4 PUSH1 0x40 MLOAD DUP1 PUSH1 0x40 ADD PUSH1 0x40 MSTORE DUP1 PUSH1 0x9 DUP2 MSTORE PUSH1 0x20 ADD PUSH9 0x2337B93134B23232B7 PUSH1 0xB9 SHL DUP2 MSTORE POP PUSH2 0x4498 JUMP JUMPDEST SWAP1 POP DUP1 PUSH1 0x1 DUP3 MLOAD PUSH2 0x2868 SWAP2 SWAP1 PUSH2 0x567E JUMP JUMPDEST DUP2 MLOAD DUP2 LT PUSH2 0x2878 JUMPI PUSH2 0x2878 PUSH2 0x54F1 JUMP JUMPDEST PUSH1 0x20 SWAP2 ADD ADD MLOAD PUSH1 0xF8 SHR PUSH1 0x1 EQ SWAP5 SWAP4 POP POP POP POP JUMP JUMPDEST PUSH1 0x2 SLOAD PUSH1 0x1 PUSH1 0x1 PUSH1 0xA0 SHL SUB AND PUSH4 0x2F12F572 ADDRESS DUP5 PUSH2 0x28A8 CALLER PUSH2 0x3A72 JUMP JUMPDEST PUSH1 0x40 MLOAD DUP5 PUSH4 0xFFFFFFFF AND PUSH1 0xE0 SHL DUP2 MSTORE PUSH1 0x4 ADD PUSH2 0x28C6 SWAP4 SWAP3 SWAP2 SWAP1 PUSH2 0x5691 JUMP JUMPDEST PUSH1 0x20 PUSH1 0x40 MLOAD DUP1 DUP4 SUB DUP2 DUP7 GAS STATICCALL ISZERO DUP1 ISZERO PUSH2 0x28E3 JUMPI RETURNDATASIZE PUSH1 0x0 DUP1 RETURNDATACOPY RETURNDATASIZE PUSH1 0x0 REVERT JUMPDEST POP POP POP POP PUSH1 0x40 MLOAD RETURNDATASIZE PUSH1 0x1F NOT PUSH1 0x1F DUP3 ADD AND DUP3 ADD DUP1 PUSH1 0x40 MSTORE POP DUP2 ADD SWAP1 PUSH2 0x6D5 SWAP2 SWAP1 PUSH2 0x54D4 JUMP JUMPDEST PUSH1 0x0 DUP1 JUMPDEST DUP3 DUP2 LT ISZERO PUSH2 0x2AA9 JUMPI PUSH20 0x0 PUSH4 0x59C893FC PUSH1 0x44 DUP7 DUP7 DUP6 DUP2 DUP2 LT PUSH2 0x2941 JUMPI PUSH2 0x2941 PUSH2 0x54F1 JUMP JUMPDEST SWAP1 POP PUSH1 0x20 MUL DUP2 ADD SWAP1 PUSH2 0x2953 SWAP2 SWAP1 PUSH2 0x5507 JUMP JUMPDEST PUSH1 0x40 MLOAD DUP4 PUSH4 0xFFFFFFFF AND PUSH1 0xE0 SHL DUP2 MSTORE PUSH1 0x4 ADD PUSH2 0x2970 SWAP3 SWAP2 SWAP1 PUSH2 0x5704 JUMP JUMPDEST PUSH1 0x20 PUSH1 0x40 MLOAD DUP1 DUP4 SUB DUP2 DUP7 GAS DELEGATECALL ISZERO DUP1 ISZERO PUSH2 0x298D JUMPI RETURNDATASIZE PUSH1 0x0 DUP1 RETURNDATACOPY RETURNDATASIZE PUSH1 0x0 REVERT JUMPDEST POP POP POP POP PUSH1 0x40 MLOAD RETURNDATASIZE PUSH1 0x1F NOT PUSH1 0x1F DUP3 ADD AND DUP3 ADD DUP1 PUSH1 0x40 MSTORE POP DUP2 ADD SWAP1 PUSH2 0x29B1 SWAP2 SWAP1 PUSH2 0x54D4 JUMP JUMPDEST POP DUP4 DUP4 DUP3 DUP2 DUP2 LT PUSH2 0x29C4 JUMPI PUSH2 0x29C4 PUSH2 0x54F1 JUMP JUMPDEST SWAP1 POP PUSH1 0x20 MUL DUP2 ADD SWAP1 PUSH2 0x29D6 SWAP2 SWAP1 PUSH2 0x5507 JUMP JUMPDEST PUSH2 0x29E7 SWAP1 PUSH1 0x40 DUP2 ADD SWAP1 PUSH1 0x20 ADD PUSH2 0x4FAC JUMP JUMPDEST PUSH1 0x1 PUSH1 0x1 PUSH1 0xA0 SHL SUB AND DUP5 DUP5 DUP4 DUP2 DUP2 LT PUSH2 0x2A02 JUMPI PUSH2 0x2A02 PUSH2 0x54F1 JUMP JUMPDEST SWAP1 POP PUSH1 0x20 MUL DUP2 ADD SWAP1 PUSH2 0x2A14 SWAP2 SWAP1 PUSH2 0x5507 JUMP JUMPDEST PUSH2 0x2A22 SWAP1 PUSH1 0x20 DUP2 ADD SWAP1 PUSH2 0x4FAC JUMP JUMPDEST PUSH1 0x1 PUSH1 0x1 PUSH1 0xA0 SHL SUB AND CALLER PUSH32 0x4BBC396CEC9C30168738B02B4FCE7EB9546AB2C23C1DCDB52BD556A8E16A128E DUP8 DUP8 DUP7 DUP2 DUP2 LT PUSH2 0x2A5F JUMPI PUSH2 0x2A5F PUSH2 0x54F1 JUMP JUMPDEST SWAP1 POP PUSH1 0x20 MUL DUP2 ADD SWAP1 PUSH2 0x2A71 SWAP2 SWAP1 PUSH2 0x5507 JUMP JUMPDEST PUSH2 0x2A82 SWAP1 PUSH1 0x60 DUP2 ADD SWAP1 PUSH1 0x40 ADD PUSH2 0x4F2D JUMP JUMPDEST PUSH1 0x40 MLOAD PUSH2 0x2A8F SWAP2 SWAP1 PUSH2 0x54BF JUMP JUMPDEST PUSH1 0x40 MLOAD DUP1 SWAP2 SUB SWAP1 LOG4 DUP1 PUSH2 0x2AA1 DUP2 PUSH2 0x55C4 JUMP JUMPDEST SWAP2 POP POP PUSH2 0x290B JUMP JUMPDEST POP PUSH1 0xB PUSH2 0x2AB6 PUSH1 0x4A PUSH2 0x4566 JUMP JUMPDEST LT PUSH2 0x2AC6 JUMPI PUSH1 0x43 DUP1 SLOAD PUSH1 0xFF NOT AND SWAP1 SSTORE JUMPDEST POP PUSH1 0x1 SWAP3 SWAP2 POP POP JUMP JUMPDEST PUSH1 0x1 PUSH1 0x1 PUSH1 0xA0 SHL SUB DUP2 AND PUSH1 0x0 SWAP1 DUP2 MSTORE PUSH1 0x1 DUP4 ADD PUSH1 0x20 MSTORE PUSH1 0x40 DUP2 KECCAK256 SLOAD ISZERO ISZERO PUSH2 0x1FB5 JUMP JUMPDEST PUSH2 0x1CDA DUP6 DUP6 DUP6 DUP6 DUP6 PUSH2 0x4570 JUMP JUMPDEST PUSH1 0x0 PUSH2 0x2B38 PUSH1 0x40 MLOAD PUSH1 0x20 ADD PUSH2 0x2B12 SWAP1 PUSH2 0x57B2 JUMP JUMPDEST PUSH1 0x40 MLOAD PUSH1 0x20 DUP2 DUP4 SUB SUB DUP2 MSTORE SWAP1 PUSH1 0x40 MSTORE DUP1 MLOAD SWAP1 PUSH1 0x20 ADD KECCAK256 PUSH1 0x44 PUSH2 0x472D SWAP1 SWAP2 SWAP1 PUSH4 0xFFFFFFFF AND JUMP JUMPDEST SWAP1 POP PUSH1 0x40 MLOAD DUP1 PUSH1 0x40 ADD PUSH1 0x40 MSTORE DUP1 PUSH1 0x20 DUP2 MSTORE PUSH1 0x20 ADD PUSH32 0x4C4956454C595F56455253455F4C4956454C595F474C4F42414C5F53434F5045 DUP2 MSTORE POP DUP2 PUSH1 0x3 ADD SWAP1 DUP2 PUSH2 0x2B80 SWAP2 SWAP1 PUSH2 0x582A JUMP JUMPDEST POP PUSH1 0x2 DUP2 ADD DUP1 SLOAD PUSH2 0xFFFF NOT AND PUSH2 0xFFFF OR SWAP1 SSTORE PUSH1 0x1 DUP2 ADD DUP1 SLOAD PUSH9 0xFFFF00000000FFFFFF NOT AND PUSH9 0xFFFF00000000020405 OR SWAP1 SSTORE PUSH1 0x40 MLOAD PUSH1 0x0 DUP1 MLOAD PUSH1 0x20 PUSH2 0x5BC2 DUP4 CODECOPY DUP2 MLOAD SWAP2 MSTORE PUSH1 0x20 DUP3 ADD MSTORE PUSH1 0x3F ADD PUSH1 0x40 DUP1 MLOAD DUP1 DUP4 SUB PUSH1 0x1F NOT ADD DUP2 MSTORE SWAP1 DUP3 SWAP1 MSTORE DUP1 MLOAD PUSH1 0x20 SWAP2 DUP3 ADD KECCAK256 DUP4 SSTORE PUSH1 0x0 DUP1 MLOAD PUSH1 0x20 PUSH2 0x5BC2 DUP4 CODECOPY DUP2 MLOAD SWAP2 MSTORE SWAP1 DUP3 ADD MSTORE PUSH1 0x0 SWAP1 PUSH2 0x2C2A SWAP1 PUSH1 0x3F ADD JUMPDEST PUSH1 0x40 MLOAD PUSH1 0x20 DUP2 DUP4 SUB SUB DUP2 MSTORE SWAP1 PUSH1 0x40 MSTORE DUP1 MLOAD SWAP1 PUSH1 0x20 ADD KECCAK256 PUSH1 0x44 PUSH2 0x47D3 SWAP1 SWAP2 SWAP1 PUSH4 0xFFFFFFFF AND JUMP JUMPDEST SWAP1 POP PUSH1 0x40 MLOAD DUP1 PUSH1 0x40 ADD PUSH1 0x40 MSTORE DUP1 PUSH1 0x1F DUP2 MSTORE PUSH1 0x20 ADD PUSH1 0x0 DUP1 MLOAD PUSH1 0x20 PUSH2 0x5BC2 DUP4 CODECOPY DUP2 MLOAD SWAP2 MSTORE DUP2 MSTORE POP DUP2 PUSH1 0x3 ADD SWAP1 DUP2 PUSH2 0x2C60 SWAP2 SWAP1 PUSH2 0x582A JUMP JUMPDEST POP PUSH1 0x4 DUP2 ADD DUP1 SLOAD PUSH2 0xFFFF NOT AND PUSH1 0x3 OR SWAP1 SSTORE PUSH1 0x40 MLOAD PUSH2 0x2C80 SWAP1 PUSH1 0x20 ADD PUSH2 0x57B2 JUMP JUMPDEST PUSH1 0x40 DUP1 MLOAD PUSH1 0x1F NOT DUP2 DUP5 SUB ADD DUP2 MSTORE SWAP1 DUP3 SWAP1 MSTORE DUP1 MLOAD PUSH1 0x20 SWAP2 DUP3 ADD KECCAK256 PUSH1 0x2 DUP5 ADD SSTORE PUSH2 0x2CA8 SWAP2 ADD PUSH2 0x58EA JUMP JUMPDEST PUSH1 0x40 DUP1 MLOAD PUSH1 0x1F NOT DUP2 DUP5 SUB ADD DUP2 MSTORE SWAP1 DUP3 SWAP1 MSTORE DUP1 MLOAD PUSH1 0x20 SWAP2 DUP3 ADD KECCAK256 DUP4 SSTORE PUSH1 0x1 DUP4 ADD DUP1 SLOAD PUSH9 0xFFFF00000000FFFFFF NOT AND PUSH9 0xFFFF00000000020403 OR SWAP1 SSTORE PUSH2 0x2D18 SWAP2 PUSH2 0x2CF0 SWAP2 ADD PUSH2 0x58EA JUMP JUMPDEST PUSH1 0x40 MLOAD PUSH1 0x20 DUP2 DUP4 SUB SUB DUP2 MSTORE SWAP1 PUSH1 0x40 MSTORE DUP1 MLOAD SWAP1 PUSH1 0x20 ADD KECCAK256 DUP3 PUSH1 0x6 ADD PUSH2 0x4875 SWAP1 SWAP2 SWAP1 PUSH4 0xFFFFFFFF AND JUMP JUMPDEST POP PUSH1 0x0 PUSH2 0x2D53 PUSH1 0x40 MLOAD PUSH1 0x20 ADD PUSH2 0x2D2D SWAP1 PUSH2 0x58EA JUMP JUMPDEST PUSH1 0x40 MLOAD PUSH1 0x20 DUP2 DUP4 SUB SUB DUP2 MSTORE SWAP1 PUSH1 0x40 MSTORE DUP1 MLOAD SWAP1 PUSH1 0x20 ADD KECCAK256 PUSH1 0x44 PUSH2 0x4881 SWAP1 SWAP2 SWAP1 PUSH4 0xFFFFFFFF AND JUMP JUMPDEST SWAP1 POP PUSH1 0x40 MLOAD DUP1 PUSH1 0x60 ADD PUSH1 0x40 MSTORE DUP1 PUSH1 0x25 DUP2 MSTORE PUSH1 0x20 ADD PUSH2 0x5C6F PUSH1 0x25 SWAP2 CODECOPY PUSH1 0x4 DUP3 ADD SWAP1 PUSH2 0x2D7D SWAP1 DUP3 PUSH2 0x582A JUMP JUMPDEST POP PUSH1 0x40 MLOAD PUSH1 0x20 ADD PUSH2 0x2D8D SWAP1 PUSH2 0x57B2 JUMP JUMPDEST PUSH1 0x40 DUP1 MLOAD PUSH1 0x1F NOT DUP2 DUP5 SUB ADD DUP2 MSTORE DUP3 DUP3 MSTORE DUP1 MLOAD PUSH1 0x20 SWAP2 DUP3 ADD KECCAK256 PUSH1 0x2 DUP6 ADD SSTORE PUSH1 0x0 DUP1 MLOAD PUSH1 0x20 PUSH2 0x5BC2 DUP4 CODECOPY DUP2 MLOAD SWAP2 MSTORE DUP2 DUP5 ADD MSTORE DUP2 MLOAD PUSH1 0x1F DUP2 DUP6 SUB ADD DUP2 MSTORE PUSH1 0x3F DUP5 ADD SWAP1 SWAP3 MSTORE DUP2 MLOAD SWAP2 ADD KECCAK256 PUSH1 0x3 DUP4 ADD SSTORE PUSH1 0x5 DUP3 ADD DUP1 SLOAD PUSH4 0xFFFFFFFF NOT AND PUSH1 0x7 OR SWAP1 SSTORE PUSH1 0x1 DUP3 ADD DUP1 SLOAD PUSH9 0xFFFF00000000FFFFFF NOT AND PUSH8 0x700000000020402 OR SWAP1 SSTORE PUSH2 0x2E14 SWAP1 PUSH1 0x5F ADD PUSH2 0x58EA JUMP JUMPDEST PUSH1 0x40 DUP1 MLOAD PUSH1 0x1F NOT DUP2 DUP5 SUB ADD DUP2 MSTORE SWAP2 SWAP1 MSTORE DUP1 MLOAD PUSH1 0x20 SWAP1 SWAP2 ADD KECCAK256 DUP2 SSTORE PUSH1 0x0 PUSH2 0x2E39 DUP7 PUSH2 0x3A72 JUMP JUMPDEST SWAP1 POP PUSH1 0x0 PUSH2 0x2E48 PUSH1 0x44 DUP4 PUSH2 0x4926 JUMP JUMPDEST PUSH1 0x2 DUP2 ADD DUP1 SLOAD PUSH1 0x1 PUSH1 0x1 PUSH1 0xA0 SHL SUB DUP11 AND PUSH1 0x1 PUSH1 0x1 PUSH1 0xB0 SHL SUB NOT SWAP1 SWAP2 AND OR PUSH2 0xFFFF PUSH1 0xA0 SHL OR SWAP1 SSTORE PUSH1 0x40 MLOAD SWAP1 SWAP2 POP PUSH2 0x2E80 SWAP1 PUSH1 0x20 ADD PUSH2 0x58EA JUMP JUMPDEST PUSH1 0x40 DUP1 MLOAD PUSH1 0x1F NOT DUP2 DUP5 SUB ADD DUP2 MSTORE SWAP1 DUP3 SWAP1 MSTORE DUP1 MLOAD PUSH1 0x20 SWAP2 DUP3 ADD KECCAK256 DUP4 SSTORE PUSH1 0x1 DUP4 ADD DUP1 SLOAD PUSH3 0xFFFFFF NOT AND PUSH3 0x20401 OR SWAP1 SSTORE PUSH1 0x0 DUP1 MLOAD PUSH1 0x20 PUSH2 0x5BC2 DUP4 CODECOPY DUP2 MLOAD SWAP2 MSTORE SWAP1 DUP3 ADD MSTORE PUSH2 0x2EF1 SWAP1 PUSH1 0x3F ADD JUMPDEST PUSH1 0x40 MLOAD PUSH1 0x20 DUP2 DUP4 SUB SUB DUP2 MSTORE SWAP1 PUSH1 0x40 MSTORE DUP1 MLOAD SWAP1 PUSH1 0x20 ADD KECCAK256 DUP3 PUSH1 0x3 ADD PUSH2 0x4875 SWAP1 SWAP2 SWAP1 PUSH4 0xFFFFFFFF AND JUMP JUMPDEST POP PUSH1 0x40 MLOAD PUSH1 0x0 DUP1 MLOAD PUSH1 0x20 PUSH2 0x5C4F DUP4 CODECOPY DUP2 MLOAD SWAP2 MSTORE PUSH1 0x20 DUP3 ADD MSTORE PUSH2 0x2F15 SWAP1 PUSH1 0x3E ADD PUSH2 0x2EC9 JUMP JUMPDEST POP PUSH1 0x40 MLOAD PUSH1 0x0 DUP1 MLOAD PUSH1 0x20 PUSH2 0x5C94 DUP4 CODECOPY DUP2 MLOAD SWAP2 MSTORE PUSH1 0x20 DUP3 ADD MSTORE PUSH2 0x2F39 SWAP1 PUSH1 0x3E ADD PUSH2 0x2EC9 JUMP JUMPDEST POP PUSH1 0x40 MLOAD PUSH1 0x0 DUP1 MLOAD PUSH1 0x20 PUSH2 0x5CB4 DUP4 CODECOPY DUP2 MLOAD SWAP2 MSTORE PUSH1 0x20 DUP3 ADD MSTORE PUSH2 0x2F5D SWAP1 PUSH1 0x3F ADD PUSH2 0x2EC9 JUMP JUMPDEST POP PUSH1 0x40 MLOAD PUSH1 0x20 ADD PUSH2 0x2F6D SWAP1 PUSH2 0x58EA JUMP JUMPDEST PUSH1 0x40 DUP1 MLOAD DUP1 DUP4 SUB PUSH1 0x1F NOT ADD DUP2 MSTORE DUP3 DUP3 MSTORE DUP1 MLOAD PUSH1 0x20 SWAP2 DUP3 ADD KECCAK256 PUSH1 0x0 DUP7 DUP2 MSTORE PUSH1 0x5 DUP10 ADD DUP4 MSTORE SWAP3 DUP4 KECCAK256 SSTORE PUSH1 0x0 DUP1 MLOAD PUSH1 0x20 PUSH2 0x5B82 DUP4 CODECOPY DUP2 MLOAD SWAP2 MSTORE SWAP1 DUP4 ADD MSTORE SWAP1 PUSH2 0x2FB4 SWAP1 PUSH1 0x3F ADD PUSH2 0x2C04 JUMP JUMPDEST SWAP1 POP PUSH1 0x40 MLOAD DUP1 PUSH1 0x40 ADD PUSH1 0x40 MSTORE DUP1 PUSH1 0x1F DUP2 MSTORE PUSH1 0x20 ADD PUSH1 0x0 DUP1 MLOAD PUSH1 0x20 PUSH2 0x5B82 DUP4 CODECOPY DUP2 MLOAD SWAP2 MSTORE DUP2 MSTORE POP DUP2 PUSH1 0x3 ADD SWAP1 DUP2 PUSH2 0x2FEA SWAP2 SWAP1 PUSH2 0x582A JUMP JUMPDEST POP PUSH1 0x4 DUP2 ADD DUP1 SLOAD PUSH2 0xFFFF NOT AND PUSH2 0xFFFF OR SWAP1 SSTORE PUSH1 0x40 MLOAD PUSH2 0x300B SWAP1 PUSH1 0x20 ADD PUSH2 0x57B2 JUMP JUMPDEST PUSH1 0x40 DUP1 MLOAD PUSH1 0x1F NOT DUP2 DUP5 SUB ADD DUP2 MSTORE SWAP1 DUP3 SWAP1 MSTORE DUP1 MLOAD PUSH1 0x20 SWAP2 DUP3 ADD KECCAK256 PUSH1 0x2 DUP5 ADD SSTORE PUSH2 0x3033 SWAP2 ADD PUSH2 0x58EA JUMP JUMPDEST PUSH1 0x40 DUP1 MLOAD PUSH1 0x1F NOT DUP2 DUP5 SUB ADD DUP2 MSTORE SWAP1 DUP3 SWAP1 MSTORE DUP1 MLOAD PUSH1 0x20 SWAP2 DUP3 ADD KECCAK256 DUP4 SSTORE PUSH1 0x1 DUP4 ADD DUP1 SLOAD PUSH9 0xFFFF00000000FFFFFF NOT AND PUSH9 0xFFFF00000000020403 OR SWAP1 SSTORE PUSH2 0x307B SWAP2 PUSH2 0x2CF0 SWAP2 ADD PUSH2 0x5921 JUMP JUMPDEST POP PUSH1 0x0 PUSH2 0x3090 PUSH1 0x40 MLOAD PUSH1 0x20 ADD PUSH2 0x2D2D SWAP1 PUSH2 0x5921 JUMP JUMPDEST SWAP1 POP PUSH1 0x40 MLOAD DUP1 PUSH1 0x60 ADD PUSH1 0x40 MSTORE DUP1 PUSH1 0x25 DUP2 MSTORE PUSH1 0x20 ADD PUSH2 0x5B5D PUSH1 0x25 SWAP2 CODECOPY PUSH1 0x4 DUP3 ADD SWAP1 PUSH2 0x30BA SWAP1 DUP3 PUSH2 0x582A JUMP JUMPDEST POP PUSH1 0x40 MLOAD PUSH1 0x20 ADD PUSH2 0x30CA SWAP1 PUSH2 0x57B2 JUMP JUMPDEST PUSH1 0x40 DUP1 MLOAD PUSH1 0x1F NOT DUP2 DUP5 SUB ADD DUP2 MSTORE DUP3 DUP3 MSTORE DUP1 MLOAD PUSH1 0x20 SWAP2 DUP3 ADD KECCAK256 PUSH1 0x2 DUP6 ADD SSTORE PUSH1 0x0 DUP1 MLOAD PUSH1 0x20 PUSH2 0x5B82 DUP4 CODECOPY DUP2 MLOAD SWAP2 MSTORE DUP2 DUP5 ADD MSTORE DUP2 MLOAD PUSH1 0x1F DUP2 DUP6 SUB ADD DUP2 MSTORE PUSH1 0x3F DUP5 ADD SWAP1 SWAP3 MSTORE DUP2 MLOAD SWAP2 ADD KECCAK256 PUSH1 0x3 DUP4 ADD SSTORE PUSH1 0x5 DUP3 ADD DUP1 SLOAD PUSH4 0xFFFFFFFF NOT AND PUSH1 0x7 OR SWAP1 SSTORE PUSH1 0x1 DUP3 ADD DUP1 SLOAD PUSH9 0xFFFF00000000FFFFFF NOT AND PUSH8 0x700000000020402 OR SWAP1 SSTORE PUSH2 0x3151 SWAP1 PUSH1 0x5F ADD PUSH2 0x58EA JUMP JUMPDEST PUSH1 0x40 DUP1 MLOAD PUSH1 0x1F NOT DUP2 DUP5 SUB ADD DUP2 MSTORE SWAP2 SWAP1 MSTORE DUP1 MLOAD PUSH1 0x20 SWAP1 SWAP2 ADD KECCAK256 DUP2 SSTORE PUSH1 0x0 PUSH2 0x3176 DUP10 PUSH2 0x3A72 JUMP JUMPDEST SWAP1 POP PUSH1 0x0 PUSH2 0x3185 PUSH1 0x44 DUP4 PUSH2 0x4926 JUMP JUMPDEST PUSH1 0x2 DUP2 ADD DUP1 SLOAD PUSH2 0xFFFF PUSH1 0xA0 SHL NOT AND PUSH2 0xFFFF PUSH1 0xA0 SHL OR SWAP1 SSTORE PUSH1 0x40 MLOAD SWAP1 SWAP2 POP PUSH2 0x31C4 SWAP1 PUSH2 0x2EC9 SWAP1 PUSH1 0x20 ADD PUSH1 0x0 DUP1 MLOAD PUSH1 0x20 PUSH2 0x5B82 DUP4 CODECOPY DUP2 MLOAD SWAP2 MSTORE DUP2 MSTORE PUSH1 0x1F ADD SWAP1 JUMP JUMPDEST POP PUSH1 0x2 DUP2 ADD DUP1 SLOAD PUSH1 0x1 PUSH1 0xB6 SHL PUSH1 0x1 PUSH4 0xFFFF0001 PUSH1 0xA0 SHL SUB NOT SWAP1 SWAP2 AND PUSH1 0x1 PUSH1 0x1 PUSH1 0xA0 SHL SUB DUP14 AND OR OR SWAP1 SSTORE PUSH1 0x40 MLOAD PUSH2 0x31FC SWAP1 PUSH1 0x20 ADD PUSH2 0x58EA JUMP JUMPDEST PUSH1 0x40 DUP1 MLOAD PUSH1 0x1F NOT DUP2 DUP5 SUB ADD DUP2 MSTORE SWAP1 DUP3 SWAP1 MSTORE DUP1 MLOAD PUSH1 0x20 SWAP2 DUP3 ADD KECCAK256 DUP4 SSTORE PUSH1 0x1 DUP4 ADD DUP1 SLOAD PUSH3 0xFFFFFF NOT AND PUSH3 0x20401 OR SWAP1 SSTORE PUSH2 0x3234 SWAP2 ADD PUSH2 0x5921 JUMP JUMPDEST PUSH1 0x40 DUP1 MLOAD DUP1 DUP4 SUB PUSH1 0x1F NOT ADD DUP2 MSTORE DUP3 DUP3 MSTORE DUP1 MLOAD PUSH1 0x20 SWAP2 DUP3 ADD KECCAK256 PUSH1 0x0 DUP7 DUP2 MSTORE PUSH1 0x5 DUP10 ADD DUP4 MSTORE SWAP3 DUP4 KECCAK256 SSTORE PUSH1 0x0 DUP1 MLOAD PUSH1 0x20 PUSH2 0x5C4F DUP4 CODECOPY DUP2 MLOAD SWAP2 MSTORE SWAP1 DUP4 ADD MSTORE SWAP1 PUSH2 0x327B SWAP1 PUSH1 0x3E ADD PUSH2 0x2C04 JUMP JUMPDEST SWAP1 POP PUSH1 0x40 MLOAD DUP1 PUSH1 0x40 ADD PUSH1 0x40 MSTORE DUP1 PUSH1 0x1E DUP2 MSTORE PUSH1 0x20 ADD PUSH1 0x0 DUP1 MLOAD PUSH1 0x20 PUSH2 0x5C4F DUP4 CODECOPY DUP2 MLOAD SWAP2 MSTORE DUP2 MSTORE POP DUP2 PUSH1 0x3 ADD SWAP1 DUP2 PUSH2 0x32B1 SWAP2 SWAP1 PUSH2 0x582A JUMP JUMPDEST POP PUSH1 0x4 DUP2 ADD DUP1 SLOAD PUSH2 0xFFFF NOT AND PUSH1 0x3 OR SWAP1 SSTORE PUSH1 0x40 MLOAD PUSH2 0x32D1 SWAP1 PUSH1 0x20 ADD PUSH2 0x57B2 JUMP JUMPDEST PUSH1 0x40 DUP1 MLOAD PUSH1 0x1F NOT DUP2 DUP5 SUB ADD DUP2 MSTORE SWAP1 DUP3 SWAP1 MSTORE DUP1 MLOAD PUSH1 0x20 SWAP2 DUP3 ADD KECCAK256 PUSH1 0x2 DUP5 ADD SSTORE PUSH2 0x32F9 SWAP2 ADD PUSH2 0x58EA JUMP JUMPDEST PUSH1 0x40 DUP1 MLOAD PUSH1 0x1F NOT DUP2 DUP5 SUB ADD DUP2 MSTORE SWAP1 DUP3 SWAP1 MSTORE DUP1 MLOAD PUSH1 0x20 SWAP2 DUP3 ADD KECCAK256 DUP4 SSTORE PUSH1 0x1 DUP4 ADD DUP1 SLOAD PUSH9 0xFFFF00000000FFFFFF NOT AND PUSH9 0xFFFF00000000020403 OR SWAP1 SSTORE PUSH2 0x3341 SWAP2 PUSH2 0x2CF0 SWAP2 ADD PUSH2 0x5958 JUMP JUMPDEST POP PUSH1 0x40 MLOAD PUSH1 0x20 ADD PUSH2 0x3351 SWAP1 PUSH2 0x5958 JUMP JUMPDEST PUSH1 0x40 DUP1 MLOAD PUSH1 0x1F NOT DUP2 DUP5 SUB ADD DUP2 MSTORE DUP3 DUP3 MSTORE DUP1 MLOAD PUSH1 0x20 SWAP2 DUP3 ADD KECCAK256 PUSH1 0x0 DUP12 DUP2 MSTORE PUSH1 0x5 DUP7 ADD DUP4 MSTORE SWAP3 DUP4 KECCAK256 SSTORE SWAP1 SWAP2 PUSH2 0x3388 SWAP2 PUSH2 0x2D2D SWAP2 ADD PUSH2 0x5958 JUMP JUMPDEST SWAP1 POP PUSH1 0x40 MLOAD DUP1 PUSH1 0x60 ADD PUSH1 0x40 MSTORE DUP1 PUSH1 0x24 DUP2 MSTORE PUSH1 0x20 ADD PUSH2 0x5C06 PUSH1 0x24 SWAP2 CODECOPY PUSH1 0x4 DUP3 ADD SWAP1 PUSH2 0x33B2 SWAP1 DUP3 PUSH2 0x582A JUMP JUMPDEST POP PUSH1 0x40 MLOAD PUSH1 0x20 ADD PUSH2 0x33C2 SWAP1 PUSH2 0x57B2 JUMP JUMPDEST PUSH1 0x40 DUP1 MLOAD PUSH1 0x1F NOT DUP2 DUP5 SUB ADD DUP2 MSTORE DUP3 DUP3 MSTORE DUP1 MLOAD PUSH1 0x20 SWAP2 DUP3 ADD KECCAK256 PUSH1 0x2 DUP6 ADD SSTORE PUSH1 0x0 DUP1 MLOAD PUSH1 0x20 PUSH2 0x5C4F DUP4 CODECOPY DUP2 MLOAD SWAP2 MSTORE DUP2 DUP5 ADD MSTORE DUP2 MLOAD PUSH1 0x1E DUP2 DUP6 SUB ADD DUP2 MSTORE PUSH1 0x3E DUP5 ADD SWAP1 SWAP3 MSTORE DUP2 MLOAD SWAP2 ADD KECCAK256 PUSH1 0x3 DUP4 ADD SSTORE PUSH1 0x5 DUP3 ADD DUP1 SLOAD PUSH4 0xFFFFFFFF NOT AND PUSH1 0x7 OR SWAP1 SSTORE PUSH1 0x1 DUP3 ADD DUP1 SLOAD PUSH9 0xFFFF00000000FFFFFF NOT AND PUSH8 0x700000000020402 OR SWAP1 SSTORE PUSH2 0x3449 SWAP1 PUSH1 0x5E ADD PUSH2 0x58EA JUMP JUMPDEST PUSH1 0x40 DUP1 MLOAD DUP1 DUP4 SUB PUSH1 0x1F NOT ADD DUP2 MSTORE SWAP1 DUP3 SWAP1 MSTORE DUP1 MLOAD PUSH1 0x20 SWAP2 DUP3 ADD KECCAK256 DUP4 SSTORE PUSH1 0x0 DUP1 MLOAD PUSH1 0x20 PUSH2 0x5C94 DUP4 CODECOPY DUP2 MLOAD SWAP2 MSTORE SWAP1 DUP3 ADD MSTORE PUSH1 0x0 SWAP1 PUSH2 0x3486 SWAP1 PUSH1 0x3E ADD PUSH2 0x2C04 JUMP JUMPDEST SWAP1 POP PUSH1 0x40 MLOAD DUP1 PUSH1 0x40 ADD PUSH1 0x40 MSTORE DUP1 PUSH1 0x1E DUP2 MSTORE PUSH1 0x20 ADD PUSH1 0x0 DUP1 MLOAD PUSH1 0x20 PUSH2 0x5C94 DUP4 CODECOPY DUP2 MLOAD SWAP2 MSTORE DUP2 MSTORE POP DUP2 PUSH1 0x3 ADD SWAP1 DUP2 PUSH2 0x34BC SWAP2 SWAP1 PUSH2 0x582A JUMP JUMPDEST POP PUSH1 0x4 DUP2 ADD DUP1 SLOAD PUSH2 0xFFFF NOT AND PUSH1 0x3 OR SWAP1 SSTORE PUSH1 0x40 MLOAD PUSH2 0x34DC SWAP1 PUSH1 0x20 ADD PUSH2 0x57B2 JUMP JUMPDEST PUSH1 0x40 DUP1 MLOAD PUSH1 0x1F NOT DUP2 DUP5 SUB ADD DUP2 MSTORE SWAP1 DUP3 SWAP1 MSTORE DUP1 MLOAD PUSH1 0x20 SWAP2 DUP3 ADD KECCAK256 PUSH1 0x2 DUP5 ADD SSTORE PUSH2 0x3504 SWAP2 ADD PUSH2 0x58EA JUMP JUMPDEST PUSH1 0x40 DUP1 MLOAD PUSH1 0x1F NOT DUP2 DUP5 SUB ADD DUP2 MSTORE SWAP1 DUP3 SWAP1 MSTORE DUP1 MLOAD PUSH1 0x20 SWAP2 DUP3 ADD KECCAK256 DUP4 SSTORE PUSH1 0x1 DUP4 ADD DUP1 SLOAD PUSH9 0xFFFF00000000FFFFFF NOT AND PUSH9 0xFFFF00000000020403 OR SWAP1 SSTORE PUSH2 0x354C SWAP2 PUSH2 0x2CF0 SWAP2 ADD PUSH2 0x598E JUMP JUMPDEST POP PUSH1 0x40 MLOAD PUSH1 0x20 ADD PUSH2 0x355C SWAP1 PUSH2 0x598E JUMP JUMPDEST PUSH1 0x40 DUP1 MLOAD PUSH1 0x1F NOT DUP2 DUP5 SUB ADD DUP2 MSTORE DUP3 DUP3 MSTORE DUP1 MLOAD PUSH1 0x20 SWAP2 DUP3 ADD KECCAK256 PUSH1 0x0 DUP14 DUP2 MSTORE PUSH1 0x5 DUP7 ADD DUP4 MSTORE SWAP3 DUP4 KECCAK256 SSTORE SWAP1 SWAP2 PUSH2 0x3593 SWAP2 PUSH2 0x2D2D SWAP2 ADD PUSH2 0x598E JUMP JUMPDEST SWAP1 POP PUSH1 0x40 MLOAD DUP1 PUSH1 0x60 ADD PUSH1 0x40 MSTORE DUP1 PUSH1 0x24 DUP2 MSTORE PUSH1 0x20 ADD PUSH2 0x5BE2 PUSH1 0x24 SWAP2 CODECOPY PUSH1 0x4 DUP3 ADD SWAP1 PUSH2 0x35BD SWAP1 DUP3 PUSH2 0x582A JUMP JUMPDEST POP PUSH1 0x40 MLOAD PUSH1 0x20 ADD PUSH2 0x35CD SWAP1 PUSH2 0x57B2 JUMP JUMPDEST PUSH1 0x40 DUP1 MLOAD PUSH1 0x1F NOT DUP2 DUP5 SUB ADD DUP2 MSTORE DUP3 DUP3 MSTORE DUP1 MLOAD PUSH1 0x20 SWAP2 DUP3 ADD KECCAK256 PUSH1 0x2 DUP6 ADD SSTORE PUSH1 0x0 DUP1 MLOAD PUSH1 0x20 PUSH2 0x5C94 DUP4 CODECOPY DUP2 MLOAD SWAP2 MSTORE DUP2 DUP5 ADD MSTORE DUP2 MLOAD PUSH1 0x1E DUP2 DUP6 SUB ADD DUP2 MSTORE PUSH1 0x3E DUP5 ADD SWAP1 SWAP3 MSTORE DUP2 MLOAD SWAP2 ADD KECCAK256 PUSH1 0x3 DUP4 ADD SSTORE PUSH1 0x5 DUP3 ADD DUP1 SLOAD PUSH4 0xFFFFFFFF NOT AND PUSH1 0x7 OR SWAP1 SSTORE PUSH1 0x1 DUP3 ADD DUP1 SLOAD PUSH9 0xFFFF00000000FFFFFF NOT AND PUSH8 0x700000000020402 OR SWAP1 SSTORE PUSH2 0x3654 SWAP1 PUSH1 0x5E ADD PUSH2 0x58EA JUMP JUMPDEST PUSH1 0x40 DUP1 MLOAD DUP1 DUP4 SUB PUSH1 0x1F NOT ADD DUP2 MSTORE SWAP1 DUP3 SWAP1 MSTORE DUP1 MLOAD PUSH1 0x20 SWAP2 DUP3 ADD KECCAK256 DUP4 SSTORE PUSH1 0x0 DUP1 MLOAD PUSH1 0x20 PUSH2 0x5CB4 DUP4 CODECOPY DUP2 MLOAD SWAP2 MSTORE SWAP1 DUP3 ADD MSTORE PUSH1 0x0 SWAP1 PUSH2 0x3691 SWAP1 PUSH1 0x3F ADD PUSH2 0x2C04 JUMP JUMPDEST SWAP1 POP PUSH1 0x40 MLOAD DUP1 PUSH1 0x40 ADD PUSH1 0x40 MSTORE DUP1 PUSH1 0x1F DUP2 MSTORE PUSH1 0x20 ADD PUSH1 0x0 DUP1 MLOAD PUSH1 0x20 PUSH2 0x5CB4 DUP4 CODECOPY DUP2 MLOAD SWAP2 MSTORE DUP2 MSTORE POP DUP2 PUSH1 0x3 ADD SWAP1 DUP2 PUSH2 0x36C7 SWAP2 SWAP1 PUSH2 0x582A JUMP JUMPDEST POP PUSH1 0x4 DUP2 ADD DUP1 SLOAD PUSH2 0xFFFF NOT AND PUSH1 0x3 OR SWAP1 SSTORE PUSH1 0x40 MLOAD PUSH2 0x36E7 SWAP1 PUSH1 0x20 ADD PUSH2 0x57B2 JUMP JUMPDEST PUSH1 0x40 DUP1 MLOAD PUSH1 0x1F NOT DUP2 DUP5 SUB ADD DUP2 MSTORE SWAP1 DUP3 SWAP1 MSTORE DUP1 MLOAD PUSH1 0x20 SWAP2 DUP3 ADD KECCAK256 PUSH1 0x2 DUP5 ADD SSTORE PUSH2 0x370F SWAP2 ADD PUSH2 0x58EA JUMP JUMPDEST PUSH1 0x40 DUP1 MLOAD PUSH1 0x1F NOT DUP2 DUP5 SUB ADD DUP2 MSTORE SWAP1 DUP3 SWAP1 MSTORE DUP1 MLOAD PUSH1 0x20 SWAP2 DUP3 ADD KECCAK256 DUP4 SSTORE PUSH1 0x1 DUP4 ADD DUP1 SLOAD PUSH9 0xFFFF00000000FFFFFF NOT AND PUSH9 0xFFFF00000000020403 OR SWAP1 SSTORE PUSH2 0x3757 SWAP2 PUSH2 0x2CF0 SWAP2 ADD PUSH2 0x59C4 JUMP JUMPDEST POP PUSH1 0x40 MLOAD PUSH1 0x20 ADD PUSH2 0x3767 SWAP1 PUSH2 0x59C4 JUMP JUMPDEST PUSH1 0x40 DUP1 MLOAD PUSH1 0x1F NOT DUP2 DUP5 SUB ADD DUP2 MSTORE DUP3 DUP3 MSTORE DUP1 MLOAD PUSH1 0x20 SWAP2 DUP3 ADD KECCAK256 PUSH1 0x0 DUP16 DUP2 MSTORE PUSH1 0x5 DUP7 ADD DUP4 MSTORE SWAP3 DUP4 KECCAK256 SSTORE SWAP1 SWAP2 PUSH2 0x379E SWAP2 PUSH2 0x2D2D SWAP2 ADD PUSH2 0x59C4 JUMP JUMPDEST SWAP1 POP PUSH1 0x40 MLOAD DUP1 PUSH1 0x60 ADD PUSH1 0x40 MSTORE DUP1 PUSH1 0x25 DUP2 MSTORE PUSH1 0x20 ADD PUSH2 0x5C2A PUSH1 0x25 SWAP2 CODECOPY PUSH1 0x4 DUP3 ADD SWAP1 PUSH2 0x37C8 SWAP1 DUP3 PUSH2 0x582A JUMP JUMPDEST POP PUSH1 0x40 MLOAD PUSH1 0x20 ADD PUSH2 0x37D8 SWAP1 PUSH2 0x57B2 JUMP JUMPDEST PUSH1 0x40 DUP1 MLOAD PUSH1 0x1F NOT DUP2 DUP5 SUB ADD DUP2 MSTORE DUP3 DUP3 MSTORE DUP1 MLOAD PUSH1 0x20 SWAP2 DUP3 ADD KECCAK256 PUSH1 0x2 DUP6 ADD SSTORE PUSH1 0x0 DUP1 MLOAD PUSH1 0x20 PUSH2 0x5CB4 DUP4 CODECOPY DUP2 MLOAD SWAP2 MSTORE DUP2 DUP5 ADD MSTORE DUP2 MLOAD PUSH1 0x1F DUP2 DUP6 SUB ADD DUP2 MSTORE PUSH1 0x3F DUP5 ADD SWAP1 SWAP3 MSTORE DUP2 MLOAD SWAP2 ADD KECCAK256 PUSH1 0x3 DUP4 ADD SSTORE PUSH1 0x5 DUP3 ADD DUP1 SLOAD PUSH4 0xFFFFFFFF NOT AND PUSH1 0x7 OR SWAP1 SSTORE PUSH1 0x1 DUP3 ADD DUP1 SLOAD PUSH9 0xFFFF00000000FFFFFF NOT AND PUSH8 0x700000000020402 OR SWAP1 SSTORE PUSH2 0x385F SWAP1 PUSH1 0x5F ADD PUSH2 0x58EA JUMP JUMPDEST PUSH1 0x40 DUP1 MLOAD DUP1 DUP4 SUB PUSH1 0x1F NOT ADD DUP2 MSTORE SWAP1 DUP3 SWAP1 MSTORE DUP1 MLOAD PUSH1 0x20 SWAP2 DUP3 ADD KECCAK256 DUP4 SSTORE PUSH32 0x4C4956454C595F56455253455F414E4F4E594D4F55535F545950450000000000 SWAP1 DUP3 ADD MSTORE PUSH1 0x0 SWAP1 PUSH2 0x38AE SWAP1 PUSH1 0x3B ADD PUSH2 0x2C04 JUMP JUMPDEST SWAP1 POP PUSH1 0x40 MLOAD DUP1 PUSH1 0x40 ADD PUSH1 0x40 MSTORE DUP1 PUSH1 0x1B DUP2 MSTORE PUSH1 0x20 ADD PUSH32 0x4C4956454C595F56455253455F414E4F4E594D4F55535F545950450000000000 DUP2 MSTORE POP DUP2 PUSH1 0x3 ADD SWAP1 DUP2 PUSH2 0x38F6 SWAP2 SWAP1 PUSH2 0x582A JUMP JUMPDEST POP PUSH1 0x4 DUP2 ADD DUP1 SLOAD PUSH2 0xFFFF NOT AND SWAP1 SSTORE PUSH1 0x40 MLOAD PUSH2 0x3913 SWAP1 PUSH1 0x20 ADD PUSH2 0x57B2 JUMP JUMPDEST PUSH1 0x40 DUP1 MLOAD PUSH1 0x1F NOT DUP2 DUP5 SUB ADD DUP2 MSTORE SWAP1 DUP3 SWAP1 MSTORE DUP1 MLOAD PUSH1 0x20 SWAP2 DUP3 ADD KECCAK256 PUSH1 0x2 DUP5 ADD SSTORE PUSH2 0x393B SWAP2 ADD PUSH2 0x58EA JUMP JUMPDEST PUSH1 0x40 DUP1 MLOAD PUSH1 0x1F NOT DUP2 DUP5 SUB ADD DUP2 MSTORE SWAP1 DUP3 SWAP1 MSTORE DUP1 MLOAD PUSH1 0x20 SWAP2 DUP3 ADD KECCAK256 DUP4 SSTORE PUSH1 0x1 DUP4 ADD DUP1 SLOAD PUSH9 0xFFFF00000000FFFFFF NOT AND PUSH9 0xFFFF00000000020403 OR SWAP1 SSTORE PUSH21 0x4C4956454C595F56455253455F414E595F54595045 PUSH1 0x58 SHL SWAP1 DUP3 ADD MSTORE PUSH1 0x0 SWAP1 PUSH2 0x39A1 SWAP1 PUSH1 0x35 ADD PUSH2 0x2C04 JUMP JUMPDEST SWAP1 POP PUSH1 0x40 MLOAD DUP1 PUSH1 0x40 ADD PUSH1 0x40 MSTORE DUP1 PUSH1 0x15 DUP2 MSTORE PUSH1 0x20 ADD PUSH21 0x4C4956454C595F56455253455F414E595F54595045 PUSH1 0x58 SHL DUP2 MSTORE POP DUP2 PUSH1 0x3 ADD SWAP1 DUP2 PUSH2 0x39E1 SWAP2 SWAP1 PUSH2 0x582A JUMP JUMPDEST POP PUSH1 0x4 DUP2 ADD DUP1 SLOAD PUSH2 0xFFFF NOT AND SWAP1 SSTORE PUSH1 0x40 MLOAD PUSH2 0x39FE SWAP1 PUSH1 0x20 ADD PUSH2 0x57B2 JUMP JUMPDEST PUSH1 0x40 DUP1 MLOAD PUSH1 0x1F NOT DUP2 DUP5 SUB ADD DUP2 MSTORE SWAP1 DUP3 SWAP1 MSTORE DUP1 MLOAD PUSH1 0x20 SWAP2 DUP3 ADD KECCAK256 PUSH1 0x2 DUP5 ADD SSTORE PUSH2 0x3A26 SWAP2 ADD PUSH2 0x58EA JUMP JUMPDEST PUSH1 0x40 DUP1 MLOAD PUSH1 0x1F NOT DUP2 DUP5 SUB ADD DUP2 MSTORE SWAP2 SWAP1 MSTORE DUP1 MLOAD PUSH1 0x20 SWAP1 SWAP2 ADD KECCAK256 DUP2 SSTORE PUSH1 0x1 ADD DUP1 SLOAD PUSH9 0xFFFF00000000FFFFFF NOT AND PUSH9 0xFFFF00000000020403 OR SWAP1 SSTORE POP POP POP POP POP POP POP POP POP POP POP POP POP POP POP POP POP POP JUMP JUMPDEST PUSH1 0x40 MLOAD PUSH12 0xFFFFFFFFFFFFFFFFFFFFFFFF NOT PUSH1 0x60 DUP4 SWAP1 SHL AND PUSH1 0x20 DUP3 ADD MSTORE PUSH1 0x0 SWAP1 PUSH1 0x34 ADD JUMPDEST PUSH1 0x40 MLOAD PUSH1 0x20 DUP2 DUP4 SUB SUB DUP2 MSTORE SWAP1 PUSH1 0x40 MSTORE DUP1 MLOAD SWAP1 PUSH1 0x20 ADD KECCAK256 SWAP1 POP SWAP2 SWAP1 POP JUMP JUMPDEST PUSH1 0x0 PUSH2 0x3AEA PUSH1 0x40 MLOAD DUP1 PUSH1 0x40 ADD PUSH1 0x40 MSTORE DUP1 PUSH1 0x15 DUP2 MSTORE PUSH1 0x20 ADD PUSH21 0x4C4956454C595F56455253455F41434C5F54595045 PUSH1 0x58 SHL DUP2 MSTORE POP PUSH2 0x49C7 JUMP JUMPDEST SWAP1 POP PUSH1 0x0 PUSH2 0x3B26 PUSH1 0x40 MLOAD DUP1 PUSH1 0x40 ADD PUSH1 0x40 MSTORE DUP1 PUSH1 0x17 DUP2 MSTORE PUSH1 0x20 ADD PUSH23 0x2624AB22A62CAFAB22A929A2AFA0A1A62FA227A6A0A4A7 PUSH1 0x49 SHL DUP2 MSTORE POP PUSH2 0x49C7 JUMP JUMPDEST SWAP1 POP PUSH1 0x0 PUSH2 0x3B35 PUSH1 0x44 DUP4 PUSH2 0x49DA JUMP JUMPDEST SWAP1 POP PUSH1 0x40 MLOAD DUP1 PUSH1 0x40 ADD PUSH1 0x40 MSTORE DUP1 PUSH1 0x17 DUP2 MSTORE PUSH1 0x20 ADD PUSH23 0x2624AB22A62CAFAB22A929A2AFA0A1A62FA227A6A0A4A7 PUSH1 0x49 SHL DUP2 MSTORE POP DUP2 PUSH1 0x3 ADD SWAP1 DUP2 PUSH2 0x3B77 SWAP2 SWAP1 PUSH2 0x582A JUMP JUMPDEST POP PUSH1 0x2 DUP2 ADD DUP1 SLOAD PUSH2 0xFFFF NOT AND PUSH1 0x1 SWAP1 DUP2 OR SWAP1 SWAP2 SSTORE DUP2 ADD DUP1 SLOAD PUSH9 0xFFFF00000000FFFFFF NOT AND PUSH9 0xFFFF00000000020404 OR SWAP1 SSTORE DUP3 DUP2 SSTORE PUSH1 0x40 DUP1 MLOAD DUP1 DUP3 ADD SWAP1 SWAP2 MSTORE PUSH1 0x16 DUP2 MSTORE PUSH22 0x4C4956454C595F56455253455F41434C5F5245414C4D PUSH1 0x50 SHL PUSH1 0x20 DUP3 ADD MSTORE PUSH1 0x0 SWAP1 PUSH2 0x3BE4 SWAP1 PUSH2 0x49C7 JUMP JUMPDEST SWAP1 POP PUSH2 0x3C15 PUSH1 0x40 MLOAD DUP1 PUSH1 0x40 ADD PUSH1 0x40 MSTORE DUP1 PUSH1 0xE DUP2 MSTORE PUSH1 0x20 ADD PUSH14 0x30B1B6102932B0B6369024A21D1 PUSH1 0x95 SHL DUP2 MSTORE POP PUSH2 0x4A80 JUMP JUMPDEST PUSH2 0x3C1E DUP2 PUSH2 0x4AC3 JUMP JUMPDEST PUSH1 0x0 PUSH2 0x3C2B PUSH1 0x44 DUP4 PUSH2 0x4B08 JUMP JUMPDEST SWAP1 POP PUSH1 0x40 MLOAD DUP1 PUSH1 0x40 ADD PUSH1 0x40 MSTORE DUP1 PUSH1 0x16 DUP2 MSTORE PUSH1 0x20 ADD PUSH22 0x4C4956454C595F56455253455F41434C5F5245414C4D PUSH1 0x50 SHL DUP2 MSTORE POP DUP2 PUSH1 0x4 ADD SWAP1 DUP2 PUSH2 0x3C6C SWAP2 SWAP1 PUSH2 0x582A JUMP JUMPDEST POP PUSH1 0x3 DUP2 ADD DUP1 SLOAD PUSH4 0xFFFFFFFF NOT AND PUSH1 0x10 OR SWAP1 SSTORE PUSH1 0x2 DUP2 ADD DUP5 SWAP1 SSTORE PUSH1 0x1 DUP2 ADD DUP1 SLOAD PUSH9 0xFFFF00000000FFFFFF NOT AND PUSH9 0xFFFF00000000020403 OR SWAP1 SSTORE DUP5 DUP2 SSTORE PUSH1 0x0 PUSH2 0x3CB3 DUP10 PUSH2 0x3A72 JUMP JUMPDEST SWAP1 POP PUSH1 0x0 PUSH2 0x3CC2 PUSH1 0x44 DUP4 PUSH2 0x4BAE JUMP JUMPDEST PUSH1 0x2 DUP2 ADD DUP6 SWAP1 SSTORE PUSH1 0x3 DUP2 ADD DUP1 SLOAD PUSH1 0x1 PUSH1 0x1 PUSH1 0xA0 SHL SUB NOT AND PUSH1 0x1 PUSH1 0x1 PUSH1 0xA0 SHL SUB DUP14 AND OR SWAP1 SSTORE PUSH1 0x1 DUP2 ADD DUP1 SLOAD PUSH9 0xFFFF00000000FFFFFF NOT AND PUSH9 0xFFFF00000000020402 OR SWAP1 SSTORE DUP8 DUP2 SSTORE SWAP1 POP PUSH1 0x0 PUSH2 0x3D15 DUP11 PUSH2 0x3A72 JUMP JUMPDEST SWAP1 POP PUSH1 0x0 PUSH2 0x3D24 PUSH1 0x44 DUP4 PUSH2 0x4BAE JUMP JUMPDEST PUSH1 0x2 DUP2 ADD DUP8 SWAP1 SSTORE PUSH1 0x3 DUP2 ADD DUP1 SLOAD PUSH1 0x1 PUSH1 0x1 PUSH1 0xA0 SHL SUB NOT AND PUSH1 0x1 PUSH1 0x1 PUSH1 0xA0 SHL SUB DUP15 AND OR SWAP1 SSTORE PUSH1 0x1 DUP2 ADD DUP1 SLOAD PUSH9 0xFFFF00000000FFFFFF NOT AND PUSH9 0xFFFF00000000020402 OR SWAP1 SSTORE DUP10 DUP2 SSTORE SWAP1 POP PUSH1 0x0 PUSH2 0x3D7F DUP14 PUSH4 0xDE9FA797 PUSH1 0xE0 SHL PUSH2 0x4C54 JUMP JUMPDEST SWAP1 POP PUSH1 0x0 PUSH2 0x3D8E PUSH1 0x44 DUP4 PUSH2 0x4CA4 JUMP JUMPDEST PUSH1 0x3 DUP2 ADD DUP8 SWAP1 SSTORE PUSH1 0x4 DUP2 ADD DUP1 SLOAD PUSH5 0xFFFFFFFFFF NOT AND PUSH5 0xC8DE9FA797 OR SWAP1 SSTORE PUSH1 0x1 DUP2 ADD DUP1 SLOAD PUSH9 0xFFFF00000000FFFFFF NOT AND PUSH9 0xFFFF00000000020401 OR SWAP1 SSTORE DUP12 DUP2 SSTORE PUSH1 0x40 DUP1 MLOAD PUSH1 0x0 DUP1 MLOAD PUSH1 0x20 PUSH2 0x5B82 DUP4 CODECOPY DUP2 MLOAD SWAP2 MSTORE PUSH1 0x20 DUP1 DUP4 ADD SWAP2 SWAP1 SWAP2 MSTORE DUP3 MLOAD PUSH1 0x1F DUP2 DUP5 SUB ADD DUP2 MSTORE PUSH1 0x3F SWAP1 SWAP3 ADD SWAP1 SWAP3 MSTORE DUP1 MLOAD SWAP2 ADD KECCAK256 PUSH1 0x2 DUP3 ADD SSTORE SWAP1 POP PUSH1 0x0 PUSH2 0x3E1B DUP15 PUSH4 0x2D24329 PUSH1 0xE6 SHL PUSH2 0x4C54 JUMP JUMPDEST SWAP1 POP PUSH1 0x0 PUSH2 0x3E2A PUSH1 0x44 DUP4 PUSH2 0x4CA4 JUMP JUMPDEST PUSH1 0x3 DUP2 ADD DUP10 SWAP1 SSTORE PUSH1 0x4 DUP2 ADD DUP1 SLOAD PUSH5 0xC8B490CA40 PUSH5 0xFFFFFFFFFF NOT SWAP1 SWAP2 AND OR SWAP1 SSTORE PUSH1 0x1 DUP2 ADD DUP1 SLOAD PUSH9 0xFFFF00000000020401 PUSH9 0xFFFF00000000FFFFFF NOT SWAP1 SWAP2 AND OR SWAP1 SSTORE DUP14 DUP2 SSTORE PUSH1 0x40 MLOAD PUSH1 0x0 DUP1 MLOAD PUSH1 0x20 PUSH2 0x5B82 DUP4 CODECOPY DUP2 MLOAD SWAP2 MSTORE PUSH1 0x20 DUP3 ADD MSTORE SWAP1 SWAP2 POP PUSH1 0x3F ADD PUSH1 0x40 DUP1 MLOAD PUSH1 0x1F NOT DUP2 DUP5 SUB ADD DUP2 MSTORE SWAP2 SWAP1 MSTORE DUP1 MLOAD PUSH1 0x20 SWAP1 SWAP2 ADD KECCAK256 PUSH1 0x2 DUP3 ADD SSTORE PUSH2 0x3EB5 PUSH1 0x4 DUP9 ADD DUP6 PUSH2 0x4875 JUMP JUMPDEST POP PUSH2 0x3EC3 PUSH1 0x4 DUP7 ADD DUP4 PUSH2 0x4875 JUMP JUMPDEST POP PUSH2 0x3ED1 PUSH1 0x5 DUP11 ADD DUP10 PUSH2 0x4875 JUMP JUMPDEST POP PUSH2 0x3EDF PUSH1 0x5 DUP11 ADD DUP8 PUSH2 0x4875 JUMP JUMPDEST POP PUSH2 0x3EED PUSH1 0x4 DUP13 ADD DUP12 PUSH2 0x4875 JUMP JUMPDEST POP POP POP POP POP POP POP POP POP PUSH1 0x0 PUSH2 0x3F0C DUP7 PUSH1 0x44 PUSH2 0x47D3 SWAP1 SWAP2 SWAP1 PUSH4 0xFFFFFFFF AND JUMP JUMPDEST SWAP1 POP PUSH1 0x40 MLOAD DUP1 PUSH1 0x40 ADD PUSH1 0x40 MSTORE DUP1 PUSH1 0x15 DUP2 MSTORE PUSH1 0x20 ADD PUSH21 0x4C4956454C595F56455253455F41434C5F54595045 PUSH1 0x58 SHL DUP2 MSTORE POP DUP2 PUSH1 0x3 ADD SWAP1 DUP2 PUSH2 0x3F4C SWAP2 SWAP1 PUSH2 0x582A JUMP JUMPDEST POP PUSH1 0x4 DUP2 ADD DUP1 SLOAD PUSH2 0xFFFF NOT AND PUSH1 0x3 OR SWAP1 SSTORE PUSH1 0x2 DUP2 ADD DUP6 SWAP1 SSTORE PUSH1 0x40 MLOAD PUSH2 0x3F73 SWAP1 PUSH1 0x20 ADD PUSH2 0x58EA JUMP JUMPDEST PUSH1 0x40 DUP1 MLOAD PUSH1 0x1F NOT DUP2 DUP5 SUB ADD DUP2 MSTORE DUP3 DUP3 MSTORE DUP1 MLOAD PUSH1 0x20 SWAP2 DUP3 ADD KECCAK256 DUP5 SSTORE PUSH1 0x1 DUP5 ADD DUP1 SLOAD PUSH9 0xFFFF00000000FFFFFF NOT AND PUSH9 0xFFFF00000000020403 OR SWAP1 SSTORE DUP3 DUP3 ADD SWAP1 SWAP2 MSTORE PUSH1 0x1B DUP3 MSTORE PUSH32 0x4C4956454C595F56455253455F41434C5F41444D494E5F524F4C450000000000 SWAP1 DUP3 ADD MSTORE PUSH1 0x0 SWAP1 PUSH2 0x3FE7 SWAP1 PUSH2 0x49C7 JUMP JUMPDEST SWAP1 POP PUSH1 0x0 PUSH2 0x3FF6 PUSH1 0x44 DUP4 PUSH2 0x4881 JUMP JUMPDEST SWAP1 POP PUSH1 0x40 MLOAD DUP1 PUSH1 0x40 ADD PUSH1 0x40 MSTORE DUP1 PUSH1 0x1B DUP2 MSTORE PUSH1 0x20 ADD PUSH32 0x4C4956454C595F56455253455F41434C5F41444D494E5F524F4C450000000000 DUP2 MSTORE POP DUP2 PUSH1 0x4 ADD SWAP1 DUP2 PUSH2 0x403E SWAP2 SWAP1 PUSH2 0x582A JUMP JUMPDEST POP PUSH1 0x2 DUP2 ADD DUP8 SWAP1 SSTORE PUSH1 0x3 DUP2 ADD DUP9 SWAP1 SSTORE PUSH1 0x5 DUP2 ADD DUP1 SLOAD PUSH4 0xFFFFFFFF NOT AND PUSH1 0x7 OR SWAP1 SSTORE PUSH1 0x1 DUP2 ADD DUP1 SLOAD PUSH9 0xFFFF00000000FFFFFF NOT AND PUSH8 0x700000000020402 OR SWAP1 SSTORE PUSH1 0x40 MLOAD PUSH2 0x408C SWAP1 PUSH1 0x20 ADD PUSH2 0x58EA JUMP JUMPDEST PUSH1 0x40 DUP1 MLOAD PUSH1 0x1F NOT DUP2 DUP5 SUB ADD DUP2 MSTORE SWAP2 SWAP1 MSTORE DUP1 MLOAD PUSH1 0x20 SWAP1 SWAP2 ADD KECCAK256 DUP2 SSTORE PUSH2 0x40B3 PUSH1 0x6 DUP5 ADD DUP4 PUSH2 0x4875 JUMP JUMPDEST POP POP PUSH1 0x0 SWAP8 DUP9 MSTORE PUSH1 0x5 SWAP1 SWAP2 ADD PUSH1 0x20 MSTORE PUSH1 0x40 SWAP1 SWAP7 KECCAK256 SWAP6 SWAP1 SWAP6 SSTORE POP POP POP POP POP POP POP JUMP JUMPDEST PUSH2 0x40DC PUSH2 0x26D2 JUMP JUMPDEST PUSH1 0x1 PUSH1 0x1 PUSH1 0xA0 SHL SUB AND DUP2 PUSH1 0x1 PUSH1 0x1 PUSH1 0xA0 SHL SUB AND SUB PUSH2 0x4126 JUMPI PUSH1 0x40 MLOAD PUSH3 0x461BCD PUSH1 0xE5 SHL DUP2 MSTORE PUSH1 0x20 PUSH1 0x4 DUP3 ADD MSTORE PUSH1 0x7 PUSH1 0x24 DUP3 ADD MSTORE PUSH7 0x125B1B1959D85B PUSH1 0xCA SHL PUSH1 0x44 DUP3 ADD MSTORE PUSH1 0x64 ADD PUSH2 0x736 JUMP JUMPDEST PUSH2 0x4136 PUSH4 0x7147855D PUSH1 0xE0 SHL PUSH2 0x271B JUMP JUMPDEST PUSH2 0x4152 JUMPI PUSH1 0x40 MLOAD PUSH3 0x461BCD PUSH1 0xE5 SHL DUP2 MSTORE PUSH1 0x4 ADD PUSH2 0x736 SWAP1 PUSH2 0x549C JUMP JUMPDEST POP JUMP JUMPDEST PUSH1 0x60 PUSH32 0x4910FDFA16FED3260ED0E7147F7CC6DA11A60208B5B9406D12A635614FFD9143 SLOAD PUSH1 0xFF AND ISZERO PUSH2 0x419F JUMPI PUSH2 0x418A DUP5 PUSH2 0x4D49 JUMP JUMPDEST POP PUSH1 0x40 DUP1 MLOAD PUSH1 0x0 DUP2 MSTORE PUSH1 0x20 DUP2 ADD SWAP1 SWAP2 MSTORE PUSH2 0x1FB5 JUMP JUMPDEST PUSH1 0x0 DUP1 MLOAD PUSH1 0x20 PUSH2 0x5BA2 DUP4 CODECOPY DUP2 MLOAD SWAP2 MSTORE PUSH1 0x0 SHL DUP5 PUSH1 0x1 PUSH1 0x1 PUSH1 0xA0 SHL SUB AND PUSH4 0x52D1902D PUSH1 0x40 MLOAD DUP2 PUSH4 0xFFFFFFFF AND PUSH1 0xE0 SHL DUP2 MSTORE PUSH1 0x4 ADD PUSH1 0x20 PUSH1 0x40 MLOAD DUP1 DUP4 SUB DUP2 DUP7 GAS STATICCALL ISZERO DUP1 ISZERO PUSH2 0x41EF JUMPI RETURNDATASIZE PUSH1 0x0 DUP1 RETURNDATACOPY RETURNDATASIZE PUSH1 0x0 REVERT JUMPDEST POP POP POP POP PUSH1 0x40 MLOAD RETURNDATASIZE PUSH1 0x1F NOT PUSH1 0x1F DUP3 ADD AND DUP3 ADD DUP1 PUSH1 0x40 MSTORE POP DUP2 ADD SWAP1 PUSH2 0x4213 SWAP2 SWAP1 PUSH2 0x59FB JUMP JUMPDEST EQ PUSH2 0x424F JUMPI PUSH1 0x40 MLOAD PUSH3 0x461BCD PUSH1 0xE5 SHL DUP2 MSTORE PUSH1 0x20 PUSH1 0x4 DUP3 ADD MSTORE PUSH1 0xC PUSH1 0x24 DUP3 ADD MSTORE PUSH12 0x496C6C6567616C2055555053 PUSH1 0xA0 SHL PUSH1 0x44 DUP3 ADD MSTORE PUSH1 0x64 ADD PUSH2 0x736 JUMP JUMPDEST PUSH1 0x40 MLOAD PUSH4 0x1FFC9A7 PUSH1 0xE0 SHL DUP2 MSTORE PUSH1 0x1 PUSH1 0x1 PUSH1 0xA0 SHL SUB DUP6 AND SWAP1 PUSH4 0x1FFC9A7 SWAP1 PUSH2 0x4282 SWAP1 PUSH4 0x27D8F1FD PUSH1 0xE2 SHL SWAP1 PUSH1 0x4 ADD PUSH2 0x54BF JUMP JUMPDEST PUSH1 0x20 PUSH1 0x40 MLOAD DUP1 DUP4 SUB DUP2 DUP7 GAS STATICCALL ISZERO DUP1 ISZERO PUSH2 0x429F JUMPI RETURNDATASIZE PUSH1 0x0 DUP1 RETURNDATACOPY RETURNDATASIZE PUSH1 0x0 REVERT JUMPDEST POP POP POP POP PUSH1 0x40 MLOAD RETURNDATASIZE PUSH1 0x1F NOT PUSH1 0x1F DUP3 ADD AND DUP3 ADD DUP1 PUSH1 0x40 MSTORE POP DUP2 ADD SWAP1 PUSH2 0x42C3 SWAP2 SWAP1 PUSH2 0x54D4 JUMP JUMPDEST PUSH2 0x42FF JUMPI PUSH1 0x40 MLOAD PUSH3 0x461BCD PUSH1 0xE5 SHL DUP2 MSTORE PUSH1 0x20 PUSH1 0x4 DUP3 ADD MSTORE PUSH1 0xD PUSH1 0x24 DUP3 ADD MSTORE PUSH13 0x496C6C6567616C2050726F7879 PUSH1 0x98 SHL PUSH1 0x44 DUP3 ADD MSTORE PUSH1 0x64 ADD PUSH2 0x736 JUMP JUMPDEST PUSH2 0x430A DUP5 DUP5 DUP5 PUSH2 0x4DBE JUMP JUMPDEST SWAP1 POP PUSH2 0x1FB5 JUMP JUMPDEST PUSH1 0x0 PUSH32 0x8B73C3C69BB8FE3D512ECC4CF759CC79239F7B179B0FFACAA9A75D522B39400F PUSH1 0x0 PUSH1 0x40 MLOAD PUSH1 0x20 ADD PUSH2 0x4346 SWAP2 SWAP1 PUSH2 0x5A14 JUMP JUMPDEST PUSH1 0x40 MLOAD PUSH1 0x20 DUP2 DUP4 SUB SUB DUP2 MSTORE SWAP1 PUSH1 0x40 MSTORE DUP1 MLOAD SWAP1 PUSH1 0x20 ADD KECCAK256 PUSH1 0x1 PUSH1 0x40 MLOAD PUSH1 0x20 ADD PUSH2 0x436E SWAP2 SWAP1 PUSH2 0x5A14 JUMP JUMPDEST PUSH1 0x40 DUP1 MLOAD PUSH1 0x1F NOT DUP2 DUP5 SUB ADD DUP2 MSTORE DUP3 DUP3 MSTORE DUP1 MLOAD PUSH1 0x20 SWAP2 DUP3 ADD KECCAK256 SWAP1 DUP4 ADD SWAP5 SWAP1 SWAP5 MSTORE DUP2 ADD SWAP2 SWAP1 SWAP2 MSTORE PUSH1 0x60 DUP2 ADD SWAP2 SWAP1 SWAP2 MSTORE CHAINID PUSH1 0x80 DUP3 ADD MSTORE ADDRESS PUSH1 0xA0 DUP3 ADD MSTORE PUSH1 0xC0 ADD PUSH1 0x40 MLOAD PUSH1 0x20 DUP2 DUP4 SUB SUB DUP2 MSTORE SWAP1 PUSH1 0x40 MSTORE DUP1 MLOAD SWAP1 PUSH1 0x20 ADD KECCAK256 SWAP1 POP SWAP1 JUMP JUMPDEST PUSH32 0xB53127684A568B3173AE13B9F8A6016E243E63B6E8EE1178D6A717850B5D6103 DUP1 SLOAD PUSH1 0x1 PUSH1 0x1 PUSH1 0xA0 SHL SUB DUP4 AND PUSH1 0x1 PUSH1 0x1 PUSH1 0xA0 SHL SUB NOT SWAP1 SWAP2 AND DUP2 OR SWAP1 SWAP2 SSTORE PUSH1 0x40 DUP1 MLOAD SWAP2 DUP3 MSTORE MLOAD ADDRESS SWAP2 CALLER SWAP2 PUSH32 0x63FDBED5F2909EC44E3BECC51E9D29654CE1447747914E8A6EBC019E7F640B8B SWAP2 DUP2 SWAP1 SUB PUSH1 0x20 ADD SWAP1 LOG3 POP JUMP JUMPDEST PUSH1 0x60 DUP2 PUSH1 0x0 ADD DUP1 SLOAD DUP1 PUSH1 0x20 MUL PUSH1 0x20 ADD PUSH1 0x40 MLOAD SWAP1 DUP2 ADD PUSH1 0x40 MSTORE DUP1 SWAP3 SWAP2 SWAP1 DUP2 DUP2 MSTORE PUSH1 0x20 ADD DUP3 DUP1 SLOAD DUP1 ISZERO PUSH2 0x448C JUMPI PUSH1 0x20 MUL DUP3 ADD SWAP2 SWAP1 PUSH1 0x0 MSTORE PUSH1 0x20 PUSH1 0x0 KECCAK256 SWAP1 JUMPDEST DUP2 SLOAD DUP2 MSTORE PUSH1 0x20 ADD SWAP1 PUSH1 0x1 ADD SWAP1 DUP1 DUP4 GT PUSH2 0x4478 JUMPI JUMPDEST POP POP POP POP POP SWAP1 POP SWAP2 SWAP1 POP JUMP JUMPDEST PUSH1 0x60 PUSH1 0x1 PUSH1 0x1 PUSH1 0xA0 SHL SUB DUP5 AND EXTCODESIZE PUSH2 0x44F1 JUMPI PUSH1 0x40 MLOAD PUSH3 0x461BCD PUSH1 0xE5 SHL DUP2 MSTORE PUSH1 0x20 PUSH1 0x4 DUP3 ADD MSTORE PUSH1 0x18 PUSH1 0x24 DUP3 ADD MSTORE PUSH32 0x496C6C6567616C20436F6E747261637420416464726573730000000000000000 PUSH1 0x44 DUP3 ADD MSTORE PUSH1 0x64 ADD PUSH2 0x736 JUMP JUMPDEST PUSH1 0x0 DUP1 DUP6 PUSH1 0x1 PUSH1 0x1 PUSH1 0xA0 SHL SUB AND DUP6 PUSH1 0x40 MLOAD PUSH2 0x450C SWAP2 SWAP1 PUSH2 0x5A8A JUMP JUMPDEST PUSH1 0x0 PUSH1 0x40 MLOAD DUP1 DUP4 SUB DUP2 DUP6 GAS DELEGATECALL SWAP2 POP POP RETURNDATASIZE DUP1 PUSH1 0x0 DUP2 EQ PUSH2 0x4547 JUMPI PUSH1 0x40 MLOAD SWAP2 POP PUSH1 0x1F NOT PUSH1 0x3F RETURNDATASIZE ADD AND DUP3 ADD PUSH1 0x40 MSTORE RETURNDATASIZE DUP3 MSTORE RETURNDATASIZE PUSH1 0x0 PUSH1 0x20 DUP5 ADD RETURNDATACOPY PUSH2 0x454C JUMP JUMPDEST PUSH1 0x60 SWAP2 POP JUMPDEST POP SWAP2 POP SWAP2 POP PUSH2 0x455C DUP3 DUP3 DUP7 PUSH2 0x4E28 JUMP JUMPDEST SWAP7 SWAP6 POP POP POP POP POP POP JUMP JUMPDEST PUSH1 0x0 PUSH2 0x6D5 DUP3 SLOAD SWAP1 JUMP JUMPDEST PUSH1 0x4C SLOAD PUSH3 0x10000 SWAP1 DIV PUSH1 0xFF AND PUSH2 0x45C8 JUMPI PUSH1 0x40 MLOAD PUSH3 0x461BCD PUSH1 0xE5 SHL DUP2 MSTORE PUSH1 0x20 PUSH1 0x4 DUP3 ADD MSTORE PUSH1 0x19 PUSH1 0x24 DUP3 ADD MSTORE PUSH32 0x436F6E7472616374204E6F7420496E697469616C697A696E6700000000000000 PUSH1 0x44 DUP3 ADD MSTORE PUSH1 0x64 ADD PUSH2 0x736 JUMP JUMPDEST PUSH1 0x0 PUSH2 0x45D5 DUP6 DUP8 DUP4 PUSH2 0x5A9C JUMP JUMPDEST POP PUSH1 0x1 PUSH2 0x45E3 DUP4 DUP6 DUP4 PUSH2 0x5A9C JUMP JUMPDEST POP PUSH1 0x1 PUSH1 0x1 PUSH1 0xA0 SHL SUB DUP2 AND ADDRESS EQ PUSH2 0x46A7 JUMPI PUSH1 0x40 MLOAD PUSH4 0x1FFC9A7 PUSH1 0xE0 SHL DUP2 MSTORE PUSH1 0x1 PUSH1 0x1 PUSH1 0xA0 SHL SUB DUP3 AND SWAP1 PUSH4 0x1FFC9A7 SWAP1 PUSH2 0x4627 SWAP1 PUSH4 0x7A327937 PUSH1 0xE0 SHL SWAP1 PUSH1 0x4 ADD PUSH2 0x54BF JUMP JUMPDEST PUSH1 0x20 PUSH1 0x40 MLOAD DUP1 DUP4 SUB DUP2 DUP7 GAS STATICCALL ISZERO DUP1 ISZERO PUSH2 0x4644 JUMPI RETURNDATASIZE PUSH1 0x0 DUP1 RETURNDATACOPY RETURNDATASIZE PUSH1 0x0 REVERT JUMPDEST POP POP POP POP PUSH1 0x40 MLOAD RETURNDATASIZE PUSH1 0x1F NOT PUSH1 0x1F DUP3 ADD AND DUP3 ADD DUP1 PUSH1 0x40 MSTORE POP DUP2 ADD SWAP1 PUSH2 0x4668 SWAP2 SWAP1 PUSH2 0x54D4 JUMP JUMPDEST PUSH2 0x46A2 JUMPI PUSH1 0x40 MLOAD PUSH3 0x461BCD PUSH1 0xE5 SHL DUP2 MSTORE PUSH1 0x20 PUSH1 0x4 DUP3 ADD MSTORE PUSH1 0xB PUSH1 0x24 DUP3 ADD MSTORE PUSH11 0x125B1B1959D85B081050D3 PUSH1 0xAA SHL PUSH1 0x44 DUP3 ADD MSTORE PUSH1 0x64 ADD PUSH2 0x736 JUMP JUMPDEST PUSH2 0x46F3 JUMP JUMPDEST PUSH2 0x46B7 PUSH4 0x7A327937 PUSH1 0xE0 SHL PUSH2 0x5BD JUMP JUMPDEST PUSH2 0x46F3 JUMPI PUSH1 0x40 MLOAD PUSH3 0x461BCD PUSH1 0xE5 SHL DUP2 MSTORE PUSH1 0x20 PUSH1 0x4 DUP3 ADD MSTORE PUSH1 0xD PUSH1 0x24 DUP3 ADD MSTORE PUSH13 0x139BDD0814DD5C1C1BDC9D1959 PUSH1 0x9A SHL PUSH1 0x44 DUP3 ADD MSTORE PUSH1 0x64 ADD PUSH2 0x736 JUMP JUMPDEST PUSH1 0x2 DUP1 SLOAD PUSH1 0x1 PUSH1 0x1 PUSH1 0xA0 SHL SUB DUP4 AND PUSH1 0x1 PUSH2 0xFF01 PUSH1 0xA0 SHL SUB NOT SWAP1 SWAP2 AND OR PUSH1 0x1 PUSH1 0xA8 SHL OR PUSH1 0xFF PUSH1 0xA0 SHL NOT AND PUSH1 0x1 PUSH1 0xA0 SHL OR SWAP1 SSTORE PUSH2 0x1CDA CALLER PUSH2 0x43C5 JUMP JUMPDEST PUSH1 0x0 DUP2 DUP2 MSTORE PUSH1 0x1 DUP4 ADD PUSH1 0x20 MSTORE PUSH1 0x40 DUP2 KECCAK256 DUP2 PUSH1 0x1 DUP3 ADD SLOAD PUSH1 0xFF AND PUSH1 0x5 DUP2 GT ISZERO PUSH2 0x4757 JUMPI PUSH2 0x4757 PUSH2 0x52E5 JUMP JUMPDEST EQ DUP1 PUSH2 0x477B JUMPI POP PUSH1 0x5 PUSH1 0x1 DUP3 ADD SLOAD PUSH1 0xFF AND PUSH1 0x5 DUP2 GT ISZERO PUSH2 0x4779 JUMPI PUSH2 0x4779 PUSH2 0x52E5 JUMP JUMPDEST EQ JUMPDEST ISZERO PUSH2 0x4798 JUMPI PUSH1 0x40 DUP1 MLOAD DUP5 DUP2 MSTORE PUSH1 0x1 DUP7 ADD PUSH1 0x20 DUP3 ADD MSTORE KECCAK256 SWAP2 POP PUSH2 0x1A40 JUMP JUMPDEST PUSH1 0x40 MLOAD PUSH3 0x461BCD PUSH1 0xE5 SHL DUP2 MSTORE PUSH1 0x20 PUSH1 0x4 DUP3 ADD MSTORE PUSH1 0x10 PUSH1 0x24 DUP3 ADD MSTORE PUSH16 0x125B1B1959D85B0811D2510814DB1BDD PUSH1 0x82 SHL PUSH1 0x44 DUP3 ADD MSTORE PUSH1 0x64 ADD PUSH2 0x736 JUMP JUMPDEST PUSH1 0x0 DUP2 DUP2 MSTORE PUSH1 0x20 DUP4 SWAP1 MSTORE PUSH1 0x40 DUP2 KECCAK256 DUP2 PUSH1 0x1 DUP3 ADD SLOAD PUSH1 0xFF AND PUSH1 0x3 DUP2 GT ISZERO PUSH2 0x47FB JUMPI PUSH2 0x47FB PUSH2 0x52E5 JUMP JUMPDEST EQ DUP1 PUSH2 0x481F JUMPI POP PUSH1 0x3 PUSH1 0x1 DUP3 ADD SLOAD PUSH1 0xFF AND PUSH1 0x3 DUP2 GT ISZERO PUSH2 0x481D JUMPI PUSH2 0x481D PUSH2 0x52E5 JUMP JUMPDEST EQ JUMPDEST ISZERO PUSH2 0x483A JUMPI PUSH1 0x40 DUP1 MLOAD DUP5 DUP2 MSTORE PUSH1 0x20 DUP2 ADD DUP7 SWAP1 MSTORE KECCAK256 SWAP2 POP PUSH2 0x1A40 JUMP JUMPDEST PUSH1 0x40 MLOAD PUSH3 0x461BCD PUSH1 0xE5 SHL DUP2 MSTORE PUSH1 0x20 PUSH1 0x4 DUP3 ADD MSTORE PUSH1 0x10 PUSH1 0x24 DUP3 ADD MSTORE PUSH16 0x125B1B1959D85B081512510814DB1BDD PUSH1 0x82 SHL PUSH1 0x44 DUP3 ADD MSTORE PUSH1 0x64 ADD PUSH2 0x736 JUMP JUMPDEST PUSH1 0x0 PUSH2 0x1FB5 DUP4 DUP4 PUSH2 0x4E61 JUMP JUMPDEST PUSH1 0x0 DUP2 DUP2 MSTORE PUSH1 0x20 DUP4 SWAP1 MSTORE PUSH1 0x40 DUP2 KECCAK256 DUP2 PUSH1 0x1 DUP3 ADD SLOAD PUSH1 0xFF AND PUSH1 0x3 DUP2 GT ISZERO PUSH2 0x48A9 JUMPI PUSH2 0x48A9 PUSH2 0x52E5 JUMP JUMPDEST EQ DUP1 PUSH2 0x48CD JUMPI POP PUSH1 0x2 PUSH1 0x1 DUP3 ADD SLOAD PUSH1 0xFF AND PUSH1 0x3 DUP2 GT ISZERO PUSH2 0x48CB JUMPI PUSH2 0x48CB PUSH2 0x52E5 JUMP JUMPDEST EQ JUMPDEST ISZERO PUSH2 0x48E8 JUMPI PUSH1 0x40 DUP1 MLOAD DUP5 DUP2 MSTORE PUSH1 0x20 DUP2 ADD DUP7 SWAP1 MSTORE KECCAK256 SWAP2 POP PUSH2 0x1A40 JUMP JUMPDEST PUSH1 0x40 MLOAD PUSH3 0x461BCD PUSH1 0xE5 SHL DUP2 MSTORE PUSH1 0x20 PUSH1 0x4 DUP3 ADD MSTORE PUSH1 0x13 PUSH1 0x24 DUP3 ADD MSTORE PUSH19 0x125B1B1959D85B08149BDB1952590814DB1BDD PUSH1 0x6A SHL PUSH1 0x44 DUP3 ADD MSTORE PUSH1 0x64 ADD PUSH2 0x736 JUMP JUMPDEST PUSH1 0x0 DUP2 DUP2 MSTORE PUSH1 0x20 DUP4 SWAP1 MSTORE PUSH1 0x40 DUP2 KECCAK256 DUP2 PUSH1 0x1 DUP3 ADD SLOAD PUSH1 0xFF AND PUSH1 0x3 DUP2 GT ISZERO PUSH2 0x494E JUMPI PUSH2 0x494E PUSH2 0x52E5 JUMP JUMPDEST EQ DUP1 PUSH2 0x4971 JUMPI POP PUSH1 0x1 DUP1 DUP3 ADD SLOAD PUSH1 0xFF AND PUSH1 0x3 DUP2 GT ISZERO PUSH2 0x496F JUMPI PUSH2 0x496F PUSH2 0x52E5 JUMP JUMPDEST EQ JUMPDEST ISZERO PUSH2 0x498C JUMPI PUSH1 0x40 DUP1 MLOAD DUP5 DUP2 MSTORE PUSH1 0x20 DUP2 ADD DUP7 SWAP1 MSTORE KECCAK256 SWAP2 POP PUSH2 0x1A40 JUMP JUMPDEST PUSH1 0x40 MLOAD PUSH3 0x461BCD PUSH1 0xE5 SHL DUP2 MSTORE PUSH1 0x20 PUSH1 0x4 DUP3 ADD MSTORE PUSH1 0x10 PUSH1 0x24 DUP3 ADD MSTORE PUSH16 0x125B1B1959D85B081352510814DB1BDD PUSH1 0x82 SHL PUSH1 0x44 DUP3 ADD MSTORE PUSH1 0x64 ADD PUSH2 0x736 JUMP JUMPDEST PUSH1 0x0 DUP2 PUSH1 0x40 MLOAD PUSH1 0x20 ADD PUSH2 0x3A95 SWAP2 SWAP1 PUSH2 0x5A8A JUMP JUMPDEST PUSH1 0x0 DUP2 DUP2 MSTORE PUSH1 0x1 DUP4 ADD PUSH1 0x20 MSTORE PUSH1 0x40 DUP2 KECCAK256 DUP2 PUSH1 0x1 DUP3 ADD SLOAD PUSH1 0xFF AND PUSH1 0x5 DUP2 GT ISZERO PUSH2 0x4A04 JUMPI PUSH2 0x4A04 PUSH2 0x52E5 JUMP JUMPDEST EQ DUP1 PUSH2 0x4A28 JUMPI POP PUSH1 0x4 PUSH1 0x1 DUP3 ADD SLOAD PUSH1 0xFF AND PUSH1 0x5 DUP2 GT ISZERO PUSH2 0x4A26 JUMPI PUSH2 0x4A26 PUSH2 0x52E5 JUMP JUMPDEST EQ JUMPDEST ISZERO PUSH2 0x4A45 JUMPI PUSH1 0x40 DUP1 MLOAD DUP5 DUP2 MSTORE PUSH1 0x1 DUP7 ADD PUSH1 0x20 DUP3 ADD MSTORE KECCAK256 SWAP2 POP PUSH2 0x1A40 JUMP JUMPDEST PUSH1 0x40 MLOAD PUSH3 0x461BCD PUSH1 0xE5 SHL DUP2 MSTORE PUSH1 0x20 PUSH1 0x4 DUP3 ADD MSTORE PUSH1 0x10 PUSH1 0x24 DUP3 ADD MSTORE PUSH16 0x125B1B1959D85B081112510814DB1BDD PUSH1 0x82 SHL PUSH1 0x44 DUP3 ADD MSTORE PUSH1 0x64 ADD PUSH2 0x736 JUMP JUMPDEST PUSH2 0x4152 DUP2 PUSH1 0x40 MLOAD PUSH1 0x24 ADD PUSH2 0x4A94 SWAP2 SWAP1 PUSH2 0x52D2 JUMP JUMPDEST PUSH1 0x40 DUP1 MLOAD PUSH1 0x1F NOT DUP2 DUP5 SUB ADD DUP2 MSTORE SWAP2 SWAP1 MSTORE PUSH1 0x20 DUP2 ADD DUP1 MLOAD PUSH1 0x1 PUSH1 0x1 PUSH1 0xE0 SHL SUB AND PUSH4 0x104C13EB PUSH1 0xE2 SHL OR SWAP1 MSTORE PUSH2 0x4EB0 JUMP JUMPDEST PUSH2 0x4152 DUP2 PUSH1 0x40 MLOAD PUSH1 0x24 ADD PUSH2 0x4AD9 SWAP2 DUP2 MSTORE PUSH1 0x20 ADD SWAP1 JUMP JUMPDEST PUSH1 0x40 DUP1 MLOAD PUSH1 0x1F NOT DUP2 DUP5 SUB ADD DUP2 MSTORE SWAP2 SWAP1 MSTORE PUSH1 0x20 DUP2 ADD DUP1 MLOAD PUSH1 0x1 PUSH1 0x1 PUSH1 0xE0 SHL SUB AND PUSH4 0x27B7CF85 PUSH1 0xE0 SHL OR SWAP1 MSTORE PUSH2 0x4EB0 JUMP JUMPDEST PUSH1 0x0 DUP2 DUP2 MSTORE PUSH1 0x1 DUP4 ADD PUSH1 0x20 MSTORE PUSH1 0x40 DUP2 KECCAK256 DUP2 PUSH1 0x1 DUP3 ADD SLOAD PUSH1 0xFF AND PUSH1 0x5 DUP2 GT ISZERO PUSH2 0x4B32 JUMPI PUSH2 0x4B32 PUSH2 0x52E5 JUMP JUMPDEST EQ DUP1 PUSH2 0x4B56 JUMPI POP PUSH1 0x3 PUSH1 0x1 DUP3 ADD SLOAD PUSH1 0xFF AND PUSH1 0x5 DUP2 GT ISZERO PUSH2 0x4B54 JUMPI PUSH2 0x4B54 PUSH2 0x52E5 JUMP JUMPDEST EQ JUMPDEST ISZERO PUSH2 0x4B73 JUMPI PUSH1 0x40 DUP1 MLOAD DUP5 DUP2 MSTORE PUSH1 0x1 DUP7 ADD PUSH1 0x20 DUP3 ADD MSTORE KECCAK256 SWAP2 POP PUSH2 0x1A40 JUMP JUMPDEST PUSH1 0x40 MLOAD PUSH3 0x461BCD PUSH1 0xE5 SHL DUP2 MSTORE PUSH1 0x20 PUSH1 0x4 DUP3 ADD MSTORE PUSH1 0x10 PUSH1 0x24 DUP3 ADD MSTORE PUSH16 0x125B1B195859DB081492510814DB1BDD PUSH1 0x82 SHL PUSH1 0x44 DUP3 ADD MSTORE PUSH1 0x64 ADD PUSH2 0x736 JUMP JUMPDEST PUSH1 0x0 DUP2 DUP2 MSTORE PUSH1 0x1 DUP4 ADD PUSH1 0x20 MSTORE PUSH1 0x40 DUP2 KECCAK256 DUP2 PUSH1 0x1 DUP3 ADD SLOAD PUSH1 0xFF AND PUSH1 0x5 DUP2 GT ISZERO PUSH2 0x4BD8 JUMPI PUSH2 0x4BD8 PUSH2 0x52E5 JUMP JUMPDEST EQ DUP1 PUSH2 0x4BFC JUMPI POP PUSH1 0x2 PUSH1 0x1 DUP3 ADD SLOAD PUSH1 0xFF AND PUSH1 0x5 DUP2 GT ISZERO PUSH2 0x4BFA JUMPI PUSH2 0x4BFA PUSH2 0x52E5 JUMP JUMPDEST EQ JUMPDEST ISZERO PUSH2 0x4C19 JUMPI PUSH1 0x40 DUP1 MLOAD DUP5 DUP2 MSTORE PUSH1 0x1 DUP7 ADD PUSH1 0x20 DUP3 ADD MSTORE KECCAK256 SWAP2 POP PUSH2 0x1A40 JUMP JUMPDEST PUSH1 0x40 MLOAD PUSH3 0x461BCD PUSH1 0xE5 SHL DUP2 MSTORE PUSH1 0x20 PUSH1 0x4 DUP3 ADD MSTORE PUSH1 0x10 PUSH1 0x24 DUP3 ADD MSTORE PUSH16 0x125B1B1959D85B0810D2510814DB1BDD PUSH1 0x82 SHL PUSH1 0x44 DUP3 ADD MSTORE PUSH1 0x64 ADD PUSH2 0x736 JUMP JUMPDEST PUSH1 0x40 MLOAD PUSH12 0xFFFFFFFFFFFFFFFFFFFFFFFF NOT PUSH1 0x60 DUP5 SWAP1 SHL AND PUSH1 0x20 DUP3 ADD MSTORE PUSH1 0x1 PUSH1 0x1 PUSH1 0xE0 SHL SUB NOT DUP3 AND PUSH1 0x34 DUP3 ADD MSTORE PUSH1 0x0 SWAP1 PUSH1 0x38 ADD PUSH1 0x40 MLOAD PUSH1 0x20 DUP2 DUP4 SUB SUB DUP2 MSTORE SWAP1 PUSH1 0x40 MSTORE DUP1 MLOAD SWAP1 PUSH1 0x20 ADD KECCAK256 SWAP1 POP SWAP3 SWAP2 POP POP JUMP JUMPDEST PUSH1 0x0 DUP2 DUP2 MSTORE PUSH1 0x1 DUP4 ADD PUSH1 0x20 MSTORE PUSH1 0x40 DUP2 KECCAK256 DUP2 PUSH1 0x1 DUP3 ADD SLOAD PUSH1 0xFF AND PUSH1 0x5 DUP2 GT ISZERO PUSH2 0x4CCE JUMPI PUSH2 0x4CCE PUSH2 0x52E5 JUMP JUMPDEST EQ DUP1 PUSH2 0x4CF1 JUMPI POP PUSH1 0x1 DUP1 DUP3 ADD SLOAD PUSH1 0xFF AND PUSH1 0x5 DUP2 GT ISZERO PUSH2 0x4CEF JUMPI PUSH2 0x4CEF PUSH2 0x52E5 JUMP JUMPDEST EQ JUMPDEST ISZERO PUSH2 0x4D0E JUMPI PUSH1 0x40 DUP1 MLOAD DUP5 DUP2 MSTORE PUSH1 0x1 DUP7 ADD PUSH1 0x20 DUP3 ADD MSTORE KECCAK256 SWAP2 POP PUSH2 0x1A40 JUMP JUMPDEST PUSH1 0x40 MLOAD PUSH3 0x461BCD PUSH1 0xE5 SHL DUP2 MSTORE PUSH1 0x20 PUSH1 0x4 DUP3 ADD MSTORE PUSH1 0x10 PUSH1 0x24 DUP3 ADD MSTORE PUSH16 0x125B1B1959D85B081192510814DB1BDD PUSH1 0x82 SHL PUSH1 0x44 DUP3 ADD MSTORE PUSH1 0x64 ADD PUSH2 0x736 JUMP JUMPDEST PUSH1 0x1 PUSH1 0x1 PUSH1 0xA0 SHL SUB DUP2 AND EXTCODESIZE PUSH2 0x4D8F JUMPI PUSH1 0x40 MLOAD PUSH3 0x461BCD PUSH1 0xE5 SHL DUP2 MSTORE PUSH1 0x20 PUSH1 0x4 DUP3 ADD MSTORE PUSH1 0xC PUSH1 0x24 DUP3 ADD MSTORE PUSH12 0x125B1B1959D85B08125B5C1B PUSH1 0xA2 SHL PUSH1 0x44 DUP3 ADD MSTORE PUSH1 0x64 ADD PUSH2 0x736 JUMP JUMPDEST PUSH1 0x0 DUP1 MLOAD PUSH1 0x20 PUSH2 0x5BA2 DUP4 CODECOPY DUP2 MLOAD SWAP2 MSTORE DUP1 SLOAD PUSH1 0x1 PUSH1 0x1 PUSH1 0xA0 SHL SUB NOT AND PUSH1 0x1 PUSH1 0x1 PUSH1 0xA0 SHL SUB SWAP3 SWAP1 SWAP3 AND SWAP2 SWAP1 SWAP2 OR SWAP1 SSTORE JUMP JUMPDEST PUSH1 0x60 PUSH2 0x4DC9 DUP5 PUSH2 0x4ED1 JUMP JUMPDEST PUSH1 0x0 DUP4 MLOAD GT DUP1 PUSH2 0x4DD6 JUMPI POP DUP2 JUMPDEST ISZERO PUSH2 0x4E11 JUMPI PUSH2 0x430A DUP5 DUP5 PUSH1 0x40 MLOAD DUP1 PUSH1 0x40 ADD PUSH1 0x40 MSTORE DUP1 PUSH1 0x13 DUP2 MSTORE PUSH1 0x20 ADD PUSH19 0x11195B1959D85D1958D85B1B0811985A5B1959 PUSH1 0x6A SHL DUP2 MSTORE POP PUSH2 0x4498 JUMP JUMPDEST POP POP PUSH1 0x40 DUP1 MLOAD PUSH1 0x0 DUP2 MSTORE PUSH1 0x20 DUP2 ADD SWAP1 SWAP2 MSTORE SWAP3 SWAP2 POP POP JUMP JUMPDEST PUSH1 0x60 DUP4 ISZERO PUSH2 0x4E37 JUMPI POP DUP2 PUSH2 0x1FB5 JUMP JUMPDEST DUP3 MLOAD ISZERO PUSH2 0x4E47 JUMPI DUP3 MLOAD DUP1 DUP5 PUSH1 0x20 ADD REVERT JUMPDEST DUP2 PUSH1 0x40 MLOAD PUSH3 0x461BCD PUSH1 0xE5 SHL DUP2 MSTORE PUSH1 0x4 ADD PUSH2 0x736 SWAP2 SWAP1 PUSH2 0x52D2 JUMP JUMPDEST PUSH1 0x0 DUP2 DUP2 MSTORE PUSH1 0x1 DUP4 ADD PUSH1 0x20 MSTORE PUSH1 0x40 DUP2 KECCAK256 SLOAD PUSH2 0x4EA8 JUMPI POP DUP2 SLOAD PUSH1 0x1 DUP2 DUP2 ADD DUP5 SSTORE PUSH1 0x0 DUP5 DUP2 MSTORE PUSH1 0x20 DUP1 DUP3 KECCAK256 SWAP1 SWAP4 ADD DUP5 SWAP1 SSTORE DUP5 SLOAD DUP5 DUP3 MSTORE DUP3 DUP7 ADD SWAP1 SWAP4 MSTORE PUSH1 0x40 SWAP1 KECCAK256 SWAP2 SWAP1 SWAP2 SSTORE PUSH2 0x6D5 JUMP JUMPDEST POP PUSH1 0x0 PUSH2 0x6D5 JUMP JUMPDEST DUP1 MLOAD PUSH11 0x636F6E736F6C652E6C6F67 PUSH1 0x20 DUP4 ADD PUSH1 0x0 DUP1 DUP5 DUP4 DUP6 GAS STATICCALL POP POP POP POP POP JUMP JUMPDEST PUSH2 0x4EDA DUP2 PUSH2 0x4D49 JUMP JUMPDEST PUSH1 0x40 MLOAD PUSH1 0x1 PUSH1 0x1 PUSH1 0xA0 SHL SUB DUP3 AND SWAP1 ADDRESS SWAP1 CALLER SWAP1 PUSH32 0x8EE0F2BD29C0E6A975C3CC2E47CF2E01B5F23A9A8A02E0ED6A5A070269DE3D2D SWAP1 PUSH1 0x0 SWAP1 LOG4 POP JUMP JUMPDEST DUP1 CALLDATALOAD PUSH1 0x1 PUSH1 0x1 PUSH1 0xE0 SHL SUB NOT DUP2 AND DUP2 EQ PUSH2 0x9ED JUMPI PUSH1 0x0 DUP1 REVERT JUMPDEST PUSH1 0x0 PUSH1 0x20 DUP3 DUP5 SUB SLT ISZERO PUSH2 0x4F3F JUMPI PUSH1 0x0 DUP1 REVERT JUMPDEST PUSH2 0x1FB5 DUP3 PUSH2 0x4F15 JUMP JUMPDEST PUSH1 0x20 DUP1 DUP3 MSTORE DUP3 MLOAD DUP3 DUP3 ADD DUP2 SWAP1 MSTORE PUSH1 0x0 SWAP2 SWAP1 DUP5 DUP3 ADD SWAP1 PUSH1 0x40 DUP6 ADD SWAP1 DUP5 JUMPDEST DUP2 DUP2 LT ISZERO PUSH2 0x4F89 JUMPI DUP4 MLOAD PUSH1 0x1 PUSH1 0x1 PUSH1 0xA0 SHL SUB AND DUP4 MSTORE SWAP3 DUP5 ADD SWAP3 SWAP2 DUP5 ADD SWAP2 PUSH1 0x1 ADD PUSH2 0x4F64 JUMP JUMPDEST POP SWAP1 SWAP7 SWAP6 POP POP POP POP POP POP JUMP JUMPDEST DUP1 CALLDATALOAD PUSH1 0x1 PUSH1 0x1 PUSH1 0xA0 SHL SUB DUP2 AND DUP2 EQ PUSH2 0x9ED JUMPI PUSH1 0x0 DUP1 REVERT JUMPDEST PUSH1 0x0 PUSH1 0x20 DUP3 DUP5 SUB SLT ISZERO PUSH2 0x4FBE JUMPI PUSH1 0x0 DUP1 REVERT JUMPDEST PUSH2 0x1FB5 DUP3 PUSH2 0x4F95 JUMP JUMPDEST PUSH1 0x0 DUP1 DUP4 PUSH1 0x1F DUP5 ADD SLT PUSH2 0x4FD9 JUMPI PUSH1 0x0 DUP1 REVERT JUMPDEST POP DUP2 CALLDATALOAD PUSH8 0xFFFFFFFFFFFFFFFF DUP2 GT ISZERO PUSH2 0x4FF1 JUMPI PUSH1 0x0 DUP1 REVERT JUMPDEST PUSH1 0x20 DUP4 ADD SWAP2 POP DUP4 PUSH1 0x20 DUP3 PUSH1 0x5 SHL DUP6 ADD ADD GT ISZERO PUSH2 0x500C JUMPI PUSH1 0x0 DUP1 REVERT JUMPDEST SWAP3 POP SWAP3 SWAP1 POP JUMP JUMPDEST PUSH1 0x0 DUP1 PUSH1 0x20 DUP4 DUP6 SUB SLT ISZERO PUSH2 0x5026 JUMPI PUSH1 0x0 DUP1 REVERT JUMPDEST DUP3 CALLDATALOAD PUSH8 0xFFFFFFFFFFFFFFFF DUP2 GT ISZERO PUSH2 0x503D JUMPI PUSH1 0x0 DUP1 REVERT JUMPDEST PUSH2 0x5049 DUP6 DUP3 DUP7 ADD PUSH2 0x4FC7 JUMP JUMPDEST SWAP1 SWAP7 SWAP1 SWAP6 POP SWAP4 POP POP POP POP JUMP JUMPDEST PUSH1 0x3 DUP2 LT PUSH2 0x4152 JUMPI PUSH1 0x0 DUP1 REVERT JUMPDEST PUSH1 0x0 PUSH1 0x20 DUP3 DUP5 SUB SLT ISZERO PUSH2 0x5074 JUMPI PUSH1 0x0 DUP1 REVERT JUMPDEST DUP2 CALLDATALOAD PUSH2 0x1FB5 DUP2 PUSH2 0x5055 JUMP JUMPDEST PUSH1 0x0 DUP1 DUP4 PUSH1 0x1F DUP5 ADD SLT PUSH2 0x5091 JUMPI PUSH1 0x0 DUP1 REVERT JUMPDEST POP DUP2 CALLDATALOAD PUSH8 0xFFFFFFFFFFFFFFFF DUP2 GT ISZERO PUSH2 0x50A9 JUMPI PUSH1 0x0 DUP1 REVERT JUMPDEST PUSH1 0x20 DUP4 ADD SWAP2 POP DUP4 PUSH1 0x20 DUP3 DUP6 ADD ADD GT ISZERO PUSH2 0x500C JUMPI PUSH1 0x0 DUP1 REVERT JUMPDEST PUSH1 0x0 DUP1 PUSH1 0x0 DUP1 PUSH1 0x40 DUP6 DUP8 SUB SLT ISZERO PUSH2 0x50D7 JUMPI PUSH1 0x0 DUP1 REVERT JUMPDEST DUP5 CALLDATALOAD PUSH8 0xFFFFFFFFFFFFFFFF DUP1 DUP3 GT ISZERO PUSH2 0x50EF JUMPI PUSH1 0x0 DUP1 REVERT JUMPDEST PUSH2 0x50FB DUP9 DUP4 DUP10 ADD PUSH2 0x507F JUMP JUMPDEST SWAP1 SWAP7 POP SWAP5 POP PUSH1 0x20 DUP8 ADD CALLDATALOAD SWAP2 POP DUP1 DUP3 GT ISZERO PUSH2 0x5114 JUMPI PUSH1 0x0 DUP1 REVERT JUMPDEST POP PUSH2 0x5121 DUP8 DUP3 DUP9 ADD PUSH2 0x507F JUMP JUMPDEST SWAP6 SWAP9 SWAP5 SWAP8 POP SWAP6 POP POP POP POP JUMP JUMPDEST PUSH1 0x0 DUP1 PUSH1 0x0 DUP1 PUSH1 0x80 DUP6 DUP8 SUB SLT ISZERO PUSH2 0x5143 JUMPI PUSH1 0x0 DUP1 REVERT JUMPDEST PUSH2 0x514C DUP6 PUSH2 0x4F95 JUMP JUMPDEST SWAP4 POP PUSH2 0x515A PUSH1 0x20 DUP7 ADD PUSH2 0x4F95 JUMP JUMPDEST SWAP3 POP PUSH2 0x5168 PUSH1 0x40 DUP7 ADD PUSH2 0x4F95 JUMP JUMPDEST SWAP2 POP PUSH2 0x5176 PUSH1 0x60 DUP7 ADD PUSH2 0x4F95 JUMP JUMPDEST SWAP1 POP SWAP3 SWAP6 SWAP2 SWAP5 POP SWAP3 POP JUMP JUMPDEST PUSH4 0x4E487B71 PUSH1 0xE0 SHL PUSH1 0x0 MSTORE PUSH1 0x41 PUSH1 0x4 MSTORE PUSH1 0x24 PUSH1 0x0 REVERT JUMPDEST DUP1 ISZERO ISZERO DUP2 EQ PUSH2 0x4152 JUMPI PUSH1 0x0 DUP1 REVERT JUMPDEST DUP1 CALLDATALOAD PUSH2 0x9ED DUP2 PUSH2 0x5197 JUMP JUMPDEST PUSH1 0x0 DUP1 PUSH1 0x0 PUSH1 0x60 DUP5 DUP7 SUB SLT ISZERO PUSH2 0x51C5 JUMPI PUSH1 0x0 DUP1 REVERT JUMPDEST PUSH2 0x51CE DUP5 PUSH2 0x4F95 JUMP JUMPDEST SWAP3 POP PUSH1 0x20 DUP5 ADD CALLDATALOAD PUSH8 0xFFFFFFFFFFFFFFFF DUP1 DUP3 GT ISZERO PUSH2 0x51EB JUMPI PUSH1 0x0 DUP1 REVERT JUMPDEST DUP2 DUP7 ADD SWAP2 POP DUP7 PUSH1 0x1F DUP4 ADD SLT PUSH2 0x51FF JUMPI PUSH1 0x0 DUP1 REVERT JUMPDEST DUP2 CALLDATALOAD DUP2 DUP2 GT ISZERO PUSH2 0x5211 JUMPI PUSH2 0x5211 PUSH2 0x5181 JUMP JUMPDEST PUSH1 0x40 MLOAD PUSH1 0x1F DUP3 ADD PUSH1 0x1F NOT SWAP1 DUP2 AND PUSH1 0x3F ADD AND DUP2 ADD SWAP1 DUP4 DUP3 GT DUP2 DUP4 LT OR ISZERO PUSH2 0x5239 JUMPI PUSH2 0x5239 PUSH2 0x5181 JUMP JUMPDEST DUP2 PUSH1 0x40 MSTORE DUP3 DUP2 MSTORE DUP10 PUSH1 0x20 DUP5 DUP8 ADD ADD GT ISZERO PUSH2 0x5252 JUMPI PUSH1 0x0 DUP1 REVERT JUMPDEST DUP3 PUSH1 0x20 DUP7 ADD PUSH1 0x20 DUP4 ADD CALLDATACOPY PUSH1 0x0 PUSH1 0x20 DUP5 DUP4 ADD ADD MSTORE DUP1 SWAP7 POP POP POP POP POP POP PUSH2 0x5279 PUSH1 0x40 DUP6 ADD PUSH2 0x51A5 JUMP JUMPDEST SWAP1 POP SWAP3 POP SWAP3 POP SWAP3 JUMP JUMPDEST PUSH1 0x0 JUMPDEST DUP4 DUP2 LT ISZERO PUSH2 0x529D JUMPI DUP2 DUP2 ADD MLOAD DUP4 DUP3 ADD MSTORE PUSH1 0x20 ADD PUSH2 0x5285 JUMP JUMPDEST POP POP PUSH1 0x0 SWAP2 ADD MSTORE JUMP JUMPDEST PUSH1 0x0 DUP2 MLOAD DUP1 DUP5 MSTORE PUSH2 0x52BE DUP2 PUSH1 0x20 DUP7 ADD PUSH1 0x20 DUP7 ADD PUSH2 0x5282 JUMP JUMPDEST PUSH1 0x1F ADD PUSH1 0x1F NOT AND SWAP3 SWAP1 SWAP3 ADD PUSH1 0x20 ADD SWAP3 SWAP2 POP POP JUMP JUMPDEST PUSH1 0x20 DUP2 MSTORE PUSH1 0x0 PUSH2 0x1FB5 PUSH1 0x20 DUP4 ADD DUP5 PUSH2 0x52A6 JUMP JUMPDEST PUSH4 0x4E487B71 PUSH1 0xE0 SHL PUSH1 0x0 MSTORE PUSH1 0x21 PUSH1 0x4 MSTORE PUSH1 0x24 PUSH1 0x0 REVERT JUMPDEST PUSH1 0x3 DUP2 LT PUSH2 0x4152 JUMPI PUSH4 0x4E487B71 PUSH1 0xE0 SHL PUSH1 0x0 MSTORE PUSH1 0x21 PUSH1 0x4 MSTORE PUSH1 0x24 PUSH1 0x0 REVERT JUMPDEST PUSH2 0x5322 DUP2 PUSH2 0x52FB JUMP JUMPDEST SWAP1 MSTORE JUMP JUMPDEST PUSH1 0x20 DUP2 ADD PUSH2 0x5333 DUP4 PUSH2 0x52FB JUMP JUMPDEST SWAP2 SWAP1 MSTORE SWAP1 JUMP JUMPDEST PUSH1 0x20 DUP2 MSTORE DUP2 MLOAD PUSH1 0x20 DUP3 ADD MSTORE PUSH1 0x0 PUSH1 0x20 DUP4 ADD MLOAD PUSH2 0x120 DUP1 PUSH1 0x40 DUP6 ADD MSTORE PUSH2 0x5362 PUSH2 0x140 DUP6 ADD DUP4 PUSH2 0x52A6 JUMP JUMPDEST SWAP2 POP PUSH1 0x40 DUP6 ADD MLOAD PUSH1 0x1F NOT DUP6 DUP5 SUB ADD PUSH1 0x60 DUP7 ADD MSTORE PUSH2 0x537F DUP4 DUP3 PUSH2 0x52A6 JUMP JUMPDEST SWAP3 POP POP PUSH1 0x60 DUP6 ADD MLOAD PUSH2 0x539C PUSH1 0x80 DUP7 ADD DUP3 PUSH1 0x1 PUSH1 0x1 PUSH1 0xA0 SHL SUB AND SWAP1 MSTORE JUMP JUMPDEST POP PUSH1 0x80 DUP6 ADD MLOAD PUSH1 0x1 PUSH1 0x1 PUSH1 0xA0 SHL SUB DUP2 AND PUSH1 0xA0 DUP7 ADD MSTORE POP PUSH1 0xA0 DUP6 ADD MLOAD PUSH1 0x1 PUSH1 0x1 PUSH1 0xA0 SHL SUB DUP2 AND PUSH1 0xC0 DUP7 ADD MSTORE POP PUSH1 0xC0 DUP6 ADD MLOAD PUSH2 0xFFFF DUP2 AND PUSH1 0xE0 DUP7 ADD MSTORE POP PUSH1 0xE0 DUP6 ADD MLOAD PUSH2 0x100 PUSH2 0x53EB DUP2 DUP8 ADD DUP4 PUSH2 0x5319 JUMP JUMPDEST DUP7 ADD MLOAD SWAP1 POP PUSH2 0x53FC DUP6 DUP4 ADD DUP3 PUSH2 0x5319 JUMP JUMPDEST POP SWAP1 SWAP5 SWAP4 POP POP POP POP JUMP JUMPDEST PUSH1 0x20 DUP1 DUP3 MSTORE PUSH1 0xC SWAP1 DUP3 ADD MSTORE PUSH12 0x125B1B1959D85B0810D85B1B PUSH1 0xA2 SHL PUSH1 0x40 DUP3 ADD MSTORE PUSH1 0x60 ADD SWAP1 JUMP JUMPDEST PUSH1 0x20 DUP1 DUP3 MSTORE PUSH1 0xC SWAP1 DUP3 ADD MSTORE PUSH12 0x125B9D985B1A590810D85B1B PUSH1 0xA2 SHL PUSH1 0x40 DUP3 ADD MSTORE PUSH1 0x60 ADD SWAP1 JUMP JUMPDEST PUSH1 0x20 DUP1 DUP3 MSTORE PUSH1 0xE SWAP1 DUP3 ADD MSTORE PUSH14 0x139BDD08105D5D1A1BDC9A5E9959 PUSH1 0x92 SHL PUSH1 0x40 DUP3 ADD MSTORE PUSH1 0x60 ADD SWAP1 JUMP JUMPDEST PUSH1 0x20 DUP1 DUP3 MSTORE PUSH1 0x8 SWAP1 DUP3 ADD MSTORE PUSH8 0x14995A9958DD1959 PUSH1 0xC2 SHL PUSH1 0x40 DUP3 ADD MSTORE PUSH1 0x60 ADD SWAP1 JUMP JUMPDEST PUSH1 0x20 DUP1 DUP3 MSTORE PUSH1 0x9 SWAP1 DUP3 ADD MSTORE PUSH9 0x2337B93134B23232B7 PUSH1 0xB9 SHL PUSH1 0x40 DUP3 ADD MSTORE PUSH1 0x60 ADD SWAP1 JUMP JUMPDEST PUSH1 0x1 PUSH1 0x1 PUSH1 0xE0 SHL SUB NOT SWAP2 SWAP1 SWAP2 AND DUP2 MSTORE PUSH1 0x20 ADD SWAP1 JUMP JUMPDEST PUSH1 0x0 PUSH1 0x20 DUP3 DUP5 SUB SLT ISZERO PUSH2 0x54E6 JUMPI PUSH1 0x0 DUP1 REVERT JUMPDEST DUP2 MLOAD PUSH2 0x1FB5 DUP2 PUSH2 0x5197 JUMP JUMPDEST PUSH4 0x4E487B71 PUSH1 0xE0 SHL PUSH1 0x0 MSTORE PUSH1 0x32 PUSH1 0x4 MSTORE PUSH1 0x24 PUSH1 0x0 REVERT JUMPDEST PUSH1 0x0 DUP3 CALLDATALOAD PUSH1 0x7E NOT DUP4 CALLDATASIZE SUB ADD DUP2 SLT PUSH2 0x551D JUMPI PUSH1 0x0 DUP1 REVERT JUMPDEST SWAP2 SWAP1 SWAP2 ADD SWAP3 SWAP2 POP POP JUMP JUMPDEST PUSH1 0x0 DUP1 DUP4 CALLDATALOAD PUSH1 0x1E NOT DUP5 CALLDATASIZE SUB ADD DUP2 SLT PUSH2 0x553E JUMPI PUSH1 0x0 DUP1 REVERT JUMPDEST DUP4 ADD DUP1 CALLDATALOAD SWAP2 POP PUSH8 0xFFFFFFFFFFFFFFFF DUP3 GT ISZERO PUSH2 0x5559 JUMPI PUSH1 0x0 DUP1 REVERT JUMPDEST PUSH1 0x20 ADD SWAP2 POP PUSH1 0x5 DUP2 SWAP1 SHL CALLDATASIZE SUB DUP3 SGT ISZERO PUSH2 0x500C JUMPI PUSH1 0x0 DUP1 REVERT JUMPDEST PUSH1 0x0 DUP3 CALLDATALOAD PUSH1 0x3E NOT DUP4 CALLDATASIZE SUB ADD DUP2 SLT PUSH2 0x551D JUMPI PUSH1 0x0 DUP1 REVERT JUMPDEST PUSH1 0x1 PUSH1 0x1 PUSH1 0xE0 SHL SUB NOT DUP4 AND DUP2 MSTORE PUSH1 0x40 DUP2 ADD PUSH2 0x55A1 DUP4 PUSH2 0x52FB JUMP JUMPDEST DUP3 PUSH1 0x20 DUP4 ADD MSTORE SWAP4 SWAP3 POP POP POP JUMP JUMPDEST PUSH4 0x4E487B71 PUSH1 0xE0 SHL PUSH1 0x0 MSTORE PUSH1 0x11 PUSH1 0x4 MSTORE PUSH1 0x24 PUSH1 0x0 REVERT JUMPDEST PUSH1 0x0 PUSH1 0x1 DUP3 ADD PUSH2 0x55D6 JUMPI PUSH2 0x55D6 PUSH2 0x55AE JUMP JUMPDEST POP PUSH1 0x1 ADD SWAP1 JUMP JUMPDEST DUP2 DUP4 MSTORE DUP2 DUP2 PUSH1 0x20 DUP6 ADD CALLDATACOPY POP PUSH1 0x0 DUP3 DUP3 ADD PUSH1 0x20 SWAP1 DUP2 ADD SWAP2 SWAP1 SWAP2 MSTORE PUSH1 0x1F SWAP1 SWAP2 ADD PUSH1 0x1F NOT AND SWAP1 SWAP2 ADD ADD SWAP1 JUMP JUMPDEST PUSH1 0x60 DUP2 MSTORE PUSH1 0x0 PUSH2 0x561A PUSH1 0x60 DUP4 ADD DUP8 DUP10 PUSH2 0x55DD JUMP JUMPDEST DUP3 DUP2 SUB PUSH1 0x20 DUP5 ADD MSTORE PUSH2 0x562D DUP2 DUP7 DUP9 PUSH2 0x55DD JUMP JUMPDEST SWAP2 POP POP PUSH2 0xFFFF DUP4 AND PUSH1 0x40 DUP4 ADD MSTORE SWAP7 SWAP6 POP POP POP POP POP POP JUMP JUMPDEST PUSH1 0x1 DUP2 DUP2 SHR SWAP1 DUP3 AND DUP1 PUSH2 0x5658 JUMPI PUSH1 0x7F DUP3 AND SWAP2 POP JUMPDEST PUSH1 0x20 DUP3 LT DUP2 SUB PUSH2 0x5678 JUMPI PUSH4 0x4E487B71 PUSH1 0xE0 SHL PUSH1 0x0 MSTORE PUSH1 0x22 PUSH1 0x4 MSTORE PUSH1 0x24 PUSH1 0x0 REVERT JUMPDEST POP SWAP2 SWAP1 POP JUMP JUMPDEST DUP2 DUP2 SUB DUP2 DUP2 GT ISZERO PUSH2 0x6D5 JUMPI PUSH2 0x6D5 PUSH2 0x55AE JUMP JUMPDEST PUSH1 0x1 PUSH1 0x1 PUSH1 0xA0 SHL SUB SWAP4 SWAP1 SWAP4 AND DUP4 MSTORE PUSH1 0x1 PUSH1 0x1 PUSH1 0xE0 SHL SUB NOT SWAP2 SWAP1 SWAP2 AND PUSH1 0x20 DUP4 ADD MSTORE PUSH1 0x40 DUP3 ADD MSTORE PUSH1 0x60 ADD SWAP1 JUMP JUMPDEST DUP2 DUP4 MSTORE PUSH1 0x0 PUSH1 0x20 DUP1 DUP6 ADD SWAP5 POP DUP3 PUSH1 0x0 JUMPDEST DUP6 DUP2 LT ISZERO PUSH2 0x56F9 JUMPI PUSH1 0x1 PUSH1 0x1 PUSH1 0xE0 SHL SUB NOT PUSH2 0x56E6 DUP4 PUSH2 0x4F15 JUMP JUMPDEST AND DUP8 MSTORE SWAP6 DUP3 ADD SWAP6 SWAP1 DUP3 ADD SWAP1 PUSH1 0x1 ADD PUSH2 0x56CC JUMP JUMPDEST POP SWAP5 SWAP6 SWAP5 POP POP POP POP POP JUMP JUMPDEST DUP3 DUP2 MSTORE PUSH1 0x40 PUSH1 0x20 DUP3 ADD MSTORE PUSH1 0x0 PUSH1 0x1 PUSH1 0x1 PUSH1 0xA0 SHL SUB DUP1 PUSH2 0x5722 DUP6 PUSH2 0x4F95 JUMP JUMPDEST AND PUSH1 0x40 DUP5 ADD MSTORE DUP1 PUSH2 0x5735 PUSH1 0x20 DUP7 ADD PUSH2 0x4F95 JUMP JUMPDEST AND PUSH1 0x60 DUP5 ADD MSTORE POP PUSH1 0x1 PUSH1 0x1 PUSH1 0xE0 SHL SUB NOT PUSH2 0x5751 PUSH1 0x40 DUP6 ADD PUSH2 0x4F15 JUMP JUMPDEST AND PUSH1 0x80 DUP4 ADD MSTORE PUSH1 0x60 DUP4 ADD CALLDATALOAD PUSH1 0x1E NOT DUP5 CALLDATASIZE SUB ADD DUP2 SLT PUSH2 0x576E JUMPI PUSH1 0x0 DUP1 REVERT JUMPDEST DUP4 ADD PUSH1 0x20 DUP2 ADD SWAP1 CALLDATALOAD PUSH8 0xFFFFFFFFFFFFFFFF DUP2 GT ISZERO PUSH2 0x578B JUMPI PUSH1 0x0 DUP1 REVERT JUMPDEST DUP1 PUSH1 0x5 SHL CALLDATASIZE SUB DUP3 SGT ISZERO PUSH2 0x579D JUMPI PUSH1 0x0 DUP1 REVERT JUMPDEST PUSH1 0x80 PUSH1 0xA0 DUP6 ADD MSTORE PUSH2 0x455C PUSH1 0xC0 DUP6 ADD DUP3 DUP5 PUSH2 0x56BC JUMP JUMPDEST PUSH32 0x4C4956454C595F56455253455F4C4956454C595F474C4F42414C5F53434F5045 DUP2 MSTORE PUSH1 0x20 ADD SWAP1 JUMP JUMPDEST PUSH1 0x1F DUP3 GT ISZERO PUSH2 0x5825 JUMPI PUSH1 0x0 DUP2 DUP2 MSTORE PUSH1 0x20 DUP2 KECCAK256 PUSH1 0x1F DUP6 ADD PUSH1 0x5 SHR DUP2 ADD PUSH1 0x20 DUP7 LT ISZERO PUSH2 0x5802 JUMPI POP DUP1 JUMPDEST PUSH1 0x1F DUP6 ADD PUSH1 0x5 SHR DUP3 ADD SWAP2 POP JUMPDEST DUP2 DUP2 LT ISZERO PUSH2 0x5821 JUMPI DUP3 DUP2 SSTORE PUSH1 0x1 ADD PUSH2 0x580E JUMP JUMPDEST POP POP POP JUMPDEST POP POP POP JUMP JUMPDEST DUP2 MLOAD PUSH8 0xFFFFFFFFFFFFFFFF DUP2 GT ISZERO PUSH2 0x5844 JUMPI PUSH2 0x5844 PUSH2 0x5181 JUMP JUMPDEST PUSH2 0x5858 DUP2 PUSH2 0x5852 DUP5 SLOAD PUSH2 0x5644 JUMP JUMPDEST DUP5 PUSH2 0x57DB JUMP JUMPDEST PUSH1 0x20 DUP1 PUSH1 0x1F DUP4 GT PUSH1 0x1 DUP2 EQ PUSH2 0x588D JUMPI PUSH1 0x0 DUP5 ISZERO PUSH2 0x5875 JUMPI POP DUP6 DUP4 ADD MLOAD JUMPDEST PUSH1 0x0 NOT PUSH1 0x3 DUP7 SWAP1 SHL SHR NOT AND PUSH1 0x1 DUP6 SWAP1 SHL OR DUP6 SSTORE PUSH2 0x5821 JUMP JUMPDEST PUSH1 0x0 DUP6 DUP2 MSTORE PUSH1 0x20 DUP2 KECCAK256 PUSH1 0x1F NOT DUP7 AND SWAP2 JUMPDEST DUP3 DUP2 LT ISZERO PUSH2 0x58BC JUMPI DUP9 DUP7 ADD MLOAD DUP3 SSTORE SWAP5 DUP5 ADD SWAP5 PUSH1 0x1 SWAP1 SWAP2 ADD SWAP1 DUP5 ADD PUSH2 0x589D JUMP JUMPDEST POP DUP6 DUP3 LT ISZERO PUSH2 0x58DA JUMPI DUP8 DUP6 ADD MLOAD PUSH1 0x0 NOT PUSH1 0x3 DUP9 SWAP1 SHL PUSH1 0xF8 AND SHR NOT AND DUP2 SSTORE JUMPDEST POP POP POP POP POP PUSH1 0x1 SWAP1 DUP2 SHL ADD SWAP1 SSTORE POP JUMP JUMPDEST PUSH32 0x4C4956454C595F56455253455F4C4956454C595F4D41535445525F41444D494E DUP2 MSTORE PUSH5 0x5F524F4C45 PUSH1 0xD8 SHL PUSH1 0x20 DUP3 ADD MSTORE PUSH1 0x25 ADD SWAP1 JUMP JUMPDEST PUSH32 0x4C4956454C595F56455253455F53595354454D5F4D41535445525F41444D494E DUP2 MSTORE PUSH5 0x5F524F4C45 PUSH1 0xD8 SHL PUSH1 0x20 DUP3 ADD MSTORE PUSH1 0x25 ADD SWAP1 JUMP JUMPDEST PUSH32 0x4C4956454C595F56455253455F53434F50455F4D41535445525F41444D494E5F DUP2 MSTORE PUSH4 0x524F4C45 PUSH1 0xE0 SHL PUSH1 0x20 DUP3 ADD MSTORE PUSH1 0x24 ADD SWAP1 JUMP JUMPDEST PUSH32 0x4C4956454C595F56455253455F4147454E545F4D41535445525F41444D494E5F DUP2 MSTORE PUSH4 0x524F4C45 PUSH1 0xE0 SHL PUSH1 0x20 DUP3 ADD MSTORE PUSH1 0x24 ADD SWAP1 JUMP JUMPDEST PUSH32 0x4C4956454C595F56455253455F504F4C4943595F4D41535445525F41444D494E DUP2 MSTORE PUSH5 0x5F524F4C45 PUSH1 0xD8 SHL PUSH1 0x20 DUP3 ADD MSTORE PUSH1 0x25 ADD SWAP1 JUMP JUMPDEST PUSH1 0x0 PUSH1 0x20 DUP3 DUP5 SUB SLT ISZERO PUSH2 0x5A0D JUMPI PUSH1 0x0 DUP1 REVERT JUMPDEST POP MLOAD SWAP2 SWAP1 POP JUMP JUMPDEST PUSH1 0x0 DUP1 DUP4 SLOAD PUSH2 0x5A22 DUP2 PUSH2 0x5644 JUMP JUMPDEST PUSH1 0x1 DUP3 DUP2 AND DUP1 ISZERO PUSH2 0x5A3A JUMPI PUSH1 0x1 DUP2 EQ PUSH2 0x5A4F JUMPI PUSH2 0x5A7E JUMP JUMPDEST PUSH1 0xFF NOT DUP5 AND DUP8 MSTORE DUP3 ISZERO ISZERO DUP4 MUL DUP8 ADD SWAP5 POP PUSH2 0x5A7E JUMP JUMPDEST DUP8 PUSH1 0x0 MSTORE PUSH1 0x20 DUP1 PUSH1 0x0 KECCAK256 PUSH1 0x0 JUMPDEST DUP6 DUP2 LT ISZERO PUSH2 0x5A75 JUMPI DUP2 SLOAD DUP11 DUP3 ADD MSTORE SWAP1 DUP5 ADD SWAP1 DUP3 ADD PUSH2 0x5A5C JUMP JUMPDEST POP POP POP DUP3 DUP8 ADD SWAP5 POP JUMPDEST POP SWAP3 SWAP7 SWAP6 POP POP POP POP POP POP JUMP JUMPDEST PUSH1 0x0 DUP3 MLOAD PUSH2 0x551D DUP2 DUP5 PUSH1 0x20 DUP8 ADD PUSH2 0x5282 JUMP JUMPDEST PUSH8 0xFFFFFFFFFFFFFFFF DUP4 GT ISZERO PUSH2 0x5AB4 JUMPI PUSH2 0x5AB4 PUSH2 0x5181 JUMP JUMPDEST PUSH2 0x5AC8 DUP4 PUSH2 0x5AC2 DUP4 SLOAD PUSH2 0x5644 JUMP JUMPDEST DUP4 PUSH2 0x57DB JUMP JUMPDEST PUSH1 0x0 PUSH1 0x1F DUP5 GT PUSH1 0x1 DUP2 EQ PUSH2 0x5AFC JUMPI PUSH1 0x0 DUP6 ISZERO PUSH2 0x5AE4 JUMPI POP DUP4 DUP3 ADD CALLDATALOAD JUMPDEST PUSH1 0x0 NOT PUSH1 0x3 DUP8 SWAP1 SHL SHR NOT AND PUSH1 0x1 DUP7 SWAP1 SHL OR DUP4 SSTORE PUSH2 0x1CDA JUMP JUMPDEST PUSH1 0x0 DUP4 DUP2 MSTORE PUSH1 0x20 SWAP1 KECCAK256 PUSH1 0x1F NOT DUP7 AND SWAP1 DUP4 JUMPDEST DUP3 DUP2 LT ISZERO PUSH2 0x5B2D JUMPI DUP7 DUP6 ADD CALLDATALOAD DUP3 SSTORE PUSH1 0x20 SWAP5 DUP6 ADD SWAP5 PUSH1 0x1 SWAP1 SWAP3 ADD SWAP2 ADD PUSH2 0x5B0D JUMP JUMPDEST POP DUP7 DUP3 LT ISZERO PUSH2 0x5B4A JUMPI PUSH1 0x0 NOT PUSH1 0xF8 DUP9 PUSH1 0x3 SHL AND SHR NOT DUP5 DUP8 ADD CALLDATALOAD AND DUP2 SSTORE JUMPDEST POP POP PUSH1 0x1 DUP6 PUSH1 0x1 SHL ADD DUP4 SSTORE POP POP POP POP POP JUMP INVALID 0x4C 0x49 JUMP GASLIMIT 0x4C MSIZE 0x5F JUMP GASLIMIT MSTORE MSTORE8 GASLIMIT 0x5F MSTORE8 MSIZE MSTORE8 SLOAD GASLIMIT 0x4D 0x5F 0x4D COINBASE MSTORE8 SLOAD GASLIMIT MSTORE 0x5F COINBASE DIFFICULTY 0x4D 0x49 0x4E 0x5F MSTORE 0x4F 0x4C GASLIMIT 0x4C 0x49 JUMP GASLIMIT 0x4C MSIZE 0x5F JUMP GASLIMIT MSTORE MSTORE8 GASLIMIT 0x5F MSTORE8 MSIZE MSTORE8 SLOAD GASLIMIT 0x4D 0x5F 0x4D COINBASE MSTORE8 SLOAD GASLIMIT MSTORE 0x5F SLOAD MSIZE POP GASLIMIT STOP CALLDATASIZE ADDMOD SWAP5 LOG1 EXTCODESIZE LOG1 LOG3 0x21 MOD PUSH8 0xC828492DB98DCA3E KECCAK256 PUSH23 0xCC3735A920A3CA505D382BBC4C4956454C595F56455253 GASLIMIT 0x5F 0x4C 0x49 JUMP GASLIMIT 0x4C MSIZE 0x5F 0x4D COINBASE MSTORE8 SLOAD GASLIMIT MSTORE 0x5F SLOAD MSIZE POP GASLIMIT STOP 0x4C 0x49 JUMP GASLIMIT 0x4C MSIZE 0x5F JUMP GASLIMIT MSTORE MSTORE8 GASLIMIT 0x5F COINBASE SELFBALANCE 0x4E GASLIMIT SLOAD 0x5F 0x4D COINBASE MSTORE8 SLOAD GASLIMIT MSTORE 0x5F COINBASE DIFFICULTY 0x4D 0x49 0x4E 0x5F MSTORE 0x4F 0x4C GASLIMIT 0x4C 0x49 JUMP GASLIMIT 0x4C MSIZE 0x5F JUMP GASLIMIT MSTORE MSTORE8 GASLIMIT 0x5F MSTORE8 NUMBER 0x4F POP GASLIMIT 0x5F 0x4D COINBASE MSTORE8 SLOAD GASLIMIT MSTORE 0x5F COINBASE DIFFICULTY 0x4D 0x49 0x4E 0x5F MSTORE 0x4F 0x4C GASLIMIT 0x4C 0x49 JUMP GASLIMIT 0x4C MSIZE 0x5F JUMP GASLIMIT MSTORE MSTORE8 GASLIMIT 0x5F POP 0x4F 0x4C 0x49 NUMBER MSIZE 0x5F 0x4D COINBASE MSTORE8 SLOAD GASLIMIT MSTORE 0x5F COINBASE DIFFICULTY 0x4D 0x49 0x4E 0x5F MSTORE 0x4F 0x4C GASLIMIT 0x4C 0x49 JUMP GASLIMIT 0x4C MSIZE 0x5F JUMP GASLIMIT MSTORE MSTORE8 GASLIMIT 0x5F MSTORE8 NUMBER 0x4F POP GASLIMIT 0x5F 0x4D COINBASE MSTORE8 SLOAD GASLIMIT MSTORE 0x5F SLOAD MSIZE POP GASLIMIT STOP STOP 0x4C 0x49 JUMP GASLIMIT 0x4C MSIZE 0x5F JUMP GASLIMIT MSTORE MSTORE8 GASLIMIT 0x5F 0x4C 0x49 JUMP GASLIMIT 0x4C MSIZE 0x5F 0x4D COINBASE MSTORE8 SLOAD GASLIMIT MSTORE 0x5F COINBASE DIFFICULTY 0x4D 0x49 0x4E 0x5F MSTORE 0x4F 0x4C GASLIMIT 0x4C 0x49 JUMP GASLIMIT 0x4C MSIZE 0x5F JUMP GASLIMIT MSTORE MSTORE8 GASLIMIT 0x5F COINBASE SELFBALANCE GASLIMIT 0x4E SLOAD 0x5F 0x4D COINBASE MSTORE8 SLOAD GASLIMIT MSTORE 0x5F SLOAD MSIZE POP GASLIMIT STOP STOP 0x4C 0x49 JUMP GASLIMIT 0x4C MSIZE 0x5F JUMP GASLIMIT MSTORE MSTORE8 GASLIMIT 0x5F POP 0x4F 0x4C 0x49 NUMBER MSIZE 0x5F 0x4D COINBASE MSTORE8 SLOAD GASLIMIT MSTORE 0x5F SLOAD MSIZE POP GASLIMIT STOP LOG2 PUSH5 0x6970667358 0x22 SLT KECCAK256 0x22 0x1F 0xD1 PUSH26 0x4606B4A2DF79429435755C0E2E94D4AB896D95AAFE225A3D1486 0xFC 0xB5 PUSH5 0x736F6C6343 STOP ADDMOD GT STOP CALLER 0xB5 BALANCE 0x27 PUSH9 0x4A568B3173AE13B9F8 0xA6 ADD PUSH15 0x243E63B6E8EE1178D6A717850B5D61 SUB "
    },
    "gasEstimates": {
      "creation": {
        "codeDepositCost": "4763400",
        "executionCost": "infinite",
        "totalCost": "infinite"
      },
      "external": {
        "": "186",
        "CTX_MESSAGE_TYPEHASH()": "285",
        "FUNCTION_MESSAGE_TYPEHASH()": "306",
        "PREDICT_CTX_MESSAGE_TYPEHASH()": "284",
        "TYPE_HASH()": "306",
        "accessControlManager()": "2442",
        "aclGetFacets()": "infinite",
        "aclRegisterFacet((address,address,bytes4,bytes4[])[])": "infinite",
        "aclUpgradeFacet((address,address,bytes4,(uint8,bytes4[])[])[])": "infinite",
        "contractName()": "infinite",
        "contractVersion()": "infinite",
        "domainSeparator()": "infinite",
        "getFirstInit()": "2361",
        "getLibrary()": "258",
        "initACL(address,address,address,address)": "infinite",
        "initVersion()": "2457",
        "initialize(string,string)": "infinite",
        "localAdmin()": "2489",
        "proxiableUUID()": "infinite",
        "proxyInfo()": "infinite",
        "safeModeStatus()": "2469",
        "setAccessControlManager(address)": "infinite",
        "setLocalAdmin(address)": "infinite",
        "setSafeModeStatus(uint8)": "infinite",
        "setUpgradabilityStatus(uint8)": "infinite",
        "subjectAddress()": "infinite",
        "supportsInterface(bytes4)": "infinite",
        "upgradabilityStatus()": "2501",
        "upgradeTo(address,bytes,bool)": "infinite",
        "withdrawBalance(address)": "infinite"
      },
      "internal": {
        "_doAclRegisterFacet(struct IACLManager.FacetRegisterRequest calldata[] calldata)": "infinite",
        "_initACLAgents(address,address)": "infinite",
        "_initACLScopes(address,address,bytes32)": "infinite"
      }
    },
    "methodIdentifiers": {
      "CTX_MESSAGE_TYPEHASH()": "34109de2",
      "FUNCTION_MESSAGE_TYPEHASH()": "f33b6d48",
      "PREDICT_CTX_MESSAGE_TYPEHASH()": "f0b15def",
      "TYPE_HASH()": "64d4c819",
      "accessControlManager()": "b4a0bdf3",
      "aclGetFacets()": "03c5a9d8",
      "aclRegisterFacet((address,address,bytes4,bytes4[])[])": "1f402ac2",
      "aclUpgradeFacet((address,address,bytes4,(uint8,bytes4[])[])[])": "432ae66e",
      "contractName()": "75d0c0dc",
      "contractVersion()": "a0a8e460",
      "domainSeparator()": "f698da25",
      "getFirstInit()": "2c4b4fff",
      "getLibrary()": "7678922e",
      "initACL(address,address,address,address)": "54b8c988",
      "initVersion()": "38d38c97",
      "initialize(string,string)": "4cd88b76",
      "localAdmin()": "f94a0adb",
      "proxiableUUID()": "52d1902d",
      "proxyInfo()": "d49e164d",
      "safeModeStatus()": "a304e353",
      "setAccessControlManager(address)": "0e32cb86",
      "setLocalAdmin(address)": "d9dc1f19",
      "setSafeModeStatus(uint8)": "f708ceb0",
      "setUpgradabilityStatus(uint8)": "399d6e38",
      "subjectAddress()": "58dbc45d",
      "supportsInterface(bytes4)": "01ffc9a7",
      "upgradabilityStatus()": "fbad3684",
      "upgradeTo(address,bytes,bool)": "7147855d",
      "withdrawBalance(address)": "756af45f"
    }
  },
  "storageLayout": {
    "storage": [
      {
        "astId": 43592,
        "contract": "src/contracts/acl/ACLManager.sol:ACLManager",
        "label": "_contractName",
        "offset": 0,
        "slot": "0",
        "type": "t_string_storage"
      },
      {
        "astId": 43594,
        "contract": "src/contracts/acl/ACLManager.sol:ACLManager",
        "label": "_contractVersion",
        "offset": 0,
        "slot": "1",
        "type": "t_string_storage"
      },
      {
        "astId": 43596,
        "contract": "src/contracts/acl/ACLManager.sol:ACLManager",
        "label": "_accessControlManager",
        "offset": 0,
        "slot": "2",
        "type": "t_address"
      },
      {
        "astId": 43599,
        "contract": "src/contracts/acl/ACLManager.sol:ACLManager",
        "label": "_sstat",
        "offset": 20,
        "slot": "2",
        "type": "t_enum(ProxySafeModeStatus)43615"
      },
      {
        "astId": 43602,
        "contract": "src/contracts/acl/ACLManager.sol:ACLManager",
        "label": "_ustat",
        "offset": 21,
        "slot": "2",
        "type": "t_enum(ProxyUpgradabilityStatus)43619"
      },
      {
        "astId": 43607,
        "contract": "src/contracts/acl/ACLManager.sol:ACLManager",
        "label": "__reserved",
        "offset": 0,
        "slot": "3",
        "type": "t_array(t_uint256)64_storage"
      },
      {
        "astId": 11452,
        "contract": "src/contracts/acl/ACLManager.sol:ACLManager",
        "label": "_firstInit",
        "offset": 0,
        "slot": "67",
        "type": "t_bool"
      },
      {
        "astId": 11455,
        "contract": "src/contracts/acl/ACLManager.sol:ACLManager",
        "label": "_data",
        "offset": 0,
        "slot": "68",
        "type": "t_struct(DataCollection)11450_storage"
      },
      {
        "astId": 43824,
        "contract": "src/contracts/acl/ACLManager.sol:ACLManager",
        "label": "_initialized",
        "offset": 0,
        "slot": "76",
        "type": "t_uint16"
      },
      {
        "astId": 43827,
        "contract": "src/contracts/acl/ACLManager.sol:ACLManager",
        "label": "_initializing",
        "offset": 2,
        "slot": "76",
        "type": "t_bool"
      }
    ],
    "types": {
      "t_address": {
        "encoding": "inplace",
        "label": "address",
        "numberOfBytes": "20"
      },
      "t_array(t_bytes32)dyn_storage": {
        "base": "t_bytes32",
        "encoding": "dynamic_array",
        "label": "bytes32[]",
        "numberOfBytes": "32"
      },
      "t_array(t_uint256)64_storage": {
        "base": "t_uint256",
        "encoding": "inplace",
        "label": "uint256[64]",
        "numberOfBytes": "2048"
      },
      "t_bool": {
        "encoding": "inplace",
        "label": "bool",
        "numberOfBytes": "1"
      },
      "t_bytes32": {
        "encoding": "inplace",
        "label": "bytes32",
        "numberOfBytes": "32"
      },
      "t_bytes4": {
        "encoding": "inplace",
        "label": "bytes4",
        "numberOfBytes": "4"
      },
      "t_enum(ActivityStatus)12972": {
        "encoding": "inplace",
        "label": "enum IACLCommons.ActivityStatus",
        "numberOfBytes": "1"
      },
      "t_enum(AgentType)12966": {
        "encoding": "inplace",
        "label": "enum IACLCommons.AgentType",
        "numberOfBytes": "1"
      },
      "t_enum(AlterabilityStatus)12977": {
        "encoding": "inplace",
        "label": "enum IACLCommons.AlterabilityStatus",
        "numberOfBytes": "1"
      },
      "t_enum(PolicyType)12995": {
        "encoding": "inplace",
        "label": "enum IACLCommons.PolicyType",
        "numberOfBytes": "1"
      },
      "t_enum(ProxySafeModeStatus)43615": {
        "encoding": "inplace",
        "label": "enum IBaseProxy.ProxySafeModeStatus",
        "numberOfBytes": "1"
      },
      "t_enum(ProxyUpgradabilityStatus)43619": {
        "encoding": "inplace",
        "label": "enum IBaseProxy.ProxyUpgradabilityStatus",
        "numberOfBytes": "1"
      },
      "t_enum(ScopeType)12984": {
        "encoding": "inplace",
        "label": "enum IACLCommons.ScopeType",
        "numberOfBytes": "1"
      },
      "t_mapping(t_address,t_struct(FacetEntity)13161_storage)": {
        "encoding": "mapping",
        "key": "t_address",
        "label": "mapping(address => struct IACLCommons.FacetEntity)",
        "numberOfBytes": "32",
        "value": "t_struct(FacetEntity)13161_storage"
      },
      "t_mapping(t_bytes32,t_bytes32)": {
        "encoding": "mapping",
        "key": "t_bytes32",
        "label": "mapping(bytes32 => bytes32)",
        "numberOfBytes": "32",
        "value": "t_bytes32"
      },
      "t_mapping(t_bytes32,t_struct(BaseAgent)13013_storage)": {
        "encoding": "mapping",
        "key": "t_bytes32",
        "label": "mapping(bytes32 => struct IACLCommons.BaseAgent)",
        "numberOfBytes": "32",
        "value": "t_struct(BaseAgent)13013_storage"
      },
      "t_mapping(t_bytes32,t_struct(BaseScope)13031_storage)": {
        "encoding": "mapping",
        "key": "t_bytes32",
        "label": "mapping(bytes32 => struct IACLCommons.BaseScope)",
        "numberOfBytes": "32",
        "value": "t_struct(BaseScope)13031_storage"
      },
      "t_mapping(t_bytes32,t_struct(PolicyEntity)13054_storage)": {
        "encoding": "mapping",
        "key": "t_bytes32",
        "label": "mapping(bytes32 => struct IACLCommons.PolicyEntity)",
        "numberOfBytes": "32",
        "value": "t_struct(PolicyEntity)13054_storage"
      },
      "t_mapping(t_bytes32,t_uint256)": {
        "encoding": "mapping",
        "key": "t_bytes32",
        "label": "mapping(bytes32 => uint256)",
        "numberOfBytes": "32",
        "value": "t_uint256"
      },
      "t_mapping(t_bytes4,t_address)": {
        "encoding": "mapping",
        "key": "t_bytes4",
        "label": "mapping(bytes4 => address)",
        "numberOfBytes": "32",
        "value": "t_address"
      },
      "t_string_storage": {
        "encoding": "bytes",
        "label": "string",
        "numberOfBytes": "32"
      },
      "t_struct(AddressSet)42130_storage": {
        "encoding": "inplace",
        "label": "struct LEnumerableSet.AddressSet",
        "members": [
          {
            "astId": 42129,
            "contract": "src/contracts/acl/ACLManager.sol:ACLManager",
            "label": "_inner",
            "offset": 0,
            "slot": "0",
            "type": "t_struct(Set)41829_storage"
          }
        ],
        "numberOfBytes": "64"
      },
      "t_struct(BaseAgent)13013_storage": {
        "encoding": "inplace",
        "label": "struct IACLCommons.BaseAgent",
        "members": [
          {
            "astId": 12997,
            "contract": "src/contracts/acl/ACLManager.sol:ACLManager",
            "label": "adminId",
            "offset": 0,
            "slot": "0",
            "type": "t_bytes32"
          },
          {
            "astId": 13000,
            "contract": "src/contracts/acl/ACLManager.sol:ACLManager",
            "label": "atype",
            "offset": 0,
            "slot": "1",
            "type": "t_enum(AgentType)12966"
          },
          {
            "astId": 13003,
            "contract": "src/contracts/acl/ACLManager.sol:ACLManager",
            "label": "acstat",
            "offset": 1,
            "slot": "1",
            "type": "t_enum(ActivityStatus)12972"
          },
          {
            "astId": 13006,
            "contract": "src/contracts/acl/ACLManager.sol:ACLManager",
            "label": "alstat",
            "offset": 2,
            "slot": "1",
            "type": "t_enum(AlterabilityStatus)12977"
          },
          {
            "astId": 13008,
            "contract": "src/contracts/acl/ACLManager.sol:ACLManager",
            "label": "referredByScope",
            "offset": 3,
            "slot": "1",
            "type": "t_uint16"
          },
          {
            "astId": 13010,
            "contract": "src/contracts/acl/ACLManager.sol:ACLManager",
            "label": "referredByPolicy",
            "offset": 5,
            "slot": "1",
            "type": "t_uint16"
          },
          {
            "astId": 13012,
            "contract": "src/contracts/acl/ACLManager.sol:ACLManager",
            "label": "scopeLimit",
            "offset": 7,
            "slot": "1",
            "type": "t_uint16"
          }
        ],
        "numberOfBytes": "64"
      },
      "t_struct(BaseScope)13031_storage": {
        "encoding": "inplace",
        "label": "struct IACLCommons.BaseScope",
        "members": [
          {
            "astId": 13015,
            "contract": "src/contracts/acl/ACLManager.sol:ACLManager",
            "label": "adminId",
            "offset": 0,
            "slot": "0",
            "type": "t_bytes32"
          },
          {
            "astId": 13018,
            "contract": "src/contracts/acl/ACLManager.sol:ACLManager",
            "label": "stype",
            "offset": 0,
            "slot": "1",
            "type": "t_enum(ScopeType)12984"
          },
          {
            "astId": 13021,
            "contract": "src/contracts/acl/ACLManager.sol:ACLManager",
            "label": "acstat",
            "offset": 1,
            "slot": "1",
            "type": "t_enum(ActivityStatus)12972"
          },
          {
            "astId": 13024,
            "contract": "src/contracts/acl/ACLManager.sol:ACLManager",
            "label": "alstat",
            "offset": 2,
            "slot": "1",
            "type": "t_enum(AlterabilityStatus)12977"
          },
          {
            "astId": 13026,
            "contract": "src/contracts/acl/ACLManager.sol:ACLManager",
            "label": "referredByAgent",
            "offset": 3,
            "slot": "1",
            "type": "t_uint16"
          },
          {
            "astId": 13028,
            "contract": "src/contracts/acl/ACLManager.sol:ACLManager",
            "label": "referredByPolicy",
            "offset": 5,
            "slot": "1",
            "type": "t_uint16"
          },
          {
            "astId": 13030,
            "contract": "src/contracts/acl/ACLManager.sol:ACLManager",
            "label": "agentLimit",
            "offset": 7,
            "slot": "1",
            "type": "t_uint16"
          }
        ],
        "numberOfBytes": "64"
      },
      "t_struct(Bytes32Set)42023_storage": {
        "encoding": "inplace",
        "label": "struct LEnumerableSet.Bytes32Set",
        "members": [
          {
            "astId": 42022,
            "contract": "src/contracts/acl/ACLManager.sol:ACLManager",
            "label": "_inner",
            "offset": 0,
            "slot": "0",
            "type": "t_struct(Set)41829_storage"
          }
        ],
        "numberOfBytes": "64"
      },
      "t_struct(DataCollection)11450_storage": {
        "encoding": "inplace",
        "label": "struct ACLStorage.DataCollection",
        "members": [
          {
            "astId": 11423,
            "contract": "src/contracts/acl/ACLManager.sol:ACLManager",
            "label": "agents",
            "offset": 0,
            "slot": "0",
            "type": "t_mapping(t_bytes32,t_struct(BaseAgent)13013_storage)"
          },
          {
            "astId": 11428,
            "contract": "src/contracts/acl/ACLManager.sol:ACLManager",
            "label": "scopes",
            "offset": 0,
            "slot": "1",
            "type": "t_mapping(t_bytes32,t_struct(BaseScope)13031_storage)"
          },
          {
            "astId": 11433,
            "contract": "src/contracts/acl/ACLManager.sol:ACLManager",
            "label": "policies",
            "offset": 0,
            "slot": "2",
            "type": "t_mapping(t_bytes32,t_struct(PolicyEntity)13054_storage)"
          },
          {
            "astId": 11437,
            "contract": "src/contracts/acl/ACLManager.sol:ACLManager",
            "label": "rolePolicyMap",
            "offset": 0,
            "slot": "3",
            "type": "t_mapping(t_bytes32,t_bytes32)"
          },
          {
            "astId": 11441,
            "contract": "src/contracts/acl/ACLManager.sol:ACLManager",
            "label": "selectors",
            "offset": 0,
            "slot": "4",
            "type": "t_mapping(t_bytes4,t_address)"
          },
          {
            "astId": 11446,
            "contract": "src/contracts/acl/ACLManager.sol:ACLManager",
            "label": "facets",
            "offset": 0,
            "slot": "5",
            "type": "t_mapping(t_address,t_struct(FacetEntity)13161_storage)"
          },
          {
            "astId": 11449,
            "contract": "src/contracts/acl/ACLManager.sol:ACLManager",
            "label": "facetSet",
            "offset": 0,
            "slot": "6",
            "type": "t_struct(AddressSet)42130_storage"
          }
        ],
        "numberOfBytes": "256"
      },
      "t_struct(FacetEntity)13161_storage": {
        "encoding": "inplace",
        "label": "struct IACLCommons.FacetEntity",
        "members": [
          {
            "astId": 13158,
            "contract": "src/contracts/acl/ACLManager.sol:ACLManager",
            "label": "subjectId",
            "offset": 0,
            "slot": "0",
            "type": "t_address"
          },
          {
            "astId": 13160,
            "contract": "src/contracts/acl/ACLManager.sol:ACLManager",
            "label": "interfaceId",
            "offset": 20,
            "slot": "0",
            "type": "t_bytes4"
          }
        ],
        "numberOfBytes": "32"
      },
      "t_struct(PolicyEntity)13054_storage": {
        "encoding": "inplace",
        "label": "struct IACLCommons.PolicyEntity",
        "members": [
          {
            "astId": 13033,
            "contract": "src/contracts/acl/ACLManager.sol:ACLManager",
            "label": "adminId",
            "offset": 0,
            "slot": "0",
            "type": "t_bytes32"
          },
          {
            "astId": 13035,
            "contract": "src/contracts/acl/ACLManager.sol:ACLManager",
            "label": "scopeId",
            "offset": 0,
            "slot": "1",
            "type": "t_bytes32"
          },
          {
            "astId": 13037,
            "contract": "src/contracts/acl/ACLManager.sol:ACLManager",
            "label": "name",
            "offset": 0,
            "slot": "2",
            "type": "t_string_storage"
          },
          {
            "astId": 13039,
            "contract": "src/contracts/acl/ACLManager.sol:ACLManager",
            "label": "roleLimit",
            "offset": 0,
            "slot": "3",
            "type": "t_uint32"
          },
          {
            "astId": 13041,
            "contract": "src/contracts/acl/ACLManager.sol:ACLManager",
            "label": "policyCode",
            "offset": 4,
            "slot": "3",
            "type": "t_uint8"
          },
          {
            "astId": 13044,
            "contract": "src/contracts/acl/ACLManager.sol:ACLManager",
            "label": "ptype",
            "offset": 5,
            "slot": "3",
            "type": "t_enum(PolicyType)12995"
          },
          {
            "astId": 13047,
            "contract": "src/contracts/acl/ACLManager.sol:ACLManager",
            "label": "acstat",
            "offset": 6,
            "slot": "3",
            "type": "t_enum(ActivityStatus)12972"
          },
          {
            "astId": 13050,
            "contract": "src/contracts/acl/ACLManager.sol:ACLManager",
            "label": "alstat",
            "offset": 7,
            "slot": "3",
            "type": "t_enum(AlterabilityStatus)12977"
          },
          {
            "astId": 13053,
            "contract": "src/contracts/acl/ACLManager.sol:ACLManager",
            "label": "roles",
            "offset": 0,
            "slot": "4",
            "type": "t_struct(Bytes32Set)42023_storage"
          }
        ],
        "numberOfBytes": "192"
      },
      "t_struct(Set)41829_storage": {
        "encoding": "inplace",
        "label": "struct LEnumerableSet.Set",
        "members": [
          {
            "astId": 41824,
            "contract": "src/contracts/acl/ACLManager.sol:ACLManager",
            "label": "_values",
            "offset": 0,
            "slot": "0",
            "type": "t_array(t_bytes32)dyn_storage"
          },
          {
            "astId": 41828,
            "contract": "src/contracts/acl/ACLManager.sol:ACLManager",
            "label": "_indexes",
            "offset": 0,
            "slot": "1",
            "type": "t_mapping(t_bytes32,t_uint256)"
          }
        ],
        "numberOfBytes": "64"
      },
      "t_uint16": {
        "encoding": "inplace",
        "label": "uint16",
        "numberOfBytes": "2"
      },
      "t_uint256": {
        "encoding": "inplace",
        "label": "uint256",
        "numberOfBytes": "32"
      },
      "t_uint32": {
        "encoding": "inplace",
        "label": "uint32",
        "numberOfBytes": "4"
      },
      "t_uint8": {
        "encoding": "inplace",
        "label": "uint8",
        "numberOfBytes": "1"
      }
    }
  },
  "userdoc": {
    "kind": "user",
    "methods": {},
    "version": 1
  }
}