{
  "address": "0x5FC8d32690cc91D4c39d9d3abcBD16989F875707",
  "abi": [
    {
      "inputs": [],
      "stateMutability": "nonpayable",
      "type": "constructor"
    },
    {
      "anonymous": false,
      "inputs": [
        {
          "indexed": true,
          "internalType": "bytes32",
          "name": "context",
          "type": "bytes32"
        },
        {
          "indexed": true,
          "internalType": "address",
          "name": "sender",
          "type": "address"
        },
        {
          "indexed": false,
          "internalType": "bytes4",
          "name": "functionSelector",
          "type": "bytes4"
        },
        {
          "indexed": false,
          "internalType": "bytes32",
          "name": "realm",
          "type": "bytes32"
        }
      ],
      "name": "ContextFuncRemoved",
      "type": "event"
    },
    {
      "anonymous": false,
      "inputs": [
        {
          "indexed": true,
          "internalType": "bytes32",
          "name": "context",
          "type": "bytes32"
        },
        {
          "indexed": true,
          "internalType": "bytes32",
          "name": "role",
          "type": "bytes32"
        },
        {
          "indexed": true,
          "internalType": "address",
          "name": "sender",
          "type": "address"
        },
        {
          "indexed": false,
          "internalType": "bytes4",
          "name": "functionSelector",
          "type": "bytes4"
        },
        {
          "indexed": false,
          "internalType": "bytes32",
          "name": "realm",
          "type": "bytes32"
        }
      ],
      "name": "ContextFuncRoleAdded",
      "type": "event"
    },
    {
      "anonymous": false,
      "inputs": [
        {
          "indexed": true,
          "internalType": "bytes32",
          "name": "context",
          "type": "bytes32"
        },
        {
          "indexed": true,
          "internalType": "address",
          "name": "sender",
          "type": "address"
        },
        {
          "indexed": true,
          "internalType": "bytes32",
          "name": "realm",
          "type": "bytes32"
        },
        {
          "indexed": false,
          "internalType": "bytes32",
          "name": "oldRealm",
          "type": "bytes32"
        }
      ],
      "name": "ContextRealmChanged",
      "type": "event"
    },
    {
      "anonymous": false,
      "inputs": [
        {
          "indexed": true,
          "internalType": "bytes32",
          "name": "context",
          "type": "bytes32"
        },
        {
          "indexed": true,
          "internalType": "address",
          "name": "contractId",
          "type": "address"
        },
        {
          "indexed": true,
          "internalType": "address",
          "name": "sender",
          "type": "address"
        },
        {
          "indexed": false,
          "internalType": "address",
          "name": "signer",
          "type": "address"
        },
        {
          "indexed": false,
          "internalType": "bytes32",
          "name": "realm",
          "type": "bytes32"
        }
      ],
      "name": "ContextRegistered",
      "type": "event"
    },
    {
      "anonymous": false,
      "inputs": [
        {
          "indexed": true,
          "internalType": "bytes32",
          "name": "context",
          "type": "bytes32"
        },
        {
          "indexed": true,
          "internalType": "bytes32",
          "name": "role",
          "type": "bytes32"
        },
        {
          "indexed": true,
          "internalType": "address",
          "name": "sender",
          "type": "address"
        },
        {
          "indexed": false,
          "internalType": "bytes4",
          "name": "functionSelector",
          "type": "bytes4"
        },
        {
          "indexed": false,
          "internalType": "bytes32",
          "name": "realm",
          "type": "bytes32"
        }
      ],
      "name": "ContextRoleGranted",
      "type": "event"
    },
    {
      "anonymous": false,
      "inputs": [
        {
          "indexed": true,
          "internalType": "bytes32",
          "name": "context",
          "type": "bytes32"
        },
        {
          "indexed": true,
          "internalType": "bytes32",
          "name": "role",
          "type": "bytes32"
        },
        {
          "indexed": true,
          "internalType": "address",
          "name": "sender",
          "type": "address"
        },
        {
          "indexed": false,
          "internalType": "bytes4",
          "name": "functionSelector",
          "type": "bytes4"
        },
        {
          "indexed": false,
          "internalType": "bytes32",
          "name": "realm",
          "type": "bytes32"
        }
      ],
      "name": "ContextRoleRevoked",
      "type": "event"
    },
    {
      "anonymous": false,
      "inputs": [
        {
          "indexed": true,
          "internalType": "bytes32",
          "name": "context",
          "type": "bytes32"
        },
        {
          "indexed": true,
          "internalType": "address",
          "name": "sender",
          "type": "address"
        },
        {
          "indexed": true,
          "internalType": "bytes32",
          "name": "realm",
          "type": "bytes32"
        },
        {
          "indexed": false,
          "internalType": "bool",
          "name": "status",
          "type": "bool"
        }
      ],
      "name": "ContextStatusChanged",
      "type": "event"
    },
    {
      "anonymous": false,
      "inputs": [
        {
          "indexed": true,
          "internalType": "bytes32",
          "name": "context",
          "type": "bytes32"
        },
        {
          "indexed": true,
          "internalType": "address",
          "name": "contractId",
          "type": "address"
        },
        {
          "indexed": true,
          "internalType": "address",
          "name": "sender",
          "type": "address"
        },
        {
          "indexed": false,
          "internalType": "bytes32",
          "name": "realm",
          "type": "bytes32"
        }
      ],
      "name": "ContextUpdated",
      "type": "event"
    },
    {
      "anonymous": false,
      "inputs": [
        {
          "indexed": true,
          "internalType": "bytes32",
          "name": "group",
          "type": "bytes32"
        },
        {
          "indexed": true,
          "internalType": "address",
          "name": "sender",
          "type": "address"
        },
        {
          "indexed": false,
          "internalType": "string",
          "name": "name",
          "type": "string"
        },
        {
          "indexed": false,
          "internalType": "bool",
          "name": "status",
          "type": "bool"
        }
      ],
      "name": "GroupRegistered",
      "type": "event"
    },
    {
      "anonymous": false,
      "inputs": [
        {
          "indexed": true,
          "internalType": "bytes32",
          "name": "group",
          "type": "bytes32"
        },
        {
          "indexed": true,
          "internalType": "address",
          "name": "sender",
          "type": "address"
        },
        {
          "indexed": false,
          "internalType": "bool",
          "name": "status",
          "type": "bool"
        }
      ],
      "name": "GroupStatusChanged",
      "type": "event"
    },
    {
      "anonymous": false,
      "inputs": [
        {
          "indexed": true,
          "internalType": "address",
          "name": "sender",
          "type": "address"
        },
        {
          "indexed": true,
          "internalType": "address",
          "name": "proxy",
          "type": "address"
        },
        {
          "indexed": true,
          "internalType": "address",
          "name": "subject",
          "type": "address"
        },
        {
          "indexed": false,
          "internalType": "string",
          "name": "name",
          "type": "string"
        },
        {
          "indexed": false,
          "internalType": "string",
          "name": "version",
          "type": "string"
        },
        {
          "indexed": false,
          "internalType": "bytes32",
          "name": "realm",
          "type": "bytes32"
        },
        {
          "indexed": false,
          "internalType": "uint16",
          "name": "initCount",
          "type": "uint16"
        }
      ],
      "name": "Initialized",
      "type": "event"
    },
    {
      "anonymous": false,
      "inputs": [
        {
          "indexed": true,
          "internalType": "address",
          "name": "sender",
          "type": "address"
        },
        {
          "indexed": true,
          "internalType": "address",
          "name": "proxy",
          "type": "address"
        },
        {
          "indexed": false,
          "internalType": "address",
          "name": "newAdmin",
          "type": "address"
        }
      ],
      "name": "LocalAdminChanged",
      "type": "event"
    },
    {
      "anonymous": false,
      "inputs": [
        {
          "indexed": true,
          "internalType": "bytes32",
          "name": "context",
          "type": "bytes32"
        },
        {
          "indexed": true,
          "internalType": "address",
          "name": "contractId",
          "type": "address"
        },
        {
          "indexed": true,
          "internalType": "address",
          "name": "sender",
          "type": "address"
        },
        {
          "indexed": false,
          "internalType": "address",
          "name": "signer",
          "type": "address"
        },
        {
          "indexed": false,
          "internalType": "address",
          "name": "deployer",
          "type": "address"
        },
        {
          "indexed": false,
          "internalType": "address",
          "name": "subject",
          "type": "address"
        },
        {
          "indexed": false,
          "internalType": "bytes32",
          "name": "realm",
          "type": "bytes32"
        }
      ],
      "name": "PredictContextRegistered",
      "type": "event"
    },
    {
      "anonymous": false,
      "inputs": [
        {
          "indexed": true,
          "internalType": "bytes32",
          "name": "realm",
          "type": "bytes32"
        },
        {
          "indexed": true,
          "internalType": "address",
          "name": "sender",
          "type": "address"
        },
        {
          "indexed": false,
          "internalType": "string",
          "name": "name",
          "type": "string"
        },
        {
          "indexed": false,
          "internalType": "bool",
          "name": "status",
          "type": "bool"
        },
        {
          "indexed": false,
          "internalType": "bool",
          "name": "isUpgradable",
          "type": "bool"
        }
      ],
      "name": "RealmRegistered",
      "type": "event"
    },
    {
      "anonymous": false,
      "inputs": [
        {
          "indexed": true,
          "internalType": "bytes32",
          "name": "realm",
          "type": "bytes32"
        },
        {
          "indexed": true,
          "internalType": "address",
          "name": "sender",
          "type": "address"
        },
        {
          "indexed": false,
          "internalType": "bool",
          "name": "status",
          "type": "bool"
        }
      ],
      "name": "RealmStatusChanged",
      "type": "event"
    },
    {
      "anonymous": false,
      "inputs": [
        {
          "indexed": true,
          "internalType": "bytes32",
          "name": "realm",
          "type": "bytes32"
        },
        {
          "indexed": true,
          "internalType": "address",
          "name": "sender",
          "type": "address"
        },
        {
          "indexed": false,
          "internalType": "bool",
          "name": "status",
          "type": "bool"
        }
      ],
      "name": "RealmUpgradeStatusChanged",
      "type": "event"
    },
    {
      "anonymous": false,
      "inputs": [
        {
          "indexed": true,
          "internalType": "address",
          "name": "sender",
          "type": "address"
        },
        {
          "indexed": true,
          "internalType": "bytes32",
          "name": "role",
          "type": "bytes32"
        },
        {
          "indexed": true,
          "internalType": "address",
          "name": "account",
          "type": "address"
        }
      ],
      "name": "RoleAccountGranted",
      "type": "event"
    },
    {
      "anonymous": false,
      "inputs": [
        {
          "indexed": true,
          "internalType": "address",
          "name": "sender",
          "type": "address"
        },
        {
          "indexed": true,
          "internalType": "bytes32",
          "name": "role",
          "type": "bytes32"
        },
        {
          "indexed": true,
          "internalType": "address",
          "name": "account",
          "type": "address"
        }
      ],
      "name": "RoleAccountRevoked",
      "type": "event"
    },
    {
      "anonymous": false,
      "inputs": [
        {
          "indexed": true,
          "internalType": "address",
          "name": "sender",
          "type": "address"
        },
        {
          "indexed": true,
          "internalType": "bytes32",
          "name": "role",
          "type": "bytes32"
        },
        {
          "indexed": true,
          "internalType": "bytes32",
          "name": "newGroup",
          "type": "bytes32"
        },
        {
          "indexed": false,
          "internalType": "bytes32",
          "name": "oldGroup",
          "type": "bytes32"
        }
      ],
      "name": "RoleGroupChanged",
      "type": "event"
    },
    {
      "anonymous": false,
      "inputs": [
        {
          "indexed": true,
          "internalType": "address",
          "name": "sender",
          "type": "address"
        },
        {
          "indexed": true,
          "internalType": "bytes32",
          "name": "role",
          "type": "bytes32"
        },
        {
          "indexed": true,
          "internalType": "string",
          "name": "name",
          "type": "string"
        },
        {
          "indexed": false,
          "internalType": "bytes32",
          "name": "group",
          "type": "bytes32"
        },
        {
          "indexed": false,
          "internalType": "bool",
          "name": "isEnabled",
          "type": "bool"
        }
      ],
      "name": "RoleRegistered",
      "type": "event"
    },
    {
      "anonymous": false,
      "inputs": [
        {
          "indexed": true,
          "internalType": "address",
          "name": "sender",
          "type": "address"
        },
        {
          "indexed": true,
          "internalType": "bytes32",
          "name": "role",
          "type": "bytes32"
        },
        {
          "indexed": true,
          "internalType": "bytes32",
          "name": "group",
          "type": "bytes32"
        },
        {
          "indexed": false,
          "internalType": "bool",
          "name": "status",
          "type": "bool"
        }
      ],
      "name": "RoleStatusChanged",
      "type": "event"
    },
    {
      "anonymous": false,
      "inputs": [
        {
          "indexed": true,
          "internalType": "address",
          "name": "sender",
          "type": "address"
        },
        {
          "indexed": true,
          "internalType": "address",
          "name": "proxy",
          "type": "address"
        },
        {
          "indexed": true,
          "internalType": "bytes32",
          "name": "realm",
          "type": "bytes32"
        },
        {
          "indexed": false,
          "internalType": "bool",
          "name": "status",
          "type": "bool"
        }
      ],
      "name": "SafeModeChanged",
      "type": "event"
    },
    {
      "anonymous": false,
      "inputs": [
        {
          "indexed": true,
          "internalType": "address",
          "name": "sender",
          "type": "address"
        },
        {
          "indexed": true,
          "internalType": "address",
          "name": "proxy",
          "type": "address"
        },
        {
          "indexed": true,
          "internalType": "bytes32",
          "name": "realm",
          "type": "bytes32"
        },
        {
          "indexed": false,
          "internalType": "bool",
          "name": "status",
          "type": "bool"
        }
      ],
      "name": "UpgradeStatusChanged",
      "type": "event"
    },
    {
      "anonymous": false,
      "inputs": [
        {
          "indexed": true,
          "internalType": "address",
          "name": "sender",
          "type": "address"
        },
        {
          "indexed": true,
          "internalType": "address",
          "name": "proxy",
          "type": "address"
        },
        {
          "indexed": true,
          "internalType": "address",
          "name": "newImplementation",
          "type": "address"
        }
      ],
      "name": "Upgraded",
      "type": "event"
    },
    {
      "stateMutability": "payable",
      "type": "fallback"
    },
    {
      "inputs": [],
      "name": "accessControlManager",
      "outputs": [
        {
          "internalType": "address",
          "name": "",
          "type": "address"
        }
      ],
      "stateMutability": "view",
      "type": "function"
    },
    {
      "inputs": [
        {
          "internalType": "bytes32",
          "name": "ctx",
          "type": "bytes32"
        },
        {
          "internalType": "bytes4",
          "name": "functionSelector",
          "type": "bytes4"
        },
        {
          "internalType": "bytes32",
          "name": "role",
          "type": "bytes32"
        }
      ],
      "name": "addContextFuncRole",
      "outputs": [
        {
          "internalType": "bool",
          "name": "",
          "type": "bool"
        }
      ],
      "stateMutability": "nonpayable",
      "type": "function"
    },
    {
      "inputs": [
        {
          "components": [
            {
              "internalType": "bytes32",
              "name": "role",
              "type": "bytes32"
            },
            {
              "internalType": "address",
              "name": "account",
              "type": "address"
            }
          ],
          "internalType": "struct IRoleManagement.UpdateRoleRequest[]",
          "name": "requests",
          "type": "tuple[]"
        }
      ],
      "name": "batchGrantRoleAccount",
      "outputs": [
        {
          "internalType": "bool",
          "name": "",
          "type": "bool"
        }
      ],
      "stateMutability": "nonpayable",
      "type": "function"
    },
    {
      "inputs": [
        {
          "components": [
            {
              "internalType": "bytes32",
              "name": "group",
              "type": "bytes32"
            },
            {
              "internalType": "string",
              "name": "name",
              "type": "string"
            },
            {
              "internalType": "bool",
              "name": "status",
              "type": "bool"
            }
          ],
          "internalType": "struct IRoleManagement.RegiterRoleRequest[]",
          "name": "requests",
          "type": "tuple[]"
        }
      ],
      "name": "batchRegisterRole",
      "outputs": [
        {
          "internalType": "bytes32[]",
          "name": "",
          "type": "bytes32[]"
        }
      ],
      "stateMutability": "nonpayable",
      "type": "function"
    },
    {
      "inputs": [
        {
          "components": [
            {
              "internalType": "bytes32",
              "name": "role",
              "type": "bytes32"
            },
            {
              "internalType": "address",
              "name": "account",
              "type": "address"
            }
          ],
          "internalType": "struct IRoleManagement.UpdateRoleRequest[]",
          "name": "requests",
          "type": "tuple[]"
        }
      ],
      "name": "batchRevokeRoleAccount",
      "outputs": [
        {
          "internalType": "bool",
          "name": "",
          "type": "bool"
        }
      ],
      "stateMutability": "nonpayable",
      "type": "function"
    },
    {
      "inputs": [],
      "name": "contractContext",
      "outputs": [
        {
          "internalType": "bytes32",
          "name": "",
          "type": "bytes32"
        }
      ],
      "stateMutability": "view",
      "type": "function"
    },
    {
      "inputs": [],
      "name": "contractName",
      "outputs": [
        {
          "internalType": "bytes32",
          "name": "",
          "type": "bytes32"
        }
      ],
      "stateMutability": "view",
      "type": "function"
    },
    {
      "inputs": [],
      "name": "contractRealm",
      "outputs": [
        {
          "internalType": "bytes32",
          "name": "",
          "type": "bytes32"
        }
      ],
      "stateMutability": "view",
      "type": "function"
    },
    {
      "inputs": [],
      "name": "contractVersion",
      "outputs": [
        {
          "internalType": "bytes32",
          "name": "",
          "type": "bytes32"
        }
      ],
      "stateMutability": "view",
      "type": "function"
    },
    {
      "inputs": [],
      "name": "domainSeparator",
      "outputs": [
        {
          "internalType": "bytes32",
          "name": "",
          "type": "bytes32"
        }
      ],
      "stateMutability": "view",
      "type": "function"
    },
    {
      "inputs": [
        {
          "internalType": "bytes32",
          "name": "ctx",
          "type": "bytes32"
        }
      ],
      "name": "getContextFuncs",
      "outputs": [
        {
          "internalType": "bytes4[]",
          "name": "",
          "type": "bytes4[]"
        }
      ],
      "stateMutability": "view",
      "type": "function"
    },
    {
      "inputs": [
        {
          "internalType": "bytes32",
          "name": "ctx",
          "type": "bytes32"
        }
      ],
      "name": "getContextInfo",
      "outputs": [
        {
          "components": [
            {
              "internalType": "bytes32",
              "name": "name",
              "type": "bytes32"
            },
            {
              "internalType": "bytes32",
              "name": "version",
              "type": "bytes32"
            },
            {
              "internalType": "bytes32",
              "name": "realm",
              "type": "bytes32"
            },
            {
              "internalType": "address",
              "name": "contractId",
              "type": "address"
            },
            {
              "internalType": "bool",
              "name": "isSafeMode",
              "type": "bool"
            },
            {
              "internalType": "bool",
              "name": "isUpgradable",
              "type": "bool"
            }
          ],
          "internalType": "struct IContextManagement.ResponseContext",
          "name": "",
          "type": "tuple"
        }
      ],
      "stateMutability": "view",
      "type": "function"
    },
    {
      "inputs": [
        {
          "internalType": "bytes32",
          "name": "group",
          "type": "bytes32"
        }
      ],
      "name": "getGroupInfo",
      "outputs": [
        {
          "internalType": "string",
          "name": "",
          "type": "string"
        },
        {
          "internalType": "bool",
          "name": "",
          "type": "bool"
        }
      ],
      "stateMutability": "view",
      "type": "function"
    },
    {
      "inputs": [
        {
          "internalType": "bytes32",
          "name": "group",
          "type": "bytes32"
        }
      ],
      "name": "getGroupRoles",
      "outputs": [
        {
          "internalType": "bytes32[]",
          "name": "",
          "type": "bytes32[]"
        }
      ],
      "stateMutability": "view",
      "type": "function"
    },
    {
      "inputs": [],
      "name": "getLibraries",
      "outputs": [
        {
          "internalType": "address[]",
          "name": "",
          "type": "address[]"
        }
      ],
      "stateMutability": "pure",
      "type": "function"
    },
    {
      "inputs": [
        {
          "internalType": "bytes32",
          "name": "realm",
          "type": "bytes32"
        }
      ],
      "name": "getRealmContexts",
      "outputs": [
        {
          "internalType": "bytes32[]",
          "name": "",
          "type": "bytes32[]"
        }
      ],
      "stateMutability": "view",
      "type": "function"
    },
    {
      "inputs": [
        {
          "internalType": "bytes32",
          "name": "realm",
          "type": "bytes32"
        }
      ],
      "name": "getRealmInfo",
      "outputs": [
        {
          "internalType": "string",
          "name": "",
          "type": "string"
        },
        {
          "internalType": "bool",
          "name": "",
          "type": "bool"
        },
        {
          "internalType": "bool",
          "name": "",
          "type": "bool"
        }
      ],
      "stateMutability": "view",
      "type": "function"
    },
    {
      "inputs": [
        {
          "internalType": "bytes32",
          "name": "role",
          "type": "bytes32"
        }
      ],
      "name": "getRoleAccounts",
      "outputs": [
        {
          "internalType": "address[]",
          "name": "",
          "type": "address[]"
        }
      ],
      "stateMutability": "view",
      "type": "function"
    },
    {
      "inputs": [
        {
          "internalType": "bytes32",
          "name": "role",
          "type": "bytes32"
        }
      ],
      "name": "getRoleInfo",
      "outputs": [
        {
          "internalType": "string",
          "name": "",
          "type": "string"
        },
        {
          "internalType": "bytes32",
          "name": "",
          "type": "bytes32"
        },
        {
          "internalType": "bool",
          "name": "",
          "type": "bool"
        }
      ],
      "stateMutability": "view",
      "type": "function"
    },
    {
      "inputs": [
        {
          "internalType": "bytes32",
          "name": "ctx",
          "type": "bytes32"
        },
        {
          "internalType": "bytes4",
          "name": "functionSelector",
          "type": "bytes4"
        },
        {
          "internalType": "bytes32",
          "name": "role",
          "type": "bytes32"
        }
      ],
      "name": "grantContextRole",
      "outputs": [
        {
          "internalType": "bool",
          "name": "",
          "type": "bool"
        }
      ],
      "stateMutability": "nonpayable",
      "type": "function"
    },
    {
      "inputs": [
        {
          "internalType": "bytes32",
          "name": "role",
          "type": "bytes32"
        },
        {
          "internalType": "address",
          "name": "account",
          "type": "address"
        }
      ],
      "name": "grantRoleAccount",
      "outputs": [
        {
          "internalType": "bool",
          "name": "",
          "type": "bool"
        }
      ],
      "stateMutability": "nonpayable",
      "type": "function"
    },
    {
      "inputs": [
        {
          "internalType": "bytes32",
          "name": "context",
          "type": "bytes32"
        },
        {
          "internalType": "address",
          "name": "account",
          "type": "address"
        },
        {
          "internalType": "bytes4",
          "name": "signature",
          "type": "bytes4"
        }
      ],
      "name": "hasAccess",
      "outputs": [
        {
          "internalType": "bool",
          "name": "",
          "type": "bool"
        }
      ],
      "stateMutability": "view",
      "type": "function"
    },
    {
      "inputs": [
        {
          "internalType": "bytes32",
          "name": "ctx",
          "type": "bytes32"
        },
        {
          "internalType": "bytes32",
          "name": "role",
          "type": "bytes32"
        },
        {
          "internalType": "bytes4",
          "name": "functionSelector",
          "type": "bytes4"
        }
      ],
      "name": "hasContextRole",
      "outputs": [
        {
          "internalType": "bool",
          "name": "",
          "type": "bool"
        }
      ],
      "stateMutability": "view",
      "type": "function"
    },
    {
      "inputs": [
        {
          "internalType": "bytes32",
          "name": "group",
          "type": "bytes32"
        },
        {
          "internalType": "bytes32",
          "name": "role",
          "type": "bytes32"
        }
      ],
      "name": "hasGroupRole",
      "outputs": [
        {
          "internalType": "bool",
          "name": "",
          "type": "bool"
        }
      ],
      "stateMutability": "view",
      "type": "function"
    },
    {
      "inputs": [
        {
          "internalType": "bytes32",
          "name": "realm",
          "type": "bytes32"
        },
        {
          "internalType": "bytes32",
          "name": "context",
          "type": "bytes32"
        }
      ],
      "name": "hasRealmContext",
      "outputs": [
        {
          "internalType": "bool",
          "name": "",
          "type": "bool"
        }
      ],
      "stateMutability": "view",
      "type": "function"
    },
    {
      "inputs": [
        {
          "internalType": "bytes32",
          "name": "role",
          "type": "bytes32"
        },
        {
          "internalType": "address",
          "name": "account",
          "type": "address"
        }
      ],
      "name": "hasRoleAccount",
      "outputs": [
        {
          "internalType": "bool",
          "name": "",
          "type": "bool"
        }
      ],
      "stateMutability": "view",
      "type": "function"
    },
    {
      "inputs": [],
      "name": "initVersion",
      "outputs": [
        {
          "internalType": "uint16",
          "name": "",
          "type": "uint16"
        }
      ],
      "stateMutability": "view",
      "type": "function"
    },
    {
      "inputs": [
        {
          "internalType": "string",
          "name": "domainName",
          "type": "string"
        },
        {
          "internalType": "string",
          "name": "domainVersion",
          "type": "string"
        },
        {
          "internalType": "string",
          "name": "domainRealm",
          "type": "string"
        },
        {
          "internalType": "address",
          "name": "accessControlManager",
          "type": "address"
        }
      ],
      "name": "initialize",
      "outputs": [],
      "stateMutability": "nonpayable",
      "type": "function"
    },
    {
      "inputs": [
        {
          "internalType": "bytes32",
          "name": "context",
          "type": "bytes32"
        }
      ],
      "name": "isContextEnabled",
      "outputs": [
        {
          "internalType": "bool",
          "name": "",
          "type": "bool"
        }
      ],
      "stateMutability": "view",
      "type": "function"
    },
    {
      "inputs": [
        {
          "internalType": "bytes32",
          "name": "context",
          "type": "bytes32"
        }
      ],
      "name": "isContextExists",
      "outputs": [
        {
          "internalType": "bool",
          "name": "",
          "type": "bool"
        }
      ],
      "stateMutability": "view",
      "type": "function"
    },
    {
      "inputs": [
        {
          "internalType": "bytes32",
          "name": "context",
          "type": "bytes32"
        },
        {
          "internalType": "bytes4",
          "name": "functionSelector",
          "type": "bytes4"
        }
      ],
      "name": "isContextFunctionEnabled",
      "outputs": [
        {
          "internalType": "bool",
          "name": "",
          "type": "bool"
        }
      ],
      "stateMutability": "view",
      "type": "function"
    },
    {
      "inputs": [
        {
          "internalType": "bytes32",
          "name": "context",
          "type": "bytes32"
        },
        {
          "internalType": "bytes4",
          "name": "functionSelector",
          "type": "bytes4"
        }
      ],
      "name": "isContextFunctionExists",
      "outputs": [
        {
          "internalType": "bool",
          "name": "",
          "type": "bool"
        }
      ],
      "stateMutability": "view",
      "type": "function"
    },
    {
      "inputs": [
        {
          "internalType": "bytes32",
          "name": "context",
          "type": "bytes32"
        }
      ],
      "name": "isContextSafeMode",
      "outputs": [
        {
          "internalType": "bool",
          "name": "",
          "type": "bool"
        }
      ],
      "stateMutability": "view",
      "type": "function"
    },
    {
      "inputs": [
        {
          "internalType": "bytes32",
          "name": "context",
          "type": "bytes32"
        }
      ],
      "name": "isContextUpgradable",
      "outputs": [
        {
          "internalType": "bool",
          "name": "",
          "type": "bool"
        }
      ],
      "stateMutability": "view",
      "type": "function"
    },
    {
      "inputs": [
        {
          "internalType": "bytes32",
          "name": "group",
          "type": "bytes32"
        }
      ],
      "name": "isGroupEnabled",
      "outputs": [
        {
          "internalType": "bool",
          "name": "",
          "type": "bool"
        }
      ],
      "stateMutability": "view",
      "type": "function"
    },
    {
      "inputs": [
        {
          "internalType": "bytes32",
          "name": "group",
          "type": "bytes32"
        }
      ],
      "name": "isGroupExists",
      "outputs": [
        {
          "internalType": "bool",
          "name": "",
          "type": "bool"
        }
      ],
      "stateMutability": "view",
      "type": "function"
    },
    {
      "inputs": [
        {
          "internalType": "address",
          "name": "account",
          "type": "address"
        }
      ],
      "name": "isLivelyAdminRole",
      "outputs": [
        {
          "internalType": "bool",
          "name": "",
          "type": "bool"
        }
      ],
      "stateMutability": "view",
      "type": "function"
    },
    {
      "inputs": [
        {
          "internalType": "address",
          "name": "account",
          "type": "address"
        }
      ],
      "name": "isLivelyAssetAdminRole",
      "outputs": [
        {
          "internalType": "bool",
          "name": "",
          "type": "bool"
        }
      ],
      "stateMutability": "view",
      "type": "function"
    },
    {
      "inputs": [
        {
          "internalType": "bytes32",
          "name": "role",
          "type": "bytes32"
        }
      ],
      "name": "isLivelyAssetGroup",
      "outputs": [
        {
          "internalType": "bool",
          "name": "",
          "type": "bool"
        }
      ],
      "stateMutability": "view",
      "type": "function"
    },
    {
      "inputs": [
        {
          "internalType": "address",
          "name": "account",
          "type": "address"
        }
      ],
      "name": "isLivelyAssetManagerRole",
      "outputs": [
        {
          "internalType": "bool",
          "name": "",
          "type": "bool"
        }
      ],
      "stateMutability": "view",
      "type": "function"
    },
    {
      "inputs": [
        {
          "internalType": "bytes32",
          "name": "context",
          "type": "bytes32"
        }
      ],
      "name": "isLivelyAssetRealm",
      "outputs": [
        {
          "internalType": "bool",
          "name": "",
          "type": "bool"
        }
      ],
      "stateMutability": "view",
      "type": "function"
    },
    {
      "inputs": [
        {
          "internalType": "address",
          "name": "account",
          "type": "address"
        }
      ],
      "name": "isLivelyCommunityDaoExecutorRole",
      "outputs": [
        {
          "internalType": "bool",
          "name": "",
          "type": "bool"
        }
      ],
      "stateMutability": "view",
      "type": "function"
    },
    {
      "inputs": [
        {
          "internalType": "address",
          "name": "account",
          "type": "address"
        }
      ],
      "name": "isLivelyCommunityDaoRole",
      "outputs": [
        {
          "internalType": "bool",
          "name": "",
          "type": "bool"
        }
      ],
      "stateMutability": "view",
      "type": "function"
    },
    {
      "inputs": [
        {
          "internalType": "bytes32",
          "name": "role",
          "type": "bytes32"
        }
      ],
      "name": "isLivelyDaoGroup",
      "outputs": [
        {
          "internalType": "bool",
          "name": "",
          "type": "bool"
        }
      ],
      "stateMutability": "view",
      "type": "function"
    },
    {
      "inputs": [
        {
          "internalType": "bytes32",
          "name": "role",
          "type": "bytes32"
        }
      ],
      "name": "isLivelyGeneralGroup",
      "outputs": [
        {
          "internalType": "bool",
          "name": "",
          "type": "bool"
        }
      ],
      "stateMutability": "view",
      "type": "function"
    },
    {
      "inputs": [
        {
          "internalType": "bytes32",
          "name": "context",
          "type": "bytes32"
        }
      ],
      "name": "isLivelyGeneralRealm",
      "outputs": [
        {
          "internalType": "bool",
          "name": "",
          "type": "bool"
        }
      ],
      "stateMutability": "view",
      "type": "function"
    },
    {
      "inputs": [
        {
          "internalType": "address",
          "name": "account",
          "type": "address"
        }
      ],
      "name": "isLivelySystemAdminRole",
      "outputs": [
        {
          "internalType": "bool",
          "name": "",
          "type": "bool"
        }
      ],
      "stateMutability": "view",
      "type": "function"
    },
    {
      "inputs": [
        {
          "internalType": "bytes32",
          "name": "realm",
          "type": "bytes32"
        }
      ],
      "name": "isRealmEnabled",
      "outputs": [
        {
          "internalType": "bool",
          "name": "",
          "type": "bool"
        }
      ],
      "stateMutability": "view",
      "type": "function"
    },
    {
      "inputs": [
        {
          "internalType": "bytes32",
          "name": "realm",
          "type": "bytes32"
        }
      ],
      "name": "isRealmExists",
      "outputs": [
        {
          "internalType": "bool",
          "name": "",
          "type": "bool"
        }
      ],
      "stateMutability": "view",
      "type": "function"
    },
    {
      "inputs": [
        {
          "internalType": "bytes32",
          "name": "realm",
          "type": "bytes32"
        }
      ],
      "name": "isRealmUpgradable",
      "outputs": [
        {
          "internalType": "bool",
          "name": "",
          "type": "bool"
        }
      ],
      "stateMutability": "view",
      "type": "function"
    },
    {
      "inputs": [
        {
          "internalType": "bytes32",
          "name": "role",
          "type": "bytes32"
        }
      ],
      "name": "isRoleEnabled",
      "outputs": [
        {
          "internalType": "bool",
          "name": "",
          "type": "bool"
        }
      ],
      "stateMutability": "view",
      "type": "function"
    },
    {
      "inputs": [
        {
          "internalType": "bytes32",
          "name": "role",
          "type": "bytes32"
        }
      ],
      "name": "isRoleExists",
      "outputs": [
        {
          "internalType": "bool",
          "name": "",
          "type": "bool"
        }
      ],
      "stateMutability": "view",
      "type": "function"
    },
    {
      "inputs": [],
      "name": "isSafeMode",
      "outputs": [
        {
          "internalType": "bool",
          "name": "",
          "type": "bool"
        }
      ],
      "stateMutability": "view",
      "type": "function"
    },
    {
      "inputs": [],
      "name": "isUpgradable",
      "outputs": [
        {
          "internalType": "bool",
          "name": "",
          "type": "bool"
        }
      ],
      "stateMutability": "view",
      "type": "function"
    },
    {
      "inputs": [],
      "name": "localAdmin",
      "outputs": [
        {
          "internalType": "address",
          "name": "",
          "type": "address"
        }
      ],
      "stateMutability": "view",
      "type": "function"
    },
    {
      "inputs": [],
      "name": "proxiableUUID",
      "outputs": [
        {
          "internalType": "bytes32",
          "name": "",
          "type": "bytes32"
        }
      ],
      "stateMutability": "view",
      "type": "function"
    },
    {
      "inputs": [
        {
          "internalType": "bytes",
          "name": "signature",
          "type": "bytes"
        },
        {
          "components": [
            {
              "internalType": "bytes32",
              "name": "name",
              "type": "bytes32"
            },
            {
              "internalType": "bytes32",
              "name": "version",
              "type": "bytes32"
            },
            {
              "internalType": "bytes32",
              "name": "realm",
              "type": "bytes32"
            },
            {
              "internalType": "address",
              "name": "contractId",
              "type": "address"
            },
            {
              "internalType": "bool",
              "name": "status",
              "type": "bool"
            }
          ],
          "internalType": "struct IContextManagement.RequestContext",
          "name": "rc",
          "type": "tuple"
        },
        {
          "components": [
            {
              "internalType": "bytes32",
              "name": "role",
              "type": "bytes32"
            },
            {
              "internalType": "bytes4[]",
              "name": "funcSelectors",
              "type": "bytes4[]"
            },
            {
              "internalType": "bool",
              "name": "isEnabled",
              "type": "bool"
            }
          ],
          "internalType": "struct IContextManagement.RequestRegisterContext[]",
          "name": "rrc",
          "type": "tuple[]"
        }
      ],
      "name": "registerContext",
      "outputs": [
        {
          "internalType": "bytes32",
          "name": "",
          "type": "bytes32"
        }
      ],
      "stateMutability": "nonpayable",
      "type": "function"
    },
    {
      "inputs": [
        {
          "internalType": "string",
          "name": "name",
          "type": "string"
        },
        {
          "internalType": "bool",
          "name": "status",
          "type": "bool"
        }
      ],
      "name": "registerGroup",
      "outputs": [
        {
          "internalType": "bytes32",
          "name": "",
          "type": "bytes32"
        }
      ],
      "stateMutability": "nonpayable",
      "type": "function"
    },
    {
      "inputs": [
        {
          "internalType": "bytes",
          "name": "signature",
          "type": "bytes"
        },
        {
          "components": [
            {
              "internalType": "bytes32",
              "name": "name",
              "type": "bytes32"
            },
            {
              "internalType": "bytes32",
              "name": "version",
              "type": "bytes32"
            },
            {
              "internalType": "bytes32",
              "name": "realm",
              "type": "bytes32"
            },
            {
              "internalType": "bytes32",
              "name": "salt",
              "type": "bytes32"
            },
            {
              "internalType": "address",
              "name": "subject",
              "type": "address"
            },
            {
              "internalType": "address",
              "name": "deployer",
              "type": "address"
            },
            {
              "internalType": "bool",
              "name": "status",
              "type": "bool"
            }
          ],
          "internalType": "struct IContextManagement.RequestPredictContext",
          "name": "rpc",
          "type": "tuple"
        },
        {
          "components": [
            {
              "internalType": "bytes32",
              "name": "role",
              "type": "bytes32"
            },
            {
              "internalType": "bytes4[]",
              "name": "funcSelectors",
              "type": "bytes4[]"
            },
            {
              "internalType": "bool",
              "name": "isEnabled",
              "type": "bool"
            }
          ],
          "internalType": "struct IContextManagement.RequestRegisterContext[]",
          "name": "rrc",
          "type": "tuple[]"
        }
      ],
      "name": "registerPredictContext",
      "outputs": [
        {
          "internalType": "bytes32",
          "name": "",
          "type": "bytes32"
        }
      ],
      "stateMutability": "nonpayable",
      "type": "function"
    },
    {
      "inputs": [
        {
          "internalType": "string",
          "name": "name",
          "type": "string"
        },
        {
          "internalType": "bool",
          "name": "status",
          "type": "bool"
        },
        {
          "internalType": "bool",
          "name": "isUpgradable",
          "type": "bool"
        }
      ],
      "name": "registerRealm",
      "outputs": [
        {
          "internalType": "bytes32",
          "name": "",
          "type": "bytes32"
        }
      ],
      "stateMutability": "nonpayable",
      "type": "function"
    },
    {
      "inputs": [
        {
          "internalType": "string",
          "name": "name",
          "type": "string"
        },
        {
          "internalType": "bytes32",
          "name": "group",
          "type": "bytes32"
        },
        {
          "internalType": "bool",
          "name": "status",
          "type": "bool"
        }
      ],
      "name": "registerRole",
      "outputs": [
        {
          "internalType": "bytes32",
          "name": "",
          "type": "bytes32"
        }
      ],
      "stateMutability": "nonpayable",
      "type": "function"
    },
    {
      "inputs": [
        {
          "internalType": "bytes32",
          "name": "ctx",
          "type": "bytes32"
        },
        {
          "internalType": "bytes4",
          "name": "functionSelector",
          "type": "bytes4"
        }
      ],
      "name": "removeContextFunc",
      "outputs": [
        {
          "internalType": "bool",
          "name": "",
          "type": "bool"
        }
      ],
      "stateMutability": "nonpayable",
      "type": "function"
    },
    {
      "inputs": [
        {
          "internalType": "bytes32",
          "name": "ctx",
          "type": "bytes32"
        },
        {
          "internalType": "bytes4",
          "name": "functionSelector",
          "type": "bytes4"
        },
        {
          "internalType": "bytes32",
          "name": "role",
          "type": "bytes32"
        }
      ],
      "name": "revokeContextRole",
      "outputs": [
        {
          "internalType": "bool",
          "name": "",
          "type": "bool"
        }
      ],
      "stateMutability": "nonpayable",
      "type": "function"
    },
    {
      "inputs": [
        {
          "internalType": "bytes32",
          "name": "role",
          "type": "bytes32"
        },
        {
          "internalType": "address",
          "name": "account",
          "type": "address"
        }
      ],
      "name": "revokeRoleAccount",
      "outputs": [
        {
          "internalType": "bool",
          "name": "",
          "type": "bool"
        }
      ],
      "stateMutability": "nonpayable",
      "type": "function"
    },
    {
      "inputs": [
        {
          "internalType": "bytes32",
          "name": "ctx",
          "type": "bytes32"
        },
        {
          "internalType": "bytes32",
          "name": "realm",
          "type": "bytes32"
        }
      ],
      "name": "setContextRealm",
      "outputs": [
        {
          "internalType": "bool",
          "name": "",
          "type": "bool"
        }
      ],
      "stateMutability": "nonpayable",
      "type": "function"
    },
    {
      "inputs": [
        {
          "internalType": "bytes32",
          "name": "ctx",
          "type": "bytes32"
        },
        {
          "internalType": "bool",
          "name": "status",
          "type": "bool"
        }
      ],
      "name": "setContextStatus",
      "outputs": [
        {
          "internalType": "bool",
          "name": "",
          "type": "bool"
        }
      ],
      "stateMutability": "nonpayable",
      "type": "function"
    },
    {
      "inputs": [
        {
          "internalType": "bytes32",
          "name": "group",
          "type": "bytes32"
        },
        {
          "internalType": "bool",
          "name": "status",
          "type": "bool"
        }
      ],
      "name": "setGroupStatus",
      "outputs": [
        {
          "internalType": "bool",
          "name": "",
          "type": "bool"
        }
      ],
      "stateMutability": "nonpayable",
      "type": "function"
    },
    {
      "inputs": [
        {
          "internalType": "address",
          "name": "newLocalAdmin",
          "type": "address"
        }
      ],
      "name": "setLocalAdmin",
      "outputs": [
        {
          "internalType": "bool",
          "name": "",
          "type": "bool"
        }
      ],
      "stateMutability": "nonpayable",
      "type": "function"
    },
    {
      "inputs": [
        {
          "internalType": "bytes32",
          "name": "realm",
          "type": "bytes32"
        },
        {
          "internalType": "bool",
          "name": "status",
          "type": "bool"
        }
      ],
      "name": "setRealmStatus",
      "outputs": [
        {
          "internalType": "bool",
          "name": "",
          "type": "bool"
        }
      ],
      "stateMutability": "nonpayable",
      "type": "function"
    },
    {
      "inputs": [
        {
          "internalType": "bytes32",
          "name": "realm",
          "type": "bytes32"
        },
        {
          "internalType": "bool",
          "name": "status",
          "type": "bool"
        }
      ],
      "name": "setRealmUpgradeStatus",
      "outputs": [
        {
          "internalType": "bool",
          "name": "",
          "type": "bool"
        }
      ],
      "stateMutability": "nonpayable",
      "type": "function"
    },
    {
      "inputs": [
        {
          "internalType": "bytes32",
          "name": "role",
          "type": "bytes32"
        },
        {
          "internalType": "bytes32",
          "name": "group",
          "type": "bytes32"
        }
      ],
      "name": "setRoleGroup",
      "outputs": [
        {
          "internalType": "bool",
          "name": "",
          "type": "bool"
        }
      ],
      "stateMutability": "nonpayable",
      "type": "function"
    },
    {
      "inputs": [
        {
          "internalType": "bytes32",
          "name": "role",
          "type": "bytes32"
        },
        {
          "internalType": "bool",
          "name": "status",
          "type": "bool"
        }
      ],
      "name": "setRoleStatus",
      "outputs": [
        {
          "internalType": "bool",
          "name": "",
          "type": "bool"
        }
      ],
      "stateMutability": "nonpayable",
      "type": "function"
    },
    {
      "inputs": [
        {
          "internalType": "bool",
          "name": "status",
          "type": "bool"
        }
      ],
      "name": "setSafeMode",
      "outputs": [
        {
          "internalType": "bool",
          "name": "",
          "type": "bool"
        }
      ],
      "stateMutability": "nonpayable",
      "type": "function"
    },
    {
      "inputs": [
        {
          "internalType": "bool",
          "name": "status",
          "type": "bool"
        }
      ],
      "name": "setUpgradeStatus",
      "outputs": [
        {
          "internalType": "bool",
          "name": "",
          "type": "bool"
        }
      ],
      "stateMutability": "nonpayable",
      "type": "function"
    },
    {
      "inputs": [],
      "name": "subjectAddress",
      "outputs": [
        {
          "internalType": "address",
          "name": "",
          "type": "address"
        }
      ],
      "stateMutability": "view",
      "type": "function"
    },
    {
      "inputs": [
        {
          "internalType": "bytes4",
          "name": "interfaceId",
          "type": "bytes4"
        }
      ],
      "name": "supportsInterface",
      "outputs": [
        {
          "internalType": "bool",
          "name": "",
          "type": "bool"
        }
      ],
      "stateMutability": "view",
      "type": "function"
    },
    {
      "inputs": [
        {
          "internalType": "bytes32",
          "name": "ctx",
          "type": "bytes32"
        },
        {
          "internalType": "bytes",
          "name": "signature",
          "type": "bytes"
        },
        {
          "components": [
            {
              "internalType": "bytes32",
              "name": "name",
              "type": "bytes32"
            },
            {
              "internalType": "bytes32",
              "name": "version",
              "type": "bytes32"
            },
            {
              "internalType": "bytes32",
              "name": "realm",
              "type": "bytes32"
            },
            {
              "internalType": "address",
              "name": "contractId",
              "type": "address"
            },
            {
              "internalType": "bool",
              "name": "status",
              "type": "bool"
            }
          ],
          "internalType": "struct IContextManagement.RequestContext",
          "name": "rc",
          "type": "tuple"
        },
        {
          "components": [
            {
              "internalType": "bytes32",
              "name": "role",
              "type": "bytes32"
            },
            {
              "internalType": "bytes4[]",
              "name": "funcSelectors",
              "type": "bytes4[]"
            },
            {
              "internalType": "enum IContextManagement.UpdateContextStatus",
              "name": "updateStatus",
              "type": "uint8"
            }
          ],
          "internalType": "struct IContextManagement.RequestUpdateContext[]",
          "name": "rcr",
          "type": "tuple[]"
        }
      ],
      "name": "updateContext",
      "outputs": [
        {
          "internalType": "address",
          "name": "",
          "type": "address"
        }
      ],
      "stateMutability": "nonpayable",
      "type": "function"
    },
    {
      "inputs": [
        {
          "internalType": "address",
          "name": "newImplementation",
          "type": "address"
        },
        {
          "internalType": "bytes",
          "name": "data",
          "type": "bytes"
        },
        {
          "internalType": "bool",
          "name": "forceCall",
          "type": "bool"
        }
      ],
      "name": "upgradeTo",
      "outputs": [
        {
          "internalType": "bytes",
          "name": "",
          "type": "bytes"
        }
      ],
      "stateMutability": "nonpayable",
      "type": "function"
    },
    {
      "inputs": [
        {
          "internalType": "address",
          "name": "recepient",
          "type": "address"
        }
      ],
      "name": "withdrawBalance",
      "outputs": [],
      "stateMutability": "nonpayable",
      "type": "function"
    },
    {
      "stateMutability": "payable",
      "type": "receive"
    }
  ],
  "transactionHash": "0xe14e7f6861870e80e495c82c275a128749f113fbd1ad1e636eb622b41c1c6203",
  "args": [],
  "numDeployments": 1,
  "solcInputHash": "3e9e2bfc780fe3e74e9adcfad5628582",
  "bytecode": "0x60a0604052306080523480156200001557600080fd5b506200004360017f360894a13ba1a3210667c828492db98dca3e2076cc3735a920a3ca505d382bbd62000127565b7f360894a13ba1a3210667c828492db98dca3e2076cc3735a920a3ca505d382bbc146200007457620000746200014f565b620000a160017fb53127684a568b3173ae13b9f8a6016e243e63b6e8ee1178d6a717850b5d610462000127565b600080516020620060fe83398151915214620000c157620000c16200014f565b33620000ea600080516020620060fe83398151915260001b6200012460201b62003bf91760201c565b80546001600160a01b03929092166001600160a01b03199092169190911790556003805461ffff60a01b1916600160a01b17905562000165565b90565b818103818111156200014957634e487b7160e01b600052601160045260246000fd5b92915050565b634e487b7160e01b600052600160045260246000fd5b608051615f37620001c7600039600081816117530152818161179c015281816119580152818161199801528181611cca01528181611da001528181611de001528181612373015281816123b3015281816133f001526134300152615f376000f3fe60806040526004361061043c5760003560e01c80638f09e0f011610232578063c7ab39e61161012d578063e1ed0a82116100b0578063f1df49da11610077578063f1df49da14610e2b578063f2c673bd14610e4b578063f5122c9214610e6b578063f698da2514610e8b578063f94a0adb14610ea057005b8063e1ed0a8214610d8b578063e25d75f014610dab578063e65be46814610dcb578063e71e224e14610deb578063edf1d1cb14610e0b57005b8063d9d34bf8116100f4578063d9d34bf814610ceb578063d9dc1f1914610d0b578063dbf304b014610d2b578063dc853dd014610d4b578063df01de4514610d6b57005b8063c7ab39e614610c56578063c7ea945c14610c76578063d338640114610c96578063d3e024b814610cb6578063d9aba36e14610ccb57005b8063b4a0bdf3116101b5578063be409a111161017c578063be409a1114610ba7578063be409b5714610bd6578063c34aa02114610bf6578063c48e7ae614610c16578063c557020a14610c3657005b8063b4a0bdf314610b0a578063b4c4b58f14610b28578063b58966de14610b48578063b6c03f0314610b68578063be22465d14610b8857005b80639ebf6246116101f95780639ebf624614610a21578063a0a8e46014610a95578063a32ce13d14610aaa578063a92f69c114610aca578063b2dc26e514610aea57005b80638f09e0f01461098157806391690955146109a157806393ba3131146109c157806394cfd6e3146109e15780639e3a2cea14610a0157005b80634944f532116103425780636b3b0159116102c5578063771bcf451161028c578063771bcf45146108ec5780637b4433791461090c578063870666cb1461092c5780638b7dbd6c146109415780638e7038261461096157005b80636b3b01591461084a57806370420ee31461086a5780637147855d1461088a578063756af45f146108b757806375d0c0dc146108d757005b80635479d940116103095780635479d9401461079057806358dbc45d146107af5780635bdaecce146107dc5780635c6d8da1146107fc5780636b2b7dd81461081c57005b80634944f532146106fb5780634bb1be8c1461071b5780634dc13c8f1461073b57806351e70bb01461075b57806352d1902d1461077b57005b806337bfbfe8116103ca5780634156567311610391578063415656731461065b5780634346a04b1461067b57806344b7e5f21461069b57806345b5203c146106bb57806348e6be1c146106db57005b806337bfbfe81461058757806338d38c97146105b45780633c7d5b25146105dc5780633e02bc381461060b5780633f4c99b81461062d57005b806311b529b31161040e57806311b529b3146104da5780631846d125146104fa5780632e2adf001461051a5780632f032edd146105475780633228144d1461056757005b806301ffc9a714610445578063031c04931461047a578063076a6f221461049a578063101df54d146104ba57005b3661044357005b005b34801561045157600080fd5b50610465610460366004614751565b610eb5565b60405190151581526020015b60405180910390f35b34801561048657600080fd5b5061046561049536600461476e565b610f4c565b3480156104a657600080fd5b506104656104b53660046147bb565b611022565b3480156104c657600080fd5b506104656104d53660046147d8565b6110a9565b3480156104e657600080fd5b506104656104f53660046147f1565b6110eb565b34801561050657600080fd5b506104656105153660046147d8565b61116b565b34801561052657600080fd5b5061053a6105353660046147d8565b6111ad565b6040516104719190614821565b34801561055357600080fd5b506104656105623660046147d8565b61122f565b34801561057357600080fd5b506104656105823660046147d8565b611271565b34801561059357600080fd5b506105a76105a23660046147d8565b6112b3565b604051610471919061486f565b3480156105c057600080fd5b506105c9611336565b60405161ffff9091168152602001610471565b3480156105e857600080fd5b506105fc6105f73660046147d8565b61134a565b604051610471939291906148f7565b34801561061757600080fd5b506106206113de565b6040516104719190614921565b34801561063957600080fd5b5061064d6106483660046149b8565b61156a565b604051908152602001610471565b34801561066757600080fd5b506104656106763660046147bb565b61163c565b34801561068757600080fd5b5061046561069636600461476e565b611686565b3480156106a757600080fd5b506104656106b6366004614a0e565b611747565b3480156106c757600080fd5b506104656106d63660046147d8565b61190a565b3480156106e757600080fd5b506104656106f6366004614a0e565b61194c565b34801561070757600080fd5b506104656107163660046147d8565b611b20565b34801561072757600080fd5b5061064d610736366004614a2b565b611b62565b34801561074757600080fd5b506104656107563660046147d8565b611c39565b34801561076757600080fd5b506104656107763660046147d8565b611c7b565b34801561078757600080fd5b5061064d611cbd565b34801561079c57600080fd5b50600354600160a81b900460ff16610465565b3480156107bb57600080fd5b506107c4611d4a565b6040516001600160a01b039091168152602001610471565b3480156107e857600080fd5b506104656107f73660046147d8565b611d54565b34801561080857600080fd5b50610443610817366004614a92565b611d96565b34801561082857600080fd5b5061083c6108373660046147d8565b612158565b604051610471929190614b3f565b34801561085657600080fd5b50610465610865366004614b63565b6121e6565b34801561087657600080fd5b50610465610885366004614b91565b612284565b34801561089657600080fd5b506108aa6108a5366004614ca1565b612367565b6040516104719190614cf9565b3480156108c357600080fd5b506104436108d23660046147bb565b612498565b3480156108e357600080fd5b5060005461064d565b3480156108f857600080fd5b5061046561090736600461476e565b612557565b34801561091857600080fd5b5061064d610927366004614d50565b612618565b34801561093857600080fd5b5061064d61273c565b34801561094d57600080fd5b5061046561095c366004614b91565b612747565b34801561096d57600080fd5b5061046561097c3660046147d8565b6127d5565b34801561098d57600080fd5b5061046561099c366004614dd4565b612817565b3480156109ad57600080fd5b506104656109bc3660046147d8565b6128a0565b3480156109cd57600080fd5b506104656109dc366004614df9565b6128e2565b3480156109ed57600080fd5b506104656109fc3660046147d8565b6129c8565b348015610a0d57600080fd5b506105a7610a1c366004614e6d565b612a0a565b348015610a2d57600080fd5b50610a41610a3c3660046147d8565b612bbb565b60405161047191908151815260208083015190820152604080830151908201526060808301516001600160a01b03169082015260808083015115159082015260a09182015115159181019190915260c00190565b348015610aa157600080fd5b5060015461064d565b348015610ab657600080fd5b50610465610ac53660046147d8565b612c64565b348015610ad657600080fd5b50610465610ae53660046147bb565b612ca6565b348015610af657600080fd5b5061064d610b05366004614eae565b612cf0565b348015610b1657600080fd5b506003546001600160a01b03166107c4565b348015610b3457600080fd5b50610465610b433660046147f1565b612dec565b348015610b5457600080fd5b50610465610b633660046147f1565b612e2b565b348015610b7457600080fd5b50610465610b83366004614b91565b612efb565b348015610b9457600080fd5b50600354600160a01b900460ff16610465565b348015610bb357600080fd5b50610bc7610bc23660046147d8565b612f8b565b60405161047193929190614f01565b348015610be257600080fd5b50610465610bf13660046147bb565b613012565b348015610c0257600080fd5b50610465610c113660046147bb565b61305c565b348015610c2257600080fd5b50610465610c313660046147d8565b6130a6565b348015610c4257600080fd5b50610465610c51366004614df9565b6130e8565b348015610c6257600080fd5b50610465610c71366004614f2b565b6131ce565b348015610c8257600080fd5b50610465610c91366004614dd4565b613230565b348015610ca257600080fd5b50610465610cb1366004614f62565b613282565b348015610cc257600080fd5b5060025461064d565b348015610cd757600080fd5b50610465610ce6366004614f62565b613351565b348015610cf757600080fd5b50610465610d063660046147bb565b61339a565b348015610d1757600080fd5b50610465610d263660046147bb565b6133e4565b348015610d3757600080fd5b50610465610d46366004614f62565b613565565b348015610d5757600080fd5b50610465610d663660046147d8565b613634565b348015610d7757600080fd5b50610465610d86366004614dd4565b613676565b348015610d9757600080fd5b50610620610da63660046147d8565b6136ff565b348015610db757600080fd5b50610465610dc63660046147d8565b613781565b348015610dd757600080fd5b506107c4610de6366004614f9c565b6137c3565b348015610df757600080fd5b50610465610e06366004614b91565b613898565b348015610e1757600080fd5b506105a7610e263660046147d8565b61396b565b348015610e3757600080fd5b5061064d610e46366004615022565b6139ad565b348015610e5757600080fd5b50610465610e66366004614b91565b613aaa565b348015610e7757600080fd5b50610465610e86366004614f62565b613b3a565b348015610e9757600080fd5b5061064d613b83565b348015610eac57600080fd5b506107c4613bef565b60006001600160e01b031982166314b8343560e31b1480610ee657506001600160e01b031982166396dc457560e01b145b80610f0157506001600160e01b031982166308ea925b60e41b145b80610f1c57506001600160e01b03198216637d22131d60e11b145b80610f3757506001600160e01b031982166370319bff60e11b145b80610f465750610f4682613bfc565b92915050565b60008073e7f1725E7734CE288F8367e1Bb143E90bb3F051263a234dae360448787876040518563ffffffff1660e01b8152600401610f8d949392919061508d565b602060405180830381865af4158015610faa573d6000803e3d6000fd5b505050506040513d601f19601f82011682018060405250810190610fce91906150b2565b9050336001600160a01b031683867fce5e1f2ba33f195f748a93b00ee62600b55e27cc50531a72e5443713bac23e12878560405161100d9291906150cb565b60405180910390a460019150505b9392505050565b604051630b71751360e31b81526044600482018190526001600160a01b0383166024830152600091735FbDB2315678afecb367f032d93F642f64180aa391635b8ba89891015b602060405180830381865af4158015611085573d6000803e3d6000fd5b505050506040513d601f19601f82011682018060405250810190610f4691906150e5565b6040516316b714ad60e01b815260446004820181905260248201839052600091735FbDB2315678afecb367f032d93F642f64180aa3916316b714ad9101611068565b6040516374cda89d60e11b8152600090735FbDB2315678afecb367f032d93F642f64180aa39063e99b513a9061112a9060449087908790600401615102565b602060405180830381865af4158015611147573d6000803e3d6000fd5b505050506040513d601f19601f8201168201806040525081019061101b91906150e5565b60405163198d864d60e31b815260446004820181905260248201839052600091735FbDB2315678afecb367f032d93F642f64180aa39163cc6c32689101611068565b6040516333669f8360e11b81526044600482018190526024820183905260609173e7f1725E7734CE288F8367e1Bb143E90bb3F0512916366cd3f069101600060405180830381865af4158015611207573d6000803e3d6000fd5b505050506040513d6000823e601f3d908101601f19168201604052610f4691908101906151b4565b60405163cb4a1bb760e01b815260446004820181905260248201839052600091735FbDB2315678afecb367f032d93F642f64180aa39163cb4a1bb79101611068565b604051635a96334b60e01b815260446004820181905260248201839052600091735FbDB2315678afecb367f032d93F642f64180aa391635a96334b9101611068565b604051635ed86fc960e01b81526044600482018190526024820183905260609173Cf7Ed3AccA5a467e9e704C703E8D87F634fB0Fc991635ed86fc991015b600060405180830381865af415801561130e573d6000803e3d6000fd5b505050506040513d6000823e601f3d908101601f19168201604052610f4691908101906151e8565b600061134560495461ffff1690565b905090565b6040516302946a5960e61b815260446004820181905260248201839052606091600091829173Cf7Ed3AccA5a467e9e704C703E8D87F634fB0Fc99163a51a96409101600060405180830381865af41580156113a9573d6000803e3d6000fd5b505050506040513d6000823e601f3d908101601f191682016040526113d191908101906152bd565b9250925092509193909250565b60408051600580825260c08201909252606091600091906020820160a080368337019050509050735FbDB2315678afecb367f032d93F642f64180aa38160008151811061142d5761142d615316565b60200260200101906001600160a01b031690816001600160a01b03168152505073e7f1725E7734CE288F8367e1Bb143E90bb3F05128160018151811061147557611475615316565b60200260200101906001600160a01b031690816001600160a01b03168152505073Cf7Ed3AccA5a467e9e704C703E8D87F634fB0Fc9816002815181106114bd576114bd615316565b60200260200101906001600160a01b031690816001600160a01b031681525050739fE46736679d2D9a65F0992F2272dE9f3c7fa6e08160038151811061150557611505615316565b60200260200101906001600160a01b031690816001600160a01b03168152505073Dc64a140Aa3E981100a9becA4E685f962f0cF6C98160048151811061154d5761154d615316565b6001600160a01b0390921660209283029190910190910152919050565b60008073Dc64a140Aa3E981100a9becA4E685f962f0cF6C963c3db069f60448787876040518563ffffffff1660e01b81526004016115ab9493929190615355565b602060405180830381865af41580156115c8573d6000803e3d6000fd5b505050506040513d601f19601f820116820180604052508101906115ec91906150b2565b9050336001600160a01b0316817fde3bd866160a7f983f3c5f990127712936d37378d60b93ba96ab3a66a04feb1887878760405161162c93929190615382565b60405180910390a3949350505050565b60405163066f9a3160e31b81526044600482018190526001600160a01b0383166024830152600091735FbDB2315678afecb367f032d93F642f64180aa39163337cd1889101611068565b60008073e7f1725E7734CE288F8367e1Bb143E90bb3F051263ef20d55d60448787876040518563ffffffff1660e01b81526004016116c7949392919061508d565b602060405180830381865af41580156116e4573d6000803e3d6000fd5b505050506040513d601f19601f8201168201806040525081019061170891906150b2565b9050336001600160a01b031683867f888ebbee43b69c568a7ef10a18f4afb4a0452ed2cfec2dde7a3d37b7e5ef87a3878560405161100d9291906150cb565b60006001600160a01b037f000000000000000000000000000000000000000000000000000000000000000016300361179a5760405162461bcd60e51b8152600401611791906153a8565b60405180910390fd5b7f00000000000000000000000000000000000000000000000000000000000000006001600160a01b03166117cc613c4c565b6001600160a01b0316146117f25760405162461bcd60e51b8152600401611791906153d7565b600061180160495461ffff1690565b61ffff16116118525760405162461bcd60e51b815260206004820152601860248201527f436f6e7472616374204e6f7420496e697469616c697a656400000000000000006044820152606401611791565b61186263225bf2f960e11b613c6d565b6118a65760405162461bcd60e51b815260206004820152601560248201527429b2ba29b0b332a6b7b232902337b93134b23232b760591b6044820152606401611791565b6003805460ff60a01b1916600160a01b8415150217905560025430336001600160a01b03167fdd452a31d2e164a1ea436c084842c27d24ae2548a575a869f71b05a4ed16243f856040516118fe911515815260200190565b60405180910390a45090565b60405163037f4c9360e41b815260446004820181905260248201839052600091735FbDB2315678afecb367f032d93F642f64180aa3916337f4c9309101611068565b60006001600160a01b037f00000000000000000000000000000000000000000000000000000000000000001630036119965760405162461bcd60e51b8152600401611791906153a8565b7f00000000000000000000000000000000000000000000000000000000000000006001600160a01b03166119c8613c4c565b6001600160a01b0316146119ee5760405162461bcd60e51b8152600401611791906153d7565b600354600160a01b900460ff1615611a185760405162461bcd60e51b815260040161179190615405565b611a28631239af8760e21b613c6d565b611a745760405162461bcd60e51b815260206004820152601a60248201527f5365745570677261646553746174757320466f7262696464656e0000000000006044820152606401611791565b611a7c613db2565b611ac85760405162461bcd60e51b815260206004820152601760248201527f5265616c6d205570677261646520466f7262696464656e0000000000000000006044820152606401611791565b6003805460ff60a81b1916600160a81b8415150217905560025430336001600160a01b03167fe9f97ad94c2ba252dcfc525e004f608ac5cb886955d8fc87d9e0ee070a698c56856040516118fe911515815260200190565b6040516352f8f17f60e11b815260446004820181905260248201839052600091735FbDB2315678afecb367f032d93F642f64180aa39163a5f1e2fe9101611068565b60008073Cf7Ed3AccA5a467e9e704C703E8D87F634fB0Fc9639b214b706044888888886040518663ffffffff1660e01b8152600401611ba595949392919061543c565b602060405180830381865af4158015611bc2573d6000803e3d6000fd5b505050506040513d601f19601f82011682018060405250810190611be691906150b2565b9050336001600160a01b0316817f5a8acbe7e0fa397d934e9aafb8fb1a483627af9e9b4690f4488d740b669f8b4788888888604051611c28949392919061546f565b60405180910390a395945050505050565b60405163784c277360e11b815260446004820181905260248201839052600091735FbDB2315678afecb367f032d93F642f64180aa39163f0984ee69101611068565b60405163302a328360e21b815260446004820181905260248201839052600091735FbDB2315678afecb367f032d93F642f64180aa39163c0a8ca0c9101611068565b6000306001600160a01b037f00000000000000000000000000000000000000000000000000000000000000001614611d375760405162461bcd60e51b815260206004820152601d60248201527f496c6c6567616c20436f6e74726163742044656c656761746563616c6c0000006044820152606401611791565b50600080516020615ee283398151915290565b6000611345613c4c565b604051636787ad5160e01b815260446004820181905260248201839052600091735FbDB2315678afecb367f032d93F642f64180aa391636787ad519101611068565b6001600160a01b037f0000000000000000000000000000000000000000000000000000000000000000163003611dde5760405162461bcd60e51b8152600401611791906153a8565b7f00000000000000000000000000000000000000000000000000000000000000006001600160a01b0316611e10613c4c565b6001600160a01b031614611e365760405162461bcd60e51b8152600401611791906153d7565b33611e3f613ef0565b6001600160a01b031614611e8d5760405162461bcd60e51b815260206004820152601560248201527410d85b1b195c88139bdd08105d5d1a1bdc9a5e9959605a1b6044820152606401611791565b60495462010000900460ff1615808015611eaf5750604954600161ffff909116105b80611eca5750303b158015611eca575060495461ffff166001145b611f165760405162461bcd60e51b815260206004820152601c60248201527f436f6e747261637420416c726561647920496e697469616c697a6564000000006044820152606401611791565b6049805461ffff191660011790558015611f3c576049805462ff00001916620100001790555b60008484604051602001611f5192919061549b565b60408051808303601f190181529082905280516020909101206313f4f37f60e31b8252604460048301529150735FbDB2315678afecb367f032d93F642f64180aa390639fa79bf89060240160006040518083038186803b158015611fb457600080fd5b505af4158015611fc8573d6000803e3d6000fd5b50505050611fda898989898588613f18565b6000735FbDB2315678afecb367f032d93F642f64180aa36362f3c2d46040518163ffffffff1660e01b8152600401600060405180830381865af4158015612025573d6000803e3d6000fd5b505050506040513d6000823e601f3d908101601f1916820160405261204d91908101906154ab565b604051630a64c0bb60e41b815290915073e7f1725E7734CE288F8367e1Bb143E90bb3F05129063a64c0bb09061208e906044903090879087906004016155ae565b602060405180830381865af41580156120ab573d6000803e3d6000fd5b505050506040513d601f19601f820116820180604052508101906120cf91906150b2565b506120d8613c4c565b6001600160a01b031630336001600160a01b03167ff851a1e85477b818fc72ad517ea622cc316f10f67d61c9e740adc151a8b413948d8d8d8d8961211f60495461ffff1690565b60405161213196959493929190615686565b60405180910390a45050801561214e576049805462ff0000191690555b5050505050505050565b60405163097f7f8760e01b81526044600482018190526024820183905260609160009173Dc64a140Aa3E981100a9becA4E685f962f0cF6C99163097f7f879101600060405180830381865af41580156121b5573d6000803e3d6000fd5b505050506040513d6000823e601f3d908101601f191682016040526121dd91908101906156cb565b91509150915091565b60405163214cdddf60e21b81526044600482018190526024820185905281018390526001600160e01b03198216606482015260009073e7f1725E7734CE288F8367e1Bb143E90bb3F051290638533777c906084015b602060405180830381865af4158015612258573d6000803e3d6000fd5b505050506040513d601f19601f8201168201806040525081019061227c91906150e5565b949350505050565b6040516375e6430f60e11b815260446004820181905260248201849052821515908201526000908190819073e7f1725E7734CE288F8367e1Bb143E90bb3F05129063ebcc861e906064016040805180830381865af41580156122ea573d6000803e3d6000fd5b505050506040513d601f19601f8201168201806040525081019061230e9190615711565b915091508061231a3390565b6001600160a01b0316867f354501e3216e5f916d4d35ef255a577d106a7eab306488227783a837dc042a4e87604051612357911515815260200190565b60405180910390a4509392505050565b60606001600160a01b037f00000000000000000000000000000000000000000000000000000000000000001630036123b15760405162461bcd60e51b8152600401611791906153a8565b7f00000000000000000000000000000000000000000000000000000000000000006001600160a01b03166123e3613c4c565b6001600160a01b0316146124095760405162461bcd60e51b8152600401611791906153d7565b600354600160a01b900460ff16156124335760405162461bcd60e51b815260040161179190615405565b600354600160a81b900460ff166124845760405162461bcd60e51b8152602060048201526015602482015274155c19dc9859194810d85b1b0814995a9958dd1959605a1b6044820152606401611791565b61248d84613f2e565b61227c848484613ff5565b600354600160a01b900460ff16156124c25760405162461bcd60e51b815260040161179190615405565b6124d263756af45f60e01b613c6d565b61251e5760405162461bcd60e51b815260206004820152601a60248201527f57697468647261772042616c616e636520466f7262696464656e0000000000006044820152606401611791565b6040516001600160a01b038216904780156108fc02916000818181858888f19350505050158015612553573d6000803e3d6000fd5b5050565b60008073e7f1725E7734CE288F8367e1Bb143E90bb3F05126376fd3e8260448787876040518563ffffffff1660e01b8152600401612598949392919061508d565b602060405180830381865af41580156125b5573d6000803e3d6000fd5b505050506040513d601f19601f820116820180604052508101906125d991906150b2565b9050336001600160a01b031683867fea00ff399a342f54b82233841f91faa5677300e901667e010e9f22aea1ae5931878560405161100d9291906150cb565b60008060008073e7f1725E7734CE288F8367e1Bb143E90bb3F0512630ec7ee0e60448a8a8a8a6040518663ffffffff1660e01b815260040161265e959493929190615882565b606060405180830381865af415801561267b573d6000803e3d6000fd5b505050506040513d601f19601f8201168201806040525081019061269f919061592c565b9250925092506126ac3390565b6001600160a01b03908116908416837fcc1b95900c3e2c3876e4b29283de90ac446bd6049a0df525d14a8c07d36ae70c846126ed60c08d0160a08e016147bb565b6126fd60a08e0160808f016147bb565b604080516001600160a01b0394851681529284166020840152921681830152908c013560608201526080015b60405180910390a4509695505050505050565b600061134530614246565b6000336001600160a01b0316837ffe1617b569bd167ab40b31e034f68e32656219dbe4ab9469a00660550fec72c884604051612787911515815260200190565b60405180910390a3604051625d742f60e01b8152604460048201819052602482018590528315159082015273Cf7Ed3AccA5a467e9e704C703E8D87F634fB0Fc990625d742f9060640161112a565b60405163087d8e2b60e41b815260446004820181905260248201839052600091735FbDB2315678afecb367f032d93F642f64180aa3916387d8e2b09101611068565b6040516000906001600160a01b03831690849033907fd992f85df7a0be47c44b0be141be17eefd360033a4ce05b5458fba27b7781999908590a460405163424afd2b60e11b8152604460048201819052602482018590526001600160a01b03841690820152739fE46736679d2D9a65F0992F2272dE9f3c7fa6e090638495fa569060640161112a565b604051630c59f43160e21b815260446004820181905260248201839052600091735FbDB2315678afecb367f032d93F642f64180aa391633167d0c49101611068565b6000805b8281101561298b5783838281811061290057612900615316565b905060400201602001602081019061291891906147bb565b6001600160a01b031684848381811061293357612933615316565b905060400201600001356129443390565b6001600160a01b03167fd992f85df7a0be47c44b0be141be17eefd360033a4ce05b5458fba27b778199960405160405180910390a4806129838161597a565b9150506128e6565b50604051630803bd0960e41b8152739fE46736679d2D9a65F0992F2272dE9f3c7fa6e09063803bd0909061112a9060449087908790600401615993565b604051636cc77b1160e11b815260446004820181905260248201839052600091735FbDB2315678afecb367f032d93F642f64180aa39163d98ef6229101611068565b60606000739fE46736679d2D9a65F0992F2272dE9f3c7fa6e06368b38e0f604486866040518463ffffffff1660e01b8152600401612a4a939291906159e8565b600060405180830381865af4158015612a67573d6000803e3d6000fd5b505050506040513d6000823e601f3d908101601f19168201604052612a8f91908101906151e8565b905060005b83811015612bb357848482818110612aae57612aae615316565b9050602002810190612ac09190615abf565b612ace906020810190615adf565b604051612adc92919061549b565b6040518091039020828281518110612af657612af6615316565b6020026020010151612b053390565b6001600160a01b03167f539b07dddd6bd9ffefa3d951a9467d78948cbe1a8d13be00e7376842a83a5981888886818110612b4157612b41615316565b9050602002810190612b539190615abf565b35898987818110612b6657612b66615316565b9050602002810190612b789190615abf565b612b89906060810190604001614a0e565b6040805192835290151560208301520160405180910390a480612bab8161597a565b915050612a94565b509392505050565b6040805160c081018252600080825260208201819052818301819052606082018190526080820181905260a08201529051639bbafb1160e01b81526044600482018190526024820184905273e7f1725E7734CE288F8367e1Bb143E90bb3F051291639bbafb11910160c060405180830381865af4158015612c40573d6000803e3d6000fd5b505050506040513d601f19601f82011682018060405250810190610f469190615b25565b60405163ce34a66d60e01b815260446004820181905260248201839052600091735FbDB2315678afecb367f032d93F642f64180aa39163ce34a66d9101611068565b6040516342ef199b60e11b81526044600482018190526001600160a01b0383166024830152600091735FbDB2315678afecb367f032d93F642f64180aa3916385de33369101611068565b600080739fE46736679d2D9a65F0992F2272dE9f3c7fa6e063881d86766044888888886040518663ffffffff1660e01b8152600401612d33959493929190615bb6565b602060405180830381865af4158015612d50573d6000803e3d6000fd5b505050506040513d601f19601f82011682018060405250810190612d7491906150b2565b90508585604051612d8692919061549b565b604051809103902081612d963390565b6001600160a01b03167f539b07dddd6bd9ffefa3d951a9467d78948cbe1a8d13be00e7376842a83a59818787604051612ddb9291909182521515602082015260400190565b60405180910390a495945050505050565b6040516337455c0b60e21b8152600090735FbDB2315678afecb367f032d93F642f64180aa39063dd15702c9061112a9060449087908790600401615102565b60008073e7f1725E7734CE288F8367e1Bb143E90bb3F0512634a56c0b8604486866040518463ffffffff1660e01b8152600401612e6a93929190615102565b602060405180830381865af4158015612e87573d6000803e3d6000fd5b505050506040513d601f19601f82011682018060405250810190612eab91906150b2565b9050336001600160a01b0316847fa6234dfea6da9d63d0505ba9b61ac8405dfd897089208859cda18011c4847d698584604051612ee99291906150cb565b60405180910390a35060019392505050565b6000336001600160a01b0316837fe595d6b009cbfd06bfdfc4b7c06799f0e0b08fb2c6f5fa6e28a9aac2495440f984604051612f3b911515815260200190565b60405180910390a36040516311cc3c7760e01b8152604460048201819052602482018590528315159082015273Dc64a140Aa3E981100a9becA4E685f962f0cF6C9906311cc3c779060640161112a565b60405163014ac83b60e61b8152604460048201819052602482018390526060916000918291739fE46736679d2D9a65F0992F2272dE9f3c7fa6e0916352b20ec09101600060405180830381865af4158015612fea573d6000803e3d6000fd5b505050506040513d6000823e601f3d908101601f191682016040526113d19190810190615be9565b6040516377f616af60e11b81526044600482018190526001600160a01b0383166024830152600091735FbDB2315678afecb367f032d93F642f64180aa39163efec2d5e9101611068565b6040516374e7db3960e11b81526044600482018190526001600160a01b0383166024830152600091735FbDB2315678afecb367f032d93F642f64180aa39163e9cfb6729101611068565b60405163226d6a0d60e21b815260446004820181905260248201839052600091735FbDB2315678afecb367f032d93F642f64180aa3916389b5a8349101611068565b6000805b828110156131915783838281811061310657613106615316565b905060400201602001602081019061311e91906147bb565b6001600160a01b031684848381811061313957613139615316565b9050604002016000013561314a3390565b6001600160a01b03167f1d31fe42f06d4c1f16f6cb7b5682f1d6743641a9e1412fa0258f6776c5b943ee60405160405180910390a4806131898161597a565b9150506130ec565b5060405163608f85ef60e01b8152739fE46736679d2D9a65F0992F2272dE9f3c7fa6e09063608f85ef9061112a9060449087908790600401615993565b60405163289ea12d60e11b8152604460048201819052602482018590526001600160a01b038416908201526001600160e01b031982166064820152600090735FbDB2315678afecb367f032d93F642f64180aa39063513d425a9060840161223b565b604051636861fc1160e01b8152604460048201819052602482018490526001600160a01b03831690820152600090739fE46736679d2D9a65F0992F2272dE9f3c7fa6e090636861fc119060640161112a565b60405163adfc581b60e01b81526044600482018190526024820184905281018290526000908190819073e7f1725E7734CE288F8367e1Bb143E90bb3F05129063adfc581b906064016040805180830381865af41580156132e6573d6000803e3d6000fd5b505050506040513d601f19601f8201168201806040525081019061330a9190615711565b91509150836133163390565b6001600160a01b0316867fa0eaa0025d4f12545803a03c369115c59f885df7b5fc07a6393438827dbf51b78460405161235791815260200190565b60405163cb3db3a360e01b815260446004820181905260248201849052810182905260009073Cf7Ed3AccA5a467e9e704C703E8D87F634fB0Fc99063cb3db3a39060640161112a565b6040516357dc938360e11b81526044600482018190526001600160a01b0383166024830152600091735FbDB2315678afecb367f032d93F642f64180aa39163afb927069101611068565b60006001600160a01b037f000000000000000000000000000000000000000000000000000000000000000016300361342e5760405162461bcd60e51b8152600401611791906153a8565b7f00000000000000000000000000000000000000000000000000000000000000006001600160a01b0316613460613c4c565b6001600160a01b0316146134865760405162461bcd60e51b8152600401611791906153d7565b600354600160a01b900460ff16156134b05760405162461bcd60e51b815260040161179190615405565b6134c063d9dc1f1960e01b613c6d565b61350c5760405162461bcd60e51b815260206004820152601760248201527f5365744c6f63616c41646d696e20466f7262696464656e0000000000000000006044820152606401611791565b6001600160a01b0382166135545760405162461bcd60e51b815260206004820152600f60248201526e1059191c995cdcc8125b9d985b1a59608a1b6044820152606401611791565b61355d82614285565b506001919050565b604051631912cf4360e01b815260446004820181905260248201849052810182905260009081908190739fE46736679d2D9a65F0992F2272dE9f3c7fa6e090631912cf43906064016040805180830381865af41580156135c9573d6000803e3d6000fd5b505050506040513d601f19601f820116820180604052508101906135ed9190615711565b9150915083856135fa3390565b6001600160a01b03167f970f60a11b3302f55122bdb3e2de766d28491b40fe0a2a6d04da71e5ab577cb98460405161235791815260200190565b604051634df89d6f60e01b815260446004820181905260248201839052600091735FbDB2315678afecb367f032d93F642f64180aa391634df89d6f9101611068565b6040516000906001600160a01b03831690849033907f1d31fe42f06d4c1f16f6cb7b5682f1d6743641a9e1412fa0258f6776c5b943ee908590a46040516391de53cf60e01b8152604460048201819052602482018590526001600160a01b03841690820152739fE46736679d2D9a65F0992F2272dE9f3c7fa6e0906391de53cf9060640161112a565b6040516384f27d3560e01b815260446004820181905260248201839052606091739fE46736679d2D9a65F0992F2272dE9f3c7fa6e0916384f27d359101600060405180830381865af4158015613759573d6000803e3d6000fd5b505050506040513d6000823e601f3d908101601f19168201604052610f469190810190615c38565b60405163580cea9d60e11b815260446004820181905260248201839052600091735FbDB2315678afecb367f032d93F642f64180aa39163b019d53a9101611068565b600080600073e7f1725E7734CE288F8367e1Bb143E90bb3F051263542a580860448a8a8a8a8a6040518763ffffffff1660e01b815260040161380a96959493929190615d15565b6040805180830381865af4158015613826573d6000803e3d6000fd5b505050506040513d601f19601f8201168201806040525081019061384a9190615dde565b91509150806001600160a01b0316826001600160a01b0316897f2acec3419c1d10dab06d0715f556e96b344f2092a52a23fb192b4b89f5b7cf42896040013560405161272991815260200190565b604051633f75a32d60e01b8152604460048201819052602482018490528215159082015260009081908190739fE46736679d2D9a65F0992F2272dE9f3c7fa6e090633f75a32d906064016040805180830381865af41580156138fe573d6000803e3d6000fd5b505050506040513d601f19601f820116820180604052508101906139229190615711565b91509150808561392f3390565b6001600160a01b03167faaf3a0e62c1102e283a5a18e81d678b9ce6f4f043cc7afafee4f7f82b85330a287604051612357911515815260200190565b60405163648e910b60e11b81526044600482018190526024820183905260609173Dc64a140Aa3E981100a9becA4E685f962f0cF6C99163c91d221691016112f1565b600080600073e7f1725E7734CE288F8367e1Bb143E90bb3F0512636da4c23c6044898989896040518663ffffffff1660e01b81526004016139f2959493929190615e0d565b6040805180830381865af4158015613a0e573d6000803e3d6000fd5b505050506040513d601f19601f82011682018060405250810190613a329190615e49565b90925090506001600160a01b038116613a5160808801606089016147bb565b6001600160a01b0316837f2a2b33fd7e66815f7a7bea7d796d5c587e39efd4b142c4a9ab63b8becc98feb433604080516001600160a01b039092168252808c013560208301520160405180910390a45095945050505050565b6000336001600160a01b0316837f552ce1fc1bc82a48cdc0636ff7162480d868c590f2e57c63c30a944f3a82ec3684604051613aea911515815260200190565b60405180910390a3604051632efee30760e21b8152604460048201819052602482018590528315159082015273Cf7Ed3AccA5a467e9e704C703E8D87F634fB0Fc99063bbfb8c1c9060640161112a565b60405163343f6e0960e11b815260446004820181905260248201849052810182905260009073Dc64a140Aa3E981100a9becA4E685f962f0cF6C99063687edc129060640161112a565b600061134560008054600154604080517f8b73c3c69bb8fe3d512ecc4cf759cc79239f7b179b0ffacaa9a75d522b39400f60208201529081019290925260608201524660808201523060a082015260c00160405160208183030381529060405280519060200120905090565b6000611345613ef0565b90565b60006001600160e01b031982166314751dbf60e01b1480613c2d57506001600160e01b031982166352d1902d60e01b145b80610f4657506301ffc9a760e01b6001600160e01b0319831614610f46565b6000600080516020615ee28339815191525b546001600160a01b0316919050565b6003546000906001600160a01b03163003613d5b5760006363d59cf360e11b613c9530614246565b3385604051602401613ca993929190615e6e565b60408051601f198184030181529190526020810180516001600160e01b03166001600160e01b03199093169290921790915290506000613d26613cea613c4c565b836040518060400160405280601d81526020017f44656c656761746563616c6c20686173416363657373204661696c65640000008152506142fc565b90508060018251613d379190615e97565b81518110613d4757613d47615316565b60209101015160f81c600114949350505050565b6003546001600160a01b031663c7ab39e6613d7530614246565b33856040518463ffffffff1660e01b8152600401613d9593929190615e6e565b602060405180830381865afa158015611085573d6000803e3d6000fd5b6003546000906001600160a01b03163003613e7a57600063e25d75f060e01b600254604051602401613de691815260200190565b60408051601f198184030181529190526020810180516001600160e01b03166001600160e01b03199093169290921790915290506000613e46613e27613c4c565b83604051806060016040528060258152602001615ebd602591396142fc565b90508060018251613e579190615e97565b81518110613e6757613e67615316565b60209101015160f81c6001149392505050565b600354600254604051630e25d75f60e41b81526001600160a01b039092169163e25d75f091613eaf9160040190815260200190565b602060405180830381865afa158015613ecc573d6000803e3d6000fd5b505050506040513d601f19601f8201168201806040525081019061134591906150e5565b60007fb53127684a568b3173ae13b9f8a6016e243e63b6e8ee1178d6a717850b5d6103613c5e565b613f268686868686866143c5565b505050505050565b613f36613c4c565b6001600160a01b0316816001600160a01b031603613f965760405162461bcd60e51b815260206004820152601a60248201527f496c6c6567616c204e657720496d706c656d656e746174696f6e0000000000006044820152606401611791565b613fa6637147855d60e01b613c6d565b613ff25760405162461bcd60e51b815260206004820152601960248201527f5570677261646520436f6e7465787420466f7262696464656e000000000000006044820152606401611791565b50565b60607f4910fdfa16fed3260ed0e7147f7cc6da11a60208b5b9406d12a635614ffd91435460ff161561403f5761402a846145d3565b5060408051600081526020810190915261101b565b836001600160a01b03166352d1902d6040518163ffffffff1660e01b8152600401602060405180830381865afa925050508015614099575060408051601f3d908101601f19168201909252614096918101906150b2565b60015b6140dd5760405162461bcd60e51b8152602060048201526015602482015274125b1b1959d85b0815555414c810dbdb9d1c9858dd605a1b6044820152606401611791565b600080516020615ee283398151915281146141325760405162461bcd60e51b8152602060048201526015602482015274125b9d985b1a590815555414c810dbdb9d1c9858dd605a1b6044820152606401611791565b506040516301ffc9a760e01b81526314751dbf60e01b60048201526001600160a01b038516906301ffc9a790602401602060405180830381865afa92505050801561419a575060408051601f3d908101601f19168201909252614197918101906150e5565b60015b6141e65760405162461bcd60e51b815260206004820152601760248201527f496c6c6567616c204950726f787920436f6e74726163740000000000000000006044820152606401611791565b806142335760405162461bcd60e51b815260206004820152601760248201527f496e76616c6964204950726f787920436f6e74726163740000000000000000006044820152606401611791565b5061423f848484614654565b905061101b565b6040516bffffffffffffffffffffffff19606083901b166020820152600090603401604051602081830303815290604052805190602001209050919050565b7fb53127684a568b3173ae13b9f8a6016e243e63b6e8ee1178d6a717850b5d610380546001600160a01b0383166001600160a01b031990911681179091556040805191825251309133917f54ab0d18de7958786ba1ad85966d59baa2b395455f0530dcdcfd732e6af539e29181900360200190a350565b60606001600160a01b0384163b6143505760405162461bcd60e51b8152602060048201526018602482015277496c6c6567616c20436f6e7472616374204164647265737360401b6044820152606401611791565b600080856001600160a01b03168560405161436b9190615eaa565b600060405180830381855af49150503d80600081146143a6576040519150601f19603f3d011682016040523d82523d6000602084013e6143ab565b606091505b50915091506143bb8282866146be565b9695505050505050565b60495462010000900460ff1661441d5760405162461bcd60e51b815260206004820152601960248201527f436f6e7472616374204e6f7420496e697469616c697a696e67000000000000006044820152606401611791565b858560405160200161443092919061549b565b60408051601f1981840301815290829052805160209182012060005561445a91869186910161549b565b60408051601f19818403018152919052805160209091012060015560028290556001600160a01b03811661449f57600380546001600160a01b031916301790556145bc565b6040516301ffc9a760e01b81526314b8343560e31b60048201526001600160a01b038216906301ffc9a790602401602060405180830381865afa925050508015614506575060408051601f3d908101601f19168201909252614503918101906150e5565b60015b6145525760405162461bcd60e51b815260206004820152601c60248201527f496c6c6567616c20416363657373436f6e74726f6c4d616e61676572000000006044820152606401611791565b8061459f5760405162461bcd60e51b815260206004820152601c60248201527f496e76616c696420416363657373436f6e74726f6c4d616e61676572000000006044820152606401611791565b50600380546001600160a01b0319166001600160a01b0383161790555b6003805461ffff60a01b19169055613f2633614285565b6001600160a01b0381163b6146255760405162461bcd60e51b8152602060048201526018602482015277496c6c6567616c20436f6e7472616374204164647265737360401b6044820152606401611791565b600080516020615ee283398151915280546001600160a01b0319166001600160a01b0392909216919091179055565b606061465f846146f7565b60008351118061466c5750815b156146a75761423f84846040518060400160405280601381526020017211195b1959d85d1958d85b1b0811985a5b1959606a1b8152506142fc565b505060408051600081526020810190915292915050565b606083156146cd57508161101b565b8251156146dd5782518084602001fd5b8160405162461bcd60e51b81526004016117919190614cf9565b614700816145d3565b6040516001600160a01b03821690309033907f354bd4b6eb65d64e6c79c53fa4f983a5e6bec4824ce4627c71be0b2722f4917e90600090a450565b6001600160e01b031981168114613ff257600080fd5b60006020828403121561476357600080fd5b813561101b8161473b565b60008060006060848603121561478357600080fd5b8335925060208401356147958161473b565b929592945050506040919091013590565b6001600160a01b0381168114613ff257600080fd5b6000602082840312156147cd57600080fd5b813561101b816147a6565b6000602082840312156147ea57600080fd5b5035919050565b6000806040838503121561480457600080fd5b8235915060208301356148168161473b565b809150509250929050565b6020808252825182820181905260009190848201906040850190845b818110156148635783516001600160e01b0319168352928401929184019160010161483d565b50909695505050505050565b6020808252825182820181905260009190848201906040850190845b818110156148635783518352928401929184019160010161488b565b60005b838110156148c25781810151838201526020016148aa565b50506000910152565b600081518084526148e38160208601602086016148a7565b601f01601f19169290920160200192915050565b60608152600061490a60608301866148cb565b931515602083015250901515604090910152919050565b6020808252825182820181905260009190848201906040850190845b818110156148635783516001600160a01b03168352928401929184019160010161493d565b60008083601f84011261497457600080fd5b5081356001600160401b0381111561498b57600080fd5b6020830191508360208285010111156149a357600080fd5b9250929050565b8015158114613ff257600080fd5b6000806000604084860312156149cd57600080fd5b83356001600160401b038111156149e357600080fd5b6149ef86828701614962565b9094509250506020840135614a03816149aa565b809150509250925092565b600060208284031215614a2057600080fd5b813561101b816149aa565b60008060008060608587031215614a4157600080fd5b84356001600160401b03811115614a5757600080fd5b614a6387828801614962565b9095509350506020850135614a77816149aa565b91506040850135614a87816149aa565b939692955090935050565b60008060008060008060006080888a031215614aad57600080fd5b87356001600160401b0380821115614ac457600080fd5b614ad08b838c01614962565b909950975060208a0135915080821115614ae957600080fd5b614af58b838c01614962565b909750955060408a0135915080821115614b0e57600080fd5b50614b1b8a828b01614962565b9094509250506060880135614b2f816147a6565b8091505092959891949750929550565b604081526000614b5260408301856148cb565b905082151560208301529392505050565b600080600060608486031215614b7857600080fd5b83359250602084013591506040840135614a038161473b565b60008060408385031215614ba457600080fd5b823591506020830135614816816149aa565b634e487b7160e01b600052604160045260246000fd5b604051606081016001600160401b0381118282101715614bee57614bee614bb6565b60405290565b604051601f8201601f191681016001600160401b0381118282101715614c1c57614c1c614bb6565b604052919050565b60006001600160401b03821115614c3d57614c3d614bb6565b50601f01601f191660200190565b600082601f830112614c5c57600080fd5b8135614c6f614c6a82614c24565b614bf4565b818152846020838601011115614c8457600080fd5b816020850160208301376000918101602001919091529392505050565b600080600060608486031215614cb657600080fd5b8335614cc1816147a6565b925060208401356001600160401b03811115614cdc57600080fd5b614ce886828701614c4b565b9250506040840135614a03816149aa565b60208152600061101b60208301846148cb565b60008083601f840112614d1e57600080fd5b5081356001600160401b03811115614d3557600080fd5b6020830191508360208260051b85010111156149a357600080fd5b600080600080848603610120811215614d6857600080fd5b85356001600160401b0380821115614d7f57600080fd5b614d8b89838a01614c4b565b965060e0601f1984011215614d9f57600080fd5b602088019550610100880135925080831115614dba57600080fd5b5050614dc887828801614d0c565b95989497509550505050565b60008060408385031215614de757600080fd5b823591506020830135614816816147a6565b60008060208385031215614e0c57600080fd5b82356001600160401b0380821115614e2357600080fd5b818501915085601f830112614e3757600080fd5b813581811115614e4657600080fd5b8660208260061b8501011115614e5b57600080fd5b60209290920196919550909350505050565b60008060208385031215614e8057600080fd5b82356001600160401b03811115614e9657600080fd5b614ea285828601614d0c565b90969095509350505050565b60008060008060608587031215614ec457600080fd5b84356001600160401b03811115614eda57600080fd5b614ee687828801614962565b909550935050602085013591506040850135614a87816149aa565b606081526000614f1460608301866148cb565b602083019490945250901515604090910152919050565b600080600060608486031215614f4057600080fd5b833592506020840135614f52816147a6565b91506040840135614a038161473b565b60008060408385031215614f7557600080fd5b50508035926020909101359150565b600060a08284031215614f9657600080fd5b50919050565b60008060008060006101008688031215614fb557600080fd5b8535945060208601356001600160401b0380821115614fd357600080fd5b614fdf89838a01614c4b565b9550614fee8960408a01614f84565b945060e088013591508082111561500457600080fd5b5061501188828901614d0c565b969995985093965092949392505050565b60008060008060e0858703121561503857600080fd5b84356001600160401b038082111561504f57600080fd5b61505b88838901614c4b565b955061506a8860208901614f84565b945060c087013591508082111561508057600080fd5b50614dc887828801614d0c565b93845260208401929092526001600160e01b0319166040830152606082015260800190565b6000602082840312156150c457600080fd5b5051919050565b6001600160e01b0319929092168252602082015260400190565b6000602082840312156150f757600080fd5b815161101b816149aa565b92835260208301919091526001600160e01b031916604082015260600190565b60006001600160401b0382111561513b5761513b614bb6565b5060051b60200190565b600082601f83011261515657600080fd5b81516020615166614c6a83615122565b82815260059290921b8401810191818101908684111561518557600080fd5b8286015b848110156151a957805161519c8161473b565b8352918301918301615189565b509695505050505050565b6000602082840312156151c657600080fd5b81516001600160401b038111156151dc57600080fd5b61227c84828501615145565b600060208083850312156151fb57600080fd5b82516001600160401b0381111561521157600080fd5b8301601f8101851361522257600080fd5b8051615230614c6a82615122565b81815260059190911b8201830190838101908783111561524f57600080fd5b928401925b8284101561526d57835182529284019290840190615254565b979650505050505050565b600082601f83011261528957600080fd5b8151615297614c6a82614c24565b8181528460208386010111156152ac57600080fd5b61227c8260208301602087016148a7565b6000806000606084860312156152d257600080fd5b83516001600160401b038111156152e857600080fd5b6152f486828701615278565b9350506020840151615305816149aa565b6040850151909250614a03816149aa565b634e487b7160e01b600052603260045260246000fd5b81835281816020850137506000828201602090810191909152601f909101601f19169091010190565b84815260606020820152600061536f60608301858761532c565b9050821515604083015295945050505050565b60408152600061539660408301858761532c565b90508215156020830152949350505050565b602080825260159082015274125b1b1959d85b0810dbdb9d1c9858dd0810d85b1b605a1b604082015260600190565b602080825260149082015273141c9bde1e4810d85b1b195908125b9d985b1a5960621b604082015260600190565b60208082526017908201527f536166654d6f64653a2043616c6c2052656a6563746564000000000000000000604082015260600190565b85815260806020820152600061545660808301868861532c565b9315156040830152509015156060909101529392505050565b60608152600061548360608301868861532c565b93151560208301525090151560409091015292915050565b8183823760009101908152919050565b600060208083850312156154be57600080fd5b82516001600160401b03808211156154d557600080fd5b818501915085601f8301126154e957600080fd5b81516154f7614c6a82615122565b81815260059190911b8301840190848101908883111561551657600080fd5b8585015b838110156155a1578051858111156155325760008081fd5b86016060818c03601f190181131561554a5760008081fd5b615552614bcc565b8983015181526040808401518981111561556c5760008081fd5b61557a8f8d83880101615145565b838d015250928201519261558d846149aa565b81019290925250835291860191860161551a565b5098975050505050505050565b60006080808301878452602060018060a01b03881681860152604087818701526060848188015283885180865260a08901915060a08160051b8a01019550848a016000805b83811015615672578b8903609f19018552825180518a5288810151898b018890528051888c01819052908a019084908d8d01905b808310156156515783516001600160e01b0319168252928c019260019290920191908c0190615627565b50928a015115159b8a019b909b5250985093870193918701916001016155f3565b50969e9d5050505050505050505050505050565b60808152600061569a60808301888a61532c565b82810360208401526156ad81878961532c565b91505083604083015261ffff83166060830152979650505050505050565b600080604083850312156156de57600080fd5b82516001600160401b038111156156f457600080fd5b61570085828601615278565b9250506020830151614816816149aa565b6000806040838503121561572457600080fd5b825161572f816149aa565b6020939093015192949293505050565b6000808335601e1984360301811261575657600080fd5b83016020810192503590506001600160401b0381111561577557600080fd5b8060051b36038213156149a357600080fd5b8183526000602080850194508260005b858110156157c65781356157aa8161473b565b6001600160e01b03191687529582019590820190600101615797565b509495945050505050565b60008235605e198336030181126157e757600080fd5b90910192915050565b81835260006020808501808196508560051b810191508460005b8781101561587557828403895261582182886157d1565b6060813586526158338783018361573f565b82898901526158458389018284615787565b92505050604080830135925061585a836149aa565b9115159590910194909452978401979084019060010161580a565b5091979650505050505050565b600061014087835280602084015261589c818401886148cb565b9050853560408401526020860135606084015260408601356080840152606086013560a084015260808601356158d1816147a6565b6001600160a01b0390811660c085015260a0870135906158f0826147a6565b1660e084015260c0860135615904816149aa565b15156101008401528281036101208401526159208185876157f0565b98975050505050505050565b60008060006060848603121561594157600080fd5b835161594c816147a6565b602085015160408601519194509250614a03816147a6565b634e487b7160e01b600052601160045260246000fd5b60006001820161598c5761598c615964565b5060010190565b8381526040602080830182905282820184905260009190859060608501845b878110156155a15783358252828401356159cb816147a6565b6001600160a01b03168284015292840192908401906001016159b2565b600060408083018684526020828186015281868352606092508286019050828760051b8701018860005b89811015615aaf57888303605f19018452615a2d828c6157d1565b8035845285810135601e19823603018112615a4757600080fd5b810186810190356001600160401b03811115615a6257600080fd5b803603821315615a7157600080fd5b8888870152615a83898701828461532c565b915050888201359150615a95826149aa565b901515938801939093529284019290840190600101615a12565b50909a9950505050505050505050565b60008235605e19833603018112615ad557600080fd5b9190910192915050565b6000808335601e19843603018112615af657600080fd5b8301803591506001600160401b03821115615b1057600080fd5b6020019150368190038213156149a357600080fd5b600060c08284031215615b3757600080fd5b60405160c081018181106001600160401b0382111715615b5957615b59614bb6565b80604052508251815260208301516020820152604083015160408201526060830151615b84816147a6565b60608201526080830151615b97816149aa565b608082015260a0830151615baa816149aa565b60a08201529392505050565b858152608060208201526000615bd060808301868861532c565b6040830194909452509015156060909101529392505050565b600080600060608486031215615bfe57600080fd5b83516001600160401b03811115615c1457600080fd5b615c2086828701615278565b935050602084015191506040840151614a03816149aa565b60006020808385031215615c4b57600080fd5b82516001600160401b03811115615c6157600080fd5b8301601f81018513615c7257600080fd5b8051615c80614c6a82615122565b81815260059190911b82018301908381019087831115615c9f57600080fd5b928401925b8284101561526d578351615cb7816147a6565b82529284019290840190615ca4565b8035825260208101356020830152604081013560408301526060810135615cec816147a6565b6001600160a01b031660608301526080810135615d08816149aa565b8015156080840152505050565b60006101208883526020888185015260408281860152615d378386018a6148cb565b92506060615d478187018a615cc6565b858403610100870152868452828401600588901b85018401896000805b8b811015615dc957888403601f19018552615d7f838e6157d1565b80358552615d8f8982018261573f565b888b880152615da18988018284615787565b928a01359291505060038210615db5578384fd5b948801529387019391870191600101615d64565b50919f9e505050505050505050505050505050565b60008060408385031215615df157600080fd5b8251615dfc816147a6565b6020840151909250614816816147a6565b6000610100878352806020840152615e27818401886148cb565b9050615e366040840187615cc6565b82810360e08401526159208185876157f0565b60008060408385031215615e5c57600080fd5b825191506020830151614816816147a6565b9283526001600160a01b039190911660208301526001600160e01b031916604082015260600190565b81810381811115610f4657610f46615964565b60008251615ad58184602087016148a756fe44656c656761746563616c6c2069735265616c6d55706772616461626c65204661696c6564360894a13ba1a3210667c828492db98dca3e2076cc3735a920a3ca505d382bbca26469706673582212200b2d9232027f90f5f141cadc4db6f782e61973031e7d2fe1e1184def539d87ef64736f6c63430008110033b53127684a568b3173ae13b9f8a6016e243e63b6e8ee1178d6a717850b5d6103",
  "deployedBytecode": "0x60806040526004361061043c5760003560e01c80638f09e0f011610232578063c7ab39e61161012d578063e1ed0a82116100b0578063f1df49da11610077578063f1df49da14610e2b578063f2c673bd14610e4b578063f5122c9214610e6b578063f698da2514610e8b578063f94a0adb14610ea057005b8063e1ed0a8214610d8b578063e25d75f014610dab578063e65be46814610dcb578063e71e224e14610deb578063edf1d1cb14610e0b57005b8063d9d34bf8116100f4578063d9d34bf814610ceb578063d9dc1f1914610d0b578063dbf304b014610d2b578063dc853dd014610d4b578063df01de4514610d6b57005b8063c7ab39e614610c56578063c7ea945c14610c76578063d338640114610c96578063d3e024b814610cb6578063d9aba36e14610ccb57005b8063b4a0bdf3116101b5578063be409a111161017c578063be409a1114610ba7578063be409b5714610bd6578063c34aa02114610bf6578063c48e7ae614610c16578063c557020a14610c3657005b8063b4a0bdf314610b0a578063b4c4b58f14610b28578063b58966de14610b48578063b6c03f0314610b68578063be22465d14610b8857005b80639ebf6246116101f95780639ebf624614610a21578063a0a8e46014610a95578063a32ce13d14610aaa578063a92f69c114610aca578063b2dc26e514610aea57005b80638f09e0f01461098157806391690955146109a157806393ba3131146109c157806394cfd6e3146109e15780639e3a2cea14610a0157005b80634944f532116103425780636b3b0159116102c5578063771bcf451161028c578063771bcf45146108ec5780637b4433791461090c578063870666cb1461092c5780638b7dbd6c146109415780638e7038261461096157005b80636b3b01591461084a57806370420ee31461086a5780637147855d1461088a578063756af45f146108b757806375d0c0dc146108d757005b80635479d940116103095780635479d9401461079057806358dbc45d146107af5780635bdaecce146107dc5780635c6d8da1146107fc5780636b2b7dd81461081c57005b80634944f532146106fb5780634bb1be8c1461071b5780634dc13c8f1461073b57806351e70bb01461075b57806352d1902d1461077b57005b806337bfbfe8116103ca5780634156567311610391578063415656731461065b5780634346a04b1461067b57806344b7e5f21461069b57806345b5203c146106bb57806348e6be1c146106db57005b806337bfbfe81461058757806338d38c97146105b45780633c7d5b25146105dc5780633e02bc381461060b5780633f4c99b81461062d57005b806311b529b31161040e57806311b529b3146104da5780631846d125146104fa5780632e2adf001461051a5780632f032edd146105475780633228144d1461056757005b806301ffc9a714610445578063031c04931461047a578063076a6f221461049a578063101df54d146104ba57005b3661044357005b005b34801561045157600080fd5b50610465610460366004614751565b610eb5565b60405190151581526020015b60405180910390f35b34801561048657600080fd5b5061046561049536600461476e565b610f4c565b3480156104a657600080fd5b506104656104b53660046147bb565b611022565b3480156104c657600080fd5b506104656104d53660046147d8565b6110a9565b3480156104e657600080fd5b506104656104f53660046147f1565b6110eb565b34801561050657600080fd5b506104656105153660046147d8565b61116b565b34801561052657600080fd5b5061053a6105353660046147d8565b6111ad565b6040516104719190614821565b34801561055357600080fd5b506104656105623660046147d8565b61122f565b34801561057357600080fd5b506104656105823660046147d8565b611271565b34801561059357600080fd5b506105a76105a23660046147d8565b6112b3565b604051610471919061486f565b3480156105c057600080fd5b506105c9611336565b60405161ffff9091168152602001610471565b3480156105e857600080fd5b506105fc6105f73660046147d8565b61134a565b604051610471939291906148f7565b34801561061757600080fd5b506106206113de565b6040516104719190614921565b34801561063957600080fd5b5061064d6106483660046149b8565b61156a565b604051908152602001610471565b34801561066757600080fd5b506104656106763660046147bb565b61163c565b34801561068757600080fd5b5061046561069636600461476e565b611686565b3480156106a757600080fd5b506104656106b6366004614a0e565b611747565b3480156106c757600080fd5b506104656106d63660046147d8565b61190a565b3480156106e757600080fd5b506104656106f6366004614a0e565b61194c565b34801561070757600080fd5b506104656107163660046147d8565b611b20565b34801561072757600080fd5b5061064d610736366004614a2b565b611b62565b34801561074757600080fd5b506104656107563660046147d8565b611c39565b34801561076757600080fd5b506104656107763660046147d8565b611c7b565b34801561078757600080fd5b5061064d611cbd565b34801561079c57600080fd5b50600354600160a81b900460ff16610465565b3480156107bb57600080fd5b506107c4611d4a565b6040516001600160a01b039091168152602001610471565b3480156107e857600080fd5b506104656107f73660046147d8565b611d54565b34801561080857600080fd5b50610443610817366004614a92565b611d96565b34801561082857600080fd5b5061083c6108373660046147d8565b612158565b604051610471929190614b3f565b34801561085657600080fd5b50610465610865366004614b63565b6121e6565b34801561087657600080fd5b50610465610885366004614b91565b612284565b34801561089657600080fd5b506108aa6108a5366004614ca1565b612367565b6040516104719190614cf9565b3480156108c357600080fd5b506104436108d23660046147bb565b612498565b3480156108e357600080fd5b5060005461064d565b3480156108f857600080fd5b5061046561090736600461476e565b612557565b34801561091857600080fd5b5061064d610927366004614d50565b612618565b34801561093857600080fd5b5061064d61273c565b34801561094d57600080fd5b5061046561095c366004614b91565b612747565b34801561096d57600080fd5b5061046561097c3660046147d8565b6127d5565b34801561098d57600080fd5b5061046561099c366004614dd4565b612817565b3480156109ad57600080fd5b506104656109bc3660046147d8565b6128a0565b3480156109cd57600080fd5b506104656109dc366004614df9565b6128e2565b3480156109ed57600080fd5b506104656109fc3660046147d8565b6129c8565b348015610a0d57600080fd5b506105a7610a1c366004614e6d565b612a0a565b348015610a2d57600080fd5b50610a41610a3c3660046147d8565b612bbb565b60405161047191908151815260208083015190820152604080830151908201526060808301516001600160a01b03169082015260808083015115159082015260a09182015115159181019190915260c00190565b348015610aa157600080fd5b5060015461064d565b348015610ab657600080fd5b50610465610ac53660046147d8565b612c64565b348015610ad657600080fd5b50610465610ae53660046147bb565b612ca6565b348015610af657600080fd5b5061064d610b05366004614eae565b612cf0565b348015610b1657600080fd5b506003546001600160a01b03166107c4565b348015610b3457600080fd5b50610465610b433660046147f1565b612dec565b348015610b5457600080fd5b50610465610b633660046147f1565b612e2b565b348015610b7457600080fd5b50610465610b83366004614b91565b612efb565b348015610b9457600080fd5b50600354600160a01b900460ff16610465565b348015610bb357600080fd5b50610bc7610bc23660046147d8565b612f8b565b60405161047193929190614f01565b348015610be257600080fd5b50610465610bf13660046147bb565b613012565b348015610c0257600080fd5b50610465610c113660046147bb565b61305c565b348015610c2257600080fd5b50610465610c313660046147d8565b6130a6565b348015610c4257600080fd5b50610465610c51366004614df9565b6130e8565b348015610c6257600080fd5b50610465610c71366004614f2b565b6131ce565b348015610c8257600080fd5b50610465610c91366004614dd4565b613230565b348015610ca257600080fd5b50610465610cb1366004614f62565b613282565b348015610cc257600080fd5b5060025461064d565b348015610cd757600080fd5b50610465610ce6366004614f62565b613351565b348015610cf757600080fd5b50610465610d063660046147bb565b61339a565b348015610d1757600080fd5b50610465610d263660046147bb565b6133e4565b348015610d3757600080fd5b50610465610d46366004614f62565b613565565b348015610d5757600080fd5b50610465610d663660046147d8565b613634565b348015610d7757600080fd5b50610465610d86366004614dd4565b613676565b348015610d9757600080fd5b50610620610da63660046147d8565b6136ff565b348015610db757600080fd5b50610465610dc63660046147d8565b613781565b348015610dd757600080fd5b506107c4610de6366004614f9c565b6137c3565b348015610df757600080fd5b50610465610e06366004614b91565b613898565b348015610e1757600080fd5b506105a7610e263660046147d8565b61396b565b348015610e3757600080fd5b5061064d610e46366004615022565b6139ad565b348015610e5757600080fd5b50610465610e66366004614b91565b613aaa565b348015610e7757600080fd5b50610465610e86366004614f62565b613b3a565b348015610e9757600080fd5b5061064d613b83565b348015610eac57600080fd5b506107c4613bef565b60006001600160e01b031982166314b8343560e31b1480610ee657506001600160e01b031982166396dc457560e01b145b80610f0157506001600160e01b031982166308ea925b60e41b145b80610f1c57506001600160e01b03198216637d22131d60e11b145b80610f3757506001600160e01b031982166370319bff60e11b145b80610f465750610f4682613bfc565b92915050565b60008073__$122c978fc1a65ab69c7a0ac6b07fd0b0cd$__63a234dae360448787876040518563ffffffff1660e01b8152600401610f8d949392919061508d565b602060405180830381865af4158015610faa573d6000803e3d6000fd5b505050506040513d601f19601f82011682018060405250810190610fce91906150b2565b9050336001600160a01b031683867fce5e1f2ba33f195f748a93b00ee62600b55e27cc50531a72e5443713bac23e12878560405161100d9291906150cb565b60405180910390a460019150505b9392505050565b604051630b71751360e31b81526044600482018190526001600160a01b038316602483015260009173__$c43b1d7058274a71a9734d16e6b6586431$__91635b8ba89891015b602060405180830381865af4158015611085573d6000803e3d6000fd5b505050506040513d601f19601f82011682018060405250810190610f4691906150e5565b6040516316b714ad60e01b81526044600482018190526024820183905260009173__$c43b1d7058274a71a9734d16e6b6586431$__916316b714ad9101611068565b6040516374cda89d60e11b815260009073__$c43b1d7058274a71a9734d16e6b6586431$__9063e99b513a9061112a9060449087908790600401615102565b602060405180830381865af4158015611147573d6000803e3d6000fd5b505050506040513d601f19601f8201168201806040525081019061101b91906150e5565b60405163198d864d60e31b81526044600482018190526024820183905260009173__$c43b1d7058274a71a9734d16e6b6586431$__9163cc6c32689101611068565b6040516333669f8360e11b81526044600482018190526024820183905260609173__$122c978fc1a65ab69c7a0ac6b07fd0b0cd$__916366cd3f069101600060405180830381865af4158015611207573d6000803e3d6000fd5b505050506040513d6000823e601f3d908101601f19168201604052610f4691908101906151b4565b60405163cb4a1bb760e01b81526044600482018190526024820183905260009173__$c43b1d7058274a71a9734d16e6b6586431$__9163cb4a1bb79101611068565b604051635a96334b60e01b81526044600482018190526024820183905260009173__$c43b1d7058274a71a9734d16e6b6586431$__91635a96334b9101611068565b604051635ed86fc960e01b81526044600482018190526024820183905260609173__$bc3cfbaf1827cbc66e3e608da812a405b7$__91635ed86fc991015b600060405180830381865af415801561130e573d6000803e3d6000fd5b505050506040513d6000823e601f3d908101601f19168201604052610f4691908101906151e8565b600061134560495461ffff1690565b905090565b6040516302946a5960e61b815260446004820181905260248201839052606091600091829173__$bc3cfbaf1827cbc66e3e608da812a405b7$__9163a51a96409101600060405180830381865af41580156113a9573d6000803e3d6000fd5b505050506040513d6000823e601f3d908101601f191682016040526113d191908101906152bd565b9250925092509193909250565b60408051600580825260c08201909252606091600091906020820160a08036833701905050905073__$c43b1d7058274a71a9734d16e6b6586431$__8160008151811061142d5761142d615316565b60200260200101906001600160a01b031690816001600160a01b03168152505073__$122c978fc1a65ab69c7a0ac6b07fd0b0cd$__8160018151811061147557611475615316565b60200260200101906001600160a01b031690816001600160a01b03168152505073__$bc3cfbaf1827cbc66e3e608da812a405b7$__816002815181106114bd576114bd615316565b60200260200101906001600160a01b031690816001600160a01b03168152505073__$340101a45712d3611711048793ce62ace0$__8160038151811061150557611505615316565b60200260200101906001600160a01b031690816001600160a01b03168152505073__$6309dd7d2656d358c392b35d5c4e4605f9$__8160048151811061154d5761154d615316565b6001600160a01b0390921660209283029190910190910152919050565b60008073__$6309dd7d2656d358c392b35d5c4e4605f9$__63c3db069f60448787876040518563ffffffff1660e01b81526004016115ab9493929190615355565b602060405180830381865af41580156115c8573d6000803e3d6000fd5b505050506040513d601f19601f820116820180604052508101906115ec91906150b2565b9050336001600160a01b0316817fde3bd866160a7f983f3c5f990127712936d37378d60b93ba96ab3a66a04feb1887878760405161162c93929190615382565b60405180910390a3949350505050565b60405163066f9a3160e31b81526044600482018190526001600160a01b038316602483015260009173__$c43b1d7058274a71a9734d16e6b6586431$__9163337cd1889101611068565b60008073__$122c978fc1a65ab69c7a0ac6b07fd0b0cd$__63ef20d55d60448787876040518563ffffffff1660e01b81526004016116c7949392919061508d565b602060405180830381865af41580156116e4573d6000803e3d6000fd5b505050506040513d601f19601f8201168201806040525081019061170891906150b2565b9050336001600160a01b031683867f888ebbee43b69c568a7ef10a18f4afb4a0452ed2cfec2dde7a3d37b7e5ef87a3878560405161100d9291906150cb565b60006001600160a01b037f000000000000000000000000000000000000000000000000000000000000000016300361179a5760405162461bcd60e51b8152600401611791906153a8565b60405180910390fd5b7f00000000000000000000000000000000000000000000000000000000000000006001600160a01b03166117cc613c4c565b6001600160a01b0316146117f25760405162461bcd60e51b8152600401611791906153d7565b600061180160495461ffff1690565b61ffff16116118525760405162461bcd60e51b815260206004820152601860248201527f436f6e7472616374204e6f7420496e697469616c697a656400000000000000006044820152606401611791565b61186263225bf2f960e11b613c6d565b6118a65760405162461bcd60e51b815260206004820152601560248201527429b2ba29b0b332a6b7b232902337b93134b23232b760591b6044820152606401611791565b6003805460ff60a01b1916600160a01b8415150217905560025430336001600160a01b03167fdd452a31d2e164a1ea436c084842c27d24ae2548a575a869f71b05a4ed16243f856040516118fe911515815260200190565b60405180910390a45090565b60405163037f4c9360e41b81526044600482018190526024820183905260009173__$c43b1d7058274a71a9734d16e6b6586431$__916337f4c9309101611068565b60006001600160a01b037f00000000000000000000000000000000000000000000000000000000000000001630036119965760405162461bcd60e51b8152600401611791906153a8565b7f00000000000000000000000000000000000000000000000000000000000000006001600160a01b03166119c8613c4c565b6001600160a01b0316146119ee5760405162461bcd60e51b8152600401611791906153d7565b600354600160a01b900460ff1615611a185760405162461bcd60e51b815260040161179190615405565b611a28631239af8760e21b613c6d565b611a745760405162461bcd60e51b815260206004820152601a60248201527f5365745570677261646553746174757320466f7262696464656e0000000000006044820152606401611791565b611a7c613db2565b611ac85760405162461bcd60e51b815260206004820152601760248201527f5265616c6d205570677261646520466f7262696464656e0000000000000000006044820152606401611791565b6003805460ff60a81b1916600160a81b8415150217905560025430336001600160a01b03167fe9f97ad94c2ba252dcfc525e004f608ac5cb886955d8fc87d9e0ee070a698c56856040516118fe911515815260200190565b6040516352f8f17f60e11b81526044600482018190526024820183905260009173__$c43b1d7058274a71a9734d16e6b6586431$__9163a5f1e2fe9101611068565b60008073__$bc3cfbaf1827cbc66e3e608da812a405b7$__639b214b706044888888886040518663ffffffff1660e01b8152600401611ba595949392919061543c565b602060405180830381865af4158015611bc2573d6000803e3d6000fd5b505050506040513d601f19601f82011682018060405250810190611be691906150b2565b9050336001600160a01b0316817f5a8acbe7e0fa397d934e9aafb8fb1a483627af9e9b4690f4488d740b669f8b4788888888604051611c28949392919061546f565b60405180910390a395945050505050565b60405163784c277360e11b81526044600482018190526024820183905260009173__$c43b1d7058274a71a9734d16e6b6586431$__9163f0984ee69101611068565b60405163302a328360e21b81526044600482018190526024820183905260009173__$c43b1d7058274a71a9734d16e6b6586431$__9163c0a8ca0c9101611068565b6000306001600160a01b037f00000000000000000000000000000000000000000000000000000000000000001614611d375760405162461bcd60e51b815260206004820152601d60248201527f496c6c6567616c20436f6e74726163742044656c656761746563616c6c0000006044820152606401611791565b50600080516020615ee283398151915290565b6000611345613c4c565b604051636787ad5160e01b81526044600482018190526024820183905260009173__$c43b1d7058274a71a9734d16e6b6586431$__91636787ad519101611068565b6001600160a01b037f0000000000000000000000000000000000000000000000000000000000000000163003611dde5760405162461bcd60e51b8152600401611791906153a8565b7f00000000000000000000000000000000000000000000000000000000000000006001600160a01b0316611e10613c4c565b6001600160a01b031614611e365760405162461bcd60e51b8152600401611791906153d7565b33611e3f613ef0565b6001600160a01b031614611e8d5760405162461bcd60e51b815260206004820152601560248201527410d85b1b195c88139bdd08105d5d1a1bdc9a5e9959605a1b6044820152606401611791565b60495462010000900460ff1615808015611eaf5750604954600161ffff909116105b80611eca5750303b158015611eca575060495461ffff166001145b611f165760405162461bcd60e51b815260206004820152601c60248201527f436f6e747261637420416c726561647920496e697469616c697a6564000000006044820152606401611791565b6049805461ffff191660011790558015611f3c576049805462ff00001916620100001790555b60008484604051602001611f5192919061549b565b60408051808303601f190181529082905280516020909101206313f4f37f60e31b825260446004830152915073__$c43b1d7058274a71a9734d16e6b6586431$__90639fa79bf89060240160006040518083038186803b158015611fb457600080fd5b505af4158015611fc8573d6000803e3d6000fd5b50505050611fda898989898588613f18565b600073__$c43b1d7058274a71a9734d16e6b6586431$__6362f3c2d46040518163ffffffff1660e01b8152600401600060405180830381865af4158015612025573d6000803e3d6000fd5b505050506040513d6000823e601f3d908101601f1916820160405261204d91908101906154ab565b604051630a64c0bb60e41b815290915073__$122c978fc1a65ab69c7a0ac6b07fd0b0cd$__9063a64c0bb09061208e906044903090879087906004016155ae565b602060405180830381865af41580156120ab573d6000803e3d6000fd5b505050506040513d601f19601f820116820180604052508101906120cf91906150b2565b506120d8613c4c565b6001600160a01b031630336001600160a01b03167ff851a1e85477b818fc72ad517ea622cc316f10f67d61c9e740adc151a8b413948d8d8d8d8961211f60495461ffff1690565b60405161213196959493929190615686565b60405180910390a45050801561214e576049805462ff0000191690555b5050505050505050565b60405163097f7f8760e01b81526044600482018190526024820183905260609160009173__$6309dd7d2656d358c392b35d5c4e4605f9$__9163097f7f879101600060405180830381865af41580156121b5573d6000803e3d6000fd5b505050506040513d6000823e601f3d908101601f191682016040526121dd91908101906156cb565b91509150915091565b60405163214cdddf60e21b81526044600482018190526024820185905281018390526001600160e01b03198216606482015260009073__$122c978fc1a65ab69c7a0ac6b07fd0b0cd$__90638533777c906084015b602060405180830381865af4158015612258573d6000803e3d6000fd5b505050506040513d601f19601f8201168201806040525081019061227c91906150e5565b949350505050565b6040516375e6430f60e11b815260446004820181905260248201849052821515908201526000908190819073__$122c978fc1a65ab69c7a0ac6b07fd0b0cd$__9063ebcc861e906064016040805180830381865af41580156122ea573d6000803e3d6000fd5b505050506040513d601f19601f8201168201806040525081019061230e9190615711565b915091508061231a3390565b6001600160a01b0316867f354501e3216e5f916d4d35ef255a577d106a7eab306488227783a837dc042a4e87604051612357911515815260200190565b60405180910390a4509392505050565b60606001600160a01b037f00000000000000000000000000000000000000000000000000000000000000001630036123b15760405162461bcd60e51b8152600401611791906153a8565b7f00000000000000000000000000000000000000000000000000000000000000006001600160a01b03166123e3613c4c565b6001600160a01b0316146124095760405162461bcd60e51b8152600401611791906153d7565b600354600160a01b900460ff16156124335760405162461bcd60e51b815260040161179190615405565b600354600160a81b900460ff166124845760405162461bcd60e51b8152602060048201526015602482015274155c19dc9859194810d85b1b0814995a9958dd1959605a1b6044820152606401611791565b61248d84613f2e565b61227c848484613ff5565b600354600160a01b900460ff16156124c25760405162461bcd60e51b815260040161179190615405565b6124d263756af45f60e01b613c6d565b61251e5760405162461bcd60e51b815260206004820152601a60248201527f57697468647261772042616c616e636520466f7262696464656e0000000000006044820152606401611791565b6040516001600160a01b038216904780156108fc02916000818181858888f19350505050158015612553573d6000803e3d6000fd5b5050565b60008073__$122c978fc1a65ab69c7a0ac6b07fd0b0cd$__6376fd3e8260448787876040518563ffffffff1660e01b8152600401612598949392919061508d565b602060405180830381865af41580156125b5573d6000803e3d6000fd5b505050506040513d601f19601f820116820180604052508101906125d991906150b2565b9050336001600160a01b031683867fea00ff399a342f54b82233841f91faa5677300e901667e010e9f22aea1ae5931878560405161100d9291906150cb565b60008060008073__$122c978fc1a65ab69c7a0ac6b07fd0b0cd$__630ec7ee0e60448a8a8a8a6040518663ffffffff1660e01b815260040161265e959493929190615882565b606060405180830381865af415801561267b573d6000803e3d6000fd5b505050506040513d601f19601f8201168201806040525081019061269f919061592c565b9250925092506126ac3390565b6001600160a01b03908116908416837fcc1b95900c3e2c3876e4b29283de90ac446bd6049a0df525d14a8c07d36ae70c846126ed60c08d0160a08e016147bb565b6126fd60a08e0160808f016147bb565b604080516001600160a01b0394851681529284166020840152921681830152908c013560608201526080015b60405180910390a4509695505050505050565b600061134530614246565b6000336001600160a01b0316837ffe1617b569bd167ab40b31e034f68e32656219dbe4ab9469a00660550fec72c884604051612787911515815260200190565b60405180910390a3604051625d742f60e01b8152604460048201819052602482018590528315159082015273__$bc3cfbaf1827cbc66e3e608da812a405b7$__90625d742f9060640161112a565b60405163087d8e2b60e41b81526044600482018190526024820183905260009173__$c43b1d7058274a71a9734d16e6b6586431$__916387d8e2b09101611068565b6040516000906001600160a01b03831690849033907fd992f85df7a0be47c44b0be141be17eefd360033a4ce05b5458fba27b7781999908590a460405163424afd2b60e11b8152604460048201819052602482018590526001600160a01b0384169082015273__$340101a45712d3611711048793ce62ace0$__90638495fa569060640161112a565b604051630c59f43160e21b81526044600482018190526024820183905260009173__$c43b1d7058274a71a9734d16e6b6586431$__91633167d0c49101611068565b6000805b8281101561298b5783838281811061290057612900615316565b905060400201602001602081019061291891906147bb565b6001600160a01b031684848381811061293357612933615316565b905060400201600001356129443390565b6001600160a01b03167fd992f85df7a0be47c44b0be141be17eefd360033a4ce05b5458fba27b778199960405160405180910390a4806129838161597a565b9150506128e6565b50604051630803bd0960e41b815273__$340101a45712d3611711048793ce62ace0$__9063803bd0909061112a9060449087908790600401615993565b604051636cc77b1160e11b81526044600482018190526024820183905260009173__$c43b1d7058274a71a9734d16e6b6586431$__9163d98ef6229101611068565b6060600073__$340101a45712d3611711048793ce62ace0$__6368b38e0f604486866040518463ffffffff1660e01b8152600401612a4a939291906159e8565b600060405180830381865af4158015612a67573d6000803e3d6000fd5b505050506040513d6000823e601f3d908101601f19168201604052612a8f91908101906151e8565b905060005b83811015612bb357848482818110612aae57612aae615316565b9050602002810190612ac09190615abf565b612ace906020810190615adf565b604051612adc92919061549b565b6040518091039020828281518110612af657612af6615316565b6020026020010151612b053390565b6001600160a01b03167f539b07dddd6bd9ffefa3d951a9467d78948cbe1a8d13be00e7376842a83a5981888886818110612b4157612b41615316565b9050602002810190612b539190615abf565b35898987818110612b6657612b66615316565b9050602002810190612b789190615abf565b612b89906060810190604001614a0e565b6040805192835290151560208301520160405180910390a480612bab8161597a565b915050612a94565b509392505050565b6040805160c081018252600080825260208201819052818301819052606082018190526080820181905260a08201529051639bbafb1160e01b81526044600482018190526024820184905273__$122c978fc1a65ab69c7a0ac6b07fd0b0cd$__91639bbafb11910160c060405180830381865af4158015612c40573d6000803e3d6000fd5b505050506040513d601f19601f82011682018060405250810190610f469190615b25565b60405163ce34a66d60e01b81526044600482018190526024820183905260009173__$c43b1d7058274a71a9734d16e6b6586431$__9163ce34a66d9101611068565b6040516342ef199b60e11b81526044600482018190526001600160a01b038316602483015260009173__$c43b1d7058274a71a9734d16e6b6586431$__916385de33369101611068565b60008073__$340101a45712d3611711048793ce62ace0$__63881d86766044888888886040518663ffffffff1660e01b8152600401612d33959493929190615bb6565b602060405180830381865af4158015612d50573d6000803e3d6000fd5b505050506040513d601f19601f82011682018060405250810190612d7491906150b2565b90508585604051612d8692919061549b565b604051809103902081612d963390565b6001600160a01b03167f539b07dddd6bd9ffefa3d951a9467d78948cbe1a8d13be00e7376842a83a59818787604051612ddb9291909182521515602082015260400190565b60405180910390a495945050505050565b6040516337455c0b60e21b815260009073__$c43b1d7058274a71a9734d16e6b6586431$__9063dd15702c9061112a9060449087908790600401615102565b60008073__$122c978fc1a65ab69c7a0ac6b07fd0b0cd$__634a56c0b8604486866040518463ffffffff1660e01b8152600401612e6a93929190615102565b602060405180830381865af4158015612e87573d6000803e3d6000fd5b505050506040513d601f19601f82011682018060405250810190612eab91906150b2565b9050336001600160a01b0316847fa6234dfea6da9d63d0505ba9b61ac8405dfd897089208859cda18011c4847d698584604051612ee99291906150cb565b60405180910390a35060019392505050565b6000336001600160a01b0316837fe595d6b009cbfd06bfdfc4b7c06799f0e0b08fb2c6f5fa6e28a9aac2495440f984604051612f3b911515815260200190565b60405180910390a36040516311cc3c7760e01b8152604460048201819052602482018590528315159082015273__$6309dd7d2656d358c392b35d5c4e4605f9$__906311cc3c779060640161112a565b60405163014ac83b60e61b815260446004820181905260248201839052606091600091829173__$340101a45712d3611711048793ce62ace0$__916352b20ec09101600060405180830381865af4158015612fea573d6000803e3d6000fd5b505050506040513d6000823e601f3d908101601f191682016040526113d19190810190615be9565b6040516377f616af60e11b81526044600482018190526001600160a01b038316602483015260009173__$c43b1d7058274a71a9734d16e6b6586431$__9163efec2d5e9101611068565b6040516374e7db3960e11b81526044600482018190526001600160a01b038316602483015260009173__$c43b1d7058274a71a9734d16e6b6586431$__9163e9cfb6729101611068565b60405163226d6a0d60e21b81526044600482018190526024820183905260009173__$c43b1d7058274a71a9734d16e6b6586431$__916389b5a8349101611068565b6000805b828110156131915783838281811061310657613106615316565b905060400201602001602081019061311e91906147bb565b6001600160a01b031684848381811061313957613139615316565b9050604002016000013561314a3390565b6001600160a01b03167f1d31fe42f06d4c1f16f6cb7b5682f1d6743641a9e1412fa0258f6776c5b943ee60405160405180910390a4806131898161597a565b9150506130ec565b5060405163608f85ef60e01b815273__$340101a45712d3611711048793ce62ace0$__9063608f85ef9061112a9060449087908790600401615993565b60405163289ea12d60e11b8152604460048201819052602482018590526001600160a01b038416908201526001600160e01b03198216606482015260009073__$c43b1d7058274a71a9734d16e6b6586431$__9063513d425a9060840161223b565b604051636861fc1160e01b8152604460048201819052602482018490526001600160a01b0383169082015260009073__$340101a45712d3611711048793ce62ace0$__90636861fc119060640161112a565b60405163adfc581b60e01b81526044600482018190526024820184905281018290526000908190819073__$122c978fc1a65ab69c7a0ac6b07fd0b0cd$__9063adfc581b906064016040805180830381865af41580156132e6573d6000803e3d6000fd5b505050506040513d601f19601f8201168201806040525081019061330a9190615711565b91509150836133163390565b6001600160a01b0316867fa0eaa0025d4f12545803a03c369115c59f885df7b5fc07a6393438827dbf51b78460405161235791815260200190565b60405163cb3db3a360e01b815260446004820181905260248201849052810182905260009073__$bc3cfbaf1827cbc66e3e608da812a405b7$__9063cb3db3a39060640161112a565b6040516357dc938360e11b81526044600482018190526001600160a01b038316602483015260009173__$c43b1d7058274a71a9734d16e6b6586431$__9163afb927069101611068565b60006001600160a01b037f000000000000000000000000000000000000000000000000000000000000000016300361342e5760405162461bcd60e51b8152600401611791906153a8565b7f00000000000000000000000000000000000000000000000000000000000000006001600160a01b0316613460613c4c565b6001600160a01b0316146134865760405162461bcd60e51b8152600401611791906153d7565b600354600160a01b900460ff16156134b05760405162461bcd60e51b815260040161179190615405565b6134c063d9dc1f1960e01b613c6d565b61350c5760405162461bcd60e51b815260206004820152601760248201527f5365744c6f63616c41646d696e20466f7262696464656e0000000000000000006044820152606401611791565b6001600160a01b0382166135545760405162461bcd60e51b815260206004820152600f60248201526e1059191c995cdcc8125b9d985b1a59608a1b6044820152606401611791565b61355d82614285565b506001919050565b604051631912cf4360e01b81526044600482018190526024820184905281018290526000908190819073__$340101a45712d3611711048793ce62ace0$__90631912cf43906064016040805180830381865af41580156135c9573d6000803e3d6000fd5b505050506040513d601f19601f820116820180604052508101906135ed9190615711565b9150915083856135fa3390565b6001600160a01b03167f970f60a11b3302f55122bdb3e2de766d28491b40fe0a2a6d04da71e5ab577cb98460405161235791815260200190565b604051634df89d6f60e01b81526044600482018190526024820183905260009173__$c43b1d7058274a71a9734d16e6b6586431$__91634df89d6f9101611068565b6040516000906001600160a01b03831690849033907f1d31fe42f06d4c1f16f6cb7b5682f1d6743641a9e1412fa0258f6776c5b943ee908590a46040516391de53cf60e01b8152604460048201819052602482018590526001600160a01b0384169082015273__$340101a45712d3611711048793ce62ace0$__906391de53cf9060640161112a565b6040516384f27d3560e01b81526044600482018190526024820183905260609173__$340101a45712d3611711048793ce62ace0$__916384f27d359101600060405180830381865af4158015613759573d6000803e3d6000fd5b505050506040513d6000823e601f3d908101601f19168201604052610f469190810190615c38565b60405163580cea9d60e11b81526044600482018190526024820183905260009173__$c43b1d7058274a71a9734d16e6b6586431$__9163b019d53a9101611068565b600080600073__$122c978fc1a65ab69c7a0ac6b07fd0b0cd$__63542a580860448a8a8a8a8a6040518763ffffffff1660e01b815260040161380a96959493929190615d15565b6040805180830381865af4158015613826573d6000803e3d6000fd5b505050506040513d601f19601f8201168201806040525081019061384a9190615dde565b91509150806001600160a01b0316826001600160a01b0316897f2acec3419c1d10dab06d0715f556e96b344f2092a52a23fb192b4b89f5b7cf42896040013560405161272991815260200190565b604051633f75a32d60e01b815260446004820181905260248201849052821515908201526000908190819073__$340101a45712d3611711048793ce62ace0$__90633f75a32d906064016040805180830381865af41580156138fe573d6000803e3d6000fd5b505050506040513d601f19601f820116820180604052508101906139229190615711565b91509150808561392f3390565b6001600160a01b03167faaf3a0e62c1102e283a5a18e81d678b9ce6f4f043cc7afafee4f7f82b85330a287604051612357911515815260200190565b60405163648e910b60e11b81526044600482018190526024820183905260609173__$6309dd7d2656d358c392b35d5c4e4605f9$__9163c91d221691016112f1565b600080600073__$122c978fc1a65ab69c7a0ac6b07fd0b0cd$__636da4c23c6044898989896040518663ffffffff1660e01b81526004016139f2959493929190615e0d565b6040805180830381865af4158015613a0e573d6000803e3d6000fd5b505050506040513d601f19601f82011682018060405250810190613a329190615e49565b90925090506001600160a01b038116613a5160808801606089016147bb565b6001600160a01b0316837f2a2b33fd7e66815f7a7bea7d796d5c587e39efd4b142c4a9ab63b8becc98feb433604080516001600160a01b039092168252808c013560208301520160405180910390a45095945050505050565b6000336001600160a01b0316837f552ce1fc1bc82a48cdc0636ff7162480d868c590f2e57c63c30a944f3a82ec3684604051613aea911515815260200190565b60405180910390a3604051632efee30760e21b8152604460048201819052602482018590528315159082015273__$bc3cfbaf1827cbc66e3e608da812a405b7$__9063bbfb8c1c9060640161112a565b60405163343f6e0960e11b815260446004820181905260248201849052810182905260009073__$6309dd7d2656d358c392b35d5c4e4605f9$__9063687edc129060640161112a565b600061134560008054600154604080517f8b73c3c69bb8fe3d512ecc4cf759cc79239f7b179b0ffacaa9a75d522b39400f60208201529081019290925260608201524660808201523060a082015260c00160405160208183030381529060405280519060200120905090565b6000611345613ef0565b90565b60006001600160e01b031982166314751dbf60e01b1480613c2d57506001600160e01b031982166352d1902d60e01b145b80610f4657506301ffc9a760e01b6001600160e01b0319831614610f46565b6000600080516020615ee28339815191525b546001600160a01b0316919050565b6003546000906001600160a01b03163003613d5b5760006363d59cf360e11b613c9530614246565b3385604051602401613ca993929190615e6e565b60408051601f198184030181529190526020810180516001600160e01b03166001600160e01b03199093169290921790915290506000613d26613cea613c4c565b836040518060400160405280601d81526020017f44656c656761746563616c6c20686173416363657373204661696c65640000008152506142fc565b90508060018251613d379190615e97565b81518110613d4757613d47615316565b60209101015160f81c600114949350505050565b6003546001600160a01b031663c7ab39e6613d7530614246565b33856040518463ffffffff1660e01b8152600401613d9593929190615e6e565b602060405180830381865afa158015611085573d6000803e3d6000fd5b6003546000906001600160a01b03163003613e7a57600063e25d75f060e01b600254604051602401613de691815260200190565b60408051601f198184030181529190526020810180516001600160e01b03166001600160e01b03199093169290921790915290506000613e46613e27613c4c565b83604051806060016040528060258152602001615ebd602591396142fc565b90508060018251613e579190615e97565b81518110613e6757613e67615316565b60209101015160f81c6001149392505050565b600354600254604051630e25d75f60e41b81526001600160a01b039092169163e25d75f091613eaf9160040190815260200190565b602060405180830381865afa158015613ecc573d6000803e3d6000fd5b505050506040513d601f19601f8201168201806040525081019061134591906150e5565b60007fb53127684a568b3173ae13b9f8a6016e243e63b6e8ee1178d6a717850b5d6103613c5e565b613f268686868686866143c5565b505050505050565b613f36613c4c565b6001600160a01b0316816001600160a01b031603613f965760405162461bcd60e51b815260206004820152601a60248201527f496c6c6567616c204e657720496d706c656d656e746174696f6e0000000000006044820152606401611791565b613fa6637147855d60e01b613c6d565b613ff25760405162461bcd60e51b815260206004820152601960248201527f5570677261646520436f6e7465787420466f7262696464656e000000000000006044820152606401611791565b50565b60607f4910fdfa16fed3260ed0e7147f7cc6da11a60208b5b9406d12a635614ffd91435460ff161561403f5761402a846145d3565b5060408051600081526020810190915261101b565b836001600160a01b03166352d1902d6040518163ffffffff1660e01b8152600401602060405180830381865afa925050508015614099575060408051601f3d908101601f19168201909252614096918101906150b2565b60015b6140dd5760405162461bcd60e51b8152602060048201526015602482015274125b1b1959d85b0815555414c810dbdb9d1c9858dd605a1b6044820152606401611791565b600080516020615ee283398151915281146141325760405162461bcd60e51b8152602060048201526015602482015274125b9d985b1a590815555414c810dbdb9d1c9858dd605a1b6044820152606401611791565b506040516301ffc9a760e01b81526314751dbf60e01b60048201526001600160a01b038516906301ffc9a790602401602060405180830381865afa92505050801561419a575060408051601f3d908101601f19168201909252614197918101906150e5565b60015b6141e65760405162461bcd60e51b815260206004820152601760248201527f496c6c6567616c204950726f787920436f6e74726163740000000000000000006044820152606401611791565b806142335760405162461bcd60e51b815260206004820152601760248201527f496e76616c6964204950726f787920436f6e74726163740000000000000000006044820152606401611791565b5061423f848484614654565b905061101b565b6040516bffffffffffffffffffffffff19606083901b166020820152600090603401604051602081830303815290604052805190602001209050919050565b7fb53127684a568b3173ae13b9f8a6016e243e63b6e8ee1178d6a717850b5d610380546001600160a01b0383166001600160a01b031990911681179091556040805191825251309133917f54ab0d18de7958786ba1ad85966d59baa2b395455f0530dcdcfd732e6af539e29181900360200190a350565b60606001600160a01b0384163b6143505760405162461bcd60e51b8152602060048201526018602482015277496c6c6567616c20436f6e7472616374204164647265737360401b6044820152606401611791565b600080856001600160a01b03168560405161436b9190615eaa565b600060405180830381855af49150503d80600081146143a6576040519150601f19603f3d011682016040523d82523d6000602084013e6143ab565b606091505b50915091506143bb8282866146be565b9695505050505050565b60495462010000900460ff1661441d5760405162461bcd60e51b815260206004820152601960248201527f436f6e7472616374204e6f7420496e697469616c697a696e67000000000000006044820152606401611791565b858560405160200161443092919061549b565b60408051601f1981840301815290829052805160209182012060005561445a91869186910161549b565b60408051601f19818403018152919052805160209091012060015560028290556001600160a01b03811661449f57600380546001600160a01b031916301790556145bc565b6040516301ffc9a760e01b81526314b8343560e31b60048201526001600160a01b038216906301ffc9a790602401602060405180830381865afa925050508015614506575060408051601f3d908101601f19168201909252614503918101906150e5565b60015b6145525760405162461bcd60e51b815260206004820152601c60248201527f496c6c6567616c20416363657373436f6e74726f6c4d616e61676572000000006044820152606401611791565b8061459f5760405162461bcd60e51b815260206004820152601c60248201527f496e76616c696420416363657373436f6e74726f6c4d616e61676572000000006044820152606401611791565b50600380546001600160a01b0319166001600160a01b0383161790555b6003805461ffff60a01b19169055613f2633614285565b6001600160a01b0381163b6146255760405162461bcd60e51b8152602060048201526018602482015277496c6c6567616c20436f6e7472616374204164647265737360401b6044820152606401611791565b600080516020615ee283398151915280546001600160a01b0319166001600160a01b0392909216919091179055565b606061465f846146f7565b60008351118061466c5750815b156146a75761423f84846040518060400160405280601381526020017211195b1959d85d1958d85b1b0811985a5b1959606a1b8152506142fc565b505060408051600081526020810190915292915050565b606083156146cd57508161101b565b8251156146dd5782518084602001fd5b8160405162461bcd60e51b81526004016117919190614cf9565b614700816145d3565b6040516001600160a01b03821690309033907f354bd4b6eb65d64e6c79c53fa4f983a5e6bec4824ce4627c71be0b2722f4917e90600090a450565b6001600160e01b031981168114613ff257600080fd5b60006020828403121561476357600080fd5b813561101b8161473b565b60008060006060848603121561478357600080fd5b8335925060208401356147958161473b565b929592945050506040919091013590565b6001600160a01b0381168114613ff257600080fd5b6000602082840312156147cd57600080fd5b813561101b816147a6565b6000602082840312156147ea57600080fd5b5035919050565b6000806040838503121561480457600080fd5b8235915060208301356148168161473b565b809150509250929050565b6020808252825182820181905260009190848201906040850190845b818110156148635783516001600160e01b0319168352928401929184019160010161483d565b50909695505050505050565b6020808252825182820181905260009190848201906040850190845b818110156148635783518352928401929184019160010161488b565b60005b838110156148c25781810151838201526020016148aa565b50506000910152565b600081518084526148e38160208601602086016148a7565b601f01601f19169290920160200192915050565b60608152600061490a60608301866148cb565b931515602083015250901515604090910152919050565b6020808252825182820181905260009190848201906040850190845b818110156148635783516001600160a01b03168352928401929184019160010161493d565b60008083601f84011261497457600080fd5b5081356001600160401b0381111561498b57600080fd5b6020830191508360208285010111156149a357600080fd5b9250929050565b8015158114613ff257600080fd5b6000806000604084860312156149cd57600080fd5b83356001600160401b038111156149e357600080fd5b6149ef86828701614962565b9094509250506020840135614a03816149aa565b809150509250925092565b600060208284031215614a2057600080fd5b813561101b816149aa565b60008060008060608587031215614a4157600080fd5b84356001600160401b03811115614a5757600080fd5b614a6387828801614962565b9095509350506020850135614a77816149aa565b91506040850135614a87816149aa565b939692955090935050565b60008060008060008060006080888a031215614aad57600080fd5b87356001600160401b0380821115614ac457600080fd5b614ad08b838c01614962565b909950975060208a0135915080821115614ae957600080fd5b614af58b838c01614962565b909750955060408a0135915080821115614b0e57600080fd5b50614b1b8a828b01614962565b9094509250506060880135614b2f816147a6565b8091505092959891949750929550565b604081526000614b5260408301856148cb565b905082151560208301529392505050565b600080600060608486031215614b7857600080fd5b83359250602084013591506040840135614a038161473b565b60008060408385031215614ba457600080fd5b823591506020830135614816816149aa565b634e487b7160e01b600052604160045260246000fd5b604051606081016001600160401b0381118282101715614bee57614bee614bb6565b60405290565b604051601f8201601f191681016001600160401b0381118282101715614c1c57614c1c614bb6565b604052919050565b60006001600160401b03821115614c3d57614c3d614bb6565b50601f01601f191660200190565b600082601f830112614c5c57600080fd5b8135614c6f614c6a82614c24565b614bf4565b818152846020838601011115614c8457600080fd5b816020850160208301376000918101602001919091529392505050565b600080600060608486031215614cb657600080fd5b8335614cc1816147a6565b925060208401356001600160401b03811115614cdc57600080fd5b614ce886828701614c4b565b9250506040840135614a03816149aa565b60208152600061101b60208301846148cb565b60008083601f840112614d1e57600080fd5b5081356001600160401b03811115614d3557600080fd5b6020830191508360208260051b85010111156149a357600080fd5b600080600080848603610120811215614d6857600080fd5b85356001600160401b0380821115614d7f57600080fd5b614d8b89838a01614c4b565b965060e0601f1984011215614d9f57600080fd5b602088019550610100880135925080831115614dba57600080fd5b5050614dc887828801614d0c565b95989497509550505050565b60008060408385031215614de757600080fd5b823591506020830135614816816147a6565b60008060208385031215614e0c57600080fd5b82356001600160401b0380821115614e2357600080fd5b818501915085601f830112614e3757600080fd5b813581811115614e4657600080fd5b8660208260061b8501011115614e5b57600080fd5b60209290920196919550909350505050565b60008060208385031215614e8057600080fd5b82356001600160401b03811115614e9657600080fd5b614ea285828601614d0c565b90969095509350505050565b60008060008060608587031215614ec457600080fd5b84356001600160401b03811115614eda57600080fd5b614ee687828801614962565b909550935050602085013591506040850135614a87816149aa565b606081526000614f1460608301866148cb565b602083019490945250901515604090910152919050565b600080600060608486031215614f4057600080fd5b833592506020840135614f52816147a6565b91506040840135614a038161473b565b60008060408385031215614f7557600080fd5b50508035926020909101359150565b600060a08284031215614f9657600080fd5b50919050565b60008060008060006101008688031215614fb557600080fd5b8535945060208601356001600160401b0380821115614fd357600080fd5b614fdf89838a01614c4b565b9550614fee8960408a01614f84565b945060e088013591508082111561500457600080fd5b5061501188828901614d0c565b969995985093965092949392505050565b60008060008060e0858703121561503857600080fd5b84356001600160401b038082111561504f57600080fd5b61505b88838901614c4b565b955061506a8860208901614f84565b945060c087013591508082111561508057600080fd5b50614dc887828801614d0c565b93845260208401929092526001600160e01b0319166040830152606082015260800190565b6000602082840312156150c457600080fd5b5051919050565b6001600160e01b0319929092168252602082015260400190565b6000602082840312156150f757600080fd5b815161101b816149aa565b92835260208301919091526001600160e01b031916604082015260600190565b60006001600160401b0382111561513b5761513b614bb6565b5060051b60200190565b600082601f83011261515657600080fd5b81516020615166614c6a83615122565b82815260059290921b8401810191818101908684111561518557600080fd5b8286015b848110156151a957805161519c8161473b565b8352918301918301615189565b509695505050505050565b6000602082840312156151c657600080fd5b81516001600160401b038111156151dc57600080fd5b61227c84828501615145565b600060208083850312156151fb57600080fd5b82516001600160401b0381111561521157600080fd5b8301601f8101851361522257600080fd5b8051615230614c6a82615122565b81815260059190911b8201830190838101908783111561524f57600080fd5b928401925b8284101561526d57835182529284019290840190615254565b979650505050505050565b600082601f83011261528957600080fd5b8151615297614c6a82614c24565b8181528460208386010111156152ac57600080fd5b61227c8260208301602087016148a7565b6000806000606084860312156152d257600080fd5b83516001600160401b038111156152e857600080fd5b6152f486828701615278565b9350506020840151615305816149aa565b6040850151909250614a03816149aa565b634e487b7160e01b600052603260045260246000fd5b81835281816020850137506000828201602090810191909152601f909101601f19169091010190565b84815260606020820152600061536f60608301858761532c565b9050821515604083015295945050505050565b60408152600061539660408301858761532c565b90508215156020830152949350505050565b602080825260159082015274125b1b1959d85b0810dbdb9d1c9858dd0810d85b1b605a1b604082015260600190565b602080825260149082015273141c9bde1e4810d85b1b195908125b9d985b1a5960621b604082015260600190565b60208082526017908201527f536166654d6f64653a2043616c6c2052656a6563746564000000000000000000604082015260600190565b85815260806020820152600061545660808301868861532c565b9315156040830152509015156060909101529392505050565b60608152600061548360608301868861532c565b93151560208301525090151560409091015292915050565b8183823760009101908152919050565b600060208083850312156154be57600080fd5b82516001600160401b03808211156154d557600080fd5b818501915085601f8301126154e957600080fd5b81516154f7614c6a82615122565b81815260059190911b8301840190848101908883111561551657600080fd5b8585015b838110156155a1578051858111156155325760008081fd5b86016060818c03601f190181131561554a5760008081fd5b615552614bcc565b8983015181526040808401518981111561556c5760008081fd5b61557a8f8d83880101615145565b838d015250928201519261558d846149aa565b81019290925250835291860191860161551a565b5098975050505050505050565b60006080808301878452602060018060a01b03881681860152604087818701526060848188015283885180865260a08901915060a08160051b8a01019550848a016000805b83811015615672578b8903609f19018552825180518a5288810151898b018890528051888c01819052908a019084908d8d01905b808310156156515783516001600160e01b0319168252928c019260019290920191908c0190615627565b50928a015115159b8a019b909b5250985093870193918701916001016155f3565b50969e9d5050505050505050505050505050565b60808152600061569a60808301888a61532c565b82810360208401526156ad81878961532c565b91505083604083015261ffff83166060830152979650505050505050565b600080604083850312156156de57600080fd5b82516001600160401b038111156156f457600080fd5b61570085828601615278565b9250506020830151614816816149aa565b6000806040838503121561572457600080fd5b825161572f816149aa565b6020939093015192949293505050565b6000808335601e1984360301811261575657600080fd5b83016020810192503590506001600160401b0381111561577557600080fd5b8060051b36038213156149a357600080fd5b8183526000602080850194508260005b858110156157c65781356157aa8161473b565b6001600160e01b03191687529582019590820190600101615797565b509495945050505050565b60008235605e198336030181126157e757600080fd5b90910192915050565b81835260006020808501808196508560051b810191508460005b8781101561587557828403895261582182886157d1565b6060813586526158338783018361573f565b82898901526158458389018284615787565b92505050604080830135925061585a836149aa565b9115159590910194909452978401979084019060010161580a565b5091979650505050505050565b600061014087835280602084015261589c818401886148cb565b9050853560408401526020860135606084015260408601356080840152606086013560a084015260808601356158d1816147a6565b6001600160a01b0390811660c085015260a0870135906158f0826147a6565b1660e084015260c0860135615904816149aa565b15156101008401528281036101208401526159208185876157f0565b98975050505050505050565b60008060006060848603121561594157600080fd5b835161594c816147a6565b602085015160408601519194509250614a03816147a6565b634e487b7160e01b600052601160045260246000fd5b60006001820161598c5761598c615964565b5060010190565b8381526040602080830182905282820184905260009190859060608501845b878110156155a15783358252828401356159cb816147a6565b6001600160a01b03168284015292840192908401906001016159b2565b600060408083018684526020828186015281868352606092508286019050828760051b8701018860005b89811015615aaf57888303605f19018452615a2d828c6157d1565b8035845285810135601e19823603018112615a4757600080fd5b810186810190356001600160401b03811115615a6257600080fd5b803603821315615a7157600080fd5b8888870152615a83898701828461532c565b915050888201359150615a95826149aa565b901515938801939093529284019290840190600101615a12565b50909a9950505050505050505050565b60008235605e19833603018112615ad557600080fd5b9190910192915050565b6000808335601e19843603018112615af657600080fd5b8301803591506001600160401b03821115615b1057600080fd5b6020019150368190038213156149a357600080fd5b600060c08284031215615b3757600080fd5b60405160c081018181106001600160401b0382111715615b5957615b59614bb6565b80604052508251815260208301516020820152604083015160408201526060830151615b84816147a6565b60608201526080830151615b97816149aa565b608082015260a0830151615baa816149aa565b60a08201529392505050565b858152608060208201526000615bd060808301868861532c565b6040830194909452509015156060909101529392505050565b600080600060608486031215615bfe57600080fd5b83516001600160401b03811115615c1457600080fd5b615c2086828701615278565b935050602084015191506040840151614a03816149aa565b60006020808385031215615c4b57600080fd5b82516001600160401b03811115615c6157600080fd5b8301601f81018513615c7257600080fd5b8051615c80614c6a82615122565b81815260059190911b82018301908381019087831115615c9f57600080fd5b928401925b8284101561526d578351615cb7816147a6565b82529284019290840190615ca4565b8035825260208101356020830152604081013560408301526060810135615cec816147a6565b6001600160a01b031660608301526080810135615d08816149aa565b8015156080840152505050565b60006101208883526020888185015260408281860152615d378386018a6148cb565b92506060615d478187018a615cc6565b858403610100870152868452828401600588901b85018401896000805b8b811015615dc957888403601f19018552615d7f838e6157d1565b80358552615d8f8982018261573f565b888b880152615da18988018284615787565b928a01359291505060038210615db5578384fd5b948801529387019391870191600101615d64565b50919f9e505050505050505050505050505050565b60008060408385031215615df157600080fd5b8251615dfc816147a6565b6020840151909250614816816147a6565b6000610100878352806020840152615e27818401886148cb565b9050615e366040840187615cc6565b82810360e08401526159208185876157f0565b60008060408385031215615e5c57600080fd5b825191506020830151614816816147a6565b9283526001600160a01b039190911660208301526001600160e01b031916604082015260600190565b81810381811115610f4657610f46615964565b60008251615ad58184602087016148a756fe44656c656761746563616c6c2069735265616c6d55706772616461626c65204661696c6564360894a13ba1a3210667c828492db98dca3e2076cc3735a920a3ca505d382bbca26469706673582212200b2d9232027f90f5f141cadc4db6f782e61973031e7d2fe1e1184def539d87ef64736f6c63430008110033",
  "libraries": {
    "LContextManagement": "0xe7f1725E7734CE288F8367e1Bb143E90bb3F0512",
    "LAccessControl": "0x5FbDB2315678afecb367f032d93F642f64180aa3",
    "LRealmManagement": "0xCf7Ed3AccA5a467e9e704C703E8D87F634fB0Fc9",
    "LGroupManagement": "0xDc64a140Aa3E981100a9becA4E685f962f0cF6C9",
    "LRoleManagement": "0x9fE46736679d2D9a65F0992F2272dE9f3c7fa6e0"
  },
  "devdoc": {
    "kind": "dev",
    "methods": {
      "hasAccess(bytes32,address,bytes4)": {
        "details": "Function called by apps to check ACL",
        "returns": {
          "_0": "boolean indicating whether the ACL allows"
        }
      },
      "proxiableUUID()": {
        "details": "Implementation of the ERC1822 {proxiableUUID} function. This returns the storage slot used by the implementation. It is used to validate that the this implementation remains valid after an upgrade. IMPORTANT: A proxy pointing at a proxiable contract should not be considered proxiable itself, because this risks bricking a proxy that upgrades to it, by delegating to itself until out of gas. Thus it is critical that this function revert if invoked through a proxy. This is guaranteed by the `notDelegated` modifier."
      },
      "supportsInterface(bytes4)": {
        "details": "See {IERC165-supportsInterface}."
      }
    },
    "version": 1
  },
  "userdoc": {
    "kind": "user",
    "methods": {},
    "version": 1
  },
  "storageLayout": {
    "storage": [
      {
        "astId": 19657,
        "contract": "src/contracts/acl/AccessControlManager.sol:AccessControlManager",
        "label": "_domainName",
        "offset": 0,
        "slot": "0",
        "type": "t_bytes32"
      },
      {
        "astId": 19659,
        "contract": "src/contracts/acl/AccessControlManager.sol:AccessControlManager",
        "label": "_domainVersion",
        "offset": 0,
        "slot": "1",
        "type": "t_bytes32"
      },
      {
        "astId": 19661,
        "contract": "src/contracts/acl/AccessControlManager.sol:AccessControlManager",
        "label": "_domainRealm",
        "offset": 0,
        "slot": "2",
        "type": "t_bytes32"
      },
      {
        "astId": 19663,
        "contract": "src/contracts/acl/AccessControlManager.sol:AccessControlManager",
        "label": "_accessControlManager",
        "offset": 0,
        "slot": "3",
        "type": "t_address"
      },
      {
        "astId": 19665,
        "contract": "src/contracts/acl/AccessControlManager.sol:AccessControlManager",
        "label": "_isSafeMode",
        "offset": 20,
        "slot": "3",
        "type": "t_bool"
      },
      {
        "astId": 19667,
        "contract": "src/contracts/acl/AccessControlManager.sol:AccessControlManager",
        "label": "_isUpgradable",
        "offset": 21,
        "slot": "3",
        "type": "t_bool"
      },
      {
        "astId": 19672,
        "contract": "src/contracts/acl/AccessControlManager.sol:AccessControlManager",
        "label": "__reserved",
        "offset": 0,
        "slot": "4",
        "type": "t_array(t_uint256)64_storage"
      },
      {
        "astId": 1640,
        "contract": "src/contracts/acl/AccessControlManager.sol:AccessControlManager",
        "label": "_data",
        "offset": 0,
        "slot": "68",
        "type": "t_struct(DataCollections)1637_storage"
      },
      {
        "astId": 19840,
        "contract": "src/contracts/acl/AccessControlManager.sol:AccessControlManager",
        "label": "_initialized",
        "offset": 0,
        "slot": "73",
        "type": "t_uint16"
      },
      {
        "astId": 19843,
        "contract": "src/contracts/acl/AccessControlManager.sol:AccessControlManager",
        "label": "_initializing",
        "offset": 2,
        "slot": "73",
        "type": "t_bool"
      }
    ],
    "types": {
      "t_address": {
        "encoding": "inplace",
        "label": "address",
        "numberOfBytes": "20"
      },
      "t_array(t_bytes32)dyn_storage": {
        "base": "t_bytes32",
        "encoding": "dynamic_array",
        "label": "bytes32[]",
        "numberOfBytes": "32"
      },
      "t_array(t_uint256)64_storage": {
        "base": "t_uint256",
        "encoding": "inplace",
        "label": "uint256[64]",
        "numberOfBytes": "2048"
      },
      "t_bool": {
        "encoding": "inplace",
        "label": "bool",
        "numberOfBytes": "1"
      },
      "t_bytes32": {
        "encoding": "inplace",
        "label": "bytes32",
        "numberOfBytes": "32"
      },
      "t_bytes4": {
        "encoding": "inplace",
        "label": "bytes4",
        "numberOfBytes": "4"
      },
      "t_enum(Status)1560": {
        "encoding": "inplace",
        "label": "enum AccessControlStorage.Status",
        "numberOfBytes": "1"
      },
      "t_mapping(t_address,t_mapping(t_bytes32,t_enum(Status)1560))": {
        "encoding": "mapping",
        "key": "t_address",
        "label": "mapping(address => mapping(bytes32 => enum AccessControlStorage.Status))",
        "numberOfBytes": "32",
        "value": "t_mapping(t_bytes32,t_enum(Status)1560)"
      },
      "t_mapping(t_bytes32,t_enum(Status)1560)": {
        "encoding": "mapping",
        "key": "t_bytes32",
        "label": "mapping(bytes32 => enum AccessControlStorage.Status)",
        "numberOfBytes": "32",
        "value": "t_enum(Status)1560"
      },
      "t_mapping(t_bytes32,t_struct(Context)1581_storage)": {
        "encoding": "mapping",
        "key": "t_bytes32",
        "label": "mapping(bytes32 => struct AccessControlStorage.Context)",
        "numberOfBytes": "32",
        "value": "t_struct(Context)1581_storage"
      },
      "t_mapping(t_bytes32,t_struct(Group)1609_storage)": {
        "encoding": "mapping",
        "key": "t_bytes32",
        "label": "mapping(bytes32 => struct AccessControlStorage.Group)",
        "numberOfBytes": "32",
        "value": "t_struct(Group)1609_storage"
      },
      "t_mapping(t_bytes32,t_struct(Realm)1601_storage)": {
        "encoding": "mapping",
        "key": "t_bytes32",
        "label": "mapping(bytes32 => struct AccessControlStorage.Realm)",
        "numberOfBytes": "32",
        "value": "t_struct(Realm)1601_storage"
      },
      "t_mapping(t_bytes32,t_struct(Role)1591_storage)": {
        "encoding": "mapping",
        "key": "t_bytes32",
        "label": "mapping(bytes32 => struct AccessControlStorage.Role)",
        "numberOfBytes": "32",
        "value": "t_struct(Role)1591_storage"
      },
      "t_mapping(t_bytes32,t_uint256)": {
        "encoding": "mapping",
        "key": "t_bytes32",
        "label": "mapping(bytes32 => uint256)",
        "numberOfBytes": "32",
        "value": "t_uint256"
      },
      "t_mapping(t_bytes4,t_struct(RoleStat)1566_storage)": {
        "encoding": "mapping",
        "key": "t_bytes4",
        "label": "mapping(bytes4 => struct AccessControlStorage.RoleStat)",
        "numberOfBytes": "32",
        "value": "t_struct(RoleStat)1566_storage"
      },
      "t_string_storage": {
        "encoding": "bytes",
        "label": "string",
        "numberOfBytes": "32"
      },
      "t_struct(AddressSet)15618_storage": {
        "encoding": "inplace",
        "label": "struct LEnumerableSet.AddressSet",
        "members": [
          {
            "astId": 15617,
            "contract": "src/contracts/acl/AccessControlManager.sol:AccessControlManager",
            "label": "_inner",
            "offset": 0,
            "slot": "0",
            "type": "t_struct(Set)15317_storage"
          }
        ],
        "numberOfBytes": "64"
      },
      "t_struct(Bytes32Set)15511_storage": {
        "encoding": "inplace",
        "label": "struct LEnumerableSet.Bytes32Set",
        "members": [
          {
            "astId": 15510,
            "contract": "src/contracts/acl/AccessControlManager.sol:AccessControlManager",
            "label": "_inner",
            "offset": 0,
            "slot": "0",
            "type": "t_struct(Set)15317_storage"
          }
        ],
        "numberOfBytes": "64"
      },
      "t_struct(Context)1581_storage": {
        "encoding": "inplace",
        "label": "struct AccessControlStorage.Context",
        "members": [
          {
            "astId": 1568,
            "contract": "src/contracts/acl/AccessControlManager.sol:AccessControlManager",
            "label": "realm",
            "offset": 0,
            "slot": "0",
            "type": "t_bytes32"
          },
          {
            "astId": 1570,
            "contract": "src/contracts/acl/AccessControlManager.sol:AccessControlManager",
            "label": "contractId",
            "offset": 0,
            "slot": "1",
            "type": "t_address"
          },
          {
            "astId": 1572,
            "contract": "src/contracts/acl/AccessControlManager.sol:AccessControlManager",
            "label": "isEnabled",
            "offset": 20,
            "slot": "1",
            "type": "t_bool"
          },
          {
            "astId": 1577,
            "contract": "src/contracts/acl/AccessControlManager.sol:AccessControlManager",
            "label": "resources",
            "offset": 0,
            "slot": "2",
            "type": "t_mapping(t_bytes4,t_struct(RoleStat)1566_storage)"
          },
          {
            "astId": 1580,
            "contract": "src/contracts/acl/AccessControlManager.sol:AccessControlManager",
            "label": "funcSet",
            "offset": 0,
            "slot": "3",
            "type": "t_struct(Bytes32Set)15511_storage"
          }
        ],
        "numberOfBytes": "160"
      },
      "t_struct(DataCollections)1637_storage": {
        "encoding": "inplace",
        "label": "struct AccessControlStorage.DataCollections",
        "members": [
          {
            "astId": 1616,
            "contract": "src/contracts/acl/AccessControlManager.sol:AccessControlManager",
            "label": "accountMap",
            "offset": 0,
            "slot": "0",
            "type": "t_mapping(t_address,t_mapping(t_bytes32,t_enum(Status)1560))"
          },
          {
            "astId": 1621,
            "contract": "src/contracts/acl/AccessControlManager.sol:AccessControlManager",
            "label": "ctxMap",
            "offset": 0,
            "slot": "1",
            "type": "t_mapping(t_bytes32,t_struct(Context)1581_storage)"
          },
          {
            "astId": 1626,
            "contract": "src/contracts/acl/AccessControlManager.sol:AccessControlManager",
            "label": "roleMap",
            "offset": 0,
            "slot": "2",
            "type": "t_mapping(t_bytes32,t_struct(Role)1591_storage)"
          },
          {
            "astId": 1631,
            "contract": "src/contracts/acl/AccessControlManager.sol:AccessControlManager",
            "label": "realmMap",
            "offset": 0,
            "slot": "3",
            "type": "t_mapping(t_bytes32,t_struct(Realm)1601_storage)"
          },
          {
            "astId": 1636,
            "contract": "src/contracts/acl/AccessControlManager.sol:AccessControlManager",
            "label": "groupMap",
            "offset": 0,
            "slot": "4",
            "type": "t_mapping(t_bytes32,t_struct(Group)1609_storage)"
          }
        ],
        "numberOfBytes": "160"
      },
      "t_struct(Group)1609_storage": {
        "encoding": "inplace",
        "label": "struct AccessControlStorage.Group",
        "members": [
          {
            "astId": 1603,
            "contract": "src/contracts/acl/AccessControlManager.sol:AccessControlManager",
            "label": "name",
            "offset": 0,
            "slot": "0",
            "type": "t_string_storage"
          },
          {
            "astId": 1605,
            "contract": "src/contracts/acl/AccessControlManager.sol:AccessControlManager",
            "label": "isEnabled",
            "offset": 0,
            "slot": "1",
            "type": "t_bool"
          },
          {
            "astId": 1608,
            "contract": "src/contracts/acl/AccessControlManager.sol:AccessControlManager",
            "label": "roleSet",
            "offset": 0,
            "slot": "2",
            "type": "t_struct(Bytes32Set)15511_storage"
          }
        ],
        "numberOfBytes": "128"
      },
      "t_struct(Realm)1601_storage": {
        "encoding": "inplace",
        "label": "struct AccessControlStorage.Realm",
        "members": [
          {
            "astId": 1593,
            "contract": "src/contracts/acl/AccessControlManager.sol:AccessControlManager",
            "label": "name",
            "offset": 0,
            "slot": "0",
            "type": "t_string_storage"
          },
          {
            "astId": 1595,
            "contract": "src/contracts/acl/AccessControlManager.sol:AccessControlManager",
            "label": "isEnabled",
            "offset": 0,
            "slot": "1",
            "type": "t_bool"
          },
          {
            "astId": 1597,
            "contract": "src/contracts/acl/AccessControlManager.sol:AccessControlManager",
            "label": "isUpgradable",
            "offset": 1,
            "slot": "1",
            "type": "t_bool"
          },
          {
            "astId": 1600,
            "contract": "src/contracts/acl/AccessControlManager.sol:AccessControlManager",
            "label": "ctxSet",
            "offset": 0,
            "slot": "2",
            "type": "t_struct(Bytes32Set)15511_storage"
          }
        ],
        "numberOfBytes": "128"
      },
      "t_struct(Role)1591_storage": {
        "encoding": "inplace",
        "label": "struct AccessControlStorage.Role",
        "members": [
          {
            "astId": 1583,
            "contract": "src/contracts/acl/AccessControlManager.sol:AccessControlManager",
            "label": "group",
            "offset": 0,
            "slot": "0",
            "type": "t_bytes32"
          },
          {
            "astId": 1585,
            "contract": "src/contracts/acl/AccessControlManager.sol:AccessControlManager",
            "label": "name",
            "offset": 0,
            "slot": "1",
            "type": "t_string_storage"
          },
          {
            "astId": 1587,
            "contract": "src/contracts/acl/AccessControlManager.sol:AccessControlManager",
            "label": "isEnabled",
            "offset": 0,
            "slot": "2",
            "type": "t_bool"
          },
          {
            "astId": 1590,
            "contract": "src/contracts/acl/AccessControlManager.sol:AccessControlManager",
            "label": "accountSet",
            "offset": 0,
            "slot": "3",
            "type": "t_struct(AddressSet)15618_storage"
          }
        ],
        "numberOfBytes": "160"
      },
      "t_struct(RoleStat)1566_storage": {
        "encoding": "inplace",
        "label": "struct AccessControlStorage.RoleStat",
        "members": [
          {
            "astId": 1562,
            "contract": "src/contracts/acl/AccessControlManager.sol:AccessControlManager",
            "label": "role",
            "offset": 0,
            "slot": "0",
            "type": "t_bytes32"
          },
          {
            "astId": 1565,
            "contract": "src/contracts/acl/AccessControlManager.sol:AccessControlManager",
            "label": "status",
            "offset": 0,
            "slot": "1",
            "type": "t_enum(Status)1560"
          }
        ],
        "numberOfBytes": "64"
      },
      "t_struct(Set)15317_storage": {
        "encoding": "inplace",
        "label": "struct LEnumerableSet.Set",
        "members": [
          {
            "astId": 15312,
            "contract": "src/contracts/acl/AccessControlManager.sol:AccessControlManager",
            "label": "_values",
            "offset": 0,
            "slot": "0",
            "type": "t_array(t_bytes32)dyn_storage"
          },
          {
            "astId": 15316,
            "contract": "src/contracts/acl/AccessControlManager.sol:AccessControlManager",
            "label": "_indexes",
            "offset": 0,
            "slot": "1",
            "type": "t_mapping(t_bytes32,t_uint256)"
          }
        ],
        "numberOfBytes": "64"
      },
      "t_uint16": {
        "encoding": "inplace",
        "label": "uint16",
        "numberOfBytes": "2"
      },
      "t_uint256": {
        "encoding": "inplace",
        "label": "uint256",
        "numberOfBytes": "32"
      }
    }
  }
}