{
  "address": "0x5FbDB2315678afecb367f032d93F642f64180aa3",
  "abi": [
    {
      "inputs": [],
      "stateMutability": "nonpayable",
      "type": "constructor"
    },
    {
      "anonymous": false,
      "inputs": [
        {
          "indexed": true,
          "internalType": "address",
          "name": "sender",
          "type": "address"
        },
        {
          "indexed": true,
          "internalType": "address",
          "name": "proxy",
          "type": "address"
        },
        {
          "indexed": true,
          "internalType": "bytes32",
          "name": "realm",
          "type": "bytes32"
        },
        {
          "indexed": false,
          "internalType": "bool",
          "name": "value",
          "type": "bool"
        }
      ],
      "name": "ActivityChanged",
      "type": "event"
    },
    {
      "anonymous": false,
      "inputs": [
        {
          "indexed": true,
          "internalType": "address",
          "name": "sender",
          "type": "address"
        },
        {
          "indexed": true,
          "internalType": "address",
          "name": "proxy",
          "type": "address"
        },
        {
          "indexed": false,
          "internalType": "address",
          "name": "previousAdmin",
          "type": "address"
        },
        {
          "indexed": false,
          "internalType": "address",
          "name": "newAdmin",
          "type": "address"
        }
      ],
      "name": "AdminChanged",
      "type": "event"
    },
    {
      "anonymous": false,
      "inputs": [
        {
          "indexed": true,
          "internalType": "bytes32",
          "name": "context",
          "type": "bytes32"
        },
        {
          "indexed": true,
          "internalType": "address",
          "name": "scma",
          "type": "address"
        },
        {
          "indexed": true,
          "internalType": "address",
          "name": "sender",
          "type": "address"
        },
        {
          "indexed": false,
          "internalType": "bytes32",
          "name": "realm",
          "type": "bytes32"
        }
      ],
      "name": "ContextRegistered",
      "type": "event"
    },
    {
      "anonymous": false,
      "inputs": [
        {
          "indexed": true,
          "internalType": "bytes32",
          "name": "context",
          "type": "bytes32"
        },
        {
          "indexed": true,
          "internalType": "bytes32",
          "name": "role",
          "type": "bytes32"
        },
        {
          "indexed": true,
          "internalType": "address",
          "name": "sender",
          "type": "address"
        },
        {
          "indexed": false,
          "internalType": "bytes4",
          "name": "functionSelector",
          "type": "bytes4"
        },
        {
          "indexed": false,
          "internalType": "bytes32",
          "name": "realm",
          "type": "bytes32"
        }
      ],
      "name": "ContextRoleGranted",
      "type": "event"
    },
    {
      "anonymous": false,
      "inputs": [
        {
          "indexed": true,
          "internalType": "bytes32",
          "name": "context",
          "type": "bytes32"
        },
        {
          "indexed": true,
          "internalType": "bytes32",
          "name": "role",
          "type": "bytes32"
        },
        {
          "indexed": true,
          "internalType": "address",
          "name": "sender",
          "type": "address"
        },
        {
          "indexed": false,
          "internalType": "bytes4",
          "name": "functionSelector",
          "type": "bytes4"
        },
        {
          "indexed": false,
          "internalType": "bytes32",
          "name": "realm",
          "type": "bytes32"
        }
      ],
      "name": "ContextRoleRevoked",
      "type": "event"
    },
    {
      "anonymous": false,
      "inputs": [
        {
          "indexed": true,
          "internalType": "bytes32",
          "name": "context",
          "type": "bytes32"
        },
        {
          "indexed": true,
          "internalType": "address",
          "name": "scma",
          "type": "address"
        },
        {
          "indexed": true,
          "internalType": "address",
          "name": "sender",
          "type": "address"
        }
      ],
      "name": "ContextUpdated",
      "type": "event"
    },
    {
      "anonymous": false,
      "inputs": [
        {
          "indexed": true,
          "internalType": "bytes32",
          "name": "group",
          "type": "bytes32"
        },
        {
          "indexed": true,
          "internalType": "address",
          "name": "sender",
          "type": "address"
        }
      ],
      "name": "GroupDisabled",
      "type": "event"
    },
    {
      "anonymous": false,
      "inputs": [
        {
          "indexed": true,
          "internalType": "bytes32",
          "name": "group",
          "type": "bytes32"
        },
        {
          "indexed": true,
          "internalType": "address",
          "name": "sender",
          "type": "address"
        }
      ],
      "name": "GroupEnabled",
      "type": "event"
    },
    {
      "anonymous": false,
      "inputs": [
        {
          "indexed": true,
          "internalType": "bytes32",
          "name": "group",
          "type": "bytes32"
        },
        {
          "indexed": true,
          "internalType": "address",
          "name": "sender",
          "type": "address"
        },
        {
          "indexed": false,
          "internalType": "string",
          "name": "name",
          "type": "string"
        },
        {
          "indexed": false,
          "internalType": "bool",
          "name": "isEnabled",
          "type": "bool"
        }
      ],
      "name": "GroupRegistered",
      "type": "event"
    },
    {
      "anonymous": false,
      "inputs": [
        {
          "indexed": true,
          "internalType": "bytes32",
          "name": "group",
          "type": "bytes32"
        },
        {
          "indexed": true,
          "internalType": "bytes32",
          "name": "role",
          "type": "bytes32"
        },
        {
          "indexed": true,
          "internalType": "address",
          "name": "sender",
          "type": "address"
        }
      ],
      "name": "GroupRoleGranted",
      "type": "event"
    },
    {
      "anonymous": false,
      "inputs": [
        {
          "indexed": true,
          "internalType": "bytes32",
          "name": "group",
          "type": "bytes32"
        },
        {
          "indexed": true,
          "internalType": "bytes32",
          "name": "role",
          "type": "bytes32"
        },
        {
          "indexed": true,
          "internalType": "address",
          "name": "sender",
          "type": "address"
        }
      ],
      "name": "GroupRoleRevoked",
      "type": "event"
    },
    {
      "anonymous": false,
      "inputs": [
        {
          "indexed": true,
          "internalType": "address",
          "name": "sender",
          "type": "address"
        },
        {
          "indexed": true,
          "internalType": "address",
          "name": "proxy",
          "type": "address"
        },
        {
          "indexed": true,
          "internalType": "address",
          "name": "subject",
          "type": "address"
        },
        {
          "indexed": false,
          "internalType": "string",
          "name": "name",
          "type": "string"
        },
        {
          "indexed": false,
          "internalType": "string",
          "name": "version",
          "type": "string"
        },
        {
          "indexed": false,
          "internalType": "string",
          "name": "realm",
          "type": "string"
        },
        {
          "indexed": false,
          "internalType": "uint16",
          "name": "initializedCount",
          "type": "uint16"
        }
      ],
      "name": "Initialized",
      "type": "event"
    },
    {
      "anonymous": false,
      "inputs": [
        {
          "indexed": true,
          "internalType": "bytes32",
          "name": "realm",
          "type": "bytes32"
        },
        {
          "indexed": true,
          "internalType": "bytes32",
          "name": "context",
          "type": "bytes32"
        },
        {
          "indexed": true,
          "internalType": "address",
          "name": "sender",
          "type": "address"
        }
      ],
      "name": "RealmContextGranted",
      "type": "event"
    },
    {
      "anonymous": false,
      "inputs": [
        {
          "indexed": true,
          "internalType": "bytes32",
          "name": "realm",
          "type": "bytes32"
        },
        {
          "indexed": true,
          "internalType": "address",
          "name": "sender",
          "type": "address"
        }
      ],
      "name": "RealmDisabled",
      "type": "event"
    },
    {
      "anonymous": false,
      "inputs": [
        {
          "indexed": true,
          "internalType": "bytes32",
          "name": "realm",
          "type": "bytes32"
        },
        {
          "indexed": true,
          "internalType": "address",
          "name": "sender",
          "type": "address"
        }
      ],
      "name": "RealmEnabled",
      "type": "event"
    },
    {
      "anonymous": false,
      "inputs": [
        {
          "indexed": true,
          "internalType": "bytes32",
          "name": "realm",
          "type": "bytes32"
        },
        {
          "indexed": true,
          "internalType": "address",
          "name": "sender",
          "type": "address"
        },
        {
          "indexed": false,
          "internalType": "string",
          "name": "name",
          "type": "string"
        },
        {
          "indexed": false,
          "internalType": "bool",
          "name": "isEnabled",
          "type": "bool"
        }
      ],
      "name": "RealmRegistered",
      "type": "event"
    },
    {
      "anonymous": false,
      "inputs": [
        {
          "indexed": true,
          "internalType": "bytes32",
          "name": "realm",
          "type": "bytes32"
        },
        {
          "indexed": true,
          "internalType": "bytes32",
          "name": "context",
          "type": "bytes32"
        },
        {
          "indexed": true,
          "internalType": "address",
          "name": "sender",
          "type": "address"
        }
      ],
      "name": "RealmRoleRevoked",
      "type": "event"
    },
    {
      "anonymous": false,
      "inputs": [
        {
          "indexed": true,
          "internalType": "bytes32",
          "name": "realm",
          "type": "bytes32"
        },
        {
          "indexed": true,
          "internalType": "address",
          "name": "sender",
          "type": "address"
        }
      ],
      "name": "RealmUpgradeEnabled",
      "type": "event"
    },
    {
      "anonymous": false,
      "inputs": [
        {
          "indexed": true,
          "internalType": "bytes32",
          "name": "role",
          "type": "bytes32"
        },
        {
          "indexed": true,
          "internalType": "address",
          "name": "account",
          "type": "address"
        },
        {
          "indexed": true,
          "internalType": "address",
          "name": "sender",
          "type": "address"
        },
        {
          "indexed": false,
          "internalType": "bytes32",
          "name": "group",
          "type": "bytes32"
        }
      ],
      "name": "RoleAccountGranted",
      "type": "event"
    },
    {
      "anonymous": false,
      "inputs": [
        {
          "indexed": true,
          "internalType": "bytes32",
          "name": "role",
          "type": "bytes32"
        },
        {
          "indexed": true,
          "internalType": "address",
          "name": "account",
          "type": "address"
        },
        {
          "indexed": true,
          "internalType": "address",
          "name": "sender",
          "type": "address"
        },
        {
          "indexed": false,
          "internalType": "bytes32",
          "name": "group",
          "type": "bytes32"
        }
      ],
      "name": "RoleAccountRevoked",
      "type": "event"
    },
    {
      "anonymous": false,
      "inputs": [
        {
          "indexed": true,
          "internalType": "bytes32",
          "name": "role",
          "type": "bytes32"
        },
        {
          "indexed": true,
          "internalType": "address",
          "name": "sender",
          "type": "address"
        },
        {
          "indexed": true,
          "internalType": "bytes32",
          "name": "group",
          "type": "bytes32"
        }
      ],
      "name": "RoleDisabled",
      "type": "event"
    },
    {
      "anonymous": false,
      "inputs": [
        {
          "indexed": true,
          "internalType": "bytes32",
          "name": "role",
          "type": "bytes32"
        },
        {
          "indexed": true,
          "internalType": "address",
          "name": "sender",
          "type": "address"
        },
        {
          "indexed": true,
          "internalType": "bytes32",
          "name": "group",
          "type": "bytes32"
        }
      ],
      "name": "RoleEnabled",
      "type": "event"
    },
    {
      "anonymous": false,
      "inputs": [
        {
          "indexed": true,
          "internalType": "bytes32",
          "name": "role",
          "type": "bytes32"
        },
        {
          "indexed": true,
          "internalType": "string",
          "name": "name",
          "type": "string"
        },
        {
          "indexed": true,
          "internalType": "address",
          "name": "sender",
          "type": "address"
        },
        {
          "indexed": false,
          "internalType": "bytes32",
          "name": "group",
          "type": "bytes32"
        },
        {
          "indexed": false,
          "internalType": "bool",
          "name": "isEnabled",
          "type": "bool"
        }
      ],
      "name": "RoleRegistered",
      "type": "event"
    },
    {
      "anonymous": false,
      "inputs": [
        {
          "indexed": true,
          "internalType": "address",
          "name": "sender",
          "type": "address"
        },
        {
          "indexed": true,
          "internalType": "address",
          "name": "proxy",
          "type": "address"
        },
        {
          "indexed": true,
          "internalType": "bytes32",
          "name": "realm",
          "type": "bytes32"
        },
        {
          "indexed": false,
          "internalType": "bool",
          "name": "value",
          "type": "bool"
        }
      ],
      "name": "UpgradabilityChanged",
      "type": "event"
    },
    {
      "anonymous": false,
      "inputs": [
        {
          "indexed": true,
          "internalType": "address",
          "name": "sender",
          "type": "address"
        },
        {
          "indexed": true,
          "internalType": "address",
          "name": "proxy",
          "type": "address"
        },
        {
          "indexed": true,
          "internalType": "address",
          "name": "newImplementation",
          "type": "address"
        }
      ],
      "name": "Upgraded",
      "type": "event"
    },
    {
      "stateMutability": "payable",
      "type": "fallback"
    },
    {
      "inputs": [],
      "name": "LIVELY_ADMIN_ROLE",
      "outputs": [
        {
          "internalType": "bytes32",
          "name": "",
          "type": "bytes32"
        }
      ],
      "stateMutability": "view",
      "type": "function"
    },
    {
      "inputs": [],
      "name": "LIVELY_GENERAL_GROUP",
      "outputs": [
        {
          "internalType": "bytes32",
          "name": "",
          "type": "bytes32"
        }
      ],
      "stateMutability": "view",
      "type": "function"
    },
    {
      "inputs": [],
      "name": "LIVELY_GENERAL_REALM",
      "outputs": [
        {
          "internalType": "bytes32",
          "name": "",
          "type": "bytes32"
        }
      ],
      "stateMutability": "view",
      "type": "function"
    },
    {
      "inputs": [],
      "name": "LIVELY_SYSTEM_ADMIN_ROLE",
      "outputs": [
        {
          "internalType": "bytes32",
          "name": "",
          "type": "bytes32"
        }
      ],
      "stateMutability": "view",
      "type": "function"
    },
    {
      "inputs": [
        {
          "internalType": "string",
          "name": "name",
          "type": "string"
        },
        {
          "internalType": "bool",
          "name": "isEnabled",
          "type": "bool"
        }
      ],
      "name": "addGroup",
      "outputs": [
        {
          "internalType": "bytes32",
          "name": "",
          "type": "bytes32"
        }
      ],
      "stateMutability": "nonpayable",
      "type": "function"
    },
    {
      "inputs": [
        {
          "internalType": "string",
          "name": "name",
          "type": "string"
        },
        {
          "internalType": "bool",
          "name": "isEnabled",
          "type": "bool"
        }
      ],
      "name": "addRealm",
      "outputs": [
        {
          "internalType": "bytes32",
          "name": "",
          "type": "bytes32"
        }
      ],
      "stateMutability": "nonpayable",
      "type": "function"
    },
    {
      "inputs": [
        {
          "internalType": "string",
          "name": "name",
          "type": "string"
        },
        {
          "internalType": "string",
          "name": "group",
          "type": "string"
        },
        {
          "internalType": "bool",
          "name": "isEnabled",
          "type": "bool"
        }
      ],
      "name": "addRole",
      "outputs": [
        {
          "internalType": "bytes32",
          "name": "",
          "type": "bytes32"
        }
      ],
      "stateMutability": "nonpayable",
      "type": "function"
    },
    {
      "inputs": [],
      "name": "contractName",
      "outputs": [
        {
          "internalType": "string",
          "name": "",
          "type": "string"
        }
      ],
      "stateMutability": "view",
      "type": "function"
    },
    {
      "inputs": [],
      "name": "contractRealm",
      "outputs": [
        {
          "internalType": "string",
          "name": "",
          "type": "string"
        }
      ],
      "stateMutability": "view",
      "type": "function"
    },
    {
      "inputs": [],
      "name": "contractRegisteration",
      "outputs": [
        {
          "internalType": "bool",
          "name": "",
          "type": "bool"
        }
      ],
      "stateMutability": "nonpayable",
      "type": "function"
    },
    {
      "inputs": [],
      "name": "contractVersion",
      "outputs": [
        {
          "internalType": "string",
          "name": "",
          "type": "string"
        }
      ],
      "stateMutability": "view",
      "type": "function"
    },
    {
      "inputs": [
        {
          "internalType": "bytes32",
          "name": "ctx",
          "type": "bytes32"
        }
      ],
      "name": "disableContext",
      "outputs": [
        {
          "internalType": "bool",
          "name": "",
          "type": "bool"
        }
      ],
      "stateMutability": "nonpayable",
      "type": "function"
    },
    {
      "inputs": [
        {
          "internalType": "bytes32",
          "name": "group",
          "type": "bytes32"
        }
      ],
      "name": "disabledGroup",
      "outputs": [
        {
          "internalType": "bool",
          "name": "",
          "type": "bool"
        }
      ],
      "stateMutability": "nonpayable",
      "type": "function"
    },
    {
      "inputs": [
        {
          "internalType": "bytes32",
          "name": "realm",
          "type": "bytes32"
        }
      ],
      "name": "disabledRealm",
      "outputs": [
        {
          "internalType": "bool",
          "name": "",
          "type": "bool"
        }
      ],
      "stateMutability": "nonpayable",
      "type": "function"
    },
    {
      "inputs": [
        {
          "internalType": "bytes32",
          "name": "ctx",
          "type": "bytes32"
        }
      ],
      "name": "enableContext",
      "outputs": [
        {
          "internalType": "bool",
          "name": "",
          "type": "bool"
        }
      ],
      "stateMutability": "nonpayable",
      "type": "function"
    },
    {
      "inputs": [
        {
          "internalType": "bytes32",
          "name": "ctx",
          "type": "bytes32"
        }
      ],
      "name": "enableUpgradeContext",
      "outputs": [
        {
          "internalType": "bool",
          "name": "",
          "type": "bool"
        }
      ],
      "stateMutability": "nonpayable",
      "type": "function"
    },
    {
      "inputs": [
        {
          "internalType": "bytes32",
          "name": "realm",
          "type": "bytes32"
        }
      ],
      "name": "enableUpgradeRealm",
      "outputs": [
        {
          "internalType": "bool",
          "name": "",
          "type": "bool"
        }
      ],
      "stateMutability": "nonpayable",
      "type": "function"
    },
    {
      "inputs": [
        {
          "internalType": "bytes32",
          "name": "group",
          "type": "bytes32"
        }
      ],
      "name": "enabledGroup",
      "outputs": [
        {
          "internalType": "bool",
          "name": "",
          "type": "bool"
        }
      ],
      "stateMutability": "nonpayable",
      "type": "function"
    },
    {
      "inputs": [
        {
          "internalType": "bytes32",
          "name": "realm",
          "type": "bytes32"
        }
      ],
      "name": "enabledRealm",
      "outputs": [
        {
          "internalType": "bool",
          "name": "",
          "type": "bool"
        }
      ],
      "stateMutability": "nonpayable",
      "type": "function"
    },
    {
      "inputs": [],
      "name": "getAdmin",
      "outputs": [
        {
          "internalType": "address",
          "name": "",
          "type": "address"
        }
      ],
      "stateMutability": "view",
      "type": "function"
    },
    {
      "inputs": [],
      "name": "getContext",
      "outputs": [
        {
          "internalType": "bytes32",
          "name": "",
          "type": "bytes32"
        }
      ],
      "stateMutability": "view",
      "type": "function"
    },
    {
      "inputs": [
        {
          "internalType": "bytes32",
          "name": "ctx",
          "type": "bytes32"
        }
      ],
      "name": "getContext",
      "outputs": [
        {
          "internalType": "string",
          "name": "",
          "type": "string"
        },
        {
          "internalType": "string",
          "name": "",
          "type": "string"
        },
        {
          "internalType": "bytes32",
          "name": "",
          "type": "bytes32"
        },
        {
          "internalType": "bool",
          "name": "",
          "type": "bool"
        }
      ],
      "stateMutability": "view",
      "type": "function"
    },
    {
      "inputs": [
        {
          "internalType": "bytes32",
          "name": "ctx",
          "type": "bytes32"
        }
      ],
      "name": "getContextFuncs",
      "outputs": [
        {
          "internalType": "bytes4[]",
          "name": "",
          "type": "bytes4[]"
        }
      ],
      "stateMutability": "view",
      "type": "function"
    },
    {
      "inputs": [
        {
          "internalType": "bytes32",
          "name": "group",
          "type": "bytes32"
        }
      ],
      "name": "getGroup",
      "outputs": [
        {
          "internalType": "string",
          "name": "",
          "type": "string"
        },
        {
          "internalType": "bool",
          "name": "",
          "type": "bool"
        }
      ],
      "stateMutability": "view",
      "type": "function"
    },
    {
      "inputs": [
        {
          "internalType": "bytes32",
          "name": "group",
          "type": "bytes32"
        }
      ],
      "name": "getGroupRoles",
      "outputs": [
        {
          "internalType": "bytes32[]",
          "name": "",
          "type": "bytes32[]"
        }
      ],
      "stateMutability": "view",
      "type": "function"
    },
    {
      "inputs": [],
      "name": "getInitializedCount",
      "outputs": [
        {
          "internalType": "uint16",
          "name": "",
          "type": "uint16"
        }
      ],
      "stateMutability": "view",
      "type": "function"
    },
    {
      "inputs": [
        {
          "internalType": "bytes32",
          "name": "realm",
          "type": "bytes32"
        }
      ],
      "name": "getRealm",
      "outputs": [
        {
          "internalType": "string",
          "name": "",
          "type": "string"
        },
        {
          "internalType": "bool",
          "name": "",
          "type": "bool"
        }
      ],
      "stateMutability": "view",
      "type": "function"
    },
    {
      "inputs": [
        {
          "internalType": "bytes32",
          "name": "realm",
          "type": "bytes32"
        }
      ],
      "name": "getRealmContextes",
      "outputs": [
        {
          "internalType": "bytes32[]",
          "name": "",
          "type": "bytes32[]"
        }
      ],
      "stateMutability": "view",
      "type": "function"
    },
    {
      "inputs": [
        {
          "internalType": "bytes32",
          "name": "role",
          "type": "bytes32"
        }
      ],
      "name": "getRole",
      "outputs": [
        {
          "internalType": "string",
          "name": "",
          "type": "string"
        },
        {
          "internalType": "string",
          "name": "",
          "type": "string"
        },
        {
          "internalType": "bool",
          "name": "",
          "type": "bool"
        }
      ],
      "stateMutability": "view",
      "type": "function"
    },
    {
      "inputs": [
        {
          "internalType": "bytes32",
          "name": "role",
          "type": "bytes32"
        }
      ],
      "name": "getRoleContextes",
      "outputs": [
        {
          "internalType": "bytes32[]",
          "name": "",
          "type": "bytes32[]"
        }
      ],
      "stateMutability": "view",
      "type": "function"
    },
    {
      "inputs": [
        {
          "internalType": "bytes32",
          "name": "role",
          "type": "bytes32"
        }
      ],
      "name": "getRoleUsers",
      "outputs": [
        {
          "internalType": "address[]",
          "name": "",
          "type": "address[]"
        }
      ],
      "stateMutability": "view",
      "type": "function"
    },
    {
      "inputs": [
        {
          "internalType": "bytes32",
          "name": "ctx",
          "type": "bytes32"
        },
        {
          "internalType": "bytes4",
          "name": "functionSelector",
          "type": "bytes4"
        },
        {
          "internalType": "bytes32",
          "name": "role",
          "type": "bytes32"
        }
      ],
      "name": "grantContextRole",
      "outputs": [
        {
          "internalType": "bool",
          "name": "",
          "type": "bool"
        }
      ],
      "stateMutability": "nonpayable",
      "type": "function"
    },
    {
      "inputs": [
        {
          "internalType": "bytes32",
          "name": "group",
          "type": "bytes32"
        },
        {
          "internalType": "bytes32",
          "name": "role",
          "type": "bytes32"
        }
      ],
      "name": "grantGroupRole",
      "outputs": [
        {
          "internalType": "bool",
          "name": "",
          "type": "bool"
        }
      ],
      "stateMutability": "nonpayable",
      "type": "function"
    },
    {
      "inputs": [
        {
          "internalType": "bytes32",
          "name": "realm",
          "type": "bytes32"
        },
        {
          "internalType": "bytes32",
          "name": "context",
          "type": "bytes32"
        }
      ],
      "name": "grantRealmContext",
      "outputs": [
        {
          "internalType": "bool",
          "name": "",
          "type": "bool"
        }
      ],
      "stateMutability": "nonpayable",
      "type": "function"
    },
    {
      "inputs": [
        {
          "internalType": "bytes32",
          "name": "role",
          "type": "bytes32"
        },
        {
          "internalType": "address",
          "name": "account",
          "type": "address"
        }
      ],
      "name": "grantRoleAccount",
      "outputs": [
        {
          "internalType": "bool",
          "name": "",
          "type": "bool"
        }
      ],
      "stateMutability": "nonpayable",
      "type": "function"
    },
    {
      "inputs": [
        {
          "internalType": "bytes32",
          "name": "context",
          "type": "bytes32"
        },
        {
          "internalType": "address",
          "name": "account",
          "type": "address"
        },
        {
          "internalType": "bytes4",
          "name": "signature",
          "type": "bytes4"
        }
      ],
      "name": "hasAccess",
      "outputs": [
        {
          "internalType": "bool",
          "name": "",
          "type": "bool"
        }
      ],
      "stateMutability": "view",
      "type": "function"
    },
    {
      "inputs": [
        {
          "internalType": "bytes32",
          "name": "role",
          "type": "bytes32"
        },
        {
          "internalType": "address",
          "name": "account",
          "type": "address"
        }
      ],
      "name": "hasAccountRole",
      "outputs": [
        {
          "internalType": "bool",
          "name": "",
          "type": "bool"
        }
      ],
      "stateMutability": "view",
      "type": "function"
    },
    {
      "inputs": [
        {
          "internalType": "bytes32",
          "name": "ctx",
          "type": "bytes32"
        },
        {
          "internalType": "bytes32",
          "name": "role",
          "type": "bytes32"
        },
        {
          "internalType": "bytes4",
          "name": "functionSelector",
          "type": "bytes4"
        }
      ],
      "name": "hasContextRole",
      "outputs": [
        {
          "internalType": "bool",
          "name": "",
          "type": "bool"
        }
      ],
      "stateMutability": "view",
      "type": "function"
    },
    {
      "inputs": [
        {
          "internalType": "bytes32",
          "name": "group",
          "type": "bytes32"
        },
        {
          "internalType": "bytes32",
          "name": "role",
          "type": "bytes32"
        }
      ],
      "name": "hasGroupRole",
      "outputs": [
        {
          "internalType": "bool",
          "name": "",
          "type": "bool"
        }
      ],
      "stateMutability": "view",
      "type": "function"
    },
    {
      "inputs": [
        {
          "internalType": "address",
          "name": "account",
          "type": "address"
        }
      ],
      "name": "hasLivelyAdminRole",
      "outputs": [
        {
          "internalType": "bool",
          "name": "",
          "type": "bool"
        }
      ],
      "stateMutability": "view",
      "type": "function"
    },
    {
      "inputs": [
        {
          "internalType": "bytes32",
          "name": "role",
          "type": "bytes32"
        }
      ],
      "name": "hasLivelyGroup",
      "outputs": [
        {
          "internalType": "bool",
          "name": "",
          "type": "bool"
        }
      ],
      "stateMutability": "view",
      "type": "function"
    },
    {
      "inputs": [
        {
          "internalType": "bytes32",
          "name": "context",
          "type": "bytes32"
        }
      ],
      "name": "hasLivelyRealm",
      "outputs": [
        {
          "internalType": "bool",
          "name": "",
          "type": "bool"
        }
      ],
      "stateMutability": "view",
      "type": "function"
    },
    {
      "inputs": [
        {
          "internalType": "bytes32",
          "name": "realm",
          "type": "bytes32"
        },
        {
          "internalType": "bytes32",
          "name": "context",
          "type": "bytes32"
        }
      ],
      "name": "hasRealmContext",
      "outputs": [
        {
          "internalType": "bool",
          "name": "",
          "type": "bool"
        }
      ],
      "stateMutability": "view",
      "type": "function"
    },
    {
      "inputs": [
        {
          "internalType": "address",
          "name": "account",
          "type": "address"
        }
      ],
      "name": "hasSystemAdminRole",
      "outputs": [
        {
          "internalType": "bool",
          "name": "",
          "type": "bool"
        }
      ],
      "stateMutability": "view",
      "type": "function"
    },
    {
      "inputs": [
        {
          "internalType": "string",
          "name": "domainName",
          "type": "string"
        },
        {
          "internalType": "string",
          "name": "domainVersion",
          "type": "string"
        },
        {
          "internalType": "string",
          "name": "domainRealm",
          "type": "string"
        },
        {
          "internalType": "address",
          "name": "acl",
          "type": "address"
        }
      ],
      "name": "initialize",
      "outputs": [],
      "stateMutability": "nonpayable",
      "type": "function"
    },
    {
      "inputs": [],
      "name": "isActivated",
      "outputs": [
        {
          "internalType": "bool",
          "name": "",
          "type": "bool"
        }
      ],
      "stateMutability": "view",
      "type": "function"
    },
    {
      "inputs": [
        {
          "internalType": "bytes32",
          "name": "context",
          "type": "bytes32"
        }
      ],
      "name": "isEnabled",
      "outputs": [
        {
          "internalType": "bool",
          "name": "",
          "type": "bool"
        }
      ],
      "stateMutability": "view",
      "type": "function"
    },
    {
      "inputs": [],
      "name": "isInitializing",
      "outputs": [
        {
          "internalType": "bool",
          "name": "",
          "type": "bool"
        }
      ],
      "stateMutability": "view",
      "type": "function"
    },
    {
      "inputs": [],
      "name": "isUpgradable",
      "outputs": [
        {
          "internalType": "bool",
          "name": "",
          "type": "bool"
        }
      ],
      "stateMutability": "view",
      "type": "function"
    },
    {
      "inputs": [
        {
          "internalType": "bytes32",
          "name": "context",
          "type": "bytes32"
        }
      ],
      "name": "isUpgradeEnabled",
      "outputs": [
        {
          "internalType": "bool",
          "name": "",
          "type": "bool"
        }
      ],
      "stateMutability": "view",
      "type": "function"
    },
    {
      "inputs": [],
      "name": "proxiableUUID",
      "outputs": [
        {
          "internalType": "bytes32",
          "name": "",
          "type": "bytes32"
        }
      ],
      "stateMutability": "view",
      "type": "function"
    },
    {
      "inputs": [
        {
          "components": [
            {
              "internalType": "bytes32",
              "name": "realm",
              "type": "bytes32"
            },
            {
              "internalType": "address",
              "name": "smca",
              "type": "address"
            }
          ],
          "internalType": "struct IContextManagement.RequestContext",
          "name": "rc",
          "type": "tuple"
        },
        {
          "components": [
            {
              "internalType": "bytes32",
              "name": "role",
              "type": "bytes32"
            },
            {
              "internalType": "bytes4[]",
              "name": "funcSelectors",
              "type": "bytes4[]"
            }
          ],
          "internalType": "struct IContextManagement.RequestContextResource[]",
          "name": "rcr",
          "type": "tuple[]"
        }
      ],
      "name": "registerContext",
      "outputs": [
        {
          "internalType": "bytes32",
          "name": "",
          "type": "bytes32"
        }
      ],
      "stateMutability": "nonpayable",
      "type": "function"
    },
    {
      "inputs": [
        {
          "internalType": "bytes32",
          "name": "ctx",
          "type": "bytes32"
        },
        {
          "internalType": "bytes4",
          "name": "functionSelector",
          "type": "bytes4"
        },
        {
          "internalType": "bytes32",
          "name": "role",
          "type": "bytes32"
        }
      ],
      "name": "revokeContextRole",
      "outputs": [
        {
          "internalType": "bool",
          "name": "",
          "type": "bool"
        }
      ],
      "stateMutability": "nonpayable",
      "type": "function"
    },
    {
      "inputs": [
        {
          "internalType": "bytes32",
          "name": "group",
          "type": "bytes32"
        },
        {
          "internalType": "bytes32",
          "name": "role",
          "type": "bytes32"
        }
      ],
      "name": "revokeGroupRole",
      "outputs": [
        {
          "internalType": "bool",
          "name": "",
          "type": "bool"
        }
      ],
      "stateMutability": "nonpayable",
      "type": "function"
    },
    {
      "inputs": [
        {
          "internalType": "bytes32",
          "name": "realm",
          "type": "bytes32"
        },
        {
          "internalType": "bytes32",
          "name": "context",
          "type": "bytes32"
        }
      ],
      "name": "revokeRealmContext",
      "outputs": [
        {
          "internalType": "bool",
          "name": "",
          "type": "bool"
        }
      ],
      "stateMutability": "nonpayable",
      "type": "function"
    },
    {
      "inputs": [
        {
          "internalType": "bytes32",
          "name": "role",
          "type": "bytes32"
        },
        {
          "internalType": "address",
          "name": "account",
          "type": "address"
        }
      ],
      "name": "revokeRoleAccount",
      "outputs": [
        {
          "internalType": "bool",
          "name": "",
          "type": "bool"
        }
      ],
      "stateMutability": "nonpayable",
      "type": "function"
    },
    {
      "inputs": [
        {
          "internalType": "bool",
          "name": "value",
          "type": "bool"
        }
      ],
      "name": "setActivity",
      "outputs": [
        {
          "internalType": "bool",
          "name": "",
          "type": "bool"
        }
      ],
      "stateMutability": "nonpayable",
      "type": "function"
    },
    {
      "inputs": [
        {
          "internalType": "address",
          "name": "newAdmin",
          "type": "address"
        }
      ],
      "name": "setAdmin",
      "outputs": [
        {
          "internalType": "bool",
          "name": "",
          "type": "bool"
        }
      ],
      "stateMutability": "nonpayable",
      "type": "function"
    },
    {
      "inputs": [
        {
          "internalType": "bytes32",
          "name": "role",
          "type": "bytes32"
        }
      ],
      "name": "setDisabledRole",
      "outputs": [
        {
          "internalType": "bool",
          "name": "",
          "type": "bool"
        }
      ],
      "stateMutability": "nonpayable",
      "type": "function"
    },
    {
      "inputs": [
        {
          "internalType": "bytes32",
          "name": "role",
          "type": "bytes32"
        }
      ],
      "name": "setEnabledRole",
      "outputs": [
        {
          "internalType": "bool",
          "name": "",
          "type": "bool"
        }
      ],
      "stateMutability": "nonpayable",
      "type": "function"
    },
    {
      "inputs": [
        {
          "internalType": "bool",
          "name": "value",
          "type": "bool"
        }
      ],
      "name": "setUpgradability",
      "outputs": [
        {
          "internalType": "bool",
          "name": "",
          "type": "bool"
        }
      ],
      "stateMutability": "nonpayable",
      "type": "function"
    },
    {
      "inputs": [],
      "name": "subjectAddress",
      "outputs": [
        {
          "internalType": "address",
          "name": "",
          "type": "address"
        }
      ],
      "stateMutability": "view",
      "type": "function"
    },
    {
      "inputs": [
        {
          "internalType": "bytes4",
          "name": "interfaceId",
          "type": "bytes4"
        }
      ],
      "name": "supportsInterface",
      "outputs": [
        {
          "internalType": "bool",
          "name": "",
          "type": "bool"
        }
      ],
      "stateMutability": "view",
      "type": "function"
    },
    {
      "inputs": [
        {
          "components": [
            {
              "internalType": "bytes32",
              "name": "realm",
              "type": "bytes32"
            },
            {
              "internalType": "address",
              "name": "smca",
              "type": "address"
            }
          ],
          "internalType": "struct IContextManagement.RequestContext",
          "name": "rc",
          "type": "tuple"
        },
        {
          "components": [
            {
              "internalType": "bytes32",
              "name": "role",
              "type": "bytes32"
            },
            {
              "internalType": "bytes4[]",
              "name": "funcSelectors",
              "type": "bytes4[]"
            }
          ],
          "internalType": "struct IContextManagement.RequestContextResource[]",
          "name": "rcr",
          "type": "tuple[]"
        }
      ],
      "name": "updateContext",
      "outputs": [
        {
          "internalType": "bytes32",
          "name": "",
          "type": "bytes32"
        }
      ],
      "stateMutability": "nonpayable",
      "type": "function"
    },
    {
      "inputs": [
        {
          "internalType": "address",
          "name": "newImplementation",
          "type": "address"
        },
        {
          "internalType": "bytes",
          "name": "data",
          "type": "bytes"
        },
        {
          "internalType": "bool",
          "name": "forceInitCall",
          "type": "bool"
        }
      ],
      "name": "upgradeTo",
      "outputs": [
        {
          "internalType": "bytes",
          "name": "",
          "type": "bytes"
        }
      ],
      "stateMutability": "nonpayable",
      "type": "function"
    },
    {
      "stateMutability": "payable",
      "type": "receive"
    }
  ],
  "transactionHash": "0x2157049b1f6c24ddf08950cf54c6520b2944d5376b7dcade081c146ae0c1e9d1",
  "args": [],
  "numDeployments": 1,
  "solcInputHash": "7be07c83dcb00354504426619b24f6c5",
  "bytecode": "0x60a0604052306080523480156200001557600080fd5b5033620000507fb53127684a568b3173ae13b9f8a6016e243e63b6e8ee1178d6a717850b5d610360001b6200007f60201b6200160f1760201c565b80546001600160a01b0319166001600160a01b03929092169190911790556004805461ffff1916905562000082565b90565b608051612c15620000e460003960008181610d0001528181610d4001528181610e7a01528181610eba015281816111810152818161131d0152818161135d0152818161146f015281816114af0152818161193701526119770152612c156000f3fe6080604052600436106103d25760003560e01c80636fb63dca116101fd578063c34dd6a111610118578063df01de45116100ab578063f28f30921161007a578063f28f309214610829578063f34b220214610829578063f5122c9214610829578063fb72237d1461041e578063fdba6b171461041e576103e1565b8063df01de4514610686578063ea3779871461041e578063edf1d1cb14610555578063f254453b1461041e576103e1565b8063d545594f116100e7578063d545594f1461041e578063d8b31999146108c4578063d97f9e5d1461041e578063d9aba36e14610829576103e1565b8063c34dd6a114610829578063c3f1f22d1461041e578063c7ab39e61461088b578063d3e024b8146108af576103e1565b80639dd0725411610190578063b386033f1161015f578063b386033f1461074b578063b567d4ba14610859578063b879bdfb14610859578063c2f6167a146105d7576103e1565b80639dd07254146108095780639f8e37bb14610829578063a0a8e46014610844578063ac7e7c671461041e576103e1565b8063771bcf45116101cc578063771bcf451461059b5780638b480975146107c85780638f09e0f01461068657806396a9b471146107ee576103e1565b80636fb63dca1461074b578063704b6c02146107665780637147855d1461078657806375d0c0dc146107b3576103e1565b80633ec91f05116102ed57806358dbc45d116102805780636ac58ac11161024f5780636ac58ac1146106d15780636b3b0159146106e65780636e8eb7bc146107015780636e9960c314610736576103e1565b806358dbc45d146106395780635c6d8da1146106665780635dd0a7db146106865780636217088f146106a9576103e1565b806352d1902d116102bc57806352d1902d146105f25780635472e25e146105555780635479d940146106075780635632ffd814610624576103e1565b80633ec91f051461057d5780634346a04b1461059b5780634a8c1fb4146105bf5780634f2eca98146105d7576103e1565b8063178cf4bb1161036557806320dd27af1161033457806320dd27af146104da57806329b2be01146104ef5780632e2adf00146105275780632f67173314610555576103e1565b8063178cf4bb146104a25780631cc032cf146104c55780631e26521a1461041e57806320c877071461041e576103e1565b80630d1ee1bd116103a15780630d1ee1bd1461041e578063127f0f071461046d57806312c1a08e1461041e578063133899f514610482576103e1565b806301ffc9a7146103e95780630610e0371461041e57806309d4a9071461041e5780630c9a90741461043f576103e1565b366103e1576103df6108d9565b005b6103df6108d9565b3480156103f557600080fd5b50610409610404366004612150565b6108eb565b60405190151581526020015b60405180910390f35b34801561042a57600080fd5b5061040961043936600461216b565b50600090565b34801561044b57600080fd5b5061045f61045a366004612184565b61093d565b604051908152602001610415565b34801561047957600080fd5b5061045f610ce4565b34801561048e57600080fd5b5061040961049d36600461222b565b610cf4565b3480156104ae57600080fd5b5060455460405161ffff9091168152602001610415565b3480156104d157600080fd5b50610409610e6e565b3480156104e657600080fd5b5061045f611137565b3480156104fb57600080fd5b5061051761050a36600461216b565b6060806000809193509193565b60405161041594939291906122a4565b34801561053357600080fd5b5061054861054236600461216b565b50606090565b60405161041591906122e2565b34801561056157600080fd5b5061057061054236600461216b565b6040516104159190612330565b34801561058957600080fd5b5060455462010000900460ff16610409565b3480156105a757600080fd5b506104096105b6366004612368565b60009392505050565b3480156105cb57600080fd5b5060045460ff16610409565b3480156105e357600080fd5b506104096104393660046123b4565b3480156105fe57600080fd5b5061045f611174565b34801561061357600080fd5b50600454610100900460ff16610409565b34801561063057600080fd5b5061045f611201565b34801561064557600080fd5b5061064e611232565b6040516001600160a01b039091168152602001610415565b34801561067257600080fd5b506103df610681366004612418565b61123c565b34801561069257600080fd5b506104096106a13660046124c3565b600092915050565b3480156106b557600080fd5b506106c461054236600461216b565b60405161041591906124ef565b3480156106dd57600080fd5b5061045f6112cc565b3480156106f257600080fd5b506104096105b6366004612530565b34801561070d57600080fd5b5061072761071c36600461216b565b506060908190600090565b60405161041593929190612565565b34801561074257600080fd5b5061064e6112f4565b34801561075757600080fd5b5061045f6105b636600461259d565b34801561077257600080fd5b506104096107813660046123b4565b6112fe565b34801561079257600080fd5b506107a66107a136600461260a565b611311565b60405161041591906126d3565b3480156107bf57600080fd5b506107a66113d1565b3480156107d457600080fd5b5061045f6107e33660046126e6565b600095945050505050565b3480156107fa57600080fd5b5061045f6105b6366004612184565b34801561081557600080fd5b5061040961082436600461222b565b611463565b34801561083557600080fd5b506104096106a136600461276a565b34801561085057600080fd5b506107a66115cc565b34801561086557600080fd5b5061087d61087436600461216b565b60606000915091565b60405161041592919061278c565b34801561089757600080fd5b506104096108a63660046127b0565b60019392505050565b3480156108bb57600080fd5b506107a66115db565b3480156108d057600080fd5b5061045f6115ea565b6108e96108e4611612565b611633565b565b60006001600160e01b031982166315ee8bab60e31b148061091c57506001600160e01b031982166352d1902d60e01b145b8061093757506301ffc9a760e01b6001600160e01b03198316145b92915050565b600061094f60408501602086016123b4565b6001600160a01b0316336001600160a01b0316146109885760405162461bcd60e51b815260040161097f906127e3565b60405180910390fd5b8335600090815260896020526040902080546109a39061281a565b90506000036109e65760405162461bcd60e51b815260206004820152600f60248201526e1499585b1b48139bdd08119bdd5b99608a1b604482015260640161097f565b6000610a006109fb60408701602088016123b4565b61165c565b6000818152608760205260409020600101549091506001600160a01b031615610a6b5760405162461bcd60e51b815260206004820152601a60248201527f436f6e7465787420416c72656164792052656769737465726564000000000000604482015260640161097f565b6000818152608760209081526040918290208735815591610a91919088019088016123b4565b6001820180546001600160a01b0319166001600160a01b039290921691909117905560005b84811015610c825760886000878784818110610ad457610ad4612854565b9050602002810190610ae6919061286a565b35815260208101919091526040016000208054610b029061281a565b9050600003610b445760405162461bcd60e51b815260206004820152600e60248201526d149bdb1948139bdd08119bdd5b9960921b604482015260640161097f565b60005b868683818110610b5957610b59612854565b9050602002810190610b6b919061286a565b610b7990602081019061288a565b9050811015610c6f576001836002016000898986818110610b9c57610b9c612854565b9050602002810190610bae919061286a565b610bbc90602081019061288a565b85818110610bcc57610bcc612854565b9050602002016020810190610be19190612150565b6001600160e01b03191681526020019081526020016000206000898986818110610c0d57610c0d612854565b9050602002810190610c1f919061286a565b3581526020810191909152604001600020805460ff19166001836002811115610c4a57610c4a6128d4565b0217905550610c5c6003840185611690565b5080610c67816128ea565b915050610b47565b5080610c7a816128ea565b915050610ab6565b5033610c9460408801602089016123b4565b6001600160a01b0316837f11cf8f3561fae187c57df59424ecf5d3f444e138924944c77dcb68144c6357318960000135604051610cd391815260200190565b60405180910390a450509392505050565b6000610cef3061165c565b905090565b60006001600160a01b037f0000000000000000000000000000000000000000000000000000000000000000163003610d3e5760405162461bcd60e51b815260040161097f90612911565b7f00000000000000000000000000000000000000000000000000000000000000006001600160a01b0316610d70611612565b6001600160a01b031614610d965760405162461bcd60e51b815260040161097f90612940565b610da663133899f560e01b61169c565b610df25760405162461bcd60e51b815260206004820152601e60248201527f4368616e6765205570677261646162696c69747920466f7262696464656e0000604482015260640161097f565b6004805461ff00191661010084151502179055604051610e179060039060200161296e565b60408051808303601f19018152908290528051602091820120841515835291309133917fc6897d79f339058b761ed7563fa04b4f4bdda8dab073af53173e440326e4a95191015b60405180910390a450805b919050565b60006001600160a01b037f0000000000000000000000000000000000000000000000000000000000000000163003610eb85760405162461bcd60e51b815260040161097f90612911565b7f00000000000000000000000000000000000000000000000000000000000000006001600160a01b0316610eea611612565b6001600160a01b031614610f105760405162461bcd60e51b815260040161097f90612940565b33610f19611726565b6001600160a01b031614610f675760405162461bcd60e51b815260206004820152601560248201527410d85b1b195c88139bdd08105d5d1a1bdc9a5e9959605a1b604482015260640161097f565b600060405180604001604052806003604051602001610f86919061296e565b60408051808303601f1901815291815281516020928301208352309282019290925281518083018352600081526060818301528251704c4956454c595f41444d494e5f524f4c4560781b81840152835160118183030181526031909101845280519083012081528251600a808252610160820190945293945092919082016101408036833750505060208201819052805163133899f560e01b919060009061103057611030612854565b6001600160e01b031990921660209283029190910182015281015180516327741c9560e21b9190600190811061106857611068612854565b6001600160e01b03199092166020928302919091018201528101518051633825b60160e11b919060029081106110a0576110a0612854565b6001600160e01b03199092166020928302919091018201528101518051637147855d60e01b919060039081106110d8576110d8612854565b6001600160e01b03199092166020928302919091018201528101518051635c6d8da160e01b9190600490811061111057611110612854565b60200260200101906001600160e01b03191690816001600160e01b03191681525050505090565b604051734c4956454c595f47454e4552414c5f5245414c4d60601b60208201526034015b6040516020818303038152906040528051906020012081565b6000306001600160a01b037f000000000000000000000000000000000000000000000000000000000000000016146111ee5760405162461bcd60e51b815260206004820152601e60248201527f496c6c656167616c20436f6e74726163742044656c656761746563616c6c0000604482015260640161097f565b50600080516020612bc083398151915290565b6040517f4c4956454c595f53595354454d5f41444d494e5f524f4c450000000000000000602082015260380161115b565b6000610cef611612565b6000611248600161174e565b90508015611262576045805462ff00001916620100001790555b6112a06040518060400160405280601881526020017f696e697469616c697a652063616c6c6564202e202e202e20000000000000000081525061183d565b6112af88888888888888611883565b80156112c2576045805462ff0000191690555b5050505050505050565b6040517304c4956454c595f47454e4552414c5f47524f55560641b602082015260340161115b565b6000610cef611726565b60006113098261192d565b506001919050565b60606001600160a01b037f000000000000000000000000000000000000000000000000000000000000000016300361135b5760405162461bcd60e51b815260040161097f90612911565b7f00000000000000000000000000000000000000000000000000000000000000006001600160a01b031661138d611612565b6001600160a01b0316146113b35760405162461bcd60e51b815260040161097f90612940565b6113bc84611b21565b6113c7848484611b7d565b90505b9392505050565b6060600180546113e09061281a565b80601f016020809104026020016040519081016040528092919081815260200182805461140c9061281a565b80156114595780601f1061142e57610100808354040283529160200191611459565b820191906000526020600020905b81548152906001019060200180831161143c57829003601f168201915b5050505050905090565b60006001600160a01b037f00000000000000000000000000000000000000000000000000000000000000001630036114ad5760405162461bcd60e51b815260040161097f90612911565b7f00000000000000000000000000000000000000000000000000000000000000006001600160a01b03166114df611612565b6001600160a01b0316146115055760405162461bcd60e51b815260040161097f90612940565b6115156327741c9560e21b61169c565b6115615760405162461bcd60e51b815260206004820152601a60248201527f4368616e67656420416374697669747920466f7262696464656e000000000000604482015260640161097f565b6004805460ff19168315151790556040516115819060039060200161296e565b60408051808303601f19018152908290528051602091820120841515835291309133917f139c91c652708a87d9a40a2cbfb6d5d37c20d1dcd2a75b2d0c09b59a214474bc9101610e5e565b6060600280546113e09061281a565b6060600380546113e09061281a565b604051704c4956454c595f41444d494e5f524f4c4560781b602082015260310161115b565b90565b6000600080516020612bc08339815191525b546001600160a01b0316919050565b3660008037600080366000845af43d6000803e808015611652573d6000f35b3d6000fd5b505050565b604080516001600160a01b038316602082015260009101604051602081830303815290604052805190602001209050919050565b60006113ca8383611d2c565b600080546001600160a01b031663c7ab39e66116b73061165c565b6040516001600160e01b031960e084901b8116825260048201929092523360248201529085166044820152606401602060405180830381865afa158015611702573d6000803e3d6000fd5b505050506040513d601f19601f8201168201806040525081019061093791906129e4565b60007fb53127684a568b3173ae13b9f8a6016e243e63b6e8ee1178d6a717850b5d6103611624565b60455460009062010000900460ff16156117c9578161ffff1660011480156117755750303b155b6117c15760405162461bcd60e51b815260206004820152601c60248201527f436f6e747261637420416c726561647920496e697469616c697a656400000000604482015260640161097f565b506000919050565b60455461ffff8084169116106118215760405162461bcd60e51b815260206004820152601a60248201527f496c6c6567616c20496e697469616c697a652056657273696f6e000000000000604482015260640161097f565b506045805461ffff191661ffff92909216919091179055600190565b6118808160405160240161185191906126d3565b60408051601f198184030181529190526020810180516001600160e01b031663104c13eb60e21b179052611d7b565b50565b60455462010000900460ff166118d75760405162461bcd60e51b8152602060048201526019602482015278436f6e7472616374204e6f7420496e697469616c697a696e6760381b604482015260640161097f565b6119156040518060400160405280601e81526020017f5f5f424153455f555550535f696e69742063616c6c6564202e202e202e20000081525061183d565b61192487878787878787611d9c565b50505050505050565b6001600160a01b037f00000000000000000000000000000000000000000000000000000000000000001630036119755760405162461bcd60e51b815260040161097f90612911565b7f00000000000000000000000000000000000000000000000000000000000000006001600160a01b03166119a7611612565b6001600160a01b0316146119cd5760405162461bcd60e51b815260040161097f90612940565b60045460ff166119ef5760405162461bcd60e51b815260040161097f90612a01565b6119ff633825b60160e11b61169c565b611a4b5760405162461bcd60e51b815260206004820152601b60248201527f4368616e67652050726f787941646d696e20466f7262696464656e0000000000604482015260640161097f565b6001600160a01b038116611a935760405162461bcd60e51b815260206004820152600f60248201526e1059191c995cdcc8125b9d985b1a59608a1b604482015260640161097f565b30337f69feba90503661246e4691cb2fe465cc9acb27d5ae05f8b48a57eefa7c726fb1611abe611726565b604080516001600160a01b03928316815291861660208301520160405180910390a37fb53127684a568b3173ae13b9f8a6016e243e63b6e8ee1178d6a717850b5d610380546001600160a01b0319166001600160a01b0392909216919091179055565b611b31637147855d60e01b61169c565b6118805760405162461bcd60e51b815260206004820152601f60248201527f436f6e74657874205570677261646162696c69747920466f7262696464656e00604482015260640161097f565b60607f4910fdfa16fed3260ed0e7147f7cc6da11a60208b5b9406d12a635614ffd91435460ff1615611c1757600454610100900460ff16611bf95760405162461bcd60e51b8152602060048201526016602482015275436f6e74657874204e6f742055706772616461626c6560501b604482015260640161097f565b611c0284611e50565b506040805160008152602081019091526113ca565b836001600160a01b03166352d1902d6040518163ffffffff1660e01b8152600401602060405180830381865afa925050508015611c71575060408051601f3d908101601f19168201909252611c6e91810190612a30565b60015b611cb15760405162461bcd60e51b8152602060048201526011602482015270436f6e7472616374204e6f74205555505360781b604482015260640161097f565b600080516020612bc08339815191528114611d195760405162461bcd60e51b815260206004820152602260248201527f436f6e747261637420556e737570706f727465642070726f786961626c655555604482015261125160f21b606482015260840161097f565b50611d25848484611f04565b90506113ca565b6000818152600183016020526040812054611d7357508154600181810184556000848152602080822090930184905584548482528286019093526040902091909155610937565b506000610937565b80516a636f6e736f6c652e6c6f67602083016000808483855afa5050505050565b60455462010000900460ff16611df05760405162461bcd60e51b8152602060048201526019602482015278436f6e7472616374204e6f7420496e697469616c697a696e6760381b604482015260640161097f565b6001611dfd878983612a97565b506002611e0b858783612a97565b506003611e19838583612a97565b50600080546001600160a01b0319166001600160a01b039290921691909117905550506004805461ffff1916600117905550505050565b60045460ff16611e725760405162461bcd60e51b815260040161097f90612a01565b6001600160a01b0381163b611e995760405162461bcd60e51b815260040161097f906127e3565b611eba6040518060600160405280602b8152602001612b95602b913961183d565b600080516020612bc083398151915280546001600160a01b0319166001600160a01b0383161790556040805160608101909152602a8082526118809190612b6b602083013961183d565b6060611f0f84611f80565b600083511180611f1c5750815b15611f6957611f5f6040518060400160405280601f81526020017f6e6577496d706c656d656e746174696f6e2063616c6c6564202e202e202e200081525061183d565b611d258484612014565b505060408051600081526020810190915292915050565b600454610100900460ff16611fd05760405162461bcd60e51b8152602060048201526016602482015275436f6e74657874204e6f742055706772616461626c6560501b604482015260640161097f565b611fd981611e50565b6040516001600160a01b03821690309033907f354bd4b6eb65d64e6c79c53fa4f983a5e6bec4824ce4627c71be0b2722f4917e90600090a450565b60045460609060ff166120395760405162461bcd60e51b815260040161097f90612a01565b6001600160a01b0383163b6120605760405162461bcd60e51b815260040161097f906127e3565b600080846001600160a01b03168460405161207b9190612b58565b600060405180830381855af49150503d80600081146120b6576040519150601f19603f3d011682016040523d82523d6000602084013e6120bb565b606091505b50915091506120f682826040518060400160405280601381526020017211195b1959d85d1958d85b1b0811985a5b1959606a1b8152506120ff565b95945050505050565b6060831561210e5750816113ca565b82511561211e5782518084602001fd5b8160405162461bcd60e51b815260040161097f91906126d3565b80356001600160e01b031981168114610e6957600080fd5b60006020828403121561216257600080fd5b6113ca82612138565b60006020828403121561217d57600080fd5b5035919050565b6000806000838503606081121561219a57600080fd5b60408112156121a857600080fd5b50839250604084013567ffffffffffffffff808211156121c757600080fd5b818601915086601f8301126121db57600080fd5b8135818111156121ea57600080fd5b8760208260051b85010111156121ff57600080fd5b6020830194508093505050509250925092565b801515811461188057600080fd5b8035610e6981612212565b60006020828403121561223d57600080fd5b81356113ca81612212565b60005b8381101561226357818101518382015260200161224b565b83811115612272576000848401525b50505050565b60008151808452612290816020860160208601612248565b601f01601f19169290920160200192915050565b6080815260006122b76080830187612278565b82810360208401526122c98187612278565b6040840195909552505090151560609091015292915050565b6020808252825182820181905260009190848201906040850190845b818110156123245783516001600160e01b031916835292840192918401916001016122fe565b50909695505050505050565b6020808252825182820181905260009190848201906040850190845b818110156123245783518352928401929184019160010161234c565b60008060006060848603121561237d57600080fd5b8335925061238d60208501612138565b9150604084013590509250925092565b80356001600160a01b0381168114610e6957600080fd5b6000602082840312156123c657600080fd5b6113ca8261239d565b60008083601f8401126123e157600080fd5b50813567ffffffffffffffff8111156123f957600080fd5b60208301915083602082850101111561241157600080fd5b9250929050565b60008060008060008060006080888a03121561243357600080fd5b873567ffffffffffffffff8082111561244b57600080fd5b6124578b838c016123cf565b909950975060208a013591508082111561247057600080fd5b61247c8b838c016123cf565b909750955060408a013591508082111561249557600080fd5b506124a28a828b016123cf565b90945092506124b590506060890161239d565b905092959891949750929550565b600080604083850312156124d657600080fd5b823591506124e66020840161239d565b90509250929050565b6020808252825182820181905260009190848201906040850190845b818110156123245783516001600160a01b03168352928401929184019160010161250b565b60008060006060848603121561254557600080fd5b833592506020840135915061255c60408501612138565b90509250925092565b6060815260006125786060830186612278565b828103602084015261258a8186612278565b9150508215156040830152949350505050565b6000806000604084860312156125b257600080fd5b833567ffffffffffffffff8111156125c957600080fd5b6125d5868287016123cf565b90945092505060208401356125e981612212565b809150509250925092565b634e487b7160e01b600052604160045260246000fd5b60008060006060848603121561261f57600080fd5b6126288461239d565b9250602084013567ffffffffffffffff8082111561264557600080fd5b818601915086601f83011261265957600080fd5b81358181111561266b5761266b6125f4565b604051601f8201601f19908116603f01168101908382118183101715612693576126936125f4565b816040528281528960208487010111156126ac57600080fd5b82602086016020830137600060208483010152809650505050505061255c60408501612220565b6020815260006113ca6020830184612278565b6000806000806000606086880312156126fe57600080fd5b853567ffffffffffffffff8082111561271657600080fd5b61272289838a016123cf565b9097509550602088013591508082111561273b57600080fd5b50612748888289016123cf565b909450925050604086013561275c81612212565b809150509295509295909350565b6000806040838503121561277d57600080fd5b50508035926020909101359150565b60408152600061279f6040830185612278565b905082151560208301529392505050565b6000806000606084860312156127c557600080fd5b833592506127d56020850161239d565b915061255c60408501612138565b60208082526018908201527f496c6c6567616c20436f6e747261637420416464726573730000000000000000604082015260600190565b600181811c9082168061282e57607f821691505b60208210810361284e57634e487b7160e01b600052602260045260246000fd5b50919050565b634e487b7160e01b600052603260045260246000fd5b60008235603e1983360301811261288057600080fd5b9190910192915050565b6000808335601e198436030181126128a157600080fd5b83018035915067ffffffffffffffff8211156128bc57600080fd5b6020019150600581901b360382131561241157600080fd5b634e487b7160e01b600052602160045260246000fd5b60006001820161290a57634e487b7160e01b600052601160045260246000fd5b5060010190565b602080825260159082015274125b1b1959d85b0810dbdb9d1c9858dd0810d85b1b605a1b604082015260600190565b602080825260149082015273141c9bde1e4810d85b1b195908125b9d985b1a5960621b604082015260600190565b600080835461297c8161281a565b6001828116801561299457600181146129a9576129d8565b60ff19841687528215158302870194506129d8565b8760005260208060002060005b858110156129cf5781548a8201529084019082016129b6565b50505082870194505b50929695505050505050565b6000602082840312156129f657600080fd5b81516113ca81612212565b60208082526015908201527410dbdb9d195e1d08139bdd081058dd1a5d985d1959605a1b604082015260600190565b600060208284031215612a4257600080fd5b5051919050565b601f82111561165757600081815260208120601f850160051c81016020861015612a705750805b601f850160051c820191505b81811015612a8f57828155600101612a7c565b505050505050565b67ffffffffffffffff831115612aaf57612aaf6125f4565b612ac383612abd835461281a565b83612a49565b6000601f841160018114612af75760008515612adf5750838201355b600019600387901b1c1916600186901b178355612b51565b600083815260209020601f19861690835b82811015612b285786850135825560209485019460019092019101612b08565b5086821015612b455760001960f88860031b161c19848701351681555b505060018560011b0183555b5050505050565b6000825161288081846020870161224856fe616674657220736574205f736574496d706c656d656e746174696f6e2063616c6c6564202e202e202e206265666f726520736574205f736574496d706c656d656e746174696f6e2063616c6c6564202e202e202e20360894a13ba1a3210667c828492db98dca3e2076cc3735a920a3ca505d382bbca26469706673582212201970d1a6fcd9f9492cf0f95548592eaf86d13e5d53305246dd5d387c62f0975e64736f6c634300080f0033",
  "devdoc": {
    "kind": "dev",
    "methods": {
      "grantRoleAccount(bytes32,address)": {
        "details": "Grants `role` to `account`. If `account` had not been already granted `role`, emits a {RoleGranted} event. Requirements: - the caller must have ``role``'s admin role."
      },
      "hasAccess(bytes32,address,bytes4)": {
        "details": "Function called by apps to check ACL on kernel or to check permission status",
        "returns": {
          "_0": "boolean indicating whether the ACL allows the role or not"
        }
      },
      "hasAccountRole(bytes32,address)": {
        "details": "Returns `true` if `account` has been granted `role`."
      },
      "proxiableUUID()": {
        "details": "Implementation of the ERC1822 {proxiableUUID} function. This returns the storage slot used by the implementation. It is used to validate that the this implementation remains valid after an upgrade. IMPORTANT: A proxy pointing at a proxiable contract should not be considered proxiable itself, because this risks bricking a proxy that upgrades to it, by delegating to itself until out of gas. Thus it is critical that this function revert if invoked through a proxy. This is guaranteed by the `notDelegated` modifier."
      },
      "revokeRoleAccount(bytes32,address)": {
        "details": "Revokes `role` from `account`. If `account` had been granted `role`, emits a {RoleRevoked} event. Requirements: - the caller must have ``role``'s admin role."
      },
      "supportsInterface(bytes4)": {
        "details": "See {IERC165-supportsInterface}."
      }
    },
    "version": 1
  },
  "userdoc": {
    "kind": "user",
    "methods": {},
    "version": 1
  },
  "storageLayout": {
    "storage": [
      {
        "astId": 12004,
        "contract": "src/contracts/acl/AccessControlManager.sol:AccessControlManager",
        "label": "_accessCtrlManager",
        "offset": 0,
        "slot": "0",
        "type": "t_address"
      },
      {
        "astId": 12006,
        "contract": "src/contracts/acl/AccessControlManager.sol:AccessControlManager",
        "label": "_domainName",
        "offset": 0,
        "slot": "1",
        "type": "t_string_storage"
      },
      {
        "astId": 12008,
        "contract": "src/contracts/acl/AccessControlManager.sol:AccessControlManager",
        "label": "_domainVersion",
        "offset": 0,
        "slot": "2",
        "type": "t_string_storage"
      },
      {
        "astId": 12010,
        "contract": "src/contracts/acl/AccessControlManager.sol:AccessControlManager",
        "label": "_domainRealm",
        "offset": 0,
        "slot": "3",
        "type": "t_string_storage"
      },
      {
        "astId": 12012,
        "contract": "src/contracts/acl/AccessControlManager.sol:AccessControlManager",
        "label": "_isEnabled",
        "offset": 0,
        "slot": "4",
        "type": "t_bool"
      },
      {
        "astId": 12014,
        "contract": "src/contracts/acl/AccessControlManager.sol:AccessControlManager",
        "label": "_isUpgradable",
        "offset": 1,
        "slot": "4",
        "type": "t_bool"
      },
      {
        "astId": 12019,
        "contract": "src/contracts/acl/AccessControlManager.sol:AccessControlManager",
        "label": "__gap",
        "offset": 0,
        "slot": "5",
        "type": "t_array(t_uint256)64_storage"
      },
      {
        "astId": 12172,
        "contract": "src/contracts/acl/AccessControlManager.sol:AccessControlManager",
        "label": "_initialized",
        "offset": 0,
        "slot": "69",
        "type": "t_uint16"
      },
      {
        "astId": 12175,
        "contract": "src/contracts/acl/AccessControlManager.sol:AccessControlManager",
        "label": "_initializing",
        "offset": 2,
        "slot": "69",
        "type": "t_bool"
      },
      {
        "astId": 12648,
        "contract": "src/contracts/acl/AccessControlManager.sol:AccessControlManager",
        "label": "__gap",
        "offset": 0,
        "slot": "70",
        "type": "t_array(t_uint256)64_storage"
      },
      {
        "astId": 8914,
        "contract": "src/contracts/acl/AccessControlManager.sol:AccessControlManager",
        "label": "_userRoleMap",
        "offset": 0,
        "slot": "134",
        "type": "t_mapping(t_address,t_mapping(t_bytes32,t_enum(Status)8864))"
      },
      {
        "astId": 8919,
        "contract": "src/contracts/acl/AccessControlManager.sol:AccessControlManager",
        "label": "_ctxMap",
        "offset": 0,
        "slot": "135",
        "type": "t_mapping(t_bytes32,t_struct(Context)8879_storage)"
      },
      {
        "astId": 8924,
        "contract": "src/contracts/acl/AccessControlManager.sol:AccessControlManager",
        "label": "_roleMap",
        "offset": 0,
        "slot": "136",
        "type": "t_mapping(t_bytes32,t_struct(Role)8889_storage)"
      },
      {
        "astId": 8929,
        "contract": "src/contracts/acl/AccessControlManager.sol:AccessControlManager",
        "label": "_realmMap",
        "offset": 0,
        "slot": "137",
        "type": "t_mapping(t_bytes32,t_struct(Realm)8899_storage)"
      },
      {
        "astId": 8934,
        "contract": "src/contracts/acl/AccessControlManager.sol:AccessControlManager",
        "label": "_groupMap",
        "offset": 0,
        "slot": "138",
        "type": "t_mapping(t_bytes32,t_struct(Group)8907_storage)"
      },
      {
        "astId": 8937,
        "contract": "src/contracts/acl/AccessControlManager.sol:AccessControlManager",
        "label": "_livelyGeneralRealm",
        "offset": 0,
        "slot": "139",
        "type": "t_struct(Realm)8899_storage"
      },
      {
        "astId": 8940,
        "contract": "src/contracts/acl/AccessControlManager.sol:AccessControlManager",
        "label": "_livelyGeneralGroup",
        "offset": 0,
        "slot": "143",
        "type": "t_struct(Group)8907_storage"
      },
      {
        "astId": 8943,
        "contract": "src/contracts/acl/AccessControlManager.sol:AccessControlManager",
        "label": "_livelyAdminRole",
        "offset": 0,
        "slot": "147",
        "type": "t_struct(Role)8889_storage"
      },
      {
        "astId": 8946,
        "contract": "src/contracts/acl/AccessControlManager.sol:AccessControlManager",
        "label": "_liveltSystemAdminRole",
        "offset": 0,
        "slot": "153",
        "type": "t_struct(Role)8889_storage"
      }
    ],
    "types": {
      "t_address": {
        "encoding": "inplace",
        "label": "address",
        "numberOfBytes": "20"
      },
      "t_array(t_bytes32)dyn_storage": {
        "base": "t_bytes32",
        "encoding": "dynamic_array",
        "label": "bytes32[]",
        "numberOfBytes": "32"
      },
      "t_array(t_uint256)64_storage": {
        "base": "t_uint256",
        "encoding": "inplace",
        "label": "uint256[64]",
        "numberOfBytes": "2048"
      },
      "t_bool": {
        "encoding": "inplace",
        "label": "bool",
        "numberOfBytes": "1"
      },
      "t_bytes32": {
        "encoding": "inplace",
        "label": "bytes32",
        "numberOfBytes": "32"
      },
      "t_enum(Status)8864": {
        "encoding": "inplace",
        "label": "enum AccessControlStorage.Status",
        "numberOfBytes": "1"
      },
      "t_mapping(t_address,t_mapping(t_bytes32,t_enum(Status)8864))": {
        "encoding": "mapping",
        "key": "t_address",
        "label": "mapping(address => mapping(bytes32 => enum AccessControlStorage.Status))",
        "numberOfBytes": "32",
        "value": "t_mapping(t_bytes32,t_enum(Status)8864)"
      },
      "t_mapping(t_bytes32,t_bytes32)": {
        "encoding": "mapping",
        "key": "t_bytes32",
        "label": "mapping(bytes32 => bytes32)",
        "numberOfBytes": "32",
        "value": "t_bytes32"
      },
      "t_mapping(t_bytes32,t_enum(Status)8864)": {
        "encoding": "mapping",
        "key": "t_bytes32",
        "label": "mapping(bytes32 => enum AccessControlStorage.Status)",
        "numberOfBytes": "32",
        "value": "t_enum(Status)8864"
      },
      "t_mapping(t_bytes32,t_mapping(t_bytes32,t_enum(Status)8864))": {
        "encoding": "mapping",
        "key": "t_bytes32",
        "label": "mapping(bytes32 => mapping(bytes32 => enum AccessControlStorage.Status))",
        "numberOfBytes": "32",
        "value": "t_mapping(t_bytes32,t_enum(Status)8864)"
      },
      "t_mapping(t_bytes32,t_struct(Context)8879_storage)": {
        "encoding": "mapping",
        "key": "t_bytes32",
        "label": "mapping(bytes32 => struct AccessControlStorage.Context)",
        "numberOfBytes": "32",
        "value": "t_struct(Context)8879_storage"
      },
      "t_mapping(t_bytes32,t_struct(Group)8907_storage)": {
        "encoding": "mapping",
        "key": "t_bytes32",
        "label": "mapping(bytes32 => struct AccessControlStorage.Group)",
        "numberOfBytes": "32",
        "value": "t_struct(Group)8907_storage"
      },
      "t_mapping(t_bytes32,t_struct(Realm)8899_storage)": {
        "encoding": "mapping",
        "key": "t_bytes32",
        "label": "mapping(bytes32 => struct AccessControlStorage.Realm)",
        "numberOfBytes": "32",
        "value": "t_struct(Realm)8899_storage"
      },
      "t_mapping(t_bytes32,t_struct(Role)8889_storage)": {
        "encoding": "mapping",
        "key": "t_bytes32",
        "label": "mapping(bytes32 => struct AccessControlStorage.Role)",
        "numberOfBytes": "32",
        "value": "t_struct(Role)8889_storage"
      },
      "t_mapping(t_bytes32,t_uint256)": {
        "encoding": "mapping",
        "key": "t_bytes32",
        "label": "mapping(bytes32 => uint256)",
        "numberOfBytes": "32",
        "value": "t_uint256"
      },
      "t_string_storage": {
        "encoding": "bytes",
        "label": "string",
        "numberOfBytes": "32"
      },
      "t_struct(AddressToUintMap)10334_storage": {
        "encoding": "inplace",
        "label": "struct EnumerableMap.AddressToUintMap",
        "members": [
          {
            "astId": 10333,
            "contract": "src/contracts/acl/AccessControlManager.sol:AccessControlManager",
            "label": "_inner",
            "offset": 0,
            "slot": "0",
            "type": "t_struct(Bytes32ToBytes32Map)9867_storage"
          }
        ],
        "numberOfBytes": "96"
      },
      "t_struct(Bytes32Set)10785_storage": {
        "encoding": "inplace",
        "label": "struct EnumerableSet.Bytes32Set",
        "members": [
          {
            "astId": 10784,
            "contract": "src/contracts/acl/AccessControlManager.sol:AccessControlManager",
            "label": "_inner",
            "offset": 0,
            "slot": "0",
            "type": "t_struct(Set)10591_storage"
          }
        ],
        "numberOfBytes": "64"
      },
      "t_struct(Bytes32ToBytes32Map)9867_storage": {
        "encoding": "inplace",
        "label": "struct EnumerableMap.Bytes32ToBytes32Map",
        "members": [
          {
            "astId": 9862,
            "contract": "src/contracts/acl/AccessControlManager.sol:AccessControlManager",
            "label": "_keys",
            "offset": 0,
            "slot": "0",
            "type": "t_struct(Bytes32Set)10785_storage"
          },
          {
            "astId": 9866,
            "contract": "src/contracts/acl/AccessControlManager.sol:AccessControlManager",
            "label": "_values",
            "offset": 0,
            "slot": "2",
            "type": "t_mapping(t_bytes32,t_bytes32)"
          }
        ],
        "numberOfBytes": "96"
      },
      "t_struct(Context)8879_storage": {
        "encoding": "inplace",
        "label": "struct AccessControlStorage.Context",
        "members": [
          {
            "astId": 8866,
            "contract": "src/contracts/acl/AccessControlManager.sol:AccessControlManager",
            "label": "realm",
            "offset": 0,
            "slot": "0",
            "type": "t_bytes32"
          },
          {
            "astId": 8868,
            "contract": "src/contracts/acl/AccessControlManager.sol:AccessControlManager",
            "label": "smca",
            "offset": 0,
            "slot": "1",
            "type": "t_address"
          },
          {
            "astId": 8875,
            "contract": "src/contracts/acl/AccessControlManager.sol:AccessControlManager",
            "label": "resources",
            "offset": 0,
            "slot": "2",
            "type": "t_mapping(t_bytes32,t_mapping(t_bytes32,t_enum(Status)8864))"
          },
          {
            "astId": 8878,
            "contract": "src/contracts/acl/AccessControlManager.sol:AccessControlManager",
            "label": "funcSet",
            "offset": 0,
            "slot": "3",
            "type": "t_struct(Bytes32Set)10785_storage"
          }
        ],
        "numberOfBytes": "160"
      },
      "t_struct(Group)8907_storage": {
        "encoding": "inplace",
        "label": "struct AccessControlStorage.Group",
        "members": [
          {
            "astId": 8901,
            "contract": "src/contracts/acl/AccessControlManager.sol:AccessControlManager",
            "label": "name",
            "offset": 0,
            "slot": "0",
            "type": "t_string_storage"
          },
          {
            "astId": 8903,
            "contract": "src/contracts/acl/AccessControlManager.sol:AccessControlManager",
            "label": "isEnabled",
            "offset": 0,
            "slot": "1",
            "type": "t_bool"
          },
          {
            "astId": 8906,
            "contract": "src/contracts/acl/AccessControlManager.sol:AccessControlManager",
            "label": "roles",
            "offset": 0,
            "slot": "2",
            "type": "t_struct(Bytes32Set)10785_storage"
          }
        ],
        "numberOfBytes": "128"
      },
      "t_struct(Realm)8899_storage": {
        "encoding": "inplace",
        "label": "struct AccessControlStorage.Realm",
        "members": [
          {
            "astId": 8891,
            "contract": "src/contracts/acl/AccessControlManager.sol:AccessControlManager",
            "label": "name",
            "offset": 0,
            "slot": "0",
            "type": "t_string_storage"
          },
          {
            "astId": 8893,
            "contract": "src/contracts/acl/AccessControlManager.sol:AccessControlManager",
            "label": "isEnabled",
            "offset": 0,
            "slot": "1",
            "type": "t_bool"
          },
          {
            "astId": 8895,
            "contract": "src/contracts/acl/AccessControlManager.sol:AccessControlManager",
            "label": "isUpgradable",
            "offset": 1,
            "slot": "1",
            "type": "t_bool"
          },
          {
            "astId": 8898,
            "contract": "src/contracts/acl/AccessControlManager.sol:AccessControlManager",
            "label": "ctxSet",
            "offset": 0,
            "slot": "2",
            "type": "t_struct(Bytes32Set)10785_storage"
          }
        ],
        "numberOfBytes": "128"
      },
      "t_struct(Role)8889_storage": {
        "encoding": "inplace",
        "label": "struct AccessControlStorage.Role",
        "members": [
          {
            "astId": 8881,
            "contract": "src/contracts/acl/AccessControlManager.sol:AccessControlManager",
            "label": "name",
            "offset": 0,
            "slot": "0",
            "type": "t_string_storage"
          },
          {
            "astId": 8883,
            "contract": "src/contracts/acl/AccessControlManager.sol:AccessControlManager",
            "label": "group",
            "offset": 0,
            "slot": "1",
            "type": "t_bytes32"
          },
          {
            "astId": 8885,
            "contract": "src/contracts/acl/AccessControlManager.sol:AccessControlManager",
            "label": "isEnabled",
            "offset": 0,
            "slot": "2",
            "type": "t_bool"
          },
          {
            "astId": 8888,
            "contract": "src/contracts/acl/AccessControlManager.sol:AccessControlManager",
            "label": "userMap",
            "offset": 0,
            "slot": "3",
            "type": "t_struct(AddressToUintMap)10334_storage"
          }
        ],
        "numberOfBytes": "192"
      },
      "t_struct(Set)10591_storage": {
        "encoding": "inplace",
        "label": "struct EnumerableSet.Set",
        "members": [
          {
            "astId": 10586,
            "contract": "src/contracts/acl/AccessControlManager.sol:AccessControlManager",
            "label": "_values",
            "offset": 0,
            "slot": "0",
            "type": "t_array(t_bytes32)dyn_storage"
          },
          {
            "astId": 10590,
            "contract": "src/contracts/acl/AccessControlManager.sol:AccessControlManager",
            "label": "_indexes",
            "offset": 0,
            "slot": "1",
            "type": "t_mapping(t_bytes32,t_uint256)"
          }
        ],
        "numberOfBytes": "64"
      },
      "t_uint16": {
        "encoding": "inplace",
        "label": "uint16",
        "numberOfBytes": "2"
      },
      "t_uint256": {
        "encoding": "inplace",
        "label": "uint256",
        "numberOfBytes": "32"
      }
    }
  }
}