{
  "address": "0xe7f1725E7734CE288F8367e1Bb143E90bb3F0512",
  "abi": [
    {
      "inputs": [],
      "stateMutability": "nonpayable",
      "type": "constructor"
    },
    {
      "anonymous": false,
      "inputs": [
        {
          "indexed": true,
          "internalType": "address",
          "name": "sender",
          "type": "address"
        },
        {
          "indexed": true,
          "internalType": "address",
          "name": "proxy",
          "type": "address"
        },
        {
          "indexed": true,
          "internalType": "bytes32",
          "name": "realm",
          "type": "bytes32"
        },
        {
          "indexed": false,
          "internalType": "bool",
          "name": "value",
          "type": "bool"
        }
      ],
      "name": "ActivityChanged",
      "type": "event"
    },
    {
      "anonymous": false,
      "inputs": [
        {
          "indexed": true,
          "internalType": "address",
          "name": "sender",
          "type": "address"
        },
        {
          "indexed": true,
          "internalType": "address",
          "name": "proxy",
          "type": "address"
        },
        {
          "indexed": false,
          "internalType": "address",
          "name": "newAdmin",
          "type": "address"
        }
      ],
      "name": "AdminChanged",
      "type": "event"
    },
    {
      "anonymous": false,
      "inputs": [
        {
          "indexed": true,
          "internalType": "bytes32",
          "name": "context",
          "type": "bytes32"
        },
        {
          "indexed": true,
          "internalType": "address",
          "name": "scma",
          "type": "address"
        },
        {
          "indexed": true,
          "internalType": "address",
          "name": "sender",
          "type": "address"
        },
        {
          "indexed": false,
          "internalType": "bytes32",
          "name": "realm",
          "type": "bytes32"
        }
      ],
      "name": "ContextRegistered",
      "type": "event"
    },
    {
      "anonymous": false,
      "inputs": [
        {
          "indexed": true,
          "internalType": "bytes32",
          "name": "context",
          "type": "bytes32"
        },
        {
          "indexed": true,
          "internalType": "bytes32",
          "name": "role",
          "type": "bytes32"
        },
        {
          "indexed": true,
          "internalType": "address",
          "name": "sender",
          "type": "address"
        },
        {
          "indexed": false,
          "internalType": "bytes4",
          "name": "functionSelector",
          "type": "bytes4"
        },
        {
          "indexed": false,
          "internalType": "bytes32",
          "name": "realm",
          "type": "bytes32"
        }
      ],
      "name": "ContextRoleGranted",
      "type": "event"
    },
    {
      "anonymous": false,
      "inputs": [
        {
          "indexed": true,
          "internalType": "bytes32",
          "name": "context",
          "type": "bytes32"
        },
        {
          "indexed": true,
          "internalType": "bytes32",
          "name": "role",
          "type": "bytes32"
        },
        {
          "indexed": true,
          "internalType": "address",
          "name": "sender",
          "type": "address"
        },
        {
          "indexed": false,
          "internalType": "bytes4",
          "name": "functionSelector",
          "type": "bytes4"
        },
        {
          "indexed": false,
          "internalType": "bytes32",
          "name": "realm",
          "type": "bytes32"
        }
      ],
      "name": "ContextRoleRevoked",
      "type": "event"
    },
    {
      "anonymous": false,
      "inputs": [
        {
          "indexed": true,
          "internalType": "bytes32",
          "name": "context",
          "type": "bytes32"
        },
        {
          "indexed": true,
          "internalType": "address",
          "name": "scma",
          "type": "address"
        },
        {
          "indexed": true,
          "internalType": "address",
          "name": "sender",
          "type": "address"
        }
      ],
      "name": "ContextUpdated",
      "type": "event"
    },
    {
      "anonymous": false,
      "inputs": [
        {
          "indexed": true,
          "internalType": "bytes32",
          "name": "group",
          "type": "bytes32"
        },
        {
          "indexed": true,
          "internalType": "address",
          "name": "sender",
          "type": "address"
        }
      ],
      "name": "GroupDisabled",
      "type": "event"
    },
    {
      "anonymous": false,
      "inputs": [
        {
          "indexed": true,
          "internalType": "bytes32",
          "name": "group",
          "type": "bytes32"
        },
        {
          "indexed": true,
          "internalType": "address",
          "name": "sender",
          "type": "address"
        }
      ],
      "name": "GroupEnabled",
      "type": "event"
    },
    {
      "anonymous": false,
      "inputs": [
        {
          "indexed": true,
          "internalType": "bytes32",
          "name": "group",
          "type": "bytes32"
        },
        {
          "indexed": true,
          "internalType": "address",
          "name": "sender",
          "type": "address"
        },
        {
          "indexed": false,
          "internalType": "string",
          "name": "name",
          "type": "string"
        },
        {
          "indexed": false,
          "internalType": "bool",
          "name": "isEnabled",
          "type": "bool"
        }
      ],
      "name": "GroupRegistered",
      "type": "event"
    },
    {
      "anonymous": false,
      "inputs": [
        {
          "indexed": true,
          "internalType": "bytes32",
          "name": "group",
          "type": "bytes32"
        },
        {
          "indexed": true,
          "internalType": "bytes32",
          "name": "role",
          "type": "bytes32"
        },
        {
          "indexed": true,
          "internalType": "address",
          "name": "sender",
          "type": "address"
        }
      ],
      "name": "GroupRoleGranted",
      "type": "event"
    },
    {
      "anonymous": false,
      "inputs": [
        {
          "indexed": true,
          "internalType": "bytes32",
          "name": "group",
          "type": "bytes32"
        },
        {
          "indexed": true,
          "internalType": "bytes32",
          "name": "role",
          "type": "bytes32"
        },
        {
          "indexed": true,
          "internalType": "address",
          "name": "sender",
          "type": "address"
        }
      ],
      "name": "GroupRoleRevoked",
      "type": "event"
    },
    {
      "anonymous": false,
      "inputs": [
        {
          "indexed": true,
          "internalType": "address",
          "name": "sender",
          "type": "address"
        },
        {
          "indexed": true,
          "internalType": "address",
          "name": "proxy",
          "type": "address"
        },
        {
          "indexed": true,
          "internalType": "address",
          "name": "subject",
          "type": "address"
        },
        {
          "indexed": false,
          "internalType": "string",
          "name": "name",
          "type": "string"
        },
        {
          "indexed": false,
          "internalType": "string",
          "name": "version",
          "type": "string"
        },
        {
          "indexed": false,
          "internalType": "bytes32",
          "name": "realm",
          "type": "bytes32"
        },
        {
          "indexed": false,
          "internalType": "uint16",
          "name": "initializedCount",
          "type": "uint16"
        }
      ],
      "name": "Initialized",
      "type": "event"
    },
    {
      "anonymous": false,
      "inputs": [
        {
          "indexed": true,
          "internalType": "bytes32",
          "name": "realm",
          "type": "bytes32"
        },
        {
          "indexed": true,
          "internalType": "bytes32",
          "name": "context",
          "type": "bytes32"
        },
        {
          "indexed": true,
          "internalType": "address",
          "name": "sender",
          "type": "address"
        }
      ],
      "name": "RealmContextGranted",
      "type": "event"
    },
    {
      "anonymous": false,
      "inputs": [
        {
          "indexed": true,
          "internalType": "bytes32",
          "name": "realm",
          "type": "bytes32"
        },
        {
          "indexed": true,
          "internalType": "address",
          "name": "sender",
          "type": "address"
        }
      ],
      "name": "RealmDisabled",
      "type": "event"
    },
    {
      "anonymous": false,
      "inputs": [
        {
          "indexed": true,
          "internalType": "bytes32",
          "name": "realm",
          "type": "bytes32"
        },
        {
          "indexed": true,
          "internalType": "address",
          "name": "sender",
          "type": "address"
        }
      ],
      "name": "RealmEnabled",
      "type": "event"
    },
    {
      "anonymous": false,
      "inputs": [
        {
          "indexed": true,
          "internalType": "bytes32",
          "name": "realm",
          "type": "bytes32"
        },
        {
          "indexed": true,
          "internalType": "address",
          "name": "sender",
          "type": "address"
        },
        {
          "indexed": false,
          "internalType": "string",
          "name": "name",
          "type": "string"
        },
        {
          "indexed": false,
          "internalType": "bool",
          "name": "isEnabled",
          "type": "bool"
        }
      ],
      "name": "RealmRegistered",
      "type": "event"
    },
    {
      "anonymous": false,
      "inputs": [
        {
          "indexed": true,
          "internalType": "bytes32",
          "name": "realm",
          "type": "bytes32"
        },
        {
          "indexed": true,
          "internalType": "bytes32",
          "name": "context",
          "type": "bytes32"
        },
        {
          "indexed": true,
          "internalType": "address",
          "name": "sender",
          "type": "address"
        }
      ],
      "name": "RealmRoleRevoked",
      "type": "event"
    },
    {
      "anonymous": false,
      "inputs": [
        {
          "indexed": true,
          "internalType": "bytes32",
          "name": "realm",
          "type": "bytes32"
        },
        {
          "indexed": true,
          "internalType": "address",
          "name": "sender",
          "type": "address"
        }
      ],
      "name": "RealmUpgradeEnabled",
      "type": "event"
    },
    {
      "anonymous": false,
      "inputs": [
        {
          "indexed": true,
          "internalType": "bytes32",
          "name": "role",
          "type": "bytes32"
        },
        {
          "indexed": true,
          "internalType": "address",
          "name": "account",
          "type": "address"
        },
        {
          "indexed": true,
          "internalType": "address",
          "name": "sender",
          "type": "address"
        },
        {
          "indexed": false,
          "internalType": "bytes32",
          "name": "group",
          "type": "bytes32"
        }
      ],
      "name": "RoleAccountGranted",
      "type": "event"
    },
    {
      "anonymous": false,
      "inputs": [
        {
          "indexed": true,
          "internalType": "bytes32",
          "name": "role",
          "type": "bytes32"
        },
        {
          "indexed": true,
          "internalType": "address",
          "name": "account",
          "type": "address"
        },
        {
          "indexed": true,
          "internalType": "address",
          "name": "sender",
          "type": "address"
        },
        {
          "indexed": false,
          "internalType": "bytes32",
          "name": "group",
          "type": "bytes32"
        }
      ],
      "name": "RoleAccountRevoked",
      "type": "event"
    },
    {
      "anonymous": false,
      "inputs": [
        {
          "indexed": true,
          "internalType": "bytes32",
          "name": "role",
          "type": "bytes32"
        },
        {
          "indexed": true,
          "internalType": "address",
          "name": "sender",
          "type": "address"
        },
        {
          "indexed": true,
          "internalType": "bytes32",
          "name": "group",
          "type": "bytes32"
        }
      ],
      "name": "RoleDisabled",
      "type": "event"
    },
    {
      "anonymous": false,
      "inputs": [
        {
          "indexed": true,
          "internalType": "bytes32",
          "name": "role",
          "type": "bytes32"
        },
        {
          "indexed": true,
          "internalType": "address",
          "name": "sender",
          "type": "address"
        },
        {
          "indexed": true,
          "internalType": "bytes32",
          "name": "group",
          "type": "bytes32"
        }
      ],
      "name": "RoleEnabled",
      "type": "event"
    },
    {
      "anonymous": false,
      "inputs": [
        {
          "indexed": true,
          "internalType": "bytes32",
          "name": "role",
          "type": "bytes32"
        },
        {
          "indexed": true,
          "internalType": "string",
          "name": "name",
          "type": "string"
        },
        {
          "indexed": true,
          "internalType": "address",
          "name": "sender",
          "type": "address"
        },
        {
          "indexed": false,
          "internalType": "bytes32",
          "name": "group",
          "type": "bytes32"
        },
        {
          "indexed": false,
          "internalType": "bool",
          "name": "isEnabled",
          "type": "bool"
        }
      ],
      "name": "RoleRegistered",
      "type": "event"
    },
    {
      "anonymous": false,
      "inputs": [
        {
          "indexed": true,
          "internalType": "address",
          "name": "sender",
          "type": "address"
        },
        {
          "indexed": true,
          "internalType": "address",
          "name": "proxy",
          "type": "address"
        },
        {
          "indexed": true,
          "internalType": "bytes32",
          "name": "realm",
          "type": "bytes32"
        },
        {
          "indexed": false,
          "internalType": "bool",
          "name": "value",
          "type": "bool"
        }
      ],
      "name": "UpgradabilityChanged",
      "type": "event"
    },
    {
      "anonymous": false,
      "inputs": [
        {
          "indexed": true,
          "internalType": "address",
          "name": "sender",
          "type": "address"
        },
        {
          "indexed": true,
          "internalType": "address",
          "name": "proxy",
          "type": "address"
        },
        {
          "indexed": true,
          "internalType": "address",
          "name": "newImplementation",
          "type": "address"
        }
      ],
      "name": "Upgraded",
      "type": "event"
    },
    {
      "stateMutability": "payable",
      "type": "fallback"
    },
    {
      "inputs": [],
      "name": "LIVELY_ADMIN_ROLE",
      "outputs": [
        {
          "internalType": "bytes32",
          "name": "",
          "type": "bytes32"
        }
      ],
      "stateMutability": "view",
      "type": "function"
    },
    {
      "inputs": [],
      "name": "LIVELY_GENERAL_GROUP",
      "outputs": [
        {
          "internalType": "bytes32",
          "name": "",
          "type": "bytes32"
        }
      ],
      "stateMutability": "view",
      "type": "function"
    },
    {
      "inputs": [],
      "name": "LIVELY_GENERAL_REALM",
      "outputs": [
        {
          "internalType": "bytes32",
          "name": "",
          "type": "bytes32"
        }
      ],
      "stateMutability": "view",
      "type": "function"
    },
    {
      "inputs": [],
      "name": "LIVELY_PUBLIC_ROLE",
      "outputs": [
        {
          "internalType": "bytes32",
          "name": "",
          "type": "bytes32"
        }
      ],
      "stateMutability": "view",
      "type": "function"
    },
    {
      "inputs": [],
      "name": "LIVELY_SYSTEM_ADMIN_ROLE",
      "outputs": [
        {
          "internalType": "bytes32",
          "name": "",
          "type": "bytes32"
        }
      ],
      "stateMutability": "view",
      "type": "function"
    },
    {
      "inputs": [
        {
          "internalType": "string",
          "name": "name",
          "type": "string"
        },
        {
          "internalType": "bool",
          "name": "isEnabled",
          "type": "bool"
        }
      ],
      "name": "addGroup",
      "outputs": [
        {
          "internalType": "bytes32",
          "name": "",
          "type": "bytes32"
        }
      ],
      "stateMutability": "nonpayable",
      "type": "function"
    },
    {
      "inputs": [
        {
          "internalType": "string",
          "name": "name",
          "type": "string"
        },
        {
          "internalType": "bool",
          "name": "isEnabled",
          "type": "bool"
        }
      ],
      "name": "addRealm",
      "outputs": [
        {
          "internalType": "bytes32",
          "name": "",
          "type": "bytes32"
        }
      ],
      "stateMutability": "nonpayable",
      "type": "function"
    },
    {
      "inputs": [
        {
          "internalType": "string",
          "name": "name",
          "type": "string"
        },
        {
          "internalType": "string",
          "name": "group",
          "type": "string"
        },
        {
          "internalType": "bool",
          "name": "isEnabled",
          "type": "bool"
        }
      ],
      "name": "addRole",
      "outputs": [
        {
          "internalType": "bytes32",
          "name": "",
          "type": "bytes32"
        }
      ],
      "stateMutability": "nonpayable",
      "type": "function"
    },
    {
      "inputs": [],
      "name": "contractContext",
      "outputs": [
        {
          "internalType": "bytes32",
          "name": "",
          "type": "bytes32"
        }
      ],
      "stateMutability": "view",
      "type": "function"
    },
    {
      "inputs": [],
      "name": "contractName",
      "outputs": [
        {
          "internalType": "string",
          "name": "",
          "type": "string"
        }
      ],
      "stateMutability": "view",
      "type": "function"
    },
    {
      "inputs": [],
      "name": "contractRealm",
      "outputs": [
        {
          "internalType": "bytes32",
          "name": "",
          "type": "bytes32"
        }
      ],
      "stateMutability": "view",
      "type": "function"
    },
    {
      "inputs": [],
      "name": "contractRegisteration",
      "outputs": [
        {
          "internalType": "bool",
          "name": "",
          "type": "bool"
        }
      ],
      "stateMutability": "nonpayable",
      "type": "function"
    },
    {
      "inputs": [],
      "name": "contractVersion",
      "outputs": [
        {
          "internalType": "string",
          "name": "",
          "type": "string"
        }
      ],
      "stateMutability": "view",
      "type": "function"
    },
    {
      "inputs": [
        {
          "internalType": "bytes32",
          "name": "ctx",
          "type": "bytes32"
        }
      ],
      "name": "disableContext",
      "outputs": [
        {
          "internalType": "bool",
          "name": "",
          "type": "bool"
        }
      ],
      "stateMutability": "nonpayable",
      "type": "function"
    },
    {
      "inputs": [
        {
          "internalType": "bytes32",
          "name": "group",
          "type": "bytes32"
        }
      ],
      "name": "disabledGroup",
      "outputs": [
        {
          "internalType": "bool",
          "name": "",
          "type": "bool"
        }
      ],
      "stateMutability": "nonpayable",
      "type": "function"
    },
    {
      "inputs": [
        {
          "internalType": "bytes32",
          "name": "realm",
          "type": "bytes32"
        }
      ],
      "name": "disabledRealm",
      "outputs": [
        {
          "internalType": "bool",
          "name": "",
          "type": "bool"
        }
      ],
      "stateMutability": "nonpayable",
      "type": "function"
    },
    {
      "inputs": [
        {
          "internalType": "bytes32",
          "name": "ctx",
          "type": "bytes32"
        }
      ],
      "name": "enableContext",
      "outputs": [
        {
          "internalType": "bool",
          "name": "",
          "type": "bool"
        }
      ],
      "stateMutability": "nonpayable",
      "type": "function"
    },
    {
      "inputs": [
        {
          "internalType": "bytes32",
          "name": "ctx",
          "type": "bytes32"
        }
      ],
      "name": "enableUpgradeContext",
      "outputs": [
        {
          "internalType": "bool",
          "name": "",
          "type": "bool"
        }
      ],
      "stateMutability": "nonpayable",
      "type": "function"
    },
    {
      "inputs": [
        {
          "internalType": "bytes32",
          "name": "realm",
          "type": "bytes32"
        }
      ],
      "name": "enableUpgradeRealm",
      "outputs": [
        {
          "internalType": "bool",
          "name": "",
          "type": "bool"
        }
      ],
      "stateMutability": "nonpayable",
      "type": "function"
    },
    {
      "inputs": [
        {
          "internalType": "bytes32",
          "name": "group",
          "type": "bytes32"
        }
      ],
      "name": "enabledGroup",
      "outputs": [
        {
          "internalType": "bool",
          "name": "",
          "type": "bool"
        }
      ],
      "stateMutability": "nonpayable",
      "type": "function"
    },
    {
      "inputs": [
        {
          "internalType": "bytes32",
          "name": "realm",
          "type": "bytes32"
        }
      ],
      "name": "enabledRealm",
      "outputs": [
        {
          "internalType": "bool",
          "name": "",
          "type": "bool"
        }
      ],
      "stateMutability": "nonpayable",
      "type": "function"
    },
    {
      "inputs": [],
      "name": "getAccessControl",
      "outputs": [
        {
          "internalType": "address",
          "name": "",
          "type": "address"
        }
      ],
      "stateMutability": "view",
      "type": "function"
    },
    {
      "inputs": [],
      "name": "getAdmin",
      "outputs": [
        {
          "internalType": "address",
          "name": "",
          "type": "address"
        }
      ],
      "stateMutability": "view",
      "type": "function"
    },
    {
      "inputs": [
        {
          "internalType": "bytes32",
          "name": "ctx",
          "type": "bytes32"
        }
      ],
      "name": "getContext",
      "outputs": [
        {
          "internalType": "string",
          "name": "",
          "type": "string"
        },
        {
          "internalType": "string",
          "name": "",
          "type": "string"
        },
        {
          "internalType": "bytes32",
          "name": "",
          "type": "bytes32"
        },
        {
          "internalType": "bool",
          "name": "",
          "type": "bool"
        }
      ],
      "stateMutability": "view",
      "type": "function"
    },
    {
      "inputs": [
        {
          "internalType": "bytes32",
          "name": "ctx",
          "type": "bytes32"
        }
      ],
      "name": "getContextFuncs",
      "outputs": [
        {
          "internalType": "bytes4[]",
          "name": "",
          "type": "bytes4[]"
        }
      ],
      "stateMutability": "view",
      "type": "function"
    },
    {
      "inputs": [
        {
          "internalType": "bytes32",
          "name": "group",
          "type": "bytes32"
        }
      ],
      "name": "getGroup",
      "outputs": [
        {
          "internalType": "string",
          "name": "",
          "type": "string"
        },
        {
          "internalType": "bool",
          "name": "",
          "type": "bool"
        }
      ],
      "stateMutability": "view",
      "type": "function"
    },
    {
      "inputs": [
        {
          "internalType": "bytes32",
          "name": "group",
          "type": "bytes32"
        }
      ],
      "name": "getGroupRoles",
      "outputs": [
        {
          "internalType": "bytes32[]",
          "name": "",
          "type": "bytes32[]"
        }
      ],
      "stateMutability": "view",
      "type": "function"
    },
    {
      "inputs": [],
      "name": "getInitializedCount",
      "outputs": [
        {
          "internalType": "uint16",
          "name": "",
          "type": "uint16"
        }
      ],
      "stateMutability": "view",
      "type": "function"
    },
    {
      "inputs": [
        {
          "internalType": "bytes32",
          "name": "realm",
          "type": "bytes32"
        }
      ],
      "name": "getRealm",
      "outputs": [
        {
          "internalType": "string",
          "name": "",
          "type": "string"
        },
        {
          "internalType": "bool",
          "name": "",
          "type": "bool"
        }
      ],
      "stateMutability": "view",
      "type": "function"
    },
    {
      "inputs": [
        {
          "internalType": "bytes32",
          "name": "realm",
          "type": "bytes32"
        }
      ],
      "name": "getRealmContextes",
      "outputs": [
        {
          "internalType": "bytes32[]",
          "name": "",
          "type": "bytes32[]"
        }
      ],
      "stateMutability": "view",
      "type": "function"
    },
    {
      "inputs": [
        {
          "internalType": "bytes32",
          "name": "role",
          "type": "bytes32"
        }
      ],
      "name": "getRole",
      "outputs": [
        {
          "internalType": "string",
          "name": "",
          "type": "string"
        },
        {
          "internalType": "string",
          "name": "",
          "type": "string"
        },
        {
          "internalType": "bool",
          "name": "",
          "type": "bool"
        }
      ],
      "stateMutability": "view",
      "type": "function"
    },
    {
      "inputs": [
        {
          "internalType": "bytes32",
          "name": "role",
          "type": "bytes32"
        }
      ],
      "name": "getRoleContextes",
      "outputs": [
        {
          "internalType": "bytes32[]",
          "name": "",
          "type": "bytes32[]"
        }
      ],
      "stateMutability": "view",
      "type": "function"
    },
    {
      "inputs": [
        {
          "internalType": "bytes32",
          "name": "role",
          "type": "bytes32"
        }
      ],
      "name": "getRoleUsers",
      "outputs": [
        {
          "internalType": "address[]",
          "name": "",
          "type": "address[]"
        }
      ],
      "stateMutability": "view",
      "type": "function"
    },
    {
      "inputs": [
        {
          "internalType": "bytes32",
          "name": "ctx",
          "type": "bytes32"
        },
        {
          "internalType": "bytes4",
          "name": "functionSelector",
          "type": "bytes4"
        },
        {
          "internalType": "bytes32",
          "name": "role",
          "type": "bytes32"
        }
      ],
      "name": "grantContextRole",
      "outputs": [
        {
          "internalType": "bool",
          "name": "",
          "type": "bool"
        }
      ],
      "stateMutability": "nonpayable",
      "type": "function"
    },
    {
      "inputs": [
        {
          "internalType": "bytes32",
          "name": "group",
          "type": "bytes32"
        },
        {
          "internalType": "bytes32",
          "name": "role",
          "type": "bytes32"
        }
      ],
      "name": "grantGroupRole",
      "outputs": [
        {
          "internalType": "bool",
          "name": "",
          "type": "bool"
        }
      ],
      "stateMutability": "nonpayable",
      "type": "function"
    },
    {
      "inputs": [
        {
          "internalType": "bytes32",
          "name": "realm",
          "type": "bytes32"
        },
        {
          "internalType": "bytes32",
          "name": "context",
          "type": "bytes32"
        }
      ],
      "name": "grantRealmContext",
      "outputs": [
        {
          "internalType": "bool",
          "name": "",
          "type": "bool"
        }
      ],
      "stateMutability": "nonpayable",
      "type": "function"
    },
    {
      "inputs": [
        {
          "internalType": "bytes32",
          "name": "role",
          "type": "bytes32"
        },
        {
          "internalType": "address",
          "name": "account",
          "type": "address"
        }
      ],
      "name": "grantRoleAccount",
      "outputs": [
        {
          "internalType": "bool",
          "name": "",
          "type": "bool"
        }
      ],
      "stateMutability": "nonpayable",
      "type": "function"
    },
    {
      "inputs": [
        {
          "internalType": "bytes32",
          "name": "context",
          "type": "bytes32"
        },
        {
          "internalType": "address",
          "name": "account",
          "type": "address"
        },
        {
          "internalType": "bytes4",
          "name": "signature",
          "type": "bytes4"
        }
      ],
      "name": "hasAccess",
      "outputs": [
        {
          "internalType": "bool",
          "name": "",
          "type": "bool"
        }
      ],
      "stateMutability": "view",
      "type": "function"
    },
    {
      "inputs": [
        {
          "internalType": "bytes32",
          "name": "role",
          "type": "bytes32"
        },
        {
          "internalType": "address",
          "name": "account",
          "type": "address"
        }
      ],
      "name": "hasAccountRole",
      "outputs": [
        {
          "internalType": "bool",
          "name": "",
          "type": "bool"
        }
      ],
      "stateMutability": "view",
      "type": "function"
    },
    {
      "inputs": [
        {
          "internalType": "bytes32",
          "name": "ctx",
          "type": "bytes32"
        },
        {
          "internalType": "bytes32",
          "name": "role",
          "type": "bytes32"
        },
        {
          "internalType": "bytes4",
          "name": "functionSelector",
          "type": "bytes4"
        }
      ],
      "name": "hasContextRole",
      "outputs": [
        {
          "internalType": "bool",
          "name": "",
          "type": "bool"
        }
      ],
      "stateMutability": "view",
      "type": "function"
    },
    {
      "inputs": [
        {
          "internalType": "bytes32",
          "name": "group",
          "type": "bytes32"
        },
        {
          "internalType": "bytes32",
          "name": "role",
          "type": "bytes32"
        }
      ],
      "name": "hasGroupRole",
      "outputs": [
        {
          "internalType": "bool",
          "name": "",
          "type": "bool"
        }
      ],
      "stateMutability": "view",
      "type": "function"
    },
    {
      "inputs": [
        {
          "internalType": "address",
          "name": "account",
          "type": "address"
        }
      ],
      "name": "hasLivelyAdminRole",
      "outputs": [
        {
          "internalType": "bool",
          "name": "",
          "type": "bool"
        }
      ],
      "stateMutability": "view",
      "type": "function"
    },
    {
      "inputs": [
        {
          "internalType": "bytes32",
          "name": "role",
          "type": "bytes32"
        }
      ],
      "name": "hasLivelyGroup",
      "outputs": [
        {
          "internalType": "bool",
          "name": "",
          "type": "bool"
        }
      ],
      "stateMutability": "view",
      "type": "function"
    },
    {
      "inputs": [
        {
          "internalType": "bytes32",
          "name": "context",
          "type": "bytes32"
        }
      ],
      "name": "hasLivelyRealm",
      "outputs": [
        {
          "internalType": "bool",
          "name": "",
          "type": "bool"
        }
      ],
      "stateMutability": "view",
      "type": "function"
    },
    {
      "inputs": [
        {
          "internalType": "bytes32",
          "name": "realm",
          "type": "bytes32"
        },
        {
          "internalType": "bytes32",
          "name": "context",
          "type": "bytes32"
        }
      ],
      "name": "hasRealmContext",
      "outputs": [
        {
          "internalType": "bool",
          "name": "",
          "type": "bool"
        }
      ],
      "stateMutability": "view",
      "type": "function"
    },
    {
      "inputs": [
        {
          "internalType": "address",
          "name": "account",
          "type": "address"
        }
      ],
      "name": "hasSystemAdminRole",
      "outputs": [
        {
          "internalType": "bool",
          "name": "",
          "type": "bool"
        }
      ],
      "stateMutability": "view",
      "type": "function"
    },
    {
      "inputs": [
        {
          "internalType": "string",
          "name": "domainName",
          "type": "string"
        },
        {
          "internalType": "string",
          "name": "domainVersion",
          "type": "string"
        },
        {
          "internalType": "string",
          "name": "domainRealm",
          "type": "string"
        },
        {
          "internalType": "address",
          "name": "accessControlManager",
          "type": "address"
        }
      ],
      "name": "initialize",
      "outputs": [],
      "stateMutability": "nonpayable",
      "type": "function"
    },
    {
      "inputs": [],
      "name": "isActivated",
      "outputs": [
        {
          "internalType": "bool",
          "name": "",
          "type": "bool"
        }
      ],
      "stateMutability": "view",
      "type": "function"
    },
    {
      "inputs": [
        {
          "internalType": "bytes32",
          "name": "context",
          "type": "bytes32"
        }
      ],
      "name": "isEnabled",
      "outputs": [
        {
          "internalType": "bool",
          "name": "",
          "type": "bool"
        }
      ],
      "stateMutability": "view",
      "type": "function"
    },
    {
      "inputs": [],
      "name": "isInitializing",
      "outputs": [
        {
          "internalType": "bool",
          "name": "",
          "type": "bool"
        }
      ],
      "stateMutability": "view",
      "type": "function"
    },
    {
      "inputs": [],
      "name": "isUpgradable",
      "outputs": [
        {
          "internalType": "bool",
          "name": "",
          "type": "bool"
        }
      ],
      "stateMutability": "view",
      "type": "function"
    },
    {
      "inputs": [
        {
          "internalType": "bytes32",
          "name": "context",
          "type": "bytes32"
        }
      ],
      "name": "isUpgradeEnabled",
      "outputs": [
        {
          "internalType": "bool",
          "name": "",
          "type": "bool"
        }
      ],
      "stateMutability": "view",
      "type": "function"
    },
    {
      "inputs": [],
      "name": "proxiableUUID",
      "outputs": [
        {
          "internalType": "bytes32",
          "name": "",
          "type": "bytes32"
        }
      ],
      "stateMutability": "view",
      "type": "function"
    },
    {
      "inputs": [
        {
          "components": [
            {
              "internalType": "bytes32",
              "name": "realm",
              "type": "bytes32"
            },
            {
              "internalType": "address",
              "name": "smca",
              "type": "address"
            }
          ],
          "internalType": "struct IContextManagement.RequestContext",
          "name": "rc",
          "type": "tuple"
        },
        {
          "components": [
            {
              "internalType": "bytes32",
              "name": "role",
              "type": "bytes32"
            },
            {
              "internalType": "bytes4[]",
              "name": "funcSelectors",
              "type": "bytes4[]"
            }
          ],
          "internalType": "struct IContextManagement.RequestContextResource[]",
          "name": "rcr",
          "type": "tuple[]"
        }
      ],
      "name": "registerContext",
      "outputs": [
        {
          "internalType": "bytes32",
          "name": "",
          "type": "bytes32"
        }
      ],
      "stateMutability": "nonpayable",
      "type": "function"
    },
    {
      "inputs": [
        {
          "internalType": "bytes32",
          "name": "ctx",
          "type": "bytes32"
        },
        {
          "internalType": "bytes4",
          "name": "functionSelector",
          "type": "bytes4"
        },
        {
          "internalType": "bytes32",
          "name": "role",
          "type": "bytes32"
        }
      ],
      "name": "revokeContextRole",
      "outputs": [
        {
          "internalType": "bool",
          "name": "",
          "type": "bool"
        }
      ],
      "stateMutability": "nonpayable",
      "type": "function"
    },
    {
      "inputs": [
        {
          "internalType": "bytes32",
          "name": "group",
          "type": "bytes32"
        },
        {
          "internalType": "bytes32",
          "name": "role",
          "type": "bytes32"
        }
      ],
      "name": "revokeGroupRole",
      "outputs": [
        {
          "internalType": "bool",
          "name": "",
          "type": "bool"
        }
      ],
      "stateMutability": "nonpayable",
      "type": "function"
    },
    {
      "inputs": [
        {
          "internalType": "bytes32",
          "name": "realm",
          "type": "bytes32"
        },
        {
          "internalType": "bytes32",
          "name": "context",
          "type": "bytes32"
        }
      ],
      "name": "revokeRealmContext",
      "outputs": [
        {
          "internalType": "bool",
          "name": "",
          "type": "bool"
        }
      ],
      "stateMutability": "nonpayable",
      "type": "function"
    },
    {
      "inputs": [
        {
          "internalType": "bytes32",
          "name": "role",
          "type": "bytes32"
        },
        {
          "internalType": "address",
          "name": "account",
          "type": "address"
        }
      ],
      "name": "revokeRoleAccount",
      "outputs": [
        {
          "internalType": "bool",
          "name": "",
          "type": "bool"
        }
      ],
      "stateMutability": "nonpayable",
      "type": "function"
    },
    {
      "inputs": [
        {
          "internalType": "bool",
          "name": "value",
          "type": "bool"
        }
      ],
      "name": "setActivity",
      "outputs": [
        {
          "internalType": "bool",
          "name": "",
          "type": "bool"
        }
      ],
      "stateMutability": "nonpayable",
      "type": "function"
    },
    {
      "inputs": [
        {
          "internalType": "address",
          "name": "newAdmin",
          "type": "address"
        }
      ],
      "name": "setAdmin",
      "outputs": [
        {
          "internalType": "bool",
          "name": "",
          "type": "bool"
        }
      ],
      "stateMutability": "nonpayable",
      "type": "function"
    },
    {
      "inputs": [
        {
          "internalType": "bytes32",
          "name": "role",
          "type": "bytes32"
        }
      ],
      "name": "setDisabledRole",
      "outputs": [
        {
          "internalType": "bool",
          "name": "",
          "type": "bool"
        }
      ],
      "stateMutability": "nonpayable",
      "type": "function"
    },
    {
      "inputs": [
        {
          "internalType": "bytes32",
          "name": "role",
          "type": "bytes32"
        }
      ],
      "name": "setEnabledRole",
      "outputs": [
        {
          "internalType": "bool",
          "name": "",
          "type": "bool"
        }
      ],
      "stateMutability": "nonpayable",
      "type": "function"
    },
    {
      "inputs": [
        {
          "internalType": "bool",
          "name": "value",
          "type": "bool"
        }
      ],
      "name": "setUpgradability",
      "outputs": [
        {
          "internalType": "bool",
          "name": "",
          "type": "bool"
        }
      ],
      "stateMutability": "nonpayable",
      "type": "function"
    },
    {
      "inputs": [],
      "name": "subjectAddress",
      "outputs": [
        {
          "internalType": "address",
          "name": "",
          "type": "address"
        }
      ],
      "stateMutability": "view",
      "type": "function"
    },
    {
      "inputs": [
        {
          "internalType": "bytes4",
          "name": "interfaceId",
          "type": "bytes4"
        }
      ],
      "name": "supportsInterface",
      "outputs": [
        {
          "internalType": "bool",
          "name": "",
          "type": "bool"
        }
      ],
      "stateMutability": "view",
      "type": "function"
    },
    {
      "inputs": [
        {
          "components": [
            {
              "internalType": "bytes32",
              "name": "realm",
              "type": "bytes32"
            },
            {
              "internalType": "address",
              "name": "smca",
              "type": "address"
            }
          ],
          "internalType": "struct IContextManagement.RequestContext",
          "name": "rc",
          "type": "tuple"
        },
        {
          "components": [
            {
              "internalType": "bytes32",
              "name": "role",
              "type": "bytes32"
            },
            {
              "internalType": "bytes4[]",
              "name": "funcSelectors",
              "type": "bytes4[]"
            }
          ],
          "internalType": "struct IContextManagement.RequestContextResource[]",
          "name": "rcr",
          "type": "tuple[]"
        }
      ],
      "name": "updateContext",
      "outputs": [
        {
          "internalType": "bytes32",
          "name": "",
          "type": "bytes32"
        }
      ],
      "stateMutability": "nonpayable",
      "type": "function"
    },
    {
      "inputs": [
        {
          "internalType": "address",
          "name": "newImplementation",
          "type": "address"
        },
        {
          "internalType": "bytes",
          "name": "data",
          "type": "bytes"
        },
        {
          "internalType": "bool",
          "name": "forceCall",
          "type": "bool"
        }
      ],
      "name": "upgradeTo",
      "outputs": [
        {
          "internalType": "bytes",
          "name": "",
          "type": "bytes"
        }
      ],
      "stateMutability": "nonpayable",
      "type": "function"
    },
    {
      "stateMutability": "payable",
      "type": "receive"
    }
  ],
  "transactionHash": "0x9762cb18746f89a13fc4a142c79bc49147ebbbaffffe64c91513313e54ca8b7a",
  "args": [],
  "numDeployments": 1,
  "solcInputHash": "2aa30b49411368431e96281374514514",
  "bytecode": "0x60a0604052306080523480156200001557600080fd5b506200004360017f360894a13ba1a3210667c828492db98dca3e2076cc3735a920a3ca505d382bbd6200011c565b7f360894a13ba1a3210667c828492db98dca3e2076cc3735a920a3ca505d382bbc1462000074576200007462000142565b620000a160017fb53127684a568b3173ae13b9f8a6016e243e63b6e8ee1178d6a717850b5d61046200011c565b60008051602062002c6283398151915214620000c157620000c162000142565b33620000ea60008051602062002c6283398151915260001b6200011960201b620013f61760201c565b80546001600160a01b0319166001600160a01b03929092169190911790556004805461ffff1916905562000158565b90565b6000828210156200013d57634e487b7160e01b600052601160045260246000fd5b500390565b634e487b7160e01b600052600160045260246000fd5b608051612a9a620001c860003960008181610a6301528181610aac01528181610bce01528181610c0e01528181610ed80152818161114b0152818161118b015281816112a6015281816112e6015281816116c40152818161170401528181611bc70152611c070152612a9a6000f3fe6080604052600436106103e85760003560e01c8063704b6c0211610208578063c3f1f22d11610118578063ea377987116100ab578063f34b22021161007a578063f34b220214610854578063f5122c9214610854578063fb72237d14610434578063fc1dad81146108ef578063fdba6b1714610434576103f7565b8063ea37798714610434578063edf1d1cb14610556578063f254453b14610434578063f28f309214610854576103f7565b8063d8b31999116100e7578063d8b31999146106d2578063d97f9e5d14610434578063d9aba36e14610854578063df01de4514610687576103f7565b8063c3f1f22d14610434578063c7ab39e6146108b6578063d3e024b8146108da578063d545594f14610434576103f7565b80639dd072541161019b578063b386033f1161016a578063b386033f14610761578063b567d4ba14610884578063b879bdfb14610884578063c2f6167a146105d8578063c34dd6a114610854576103f7565b80639dd07254146108345780639f8e37bb14610854578063a0a8e4601461086f578063ac7e7c6714610434576103f7565b8063870666cb116101d7578063870666cb146107de5780638b480975146107f35780638f09e0f01461068757806396a9b47114610819576103f7565b8063704b6c021461077c5780637147855d1461079c57806375d0c0dc146107c9578063771bcf451461059c576103f7565b80634346a04b116103035780635c6d8da1116102965780636ac58ac1116102655780636ac58ac1146106e75780636b3b0159146106fc5780636e8eb7bc146107175780636e9960c31461074c5780636fb63dca14610761576103f7565b80635c6d8da1146106675780635dd0a7db146106875780636217088f146106aa57806365753319146106d2576103f7565b80635472e25e116102d25780635472e25e146105565780635479d940146106085780635632ffd81461062557806358dbc45d1461063a576103f7565b80634346a04b1461059c5780634a8c1fb4146105c05780634f2eca98146105d857806352d1902d146105f3576103f7565b80631cc032cf1161037b57806329b2be011161034a57806329b2be01146104f05780632e2adf00146105285780632f671733146105565780633ec91f051461057e576103f7565b80631cc032cf146104c65780631e26521a1461043457806320c877071461043457806320dd27af146104db576103f7565b80630d1ee1bd116103b75780630d1ee1bd1461043457806312c1a08e14610434578063133899f514610483578063178cf4bb146104a3576103f7565b806301ffc9a7146103ff5780630610e0371461043457806309d4a907146104345780630c9a907414610455576103f7565b366103f7576103f561090d565b005b6103f561090d565b34801561040b57600080fd5b5061041f61041a366004611f33565b61091f565b60405190151581526020015b60405180910390f35b34801561044057600080fd5b5061041f61044f366004611f4e565b50600090565b34801561046157600080fd5b50610475610470366004611f67565b610971565b60405190815260200161042b565b34801561048f57600080fd5b5061041f61049e36600461200e565b610a57565b3480156104af57600080fd5b50605e5460405161ffff909116815260200161042b565b3480156104d257600080fd5b5061041f610bc2565b3480156104e757600080fd5b50610475610e8e565b3480156104fc57600080fd5b5061051861050b366004611f4e565b6060806000809193509193565b60405161042b9493929190612087565b34801561053457600080fd5b50610549610543366004611f4e565b50606090565b60405161042b91906120c5565b34801561056257600080fd5b50610571610543366004611f4e565b60405161042b9190612113565b34801561058a57600080fd5b50605e5462010000900460ff1661041f565b3480156105a857600080fd5b5061041f6105b736600461214b565b60009392505050565b3480156105cc57600080fd5b5060045460ff1661041f565b3480156105e457600080fd5b5061041f61044f366004612197565b3480156105ff57600080fd5b50610475610ecb565b34801561061457600080fd5b50600454610100900460ff1661041f565b34801561063157600080fd5b50610475610f58565b34801561064657600080fd5b5061064f610f89565b6040516001600160a01b03909116815260200161042b565b34801561067357600080fd5b506103f56106823660046121fb565b610f98565b34801561069357600080fd5b5061041f6106a23660046122a6565b600092915050565b3480156106b657600080fd5b506106c5610543366004611f4e565b60405161042b91906122d2565b3480156106de57600080fd5b506104756110d5565b3480156106f357600080fd5b506104756110fa565b34801561070857600080fd5b5061041f6105b7366004612313565b34801561072357600080fd5b5061073d610732366004611f4e565b506060908190600090565b60405161042b93929190612348565b34801561075857600080fd5b5061064f611122565b34801561076d57600080fd5b506104756105b7366004612380565b34801561078857600080fd5b5061041f610797366004612197565b61112c565b3480156107a857600080fd5b506107bc6107b73660046123ed565b61113f565b60405161042b91906124b6565b3480156107d557600080fd5b506107bc6111fd565b3480156107ea57600080fd5b5061047561128f565b3480156107ff57600080fd5b5061047561080e3660046124c9565b600095945050505050565b34801561082557600080fd5b506104756105b7366004611f67565b34801561084057600080fd5b5061041f61084f36600461200e565b61129a565b34801561086057600080fd5b5061041f6106a236600461254d565b34801561087b57600080fd5b506107bc6113e7565b34801561089057600080fd5b506108a861089f366004611f4e565b60606000915091565b60405161042b92919061256f565b3480156108c257600080fd5b5061041f6108d1366004612593565b60019392505050565b3480156108e657600080fd5b50600354610475565b3480156108fb57600080fd5b506000546001600160a01b031661064f565b61091d6109186113f9565b61141a565b565b60006001600160e01b0319821663c610991560e01b148061095057506001600160e01b031982166352d1902d60e01b145b8061096b57506301ffc9a760e01b6001600160e01b03198316145b92915050565b600080735FbDB2315678afecb367f032d93F642f64180aa363d8f3048260458787876040518563ffffffff1660e01b81526004016109b294939291906125c6565b602060405180830381865af41580156109cf573d6000803e3d6000fd5b505050506040513d601f19601f820116820180604052508101906109f391906126f3565b905033610a066040870160208801612197565b6001600160a01b0316827f11cf8f3561fae187c57df59424ecf5d3f444e138924944c77dcb68144c6357318860000135604051610a4591815260200190565b60405180910390a490505b9392505050565b60006001600160a01b037f0000000000000000000000000000000000000000000000000000000000000000163003610aaa5760405162461bcd60e51b8152600401610aa19061270c565b60405180910390fd5b7f00000000000000000000000000000000000000000000000000000000000000006001600160a01b0316610adc6113f9565b6001600160a01b031614610b025760405162461bcd60e51b8152600401610aa19061273b565b610b1263133899f560e01b611443565b610b5e5760405162461bcd60e51b815260206004820152601e60248201527f4368616e6765205570677261646162696c69747920466f7262696464656e00006044820152606401610aa1565b6004805461ff0019166101008415150217905560035430336001600160a01b03167fc6897d79f339058b761ed7563fa04b4f4bdda8dab073af53173e440326e4a95185604051610bb2911515815260200190565b60405180910390a450805b919050565b60006001600160a01b037f0000000000000000000000000000000000000000000000000000000000000000163003610c0c5760405162461bcd60e51b8152600401610aa19061270c565b7f00000000000000000000000000000000000000000000000000000000000000006001600160a01b0316610c3e6113f9565b6001600160a01b031614610c645760405162461bcd60e51b8152600401610aa19061273b565b33610c6d61158d565b6001600160a01b031614610cbb5760405162461bcd60e51b815260206004820152601560248201527410d85b1b195c88139bdd08105d5d1a1bdc9a5e9959605a1b6044820152606401610aa1565b60006040518060400160405280600354604051602001610cdd91815260200190565b60408051808303601f1901815291815281516020928301208352309282019290925281518083018352600081526060818301528251704c4956454c595f41444d494e5f524f4c4560781b81840152835160118183030181526031909101845280519083012081528251600a808252610160820190945293945092919082016101408036833750505060208201819052805163133899f560e01b9190600090610d8757610d87612769565b6001600160e01b031990921660209283029190910182015281015180516327741c9560e21b91906001908110610dbf57610dbf612769565b6001600160e01b03199092166020928302919091018201528101518051633825b60160e11b91906002908110610df757610df7612769565b6001600160e01b03199092166020928302919091018201528101518051637147855d60e01b91906003908110610e2f57610e2f612769565b6001600160e01b03199092166020928302919091018201528101518051635c6d8da160e01b91906004908110610e6757610e67612769565b60200260200101906001600160e01b03191690816001600160e01b03191681525050505090565b604051734c4956454c595f47454e4552414c5f5245414c4d60601b60208201526034015b6040516020818303038152906040528051906020012081565b6000306001600160a01b037f00000000000000000000000000000000000000000000000000000000000000001614610f455760405162461bcd60e51b815260206004820152601e60248201527f496c6c656167616c20436f6e74726163742044656c656761746563616c6c00006044820152606401610aa1565b50600080516020612a4583398151915290565b6040517f4c4956454c595f53595354454d5f41444d494e5f524f4c4500000000000000006020820152603801610eb2565b6000610f936113f9565b905090565b33610fa161158d565b6001600160a01b031614610fef5760405162461bcd60e51b815260206004820152601560248201527410d85b1b195c88139bdd08105d5d1a1bdc9a5e9959605a1b6044820152606401610aa1565b6000610ffb60016115b5565b9050801561101557605e805462ff00001916620100001790555b6000848460405160200161102a92919061277f565b6040516020818303038152906040528051906020012090506110508989898985886116a4565b6110586113f9565b6001600160a01b031630336001600160a01b03167ff851a1e85477b818fc72ad517ea622cc316f10f67d61c9e740adc151a8b41394600160028661109f605e5461ffff1690565b6040516110af9493929190612846565b60405180910390a45080156110cb57605e805462ff0000191690555b5050505050505050565b604051704c4956454c595f41444d494e5f524f4c4560781b6020820152603101610eb2565b6040517304c4956454c595f47454e4552414c5f47524f55560641b6020820152603401610eb2565b6000610f9361158d565b6000611137826116ba565b506001919050565b60606001600160a01b037f00000000000000000000000000000000000000000000000000000000000000001630036111895760405162461bcd60e51b8152600401610aa19061270c565b7f00000000000000000000000000000000000000000000000000000000000000006001600160a01b03166111bb6113f9565b6001600160a01b0316146111e15760405162461bcd60e51b8152600401610aa19061273b565b6111ea84611897565b6111f58484846118f6565b949350505050565b60606001805461120c9061278f565b80601f01602080910402602001604051908101604052809291908181526020018280546112389061278f565b80156112855780601f1061125a57610100808354040283529160200191611285565b820191906000526020600020905b81548152906001019060200180831161126857829003601f168201915b5050505050905090565b6000610f9330611a92565b60006001600160a01b037f00000000000000000000000000000000000000000000000000000000000000001630036112e45760405162461bcd60e51b8152600401610aa19061270c565b7f00000000000000000000000000000000000000000000000000000000000000006001600160a01b03166113166113f9565b6001600160a01b03161461133c5760405162461bcd60e51b8152600401610aa19061273b565b61134c6327741c9560e21b611443565b6113985760405162461bcd60e51b815260206004820152601a60248201527f4368616e67656420416374697669747920466f7262696464656e0000000000006044820152606401610aa1565b6004805460ff191683151517905560035430336001600160a01b03167f139c91c652708a87d9a40a2cbfb6d5d37c20d1dcd2a75b2d0c09b59a214474bc85604051610bb2911515815260200190565b60606002805461120c9061278f565b90565b6000600080516020612a458339815191525b546001600160a01b0316919050565b3660008037600080366000845af43d6000803e808015611439573d6000f35b3d6000fd5b505050565b600080546001600160a01b0316300361151257600061146130611a92565b338460405160240161147593929190612887565b60408051601f198184030181529190526020810180516001600160e01b03166363d59cf360e11b179052905060006114dd6114ae6113f9565b836040518060400160405280601081526020016f1a185cd058d8d95cdcc811985a5b195960821b815250611ad1565b905080600182516114ee91906128b0565b815181106114fe576114fe612769565b60209101015160f81c600114949350505050565b6000546001600160a01b031663c7ab39e661152c30611a92565b33856040518463ffffffff1660e01b815260040161154c93929190612887565b602060405180830381865afa158015611569573d6000803e3d6000fd5b505050506040513d601f19601f8201168201806040525081019061096b91906128d5565b60007fb53127684a568b3173ae13b9f8a6016e243e63b6e8ee1178d6a717850b5d610361140b565b605e5460009062010000900460ff1615611630578161ffff1660011480156115dc5750303b155b6116285760405162461bcd60e51b815260206004820152601c60248201527f436f6e747261637420416c726561647920496e697469616c697a6564000000006044820152606401610aa1565b506000919050565b605e5461ffff8084169116106116885760405162461bcd60e51b815260206004820152601a60248201527f496c6c6567616c20496e697469616c697a652056657273696f6e0000000000006044820152606401610aa1565b50605e805461ffff191661ffff92909216919091179055600190565b6116b2868686868686611bbd565b505050505050565b6001600160a01b037f00000000000000000000000000000000000000000000000000000000000000001630036117025760405162461bcd60e51b8152600401610aa19061270c565b7f00000000000000000000000000000000000000000000000000000000000000006001600160a01b03166117346113f9565b6001600160a01b03161461175a5760405162461bcd60e51b8152600401610aa19061273b565b60045460ff1661177c5760405162461bcd60e51b8152600401610aa1906128f2565b61178c633825b60160e11b611443565b6117d85760405162461bcd60e51b815260206004820152601b60248201527f4368616e67652050726f787941646d696e20466f7262696464656e00000000006044820152606401610aa1565b6001600160a01b0381166118205760405162461bcd60e51b815260206004820152600f60248201526e1059191c995cdcc8125b9d985b1a59608a1b6044820152606401610aa1565b7fb53127684a568b3173ae13b9f8a6016e243e63b6e8ee1178d6a717850b5d610380546001600160a01b0383166001600160a01b031990911681179091556040805191825251309133917f4eb572e99196bed0270fbd5b17a948e19c3f50a97838cb0d2a75a823ff8e6c509181900360200190a350565b6118a7637147855d60e01b611443565b6118f35760405162461bcd60e51b815260206004820152601f60248201527f436f6e74657874205570677261646162696c69747920466f7262696464656e006044820152606401610aa1565b50565b60607f4910fdfa16fed3260ed0e7147f7cc6da11a60208b5b9406d12a635614ffd91435460ff161561199057600454610100900460ff166119725760405162461bcd60e51b8152602060048201526016602482015275436f6e74657874204e6f742055706772616461626c6560501b6044820152606401610aa1565b61197b84611d3a565b50604080516000815260208101909152610a50565b836001600160a01b03166352d1902d6040518163ffffffff1660e01b8152600401602060405180830381865afa9250505080156119ea575060408051601f3d908101601f191682019092526119e7918101906126f3565b60015b611a2a5760405162461bcd60e51b8152602060048201526011602482015270436f6e7472616374204e6f74205555505360781b6044820152606401610aa1565b600080516020612a458339815191528114611a7f5760405162461bcd60e51b815260206004820152601560248201527410dbdb9d1c9858dd0815555414c8125b9d985b1a59605a1b6044820152606401610aa1565b50611a8b848484611ddd565b9050610a50565b6040516bffffffffffffffffffffffff19606083901b166020820152600090603401604051602081830303815290604052805190602001209050919050565b60045460609060ff16611af65760405162461bcd60e51b8152600401610aa1906128f2565b6001600160a01b0384163b611b485760405162461bcd60e51b8152602060048201526018602482015277496c6c6567616c20436f6e7472616374204164647265737360401b6044820152606401610aa1565b600080856001600160a01b031685604051611b639190612921565b600060405180830381855af49150503d8060008114611b9e576040519150601f19603f3d011682016040523d82523d6000602084013e611ba3565b606091505b5091509150611bb3828286611e47565b9695505050505050565b6001600160a01b037f0000000000000000000000000000000000000000000000000000000000000000163003611c055760405162461bcd60e51b8152600401610aa19061270c565b7f00000000000000000000000000000000000000000000000000000000000000006001600160a01b0316611c376113f9565b6001600160a01b031614611c5d5760405162461bcd60e51b8152600401610aa19061273b565b605e5462010000900460ff16611cb55760405162461bcd60e51b815260206004820152601960248201527f436f6e7472616374204e6f7420496e697469616c697a696e67000000000000006044820152606401610aa1565b6001611cc2868883612983565b506002611cd0848683612983565b5060038290556001600160a01b038116611cfb57600080546001600160a01b03191630179055611d17565b600080546001600160a01b0319166001600160a01b0383161790555b6004805461ffff191660011790556000546116b2906001600160a01b03166116ba565b60045460ff16611d5c5760405162461bcd60e51b8152600401610aa1906128f2565b6001600160a01b0381163b611dae5760405162461bcd60e51b8152602060048201526018602482015277496c6c6567616c20436f6e7472616374204164647265737360401b6044820152606401610aa1565b600080516020612a4583398151915280546001600160a01b0319166001600160a01b0392909216919091179055565b6060611de884611e80565b600083511180611df55750815b15611e3057611a8b84846040518060400160405280601381526020017211195b1959d85d1958d85b1b0811985a5b1959606a1b815250611ad1565b505060408051600081526020810190915292915050565b60608315611e56575081610a50565b825115611e665782518084602001fd5b8160405162461bcd60e51b8152600401610aa191906124b6565b600454610100900460ff16611ed75760405162461bcd60e51b815260206004820152601b60248201527f436f6e746578742055706772616461626c652044697361626c656400000000006044820152606401610aa1565b611ee081611d3a565b6040516001600160a01b03821690309033907f354bd4b6eb65d64e6c79c53fa4f983a5e6bec4824ce4627c71be0b2722f4917e90600090a450565b80356001600160e01b031981168114610bbd57600080fd5b600060208284031215611f4557600080fd5b610a5082611f1b565b600060208284031215611f6057600080fd5b5035919050565b60008060008385036060811215611f7d57600080fd5b6040811215611f8b57600080fd5b50839250604084013567ffffffffffffffff80821115611faa57600080fd5b818601915086601f830112611fbe57600080fd5b813581811115611fcd57600080fd5b8760208260051b8501011115611fe257600080fd5b6020830194508093505050509250925092565b80151581146118f357600080fd5b8035610bbd81611ff5565b60006020828403121561202057600080fd5b8135610a5081611ff5565b60005b8381101561204657818101518382015260200161202e565b83811115612055576000848401525b50505050565b6000815180845261207381602086016020860161202b565b601f01601f19169290920160200192915050565b60808152600061209a608083018761205b565b82810360208401526120ac818761205b565b6040840195909552505090151560609091015292915050565b6020808252825182820181905260009190848201906040850190845b818110156121075783516001600160e01b031916835292840192918401916001016120e1565b50909695505050505050565b6020808252825182820181905260009190848201906040850190845b818110156121075783518352928401929184019160010161212f565b60008060006060848603121561216057600080fd5b8335925061217060208501611f1b565b9150604084013590509250925092565b80356001600160a01b0381168114610bbd57600080fd5b6000602082840312156121a957600080fd5b610a5082612180565b60008083601f8401126121c457600080fd5b50813567ffffffffffffffff8111156121dc57600080fd5b6020830191508360208285010111156121f457600080fd5b9250929050565b60008060008060008060006080888a03121561221657600080fd5b873567ffffffffffffffff8082111561222e57600080fd5b61223a8b838c016121b2565b909950975060208a013591508082111561225357600080fd5b61225f8b838c016121b2565b909750955060408a013591508082111561227857600080fd5b506122858a828b016121b2565b9094509250612298905060608901612180565b905092959891949750929550565b600080604083850312156122b957600080fd5b823591506122c960208401612180565b90509250929050565b6020808252825182820181905260009190848201906040850190845b818110156121075783516001600160a01b0316835292840192918401916001016122ee565b60008060006060848603121561232857600080fd5b833592506020840135915061233f60408501611f1b565b90509250925092565b60608152600061235b606083018661205b565b828103602084015261236d818661205b565b9150508215156040830152949350505050565b60008060006040848603121561239557600080fd5b833567ffffffffffffffff8111156123ac57600080fd5b6123b8868287016121b2565b90945092505060208401356123cc81611ff5565b809150509250925092565b634e487b7160e01b600052604160045260246000fd5b60008060006060848603121561240257600080fd5b61240b84612180565b9250602084013567ffffffffffffffff8082111561242857600080fd5b818601915086601f83011261243c57600080fd5b81358181111561244e5761244e6123d7565b604051601f8201601f19908116603f01168101908382118183101715612476576124766123d7565b8160405282815289602084870101111561248f57600080fd5b82602086016020830137600060208483010152809650505050505061233f60408501612003565b602081526000610a50602083018461205b565b6000806000806000606086880312156124e157600080fd5b853567ffffffffffffffff808211156124f957600080fd5b61250589838a016121b2565b9097509550602088013591508082111561251e57600080fd5b5061252b888289016121b2565b909450925050604086013561253f81611ff5565b809150509295509295909350565b6000806040838503121561256057600080fd5b50508035926020909101359150565b604081526000612582604083018561205b565b905082151560208301529392505050565b6000806000606084860312156125a857600080fd5b833592506125b860208501612180565b915061233f60408501611f1b565b60006080820186835260208635818501526125e2818801612180565b6001600160a01b03166040858101919091526080606080870191909152928690526005929060a08681019088861b8801018960005b8a8110156126e157898303609f190184528135368d9003603e1901811261263d57600080fd5b8c01803584528386018882013536839003601e1901811261265d57600080fd5b90910188810191903567ffffffffffffffff81111561267b57600080fd5b808b1b360383131561268c57600080fd5b858a01889052908190526000908886015b818310156126cc576001600160e01b03196126b785611f1b565b168152928a0192600192909201918a0161269d565b968a0196955050509187019150600101612617565b50909c9b505050505050505050505050565b60006020828403121561270557600080fd5b5051919050565b602080825260159082015274125b1b1959d85b0810dbdb9d1c9858dd0810d85b1b605a1b604082015260600190565b602080825260149082015273141c9bde1e4810d85b1b195908125b9d985b1a5960621b604082015260600190565b634e487b7160e01b600052603260045260246000fd5b8183823760009101908152919050565b600181811c908216806127a357607f821691505b6020821081036127c357634e487b7160e01b600052602260045260246000fd5b50919050565b600081546127d68161278f565b8085526020600183811680156127f3576001811461280d5761283b565b60ff1985168884015283151560051b88018301955061283b565b866000528260002060005b858110156128335781548a8201860152908301908401612818565b890184019650505b505050505092915050565b60808152600061285960808301876127c9565b828103602084015261286b81876127c9565b91505083604083015261ffff8316606083015295945050505050565b9283526001600160a01b039190911660208301526001600160e01b031916604082015260600190565b6000828210156128d057634e487b7160e01b600052601160045260246000fd5b500390565b6000602082840312156128e757600080fd5b8151610a5081611ff5565b60208082526015908201527410dbdb9d195e1d08139bdd081058dd1a5d985d1959605a1b604082015260600190565b6000825161293381846020870161202b565b9190910192915050565b601f82111561143e57600081815260208120601f850160051c810160208610156129645750805b601f850160051c820191505b818110156116b257828155600101612970565b67ffffffffffffffff83111561299b5761299b6123d7565b6129af836129a9835461278f565b8361293d565b6000601f8411600181146129e357600085156129cb5750838201355b600019600387901b1c1916600186901b178355612a3d565b600083815260209020601f19861690835b82811015612a1457868501358255602094850194600190920191016129f4565b5086821015612a315760001960f88860031b161c19848701351681555b505060018560011b0183555b505050505056fe360894a13ba1a3210667c828492db98dca3e2076cc3735a920a3ca505d382bbca2646970667358221220ae30941790c46039e2a87c2f309e3bf4aec9638ab4619d6df3944b96330843b664736f6c634300080f0033b53127684a568b3173ae13b9f8a6016e243e63b6e8ee1178d6a717850b5d6103",
  "deployedBytecode": "0x6080604052600436106103e85760003560e01c8063704b6c0211610208578063c3f1f22d11610118578063ea377987116100ab578063f34b22021161007a578063f34b220214610854578063f5122c9214610854578063fb72237d14610434578063fc1dad81146108ef578063fdba6b1714610434576103f7565b8063ea37798714610434578063edf1d1cb14610556578063f254453b14610434578063f28f309214610854576103f7565b8063d8b31999116100e7578063d8b31999146106d2578063d97f9e5d14610434578063d9aba36e14610854578063df01de4514610687576103f7565b8063c3f1f22d14610434578063c7ab39e6146108b6578063d3e024b8146108da578063d545594f14610434576103f7565b80639dd072541161019b578063b386033f1161016a578063b386033f14610761578063b567d4ba14610884578063b879bdfb14610884578063c2f6167a146105d8578063c34dd6a114610854576103f7565b80639dd07254146108345780639f8e37bb14610854578063a0a8e4601461086f578063ac7e7c6714610434576103f7565b8063870666cb116101d7578063870666cb146107de5780638b480975146107f35780638f09e0f01461068757806396a9b47114610819576103f7565b8063704b6c021461077c5780637147855d1461079c57806375d0c0dc146107c9578063771bcf451461059c576103f7565b80634346a04b116103035780635c6d8da1116102965780636ac58ac1116102655780636ac58ac1146106e75780636b3b0159146106fc5780636e8eb7bc146107175780636e9960c31461074c5780636fb63dca14610761576103f7565b80635c6d8da1146106675780635dd0a7db146106875780636217088f146106aa57806365753319146106d2576103f7565b80635472e25e116102d25780635472e25e146105565780635479d940146106085780635632ffd81461062557806358dbc45d1461063a576103f7565b80634346a04b1461059c5780634a8c1fb4146105c05780634f2eca98146105d857806352d1902d146105f3576103f7565b80631cc032cf1161037b57806329b2be011161034a57806329b2be01146104f05780632e2adf00146105285780632f671733146105565780633ec91f051461057e576103f7565b80631cc032cf146104c65780631e26521a1461043457806320c877071461043457806320dd27af146104db576103f7565b80630d1ee1bd116103b75780630d1ee1bd1461043457806312c1a08e14610434578063133899f514610483578063178cf4bb146104a3576103f7565b806301ffc9a7146103ff5780630610e0371461043457806309d4a907146104345780630c9a907414610455576103f7565b366103f7576103f561090d565b005b6103f561090d565b34801561040b57600080fd5b5061041f61041a366004611f33565b61091f565b60405190151581526020015b60405180910390f35b34801561044057600080fd5b5061041f61044f366004611f4e565b50600090565b34801561046157600080fd5b50610475610470366004611f67565b610971565b60405190815260200161042b565b34801561048f57600080fd5b5061041f61049e36600461200e565b610a57565b3480156104af57600080fd5b50605e5460405161ffff909116815260200161042b565b3480156104d257600080fd5b5061041f610bc2565b3480156104e757600080fd5b50610475610e8e565b3480156104fc57600080fd5b5061051861050b366004611f4e565b6060806000809193509193565b60405161042b9493929190612087565b34801561053457600080fd5b50610549610543366004611f4e565b50606090565b60405161042b91906120c5565b34801561056257600080fd5b50610571610543366004611f4e565b60405161042b9190612113565b34801561058a57600080fd5b50605e5462010000900460ff1661041f565b3480156105a857600080fd5b5061041f6105b736600461214b565b60009392505050565b3480156105cc57600080fd5b5060045460ff1661041f565b3480156105e457600080fd5b5061041f61044f366004612197565b3480156105ff57600080fd5b50610475610ecb565b34801561061457600080fd5b50600454610100900460ff1661041f565b34801561063157600080fd5b50610475610f58565b34801561064657600080fd5b5061064f610f89565b6040516001600160a01b03909116815260200161042b565b34801561067357600080fd5b506103f56106823660046121fb565b610f98565b34801561069357600080fd5b5061041f6106a23660046122a6565b600092915050565b3480156106b657600080fd5b506106c5610543366004611f4e565b60405161042b91906122d2565b3480156106de57600080fd5b506104756110d5565b3480156106f357600080fd5b506104756110fa565b34801561070857600080fd5b5061041f6105b7366004612313565b34801561072357600080fd5b5061073d610732366004611f4e565b506060908190600090565b60405161042b93929190612348565b34801561075857600080fd5b5061064f611122565b34801561076d57600080fd5b506104756105b7366004612380565b34801561078857600080fd5b5061041f610797366004612197565b61112c565b3480156107a857600080fd5b506107bc6107b73660046123ed565b61113f565b60405161042b91906124b6565b3480156107d557600080fd5b506107bc6111fd565b3480156107ea57600080fd5b5061047561128f565b3480156107ff57600080fd5b5061047561080e3660046124c9565b600095945050505050565b34801561082557600080fd5b506104756105b7366004611f67565b34801561084057600080fd5b5061041f61084f36600461200e565b61129a565b34801561086057600080fd5b5061041f6106a236600461254d565b34801561087b57600080fd5b506107bc6113e7565b34801561089057600080fd5b506108a861089f366004611f4e565b60606000915091565b60405161042b92919061256f565b3480156108c257600080fd5b5061041f6108d1366004612593565b60019392505050565b3480156108e657600080fd5b50600354610475565b3480156108fb57600080fd5b506000546001600160a01b031661064f565b61091d6109186113f9565b61141a565b565b60006001600160e01b0319821663c610991560e01b148061095057506001600160e01b031982166352d1902d60e01b145b8061096b57506301ffc9a760e01b6001600160e01b03198316145b92915050565b60008073__$0304621006bd13fe54dc5f6b75a37ec856$__63d8f3048260458787876040518563ffffffff1660e01b81526004016109b294939291906125c6565b602060405180830381865af41580156109cf573d6000803e3d6000fd5b505050506040513d601f19601f820116820180604052508101906109f391906126f3565b905033610a066040870160208801612197565b6001600160a01b0316827f11cf8f3561fae187c57df59424ecf5d3f444e138924944c77dcb68144c6357318860000135604051610a4591815260200190565b60405180910390a490505b9392505050565b60006001600160a01b037f0000000000000000000000000000000000000000000000000000000000000000163003610aaa5760405162461bcd60e51b8152600401610aa19061270c565b60405180910390fd5b7f00000000000000000000000000000000000000000000000000000000000000006001600160a01b0316610adc6113f9565b6001600160a01b031614610b025760405162461bcd60e51b8152600401610aa19061273b565b610b1263133899f560e01b611443565b610b5e5760405162461bcd60e51b815260206004820152601e60248201527f4368616e6765205570677261646162696c69747920466f7262696464656e00006044820152606401610aa1565b6004805461ff0019166101008415150217905560035430336001600160a01b03167fc6897d79f339058b761ed7563fa04b4f4bdda8dab073af53173e440326e4a95185604051610bb2911515815260200190565b60405180910390a450805b919050565b60006001600160a01b037f0000000000000000000000000000000000000000000000000000000000000000163003610c0c5760405162461bcd60e51b8152600401610aa19061270c565b7f00000000000000000000000000000000000000000000000000000000000000006001600160a01b0316610c3e6113f9565b6001600160a01b031614610c645760405162461bcd60e51b8152600401610aa19061273b565b33610c6d61158d565b6001600160a01b031614610cbb5760405162461bcd60e51b815260206004820152601560248201527410d85b1b195c88139bdd08105d5d1a1bdc9a5e9959605a1b6044820152606401610aa1565b60006040518060400160405280600354604051602001610cdd91815260200190565b60408051808303601f1901815291815281516020928301208352309282019290925281518083018352600081526060818301528251704c4956454c595f41444d494e5f524f4c4560781b81840152835160118183030181526031909101845280519083012081528251600a808252610160820190945293945092919082016101408036833750505060208201819052805163133899f560e01b9190600090610d8757610d87612769565b6001600160e01b031990921660209283029190910182015281015180516327741c9560e21b91906001908110610dbf57610dbf612769565b6001600160e01b03199092166020928302919091018201528101518051633825b60160e11b91906002908110610df757610df7612769565b6001600160e01b03199092166020928302919091018201528101518051637147855d60e01b91906003908110610e2f57610e2f612769565b6001600160e01b03199092166020928302919091018201528101518051635c6d8da160e01b91906004908110610e6757610e67612769565b60200260200101906001600160e01b03191690816001600160e01b03191681525050505090565b604051734c4956454c595f47454e4552414c5f5245414c4d60601b60208201526034015b6040516020818303038152906040528051906020012081565b6000306001600160a01b037f00000000000000000000000000000000000000000000000000000000000000001614610f455760405162461bcd60e51b815260206004820152601e60248201527f496c6c656167616c20436f6e74726163742044656c656761746563616c6c00006044820152606401610aa1565b50600080516020612a4583398151915290565b6040517f4c4956454c595f53595354454d5f41444d494e5f524f4c4500000000000000006020820152603801610eb2565b6000610f936113f9565b905090565b33610fa161158d565b6001600160a01b031614610fef5760405162461bcd60e51b815260206004820152601560248201527410d85b1b195c88139bdd08105d5d1a1bdc9a5e9959605a1b6044820152606401610aa1565b6000610ffb60016115b5565b9050801561101557605e805462ff00001916620100001790555b6000848460405160200161102a92919061277f565b6040516020818303038152906040528051906020012090506110508989898985886116a4565b6110586113f9565b6001600160a01b031630336001600160a01b03167ff851a1e85477b818fc72ad517ea622cc316f10f67d61c9e740adc151a8b41394600160028661109f605e5461ffff1690565b6040516110af9493929190612846565b60405180910390a45080156110cb57605e805462ff0000191690555b5050505050505050565b604051704c4956454c595f41444d494e5f524f4c4560781b6020820152603101610eb2565b6040517304c4956454c595f47454e4552414c5f47524f55560641b6020820152603401610eb2565b6000610f9361158d565b6000611137826116ba565b506001919050565b60606001600160a01b037f00000000000000000000000000000000000000000000000000000000000000001630036111895760405162461bcd60e51b8152600401610aa19061270c565b7f00000000000000000000000000000000000000000000000000000000000000006001600160a01b03166111bb6113f9565b6001600160a01b0316146111e15760405162461bcd60e51b8152600401610aa19061273b565b6111ea84611897565b6111f58484846118f6565b949350505050565b60606001805461120c9061278f565b80601f01602080910402602001604051908101604052809291908181526020018280546112389061278f565b80156112855780601f1061125a57610100808354040283529160200191611285565b820191906000526020600020905b81548152906001019060200180831161126857829003601f168201915b5050505050905090565b6000610f9330611a92565b60006001600160a01b037f00000000000000000000000000000000000000000000000000000000000000001630036112e45760405162461bcd60e51b8152600401610aa19061270c565b7f00000000000000000000000000000000000000000000000000000000000000006001600160a01b03166113166113f9565b6001600160a01b03161461133c5760405162461bcd60e51b8152600401610aa19061273b565b61134c6327741c9560e21b611443565b6113985760405162461bcd60e51b815260206004820152601a60248201527f4368616e67656420416374697669747920466f7262696464656e0000000000006044820152606401610aa1565b6004805460ff191683151517905560035430336001600160a01b03167f139c91c652708a87d9a40a2cbfb6d5d37c20d1dcd2a75b2d0c09b59a214474bc85604051610bb2911515815260200190565b60606002805461120c9061278f565b90565b6000600080516020612a458339815191525b546001600160a01b0316919050565b3660008037600080366000845af43d6000803e808015611439573d6000f35b3d6000fd5b505050565b600080546001600160a01b0316300361151257600061146130611a92565b338460405160240161147593929190612887565b60408051601f198184030181529190526020810180516001600160e01b03166363d59cf360e11b179052905060006114dd6114ae6113f9565b836040518060400160405280601081526020016f1a185cd058d8d95cdcc811985a5b195960821b815250611ad1565b905080600182516114ee91906128b0565b815181106114fe576114fe612769565b60209101015160f81c600114949350505050565b6000546001600160a01b031663c7ab39e661152c30611a92565b33856040518463ffffffff1660e01b815260040161154c93929190612887565b602060405180830381865afa158015611569573d6000803e3d6000fd5b505050506040513d601f19601f8201168201806040525081019061096b91906128d5565b60007fb53127684a568b3173ae13b9f8a6016e243e63b6e8ee1178d6a717850b5d610361140b565b605e5460009062010000900460ff1615611630578161ffff1660011480156115dc5750303b155b6116285760405162461bcd60e51b815260206004820152601c60248201527f436f6e747261637420416c726561647920496e697469616c697a6564000000006044820152606401610aa1565b506000919050565b605e5461ffff8084169116106116885760405162461bcd60e51b815260206004820152601a60248201527f496c6c6567616c20496e697469616c697a652056657273696f6e0000000000006044820152606401610aa1565b50605e805461ffff191661ffff92909216919091179055600190565b6116b2868686868686611bbd565b505050505050565b6001600160a01b037f00000000000000000000000000000000000000000000000000000000000000001630036117025760405162461bcd60e51b8152600401610aa19061270c565b7f00000000000000000000000000000000000000000000000000000000000000006001600160a01b03166117346113f9565b6001600160a01b03161461175a5760405162461bcd60e51b8152600401610aa19061273b565b60045460ff1661177c5760405162461bcd60e51b8152600401610aa1906128f2565b61178c633825b60160e11b611443565b6117d85760405162461bcd60e51b815260206004820152601b60248201527f4368616e67652050726f787941646d696e20466f7262696464656e00000000006044820152606401610aa1565b6001600160a01b0381166118205760405162461bcd60e51b815260206004820152600f60248201526e1059191c995cdcc8125b9d985b1a59608a1b6044820152606401610aa1565b7fb53127684a568b3173ae13b9f8a6016e243e63b6e8ee1178d6a717850b5d610380546001600160a01b0383166001600160a01b031990911681179091556040805191825251309133917f4eb572e99196bed0270fbd5b17a948e19c3f50a97838cb0d2a75a823ff8e6c509181900360200190a350565b6118a7637147855d60e01b611443565b6118f35760405162461bcd60e51b815260206004820152601f60248201527f436f6e74657874205570677261646162696c69747920466f7262696464656e006044820152606401610aa1565b50565b60607f4910fdfa16fed3260ed0e7147f7cc6da11a60208b5b9406d12a635614ffd91435460ff161561199057600454610100900460ff166119725760405162461bcd60e51b8152602060048201526016602482015275436f6e74657874204e6f742055706772616461626c6560501b6044820152606401610aa1565b61197b84611d3a565b50604080516000815260208101909152610a50565b836001600160a01b03166352d1902d6040518163ffffffff1660e01b8152600401602060405180830381865afa9250505080156119ea575060408051601f3d908101601f191682019092526119e7918101906126f3565b60015b611a2a5760405162461bcd60e51b8152602060048201526011602482015270436f6e7472616374204e6f74205555505360781b6044820152606401610aa1565b600080516020612a458339815191528114611a7f5760405162461bcd60e51b815260206004820152601560248201527410dbdb9d1c9858dd0815555414c8125b9d985b1a59605a1b6044820152606401610aa1565b50611a8b848484611ddd565b9050610a50565b6040516bffffffffffffffffffffffff19606083901b166020820152600090603401604051602081830303815290604052805190602001209050919050565b60045460609060ff16611af65760405162461bcd60e51b8152600401610aa1906128f2565b6001600160a01b0384163b611b485760405162461bcd60e51b8152602060048201526018602482015277496c6c6567616c20436f6e7472616374204164647265737360401b6044820152606401610aa1565b600080856001600160a01b031685604051611b639190612921565b600060405180830381855af49150503d8060008114611b9e576040519150601f19603f3d011682016040523d82523d6000602084013e611ba3565b606091505b5091509150611bb3828286611e47565b9695505050505050565b6001600160a01b037f0000000000000000000000000000000000000000000000000000000000000000163003611c055760405162461bcd60e51b8152600401610aa19061270c565b7f00000000000000000000000000000000000000000000000000000000000000006001600160a01b0316611c376113f9565b6001600160a01b031614611c5d5760405162461bcd60e51b8152600401610aa19061273b565b605e5462010000900460ff16611cb55760405162461bcd60e51b815260206004820152601960248201527f436f6e7472616374204e6f7420496e697469616c697a696e67000000000000006044820152606401610aa1565b6001611cc2868883612983565b506002611cd0848683612983565b5060038290556001600160a01b038116611cfb57600080546001600160a01b03191630179055611d17565b600080546001600160a01b0319166001600160a01b0383161790555b6004805461ffff191660011790556000546116b2906001600160a01b03166116ba565b60045460ff16611d5c5760405162461bcd60e51b8152600401610aa1906128f2565b6001600160a01b0381163b611dae5760405162461bcd60e51b8152602060048201526018602482015277496c6c6567616c20436f6e7472616374204164647265737360401b6044820152606401610aa1565b600080516020612a4583398151915280546001600160a01b0319166001600160a01b0392909216919091179055565b6060611de884611e80565b600083511180611df55750815b15611e3057611a8b84846040518060400160405280601381526020017211195b1959d85d1958d85b1b0811985a5b1959606a1b815250611ad1565b505060408051600081526020810190915292915050565b60608315611e56575081610a50565b825115611e665782518084602001fd5b8160405162461bcd60e51b8152600401610aa191906124b6565b600454610100900460ff16611ed75760405162461bcd60e51b815260206004820152601b60248201527f436f6e746578742055706772616461626c652044697361626c656400000000006044820152606401610aa1565b611ee081611d3a565b6040516001600160a01b03821690309033907f354bd4b6eb65d64e6c79c53fa4f983a5e6bec4824ce4627c71be0b2722f4917e90600090a450565b80356001600160e01b031981168114610bbd57600080fd5b600060208284031215611f4557600080fd5b610a5082611f1b565b600060208284031215611f6057600080fd5b5035919050565b60008060008385036060811215611f7d57600080fd5b6040811215611f8b57600080fd5b50839250604084013567ffffffffffffffff80821115611faa57600080fd5b818601915086601f830112611fbe57600080fd5b813581811115611fcd57600080fd5b8760208260051b8501011115611fe257600080fd5b6020830194508093505050509250925092565b80151581146118f357600080fd5b8035610bbd81611ff5565b60006020828403121561202057600080fd5b8135610a5081611ff5565b60005b8381101561204657818101518382015260200161202e565b83811115612055576000848401525b50505050565b6000815180845261207381602086016020860161202b565b601f01601f19169290920160200192915050565b60808152600061209a608083018761205b565b82810360208401526120ac818761205b565b6040840195909552505090151560609091015292915050565b6020808252825182820181905260009190848201906040850190845b818110156121075783516001600160e01b031916835292840192918401916001016120e1565b50909695505050505050565b6020808252825182820181905260009190848201906040850190845b818110156121075783518352928401929184019160010161212f565b60008060006060848603121561216057600080fd5b8335925061217060208501611f1b565b9150604084013590509250925092565b80356001600160a01b0381168114610bbd57600080fd5b6000602082840312156121a957600080fd5b610a5082612180565b60008083601f8401126121c457600080fd5b50813567ffffffffffffffff8111156121dc57600080fd5b6020830191508360208285010111156121f457600080fd5b9250929050565b60008060008060008060006080888a03121561221657600080fd5b873567ffffffffffffffff8082111561222e57600080fd5b61223a8b838c016121b2565b909950975060208a013591508082111561225357600080fd5b61225f8b838c016121b2565b909750955060408a013591508082111561227857600080fd5b506122858a828b016121b2565b9094509250612298905060608901612180565b905092959891949750929550565b600080604083850312156122b957600080fd5b823591506122c960208401612180565b90509250929050565b6020808252825182820181905260009190848201906040850190845b818110156121075783516001600160a01b0316835292840192918401916001016122ee565b60008060006060848603121561232857600080fd5b833592506020840135915061233f60408501611f1b565b90509250925092565b60608152600061235b606083018661205b565b828103602084015261236d818661205b565b9150508215156040830152949350505050565b60008060006040848603121561239557600080fd5b833567ffffffffffffffff8111156123ac57600080fd5b6123b8868287016121b2565b90945092505060208401356123cc81611ff5565b809150509250925092565b634e487b7160e01b600052604160045260246000fd5b60008060006060848603121561240257600080fd5b61240b84612180565b9250602084013567ffffffffffffffff8082111561242857600080fd5b818601915086601f83011261243c57600080fd5b81358181111561244e5761244e6123d7565b604051601f8201601f19908116603f01168101908382118183101715612476576124766123d7565b8160405282815289602084870101111561248f57600080fd5b82602086016020830137600060208483010152809650505050505061233f60408501612003565b602081526000610a50602083018461205b565b6000806000806000606086880312156124e157600080fd5b853567ffffffffffffffff808211156124f957600080fd5b61250589838a016121b2565b9097509550602088013591508082111561251e57600080fd5b5061252b888289016121b2565b909450925050604086013561253f81611ff5565b809150509295509295909350565b6000806040838503121561256057600080fd5b50508035926020909101359150565b604081526000612582604083018561205b565b905082151560208301529392505050565b6000806000606084860312156125a857600080fd5b833592506125b860208501612180565b915061233f60408501611f1b565b60006080820186835260208635818501526125e2818801612180565b6001600160a01b03166040858101919091526080606080870191909152928690526005929060a08681019088861b8801018960005b8a8110156126e157898303609f190184528135368d9003603e1901811261263d57600080fd5b8c01803584528386018882013536839003601e1901811261265d57600080fd5b90910188810191903567ffffffffffffffff81111561267b57600080fd5b808b1b360383131561268c57600080fd5b858a01889052908190526000908886015b818310156126cc576001600160e01b03196126b785611f1b565b168152928a0192600192909201918a0161269d565b968a0196955050509187019150600101612617565b50909c9b505050505050505050505050565b60006020828403121561270557600080fd5b5051919050565b602080825260159082015274125b1b1959d85b0810dbdb9d1c9858dd0810d85b1b605a1b604082015260600190565b602080825260149082015273141c9bde1e4810d85b1b195908125b9d985b1a5960621b604082015260600190565b634e487b7160e01b600052603260045260246000fd5b8183823760009101908152919050565b600181811c908216806127a357607f821691505b6020821081036127c357634e487b7160e01b600052602260045260246000fd5b50919050565b600081546127d68161278f565b8085526020600183811680156127f3576001811461280d5761283b565b60ff1985168884015283151560051b88018301955061283b565b866000528260002060005b858110156128335781548a8201860152908301908401612818565b890184019650505b505050505092915050565b60808152600061285960808301876127c9565b828103602084015261286b81876127c9565b91505083604083015261ffff8316606083015295945050505050565b9283526001600160a01b039190911660208301526001600160e01b031916604082015260600190565b6000828210156128d057634e487b7160e01b600052601160045260246000fd5b500390565b6000602082840312156128e757600080fd5b8151610a5081611ff5565b60208082526015908201527410dbdb9d195e1d08139bdd081058dd1a5d985d1959605a1b604082015260600190565b6000825161293381846020870161202b565b9190910192915050565b601f82111561143e57600081815260208120601f850160051c810160208610156129645750805b601f850160051c820191505b818110156116b257828155600101612970565b67ffffffffffffffff83111561299b5761299b6123d7565b6129af836129a9835461278f565b8361293d565b6000601f8411600181146129e357600085156129cb5750838201355b600019600387901b1c1916600186901b178355612a3d565b600083815260209020601f19861690835b82811015612a1457868501358255602094850194600190920191016129f4565b5086821015612a315760001960f88860031b161c19848701351681555b505060018560011b0183555b505050505056fe360894a13ba1a3210667c828492db98dca3e2076cc3735a920a3ca505d382bbca2646970667358221220ae30941790c46039e2a87c2f309e3bf4aec9638ab4619d6df3944b96330843b664736f6c634300080f0033",
  "libraries": {
    "ContextManagementLib": "0x5FbDB2315678afecb367f032d93F642f64180aa3"
  },
  "devdoc": {
    "kind": "dev",
    "methods": {
      "grantRoleAccount(bytes32,address)": {
        "details": "Grants `role` to `account`. If `account` had not been already granted `role`, emits a {RoleGranted} event. Requirements: - the caller must have ``role``'s admin role."
      },
      "hasAccess(bytes32,address,bytes4)": {
        "details": "Function called by apps to check ACL on kernel or to check permission status",
        "returns": {
          "_0": "boolean indicating whether the ACL allows the role or not"
        }
      },
      "hasAccountRole(bytes32,address)": {
        "details": "Returns `true` if `account` has been granted `role`."
      },
      "proxiableUUID()": {
        "details": "Implementation of the ERC1822 {proxiableUUID} function. This returns the storage slot used by the implementation. It is used to validate that the this implementation remains valid after an upgrade. IMPORTANT: A proxy pointing at a proxiable contract should not be considered proxiable itself, because this risks bricking a proxy that upgrades to it, by delegating to itself until out of gas. Thus it is critical that this function revert if invoked through a proxy. This is guaranteed by the `notDelegated` modifier."
      },
      "revokeRoleAccount(bytes32,address)": {
        "details": "Revokes `role` from `account`. If `account` had been granted `role`, emits a {RoleRevoked} event. Requirements: - the caller must have ``role``'s admin role."
      },
      "supportsInterface(bytes4)": {
        "details": "See {IERC165-supportsInterface}."
      }
    },
    "version": 1
  },
  "userdoc": {
    "kind": "user",
    "methods": {},
    "version": 1
  },
  "storageLayout": {
    "storage": [
      {
        "astId": 12263,
        "contract": "src/contracts/acl/AccessControlManager.sol:AccessControlManager",
        "label": "_accessControl",
        "offset": 0,
        "slot": "0",
        "type": "t_address"
      },
      {
        "astId": 12265,
        "contract": "src/contracts/acl/AccessControlManager.sol:AccessControlManager",
        "label": "_domainName",
        "offset": 0,
        "slot": "1",
        "type": "t_string_storage"
      },
      {
        "astId": 12267,
        "contract": "src/contracts/acl/AccessControlManager.sol:AccessControlManager",
        "label": "_domainVersion",
        "offset": 0,
        "slot": "2",
        "type": "t_string_storage"
      },
      {
        "astId": 12269,
        "contract": "src/contracts/acl/AccessControlManager.sol:AccessControlManager",
        "label": "_domainRealm",
        "offset": 0,
        "slot": "3",
        "type": "t_bytes32"
      },
      {
        "astId": 12271,
        "contract": "src/contracts/acl/AccessControlManager.sol:AccessControlManager",
        "label": "_isEnabled",
        "offset": 0,
        "slot": "4",
        "type": "t_bool"
      },
      {
        "astId": 12273,
        "contract": "src/contracts/acl/AccessControlManager.sol:AccessControlManager",
        "label": "_isUpgradable",
        "offset": 1,
        "slot": "4",
        "type": "t_bool"
      },
      {
        "astId": 12278,
        "contract": "src/contracts/acl/AccessControlManager.sol:AccessControlManager",
        "label": "__gap",
        "offset": 0,
        "slot": "5",
        "type": "t_array(t_uint256)64_storage"
      },
      {
        "astId": 8836,
        "contract": "src/contracts/acl/AccessControlManager.sol:AccessControlManager",
        "label": "_dataMaps",
        "offset": 0,
        "slot": "69",
        "type": "t_struct(DataMaps)8833_storage"
      },
      {
        "astId": 8839,
        "contract": "src/contracts/acl/AccessControlManager.sol:AccessControlManager",
        "label": "_livelyGeneralRealm",
        "offset": 0,
        "slot": "74",
        "type": "t_struct(Realm)8799_storage"
      },
      {
        "astId": 8842,
        "contract": "src/contracts/acl/AccessControlManager.sol:AccessControlManager",
        "label": "_livelyGeneralGroup",
        "offset": 0,
        "slot": "78",
        "type": "t_struct(Group)8807_storage"
      },
      {
        "astId": 8845,
        "contract": "src/contracts/acl/AccessControlManager.sol:AccessControlManager",
        "label": "_livelyAdminRole",
        "offset": 0,
        "slot": "82",
        "type": "t_struct(Role)8789_storage"
      },
      {
        "astId": 8848,
        "contract": "src/contracts/acl/AccessControlManager.sol:AccessControlManager",
        "label": "_liveltSystemAdminRole",
        "offset": 0,
        "slot": "88",
        "type": "t_struct(Role)8789_storage"
      },
      {
        "astId": 12440,
        "contract": "src/contracts/acl/AccessControlManager.sol:AccessControlManager",
        "label": "_initialized",
        "offset": 0,
        "slot": "94",
        "type": "t_uint16"
      },
      {
        "astId": 12443,
        "contract": "src/contracts/acl/AccessControlManager.sol:AccessControlManager",
        "label": "_initializing",
        "offset": 2,
        "slot": "94",
        "type": "t_bool"
      },
      {
        "astId": 12895,
        "contract": "src/contracts/acl/AccessControlManager.sol:AccessControlManager",
        "label": "__gap",
        "offset": 0,
        "slot": "95",
        "type": "t_array(t_uint256)64_storage"
      }
    ],
    "types": {
      "t_address": {
        "encoding": "inplace",
        "label": "address",
        "numberOfBytes": "20"
      },
      "t_array(t_bytes32)dyn_storage": {
        "base": "t_bytes32",
        "encoding": "dynamic_array",
        "label": "bytes32[]",
        "numberOfBytes": "32"
      },
      "t_array(t_uint256)64_storage": {
        "base": "t_uint256",
        "encoding": "inplace",
        "label": "uint256[64]",
        "numberOfBytes": "2048"
      },
      "t_bool": {
        "encoding": "inplace",
        "label": "bool",
        "numberOfBytes": "1"
      },
      "t_bytes32": {
        "encoding": "inplace",
        "label": "bytes32",
        "numberOfBytes": "32"
      },
      "t_enum(Status)8766": {
        "encoding": "inplace",
        "label": "enum AccessControlStorage.Status",
        "numberOfBytes": "1"
      },
      "t_mapping(t_address,t_array(t_bytes32)dyn_storage)": {
        "encoding": "mapping",
        "key": "t_address",
        "label": "mapping(address => bytes32[])",
        "numberOfBytes": "32",
        "value": "t_array(t_bytes32)dyn_storage"
      },
      "t_mapping(t_bytes32,t_bytes32)": {
        "encoding": "mapping",
        "key": "t_bytes32",
        "label": "mapping(bytes32 => bytes32)",
        "numberOfBytes": "32",
        "value": "t_bytes32"
      },
      "t_mapping(t_bytes32,t_enum(Status)8766)": {
        "encoding": "mapping",
        "key": "t_bytes32",
        "label": "mapping(bytes32 => enum AccessControlStorage.Status)",
        "numberOfBytes": "32",
        "value": "t_enum(Status)8766"
      },
      "t_mapping(t_bytes32,t_struct(Context)8779_storage)": {
        "encoding": "mapping",
        "key": "t_bytes32",
        "label": "mapping(bytes32 => struct AccessControlStorage.Context)",
        "numberOfBytes": "32",
        "value": "t_struct(Context)8779_storage"
      },
      "t_mapping(t_bytes32,t_struct(Group)8807_storage)": {
        "encoding": "mapping",
        "key": "t_bytes32",
        "label": "mapping(bytes32 => struct AccessControlStorage.Group)",
        "numberOfBytes": "32",
        "value": "t_struct(Group)8807_storage"
      },
      "t_mapping(t_bytes32,t_struct(Realm)8799_storage)": {
        "encoding": "mapping",
        "key": "t_bytes32",
        "label": "mapping(bytes32 => struct AccessControlStorage.Realm)",
        "numberOfBytes": "32",
        "value": "t_struct(Realm)8799_storage"
      },
      "t_mapping(t_bytes32,t_struct(Role)8789_storage)": {
        "encoding": "mapping",
        "key": "t_bytes32",
        "label": "mapping(bytes32 => struct AccessControlStorage.Role)",
        "numberOfBytes": "32",
        "value": "t_struct(Role)8789_storage"
      },
      "t_mapping(t_bytes32,t_uint256)": {
        "encoding": "mapping",
        "key": "t_bytes32",
        "label": "mapping(bytes32 => uint256)",
        "numberOfBytes": "32",
        "value": "t_uint256"
      },
      "t_string_storage": {
        "encoding": "bytes",
        "label": "string",
        "numberOfBytes": "32"
      },
      "t_struct(AddressToUintMap)10519_storage": {
        "encoding": "inplace",
        "label": "struct EnumerableMap.AddressToUintMap",
        "members": [
          {
            "astId": 10518,
            "contract": "src/contracts/acl/AccessControlManager.sol:AccessControlManager",
            "label": "_inner",
            "offset": 0,
            "slot": "0",
            "type": "t_struct(Bytes32ToBytes32Map)10052_storage"
          }
        ],
        "numberOfBytes": "96"
      },
      "t_struct(Bytes32Set)10970_storage": {
        "encoding": "inplace",
        "label": "struct EnumerableSet.Bytes32Set",
        "members": [
          {
            "astId": 10969,
            "contract": "src/contracts/acl/AccessControlManager.sol:AccessControlManager",
            "label": "_inner",
            "offset": 0,
            "slot": "0",
            "type": "t_struct(Set)10776_storage"
          }
        ],
        "numberOfBytes": "64"
      },
      "t_struct(Bytes32ToBytes32Map)10052_storage": {
        "encoding": "inplace",
        "label": "struct EnumerableMap.Bytes32ToBytes32Map",
        "members": [
          {
            "astId": 10047,
            "contract": "src/contracts/acl/AccessControlManager.sol:AccessControlManager",
            "label": "_keys",
            "offset": 0,
            "slot": "0",
            "type": "t_struct(Bytes32Set)10970_storage"
          },
          {
            "astId": 10051,
            "contract": "src/contracts/acl/AccessControlManager.sol:AccessControlManager",
            "label": "_values",
            "offset": 0,
            "slot": "2",
            "type": "t_mapping(t_bytes32,t_bytes32)"
          }
        ],
        "numberOfBytes": "96"
      },
      "t_struct(Context)8779_storage": {
        "encoding": "inplace",
        "label": "struct AccessControlStorage.Context",
        "members": [
          {
            "astId": 8768,
            "contract": "src/contracts/acl/AccessControlManager.sol:AccessControlManager",
            "label": "realm",
            "offset": 0,
            "slot": "0",
            "type": "t_bytes32"
          },
          {
            "astId": 8770,
            "contract": "src/contracts/acl/AccessControlManager.sol:AccessControlManager",
            "label": "smca",
            "offset": 0,
            "slot": "1",
            "type": "t_address"
          },
          {
            "astId": 8775,
            "contract": "src/contracts/acl/AccessControlManager.sol:AccessControlManager",
            "label": "resources",
            "offset": 0,
            "slot": "2",
            "type": "t_mapping(t_bytes32,t_enum(Status)8766)"
          },
          {
            "astId": 8778,
            "contract": "src/contracts/acl/AccessControlManager.sol:AccessControlManager",
            "label": "funcSet",
            "offset": 0,
            "slot": "3",
            "type": "t_struct(Bytes32Set)10970_storage"
          }
        ],
        "numberOfBytes": "160"
      },
      "t_struct(DataMaps)8833_storage": {
        "encoding": "inplace",
        "label": "struct AccessControlStorage.DataMaps",
        "members": [
          {
            "astId": 8812,
            "contract": "src/contracts/acl/AccessControlManager.sol:AccessControlManager",
            "label": "userRoleMap",
            "offset": 0,
            "slot": "0",
            "type": "t_mapping(t_address,t_array(t_bytes32)dyn_storage)"
          },
          {
            "astId": 8817,
            "contract": "src/contracts/acl/AccessControlManager.sol:AccessControlManager",
            "label": "ctxMap",
            "offset": 0,
            "slot": "1",
            "type": "t_mapping(t_bytes32,t_struct(Context)8779_storage)"
          },
          {
            "astId": 8822,
            "contract": "src/contracts/acl/AccessControlManager.sol:AccessControlManager",
            "label": "roleMap",
            "offset": 0,
            "slot": "2",
            "type": "t_mapping(t_bytes32,t_struct(Role)8789_storage)"
          },
          {
            "astId": 8827,
            "contract": "src/contracts/acl/AccessControlManager.sol:AccessControlManager",
            "label": "realmMap",
            "offset": 0,
            "slot": "3",
            "type": "t_mapping(t_bytes32,t_struct(Realm)8799_storage)"
          },
          {
            "astId": 8832,
            "contract": "src/contracts/acl/AccessControlManager.sol:AccessControlManager",
            "label": "groupMap",
            "offset": 0,
            "slot": "4",
            "type": "t_mapping(t_bytes32,t_struct(Group)8807_storage)"
          }
        ],
        "numberOfBytes": "160"
      },
      "t_struct(Group)8807_storage": {
        "encoding": "inplace",
        "label": "struct AccessControlStorage.Group",
        "members": [
          {
            "astId": 8801,
            "contract": "src/contracts/acl/AccessControlManager.sol:AccessControlManager",
            "label": "name",
            "offset": 0,
            "slot": "0",
            "type": "t_string_storage"
          },
          {
            "astId": 8803,
            "contract": "src/contracts/acl/AccessControlManager.sol:AccessControlManager",
            "label": "isEnabled",
            "offset": 0,
            "slot": "1",
            "type": "t_bool"
          },
          {
            "astId": 8806,
            "contract": "src/contracts/acl/AccessControlManager.sol:AccessControlManager",
            "label": "roles",
            "offset": 0,
            "slot": "2",
            "type": "t_struct(Bytes32Set)10970_storage"
          }
        ],
        "numberOfBytes": "128"
      },
      "t_struct(Realm)8799_storage": {
        "encoding": "inplace",
        "label": "struct AccessControlStorage.Realm",
        "members": [
          {
            "astId": 8791,
            "contract": "src/contracts/acl/AccessControlManager.sol:AccessControlManager",
            "label": "name",
            "offset": 0,
            "slot": "0",
            "type": "t_string_storage"
          },
          {
            "astId": 8793,
            "contract": "src/contracts/acl/AccessControlManager.sol:AccessControlManager",
            "label": "isEnabled",
            "offset": 0,
            "slot": "1",
            "type": "t_bool"
          },
          {
            "astId": 8795,
            "contract": "src/contracts/acl/AccessControlManager.sol:AccessControlManager",
            "label": "isUpgradable",
            "offset": 1,
            "slot": "1",
            "type": "t_bool"
          },
          {
            "astId": 8798,
            "contract": "src/contracts/acl/AccessControlManager.sol:AccessControlManager",
            "label": "ctxSet",
            "offset": 0,
            "slot": "2",
            "type": "t_struct(Bytes32Set)10970_storage"
          }
        ],
        "numberOfBytes": "128"
      },
      "t_struct(Role)8789_storage": {
        "encoding": "inplace",
        "label": "struct AccessControlStorage.Role",
        "members": [
          {
            "astId": 8781,
            "contract": "src/contracts/acl/AccessControlManager.sol:AccessControlManager",
            "label": "name",
            "offset": 0,
            "slot": "0",
            "type": "t_string_storage"
          },
          {
            "astId": 8783,
            "contract": "src/contracts/acl/AccessControlManager.sol:AccessControlManager",
            "label": "group",
            "offset": 0,
            "slot": "1",
            "type": "t_bytes32"
          },
          {
            "astId": 8785,
            "contract": "src/contracts/acl/AccessControlManager.sol:AccessControlManager",
            "label": "isEnabled",
            "offset": 0,
            "slot": "2",
            "type": "t_bool"
          },
          {
            "astId": 8788,
            "contract": "src/contracts/acl/AccessControlManager.sol:AccessControlManager",
            "label": "userMap",
            "offset": 0,
            "slot": "3",
            "type": "t_struct(AddressToUintMap)10519_storage"
          }
        ],
        "numberOfBytes": "192"
      },
      "t_struct(Set)10776_storage": {
        "encoding": "inplace",
        "label": "struct EnumerableSet.Set",
        "members": [
          {
            "astId": 10771,
            "contract": "src/contracts/acl/AccessControlManager.sol:AccessControlManager",
            "label": "_values",
            "offset": 0,
            "slot": "0",
            "type": "t_array(t_bytes32)dyn_storage"
          },
          {
            "astId": 10775,
            "contract": "src/contracts/acl/AccessControlManager.sol:AccessControlManager",
            "label": "_indexes",
            "offset": 0,
            "slot": "1",
            "type": "t_mapping(t_bytes32,t_uint256)"
          }
        ],
        "numberOfBytes": "64"
      },
      "t_uint16": {
        "encoding": "inplace",
        "label": "uint16",
        "numberOfBytes": "2"
      },
      "t_uint256": {
        "encoding": "inplace",
        "label": "uint256",
        "numberOfBytes": "32"
      }
    }
  }
}