{
  "address": "0x5FC8d32690cc91D4c39d9d3abcBD16989F875707",
  "abi": [
    {
      "inputs": [],
      "stateMutability": "nonpayable",
      "type": "constructor"
    },
    {
      "anonymous": false,
      "inputs": [
        {
          "indexed": true,
          "internalType": "bytes32",
          "name": "context",
          "type": "bytes32"
        },
        {
          "indexed": true,
          "internalType": "address",
          "name": "sender",
          "type": "address"
        },
        {
          "indexed": false,
          "internalType": "bytes4",
          "name": "functionSelector",
          "type": "bytes4"
        },
        {
          "indexed": false,
          "internalType": "bytes32",
          "name": "realm",
          "type": "bytes32"
        }
      ],
      "name": "ContextFuncRemoved",
      "type": "event"
    },
    {
      "anonymous": false,
      "inputs": [
        {
          "indexed": true,
          "internalType": "bytes32",
          "name": "context",
          "type": "bytes32"
        },
        {
          "indexed": true,
          "internalType": "bytes32",
          "name": "role",
          "type": "bytes32"
        },
        {
          "indexed": true,
          "internalType": "address",
          "name": "sender",
          "type": "address"
        },
        {
          "indexed": false,
          "internalType": "bytes4",
          "name": "functionSelector",
          "type": "bytes4"
        },
        {
          "indexed": false,
          "internalType": "bytes32",
          "name": "realm",
          "type": "bytes32"
        }
      ],
      "name": "ContextFuncRoleAdded",
      "type": "event"
    },
    {
      "anonymous": false,
      "inputs": [
        {
          "indexed": true,
          "internalType": "bytes32",
          "name": "context",
          "type": "bytes32"
        },
        {
          "indexed": true,
          "internalType": "address",
          "name": "sender",
          "type": "address"
        },
        {
          "indexed": true,
          "internalType": "bytes32",
          "name": "realm",
          "type": "bytes32"
        },
        {
          "indexed": false,
          "internalType": "bytes32",
          "name": "oldRealm",
          "type": "bytes32"
        }
      ],
      "name": "ContextRealmChanged",
      "type": "event"
    },
    {
      "anonymous": false,
      "inputs": [
        {
          "indexed": true,
          "internalType": "bytes32",
          "name": "context",
          "type": "bytes32"
        },
        {
          "indexed": true,
          "internalType": "address",
          "name": "scma",
          "type": "address"
        },
        {
          "indexed": true,
          "internalType": "address",
          "name": "sender",
          "type": "address"
        },
        {
          "indexed": false,
          "internalType": "bytes32",
          "name": "realm",
          "type": "bytes32"
        }
      ],
      "name": "ContextRegistered",
      "type": "event"
    },
    {
      "anonymous": false,
      "inputs": [
        {
          "indexed": true,
          "internalType": "bytes32",
          "name": "context",
          "type": "bytes32"
        },
        {
          "indexed": true,
          "internalType": "bytes32",
          "name": "role",
          "type": "bytes32"
        },
        {
          "indexed": true,
          "internalType": "address",
          "name": "sender",
          "type": "address"
        },
        {
          "indexed": false,
          "internalType": "bytes4",
          "name": "functionSelector",
          "type": "bytes4"
        },
        {
          "indexed": false,
          "internalType": "bytes32",
          "name": "realm",
          "type": "bytes32"
        }
      ],
      "name": "ContextRoleGranted",
      "type": "event"
    },
    {
      "anonymous": false,
      "inputs": [
        {
          "indexed": true,
          "internalType": "bytes32",
          "name": "context",
          "type": "bytes32"
        },
        {
          "indexed": true,
          "internalType": "bytes32",
          "name": "role",
          "type": "bytes32"
        },
        {
          "indexed": true,
          "internalType": "address",
          "name": "sender",
          "type": "address"
        },
        {
          "indexed": false,
          "internalType": "bytes4",
          "name": "functionSelector",
          "type": "bytes4"
        },
        {
          "indexed": false,
          "internalType": "bytes32",
          "name": "realm",
          "type": "bytes32"
        }
      ],
      "name": "ContextRoleRevoked",
      "type": "event"
    },
    {
      "anonymous": false,
      "inputs": [
        {
          "indexed": true,
          "internalType": "bytes32",
          "name": "context",
          "type": "bytes32"
        },
        {
          "indexed": true,
          "internalType": "address",
          "name": "sender",
          "type": "address"
        },
        {
          "indexed": true,
          "internalType": "bytes32",
          "name": "realm",
          "type": "bytes32"
        },
        {
          "indexed": false,
          "internalType": "bool",
          "name": "status",
          "type": "bool"
        }
      ],
      "name": "ContextStatusChanged",
      "type": "event"
    },
    {
      "anonymous": false,
      "inputs": [
        {
          "indexed": true,
          "internalType": "bytes32",
          "name": "context",
          "type": "bytes32"
        },
        {
          "indexed": true,
          "internalType": "address",
          "name": "scma",
          "type": "address"
        },
        {
          "indexed": true,
          "internalType": "address",
          "name": "sender",
          "type": "address"
        },
        {
          "indexed": false,
          "internalType": "bytes32",
          "name": "realm",
          "type": "bytes32"
        }
      ],
      "name": "ContextUpdated",
      "type": "event"
    },
    {
      "anonymous": false,
      "inputs": [
        {
          "indexed": true,
          "internalType": "bytes32",
          "name": "group",
          "type": "bytes32"
        },
        {
          "indexed": true,
          "internalType": "address",
          "name": "sender",
          "type": "address"
        },
        {
          "indexed": false,
          "internalType": "string",
          "name": "name",
          "type": "string"
        },
        {
          "indexed": false,
          "internalType": "bool",
          "name": "status",
          "type": "bool"
        }
      ],
      "name": "GroupRegistered",
      "type": "event"
    },
    {
      "anonymous": false,
      "inputs": [
        {
          "indexed": true,
          "internalType": "bytes32",
          "name": "group",
          "type": "bytes32"
        },
        {
          "indexed": true,
          "internalType": "address",
          "name": "sender",
          "type": "address"
        },
        {
          "indexed": false,
          "internalType": "bool",
          "name": "status",
          "type": "bool"
        }
      ],
      "name": "GroupStatusChanged",
      "type": "event"
    },
    {
      "anonymous": false,
      "inputs": [
        {
          "indexed": true,
          "internalType": "address",
          "name": "sender",
          "type": "address"
        },
        {
          "indexed": true,
          "internalType": "address",
          "name": "proxy",
          "type": "address"
        },
        {
          "indexed": true,
          "internalType": "address",
          "name": "subject",
          "type": "address"
        },
        {
          "indexed": false,
          "internalType": "string",
          "name": "name",
          "type": "string"
        },
        {
          "indexed": false,
          "internalType": "string",
          "name": "version",
          "type": "string"
        },
        {
          "indexed": false,
          "internalType": "bytes32",
          "name": "realm",
          "type": "bytes32"
        },
        {
          "indexed": false,
          "internalType": "uint16",
          "name": "initCount",
          "type": "uint16"
        }
      ],
      "name": "Initialized",
      "type": "event"
    },
    {
      "anonymous": false,
      "inputs": [
        {
          "indexed": true,
          "internalType": "address",
          "name": "sender",
          "type": "address"
        },
        {
          "indexed": true,
          "internalType": "address",
          "name": "proxy",
          "type": "address"
        },
        {
          "indexed": false,
          "internalType": "address",
          "name": "newAdmin",
          "type": "address"
        }
      ],
      "name": "LocalAdminChanged",
      "type": "event"
    },
    {
      "anonymous": false,
      "inputs": [
        {
          "indexed": true,
          "internalType": "bytes32",
          "name": "realm",
          "type": "bytes32"
        },
        {
          "indexed": true,
          "internalType": "address",
          "name": "sender",
          "type": "address"
        },
        {
          "indexed": false,
          "internalType": "string",
          "name": "name",
          "type": "string"
        },
        {
          "indexed": false,
          "internalType": "bool",
          "name": "status",
          "type": "bool"
        },
        {
          "indexed": false,
          "internalType": "bool",
          "name": "isUpgradable",
          "type": "bool"
        }
      ],
      "name": "RealmRegistered",
      "type": "event"
    },
    {
      "anonymous": false,
      "inputs": [
        {
          "indexed": true,
          "internalType": "bytes32",
          "name": "realm",
          "type": "bytes32"
        },
        {
          "indexed": true,
          "internalType": "address",
          "name": "sender",
          "type": "address"
        },
        {
          "indexed": false,
          "internalType": "bool",
          "name": "status",
          "type": "bool"
        }
      ],
      "name": "RealmStatusChanged",
      "type": "event"
    },
    {
      "anonymous": false,
      "inputs": [
        {
          "indexed": true,
          "internalType": "bytes32",
          "name": "realm",
          "type": "bytes32"
        },
        {
          "indexed": true,
          "internalType": "address",
          "name": "sender",
          "type": "address"
        },
        {
          "indexed": false,
          "internalType": "bool",
          "name": "status",
          "type": "bool"
        }
      ],
      "name": "RealmUpgradeStatusChanged",
      "type": "event"
    },
    {
      "anonymous": false,
      "inputs": [
        {
          "indexed": true,
          "internalType": "bytes32",
          "name": "role",
          "type": "bytes32"
        },
        {
          "indexed": true,
          "internalType": "address",
          "name": "account",
          "type": "address"
        },
        {
          "indexed": true,
          "internalType": "address",
          "name": "sender",
          "type": "address"
        }
      ],
      "name": "RoleAccountGranted",
      "type": "event"
    },
    {
      "anonymous": false,
      "inputs": [
        {
          "indexed": true,
          "internalType": "bytes32",
          "name": "role",
          "type": "bytes32"
        },
        {
          "indexed": true,
          "internalType": "address",
          "name": "account",
          "type": "address"
        },
        {
          "indexed": true,
          "internalType": "address",
          "name": "sender",
          "type": "address"
        }
      ],
      "name": "RoleAccountRevoked",
      "type": "event"
    },
    {
      "anonymous": false,
      "inputs": [
        {
          "indexed": true,
          "internalType": "bytes32",
          "name": "role",
          "type": "bytes32"
        },
        {
          "indexed": true,
          "internalType": "address",
          "name": "sender",
          "type": "address"
        },
        {
          "indexed": true,
          "internalType": "bytes32",
          "name": "newGroup",
          "type": "bytes32"
        },
        {
          "indexed": false,
          "internalType": "bytes32",
          "name": "oldGroup",
          "type": "bytes32"
        }
      ],
      "name": "RoleGroupChanged",
      "type": "event"
    },
    {
      "anonymous": false,
      "inputs": [
        {
          "indexed": true,
          "internalType": "bytes32",
          "name": "role",
          "type": "bytes32"
        },
        {
          "indexed": true,
          "internalType": "string",
          "name": "name",
          "type": "string"
        },
        {
          "indexed": true,
          "internalType": "address",
          "name": "sender",
          "type": "address"
        },
        {
          "indexed": false,
          "internalType": "bytes32",
          "name": "group",
          "type": "bytes32"
        },
        {
          "indexed": false,
          "internalType": "bool",
          "name": "isEnabled",
          "type": "bool"
        }
      ],
      "name": "RoleRegistered",
      "type": "event"
    },
    {
      "anonymous": false,
      "inputs": [
        {
          "indexed": true,
          "internalType": "bytes32",
          "name": "role",
          "type": "bytes32"
        },
        {
          "indexed": true,
          "internalType": "address",
          "name": "sender",
          "type": "address"
        },
        {
          "indexed": true,
          "internalType": "bytes32",
          "name": "group",
          "type": "bytes32"
        },
        {
          "indexed": false,
          "internalType": "bool",
          "name": "status",
          "type": "bool"
        }
      ],
      "name": "RoleStatusChanged",
      "type": "event"
    },
    {
      "anonymous": false,
      "inputs": [
        {
          "indexed": true,
          "internalType": "address",
          "name": "sender",
          "type": "address"
        },
        {
          "indexed": true,
          "internalType": "address",
          "name": "proxy",
          "type": "address"
        },
        {
          "indexed": true,
          "internalType": "bytes32",
          "name": "realm",
          "type": "bytes32"
        },
        {
          "indexed": false,
          "internalType": "bool",
          "name": "status",
          "type": "bool"
        }
      ],
      "name": "SafeModeChanged",
      "type": "event"
    },
    {
      "anonymous": false,
      "inputs": [
        {
          "indexed": true,
          "internalType": "address",
          "name": "sender",
          "type": "address"
        },
        {
          "indexed": true,
          "internalType": "address",
          "name": "proxy",
          "type": "address"
        },
        {
          "indexed": true,
          "internalType": "bytes32",
          "name": "realm",
          "type": "bytes32"
        },
        {
          "indexed": false,
          "internalType": "bool",
          "name": "status",
          "type": "bool"
        }
      ],
      "name": "UpgradeStatusChanged",
      "type": "event"
    },
    {
      "anonymous": false,
      "inputs": [
        {
          "indexed": true,
          "internalType": "address",
          "name": "sender",
          "type": "address"
        },
        {
          "indexed": true,
          "internalType": "address",
          "name": "proxy",
          "type": "address"
        },
        {
          "indexed": true,
          "internalType": "address",
          "name": "newImplementation",
          "type": "address"
        }
      ],
      "name": "Upgraded",
      "type": "event"
    },
    {
      "stateMutability": "payable",
      "type": "fallback"
    },
    {
      "inputs": [],
      "name": "accessControlManager",
      "outputs": [
        {
          "internalType": "address",
          "name": "",
          "type": "address"
        }
      ],
      "stateMutability": "view",
      "type": "function"
    },
    {
      "inputs": [
        {
          "internalType": "bytes32",
          "name": "ctx",
          "type": "bytes32"
        },
        {
          "internalType": "bytes4",
          "name": "functionSelector",
          "type": "bytes4"
        },
        {
          "internalType": "bytes32",
          "name": "role",
          "type": "bytes32"
        }
      ],
      "name": "addContextFuncRole",
      "outputs": [
        {
          "internalType": "bool",
          "name": "",
          "type": "bool"
        }
      ],
      "stateMutability": "nonpayable",
      "type": "function"
    },
    {
      "inputs": [],
      "name": "contractContext",
      "outputs": [
        {
          "internalType": "bytes32",
          "name": "",
          "type": "bytes32"
        }
      ],
      "stateMutability": "view",
      "type": "function"
    },
    {
      "inputs": [],
      "name": "contractName",
      "outputs": [
        {
          "internalType": "bytes32",
          "name": "",
          "type": "bytes32"
        }
      ],
      "stateMutability": "view",
      "type": "function"
    },
    {
      "inputs": [],
      "name": "contractRealm",
      "outputs": [
        {
          "internalType": "bytes32",
          "name": "",
          "type": "bytes32"
        }
      ],
      "stateMutability": "view",
      "type": "function"
    },
    {
      "inputs": [],
      "name": "contractVersion",
      "outputs": [
        {
          "internalType": "bytes32",
          "name": "",
          "type": "bytes32"
        }
      ],
      "stateMutability": "view",
      "type": "function"
    },
    {
      "inputs": [],
      "name": "domainSeparator",
      "outputs": [
        {
          "internalType": "bytes32",
          "name": "",
          "type": "bytes32"
        }
      ],
      "stateMutability": "view",
      "type": "function"
    },
    {
      "inputs": [
        {
          "internalType": "bytes32",
          "name": "ctx",
          "type": "bytes32"
        }
      ],
      "name": "getContextFuncs",
      "outputs": [
        {
          "internalType": "bytes4[]",
          "name": "",
          "type": "bytes4[]"
        }
      ],
      "stateMutability": "view",
      "type": "function"
    },
    {
      "inputs": [
        {
          "internalType": "bytes32",
          "name": "ctx",
          "type": "bytes32"
        }
      ],
      "name": "getContextInfo",
      "outputs": [
        {
          "components": [
            {
              "internalType": "bytes32",
              "name": "name",
              "type": "bytes32"
            },
            {
              "internalType": "bytes32",
              "name": "version",
              "type": "bytes32"
            },
            {
              "internalType": "bytes32",
              "name": "realm",
              "type": "bytes32"
            },
            {
              "internalType": "address",
              "name": "smca",
              "type": "address"
            },
            {
              "internalType": "bool",
              "name": "isSafeMode",
              "type": "bool"
            },
            {
              "internalType": "bool",
              "name": "isUpgradable",
              "type": "bool"
            }
          ],
          "internalType": "struct IContextManagement.ResponseContext",
          "name": "",
          "type": "tuple"
        }
      ],
      "stateMutability": "view",
      "type": "function"
    },
    {
      "inputs": [
        {
          "internalType": "bytes32",
          "name": "group",
          "type": "bytes32"
        }
      ],
      "name": "getGroupInfo",
      "outputs": [
        {
          "internalType": "string",
          "name": "",
          "type": "string"
        },
        {
          "internalType": "bool",
          "name": "",
          "type": "bool"
        }
      ],
      "stateMutability": "view",
      "type": "function"
    },
    {
      "inputs": [
        {
          "internalType": "bytes32",
          "name": "group",
          "type": "bytes32"
        }
      ],
      "name": "getGroupRoles",
      "outputs": [
        {
          "internalType": "bytes32[]",
          "name": "",
          "type": "bytes32[]"
        }
      ],
      "stateMutability": "view",
      "type": "function"
    },
    {
      "inputs": [
        {
          "internalType": "bytes32",
          "name": "realm",
          "type": "bytes32"
        }
      ],
      "name": "getRealmContexts",
      "outputs": [
        {
          "internalType": "bytes32[]",
          "name": "",
          "type": "bytes32[]"
        }
      ],
      "stateMutability": "view",
      "type": "function"
    },
    {
      "inputs": [
        {
          "internalType": "bytes32",
          "name": "realm",
          "type": "bytes32"
        }
      ],
      "name": "getRealmInfo",
      "outputs": [
        {
          "internalType": "string",
          "name": "",
          "type": "string"
        },
        {
          "internalType": "bool",
          "name": "",
          "type": "bool"
        },
        {
          "internalType": "bool",
          "name": "",
          "type": "bool"
        }
      ],
      "stateMutability": "view",
      "type": "function"
    },
    {
      "inputs": [
        {
          "internalType": "bytes32",
          "name": "role",
          "type": "bytes32"
        }
      ],
      "name": "getRoleAccounts",
      "outputs": [
        {
          "internalType": "address[]",
          "name": "",
          "type": "address[]"
        }
      ],
      "stateMutability": "view",
      "type": "function"
    },
    {
      "inputs": [
        {
          "internalType": "bytes32",
          "name": "role",
          "type": "bytes32"
        }
      ],
      "name": "getRoleInfo",
      "outputs": [
        {
          "internalType": "string",
          "name": "",
          "type": "string"
        },
        {
          "internalType": "bytes32",
          "name": "",
          "type": "bytes32"
        },
        {
          "internalType": "bool",
          "name": "",
          "type": "bool"
        }
      ],
      "stateMutability": "view",
      "type": "function"
    },
    {
      "inputs": [
        {
          "internalType": "bytes32",
          "name": "ctx",
          "type": "bytes32"
        },
        {
          "internalType": "bytes4",
          "name": "functionSelector",
          "type": "bytes4"
        },
        {
          "internalType": "bytes32",
          "name": "role",
          "type": "bytes32"
        }
      ],
      "name": "grantContextRole",
      "outputs": [
        {
          "internalType": "bool",
          "name": "",
          "type": "bool"
        }
      ],
      "stateMutability": "nonpayable",
      "type": "function"
    },
    {
      "inputs": [
        {
          "internalType": "bytes32",
          "name": "role",
          "type": "bytes32"
        },
        {
          "internalType": "address",
          "name": "account",
          "type": "address"
        }
      ],
      "name": "grantRoleAccount",
      "outputs": [
        {
          "internalType": "bool",
          "name": "",
          "type": "bool"
        }
      ],
      "stateMutability": "nonpayable",
      "type": "function"
    },
    {
      "inputs": [
        {
          "internalType": "bytes32",
          "name": "context",
          "type": "bytes32"
        },
        {
          "internalType": "address",
          "name": "account",
          "type": "address"
        },
        {
          "internalType": "bytes4",
          "name": "signature",
          "type": "bytes4"
        }
      ],
      "name": "hasAccess",
      "outputs": [
        {
          "internalType": "bool",
          "name": "",
          "type": "bool"
        }
      ],
      "stateMutability": "view",
      "type": "function"
    },
    {
      "inputs": [
        {
          "internalType": "bytes32",
          "name": "ctx",
          "type": "bytes32"
        },
        {
          "internalType": "bytes32",
          "name": "role",
          "type": "bytes32"
        },
        {
          "internalType": "bytes4",
          "name": "functionSelector",
          "type": "bytes4"
        }
      ],
      "name": "hasContextRole",
      "outputs": [
        {
          "internalType": "bool",
          "name": "",
          "type": "bool"
        }
      ],
      "stateMutability": "view",
      "type": "function"
    },
    {
      "inputs": [
        {
          "internalType": "bytes32",
          "name": "group",
          "type": "bytes32"
        },
        {
          "internalType": "bytes32",
          "name": "role",
          "type": "bytes32"
        }
      ],
      "name": "hasGroupRole",
      "outputs": [
        {
          "internalType": "bool",
          "name": "",
          "type": "bool"
        }
      ],
      "stateMutability": "view",
      "type": "function"
    },
    {
      "inputs": [
        {
          "internalType": "bytes32",
          "name": "realm",
          "type": "bytes32"
        },
        {
          "internalType": "bytes32",
          "name": "context",
          "type": "bytes32"
        }
      ],
      "name": "hasRealmContext",
      "outputs": [
        {
          "internalType": "bool",
          "name": "",
          "type": "bool"
        }
      ],
      "stateMutability": "view",
      "type": "function"
    },
    {
      "inputs": [
        {
          "internalType": "bytes32",
          "name": "role",
          "type": "bytes32"
        },
        {
          "internalType": "address",
          "name": "account",
          "type": "address"
        }
      ],
      "name": "hasRoleAccount",
      "outputs": [
        {
          "internalType": "bool",
          "name": "",
          "type": "bool"
        }
      ],
      "stateMutability": "view",
      "type": "function"
    },
    {
      "inputs": [],
      "name": "initStatus",
      "outputs": [
        {
          "internalType": "bool",
          "name": "",
          "type": "bool"
        }
      ],
      "stateMutability": "view",
      "type": "function"
    },
    {
      "inputs": [],
      "name": "initVersion",
      "outputs": [
        {
          "internalType": "uint16",
          "name": "",
          "type": "uint16"
        }
      ],
      "stateMutability": "view",
      "type": "function"
    },
    {
      "inputs": [
        {
          "internalType": "string",
          "name": "domainName",
          "type": "string"
        },
        {
          "internalType": "string",
          "name": "domainVersion",
          "type": "string"
        },
        {
          "internalType": "string",
          "name": "domainRealm",
          "type": "string"
        },
        {
          "internalType": "address",
          "name": "accessControlManager",
          "type": "address"
        }
      ],
      "name": "initialize",
      "outputs": [],
      "stateMutability": "nonpayable",
      "type": "function"
    },
    {
      "inputs": [
        {
          "internalType": "bytes32",
          "name": "context",
          "type": "bytes32"
        }
      ],
      "name": "isContextEnabled",
      "outputs": [
        {
          "internalType": "bool",
          "name": "",
          "type": "bool"
        }
      ],
      "stateMutability": "view",
      "type": "function"
    },
    {
      "inputs": [
        {
          "internalType": "bytes32",
          "name": "context",
          "type": "bytes32"
        }
      ],
      "name": "isContextExists",
      "outputs": [
        {
          "internalType": "bool",
          "name": "",
          "type": "bool"
        }
      ],
      "stateMutability": "view",
      "type": "function"
    },
    {
      "inputs": [
        {
          "internalType": "bytes32",
          "name": "context",
          "type": "bytes32"
        },
        {
          "internalType": "bytes4",
          "name": "functionSelector",
          "type": "bytes4"
        }
      ],
      "name": "isContextFunctionEnabled",
      "outputs": [
        {
          "internalType": "bool",
          "name": "",
          "type": "bool"
        }
      ],
      "stateMutability": "view",
      "type": "function"
    },
    {
      "inputs": [
        {
          "internalType": "bytes32",
          "name": "context",
          "type": "bytes32"
        },
        {
          "internalType": "bytes4",
          "name": "functionSelector",
          "type": "bytes4"
        }
      ],
      "name": "isContextFunctionExists",
      "outputs": [
        {
          "internalType": "bool",
          "name": "",
          "type": "bool"
        }
      ],
      "stateMutability": "view",
      "type": "function"
    },
    {
      "inputs": [
        {
          "internalType": "bytes32",
          "name": "context",
          "type": "bytes32"
        }
      ],
      "name": "isContextSafeMode",
      "outputs": [
        {
          "internalType": "bool",
          "name": "",
          "type": "bool"
        }
      ],
      "stateMutability": "view",
      "type": "function"
    },
    {
      "inputs": [
        {
          "internalType": "bytes32",
          "name": "context",
          "type": "bytes32"
        }
      ],
      "name": "isContextUpgradable",
      "outputs": [
        {
          "internalType": "bool",
          "name": "",
          "type": "bool"
        }
      ],
      "stateMutability": "view",
      "type": "function"
    },
    {
      "inputs": [
        {
          "internalType": "bytes32",
          "name": "group",
          "type": "bytes32"
        }
      ],
      "name": "isGroupEnabled",
      "outputs": [
        {
          "internalType": "bool",
          "name": "",
          "type": "bool"
        }
      ],
      "stateMutability": "view",
      "type": "function"
    },
    {
      "inputs": [
        {
          "internalType": "bytes32",
          "name": "group",
          "type": "bytes32"
        }
      ],
      "name": "isGroupExists",
      "outputs": [
        {
          "internalType": "bool",
          "name": "",
          "type": "bool"
        }
      ],
      "stateMutability": "view",
      "type": "function"
    },
    {
      "inputs": [
        {
          "internalType": "address",
          "name": "account",
          "type": "address"
        }
      ],
      "name": "isLivelyAdmin",
      "outputs": [
        {
          "internalType": "bool",
          "name": "",
          "type": "bool"
        }
      ],
      "stateMutability": "view",
      "type": "function"
    },
    {
      "inputs": [
        {
          "internalType": "bytes32",
          "name": "role",
          "type": "bytes32"
        }
      ],
      "name": "isLivelyGeneralGroup",
      "outputs": [
        {
          "internalType": "bool",
          "name": "",
          "type": "bool"
        }
      ],
      "stateMutability": "view",
      "type": "function"
    },
    {
      "inputs": [
        {
          "internalType": "bytes32",
          "name": "context",
          "type": "bytes32"
        }
      ],
      "name": "isLivelyGeneralRealm",
      "outputs": [
        {
          "internalType": "bool",
          "name": "",
          "type": "bool"
        }
      ],
      "stateMutability": "view",
      "type": "function"
    },
    {
      "inputs": [
        {
          "internalType": "address",
          "name": "account",
          "type": "address"
        }
      ],
      "name": "isLivelySystemAdmin",
      "outputs": [
        {
          "internalType": "bool",
          "name": "",
          "type": "bool"
        }
      ],
      "stateMutability": "view",
      "type": "function"
    },
    {
      "inputs": [
        {
          "internalType": "bytes32",
          "name": "realm",
          "type": "bytes32"
        }
      ],
      "name": "isRealmEnabled",
      "outputs": [
        {
          "internalType": "bool",
          "name": "",
          "type": "bool"
        }
      ],
      "stateMutability": "view",
      "type": "function"
    },
    {
      "inputs": [
        {
          "internalType": "bytes32",
          "name": "realm",
          "type": "bytes32"
        }
      ],
      "name": "isRealmExists",
      "outputs": [
        {
          "internalType": "bool",
          "name": "",
          "type": "bool"
        }
      ],
      "stateMutability": "view",
      "type": "function"
    },
    {
      "inputs": [
        {
          "internalType": "bytes32",
          "name": "realm",
          "type": "bytes32"
        }
      ],
      "name": "isRealmUpgradable",
      "outputs": [
        {
          "internalType": "bool",
          "name": "",
          "type": "bool"
        }
      ],
      "stateMutability": "view",
      "type": "function"
    },
    {
      "inputs": [
        {
          "internalType": "bytes32",
          "name": "role",
          "type": "bytes32"
        }
      ],
      "name": "isRoleEnabled",
      "outputs": [
        {
          "internalType": "bool",
          "name": "",
          "type": "bool"
        }
      ],
      "stateMutability": "view",
      "type": "function"
    },
    {
      "inputs": [
        {
          "internalType": "bytes32",
          "name": "role",
          "type": "bytes32"
        }
      ],
      "name": "isRoleExists",
      "outputs": [
        {
          "internalType": "bool",
          "name": "",
          "type": "bool"
        }
      ],
      "stateMutability": "view",
      "type": "function"
    },
    {
      "inputs": [],
      "name": "isSafeMode",
      "outputs": [
        {
          "internalType": "bool",
          "name": "",
          "type": "bool"
        }
      ],
      "stateMutability": "view",
      "type": "function"
    },
    {
      "inputs": [],
      "name": "isUpgradable",
      "outputs": [
        {
          "internalType": "bool",
          "name": "",
          "type": "bool"
        }
      ],
      "stateMutability": "view",
      "type": "function"
    },
    {
      "inputs": [],
      "name": "livelyAdminRole",
      "outputs": [
        {
          "internalType": "bytes32",
          "name": "",
          "type": "bytes32"
        }
      ],
      "stateMutability": "pure",
      "type": "function"
    },
    {
      "inputs": [],
      "name": "livelyAnonymousRole",
      "outputs": [
        {
          "internalType": "bytes32",
          "name": "",
          "type": "bytes32"
        }
      ],
      "stateMutability": "pure",
      "type": "function"
    },
    {
      "inputs": [],
      "name": "livelyGeneralGroupRole",
      "outputs": [
        {
          "internalType": "bytes32",
          "name": "",
          "type": "bytes32"
        }
      ],
      "stateMutability": "pure",
      "type": "function"
    },
    {
      "inputs": [],
      "name": "livelyGeneralRealmRole",
      "outputs": [
        {
          "internalType": "bytes32",
          "name": "",
          "type": "bytes32"
        }
      ],
      "stateMutability": "pure",
      "type": "function"
    },
    {
      "inputs": [],
      "name": "livelySystemAdminRole",
      "outputs": [
        {
          "internalType": "bytes32",
          "name": "",
          "type": "bytes32"
        }
      ],
      "stateMutability": "pure",
      "type": "function"
    },
    {
      "inputs": [],
      "name": "localAdmin",
      "outputs": [
        {
          "internalType": "address",
          "name": "",
          "type": "address"
        }
      ],
      "stateMutability": "view",
      "type": "function"
    },
    {
      "inputs": [],
      "name": "proxiableUUID",
      "outputs": [
        {
          "internalType": "bytes32",
          "name": "",
          "type": "bytes32"
        }
      ],
      "stateMutability": "view",
      "type": "function"
    },
    {
      "inputs": [
        {
          "internalType": "bytes",
          "name": "signature",
          "type": "bytes"
        },
        {
          "components": [
            {
              "internalType": "bytes32",
              "name": "name",
              "type": "bytes32"
            },
            {
              "internalType": "bytes32",
              "name": "version",
              "type": "bytes32"
            },
            {
              "internalType": "bytes32",
              "name": "realm",
              "type": "bytes32"
            },
            {
              "internalType": "address",
              "name": "smca",
              "type": "address"
            },
            {
              "internalType": "bool",
              "name": "status",
              "type": "bool"
            }
          ],
          "internalType": "struct IContextManagement.RequestContext",
          "name": "rc",
          "type": "tuple"
        },
        {
          "components": [
            {
              "internalType": "bytes32",
              "name": "role",
              "type": "bytes32"
            },
            {
              "internalType": "bytes4[]",
              "name": "funcSelectors",
              "type": "bytes4[]"
            },
            {
              "internalType": "bool",
              "name": "isEnabled",
              "type": "bool"
            }
          ],
          "internalType": "struct IContextManagement.RequestRegisterContext[]",
          "name": "rcr",
          "type": "tuple[]"
        }
      ],
      "name": "registerContext",
      "outputs": [
        {
          "internalType": "bytes32",
          "name": "",
          "type": "bytes32"
        }
      ],
      "stateMutability": "nonpayable",
      "type": "function"
    },
    {
      "inputs": [
        {
          "internalType": "string",
          "name": "name",
          "type": "string"
        },
        {
          "internalType": "bool",
          "name": "status",
          "type": "bool"
        }
      ],
      "name": "registerGroup",
      "outputs": [
        {
          "internalType": "bytes32",
          "name": "",
          "type": "bytes32"
        }
      ],
      "stateMutability": "nonpayable",
      "type": "function"
    },
    {
      "inputs": [
        {
          "internalType": "string",
          "name": "name",
          "type": "string"
        },
        {
          "internalType": "bool",
          "name": "status",
          "type": "bool"
        },
        {
          "internalType": "bool",
          "name": "isUpgradable",
          "type": "bool"
        }
      ],
      "name": "registerRealm",
      "outputs": [
        {
          "internalType": "bytes32",
          "name": "",
          "type": "bytes32"
        }
      ],
      "stateMutability": "nonpayable",
      "type": "function"
    },
    {
      "inputs": [
        {
          "internalType": "string",
          "name": "name",
          "type": "string"
        },
        {
          "internalType": "bytes32",
          "name": "group",
          "type": "bytes32"
        },
        {
          "internalType": "bool",
          "name": "status",
          "type": "bool"
        }
      ],
      "name": "registerRole",
      "outputs": [
        {
          "internalType": "bytes32",
          "name": "",
          "type": "bytes32"
        }
      ],
      "stateMutability": "nonpayable",
      "type": "function"
    },
    {
      "inputs": [
        {
          "internalType": "bytes32",
          "name": "ctx",
          "type": "bytes32"
        },
        {
          "internalType": "bytes4",
          "name": "functionSelector",
          "type": "bytes4"
        }
      ],
      "name": "removeContextFunc",
      "outputs": [
        {
          "internalType": "bool",
          "name": "",
          "type": "bool"
        }
      ],
      "stateMutability": "nonpayable",
      "type": "function"
    },
    {
      "inputs": [
        {
          "internalType": "bytes32",
          "name": "ctx",
          "type": "bytes32"
        },
        {
          "internalType": "bytes4",
          "name": "functionSelector",
          "type": "bytes4"
        },
        {
          "internalType": "bytes32",
          "name": "role",
          "type": "bytes32"
        }
      ],
      "name": "revokeContextRole",
      "outputs": [
        {
          "internalType": "bool",
          "name": "",
          "type": "bool"
        }
      ],
      "stateMutability": "nonpayable",
      "type": "function"
    },
    {
      "inputs": [
        {
          "internalType": "bytes32",
          "name": "role",
          "type": "bytes32"
        },
        {
          "internalType": "address",
          "name": "account",
          "type": "address"
        }
      ],
      "name": "revokeRoleAccount",
      "outputs": [
        {
          "internalType": "bool",
          "name": "",
          "type": "bool"
        }
      ],
      "stateMutability": "nonpayable",
      "type": "function"
    },
    {
      "inputs": [
        {
          "internalType": "bytes32",
          "name": "ctx",
          "type": "bytes32"
        },
        {
          "internalType": "bytes32",
          "name": "realm",
          "type": "bytes32"
        }
      ],
      "name": "setContextRealm",
      "outputs": [
        {
          "internalType": "bool",
          "name": "",
          "type": "bool"
        }
      ],
      "stateMutability": "nonpayable",
      "type": "function"
    },
    {
      "inputs": [
        {
          "internalType": "bytes32",
          "name": "ctx",
          "type": "bytes32"
        },
        {
          "internalType": "bool",
          "name": "status",
          "type": "bool"
        }
      ],
      "name": "setContextStatus",
      "outputs": [
        {
          "internalType": "bool",
          "name": "",
          "type": "bool"
        }
      ],
      "stateMutability": "nonpayable",
      "type": "function"
    },
    {
      "inputs": [
        {
          "internalType": "bytes32",
          "name": "group",
          "type": "bytes32"
        },
        {
          "internalType": "bool",
          "name": "status",
          "type": "bool"
        }
      ],
      "name": "setGroupStatus",
      "outputs": [
        {
          "internalType": "bool",
          "name": "",
          "type": "bool"
        }
      ],
      "stateMutability": "nonpayable",
      "type": "function"
    },
    {
      "inputs": [
        {
          "internalType": "address",
          "name": "newLocalAdmin",
          "type": "address"
        }
      ],
      "name": "setLocalAdmin",
      "outputs": [
        {
          "internalType": "bool",
          "name": "",
          "type": "bool"
        }
      ],
      "stateMutability": "nonpayable",
      "type": "function"
    },
    {
      "inputs": [
        {
          "internalType": "bytes32",
          "name": "realm",
          "type": "bytes32"
        },
        {
          "internalType": "bool",
          "name": "status",
          "type": "bool"
        }
      ],
      "name": "setRealmStatus",
      "outputs": [
        {
          "internalType": "bool",
          "name": "",
          "type": "bool"
        }
      ],
      "stateMutability": "nonpayable",
      "type": "function"
    },
    {
      "inputs": [
        {
          "internalType": "bytes32",
          "name": "realm",
          "type": "bytes32"
        },
        {
          "internalType": "bool",
          "name": "status",
          "type": "bool"
        }
      ],
      "name": "setRealmUpgradeStatus",
      "outputs": [
        {
          "internalType": "bool",
          "name": "",
          "type": "bool"
        }
      ],
      "stateMutability": "nonpayable",
      "type": "function"
    },
    {
      "inputs": [
        {
          "internalType": "bytes32",
          "name": "role",
          "type": "bytes32"
        },
        {
          "internalType": "bytes32",
          "name": "group",
          "type": "bytes32"
        }
      ],
      "name": "setRoleGroup",
      "outputs": [
        {
          "internalType": "bool",
          "name": "",
          "type": "bool"
        }
      ],
      "stateMutability": "nonpayable",
      "type": "function"
    },
    {
      "inputs": [
        {
          "internalType": "bytes32",
          "name": "role",
          "type": "bytes32"
        },
        {
          "internalType": "bool",
          "name": "status",
          "type": "bool"
        }
      ],
      "name": "setRoleStatus",
      "outputs": [
        {
          "internalType": "bool",
          "name": "",
          "type": "bool"
        }
      ],
      "stateMutability": "nonpayable",
      "type": "function"
    },
    {
      "inputs": [
        {
          "internalType": "bool",
          "name": "status",
          "type": "bool"
        }
      ],
      "name": "setSafeMode",
      "outputs": [
        {
          "internalType": "bool",
          "name": "",
          "type": "bool"
        }
      ],
      "stateMutability": "nonpayable",
      "type": "function"
    },
    {
      "inputs": [
        {
          "internalType": "bool",
          "name": "status",
          "type": "bool"
        }
      ],
      "name": "setUpgradeStatus",
      "outputs": [
        {
          "internalType": "bool",
          "name": "",
          "type": "bool"
        }
      ],
      "stateMutability": "nonpayable",
      "type": "function"
    },
    {
      "inputs": [],
      "name": "subjectAddress",
      "outputs": [
        {
          "internalType": "address",
          "name": "",
          "type": "address"
        }
      ],
      "stateMutability": "view",
      "type": "function"
    },
    {
      "inputs": [
        {
          "internalType": "bytes4",
          "name": "interfaceId",
          "type": "bytes4"
        }
      ],
      "name": "supportsInterface",
      "outputs": [
        {
          "internalType": "bool",
          "name": "",
          "type": "bool"
        }
      ],
      "stateMutability": "view",
      "type": "function"
    },
    {
      "inputs": [
        {
          "internalType": "bytes32",
          "name": "ctx",
          "type": "bytes32"
        },
        {
          "internalType": "bytes",
          "name": "signature",
          "type": "bytes"
        },
        {
          "components": [
            {
              "internalType": "bytes32",
              "name": "name",
              "type": "bytes32"
            },
            {
              "internalType": "bytes32",
              "name": "version",
              "type": "bytes32"
            },
            {
              "internalType": "bytes32",
              "name": "realm",
              "type": "bytes32"
            },
            {
              "internalType": "address",
              "name": "smca",
              "type": "address"
            },
            {
              "internalType": "bool",
              "name": "status",
              "type": "bool"
            }
          ],
          "internalType": "struct IContextManagement.RequestContext",
          "name": "rc",
          "type": "tuple"
        },
        {
          "components": [
            {
              "internalType": "bytes32",
              "name": "role",
              "type": "bytes32"
            },
            {
              "internalType": "bytes4[]",
              "name": "funcSelectors",
              "type": "bytes4[]"
            },
            {
              "internalType": "enum IContextManagement.UpdateContextStatus",
              "name": "updateStatus",
              "type": "uint8"
            }
          ],
          "internalType": "struct IContextManagement.RequestUpdateContext[]",
          "name": "rcr",
          "type": "tuple[]"
        }
      ],
      "name": "updateContext",
      "outputs": [
        {
          "internalType": "address",
          "name": "",
          "type": "address"
        }
      ],
      "stateMutability": "nonpayable",
      "type": "function"
    },
    {
      "inputs": [
        {
          "internalType": "address",
          "name": "newImplementation",
          "type": "address"
        },
        {
          "internalType": "bytes",
          "name": "data",
          "type": "bytes"
        },
        {
          "internalType": "bool",
          "name": "forceCall",
          "type": "bool"
        }
      ],
      "name": "upgradeTo",
      "outputs": [
        {
          "internalType": "bytes",
          "name": "",
          "type": "bytes"
        }
      ],
      "stateMutability": "nonpayable",
      "type": "function"
    },
    {
      "inputs": [
        {
          "internalType": "address",
          "name": "recepient",
          "type": "address"
        }
      ],
      "name": "withdrawBalance",
      "outputs": [],
      "stateMutability": "nonpayable",
      "type": "function"
    },
    {
      "stateMutability": "payable",
      "type": "receive"
    }
  ],
  "transactionHash": "0x23261d12d5b032efb84eef51afbf64a1d7625d452c65e8c105d2bfb9e424ffff",
  "args": [],
  "numDeployments": 1,
  "solcInputHash": "704e9ded51238f860f54f50467749d02",
  "bytecode": "0x60a0604052306080523480156200001557600080fd5b506200004360017f360894a13ba1a3210667c828492db98dca3e2076cc3735a920a3ca505d382bbd6200011f565b7f360894a13ba1a3210667c828492db98dca3e2076cc3735a920a3ca505d382bbc1462000074576200007462000145565b620000a160017fb53127684a568b3173ae13b9f8a6016e243e63b6e8ee1178d6a717850b5d61046200011f565b6000805160206200549583398151915214620000c157620000c162000145565b33620000ea6000805160206200549583398151915260001b6200011c60201b620033001760201c565b80546001600160a01b0319166001600160a01b03929092169190911790556004805461ffff191660011790556200015b565b90565b6000828210156200014057634e487b7160e01b600052601160045260246000fd5b500390565b634e487b7160e01b600052600160045260246000fd5b6080516152d8620001bd6000396000818161148f015281816114d80152818161168b015281816116cb015281816119f201528181611a8601528181611ac60152818161208c015281816120cc01528181612ac40152612b0401526152d86000f3fe6080604052600436106103fa5760003560e01c8063771bcf4511610211578063d338640111610122578063e65be468116100b0578063f5122c9211610077578063f5122c9214610cf2578063f698da2514610d12578063f80f010f14610d27578063f8aa7e3f14610d47578063f94a0adb14610d6757005b8063e65be46814610c52578063e71e224e14610c72578063edf1d1cb14610c92578063f1df49da14610cb2578063f2c673bd14610cd257005b8063dbf304b0116100f4578063dbf304b014610ba5578063dc853dd014610bc5578063df01de4514610be5578063e1ed0a8214610c05578063e25d75f014610c3257005b8063d338640114610b30578063d3e024b814610b50578063d9aba36e14610b65578063d9dc1f1914610b8557005b8063b4a0bdf31161019f578063be22465d11610171578063be22465d14610a89578063be409a1114610aa1578063c48e7ae614610ad0578063c7ab39e614610af0578063c7ea945c14610b1057005b8063b4a0bdf314610a0b578063b4c4b58f14610a29578063b58966de14610a49578063b6c03f0314610a6957005b80638f09e0f0116101e35780638f09e0f01461092257806391690955146109425780639ebf624614610962578063a0a8e460146109d6578063b2dc26e5146109eb57005b8063771bcf45146108ad578063870666cb146108cd5780638b7dbd6c146108e25780638e7038261461090257005b806348e6be1c1161030b5780635ec7870a1161029957806370420ee31161026b57806370420ee3146108165780637147855d146108365780637276ce2914610863578063756af45f1461087857806375d0c0dc1461089857005b80635ec7870a1461079557806360fefdec146107aa5780636b2b7dd8146107c85780636b3b0159146107f657005b806351e70bb0116102dd57806351e70bb0146106f657806352d1902d146107165780635479d9401461072b57806358dbc45d146107485780635c6d8da11461077557005b806348e6be1c146106765780634944f532146106965780634bb1be8c146106b65780634dc13c8f146106d657005b806337bfbfe8116103885780633f4c99b81161035a5780633f4c99b8146105e157806340768140146106015780634346a04b1461061657806344b7e5f21461063657806345b5203c1461065657005b806337bfbfe81461054857806338d38c97146105755780633c7d5b251461059d5780633dfe3aa2146105cc57005b806311b529b3116103cc57806311b529b31461049b5780631846d125146104bb5780632e2adf00146104db5780632f032edd146105085780633228144d1461052857005b806301ffc9a714610403578063031c049314610438578063098b01cf14610458578063101df54d1461047b57005b3661040157005b005b34801561040f57600080fd5b5061042361041e366004613ea4565b610d7c565b60405190151581526020015b60405180910390f35b34801561044457600080fd5b50610423610453366004613ec1565b610e13565b34801561046457600080fd5b5061046d610ee9565b60405190815260200161042f565b34801561048757600080fd5b50610423610496366004613ef9565b610f28565b3480156104a757600080fd5b506104236104b6366004613f12565b610fa7565b3480156104c757600080fd5b506104236104d6366004613ef9565b611027565b3480156104e757600080fd5b506104fb6104f6366004613ef9565b611068565b60405161042f9190613f42565b34801561051457600080fd5b50610423610523366004613ef9565b6110ea565b34801561053457600080fd5b50610423610543366004613ef9565b61112c565b34801561055457600080fd5b50610568610563366004613ef9565b61116e565b60405161042f9190613f90565b34801561058157600080fd5b5061058a6111f1565b60405161ffff909116815260200161042f565b3480156105a957600080fd5b506105bd6105b8366004613ef9565b611205565b60405161042f93929190614024565b3480156105d857600080fd5b5061046d611299565b3480156105ed57600080fd5b5061046d6105fc3660046140a4565b6112c4565b34801561060d57600080fd5b5061046d611396565b34801561062257600080fd5b50610423610631366004613ec1565b6113c2565b34801561064257600080fd5b506104236106513660046140fa565b611483565b34801561066257600080fd5b50610423610671366004613ef9565b61163d565b34801561068257600080fd5b506104236106913660046140fa565b61167f565b3480156106a257600080fd5b506104236106b1366004613ef9565b611848565b3480156106c257600080fd5b5061046d6106d1366004614117565b61188a565b3480156106e257600080fd5b506104236106f1366004613ef9565b611961565b34801561070257600080fd5b50610423610711366004613ef9565b6119a3565b34801561072257600080fd5b5061046d6119e5565b34801561073757600080fd5b50600454610100900460ff16610423565b34801561075457600080fd5b5061075d611a72565b6040516001600160a01b03909116815260200161042f565b34801561078157600080fd5b50610401610790366004614193565b611a7c565b3480156107a157600080fd5b5061046d611e3e565b3480156107b657600080fd5b50604a5462010000900460ff16610423565b3480156107d457600080fd5b506107e86107e3366004613ef9565b611e72565b60405161042f929190614240565b34801561080257600080fd5b50610423610811366004614264565b611f00565b34801561082257600080fd5b50610423610831366004614292565b611f9e565b34801561084257600080fd5b506108566108513660046143a2565b612080565b60405161042f91906143fa565b34801561086f57600080fd5b5061046d6121a8565b34801561088457600080fd5b5061040161089336600461440d565b6121d3565b3480156108a457600080fd5b5060015461046d565b3480156108b957600080fd5b506104236108c8366004613ec1565b61228b565b3480156108d957600080fd5b5061046d61234c565b3480156108ee57600080fd5b506104236108fd366004614292565b612357565b34801561090e57600080fd5b5061042361091d366004613ef9565b6123e6565b34801561092e57600080fd5b5061042361093d36600461442a565b612428565b34801561094e57600080fd5b5061042361095d366004613ef9565b6124b0565b34801561096e57600080fd5b5061098261097d366004613ef9565b6124f2565b60405161042f91908151815260208083015190820152604080830151908201526060808301516001600160a01b03169082015260808083015115159082015260a09182015115159181019190915260c00190565b3480156109e257600080fd5b5060025461046d565b3480156109f757600080fd5b5061046d610a0636600461444f565b61259b565b348015610a1757600080fd5b506000546001600160a01b031661075d565b348015610a3557600080fd5b50610423610a44366004613f12565b612687565b348015610a5557600080fd5b50610423610a64366004613f12565b6126c6565b348015610a7557600080fd5b50610423610a84366004614292565b612796565b348015610a9557600080fd5b5060045460ff16610423565b348015610aad57600080fd5b50610ac1610abc366004613ef9565b612825565b60405161042f939291906144a2565b348015610adc57600080fd5b50610423610aeb366004613ef9565b6128ac565b348015610afc57600080fd5b50610423610b0b3660046144cc565b6128ee565b348015610b1c57600080fd5b50610423610b2b36600461442a565b61294f565b348015610b3c57600080fd5b50610423610b4b366004614503565b6129a0565b348015610b5c57600080fd5b5060035461046d565b348015610b7157600080fd5b50610423610b80366004614503565b612a6f565b348015610b9157600080fd5b50610423610ba036600461440d565b612ab8565b348015610bb157600080fd5b50610423610bc0366004614503565b612c32565b348015610bd157600080fd5b50610423610be0366004613ef9565b612d01565b348015610bf157600080fd5b50610423610c0036600461442a565b612d43565b348015610c1157600080fd5b50610c25610c20366004613ef9565b612dcb565b60405161042f9190614525565b348015610c3e57600080fd5b50610423610c4d366004613ef9565b612e4d565b348015610c5e57600080fd5b5061075d610c6d3660046145c2565b612e8f565b348015610c7e57600080fd5b50610423610c8d366004614292565b612f77565b348015610c9e57600080fd5b50610568610cad366004613ef9565b613049565b348015610cbe57600080fd5b5061046d610ccd366004614648565b61308b565b348015610cde57600080fd5b50610423610ced366004614292565b613180565b348015610cfe57600080fd5b50610423610d0d366004614503565b61320f565b348015610d1e57600080fd5b5061046d613258565b348015610d3357600080fd5b50610423610d4236600461440d565b613262565b348015610d5357600080fd5b50610423610d6236600461440d565b6132ac565b348015610d7357600080fd5b5061075d6132f6565b60006001600160e01b03198216631b44bad360e31b1480610dad57506001600160e01b03198216633b661d8360e21b145b80610dc857506001600160e01b0319821663467e3a6160e01b145b80610de357506001600160e01b03198216637d22131d60e11b145b80610dfe57506001600160e01b031982166370319bff60e11b145b80610e0d5750610e0d82613303565b92915050565b60008073e7f1725E7734CE288F8367e1Bb143E90bb3F051263518bf96060458787876040518563ffffffff1660e01b8152600401610e5494939291906146bf565b602060405180830381865af4158015610e71573d6000803e3d6000fd5b505050506040513d601f19601f82011682018060405250810190610e9591906146e4565b9050336001600160a01b031683867fce5e1f2ba33f195f748a93b00ee62600b55e27cc50531a72e5443713bac23e128785604051610ed49291906146fd565b60405180910390a460019150505b9392505050565b604051704c4956454c595f41444d494e5f524f4c4560781b60208201526000906031015b60405160208183030381529060405280519060200120905090565b604051637cd7c4ed60e01b81526045600482015260248101829052600090735FbDB2315678afecb367f032d93F642f64180aa390637cd7c4ed906044015b602060405180830381865af4158015610f83573d6000803e3d6000fd5b505050506040513d601f19601f82011682018060405250810190610e0d9190614717565b6040516302a0d2e360e61b8152600090735FbDB2315678afecb367f032d93F642f64180aa39063a834b8c090610fe69060459087908790600401614734565b602060405180830381865af4158015611003573d6000803e3d6000fd5b505050506040513d601f19601f82011682018060405250810190610ee29190614717565b60405162fd7cb960e41b81526045600482015260248101829052600090735FbDB2315678afecb367f032d93F642f64180aa390630fd7cb9090604401610f66565b60405163ec77eb2160e01b8152604560048201526024810182905260609073e7f1725E7734CE288F8367e1Bb143E90bb3F05129063ec77eb2190604401600060405180830381865af41580156110c2573d6000803e3d6000fd5b505050506040513d6000823e601f3d908101601f19168201604052610e0d91908101906147e6565b60405163e24b90a960e01b81526045600482015260248101829052600090735FbDB2315678afecb367f032d93F642f64180aa39063e24b90a990604401610f66565b60405163442b0ca160e01b81526045600482015260248101829052600090735FbDB2315678afecb367f032d93F642f64180aa39063442b0ca190604401610f66565b6040516350f0b31d60e11b8152604560048201526024810182905260609073Cf7Ed3AccA5a467e9e704C703E8D87F634fB0Fc99063a1e1663a906044015b600060405180830381865af41580156111c9573d6000803e3d6000fd5b505050506040513d6000823e601f3d908101601f19168201604052610e0d919081019061481a565b6000611200604a5461ffff1690565b905090565b60405163108ca8b760e01b81526045600482015260248101829052606090600090819073Cf7Ed3AccA5a467e9e704C703E8D87F634fB0Fc99063108ca8b790604401600060405180830381865af4158015611264573d6000803e3d6000fd5b505050506040513d6000823e601f3d908101601f1916820160405261128c91908101906148ef565b9250925092509193909250565b6040517304c4956454c595f47454e4552414c5f47524f55560641b6020820152600090603401610f0d565b60008073Dc64a140Aa3E981100a9becA4E685f962f0cF6C963f728a0f560458787876040518563ffffffff1660e01b81526004016113059493929190614971565b602060405180830381865af4158015611322573d6000803e3d6000fd5b505050506040513d601f19601f8201168201806040525081019061134691906146e4565b9050336001600160a01b0316817fde3bd866160a7f983f3c5f990127712936d37378d60b93ba96ab3a66a04feb188787876040516113869392919061499e565b60405180910390a3949350505050565b604051744c4956454c595f414e4f4e594d4f55535f524f4c4560581b6020820152600090603501610f0d565b60008073e7f1725E7734CE288F8367e1Bb143E90bb3F0512635acd816a60458787876040518563ffffffff1660e01b815260040161140394939291906146bf565b602060405180830381865af4158015611420573d6000803e3d6000fd5b505050506040513d601f19601f8201168201806040525081019061144491906146e4565b9050336001600160a01b031683867f888ebbee43b69c568a7ef10a18f4afb4a0452ed2cfec2dde7a3d37b7e5ef87a38785604051610ed49291906146fd565b60006001600160a01b037f00000000000000000000000000000000000000000000000000000000000000001630036114d65760405162461bcd60e51b81526004016114cd906149c4565b60405180910390fd5b7f00000000000000000000000000000000000000000000000000000000000000006001600160a01b0316611508613353565b6001600160a01b03161461152e5760405162461bcd60e51b81526004016114cd906149f3565b600061153d604a5461ffff1690565b61ffff161161158e5760405162461bcd60e51b815260206004820152601860248201527f436f6e7472616374204e6f7420496e697469616c697a6564000000000000000060448201526064016114cd565b61159e63225bf2f960e11b613374565b6115e25760405162461bcd60e51b815260206004820152601560248201527429b2ba29b0b332a6b7b232902337b93134b23232b760591b60448201526064016114cd565b6004805460ff191683151517905560035430336001600160a01b03167fdd452a31d2e164a1ea436c084842c27d24ae2548a575a869f71b05a4ed16243f85604051611631911515815260200190565b60405180910390a45090565b604051630227e50560e31b81526045600482015260248101829052600090735FbDB2315678afecb367f032d93F642f64180aa39063113f282890604401610f66565b60006001600160a01b037f00000000000000000000000000000000000000000000000000000000000000001630036116c95760405162461bcd60e51b81526004016114cd906149c4565b7f00000000000000000000000000000000000000000000000000000000000000006001600160a01b03166116fb613353565b6001600160a01b0316146117215760405162461bcd60e51b81526004016114cd906149f3565b60045460ff16156117445760405162461bcd60e51b81526004016114cd90614a21565b611754631239af8760e21b613374565b6117a05760405162461bcd60e51b815260206004820152601a60248201527f5365745570677261646553746174757320466f7262696464656e00000000000060448201526064016114cd565b6117a86134b7565b6117f45760405162461bcd60e51b815260206004820152601760248201527f5265616c6d205570677261646520466f7262696464656e00000000000000000060448201526064016114cd565b6004805461ff0019166101008415150217905560035430336001600160a01b03167fe9f97ad94c2ba252dcfc525e004f608ac5cb886955d8fc87d9e0ee070a698c5685604051611631911515815260200190565b604051633346dd2d60e01b81526045600482015260248101829052600090735FbDB2315678afecb367f032d93F642f64180aa390633346dd2d90604401610f66565b60008073Cf7Ed3AccA5a467e9e704C703E8D87F634fB0Fc96359186f406045888888886040518663ffffffff1660e01b81526004016118cd959493929190614a58565b602060405180830381865af41580156118ea573d6000803e3d6000fd5b505050506040513d601f19601f8201168201806040525081019061190e91906146e4565b9050336001600160a01b0316817f5a8acbe7e0fa397d934e9aafb8fb1a483627af9e9b4690f4488d740b669f8b47888888886040516119509493929190614a8b565b60405180910390a395945050505050565b60405163017d626960e01b81526045600482015260248101829052600090735FbDB2315678afecb367f032d93F642f64180aa39063017d626990604401610f66565b60405163af07cfcd60e01b81526045600482015260248101829052600090735FbDB2315678afecb367f032d93F642f64180aa39063af07cfcd90604401610f66565b6000306001600160a01b037f00000000000000000000000000000000000000000000000000000000000000001614611a5f5760405162461bcd60e51b815260206004820152601d60248201527f496c6c6567616c20436f6e74726163742044656c656761746563616c6c00000060448201526064016114cd565b5060008051602061528383398151915290565b6000611200613353565b6001600160a01b037f0000000000000000000000000000000000000000000000000000000000000000163003611ac45760405162461bcd60e51b81526004016114cd906149c4565b7f00000000000000000000000000000000000000000000000000000000000000006001600160a01b0316611af6613353565b6001600160a01b031614611b1c5760405162461bcd60e51b81526004016114cd906149f3565b33611b256135f3565b6001600160a01b031614611b735760405162461bcd60e51b815260206004820152601560248201527410d85b1b195c88139bdd08105d5d1a1bdc9a5e9959605a1b60448201526064016114cd565b604a5462010000900460ff1615808015611b955750604a54600161ffff909116105b80611bb05750303b158015611bb05750604a5461ffff166001145b611bfc5760405162461bcd60e51b815260206004820152601c60248201527f436f6e747261637420416c726561647920496e697469616c697a65640000000060448201526064016114cd565b604a805461ffff191660011790558015611c2257604a805462ff00001916620100001790555b60008484604051602001611c37929190614ab7565b60408051808303601f190181529082905280516020909101206308bae38360e31b8252604560048301529150735FbDB2315678afecb367f032d93F642f64180aa3906345d71c189060240160006040518083038186803b158015611c9a57600080fd5b505af4158015611cae573d6000803e3d6000fd5b50505050611cc089898989858861361b565b6000735FbDB2315678afecb367f032d93F642f64180aa36362f3c2d46040518163ffffffff1660e01b8152600401600060405180830381865af4158015611d0b573d6000803e3d6000fd5b505050506040513d6000823e601f3d908101601f19168201604052611d339190810190614ac7565b604051631f5dcce360e31b815290915073e7f1725E7734CE288F8367e1Bb143E90bb3F05129063faee671890611d7490604590309087908790600401614bca565b602060405180830381865af4158015611d91573d6000803e3d6000fd5b505050506040513d601f19601f82011682018060405250810190611db591906146e4565b50611dbe613353565b6001600160a01b031630336001600160a01b03167ff851a1e85477b818fc72ad517ea622cc316f10f67d61c9e740adc151a8b413948d8d8d8d89611e05604a5461ffff1690565b604051611e1796959493929190614ca2565b60405180910390a450508015611e3457604a805462ff0000191690555b5050505050505050565b6040517f4c4956454c595f53595354454d5f41444d494e5f524f4c4500000000000000006020820152600090603801610f0d565b604051630e8a623f60e31b8152604560048201526024810182905260609060009073Dc64a140Aa3E981100a9becA4E685f962f0cF6C99063745311f890604401600060405180830381865af4158015611ecf573d6000803e3d6000fd5b505050506040513d6000823e601f3d908101601f19168201604052611ef79190810190614ce7565b91509150915091565b604051637134bb4560e01b81526045600482015260248101849052604481018390526001600160e01b03198216606482015260009073e7f1725E7734CE288F8367e1Bb143E90bb3F051290637134bb45906084015b602060405180830381865af4158015611f72573d6000803e3d6000fd5b505050506040513d601f19601f82011682018060405250810190611f969190614717565b949350505050565b604051637cc5941d60e01b8152604560048201526024810183905281151560448201526000908190819073e7f1725E7734CE288F8367e1Bb143E90bb3F051290637cc5941d906064016040805180830381865af4158015612003573d6000803e3d6000fd5b505050506040513d601f19601f820116820180604052508101906120279190614d2d565b91509150806120333390565b6001600160a01b0316867f354501e3216e5f916d4d35ef255a577d106a7eab306488227783a837dc042a4e87604051612070911515815260200190565b60405180910390a4509392505050565b60606001600160a01b037f00000000000000000000000000000000000000000000000000000000000000001630036120ca5760405162461bcd60e51b81526004016114cd906149c4565b7f00000000000000000000000000000000000000000000000000000000000000006001600160a01b03166120fc613353565b6001600160a01b0316146121225760405162461bcd60e51b81526004016114cd906149f3565b60045460ff16156121455760405162461bcd60e51b81526004016114cd90614a21565b600454610100900460ff166121945760405162461bcd60e51b8152602060048201526015602482015274155c19dc9859194810d85b1b0814995a9958dd1959605a1b60448201526064016114cd565b61219d84613631565b611f968484846136f8565b604051734c4956454c595f47454e4552414c5f5245414c4d60601b6020820152600090603401610f0d565b60045460ff16156121f65760405162461bcd60e51b81526004016114cd90614a21565b61220663756af45f60e01b613374565b6122525760405162461bcd60e51b815260206004820152601a60248201527f57697468647261772042616c616e636520466f7262696464656e00000000000060448201526064016114cd565b6040516001600160a01b038216904780156108fc02916000818181858888f19350505050158015612287573d6000803e3d6000fd5b5050565b60008073e7f1725E7734CE288F8367e1Bb143E90bb3F051263453dd6dc60458787876040518563ffffffff1660e01b81526004016122cc94939291906146bf565b602060405180830381865af41580156122e9573d6000803e3d6000fd5b505050506040513d601f19601f8201168201806040525081019061230d91906146e4565b9050336001600160a01b031683867fea00ff399a342f54b82233841f91faa5677300e901667e010e9f22aea1ae59318785604051610ed49291906146fd565b600061120030613949565b6000336001600160a01b0316837ffe1617b569bd167ab40b31e034f68e32656219dbe4ab9469a00660550fec72c884604051612397911515815260200190565b60405180910390a3604051630549f02d60e01b81526045600482015260248101849052821515604482015273Cf7Ed3AccA5a467e9e704C703E8D87F634fB0Fc990630549f02d90606401610fe6565b6040516310f0750160e01b81526045600482015260248101829052600090735FbDB2315678afecb367f032d93F642f64180aa3906310f0750190604401610f66565b60405160009033906001600160a01b0384169085907faa9fcab08d536afd9c656fd3199c346689f381e05539dda255166829ef51dbac908590a46040516389d4da6560e01b815260456004820152602481018490526001600160a01b0383166044820152739fE46736679d2D9a65F0992F2272dE9f3c7fa6e0906389d4da6590606401610fe6565b60405163327c496560e11b81526045600482015260248101829052600090735FbDB2315678afecb367f032d93F642f64180aa3906364f892ca90604401610f66565b6040805160c081018252600080825260208201819052818301819052606082018190526080820181905260a0820152905163399d749f60e11b8152604560048201526024810183905273e7f1725E7734CE288F8367e1Bb143E90bb3F05129063733ae93e9060440160c060405180830381865af4158015612577573d6000803e3d6000fd5b505050506040513d601f19601f82011682018060405250810190610e0d9190614d5b565b600080739fE46736679d2D9a65F0992F2272dE9f3c7fa6e0633859eb7f6045888888886040518663ffffffff1660e01b81526004016125de959493929190614dec565b602060405180830381865af41580156125fb573d6000803e3d6000fd5b505050506040513d601f19601f8201168201806040525081019061261f91906146e4565b9050336001600160a01b0316868660405161263b929190614ab7565b6040805191829003822087835286151560208401529184917fd9ad0e23c83bfa99fde34354c8342d95c76b51674447ec04aad729d5f38b9b8d910160405180910390a495945050505050565b6040516337b3cdd760e21b8152600090735FbDB2315678afecb367f032d93F642f64180aa39063decf375c90610fe69060459087908790600401614734565b60008073e7f1725E7734CE288F8367e1Bb143E90bb3F051263b0c25575604586866040518463ffffffff1660e01b815260040161270593929190614734565b602060405180830381865af4158015612722573d6000803e3d6000fd5b505050506040513d601f19601f8201168201806040525081019061274691906146e4565b9050336001600160a01b0316847fa6234dfea6da9d63d0505ba9b61ac8405dfd897089208859cda18011c4847d6985846040516127849291906146fd565b60405180910390a35060019392505050565b6000336001600160a01b0316837fe595d6b009cbfd06bfdfc4b7c06799f0e0b08fb2c6f5fa6e28a9aac2495440f9846040516127d6911515815260200190565b60405180910390a3604051637c95bcdf60e01b81526045600482015260248101849052821515604482015273Dc64a140Aa3E981100a9becA4E685f962f0cF6C990637c95bcdf90606401610fe6565b604051631f9471ef60e01b815260456004820152602481018290526060906000908190739fE46736679d2D9a65F0992F2272dE9f3c7fa6e090631f9471ef90604401600060405180830381865af4158015612884573d6000803e3d6000fd5b505050506040513d6000823e601f3d908101601f1916820160405261128c9190810190614e1f565b604051633bcd353d60e11b81526045600482015260248101829052600090735FbDB2315678afecb367f032d93F642f64180aa39063779a6a7a90604401610f66565b604051630243e34b60e51b815260456004820152602481018490526001600160a01b03831660448201526001600160e01b031982166064820152600090735FbDB2315678afecb367f032d93F642f64180aa39063487c696090608401611f55565b604051630938ae7160e01b815260456004820152602481018390526001600160a01b0382166044820152600090739fE46736679d2D9a65F0992F2272dE9f3c7fa6e090630938ae7190606401610fe6565b604051631f00af7b60e11b81526045600482015260248101839052604481018290526000908190819073e7f1725E7734CE288F8367e1Bb143E90bb3F051290633e015ef6906064016040805180830381865af4158015612a04573d6000803e3d6000fd5b505050506040513d601f19601f82011682018060405250810190612a289190614d2d565b9150915083612a343390565b6001600160a01b0316867fa0eaa0025d4f12545803a03c369115c59f885df7b5fc07a6393438827dbf51b78460405161207091815260200190565b604051631e7abee360e21b815260456004820152602481018390526044810182905260009073Cf7Ed3AccA5a467e9e704C703E8D87F634fB0Fc9906379eafb8c90606401610fe6565b60006001600160a01b037f0000000000000000000000000000000000000000000000000000000000000000163003612b025760405162461bcd60e51b81526004016114cd906149c4565b7f00000000000000000000000000000000000000000000000000000000000000006001600160a01b0316612b34613353565b6001600160a01b031614612b5a5760405162461bcd60e51b81526004016114cd906149f3565b60045460ff1615612b7d5760405162461bcd60e51b81526004016114cd90614a21565b612b8d63d9dc1f1960e01b613374565b612bd95760405162461bcd60e51b815260206004820152601760248201527f5365744c6f63616c41646d696e20466f7262696464656e00000000000000000060448201526064016114cd565b6001600160a01b038216612c215760405162461bcd60e51b815260206004820152600f60248201526e1059191c995cdcc8125b9d985b1a59608a1b60448201526064016114cd565b612c2a82613988565b506001919050565b60405163c3203fd160e01b815260456004820152602481018390526044810182905260009081908190739fE46736679d2D9a65F0992F2272dE9f3c7fa6e09063c3203fd1906064016040805180830381865af4158015612c96573d6000803e3d6000fd5b505050506040513d601f19601f82011682018060405250810190612cba9190614d2d565b9150915083612cc63390565b6001600160a01b0316867fddcf3b21fa89076821d7d3f19db39ee5e93f479458e803d78b50b7f24488914f8460405161207091815260200190565b60405163d95140eb60e01b81526045600482015260248101829052600090735FbDB2315678afecb367f032d93F642f64180aa39063d95140eb90604401610f66565b60405160009033906001600160a01b0384169085907ff2640085d94bfec49cdcaf11b663e639b0d981dcedeb19377d92e1ad3592ad23908590a4604051633d58057760e01b815260456004820152602481018490526001600160a01b0383166044820152739fE46736679d2D9a65F0992F2272dE9f3c7fa6e090633d58057790606401610fe6565b604051633e5c6e9760e11b81526045600482015260248101829052606090739fE46736679d2D9a65F0992F2272dE9f3c7fa6e090637cb8dd2e90604401600060405180830381865af4158015612e25573d6000803e3d6000fd5b505050506040513d6000823e601f3d908101601f19168201604052610e0d9190810190614e6e565b6040516333064c8960e11b81526045600482015260248101829052600090735FbDB2315678afecb367f032d93F642f64180aa39063660c991290604401610f66565b600080600073e7f1725E7734CE288F8367e1Bb143E90bb3F051263099a0c2e60458a8a8a8a8a6040518763ffffffff1660e01b8152600401612ed696959493929190614ffc565b6040805180830381865af4158015612ef2573d6000803e3d6000fd5b505050506040513d601f19601f82011682018060405250810190612f1691906150c5565b91509150806001600160a01b0316826001600160a01b0316897f2acec3419c1d10dab06d0715f556e96b344f2092a52a23fb192b4b89f5b7cf428960400135604051612f6491815260200190565b60405180910390a4509695505050505050565b604051633d2003d360e21b81526045600482015260248101839052811515604482015260009081908190739fE46736679d2D9a65F0992F2272dE9f3c7fa6e09063f4800f4c906064016040805180830381865af4158015612fdc573d6000803e3d6000fd5b505050506040513d601f19601f820116820180604052508101906130009190614d2d565b915091508061300c3390565b6001600160a01b0316867f10d5d50ae3b7f264859100e29f6facf8a66f27a34a0ea13c7d333d1bb4cab30587604051612070911515815260200190565b6040516309f7398160e11b8152604560048201526024810182905260609073Dc64a140Aa3E981100a9becA4E685f962f0cF6C9906313ee7302906044016111ac565b600080600073e7f1725E7734CE288F8367e1Bb143E90bb3F05126315922efe6045898989896040518663ffffffff1660e01b81526004016130d09594939291906150f4565b6040805180830381865af41580156130ec573d6000803e3d6000fd5b505050506040513d601f19601f8201168201806040525081019061311091906151b8565b90925090506001600160a01b03811661312f608088016060890161440d565b6001600160a01b0316837f11cf8f3561fae187c57df59424ecf5d3f444e138924944c77dcb68144c635731896040013560405161316e91815260200190565b60405180910390a45095945050505050565b6000336001600160a01b0316837f552ce1fc1bc82a48cdc0636ff7162480d868c590f2e57c63c30a944f3a82ec36846040516131c0911515815260200190565b60405180910390a36040516315b18c7560e11b81526045600482015260248101849052821515604482015273Cf7Ed3AccA5a467e9e704C703E8D87F634fB0Fc990632b6318ea90606401610fe6565b604051634ba8456360e01b815260456004820152602481018390526044810182905260009073Dc64a140Aa3E981100a9becA4E685f962f0cF6C990634ba8456390606401610fe6565b60006112006139ff565b60405163470e456560e01b8152604560048201526001600160a01b0382166024820152600090735FbDB2315678afecb367f032d93F642f64180aa39063470e456590604401610f66565b60405163fbe97e1960e01b8152604560048201526001600160a01b0382166024820152600090735FbDB2315678afecb367f032d93F642f64180aa39063fbe97e1990604401610f66565b60006112006135f3565b90565b60006001600160e01b0319821663748be05360e01b148061333457506001600160e01b031982166352d1902d60e01b145b80610e0d57506301ffc9a760e01b6001600160e01b0319831614610e0d565b60006000805160206152838339815191525b546001600160a01b0316919050565b600080546001600160a01b031630036134605760006363d59cf360e11b61339a30613949565b33856040516024016133ae939291906151dd565b60408051601f198184030181529190526020810180516001600160e01b03166001600160e01b0319909316929092179091529050600061342b6133ef613353565b836040518060400160405280601d81526020017f44656c656761746563616c6c20686173416363657373204661696c6564000000815250613a52565b9050806001825161343c9190615206565b8151811061344c5761344c61522b565b60209101015160f81c600114949350505050565b6000546001600160a01b031663c7ab39e661347a30613949565b33856040518463ffffffff1660e01b815260040161349a939291906151dd565b602060405180830381865afa158015610f83573d6000803e3d6000fd5b600080546001600160a01b0316300361357d57600063e25d75f060e01b6003546040516024016134e991815260200190565b60408051601f198184030181529190526020810180516001600160e01b03166001600160e01b0319909316929092179091529050600061354961352a613353565b8360405180606001604052806025815260200161525e60259139613a52565b9050806001825161355a9190615206565b8151811061356a5761356a61522b565b60209101015160f81c6001149392505050565b600054600354604051630e25d75f60e41b81526001600160a01b039092169163e25d75f0916135b29160040190815260200190565b602060405180830381865afa1580156135cf573d6000803e3d6000fd5b505050506040513d601f19601f820116820180604052508101906112009190614717565b60007fb53127684a568b3173ae13b9f8a6016e243e63b6e8ee1178d6a717850b5d6103613365565b613629868686868686613b1b565b505050505050565b613639613353565b6001600160a01b0316816001600160a01b0316036136995760405162461bcd60e51b815260206004820152601a60248201527f496c6c6567616c204e657720496d706c656d656e746174696f6e00000000000060448201526064016114cd565b6136a9637147855d60e01b613374565b6136f55760405162461bcd60e51b815260206004820152601960248201527f5570677261646520436f6e7465787420466f7262696464656e0000000000000060448201526064016114cd565b50565b60607f4910fdfa16fed3260ed0e7147f7cc6da11a60208b5b9406d12a635614ffd91435460ff16156137425761372d84613d26565b50604080516000815260208101909152610ee2565b836001600160a01b03166352d1902d6040518163ffffffff1660e01b8152600401602060405180830381865afa92505050801561379c575060408051601f3d908101601f19168201909252613799918101906146e4565b60015b6137e05760405162461bcd60e51b8152602060048201526015602482015274125b1b1959d85b0815555414c810dbdb9d1c9858dd605a1b60448201526064016114cd565b60008051602061528383398151915281146138355760405162461bcd60e51b8152602060048201526015602482015274125b9d985b1a590815555414c810dbdb9d1c9858dd605a1b60448201526064016114cd565b506040516301ffc9a760e01b815263748be05360e01b60048201526001600160a01b038516906301ffc9a790602401602060405180830381865afa92505050801561389d575060408051601f3d908101601f1916820190925261389a91810190614717565b60015b6138e95760405162461bcd60e51b815260206004820152601760248201527f496c6c6567616c204950726f787920436f6e747261637400000000000000000060448201526064016114cd565b806139365760405162461bcd60e51b815260206004820152601760248201527f496e76616c6964204950726f787920436f6e747261637400000000000000000060448201526064016114cd565b50613942848484613da7565b9050610ee2565b6040516bffffffffffffffffffffffff19606083901b166020820152600090603401604051602081830303815290604052805190602001209050919050565b7fb53127684a568b3173ae13b9f8a6016e243e63b6e8ee1178d6a717850b5d610380546001600160a01b0383166001600160a01b031990911681179091556040805191825251309133917f54ab0d18de7958786ba1ad85966d59baa2b395455f0530dcdcfd732e6af539e29181900360200190a350565b600154600254604080517f8b73c3c69bb8fe3d512ecc4cf759cc79239f7b179b0ffacaa9a75d522b39400f60208201529081019290925260608201524660808201523060a082015260009060c001610f0d565b60606001600160a01b0384163b613aa65760405162461bcd60e51b8152602060048201526018602482015277496c6c6567616c20436f6e7472616374204164647265737360401b60448201526064016114cd565b600080856001600160a01b031685604051613ac19190615241565b600060405180830381855af49150503d8060008114613afc576040519150601f19603f3d011682016040523d82523d6000602084013e613b01565b606091505b5091509150613b11828286613e11565b9695505050505050565b604a5462010000900460ff16613b735760405162461bcd60e51b815260206004820152601960248201527f436f6e7472616374204e6f7420496e697469616c697a696e670000000000000060448201526064016114cd565b8585604051602001613b86929190614ab7565b60408051601f19818403018152908290528051602091820120600155613bb0918691869101614ab7565b60408051601f19818403018152919052805160209091012060025560038290556001600160a01b038116613bf557600080546001600160a01b03191630179055613d12565b6040516301ffc9a760e01b8152631b44bad360e31b60048201526001600160a01b038216906301ffc9a790602401602060405180830381865afa925050508015613c5c575060408051601f3d908101601f19168201909252613c5991810190614717565b60015b613ca85760405162461bcd60e51b815260206004820152601c60248201527f496c6c6567616c20416363657373436f6e74726f6c4d616e616765720000000060448201526064016114cd565b80613cf55760405162461bcd60e51b815260206004820152601c60248201527f496e76616c696420416363657373436f6e74726f6c4d616e616765720000000060448201526064016114cd565b50600080546001600160a01b0319166001600160a01b0383161790555b6004805461ffff1916905561362933613988565b6001600160a01b0381163b613d785760405162461bcd60e51b8152602060048201526018602482015277496c6c6567616c20436f6e7472616374204164647265737360401b60448201526064016114cd565b60008051602061528383398151915280546001600160a01b0319166001600160a01b0392909216919091179055565b6060613db284613e4a565b600083511180613dbf5750815b15613dfa5761394284846040518060400160405280601381526020017211195b1959d85d1958d85b1b0811985a5b1959606a1b815250613a52565b505060408051600081526020810190915292915050565b60608315613e20575081610ee2565b825115613e305782518084602001fd5b8160405162461bcd60e51b81526004016114cd91906143fa565b613e5381613d26565b6040516001600160a01b03821690309033907f354bd4b6eb65d64e6c79c53fa4f983a5e6bec4824ce4627c71be0b2722f4917e90600090a450565b6001600160e01b0319811681146136f557600080fd5b600060208284031215613eb657600080fd5b8135610ee281613e8e565b600080600060608486031215613ed657600080fd5b833592506020840135613ee881613e8e565b929592945050506040919091013590565b600060208284031215613f0b57600080fd5b5035919050565b60008060408385031215613f2557600080fd5b823591506020830135613f3781613e8e565b809150509250929050565b6020808252825182820181905260009190848201906040850190845b81811015613f845783516001600160e01b03191683529284019291840191600101613f5e565b50909695505050505050565b6020808252825182820181905260009190848201906040850190845b81811015613f8457835183529284019291840191600101613fac565b60005b83811015613fe3578181015183820152602001613fcb565b83811115613ff2576000848401525b50505050565b60008151808452614010816020860160208601613fc8565b601f01601f19169290920160200192915050565b6060815260006140376060830186613ff8565b931515602083015250901515604090910152919050565b60008083601f84011261406057600080fd5b5081356001600160401b0381111561407757600080fd5b60208301915083602082850101111561408f57600080fd5b9250929050565b80151581146136f557600080fd5b6000806000604084860312156140b957600080fd5b83356001600160401b038111156140cf57600080fd5b6140db8682870161404e565b90945092505060208401356140ef81614096565b809150509250925092565b60006020828403121561410c57600080fd5b8135610ee281614096565b6000806000806060858703121561412d57600080fd5b84356001600160401b0381111561414357600080fd5b61414f8782880161404e565b909550935050602085013561416381614096565b9150604085013561417381614096565b939692955090935050565b6001600160a01b03811681146136f557600080fd5b60008060008060008060006080888a0312156141ae57600080fd5b87356001600160401b03808211156141c557600080fd5b6141d18b838c0161404e565b909950975060208a01359150808211156141ea57600080fd5b6141f68b838c0161404e565b909750955060408a013591508082111561420f57600080fd5b5061421c8a828b0161404e565b90945092505060608801356142308161417e565b8091505092959891949750929550565b6040815260006142536040830185613ff8565b905082151560208301529392505050565b60008060006060848603121561427957600080fd5b833592506020840135915060408401356140ef81613e8e565b600080604083850312156142a557600080fd5b823591506020830135613f3781614096565b634e487b7160e01b600052604160045260246000fd5b604051606081016001600160401b03811182821017156142ef576142ef6142b7565b60405290565b604051601f8201601f191681016001600160401b038111828210171561431d5761431d6142b7565b604052919050565b60006001600160401b0382111561433e5761433e6142b7565b50601f01601f191660200190565b600082601f83011261435d57600080fd5b813561437061436b82614325565b6142f5565b81815284602083860101111561438557600080fd5b816020850160208301376000918101602001919091529392505050565b6000806000606084860312156143b757600080fd5b83356143c28161417e565b925060208401356001600160401b038111156143dd57600080fd5b6143e98682870161434c565b92505060408401356140ef81614096565b602081526000610ee26020830184613ff8565b60006020828403121561441f57600080fd5b8135610ee28161417e565b6000806040838503121561443d57600080fd5b823591506020830135613f378161417e565b6000806000806060858703121561446557600080fd5b84356001600160401b0381111561447b57600080fd5b6144878782880161404e565b90955093505060208501359150604085013561417381614096565b6060815260006144b56060830186613ff8565b602083019490945250901515604090910152919050565b6000806000606084860312156144e157600080fd5b8335925060208401356144f38161417e565b915060408401356140ef81613e8e565b6000806040838503121561451657600080fd5b50508035926020909101359150565b6020808252825182820181905260009190848201906040850190845b81811015613f845783516001600160a01b031683529284019291840191600101614541565b600060a0828403121561457857600080fd5b50919050565b60008083601f84011261459057600080fd5b5081356001600160401b038111156145a757600080fd5b6020830191508360208260051b850101111561408f57600080fd5b600080600080600061010086880312156145db57600080fd5b8535945060208601356001600160401b03808211156145f957600080fd5b61460589838a0161434c565b95506146148960408a01614566565b945060e088013591508082111561462a57600080fd5b506146378882890161457e565b969995985093965092949392505050565b60008060008060e0858703121561465e57600080fd5b84356001600160401b038082111561467557600080fd5b6146818883890161434c565b95506146908860208901614566565b945060c08701359150808211156146a657600080fd5b506146b38782880161457e565b95989497509550505050565b93845260208401929092526001600160e01b0319166040830152606082015260800190565b6000602082840312156146f657600080fd5b5051919050565b6001600160e01b0319929092168252602082015260400190565b60006020828403121561472957600080fd5b8151610ee281614096565b92835260208301919091526001600160e01b031916604082015260600190565b60006001600160401b0382111561476d5761476d6142b7565b5060051b60200190565b600082601f83011261478857600080fd5b8151602061479861436b83614754565b82815260059290921b840181019181810190868411156147b757600080fd5b8286015b848110156147db5780516147ce81613e8e565b83529183019183016147bb565b509695505050505050565b6000602082840312156147f857600080fd5b81516001600160401b0381111561480e57600080fd5b611f9684828501614777565b6000602080838503121561482d57600080fd5b82516001600160401b0381111561484357600080fd5b8301601f8101851361485457600080fd5b805161486261436b82614754565b81815260059190911b8201830190838101908783111561488157600080fd5b928401925b8284101561489f57835182529284019290840190614886565b979650505050505050565b600082601f8301126148bb57600080fd5b81516148c961436b82614325565b8181528460208386010111156148de57600080fd5b611f96826020830160208701613fc8565b60008060006060848603121561490457600080fd5b83516001600160401b0381111561491a57600080fd5b614926868287016148aa565b935050602084015161493781614096565b60408501519092506140ef81614096565b81835281816020850137506000828201602090810191909152601f909101601f19169091010190565b84815260606020820152600061498b606083018587614948565b9050821515604083015295945050505050565b6040815260006149b2604083018587614948565b90508215156020830152949350505050565b602080825260159082015274125b1b1959d85b0810dbdb9d1c9858dd0810d85b1b605a1b604082015260600190565b602080825260149082015273141c9bde1e4810d85b1b195908125b9d985b1a5960621b604082015260600190565b60208082526017908201527f536166654d6f64653a2043616c6c2052656a6563746564000000000000000000604082015260600190565b858152608060208201526000614a72608083018688614948565b9315156040830152509015156060909101529392505050565b606081526000614a9f606083018688614948565b93151560208301525090151560409091015292915050565b8183823760009101908152919050565b60006020808385031215614ada57600080fd5b82516001600160401b0380821115614af157600080fd5b818501915085601f830112614b0557600080fd5b8151614b1361436b82614754565b81815260059190911b83018401908481019088831115614b3257600080fd5b8585015b83811015614bbd57805185811115614b4e5760008081fd5b86016060818c03601f1901811315614b665760008081fd5b614b6e6142cd565b89830151815260408084015189811115614b885760008081fd5b614b968f8d83880101614777565b838d0152509282015192614ba984614096565b810192909252508352918601918601614b36565b5098975050505050505050565b60006080808301878452602060018060a01b03881681860152604087818701526060848188015283885180865260a08901915060a08160051b8a01019550848a016000805b83811015614c8e578b8903609f19018552825180518a5288810151898b018890528051888c01819052908a019084908d8d01905b80831015614c6d5783516001600160e01b0319168252928c019260019290920191908c0190614c43565b50928a015115159b8a019b909b525098509387019391870191600101614c0f565b50969e9d5050505050505050505050505050565b608081526000614cb660808301888a614948565b8281036020840152614cc9818789614948565b91505083604083015261ffff83166060830152979650505050505050565b60008060408385031215614cfa57600080fd5b82516001600160401b03811115614d1057600080fd5b614d1c858286016148aa565b9250506020830151613f3781614096565b60008060408385031215614d4057600080fd5b8251614d4b81614096565b6020939093015192949293505050565b600060c08284031215614d6d57600080fd5b60405160c081018181106001600160401b0382111715614d8f57614d8f6142b7565b80604052508251815260208301516020820152604083015160408201526060830151614dba8161417e565b60608201526080830151614dcd81614096565b608082015260a0830151614de081614096565b60a08201529392505050565b858152608060208201526000614e06608083018688614948565b6040830194909452509015156060909101529392505050565b600080600060608486031215614e3457600080fd5b83516001600160401b03811115614e4a57600080fd5b614e56868287016148aa565b9350506020840151915060408401516140ef81614096565b60006020808385031215614e8157600080fd5b82516001600160401b03811115614e9757600080fd5b8301601f81018513614ea857600080fd5b8051614eb661436b82614754565b81815260059190911b82018301908381019087831115614ed557600080fd5b928401925b8284101561489f578351614eed8161417e565b82529284019290840190614eda565b8035825260208101356020830152604081013560408301526060810135614f228161417e565b6001600160a01b031660608301526080810135614f3e81614096565b8015156080840152505050565b6000808335601e19843603018112614f6257600080fd5b83016020810192503590506001600160401b03811115614f8157600080fd5b8060051b360382131561408f57600080fd5b8183526000602080850194508260005b85811015614fd2578135614fb681613e8e565b6001600160e01b03191687529582019590820190600101614fa3565b509495945050505050565b60008235605e19833603018112614ff357600080fd5b90910192915050565b6000610120888352602088818501526040828186015261501e8386018a613ff8565b9250606061502e8187018a614efc565b858403610100870152868452828401600588901b85018401896000805b8b8110156150b057888403601f19018552615066838e614fdd565b8035855261507689820182614f4b565b888b8801526150888988018284614f93565b928a0135929150506003821061509c578384fd5b94880152938701939187019160010161504b565b50919f9e505050505050505050505050505050565b600080604083850312156150d857600080fd5b82516150e38161417e565b6020840151909250613f378161417e565b60006101008783526020818185015261510f82850189613ff8565b9150604061511f81860189614efc565b84830360e0860152858352818301600587901b840183018860005b898110156151a657868303601f19018452615155828c614fdd565b60608135855261516788830183614f4b565b828a8801526151798388018284614f93565b9250505086820135915061518c82614096565b90151593860193909352928501929085019060010161513a565b50909c9b505050505050505050505050565b600080604083850312156151cb57600080fd5b825191506020830151613f378161417e565b9283526001600160a01b039190911660208301526001600160e01b031916604082015260600190565b60008282101561522657634e487b7160e01b600052601160045260246000fd5b500390565b634e487b7160e01b600052603260045260246000fd5b60008251615253818460208701613fc8565b919091019291505056fe44656c656761746563616c6c2069735265616c6d55706772616461626c65204661696c6564360894a13ba1a3210667c828492db98dca3e2076cc3735a920a3ca505d382bbca2646970667358221220f20dc4f67703b4a92502a32613b899032138300bd7bdfff0c2e4a23211966fd864736f6c634300080f0033b53127684a568b3173ae13b9f8a6016e243e63b6e8ee1178d6a717850b5d6103",
  "deployedBytecode": "0x6080604052600436106103fa5760003560e01c8063771bcf4511610211578063d338640111610122578063e65be468116100b0578063f5122c9211610077578063f5122c9214610cf2578063f698da2514610d12578063f80f010f14610d27578063f8aa7e3f14610d47578063f94a0adb14610d6757005b8063e65be46814610c52578063e71e224e14610c72578063edf1d1cb14610c92578063f1df49da14610cb2578063f2c673bd14610cd257005b8063dbf304b0116100f4578063dbf304b014610ba5578063dc853dd014610bc5578063df01de4514610be5578063e1ed0a8214610c05578063e25d75f014610c3257005b8063d338640114610b30578063d3e024b814610b50578063d9aba36e14610b65578063d9dc1f1914610b8557005b8063b4a0bdf31161019f578063be22465d11610171578063be22465d14610a89578063be409a1114610aa1578063c48e7ae614610ad0578063c7ab39e614610af0578063c7ea945c14610b1057005b8063b4a0bdf314610a0b578063b4c4b58f14610a29578063b58966de14610a49578063b6c03f0314610a6957005b80638f09e0f0116101e35780638f09e0f01461092257806391690955146109425780639ebf624614610962578063a0a8e460146109d6578063b2dc26e5146109eb57005b8063771bcf45146108ad578063870666cb146108cd5780638b7dbd6c146108e25780638e7038261461090257005b806348e6be1c1161030b5780635ec7870a1161029957806370420ee31161026b57806370420ee3146108165780637147855d146108365780637276ce2914610863578063756af45f1461087857806375d0c0dc1461089857005b80635ec7870a1461079557806360fefdec146107aa5780636b2b7dd8146107c85780636b3b0159146107f657005b806351e70bb0116102dd57806351e70bb0146106f657806352d1902d146107165780635479d9401461072b57806358dbc45d146107485780635c6d8da11461077557005b806348e6be1c146106765780634944f532146106965780634bb1be8c146106b65780634dc13c8f146106d657005b806337bfbfe8116103885780633f4c99b81161035a5780633f4c99b8146105e157806340768140146106015780634346a04b1461061657806344b7e5f21461063657806345b5203c1461065657005b806337bfbfe81461054857806338d38c97146105755780633c7d5b251461059d5780633dfe3aa2146105cc57005b806311b529b3116103cc57806311b529b31461049b5780631846d125146104bb5780632e2adf00146104db5780632f032edd146105085780633228144d1461052857005b806301ffc9a714610403578063031c049314610438578063098b01cf14610458578063101df54d1461047b57005b3661040157005b005b34801561040f57600080fd5b5061042361041e366004613ea4565b610d7c565b60405190151581526020015b60405180910390f35b34801561044457600080fd5b50610423610453366004613ec1565b610e13565b34801561046457600080fd5b5061046d610ee9565b60405190815260200161042f565b34801561048757600080fd5b50610423610496366004613ef9565b610f28565b3480156104a757600080fd5b506104236104b6366004613f12565b610fa7565b3480156104c757600080fd5b506104236104d6366004613ef9565b611027565b3480156104e757600080fd5b506104fb6104f6366004613ef9565b611068565b60405161042f9190613f42565b34801561051457600080fd5b50610423610523366004613ef9565b6110ea565b34801561053457600080fd5b50610423610543366004613ef9565b61112c565b34801561055457600080fd5b50610568610563366004613ef9565b61116e565b60405161042f9190613f90565b34801561058157600080fd5b5061058a6111f1565b60405161ffff909116815260200161042f565b3480156105a957600080fd5b506105bd6105b8366004613ef9565b611205565b60405161042f93929190614024565b3480156105d857600080fd5b5061046d611299565b3480156105ed57600080fd5b5061046d6105fc3660046140a4565b6112c4565b34801561060d57600080fd5b5061046d611396565b34801561062257600080fd5b50610423610631366004613ec1565b6113c2565b34801561064257600080fd5b506104236106513660046140fa565b611483565b34801561066257600080fd5b50610423610671366004613ef9565b61163d565b34801561068257600080fd5b506104236106913660046140fa565b61167f565b3480156106a257600080fd5b506104236106b1366004613ef9565b611848565b3480156106c257600080fd5b5061046d6106d1366004614117565b61188a565b3480156106e257600080fd5b506104236106f1366004613ef9565b611961565b34801561070257600080fd5b50610423610711366004613ef9565b6119a3565b34801561072257600080fd5b5061046d6119e5565b34801561073757600080fd5b50600454610100900460ff16610423565b34801561075457600080fd5b5061075d611a72565b6040516001600160a01b03909116815260200161042f565b34801561078157600080fd5b50610401610790366004614193565b611a7c565b3480156107a157600080fd5b5061046d611e3e565b3480156107b657600080fd5b50604a5462010000900460ff16610423565b3480156107d457600080fd5b506107e86107e3366004613ef9565b611e72565b60405161042f929190614240565b34801561080257600080fd5b50610423610811366004614264565b611f00565b34801561082257600080fd5b50610423610831366004614292565b611f9e565b34801561084257600080fd5b506108566108513660046143a2565b612080565b60405161042f91906143fa565b34801561086f57600080fd5b5061046d6121a8565b34801561088457600080fd5b5061040161089336600461440d565b6121d3565b3480156108a457600080fd5b5060015461046d565b3480156108b957600080fd5b506104236108c8366004613ec1565b61228b565b3480156108d957600080fd5b5061046d61234c565b3480156108ee57600080fd5b506104236108fd366004614292565b612357565b34801561090e57600080fd5b5061042361091d366004613ef9565b6123e6565b34801561092e57600080fd5b5061042361093d36600461442a565b612428565b34801561094e57600080fd5b5061042361095d366004613ef9565b6124b0565b34801561096e57600080fd5b5061098261097d366004613ef9565b6124f2565b60405161042f91908151815260208083015190820152604080830151908201526060808301516001600160a01b03169082015260808083015115159082015260a09182015115159181019190915260c00190565b3480156109e257600080fd5b5060025461046d565b3480156109f757600080fd5b5061046d610a0636600461444f565b61259b565b348015610a1757600080fd5b506000546001600160a01b031661075d565b348015610a3557600080fd5b50610423610a44366004613f12565b612687565b348015610a5557600080fd5b50610423610a64366004613f12565b6126c6565b348015610a7557600080fd5b50610423610a84366004614292565b612796565b348015610a9557600080fd5b5060045460ff16610423565b348015610aad57600080fd5b50610ac1610abc366004613ef9565b612825565b60405161042f939291906144a2565b348015610adc57600080fd5b50610423610aeb366004613ef9565b6128ac565b348015610afc57600080fd5b50610423610b0b3660046144cc565b6128ee565b348015610b1c57600080fd5b50610423610b2b36600461442a565b61294f565b348015610b3c57600080fd5b50610423610b4b366004614503565b6129a0565b348015610b5c57600080fd5b5060035461046d565b348015610b7157600080fd5b50610423610b80366004614503565b612a6f565b348015610b9157600080fd5b50610423610ba036600461440d565b612ab8565b348015610bb157600080fd5b50610423610bc0366004614503565b612c32565b348015610bd157600080fd5b50610423610be0366004613ef9565b612d01565b348015610bf157600080fd5b50610423610c0036600461442a565b612d43565b348015610c1157600080fd5b50610c25610c20366004613ef9565b612dcb565b60405161042f9190614525565b348015610c3e57600080fd5b50610423610c4d366004613ef9565b612e4d565b348015610c5e57600080fd5b5061075d610c6d3660046145c2565b612e8f565b348015610c7e57600080fd5b50610423610c8d366004614292565b612f77565b348015610c9e57600080fd5b50610568610cad366004613ef9565b613049565b348015610cbe57600080fd5b5061046d610ccd366004614648565b61308b565b348015610cde57600080fd5b50610423610ced366004614292565b613180565b348015610cfe57600080fd5b50610423610d0d366004614503565b61320f565b348015610d1e57600080fd5b5061046d613258565b348015610d3357600080fd5b50610423610d4236600461440d565b613262565b348015610d5357600080fd5b50610423610d6236600461440d565b6132ac565b348015610d7357600080fd5b5061075d6132f6565b60006001600160e01b03198216631b44bad360e31b1480610dad57506001600160e01b03198216633b661d8360e21b145b80610dc857506001600160e01b0319821663467e3a6160e01b145b80610de357506001600160e01b03198216637d22131d60e11b145b80610dfe57506001600160e01b031982166370319bff60e11b145b80610e0d5750610e0d82613303565b92915050565b60008073__$122c978fc1a65ab69c7a0ac6b07fd0b0cd$__63518bf96060458787876040518563ffffffff1660e01b8152600401610e5494939291906146bf565b602060405180830381865af4158015610e71573d6000803e3d6000fd5b505050506040513d601f19601f82011682018060405250810190610e9591906146e4565b9050336001600160a01b031683867fce5e1f2ba33f195f748a93b00ee62600b55e27cc50531a72e5443713bac23e128785604051610ed49291906146fd565b60405180910390a460019150505b9392505050565b604051704c4956454c595f41444d494e5f524f4c4560781b60208201526000906031015b60405160208183030381529060405280519060200120905090565b604051637cd7c4ed60e01b8152604560048201526024810182905260009073__$c43b1d7058274a71a9734d16e6b6586431$__90637cd7c4ed906044015b602060405180830381865af4158015610f83573d6000803e3d6000fd5b505050506040513d601f19601f82011682018060405250810190610e0d9190614717565b6040516302a0d2e360e61b815260009073__$c43b1d7058274a71a9734d16e6b6586431$__9063a834b8c090610fe69060459087908790600401614734565b602060405180830381865af4158015611003573d6000803e3d6000fd5b505050506040513d601f19601f82011682018060405250810190610ee29190614717565b60405162fd7cb960e41b8152604560048201526024810182905260009073__$c43b1d7058274a71a9734d16e6b6586431$__90630fd7cb9090604401610f66565b60405163ec77eb2160e01b8152604560048201526024810182905260609073__$122c978fc1a65ab69c7a0ac6b07fd0b0cd$__9063ec77eb2190604401600060405180830381865af41580156110c2573d6000803e3d6000fd5b505050506040513d6000823e601f3d908101601f19168201604052610e0d91908101906147e6565b60405163e24b90a960e01b8152604560048201526024810182905260009073__$c43b1d7058274a71a9734d16e6b6586431$__9063e24b90a990604401610f66565b60405163442b0ca160e01b8152604560048201526024810182905260009073__$c43b1d7058274a71a9734d16e6b6586431$__9063442b0ca190604401610f66565b6040516350f0b31d60e11b8152604560048201526024810182905260609073__$bc3cfbaf1827cbc66e3e608da812a405b7$__9063a1e1663a906044015b600060405180830381865af41580156111c9573d6000803e3d6000fd5b505050506040513d6000823e601f3d908101601f19168201604052610e0d919081019061481a565b6000611200604a5461ffff1690565b905090565b60405163108ca8b760e01b81526045600482015260248101829052606090600090819073__$bc3cfbaf1827cbc66e3e608da812a405b7$__9063108ca8b790604401600060405180830381865af4158015611264573d6000803e3d6000fd5b505050506040513d6000823e601f3d908101601f1916820160405261128c91908101906148ef565b9250925092509193909250565b6040517304c4956454c595f47454e4552414c5f47524f55560641b6020820152600090603401610f0d565b60008073__$6309dd7d2656d358c392b35d5c4e4605f9$__63f728a0f560458787876040518563ffffffff1660e01b81526004016113059493929190614971565b602060405180830381865af4158015611322573d6000803e3d6000fd5b505050506040513d601f19601f8201168201806040525081019061134691906146e4565b9050336001600160a01b0316817fde3bd866160a7f983f3c5f990127712936d37378d60b93ba96ab3a66a04feb188787876040516113869392919061499e565b60405180910390a3949350505050565b604051744c4956454c595f414e4f4e594d4f55535f524f4c4560581b6020820152600090603501610f0d565b60008073__$122c978fc1a65ab69c7a0ac6b07fd0b0cd$__635acd816a60458787876040518563ffffffff1660e01b815260040161140394939291906146bf565b602060405180830381865af4158015611420573d6000803e3d6000fd5b505050506040513d601f19601f8201168201806040525081019061144491906146e4565b9050336001600160a01b031683867f888ebbee43b69c568a7ef10a18f4afb4a0452ed2cfec2dde7a3d37b7e5ef87a38785604051610ed49291906146fd565b60006001600160a01b037f00000000000000000000000000000000000000000000000000000000000000001630036114d65760405162461bcd60e51b81526004016114cd906149c4565b60405180910390fd5b7f00000000000000000000000000000000000000000000000000000000000000006001600160a01b0316611508613353565b6001600160a01b03161461152e5760405162461bcd60e51b81526004016114cd906149f3565b600061153d604a5461ffff1690565b61ffff161161158e5760405162461bcd60e51b815260206004820152601860248201527f436f6e7472616374204e6f7420496e697469616c697a6564000000000000000060448201526064016114cd565b61159e63225bf2f960e11b613374565b6115e25760405162461bcd60e51b815260206004820152601560248201527429b2ba29b0b332a6b7b232902337b93134b23232b760591b60448201526064016114cd565b6004805460ff191683151517905560035430336001600160a01b03167fdd452a31d2e164a1ea436c084842c27d24ae2548a575a869f71b05a4ed16243f85604051611631911515815260200190565b60405180910390a45090565b604051630227e50560e31b8152604560048201526024810182905260009073__$c43b1d7058274a71a9734d16e6b6586431$__9063113f282890604401610f66565b60006001600160a01b037f00000000000000000000000000000000000000000000000000000000000000001630036116c95760405162461bcd60e51b81526004016114cd906149c4565b7f00000000000000000000000000000000000000000000000000000000000000006001600160a01b03166116fb613353565b6001600160a01b0316146117215760405162461bcd60e51b81526004016114cd906149f3565b60045460ff16156117445760405162461bcd60e51b81526004016114cd90614a21565b611754631239af8760e21b613374565b6117a05760405162461bcd60e51b815260206004820152601a60248201527f5365745570677261646553746174757320466f7262696464656e00000000000060448201526064016114cd565b6117a86134b7565b6117f45760405162461bcd60e51b815260206004820152601760248201527f5265616c6d205570677261646520466f7262696464656e00000000000000000060448201526064016114cd565b6004805461ff0019166101008415150217905560035430336001600160a01b03167fe9f97ad94c2ba252dcfc525e004f608ac5cb886955d8fc87d9e0ee070a698c5685604051611631911515815260200190565b604051633346dd2d60e01b8152604560048201526024810182905260009073__$c43b1d7058274a71a9734d16e6b6586431$__90633346dd2d90604401610f66565b60008073__$bc3cfbaf1827cbc66e3e608da812a405b7$__6359186f406045888888886040518663ffffffff1660e01b81526004016118cd959493929190614a58565b602060405180830381865af41580156118ea573d6000803e3d6000fd5b505050506040513d601f19601f8201168201806040525081019061190e91906146e4565b9050336001600160a01b0316817f5a8acbe7e0fa397d934e9aafb8fb1a483627af9e9b4690f4488d740b669f8b47888888886040516119509493929190614a8b565b60405180910390a395945050505050565b60405163017d626960e01b8152604560048201526024810182905260009073__$c43b1d7058274a71a9734d16e6b6586431$__9063017d626990604401610f66565b60405163af07cfcd60e01b8152604560048201526024810182905260009073__$c43b1d7058274a71a9734d16e6b6586431$__9063af07cfcd90604401610f66565b6000306001600160a01b037f00000000000000000000000000000000000000000000000000000000000000001614611a5f5760405162461bcd60e51b815260206004820152601d60248201527f496c6c6567616c20436f6e74726163742044656c656761746563616c6c00000060448201526064016114cd565b5060008051602061528383398151915290565b6000611200613353565b6001600160a01b037f0000000000000000000000000000000000000000000000000000000000000000163003611ac45760405162461bcd60e51b81526004016114cd906149c4565b7f00000000000000000000000000000000000000000000000000000000000000006001600160a01b0316611af6613353565b6001600160a01b031614611b1c5760405162461bcd60e51b81526004016114cd906149f3565b33611b256135f3565b6001600160a01b031614611b735760405162461bcd60e51b815260206004820152601560248201527410d85b1b195c88139bdd08105d5d1a1bdc9a5e9959605a1b60448201526064016114cd565b604a5462010000900460ff1615808015611b955750604a54600161ffff909116105b80611bb05750303b158015611bb05750604a5461ffff166001145b611bfc5760405162461bcd60e51b815260206004820152601c60248201527f436f6e747261637420416c726561647920496e697469616c697a65640000000060448201526064016114cd565b604a805461ffff191660011790558015611c2257604a805462ff00001916620100001790555b60008484604051602001611c37929190614ab7565b60408051808303601f190181529082905280516020909101206308bae38360e31b825260456004830152915073__$c43b1d7058274a71a9734d16e6b6586431$__906345d71c189060240160006040518083038186803b158015611c9a57600080fd5b505af4158015611cae573d6000803e3d6000fd5b50505050611cc089898989858861361b565b600073__$c43b1d7058274a71a9734d16e6b6586431$__6362f3c2d46040518163ffffffff1660e01b8152600401600060405180830381865af4158015611d0b573d6000803e3d6000fd5b505050506040513d6000823e601f3d908101601f19168201604052611d339190810190614ac7565b604051631f5dcce360e31b815290915073__$122c978fc1a65ab69c7a0ac6b07fd0b0cd$__9063faee671890611d7490604590309087908790600401614bca565b602060405180830381865af4158015611d91573d6000803e3d6000fd5b505050506040513d601f19601f82011682018060405250810190611db591906146e4565b50611dbe613353565b6001600160a01b031630336001600160a01b03167ff851a1e85477b818fc72ad517ea622cc316f10f67d61c9e740adc151a8b413948d8d8d8d89611e05604a5461ffff1690565b604051611e1796959493929190614ca2565b60405180910390a450508015611e3457604a805462ff0000191690555b5050505050505050565b6040517f4c4956454c595f53595354454d5f41444d494e5f524f4c4500000000000000006020820152600090603801610f0d565b604051630e8a623f60e31b8152604560048201526024810182905260609060009073__$6309dd7d2656d358c392b35d5c4e4605f9$__9063745311f890604401600060405180830381865af4158015611ecf573d6000803e3d6000fd5b505050506040513d6000823e601f3d908101601f19168201604052611ef79190810190614ce7565b91509150915091565b604051637134bb4560e01b81526045600482015260248101849052604481018390526001600160e01b03198216606482015260009073__$122c978fc1a65ab69c7a0ac6b07fd0b0cd$__90637134bb45906084015b602060405180830381865af4158015611f72573d6000803e3d6000fd5b505050506040513d601f19601f82011682018060405250810190611f969190614717565b949350505050565b604051637cc5941d60e01b8152604560048201526024810183905281151560448201526000908190819073__$122c978fc1a65ab69c7a0ac6b07fd0b0cd$__90637cc5941d906064016040805180830381865af4158015612003573d6000803e3d6000fd5b505050506040513d601f19601f820116820180604052508101906120279190614d2d565b91509150806120333390565b6001600160a01b0316867f354501e3216e5f916d4d35ef255a577d106a7eab306488227783a837dc042a4e87604051612070911515815260200190565b60405180910390a4509392505050565b60606001600160a01b037f00000000000000000000000000000000000000000000000000000000000000001630036120ca5760405162461bcd60e51b81526004016114cd906149c4565b7f00000000000000000000000000000000000000000000000000000000000000006001600160a01b03166120fc613353565b6001600160a01b0316146121225760405162461bcd60e51b81526004016114cd906149f3565b60045460ff16156121455760405162461bcd60e51b81526004016114cd90614a21565b600454610100900460ff166121945760405162461bcd60e51b8152602060048201526015602482015274155c19dc9859194810d85b1b0814995a9958dd1959605a1b60448201526064016114cd565b61219d84613631565b611f968484846136f8565b604051734c4956454c595f47454e4552414c5f5245414c4d60601b6020820152600090603401610f0d565b60045460ff16156121f65760405162461bcd60e51b81526004016114cd90614a21565b61220663756af45f60e01b613374565b6122525760405162461bcd60e51b815260206004820152601a60248201527f57697468647261772042616c616e636520466f7262696464656e00000000000060448201526064016114cd565b6040516001600160a01b038216904780156108fc02916000818181858888f19350505050158015612287573d6000803e3d6000fd5b5050565b60008073__$122c978fc1a65ab69c7a0ac6b07fd0b0cd$__63453dd6dc60458787876040518563ffffffff1660e01b81526004016122cc94939291906146bf565b602060405180830381865af41580156122e9573d6000803e3d6000fd5b505050506040513d601f19601f8201168201806040525081019061230d91906146e4565b9050336001600160a01b031683867fea00ff399a342f54b82233841f91faa5677300e901667e010e9f22aea1ae59318785604051610ed49291906146fd565b600061120030613949565b6000336001600160a01b0316837ffe1617b569bd167ab40b31e034f68e32656219dbe4ab9469a00660550fec72c884604051612397911515815260200190565b60405180910390a3604051630549f02d60e01b81526045600482015260248101849052821515604482015273__$bc3cfbaf1827cbc66e3e608da812a405b7$__90630549f02d90606401610fe6565b6040516310f0750160e01b8152604560048201526024810182905260009073__$c43b1d7058274a71a9734d16e6b6586431$__906310f0750190604401610f66565b60405160009033906001600160a01b0384169085907faa9fcab08d536afd9c656fd3199c346689f381e05539dda255166829ef51dbac908590a46040516389d4da6560e01b815260456004820152602481018490526001600160a01b038316604482015273__$340101a45712d3611711048793ce62ace0$__906389d4da6590606401610fe6565b60405163327c496560e11b8152604560048201526024810182905260009073__$c43b1d7058274a71a9734d16e6b6586431$__906364f892ca90604401610f66565b6040805160c081018252600080825260208201819052818301819052606082018190526080820181905260a0820152905163399d749f60e11b8152604560048201526024810183905273__$122c978fc1a65ab69c7a0ac6b07fd0b0cd$__9063733ae93e9060440160c060405180830381865af4158015612577573d6000803e3d6000fd5b505050506040513d601f19601f82011682018060405250810190610e0d9190614d5b565b60008073__$340101a45712d3611711048793ce62ace0$__633859eb7f6045888888886040518663ffffffff1660e01b81526004016125de959493929190614dec565b602060405180830381865af41580156125fb573d6000803e3d6000fd5b505050506040513d601f19601f8201168201806040525081019061261f91906146e4565b9050336001600160a01b0316868660405161263b929190614ab7565b6040805191829003822087835286151560208401529184917fd9ad0e23c83bfa99fde34354c8342d95c76b51674447ec04aad729d5f38b9b8d910160405180910390a495945050505050565b6040516337b3cdd760e21b815260009073__$c43b1d7058274a71a9734d16e6b6586431$__9063decf375c90610fe69060459087908790600401614734565b60008073__$122c978fc1a65ab69c7a0ac6b07fd0b0cd$__63b0c25575604586866040518463ffffffff1660e01b815260040161270593929190614734565b602060405180830381865af4158015612722573d6000803e3d6000fd5b505050506040513d601f19601f8201168201806040525081019061274691906146e4565b9050336001600160a01b0316847fa6234dfea6da9d63d0505ba9b61ac8405dfd897089208859cda18011c4847d6985846040516127849291906146fd565b60405180910390a35060019392505050565b6000336001600160a01b0316837fe595d6b009cbfd06bfdfc4b7c06799f0e0b08fb2c6f5fa6e28a9aac2495440f9846040516127d6911515815260200190565b60405180910390a3604051637c95bcdf60e01b81526045600482015260248101849052821515604482015273__$6309dd7d2656d358c392b35d5c4e4605f9$__90637c95bcdf90606401610fe6565b604051631f9471ef60e01b81526045600482015260248101829052606090600090819073__$340101a45712d3611711048793ce62ace0$__90631f9471ef90604401600060405180830381865af4158015612884573d6000803e3d6000fd5b505050506040513d6000823e601f3d908101601f1916820160405261128c9190810190614e1f565b604051633bcd353d60e11b8152604560048201526024810182905260009073__$c43b1d7058274a71a9734d16e6b6586431$__9063779a6a7a90604401610f66565b604051630243e34b60e51b815260456004820152602481018490526001600160a01b03831660448201526001600160e01b03198216606482015260009073__$c43b1d7058274a71a9734d16e6b6586431$__9063487c696090608401611f55565b604051630938ae7160e01b815260456004820152602481018390526001600160a01b038216604482015260009073__$340101a45712d3611711048793ce62ace0$__90630938ae7190606401610fe6565b604051631f00af7b60e11b81526045600482015260248101839052604481018290526000908190819073__$122c978fc1a65ab69c7a0ac6b07fd0b0cd$__90633e015ef6906064016040805180830381865af4158015612a04573d6000803e3d6000fd5b505050506040513d601f19601f82011682018060405250810190612a289190614d2d565b9150915083612a343390565b6001600160a01b0316867fa0eaa0025d4f12545803a03c369115c59f885df7b5fc07a6393438827dbf51b78460405161207091815260200190565b604051631e7abee360e21b815260456004820152602481018390526044810182905260009073__$bc3cfbaf1827cbc66e3e608da812a405b7$__906379eafb8c90606401610fe6565b60006001600160a01b037f0000000000000000000000000000000000000000000000000000000000000000163003612b025760405162461bcd60e51b81526004016114cd906149c4565b7f00000000000000000000000000000000000000000000000000000000000000006001600160a01b0316612b34613353565b6001600160a01b031614612b5a5760405162461bcd60e51b81526004016114cd906149f3565b60045460ff1615612b7d5760405162461bcd60e51b81526004016114cd90614a21565b612b8d63d9dc1f1960e01b613374565b612bd95760405162461bcd60e51b815260206004820152601760248201527f5365744c6f63616c41646d696e20466f7262696464656e00000000000000000060448201526064016114cd565b6001600160a01b038216612c215760405162461bcd60e51b815260206004820152600f60248201526e1059191c995cdcc8125b9d985b1a59608a1b60448201526064016114cd565b612c2a82613988565b506001919050565b60405163c3203fd160e01b81526045600482015260248101839052604481018290526000908190819073__$340101a45712d3611711048793ce62ace0$__9063c3203fd1906064016040805180830381865af4158015612c96573d6000803e3d6000fd5b505050506040513d601f19601f82011682018060405250810190612cba9190614d2d565b9150915083612cc63390565b6001600160a01b0316867fddcf3b21fa89076821d7d3f19db39ee5e93f479458e803d78b50b7f24488914f8460405161207091815260200190565b60405163d95140eb60e01b8152604560048201526024810182905260009073__$c43b1d7058274a71a9734d16e6b6586431$__9063d95140eb90604401610f66565b60405160009033906001600160a01b0384169085907ff2640085d94bfec49cdcaf11b663e639b0d981dcedeb19377d92e1ad3592ad23908590a4604051633d58057760e01b815260456004820152602481018490526001600160a01b038316604482015273__$340101a45712d3611711048793ce62ace0$__90633d58057790606401610fe6565b604051633e5c6e9760e11b8152604560048201526024810182905260609073__$340101a45712d3611711048793ce62ace0$__90637cb8dd2e90604401600060405180830381865af4158015612e25573d6000803e3d6000fd5b505050506040513d6000823e601f3d908101601f19168201604052610e0d9190810190614e6e565b6040516333064c8960e11b8152604560048201526024810182905260009073__$c43b1d7058274a71a9734d16e6b6586431$__9063660c991290604401610f66565b600080600073__$122c978fc1a65ab69c7a0ac6b07fd0b0cd$__63099a0c2e60458a8a8a8a8a6040518763ffffffff1660e01b8152600401612ed696959493929190614ffc565b6040805180830381865af4158015612ef2573d6000803e3d6000fd5b505050506040513d601f19601f82011682018060405250810190612f1691906150c5565b91509150806001600160a01b0316826001600160a01b0316897f2acec3419c1d10dab06d0715f556e96b344f2092a52a23fb192b4b89f5b7cf428960400135604051612f6491815260200190565b60405180910390a4509695505050505050565b604051633d2003d360e21b8152604560048201526024810183905281151560448201526000908190819073__$340101a45712d3611711048793ce62ace0$__9063f4800f4c906064016040805180830381865af4158015612fdc573d6000803e3d6000fd5b505050506040513d601f19601f820116820180604052508101906130009190614d2d565b915091508061300c3390565b6001600160a01b0316867f10d5d50ae3b7f264859100e29f6facf8a66f27a34a0ea13c7d333d1bb4cab30587604051612070911515815260200190565b6040516309f7398160e11b8152604560048201526024810182905260609073__$6309dd7d2656d358c392b35d5c4e4605f9$__906313ee7302906044016111ac565b600080600073__$122c978fc1a65ab69c7a0ac6b07fd0b0cd$__6315922efe6045898989896040518663ffffffff1660e01b81526004016130d09594939291906150f4565b6040805180830381865af41580156130ec573d6000803e3d6000fd5b505050506040513d601f19601f8201168201806040525081019061311091906151b8565b90925090506001600160a01b03811661312f608088016060890161440d565b6001600160a01b0316837f11cf8f3561fae187c57df59424ecf5d3f444e138924944c77dcb68144c635731896040013560405161316e91815260200190565b60405180910390a45095945050505050565b6000336001600160a01b0316837f552ce1fc1bc82a48cdc0636ff7162480d868c590f2e57c63c30a944f3a82ec36846040516131c0911515815260200190565b60405180910390a36040516315b18c7560e11b81526045600482015260248101849052821515604482015273__$bc3cfbaf1827cbc66e3e608da812a405b7$__90632b6318ea90606401610fe6565b604051634ba8456360e01b815260456004820152602481018390526044810182905260009073__$6309dd7d2656d358c392b35d5c4e4605f9$__90634ba8456390606401610fe6565b60006112006139ff565b60405163470e456560e01b8152604560048201526001600160a01b038216602482015260009073__$c43b1d7058274a71a9734d16e6b6586431$__9063470e456590604401610f66565b60405163fbe97e1960e01b8152604560048201526001600160a01b038216602482015260009073__$c43b1d7058274a71a9734d16e6b6586431$__9063fbe97e1990604401610f66565b60006112006135f3565b90565b60006001600160e01b0319821663748be05360e01b148061333457506001600160e01b031982166352d1902d60e01b145b80610e0d57506301ffc9a760e01b6001600160e01b0319831614610e0d565b60006000805160206152838339815191525b546001600160a01b0316919050565b600080546001600160a01b031630036134605760006363d59cf360e11b61339a30613949565b33856040516024016133ae939291906151dd565b60408051601f198184030181529190526020810180516001600160e01b03166001600160e01b0319909316929092179091529050600061342b6133ef613353565b836040518060400160405280601d81526020017f44656c656761746563616c6c20686173416363657373204661696c6564000000815250613a52565b9050806001825161343c9190615206565b8151811061344c5761344c61522b565b60209101015160f81c600114949350505050565b6000546001600160a01b031663c7ab39e661347a30613949565b33856040518463ffffffff1660e01b815260040161349a939291906151dd565b602060405180830381865afa158015610f83573d6000803e3d6000fd5b600080546001600160a01b0316300361357d57600063e25d75f060e01b6003546040516024016134e991815260200190565b60408051601f198184030181529190526020810180516001600160e01b03166001600160e01b0319909316929092179091529050600061354961352a613353565b8360405180606001604052806025815260200161525e60259139613a52565b9050806001825161355a9190615206565b8151811061356a5761356a61522b565b60209101015160f81c6001149392505050565b600054600354604051630e25d75f60e41b81526001600160a01b039092169163e25d75f0916135b29160040190815260200190565b602060405180830381865afa1580156135cf573d6000803e3d6000fd5b505050506040513d601f19601f820116820180604052508101906112009190614717565b60007fb53127684a568b3173ae13b9f8a6016e243e63b6e8ee1178d6a717850b5d6103613365565b613629868686868686613b1b565b505050505050565b613639613353565b6001600160a01b0316816001600160a01b0316036136995760405162461bcd60e51b815260206004820152601a60248201527f496c6c6567616c204e657720496d706c656d656e746174696f6e00000000000060448201526064016114cd565b6136a9637147855d60e01b613374565b6136f55760405162461bcd60e51b815260206004820152601960248201527f5570677261646520436f6e7465787420466f7262696464656e0000000000000060448201526064016114cd565b50565b60607f4910fdfa16fed3260ed0e7147f7cc6da11a60208b5b9406d12a635614ffd91435460ff16156137425761372d84613d26565b50604080516000815260208101909152610ee2565b836001600160a01b03166352d1902d6040518163ffffffff1660e01b8152600401602060405180830381865afa92505050801561379c575060408051601f3d908101601f19168201909252613799918101906146e4565b60015b6137e05760405162461bcd60e51b8152602060048201526015602482015274125b1b1959d85b0815555414c810dbdb9d1c9858dd605a1b60448201526064016114cd565b60008051602061528383398151915281146138355760405162461bcd60e51b8152602060048201526015602482015274125b9d985b1a590815555414c810dbdb9d1c9858dd605a1b60448201526064016114cd565b506040516301ffc9a760e01b815263748be05360e01b60048201526001600160a01b038516906301ffc9a790602401602060405180830381865afa92505050801561389d575060408051601f3d908101601f1916820190925261389a91810190614717565b60015b6138e95760405162461bcd60e51b815260206004820152601760248201527f496c6c6567616c204950726f787920436f6e747261637400000000000000000060448201526064016114cd565b806139365760405162461bcd60e51b815260206004820152601760248201527f496e76616c6964204950726f787920436f6e747261637400000000000000000060448201526064016114cd565b50613942848484613da7565b9050610ee2565b6040516bffffffffffffffffffffffff19606083901b166020820152600090603401604051602081830303815290604052805190602001209050919050565b7fb53127684a568b3173ae13b9f8a6016e243e63b6e8ee1178d6a717850b5d610380546001600160a01b0383166001600160a01b031990911681179091556040805191825251309133917f54ab0d18de7958786ba1ad85966d59baa2b395455f0530dcdcfd732e6af539e29181900360200190a350565b600154600254604080517f8b73c3c69bb8fe3d512ecc4cf759cc79239f7b179b0ffacaa9a75d522b39400f60208201529081019290925260608201524660808201523060a082015260009060c001610f0d565b60606001600160a01b0384163b613aa65760405162461bcd60e51b8152602060048201526018602482015277496c6c6567616c20436f6e7472616374204164647265737360401b60448201526064016114cd565b600080856001600160a01b031685604051613ac19190615241565b600060405180830381855af49150503d8060008114613afc576040519150601f19603f3d011682016040523d82523d6000602084013e613b01565b606091505b5091509150613b11828286613e11565b9695505050505050565b604a5462010000900460ff16613b735760405162461bcd60e51b815260206004820152601960248201527f436f6e7472616374204e6f7420496e697469616c697a696e670000000000000060448201526064016114cd565b8585604051602001613b86929190614ab7565b60408051601f19818403018152908290528051602091820120600155613bb0918691869101614ab7565b60408051601f19818403018152919052805160209091012060025560038290556001600160a01b038116613bf557600080546001600160a01b03191630179055613d12565b6040516301ffc9a760e01b8152631b44bad360e31b60048201526001600160a01b038216906301ffc9a790602401602060405180830381865afa925050508015613c5c575060408051601f3d908101601f19168201909252613c5991810190614717565b60015b613ca85760405162461bcd60e51b815260206004820152601c60248201527f496c6c6567616c20416363657373436f6e74726f6c4d616e616765720000000060448201526064016114cd565b80613cf55760405162461bcd60e51b815260206004820152601c60248201527f496e76616c696420416363657373436f6e74726f6c4d616e616765720000000060448201526064016114cd565b50600080546001600160a01b0319166001600160a01b0383161790555b6004805461ffff1916905561362933613988565b6001600160a01b0381163b613d785760405162461bcd60e51b8152602060048201526018602482015277496c6c6567616c20436f6e7472616374204164647265737360401b60448201526064016114cd565b60008051602061528383398151915280546001600160a01b0319166001600160a01b0392909216919091179055565b6060613db284613e4a565b600083511180613dbf5750815b15613dfa5761394284846040518060400160405280601381526020017211195b1959d85d1958d85b1b0811985a5b1959606a1b815250613a52565b505060408051600081526020810190915292915050565b60608315613e20575081610ee2565b825115613e305782518084602001fd5b8160405162461bcd60e51b81526004016114cd91906143fa565b613e5381613d26565b6040516001600160a01b03821690309033907f354bd4b6eb65d64e6c79c53fa4f983a5e6bec4824ce4627c71be0b2722f4917e90600090a450565b6001600160e01b0319811681146136f557600080fd5b600060208284031215613eb657600080fd5b8135610ee281613e8e565b600080600060608486031215613ed657600080fd5b833592506020840135613ee881613e8e565b929592945050506040919091013590565b600060208284031215613f0b57600080fd5b5035919050565b60008060408385031215613f2557600080fd5b823591506020830135613f3781613e8e565b809150509250929050565b6020808252825182820181905260009190848201906040850190845b81811015613f845783516001600160e01b03191683529284019291840191600101613f5e565b50909695505050505050565b6020808252825182820181905260009190848201906040850190845b81811015613f8457835183529284019291840191600101613fac565b60005b83811015613fe3578181015183820152602001613fcb565b83811115613ff2576000848401525b50505050565b60008151808452614010816020860160208601613fc8565b601f01601f19169290920160200192915050565b6060815260006140376060830186613ff8565b931515602083015250901515604090910152919050565b60008083601f84011261406057600080fd5b5081356001600160401b0381111561407757600080fd5b60208301915083602082850101111561408f57600080fd5b9250929050565b80151581146136f557600080fd5b6000806000604084860312156140b957600080fd5b83356001600160401b038111156140cf57600080fd5b6140db8682870161404e565b90945092505060208401356140ef81614096565b809150509250925092565b60006020828403121561410c57600080fd5b8135610ee281614096565b6000806000806060858703121561412d57600080fd5b84356001600160401b0381111561414357600080fd5b61414f8782880161404e565b909550935050602085013561416381614096565b9150604085013561417381614096565b939692955090935050565b6001600160a01b03811681146136f557600080fd5b60008060008060008060006080888a0312156141ae57600080fd5b87356001600160401b03808211156141c557600080fd5b6141d18b838c0161404e565b909950975060208a01359150808211156141ea57600080fd5b6141f68b838c0161404e565b909750955060408a013591508082111561420f57600080fd5b5061421c8a828b0161404e565b90945092505060608801356142308161417e565b8091505092959891949750929550565b6040815260006142536040830185613ff8565b905082151560208301529392505050565b60008060006060848603121561427957600080fd5b833592506020840135915060408401356140ef81613e8e565b600080604083850312156142a557600080fd5b823591506020830135613f3781614096565b634e487b7160e01b600052604160045260246000fd5b604051606081016001600160401b03811182821017156142ef576142ef6142b7565b60405290565b604051601f8201601f191681016001600160401b038111828210171561431d5761431d6142b7565b604052919050565b60006001600160401b0382111561433e5761433e6142b7565b50601f01601f191660200190565b600082601f83011261435d57600080fd5b813561437061436b82614325565b6142f5565b81815284602083860101111561438557600080fd5b816020850160208301376000918101602001919091529392505050565b6000806000606084860312156143b757600080fd5b83356143c28161417e565b925060208401356001600160401b038111156143dd57600080fd5b6143e98682870161434c565b92505060408401356140ef81614096565b602081526000610ee26020830184613ff8565b60006020828403121561441f57600080fd5b8135610ee28161417e565b6000806040838503121561443d57600080fd5b823591506020830135613f378161417e565b6000806000806060858703121561446557600080fd5b84356001600160401b0381111561447b57600080fd5b6144878782880161404e565b90955093505060208501359150604085013561417381614096565b6060815260006144b56060830186613ff8565b602083019490945250901515604090910152919050565b6000806000606084860312156144e157600080fd5b8335925060208401356144f38161417e565b915060408401356140ef81613e8e565b6000806040838503121561451657600080fd5b50508035926020909101359150565b6020808252825182820181905260009190848201906040850190845b81811015613f845783516001600160a01b031683529284019291840191600101614541565b600060a0828403121561457857600080fd5b50919050565b60008083601f84011261459057600080fd5b5081356001600160401b038111156145a757600080fd5b6020830191508360208260051b850101111561408f57600080fd5b600080600080600061010086880312156145db57600080fd5b8535945060208601356001600160401b03808211156145f957600080fd5b61460589838a0161434c565b95506146148960408a01614566565b945060e088013591508082111561462a57600080fd5b506146378882890161457e565b969995985093965092949392505050565b60008060008060e0858703121561465e57600080fd5b84356001600160401b038082111561467557600080fd5b6146818883890161434c565b95506146908860208901614566565b945060c08701359150808211156146a657600080fd5b506146b38782880161457e565b95989497509550505050565b93845260208401929092526001600160e01b0319166040830152606082015260800190565b6000602082840312156146f657600080fd5b5051919050565b6001600160e01b0319929092168252602082015260400190565b60006020828403121561472957600080fd5b8151610ee281614096565b92835260208301919091526001600160e01b031916604082015260600190565b60006001600160401b0382111561476d5761476d6142b7565b5060051b60200190565b600082601f83011261478857600080fd5b8151602061479861436b83614754565b82815260059290921b840181019181810190868411156147b757600080fd5b8286015b848110156147db5780516147ce81613e8e565b83529183019183016147bb565b509695505050505050565b6000602082840312156147f857600080fd5b81516001600160401b0381111561480e57600080fd5b611f9684828501614777565b6000602080838503121561482d57600080fd5b82516001600160401b0381111561484357600080fd5b8301601f8101851361485457600080fd5b805161486261436b82614754565b81815260059190911b8201830190838101908783111561488157600080fd5b928401925b8284101561489f57835182529284019290840190614886565b979650505050505050565b600082601f8301126148bb57600080fd5b81516148c961436b82614325565b8181528460208386010111156148de57600080fd5b611f96826020830160208701613fc8565b60008060006060848603121561490457600080fd5b83516001600160401b0381111561491a57600080fd5b614926868287016148aa565b935050602084015161493781614096565b60408501519092506140ef81614096565b81835281816020850137506000828201602090810191909152601f909101601f19169091010190565b84815260606020820152600061498b606083018587614948565b9050821515604083015295945050505050565b6040815260006149b2604083018587614948565b90508215156020830152949350505050565b602080825260159082015274125b1b1959d85b0810dbdb9d1c9858dd0810d85b1b605a1b604082015260600190565b602080825260149082015273141c9bde1e4810d85b1b195908125b9d985b1a5960621b604082015260600190565b60208082526017908201527f536166654d6f64653a2043616c6c2052656a6563746564000000000000000000604082015260600190565b858152608060208201526000614a72608083018688614948565b9315156040830152509015156060909101529392505050565b606081526000614a9f606083018688614948565b93151560208301525090151560409091015292915050565b8183823760009101908152919050565b60006020808385031215614ada57600080fd5b82516001600160401b0380821115614af157600080fd5b818501915085601f830112614b0557600080fd5b8151614b1361436b82614754565b81815260059190911b83018401908481019088831115614b3257600080fd5b8585015b83811015614bbd57805185811115614b4e5760008081fd5b86016060818c03601f1901811315614b665760008081fd5b614b6e6142cd565b89830151815260408084015189811115614b885760008081fd5b614b968f8d83880101614777565b838d0152509282015192614ba984614096565b810192909252508352918601918601614b36565b5098975050505050505050565b60006080808301878452602060018060a01b03881681860152604087818701526060848188015283885180865260a08901915060a08160051b8a01019550848a016000805b83811015614c8e578b8903609f19018552825180518a5288810151898b018890528051888c01819052908a019084908d8d01905b80831015614c6d5783516001600160e01b0319168252928c019260019290920191908c0190614c43565b50928a015115159b8a019b909b525098509387019391870191600101614c0f565b50969e9d5050505050505050505050505050565b608081526000614cb660808301888a614948565b8281036020840152614cc9818789614948565b91505083604083015261ffff83166060830152979650505050505050565b60008060408385031215614cfa57600080fd5b82516001600160401b03811115614d1057600080fd5b614d1c858286016148aa565b9250506020830151613f3781614096565b60008060408385031215614d4057600080fd5b8251614d4b81614096565b6020939093015192949293505050565b600060c08284031215614d6d57600080fd5b60405160c081018181106001600160401b0382111715614d8f57614d8f6142b7565b80604052508251815260208301516020820152604083015160408201526060830151614dba8161417e565b60608201526080830151614dcd81614096565b608082015260a0830151614de081614096565b60a08201529392505050565b858152608060208201526000614e06608083018688614948565b6040830194909452509015156060909101529392505050565b600080600060608486031215614e3457600080fd5b83516001600160401b03811115614e4a57600080fd5b614e56868287016148aa565b9350506020840151915060408401516140ef81614096565b60006020808385031215614e8157600080fd5b82516001600160401b03811115614e9757600080fd5b8301601f81018513614ea857600080fd5b8051614eb661436b82614754565b81815260059190911b82018301908381019087831115614ed557600080fd5b928401925b8284101561489f578351614eed8161417e565b82529284019290840190614eda565b8035825260208101356020830152604081013560408301526060810135614f228161417e565b6001600160a01b031660608301526080810135614f3e81614096565b8015156080840152505050565b6000808335601e19843603018112614f6257600080fd5b83016020810192503590506001600160401b03811115614f8157600080fd5b8060051b360382131561408f57600080fd5b8183526000602080850194508260005b85811015614fd2578135614fb681613e8e565b6001600160e01b03191687529582019590820190600101614fa3565b509495945050505050565b60008235605e19833603018112614ff357600080fd5b90910192915050565b6000610120888352602088818501526040828186015261501e8386018a613ff8565b9250606061502e8187018a614efc565b858403610100870152868452828401600588901b85018401896000805b8b8110156150b057888403601f19018552615066838e614fdd565b8035855261507689820182614f4b565b888b8801526150888988018284614f93565b928a0135929150506003821061509c578384fd5b94880152938701939187019160010161504b565b50919f9e505050505050505050505050505050565b600080604083850312156150d857600080fd5b82516150e38161417e565b6020840151909250613f378161417e565b60006101008783526020818185015261510f82850189613ff8565b9150604061511f81860189614efc565b84830360e0860152858352818301600587901b840183018860005b898110156151a657868303601f19018452615155828c614fdd565b60608135855261516788830183614f4b565b828a8801526151798388018284614f93565b9250505086820135915061518c82614096565b90151593860193909352928501929085019060010161513a565b50909c9b505050505050505050505050565b600080604083850312156151cb57600080fd5b825191506020830151613f378161417e565b9283526001600160a01b039190911660208301526001600160e01b031916604082015260600190565b60008282101561522657634e487b7160e01b600052601160045260246000fd5b500390565b634e487b7160e01b600052603260045260246000fd5b60008251615253818460208701613fc8565b919091019291505056fe44656c656761746563616c6c2069735265616c6d55706772616461626c65204661696c6564360894a13ba1a3210667c828492db98dca3e2076cc3735a920a3ca505d382bbca2646970667358221220f20dc4f67703b4a92502a32613b899032138300bd7bdfff0c2e4a23211966fd864736f6c634300080f0033",
  "libraries": {
    "LContextManagement": "0xe7f1725E7734CE288F8367e1Bb143E90bb3F0512",
    "LAccessControl": "0x5FbDB2315678afecb367f032d93F642f64180aa3",
    "LRealmManagement": "0xCf7Ed3AccA5a467e9e704C703E8D87F634fB0Fc9",
    "LGroupManagement": "0xDc64a140Aa3E981100a9becA4E685f962f0cF6C9",
    "LRoleManagement": "0x9fE46736679d2D9a65F0992F2272dE9f3c7fa6e0"
  },
  "devdoc": {
    "kind": "dev",
    "methods": {
      "hasAccess(bytes32,address,bytes4)": {
        "details": "Function called by apps to check ACL",
        "returns": {
          "_0": "boolean indicating whether the ACL allows"
        }
      },
      "proxiableUUID()": {
        "details": "Implementation of the ERC1822 {proxiableUUID} function. This returns the storage slot used by the implementation. It is used to validate that the this implementation remains valid after an upgrade. IMPORTANT: A proxy pointing at a proxiable contract should not be considered proxiable itself, because this risks bricking a proxy that upgrades to it, by delegating to itself until out of gas. Thus it is critical that this function revert if invoked through a proxy. This is guaranteed by the `notDelegated` modifier."
      },
      "supportsInterface(bytes4)": {
        "details": "See {IERC165-supportsInterface}."
      }
    },
    "version": 1
  },
  "userdoc": {
    "kind": "user",
    "methods": {},
    "version": 1
  },
  "storageLayout": {
    "storage": [
      {
        "astId": 19057,
        "contract": "src/contracts/acl/AccessControlManager.sol:AccessControlManager",
        "label": "_accessControlManager",
        "offset": 0,
        "slot": "0",
        "type": "t_address"
      },
      {
        "astId": 19059,
        "contract": "src/contracts/acl/AccessControlManager.sol:AccessControlManager",
        "label": "_domainName",
        "offset": 0,
        "slot": "1",
        "type": "t_bytes32"
      },
      {
        "astId": 19061,
        "contract": "src/contracts/acl/AccessControlManager.sol:AccessControlManager",
        "label": "_domainVersion",
        "offset": 0,
        "slot": "2",
        "type": "t_bytes32"
      },
      {
        "astId": 19063,
        "contract": "src/contracts/acl/AccessControlManager.sol:AccessControlManager",
        "label": "_domainRealm",
        "offset": 0,
        "slot": "3",
        "type": "t_bytes32"
      },
      {
        "astId": 19065,
        "contract": "src/contracts/acl/AccessControlManager.sol:AccessControlManager",
        "label": "_isSafeMode",
        "offset": 0,
        "slot": "4",
        "type": "t_bool"
      },
      {
        "astId": 19067,
        "contract": "src/contracts/acl/AccessControlManager.sol:AccessControlManager",
        "label": "_isUpgradable",
        "offset": 1,
        "slot": "4",
        "type": "t_bool"
      },
      {
        "astId": 19072,
        "contract": "src/contracts/acl/AccessControlManager.sol:AccessControlManager",
        "label": "__gap",
        "offset": 0,
        "slot": "5",
        "type": "t_array(t_uint256)64_storage"
      },
      {
        "astId": 9436,
        "contract": "src/contracts/acl/AccessControlManager.sol:AccessControlManager",
        "label": "_dataMaps",
        "offset": 0,
        "slot": "69",
        "type": "t_struct(DataMaps)9393_storage"
      },
      {
        "astId": 19245,
        "contract": "src/contracts/acl/AccessControlManager.sol:AccessControlManager",
        "label": "_initialized",
        "offset": 0,
        "slot": "74",
        "type": "t_uint16"
      },
      {
        "astId": 19248,
        "contract": "src/contracts/acl/AccessControlManager.sol:AccessControlManager",
        "label": "_initializing",
        "offset": 2,
        "slot": "74",
        "type": "t_bool"
      }
    ],
    "types": {
      "t_address": {
        "encoding": "inplace",
        "label": "address",
        "numberOfBytes": "20"
      },
      "t_array(t_bytes32)dyn_storage": {
        "base": "t_bytes32",
        "encoding": "dynamic_array",
        "label": "bytes32[]",
        "numberOfBytes": "32"
      },
      "t_array(t_uint256)64_storage": {
        "base": "t_uint256",
        "encoding": "inplace",
        "label": "uint256[64]",
        "numberOfBytes": "2048"
      },
      "t_bool": {
        "encoding": "inplace",
        "label": "bool",
        "numberOfBytes": "1"
      },
      "t_bytes32": {
        "encoding": "inplace",
        "label": "bytes32",
        "numberOfBytes": "32"
      },
      "t_bytes4": {
        "encoding": "inplace",
        "label": "bytes4",
        "numberOfBytes": "4"
      },
      "t_enum(Status)9316": {
        "encoding": "inplace",
        "label": "enum AccessControlStorage.Status",
        "numberOfBytes": "1"
      },
      "t_mapping(t_address,t_mapping(t_bytes32,t_enum(Status)9316))": {
        "encoding": "mapping",
        "key": "t_address",
        "label": "mapping(address => mapping(bytes32 => enum AccessControlStorage.Status))",
        "numberOfBytes": "32",
        "value": "t_mapping(t_bytes32,t_enum(Status)9316)"
      },
      "t_mapping(t_bytes32,t_enum(Status)9316)": {
        "encoding": "mapping",
        "key": "t_bytes32",
        "label": "mapping(bytes32 => enum AccessControlStorage.Status)",
        "numberOfBytes": "32",
        "value": "t_enum(Status)9316"
      },
      "t_mapping(t_bytes32,t_struct(Context)9337_storage)": {
        "encoding": "mapping",
        "key": "t_bytes32",
        "label": "mapping(bytes32 => struct AccessControlStorage.Context)",
        "numberOfBytes": "32",
        "value": "t_struct(Context)9337_storage"
      },
      "t_mapping(t_bytes32,t_struct(Group)9365_storage)": {
        "encoding": "mapping",
        "key": "t_bytes32",
        "label": "mapping(bytes32 => struct AccessControlStorage.Group)",
        "numberOfBytes": "32",
        "value": "t_struct(Group)9365_storage"
      },
      "t_mapping(t_bytes32,t_struct(Realm)9357_storage)": {
        "encoding": "mapping",
        "key": "t_bytes32",
        "label": "mapping(bytes32 => struct AccessControlStorage.Realm)",
        "numberOfBytes": "32",
        "value": "t_struct(Realm)9357_storage"
      },
      "t_mapping(t_bytes32,t_struct(Role)9347_storage)": {
        "encoding": "mapping",
        "key": "t_bytes32",
        "label": "mapping(bytes32 => struct AccessControlStorage.Role)",
        "numberOfBytes": "32",
        "value": "t_struct(Role)9347_storage"
      },
      "t_mapping(t_bytes32,t_uint256)": {
        "encoding": "mapping",
        "key": "t_bytes32",
        "label": "mapping(bytes32 => uint256)",
        "numberOfBytes": "32",
        "value": "t_uint256"
      },
      "t_mapping(t_bytes4,t_struct(RoleStat)9322_storage)": {
        "encoding": "mapping",
        "key": "t_bytes4",
        "label": "mapping(bytes4 => struct AccessControlStorage.RoleStat)",
        "numberOfBytes": "32",
        "value": "t_struct(RoleStat)9322_storage"
      },
      "t_string_storage": {
        "encoding": "bytes",
        "label": "string",
        "numberOfBytes": "32"
      },
      "t_struct(AddressSet)17307_storage": {
        "encoding": "inplace",
        "label": "struct LEnumerableSet.AddressSet",
        "members": [
          {
            "astId": 17306,
            "contract": "src/contracts/acl/AccessControlManager.sol:AccessControlManager",
            "label": "_inner",
            "offset": 0,
            "slot": "0",
            "type": "t_struct(Set)17006_storage"
          }
        ],
        "numberOfBytes": "64"
      },
      "t_struct(Bytes32Set)17200_storage": {
        "encoding": "inplace",
        "label": "struct LEnumerableSet.Bytes32Set",
        "members": [
          {
            "astId": 17199,
            "contract": "src/contracts/acl/AccessControlManager.sol:AccessControlManager",
            "label": "_inner",
            "offset": 0,
            "slot": "0",
            "type": "t_struct(Set)17006_storage"
          }
        ],
        "numberOfBytes": "64"
      },
      "t_struct(Context)9337_storage": {
        "encoding": "inplace",
        "label": "struct AccessControlStorage.Context",
        "members": [
          {
            "astId": 9324,
            "contract": "src/contracts/acl/AccessControlManager.sol:AccessControlManager",
            "label": "realm",
            "offset": 0,
            "slot": "0",
            "type": "t_bytes32"
          },
          {
            "astId": 9326,
            "contract": "src/contracts/acl/AccessControlManager.sol:AccessControlManager",
            "label": "smca",
            "offset": 0,
            "slot": "1",
            "type": "t_address"
          },
          {
            "astId": 9328,
            "contract": "src/contracts/acl/AccessControlManager.sol:AccessControlManager",
            "label": "isEnabled",
            "offset": 20,
            "slot": "1",
            "type": "t_bool"
          },
          {
            "astId": 9333,
            "contract": "src/contracts/acl/AccessControlManager.sol:AccessControlManager",
            "label": "resources",
            "offset": 0,
            "slot": "2",
            "type": "t_mapping(t_bytes4,t_struct(RoleStat)9322_storage)"
          },
          {
            "astId": 9336,
            "contract": "src/contracts/acl/AccessControlManager.sol:AccessControlManager",
            "label": "funcSet",
            "offset": 0,
            "slot": "3",
            "type": "t_struct(Bytes32Set)17200_storage"
          }
        ],
        "numberOfBytes": "160"
      },
      "t_struct(DataMaps)9393_storage": {
        "encoding": "inplace",
        "label": "struct AccessControlStorage.DataMaps",
        "members": [
          {
            "astId": 9372,
            "contract": "src/contracts/acl/AccessControlManager.sol:AccessControlManager",
            "label": "accountMap",
            "offset": 0,
            "slot": "0",
            "type": "t_mapping(t_address,t_mapping(t_bytes32,t_enum(Status)9316))"
          },
          {
            "astId": 9377,
            "contract": "src/contracts/acl/AccessControlManager.sol:AccessControlManager",
            "label": "ctxMap",
            "offset": 0,
            "slot": "1",
            "type": "t_mapping(t_bytes32,t_struct(Context)9337_storage)"
          },
          {
            "astId": 9382,
            "contract": "src/contracts/acl/AccessControlManager.sol:AccessControlManager",
            "label": "roleMap",
            "offset": 0,
            "slot": "2",
            "type": "t_mapping(t_bytes32,t_struct(Role)9347_storage)"
          },
          {
            "astId": 9387,
            "contract": "src/contracts/acl/AccessControlManager.sol:AccessControlManager",
            "label": "realmMap",
            "offset": 0,
            "slot": "3",
            "type": "t_mapping(t_bytes32,t_struct(Realm)9357_storage)"
          },
          {
            "astId": 9392,
            "contract": "src/contracts/acl/AccessControlManager.sol:AccessControlManager",
            "label": "groupMap",
            "offset": 0,
            "slot": "4",
            "type": "t_mapping(t_bytes32,t_struct(Group)9365_storage)"
          }
        ],
        "numberOfBytes": "160"
      },
      "t_struct(Group)9365_storage": {
        "encoding": "inplace",
        "label": "struct AccessControlStorage.Group",
        "members": [
          {
            "astId": 9359,
            "contract": "src/contracts/acl/AccessControlManager.sol:AccessControlManager",
            "label": "name",
            "offset": 0,
            "slot": "0",
            "type": "t_string_storage"
          },
          {
            "astId": 9361,
            "contract": "src/contracts/acl/AccessControlManager.sol:AccessControlManager",
            "label": "isEnabled",
            "offset": 0,
            "slot": "1",
            "type": "t_bool"
          },
          {
            "astId": 9364,
            "contract": "src/contracts/acl/AccessControlManager.sol:AccessControlManager",
            "label": "roleSet",
            "offset": 0,
            "slot": "2",
            "type": "t_struct(Bytes32Set)17200_storage"
          }
        ],
        "numberOfBytes": "128"
      },
      "t_struct(Realm)9357_storage": {
        "encoding": "inplace",
        "label": "struct AccessControlStorage.Realm",
        "members": [
          {
            "astId": 9349,
            "contract": "src/contracts/acl/AccessControlManager.sol:AccessControlManager",
            "label": "name",
            "offset": 0,
            "slot": "0",
            "type": "t_string_storage"
          },
          {
            "astId": 9351,
            "contract": "src/contracts/acl/AccessControlManager.sol:AccessControlManager",
            "label": "isEnabled",
            "offset": 0,
            "slot": "1",
            "type": "t_bool"
          },
          {
            "astId": 9353,
            "contract": "src/contracts/acl/AccessControlManager.sol:AccessControlManager",
            "label": "isUpgradable",
            "offset": 1,
            "slot": "1",
            "type": "t_bool"
          },
          {
            "astId": 9356,
            "contract": "src/contracts/acl/AccessControlManager.sol:AccessControlManager",
            "label": "ctxSet",
            "offset": 0,
            "slot": "2",
            "type": "t_struct(Bytes32Set)17200_storage"
          }
        ],
        "numberOfBytes": "128"
      },
      "t_struct(Role)9347_storage": {
        "encoding": "inplace",
        "label": "struct AccessControlStorage.Role",
        "members": [
          {
            "astId": 9339,
            "contract": "src/contracts/acl/AccessControlManager.sol:AccessControlManager",
            "label": "name",
            "offset": 0,
            "slot": "0",
            "type": "t_string_storage"
          },
          {
            "astId": 9341,
            "contract": "src/contracts/acl/AccessControlManager.sol:AccessControlManager",
            "label": "group",
            "offset": 0,
            "slot": "1",
            "type": "t_bytes32"
          },
          {
            "astId": 9343,
            "contract": "src/contracts/acl/AccessControlManager.sol:AccessControlManager",
            "label": "isEnabled",
            "offset": 0,
            "slot": "2",
            "type": "t_bool"
          },
          {
            "astId": 9346,
            "contract": "src/contracts/acl/AccessControlManager.sol:AccessControlManager",
            "label": "accountSet",
            "offset": 0,
            "slot": "3",
            "type": "t_struct(AddressSet)17307_storage"
          }
        ],
        "numberOfBytes": "160"
      },
      "t_struct(RoleStat)9322_storage": {
        "encoding": "inplace",
        "label": "struct AccessControlStorage.RoleStat",
        "members": [
          {
            "astId": 9318,
            "contract": "src/contracts/acl/AccessControlManager.sol:AccessControlManager",
            "label": "role",
            "offset": 0,
            "slot": "0",
            "type": "t_bytes32"
          },
          {
            "astId": 9321,
            "contract": "src/contracts/acl/AccessControlManager.sol:AccessControlManager",
            "label": "status",
            "offset": 0,
            "slot": "1",
            "type": "t_enum(Status)9316"
          }
        ],
        "numberOfBytes": "64"
      },
      "t_struct(Set)17006_storage": {
        "encoding": "inplace",
        "label": "struct LEnumerableSet.Set",
        "members": [
          {
            "astId": 17001,
            "contract": "src/contracts/acl/AccessControlManager.sol:AccessControlManager",
            "label": "_values",
            "offset": 0,
            "slot": "0",
            "type": "t_array(t_bytes32)dyn_storage"
          },
          {
            "astId": 17005,
            "contract": "src/contracts/acl/AccessControlManager.sol:AccessControlManager",
            "label": "_indexes",
            "offset": 0,
            "slot": "1",
            "type": "t_mapping(t_bytes32,t_uint256)"
          }
        ],
        "numberOfBytes": "64"
      },
      "t_uint16": {
        "encoding": "inplace",
        "label": "uint16",
        "numberOfBytes": "2"
      },
      "t_uint256": {
        "encoding": "inplace",
        "label": "uint256",
        "numberOfBytes": "32"
      }
    }
  }
}