{
  "address": "0x5FC8d32690cc91D4c39d9d3abcBD16989F875707",
  "abi": [
    {
      "inputs": [],
      "stateMutability": "nonpayable",
      "type": "constructor"
    },
    {
      "anonymous": false,
      "inputs": [
        {
          "indexed": true,
          "internalType": "bytes32",
          "name": "context",
          "type": "bytes32"
        },
        {
          "indexed": true,
          "internalType": "address",
          "name": "sender",
          "type": "address"
        },
        {
          "indexed": false,
          "internalType": "bytes4",
          "name": "functionSelector",
          "type": "bytes4"
        },
        {
          "indexed": false,
          "internalType": "bytes32",
          "name": "realm",
          "type": "bytes32"
        }
      ],
      "name": "ContextFuncRemoved",
      "type": "event"
    },
    {
      "anonymous": false,
      "inputs": [
        {
          "indexed": true,
          "internalType": "bytes32",
          "name": "context",
          "type": "bytes32"
        },
        {
          "indexed": true,
          "internalType": "bytes32",
          "name": "role",
          "type": "bytes32"
        },
        {
          "indexed": true,
          "internalType": "address",
          "name": "sender",
          "type": "address"
        },
        {
          "indexed": false,
          "internalType": "bytes4",
          "name": "functionSelector",
          "type": "bytes4"
        },
        {
          "indexed": false,
          "internalType": "bytes32",
          "name": "realm",
          "type": "bytes32"
        }
      ],
      "name": "ContextFuncRoleAdded",
      "type": "event"
    },
    {
      "anonymous": false,
      "inputs": [
        {
          "indexed": true,
          "internalType": "bytes32",
          "name": "context",
          "type": "bytes32"
        },
        {
          "indexed": true,
          "internalType": "address",
          "name": "sender",
          "type": "address"
        },
        {
          "indexed": true,
          "internalType": "bytes32",
          "name": "realm",
          "type": "bytes32"
        },
        {
          "indexed": false,
          "internalType": "bytes32",
          "name": "oldRealm",
          "type": "bytes32"
        }
      ],
      "name": "ContextRealmChanged",
      "type": "event"
    },
    {
      "anonymous": false,
      "inputs": [
        {
          "indexed": true,
          "internalType": "bytes32",
          "name": "context",
          "type": "bytes32"
        },
        {
          "indexed": true,
          "internalType": "address",
          "name": "scma",
          "type": "address"
        },
        {
          "indexed": true,
          "internalType": "address",
          "name": "sender",
          "type": "address"
        },
        {
          "indexed": false,
          "internalType": "bytes32",
          "name": "realm",
          "type": "bytes32"
        }
      ],
      "name": "ContextRegistered",
      "type": "event"
    },
    {
      "anonymous": false,
      "inputs": [
        {
          "indexed": true,
          "internalType": "bytes32",
          "name": "context",
          "type": "bytes32"
        },
        {
          "indexed": true,
          "internalType": "bytes32",
          "name": "role",
          "type": "bytes32"
        },
        {
          "indexed": true,
          "internalType": "address",
          "name": "sender",
          "type": "address"
        },
        {
          "indexed": false,
          "internalType": "bytes4",
          "name": "functionSelector",
          "type": "bytes4"
        },
        {
          "indexed": false,
          "internalType": "bytes32",
          "name": "realm",
          "type": "bytes32"
        }
      ],
      "name": "ContextRoleGranted",
      "type": "event"
    },
    {
      "anonymous": false,
      "inputs": [
        {
          "indexed": true,
          "internalType": "bytes32",
          "name": "context",
          "type": "bytes32"
        },
        {
          "indexed": true,
          "internalType": "bytes32",
          "name": "role",
          "type": "bytes32"
        },
        {
          "indexed": true,
          "internalType": "address",
          "name": "sender",
          "type": "address"
        },
        {
          "indexed": false,
          "internalType": "bytes4",
          "name": "functionSelector",
          "type": "bytes4"
        },
        {
          "indexed": false,
          "internalType": "bytes32",
          "name": "realm",
          "type": "bytes32"
        }
      ],
      "name": "ContextRoleRevoked",
      "type": "event"
    },
    {
      "anonymous": false,
      "inputs": [
        {
          "indexed": true,
          "internalType": "bytes32",
          "name": "context",
          "type": "bytes32"
        },
        {
          "indexed": true,
          "internalType": "address",
          "name": "sender",
          "type": "address"
        },
        {
          "indexed": true,
          "internalType": "bytes32",
          "name": "realm",
          "type": "bytes32"
        },
        {
          "indexed": false,
          "internalType": "bool",
          "name": "status",
          "type": "bool"
        }
      ],
      "name": "ContextStatusChanged",
      "type": "event"
    },
    {
      "anonymous": false,
      "inputs": [
        {
          "indexed": true,
          "internalType": "bytes32",
          "name": "context",
          "type": "bytes32"
        },
        {
          "indexed": true,
          "internalType": "address",
          "name": "scma",
          "type": "address"
        },
        {
          "indexed": true,
          "internalType": "address",
          "name": "sender",
          "type": "address"
        },
        {
          "indexed": false,
          "internalType": "bytes32",
          "name": "realm",
          "type": "bytes32"
        }
      ],
      "name": "ContextUpdated",
      "type": "event"
    },
    {
      "anonymous": false,
      "inputs": [
        {
          "indexed": true,
          "internalType": "bytes32",
          "name": "group",
          "type": "bytes32"
        },
        {
          "indexed": true,
          "internalType": "address",
          "name": "sender",
          "type": "address"
        },
        {
          "indexed": false,
          "internalType": "string",
          "name": "name",
          "type": "string"
        },
        {
          "indexed": false,
          "internalType": "bool",
          "name": "status",
          "type": "bool"
        }
      ],
      "name": "GroupRegistered",
      "type": "event"
    },
    {
      "anonymous": false,
      "inputs": [
        {
          "indexed": true,
          "internalType": "bytes32",
          "name": "group",
          "type": "bytes32"
        },
        {
          "indexed": true,
          "internalType": "address",
          "name": "sender",
          "type": "address"
        },
        {
          "indexed": false,
          "internalType": "bool",
          "name": "status",
          "type": "bool"
        }
      ],
      "name": "GroupStatusChanged",
      "type": "event"
    },
    {
      "anonymous": false,
      "inputs": [
        {
          "indexed": true,
          "internalType": "address",
          "name": "sender",
          "type": "address"
        },
        {
          "indexed": true,
          "internalType": "address",
          "name": "proxy",
          "type": "address"
        },
        {
          "indexed": true,
          "internalType": "address",
          "name": "subject",
          "type": "address"
        },
        {
          "indexed": false,
          "internalType": "string",
          "name": "name",
          "type": "string"
        },
        {
          "indexed": false,
          "internalType": "string",
          "name": "version",
          "type": "string"
        },
        {
          "indexed": false,
          "internalType": "bytes32",
          "name": "realm",
          "type": "bytes32"
        },
        {
          "indexed": false,
          "internalType": "uint16",
          "name": "initCount",
          "type": "uint16"
        }
      ],
      "name": "Initialized",
      "type": "event"
    },
    {
      "anonymous": false,
      "inputs": [
        {
          "indexed": true,
          "internalType": "address",
          "name": "sender",
          "type": "address"
        },
        {
          "indexed": true,
          "internalType": "address",
          "name": "proxy",
          "type": "address"
        },
        {
          "indexed": false,
          "internalType": "address",
          "name": "newAdmin",
          "type": "address"
        }
      ],
      "name": "LocalAdminChanged",
      "type": "event"
    },
    {
      "anonymous": false,
      "inputs": [
        {
          "indexed": true,
          "internalType": "bytes32",
          "name": "realm",
          "type": "bytes32"
        },
        {
          "indexed": true,
          "internalType": "address",
          "name": "sender",
          "type": "address"
        },
        {
          "indexed": false,
          "internalType": "string",
          "name": "name",
          "type": "string"
        },
        {
          "indexed": false,
          "internalType": "bool",
          "name": "status",
          "type": "bool"
        },
        {
          "indexed": false,
          "internalType": "bool",
          "name": "isUpgradable",
          "type": "bool"
        }
      ],
      "name": "RealmRegistered",
      "type": "event"
    },
    {
      "anonymous": false,
      "inputs": [
        {
          "indexed": true,
          "internalType": "bytes32",
          "name": "realm",
          "type": "bytes32"
        },
        {
          "indexed": true,
          "internalType": "address",
          "name": "sender",
          "type": "address"
        },
        {
          "indexed": false,
          "internalType": "bool",
          "name": "status",
          "type": "bool"
        }
      ],
      "name": "RealmStatusChanged",
      "type": "event"
    },
    {
      "anonymous": false,
      "inputs": [
        {
          "indexed": true,
          "internalType": "bytes32",
          "name": "realm",
          "type": "bytes32"
        },
        {
          "indexed": true,
          "internalType": "address",
          "name": "sender",
          "type": "address"
        },
        {
          "indexed": false,
          "internalType": "bool",
          "name": "status",
          "type": "bool"
        }
      ],
      "name": "RealmUpgradeStatusChanged",
      "type": "event"
    },
    {
      "anonymous": false,
      "inputs": [
        {
          "indexed": true,
          "internalType": "address",
          "name": "sender",
          "type": "address"
        },
        {
          "indexed": true,
          "internalType": "bytes32",
          "name": "role",
          "type": "bytes32"
        },
        {
          "indexed": true,
          "internalType": "address",
          "name": "account",
          "type": "address"
        }
      ],
      "name": "RoleAccountGranted",
      "type": "event"
    },
    {
      "anonymous": false,
      "inputs": [
        {
          "indexed": true,
          "internalType": "address",
          "name": "sender",
          "type": "address"
        },
        {
          "indexed": true,
          "internalType": "bytes32",
          "name": "role",
          "type": "bytes32"
        },
        {
          "indexed": true,
          "internalType": "address",
          "name": "account",
          "type": "address"
        }
      ],
      "name": "RoleAccountRevoked",
      "type": "event"
    },
    {
      "anonymous": false,
      "inputs": [
        {
          "indexed": true,
          "internalType": "address",
          "name": "sender",
          "type": "address"
        },
        {
          "indexed": true,
          "internalType": "bytes32",
          "name": "role",
          "type": "bytes32"
        },
        {
          "indexed": true,
          "internalType": "bytes32",
          "name": "newGroup",
          "type": "bytes32"
        },
        {
          "indexed": false,
          "internalType": "bytes32",
          "name": "oldGroup",
          "type": "bytes32"
        }
      ],
      "name": "RoleGroupChanged",
      "type": "event"
    },
    {
      "anonymous": false,
      "inputs": [
        {
          "indexed": true,
          "internalType": "address",
          "name": "sender",
          "type": "address"
        },
        {
          "indexed": true,
          "internalType": "bytes32",
          "name": "role",
          "type": "bytes32"
        },
        {
          "indexed": true,
          "internalType": "string",
          "name": "name",
          "type": "string"
        },
        {
          "indexed": false,
          "internalType": "bytes32",
          "name": "group",
          "type": "bytes32"
        },
        {
          "indexed": false,
          "internalType": "bool",
          "name": "isEnabled",
          "type": "bool"
        }
      ],
      "name": "RoleRegistered",
      "type": "event"
    },
    {
      "anonymous": false,
      "inputs": [
        {
          "indexed": true,
          "internalType": "address",
          "name": "sender",
          "type": "address"
        },
        {
          "indexed": true,
          "internalType": "bytes32",
          "name": "role",
          "type": "bytes32"
        },
        {
          "indexed": true,
          "internalType": "bytes32",
          "name": "group",
          "type": "bytes32"
        },
        {
          "indexed": false,
          "internalType": "bool",
          "name": "status",
          "type": "bool"
        }
      ],
      "name": "RoleStatusChanged",
      "type": "event"
    },
    {
      "anonymous": false,
      "inputs": [
        {
          "indexed": true,
          "internalType": "address",
          "name": "sender",
          "type": "address"
        },
        {
          "indexed": true,
          "internalType": "address",
          "name": "proxy",
          "type": "address"
        },
        {
          "indexed": true,
          "internalType": "bytes32",
          "name": "realm",
          "type": "bytes32"
        },
        {
          "indexed": false,
          "internalType": "bool",
          "name": "status",
          "type": "bool"
        }
      ],
      "name": "SafeModeChanged",
      "type": "event"
    },
    {
      "anonymous": false,
      "inputs": [
        {
          "indexed": true,
          "internalType": "address",
          "name": "sender",
          "type": "address"
        },
        {
          "indexed": true,
          "internalType": "address",
          "name": "proxy",
          "type": "address"
        },
        {
          "indexed": true,
          "internalType": "bytes32",
          "name": "realm",
          "type": "bytes32"
        },
        {
          "indexed": false,
          "internalType": "bool",
          "name": "status",
          "type": "bool"
        }
      ],
      "name": "UpgradeStatusChanged",
      "type": "event"
    },
    {
      "anonymous": false,
      "inputs": [
        {
          "indexed": true,
          "internalType": "address",
          "name": "sender",
          "type": "address"
        },
        {
          "indexed": true,
          "internalType": "address",
          "name": "proxy",
          "type": "address"
        },
        {
          "indexed": true,
          "internalType": "address",
          "name": "newImplementation",
          "type": "address"
        }
      ],
      "name": "Upgraded",
      "type": "event"
    },
    {
      "stateMutability": "payable",
      "type": "fallback"
    },
    {
      "inputs": [],
      "name": "accessControlManager",
      "outputs": [
        {
          "internalType": "address",
          "name": "",
          "type": "address"
        }
      ],
      "stateMutability": "view",
      "type": "function"
    },
    {
      "inputs": [
        {
          "internalType": "bytes32",
          "name": "ctx",
          "type": "bytes32"
        },
        {
          "internalType": "bytes4",
          "name": "functionSelector",
          "type": "bytes4"
        },
        {
          "internalType": "bytes32",
          "name": "role",
          "type": "bytes32"
        }
      ],
      "name": "addContextFuncRole",
      "outputs": [
        {
          "internalType": "bool",
          "name": "",
          "type": "bool"
        }
      ],
      "stateMutability": "nonpayable",
      "type": "function"
    },
    {
      "inputs": [],
      "name": "contractContext",
      "outputs": [
        {
          "internalType": "bytes32",
          "name": "",
          "type": "bytes32"
        }
      ],
      "stateMutability": "view",
      "type": "function"
    },
    {
      "inputs": [],
      "name": "contractName",
      "outputs": [
        {
          "internalType": "bytes32",
          "name": "",
          "type": "bytes32"
        }
      ],
      "stateMutability": "view",
      "type": "function"
    },
    {
      "inputs": [],
      "name": "contractRealm",
      "outputs": [
        {
          "internalType": "bytes32",
          "name": "",
          "type": "bytes32"
        }
      ],
      "stateMutability": "view",
      "type": "function"
    },
    {
      "inputs": [],
      "name": "contractVersion",
      "outputs": [
        {
          "internalType": "bytes32",
          "name": "",
          "type": "bytes32"
        }
      ],
      "stateMutability": "view",
      "type": "function"
    },
    {
      "inputs": [],
      "name": "domainSeparator",
      "outputs": [
        {
          "internalType": "bytes32",
          "name": "",
          "type": "bytes32"
        }
      ],
      "stateMutability": "view",
      "type": "function"
    },
    {
      "inputs": [
        {
          "internalType": "bytes32",
          "name": "ctx",
          "type": "bytes32"
        }
      ],
      "name": "getContextFuncs",
      "outputs": [
        {
          "internalType": "bytes4[]",
          "name": "",
          "type": "bytes4[]"
        }
      ],
      "stateMutability": "view",
      "type": "function"
    },
    {
      "inputs": [
        {
          "internalType": "bytes32",
          "name": "ctx",
          "type": "bytes32"
        }
      ],
      "name": "getContextInfo",
      "outputs": [
        {
          "components": [
            {
              "internalType": "bytes32",
              "name": "name",
              "type": "bytes32"
            },
            {
              "internalType": "bytes32",
              "name": "version",
              "type": "bytes32"
            },
            {
              "internalType": "bytes32",
              "name": "realm",
              "type": "bytes32"
            },
            {
              "internalType": "address",
              "name": "smca",
              "type": "address"
            },
            {
              "internalType": "bool",
              "name": "isSafeMode",
              "type": "bool"
            },
            {
              "internalType": "bool",
              "name": "isUpgradable",
              "type": "bool"
            }
          ],
          "internalType": "struct IContextManagement.ResponseContext",
          "name": "",
          "type": "tuple"
        }
      ],
      "stateMutability": "view",
      "type": "function"
    },
    {
      "inputs": [
        {
          "internalType": "bytes32",
          "name": "group",
          "type": "bytes32"
        }
      ],
      "name": "getGroupInfo",
      "outputs": [
        {
          "internalType": "string",
          "name": "",
          "type": "string"
        },
        {
          "internalType": "bool",
          "name": "",
          "type": "bool"
        }
      ],
      "stateMutability": "view",
      "type": "function"
    },
    {
      "inputs": [
        {
          "internalType": "bytes32",
          "name": "group",
          "type": "bytes32"
        }
      ],
      "name": "getGroupRoles",
      "outputs": [
        {
          "internalType": "bytes32[]",
          "name": "",
          "type": "bytes32[]"
        }
      ],
      "stateMutability": "view",
      "type": "function"
    },
    {
      "inputs": [
        {
          "internalType": "bytes32",
          "name": "realm",
          "type": "bytes32"
        }
      ],
      "name": "getRealmContexts",
      "outputs": [
        {
          "internalType": "bytes32[]",
          "name": "",
          "type": "bytes32[]"
        }
      ],
      "stateMutability": "view",
      "type": "function"
    },
    {
      "inputs": [
        {
          "internalType": "bytes32",
          "name": "realm",
          "type": "bytes32"
        }
      ],
      "name": "getRealmInfo",
      "outputs": [
        {
          "internalType": "string",
          "name": "",
          "type": "string"
        },
        {
          "internalType": "bool",
          "name": "",
          "type": "bool"
        },
        {
          "internalType": "bool",
          "name": "",
          "type": "bool"
        }
      ],
      "stateMutability": "view",
      "type": "function"
    },
    {
      "inputs": [
        {
          "internalType": "bytes32",
          "name": "role",
          "type": "bytes32"
        }
      ],
      "name": "getRoleAccounts",
      "outputs": [
        {
          "internalType": "address[]",
          "name": "",
          "type": "address[]"
        }
      ],
      "stateMutability": "view",
      "type": "function"
    },
    {
      "inputs": [
        {
          "internalType": "bytes32",
          "name": "role",
          "type": "bytes32"
        }
      ],
      "name": "getRoleInfo",
      "outputs": [
        {
          "internalType": "string",
          "name": "",
          "type": "string"
        },
        {
          "internalType": "bytes32",
          "name": "",
          "type": "bytes32"
        },
        {
          "internalType": "bool",
          "name": "",
          "type": "bool"
        }
      ],
      "stateMutability": "view",
      "type": "function"
    },
    {
      "inputs": [
        {
          "internalType": "bytes32",
          "name": "ctx",
          "type": "bytes32"
        },
        {
          "internalType": "bytes4",
          "name": "functionSelector",
          "type": "bytes4"
        },
        {
          "internalType": "bytes32",
          "name": "role",
          "type": "bytes32"
        }
      ],
      "name": "grantContextRole",
      "outputs": [
        {
          "internalType": "bool",
          "name": "",
          "type": "bool"
        }
      ],
      "stateMutability": "nonpayable",
      "type": "function"
    },
    {
      "inputs": [
        {
          "internalType": "bytes32",
          "name": "role",
          "type": "bytes32"
        },
        {
          "internalType": "address",
          "name": "account",
          "type": "address"
        }
      ],
      "name": "grantRoleAccount",
      "outputs": [
        {
          "internalType": "bool",
          "name": "",
          "type": "bool"
        }
      ],
      "stateMutability": "nonpayable",
      "type": "function"
    },
    {
      "inputs": [
        {
          "internalType": "bytes32",
          "name": "context",
          "type": "bytes32"
        },
        {
          "internalType": "address",
          "name": "account",
          "type": "address"
        },
        {
          "internalType": "bytes4",
          "name": "signature",
          "type": "bytes4"
        }
      ],
      "name": "hasAccess",
      "outputs": [
        {
          "internalType": "bool",
          "name": "",
          "type": "bool"
        }
      ],
      "stateMutability": "view",
      "type": "function"
    },
    {
      "inputs": [
        {
          "internalType": "bytes32",
          "name": "ctx",
          "type": "bytes32"
        },
        {
          "internalType": "bytes32",
          "name": "role",
          "type": "bytes32"
        },
        {
          "internalType": "bytes4",
          "name": "functionSelector",
          "type": "bytes4"
        }
      ],
      "name": "hasContextRole",
      "outputs": [
        {
          "internalType": "bool",
          "name": "",
          "type": "bool"
        }
      ],
      "stateMutability": "view",
      "type": "function"
    },
    {
      "inputs": [
        {
          "internalType": "bytes32",
          "name": "group",
          "type": "bytes32"
        },
        {
          "internalType": "bytes32",
          "name": "role",
          "type": "bytes32"
        }
      ],
      "name": "hasGroupRole",
      "outputs": [
        {
          "internalType": "bool",
          "name": "",
          "type": "bool"
        }
      ],
      "stateMutability": "view",
      "type": "function"
    },
    {
      "inputs": [
        {
          "internalType": "bytes32",
          "name": "realm",
          "type": "bytes32"
        },
        {
          "internalType": "bytes32",
          "name": "context",
          "type": "bytes32"
        }
      ],
      "name": "hasRealmContext",
      "outputs": [
        {
          "internalType": "bool",
          "name": "",
          "type": "bool"
        }
      ],
      "stateMutability": "view",
      "type": "function"
    },
    {
      "inputs": [
        {
          "internalType": "bytes32",
          "name": "role",
          "type": "bytes32"
        },
        {
          "internalType": "address",
          "name": "account",
          "type": "address"
        }
      ],
      "name": "hasRoleAccount",
      "outputs": [
        {
          "internalType": "bool",
          "name": "",
          "type": "bool"
        }
      ],
      "stateMutability": "view",
      "type": "function"
    },
    {
      "inputs": [],
      "name": "initStatus",
      "outputs": [
        {
          "internalType": "bool",
          "name": "",
          "type": "bool"
        }
      ],
      "stateMutability": "view",
      "type": "function"
    },
    {
      "inputs": [],
      "name": "initVersion",
      "outputs": [
        {
          "internalType": "uint16",
          "name": "",
          "type": "uint16"
        }
      ],
      "stateMutability": "view",
      "type": "function"
    },
    {
      "inputs": [
        {
          "internalType": "string",
          "name": "domainName",
          "type": "string"
        },
        {
          "internalType": "string",
          "name": "domainVersion",
          "type": "string"
        },
        {
          "internalType": "string",
          "name": "domainRealm",
          "type": "string"
        },
        {
          "internalType": "address",
          "name": "accessControlManager",
          "type": "address"
        }
      ],
      "name": "initialize",
      "outputs": [],
      "stateMutability": "nonpayable",
      "type": "function"
    },
    {
      "inputs": [
        {
          "internalType": "bytes32",
          "name": "context",
          "type": "bytes32"
        }
      ],
      "name": "isContextEnabled",
      "outputs": [
        {
          "internalType": "bool",
          "name": "",
          "type": "bool"
        }
      ],
      "stateMutability": "view",
      "type": "function"
    },
    {
      "inputs": [
        {
          "internalType": "bytes32",
          "name": "context",
          "type": "bytes32"
        }
      ],
      "name": "isContextExists",
      "outputs": [
        {
          "internalType": "bool",
          "name": "",
          "type": "bool"
        }
      ],
      "stateMutability": "view",
      "type": "function"
    },
    {
      "inputs": [
        {
          "internalType": "bytes32",
          "name": "context",
          "type": "bytes32"
        },
        {
          "internalType": "bytes4",
          "name": "functionSelector",
          "type": "bytes4"
        }
      ],
      "name": "isContextFunctionEnabled",
      "outputs": [
        {
          "internalType": "bool",
          "name": "",
          "type": "bool"
        }
      ],
      "stateMutability": "view",
      "type": "function"
    },
    {
      "inputs": [
        {
          "internalType": "bytes32",
          "name": "context",
          "type": "bytes32"
        },
        {
          "internalType": "bytes4",
          "name": "functionSelector",
          "type": "bytes4"
        }
      ],
      "name": "isContextFunctionExists",
      "outputs": [
        {
          "internalType": "bool",
          "name": "",
          "type": "bool"
        }
      ],
      "stateMutability": "view",
      "type": "function"
    },
    {
      "inputs": [
        {
          "internalType": "bytes32",
          "name": "context",
          "type": "bytes32"
        }
      ],
      "name": "isContextSafeMode",
      "outputs": [
        {
          "internalType": "bool",
          "name": "",
          "type": "bool"
        }
      ],
      "stateMutability": "view",
      "type": "function"
    },
    {
      "inputs": [
        {
          "internalType": "bytes32",
          "name": "context",
          "type": "bytes32"
        }
      ],
      "name": "isContextUpgradable",
      "outputs": [
        {
          "internalType": "bool",
          "name": "",
          "type": "bool"
        }
      ],
      "stateMutability": "view",
      "type": "function"
    },
    {
      "inputs": [
        {
          "internalType": "bytes32",
          "name": "group",
          "type": "bytes32"
        }
      ],
      "name": "isGroupEnabled",
      "outputs": [
        {
          "internalType": "bool",
          "name": "",
          "type": "bool"
        }
      ],
      "stateMutability": "view",
      "type": "function"
    },
    {
      "inputs": [
        {
          "internalType": "bytes32",
          "name": "group",
          "type": "bytes32"
        }
      ],
      "name": "isGroupExists",
      "outputs": [
        {
          "internalType": "bool",
          "name": "",
          "type": "bool"
        }
      ],
      "stateMutability": "view",
      "type": "function"
    },
    {
      "inputs": [
        {
          "internalType": "address",
          "name": "account",
          "type": "address"
        }
      ],
      "name": "isLivelyAdmin",
      "outputs": [
        {
          "internalType": "bool",
          "name": "",
          "type": "bool"
        }
      ],
      "stateMutability": "view",
      "type": "function"
    },
    {
      "inputs": [
        {
          "internalType": "address",
          "name": "account",
          "type": "address"
        }
      ],
      "name": "isLivelyAssetManager",
      "outputs": [
        {
          "internalType": "bool",
          "name": "",
          "type": "bool"
        }
      ],
      "stateMutability": "view",
      "type": "function"
    },
    {
      "inputs": [
        {
          "internalType": "address",
          "name": "account",
          "type": "address"
        }
      ],
      "name": "isLivelyDao",
      "outputs": [
        {
          "internalType": "bool",
          "name": "",
          "type": "bool"
        }
      ],
      "stateMutability": "view",
      "type": "function"
    },
    {
      "inputs": [
        {
          "internalType": "address",
          "name": "account",
          "type": "address"
        }
      ],
      "name": "isLivelyDaoExecutor",
      "outputs": [
        {
          "internalType": "bool",
          "name": "",
          "type": "bool"
        }
      ],
      "stateMutability": "view",
      "type": "function"
    },
    {
      "inputs": [
        {
          "internalType": "bytes32",
          "name": "role",
          "type": "bytes32"
        }
      ],
      "name": "isLivelyGeneralGroup",
      "outputs": [
        {
          "internalType": "bool",
          "name": "",
          "type": "bool"
        }
      ],
      "stateMutability": "view",
      "type": "function"
    },
    {
      "inputs": [
        {
          "internalType": "bytes32",
          "name": "context",
          "type": "bytes32"
        }
      ],
      "name": "isLivelyGeneralRealm",
      "outputs": [
        {
          "internalType": "bool",
          "name": "",
          "type": "bool"
        }
      ],
      "stateMutability": "view",
      "type": "function"
    },
    {
      "inputs": [
        {
          "internalType": "address",
          "name": "account",
          "type": "address"
        }
      ],
      "name": "isLivelySystemAdmin",
      "outputs": [
        {
          "internalType": "bool",
          "name": "",
          "type": "bool"
        }
      ],
      "stateMutability": "view",
      "type": "function"
    },
    {
      "inputs": [
        {
          "internalType": "bytes32",
          "name": "realm",
          "type": "bytes32"
        }
      ],
      "name": "isRealmEnabled",
      "outputs": [
        {
          "internalType": "bool",
          "name": "",
          "type": "bool"
        }
      ],
      "stateMutability": "view",
      "type": "function"
    },
    {
      "inputs": [
        {
          "internalType": "bytes32",
          "name": "realm",
          "type": "bytes32"
        }
      ],
      "name": "isRealmExists",
      "outputs": [
        {
          "internalType": "bool",
          "name": "",
          "type": "bool"
        }
      ],
      "stateMutability": "view",
      "type": "function"
    },
    {
      "inputs": [
        {
          "internalType": "bytes32",
          "name": "realm",
          "type": "bytes32"
        }
      ],
      "name": "isRealmUpgradable",
      "outputs": [
        {
          "internalType": "bool",
          "name": "",
          "type": "bool"
        }
      ],
      "stateMutability": "view",
      "type": "function"
    },
    {
      "inputs": [
        {
          "internalType": "bytes32",
          "name": "role",
          "type": "bytes32"
        }
      ],
      "name": "isRoleEnabled",
      "outputs": [
        {
          "internalType": "bool",
          "name": "",
          "type": "bool"
        }
      ],
      "stateMutability": "view",
      "type": "function"
    },
    {
      "inputs": [
        {
          "internalType": "bytes32",
          "name": "role",
          "type": "bytes32"
        }
      ],
      "name": "isRoleExists",
      "outputs": [
        {
          "internalType": "bool",
          "name": "",
          "type": "bool"
        }
      ],
      "stateMutability": "view",
      "type": "function"
    },
    {
      "inputs": [],
      "name": "isSafeMode",
      "outputs": [
        {
          "internalType": "bool",
          "name": "",
          "type": "bool"
        }
      ],
      "stateMutability": "view",
      "type": "function"
    },
    {
      "inputs": [],
      "name": "isUpgradable",
      "outputs": [
        {
          "internalType": "bool",
          "name": "",
          "type": "bool"
        }
      ],
      "stateMutability": "view",
      "type": "function"
    },
    {
      "inputs": [],
      "name": "livelyAdminRole",
      "outputs": [
        {
          "internalType": "bytes32",
          "name": "",
          "type": "bytes32"
        }
      ],
      "stateMutability": "pure",
      "type": "function"
    },
    {
      "inputs": [],
      "name": "livelyAnonymousRole",
      "outputs": [
        {
          "internalType": "bytes32",
          "name": "",
          "type": "bytes32"
        }
      ],
      "stateMutability": "pure",
      "type": "function"
    },
    {
      "inputs": [],
      "name": "livelyAssetManagerRole",
      "outputs": [
        {
          "internalType": "bytes32",
          "name": "",
          "type": "bytes32"
        }
      ],
      "stateMutability": "pure",
      "type": "function"
    },
    {
      "inputs": [],
      "name": "livelyDaoExecutorRole",
      "outputs": [
        {
          "internalType": "bytes32",
          "name": "",
          "type": "bytes32"
        }
      ],
      "stateMutability": "pure",
      "type": "function"
    },
    {
      "inputs": [],
      "name": "livelyDaoRole",
      "outputs": [
        {
          "internalType": "bytes32",
          "name": "",
          "type": "bytes32"
        }
      ],
      "stateMutability": "pure",
      "type": "function"
    },
    {
      "inputs": [],
      "name": "livelyGeneralGroupRole",
      "outputs": [
        {
          "internalType": "bytes32",
          "name": "",
          "type": "bytes32"
        }
      ],
      "stateMutability": "pure",
      "type": "function"
    },
    {
      "inputs": [],
      "name": "livelyGeneralRealmRole",
      "outputs": [
        {
          "internalType": "bytes32",
          "name": "",
          "type": "bytes32"
        }
      ],
      "stateMutability": "pure",
      "type": "function"
    },
    {
      "inputs": [],
      "name": "livelySystemAdminRole",
      "outputs": [
        {
          "internalType": "bytes32",
          "name": "",
          "type": "bytes32"
        }
      ],
      "stateMutability": "pure",
      "type": "function"
    },
    {
      "inputs": [],
      "name": "localAdmin",
      "outputs": [
        {
          "internalType": "address",
          "name": "",
          "type": "address"
        }
      ],
      "stateMutability": "view",
      "type": "function"
    },
    {
      "inputs": [],
      "name": "proxiableUUID",
      "outputs": [
        {
          "internalType": "bytes32",
          "name": "",
          "type": "bytes32"
        }
      ],
      "stateMutability": "view",
      "type": "function"
    },
    {
      "inputs": [
        {
          "internalType": "bytes",
          "name": "signature",
          "type": "bytes"
        },
        {
          "components": [
            {
              "internalType": "bytes32",
              "name": "name",
              "type": "bytes32"
            },
            {
              "internalType": "bytes32",
              "name": "version",
              "type": "bytes32"
            },
            {
              "internalType": "bytes32",
              "name": "realm",
              "type": "bytes32"
            },
            {
              "internalType": "address",
              "name": "smca",
              "type": "address"
            },
            {
              "internalType": "bool",
              "name": "status",
              "type": "bool"
            }
          ],
          "internalType": "struct IContextManagement.RequestContext",
          "name": "rc",
          "type": "tuple"
        },
        {
          "components": [
            {
              "internalType": "bytes32",
              "name": "role",
              "type": "bytes32"
            },
            {
              "internalType": "bytes4[]",
              "name": "funcSelectors",
              "type": "bytes4[]"
            },
            {
              "internalType": "bool",
              "name": "isEnabled",
              "type": "bool"
            }
          ],
          "internalType": "struct IContextManagement.RequestRegisterContext[]",
          "name": "rcr",
          "type": "tuple[]"
        }
      ],
      "name": "registerContext",
      "outputs": [
        {
          "internalType": "bytes32",
          "name": "",
          "type": "bytes32"
        }
      ],
      "stateMutability": "nonpayable",
      "type": "function"
    },
    {
      "inputs": [
        {
          "internalType": "string",
          "name": "name",
          "type": "string"
        },
        {
          "internalType": "bool",
          "name": "status",
          "type": "bool"
        }
      ],
      "name": "registerGroup",
      "outputs": [
        {
          "internalType": "bytes32",
          "name": "",
          "type": "bytes32"
        }
      ],
      "stateMutability": "nonpayable",
      "type": "function"
    },
    {
      "inputs": [
        {
          "internalType": "string",
          "name": "name",
          "type": "string"
        },
        {
          "internalType": "bool",
          "name": "status",
          "type": "bool"
        },
        {
          "internalType": "bool",
          "name": "isUpgradable",
          "type": "bool"
        }
      ],
      "name": "registerRealm",
      "outputs": [
        {
          "internalType": "bytes32",
          "name": "",
          "type": "bytes32"
        }
      ],
      "stateMutability": "nonpayable",
      "type": "function"
    },
    {
      "inputs": [
        {
          "internalType": "string",
          "name": "name",
          "type": "string"
        },
        {
          "internalType": "bytes32",
          "name": "group",
          "type": "bytes32"
        },
        {
          "internalType": "bool",
          "name": "status",
          "type": "bool"
        }
      ],
      "name": "registerRole",
      "outputs": [
        {
          "internalType": "bytes32",
          "name": "",
          "type": "bytes32"
        }
      ],
      "stateMutability": "nonpayable",
      "type": "function"
    },
    {
      "inputs": [
        {
          "internalType": "bytes32",
          "name": "ctx",
          "type": "bytes32"
        },
        {
          "internalType": "bytes4",
          "name": "functionSelector",
          "type": "bytes4"
        }
      ],
      "name": "removeContextFunc",
      "outputs": [
        {
          "internalType": "bool",
          "name": "",
          "type": "bool"
        }
      ],
      "stateMutability": "nonpayable",
      "type": "function"
    },
    {
      "inputs": [
        {
          "internalType": "bytes32",
          "name": "ctx",
          "type": "bytes32"
        },
        {
          "internalType": "bytes4",
          "name": "functionSelector",
          "type": "bytes4"
        },
        {
          "internalType": "bytes32",
          "name": "role",
          "type": "bytes32"
        }
      ],
      "name": "revokeContextRole",
      "outputs": [
        {
          "internalType": "bool",
          "name": "",
          "type": "bool"
        }
      ],
      "stateMutability": "nonpayable",
      "type": "function"
    },
    {
      "inputs": [
        {
          "internalType": "bytes32",
          "name": "role",
          "type": "bytes32"
        },
        {
          "internalType": "address",
          "name": "account",
          "type": "address"
        }
      ],
      "name": "revokeRoleAccount",
      "outputs": [
        {
          "internalType": "bool",
          "name": "",
          "type": "bool"
        }
      ],
      "stateMutability": "nonpayable",
      "type": "function"
    },
    {
      "inputs": [
        {
          "internalType": "bytes32",
          "name": "ctx",
          "type": "bytes32"
        },
        {
          "internalType": "bytes32",
          "name": "realm",
          "type": "bytes32"
        }
      ],
      "name": "setContextRealm",
      "outputs": [
        {
          "internalType": "bool",
          "name": "",
          "type": "bool"
        }
      ],
      "stateMutability": "nonpayable",
      "type": "function"
    },
    {
      "inputs": [
        {
          "internalType": "bytes32",
          "name": "ctx",
          "type": "bytes32"
        },
        {
          "internalType": "bool",
          "name": "status",
          "type": "bool"
        }
      ],
      "name": "setContextStatus",
      "outputs": [
        {
          "internalType": "bool",
          "name": "",
          "type": "bool"
        }
      ],
      "stateMutability": "nonpayable",
      "type": "function"
    },
    {
      "inputs": [
        {
          "internalType": "bytes32",
          "name": "group",
          "type": "bytes32"
        },
        {
          "internalType": "bool",
          "name": "status",
          "type": "bool"
        }
      ],
      "name": "setGroupStatus",
      "outputs": [
        {
          "internalType": "bool",
          "name": "",
          "type": "bool"
        }
      ],
      "stateMutability": "nonpayable",
      "type": "function"
    },
    {
      "inputs": [
        {
          "internalType": "address",
          "name": "newLocalAdmin",
          "type": "address"
        }
      ],
      "name": "setLocalAdmin",
      "outputs": [
        {
          "internalType": "bool",
          "name": "",
          "type": "bool"
        }
      ],
      "stateMutability": "nonpayable",
      "type": "function"
    },
    {
      "inputs": [
        {
          "internalType": "bytes32",
          "name": "realm",
          "type": "bytes32"
        },
        {
          "internalType": "bool",
          "name": "status",
          "type": "bool"
        }
      ],
      "name": "setRealmStatus",
      "outputs": [
        {
          "internalType": "bool",
          "name": "",
          "type": "bool"
        }
      ],
      "stateMutability": "nonpayable",
      "type": "function"
    },
    {
      "inputs": [
        {
          "internalType": "bytes32",
          "name": "realm",
          "type": "bytes32"
        },
        {
          "internalType": "bool",
          "name": "status",
          "type": "bool"
        }
      ],
      "name": "setRealmUpgradeStatus",
      "outputs": [
        {
          "internalType": "bool",
          "name": "",
          "type": "bool"
        }
      ],
      "stateMutability": "nonpayable",
      "type": "function"
    },
    {
      "inputs": [
        {
          "internalType": "bytes32",
          "name": "role",
          "type": "bytes32"
        },
        {
          "internalType": "bytes32",
          "name": "group",
          "type": "bytes32"
        }
      ],
      "name": "setRoleGroup",
      "outputs": [
        {
          "internalType": "bool",
          "name": "",
          "type": "bool"
        }
      ],
      "stateMutability": "nonpayable",
      "type": "function"
    },
    {
      "inputs": [
        {
          "internalType": "bytes32",
          "name": "role",
          "type": "bytes32"
        },
        {
          "internalType": "bool",
          "name": "status",
          "type": "bool"
        }
      ],
      "name": "setRoleStatus",
      "outputs": [
        {
          "internalType": "bool",
          "name": "",
          "type": "bool"
        }
      ],
      "stateMutability": "nonpayable",
      "type": "function"
    },
    {
      "inputs": [
        {
          "internalType": "bool",
          "name": "status",
          "type": "bool"
        }
      ],
      "name": "setSafeMode",
      "outputs": [
        {
          "internalType": "bool",
          "name": "",
          "type": "bool"
        }
      ],
      "stateMutability": "nonpayable",
      "type": "function"
    },
    {
      "inputs": [
        {
          "internalType": "bool",
          "name": "status",
          "type": "bool"
        }
      ],
      "name": "setUpgradeStatus",
      "outputs": [
        {
          "internalType": "bool",
          "name": "",
          "type": "bool"
        }
      ],
      "stateMutability": "nonpayable",
      "type": "function"
    },
    {
      "inputs": [],
      "name": "subjectAddress",
      "outputs": [
        {
          "internalType": "address",
          "name": "",
          "type": "address"
        }
      ],
      "stateMutability": "view",
      "type": "function"
    },
    {
      "inputs": [
        {
          "internalType": "bytes4",
          "name": "interfaceId",
          "type": "bytes4"
        }
      ],
      "name": "supportsInterface",
      "outputs": [
        {
          "internalType": "bool",
          "name": "",
          "type": "bool"
        }
      ],
      "stateMutability": "view",
      "type": "function"
    },
    {
      "inputs": [
        {
          "internalType": "bytes32",
          "name": "ctx",
          "type": "bytes32"
        },
        {
          "internalType": "bytes",
          "name": "signature",
          "type": "bytes"
        },
        {
          "components": [
            {
              "internalType": "bytes32",
              "name": "name",
              "type": "bytes32"
            },
            {
              "internalType": "bytes32",
              "name": "version",
              "type": "bytes32"
            },
            {
              "internalType": "bytes32",
              "name": "realm",
              "type": "bytes32"
            },
            {
              "internalType": "address",
              "name": "smca",
              "type": "address"
            },
            {
              "internalType": "bool",
              "name": "status",
              "type": "bool"
            }
          ],
          "internalType": "struct IContextManagement.RequestContext",
          "name": "rc",
          "type": "tuple"
        },
        {
          "components": [
            {
              "internalType": "bytes32",
              "name": "role",
              "type": "bytes32"
            },
            {
              "internalType": "bytes4[]",
              "name": "funcSelectors",
              "type": "bytes4[]"
            },
            {
              "internalType": "enum IContextManagement.UpdateContextStatus",
              "name": "updateStatus",
              "type": "uint8"
            }
          ],
          "internalType": "struct IContextManagement.RequestUpdateContext[]",
          "name": "rcr",
          "type": "tuple[]"
        }
      ],
      "name": "updateContext",
      "outputs": [
        {
          "internalType": "address",
          "name": "",
          "type": "address"
        }
      ],
      "stateMutability": "nonpayable",
      "type": "function"
    },
    {
      "inputs": [
        {
          "internalType": "address",
          "name": "newImplementation",
          "type": "address"
        },
        {
          "internalType": "bytes",
          "name": "data",
          "type": "bytes"
        },
        {
          "internalType": "bool",
          "name": "forceCall",
          "type": "bool"
        }
      ],
      "name": "upgradeTo",
      "outputs": [
        {
          "internalType": "bytes",
          "name": "",
          "type": "bytes"
        }
      ],
      "stateMutability": "nonpayable",
      "type": "function"
    },
    {
      "inputs": [
        {
          "internalType": "address",
          "name": "recepient",
          "type": "address"
        }
      ],
      "name": "withdrawBalance",
      "outputs": [],
      "stateMutability": "nonpayable",
      "type": "function"
    },
    {
      "stateMutability": "payable",
      "type": "receive"
    }
  ],
  "transactionHash": "0x9a5603095fa9ff4ba09786a979d088559fc9843345de80c61c50a43c637f6610",
  "args": [],
  "numDeployments": 1,
  "solcInputHash": "3e2301e7d344110cf0a11d061271faa8",
  "bytecode": "0x60a0604052306080523480156200001557600080fd5b506200004360017f360894a13ba1a3210667c828492db98dca3e2076cc3735a920a3ca505d382bbd6200011f565b7f360894a13ba1a3210667c828492db98dca3e2076cc3735a920a3ca505d382bbc1462000074576200007462000145565b620000a160017fb53127684a568b3173ae13b9f8a6016e243e63b6e8ee1178d6a717850b5d61046200011f565b600080516020620056f283398151915214620000c157620000c162000145565b33620000ea600080516020620056f283398151915260001b6200011c60201b6200355d1760201c565b80546001600160a01b0319166001600160a01b03929092169190911790556004805461ffff191660011790556200015b565b90565b6000828210156200014057634e487b7160e01b600052601160045260246000fd5b500390565b634e487b7160e01b600052600160045260246000fd5b608051615535620001bd600039600081816115a4015281816115ed015281816117a0015281816117e001528181611b3b01528181611bcf01528181611c0f015281816121fb0152818161223b01528181612cd70152612d1701526155356000f3fe60806040526004361061043c5760003560e01c8063771bcf4511610232578063d33864011161012d578063e71e224e116100b0578063f698da2511610077578063f698da2514610dd3578063f80f010f14610de8578063f8aa7e3f14610e08578063f94a0adb14610e28578063facaf13914610e3d57005b8063e71e224e14610d33578063edf1d1cb14610d53578063f1df49da14610d73578063f2c673bd14610d93578063f5122c9214610db357005b8063dc853dd0116100f4578063dc853dd014610c86578063df01de4514610ca6578063e1ed0a8214610cc6578063e25d75f014610cf3578063e65be46814610d1357005b8063d338640114610bf1578063d3e024b814610c11578063d9aba36e14610c26578063d9dc1f1914610c46578063dbf304b014610c6657005b8063b2dc26e5116101b5578063be22465d1161017c578063be22465d14610b4a578063be409a1114610b62578063c48e7ae614610b91578063c7ab39e614610bb1578063c7ea945c14610bd157005b8063b2dc26e514610aac578063b4a0bdf314610acc578063b4c4b58f14610aea578063b58966de14610b0a578063b6c03f0314610b2a57005b806391690955116101f957806391690955146109c357806398625fff146109e35780639ebf624614610a03578063a0a8e46014610a77578063aea3f33b14610a8c57005b8063771bcf451461092e578063870666cb1461094e5780638b7dbd6c146109635780638e703826146109835780638f09e0f0146109a357005b806348e6be1c116103425780635ec7870a116102c557806370420ee31161028c57806370420ee3146108975780637147855d146108b75780637276ce29146108e4578063756af45f146108f957806375d0c0dc1461091957005b80635ec7870a1461080157806360fefdec14610816578063611b4886146108345780636b2b7dd8146108495780636b3b01591461087757005b806351e70bb01161030957806351e70bb01461076257806352d1902d146107825780635479d9401461079757806358dbc45d146107b45780635c6d8da1146107e157005b806348e6be1c146106cd5780634944f532146106ed5780634bb1be8c1461070d5780634bdbf69c1461072d5780634dc13c8f1461074257005b806337bfbfe8116103ca5780633f4c99b8116103915780633f4c99b81461063857806340768140146106585780634346a04b1461066d57806344b7e5f21461068d57806345b5203c146106ad57005b806337bfbfe81461058a57806338d38c97146105b75780633b17f50b146105df5780633c7d5b25146105f45780633dfe3aa21461062357005b806311b529b31161040e57806311b529b3146104dd5780631846d125146104fd5780632e2adf001461051d5780632f032edd1461054a5780633228144d1461056a57005b806301ffc9a714610445578063031c04931461047a578063098b01cf1461049a578063101df54d146104bd57005b3661044357005b005b34801561045157600080fd5b50610465610460366004614101565b610e5d565b60405190151581526020015b60405180910390f35b34801561048657600080fd5b5061046561049536600461411e565b610ef4565b3480156104a657600080fd5b506104af610fca565b604051908152602001610471565b3480156104c957600080fd5b506104656104d8366004614156565b611009565b3480156104e957600080fd5b506104656104f836600461416f565b611088565b34801561050957600080fd5b50610465610518366004614156565b611108565b34801561052957600080fd5b5061053d610538366004614156565b611149565b604051610471919061419f565b34801561055657600080fd5b50610465610565366004614156565b6111cb565b34801561057657600080fd5b50610465610585366004614156565b61120d565b34801561059657600080fd5b506105aa6105a5366004614156565b61124f565b60405161047191906141ed565b3480156105c357600080fd5b506105cc6112d2565b60405161ffff9091168152602001610471565b3480156105eb57600080fd5b506104af6112e6565b34801561060057600080fd5b5061061461060f366004614156565b61131a565b60405161047193929190614281565b34801561062f57600080fd5b506104af6113ae565b34801561064457600080fd5b506104af610653366004614301565b6113d9565b34801561066457600080fd5b506104af6114ab565b34801561067957600080fd5b5061046561068836600461411e565b6114d7565b34801561069957600080fd5b506104656106a8366004614357565b611598565b3480156106b957600080fd5b506104656106c8366004614156565b611752565b3480156106d957600080fd5b506104656106e8366004614357565b611794565b3480156106f957600080fd5b50610465610708366004614156565b61195d565b34801561071957600080fd5b506104af610728366004614374565b61199f565b34801561073957600080fd5b506104af611a76565b34801561074e57600080fd5b5061046561075d366004614156565b611aaa565b34801561076e57600080fd5b5061046561077d366004614156565b611aec565b34801561078e57600080fd5b506104af611b2e565b3480156107a357600080fd5b50600454610100900460ff16610465565b3480156107c057600080fd5b506107c9611bbb565b6040516001600160a01b039091168152602001610471565b3480156107ed57600080fd5b506104436107fc3660046143f0565b611bc5565b34801561080d57600080fd5b506104af611f87565b34801561082257600080fd5b50604a5462010000900460ff16610465565b34801561084057600080fd5b506104af611fbb565b34801561085557600080fd5b50610869610864366004614156565b611fe1565b60405161047192919061449d565b34801561088357600080fd5b506104656108923660046144c1565b61206f565b3480156108a357600080fd5b506104656108b23660046144ef565b61210d565b3480156108c357600080fd5b506108d76108d23660046145ff565b6121ef565b6040516104719190614657565b3480156108f057600080fd5b506104af612317565b34801561090557600080fd5b5061044361091436600461466a565b612342565b34801561092557600080fd5b506001546104af565b34801561093a57600080fd5b5061046561094936600461411e565b6123fa565b34801561095a57600080fd5b506104af6124bb565b34801561096f57600080fd5b5061046561097e3660046144ef565b6124c6565b34801561098f57600080fd5b5061046561099e366004614156565b612555565b3480156109af57600080fd5b506104656109be366004614687565b612597565b3480156109cf57600080fd5b506104656109de366004614156565b61261f565b3480156109ef57600080fd5b506104656109fe36600461466a565b612661565b348015610a0f57600080fd5b50610a23610a1e366004614156565b6126ab565b60405161047191908151815260208083015190820152604080830151908201526060808301516001600160a01b03169082015260808083015115159082015260a09182015115159181019190915260c00190565b348015610a8357600080fd5b506002546104af565b348015610a9857600080fd5b50610465610aa736600461466a565b612754565b348015610ab857600080fd5b506104af610ac73660046146ac565b61279e565b348015610ad857600080fd5b506000546001600160a01b03166107c9565b348015610af657600080fd5b50610465610b0536600461416f565b61289a565b348015610b1657600080fd5b50610465610b2536600461416f565b6128d9565b348015610b3657600080fd5b50610465610b453660046144ef565b6129a9565b348015610b5657600080fd5b5060045460ff16610465565b348015610b6e57600080fd5b50610b82610b7d366004614156565b612a38565b604051610471939291906146ff565b348015610b9d57600080fd5b50610465610bac366004614156565b612abf565b348015610bbd57600080fd5b50610465610bcc366004614729565b612b01565b348015610bdd57600080fd5b50610465610bec366004614687565b612b62565b348015610bfd57600080fd5b50610465610c0c366004614760565b612bb3565b348015610c1d57600080fd5b506003546104af565b348015610c3257600080fd5b50610465610c41366004614760565b612c82565b348015610c5257600080fd5b50610465610c6136600461466a565b612ccb565b348015610c7257600080fd5b50610465610c81366004614760565b612e45565b348015610c9257600080fd5b50610465610ca1366004614156565b612f14565b348015610cb257600080fd5b50610465610cc1366004614687565b612f56565b348015610cd257600080fd5b50610ce6610ce1366004614156565b612fde565b6040516104719190614782565b348015610cff57600080fd5b50610465610d0e366004614156565b613060565b348015610d1f57600080fd5b506107c9610d2e36600461481f565b6130a2565b348015610d3f57600080fd5b50610465610d4e3660046144ef565b61318a565b348015610d5f57600080fd5b506105aa610d6e366004614156565b61325c565b348015610d7f57600080fd5b506104af610d8e3660046148a5565b61329e565b348015610d9f57600080fd5b50610465610dae3660046144ef565b613393565b348015610dbf57600080fd5b50610465610dce366004614760565b613422565b348015610ddf57600080fd5b506104af61346b565b348015610df457600080fd5b50610465610e0336600461466a565b613475565b348015610e1457600080fd5b50610465610e2336600461466a565b6134bf565b348015610e3457600080fd5b506107c9613509565b348015610e4957600080fd5b50610465610e5836600461466a565b613513565b60006001600160e01b031982166301fe701d60e21b1480610e8e57506001600160e01b03198216633b661d8360e21b145b80610ea957506001600160e01b0319821663467e3a6160e01b145b80610ec457506001600160e01b03198216637d22131d60e11b145b80610edf57506001600160e01b031982166370319bff60e11b145b80610eee5750610eee82613560565b92915050565b60008073e7f1725E7734CE288F8367e1Bb143E90bb3F051263518bf96060458787876040518563ffffffff1660e01b8152600401610f35949392919061491c565b602060405180830381865af4158015610f52573d6000803e3d6000fd5b505050506040513d601f19601f82011682018060405250810190610f769190614941565b9050336001600160a01b031683867fce5e1f2ba33f195f748a93b00ee62600b55e27cc50531a72e5443713bac23e128785604051610fb592919061495a565b60405180910390a460019150505b9392505050565b604051704c4956454c595f41444d494e5f524f4c4560781b60208201526000906031015b60405160208183030381529060405280519060200120905090565b604051637cd7c4ed60e01b81526045600482015260248101829052600090735FbDB2315678afecb367f032d93F642f64180aa390637cd7c4ed906044015b602060405180830381865af4158015611064573d6000803e3d6000fd5b505050506040513d601f19601f82011682018060405250810190610eee9190614974565b6040516302a0d2e360e61b8152600090735FbDB2315678afecb367f032d93F642f64180aa39063a834b8c0906110c79060459087908790600401614991565b602060405180830381865af41580156110e4573d6000803e3d6000fd5b505050506040513d601f19601f82011682018060405250810190610fc39190614974565b60405162fd7cb960e41b81526045600482015260248101829052600090735FbDB2315678afecb367f032d93F642f64180aa390630fd7cb9090604401611047565b60405163ec77eb2160e01b8152604560048201526024810182905260609073e7f1725E7734CE288F8367e1Bb143E90bb3F05129063ec77eb2190604401600060405180830381865af41580156111a3573d6000803e3d6000fd5b505050506040513d6000823e601f3d908101601f19168201604052610eee9190810190614a43565b60405163e24b90a960e01b81526045600482015260248101829052600090735FbDB2315678afecb367f032d93F642f64180aa39063e24b90a990604401611047565b60405163442b0ca160e01b81526045600482015260248101829052600090735FbDB2315678afecb367f032d93F642f64180aa39063442b0ca190604401611047565b6040516350f0b31d60e11b8152604560048201526024810182905260609073Cf7Ed3AccA5a467e9e704C703E8D87F634fB0Fc99063a1e1663a906044015b600060405180830381865af41580156112aa573d6000803e3d6000fd5b505050506040513d6000823e601f3d908101601f19168201604052610eee9190810190614a77565b60006112e1604a5461ffff1690565b905090565b6040517f4c4956454c595f44414f5f4558454355544f525f524f4c4500000000000000006020820152600090603801610fee565b60405163108ca8b760e01b81526045600482015260248101829052606090600090819073Cf7Ed3AccA5a467e9e704C703E8D87F634fB0Fc99063108ca8b790604401600060405180830381865af4158015611379573d6000803e3d6000fd5b505050506040513d6000823e601f3d908101601f191682016040526113a19190810190614b4c565b9250925092509193909250565b6040517304c4956454c595f47454e4552414c5f47524f55560641b6020820152600090603401610fee565b60008073Dc64a140Aa3E981100a9becA4E685f962f0cF6C963f728a0f560458787876040518563ffffffff1660e01b815260040161141a9493929190614bce565b602060405180830381865af4158015611437573d6000803e3d6000fd5b505050506040513d601f19601f8201168201806040525081019061145b9190614941565b9050336001600160a01b0316817fde3bd866160a7f983f3c5f990127712936d37378d60b93ba96ab3a66a04feb1887878760405161149b93929190614bfb565b60405180910390a3949350505050565b604051744c4956454c595f414e4f4e594d4f55535f524f4c4560581b6020820152600090603501610fee565b60008073e7f1725E7734CE288F8367e1Bb143E90bb3F0512635acd816a60458787876040518563ffffffff1660e01b8152600401611518949392919061491c565b602060405180830381865af4158015611535573d6000803e3d6000fd5b505050506040513d601f19601f820116820180604052508101906115599190614941565b9050336001600160a01b031683867f888ebbee43b69c568a7ef10a18f4afb4a0452ed2cfec2dde7a3d37b7e5ef87a38785604051610fb592919061495a565b60006001600160a01b037f00000000000000000000000000000000000000000000000000000000000000001630036115eb5760405162461bcd60e51b81526004016115e290614c21565b60405180910390fd5b7f00000000000000000000000000000000000000000000000000000000000000006001600160a01b031661161d6135b0565b6001600160a01b0316146116435760405162461bcd60e51b81526004016115e290614c50565b6000611652604a5461ffff1690565b61ffff16116116a35760405162461bcd60e51b815260206004820152601860248201527f436f6e7472616374204e6f7420496e697469616c697a6564000000000000000060448201526064016115e2565b6116b363225bf2f960e11b6135d1565b6116f75760405162461bcd60e51b815260206004820152601560248201527429b2ba29b0b332a6b7b232902337b93134b23232b760591b60448201526064016115e2565b6004805460ff191683151517905560035430336001600160a01b03167fdd452a31d2e164a1ea436c084842c27d24ae2548a575a869f71b05a4ed16243f85604051611746911515815260200190565b60405180910390a45090565b604051630227e50560e31b81526045600482015260248101829052600090735FbDB2315678afecb367f032d93F642f64180aa39063113f282890604401611047565b60006001600160a01b037f00000000000000000000000000000000000000000000000000000000000000001630036117de5760405162461bcd60e51b81526004016115e290614c21565b7f00000000000000000000000000000000000000000000000000000000000000006001600160a01b03166118106135b0565b6001600160a01b0316146118365760405162461bcd60e51b81526004016115e290614c50565b60045460ff16156118595760405162461bcd60e51b81526004016115e290614c7e565b611869631239af8760e21b6135d1565b6118b55760405162461bcd60e51b815260206004820152601a60248201527f5365745570677261646553746174757320466f7262696464656e00000000000060448201526064016115e2565b6118bd613714565b6119095760405162461bcd60e51b815260206004820152601760248201527f5265616c6d205570677261646520466f7262696464656e00000000000000000060448201526064016115e2565b6004805461ff0019166101008415150217905560035430336001600160a01b03167fe9f97ad94c2ba252dcfc525e004f608ac5cb886955d8fc87d9e0ee070a698c5685604051611746911515815260200190565b604051633346dd2d60e01b81526045600482015260248101829052600090735FbDB2315678afecb367f032d93F642f64180aa390633346dd2d90604401611047565b60008073Cf7Ed3AccA5a467e9e704C703E8D87F634fB0Fc96359186f406045888888886040518663ffffffff1660e01b81526004016119e2959493929190614cb5565b602060405180830381865af41580156119ff573d6000803e3d6000fd5b505050506040513d601f19601f82011682018060405250810190611a239190614941565b9050336001600160a01b0316817f5a8acbe7e0fa397d934e9aafb8fb1a483627af9e9b4690f4488d740b669f8b4788888888604051611a659493929190614ce8565b60405180910390a395945050505050565b6040517f4c4956454c595f41535345545f4d414e414745525f524f4c45000000000000006020820152600090603901610fee565b60405163017d626960e01b81526045600482015260248101829052600090735FbDB2315678afecb367f032d93F642f64180aa39063017d626990604401611047565b60405163af07cfcd60e01b81526045600482015260248101829052600090735FbDB2315678afecb367f032d93F642f64180aa39063af07cfcd90604401611047565b6000306001600160a01b037f00000000000000000000000000000000000000000000000000000000000000001614611ba85760405162461bcd60e51b815260206004820152601d60248201527f496c6c6567616c20436f6e74726163742044656c656761746563616c6c00000060448201526064016115e2565b506000805160206154e083398151915290565b60006112e16135b0565b6001600160a01b037f0000000000000000000000000000000000000000000000000000000000000000163003611c0d5760405162461bcd60e51b81526004016115e290614c21565b7f00000000000000000000000000000000000000000000000000000000000000006001600160a01b0316611c3f6135b0565b6001600160a01b031614611c655760405162461bcd60e51b81526004016115e290614c50565b33611c6e613850565b6001600160a01b031614611cbc5760405162461bcd60e51b815260206004820152601560248201527410d85b1b195c88139bdd08105d5d1a1bdc9a5e9959605a1b60448201526064016115e2565b604a5462010000900460ff1615808015611cde5750604a54600161ffff909116105b80611cf95750303b158015611cf95750604a5461ffff166001145b611d455760405162461bcd60e51b815260206004820152601c60248201527f436f6e747261637420416c726561647920496e697469616c697a65640000000060448201526064016115e2565b604a805461ffff191660011790558015611d6b57604a805462ff00001916620100001790555b60008484604051602001611d80929190614d14565b60408051808303601f190181529082905280516020909101206308bae38360e31b8252604560048301529150735FbDB2315678afecb367f032d93F642f64180aa3906345d71c189060240160006040518083038186803b158015611de357600080fd5b505af4158015611df7573d6000803e3d6000fd5b50505050611e09898989898588613878565b6000735FbDB2315678afecb367f032d93F642f64180aa36362f3c2d46040518163ffffffff1660e01b8152600401600060405180830381865af4158015611e54573d6000803e3d6000fd5b505050506040513d6000823e601f3d908101601f19168201604052611e7c9190810190614d24565b604051631f5dcce360e31b815290915073e7f1725E7734CE288F8367e1Bb143E90bb3F05129063faee671890611ebd90604590309087908790600401614e27565b602060405180830381865af4158015611eda573d6000803e3d6000fd5b505050506040513d601f19601f82011682018060405250810190611efe9190614941565b50611f076135b0565b6001600160a01b031630336001600160a01b03167ff851a1e85477b818fc72ad517ea622cc316f10f67d61c9e740adc151a8b413948d8d8d8d89611f4e604a5461ffff1690565b604051611f6096959493929190614eff565b60405180910390a450508015611f7d57604a805462ff0000191690555b5050505050505050565b6040517f4c4956454c595f53595354454d5f41444d494e5f524f4c4500000000000000006020820152600090603801610fee565b6040516e4c4956454c595f44414f5f524f4c4560881b6020820152600090602f01610fee565b604051630e8a623f60e31b8152604560048201526024810182905260609060009073Dc64a140Aa3E981100a9becA4E685f962f0cF6C99063745311f890604401600060405180830381865af415801561203e573d6000803e3d6000fd5b505050506040513d6000823e601f3d908101601f191682016040526120669190810190614f44565b91509150915091565b604051637134bb4560e01b81526045600482015260248101849052604481018390526001600160e01b03198216606482015260009073e7f1725E7734CE288F8367e1Bb143E90bb3F051290637134bb45906084015b602060405180830381865af41580156120e1573d6000803e3d6000fd5b505050506040513d601f19601f820116820180604052508101906121059190614974565b949350505050565b604051637cc5941d60e01b8152604560048201526024810183905281151560448201526000908190819073e7f1725E7734CE288F8367e1Bb143E90bb3F051290637cc5941d906064016040805180830381865af4158015612172573d6000803e3d6000fd5b505050506040513d601f19601f820116820180604052508101906121969190614f8a565b91509150806121a23390565b6001600160a01b0316867f354501e3216e5f916d4d35ef255a577d106a7eab306488227783a837dc042a4e876040516121df911515815260200190565b60405180910390a4509392505050565b60606001600160a01b037f00000000000000000000000000000000000000000000000000000000000000001630036122395760405162461bcd60e51b81526004016115e290614c21565b7f00000000000000000000000000000000000000000000000000000000000000006001600160a01b031661226b6135b0565b6001600160a01b0316146122915760405162461bcd60e51b81526004016115e290614c50565b60045460ff16156122b45760405162461bcd60e51b81526004016115e290614c7e565b600454610100900460ff166123035760405162461bcd60e51b8152602060048201526015602482015274155c19dc9859194810d85b1b0814995a9958dd1959605a1b60448201526064016115e2565b61230c8461388e565b612105848484613955565b604051734c4956454c595f47454e4552414c5f5245414c4d60601b6020820152600090603401610fee565b60045460ff16156123655760405162461bcd60e51b81526004016115e290614c7e565b61237563756af45f60e01b6135d1565b6123c15760405162461bcd60e51b815260206004820152601a60248201527f57697468647261772042616c616e636520466f7262696464656e00000000000060448201526064016115e2565b6040516001600160a01b038216904780156108fc02916000818181858888f193505050501580156123f6573d6000803e3d6000fd5b5050565b60008073e7f1725E7734CE288F8367e1Bb143E90bb3F051263453dd6dc60458787876040518563ffffffff1660e01b815260040161243b949392919061491c565b602060405180830381865af4158015612458573d6000803e3d6000fd5b505050506040513d601f19601f8201168201806040525081019061247c9190614941565b9050336001600160a01b031683867fea00ff399a342f54b82233841f91faa5677300e901667e010e9f22aea1ae59318785604051610fb592919061495a565b60006112e130613ba6565b6000336001600160a01b0316837ffe1617b569bd167ab40b31e034f68e32656219dbe4ab9469a00660550fec72c884604051612506911515815260200190565b60405180910390a3604051630549f02d60e01b81526045600482015260248101849052821515604482015273Cf7Ed3AccA5a467e9e704C703E8D87F634fB0Fc990630549f02d906064016110c7565b6040516310f0750160e01b81526045600482015260248101829052600090735FbDB2315678afecb367f032d93F642f64180aa3906310f0750190604401611047565b6040516000906001600160a01b03831690849033907fd992f85df7a0be47c44b0be141be17eefd360033a4ce05b5458fba27b7781999908590a46040516389d4da6560e01b815260456004820152602481018490526001600160a01b0383166044820152739fE46736679d2D9a65F0992F2272dE9f3c7fa6e0906389d4da65906064016110c7565b60405163327c496560e11b81526045600482015260248101829052600090735FbDB2315678afecb367f032d93F642f64180aa3906364f892ca90604401611047565b60405163be74825b60e01b8152604560048201526001600160a01b0382166024820152600090735FbDB2315678afecb367f032d93F642f64180aa39063be74825b90604401611047565b6040805160c081018252600080825260208201819052818301819052606082018190526080820181905260a0820152905163399d749f60e11b8152604560048201526024810183905273e7f1725E7734CE288F8367e1Bb143E90bb3F05129063733ae93e9060440160c060405180830381865af4158015612730573d6000803e3d6000fd5b505050506040513d601f19601f82011682018060405250810190610eee9190614fb8565b604051636c203fff60e11b8152604560048201526001600160a01b0382166024820152600090735FbDB2315678afecb367f032d93F642f64180aa39063d8407ffe90604401611047565b600080739fE46736679d2D9a65F0992F2272dE9f3c7fa6e0633859eb7f6045888888886040518663ffffffff1660e01b81526004016127e1959493929190615049565b602060405180830381865af41580156127fe573d6000803e3d6000fd5b505050506040513d601f19601f820116820180604052508101906128229190614941565b90508585604051612834929190614d14565b6040518091039020816128443390565b6001600160a01b03167f539b07dddd6bd9ffefa3d951a9467d78948cbe1a8d13be00e7376842a83a598187876040516128899291909182521515602082015260400190565b60405180910390a495945050505050565b6040516337b3cdd760e21b8152600090735FbDB2315678afecb367f032d93F642f64180aa39063decf375c906110c79060459087908790600401614991565b60008073e7f1725E7734CE288F8367e1Bb143E90bb3F051263b0c25575604586866040518463ffffffff1660e01b815260040161291893929190614991565b602060405180830381865af4158015612935573d6000803e3d6000fd5b505050506040513d601f19601f820116820180604052508101906129599190614941565b9050336001600160a01b0316847fa6234dfea6da9d63d0505ba9b61ac8405dfd897089208859cda18011c4847d69858460405161299792919061495a565b60405180910390a35060019392505050565b6000336001600160a01b0316837fe595d6b009cbfd06bfdfc4b7c06799f0e0b08fb2c6f5fa6e28a9aac2495440f9846040516129e9911515815260200190565b60405180910390a3604051637c95bcdf60e01b81526045600482015260248101849052821515604482015273Dc64a140Aa3E981100a9becA4E685f962f0cF6C990637c95bcdf906064016110c7565b604051631f9471ef60e01b815260456004820152602481018290526060906000908190739fE46736679d2D9a65F0992F2272dE9f3c7fa6e090631f9471ef90604401600060405180830381865af4158015612a97573d6000803e3d6000fd5b505050506040513d6000823e601f3d908101601f191682016040526113a1919081019061507c565b604051633bcd353d60e11b81526045600482015260248101829052600090735FbDB2315678afecb367f032d93F642f64180aa39063779a6a7a90604401611047565b604051630243e34b60e51b815260456004820152602481018490526001600160a01b03831660448201526001600160e01b031982166064820152600090735FbDB2315678afecb367f032d93F642f64180aa39063487c6960906084016120c4565b604051630938ae7160e01b815260456004820152602481018390526001600160a01b0382166044820152600090739fE46736679d2D9a65F0992F2272dE9f3c7fa6e090630938ae71906064016110c7565b604051631f00af7b60e11b81526045600482015260248101839052604481018290526000908190819073e7f1725E7734CE288F8367e1Bb143E90bb3F051290633e015ef6906064016040805180830381865af4158015612c17573d6000803e3d6000fd5b505050506040513d601f19601f82011682018060405250810190612c3b9190614f8a565b9150915083612c473390565b6001600160a01b0316867fa0eaa0025d4f12545803a03c369115c59f885df7b5fc07a6393438827dbf51b7846040516121df91815260200190565b604051631e7abee360e21b815260456004820152602481018390526044810182905260009073Cf7Ed3AccA5a467e9e704C703E8D87F634fB0Fc9906379eafb8c906064016110c7565b60006001600160a01b037f0000000000000000000000000000000000000000000000000000000000000000163003612d155760405162461bcd60e51b81526004016115e290614c21565b7f00000000000000000000000000000000000000000000000000000000000000006001600160a01b0316612d476135b0565b6001600160a01b031614612d6d5760405162461bcd60e51b81526004016115e290614c50565b60045460ff1615612d905760405162461bcd60e51b81526004016115e290614c7e565b612da063d9dc1f1960e01b6135d1565b612dec5760405162461bcd60e51b815260206004820152601760248201527f5365744c6f63616c41646d696e20466f7262696464656e00000000000000000060448201526064016115e2565b6001600160a01b038216612e345760405162461bcd60e51b815260206004820152600f60248201526e1059191c995cdcc8125b9d985b1a59608a1b60448201526064016115e2565b612e3d82613be5565b506001919050565b60405163c3203fd160e01b815260456004820152602481018390526044810182905260009081908190739fE46736679d2D9a65F0992F2272dE9f3c7fa6e09063c3203fd1906064016040805180830381865af4158015612ea9573d6000803e3d6000fd5b505050506040513d601f19601f82011682018060405250810190612ecd9190614f8a565b915091508385612eda3390565b6001600160a01b03167f970f60a11b3302f55122bdb3e2de766d28491b40fe0a2a6d04da71e5ab577cb9846040516121df91815260200190565b60405163d95140eb60e01b81526045600482015260248101829052600090735FbDB2315678afecb367f032d93F642f64180aa39063d95140eb90604401611047565b6040516000906001600160a01b03831690849033907f1d31fe42f06d4c1f16f6cb7b5682f1d6743641a9e1412fa0258f6776c5b943ee908590a4604051633d58057760e01b815260456004820152602481018490526001600160a01b0383166044820152739fE46736679d2D9a65F0992F2272dE9f3c7fa6e090633d580577906064016110c7565b604051633e5c6e9760e11b81526045600482015260248101829052606090739fE46736679d2D9a65F0992F2272dE9f3c7fa6e090637cb8dd2e90604401600060405180830381865af4158015613038573d6000803e3d6000fd5b505050506040513d6000823e601f3d908101601f19168201604052610eee91908101906150cb565b6040516333064c8960e11b81526045600482015260248101829052600090735FbDB2315678afecb367f032d93F642f64180aa39063660c991290604401611047565b600080600073e7f1725E7734CE288F8367e1Bb143E90bb3F051263099a0c2e60458a8a8a8a8a6040518763ffffffff1660e01b81526004016130e996959493929190615259565b6040805180830381865af4158015613105573d6000803e3d6000fd5b505050506040513d601f19601f820116820180604052508101906131299190615322565b91509150806001600160a01b0316826001600160a01b0316897f2acec3419c1d10dab06d0715f556e96b344f2092a52a23fb192b4b89f5b7cf42896040013560405161317791815260200190565b60405180910390a4509695505050505050565b604051633d2003d360e21b81526045600482015260248101839052811515604482015260009081908190739fE46736679d2D9a65F0992F2272dE9f3c7fa6e09063f4800f4c906064016040805180830381865af41580156131ef573d6000803e3d6000fd5b505050506040513d601f19601f820116820180604052508101906132139190614f8a565b9150915080856132203390565b6001600160a01b03167faaf3a0e62c1102e283a5a18e81d678b9ce6f4f043cc7afafee4f7f82b85330a2876040516121df911515815260200190565b6040516309f7398160e11b8152604560048201526024810182905260609073Dc64a140Aa3E981100a9becA4E685f962f0cF6C9906313ee73029060440161128d565b600080600073e7f1725E7734CE288F8367e1Bb143E90bb3F05126315922efe6045898989896040518663ffffffff1660e01b81526004016132e3959493929190615351565b6040805180830381865af41580156132ff573d6000803e3d6000fd5b505050506040513d601f19601f820116820180604052508101906133239190615415565b90925090506001600160a01b038116613342608088016060890161466a565b6001600160a01b0316837f11cf8f3561fae187c57df59424ecf5d3f444e138924944c77dcb68144c635731896040013560405161338191815260200190565b60405180910390a45095945050505050565b6000336001600160a01b0316837f552ce1fc1bc82a48cdc0636ff7162480d868c590f2e57c63c30a944f3a82ec36846040516133d3911515815260200190565b60405180910390a36040516315b18c7560e11b81526045600482015260248101849052821515604482015273Cf7Ed3AccA5a467e9e704C703E8D87F634fB0Fc990632b6318ea906064016110c7565b604051634ba8456360e01b815260456004820152602481018390526044810182905260009073Dc64a140Aa3E981100a9becA4E685f962f0cF6C990634ba84563906064016110c7565b60006112e1613c5c565b60405163470e456560e01b8152604560048201526001600160a01b0382166024820152600090735FbDB2315678afecb367f032d93F642f64180aa39063470e456590604401611047565b60405163fbe97e1960e01b8152604560048201526001600160a01b0382166024820152600090735FbDB2315678afecb367f032d93F642f64180aa39063fbe97e1990604401611047565b60006112e1613850565b60405163e8a0df2d60e01b8152604560048201526001600160a01b0382166024820152600090735FbDB2315678afecb367f032d93F642f64180aa39063e8a0df2d90604401611047565b90565b60006001600160e01b0319821663748be05360e01b148061359157506001600160e01b031982166352d1902d60e01b145b80610eee57506301ffc9a760e01b6001600160e01b0319831614610eee565b60006000805160206154e08339815191525b546001600160a01b0316919050565b600080546001600160a01b031630036136bd5760006363d59cf360e11b6135f730613ba6565b338560405160240161360b9392919061543a565b60408051601f198184030181529190526020810180516001600160e01b03166001600160e01b0319909316929092179091529050600061368861364c6135b0565b836040518060400160405280601d81526020017f44656c656761746563616c6c20686173416363657373204661696c6564000000815250613caf565b905080600182516136999190615463565b815181106136a9576136a9615488565b60209101015160f81c600114949350505050565b6000546001600160a01b031663c7ab39e66136d730613ba6565b33856040518463ffffffff1660e01b81526004016136f79392919061543a565b602060405180830381865afa158015611064573d6000803e3d6000fd5b600080546001600160a01b031630036137da57600063e25d75f060e01b60035460405160240161374691815260200190565b60408051601f198184030181529190526020810180516001600160e01b03166001600160e01b031990931692909217909152905060006137a66137876135b0565b836040518060600160405280602581526020016154bb60259139613caf565b905080600182516137b79190615463565b815181106137c7576137c7615488565b60209101015160f81c6001149392505050565b600054600354604051630e25d75f60e41b81526001600160a01b039092169163e25d75f09161380f9160040190815260200190565b602060405180830381865afa15801561382c573d6000803e3d6000fd5b505050506040513d601f19601f820116820180604052508101906112e19190614974565b60007fb53127684a568b3173ae13b9f8a6016e243e63b6e8ee1178d6a717850b5d61036135c2565b613886868686868686613d78565b505050505050565b6138966135b0565b6001600160a01b0316816001600160a01b0316036138f65760405162461bcd60e51b815260206004820152601a60248201527f496c6c6567616c204e657720496d706c656d656e746174696f6e00000000000060448201526064016115e2565b613906637147855d60e01b6135d1565b6139525760405162461bcd60e51b815260206004820152601960248201527f5570677261646520436f6e7465787420466f7262696464656e0000000000000060448201526064016115e2565b50565b60607f4910fdfa16fed3260ed0e7147f7cc6da11a60208b5b9406d12a635614ffd91435460ff161561399f5761398a84613f83565b50604080516000815260208101909152610fc3565b836001600160a01b03166352d1902d6040518163ffffffff1660e01b8152600401602060405180830381865afa9250505080156139f9575060408051601f3d908101601f191682019092526139f691810190614941565b60015b613a3d5760405162461bcd60e51b8152602060048201526015602482015274125b1b1959d85b0815555414c810dbdb9d1c9858dd605a1b60448201526064016115e2565b6000805160206154e08339815191528114613a925760405162461bcd60e51b8152602060048201526015602482015274125b9d985b1a590815555414c810dbdb9d1c9858dd605a1b60448201526064016115e2565b506040516301ffc9a760e01b815263748be05360e01b60048201526001600160a01b038516906301ffc9a790602401602060405180830381865afa925050508015613afa575060408051601f3d908101601f19168201909252613af791810190614974565b60015b613b465760405162461bcd60e51b815260206004820152601760248201527f496c6c6567616c204950726f787920436f6e747261637400000000000000000060448201526064016115e2565b80613b935760405162461bcd60e51b815260206004820152601760248201527f496e76616c6964204950726f787920436f6e747261637400000000000000000060448201526064016115e2565b50613b9f848484614004565b9050610fc3565b6040516bffffffffffffffffffffffff19606083901b166020820152600090603401604051602081830303815290604052805190602001209050919050565b7fb53127684a568b3173ae13b9f8a6016e243e63b6e8ee1178d6a717850b5d610380546001600160a01b0383166001600160a01b031990911681179091556040805191825251309133917f54ab0d18de7958786ba1ad85966d59baa2b395455f0530dcdcfd732e6af539e29181900360200190a350565b600154600254604080517f8b73c3c69bb8fe3d512ecc4cf759cc79239f7b179b0ffacaa9a75d522b39400f60208201529081019290925260608201524660808201523060a082015260009060c001610fee565b60606001600160a01b0384163b613d035760405162461bcd60e51b8152602060048201526018602482015277496c6c6567616c20436f6e7472616374204164647265737360401b60448201526064016115e2565b600080856001600160a01b031685604051613d1e919061549e565b600060405180830381855af49150503d8060008114613d59576040519150601f19603f3d011682016040523d82523d6000602084013e613d5e565b606091505b5091509150613d6e82828661406e565b9695505050505050565b604a5462010000900460ff16613dd05760405162461bcd60e51b815260206004820152601960248201527f436f6e7472616374204e6f7420496e697469616c697a696e670000000000000060448201526064016115e2565b8585604051602001613de3929190614d14565b60408051601f19818403018152908290528051602091820120600155613e0d918691869101614d14565b60408051601f19818403018152919052805160209091012060025560038290556001600160a01b038116613e5257600080546001600160a01b03191630179055613f6f565b6040516301ffc9a760e01b81526301fe701d60e21b60048201526001600160a01b038216906301ffc9a790602401602060405180830381865afa925050508015613eb9575060408051601f3d908101601f19168201909252613eb691810190614974565b60015b613f055760405162461bcd60e51b815260206004820152601c60248201527f496c6c6567616c20416363657373436f6e74726f6c4d616e616765720000000060448201526064016115e2565b80613f525760405162461bcd60e51b815260206004820152601c60248201527f496e76616c696420416363657373436f6e74726f6c4d616e616765720000000060448201526064016115e2565b50600080546001600160a01b0319166001600160a01b0383161790555b6004805461ffff1916905561388633613be5565b6001600160a01b0381163b613fd55760405162461bcd60e51b8152602060048201526018602482015277496c6c6567616c20436f6e7472616374204164647265737360401b60448201526064016115e2565b6000805160206154e083398151915280546001600160a01b0319166001600160a01b0392909216919091179055565b606061400f846140a7565b60008351118061401c5750815b1561405757613b9f84846040518060400160405280601381526020017211195b1959d85d1958d85b1b0811985a5b1959606a1b815250613caf565b505060408051600081526020810190915292915050565b6060831561407d575081610fc3565b82511561408d5782518084602001fd5b8160405162461bcd60e51b81526004016115e29190614657565b6140b081613f83565b6040516001600160a01b03821690309033907f354bd4b6eb65d64e6c79c53fa4f983a5e6bec4824ce4627c71be0b2722f4917e90600090a450565b6001600160e01b03198116811461395257600080fd5b60006020828403121561411357600080fd5b8135610fc3816140eb565b60008060006060848603121561413357600080fd5b833592506020840135614145816140eb565b929592945050506040919091013590565b60006020828403121561416857600080fd5b5035919050565b6000806040838503121561418257600080fd5b823591506020830135614194816140eb565b809150509250929050565b6020808252825182820181905260009190848201906040850190845b818110156141e15783516001600160e01b031916835292840192918401916001016141bb565b50909695505050505050565b6020808252825182820181905260009190848201906040850190845b818110156141e157835183529284019291840191600101614209565b60005b83811015614240578181015183820152602001614228565b8381111561424f576000848401525b50505050565b6000815180845261426d816020860160208601614225565b601f01601f19169290920160200192915050565b6060815260006142946060830186614255565b931515602083015250901515604090910152919050565b60008083601f8401126142bd57600080fd5b5081356001600160401b038111156142d457600080fd5b6020830191508360208285010111156142ec57600080fd5b9250929050565b801515811461395257600080fd5b60008060006040848603121561431657600080fd5b83356001600160401b0381111561432c57600080fd5b614338868287016142ab565b909450925050602084013561434c816142f3565b809150509250925092565b60006020828403121561436957600080fd5b8135610fc3816142f3565b6000806000806060858703121561438a57600080fd5b84356001600160401b038111156143a057600080fd5b6143ac878288016142ab565b90955093505060208501356143c0816142f3565b915060408501356143d0816142f3565b939692955090935050565b6001600160a01b038116811461395257600080fd5b60008060008060008060006080888a03121561440b57600080fd5b87356001600160401b038082111561442257600080fd5b61442e8b838c016142ab565b909950975060208a013591508082111561444757600080fd5b6144538b838c016142ab565b909750955060408a013591508082111561446c57600080fd5b506144798a828b016142ab565b909450925050606088013561448d816143db565b8091505092959891949750929550565b6040815260006144b06040830185614255565b905082151560208301529392505050565b6000806000606084860312156144d657600080fd5b8335925060208401359150604084013561434c816140eb565b6000806040838503121561450257600080fd5b823591506020830135614194816142f3565b634e487b7160e01b600052604160045260246000fd5b604051606081016001600160401b038111828210171561454c5761454c614514565b60405290565b604051601f8201601f191681016001600160401b038111828210171561457a5761457a614514565b604052919050565b60006001600160401b0382111561459b5761459b614514565b50601f01601f191660200190565b600082601f8301126145ba57600080fd5b81356145cd6145c882614582565b614552565b8181528460208386010111156145e257600080fd5b816020850160208301376000918101602001919091529392505050565b60008060006060848603121561461457600080fd5b833561461f816143db565b925060208401356001600160401b0381111561463a57600080fd5b614646868287016145a9565b925050604084013561434c816142f3565b602081526000610fc36020830184614255565b60006020828403121561467c57600080fd5b8135610fc3816143db565b6000806040838503121561469a57600080fd5b823591506020830135614194816143db565b600080600080606085870312156146c257600080fd5b84356001600160401b038111156146d857600080fd5b6146e4878288016142ab565b9095509350506020850135915060408501356143d0816142f3565b6060815260006147126060830186614255565b602083019490945250901515604090910152919050565b60008060006060848603121561473e57600080fd5b833592506020840135614750816143db565b9150604084013561434c816140eb565b6000806040838503121561477357600080fd5b50508035926020909101359150565b6020808252825182820181905260009190848201906040850190845b818110156141e15783516001600160a01b03168352928401929184019160010161479e565b600060a082840312156147d557600080fd5b50919050565b60008083601f8401126147ed57600080fd5b5081356001600160401b0381111561480457600080fd5b6020830191508360208260051b85010111156142ec57600080fd5b6000806000806000610100868803121561483857600080fd5b8535945060208601356001600160401b038082111561485657600080fd5b61486289838a016145a9565b95506148718960408a016147c3565b945060e088013591508082111561488757600080fd5b50614894888289016147db565b969995985093965092949392505050565b60008060008060e085870312156148bb57600080fd5b84356001600160401b03808211156148d257600080fd5b6148de888389016145a9565b95506148ed88602089016147c3565b945060c087013591508082111561490357600080fd5b50614910878288016147db565b95989497509550505050565b93845260208401929092526001600160e01b0319166040830152606082015260800190565b60006020828403121561495357600080fd5b5051919050565b6001600160e01b0319929092168252602082015260400190565b60006020828403121561498657600080fd5b8151610fc3816142f3565b92835260208301919091526001600160e01b031916604082015260600190565b60006001600160401b038211156149ca576149ca614514565b5060051b60200190565b600082601f8301126149e557600080fd5b815160206149f56145c8836149b1565b82815260059290921b84018101918181019086841115614a1457600080fd5b8286015b84811015614a38578051614a2b816140eb565b8352918301918301614a18565b509695505050505050565b600060208284031215614a5557600080fd5b81516001600160401b03811115614a6b57600080fd5b612105848285016149d4565b60006020808385031215614a8a57600080fd5b82516001600160401b03811115614aa057600080fd5b8301601f81018513614ab157600080fd5b8051614abf6145c8826149b1565b81815260059190911b82018301908381019087831115614ade57600080fd5b928401925b82841015614afc57835182529284019290840190614ae3565b979650505050505050565b600082601f830112614b1857600080fd5b8151614b266145c882614582565b818152846020838601011115614b3b57600080fd5b612105826020830160208701614225565b600080600060608486031215614b6157600080fd5b83516001600160401b03811115614b7757600080fd5b614b8386828701614b07565b9350506020840151614b94816142f3565b604085015190925061434c816142f3565b81835281816020850137506000828201602090810191909152601f909101601f19169091010190565b848152606060208201526000614be8606083018587614ba5565b9050821515604083015295945050505050565b604081526000614c0f604083018587614ba5565b90508215156020830152949350505050565b602080825260159082015274125b1b1959d85b0810dbdb9d1c9858dd0810d85b1b605a1b604082015260600190565b602080825260149082015273141c9bde1e4810d85b1b195908125b9d985b1a5960621b604082015260600190565b60208082526017908201527f536166654d6f64653a2043616c6c2052656a6563746564000000000000000000604082015260600190565b858152608060208201526000614ccf608083018688614ba5565b9315156040830152509015156060909101529392505050565b606081526000614cfc606083018688614ba5565b93151560208301525090151560409091015292915050565b8183823760009101908152919050565b60006020808385031215614d3757600080fd5b82516001600160401b0380821115614d4e57600080fd5b818501915085601f830112614d6257600080fd5b8151614d706145c8826149b1565b81815260059190911b83018401908481019088831115614d8f57600080fd5b8585015b83811015614e1a57805185811115614dab5760008081fd5b86016060818c03601f1901811315614dc35760008081fd5b614dcb61452a565b89830151815260408084015189811115614de55760008081fd5b614df38f8d838801016149d4565b838d0152509282015192614e06846142f3565b810192909252508352918601918601614d93565b5098975050505050505050565b60006080808301878452602060018060a01b03881681860152604087818701526060848188015283885180865260a08901915060a08160051b8a01019550848a016000805b83811015614eeb578b8903609f19018552825180518a5288810151898b018890528051888c01819052908a019084908d8d01905b80831015614eca5783516001600160e01b0319168252928c019260019290920191908c0190614ea0565b50928a015115159b8a019b909b525098509387019391870191600101614e6c565b50969e9d5050505050505050505050505050565b608081526000614f1360808301888a614ba5565b8281036020840152614f26818789614ba5565b91505083604083015261ffff83166060830152979650505050505050565b60008060408385031215614f5757600080fd5b82516001600160401b03811115614f6d57600080fd5b614f7985828601614b07565b9250506020830151614194816142f3565b60008060408385031215614f9d57600080fd5b8251614fa8816142f3565b6020939093015192949293505050565b600060c08284031215614fca57600080fd5b60405160c081018181106001600160401b0382111715614fec57614fec614514565b80604052508251815260208301516020820152604083015160408201526060830151615017816143db565b6060820152608083015161502a816142f3565b608082015260a083015161503d816142f3565b60a08201529392505050565b858152608060208201526000615063608083018688614ba5565b6040830194909452509015156060909101529392505050565b60008060006060848603121561509157600080fd5b83516001600160401b038111156150a757600080fd5b6150b386828701614b07565b93505060208401519150604084015161434c816142f3565b600060208083850312156150de57600080fd5b82516001600160401b038111156150f457600080fd5b8301601f8101851361510557600080fd5b80516151136145c8826149b1565b81815260059190911b8201830190838101908783111561513257600080fd5b928401925b82841015614afc57835161514a816143db565b82529284019290840190615137565b803582526020810135602083015260408101356040830152606081013561517f816143db565b6001600160a01b03166060830152608081013561519b816142f3565b8015156080840152505050565b6000808335601e198436030181126151bf57600080fd5b83016020810192503590506001600160401b038111156151de57600080fd5b8060051b36038213156142ec57600080fd5b8183526000602080850194508260005b8581101561522f578135615213816140eb565b6001600160e01b03191687529582019590820190600101615200565b509495945050505050565b60008235605e1983360301811261525057600080fd5b90910192915050565b6000610120888352602088818501526040828186015261527b8386018a614255565b9250606061528b8187018a615159565b858403610100870152868452828401600588901b85018401896000805b8b81101561530d57888403601f190185526152c3838e61523a565b803585526152d3898201826151a8565b888b8801526152e589880182846151f0565b928a013592915050600382106152f9578384fd5b9488015293870193918701916001016152a8565b50919f9e505050505050505050505050505050565b6000806040838503121561533557600080fd5b8251615340816143db565b6020840151909250614194816143db565b60006101008783526020818185015261536c82850189614255565b9150604061537c81860189615159565b84830360e0860152858352818301600587901b840183018860005b8981101561540357868303601f190184526153b2828c61523a565b6060813585526153c4888301836151a8565b828a8801526153d683880182846151f0565b925050508682013591506153e9826142f3565b901515938601939093529285019290850190600101615397565b50909c9b505050505050505050505050565b6000806040838503121561542857600080fd5b825191506020830151614194816143db565b9283526001600160a01b039190911660208301526001600160e01b031916604082015260600190565b60008282101561548357634e487b7160e01b600052601160045260246000fd5b500390565b634e487b7160e01b600052603260045260246000fd5b600082516154b0818460208701614225565b919091019291505056fe44656c656761746563616c6c2069735265616c6d55706772616461626c65204661696c6564360894a13ba1a3210667c828492db98dca3e2076cc3735a920a3ca505d382bbca26469706673582212207cf62b12fc267195c9cf1b83b0528771e5e1a4fe2afd80e9699a28e250ceca3064736f6c634300080f0033b53127684a568b3173ae13b9f8a6016e243e63b6e8ee1178d6a717850b5d6103",
  "deployedBytecode": "0x60806040526004361061043c5760003560e01c8063771bcf4511610232578063d33864011161012d578063e71e224e116100b0578063f698da2511610077578063f698da2514610dd3578063f80f010f14610de8578063f8aa7e3f14610e08578063f94a0adb14610e28578063facaf13914610e3d57005b8063e71e224e14610d33578063edf1d1cb14610d53578063f1df49da14610d73578063f2c673bd14610d93578063f5122c9214610db357005b8063dc853dd0116100f4578063dc853dd014610c86578063df01de4514610ca6578063e1ed0a8214610cc6578063e25d75f014610cf3578063e65be46814610d1357005b8063d338640114610bf1578063d3e024b814610c11578063d9aba36e14610c26578063d9dc1f1914610c46578063dbf304b014610c6657005b8063b2dc26e5116101b5578063be22465d1161017c578063be22465d14610b4a578063be409a1114610b62578063c48e7ae614610b91578063c7ab39e614610bb1578063c7ea945c14610bd157005b8063b2dc26e514610aac578063b4a0bdf314610acc578063b4c4b58f14610aea578063b58966de14610b0a578063b6c03f0314610b2a57005b806391690955116101f957806391690955146109c357806398625fff146109e35780639ebf624614610a03578063a0a8e46014610a77578063aea3f33b14610a8c57005b8063771bcf451461092e578063870666cb1461094e5780638b7dbd6c146109635780638e703826146109835780638f09e0f0146109a357005b806348e6be1c116103425780635ec7870a116102c557806370420ee31161028c57806370420ee3146108975780637147855d146108b75780637276ce29146108e4578063756af45f146108f957806375d0c0dc1461091957005b80635ec7870a1461080157806360fefdec14610816578063611b4886146108345780636b2b7dd8146108495780636b3b01591461087757005b806351e70bb01161030957806351e70bb01461076257806352d1902d146107825780635479d9401461079757806358dbc45d146107b45780635c6d8da1146107e157005b806348e6be1c146106cd5780634944f532146106ed5780634bb1be8c1461070d5780634bdbf69c1461072d5780634dc13c8f1461074257005b806337bfbfe8116103ca5780633f4c99b8116103915780633f4c99b81461063857806340768140146106585780634346a04b1461066d57806344b7e5f21461068d57806345b5203c146106ad57005b806337bfbfe81461058a57806338d38c97146105b75780633b17f50b146105df5780633c7d5b25146105f45780633dfe3aa21461062357005b806311b529b31161040e57806311b529b3146104dd5780631846d125146104fd5780632e2adf001461051d5780632f032edd1461054a5780633228144d1461056a57005b806301ffc9a714610445578063031c04931461047a578063098b01cf1461049a578063101df54d146104bd57005b3661044357005b005b34801561045157600080fd5b50610465610460366004614101565b610e5d565b60405190151581526020015b60405180910390f35b34801561048657600080fd5b5061046561049536600461411e565b610ef4565b3480156104a657600080fd5b506104af610fca565b604051908152602001610471565b3480156104c957600080fd5b506104656104d8366004614156565b611009565b3480156104e957600080fd5b506104656104f836600461416f565b611088565b34801561050957600080fd5b50610465610518366004614156565b611108565b34801561052957600080fd5b5061053d610538366004614156565b611149565b604051610471919061419f565b34801561055657600080fd5b50610465610565366004614156565b6111cb565b34801561057657600080fd5b50610465610585366004614156565b61120d565b34801561059657600080fd5b506105aa6105a5366004614156565b61124f565b60405161047191906141ed565b3480156105c357600080fd5b506105cc6112d2565b60405161ffff9091168152602001610471565b3480156105eb57600080fd5b506104af6112e6565b34801561060057600080fd5b5061061461060f366004614156565b61131a565b60405161047193929190614281565b34801561062f57600080fd5b506104af6113ae565b34801561064457600080fd5b506104af610653366004614301565b6113d9565b34801561066457600080fd5b506104af6114ab565b34801561067957600080fd5b5061046561068836600461411e565b6114d7565b34801561069957600080fd5b506104656106a8366004614357565b611598565b3480156106b957600080fd5b506104656106c8366004614156565b611752565b3480156106d957600080fd5b506104656106e8366004614357565b611794565b3480156106f957600080fd5b50610465610708366004614156565b61195d565b34801561071957600080fd5b506104af610728366004614374565b61199f565b34801561073957600080fd5b506104af611a76565b34801561074e57600080fd5b5061046561075d366004614156565b611aaa565b34801561076e57600080fd5b5061046561077d366004614156565b611aec565b34801561078e57600080fd5b506104af611b2e565b3480156107a357600080fd5b50600454610100900460ff16610465565b3480156107c057600080fd5b506107c9611bbb565b6040516001600160a01b039091168152602001610471565b3480156107ed57600080fd5b506104436107fc3660046143f0565b611bc5565b34801561080d57600080fd5b506104af611f87565b34801561082257600080fd5b50604a5462010000900460ff16610465565b34801561084057600080fd5b506104af611fbb565b34801561085557600080fd5b50610869610864366004614156565b611fe1565b60405161047192919061449d565b34801561088357600080fd5b506104656108923660046144c1565b61206f565b3480156108a357600080fd5b506104656108b23660046144ef565b61210d565b3480156108c357600080fd5b506108d76108d23660046145ff565b6121ef565b6040516104719190614657565b3480156108f057600080fd5b506104af612317565b34801561090557600080fd5b5061044361091436600461466a565b612342565b34801561092557600080fd5b506001546104af565b34801561093a57600080fd5b5061046561094936600461411e565b6123fa565b34801561095a57600080fd5b506104af6124bb565b34801561096f57600080fd5b5061046561097e3660046144ef565b6124c6565b34801561098f57600080fd5b5061046561099e366004614156565b612555565b3480156109af57600080fd5b506104656109be366004614687565b612597565b3480156109cf57600080fd5b506104656109de366004614156565b61261f565b3480156109ef57600080fd5b506104656109fe36600461466a565b612661565b348015610a0f57600080fd5b50610a23610a1e366004614156565b6126ab565b60405161047191908151815260208083015190820152604080830151908201526060808301516001600160a01b03169082015260808083015115159082015260a09182015115159181019190915260c00190565b348015610a8357600080fd5b506002546104af565b348015610a9857600080fd5b50610465610aa736600461466a565b612754565b348015610ab857600080fd5b506104af610ac73660046146ac565b61279e565b348015610ad857600080fd5b506000546001600160a01b03166107c9565b348015610af657600080fd5b50610465610b0536600461416f565b61289a565b348015610b1657600080fd5b50610465610b2536600461416f565b6128d9565b348015610b3657600080fd5b50610465610b453660046144ef565b6129a9565b348015610b5657600080fd5b5060045460ff16610465565b348015610b6e57600080fd5b50610b82610b7d366004614156565b612a38565b604051610471939291906146ff565b348015610b9d57600080fd5b50610465610bac366004614156565b612abf565b348015610bbd57600080fd5b50610465610bcc366004614729565b612b01565b348015610bdd57600080fd5b50610465610bec366004614687565b612b62565b348015610bfd57600080fd5b50610465610c0c366004614760565b612bb3565b348015610c1d57600080fd5b506003546104af565b348015610c3257600080fd5b50610465610c41366004614760565b612c82565b348015610c5257600080fd5b50610465610c6136600461466a565b612ccb565b348015610c7257600080fd5b50610465610c81366004614760565b612e45565b348015610c9257600080fd5b50610465610ca1366004614156565b612f14565b348015610cb257600080fd5b50610465610cc1366004614687565b612f56565b348015610cd257600080fd5b50610ce6610ce1366004614156565b612fde565b6040516104719190614782565b348015610cff57600080fd5b50610465610d0e366004614156565b613060565b348015610d1f57600080fd5b506107c9610d2e36600461481f565b6130a2565b348015610d3f57600080fd5b50610465610d4e3660046144ef565b61318a565b348015610d5f57600080fd5b506105aa610d6e366004614156565b61325c565b348015610d7f57600080fd5b506104af610d8e3660046148a5565b61329e565b348015610d9f57600080fd5b50610465610dae3660046144ef565b613393565b348015610dbf57600080fd5b50610465610dce366004614760565b613422565b348015610ddf57600080fd5b506104af61346b565b348015610df457600080fd5b50610465610e0336600461466a565b613475565b348015610e1457600080fd5b50610465610e2336600461466a565b6134bf565b348015610e3457600080fd5b506107c9613509565b348015610e4957600080fd5b50610465610e5836600461466a565b613513565b60006001600160e01b031982166301fe701d60e21b1480610e8e57506001600160e01b03198216633b661d8360e21b145b80610ea957506001600160e01b0319821663467e3a6160e01b145b80610ec457506001600160e01b03198216637d22131d60e11b145b80610edf57506001600160e01b031982166370319bff60e11b145b80610eee5750610eee82613560565b92915050565b60008073__$122c978fc1a65ab69c7a0ac6b07fd0b0cd$__63518bf96060458787876040518563ffffffff1660e01b8152600401610f35949392919061491c565b602060405180830381865af4158015610f52573d6000803e3d6000fd5b505050506040513d601f19601f82011682018060405250810190610f769190614941565b9050336001600160a01b031683867fce5e1f2ba33f195f748a93b00ee62600b55e27cc50531a72e5443713bac23e128785604051610fb592919061495a565b60405180910390a460019150505b9392505050565b604051704c4956454c595f41444d494e5f524f4c4560781b60208201526000906031015b60405160208183030381529060405280519060200120905090565b604051637cd7c4ed60e01b8152604560048201526024810182905260009073__$c43b1d7058274a71a9734d16e6b6586431$__90637cd7c4ed906044015b602060405180830381865af4158015611064573d6000803e3d6000fd5b505050506040513d601f19601f82011682018060405250810190610eee9190614974565b6040516302a0d2e360e61b815260009073__$c43b1d7058274a71a9734d16e6b6586431$__9063a834b8c0906110c79060459087908790600401614991565b602060405180830381865af41580156110e4573d6000803e3d6000fd5b505050506040513d601f19601f82011682018060405250810190610fc39190614974565b60405162fd7cb960e41b8152604560048201526024810182905260009073__$c43b1d7058274a71a9734d16e6b6586431$__90630fd7cb9090604401611047565b60405163ec77eb2160e01b8152604560048201526024810182905260609073__$122c978fc1a65ab69c7a0ac6b07fd0b0cd$__9063ec77eb2190604401600060405180830381865af41580156111a3573d6000803e3d6000fd5b505050506040513d6000823e601f3d908101601f19168201604052610eee9190810190614a43565b60405163e24b90a960e01b8152604560048201526024810182905260009073__$c43b1d7058274a71a9734d16e6b6586431$__9063e24b90a990604401611047565b60405163442b0ca160e01b8152604560048201526024810182905260009073__$c43b1d7058274a71a9734d16e6b6586431$__9063442b0ca190604401611047565b6040516350f0b31d60e11b8152604560048201526024810182905260609073__$bc3cfbaf1827cbc66e3e608da812a405b7$__9063a1e1663a906044015b600060405180830381865af41580156112aa573d6000803e3d6000fd5b505050506040513d6000823e601f3d908101601f19168201604052610eee9190810190614a77565b60006112e1604a5461ffff1690565b905090565b6040517f4c4956454c595f44414f5f4558454355544f525f524f4c4500000000000000006020820152600090603801610fee565b60405163108ca8b760e01b81526045600482015260248101829052606090600090819073__$bc3cfbaf1827cbc66e3e608da812a405b7$__9063108ca8b790604401600060405180830381865af4158015611379573d6000803e3d6000fd5b505050506040513d6000823e601f3d908101601f191682016040526113a19190810190614b4c565b9250925092509193909250565b6040517304c4956454c595f47454e4552414c5f47524f55560641b6020820152600090603401610fee565b60008073__$6309dd7d2656d358c392b35d5c4e4605f9$__63f728a0f560458787876040518563ffffffff1660e01b815260040161141a9493929190614bce565b602060405180830381865af4158015611437573d6000803e3d6000fd5b505050506040513d601f19601f8201168201806040525081019061145b9190614941565b9050336001600160a01b0316817fde3bd866160a7f983f3c5f990127712936d37378d60b93ba96ab3a66a04feb1887878760405161149b93929190614bfb565b60405180910390a3949350505050565b604051744c4956454c595f414e4f4e594d4f55535f524f4c4560581b6020820152600090603501610fee565b60008073__$122c978fc1a65ab69c7a0ac6b07fd0b0cd$__635acd816a60458787876040518563ffffffff1660e01b8152600401611518949392919061491c565b602060405180830381865af4158015611535573d6000803e3d6000fd5b505050506040513d601f19601f820116820180604052508101906115599190614941565b9050336001600160a01b031683867f888ebbee43b69c568a7ef10a18f4afb4a0452ed2cfec2dde7a3d37b7e5ef87a38785604051610fb592919061495a565b60006001600160a01b037f00000000000000000000000000000000000000000000000000000000000000001630036115eb5760405162461bcd60e51b81526004016115e290614c21565b60405180910390fd5b7f00000000000000000000000000000000000000000000000000000000000000006001600160a01b031661161d6135b0565b6001600160a01b0316146116435760405162461bcd60e51b81526004016115e290614c50565b6000611652604a5461ffff1690565b61ffff16116116a35760405162461bcd60e51b815260206004820152601860248201527f436f6e7472616374204e6f7420496e697469616c697a6564000000000000000060448201526064016115e2565b6116b363225bf2f960e11b6135d1565b6116f75760405162461bcd60e51b815260206004820152601560248201527429b2ba29b0b332a6b7b232902337b93134b23232b760591b60448201526064016115e2565b6004805460ff191683151517905560035430336001600160a01b03167fdd452a31d2e164a1ea436c084842c27d24ae2548a575a869f71b05a4ed16243f85604051611746911515815260200190565b60405180910390a45090565b604051630227e50560e31b8152604560048201526024810182905260009073__$c43b1d7058274a71a9734d16e6b6586431$__9063113f282890604401611047565b60006001600160a01b037f00000000000000000000000000000000000000000000000000000000000000001630036117de5760405162461bcd60e51b81526004016115e290614c21565b7f00000000000000000000000000000000000000000000000000000000000000006001600160a01b03166118106135b0565b6001600160a01b0316146118365760405162461bcd60e51b81526004016115e290614c50565b60045460ff16156118595760405162461bcd60e51b81526004016115e290614c7e565b611869631239af8760e21b6135d1565b6118b55760405162461bcd60e51b815260206004820152601a60248201527f5365745570677261646553746174757320466f7262696464656e00000000000060448201526064016115e2565b6118bd613714565b6119095760405162461bcd60e51b815260206004820152601760248201527f5265616c6d205570677261646520466f7262696464656e00000000000000000060448201526064016115e2565b6004805461ff0019166101008415150217905560035430336001600160a01b03167fe9f97ad94c2ba252dcfc525e004f608ac5cb886955d8fc87d9e0ee070a698c5685604051611746911515815260200190565b604051633346dd2d60e01b8152604560048201526024810182905260009073__$c43b1d7058274a71a9734d16e6b6586431$__90633346dd2d90604401611047565b60008073__$bc3cfbaf1827cbc66e3e608da812a405b7$__6359186f406045888888886040518663ffffffff1660e01b81526004016119e2959493929190614cb5565b602060405180830381865af41580156119ff573d6000803e3d6000fd5b505050506040513d601f19601f82011682018060405250810190611a239190614941565b9050336001600160a01b0316817f5a8acbe7e0fa397d934e9aafb8fb1a483627af9e9b4690f4488d740b669f8b4788888888604051611a659493929190614ce8565b60405180910390a395945050505050565b6040517f4c4956454c595f41535345545f4d414e414745525f524f4c45000000000000006020820152600090603901610fee565b60405163017d626960e01b8152604560048201526024810182905260009073__$c43b1d7058274a71a9734d16e6b6586431$__9063017d626990604401611047565b60405163af07cfcd60e01b8152604560048201526024810182905260009073__$c43b1d7058274a71a9734d16e6b6586431$__9063af07cfcd90604401611047565b6000306001600160a01b037f00000000000000000000000000000000000000000000000000000000000000001614611ba85760405162461bcd60e51b815260206004820152601d60248201527f496c6c6567616c20436f6e74726163742044656c656761746563616c6c00000060448201526064016115e2565b506000805160206154e083398151915290565b60006112e16135b0565b6001600160a01b037f0000000000000000000000000000000000000000000000000000000000000000163003611c0d5760405162461bcd60e51b81526004016115e290614c21565b7f00000000000000000000000000000000000000000000000000000000000000006001600160a01b0316611c3f6135b0565b6001600160a01b031614611c655760405162461bcd60e51b81526004016115e290614c50565b33611c6e613850565b6001600160a01b031614611cbc5760405162461bcd60e51b815260206004820152601560248201527410d85b1b195c88139bdd08105d5d1a1bdc9a5e9959605a1b60448201526064016115e2565b604a5462010000900460ff1615808015611cde5750604a54600161ffff909116105b80611cf95750303b158015611cf95750604a5461ffff166001145b611d455760405162461bcd60e51b815260206004820152601c60248201527f436f6e747261637420416c726561647920496e697469616c697a65640000000060448201526064016115e2565b604a805461ffff191660011790558015611d6b57604a805462ff00001916620100001790555b60008484604051602001611d80929190614d14565b60408051808303601f190181529082905280516020909101206308bae38360e31b825260456004830152915073__$c43b1d7058274a71a9734d16e6b6586431$__906345d71c189060240160006040518083038186803b158015611de357600080fd5b505af4158015611df7573d6000803e3d6000fd5b50505050611e09898989898588613878565b600073__$c43b1d7058274a71a9734d16e6b6586431$__6362f3c2d46040518163ffffffff1660e01b8152600401600060405180830381865af4158015611e54573d6000803e3d6000fd5b505050506040513d6000823e601f3d908101601f19168201604052611e7c9190810190614d24565b604051631f5dcce360e31b815290915073__$122c978fc1a65ab69c7a0ac6b07fd0b0cd$__9063faee671890611ebd90604590309087908790600401614e27565b602060405180830381865af4158015611eda573d6000803e3d6000fd5b505050506040513d601f19601f82011682018060405250810190611efe9190614941565b50611f076135b0565b6001600160a01b031630336001600160a01b03167ff851a1e85477b818fc72ad517ea622cc316f10f67d61c9e740adc151a8b413948d8d8d8d89611f4e604a5461ffff1690565b604051611f6096959493929190614eff565b60405180910390a450508015611f7d57604a805462ff0000191690555b5050505050505050565b6040517f4c4956454c595f53595354454d5f41444d494e5f524f4c4500000000000000006020820152600090603801610fee565b6040516e4c4956454c595f44414f5f524f4c4560881b6020820152600090602f01610fee565b604051630e8a623f60e31b8152604560048201526024810182905260609060009073__$6309dd7d2656d358c392b35d5c4e4605f9$__9063745311f890604401600060405180830381865af415801561203e573d6000803e3d6000fd5b505050506040513d6000823e601f3d908101601f191682016040526120669190810190614f44565b91509150915091565b604051637134bb4560e01b81526045600482015260248101849052604481018390526001600160e01b03198216606482015260009073__$122c978fc1a65ab69c7a0ac6b07fd0b0cd$__90637134bb45906084015b602060405180830381865af41580156120e1573d6000803e3d6000fd5b505050506040513d601f19601f820116820180604052508101906121059190614974565b949350505050565b604051637cc5941d60e01b8152604560048201526024810183905281151560448201526000908190819073__$122c978fc1a65ab69c7a0ac6b07fd0b0cd$__90637cc5941d906064016040805180830381865af4158015612172573d6000803e3d6000fd5b505050506040513d601f19601f820116820180604052508101906121969190614f8a565b91509150806121a23390565b6001600160a01b0316867f354501e3216e5f916d4d35ef255a577d106a7eab306488227783a837dc042a4e876040516121df911515815260200190565b60405180910390a4509392505050565b60606001600160a01b037f00000000000000000000000000000000000000000000000000000000000000001630036122395760405162461bcd60e51b81526004016115e290614c21565b7f00000000000000000000000000000000000000000000000000000000000000006001600160a01b031661226b6135b0565b6001600160a01b0316146122915760405162461bcd60e51b81526004016115e290614c50565b60045460ff16156122b45760405162461bcd60e51b81526004016115e290614c7e565b600454610100900460ff166123035760405162461bcd60e51b8152602060048201526015602482015274155c19dc9859194810d85b1b0814995a9958dd1959605a1b60448201526064016115e2565b61230c8461388e565b612105848484613955565b604051734c4956454c595f47454e4552414c5f5245414c4d60601b6020820152600090603401610fee565b60045460ff16156123655760405162461bcd60e51b81526004016115e290614c7e565b61237563756af45f60e01b6135d1565b6123c15760405162461bcd60e51b815260206004820152601a60248201527f57697468647261772042616c616e636520466f7262696464656e00000000000060448201526064016115e2565b6040516001600160a01b038216904780156108fc02916000818181858888f193505050501580156123f6573d6000803e3d6000fd5b5050565b60008073__$122c978fc1a65ab69c7a0ac6b07fd0b0cd$__63453dd6dc60458787876040518563ffffffff1660e01b815260040161243b949392919061491c565b602060405180830381865af4158015612458573d6000803e3d6000fd5b505050506040513d601f19601f8201168201806040525081019061247c9190614941565b9050336001600160a01b031683867fea00ff399a342f54b82233841f91faa5677300e901667e010e9f22aea1ae59318785604051610fb592919061495a565b60006112e130613ba6565b6000336001600160a01b0316837ffe1617b569bd167ab40b31e034f68e32656219dbe4ab9469a00660550fec72c884604051612506911515815260200190565b60405180910390a3604051630549f02d60e01b81526045600482015260248101849052821515604482015273__$bc3cfbaf1827cbc66e3e608da812a405b7$__90630549f02d906064016110c7565b6040516310f0750160e01b8152604560048201526024810182905260009073__$c43b1d7058274a71a9734d16e6b6586431$__906310f0750190604401611047565b6040516000906001600160a01b03831690849033907fd992f85df7a0be47c44b0be141be17eefd360033a4ce05b5458fba27b7781999908590a46040516389d4da6560e01b815260456004820152602481018490526001600160a01b038316604482015273__$340101a45712d3611711048793ce62ace0$__906389d4da65906064016110c7565b60405163327c496560e11b8152604560048201526024810182905260009073__$c43b1d7058274a71a9734d16e6b6586431$__906364f892ca90604401611047565b60405163be74825b60e01b8152604560048201526001600160a01b038216602482015260009073__$c43b1d7058274a71a9734d16e6b6586431$__9063be74825b90604401611047565b6040805160c081018252600080825260208201819052818301819052606082018190526080820181905260a0820152905163399d749f60e11b8152604560048201526024810183905273__$122c978fc1a65ab69c7a0ac6b07fd0b0cd$__9063733ae93e9060440160c060405180830381865af4158015612730573d6000803e3d6000fd5b505050506040513d601f19601f82011682018060405250810190610eee9190614fb8565b604051636c203fff60e11b8152604560048201526001600160a01b038216602482015260009073__$c43b1d7058274a71a9734d16e6b6586431$__9063d8407ffe90604401611047565b60008073__$340101a45712d3611711048793ce62ace0$__633859eb7f6045888888886040518663ffffffff1660e01b81526004016127e1959493929190615049565b602060405180830381865af41580156127fe573d6000803e3d6000fd5b505050506040513d601f19601f820116820180604052508101906128229190614941565b90508585604051612834929190614d14565b6040518091039020816128443390565b6001600160a01b03167f539b07dddd6bd9ffefa3d951a9467d78948cbe1a8d13be00e7376842a83a598187876040516128899291909182521515602082015260400190565b60405180910390a495945050505050565b6040516337b3cdd760e21b815260009073__$c43b1d7058274a71a9734d16e6b6586431$__9063decf375c906110c79060459087908790600401614991565b60008073__$122c978fc1a65ab69c7a0ac6b07fd0b0cd$__63b0c25575604586866040518463ffffffff1660e01b815260040161291893929190614991565b602060405180830381865af4158015612935573d6000803e3d6000fd5b505050506040513d601f19601f820116820180604052508101906129599190614941565b9050336001600160a01b0316847fa6234dfea6da9d63d0505ba9b61ac8405dfd897089208859cda18011c4847d69858460405161299792919061495a565b60405180910390a35060019392505050565b6000336001600160a01b0316837fe595d6b009cbfd06bfdfc4b7c06799f0e0b08fb2c6f5fa6e28a9aac2495440f9846040516129e9911515815260200190565b60405180910390a3604051637c95bcdf60e01b81526045600482015260248101849052821515604482015273__$6309dd7d2656d358c392b35d5c4e4605f9$__90637c95bcdf906064016110c7565b604051631f9471ef60e01b81526045600482015260248101829052606090600090819073__$340101a45712d3611711048793ce62ace0$__90631f9471ef90604401600060405180830381865af4158015612a97573d6000803e3d6000fd5b505050506040513d6000823e601f3d908101601f191682016040526113a1919081019061507c565b604051633bcd353d60e11b8152604560048201526024810182905260009073__$c43b1d7058274a71a9734d16e6b6586431$__9063779a6a7a90604401611047565b604051630243e34b60e51b815260456004820152602481018490526001600160a01b03831660448201526001600160e01b03198216606482015260009073__$c43b1d7058274a71a9734d16e6b6586431$__9063487c6960906084016120c4565b604051630938ae7160e01b815260456004820152602481018390526001600160a01b038216604482015260009073__$340101a45712d3611711048793ce62ace0$__90630938ae71906064016110c7565b604051631f00af7b60e11b81526045600482015260248101839052604481018290526000908190819073__$122c978fc1a65ab69c7a0ac6b07fd0b0cd$__90633e015ef6906064016040805180830381865af4158015612c17573d6000803e3d6000fd5b505050506040513d601f19601f82011682018060405250810190612c3b9190614f8a565b9150915083612c473390565b6001600160a01b0316867fa0eaa0025d4f12545803a03c369115c59f885df7b5fc07a6393438827dbf51b7846040516121df91815260200190565b604051631e7abee360e21b815260456004820152602481018390526044810182905260009073__$bc3cfbaf1827cbc66e3e608da812a405b7$__906379eafb8c906064016110c7565b60006001600160a01b037f0000000000000000000000000000000000000000000000000000000000000000163003612d155760405162461bcd60e51b81526004016115e290614c21565b7f00000000000000000000000000000000000000000000000000000000000000006001600160a01b0316612d476135b0565b6001600160a01b031614612d6d5760405162461bcd60e51b81526004016115e290614c50565b60045460ff1615612d905760405162461bcd60e51b81526004016115e290614c7e565b612da063d9dc1f1960e01b6135d1565b612dec5760405162461bcd60e51b815260206004820152601760248201527f5365744c6f63616c41646d696e20466f7262696464656e00000000000000000060448201526064016115e2565b6001600160a01b038216612e345760405162461bcd60e51b815260206004820152600f60248201526e1059191c995cdcc8125b9d985b1a59608a1b60448201526064016115e2565b612e3d82613be5565b506001919050565b60405163c3203fd160e01b81526045600482015260248101839052604481018290526000908190819073__$340101a45712d3611711048793ce62ace0$__9063c3203fd1906064016040805180830381865af4158015612ea9573d6000803e3d6000fd5b505050506040513d601f19601f82011682018060405250810190612ecd9190614f8a565b915091508385612eda3390565b6001600160a01b03167f970f60a11b3302f55122bdb3e2de766d28491b40fe0a2a6d04da71e5ab577cb9846040516121df91815260200190565b60405163d95140eb60e01b8152604560048201526024810182905260009073__$c43b1d7058274a71a9734d16e6b6586431$__9063d95140eb90604401611047565b6040516000906001600160a01b03831690849033907f1d31fe42f06d4c1f16f6cb7b5682f1d6743641a9e1412fa0258f6776c5b943ee908590a4604051633d58057760e01b815260456004820152602481018490526001600160a01b038316604482015273__$340101a45712d3611711048793ce62ace0$__90633d580577906064016110c7565b604051633e5c6e9760e11b8152604560048201526024810182905260609073__$340101a45712d3611711048793ce62ace0$__90637cb8dd2e90604401600060405180830381865af4158015613038573d6000803e3d6000fd5b505050506040513d6000823e601f3d908101601f19168201604052610eee91908101906150cb565b6040516333064c8960e11b8152604560048201526024810182905260009073__$c43b1d7058274a71a9734d16e6b6586431$__9063660c991290604401611047565b600080600073__$122c978fc1a65ab69c7a0ac6b07fd0b0cd$__63099a0c2e60458a8a8a8a8a6040518763ffffffff1660e01b81526004016130e996959493929190615259565b6040805180830381865af4158015613105573d6000803e3d6000fd5b505050506040513d601f19601f820116820180604052508101906131299190615322565b91509150806001600160a01b0316826001600160a01b0316897f2acec3419c1d10dab06d0715f556e96b344f2092a52a23fb192b4b89f5b7cf42896040013560405161317791815260200190565b60405180910390a4509695505050505050565b604051633d2003d360e21b8152604560048201526024810183905281151560448201526000908190819073__$340101a45712d3611711048793ce62ace0$__9063f4800f4c906064016040805180830381865af41580156131ef573d6000803e3d6000fd5b505050506040513d601f19601f820116820180604052508101906132139190614f8a565b9150915080856132203390565b6001600160a01b03167faaf3a0e62c1102e283a5a18e81d678b9ce6f4f043cc7afafee4f7f82b85330a2876040516121df911515815260200190565b6040516309f7398160e11b8152604560048201526024810182905260609073__$6309dd7d2656d358c392b35d5c4e4605f9$__906313ee73029060440161128d565b600080600073__$122c978fc1a65ab69c7a0ac6b07fd0b0cd$__6315922efe6045898989896040518663ffffffff1660e01b81526004016132e3959493929190615351565b6040805180830381865af41580156132ff573d6000803e3d6000fd5b505050506040513d601f19601f820116820180604052508101906133239190615415565b90925090506001600160a01b038116613342608088016060890161466a565b6001600160a01b0316837f11cf8f3561fae187c57df59424ecf5d3f444e138924944c77dcb68144c635731896040013560405161338191815260200190565b60405180910390a45095945050505050565b6000336001600160a01b0316837f552ce1fc1bc82a48cdc0636ff7162480d868c590f2e57c63c30a944f3a82ec36846040516133d3911515815260200190565b60405180910390a36040516315b18c7560e11b81526045600482015260248101849052821515604482015273__$bc3cfbaf1827cbc66e3e608da812a405b7$__90632b6318ea906064016110c7565b604051634ba8456360e01b815260456004820152602481018390526044810182905260009073__$6309dd7d2656d358c392b35d5c4e4605f9$__90634ba84563906064016110c7565b60006112e1613c5c565b60405163470e456560e01b8152604560048201526001600160a01b038216602482015260009073__$c43b1d7058274a71a9734d16e6b6586431$__9063470e456590604401611047565b60405163fbe97e1960e01b8152604560048201526001600160a01b038216602482015260009073__$c43b1d7058274a71a9734d16e6b6586431$__9063fbe97e1990604401611047565b60006112e1613850565b60405163e8a0df2d60e01b8152604560048201526001600160a01b038216602482015260009073__$c43b1d7058274a71a9734d16e6b6586431$__9063e8a0df2d90604401611047565b90565b60006001600160e01b0319821663748be05360e01b148061359157506001600160e01b031982166352d1902d60e01b145b80610eee57506301ffc9a760e01b6001600160e01b0319831614610eee565b60006000805160206154e08339815191525b546001600160a01b0316919050565b600080546001600160a01b031630036136bd5760006363d59cf360e11b6135f730613ba6565b338560405160240161360b9392919061543a565b60408051601f198184030181529190526020810180516001600160e01b03166001600160e01b0319909316929092179091529050600061368861364c6135b0565b836040518060400160405280601d81526020017f44656c656761746563616c6c20686173416363657373204661696c6564000000815250613caf565b905080600182516136999190615463565b815181106136a9576136a9615488565b60209101015160f81c600114949350505050565b6000546001600160a01b031663c7ab39e66136d730613ba6565b33856040518463ffffffff1660e01b81526004016136f79392919061543a565b602060405180830381865afa158015611064573d6000803e3d6000fd5b600080546001600160a01b031630036137da57600063e25d75f060e01b60035460405160240161374691815260200190565b60408051601f198184030181529190526020810180516001600160e01b03166001600160e01b031990931692909217909152905060006137a66137876135b0565b836040518060600160405280602581526020016154bb60259139613caf565b905080600182516137b79190615463565b815181106137c7576137c7615488565b60209101015160f81c6001149392505050565b600054600354604051630e25d75f60e41b81526001600160a01b039092169163e25d75f09161380f9160040190815260200190565b602060405180830381865afa15801561382c573d6000803e3d6000fd5b505050506040513d601f19601f820116820180604052508101906112e19190614974565b60007fb53127684a568b3173ae13b9f8a6016e243e63b6e8ee1178d6a717850b5d61036135c2565b613886868686868686613d78565b505050505050565b6138966135b0565b6001600160a01b0316816001600160a01b0316036138f65760405162461bcd60e51b815260206004820152601a60248201527f496c6c6567616c204e657720496d706c656d656e746174696f6e00000000000060448201526064016115e2565b613906637147855d60e01b6135d1565b6139525760405162461bcd60e51b815260206004820152601960248201527f5570677261646520436f6e7465787420466f7262696464656e0000000000000060448201526064016115e2565b50565b60607f4910fdfa16fed3260ed0e7147f7cc6da11a60208b5b9406d12a635614ffd91435460ff161561399f5761398a84613f83565b50604080516000815260208101909152610fc3565b836001600160a01b03166352d1902d6040518163ffffffff1660e01b8152600401602060405180830381865afa9250505080156139f9575060408051601f3d908101601f191682019092526139f691810190614941565b60015b613a3d5760405162461bcd60e51b8152602060048201526015602482015274125b1b1959d85b0815555414c810dbdb9d1c9858dd605a1b60448201526064016115e2565b6000805160206154e08339815191528114613a925760405162461bcd60e51b8152602060048201526015602482015274125b9d985b1a590815555414c810dbdb9d1c9858dd605a1b60448201526064016115e2565b506040516301ffc9a760e01b815263748be05360e01b60048201526001600160a01b038516906301ffc9a790602401602060405180830381865afa925050508015613afa575060408051601f3d908101601f19168201909252613af791810190614974565b60015b613b465760405162461bcd60e51b815260206004820152601760248201527f496c6c6567616c204950726f787920436f6e747261637400000000000000000060448201526064016115e2565b80613b935760405162461bcd60e51b815260206004820152601760248201527f496e76616c6964204950726f787920436f6e747261637400000000000000000060448201526064016115e2565b50613b9f848484614004565b9050610fc3565b6040516bffffffffffffffffffffffff19606083901b166020820152600090603401604051602081830303815290604052805190602001209050919050565b7fb53127684a568b3173ae13b9f8a6016e243e63b6e8ee1178d6a717850b5d610380546001600160a01b0383166001600160a01b031990911681179091556040805191825251309133917f54ab0d18de7958786ba1ad85966d59baa2b395455f0530dcdcfd732e6af539e29181900360200190a350565b600154600254604080517f8b73c3c69bb8fe3d512ecc4cf759cc79239f7b179b0ffacaa9a75d522b39400f60208201529081019290925260608201524660808201523060a082015260009060c001610fee565b60606001600160a01b0384163b613d035760405162461bcd60e51b8152602060048201526018602482015277496c6c6567616c20436f6e7472616374204164647265737360401b60448201526064016115e2565b600080856001600160a01b031685604051613d1e919061549e565b600060405180830381855af49150503d8060008114613d59576040519150601f19603f3d011682016040523d82523d6000602084013e613d5e565b606091505b5091509150613d6e82828661406e565b9695505050505050565b604a5462010000900460ff16613dd05760405162461bcd60e51b815260206004820152601960248201527f436f6e7472616374204e6f7420496e697469616c697a696e670000000000000060448201526064016115e2565b8585604051602001613de3929190614d14565b60408051601f19818403018152908290528051602091820120600155613e0d918691869101614d14565b60408051601f19818403018152919052805160209091012060025560038290556001600160a01b038116613e5257600080546001600160a01b03191630179055613f6f565b6040516301ffc9a760e01b81526301fe701d60e21b60048201526001600160a01b038216906301ffc9a790602401602060405180830381865afa925050508015613eb9575060408051601f3d908101601f19168201909252613eb691810190614974565b60015b613f055760405162461bcd60e51b815260206004820152601c60248201527f496c6c6567616c20416363657373436f6e74726f6c4d616e616765720000000060448201526064016115e2565b80613f525760405162461bcd60e51b815260206004820152601c60248201527f496e76616c696420416363657373436f6e74726f6c4d616e616765720000000060448201526064016115e2565b50600080546001600160a01b0319166001600160a01b0383161790555b6004805461ffff1916905561388633613be5565b6001600160a01b0381163b613fd55760405162461bcd60e51b8152602060048201526018602482015277496c6c6567616c20436f6e7472616374204164647265737360401b60448201526064016115e2565b6000805160206154e083398151915280546001600160a01b0319166001600160a01b0392909216919091179055565b606061400f846140a7565b60008351118061401c5750815b1561405757613b9f84846040518060400160405280601381526020017211195b1959d85d1958d85b1b0811985a5b1959606a1b815250613caf565b505060408051600081526020810190915292915050565b6060831561407d575081610fc3565b82511561408d5782518084602001fd5b8160405162461bcd60e51b81526004016115e29190614657565b6140b081613f83565b6040516001600160a01b03821690309033907f354bd4b6eb65d64e6c79c53fa4f983a5e6bec4824ce4627c71be0b2722f4917e90600090a450565b6001600160e01b03198116811461395257600080fd5b60006020828403121561411357600080fd5b8135610fc3816140eb565b60008060006060848603121561413357600080fd5b833592506020840135614145816140eb565b929592945050506040919091013590565b60006020828403121561416857600080fd5b5035919050565b6000806040838503121561418257600080fd5b823591506020830135614194816140eb565b809150509250929050565b6020808252825182820181905260009190848201906040850190845b818110156141e15783516001600160e01b031916835292840192918401916001016141bb565b50909695505050505050565b6020808252825182820181905260009190848201906040850190845b818110156141e157835183529284019291840191600101614209565b60005b83811015614240578181015183820152602001614228565b8381111561424f576000848401525b50505050565b6000815180845261426d816020860160208601614225565b601f01601f19169290920160200192915050565b6060815260006142946060830186614255565b931515602083015250901515604090910152919050565b60008083601f8401126142bd57600080fd5b5081356001600160401b038111156142d457600080fd5b6020830191508360208285010111156142ec57600080fd5b9250929050565b801515811461395257600080fd5b60008060006040848603121561431657600080fd5b83356001600160401b0381111561432c57600080fd5b614338868287016142ab565b909450925050602084013561434c816142f3565b809150509250925092565b60006020828403121561436957600080fd5b8135610fc3816142f3565b6000806000806060858703121561438a57600080fd5b84356001600160401b038111156143a057600080fd5b6143ac878288016142ab565b90955093505060208501356143c0816142f3565b915060408501356143d0816142f3565b939692955090935050565b6001600160a01b038116811461395257600080fd5b60008060008060008060006080888a03121561440b57600080fd5b87356001600160401b038082111561442257600080fd5b61442e8b838c016142ab565b909950975060208a013591508082111561444757600080fd5b6144538b838c016142ab565b909750955060408a013591508082111561446c57600080fd5b506144798a828b016142ab565b909450925050606088013561448d816143db565b8091505092959891949750929550565b6040815260006144b06040830185614255565b905082151560208301529392505050565b6000806000606084860312156144d657600080fd5b8335925060208401359150604084013561434c816140eb565b6000806040838503121561450257600080fd5b823591506020830135614194816142f3565b634e487b7160e01b600052604160045260246000fd5b604051606081016001600160401b038111828210171561454c5761454c614514565b60405290565b604051601f8201601f191681016001600160401b038111828210171561457a5761457a614514565b604052919050565b60006001600160401b0382111561459b5761459b614514565b50601f01601f191660200190565b600082601f8301126145ba57600080fd5b81356145cd6145c882614582565b614552565b8181528460208386010111156145e257600080fd5b816020850160208301376000918101602001919091529392505050565b60008060006060848603121561461457600080fd5b833561461f816143db565b925060208401356001600160401b0381111561463a57600080fd5b614646868287016145a9565b925050604084013561434c816142f3565b602081526000610fc36020830184614255565b60006020828403121561467c57600080fd5b8135610fc3816143db565b6000806040838503121561469a57600080fd5b823591506020830135614194816143db565b600080600080606085870312156146c257600080fd5b84356001600160401b038111156146d857600080fd5b6146e4878288016142ab565b9095509350506020850135915060408501356143d0816142f3565b6060815260006147126060830186614255565b602083019490945250901515604090910152919050565b60008060006060848603121561473e57600080fd5b833592506020840135614750816143db565b9150604084013561434c816140eb565b6000806040838503121561477357600080fd5b50508035926020909101359150565b6020808252825182820181905260009190848201906040850190845b818110156141e15783516001600160a01b03168352928401929184019160010161479e565b600060a082840312156147d557600080fd5b50919050565b60008083601f8401126147ed57600080fd5b5081356001600160401b0381111561480457600080fd5b6020830191508360208260051b85010111156142ec57600080fd5b6000806000806000610100868803121561483857600080fd5b8535945060208601356001600160401b038082111561485657600080fd5b61486289838a016145a9565b95506148718960408a016147c3565b945060e088013591508082111561488757600080fd5b50614894888289016147db565b969995985093965092949392505050565b60008060008060e085870312156148bb57600080fd5b84356001600160401b03808211156148d257600080fd5b6148de888389016145a9565b95506148ed88602089016147c3565b945060c087013591508082111561490357600080fd5b50614910878288016147db565b95989497509550505050565b93845260208401929092526001600160e01b0319166040830152606082015260800190565b60006020828403121561495357600080fd5b5051919050565b6001600160e01b0319929092168252602082015260400190565b60006020828403121561498657600080fd5b8151610fc3816142f3565b92835260208301919091526001600160e01b031916604082015260600190565b60006001600160401b038211156149ca576149ca614514565b5060051b60200190565b600082601f8301126149e557600080fd5b815160206149f56145c8836149b1565b82815260059290921b84018101918181019086841115614a1457600080fd5b8286015b84811015614a38578051614a2b816140eb565b8352918301918301614a18565b509695505050505050565b600060208284031215614a5557600080fd5b81516001600160401b03811115614a6b57600080fd5b612105848285016149d4565b60006020808385031215614a8a57600080fd5b82516001600160401b03811115614aa057600080fd5b8301601f81018513614ab157600080fd5b8051614abf6145c8826149b1565b81815260059190911b82018301908381019087831115614ade57600080fd5b928401925b82841015614afc57835182529284019290840190614ae3565b979650505050505050565b600082601f830112614b1857600080fd5b8151614b266145c882614582565b818152846020838601011115614b3b57600080fd5b612105826020830160208701614225565b600080600060608486031215614b6157600080fd5b83516001600160401b03811115614b7757600080fd5b614b8386828701614b07565b9350506020840151614b94816142f3565b604085015190925061434c816142f3565b81835281816020850137506000828201602090810191909152601f909101601f19169091010190565b848152606060208201526000614be8606083018587614ba5565b9050821515604083015295945050505050565b604081526000614c0f604083018587614ba5565b90508215156020830152949350505050565b602080825260159082015274125b1b1959d85b0810dbdb9d1c9858dd0810d85b1b605a1b604082015260600190565b602080825260149082015273141c9bde1e4810d85b1b195908125b9d985b1a5960621b604082015260600190565b60208082526017908201527f536166654d6f64653a2043616c6c2052656a6563746564000000000000000000604082015260600190565b858152608060208201526000614ccf608083018688614ba5565b9315156040830152509015156060909101529392505050565b606081526000614cfc606083018688614ba5565b93151560208301525090151560409091015292915050565b8183823760009101908152919050565b60006020808385031215614d3757600080fd5b82516001600160401b0380821115614d4e57600080fd5b818501915085601f830112614d6257600080fd5b8151614d706145c8826149b1565b81815260059190911b83018401908481019088831115614d8f57600080fd5b8585015b83811015614e1a57805185811115614dab5760008081fd5b86016060818c03601f1901811315614dc35760008081fd5b614dcb61452a565b89830151815260408084015189811115614de55760008081fd5b614df38f8d838801016149d4565b838d0152509282015192614e06846142f3565b810192909252508352918601918601614d93565b5098975050505050505050565b60006080808301878452602060018060a01b03881681860152604087818701526060848188015283885180865260a08901915060a08160051b8a01019550848a016000805b83811015614eeb578b8903609f19018552825180518a5288810151898b018890528051888c01819052908a019084908d8d01905b80831015614eca5783516001600160e01b0319168252928c019260019290920191908c0190614ea0565b50928a015115159b8a019b909b525098509387019391870191600101614e6c565b50969e9d5050505050505050505050505050565b608081526000614f1360808301888a614ba5565b8281036020840152614f26818789614ba5565b91505083604083015261ffff83166060830152979650505050505050565b60008060408385031215614f5757600080fd5b82516001600160401b03811115614f6d57600080fd5b614f7985828601614b07565b9250506020830151614194816142f3565b60008060408385031215614f9d57600080fd5b8251614fa8816142f3565b6020939093015192949293505050565b600060c08284031215614fca57600080fd5b60405160c081018181106001600160401b0382111715614fec57614fec614514565b80604052508251815260208301516020820152604083015160408201526060830151615017816143db565b6060820152608083015161502a816142f3565b608082015260a083015161503d816142f3565b60a08201529392505050565b858152608060208201526000615063608083018688614ba5565b6040830194909452509015156060909101529392505050565b60008060006060848603121561509157600080fd5b83516001600160401b038111156150a757600080fd5b6150b386828701614b07565b93505060208401519150604084015161434c816142f3565b600060208083850312156150de57600080fd5b82516001600160401b038111156150f457600080fd5b8301601f8101851361510557600080fd5b80516151136145c8826149b1565b81815260059190911b8201830190838101908783111561513257600080fd5b928401925b82841015614afc57835161514a816143db565b82529284019290840190615137565b803582526020810135602083015260408101356040830152606081013561517f816143db565b6001600160a01b03166060830152608081013561519b816142f3565b8015156080840152505050565b6000808335601e198436030181126151bf57600080fd5b83016020810192503590506001600160401b038111156151de57600080fd5b8060051b36038213156142ec57600080fd5b8183526000602080850194508260005b8581101561522f578135615213816140eb565b6001600160e01b03191687529582019590820190600101615200565b509495945050505050565b60008235605e1983360301811261525057600080fd5b90910192915050565b6000610120888352602088818501526040828186015261527b8386018a614255565b9250606061528b8187018a615159565b858403610100870152868452828401600588901b85018401896000805b8b81101561530d57888403601f190185526152c3838e61523a565b803585526152d3898201826151a8565b888b8801526152e589880182846151f0565b928a013592915050600382106152f9578384fd5b9488015293870193918701916001016152a8565b50919f9e505050505050505050505050505050565b6000806040838503121561533557600080fd5b8251615340816143db565b6020840151909250614194816143db565b60006101008783526020818185015261536c82850189614255565b9150604061537c81860189615159565b84830360e0860152858352818301600587901b840183018860005b8981101561540357868303601f190184526153b2828c61523a565b6060813585526153c4888301836151a8565b828a8801526153d683880182846151f0565b925050508682013591506153e9826142f3565b901515938601939093529285019290850190600101615397565b50909c9b505050505050505050505050565b6000806040838503121561542857600080fd5b825191506020830151614194816143db565b9283526001600160a01b039190911660208301526001600160e01b031916604082015260600190565b60008282101561548357634e487b7160e01b600052601160045260246000fd5b500390565b634e487b7160e01b600052603260045260246000fd5b600082516154b0818460208701614225565b919091019291505056fe44656c656761746563616c6c2069735265616c6d55706772616461626c65204661696c6564360894a13ba1a3210667c828492db98dca3e2076cc3735a920a3ca505d382bbca26469706673582212207cf62b12fc267195c9cf1b83b0528771e5e1a4fe2afd80e9699a28e250ceca3064736f6c634300080f0033",
  "libraries": {
    "LContextManagement": "0xe7f1725E7734CE288F8367e1Bb143E90bb3F0512",
    "LAccessControl": "0x5FbDB2315678afecb367f032d93F642f64180aa3",
    "LRealmManagement": "0xCf7Ed3AccA5a467e9e704C703E8D87F634fB0Fc9",
    "LGroupManagement": "0xDc64a140Aa3E981100a9becA4E685f962f0cF6C9",
    "LRoleManagement": "0x9fE46736679d2D9a65F0992F2272dE9f3c7fa6e0"
  },
  "devdoc": {
    "kind": "dev",
    "methods": {
      "hasAccess(bytes32,address,bytes4)": {
        "details": "Function called by apps to check ACL",
        "returns": {
          "_0": "boolean indicating whether the ACL allows"
        }
      },
      "proxiableUUID()": {
        "details": "Implementation of the ERC1822 {proxiableUUID} function. This returns the storage slot used by the implementation. It is used to validate that the this implementation remains valid after an upgrade. IMPORTANT: A proxy pointing at a proxiable contract should not be considered proxiable itself, because this risks bricking a proxy that upgrades to it, by delegating to itself until out of gas. Thus it is critical that this function revert if invoked through a proxy. This is guaranteed by the `notDelegated` modifier."
      },
      "supportsInterface(bytes4)": {
        "details": "See {IERC165-supportsInterface}."
      }
    },
    "version": 1
  },
  "userdoc": {
    "kind": "user",
    "methods": {},
    "version": 1
  },
  "storageLayout": {
    "storage": [
      {
        "astId": 20153,
        "contract": "src/contracts/acl/AccessControlManager.sol:AccessControlManager",
        "label": "_accessControlManager",
        "offset": 0,
        "slot": "0",
        "type": "t_address"
      },
      {
        "astId": 20155,
        "contract": "src/contracts/acl/AccessControlManager.sol:AccessControlManager",
        "label": "_domainName",
        "offset": 0,
        "slot": "1",
        "type": "t_bytes32"
      },
      {
        "astId": 20157,
        "contract": "src/contracts/acl/AccessControlManager.sol:AccessControlManager",
        "label": "_domainVersion",
        "offset": 0,
        "slot": "2",
        "type": "t_bytes32"
      },
      {
        "astId": 20159,
        "contract": "src/contracts/acl/AccessControlManager.sol:AccessControlManager",
        "label": "_domainRealm",
        "offset": 0,
        "slot": "3",
        "type": "t_bytes32"
      },
      {
        "astId": 20161,
        "contract": "src/contracts/acl/AccessControlManager.sol:AccessControlManager",
        "label": "_isSafeMode",
        "offset": 0,
        "slot": "4",
        "type": "t_bool"
      },
      {
        "astId": 20163,
        "contract": "src/contracts/acl/AccessControlManager.sol:AccessControlManager",
        "label": "_isUpgradable",
        "offset": 1,
        "slot": "4",
        "type": "t_bool"
      },
      {
        "astId": 20168,
        "contract": "src/contracts/acl/AccessControlManager.sol:AccessControlManager",
        "label": "__gap",
        "offset": 0,
        "slot": "5",
        "type": "t_array(t_uint256)64_storage"
      },
      {
        "astId": 9470,
        "contract": "src/contracts/acl/AccessControlManager.sol:AccessControlManager",
        "label": "_dataMaps",
        "offset": 0,
        "slot": "69",
        "type": "t_struct(DataMaps)9467_storage"
      },
      {
        "astId": 20341,
        "contract": "src/contracts/acl/AccessControlManager.sol:AccessControlManager",
        "label": "_initialized",
        "offset": 0,
        "slot": "74",
        "type": "t_uint16"
      },
      {
        "astId": 20344,
        "contract": "src/contracts/acl/AccessControlManager.sol:AccessControlManager",
        "label": "_initializing",
        "offset": 2,
        "slot": "74",
        "type": "t_bool"
      }
    ],
    "types": {
      "t_address": {
        "encoding": "inplace",
        "label": "address",
        "numberOfBytes": "20"
      },
      "t_array(t_bytes32)dyn_storage": {
        "base": "t_bytes32",
        "encoding": "dynamic_array",
        "label": "bytes32[]",
        "numberOfBytes": "32"
      },
      "t_array(t_uint256)64_storage": {
        "base": "t_uint256",
        "encoding": "inplace",
        "label": "uint256[64]",
        "numberOfBytes": "2048"
      },
      "t_bool": {
        "encoding": "inplace",
        "label": "bool",
        "numberOfBytes": "1"
      },
      "t_bytes32": {
        "encoding": "inplace",
        "label": "bytes32",
        "numberOfBytes": "32"
      },
      "t_bytes4": {
        "encoding": "inplace",
        "label": "bytes4",
        "numberOfBytes": "4"
      },
      "t_enum(Status)9390": {
        "encoding": "inplace",
        "label": "enum AccessControlStorage.Status",
        "numberOfBytes": "1"
      },
      "t_mapping(t_address,t_mapping(t_bytes32,t_enum(Status)9390))": {
        "encoding": "mapping",
        "key": "t_address",
        "label": "mapping(address => mapping(bytes32 => enum AccessControlStorage.Status))",
        "numberOfBytes": "32",
        "value": "t_mapping(t_bytes32,t_enum(Status)9390)"
      },
      "t_mapping(t_bytes32,t_enum(Status)9390)": {
        "encoding": "mapping",
        "key": "t_bytes32",
        "label": "mapping(bytes32 => enum AccessControlStorage.Status)",
        "numberOfBytes": "32",
        "value": "t_enum(Status)9390"
      },
      "t_mapping(t_bytes32,t_struct(Context)9411_storage)": {
        "encoding": "mapping",
        "key": "t_bytes32",
        "label": "mapping(bytes32 => struct AccessControlStorage.Context)",
        "numberOfBytes": "32",
        "value": "t_struct(Context)9411_storage"
      },
      "t_mapping(t_bytes32,t_struct(Group)9439_storage)": {
        "encoding": "mapping",
        "key": "t_bytes32",
        "label": "mapping(bytes32 => struct AccessControlStorage.Group)",
        "numberOfBytes": "32",
        "value": "t_struct(Group)9439_storage"
      },
      "t_mapping(t_bytes32,t_struct(Realm)9431_storage)": {
        "encoding": "mapping",
        "key": "t_bytes32",
        "label": "mapping(bytes32 => struct AccessControlStorage.Realm)",
        "numberOfBytes": "32",
        "value": "t_struct(Realm)9431_storage"
      },
      "t_mapping(t_bytes32,t_struct(Role)9421_storage)": {
        "encoding": "mapping",
        "key": "t_bytes32",
        "label": "mapping(bytes32 => struct AccessControlStorage.Role)",
        "numberOfBytes": "32",
        "value": "t_struct(Role)9421_storage"
      },
      "t_mapping(t_bytes32,t_uint256)": {
        "encoding": "mapping",
        "key": "t_bytes32",
        "label": "mapping(bytes32 => uint256)",
        "numberOfBytes": "32",
        "value": "t_uint256"
      },
      "t_mapping(t_bytes4,t_struct(RoleStat)9396_storage)": {
        "encoding": "mapping",
        "key": "t_bytes4",
        "label": "mapping(bytes4 => struct AccessControlStorage.RoleStat)",
        "numberOfBytes": "32",
        "value": "t_struct(RoleStat)9396_storage"
      },
      "t_string_storage": {
        "encoding": "bytes",
        "label": "string",
        "numberOfBytes": "32"
      },
      "t_struct(AddressSet)17576_storage": {
        "encoding": "inplace",
        "label": "struct LEnumerableSet.AddressSet",
        "members": [
          {
            "astId": 17575,
            "contract": "src/contracts/acl/AccessControlManager.sol:AccessControlManager",
            "label": "_inner",
            "offset": 0,
            "slot": "0",
            "type": "t_struct(Set)17275_storage"
          }
        ],
        "numberOfBytes": "64"
      },
      "t_struct(Bytes32Set)17469_storage": {
        "encoding": "inplace",
        "label": "struct LEnumerableSet.Bytes32Set",
        "members": [
          {
            "astId": 17468,
            "contract": "src/contracts/acl/AccessControlManager.sol:AccessControlManager",
            "label": "_inner",
            "offset": 0,
            "slot": "0",
            "type": "t_struct(Set)17275_storage"
          }
        ],
        "numberOfBytes": "64"
      },
      "t_struct(Context)9411_storage": {
        "encoding": "inplace",
        "label": "struct AccessControlStorage.Context",
        "members": [
          {
            "astId": 9398,
            "contract": "src/contracts/acl/AccessControlManager.sol:AccessControlManager",
            "label": "realm",
            "offset": 0,
            "slot": "0",
            "type": "t_bytes32"
          },
          {
            "astId": 9400,
            "contract": "src/contracts/acl/AccessControlManager.sol:AccessControlManager",
            "label": "smca",
            "offset": 0,
            "slot": "1",
            "type": "t_address"
          },
          {
            "astId": 9402,
            "contract": "src/contracts/acl/AccessControlManager.sol:AccessControlManager",
            "label": "isEnabled",
            "offset": 20,
            "slot": "1",
            "type": "t_bool"
          },
          {
            "astId": 9407,
            "contract": "src/contracts/acl/AccessControlManager.sol:AccessControlManager",
            "label": "resources",
            "offset": 0,
            "slot": "2",
            "type": "t_mapping(t_bytes4,t_struct(RoleStat)9396_storage)"
          },
          {
            "astId": 9410,
            "contract": "src/contracts/acl/AccessControlManager.sol:AccessControlManager",
            "label": "funcSet",
            "offset": 0,
            "slot": "3",
            "type": "t_struct(Bytes32Set)17469_storage"
          }
        ],
        "numberOfBytes": "160"
      },
      "t_struct(DataMaps)9467_storage": {
        "encoding": "inplace",
        "label": "struct AccessControlStorage.DataMaps",
        "members": [
          {
            "astId": 9446,
            "contract": "src/contracts/acl/AccessControlManager.sol:AccessControlManager",
            "label": "accountMap",
            "offset": 0,
            "slot": "0",
            "type": "t_mapping(t_address,t_mapping(t_bytes32,t_enum(Status)9390))"
          },
          {
            "astId": 9451,
            "contract": "src/contracts/acl/AccessControlManager.sol:AccessControlManager",
            "label": "ctxMap",
            "offset": 0,
            "slot": "1",
            "type": "t_mapping(t_bytes32,t_struct(Context)9411_storage)"
          },
          {
            "astId": 9456,
            "contract": "src/contracts/acl/AccessControlManager.sol:AccessControlManager",
            "label": "roleMap",
            "offset": 0,
            "slot": "2",
            "type": "t_mapping(t_bytes32,t_struct(Role)9421_storage)"
          },
          {
            "astId": 9461,
            "contract": "src/contracts/acl/AccessControlManager.sol:AccessControlManager",
            "label": "realmMap",
            "offset": 0,
            "slot": "3",
            "type": "t_mapping(t_bytes32,t_struct(Realm)9431_storage)"
          },
          {
            "astId": 9466,
            "contract": "src/contracts/acl/AccessControlManager.sol:AccessControlManager",
            "label": "groupMap",
            "offset": 0,
            "slot": "4",
            "type": "t_mapping(t_bytes32,t_struct(Group)9439_storage)"
          }
        ],
        "numberOfBytes": "160"
      },
      "t_struct(Group)9439_storage": {
        "encoding": "inplace",
        "label": "struct AccessControlStorage.Group",
        "members": [
          {
            "astId": 9433,
            "contract": "src/contracts/acl/AccessControlManager.sol:AccessControlManager",
            "label": "name",
            "offset": 0,
            "slot": "0",
            "type": "t_string_storage"
          },
          {
            "astId": 9435,
            "contract": "src/contracts/acl/AccessControlManager.sol:AccessControlManager",
            "label": "isEnabled",
            "offset": 0,
            "slot": "1",
            "type": "t_bool"
          },
          {
            "astId": 9438,
            "contract": "src/contracts/acl/AccessControlManager.sol:AccessControlManager",
            "label": "roleSet",
            "offset": 0,
            "slot": "2",
            "type": "t_struct(Bytes32Set)17469_storage"
          }
        ],
        "numberOfBytes": "128"
      },
      "t_struct(Realm)9431_storage": {
        "encoding": "inplace",
        "label": "struct AccessControlStorage.Realm",
        "members": [
          {
            "astId": 9423,
            "contract": "src/contracts/acl/AccessControlManager.sol:AccessControlManager",
            "label": "name",
            "offset": 0,
            "slot": "0",
            "type": "t_string_storage"
          },
          {
            "astId": 9425,
            "contract": "src/contracts/acl/AccessControlManager.sol:AccessControlManager",
            "label": "isEnabled",
            "offset": 0,
            "slot": "1",
            "type": "t_bool"
          },
          {
            "astId": 9427,
            "contract": "src/contracts/acl/AccessControlManager.sol:AccessControlManager",
            "label": "isUpgradable",
            "offset": 1,
            "slot": "1",
            "type": "t_bool"
          },
          {
            "astId": 9430,
            "contract": "src/contracts/acl/AccessControlManager.sol:AccessControlManager",
            "label": "ctxSet",
            "offset": 0,
            "slot": "2",
            "type": "t_struct(Bytes32Set)17469_storage"
          }
        ],
        "numberOfBytes": "128"
      },
      "t_struct(Role)9421_storage": {
        "encoding": "inplace",
        "label": "struct AccessControlStorage.Role",
        "members": [
          {
            "astId": 9413,
            "contract": "src/contracts/acl/AccessControlManager.sol:AccessControlManager",
            "label": "name",
            "offset": 0,
            "slot": "0",
            "type": "t_string_storage"
          },
          {
            "astId": 9415,
            "contract": "src/contracts/acl/AccessControlManager.sol:AccessControlManager",
            "label": "group",
            "offset": 0,
            "slot": "1",
            "type": "t_bytes32"
          },
          {
            "astId": 9417,
            "contract": "src/contracts/acl/AccessControlManager.sol:AccessControlManager",
            "label": "isEnabled",
            "offset": 0,
            "slot": "2",
            "type": "t_bool"
          },
          {
            "astId": 9420,
            "contract": "src/contracts/acl/AccessControlManager.sol:AccessControlManager",
            "label": "accountSet",
            "offset": 0,
            "slot": "3",
            "type": "t_struct(AddressSet)17576_storage"
          }
        ],
        "numberOfBytes": "160"
      },
      "t_struct(RoleStat)9396_storage": {
        "encoding": "inplace",
        "label": "struct AccessControlStorage.RoleStat",
        "members": [
          {
            "astId": 9392,
            "contract": "src/contracts/acl/AccessControlManager.sol:AccessControlManager",
            "label": "role",
            "offset": 0,
            "slot": "0",
            "type": "t_bytes32"
          },
          {
            "astId": 9395,
            "contract": "src/contracts/acl/AccessControlManager.sol:AccessControlManager",
            "label": "status",
            "offset": 0,
            "slot": "1",
            "type": "t_enum(Status)9390"
          }
        ],
        "numberOfBytes": "64"
      },
      "t_struct(Set)17275_storage": {
        "encoding": "inplace",
        "label": "struct LEnumerableSet.Set",
        "members": [
          {
            "astId": 17270,
            "contract": "src/contracts/acl/AccessControlManager.sol:AccessControlManager",
            "label": "_values",
            "offset": 0,
            "slot": "0",
            "type": "t_array(t_bytes32)dyn_storage"
          },
          {
            "astId": 17274,
            "contract": "src/contracts/acl/AccessControlManager.sol:AccessControlManager",
            "label": "_indexes",
            "offset": 0,
            "slot": "1",
            "type": "t_mapping(t_bytes32,t_uint256)"
          }
        ],
        "numberOfBytes": "64"
      },
      "t_uint16": {
        "encoding": "inplace",
        "label": "uint16",
        "numberOfBytes": "2"
      },
      "t_uint256": {
        "encoding": "inplace",
        "label": "uint256",
        "numberOfBytes": "32"
      }
    }
  }
}