{
  "address": "0x5FbDB2315678afecb367f032d93F642f64180aa3",
  "abi": [
    {
      "inputs": [],
      "name": "LIB_NAME",
      "outputs": [
        {
          "internalType": "bytes32",
          "name": "",
          "type": "bytes32"
        }
      ],
      "stateMutability": "view",
      "type": "function"
    },
    {
      "inputs": [],
      "name": "LIB_VERSION",
      "outputs": [
        {
          "internalType": "bytes32",
          "name": "",
          "type": "bytes32"
        }
      ],
      "stateMutability": "view",
      "type": "function"
    },
    {
      "inputs": [],
      "name": "LIVELY_ADMIN_ROLE",
      "outputs": [
        {
          "internalType": "bytes32",
          "name": "",
          "type": "bytes32"
        }
      ],
      "stateMutability": "view",
      "type": "function"
    },
    {
      "inputs": [],
      "name": "LIVELY_ANONYMOUS_ROLE",
      "outputs": [
        {
          "internalType": "bytes32",
          "name": "",
          "type": "bytes32"
        }
      ],
      "stateMutability": "view",
      "type": "function"
    },
    {
      "inputs": [],
      "name": "LIVELY_GENERAL_GROUP",
      "outputs": [
        {
          "internalType": "bytes32",
          "name": "",
          "type": "bytes32"
        }
      ],
      "stateMutability": "view",
      "type": "function"
    },
    {
      "inputs": [],
      "name": "LIVELY_GENERAL_REALM",
      "outputs": [
        {
          "internalType": "bytes32",
          "name": "",
          "type": "bytes32"
        }
      ],
      "stateMutability": "view",
      "type": "function"
    },
    {
      "inputs": [],
      "name": "LIVELY_SYSTEM_ADMIN_ROLE",
      "outputs": [
        {
          "internalType": "bytes32",
          "name": "",
          "type": "bytes32"
        }
      ],
      "stateMutability": "view",
      "type": "function"
    },
    {
      "inputs": [],
      "name": "createRequestContext",
      "outputs": [
        {
          "components": [
            {
              "internalType": "bytes32",
              "name": "role",
              "type": "bytes32"
            },
            {
              "internalType": "bytes4[]",
              "name": "funcSelectors",
              "type": "bytes4[]"
            },
            {
              "internalType": "bool",
              "name": "isEnabled",
              "type": "bool"
            }
          ],
          "internalType": "struct IContextManagement.RequestRegisterContext[]",
          "name": "",
          "type": "tuple[]"
        }
      ],
      "stateMutability": "pure",
      "type": "function"
    }
  ],
  "transactionHash": "0x7aeb3936455d389297a424f04d0c05351fb188b182de85a0c833dcb1fc584b27",
  "args": [],
  "numDeployments": 1,
  "solcInputHash": "704e9ded51238f860f54f50467749d02",
  "bytecode": "0x61205e61003a600b82828239805160001a60731461002d57634e487b7160e01b600052600060045260246000fd5b30600052607381538281f3fe73000000000000000000000000000000000000000030146080604052600436106101b35760003560e01c806364f892ca11610103578063af07cfcd116100a1578063d95140eb1161007b578063d95140eb14610370578063decf375c14610383578063e24b90a914610396578063fbe97e19146103a957600080fd5b8063af07cfcd1461034d578063bec9475114610360578063d8b319991461036857600080fd5b8063779a6a7a116100dd578063779a6a7a1461030c5780637cd7c4ed1461031f5780639bb20d5114610332578063a834b8c01461033a57600080fd5b806364f892ca146102de578063660c9912146102f15780636ac58ac11461030457600080fd5b80633346dd2d11610170578063470e45651161014a578063470e45651461029b578063487c6960146102ae5780635632ffd8146102c157806362f3c2d4146102c957600080fd5b80633346dd2d14610253578063442b0ca11461026657806345d71c181461027957600080fd5b8063017d6269146101b85780630fd7cb90146101e057806310f07501146101f3578063113f28281461022257806320dd27af146102355780632466209b1461024b575b600080fd5b6101cb6101c6366004611c05565b6103bc565b60405190151581526020015b60405180910390f35b6101cb6101ee366004611c05565b610415565b6101cb610201366004611c05565b600090815260019182016020526040902001546001600160a01b0316151590565b6101cb610230366004611c05565b61043e565b61023d61045c565b6040519081526020016101d7565b61023d610484565b6101cb610261366004611c05565b61049d565b6101cb610274366004611c05565b6104e3565b81801561028557600080fd5b50610299610294366004611c27565b610528565b005b6101cb6102a9366004611c5c565b610cc8565b6101cb6102bc366004611ca0565b610d34565b61023d610f0a565b6102d1610f19565b6040516101d79190611ce6565b6101cb6102ec366004611c05565b611867565b6101cb6102ff366004611c05565b611882565b61023d6118d0565b6101cb61031a366004611c05565b6118df565b6101cb61032d366004611c05565b611924565b61023d6119a1565b6101cb610348366004611d9d565b6119b0565b6101cb61035b366004611c05565b6119fc565b61023d611a55565b61023d611a77565b6101cb61037e366004611c05565b611a86565b6101cb610391366004611d9d565b611aa4565b6101cb6103a4366004611c05565b611b15565b6101cb6103b7366004611c5c565b611b57565b600061040c828460040160006040516020016103d790611dd2565b604051602081830303815290604052805190602001208152602001908152602001600020600201611b8190919063ffffffff16565b90505b92915050565b60008181526004830160205260408120805482919061043390611df2565b905011905092915050565b60008181526003830160205260408120805482919061043390611df2565b60405160200161046b90611e2c565b6040516020818303038152906040528051906020012081565b604051640312e302e360dc1b602082015260250161046b565b600081815260018084016020526040822001546001600160a01b03161580159061040c57505060009081526001918201602052604090200154600160a01b900460ff1690565b60008181526004830160205260408120805482919061050190611df2565b905011801561040c5750506000908152600491909101602052604090206001015460ff1690565b33600090815260208281526040808320905160019391926105499101611e4c565b60408051601f19818403018152918152815160209283012083529082019290925201600020805460ff1916600183600281111561058857610588611e69565b021790555033600090815260208281526040808320905160019391926105ae9101611e7f565b60408051601f19818403018152918152815160209283012083529082019290925201600020805460ff191660018360028111156105ed576105ed611e69565b0217905550604051806040016040528060118152602001704c4956454c595f41444d494e5f524f4c4560781b81525081600201600060405160200161063190611e4c565b60405160208183030381529060405280519060200120815260200190815260200160002060000190816106649190611f08565b50600181600201600060405160200161067c90611e4c565b60405160208183030381529060405280519060200120815260200190815260200160002060020160006101000a81548160ff0219169083151502179055506040516020016106c990611dd2565b604051602081830303815290604052805190602001208160020160006040516020016106f490611e4c565b6040516020818303038152906040528051906020012081526020019081526020016000206001018190555061076d3382600201600060405160200161073890611e4c565b604051602081830303815290604052805190602001208152602001908152602001600020600301611b9990919063ffffffff16565b50604051806040016040528060188152602001774c4956454c595f53595354454d5f41444d494e5f524f4c4560401b8152508160020160006040516020016107b490611e7f565b60405160208183030381529060405280519060200120815260200190815260200160002060000190816107e79190611f08565b5060018160020160006040516020016107ff90611e7f565b60405160208183030381529060405280519060200120815260200190815260200160002060020160006101000a81548160ff02191690831515021790555060405160200161084c90611dd2565b6040516020818303038152906040528051906020012081600201600060405160200161087790611e7f565b604051602081830303815290604052805190602001208152602001908152602001600020600101819055506108bb3382600201600060405160200161073890611e7f565b50604051806040016040528060158152602001744c4956454c595f414e4f4e594d4f55535f524f4c4560581b8152508160020160006040516020016108ff90611fc8565b60405160208183030381529060405280519060200120815260200190815260200160002060000190816109329190611f08565b50600181600201600060405160200161094a90611fc8565b60405160208183030381529060405280519060200120815260200190815260200160002060020160006101000a81548160ff02191690831515021790555060405160200161099790611dd2565b604051602081830303815290604052805190602001208160020160006040516020016109c290611fc8565b60405160208183030381529060405280519060200120815260200190815260200160002060010181905550610a063382600201600060405160200161073890611fc8565b506040518060400160405280601481526020017304c4956454c595f47454e4552414c5f47524f55560641b815250816004016000604051602001610a4990611dd2565b6040516020818303038152906040528051906020012081526020019081526020016000206000019081610a7c9190611f08565b506001816004016000604051602001610a9490611dd2565b60405160208183030381529060405280519060200120815260200190815260200160002060010160006101000a81548160ff021916908315150217905550610b44604051602001610ae490611e4c565b60405160208183030381529060405280519060200120826004016000604051602001610b0f90611dd2565b604051602081830303815290604052805190602001208152602001908152602001600020600201611bae90919063ffffffff16565b50610b57604051602001610ae490611e7f565b50604051806040016040528060148152602001734c4956454c595f47454e4552414c5f5245414c4d60601b815250816003016000604051602001610b9a90611e2c565b6040516020818303038152906040528051906020012081526020019081526020016000206000019081610bcd9190611f08565b506001816003016000604051602001610be590611e2c565b60405160208183030381529060405280519060200120815260200190815260200160002060010160006101000a81548160ff0219169083151502179055506001816003016000604051602001610c3a90611e2c565b60408051601f19818403018152918152815160209283012083528282019390935290820160002060010180549315156101000261ff00199094169390931790925580513060601b6bffffffffffffffffffffffff1916818401528151601481830301815260349091019091528051910120610cc490826003016000604051602001610b0f90611e2c565b5050565b6001600160a01b03811660009081526020838152604080832090516001928491610cf29101611e7f565b60408051601f198184030181529181528151602092830120835290820192909252016000205460ff166002811115610d2c57610d2c611e69565b149392505050565b600083815260018501602090815260408083206001600160e01b03198516845260020182528083205490519091610d6b9101611fc8565b604051602081830303815290604052805190602001208103610df9576000858152600187810160205260409091200154600160a01b900460ff168015610df15750600160008681526001808901602090815260408084206001600160e01b0319891685526002908101909252909220015460ff1690811115610def57610def611e69565b145b915050610f02565b6000858152600187810160205260409091200154600160a01b900460ff168015610e635750600160008681526001808901602090815260408084206001600160e01b0319891685526002908101909252909220015460ff1690811115610e6157610e61611e69565b145b8015610e915750600085815260018088016020908152604080842054845260038a01909152909120015460ff165b8015610ec3575060008181526002870160209081526040808320600190810154845260048a01909252909120015460ff165b8015610df1575060016001600160a01b03851660009081526020888152604080832085845290915290205460ff166002811115610def57610def611e69565b949350505050565b60405160200161046b90611e7f565b604080516002808252606082810190935260009190816020015b60408051606080820183526000808352602083019190915291810191909152815260200190600190039081610f33579050509050604051602001610f7690611e4c565b6040516020818303038152906040528051906020012081600081518110610f9f57610f9f611fe9565b60200260200101516000018181525050600181600081518110610fc457610fc4611fe9565b6020908102919091018101519115156040928301528151601280825261026082019093529190820161024080368337019050508160008151811061100a5761100a611fe9565b6020026020010151602001819052506348e6be1c60e01b8160008151811061103457611034611fe9565b60200260200101516020015160008151811061105257611052611fe9565b6001600160e01b031990921660209283029190910190910152805163031c049360e01b90829060009061108757611087611fe9565b6020026020010151602001516001815181106110a5576110a5611fe9565b6001600160e01b0319909216602092830291909101909101528051635ac4b36f60e11b9082906000906110da576110da611fe9565b6020026020010151602001516002815181106110f8576110f8611fe9565b6001600160e01b031990921660209283029190910190910152805163771bcf4560e01b90829060009061112d5761112d611fe9565b60200260200101516020015160038151811061114b5761114b611fe9565b6001600160e01b0319909216602092830291909101909101528051634346a04b60e01b90829060009061118057611180611fe9565b60200260200101516020015160048151811061119e5761119e611fe9565b6001600160e01b031990921660209283029190910190910152805163d338640160e01b9082906000906111d3576111d3611fe9565b6020026020010151602001516005815181106111f1576111f1611fe9565b6001600160e01b03199092166020928302919091019091015280516370420ee360e01b90829060009061122657611226611fe9565b60200260200101516020015160068151811061124457611244611fe9565b6001600160e01b031990921660209283029190910190910152805163b2dc26e560e01b90829060009061127957611279611fe9565b60200260200101516020015160078151811061129757611297611fe9565b6001600160e01b03199092166020928302919091019091015280516308f09e0f60e41b9082906000906112cc576112cc611fe9565b6020026020010151602001516008815181106112ea576112ea611fe9565b6001600160e01b031990921660209283029190910190910152805163df01de4560e01b90829060009061131f5761131f611fe9565b60200260200101516020015160098151811061133d5761133d611fe9565b6001600160e01b031990921660209283029190910190910152805163738f112760e11b90829060009061137257611372611fe9565b602002602001015160200151600a8151811061139057611390611fe9565b6001600160e01b0319909216602092830291909101909101528051630dbf304b60e41b9082906000906113c5576113c5611fe9565b602002602001015160200151600b815181106113e3576113e3611fe9565b6001600160e01b03199092166020928302919091019091015280516307e9933760e31b90829060009061141857611418611fe9565b602002602001015160200151600c8151811061143657611436611fe9565b6001600160e01b031990921660209283029190910190910152805163b6c03f0360e01b90829060009061146b5761146b611fe9565b602002602001015160200151600d8151811061148957611489611fe9565b6001600160e01b03199092166020928302919091019091015280516312ec6fa360e21b9082906000906114be576114be611fe9565b602002602001015160200151600e815181106114dc576114dc611fe9565b6001600160e01b03199092166020928302919091019091015280516322df6f5b60e21b90829060009061151157611511611fe9565b602002602001015160200151600f8151811061152f5761152f611fe9565b6001600160e01b031990921660209283029190910190910152805163f2c673bd60e01b90829060009061156457611564611fe9565b60200260200101516020015160108151811061158257611582611fe9565b60200260200101906001600160e01b03191690816001600160e01b031916815250507f756af45f4ce05d832bee0c171992c529ad6d3ca8e13303d78feace2f8fd7faf2816000815181106115d8576115d8611fe9565b6020026020010151602001516011815181106115f6576115f6611fe9565b6001600160e01b031990921660209283029190910182015260405161161b9101611e7f565b604051602081830303815290604052805190602001208160018151811061164457611644611fe9565b6020026020010151600001818152505060018160018151811061166957611669611fe9565b6020908102919091018101519115156040928301528151600580825260c082019093529190820160a08036833701905050816001815181106116ad576116ad611fe9565b60200260200101516020018190525063d9dc1f1960e01b816001815181106116d7576116d7611fe9565b6020026020010151602001516000815181106116f5576116f5611fe9565b6001600160e01b031990921660209283029190910190910152805163225bf2f960e11b908290600190811061172c5761172c611fe9565b60200260200101516020015160018151811061174a5761174a611fe9565b6001600160e01b0319909216602092830291909101909101528051637147855d60e01b908290600190811061178157611781611fe9565b60200260200101516020015160028151811061179f5761179f611fe9565b6001600160e01b03199092166020928302919091019091015280516378efa4ed60e11b90829060019081106117d6576117d6611fe9565b6020026020010151602001516003815181106117f4576117f4611fe9565b6001600160e01b0319909216602092830291909101909101528051631ccb7c8d60e31b908290600190811061182b5761182b611fe9565b60200260200101516020015160048151811061184957611849611fe9565b6001600160e01b031990921660209283029190910190910152919050565b600061040c828460030160006040516020016103d790611e2c565b60008181526003830160205260408120805461189d90611df2565b90506000036118ae5750600061040f565b5060009081526003919091016020526040902060010154610100900460ff1690565b60405160200161046b90611dd2565b6000818152600383016020526040812080548291906118fd90611df2565b905011801561040c5750506000908152600391909101602052604090206001015460ff1690565b600081815260018084016020908152604080842090920154825163be22465d60e01b815292516001600160a01b039091169263be22465d9260048083019391928290030181865afa15801561197d573d6000803e3d6000fd5b505050506040513d601f19601f8201168201806040525081019061040c9190611fff565b60405160200161046b90611fc8565b600082815260018085016020526040822001546001600160a01b031615801590610f02575060008381526001850160205260409020610f02906003016001600160e01b03198416611b81565b6000818152600180840160209081526040808420909201548251630151e76560e61b815292516001600160a01b0390911692635479d9409260048083019391928290030181865afa15801561197d573d6000803e3d6000fd5b6040516d131058d8d95cdcd0dbdb9d1c9bdb60921b6020820152602e0161046b565b60405160200161046b90611e4c565b60008181526002830160205260408120805482919061043390611df2565b600082815260018085016020526040822001546001600160a01b031615801590610f025750600160008481526001808701602090815260408084206001600160e01b0319881685526002908101909252909220015460ff1690811115611b0c57611b0c611e69565b14949350505050565b600081815260028301602052604081208054829190611b3390611df2565b905011801561040c5750506000908152600291820160205260409020015460ff1690565b6001600160a01b03811660009081526020838152604080832090516001928491610cf29101611e4c565b6000818152600183016020526040812054151561040c565b600061040c836001600160a01b038416611bb6565b600061040c83835b6000818152600183016020526040812054611bfd5750815460018181018455600084815260208082209093018490558454848252828601909352604090209190915561040f565b50600061040f565b60008060408385031215611c1857600080fd5b50508035926020909101359150565b600060208284031215611c3957600080fd5b5035919050565b80356001600160a01b0381168114611c5757600080fd5b919050565b60008060408385031215611c6f57600080fd5b82359150611c7f60208401611c40565b90509250929050565b80356001600160e01b031981168114611c5757600080fd5b60008060008060808587031215611cb657600080fd5b8435935060208501359250611ccd60408601611c40565b9150611cdb60608601611c88565b905092959194509250565b60006020808301818452808551808352604092508286019150828160051b8701018488016000805b84811015611d8e57898403603f190186528251805185528881015160608a8701819052815190870181905260808701918b019085905b80821015611d6e5782516001600160e01b0319168452928c0192918c019160019190910190611d44565b505050908801511515948801949094529487019491870191600101611d0e565b50919998505050505050505050565b600080600060608486031215611db257600080fd5b8335925060208401359150611dc960408501611c88565b90509250925092565b7304c4956454c595f47454e4552414c5f47524f55560641b815260140190565b600181811c90821680611e0657607f821691505b602082108103611e2657634e487b7160e01b600052602260045260246000fd5b50919050565b734c4956454c595f47454e4552414c5f5245414c4d60601b815260140190565b704c4956454c595f41444d494e5f524f4c4560781b815260110190565b634e487b7160e01b600052602160045260246000fd5b774c4956454c595f53595354454d5f41444d494e5f524f4c4560401b815260180190565b634e487b7160e01b600052604160045260246000fd5b601f821115611f0357600081815260208120601f850160051c81016020861015611ee05750805b601f850160051c820191505b81811015611eff57828155600101611eec565b5050505b505050565b815167ffffffffffffffff811115611f2257611f22611ea3565b611f3681611f308454611df2565b84611eb9565b602080601f831160018114611f6b5760008415611f535750858301515b600019600386901b1c1916600185901b178555611eff565b600085815260208120601f198616915b82811015611f9a57888601518255948401946001909101908401611f7b565b5085821015611fb85787850151600019600388901b60f8161c191681555b5050505050600190811b01905550565b744c4956454c595f414e4f4e594d4f55535f524f4c4560581b815260150190565b634e487b7160e01b600052603260045260246000fd5b60006020828403121561201157600080fd5b8151801515811461202157600080fd5b939250505056fea2646970667358221220eca4729f80cd33687a7f3baeba478f724dd616b7e0f1c075f11b2054bfb9056464736f6c634300080f0033",
  "devdoc": {
    "kind": "dev",
    "methods": {},
    "version": 1
  },
  "userdoc": {
    "kind": "user",
    "methods": {},
    "version": 1
  },
  "storageLayout": {
    "storage": [],
    "types": null
  }
}