{
  "address": "0x2279B7A0a67DB372996a5FaB50D91eAA73d2eBe6",
  "abi": [
    {
      "inputs": [],
      "stateMutability": "nonpayable",
      "type": "constructor"
    },
    {
      "anonymous": false,
      "inputs": [
        {
          "indexed": true,
          "internalType": "address",
          "name": "owner",
          "type": "address"
        },
        {
          "indexed": true,
          "internalType": "address",
          "name": "spender",
          "type": "address"
        },
        {
          "indexed": false,
          "internalType": "uint256",
          "name": "amount",
          "type": "uint256"
        }
      ],
      "name": "Approval",
      "type": "event"
    },
    {
      "anonymous": false,
      "inputs": [
        {
          "indexed": true,
          "internalType": "address",
          "name": "owner",
          "type": "address"
        },
        {
          "indexed": true,
          "internalType": "address",
          "name": "spender",
          "type": "address"
        },
        {
          "indexed": false,
          "internalType": "uint256",
          "name": "amount",
          "type": "uint256"
        }
      ],
      "name": "ApprovalDecresed",
      "type": "event"
    },
    {
      "anonymous": false,
      "inputs": [
        {
          "indexed": true,
          "internalType": "address",
          "name": "owner",
          "type": "address"
        },
        {
          "indexed": true,
          "internalType": "address",
          "name": "spender",
          "type": "address"
        },
        {
          "indexed": false,
          "internalType": "uint256",
          "name": "amount",
          "type": "uint256"
        }
      ],
      "name": "ApprovalIncremented",
      "type": "event"
    },
    {
      "anonymous": false,
      "inputs": [
        {
          "indexed": true,
          "internalType": "address",
          "name": "sender",
          "type": "address"
        },
        {
          "indexed": true,
          "internalType": "address",
          "name": "account",
          "type": "address"
        },
        {
          "indexed": false,
          "internalType": "uint256",
          "name": "amount",
          "type": "uint256"
        },
        {
          "indexed": false,
          "internalType": "uint256",
          "name": "totalSupply",
          "type": "uint256"
        }
      ],
      "name": "Burn",
      "type": "event"
    },
    {
      "anonymous": false,
      "inputs": [
        {
          "indexed": true,
          "internalType": "address",
          "name": "sender",
          "type": "address"
        },
        {
          "indexed": true,
          "internalType": "address",
          "name": "proxy",
          "type": "address"
        },
        {
          "indexed": true,
          "internalType": "address",
          "name": "subject",
          "type": "address"
        },
        {
          "indexed": false,
          "internalType": "string",
          "name": "name",
          "type": "string"
        },
        {
          "indexed": false,
          "internalType": "string",
          "name": "version",
          "type": "string"
        },
        {
          "indexed": false,
          "internalType": "bytes32",
          "name": "realm",
          "type": "bytes32"
        },
        {
          "indexed": false,
          "internalType": "uint16",
          "name": "initCount",
          "type": "uint16"
        }
      ],
      "name": "Initialized",
      "type": "event"
    },
    {
      "anonymous": false,
      "inputs": [
        {
          "indexed": true,
          "internalType": "address",
          "name": "sender",
          "type": "address"
        },
        {
          "indexed": true,
          "internalType": "address",
          "name": "proxy",
          "type": "address"
        },
        {
          "indexed": false,
          "internalType": "address",
          "name": "newAdmin",
          "type": "address"
        }
      ],
      "name": "LocalAdminChanged",
      "type": "event"
    },
    {
      "anonymous": false,
      "inputs": [
        {
          "indexed": true,
          "internalType": "address",
          "name": "sender",
          "type": "address"
        },
        {
          "indexed": true,
          "internalType": "address",
          "name": "account",
          "type": "address"
        },
        {
          "indexed": false,
          "internalType": "uint256",
          "name": "amount",
          "type": "uint256"
        },
        {
          "indexed": false,
          "internalType": "uint256",
          "name": "totalSupply",
          "type": "uint256"
        }
      ],
      "name": "Mint",
      "type": "event"
    },
    {
      "anonymous": false,
      "inputs": [
        {
          "indexed": true,
          "internalType": "address",
          "name": "sender",
          "type": "address"
        },
        {
          "indexed": true,
          "internalType": "address",
          "name": "account",
          "type": "address"
        }
      ],
      "name": "Paused",
      "type": "event"
    },
    {
      "anonymous": false,
      "inputs": [
        {
          "indexed": true,
          "internalType": "address",
          "name": "sender",
          "type": "address"
        }
      ],
      "name": "PausedAll",
      "type": "event"
    },
    {
      "anonymous": false,
      "inputs": [
        {
          "indexed": true,
          "internalType": "address",
          "name": "sender",
          "type": "address"
        },
        {
          "indexed": true,
          "internalType": "address",
          "name": "proxy",
          "type": "address"
        },
        {
          "indexed": true,
          "internalType": "bytes32",
          "name": "realm",
          "type": "bytes32"
        },
        {
          "indexed": false,
          "internalType": "bool",
          "name": "status",
          "type": "bool"
        }
      ],
      "name": "SafeModeChanged",
      "type": "event"
    },
    {
      "anonymous": false,
      "inputs": [
        {
          "indexed": true,
          "internalType": "address",
          "name": "sender",
          "type": "address"
        },
        {
          "indexed": false,
          "internalType": "uint256",
          "name": "rate",
          "type": "uint256"
        }
      ],
      "name": "TaxRateUpdated",
      "type": "event"
    },
    {
      "anonymous": false,
      "inputs": [
        {
          "indexed": true,
          "internalType": "address",
          "name": "sender",
          "type": "address"
        },
        {
          "indexed": true,
          "internalType": "address",
          "name": "account",
          "type": "address"
        },
        {
          "indexed": false,
          "internalType": "bool",
          "name": "isDeleted",
          "type": "bool"
        }
      ],
      "name": "TaxWhitelistUpdated",
      "type": "event"
    },
    {
      "anonymous": false,
      "inputs": [
        {
          "indexed": true,
          "internalType": "address",
          "name": "sender",
          "type": "address"
        },
        {
          "indexed": true,
          "internalType": "address",
          "name": "recipient",
          "type": "address"
        },
        {
          "indexed": false,
          "internalType": "uint256",
          "name": "amount",
          "type": "uint256"
        }
      ],
      "name": "Transfer",
      "type": "event"
    },
    {
      "anonymous": false,
      "inputs": [
        {
          "indexed": true,
          "internalType": "address",
          "name": "sender",
          "type": "address"
        },
        {
          "indexed": true,
          "internalType": "address",
          "name": "from",
          "type": "address"
        },
        {
          "indexed": true,
          "internalType": "address",
          "name": "to",
          "type": "address"
        },
        {
          "indexed": false,
          "internalType": "uint256",
          "name": "amount",
          "type": "uint256"
        }
      ],
      "name": "TransferFrom",
      "type": "event"
    },
    {
      "anonymous": false,
      "inputs": [
        {
          "indexed": true,
          "internalType": "address",
          "name": "sender",
          "type": "address"
        },
        {
          "indexed": true,
          "internalType": "address",
          "name": "account",
          "type": "address"
        }
      ],
      "name": "Unpaused",
      "type": "event"
    },
    {
      "anonymous": false,
      "inputs": [
        {
          "indexed": true,
          "internalType": "address",
          "name": "sender",
          "type": "address"
        }
      ],
      "name": "UnpausedAll",
      "type": "event"
    },
    {
      "anonymous": false,
      "inputs": [
        {
          "indexed": true,
          "internalType": "address",
          "name": "sender",
          "type": "address"
        },
        {
          "indexed": true,
          "internalType": "address",
          "name": "proxy",
          "type": "address"
        },
        {
          "indexed": true,
          "internalType": "bytes32",
          "name": "realm",
          "type": "bytes32"
        },
        {
          "indexed": false,
          "internalType": "bool",
          "name": "status",
          "type": "bool"
        }
      ],
      "name": "UpgradeStatusChanged",
      "type": "event"
    },
    {
      "anonymous": false,
      "inputs": [
        {
          "indexed": true,
          "internalType": "address",
          "name": "sender",
          "type": "address"
        },
        {
          "indexed": true,
          "internalType": "address",
          "name": "proxy",
          "type": "address"
        },
        {
          "indexed": true,
          "internalType": "address",
          "name": "newImplementation",
          "type": "address"
        }
      ],
      "name": "Upgraded",
      "type": "event"
    },
    {
      "stateMutability": "payable",
      "type": "fallback"
    },
    {
      "inputs": [],
      "name": "accessControlManager",
      "outputs": [
        {
          "internalType": "address",
          "name": "",
          "type": "address"
        }
      ],
      "stateMutability": "view",
      "type": "function"
    },
    {
      "inputs": [
        {
          "internalType": "address",
          "name": "owner",
          "type": "address"
        },
        {
          "internalType": "address",
          "name": "spender",
          "type": "address"
        }
      ],
      "name": "allowance",
      "outputs": [
        {
          "internalType": "uint256",
          "name": "",
          "type": "uint256"
        }
      ],
      "stateMutability": "view",
      "type": "function"
    },
    {
      "inputs": [
        {
          "internalType": "address",
          "name": "spender",
          "type": "address"
        },
        {
          "internalType": "uint256",
          "name": "amount",
          "type": "uint256"
        }
      ],
      "name": "approve",
      "outputs": [
        {
          "internalType": "bool",
          "name": "",
          "type": "bool"
        }
      ],
      "stateMutability": "nonpayable",
      "type": "function"
    },
    {
      "inputs": [
        {
          "internalType": "address",
          "name": "account",
          "type": "address"
        }
      ],
      "name": "balanceOf",
      "outputs": [
        {
          "internalType": "uint256",
          "name": "",
          "type": "uint256"
        }
      ],
      "stateMutability": "view",
      "type": "function"
    },
    {
      "inputs": [
        {
          "components": [
            {
              "internalType": "address",
              "name": "recipient",
              "type": "address"
            },
            {
              "internalType": "uint256",
              "name": "amount",
              "type": "uint256"
            }
          ],
          "internalType": "struct IERC20Extra.BatchTransferRequest[]",
          "name": "request",
          "type": "tuple[]"
        }
      ],
      "name": "batchTransfer",
      "outputs": [
        {
          "internalType": "bool",
          "name": "",
          "type": "bool"
        }
      ],
      "stateMutability": "nonpayable",
      "type": "function"
    },
    {
      "inputs": [
        {
          "components": [
            {
              "internalType": "address",
              "name": "source",
              "type": "address"
            },
            {
              "internalType": "address",
              "name": "recipient",
              "type": "address"
            },
            {
              "internalType": "uint256",
              "name": "amount",
              "type": "uint256"
            }
          ],
          "internalType": "struct IERC20Extra.BatchTransferFromRequest[]",
          "name": "request",
          "type": "tuple[]"
        }
      ],
      "name": "batchTransferFrom",
      "outputs": [
        {
          "internalType": "bool",
          "name": "",
          "type": "bool"
        }
      ],
      "stateMutability": "nonpayable",
      "type": "function"
    },
    {
      "inputs": [
        {
          "components": [
            {
              "internalType": "address",
              "name": "account",
              "type": "address"
            },
            {
              "internalType": "bool",
              "name": "isDeleted",
              "type": "bool"
            }
          ],
          "internalType": "struct IERC20Extra.BatchUpdateTaxWhitelistRequest[]",
          "name": "request",
          "type": "tuple[]"
        }
      ],
      "name": "batchUpdateTaxWhitelist",
      "outputs": [],
      "stateMutability": "nonpayable",
      "type": "function"
    },
    {
      "inputs": [
        {
          "internalType": "address",
          "name": "account",
          "type": "address"
        },
        {
          "internalType": "uint256",
          "name": "amount",
          "type": "uint256"
        }
      ],
      "name": "burn",
      "outputs": [
        {
          "internalType": "uint256",
          "name": "",
          "type": "uint256"
        }
      ],
      "stateMutability": "nonpayable",
      "type": "function"
    },
    {
      "inputs": [],
      "name": "contractContext",
      "outputs": [
        {
          "internalType": "bytes32",
          "name": "",
          "type": "bytes32"
        }
      ],
      "stateMutability": "view",
      "type": "function"
    },
    {
      "inputs": [],
      "name": "contractName",
      "outputs": [
        {
          "internalType": "bytes32",
          "name": "",
          "type": "bytes32"
        }
      ],
      "stateMutability": "view",
      "type": "function"
    },
    {
      "inputs": [],
      "name": "contractRealm",
      "outputs": [
        {
          "internalType": "bytes32",
          "name": "",
          "type": "bytes32"
        }
      ],
      "stateMutability": "view",
      "type": "function"
    },
    {
      "inputs": [],
      "name": "contractVersion",
      "outputs": [
        {
          "internalType": "bytes32",
          "name": "",
          "type": "bytes32"
        }
      ],
      "stateMutability": "view",
      "type": "function"
    },
    {
      "inputs": [],
      "name": "decimals",
      "outputs": [
        {
          "internalType": "uint8",
          "name": "",
          "type": "uint8"
        }
      ],
      "stateMutability": "pure",
      "type": "function"
    },
    {
      "inputs": [
        {
          "internalType": "address",
          "name": "spender",
          "type": "address"
        },
        {
          "internalType": "uint256",
          "name": "amount",
          "type": "uint256"
        }
      ],
      "name": "decreaseAllowance",
      "outputs": [
        {
          "internalType": "uint256",
          "name": "",
          "type": "uint256"
        }
      ],
      "stateMutability": "nonpayable",
      "type": "function"
    },
    {
      "inputs": [],
      "name": "distributeToken",
      "outputs": [
        {
          "internalType": "bool",
          "name": "",
          "type": "bool"
        }
      ],
      "stateMutability": "view",
      "type": "function"
    },
    {
      "inputs": [],
      "name": "domainSeparator",
      "outputs": [
        {
          "internalType": "bytes32",
          "name": "",
          "type": "bytes32"
        }
      ],
      "stateMutability": "view",
      "type": "function"
    },
    {
      "inputs": [
        {
          "internalType": "address",
          "name": "spender",
          "type": "address"
        },
        {
          "internalType": "uint256",
          "name": "amount",
          "type": "uint256"
        }
      ],
      "name": "increaseAllowance",
      "outputs": [
        {
          "internalType": "uint256",
          "name": "",
          "type": "uint256"
        }
      ],
      "stateMutability": "nonpayable",
      "type": "function"
    },
    {
      "inputs": [],
      "name": "initStatus",
      "outputs": [
        {
          "internalType": "bool",
          "name": "",
          "type": "bool"
        }
      ],
      "stateMutability": "view",
      "type": "function"
    },
    {
      "inputs": [],
      "name": "initVersion",
      "outputs": [
        {
          "internalType": "uint16",
          "name": "",
          "type": "uint16"
        }
      ],
      "stateMutability": "view",
      "type": "function"
    },
    {
      "inputs": [
        {
          "components": [
            {
              "internalType": "string",
              "name": "domainName",
              "type": "string"
            },
            {
              "internalType": "string",
              "name": "domainVersion",
              "type": "string"
            },
            {
              "internalType": "string",
              "name": "domainRealm",
              "type": "string"
            },
            {
              "internalType": "bytes",
              "name": "signature",
              "type": "bytes"
            },
            {
              "internalType": "uint256",
              "name": "taxRateValue",
              "type": "uint256"
            },
            {
              "internalType": "uint256",
              "name": "totalSupplyAmount",
              "type": "uint256"
            },
            {
              "internalType": "address",
              "name": "accessControlManager",
              "type": "address"
            },
            {
              "internalType": "address",
              "name": "taxTreasuryAddress",
              "type": "address"
            },
            {
              "internalType": "address",
              "name": "assetManager",
              "type": "address"
            }
          ],
          "internalType": "struct LivelyToken.InitRequest",
          "name": "request",
          "type": "tuple"
        }
      ],
      "name": "initialize",
      "outputs": [],
      "stateMutability": "nonpayable",
      "type": "function"
    },
    {
      "inputs": [
        {
          "internalType": "address",
          "name": "account",
          "type": "address"
        }
      ],
      "name": "isPaused",
      "outputs": [
        {
          "internalType": "bool",
          "name": "",
          "type": "bool"
        }
      ],
      "stateMutability": "view",
      "type": "function"
    },
    {
      "inputs": [],
      "name": "isPausedAll",
      "outputs": [
        {
          "internalType": "bool",
          "name": "",
          "type": "bool"
        }
      ],
      "stateMutability": "view",
      "type": "function"
    },
    {
      "inputs": [],
      "name": "isSafeMode",
      "outputs": [
        {
          "internalType": "bool",
          "name": "",
          "type": "bool"
        }
      ],
      "stateMutability": "view",
      "type": "function"
    },
    {
      "inputs": [],
      "name": "isUpgradable",
      "outputs": [
        {
          "internalType": "bool",
          "name": "",
          "type": "bool"
        }
      ],
      "stateMutability": "view",
      "type": "function"
    },
    {
      "inputs": [],
      "name": "localAdmin",
      "outputs": [
        {
          "internalType": "address",
          "name": "",
          "type": "address"
        }
      ],
      "stateMutability": "view",
      "type": "function"
    },
    {
      "inputs": [
        {
          "internalType": "address",
          "name": "account",
          "type": "address"
        },
        {
          "internalType": "uint256",
          "name": "amount",
          "type": "uint256"
        }
      ],
      "name": "mint",
      "outputs": [
        {
          "internalType": "uint256",
          "name": "",
          "type": "uint256"
        }
      ],
      "stateMutability": "nonpayable",
      "type": "function"
    },
    {
      "inputs": [],
      "name": "name",
      "outputs": [
        {
          "internalType": "string",
          "name": "",
          "type": "string"
        }
      ],
      "stateMutability": "view",
      "type": "function"
    },
    {
      "inputs": [
        {
          "internalType": "address",
          "name": "owner",
          "type": "address"
        }
      ],
      "name": "nonce",
      "outputs": [
        {
          "internalType": "uint256",
          "name": "",
          "type": "uint256"
        }
      ],
      "stateMutability": "view",
      "type": "function"
    },
    {
      "inputs": [
        {
          "internalType": "address",
          "name": "account",
          "type": "address"
        }
      ],
      "name": "pause",
      "outputs": [],
      "stateMutability": "nonpayable",
      "type": "function"
    },
    {
      "inputs": [],
      "name": "pauseAll",
      "outputs": [],
      "stateMutability": "nonpayable",
      "type": "function"
    },
    {
      "inputs": [],
      "name": "pausedAccounts",
      "outputs": [
        {
          "internalType": "address[]",
          "name": "",
          "type": "address[]"
        }
      ],
      "stateMutability": "view",
      "type": "function"
    },
    {
      "inputs": [
        {
          "internalType": "address",
          "name": "owner",
          "type": "address"
        },
        {
          "internalType": "address",
          "name": "spender",
          "type": "address"
        },
        {
          "internalType": "uint256",
          "name": "value",
          "type": "uint256"
        },
        {
          "internalType": "uint256",
          "name": "deadline",
          "type": "uint256"
        },
        {
          "internalType": "bytes",
          "name": "signature",
          "type": "bytes"
        }
      ],
      "name": "permit",
      "outputs": [
        {
          "internalType": "bool",
          "name": "",
          "type": "bool"
        }
      ],
      "stateMutability": "nonpayable",
      "type": "function"
    },
    {
      "inputs": [],
      "name": "proxiableUUID",
      "outputs": [
        {
          "internalType": "bytes32",
          "name": "",
          "type": "bytes32"
        }
      ],
      "stateMutability": "view",
      "type": "function"
    },
    {
      "inputs": [
        {
          "internalType": "address",
          "name": "newLocalAdmin",
          "type": "address"
        }
      ],
      "name": "setLocalAdmin",
      "outputs": [
        {
          "internalType": "bool",
          "name": "",
          "type": "bool"
        }
      ],
      "stateMutability": "nonpayable",
      "type": "function"
    },
    {
      "inputs": [
        {
          "internalType": "bool",
          "name": "status",
          "type": "bool"
        }
      ],
      "name": "setSafeMode",
      "outputs": [
        {
          "internalType": "bool",
          "name": "",
          "type": "bool"
        }
      ],
      "stateMutability": "nonpayable",
      "type": "function"
    },
    {
      "inputs": [
        {
          "internalType": "bool",
          "name": "status",
          "type": "bool"
        }
      ],
      "name": "setUpgradeStatus",
      "outputs": [
        {
          "internalType": "bool",
          "name": "",
          "type": "bool"
        }
      ],
      "stateMutability": "nonpayable",
      "type": "function"
    },
    {
      "inputs": [],
      "name": "subjectAddress",
      "outputs": [
        {
          "internalType": "address",
          "name": "",
          "type": "address"
        }
      ],
      "stateMutability": "view",
      "type": "function"
    },
    {
      "inputs": [
        {
          "internalType": "bytes4",
          "name": "interfaceId",
          "type": "bytes4"
        }
      ],
      "name": "supportsInterface",
      "outputs": [
        {
          "internalType": "bool",
          "name": "",
          "type": "bool"
        }
      ],
      "stateMutability": "view",
      "type": "function"
    },
    {
      "inputs": [],
      "name": "symbol",
      "outputs": [
        {
          "internalType": "string",
          "name": "",
          "type": "string"
        }
      ],
      "stateMutability": "view",
      "type": "function"
    },
    {
      "inputs": [],
      "name": "taxRate",
      "outputs": [
        {
          "internalType": "uint256",
          "name": "",
          "type": "uint256"
        }
      ],
      "stateMutability": "view",
      "type": "function"
    },
    {
      "inputs": [],
      "name": "taxTreasury",
      "outputs": [
        {
          "internalType": "address",
          "name": "",
          "type": "address"
        }
      ],
      "stateMutability": "view",
      "type": "function"
    },
    {
      "inputs": [],
      "name": "taxWhitelist",
      "outputs": [
        {
          "internalType": "address[]",
          "name": "",
          "type": "address[]"
        }
      ],
      "stateMutability": "view",
      "type": "function"
    },
    {
      "inputs": [],
      "name": "totalSupply",
      "outputs": [
        {
          "internalType": "uint256",
          "name": "",
          "type": "uint256"
        }
      ],
      "stateMutability": "view",
      "type": "function"
    },
    {
      "inputs": [
        {
          "internalType": "address",
          "name": "recipient",
          "type": "address"
        },
        {
          "internalType": "uint256",
          "name": "amount",
          "type": "uint256"
        }
      ],
      "name": "transfer",
      "outputs": [
        {
          "internalType": "bool",
          "name": "",
          "type": "bool"
        }
      ],
      "stateMutability": "nonpayable",
      "type": "function"
    },
    {
      "inputs": [
        {
          "internalType": "address",
          "name": "source",
          "type": "address"
        },
        {
          "internalType": "address",
          "name": "recipient",
          "type": "address"
        },
        {
          "internalType": "uint256",
          "name": "amount",
          "type": "uint256"
        }
      ],
      "name": "transferFrom",
      "outputs": [
        {
          "internalType": "bool",
          "name": "",
          "type": "bool"
        }
      ],
      "stateMutability": "nonpayable",
      "type": "function"
    },
    {
      "inputs": [
        {
          "internalType": "address",
          "name": "account",
          "type": "address"
        }
      ],
      "name": "unpause",
      "outputs": [],
      "stateMutability": "nonpayable",
      "type": "function"
    },
    {
      "inputs": [],
      "name": "unpauseAll",
      "outputs": [],
      "stateMutability": "nonpayable",
      "type": "function"
    },
    {
      "inputs": [
        {
          "internalType": "uint256",
          "name": "rate",
          "type": "uint256"
        }
      ],
      "name": "updateTaxRate",
      "outputs": [
        {
          "internalType": "bool",
          "name": "",
          "type": "bool"
        }
      ],
      "stateMutability": "nonpayable",
      "type": "function"
    },
    {
      "inputs": [
        {
          "internalType": "address",
          "name": "account",
          "type": "address"
        },
        {
          "internalType": "bool",
          "name": "isDeleted",
          "type": "bool"
        }
      ],
      "name": "updateTaxWhitelist",
      "outputs": [
        {
          "internalType": "bool",
          "name": "",
          "type": "bool"
        }
      ],
      "stateMutability": "nonpayable",
      "type": "function"
    },
    {
      "inputs": [
        {
          "internalType": "address",
          "name": "newImplementation",
          "type": "address"
        },
        {
          "internalType": "bytes",
          "name": "data",
          "type": "bytes"
        },
        {
          "internalType": "bool",
          "name": "forceCall",
          "type": "bool"
        }
      ],
      "name": "upgradeTo",
      "outputs": [
        {
          "internalType": "bytes",
          "name": "",
          "type": "bytes"
        }
      ],
      "stateMutability": "nonpayable",
      "type": "function"
    },
    {
      "inputs": [
        {
          "internalType": "address",
          "name": "recepient",
          "type": "address"
        }
      ],
      "name": "withdrawBalance",
      "outputs": [],
      "stateMutability": "nonpayable",
      "type": "function"
    },
    {
      "stateMutability": "payable",
      "type": "receive"
    }
  ],
  "transactionHash": "0x975b3ee2749e156055852f8f313ddd11c765ac504be8e3f60a863a8cad8684ff",
  "args": [],
  "numDeployments": 1,
  "solcInputHash": "3dde48f6cafdf7980fd39ad8c26f0527",
  "bytecode": "0x60a0604052306080523480156200001557600080fd5b506200004360017f360894a13ba1a3210667c828492db98dca3e2076cc3735a920a3ca505d382bbd6200011f565b7f360894a13ba1a3210667c828492db98dca3e2076cc3735a920a3ca505d382bbc1462000074576200007462000145565b620000a160017fb53127684a568b3173ae13b9f8a6016e243e63b6e8ee1178d6a717850b5d61046200011f565b60008051602062004ced83398151915214620000c157620000c162000145565b33620000ea60008051602062004ced83398151915260001b6200011c60201b620021811760201c565b80546001600160a01b0319166001600160a01b03929092169190911790556004805461ffff191660011790556200015b565b90565b6000828210156200014057634e487b7160e01b600052601160045260246000fd5b500390565b634e487b7160e01b600052600160045260246000fd5b608051614b22620001cb60003960008181610b4101528181610b8101528181610cc201528181610d020152818161111501528181611155015281816112d0015281816113100152818161149a0152818161171a0152818161175a01528181611f7c0152611fbc0152614b226000f3fe6080604052600436106102c75760003560e01c80637147855d1161017e578063a0a8e460116100d3578063d3e024b81161008f578063de843a941161006c578063de843a9414610876578063f698da251461088b578063f94a0adb146108a0578063faa552a8146108b557005b8063d3e024b814610821578063d9dc1f1914610836578063dd62ed3e1461085657005b8063a0a8e46014610777578063a0e6adf11461078c578063a457c2d7146107ab578063a9059cbb146107cb578063b4a0bdf3146107eb578063be22465d1461080957005b80637d35f3551161013a5780638a92ab15116101175780638a92ab151461070457806395d89b41146107225780639dc29fac146107375780639fd5a6cf1461075757005b80637d35f355146106ba578063870666cb146106da5780638a2ddd03146106ef57005b80637147855d1461060e578063756af45f1461062e57806375d0c0dc1461064e57806376a67a5114610663578063771a3a1d146106835780637bf60ff41461069857005b806340c10f191161023457806357b001f9116101f05780635b14f183116101cd5780635b14f1831461057957806360fefdec1461059957806370a08231146105b857806370ae92d2146105ee57005b806357b001f91461051757806358dbc45d14610537578063595c6a671461056457005b806340c10f191461046557806344b7e5f21461048557806346a634d4146104a557806348e6be1c146104c557806352d1902d146104e55780635479d940146104fa57005b806323b872dd1161028357806323b872dd146103a6578063313ce567146103c657806334273637146103e257806337674a2b146103f757806338d38c9714610417578063395093511461044557005b806301ffc9a7146102d057806306fdde0314610305578063095ea7b31461032757806317fdcc8e1461034757806318160ddd146103675780631c6928e81461038657005b366102ce57005b005b3480156102dc57600080fd5b506102f06102eb366004613d8b565b6108d5565b60405190151581526020015b60405180910390f35b34801561031157600080fd5b5061031a610936565b6040516102fc9190613e00565b34801561033357600080fd5b506102f0610342366004613e28565b6109c8565b34801561035357600080fd5b506102f0610362366004613e54565b6109de565b34801561037357600080fd5b50604d545b6040519081526020016102fc565b34801561039257600080fd5b506102f06103a1366004613e6d565b610a7f565b3480156103b257600080fd5b506102f06103c1366004613ee1565b610b1e565b3480156103d257600080fd5b50604051601281526020016102fc565b3480156103ee57600080fd5b506102f0610b35565b34801561040357600080fd5b506102ce610412366004613f22565b610cb8565b34801561042357600080fd5b50604f54600160a81b900461ffff1660405161ffff90911681526020016102fc565b34801561045157600080fd5b50610378610460366004613e28565b610fd5565b34801561047157600080fd5b50610378610480366004613e28565b611050565b34801561049157600080fd5b506102f06104a0366004613f76565b611109565b3480156104b157600080fd5b506102f06104c0366004613f93565b6112b8565b3480156104d157600080fd5b506102f06104e0366004613f76565b6112c4565b3480156104f157600080fd5b5061037861148d565b34801561050657600080fd5b50600454610100900460ff166102f0565b34801561052357600080fd5b506102ce610532366004613fcc565b61151a565b34801561054357600080fd5b5061054c611621565b6040516001600160a01b0390911681526020016102fc565b34801561057057600080fd5b506102ce61162b565b34801561058557600080fd5b506102f0610594366004613fcc565b6116cd565b3480156105a557600080fd5b50604f54600160b81b900460ff166102f0565b3480156105c457600080fd5b506103786105d3366004613fcc565b6001600160a01b031660009081526045602052604090205490565b3480156105fa57600080fd5b50610378610609366004613fcc565b6116ed565b34801561061a57600080fd5b5061031a610629366004614057565b61170e565b34801561063a57600080fd5b506102ce610649366004613fcc565b611836565b34801561065a57600080fd5b50600154610378565b34801561066f57600080fd5b506102ce61067e366004613fcc565b6118ea565b34801561068f57600080fd5b50604e54610378565b3480156106a457600080fd5b506106ad6119f7565b6040516102fc919061410e565b3480156106c657600080fd5b506102ce6106d536600461419f565b611a03565b3480156106e657600080fd5b50610378611a80565b3480156106fb57600080fd5b506102ce611a8b565b34801561071057600080fd5b50604f546001600160a01b031661054c565b34801561072e57600080fd5b5061031a611b16565b34801561074357600080fd5b50610378610752366004613e28565b611b25565b34801561076357600080fd5b506102f06107723660046141e0565b611ce5565b34801561078357600080fd5b50600254610378565b34801561079857600080fd5b50604f54600160a01b900460ff166102f0565b3480156107b757600080fd5b506103786107c6366004613e28565b611ec6565b3480156107d757600080fd5b506102f06107e6366004613e28565b611f33565b3480156107f757600080fd5b506000546001600160a01b031661054c565b34801561081557600080fd5b5060045460ff166102f0565b34801561082d57600080fd5b50600354610378565b34801561084257600080fd5b506102f0610851366004613fcc565b611f70565b34801561086257600080fd5b50610378610871366004614289565b6120ea565b34801561088257600080fd5b506106ad6120f6565b34801561089757600080fd5b50610378612102565b3480156108ac57600080fd5b5061054c61210c565b3480156108c157600080fd5b506102f06108d036600461419f565b612116565b60006001600160e01b03198216634a17459160e11b148061090657506001600160e01b0319821663e3a31a9d60e01b145b8061092157506001600160e01b03198216636b88d51560e11b145b80610930575061093082612184565b92915050565b6060604b8054610945906142b7565b80601f0160208091040260200160405190810160405280929190818152602001828054610971906142b7565b80156109be5780601f10610993576101008083540402835291602001916109be565b820191906000526020600020905b8154815290600101906020018083116109a157829003601f168201915b5050505050905090565b60006109d53384846121d4565b50600192915050565b60045460009060ff1615610a0d5760405162461bcd60e51b8152600401610a04906142eb565b60405180910390fd5b630bfee64760e11b610a1e8161237e565b610a3a5760405162461bcd60e51b8152600401610a0490614322565b604e83905560405183815233907fb7902185ac0a79231c8be85f0ee0d94806d95d785d216824a078279f5d5bfbae9060200160405180910390a2600191505b50919050565b6000805b82811015610b1457610b01848483818110610aa057610aa0614349565b610ab69260206060909202019081019150613fcc565b858584818110610ac857610ac8614349565b9050606002016020016020810190610ae09190613fcc565b868685818110610af257610af2614349565b905060600201604001356124e5565b5080610b0c81614375565b915050610a83565b5060019392505050565b6000610b2b8484846124e5565b90505b9392505050565b60006001600160a01b037f0000000000000000000000000000000000000000000000000000000000000000163003610b7f5760405162461bcd60e51b8152600401610a049061438e565b7f00000000000000000000000000000000000000000000000000000000000000006001600160a01b0316610bb161258e565b6001600160a01b031614610bd75760405162461bcd60e51b8152600401610a04906143bd565b33610be06125af565b6001600160a01b031614610c2e5760405162461bcd60e51b815260206004820152601560248201527410d85b1b195c88139bdd08105d5d1a1bdc9a5e9959605a1b6044820152606401610a04565b60045460ff1615610c515760405162461bcd60e51b8152600401610a04906142eb565b604f54600160a81b900461ffff1661ffff16600114610cb25760405162461bcd60e51b815260206004820152601960248201527f546f6b656e20416c7265616479204469737472696275746564000000000000006044820152606401610a04565b50600190565b6001600160a01b037f0000000000000000000000000000000000000000000000000000000000000000163003610d005760405162461bcd60e51b8152600401610a049061438e565b7f00000000000000000000000000000000000000000000000000000000000000006001600160a01b0316610d3261258e565b6001600160a01b031614610d585760405162461bcd60e51b8152600401610a04906143bd565b33610d616125af565b6001600160a01b031614610daf5760405162461bcd60e51b815260206004820152601560248201527410d85b1b195c88139bdd08105d5d1a1bdc9a5e9959605a1b6044820152606401610a04565b604f54600160b81b900460ff1615808015610dd85750604f546001600160a81b90910461ffff16105b80610dfa5750303b158015610dfa5750604f54600160a81b900461ffff166001145b610e465760405162461bcd60e51b815260206004820152601c60248201527f436f6e747261637420416c726561647920496e697469616c697a6564000000006044820152606401610a04565b604f805461ffff60a81b1916600160a81b1790558015610e7457604f805460ff60b81b1916600160b81b1790555b6000610e8360408401846143eb565b604051602001610e94929190614431565b60408051601f1981840301815291905280516020909101209050610ede610ebb84806143eb565b610ec860208701876143eb565b85610ed960e08a0160c08b01613fcc565b6125d7565b6040805180820190915260068152654c4956454c5960d01b6020820152604b90610f089082614487565b5060408051808201909152600381526213159360ea1b6020820152604c90610f309082614487565b506080830135604e55610f4a610100840160e08501613fcc565b604f80546001600160a01b0319166001600160a01b0392909216919091179055610f89610f7f61012085016101008601613fcc565b8460a001356125ed565b50610fb7610f9784806143eb565b610fa460208701876143eb565b85610fb260608a018a6143eb565b6126ad565b508015610fcc57604f805460ff60b81b191690555b5050565b905090565b6000338183610fe4838761283b565b610fee9190614546565b9050610ffb8286836121d4565b846001600160a01b0316826001600160a01b03167f9b9f67a808b4e28f472925542c2526a9776c376bcfd8a322bb25d2546db79b758660405161104091815260200190565b60405180910390a3949350505050565b60045460009060ff16156110765760405162461bcd60e51b8152600401610a04906142eb565b604f54600160a01b900460ff16156110a05760405162461bcd60e51b8152600401610a049061455e565b826110ac604782612866565b156110c95760405162461bcd60e51b8152600401610a0490614595565b6340c10f1960e01b6110da8161237e565b6110f65760405162461bcd60e51b8152600401610a0490614322565b61110085856125ed565b95945050505050565b60006001600160a01b037f00000000000000000000000000000000000000000000000000000000000000001630036111535760405162461bcd60e51b8152600401610a049061438e565b7f00000000000000000000000000000000000000000000000000000000000000006001600160a01b031661118561258e565b6001600160a01b0316146111ab5760405162461bcd60e51b8152600401610a04906143bd565b604f54600160a81b900461ffff166112055760405162461bcd60e51b815260206004820152601860248201527f436f6e7472616374204e6f7420496e697469616c697a656400000000000000006044820152606401610a04565b61121563225bf2f960e11b61237e565b6112595760405162461bcd60e51b815260206004820152601560248201527429b2ba29b0b332a6b7b232902337b93134b23232b760591b6044820152606401610a04565b6004805460ff191683151517905560035430336001600160a01b03167fdd452a31d2e164a1ea436c084842c27d24ae2548a575a869f71b05a4ed16243f856040516112a8911515815260200190565b60405180910390a450805b919050565b6000610b2e8383612888565b60006001600160a01b037f000000000000000000000000000000000000000000000000000000000000000016300361130e5760405162461bcd60e51b8152600401610a049061438e565b7f00000000000000000000000000000000000000000000000000000000000000006001600160a01b031661134061258e565b6001600160a01b0316146113665760405162461bcd60e51b8152600401610a04906143bd565b60045460ff16156113895760405162461bcd60e51b8152600401610a04906142eb565b611399631239af8760e21b61237e565b6113e55760405162461bcd60e51b815260206004820152601a60248201527f5365745570677261646553746174757320466f7262696464656e0000000000006044820152606401610a04565b6113ed612a0d565b6114395760405162461bcd60e51b815260206004820152601760248201527f5265616c6d205570677261646520466f7262696464656e0000000000000000006044820152606401610a04565b6004805461ff0019166101008415150217905560035430336001600160a01b03167fe9f97ad94c2ba252dcfc525e004f608ac5cb886955d8fc87d9e0ee070a698c56856040516112a8911515815260200190565b6000306001600160a01b037f000000000000000000000000000000000000000000000000000000000000000016146115075760405162461bcd60e51b815260206004820152601d60248201527f496c6c6567616c20436f6e74726163742044656c656761746563616c6c0000006044820152606401610a04565b50600080516020614acd83398151915290565b60045460ff161561153d5760405162461bcd60e51b8152600401610a04906142eb565b6357b001f960e01b61154e8161237e565b61156a5760405162461bcd60e51b8152600401610a0490614322565b6001600160a01b0382166115905760405162461bcd60e51b8152600401610a04906145cc565b61159b604783612866565b6115db5760405162461bcd60e51b81526020600482015260116024820152701058d8dbdd5b9d08139bdd08119bdd5b99607a1b6044820152606401610a04565b6115e6604783612b49565b506040516001600160a01b0383169033907f3d072963433794eb417a69355df67d08bbd73d5076ef653d6863861161d60af390600090a35050565b6000610fd061258e565b60045460ff161561164e5760405162461bcd60e51b8152600401610a04906142eb565b63595c6a6760e01b61165f8161237e565b61167b5760405162461bcd60e51b8152600401610a0490614322565b604f805460ff60a01b1916600160a01b1790556116953390565b6001600160a01b03167ff1005168aea1429fe9559d51ef6caa33e6426890864e2e6e41e5d54baa7be79f60405160405180910390a250565b60006001600160a01b038216158015906109305750610930604783612866565b6001600160a01b038116600090815260456020526040812060010154610930565b60606001600160a01b037f00000000000000000000000000000000000000000000000000000000000000001630036117585760405162461bcd60e51b8152600401610a049061438e565b7f00000000000000000000000000000000000000000000000000000000000000006001600160a01b031661178a61258e565b6001600160a01b0316146117b05760405162461bcd60e51b8152600401610a04906143bd565b60045460ff16156117d35760405162461bcd60e51b8152600401610a04906142eb565b600454610100900460ff166118225760405162461bcd60e51b8152602060048201526015602482015274155c19dc9859194810d85b1b0814995a9958dd1959605a1b6044820152606401610a04565b61182b84612b5e565b610b2b848484612c25565b60045460ff16156118595760405162461bcd60e51b8152600401610a04906142eb565b61186963756af45f60e01b61237e565b6118b55760405162461bcd60e51b815260206004820152601a60248201527f57697468647261772042616c616e636520466f7262696464656e0000000000006044820152606401610a04565b6040516001600160a01b038216904780156108fc02916000818181858888f19350505050158015610fcc573d6000803e3d6000fd5b60045460ff161561190d5760405162461bcd60e51b8152600401610a04906142eb565b6376a67a5160e01b61191e8161237e565b61193a5760405162461bcd60e51b8152600401610a0490614322565b6001600160a01b0382166119605760405162461bcd60e51b8152600401610a04906145cc565b61196b604783612866565b156119b15760405162461bcd60e51b81526020600482015260166024820152751058d8dbdd5b9d08105b1c9958591e4814185d5cd95960521b6044820152606401610a04565b6119bc604783612e76565b506040516001600160a01b0383169033907f3dd4f37ca5eaf6c357698a52c806820426d7c9a26adb0991c3bebb09cf23352a90600090a35050565b6060610fd06049612e8b565b60005b81811015611a7b57611a68838383818110611a2357611a23614349565b611a399260206040909202019081019150613fcc565b848484818110611a4b57611a4b614349565b9050604002016020016020810190611a639190613f76565b612888565b5080611a7381614375565b915050611a06565b505050565b6000610fd030612e98565b60045460ff1615611aae5760405162461bcd60e51b8152600401610a04906142eb565b638a2ddd0360e01b611abf8161237e565b611adb5760405162461bcd60e51b8152600401610a0490614322565b604f805460ff60a01b1916905560405133907f3c1fb1fd79ee84e55a8fe78554c432ef36ea033a9245ce4b650bd824a12554d390600090a250565b6060604c8054610945906142b7565b60045460009060ff1615611b4b5760405162461bcd60e51b8152600401610a04906142eb565b604f54600160a01b900460ff1615611b755760405162461bcd60e51b8152600401610a049061455e565b82611b81604782612866565b15611b9e5760405162461bcd60e51b8152600401610a0490614595565b632770a7eb60e21b611baf8161237e565b611bcb5760405162461bcd60e51b8152600401610a0490614322565b6001600160a01b038516611bf15760405162461bcd60e51b8152600401610a04906145cc565b6001600160a01b03851660009081526045602052604090205484811015611c5a5760405162461bcd60e51b815260206004820152601c60248201527f496e73756666696369656e74204163636f756e742042616c616e6365000000006044820152606401610a04565b6001600160a01b03861660009081526045602052604081208683039055604d8054879290611c89908490614603565b9091555050604d546040805187815260208101929092526001600160a01b0388169133917f5d624aa9c148153ab3446c1b154f660ee7701e549fe9b62dab7171b1c80e6fa2910160405180910390a35050604d54949350505050565b600083421115611d375760405162461bcd60e51b815260206004820152601760248201527f5065726d6974204578706972656420446561646c696e650000000000000000006044820152606401610a04565b60007f6e71edae12b1b97f4d1f60370fef10105fa2faae0126114a169c64845d6126c9888888611d668c612ed7565b6040805160208101969096526001600160a01b0394851690860152929091166060840152608083015260a082015260c0810186905260e0016040516020818303038152906040528051906020012090506000611e04611dc3612f00565b8360405161190160f01b6020820152602281018390526042810182905260009060620160405160208183030381529060405280519060200120905092915050565b90506000611e488287878080601f016020809104026020016040519081016040528093929190818152602001838380828437600092019190915250612f6992505050565b9050896001600160a01b0316816001600160a01b031614611eab5760405162461bcd60e51b815260206004820152601860248201527f496c6c6567616c20454344415341205369676e617475726500000000000000006044820152606401610a04565b611eb68a8a8a6121d4565b5060019998505050505050505050565b600033611ed4818585612f8d565b836001600160a01b0316816001600160a01b03167f273a6f9c8085294c2766bde5f5a94cc3235d14759db4137af7a88a1c10e5a1ec85604051611f1991815260200190565b60405180910390a3611f2b818561283b565b949350505050565b600080604e54118015611f505750611f4e335b604990612866565b155b15611f6557611f60338484612ffe565b6109d5565b6109d5338484613090565b60006001600160a01b037f0000000000000000000000000000000000000000000000000000000000000000163003611fba5760405162461bcd60e51b8152600401610a049061438e565b7f00000000000000000000000000000000000000000000000000000000000000006001600160a01b0316611fec61258e565b6001600160a01b0316146120125760405162461bcd60e51b8152600401610a04906143bd565b60045460ff16156120355760405162461bcd60e51b8152600401610a04906142eb565b61204563d9dc1f1960e01b61237e565b6120915760405162461bcd60e51b815260206004820152601760248201527f5365744c6f63616c41646d696e20466f7262696464656e0000000000000000006044820152606401610a04565b6001600160a01b0382166120d95760405162461bcd60e51b815260206004820152600f60248201526e1059191c995cdcc8125b9d985b1a59608a1b6044820152606401610a04565b6120e28261337d565b506001919050565b6000610b2e838361283b565b6060610fd06047612e8b565b6000610fd0612f00565b6000610fd06125af565b6000805b82811015610b145761216f3385858481811061213857612138614349565b61214e9260206040909202019081019150613fcc565b86868581811061216057612160614349565b90506040020160200135613090565b8061217981614375565b91505061211a565b90565b60006001600160e01b0319821663748be05360e01b14806121b557506001600160e01b031982166352d1902d60e01b145b8061093057506301ffc9a760e01b6001600160e01b0319831614610930565b60045460ff16156121f75760405162461bcd60e51b8152600401610a04906142eb565b604f54600160a01b900460ff16156122215760405162461bcd60e51b8152600401610a049061455e565b8261222d604782612866565b1561224a5760405162461bcd60e51b8152600401610a0490614595565b63095ea7b360e01b61225b8161237e565b6122775760405162461bcd60e51b8152600401610a0490614322565b6001600160a01b0385166122c55760405162461bcd60e51b8152602060048201526015602482015274496e76616c6964204f776e6572204164647265737360581b6044820152606401610a04565b6001600160a01b03841661231b5760405162461bcd60e51b815260206004820152601760248201527f496e76616c6964205370656e64657220416464726573730000000000000000006044820152606401610a04565b6001600160a01b0385811660008181526046602090815260408083209489168084529482529182902087905590518681527f8c5be1e5ebec7d5bd14f71427d1e84f3dd0314c0f7b2291e5b200ac8c7c3b925910160405180910390a35050505050565b600080546001600160a01b0316300361246a5760006363d59cf360e11b6123a430612e98565b33856040516024016123b89392919061461a565b60408051601f198184030181529190526020810180516001600160e01b03166001600160e01b031990931692909217909152905060006124356123f961258e565b836040518060400160405280601d81526020017f44656c656761746563616c6c20686173416363657373204661696c65640000008152506133f4565b905080600182516124469190614603565b8151811061245657612456614349565b60209101015160f81c600114949350505050565b6000546001600160a01b031663c7ab39e661248430612e98565b33856040518463ffffffff1660e01b81526004016124a49392919061461a565b602060405180830381865afa1580156124c1573d6000803e3d6000fd5b505050506040513d601f19601f82011682018060405250810190610930919061464e565b604e5460009033901580159061250157506124ff33611f46565b155b1561251657612511858585612ffe565b612521565b612521858585613090565b61252c858285612f8d565b836001600160a01b0316856001600160a01b0316826001600160a01b03167f5f7542858008eeb041631f30e6109ae94b83a58e9a58261dd2c42c508850f9398660405161257b91815260200190565b60405180910390a4506001949350505050565b6000600080516020614acd8339815191525b546001600160a01b0316919050565b60007fb53127684a568b3173ae13b9f8a6016e243e63b6e8ee1178d6a717850b5d61036125a0565b6125e58686868686866134bd565b505050505050565b60006001600160a01b0383166126155760405162461bcd60e51b8152600401610a04906145cc565b81604d60008282546126279190614546565b90915550506001600160a01b03831660009081526045602052604081208054849290612654908490614546565b9091555050604d546040805184815260208101929092526001600160a01b0385169133917f2f00e3cdd69a77be7ed215ec7b2a36784dd158f921fca79ac29deffa353fe6ee910160405180910390a350604d5492915050565b6001546002546003546040516397ca328d60e01b8152600481019390935260248301919091526044820152600090819073a513E6E4b8f2a923D98304ec87F64353C4D5C853906397ca328d90606401600060405180830381865af4158015612719573d6000803e3d6000fd5b505050506040513d6000823e601f3d908101601f1916820160405261274191908101906147cf565b6000546040516378efa4ed60e11b81529294509092506001600160a01b03169063f1df49da9061277b9087908790879087906004016148b4565b6020604051808303816000875af115801561279a573d6000803e3d6000fd5b505050506040513d601f19601f820116820180604052508101906127be91906149c0565b506127c761258e565b6001600160a01b031630336001600160a01b03167ff851a1e85477b818fc72ad517ea622cc316f10f67d61c9e740adc151a8b413948c8c8c8c8c612816604f5461ffff600160a81b9091041690565b604051612828969594939291906149d9565b60405180910390a4505050505050505050565b6001600160a01b03918216600090815260466020908152604080832093909416825291909152205490565b6001600160a01b03811660009081526001830160205260408120541515610b2e565b60045460009060ff16156128ae5760405162461bcd60e51b8152600401610a04906142eb565b6311a98d3560e21b6128bf8161237e565b6128db5760405162461bcd60e51b8152600401610a0490614322565b6001600160a01b0384166129015760405162461bcd60e51b8152600401610a04906145cc565b821561296357612912604985612866565b6129525760405162461bcd60e51b81526020600482015260116024820152701058d8dbdd5b9d08139bdd08119bdd5b99607a1b6044820152606401610a04565b61295d604985612b49565b506129c1565b61296e604985612866565b156129b45760405162461bcd60e51b81526020600482015260166024820152754163636f756e7420416c72656164792045786973747360501b6044820152606401610a04565b6129bf604985612e76565b505b60405183151581526001600160a01b0385169033907f85766eb39b0ac39ad7e8afbf36233d9adb1af81136bbea1f94cacd4b2e272c699060200160405180910390a35060019392505050565b600080546001600160a01b03163003612ad357600063e25d75f060e01b600354604051602401612a3f91815260200190565b60408051601f198184030181529190526020810180516001600160e01b03166001600160e01b03199093169290921790915290506000612a9f612a8061258e565b83604051806060016040528060258152602001614aa8602591396133f4565b90508060018251612ab09190614603565b81518110612ac057612ac0614349565b60209101015160f81c6001149392505050565b600054600354604051630e25d75f60e41b81526001600160a01b039092169163e25d75f091612b089160040190815260200190565b602060405180830381865afa158015612b25573d6000803e3d6000fd5b505050506040513d601f19601f82011682018060405250810190610fd0919061464e565b6000610b2e836001600160a01b0384166136c9565b612b6661258e565b6001600160a01b0316816001600160a01b031603612bc65760405162461bcd60e51b815260206004820152601a60248201527f496c6c6567616c204e657720496d706c656d656e746174696f6e0000000000006044820152606401610a04565b612bd6637147855d60e01b61237e565b612c225760405162461bcd60e51b815260206004820152601960248201527f5570677261646520436f6e7465787420466f7262696464656e000000000000006044820152606401610a04565b50565b60607f4910fdfa16fed3260ed0e7147f7cc6da11a60208b5b9406d12a635614ffd91435460ff1615612c6f57612c5a846137bc565b50604080516000815260208101909152610b2e565b836001600160a01b03166352d1902d6040518163ffffffff1660e01b8152600401602060405180830381865afa925050508015612cc9575060408051601f3d908101601f19168201909252612cc6918101906149c0565b60015b612d0d5760405162461bcd60e51b8152602060048201526015602482015274125b1b1959d85b0815555414c810dbdb9d1c9858dd605a1b6044820152606401610a04565b600080516020614acd8339815191528114612d625760405162461bcd60e51b8152602060048201526015602482015274125b9d985b1a590815555414c810dbdb9d1c9858dd605a1b6044820152606401610a04565b506040516301ffc9a760e01b815263748be05360e01b60048201526001600160a01b038516906301ffc9a790602401602060405180830381865afa925050508015612dca575060408051601f3d908101601f19168201909252612dc79181019061464e565b60015b612e165760405162461bcd60e51b815260206004820152601760248201527f496c6c6567616c204950726f787920436f6e74726163740000000000000000006044820152606401610a04565b80612e635760405162461bcd60e51b815260206004820152601760248201527f496e76616c6964204950726f787920436f6e74726163740000000000000000006044820152606401610a04565b50612e6f84848461383d565b9050610b2e565b6000610b2e836001600160a01b0384166138a7565b60606000610b2e836138f6565b6040516bffffffffffffffffffffffff19606083901b166020820152600090603401604051602081830303815290604052805190602001209050919050565b6001600160a01b0381166000908152604560205260409020600190810180549182018155610a79565b600154600254604080517f8b73c3c69bb8fe3d512ecc4cf759cc79239f7b179b0ffacaa9a75d522b39400f60208201529081019290925260608201524660808201523060a082015260009060c00160405160208183030381529060405280519060200120905090565b6000806000612f788585613952565b91509150612f85816139c0565b509392505050565b6000612f99848461283b565b905081811015612feb5760405162461bcd60e51b815260206004820152601e60248201527f496e73756666696369656e74204163636f756e7420416c6c6f77616e636500006044820152606401610a04565b612ff884848484036121d4565b50505050565b6000613015604e5483613b7690919063ffffffff16565b90506000613063826040518060400160405280601c81526020017f496e73756666696369656e74205472616e7366657220416d6f756e740000000081525085613b8e9092919063ffffffff16565b604f5490915061307e9086906001600160a01b031684613090565b613089858583613090565b5050505050565b60045460ff16156130b35760405162461bcd60e51b8152600401610a04906142eb565b604f54600160a01b900460ff16156130dd5760405162461bcd60e51b8152600401610a049061455e565b826130e9604782612866565b156131065760405162461bcd60e51b8152600401610a0490614595565b63a9059cbb60e01b6131178161237e565b6131335760405162461bcd60e51b8152600401610a0490614322565b6001600160a01b0385166131825760405162461bcd60e51b8152602060048201526016602482015275496e76616c696420536f75726365204164647265737360501b6044820152606401610a04565b6001600160a01b0384166131d85760405162461bcd60e51b815260206004820152601b60248201527f496e76616c69642044657374696e6174696f6e204164647265737300000000006044820152606401610a04565b836001600160a01b0316856001600160a01b0316036132315760405162461bcd60e51b815260206004820152601560248201527424b63632b3b0b61029b2b633102a3930b739b332b960591b6044820152606401610a04565b600083116132815760405162461bcd60e51b815260206004820152601760248201527f496e76616c6964205472616e7366657220416d6f756e740000000000000000006044820152606401610a04565b6001600160a01b038516600090815260456020526040902054838110156132ea5760405162461bcd60e51b815260206004820152601c60248201527f496e73756666696369656e74204163636f756e742042616c616e6365000000006044820152606401610a04565b6001600160a01b03808716600090815260456020526040808220878503905591871681529081208054869290613321908490614546565b92505081905550846001600160a01b0316866001600160a01b03167fddf252ad1be2c89b69c2b068fc378daa952ba7f163c4a11628f55a4df523b3ef8660405161336d91815260200190565b60405180910390a3505050505050565b7fb53127684a568b3173ae13b9f8a6016e243e63b6e8ee1178d6a717850b5d610380546001600160a01b0383166001600160a01b031990911681179091556040805191825251309133917f54ab0d18de7958786ba1ad85966d59baa2b395455f0530dcdcfd732e6af539e29181900360200190a350565b60606001600160a01b0384163b6134485760405162461bcd60e51b8152602060048201526018602482015277496c6c6567616c20436f6e7472616374204164647265737360401b6044820152606401610a04565b600080856001600160a01b0316856040516134639190614a1e565b600060405180830381855af49150503d806000811461349e576040519150601f19603f3d011682016040523d82523d6000602084013e6134a3565b606091505b50915091506134b3828286613bba565b9695505050505050565b604f54600160b81b900460ff166135165760405162461bcd60e51b815260206004820152601960248201527f436f6e7472616374204e6f7420496e697469616c697a696e67000000000000006044820152606401610a04565b8585604051602001613529929190614431565b60408051601f19818403018152908290528051602091820120600155613553918691869101614431565b60408051601f19818403018152919052805160209091012060025560038290556001600160a01b03811661359857600080546001600160a01b031916301790556136b5565b6040516301ffc9a760e01b8152631b44bad360e31b60048201526001600160a01b038216906301ffc9a790602401602060405180830381865afa9250505080156135ff575060408051601f3d908101601f191682019092526135fc9181019061464e565b60015b61364b5760405162461bcd60e51b815260206004820152601c60248201527f496c6c6567616c20416363657373436f6e74726f6c4d616e61676572000000006044820152606401610a04565b806136985760405162461bcd60e51b815260206004820152601c60248201527f496e76616c696420416363657373436f6e74726f6c4d616e61676572000000006044820152606401610a04565b50600080546001600160a01b0319166001600160a01b0383161790555b6004805461ffff191690556125e53361337d565b600081815260018301602052604081205480156137b25760006136ed600183614603565b855490915060009061370190600190614603565b905081811461376657600086600001828154811061372157613721614349565b906000526020600020015490508087600001848154811061374457613744614349565b6000918252602080832090910192909255918252600188019052604090208390555b855486908061377757613777614a3a565b600190038181906000526020600020016000905590558560010160008681526020019081526020016000206000905560019350505050610930565b6000915050610930565b6001600160a01b0381163b61380e5760405162461bcd60e51b8152602060048201526018602482015277496c6c6567616c20436f6e7472616374204164647265737360401b6044820152606401610a04565b600080516020614acd83398151915280546001600160a01b0319166001600160a01b0392909216919091179055565b606061384884613bf3565b6000835111806138555750815b1561389057612e6f84846040518060400160405280601381526020017211195b1959d85d1958d85b1b0811985a5b1959606a1b8152506133f4565b505060408051600081526020810190915292915050565b60008181526001830160205260408120546138ee57508154600181810184556000848152602080822090930184905584548482528286019093526040902091909155610930565b506000610930565b60608160000180548060200260200160405190810160405280929190818152602001828054801561394657602002820191906000526020600020905b815481526020019060010190808311613932575b50505050509050919050565b60008082516041036139885760208301516040840151606085015160001a61397c87828585613c37565b945094505050506139b9565b82516040036139b157602083015160408401516139a6868383613d24565b9350935050506139b9565b506000905060025b9250929050565b60008160048111156139d4576139d4614a50565b036139dc5750565b60018160048111156139f0576139f0614a50565b03613a3d5760405162461bcd60e51b815260206004820152601860248201527f45434453413a20696e76616c6964207369676e617475726500000000000000006044820152606401610a04565b6002816004811115613a5157613a51614a50565b03613a9e5760405162461bcd60e51b815260206004820152601f60248201527f45434453413a20696e76616c6964207369676e6174757265206c656e677468006044820152606401610a04565b6003816004811115613ab257613ab2614a50565b03613b0a5760405162461bcd60e51b815260206004820152602260248201527f45434453413a20696e76616c6964207369676e6174757265202773272076616c604482015261756560f01b6064820152608401610a04565b6004816004811115613b1e57613b1e614a50565b03612c225760405162461bcd60e51b815260206004820152602260248201527f45434453413a20696e76616c6964207369676e6174757265202776272076616c604482015261756560f01b6064820152608401610a04565b6000610b2e612710613b888585613d5d565b90613d69565b60008184841115613bb25760405162461bcd60e51b8152600401610a049190613e00565b505050900390565b60608315613bc9575081610b2e565b825115613bd95782518084602001fd5b8160405162461bcd60e51b8152600401610a049190613e00565b613bfc816137bc565b6040516001600160a01b03821690309033907f354bd4b6eb65d64e6c79c53fa4f983a5e6bec4824ce4627c71be0b2722f4917e90600090a450565b6000807f7fffffffffffffffffffffffffffffff5d576e7357a4501ddfe92f46681b20a0831115613c6e5750600090506003613d1b565b8460ff16601b14158015613c8657508460ff16601c14155b15613c975750600090506004613d1b565b6040805160008082526020820180845289905260ff881692820192909252606081018690526080810185905260019060a0016020604051602081039080840390855afa158015613ceb573d6000803e3d6000fd5b5050604051601f1901519150506001600160a01b038116613d1457600060019250925050613d1b565b9150600090505b94509492505050565b6000806001600160ff1b03831681613d4160ff86901c601b614546565b9050613d4f87828885613c37565b935093505050935093915050565b6000610b2e8284614a66565b6000610b2e8284614a85565b6001600160e01b031981168114612c2257600080fd5b600060208284031215613d9d57600080fd5b8135610b2e81613d75565b60005b83811015613dc3578181015183820152602001613dab565b83811115612ff85750506000910152565b60008151808452613dec816020860160208601613da8565b601f01601f19169290920160200192915050565b602081526000610b2e6020830184613dd4565b6001600160a01b0381168114612c2257600080fd5b60008060408385031215613e3b57600080fd5b8235613e4681613e13565b946020939093013593505050565b600060208284031215613e6657600080fd5b5035919050565b60008060208385031215613e8057600080fd5b82356001600160401b0380821115613e9757600080fd5b818501915085601f830112613eab57600080fd5b813581811115613eba57600080fd5b866020606083028501011115613ecf57600080fd5b60209290920196919550909350505050565b600080600060608486031215613ef657600080fd5b8335613f0181613e13565b92506020840135613f1181613e13565b929592945050506040919091013590565b600060208284031215613f3457600080fd5b81356001600160401b03811115613f4a57600080fd5b82016101208185031215610b2e57600080fd5b8015158114612c2257600080fd5b80356112b381613f5d565b600060208284031215613f8857600080fd5b8135610b2e81613f5d565b60008060408385031215613fa657600080fd5b8235613fb181613e13565b91506020830135613fc181613f5d565b809150509250929050565b600060208284031215613fde57600080fd5b8135610b2e81613e13565b634e487b7160e01b600052604160045260246000fd5b604051606081016001600160401b038111828210171561402157614021613fe9565b60405290565b604051601f8201601f191681016001600160401b038111828210171561404f5761404f613fe9565b604052919050565b60008060006060848603121561406c57600080fd5b833561407781613e13565b92506020848101356001600160401b038082111561409457600080fd5b818701915087601f8301126140a857600080fd5b8135818111156140ba576140ba613fe9565b6140cc601f8201601f19168501614027565b915080825288848285010111156140e257600080fd5b808484018584013760008482840101525080945050505061410560408501613f6b565b90509250925092565b6020808252825182820181905260009190848201906040850190845b8181101561414f5783516001600160a01b03168352928401929184019160010161412a565b50909695505050505050565b60008083601f84011261416d57600080fd5b5081356001600160401b0381111561418457600080fd5b6020830191508360208260061b85010111156139b957600080fd5b600080602083850312156141b257600080fd5b82356001600160401b038111156141c857600080fd5b6141d48582860161415b565b90969095509350505050565b60008060008060008060a087890312156141f957600080fd5b863561420481613e13565b9550602087013561421481613e13565b9450604087013593506060870135925060808701356001600160401b038082111561423e57600080fd5b818901915089601f83011261425257600080fd5b81358181111561426157600080fd5b8a602082850101111561427357600080fd5b6020830194508093505050509295509295509295565b6000806040838503121561429c57600080fd5b82356142a781613e13565b91506020830135613fc181613e13565b600181811c908216806142cb57607f821691505b602082108103610a7957634e487b7160e01b600052602260045260246000fd5b60208082526017908201527f536166654d6f64653a2043616c6c2052656a6563746564000000000000000000604082015260600190565b6020808252600d908201526c1058d8d95cdcc811195b9a5959609a1b604082015260600190565b634e487b7160e01b600052603260045260246000fd5b634e487b7160e01b600052601160045260246000fd5b6000600182016143875761438761435f565b5060010190565b602080825260159082015274125b1b1959d85b0810dbdb9d1c9858dd0810d85b1b605a1b604082015260600190565b602080825260149082015273141c9bde1e4810d85b1b195908125b9d985b1a5960621b604082015260600190565b6000808335601e1984360301811261440257600080fd5b8301803591506001600160401b0382111561441c57600080fd5b6020019150368190038213156139b957600080fd5b8183823760009101908152919050565b601f821115611a7b57600081815260208120601f850160051c810160208610156144685750805b601f850160051c820191505b818110156125e557828155600101614474565b81516001600160401b038111156144a0576144a0613fe9565b6144b4816144ae84546142b7565b84614441565b602080601f8311600181146144e957600084156144d15750858301515b600019600386901b1c1916600185901b1785556125e5565b600085815260208120601f198616915b82811015614518578886015182559484019460019091019084016144f9565b50858210156145365787850151600019600388901b60f8161c191681555b5050505050600190811b01905550565b600082198211156145595761455961435f565b500190565b60208082526019908201527f455243323050617573653a2043616c6c2052656a656374656400000000000000604082015260600190565b6020808252601d908201527f455243323050617573653a204163636f756e742053757370656e646564000000604082015260600190565b60208082526017908201527f496e76616c6964204163636f756e742041646472657373000000000000000000604082015260600190565b6000828210156146155761461561435f565b500390565b9283526001600160a01b039190911660208301526001600160e01b031916604082015260600190565b80516112b381613f5d565b60006020828403121561466057600080fd5b8151610b2e81613f5d565b60006001600160401b0382111561468457614684613fe9565b5060051b60200190565b600082601f83011261469f57600080fd5b815160206146b46146af8361466b565b614027565b82815260059290921b840181019181810190868411156146d357600080fd5b8286015b848110156147c45780516001600160401b03808211156146f75760008081fd5b908801906060828b03601f19018113156147115760008081fd5b614719613fff565b878401518152604080850151848111156147335760008081fd5b85019350603f84018d136147475760008081fd5b888401516147576146af8261466b565b81815260059190911b85018201908a8101908f8311156147775760008081fd5b958301955b8287101561479e57865161478f81613d75565b8252958b0195908b019061477c565b848c0152506147b09050858401614643565b9082015286525050509183019183016146d7565b509695505050505050565b60008082840360c08112156147e357600080fd5b60a08112156147f157600080fd5b5060405160a081016001600160401b03828210818311171561481557614815613fe9565b816040528551835260208601516020840152604086015160408401526060860151915061484182613e13565b8160608401526080860151915061485782613f5d565b6080830182905260a08601519294508083111561487357600080fd5b50506148818582860161468e565b9150509250929050565b81835281816020850137506000828201602090810191909152601f909101601f19169091010190565b60e0815260006148c860e08301868861488b565b6020855181850152808601516040818187015280880151915060608281880152808901519250608060018060a01b03841681890152808a0151151560a089015287860360c089015285935088518087528587019450858160051b880101868b016000805b848110156149ab578a8403601f190189528251805185528a8101518b86018990528051898701819052908c01908490898801905b8083101561498a5783516001600160e01b0319168252928e019260019290920191908e0190614960565b50928b01511515968b019690965250988a019893509189019160010161492c565b50919f9e505050505050505050505050505050565b6000602082840312156149d257600080fd5b5051919050565b6080815260006149ed60808301888a61488b565b8281036020840152614a0081878961488b565b91505083604083015261ffff83166060830152979650505050505050565b60008251614a30818460208701613da8565b9190910192915050565b634e487b7160e01b600052603160045260246000fd5b634e487b7160e01b600052602160045260246000fd5b6000816000190483118215151615614a8057614a8061435f565b500290565b600082614aa257634e487b7160e01b600052601260045260246000fd5b50049056fe44656c656761746563616c6c2069735265616c6d55706772616461626c65204661696c6564360894a13ba1a3210667c828492db98dca3e2076cc3735a920a3ca505d382bbca26469706673582212208352cc979644bb43a657f842091d814f425449329b69801b500ca5a88f986a6264736f6c634300080f0033b53127684a568b3173ae13b9f8a6016e243e63b6e8ee1178d6a717850b5d6103",
  "deployedBytecode": "0x6080604052600436106102c75760003560e01c80637147855d1161017e578063a0a8e460116100d3578063d3e024b81161008f578063de843a941161006c578063de843a9414610876578063f698da251461088b578063f94a0adb146108a0578063faa552a8146108b557005b8063d3e024b814610821578063d9dc1f1914610836578063dd62ed3e1461085657005b8063a0a8e46014610777578063a0e6adf11461078c578063a457c2d7146107ab578063a9059cbb146107cb578063b4a0bdf3146107eb578063be22465d1461080957005b80637d35f3551161013a5780638a92ab15116101175780638a92ab151461070457806395d89b41146107225780639dc29fac146107375780639fd5a6cf1461075757005b80637d35f355146106ba578063870666cb146106da5780638a2ddd03146106ef57005b80637147855d1461060e578063756af45f1461062e57806375d0c0dc1461064e57806376a67a5114610663578063771a3a1d146106835780637bf60ff41461069857005b806340c10f191161023457806357b001f9116101f05780635b14f183116101cd5780635b14f1831461057957806360fefdec1461059957806370a08231146105b857806370ae92d2146105ee57005b806357b001f91461051757806358dbc45d14610537578063595c6a671461056457005b806340c10f191461046557806344b7e5f21461048557806346a634d4146104a557806348e6be1c146104c557806352d1902d146104e55780635479d940146104fa57005b806323b872dd1161028357806323b872dd146103a6578063313ce567146103c657806334273637146103e257806337674a2b146103f757806338d38c9714610417578063395093511461044557005b806301ffc9a7146102d057806306fdde0314610305578063095ea7b31461032757806317fdcc8e1461034757806318160ddd146103675780631c6928e81461038657005b366102ce57005b005b3480156102dc57600080fd5b506102f06102eb366004613d8b565b6108d5565b60405190151581526020015b60405180910390f35b34801561031157600080fd5b5061031a610936565b6040516102fc9190613e00565b34801561033357600080fd5b506102f0610342366004613e28565b6109c8565b34801561035357600080fd5b506102f0610362366004613e54565b6109de565b34801561037357600080fd5b50604d545b6040519081526020016102fc565b34801561039257600080fd5b506102f06103a1366004613e6d565b610a7f565b3480156103b257600080fd5b506102f06103c1366004613ee1565b610b1e565b3480156103d257600080fd5b50604051601281526020016102fc565b3480156103ee57600080fd5b506102f0610b35565b34801561040357600080fd5b506102ce610412366004613f22565b610cb8565b34801561042357600080fd5b50604f54600160a81b900461ffff1660405161ffff90911681526020016102fc565b34801561045157600080fd5b50610378610460366004613e28565b610fd5565b34801561047157600080fd5b50610378610480366004613e28565b611050565b34801561049157600080fd5b506102f06104a0366004613f76565b611109565b3480156104b157600080fd5b506102f06104c0366004613f93565b6112b8565b3480156104d157600080fd5b506102f06104e0366004613f76565b6112c4565b3480156104f157600080fd5b5061037861148d565b34801561050657600080fd5b50600454610100900460ff166102f0565b34801561052357600080fd5b506102ce610532366004613fcc565b61151a565b34801561054357600080fd5b5061054c611621565b6040516001600160a01b0390911681526020016102fc565b34801561057057600080fd5b506102ce61162b565b34801561058557600080fd5b506102f0610594366004613fcc565b6116cd565b3480156105a557600080fd5b50604f54600160b81b900460ff166102f0565b3480156105c457600080fd5b506103786105d3366004613fcc565b6001600160a01b031660009081526045602052604090205490565b3480156105fa57600080fd5b50610378610609366004613fcc565b6116ed565b34801561061a57600080fd5b5061031a610629366004614057565b61170e565b34801561063a57600080fd5b506102ce610649366004613fcc565b611836565b34801561065a57600080fd5b50600154610378565b34801561066f57600080fd5b506102ce61067e366004613fcc565b6118ea565b34801561068f57600080fd5b50604e54610378565b3480156106a457600080fd5b506106ad6119f7565b6040516102fc919061410e565b3480156106c657600080fd5b506102ce6106d536600461419f565b611a03565b3480156106e657600080fd5b50610378611a80565b3480156106fb57600080fd5b506102ce611a8b565b34801561071057600080fd5b50604f546001600160a01b031661054c565b34801561072e57600080fd5b5061031a611b16565b34801561074357600080fd5b50610378610752366004613e28565b611b25565b34801561076357600080fd5b506102f06107723660046141e0565b611ce5565b34801561078357600080fd5b50600254610378565b34801561079857600080fd5b50604f54600160a01b900460ff166102f0565b3480156107b757600080fd5b506103786107c6366004613e28565b611ec6565b3480156107d757600080fd5b506102f06107e6366004613e28565b611f33565b3480156107f757600080fd5b506000546001600160a01b031661054c565b34801561081557600080fd5b5060045460ff166102f0565b34801561082d57600080fd5b50600354610378565b34801561084257600080fd5b506102f0610851366004613fcc565b611f70565b34801561086257600080fd5b50610378610871366004614289565b6120ea565b34801561088257600080fd5b506106ad6120f6565b34801561089757600080fd5b50610378612102565b3480156108ac57600080fd5b5061054c61210c565b3480156108c157600080fd5b506102f06108d036600461419f565b612116565b60006001600160e01b03198216634a17459160e11b148061090657506001600160e01b0319821663e3a31a9d60e01b145b8061092157506001600160e01b03198216636b88d51560e11b145b80610930575061093082612184565b92915050565b6060604b8054610945906142b7565b80601f0160208091040260200160405190810160405280929190818152602001828054610971906142b7565b80156109be5780601f10610993576101008083540402835291602001916109be565b820191906000526020600020905b8154815290600101906020018083116109a157829003601f168201915b5050505050905090565b60006109d53384846121d4565b50600192915050565b60045460009060ff1615610a0d5760405162461bcd60e51b8152600401610a04906142eb565b60405180910390fd5b630bfee64760e11b610a1e8161237e565b610a3a5760405162461bcd60e51b8152600401610a0490614322565b604e83905560405183815233907fb7902185ac0a79231c8be85f0ee0d94806d95d785d216824a078279f5d5bfbae9060200160405180910390a2600191505b50919050565b6000805b82811015610b1457610b01848483818110610aa057610aa0614349565b610ab69260206060909202019081019150613fcc565b858584818110610ac857610ac8614349565b9050606002016020016020810190610ae09190613fcc565b868685818110610af257610af2614349565b905060600201604001356124e5565b5080610b0c81614375565b915050610a83565b5060019392505050565b6000610b2b8484846124e5565b90505b9392505050565b60006001600160a01b037f0000000000000000000000000000000000000000000000000000000000000000163003610b7f5760405162461bcd60e51b8152600401610a049061438e565b7f00000000000000000000000000000000000000000000000000000000000000006001600160a01b0316610bb161258e565b6001600160a01b031614610bd75760405162461bcd60e51b8152600401610a04906143bd565b33610be06125af565b6001600160a01b031614610c2e5760405162461bcd60e51b815260206004820152601560248201527410d85b1b195c88139bdd08105d5d1a1bdc9a5e9959605a1b6044820152606401610a04565b60045460ff1615610c515760405162461bcd60e51b8152600401610a04906142eb565b604f54600160a81b900461ffff1661ffff16600114610cb25760405162461bcd60e51b815260206004820152601960248201527f546f6b656e20416c7265616479204469737472696275746564000000000000006044820152606401610a04565b50600190565b6001600160a01b037f0000000000000000000000000000000000000000000000000000000000000000163003610d005760405162461bcd60e51b8152600401610a049061438e565b7f00000000000000000000000000000000000000000000000000000000000000006001600160a01b0316610d3261258e565b6001600160a01b031614610d585760405162461bcd60e51b8152600401610a04906143bd565b33610d616125af565b6001600160a01b031614610daf5760405162461bcd60e51b815260206004820152601560248201527410d85b1b195c88139bdd08105d5d1a1bdc9a5e9959605a1b6044820152606401610a04565b604f54600160b81b900460ff1615808015610dd85750604f546001600160a81b90910461ffff16105b80610dfa5750303b158015610dfa5750604f54600160a81b900461ffff166001145b610e465760405162461bcd60e51b815260206004820152601c60248201527f436f6e747261637420416c726561647920496e697469616c697a6564000000006044820152606401610a04565b604f805461ffff60a81b1916600160a81b1790558015610e7457604f805460ff60b81b1916600160b81b1790555b6000610e8360408401846143eb565b604051602001610e94929190614431565b60408051601f1981840301815291905280516020909101209050610ede610ebb84806143eb565b610ec860208701876143eb565b85610ed960e08a0160c08b01613fcc565b6125d7565b6040805180820190915260068152654c4956454c5960d01b6020820152604b90610f089082614487565b5060408051808201909152600381526213159360ea1b6020820152604c90610f309082614487565b506080830135604e55610f4a610100840160e08501613fcc565b604f80546001600160a01b0319166001600160a01b0392909216919091179055610f89610f7f61012085016101008601613fcc565b8460a001356125ed565b50610fb7610f9784806143eb565b610fa460208701876143eb565b85610fb260608a018a6143eb565b6126ad565b508015610fcc57604f805460ff60b81b191690555b5050565b905090565b6000338183610fe4838761283b565b610fee9190614546565b9050610ffb8286836121d4565b846001600160a01b0316826001600160a01b03167f9b9f67a808b4e28f472925542c2526a9776c376bcfd8a322bb25d2546db79b758660405161104091815260200190565b60405180910390a3949350505050565b60045460009060ff16156110765760405162461bcd60e51b8152600401610a04906142eb565b604f54600160a01b900460ff16156110a05760405162461bcd60e51b8152600401610a049061455e565b826110ac604782612866565b156110c95760405162461bcd60e51b8152600401610a0490614595565b6340c10f1960e01b6110da8161237e565b6110f65760405162461bcd60e51b8152600401610a0490614322565b61110085856125ed565b95945050505050565b60006001600160a01b037f00000000000000000000000000000000000000000000000000000000000000001630036111535760405162461bcd60e51b8152600401610a049061438e565b7f00000000000000000000000000000000000000000000000000000000000000006001600160a01b031661118561258e565b6001600160a01b0316146111ab5760405162461bcd60e51b8152600401610a04906143bd565b604f54600160a81b900461ffff166112055760405162461bcd60e51b815260206004820152601860248201527f436f6e7472616374204e6f7420496e697469616c697a656400000000000000006044820152606401610a04565b61121563225bf2f960e11b61237e565b6112595760405162461bcd60e51b815260206004820152601560248201527429b2ba29b0b332a6b7b232902337b93134b23232b760591b6044820152606401610a04565b6004805460ff191683151517905560035430336001600160a01b03167fdd452a31d2e164a1ea436c084842c27d24ae2548a575a869f71b05a4ed16243f856040516112a8911515815260200190565b60405180910390a450805b919050565b6000610b2e8383612888565b60006001600160a01b037f000000000000000000000000000000000000000000000000000000000000000016300361130e5760405162461bcd60e51b8152600401610a049061438e565b7f00000000000000000000000000000000000000000000000000000000000000006001600160a01b031661134061258e565b6001600160a01b0316146113665760405162461bcd60e51b8152600401610a04906143bd565b60045460ff16156113895760405162461bcd60e51b8152600401610a04906142eb565b611399631239af8760e21b61237e565b6113e55760405162461bcd60e51b815260206004820152601a60248201527f5365745570677261646553746174757320466f7262696464656e0000000000006044820152606401610a04565b6113ed612a0d565b6114395760405162461bcd60e51b815260206004820152601760248201527f5265616c6d205570677261646520466f7262696464656e0000000000000000006044820152606401610a04565b6004805461ff0019166101008415150217905560035430336001600160a01b03167fe9f97ad94c2ba252dcfc525e004f608ac5cb886955d8fc87d9e0ee070a698c56856040516112a8911515815260200190565b6000306001600160a01b037f000000000000000000000000000000000000000000000000000000000000000016146115075760405162461bcd60e51b815260206004820152601d60248201527f496c6c6567616c20436f6e74726163742044656c656761746563616c6c0000006044820152606401610a04565b50600080516020614acd83398151915290565b60045460ff161561153d5760405162461bcd60e51b8152600401610a04906142eb565b6357b001f960e01b61154e8161237e565b61156a5760405162461bcd60e51b8152600401610a0490614322565b6001600160a01b0382166115905760405162461bcd60e51b8152600401610a04906145cc565b61159b604783612866565b6115db5760405162461bcd60e51b81526020600482015260116024820152701058d8dbdd5b9d08139bdd08119bdd5b99607a1b6044820152606401610a04565b6115e6604783612b49565b506040516001600160a01b0383169033907f3d072963433794eb417a69355df67d08bbd73d5076ef653d6863861161d60af390600090a35050565b6000610fd061258e565b60045460ff161561164e5760405162461bcd60e51b8152600401610a04906142eb565b63595c6a6760e01b61165f8161237e565b61167b5760405162461bcd60e51b8152600401610a0490614322565b604f805460ff60a01b1916600160a01b1790556116953390565b6001600160a01b03167ff1005168aea1429fe9559d51ef6caa33e6426890864e2e6e41e5d54baa7be79f60405160405180910390a250565b60006001600160a01b038216158015906109305750610930604783612866565b6001600160a01b038116600090815260456020526040812060010154610930565b60606001600160a01b037f00000000000000000000000000000000000000000000000000000000000000001630036117585760405162461bcd60e51b8152600401610a049061438e565b7f00000000000000000000000000000000000000000000000000000000000000006001600160a01b031661178a61258e565b6001600160a01b0316146117b05760405162461bcd60e51b8152600401610a04906143bd565b60045460ff16156117d35760405162461bcd60e51b8152600401610a04906142eb565b600454610100900460ff166118225760405162461bcd60e51b8152602060048201526015602482015274155c19dc9859194810d85b1b0814995a9958dd1959605a1b6044820152606401610a04565b61182b84612b5e565b610b2b848484612c25565b60045460ff16156118595760405162461bcd60e51b8152600401610a04906142eb565b61186963756af45f60e01b61237e565b6118b55760405162461bcd60e51b815260206004820152601a60248201527f57697468647261772042616c616e636520466f7262696464656e0000000000006044820152606401610a04565b6040516001600160a01b038216904780156108fc02916000818181858888f19350505050158015610fcc573d6000803e3d6000fd5b60045460ff161561190d5760405162461bcd60e51b8152600401610a04906142eb565b6376a67a5160e01b61191e8161237e565b61193a5760405162461bcd60e51b8152600401610a0490614322565b6001600160a01b0382166119605760405162461bcd60e51b8152600401610a04906145cc565b61196b604783612866565b156119b15760405162461bcd60e51b81526020600482015260166024820152751058d8dbdd5b9d08105b1c9958591e4814185d5cd95960521b6044820152606401610a04565b6119bc604783612e76565b506040516001600160a01b0383169033907f3dd4f37ca5eaf6c357698a52c806820426d7c9a26adb0991c3bebb09cf23352a90600090a35050565b6060610fd06049612e8b565b60005b81811015611a7b57611a68838383818110611a2357611a23614349565b611a399260206040909202019081019150613fcc565b848484818110611a4b57611a4b614349565b9050604002016020016020810190611a639190613f76565b612888565b5080611a7381614375565b915050611a06565b505050565b6000610fd030612e98565b60045460ff1615611aae5760405162461bcd60e51b8152600401610a04906142eb565b638a2ddd0360e01b611abf8161237e565b611adb5760405162461bcd60e51b8152600401610a0490614322565b604f805460ff60a01b1916905560405133907f3c1fb1fd79ee84e55a8fe78554c432ef36ea033a9245ce4b650bd824a12554d390600090a250565b6060604c8054610945906142b7565b60045460009060ff1615611b4b5760405162461bcd60e51b8152600401610a04906142eb565b604f54600160a01b900460ff1615611b755760405162461bcd60e51b8152600401610a049061455e565b82611b81604782612866565b15611b9e5760405162461bcd60e51b8152600401610a0490614595565b632770a7eb60e21b611baf8161237e565b611bcb5760405162461bcd60e51b8152600401610a0490614322565b6001600160a01b038516611bf15760405162461bcd60e51b8152600401610a04906145cc565b6001600160a01b03851660009081526045602052604090205484811015611c5a5760405162461bcd60e51b815260206004820152601c60248201527f496e73756666696369656e74204163636f756e742042616c616e6365000000006044820152606401610a04565b6001600160a01b03861660009081526045602052604081208683039055604d8054879290611c89908490614603565b9091555050604d546040805187815260208101929092526001600160a01b0388169133917f5d624aa9c148153ab3446c1b154f660ee7701e549fe9b62dab7171b1c80e6fa2910160405180910390a35050604d54949350505050565b600083421115611d375760405162461bcd60e51b815260206004820152601760248201527f5065726d6974204578706972656420446561646c696e650000000000000000006044820152606401610a04565b60007f6e71edae12b1b97f4d1f60370fef10105fa2faae0126114a169c64845d6126c9888888611d668c612ed7565b6040805160208101969096526001600160a01b0394851690860152929091166060840152608083015260a082015260c0810186905260e0016040516020818303038152906040528051906020012090506000611e04611dc3612f00565b8360405161190160f01b6020820152602281018390526042810182905260009060620160405160208183030381529060405280519060200120905092915050565b90506000611e488287878080601f016020809104026020016040519081016040528093929190818152602001838380828437600092019190915250612f6992505050565b9050896001600160a01b0316816001600160a01b031614611eab5760405162461bcd60e51b815260206004820152601860248201527f496c6c6567616c20454344415341205369676e617475726500000000000000006044820152606401610a04565b611eb68a8a8a6121d4565b5060019998505050505050505050565b600033611ed4818585612f8d565b836001600160a01b0316816001600160a01b03167f273a6f9c8085294c2766bde5f5a94cc3235d14759db4137af7a88a1c10e5a1ec85604051611f1991815260200190565b60405180910390a3611f2b818561283b565b949350505050565b600080604e54118015611f505750611f4e335b604990612866565b155b15611f6557611f60338484612ffe565b6109d5565b6109d5338484613090565b60006001600160a01b037f0000000000000000000000000000000000000000000000000000000000000000163003611fba5760405162461bcd60e51b8152600401610a049061438e565b7f00000000000000000000000000000000000000000000000000000000000000006001600160a01b0316611fec61258e565b6001600160a01b0316146120125760405162461bcd60e51b8152600401610a04906143bd565b60045460ff16156120355760405162461bcd60e51b8152600401610a04906142eb565b61204563d9dc1f1960e01b61237e565b6120915760405162461bcd60e51b815260206004820152601760248201527f5365744c6f63616c41646d696e20466f7262696464656e0000000000000000006044820152606401610a04565b6001600160a01b0382166120d95760405162461bcd60e51b815260206004820152600f60248201526e1059191c995cdcc8125b9d985b1a59608a1b6044820152606401610a04565b6120e28261337d565b506001919050565b6000610b2e838361283b565b6060610fd06047612e8b565b6000610fd0612f00565b6000610fd06125af565b6000805b82811015610b145761216f3385858481811061213857612138614349565b61214e9260206040909202019081019150613fcc565b86868581811061216057612160614349565b90506040020160200135613090565b8061217981614375565b91505061211a565b90565b60006001600160e01b0319821663748be05360e01b14806121b557506001600160e01b031982166352d1902d60e01b145b8061093057506301ffc9a760e01b6001600160e01b0319831614610930565b60045460ff16156121f75760405162461bcd60e51b8152600401610a04906142eb565b604f54600160a01b900460ff16156122215760405162461bcd60e51b8152600401610a049061455e565b8261222d604782612866565b1561224a5760405162461bcd60e51b8152600401610a0490614595565b63095ea7b360e01b61225b8161237e565b6122775760405162461bcd60e51b8152600401610a0490614322565b6001600160a01b0385166122c55760405162461bcd60e51b8152602060048201526015602482015274496e76616c6964204f776e6572204164647265737360581b6044820152606401610a04565b6001600160a01b03841661231b5760405162461bcd60e51b815260206004820152601760248201527f496e76616c6964205370656e64657220416464726573730000000000000000006044820152606401610a04565b6001600160a01b0385811660008181526046602090815260408083209489168084529482529182902087905590518681527f8c5be1e5ebec7d5bd14f71427d1e84f3dd0314c0f7b2291e5b200ac8c7c3b925910160405180910390a35050505050565b600080546001600160a01b0316300361246a5760006363d59cf360e11b6123a430612e98565b33856040516024016123b89392919061461a565b60408051601f198184030181529190526020810180516001600160e01b03166001600160e01b031990931692909217909152905060006124356123f961258e565b836040518060400160405280601d81526020017f44656c656761746563616c6c20686173416363657373204661696c65640000008152506133f4565b905080600182516124469190614603565b8151811061245657612456614349565b60209101015160f81c600114949350505050565b6000546001600160a01b031663c7ab39e661248430612e98565b33856040518463ffffffff1660e01b81526004016124a49392919061461a565b602060405180830381865afa1580156124c1573d6000803e3d6000fd5b505050506040513d601f19601f82011682018060405250810190610930919061464e565b604e5460009033901580159061250157506124ff33611f46565b155b1561251657612511858585612ffe565b612521565b612521858585613090565b61252c858285612f8d565b836001600160a01b0316856001600160a01b0316826001600160a01b03167f5f7542858008eeb041631f30e6109ae94b83a58e9a58261dd2c42c508850f9398660405161257b91815260200190565b60405180910390a4506001949350505050565b6000600080516020614acd8339815191525b546001600160a01b0316919050565b60007fb53127684a568b3173ae13b9f8a6016e243e63b6e8ee1178d6a717850b5d61036125a0565b6125e58686868686866134bd565b505050505050565b60006001600160a01b0383166126155760405162461bcd60e51b8152600401610a04906145cc565b81604d60008282546126279190614546565b90915550506001600160a01b03831660009081526045602052604081208054849290612654908490614546565b9091555050604d546040805184815260208101929092526001600160a01b0385169133917f2f00e3cdd69a77be7ed215ec7b2a36784dd158f921fca79ac29deffa353fe6ee910160405180910390a350604d5492915050565b6001546002546003546040516397ca328d60e01b8152600481019390935260248301919091526044820152600090819073__$02a10a5b613955ebe0b1689ca5d6d93e29$__906397ca328d90606401600060405180830381865af4158015612719573d6000803e3d6000fd5b505050506040513d6000823e601f3d908101601f1916820160405261274191908101906147cf565b6000546040516378efa4ed60e11b81529294509092506001600160a01b03169063f1df49da9061277b9087908790879087906004016148b4565b6020604051808303816000875af115801561279a573d6000803e3d6000fd5b505050506040513d601f19601f820116820180604052508101906127be91906149c0565b506127c761258e565b6001600160a01b031630336001600160a01b03167ff851a1e85477b818fc72ad517ea622cc316f10f67d61c9e740adc151a8b413948c8c8c8c8c612816604f5461ffff600160a81b9091041690565b604051612828969594939291906149d9565b60405180910390a4505050505050505050565b6001600160a01b03918216600090815260466020908152604080832093909416825291909152205490565b6001600160a01b03811660009081526001830160205260408120541515610b2e565b60045460009060ff16156128ae5760405162461bcd60e51b8152600401610a04906142eb565b6311a98d3560e21b6128bf8161237e565b6128db5760405162461bcd60e51b8152600401610a0490614322565b6001600160a01b0384166129015760405162461bcd60e51b8152600401610a04906145cc565b821561296357612912604985612866565b6129525760405162461bcd60e51b81526020600482015260116024820152701058d8dbdd5b9d08139bdd08119bdd5b99607a1b6044820152606401610a04565b61295d604985612b49565b506129c1565b61296e604985612866565b156129b45760405162461bcd60e51b81526020600482015260166024820152754163636f756e7420416c72656164792045786973747360501b6044820152606401610a04565b6129bf604985612e76565b505b60405183151581526001600160a01b0385169033907f85766eb39b0ac39ad7e8afbf36233d9adb1af81136bbea1f94cacd4b2e272c699060200160405180910390a35060019392505050565b600080546001600160a01b03163003612ad357600063e25d75f060e01b600354604051602401612a3f91815260200190565b60408051601f198184030181529190526020810180516001600160e01b03166001600160e01b03199093169290921790915290506000612a9f612a8061258e565b83604051806060016040528060258152602001614aa8602591396133f4565b90508060018251612ab09190614603565b81518110612ac057612ac0614349565b60209101015160f81c6001149392505050565b600054600354604051630e25d75f60e41b81526001600160a01b039092169163e25d75f091612b089160040190815260200190565b602060405180830381865afa158015612b25573d6000803e3d6000fd5b505050506040513d601f19601f82011682018060405250810190610fd0919061464e565b6000610b2e836001600160a01b0384166136c9565b612b6661258e565b6001600160a01b0316816001600160a01b031603612bc65760405162461bcd60e51b815260206004820152601a60248201527f496c6c6567616c204e657720496d706c656d656e746174696f6e0000000000006044820152606401610a04565b612bd6637147855d60e01b61237e565b612c225760405162461bcd60e51b815260206004820152601960248201527f5570677261646520436f6e7465787420466f7262696464656e000000000000006044820152606401610a04565b50565b60607f4910fdfa16fed3260ed0e7147f7cc6da11a60208b5b9406d12a635614ffd91435460ff1615612c6f57612c5a846137bc565b50604080516000815260208101909152610b2e565b836001600160a01b03166352d1902d6040518163ffffffff1660e01b8152600401602060405180830381865afa925050508015612cc9575060408051601f3d908101601f19168201909252612cc6918101906149c0565b60015b612d0d5760405162461bcd60e51b8152602060048201526015602482015274125b1b1959d85b0815555414c810dbdb9d1c9858dd605a1b6044820152606401610a04565b600080516020614acd8339815191528114612d625760405162461bcd60e51b8152602060048201526015602482015274125b9d985b1a590815555414c810dbdb9d1c9858dd605a1b6044820152606401610a04565b506040516301ffc9a760e01b815263748be05360e01b60048201526001600160a01b038516906301ffc9a790602401602060405180830381865afa925050508015612dca575060408051601f3d908101601f19168201909252612dc79181019061464e565b60015b612e165760405162461bcd60e51b815260206004820152601760248201527f496c6c6567616c204950726f787920436f6e74726163740000000000000000006044820152606401610a04565b80612e635760405162461bcd60e51b815260206004820152601760248201527f496e76616c6964204950726f787920436f6e74726163740000000000000000006044820152606401610a04565b50612e6f84848461383d565b9050610b2e565b6000610b2e836001600160a01b0384166138a7565b60606000610b2e836138f6565b6040516bffffffffffffffffffffffff19606083901b166020820152600090603401604051602081830303815290604052805190602001209050919050565b6001600160a01b0381166000908152604560205260409020600190810180549182018155610a79565b600154600254604080517f8b73c3c69bb8fe3d512ecc4cf759cc79239f7b179b0ffacaa9a75d522b39400f60208201529081019290925260608201524660808201523060a082015260009060c00160405160208183030381529060405280519060200120905090565b6000806000612f788585613952565b91509150612f85816139c0565b509392505050565b6000612f99848461283b565b905081811015612feb5760405162461bcd60e51b815260206004820152601e60248201527f496e73756666696369656e74204163636f756e7420416c6c6f77616e636500006044820152606401610a04565b612ff884848484036121d4565b50505050565b6000613015604e5483613b7690919063ffffffff16565b90506000613063826040518060400160405280601c81526020017f496e73756666696369656e74205472616e7366657220416d6f756e740000000081525085613b8e9092919063ffffffff16565b604f5490915061307e9086906001600160a01b031684613090565b613089858583613090565b5050505050565b60045460ff16156130b35760405162461bcd60e51b8152600401610a04906142eb565b604f54600160a01b900460ff16156130dd5760405162461bcd60e51b8152600401610a049061455e565b826130e9604782612866565b156131065760405162461bcd60e51b8152600401610a0490614595565b63a9059cbb60e01b6131178161237e565b6131335760405162461bcd60e51b8152600401610a0490614322565b6001600160a01b0385166131825760405162461bcd60e51b8152602060048201526016602482015275496e76616c696420536f75726365204164647265737360501b6044820152606401610a04565b6001600160a01b0384166131d85760405162461bcd60e51b815260206004820152601b60248201527f496e76616c69642044657374696e6174696f6e204164647265737300000000006044820152606401610a04565b836001600160a01b0316856001600160a01b0316036132315760405162461bcd60e51b815260206004820152601560248201527424b63632b3b0b61029b2b633102a3930b739b332b960591b6044820152606401610a04565b600083116132815760405162461bcd60e51b815260206004820152601760248201527f496e76616c6964205472616e7366657220416d6f756e740000000000000000006044820152606401610a04565b6001600160a01b038516600090815260456020526040902054838110156132ea5760405162461bcd60e51b815260206004820152601c60248201527f496e73756666696369656e74204163636f756e742042616c616e6365000000006044820152606401610a04565b6001600160a01b03808716600090815260456020526040808220878503905591871681529081208054869290613321908490614546565b92505081905550846001600160a01b0316866001600160a01b03167fddf252ad1be2c89b69c2b068fc378daa952ba7f163c4a11628f55a4df523b3ef8660405161336d91815260200190565b60405180910390a3505050505050565b7fb53127684a568b3173ae13b9f8a6016e243e63b6e8ee1178d6a717850b5d610380546001600160a01b0383166001600160a01b031990911681179091556040805191825251309133917f54ab0d18de7958786ba1ad85966d59baa2b395455f0530dcdcfd732e6af539e29181900360200190a350565b60606001600160a01b0384163b6134485760405162461bcd60e51b8152602060048201526018602482015277496c6c6567616c20436f6e7472616374204164647265737360401b6044820152606401610a04565b600080856001600160a01b0316856040516134639190614a1e565b600060405180830381855af49150503d806000811461349e576040519150601f19603f3d011682016040523d82523d6000602084013e6134a3565b606091505b50915091506134b3828286613bba565b9695505050505050565b604f54600160b81b900460ff166135165760405162461bcd60e51b815260206004820152601960248201527f436f6e7472616374204e6f7420496e697469616c697a696e67000000000000006044820152606401610a04565b8585604051602001613529929190614431565b60408051601f19818403018152908290528051602091820120600155613553918691869101614431565b60408051601f19818403018152919052805160209091012060025560038290556001600160a01b03811661359857600080546001600160a01b031916301790556136b5565b6040516301ffc9a760e01b8152631b44bad360e31b60048201526001600160a01b038216906301ffc9a790602401602060405180830381865afa9250505080156135ff575060408051601f3d908101601f191682019092526135fc9181019061464e565b60015b61364b5760405162461bcd60e51b815260206004820152601c60248201527f496c6c6567616c20416363657373436f6e74726f6c4d616e61676572000000006044820152606401610a04565b806136985760405162461bcd60e51b815260206004820152601c60248201527f496e76616c696420416363657373436f6e74726f6c4d616e61676572000000006044820152606401610a04565b50600080546001600160a01b0319166001600160a01b0383161790555b6004805461ffff191690556125e53361337d565b600081815260018301602052604081205480156137b25760006136ed600183614603565b855490915060009061370190600190614603565b905081811461376657600086600001828154811061372157613721614349565b906000526020600020015490508087600001848154811061374457613744614349565b6000918252602080832090910192909255918252600188019052604090208390555b855486908061377757613777614a3a565b600190038181906000526020600020016000905590558560010160008681526020019081526020016000206000905560019350505050610930565b6000915050610930565b6001600160a01b0381163b61380e5760405162461bcd60e51b8152602060048201526018602482015277496c6c6567616c20436f6e7472616374204164647265737360401b6044820152606401610a04565b600080516020614acd83398151915280546001600160a01b0319166001600160a01b0392909216919091179055565b606061384884613bf3565b6000835111806138555750815b1561389057612e6f84846040518060400160405280601381526020017211195b1959d85d1958d85b1b0811985a5b1959606a1b8152506133f4565b505060408051600081526020810190915292915050565b60008181526001830160205260408120546138ee57508154600181810184556000848152602080822090930184905584548482528286019093526040902091909155610930565b506000610930565b60608160000180548060200260200160405190810160405280929190818152602001828054801561394657602002820191906000526020600020905b815481526020019060010190808311613932575b50505050509050919050565b60008082516041036139885760208301516040840151606085015160001a61397c87828585613c37565b945094505050506139b9565b82516040036139b157602083015160408401516139a6868383613d24565b9350935050506139b9565b506000905060025b9250929050565b60008160048111156139d4576139d4614a50565b036139dc5750565b60018160048111156139f0576139f0614a50565b03613a3d5760405162461bcd60e51b815260206004820152601860248201527f45434453413a20696e76616c6964207369676e617475726500000000000000006044820152606401610a04565b6002816004811115613a5157613a51614a50565b03613a9e5760405162461bcd60e51b815260206004820152601f60248201527f45434453413a20696e76616c6964207369676e6174757265206c656e677468006044820152606401610a04565b6003816004811115613ab257613ab2614a50565b03613b0a5760405162461bcd60e51b815260206004820152602260248201527f45434453413a20696e76616c6964207369676e6174757265202773272076616c604482015261756560f01b6064820152608401610a04565b6004816004811115613b1e57613b1e614a50565b03612c225760405162461bcd60e51b815260206004820152602260248201527f45434453413a20696e76616c6964207369676e6174757265202776272076616c604482015261756560f01b6064820152608401610a04565b6000610b2e612710613b888585613d5d565b90613d69565b60008184841115613bb25760405162461bcd60e51b8152600401610a049190613e00565b505050900390565b60608315613bc9575081610b2e565b825115613bd95782518084602001fd5b8160405162461bcd60e51b8152600401610a049190613e00565b613bfc816137bc565b6040516001600160a01b03821690309033907f354bd4b6eb65d64e6c79c53fa4f983a5e6bec4824ce4627c71be0b2722f4917e90600090a450565b6000807f7fffffffffffffffffffffffffffffff5d576e7357a4501ddfe92f46681b20a0831115613c6e5750600090506003613d1b565b8460ff16601b14158015613c8657508460ff16601c14155b15613c975750600090506004613d1b565b6040805160008082526020820180845289905260ff881692820192909252606081018690526080810185905260019060a0016020604051602081039080840390855afa158015613ceb573d6000803e3d6000fd5b5050604051601f1901519150506001600160a01b038116613d1457600060019250925050613d1b565b9150600090505b94509492505050565b6000806001600160ff1b03831681613d4160ff86901c601b614546565b9050613d4f87828885613c37565b935093505050935093915050565b6000610b2e8284614a66565b6000610b2e8284614a85565b6001600160e01b031981168114612c2257600080fd5b600060208284031215613d9d57600080fd5b8135610b2e81613d75565b60005b83811015613dc3578181015183820152602001613dab565b83811115612ff85750506000910152565b60008151808452613dec816020860160208601613da8565b601f01601f19169290920160200192915050565b602081526000610b2e6020830184613dd4565b6001600160a01b0381168114612c2257600080fd5b60008060408385031215613e3b57600080fd5b8235613e4681613e13565b946020939093013593505050565b600060208284031215613e6657600080fd5b5035919050565b60008060208385031215613e8057600080fd5b82356001600160401b0380821115613e9757600080fd5b818501915085601f830112613eab57600080fd5b813581811115613eba57600080fd5b866020606083028501011115613ecf57600080fd5b60209290920196919550909350505050565b600080600060608486031215613ef657600080fd5b8335613f0181613e13565b92506020840135613f1181613e13565b929592945050506040919091013590565b600060208284031215613f3457600080fd5b81356001600160401b03811115613f4a57600080fd5b82016101208185031215610b2e57600080fd5b8015158114612c2257600080fd5b80356112b381613f5d565b600060208284031215613f8857600080fd5b8135610b2e81613f5d565b60008060408385031215613fa657600080fd5b8235613fb181613e13565b91506020830135613fc181613f5d565b809150509250929050565b600060208284031215613fde57600080fd5b8135610b2e81613e13565b634e487b7160e01b600052604160045260246000fd5b604051606081016001600160401b038111828210171561402157614021613fe9565b60405290565b604051601f8201601f191681016001600160401b038111828210171561404f5761404f613fe9565b604052919050565b60008060006060848603121561406c57600080fd5b833561407781613e13565b92506020848101356001600160401b038082111561409457600080fd5b818701915087601f8301126140a857600080fd5b8135818111156140ba576140ba613fe9565b6140cc601f8201601f19168501614027565b915080825288848285010111156140e257600080fd5b808484018584013760008482840101525080945050505061410560408501613f6b565b90509250925092565b6020808252825182820181905260009190848201906040850190845b8181101561414f5783516001600160a01b03168352928401929184019160010161412a565b50909695505050505050565b60008083601f84011261416d57600080fd5b5081356001600160401b0381111561418457600080fd5b6020830191508360208260061b85010111156139b957600080fd5b600080602083850312156141b257600080fd5b82356001600160401b038111156141c857600080fd5b6141d48582860161415b565b90969095509350505050565b60008060008060008060a087890312156141f957600080fd5b863561420481613e13565b9550602087013561421481613e13565b9450604087013593506060870135925060808701356001600160401b038082111561423e57600080fd5b818901915089601f83011261425257600080fd5b81358181111561426157600080fd5b8a602082850101111561427357600080fd5b6020830194508093505050509295509295509295565b6000806040838503121561429c57600080fd5b82356142a781613e13565b91506020830135613fc181613e13565b600181811c908216806142cb57607f821691505b602082108103610a7957634e487b7160e01b600052602260045260246000fd5b60208082526017908201527f536166654d6f64653a2043616c6c2052656a6563746564000000000000000000604082015260600190565b6020808252600d908201526c1058d8d95cdcc811195b9a5959609a1b604082015260600190565b634e487b7160e01b600052603260045260246000fd5b634e487b7160e01b600052601160045260246000fd5b6000600182016143875761438761435f565b5060010190565b602080825260159082015274125b1b1959d85b0810dbdb9d1c9858dd0810d85b1b605a1b604082015260600190565b602080825260149082015273141c9bde1e4810d85b1b195908125b9d985b1a5960621b604082015260600190565b6000808335601e1984360301811261440257600080fd5b8301803591506001600160401b0382111561441c57600080fd5b6020019150368190038213156139b957600080fd5b8183823760009101908152919050565b601f821115611a7b57600081815260208120601f850160051c810160208610156144685750805b601f850160051c820191505b818110156125e557828155600101614474565b81516001600160401b038111156144a0576144a0613fe9565b6144b4816144ae84546142b7565b84614441565b602080601f8311600181146144e957600084156144d15750858301515b600019600386901b1c1916600185901b1785556125e5565b600085815260208120601f198616915b82811015614518578886015182559484019460019091019084016144f9565b50858210156145365787850151600019600388901b60f8161c191681555b5050505050600190811b01905550565b600082198211156145595761455961435f565b500190565b60208082526019908201527f455243323050617573653a2043616c6c2052656a656374656400000000000000604082015260600190565b6020808252601d908201527f455243323050617573653a204163636f756e742053757370656e646564000000604082015260600190565b60208082526017908201527f496e76616c6964204163636f756e742041646472657373000000000000000000604082015260600190565b6000828210156146155761461561435f565b500390565b9283526001600160a01b039190911660208301526001600160e01b031916604082015260600190565b80516112b381613f5d565b60006020828403121561466057600080fd5b8151610b2e81613f5d565b60006001600160401b0382111561468457614684613fe9565b5060051b60200190565b600082601f83011261469f57600080fd5b815160206146b46146af8361466b565b614027565b82815260059290921b840181019181810190868411156146d357600080fd5b8286015b848110156147c45780516001600160401b03808211156146f75760008081fd5b908801906060828b03601f19018113156147115760008081fd5b614719613fff565b878401518152604080850151848111156147335760008081fd5b85019350603f84018d136147475760008081fd5b888401516147576146af8261466b565b81815260059190911b85018201908a8101908f8311156147775760008081fd5b958301955b8287101561479e57865161478f81613d75565b8252958b0195908b019061477c565b848c0152506147b09050858401614643565b9082015286525050509183019183016146d7565b509695505050505050565b60008082840360c08112156147e357600080fd5b60a08112156147f157600080fd5b5060405160a081016001600160401b03828210818311171561481557614815613fe9565b816040528551835260208601516020840152604086015160408401526060860151915061484182613e13565b8160608401526080860151915061485782613f5d565b6080830182905260a08601519294508083111561487357600080fd5b50506148818582860161468e565b9150509250929050565b81835281816020850137506000828201602090810191909152601f909101601f19169091010190565b60e0815260006148c860e08301868861488b565b6020855181850152808601516040818187015280880151915060608281880152808901519250608060018060a01b03841681890152808a0151151560a089015287860360c089015285935088518087528587019450858160051b880101868b016000805b848110156149ab578a8403601f190189528251805185528a8101518b86018990528051898701819052908c01908490898801905b8083101561498a5783516001600160e01b0319168252928e019260019290920191908e0190614960565b50928b01511515968b019690965250988a019893509189019160010161492c565b50919f9e505050505050505050505050505050565b6000602082840312156149d257600080fd5b5051919050565b6080815260006149ed60808301888a61488b565b8281036020840152614a0081878961488b565b91505083604083015261ffff83166060830152979650505050505050565b60008251614a30818460208701613da8565b9190910192915050565b634e487b7160e01b600052603160045260246000fd5b634e487b7160e01b600052602160045260246000fd5b6000816000190483118215151615614a8057614a8061435f565b500290565b600082614aa257634e487b7160e01b600052601260045260246000fd5b50049056fe44656c656761746563616c6c2069735265616c6d55706772616461626c65204661696c6564360894a13ba1a3210667c828492db98dca3e2076cc3735a920a3ca505d382bbca26469706673582212208352cc979644bb43a657f842091d814f425449329b69801b500ca5a88f986a6264736f6c634300080f0033",
  "libraries": {
    "LTokenERC20": "0xa513E6E4b8f2a923D98304ec87F64353C4D5C853"
  },
  "devdoc": {
    "kind": "dev",
    "methods": {
      "proxiableUUID()": {
        "details": "Implementation of the ERC1822 {proxiableUUID} function. This returns the storage slot used by the implementation. It is used to validate that the this implementation remains valid after an upgrade. IMPORTANT: A proxy pointing at a proxiable contract should not be considered proxiable itself, because this risks bricking a proxy that upgrades to it, by delegating to itself until out of gas. Thus it is critical that this function revert if invoked through a proxy. This is guaranteed by the `notDelegated` modifier."
      },
      "supportsInterface(bytes4)": {
        "details": "See {IERC165-supportsInterface}."
      }
    },
    "version": 1
  },
  "userdoc": {
    "kind": "user",
    "methods": {},
    "version": 1
  },
  "storageLayout": {
    "storage": [
      {
        "astId": 19057,
        "contract": "src/contracts/token/lively/LivelyToken.sol:LivelyToken",
        "label": "_accessControlManager",
        "offset": 0,
        "slot": "0",
        "type": "t_address"
      },
      {
        "astId": 19059,
        "contract": "src/contracts/token/lively/LivelyToken.sol:LivelyToken",
        "label": "_domainName",
        "offset": 0,
        "slot": "1",
        "type": "t_bytes32"
      },
      {
        "astId": 19061,
        "contract": "src/contracts/token/lively/LivelyToken.sol:LivelyToken",
        "label": "_domainVersion",
        "offset": 0,
        "slot": "2",
        "type": "t_bytes32"
      },
      {
        "astId": 19063,
        "contract": "src/contracts/token/lively/LivelyToken.sol:LivelyToken",
        "label": "_domainRealm",
        "offset": 0,
        "slot": "3",
        "type": "t_bytes32"
      },
      {
        "astId": 19065,
        "contract": "src/contracts/token/lively/LivelyToken.sol:LivelyToken",
        "label": "_isSafeMode",
        "offset": 0,
        "slot": "4",
        "type": "t_bool"
      },
      {
        "astId": 19067,
        "contract": "src/contracts/token/lively/LivelyToken.sol:LivelyToken",
        "label": "_isUpgradable",
        "offset": 1,
        "slot": "4",
        "type": "t_bool"
      },
      {
        "astId": 19072,
        "contract": "src/contracts/token/lively/LivelyToken.sol:LivelyToken",
        "label": "__gap",
        "offset": 0,
        "slot": "5",
        "type": "t_array(t_uint256)64_storage"
      },
      {
        "astId": 21561,
        "contract": "src/contracts/token/lively/LivelyToken.sol:LivelyToken",
        "label": "_accounts",
        "offset": 0,
        "slot": "69",
        "type": "t_mapping(t_address,t_struct(AccountInfo)21551_storage)"
      },
      {
        "astId": 21567,
        "contract": "src/contracts/token/lively/LivelyToken.sol:LivelyToken",
        "label": "_allowances",
        "offset": 0,
        "slot": "70",
        "type": "t_mapping(t_address,t_mapping(t_address,t_uint256))"
      },
      {
        "astId": 21570,
        "contract": "src/contracts/token/lively/LivelyToken.sol:LivelyToken",
        "label": "_pausedList",
        "offset": 0,
        "slot": "71",
        "type": "t_struct(AddressSet)17307_storage"
      },
      {
        "astId": 21573,
        "contract": "src/contracts/token/lively/LivelyToken.sol:LivelyToken",
        "label": "_taxWhitelist",
        "offset": 0,
        "slot": "73",
        "type": "t_struct(AddressSet)17307_storage"
      },
      {
        "astId": 21575,
        "contract": "src/contracts/token/lively/LivelyToken.sol:LivelyToken",
        "label": "_name",
        "offset": 0,
        "slot": "75",
        "type": "t_string_storage"
      },
      {
        "astId": 21577,
        "contract": "src/contracts/token/lively/LivelyToken.sol:LivelyToken",
        "label": "_symbol",
        "offset": 0,
        "slot": "76",
        "type": "t_string_storage"
      },
      {
        "astId": 21579,
        "contract": "src/contracts/token/lively/LivelyToken.sol:LivelyToken",
        "label": "_totalSupply",
        "offset": 0,
        "slot": "77",
        "type": "t_uint256"
      },
      {
        "astId": 21581,
        "contract": "src/contracts/token/lively/LivelyToken.sol:LivelyToken",
        "label": "_taxRate",
        "offset": 0,
        "slot": "78",
        "type": "t_uint256"
      },
      {
        "astId": 21583,
        "contract": "src/contracts/token/lively/LivelyToken.sol:LivelyToken",
        "label": "_taxTreasury",
        "offset": 0,
        "slot": "79",
        "type": "t_address"
      },
      {
        "astId": 21585,
        "contract": "src/contracts/token/lively/LivelyToken.sol:LivelyToken",
        "label": "_isPaused",
        "offset": 20,
        "slot": "79",
        "type": "t_bool"
      },
      {
        "astId": 19245,
        "contract": "src/contracts/token/lively/LivelyToken.sol:LivelyToken",
        "label": "_initialized",
        "offset": 21,
        "slot": "79",
        "type": "t_uint16"
      },
      {
        "astId": 19248,
        "contract": "src/contracts/token/lively/LivelyToken.sol:LivelyToken",
        "label": "_initializing",
        "offset": 23,
        "slot": "79",
        "type": "t_bool"
      }
    ],
    "types": {
      "t_address": {
        "encoding": "inplace",
        "label": "address",
        "numberOfBytes": "20"
      },
      "t_array(t_bytes32)dyn_storage": {
        "base": "t_bytes32",
        "encoding": "dynamic_array",
        "label": "bytes32[]",
        "numberOfBytes": "32"
      },
      "t_array(t_uint256)64_storage": {
        "base": "t_uint256",
        "encoding": "inplace",
        "label": "uint256[64]",
        "numberOfBytes": "2048"
      },
      "t_bool": {
        "encoding": "inplace",
        "label": "bool",
        "numberOfBytes": "1"
      },
      "t_bytes32": {
        "encoding": "inplace",
        "label": "bytes32",
        "numberOfBytes": "32"
      },
      "t_mapping(t_address,t_mapping(t_address,t_uint256))": {
        "encoding": "mapping",
        "key": "t_address",
        "label": "mapping(address => mapping(address => uint256))",
        "numberOfBytes": "32",
        "value": "t_mapping(t_address,t_uint256)"
      },
      "t_mapping(t_address,t_struct(AccountInfo)21551_storage)": {
        "encoding": "mapping",
        "key": "t_address",
        "label": "mapping(address => struct LivelyStorage.AccountInfo)",
        "numberOfBytes": "32",
        "value": "t_struct(AccountInfo)21551_storage"
      },
      "t_mapping(t_address,t_uint256)": {
        "encoding": "mapping",
        "key": "t_address",
        "label": "mapping(address => uint256)",
        "numberOfBytes": "32",
        "value": "t_uint256"
      },
      "t_mapping(t_bytes32,t_uint256)": {
        "encoding": "mapping",
        "key": "t_bytes32",
        "label": "mapping(bytes32 => uint256)",
        "numberOfBytes": "32",
        "value": "t_uint256"
      },
      "t_string_storage": {
        "encoding": "bytes",
        "label": "string",
        "numberOfBytes": "32"
      },
      "t_struct(AccountInfo)21551_storage": {
        "encoding": "inplace",
        "label": "struct LivelyStorage.AccountInfo",
        "members": [
          {
            "astId": 21547,
            "contract": "src/contracts/token/lively/LivelyToken.sol:LivelyToken",
            "label": "balance",
            "offset": 0,
            "slot": "0",
            "type": "t_uint256"
          },
          {
            "astId": 21550,
            "contract": "src/contracts/token/lively/LivelyToken.sol:LivelyToken",
            "label": "nonce",
            "offset": 0,
            "slot": "1",
            "type": "t_struct(Counter)10454_storage"
          }
        ],
        "numberOfBytes": "64"
      },
      "t_struct(AddressSet)17307_storage": {
        "encoding": "inplace",
        "label": "struct LEnumerableSet.AddressSet",
        "members": [
          {
            "astId": 17306,
            "contract": "src/contracts/token/lively/LivelyToken.sol:LivelyToken",
            "label": "_inner",
            "offset": 0,
            "slot": "0",
            "type": "t_struct(Set)17006_storage"
          }
        ],
        "numberOfBytes": "64"
      },
      "t_struct(Counter)10454_storage": {
        "encoding": "inplace",
        "label": "struct LCounters.Counter",
        "members": [
          {
            "astId": 10453,
            "contract": "src/contracts/token/lively/LivelyToken.sol:LivelyToken",
            "label": "_value",
            "offset": 0,
            "slot": "0",
            "type": "t_uint256"
          }
        ],
        "numberOfBytes": "32"
      },
      "t_struct(Set)17006_storage": {
        "encoding": "inplace",
        "label": "struct LEnumerableSet.Set",
        "members": [
          {
            "astId": 17001,
            "contract": "src/contracts/token/lively/LivelyToken.sol:LivelyToken",
            "label": "_values",
            "offset": 0,
            "slot": "0",
            "type": "t_array(t_bytes32)dyn_storage"
          },
          {
            "astId": 17005,
            "contract": "src/contracts/token/lively/LivelyToken.sol:LivelyToken",
            "label": "_indexes",
            "offset": 0,
            "slot": "1",
            "type": "t_mapping(t_bytes32,t_uint256)"
          }
        ],
        "numberOfBytes": "64"
      },
      "t_uint16": {
        "encoding": "inplace",
        "label": "uint16",
        "numberOfBytes": "2"
      },
      "t_uint256": {
        "encoding": "inplace",
        "label": "uint256",
        "numberOfBytes": "32"
      }
    }
  }
}