{
  "address": "0x2279B7A0a67DB372996a5FaB50D91eAA73d2eBe6",
  "abi": [
    {
      "inputs": [],
      "stateMutability": "nonpayable",
      "type": "constructor"
    },
    {
      "anonymous": false,
      "inputs": [
        {
          "indexed": true,
          "internalType": "address",
          "name": "owner",
          "type": "address"
        },
        {
          "indexed": true,
          "internalType": "address",
          "name": "spender",
          "type": "address"
        },
        {
          "indexed": false,
          "internalType": "uint256",
          "name": "amount",
          "type": "uint256"
        }
      ],
      "name": "Approval",
      "type": "event"
    },
    {
      "anonymous": false,
      "inputs": [
        {
          "indexed": true,
          "internalType": "address",
          "name": "owner",
          "type": "address"
        },
        {
          "indexed": true,
          "internalType": "address",
          "name": "spender",
          "type": "address"
        },
        {
          "indexed": false,
          "internalType": "uint256",
          "name": "amount",
          "type": "uint256"
        }
      ],
      "name": "ApprovalDecreased",
      "type": "event"
    },
    {
      "anonymous": false,
      "inputs": [
        {
          "indexed": true,
          "internalType": "address",
          "name": "owner",
          "type": "address"
        },
        {
          "indexed": true,
          "internalType": "address",
          "name": "spender",
          "type": "address"
        },
        {
          "indexed": false,
          "internalType": "uint256",
          "name": "amount",
          "type": "uint256"
        }
      ],
      "name": "ApprovalIncreased",
      "type": "event"
    },
    {
      "anonymous": false,
      "inputs": [
        {
          "indexed": true,
          "internalType": "address",
          "name": "sender",
          "type": "address"
        },
        {
          "indexed": false,
          "internalType": "uint256",
          "name": "totalAmount",
          "type": "uint256"
        }
      ],
      "name": "BatchTokenClaimed",
      "type": "event"
    },
    {
      "anonymous": false,
      "inputs": [
        {
          "indexed": true,
          "internalType": "address",
          "name": "sender",
          "type": "address"
        },
        {
          "indexed": false,
          "internalType": "uint256",
          "name": "totalAmount",
          "type": "uint256"
        }
      ],
      "name": "BatchTokenLocked",
      "type": "event"
    },
    {
      "anonymous": false,
      "inputs": [
        {
          "indexed": true,
          "internalType": "address",
          "name": "sender",
          "type": "address"
        },
        {
          "indexed": false,
          "internalType": "uint256",
          "name": "totalAmount",
          "type": "uint256"
        }
      ],
      "name": "BatchTokenUnlocked",
      "type": "event"
    },
    {
      "anonymous": false,
      "inputs": [
        {
          "indexed": true,
          "internalType": "address",
          "name": "sender",
          "type": "address"
        },
        {
          "indexed": false,
          "internalType": "uint256",
          "name": "totalAmount",
          "type": "uint256"
        }
      ],
      "name": "BatchTransfer",
      "type": "event"
    },
    {
      "anonymous": false,
      "inputs": [
        {
          "indexed": true,
          "internalType": "address",
          "name": "sender",
          "type": "address"
        },
        {
          "indexed": false,
          "internalType": "uint256",
          "name": "totalAmount",
          "type": "uint256"
        }
      ],
      "name": "BatchTransferFrom",
      "type": "event"
    },
    {
      "anonymous": false,
      "inputs": [
        {
          "indexed": true,
          "internalType": "address",
          "name": "sender",
          "type": "address"
        },
        {
          "indexed": true,
          "internalType": "address",
          "name": "account",
          "type": "address"
        },
        {
          "indexed": false,
          "internalType": "uint256",
          "name": "amount",
          "type": "uint256"
        },
        {
          "indexed": false,
          "internalType": "uint256",
          "name": "totalSupply",
          "type": "uint256"
        }
      ],
      "name": "Burn",
      "type": "event"
    },
    {
      "anonymous": false,
      "inputs": [
        {
          "indexed": true,
          "internalType": "address",
          "name": "sender",
          "type": "address"
        },
        {
          "indexed": true,
          "internalType": "address",
          "name": "proxy",
          "type": "address"
        },
        {
          "indexed": true,
          "internalType": "address",
          "name": "subject",
          "type": "address"
        },
        {
          "indexed": false,
          "internalType": "string",
          "name": "name",
          "type": "string"
        },
        {
          "indexed": false,
          "internalType": "string",
          "name": "version",
          "type": "string"
        },
        {
          "indexed": false,
          "internalType": "bytes32",
          "name": "realm",
          "type": "bytes32"
        },
        {
          "indexed": false,
          "internalType": "uint16",
          "name": "initCount",
          "type": "uint16"
        }
      ],
      "name": "Initialized",
      "type": "event"
    },
    {
      "anonymous": false,
      "inputs": [
        {
          "indexed": true,
          "internalType": "address",
          "name": "sender",
          "type": "address"
        },
        {
          "indexed": true,
          "internalType": "address",
          "name": "proxy",
          "type": "address"
        },
        {
          "indexed": false,
          "internalType": "address",
          "name": "newAdmin",
          "type": "address"
        }
      ],
      "name": "LocalAdminChanged",
      "type": "event"
    },
    {
      "anonymous": false,
      "inputs": [
        {
          "indexed": true,
          "internalType": "address",
          "name": "sender",
          "type": "address"
        },
        {
          "indexed": true,
          "internalType": "address",
          "name": "account",
          "type": "address"
        },
        {
          "indexed": false,
          "internalType": "uint256",
          "name": "amount",
          "type": "uint256"
        },
        {
          "indexed": false,
          "internalType": "uint256",
          "name": "totalSupply",
          "type": "uint256"
        }
      ],
      "name": "Mint",
      "type": "event"
    },
    {
      "anonymous": false,
      "inputs": [
        {
          "indexed": true,
          "internalType": "address",
          "name": "sender",
          "type": "address"
        },
        {
          "indexed": true,
          "internalType": "address",
          "name": "account",
          "type": "address"
        }
      ],
      "name": "Paused",
      "type": "event"
    },
    {
      "anonymous": false,
      "inputs": [
        {
          "indexed": true,
          "internalType": "address",
          "name": "sender",
          "type": "address"
        }
      ],
      "name": "PausedAll",
      "type": "event"
    },
    {
      "anonymous": false,
      "inputs": [
        {
          "indexed": true,
          "internalType": "address",
          "name": "sender",
          "type": "address"
        },
        {
          "indexed": true,
          "internalType": "address",
          "name": "proxy",
          "type": "address"
        },
        {
          "indexed": true,
          "internalType": "bytes32",
          "name": "realm",
          "type": "bytes32"
        },
        {
          "indexed": false,
          "internalType": "bool",
          "name": "status",
          "type": "bool"
        }
      ],
      "name": "SafeModeChanged",
      "type": "event"
    },
    {
      "anonymous": false,
      "inputs": [
        {
          "indexed": true,
          "internalType": "address",
          "name": "sender",
          "type": "address"
        },
        {
          "indexed": false,
          "internalType": "uint256",
          "name": "rate",
          "type": "uint256"
        }
      ],
      "name": "TaxRateUpdated",
      "type": "event"
    },
    {
      "anonymous": false,
      "inputs": [
        {
          "indexed": true,
          "internalType": "address",
          "name": "sender",
          "type": "address"
        },
        {
          "indexed": true,
          "internalType": "address",
          "name": "account",
          "type": "address"
        },
        {
          "indexed": false,
          "internalType": "bool",
          "name": "isDeleted",
          "type": "bool"
        }
      ],
      "name": "TaxWhitelistUpdated",
      "type": "event"
    },
    {
      "anonymous": false,
      "inputs": [
        {
          "indexed": true,
          "internalType": "bytes32",
          "name": "id",
          "type": "bytes32"
        },
        {
          "indexed": true,
          "internalType": "address",
          "name": "sender",
          "type": "address"
        },
        {
          "indexed": true,
          "internalType": "address",
          "name": "src",
          "type": "address"
        },
        {
          "indexed": false,
          "internalType": "uint256",
          "name": "amount",
          "type": "uint256"
        }
      ],
      "name": "TokenClaimed",
      "type": "event"
    },
    {
      "anonymous": false,
      "inputs": [
        {
          "indexed": true,
          "internalType": "bytes32",
          "name": "id",
          "type": "bytes32"
        },
        {
          "indexed": true,
          "internalType": "address",
          "name": "sender",
          "type": "address"
        },
        {
          "indexed": true,
          "internalType": "address",
          "name": "src",
          "type": "address"
        },
        {
          "indexed": false,
          "internalType": "address",
          "name": "account",
          "type": "address"
        },
        {
          "indexed": false,
          "internalType": "uint256",
          "name": "timestamp",
          "type": "uint256"
        },
        {
          "indexed": false,
          "internalType": "uint256",
          "name": "amount",
          "type": "uint256"
        }
      ],
      "name": "TokenLocked",
      "type": "event"
    },
    {
      "anonymous": false,
      "inputs": [
        {
          "indexed": true,
          "internalType": "bytes32",
          "name": "id",
          "type": "bytes32"
        },
        {
          "indexed": true,
          "internalType": "address",
          "name": "sender",
          "type": "address"
        },
        {
          "indexed": true,
          "internalType": "address",
          "name": "account",
          "type": "address"
        },
        {
          "indexed": false,
          "internalType": "address",
          "name": "dest",
          "type": "address"
        },
        {
          "indexed": false,
          "internalType": "uint256",
          "name": "amount",
          "type": "uint256"
        },
        {
          "indexed": false,
          "internalType": "string",
          "name": "reason",
          "type": "string"
        }
      ],
      "name": "TokenUnlocked",
      "type": "event"
    },
    {
      "anonymous": false,
      "inputs": [
        {
          "indexed": true,
          "internalType": "address",
          "name": "sender",
          "type": "address"
        },
        {
          "indexed": true,
          "internalType": "address",
          "name": "recipient",
          "type": "address"
        },
        {
          "indexed": false,
          "internalType": "uint256",
          "name": "amount",
          "type": "uint256"
        }
      ],
      "name": "Transfer",
      "type": "event"
    },
    {
      "anonymous": false,
      "inputs": [
        {
          "indexed": true,
          "internalType": "address",
          "name": "sender",
          "type": "address"
        },
        {
          "indexed": true,
          "internalType": "address",
          "name": "from",
          "type": "address"
        },
        {
          "indexed": true,
          "internalType": "address",
          "name": "to",
          "type": "address"
        },
        {
          "indexed": false,
          "internalType": "uint256",
          "name": "amount",
          "type": "uint256"
        }
      ],
      "name": "TransferFrom",
      "type": "event"
    },
    {
      "anonymous": false,
      "inputs": [
        {
          "indexed": true,
          "internalType": "address",
          "name": "sender",
          "type": "address"
        },
        {
          "indexed": true,
          "internalType": "address",
          "name": "account",
          "type": "address"
        }
      ],
      "name": "Unpaused",
      "type": "event"
    },
    {
      "anonymous": false,
      "inputs": [
        {
          "indexed": true,
          "internalType": "address",
          "name": "sender",
          "type": "address"
        }
      ],
      "name": "UnpausedAll",
      "type": "event"
    },
    {
      "anonymous": false,
      "inputs": [
        {
          "indexed": true,
          "internalType": "address",
          "name": "sender",
          "type": "address"
        },
        {
          "indexed": true,
          "internalType": "address",
          "name": "proxy",
          "type": "address"
        },
        {
          "indexed": true,
          "internalType": "bytes32",
          "name": "realm",
          "type": "bytes32"
        },
        {
          "indexed": false,
          "internalType": "bool",
          "name": "status",
          "type": "bool"
        }
      ],
      "name": "UpgradeStatusChanged",
      "type": "event"
    },
    {
      "anonymous": false,
      "inputs": [
        {
          "indexed": true,
          "internalType": "address",
          "name": "sender",
          "type": "address"
        },
        {
          "indexed": true,
          "internalType": "address",
          "name": "proxy",
          "type": "address"
        },
        {
          "indexed": true,
          "internalType": "address",
          "name": "newImplementation",
          "type": "address"
        }
      ],
      "name": "Upgraded",
      "type": "event"
    },
    {
      "stateMutability": "payable",
      "type": "fallback"
    },
    {
      "inputs": [],
      "name": "accessControlManager",
      "outputs": [
        {
          "internalType": "address",
          "name": "",
          "type": "address"
        }
      ],
      "stateMutability": "view",
      "type": "function"
    },
    {
      "inputs": [
        {
          "internalType": "address",
          "name": "owner",
          "type": "address"
        },
        {
          "internalType": "address",
          "name": "spender",
          "type": "address"
        }
      ],
      "name": "allowance",
      "outputs": [
        {
          "internalType": "uint256",
          "name": "",
          "type": "uint256"
        }
      ],
      "stateMutability": "view",
      "type": "function"
    },
    {
      "inputs": [
        {
          "internalType": "address",
          "name": "spender",
          "type": "address"
        },
        {
          "internalType": "uint256",
          "name": "amount",
          "type": "uint256"
        }
      ],
      "name": "approve",
      "outputs": [
        {
          "internalType": "bool",
          "name": "",
          "type": "bool"
        }
      ],
      "stateMutability": "nonpayable",
      "type": "function"
    },
    {
      "inputs": [
        {
          "internalType": "address",
          "name": "account",
          "type": "address"
        }
      ],
      "name": "balanceOf",
      "outputs": [
        {
          "internalType": "uint256",
          "name": "",
          "type": "uint256"
        }
      ],
      "stateMutability": "view",
      "type": "function"
    },
    {
      "inputs": [
        {
          "internalType": "bytes32[]",
          "name": "lockIds",
          "type": "bytes32[]"
        }
      ],
      "name": "batchClaimToken",
      "outputs": [
        {
          "internalType": "uint256",
          "name": "",
          "type": "uint256"
        }
      ],
      "stateMutability": "nonpayable",
      "type": "function"
    },
    {
      "inputs": [
        {
          "components": [
            {
              "internalType": "address",
              "name": "source",
              "type": "address"
            },
            {
              "internalType": "address",
              "name": "dest",
              "type": "address"
            },
            {
              "internalType": "uint256",
              "name": "timestamp",
              "type": "uint256"
            },
            {
              "internalType": "uint256",
              "name": "amount",
              "type": "uint256"
            }
          ],
          "internalType": "struct IERC20Lock.LockTokenRequest[]",
          "name": "lockRequest",
          "type": "tuple[]"
        }
      ],
      "name": "batchLockToken",
      "outputs": [
        {
          "internalType": "bytes32[]",
          "name": "",
          "type": "bytes32[]"
        }
      ],
      "stateMutability": "nonpayable",
      "type": "function"
    },
    {
      "inputs": [
        {
          "components": [
            {
              "internalType": "address",
              "name": "recipient",
              "type": "address"
            },
            {
              "internalType": "uint256",
              "name": "amount",
              "type": "uint256"
            }
          ],
          "internalType": "struct IERC20Extra.BatchTransferRequest[]",
          "name": "request",
          "type": "tuple[]"
        }
      ],
      "name": "batchTransfer",
      "outputs": [
        {
          "internalType": "bool",
          "name": "",
          "type": "bool"
        }
      ],
      "stateMutability": "nonpayable",
      "type": "function"
    },
    {
      "inputs": [
        {
          "components": [
            {
              "internalType": "address",
              "name": "source",
              "type": "address"
            },
            {
              "internalType": "address",
              "name": "recipient",
              "type": "address"
            },
            {
              "internalType": "uint256",
              "name": "amount",
              "type": "uint256"
            }
          ],
          "internalType": "struct IERC20Extra.BatchTransferFromRequest[]",
          "name": "request",
          "type": "tuple[]"
        }
      ],
      "name": "batchTransferFrom",
      "outputs": [
        {
          "internalType": "bool",
          "name": "",
          "type": "bool"
        }
      ],
      "stateMutability": "nonpayable",
      "type": "function"
    },
    {
      "inputs": [
        {
          "components": [
            {
              "internalType": "bytes32",
              "name": "lockId",
              "type": "bytes32"
            },
            {
              "internalType": "address",
              "name": "account",
              "type": "address"
            },
            {
              "internalType": "string",
              "name": "reason",
              "type": "string"
            }
          ],
          "internalType": "struct IERC20Lock.UnLockTokenRequest[]",
          "name": "unlockRequest",
          "type": "tuple[]"
        }
      ],
      "name": "batchUnlockToken",
      "outputs": [
        {
          "internalType": "uint256",
          "name": "",
          "type": "uint256"
        }
      ],
      "stateMutability": "nonpayable",
      "type": "function"
    },
    {
      "inputs": [
        {
          "components": [
            {
              "internalType": "address",
              "name": "account",
              "type": "address"
            },
            {
              "internalType": "bool",
              "name": "isDeleted",
              "type": "bool"
            }
          ],
          "internalType": "struct IERC20Extra.BatchUpdateTaxWhitelistRequest[]",
          "name": "request",
          "type": "tuple[]"
        }
      ],
      "name": "batchUpdateTaxWhitelist",
      "outputs": [],
      "stateMutability": "nonpayable",
      "type": "function"
    },
    {
      "inputs": [
        {
          "internalType": "address",
          "name": "account",
          "type": "address"
        },
        {
          "internalType": "uint256",
          "name": "amount",
          "type": "uint256"
        }
      ],
      "name": "burn",
      "outputs": [
        {
          "internalType": "uint256",
          "name": "",
          "type": "uint256"
        }
      ],
      "stateMutability": "nonpayable",
      "type": "function"
    },
    {
      "inputs": [
        {
          "internalType": "bytes32",
          "name": "lockId",
          "type": "bytes32"
        }
      ],
      "name": "claimToken",
      "outputs": [
        {
          "internalType": "uint256",
          "name": "",
          "type": "uint256"
        }
      ],
      "stateMutability": "nonpayable",
      "type": "function"
    },
    {
      "inputs": [],
      "name": "contractContext",
      "outputs": [
        {
          "internalType": "bytes32",
          "name": "",
          "type": "bytes32"
        }
      ],
      "stateMutability": "view",
      "type": "function"
    },
    {
      "inputs": [],
      "name": "contractName",
      "outputs": [
        {
          "internalType": "bytes32",
          "name": "",
          "type": "bytes32"
        }
      ],
      "stateMutability": "view",
      "type": "function"
    },
    {
      "inputs": [],
      "name": "contractRealm",
      "outputs": [
        {
          "internalType": "bytes32",
          "name": "",
          "type": "bytes32"
        }
      ],
      "stateMutability": "view",
      "type": "function"
    },
    {
      "inputs": [],
      "name": "contractVersion",
      "outputs": [
        {
          "internalType": "bytes32",
          "name": "",
          "type": "bytes32"
        }
      ],
      "stateMutability": "view",
      "type": "function"
    },
    {
      "inputs": [],
      "name": "decimals",
      "outputs": [
        {
          "internalType": "uint8",
          "name": "",
          "type": "uint8"
        }
      ],
      "stateMutability": "pure",
      "type": "function"
    },
    {
      "inputs": [
        {
          "internalType": "address",
          "name": "spender",
          "type": "address"
        },
        {
          "internalType": "uint256",
          "name": "amount",
          "type": "uint256"
        }
      ],
      "name": "decreaseAllowance",
      "outputs": [
        {
          "internalType": "uint256",
          "name": "",
          "type": "uint256"
        }
      ],
      "stateMutability": "nonpayable",
      "type": "function"
    },
    {
      "inputs": [],
      "name": "distributeToken",
      "outputs": [
        {
          "internalType": "bool",
          "name": "",
          "type": "bool"
        }
      ],
      "stateMutability": "view",
      "type": "function"
    },
    {
      "inputs": [],
      "name": "domainSeparator",
      "outputs": [
        {
          "internalType": "bytes32",
          "name": "",
          "type": "bytes32"
        }
      ],
      "stateMutability": "view",
      "type": "function"
    },
    {
      "inputs": [
        {
          "internalType": "address",
          "name": "spender",
          "type": "address"
        },
        {
          "internalType": "uint256",
          "name": "amount",
          "type": "uint256"
        }
      ],
      "name": "increaseAllowance",
      "outputs": [
        {
          "internalType": "uint256",
          "name": "",
          "type": "uint256"
        }
      ],
      "stateMutability": "nonpayable",
      "type": "function"
    },
    {
      "inputs": [],
      "name": "initStatus",
      "outputs": [
        {
          "internalType": "bool",
          "name": "",
          "type": "bool"
        }
      ],
      "stateMutability": "view",
      "type": "function"
    },
    {
      "inputs": [],
      "name": "initVersion",
      "outputs": [
        {
          "internalType": "uint16",
          "name": "",
          "type": "uint16"
        }
      ],
      "stateMutability": "view",
      "type": "function"
    },
    {
      "inputs": [
        {
          "components": [
            {
              "internalType": "string",
              "name": "domainName",
              "type": "string"
            },
            {
              "internalType": "string",
              "name": "domainVersion",
              "type": "string"
            },
            {
              "internalType": "string",
              "name": "domainRealm",
              "type": "string"
            },
            {
              "internalType": "bytes",
              "name": "signature",
              "type": "bytes"
            },
            {
              "internalType": "uint256",
              "name": "taxRateValue",
              "type": "uint256"
            },
            {
              "internalType": "uint256",
              "name": "totalSupplyAmount",
              "type": "uint256"
            },
            {
              "internalType": "address",
              "name": "accessControlManager",
              "type": "address"
            },
            {
              "internalType": "address",
              "name": "taxTreasuryAddress",
              "type": "address"
            },
            {
              "internalType": "address",
              "name": "assetManager",
              "type": "address"
            }
          ],
          "internalType": "struct LivelyToken.InitRequest",
          "name": "request",
          "type": "tuple"
        }
      ],
      "name": "initialize",
      "outputs": [],
      "stateMutability": "nonpayable",
      "type": "function"
    },
    {
      "inputs": [
        {
          "internalType": "address",
          "name": "account",
          "type": "address"
        }
      ],
      "name": "isPaused",
      "outputs": [
        {
          "internalType": "bool",
          "name": "",
          "type": "bool"
        }
      ],
      "stateMutability": "view",
      "type": "function"
    },
    {
      "inputs": [],
      "name": "isPausedAll",
      "outputs": [
        {
          "internalType": "bool",
          "name": "",
          "type": "bool"
        }
      ],
      "stateMutability": "view",
      "type": "function"
    },
    {
      "inputs": [],
      "name": "isSafeMode",
      "outputs": [
        {
          "internalType": "bool",
          "name": "",
          "type": "bool"
        }
      ],
      "stateMutability": "view",
      "type": "function"
    },
    {
      "inputs": [],
      "name": "isUpgradable",
      "outputs": [
        {
          "internalType": "bool",
          "name": "",
          "type": "bool"
        }
      ],
      "stateMutability": "view",
      "type": "function"
    },
    {
      "inputs": [],
      "name": "localAdmin",
      "outputs": [
        {
          "internalType": "address",
          "name": "",
          "type": "address"
        }
      ],
      "stateMutability": "view",
      "type": "function"
    },
    {
      "inputs": [
        {
          "internalType": "address",
          "name": "account",
          "type": "address"
        }
      ],
      "name": "lockBalanceOf",
      "outputs": [
        {
          "internalType": "uint256",
          "name": "",
          "type": "uint256"
        }
      ],
      "stateMutability": "view",
      "type": "function"
    },
    {
      "inputs": [
        {
          "internalType": "bytes32",
          "name": "lockId",
          "type": "bytes32"
        },
        {
          "internalType": "address",
          "name": "account",
          "type": "address"
        }
      ],
      "name": "lockInfo",
      "outputs": [
        {
          "internalType": "uint256",
          "name": "",
          "type": "uint256"
        },
        {
          "internalType": "uint128",
          "name": "",
          "type": "uint128"
        },
        {
          "internalType": "uint128",
          "name": "",
          "type": "uint128"
        },
        {
          "internalType": "address",
          "name": "",
          "type": "address"
        },
        {
          "internalType": "uint8",
          "name": "",
          "type": "uint8"
        }
      ],
      "stateMutability": "view",
      "type": "function"
    },
    {
      "inputs": [
        {
          "components": [
            {
              "internalType": "address",
              "name": "source",
              "type": "address"
            },
            {
              "internalType": "address",
              "name": "dest",
              "type": "address"
            },
            {
              "internalType": "uint256",
              "name": "timestamp",
              "type": "uint256"
            },
            {
              "internalType": "uint256",
              "name": "amount",
              "type": "uint256"
            }
          ],
          "internalType": "struct IERC20Lock.LockTokenRequest",
          "name": "lockRequest",
          "type": "tuple"
        }
      ],
      "name": "lockToken",
      "outputs": [
        {
          "internalType": "bytes32",
          "name": "",
          "type": "bytes32"
        }
      ],
      "stateMutability": "nonpayable",
      "type": "function"
    },
    {
      "inputs": [
        {
          "internalType": "address",
          "name": "account",
          "type": "address"
        },
        {
          "internalType": "uint256",
          "name": "amount",
          "type": "uint256"
        }
      ],
      "name": "mint",
      "outputs": [
        {
          "internalType": "uint256",
          "name": "",
          "type": "uint256"
        }
      ],
      "stateMutability": "nonpayable",
      "type": "function"
    },
    {
      "inputs": [],
      "name": "name",
      "outputs": [
        {
          "internalType": "string",
          "name": "",
          "type": "string"
        }
      ],
      "stateMutability": "view",
      "type": "function"
    },
    {
      "inputs": [
        {
          "internalType": "address",
          "name": "owner",
          "type": "address"
        }
      ],
      "name": "nonce",
      "outputs": [
        {
          "internalType": "uint256",
          "name": "",
          "type": "uint256"
        }
      ],
      "stateMutability": "view",
      "type": "function"
    },
    {
      "inputs": [
        {
          "internalType": "address",
          "name": "account",
          "type": "address"
        }
      ],
      "name": "pause",
      "outputs": [],
      "stateMutability": "nonpayable",
      "type": "function"
    },
    {
      "inputs": [],
      "name": "pauseAll",
      "outputs": [],
      "stateMutability": "nonpayable",
      "type": "function"
    },
    {
      "inputs": [],
      "name": "pausedAccounts",
      "outputs": [
        {
          "internalType": "address[]",
          "name": "",
          "type": "address[]"
        }
      ],
      "stateMutability": "view",
      "type": "function"
    },
    {
      "inputs": [
        {
          "internalType": "address",
          "name": "owner",
          "type": "address"
        },
        {
          "internalType": "address",
          "name": "spender",
          "type": "address"
        },
        {
          "internalType": "uint256",
          "name": "value",
          "type": "uint256"
        },
        {
          "internalType": "uint256",
          "name": "deadline",
          "type": "uint256"
        },
        {
          "internalType": "bytes",
          "name": "signature",
          "type": "bytes"
        }
      ],
      "name": "permit",
      "outputs": [
        {
          "internalType": "bool",
          "name": "",
          "type": "bool"
        }
      ],
      "stateMutability": "nonpayable",
      "type": "function"
    },
    {
      "inputs": [],
      "name": "proxiableUUID",
      "outputs": [
        {
          "internalType": "bytes32",
          "name": "",
          "type": "bytes32"
        }
      ],
      "stateMutability": "view",
      "type": "function"
    },
    {
      "inputs": [
        {
          "internalType": "address",
          "name": "newLocalAdmin",
          "type": "address"
        }
      ],
      "name": "setLocalAdmin",
      "outputs": [
        {
          "internalType": "bool",
          "name": "",
          "type": "bool"
        }
      ],
      "stateMutability": "nonpayable",
      "type": "function"
    },
    {
      "inputs": [
        {
          "internalType": "bool",
          "name": "status",
          "type": "bool"
        }
      ],
      "name": "setSafeMode",
      "outputs": [
        {
          "internalType": "bool",
          "name": "",
          "type": "bool"
        }
      ],
      "stateMutability": "nonpayable",
      "type": "function"
    },
    {
      "inputs": [
        {
          "internalType": "bool",
          "name": "status",
          "type": "bool"
        }
      ],
      "name": "setUpgradeStatus",
      "outputs": [
        {
          "internalType": "bool",
          "name": "",
          "type": "bool"
        }
      ],
      "stateMutability": "nonpayable",
      "type": "function"
    },
    {
      "inputs": [],
      "name": "subjectAddress",
      "outputs": [
        {
          "internalType": "address",
          "name": "",
          "type": "address"
        }
      ],
      "stateMutability": "view",
      "type": "function"
    },
    {
      "inputs": [
        {
          "internalType": "bytes4",
          "name": "interfaceId",
          "type": "bytes4"
        }
      ],
      "name": "supportsInterface",
      "outputs": [
        {
          "internalType": "bool",
          "name": "",
          "type": "bool"
        }
      ],
      "stateMutability": "view",
      "type": "function"
    },
    {
      "inputs": [],
      "name": "symbol",
      "outputs": [
        {
          "internalType": "string",
          "name": "",
          "type": "string"
        }
      ],
      "stateMutability": "view",
      "type": "function"
    },
    {
      "inputs": [],
      "name": "taxRate",
      "outputs": [
        {
          "internalType": "uint256",
          "name": "",
          "type": "uint256"
        }
      ],
      "stateMutability": "view",
      "type": "function"
    },
    {
      "inputs": [],
      "name": "taxTreasury",
      "outputs": [
        {
          "internalType": "address",
          "name": "",
          "type": "address"
        }
      ],
      "stateMutability": "view",
      "type": "function"
    },
    {
      "inputs": [],
      "name": "taxWhitelist",
      "outputs": [
        {
          "internalType": "address[]",
          "name": "",
          "type": "address[]"
        }
      ],
      "stateMutability": "view",
      "type": "function"
    },
    {
      "inputs": [
        {
          "internalType": "address",
          "name": "account",
          "type": "address"
        }
      ],
      "name": "totalBalanceOf",
      "outputs": [
        {
          "internalType": "uint256",
          "name": "",
          "type": "uint256"
        }
      ],
      "stateMutability": "view",
      "type": "function"
    },
    {
      "inputs": [],
      "name": "totalSupply",
      "outputs": [
        {
          "internalType": "uint256",
          "name": "",
          "type": "uint256"
        }
      ],
      "stateMutability": "view",
      "type": "function"
    },
    {
      "inputs": [
        {
          "internalType": "address",
          "name": "recipient",
          "type": "address"
        },
        {
          "internalType": "uint256",
          "name": "amount",
          "type": "uint256"
        }
      ],
      "name": "transfer",
      "outputs": [
        {
          "internalType": "bool",
          "name": "",
          "type": "bool"
        }
      ],
      "stateMutability": "nonpayable",
      "type": "function"
    },
    {
      "inputs": [
        {
          "internalType": "address",
          "name": "source",
          "type": "address"
        },
        {
          "internalType": "address",
          "name": "recipient",
          "type": "address"
        },
        {
          "internalType": "uint256",
          "name": "amount",
          "type": "uint256"
        }
      ],
      "name": "transferFrom",
      "outputs": [
        {
          "internalType": "bool",
          "name": "",
          "type": "bool"
        }
      ],
      "stateMutability": "nonpayable",
      "type": "function"
    },
    {
      "inputs": [
        {
          "components": [
            {
              "internalType": "bytes32",
              "name": "lockId",
              "type": "bytes32"
            },
            {
              "internalType": "address",
              "name": "account",
              "type": "address"
            },
            {
              "internalType": "string",
              "name": "reason",
              "type": "string"
            }
          ],
          "internalType": "struct IERC20Lock.UnLockTokenRequest",
          "name": "unlockRequest",
          "type": "tuple"
        }
      ],
      "name": "unlockToken",
      "outputs": [
        {
          "internalType": "uint256",
          "name": "",
          "type": "uint256"
        }
      ],
      "stateMutability": "nonpayable",
      "type": "function"
    },
    {
      "inputs": [
        {
          "internalType": "address",
          "name": "account",
          "type": "address"
        }
      ],
      "name": "unpause",
      "outputs": [],
      "stateMutability": "nonpayable",
      "type": "function"
    },
    {
      "inputs": [],
      "name": "unpauseAll",
      "outputs": [],
      "stateMutability": "nonpayable",
      "type": "function"
    },
    {
      "inputs": [
        {
          "internalType": "uint256",
          "name": "rate",
          "type": "uint256"
        }
      ],
      "name": "updateTaxRate",
      "outputs": [
        {
          "internalType": "bool",
          "name": "",
          "type": "bool"
        }
      ],
      "stateMutability": "nonpayable",
      "type": "function"
    },
    {
      "inputs": [
        {
          "internalType": "address",
          "name": "account",
          "type": "address"
        },
        {
          "internalType": "bool",
          "name": "isDeleted",
          "type": "bool"
        }
      ],
      "name": "updateTaxWhitelist",
      "outputs": [
        {
          "internalType": "bool",
          "name": "",
          "type": "bool"
        }
      ],
      "stateMutability": "nonpayable",
      "type": "function"
    },
    {
      "inputs": [
        {
          "internalType": "address",
          "name": "newImplementation",
          "type": "address"
        },
        {
          "internalType": "bytes",
          "name": "data",
          "type": "bytes"
        },
        {
          "internalType": "bool",
          "name": "forceCall",
          "type": "bool"
        }
      ],
      "name": "upgradeTo",
      "outputs": [
        {
          "internalType": "bytes",
          "name": "",
          "type": "bytes"
        }
      ],
      "stateMutability": "nonpayable",
      "type": "function"
    },
    {
      "inputs": [
        {
          "internalType": "address",
          "name": "recepient",
          "type": "address"
        }
      ],
      "name": "withdrawBalance",
      "outputs": [],
      "stateMutability": "nonpayable",
      "type": "function"
    },
    {
      "stateMutability": "payable",
      "type": "receive"
    }
  ],
  "transactionHash": "0x05cf773776229bdb6d56a5088b22c46a43d42dbd6e227191737e9728ae3741ee",
  "args": [],
  "numDeployments": 1,
  "solcInputHash": "3e2301e7d344110cf0a11d061271faa8",
  "bytecode": "0x60a0604052306080523480156200001557600080fd5b506200004360017f360894a13ba1a3210667c828492db98dca3e2076cc3735a920a3ca505d382bbd6200011f565b7f360894a13ba1a3210667c828492db98dca3e2076cc3735a920a3ca505d382bbc1462000074576200007462000145565b620000a160017fb53127684a568b3173ae13b9f8a6016e243e63b6e8ee1178d6a717850b5d61046200011f565b6000805160206200555483398151915214620000c157620000c162000145565b33620000ea6000805160206200555483398151915260001b6200011c60201b620027331760201c565b80546001600160a01b0319166001600160a01b03929092169190911790556004805461ffff191660011790556200015b565b90565b6000828210156200014057634e487b7160e01b600052601160045260246000fd5b500390565b634e487b7160e01b600052600160045260246000fd5b608051615389620001cb60003960008181610ecc01528181610f0c01528181611046015281816110860152818161140a0152818161144a015281816115de0152818161161e015281816117d2015281816119fb01528181611a3b0152818161249901526124d901526153896000f3fe60806040526004361061036b5760003560e01c8063756af45f116101c4578063a0a8e460116100f6578063d3e024b81161009a578063f698da251161006c578063f698da2514610a92578063f94a0adb14610aa7578063faa552a814610abc578063fdb92ec414610adc57005b8063d3e024b814610a28578063d9dc1f1914610a3d578063dd62ed3e14610a5d578063de843a9414610a7d57005b8063a5bfa9a9116100d3578063a5bfa9a9146109b2578063a9059cbb146109d2578063b4a0bdf3146109f2578063be22465d14610a1057005b8063a0a8e4601461095e578063a0e6adf114610973578063a457c2d71461099257005b80638a2ddd03116101685780639a7e18731161013a5780639a7e1873146108d15780639b5f356e146108fe5780639dc29fac1461091e5780639fd5a6cf1461093e57005b80638a2ddd03146108295780638a92ab151461083e5780638bfc07ed1461085c57806395d89b41146108bc57005b8063771a3a1d116101a1578063771a3a1d146107bd5780637bf60ff4146107d25780637d35f355146107f4578063870666cb1461081457005b8063756af45f1461076857806375d0c0dc1461078857806376a67a511461079d57005b806344b7e5f21161029d57806358dbc45d116102415780636b839492116102135780636b839492146106d257806370a08231146106f257806370ae92d2146107285780637147855d1461074857005b806358dbc45d14610652578063595c6a671461067f5780635b14f1831461069457806360fefdec146106b457005b80634b0ee02a1161027a5780634b0ee02a146105e057806352d1902d146106005780635479d9401461061557806357b001f91461063257005b806344b7e5f21461058057806346a634d4146105a057806348e6be1c146105c057005b80631c6928e81161030f57806337674a2b116102e157806337674a2b146104f857806338d38c9714610518578063395093511461054057806340c10f191461056057005b80631c6928e81461048757806323b872dd146104a7578063313ce567146104c757806334273637146104e357005b806310e776ed1161034857806310e776ed146103eb5780631455a1c81461043257806317fdcc8e1461045257806318160ddd1461047257005b806301ffc9a71461037457806306fdde03146103a9578063095ea7b3146103cb57005b3661037257005b005b34801561038057600080fd5b5061039461038f366004614381565b610afc565b60405190151581526020015b60405180910390f35b3480156103b557600080fd5b506103be610b77565b6040516103a091906143f6565b3480156103d757600080fd5b506103946103e636600461441e565b610c09565b3480156103f757600080fd5b5061042461040636600461444a565b6001600160a01b03166000908152604a602052604090206001015490565b6040519081526020016103a0565b34801561043e57600080fd5b5061042461044d3660046144ab565b610c34565b34801561045e57600080fd5b5061039461046d3660046144ec565b610cd0565b34801561047e57600080fd5b50604754610424565b34801561049357600080fd5b506103946104a2366004614505565b610d27565b3480156104b357600080fd5b506103946104c2366004614579565b610e95565b3480156104d357600080fd5b50604051601281526020016103a0565b3480156104ef57600080fd5b50610394610ec0565b34801561050457600080fd5b506103726105133660046145ba565b61103c565b34801561052457600080fd5b5061052d61133d565b60405161ffff90911681526020016103a0565b34801561054c57600080fd5b5061042461055b36600461441e565b611351565b34801561056c57600080fd5b5061042461057b36600461441e565b6113de565b34801561058c57600080fd5b5061039461059b36600461460e565b6113fe565b3480156105ac57600080fd5b506103946105bb36600461462b565b6115b3565b3480156105cc57600080fd5b506103946105db36600461460e565b6115d2565b3480156105ec57600080fd5b506104246105fb36600461444a565b61179b565b34801561060c57600080fd5b506104246117c5565b34801561062157600080fd5b50600454610100900460ff16610394565b34801561063e57600080fd5b5061037261064d36600461444a565b611852565b34801561065e57600080fd5b5061066761191c565b6040516001600160a01b0390911681526020016103a0565b34801561068b57600080fd5b50610372611926565b3480156106a057600080fd5b506103946106af36600461444a565b61198b565b3480156106c057600080fd5b5060515462010000900460ff16610394565b3480156106de57600080fd5b506104246106ed366004614664565b6119ab565b3480156106fe57600080fd5b5061042461070d36600461444a565b6001600160a01b03166000908152604a602052604090205490565b34801561073457600080fd5b5061042461074336600461444a565b6119ce565b34801561075457600080fd5b506103be6107633660046146e4565b6119ef565b34801561077457600080fd5b5061037261078336600461444a565b611b17565b34801561079457600080fd5b50600154610424565b3480156107a957600080fd5b506103726107b836600461444a565b611bcb565b3480156107c957600080fd5b50604854610424565b3480156107de57600080fd5b506107e7611c9b565b6040516103a0919061479b565b34801561080057600080fd5b5061037261080f36600461482c565b611ca7565b34801561082057600080fd5b50610424611d38565b34801561083557600080fd5b50610372611d43565b34801561084a57600080fd5b506049546001600160a01b0316610667565b34801561086857600080fd5b5061087c610877366004614861565b611d91565b604080519586526001600160801b03948516602087015292909316918401919091526001600160a01b0316606083015260ff16608082015260a0016103a0565b3480156108c857600080fd5b506103be611e16565b3480156108dd57600080fd5b506108f16108ec366004614886565b611e25565b6040516103a091906148e8565b34801561090a57600080fd5b506104246109193660046144ab565b611f8d565b34801561092a57600080fd5b5061042461093936600461441e565b612081565b34801561094a57600080fd5b50610394610959366004614920565b6121af565b34801561096a57600080fd5b50600254610424565b34801561097f57600080fd5b50604954600160a01b900460ff16610394565b34801561099e57600080fd5b506104246109ad36600461441e565b6123a4565b3480156109be57600080fd5b506104246109cd3660046144ec565b612422565b3480156109de57600080fd5b506103946109ed36600461441e565b61243e565b3480156109fe57600080fd5b506000546001600160a01b0316610667565b348015610a1c57600080fd5b5060045460ff16610394565b348015610a3457600080fd5b50600354610424565b348015610a4957600080fd5b50610394610a5836600461444a565b61248d565b348015610a6957600080fd5b50610424610a783660046149c9565b612607565b348015610a8957600080fd5b506107e7612613565b348015610a9e57600080fd5b5061042461261f565b348015610ab357600080fd5b50610667612629565b348015610ac857600080fd5b50610394610ad736600461482c565b612633565b348015610ae857600080fd5b50610424610af73660046149f7565b61270d565b60006001600160e01b03198216634a17459160e11b1480610b2d57506001600160e01b0319821663e3a31a9d60e01b145b80610b4857506001600160e01b03198216636b88d51560e11b145b80610b6257506001600160e01b03198216627b720760e91b145b80610b715750610b7182612736565b92915050565b606060458054610b8690614a31565b80601f0160208091040260200160405190810160405280929190818152602001828054610bb290614a31565b8015610bff5780601f10610bd457610100808354040283529160200191610bff565b820191906000526020600020905b815481529060010190602001808311610be257829003601f168201915b5050505050905090565b6000610c2063095ea7b360e01b335b600180612786565b610c2b338484612884565b50600192915050565b6000610c4763028ab43960e31b33610c18565b6000805b83811015610c9257610c74858583818110610c6857610c68614a65565b9050602002013561298a565b610c7e9083614a91565b915080610c8a81614aa9565b915050610c4b565b5060405181815233907ff816ce3b3a52bd5c96a6ac9d4404d206f4e9d482ffa303afbf0dbeea2957f59a906020015b60405180910390a29392505050565b6000610ce5630bfee64760e11b828080612786565b604882905560405182815233907fb7902185ac0a79231c8be85f0ee0d94806d95d785d216824a078279f5d5bfbae9060200160405180910390a2506001919050565b6000610d3d63038d251d60e31b82600181612786565b6000805b83811015610e5457610d7c858583818110610d5e57610d5e614a65565b610d74926020606090920201908101915061444a565b604d90612a71565b15610da25760405162461bcd60e51b8152600401610d9990614ac2565b60405180910390fd5b848482818110610db457610db4614a65565b9050606002016040013582610dc99190614a91565b9150610e41858583818110610de057610de0614a65565b610df6926020606090920201908101915061444a565b868684818110610e0857610e08614a65565b9050606002016020016020810190610e20919061444a565b878785818110610e3257610e32614a65565b90506060020160400135612a93565b5080610e4c81614aa9565b915050610d41565b5060405181815233907f208fdf04989d654cc491d69be8eb64992c7b7407e34a6ac73e7c0361d0591eff906020015b60405180910390a25060019392505050565b6000610eab6323b872dd60e01b85600180612786565b610eb6848484612a93565b90505b9392505050565b60006001600160a01b037f0000000000000000000000000000000000000000000000000000000000000000163003610f0a5760405162461bcd60e51b8152600401610d9990614af9565b7f00000000000000000000000000000000000000000000000000000000000000006001600160a01b0316610f3c612b3c565b6001600160a01b031614610f625760405162461bcd60e51b8152600401610d9990614b28565b33610f6b612b5d565b6001600160a01b031614610fb95760405162461bcd60e51b815260206004820152601560248201527410d85b1b195c88139bdd08105d5d1a1bdc9a5e9959605a1b6044820152606401610d99565b60045460ff1615610fdc5760405162461bcd60e51b8152600401610d9990614b56565b60515461ffff1661ffff166001146110365760405162461bcd60e51b815260206004820152601960248201527f546f6b656e20416c7265616479204469737472696275746564000000000000006044820152606401610d99565b50600190565b6001600160a01b037f00000000000000000000000000000000000000000000000000000000000000001630036110845760405162461bcd60e51b8152600401610d9990614af9565b7f00000000000000000000000000000000000000000000000000000000000000006001600160a01b03166110b6612b3c565b6001600160a01b0316146110dc5760405162461bcd60e51b8152600401610d9990614b28565b336110e5612b5d565b6001600160a01b0316146111335760405162461bcd60e51b815260206004820152601560248201527410d85b1b195c88139bdd08105d5d1a1bdc9a5e9959605a1b6044820152606401610d99565b60515462010000900460ff16158080156111555750605154600161ffff909116105b806111705750303b158015611170575060515461ffff166001145b6111bc5760405162461bcd60e51b815260206004820152601c60248201527f436f6e747261637420416c726561647920496e697469616c697a6564000000006044820152606401610d99565b6051805461ffff1916600117905580156111e2576051805462ff00001916620100001790555b60006111f16040840184614b8d565b604051602001611202929190614bd3565b60408051601f198184030181529190528051602090910120905061124c6112298480614b8d565b6112366020870187614b8d565b8561124760e08a0160c08b0161444a565b612b85565b6040805180820190915260068152654c4956454c5960d01b60208201526045906112769082614c29565b5060408051808201909152600381526213159360ea1b602082015260469061129e9082614c29565b5060808301356048556112b8610100840160e0850161444a565b604980546001600160a01b0319166001600160a01b03929092169190911790556112f76112ed6101208501610100860161444a565b8460a00135612b9b565b506113256113058480614b8d565b6113126020870187614b8d565b8561132060608a018a614b8d565b612c5b565b508015611339576051805462ff0000191690555b5050565b600061134c60515461ffff1690565b905090565b6000611364633950935160e01b33610c18565b336000836113728387612de1565b61137c9190614a91565b9050611389828683612884565b846001600160a01b0316826001600160a01b03167f865ea570c20f0fe0ae579ec567fa79d57a683390554593dc070ea0dcd5f466fb866040516113ce91815260200190565b60405180910390a3949350505050565b60006113f46340c10f1960e01b84600180612786565b610eb98383612b9b565b60006001600160a01b037f00000000000000000000000000000000000000000000000000000000000000001630036114485760405162461bcd60e51b8152600401610d9990614af9565b7f00000000000000000000000000000000000000000000000000000000000000006001600160a01b031661147a612b3c565b6001600160a01b0316146114a05760405162461bcd60e51b8152600401610d9990614b28565b60006114af60515461ffff1690565b61ffff16116115005760405162461bcd60e51b815260206004820152601860248201527f436f6e7472616374204e6f7420496e697469616c697a656400000000000000006044820152606401610d99565b61151063225bf2f960e11b612e0c565b6115545760405162461bcd60e51b815260206004820152601560248201527429b2ba29b0b332a6b7b232902337b93134b23232b760591b6044820152606401610d99565b6004805460ff191683151517905560035430336001600160a01b03167fdd452a31d2e164a1ea436c084842c27d24ae2548a575a869f71b05a4ed16243f856040516115a3911515815260200190565b60405180910390a450805b919050565b60006115c86311a98d3560e21b828080612786565b610eb98383612f73565b60006001600160a01b037f000000000000000000000000000000000000000000000000000000000000000016300361161c5760405162461bcd60e51b8152600401610d9990614af9565b7f00000000000000000000000000000000000000000000000000000000000000006001600160a01b031661164e612b3c565b6001600160a01b0316146116745760405162461bcd60e51b8152600401610d9990614b28565b60045460ff16156116975760405162461bcd60e51b8152600401610d9990614b56565b6116a7631239af8760e21b612e0c565b6116f35760405162461bcd60e51b815260206004820152601a60248201527f5365745570677261646553746174757320466f7262696464656e0000000000006044820152606401610d99565b6116fb61304f565b6117475760405162461bcd60e51b815260206004820152601760248201527f5265616c6d205570677261646520466f7262696464656e0000000000000000006044820152606401610d99565b6004805461ff0019166101008415150217905560035430336001600160a01b03167fe9f97ad94c2ba252dcfc525e004f608ac5cb886955d8fc87d9e0ee070a698c56856040516115a3911515815260200190565b6001600160a01b0381166000908152604a602052604081208054600190910154610b719190614a91565b6000306001600160a01b037f0000000000000000000000000000000000000000000000000000000000000000161461183f5760405162461bcd60e51b815260206004820152601d60248201527f496c6c6567616c20436f6e74726163742044656c656761746563616c6c0000006044820152606401610d99565b5060008051602061533483398151915290565b6118666357b001f960e01b60008080612786565b6001600160a01b03811661188c5760405162461bcd60e51b8152600401610d9990614ce8565b611897604d82612a71565b6118d75760405162461bcd60e51b81526020600482015260116024820152701058d8dbdd5b9d08139bdd08119bdd5b99607a1b6044820152606401610d99565b6118e2604d8261318b565b506040516001600160a01b0382169033907f3d072963433794eb417a69355df67d08bbd73d5076ef653d6863861161d60af390600090a350565b600061134c612b3c565b61193a63595c6a6760e01b60008080612786565b6049805460ff60a01b1916600160a01b1790556119543390565b6001600160a01b03167ff1005168aea1429fe9559d51ef6caa33e6426890864e2e6e41e5d54baa7be79f60405160405180910390a2565b60006001600160a01b03821615801590610b715750610b71604d83612a71565b60006119c56335c1ca4960e11b610c18602085018561444a565b610b71826131a0565b6001600160a01b0381166000908152604a6020526040812060020154610b71565b60606001600160a01b037f0000000000000000000000000000000000000000000000000000000000000000163003611a395760405162461bcd60e51b8152600401610d9990614af9565b7f00000000000000000000000000000000000000000000000000000000000000006001600160a01b0316611a6b612b3c565b6001600160a01b031614611a915760405162461bcd60e51b8152600401610d9990614b28565b60045460ff1615611ab45760405162461bcd60e51b8152600401610d9990614b56565b600454610100900460ff16611b035760405162461bcd60e51b8152602060048201526015602482015274155c19dc9859194810d85b1b0814995a9958dd1959605a1b6044820152606401610d99565b611b0c84613296565b610eb684848461335d565b60045460ff1615611b3a5760405162461bcd60e51b8152600401610d9990614b56565b611b4a63756af45f60e01b612e0c565b611b965760405162461bcd60e51b815260206004820152601a60248201527f57697468647261772042616c616e636520466f7262696464656e0000000000006044820152606401610d99565b6040516001600160a01b038216904780156108fc02916000818181858888f19350505050158015611339573d6000803e3d6000fd5b611bdf6376a67a5160e01b60008080612786565b6001600160a01b038116611c055760405162461bcd60e51b8152600401610d9990614ce8565b611c10604d82612a71565b15611c565760405162461bcd60e51b81526020600482015260166024820152751058d8dbdd5b9d08105b1c9958591e4814185d5cd95960521b6044820152606401610d99565b611c61604d826135ae565b506040516001600160a01b0382169033907f3dd4f37ca5eaf6c357698a52c806820426d7c9a26adb0991c3bebb09cf23352a90600090a350565b606061134c604f6135c3565b611cbb637d35f35560e01b60008080612786565b60005b81811015611d3357611d20838383818110611cdb57611cdb614a65565b611cf1926020604090920201908101915061444a565b848484818110611d0357611d03614a65565b9050604002016020016020810190611d1b919061460e565b612f73565b5080611d2b81614aa9565b915050611cbe565b505050565b600061134c306135d0565b611d57638a2ddd0360e01b60008080612786565b6049805460ff60a01b1916905560405133907f3c1fb1fd79ee84e55a8fe78554c432ef36ea033a9245ce4b650bd824a12554d390600090a2565b6001600160a01b038181166000908152604c60209081526040808320868452909152812080546001820154600283015493948594859485948594919390926001600160801b0380841693600160801b90041691811690600160a01b900460ff166003811115611e0257611e02614d1f565b939c929b5090995097509095509350505050565b606060468054610b8690614a31565b6060611e3c639a7e187360e01b6000600181612786565b600080836001600160401b03811115611e5757611e57614676565b604051908082528060200260200182016040528015611e80578160200160208202803683370190505b50905060005b84811015611f4f57611eb9868683818110611ea357611ea3614a65565b610d74926020608090920201908101915061444a565b15611ed65760405162461bcd60e51b8152600401610d9990614ac2565b611ef6868683818110611eeb57611eeb614a65565b9050608002016131a0565b828281518110611f0857611f08614a65565b602002602001018181525050858582818110611f2657611f26614a65565b9050608002016060013583611f3b9190614a91565b925080611f4781614aa9565b915050611e86565b5060405182815233907f8e04d4df873aa900cbe3c4b51af80c003e2a72b8dfd36a6a2e54fdadbf4d11279060200160405180910390a2949350505050565b6000611fa3634daf9ab760e11b82600181612786565b6000805b8381101561204e57611fe7858583818110611fc457611fc4614a65565b9050602002810190611fd69190614d35565b610d7490604081019060200161444a565b156120045760405162461bcd60e51b8152600401610d9990614ac2565b61203085858381811061201957612019614a65565b905060200281019061202b9190614d35565b61360f565b61203a9083614a91565b91508061204681614aa9565b915050611fa7565b5060405181815233907f358ca32fb65dbe46a9aec67304b927cf0c3eaf896217f853f9a93fef2e92072390602001610cc1565b6000612097632770a7eb60e21b84600180612786565b6001600160a01b0383166120bd5760405162461bcd60e51b8152600401610d9990614ce8565b6001600160a01b0383166000908152604a6020526040902054828110156121265760405162461bcd60e51b815260206004820152601c60248201527f496e73756666696369656e74204163636f756e742042616c616e6365000000006044820152606401610d99565b6001600160a01b0384166000908152604a60205260408120848303905560478054859290612155908490614d55565b90915550506047546040805185815260208101929092526001600160a01b0386169133917f5d624aa9c148153ab3446c1b154f660ee7701e549fe9b62dab7171b1c80e6fa2910160405180910390a3505060475492915050565b60006121c5639fd5a6cf60e01b88600180612786565b834211156122155760405162461bcd60e51b815260206004820152601760248201527f5065726d697420446561646c696e6520457870697265640000000000000000006044820152606401610d99565b60007f6e71edae12b1b97f4d1f60370fef10105fa2faae0126114a169c64845d6126c98888886122448c6136fe565b6040805160208101969096526001600160a01b0394851690860152929091166060840152608083015260a082015260c0810186905260e00160405160208183030381529060405280519060200120905060006122e26122a1613729565b8360405161190160f01b6020820152602281018390526042810182905260009060620160405160208183030381529060405280519060200120905092915050565b905060006123268287878080601f01602080910402602001604051908101604052809392919081815260200183838082843760009201919091525061379292505050565b9050896001600160a01b0316816001600160a01b0316146123895760405162461bcd60e51b815260206004820152601860248201527f496c6c6567616c20454344415341205369676e617475726500000000000000006044820152606401610d99565b6123948a8a8a612884565b5060019998505050505050505050565b60006123b763a457c2d760e01b33610c18565b336123c38185856137b6565b836001600160a01b0316816001600160a01b03167f2d6189480d1bb13da7c0ed0063fe94af3c19eed814940db43733c4198d00a7428560405161240891815260200190565b60405180910390a361241a8185612de1565b949350505050565b600061243563a5bfa9a960e01b33610c18565b610b718261298a565b600061245163a9059cbb60e01b33610c18565b600060485411801561246d575061246b335b604f90612a71565b155b156124825761247d338484613827565b610c2b565b610c2b3384846138ae565b60006001600160a01b037f00000000000000000000000000000000000000000000000000000000000000001630036124d75760405162461bcd60e51b8152600401610d9990614af9565b7f00000000000000000000000000000000000000000000000000000000000000006001600160a01b0316612509612b3c565b6001600160a01b03161461252f5760405162461bcd60e51b8152600401610d9990614b28565b60045460ff16156125525760405162461bcd60e51b8152600401610d9990614b56565b61256263d9dc1f1960e01b612e0c565b6125ae5760405162461bcd60e51b815260206004820152601760248201527f5365744c6f63616c41646d696e20466f7262696464656e0000000000000000006044820152606401610d99565b6001600160a01b0382166125f65760405162461bcd60e51b815260206004820152600f60248201526e1059191c995cdcc8125b9d985b1a59608a1b6044820152606401610d99565b6125ff82613974565b506001919050565b6000610eb98383612de1565b606061134c604d6135c3565b600061134c613729565b600061134c612b5d565b6000612646631f54aa5560e31b33610c18565b6000805b838110156126da5784848281811061266457612664614a65565b90506040020160200135826126799190614a91565b91506126c83386868481811061269157612691614a65565b6126a7926020604090920201908101915061444a565b8787858181106126b9576126b9614a65565b905060400201602001356138ae565b806126d281614aa9565b91505061264a565b5060405181815233907f6f8b319642e67cd1f14d773b5289e2e9bc1afce60945a4705b94c4c2ce0d347e90602001610e83565b600061272a633f6e4bb160e21b610c18604085016020860161444a565b610b718261360f565b90565b60006001600160e01b0319821663748be05360e01b148061276757506001600160e01b031982166352d1902d60e01b145b80610b7157506301ffc9a760e01b6001600160e01b0319831614610b71565b60045460ff16156127a95760405162461bcd60e51b8152600401610d9990614b56565b836127b381612e0c565b6127ef5760405162461bcd60e51b815260206004820152600d60248201526c1058d8d95cdcc811195b9a5959609a1b6044820152606401610d99565b821561284f57604954600160a01b900460ff161561284f5760405162461bcd60e51b815260206004820152601960248201527f455243323050617573653a2043616c6c2052656a6563746564000000000000006044820152606401610d99565b811561287d57612860604d85612a71565b1561287d5760405162461bcd60e51b8152600401610d9990614ac2565b5050505050565b6001600160a01b0383166128d25760405162461bcd60e51b8152602060048201526015602482015274496e76616c6964204f776e6572204164647265737360581b6044820152606401610d99565b6001600160a01b0382166129285760405162461bcd60e51b815260206004820152601760248201527f496e76616c6964205370656e64657220416464726573730000000000000000006044820152606401610d99565b6001600160a01b038381166000818152604b602090815260408083209487168084529482529182902085905590518481527f8c5be1e5ebec7d5bd14f71427d1e84f3dd0314c0f7b2291e5b200ac8c7c3b92591015b60405180910390a3505050565b60405163f7d6b5af60e01b8152604a600482015260248101829052600090819073a513E6E4b8f2a923D98304ec87F64353C4D5C8539063f7d6b5af90604401602060405180830381865af41580156129e6573d6000803e3d6000fd5b505050506040513d601f19601f82011682018060405250810190612a0a9190614d6c565b336000818152604c602090815260408083208884528252918290206002015491518481529394506001600160a01b039091169286917f2a0eb8ca138e1b0c7a85d2f8f43d0f3fe72c27b59c53365fdce897e3e6f3271891015b60405180910390a492915050565b6001600160a01b03811660009081526001830160205260408120541515610eb9565b604854600090339015801590612aaf5750612aad33612463565b155b15612ac457612abf858585613827565b612acf565b612acf8585856138ae565b612ada8582856137b6565b836001600160a01b0316856001600160a01b0316826001600160a01b03167f5f7542858008eeb041631f30e6109ae94b83a58e9a58261dd2c42c508850f93986604051612b2991815260200190565b60405180910390a4506001949350505050565b60006000805160206153348339815191525b546001600160a01b0316919050565b60007fb53127684a568b3173ae13b9f8a6016e243e63b6e8ee1178d6a717850b5d6103612b4e565b612b938686868686866139eb565b505050505050565b60006001600160a01b038316612bc35760405162461bcd60e51b8152600401610d9990614ce8565b8160476000828254612bd59190614a91565b90915550506001600160a01b0383166000908152604a602052604081208054849290612c02908490614a91565b90915550506047546040805184815260208101929092526001600160a01b0385169133917f2f00e3cdd69a77be7ed215ec7b2a36784dd158f921fca79ac29deffa353fe6ee910160405180910390a35060475492915050565b6001546002546003546040516397ca328d60e01b8152600481019390935260248301919091526044820152600090819073a513E6E4b8f2a923D98304ec87F64353C4D5C853906397ca328d90606401600060405180830381865af4158015612cc7573d6000803e3d6000fd5b505050506040513d6000823e601f3d908101601f19168201604052612cef9190810190614ef4565b6000546040516378efa4ed60e11b81529294509092506001600160a01b03169063f1df49da90612d29908790879087908790600401614fd9565b6020604051808303816000875af1158015612d48573d6000803e3d6000fd5b505050506040513d601f19601f82011682018060405250810190612d6c9190614d6c565b50612d75612b3c565b6001600160a01b031630336001600160a01b03167ff851a1e85477b818fc72ad517ea622cc316f10f67d61c9e740adc151a8b413948c8c8c8c8c612dbc60515461ffff1690565b604051612dce969594939291906150e5565b60405180910390a4505050505050505050565b6001600160a01b039182166000908152604b6020908152604080832093909416825291909152205490565b600080546001600160a01b03163003612ef85760006363d59cf360e11b612e32306135d0565b3385604051602401612e469392919061512a565b60408051601f198184030181529190526020810180516001600160e01b03166001600160e01b03199093169290921790915290506000612ec3612e87612b3c565b836040518060400160405280601d81526020017f44656c656761746563616c6c20686173416363657373204661696c6564000000815250613bf6565b90508060018251612ed49190614d55565b81518110612ee457612ee4614a65565b60209101015160f81c600114949350505050565b6000546001600160a01b031663c7ab39e6612f12306135d0565b33856040518463ffffffff1660e01b8152600401612f329392919061512a565b602060405180830381865afa158015612f4f573d6000803e3d6000fd5b505050506040513d601f19601f82011682018060405250810190610b719190615153565b60006001600160a01b038316336001600160a01b03167f85766eb39b0ac39ad7e8afbf36233d9adb1af81136bbea1f94cacd4b2e272c6984604051612fbc911515815260200190565b60405180910390a3604051634572e0c160e01b8152604a60048201526001600160a01b0384166024820152821515604482015273a513E6E4b8f2a923D98304ec87F64353C4D5C85390634572e0c190606401602060405180830381865af415801561302b573d6000803e3d6000fd5b505050506040513d601f19601f82011682018060405250810190610eb99190615153565b600080546001600160a01b0316300361311557600063e25d75f060e01b60035460405160240161308191815260200190565b60408051601f198184030181529190526020810180516001600160e01b03166001600160e01b031990931692909217909152905060006130e16130c2612b3c565b8360405180606001604052806025815260200161530f60259139613bf6565b905080600182516130f29190614d55565b8151811061310257613102614a65565b60209101015160f81c6001149392505050565b600054600354604051630e25d75f60e41b81526001600160a01b039092169163e25d75f09161314a9160040190815260200190565b602060405180830381865afa158015613167573d6000803e3d6000fd5b505050506040513d601f19601f8201168201806040525081019061134c9190615153565b6000610eb9836001600160a01b038416613cbf565b60008073a513E6E4b8f2a923D98304ec87F64353C4D5C8536310e1fc40604a856040518363ffffffff1660e01b81526004016131dd929190615170565b602060405180830381865af41580156131fa573d6000803e3d6000fd5b505050506040513d601f19601f8201168201806040525081019061321e9190614d6c565b905061322d602084018461444a565b6001600160a01b031633827f8c6c9f95afe4c944c9f81d2965f0a9a0c021ce66ac4020dd8b25953a971f9148613269604088016020890161444a565b604080516001600160a01b0390921682528089013560208301526060808a01359183019190915201612a63565b61329e612b3c565b6001600160a01b0316816001600160a01b0316036132fe5760405162461bcd60e51b815260206004820152601a60248201527f496c6c6567616c204e657720496d706c656d656e746174696f6e0000000000006044820152606401610d99565b61330e637147855d60e01b612e0c565b61335a5760405162461bcd60e51b815260206004820152601960248201527f5570677261646520436f6e7465787420466f7262696464656e000000000000006044820152606401610d99565b50565b60607f4910fdfa16fed3260ed0e7147f7cc6da11a60208b5b9406d12a635614ffd91435460ff16156133a75761339284613db2565b50604080516000815260208101909152610eb9565b836001600160a01b03166352d1902d6040518163ffffffff1660e01b8152600401602060405180830381865afa925050508015613401575060408051601f3d908101601f191682019092526133fe91810190614d6c565b60015b6134455760405162461bcd60e51b8152602060048201526015602482015274125b1b1959d85b0815555414c810dbdb9d1c9858dd605a1b6044820152606401610d99565b600080516020615334833981519152811461349a5760405162461bcd60e51b8152602060048201526015602482015274125b9d985b1a590815555414c810dbdb9d1c9858dd605a1b6044820152606401610d99565b506040516301ffc9a760e01b815263748be05360e01b60048201526001600160a01b038516906301ffc9a790602401602060405180830381865afa925050508015613502575060408051601f3d908101601f191682019092526134ff91810190615153565b60015b61354e5760405162461bcd60e51b815260206004820152601760248201527f496c6c6567616c204950726f787920436f6e74726163740000000000000000006044820152606401610d99565b8061359b5760405162461bcd60e51b815260206004820152601760248201527f496e76616c6964204950726f787920436f6e74726163740000000000000000006044820152606401610d99565b506135a7848484613e33565b9050610eb9565b6000610eb9836001600160a01b038416613e9d565b60606000610eb983613eec565b6040516bffffffffffffffffffffffff19606083901b166020820152600090603401604051602081830303815290604052805190602001209050919050565b600080600073a513E6E4b8f2a923D98304ec87F64353C4D5C85363f1c3afef604a866040518363ffffffff1660e01b815260040161364e9291906151c8565b6040805180830381865af415801561366a573d6000803e3d6000fd5b505050506040513d601f19601f8201168201806040525081019061368e919061524f565b90925090506136a3604085016020860161444a565b6001600160a01b03163385357f571ab3cb94eb114c4b41e4f4bbbe9625a6c546920db08ddea52bd3ec7cb5858685856136df60408b018b614b8d565b6040516136ef949392919061527d565b60405180910390a49392505050565b6001600160a01b0381166000908152604a602052604090206002018054600181018255905b50919050565b600154600254604080517f8b73c3c69bb8fe3d512ecc4cf759cc79239f7b179b0ffacaa9a75d522b39400f60208201529081019290925260608201524660808201523060a082015260009060c00160405160208183030381529060405280519060200120905090565b60008060006137a18585613f48565b915091506137ae81613fb6565b509392505050565b60006137c28484612de1565b9050818110156138145760405162461bcd60e51b815260206004820152601e60248201527f496e73756666696369656e74204163636f756e7420416c6c6f77616e636500006044820152606401610d99565b6138218484848403612884565b50505050565b600061383e6048548361416c90919063ffffffff16565b9050600061388c826040518060400160405280601c81526020017f496e73756666696369656e74205472616e7366657220416d6f756e7400000000815250856141849092919063ffffffff16565b6049549091506138a79086906001600160a01b0316846138ae565b61287d8585835b604051633de90db360e01b8152604a60048201526001600160a01b038085166024830152831660448201526064810182905273a513E6E4b8f2a923D98304ec87F64353C4D5C85390633de90db39060840160006040518083038186803b15801561391757600080fd5b505af415801561392b573d6000803e3d6000fd5b50505050816001600160a01b0316836001600160a01b03167fddf252ad1be2c89b69c2b068fc378daa952ba7f163c4a11628f55a4df523b3ef8360405161297d91815260200190565b7fb53127684a568b3173ae13b9f8a6016e243e63b6e8ee1178d6a717850b5d610380546001600160a01b0383166001600160a01b031990911681179091556040805191825251309133917f54ab0d18de7958786ba1ad85966d59baa2b395455f0530dcdcfd732e6af539e29181900360200190a350565b60515462010000900460ff16613a435760405162461bcd60e51b815260206004820152601960248201527f436f6e7472616374204e6f7420496e697469616c697a696e67000000000000006044820152606401610d99565b8585604051602001613a56929190614bd3565b60408051601f19818403018152908290528051602091820120600155613a80918691869101614bd3565b60408051601f19818403018152919052805160209091012060025560038290556001600160a01b038116613ac557600080546001600160a01b03191630179055613be2565b6040516301ffc9a760e01b81526301fe701d60e21b60048201526001600160a01b038216906301ffc9a790602401602060405180830381865afa925050508015613b2c575060408051601f3d908101601f19168201909252613b2991810190615153565b60015b613b785760405162461bcd60e51b815260206004820152601c60248201527f496c6c6567616c20416363657373436f6e74726f6c4d616e61676572000000006044820152606401610d99565b80613bc55760405162461bcd60e51b815260206004820152601c60248201527f496e76616c696420416363657373436f6e74726f6c4d616e61676572000000006044820152606401610d99565b50600080546001600160a01b0319166001600160a01b0383161790555b6004805461ffff19169055612b9333613974565b60606001600160a01b0384163b613c4a5760405162461bcd60e51b8152602060048201526018602482015277496c6c6567616c20436f6e7472616374204164647265737360401b6044820152606401610d99565b600080856001600160a01b031685604051613c6591906152a5565b600060405180830381855af49150503d8060008114613ca0576040519150601f19603f3d011682016040523d82523d6000602084013e613ca5565b606091505b5091509150613cb58282866141b0565b9695505050505050565b60008181526001830160205260408120548015613da8576000613ce3600183614d55565b8554909150600090613cf790600190614d55565b9050818114613d5c576000866000018281548110613d1757613d17614a65565b9060005260206000200154905080876000018481548110613d3a57613d3a614a65565b6000918252602080832090910192909255918252600188019052604090208390555b8554869080613d6d57613d6d6152b7565b600190038181906000526020600020016000905590558560010160008681526020019081526020016000206000905560019350505050610b71565b6000915050610b71565b6001600160a01b0381163b613e045760405162461bcd60e51b8152602060048201526018602482015277496c6c6567616c20436f6e7472616374204164647265737360401b6044820152606401610d99565b60008051602061533483398151915280546001600160a01b0319166001600160a01b0392909216919091179055565b6060613e3e846141e9565b600083511180613e4b5750815b15613e86576135a784846040518060400160405280601381526020017211195b1959d85d1958d85b1b0811985a5b1959606a1b815250613bf6565b505060408051600081526020810190915292915050565b6000818152600183016020526040812054613ee457508154600181810184556000848152602080822090930184905584548482528286019093526040902091909155610b71565b506000610b71565b606081600001805480602002602001604051908101604052809291908181526020018280548015613f3c57602002820191906000526020600020905b815481526020019060010190808311613f28575b50505050509050919050565b6000808251604103613f7e5760208301516040840151606085015160001a613f728782858561422d565b94509450505050613faf565b8251604003613fa75760208301516040840151613f9c86838361431a565b935093505050613faf565b506000905060025b9250929050565b6000816004811115613fca57613fca614d1f565b03613fd25750565b6001816004811115613fe657613fe6614d1f565b036140335760405162461bcd60e51b815260206004820152601860248201527f45434453413a20696e76616c6964207369676e617475726500000000000000006044820152606401610d99565b600281600481111561404757614047614d1f565b036140945760405162461bcd60e51b815260206004820152601f60248201527f45434453413a20696e76616c6964207369676e6174757265206c656e677468006044820152606401610d99565b60038160048111156140a8576140a8614d1f565b036141005760405162461bcd60e51b815260206004820152602260248201527f45434453413a20696e76616c6964207369676e6174757265202773272076616c604482015261756560f01b6064820152608401610d99565b600481600481111561411457614114614d1f565b0361335a5760405162461bcd60e51b815260206004820152602260248201527f45434453413a20696e76616c6964207369676e6174757265202776272076616c604482015261756560f01b6064820152608401610d99565b6000610eb961271061417e8585614353565b9061435f565b600081848411156141a85760405162461bcd60e51b8152600401610d9991906143f6565b505050900390565b606083156141bf575081610eb9565b8251156141cf5782518084602001fd5b8160405162461bcd60e51b8152600401610d9991906143f6565b6141f281613db2565b6040516001600160a01b03821690309033907f354bd4b6eb65d64e6c79c53fa4f983a5e6bec4824ce4627c71be0b2722f4917e90600090a450565b6000807f7fffffffffffffffffffffffffffffff5d576e7357a4501ddfe92f46681b20a08311156142645750600090506003614311565b8460ff16601b1415801561427c57508460ff16601c14155b1561428d5750600090506004614311565b6040805160008082526020820180845289905260ff881692820192909252606081018690526080810185905260019060a0016020604051602081039080840390855afa1580156142e1573d6000803e3d6000fd5b5050604051601f1901519150506001600160a01b03811661430a57600060019250925050614311565b9150600090505b94509492505050565b6000806001600160ff1b0383168161433760ff86901c601b614a91565b90506143458782888561422d565b935093505050935093915050565b6000610eb982846152cd565b6000610eb982846152ec565b6001600160e01b03198116811461335a57600080fd5b60006020828403121561439357600080fd5b8135610eb98161436b565b60005b838110156143b95781810151838201526020016143a1565b838111156138215750506000910152565b600081518084526143e281602086016020860161439e565b601f01601f19169290920160200192915050565b602081526000610eb960208301846143ca565b6001600160a01b038116811461335a57600080fd5b6000806040838503121561443157600080fd5b823561443c81614409565b946020939093013593505050565b60006020828403121561445c57600080fd5b8135610eb981614409565b60008083601f84011261447957600080fd5b5081356001600160401b0381111561449057600080fd5b6020830191508360208260051b8501011115613faf57600080fd5b600080602083850312156144be57600080fd5b82356001600160401b038111156144d457600080fd5b6144e085828601614467565b90969095509350505050565b6000602082840312156144fe57600080fd5b5035919050565b6000806020838503121561451857600080fd5b82356001600160401b038082111561452f57600080fd5b818501915085601f83011261454357600080fd5b81358181111561455257600080fd5b86602060608302850101111561456757600080fd5b60209290920196919550909350505050565b60008060006060848603121561458e57600080fd5b833561459981614409565b925060208401356145a981614409565b929592945050506040919091013590565b6000602082840312156145cc57600080fd5b81356001600160401b038111156145e257600080fd5b82016101208185031215610eb957600080fd5b801515811461335a57600080fd5b80356115ae816145f5565b60006020828403121561462057600080fd5b8135610eb9816145f5565b6000806040838503121561463e57600080fd5b823561464981614409565b91506020830135614659816145f5565b809150509250929050565b60006080828403121561372357600080fd5b634e487b7160e01b600052604160045260246000fd5b604051606081016001600160401b03811182821017156146ae576146ae614676565b60405290565b604051601f8201601f191681016001600160401b03811182821017156146dc576146dc614676565b604052919050565b6000806000606084860312156146f957600080fd5b833561470481614409565b92506020848101356001600160401b038082111561472157600080fd5b818701915087601f83011261473557600080fd5b81358181111561474757614747614676565b614759601f8201601f191685016146b4565b9150808252888482850101111561476f57600080fd5b808484018584013760008482840101525080945050505061479260408501614603565b90509250925092565b6020808252825182820181905260009190848201906040850190845b818110156147dc5783516001600160a01b0316835292840192918401916001016147b7565b50909695505050505050565b60008083601f8401126147fa57600080fd5b5081356001600160401b0381111561481157600080fd5b6020830191508360208260061b8501011115613faf57600080fd5b6000806020838503121561483f57600080fd5b82356001600160401b0381111561485557600080fd5b6144e0858286016147e8565b6000806040838503121561487457600080fd5b82359150602083013561465981614409565b6000806020838503121561489957600080fd5b82356001600160401b03808211156148b057600080fd5b818501915085601f8301126148c457600080fd5b8135818111156148d357600080fd5b8660208260071b850101111561456757600080fd5b6020808252825182820181905260009190848201906040850190845b818110156147dc57835183529284019291840191600101614904565b60008060008060008060a0878903121561493957600080fd5b863561494481614409565b9550602087013561495481614409565b9450604087013593506060870135925060808701356001600160401b038082111561497e57600080fd5b818901915089601f83011261499257600080fd5b8135818111156149a157600080fd5b8a60208285010111156149b357600080fd5b6020830194508093505050509295509295509295565b600080604083850312156149dc57600080fd5b82356149e781614409565b9150602083013561465981614409565b600060208284031215614a0957600080fd5b81356001600160401b03811115614a1f57600080fd5b820160608185031215610eb957600080fd5b600181811c90821680614a4557607f821691505b60208210810361372357634e487b7160e01b600052602260045260246000fd5b634e487b7160e01b600052603260045260246000fd5b634e487b7160e01b600052601160045260246000fd5b60008219821115614aa457614aa4614a7b565b500190565b600060018201614abb57614abb614a7b565b5060010190565b6020808252601d908201527f455243323050617573653a204163636f756e742053757370656e646564000000604082015260600190565b602080825260159082015274125b1b1959d85b0810dbdb9d1c9858dd0810d85b1b605a1b604082015260600190565b602080825260149082015273141c9bde1e4810d85b1b195908125b9d985b1a5960621b604082015260600190565b60208082526017908201527f536166654d6f64653a2043616c6c2052656a6563746564000000000000000000604082015260600190565b6000808335601e19843603018112614ba457600080fd5b8301803591506001600160401b03821115614bbe57600080fd5b602001915036819003821315613faf57600080fd5b8183823760009101908152919050565b601f821115611d3357600081815260208120601f850160051c81016020861015614c0a5750805b601f850160051c820191505b81811015612b9357828155600101614c16565b81516001600160401b03811115614c4257614c42614676565b614c5681614c508454614a31565b84614be3565b602080601f831160018114614c8b5760008415614c735750858301515b600019600386901b1c1916600185901b178555612b93565b600085815260208120601f198616915b82811015614cba57888601518255948401946001909101908401614c9b565b5085821015614cd85787850151600019600388901b60f8161c191681555b5050505050600190811b01905550565b60208082526017908201527f496e76616c6964204163636f756e742041646472657373000000000000000000604082015260600190565b634e487b7160e01b600052602160045260246000fd5b60008235605e19833603018112614d4b57600080fd5b9190910192915050565b600082821015614d6757614d67614a7b565b500390565b600060208284031215614d7e57600080fd5b5051919050565b80516115ae816145f5565b60006001600160401b03821115614da957614da9614676565b5060051b60200190565b600082601f830112614dc457600080fd5b81516020614dd9614dd483614d90565b6146b4565b82815260059290921b84018101918181019086841115614df857600080fd5b8286015b84811015614ee95780516001600160401b0380821115614e1c5760008081fd5b908801906060828b03601f1901811315614e365760008081fd5b614e3e61468c565b87840151815260408085015184811115614e585760008081fd5b85019350603f84018d13614e6c5760008081fd5b88840151614e7c614dd482614d90565b81815260059190911b85018201908a8101908f831115614e9c5760008081fd5b958301955b82871015614ec3578651614eb48161436b565b8252958b0195908b0190614ea1565b848c015250614ed59050858401614d85565b908201528652505050918301918301614dfc565b509695505050505050565b60008082840360c0811215614f0857600080fd5b60a0811215614f1657600080fd5b5060405160a081016001600160401b038282108183111715614f3a57614f3a614676565b8160405285518352602086015160208401526040860151604084015260608601519150614f6682614409565b81606084015260808601519150614f7c826145f5565b6080830182905260a086015192945080831115614f9857600080fd5b5050614fa685828601614db3565b9150509250929050565b81835281816020850137506000828201602090810191909152601f909101601f19169091010190565b60e081526000614fed60e083018688614fb0565b6020855181850152808601516040818187015280880151915060608281880152808901519250608060018060a01b03841681890152808a0151151560a089015287860360c089015285935088518087528587019450858160051b880101868b016000805b848110156150d0578a8403601f190189528251805185528a8101518b86018990528051898701819052908c01908490898801905b808310156150af5783516001600160e01b0319168252928e019260019290920191908e0190615085565b50928b01511515968b019690965250988a0198935091890191600101615051565b50919f9e505050505050505050505050505050565b6080815260006150f960808301888a614fb0565b828103602084015261510c818789614fb0565b91505083604083015261ffff83166060830152979650505050505050565b9283526001600160a01b039190911660208301526001600160e01b031916604082015260600190565b60006020828403121561516557600080fd5b8151610eb9816145f5565b82815260a08101823561518281614409565b6001600160a01b03908116602084810191909152840135906151a382614409565b8082166040850152505060408301356060830152606083013560808301529392505050565b8281526040602082015281356040820152600060208301356151e981614409565b6001600160a01b03166060830152604083013536849003601e1901811261520f57600080fd5b83016020810190356001600160401b0381111561522b57600080fd5b80360382131561523a57600080fd5b60606080850152613cb560a085018284614fb0565b6000806040838503121561526257600080fd5b825161526d81614409565b6020939093015192949293505050565b60018060a01b0385168152836020820152606060408201526000613cb5606083018486614fb0565b60008251614d4b81846020870161439e565b634e487b7160e01b600052603160045260246000fd5b60008160001904831182151516156152e7576152e7614a7b565b500290565b60008261530957634e487b7160e01b600052601260045260246000fd5b50049056fe44656c656761746563616c6c2069735265616c6d55706772616461626c65204661696c6564360894a13ba1a3210667c828492db98dca3e2076cc3735a920a3ca505d382bbca2646970667358221220d9c76295704d0a4d2d0e45f0c636a72e2c2816230388b66d617c81dacb60372464736f6c634300080f0033b53127684a568b3173ae13b9f8a6016e243e63b6e8ee1178d6a717850b5d6103",
  "deployedBytecode": "0x60806040526004361061036b5760003560e01c8063756af45f116101c4578063a0a8e460116100f6578063d3e024b81161009a578063f698da251161006c578063f698da2514610a92578063f94a0adb14610aa7578063faa552a814610abc578063fdb92ec414610adc57005b8063d3e024b814610a28578063d9dc1f1914610a3d578063dd62ed3e14610a5d578063de843a9414610a7d57005b8063a5bfa9a9116100d3578063a5bfa9a9146109b2578063a9059cbb146109d2578063b4a0bdf3146109f2578063be22465d14610a1057005b8063a0a8e4601461095e578063a0e6adf114610973578063a457c2d71461099257005b80638a2ddd03116101685780639a7e18731161013a5780639a7e1873146108d15780639b5f356e146108fe5780639dc29fac1461091e5780639fd5a6cf1461093e57005b80638a2ddd03146108295780638a92ab151461083e5780638bfc07ed1461085c57806395d89b41146108bc57005b8063771a3a1d116101a1578063771a3a1d146107bd5780637bf60ff4146107d25780637d35f355146107f4578063870666cb1461081457005b8063756af45f1461076857806375d0c0dc1461078857806376a67a511461079d57005b806344b7e5f21161029d57806358dbc45d116102415780636b839492116102135780636b839492146106d257806370a08231146106f257806370ae92d2146107285780637147855d1461074857005b806358dbc45d14610652578063595c6a671461067f5780635b14f1831461069457806360fefdec146106b457005b80634b0ee02a1161027a5780634b0ee02a146105e057806352d1902d146106005780635479d9401461061557806357b001f91461063257005b806344b7e5f21461058057806346a634d4146105a057806348e6be1c146105c057005b80631c6928e81161030f57806337674a2b116102e157806337674a2b146104f857806338d38c9714610518578063395093511461054057806340c10f191461056057005b80631c6928e81461048757806323b872dd146104a7578063313ce567146104c757806334273637146104e357005b806310e776ed1161034857806310e776ed146103eb5780631455a1c81461043257806317fdcc8e1461045257806318160ddd1461047257005b806301ffc9a71461037457806306fdde03146103a9578063095ea7b3146103cb57005b3661037257005b005b34801561038057600080fd5b5061039461038f366004614381565b610afc565b60405190151581526020015b60405180910390f35b3480156103b557600080fd5b506103be610b77565b6040516103a091906143f6565b3480156103d757600080fd5b506103946103e636600461441e565b610c09565b3480156103f757600080fd5b5061042461040636600461444a565b6001600160a01b03166000908152604a602052604090206001015490565b6040519081526020016103a0565b34801561043e57600080fd5b5061042461044d3660046144ab565b610c34565b34801561045e57600080fd5b5061039461046d3660046144ec565b610cd0565b34801561047e57600080fd5b50604754610424565b34801561049357600080fd5b506103946104a2366004614505565b610d27565b3480156104b357600080fd5b506103946104c2366004614579565b610e95565b3480156104d357600080fd5b50604051601281526020016103a0565b3480156104ef57600080fd5b50610394610ec0565b34801561050457600080fd5b506103726105133660046145ba565b61103c565b34801561052457600080fd5b5061052d61133d565b60405161ffff90911681526020016103a0565b34801561054c57600080fd5b5061042461055b36600461441e565b611351565b34801561056c57600080fd5b5061042461057b36600461441e565b6113de565b34801561058c57600080fd5b5061039461059b36600461460e565b6113fe565b3480156105ac57600080fd5b506103946105bb36600461462b565b6115b3565b3480156105cc57600080fd5b506103946105db36600461460e565b6115d2565b3480156105ec57600080fd5b506104246105fb36600461444a565b61179b565b34801561060c57600080fd5b506104246117c5565b34801561062157600080fd5b50600454610100900460ff16610394565b34801561063e57600080fd5b5061037261064d36600461444a565b611852565b34801561065e57600080fd5b5061066761191c565b6040516001600160a01b0390911681526020016103a0565b34801561068b57600080fd5b50610372611926565b3480156106a057600080fd5b506103946106af36600461444a565b61198b565b3480156106c057600080fd5b5060515462010000900460ff16610394565b3480156106de57600080fd5b506104246106ed366004614664565b6119ab565b3480156106fe57600080fd5b5061042461070d36600461444a565b6001600160a01b03166000908152604a602052604090205490565b34801561073457600080fd5b5061042461074336600461444a565b6119ce565b34801561075457600080fd5b506103be6107633660046146e4565b6119ef565b34801561077457600080fd5b5061037261078336600461444a565b611b17565b34801561079457600080fd5b50600154610424565b3480156107a957600080fd5b506103726107b836600461444a565b611bcb565b3480156107c957600080fd5b50604854610424565b3480156107de57600080fd5b506107e7611c9b565b6040516103a0919061479b565b34801561080057600080fd5b5061037261080f36600461482c565b611ca7565b34801561082057600080fd5b50610424611d38565b34801561083557600080fd5b50610372611d43565b34801561084a57600080fd5b506049546001600160a01b0316610667565b34801561086857600080fd5b5061087c610877366004614861565b611d91565b604080519586526001600160801b03948516602087015292909316918401919091526001600160a01b0316606083015260ff16608082015260a0016103a0565b3480156108c857600080fd5b506103be611e16565b3480156108dd57600080fd5b506108f16108ec366004614886565b611e25565b6040516103a091906148e8565b34801561090a57600080fd5b506104246109193660046144ab565b611f8d565b34801561092a57600080fd5b5061042461093936600461441e565b612081565b34801561094a57600080fd5b50610394610959366004614920565b6121af565b34801561096a57600080fd5b50600254610424565b34801561097f57600080fd5b50604954600160a01b900460ff16610394565b34801561099e57600080fd5b506104246109ad36600461441e565b6123a4565b3480156109be57600080fd5b506104246109cd3660046144ec565b612422565b3480156109de57600080fd5b506103946109ed36600461441e565b61243e565b3480156109fe57600080fd5b506000546001600160a01b0316610667565b348015610a1c57600080fd5b5060045460ff16610394565b348015610a3457600080fd5b50600354610424565b348015610a4957600080fd5b50610394610a5836600461444a565b61248d565b348015610a6957600080fd5b50610424610a783660046149c9565b612607565b348015610a8957600080fd5b506107e7612613565b348015610a9e57600080fd5b5061042461261f565b348015610ab357600080fd5b50610667612629565b348015610ac857600080fd5b50610394610ad736600461482c565b612633565b348015610ae857600080fd5b50610424610af73660046149f7565b61270d565b60006001600160e01b03198216634a17459160e11b1480610b2d57506001600160e01b0319821663e3a31a9d60e01b145b80610b4857506001600160e01b03198216636b88d51560e11b145b80610b6257506001600160e01b03198216627b720760e91b145b80610b715750610b7182612736565b92915050565b606060458054610b8690614a31565b80601f0160208091040260200160405190810160405280929190818152602001828054610bb290614a31565b8015610bff5780601f10610bd457610100808354040283529160200191610bff565b820191906000526020600020905b815481529060010190602001808311610be257829003601f168201915b5050505050905090565b6000610c2063095ea7b360e01b335b600180612786565b610c2b338484612884565b50600192915050565b6000610c4763028ab43960e31b33610c18565b6000805b83811015610c9257610c74858583818110610c6857610c68614a65565b9050602002013561298a565b610c7e9083614a91565b915080610c8a81614aa9565b915050610c4b565b5060405181815233907ff816ce3b3a52bd5c96a6ac9d4404d206f4e9d482ffa303afbf0dbeea2957f59a906020015b60405180910390a29392505050565b6000610ce5630bfee64760e11b828080612786565b604882905560405182815233907fb7902185ac0a79231c8be85f0ee0d94806d95d785d216824a078279f5d5bfbae9060200160405180910390a2506001919050565b6000610d3d63038d251d60e31b82600181612786565b6000805b83811015610e5457610d7c858583818110610d5e57610d5e614a65565b610d74926020606090920201908101915061444a565b604d90612a71565b15610da25760405162461bcd60e51b8152600401610d9990614ac2565b60405180910390fd5b848482818110610db457610db4614a65565b9050606002016040013582610dc99190614a91565b9150610e41858583818110610de057610de0614a65565b610df6926020606090920201908101915061444a565b868684818110610e0857610e08614a65565b9050606002016020016020810190610e20919061444a565b878785818110610e3257610e32614a65565b90506060020160400135612a93565b5080610e4c81614aa9565b915050610d41565b5060405181815233907f208fdf04989d654cc491d69be8eb64992c7b7407e34a6ac73e7c0361d0591eff906020015b60405180910390a25060019392505050565b6000610eab6323b872dd60e01b85600180612786565b610eb6848484612a93565b90505b9392505050565b60006001600160a01b037f0000000000000000000000000000000000000000000000000000000000000000163003610f0a5760405162461bcd60e51b8152600401610d9990614af9565b7f00000000000000000000000000000000000000000000000000000000000000006001600160a01b0316610f3c612b3c565b6001600160a01b031614610f625760405162461bcd60e51b8152600401610d9990614b28565b33610f6b612b5d565b6001600160a01b031614610fb95760405162461bcd60e51b815260206004820152601560248201527410d85b1b195c88139bdd08105d5d1a1bdc9a5e9959605a1b6044820152606401610d99565b60045460ff1615610fdc5760405162461bcd60e51b8152600401610d9990614b56565b60515461ffff1661ffff166001146110365760405162461bcd60e51b815260206004820152601960248201527f546f6b656e20416c7265616479204469737472696275746564000000000000006044820152606401610d99565b50600190565b6001600160a01b037f00000000000000000000000000000000000000000000000000000000000000001630036110845760405162461bcd60e51b8152600401610d9990614af9565b7f00000000000000000000000000000000000000000000000000000000000000006001600160a01b03166110b6612b3c565b6001600160a01b0316146110dc5760405162461bcd60e51b8152600401610d9990614b28565b336110e5612b5d565b6001600160a01b0316146111335760405162461bcd60e51b815260206004820152601560248201527410d85b1b195c88139bdd08105d5d1a1bdc9a5e9959605a1b6044820152606401610d99565b60515462010000900460ff16158080156111555750605154600161ffff909116105b806111705750303b158015611170575060515461ffff166001145b6111bc5760405162461bcd60e51b815260206004820152601c60248201527f436f6e747261637420416c726561647920496e697469616c697a6564000000006044820152606401610d99565b6051805461ffff1916600117905580156111e2576051805462ff00001916620100001790555b60006111f16040840184614b8d565b604051602001611202929190614bd3565b60408051601f198184030181529190528051602090910120905061124c6112298480614b8d565b6112366020870187614b8d565b8561124760e08a0160c08b0161444a565b612b85565b6040805180820190915260068152654c4956454c5960d01b60208201526045906112769082614c29565b5060408051808201909152600381526213159360ea1b602082015260469061129e9082614c29565b5060808301356048556112b8610100840160e0850161444a565b604980546001600160a01b0319166001600160a01b03929092169190911790556112f76112ed6101208501610100860161444a565b8460a00135612b9b565b506113256113058480614b8d565b6113126020870187614b8d565b8561132060608a018a614b8d565b612c5b565b508015611339576051805462ff0000191690555b5050565b600061134c60515461ffff1690565b905090565b6000611364633950935160e01b33610c18565b336000836113728387612de1565b61137c9190614a91565b9050611389828683612884565b846001600160a01b0316826001600160a01b03167f865ea570c20f0fe0ae579ec567fa79d57a683390554593dc070ea0dcd5f466fb866040516113ce91815260200190565b60405180910390a3949350505050565b60006113f46340c10f1960e01b84600180612786565b610eb98383612b9b565b60006001600160a01b037f00000000000000000000000000000000000000000000000000000000000000001630036114485760405162461bcd60e51b8152600401610d9990614af9565b7f00000000000000000000000000000000000000000000000000000000000000006001600160a01b031661147a612b3c565b6001600160a01b0316146114a05760405162461bcd60e51b8152600401610d9990614b28565b60006114af60515461ffff1690565b61ffff16116115005760405162461bcd60e51b815260206004820152601860248201527f436f6e7472616374204e6f7420496e697469616c697a656400000000000000006044820152606401610d99565b61151063225bf2f960e11b612e0c565b6115545760405162461bcd60e51b815260206004820152601560248201527429b2ba29b0b332a6b7b232902337b93134b23232b760591b6044820152606401610d99565b6004805460ff191683151517905560035430336001600160a01b03167fdd452a31d2e164a1ea436c084842c27d24ae2548a575a869f71b05a4ed16243f856040516115a3911515815260200190565b60405180910390a450805b919050565b60006115c86311a98d3560e21b828080612786565b610eb98383612f73565b60006001600160a01b037f000000000000000000000000000000000000000000000000000000000000000016300361161c5760405162461bcd60e51b8152600401610d9990614af9565b7f00000000000000000000000000000000000000000000000000000000000000006001600160a01b031661164e612b3c565b6001600160a01b0316146116745760405162461bcd60e51b8152600401610d9990614b28565b60045460ff16156116975760405162461bcd60e51b8152600401610d9990614b56565b6116a7631239af8760e21b612e0c565b6116f35760405162461bcd60e51b815260206004820152601a60248201527f5365745570677261646553746174757320466f7262696464656e0000000000006044820152606401610d99565b6116fb61304f565b6117475760405162461bcd60e51b815260206004820152601760248201527f5265616c6d205570677261646520466f7262696464656e0000000000000000006044820152606401610d99565b6004805461ff0019166101008415150217905560035430336001600160a01b03167fe9f97ad94c2ba252dcfc525e004f608ac5cb886955d8fc87d9e0ee070a698c56856040516115a3911515815260200190565b6001600160a01b0381166000908152604a602052604081208054600190910154610b719190614a91565b6000306001600160a01b037f0000000000000000000000000000000000000000000000000000000000000000161461183f5760405162461bcd60e51b815260206004820152601d60248201527f496c6c6567616c20436f6e74726163742044656c656761746563616c6c0000006044820152606401610d99565b5060008051602061533483398151915290565b6118666357b001f960e01b60008080612786565b6001600160a01b03811661188c5760405162461bcd60e51b8152600401610d9990614ce8565b611897604d82612a71565b6118d75760405162461bcd60e51b81526020600482015260116024820152701058d8dbdd5b9d08139bdd08119bdd5b99607a1b6044820152606401610d99565b6118e2604d8261318b565b506040516001600160a01b0382169033907f3d072963433794eb417a69355df67d08bbd73d5076ef653d6863861161d60af390600090a350565b600061134c612b3c565b61193a63595c6a6760e01b60008080612786565b6049805460ff60a01b1916600160a01b1790556119543390565b6001600160a01b03167ff1005168aea1429fe9559d51ef6caa33e6426890864e2e6e41e5d54baa7be79f60405160405180910390a2565b60006001600160a01b03821615801590610b715750610b71604d83612a71565b60006119c56335c1ca4960e11b610c18602085018561444a565b610b71826131a0565b6001600160a01b0381166000908152604a6020526040812060020154610b71565b60606001600160a01b037f0000000000000000000000000000000000000000000000000000000000000000163003611a395760405162461bcd60e51b8152600401610d9990614af9565b7f00000000000000000000000000000000000000000000000000000000000000006001600160a01b0316611a6b612b3c565b6001600160a01b031614611a915760405162461bcd60e51b8152600401610d9990614b28565b60045460ff1615611ab45760405162461bcd60e51b8152600401610d9990614b56565b600454610100900460ff16611b035760405162461bcd60e51b8152602060048201526015602482015274155c19dc9859194810d85b1b0814995a9958dd1959605a1b6044820152606401610d99565b611b0c84613296565b610eb684848461335d565b60045460ff1615611b3a5760405162461bcd60e51b8152600401610d9990614b56565b611b4a63756af45f60e01b612e0c565b611b965760405162461bcd60e51b815260206004820152601a60248201527f57697468647261772042616c616e636520466f7262696464656e0000000000006044820152606401610d99565b6040516001600160a01b038216904780156108fc02916000818181858888f19350505050158015611339573d6000803e3d6000fd5b611bdf6376a67a5160e01b60008080612786565b6001600160a01b038116611c055760405162461bcd60e51b8152600401610d9990614ce8565b611c10604d82612a71565b15611c565760405162461bcd60e51b81526020600482015260166024820152751058d8dbdd5b9d08105b1c9958591e4814185d5cd95960521b6044820152606401610d99565b611c61604d826135ae565b506040516001600160a01b0382169033907f3dd4f37ca5eaf6c357698a52c806820426d7c9a26adb0991c3bebb09cf23352a90600090a350565b606061134c604f6135c3565b611cbb637d35f35560e01b60008080612786565b60005b81811015611d3357611d20838383818110611cdb57611cdb614a65565b611cf1926020604090920201908101915061444a565b848484818110611d0357611d03614a65565b9050604002016020016020810190611d1b919061460e565b612f73565b5080611d2b81614aa9565b915050611cbe565b505050565b600061134c306135d0565b611d57638a2ddd0360e01b60008080612786565b6049805460ff60a01b1916905560405133907f3c1fb1fd79ee84e55a8fe78554c432ef36ea033a9245ce4b650bd824a12554d390600090a2565b6001600160a01b038181166000908152604c60209081526040808320868452909152812080546001820154600283015493948594859485948594919390926001600160801b0380841693600160801b90041691811690600160a01b900460ff166003811115611e0257611e02614d1f565b939c929b5090995097509095509350505050565b606060468054610b8690614a31565b6060611e3c639a7e187360e01b6000600181612786565b600080836001600160401b03811115611e5757611e57614676565b604051908082528060200260200182016040528015611e80578160200160208202803683370190505b50905060005b84811015611f4f57611eb9868683818110611ea357611ea3614a65565b610d74926020608090920201908101915061444a565b15611ed65760405162461bcd60e51b8152600401610d9990614ac2565b611ef6868683818110611eeb57611eeb614a65565b9050608002016131a0565b828281518110611f0857611f08614a65565b602002602001018181525050858582818110611f2657611f26614a65565b9050608002016060013583611f3b9190614a91565b925080611f4781614aa9565b915050611e86565b5060405182815233907f8e04d4df873aa900cbe3c4b51af80c003e2a72b8dfd36a6a2e54fdadbf4d11279060200160405180910390a2949350505050565b6000611fa3634daf9ab760e11b82600181612786565b6000805b8381101561204e57611fe7858583818110611fc457611fc4614a65565b9050602002810190611fd69190614d35565b610d7490604081019060200161444a565b156120045760405162461bcd60e51b8152600401610d9990614ac2565b61203085858381811061201957612019614a65565b905060200281019061202b9190614d35565b61360f565b61203a9083614a91565b91508061204681614aa9565b915050611fa7565b5060405181815233907f358ca32fb65dbe46a9aec67304b927cf0c3eaf896217f853f9a93fef2e92072390602001610cc1565b6000612097632770a7eb60e21b84600180612786565b6001600160a01b0383166120bd5760405162461bcd60e51b8152600401610d9990614ce8565b6001600160a01b0383166000908152604a6020526040902054828110156121265760405162461bcd60e51b815260206004820152601c60248201527f496e73756666696369656e74204163636f756e742042616c616e6365000000006044820152606401610d99565b6001600160a01b0384166000908152604a60205260408120848303905560478054859290612155908490614d55565b90915550506047546040805185815260208101929092526001600160a01b0386169133917f5d624aa9c148153ab3446c1b154f660ee7701e549fe9b62dab7171b1c80e6fa2910160405180910390a3505060475492915050565b60006121c5639fd5a6cf60e01b88600180612786565b834211156122155760405162461bcd60e51b815260206004820152601760248201527f5065726d697420446561646c696e6520457870697265640000000000000000006044820152606401610d99565b60007f6e71edae12b1b97f4d1f60370fef10105fa2faae0126114a169c64845d6126c98888886122448c6136fe565b6040805160208101969096526001600160a01b0394851690860152929091166060840152608083015260a082015260c0810186905260e00160405160208183030381529060405280519060200120905060006122e26122a1613729565b8360405161190160f01b6020820152602281018390526042810182905260009060620160405160208183030381529060405280519060200120905092915050565b905060006123268287878080601f01602080910402602001604051908101604052809392919081815260200183838082843760009201919091525061379292505050565b9050896001600160a01b0316816001600160a01b0316146123895760405162461bcd60e51b815260206004820152601860248201527f496c6c6567616c20454344415341205369676e617475726500000000000000006044820152606401610d99565b6123948a8a8a612884565b5060019998505050505050505050565b60006123b763a457c2d760e01b33610c18565b336123c38185856137b6565b836001600160a01b0316816001600160a01b03167f2d6189480d1bb13da7c0ed0063fe94af3c19eed814940db43733c4198d00a7428560405161240891815260200190565b60405180910390a361241a8185612de1565b949350505050565b600061243563a5bfa9a960e01b33610c18565b610b718261298a565b600061245163a9059cbb60e01b33610c18565b600060485411801561246d575061246b335b604f90612a71565b155b156124825761247d338484613827565b610c2b565b610c2b3384846138ae565b60006001600160a01b037f00000000000000000000000000000000000000000000000000000000000000001630036124d75760405162461bcd60e51b8152600401610d9990614af9565b7f00000000000000000000000000000000000000000000000000000000000000006001600160a01b0316612509612b3c565b6001600160a01b03161461252f5760405162461bcd60e51b8152600401610d9990614b28565b60045460ff16156125525760405162461bcd60e51b8152600401610d9990614b56565b61256263d9dc1f1960e01b612e0c565b6125ae5760405162461bcd60e51b815260206004820152601760248201527f5365744c6f63616c41646d696e20466f7262696464656e0000000000000000006044820152606401610d99565b6001600160a01b0382166125f65760405162461bcd60e51b815260206004820152600f60248201526e1059191c995cdcc8125b9d985b1a59608a1b6044820152606401610d99565b6125ff82613974565b506001919050565b6000610eb98383612de1565b606061134c604d6135c3565b600061134c613729565b600061134c612b5d565b6000612646631f54aa5560e31b33610c18565b6000805b838110156126da5784848281811061266457612664614a65565b90506040020160200135826126799190614a91565b91506126c83386868481811061269157612691614a65565b6126a7926020604090920201908101915061444a565b8787858181106126b9576126b9614a65565b905060400201602001356138ae565b806126d281614aa9565b91505061264a565b5060405181815233907f6f8b319642e67cd1f14d773b5289e2e9bc1afce60945a4705b94c4c2ce0d347e90602001610e83565b600061272a633f6e4bb160e21b610c18604085016020860161444a565b610b718261360f565b90565b60006001600160e01b0319821663748be05360e01b148061276757506001600160e01b031982166352d1902d60e01b145b80610b7157506301ffc9a760e01b6001600160e01b0319831614610b71565b60045460ff16156127a95760405162461bcd60e51b8152600401610d9990614b56565b836127b381612e0c565b6127ef5760405162461bcd60e51b815260206004820152600d60248201526c1058d8d95cdcc811195b9a5959609a1b6044820152606401610d99565b821561284f57604954600160a01b900460ff161561284f5760405162461bcd60e51b815260206004820152601960248201527f455243323050617573653a2043616c6c2052656a6563746564000000000000006044820152606401610d99565b811561287d57612860604d85612a71565b1561287d5760405162461bcd60e51b8152600401610d9990614ac2565b5050505050565b6001600160a01b0383166128d25760405162461bcd60e51b8152602060048201526015602482015274496e76616c6964204f776e6572204164647265737360581b6044820152606401610d99565b6001600160a01b0382166129285760405162461bcd60e51b815260206004820152601760248201527f496e76616c6964205370656e64657220416464726573730000000000000000006044820152606401610d99565b6001600160a01b038381166000818152604b602090815260408083209487168084529482529182902085905590518481527f8c5be1e5ebec7d5bd14f71427d1e84f3dd0314c0f7b2291e5b200ac8c7c3b92591015b60405180910390a3505050565b60405163f7d6b5af60e01b8152604a600482015260248101829052600090819073__$02a10a5b613955ebe0b1689ca5d6d93e29$__9063f7d6b5af90604401602060405180830381865af41580156129e6573d6000803e3d6000fd5b505050506040513d601f19601f82011682018060405250810190612a0a9190614d6c565b336000818152604c602090815260408083208884528252918290206002015491518481529394506001600160a01b039091169286917f2a0eb8ca138e1b0c7a85d2f8f43d0f3fe72c27b59c53365fdce897e3e6f3271891015b60405180910390a492915050565b6001600160a01b03811660009081526001830160205260408120541515610eb9565b604854600090339015801590612aaf5750612aad33612463565b155b15612ac457612abf858585613827565b612acf565b612acf8585856138ae565b612ada8582856137b6565b836001600160a01b0316856001600160a01b0316826001600160a01b03167f5f7542858008eeb041631f30e6109ae94b83a58e9a58261dd2c42c508850f93986604051612b2991815260200190565b60405180910390a4506001949350505050565b60006000805160206153348339815191525b546001600160a01b0316919050565b60007fb53127684a568b3173ae13b9f8a6016e243e63b6e8ee1178d6a717850b5d6103612b4e565b612b938686868686866139eb565b505050505050565b60006001600160a01b038316612bc35760405162461bcd60e51b8152600401610d9990614ce8565b8160476000828254612bd59190614a91565b90915550506001600160a01b0383166000908152604a602052604081208054849290612c02908490614a91565b90915550506047546040805184815260208101929092526001600160a01b0385169133917f2f00e3cdd69a77be7ed215ec7b2a36784dd158f921fca79ac29deffa353fe6ee910160405180910390a35060475492915050565b6001546002546003546040516397ca328d60e01b8152600481019390935260248301919091526044820152600090819073__$02a10a5b613955ebe0b1689ca5d6d93e29$__906397ca328d90606401600060405180830381865af4158015612cc7573d6000803e3d6000fd5b505050506040513d6000823e601f3d908101601f19168201604052612cef9190810190614ef4565b6000546040516378efa4ed60e11b81529294509092506001600160a01b03169063f1df49da90612d29908790879087908790600401614fd9565b6020604051808303816000875af1158015612d48573d6000803e3d6000fd5b505050506040513d601f19601f82011682018060405250810190612d6c9190614d6c565b50612d75612b3c565b6001600160a01b031630336001600160a01b03167ff851a1e85477b818fc72ad517ea622cc316f10f67d61c9e740adc151a8b413948c8c8c8c8c612dbc60515461ffff1690565b604051612dce969594939291906150e5565b60405180910390a4505050505050505050565b6001600160a01b039182166000908152604b6020908152604080832093909416825291909152205490565b600080546001600160a01b03163003612ef85760006363d59cf360e11b612e32306135d0565b3385604051602401612e469392919061512a565b60408051601f198184030181529190526020810180516001600160e01b03166001600160e01b03199093169290921790915290506000612ec3612e87612b3c565b836040518060400160405280601d81526020017f44656c656761746563616c6c20686173416363657373204661696c6564000000815250613bf6565b90508060018251612ed49190614d55565b81518110612ee457612ee4614a65565b60209101015160f81c600114949350505050565b6000546001600160a01b031663c7ab39e6612f12306135d0565b33856040518463ffffffff1660e01b8152600401612f329392919061512a565b602060405180830381865afa158015612f4f573d6000803e3d6000fd5b505050506040513d601f19601f82011682018060405250810190610b719190615153565b60006001600160a01b038316336001600160a01b03167f85766eb39b0ac39ad7e8afbf36233d9adb1af81136bbea1f94cacd4b2e272c6984604051612fbc911515815260200190565b60405180910390a3604051634572e0c160e01b8152604a60048201526001600160a01b0384166024820152821515604482015273__$02a10a5b613955ebe0b1689ca5d6d93e29$__90634572e0c190606401602060405180830381865af415801561302b573d6000803e3d6000fd5b505050506040513d601f19601f82011682018060405250810190610eb99190615153565b600080546001600160a01b0316300361311557600063e25d75f060e01b60035460405160240161308191815260200190565b60408051601f198184030181529190526020810180516001600160e01b03166001600160e01b031990931692909217909152905060006130e16130c2612b3c565b8360405180606001604052806025815260200161530f60259139613bf6565b905080600182516130f29190614d55565b8151811061310257613102614a65565b60209101015160f81c6001149392505050565b600054600354604051630e25d75f60e41b81526001600160a01b039092169163e25d75f09161314a9160040190815260200190565b602060405180830381865afa158015613167573d6000803e3d6000fd5b505050506040513d601f19601f8201168201806040525081019061134c9190615153565b6000610eb9836001600160a01b038416613cbf565b60008073__$02a10a5b613955ebe0b1689ca5d6d93e29$__6310e1fc40604a856040518363ffffffff1660e01b81526004016131dd929190615170565b602060405180830381865af41580156131fa573d6000803e3d6000fd5b505050506040513d601f19601f8201168201806040525081019061321e9190614d6c565b905061322d602084018461444a565b6001600160a01b031633827f8c6c9f95afe4c944c9f81d2965f0a9a0c021ce66ac4020dd8b25953a971f9148613269604088016020890161444a565b604080516001600160a01b0390921682528089013560208301526060808a01359183019190915201612a63565b61329e612b3c565b6001600160a01b0316816001600160a01b0316036132fe5760405162461bcd60e51b815260206004820152601a60248201527f496c6c6567616c204e657720496d706c656d656e746174696f6e0000000000006044820152606401610d99565b61330e637147855d60e01b612e0c565b61335a5760405162461bcd60e51b815260206004820152601960248201527f5570677261646520436f6e7465787420466f7262696464656e000000000000006044820152606401610d99565b50565b60607f4910fdfa16fed3260ed0e7147f7cc6da11a60208b5b9406d12a635614ffd91435460ff16156133a75761339284613db2565b50604080516000815260208101909152610eb9565b836001600160a01b03166352d1902d6040518163ffffffff1660e01b8152600401602060405180830381865afa925050508015613401575060408051601f3d908101601f191682019092526133fe91810190614d6c565b60015b6134455760405162461bcd60e51b8152602060048201526015602482015274125b1b1959d85b0815555414c810dbdb9d1c9858dd605a1b6044820152606401610d99565b600080516020615334833981519152811461349a5760405162461bcd60e51b8152602060048201526015602482015274125b9d985b1a590815555414c810dbdb9d1c9858dd605a1b6044820152606401610d99565b506040516301ffc9a760e01b815263748be05360e01b60048201526001600160a01b038516906301ffc9a790602401602060405180830381865afa925050508015613502575060408051601f3d908101601f191682019092526134ff91810190615153565b60015b61354e5760405162461bcd60e51b815260206004820152601760248201527f496c6c6567616c204950726f787920436f6e74726163740000000000000000006044820152606401610d99565b8061359b5760405162461bcd60e51b815260206004820152601760248201527f496e76616c6964204950726f787920436f6e74726163740000000000000000006044820152606401610d99565b506135a7848484613e33565b9050610eb9565b6000610eb9836001600160a01b038416613e9d565b60606000610eb983613eec565b6040516bffffffffffffffffffffffff19606083901b166020820152600090603401604051602081830303815290604052805190602001209050919050565b600080600073__$02a10a5b613955ebe0b1689ca5d6d93e29$__63f1c3afef604a866040518363ffffffff1660e01b815260040161364e9291906151c8565b6040805180830381865af415801561366a573d6000803e3d6000fd5b505050506040513d601f19601f8201168201806040525081019061368e919061524f565b90925090506136a3604085016020860161444a565b6001600160a01b03163385357f571ab3cb94eb114c4b41e4f4bbbe9625a6c546920db08ddea52bd3ec7cb5858685856136df60408b018b614b8d565b6040516136ef949392919061527d565b60405180910390a49392505050565b6001600160a01b0381166000908152604a602052604090206002018054600181018255905b50919050565b600154600254604080517f8b73c3c69bb8fe3d512ecc4cf759cc79239f7b179b0ffacaa9a75d522b39400f60208201529081019290925260608201524660808201523060a082015260009060c00160405160208183030381529060405280519060200120905090565b60008060006137a18585613f48565b915091506137ae81613fb6565b509392505050565b60006137c28484612de1565b9050818110156138145760405162461bcd60e51b815260206004820152601e60248201527f496e73756666696369656e74204163636f756e7420416c6c6f77616e636500006044820152606401610d99565b6138218484848403612884565b50505050565b600061383e6048548361416c90919063ffffffff16565b9050600061388c826040518060400160405280601c81526020017f496e73756666696369656e74205472616e7366657220416d6f756e7400000000815250856141849092919063ffffffff16565b6049549091506138a79086906001600160a01b0316846138ae565b61287d8585835b604051633de90db360e01b8152604a60048201526001600160a01b038085166024830152831660448201526064810182905273__$02a10a5b613955ebe0b1689ca5d6d93e29$__90633de90db39060840160006040518083038186803b15801561391757600080fd5b505af415801561392b573d6000803e3d6000fd5b50505050816001600160a01b0316836001600160a01b03167fddf252ad1be2c89b69c2b068fc378daa952ba7f163c4a11628f55a4df523b3ef8360405161297d91815260200190565b7fb53127684a568b3173ae13b9f8a6016e243e63b6e8ee1178d6a717850b5d610380546001600160a01b0383166001600160a01b031990911681179091556040805191825251309133917f54ab0d18de7958786ba1ad85966d59baa2b395455f0530dcdcfd732e6af539e29181900360200190a350565b60515462010000900460ff16613a435760405162461bcd60e51b815260206004820152601960248201527f436f6e7472616374204e6f7420496e697469616c697a696e67000000000000006044820152606401610d99565b8585604051602001613a56929190614bd3565b60408051601f19818403018152908290528051602091820120600155613a80918691869101614bd3565b60408051601f19818403018152919052805160209091012060025560038290556001600160a01b038116613ac557600080546001600160a01b03191630179055613be2565b6040516301ffc9a760e01b81526301fe701d60e21b60048201526001600160a01b038216906301ffc9a790602401602060405180830381865afa925050508015613b2c575060408051601f3d908101601f19168201909252613b2991810190615153565b60015b613b785760405162461bcd60e51b815260206004820152601c60248201527f496c6c6567616c20416363657373436f6e74726f6c4d616e61676572000000006044820152606401610d99565b80613bc55760405162461bcd60e51b815260206004820152601c60248201527f496e76616c696420416363657373436f6e74726f6c4d616e61676572000000006044820152606401610d99565b50600080546001600160a01b0319166001600160a01b0383161790555b6004805461ffff19169055612b9333613974565b60606001600160a01b0384163b613c4a5760405162461bcd60e51b8152602060048201526018602482015277496c6c6567616c20436f6e7472616374204164647265737360401b6044820152606401610d99565b600080856001600160a01b031685604051613c6591906152a5565b600060405180830381855af49150503d8060008114613ca0576040519150601f19603f3d011682016040523d82523d6000602084013e613ca5565b606091505b5091509150613cb58282866141b0565b9695505050505050565b60008181526001830160205260408120548015613da8576000613ce3600183614d55565b8554909150600090613cf790600190614d55565b9050818114613d5c576000866000018281548110613d1757613d17614a65565b9060005260206000200154905080876000018481548110613d3a57613d3a614a65565b6000918252602080832090910192909255918252600188019052604090208390555b8554869080613d6d57613d6d6152b7565b600190038181906000526020600020016000905590558560010160008681526020019081526020016000206000905560019350505050610b71565b6000915050610b71565b6001600160a01b0381163b613e045760405162461bcd60e51b8152602060048201526018602482015277496c6c6567616c20436f6e7472616374204164647265737360401b6044820152606401610d99565b60008051602061533483398151915280546001600160a01b0319166001600160a01b0392909216919091179055565b6060613e3e846141e9565b600083511180613e4b5750815b15613e86576135a784846040518060400160405280601381526020017211195b1959d85d1958d85b1b0811985a5b1959606a1b815250613bf6565b505060408051600081526020810190915292915050565b6000818152600183016020526040812054613ee457508154600181810184556000848152602080822090930184905584548482528286019093526040902091909155610b71565b506000610b71565b606081600001805480602002602001604051908101604052809291908181526020018280548015613f3c57602002820191906000526020600020905b815481526020019060010190808311613f28575b50505050509050919050565b6000808251604103613f7e5760208301516040840151606085015160001a613f728782858561422d565b94509450505050613faf565b8251604003613fa75760208301516040840151613f9c86838361431a565b935093505050613faf565b506000905060025b9250929050565b6000816004811115613fca57613fca614d1f565b03613fd25750565b6001816004811115613fe657613fe6614d1f565b036140335760405162461bcd60e51b815260206004820152601860248201527f45434453413a20696e76616c6964207369676e617475726500000000000000006044820152606401610d99565b600281600481111561404757614047614d1f565b036140945760405162461bcd60e51b815260206004820152601f60248201527f45434453413a20696e76616c6964207369676e6174757265206c656e677468006044820152606401610d99565b60038160048111156140a8576140a8614d1f565b036141005760405162461bcd60e51b815260206004820152602260248201527f45434453413a20696e76616c6964207369676e6174757265202773272076616c604482015261756560f01b6064820152608401610d99565b600481600481111561411457614114614d1f565b0361335a5760405162461bcd60e51b815260206004820152602260248201527f45434453413a20696e76616c6964207369676e6174757265202776272076616c604482015261756560f01b6064820152608401610d99565b6000610eb961271061417e8585614353565b9061435f565b600081848411156141a85760405162461bcd60e51b8152600401610d9991906143f6565b505050900390565b606083156141bf575081610eb9565b8251156141cf5782518084602001fd5b8160405162461bcd60e51b8152600401610d9991906143f6565b6141f281613db2565b6040516001600160a01b03821690309033907f354bd4b6eb65d64e6c79c53fa4f983a5e6bec4824ce4627c71be0b2722f4917e90600090a450565b6000807f7fffffffffffffffffffffffffffffff5d576e7357a4501ddfe92f46681b20a08311156142645750600090506003614311565b8460ff16601b1415801561427c57508460ff16601c14155b1561428d5750600090506004614311565b6040805160008082526020820180845289905260ff881692820192909252606081018690526080810185905260019060a0016020604051602081039080840390855afa1580156142e1573d6000803e3d6000fd5b5050604051601f1901519150506001600160a01b03811661430a57600060019250925050614311565b9150600090505b94509492505050565b6000806001600160ff1b0383168161433760ff86901c601b614a91565b90506143458782888561422d565b935093505050935093915050565b6000610eb982846152cd565b6000610eb982846152ec565b6001600160e01b03198116811461335a57600080fd5b60006020828403121561439357600080fd5b8135610eb98161436b565b60005b838110156143b95781810151838201526020016143a1565b838111156138215750506000910152565b600081518084526143e281602086016020860161439e565b601f01601f19169290920160200192915050565b602081526000610eb960208301846143ca565b6001600160a01b038116811461335a57600080fd5b6000806040838503121561443157600080fd5b823561443c81614409565b946020939093013593505050565b60006020828403121561445c57600080fd5b8135610eb981614409565b60008083601f84011261447957600080fd5b5081356001600160401b0381111561449057600080fd5b6020830191508360208260051b8501011115613faf57600080fd5b600080602083850312156144be57600080fd5b82356001600160401b038111156144d457600080fd5b6144e085828601614467565b90969095509350505050565b6000602082840312156144fe57600080fd5b5035919050565b6000806020838503121561451857600080fd5b82356001600160401b038082111561452f57600080fd5b818501915085601f83011261454357600080fd5b81358181111561455257600080fd5b86602060608302850101111561456757600080fd5b60209290920196919550909350505050565b60008060006060848603121561458e57600080fd5b833561459981614409565b925060208401356145a981614409565b929592945050506040919091013590565b6000602082840312156145cc57600080fd5b81356001600160401b038111156145e257600080fd5b82016101208185031215610eb957600080fd5b801515811461335a57600080fd5b80356115ae816145f5565b60006020828403121561462057600080fd5b8135610eb9816145f5565b6000806040838503121561463e57600080fd5b823561464981614409565b91506020830135614659816145f5565b809150509250929050565b60006080828403121561372357600080fd5b634e487b7160e01b600052604160045260246000fd5b604051606081016001600160401b03811182821017156146ae576146ae614676565b60405290565b604051601f8201601f191681016001600160401b03811182821017156146dc576146dc614676565b604052919050565b6000806000606084860312156146f957600080fd5b833561470481614409565b92506020848101356001600160401b038082111561472157600080fd5b818701915087601f83011261473557600080fd5b81358181111561474757614747614676565b614759601f8201601f191685016146b4565b9150808252888482850101111561476f57600080fd5b808484018584013760008482840101525080945050505061479260408501614603565b90509250925092565b6020808252825182820181905260009190848201906040850190845b818110156147dc5783516001600160a01b0316835292840192918401916001016147b7565b50909695505050505050565b60008083601f8401126147fa57600080fd5b5081356001600160401b0381111561481157600080fd5b6020830191508360208260061b8501011115613faf57600080fd5b6000806020838503121561483f57600080fd5b82356001600160401b0381111561485557600080fd5b6144e0858286016147e8565b6000806040838503121561487457600080fd5b82359150602083013561465981614409565b6000806020838503121561489957600080fd5b82356001600160401b03808211156148b057600080fd5b818501915085601f8301126148c457600080fd5b8135818111156148d357600080fd5b8660208260071b850101111561456757600080fd5b6020808252825182820181905260009190848201906040850190845b818110156147dc57835183529284019291840191600101614904565b60008060008060008060a0878903121561493957600080fd5b863561494481614409565b9550602087013561495481614409565b9450604087013593506060870135925060808701356001600160401b038082111561497e57600080fd5b818901915089601f83011261499257600080fd5b8135818111156149a157600080fd5b8a60208285010111156149b357600080fd5b6020830194508093505050509295509295509295565b600080604083850312156149dc57600080fd5b82356149e781614409565b9150602083013561465981614409565b600060208284031215614a0957600080fd5b81356001600160401b03811115614a1f57600080fd5b820160608185031215610eb957600080fd5b600181811c90821680614a4557607f821691505b60208210810361372357634e487b7160e01b600052602260045260246000fd5b634e487b7160e01b600052603260045260246000fd5b634e487b7160e01b600052601160045260246000fd5b60008219821115614aa457614aa4614a7b565b500190565b600060018201614abb57614abb614a7b565b5060010190565b6020808252601d908201527f455243323050617573653a204163636f756e742053757370656e646564000000604082015260600190565b602080825260159082015274125b1b1959d85b0810dbdb9d1c9858dd0810d85b1b605a1b604082015260600190565b602080825260149082015273141c9bde1e4810d85b1b195908125b9d985b1a5960621b604082015260600190565b60208082526017908201527f536166654d6f64653a2043616c6c2052656a6563746564000000000000000000604082015260600190565b6000808335601e19843603018112614ba457600080fd5b8301803591506001600160401b03821115614bbe57600080fd5b602001915036819003821315613faf57600080fd5b8183823760009101908152919050565b601f821115611d3357600081815260208120601f850160051c81016020861015614c0a5750805b601f850160051c820191505b81811015612b9357828155600101614c16565b81516001600160401b03811115614c4257614c42614676565b614c5681614c508454614a31565b84614be3565b602080601f831160018114614c8b5760008415614c735750858301515b600019600386901b1c1916600185901b178555612b93565b600085815260208120601f198616915b82811015614cba57888601518255948401946001909101908401614c9b565b5085821015614cd85787850151600019600388901b60f8161c191681555b5050505050600190811b01905550565b60208082526017908201527f496e76616c6964204163636f756e742041646472657373000000000000000000604082015260600190565b634e487b7160e01b600052602160045260246000fd5b60008235605e19833603018112614d4b57600080fd5b9190910192915050565b600082821015614d6757614d67614a7b565b500390565b600060208284031215614d7e57600080fd5b5051919050565b80516115ae816145f5565b60006001600160401b03821115614da957614da9614676565b5060051b60200190565b600082601f830112614dc457600080fd5b81516020614dd9614dd483614d90565b6146b4565b82815260059290921b84018101918181019086841115614df857600080fd5b8286015b84811015614ee95780516001600160401b0380821115614e1c5760008081fd5b908801906060828b03601f1901811315614e365760008081fd5b614e3e61468c565b87840151815260408085015184811115614e585760008081fd5b85019350603f84018d13614e6c5760008081fd5b88840151614e7c614dd482614d90565b81815260059190911b85018201908a8101908f831115614e9c5760008081fd5b958301955b82871015614ec3578651614eb48161436b565b8252958b0195908b0190614ea1565b848c015250614ed59050858401614d85565b908201528652505050918301918301614dfc565b509695505050505050565b60008082840360c0811215614f0857600080fd5b60a0811215614f1657600080fd5b5060405160a081016001600160401b038282108183111715614f3a57614f3a614676565b8160405285518352602086015160208401526040860151604084015260608601519150614f6682614409565b81606084015260808601519150614f7c826145f5565b6080830182905260a086015192945080831115614f9857600080fd5b5050614fa685828601614db3565b9150509250929050565b81835281816020850137506000828201602090810191909152601f909101601f19169091010190565b60e081526000614fed60e083018688614fb0565b6020855181850152808601516040818187015280880151915060608281880152808901519250608060018060a01b03841681890152808a0151151560a089015287860360c089015285935088518087528587019450858160051b880101868b016000805b848110156150d0578a8403601f190189528251805185528a8101518b86018990528051898701819052908c01908490898801905b808310156150af5783516001600160e01b0319168252928e019260019290920191908e0190615085565b50928b01511515968b019690965250988a0198935091890191600101615051565b50919f9e505050505050505050505050505050565b6080815260006150f960808301888a614fb0565b828103602084015261510c818789614fb0565b91505083604083015261ffff83166060830152979650505050505050565b9283526001600160a01b039190911660208301526001600160e01b031916604082015260600190565b60006020828403121561516557600080fd5b8151610eb9816145f5565b82815260a08101823561518281614409565b6001600160a01b03908116602084810191909152840135906151a382614409565b8082166040850152505060408301356060830152606083013560808301529392505050565b8281526040602082015281356040820152600060208301356151e981614409565b6001600160a01b03166060830152604083013536849003601e1901811261520f57600080fd5b83016020810190356001600160401b0381111561522b57600080fd5b80360382131561523a57600080fd5b60606080850152613cb560a085018284614fb0565b6000806040838503121561526257600080fd5b825161526d81614409565b6020939093015192949293505050565b60018060a01b0385168152836020820152606060408201526000613cb5606083018486614fb0565b60008251614d4b81846020870161439e565b634e487b7160e01b600052603160045260246000fd5b60008160001904831182151516156152e7576152e7614a7b565b500290565b60008261530957634e487b7160e01b600052601260045260246000fd5b50049056fe44656c656761746563616c6c2069735265616c6d55706772616461626c65204661696c6564360894a13ba1a3210667c828492db98dca3e2076cc3735a920a3ca505d382bbca2646970667358221220d9c76295704d0a4d2d0e45f0c636a72e2c2816230388b66d617c81dacb60372464736f6c634300080f0033",
  "libraries": {
    "LTokenERC20": "0xa513E6E4b8f2a923D98304ec87F64353C4D5C853"
  },
  "devdoc": {
    "kind": "dev",
    "methods": {
      "proxiableUUID()": {
        "details": "Implementation of the ERC1822 {proxiableUUID} function. This returns the storage slot used by the implementation. It is used to validate that the this implementation remains valid after an upgrade. IMPORTANT: A proxy pointing at a proxiable contract should not be considered proxiable itself, because this risks bricking a proxy that upgrades to it, by delegating to itself until out of gas. Thus it is critical that this function revert if invoked through a proxy. This is guaranteed by the `notDelegated` modifier."
      },
      "supportsInterface(bytes4)": {
        "details": "See {IERC165-supportsInterface}."
      }
    },
    "version": 1
  },
  "userdoc": {
    "kind": "user",
    "methods": {},
    "version": 1
  },
  "storageLayout": {
    "storage": [
      {
        "astId": 20153,
        "contract": "src/contracts/token/lively/LivelyToken.sol:LivelyToken",
        "label": "_accessControlManager",
        "offset": 0,
        "slot": "0",
        "type": "t_address"
      },
      {
        "astId": 20155,
        "contract": "src/contracts/token/lively/LivelyToken.sol:LivelyToken",
        "label": "_domainName",
        "offset": 0,
        "slot": "1",
        "type": "t_bytes32"
      },
      {
        "astId": 20157,
        "contract": "src/contracts/token/lively/LivelyToken.sol:LivelyToken",
        "label": "_domainVersion",
        "offset": 0,
        "slot": "2",
        "type": "t_bytes32"
      },
      {
        "astId": 20159,
        "contract": "src/contracts/token/lively/LivelyToken.sol:LivelyToken",
        "label": "_domainRealm",
        "offset": 0,
        "slot": "3",
        "type": "t_bytes32"
      },
      {
        "astId": 20161,
        "contract": "src/contracts/token/lively/LivelyToken.sol:LivelyToken",
        "label": "_isSafeMode",
        "offset": 0,
        "slot": "4",
        "type": "t_bool"
      },
      {
        "astId": 20163,
        "contract": "src/contracts/token/lively/LivelyToken.sol:LivelyToken",
        "label": "_isUpgradable",
        "offset": 1,
        "slot": "4",
        "type": "t_bool"
      },
      {
        "astId": 20168,
        "contract": "src/contracts/token/lively/LivelyToken.sol:LivelyToken",
        "label": "__gap",
        "offset": 0,
        "slot": "5",
        "type": "t_array(t_uint256)64_storage"
      },
      {
        "astId": 22866,
        "contract": "src/contracts/token/lively/LivelyToken.sol:LivelyToken",
        "label": "_name",
        "offset": 0,
        "slot": "69",
        "type": "t_string_storage"
      },
      {
        "astId": 22868,
        "contract": "src/contracts/token/lively/LivelyToken.sol:LivelyToken",
        "label": "_symbol",
        "offset": 0,
        "slot": "70",
        "type": "t_string_storage"
      },
      {
        "astId": 22870,
        "contract": "src/contracts/token/lively/LivelyToken.sol:LivelyToken",
        "label": "_totalSupply",
        "offset": 0,
        "slot": "71",
        "type": "t_uint256"
      },
      {
        "astId": 22872,
        "contract": "src/contracts/token/lively/LivelyToken.sol:LivelyToken",
        "label": "_taxRate",
        "offset": 0,
        "slot": "72",
        "type": "t_uint256"
      },
      {
        "astId": 22874,
        "contract": "src/contracts/token/lively/LivelyToken.sol:LivelyToken",
        "label": "_taxTreasury",
        "offset": 0,
        "slot": "73",
        "type": "t_address"
      },
      {
        "astId": 22876,
        "contract": "src/contracts/token/lively/LivelyToken.sol:LivelyToken",
        "label": "_isPaused",
        "offset": 20,
        "slot": "73",
        "type": "t_bool"
      },
      {
        "astId": 22879,
        "contract": "src/contracts/token/lively/LivelyToken.sol:LivelyToken",
        "label": "_data",
        "offset": 0,
        "slot": "74",
        "type": "t_struct(DataCollection)22859_storage"
      },
      {
        "astId": 20341,
        "contract": "src/contracts/token/lively/LivelyToken.sol:LivelyToken",
        "label": "_initialized",
        "offset": 0,
        "slot": "81",
        "type": "t_uint16"
      },
      {
        "astId": 20344,
        "contract": "src/contracts/token/lively/LivelyToken.sol:LivelyToken",
        "label": "_initializing",
        "offset": 2,
        "slot": "81",
        "type": "t_bool"
      }
    ],
    "types": {
      "t_address": {
        "encoding": "inplace",
        "label": "address",
        "numberOfBytes": "20"
      },
      "t_array(t_bytes32)dyn_storage": {
        "base": "t_bytes32",
        "encoding": "dynamic_array",
        "label": "bytes32[]",
        "numberOfBytes": "32"
      },
      "t_array(t_uint256)64_storage": {
        "base": "t_uint256",
        "encoding": "inplace",
        "label": "uint256[64]",
        "numberOfBytes": "2048"
      },
      "t_bool": {
        "encoding": "inplace",
        "label": "bool",
        "numberOfBytes": "1"
      },
      "t_bytes32": {
        "encoding": "inplace",
        "label": "bytes32",
        "numberOfBytes": "32"
      },
      "t_enum(LockState)22814": {
        "encoding": "inplace",
        "label": "enum LivelyStorage.LockState",
        "numberOfBytes": "1"
      },
      "t_mapping(t_address,t_mapping(t_address,t_uint256))": {
        "encoding": "mapping",
        "key": "t_address",
        "label": "mapping(address => mapping(address => uint256))",
        "numberOfBytes": "32",
        "value": "t_mapping(t_address,t_uint256)"
      },
      "t_mapping(t_address,t_mapping(t_bytes32,t_struct(AssetLock)22834_storage))": {
        "encoding": "mapping",
        "key": "t_address",
        "label": "mapping(address => mapping(bytes32 => struct LivelyStorage.AssetLock))",
        "numberOfBytes": "32",
        "value": "t_mapping(t_bytes32,t_struct(AssetLock)22834_storage)"
      },
      "t_mapping(t_address,t_struct(AccountInfo)22822_storage)": {
        "encoding": "mapping",
        "key": "t_address",
        "label": "mapping(address => struct LivelyStorage.AccountInfo)",
        "numberOfBytes": "32",
        "value": "t_struct(AccountInfo)22822_storage"
      },
      "t_mapping(t_address,t_uint256)": {
        "encoding": "mapping",
        "key": "t_address",
        "label": "mapping(address => uint256)",
        "numberOfBytes": "32",
        "value": "t_uint256"
      },
      "t_mapping(t_bytes32,t_struct(AssetLock)22834_storage)": {
        "encoding": "mapping",
        "key": "t_bytes32",
        "label": "mapping(bytes32 => struct LivelyStorage.AssetLock)",
        "numberOfBytes": "32",
        "value": "t_struct(AssetLock)22834_storage"
      },
      "t_mapping(t_bytes32,t_uint256)": {
        "encoding": "mapping",
        "key": "t_bytes32",
        "label": "mapping(bytes32 => uint256)",
        "numberOfBytes": "32",
        "value": "t_uint256"
      },
      "t_string_storage": {
        "encoding": "bytes",
        "label": "string",
        "numberOfBytes": "32"
      },
      "t_struct(AccountInfo)22822_storage": {
        "encoding": "inplace",
        "label": "struct LivelyStorage.AccountInfo",
        "members": [
          {
            "astId": 22816,
            "contract": "src/contracts/token/lively/LivelyToken.sol:LivelyToken",
            "label": "balance",
            "offset": 0,
            "slot": "0",
            "type": "t_uint256"
          },
          {
            "astId": 22818,
            "contract": "src/contracts/token/lively/LivelyToken.sol:LivelyToken",
            "label": "lockBalance",
            "offset": 0,
            "slot": "1",
            "type": "t_uint256"
          },
          {
            "astId": 22821,
            "contract": "src/contracts/token/lively/LivelyToken.sol:LivelyToken",
            "label": "nonce",
            "offset": 0,
            "slot": "2",
            "type": "t_struct(Counter)10524_storage"
          }
        ],
        "numberOfBytes": "96"
      },
      "t_struct(AddressSet)17576_storage": {
        "encoding": "inplace",
        "label": "struct LEnumerableSet.AddressSet",
        "members": [
          {
            "astId": 17575,
            "contract": "src/contracts/token/lively/LivelyToken.sol:LivelyToken",
            "label": "_inner",
            "offset": 0,
            "slot": "0",
            "type": "t_struct(Set)17275_storage"
          }
        ],
        "numberOfBytes": "64"
      },
      "t_struct(AssetLock)22834_storage": {
        "encoding": "inplace",
        "label": "struct LivelyStorage.AssetLock",
        "members": [
          {
            "astId": 22824,
            "contract": "src/contracts/token/lively/LivelyToken.sol:LivelyToken",
            "label": "amount",
            "offset": 0,
            "slot": "0",
            "type": "t_uint256"
          },
          {
            "astId": 22826,
            "contract": "src/contracts/token/lively/LivelyToken.sol:LivelyToken",
            "label": "lockedAt",
            "offset": 0,
            "slot": "1",
            "type": "t_uint128"
          },
          {
            "astId": 22828,
            "contract": "src/contracts/token/lively/LivelyToken.sol:LivelyToken",
            "label": "claimedAt",
            "offset": 16,
            "slot": "1",
            "type": "t_uint128"
          },
          {
            "astId": 22830,
            "contract": "src/contracts/token/lively/LivelyToken.sol:LivelyToken",
            "label": "source",
            "offset": 0,
            "slot": "2",
            "type": "t_address"
          },
          {
            "astId": 22833,
            "contract": "src/contracts/token/lively/LivelyToken.sol:LivelyToken",
            "label": "status",
            "offset": 20,
            "slot": "2",
            "type": "t_enum(LockState)22814"
          }
        ],
        "numberOfBytes": "96"
      },
      "t_struct(Counter)10524_storage": {
        "encoding": "inplace",
        "label": "struct LCounters.Counter",
        "members": [
          {
            "astId": 10523,
            "contract": "src/contracts/token/lively/LivelyToken.sol:LivelyToken",
            "label": "_value",
            "offset": 0,
            "slot": "0",
            "type": "t_uint256"
          }
        ],
        "numberOfBytes": "32"
      },
      "t_struct(DataCollection)22859_storage": {
        "encoding": "inplace",
        "label": "struct LivelyStorage.DataCollection",
        "members": [
          {
            "astId": 22839,
            "contract": "src/contracts/token/lively/LivelyToken.sol:LivelyToken",
            "label": "accounts",
            "offset": 0,
            "slot": "0",
            "type": "t_mapping(t_address,t_struct(AccountInfo)22822_storage)"
          },
          {
            "astId": 22845,
            "contract": "src/contracts/token/lively/LivelyToken.sol:LivelyToken",
            "label": "allowances",
            "offset": 0,
            "slot": "1",
            "type": "t_mapping(t_address,t_mapping(t_address,t_uint256))"
          },
          {
            "astId": 22852,
            "contract": "src/contracts/token/lively/LivelyToken.sol:LivelyToken",
            "label": "locks",
            "offset": 0,
            "slot": "2",
            "type": "t_mapping(t_address,t_mapping(t_bytes32,t_struct(AssetLock)22834_storage))"
          },
          {
            "astId": 22855,
            "contract": "src/contracts/token/lively/LivelyToken.sol:LivelyToken",
            "label": "pausedList",
            "offset": 0,
            "slot": "3",
            "type": "t_struct(AddressSet)17576_storage"
          },
          {
            "astId": 22858,
            "contract": "src/contracts/token/lively/LivelyToken.sol:LivelyToken",
            "label": "taxWhitelist",
            "offset": 0,
            "slot": "5",
            "type": "t_struct(AddressSet)17576_storage"
          }
        ],
        "numberOfBytes": "224"
      },
      "t_struct(Set)17275_storage": {
        "encoding": "inplace",
        "label": "struct LEnumerableSet.Set",
        "members": [
          {
            "astId": 17270,
            "contract": "src/contracts/token/lively/LivelyToken.sol:LivelyToken",
            "label": "_values",
            "offset": 0,
            "slot": "0",
            "type": "t_array(t_bytes32)dyn_storage"
          },
          {
            "astId": 17274,
            "contract": "src/contracts/token/lively/LivelyToken.sol:LivelyToken",
            "label": "_indexes",
            "offset": 0,
            "slot": "1",
            "type": "t_mapping(t_bytes32,t_uint256)"
          }
        ],
        "numberOfBytes": "64"
      },
      "t_uint128": {
        "encoding": "inplace",
        "label": "uint128",
        "numberOfBytes": "16"
      },
      "t_uint16": {
        "encoding": "inplace",
        "label": "uint16",
        "numberOfBytes": "2"
      },
      "t_uint256": {
        "encoding": "inplace",
        "label": "uint256",
        "numberOfBytes": "32"
      }
    }
  }
}