{
  "address": "0x9fE46736679d2D9a65F0992F2272dE9f3c7fa6e0",
  "abi": [
    {
      "inputs": [],
      "name": "LIB_NAME",
      "outputs": [
        {
          "internalType": "bytes32",
          "name": "",
          "type": "bytes32"
        }
      ],
      "stateMutability": "view",
      "type": "function"
    },
    {
      "inputs": [],
      "name": "LIB_VERSION",
      "outputs": [
        {
          "internalType": "bytes32",
          "name": "",
          "type": "bytes32"
        }
      ],
      "stateMutability": "view",
      "type": "function"
    }
  ],
  "transactionHash": "0xd5a237ca677dd6742758c34f87d7390a0e4915ab78271898d94832a23c77a0d4",
  "args": [],
  "numDeployments": 1,
  "solcInputHash": "05a8bb2fca27ec708389aeb9e1c1207b",
  "bytecode": "0x611a9261003a600b82828239805160001a60731461002d57634e487b7160e01b600052600060045260246000fd5b30600052607381538281f3fe73000000000000000000000000000000000000000030146080604052600436106100a85760003560e01c80637cb8dd2e116100705780637cb8dd2e1461014d57806389d4da651461016d578063bec947511461018d578063c3203fd114610195578063f4800f4c146101cc57600080fd5b80630938ae71146100ad5780631f9471ef146100d55780632466209b146100f75780633859eb7f1461010d5780633d5805771461012d575b600080fd5b6100c06100bb3660046115bd565b6101ec565b60405190151581526020015b60405180910390f35b6100e86100e3366004611602565b610267565b6040516100cc93929190611624565b6100ff61032a565b6040519081526020016100cc565b81801561011957600080fd5b506100ff610128366004611699565b610358565b81801561013957600080fd5b506100c06101483660046115bd565b61065a565b61016061015b366004611602565b610a53565b6040516100cc9190611734565b81801561017957600080fd5b506100c06101883660046115bd565b610ab8565b6100ff610d90565b8180156101a157600080fd5b506101b56101b0366004611781565b610db3565b6040805192151583526020830191909152016100cc565b8180156101d857600080fd5b506101b56101e73660046117ad565b611080565b600082815260028401602052604081208054610207906117db565b158015915061021e57506001600160a01b03821615155b801561025f575060016001600160a01b03831660009081526020868152604080832087845290915290205460ff16600281111561025d5761025d611815565b145b949350505050565b6000818152600280840160205260408220600181015491810154815460609493849392909160ff90911690839061029d906117db565b80601f01602080910402602001604051908101604052809291908181526020018280546102c9906117db565b80156103165780601f106102eb57610100808354040283529160200191610316565b820191906000526020600020905b8154815290600101906020018083116102f957829003601f168201915b505050505092509250925092509250925092565b604051640312e302e360dc1b60208201526025015b6040516020818303038152906040528051906020012081565b6000306001600160a01b031663be22465d6040518163ffffffff1660e01b8152600401602060405180830381865afa158015610398573d6000803e3d6000fd5b505050506040513d601f19601f820116820180604052508101906103bc919061182b565b156103e25760405162461bcd60e51b81526004016103d990611848565b60405180910390fd5b735FbDB2315678afecb367f032d93F642f64180aa363487c6960876104063061135e565b6040516001600160e01b031960e085901b168152610433929190339063b2dc26e560e01b9060040161187f565b602060405180830381865af4158015610450573d6000803e3d6000fd5b505050506040513d601f19601f82011682018060405250810190610474919061182b565b6104c05760405162461bcd60e51b815260206004820152601a60248201527f5265676973746572526f6c65204163636573732044656e69656400000000000060448201526064016103d9565b6000838152600487016020526040902080546104db906117db565b905060000361051e5760405162461bcd60e51b815260206004820152600f60248201526e11dc9bdd5c08139bdd08119bdd5b99608a1b60448201526064016103d9565b60008490036105635760405162461bcd60e51b8152602060048201526011602482015270149bdb194813985b5948125b9d985b1a59607a1b60448201526064016103d9565b600085856040516020016105789291906118ad565b60408051601f198184030181529181528151602092830120600081815260028b0190935291208054919250906105ad906117db565b1590506105fc5760405162461bcd60e51b815260206004820152601760248201527f526f6c6520416c7265616479205265676973746572656400000000000000000060448201526064016103d9565b60008481526004880160205260409020610619906002018261139d565b506000818152600288016020526040902080610636878983611922565b5060018101859055600201805484151560ff19909116179055905095945050505050565b6000306001600160a01b031663be22465d6040518163ffffffff1660e01b8152600401602060405180830381865afa15801561069a573d6000803e3d6000fd5b505050506040513d601f19601f820116820180604052508101906106be919061182b565b156106db5760405162461bcd60e51b81526004016103d990611848565b735FbDB2315678afecb367f032d93F642f64180aa363487c6960856106ff3061135e565b6040516001600160e01b031960e085901b16815261072c929190339063df01de4560e01b9060040161187f565b602060405180830381865af4158015610749573d6000803e3d6000fd5b505050506040513d601f19601f8201168201806040525081019061076d919061182b565b6107b95760405162461bcd60e51b815260206004820152601f60248201527f5265766f6b65526f6c654163636f756e74204163636573732044656e6965640060448201526064016103d9565b604051704c4956454c595f41444d494e5f524f4c4560781b6020820152603101604051602081830303815290604052805190602001208314806108375750604051774c4956454c595f53595354454d5f41444d494e5f524f4c4560401b60208201526038016040516020818303038152906040528051906020012083145b156108a8576000838152600285016020526040902060019061085b906003016113a9565b116108a85760405162461bcd60e51b815260206004820152601b60248201527f496c6c6567616c205265766f6b6520526f6c65204163636f756e74000000000060448201526064016103d9565b6000838152600285016020526040902080546108c3906117db565b90506000036108e45760405162461bcd60e51b81526004016103d9906119e3565b6001600160a01b03821661092c5760405162461bcd60e51b815260206004820152600f60248201526e1059191c995cdcc8125b9d985b1a59608a1b60448201526064016103d9565b6000838152600285016020526040902061094990600301836113b3565b6109895760405162461bcd60e51b81526020600482015260116024820152701058d8dbdd5b9d08139bdd08119bdd5b99607a1b60448201526064016103d9565b6001600160a01b03821660009081526020858152604080832086845290915281205460ff1660028111156109bf576109bf611815565b03610a055760405162461bcd60e51b81526020600482015260166024820152751058d8dbdd5b9d08149bdb1948139bdd08119bdd5b9960521b60448201526064016103d9565b6001600160a01b0382166000908152602085815260408083208684528252808320805460ff1916600290811790915587019091529020610a4890600301836113d5565b506001949350505050565b60008181526002830160205260409020805460609190610a72906117db565b9050600003610a935760405162461bcd60e51b81526004016103d9906119e3565b60008281526002840160205260409020610aaf906003016113ea565b90505b92915050565b6000306001600160a01b031663be22465d6040518163ffffffff1660e01b8152600401602060405180830381865afa158015610af8573d6000803e3d6000fd5b505050506040513d601f19601f82011682018060405250810190610b1c919061182b565b15610b395760405162461bcd60e51b81526004016103d990611848565b735FbDB2315678afecb367f032d93F642f64180aa363487c696085610b5d3061135e565b6040516001600160e01b031960e085901b168152610b8a92919033906308f09e0f60e41b9060040161187f565b602060405180830381865af4158015610ba7573d6000803e3d6000fd5b505050506040513d601f19601f82011682018060405250810190610bcb919061182b565b610c175760405162461bcd60e51b815260206004820152601e60248201527f4772616e74526f6c654163636f756e74204163636573732044656e696564000060448201526064016103d9565b604051744c4956454c595f414e4f4e594d4f55535f524f4c4560581b6020820152603501604051602081830303815290604052805190602001208303610c9f5760405162461bcd60e51b815260206004820152601c60248201527f496c6c6567616c204772616e7420416e6f6e796d6f757320526f6c650000000060448201526064016103d9565b600083815260028501602052604090208054610cba906117db565b9050600003610cdb5760405162461bcd60e51b81526004016103d9906119e3565b6001600160a01b038216610d235760405162461bcd60e51b815260206004820152600f60248201526e1059191c995cdcc8125b9d985b1a59608a1b60448201526064016103d9565b6001600160a01b0382166000908152602085815260408083208684528252808320805460ff19166001179055600287019091529020610d6590600301836113b3565b610d865760008381526002850160205260409020610a4890600301836113fe565b5060019392505050565b6040516e13149bdb1953585b9859d95b595b9d608a1b6020820152602f0161033f565b600080306001600160a01b031663be22465d6040518163ffffffff1660e01b8152600401602060405180830381865afa158015610df4573d6000803e3d6000fd5b505050506040513d601f19601f82011682018060405250810190610e18919061182b565b15610e355760405162461bcd60e51b81526004016103d990611848565b735FbDB2315678afecb367f032d93F642f64180aa363487c696086610e593061135e565b6040516001600160e01b031960e085901b168152610e869291903390630dbf304b60e41b9060040161187f565b602060405180830381865af4158015610ea3573d6000803e3d6000fd5b505050506040513d601f19601f82011682018060405250810190610ec7919061182b565b610f135760405162461bcd60e51b815260206004820152601a60248201527f536574526f6c6547726f7570204163636573732044656e69656400000000000060448201526064016103d9565b600084815260028601602052604090208054610f2e906117db565b9050600003610f4f5760405162461bcd60e51b81526004016103d9906119e3565b600083815260048601602052604090208054610f6a906117db565b9050600003610fad5760405162461bcd60e51b815260206004820152600f60248201526e11dc9bdd5c08139bdd08119bdd5b99608a1b60448201526064016103d9565b60008481526002860160205260409020600101548390036110105760405162461bcd60e51b815260206004820152601960248201527f496c6c6567616c2047726f7570204475706c69636174696f6e0000000000000060448201526064016103d9565b60008481526002808701602090815260408084206001015480855260048a01909252909220611040910186611413565b506000848152600487016020526040902061105e906002018661139d565b5060009485526002959095016020525050604090912060019081019190915591565b600080306001600160a01b031663be22465d6040518163ffffffff1660e01b8152600401602060405180830381865afa1580156110c1573d6000803e3d6000fd5b505050506040513d601f19601f820116820180604052508101906110e5919061182b565b156111025760405162461bcd60e51b81526004016103d990611848565b735FbDB2315678afecb367f032d93F642f64180aa363487c6960866111263061135e565b6040516001600160e01b031960e085901b168152611153929190339063738f112760e11b9060040161187f565b602060405180830381865af4158015611170573d6000803e3d6000fd5b505050506040513d601f19601f82011682018060405250810190611194919061182b565b6111e05760405162461bcd60e51b815260206004820152601b60248201527f536574526f6c65537461747573204163636573732044656e696564000000000060448201526064016103d9565b604051744c4956454c595f414e4f4e594d4f55535f524f4c4560581b602082015260350160405160208183030381529060405280519060200120841415801561125e5750604051704c4956454c595f41444d494e5f524f4c4560781b6020820152603101604051602081830303815290604052805190602001208414155b80156112a65750604051774c4956454c595f53595354454d5f41444d494e5f524f4c4560401b6020820152603801604051602081830303815290604052805190602001208414155b6112f25760405162461bcd60e51b815260206004820152601a60248201527f496c6c6567616c204368616e676520526f6c652053746174757300000000000060448201526064016103d9565b60008481526002860160205260409020805461130d906117db565b905060000361132e5760405162461bcd60e51b81526004016103d9906119e3565b5050600091825260029283016020526040909120918201805460ff19169115159190911790556001908101549091565b6040516bffffffffffffffffffffffff19606083901b166020820152600090603401604051602081830303815290604052805190602001209050919050565b6000610aaf838361141f565b6000610ab2825490565b6001600160a01b03811660009081526001830160205260408120541515610aaf565b6000610aaf836001600160a01b03841661146e565b606060006113f783611561565b9392505050565b6000610aaf836001600160a01b03841661141f565b6000610aaf838361146e565b600081815260018301602052604081205461146657508154600181810184556000848152602080822090930184905584548482528286019093526040902091909155610ab2565b506000610ab2565b60008181526001830160205260408120548015611557576000611492600183611a0b565b85549091506000906114a690600190611a0b565b905081811461150b5760008660000182815481106114c6576114c6611a30565b90600052602060002001549050808760000184815481106114e9576114e9611a30565b6000918252602080832090910192909255918252600188019052604090208390555b855486908061151c5761151c611a46565b600190038181906000526020600020016000905590558560010160008681526020019081526020016000206000905560019350505050610ab2565b6000915050610ab2565b6060816000018054806020026020016040519081016040528092919081815260200182805480156115b157602002820191906000526020600020905b81548152602001906001019080831161159d575b50505050509050919050565b6000806000606084860312156115d257600080fd5b833592506020840135915060408401356001600160a01b03811681146115f757600080fd5b809150509250925092565b6000806040838503121561161557600080fd5b50508035926020909101359150565b606081526000845180606084015260005b818110156116525760208188018101516080868401015201611635565b81811115611664576000608083860101525b5060208301949094525090151560408201526080601f909201601f19160101919050565b801515811461169657600080fd5b50565b6000806000806000608086880312156116b157600080fd5b85359450602086013567ffffffffffffffff808211156116d057600080fd5b818801915088601f8301126116e457600080fd5b8135818111156116f357600080fd5b89602082850101111561170557600080fd5b60208301965080955050505060408601359150606086013561172681611688565b809150509295509295909350565b6020808252825182820181905260009190848201906040850190845b818110156117755783516001600160a01b031683529284019291840191600101611750565b50909695505050505050565b60008060006060848603121561179657600080fd5b505081359360208301359350604090920135919050565b6000806000606084860312156117c257600080fd5b833592506020840135915060408401356115f781611688565b600181811c908216806117ef57607f821691505b60208210810361180f57634e487b7160e01b600052602260045260246000fd5b50919050565b634e487b7160e01b600052602160045260246000fd5b60006020828403121561183d57600080fd5b81516113f781611688565b60208082526017908201527f536166654d6f64653a2043616c6c2052656a6563746564000000000000000000604082015260600190565b93845260208401929092526001600160a01b031660408301526001600160e01b031916606082015260800190565b8183823760009101908152919050565b634e487b7160e01b600052604160045260246000fd5b601f82111561191d57600081815260208120601f850160051c810160208610156118fa5750805b601f850160051c820191505b8181101561191957828155600101611906565b5050505b505050565b67ffffffffffffffff83111561193a5761193a6118bd565b61194e8361194883546117db565b836118d3565b6000601f841160018114611982576000851561196a5750838201355b600019600387901b1c1916600186901b1783556119dc565b600083815260209020601f19861690835b828110156119b35786850135825560209485019460019092019101611993565b50868210156119d05760001960f88860031b161c19848701351681555b505060018560011b0183555b5050505050565b6020808252600e908201526d149bdb1948139bdd08119bdd5b9960921b604082015260600190565b600082821015611a2b57634e487b7160e01b600052601160045260246000fd5b500390565b634e487b7160e01b600052603260045260246000fd5b634e487b7160e01b600052603160045260246000fdfea2646970667358221220c283cb93b11b263664a4656d32b058db021e1e6b0e02a27ae7858b2677bc807964736f6c634300080f0033",
  "deployedBytecode": "0x73000000000000000000000000000000000000000030146080604052600436106100a85760003560e01c80637cb8dd2e116100705780637cb8dd2e1461014d57806389d4da651461016d578063bec947511461018d578063c3203fd114610195578063f4800f4c146101cc57600080fd5b80630938ae71146100ad5780631f9471ef146100d55780632466209b146100f75780633859eb7f1461010d5780633d5805771461012d575b600080fd5b6100c06100bb3660046115bd565b6101ec565b60405190151581526020015b60405180910390f35b6100e86100e3366004611602565b610267565b6040516100cc93929190611624565b6100ff61032a565b6040519081526020016100cc565b81801561011957600080fd5b506100ff610128366004611699565b610358565b81801561013957600080fd5b506100c06101483660046115bd565b61065a565b61016061015b366004611602565b610a53565b6040516100cc9190611734565b81801561017957600080fd5b506100c06101883660046115bd565b610ab8565b6100ff610d90565b8180156101a157600080fd5b506101b56101b0366004611781565b610db3565b6040805192151583526020830191909152016100cc565b8180156101d857600080fd5b506101b56101e73660046117ad565b611080565b600082815260028401602052604081208054610207906117db565b158015915061021e57506001600160a01b03821615155b801561025f575060016001600160a01b03831660009081526020868152604080832087845290915290205460ff16600281111561025d5761025d611815565b145b949350505050565b6000818152600280840160205260408220600181015491810154815460609493849392909160ff90911690839061029d906117db565b80601f01602080910402602001604051908101604052809291908181526020018280546102c9906117db565b80156103165780601f106102eb57610100808354040283529160200191610316565b820191906000526020600020905b8154815290600101906020018083116102f957829003601f168201915b505050505092509250925092509250925092565b604051640312e302e360dc1b60208201526025015b6040516020818303038152906040528051906020012081565b6000306001600160a01b031663be22465d6040518163ffffffff1660e01b8152600401602060405180830381865afa158015610398573d6000803e3d6000fd5b505050506040513d601f19601f820116820180604052508101906103bc919061182b565b156103e25760405162461bcd60e51b81526004016103d990611848565b60405180910390fd5b73__$c43b1d7058274a71a9734d16e6b6586431$__63487c6960876104063061135e565b6040516001600160e01b031960e085901b168152610433929190339063b2dc26e560e01b9060040161187f565b602060405180830381865af4158015610450573d6000803e3d6000fd5b505050506040513d601f19601f82011682018060405250810190610474919061182b565b6104c05760405162461bcd60e51b815260206004820152601a60248201527f5265676973746572526f6c65204163636573732044656e69656400000000000060448201526064016103d9565b6000838152600487016020526040902080546104db906117db565b905060000361051e5760405162461bcd60e51b815260206004820152600f60248201526e11dc9bdd5c08139bdd08119bdd5b99608a1b60448201526064016103d9565b60008490036105635760405162461bcd60e51b8152602060048201526011602482015270149bdb194813985b5948125b9d985b1a59607a1b60448201526064016103d9565b600085856040516020016105789291906118ad565b60408051601f198184030181529181528151602092830120600081815260028b0190935291208054919250906105ad906117db565b1590506105fc5760405162461bcd60e51b815260206004820152601760248201527f526f6c6520416c7265616479205265676973746572656400000000000000000060448201526064016103d9565b60008481526004880160205260409020610619906002018261139d565b506000818152600288016020526040902080610636878983611922565b5060018101859055600201805484151560ff19909116179055905095945050505050565b6000306001600160a01b031663be22465d6040518163ffffffff1660e01b8152600401602060405180830381865afa15801561069a573d6000803e3d6000fd5b505050506040513d601f19601f820116820180604052508101906106be919061182b565b156106db5760405162461bcd60e51b81526004016103d990611848565b73__$c43b1d7058274a71a9734d16e6b6586431$__63487c6960856106ff3061135e565b6040516001600160e01b031960e085901b16815261072c929190339063df01de4560e01b9060040161187f565b602060405180830381865af4158015610749573d6000803e3d6000fd5b505050506040513d601f19601f8201168201806040525081019061076d919061182b565b6107b95760405162461bcd60e51b815260206004820152601f60248201527f5265766f6b65526f6c654163636f756e74204163636573732044656e6965640060448201526064016103d9565b604051704c4956454c595f41444d494e5f524f4c4560781b6020820152603101604051602081830303815290604052805190602001208314806108375750604051774c4956454c595f53595354454d5f41444d494e5f524f4c4560401b60208201526038016040516020818303038152906040528051906020012083145b156108a8576000838152600285016020526040902060019061085b906003016113a9565b116108a85760405162461bcd60e51b815260206004820152601b60248201527f496c6c6567616c205265766f6b6520526f6c65204163636f756e74000000000060448201526064016103d9565b6000838152600285016020526040902080546108c3906117db565b90506000036108e45760405162461bcd60e51b81526004016103d9906119e3565b6001600160a01b03821661092c5760405162461bcd60e51b815260206004820152600f60248201526e1059191c995cdcc8125b9d985b1a59608a1b60448201526064016103d9565b6000838152600285016020526040902061094990600301836113b3565b6109895760405162461bcd60e51b81526020600482015260116024820152701058d8dbdd5b9d08139bdd08119bdd5b99607a1b60448201526064016103d9565b6001600160a01b03821660009081526020858152604080832086845290915281205460ff1660028111156109bf576109bf611815565b03610a055760405162461bcd60e51b81526020600482015260166024820152751058d8dbdd5b9d08149bdb1948139bdd08119bdd5b9960521b60448201526064016103d9565b6001600160a01b0382166000908152602085815260408083208684528252808320805460ff1916600290811790915587019091529020610a4890600301836113d5565b506001949350505050565b60008181526002830160205260409020805460609190610a72906117db565b9050600003610a935760405162461bcd60e51b81526004016103d9906119e3565b60008281526002840160205260409020610aaf906003016113ea565b90505b92915050565b6000306001600160a01b031663be22465d6040518163ffffffff1660e01b8152600401602060405180830381865afa158015610af8573d6000803e3d6000fd5b505050506040513d601f19601f82011682018060405250810190610b1c919061182b565b15610b395760405162461bcd60e51b81526004016103d990611848565b73__$c43b1d7058274a71a9734d16e6b6586431$__63487c696085610b5d3061135e565b6040516001600160e01b031960e085901b168152610b8a92919033906308f09e0f60e41b9060040161187f565b602060405180830381865af4158015610ba7573d6000803e3d6000fd5b505050506040513d601f19601f82011682018060405250810190610bcb919061182b565b610c175760405162461bcd60e51b815260206004820152601e60248201527f4772616e74526f6c654163636f756e74204163636573732044656e696564000060448201526064016103d9565b604051744c4956454c595f414e4f4e594d4f55535f524f4c4560581b6020820152603501604051602081830303815290604052805190602001208303610c9f5760405162461bcd60e51b815260206004820152601c60248201527f496c6c6567616c204772616e7420416e6f6e796d6f757320526f6c650000000060448201526064016103d9565b600083815260028501602052604090208054610cba906117db565b9050600003610cdb5760405162461bcd60e51b81526004016103d9906119e3565b6001600160a01b038216610d235760405162461bcd60e51b815260206004820152600f60248201526e1059191c995cdcc8125b9d985b1a59608a1b60448201526064016103d9565b6001600160a01b0382166000908152602085815260408083208684528252808320805460ff19166001179055600287019091529020610d6590600301836113b3565b610d865760008381526002850160205260409020610a4890600301836113fe565b5060019392505050565b6040516e13149bdb1953585b9859d95b595b9d608a1b6020820152602f0161033f565b600080306001600160a01b031663be22465d6040518163ffffffff1660e01b8152600401602060405180830381865afa158015610df4573d6000803e3d6000fd5b505050506040513d601f19601f82011682018060405250810190610e18919061182b565b15610e355760405162461bcd60e51b81526004016103d990611848565b73__$c43b1d7058274a71a9734d16e6b6586431$__63487c696086610e593061135e565b6040516001600160e01b031960e085901b168152610e869291903390630dbf304b60e41b9060040161187f565b602060405180830381865af4158015610ea3573d6000803e3d6000fd5b505050506040513d601f19601f82011682018060405250810190610ec7919061182b565b610f135760405162461bcd60e51b815260206004820152601a60248201527f536574526f6c6547726f7570204163636573732044656e69656400000000000060448201526064016103d9565b600084815260028601602052604090208054610f2e906117db565b9050600003610f4f5760405162461bcd60e51b81526004016103d9906119e3565b600083815260048601602052604090208054610f6a906117db565b9050600003610fad5760405162461bcd60e51b815260206004820152600f60248201526e11dc9bdd5c08139bdd08119bdd5b99608a1b60448201526064016103d9565b60008481526002860160205260409020600101548390036110105760405162461bcd60e51b815260206004820152601960248201527f496c6c6567616c2047726f7570204475706c69636174696f6e0000000000000060448201526064016103d9565b60008481526002808701602090815260408084206001015480855260048a01909252909220611040910186611413565b506000848152600487016020526040902061105e906002018661139d565b5060009485526002959095016020525050604090912060019081019190915591565b600080306001600160a01b031663be22465d6040518163ffffffff1660e01b8152600401602060405180830381865afa1580156110c1573d6000803e3d6000fd5b505050506040513d601f19601f820116820180604052508101906110e5919061182b565b156111025760405162461bcd60e51b81526004016103d990611848565b73__$c43b1d7058274a71a9734d16e6b6586431$__63487c6960866111263061135e565b6040516001600160e01b031960e085901b168152611153929190339063738f112760e11b9060040161187f565b602060405180830381865af4158015611170573d6000803e3d6000fd5b505050506040513d601f19601f82011682018060405250810190611194919061182b565b6111e05760405162461bcd60e51b815260206004820152601b60248201527f536574526f6c65537461747573204163636573732044656e696564000000000060448201526064016103d9565b604051744c4956454c595f414e4f4e594d4f55535f524f4c4560581b602082015260350160405160208183030381529060405280519060200120841415801561125e5750604051704c4956454c595f41444d494e5f524f4c4560781b6020820152603101604051602081830303815290604052805190602001208414155b80156112a65750604051774c4956454c595f53595354454d5f41444d494e5f524f4c4560401b6020820152603801604051602081830303815290604052805190602001208414155b6112f25760405162461bcd60e51b815260206004820152601a60248201527f496c6c6567616c204368616e676520526f6c652053746174757300000000000060448201526064016103d9565b60008481526002860160205260409020805461130d906117db565b905060000361132e5760405162461bcd60e51b81526004016103d9906119e3565b5050600091825260029283016020526040909120918201805460ff19169115159190911790556001908101549091565b6040516bffffffffffffffffffffffff19606083901b166020820152600090603401604051602081830303815290604052805190602001209050919050565b6000610aaf838361141f565b6000610ab2825490565b6001600160a01b03811660009081526001830160205260408120541515610aaf565b6000610aaf836001600160a01b03841661146e565b606060006113f783611561565b9392505050565b6000610aaf836001600160a01b03841661141f565b6000610aaf838361146e565b600081815260018301602052604081205461146657508154600181810184556000848152602080822090930184905584548482528286019093526040902091909155610ab2565b506000610ab2565b60008181526001830160205260408120548015611557576000611492600183611a0b565b85549091506000906114a690600190611a0b565b905081811461150b5760008660000182815481106114c6576114c6611a30565b90600052602060002001549050808760000184815481106114e9576114e9611a30565b6000918252602080832090910192909255918252600188019052604090208390555b855486908061151c5761151c611a46565b600190038181906000526020600020016000905590558560010160008681526020019081526020016000206000905560019350505050610ab2565b6000915050610ab2565b6060816000018054806020026020016040519081016040528092919081815260200182805480156115b157602002820191906000526020600020905b81548152602001906001019080831161159d575b50505050509050919050565b6000806000606084860312156115d257600080fd5b833592506020840135915060408401356001600160a01b03811681146115f757600080fd5b809150509250925092565b6000806040838503121561161557600080fd5b50508035926020909101359150565b606081526000845180606084015260005b818110156116525760208188018101516080868401015201611635565b81811115611664576000608083860101525b5060208301949094525090151560408201526080601f909201601f19160101919050565b801515811461169657600080fd5b50565b6000806000806000608086880312156116b157600080fd5b85359450602086013567ffffffffffffffff808211156116d057600080fd5b818801915088601f8301126116e457600080fd5b8135818111156116f357600080fd5b89602082850101111561170557600080fd5b60208301965080955050505060408601359150606086013561172681611688565b809150509295509295909350565b6020808252825182820181905260009190848201906040850190845b818110156117755783516001600160a01b031683529284019291840191600101611750565b50909695505050505050565b60008060006060848603121561179657600080fd5b505081359360208301359350604090920135919050565b6000806000606084860312156117c257600080fd5b833592506020840135915060408401356115f781611688565b600181811c908216806117ef57607f821691505b60208210810361180f57634e487b7160e01b600052602260045260246000fd5b50919050565b634e487b7160e01b600052602160045260246000fd5b60006020828403121561183d57600080fd5b81516113f781611688565b60208082526017908201527f536166654d6f64653a2043616c6c2052656a6563746564000000000000000000604082015260600190565b93845260208401929092526001600160a01b031660408301526001600160e01b031916606082015260800190565b8183823760009101908152919050565b634e487b7160e01b600052604160045260246000fd5b601f82111561191d57600081815260208120601f850160051c810160208610156118fa5750805b601f850160051c820191505b8181101561191957828155600101611906565b5050505b505050565b67ffffffffffffffff83111561193a5761193a6118bd565b61194e8361194883546117db565b836118d3565b6000601f841160018114611982576000851561196a5750838201355b600019600387901b1c1916600186901b1783556119dc565b600083815260209020601f19861690835b828110156119b35786850135825560209485019460019092019101611993565b50868210156119d05760001960f88860031b161c19848701351681555b505060018560011b0183555b5050505050565b6020808252600e908201526d149bdb1948139bdd08119bdd5b9960921b604082015260600190565b600082821015611a2b57634e487b7160e01b600052601160045260246000fd5b500390565b634e487b7160e01b600052603260045260246000fd5b634e487b7160e01b600052603160045260246000fdfea2646970667358221220c283cb93b11b263664a4656d32b058db021e1e6b0e02a27ae7858b2677bc807964736f6c634300080f0033",
  "libraries": {
    "LAccessControl": "0x5FbDB2315678afecb367f032d93F642f64180aa3"
  },
  "devdoc": {
    "kind": "dev",
    "methods": {},
    "version": 1
  },
  "userdoc": {
    "kind": "user",
    "methods": {},
    "version": 1
  },
  "storageLayout": {
    "storage": [],
    "types": null
  }
}