{
  "contractName": "DomainManager",
  "sourceName": "src/contracts/acl/scope/DomainManager.sol",
  "abi": [
    {
      "inputs": [],
      "stateMutability": "nonpayable",
      "type": "constructor"
    },
    {
      "anonymous": false,
      "inputs": [
        {
          "indexed": true,
          "internalType": "address",
          "name": "sender",
          "type": "address"
        },
        {
          "indexed": true,
          "internalType": "bytes32",
          "name": "agentId",
          "type": "bytes32"
        },
        {
          "indexed": true,
          "internalType": "bytes32",
          "name": "policyId",
          "type": "bytes32"
        },
        {
          "indexed": false,
          "internalType": "enum IACLCommons.ActionType",
          "name": "action",
          "type": "uint8"
        }
      ],
      "name": "AgentReferredByPolicyUpdated",
      "type": "event"
    },
    {
      "anonymous": false,
      "inputs": [
        {
          "indexed": true,
          "internalType": "address",
          "name": "sender",
          "type": "address"
        },
        {
          "indexed": true,
          "internalType": "bytes32",
          "name": "agentId",
          "type": "bytes32"
        },
        {
          "indexed": true,
          "internalType": "bytes32",
          "name": "scopeId",
          "type": "bytes32"
        },
        {
          "indexed": false,
          "internalType": "enum IACLCommons.ActionType",
          "name": "action",
          "type": "uint8"
        }
      ],
      "name": "AgentReferredByScopeUpdated",
      "type": "event"
    },
    {
      "anonymous": false,
      "inputs": [
        {
          "indexed": true,
          "internalType": "address",
          "name": "sender",
          "type": "address"
        },
        {
          "indexed": true,
          "internalType": "bytes32",
          "name": "domainId",
          "type": "bytes32"
        },
        {
          "indexed": false,
          "internalType": "enum IACLCommons.ActivityStatus",
          "name": "acstat",
          "type": "uint8"
        }
      ],
      "name": "DomainActivityUpdated",
      "type": "event"
    },
    {
      "anonymous": false,
      "inputs": [
        {
          "indexed": true,
          "internalType": "address",
          "name": "sender",
          "type": "address"
        },
        {
          "indexed": true,
          "internalType": "bytes32",
          "name": "domainId",
          "type": "bytes32"
        },
        {
          "indexed": true,
          "internalType": "bytes32",
          "name": "adminId",
          "type": "bytes32"
        }
      ],
      "name": "DomainAdminUpdated",
      "type": "event"
    },
    {
      "anonymous": false,
      "inputs": [
        {
          "indexed": true,
          "internalType": "address",
          "name": "sender",
          "type": "address"
        },
        {
          "indexed": true,
          "internalType": "bytes32",
          "name": "domainId",
          "type": "bytes32"
        },
        {
          "indexed": false,
          "internalType": "uint16",
          "name": "agentLimit",
          "type": "uint16"
        }
      ],
      "name": "DomainAgentLimitUpdated",
      "type": "event"
    },
    {
      "anonymous": false,
      "inputs": [
        {
          "indexed": true,
          "internalType": "address",
          "name": "sender",
          "type": "address"
        },
        {
          "indexed": true,
          "internalType": "bytes32",
          "name": "domainId",
          "type": "bytes32"
        },
        {
          "indexed": false,
          "internalType": "enum IACLCommons.AlterabilityStatus",
          "name": "alstat",
          "type": "uint8"
        }
      ],
      "name": "DomainAlterabilityUpdated",
      "type": "event"
    },
    {
      "anonymous": false,
      "inputs": [
        {
          "indexed": true,
          "internalType": "address",
          "name": "sender",
          "type": "address"
        },
        {
          "indexed": true,
          "internalType": "bytes32",
          "name": "domainId",
          "type": "bytes32"
        },
        {
          "indexed": false,
          "internalType": "uint16",
          "name": "realmLimit",
          "type": "uint16"
        }
      ],
      "name": "DomainRealmLimitUpdated",
      "type": "event"
    },
    {
      "anonymous": false,
      "inputs": [
        {
          "indexed": true,
          "internalType": "address",
          "name": "sender",
          "type": "address"
        },
        {
          "indexed": true,
          "internalType": "bytes32",
          "name": "domainId",
          "type": "bytes32"
        },
        {
          "indexed": true,
          "internalType": "bytes32",
          "name": "adminId",
          "type": "bytes32"
        }
      ],
      "name": "DomainRegistered",
      "type": "event"
    },
    {
      "anonymous": false,
      "inputs": [
        {
          "indexed": true,
          "internalType": "address",
          "name": "sender",
          "type": "address"
        },
        {
          "indexed": true,
          "internalType": "address",
          "name": "proxy",
          "type": "address"
        },
        {
          "indexed": true,
          "internalType": "address",
          "name": "subject",
          "type": "address"
        },
        {
          "indexed": false,
          "internalType": "string",
          "name": "name",
          "type": "string"
        },
        {
          "indexed": false,
          "internalType": "string",
          "name": "version",
          "type": "string"
        },
        {
          "indexed": false,
          "internalType": "uint16",
          "name": "initCount",
          "type": "uint16"
        }
      ],
      "name": "Initialized",
      "type": "event"
    },
    {
      "anonymous": false,
      "inputs": [
        {
          "indexed": true,
          "internalType": "address",
          "name": "sender",
          "type": "address"
        },
        {
          "indexed": true,
          "internalType": "address",
          "name": "proxy",
          "type": "address"
        },
        {
          "indexed": false,
          "internalType": "address",
          "name": "acl",
          "type": "address"
        }
      ],
      "name": "ProxyAccessControlUpdated",
      "type": "event"
    },
    {
      "anonymous": false,
      "inputs": [
        {
          "indexed": true,
          "internalType": "address",
          "name": "sender",
          "type": "address"
        },
        {
          "indexed": true,
          "internalType": "address",
          "name": "proxy",
          "type": "address"
        },
        {
          "indexed": false,
          "internalType": "address",
          "name": "newAdmin",
          "type": "address"
        }
      ],
      "name": "ProxyLocalAdminUpdated",
      "type": "event"
    },
    {
      "anonymous": false,
      "inputs": [
        {
          "indexed": true,
          "internalType": "address",
          "name": "sender",
          "type": "address"
        },
        {
          "indexed": true,
          "internalType": "address",
          "name": "proxy",
          "type": "address"
        },
        {
          "indexed": false,
          "internalType": "enum IBaseProxy.ProxySafeModeStatus",
          "name": "sstat",
          "type": "uint8"
        }
      ],
      "name": "ProxySafeModeUpdated",
      "type": "event"
    },
    {
      "anonymous": false,
      "inputs": [
        {
          "indexed": true,
          "internalType": "address",
          "name": "sender",
          "type": "address"
        },
        {
          "indexed": true,
          "internalType": "address",
          "name": "proxy",
          "type": "address"
        },
        {
          "indexed": false,
          "internalType": "enum IBaseProxy.ProxyUpgradabilityStatus",
          "name": "ustat",
          "type": "uint8"
        }
      ],
      "name": "ProxyUpdatabilityUpdated",
      "type": "event"
    },
    {
      "anonymous": false,
      "inputs": [
        {
          "indexed": true,
          "internalType": "address",
          "name": "sender",
          "type": "address"
        },
        {
          "indexed": true,
          "internalType": "address",
          "name": "proxy",
          "type": "address"
        },
        {
          "indexed": true,
          "internalType": "address",
          "name": "newImplementation",
          "type": "address"
        }
      ],
      "name": "ProxyUpgraded",
      "type": "event"
    },
    {
      "anonymous": false,
      "inputs": [
        {
          "indexed": true,
          "internalType": "address",
          "name": "sender",
          "type": "address"
        },
        {
          "indexed": true,
          "internalType": "bytes32",
          "name": "scopeId",
          "type": "bytes32"
        },
        {
          "indexed": true,
          "internalType": "bytes32",
          "name": "agentId",
          "type": "bytes32"
        },
        {
          "indexed": false,
          "internalType": "enum IACLCommons.ActionType",
          "name": "action",
          "type": "uint8"
        }
      ],
      "name": "ScopeReferredByAgentUpdated",
      "type": "event"
    },
    {
      "anonymous": false,
      "inputs": [
        {
          "indexed": true,
          "internalType": "address",
          "name": "sender",
          "type": "address"
        },
        {
          "indexed": true,
          "internalType": "bytes32",
          "name": "scopeId",
          "type": "bytes32"
        },
        {
          "indexed": true,
          "internalType": "bytes32",
          "name": "policyId",
          "type": "bytes32"
        },
        {
          "indexed": false,
          "internalType": "enum IACLCommons.ActionType",
          "name": "action",
          "type": "uint8"
        }
      ],
      "name": "ScopeReferredByPolicyUpdated",
      "type": "event"
    },
    {
      "stateMutability": "payable",
      "type": "fallback"
    },
    {
      "inputs": [],
      "name": "CTX_MESSAGE_TYPEHASH",
      "outputs": [
        {
          "internalType": "bytes32",
          "name": "",
          "type": "bytes32"
        }
      ],
      "stateMutability": "view",
      "type": "function"
    },
    {
      "inputs": [],
      "name": "FUNCTION_MESSAGE_TYPEHASH",
      "outputs": [
        {
          "internalType": "bytes32",
          "name": "",
          "type": "bytes32"
        }
      ],
      "stateMutability": "view",
      "type": "function"
    },
    {
      "inputs": [],
      "name": "PREDICT_CTX_MESSAGE_TYPEHASH",
      "outputs": [
        {
          "internalType": "bytes32",
          "name": "",
          "type": "bytes32"
        }
      ],
      "stateMutability": "view",
      "type": "function"
    },
    {
      "inputs": [],
      "name": "TYPE_HASH",
      "outputs": [
        {
          "internalType": "bytes32",
          "name": "",
          "type": "bytes32"
        }
      ],
      "stateMutability": "view",
      "type": "function"
    },
    {
      "inputs": [],
      "name": "accessControlManager",
      "outputs": [
        {
          "internalType": "address",
          "name": "",
          "type": "address"
        }
      ],
      "stateMutability": "view",
      "type": "function"
    },
    {
      "inputs": [],
      "name": "contractName",
      "outputs": [
        {
          "internalType": "string",
          "name": "",
          "type": "string"
        }
      ],
      "stateMutability": "view",
      "type": "function"
    },
    {
      "inputs": [],
      "name": "contractVersion",
      "outputs": [
        {
          "internalType": "string",
          "name": "",
          "type": "string"
        }
      ],
      "stateMutability": "view",
      "type": "function"
    },
    {
      "inputs": [
        {
          "internalType": "bytes32",
          "name": "domainId",
          "type": "bytes32"
        },
        {
          "internalType": "address",
          "name": "account",
          "type": "address"
        }
      ],
      "name": "domainCheckAdmin",
      "outputs": [
        {
          "internalType": "bool",
          "name": "",
          "type": "bool"
        }
      ],
      "stateMutability": "view",
      "type": "function"
    },
    {
      "inputs": [
        {
          "internalType": "bytes32",
          "name": "domainId",
          "type": "bytes32"
        }
      ],
      "name": "domainCheckId",
      "outputs": [
        {
          "internalType": "bool",
          "name": "",
          "type": "bool"
        }
      ],
      "stateMutability": "view",
      "type": "function"
    },
    {
      "inputs": [
        {
          "internalType": "string",
          "name": "domainName",
          "type": "string"
        }
      ],
      "name": "domainCheckName",
      "outputs": [
        {
          "internalType": "bool",
          "name": "",
          "type": "bool"
        }
      ],
      "stateMutability": "view",
      "type": "function"
    },
    {
      "inputs": [
        {
          "internalType": "bytes32[]",
          "name": "requests",
          "type": "bytes32[]"
        }
      ],
      "name": "domainDeleteActivity",
      "outputs": [
        {
          "internalType": "bool",
          "name": "",
          "type": "bool"
        }
      ],
      "stateMutability": "nonpayable",
      "type": "function"
    },
    {
      "inputs": [
        {
          "internalType": "bytes32",
          "name": "domainId",
          "type": "bytes32"
        }
      ],
      "name": "domainGetInfo",
      "outputs": [
        {
          "components": [
            {
              "internalType": "bytes32",
              "name": "adminId",
              "type": "bytes32"
            },
            {
              "internalType": "uint16",
              "name": "realmLimit",
              "type": "uint16"
            },
            {
              "internalType": "uint16",
              "name": "agentLimit",
              "type": "uint16"
            },
            {
              "internalType": "uint16",
              "name": "referredByAgent",
              "type": "uint16"
            },
            {
              "internalType": "uint16",
              "name": "referredByPolicy",
              "type": "uint16"
            },
            {
              "internalType": "enum IACLCommons.AgentType",
              "name": "adminType",
              "type": "uint8"
            },
            {
              "internalType": "enum IACLCommons.ActivityStatus",
              "name": "acstat",
              "type": "uint8"
            },
            {
              "internalType": "enum IACLCommons.AlterabilityStatus",
              "name": "alstate",
              "type": "uint8"
            },
            {
              "internalType": "string",
              "name": "name",
              "type": "string"
            }
          ],
          "internalType": "struct IDomainManagement.DomainInfo",
          "name": "",
          "type": "tuple"
        }
      ],
      "stateMutability": "view",
      "type": "function"
    },
    {
      "inputs": [
        {
          "internalType": "bytes32",
          "name": "domainId",
          "type": "bytes32"
        }
      ],
      "name": "domainGetRealms",
      "outputs": [
        {
          "internalType": "bytes32[]",
          "name": "",
          "type": "bytes32[]"
        }
      ],
      "stateMutability": "view",
      "type": "function"
    },
    {
      "inputs": [
        {
          "internalType": "bytes32",
          "name": "domainId",
          "type": "bytes32"
        },
        {
          "internalType": "bytes32",
          "name": "contextId",
          "type": "bytes32"
        }
      ],
      "name": "domainHasContext",
      "outputs": [
        {
          "internalType": "bool",
          "name": "",
          "type": "bool"
        }
      ],
      "stateMutability": "view",
      "type": "function"
    },
    {
      "inputs": [
        {
          "internalType": "bytes32",
          "name": "domainId",
          "type": "bytes32"
        },
        {
          "internalType": "bytes32",
          "name": "functionId",
          "type": "bytes32"
        }
      ],
      "name": "domainHasFunction",
      "outputs": [
        {
          "internalType": "bool",
          "name": "",
          "type": "bool"
        }
      ],
      "stateMutability": "view",
      "type": "function"
    },
    {
      "inputs": [
        {
          "internalType": "bytes32",
          "name": "domainId",
          "type": "bytes32"
        },
        {
          "internalType": "bytes32",
          "name": "realmId",
          "type": "bytes32"
        }
      ],
      "name": "domainHasRealm",
      "outputs": [
        {
          "internalType": "bool",
          "name": "",
          "type": "bool"
        }
      ],
      "stateMutability": "view",
      "type": "function"
    },
    {
      "inputs": [
        {
          "components": [
            {
              "internalType": "bytes32",
              "name": "adminId",
              "type": "bytes32"
            },
            {
              "internalType": "uint16",
              "name": "realmLimit",
              "type": "uint16"
            },
            {
              "internalType": "uint16",
              "name": "agentLimit",
              "type": "uint16"
            },
            {
              "internalType": "enum IACLCommons.ActivityStatus",
              "name": "acstat",
              "type": "uint8"
            },
            {
              "internalType": "enum IACLCommons.AlterabilityStatus",
              "name": "alstat",
              "type": "uint8"
            },
            {
              "internalType": "string",
              "name": "name",
              "type": "string"
            }
          ],
          "internalType": "struct IDomainManagement.DomainRegisterRequest[]",
          "name": "requests",
          "type": "tuple[]"
        }
      ],
      "name": "domainRegister",
      "outputs": [
        {
          "internalType": "bool",
          "name": "",
          "type": "bool"
        }
      ],
      "stateMutability": "nonpayable",
      "type": "function"
    },
    {
      "inputs": [],
      "name": "domainSeparator",
      "outputs": [
        {
          "internalType": "bytes32",
          "name": "",
          "type": "bytes32"
        }
      ],
      "stateMutability": "view",
      "type": "function"
    },
    {
      "inputs": [
        {
          "components": [
            {
              "internalType": "bytes32",
              "name": "id",
              "type": "bytes32"
            },
            {
              "internalType": "enum IACLCommons.ActivityStatus",
              "name": "acstat",
              "type": "uint8"
            }
          ],
          "internalType": "struct IACLCommons.UpdateActivityRequest[]",
          "name": "requests",
          "type": "tuple[]"
        }
      ],
      "name": "domainUpdateActivityStatus",
      "outputs": [
        {
          "internalType": "bool",
          "name": "",
          "type": "bool"
        }
      ],
      "stateMutability": "nonpayable",
      "type": "function"
    },
    {
      "inputs": [
        {
          "components": [
            {
              "internalType": "bytes32",
              "name": "id",
              "type": "bytes32"
            },
            {
              "internalType": "bytes32",
              "name": "adminId",
              "type": "bytes32"
            }
          ],
          "internalType": "struct IACLCommons.UpdateAdminRequest[]",
          "name": "requests",
          "type": "tuple[]"
        }
      ],
      "name": "domainUpdateAdmin",
      "outputs": [
        {
          "internalType": "bool",
          "name": "",
          "type": "bool"
        }
      ],
      "stateMutability": "nonpayable",
      "type": "function"
    },
    {
      "inputs": [
        {
          "components": [
            {
              "internalType": "bytes32",
              "name": "scopeId",
              "type": "bytes32"
            },
            {
              "internalType": "uint16",
              "name": "agentLimit",
              "type": "uint16"
            }
          ],
          "internalType": "struct IACLCommons.ScopeUpdateAgentLimitRequest[]",
          "name": "requests",
          "type": "tuple[]"
        }
      ],
      "name": "domainUpdateAgentLimit",
      "outputs": [
        {
          "internalType": "bool",
          "name": "",
          "type": "bool"
        }
      ],
      "stateMutability": "nonpayable",
      "type": "function"
    },
    {
      "inputs": [
        {
          "components": [
            {
              "internalType": "bytes32",
              "name": "id",
              "type": "bytes32"
            },
            {
              "internalType": "enum IACLCommons.AlterabilityStatus",
              "name": "alstat",
              "type": "uint8"
            }
          ],
          "internalType": "struct IACLCommons.UpdateAlterabilityRequest[]",
          "name": "requests",
          "type": "tuple[]"
        }
      ],
      "name": "domainUpdateAlterabilityStatus",
      "outputs": [
        {
          "internalType": "bool",
          "name": "",
          "type": "bool"
        }
      ],
      "stateMutability": "nonpayable",
      "type": "function"
    },
    {
      "inputs": [
        {
          "components": [
            {
              "internalType": "bytes32",
              "name": "domainId",
              "type": "bytes32"
            },
            {
              "internalType": "uint16",
              "name": "realmLimit",
              "type": "uint16"
            }
          ],
          "internalType": "struct IDomainManagement.DomainUpdateRealmLimitRequest[]",
          "name": "requests",
          "type": "tuple[]"
        }
      ],
      "name": "domainUpdateRealmLimit",
      "outputs": [
        {
          "internalType": "bool",
          "name": "",
          "type": "bool"
        }
      ],
      "stateMutability": "nonpayable",
      "type": "function"
    },
    {
      "inputs": [],
      "name": "initVersion",
      "outputs": [
        {
          "internalType": "uint16",
          "name": "",
          "type": "uint16"
        }
      ],
      "stateMutability": "view",
      "type": "function"
    },
    {
      "inputs": [
        {
          "internalType": "string",
          "name": "contractName",
          "type": "string"
        },
        {
          "internalType": "string",
          "name": "contractVersion",
          "type": "string"
        },
        {
          "internalType": "address",
          "name": "accessControlManager",
          "type": "address"
        }
      ],
      "name": "initialize",
      "outputs": [],
      "stateMutability": "nonpayable",
      "type": "function"
    },
    {
      "inputs": [],
      "name": "localAdmin",
      "outputs": [
        {
          "internalType": "address",
          "name": "",
          "type": "address"
        }
      ],
      "stateMutability": "view",
      "type": "function"
    },
    {
      "inputs": [],
      "name": "proxiableUUID",
      "outputs": [
        {
          "internalType": "bytes32",
          "name": "",
          "type": "bytes32"
        }
      ],
      "stateMutability": "view",
      "type": "function"
    },
    {
      "inputs": [],
      "name": "proxyInfo",
      "outputs": [
        {
          "components": [
            {
              "internalType": "bytes32",
              "name": "domainSeparator",
              "type": "bytes32"
            },
            {
              "internalType": "string",
              "name": "name",
              "type": "string"
            },
            {
              "internalType": "string",
              "name": "version",
              "type": "string"
            },
            {
              "internalType": "address",
              "name": "acl",
              "type": "address"
            },
            {
              "internalType": "address",
              "name": "subject",
              "type": "address"
            },
            {
              "internalType": "address",
              "name": "localAdmin",
              "type": "address"
            },
            {
              "internalType": "uint16",
              "name": "initVersion",
              "type": "uint16"
            },
            {
              "internalType": "enum IBaseProxy.ProxySafeModeStatus",
              "name": "sstat",
              "type": "uint8"
            },
            {
              "internalType": "enum IBaseProxy.ProxyUpgradabilityStatus",
              "name": "ustat",
              "type": "uint8"
            }
          ],
          "internalType": "struct IProxy.ProxyInfo",
          "name": "",
          "type": "tuple"
        }
      ],
      "stateMutability": "view",
      "type": "function"
    },
    {
      "inputs": [],
      "name": "safeModeStatus",
      "outputs": [
        {
          "internalType": "enum IBaseProxy.ProxySafeModeStatus",
          "name": "",
          "type": "uint8"
        }
      ],
      "stateMutability": "view",
      "type": "function"
    },
    {
      "inputs": [
        {
          "internalType": "address",
          "name": "acl",
          "type": "address"
        }
      ],
      "name": "setAccessControlManager",
      "outputs": [
        {
          "internalType": "bool",
          "name": "",
          "type": "bool"
        }
      ],
      "stateMutability": "nonpayable",
      "type": "function"
    },
    {
      "inputs": [
        {
          "internalType": "address",
          "name": "newLocalAdmin",
          "type": "address"
        }
      ],
      "name": "setLocalAdmin",
      "outputs": [
        {
          "internalType": "bool",
          "name": "",
          "type": "bool"
        }
      ],
      "stateMutability": "nonpayable",
      "type": "function"
    },
    {
      "inputs": [
        {
          "internalType": "enum IBaseProxy.ProxySafeModeStatus",
          "name": "sstat",
          "type": "uint8"
        }
      ],
      "name": "setSafeModeStatus",
      "outputs": [
        {
          "internalType": "bool",
          "name": "",
          "type": "bool"
        }
      ],
      "stateMutability": "nonpayable",
      "type": "function"
    },
    {
      "inputs": [
        {
          "internalType": "enum IBaseProxy.ProxyUpgradabilityStatus",
          "name": "ustat",
          "type": "uint8"
        }
      ],
      "name": "setUpgradabilityStatus",
      "outputs": [
        {
          "internalType": "bool",
          "name": "",
          "type": "bool"
        }
      ],
      "stateMutability": "nonpayable",
      "type": "function"
    },
    {
      "inputs": [],
      "name": "subjectAddress",
      "outputs": [
        {
          "internalType": "address",
          "name": "",
          "type": "address"
        }
      ],
      "stateMutability": "view",
      "type": "function"
    },
    {
      "inputs": [
        {
          "internalType": "bytes4",
          "name": "interfaceId",
          "type": "bytes4"
        }
      ],
      "name": "supportsInterface",
      "outputs": [
        {
          "internalType": "bool",
          "name": "",
          "type": "bool"
        }
      ],
      "stateMutability": "view",
      "type": "function"
    },
    {
      "inputs": [],
      "name": "upgradabilityStatus",
      "outputs": [
        {
          "internalType": "enum IBaseProxy.ProxyUpgradabilityStatus",
          "name": "",
          "type": "uint8"
        }
      ],
      "stateMutability": "view",
      "type": "function"
    },
    {
      "inputs": [
        {
          "internalType": "address",
          "name": "newImplementation",
          "type": "address"
        },
        {
          "internalType": "bytes",
          "name": "data",
          "type": "bytes"
        },
        {
          "internalType": "bool",
          "name": "forceCall",
          "type": "bool"
        }
      ],
      "name": "upgradeTo",
      "outputs": [
        {
          "internalType": "bytes",
          "name": "",
          "type": "bytes"
        }
      ],
      "stateMutability": "nonpayable",
      "type": "function"
    },
    {
      "inputs": [
        {
          "internalType": "address",
          "name": "recepient",
          "type": "address"
        }
      ],
      "name": "withdrawBalance",
      "outputs": [
        {
          "internalType": "uint256",
          "name": "",
          "type": "uint256"
        }
      ],
      "stateMutability": "nonpayable",
      "type": "function"
    },
    {
      "stateMutability": "payable",
      "type": "receive"
    }
  ],
  "bytecode": "0x60a0604052306080523480156200001557600080fd5b506200004360017f360894a13ba1a3210667c828492db98dca3e2076cc3735a920a3ca505d382bbd62000125565b7f360894a13ba1a3210667c828492db98dca3e2076cc3735a920a3ca505d382bbc146200007457620000746200014d565b620000a160017fb53127684a568b3173ae13b9f8a6016e243e63b6e8ee1178d6a717850b5d610462000125565b6000805160206200545a83398151915214620000c157620000c16200014d565b33620000ea6000805160206200545a83398151915260001b6200012260201b62002c8d1760201c565b80546001600160a01b0319166001600160a01b03929092169190911790556002805461ffff60a01b1916608160a11b17905562000163565b90565b818103818111156200014757634e487b7160e01b600052601160045260246000fd5b92915050565b634e487b7160e01b600052600160045260246000fd5b608051615287620001d36000396000818161078e015281816107d7015281816109c701528181610a0701528181610dfd01528181610e3d01528181610ff6015281816116a1015281816116e101528181611f5901528181611f9901528181612b130152612b5301526152876000f3fe6080604052600436106102115760003560e01c80638d126c3911610117578063d9dc1f19116100a5578063f3d5f2e51161006c578063f3d5f2e5146106d0578063f698da25146106f0578063f708ceb014610705578063f94a0adb14610725578063fbad36841461073a57005b8063d9dc1f1914610608578063da10e6a814610628578063df4a69c314610648578063f0b15def14610668578063f33b6d481461069c57005b8063b4a0bdf3116100e9578063b4a0bdf314610568578063b5fd948d14610586578063ba313afc146105a6578063c7df2add146105c6578063d49e164d146105e657005b80638d126c39146104eb578063994ae65c1461050b578063a0a8e4601461052b578063a304e3531461054057005b806352d1902d1161019f5780636ea5d24d116101665780636ea5d24d1461043c5780637147855d14610469578063756af45f1461049657806375d0c0dc146104b65780638b2b1280146104cb57005b806352d1902d1461038657806358dbc45d1461039b5780635ed3fd9e146103c857806361bffd28146103e857806364d4c8191461040857005b806334109de2116101e357806334109de2146102af57806338d38c97146102f1578063399d6e3814610319578063476f63621461033957806351f1d2ff1461036657005b806301ffc9a71461021a578063077f224a1461024f5780630e32cb861461026f578063116234801461028f57005b3661021857005b005b34801561022657600080fd5b5061023a6102353660046146fe565b610759565b60405190151581526020015b60405180910390f35b34801561025b57600080fd5b5061021861026a366004614781565b610784565b34801561027b57600080fd5b5061023a61028a366004614802565b6109bb565b34801561029b57600080fd5b5061023a6102aa366004614862565b610cd4565b3480156102bb57600080fd5b506102e37f7aabe2571874f2a330ea11c8972d9cc3792d973efc6b36e3e29005861a34418881565b604051908152602001610246565b3480156102fd57600080fd5b50610306610ddd565b60405161ffff9091168152602001610246565b34801561032557600080fd5b5061023a6103343660046148b1565b610df1565b34801561034557600080fd5b506103596103543660046148ce565b610f5f565b60405161024691906148e7565b34801561037257600080fd5b5061023a61038136600461492b565b610fa7565b34801561039257600080fd5b506102e3610fe9565b3480156103a757600080fd5b506103b061106d565b6040516001600160a01b039091168152602001610246565b3480156103d457600080fd5b5061023a6103e3366004614961565b611077565b3480156103f457600080fd5b5061023a610403366004614862565b611111565b34801561041457600080fd5b506102e37f8b73c3c69bb8fe3d512ecc4cf759cc79239f7b179b0ffacaa9a75d522b39400f81565b34801561044857600080fd5b5061045c6104573660046148ce565b611469565b6040516102469190614a16565b34801561047557600080fd5b50610489610484366004614aec565b611695565b6040516102469190614bbe565b3480156104a257600080fd5b506102e36104b1366004614802565b6117f0565b3480156104c257600080fd5b50610489611899565b3480156104d757600080fd5b5061023a6104e63660046148ce565b61192b565b3480156104f757600080fd5b5061023a610506366004614862565b61195c565b34801561051757600080fd5b5061023a610526366004614961565b611a80565b34801561053757600080fd5b50610489611ab9565b34801561054c57600080fd5b50600254600160a01b900460ff165b6040516102469190614bea565b34801561057457600080fd5b506002546001600160a01b03166103b0565b34801561059257600080fd5b5061023a6105a1366004614c42565b611ac8565b3480156105b257600080fd5b5061023a6105c1366004614961565b611b03565b3480156105d257600080fd5b5061023a6105e1366004614862565b611b68565b3480156105f257600080fd5b506105fb611d23565b6040516102469190614c78565b34801561061457600080fd5b5061023a610623366004614802565b611f4d565b34801561063457600080fd5b5061023a610643366004614c42565b612106565b34801561065457600080fd5b5061023a610663366004614d45565b612902565b34801561067457600080fd5b506102e37ffc434588684348dd50856b075c47bed14245c1030aa04c32955af5549981462781565b3480156106a857600080fd5b506102e37f31238da5536ef05686d34ccf0de000a4926293566b3711f6e73963b73ad026fe81565b3480156106dc57600080fd5b5061023a6106eb366004614862565b6129e4565b3480156106fc57600080fd5b506102e3612afd565b34801561071157600080fd5b5061023a6107203660046148b1565b612b07565b34801561073157600080fd5b506103b0612c83565b34801561074657600080fd5b50600254600160a81b900460ff1661055b565b60006001600160e01b0319821663f7da362160e01b148061077e575061077e82612c90565b92915050565b6001600160a01b037f00000000000000000000000000000000000000000000000000000000000000001630036107d55760405162461bcd60e51b81526004016107cc90614d71565b60405180910390fd5b7f00000000000000000000000000000000000000000000000000000000000000006001600160a01b0316610807612ce0565b6001600160a01b03161461082d5760405162461bcd60e51b81526004016107cc90614d97565b33610836612d01565b6001600160a01b03161461087d5760405162461bcd60e51b815260206004820152600e60248201526d139bdd08105d5d1a1bdc9a5e995960921b60448201526064016107cc565b604c5462010000900460ff161580801561089f5750604c54600161ffff909116105b806108ba5750303b1580156108ba5750604c5461ffff166001145b6109065760405162461bcd60e51b815260206004820152601c60248201527f436f6e747261637420416c726561647920496e697469616c697a65640000000060448201526064016107cc565b604c805461ffff19166001179055801561092c57604c805462ff00001916620100001790555b6109398686868686612d29565b610941612ce0565b6001600160a01b031630336001600160a01b03167f247ab7b17ee489fa140c6666edc3822eefed2727610cd6e37192462b87244c6089898989610987604c5461ffff1690565b604051610998959493929190614de6565b60405180910390a480156109b357604c805462ff0000191690555b505050505050565b60006001600160a01b037f0000000000000000000000000000000000000000000000000000000000000000163003610a055760405162461bcd60e51b81526004016107cc90614d71565b7f00000000000000000000000000000000000000000000000000000000000000006001600160a01b0316610a37612ce0565b6001600160a01b031614610a5d5760405162461bcd60e51b81526004016107cc90614d97565b33610a66612d01565b6001600160a01b031614610aad5760405162461bcd60e51b815260206004820152600e60248201526d139bdd08105d5d1a1bdc9a5e995960921b60448201526064016107cc565b600160028054600160a01b900460ff1690811115610acd57610acd614983565b14610aea5760405162461bcd60e51b81526004016107cc90614e24565b6002808054600160a81b900460ff1690811115610b0957610b09614983565b14610b475760405162461bcd60e51b815260206004820152600e60248201526d496c6c6567616c2055706461746560901b60448201526064016107cc565b6001600160a01b038216610b8f5760405162461bcd60e51b815260206004820152600f60248201526e496c6c6567616c204164647265737360881b60448201526064016107cc565b6002546001600160a01b031615610bcc57610bb063d9dc1f1960e01b612d3d565b610bcc5760405162461bcd60e51b81526004016107cc90614e46565b6040516301ffc9a760e01b8152637a32793760e01b60048201526001600160a01b038316906301ffc9a790602401602060405180830381865afa158015610c17573d6000803e3d6000fd5b505050506040513d601f19601f82011682018060405250810190610c3b9190614e69565b610c755760405162461bcd60e51b815260206004820152600b60248201526a125b1b1959d85b081050d360aa1b60448201526064016107cc565b600280546001600160a01b0319166001600160a01b038416908117909155604051908152309033907f410bf468eebeeed60acaedb904afb2db7c0bb0131f7d14c3714d81b14fe8ed3c906020015b60405180910390a35060015b919050565b600080610ce66222c46960e71b612f29565b905060005b83811015610dd2576001858583818110610d0757610d07614e86565b9050604002016020016020810190610d1f9190614e9c565b6004811115610d3057610d30614983565b11610d705760405162461bcd60e51b815260206004820152601060248201526f496c6c6567616c20416374697669747960801b60448201526064016107cc565b610dbf858583818110610d8557610d85614e86565b90506040020160000135868684818110610da157610da1614e86565b9050604002016020016020810190610db99190614e9c565b8461308a565b5080610dca81614ed3565b915050610ceb565b506001949350505050565b6000610dec604c5461ffff1690565b905090565b60006001600160a01b037f0000000000000000000000000000000000000000000000000000000000000000163003610e3b5760405162461bcd60e51b81526004016107cc90614d71565b7f00000000000000000000000000000000000000000000000000000000000000006001600160a01b0316610e6d612ce0565b6001600160a01b031614610e935760405162461bcd60e51b81526004016107cc90614d97565b600160028054600160a01b900460ff1690811115610eb357610eb3614983565b14610ed05760405162461bcd60e51b81526004016107cc90614e24565b610ee0630733adc760e31b612d3d565b610efc5760405162461bcd60e51b81526004016107cc90614e46565b6002805483919060ff60a81b1916600160a81b8383811115610f2057610f20614983565b021790555030336001600160a01b03167ff5912c5e436152157ed2b4a84bc313b4b1fe09a15b941f195d23c99a1b8c45ad84604051610cc39190614bea565b6060600080610f6f6044856130e8565b9150915080610f935760408051600080825260208201909252905b50949350505050565b610f9f8260040161314a565b949350505050565b6000600460456000610fb98686613155565b815260208101919091526040016000206001015460ff166005811115610fe157610fe1614983565b149392505050565b6000306001600160a01b037f0000000000000000000000000000000000000000000000000000000000000000161461105a5760405162461bcd60e51b8152602060048201526014602482015273125b1b1959d85b0811195b1959d85d1958d85b1b60621b60448201526064016107cc565b5060008051602061523283398151915290565b6000610dec612ce0565b60008080611086604485613188565b915091508061109a5760009250505061077e565b6000806110b5846003015460446131a090919063ffffffff16565b91509150806110cb57600094505050505061077e565b6000806110e6846002015460446131b990919063ffffffff16565b91509150806110fe576000965050505050505061077e565b5060020154871494505050505092915050565b600080611124631b421cd560e31b612f29565b90506000611131336131d2565b905060005b8481101561145d57600061116887878481811061115557611155614e86565b9050604002016000013584866000613211565b805460008181526044602052604090209192506111a4919089898681811061119257611192614e86565b90506040020160000135336002613313565b60008787848181106111b8576111b8614e86565b9050604002016020013514611334576001604460008989868181106111df576111df614e86565b90506040020160200135815260200190815260200160002060010160009054906101000a900460ff16600381111561121957611219614983565b116112605760405162461bcd60e51b8152602060048201526017602482015276496c6c6567616c2041646d696e204167656e745479706560481b60448201526064016107cc565b60008061128789898681811061127857611278614e86565b905060400201602001356135fa565b915091506040516020016112ac90600080516020615212833981519152815260200190565b6040516020818303038152906040528051906020012081146113065760405162461bcd60e51b8152602060048201526013602482015272496c6c6567616c20416d696e642053636f706560681b60448201526064016107cc565b88888581811061131857611318614e86565b9050604002016020013583600001600001819055505050611376565b60408051600080516020615212833981519152602080830191909152825180830382018152918301835281519181019190912060009081526045909152205481555b6113e76044600089898681811061138f5761138f614e86565b9050604002016020013581526020019081526020016000208888858181106113b9576113b9614e86565b905060400201602001358989868181106113d5576113d5614e86565b90506040020160000135336000613313565b8686838181106113f9576113f9614e86565b9050604002016020013587878481811061141557611415614e86565b6040805191029290920135913391507f16f129e49e4e12e9aa01cfb007139afc1754e2f9c2630d95a60e4bbb533e0d3190600090a4508061145581614ed3565b915050611136565b50600195945050505050565b6114b8604080516101208101825260008082526020820181905291810182905260608101829052608081018290529060a082019081526020016000815260200160008152602001606081525090565b6000806114c66044856130e8565b915091508061152b57604080516101208101825260008082526020820181905291810182905260608101829052608081018290529060a08201908152602001600081526020016000815260408051602081810190925260008152910152949350505050565b60408051610120810182528354808252600285015461ffff908116602080850191909152600180880154600160381b8104841686880152630100000081048416606087015265010000000000900490921660808501526000928352604490529290209091015460a082019060ff1660038111156115aa576115aa614983565b81526001840154602090910190610100900460ff1660048111156115d0576115d0614983565b8152600184015460209091019062010000900460ff1660038111156115f7576115f7614983565b815260200183600301805461160b90614eec565b80601f016020809104026020016040519081016040528092919081815260200182805461163790614eec565b80156116845780601f1061165957610100808354040283529160200191611684565b820191906000526020600020905b81548152906001019060200180831161166757829003601f168201915b505050505081525092505050919050565b60606001600160a01b037f00000000000000000000000000000000000000000000000000000000000000001630036116df5760405162461bcd60e51b81526004016107cc90614d71565b7f00000000000000000000000000000000000000000000000000000000000000006001600160a01b0316611711612ce0565b6001600160a01b0316146117375760405162461bcd60e51b81526004016107cc90614d97565b600160028054600160a01b900460ff169081111561175757611757614983565b146117745760405162461bcd60e51b81526004016107cc90614e24565b6002808054600160a81b900460ff169081111561179357611793614983565b146117d25760405162461bcd60e51b815260206004820152600f60248201526e496c6c6567616c205570677261646560881b60448201526064016107cc565b6117db8461368d565b6117e684848461370e565b90505b9392505050565b6000600160028054600160a01b900460ff169081111561181257611812614983565b1461182f5760405162461bcd60e51b81526004016107cc90614e24565b61183f63756af45f60e01b612d3d565b61185b5760405162461bcd60e51b81526004016107cc90614e46565b60405147906001600160a01b038416904780156108fc02916000818181858888f19350505050158015611892573d6000803e3d6000fd5b5092915050565b6060600080546118a890614eec565b80601f01602080910402602001604051908101604052809291908181526020018280546118d490614eec565b80156119215780601f106118f657610100808354040283529160200191611921565b820191906000526020600020905b81548152906001019060200180831161190457829003601f168201915b5050505050905090565b6000600460008381526045602052604090206001015460ff16600581111561195557611955614983565b1492915050565b60008061196f631b421cd560e31b612f29565b9050600061197c336131d2565b905060005b8481101561145d5760006119a087878481811061115557611155614e86565b90508686838181106119b4576119b4614e86565b90506040020160200160208101906119cc9190614f26565b60018201805461ffff92909216600160381b0261ffff60381b19909216919091179055868683818110611a0157611a01614e86565b60400291909101359050337f48806d5518fd9b6001a8fcffeb0709a5953330f85af9a02e40a7eed1aa9d7b55898986818110611a3f57611a3f614e86565b9050604002016020016020810190611a579190614f26565b60405161ffff909116815260200160405180910390a35080611a7881614ed3565b915050611981565b60008080611a8f6044866130e8565b9150915080611aa35760009250505061077e565b611ab060048301856138c5565b95945050505050565b6060600180546118a890614eec565b60405162461bcd60e51b815260206004820152600d60248201526c139bdd0814dd5c1c1bdc9d1959609a1b60448201526000906064016107cc565b60008080611b126044856131a0565b9150915080611b265760009250505061077e565b600080611b41846002015460446131b990919063ffffffff16565b9150915080611b5757600094505050505061077e565b506002015485149250505092915050565b600080611b7b63c7df2add60e01b612f29565b90506000611b88336131d2565b905060005b8481101561145d576000611bbf878784818110611bac57611bac614e86565b9050604002016000013584866001613211565b90506000878784818110611bd557611bd5614e86565b9050604002016020016020810190611bed9190614f4a565b6003811115611bfe57611bfe614983565b03611c425760405162461bcd60e51b8152602060048201526014602482015273496c6c6567616c20416c7465726162696c69747960601b60448201526064016107cc565b868683818110611c5457611c54614e86565b9050604002016020016020810190611c6c9190614f4a565b60018201805462ff0000191662010000836003811115611c8e57611c8e614983565b0217905550868683818110611ca557611ca5614e86565b60400291909101359050337f8fc692f0aafe304e5338e6eda3c3f27366f95833d0f4f54cfd48e9416085cc54898986818110611ce357611ce3614e86565b9050604002016020016020810190611cfb9190614f4a565b604051611d089190614f6b565b60405180910390a35080611d1b81614ed3565b915050611b8d565b611d72604080516101208101825260008082526060602083018190529282018390529181018290526080810182905260a0810182905260c081018290529060e082019081526020016000905290565b604051806101200160405280611d866138dd565b815260200160008054611d9890614eec565b80601f0160208091040260200160405190810160405280929190818152602001828054611dc490614eec565b8015611e115780601f10611de657610100808354040283529160200191611e11565b820191906000526020600020905b815481529060010190602001808311611df457829003601f168201915b5050505050815260200160018054611e2890614eec565b80601f0160208091040260200160405190810160405280929190818152602001828054611e5490614eec565b8015611ea15780601f10611e7657610100808354040283529160200191611ea1565b820191906000526020600020905b815481529060010190602001808311611e8457829003601f168201915b50505091835250506002546001600160a01b03166020820152604001611ec5612ce0565b6001600160a01b03168152602001611edb612d01565b6001600160a01b03168152602001611ef6604c5461ffff1690565b61ffff168152602001600260149054906101000a900460ff166002811115611f2057611f20614983565b8152602001600260159054906101000a900460ff166002811115611f4657611f46614983565b9052919050565b60006001600160a01b037f0000000000000000000000000000000000000000000000000000000000000000163003611f975760405162461bcd60e51b81526004016107cc90614d71565b7f00000000000000000000000000000000000000000000000000000000000000006001600160a01b0316611fc9612ce0565b6001600160a01b031614611fef5760405162461bcd60e51b81526004016107cc90614d97565b600160028054600160a01b900460ff169081111561200f5761200f614983565b1461202c5760405162461bcd60e51b81526004016107cc90614e24565b6002808054600160a81b900460ff169081111561204b5761204b614983565b146120895760405162461bcd60e51b815260206004820152600e60248201526d496c6c6567616c2055706461746560901b60448201526064016107cc565b61209963d9dc1f1960e01b612d3d565b6120b55760405162461bcd60e51b81526004016107cc90614e46565b6001600160a01b0382166120f55760405162461bcd60e51b8152602060048201526007602482015266125b9d985b1a5960ca1b60448201526064016107cc565b6120fe82613991565b506001919050565b600080612119631b421cd560e31b612f29565b90506000612126336131d2565b905060008061217d604051602001612161907f4c4956454c595f56455253455f53434f50455f4d41535445525f5459504500008152601e0190565b6040516020818303038152906040528051906020012084613a08565b9150915060005b868110156128f45760006121c88989848181106121a3576121a3614e86565b90506020028101906121b59190614f78565b6121c39060a0810190614f98565b613155565b90506000808281526045602052604090206001015460ff1660058111156121f1576121f1614983565b1461222f5760405162461bcd60e51b815260206004820152600e60248201526d416c72656164792045786973747360901b60448201526064016107cc565b600189898481811061224357612243614e86565b90506020028101906122559190614f78565b612266906080810190606001614e9c565b600481111561227757612277614983565b116122b75760405162461bcd60e51b815260206004820152601060248201526f496c6c6567616c20416374697669747960801b60448201526064016107cc565b60008989848181106122cb576122cb614e86565b90506020028101906122dd9190614f78565b6122ee9060a0810190608001614f4a565b60038111156122ff576122ff614983565b116123435760405162461bcd60e51b8152602060048201526014602482015273496c6c6567616c20416c7465726162696c69747960601b60448201526064016107cc565b600061238f60405160200161236990600080516020615212833981519152815260200190565b604051602081830303815290604052805190602001206044613a5e90919063ffffffff16565b604080516000805160206152128339815191526020820152919250016040516020818303038152906040528051906020012084146124065760405162461bcd60e51b8152602060048201526014602482015273496c6c6567616c20476c6f62616c2053636f706560601b60448201526064016107cc565b6002600182015462010000900460ff16600381111561242757612427614983565b101561246d5760405162461bcd60e51b8152602060048201526015602482015274496c6c6567616c20476c6f62616c2055706461746560581b60448201526064016107cc565b61247981600401613b39565b600282015461ffff16116124cf5760405162461bcd60e51b815260206004820152601760248201527f496c6c6567616c20446f6d61696e20526567697374657200000000000000000060448201526064016107cc565b80546124dc908789613b43565b6124f85760405162461bcd60e51b81526004016107cc90614e46565b6125056004820183613e63565b506000612513604484613e6f565b60018101805460ff1916600417905590508a8a8581811061253657612536614e86565b90506020028101906125489190614f78565b612559906080810190606001614e9c565b60018201805461ff00191661010083600481111561257957612579614983565b02179055508a8a8581811061259057612590614e86565b90506020028101906125a29190614f78565b6125b39060a0810190608001614f4a565b60018201805462ff00001916620100008360038111156125d5576125d5614983565b02179055508a8a858181106125ec576125ec614e86565b90506020028101906125fe9190614f78565b61260f906060810190604001614f26565b60018201805461ffff92909216600160381b0261ffff60381b199092169190911790558a8a8581811061264457612644614e86565b90506020028101906126569190614f78565b6126649060a0810190614f98565b600383019161267491908361502a565b508a8a8581811061268757612687614e86565b90506020028101906126999190614f78565b6126aa906040810190602001614f26565b60028201805461ffff191661ffff9290921691909117905560008b8b868181106126d6576126d6614e86565b90506020028101906126e89190614f78565b3514612866576001604460008d8d8881811061270657612706614e86565b90506020028101906127189190614f78565b35815260208101919091526040016000206001015460ff16600381111561274157612741614983565b116127885760405162461bcd60e51b8152602060048201526017602482015276496c6c6567616c2041646d696e204167656e745479706560481b60448201526064016107cc565b6000806127b88d8d888181106127a0576127a0614e86565b90506020028101906127b29190614f78565b356135fa565b915091506040516020016127dd90600080516020615212833981519152815260200190565b6040516020818303038152906040528051906020012081146128375760405162461bcd60e51b8152602060048201526013602482015272496c6c6567616c20416d696e642053636f706560681b60448201526064016107cc565b8c8c8781811061284957612849614e86565b905060200281019061285b9190614f78565b3583555061286b9050565b815481555b8054600081815260446020526040812061288a92909186903390613313565b8a8a8581811061289c5761289c614e86565b90506020028101906128ae9190614f78565b604051903590849033907fc0cbc4d7c6fc13a8e811669d7ca22a9a736fa7dd6c5a775cd5379593889f969690600090a450505080806128ec90614ed3565b915050612184565b506001979650505050505050565b600080806129116044866130e8565b91509150806129255760009250505061077e565b815460008181526044602052604081206001015460ff1690612946876131d2565b9050600282600381111561295c5761295c614983565b036129775761296b8382613f15565b9550505050505061077e565b600382600381111561298b5761298b614983565b036129d65760008061299e604486613f85565b91509150806129b757600097505050505050505061077e565b50600091825260050160205260409020541515945061077e9350505050565b506000979650505050505050565b6000806129f7631b421cd560e31b612f29565b90506000612a04336131d2565b905060005b8481101561145d576000612a2887878481811061115557611155614e86565b9050868683818110612a3c57612a3c614e86565b9050604002016020016020810190612a549190614f26565b60028201805461ffff191661ffff92909216919091179055868683818110612a7e57612a7e614e86565b60400291909101359050337f47788e6aab9fe304d9b35f13c2739a32c870831893093dd9c869bcc95535874a898986818110612abc57612abc614e86565b9050604002016020016020810190612ad49190614f26565b60405161ffff909116815260200160405180910390a35080612af581614ed3565b915050612a09565b6000610dec6138dd565b60006001600160a01b037f0000000000000000000000000000000000000000000000000000000000000000163003612b515760405162461bcd60e51b81526004016107cc90614d71565b7f00000000000000000000000000000000000000000000000000000000000000006001600160a01b0316612b83612ce0565b6001600160a01b031614612ba95760405162461bcd60e51b81526004016107cc90614d97565b6000612bb8604c5461ffff1690565b61ffff1611612bf45760405162461bcd60e51b81526020600482015260086024820152671393d5081253925560c21b60448201526064016107cc565b612c04630f708ceb60e41b612d3d565b612c205760405162461bcd60e51b81526004016107cc90614e46565b6002805483919060ff60a01b1916600160a01b8383811115612c4457612c44614983565b021790555030336001600160a01b03167fc08ec585c25f1907baaab6f278c5994531a2e34c59935b3fcfe813067a3b487884604051610cc39190614bea565b6000610dec612d01565b90565b60006001600160e01b031982166327d8f1fd60e21b1480612cc157506001600160e01b031982166352d1902d60e01b145b8061077e57506301ffc9a760e01b6001600160e01b031983161461077e565b60006000805160206152328339815191525b546001600160a01b0316919050565b60007fb53127684a568b3173ae13b9f8a6016e243e63b6e8ee1178d6a717850b5d6103612cf2565b612d368585858585613fd0565b5050505050565b6002546000906001600160a01b03163003612eae576040805160048152602481019091526020810180516001600160e01b0316632c4b4fff60e01b1790526000612db3612d88612ce0565b836040518060400160405280600c81526020016b1110d85b1b0811985a5b195960a21b815250614188565b90508060018251612dc491906150ea565b81518110612dd457612dd4614e86565b016020015160f81c600103612ded575060009392505050565b6317897ab960e11b3085612e00336131d2565b604051602401612e12939291906150fd565b60408051601f198184030181529190526020810180516001600160e01b03166001600160e01b0319909316929092179091529150612e79612e51612ce0565b83604051806040016040528060098152602001682337b93134b23232b760b91b815250614188565b90508060018251612e8a91906150ea565b81518110612e9a57612e9a614e86565b60209101015160f81c600114949350505050565b6002546001600160a01b0316632f12f5723084612eca336131d2565b6040518463ffffffff1660e01b8152600401612ee8939291906150fd565b602060405180830381865afa158015612f05573d6000803e3d6000fd5b505050506040513d601f19601f8201168201806040525081019061077e9190614e69565b60006001306001600160a01b031663a304e3536040518163ffffffff1660e01b8152600401602060405180830381865afa158015612f6b573d6000803e3d6000fd5b505050506040513d601f19601f82011682018060405250810190612f8f9190615128565b6002811115612fa057612fa0614983565b14612fbd5760405162461bcd60e51b81526004016107cc90614e24565b6001600160e01b031982166000908152604860205260408120546001600160a01b031690612feb8285614256565b60405163db83423d60e01b815260048101829052909150309063db83423d90602401602060405180830381865afa15801561302a573d6000803e3d6000fd5b505050506040513d601f19601f8201168201806040525081019061304e9190614e69565b6117e95760405162461bcd60e51b815260206004820152600d60248201526c1058d8d95cdcc811195b9a5959609a1b60448201526064016107cc565b600080613096336131d2565b905060006130a78683866000613211565b905060018560048111156130bd576130bd614983565b036130df57805460008181526044602052604090206130df9188336002613313565b50509392505050565b60008181526001830160205260408120819060045b600182015460ff16600581111561311657613116614983565b0361313857604080518581526001878101602083015291902093509150613142565b6000199250600091505b509250929050565b606061077e8261428d565b6000828260405160200161316a929190615145565b60405160208183030381529060405280519060200120905092915050565b600081815260018084016020526040822082916130fd565b60008181526001830160205260408120819060026130fd565b60008181526001830160205260408120819060036130fd565b6040516bffffffffffffffffffffffff19606083901b166020820152600090603401604051602081830303815290604052805190602001209050919050565b60008061321f6044876142e9565b9050600180820154610100900460ff16600481111561324057613240614983565b1161327e5760405162461bcd60e51b815260206004820152600e60248201526d111bdb585a5b8811195b195d195960921b60448201526064016107cc565b826132ea576002600182015462010000900460ff1660038111156132a4576132a4614983565b10156132ea5760405162461bcd60e51b8152602060048201526015602482015274496c6c6567616c20446f6d61696e2055706461746560581b60448201526064016107cc565b80546132f7908686613b43565b611ab05760405162461bcd60e51b81526004016107cc90614e46565b600081600281111561332757613327614983565b0361351a576000600186015460ff16600381111561334757613347614983565b036133865760405162461bcd60e51b815260206004820152600f60248201526e1059d95b9d08139bdd08119bdd5b99608a1b60448201526064016107cc565b60018086015460ff1660038111156133a0576133a0614983565b116133e15760405162461bcd60e51b8152602060048201526011602482015270496c6c6567616c204167656e745479706560781b60448201526064016107cc565b600180860154610100900460ff16600481111561340057613400614983565b1161343d5760405162461bcd60e51b815260206004820152600d60248201526c1059d95b9d0811195b195d1959609a1b60448201526064016107cc565b600185015461ffff630100000082048116600160381b90920416116134975760405162461bcd60e51b815260206004820152601060248201526f125b1b1959d85b08149959995c9c995960821b60448201526064016107cc565b600185810180546003906134b79084906301000000900461ffff16615155565b92506101000a81548161ffff021916908361ffff1602179055508284836001600160a01b03167f30a2a9b84c50dda8ae5520f5905549d611b35b2860288f1e4412942709f2d0ca600060405161350d9190614bea565b60405180910390a4612d36565b600281600281111561352e5761352e614983565b03612d365760018501546301000000900461ffff166135825760405162461bcd60e51b815260206004820152601060248201526f125b1b1959d85b08149959995c9c995960821b60448201526064016107cc565b60018501805460001961ffff6301000000808404821692909201160264ffff00000019909116179055604051839085906001600160a01b038516907f30a2a9b84c50dda8ae5520f5905549d611b35b2860288f1e4412942709f2d0ca906135eb90600290614bea565b60405180910390a45050505050565b600081815260446020526040812060010154819060ff16600281600381111561362557613625614983565b0361365b576000613637604486614389565b6002015460008181526045602052604090206001015460ff16969095509350505050565b600381600381111561366f5761366f614983565b03613681576000613637604486614466565b50600093849350915050565b613695612ce0565b6001600160a01b0316816001600160a01b0316036136df5760405162461bcd60e51b8152602060048201526007602482015266125b1b1959d85b60ca1b60448201526064016107cc565b6136ef637147855d60e01b612d3d565b61370b5760405162461bcd60e51b81526004016107cc90614e46565b50565b60607f4910fdfa16fed3260ed0e7147f7cc6da11a60208b5b9406d12a635614ffd91435460ff1615613758576137438461453d565b506040805160008152602081019091526117e9565b60008051602061523283398151915260001b846001600160a01b03166352d1902d6040518163ffffffff1660e01b8152600401602060405180830381865afa1580156137a8573d6000803e3d6000fd5b505050506040513d601f19601f820116820180604052508101906137cc9190615170565b146138085760405162461bcd60e51b815260206004820152600c60248201526b496c6c6567616c205555505360a01b60448201526064016107cc565b6040516301ffc9a760e01b81526327d8f1fd60e21b60048201526001600160a01b038516906301ffc9a790602401602060405180830381865afa158015613853573d6000803e3d6000fd5b505050506040513d601f19601f820116820180604052508101906138779190614e69565b6138b35760405162461bcd60e51b815260206004820152600d60248201526c496c6c6567616c2050726f787960981b60448201526064016107cc565b6138be8484846145b2565b90506117e9565b600081815260018301602052604081205415156117e9565b60007f8b73c3c69bb8fe3d512ecc4cf759cc79239f7b179b0ffacaa9a75d522b39400f60006040516020016139129190615189565b60405160208183030381529060405280519060200120600160405160200161393a9190615189565b60408051601f1981840301815282825280516020918201209083019490945281019190915260608101919091524660808201523060a082015260c00160405160208183030381529060405280519060200120905090565b7fb53127684a568b3173ae13b9f8a6016e243e63b6e8ee1178d6a717850b5d610380546001600160a01b0383166001600160a01b031990911681179091556040805191825251309133917f63fdbed5f2909ec44e3becc51e9d29654ce1447747914e8a6ebc019e7f640b8b9181900360200190a350565b60008080613a17604486614466565b6000858152600582016020526040812054919250613a36604483614389565b6002015460008181526045602052604090206001015460ff16955093505050505b9250929050565b600081815260018301602052604081206005600182015460ff166005811115613a8957613a89614983565b03613aa65760408051848152600186016020820152209150611892565b6000600182015460ff166005811115613ac157613ac1614983565b03613afe5760405162461bcd60e51b815260206004820152600d60248201526c11d25108139bdd08119bdd5b99609a1b60448201526064016107cc565b60405162461bcd60e51b815260206004820152601060248201526f125b1b195859db0811d2510814db1bdd60821b60448201526064016107cc565b600061077e825490565b60008080613b52604485613188565b9150915080613b66576000925050506117e9565b60008681526044602052604090206001015460ff166002816003811115613b8f57613b8f614983565b03613cf957600080613ba260448a61461b565b91509150801580613bd1575060046001830154610100900460ff166004811115613bce57613bce614983565b14155b15613be4576000955050505050506117e9565b600080613bff84600301546044613f8590919063ffffffff16565b91509150801580613c2e575060046001830154610100900460ff166004811115613c2b57613c2b614983565b14155b15613c435760009750505050505050506117e9565b60008a81526005830160205260409020548b14613c6a5760009750505050505050506117e9565b60008b815260476020908152604080832054835260469091529020600460038201546601000000000000900460ff166004811115613caa57613caa614983565b148015613cd257506004880154600382015460ff640100000000928390048116929091041610155b15613ce8576000985050505050505050506117e9565b6001985050505050505050506117e9565b6003816003811115613d0d57613d0d614983565b03613e5657600080613d2060448a613f85565b91509150801580613d4f575060046001830154610100900460ff166004811115613d4c57613d4c614983565b14155b15613d62576000955050505050506117e9565b60008881526005830160205260408120549080613d8060448461461b565b91509150801580613daf575060046001830154610100900460ff166004811115613dac57613dac614983565b14155b15613dc5576000985050505050505050506117e9565b600083815260476020908152604080832054835260469091529020600460038201546601000000000000900460ff166004811115613e0557613e05614983565b148015613e2d57506004890154600382015460ff640100000000928390048116929091041610155b15613e4457600099505050505050505050506117e9565b600199505050505050505050506117e9565b5060009695505050505050565b60006117e98383614632565b6000818152600183016020526040812081600182015460ff166005811115613e9957613e99614983565b1480613ebd57506004600182015460ff166005811115613ebb57613ebb614983565b145b15613eda5760408051848152600186016020820152209150611892565b60405162461bcd60e51b815260206004820152601060248201526f125b1b1959d85b081112510814db1bdd60821b60448201526064016107cc565b60008080613f2460448661461b565b9150915080613f385760009250505061077e565b600080613f5384600301546044613f8590919063ffffffff16565b9150915080613f6957600094505050505061077e565b5060009485526005016020525050604090912054151592915050565b6000818152602083905260408120819060035b600182015460ff166003811115613fb157613fb1614983565b0361313857604080518581526020810187905220925060019150613142565b604c5462010000900460ff166140285760405162461bcd60e51b815260206004820152601960248201527f436f6e7472616374204e6f7420496e697469616c697a696e670000000000000060448201526064016107cc565b600061403585878361502a565b50600161404383858361502a565b506001600160a01b0381163014614102576040516301ffc9a760e01b8152637a32793760e01b60048201526001600160a01b038216906301ffc9a790602401602060405180830381865afa15801561409f573d6000803e3d6000fd5b505050506040513d601f19601f820116820180604052508101906140c39190614e69565b6140fd5760405162461bcd60e51b815260206004820152600b60248201526a125b1b1959d85b081050d360aa1b60448201526064016107cc565b61414e565b614112637a32793760e01b610759565b61414e5760405162461bcd60e51b815260206004820152600d60248201526c139bdd0814dd5c1c1bdc9d1959609a1b60448201526064016107cc565b600280546001600160a01b038316600161ff0160a01b031990911617600160a81b1760ff60a01b1916600160a01b179055612d3633613991565b60606001600160a01b0384163b6141e15760405162461bcd60e51b815260206004820152601860248201527f496c6c6567616c20436f6e74726163742041646472657373000000000000000060448201526064016107cc565b600080856001600160a01b0316856040516141fc91906151ff565b600060405180830381855af49150503d8060008114614237576040519150601f19603f3d011682016040523d82523d6000602084013e61423c565b606091505b509150915061424c828286614681565b9695505050505050565b6040516bffffffffffffffffffffffff19606084901b1660208201526001600160e01b03198216603482015260009060380161316a565b6060816000018054806020026020016040519081016040528092919081815260200182805480156142dd57602002820191906000526020600020905b8154815260200190600101908083116142c9575b50505050509050919050565b600081815260018301602052604081206004600182015460ff16600581111561431457614314614983565b036143315760408051848152600186016020820152209150611892565b6000600182015460ff16600581111561434c5761434c614983565b03613eda5760405162461bcd60e51b815260206004820152600d60248201526c11125108139bdd08119bdd5b99609a1b60448201526064016107cc565b60008181526020839052604081206002600182015460ff1660038111156143b2576143b2614983565b036143cd576040805184815260208101869052209150611892565b6000600182015460ff1660038111156143e8576143e8614983565b036144285760405162461bcd60e51b815260206004820152601060248201526f149bdb19525908139bdd08119bdd5b9960821b60448201526064016107cc565b60405162461bcd60e51b8152602060048201526013602482015272125b1b1959d85b08149bdb1952590814db1bdd606a1b60448201526064016107cc565b60008181526020839052604081206003600182015460ff16600381111561448f5761448f614983565b036144aa576040805184815260208101869052209150611892565b6000600182015460ff1660038111156144c5576144c5614983565b036145025760405162461bcd60e51b815260206004820152600d60248201526c15125108139bdd08119bdd5b99609a1b60448201526064016107cc565b60405162461bcd60e51b815260206004820152601060248201526f125b1b1959d85b081512510814db1bdd60821b60448201526064016107cc565b6001600160a01b0381163b6145835760405162461bcd60e51b815260206004820152600c60248201526b125b1b1959d85b08125b5c1b60a21b60448201526064016107cc565b60008051602061523283398151915280546001600160a01b0319166001600160a01b0392909216919091179055565b60606145bd846146ba565b6000835111806145ca5750815b15614605576138be84846040518060400160405280601381526020017211195b1959d85d1958d85b1b0811985a5b1959606a1b815250614188565b6040805160008082526020820190925290610f8a565b600081815260208390526040812081906002613f98565b60008181526001830160205260408120546146795750815460018181018455600084815260208082209093018490558454848252828601909352604090209190915561077e565b50600061077e565b606083156146905750816117e9565b8251156146a05782518084602001fd5b8160405162461bcd60e51b81526004016107cc9190614bbe565b6146c38161453d565b6040516001600160a01b03821690309033907f8ee0f2bd29c0e6a975c3cc2e47cf2e01b5f23a9a8a02e0ed6a5a070269de3d2d90600090a450565b60006020828403121561471057600080fd5b81356001600160e01b0319811681146117e957600080fd5b60008083601f84011261473a57600080fd5b50813567ffffffffffffffff81111561475257600080fd5b602083019150836020828501011115613a5757600080fd5b80356001600160a01b0381168114610ccf57600080fd5b60008060008060006060868803121561479957600080fd5b853567ffffffffffffffff808211156147b157600080fd5b6147bd89838a01614728565b909750955060208801359150808211156147d657600080fd5b506147e388828901614728565b90945092506147f690506040870161476a565b90509295509295909350565b60006020828403121561481457600080fd5b6117e98261476a565b60008083601f84011261482f57600080fd5b50813567ffffffffffffffff81111561484757600080fd5b6020830191508360208260061b8501011115613a5757600080fd5b6000806020838503121561487557600080fd5b823567ffffffffffffffff81111561488c57600080fd5b6148988582860161481d565b90969095509350505050565b6003811061370b57600080fd5b6000602082840312156148c357600080fd5b81356117e9816148a4565b6000602082840312156148e057600080fd5b5035919050565b6020808252825182820181905260009190848201906040850190845b8181101561491f57835183529284019291840191600101614903565b50909695505050505050565b6000806020838503121561493e57600080fd5b823567ffffffffffffffff81111561495557600080fd5b61489885828601614728565b6000806040838503121561497457600080fd5b50508035926020909101359150565b634e487b7160e01b600052602160045260246000fd5b6004811061370b5761370b614983565b6149b281614999565b9052565b600581106149b2576149b2614983565b60005b838110156149e15781810151838201526020016149c9565b50506000910152565b60008151808452614a028160208601602086016149c6565b601f01601f19169290920160200192915050565b602081528151602082015260006020830151614a38604084018261ffff169052565b50604083015161ffff8116606084015250606083015161ffff8116608084015250608083015161ffff811660a08401525060a0830151614a7b60c08401826149a9565b5060c0830151614a8e60e08401826149b6565b5060e0830151610100614aa3818501836149a9565b840151610120848101529050610f9f6101408401826149ea565b634e487b7160e01b600052604160045260246000fd5b801515811461370b57600080fd5b8035610ccf81614ad3565b600080600060608486031215614b0157600080fd5b614b0a8461476a565b9250602084013567ffffffffffffffff80821115614b2757600080fd5b818601915086601f830112614b3b57600080fd5b813581811115614b4d57614b4d614abd565b604051601f8201601f19908116603f01168101908382118183101715614b7557614b75614abd565b81604052828152896020848701011115614b8e57600080fd5b826020860160208301376000602084830101528096505050505050614bb560408501614ae1565b90509250925092565b6020815260006117e960208301846149ea565b6003811061370b5761370b614983565b6149b281614bd1565b60208101614bf783614bd1565b91905290565b60008083601f840112614c0f57600080fd5b50813567ffffffffffffffff811115614c2757600080fd5b6020830191508360208260051b8501011115613a5757600080fd5b60008060208385031215614c5557600080fd5b823567ffffffffffffffff811115614c6c57600080fd5b61489885828601614bfd565b602081528151602082015260006020830151610120806040850152614ca16101408501836149ea565b91506040850151601f19858403016060860152614cbe83826149ea565b9250506060850151614cdb60808601826001600160a01b03169052565b5060808501516001600160a01b03811660a08601525060a08501516001600160a01b03811660c08601525060c085015161ffff811660e08601525060e0850151610100614d2a81870183614be1565b8601519050614d3b85830182614be1565b5090949350505050565b60008060408385031215614d5857600080fd5b82359150614d686020840161476a565b90509250929050565b6020808252600c908201526b125b1b1959d85b0810d85b1b60a21b604082015260600190565b6020808252600c908201526b125b9d985b1a590810d85b1b60a21b604082015260600190565b81835281816020850137506000828201602090810191909152601f909101601f19169091010190565b606081526000614dfa606083018789614dbd565b8281036020840152614e0d818688614dbd565b91505061ffff831660408301529695505050505050565b60208082526008908201526714995a9958dd195960c21b604082015260600190565b6020808252600990820152682337b93134b23232b760b91b604082015260600190565b600060208284031215614e7b57600080fd5b81516117e981614ad3565b634e487b7160e01b600052603260045260246000fd5b600060208284031215614eae57600080fd5b8135600581106117e957600080fd5b634e487b7160e01b600052601160045260246000fd5b600060018201614ee557614ee5614ebd565b5060010190565b600181811c90821680614f0057607f821691505b602082108103614f2057634e487b7160e01b600052602260045260246000fd5b50919050565b600060208284031215614f3857600080fd5b813561ffff811681146117e957600080fd5b600060208284031215614f5c57600080fd5b8135600481106117e957600080fd5b60208101614bf783614999565b6000823560be19833603018112614f8e57600080fd5b9190910192915050565b6000808335601e19843603018112614faf57600080fd5b83018035915067ffffffffffffffff821115614fca57600080fd5b602001915036819003821315613a5757600080fd5b601f82111561502557600081815260208120601f850160051c810160208610156150065750805b601f850160051c820191505b818110156109b357828155600101615012565b505050565b67ffffffffffffffff83111561504257615042614abd565b615056836150508354614eec565b83614fdf565b6000601f84116001811461508a57600085156150725750838201355b600019600387901b1c1916600186901b178355612d36565b600083815260209020601f19861690835b828110156150bb578685013582556020948501946001909201910161509b565b50868210156150d85760001960f88860031b161c19848701351681555b505060018560011b0183555050505050565b8181038181111561077e5761077e614ebd565b6001600160a01b039390931683526001600160e01b0319919091166020830152604082015260600190565b60006020828403121561513a57600080fd5b81516117e9816148a4565b8183823760009101908152919050565b61ffff81811683821601908082111561189257611892614ebd565b60006020828403121561518257600080fd5b5051919050565b600080835461519781614eec565b600182811680156151af57600181146151c4576151f3565b60ff19841687528215158302870194506151f3565b8760005260208060002060005b858110156151ea5781548a8201529084019082016151d1565b50505082870194505b50929695505050505050565b60008251614f8e8184602087016149c656fe4c4956454c595f56455253455f4c4956454c595f474c4f42414c5f53434f5045360894a13ba1a3210667c828492db98dca3e2076cc3735a920a3ca505d382bbca264697066735822122010a668c00463c19d616da187453cbf98fd80d0f67dc2920cb75719231469793264736f6c63430008110033b53127684a568b3173ae13b9f8a6016e243e63b6e8ee1178d6a717850b5d6103",
  "linkReferences": {},
  "deployedLinkReferences": {},
  "devdoc": {
    "author": "Sina Tadayon, https://github.com/SinaTadayon",
    "kind": "dev",
    "methods": {
      "proxiableUUID()": {
        "details": "Implementation of the ERC1822 {proxiableUUID} function. This returns the storage slot used by the implementation. It is used to validate that the this implementation remains valid after an upgrade. IMPORTANT: A proxy pointing at a proxiable contract should not be considered proxiable itself, because this risks bricking a proxy that upgrades to it, by delegating to itself until out of gas. Thus it is critical that this function revert if invoked through a proxy. This is guaranteed by the `notDelegated` modifier."
      },
      "supportsInterface(bytes4)": {
        "details": "See {IERC165-supportsInterface}."
      }
    },
    "title": "Domain Manager Contract",
    "version": 1
  },
  "evm": {
    "bytecode": {
      "linkReferences": {},
      "opcodes": "PUSH1 0xA0 PUSH1 0x40 MSTORE ADDRESS PUSH1 0x80 MSTORE CALLVALUE DUP1 ISZERO PUSH3 0x15 JUMPI PUSH1 0x0 DUP1 REVERT JUMPDEST POP PUSH3 0x43 PUSH1 0x1 PUSH32 0x360894A13BA1A3210667C828492DB98DCA3E2076CC3735A920A3CA505D382BBD PUSH3 0x125 JUMP JUMPDEST PUSH32 0x360894A13BA1A3210667C828492DB98DCA3E2076CC3735A920A3CA505D382BBC EQ PUSH3 0x74 JUMPI PUSH3 0x74 PUSH3 0x14D JUMP JUMPDEST PUSH3 0xA1 PUSH1 0x1 PUSH32 0xB53127684A568B3173AE13B9F8A6016E243E63B6E8EE1178D6A717850B5D6104 PUSH3 0x125 JUMP JUMPDEST PUSH1 0x0 DUP1 MLOAD PUSH1 0x20 PUSH3 0x545A DUP4 CODECOPY DUP2 MLOAD SWAP2 MSTORE EQ PUSH3 0xC1 JUMPI PUSH3 0xC1 PUSH3 0x14D JUMP JUMPDEST CALLER PUSH3 0xEA PUSH1 0x0 DUP1 MLOAD PUSH1 0x20 PUSH3 0x545A DUP4 CODECOPY DUP2 MLOAD SWAP2 MSTORE PUSH1 0x0 SHL PUSH3 0x122 PUSH1 0x20 SHL PUSH3 0x2C8D OR PUSH1 0x20 SHR JUMP JUMPDEST DUP1 SLOAD PUSH1 0x1 PUSH1 0x1 PUSH1 0xA0 SHL SUB NOT AND PUSH1 0x1 PUSH1 0x1 PUSH1 0xA0 SHL SUB SWAP3 SWAP1 SWAP3 AND SWAP2 SWAP1 SWAP2 OR SWAP1 SSTORE PUSH1 0x2 DUP1 SLOAD PUSH2 0xFFFF PUSH1 0xA0 SHL NOT AND PUSH1 0x81 PUSH1 0xA1 SHL OR SWAP1 SSTORE PUSH3 0x163 JUMP JUMPDEST SWAP1 JUMP JUMPDEST DUP2 DUP2 SUB DUP2 DUP2 GT ISZERO PUSH3 0x147 JUMPI PUSH4 0x4E487B71 PUSH1 0xE0 SHL PUSH1 0x0 MSTORE PUSH1 0x11 PUSH1 0x4 MSTORE PUSH1 0x24 PUSH1 0x0 REVERT JUMPDEST SWAP3 SWAP2 POP POP JUMP JUMPDEST PUSH4 0x4E487B71 PUSH1 0xE0 SHL PUSH1 0x0 MSTORE PUSH1 0x1 PUSH1 0x4 MSTORE PUSH1 0x24 PUSH1 0x0 REVERT JUMPDEST PUSH1 0x80 MLOAD PUSH2 0x5287 PUSH3 0x1D3 PUSH1 0x0 CODECOPY PUSH1 0x0 DUP2 DUP2 PUSH2 0x78E ADD MSTORE DUP2 DUP2 PUSH2 0x7D7 ADD MSTORE DUP2 DUP2 PUSH2 0x9C7 ADD MSTORE DUP2 DUP2 PUSH2 0xA07 ADD MSTORE DUP2 DUP2 PUSH2 0xDFD ADD MSTORE DUP2 DUP2 PUSH2 0xE3D ADD MSTORE DUP2 DUP2 PUSH2 0xFF6 ADD MSTORE DUP2 DUP2 PUSH2 0x16A1 ADD MSTORE DUP2 DUP2 PUSH2 0x16E1 ADD MSTORE DUP2 DUP2 PUSH2 0x1F59 ADD MSTORE DUP2 DUP2 PUSH2 0x1F99 ADD MSTORE DUP2 DUP2 PUSH2 0x2B13 ADD MSTORE PUSH2 0x2B53 ADD MSTORE PUSH2 0x5287 PUSH1 0x0 RETURN INVALID PUSH1 0x80 PUSH1 0x40 MSTORE PUSH1 0x4 CALLDATASIZE LT PUSH2 0x211 JUMPI PUSH1 0x0 CALLDATALOAD PUSH1 0xE0 SHR DUP1 PUSH4 0x8D126C39 GT PUSH2 0x117 JUMPI DUP1 PUSH4 0xD9DC1F19 GT PUSH2 0xA5 JUMPI DUP1 PUSH4 0xF3D5F2E5 GT PUSH2 0x6C JUMPI DUP1 PUSH4 0xF3D5F2E5 EQ PUSH2 0x6D0 JUMPI DUP1 PUSH4 0xF698DA25 EQ PUSH2 0x6F0 JUMPI DUP1 PUSH4 0xF708CEB0 EQ PUSH2 0x705 JUMPI DUP1 PUSH4 0xF94A0ADB EQ PUSH2 0x725 JUMPI DUP1 PUSH4 0xFBAD3684 EQ PUSH2 0x73A JUMPI STOP JUMPDEST DUP1 PUSH4 0xD9DC1F19 EQ PUSH2 0x608 JUMPI DUP1 PUSH4 0xDA10E6A8 EQ PUSH2 0x628 JUMPI DUP1 PUSH4 0xDF4A69C3 EQ PUSH2 0x648 JUMPI DUP1 PUSH4 0xF0B15DEF EQ PUSH2 0x668 JUMPI DUP1 PUSH4 0xF33B6D48 EQ PUSH2 0x69C JUMPI STOP JUMPDEST DUP1 PUSH4 0xB4A0BDF3 GT PUSH2 0xE9 JUMPI DUP1 PUSH4 0xB4A0BDF3 EQ PUSH2 0x568 JUMPI DUP1 PUSH4 0xB5FD948D EQ PUSH2 0x586 JUMPI DUP1 PUSH4 0xBA313AFC EQ PUSH2 0x5A6 JUMPI DUP1 PUSH4 0xC7DF2ADD EQ PUSH2 0x5C6 JUMPI DUP1 PUSH4 0xD49E164D EQ PUSH2 0x5E6 JUMPI STOP JUMPDEST DUP1 PUSH4 0x8D126C39 EQ PUSH2 0x4EB JUMPI DUP1 PUSH4 0x994AE65C EQ PUSH2 0x50B JUMPI DUP1 PUSH4 0xA0A8E460 EQ PUSH2 0x52B JUMPI DUP1 PUSH4 0xA304E353 EQ PUSH2 0x540 JUMPI STOP JUMPDEST DUP1 PUSH4 0x52D1902D GT PUSH2 0x19F JUMPI DUP1 PUSH4 0x6EA5D24D GT PUSH2 0x166 JUMPI DUP1 PUSH4 0x6EA5D24D EQ PUSH2 0x43C JUMPI DUP1 PUSH4 0x7147855D EQ PUSH2 0x469 JUMPI DUP1 PUSH4 0x756AF45F EQ PUSH2 0x496 JUMPI DUP1 PUSH4 0x75D0C0DC EQ PUSH2 0x4B6 JUMPI DUP1 PUSH4 0x8B2B1280 EQ PUSH2 0x4CB JUMPI STOP JUMPDEST DUP1 PUSH4 0x52D1902D EQ PUSH2 0x386 JUMPI DUP1 PUSH4 0x58DBC45D EQ PUSH2 0x39B JUMPI DUP1 PUSH4 0x5ED3FD9E EQ PUSH2 0x3C8 JUMPI DUP1 PUSH4 0x61BFFD28 EQ PUSH2 0x3E8 JUMPI DUP1 PUSH4 0x64D4C819 EQ PUSH2 0x408 JUMPI STOP JUMPDEST DUP1 PUSH4 0x34109DE2 GT PUSH2 0x1E3 JUMPI DUP1 PUSH4 0x34109DE2 EQ PUSH2 0x2AF JUMPI DUP1 PUSH4 0x38D38C97 EQ PUSH2 0x2F1 JUMPI DUP1 PUSH4 0x399D6E38 EQ PUSH2 0x319 JUMPI DUP1 PUSH4 0x476F6362 EQ PUSH2 0x339 JUMPI DUP1 PUSH4 0x51F1D2FF EQ PUSH2 0x366 JUMPI STOP JUMPDEST DUP1 PUSH4 0x1FFC9A7 EQ PUSH2 0x21A JUMPI DUP1 PUSH4 0x77F224A EQ PUSH2 0x24F JUMPI DUP1 PUSH4 0xE32CB86 EQ PUSH2 0x26F JUMPI DUP1 PUSH4 0x11623480 EQ PUSH2 0x28F JUMPI STOP JUMPDEST CALLDATASIZE PUSH2 0x218 JUMPI STOP JUMPDEST STOP JUMPDEST CALLVALUE DUP1 ISZERO PUSH2 0x226 JUMPI PUSH1 0x0 DUP1 REVERT JUMPDEST POP PUSH2 0x23A PUSH2 0x235 CALLDATASIZE PUSH1 0x4 PUSH2 0x46FE JUMP JUMPDEST PUSH2 0x759 JUMP JUMPDEST PUSH1 0x40 MLOAD SWAP1 ISZERO ISZERO DUP2 MSTORE PUSH1 0x20 ADD JUMPDEST PUSH1 0x40 MLOAD DUP1 SWAP2 SUB SWAP1 RETURN JUMPDEST CALLVALUE DUP1 ISZERO PUSH2 0x25B JUMPI PUSH1 0x0 DUP1 REVERT JUMPDEST POP PUSH2 0x218 PUSH2 0x26A CALLDATASIZE PUSH1 0x4 PUSH2 0x4781 JUMP JUMPDEST PUSH2 0x784 JUMP JUMPDEST CALLVALUE DUP1 ISZERO PUSH2 0x27B JUMPI PUSH1 0x0 DUP1 REVERT JUMPDEST POP PUSH2 0x23A PUSH2 0x28A CALLDATASIZE PUSH1 0x4 PUSH2 0x4802 JUMP JUMPDEST PUSH2 0x9BB JUMP JUMPDEST CALLVALUE DUP1 ISZERO PUSH2 0x29B JUMPI PUSH1 0x0 DUP1 REVERT JUMPDEST POP PUSH2 0x23A PUSH2 0x2AA CALLDATASIZE PUSH1 0x4 PUSH2 0x4862 JUMP JUMPDEST PUSH2 0xCD4 JUMP JUMPDEST CALLVALUE DUP1 ISZERO PUSH2 0x2BB JUMPI PUSH1 0x0 DUP1 REVERT JUMPDEST POP PUSH2 0x2E3 PUSH32 0x7AABE2571874F2A330EA11C8972D9CC3792D973EFC6B36E3E29005861A344188 DUP2 JUMP JUMPDEST PUSH1 0x40 MLOAD SWAP1 DUP2 MSTORE PUSH1 0x20 ADD PUSH2 0x246 JUMP JUMPDEST CALLVALUE DUP1 ISZERO PUSH2 0x2FD JUMPI PUSH1 0x0 DUP1 REVERT JUMPDEST POP PUSH2 0x306 PUSH2 0xDDD JUMP JUMPDEST PUSH1 0x40 MLOAD PUSH2 0xFFFF SWAP1 SWAP2 AND DUP2 MSTORE PUSH1 0x20 ADD PUSH2 0x246 JUMP JUMPDEST CALLVALUE DUP1 ISZERO PUSH2 0x325 JUMPI PUSH1 0x0 DUP1 REVERT JUMPDEST POP PUSH2 0x23A PUSH2 0x334 CALLDATASIZE PUSH1 0x4 PUSH2 0x48B1 JUMP JUMPDEST PUSH2 0xDF1 JUMP JUMPDEST CALLVALUE DUP1 ISZERO PUSH2 0x345 JUMPI PUSH1 0x0 DUP1 REVERT JUMPDEST POP PUSH2 0x359 PUSH2 0x354 CALLDATASIZE PUSH1 0x4 PUSH2 0x48CE JUMP JUMPDEST PUSH2 0xF5F JUMP JUMPDEST PUSH1 0x40 MLOAD PUSH2 0x246 SWAP2 SWAP1 PUSH2 0x48E7 JUMP JUMPDEST CALLVALUE DUP1 ISZERO PUSH2 0x372 JUMPI PUSH1 0x0 DUP1 REVERT JUMPDEST POP PUSH2 0x23A PUSH2 0x381 CALLDATASIZE PUSH1 0x4 PUSH2 0x492B JUMP JUMPDEST PUSH2 0xFA7 JUMP JUMPDEST CALLVALUE DUP1 ISZERO PUSH2 0x392 JUMPI PUSH1 0x0 DUP1 REVERT JUMPDEST POP PUSH2 0x2E3 PUSH2 0xFE9 JUMP JUMPDEST CALLVALUE DUP1 ISZERO PUSH2 0x3A7 JUMPI PUSH1 0x0 DUP1 REVERT JUMPDEST POP PUSH2 0x3B0 PUSH2 0x106D JUMP JUMPDEST PUSH1 0x40 MLOAD PUSH1 0x1 PUSH1 0x1 PUSH1 0xA0 SHL SUB SWAP1 SWAP2 AND DUP2 MSTORE PUSH1 0x20 ADD PUSH2 0x246 JUMP JUMPDEST CALLVALUE DUP1 ISZERO PUSH2 0x3D4 JUMPI PUSH1 0x0 DUP1 REVERT JUMPDEST POP PUSH2 0x23A PUSH2 0x3E3 CALLDATASIZE PUSH1 0x4 PUSH2 0x4961 JUMP JUMPDEST PUSH2 0x1077 JUMP JUMPDEST CALLVALUE DUP1 ISZERO PUSH2 0x3F4 JUMPI PUSH1 0x0 DUP1 REVERT JUMPDEST POP PUSH2 0x23A PUSH2 0x403 CALLDATASIZE PUSH1 0x4 PUSH2 0x4862 JUMP JUMPDEST PUSH2 0x1111 JUMP JUMPDEST CALLVALUE DUP1 ISZERO PUSH2 0x414 JUMPI PUSH1 0x0 DUP1 REVERT JUMPDEST POP PUSH2 0x2E3 PUSH32 0x8B73C3C69BB8FE3D512ECC4CF759CC79239F7B179B0FFACAA9A75D522B39400F DUP2 JUMP JUMPDEST CALLVALUE DUP1 ISZERO PUSH2 0x448 JUMPI PUSH1 0x0 DUP1 REVERT JUMPDEST POP PUSH2 0x45C PUSH2 0x457 CALLDATASIZE PUSH1 0x4 PUSH2 0x48CE JUMP JUMPDEST PUSH2 0x1469 JUMP JUMPDEST PUSH1 0x40 MLOAD PUSH2 0x246 SWAP2 SWAP1 PUSH2 0x4A16 JUMP JUMPDEST CALLVALUE DUP1 ISZERO PUSH2 0x475 JUMPI PUSH1 0x0 DUP1 REVERT JUMPDEST POP PUSH2 0x489 PUSH2 0x484 CALLDATASIZE PUSH1 0x4 PUSH2 0x4AEC JUMP JUMPDEST PUSH2 0x1695 JUMP JUMPDEST PUSH1 0x40 MLOAD PUSH2 0x246 SWAP2 SWAP1 PUSH2 0x4BBE JUMP JUMPDEST CALLVALUE DUP1 ISZERO PUSH2 0x4A2 JUMPI PUSH1 0x0 DUP1 REVERT JUMPDEST POP PUSH2 0x2E3 PUSH2 0x4B1 CALLDATASIZE PUSH1 0x4 PUSH2 0x4802 JUMP JUMPDEST PUSH2 0x17F0 JUMP JUMPDEST CALLVALUE DUP1 ISZERO PUSH2 0x4C2 JUMPI PUSH1 0x0 DUP1 REVERT JUMPDEST POP PUSH2 0x489 PUSH2 0x1899 JUMP JUMPDEST CALLVALUE DUP1 ISZERO PUSH2 0x4D7 JUMPI PUSH1 0x0 DUP1 REVERT JUMPDEST POP PUSH2 0x23A PUSH2 0x4E6 CALLDATASIZE PUSH1 0x4 PUSH2 0x48CE JUMP JUMPDEST PUSH2 0x192B JUMP JUMPDEST CALLVALUE DUP1 ISZERO PUSH2 0x4F7 JUMPI PUSH1 0x0 DUP1 REVERT JUMPDEST POP PUSH2 0x23A PUSH2 0x506 CALLDATASIZE PUSH1 0x4 PUSH2 0x4862 JUMP JUMPDEST PUSH2 0x195C JUMP JUMPDEST CALLVALUE DUP1 ISZERO PUSH2 0x517 JUMPI PUSH1 0x0 DUP1 REVERT JUMPDEST POP PUSH2 0x23A PUSH2 0x526 CALLDATASIZE PUSH1 0x4 PUSH2 0x4961 JUMP JUMPDEST PUSH2 0x1A80 JUMP JUMPDEST CALLVALUE DUP1 ISZERO PUSH2 0x537 JUMPI PUSH1 0x0 DUP1 REVERT JUMPDEST POP PUSH2 0x489 PUSH2 0x1AB9 JUMP JUMPDEST CALLVALUE DUP1 ISZERO PUSH2 0x54C JUMPI PUSH1 0x0 DUP1 REVERT JUMPDEST POP PUSH1 0x2 SLOAD PUSH1 0x1 PUSH1 0xA0 SHL SWAP1 DIV PUSH1 0xFF AND JUMPDEST PUSH1 0x40 MLOAD PUSH2 0x246 SWAP2 SWAP1 PUSH2 0x4BEA JUMP JUMPDEST CALLVALUE DUP1 ISZERO PUSH2 0x574 JUMPI PUSH1 0x0 DUP1 REVERT JUMPDEST POP PUSH1 0x2 SLOAD PUSH1 0x1 PUSH1 0x1 PUSH1 0xA0 SHL SUB AND PUSH2 0x3B0 JUMP JUMPDEST CALLVALUE DUP1 ISZERO PUSH2 0x592 JUMPI PUSH1 0x0 DUP1 REVERT JUMPDEST POP PUSH2 0x23A PUSH2 0x5A1 CALLDATASIZE PUSH1 0x4 PUSH2 0x4C42 JUMP JUMPDEST PUSH2 0x1AC8 JUMP JUMPDEST CALLVALUE DUP1 ISZERO PUSH2 0x5B2 JUMPI PUSH1 0x0 DUP1 REVERT JUMPDEST POP PUSH2 0x23A PUSH2 0x5C1 CALLDATASIZE PUSH1 0x4 PUSH2 0x4961 JUMP JUMPDEST PUSH2 0x1B03 JUMP JUMPDEST CALLVALUE DUP1 ISZERO PUSH2 0x5D2 JUMPI PUSH1 0x0 DUP1 REVERT JUMPDEST POP PUSH2 0x23A PUSH2 0x5E1 CALLDATASIZE PUSH1 0x4 PUSH2 0x4862 JUMP JUMPDEST PUSH2 0x1B68 JUMP JUMPDEST CALLVALUE DUP1 ISZERO PUSH2 0x5F2 JUMPI PUSH1 0x0 DUP1 REVERT JUMPDEST POP PUSH2 0x5FB PUSH2 0x1D23 JUMP JUMPDEST PUSH1 0x40 MLOAD PUSH2 0x246 SWAP2 SWAP1 PUSH2 0x4C78 JUMP JUMPDEST CALLVALUE DUP1 ISZERO PUSH2 0x614 JUMPI PUSH1 0x0 DUP1 REVERT JUMPDEST POP PUSH2 0x23A PUSH2 0x623 CALLDATASIZE PUSH1 0x4 PUSH2 0x4802 JUMP JUMPDEST PUSH2 0x1F4D JUMP JUMPDEST CALLVALUE DUP1 ISZERO PUSH2 0x634 JUMPI PUSH1 0x0 DUP1 REVERT JUMPDEST POP PUSH2 0x23A PUSH2 0x643 CALLDATASIZE PUSH1 0x4 PUSH2 0x4C42 JUMP JUMPDEST PUSH2 0x2106 JUMP JUMPDEST CALLVALUE DUP1 ISZERO PUSH2 0x654 JUMPI PUSH1 0x0 DUP1 REVERT JUMPDEST POP PUSH2 0x23A PUSH2 0x663 CALLDATASIZE PUSH1 0x4 PUSH2 0x4D45 JUMP JUMPDEST PUSH2 0x2902 JUMP JUMPDEST CALLVALUE DUP1 ISZERO PUSH2 0x674 JUMPI PUSH1 0x0 DUP1 REVERT JUMPDEST POP PUSH2 0x2E3 PUSH32 0xFC434588684348DD50856B075C47BED14245C1030AA04C32955AF55499814627 DUP2 JUMP JUMPDEST CALLVALUE DUP1 ISZERO PUSH2 0x6A8 JUMPI PUSH1 0x0 DUP1 REVERT JUMPDEST POP PUSH2 0x2E3 PUSH32 0x31238DA5536EF05686D34CCF0DE000A4926293566B3711F6E73963B73AD026FE DUP2 JUMP JUMPDEST CALLVALUE DUP1 ISZERO PUSH2 0x6DC JUMPI PUSH1 0x0 DUP1 REVERT JUMPDEST POP PUSH2 0x23A PUSH2 0x6EB CALLDATASIZE PUSH1 0x4 PUSH2 0x4862 JUMP JUMPDEST PUSH2 0x29E4 JUMP JUMPDEST CALLVALUE DUP1 ISZERO PUSH2 0x6FC JUMPI PUSH1 0x0 DUP1 REVERT JUMPDEST POP PUSH2 0x2E3 PUSH2 0x2AFD JUMP JUMPDEST CALLVALUE DUP1 ISZERO PUSH2 0x711 JUMPI PUSH1 0x0 DUP1 REVERT JUMPDEST POP PUSH2 0x23A PUSH2 0x720 CALLDATASIZE PUSH1 0x4 PUSH2 0x48B1 JUMP JUMPDEST PUSH2 0x2B07 JUMP JUMPDEST CALLVALUE DUP1 ISZERO PUSH2 0x731 JUMPI PUSH1 0x0 DUP1 REVERT JUMPDEST POP PUSH2 0x3B0 PUSH2 0x2C83 JUMP JUMPDEST CALLVALUE DUP1 ISZERO PUSH2 0x746 JUMPI PUSH1 0x0 DUP1 REVERT JUMPDEST POP PUSH1 0x2 SLOAD PUSH1 0x1 PUSH1 0xA8 SHL SWAP1 DIV PUSH1 0xFF AND PUSH2 0x55B JUMP JUMPDEST PUSH1 0x0 PUSH1 0x1 PUSH1 0x1 PUSH1 0xE0 SHL SUB NOT DUP3 AND PUSH4 0xF7DA3621 PUSH1 0xE0 SHL EQ DUP1 PUSH2 0x77E JUMPI POP PUSH2 0x77E DUP3 PUSH2 0x2C90 JUMP JUMPDEST SWAP3 SWAP2 POP POP JUMP JUMPDEST PUSH1 0x1 PUSH1 0x1 PUSH1 0xA0 SHL SUB PUSH32 0x0 AND ADDRESS SUB PUSH2 0x7D5 JUMPI PUSH1 0x40 MLOAD PUSH3 0x461BCD PUSH1 0xE5 SHL DUP2 MSTORE PUSH1 0x4 ADD PUSH2 0x7CC SWAP1 PUSH2 0x4D71 JUMP JUMPDEST PUSH1 0x40 MLOAD DUP1 SWAP2 SUB SWAP1 REVERT JUMPDEST PUSH32 0x0 PUSH1 0x1 PUSH1 0x1 PUSH1 0xA0 SHL SUB AND PUSH2 0x807 PUSH2 0x2CE0 JUMP JUMPDEST PUSH1 0x1 PUSH1 0x1 PUSH1 0xA0 SHL SUB AND EQ PUSH2 0x82D JUMPI PUSH1 0x40 MLOAD PUSH3 0x461BCD PUSH1 0xE5 SHL DUP2 MSTORE PUSH1 0x4 ADD PUSH2 0x7CC SWAP1 PUSH2 0x4D97 JUMP JUMPDEST CALLER PUSH2 0x836 PUSH2 0x2D01 JUMP JUMPDEST PUSH1 0x1 PUSH1 0x1 PUSH1 0xA0 SHL SUB AND EQ PUSH2 0x87D JUMPI PUSH1 0x40 MLOAD PUSH3 0x461BCD PUSH1 0xE5 SHL DUP2 MSTORE PUSH1 0x20 PUSH1 0x4 DUP3 ADD MSTORE PUSH1 0xE PUSH1 0x24 DUP3 ADD MSTORE PUSH14 0x139BDD08105D5D1A1BDC9A5E9959 PUSH1 0x92 SHL PUSH1 0x44 DUP3 ADD MSTORE PUSH1 0x64 ADD PUSH2 0x7CC JUMP JUMPDEST PUSH1 0x4C SLOAD PUSH3 0x10000 SWAP1 DIV PUSH1 0xFF AND ISZERO DUP1 DUP1 ISZERO PUSH2 0x89F JUMPI POP PUSH1 0x4C SLOAD PUSH1 0x1 PUSH2 0xFFFF SWAP1 SWAP2 AND LT JUMPDEST DUP1 PUSH2 0x8BA JUMPI POP ADDRESS EXTCODESIZE ISZERO DUP1 ISZERO PUSH2 0x8BA JUMPI POP PUSH1 0x4C SLOAD PUSH2 0xFFFF AND PUSH1 0x1 EQ JUMPDEST PUSH2 0x906 JUMPI PUSH1 0x40 MLOAD PUSH3 0x461BCD PUSH1 0xE5 SHL DUP2 MSTORE PUSH1 0x20 PUSH1 0x4 DUP3 ADD MSTORE PUSH1 0x1C PUSH1 0x24 DUP3 ADD MSTORE PUSH32 0x436F6E747261637420416C726561647920496E697469616C697A656400000000 PUSH1 0x44 DUP3 ADD MSTORE PUSH1 0x64 ADD PUSH2 0x7CC JUMP JUMPDEST PUSH1 0x4C DUP1 SLOAD PUSH2 0xFFFF NOT AND PUSH1 0x1 OR SWAP1 SSTORE DUP1 ISZERO PUSH2 0x92C JUMPI PUSH1 0x4C DUP1 SLOAD PUSH3 0xFF0000 NOT AND PUSH3 0x10000 OR SWAP1 SSTORE JUMPDEST PUSH2 0x939 DUP7 DUP7 DUP7 DUP7 DUP7 PUSH2 0x2D29 JUMP JUMPDEST PUSH2 0x941 PUSH2 0x2CE0 JUMP JUMPDEST PUSH1 0x1 PUSH1 0x1 PUSH1 0xA0 SHL SUB AND ADDRESS CALLER PUSH1 0x1 PUSH1 0x1 PUSH1 0xA0 SHL SUB AND PUSH32 0x247AB7B17EE489FA140C6666EDC3822EEFED2727610CD6E37192462B87244C60 DUP10 DUP10 DUP10 DUP10 PUSH2 0x987 PUSH1 0x4C SLOAD PUSH2 0xFFFF AND SWAP1 JUMP JUMPDEST PUSH1 0x40 MLOAD PUSH2 0x998 SWAP6 SWAP5 SWAP4 SWAP3 SWAP2 SWAP1 PUSH2 0x4DE6 JUMP JUMPDEST PUSH1 0x40 MLOAD DUP1 SWAP2 SUB SWAP1 LOG4 DUP1 ISZERO PUSH2 0x9B3 JUMPI PUSH1 0x4C DUP1 SLOAD PUSH3 0xFF0000 NOT AND SWAP1 SSTORE JUMPDEST POP POP POP POP POP POP JUMP JUMPDEST PUSH1 0x0 PUSH1 0x1 PUSH1 0x1 PUSH1 0xA0 SHL SUB PUSH32 0x0 AND ADDRESS SUB PUSH2 0xA05 JUMPI PUSH1 0x40 MLOAD PUSH3 0x461BCD PUSH1 0xE5 SHL DUP2 MSTORE PUSH1 0x4 ADD PUSH2 0x7CC SWAP1 PUSH2 0x4D71 JUMP JUMPDEST PUSH32 0x0 PUSH1 0x1 PUSH1 0x1 PUSH1 0xA0 SHL SUB AND PUSH2 0xA37 PUSH2 0x2CE0 JUMP JUMPDEST PUSH1 0x1 PUSH1 0x1 PUSH1 0xA0 SHL SUB AND EQ PUSH2 0xA5D JUMPI PUSH1 0x40 MLOAD PUSH3 0x461BCD PUSH1 0xE5 SHL DUP2 MSTORE PUSH1 0x4 ADD PUSH2 0x7CC SWAP1 PUSH2 0x4D97 JUMP JUMPDEST CALLER PUSH2 0xA66 PUSH2 0x2D01 JUMP JUMPDEST PUSH1 0x1 PUSH1 0x1 PUSH1 0xA0 SHL SUB AND EQ PUSH2 0xAAD JUMPI PUSH1 0x40 MLOAD PUSH3 0x461BCD PUSH1 0xE5 SHL DUP2 MSTORE PUSH1 0x20 PUSH1 0x4 DUP3 ADD MSTORE PUSH1 0xE PUSH1 0x24 DUP3 ADD MSTORE PUSH14 0x139BDD08105D5D1A1BDC9A5E9959 PUSH1 0x92 SHL PUSH1 0x44 DUP3 ADD MSTORE PUSH1 0x64 ADD PUSH2 0x7CC JUMP JUMPDEST PUSH1 0x1 PUSH1 0x2 DUP1 SLOAD PUSH1 0x1 PUSH1 0xA0 SHL SWAP1 DIV PUSH1 0xFF AND SWAP1 DUP2 GT ISZERO PUSH2 0xACD JUMPI PUSH2 0xACD PUSH2 0x4983 JUMP JUMPDEST EQ PUSH2 0xAEA JUMPI PUSH1 0x40 MLOAD PUSH3 0x461BCD PUSH1 0xE5 SHL DUP2 MSTORE PUSH1 0x4 ADD PUSH2 0x7CC SWAP1 PUSH2 0x4E24 JUMP JUMPDEST PUSH1 0x2 DUP1 DUP1 SLOAD PUSH1 0x1 PUSH1 0xA8 SHL SWAP1 DIV PUSH1 0xFF AND SWAP1 DUP2 GT ISZERO PUSH2 0xB09 JUMPI PUSH2 0xB09 PUSH2 0x4983 JUMP JUMPDEST EQ PUSH2 0xB47 JUMPI PUSH1 0x40 MLOAD PUSH3 0x461BCD PUSH1 0xE5 SHL DUP2 MSTORE PUSH1 0x20 PUSH1 0x4 DUP3 ADD MSTORE PUSH1 0xE PUSH1 0x24 DUP3 ADD MSTORE PUSH14 0x496C6C6567616C20557064617465 PUSH1 0x90 SHL PUSH1 0x44 DUP3 ADD MSTORE PUSH1 0x64 ADD PUSH2 0x7CC JUMP JUMPDEST PUSH1 0x1 PUSH1 0x1 PUSH1 0xA0 SHL SUB DUP3 AND PUSH2 0xB8F JUMPI PUSH1 0x40 MLOAD PUSH3 0x461BCD PUSH1 0xE5 SHL DUP2 MSTORE PUSH1 0x20 PUSH1 0x4 DUP3 ADD MSTORE PUSH1 0xF PUSH1 0x24 DUP3 ADD MSTORE PUSH15 0x496C6C6567616C2041646472657373 PUSH1 0x88 SHL PUSH1 0x44 DUP3 ADD MSTORE PUSH1 0x64 ADD PUSH2 0x7CC JUMP JUMPDEST PUSH1 0x2 SLOAD PUSH1 0x1 PUSH1 0x1 PUSH1 0xA0 SHL SUB AND ISZERO PUSH2 0xBCC JUMPI PUSH2 0xBB0 PUSH4 0xD9DC1F19 PUSH1 0xE0 SHL PUSH2 0x2D3D JUMP JUMPDEST PUSH2 0xBCC JUMPI PUSH1 0x40 MLOAD PUSH3 0x461BCD PUSH1 0xE5 SHL DUP2 MSTORE PUSH1 0x4 ADD PUSH2 0x7CC SWAP1 PUSH2 0x4E46 JUMP JUMPDEST PUSH1 0x40 MLOAD PUSH4 0x1FFC9A7 PUSH1 0xE0 SHL DUP2 MSTORE PUSH4 0x7A327937 PUSH1 0xE0 SHL PUSH1 0x4 DUP3 ADD MSTORE PUSH1 0x1 PUSH1 0x1 PUSH1 0xA0 SHL SUB DUP4 AND SWAP1 PUSH4 0x1FFC9A7 SWAP1 PUSH1 0x24 ADD PUSH1 0x20 PUSH1 0x40 MLOAD DUP1 DUP4 SUB DUP2 DUP7 GAS STATICCALL ISZERO DUP1 ISZERO PUSH2 0xC17 JUMPI RETURNDATASIZE PUSH1 0x0 DUP1 RETURNDATACOPY RETURNDATASIZE PUSH1 0x0 REVERT JUMPDEST POP POP POP POP PUSH1 0x40 MLOAD RETURNDATASIZE PUSH1 0x1F NOT PUSH1 0x1F DUP3 ADD AND DUP3 ADD DUP1 PUSH1 0x40 MSTORE POP DUP2 ADD SWAP1 PUSH2 0xC3B SWAP2 SWAP1 PUSH2 0x4E69 JUMP JUMPDEST PUSH2 0xC75 JUMPI PUSH1 0x40 MLOAD PUSH3 0x461BCD PUSH1 0xE5 SHL DUP2 MSTORE PUSH1 0x20 PUSH1 0x4 DUP3 ADD MSTORE PUSH1 0xB PUSH1 0x24 DUP3 ADD MSTORE PUSH11 0x125B1B1959D85B081050D3 PUSH1 0xAA SHL PUSH1 0x44 DUP3 ADD MSTORE PUSH1 0x64 ADD PUSH2 0x7CC JUMP JUMPDEST PUSH1 0x2 DUP1 SLOAD PUSH1 0x1 PUSH1 0x1 PUSH1 0xA0 SHL SUB NOT AND PUSH1 0x1 PUSH1 0x1 PUSH1 0xA0 SHL SUB DUP5 AND SWAP1 DUP2 OR SWAP1 SWAP2 SSTORE PUSH1 0x40 MLOAD SWAP1 DUP2 MSTORE ADDRESS SWAP1 CALLER SWAP1 PUSH32 0x410BF468EEBEEED60ACAEDB904AFB2DB7C0BB0131F7D14C3714D81B14FE8ED3C SWAP1 PUSH1 0x20 ADD JUMPDEST PUSH1 0x40 MLOAD DUP1 SWAP2 SUB SWAP1 LOG3 POP PUSH1 0x1 JUMPDEST SWAP2 SWAP1 POP JUMP JUMPDEST PUSH1 0x0 DUP1 PUSH2 0xCE6 PUSH3 0x22C469 PUSH1 0xE7 SHL PUSH2 0x2F29 JUMP JUMPDEST SWAP1 POP PUSH1 0x0 JUMPDEST DUP4 DUP2 LT ISZERO PUSH2 0xDD2 JUMPI PUSH1 0x1 DUP6 DUP6 DUP4 DUP2 DUP2 LT PUSH2 0xD07 JUMPI PUSH2 0xD07 PUSH2 0x4E86 JUMP JUMPDEST SWAP1 POP PUSH1 0x40 MUL ADD PUSH1 0x20 ADD PUSH1 0x20 DUP2 ADD SWAP1 PUSH2 0xD1F SWAP2 SWAP1 PUSH2 0x4E9C JUMP JUMPDEST PUSH1 0x4 DUP2 GT ISZERO PUSH2 0xD30 JUMPI PUSH2 0xD30 PUSH2 0x4983 JUMP JUMPDEST GT PUSH2 0xD70 JUMPI PUSH1 0x40 MLOAD PUSH3 0x461BCD PUSH1 0xE5 SHL DUP2 MSTORE PUSH1 0x20 PUSH1 0x4 DUP3 ADD MSTORE PUSH1 0x10 PUSH1 0x24 DUP3 ADD MSTORE PUSH16 0x496C6C6567616C204163746976697479 PUSH1 0x80 SHL PUSH1 0x44 DUP3 ADD MSTORE PUSH1 0x64 ADD PUSH2 0x7CC JUMP JUMPDEST PUSH2 0xDBF DUP6 DUP6 DUP4 DUP2 DUP2 LT PUSH2 0xD85 JUMPI PUSH2 0xD85 PUSH2 0x4E86 JUMP JUMPDEST SWAP1 POP PUSH1 0x40 MUL ADD PUSH1 0x0 ADD CALLDATALOAD DUP7 DUP7 DUP5 DUP2 DUP2 LT PUSH2 0xDA1 JUMPI PUSH2 0xDA1 PUSH2 0x4E86 JUMP JUMPDEST SWAP1 POP PUSH1 0x40 MUL ADD PUSH1 0x20 ADD PUSH1 0x20 DUP2 ADD SWAP1 PUSH2 0xDB9 SWAP2 SWAP1 PUSH2 0x4E9C JUMP JUMPDEST DUP5 PUSH2 0x308A JUMP JUMPDEST POP DUP1 PUSH2 0xDCA DUP2 PUSH2 0x4ED3 JUMP JUMPDEST SWAP2 POP POP PUSH2 0xCEB JUMP JUMPDEST POP PUSH1 0x1 SWAP5 SWAP4 POP POP POP POP JUMP JUMPDEST PUSH1 0x0 PUSH2 0xDEC PUSH1 0x4C SLOAD PUSH2 0xFFFF AND SWAP1 JUMP JUMPDEST SWAP1 POP SWAP1 JUMP JUMPDEST PUSH1 0x0 PUSH1 0x1 PUSH1 0x1 PUSH1 0xA0 SHL SUB PUSH32 0x0 AND ADDRESS SUB PUSH2 0xE3B JUMPI PUSH1 0x40 MLOAD PUSH3 0x461BCD PUSH1 0xE5 SHL DUP2 MSTORE PUSH1 0x4 ADD PUSH2 0x7CC SWAP1 PUSH2 0x4D71 JUMP JUMPDEST PUSH32 0x0 PUSH1 0x1 PUSH1 0x1 PUSH1 0xA0 SHL SUB AND PUSH2 0xE6D PUSH2 0x2CE0 JUMP JUMPDEST PUSH1 0x1 PUSH1 0x1 PUSH1 0xA0 SHL SUB AND EQ PUSH2 0xE93 JUMPI PUSH1 0x40 MLOAD PUSH3 0x461BCD PUSH1 0xE5 SHL DUP2 MSTORE PUSH1 0x4 ADD PUSH2 0x7CC SWAP1 PUSH2 0x4D97 JUMP JUMPDEST PUSH1 0x1 PUSH1 0x2 DUP1 SLOAD PUSH1 0x1 PUSH1 0xA0 SHL SWAP1 DIV PUSH1 0xFF AND SWAP1 DUP2 GT ISZERO PUSH2 0xEB3 JUMPI PUSH2 0xEB3 PUSH2 0x4983 JUMP JUMPDEST EQ PUSH2 0xED0 JUMPI PUSH1 0x40 MLOAD PUSH3 0x461BCD PUSH1 0xE5 SHL DUP2 MSTORE PUSH1 0x4 ADD PUSH2 0x7CC SWAP1 PUSH2 0x4E24 JUMP JUMPDEST PUSH2 0xEE0 PUSH4 0x733ADC7 PUSH1 0xE3 SHL PUSH2 0x2D3D JUMP JUMPDEST PUSH2 0xEFC JUMPI PUSH1 0x40 MLOAD PUSH3 0x461BCD PUSH1 0xE5 SHL DUP2 MSTORE PUSH1 0x4 ADD PUSH2 0x7CC SWAP1 PUSH2 0x4E46 JUMP JUMPDEST PUSH1 0x2 DUP1 SLOAD DUP4 SWAP2 SWAP1 PUSH1 0xFF PUSH1 0xA8 SHL NOT AND PUSH1 0x1 PUSH1 0xA8 SHL DUP4 DUP4 DUP2 GT ISZERO PUSH2 0xF20 JUMPI PUSH2 0xF20 PUSH2 0x4983 JUMP JUMPDEST MUL OR SWAP1 SSTORE POP ADDRESS CALLER PUSH1 0x1 PUSH1 0x1 PUSH1 0xA0 SHL SUB AND PUSH32 0xF5912C5E436152157ED2B4A84BC313B4B1FE09A15B941F195D23C99A1B8C45AD DUP5 PUSH1 0x40 MLOAD PUSH2 0xCC3 SWAP2 SWAP1 PUSH2 0x4BEA JUMP JUMPDEST PUSH1 0x60 PUSH1 0x0 DUP1 PUSH2 0xF6F PUSH1 0x44 DUP6 PUSH2 0x30E8 JUMP JUMPDEST SWAP2 POP SWAP2 POP DUP1 PUSH2 0xF93 JUMPI PUSH1 0x40 DUP1 MLOAD PUSH1 0x0 DUP1 DUP3 MSTORE PUSH1 0x20 DUP3 ADD SWAP1 SWAP3 MSTORE SWAP1 JUMPDEST POP SWAP5 SWAP4 POP POP POP POP JUMP JUMPDEST PUSH2 0xF9F DUP3 PUSH1 0x4 ADD PUSH2 0x314A JUMP JUMPDEST SWAP5 SWAP4 POP POP POP POP JUMP JUMPDEST PUSH1 0x0 PUSH1 0x4 PUSH1 0x45 PUSH1 0x0 PUSH2 0xFB9 DUP7 DUP7 PUSH2 0x3155 JUMP JUMPDEST DUP2 MSTORE PUSH1 0x20 DUP2 ADD SWAP2 SWAP1 SWAP2 MSTORE PUSH1 0x40 ADD PUSH1 0x0 KECCAK256 PUSH1 0x1 ADD SLOAD PUSH1 0xFF AND PUSH1 0x5 DUP2 GT ISZERO PUSH2 0xFE1 JUMPI PUSH2 0xFE1 PUSH2 0x4983 JUMP JUMPDEST EQ SWAP4 SWAP3 POP POP POP JUMP JUMPDEST PUSH1 0x0 ADDRESS PUSH1 0x1 PUSH1 0x1 PUSH1 0xA0 SHL SUB PUSH32 0x0 AND EQ PUSH2 0x105A JUMPI PUSH1 0x40 MLOAD PUSH3 0x461BCD PUSH1 0xE5 SHL DUP2 MSTORE PUSH1 0x20 PUSH1 0x4 DUP3 ADD MSTORE PUSH1 0x14 PUSH1 0x24 DUP3 ADD MSTORE PUSH20 0x125B1B1959D85B0811195B1959D85D1958D85B1B PUSH1 0x62 SHL PUSH1 0x44 DUP3 ADD MSTORE PUSH1 0x64 ADD PUSH2 0x7CC JUMP JUMPDEST POP PUSH1 0x0 DUP1 MLOAD PUSH1 0x20 PUSH2 0x5232 DUP4 CODECOPY DUP2 MLOAD SWAP2 MSTORE SWAP1 JUMP JUMPDEST PUSH1 0x0 PUSH2 0xDEC PUSH2 0x2CE0 JUMP JUMPDEST PUSH1 0x0 DUP1 DUP1 PUSH2 0x1086 PUSH1 0x44 DUP6 PUSH2 0x3188 JUMP JUMPDEST SWAP2 POP SWAP2 POP DUP1 PUSH2 0x109A JUMPI PUSH1 0x0 SWAP3 POP POP POP PUSH2 0x77E JUMP JUMPDEST PUSH1 0x0 DUP1 PUSH2 0x10B5 DUP5 PUSH1 0x3 ADD SLOAD PUSH1 0x44 PUSH2 0x31A0 SWAP1 SWAP2 SWAP1 PUSH4 0xFFFFFFFF AND JUMP JUMPDEST SWAP2 POP SWAP2 POP DUP1 PUSH2 0x10CB JUMPI PUSH1 0x0 SWAP5 POP POP POP POP POP PUSH2 0x77E JUMP JUMPDEST PUSH1 0x0 DUP1 PUSH2 0x10E6 DUP5 PUSH1 0x2 ADD SLOAD PUSH1 0x44 PUSH2 0x31B9 SWAP1 SWAP2 SWAP1 PUSH4 0xFFFFFFFF AND JUMP JUMPDEST SWAP2 POP SWAP2 POP DUP1 PUSH2 0x10FE JUMPI PUSH1 0x0 SWAP7 POP POP POP POP POP POP POP PUSH2 0x77E JUMP JUMPDEST POP PUSH1 0x2 ADD SLOAD DUP8 EQ SWAP5 POP POP POP POP POP SWAP3 SWAP2 POP POP JUMP JUMPDEST PUSH1 0x0 DUP1 PUSH2 0x1124 PUSH4 0x1B421CD5 PUSH1 0xE3 SHL PUSH2 0x2F29 JUMP JUMPDEST SWAP1 POP PUSH1 0x0 PUSH2 0x1131 CALLER PUSH2 0x31D2 JUMP JUMPDEST SWAP1 POP PUSH1 0x0 JUMPDEST DUP5 DUP2 LT ISZERO PUSH2 0x145D JUMPI PUSH1 0x0 PUSH2 0x1168 DUP8 DUP8 DUP5 DUP2 DUP2 LT PUSH2 0x1155 JUMPI PUSH2 0x1155 PUSH2 0x4E86 JUMP JUMPDEST SWAP1 POP PUSH1 0x40 MUL ADD PUSH1 0x0 ADD CALLDATALOAD DUP5 DUP7 PUSH1 0x0 PUSH2 0x3211 JUMP JUMPDEST DUP1 SLOAD PUSH1 0x0 DUP2 DUP2 MSTORE PUSH1 0x44 PUSH1 0x20 MSTORE PUSH1 0x40 SWAP1 KECCAK256 SWAP2 SWAP3 POP PUSH2 0x11A4 SWAP2 SWAP1 DUP10 DUP10 DUP7 DUP2 DUP2 LT PUSH2 0x1192 JUMPI PUSH2 0x1192 PUSH2 0x4E86 JUMP JUMPDEST SWAP1 POP PUSH1 0x40 MUL ADD PUSH1 0x0 ADD CALLDATALOAD CALLER PUSH1 0x2 PUSH2 0x3313 JUMP JUMPDEST PUSH1 0x0 DUP8 DUP8 DUP5 DUP2 DUP2 LT PUSH2 0x11B8 JUMPI PUSH2 0x11B8 PUSH2 0x4E86 JUMP JUMPDEST SWAP1 POP PUSH1 0x40 MUL ADD PUSH1 0x20 ADD CALLDATALOAD EQ PUSH2 0x1334 JUMPI PUSH1 0x1 PUSH1 0x44 PUSH1 0x0 DUP10 DUP10 DUP7 DUP2 DUP2 LT PUSH2 0x11DF JUMPI PUSH2 0x11DF PUSH2 0x4E86 JUMP JUMPDEST SWAP1 POP PUSH1 0x40 MUL ADD PUSH1 0x20 ADD CALLDATALOAD DUP2 MSTORE PUSH1 0x20 ADD SWAP1 DUP2 MSTORE PUSH1 0x20 ADD PUSH1 0x0 KECCAK256 PUSH1 0x1 ADD PUSH1 0x0 SWAP1 SLOAD SWAP1 PUSH2 0x100 EXP SWAP1 DIV PUSH1 0xFF AND PUSH1 0x3 DUP2 GT ISZERO PUSH2 0x1219 JUMPI PUSH2 0x1219 PUSH2 0x4983 JUMP JUMPDEST GT PUSH2 0x1260 JUMPI PUSH1 0x40 MLOAD PUSH3 0x461BCD PUSH1 0xE5 SHL DUP2 MSTORE PUSH1 0x20 PUSH1 0x4 DUP3 ADD MSTORE PUSH1 0x17 PUSH1 0x24 DUP3 ADD MSTORE PUSH23 0x496C6C6567616C2041646D696E204167656E7454797065 PUSH1 0x48 SHL PUSH1 0x44 DUP3 ADD MSTORE PUSH1 0x64 ADD PUSH2 0x7CC JUMP JUMPDEST PUSH1 0x0 DUP1 PUSH2 0x1287 DUP10 DUP10 DUP7 DUP2 DUP2 LT PUSH2 0x1278 JUMPI PUSH2 0x1278 PUSH2 0x4E86 JUMP JUMPDEST SWAP1 POP PUSH1 0x40 MUL ADD PUSH1 0x20 ADD CALLDATALOAD PUSH2 0x35FA JUMP JUMPDEST SWAP2 POP SWAP2 POP PUSH1 0x40 MLOAD PUSH1 0x20 ADD PUSH2 0x12AC SWAP1 PUSH1 0x0 DUP1 MLOAD PUSH1 0x20 PUSH2 0x5212 DUP4 CODECOPY DUP2 MLOAD SWAP2 MSTORE DUP2 MSTORE PUSH1 0x20 ADD SWAP1 JUMP JUMPDEST PUSH1 0x40 MLOAD PUSH1 0x20 DUP2 DUP4 SUB SUB DUP2 MSTORE SWAP1 PUSH1 0x40 MSTORE DUP1 MLOAD SWAP1 PUSH1 0x20 ADD KECCAK256 DUP2 EQ PUSH2 0x1306 JUMPI PUSH1 0x40 MLOAD PUSH3 0x461BCD PUSH1 0xE5 SHL DUP2 MSTORE PUSH1 0x20 PUSH1 0x4 DUP3 ADD MSTORE PUSH1 0x13 PUSH1 0x24 DUP3 ADD MSTORE PUSH19 0x496C6C6567616C20416D696E642053636F7065 PUSH1 0x68 SHL PUSH1 0x44 DUP3 ADD MSTORE PUSH1 0x64 ADD PUSH2 0x7CC JUMP JUMPDEST DUP9 DUP9 DUP6 DUP2 DUP2 LT PUSH2 0x1318 JUMPI PUSH2 0x1318 PUSH2 0x4E86 JUMP JUMPDEST SWAP1 POP PUSH1 0x40 MUL ADD PUSH1 0x20 ADD CALLDATALOAD DUP4 PUSH1 0x0 ADD PUSH1 0x0 ADD DUP2 SWAP1 SSTORE POP POP POP PUSH2 0x1376 JUMP JUMPDEST PUSH1 0x40 DUP1 MLOAD PUSH1 0x0 DUP1 MLOAD PUSH1 0x20 PUSH2 0x5212 DUP4 CODECOPY DUP2 MLOAD SWAP2 MSTORE PUSH1 0x20 DUP1 DUP4 ADD SWAP2 SWAP1 SWAP2 MSTORE DUP3 MLOAD DUP1 DUP4 SUB DUP3 ADD DUP2 MSTORE SWAP2 DUP4 ADD DUP4 MSTORE DUP2 MLOAD SWAP2 DUP2 ADD SWAP2 SWAP1 SWAP2 KECCAK256 PUSH1 0x0 SWAP1 DUP2 MSTORE PUSH1 0x45 SWAP1 SWAP2 MSTORE KECCAK256 SLOAD DUP2 SSTORE JUMPDEST PUSH2 0x13E7 PUSH1 0x44 PUSH1 0x0 DUP10 DUP10 DUP7 DUP2 DUP2 LT PUSH2 0x138F JUMPI PUSH2 0x138F PUSH2 0x4E86 JUMP JUMPDEST SWAP1 POP PUSH1 0x40 MUL ADD PUSH1 0x20 ADD CALLDATALOAD DUP2 MSTORE PUSH1 0x20 ADD SWAP1 DUP2 MSTORE PUSH1 0x20 ADD PUSH1 0x0 KECCAK256 DUP9 DUP9 DUP6 DUP2 DUP2 LT PUSH2 0x13B9 JUMPI PUSH2 0x13B9 PUSH2 0x4E86 JUMP JUMPDEST SWAP1 POP PUSH1 0x40 MUL ADD PUSH1 0x20 ADD CALLDATALOAD DUP10 DUP10 DUP7 DUP2 DUP2 LT PUSH2 0x13D5 JUMPI PUSH2 0x13D5 PUSH2 0x4E86 JUMP JUMPDEST SWAP1 POP PUSH1 0x40 MUL ADD PUSH1 0x0 ADD CALLDATALOAD CALLER PUSH1 0x0 PUSH2 0x3313 JUMP JUMPDEST DUP7 DUP7 DUP4 DUP2 DUP2 LT PUSH2 0x13F9 JUMPI PUSH2 0x13F9 PUSH2 0x4E86 JUMP JUMPDEST SWAP1 POP PUSH1 0x40 MUL ADD PUSH1 0x20 ADD CALLDATALOAD DUP8 DUP8 DUP5 DUP2 DUP2 LT PUSH2 0x1415 JUMPI PUSH2 0x1415 PUSH2 0x4E86 JUMP JUMPDEST PUSH1 0x40 DUP1 MLOAD SWAP2 MUL SWAP3 SWAP1 SWAP3 ADD CALLDATALOAD SWAP2 CALLER SWAP2 POP PUSH32 0x16F129E49E4E12E9AA01CFB007139AFC1754E2F9C2630D95A60E4BBB533E0D31 SWAP1 PUSH1 0x0 SWAP1 LOG4 POP DUP1 PUSH2 0x1455 DUP2 PUSH2 0x4ED3 JUMP JUMPDEST SWAP2 POP POP PUSH2 0x1136 JUMP JUMPDEST POP PUSH1 0x1 SWAP6 SWAP5 POP POP POP POP POP JUMP JUMPDEST PUSH2 0x14B8 PUSH1 0x40 DUP1 MLOAD PUSH2 0x120 DUP2 ADD DUP3 MSTORE PUSH1 0x0 DUP1 DUP3 MSTORE PUSH1 0x20 DUP3 ADD DUP2 SWAP1 MSTORE SWAP2 DUP2 ADD DUP3 SWAP1 MSTORE PUSH1 0x60 DUP2 ADD DUP3 SWAP1 MSTORE PUSH1 0x80 DUP2 ADD DUP3 SWAP1 MSTORE SWAP1 PUSH1 0xA0 DUP3 ADD SWAP1 DUP2 MSTORE PUSH1 0x20 ADD PUSH1 0x0 DUP2 MSTORE PUSH1 0x20 ADD PUSH1 0x0 DUP2 MSTORE PUSH1 0x20 ADD PUSH1 0x60 DUP2 MSTORE POP SWAP1 JUMP JUMPDEST PUSH1 0x0 DUP1 PUSH2 0x14C6 PUSH1 0x44 DUP6 PUSH2 0x30E8 JUMP JUMPDEST SWAP2 POP SWAP2 POP DUP1 PUSH2 0x152B JUMPI PUSH1 0x40 DUP1 MLOAD PUSH2 0x120 DUP2 ADD DUP3 MSTORE PUSH1 0x0 DUP1 DUP3 MSTORE PUSH1 0x20 DUP3 ADD DUP2 SWAP1 MSTORE SWAP2 DUP2 ADD DUP3 SWAP1 MSTORE PUSH1 0x60 DUP2 ADD DUP3 SWAP1 MSTORE PUSH1 0x80 DUP2 ADD DUP3 SWAP1 MSTORE SWAP1 PUSH1 0xA0 DUP3 ADD SWAP1 DUP2 MSTORE PUSH1 0x20 ADD PUSH1 0x0 DUP2 MSTORE PUSH1 0x20 ADD PUSH1 0x0 DUP2 MSTORE PUSH1 0x40 DUP1 MLOAD PUSH1 0x20 DUP2 DUP2 ADD SWAP1 SWAP3 MSTORE PUSH1 0x0 DUP2 MSTORE SWAP2 ADD MSTORE SWAP5 SWAP4 POP POP POP POP JUMP JUMPDEST PUSH1 0x40 DUP1 MLOAD PUSH2 0x120 DUP2 ADD DUP3 MSTORE DUP4 SLOAD DUP1 DUP3 MSTORE PUSH1 0x2 DUP6 ADD SLOAD PUSH2 0xFFFF SWAP1 DUP2 AND PUSH1 0x20 DUP1 DUP6 ADD SWAP2 SWAP1 SWAP2 MSTORE PUSH1 0x1 DUP1 DUP9 ADD SLOAD PUSH1 0x1 PUSH1 0x38 SHL DUP2 DIV DUP5 AND DUP7 DUP9 ADD MSTORE PUSH4 0x1000000 DUP2 DIV DUP5 AND PUSH1 0x60 DUP8 ADD MSTORE PUSH6 0x10000000000 SWAP1 DIV SWAP1 SWAP3 AND PUSH1 0x80 DUP6 ADD MSTORE PUSH1 0x0 SWAP3 DUP4 MSTORE PUSH1 0x44 SWAP1 MSTORE SWAP3 SWAP1 KECCAK256 SWAP1 SWAP2 ADD SLOAD PUSH1 0xA0 DUP3 ADD SWAP1 PUSH1 0xFF AND PUSH1 0x3 DUP2 GT ISZERO PUSH2 0x15AA JUMPI PUSH2 0x15AA PUSH2 0x4983 JUMP JUMPDEST DUP2 MSTORE PUSH1 0x1 DUP5 ADD SLOAD PUSH1 0x20 SWAP1 SWAP2 ADD SWAP1 PUSH2 0x100 SWAP1 DIV PUSH1 0xFF AND PUSH1 0x4 DUP2 GT ISZERO PUSH2 0x15D0 JUMPI PUSH2 0x15D0 PUSH2 0x4983 JUMP JUMPDEST DUP2 MSTORE PUSH1 0x1 DUP5 ADD SLOAD PUSH1 0x20 SWAP1 SWAP2 ADD SWAP1 PUSH3 0x10000 SWAP1 DIV PUSH1 0xFF AND PUSH1 0x3 DUP2 GT ISZERO PUSH2 0x15F7 JUMPI PUSH2 0x15F7 PUSH2 0x4983 JUMP JUMPDEST DUP2 MSTORE PUSH1 0x20 ADD DUP4 PUSH1 0x3 ADD DUP1 SLOAD PUSH2 0x160B SWAP1 PUSH2 0x4EEC JUMP JUMPDEST DUP1 PUSH1 0x1F ADD PUSH1 0x20 DUP1 SWAP2 DIV MUL PUSH1 0x20 ADD PUSH1 0x40 MLOAD SWAP1 DUP2 ADD PUSH1 0x40 MSTORE DUP1 SWAP3 SWAP2 SWAP1 DUP2 DUP2 MSTORE PUSH1 0x20 ADD DUP3 DUP1 SLOAD PUSH2 0x1637 SWAP1 PUSH2 0x4EEC JUMP JUMPDEST DUP1 ISZERO PUSH2 0x1684 JUMPI DUP1 PUSH1 0x1F LT PUSH2 0x1659 JUMPI PUSH2 0x100 DUP1 DUP4 SLOAD DIV MUL DUP4 MSTORE SWAP2 PUSH1 0x20 ADD SWAP2 PUSH2 0x1684 JUMP JUMPDEST DUP3 ADD SWAP2 SWAP1 PUSH1 0x0 MSTORE PUSH1 0x20 PUSH1 0x0 KECCAK256 SWAP1 JUMPDEST DUP2 SLOAD DUP2 MSTORE SWAP1 PUSH1 0x1 ADD SWAP1 PUSH1 0x20 ADD DUP1 DUP4 GT PUSH2 0x1667 JUMPI DUP3 SWAP1 SUB PUSH1 0x1F AND DUP3 ADD SWAP2 JUMPDEST POP POP POP POP POP DUP2 MSTORE POP SWAP3 POP POP POP SWAP2 SWAP1 POP JUMP JUMPDEST PUSH1 0x60 PUSH1 0x1 PUSH1 0x1 PUSH1 0xA0 SHL SUB PUSH32 0x0 AND ADDRESS SUB PUSH2 0x16DF JUMPI PUSH1 0x40 MLOAD PUSH3 0x461BCD PUSH1 0xE5 SHL DUP2 MSTORE PUSH1 0x4 ADD PUSH2 0x7CC SWAP1 PUSH2 0x4D71 JUMP JUMPDEST PUSH32 0x0 PUSH1 0x1 PUSH1 0x1 PUSH1 0xA0 SHL SUB AND PUSH2 0x1711 PUSH2 0x2CE0 JUMP JUMPDEST PUSH1 0x1 PUSH1 0x1 PUSH1 0xA0 SHL SUB AND EQ PUSH2 0x1737 JUMPI PUSH1 0x40 MLOAD PUSH3 0x461BCD PUSH1 0xE5 SHL DUP2 MSTORE PUSH1 0x4 ADD PUSH2 0x7CC SWAP1 PUSH2 0x4D97 JUMP JUMPDEST PUSH1 0x1 PUSH1 0x2 DUP1 SLOAD PUSH1 0x1 PUSH1 0xA0 SHL SWAP1 DIV PUSH1 0xFF AND SWAP1 DUP2 GT ISZERO PUSH2 0x1757 JUMPI PUSH2 0x1757 PUSH2 0x4983 JUMP JUMPDEST EQ PUSH2 0x1774 JUMPI PUSH1 0x40 MLOAD PUSH3 0x461BCD PUSH1 0xE5 SHL DUP2 MSTORE PUSH1 0x4 ADD PUSH2 0x7CC SWAP1 PUSH2 0x4E24 JUMP JUMPDEST PUSH1 0x2 DUP1 DUP1 SLOAD PUSH1 0x1 PUSH1 0xA8 SHL SWAP1 DIV PUSH1 0xFF AND SWAP1 DUP2 GT ISZERO PUSH2 0x1793 JUMPI PUSH2 0x1793 PUSH2 0x4983 JUMP JUMPDEST EQ PUSH2 0x17D2 JUMPI PUSH1 0x40 MLOAD PUSH3 0x461BCD PUSH1 0xE5 SHL DUP2 MSTORE PUSH1 0x20 PUSH1 0x4 DUP3 ADD MSTORE PUSH1 0xF PUSH1 0x24 DUP3 ADD MSTORE PUSH15 0x496C6C6567616C2055706772616465 PUSH1 0x88 SHL PUSH1 0x44 DUP3 ADD MSTORE PUSH1 0x64 ADD PUSH2 0x7CC JUMP JUMPDEST PUSH2 0x17DB DUP5 PUSH2 0x368D JUMP JUMPDEST PUSH2 0x17E6 DUP5 DUP5 DUP5 PUSH2 0x370E JUMP JUMPDEST SWAP1 POP JUMPDEST SWAP4 SWAP3 POP POP POP JUMP JUMPDEST PUSH1 0x0 PUSH1 0x1 PUSH1 0x2 DUP1 SLOAD PUSH1 0x1 PUSH1 0xA0 SHL SWAP1 DIV PUSH1 0xFF AND SWAP1 DUP2 GT ISZERO PUSH2 0x1812 JUMPI PUSH2 0x1812 PUSH2 0x4983 JUMP JUMPDEST EQ PUSH2 0x182F JUMPI PUSH1 0x40 MLOAD PUSH3 0x461BCD PUSH1 0xE5 SHL DUP2 MSTORE PUSH1 0x4 ADD PUSH2 0x7CC SWAP1 PUSH2 0x4E24 JUMP JUMPDEST PUSH2 0x183F PUSH4 0x756AF45F PUSH1 0xE0 SHL PUSH2 0x2D3D JUMP JUMPDEST PUSH2 0x185B JUMPI PUSH1 0x40 MLOAD PUSH3 0x461BCD PUSH1 0xE5 SHL DUP2 MSTORE PUSH1 0x4 ADD PUSH2 0x7CC SWAP1 PUSH2 0x4E46 JUMP JUMPDEST PUSH1 0x40 MLOAD SELFBALANCE SWAP1 PUSH1 0x1 PUSH1 0x1 PUSH1 0xA0 SHL SUB DUP5 AND SWAP1 SELFBALANCE DUP1 ISZERO PUSH2 0x8FC MUL SWAP2 PUSH1 0x0 DUP2 DUP2 DUP2 DUP6 DUP9 DUP9 CALL SWAP4 POP POP POP POP ISZERO DUP1 ISZERO PUSH2 0x1892 JUMPI RETURNDATASIZE PUSH1 0x0 DUP1 RETURNDATACOPY RETURNDATASIZE PUSH1 0x0 REVERT JUMPDEST POP SWAP3 SWAP2 POP POP JUMP JUMPDEST PUSH1 0x60 PUSH1 0x0 DUP1 SLOAD PUSH2 0x18A8 SWAP1 PUSH2 0x4EEC JUMP JUMPDEST DUP1 PUSH1 0x1F ADD PUSH1 0x20 DUP1 SWAP2 DIV MUL PUSH1 0x20 ADD PUSH1 0x40 MLOAD SWAP1 DUP2 ADD PUSH1 0x40 MSTORE DUP1 SWAP3 SWAP2 SWAP1 DUP2 DUP2 MSTORE PUSH1 0x20 ADD DUP3 DUP1 SLOAD PUSH2 0x18D4 SWAP1 PUSH2 0x4EEC JUMP JUMPDEST DUP1 ISZERO PUSH2 0x1921 JUMPI DUP1 PUSH1 0x1F LT PUSH2 0x18F6 JUMPI PUSH2 0x100 DUP1 DUP4 SLOAD DIV MUL DUP4 MSTORE SWAP2 PUSH1 0x20 ADD SWAP2 PUSH2 0x1921 JUMP JUMPDEST DUP3 ADD SWAP2 SWAP1 PUSH1 0x0 MSTORE PUSH1 0x20 PUSH1 0x0 KECCAK256 SWAP1 JUMPDEST DUP2 SLOAD DUP2 MSTORE SWAP1 PUSH1 0x1 ADD SWAP1 PUSH1 0x20 ADD DUP1 DUP4 GT PUSH2 0x1904 JUMPI DUP3 SWAP1 SUB PUSH1 0x1F AND DUP3 ADD SWAP2 JUMPDEST POP POP POP POP POP SWAP1 POP SWAP1 JUMP JUMPDEST PUSH1 0x0 PUSH1 0x4 PUSH1 0x0 DUP4 DUP2 MSTORE PUSH1 0x45 PUSH1 0x20 MSTORE PUSH1 0x40 SWAP1 KECCAK256 PUSH1 0x1 ADD SLOAD PUSH1 0xFF AND PUSH1 0x5 DUP2 GT ISZERO PUSH2 0x1955 JUMPI PUSH2 0x1955 PUSH2 0x4983 JUMP JUMPDEST EQ SWAP3 SWAP2 POP POP JUMP JUMPDEST PUSH1 0x0 DUP1 PUSH2 0x196F PUSH4 0x1B421CD5 PUSH1 0xE3 SHL PUSH2 0x2F29 JUMP JUMPDEST SWAP1 POP PUSH1 0x0 PUSH2 0x197C CALLER PUSH2 0x31D2 JUMP JUMPDEST SWAP1 POP PUSH1 0x0 JUMPDEST DUP5 DUP2 LT ISZERO PUSH2 0x145D JUMPI PUSH1 0x0 PUSH2 0x19A0 DUP8 DUP8 DUP5 DUP2 DUP2 LT PUSH2 0x1155 JUMPI PUSH2 0x1155 PUSH2 0x4E86 JUMP JUMPDEST SWAP1 POP DUP7 DUP7 DUP4 DUP2 DUP2 LT PUSH2 0x19B4 JUMPI PUSH2 0x19B4 PUSH2 0x4E86 JUMP JUMPDEST SWAP1 POP PUSH1 0x40 MUL ADD PUSH1 0x20 ADD PUSH1 0x20 DUP2 ADD SWAP1 PUSH2 0x19CC SWAP2 SWAP1 PUSH2 0x4F26 JUMP JUMPDEST PUSH1 0x1 DUP3 ADD DUP1 SLOAD PUSH2 0xFFFF SWAP3 SWAP1 SWAP3 AND PUSH1 0x1 PUSH1 0x38 SHL MUL PUSH2 0xFFFF PUSH1 0x38 SHL NOT SWAP1 SWAP3 AND SWAP2 SWAP1 SWAP2 OR SWAP1 SSTORE DUP7 DUP7 DUP4 DUP2 DUP2 LT PUSH2 0x1A01 JUMPI PUSH2 0x1A01 PUSH2 0x4E86 JUMP JUMPDEST PUSH1 0x40 MUL SWAP2 SWAP1 SWAP2 ADD CALLDATALOAD SWAP1 POP CALLER PUSH32 0x48806D5518FD9B6001A8FCFFEB0709A5953330F85AF9A02E40A7EED1AA9D7B55 DUP10 DUP10 DUP7 DUP2 DUP2 LT PUSH2 0x1A3F JUMPI PUSH2 0x1A3F PUSH2 0x4E86 JUMP JUMPDEST SWAP1 POP PUSH1 0x40 MUL ADD PUSH1 0x20 ADD PUSH1 0x20 DUP2 ADD SWAP1 PUSH2 0x1A57 SWAP2 SWAP1 PUSH2 0x4F26 JUMP JUMPDEST PUSH1 0x40 MLOAD PUSH2 0xFFFF SWAP1 SWAP2 AND DUP2 MSTORE PUSH1 0x20 ADD PUSH1 0x40 MLOAD DUP1 SWAP2 SUB SWAP1 LOG3 POP DUP1 PUSH2 0x1A78 DUP2 PUSH2 0x4ED3 JUMP JUMPDEST SWAP2 POP POP PUSH2 0x1981 JUMP JUMPDEST PUSH1 0x0 DUP1 DUP1 PUSH2 0x1A8F PUSH1 0x44 DUP7 PUSH2 0x30E8 JUMP JUMPDEST SWAP2 POP SWAP2 POP DUP1 PUSH2 0x1AA3 JUMPI PUSH1 0x0 SWAP3 POP POP POP PUSH2 0x77E JUMP JUMPDEST PUSH2 0x1AB0 PUSH1 0x4 DUP4 ADD DUP6 PUSH2 0x38C5 JUMP JUMPDEST SWAP6 SWAP5 POP POP POP POP POP JUMP JUMPDEST PUSH1 0x60 PUSH1 0x1 DUP1 SLOAD PUSH2 0x18A8 SWAP1 PUSH2 0x4EEC JUMP JUMPDEST PUSH1 0x40 MLOAD PUSH3 0x461BCD PUSH1 0xE5 SHL DUP2 MSTORE PUSH1 0x20 PUSH1 0x4 DUP3 ADD MSTORE PUSH1 0xD PUSH1 0x24 DUP3 ADD MSTORE PUSH13 0x139BDD0814DD5C1C1BDC9D1959 PUSH1 0x9A SHL PUSH1 0x44 DUP3 ADD MSTORE PUSH1 0x0 SWAP1 PUSH1 0x64 ADD PUSH2 0x7CC JUMP JUMPDEST PUSH1 0x0 DUP1 DUP1 PUSH2 0x1B12 PUSH1 0x44 DUP6 PUSH2 0x31A0 JUMP JUMPDEST SWAP2 POP SWAP2 POP DUP1 PUSH2 0x1B26 JUMPI PUSH1 0x0 SWAP3 POP POP POP PUSH2 0x77E JUMP JUMPDEST PUSH1 0x0 DUP1 PUSH2 0x1B41 DUP5 PUSH1 0x2 ADD SLOAD PUSH1 0x44 PUSH2 0x31B9 SWAP1 SWAP2 SWAP1 PUSH4 0xFFFFFFFF AND JUMP JUMPDEST SWAP2 POP SWAP2 POP DUP1 PUSH2 0x1B57 JUMPI PUSH1 0x0 SWAP5 POP POP POP POP POP PUSH2 0x77E JUMP JUMPDEST POP PUSH1 0x2 ADD SLOAD DUP6 EQ SWAP3 POP POP POP SWAP3 SWAP2 POP POP JUMP JUMPDEST PUSH1 0x0 DUP1 PUSH2 0x1B7B PUSH4 0xC7DF2ADD PUSH1 0xE0 SHL PUSH2 0x2F29 JUMP JUMPDEST SWAP1 POP PUSH1 0x0 PUSH2 0x1B88 CALLER PUSH2 0x31D2 JUMP JUMPDEST SWAP1 POP PUSH1 0x0 JUMPDEST DUP5 DUP2 LT ISZERO PUSH2 0x145D JUMPI PUSH1 0x0 PUSH2 0x1BBF DUP8 DUP8 DUP5 DUP2 DUP2 LT PUSH2 0x1BAC JUMPI PUSH2 0x1BAC PUSH2 0x4E86 JUMP JUMPDEST SWAP1 POP PUSH1 0x40 MUL ADD PUSH1 0x0 ADD CALLDATALOAD DUP5 DUP7 PUSH1 0x1 PUSH2 0x3211 JUMP JUMPDEST SWAP1 POP PUSH1 0x0 DUP8 DUP8 DUP5 DUP2 DUP2 LT PUSH2 0x1BD5 JUMPI PUSH2 0x1BD5 PUSH2 0x4E86 JUMP JUMPDEST SWAP1 POP PUSH1 0x40 MUL ADD PUSH1 0x20 ADD PUSH1 0x20 DUP2 ADD SWAP1 PUSH2 0x1BED SWAP2 SWAP1 PUSH2 0x4F4A JUMP JUMPDEST PUSH1 0x3 DUP2 GT ISZERO PUSH2 0x1BFE JUMPI PUSH2 0x1BFE PUSH2 0x4983 JUMP JUMPDEST SUB PUSH2 0x1C42 JUMPI PUSH1 0x40 MLOAD PUSH3 0x461BCD PUSH1 0xE5 SHL DUP2 MSTORE PUSH1 0x20 PUSH1 0x4 DUP3 ADD MSTORE PUSH1 0x14 PUSH1 0x24 DUP3 ADD MSTORE PUSH20 0x496C6C6567616C20416C7465726162696C697479 PUSH1 0x60 SHL PUSH1 0x44 DUP3 ADD MSTORE PUSH1 0x64 ADD PUSH2 0x7CC JUMP JUMPDEST DUP7 DUP7 DUP4 DUP2 DUP2 LT PUSH2 0x1C54 JUMPI PUSH2 0x1C54 PUSH2 0x4E86 JUMP JUMPDEST SWAP1 POP PUSH1 0x40 MUL ADD PUSH1 0x20 ADD PUSH1 0x20 DUP2 ADD SWAP1 PUSH2 0x1C6C SWAP2 SWAP1 PUSH2 0x4F4A JUMP JUMPDEST PUSH1 0x1 DUP3 ADD DUP1 SLOAD PUSH3 0xFF0000 NOT AND PUSH3 0x10000 DUP4 PUSH1 0x3 DUP2 GT ISZERO PUSH2 0x1C8E JUMPI PUSH2 0x1C8E PUSH2 0x4983 JUMP JUMPDEST MUL OR SWAP1 SSTORE POP DUP7 DUP7 DUP4 DUP2 DUP2 LT PUSH2 0x1CA5 JUMPI PUSH2 0x1CA5 PUSH2 0x4E86 JUMP JUMPDEST PUSH1 0x40 MUL SWAP2 SWAP1 SWAP2 ADD CALLDATALOAD SWAP1 POP CALLER PUSH32 0x8FC692F0AAFE304E5338E6EDA3C3F27366F95833D0F4F54CFD48E9416085CC54 DUP10 DUP10 DUP7 DUP2 DUP2 LT PUSH2 0x1CE3 JUMPI PUSH2 0x1CE3 PUSH2 0x4E86 JUMP JUMPDEST SWAP1 POP PUSH1 0x40 MUL ADD PUSH1 0x20 ADD PUSH1 0x20 DUP2 ADD SWAP1 PUSH2 0x1CFB SWAP2 SWAP1 PUSH2 0x4F4A JUMP JUMPDEST PUSH1 0x40 MLOAD PUSH2 0x1D08 SWAP2 SWAP1 PUSH2 0x4F6B JUMP JUMPDEST PUSH1 0x40 MLOAD DUP1 SWAP2 SUB SWAP1 LOG3 POP DUP1 PUSH2 0x1D1B DUP2 PUSH2 0x4ED3 JUMP JUMPDEST SWAP2 POP POP PUSH2 0x1B8D JUMP JUMPDEST PUSH2 0x1D72 PUSH1 0x40 DUP1 MLOAD PUSH2 0x120 DUP2 ADD DUP3 MSTORE PUSH1 0x0 DUP1 DUP3 MSTORE PUSH1 0x60 PUSH1 0x20 DUP4 ADD DUP2 SWAP1 MSTORE SWAP3 DUP3 ADD DUP4 SWAP1 MSTORE SWAP2 DUP2 ADD DUP3 SWAP1 MSTORE PUSH1 0x80 DUP2 ADD DUP3 SWAP1 MSTORE PUSH1 0xA0 DUP2 ADD DUP3 SWAP1 MSTORE PUSH1 0xC0 DUP2 ADD DUP3 SWAP1 MSTORE SWAP1 PUSH1 0xE0 DUP3 ADD SWAP1 DUP2 MSTORE PUSH1 0x20 ADD PUSH1 0x0 SWAP1 MSTORE SWAP1 JUMP JUMPDEST PUSH1 0x40 MLOAD DUP1 PUSH2 0x120 ADD PUSH1 0x40 MSTORE DUP1 PUSH2 0x1D86 PUSH2 0x38DD JUMP JUMPDEST DUP2 MSTORE PUSH1 0x20 ADD PUSH1 0x0 DUP1 SLOAD PUSH2 0x1D98 SWAP1 PUSH2 0x4EEC JUMP JUMPDEST DUP1 PUSH1 0x1F ADD PUSH1 0x20 DUP1 SWAP2 DIV MUL PUSH1 0x20 ADD PUSH1 0x40 MLOAD SWAP1 DUP2 ADD PUSH1 0x40 MSTORE DUP1 SWAP3 SWAP2 SWAP1 DUP2 DUP2 MSTORE PUSH1 0x20 ADD DUP3 DUP1 SLOAD PUSH2 0x1DC4 SWAP1 PUSH2 0x4EEC JUMP JUMPDEST DUP1 ISZERO PUSH2 0x1E11 JUMPI DUP1 PUSH1 0x1F LT PUSH2 0x1DE6 JUMPI PUSH2 0x100 DUP1 DUP4 SLOAD DIV MUL DUP4 MSTORE SWAP2 PUSH1 0x20 ADD SWAP2 PUSH2 0x1E11 JUMP JUMPDEST DUP3 ADD SWAP2 SWAP1 PUSH1 0x0 MSTORE PUSH1 0x20 PUSH1 0x0 KECCAK256 SWAP1 JUMPDEST DUP2 SLOAD DUP2 MSTORE SWAP1 PUSH1 0x1 ADD SWAP1 PUSH1 0x20 ADD DUP1 DUP4 GT PUSH2 0x1DF4 JUMPI DUP3 SWAP1 SUB PUSH1 0x1F AND DUP3 ADD SWAP2 JUMPDEST POP POP POP POP POP DUP2 MSTORE PUSH1 0x20 ADD PUSH1 0x1 DUP1 SLOAD PUSH2 0x1E28 SWAP1 PUSH2 0x4EEC JUMP JUMPDEST DUP1 PUSH1 0x1F ADD PUSH1 0x20 DUP1 SWAP2 DIV MUL PUSH1 0x20 ADD PUSH1 0x40 MLOAD SWAP1 DUP2 ADD PUSH1 0x40 MSTORE DUP1 SWAP3 SWAP2 SWAP1 DUP2 DUP2 MSTORE PUSH1 0x20 ADD DUP3 DUP1 SLOAD PUSH2 0x1E54 SWAP1 PUSH2 0x4EEC JUMP JUMPDEST DUP1 ISZERO PUSH2 0x1EA1 JUMPI DUP1 PUSH1 0x1F LT PUSH2 0x1E76 JUMPI PUSH2 0x100 DUP1 DUP4 SLOAD DIV MUL DUP4 MSTORE SWAP2 PUSH1 0x20 ADD SWAP2 PUSH2 0x1EA1 JUMP JUMPDEST DUP3 ADD SWAP2 SWAP1 PUSH1 0x0 MSTORE PUSH1 0x20 PUSH1 0x0 KECCAK256 SWAP1 JUMPDEST DUP2 SLOAD DUP2 MSTORE SWAP1 PUSH1 0x1 ADD SWAP1 PUSH1 0x20 ADD DUP1 DUP4 GT PUSH2 0x1E84 JUMPI DUP3 SWAP1 SUB PUSH1 0x1F AND DUP3 ADD SWAP2 JUMPDEST POP POP POP SWAP2 DUP4 MSTORE POP POP PUSH1 0x2 SLOAD PUSH1 0x1 PUSH1 0x1 PUSH1 0xA0 SHL SUB AND PUSH1 0x20 DUP3 ADD MSTORE PUSH1 0x40 ADD PUSH2 0x1EC5 PUSH2 0x2CE0 JUMP JUMPDEST PUSH1 0x1 PUSH1 0x1 PUSH1 0xA0 SHL SUB AND DUP2 MSTORE PUSH1 0x20 ADD PUSH2 0x1EDB PUSH2 0x2D01 JUMP JUMPDEST PUSH1 0x1 PUSH1 0x1 PUSH1 0xA0 SHL SUB AND DUP2 MSTORE PUSH1 0x20 ADD PUSH2 0x1EF6 PUSH1 0x4C SLOAD PUSH2 0xFFFF AND SWAP1 JUMP JUMPDEST PUSH2 0xFFFF AND DUP2 MSTORE PUSH1 0x20 ADD PUSH1 0x2 PUSH1 0x14 SWAP1 SLOAD SWAP1 PUSH2 0x100 EXP SWAP1 DIV PUSH1 0xFF AND PUSH1 0x2 DUP2 GT ISZERO PUSH2 0x1F20 JUMPI PUSH2 0x1F20 PUSH2 0x4983 JUMP JUMPDEST DUP2 MSTORE PUSH1 0x20 ADD PUSH1 0x2 PUSH1 0x15 SWAP1 SLOAD SWAP1 PUSH2 0x100 EXP SWAP1 DIV PUSH1 0xFF AND PUSH1 0x2 DUP2 GT ISZERO PUSH2 0x1F46 JUMPI PUSH2 0x1F46 PUSH2 0x4983 JUMP JUMPDEST SWAP1 MSTORE SWAP2 SWAP1 POP JUMP JUMPDEST PUSH1 0x0 PUSH1 0x1 PUSH1 0x1 PUSH1 0xA0 SHL SUB PUSH32 0x0 AND ADDRESS SUB PUSH2 0x1F97 JUMPI PUSH1 0x40 MLOAD PUSH3 0x461BCD PUSH1 0xE5 SHL DUP2 MSTORE PUSH1 0x4 ADD PUSH2 0x7CC SWAP1 PUSH2 0x4D71 JUMP JUMPDEST PUSH32 0x0 PUSH1 0x1 PUSH1 0x1 PUSH1 0xA0 SHL SUB AND PUSH2 0x1FC9 PUSH2 0x2CE0 JUMP JUMPDEST PUSH1 0x1 PUSH1 0x1 PUSH1 0xA0 SHL SUB AND EQ PUSH2 0x1FEF JUMPI PUSH1 0x40 MLOAD PUSH3 0x461BCD PUSH1 0xE5 SHL DUP2 MSTORE PUSH1 0x4 ADD PUSH2 0x7CC SWAP1 PUSH2 0x4D97 JUMP JUMPDEST PUSH1 0x1 PUSH1 0x2 DUP1 SLOAD PUSH1 0x1 PUSH1 0xA0 SHL SWAP1 DIV PUSH1 0xFF AND SWAP1 DUP2 GT ISZERO PUSH2 0x200F JUMPI PUSH2 0x200F PUSH2 0x4983 JUMP JUMPDEST EQ PUSH2 0x202C JUMPI PUSH1 0x40 MLOAD PUSH3 0x461BCD PUSH1 0xE5 SHL DUP2 MSTORE PUSH1 0x4 ADD PUSH2 0x7CC SWAP1 PUSH2 0x4E24 JUMP JUMPDEST PUSH1 0x2 DUP1 DUP1 SLOAD PUSH1 0x1 PUSH1 0xA8 SHL SWAP1 DIV PUSH1 0xFF AND SWAP1 DUP2 GT ISZERO PUSH2 0x204B JUMPI PUSH2 0x204B PUSH2 0x4983 JUMP JUMPDEST EQ PUSH2 0x2089 JUMPI PUSH1 0x40 MLOAD PUSH3 0x461BCD PUSH1 0xE5 SHL DUP2 MSTORE PUSH1 0x20 PUSH1 0x4 DUP3 ADD MSTORE PUSH1 0xE PUSH1 0x24 DUP3 ADD MSTORE PUSH14 0x496C6C6567616C20557064617465 PUSH1 0x90 SHL PUSH1 0x44 DUP3 ADD MSTORE PUSH1 0x64 ADD PUSH2 0x7CC JUMP JUMPDEST PUSH2 0x2099 PUSH4 0xD9DC1F19 PUSH1 0xE0 SHL PUSH2 0x2D3D JUMP JUMPDEST PUSH2 0x20B5 JUMPI PUSH1 0x40 MLOAD PUSH3 0x461BCD PUSH1 0xE5 SHL DUP2 MSTORE PUSH1 0x4 ADD PUSH2 0x7CC SWAP1 PUSH2 0x4E46 JUMP JUMPDEST PUSH1 0x1 PUSH1 0x1 PUSH1 0xA0 SHL SUB DUP3 AND PUSH2 0x20F5 JUMPI PUSH1 0x40 MLOAD PUSH3 0x461BCD PUSH1 0xE5 SHL DUP2 MSTORE PUSH1 0x20 PUSH1 0x4 DUP3 ADD MSTORE PUSH1 0x7 PUSH1 0x24 DUP3 ADD MSTORE PUSH7 0x125B9D985B1A59 PUSH1 0xCA SHL PUSH1 0x44 DUP3 ADD MSTORE PUSH1 0x64 ADD PUSH2 0x7CC JUMP JUMPDEST PUSH2 0x20FE DUP3 PUSH2 0x3991 JUMP JUMPDEST POP PUSH1 0x1 SWAP2 SWAP1 POP JUMP JUMPDEST PUSH1 0x0 DUP1 PUSH2 0x2119 PUSH4 0x1B421CD5 PUSH1 0xE3 SHL PUSH2 0x2F29 JUMP JUMPDEST SWAP1 POP PUSH1 0x0 PUSH2 0x2126 CALLER PUSH2 0x31D2 JUMP JUMPDEST SWAP1 POP PUSH1 0x0 DUP1 PUSH2 0x217D PUSH1 0x40 MLOAD PUSH1 0x20 ADD PUSH2 0x2161 SWAP1 PUSH32 0x4C4956454C595F56455253455F53434F50455F4D41535445525F545950450000 DUP2 MSTORE PUSH1 0x1E ADD SWAP1 JUMP JUMPDEST PUSH1 0x40 MLOAD PUSH1 0x20 DUP2 DUP4 SUB SUB DUP2 MSTORE SWAP1 PUSH1 0x40 MSTORE DUP1 MLOAD SWAP1 PUSH1 0x20 ADD KECCAK256 DUP5 PUSH2 0x3A08 JUMP JUMPDEST SWAP2 POP SWAP2 POP PUSH1 0x0 JUMPDEST DUP7 DUP2 LT ISZERO PUSH2 0x28F4 JUMPI PUSH1 0x0 PUSH2 0x21C8 DUP10 DUP10 DUP5 DUP2 DUP2 LT PUSH2 0x21A3 JUMPI PUSH2 0x21A3 PUSH2 0x4E86 JUMP JUMPDEST SWAP1 POP PUSH1 0x20 MUL DUP2 ADD SWAP1 PUSH2 0x21B5 SWAP2 SWAP1 PUSH2 0x4F78 JUMP JUMPDEST PUSH2 0x21C3 SWAP1 PUSH1 0xA0 DUP2 ADD SWAP1 PUSH2 0x4F98 JUMP JUMPDEST PUSH2 0x3155 JUMP JUMPDEST SWAP1 POP PUSH1 0x0 DUP1 DUP3 DUP2 MSTORE PUSH1 0x45 PUSH1 0x20 MSTORE PUSH1 0x40 SWAP1 KECCAK256 PUSH1 0x1 ADD SLOAD PUSH1 0xFF AND PUSH1 0x5 DUP2 GT ISZERO PUSH2 0x21F1 JUMPI PUSH2 0x21F1 PUSH2 0x4983 JUMP JUMPDEST EQ PUSH2 0x222F JUMPI PUSH1 0x40 MLOAD PUSH3 0x461BCD PUSH1 0xE5 SHL DUP2 MSTORE PUSH1 0x20 PUSH1 0x4 DUP3 ADD MSTORE PUSH1 0xE PUSH1 0x24 DUP3 ADD MSTORE PUSH14 0x416C726561647920457869737473 PUSH1 0x90 SHL PUSH1 0x44 DUP3 ADD MSTORE PUSH1 0x64 ADD PUSH2 0x7CC JUMP JUMPDEST PUSH1 0x1 DUP10 DUP10 DUP5 DUP2 DUP2 LT PUSH2 0x2243 JUMPI PUSH2 0x2243 PUSH2 0x4E86 JUMP JUMPDEST SWAP1 POP PUSH1 0x20 MUL DUP2 ADD SWAP1 PUSH2 0x2255 SWAP2 SWAP1 PUSH2 0x4F78 JUMP JUMPDEST PUSH2 0x2266 SWAP1 PUSH1 0x80 DUP2 ADD SWAP1 PUSH1 0x60 ADD PUSH2 0x4E9C JUMP JUMPDEST PUSH1 0x4 DUP2 GT ISZERO PUSH2 0x2277 JUMPI PUSH2 0x2277 PUSH2 0x4983 JUMP JUMPDEST GT PUSH2 0x22B7 JUMPI PUSH1 0x40 MLOAD PUSH3 0x461BCD PUSH1 0xE5 SHL DUP2 MSTORE PUSH1 0x20 PUSH1 0x4 DUP3 ADD MSTORE PUSH1 0x10 PUSH1 0x24 DUP3 ADD MSTORE PUSH16 0x496C6C6567616C204163746976697479 PUSH1 0x80 SHL PUSH1 0x44 DUP3 ADD MSTORE PUSH1 0x64 ADD PUSH2 0x7CC JUMP JUMPDEST PUSH1 0x0 DUP10 DUP10 DUP5 DUP2 DUP2 LT PUSH2 0x22CB JUMPI PUSH2 0x22CB PUSH2 0x4E86 JUMP JUMPDEST SWAP1 POP PUSH1 0x20 MUL DUP2 ADD SWAP1 PUSH2 0x22DD SWAP2 SWAP1 PUSH2 0x4F78 JUMP JUMPDEST PUSH2 0x22EE SWAP1 PUSH1 0xA0 DUP2 ADD SWAP1 PUSH1 0x80 ADD PUSH2 0x4F4A JUMP JUMPDEST PUSH1 0x3 DUP2 GT ISZERO PUSH2 0x22FF JUMPI PUSH2 0x22FF PUSH2 0x4983 JUMP JUMPDEST GT PUSH2 0x2343 JUMPI PUSH1 0x40 MLOAD PUSH3 0x461BCD PUSH1 0xE5 SHL DUP2 MSTORE PUSH1 0x20 PUSH1 0x4 DUP3 ADD MSTORE PUSH1 0x14 PUSH1 0x24 DUP3 ADD MSTORE PUSH20 0x496C6C6567616C20416C7465726162696C697479 PUSH1 0x60 SHL PUSH1 0x44 DUP3 ADD MSTORE PUSH1 0x64 ADD PUSH2 0x7CC JUMP JUMPDEST PUSH1 0x0 PUSH2 0x238F PUSH1 0x40 MLOAD PUSH1 0x20 ADD PUSH2 0x2369 SWAP1 PUSH1 0x0 DUP1 MLOAD PUSH1 0x20 PUSH2 0x5212 DUP4 CODECOPY DUP2 MLOAD SWAP2 MSTORE DUP2 MSTORE PUSH1 0x20 ADD SWAP1 JUMP JUMPDEST PUSH1 0x40 MLOAD PUSH1 0x20 DUP2 DUP4 SUB SUB DUP2 MSTORE SWAP1 PUSH1 0x40 MSTORE DUP1 MLOAD SWAP1 PUSH1 0x20 ADD KECCAK256 PUSH1 0x44 PUSH2 0x3A5E SWAP1 SWAP2 SWAP1 PUSH4 0xFFFFFFFF AND JUMP JUMPDEST PUSH1 0x40 DUP1 MLOAD PUSH1 0x0 DUP1 MLOAD PUSH1 0x20 PUSH2 0x5212 DUP4 CODECOPY DUP2 MLOAD SWAP2 MSTORE PUSH1 0x20 DUP3 ADD MSTORE SWAP2 SWAP3 POP ADD PUSH1 0x40 MLOAD PUSH1 0x20 DUP2 DUP4 SUB SUB DUP2 MSTORE SWAP1 PUSH1 0x40 MSTORE DUP1 MLOAD SWAP1 PUSH1 0x20 ADD KECCAK256 DUP5 EQ PUSH2 0x2406 JUMPI PUSH1 0x40 MLOAD PUSH3 0x461BCD PUSH1 0xE5 SHL DUP2 MSTORE PUSH1 0x20 PUSH1 0x4 DUP3 ADD MSTORE PUSH1 0x14 PUSH1 0x24 DUP3 ADD MSTORE PUSH20 0x496C6C6567616C20476C6F62616C2053636F7065 PUSH1 0x60 SHL PUSH1 0x44 DUP3 ADD MSTORE PUSH1 0x64 ADD PUSH2 0x7CC JUMP JUMPDEST PUSH1 0x2 PUSH1 0x1 DUP3 ADD SLOAD PUSH3 0x10000 SWAP1 DIV PUSH1 0xFF AND PUSH1 0x3 DUP2 GT ISZERO PUSH2 0x2427 JUMPI PUSH2 0x2427 PUSH2 0x4983 JUMP JUMPDEST LT ISZERO PUSH2 0x246D JUMPI PUSH1 0x40 MLOAD PUSH3 0x461BCD PUSH1 0xE5 SHL DUP2 MSTORE PUSH1 0x20 PUSH1 0x4 DUP3 ADD MSTORE PUSH1 0x15 PUSH1 0x24 DUP3 ADD MSTORE PUSH21 0x496C6C6567616C20476C6F62616C20557064617465 PUSH1 0x58 SHL PUSH1 0x44 DUP3 ADD MSTORE PUSH1 0x64 ADD PUSH2 0x7CC JUMP JUMPDEST PUSH2 0x2479 DUP2 PUSH1 0x4 ADD PUSH2 0x3B39 JUMP JUMPDEST PUSH1 0x2 DUP3 ADD SLOAD PUSH2 0xFFFF AND GT PUSH2 0x24CF JUMPI PUSH1 0x40 MLOAD PUSH3 0x461BCD PUSH1 0xE5 SHL DUP2 MSTORE PUSH1 0x20 PUSH1 0x4 DUP3 ADD MSTORE PUSH1 0x17 PUSH1 0x24 DUP3 ADD MSTORE PUSH32 0x496C6C6567616C20446F6D61696E205265676973746572000000000000000000 PUSH1 0x44 DUP3 ADD MSTORE PUSH1 0x64 ADD PUSH2 0x7CC JUMP JUMPDEST DUP1 SLOAD PUSH2 0x24DC SWAP1 DUP8 DUP10 PUSH2 0x3B43 JUMP JUMPDEST PUSH2 0x24F8 JUMPI PUSH1 0x40 MLOAD PUSH3 0x461BCD PUSH1 0xE5 SHL DUP2 MSTORE PUSH1 0x4 ADD PUSH2 0x7CC SWAP1 PUSH2 0x4E46 JUMP JUMPDEST PUSH2 0x2505 PUSH1 0x4 DUP3 ADD DUP4 PUSH2 0x3E63 JUMP JUMPDEST POP PUSH1 0x0 PUSH2 0x2513 PUSH1 0x44 DUP5 PUSH2 0x3E6F JUMP JUMPDEST PUSH1 0x1 DUP2 ADD DUP1 SLOAD PUSH1 0xFF NOT AND PUSH1 0x4 OR SWAP1 SSTORE SWAP1 POP DUP11 DUP11 DUP6 DUP2 DUP2 LT PUSH2 0x2536 JUMPI PUSH2 0x2536 PUSH2 0x4E86 JUMP JUMPDEST SWAP1 POP PUSH1 0x20 MUL DUP2 ADD SWAP1 PUSH2 0x2548 SWAP2 SWAP1 PUSH2 0x4F78 JUMP JUMPDEST PUSH2 0x2559 SWAP1 PUSH1 0x80 DUP2 ADD SWAP1 PUSH1 0x60 ADD PUSH2 0x4E9C JUMP JUMPDEST PUSH1 0x1 DUP3 ADD DUP1 SLOAD PUSH2 0xFF00 NOT AND PUSH2 0x100 DUP4 PUSH1 0x4 DUP2 GT ISZERO PUSH2 0x2579 JUMPI PUSH2 0x2579 PUSH2 0x4983 JUMP JUMPDEST MUL OR SWAP1 SSTORE POP DUP11 DUP11 DUP6 DUP2 DUP2 LT PUSH2 0x2590 JUMPI PUSH2 0x2590 PUSH2 0x4E86 JUMP JUMPDEST SWAP1 POP PUSH1 0x20 MUL DUP2 ADD SWAP1 PUSH2 0x25A2 SWAP2 SWAP1 PUSH2 0x4F78 JUMP JUMPDEST PUSH2 0x25B3 SWAP1 PUSH1 0xA0 DUP2 ADD SWAP1 PUSH1 0x80 ADD PUSH2 0x4F4A JUMP JUMPDEST PUSH1 0x1 DUP3 ADD DUP1 SLOAD PUSH3 0xFF0000 NOT AND PUSH3 0x10000 DUP4 PUSH1 0x3 DUP2 GT ISZERO PUSH2 0x25D5 JUMPI PUSH2 0x25D5 PUSH2 0x4983 JUMP JUMPDEST MUL OR SWAP1 SSTORE POP DUP11 DUP11 DUP6 DUP2 DUP2 LT PUSH2 0x25EC JUMPI PUSH2 0x25EC PUSH2 0x4E86 JUMP JUMPDEST SWAP1 POP PUSH1 0x20 MUL DUP2 ADD SWAP1 PUSH2 0x25FE SWAP2 SWAP1 PUSH2 0x4F78 JUMP JUMPDEST PUSH2 0x260F SWAP1 PUSH1 0x60 DUP2 ADD SWAP1 PUSH1 0x40 ADD PUSH2 0x4F26 JUMP JUMPDEST PUSH1 0x1 DUP3 ADD DUP1 SLOAD PUSH2 0xFFFF SWAP3 SWAP1 SWAP3 AND PUSH1 0x1 PUSH1 0x38 SHL MUL PUSH2 0xFFFF PUSH1 0x38 SHL NOT SWAP1 SWAP3 AND SWAP2 SWAP1 SWAP2 OR SWAP1 SSTORE DUP11 DUP11 DUP6 DUP2 DUP2 LT PUSH2 0x2644 JUMPI PUSH2 0x2644 PUSH2 0x4E86 JUMP JUMPDEST SWAP1 POP PUSH1 0x20 MUL DUP2 ADD SWAP1 PUSH2 0x2656 SWAP2 SWAP1 PUSH2 0x4F78 JUMP JUMPDEST PUSH2 0x2664 SWAP1 PUSH1 0xA0 DUP2 ADD SWAP1 PUSH2 0x4F98 JUMP JUMPDEST PUSH1 0x3 DUP4 ADD SWAP2 PUSH2 0x2674 SWAP2 SWAP1 DUP4 PUSH2 0x502A JUMP JUMPDEST POP DUP11 DUP11 DUP6 DUP2 DUP2 LT PUSH2 0x2687 JUMPI PUSH2 0x2687 PUSH2 0x4E86 JUMP JUMPDEST SWAP1 POP PUSH1 0x20 MUL DUP2 ADD SWAP1 PUSH2 0x2699 SWAP2 SWAP1 PUSH2 0x4F78 JUMP JUMPDEST PUSH2 0x26AA SWAP1 PUSH1 0x40 DUP2 ADD SWAP1 PUSH1 0x20 ADD PUSH2 0x4F26 JUMP JUMPDEST PUSH1 0x2 DUP3 ADD DUP1 SLOAD PUSH2 0xFFFF NOT AND PUSH2 0xFFFF SWAP3 SWAP1 SWAP3 AND SWAP2 SWAP1 SWAP2 OR SWAP1 SSTORE PUSH1 0x0 DUP12 DUP12 DUP7 DUP2 DUP2 LT PUSH2 0x26D6 JUMPI PUSH2 0x26D6 PUSH2 0x4E86 JUMP JUMPDEST SWAP1 POP PUSH1 0x20 MUL DUP2 ADD SWAP1 PUSH2 0x26E8 SWAP2 SWAP1 PUSH2 0x4F78 JUMP JUMPDEST CALLDATALOAD EQ PUSH2 0x2866 JUMPI PUSH1 0x1 PUSH1 0x44 PUSH1 0x0 DUP14 DUP14 DUP9 DUP2 DUP2 LT PUSH2 0x2706 JUMPI PUSH2 0x2706 PUSH2 0x4E86 JUMP JUMPDEST SWAP1 POP PUSH1 0x20 MUL DUP2 ADD SWAP1 PUSH2 0x2718 SWAP2 SWAP1 PUSH2 0x4F78 JUMP JUMPDEST CALLDATALOAD DUP2 MSTORE PUSH1 0x20 DUP2 ADD SWAP2 SWAP1 SWAP2 MSTORE PUSH1 0x40 ADD PUSH1 0x0 KECCAK256 PUSH1 0x1 ADD SLOAD PUSH1 0xFF AND PUSH1 0x3 DUP2 GT ISZERO PUSH2 0x2741 JUMPI PUSH2 0x2741 PUSH2 0x4983 JUMP JUMPDEST GT PUSH2 0x2788 JUMPI PUSH1 0x40 MLOAD PUSH3 0x461BCD PUSH1 0xE5 SHL DUP2 MSTORE PUSH1 0x20 PUSH1 0x4 DUP3 ADD MSTORE PUSH1 0x17 PUSH1 0x24 DUP3 ADD MSTORE PUSH23 0x496C6C6567616C2041646D696E204167656E7454797065 PUSH1 0x48 SHL PUSH1 0x44 DUP3 ADD MSTORE PUSH1 0x64 ADD PUSH2 0x7CC JUMP JUMPDEST PUSH1 0x0 DUP1 PUSH2 0x27B8 DUP14 DUP14 DUP9 DUP2 DUP2 LT PUSH2 0x27A0 JUMPI PUSH2 0x27A0 PUSH2 0x4E86 JUMP JUMPDEST SWAP1 POP PUSH1 0x20 MUL DUP2 ADD SWAP1 PUSH2 0x27B2 SWAP2 SWAP1 PUSH2 0x4F78 JUMP JUMPDEST CALLDATALOAD PUSH2 0x35FA JUMP JUMPDEST SWAP2 POP SWAP2 POP PUSH1 0x40 MLOAD PUSH1 0x20 ADD PUSH2 0x27DD SWAP1 PUSH1 0x0 DUP1 MLOAD PUSH1 0x20 PUSH2 0x5212 DUP4 CODECOPY DUP2 MLOAD SWAP2 MSTORE DUP2 MSTORE PUSH1 0x20 ADD SWAP1 JUMP JUMPDEST PUSH1 0x40 MLOAD PUSH1 0x20 DUP2 DUP4 SUB SUB DUP2 MSTORE SWAP1 PUSH1 0x40 MSTORE DUP1 MLOAD SWAP1 PUSH1 0x20 ADD KECCAK256 DUP2 EQ PUSH2 0x2837 JUMPI PUSH1 0x40 MLOAD PUSH3 0x461BCD PUSH1 0xE5 SHL DUP2 MSTORE PUSH1 0x20 PUSH1 0x4 DUP3 ADD MSTORE PUSH1 0x13 PUSH1 0x24 DUP3 ADD MSTORE PUSH19 0x496C6C6567616C20416D696E642053636F7065 PUSH1 0x68 SHL PUSH1 0x44 DUP3 ADD MSTORE PUSH1 0x64 ADD PUSH2 0x7CC JUMP JUMPDEST DUP13 DUP13 DUP8 DUP2 DUP2 LT PUSH2 0x2849 JUMPI PUSH2 0x2849 PUSH2 0x4E86 JUMP JUMPDEST SWAP1 POP PUSH1 0x20 MUL DUP2 ADD SWAP1 PUSH2 0x285B SWAP2 SWAP1 PUSH2 0x4F78 JUMP JUMPDEST CALLDATALOAD DUP4 SSTORE POP PUSH2 0x286B SWAP1 POP JUMP JUMPDEST DUP2 SLOAD DUP2 SSTORE JUMPDEST DUP1 SLOAD PUSH1 0x0 DUP2 DUP2 MSTORE PUSH1 0x44 PUSH1 0x20 MSTORE PUSH1 0x40 DUP2 KECCAK256 PUSH2 0x288A SWAP3 SWAP1 SWAP2 DUP7 SWAP1 CALLER SWAP1 PUSH2 0x3313 JUMP JUMPDEST DUP11 DUP11 DUP6 DUP2 DUP2 LT PUSH2 0x289C JUMPI PUSH2 0x289C PUSH2 0x4E86 JUMP JUMPDEST SWAP1 POP PUSH1 0x20 MUL DUP2 ADD SWAP1 PUSH2 0x28AE SWAP2 SWAP1 PUSH2 0x4F78 JUMP JUMPDEST PUSH1 0x40 MLOAD SWAP1 CALLDATALOAD SWAP1 DUP5 SWAP1 CALLER SWAP1 PUSH32 0xC0CBC4D7C6FC13A8E811669D7CA22A9A736FA7DD6C5A775CD5379593889F9696 SWAP1 PUSH1 0x0 SWAP1 LOG4 POP POP POP DUP1 DUP1 PUSH2 0x28EC SWAP1 PUSH2 0x4ED3 JUMP JUMPDEST SWAP2 POP POP PUSH2 0x2184 JUMP JUMPDEST POP PUSH1 0x1 SWAP8 SWAP7 POP POP POP POP POP POP POP JUMP JUMPDEST PUSH1 0x0 DUP1 DUP1 PUSH2 0x2911 PUSH1 0x44 DUP7 PUSH2 0x30E8 JUMP JUMPDEST SWAP2 POP SWAP2 POP DUP1 PUSH2 0x2925 JUMPI PUSH1 0x0 SWAP3 POP POP POP PUSH2 0x77E JUMP JUMPDEST DUP2 SLOAD PUSH1 0x0 DUP2 DUP2 MSTORE PUSH1 0x44 PUSH1 0x20 MSTORE PUSH1 0x40 DUP2 KECCAK256 PUSH1 0x1 ADD SLOAD PUSH1 0xFF AND SWAP1 PUSH2 0x2946 DUP8 PUSH2 0x31D2 JUMP JUMPDEST SWAP1 POP PUSH1 0x2 DUP3 PUSH1 0x3 DUP2 GT ISZERO PUSH2 0x295C JUMPI PUSH2 0x295C PUSH2 0x4983 JUMP JUMPDEST SUB PUSH2 0x2977 JUMPI PUSH2 0x296B DUP4 DUP3 PUSH2 0x3F15 JUMP JUMPDEST SWAP6 POP POP POP POP POP POP PUSH2 0x77E JUMP JUMPDEST PUSH1 0x3 DUP3 PUSH1 0x3 DUP2 GT ISZERO PUSH2 0x298B JUMPI PUSH2 0x298B PUSH2 0x4983 JUMP JUMPDEST SUB PUSH2 0x29D6 JUMPI PUSH1 0x0 DUP1 PUSH2 0x299E PUSH1 0x44 DUP7 PUSH2 0x3F85 JUMP JUMPDEST SWAP2 POP SWAP2 POP DUP1 PUSH2 0x29B7 JUMPI PUSH1 0x0 SWAP8 POP POP POP POP POP POP POP POP PUSH2 0x77E JUMP JUMPDEST POP PUSH1 0x0 SWAP2 DUP3 MSTORE PUSH1 0x5 ADD PUSH1 0x20 MSTORE PUSH1 0x40 SWAP1 KECCAK256 SLOAD ISZERO ISZERO SWAP5 POP PUSH2 0x77E SWAP4 POP POP POP POP JUMP JUMPDEST POP PUSH1 0x0 SWAP8 SWAP7 POP POP POP POP POP POP POP JUMP JUMPDEST PUSH1 0x0 DUP1 PUSH2 0x29F7 PUSH4 0x1B421CD5 PUSH1 0xE3 SHL PUSH2 0x2F29 JUMP JUMPDEST SWAP1 POP PUSH1 0x0 PUSH2 0x2A04 CALLER PUSH2 0x31D2 JUMP JUMPDEST SWAP1 POP PUSH1 0x0 JUMPDEST DUP5 DUP2 LT ISZERO PUSH2 0x145D JUMPI PUSH1 0x0 PUSH2 0x2A28 DUP8 DUP8 DUP5 DUP2 DUP2 LT PUSH2 0x1155 JUMPI PUSH2 0x1155 PUSH2 0x4E86 JUMP JUMPDEST SWAP1 POP DUP7 DUP7 DUP4 DUP2 DUP2 LT PUSH2 0x2A3C JUMPI PUSH2 0x2A3C PUSH2 0x4E86 JUMP JUMPDEST SWAP1 POP PUSH1 0x40 MUL ADD PUSH1 0x20 ADD PUSH1 0x20 DUP2 ADD SWAP1 PUSH2 0x2A54 SWAP2 SWAP1 PUSH2 0x4F26 JUMP JUMPDEST PUSH1 0x2 DUP3 ADD DUP1 SLOAD PUSH2 0xFFFF NOT AND PUSH2 0xFFFF SWAP3 SWAP1 SWAP3 AND SWAP2 SWAP1 SWAP2 OR SWAP1 SSTORE DUP7 DUP7 DUP4 DUP2 DUP2 LT PUSH2 0x2A7E JUMPI PUSH2 0x2A7E PUSH2 0x4E86 JUMP JUMPDEST PUSH1 0x40 MUL SWAP2 SWAP1 SWAP2 ADD CALLDATALOAD SWAP1 POP CALLER PUSH32 0x47788E6AAB9FE304D9B35F13C2739A32C870831893093DD9C869BCC95535874A DUP10 DUP10 DUP7 DUP2 DUP2 LT PUSH2 0x2ABC JUMPI PUSH2 0x2ABC PUSH2 0x4E86 JUMP JUMPDEST SWAP1 POP PUSH1 0x40 MUL ADD PUSH1 0x20 ADD PUSH1 0x20 DUP2 ADD SWAP1 PUSH2 0x2AD4 SWAP2 SWAP1 PUSH2 0x4F26 JUMP JUMPDEST PUSH1 0x40 MLOAD PUSH2 0xFFFF SWAP1 SWAP2 AND DUP2 MSTORE PUSH1 0x20 ADD PUSH1 0x40 MLOAD DUP1 SWAP2 SUB SWAP1 LOG3 POP DUP1 PUSH2 0x2AF5 DUP2 PUSH2 0x4ED3 JUMP JUMPDEST SWAP2 POP POP PUSH2 0x2A09 JUMP JUMPDEST PUSH1 0x0 PUSH2 0xDEC PUSH2 0x38DD JUMP JUMPDEST PUSH1 0x0 PUSH1 0x1 PUSH1 0x1 PUSH1 0xA0 SHL SUB PUSH32 0x0 AND ADDRESS SUB PUSH2 0x2B51 JUMPI PUSH1 0x40 MLOAD PUSH3 0x461BCD PUSH1 0xE5 SHL DUP2 MSTORE PUSH1 0x4 ADD PUSH2 0x7CC SWAP1 PUSH2 0x4D71 JUMP JUMPDEST PUSH32 0x0 PUSH1 0x1 PUSH1 0x1 PUSH1 0xA0 SHL SUB AND PUSH2 0x2B83 PUSH2 0x2CE0 JUMP JUMPDEST PUSH1 0x1 PUSH1 0x1 PUSH1 0xA0 SHL SUB AND EQ PUSH2 0x2BA9 JUMPI PUSH1 0x40 MLOAD PUSH3 0x461BCD PUSH1 0xE5 SHL DUP2 MSTORE PUSH1 0x4 ADD PUSH2 0x7CC SWAP1 PUSH2 0x4D97 JUMP JUMPDEST PUSH1 0x0 PUSH2 0x2BB8 PUSH1 0x4C SLOAD PUSH2 0xFFFF AND SWAP1 JUMP JUMPDEST PUSH2 0xFFFF AND GT PUSH2 0x2BF4 JUMPI PUSH1 0x40 MLOAD PUSH3 0x461BCD PUSH1 0xE5 SHL DUP2 MSTORE PUSH1 0x20 PUSH1 0x4 DUP3 ADD MSTORE PUSH1 0x8 PUSH1 0x24 DUP3 ADD MSTORE PUSH8 0x1393D50812539255 PUSH1 0xC2 SHL PUSH1 0x44 DUP3 ADD MSTORE PUSH1 0x64 ADD PUSH2 0x7CC JUMP JUMPDEST PUSH2 0x2C04 PUSH4 0xF708CEB PUSH1 0xE4 SHL PUSH2 0x2D3D JUMP JUMPDEST PUSH2 0x2C20 JUMPI PUSH1 0x40 MLOAD PUSH3 0x461BCD PUSH1 0xE5 SHL DUP2 MSTORE PUSH1 0x4 ADD PUSH2 0x7CC SWAP1 PUSH2 0x4E46 JUMP JUMPDEST PUSH1 0x2 DUP1 SLOAD DUP4 SWAP2 SWAP1 PUSH1 0xFF PUSH1 0xA0 SHL NOT AND PUSH1 0x1 PUSH1 0xA0 SHL DUP4 DUP4 DUP2 GT ISZERO PUSH2 0x2C44 JUMPI PUSH2 0x2C44 PUSH2 0x4983 JUMP JUMPDEST MUL OR SWAP1 SSTORE POP ADDRESS CALLER PUSH1 0x1 PUSH1 0x1 PUSH1 0xA0 SHL SUB AND PUSH32 0xC08EC585C25F1907BAAAB6F278C5994531A2E34C59935B3FCFE813067A3B4878 DUP5 PUSH1 0x40 MLOAD PUSH2 0xCC3 SWAP2 SWAP1 PUSH2 0x4BEA JUMP JUMPDEST PUSH1 0x0 PUSH2 0xDEC PUSH2 0x2D01 JUMP JUMPDEST SWAP1 JUMP JUMPDEST PUSH1 0x0 PUSH1 0x1 PUSH1 0x1 PUSH1 0xE0 SHL SUB NOT DUP3 AND PUSH4 0x27D8F1FD PUSH1 0xE2 SHL EQ DUP1 PUSH2 0x2CC1 JUMPI POP PUSH1 0x1 PUSH1 0x1 PUSH1 0xE0 SHL SUB NOT DUP3 AND PUSH4 0x52D1902D PUSH1 0xE0 SHL EQ JUMPDEST DUP1 PUSH2 0x77E JUMPI POP PUSH4 0x1FFC9A7 PUSH1 0xE0 SHL PUSH1 0x1 PUSH1 0x1 PUSH1 0xE0 SHL SUB NOT DUP4 AND EQ PUSH2 0x77E JUMP JUMPDEST PUSH1 0x0 PUSH1 0x0 DUP1 MLOAD PUSH1 0x20 PUSH2 0x5232 DUP4 CODECOPY DUP2 MLOAD SWAP2 MSTORE JUMPDEST SLOAD PUSH1 0x1 PUSH1 0x1 PUSH1 0xA0 SHL SUB AND SWAP2 SWAP1 POP JUMP JUMPDEST PUSH1 0x0 PUSH32 0xB53127684A568B3173AE13B9F8A6016E243E63B6E8EE1178D6A717850B5D6103 PUSH2 0x2CF2 JUMP JUMPDEST PUSH2 0x2D36 DUP6 DUP6 DUP6 DUP6 DUP6 PUSH2 0x3FD0 JUMP JUMPDEST POP POP POP POP POP JUMP JUMPDEST PUSH1 0x2 SLOAD PUSH1 0x0 SWAP1 PUSH1 0x1 PUSH1 0x1 PUSH1 0xA0 SHL SUB AND ADDRESS SUB PUSH2 0x2EAE JUMPI PUSH1 0x40 DUP1 MLOAD PUSH1 0x4 DUP2 MSTORE PUSH1 0x24 DUP2 ADD SWAP1 SWAP2 MSTORE PUSH1 0x20 DUP2 ADD DUP1 MLOAD PUSH1 0x1 PUSH1 0x1 PUSH1 0xE0 SHL SUB AND PUSH4 0x2C4B4FFF PUSH1 0xE0 SHL OR SWAP1 MSTORE PUSH1 0x0 PUSH2 0x2DB3 PUSH2 0x2D88 PUSH2 0x2CE0 JUMP JUMPDEST DUP4 PUSH1 0x40 MLOAD DUP1 PUSH1 0x40 ADD PUSH1 0x40 MSTORE DUP1 PUSH1 0xC DUP2 MSTORE PUSH1 0x20 ADD PUSH12 0x1110D85B1B0811985A5B1959 PUSH1 0xA2 SHL DUP2 MSTORE POP PUSH2 0x4188 JUMP JUMPDEST SWAP1 POP DUP1 PUSH1 0x1 DUP3 MLOAD PUSH2 0x2DC4 SWAP2 SWAP1 PUSH2 0x50EA JUMP JUMPDEST DUP2 MLOAD DUP2 LT PUSH2 0x2DD4 JUMPI PUSH2 0x2DD4 PUSH2 0x4E86 JUMP JUMPDEST ADD PUSH1 0x20 ADD MLOAD PUSH1 0xF8 SHR PUSH1 0x1 SUB PUSH2 0x2DED JUMPI POP PUSH1 0x0 SWAP4 SWAP3 POP POP POP JUMP JUMPDEST PUSH4 0x17897AB9 PUSH1 0xE1 SHL ADDRESS DUP6 PUSH2 0x2E00 CALLER PUSH2 0x31D2 JUMP JUMPDEST PUSH1 0x40 MLOAD PUSH1 0x24 ADD PUSH2 0x2E12 SWAP4 SWAP3 SWAP2 SWAP1 PUSH2 0x50FD JUMP JUMPDEST PUSH1 0x40 DUP1 MLOAD PUSH1 0x1F NOT DUP2 DUP5 SUB ADD DUP2 MSTORE SWAP2 SWAP1 MSTORE PUSH1 0x20 DUP2 ADD DUP1 MLOAD PUSH1 0x1 PUSH1 0x1 PUSH1 0xE0 SHL SUB AND PUSH1 0x1 PUSH1 0x1 PUSH1 0xE0 SHL SUB NOT SWAP1 SWAP4 AND SWAP3 SWAP1 SWAP3 OR SWAP1 SWAP2 MSTORE SWAP2 POP PUSH2 0x2E79 PUSH2 0x2E51 PUSH2 0x2CE0 JUMP JUMPDEST DUP4 PUSH1 0x40 MLOAD DUP1 PUSH1 0x40 ADD PUSH1 0x40 MSTORE DUP1 PUSH1 0x9 DUP2 MSTORE PUSH1 0x20 ADD PUSH9 0x2337B93134B23232B7 PUSH1 0xB9 SHL DUP2 MSTORE POP PUSH2 0x4188 JUMP JUMPDEST SWAP1 POP DUP1 PUSH1 0x1 DUP3 MLOAD PUSH2 0x2E8A SWAP2 SWAP1 PUSH2 0x50EA JUMP JUMPDEST DUP2 MLOAD DUP2 LT PUSH2 0x2E9A JUMPI PUSH2 0x2E9A PUSH2 0x4E86 JUMP JUMPDEST PUSH1 0x20 SWAP2 ADD ADD MLOAD PUSH1 0xF8 SHR PUSH1 0x1 EQ SWAP5 SWAP4 POP POP POP POP JUMP JUMPDEST PUSH1 0x2 SLOAD PUSH1 0x1 PUSH1 0x1 PUSH1 0xA0 SHL SUB AND PUSH4 0x2F12F572 ADDRESS DUP5 PUSH2 0x2ECA CALLER PUSH2 0x31D2 JUMP JUMPDEST PUSH1 0x40 MLOAD DUP5 PUSH4 0xFFFFFFFF AND PUSH1 0xE0 SHL DUP2 MSTORE PUSH1 0x4 ADD PUSH2 0x2EE8 SWAP4 SWAP3 SWAP2 SWAP1 PUSH2 0x50FD JUMP JUMPDEST PUSH1 0x20 PUSH1 0x40 MLOAD DUP1 DUP4 SUB DUP2 DUP7 GAS STATICCALL ISZERO DUP1 ISZERO PUSH2 0x2F05 JUMPI RETURNDATASIZE PUSH1 0x0 DUP1 RETURNDATACOPY RETURNDATASIZE PUSH1 0x0 REVERT JUMPDEST POP POP POP POP PUSH1 0x40 MLOAD RETURNDATASIZE PUSH1 0x1F NOT PUSH1 0x1F DUP3 ADD AND DUP3 ADD DUP1 PUSH1 0x40 MSTORE POP DUP2 ADD SWAP1 PUSH2 0x77E SWAP2 SWAP1 PUSH2 0x4E69 JUMP JUMPDEST PUSH1 0x0 PUSH1 0x1 ADDRESS PUSH1 0x1 PUSH1 0x1 PUSH1 0xA0 SHL SUB AND PUSH4 0xA304E353 PUSH1 0x40 MLOAD DUP2 PUSH4 0xFFFFFFFF AND PUSH1 0xE0 SHL DUP2 MSTORE PUSH1 0x4 ADD PUSH1 0x20 PUSH1 0x40 MLOAD DUP1 DUP4 SUB DUP2 DUP7 GAS STATICCALL ISZERO DUP1 ISZERO PUSH2 0x2F6B JUMPI RETURNDATASIZE PUSH1 0x0 DUP1 RETURNDATACOPY RETURNDATASIZE PUSH1 0x0 REVERT JUMPDEST POP POP POP POP PUSH1 0x40 MLOAD RETURNDATASIZE PUSH1 0x1F NOT PUSH1 0x1F DUP3 ADD AND DUP3 ADD DUP1 PUSH1 0x40 MSTORE POP DUP2 ADD SWAP1 PUSH2 0x2F8F SWAP2 SWAP1 PUSH2 0x5128 JUMP JUMPDEST PUSH1 0x2 DUP2 GT ISZERO PUSH2 0x2FA0 JUMPI PUSH2 0x2FA0 PUSH2 0x4983 JUMP JUMPDEST EQ PUSH2 0x2FBD JUMPI PUSH1 0x40 MLOAD PUSH3 0x461BCD PUSH1 0xE5 SHL DUP2 MSTORE PUSH1 0x4 ADD PUSH2 0x7CC SWAP1 PUSH2 0x4E24 JUMP JUMPDEST PUSH1 0x1 PUSH1 0x1 PUSH1 0xE0 SHL SUB NOT DUP3 AND PUSH1 0x0 SWAP1 DUP2 MSTORE PUSH1 0x48 PUSH1 0x20 MSTORE PUSH1 0x40 DUP2 KECCAK256 SLOAD PUSH1 0x1 PUSH1 0x1 PUSH1 0xA0 SHL SUB AND SWAP1 PUSH2 0x2FEB DUP3 DUP6 PUSH2 0x4256 JUMP JUMPDEST PUSH1 0x40 MLOAD PUSH4 0xDB83423D PUSH1 0xE0 SHL DUP2 MSTORE PUSH1 0x4 DUP2 ADD DUP3 SWAP1 MSTORE SWAP1 SWAP2 POP ADDRESS SWAP1 PUSH4 0xDB83423D SWAP1 PUSH1 0x24 ADD PUSH1 0x20 PUSH1 0x40 MLOAD DUP1 DUP4 SUB DUP2 DUP7 GAS STATICCALL ISZERO DUP1 ISZERO PUSH2 0x302A JUMPI RETURNDATASIZE PUSH1 0x0 DUP1 RETURNDATACOPY RETURNDATASIZE PUSH1 0x0 REVERT JUMPDEST POP POP POP POP PUSH1 0x40 MLOAD RETURNDATASIZE PUSH1 0x1F NOT PUSH1 0x1F DUP3 ADD AND DUP3 ADD DUP1 PUSH1 0x40 MSTORE POP DUP2 ADD SWAP1 PUSH2 0x304E SWAP2 SWAP1 PUSH2 0x4E69 JUMP JUMPDEST PUSH2 0x17E9 JUMPI PUSH1 0x40 MLOAD PUSH3 0x461BCD PUSH1 0xE5 SHL DUP2 MSTORE PUSH1 0x20 PUSH1 0x4 DUP3 ADD MSTORE PUSH1 0xD PUSH1 0x24 DUP3 ADD MSTORE PUSH13 0x1058D8D95CDCC811195B9A5959 PUSH1 0x9A SHL PUSH1 0x44 DUP3 ADD MSTORE PUSH1 0x64 ADD PUSH2 0x7CC JUMP JUMPDEST PUSH1 0x0 DUP1 PUSH2 0x3096 CALLER PUSH2 0x31D2 JUMP JUMPDEST SWAP1 POP PUSH1 0x0 PUSH2 0x30A7 DUP7 DUP4 DUP7 PUSH1 0x0 PUSH2 0x3211 JUMP JUMPDEST SWAP1 POP PUSH1 0x1 DUP6 PUSH1 0x4 DUP2 GT ISZERO PUSH2 0x30BD JUMPI PUSH2 0x30BD PUSH2 0x4983 JUMP JUMPDEST SUB PUSH2 0x30DF JUMPI DUP1 SLOAD PUSH1 0x0 DUP2 DUP2 MSTORE PUSH1 0x44 PUSH1 0x20 MSTORE PUSH1 0x40 SWAP1 KECCAK256 PUSH2 0x30DF SWAP2 DUP9 CALLER PUSH1 0x2 PUSH2 0x3313 JUMP JUMPDEST POP POP SWAP4 SWAP3 POP POP POP JUMP JUMPDEST PUSH1 0x0 DUP2 DUP2 MSTORE PUSH1 0x1 DUP4 ADD PUSH1 0x20 MSTORE PUSH1 0x40 DUP2 KECCAK256 DUP2 SWAP1 PUSH1 0x4 JUMPDEST PUSH1 0x1 DUP3 ADD SLOAD PUSH1 0xFF AND PUSH1 0x5 DUP2 GT ISZERO PUSH2 0x3116 JUMPI PUSH2 0x3116 PUSH2 0x4983 JUMP JUMPDEST SUB PUSH2 0x3138 JUMPI PUSH1 0x40 DUP1 MLOAD DUP6 DUP2 MSTORE PUSH1 0x1 DUP8 DUP2 ADD PUSH1 0x20 DUP4 ADD MSTORE SWAP2 SWAP1 KECCAK256 SWAP4 POP SWAP2 POP PUSH2 0x3142 JUMP JUMPDEST PUSH1 0x0 NOT SWAP3 POP PUSH1 0x0 SWAP2 POP JUMPDEST POP SWAP3 POP SWAP3 SWAP1 POP JUMP JUMPDEST PUSH1 0x60 PUSH2 0x77E DUP3 PUSH2 0x428D JUMP JUMPDEST PUSH1 0x0 DUP3 DUP3 PUSH1 0x40 MLOAD PUSH1 0x20 ADD PUSH2 0x316A SWAP3 SWAP2 SWAP1 PUSH2 0x5145 JUMP JUMPDEST PUSH1 0x40 MLOAD PUSH1 0x20 DUP2 DUP4 SUB SUB DUP2 MSTORE SWAP1 PUSH1 0x40 MSTORE DUP1 MLOAD SWAP1 PUSH1 0x20 ADD KECCAK256 SWAP1 POP SWAP3 SWAP2 POP POP JUMP JUMPDEST PUSH1 0x0 DUP2 DUP2 MSTORE PUSH1 0x1 DUP1 DUP5 ADD PUSH1 0x20 MSTORE PUSH1 0x40 DUP3 KECCAK256 DUP3 SWAP2 PUSH2 0x30FD JUMP JUMPDEST PUSH1 0x0 DUP2 DUP2 MSTORE PUSH1 0x1 DUP4 ADD PUSH1 0x20 MSTORE PUSH1 0x40 DUP2 KECCAK256 DUP2 SWAP1 PUSH1 0x2 PUSH2 0x30FD JUMP JUMPDEST PUSH1 0x0 DUP2 DUP2 MSTORE PUSH1 0x1 DUP4 ADD PUSH1 0x20 MSTORE PUSH1 0x40 DUP2 KECCAK256 DUP2 SWAP1 PUSH1 0x3 PUSH2 0x30FD JUMP JUMPDEST PUSH1 0x40 MLOAD PUSH12 0xFFFFFFFFFFFFFFFFFFFFFFFF NOT PUSH1 0x60 DUP4 SWAP1 SHL AND PUSH1 0x20 DUP3 ADD MSTORE PUSH1 0x0 SWAP1 PUSH1 0x34 ADD PUSH1 0x40 MLOAD PUSH1 0x20 DUP2 DUP4 SUB SUB DUP2 MSTORE SWAP1 PUSH1 0x40 MSTORE DUP1 MLOAD SWAP1 PUSH1 0x20 ADD KECCAK256 SWAP1 POP SWAP2 SWAP1 POP JUMP JUMPDEST PUSH1 0x0 DUP1 PUSH2 0x321F PUSH1 0x44 DUP8 PUSH2 0x42E9 JUMP JUMPDEST SWAP1 POP PUSH1 0x1 DUP1 DUP3 ADD SLOAD PUSH2 0x100 SWAP1 DIV PUSH1 0xFF AND PUSH1 0x4 DUP2 GT ISZERO PUSH2 0x3240 JUMPI PUSH2 0x3240 PUSH2 0x4983 JUMP JUMPDEST GT PUSH2 0x327E JUMPI PUSH1 0x40 MLOAD PUSH3 0x461BCD PUSH1 0xE5 SHL DUP2 MSTORE PUSH1 0x20 PUSH1 0x4 DUP3 ADD MSTORE PUSH1 0xE PUSH1 0x24 DUP3 ADD MSTORE PUSH14 0x111BDB585A5B8811195B195D1959 PUSH1 0x92 SHL PUSH1 0x44 DUP3 ADD MSTORE PUSH1 0x64 ADD PUSH2 0x7CC JUMP JUMPDEST DUP3 PUSH2 0x32EA JUMPI PUSH1 0x2 PUSH1 0x1 DUP3 ADD SLOAD PUSH3 0x10000 SWAP1 DIV PUSH1 0xFF AND PUSH1 0x3 DUP2 GT ISZERO PUSH2 0x32A4 JUMPI PUSH2 0x32A4 PUSH2 0x4983 JUMP JUMPDEST LT ISZERO PUSH2 0x32EA JUMPI PUSH1 0x40 MLOAD PUSH3 0x461BCD PUSH1 0xE5 SHL DUP2 MSTORE PUSH1 0x20 PUSH1 0x4 DUP3 ADD MSTORE PUSH1 0x15 PUSH1 0x24 DUP3 ADD MSTORE PUSH21 0x496C6C6567616C20446F6D61696E20557064617465 PUSH1 0x58 SHL PUSH1 0x44 DUP3 ADD MSTORE PUSH1 0x64 ADD PUSH2 0x7CC JUMP JUMPDEST DUP1 SLOAD PUSH2 0x32F7 SWAP1 DUP7 DUP7 PUSH2 0x3B43 JUMP JUMPDEST PUSH2 0x1AB0 JUMPI PUSH1 0x40 MLOAD PUSH3 0x461BCD PUSH1 0xE5 SHL DUP2 MSTORE PUSH1 0x4 ADD PUSH2 0x7CC SWAP1 PUSH2 0x4E46 JUMP JUMPDEST PUSH1 0x0 DUP2 PUSH1 0x2 DUP2 GT ISZERO PUSH2 0x3327 JUMPI PUSH2 0x3327 PUSH2 0x4983 JUMP JUMPDEST SUB PUSH2 0x351A JUMPI PUSH1 0x0 PUSH1 0x1 DUP7 ADD SLOAD PUSH1 0xFF AND PUSH1 0x3 DUP2 GT ISZERO PUSH2 0x3347 JUMPI PUSH2 0x3347 PUSH2 0x4983 JUMP JUMPDEST SUB PUSH2 0x3386 JUMPI PUSH1 0x40 MLOAD PUSH3 0x461BCD PUSH1 0xE5 SHL DUP2 MSTORE PUSH1 0x20 PUSH1 0x4 DUP3 ADD MSTORE PUSH1 0xF PUSH1 0x24 DUP3 ADD MSTORE PUSH15 0x1059D95B9D08139BDD08119BDD5B99 PUSH1 0x8A SHL PUSH1 0x44 DUP3 ADD MSTORE PUSH1 0x64 ADD PUSH2 0x7CC JUMP JUMPDEST PUSH1 0x1 DUP1 DUP7 ADD SLOAD PUSH1 0xFF AND PUSH1 0x3 DUP2 GT ISZERO PUSH2 0x33A0 JUMPI PUSH2 0x33A0 PUSH2 0x4983 JUMP JUMPDEST GT PUSH2 0x33E1 JUMPI PUSH1 0x40 MLOAD PUSH3 0x461BCD PUSH1 0xE5 SHL DUP2 MSTORE PUSH1 0x20 PUSH1 0x4 DUP3 ADD MSTORE PUSH1 0x11 PUSH1 0x24 DUP3 ADD MSTORE PUSH17 0x496C6C6567616C204167656E7454797065 PUSH1 0x78 SHL PUSH1 0x44 DUP3 ADD MSTORE PUSH1 0x64 ADD PUSH2 0x7CC JUMP JUMPDEST PUSH1 0x1 DUP1 DUP7 ADD SLOAD PUSH2 0x100 SWAP1 DIV PUSH1 0xFF AND PUSH1 0x4 DUP2 GT ISZERO PUSH2 0x3400 JUMPI PUSH2 0x3400 PUSH2 0x4983 JUMP JUMPDEST GT PUSH2 0x343D JUMPI PUSH1 0x40 MLOAD PUSH3 0x461BCD PUSH1 0xE5 SHL DUP2 MSTORE PUSH1 0x20 PUSH1 0x4 DUP3 ADD MSTORE PUSH1 0xD PUSH1 0x24 DUP3 ADD MSTORE PUSH13 0x1059D95B9D0811195B195D1959 PUSH1 0x9A SHL PUSH1 0x44 DUP3 ADD MSTORE PUSH1 0x64 ADD PUSH2 0x7CC JUMP JUMPDEST PUSH1 0x1 DUP6 ADD SLOAD PUSH2 0xFFFF PUSH4 0x1000000 DUP3 DIV DUP2 AND PUSH1 0x1 PUSH1 0x38 SHL SWAP1 SWAP3 DIV AND GT PUSH2 0x3497 JUMPI PUSH1 0x40 MLOAD PUSH3 0x461BCD PUSH1 0xE5 SHL DUP2 MSTORE PUSH1 0x20 PUSH1 0x4 DUP3 ADD MSTORE PUSH1 0x10 PUSH1 0x24 DUP3 ADD MSTORE PUSH16 0x125B1B1959D85B08149959995C9C9959 PUSH1 0x82 SHL PUSH1 0x44 DUP3 ADD MSTORE PUSH1 0x64 ADD PUSH2 0x7CC JUMP JUMPDEST PUSH1 0x1 DUP6 DUP2 ADD DUP1 SLOAD PUSH1 0x3 SWAP1 PUSH2 0x34B7 SWAP1 DUP5 SWAP1 PUSH4 0x1000000 SWAP1 DIV PUSH2 0xFFFF AND PUSH2 0x5155 JUMP JUMPDEST SWAP3 POP PUSH2 0x100 EXP DUP2 SLOAD DUP2 PUSH2 0xFFFF MUL NOT AND SWAP1 DUP4 PUSH2 0xFFFF AND MUL OR SWAP1 SSTORE POP DUP3 DUP5 DUP4 PUSH1 0x1 PUSH1 0x1 PUSH1 0xA0 SHL SUB AND PUSH32 0x30A2A9B84C50DDA8AE5520F5905549D611B35B2860288F1E4412942709F2D0CA PUSH1 0x0 PUSH1 0x40 MLOAD PUSH2 0x350D SWAP2 SWAP1 PUSH2 0x4BEA JUMP JUMPDEST PUSH1 0x40 MLOAD DUP1 SWAP2 SUB SWAP1 LOG4 PUSH2 0x2D36 JUMP JUMPDEST PUSH1 0x2 DUP2 PUSH1 0x2 DUP2 GT ISZERO PUSH2 0x352E JUMPI PUSH2 0x352E PUSH2 0x4983 JUMP JUMPDEST SUB PUSH2 0x2D36 JUMPI PUSH1 0x1 DUP6 ADD SLOAD PUSH4 0x1000000 SWAP1 DIV PUSH2 0xFFFF AND PUSH2 0x3582 JUMPI PUSH1 0x40 MLOAD PUSH3 0x461BCD PUSH1 0xE5 SHL DUP2 MSTORE PUSH1 0x20 PUSH1 0x4 DUP3 ADD MSTORE PUSH1 0x10 PUSH1 0x24 DUP3 ADD MSTORE PUSH16 0x125B1B1959D85B08149959995C9C9959 PUSH1 0x82 SHL PUSH1 0x44 DUP3 ADD MSTORE PUSH1 0x64 ADD PUSH2 0x7CC JUMP JUMPDEST PUSH1 0x1 DUP6 ADD DUP1 SLOAD PUSH1 0x0 NOT PUSH2 0xFFFF PUSH4 0x1000000 DUP1 DUP5 DIV DUP3 AND SWAP3 SWAP1 SWAP3 ADD AND MUL PUSH5 0xFFFF000000 NOT SWAP1 SWAP2 AND OR SWAP1 SSTORE PUSH1 0x40 MLOAD DUP4 SWAP1 DUP6 SWAP1 PUSH1 0x1 PUSH1 0x1 PUSH1 0xA0 SHL SUB DUP6 AND SWAP1 PUSH32 0x30A2A9B84C50DDA8AE5520F5905549D611B35B2860288F1E4412942709F2D0CA SWAP1 PUSH2 0x35EB SWAP1 PUSH1 0x2 SWAP1 PUSH2 0x4BEA JUMP JUMPDEST PUSH1 0x40 MLOAD DUP1 SWAP2 SUB SWAP1 LOG4 POP POP POP POP POP JUMP JUMPDEST PUSH1 0x0 DUP2 DUP2 MSTORE PUSH1 0x44 PUSH1 0x20 MSTORE PUSH1 0x40 DUP2 KECCAK256 PUSH1 0x1 ADD SLOAD DUP2 SWAP1 PUSH1 0xFF AND PUSH1 0x2 DUP2 PUSH1 0x3 DUP2 GT ISZERO PUSH2 0x3625 JUMPI PUSH2 0x3625 PUSH2 0x4983 JUMP JUMPDEST SUB PUSH2 0x365B JUMPI PUSH1 0x0 PUSH2 0x3637 PUSH1 0x44 DUP7 PUSH2 0x4389 JUMP JUMPDEST PUSH1 0x2 ADD SLOAD PUSH1 0x0 DUP2 DUP2 MSTORE PUSH1 0x45 PUSH1 0x20 MSTORE PUSH1 0x40 SWAP1 KECCAK256 PUSH1 0x1 ADD SLOAD PUSH1 0xFF AND SWAP7 SWAP1 SWAP6 POP SWAP4 POP POP POP POP JUMP JUMPDEST PUSH1 0x3 DUP2 PUSH1 0x3 DUP2 GT ISZERO PUSH2 0x366F JUMPI PUSH2 0x366F PUSH2 0x4983 JUMP JUMPDEST SUB PUSH2 0x3681 JUMPI PUSH1 0x0 PUSH2 0x3637 PUSH1 0x44 DUP7 PUSH2 0x4466 JUMP JUMPDEST POP PUSH1 0x0 SWAP4 DUP5 SWAP4 POP SWAP2 POP POP JUMP JUMPDEST PUSH2 0x3695 PUSH2 0x2CE0 JUMP JUMPDEST PUSH1 0x1 PUSH1 0x1 PUSH1 0xA0 SHL SUB AND DUP2 PUSH1 0x1 PUSH1 0x1 PUSH1 0xA0 SHL SUB AND SUB PUSH2 0x36DF JUMPI PUSH1 0x40 MLOAD PUSH3 0x461BCD PUSH1 0xE5 SHL DUP2 MSTORE PUSH1 0x20 PUSH1 0x4 DUP3 ADD MSTORE PUSH1 0x7 PUSH1 0x24 DUP3 ADD MSTORE PUSH7 0x125B1B1959D85B PUSH1 0xCA SHL PUSH1 0x44 DUP3 ADD MSTORE PUSH1 0x64 ADD PUSH2 0x7CC JUMP JUMPDEST PUSH2 0x36EF PUSH4 0x7147855D PUSH1 0xE0 SHL PUSH2 0x2D3D JUMP JUMPDEST PUSH2 0x370B JUMPI PUSH1 0x40 MLOAD PUSH3 0x461BCD PUSH1 0xE5 SHL DUP2 MSTORE PUSH1 0x4 ADD PUSH2 0x7CC SWAP1 PUSH2 0x4E46 JUMP JUMPDEST POP JUMP JUMPDEST PUSH1 0x60 PUSH32 0x4910FDFA16FED3260ED0E7147F7CC6DA11A60208B5B9406D12A635614FFD9143 SLOAD PUSH1 0xFF AND ISZERO PUSH2 0x3758 JUMPI PUSH2 0x3743 DUP5 PUSH2 0x453D JUMP JUMPDEST POP PUSH1 0x40 DUP1 MLOAD PUSH1 0x0 DUP2 MSTORE PUSH1 0x20 DUP2 ADD SWAP1 SWAP2 MSTORE PUSH2 0x17E9 JUMP JUMPDEST PUSH1 0x0 DUP1 MLOAD PUSH1 0x20 PUSH2 0x5232 DUP4 CODECOPY DUP2 MLOAD SWAP2 MSTORE PUSH1 0x0 SHL DUP5 PUSH1 0x1 PUSH1 0x1 PUSH1 0xA0 SHL SUB AND PUSH4 0x52D1902D PUSH1 0x40 MLOAD DUP2 PUSH4 0xFFFFFFFF AND PUSH1 0xE0 SHL DUP2 MSTORE PUSH1 0x4 ADD PUSH1 0x20 PUSH1 0x40 MLOAD DUP1 DUP4 SUB DUP2 DUP7 GAS STATICCALL ISZERO DUP1 ISZERO PUSH2 0x37A8 JUMPI RETURNDATASIZE PUSH1 0x0 DUP1 RETURNDATACOPY RETURNDATASIZE PUSH1 0x0 REVERT JUMPDEST POP POP POP POP PUSH1 0x40 MLOAD RETURNDATASIZE PUSH1 0x1F NOT PUSH1 0x1F DUP3 ADD AND DUP3 ADD DUP1 PUSH1 0x40 MSTORE POP DUP2 ADD SWAP1 PUSH2 0x37CC SWAP2 SWAP1 PUSH2 0x5170 JUMP JUMPDEST EQ PUSH2 0x3808 JUMPI PUSH1 0x40 MLOAD PUSH3 0x461BCD PUSH1 0xE5 SHL DUP2 MSTORE PUSH1 0x20 PUSH1 0x4 DUP3 ADD MSTORE PUSH1 0xC PUSH1 0x24 DUP3 ADD MSTORE PUSH12 0x496C6C6567616C2055555053 PUSH1 0xA0 SHL PUSH1 0x44 DUP3 ADD MSTORE PUSH1 0x64 ADD PUSH2 0x7CC JUMP JUMPDEST PUSH1 0x40 MLOAD PUSH4 0x1FFC9A7 PUSH1 0xE0 SHL DUP2 MSTORE PUSH4 0x27D8F1FD PUSH1 0xE2 SHL PUSH1 0x4 DUP3 ADD MSTORE PUSH1 0x1 PUSH1 0x1 PUSH1 0xA0 SHL SUB DUP6 AND SWAP1 PUSH4 0x1FFC9A7 SWAP1 PUSH1 0x24 ADD PUSH1 0x20 PUSH1 0x40 MLOAD DUP1 DUP4 SUB DUP2 DUP7 GAS STATICCALL ISZERO DUP1 ISZERO PUSH2 0x3853 JUMPI RETURNDATASIZE PUSH1 0x0 DUP1 RETURNDATACOPY RETURNDATASIZE PUSH1 0x0 REVERT JUMPDEST POP POP POP POP PUSH1 0x40 MLOAD RETURNDATASIZE PUSH1 0x1F NOT PUSH1 0x1F DUP3 ADD AND DUP3 ADD DUP1 PUSH1 0x40 MSTORE POP DUP2 ADD SWAP1 PUSH2 0x3877 SWAP2 SWAP1 PUSH2 0x4E69 JUMP JUMPDEST PUSH2 0x38B3 JUMPI PUSH1 0x40 MLOAD PUSH3 0x461BCD PUSH1 0xE5 SHL DUP2 MSTORE PUSH1 0x20 PUSH1 0x4 DUP3 ADD MSTORE PUSH1 0xD PUSH1 0x24 DUP3 ADD MSTORE PUSH13 0x496C6C6567616C2050726F7879 PUSH1 0x98 SHL PUSH1 0x44 DUP3 ADD MSTORE PUSH1 0x64 ADD PUSH2 0x7CC JUMP JUMPDEST PUSH2 0x38BE DUP5 DUP5 DUP5 PUSH2 0x45B2 JUMP JUMPDEST SWAP1 POP PUSH2 0x17E9 JUMP JUMPDEST PUSH1 0x0 DUP2 DUP2 MSTORE PUSH1 0x1 DUP4 ADD PUSH1 0x20 MSTORE PUSH1 0x40 DUP2 KECCAK256 SLOAD ISZERO ISZERO PUSH2 0x17E9 JUMP JUMPDEST PUSH1 0x0 PUSH32 0x8B73C3C69BB8FE3D512ECC4CF759CC79239F7B179B0FFACAA9A75D522B39400F PUSH1 0x0 PUSH1 0x40 MLOAD PUSH1 0x20 ADD PUSH2 0x3912 SWAP2 SWAP1 PUSH2 0x5189 JUMP JUMPDEST PUSH1 0x40 MLOAD PUSH1 0x20 DUP2 DUP4 SUB SUB DUP2 MSTORE SWAP1 PUSH1 0x40 MSTORE DUP1 MLOAD SWAP1 PUSH1 0x20 ADD KECCAK256 PUSH1 0x1 PUSH1 0x40 MLOAD PUSH1 0x20 ADD PUSH2 0x393A SWAP2 SWAP1 PUSH2 0x5189 JUMP JUMPDEST PUSH1 0x40 DUP1 MLOAD PUSH1 0x1F NOT DUP2 DUP5 SUB ADD DUP2 MSTORE DUP3 DUP3 MSTORE DUP1 MLOAD PUSH1 0x20 SWAP2 DUP3 ADD KECCAK256 SWAP1 DUP4 ADD SWAP5 SWAP1 SWAP5 MSTORE DUP2 ADD SWAP2 SWAP1 SWAP2 MSTORE PUSH1 0x60 DUP2 ADD SWAP2 SWAP1 SWAP2 MSTORE CHAINID PUSH1 0x80 DUP3 ADD MSTORE ADDRESS PUSH1 0xA0 DUP3 ADD MSTORE PUSH1 0xC0 ADD PUSH1 0x40 MLOAD PUSH1 0x20 DUP2 DUP4 SUB SUB DUP2 MSTORE SWAP1 PUSH1 0x40 MSTORE DUP1 MLOAD SWAP1 PUSH1 0x20 ADD KECCAK256 SWAP1 POP SWAP1 JUMP JUMPDEST PUSH32 0xB53127684A568B3173AE13B9F8A6016E243E63B6E8EE1178D6A717850B5D6103 DUP1 SLOAD PUSH1 0x1 PUSH1 0x1 PUSH1 0xA0 SHL SUB DUP4 AND PUSH1 0x1 PUSH1 0x1 PUSH1 0xA0 SHL SUB NOT SWAP1 SWAP2 AND DUP2 OR SWAP1 SWAP2 SSTORE PUSH1 0x40 DUP1 MLOAD SWAP2 DUP3 MSTORE MLOAD ADDRESS SWAP2 CALLER SWAP2 PUSH32 0x63FDBED5F2909EC44E3BECC51E9D29654CE1447747914E8A6EBC019E7F640B8B SWAP2 DUP2 SWAP1 SUB PUSH1 0x20 ADD SWAP1 LOG3 POP JUMP JUMPDEST PUSH1 0x0 DUP1 DUP1 PUSH2 0x3A17 PUSH1 0x44 DUP7 PUSH2 0x4466 JUMP JUMPDEST PUSH1 0x0 DUP6 DUP2 MSTORE PUSH1 0x5 DUP3 ADD PUSH1 0x20 MSTORE PUSH1 0x40 DUP2 KECCAK256 SLOAD SWAP2 SWAP3 POP PUSH2 0x3A36 PUSH1 0x44 DUP4 PUSH2 0x4389 JUMP JUMPDEST PUSH1 0x2 ADD SLOAD PUSH1 0x0 DUP2 DUP2 MSTORE PUSH1 0x45 PUSH1 0x20 MSTORE PUSH1 0x40 SWAP1 KECCAK256 PUSH1 0x1 ADD SLOAD PUSH1 0xFF AND SWAP6 POP SWAP4 POP POP POP POP JUMPDEST SWAP3 POP SWAP3 SWAP1 POP JUMP JUMPDEST PUSH1 0x0 DUP2 DUP2 MSTORE PUSH1 0x1 DUP4 ADD PUSH1 0x20 MSTORE PUSH1 0x40 DUP2 KECCAK256 PUSH1 0x5 PUSH1 0x1 DUP3 ADD SLOAD PUSH1 0xFF AND PUSH1 0x5 DUP2 GT ISZERO PUSH2 0x3A89 JUMPI PUSH2 0x3A89 PUSH2 0x4983 JUMP JUMPDEST SUB PUSH2 0x3AA6 JUMPI PUSH1 0x40 DUP1 MLOAD DUP5 DUP2 MSTORE PUSH1 0x1 DUP7 ADD PUSH1 0x20 DUP3 ADD MSTORE KECCAK256 SWAP2 POP PUSH2 0x1892 JUMP JUMPDEST PUSH1 0x0 PUSH1 0x1 DUP3 ADD SLOAD PUSH1 0xFF AND PUSH1 0x5 DUP2 GT ISZERO PUSH2 0x3AC1 JUMPI PUSH2 0x3AC1 PUSH2 0x4983 JUMP JUMPDEST SUB PUSH2 0x3AFE JUMPI PUSH1 0x40 MLOAD PUSH3 0x461BCD PUSH1 0xE5 SHL DUP2 MSTORE PUSH1 0x20 PUSH1 0x4 DUP3 ADD MSTORE PUSH1 0xD PUSH1 0x24 DUP3 ADD MSTORE PUSH13 0x11D25108139BDD08119BDD5B99 PUSH1 0x9A SHL PUSH1 0x44 DUP3 ADD MSTORE PUSH1 0x64 ADD PUSH2 0x7CC JUMP JUMPDEST PUSH1 0x40 MLOAD PUSH3 0x461BCD PUSH1 0xE5 SHL DUP2 MSTORE PUSH1 0x20 PUSH1 0x4 DUP3 ADD MSTORE PUSH1 0x10 PUSH1 0x24 DUP3 ADD MSTORE PUSH16 0x125B1B195859DB0811D2510814DB1BDD PUSH1 0x82 SHL PUSH1 0x44 DUP3 ADD MSTORE PUSH1 0x64 ADD PUSH2 0x7CC JUMP JUMPDEST PUSH1 0x0 PUSH2 0x77E DUP3 SLOAD SWAP1 JUMP JUMPDEST PUSH1 0x0 DUP1 DUP1 PUSH2 0x3B52 PUSH1 0x44 DUP6 PUSH2 0x3188 JUMP JUMPDEST SWAP2 POP SWAP2 POP DUP1 PUSH2 0x3B66 JUMPI PUSH1 0x0 SWAP3 POP POP POP PUSH2 0x17E9 JUMP JUMPDEST PUSH1 0x0 DUP7 DUP2 MSTORE PUSH1 0x44 PUSH1 0x20 MSTORE PUSH1 0x40 SWAP1 KECCAK256 PUSH1 0x1 ADD SLOAD PUSH1 0xFF AND PUSH1 0x2 DUP2 PUSH1 0x3 DUP2 GT ISZERO PUSH2 0x3B8F JUMPI PUSH2 0x3B8F PUSH2 0x4983 JUMP JUMPDEST SUB PUSH2 0x3CF9 JUMPI PUSH1 0x0 DUP1 PUSH2 0x3BA2 PUSH1 0x44 DUP11 PUSH2 0x461B JUMP JUMPDEST SWAP2 POP SWAP2 POP DUP1 ISZERO DUP1 PUSH2 0x3BD1 JUMPI POP PUSH1 0x4 PUSH1 0x1 DUP4 ADD SLOAD PUSH2 0x100 SWAP1 DIV PUSH1 0xFF AND PUSH1 0x4 DUP2 GT ISZERO PUSH2 0x3BCE JUMPI PUSH2 0x3BCE PUSH2 0x4983 JUMP JUMPDEST EQ ISZERO JUMPDEST ISZERO PUSH2 0x3BE4 JUMPI PUSH1 0x0 SWAP6 POP POP POP POP POP POP PUSH2 0x17E9 JUMP JUMPDEST PUSH1 0x0 DUP1 PUSH2 0x3BFF DUP5 PUSH1 0x3 ADD SLOAD PUSH1 0x44 PUSH2 0x3F85 SWAP1 SWAP2 SWAP1 PUSH4 0xFFFFFFFF AND JUMP JUMPDEST SWAP2 POP SWAP2 POP DUP1 ISZERO DUP1 PUSH2 0x3C2E JUMPI POP PUSH1 0x4 PUSH1 0x1 DUP4 ADD SLOAD PUSH2 0x100 SWAP1 DIV PUSH1 0xFF AND PUSH1 0x4 DUP2 GT ISZERO PUSH2 0x3C2B JUMPI PUSH2 0x3C2B PUSH2 0x4983 JUMP JUMPDEST EQ ISZERO JUMPDEST ISZERO PUSH2 0x3C43 JUMPI PUSH1 0x0 SWAP8 POP POP POP POP POP POP POP POP PUSH2 0x17E9 JUMP JUMPDEST PUSH1 0x0 DUP11 DUP2 MSTORE PUSH1 0x5 DUP4 ADD PUSH1 0x20 MSTORE PUSH1 0x40 SWAP1 KECCAK256 SLOAD DUP12 EQ PUSH2 0x3C6A JUMPI PUSH1 0x0 SWAP8 POP POP POP POP POP POP POP POP PUSH2 0x17E9 JUMP JUMPDEST PUSH1 0x0 DUP12 DUP2 MSTORE PUSH1 0x47 PUSH1 0x20 SWAP1 DUP2 MSTORE PUSH1 0x40 DUP1 DUP4 KECCAK256 SLOAD DUP4 MSTORE PUSH1 0x46 SWAP1 SWAP2 MSTORE SWAP1 KECCAK256 PUSH1 0x4 PUSH1 0x3 DUP3 ADD SLOAD PUSH7 0x1000000000000 SWAP1 DIV PUSH1 0xFF AND PUSH1 0x4 DUP2 GT ISZERO PUSH2 0x3CAA JUMPI PUSH2 0x3CAA PUSH2 0x4983 JUMP JUMPDEST EQ DUP1 ISZERO PUSH2 0x3CD2 JUMPI POP PUSH1 0x4 DUP9 ADD SLOAD PUSH1 0x3 DUP3 ADD SLOAD PUSH1 0xFF PUSH5 0x100000000 SWAP3 DUP4 SWAP1 DIV DUP2 AND SWAP3 SWAP1 SWAP2 DIV AND LT ISZERO JUMPDEST ISZERO PUSH2 0x3CE8 JUMPI PUSH1 0x0 SWAP9 POP POP POP POP POP POP POP POP POP PUSH2 0x17E9 JUMP JUMPDEST PUSH1 0x1 SWAP9 POP POP POP POP POP POP POP POP POP PUSH2 0x17E9 JUMP JUMPDEST PUSH1 0x3 DUP2 PUSH1 0x3 DUP2 GT ISZERO PUSH2 0x3D0D JUMPI PUSH2 0x3D0D PUSH2 0x4983 JUMP JUMPDEST SUB PUSH2 0x3E56 JUMPI PUSH1 0x0 DUP1 PUSH2 0x3D20 PUSH1 0x44 DUP11 PUSH2 0x3F85 JUMP JUMPDEST SWAP2 POP SWAP2 POP DUP1 ISZERO DUP1 PUSH2 0x3D4F JUMPI POP PUSH1 0x4 PUSH1 0x1 DUP4 ADD SLOAD PUSH2 0x100 SWAP1 DIV PUSH1 0xFF AND PUSH1 0x4 DUP2 GT ISZERO PUSH2 0x3D4C JUMPI PUSH2 0x3D4C PUSH2 0x4983 JUMP JUMPDEST EQ ISZERO JUMPDEST ISZERO PUSH2 0x3D62 JUMPI PUSH1 0x0 SWAP6 POP POP POP POP POP POP PUSH2 0x17E9 JUMP JUMPDEST PUSH1 0x0 DUP9 DUP2 MSTORE PUSH1 0x5 DUP4 ADD PUSH1 0x20 MSTORE PUSH1 0x40 DUP2 KECCAK256 SLOAD SWAP1 DUP1 PUSH2 0x3D80 PUSH1 0x44 DUP5 PUSH2 0x461B JUMP JUMPDEST SWAP2 POP SWAP2 POP DUP1 ISZERO DUP1 PUSH2 0x3DAF JUMPI POP PUSH1 0x4 PUSH1 0x1 DUP4 ADD SLOAD PUSH2 0x100 SWAP1 DIV PUSH1 0xFF AND PUSH1 0x4 DUP2 GT ISZERO PUSH2 0x3DAC JUMPI PUSH2 0x3DAC PUSH2 0x4983 JUMP JUMPDEST EQ ISZERO JUMPDEST ISZERO PUSH2 0x3DC5 JUMPI PUSH1 0x0 SWAP9 POP POP POP POP POP POP POP POP POP PUSH2 0x17E9 JUMP JUMPDEST PUSH1 0x0 DUP4 DUP2 MSTORE PUSH1 0x47 PUSH1 0x20 SWAP1 DUP2 MSTORE PUSH1 0x40 DUP1 DUP4 KECCAK256 SLOAD DUP4 MSTORE PUSH1 0x46 SWAP1 SWAP2 MSTORE SWAP1 KECCAK256 PUSH1 0x4 PUSH1 0x3 DUP3 ADD SLOAD PUSH7 0x1000000000000 SWAP1 DIV PUSH1 0xFF AND PUSH1 0x4 DUP2 GT ISZERO PUSH2 0x3E05 JUMPI PUSH2 0x3E05 PUSH2 0x4983 JUMP JUMPDEST EQ DUP1 ISZERO PUSH2 0x3E2D JUMPI POP PUSH1 0x4 DUP10 ADD SLOAD PUSH1 0x3 DUP3 ADD SLOAD PUSH1 0xFF PUSH5 0x100000000 SWAP3 DUP4 SWAP1 DIV DUP2 AND SWAP3 SWAP1 SWAP2 DIV AND LT ISZERO JUMPDEST ISZERO PUSH2 0x3E44 JUMPI PUSH1 0x0 SWAP10 POP POP POP POP POP POP POP POP POP POP PUSH2 0x17E9 JUMP JUMPDEST PUSH1 0x1 SWAP10 POP POP POP POP POP POP POP POP POP POP PUSH2 0x17E9 JUMP JUMPDEST POP PUSH1 0x0 SWAP7 SWAP6 POP POP POP POP POP POP JUMP JUMPDEST PUSH1 0x0 PUSH2 0x17E9 DUP4 DUP4 PUSH2 0x4632 JUMP JUMPDEST PUSH1 0x0 DUP2 DUP2 MSTORE PUSH1 0x1 DUP4 ADD PUSH1 0x20 MSTORE PUSH1 0x40 DUP2 KECCAK256 DUP2 PUSH1 0x1 DUP3 ADD SLOAD PUSH1 0xFF AND PUSH1 0x5 DUP2 GT ISZERO PUSH2 0x3E99 JUMPI PUSH2 0x3E99 PUSH2 0x4983 JUMP JUMPDEST EQ DUP1 PUSH2 0x3EBD JUMPI POP PUSH1 0x4 PUSH1 0x1 DUP3 ADD SLOAD PUSH1 0xFF AND PUSH1 0x5 DUP2 GT ISZERO PUSH2 0x3EBB JUMPI PUSH2 0x3EBB PUSH2 0x4983 JUMP JUMPDEST EQ JUMPDEST ISZERO PUSH2 0x3EDA JUMPI PUSH1 0x40 DUP1 MLOAD DUP5 DUP2 MSTORE PUSH1 0x1 DUP7 ADD PUSH1 0x20 DUP3 ADD MSTORE KECCAK256 SWAP2 POP PUSH2 0x1892 JUMP JUMPDEST PUSH1 0x40 MLOAD PUSH3 0x461BCD PUSH1 0xE5 SHL DUP2 MSTORE PUSH1 0x20 PUSH1 0x4 DUP3 ADD MSTORE PUSH1 0x10 PUSH1 0x24 DUP3 ADD MSTORE PUSH16 0x125B1B1959D85B081112510814DB1BDD PUSH1 0x82 SHL PUSH1 0x44 DUP3 ADD MSTORE PUSH1 0x64 ADD PUSH2 0x7CC JUMP JUMPDEST PUSH1 0x0 DUP1 DUP1 PUSH2 0x3F24 PUSH1 0x44 DUP7 PUSH2 0x461B JUMP JUMPDEST SWAP2 POP SWAP2 POP DUP1 PUSH2 0x3F38 JUMPI PUSH1 0x0 SWAP3 POP POP POP PUSH2 0x77E JUMP JUMPDEST PUSH1 0x0 DUP1 PUSH2 0x3F53 DUP5 PUSH1 0x3 ADD SLOAD PUSH1 0x44 PUSH2 0x3F85 SWAP1 SWAP2 SWAP1 PUSH4 0xFFFFFFFF AND JUMP JUMPDEST SWAP2 POP SWAP2 POP DUP1 PUSH2 0x3F69 JUMPI PUSH1 0x0 SWAP5 POP POP POP POP POP PUSH2 0x77E JUMP JUMPDEST POP PUSH1 0x0 SWAP5 DUP6 MSTORE PUSH1 0x5 ADD PUSH1 0x20 MSTORE POP POP PUSH1 0x40 SWAP1 SWAP2 KECCAK256 SLOAD ISZERO ISZERO SWAP3 SWAP2 POP POP JUMP JUMPDEST PUSH1 0x0 DUP2 DUP2 MSTORE PUSH1 0x20 DUP4 SWAP1 MSTORE PUSH1 0x40 DUP2 KECCAK256 DUP2 SWAP1 PUSH1 0x3 JUMPDEST PUSH1 0x1 DUP3 ADD SLOAD PUSH1 0xFF AND PUSH1 0x3 DUP2 GT ISZERO PUSH2 0x3FB1 JUMPI PUSH2 0x3FB1 PUSH2 0x4983 JUMP JUMPDEST SUB PUSH2 0x3138 JUMPI PUSH1 0x40 DUP1 MLOAD DUP6 DUP2 MSTORE PUSH1 0x20 DUP2 ADD DUP8 SWAP1 MSTORE KECCAK256 SWAP3 POP PUSH1 0x1 SWAP2 POP PUSH2 0x3142 JUMP JUMPDEST PUSH1 0x4C SLOAD PUSH3 0x10000 SWAP1 DIV PUSH1 0xFF AND PUSH2 0x4028 JUMPI PUSH1 0x40 MLOAD PUSH3 0x461BCD PUSH1 0xE5 SHL DUP2 MSTORE PUSH1 0x20 PUSH1 0x4 DUP3 ADD MSTORE PUSH1 0x19 PUSH1 0x24 DUP3 ADD MSTORE PUSH32 0x436F6E7472616374204E6F7420496E697469616C697A696E6700000000000000 PUSH1 0x44 DUP3 ADD MSTORE PUSH1 0x64 ADD PUSH2 0x7CC JUMP JUMPDEST PUSH1 0x0 PUSH2 0x4035 DUP6 DUP8 DUP4 PUSH2 0x502A JUMP JUMPDEST POP PUSH1 0x1 PUSH2 0x4043 DUP4 DUP6 DUP4 PUSH2 0x502A JUMP JUMPDEST POP PUSH1 0x1 PUSH1 0x1 PUSH1 0xA0 SHL SUB DUP2 AND ADDRESS EQ PUSH2 0x4102 JUMPI PUSH1 0x40 MLOAD PUSH4 0x1FFC9A7 PUSH1 0xE0 SHL DUP2 MSTORE PUSH4 0x7A327937 PUSH1 0xE0 SHL PUSH1 0x4 DUP3 ADD MSTORE PUSH1 0x1 PUSH1 0x1 PUSH1 0xA0 SHL SUB DUP3 AND SWAP1 PUSH4 0x1FFC9A7 SWAP1 PUSH1 0x24 ADD PUSH1 0x20 PUSH1 0x40 MLOAD DUP1 DUP4 SUB DUP2 DUP7 GAS STATICCALL ISZERO DUP1 ISZERO PUSH2 0x409F JUMPI RETURNDATASIZE PUSH1 0x0 DUP1 RETURNDATACOPY RETURNDATASIZE PUSH1 0x0 REVERT JUMPDEST POP POP POP POP PUSH1 0x40 MLOAD RETURNDATASIZE PUSH1 0x1F NOT PUSH1 0x1F DUP3 ADD AND DUP3 ADD DUP1 PUSH1 0x40 MSTORE POP DUP2 ADD SWAP1 PUSH2 0x40C3 SWAP2 SWAP1 PUSH2 0x4E69 JUMP JUMPDEST PUSH2 0x40FD JUMPI PUSH1 0x40 MLOAD PUSH3 0x461BCD PUSH1 0xE5 SHL DUP2 MSTORE PUSH1 0x20 PUSH1 0x4 DUP3 ADD MSTORE PUSH1 0xB PUSH1 0x24 DUP3 ADD MSTORE PUSH11 0x125B1B1959D85B081050D3 PUSH1 0xAA SHL PUSH1 0x44 DUP3 ADD MSTORE PUSH1 0x64 ADD PUSH2 0x7CC JUMP JUMPDEST PUSH2 0x414E JUMP JUMPDEST PUSH2 0x4112 PUSH4 0x7A327937 PUSH1 0xE0 SHL PUSH2 0x759 JUMP JUMPDEST PUSH2 0x414E JUMPI PUSH1 0x40 MLOAD PUSH3 0x461BCD PUSH1 0xE5 SHL DUP2 MSTORE PUSH1 0x20 PUSH1 0x4 DUP3 ADD MSTORE PUSH1 0xD PUSH1 0x24 DUP3 ADD MSTORE PUSH13 0x139BDD0814DD5C1C1BDC9D1959 PUSH1 0x9A SHL PUSH1 0x44 DUP3 ADD MSTORE PUSH1 0x64 ADD PUSH2 0x7CC JUMP JUMPDEST PUSH1 0x2 DUP1 SLOAD PUSH1 0x1 PUSH1 0x1 PUSH1 0xA0 SHL SUB DUP4 AND PUSH1 0x1 PUSH2 0xFF01 PUSH1 0xA0 SHL SUB NOT SWAP1 SWAP2 AND OR PUSH1 0x1 PUSH1 0xA8 SHL OR PUSH1 0xFF PUSH1 0xA0 SHL NOT AND PUSH1 0x1 PUSH1 0xA0 SHL OR SWAP1 SSTORE PUSH2 0x2D36 CALLER PUSH2 0x3991 JUMP JUMPDEST PUSH1 0x60 PUSH1 0x1 PUSH1 0x1 PUSH1 0xA0 SHL SUB DUP5 AND EXTCODESIZE PUSH2 0x41E1 JUMPI PUSH1 0x40 MLOAD PUSH3 0x461BCD PUSH1 0xE5 SHL DUP2 MSTORE PUSH1 0x20 PUSH1 0x4 DUP3 ADD MSTORE PUSH1 0x18 PUSH1 0x24 DUP3 ADD MSTORE PUSH32 0x496C6C6567616C20436F6E747261637420416464726573730000000000000000 PUSH1 0x44 DUP3 ADD MSTORE PUSH1 0x64 ADD PUSH2 0x7CC JUMP JUMPDEST PUSH1 0x0 DUP1 DUP6 PUSH1 0x1 PUSH1 0x1 PUSH1 0xA0 SHL SUB AND DUP6 PUSH1 0x40 MLOAD PUSH2 0x41FC SWAP2 SWAP1 PUSH2 0x51FF JUMP JUMPDEST PUSH1 0x0 PUSH1 0x40 MLOAD DUP1 DUP4 SUB DUP2 DUP6 GAS DELEGATECALL SWAP2 POP POP RETURNDATASIZE DUP1 PUSH1 0x0 DUP2 EQ PUSH2 0x4237 JUMPI PUSH1 0x40 MLOAD SWAP2 POP PUSH1 0x1F NOT PUSH1 0x3F RETURNDATASIZE ADD AND DUP3 ADD PUSH1 0x40 MSTORE RETURNDATASIZE DUP3 MSTORE RETURNDATASIZE PUSH1 0x0 PUSH1 0x20 DUP5 ADD RETURNDATACOPY PUSH2 0x423C JUMP JUMPDEST PUSH1 0x60 SWAP2 POP JUMPDEST POP SWAP2 POP SWAP2 POP PUSH2 0x424C DUP3 DUP3 DUP7 PUSH2 0x4681 JUMP JUMPDEST SWAP7 SWAP6 POP POP POP POP POP POP JUMP JUMPDEST PUSH1 0x40 MLOAD PUSH12 0xFFFFFFFFFFFFFFFFFFFFFFFF NOT PUSH1 0x60 DUP5 SWAP1 SHL AND PUSH1 0x20 DUP3 ADD MSTORE PUSH1 0x1 PUSH1 0x1 PUSH1 0xE0 SHL SUB NOT DUP3 AND PUSH1 0x34 DUP3 ADD MSTORE PUSH1 0x0 SWAP1 PUSH1 0x38 ADD PUSH2 0x316A JUMP JUMPDEST PUSH1 0x60 DUP2 PUSH1 0x0 ADD DUP1 SLOAD DUP1 PUSH1 0x20 MUL PUSH1 0x20 ADD PUSH1 0x40 MLOAD SWAP1 DUP2 ADD PUSH1 0x40 MSTORE DUP1 SWAP3 SWAP2 SWAP1 DUP2 DUP2 MSTORE PUSH1 0x20 ADD DUP3 DUP1 SLOAD DUP1 ISZERO PUSH2 0x42DD JUMPI PUSH1 0x20 MUL DUP3 ADD SWAP2 SWAP1 PUSH1 0x0 MSTORE PUSH1 0x20 PUSH1 0x0 KECCAK256 SWAP1 JUMPDEST DUP2 SLOAD DUP2 MSTORE PUSH1 0x20 ADD SWAP1 PUSH1 0x1 ADD SWAP1 DUP1 DUP4 GT PUSH2 0x42C9 JUMPI JUMPDEST POP POP POP POP POP SWAP1 POP SWAP2 SWAP1 POP JUMP JUMPDEST PUSH1 0x0 DUP2 DUP2 MSTORE PUSH1 0x1 DUP4 ADD PUSH1 0x20 MSTORE PUSH1 0x40 DUP2 KECCAK256 PUSH1 0x4 PUSH1 0x1 DUP3 ADD SLOAD PUSH1 0xFF AND PUSH1 0x5 DUP2 GT ISZERO PUSH2 0x4314 JUMPI PUSH2 0x4314 PUSH2 0x4983 JUMP JUMPDEST SUB PUSH2 0x4331 JUMPI PUSH1 0x40 DUP1 MLOAD DUP5 DUP2 MSTORE PUSH1 0x1 DUP7 ADD PUSH1 0x20 DUP3 ADD MSTORE KECCAK256 SWAP2 POP PUSH2 0x1892 JUMP JUMPDEST PUSH1 0x0 PUSH1 0x1 DUP3 ADD SLOAD PUSH1 0xFF AND PUSH1 0x5 DUP2 GT ISZERO PUSH2 0x434C JUMPI PUSH2 0x434C PUSH2 0x4983 JUMP JUMPDEST SUB PUSH2 0x3EDA JUMPI PUSH1 0x40 MLOAD PUSH3 0x461BCD PUSH1 0xE5 SHL DUP2 MSTORE PUSH1 0x20 PUSH1 0x4 DUP3 ADD MSTORE PUSH1 0xD PUSH1 0x24 DUP3 ADD MSTORE PUSH13 0x11125108139BDD08119BDD5B99 PUSH1 0x9A SHL PUSH1 0x44 DUP3 ADD MSTORE PUSH1 0x64 ADD PUSH2 0x7CC JUMP JUMPDEST PUSH1 0x0 DUP2 DUP2 MSTORE PUSH1 0x20 DUP4 SWAP1 MSTORE PUSH1 0x40 DUP2 KECCAK256 PUSH1 0x2 PUSH1 0x1 DUP3 ADD SLOAD PUSH1 0xFF AND PUSH1 0x3 DUP2 GT ISZERO PUSH2 0x43B2 JUMPI PUSH2 0x43B2 PUSH2 0x4983 JUMP JUMPDEST SUB PUSH2 0x43CD JUMPI PUSH1 0x40 DUP1 MLOAD DUP5 DUP2 MSTORE PUSH1 0x20 DUP2 ADD DUP7 SWAP1 MSTORE KECCAK256 SWAP2 POP PUSH2 0x1892 JUMP JUMPDEST PUSH1 0x0 PUSH1 0x1 DUP3 ADD SLOAD PUSH1 0xFF AND PUSH1 0x3 DUP2 GT ISZERO PUSH2 0x43E8 JUMPI PUSH2 0x43E8 PUSH2 0x4983 JUMP JUMPDEST SUB PUSH2 0x4428 JUMPI PUSH1 0x40 MLOAD PUSH3 0x461BCD PUSH1 0xE5 SHL DUP2 MSTORE PUSH1 0x20 PUSH1 0x4 DUP3 ADD MSTORE PUSH1 0x10 PUSH1 0x24 DUP3 ADD MSTORE PUSH16 0x149BDB19525908139BDD08119BDD5B99 PUSH1 0x82 SHL PUSH1 0x44 DUP3 ADD MSTORE PUSH1 0x64 ADD PUSH2 0x7CC JUMP JUMPDEST PUSH1 0x40 MLOAD PUSH3 0x461BCD PUSH1 0xE5 SHL DUP2 MSTORE PUSH1 0x20 PUSH1 0x4 DUP3 ADD MSTORE PUSH1 0x13 PUSH1 0x24 DUP3 ADD MSTORE PUSH19 0x125B1B1959D85B08149BDB1952590814DB1BDD PUSH1 0x6A SHL PUSH1 0x44 DUP3 ADD MSTORE PUSH1 0x64 ADD PUSH2 0x7CC JUMP JUMPDEST PUSH1 0x0 DUP2 DUP2 MSTORE PUSH1 0x20 DUP4 SWAP1 MSTORE PUSH1 0x40 DUP2 KECCAK256 PUSH1 0x3 PUSH1 0x1 DUP3 ADD SLOAD PUSH1 0xFF AND PUSH1 0x3 DUP2 GT ISZERO PUSH2 0x448F JUMPI PUSH2 0x448F PUSH2 0x4983 JUMP JUMPDEST SUB PUSH2 0x44AA JUMPI PUSH1 0x40 DUP1 MLOAD DUP5 DUP2 MSTORE PUSH1 0x20 DUP2 ADD DUP7 SWAP1 MSTORE KECCAK256 SWAP2 POP PUSH2 0x1892 JUMP JUMPDEST PUSH1 0x0 PUSH1 0x1 DUP3 ADD SLOAD PUSH1 0xFF AND PUSH1 0x3 DUP2 GT ISZERO PUSH2 0x44C5 JUMPI PUSH2 0x44C5 PUSH2 0x4983 JUMP JUMPDEST SUB PUSH2 0x4502 JUMPI PUSH1 0x40 MLOAD PUSH3 0x461BCD PUSH1 0xE5 SHL DUP2 MSTORE PUSH1 0x20 PUSH1 0x4 DUP3 ADD MSTORE PUSH1 0xD PUSH1 0x24 DUP3 ADD MSTORE PUSH13 0x15125108139BDD08119BDD5B99 PUSH1 0x9A SHL PUSH1 0x44 DUP3 ADD MSTORE PUSH1 0x64 ADD PUSH2 0x7CC JUMP JUMPDEST PUSH1 0x40 MLOAD PUSH3 0x461BCD PUSH1 0xE5 SHL DUP2 MSTORE PUSH1 0x20 PUSH1 0x4 DUP3 ADD MSTORE PUSH1 0x10 PUSH1 0x24 DUP3 ADD MSTORE PUSH16 0x125B1B1959D85B081512510814DB1BDD PUSH1 0x82 SHL PUSH1 0x44 DUP3 ADD MSTORE PUSH1 0x64 ADD PUSH2 0x7CC JUMP JUMPDEST PUSH1 0x1 PUSH1 0x1 PUSH1 0xA0 SHL SUB DUP2 AND EXTCODESIZE PUSH2 0x4583 JUMPI PUSH1 0x40 MLOAD PUSH3 0x461BCD PUSH1 0xE5 SHL DUP2 MSTORE PUSH1 0x20 PUSH1 0x4 DUP3 ADD MSTORE PUSH1 0xC PUSH1 0x24 DUP3 ADD MSTORE PUSH12 0x125B1B1959D85B08125B5C1B PUSH1 0xA2 SHL PUSH1 0x44 DUP3 ADD MSTORE PUSH1 0x64 ADD PUSH2 0x7CC JUMP JUMPDEST PUSH1 0x0 DUP1 MLOAD PUSH1 0x20 PUSH2 0x5232 DUP4 CODECOPY DUP2 MLOAD SWAP2 MSTORE DUP1 SLOAD PUSH1 0x1 PUSH1 0x1 PUSH1 0xA0 SHL SUB NOT AND PUSH1 0x1 PUSH1 0x1 PUSH1 0xA0 SHL SUB SWAP3 SWAP1 SWAP3 AND SWAP2 SWAP1 SWAP2 OR SWAP1 SSTORE JUMP JUMPDEST PUSH1 0x60 PUSH2 0x45BD DUP5 PUSH2 0x46BA JUMP JUMPDEST PUSH1 0x0 DUP4 MLOAD GT DUP1 PUSH2 0x45CA JUMPI POP DUP2 JUMPDEST ISZERO PUSH2 0x4605 JUMPI PUSH2 0x38BE DUP5 DUP5 PUSH1 0x40 MLOAD DUP1 PUSH1 0x40 ADD PUSH1 0x40 MSTORE DUP1 PUSH1 0x13 DUP2 MSTORE PUSH1 0x20 ADD PUSH19 0x11195B1959D85D1958D85B1B0811985A5B1959 PUSH1 0x6A SHL DUP2 MSTORE POP PUSH2 0x4188 JUMP JUMPDEST PUSH1 0x40 DUP1 MLOAD PUSH1 0x0 DUP1 DUP3 MSTORE PUSH1 0x20 DUP3 ADD SWAP1 SWAP3 MSTORE SWAP1 PUSH2 0xF8A JUMP JUMPDEST PUSH1 0x0 DUP2 DUP2 MSTORE PUSH1 0x20 DUP4 SWAP1 MSTORE PUSH1 0x40 DUP2 KECCAK256 DUP2 SWAP1 PUSH1 0x2 PUSH2 0x3F98 JUMP JUMPDEST PUSH1 0x0 DUP2 DUP2 MSTORE PUSH1 0x1 DUP4 ADD PUSH1 0x20 MSTORE PUSH1 0x40 DUP2 KECCAK256 SLOAD PUSH2 0x4679 JUMPI POP DUP2 SLOAD PUSH1 0x1 DUP2 DUP2 ADD DUP5 SSTORE PUSH1 0x0 DUP5 DUP2 MSTORE PUSH1 0x20 DUP1 DUP3 KECCAK256 SWAP1 SWAP4 ADD DUP5 SWAP1 SSTORE DUP5 SLOAD DUP5 DUP3 MSTORE DUP3 DUP7 ADD SWAP1 SWAP4 MSTORE PUSH1 0x40 SWAP1 KECCAK256 SWAP2 SWAP1 SWAP2 SSTORE PUSH2 0x77E JUMP JUMPDEST POP PUSH1 0x0 PUSH2 0x77E JUMP JUMPDEST PUSH1 0x60 DUP4 ISZERO PUSH2 0x4690 JUMPI POP DUP2 PUSH2 0x17E9 JUMP JUMPDEST DUP3 MLOAD ISZERO PUSH2 0x46A0 JUMPI DUP3 MLOAD DUP1 DUP5 PUSH1 0x20 ADD REVERT JUMPDEST DUP2 PUSH1 0x40 MLOAD PUSH3 0x461BCD PUSH1 0xE5 SHL DUP2 MSTORE PUSH1 0x4 ADD PUSH2 0x7CC SWAP2 SWAP1 PUSH2 0x4BBE JUMP JUMPDEST PUSH2 0x46C3 DUP2 PUSH2 0x453D JUMP JUMPDEST PUSH1 0x40 MLOAD PUSH1 0x1 PUSH1 0x1 PUSH1 0xA0 SHL SUB DUP3 AND SWAP1 ADDRESS SWAP1 CALLER SWAP1 PUSH32 0x8EE0F2BD29C0E6A975C3CC2E47CF2E01B5F23A9A8A02E0ED6A5A070269DE3D2D SWAP1 PUSH1 0x0 SWAP1 LOG4 POP JUMP JUMPDEST PUSH1 0x0 PUSH1 0x20 DUP3 DUP5 SUB SLT ISZERO PUSH2 0x4710 JUMPI PUSH1 0x0 DUP1 REVERT JUMPDEST DUP2 CALLDATALOAD PUSH1 0x1 PUSH1 0x1 PUSH1 0xE0 SHL SUB NOT DUP2 AND DUP2 EQ PUSH2 0x17E9 JUMPI PUSH1 0x0 DUP1 REVERT JUMPDEST PUSH1 0x0 DUP1 DUP4 PUSH1 0x1F DUP5 ADD SLT PUSH2 0x473A JUMPI PUSH1 0x0 DUP1 REVERT JUMPDEST POP DUP2 CALLDATALOAD PUSH8 0xFFFFFFFFFFFFFFFF DUP2 GT ISZERO PUSH2 0x4752 JUMPI PUSH1 0x0 DUP1 REVERT JUMPDEST PUSH1 0x20 DUP4 ADD SWAP2 POP DUP4 PUSH1 0x20 DUP3 DUP6 ADD ADD GT ISZERO PUSH2 0x3A57 JUMPI PUSH1 0x0 DUP1 REVERT JUMPDEST DUP1 CALLDATALOAD PUSH1 0x1 PUSH1 0x1 PUSH1 0xA0 SHL SUB DUP2 AND DUP2 EQ PUSH2 0xCCF JUMPI PUSH1 0x0 DUP1 REVERT JUMPDEST PUSH1 0x0 DUP1 PUSH1 0x0 DUP1 PUSH1 0x0 PUSH1 0x60 DUP7 DUP9 SUB SLT ISZERO PUSH2 0x4799 JUMPI PUSH1 0x0 DUP1 REVERT JUMPDEST DUP6 CALLDATALOAD PUSH8 0xFFFFFFFFFFFFFFFF DUP1 DUP3 GT ISZERO PUSH2 0x47B1 JUMPI PUSH1 0x0 DUP1 REVERT JUMPDEST PUSH2 0x47BD DUP10 DUP4 DUP11 ADD PUSH2 0x4728 JUMP JUMPDEST SWAP1 SWAP8 POP SWAP6 POP PUSH1 0x20 DUP9 ADD CALLDATALOAD SWAP2 POP DUP1 DUP3 GT ISZERO PUSH2 0x47D6 JUMPI PUSH1 0x0 DUP1 REVERT JUMPDEST POP PUSH2 0x47E3 DUP9 DUP3 DUP10 ADD PUSH2 0x4728 JUMP JUMPDEST SWAP1 SWAP5 POP SWAP3 POP PUSH2 0x47F6 SWAP1 POP PUSH1 0x40 DUP8 ADD PUSH2 0x476A JUMP JUMPDEST SWAP1 POP SWAP3 SWAP6 POP SWAP3 SWAP6 SWAP1 SWAP4 POP JUMP JUMPDEST PUSH1 0x0 PUSH1 0x20 DUP3 DUP5 SUB SLT ISZERO PUSH2 0x4814 JUMPI PUSH1 0x0 DUP1 REVERT JUMPDEST PUSH2 0x17E9 DUP3 PUSH2 0x476A JUMP JUMPDEST PUSH1 0x0 DUP1 DUP4 PUSH1 0x1F DUP5 ADD SLT PUSH2 0x482F JUMPI PUSH1 0x0 DUP1 REVERT JUMPDEST POP DUP2 CALLDATALOAD PUSH8 0xFFFFFFFFFFFFFFFF DUP2 GT ISZERO PUSH2 0x4847 JUMPI PUSH1 0x0 DUP1 REVERT JUMPDEST PUSH1 0x20 DUP4 ADD SWAP2 POP DUP4 PUSH1 0x20 DUP3 PUSH1 0x6 SHL DUP6 ADD ADD GT ISZERO PUSH2 0x3A57 JUMPI PUSH1 0x0 DUP1 REVERT JUMPDEST PUSH1 0x0 DUP1 PUSH1 0x20 DUP4 DUP6 SUB SLT ISZERO PUSH2 0x4875 JUMPI PUSH1 0x0 DUP1 REVERT JUMPDEST DUP3 CALLDATALOAD PUSH8 0xFFFFFFFFFFFFFFFF DUP2 GT ISZERO PUSH2 0x488C JUMPI PUSH1 0x0 DUP1 REVERT JUMPDEST PUSH2 0x4898 DUP6 DUP3 DUP7 ADD PUSH2 0x481D JUMP JUMPDEST SWAP1 SWAP7 SWAP1 SWAP6 POP SWAP4 POP POP POP POP JUMP JUMPDEST PUSH1 0x3 DUP2 LT PUSH2 0x370B JUMPI PUSH1 0x0 DUP1 REVERT JUMPDEST PUSH1 0x0 PUSH1 0x20 DUP3 DUP5 SUB SLT ISZERO PUSH2 0x48C3 JUMPI PUSH1 0x0 DUP1 REVERT JUMPDEST DUP2 CALLDATALOAD PUSH2 0x17E9 DUP2 PUSH2 0x48A4 JUMP JUMPDEST PUSH1 0x0 PUSH1 0x20 DUP3 DUP5 SUB SLT ISZERO PUSH2 0x48E0 JUMPI PUSH1 0x0 DUP1 REVERT JUMPDEST POP CALLDATALOAD SWAP2 SWAP1 POP JUMP JUMPDEST PUSH1 0x20 DUP1 DUP3 MSTORE DUP3 MLOAD DUP3 DUP3 ADD DUP2 SWAP1 MSTORE PUSH1 0x0 SWAP2 SWAP1 DUP5 DUP3 ADD SWAP1 PUSH1 0x40 DUP6 ADD SWAP1 DUP5 JUMPDEST DUP2 DUP2 LT ISZERO PUSH2 0x491F JUMPI DUP4 MLOAD DUP4 MSTORE SWAP3 DUP5 ADD SWAP3 SWAP2 DUP5 ADD SWAP2 PUSH1 0x1 ADD PUSH2 0x4903 JUMP JUMPDEST POP SWAP1 SWAP7 SWAP6 POP POP POP POP POP POP JUMP JUMPDEST PUSH1 0x0 DUP1 PUSH1 0x20 DUP4 DUP6 SUB SLT ISZERO PUSH2 0x493E JUMPI PUSH1 0x0 DUP1 REVERT JUMPDEST DUP3 CALLDATALOAD PUSH8 0xFFFFFFFFFFFFFFFF DUP2 GT ISZERO PUSH2 0x4955 JUMPI PUSH1 0x0 DUP1 REVERT JUMPDEST PUSH2 0x4898 DUP6 DUP3 DUP7 ADD PUSH2 0x4728 JUMP JUMPDEST PUSH1 0x0 DUP1 PUSH1 0x40 DUP4 DUP6 SUB SLT ISZERO PUSH2 0x4974 JUMPI PUSH1 0x0 DUP1 REVERT JUMPDEST POP POP DUP1 CALLDATALOAD SWAP3 PUSH1 0x20 SWAP1 SWAP2 ADD CALLDATALOAD SWAP2 POP JUMP JUMPDEST PUSH4 0x4E487B71 PUSH1 0xE0 SHL PUSH1 0x0 MSTORE PUSH1 0x21 PUSH1 0x4 MSTORE PUSH1 0x24 PUSH1 0x0 REVERT JUMPDEST PUSH1 0x4 DUP2 LT PUSH2 0x370B JUMPI PUSH2 0x370B PUSH2 0x4983 JUMP JUMPDEST PUSH2 0x49B2 DUP2 PUSH2 0x4999 JUMP JUMPDEST SWAP1 MSTORE JUMP JUMPDEST PUSH1 0x5 DUP2 LT PUSH2 0x49B2 JUMPI PUSH2 0x49B2 PUSH2 0x4983 JUMP JUMPDEST PUSH1 0x0 JUMPDEST DUP4 DUP2 LT ISZERO PUSH2 0x49E1 JUMPI DUP2 DUP2 ADD MLOAD DUP4 DUP3 ADD MSTORE PUSH1 0x20 ADD PUSH2 0x49C9 JUMP JUMPDEST POP POP PUSH1 0x0 SWAP2 ADD MSTORE JUMP JUMPDEST PUSH1 0x0 DUP2 MLOAD DUP1 DUP5 MSTORE PUSH2 0x4A02 DUP2 PUSH1 0x20 DUP7 ADD PUSH1 0x20 DUP7 ADD PUSH2 0x49C6 JUMP JUMPDEST PUSH1 0x1F ADD PUSH1 0x1F NOT AND SWAP3 SWAP1 SWAP3 ADD PUSH1 0x20 ADD SWAP3 SWAP2 POP POP JUMP JUMPDEST PUSH1 0x20 DUP2 MSTORE DUP2 MLOAD PUSH1 0x20 DUP3 ADD MSTORE PUSH1 0x0 PUSH1 0x20 DUP4 ADD MLOAD PUSH2 0x4A38 PUSH1 0x40 DUP5 ADD DUP3 PUSH2 0xFFFF AND SWAP1 MSTORE JUMP JUMPDEST POP PUSH1 0x40 DUP4 ADD MLOAD PUSH2 0xFFFF DUP2 AND PUSH1 0x60 DUP5 ADD MSTORE POP PUSH1 0x60 DUP4 ADD MLOAD PUSH2 0xFFFF DUP2 AND PUSH1 0x80 DUP5 ADD MSTORE POP PUSH1 0x80 DUP4 ADD MLOAD PUSH2 0xFFFF DUP2 AND PUSH1 0xA0 DUP5 ADD MSTORE POP PUSH1 0xA0 DUP4 ADD MLOAD PUSH2 0x4A7B PUSH1 0xC0 DUP5 ADD DUP3 PUSH2 0x49A9 JUMP JUMPDEST POP PUSH1 0xC0 DUP4 ADD MLOAD PUSH2 0x4A8E PUSH1 0xE0 DUP5 ADD DUP3 PUSH2 0x49B6 JUMP JUMPDEST POP PUSH1 0xE0 DUP4 ADD MLOAD PUSH2 0x100 PUSH2 0x4AA3 DUP2 DUP6 ADD DUP4 PUSH2 0x49A9 JUMP JUMPDEST DUP5 ADD MLOAD PUSH2 0x120 DUP5 DUP2 ADD MSTORE SWAP1 POP PUSH2 0xF9F PUSH2 0x140 DUP5 ADD DUP3 PUSH2 0x49EA JUMP JUMPDEST PUSH4 0x4E487B71 PUSH1 0xE0 SHL PUSH1 0x0 MSTORE PUSH1 0x41 PUSH1 0x4 MSTORE PUSH1 0x24 PUSH1 0x0 REVERT JUMPDEST DUP1 ISZERO ISZERO DUP2 EQ PUSH2 0x370B JUMPI PUSH1 0x0 DUP1 REVERT JUMPDEST DUP1 CALLDATALOAD PUSH2 0xCCF DUP2 PUSH2 0x4AD3 JUMP JUMPDEST PUSH1 0x0 DUP1 PUSH1 0x0 PUSH1 0x60 DUP5 DUP7 SUB SLT ISZERO PUSH2 0x4B01 JUMPI PUSH1 0x0 DUP1 REVERT JUMPDEST PUSH2 0x4B0A DUP5 PUSH2 0x476A JUMP JUMPDEST SWAP3 POP PUSH1 0x20 DUP5 ADD CALLDATALOAD PUSH8 0xFFFFFFFFFFFFFFFF DUP1 DUP3 GT ISZERO PUSH2 0x4B27 JUMPI PUSH1 0x0 DUP1 REVERT JUMPDEST DUP2 DUP7 ADD SWAP2 POP DUP7 PUSH1 0x1F DUP4 ADD SLT PUSH2 0x4B3B JUMPI PUSH1 0x0 DUP1 REVERT JUMPDEST DUP2 CALLDATALOAD DUP2 DUP2 GT ISZERO PUSH2 0x4B4D JUMPI PUSH2 0x4B4D PUSH2 0x4ABD JUMP JUMPDEST PUSH1 0x40 MLOAD PUSH1 0x1F DUP3 ADD PUSH1 0x1F NOT SWAP1 DUP2 AND PUSH1 0x3F ADD AND DUP2 ADD SWAP1 DUP4 DUP3 GT DUP2 DUP4 LT OR ISZERO PUSH2 0x4B75 JUMPI PUSH2 0x4B75 PUSH2 0x4ABD JUMP JUMPDEST DUP2 PUSH1 0x40 MSTORE DUP3 DUP2 MSTORE DUP10 PUSH1 0x20 DUP5 DUP8 ADD ADD GT ISZERO PUSH2 0x4B8E JUMPI PUSH1 0x0 DUP1 REVERT JUMPDEST DUP3 PUSH1 0x20 DUP7 ADD PUSH1 0x20 DUP4 ADD CALLDATACOPY PUSH1 0x0 PUSH1 0x20 DUP5 DUP4 ADD ADD MSTORE DUP1 SWAP7 POP POP POP POP POP POP PUSH2 0x4BB5 PUSH1 0x40 DUP6 ADD PUSH2 0x4AE1 JUMP JUMPDEST SWAP1 POP SWAP3 POP SWAP3 POP SWAP3 JUMP JUMPDEST PUSH1 0x20 DUP2 MSTORE PUSH1 0x0 PUSH2 0x17E9 PUSH1 0x20 DUP4 ADD DUP5 PUSH2 0x49EA JUMP JUMPDEST PUSH1 0x3 DUP2 LT PUSH2 0x370B JUMPI PUSH2 0x370B PUSH2 0x4983 JUMP JUMPDEST PUSH2 0x49B2 DUP2 PUSH2 0x4BD1 JUMP JUMPDEST PUSH1 0x20 DUP2 ADD PUSH2 0x4BF7 DUP4 PUSH2 0x4BD1 JUMP JUMPDEST SWAP2 SWAP1 MSTORE SWAP1 JUMP JUMPDEST PUSH1 0x0 DUP1 DUP4 PUSH1 0x1F DUP5 ADD SLT PUSH2 0x4C0F JUMPI PUSH1 0x0 DUP1 REVERT JUMPDEST POP DUP2 CALLDATALOAD PUSH8 0xFFFFFFFFFFFFFFFF DUP2 GT ISZERO PUSH2 0x4C27 JUMPI PUSH1 0x0 DUP1 REVERT JUMPDEST PUSH1 0x20 DUP4 ADD SWAP2 POP DUP4 PUSH1 0x20 DUP3 PUSH1 0x5 SHL DUP6 ADD ADD GT ISZERO PUSH2 0x3A57 JUMPI PUSH1 0x0 DUP1 REVERT JUMPDEST PUSH1 0x0 DUP1 PUSH1 0x20 DUP4 DUP6 SUB SLT ISZERO PUSH2 0x4C55 JUMPI PUSH1 0x0 DUP1 REVERT JUMPDEST DUP3 CALLDATALOAD PUSH8 0xFFFFFFFFFFFFFFFF DUP2 GT ISZERO PUSH2 0x4C6C JUMPI PUSH1 0x0 DUP1 REVERT JUMPDEST PUSH2 0x4898 DUP6 DUP3 DUP7 ADD PUSH2 0x4BFD JUMP JUMPDEST PUSH1 0x20 DUP2 MSTORE DUP2 MLOAD PUSH1 0x20 DUP3 ADD MSTORE PUSH1 0x0 PUSH1 0x20 DUP4 ADD MLOAD PUSH2 0x120 DUP1 PUSH1 0x40 DUP6 ADD MSTORE PUSH2 0x4CA1 PUSH2 0x140 DUP6 ADD DUP4 PUSH2 0x49EA JUMP JUMPDEST SWAP2 POP PUSH1 0x40 DUP6 ADD MLOAD PUSH1 0x1F NOT DUP6 DUP5 SUB ADD PUSH1 0x60 DUP7 ADD MSTORE PUSH2 0x4CBE DUP4 DUP3 PUSH2 0x49EA JUMP JUMPDEST SWAP3 POP POP PUSH1 0x60 DUP6 ADD MLOAD PUSH2 0x4CDB PUSH1 0x80 DUP7 ADD DUP3 PUSH1 0x1 PUSH1 0x1 PUSH1 0xA0 SHL SUB AND SWAP1 MSTORE JUMP JUMPDEST POP PUSH1 0x80 DUP6 ADD MLOAD PUSH1 0x1 PUSH1 0x1 PUSH1 0xA0 SHL SUB DUP2 AND PUSH1 0xA0 DUP7 ADD MSTORE POP PUSH1 0xA0 DUP6 ADD MLOAD PUSH1 0x1 PUSH1 0x1 PUSH1 0xA0 SHL SUB DUP2 AND PUSH1 0xC0 DUP7 ADD MSTORE POP PUSH1 0xC0 DUP6 ADD MLOAD PUSH2 0xFFFF DUP2 AND PUSH1 0xE0 DUP7 ADD MSTORE POP PUSH1 0xE0 DUP6 ADD MLOAD PUSH2 0x100 PUSH2 0x4D2A DUP2 DUP8 ADD DUP4 PUSH2 0x4BE1 JUMP JUMPDEST DUP7 ADD MLOAD SWAP1 POP PUSH2 0x4D3B DUP6 DUP4 ADD DUP3 PUSH2 0x4BE1 JUMP JUMPDEST POP SWAP1 SWAP5 SWAP4 POP POP POP POP JUMP JUMPDEST PUSH1 0x0 DUP1 PUSH1 0x40 DUP4 DUP6 SUB SLT ISZERO PUSH2 0x4D58 JUMPI PUSH1 0x0 DUP1 REVERT JUMPDEST DUP3 CALLDATALOAD SWAP2 POP PUSH2 0x4D68 PUSH1 0x20 DUP5 ADD PUSH2 0x476A JUMP JUMPDEST SWAP1 POP SWAP3 POP SWAP3 SWAP1 POP JUMP JUMPDEST PUSH1 0x20 DUP1 DUP3 MSTORE PUSH1 0xC SWAP1 DUP3 ADD MSTORE PUSH12 0x125B1B1959D85B0810D85B1B PUSH1 0xA2 SHL PUSH1 0x40 DUP3 ADD MSTORE PUSH1 0x60 ADD SWAP1 JUMP JUMPDEST PUSH1 0x20 DUP1 DUP3 MSTORE PUSH1 0xC SWAP1 DUP3 ADD MSTORE PUSH12 0x125B9D985B1A590810D85B1B PUSH1 0xA2 SHL PUSH1 0x40 DUP3 ADD MSTORE PUSH1 0x60 ADD SWAP1 JUMP JUMPDEST DUP2 DUP4 MSTORE DUP2 DUP2 PUSH1 0x20 DUP6 ADD CALLDATACOPY POP PUSH1 0x0 DUP3 DUP3 ADD PUSH1 0x20 SWAP1 DUP2 ADD SWAP2 SWAP1 SWAP2 MSTORE PUSH1 0x1F SWAP1 SWAP2 ADD PUSH1 0x1F NOT AND SWAP1 SWAP2 ADD ADD SWAP1 JUMP JUMPDEST PUSH1 0x60 DUP2 MSTORE PUSH1 0x0 PUSH2 0x4DFA PUSH1 0x60 DUP4 ADD DUP8 DUP10 PUSH2 0x4DBD JUMP JUMPDEST DUP3 DUP2 SUB PUSH1 0x20 DUP5 ADD MSTORE PUSH2 0x4E0D DUP2 DUP7 DUP9 PUSH2 0x4DBD JUMP JUMPDEST SWAP2 POP POP PUSH2 0xFFFF DUP4 AND PUSH1 0x40 DUP4 ADD MSTORE SWAP7 SWAP6 POP POP POP POP POP POP JUMP JUMPDEST PUSH1 0x20 DUP1 DUP3 MSTORE PUSH1 0x8 SWAP1 DUP3 ADD MSTORE PUSH8 0x14995A9958DD1959 PUSH1 0xC2 SHL PUSH1 0x40 DUP3 ADD MSTORE PUSH1 0x60 ADD SWAP1 JUMP JUMPDEST PUSH1 0x20 DUP1 DUP3 MSTORE PUSH1 0x9 SWAP1 DUP3 ADD MSTORE PUSH9 0x2337B93134B23232B7 PUSH1 0xB9 SHL PUSH1 0x40 DUP3 ADD MSTORE PUSH1 0x60 ADD SWAP1 JUMP JUMPDEST PUSH1 0x0 PUSH1 0x20 DUP3 DUP5 SUB SLT ISZERO PUSH2 0x4E7B JUMPI PUSH1 0x0 DUP1 REVERT JUMPDEST DUP2 MLOAD PUSH2 0x17E9 DUP2 PUSH2 0x4AD3 JUMP JUMPDEST PUSH4 0x4E487B71 PUSH1 0xE0 SHL PUSH1 0x0 MSTORE PUSH1 0x32 PUSH1 0x4 MSTORE PUSH1 0x24 PUSH1 0x0 REVERT JUMPDEST PUSH1 0x0 PUSH1 0x20 DUP3 DUP5 SUB SLT ISZERO PUSH2 0x4EAE JUMPI PUSH1 0x0 DUP1 REVERT JUMPDEST DUP2 CALLDATALOAD PUSH1 0x5 DUP2 LT PUSH2 0x17E9 JUMPI PUSH1 0x0 DUP1 REVERT JUMPDEST PUSH4 0x4E487B71 PUSH1 0xE0 SHL PUSH1 0x0 MSTORE PUSH1 0x11 PUSH1 0x4 MSTORE PUSH1 0x24 PUSH1 0x0 REVERT JUMPDEST PUSH1 0x0 PUSH1 0x1 DUP3 ADD PUSH2 0x4EE5 JUMPI PUSH2 0x4EE5 PUSH2 0x4EBD JUMP JUMPDEST POP PUSH1 0x1 ADD SWAP1 JUMP JUMPDEST PUSH1 0x1 DUP2 DUP2 SHR SWAP1 DUP3 AND DUP1 PUSH2 0x4F00 JUMPI PUSH1 0x7F DUP3 AND SWAP2 POP JUMPDEST PUSH1 0x20 DUP3 LT DUP2 SUB PUSH2 0x4F20 JUMPI PUSH4 0x4E487B71 PUSH1 0xE0 SHL PUSH1 0x0 MSTORE PUSH1 0x22 PUSH1 0x4 MSTORE PUSH1 0x24 PUSH1 0x0 REVERT JUMPDEST POP SWAP2 SWAP1 POP JUMP JUMPDEST PUSH1 0x0 PUSH1 0x20 DUP3 DUP5 SUB SLT ISZERO PUSH2 0x4F38 JUMPI PUSH1 0x0 DUP1 REVERT JUMPDEST DUP2 CALLDATALOAD PUSH2 0xFFFF DUP2 AND DUP2 EQ PUSH2 0x17E9 JUMPI PUSH1 0x0 DUP1 REVERT JUMPDEST PUSH1 0x0 PUSH1 0x20 DUP3 DUP5 SUB SLT ISZERO PUSH2 0x4F5C JUMPI PUSH1 0x0 DUP1 REVERT JUMPDEST DUP2 CALLDATALOAD PUSH1 0x4 DUP2 LT PUSH2 0x17E9 JUMPI PUSH1 0x0 DUP1 REVERT JUMPDEST PUSH1 0x20 DUP2 ADD PUSH2 0x4BF7 DUP4 PUSH2 0x4999 JUMP JUMPDEST PUSH1 0x0 DUP3 CALLDATALOAD PUSH1 0xBE NOT DUP4 CALLDATASIZE SUB ADD DUP2 SLT PUSH2 0x4F8E JUMPI PUSH1 0x0 DUP1 REVERT JUMPDEST SWAP2 SWAP1 SWAP2 ADD SWAP3 SWAP2 POP POP JUMP JUMPDEST PUSH1 0x0 DUP1 DUP4 CALLDATALOAD PUSH1 0x1E NOT DUP5 CALLDATASIZE SUB ADD DUP2 SLT PUSH2 0x4FAF JUMPI PUSH1 0x0 DUP1 REVERT JUMPDEST DUP4 ADD DUP1 CALLDATALOAD SWAP2 POP PUSH8 0xFFFFFFFFFFFFFFFF DUP3 GT ISZERO PUSH2 0x4FCA JUMPI PUSH1 0x0 DUP1 REVERT JUMPDEST PUSH1 0x20 ADD SWAP2 POP CALLDATASIZE DUP2 SWAP1 SUB DUP3 SGT ISZERO PUSH2 0x3A57 JUMPI PUSH1 0x0 DUP1 REVERT JUMPDEST PUSH1 0x1F DUP3 GT ISZERO PUSH2 0x5025 JUMPI PUSH1 0x0 DUP2 DUP2 MSTORE PUSH1 0x20 DUP2 KECCAK256 PUSH1 0x1F DUP6 ADD PUSH1 0x5 SHR DUP2 ADD PUSH1 0x20 DUP7 LT ISZERO PUSH2 0x5006 JUMPI POP DUP1 JUMPDEST PUSH1 0x1F DUP6 ADD PUSH1 0x5 SHR DUP3 ADD SWAP2 POP JUMPDEST DUP2 DUP2 LT ISZERO PUSH2 0x9B3 JUMPI DUP3 DUP2 SSTORE PUSH1 0x1 ADD PUSH2 0x5012 JUMP JUMPDEST POP POP POP JUMP JUMPDEST PUSH8 0xFFFFFFFFFFFFFFFF DUP4 GT ISZERO PUSH2 0x5042 JUMPI PUSH2 0x5042 PUSH2 0x4ABD JUMP JUMPDEST PUSH2 0x5056 DUP4 PUSH2 0x5050 DUP4 SLOAD PUSH2 0x4EEC JUMP JUMPDEST DUP4 PUSH2 0x4FDF JUMP JUMPDEST PUSH1 0x0 PUSH1 0x1F DUP5 GT PUSH1 0x1 DUP2 EQ PUSH2 0x508A JUMPI PUSH1 0x0 DUP6 ISZERO PUSH2 0x5072 JUMPI POP DUP4 DUP3 ADD CALLDATALOAD JUMPDEST PUSH1 0x0 NOT PUSH1 0x3 DUP8 SWAP1 SHL SHR NOT AND PUSH1 0x1 DUP7 SWAP1 SHL OR DUP4 SSTORE PUSH2 0x2D36 JUMP JUMPDEST PUSH1 0x0 DUP4 DUP2 MSTORE PUSH1 0x20 SWAP1 KECCAK256 PUSH1 0x1F NOT DUP7 AND SWAP1 DUP4 JUMPDEST DUP3 DUP2 LT ISZERO PUSH2 0x50BB JUMPI DUP7 DUP6 ADD CALLDATALOAD DUP3 SSTORE PUSH1 0x20 SWAP5 DUP6 ADD SWAP5 PUSH1 0x1 SWAP1 SWAP3 ADD SWAP2 ADD PUSH2 0x509B JUMP JUMPDEST POP DUP7 DUP3 LT ISZERO PUSH2 0x50D8 JUMPI PUSH1 0x0 NOT PUSH1 0xF8 DUP9 PUSH1 0x3 SHL AND SHR NOT DUP5 DUP8 ADD CALLDATALOAD AND DUP2 SSTORE JUMPDEST POP POP PUSH1 0x1 DUP6 PUSH1 0x1 SHL ADD DUP4 SSTORE POP POP POP POP POP JUMP JUMPDEST DUP2 DUP2 SUB DUP2 DUP2 GT ISZERO PUSH2 0x77E JUMPI PUSH2 0x77E PUSH2 0x4EBD JUMP JUMPDEST PUSH1 0x1 PUSH1 0x1 PUSH1 0xA0 SHL SUB SWAP4 SWAP1 SWAP4 AND DUP4 MSTORE PUSH1 0x1 PUSH1 0x1 PUSH1 0xE0 SHL SUB NOT SWAP2 SWAP1 SWAP2 AND PUSH1 0x20 DUP4 ADD MSTORE PUSH1 0x40 DUP3 ADD MSTORE PUSH1 0x60 ADD SWAP1 JUMP JUMPDEST PUSH1 0x0 PUSH1 0x20 DUP3 DUP5 SUB SLT ISZERO PUSH2 0x513A JUMPI PUSH1 0x0 DUP1 REVERT JUMPDEST DUP2 MLOAD PUSH2 0x17E9 DUP2 PUSH2 0x48A4 JUMP JUMPDEST DUP2 DUP4 DUP3 CALLDATACOPY PUSH1 0x0 SWAP2 ADD SWAP1 DUP2 MSTORE SWAP2 SWAP1 POP JUMP JUMPDEST PUSH2 0xFFFF DUP2 DUP2 AND DUP4 DUP3 AND ADD SWAP1 DUP1 DUP3 GT ISZERO PUSH2 0x1892 JUMPI PUSH2 0x1892 PUSH2 0x4EBD JUMP JUMPDEST PUSH1 0x0 PUSH1 0x20 DUP3 DUP5 SUB SLT ISZERO PUSH2 0x5182 JUMPI PUSH1 0x0 DUP1 REVERT JUMPDEST POP MLOAD SWAP2 SWAP1 POP JUMP JUMPDEST PUSH1 0x0 DUP1 DUP4 SLOAD PUSH2 0x5197 DUP2 PUSH2 0x4EEC JUMP JUMPDEST PUSH1 0x1 DUP3 DUP2 AND DUP1 ISZERO PUSH2 0x51AF JUMPI PUSH1 0x1 DUP2 EQ PUSH2 0x51C4 JUMPI PUSH2 0x51F3 JUMP JUMPDEST PUSH1 0xFF NOT DUP5 AND DUP8 MSTORE DUP3 ISZERO ISZERO DUP4 MUL DUP8 ADD SWAP5 POP PUSH2 0x51F3 JUMP JUMPDEST DUP8 PUSH1 0x0 MSTORE PUSH1 0x20 DUP1 PUSH1 0x0 KECCAK256 PUSH1 0x0 JUMPDEST DUP6 DUP2 LT ISZERO PUSH2 0x51EA JUMPI DUP2 SLOAD DUP11 DUP3 ADD MSTORE SWAP1 DUP5 ADD SWAP1 DUP3 ADD PUSH2 0x51D1 JUMP JUMPDEST POP POP POP DUP3 DUP8 ADD SWAP5 POP JUMPDEST POP SWAP3 SWAP7 SWAP6 POP POP POP POP POP POP JUMP JUMPDEST PUSH1 0x0 DUP3 MLOAD PUSH2 0x4F8E DUP2 DUP5 PUSH1 0x20 DUP8 ADD PUSH2 0x49C6 JUMP INVALID 0x4C 0x49 JUMP GASLIMIT 0x4C MSIZE 0x5F JUMP GASLIMIT MSTORE MSTORE8 GASLIMIT 0x5F 0x4C 0x49 JUMP GASLIMIT 0x4C MSIZE 0x5F SELFBALANCE 0x4C 0x4F TIMESTAMP COINBASE 0x4C 0x5F MSTORE8 NUMBER 0x4F POP GASLIMIT CALLDATASIZE ADDMOD SWAP5 LOG1 EXTCODESIZE LOG1 LOG3 0x21 MOD PUSH8 0xC828492DB98DCA3E KECCAK256 PUSH23 0xCC3735A920A3CA505D382BBCA264697066735822122010 0xA6 PUSH9 0xC00463C19D616DA187 GASLIMIT EXTCODECOPY 0xBF SWAP9 REVERT DUP1 0xD0 0xF6 PUSH30 0xC2920CB75719231469793264736F6C63430008110033B53127684A568B31 PUSH20 0xAE13B9F8A6016E243E63B6E8EE1178D6A717850B 0x5D PUSH2 0x300 "
    },
    "gasEstimates": {
      "creation": {
        "codeDepositCost": "4225400",
        "executionCost": "infinite",
        "totalCost": "infinite"
      },
      "external": {
        "": "208",
        "CTX_MESSAGE_TYPEHASH()": "241",
        "FUNCTION_MESSAGE_TYPEHASH()": "328",
        "PREDICT_CTX_MESSAGE_TYPEHASH()": "306",
        "TYPE_HASH()": "329",
        "accessControlManager()": "2376",
        "contractName()": "infinite",
        "contractVersion()": "infinite",
        "domainCheckAdmin(bytes32,address)": "infinite",
        "domainCheckId(bytes32)": "2632",
        "domainCheckName(string)": "infinite",
        "domainDeleteActivity(bytes32[])": "631",
        "domainGetInfo(bytes32)": "infinite",
        "domainGetRealms(bytes32)": "infinite",
        "domainHasContext(bytes32,bytes32)": "infinite",
        "domainHasFunction(bytes32,bytes32)": "infinite",
        "domainHasRealm(bytes32,bytes32)": "5059",
        "domainRegister((bytes32,uint16,uint16,uint8,uint8,string)[])": "infinite",
        "domainSeparator()": "infinite",
        "domainUpdateActivityStatus((bytes32,uint8)[])": "infinite",
        "domainUpdateAdmin((bytes32,bytes32)[])": "infinite",
        "domainUpdateAgentLimit((bytes32,uint16)[])": "infinite",
        "domainUpdateAlterabilityStatus((bytes32,uint8)[])": "infinite",
        "domainUpdateRealmLimit((bytes32,uint16)[])": "infinite",
        "initVersion()": "2413",
        "initialize(string,string,address)": "infinite",
        "localAdmin()": "2511",
        "proxiableUUID()": "infinite",
        "proxyInfo()": "infinite",
        "safeModeStatus()": "2492",
        "setAccessControlManager(address)": "infinite",
        "setLocalAdmin(address)": "infinite",
        "setSafeModeStatus(uint8)": "infinite",
        "setUpgradabilityStatus(uint8)": "infinite",
        "subjectAddress()": "infinite",
        "supportsInterface(bytes4)": "infinite",
        "upgradabilityStatus()": "2523",
        "upgradeTo(address,bytes,bool)": "infinite",
        "withdrawBalance(address)": "infinite"
      },
      "internal": {
        "_accessPermission(bytes4)": "infinite",
        "_doAgentGetScopeInfo(bytes32)": "infinite",
        "_doCheckAdminAccess(bytes32,bytes32,bytes32)": "infinite",
        "_doDomainUpdateActivityStatus(bytes32,enum IACLCommons.ActivityStatus,bytes32)": "infinite",
        "_doGetEntityAndCheckAdminAccess(bytes32,bytes32,bytes32,bool)": "infinite",
        "_doGetMemberScopeInfoFromType(bytes32,bytes32)": "infinite",
        "_doRoleHasMember(bytes32,bytes32)": "infinite",
        "_doUpdateAgentReferred(struct IACLCommons.BaseAgent storage pointer,bytes32,bytes32,address,enum IACLCommons.ActionType)": "infinite"
      }
    },
    "methodIdentifiers": {
      "CTX_MESSAGE_TYPEHASH()": "34109de2",
      "FUNCTION_MESSAGE_TYPEHASH()": "f33b6d48",
      "PREDICT_CTX_MESSAGE_TYPEHASH()": "f0b15def",
      "TYPE_HASH()": "64d4c819",
      "accessControlManager()": "b4a0bdf3",
      "contractName()": "75d0c0dc",
      "contractVersion()": "a0a8e460",
      "domainCheckAdmin(bytes32,address)": "df4a69c3",
      "domainCheckId(bytes32)": "8b2b1280",
      "domainCheckName(string)": "51f1d2ff",
      "domainDeleteActivity(bytes32[])": "b5fd948d",
      "domainGetInfo(bytes32)": "6ea5d24d",
      "domainGetRealms(bytes32)": "476f6362",
      "domainHasContext(bytes32,bytes32)": "ba313afc",
      "domainHasFunction(bytes32,bytes32)": "5ed3fd9e",
      "domainHasRealm(bytes32,bytes32)": "994ae65c",
      "domainRegister((bytes32,uint16,uint16,uint8,uint8,string)[])": "da10e6a8",
      "domainSeparator()": "f698da25",
      "domainUpdateActivityStatus((bytes32,uint8)[])": "11623480",
      "domainUpdateAdmin((bytes32,bytes32)[])": "61bffd28",
      "domainUpdateAgentLimit((bytes32,uint16)[])": "8d126c39",
      "domainUpdateAlterabilityStatus((bytes32,uint8)[])": "c7df2add",
      "domainUpdateRealmLimit((bytes32,uint16)[])": "f3d5f2e5",
      "initVersion()": "38d38c97",
      "initialize(string,string,address)": "077f224a",
      "localAdmin()": "f94a0adb",
      "proxiableUUID()": "52d1902d",
      "proxyInfo()": "d49e164d",
      "safeModeStatus()": "a304e353",
      "setAccessControlManager(address)": "0e32cb86",
      "setLocalAdmin(address)": "d9dc1f19",
      "setSafeModeStatus(uint8)": "f708ceb0",
      "setUpgradabilityStatus(uint8)": "399d6e38",
      "subjectAddress()": "58dbc45d",
      "supportsInterface(bytes4)": "01ffc9a7",
      "upgradabilityStatus()": "fbad3684",
      "upgradeTo(address,bytes,bool)": "7147855d",
      "withdrawBalance(address)": "756af45f"
    }
  },
  "storageLayout": {
    "storage": [
      {
        "astId": 43592,
        "contract": "src/contracts/acl/scope/DomainManager.sol:DomainManager",
        "label": "_contractName",
        "offset": 0,
        "slot": "0",
        "type": "t_string_storage"
      },
      {
        "astId": 43594,
        "contract": "src/contracts/acl/scope/DomainManager.sol:DomainManager",
        "label": "_contractVersion",
        "offset": 0,
        "slot": "1",
        "type": "t_string_storage"
      },
      {
        "astId": 43596,
        "contract": "src/contracts/acl/scope/DomainManager.sol:DomainManager",
        "label": "_accessControlManager",
        "offset": 0,
        "slot": "2",
        "type": "t_address"
      },
      {
        "astId": 43599,
        "contract": "src/contracts/acl/scope/DomainManager.sol:DomainManager",
        "label": "_sstat",
        "offset": 20,
        "slot": "2",
        "type": "t_enum(ProxySafeModeStatus)43615"
      },
      {
        "astId": 43602,
        "contract": "src/contracts/acl/scope/DomainManager.sol:DomainManager",
        "label": "_ustat",
        "offset": 21,
        "slot": "2",
        "type": "t_enum(ProxyUpgradabilityStatus)43619"
      },
      {
        "astId": 43607,
        "contract": "src/contracts/acl/scope/DomainManager.sol:DomainManager",
        "label": "__reserved",
        "offset": 0,
        "slot": "3",
        "type": "t_array(t_uint256)64_storage"
      },
      {
        "astId": 11452,
        "contract": "src/contracts/acl/scope/DomainManager.sol:DomainManager",
        "label": "_firstInit",
        "offset": 0,
        "slot": "67",
        "type": "t_bool"
      },
      {
        "astId": 11455,
        "contract": "src/contracts/acl/scope/DomainManager.sol:DomainManager",
        "label": "_data",
        "offset": 0,
        "slot": "68",
        "type": "t_struct(DataCollection)11450_storage"
      },
      {
        "astId": 43824,
        "contract": "src/contracts/acl/scope/DomainManager.sol:DomainManager",
        "label": "_initialized",
        "offset": 0,
        "slot": "76",
        "type": "t_uint16"
      },
      {
        "astId": 43827,
        "contract": "src/contracts/acl/scope/DomainManager.sol:DomainManager",
        "label": "_initializing",
        "offset": 2,
        "slot": "76",
        "type": "t_bool"
      }
    ],
    "types": {
      "t_address": {
        "encoding": "inplace",
        "label": "address",
        "numberOfBytes": "20"
      },
      "t_array(t_bytes32)dyn_storage": {
        "base": "t_bytes32",
        "encoding": "dynamic_array",
        "label": "bytes32[]",
        "numberOfBytes": "32"
      },
      "t_array(t_uint256)64_storage": {
        "base": "t_uint256",
        "encoding": "inplace",
        "label": "uint256[64]",
        "numberOfBytes": "2048"
      },
      "t_bool": {
        "encoding": "inplace",
        "label": "bool",
        "numberOfBytes": "1"
      },
      "t_bytes32": {
        "encoding": "inplace",
        "label": "bytes32",
        "numberOfBytes": "32"
      },
      "t_bytes4": {
        "encoding": "inplace",
        "label": "bytes4",
        "numberOfBytes": "4"
      },
      "t_enum(ActivityStatus)12972": {
        "encoding": "inplace",
        "label": "enum IACLCommons.ActivityStatus",
        "numberOfBytes": "1"
      },
      "t_enum(AgentType)12966": {
        "encoding": "inplace",
        "label": "enum IACLCommons.AgentType",
        "numberOfBytes": "1"
      },
      "t_enum(AlterabilityStatus)12977": {
        "encoding": "inplace",
        "label": "enum IACLCommons.AlterabilityStatus",
        "numberOfBytes": "1"
      },
      "t_enum(PolicyType)12995": {
        "encoding": "inplace",
        "label": "enum IACLCommons.PolicyType",
        "numberOfBytes": "1"
      },
      "t_enum(ProxySafeModeStatus)43615": {
        "encoding": "inplace",
        "label": "enum IBaseProxy.ProxySafeModeStatus",
        "numberOfBytes": "1"
      },
      "t_enum(ProxyUpgradabilityStatus)43619": {
        "encoding": "inplace",
        "label": "enum IBaseProxy.ProxyUpgradabilityStatus",
        "numberOfBytes": "1"
      },
      "t_enum(ScopeType)12984": {
        "encoding": "inplace",
        "label": "enum IACLCommons.ScopeType",
        "numberOfBytes": "1"
      },
      "t_mapping(t_address,t_struct(FacetEntity)13161_storage)": {
        "encoding": "mapping",
        "key": "t_address",
        "label": "mapping(address => struct IACLCommons.FacetEntity)",
        "numberOfBytes": "32",
        "value": "t_struct(FacetEntity)13161_storage"
      },
      "t_mapping(t_bytes32,t_bytes32)": {
        "encoding": "mapping",
        "key": "t_bytes32",
        "label": "mapping(bytes32 => bytes32)",
        "numberOfBytes": "32",
        "value": "t_bytes32"
      },
      "t_mapping(t_bytes32,t_struct(BaseAgent)13013_storage)": {
        "encoding": "mapping",
        "key": "t_bytes32",
        "label": "mapping(bytes32 => struct IACLCommons.BaseAgent)",
        "numberOfBytes": "32",
        "value": "t_struct(BaseAgent)13013_storage"
      },
      "t_mapping(t_bytes32,t_struct(BaseScope)13031_storage)": {
        "encoding": "mapping",
        "key": "t_bytes32",
        "label": "mapping(bytes32 => struct IACLCommons.BaseScope)",
        "numberOfBytes": "32",
        "value": "t_struct(BaseScope)13031_storage"
      },
      "t_mapping(t_bytes32,t_struct(PolicyEntity)13054_storage)": {
        "encoding": "mapping",
        "key": "t_bytes32",
        "label": "mapping(bytes32 => struct IACLCommons.PolicyEntity)",
        "numberOfBytes": "32",
        "value": "t_struct(PolicyEntity)13054_storage"
      },
      "t_mapping(t_bytes32,t_uint256)": {
        "encoding": "mapping",
        "key": "t_bytes32",
        "label": "mapping(bytes32 => uint256)",
        "numberOfBytes": "32",
        "value": "t_uint256"
      },
      "t_mapping(t_bytes4,t_address)": {
        "encoding": "mapping",
        "key": "t_bytes4",
        "label": "mapping(bytes4 => address)",
        "numberOfBytes": "32",
        "value": "t_address"
      },
      "t_string_storage": {
        "encoding": "bytes",
        "label": "string",
        "numberOfBytes": "32"
      },
      "t_struct(AddressSet)42130_storage": {
        "encoding": "inplace",
        "label": "struct LEnumerableSet.AddressSet",
        "members": [
          {
            "astId": 42129,
            "contract": "src/contracts/acl/scope/DomainManager.sol:DomainManager",
            "label": "_inner",
            "offset": 0,
            "slot": "0",
            "type": "t_struct(Set)41829_storage"
          }
        ],
        "numberOfBytes": "64"
      },
      "t_struct(BaseAgent)13013_storage": {
        "encoding": "inplace",
        "label": "struct IACLCommons.BaseAgent",
        "members": [
          {
            "astId": 12997,
            "contract": "src/contracts/acl/scope/DomainManager.sol:DomainManager",
            "label": "adminId",
            "offset": 0,
            "slot": "0",
            "type": "t_bytes32"
          },
          {
            "astId": 13000,
            "contract": "src/contracts/acl/scope/DomainManager.sol:DomainManager",
            "label": "atype",
            "offset": 0,
            "slot": "1",
            "type": "t_enum(AgentType)12966"
          },
          {
            "astId": 13003,
            "contract": "src/contracts/acl/scope/DomainManager.sol:DomainManager",
            "label": "acstat",
            "offset": 1,
            "slot": "1",
            "type": "t_enum(ActivityStatus)12972"
          },
          {
            "astId": 13006,
            "contract": "src/contracts/acl/scope/DomainManager.sol:DomainManager",
            "label": "alstat",
            "offset": 2,
            "slot": "1",
            "type": "t_enum(AlterabilityStatus)12977"
          },
          {
            "astId": 13008,
            "contract": "src/contracts/acl/scope/DomainManager.sol:DomainManager",
            "label": "referredByScope",
            "offset": 3,
            "slot": "1",
            "type": "t_uint16"
          },
          {
            "astId": 13010,
            "contract": "src/contracts/acl/scope/DomainManager.sol:DomainManager",
            "label": "referredByPolicy",
            "offset": 5,
            "slot": "1",
            "type": "t_uint16"
          },
          {
            "astId": 13012,
            "contract": "src/contracts/acl/scope/DomainManager.sol:DomainManager",
            "label": "scopeLimit",
            "offset": 7,
            "slot": "1",
            "type": "t_uint16"
          }
        ],
        "numberOfBytes": "64"
      },
      "t_struct(BaseScope)13031_storage": {
        "encoding": "inplace",
        "label": "struct IACLCommons.BaseScope",
        "members": [
          {
            "astId": 13015,
            "contract": "src/contracts/acl/scope/DomainManager.sol:DomainManager",
            "label": "adminId",
            "offset": 0,
            "slot": "0",
            "type": "t_bytes32"
          },
          {
            "astId": 13018,
            "contract": "src/contracts/acl/scope/DomainManager.sol:DomainManager",
            "label": "stype",
            "offset": 0,
            "slot": "1",
            "type": "t_enum(ScopeType)12984"
          },
          {
            "astId": 13021,
            "contract": "src/contracts/acl/scope/DomainManager.sol:DomainManager",
            "label": "acstat",
            "offset": 1,
            "slot": "1",
            "type": "t_enum(ActivityStatus)12972"
          },
          {
            "astId": 13024,
            "contract": "src/contracts/acl/scope/DomainManager.sol:DomainManager",
            "label": "alstat",
            "offset": 2,
            "slot": "1",
            "type": "t_enum(AlterabilityStatus)12977"
          },
          {
            "astId": 13026,
            "contract": "src/contracts/acl/scope/DomainManager.sol:DomainManager",
            "label": "referredByAgent",
            "offset": 3,
            "slot": "1",
            "type": "t_uint16"
          },
          {
            "astId": 13028,
            "contract": "src/contracts/acl/scope/DomainManager.sol:DomainManager",
            "label": "referredByPolicy",
            "offset": 5,
            "slot": "1",
            "type": "t_uint16"
          },
          {
            "astId": 13030,
            "contract": "src/contracts/acl/scope/DomainManager.sol:DomainManager",
            "label": "agentLimit",
            "offset": 7,
            "slot": "1",
            "type": "t_uint16"
          }
        ],
        "numberOfBytes": "64"
      },
      "t_struct(Bytes32Set)42023_storage": {
        "encoding": "inplace",
        "label": "struct LEnumerableSet.Bytes32Set",
        "members": [
          {
            "astId": 42022,
            "contract": "src/contracts/acl/scope/DomainManager.sol:DomainManager",
            "label": "_inner",
            "offset": 0,
            "slot": "0",
            "type": "t_struct(Set)41829_storage"
          }
        ],
        "numberOfBytes": "64"
      },
      "t_struct(DataCollection)11450_storage": {
        "encoding": "inplace",
        "label": "struct ACLStorage.DataCollection",
        "members": [
          {
            "astId": 11423,
            "contract": "src/contracts/acl/scope/DomainManager.sol:DomainManager",
            "label": "agents",
            "offset": 0,
            "slot": "0",
            "type": "t_mapping(t_bytes32,t_struct(BaseAgent)13013_storage)"
          },
          {
            "astId": 11428,
            "contract": "src/contracts/acl/scope/DomainManager.sol:DomainManager",
            "label": "scopes",
            "offset": 0,
            "slot": "1",
            "type": "t_mapping(t_bytes32,t_struct(BaseScope)13031_storage)"
          },
          {
            "astId": 11433,
            "contract": "src/contracts/acl/scope/DomainManager.sol:DomainManager",
            "label": "policies",
            "offset": 0,
            "slot": "2",
            "type": "t_mapping(t_bytes32,t_struct(PolicyEntity)13054_storage)"
          },
          {
            "astId": 11437,
            "contract": "src/contracts/acl/scope/DomainManager.sol:DomainManager",
            "label": "rolePolicyMap",
            "offset": 0,
            "slot": "3",
            "type": "t_mapping(t_bytes32,t_bytes32)"
          },
          {
            "astId": 11441,
            "contract": "src/contracts/acl/scope/DomainManager.sol:DomainManager",
            "label": "selectors",
            "offset": 0,
            "slot": "4",
            "type": "t_mapping(t_bytes4,t_address)"
          },
          {
            "astId": 11446,
            "contract": "src/contracts/acl/scope/DomainManager.sol:DomainManager",
            "label": "facets",
            "offset": 0,
            "slot": "5",
            "type": "t_mapping(t_address,t_struct(FacetEntity)13161_storage)"
          },
          {
            "astId": 11449,
            "contract": "src/contracts/acl/scope/DomainManager.sol:DomainManager",
            "label": "facetSet",
            "offset": 0,
            "slot": "6",
            "type": "t_struct(AddressSet)42130_storage"
          }
        ],
        "numberOfBytes": "256"
      },
      "t_struct(FacetEntity)13161_storage": {
        "encoding": "inplace",
        "label": "struct IACLCommons.FacetEntity",
        "members": [
          {
            "astId": 13158,
            "contract": "src/contracts/acl/scope/DomainManager.sol:DomainManager",
            "label": "subjectId",
            "offset": 0,
            "slot": "0",
            "type": "t_address"
          },
          {
            "astId": 13160,
            "contract": "src/contracts/acl/scope/DomainManager.sol:DomainManager",
            "label": "interfaceId",
            "offset": 20,
            "slot": "0",
            "type": "t_bytes4"
          }
        ],
        "numberOfBytes": "32"
      },
      "t_struct(PolicyEntity)13054_storage": {
        "encoding": "inplace",
        "label": "struct IACLCommons.PolicyEntity",
        "members": [
          {
            "astId": 13033,
            "contract": "src/contracts/acl/scope/DomainManager.sol:DomainManager",
            "label": "adminId",
            "offset": 0,
            "slot": "0",
            "type": "t_bytes32"
          },
          {
            "astId": 13035,
            "contract": "src/contracts/acl/scope/DomainManager.sol:DomainManager",
            "label": "scopeId",
            "offset": 0,
            "slot": "1",
            "type": "t_bytes32"
          },
          {
            "astId": 13037,
            "contract": "src/contracts/acl/scope/DomainManager.sol:DomainManager",
            "label": "name",
            "offset": 0,
            "slot": "2",
            "type": "t_string_storage"
          },
          {
            "astId": 13039,
            "contract": "src/contracts/acl/scope/DomainManager.sol:DomainManager",
            "label": "roleLimit",
            "offset": 0,
            "slot": "3",
            "type": "t_uint32"
          },
          {
            "astId": 13041,
            "contract": "src/contracts/acl/scope/DomainManager.sol:DomainManager",
            "label": "policyCode",
            "offset": 4,
            "slot": "3",
            "type": "t_uint8"
          },
          {
            "astId": 13044,
            "contract": "src/contracts/acl/scope/DomainManager.sol:DomainManager",
            "label": "ptype",
            "offset": 5,
            "slot": "3",
            "type": "t_enum(PolicyType)12995"
          },
          {
            "astId": 13047,
            "contract": "src/contracts/acl/scope/DomainManager.sol:DomainManager",
            "label": "acstat",
            "offset": 6,
            "slot": "3",
            "type": "t_enum(ActivityStatus)12972"
          },
          {
            "astId": 13050,
            "contract": "src/contracts/acl/scope/DomainManager.sol:DomainManager",
            "label": "alstat",
            "offset": 7,
            "slot": "3",
            "type": "t_enum(AlterabilityStatus)12977"
          },
          {
            "astId": 13053,
            "contract": "src/contracts/acl/scope/DomainManager.sol:DomainManager",
            "label": "roles",
            "offset": 0,
            "slot": "4",
            "type": "t_struct(Bytes32Set)42023_storage"
          }
        ],
        "numberOfBytes": "192"
      },
      "t_struct(Set)41829_storage": {
        "encoding": "inplace",
        "label": "struct LEnumerableSet.Set",
        "members": [
          {
            "astId": 41824,
            "contract": "src/contracts/acl/scope/DomainManager.sol:DomainManager",
            "label": "_values",
            "offset": 0,
            "slot": "0",
            "type": "t_array(t_bytes32)dyn_storage"
          },
          {
            "astId": 41828,
            "contract": "src/contracts/acl/scope/DomainManager.sol:DomainManager",
            "label": "_indexes",
            "offset": 0,
            "slot": "1",
            "type": "t_mapping(t_bytes32,t_uint256)"
          }
        ],
        "numberOfBytes": "64"
      },
      "t_uint16": {
        "encoding": "inplace",
        "label": "uint16",
        "numberOfBytes": "2"
      },
      "t_uint256": {
        "encoding": "inplace",
        "label": "uint256",
        "numberOfBytes": "32"
      },
      "t_uint32": {
        "encoding": "inplace",
        "label": "uint32",
        "numberOfBytes": "4"
      },
      "t_uint8": {
        "encoding": "inplace",
        "label": "uint8",
        "numberOfBytes": "1"
      }
    }
  },
  "userdoc": {
    "kind": "user",
    "methods": {},
    "version": 1
  }
}