{
  "contractName": "ACLManager",
  "sourceName": "src/contracts/acl/ACLManagement.sol",
  "abi": [
    {
      "inputs": [],
      "stateMutability": "nonpayable",
      "type": "constructor"
    },
    {
      "anonymous": false,
      "inputs": [
        {
          "indexed": true,
          "internalType": "address",
          "name": "sender",
          "type": "address"
        },
        {
          "indexed": true,
          "internalType": "address",
          "name": "proxy",
          "type": "address"
        },
        {
          "indexed": true,
          "internalType": "bytes32",
          "name": "realm",
          "type": "bytes32"
        },
        {
          "indexed": false,
          "internalType": "bool",
          "name": "value",
          "type": "bool"
        }
      ],
      "name": "ActivityChanged",
      "type": "event"
    },
    {
      "anonymous": false,
      "inputs": [
        {
          "indexed": false,
          "internalType": "uint16",
          "name": "version",
          "type": "uint16"
        }
      ],
      "name": "Initialized",
      "type": "event"
    },
    {
      "anonymous": false,
      "inputs": [
        {
          "indexed": true,
          "internalType": "address",
          "name": "sender",
          "type": "address"
        },
        {
          "indexed": true,
          "internalType": "address",
          "name": "proxy",
          "type": "address"
        },
        {
          "indexed": false,
          "internalType": "address",
          "name": "previousAdmin",
          "type": "address"
        },
        {
          "indexed": false,
          "internalType": "address",
          "name": "newAdmin",
          "type": "address"
        }
      ],
      "name": "ProxyAdminChanged",
      "type": "event"
    },
    {
      "anonymous": false,
      "inputs": [
        {
          "indexed": true,
          "internalType": "address",
          "name": "sender",
          "type": "address"
        },
        {
          "indexed": true,
          "internalType": "address",
          "name": "proxy",
          "type": "address"
        },
        {
          "indexed": true,
          "internalType": "address",
          "name": "newImplementation",
          "type": "address"
        },
        {
          "indexed": false,
          "internalType": "address",
          "name": "oldImplementation",
          "type": "address"
        },
        {
          "indexed": false,
          "internalType": "string",
          "name": "newVersion",
          "type": "string"
        },
        {
          "indexed": false,
          "internalType": "string",
          "name": "oldVersion",
          "type": "string"
        }
      ],
      "name": "ProxyUpgraded",
      "type": "event"
    },
    {
      "anonymous": false,
      "inputs": [
        {
          "indexed": true,
          "internalType": "address",
          "name": "sender",
          "type": "address"
        },
        {
          "indexed": true,
          "internalType": "address",
          "name": "proxy",
          "type": "address"
        },
        {
          "indexed": true,
          "internalType": "bytes32",
          "name": "realm",
          "type": "bytes32"
        },
        {
          "indexed": false,
          "internalType": "bool",
          "name": "value",
          "type": "bool"
        }
      ],
      "name": "UpgradablilityChanged",
      "type": "event"
    },
    {
      "anonymous": false,
      "inputs": [
        {
          "indexed": true,
          "internalType": "address",
          "name": "implementation",
          "type": "address"
        }
      ],
      "name": "Upgraded",
      "type": "event"
    },
    {
      "stateMutability": "payable",
      "type": "fallback"
    },
    {
      "inputs": [],
      "name": "getProxyAdmin",
      "outputs": [
        {
          "internalType": "address",
          "name": "",
          "type": "address"
        }
      ],
      "stateMutability": "view",
      "type": "function"
    },
    {
      "inputs": [],
      "name": "implementation",
      "outputs": [
        {
          "internalType": "address",
          "name": "",
          "type": "address"
        }
      ],
      "stateMutability": "view",
      "type": "function"
    },
    {
      "inputs": [],
      "name": "isActivated",
      "outputs": [
        {
          "internalType": "bool",
          "name": "",
          "type": "bool"
        }
      ],
      "stateMutability": "view",
      "type": "function"
    },
    {
      "inputs": [],
      "name": "isUpgradable",
      "outputs": [
        {
          "internalType": "bool",
          "name": "",
          "type": "bool"
        }
      ],
      "stateMutability": "view",
      "type": "function"
    },
    {
      "inputs": [],
      "name": "proxiableUUID",
      "outputs": [
        {
          "internalType": "bytes32",
          "name": "",
          "type": "bytes32"
        }
      ],
      "stateMutability": "view",
      "type": "function"
    },
    {
      "inputs": [
        {
          "internalType": "bool",
          "name": "value",
          "type": "bool"
        }
      ],
      "name": "setActivity",
      "outputs": [
        {
          "internalType": "bool",
          "name": "",
          "type": "bool"
        }
      ],
      "stateMutability": "nonpayable",
      "type": "function"
    },
    {
      "inputs": [
        {
          "internalType": "address",
          "name": "newAdmin",
          "type": "address"
        }
      ],
      "name": "setProxyAdmin",
      "outputs": [
        {
          "internalType": "bool",
          "name": "",
          "type": "bool"
        }
      ],
      "stateMutability": "nonpayable",
      "type": "function"
    },
    {
      "inputs": [
        {
          "internalType": "bool",
          "name": "value",
          "type": "bool"
        }
      ],
      "name": "setUpgradability",
      "outputs": [
        {
          "internalType": "bool",
          "name": "",
          "type": "bool"
        }
      ],
      "stateMutability": "nonpayable",
      "type": "function"
    },
    {
      "inputs": [],
      "name": "subjectContext",
      "outputs": [
        {
          "internalType": "bytes32",
          "name": "",
          "type": "bytes32"
        }
      ],
      "stateMutability": "view",
      "type": "function"
    },
    {
      "inputs": [],
      "name": "subjectName",
      "outputs": [
        {
          "internalType": "string",
          "name": "",
          "type": "string"
        }
      ],
      "stateMutability": "view",
      "type": "function"
    },
    {
      "inputs": [],
      "name": "subjectRealm",
      "outputs": [
        {
          "internalType": "bytes32",
          "name": "",
          "type": "bytes32"
        }
      ],
      "stateMutability": "view",
      "type": "function"
    },
    {
      "inputs": [],
      "name": "subjectVersion",
      "outputs": [
        {
          "internalType": "string",
          "name": "",
          "type": "string"
        }
      ],
      "stateMutability": "view",
      "type": "function"
    },
    {
      "inputs": [
        {
          "internalType": "address",
          "name": "newImplementation",
          "type": "address"
        },
        {
          "internalType": "bytes",
          "name": "data",
          "type": "bytes"
        },
        {
          "internalType": "bool",
          "name": "forceInitCall",
          "type": "bool"
        }
      ],
      "name": "upgradeTo",
      "outputs": [
        {
          "internalType": "bytes",
          "name": "",
          "type": "bytes"
        }
      ],
      "stateMutability": "nonpayable",
      "type": "function"
    },
    {
      "stateMutability": "payable",
      "type": "receive"
    }
  ],
  "bytecode": "0x60a0604052306080523480156200001557600080fd5b506200002062000031565b6200002b3362000041565b62000296565b6200003e61ffff62000136565b50565b6001600160a01b0381166200009d5760405162461bcd60e51b815260206004820152601d60248201527f6e65772061646d696e20697320746865207a65726f206164647265737300000060448201526064015b60405180910390fd5b30337f6dd9a711c71f2384e1a3f1ab85a1d06eee5c81ec1e377a10e6b672052116362d620000ca6200024b565b604080516001600160a01b03928316815291861660208301520160405180910390a38062000115600080516020620014d783398151915260001b6200028460201b6200060e1760201c565b80546001600160a01b0319166001600160a01b039290921691909117905550565b60455460009062010000900460ff1615620001cf578161ffff16600114801562000173575062000171306200028760201b620006111760201c565b155b620001c75760405162461bcd60e51b815260206004820152602e6024820152600080516020620014b783398151915260448201526d191e481a5b9a5d1a585b1a5e995960921b606482015260840162000094565b506000919050565b60455461ffff8084169116106200022f5760405162461bcd60e51b815260206004820152602e6024820152600080516020620014b783398151915260448201526d191e481a5b9a5d1a585b1a5e995960921b606482015260840162000094565b506045805461ffff191661ffff92909216919091179055600190565b600062000275600080516020620014d783398151915260001b6200028460201b6200060e1760201c565b546001600160a01b0316919050565b90565b6001600160a01b03163b151590565b6080516111f7620002c060003960008181610322015281816103d3015261045801526111f76000f3fe6080604052600436106100c65760003560e01c80635c60da1b1161007f5780638b3240a0116100595780638b3240a014610229578063900574a51461023e5780639dd0725414610253578063cf891e2b14610273576100d5565b80635c60da1b146101ba5780637147855d146101e7578063886ddb5214610214576100d5565b8063133899f5146100dd57806347c02661146101125780634a8c1fb4146101325780634bce20dd1461014a57806352d1902d146101885780635479d9401461019d576100d5565b366100d5576100d3610288565b005b6100d3610288565b3480156100e957600080fd5b506100fd6100f8366004610e32565b61029a565b60405190151581526020015b60405180910390f35b34801561011e57600080fd5b506100fd61012d366004610e6b565b6102fd565b34801561013e57600080fd5b5060045460ff166100fd565b34801561015657600080fd5b50604080513060208083019190915282518083038201815291830190925280519101205b604051908152602001610109565b34801561019457600080fd5b5061017a610315565b3480156101a957600080fd5b50600454610100900460ff166100fd565b3480156101c657600080fd5b506101cf6103bd565b6040516001600160a01b039091168152602001610109565b3480156101f357600080fd5b50610207610202366004610ef5565b6103c7565b6040516101099190610ff6565b34801561022057600080fd5b5060035461017a565b34801561023557600080fd5b506101cf610511565b34801561024a57600080fd5b5061020761051b565b34801561025f57600080fd5b506100fd61026e366004610e32565b6105ad565b34801561027f57600080fd5b506102076105ff565b610298610293610620565b610641565b565b6004805461ff0019166101008315150217905560035460009030336001600160a01b03167fbcecca91f4cd073bcfd7630ef1a39f42ce6cc45c2ca12324e82e1d9021e71c9b856040516102f1911515815260200190565b60405180910390a45090565b600061030882610665565b506001919050565b905090565b6000306001600160a01b037f000000000000000000000000000000000000000000000000000000000000000016146103aa5760405162461bcd60e51b815260206004820152602d60248201527f555550533a206d757374206e6f742062652063616c6c6564207468726f75676860448201526c0819195b1959d85d1958d85b1b609a1b60648201526084015b60405180910390fd5b5060008051602061117b83398151915290565b6000610310610620565b60606001600160a01b037f00000000000000000000000000000000000000000000000000000000000000001630036104565760405162461bcd60e51b815260206004820152602c60248201527f46756e6374696f6e206d7573742062652063616c6c6564207468726f7567682060448201526b19195b1959d85d1958d85b1b60a21b60648201526084016103a1565b7f00000000000000000000000000000000000000000000000000000000000000006001600160a01b0316610488610620565b6001600160a01b0316146104f35760405162461bcd60e51b815260206004820152602c60248201527f46756e6374696f6e206d7573742062652063616c6c6564207468726f7567682060448201526b6163746976652070726f787960a01b60648201526084016103a1565b6104fc8461074c565b610507848484610802565b90505b9392505050565b600061031061098b565b60606001805461052a90611009565b80601f016020809104026020016040519081016040528092919081815260200182805461055690611009565b80156105a35780601f10610578576101008083540402835291602001916105a3565b820191906000526020600020905b81548152906001019060200180831161058657829003601f168201915b5050505050905090565b6004805460ff191682151517905560035460009030336001600160a01b03167f139c91c652708a87d9a40a2cbfb6d5d37c20d1dcd2a75b2d0c09b59a214474bc856040516102f1911515815260200190565b60606002805461052a90611009565b90565b6001600160a01b03163b151590565b600060008051602061117b8339815191525b546001600160a01b0316919050565b3660008037600080366000845af43d6000803e808015610660573d6000f35b3d6000fd5b6001600160a01b0381166106bb5760405162461bcd60e51b815260206004820152601d60248201527f6e65772061646d696e20697320746865207a65726f206164647265737300000060448201526064016103a1565b30337f6dd9a711c71f2384e1a3f1ab85a1d06eee5c81ec1e377a10e6b672052116362d6106e661098b565b604080516001600160a01b03928316815291861660208301520160405180910390a3807fb53127684a568b3173ae13b9f8a6016e243e63b6e8ee1178d6a717850b5d61035b80546001600160a01b0319166001600160a01b039290921691909117905550565b61075c637147855d60e01b6109b3565b6107a85760405162461bcd60e51b815260206004820152601f60248201527f436f6e74657874205570677261646162696c69747920466f7262696464656e0060448201526064016103a1565b600454610100900460ff166107ff5760405162461bcd60e51b815260206004820152601960248201527f436f6e74657874204973204e6f742055706772616461626c650000000000000060448201526064016103a1565b50565b60607f4910fdfa16fed3260ed0e7147f7cc6da11a60208b5b9406d12a635614ffd91435460ff161561084c5761083784610a60565b5060408051600081526020810190915261050a565b836001600160a01b03166352d1902d6040518163ffffffff1660e01b8152600401602060405180830381865afa9250505080156108a6575060408051601f3d908101601f191682019092526108a391810190611043565b60015b6109095760405162461bcd60e51b815260206004820152602e60248201527f45524331393637557067726164653a206e657720696d706c656d656e7461746960448201526d6f6e206973206e6f74205555505360901b60648201526084016103a1565b60008051602061117b83398151915281146109785760405162461bcd60e51b815260206004820152602960248201527f45524331393637557067726164653a20756e737570706f727465642070726f786044820152681a58589b195555525160ba1b60648201526084016103a1565b50610984848484610b04565b905061050a565b60007fb53127684a568b3173ae13b9f8a6016e243e63b6e8ee1178d6a717850b5d6103610632565b60008054604080513060208083019190915282518083038201815291830190925280519101206001600160a01b039091169063c7ab39e6906040516001600160e01b031960e084901b8116825260048201929092523360248201529085166044820152606401602060405180830381865afa158015610a36573d6000803e3d6000fd5b505050506040513d601f19601f82011682018060405250810190610a5a919061105c565b92915050565b60045460ff16610a825760405162461bcd60e51b81526004016103a190611079565b6001600160a01b0381163b610aef5760405162461bcd60e51b815260206004820152602d60248201527f455243313936373a206e657720696d706c656d656e746174696f6e206973206e60448201526c1bdd08184818dbdb9d1c9858dd609a1b60648201526084016103a1565b8060008051602061117b83398151915261072b565b6060610b0f84610b42565b600083511180610b1c5750815b15610b2b576109848484610cd4565b505060408051600081526020810190915292915050565b60045460ff16610b645760405162461bcd60e51b81526004016103a190611079565b6000610b6e610620565b6040519091506001600160a01b038316907fbc7cd75a20ee27fd9adebab32041f755214dbc6bffa90cc0225b39da2e5c2d3b90600090a2816001600160a01b0316306001600160a01b0316336001600160a01b03167ebe01838f727d9b6a4cc703cad7dd0426a7dd3a2ad8bbc1aae8e61a5f7fdd3684866001600160a01b031663cf891e2b6040518163ffffffff1660e01b8152600401600060405180830381865afa158015610c22573d6000803e3d6000fd5b505050506040513d6000823e601f3d908101601f19168201604052610c4a91908101906110b0565b866001600160a01b031663cf891e2b6040518163ffffffff1660e01b8152600401600060405180830381865afa158015610c88573d6000803e3d6000fd5b505050506040513d6000823e601f3d908101601f19168201604052610cb091908101906110b0565b604051610cbf9392919061111e565b60405180910390a4610cd082610a60565b5050565b60045460609060ff16610cf95760405162461bcd60e51b81526004016103a190611079565b6001600160a01b0383163b610d5f5760405162461bcd60e51b815260206004820152602660248201527f416464726573733a2064656c65676174652063616c6c20746f206e6f6e2d636f6044820152651b9d1c9858dd60d21b60648201526084016103a1565b600080846001600160a01b031684604051610d7a919061115e565b600060405180830381855af49150503d8060008114610db5576040519150601f19603f3d011682016040523d82523d6000602084013e610dba565b606091505b5091509150610de2828260405180606001604052806027815260200161119b60279139610deb565b95945050505050565b60608315610dfa57508161050a565b825115610e0a5782518084602001fd5b8160405162461bcd60e51b81526004016103a19190610ff6565b80151581146107ff57600080fd5b600060208284031215610e4457600080fd5b813561050a81610e24565b80356001600160a01b0381168114610e6657600080fd5b919050565b600060208284031215610e7d57600080fd5b61050a82610e4f565b634e487b7160e01b600052604160045260246000fd5b604051601f8201601f1916810167ffffffffffffffff81118282101715610ec557610ec5610e86565b604052919050565b600067ffffffffffffffff821115610ee757610ee7610e86565b50601f01601f191660200190565b600080600060608486031215610f0a57600080fd5b610f1384610e4f565b9250602084013567ffffffffffffffff811115610f2f57600080fd5b8401601f81018613610f4057600080fd5b8035610f53610f4e82610ecd565b610e9c565b818152876020838501011115610f6857600080fd5b816020840160208301376000602083830101528094505050506040840135610f8f81610e24565b809150509250925092565b60005b83811015610fb5578181015183820152602001610f9d565b83811115610fc4576000848401525b50505050565b60008151808452610fe2816020860160208601610f9a565b601f01601f19169290920160200192915050565b60208152600061050a6020830184610fca565b600181811c9082168061101d57607f821691505b60208210810361103d57634e487b7160e01b600052602260045260246000fd5b50919050565b60006020828403121561105557600080fd5b5051919050565b60006020828403121561106e57600080fd5b815161050a81610e24565b60208082526018908201527f436f6e74657874204973204e6f74204163746976617465640000000000000000604082015260600190565b6000602082840312156110c257600080fd5b815167ffffffffffffffff8111156110d957600080fd5b8201601f810184136110ea57600080fd5b80516110f8610f4e82610ecd565b81815285602083850101111561110d57600080fd5b610de2826020830160208601610f9a565b6001600160a01b038416815260606020820181905260009061114290830185610fca565b82810360408401526111548185610fca565b9695505050505050565b60008251611170818460208701610f9a565b919091019291505056fe360894a13ba1a3210667c828492db98dca3e2076cc3735a920a3ca505d382bbc416464726573733a206c6f772d6c6576656c2064656c65676174652063616c6c206661696c6564a2646970667358221220045a294cee6591528e9b74f7dbd4a95438b931c89ae18cc0dff7026f0ff142e964736f6c634300080f0033496e697469616c697a61626c653a20636f6e747261637420697320616c726561b53127684a568b3173ae13b9f8a6016e243e63b6e8ee1178d6a717850b5d6103",
  "linkReferences": {},
  "deployedLinkReferences": {},
  "devdoc": {
    "kind": "dev",
    "methods": {
      "proxiableUUID()": {
        "details": "Implementation of the ERC1822 {proxiableUUID} function. This returns the storage slot used by the implementation. It is used to validate that the this implementation remains valid after an upgrade. IMPORTANT: A proxy pointing at a proxiable contract should not be considered proxiable itself, because this risks bricking a proxy that upgrades to it, by delegating to itself until out of gas. Thus it is critical that this function revert if invoked through a proxy. This is guaranteed by the `notDelegated` modifier."
      }
    },
    "version": 1
  },
  "evm": {
    "bytecode": {
      "linkReferences": {},
      "opcodes": "PUSH1 0xA0 PUSH1 0x40 MSTORE ADDRESS PUSH1 0x80 MSTORE CALLVALUE DUP1 ISZERO PUSH3 0x15 JUMPI PUSH1 0x0 DUP1 REVERT JUMPDEST POP PUSH3 0x20 PUSH3 0x31 JUMP JUMPDEST PUSH3 0x2B CALLER PUSH3 0x41 JUMP JUMPDEST PUSH3 0x296 JUMP JUMPDEST PUSH3 0x3E PUSH2 0xFFFF PUSH3 0x136 JUMP JUMPDEST POP JUMP JUMPDEST PUSH1 0x1 PUSH1 0x1 PUSH1 0xA0 SHL SUB DUP2 AND PUSH3 0x9D JUMPI PUSH1 0x40 MLOAD PUSH3 0x461BCD PUSH1 0xE5 SHL DUP2 MSTORE PUSH1 0x20 PUSH1 0x4 DUP3 ADD MSTORE PUSH1 0x1D PUSH1 0x24 DUP3 ADD MSTORE PUSH32 0x6E65772061646D696E20697320746865207A65726F2061646472657373000000 PUSH1 0x44 DUP3 ADD MSTORE PUSH1 0x64 ADD JUMPDEST PUSH1 0x40 MLOAD DUP1 SWAP2 SUB SWAP1 REVERT JUMPDEST ADDRESS CALLER PUSH32 0x6DD9A711C71F2384E1A3F1AB85A1D06EEE5C81EC1E377A10E6B672052116362D PUSH3 0xCA PUSH3 0x24B JUMP JUMPDEST PUSH1 0x40 DUP1 MLOAD PUSH1 0x1 PUSH1 0x1 PUSH1 0xA0 SHL SUB SWAP3 DUP4 AND DUP2 MSTORE SWAP2 DUP7 AND PUSH1 0x20 DUP4 ADD MSTORE ADD PUSH1 0x40 MLOAD DUP1 SWAP2 SUB SWAP1 LOG3 DUP1 PUSH3 0x115 PUSH1 0x0 DUP1 MLOAD PUSH1 0x20 PUSH3 0x14D7 DUP4 CODECOPY DUP2 MLOAD SWAP2 MSTORE PUSH1 0x0 SHL PUSH3 0x284 PUSH1 0x20 SHL PUSH3 0x60E OR PUSH1 0x20 SHR JUMP JUMPDEST DUP1 SLOAD PUSH1 0x1 PUSH1 0x1 PUSH1 0xA0 SHL SUB NOT AND PUSH1 0x1 PUSH1 0x1 PUSH1 0xA0 SHL SUB SWAP3 SWAP1 SWAP3 AND SWAP2 SWAP1 SWAP2 OR SWAP1 SSTORE POP JUMP JUMPDEST PUSH1 0x45 SLOAD PUSH1 0x0 SWAP1 PUSH3 0x10000 SWAP1 DIV PUSH1 0xFF AND ISZERO PUSH3 0x1CF JUMPI DUP2 PUSH2 0xFFFF AND PUSH1 0x1 EQ DUP1 ISZERO PUSH3 0x173 JUMPI POP PUSH3 0x171 ADDRESS PUSH3 0x287 PUSH1 0x20 SHL PUSH3 0x611 OR PUSH1 0x20 SHR JUMP JUMPDEST ISZERO JUMPDEST PUSH3 0x1C7 JUMPI PUSH1 0x40 MLOAD PUSH3 0x461BCD PUSH1 0xE5 SHL DUP2 MSTORE PUSH1 0x20 PUSH1 0x4 DUP3 ADD MSTORE PUSH1 0x2E PUSH1 0x24 DUP3 ADD MSTORE PUSH1 0x0 DUP1 MLOAD PUSH1 0x20 PUSH3 0x14B7 DUP4 CODECOPY DUP2 MLOAD SWAP2 MSTORE PUSH1 0x44 DUP3 ADD MSTORE PUSH14 0x191E481A5B9A5D1A585B1A5E9959 PUSH1 0x92 SHL PUSH1 0x64 DUP3 ADD MSTORE PUSH1 0x84 ADD PUSH3 0x94 JUMP JUMPDEST POP PUSH1 0x0 SWAP2 SWAP1 POP JUMP JUMPDEST PUSH1 0x45 SLOAD PUSH2 0xFFFF DUP1 DUP5 AND SWAP2 AND LT PUSH3 0x22F JUMPI PUSH1 0x40 MLOAD PUSH3 0x461BCD PUSH1 0xE5 SHL DUP2 MSTORE PUSH1 0x20 PUSH1 0x4 DUP3 ADD MSTORE PUSH1 0x2E PUSH1 0x24 DUP3 ADD MSTORE PUSH1 0x0 DUP1 MLOAD PUSH1 0x20 PUSH3 0x14B7 DUP4 CODECOPY DUP2 MLOAD SWAP2 MSTORE PUSH1 0x44 DUP3 ADD MSTORE PUSH14 0x191E481A5B9A5D1A585B1A5E9959 PUSH1 0x92 SHL PUSH1 0x64 DUP3 ADD MSTORE PUSH1 0x84 ADD PUSH3 0x94 JUMP JUMPDEST POP PUSH1 0x45 DUP1 SLOAD PUSH2 0xFFFF NOT AND PUSH2 0xFFFF SWAP3 SWAP1 SWAP3 AND SWAP2 SWAP1 SWAP2 OR SWAP1 SSTORE PUSH1 0x1 SWAP1 JUMP JUMPDEST PUSH1 0x0 PUSH3 0x275 PUSH1 0x0 DUP1 MLOAD PUSH1 0x20 PUSH3 0x14D7 DUP4 CODECOPY DUP2 MLOAD SWAP2 MSTORE PUSH1 0x0 SHL PUSH3 0x284 PUSH1 0x20 SHL PUSH3 0x60E OR PUSH1 0x20 SHR JUMP JUMPDEST SLOAD PUSH1 0x1 PUSH1 0x1 PUSH1 0xA0 SHL SUB AND SWAP2 SWAP1 POP JUMP JUMPDEST SWAP1 JUMP JUMPDEST PUSH1 0x1 PUSH1 0x1 PUSH1 0xA0 SHL SUB AND EXTCODESIZE ISZERO ISZERO SWAP1 JUMP JUMPDEST PUSH1 0x80 MLOAD PUSH2 0x11F7 PUSH3 0x2C0 PUSH1 0x0 CODECOPY PUSH1 0x0 DUP2 DUP2 PUSH2 0x322 ADD MSTORE DUP2 DUP2 PUSH2 0x3D3 ADD MSTORE PUSH2 0x458 ADD MSTORE PUSH2 0x11F7 PUSH1 0x0 RETURN INVALID PUSH1 0x80 PUSH1 0x40 MSTORE PUSH1 0x4 CALLDATASIZE LT PUSH2 0xC6 JUMPI PUSH1 0x0 CALLDATALOAD PUSH1 0xE0 SHR DUP1 PUSH4 0x5C60DA1B GT PUSH2 0x7F JUMPI DUP1 PUSH4 0x8B3240A0 GT PUSH2 0x59 JUMPI DUP1 PUSH4 0x8B3240A0 EQ PUSH2 0x229 JUMPI DUP1 PUSH4 0x900574A5 EQ PUSH2 0x23E JUMPI DUP1 PUSH4 0x9DD07254 EQ PUSH2 0x253 JUMPI DUP1 PUSH4 0xCF891E2B EQ PUSH2 0x273 JUMPI PUSH2 0xD5 JUMP JUMPDEST DUP1 PUSH4 0x5C60DA1B EQ PUSH2 0x1BA JUMPI DUP1 PUSH4 0x7147855D EQ PUSH2 0x1E7 JUMPI DUP1 PUSH4 0x886DDB52 EQ PUSH2 0x214 JUMPI PUSH2 0xD5 JUMP JUMPDEST DUP1 PUSH4 0x133899F5 EQ PUSH2 0xDD JUMPI DUP1 PUSH4 0x47C02661 EQ PUSH2 0x112 JUMPI DUP1 PUSH4 0x4A8C1FB4 EQ PUSH2 0x132 JUMPI DUP1 PUSH4 0x4BCE20DD EQ PUSH2 0x14A JUMPI DUP1 PUSH4 0x52D1902D EQ PUSH2 0x188 JUMPI DUP1 PUSH4 0x5479D940 EQ PUSH2 0x19D JUMPI PUSH2 0xD5 JUMP JUMPDEST CALLDATASIZE PUSH2 0xD5 JUMPI PUSH2 0xD3 PUSH2 0x288 JUMP JUMPDEST STOP JUMPDEST PUSH2 0xD3 PUSH2 0x288 JUMP JUMPDEST CALLVALUE DUP1 ISZERO PUSH2 0xE9 JUMPI PUSH1 0x0 DUP1 REVERT JUMPDEST POP PUSH2 0xFD PUSH2 0xF8 CALLDATASIZE PUSH1 0x4 PUSH2 0xE32 JUMP JUMPDEST PUSH2 0x29A JUMP JUMPDEST PUSH1 0x40 MLOAD SWAP1 ISZERO ISZERO DUP2 MSTORE PUSH1 0x20 ADD JUMPDEST PUSH1 0x40 MLOAD DUP1 SWAP2 SUB SWAP1 RETURN JUMPDEST CALLVALUE DUP1 ISZERO PUSH2 0x11E JUMPI PUSH1 0x0 DUP1 REVERT JUMPDEST POP PUSH2 0xFD PUSH2 0x12D CALLDATASIZE PUSH1 0x4 PUSH2 0xE6B JUMP JUMPDEST PUSH2 0x2FD JUMP JUMPDEST CALLVALUE DUP1 ISZERO PUSH2 0x13E JUMPI PUSH1 0x0 DUP1 REVERT JUMPDEST POP PUSH1 0x4 SLOAD PUSH1 0xFF AND PUSH2 0xFD JUMP JUMPDEST CALLVALUE DUP1 ISZERO PUSH2 0x156 JUMPI PUSH1 0x0 DUP1 REVERT JUMPDEST POP PUSH1 0x40 DUP1 MLOAD ADDRESS PUSH1 0x20 DUP1 DUP4 ADD SWAP2 SWAP1 SWAP2 MSTORE DUP3 MLOAD DUP1 DUP4 SUB DUP3 ADD DUP2 MSTORE SWAP2 DUP4 ADD SWAP1 SWAP3 MSTORE DUP1 MLOAD SWAP2 ADD KECCAK256 JUMPDEST PUSH1 0x40 MLOAD SWAP1 DUP2 MSTORE PUSH1 0x20 ADD PUSH2 0x109 JUMP JUMPDEST CALLVALUE DUP1 ISZERO PUSH2 0x194 JUMPI PUSH1 0x0 DUP1 REVERT JUMPDEST POP PUSH2 0x17A PUSH2 0x315 JUMP JUMPDEST CALLVALUE DUP1 ISZERO PUSH2 0x1A9 JUMPI PUSH1 0x0 DUP1 REVERT JUMPDEST POP PUSH1 0x4 SLOAD PUSH2 0x100 SWAP1 DIV PUSH1 0xFF AND PUSH2 0xFD JUMP JUMPDEST CALLVALUE DUP1 ISZERO PUSH2 0x1C6 JUMPI PUSH1 0x0 DUP1 REVERT JUMPDEST POP PUSH2 0x1CF PUSH2 0x3BD JUMP JUMPDEST PUSH1 0x40 MLOAD PUSH1 0x1 PUSH1 0x1 PUSH1 0xA0 SHL SUB SWAP1 SWAP2 AND DUP2 MSTORE PUSH1 0x20 ADD PUSH2 0x109 JUMP JUMPDEST CALLVALUE DUP1 ISZERO PUSH2 0x1F3 JUMPI PUSH1 0x0 DUP1 REVERT JUMPDEST POP PUSH2 0x207 PUSH2 0x202 CALLDATASIZE PUSH1 0x4 PUSH2 0xEF5 JUMP JUMPDEST PUSH2 0x3C7 JUMP JUMPDEST PUSH1 0x40 MLOAD PUSH2 0x109 SWAP2 SWAP1 PUSH2 0xFF6 JUMP JUMPDEST CALLVALUE DUP1 ISZERO PUSH2 0x220 JUMPI PUSH1 0x0 DUP1 REVERT JUMPDEST POP PUSH1 0x3 SLOAD PUSH2 0x17A JUMP JUMPDEST CALLVALUE DUP1 ISZERO PUSH2 0x235 JUMPI PUSH1 0x0 DUP1 REVERT JUMPDEST POP PUSH2 0x1CF PUSH2 0x511 JUMP JUMPDEST CALLVALUE DUP1 ISZERO PUSH2 0x24A JUMPI PUSH1 0x0 DUP1 REVERT JUMPDEST POP PUSH2 0x207 PUSH2 0x51B JUMP JUMPDEST CALLVALUE DUP1 ISZERO PUSH2 0x25F JUMPI PUSH1 0x0 DUP1 REVERT JUMPDEST POP PUSH2 0xFD PUSH2 0x26E CALLDATASIZE PUSH1 0x4 PUSH2 0xE32 JUMP JUMPDEST PUSH2 0x5AD JUMP JUMPDEST CALLVALUE DUP1 ISZERO PUSH2 0x27F JUMPI PUSH1 0x0 DUP1 REVERT JUMPDEST POP PUSH2 0x207 PUSH2 0x5FF JUMP JUMPDEST PUSH2 0x298 PUSH2 0x293 PUSH2 0x620 JUMP JUMPDEST PUSH2 0x641 JUMP JUMPDEST JUMP JUMPDEST PUSH1 0x4 DUP1 SLOAD PUSH2 0xFF00 NOT AND PUSH2 0x100 DUP4 ISZERO ISZERO MUL OR SWAP1 SSTORE PUSH1 0x3 SLOAD PUSH1 0x0 SWAP1 ADDRESS CALLER PUSH1 0x1 PUSH1 0x1 PUSH1 0xA0 SHL SUB AND PUSH32 0xBCECCA91F4CD073BCFD7630EF1A39F42CE6CC45C2CA12324E82E1D9021E71C9B DUP6 PUSH1 0x40 MLOAD PUSH2 0x2F1 SWAP2 ISZERO ISZERO DUP2 MSTORE PUSH1 0x20 ADD SWAP1 JUMP JUMPDEST PUSH1 0x40 MLOAD DUP1 SWAP2 SUB SWAP1 LOG4 POP SWAP1 JUMP JUMPDEST PUSH1 0x0 PUSH2 0x308 DUP3 PUSH2 0x665 JUMP JUMPDEST POP PUSH1 0x1 SWAP2 SWAP1 POP JUMP JUMPDEST SWAP1 POP SWAP1 JUMP JUMPDEST PUSH1 0x0 ADDRESS PUSH1 0x1 PUSH1 0x1 PUSH1 0xA0 SHL SUB PUSH32 0x0 AND EQ PUSH2 0x3AA JUMPI PUSH1 0x40 MLOAD PUSH3 0x461BCD PUSH1 0xE5 SHL DUP2 MSTORE PUSH1 0x20 PUSH1 0x4 DUP3 ADD MSTORE PUSH1 0x2D PUSH1 0x24 DUP3 ADD MSTORE PUSH32 0x555550533A206D757374206E6F742062652063616C6C6564207468726F756768 PUSH1 0x44 DUP3 ADD MSTORE PUSH13 0x819195B1959D85D1958D85B1B PUSH1 0x9A SHL PUSH1 0x64 DUP3 ADD MSTORE PUSH1 0x84 ADD JUMPDEST PUSH1 0x40 MLOAD DUP1 SWAP2 SUB SWAP1 REVERT JUMPDEST POP PUSH1 0x0 DUP1 MLOAD PUSH1 0x20 PUSH2 0x117B DUP4 CODECOPY DUP2 MLOAD SWAP2 MSTORE SWAP1 JUMP JUMPDEST PUSH1 0x0 PUSH2 0x310 PUSH2 0x620 JUMP JUMPDEST PUSH1 0x60 PUSH1 0x1 PUSH1 0x1 PUSH1 0xA0 SHL SUB PUSH32 0x0 AND ADDRESS SUB PUSH2 0x456 JUMPI PUSH1 0x40 MLOAD PUSH3 0x461BCD PUSH1 0xE5 SHL DUP2 MSTORE PUSH1 0x20 PUSH1 0x4 DUP3 ADD MSTORE PUSH1 0x2C PUSH1 0x24 DUP3 ADD MSTORE PUSH32 0x46756E6374696F6E206D7573742062652063616C6C6564207468726F75676820 PUSH1 0x44 DUP3 ADD MSTORE PUSH12 0x19195B1959D85D1958D85B1B PUSH1 0xA2 SHL PUSH1 0x64 DUP3 ADD MSTORE PUSH1 0x84 ADD PUSH2 0x3A1 JUMP JUMPDEST PUSH32 0x0 PUSH1 0x1 PUSH1 0x1 PUSH1 0xA0 SHL SUB AND PUSH2 0x488 PUSH2 0x620 JUMP JUMPDEST PUSH1 0x1 PUSH1 0x1 PUSH1 0xA0 SHL SUB AND EQ PUSH2 0x4F3 JUMPI PUSH1 0x40 MLOAD PUSH3 0x461BCD PUSH1 0xE5 SHL DUP2 MSTORE PUSH1 0x20 PUSH1 0x4 DUP3 ADD MSTORE PUSH1 0x2C PUSH1 0x24 DUP3 ADD MSTORE PUSH32 0x46756E6374696F6E206D7573742062652063616C6C6564207468726F75676820 PUSH1 0x44 DUP3 ADD MSTORE PUSH12 0x6163746976652070726F7879 PUSH1 0xA0 SHL PUSH1 0x64 DUP3 ADD MSTORE PUSH1 0x84 ADD PUSH2 0x3A1 JUMP JUMPDEST PUSH2 0x4FC DUP5 PUSH2 0x74C JUMP JUMPDEST PUSH2 0x507 DUP5 DUP5 DUP5 PUSH2 0x802 JUMP JUMPDEST SWAP1 POP JUMPDEST SWAP4 SWAP3 POP POP POP JUMP JUMPDEST PUSH1 0x0 PUSH2 0x310 PUSH2 0x98B JUMP JUMPDEST PUSH1 0x60 PUSH1 0x1 DUP1 SLOAD PUSH2 0x52A SWAP1 PUSH2 0x1009 JUMP JUMPDEST DUP1 PUSH1 0x1F ADD PUSH1 0x20 DUP1 SWAP2 DIV MUL PUSH1 0x20 ADD PUSH1 0x40 MLOAD SWAP1 DUP2 ADD PUSH1 0x40 MSTORE DUP1 SWAP3 SWAP2 SWAP1 DUP2 DUP2 MSTORE PUSH1 0x20 ADD DUP3 DUP1 SLOAD PUSH2 0x556 SWAP1 PUSH2 0x1009 JUMP JUMPDEST DUP1 ISZERO PUSH2 0x5A3 JUMPI DUP1 PUSH1 0x1F LT PUSH2 0x578 JUMPI PUSH2 0x100 DUP1 DUP4 SLOAD DIV MUL DUP4 MSTORE SWAP2 PUSH1 0x20 ADD SWAP2 PUSH2 0x5A3 JUMP JUMPDEST DUP3 ADD SWAP2 SWAP1 PUSH1 0x0 MSTORE PUSH1 0x20 PUSH1 0x0 KECCAK256 SWAP1 JUMPDEST DUP2 SLOAD DUP2 MSTORE SWAP1 PUSH1 0x1 ADD SWAP1 PUSH1 0x20 ADD DUP1 DUP4 GT PUSH2 0x586 JUMPI DUP3 SWAP1 SUB PUSH1 0x1F AND DUP3 ADD SWAP2 JUMPDEST POP POP POP POP POP SWAP1 POP SWAP1 JUMP JUMPDEST PUSH1 0x4 DUP1 SLOAD PUSH1 0xFF NOT AND DUP3 ISZERO ISZERO OR SWAP1 SSTORE PUSH1 0x3 SLOAD PUSH1 0x0 SWAP1 ADDRESS CALLER PUSH1 0x1 PUSH1 0x1 PUSH1 0xA0 SHL SUB AND PUSH32 0x139C91C652708A87D9A40A2CBFB6D5D37C20D1DCD2A75B2D0C09B59A214474BC DUP6 PUSH1 0x40 MLOAD PUSH2 0x2F1 SWAP2 ISZERO ISZERO DUP2 MSTORE PUSH1 0x20 ADD SWAP1 JUMP JUMPDEST PUSH1 0x60 PUSH1 0x2 DUP1 SLOAD PUSH2 0x52A SWAP1 PUSH2 0x1009 JUMP JUMPDEST SWAP1 JUMP JUMPDEST PUSH1 0x1 PUSH1 0x1 PUSH1 0xA0 SHL SUB AND EXTCODESIZE ISZERO ISZERO SWAP1 JUMP JUMPDEST PUSH1 0x0 PUSH1 0x0 DUP1 MLOAD PUSH1 0x20 PUSH2 0x117B DUP4 CODECOPY DUP2 MLOAD SWAP2 MSTORE JUMPDEST SLOAD PUSH1 0x1 PUSH1 0x1 PUSH1 0xA0 SHL SUB AND SWAP2 SWAP1 POP JUMP JUMPDEST CALLDATASIZE PUSH1 0x0 DUP1 CALLDATACOPY PUSH1 0x0 DUP1 CALLDATASIZE PUSH1 0x0 DUP5 GAS DELEGATECALL RETURNDATASIZE PUSH1 0x0 DUP1 RETURNDATACOPY DUP1 DUP1 ISZERO PUSH2 0x660 JUMPI RETURNDATASIZE PUSH1 0x0 RETURN JUMPDEST RETURNDATASIZE PUSH1 0x0 REVERT JUMPDEST PUSH1 0x1 PUSH1 0x1 PUSH1 0xA0 SHL SUB DUP2 AND PUSH2 0x6BB JUMPI PUSH1 0x40 MLOAD PUSH3 0x461BCD PUSH1 0xE5 SHL DUP2 MSTORE PUSH1 0x20 PUSH1 0x4 DUP3 ADD MSTORE PUSH1 0x1D PUSH1 0x24 DUP3 ADD MSTORE PUSH32 0x6E65772061646D696E20697320746865207A65726F2061646472657373000000 PUSH1 0x44 DUP3 ADD MSTORE PUSH1 0x64 ADD PUSH2 0x3A1 JUMP JUMPDEST ADDRESS CALLER PUSH32 0x6DD9A711C71F2384E1A3F1AB85A1D06EEE5C81EC1E377A10E6B672052116362D PUSH2 0x6E6 PUSH2 0x98B JUMP JUMPDEST PUSH1 0x40 DUP1 MLOAD PUSH1 0x1 PUSH1 0x1 PUSH1 0xA0 SHL SUB SWAP3 DUP4 AND DUP2 MSTORE SWAP2 DUP7 AND PUSH1 0x20 DUP4 ADD MSTORE ADD PUSH1 0x40 MLOAD DUP1 SWAP2 SUB SWAP1 LOG3 DUP1 PUSH32 0xB53127684A568B3173AE13B9F8A6016E243E63B6E8EE1178D6A717850B5D6103 JUMPDEST DUP1 SLOAD PUSH1 0x1 PUSH1 0x1 PUSH1 0xA0 SHL SUB NOT AND PUSH1 0x1 PUSH1 0x1 PUSH1 0xA0 SHL SUB SWAP3 SWAP1 SWAP3 AND SWAP2 SWAP1 SWAP2 OR SWAP1 SSTORE POP JUMP JUMPDEST PUSH2 0x75C PUSH4 0x7147855D PUSH1 0xE0 SHL PUSH2 0x9B3 JUMP JUMPDEST PUSH2 0x7A8 JUMPI PUSH1 0x40 MLOAD PUSH3 0x461BCD PUSH1 0xE5 SHL DUP2 MSTORE PUSH1 0x20 PUSH1 0x4 DUP3 ADD MSTORE PUSH1 0x1F PUSH1 0x24 DUP3 ADD MSTORE PUSH32 0x436F6E74657874205570677261646162696C69747920466F7262696464656E00 PUSH1 0x44 DUP3 ADD MSTORE PUSH1 0x64 ADD PUSH2 0x3A1 JUMP JUMPDEST PUSH1 0x4 SLOAD PUSH2 0x100 SWAP1 DIV PUSH1 0xFF AND PUSH2 0x7FF JUMPI PUSH1 0x40 MLOAD PUSH3 0x461BCD PUSH1 0xE5 SHL DUP2 MSTORE PUSH1 0x20 PUSH1 0x4 DUP3 ADD MSTORE PUSH1 0x19 PUSH1 0x24 DUP3 ADD MSTORE PUSH32 0x436F6E74657874204973204E6F742055706772616461626C6500000000000000 PUSH1 0x44 DUP3 ADD MSTORE PUSH1 0x64 ADD PUSH2 0x3A1 JUMP JUMPDEST POP JUMP JUMPDEST PUSH1 0x60 PUSH32 0x4910FDFA16FED3260ED0E7147F7CC6DA11A60208B5B9406D12A635614FFD9143 SLOAD PUSH1 0xFF AND ISZERO PUSH2 0x84C JUMPI PUSH2 0x837 DUP5 PUSH2 0xA60 JUMP JUMPDEST POP PUSH1 0x40 DUP1 MLOAD PUSH1 0x0 DUP2 MSTORE PUSH1 0x20 DUP2 ADD SWAP1 SWAP2 MSTORE PUSH2 0x50A JUMP JUMPDEST DUP4 PUSH1 0x1 PUSH1 0x1 PUSH1 0xA0 SHL SUB AND PUSH4 0x52D1902D PUSH1 0x40 MLOAD DUP2 PUSH4 0xFFFFFFFF AND PUSH1 0xE0 SHL DUP2 MSTORE PUSH1 0x4 ADD PUSH1 0x20 PUSH1 0x40 MLOAD DUP1 DUP4 SUB DUP2 DUP7 GAS STATICCALL SWAP3 POP POP POP DUP1 ISZERO PUSH2 0x8A6 JUMPI POP PUSH1 0x40 DUP1 MLOAD PUSH1 0x1F RETURNDATASIZE SWAP1 DUP2 ADD PUSH1 0x1F NOT AND DUP3 ADD SWAP1 SWAP3 MSTORE PUSH2 0x8A3 SWAP2 DUP2 ADD SWAP1 PUSH2 0x1043 JUMP JUMPDEST PUSH1 0x1 JUMPDEST PUSH2 0x909 JUMPI PUSH1 0x40 MLOAD PUSH3 0x461BCD PUSH1 0xE5 SHL DUP2 MSTORE PUSH1 0x20 PUSH1 0x4 DUP3 ADD MSTORE PUSH1 0x2E PUSH1 0x24 DUP3 ADD MSTORE PUSH32 0x45524331393637557067726164653A206E657720696D706C656D656E74617469 PUSH1 0x44 DUP3 ADD MSTORE PUSH14 0x6F6E206973206E6F742055555053 PUSH1 0x90 SHL PUSH1 0x64 DUP3 ADD MSTORE PUSH1 0x84 ADD PUSH2 0x3A1 JUMP JUMPDEST PUSH1 0x0 DUP1 MLOAD PUSH1 0x20 PUSH2 0x117B DUP4 CODECOPY DUP2 MLOAD SWAP2 MSTORE DUP2 EQ PUSH2 0x978 JUMPI PUSH1 0x40 MLOAD PUSH3 0x461BCD PUSH1 0xE5 SHL DUP2 MSTORE PUSH1 0x20 PUSH1 0x4 DUP3 ADD MSTORE PUSH1 0x29 PUSH1 0x24 DUP3 ADD MSTORE PUSH32 0x45524331393637557067726164653A20756E737570706F727465642070726F78 PUSH1 0x44 DUP3 ADD MSTORE PUSH9 0x1A58589B1955555251 PUSH1 0xBA SHL PUSH1 0x64 DUP3 ADD MSTORE PUSH1 0x84 ADD PUSH2 0x3A1 JUMP JUMPDEST POP PUSH2 0x984 DUP5 DUP5 DUP5 PUSH2 0xB04 JUMP JUMPDEST SWAP1 POP PUSH2 0x50A JUMP JUMPDEST PUSH1 0x0 PUSH32 0xB53127684A568B3173AE13B9F8A6016E243E63B6E8EE1178D6A717850B5D6103 PUSH2 0x632 JUMP JUMPDEST PUSH1 0x0 DUP1 SLOAD PUSH1 0x40 DUP1 MLOAD ADDRESS PUSH1 0x20 DUP1 DUP4 ADD SWAP2 SWAP1 SWAP2 MSTORE DUP3 MLOAD DUP1 DUP4 SUB DUP3 ADD DUP2 MSTORE SWAP2 DUP4 ADD SWAP1 SWAP3 MSTORE DUP1 MLOAD SWAP2 ADD KECCAK256 PUSH1 0x1 PUSH1 0x1 PUSH1 0xA0 SHL SUB SWAP1 SWAP2 AND SWAP1 PUSH4 0xC7AB39E6 SWAP1 PUSH1 0x40 MLOAD PUSH1 0x1 PUSH1 0x1 PUSH1 0xE0 SHL SUB NOT PUSH1 0xE0 DUP5 SWAP1 SHL DUP2 AND DUP3 MSTORE PUSH1 0x4 DUP3 ADD SWAP3 SWAP1 SWAP3 MSTORE CALLER PUSH1 0x24 DUP3 ADD MSTORE SWAP1 DUP6 AND PUSH1 0x44 DUP3 ADD MSTORE PUSH1 0x64 ADD PUSH1 0x20 PUSH1 0x40 MLOAD DUP1 DUP4 SUB DUP2 DUP7 GAS STATICCALL ISZERO DUP1 ISZERO PUSH2 0xA36 JUMPI RETURNDATASIZE PUSH1 0x0 DUP1 RETURNDATACOPY RETURNDATASIZE PUSH1 0x0 REVERT JUMPDEST POP POP POP POP PUSH1 0x40 MLOAD RETURNDATASIZE PUSH1 0x1F NOT PUSH1 0x1F DUP3 ADD AND DUP3 ADD DUP1 PUSH1 0x40 MSTORE POP DUP2 ADD SWAP1 PUSH2 0xA5A SWAP2 SWAP1 PUSH2 0x105C JUMP JUMPDEST SWAP3 SWAP2 POP POP JUMP JUMPDEST PUSH1 0x4 SLOAD PUSH1 0xFF AND PUSH2 0xA82 JUMPI PUSH1 0x40 MLOAD PUSH3 0x461BCD PUSH1 0xE5 SHL DUP2 MSTORE PUSH1 0x4 ADD PUSH2 0x3A1 SWAP1 PUSH2 0x1079 JUMP JUMPDEST PUSH1 0x1 PUSH1 0x1 PUSH1 0xA0 SHL SUB DUP2 AND EXTCODESIZE PUSH2 0xAEF JUMPI PUSH1 0x40 MLOAD PUSH3 0x461BCD PUSH1 0xE5 SHL DUP2 MSTORE PUSH1 0x20 PUSH1 0x4 DUP3 ADD MSTORE PUSH1 0x2D PUSH1 0x24 DUP3 ADD MSTORE PUSH32 0x455243313936373A206E657720696D706C656D656E746174696F6E206973206E PUSH1 0x44 DUP3 ADD MSTORE PUSH13 0x1BDD08184818DBDB9D1C9858DD PUSH1 0x9A SHL PUSH1 0x64 DUP3 ADD MSTORE PUSH1 0x84 ADD PUSH2 0x3A1 JUMP JUMPDEST DUP1 PUSH1 0x0 DUP1 MLOAD PUSH1 0x20 PUSH2 0x117B DUP4 CODECOPY DUP2 MLOAD SWAP2 MSTORE PUSH2 0x72B JUMP JUMPDEST PUSH1 0x60 PUSH2 0xB0F DUP5 PUSH2 0xB42 JUMP JUMPDEST PUSH1 0x0 DUP4 MLOAD GT DUP1 PUSH2 0xB1C JUMPI POP DUP2 JUMPDEST ISZERO PUSH2 0xB2B JUMPI PUSH2 0x984 DUP5 DUP5 PUSH2 0xCD4 JUMP JUMPDEST POP POP PUSH1 0x40 DUP1 MLOAD PUSH1 0x0 DUP2 MSTORE PUSH1 0x20 DUP2 ADD SWAP1 SWAP2 MSTORE SWAP3 SWAP2 POP POP JUMP JUMPDEST PUSH1 0x4 SLOAD PUSH1 0xFF AND PUSH2 0xB64 JUMPI PUSH1 0x40 MLOAD PUSH3 0x461BCD PUSH1 0xE5 SHL DUP2 MSTORE PUSH1 0x4 ADD PUSH2 0x3A1 SWAP1 PUSH2 0x1079 JUMP JUMPDEST PUSH1 0x0 PUSH2 0xB6E PUSH2 0x620 JUMP JUMPDEST PUSH1 0x40 MLOAD SWAP1 SWAP2 POP PUSH1 0x1 PUSH1 0x1 PUSH1 0xA0 SHL SUB DUP4 AND SWAP1 PUSH32 0xBC7CD75A20EE27FD9ADEBAB32041F755214DBC6BFFA90CC0225B39DA2E5C2D3B SWAP1 PUSH1 0x0 SWAP1 LOG2 DUP2 PUSH1 0x1 PUSH1 0x1 PUSH1 0xA0 SHL SUB AND ADDRESS PUSH1 0x1 PUSH1 0x1 PUSH1 0xA0 SHL SUB AND CALLER PUSH1 0x1 PUSH1 0x1 PUSH1 0xA0 SHL SUB AND PUSH31 0xBE01838F727D9B6A4CC703CAD7DD0426A7DD3A2AD8BBC1AAE8E61A5F7FDD36 DUP5 DUP7 PUSH1 0x1 PUSH1 0x1 PUSH1 0xA0 SHL SUB AND PUSH4 0xCF891E2B PUSH1 0x40 MLOAD DUP2 PUSH4 0xFFFFFFFF AND PUSH1 0xE0 SHL DUP2 MSTORE PUSH1 0x4 ADD PUSH1 0x0 PUSH1 0x40 MLOAD DUP1 DUP4 SUB DUP2 DUP7 GAS STATICCALL ISZERO DUP1 ISZERO PUSH2 0xC22 JUMPI RETURNDATASIZE PUSH1 0x0 DUP1 RETURNDATACOPY RETURNDATASIZE PUSH1 0x0 REVERT JUMPDEST POP POP POP POP PUSH1 0x40 MLOAD RETURNDATASIZE PUSH1 0x0 DUP3 RETURNDATACOPY PUSH1 0x1F RETURNDATASIZE SWAP1 DUP2 ADD PUSH1 0x1F NOT AND DUP3 ADD PUSH1 0x40 MSTORE PUSH2 0xC4A SWAP2 SWAP1 DUP2 ADD SWAP1 PUSH2 0x10B0 JUMP JUMPDEST DUP7 PUSH1 0x1 PUSH1 0x1 PUSH1 0xA0 SHL SUB AND PUSH4 0xCF891E2B PUSH1 0x40 MLOAD DUP2 PUSH4 0xFFFFFFFF AND PUSH1 0xE0 SHL DUP2 MSTORE PUSH1 0x4 ADD PUSH1 0x0 PUSH1 0x40 MLOAD DUP1 DUP4 SUB DUP2 DUP7 GAS STATICCALL ISZERO DUP1 ISZERO PUSH2 0xC88 JUMPI RETURNDATASIZE PUSH1 0x0 DUP1 RETURNDATACOPY RETURNDATASIZE PUSH1 0x0 REVERT JUMPDEST POP POP POP POP PUSH1 0x40 MLOAD RETURNDATASIZE PUSH1 0x0 DUP3 RETURNDATACOPY PUSH1 0x1F RETURNDATASIZE SWAP1 DUP2 ADD PUSH1 0x1F NOT AND DUP3 ADD PUSH1 0x40 MSTORE PUSH2 0xCB0 SWAP2 SWAP1 DUP2 ADD SWAP1 PUSH2 0x10B0 JUMP JUMPDEST PUSH1 0x40 MLOAD PUSH2 0xCBF SWAP4 SWAP3 SWAP2 SWAP1 PUSH2 0x111E JUMP JUMPDEST PUSH1 0x40 MLOAD DUP1 SWAP2 SUB SWAP1 LOG4 PUSH2 0xCD0 DUP3 PUSH2 0xA60 JUMP JUMPDEST POP POP JUMP JUMPDEST PUSH1 0x4 SLOAD PUSH1 0x60 SWAP1 PUSH1 0xFF AND PUSH2 0xCF9 JUMPI PUSH1 0x40 MLOAD PUSH3 0x461BCD PUSH1 0xE5 SHL DUP2 MSTORE PUSH1 0x4 ADD PUSH2 0x3A1 SWAP1 PUSH2 0x1079 JUMP JUMPDEST PUSH1 0x1 PUSH1 0x1 PUSH1 0xA0 SHL SUB DUP4 AND EXTCODESIZE PUSH2 0xD5F JUMPI PUSH1 0x40 MLOAD PUSH3 0x461BCD PUSH1 0xE5 SHL DUP2 MSTORE PUSH1 0x20 PUSH1 0x4 DUP3 ADD MSTORE PUSH1 0x26 PUSH1 0x24 DUP3 ADD MSTORE PUSH32 0x416464726573733A2064656C65676174652063616C6C20746F206E6F6E2D636F PUSH1 0x44 DUP3 ADD MSTORE PUSH6 0x1B9D1C9858DD PUSH1 0xD2 SHL PUSH1 0x64 DUP3 ADD MSTORE PUSH1 0x84 ADD PUSH2 0x3A1 JUMP JUMPDEST PUSH1 0x0 DUP1 DUP5 PUSH1 0x1 PUSH1 0x1 PUSH1 0xA0 SHL SUB AND DUP5 PUSH1 0x40 MLOAD PUSH2 0xD7A SWAP2 SWAP1 PUSH2 0x115E JUMP JUMPDEST PUSH1 0x0 PUSH1 0x40 MLOAD DUP1 DUP4 SUB DUP2 DUP6 GAS DELEGATECALL SWAP2 POP POP RETURNDATASIZE DUP1 PUSH1 0x0 DUP2 EQ PUSH2 0xDB5 JUMPI PUSH1 0x40 MLOAD SWAP2 POP PUSH1 0x1F NOT PUSH1 0x3F RETURNDATASIZE ADD AND DUP3 ADD PUSH1 0x40 MSTORE RETURNDATASIZE DUP3 MSTORE RETURNDATASIZE PUSH1 0x0 PUSH1 0x20 DUP5 ADD RETURNDATACOPY PUSH2 0xDBA JUMP JUMPDEST PUSH1 0x60 SWAP2 POP JUMPDEST POP SWAP2 POP SWAP2 POP PUSH2 0xDE2 DUP3 DUP3 PUSH1 0x40 MLOAD DUP1 PUSH1 0x60 ADD PUSH1 0x40 MSTORE DUP1 PUSH1 0x27 DUP2 MSTORE PUSH1 0x20 ADD PUSH2 0x119B PUSH1 0x27 SWAP2 CODECOPY PUSH2 0xDEB JUMP JUMPDEST SWAP6 SWAP5 POP POP POP POP POP JUMP JUMPDEST PUSH1 0x60 DUP4 ISZERO PUSH2 0xDFA JUMPI POP DUP2 PUSH2 0x50A JUMP JUMPDEST DUP3 MLOAD ISZERO PUSH2 0xE0A JUMPI DUP3 MLOAD DUP1 DUP5 PUSH1 0x20 ADD REVERT JUMPDEST DUP2 PUSH1 0x40 MLOAD PUSH3 0x461BCD PUSH1 0xE5 SHL DUP2 MSTORE PUSH1 0x4 ADD PUSH2 0x3A1 SWAP2 SWAP1 PUSH2 0xFF6 JUMP JUMPDEST DUP1 ISZERO ISZERO DUP2 EQ PUSH2 0x7FF JUMPI PUSH1 0x0 DUP1 REVERT JUMPDEST PUSH1 0x0 PUSH1 0x20 DUP3 DUP5 SUB SLT ISZERO PUSH2 0xE44 JUMPI PUSH1 0x0 DUP1 REVERT JUMPDEST DUP2 CALLDATALOAD PUSH2 0x50A DUP2 PUSH2 0xE24 JUMP JUMPDEST DUP1 CALLDATALOAD PUSH1 0x1 PUSH1 0x1 PUSH1 0xA0 SHL SUB DUP2 AND DUP2 EQ PUSH2 0xE66 JUMPI PUSH1 0x0 DUP1 REVERT JUMPDEST SWAP2 SWAP1 POP JUMP JUMPDEST PUSH1 0x0 PUSH1 0x20 DUP3 DUP5 SUB SLT ISZERO PUSH2 0xE7D JUMPI PUSH1 0x0 DUP1 REVERT JUMPDEST PUSH2 0x50A DUP3 PUSH2 0xE4F JUMP JUMPDEST PUSH4 0x4E487B71 PUSH1 0xE0 SHL PUSH1 0x0 MSTORE PUSH1 0x41 PUSH1 0x4 MSTORE PUSH1 0x24 PUSH1 0x0 REVERT JUMPDEST PUSH1 0x40 MLOAD PUSH1 0x1F DUP3 ADD PUSH1 0x1F NOT AND DUP2 ADD PUSH8 0xFFFFFFFFFFFFFFFF DUP2 GT DUP3 DUP3 LT OR ISZERO PUSH2 0xEC5 JUMPI PUSH2 0xEC5 PUSH2 0xE86 JUMP JUMPDEST PUSH1 0x40 MSTORE SWAP2 SWAP1 POP JUMP JUMPDEST PUSH1 0x0 PUSH8 0xFFFFFFFFFFFFFFFF DUP3 GT ISZERO PUSH2 0xEE7 JUMPI PUSH2 0xEE7 PUSH2 0xE86 JUMP JUMPDEST POP PUSH1 0x1F ADD PUSH1 0x1F NOT AND PUSH1 0x20 ADD SWAP1 JUMP JUMPDEST PUSH1 0x0 DUP1 PUSH1 0x0 PUSH1 0x60 DUP5 DUP7 SUB SLT ISZERO PUSH2 0xF0A JUMPI PUSH1 0x0 DUP1 REVERT JUMPDEST PUSH2 0xF13 DUP5 PUSH2 0xE4F JUMP JUMPDEST SWAP3 POP PUSH1 0x20 DUP5 ADD CALLDATALOAD PUSH8 0xFFFFFFFFFFFFFFFF DUP2 GT ISZERO PUSH2 0xF2F JUMPI PUSH1 0x0 DUP1 REVERT JUMPDEST DUP5 ADD PUSH1 0x1F DUP2 ADD DUP7 SGT PUSH2 0xF40 JUMPI PUSH1 0x0 DUP1 REVERT JUMPDEST DUP1 CALLDATALOAD PUSH2 0xF53 PUSH2 0xF4E DUP3 PUSH2 0xECD JUMP JUMPDEST PUSH2 0xE9C JUMP JUMPDEST DUP2 DUP2 MSTORE DUP8 PUSH1 0x20 DUP4 DUP6 ADD ADD GT ISZERO PUSH2 0xF68 JUMPI PUSH1 0x0 DUP1 REVERT JUMPDEST DUP2 PUSH1 0x20 DUP5 ADD PUSH1 0x20 DUP4 ADD CALLDATACOPY PUSH1 0x0 PUSH1 0x20 DUP4 DUP4 ADD ADD MSTORE DUP1 SWAP5 POP POP POP POP PUSH1 0x40 DUP5 ADD CALLDATALOAD PUSH2 0xF8F DUP2 PUSH2 0xE24 JUMP JUMPDEST DUP1 SWAP2 POP POP SWAP3 POP SWAP3 POP SWAP3 JUMP JUMPDEST PUSH1 0x0 JUMPDEST DUP4 DUP2 LT ISZERO PUSH2 0xFB5 JUMPI DUP2 DUP2 ADD MLOAD DUP4 DUP3 ADD MSTORE PUSH1 0x20 ADD PUSH2 0xF9D JUMP JUMPDEST DUP4 DUP2 GT ISZERO PUSH2 0xFC4 JUMPI PUSH1 0x0 DUP5 DUP5 ADD MSTORE JUMPDEST POP POP POP POP JUMP JUMPDEST PUSH1 0x0 DUP2 MLOAD DUP1 DUP5 MSTORE PUSH2 0xFE2 DUP2 PUSH1 0x20 DUP7 ADD PUSH1 0x20 DUP7 ADD PUSH2 0xF9A JUMP JUMPDEST PUSH1 0x1F ADD PUSH1 0x1F NOT AND SWAP3 SWAP1 SWAP3 ADD PUSH1 0x20 ADD SWAP3 SWAP2 POP POP JUMP JUMPDEST PUSH1 0x20 DUP2 MSTORE PUSH1 0x0 PUSH2 0x50A PUSH1 0x20 DUP4 ADD DUP5 PUSH2 0xFCA JUMP JUMPDEST PUSH1 0x1 DUP2 DUP2 SHR SWAP1 DUP3 AND DUP1 PUSH2 0x101D JUMPI PUSH1 0x7F DUP3 AND SWAP2 POP JUMPDEST PUSH1 0x20 DUP3 LT DUP2 SUB PUSH2 0x103D JUMPI PUSH4 0x4E487B71 PUSH1 0xE0 SHL PUSH1 0x0 MSTORE PUSH1 0x22 PUSH1 0x4 MSTORE PUSH1 0x24 PUSH1 0x0 REVERT JUMPDEST POP SWAP2 SWAP1 POP JUMP JUMPDEST PUSH1 0x0 PUSH1 0x20 DUP3 DUP5 SUB SLT ISZERO PUSH2 0x1055 JUMPI PUSH1 0x0 DUP1 REVERT JUMPDEST POP MLOAD SWAP2 SWAP1 POP JUMP JUMPDEST PUSH1 0x0 PUSH1 0x20 DUP3 DUP5 SUB SLT ISZERO PUSH2 0x106E JUMPI PUSH1 0x0 DUP1 REVERT JUMPDEST DUP2 MLOAD PUSH2 0x50A DUP2 PUSH2 0xE24 JUMP JUMPDEST PUSH1 0x20 DUP1 DUP3 MSTORE PUSH1 0x18 SWAP1 DUP3 ADD MSTORE PUSH32 0x436F6E74657874204973204E6F74204163746976617465640000000000000000 PUSH1 0x40 DUP3 ADD MSTORE PUSH1 0x60 ADD SWAP1 JUMP JUMPDEST PUSH1 0x0 PUSH1 0x20 DUP3 DUP5 SUB SLT ISZERO PUSH2 0x10C2 JUMPI PUSH1 0x0 DUP1 REVERT JUMPDEST DUP2 MLOAD PUSH8 0xFFFFFFFFFFFFFFFF DUP2 GT ISZERO PUSH2 0x10D9 JUMPI PUSH1 0x0 DUP1 REVERT JUMPDEST DUP3 ADD PUSH1 0x1F DUP2 ADD DUP5 SGT PUSH2 0x10EA JUMPI PUSH1 0x0 DUP1 REVERT JUMPDEST DUP1 MLOAD PUSH2 0x10F8 PUSH2 0xF4E DUP3 PUSH2 0xECD JUMP JUMPDEST DUP2 DUP2 MSTORE DUP6 PUSH1 0x20 DUP4 DUP6 ADD ADD GT ISZERO PUSH2 0x110D JUMPI PUSH1 0x0 DUP1 REVERT JUMPDEST PUSH2 0xDE2 DUP3 PUSH1 0x20 DUP4 ADD PUSH1 0x20 DUP7 ADD PUSH2 0xF9A JUMP JUMPDEST PUSH1 0x1 PUSH1 0x1 PUSH1 0xA0 SHL SUB DUP5 AND DUP2 MSTORE PUSH1 0x60 PUSH1 0x20 DUP3 ADD DUP2 SWAP1 MSTORE PUSH1 0x0 SWAP1 PUSH2 0x1142 SWAP1 DUP4 ADD DUP6 PUSH2 0xFCA JUMP JUMPDEST DUP3 DUP2 SUB PUSH1 0x40 DUP5 ADD MSTORE PUSH2 0x1154 DUP2 DUP6 PUSH2 0xFCA JUMP JUMPDEST SWAP7 SWAP6 POP POP POP POP POP POP JUMP JUMPDEST PUSH1 0x0 DUP3 MLOAD PUSH2 0x1170 DUP2 DUP5 PUSH1 0x20 DUP8 ADD PUSH2 0xF9A JUMP JUMPDEST SWAP2 SWAP1 SWAP2 ADD SWAP3 SWAP2 POP POP JUMP INVALID CALLDATASIZE ADDMOD SWAP5 LOG1 EXTCODESIZE LOG1 LOG3 0x21 MOD PUSH8 0xC828492DB98DCA3E KECCAK256 PUSH23 0xCC3735A920A3CA505D382BBC416464726573733A206C6F PUSH24 0x2D6C6576656C2064656C65676174652063616C6C20666169 PUSH13 0x6564A264697066735822122004 GAS 0x29 0x4C 0xEE PUSH6 0x91528E9B74F7 0xDB 0xD4 0xA9 SLOAD CODESIZE 0xB9 BALANCE 0xC8 SWAP11 0xE1 DUP13 0xC0 0xDF 0xF7 MUL PUSH16 0xFF142E964736F6C634300080F003349 PUSH15 0x697469616C697A61626C653A20636F PUSH15 0x747261637420697320616C726561B5 BALANCE 0x27 PUSH9 0x4A568B3173AE13B9F8 0xA6 ADD PUSH15 0x243E63B6E8EE1178D6A717850B5D61 SUB "
    },
    "gasEstimates": {
      "creation": {
        "codeDepositCost": "919800",
        "executionCost": "infinite",
        "totalCost": "infinite"
      },
      "external": {
        "": "infinite",
        "getProxyAdmin()": "2423",
        "implementation()": "infinite",
        "isActivated()": "2338",
        "isUpgradable()": "2415",
        "proxiableUUID()": "infinite",
        "setActivity(bool)": "28965",
        "setProxyAdmin(address)": "29001",
        "setUpgradability(bool)": "28908",
        "subjectContext()": "379",
        "subjectName()": "infinite",
        "subjectRealm()": "2359",
        "subjectVersion()": "infinite",
        "upgradeTo(address,bytes,bool)": "infinite"
      }
    },
    "methodIdentifiers": {
      "getProxyAdmin()": "8b3240a0",
      "implementation()": "5c60da1b",
      "isActivated()": "4a8c1fb4",
      "isUpgradable()": "5479d940",
      "proxiableUUID()": "52d1902d",
      "setActivity(bool)": "9dd07254",
      "setProxyAdmin(address)": "47c02661",
      "setUpgradability(bool)": "133899f5",
      "subjectContext()": "4bce20dd",
      "subjectName()": "900574a5",
      "subjectRealm()": "886ddb52",
      "subjectVersion()": "cf891e2b",
      "upgradeTo(address,bytes,bool)": "7147855d"
    }
  },
  "storageLayout": {
    "storage": [
      {
        "astId": 2560,
        "contract": "src/contracts/acl/ACLManagement.sol:ACLManager",
        "label": "_livelyACL",
        "offset": 0,
        "slot": "0",
        "type": "t_address"
      },
      {
        "astId": 2562,
        "contract": "src/contracts/acl/ACLManagement.sol:ACLManager",
        "label": "_domainName",
        "offset": 0,
        "slot": "1",
        "type": "t_string_storage"
      },
      {
        "astId": 2564,
        "contract": "src/contracts/acl/ACLManagement.sol:ACLManager",
        "label": "_domainVersion",
        "offset": 0,
        "slot": "2",
        "type": "t_string_storage"
      },
      {
        "astId": 2566,
        "contract": "src/contracts/acl/ACLManagement.sol:ACLManager",
        "label": "_domainRealmHash",
        "offset": 0,
        "slot": "3",
        "type": "t_bytes32"
      },
      {
        "astId": 2568,
        "contract": "src/contracts/acl/ACLManagement.sol:ACLManager",
        "label": "_isEnabled",
        "offset": 0,
        "slot": "4",
        "type": "t_bool"
      },
      {
        "astId": 2570,
        "contract": "src/contracts/acl/ACLManagement.sol:ACLManager",
        "label": "_isUpgradable",
        "offset": 1,
        "slot": "4",
        "type": "t_bool"
      },
      {
        "astId": 2575,
        "contract": "src/contracts/acl/ACLManagement.sol:ACLManager",
        "label": "__gap",
        "offset": 0,
        "slot": "5",
        "type": "t_array(t_uint256)64_storage"
      },
      {
        "astId": 2717,
        "contract": "src/contracts/acl/ACLManagement.sol:ACLManager",
        "label": "_initialized",
        "offset": 0,
        "slot": "69",
        "type": "t_uint16"
      },
      {
        "astId": 2720,
        "contract": "src/contracts/acl/ACLManagement.sol:ACLManager",
        "label": "_initializing",
        "offset": 2,
        "slot": "69",
        "type": "t_bool"
      },
      {
        "astId": 3164,
        "contract": "src/contracts/acl/ACLManagement.sol:ACLManager",
        "label": "__gap",
        "offset": 0,
        "slot": "70",
        "type": "t_array(t_uint256)64_storage"
      },
      {
        "astId": 84,
        "contract": "src/contracts/acl/ACLManagement.sol:ACLManager",
        "label": "_ctxMap",
        "offset": 0,
        "slot": "134",
        "type": "t_mapping(t_bytes32,t_struct(Context)51_storage)"
      },
      {
        "astId": 89,
        "contract": "src/contracts/acl/ACLManagement.sol:ACLManager",
        "label": "_roleMap",
        "offset": 0,
        "slot": "135",
        "type": "t_mapping(t_bytes32,t_struct(Role)61_storage)"
      },
      {
        "astId": 94,
        "contract": "src/contracts/acl/ACLManagement.sol:ACLManager",
        "label": "_realmMap",
        "offset": 0,
        "slot": "136",
        "type": "t_mapping(t_bytes32,t_struct(Realm)71_storage)"
      },
      {
        "astId": 99,
        "contract": "src/contracts/acl/ACLManagement.sol:ACLManager",
        "label": "_groupMap",
        "offset": 0,
        "slot": "137",
        "type": "t_mapping(t_bytes32,t_struct(Group)79_storage)"
      },
      {
        "astId": 102,
        "contract": "src/contracts/acl/ACLManagement.sol:ACLManager",
        "label": "LIVELY_REALM",
        "offset": 0,
        "slot": "138",
        "type": "t_struct(Realm)71_storage"
      },
      {
        "astId": 105,
        "contract": "src/contracts/acl/ACLManagement.sol:ACLManager",
        "label": "LIVELY_GROUP",
        "offset": 0,
        "slot": "142",
        "type": "t_struct(Group)79_storage"
      },
      {
        "astId": 108,
        "contract": "src/contracts/acl/ACLManagement.sol:ACLManager",
        "label": "LIVELY_ADMIN",
        "offset": 0,
        "slot": "146",
        "type": "t_struct(Role)61_storage"
      },
      {
        "astId": 111,
        "contract": "src/contracts/acl/ACLManagement.sol:ACLManager",
        "label": "SYSTEM_ADMIN",
        "offset": 0,
        "slot": "152",
        "type": "t_struct(Role)61_storage"
      }
    ],
    "types": {
      "t_address": {
        "encoding": "inplace",
        "label": "address",
        "numberOfBytes": "20"
      },
      "t_array(t_bytes32)dyn_storage": {
        "base": "t_bytes32",
        "encoding": "dynamic_array",
        "label": "bytes32[]",
        "numberOfBytes": "32"
      },
      "t_array(t_uint256)64_storage": {
        "base": "t_uint256",
        "encoding": "inplace",
        "label": "uint256[64]",
        "numberOfBytes": "2048"
      },
      "t_bool": {
        "encoding": "inplace",
        "label": "bool",
        "numberOfBytes": "1"
      },
      "t_bytes32": {
        "encoding": "inplace",
        "label": "bytes32",
        "numberOfBytes": "32"
      },
      "t_enum(Status)28": {
        "encoding": "inplace",
        "label": "enum ACLManager.Status",
        "numberOfBytes": "1"
      },
      "t_mapping(t_bytes32,t_bytes32)": {
        "encoding": "mapping",
        "key": "t_bytes32",
        "label": "mapping(bytes32 => bytes32)",
        "numberOfBytes": "32",
        "value": "t_bytes32"
      },
      "t_mapping(t_bytes32,t_enum(Status)28)": {
        "encoding": "mapping",
        "key": "t_bytes32",
        "label": "mapping(bytes32 => enum ACLManager.Status)",
        "numberOfBytes": "32",
        "value": "t_enum(Status)28"
      },
      "t_mapping(t_bytes32,t_mapping(t_bytes32,t_enum(Status)28))": {
        "encoding": "mapping",
        "key": "t_bytes32",
        "label": "mapping(bytes32 => mapping(bytes32 => enum ACLManager.Status))",
        "numberOfBytes": "32",
        "value": "t_mapping(t_bytes32,t_enum(Status)28)"
      },
      "t_mapping(t_bytes32,t_struct(Context)51_storage)": {
        "encoding": "mapping",
        "key": "t_bytes32",
        "label": "mapping(bytes32 => struct ACLManager.Context)",
        "numberOfBytes": "32",
        "value": "t_struct(Context)51_storage"
      },
      "t_mapping(t_bytes32,t_struct(Group)79_storage)": {
        "encoding": "mapping",
        "key": "t_bytes32",
        "label": "mapping(bytes32 => struct ACLManager.Group)",
        "numberOfBytes": "32",
        "value": "t_struct(Group)79_storage"
      },
      "t_mapping(t_bytes32,t_struct(Realm)71_storage)": {
        "encoding": "mapping",
        "key": "t_bytes32",
        "label": "mapping(bytes32 => struct ACLManager.Realm)",
        "numberOfBytes": "32",
        "value": "t_struct(Realm)71_storage"
      },
      "t_mapping(t_bytes32,t_struct(Role)61_storage)": {
        "encoding": "mapping",
        "key": "t_bytes32",
        "label": "mapping(bytes32 => struct ACLManager.Role)",
        "numberOfBytes": "32",
        "value": "t_struct(Role)61_storage"
      },
      "t_mapping(t_bytes32,t_uint256)": {
        "encoding": "mapping",
        "key": "t_bytes32",
        "label": "mapping(bytes32 => uint256)",
        "numberOfBytes": "32",
        "value": "t_uint256"
      },
      "t_string_storage": {
        "encoding": "bytes",
        "label": "string",
        "numberOfBytes": "32"
      },
      "t_struct(AddressToUintMap)978_storage": {
        "encoding": "inplace",
        "label": "struct EnumerableMap.AddressToUintMap",
        "members": [
          {
            "astId": 977,
            "contract": "src/contracts/acl/ACLManagement.sol:ACLManager",
            "label": "_inner",
            "offset": 0,
            "slot": "0",
            "type": "t_struct(Bytes32ToBytes32Map)511_storage"
          }
        ],
        "numberOfBytes": "96"
      },
      "t_struct(Bytes32Set)1429_storage": {
        "encoding": "inplace",
        "label": "struct EnumerableSet.Bytes32Set",
        "members": [
          {
            "astId": 1428,
            "contract": "src/contracts/acl/ACLManagement.sol:ACLManager",
            "label": "_inner",
            "offset": 0,
            "slot": "0",
            "type": "t_struct(Set)1235_storage"
          }
        ],
        "numberOfBytes": "64"
      },
      "t_struct(Bytes32ToBytes32Map)511_storage": {
        "encoding": "inplace",
        "label": "struct EnumerableMap.Bytes32ToBytes32Map",
        "members": [
          {
            "astId": 506,
            "contract": "src/contracts/acl/ACLManagement.sol:ACLManager",
            "label": "_keys",
            "offset": 0,
            "slot": "0",
            "type": "t_struct(Bytes32Set)1429_storage"
          },
          {
            "astId": 510,
            "contract": "src/contracts/acl/ACLManagement.sol:ACLManager",
            "label": "_values",
            "offset": 0,
            "slot": "2",
            "type": "t_mapping(t_bytes32,t_bytes32)"
          }
        ],
        "numberOfBytes": "96"
      },
      "t_struct(Context)51_storage": {
        "encoding": "inplace",
        "label": "struct ACLManager.Context",
        "members": [
          {
            "astId": 30,
            "contract": "src/contracts/acl/ACLManagement.sol:ACLManager",
            "label": "name",
            "offset": 0,
            "slot": "0",
            "type": "t_string_storage"
          },
          {
            "astId": 32,
            "contract": "src/contracts/acl/ACLManagement.sol:ACLManager",
            "label": "version",
            "offset": 0,
            "slot": "1",
            "type": "t_string_storage"
          },
          {
            "astId": 34,
            "contract": "src/contracts/acl/ACLManagement.sol:ACLManager",
            "label": "realm",
            "offset": 0,
            "slot": "2",
            "type": "t_bytes32"
          },
          {
            "astId": 36,
            "contract": "src/contracts/acl/ACLManagement.sol:ACLManager",
            "label": "smca",
            "offset": 0,
            "slot": "3",
            "type": "t_address"
          },
          {
            "astId": 38,
            "contract": "src/contracts/acl/ACLManagement.sol:ACLManager",
            "label": "isEnabled",
            "offset": 20,
            "slot": "3",
            "type": "t_bool"
          },
          {
            "astId": 40,
            "contract": "src/contracts/acl/ACLManagement.sol:ACLManager",
            "label": "isUpgradable",
            "offset": 21,
            "slot": "3",
            "type": "t_bool"
          },
          {
            "astId": 47,
            "contract": "src/contracts/acl/ACLManagement.sol:ACLManager",
            "label": "resources",
            "offset": 0,
            "slot": "4",
            "type": "t_mapping(t_bytes32,t_mapping(t_bytes32,t_enum(Status)28))"
          },
          {
            "astId": 50,
            "contract": "src/contracts/acl/ACLManagement.sol:ACLManager",
            "label": "funcSet",
            "offset": 0,
            "slot": "5",
            "type": "t_struct(Bytes32Set)1429_storage"
          }
        ],
        "numberOfBytes": "224"
      },
      "t_struct(Group)79_storage": {
        "encoding": "inplace",
        "label": "struct ACLManager.Group",
        "members": [
          {
            "astId": 73,
            "contract": "src/contracts/acl/ACLManagement.sol:ACLManager",
            "label": "name",
            "offset": 0,
            "slot": "0",
            "type": "t_string_storage"
          },
          {
            "astId": 75,
            "contract": "src/contracts/acl/ACLManagement.sol:ACLManager",
            "label": "isEnabled",
            "offset": 0,
            "slot": "1",
            "type": "t_bool"
          },
          {
            "astId": 78,
            "contract": "src/contracts/acl/ACLManagement.sol:ACLManager",
            "label": "roles",
            "offset": 0,
            "slot": "2",
            "type": "t_struct(Bytes32Set)1429_storage"
          }
        ],
        "numberOfBytes": "128"
      },
      "t_struct(Realm)71_storage": {
        "encoding": "inplace",
        "label": "struct ACLManager.Realm",
        "members": [
          {
            "astId": 63,
            "contract": "src/contracts/acl/ACLManagement.sol:ACLManager",
            "label": "name",
            "offset": 0,
            "slot": "0",
            "type": "t_string_storage"
          },
          {
            "astId": 65,
            "contract": "src/contracts/acl/ACLManagement.sol:ACLManager",
            "label": "isEnabled",
            "offset": 0,
            "slot": "1",
            "type": "t_bool"
          },
          {
            "astId": 67,
            "contract": "src/contracts/acl/ACLManagement.sol:ACLManager",
            "label": "isUpgradable",
            "offset": 1,
            "slot": "1",
            "type": "t_bool"
          },
          {
            "astId": 70,
            "contract": "src/contracts/acl/ACLManagement.sol:ACLManager",
            "label": "ctxSet",
            "offset": 0,
            "slot": "2",
            "type": "t_struct(Bytes32Set)1429_storage"
          }
        ],
        "numberOfBytes": "128"
      },
      "t_struct(Role)61_storage": {
        "encoding": "inplace",
        "label": "struct ACLManager.Role",
        "members": [
          {
            "astId": 53,
            "contract": "src/contracts/acl/ACLManagement.sol:ACLManager",
            "label": "name",
            "offset": 0,
            "slot": "0",
            "type": "t_string_storage"
          },
          {
            "astId": 55,
            "contract": "src/contracts/acl/ACLManagement.sol:ACLManager",
            "label": "group",
            "offset": 0,
            "slot": "1",
            "type": "t_bytes32"
          },
          {
            "astId": 57,
            "contract": "src/contracts/acl/ACLManagement.sol:ACLManager",
            "label": "isEnabled",
            "offset": 0,
            "slot": "2",
            "type": "t_bool"
          },
          {
            "astId": 60,
            "contract": "src/contracts/acl/ACLManagement.sol:ACLManager",
            "label": "userMap",
            "offset": 0,
            "slot": "3",
            "type": "t_struct(AddressToUintMap)978_storage"
          }
        ],
        "numberOfBytes": "192"
      },
      "t_struct(Set)1235_storage": {
        "encoding": "inplace",
        "label": "struct EnumerableSet.Set",
        "members": [
          {
            "astId": 1230,
            "contract": "src/contracts/acl/ACLManagement.sol:ACLManager",
            "label": "_values",
            "offset": 0,
            "slot": "0",
            "type": "t_array(t_bytes32)dyn_storage"
          },
          {
            "astId": 1234,
            "contract": "src/contracts/acl/ACLManagement.sol:ACLManager",
            "label": "_indexes",
            "offset": 0,
            "slot": "1",
            "type": "t_mapping(t_bytes32,t_uint256)"
          }
        ],
        "numberOfBytes": "64"
      },
      "t_uint16": {
        "encoding": "inplace",
        "label": "uint16",
        "numberOfBytes": "2"
      },
      "t_uint256": {
        "encoding": "inplace",
        "label": "uint256",
        "numberOfBytes": "32"
      }
    }
  },
  "userdoc": {
    "kind": "user",
    "methods": {},
    "version": 1
  }
}