{
  "contractName": "AssetManagerERC20",
  "sourceName": "src/contracts/token/asset/AssetManagerERC20.sol",
  "abi": [
    {
      "inputs": [],
      "stateMutability": "nonpayable",
      "type": "constructor"
    },
    {
      "anonymous": false,
      "inputs": [
        {
          "indexed": true,
          "internalType": "address",
          "name": "sender",
          "type": "address"
        },
        {
          "indexed": true,
          "internalType": "address",
          "name": "assetId",
          "type": "address"
        },
        {
          "indexed": true,
          "internalType": "address",
          "name": "tokenId",
          "type": "address"
        },
        {
          "indexed": false,
          "internalType": "address",
          "name": "assetImpl",
          "type": "address"
        }
      ],
      "name": "AssetCreated",
      "type": "event"
    },
    {
      "anonymous": false,
      "inputs": [
        {
          "indexed": true,
          "internalType": "address",
          "name": "sender",
          "type": "address"
        },
        {
          "indexed": true,
          "internalType": "address",
          "name": "assetImpl",
          "type": "address"
        }
      ],
      "name": "AssetImplUpdated",
      "type": "event"
    },
    {
      "anonymous": false,
      "inputs": [
        {
          "indexed": true,
          "internalType": "address",
          "name": "sender",
          "type": "address"
        },
        {
          "indexed": true,
          "internalType": "address",
          "name": "assetId",
          "type": "address"
        },
        {
          "indexed": true,
          "internalType": "address",
          "name": "tokenId",
          "type": "address"
        }
      ],
      "name": "AssetRemoved",
      "type": "event"
    },
    {
      "anonymous": false,
      "inputs": [
        {
          "indexed": true,
          "internalType": "address",
          "name": "sender",
          "type": "address"
        },
        {
          "indexed": true,
          "internalType": "address",
          "name": "proxy",
          "type": "address"
        },
        {
          "indexed": true,
          "internalType": "address",
          "name": "subject",
          "type": "address"
        },
        {
          "indexed": false,
          "internalType": "string",
          "name": "name",
          "type": "string"
        },
        {
          "indexed": false,
          "internalType": "string",
          "name": "version",
          "type": "string"
        },
        {
          "indexed": false,
          "internalType": "bytes32",
          "name": "realm",
          "type": "bytes32"
        },
        {
          "indexed": false,
          "internalType": "uint16",
          "name": "initCount",
          "type": "uint16"
        }
      ],
      "name": "Initialized",
      "type": "event"
    },
    {
      "anonymous": false,
      "inputs": [
        {
          "indexed": true,
          "internalType": "address",
          "name": "sender",
          "type": "address"
        },
        {
          "indexed": true,
          "internalType": "address",
          "name": "proxy",
          "type": "address"
        },
        {
          "indexed": false,
          "internalType": "address",
          "name": "newAdmin",
          "type": "address"
        }
      ],
      "name": "LocalAdminChanged",
      "type": "event"
    },
    {
      "anonymous": false,
      "inputs": [
        {
          "indexed": true,
          "internalType": "address",
          "name": "sender",
          "type": "address"
        },
        {
          "indexed": true,
          "internalType": "address",
          "name": "proxy",
          "type": "address"
        },
        {
          "indexed": true,
          "internalType": "bytes32",
          "name": "realm",
          "type": "bytes32"
        },
        {
          "indexed": false,
          "internalType": "bool",
          "name": "status",
          "type": "bool"
        }
      ],
      "name": "SafeModeChanged",
      "type": "event"
    },
    {
      "anonymous": false,
      "inputs": [
        {
          "indexed": true,
          "internalType": "address",
          "name": "sender",
          "type": "address"
        },
        {
          "indexed": true,
          "internalType": "address",
          "name": "tokenId",
          "type": "address"
        },
        {
          "indexed": false,
          "internalType": "string",
          "name": "tokenName",
          "type": "string"
        },
        {
          "indexed": false,
          "internalType": "string",
          "name": "tokenSymbol",
          "type": "string"
        }
      ],
      "name": "TokenRegistered",
      "type": "event"
    },
    {
      "anonymous": false,
      "inputs": [
        {
          "indexed": true,
          "internalType": "address",
          "name": "sender",
          "type": "address"
        },
        {
          "indexed": true,
          "internalType": "address",
          "name": "tokenId",
          "type": "address"
        },
        {
          "indexed": false,
          "internalType": "bool",
          "name": "isEnabled",
          "type": "bool"
        }
      ],
      "name": "TokenSafeModeChanged",
      "type": "event"
    },
    {
      "anonymous": false,
      "inputs": [
        {
          "indexed": true,
          "internalType": "address",
          "name": "sender",
          "type": "address"
        },
        {
          "indexed": true,
          "internalType": "address",
          "name": "proxy",
          "type": "address"
        },
        {
          "indexed": true,
          "internalType": "bytes32",
          "name": "realm",
          "type": "bytes32"
        },
        {
          "indexed": false,
          "internalType": "bool",
          "name": "status",
          "type": "bool"
        }
      ],
      "name": "UpgradeStatusChanged",
      "type": "event"
    },
    {
      "anonymous": false,
      "inputs": [
        {
          "indexed": true,
          "internalType": "address",
          "name": "sender",
          "type": "address"
        },
        {
          "indexed": true,
          "internalType": "address",
          "name": "proxy",
          "type": "address"
        },
        {
          "indexed": true,
          "internalType": "address",
          "name": "newImplementation",
          "type": "address"
        }
      ],
      "name": "Upgraded",
      "type": "event"
    },
    {
      "stateMutability": "payable",
      "type": "fallback"
    },
    {
      "inputs": [],
      "name": "accessControlManager",
      "outputs": [
        {
          "internalType": "address",
          "name": "",
          "type": "address"
        }
      ],
      "stateMutability": "view",
      "type": "function"
    },
    {
      "inputs": [],
      "name": "contractContext",
      "outputs": [
        {
          "internalType": "bytes32",
          "name": "",
          "type": "bytes32"
        }
      ],
      "stateMutability": "view",
      "type": "function"
    },
    {
      "inputs": [],
      "name": "contractName",
      "outputs": [
        {
          "internalType": "bytes32",
          "name": "",
          "type": "bytes32"
        }
      ],
      "stateMutability": "view",
      "type": "function"
    },
    {
      "inputs": [],
      "name": "contractRealm",
      "outputs": [
        {
          "internalType": "bytes32",
          "name": "",
          "type": "bytes32"
        }
      ],
      "stateMutability": "view",
      "type": "function"
    },
    {
      "inputs": [],
      "name": "contractVersion",
      "outputs": [
        {
          "internalType": "bytes32",
          "name": "",
          "type": "bytes32"
        }
      ],
      "stateMutability": "view",
      "type": "function"
    },
    {
      "inputs": [
        {
          "components": [
            {
              "internalType": "bytes32",
              "name": "role",
              "type": "bytes32"
            },
            {
              "internalType": "bytes32",
              "name": "salt",
              "type": "bytes32"
            },
            {
              "internalType": "address",
              "name": "tokenId",
              "type": "address"
            },
            {
              "internalType": "string",
              "name": "assetName",
              "type": "string"
            },
            {
              "internalType": "string",
              "name": "assetVersion",
              "type": "string"
            }
          ],
          "internalType": "struct IAssetManagerERC20.CreateAssetRequest",
          "name": "request",
          "type": "tuple"
        }
      ],
      "name": "createAsset",
      "outputs": [
        {
          "internalType": "address",
          "name": "",
          "type": "address"
        }
      ],
      "stateMutability": "nonpayable",
      "type": "function"
    },
    {
      "inputs": [],
      "name": "domainSeparator",
      "outputs": [
        {
          "internalType": "bytes32",
          "name": "",
          "type": "bytes32"
        }
      ],
      "stateMutability": "view",
      "type": "function"
    },
    {
      "inputs": [],
      "name": "getAllTokens",
      "outputs": [
        {
          "internalType": "address[]",
          "name": "",
          "type": "address[]"
        }
      ],
      "stateMutability": "view",
      "type": "function"
    },
    {
      "inputs": [
        {
          "internalType": "address",
          "name": "tokenId",
          "type": "address"
        }
      ],
      "name": "getTokenInfo",
      "outputs": [
        {
          "internalType": "enum IAssetEntity.Status",
          "name": "",
          "type": "uint8"
        },
        {
          "internalType": "address[]",
          "name": "",
          "type": "address[]"
        }
      ],
      "stateMutability": "view",
      "type": "function"
    },
    {
      "inputs": [],
      "name": "initStatus",
      "outputs": [
        {
          "internalType": "bool",
          "name": "",
          "type": "bool"
        }
      ],
      "stateMutability": "view",
      "type": "function"
    },
    {
      "inputs": [],
      "name": "initVersion",
      "outputs": [
        {
          "internalType": "uint16",
          "name": "",
          "type": "uint16"
        }
      ],
      "stateMutability": "view",
      "type": "function"
    },
    {
      "inputs": [
        {
          "components": [
            {
              "internalType": "string",
              "name": "domainName",
              "type": "string"
            },
            {
              "internalType": "string",
              "name": "domainVersion",
              "type": "string"
            },
            {
              "internalType": "string",
              "name": "domainRealm",
              "type": "string"
            },
            {
              "internalType": "address",
              "name": "accessControlManager",
              "type": "address"
            },
            {
              "internalType": "address",
              "name": "assetImplERC20",
              "type": "address"
            },
            {
              "internalType": "bytes",
              "name": "assetManagerSignature",
              "type": "bytes"
            },
            {
              "internalType": "bytes",
              "name": "assetCreationSignature",
              "type": "bytes"
            }
          ],
          "internalType": "struct AssetManagerERC20.InitRequest",
          "name": "request",
          "type": "tuple"
        }
      ],
      "name": "initialize",
      "outputs": [],
      "stateMutability": "nonpayable",
      "type": "function"
    },
    {
      "inputs": [
        {
          "internalType": "address",
          "name": "assetId",
          "type": "address"
        }
      ],
      "name": "isAssetExists",
      "outputs": [
        {
          "internalType": "bool",
          "name": "",
          "type": "bool"
        }
      ],
      "stateMutability": "view",
      "type": "function"
    },
    {
      "inputs": [],
      "name": "isSafeMode",
      "outputs": [
        {
          "internalType": "bool",
          "name": "",
          "type": "bool"
        }
      ],
      "stateMutability": "view",
      "type": "function"
    },
    {
      "inputs": [
        {
          "internalType": "address",
          "name": "assetId",
          "type": "address"
        }
      ],
      "name": "isSafeModeAsset",
      "outputs": [
        {
          "internalType": "bool",
          "name": "",
          "type": "bool"
        }
      ],
      "stateMutability": "view",
      "type": "function"
    },
    {
      "inputs": [
        {
          "internalType": "address",
          "name": "tokenId",
          "type": "address"
        }
      ],
      "name": "isTokenExists",
      "outputs": [
        {
          "internalType": "bool",
          "name": "",
          "type": "bool"
        }
      ],
      "stateMutability": "view",
      "type": "function"
    },
    {
      "inputs": [],
      "name": "isUpgradable",
      "outputs": [
        {
          "internalType": "bool",
          "name": "",
          "type": "bool"
        }
      ],
      "stateMutability": "view",
      "type": "function"
    },
    {
      "inputs": [
        {
          "internalType": "address",
          "name": "tokenId",
          "type": "address"
        }
      ],
      "name": "livelyTokensDistribution",
      "outputs": [
        {
          "internalType": "bool",
          "name": "",
          "type": "bool"
        }
      ],
      "stateMutability": "nonpayable",
      "type": "function"
    },
    {
      "inputs": [],
      "name": "localAdmin",
      "outputs": [
        {
          "internalType": "address",
          "name": "",
          "type": "address"
        }
      ],
      "stateMutability": "view",
      "type": "function"
    },
    {
      "inputs": [
        {
          "internalType": "address",
          "name": "base",
          "type": "address"
        },
        {
          "internalType": "bytes32",
          "name": "salt",
          "type": "bytes32"
        }
      ],
      "name": "predictAddress",
      "outputs": [
        {
          "internalType": "address",
          "name": "",
          "type": "address"
        }
      ],
      "stateMutability": "view",
      "type": "function"
    },
    {
      "inputs": [],
      "name": "proxiableUUID",
      "outputs": [
        {
          "internalType": "bytes32",
          "name": "",
          "type": "bytes32"
        }
      ],
      "stateMutability": "view",
      "type": "function"
    },
    {
      "inputs": [],
      "name": "registerAssetRoles",
      "outputs": [],
      "stateMutability": "nonpayable",
      "type": "function"
    },
    {
      "inputs": [
        {
          "internalType": "address",
          "name": "tokenId",
          "type": "address"
        }
      ],
      "name": "registerToken",
      "outputs": [
        {
          "internalType": "bool",
          "name": "",
          "type": "bool"
        }
      ],
      "stateMutability": "nonpayable",
      "type": "function"
    },
    {
      "inputs": [
        {
          "internalType": "address",
          "name": "assetId",
          "type": "address"
        }
      ],
      "name": "removeAsset",
      "outputs": [
        {
          "internalType": "bool",
          "name": "",
          "type": "bool"
        }
      ],
      "stateMutability": "nonpayable",
      "type": "function"
    },
    {
      "inputs": [
        {
          "internalType": "address",
          "name": "newLocalAdmin",
          "type": "address"
        }
      ],
      "name": "setLocalAdmin",
      "outputs": [
        {
          "internalType": "bool",
          "name": "",
          "type": "bool"
        }
      ],
      "stateMutability": "nonpayable",
      "type": "function"
    },
    {
      "inputs": [
        {
          "internalType": "bool",
          "name": "status",
          "type": "bool"
        }
      ],
      "name": "setSafeMode",
      "outputs": [
        {
          "internalType": "bool",
          "name": "",
          "type": "bool"
        }
      ],
      "stateMutability": "nonpayable",
      "type": "function"
    },
    {
      "inputs": [
        {
          "internalType": "address",
          "name": "tokenId",
          "type": "address"
        },
        {
          "internalType": "bool",
          "name": "isEnabled",
          "type": "bool"
        }
      ],
      "name": "setSafeModeToken",
      "outputs": [
        {
          "internalType": "bool",
          "name": "",
          "type": "bool"
        }
      ],
      "stateMutability": "nonpayable",
      "type": "function"
    },
    {
      "inputs": [
        {
          "internalType": "bool",
          "name": "status",
          "type": "bool"
        }
      ],
      "name": "setUpgradeStatus",
      "outputs": [
        {
          "internalType": "bool",
          "name": "",
          "type": "bool"
        }
      ],
      "stateMutability": "nonpayable",
      "type": "function"
    },
    {
      "inputs": [],
      "name": "subjectAddress",
      "outputs": [
        {
          "internalType": "address",
          "name": "",
          "type": "address"
        }
      ],
      "stateMutability": "view",
      "type": "function"
    },
    {
      "inputs": [
        {
          "internalType": "bytes4",
          "name": "interfaceId",
          "type": "bytes4"
        }
      ],
      "name": "supportsInterface",
      "outputs": [
        {
          "internalType": "bool",
          "name": "",
          "type": "bool"
        }
      ],
      "stateMutability": "view",
      "type": "function"
    },
    {
      "inputs": [
        {
          "internalType": "address",
          "name": "assetId",
          "type": "address"
        },
        {
          "internalType": "address",
          "name": "spender",
          "type": "address"
        },
        {
          "internalType": "uint256",
          "name": "amount",
          "type": "uint256"
        }
      ],
      "name": "tokenApprove",
      "outputs": [
        {
          "internalType": "bool",
          "name": "",
          "type": "bool"
        }
      ],
      "stateMutability": "nonpayable",
      "type": "function"
    },
    {
      "inputs": [
        {
          "internalType": "address",
          "name": "tokenId",
          "type": "address"
        },
        {
          "components": [
            {
              "internalType": "address",
              "name": "source",
              "type": "address"
            },
            {
              "internalType": "address",
              "name": "dest",
              "type": "address"
            },
            {
              "internalType": "uint256",
              "name": "timestamp",
              "type": "uint256"
            },
            {
              "internalType": "uint256",
              "name": "amount",
              "type": "uint256"
            }
          ],
          "internalType": "struct IERC20Lock.LockTokenRequest[]",
          "name": "lockRequests",
          "type": "tuple[]"
        }
      ],
      "name": "tokenBatchLock",
      "outputs": [
        {
          "internalType": "bytes32[]",
          "name": "",
          "type": "bytes32[]"
        }
      ],
      "stateMutability": "nonpayable",
      "type": "function"
    },
    {
      "inputs": [
        {
          "internalType": "address",
          "name": "assetId",
          "type": "address"
        },
        {
          "components": [
            {
              "internalType": "address",
              "name": "to",
              "type": "address"
            },
            {
              "internalType": "uint256",
              "name": "amount",
              "type": "uint256"
            }
          ],
          "internalType": "struct IERC20Extra.BatchTransferRequest[]",
          "name": "request",
          "type": "tuple[]"
        }
      ],
      "name": "tokenBatchTransfer",
      "outputs": [
        {
          "internalType": "bool",
          "name": "",
          "type": "bool"
        }
      ],
      "stateMutability": "nonpayable",
      "type": "function"
    },
    {
      "inputs": [
        {
          "internalType": "address",
          "name": "assetId",
          "type": "address"
        },
        {
          "components": [
            {
              "internalType": "address",
              "name": "from",
              "type": "address"
            },
            {
              "internalType": "address",
              "name": "to",
              "type": "address"
            },
            {
              "internalType": "uint256",
              "name": "amount",
              "type": "uint256"
            }
          ],
          "internalType": "struct IERC20Extra.BatchTransferFromRequest[]",
          "name": "request",
          "type": "tuple[]"
        }
      ],
      "name": "tokenBatchTransferFrom",
      "outputs": [
        {
          "internalType": "bool",
          "name": "",
          "type": "bool"
        }
      ],
      "stateMutability": "nonpayable",
      "type": "function"
    },
    {
      "inputs": [
        {
          "internalType": "address",
          "name": "assetId",
          "type": "address"
        },
        {
          "internalType": "address",
          "name": "spender",
          "type": "address"
        },
        {
          "internalType": "uint256",
          "name": "amount",
          "type": "uint256"
        }
      ],
      "name": "tokenDecreaseAllowance",
      "outputs": [
        {
          "internalType": "uint256",
          "name": "",
          "type": "uint256"
        }
      ],
      "stateMutability": "nonpayable",
      "type": "function"
    },
    {
      "inputs": [
        {
          "internalType": "address",
          "name": "assetId",
          "type": "address"
        },
        {
          "internalType": "address",
          "name": "spender",
          "type": "address"
        },
        {
          "internalType": "uint256",
          "name": "amount",
          "type": "uint256"
        }
      ],
      "name": "tokenIncreaseAllowance",
      "outputs": [
        {
          "internalType": "uint256",
          "name": "",
          "type": "uint256"
        }
      ],
      "stateMutability": "nonpayable",
      "type": "function"
    },
    {
      "inputs": [
        {
          "internalType": "address",
          "name": "tokenId",
          "type": "address"
        },
        {
          "components": [
            {
              "internalType": "address",
              "name": "source",
              "type": "address"
            },
            {
              "internalType": "address",
              "name": "dest",
              "type": "address"
            },
            {
              "internalType": "uint256",
              "name": "timestamp",
              "type": "uint256"
            },
            {
              "internalType": "uint256",
              "name": "amount",
              "type": "uint256"
            }
          ],
          "internalType": "struct IERC20Lock.LockTokenRequest",
          "name": "lockRequest",
          "type": "tuple"
        }
      ],
      "name": "tokenLock",
      "outputs": [
        {
          "internalType": "bytes32",
          "name": "",
          "type": "bytes32"
        }
      ],
      "stateMutability": "nonpayable",
      "type": "function"
    },
    {
      "inputs": [
        {
          "internalType": "address",
          "name": "assetId",
          "type": "address"
        },
        {
          "internalType": "address",
          "name": "to",
          "type": "address"
        },
        {
          "internalType": "uint256",
          "name": "amount",
          "type": "uint256"
        }
      ],
      "name": "tokenTransfer",
      "outputs": [
        {
          "internalType": "bool",
          "name": "",
          "type": "bool"
        }
      ],
      "stateMutability": "nonpayable",
      "type": "function"
    },
    {
      "inputs": [
        {
          "internalType": "address",
          "name": "assetId",
          "type": "address"
        },
        {
          "internalType": "address",
          "name": "from",
          "type": "address"
        },
        {
          "internalType": "address",
          "name": "to",
          "type": "address"
        },
        {
          "internalType": "uint256",
          "name": "amount",
          "type": "uint256"
        }
      ],
      "name": "tokenTransferFrom",
      "outputs": [
        {
          "internalType": "bool",
          "name": "",
          "type": "bool"
        }
      ],
      "stateMutability": "nonpayable",
      "type": "function"
    },
    {
      "inputs": [
        {
          "internalType": "address",
          "name": "assetImpl",
          "type": "address"
        }
      ],
      "name": "updateAssetImpl",
      "outputs": [
        {
          "internalType": "bool",
          "name": "",
          "type": "bool"
        }
      ],
      "stateMutability": "nonpayable",
      "type": "function"
    },
    {
      "inputs": [
        {
          "internalType": "address",
          "name": "newImplementation",
          "type": "address"
        },
        {
          "internalType": "bytes",
          "name": "data",
          "type": "bytes"
        },
        {
          "internalType": "bool",
          "name": "forceCall",
          "type": "bool"
        }
      ],
      "name": "upgradeTo",
      "outputs": [
        {
          "internalType": "bytes",
          "name": "",
          "type": "bytes"
        }
      ],
      "stateMutability": "nonpayable",
      "type": "function"
    },
    {
      "inputs": [
        {
          "internalType": "address",
          "name": "recepient",
          "type": "address"
        }
      ],
      "name": "withdrawBalance",
      "outputs": [],
      "stateMutability": "nonpayable",
      "type": "function"
    },
    {
      "stateMutability": "payable",
      "type": "receive"
    }
  ],
  "bytecode": "0x60a0604052306080523480156200001557600080fd5b506200004360017f360894a13ba1a3210667c828492db98dca3e2076cc3735a920a3ca505d382bbd6200011f565b7f360894a13ba1a3210667c828492db98dca3e2076cc3735a920a3ca505d382bbc1462000074576200007462000147565b620000a160017fb53127684a568b3173ae13b9f8a6016e243e63b6e8ee1178d6a717850b5d61046200011f565b60008051602062004a2283398151915214620000c157620000c162000147565b33620000ea60008051602062004a2283398151915260001b6200011c60201b6200218f1760201c565b80546001600160a01b0319166001600160a01b03929092169190911790556004805461ffff191660011790556200015d565b90565b818103818111156200014157634e487b7160e01b600052601160045260246000fd5b92915050565b634e487b7160e01b600052600160045260246000fd5b608051614863620001bf60003960008181610d4601528181610d8601528181610efb01528181610f3b015281816111b90152818161135f0152818161139f01528181611869015281816118a901528181611af00152611b3001526148636000f3fe60806040526004361061023d5760003560e01c80637147855d1161012d578063c5d39a4a116100b0578063f3913e6911610077578063f3913e69146106d7578063f698da25146106f7578063f94a0adb1461070c578063f977100e14610721578063fb3f4d2914610741578063ff4d8e4a1461076157005b8063c5d39a4a1461064d578063cb1939421461066d578063d0e8ceac1461068d578063d3e024b8146106a2578063d9dc1f19146106b757005b80639ed4fa5a116100f45780639ed4fa5a146105c2578063a0a8e460146105e2578063b484c889146105f7578063b4a0bdf314610617578063be22465d1461063557005b80637147855d1461051e578063756af45f1461054b57806375d0c0dc1461056b5780637a09941e14610580578063870666cb146105ad57005b806338d38c97116101c05780635479d940116101875780635479d94014610456578063565bf1fa1461047357806358dbc45d1461049357806360fefdec146104c0578063622110e1146104de57806367eb04e6146104fe57005b806338d38c97146103b957806344b7e5f2146103e157806348e6be1c146104015780634a5e42b11461042157806352d1902d1461044157005b80631f69565f116102045780631f69565f146103095780632a5c5803146103375780632a5c792a146103575780633091a54814610379578063373c52fa1461039957005b806301ffc9a71461024657806309824a801461027b5780630bb0ccaa1461029b57806315eaef6b146102c95780631bdc5627146102e957005b3661024457005b005b34801561025257600080fd5b506102666102613660046135ea565b610781565b60405190151581526020015b60405180910390f35b34801561028757600080fd5b5061026661029636600461361c565b6107d3565b3480156102a757600080fd5b506102bb6102b6366004613639565b6108d1565b604051908152602001610272565b3480156102d557600080fd5b506102666102e436600461367a565b610959565b3480156102f557600080fd5b506102bb61030436600461367a565b6109e8565b34801561031557600080fd5b5061032961032436600461361c565b610a6f565b6040516102729291906136ff565b34801561034357600080fd5b5061026661035236600461361c565b610aa6565b34801561036357600080fd5b5061036c610bf3565b6040516102729190613736565b34801561038557600080fd5b506102bb61039436600461367a565b610c04565b3480156103a557600080fd5b506102666103b4366004613757565b610c4c565b3480156103c557600080fd5b506103ce610d2b565b60405161ffff9091168152602001610272565b3480156103ed57600080fd5b506102666103fc366004613790565b610d3a565b34801561040d57600080fd5b5061026661041c366004613790565b610eef565b34801561042d57600080fd5b5061026661043c36600461361c565b6110b8565b34801561044d57600080fd5b506102bb6111ac565b34801561046257600080fd5b50600454610100900460ff16610266565b34801561047f57600080fd5b5061026661048e3660046137ad565b611239565b34801561049f57600080fd5b506104a861127a565b6040516001600160a01b039091168152602001610272565b3480156104cc57600080fd5b50604a5462010000900460ff16610266565b3480156104ea57600080fd5b506102666104f9366004613834565b611284565b34801561050a57600080fd5b5061026661051936600461361c565b6112c5565b34801561052a57600080fd5b5061053e61053936600461393d565b611353565b6040516102729190613a33565b34801561055757600080fd5b5061024461056636600461361c565b61147b565b34801561057757600080fd5b506001546102bb565b34801561058c57600080fd5b506105a061059b366004613a46565b611533565b6040516102729190613aba565b3480156105b957600080fd5b506102bb6115ba565b3480156105ce57600080fd5b506102666105dd36600461361c565b6115c5565b3480156105ee57600080fd5b506002546102bb565b34801561060357600080fd5b506104a8610612366004613afe565b6115d2565b34801561062357600080fd5b506000546001600160a01b03166104a8565b34801561064157600080fd5b5060045460ff16610266565b34801561065957600080fd5b5061026661066836600461361c565b6116f2565b34801561067957600080fd5b506104a8610688366004613b38565b611756565b34801561069957600080fd5b506102446117dc565b3480156106ae57600080fd5b506003546102bb565b3480156106c357600080fd5b506102666106d236600461361c565b61185d565b3480156106e357600080fd5b506102666106f2366004613b64565b6119d7565b34801561070357600080fd5b506102bb611a6e565b34801561071857600080fd5b506104a8611adc565b34801561072d57600080fd5b5061024461073c366004613bb5565b611ae6565b34801561074d57600080fd5b5061026661075c36600461367a565b612070565b34801561076d57600080fd5b5061026661077c36600461361c565b6120b8565b60006001600160e01b0319821663748be05360e01b14806107b257506001600160e01b031982166352d1902d60e01b145b806107cd57506301ffc9a760e01b6001600160e01b03198316145b92915050565b60006107e46213049560e71b612192565b60405163b5ea87b960e01b8152604760048201526001600160a01b0383166024820152600090819073__$cdf2ce6e37ccfb50337d871d83177ab89c$__9063b5ea87b990604401600060405180830381865af4158015610848573d6000803e3d6000fd5b505050506040513d6000823e601f3d908101601f191682016040526108709190810190613c34565b91509150836001600160a01b03166108853390565b6001600160a01b03167ffbe16c292428cdc3e66e97f954e91cc4f49b472d24989df1b2cdc27f295a706784846040516108bf929190613c97565b60405180910390a35060019392505050565b60006108e36305d8665560e11b6121fb565b6040516335c1ca4960e11b81526001600160a01b03841690636b8394929061090f908590600401613cfe565b6020604051808303816000875af115801561092e573d6000803e3d6000fd5b505050506040513d601f19601f820116820180604052508101906109529190613d0c565b9392505050565b600061096c846315eaef6b60e01b61281f565b604051633466d7f360e11b81526001600160a01b038481166004830152602482018490528516906368cdafe6906044015b6020604051808303816000875af11580156109bc573d6000803e3d6000fd5b505050506040513d601f19601f820116820180604052508101906109e09190613d30565b949350505050565b60006109fb84631bdc562760e01b61281f565b604051633f14901960e21b81526001600160a01b0384811660048301526024820184905285169063fc524064906044015b6020604051808303816000875af1158015610a4b573d6000803e3d6000fd5b505050506040513d601f19601f820116820180604052508101906109e09190613d0c565b6001600160a01b038116600090815260476020526040812060028101546060919060ff16610a9c82612a06565b9250925050915091565b6000610ab8632a5c580360e01b612192565b6045546001600160a01b03808416911603610b1a5760405162461bcd60e51b815260206004820152601860248201527f4173736574496d706c20416c726561647920457869737473000000000000000060448201526064015b60405180910390fd5b604051632a5c580360e01b81526001600160a01b038316600482015273__$cdf2ce6e37ccfb50337d871d83177ab89c$__90632a5c580390602401602060405180830381865af4158015610b72573d6000803e3d6000fd5b505050506040513d601f19601f82011682018060405250810190610b969190613d30565b506040516001600160a01b0383169033907f98498626e1b536df80c6ecbaa24da0937d521489d2d9b90609784e8a83fd651690600090a350604580546001600160a01b0319166001600160a01b0392909216919091179055600190565b6060610bff6048612a06565b905090565b6000610c178463061234a960e31b61281f565b604051630529747360e51b81526001600160a01b0384811660048301526024820184905285169063a52e8e6090604401610a2c565b6000610c5e631b9e297d60e11b612192565b60405182151581526001600160a01b0384169033907f5b993d7a32d62133a02f02d99f7369ff289d4574f855412034f59adb739615ec9060200160405180910390a360405163c79fd49b60e01b8152604760048201526001600160a01b0384166024820152821515604482015273__$cdf2ce6e37ccfb50337d871d83177ab89c$__9063c79fd49b90606401602060405180830381865af4158015610d07573d6000803e3d6000fd5b505050506040513d601f19601f820116820180604052508101906109529190613d30565b6000610bff604a5461ffff1690565b60006001600160a01b037f0000000000000000000000000000000000000000000000000000000000000000163003610d845760405162461bcd60e51b8152600401610b1190613d4d565b7f00000000000000000000000000000000000000000000000000000000000000006001600160a01b0316610db6612a13565b6001600160a01b031614610ddc5760405162461bcd60e51b8152600401610b1190613d7c565b6000610deb604a5461ffff1690565b61ffff1611610e3c5760405162461bcd60e51b815260206004820152601860248201527f436f6e7472616374204e6f7420496e697469616c697a656400000000000000006044820152606401610b11565b610e4c63225bf2f960e11b612a34565b610e905760405162461bcd60e51b815260206004820152601560248201527429b2ba29b0b332a6b7b232902337b93134b23232b760591b6044820152606401610b11565b6004805460ff191683151517905560035430336001600160a01b03167fdd452a31d2e164a1ea436c084842c27d24ae2548a575a869f71b05a4ed16243f85604051610edf911515815260200190565b60405180910390a450805b919050565b60006001600160a01b037f0000000000000000000000000000000000000000000000000000000000000000163003610f395760405162461bcd60e51b8152600401610b1190613d4d565b7f00000000000000000000000000000000000000000000000000000000000000006001600160a01b0316610f6b612a13565b6001600160a01b031614610f915760405162461bcd60e51b8152600401610b1190613d7c565b60045460ff1615610fb45760405162461bcd60e51b8152600401610b1190613daa565b610fc4631239af8760e21b612a34565b6110105760405162461bcd60e51b815260206004820152601a60248201527f5365745570677261646553746174757320466f7262696464656e0000000000006044820152606401610b11565b611018612b77565b6110645760405162461bcd60e51b815260206004820152601760248201527f5265616c6d205570677261646520466f7262696464656e0000000000000000006044820152606401610b11565b6004805461ff0019166101008415150217905560035430336001600160a01b03167fe9f97ad94c2ba252dcfc525e004f608ac5cb886955d8fc87d9e0ee070a698c5685604051610edf911515815260200190565b60006110cb82634a5e42b160e01b61281f565b60405163bbb9b43d60e01b8152604760048201526001600160a01b038316602482015260009073__$cdf2ce6e37ccfb50337d871d83177ab89c$__9063bbb9b43d90604401602060405180830381865af415801561112d573d6000803e3d6000fd5b505050506040513d601f19601f820116820180604052508101906111519190613de1565b9050806001600160a01b0316836001600160a01b031661116e3390565b6001600160a01b03167f9b4f55639e5e283319baee5bc4e69a5625a8e3a1cc004af968f4fee72502202760405160405180910390a450600192915050565b6000306001600160a01b037f000000000000000000000000000000000000000000000000000000000000000016146112265760405162461bcd60e51b815260206004820152601d60248201527f496c6c6567616c20436f6e74726163742044656c656761746563616c6c0000006044820152606401610b11565b5060008051602061480e83398151915290565b600061124c84632b2df8fd60e11b61281f565b604051632710b17b60e21b81526001600160a01b03851690639c42c5ec9061099d9086908690600401613dfe565b6000610bff612a13565b60006112978463622110e160e01b61281f565b60405163e9dbebbd60e01b81526001600160a01b0385169063e9dbebbd9061099d9086908690600401613e6e565b60006107cd8260476000016000856001600160a01b0316631083f7616040518163ffffffff1660e01b8152600401602060405180830381865afa158015611310573d6000803e3d6000fd5b505050506040513d601f19601f820116820180604052508101906113349190613de1565b6001600160a01b03168152602081019190915260400160002090612cb3565b60606001600160a01b037f000000000000000000000000000000000000000000000000000000000000000016300361139d5760405162461bcd60e51b8152600401610b1190613d4d565b7f00000000000000000000000000000000000000000000000000000000000000006001600160a01b03166113cf612a13565b6001600160a01b0316146113f55760405162461bcd60e51b8152600401610b1190613d7c565b60045460ff16156114185760405162461bcd60e51b8152600401610b1190613daa565b600454610100900460ff166114675760405162461bcd60e51b8152602060048201526015602482015274155c19dc9859194810d85b1b0814995a9958dd1959605a1b6044820152606401610b11565b61147084612cd5565b6109e0848484612d99565b60045460ff161561149e5760405162461bcd60e51b8152600401610b1190613daa565b6114ae63756af45f60e01b612a34565b6114fa5760405162461bcd60e51b815260206004820152601a60248201527f57697468647261772042616c616e636520466f7262696464656e0000000000006044820152606401610b11565b6040516001600160a01b038216904780156108fc02916000818181858888f1935050505015801561152f573d6000803e3d6000fd5b5050565b6060611545633d04ca0f60e11b6121fb565b604051639a7e187360e01b81526001600160a01b03851690639a7e1873906115739086908690600401613eba565b6000604051808303816000875af1158015611592573d6000803e3d6000fd5b505050506040513d6000823e601f3d908101601f191682016040526109e09190810190613f1f565b6000610bff30612fef565b60006107cd604883612cb3565b60006115e463b484c88960e01b612192565b600080546045546040516308d9f7e360e01b8152839273__$cdf2ce6e37ccfb50337d871d83177ab89c$__926308d9f7e39261163a926047928a926001600160a01b0392831692909116906046906004016140db565b6040805180830381865af4158015611656573d6000803e3d6000fd5b505050506040513d601f19601f8201168201806040525081019061167a91906141a6565b909250905061168f606085016040860161361c565b6001600160a01b0316826001600160a01b03166116a93390565b6040516001600160a01b03858116825291909116907fa585f587bcfc3f76acec7db143aa51e1be0b5e75bee741689d55af27cbed7c1d9060200160405180910390a45092915050565b6000816001600160a01b0316634cfb99496040518163ffffffff1660e01b8152600401602060405180830381865afa158015611732573d6000803e3d6000fd5b505050506040513d601f19601f820116820180604052508101906107cd9190613d30565b60405163658c9ca160e11b81526001600160a01b03831660048201526024810182905260009073__$cdf2ce6e37ccfb50337d871d83177ab89c$__9063cb19394290604401602060405180830381865af41580156117b8573d6000803e3d6000fd5b505050506040513d601f19601f820116820180604052508101906109529190613de1565b6117ec63343a33ab60e21b612192565b60005460405163299e691560e01b81526001600160a01b03909116600482015273__$cdf2ce6e37ccfb50337d871d83177ab89c$__9063299e69159060240160006040518083038186803b15801561184357600080fd5b505af4158015611857573d6000803e3d6000fd5b50505050565b60006001600160a01b037f00000000000000000000000000000000000000000000000000000000000000001630036118a75760405162461bcd60e51b8152600401610b1190613d4d565b7f00000000000000000000000000000000000000000000000000000000000000006001600160a01b03166118d9612a13565b6001600160a01b0316146118ff5760405162461bcd60e51b8152600401610b1190613d7c565b60045460ff16156119225760405162461bcd60e51b8152600401610b1190613daa565b61193263d9dc1f1960e01b612a34565b61197e5760405162461bcd60e51b815260206004820152601760248201527f5365744c6f63616c41646d696e20466f7262696464656e0000000000000000006044820152606401610b11565b6001600160a01b0382166119c65760405162461bcd60e51b815260206004820152600f60248201526e1059191c995cdcc8125b9d985b1a59608a1b6044820152606401610b11565b6119cf8261302e565b506001919050565b60006119ea8563f3913e6960e01b61281f565b604051634b0cba5d60e11b81526001600160a01b03858116600483015284811660248301526044820184905286169063961974ba906064016020604051808303816000875af1158015611a41573d6000803e3d6000fd5b505050506040513d601f19601f82011682018060405250810190611a659190613d30565b95945050505050565b6000610bff600154600254604080517f8b73c3c69bb8fe3d512ecc4cf759cc79239f7b179b0ffacaa9a75d522b39400f60208201529081019290925260608201524660808201523060a082015260009060c00160405160208183030381529060405280519060200120905090565b6000610bff6130a5565b6001600160a01b037f0000000000000000000000000000000000000000000000000000000000000000163003611b2e5760405162461bcd60e51b8152600401610b1190613d4d565b7f00000000000000000000000000000000000000000000000000000000000000006001600160a01b0316611b60612a13565b6001600160a01b031614611b865760405162461bcd60e51b8152600401610b1190613d7c565b33611b8f6130a5565b6001600160a01b031614611bdd5760405162461bcd60e51b815260206004820152601560248201527410d85b1b195c88139bdd08105d5d1a1bdc9a5e9959605a1b6044820152606401610b11565b604a5462010000900460ff1615808015611bff5750604a54600161ffff909116105b80611c1a5750303b158015611c1a5750604a5461ffff166001145b611c665760405162461bcd60e51b815260206004820152601c60248201527f436f6e747261637420416c726561647920496e697469616c697a6564000000006044820152606401610b11565b604a805461ffff191660011790558015611c8c57604a805462ff00001916620100001790555b6000611c9b60408401846141d5565b604051602001611cac92919061421b565b60408051601f1981840301815291905280516020909101209050611cf6611cd384806141d5565b611ce060208701876141d5565b85611cf160808a0160608b0161361c565b6130cd565b611d0660a084016080850161361c565b6001600160a01b03166301ffc9a763391f033d60e11b6040518263ffffffff1660e01b8152600401611d38919061422b565b602060405180830381865afa925050508015611d71575060408051601f3d908101601f19168201909252611d6e91810190613d30565b60015b611db35760405162461bcd60e51b81526020600482015260136024820152720496c6c6567616c20494173736574455243323606c1b6044820152606401610b11565b80611df65760405162461bcd60e51b81526020600482015260136024820152720496e76616c696420494173736574455243323606c1b6044820152606401610b11565b50611e0760a084016080850161361c565b6001600160a01b03166301ffc9a7638530fd6360e01b6040518263ffffffff1660e01b8152600401611e39919061422b565b602060405180830381865afa925050508015611e72575060408051601f3d908101601f19168201909252611e6f91810190613d30565b60015b611e8e5760405162461bcd60e51b8152600401610b1190614240565b80611eab5760405162461bcd60e51b8152600401610b119061426e565b50611eb960c08401846141d5565b604691611ec79190836142e7565b506001546002546003546040516397ca328d60e01b8152600481019390935260248301919091526044820152600090819073__$cdf2ce6e37ccfb50337d871d83177ab89c$__906397ca328d90606401600060405180830381865af4158015611f34573d6000803e3d6000fd5b505050506040513d6000823e601f3d908101601f19168201604052611f5c91908101906144e3565b60005491935091506001600160a01b031663f1df49da611f7f60a08801886141d5565b85856040518563ffffffff1660e01b8152600401611fa09493929190614595565b6020604051808303816000875af1158015611fbf573d6000803e3d6000fd5b505050506040513d601f19601f82011682018060405250810190611fe39190613d0c565b50611fec612a13565b6001600160a01b031630337ff851a1e85477b818fc72ad517ea622cc316f10f67d61c9e740adc151a8b4139461202289806141d5565b61202f60208c018c6141d5565b8a61203d604a5461ffff1690565b60405161204f969594939291906146a1565b60405180910390a4505050801561152f57604a805462ff0000191690555050565b60006120838463fb3f4d2960e01b61281f565b604051630cd689f560e01b81526001600160a01b03848116600483015260248201849052851690630cd689f59060440161099d565b60006120cd6001625938db60e11b0319612192565b6120d8604883612cb3565b156120f55760405162461bcd60e51b8152600401610b11906146e6565b6001600160a01b03821660009081526047602052604090206121156135b6565b60005b60068110156121625761212b83826130e3565b82826006811061213d5761213d614711565b6001600160a01b0390921660209290920201528061215a8161473d565b915050612118565b5060405163160dc19160e01b81526001600160a01b0385169063160dc1919061099d908490600401614756565b90565b60045460ff16156121b55760405162461bcd60e51b8152600401610b1190613daa565b806121bf81612a34565b61152f5760405162461bcd60e51b815260206004820152600d60248201526c1058d8d95cdcc811195b9a5959609a1b6044820152606401610b11565b60045460ff161561221e5760405162461bcd60e51b8152600401610b1190613daa565b333b15612765576040516301ffc9a760e01b815233906301ffc9a79061224f90638530fd6360e01b9060040161422b565b602060405180830381865afa925050508015612288575060408051601f3d908101601f1916820190925261228591810190613d30565b60015b6122a45760405162461bcd60e51b8152600401610b1190614240565b806122c15760405162461bcd60e51b8152600401610b119061426e565b506000336001600160a01b0316631083f7616040518163ffffffff1660e01b8152600401602060405180830381865afa158015612302573d6000803e3d6000fd5b505050506040513d601f19601f820116820180604052508101906123269190613de1565b9050612333604882612cb3565b156123505760405162461bcd60e51b8152600401610b11906146e6565b6001600160a01b03811660009081526047602052604090206123728133612cb3565b6123b25760405162461bcd60e51b8152602060048201526011602482015270105cdcd95d125908139bdd08119bdd5b99607a1b6044820152606401610b11565b60006123bd30612fef565b60005460405163b4c4b58f60e01b8152600481018390526001600160e01b0319871660248201529192506001600160a01b03169063b4c4b58f90604401602060405180830381865afa158015612417573d6000803e3d6000fd5b505050506040513d601f19601f8201168201806040525081019061243b9190613d30565b61247a5760405162461bcd60e51b815260206004820152601060248201526f10dbdb9d195e1d08111a5cd8589b195960821b6044820152606401610b11565b600054604080516312f6fda760e21b815290516001600160a01b0390921691632f032edd918391634bdbf69c916004808201926020929091908290030181865afa1580156124cc573d6000803e3d6000fd5b505050506040513d601f19601f820116820180604052508101906124f09190613d0c565b6040518263ffffffff1660e01b815260040161250e91815260200190565b602060405180830381865afa15801561252b573d6000803e3d6000fd5b505050506040513d601f19601f8201168201806040525081019061254f9190613d30565b61259b5760405162461bcd60e51b815260206004820152601a60248201527f41737365744d616e6167657220526f6c652044697361626c65640000000000006044820152606401610b11565b60005460408051634702301d60e01b815290516001600160a01b0390921691633228144d918391634702301d916004808201926020929091908290030181865afa1580156125ed573d6000803e3d6000fd5b505050506040513d601f19601f820116820180604052508101906126119190613d0c565b6040518263ffffffff1660e01b815260040161262f91815260200190565b602060405180830381865afa15801561264c573d6000803e3d6000fd5b505050506040513d601f19601f820116820180604052508101906126709190613d30565b6126b25760405162461bcd60e51b8152602060048201526013602482015272105cdcd95d11dc9bdd5c08111a5cd8589b1959606a1b6044820152606401610b11565b6000546003546040516362473d7360e11b81526001600160a01b039092169163c48e7ae6916126e79160040190815260200190565b602060405180830381865afa158015612704573d6000803e3d6000fd5b505050506040513d601f19601f820116820180604052508101906127289190613d30565b6118575760405162461bcd60e51b815260206004820152600e60248201526d1499585b1b48111a5cd8589b195960921b6044820152606401610b11565b6000546001600160a01b031663c7ab39e661277f30612fef565b33846040518463ffffffff1660e01b815260040161279f93929190614790565b602060405180830381865afa1580156127bc573d6000803e3d6000fd5b505050506040513d601f19601f820116820180604052508101906127e09190613d30565b61281c5760405162461bcd60e51b815260206004820152600d60248201526c1058d8d95cdcc811195b9a5959609a1b6044820152606401610b11565b50565b61282881612192565b6001600160a01b0382166128705760405162461bcd60e51b815260206004820152600f60248201526e125b9d985b1a5908105cdcd95d1259608a1b6044820152606401610b11565b6040516301ffc9a760e01b81526001600160a01b038316906301ffc9a7906128a390638530fd6360e01b9060040161422b565b602060405180830381865afa9250505080156128dc575060408051601f3d908101601f191682019092526128d991810190613d30565b60015b6128f85760405162461bcd60e51b8152600401610b1190614240565b806129155760405162461bcd60e51b8152600401610b119061426e565b506000826001600160a01b0316631083f7616040518163ffffffff1660e01b8152600401602060405180830381865afa158015612956573d6000803e3d6000fd5b505050506040513d601f19601f8201168201806040525081019061297a9190613de1565b9050612987604882612cb3565b156129a45760405162461bcd60e51b8152600401610b11906146e6565b6001600160a01b03811660009081526047602052604090206129c68185612cb3565b6118575760405162461bcd60e51b8152602060048201526011602482015270105cdcd95d125908139bdd08119bdd5b99607a1b6044820152606401610b11565b60606000610952836130ef565b600060008051602061480e8339815191525b546001600160a01b0316919050565b600080546001600160a01b03163003612b205760006363d59cf360e11b612a5a30612fef565b3385604051602401612a6e93929190614790565b60408051601f198184030181529190526020810180516001600160e01b03166001600160e01b03199093169290921790915290506000612aeb612aaf612a13565b836040518060400160405280601d81526020017f44656c656761746563616c6c20686173416363657373204661696c656400000081525061314b565b90508060018251612afc91906147b9565b81518110612b0c57612b0c614711565b60209101015160f81c600114949350505050565b6000546001600160a01b031663c7ab39e6612b3a30612fef565b33856040518463ffffffff1660e01b8152600401612b5a93929190614790565b602060405180830381865afa158015611732573d6000803e3d6000fd5b600080546001600160a01b03163003612c3d57600063e25d75f060e01b600354604051602401612ba991815260200190565b60408051601f198184030181529190526020810180516001600160e01b03166001600160e01b03199093169290921790915290506000612c09612bea612a13565b836040518060600160405280602581526020016147e96025913961314b565b90508060018251612c1a91906147b9565b81518110612c2a57612c2a614711565b60209101015160f81c6001149392505050565b600054600354604051630e25d75f60e41b81526001600160a01b039092169163e25d75f091612c729160040190815260200190565b602060405180830381865afa158015612c8f573d6000803e3d6000fd5b505050506040513d601f19601f82011682018060405250810190610bff9190613d30565b6001600160a01b03811660009081526001830160205260408120541515610952565b612cdd612a13565b6001600160a01b0316816001600160a01b031603612d3d5760405162461bcd60e51b815260206004820152601a60248201527f496c6c6567616c204e657720496d706c656d656e746174696f6e0000000000006044820152606401610b11565b612d4d637147855d60e01b612a34565b61281c5760405162461bcd60e51b815260206004820152601960248201527f5570677261646520436f6e7465787420466f7262696464656e000000000000006044820152606401610b11565b60607f4910fdfa16fed3260ed0e7147f7cc6da11a60208b5b9406d12a635614ffd91435460ff1615612de357612dce84613214565b50604080516000815260208101909152610952565b836001600160a01b03166352d1902d6040518163ffffffff1660e01b8152600401602060405180830381865afa925050508015612e3d575060408051601f3d908101601f19168201909252612e3a91810190613d0c565b60015b612e815760405162461bcd60e51b8152602060048201526015602482015274125b1b1959d85b0815555414c810dbdb9d1c9858dd605a1b6044820152606401610b11565b60008051602061480e8339815191528114612ed65760405162461bcd60e51b8152602060048201526015602482015274125b9d985b1a590815555414c810dbdb9d1c9858dd605a1b6044820152606401610b11565b506040516301ffc9a760e01b81526001600160a01b038516906301ffc9a790612f0a9063748be05360e01b9060040161422b565b602060405180830381865afa925050508015612f43575060408051601f3d908101601f19168201909252612f4091810190613d30565b60015b612f8f5760405162461bcd60e51b815260206004820152601760248201527f496c6c6567616c204950726f787920436f6e74726163740000000000000000006044820152606401610b11565b80612fdc5760405162461bcd60e51b815260206004820152601760248201527f496e76616c6964204950726f787920436f6e74726163740000000000000000006044820152606401610b11565b50612fe8848484613295565b9050610952565b6040516bffffffffffffffffffffffff19606083901b166020820152600090603401604051602081830303815290604052805190602001209050919050565b7fb53127684a568b3173ae13b9f8a6016e243e63b6e8ee1178d6a717850b5d610380546001600160a01b0383166001600160a01b031990911681179091556040805191825251309133917f54ab0d18de7958786ba1ad85966d59baa2b395455f0530dcdcfd732e6af539e29181900360200190a350565b60007fb53127684a568b3173ae13b9f8a6016e243e63b6e8ee1178d6a717850b5d6103612a25565b6130db8686868686866132ff565b505050505050565b6000610952838361350f565b60608160000180548060200260200160405190810160405280929190818152602001828054801561313f57602002820191906000526020600020905b81548152602001906001019080831161312b575b50505050509050919050565b60606001600160a01b0384163b61319f5760405162461bcd60e51b8152602060048201526018602482015277496c6c6567616c20436f6e7472616374204164647265737360401b6044820152606401610b11565b600080856001600160a01b0316856040516131ba91906147cc565b600060405180830381855af49150503d80600081146131f5576040519150601f19603f3d011682016040523d82523d6000602084013e6131fa565b606091505b509150915061320a828286613539565b9695505050505050565b6001600160a01b0381163b6132665760405162461bcd60e51b8152602060048201526018602482015277496c6c6567616c20436f6e7472616374204164647265737360401b6044820152606401610b11565b60008051602061480e83398151915280546001600160a01b0319166001600160a01b0392909216919091179055565b60606132a084613572565b6000835111806132ad5750815b156132e857612fe884846040518060400160405280601381526020017211195b1959d85d1958d85b1b0811985a5b1959606a1b81525061314b565b505060408051600081526020810190915292915050565b604a5462010000900460ff166133575760405162461bcd60e51b815260206004820152601960248201527f436f6e7472616374204e6f7420496e697469616c697a696e67000000000000006044820152606401610b11565b858560405160200161336a92919061421b565b60408051601f1981840301815290829052805160209182012060015561339491869186910161421b565b60408051601f19818403018152919052805160209091012060025560038290556001600160a01b0381166133d957600080546001600160a01b031916301790556134fb565b6040516301ffc9a760e01b81526001600160a01b038216906301ffc9a79061340c90634d4a792560e01b9060040161422b565b602060405180830381865afa925050508015613445575060408051601f3d908101601f1916820190925261344291810190613d30565b60015b6134915760405162461bcd60e51b815260206004820152601c60248201527f496c6c6567616c20416363657373436f6e74726f6c4d616e61676572000000006044820152606401610b11565b806134de5760405162461bcd60e51b815260206004820152601c60248201527f496e76616c696420416363657373436f6e74726f6c4d616e61676572000000006044820152606401610b11565b50600080546001600160a01b0319166001600160a01b0383161790555b6004805461ffff191690556130db3361302e565b600082600001828154811061352657613526614711565b9060005260206000200154905092915050565b60608315613548575081610952565b8251156135585782518084602001fd5b8160405162461bcd60e51b8152600401610b119190613a33565b61357b81613214565b6040516001600160a01b03821690309033907f354bd4b6eb65d64e6c79c53fa4f983a5e6bec4824ce4627c71be0b2722f4917e90600090a450565b6040518060c001604052806006906020820280368337509192915050565b6001600160e01b03198116811461281c57600080fd5b6000602082840312156135fc57600080fd5b8135610952816135d4565b6001600160a01b038116811461281c57600080fd5b60006020828403121561362e57600080fd5b813561095281613607565b60008082840360a081121561364d57600080fd5b833561365881613607565b92506080601f198201121561366c57600080fd5b506020830190509250929050565b60008060006060848603121561368f57600080fd5b833561369a81613607565b925060208401356136aa81613607565b929592945050506040919091013590565b600081518084526020808501945080840160005b838110156136f45781516001600160a01b0316875295820195908201906001016136cf565b509495945050505050565b60006003841061371f57634e487b7160e01b600052602160045260246000fd5b838252604060208301526109e060408301846136bb565b60208152600061095260208301846136bb565b801515811461281c57600080fd5b6000806040838503121561376a57600080fd5b823561377581613607565b9150602083013561378581613749565b809150509250929050565b6000602082840312156137a257600080fd5b813561095281613749565b6000806000604084860312156137c257600080fd5b83356137cd81613607565b925060208401356001600160401b03808211156137e957600080fd5b818601915086601f8301126137fd57600080fd5b81358181111561380c57600080fd5b87602060608302850101111561382157600080fd5b6020830194508093505050509250925092565b60008060006040848603121561384957600080fd5b833561385481613607565b925060208401356001600160401b038082111561387057600080fd5b818601915086601f83011261388457600080fd5b81358181111561389357600080fd5b8760208260061b850101111561382157600080fd5b634e487b7160e01b600052604160045260246000fd5b604051606081016001600160401b03811182821017156138e0576138e06138a8565b60405290565b604051601f8201601f191681016001600160401b038111828210171561390e5761390e6138a8565b604052919050565b60006001600160401b0382111561392f5761392f6138a8565b50601f01601f191660200190565b60008060006060848603121561395257600080fd5b833561395d81613607565b925060208401356001600160401b0381111561397857600080fd5b8401601f8101861361398957600080fd5b803561399c61399782613916565b6138e6565b8181528760208385010111156139b157600080fd5b8160208401602083013760006020838301015280945050505060408401356139d881613749565b809150509250925092565b60005b838110156139fe5781810151838201526020016139e6565b50506000910152565b60008151808452613a1f8160208601602086016139e3565b601f01601f19169290920160200192915050565b6020815260006109526020830184613a07565b600080600060408486031215613a5b57600080fd5b8335613a6681613607565b925060208401356001600160401b0380821115613a8257600080fd5b818601915086601f830112613a9657600080fd5b813581811115613aa557600080fd5b8760208260071b850101111561382157600080fd5b6020808252825182820181905260009190848201906040850190845b81811015613af257835183529284019291840191600101613ad6565b50909695505050505050565b600060208284031215613b1057600080fd5b81356001600160401b03811115613b2657600080fd5b820160a0818503121561095257600080fd5b60008060408385031215613b4b57600080fd5b8235613b5681613607565b946020939093013593505050565b60008060008060808587031215613b7a57600080fd5b8435613b8581613607565b93506020850135613b9581613607565b92506040850135613ba581613607565b9396929550929360600135925050565b600060208284031215613bc757600080fd5b81356001600160401b03811115613bdd57600080fd5b820160e0818503121561095257600080fd5b600082601f830112613c0057600080fd5b8151613c0e61399782613916565b818152846020838601011115613c2357600080fd5b6109e08260208301602087016139e3565b60008060408385031215613c4757600080fd5b82516001600160401b0380821115613c5e57600080fd5b613c6a86838701613bef565b93506020850151915080821115613c8057600080fd5b50613c8d85828601613bef565b9150509250929050565b604081526000613caa6040830185613a07565b8281036020840152611a658185613a07565b8035613cc781613607565b6001600160a01b039081168352602082013590613ce382613607565b16602083015260408181013590830152606090810135910152565b608081016107cd8284613cbc565b600060208284031215613d1e57600080fd5b5051919050565b8051610eea81613749565b600060208284031215613d4257600080fd5b815161095281613749565b602080825260159082015274125b1b1959d85b0810dbdb9d1c9858dd0810d85b1b605a1b604082015260600190565b602080825260149082015273141c9bde1e4810d85b1b195908125b9d985b1a5960621b604082015260600190565b60208082526017908201527f536166654d6f64653a2043616c6c2052656a6563746564000000000000000000604082015260600190565b600060208284031215613df357600080fd5b815161095281613607565b6020808252818101839052600090604080840186845b87811015613e61578135613e2781613607565b6001600160a01b0390811684528286013590613e4282613607565b1683860152818401358484015260609283019290910190600101613e14565b5090979650505050505050565b6020808252818101839052600090604080840186845b87811015613e61578135613e9781613607565b6001600160a01b0316835281850135858401529183019190830190600101613e84565b6020808252810182905260008360408301825b85811015613ef257613edf8284613cbc565b6080928301929190910190600101613ecd565b5095945050505050565b60006001600160401b03821115613f1557613f156138a8565b5060051b60200190565b60006020808385031215613f3257600080fd5b82516001600160401b03811115613f4857600080fd5b8301601f81018513613f5957600080fd5b8051613f6761399782613efc565b81815260059190911b82018301908381019087831115613f8657600080fd5b928401925b82841015613fa457835182529284019290840190613f8b565b979650505050505050565b6000808335601e19843603018112613fc657600080fd5b83016020810192503590506001600160401b03811115613fe557600080fd5b803603821315613ff457600080fd5b9250929050565b81835281816020850137506000828201602090810191909152601f909101601f19169091010190565b600181811c9082168061403857607f821691505b60208210810361405857634e487b7160e01b600052602260045260246000fd5b50919050565b6000815461406b81614024565b80855260206001838116801561408857600181146140a2576140d0565b60ff1985168884015283151560051b8801830195506140d0565b866000528260002060005b858110156140c85781548a82018601529083019084016140ad565b890184019650505b505050505092915050565b85815260a06020820152843560a0820152602085013560c08201526000604086013561410681613607565b6001600160a01b031660e08301526141216060870187613faf565b60a061010085015261413861014085018284613ffb565b9150506141486080880188613faf565b848303609f1901610120860152614160838284613ffb565b9250505061417960408401876001600160a01b03169052565b6001600160a01b0385166060840152828103608084015261419a818561405e565b98975050505050505050565b600080604083850312156141b957600080fd5b82516141c481613607565b602084015190925061378581613607565b6000808335601e198436030181126141ec57600080fd5b8301803591506001600160401b0382111561420657600080fd5b602001915036819003821315613ff457600080fd5b8183823760009101908152919050565b6001600160e01b031991909116815260200190565b602080825260149082015273496c6c6567616c20494173736574456e7469747960601b604082015260600190565b602080825260149082015273496e76616c696420494173736574456e7469747960601b604082015260600190565b601f8211156142e257600081815260208120601f850160051c810160208610156142c35750805b601f850160051c820191505b818110156130db578281556001016142cf565b505050565b6001600160401b038311156142fe576142fe6138a8565b6143128361430c8354614024565b8361429c565b6000601f841160018114614346576000851561432e5750838201355b600019600387901b1c1916600186901b1783556143a0565b600083815260209020601f19861690835b828110156143775786850135825560209485019460019092019101614357565b50868210156143945760001960f88860031b161c19848701351681555b505060018560011b0183555b5050505050565b600082601f8301126143b857600080fd5b815160206143c861399783613efc565b82815260059290921b840181019181810190868411156143e757600080fd5b8286015b848110156144d85780516001600160401b038082111561440b5760008081fd5b908801906060828b03601f19018113156144255760008081fd5b61442d6138be565b878401518152604080850151848111156144475760008081fd5b85019350603f84018d1361445b5760008081fd5b8884015161446b61399782613efc565b81815260059190911b85018201908a8101908f83111561448b5760008081fd5b958301955b828710156144b25786516144a3816135d4565b8252958b0195908b0190614490565b848c0152506144c49050858401613d25565b9082015286525050509183019183016143eb565b509695505050505050565b60008082840360c08112156144f757600080fd5b60a081121561450557600080fd5b5060405160a081016001600160401b038282108183111715614529576145296138a8565b816040528551835260208601516020840152604086015160408401526060860151915061455582613607565b8160608401526080860151915061456b82613749565b6080830182905260a08601519294508083111561458757600080fd5b5050613c8d858286016143a7565b60e0815260006145a960e083018688613ffb565b6020855181850152808601516040818187015280880151915060608281880152808901519250608060018060a01b03841681890152808a0151151560a089015287860360c089015285935088518087528587019450858160051b880101868b016000805b8481101561468c578a8403601f190189528251805185528a8101518b86018990528051898701819052908c01908490898801905b8083101561466b5783516001600160e01b0319168252928e019260019290920191908e0190614641565b50928b01511515968b019690965250988a019893509189019160010161460d565b50919f9e505050505050505050505050505050565b6080815260006146b560808301888a613ffb565b82810360208401526146c8818789613ffb565b91505083604083015261ffff83166060830152979650505050505050565b602080825260119082015270151bdad95b925908139bdd08119bdd5b99607a1b604082015260600190565b634e487b7160e01b600052603260045260246000fd5b634e487b7160e01b600052601160045260246000fd5b60006001820161474f5761474f614727565b5060010190565b60c08101818360005b60068110156147875781516001600160a01b031683526020928301929091019060010161475f565b50505092915050565b9283526001600160a01b039190911660208301526001600160e01b031916604082015260600190565b818103818111156107cd576107cd614727565b600082516147de8184602087016139e3565b919091019291505056fe44656c656761746563616c6c2069735265616c6d55706772616461626c65204661696c6564360894a13ba1a3210667c828492db98dca3e2076cc3735a920a3ca505d382bbca264697066735822122086e33e0c2acc3911bed3e0f070e05641fd0608d80130c9102a9e24ad2fc6e0e664736f6c63430008110033b53127684a568b3173ae13b9f8a6016e243e63b6e8ee1178d6a717850b5d6103",
  "linkReferences": {
    "src/contracts/lib/token/LAssetManagerERC20.sol": {
      "LAssetManagerERC20": [
        {
          "length": 20,
          "start": 2509
        },
        {
          "length": 20,
          "start": 3319
        },
        {
          "length": 20,
          "start": 3724
        },
        {
          "length": 20,
          "start": 4786
        },
        {
          "length": 20,
          "start": 6075
        },
        {
          "length": 20,
          "start": 6461
        },
        {
          "length": 20,
          "start": 6605
        },
        {
          "length": 20,
          "start": 8377
        }
      ]
    }
  },
  "deployedLinkReferences": {
    "src/contracts/lib/token/LAssetManagerERC20.sol": {
      "LAssetManagerERC20": [
        {
          "length": 20,
          "start": 2062
        },
        {
          "length": 20,
          "start": 2872
        },
        {
          "length": 20,
          "start": 3277
        },
        {
          "length": 20,
          "start": 4339
        },
        {
          "length": 20,
          "start": 5628
        },
        {
          "length": 20,
          "start": 6014
        },
        {
          "length": 20,
          "start": 6158
        },
        {
          "length": 20,
          "start": 7930
        }
      ]
    }
  },
  "devdoc": {
    "kind": "dev",
    "methods": {
      "proxiableUUID()": {
        "details": "Implementation of the ERC1822 {proxiableUUID} function. This returns the storage slot used by the implementation. It is used to validate that the this implementation remains valid after an upgrade. IMPORTANT: A proxy pointing at a proxiable contract should not be considered proxiable itself, because this risks bricking a proxy that upgrades to it, by delegating to itself until out of gas. Thus it is critical that this function revert if invoked through a proxy. This is guaranteed by the `notDelegated` modifier."
      },
      "supportsInterface(bytes4)": {
        "details": "See {IERC165-supportsInterface}."
      }
    },
    "version": 1
  },
  "evm": {
    "bytecode": {
      "linkReferences": {
        "src/contracts/lib/token/LAssetManagerERC20.sol": {
          "LAssetManagerERC20": [
            {
              "length": 20,
              "start": 2509
            },
            {
              "length": 20,
              "start": 3319
            },
            {
              "length": 20,
              "start": 3724
            },
            {
              "length": 20,
              "start": 4786
            },
            {
              "length": 20,
              "start": 6075
            },
            {
              "length": 20,
              "start": 6461
            },
            {
              "length": 20,
              "start": 6605
            },
            {
              "length": 20,
              "start": 8377
            }
          ]
        }
      },
      "opcodes": "PUSH1 0xA0 PUSH1 0x40 MSTORE ADDRESS PUSH1 0x80 MSTORE CALLVALUE DUP1 ISZERO PUSH3 0x15 JUMPI PUSH1 0x0 DUP1 REVERT JUMPDEST POP PUSH3 0x43 PUSH1 0x1 PUSH32 0x360894A13BA1A3210667C828492DB98DCA3E2076CC3735A920A3CA505D382BBD PUSH3 0x11F JUMP JUMPDEST PUSH32 0x360894A13BA1A3210667C828492DB98DCA3E2076CC3735A920A3CA505D382BBC EQ PUSH3 0x74 JUMPI PUSH3 0x74 PUSH3 0x147 JUMP JUMPDEST PUSH3 0xA1 PUSH1 0x1 PUSH32 0xB53127684A568B3173AE13B9F8A6016E243E63B6E8EE1178D6A717850B5D6104 PUSH3 0x11F JUMP JUMPDEST PUSH1 0x0 DUP1 MLOAD PUSH1 0x20 PUSH3 0x4A22 DUP4 CODECOPY DUP2 MLOAD SWAP2 MSTORE EQ PUSH3 0xC1 JUMPI PUSH3 0xC1 PUSH3 0x147 JUMP JUMPDEST CALLER PUSH3 0xEA PUSH1 0x0 DUP1 MLOAD PUSH1 0x20 PUSH3 0x4A22 DUP4 CODECOPY DUP2 MLOAD SWAP2 MSTORE PUSH1 0x0 SHL PUSH3 0x11C PUSH1 0x20 SHL PUSH3 0x218F OR PUSH1 0x20 SHR JUMP JUMPDEST DUP1 SLOAD PUSH1 0x1 PUSH1 0x1 PUSH1 0xA0 SHL SUB NOT AND PUSH1 0x1 PUSH1 0x1 PUSH1 0xA0 SHL SUB SWAP3 SWAP1 SWAP3 AND SWAP2 SWAP1 SWAP2 OR SWAP1 SSTORE PUSH1 0x4 DUP1 SLOAD PUSH2 0xFFFF NOT AND PUSH1 0x1 OR SWAP1 SSTORE PUSH3 0x15D JUMP JUMPDEST SWAP1 JUMP JUMPDEST DUP2 DUP2 SUB DUP2 DUP2 GT ISZERO PUSH3 0x141 JUMPI PUSH4 0x4E487B71 PUSH1 0xE0 SHL PUSH1 0x0 MSTORE PUSH1 0x11 PUSH1 0x4 MSTORE PUSH1 0x24 PUSH1 0x0 REVERT JUMPDEST SWAP3 SWAP2 POP POP JUMP JUMPDEST PUSH4 0x4E487B71 PUSH1 0xE0 SHL PUSH1 0x0 MSTORE PUSH1 0x1 PUSH1 0x4 MSTORE PUSH1 0x24 PUSH1 0x0 REVERT JUMPDEST PUSH1 0x80 MLOAD PUSH2 0x4863 PUSH3 0x1BF PUSH1 0x0 CODECOPY PUSH1 0x0 DUP2 DUP2 PUSH2 0xD46 ADD MSTORE DUP2 DUP2 PUSH2 0xD86 ADD MSTORE DUP2 DUP2 PUSH2 0xEFB ADD MSTORE DUP2 DUP2 PUSH2 0xF3B ADD MSTORE DUP2 DUP2 PUSH2 0x11B9 ADD MSTORE DUP2 DUP2 PUSH2 0x135F ADD MSTORE DUP2 DUP2 PUSH2 0x139F ADD MSTORE DUP2 DUP2 PUSH2 0x1869 ADD MSTORE DUP2 DUP2 PUSH2 0x18A9 ADD MSTORE DUP2 DUP2 PUSH2 0x1AF0 ADD MSTORE PUSH2 0x1B30 ADD MSTORE PUSH2 0x4863 PUSH1 0x0 RETURN INVALID PUSH1 0x80 PUSH1 0x40 MSTORE PUSH1 0x4 CALLDATASIZE LT PUSH2 0x23D JUMPI PUSH1 0x0 CALLDATALOAD PUSH1 0xE0 SHR DUP1 PUSH4 0x7147855D GT PUSH2 0x12D JUMPI DUP1 PUSH4 0xC5D39A4A GT PUSH2 0xB0 JUMPI DUP1 PUSH4 0xF3913E69 GT PUSH2 0x77 JUMPI DUP1 PUSH4 0xF3913E69 EQ PUSH2 0x6D7 JUMPI DUP1 PUSH4 0xF698DA25 EQ PUSH2 0x6F7 JUMPI DUP1 PUSH4 0xF94A0ADB EQ PUSH2 0x70C JUMPI DUP1 PUSH4 0xF977100E EQ PUSH2 0x721 JUMPI DUP1 PUSH4 0xFB3F4D29 EQ PUSH2 0x741 JUMPI DUP1 PUSH4 0xFF4D8E4A EQ PUSH2 0x761 JUMPI STOP JUMPDEST DUP1 PUSH4 0xC5D39A4A EQ PUSH2 0x64D JUMPI DUP1 PUSH4 0xCB193942 EQ PUSH2 0x66D JUMPI DUP1 PUSH4 0xD0E8CEAC EQ PUSH2 0x68D JUMPI DUP1 PUSH4 0xD3E024B8 EQ PUSH2 0x6A2 JUMPI DUP1 PUSH4 0xD9DC1F19 EQ PUSH2 0x6B7 JUMPI STOP JUMPDEST DUP1 PUSH4 0x9ED4FA5A GT PUSH2 0xF4 JUMPI DUP1 PUSH4 0x9ED4FA5A EQ PUSH2 0x5C2 JUMPI DUP1 PUSH4 0xA0A8E460 EQ PUSH2 0x5E2 JUMPI DUP1 PUSH4 0xB484C889 EQ PUSH2 0x5F7 JUMPI DUP1 PUSH4 0xB4A0BDF3 EQ PUSH2 0x617 JUMPI DUP1 PUSH4 0xBE22465D EQ PUSH2 0x635 JUMPI STOP JUMPDEST DUP1 PUSH4 0x7147855D EQ PUSH2 0x51E JUMPI DUP1 PUSH4 0x756AF45F EQ PUSH2 0x54B JUMPI DUP1 PUSH4 0x75D0C0DC EQ PUSH2 0x56B JUMPI DUP1 PUSH4 0x7A09941E EQ PUSH2 0x580 JUMPI DUP1 PUSH4 0x870666CB EQ PUSH2 0x5AD JUMPI STOP JUMPDEST DUP1 PUSH4 0x38D38C97 GT PUSH2 0x1C0 JUMPI DUP1 PUSH4 0x5479D940 GT PUSH2 0x187 JUMPI DUP1 PUSH4 0x5479D940 EQ PUSH2 0x456 JUMPI DUP1 PUSH4 0x565BF1FA EQ PUSH2 0x473 JUMPI DUP1 PUSH4 0x58DBC45D EQ PUSH2 0x493 JUMPI DUP1 PUSH4 0x60FEFDEC EQ PUSH2 0x4C0 JUMPI DUP1 PUSH4 0x622110E1 EQ PUSH2 0x4DE JUMPI DUP1 PUSH4 0x67EB04E6 EQ PUSH2 0x4FE JUMPI STOP JUMPDEST DUP1 PUSH4 0x38D38C97 EQ PUSH2 0x3B9 JUMPI DUP1 PUSH4 0x44B7E5F2 EQ PUSH2 0x3E1 JUMPI DUP1 PUSH4 0x48E6BE1C EQ PUSH2 0x401 JUMPI DUP1 PUSH4 0x4A5E42B1 EQ PUSH2 0x421 JUMPI DUP1 PUSH4 0x52D1902D EQ PUSH2 0x441 JUMPI STOP JUMPDEST DUP1 PUSH4 0x1F69565F GT PUSH2 0x204 JUMPI DUP1 PUSH4 0x1F69565F EQ PUSH2 0x309 JUMPI DUP1 PUSH4 0x2A5C5803 EQ PUSH2 0x337 JUMPI DUP1 PUSH4 0x2A5C792A EQ PUSH2 0x357 JUMPI DUP1 PUSH4 0x3091A548 EQ PUSH2 0x379 JUMPI DUP1 PUSH4 0x373C52FA EQ PUSH2 0x399 JUMPI STOP JUMPDEST DUP1 PUSH4 0x1FFC9A7 EQ PUSH2 0x246 JUMPI DUP1 PUSH4 0x9824A80 EQ PUSH2 0x27B JUMPI DUP1 PUSH4 0xBB0CCAA EQ PUSH2 0x29B JUMPI DUP1 PUSH4 0x15EAEF6B EQ PUSH2 0x2C9 JUMPI DUP1 PUSH4 0x1BDC5627 EQ PUSH2 0x2E9 JUMPI STOP JUMPDEST CALLDATASIZE PUSH2 0x244 JUMPI STOP JUMPDEST STOP JUMPDEST CALLVALUE DUP1 ISZERO PUSH2 0x252 JUMPI PUSH1 0x0 DUP1 REVERT JUMPDEST POP PUSH2 0x266 PUSH2 0x261 CALLDATASIZE PUSH1 0x4 PUSH2 0x35EA JUMP JUMPDEST PUSH2 0x781 JUMP JUMPDEST PUSH1 0x40 MLOAD SWAP1 ISZERO ISZERO DUP2 MSTORE PUSH1 0x20 ADD JUMPDEST PUSH1 0x40 MLOAD DUP1 SWAP2 SUB SWAP1 RETURN JUMPDEST CALLVALUE DUP1 ISZERO PUSH2 0x287 JUMPI PUSH1 0x0 DUP1 REVERT JUMPDEST POP PUSH2 0x266 PUSH2 0x296 CALLDATASIZE PUSH1 0x4 PUSH2 0x361C JUMP JUMPDEST PUSH2 0x7D3 JUMP JUMPDEST CALLVALUE DUP1 ISZERO PUSH2 0x2A7 JUMPI PUSH1 0x0 DUP1 REVERT JUMPDEST POP PUSH2 0x2BB PUSH2 0x2B6 CALLDATASIZE PUSH1 0x4 PUSH2 0x3639 JUMP JUMPDEST PUSH2 0x8D1 JUMP JUMPDEST PUSH1 0x40 MLOAD SWAP1 DUP2 MSTORE PUSH1 0x20 ADD PUSH2 0x272 JUMP JUMPDEST CALLVALUE DUP1 ISZERO PUSH2 0x2D5 JUMPI PUSH1 0x0 DUP1 REVERT JUMPDEST POP PUSH2 0x266 PUSH2 0x2E4 CALLDATASIZE PUSH1 0x4 PUSH2 0x367A JUMP JUMPDEST PUSH2 0x959 JUMP JUMPDEST CALLVALUE DUP1 ISZERO PUSH2 0x2F5 JUMPI PUSH1 0x0 DUP1 REVERT JUMPDEST POP PUSH2 0x2BB PUSH2 0x304 CALLDATASIZE PUSH1 0x4 PUSH2 0x367A JUMP JUMPDEST PUSH2 0x9E8 JUMP JUMPDEST CALLVALUE DUP1 ISZERO PUSH2 0x315 JUMPI PUSH1 0x0 DUP1 REVERT JUMPDEST POP PUSH2 0x329 PUSH2 0x324 CALLDATASIZE PUSH1 0x4 PUSH2 0x361C JUMP JUMPDEST PUSH2 0xA6F JUMP JUMPDEST PUSH1 0x40 MLOAD PUSH2 0x272 SWAP3 SWAP2 SWAP1 PUSH2 0x36FF JUMP JUMPDEST CALLVALUE DUP1 ISZERO PUSH2 0x343 JUMPI PUSH1 0x0 DUP1 REVERT JUMPDEST POP PUSH2 0x266 PUSH2 0x352 CALLDATASIZE PUSH1 0x4 PUSH2 0x361C JUMP JUMPDEST PUSH2 0xAA6 JUMP JUMPDEST CALLVALUE DUP1 ISZERO PUSH2 0x363 JUMPI PUSH1 0x0 DUP1 REVERT JUMPDEST POP PUSH2 0x36C PUSH2 0xBF3 JUMP JUMPDEST PUSH1 0x40 MLOAD PUSH2 0x272 SWAP2 SWAP1 PUSH2 0x3736 JUMP JUMPDEST CALLVALUE DUP1 ISZERO PUSH2 0x385 JUMPI PUSH1 0x0 DUP1 REVERT JUMPDEST POP PUSH2 0x2BB PUSH2 0x394 CALLDATASIZE PUSH1 0x4 PUSH2 0x367A JUMP JUMPDEST PUSH2 0xC04 JUMP JUMPDEST CALLVALUE DUP1 ISZERO PUSH2 0x3A5 JUMPI PUSH1 0x0 DUP1 REVERT JUMPDEST POP PUSH2 0x266 PUSH2 0x3B4 CALLDATASIZE PUSH1 0x4 PUSH2 0x3757 JUMP JUMPDEST PUSH2 0xC4C JUMP JUMPDEST CALLVALUE DUP1 ISZERO PUSH2 0x3C5 JUMPI PUSH1 0x0 DUP1 REVERT JUMPDEST POP PUSH2 0x3CE PUSH2 0xD2B JUMP JUMPDEST PUSH1 0x40 MLOAD PUSH2 0xFFFF SWAP1 SWAP2 AND DUP2 MSTORE PUSH1 0x20 ADD PUSH2 0x272 JUMP JUMPDEST CALLVALUE DUP1 ISZERO PUSH2 0x3ED JUMPI PUSH1 0x0 DUP1 REVERT JUMPDEST POP PUSH2 0x266 PUSH2 0x3FC CALLDATASIZE PUSH1 0x4 PUSH2 0x3790 JUMP JUMPDEST PUSH2 0xD3A JUMP JUMPDEST CALLVALUE DUP1 ISZERO PUSH2 0x40D JUMPI PUSH1 0x0 DUP1 REVERT JUMPDEST POP PUSH2 0x266 PUSH2 0x41C CALLDATASIZE PUSH1 0x4 PUSH2 0x3790 JUMP JUMPDEST PUSH2 0xEEF JUMP JUMPDEST CALLVALUE DUP1 ISZERO PUSH2 0x42D JUMPI PUSH1 0x0 DUP1 REVERT JUMPDEST POP PUSH2 0x266 PUSH2 0x43C CALLDATASIZE PUSH1 0x4 PUSH2 0x361C JUMP JUMPDEST PUSH2 0x10B8 JUMP JUMPDEST CALLVALUE DUP1 ISZERO PUSH2 0x44D JUMPI PUSH1 0x0 DUP1 REVERT JUMPDEST POP PUSH2 0x2BB PUSH2 0x11AC JUMP JUMPDEST CALLVALUE DUP1 ISZERO PUSH2 0x462 JUMPI PUSH1 0x0 DUP1 REVERT JUMPDEST POP PUSH1 0x4 SLOAD PUSH2 0x100 SWAP1 DIV PUSH1 0xFF AND PUSH2 0x266 JUMP JUMPDEST CALLVALUE DUP1 ISZERO PUSH2 0x47F JUMPI PUSH1 0x0 DUP1 REVERT JUMPDEST POP PUSH2 0x266 PUSH2 0x48E CALLDATASIZE PUSH1 0x4 PUSH2 0x37AD JUMP JUMPDEST PUSH2 0x1239 JUMP JUMPDEST CALLVALUE DUP1 ISZERO PUSH2 0x49F JUMPI PUSH1 0x0 DUP1 REVERT JUMPDEST POP PUSH2 0x4A8 PUSH2 0x127A JUMP JUMPDEST PUSH1 0x40 MLOAD PUSH1 0x1 PUSH1 0x1 PUSH1 0xA0 SHL SUB SWAP1 SWAP2 AND DUP2 MSTORE PUSH1 0x20 ADD PUSH2 0x272 JUMP JUMPDEST CALLVALUE DUP1 ISZERO PUSH2 0x4CC JUMPI PUSH1 0x0 DUP1 REVERT JUMPDEST POP PUSH1 0x4A SLOAD PUSH3 0x10000 SWAP1 DIV PUSH1 0xFF AND PUSH2 0x266 JUMP JUMPDEST CALLVALUE DUP1 ISZERO PUSH2 0x4EA JUMPI PUSH1 0x0 DUP1 REVERT JUMPDEST POP PUSH2 0x266 PUSH2 0x4F9 CALLDATASIZE PUSH1 0x4 PUSH2 0x3834 JUMP JUMPDEST PUSH2 0x1284 JUMP JUMPDEST CALLVALUE DUP1 ISZERO PUSH2 0x50A JUMPI PUSH1 0x0 DUP1 REVERT JUMPDEST POP PUSH2 0x266 PUSH2 0x519 CALLDATASIZE PUSH1 0x4 PUSH2 0x361C JUMP JUMPDEST PUSH2 0x12C5 JUMP JUMPDEST CALLVALUE DUP1 ISZERO PUSH2 0x52A JUMPI PUSH1 0x0 DUP1 REVERT JUMPDEST POP PUSH2 0x53E PUSH2 0x539 CALLDATASIZE PUSH1 0x4 PUSH2 0x393D JUMP JUMPDEST PUSH2 0x1353 JUMP JUMPDEST PUSH1 0x40 MLOAD PUSH2 0x272 SWAP2 SWAP1 PUSH2 0x3A33 JUMP JUMPDEST CALLVALUE DUP1 ISZERO PUSH2 0x557 JUMPI PUSH1 0x0 DUP1 REVERT JUMPDEST POP PUSH2 0x244 PUSH2 0x566 CALLDATASIZE PUSH1 0x4 PUSH2 0x361C JUMP JUMPDEST PUSH2 0x147B JUMP JUMPDEST CALLVALUE DUP1 ISZERO PUSH2 0x577 JUMPI PUSH1 0x0 DUP1 REVERT JUMPDEST POP PUSH1 0x1 SLOAD PUSH2 0x2BB JUMP JUMPDEST CALLVALUE DUP1 ISZERO PUSH2 0x58C JUMPI PUSH1 0x0 DUP1 REVERT JUMPDEST POP PUSH2 0x5A0 PUSH2 0x59B CALLDATASIZE PUSH1 0x4 PUSH2 0x3A46 JUMP JUMPDEST PUSH2 0x1533 JUMP JUMPDEST PUSH1 0x40 MLOAD PUSH2 0x272 SWAP2 SWAP1 PUSH2 0x3ABA JUMP JUMPDEST CALLVALUE DUP1 ISZERO PUSH2 0x5B9 JUMPI PUSH1 0x0 DUP1 REVERT JUMPDEST POP PUSH2 0x2BB PUSH2 0x15BA JUMP JUMPDEST CALLVALUE DUP1 ISZERO PUSH2 0x5CE JUMPI PUSH1 0x0 DUP1 REVERT JUMPDEST POP PUSH2 0x266 PUSH2 0x5DD CALLDATASIZE PUSH1 0x4 PUSH2 0x361C JUMP JUMPDEST PUSH2 0x15C5 JUMP JUMPDEST CALLVALUE DUP1 ISZERO PUSH2 0x5EE JUMPI PUSH1 0x0 DUP1 REVERT JUMPDEST POP PUSH1 0x2 SLOAD PUSH2 0x2BB JUMP JUMPDEST CALLVALUE DUP1 ISZERO PUSH2 0x603 JUMPI PUSH1 0x0 DUP1 REVERT JUMPDEST POP PUSH2 0x4A8 PUSH2 0x612 CALLDATASIZE PUSH1 0x4 PUSH2 0x3AFE JUMP JUMPDEST PUSH2 0x15D2 JUMP JUMPDEST CALLVALUE DUP1 ISZERO PUSH2 0x623 JUMPI PUSH1 0x0 DUP1 REVERT JUMPDEST POP PUSH1 0x0 SLOAD PUSH1 0x1 PUSH1 0x1 PUSH1 0xA0 SHL SUB AND PUSH2 0x4A8 JUMP JUMPDEST CALLVALUE DUP1 ISZERO PUSH2 0x641 JUMPI PUSH1 0x0 DUP1 REVERT JUMPDEST POP PUSH1 0x4 SLOAD PUSH1 0xFF AND PUSH2 0x266 JUMP JUMPDEST CALLVALUE DUP1 ISZERO PUSH2 0x659 JUMPI PUSH1 0x0 DUP1 REVERT JUMPDEST POP PUSH2 0x266 PUSH2 0x668 CALLDATASIZE PUSH1 0x4 PUSH2 0x361C JUMP JUMPDEST PUSH2 0x16F2 JUMP JUMPDEST CALLVALUE DUP1 ISZERO PUSH2 0x679 JUMPI PUSH1 0x0 DUP1 REVERT JUMPDEST POP PUSH2 0x4A8 PUSH2 0x688 CALLDATASIZE PUSH1 0x4 PUSH2 0x3B38 JUMP JUMPDEST PUSH2 0x1756 JUMP JUMPDEST CALLVALUE DUP1 ISZERO PUSH2 0x699 JUMPI PUSH1 0x0 DUP1 REVERT JUMPDEST POP PUSH2 0x244 PUSH2 0x17DC JUMP JUMPDEST CALLVALUE DUP1 ISZERO PUSH2 0x6AE JUMPI PUSH1 0x0 DUP1 REVERT JUMPDEST POP PUSH1 0x3 SLOAD PUSH2 0x2BB JUMP JUMPDEST CALLVALUE DUP1 ISZERO PUSH2 0x6C3 JUMPI PUSH1 0x0 DUP1 REVERT JUMPDEST POP PUSH2 0x266 PUSH2 0x6D2 CALLDATASIZE PUSH1 0x4 PUSH2 0x361C JUMP JUMPDEST PUSH2 0x185D JUMP JUMPDEST CALLVALUE DUP1 ISZERO PUSH2 0x6E3 JUMPI PUSH1 0x0 DUP1 REVERT JUMPDEST POP PUSH2 0x266 PUSH2 0x6F2 CALLDATASIZE PUSH1 0x4 PUSH2 0x3B64 JUMP JUMPDEST PUSH2 0x19D7 JUMP JUMPDEST CALLVALUE DUP1 ISZERO PUSH2 0x703 JUMPI PUSH1 0x0 DUP1 REVERT JUMPDEST POP PUSH2 0x2BB PUSH2 0x1A6E JUMP JUMPDEST CALLVALUE DUP1 ISZERO PUSH2 0x718 JUMPI PUSH1 0x0 DUP1 REVERT JUMPDEST POP PUSH2 0x4A8 PUSH2 0x1ADC JUMP JUMPDEST CALLVALUE DUP1 ISZERO PUSH2 0x72D JUMPI PUSH1 0x0 DUP1 REVERT JUMPDEST POP PUSH2 0x244 PUSH2 0x73C CALLDATASIZE PUSH1 0x4 PUSH2 0x3BB5 JUMP JUMPDEST PUSH2 0x1AE6 JUMP JUMPDEST CALLVALUE DUP1 ISZERO PUSH2 0x74D JUMPI PUSH1 0x0 DUP1 REVERT JUMPDEST POP PUSH2 0x266 PUSH2 0x75C CALLDATASIZE PUSH1 0x4 PUSH2 0x367A JUMP JUMPDEST PUSH2 0x2070 JUMP JUMPDEST CALLVALUE DUP1 ISZERO PUSH2 0x76D JUMPI PUSH1 0x0 DUP1 REVERT JUMPDEST POP PUSH2 0x266 PUSH2 0x77C CALLDATASIZE PUSH1 0x4 PUSH2 0x361C JUMP JUMPDEST PUSH2 0x20B8 JUMP JUMPDEST PUSH1 0x0 PUSH1 0x1 PUSH1 0x1 PUSH1 0xE0 SHL SUB NOT DUP3 AND PUSH4 0x748BE053 PUSH1 0xE0 SHL EQ DUP1 PUSH2 0x7B2 JUMPI POP PUSH1 0x1 PUSH1 0x1 PUSH1 0xE0 SHL SUB NOT DUP3 AND PUSH4 0x52D1902D PUSH1 0xE0 SHL EQ JUMPDEST DUP1 PUSH2 0x7CD JUMPI POP PUSH4 0x1FFC9A7 PUSH1 0xE0 SHL PUSH1 0x1 PUSH1 0x1 PUSH1 0xE0 SHL SUB NOT DUP4 AND EQ JUMPDEST SWAP3 SWAP2 POP POP JUMP JUMPDEST PUSH1 0x0 PUSH2 0x7E4 PUSH3 0x130495 PUSH1 0xE7 SHL PUSH2 0x2192 JUMP JUMPDEST PUSH1 0x40 MLOAD PUSH4 0xB5EA87B9 PUSH1 0xE0 SHL DUP2 MSTORE PUSH1 0x47 PUSH1 0x4 DUP3 ADD MSTORE PUSH1 0x1 PUSH1 0x1 PUSH1 0xA0 SHL SUB DUP4 AND PUSH1 0x24 DUP3 ADD MSTORE PUSH1 0x0 SWAP1 DUP2 SWAP1 PUSH20 0x0 SWAP1 PUSH4 0xB5EA87B9 SWAP1 PUSH1 0x44 ADD PUSH1 0x0 PUSH1 0x40 MLOAD DUP1 DUP4 SUB DUP2 DUP7 GAS DELEGATECALL ISZERO DUP1 ISZERO PUSH2 0x848 JUMPI RETURNDATASIZE PUSH1 0x0 DUP1 RETURNDATACOPY RETURNDATASIZE PUSH1 0x0 REVERT JUMPDEST POP POP POP POP PUSH1 0x40 MLOAD RETURNDATASIZE PUSH1 0x0 DUP3 RETURNDATACOPY PUSH1 0x1F RETURNDATASIZE SWAP1 DUP2 ADD PUSH1 0x1F NOT AND DUP3 ADD PUSH1 0x40 MSTORE PUSH2 0x870 SWAP2 SWAP1 DUP2 ADD SWAP1 PUSH2 0x3C34 JUMP JUMPDEST SWAP2 POP SWAP2 POP DUP4 PUSH1 0x1 PUSH1 0x1 PUSH1 0xA0 SHL SUB AND PUSH2 0x885 CALLER SWAP1 JUMP JUMPDEST PUSH1 0x1 PUSH1 0x1 PUSH1 0xA0 SHL SUB AND PUSH32 0xFBE16C292428CDC3E66E97F954E91CC4F49B472D24989DF1B2CDC27F295A7067 DUP5 DUP5 PUSH1 0x40 MLOAD PUSH2 0x8BF SWAP3 SWAP2 SWAP1 PUSH2 0x3C97 JUMP JUMPDEST PUSH1 0x40 MLOAD DUP1 SWAP2 SUB SWAP1 LOG3 POP PUSH1 0x1 SWAP4 SWAP3 POP POP POP JUMP JUMPDEST PUSH1 0x0 PUSH2 0x8E3 PUSH4 0x5D86655 PUSH1 0xE1 SHL PUSH2 0x21FB JUMP JUMPDEST PUSH1 0x40 MLOAD PUSH4 0x35C1CA49 PUSH1 0xE1 SHL DUP2 MSTORE PUSH1 0x1 PUSH1 0x1 PUSH1 0xA0 SHL SUB DUP5 AND SWAP1 PUSH4 0x6B839492 SWAP1 PUSH2 0x90F SWAP1 DUP6 SWAP1 PUSH1 0x4 ADD PUSH2 0x3CFE JUMP JUMPDEST PUSH1 0x20 PUSH1 0x40 MLOAD DUP1 DUP4 SUB DUP2 PUSH1 0x0 DUP8 GAS CALL ISZERO DUP1 ISZERO PUSH2 0x92E JUMPI RETURNDATASIZE PUSH1 0x0 DUP1 RETURNDATACOPY RETURNDATASIZE PUSH1 0x0 REVERT JUMPDEST POP POP POP POP PUSH1 0x40 MLOAD RETURNDATASIZE PUSH1 0x1F NOT PUSH1 0x1F DUP3 ADD AND DUP3 ADD DUP1 PUSH1 0x40 MSTORE POP DUP2 ADD SWAP1 PUSH2 0x952 SWAP2 SWAP1 PUSH2 0x3D0C JUMP JUMPDEST SWAP4 SWAP3 POP POP POP JUMP JUMPDEST PUSH1 0x0 PUSH2 0x96C DUP5 PUSH4 0x15EAEF6B PUSH1 0xE0 SHL PUSH2 0x281F JUMP JUMPDEST PUSH1 0x40 MLOAD PUSH4 0x3466D7F3 PUSH1 0xE1 SHL DUP2 MSTORE PUSH1 0x1 PUSH1 0x1 PUSH1 0xA0 SHL SUB DUP5 DUP2 AND PUSH1 0x4 DUP4 ADD MSTORE PUSH1 0x24 DUP3 ADD DUP5 SWAP1 MSTORE DUP6 AND SWAP1 PUSH4 0x68CDAFE6 SWAP1 PUSH1 0x44 ADD JUMPDEST PUSH1 0x20 PUSH1 0x40 MLOAD DUP1 DUP4 SUB DUP2 PUSH1 0x0 DUP8 GAS CALL ISZERO DUP1 ISZERO PUSH2 0x9BC JUMPI RETURNDATASIZE PUSH1 0x0 DUP1 RETURNDATACOPY RETURNDATASIZE PUSH1 0x0 REVERT JUMPDEST POP POP POP POP PUSH1 0x40 MLOAD RETURNDATASIZE PUSH1 0x1F NOT PUSH1 0x1F DUP3 ADD AND DUP3 ADD DUP1 PUSH1 0x40 MSTORE POP DUP2 ADD SWAP1 PUSH2 0x9E0 SWAP2 SWAP1 PUSH2 0x3D30 JUMP JUMPDEST SWAP5 SWAP4 POP POP POP POP JUMP JUMPDEST PUSH1 0x0 PUSH2 0x9FB DUP5 PUSH4 0x1BDC5627 PUSH1 0xE0 SHL PUSH2 0x281F JUMP JUMPDEST PUSH1 0x40 MLOAD PUSH4 0x3F149019 PUSH1 0xE2 SHL DUP2 MSTORE PUSH1 0x1 PUSH1 0x1 PUSH1 0xA0 SHL SUB DUP5 DUP2 AND PUSH1 0x4 DUP4 ADD MSTORE PUSH1 0x24 DUP3 ADD DUP5 SWAP1 MSTORE DUP6 AND SWAP1 PUSH4 0xFC524064 SWAP1 PUSH1 0x44 ADD JUMPDEST PUSH1 0x20 PUSH1 0x40 MLOAD DUP1 DUP4 SUB DUP2 PUSH1 0x0 DUP8 GAS CALL ISZERO DUP1 ISZERO PUSH2 0xA4B JUMPI RETURNDATASIZE PUSH1 0x0 DUP1 RETURNDATACOPY RETURNDATASIZE PUSH1 0x0 REVERT JUMPDEST POP POP POP POP PUSH1 0x40 MLOAD RETURNDATASIZE PUSH1 0x1F NOT PUSH1 0x1F DUP3 ADD AND DUP3 ADD DUP1 PUSH1 0x40 MSTORE POP DUP2 ADD SWAP1 PUSH2 0x9E0 SWAP2 SWAP1 PUSH2 0x3D0C JUMP JUMPDEST PUSH1 0x1 PUSH1 0x1 PUSH1 0xA0 SHL SUB DUP2 AND PUSH1 0x0 SWAP1 DUP2 MSTORE PUSH1 0x47 PUSH1 0x20 MSTORE PUSH1 0x40 DUP2 KECCAK256 PUSH1 0x2 DUP2 ADD SLOAD PUSH1 0x60 SWAP2 SWAP1 PUSH1 0xFF AND PUSH2 0xA9C DUP3 PUSH2 0x2A06 JUMP JUMPDEST SWAP3 POP SWAP3 POP POP SWAP2 POP SWAP2 JUMP JUMPDEST PUSH1 0x0 PUSH2 0xAB8 PUSH4 0x2A5C5803 PUSH1 0xE0 SHL PUSH2 0x2192 JUMP JUMPDEST PUSH1 0x45 SLOAD PUSH1 0x1 PUSH1 0x1 PUSH1 0xA0 SHL SUB DUP1 DUP5 AND SWAP2 AND SUB PUSH2 0xB1A JUMPI PUSH1 0x40 MLOAD PUSH3 0x461BCD PUSH1 0xE5 SHL DUP2 MSTORE PUSH1 0x20 PUSH1 0x4 DUP3 ADD MSTORE PUSH1 0x18 PUSH1 0x24 DUP3 ADD MSTORE PUSH32 0x4173736574496D706C20416C7265616479204578697374730000000000000000 PUSH1 0x44 DUP3 ADD MSTORE PUSH1 0x64 ADD JUMPDEST PUSH1 0x40 MLOAD DUP1 SWAP2 SUB SWAP1 REVERT JUMPDEST PUSH1 0x40 MLOAD PUSH4 0x2A5C5803 PUSH1 0xE0 SHL DUP2 MSTORE PUSH1 0x1 PUSH1 0x1 PUSH1 0xA0 SHL SUB DUP4 AND PUSH1 0x4 DUP3 ADD MSTORE PUSH20 0x0 SWAP1 PUSH4 0x2A5C5803 SWAP1 PUSH1 0x24 ADD PUSH1 0x20 PUSH1 0x40 MLOAD DUP1 DUP4 SUB DUP2 DUP7 GAS DELEGATECALL ISZERO DUP1 ISZERO PUSH2 0xB72 JUMPI RETURNDATASIZE PUSH1 0x0 DUP1 RETURNDATACOPY RETURNDATASIZE PUSH1 0x0 REVERT JUMPDEST POP POP POP POP PUSH1 0x40 MLOAD RETURNDATASIZE PUSH1 0x1F NOT PUSH1 0x1F DUP3 ADD AND DUP3 ADD DUP1 PUSH1 0x40 MSTORE POP DUP2 ADD SWAP1 PUSH2 0xB96 SWAP2 SWAP1 PUSH2 0x3D30 JUMP JUMPDEST POP PUSH1 0x40 MLOAD PUSH1 0x1 PUSH1 0x1 PUSH1 0xA0 SHL SUB DUP4 AND SWAP1 CALLER SWAP1 PUSH32 0x98498626E1B536DF80C6ECBAA24DA0937D521489D2D9B90609784E8A83FD6516 SWAP1 PUSH1 0x0 SWAP1 LOG3 POP PUSH1 0x45 DUP1 SLOAD PUSH1 0x1 PUSH1 0x1 PUSH1 0xA0 SHL SUB NOT AND PUSH1 0x1 PUSH1 0x1 PUSH1 0xA0 SHL SUB SWAP3 SWAP1 SWAP3 AND SWAP2 SWAP1 SWAP2 OR SWAP1 SSTORE PUSH1 0x1 SWAP1 JUMP JUMPDEST PUSH1 0x60 PUSH2 0xBFF PUSH1 0x48 PUSH2 0x2A06 JUMP JUMPDEST SWAP1 POP SWAP1 JUMP JUMPDEST PUSH1 0x0 PUSH2 0xC17 DUP5 PUSH4 0x61234A9 PUSH1 0xE3 SHL PUSH2 0x281F JUMP JUMPDEST PUSH1 0x40 MLOAD PUSH4 0x5297473 PUSH1 0xE5 SHL DUP2 MSTORE PUSH1 0x1 PUSH1 0x1 PUSH1 0xA0 SHL SUB DUP5 DUP2 AND PUSH1 0x4 DUP4 ADD MSTORE PUSH1 0x24 DUP3 ADD DUP5 SWAP1 MSTORE DUP6 AND SWAP1 PUSH4 0xA52E8E60 SWAP1 PUSH1 0x44 ADD PUSH2 0xA2C JUMP JUMPDEST PUSH1 0x0 PUSH2 0xC5E PUSH4 0x1B9E297D PUSH1 0xE1 SHL PUSH2 0x2192 JUMP JUMPDEST PUSH1 0x40 MLOAD DUP3 ISZERO ISZERO DUP2 MSTORE PUSH1 0x1 PUSH1 0x1 PUSH1 0xA0 SHL SUB DUP5 AND SWAP1 CALLER SWAP1 PUSH32 0x5B993D7A32D62133A02F02D99F7369FF289D4574F855412034F59ADB739615EC SWAP1 PUSH1 0x20 ADD PUSH1 0x40 MLOAD DUP1 SWAP2 SUB SWAP1 LOG3 PUSH1 0x40 MLOAD PUSH4 0xC79FD49B PUSH1 0xE0 SHL DUP2 MSTORE PUSH1 0x47 PUSH1 0x4 DUP3 ADD MSTORE PUSH1 0x1 PUSH1 0x1 PUSH1 0xA0 SHL SUB DUP5 AND PUSH1 0x24 DUP3 ADD MSTORE DUP3 ISZERO ISZERO PUSH1 0x44 DUP3 ADD MSTORE PUSH20 0x0 SWAP1 PUSH4 0xC79FD49B SWAP1 PUSH1 0x64 ADD PUSH1 0x20 PUSH1 0x40 MLOAD DUP1 DUP4 SUB DUP2 DUP7 GAS DELEGATECALL ISZERO DUP1 ISZERO PUSH2 0xD07 JUMPI RETURNDATASIZE PUSH1 0x0 DUP1 RETURNDATACOPY RETURNDATASIZE PUSH1 0x0 REVERT JUMPDEST POP POP POP POP PUSH1 0x40 MLOAD RETURNDATASIZE PUSH1 0x1F NOT PUSH1 0x1F DUP3 ADD AND DUP3 ADD DUP1 PUSH1 0x40 MSTORE POP DUP2 ADD SWAP1 PUSH2 0x952 SWAP2 SWAP1 PUSH2 0x3D30 JUMP JUMPDEST PUSH1 0x0 PUSH2 0xBFF PUSH1 0x4A SLOAD PUSH2 0xFFFF AND SWAP1 JUMP JUMPDEST PUSH1 0x0 PUSH1 0x1 PUSH1 0x1 PUSH1 0xA0 SHL SUB PUSH32 0x0 AND ADDRESS SUB PUSH2 0xD84 JUMPI PUSH1 0x40 MLOAD PUSH3 0x461BCD PUSH1 0xE5 SHL DUP2 MSTORE PUSH1 0x4 ADD PUSH2 0xB11 SWAP1 PUSH2 0x3D4D JUMP JUMPDEST PUSH32 0x0 PUSH1 0x1 PUSH1 0x1 PUSH1 0xA0 SHL SUB AND PUSH2 0xDB6 PUSH2 0x2A13 JUMP JUMPDEST PUSH1 0x1 PUSH1 0x1 PUSH1 0xA0 SHL SUB AND EQ PUSH2 0xDDC JUMPI PUSH1 0x40 MLOAD PUSH3 0x461BCD PUSH1 0xE5 SHL DUP2 MSTORE PUSH1 0x4 ADD PUSH2 0xB11 SWAP1 PUSH2 0x3D7C JUMP JUMPDEST PUSH1 0x0 PUSH2 0xDEB PUSH1 0x4A SLOAD PUSH2 0xFFFF AND SWAP1 JUMP JUMPDEST PUSH2 0xFFFF AND GT PUSH2 0xE3C JUMPI PUSH1 0x40 MLOAD PUSH3 0x461BCD PUSH1 0xE5 SHL DUP2 MSTORE PUSH1 0x20 PUSH1 0x4 DUP3 ADD MSTORE PUSH1 0x18 PUSH1 0x24 DUP3 ADD MSTORE PUSH32 0x436F6E7472616374204E6F7420496E697469616C697A65640000000000000000 PUSH1 0x44 DUP3 ADD MSTORE PUSH1 0x64 ADD PUSH2 0xB11 JUMP JUMPDEST PUSH2 0xE4C PUSH4 0x225BF2F9 PUSH1 0xE1 SHL PUSH2 0x2A34 JUMP JUMPDEST PUSH2 0xE90 JUMPI PUSH1 0x40 MLOAD PUSH3 0x461BCD PUSH1 0xE5 SHL DUP2 MSTORE PUSH1 0x20 PUSH1 0x4 DUP3 ADD MSTORE PUSH1 0x15 PUSH1 0x24 DUP3 ADD MSTORE PUSH21 0x29B2BA29B0B332A6B7B232902337B93134B23232B7 PUSH1 0x59 SHL PUSH1 0x44 DUP3 ADD MSTORE PUSH1 0x64 ADD PUSH2 0xB11 JUMP JUMPDEST PUSH1 0x4 DUP1 SLOAD PUSH1 0xFF NOT AND DUP4 ISZERO ISZERO OR SWAP1 SSTORE PUSH1 0x3 SLOAD ADDRESS CALLER PUSH1 0x1 PUSH1 0x1 PUSH1 0xA0 SHL SUB AND PUSH32 0xDD452A31D2E164A1EA436C084842C27D24AE2548A575A869F71B05A4ED16243F DUP6 PUSH1 0x40 MLOAD PUSH2 0xEDF SWAP2 ISZERO ISZERO DUP2 MSTORE PUSH1 0x20 ADD SWAP1 JUMP JUMPDEST PUSH1 0x40 MLOAD DUP1 SWAP2 SUB SWAP1 LOG4 POP DUP1 JUMPDEST SWAP2 SWAP1 POP JUMP JUMPDEST PUSH1 0x0 PUSH1 0x1 PUSH1 0x1 PUSH1 0xA0 SHL SUB PUSH32 0x0 AND ADDRESS SUB PUSH2 0xF39 JUMPI PUSH1 0x40 MLOAD PUSH3 0x461BCD PUSH1 0xE5 SHL DUP2 MSTORE PUSH1 0x4 ADD PUSH2 0xB11 SWAP1 PUSH2 0x3D4D JUMP JUMPDEST PUSH32 0x0 PUSH1 0x1 PUSH1 0x1 PUSH1 0xA0 SHL SUB AND PUSH2 0xF6B PUSH2 0x2A13 JUMP JUMPDEST PUSH1 0x1 PUSH1 0x1 PUSH1 0xA0 SHL SUB AND EQ PUSH2 0xF91 JUMPI PUSH1 0x40 MLOAD PUSH3 0x461BCD PUSH1 0xE5 SHL DUP2 MSTORE PUSH1 0x4 ADD PUSH2 0xB11 SWAP1 PUSH2 0x3D7C JUMP JUMPDEST PUSH1 0x4 SLOAD PUSH1 0xFF AND ISZERO PUSH2 0xFB4 JUMPI PUSH1 0x40 MLOAD PUSH3 0x461BCD PUSH1 0xE5 SHL DUP2 MSTORE PUSH1 0x4 ADD PUSH2 0xB11 SWAP1 PUSH2 0x3DAA JUMP JUMPDEST PUSH2 0xFC4 PUSH4 0x1239AF87 PUSH1 0xE2 SHL PUSH2 0x2A34 JUMP JUMPDEST PUSH2 0x1010 JUMPI PUSH1 0x40 MLOAD PUSH3 0x461BCD PUSH1 0xE5 SHL DUP2 MSTORE PUSH1 0x20 PUSH1 0x4 DUP3 ADD MSTORE PUSH1 0x1A PUSH1 0x24 DUP3 ADD MSTORE PUSH32 0x5365745570677261646553746174757320466F7262696464656E000000000000 PUSH1 0x44 DUP3 ADD MSTORE PUSH1 0x64 ADD PUSH2 0xB11 JUMP JUMPDEST PUSH2 0x1018 PUSH2 0x2B77 JUMP JUMPDEST PUSH2 0x1064 JUMPI PUSH1 0x40 MLOAD PUSH3 0x461BCD PUSH1 0xE5 SHL DUP2 MSTORE PUSH1 0x20 PUSH1 0x4 DUP3 ADD MSTORE PUSH1 0x17 PUSH1 0x24 DUP3 ADD MSTORE PUSH32 0x5265616C6D205570677261646520466F7262696464656E000000000000000000 PUSH1 0x44 DUP3 ADD MSTORE PUSH1 0x64 ADD PUSH2 0xB11 JUMP JUMPDEST PUSH1 0x4 DUP1 SLOAD PUSH2 0xFF00 NOT AND PUSH2 0x100 DUP5 ISZERO ISZERO MUL OR SWAP1 SSTORE PUSH1 0x3 SLOAD ADDRESS CALLER PUSH1 0x1 PUSH1 0x1 PUSH1 0xA0 SHL SUB AND PUSH32 0xE9F97AD94C2BA252DCFC525E004F608AC5CB886955D8FC87D9E0EE070A698C56 DUP6 PUSH1 0x40 MLOAD PUSH2 0xEDF SWAP2 ISZERO ISZERO DUP2 MSTORE PUSH1 0x20 ADD SWAP1 JUMP JUMPDEST PUSH1 0x0 PUSH2 0x10CB DUP3 PUSH4 0x4A5E42B1 PUSH1 0xE0 SHL PUSH2 0x281F JUMP JUMPDEST PUSH1 0x40 MLOAD PUSH4 0xBBB9B43D PUSH1 0xE0 SHL DUP2 MSTORE PUSH1 0x47 PUSH1 0x4 DUP3 ADD MSTORE PUSH1 0x1 PUSH1 0x1 PUSH1 0xA0 SHL SUB DUP4 AND PUSH1 0x24 DUP3 ADD MSTORE PUSH1 0x0 SWAP1 PUSH20 0x0 SWAP1 PUSH4 0xBBB9B43D SWAP1 PUSH1 0x44 ADD PUSH1 0x20 PUSH1 0x40 MLOAD DUP1 DUP4 SUB DUP2 DUP7 GAS DELEGATECALL ISZERO DUP1 ISZERO PUSH2 0x112D JUMPI RETURNDATASIZE PUSH1 0x0 DUP1 RETURNDATACOPY RETURNDATASIZE PUSH1 0x0 REVERT JUMPDEST POP POP POP POP PUSH1 0x40 MLOAD RETURNDATASIZE PUSH1 0x1F NOT PUSH1 0x1F DUP3 ADD AND DUP3 ADD DUP1 PUSH1 0x40 MSTORE POP DUP2 ADD SWAP1 PUSH2 0x1151 SWAP2 SWAP1 PUSH2 0x3DE1 JUMP JUMPDEST SWAP1 POP DUP1 PUSH1 0x1 PUSH1 0x1 PUSH1 0xA0 SHL SUB AND DUP4 PUSH1 0x1 PUSH1 0x1 PUSH1 0xA0 SHL SUB AND PUSH2 0x116E CALLER SWAP1 JUMP JUMPDEST PUSH1 0x1 PUSH1 0x1 PUSH1 0xA0 SHL SUB AND PUSH32 0x9B4F55639E5E283319BAEE5BC4E69A5625A8E3A1CC004AF968F4FEE725022027 PUSH1 0x40 MLOAD PUSH1 0x40 MLOAD DUP1 SWAP2 SUB SWAP1 LOG4 POP PUSH1 0x1 SWAP3 SWAP2 POP POP JUMP JUMPDEST PUSH1 0x0 ADDRESS PUSH1 0x1 PUSH1 0x1 PUSH1 0xA0 SHL SUB PUSH32 0x0 AND EQ PUSH2 0x1226 JUMPI PUSH1 0x40 MLOAD PUSH3 0x461BCD PUSH1 0xE5 SHL DUP2 MSTORE PUSH1 0x20 PUSH1 0x4 DUP3 ADD MSTORE PUSH1 0x1D PUSH1 0x24 DUP3 ADD MSTORE PUSH32 0x496C6C6567616C20436F6E74726163742044656C656761746563616C6C000000 PUSH1 0x44 DUP3 ADD MSTORE PUSH1 0x64 ADD PUSH2 0xB11 JUMP JUMPDEST POP PUSH1 0x0 DUP1 MLOAD PUSH1 0x20 PUSH2 0x480E DUP4 CODECOPY DUP2 MLOAD SWAP2 MSTORE SWAP1 JUMP JUMPDEST PUSH1 0x0 PUSH2 0x124C DUP5 PUSH4 0x2B2DF8FD PUSH1 0xE1 SHL PUSH2 0x281F JUMP JUMPDEST PUSH1 0x40 MLOAD PUSH4 0x2710B17B PUSH1 0xE2 SHL DUP2 MSTORE PUSH1 0x1 PUSH1 0x1 PUSH1 0xA0 SHL SUB DUP6 AND SWAP1 PUSH4 0x9C42C5EC SWAP1 PUSH2 0x99D SWAP1 DUP7 SWAP1 DUP7 SWAP1 PUSH1 0x4 ADD PUSH2 0x3DFE JUMP JUMPDEST PUSH1 0x0 PUSH2 0xBFF PUSH2 0x2A13 JUMP JUMPDEST PUSH1 0x0 PUSH2 0x1297 DUP5 PUSH4 0x622110E1 PUSH1 0xE0 SHL PUSH2 0x281F JUMP JUMPDEST PUSH1 0x40 MLOAD PUSH4 0xE9DBEBBD PUSH1 0xE0 SHL DUP2 MSTORE PUSH1 0x1 PUSH1 0x1 PUSH1 0xA0 SHL SUB DUP6 AND SWAP1 PUSH4 0xE9DBEBBD SWAP1 PUSH2 0x99D SWAP1 DUP7 SWAP1 DUP7 SWAP1 PUSH1 0x4 ADD PUSH2 0x3E6E JUMP JUMPDEST PUSH1 0x0 PUSH2 0x7CD DUP3 PUSH1 0x47 PUSH1 0x0 ADD PUSH1 0x0 DUP6 PUSH1 0x1 PUSH1 0x1 PUSH1 0xA0 SHL SUB AND PUSH4 0x1083F761 PUSH1 0x40 MLOAD DUP2 PUSH4 0xFFFFFFFF AND PUSH1 0xE0 SHL DUP2 MSTORE PUSH1 0x4 ADD PUSH1 0x20 PUSH1 0x40 MLOAD DUP1 DUP4 SUB DUP2 DUP7 GAS STATICCALL ISZERO DUP1 ISZERO PUSH2 0x1310 JUMPI RETURNDATASIZE PUSH1 0x0 DUP1 RETURNDATACOPY RETURNDATASIZE PUSH1 0x0 REVERT JUMPDEST POP POP POP POP PUSH1 0x40 MLOAD RETURNDATASIZE PUSH1 0x1F NOT PUSH1 0x1F DUP3 ADD AND DUP3 ADD DUP1 PUSH1 0x40 MSTORE POP DUP2 ADD SWAP1 PUSH2 0x1334 SWAP2 SWAP1 PUSH2 0x3DE1 JUMP JUMPDEST PUSH1 0x1 PUSH1 0x1 PUSH1 0xA0 SHL SUB AND DUP2 MSTORE PUSH1 0x20 DUP2 ADD SWAP2 SWAP1 SWAP2 MSTORE PUSH1 0x40 ADD PUSH1 0x0 KECCAK256 SWAP1 PUSH2 0x2CB3 JUMP JUMPDEST PUSH1 0x60 PUSH1 0x1 PUSH1 0x1 PUSH1 0xA0 SHL SUB PUSH32 0x0 AND ADDRESS SUB PUSH2 0x139D JUMPI PUSH1 0x40 MLOAD PUSH3 0x461BCD PUSH1 0xE5 SHL DUP2 MSTORE PUSH1 0x4 ADD PUSH2 0xB11 SWAP1 PUSH2 0x3D4D JUMP JUMPDEST PUSH32 0x0 PUSH1 0x1 PUSH1 0x1 PUSH1 0xA0 SHL SUB AND PUSH2 0x13CF PUSH2 0x2A13 JUMP JUMPDEST PUSH1 0x1 PUSH1 0x1 PUSH1 0xA0 SHL SUB AND EQ PUSH2 0x13F5 JUMPI PUSH1 0x40 MLOAD PUSH3 0x461BCD PUSH1 0xE5 SHL DUP2 MSTORE PUSH1 0x4 ADD PUSH2 0xB11 SWAP1 PUSH2 0x3D7C JUMP JUMPDEST PUSH1 0x4 SLOAD PUSH1 0xFF AND ISZERO PUSH2 0x1418 JUMPI PUSH1 0x40 MLOAD PUSH3 0x461BCD PUSH1 0xE5 SHL DUP2 MSTORE PUSH1 0x4 ADD PUSH2 0xB11 SWAP1 PUSH2 0x3DAA JUMP JUMPDEST PUSH1 0x4 SLOAD PUSH2 0x100 SWAP1 DIV PUSH1 0xFF AND PUSH2 0x1467 JUMPI PUSH1 0x40 MLOAD PUSH3 0x461BCD PUSH1 0xE5 SHL DUP2 MSTORE PUSH1 0x20 PUSH1 0x4 DUP3 ADD MSTORE PUSH1 0x15 PUSH1 0x24 DUP3 ADD MSTORE PUSH21 0x155C19DC9859194810D85B1B0814995A9958DD1959 PUSH1 0x5A SHL PUSH1 0x44 DUP3 ADD MSTORE PUSH1 0x64 ADD PUSH2 0xB11 JUMP JUMPDEST PUSH2 0x1470 DUP5 PUSH2 0x2CD5 JUMP JUMPDEST PUSH2 0x9E0 DUP5 DUP5 DUP5 PUSH2 0x2D99 JUMP JUMPDEST PUSH1 0x4 SLOAD PUSH1 0xFF AND ISZERO PUSH2 0x149E JUMPI PUSH1 0x40 MLOAD PUSH3 0x461BCD PUSH1 0xE5 SHL DUP2 MSTORE PUSH1 0x4 ADD PUSH2 0xB11 SWAP1 PUSH2 0x3DAA JUMP JUMPDEST PUSH2 0x14AE PUSH4 0x756AF45F PUSH1 0xE0 SHL PUSH2 0x2A34 JUMP JUMPDEST PUSH2 0x14FA JUMPI PUSH1 0x40 MLOAD PUSH3 0x461BCD PUSH1 0xE5 SHL DUP2 MSTORE PUSH1 0x20 PUSH1 0x4 DUP3 ADD MSTORE PUSH1 0x1A PUSH1 0x24 DUP3 ADD MSTORE PUSH32 0x57697468647261772042616C616E636520466F7262696464656E000000000000 PUSH1 0x44 DUP3 ADD MSTORE PUSH1 0x64 ADD PUSH2 0xB11 JUMP JUMPDEST PUSH1 0x40 MLOAD PUSH1 0x1 PUSH1 0x1 PUSH1 0xA0 SHL SUB DUP3 AND SWAP1 SELFBALANCE DUP1 ISZERO PUSH2 0x8FC MUL SWAP2 PUSH1 0x0 DUP2 DUP2 DUP2 DUP6 DUP9 DUP9 CALL SWAP4 POP POP POP POP ISZERO DUP1 ISZERO PUSH2 0x152F JUMPI RETURNDATASIZE PUSH1 0x0 DUP1 RETURNDATACOPY RETURNDATASIZE PUSH1 0x0 REVERT JUMPDEST POP POP JUMP JUMPDEST PUSH1 0x60 PUSH2 0x1545 PUSH4 0x3D04CA0F PUSH1 0xE1 SHL PUSH2 0x21FB JUMP JUMPDEST PUSH1 0x40 MLOAD PUSH4 0x9A7E1873 PUSH1 0xE0 SHL DUP2 MSTORE PUSH1 0x1 PUSH1 0x1 PUSH1 0xA0 SHL SUB DUP6 AND SWAP1 PUSH4 0x9A7E1873 SWAP1 PUSH2 0x1573 SWAP1 DUP7 SWAP1 DUP7 SWAP1 PUSH1 0x4 ADD PUSH2 0x3EBA JUMP JUMPDEST PUSH1 0x0 PUSH1 0x40 MLOAD DUP1 DUP4 SUB DUP2 PUSH1 0x0 DUP8 GAS CALL ISZERO DUP1 ISZERO PUSH2 0x1592 JUMPI RETURNDATASIZE PUSH1 0x0 DUP1 RETURNDATACOPY RETURNDATASIZE PUSH1 0x0 REVERT JUMPDEST POP POP POP POP PUSH1 0x40 MLOAD RETURNDATASIZE PUSH1 0x0 DUP3 RETURNDATACOPY PUSH1 0x1F RETURNDATASIZE SWAP1 DUP2 ADD PUSH1 0x1F NOT AND DUP3 ADD PUSH1 0x40 MSTORE PUSH2 0x9E0 SWAP2 SWAP1 DUP2 ADD SWAP1 PUSH2 0x3F1F JUMP JUMPDEST PUSH1 0x0 PUSH2 0xBFF ADDRESS PUSH2 0x2FEF JUMP JUMPDEST PUSH1 0x0 PUSH2 0x7CD PUSH1 0x48 DUP4 PUSH2 0x2CB3 JUMP JUMPDEST PUSH1 0x0 PUSH2 0x15E4 PUSH4 0xB484C889 PUSH1 0xE0 SHL PUSH2 0x2192 JUMP JUMPDEST PUSH1 0x0 DUP1 SLOAD PUSH1 0x45 SLOAD PUSH1 0x40 MLOAD PUSH4 0x8D9F7E3 PUSH1 0xE0 SHL DUP2 MSTORE DUP4 SWAP3 PUSH20 0x0 SWAP3 PUSH4 0x8D9F7E3 SWAP3 PUSH2 0x163A SWAP3 PUSH1 0x47 SWAP3 DUP11 SWAP3 PUSH1 0x1 PUSH1 0x1 PUSH1 0xA0 SHL SUB SWAP3 DUP4 AND SWAP3 SWAP1 SWAP2 AND SWAP1 PUSH1 0x46 SWAP1 PUSH1 0x4 ADD PUSH2 0x40DB JUMP JUMPDEST PUSH1 0x40 DUP1 MLOAD DUP1 DUP4 SUB DUP2 DUP7 GAS DELEGATECALL ISZERO DUP1 ISZERO PUSH2 0x1656 JUMPI RETURNDATASIZE PUSH1 0x0 DUP1 RETURNDATACOPY RETURNDATASIZE PUSH1 0x0 REVERT JUMPDEST POP POP POP POP PUSH1 0x40 MLOAD RETURNDATASIZE PUSH1 0x1F NOT PUSH1 0x1F DUP3 ADD AND DUP3 ADD DUP1 PUSH1 0x40 MSTORE POP DUP2 ADD SWAP1 PUSH2 0x167A SWAP2 SWAP1 PUSH2 0x41A6 JUMP JUMPDEST SWAP1 SWAP3 POP SWAP1 POP PUSH2 0x168F PUSH1 0x60 DUP6 ADD PUSH1 0x40 DUP7 ADD PUSH2 0x361C JUMP JUMPDEST PUSH1 0x1 PUSH1 0x1 PUSH1 0xA0 SHL SUB AND DUP3 PUSH1 0x1 PUSH1 0x1 PUSH1 0xA0 SHL SUB AND PUSH2 0x16A9 CALLER SWAP1 JUMP JUMPDEST PUSH1 0x40 MLOAD PUSH1 0x1 PUSH1 0x1 PUSH1 0xA0 SHL SUB DUP6 DUP2 AND DUP3 MSTORE SWAP2 SWAP1 SWAP2 AND SWAP1 PUSH32 0xA585F587BCFC3F76ACEC7DB143AA51E1BE0B5E75BEE741689D55AF27CBED7C1D SWAP1 PUSH1 0x20 ADD PUSH1 0x40 MLOAD DUP1 SWAP2 SUB SWAP1 LOG4 POP SWAP3 SWAP2 POP POP JUMP JUMPDEST PUSH1 0x0 DUP2 PUSH1 0x1 PUSH1 0x1 PUSH1 0xA0 SHL SUB AND PUSH4 0x4CFB9949 PUSH1 0x40 MLOAD DUP2 PUSH4 0xFFFFFFFF AND PUSH1 0xE0 SHL DUP2 MSTORE PUSH1 0x4 ADD PUSH1 0x20 PUSH1 0x40 MLOAD DUP1 DUP4 SUB DUP2 DUP7 GAS STATICCALL ISZERO DUP1 ISZERO PUSH2 0x1732 JUMPI RETURNDATASIZE PUSH1 0x0 DUP1 RETURNDATACOPY RETURNDATASIZE PUSH1 0x0 REVERT JUMPDEST POP POP POP POP PUSH1 0x40 MLOAD RETURNDATASIZE PUSH1 0x1F NOT PUSH1 0x1F DUP3 ADD AND DUP3 ADD DUP1 PUSH1 0x40 MSTORE POP DUP2 ADD SWAP1 PUSH2 0x7CD SWAP2 SWAP1 PUSH2 0x3D30 JUMP JUMPDEST PUSH1 0x40 MLOAD PUSH4 0x658C9CA1 PUSH1 0xE1 SHL DUP2 MSTORE PUSH1 0x1 PUSH1 0x1 PUSH1 0xA0 SHL SUB DUP4 AND PUSH1 0x4 DUP3 ADD MSTORE PUSH1 0x24 DUP2 ADD DUP3 SWAP1 MSTORE PUSH1 0x0 SWAP1 PUSH20 0x0 SWAP1 PUSH4 0xCB193942 SWAP1 PUSH1 0x44 ADD PUSH1 0x20 PUSH1 0x40 MLOAD DUP1 DUP4 SUB DUP2 DUP7 GAS DELEGATECALL ISZERO DUP1 ISZERO PUSH2 0x17B8 JUMPI RETURNDATASIZE PUSH1 0x0 DUP1 RETURNDATACOPY RETURNDATASIZE PUSH1 0x0 REVERT JUMPDEST POP POP POP POP PUSH1 0x40 MLOAD RETURNDATASIZE PUSH1 0x1F NOT PUSH1 0x1F DUP3 ADD AND DUP3 ADD DUP1 PUSH1 0x40 MSTORE POP DUP2 ADD SWAP1 PUSH2 0x952 SWAP2 SWAP1 PUSH2 0x3DE1 JUMP JUMPDEST PUSH2 0x17EC PUSH4 0x343A33AB PUSH1 0xE2 SHL PUSH2 0x2192 JUMP JUMPDEST PUSH1 0x0 SLOAD PUSH1 0x40 MLOAD PUSH4 0x299E6915 PUSH1 0xE0 SHL DUP2 MSTORE PUSH1 0x1 PUSH1 0x1 PUSH1 0xA0 SHL SUB SWAP1 SWAP2 AND PUSH1 0x4 DUP3 ADD MSTORE PUSH20 0x0 SWAP1 PUSH4 0x299E6915 SWAP1 PUSH1 0x24 ADD PUSH1 0x0 PUSH1 0x40 MLOAD DUP1 DUP4 SUB DUP2 DUP7 DUP1 EXTCODESIZE ISZERO DUP1 ISZERO PUSH2 0x1843 JUMPI PUSH1 0x0 DUP1 REVERT JUMPDEST POP GAS DELEGATECALL ISZERO DUP1 ISZERO PUSH2 0x1857 JUMPI RETURNDATASIZE PUSH1 0x0 DUP1 RETURNDATACOPY RETURNDATASIZE PUSH1 0x0 REVERT JUMPDEST POP POP POP POP JUMP JUMPDEST PUSH1 0x0 PUSH1 0x1 PUSH1 0x1 PUSH1 0xA0 SHL SUB PUSH32 0x0 AND ADDRESS SUB PUSH2 0x18A7 JUMPI PUSH1 0x40 MLOAD PUSH3 0x461BCD PUSH1 0xE5 SHL DUP2 MSTORE PUSH1 0x4 ADD PUSH2 0xB11 SWAP1 PUSH2 0x3D4D JUMP JUMPDEST PUSH32 0x0 PUSH1 0x1 PUSH1 0x1 PUSH1 0xA0 SHL SUB AND PUSH2 0x18D9 PUSH2 0x2A13 JUMP JUMPDEST PUSH1 0x1 PUSH1 0x1 PUSH1 0xA0 SHL SUB AND EQ PUSH2 0x18FF JUMPI PUSH1 0x40 MLOAD PUSH3 0x461BCD PUSH1 0xE5 SHL DUP2 MSTORE PUSH1 0x4 ADD PUSH2 0xB11 SWAP1 PUSH2 0x3D7C JUMP JUMPDEST PUSH1 0x4 SLOAD PUSH1 0xFF AND ISZERO PUSH2 0x1922 JUMPI PUSH1 0x40 MLOAD PUSH3 0x461BCD PUSH1 0xE5 SHL DUP2 MSTORE PUSH1 0x4 ADD PUSH2 0xB11 SWAP1 PUSH2 0x3DAA JUMP JUMPDEST PUSH2 0x1932 PUSH4 0xD9DC1F19 PUSH1 0xE0 SHL PUSH2 0x2A34 JUMP JUMPDEST PUSH2 0x197E JUMPI PUSH1 0x40 MLOAD PUSH3 0x461BCD PUSH1 0xE5 SHL DUP2 MSTORE PUSH1 0x20 PUSH1 0x4 DUP3 ADD MSTORE PUSH1 0x17 PUSH1 0x24 DUP3 ADD MSTORE PUSH32 0x5365744C6F63616C41646D696E20466F7262696464656E000000000000000000 PUSH1 0x44 DUP3 ADD MSTORE PUSH1 0x64 ADD PUSH2 0xB11 JUMP JUMPDEST PUSH1 0x1 PUSH1 0x1 PUSH1 0xA0 SHL SUB DUP3 AND PUSH2 0x19C6 JUMPI PUSH1 0x40 MLOAD PUSH3 0x461BCD PUSH1 0xE5 SHL DUP2 MSTORE PUSH1 0x20 PUSH1 0x4 DUP3 ADD MSTORE PUSH1 0xF PUSH1 0x24 DUP3 ADD MSTORE PUSH15 0x1059191C995CDCC8125B9D985B1A59 PUSH1 0x8A SHL PUSH1 0x44 DUP3 ADD MSTORE PUSH1 0x64 ADD PUSH2 0xB11 JUMP JUMPDEST PUSH2 0x19CF DUP3 PUSH2 0x302E JUMP JUMPDEST POP PUSH1 0x1 SWAP2 SWAP1 POP JUMP JUMPDEST PUSH1 0x0 PUSH2 0x19EA DUP6 PUSH4 0xF3913E69 PUSH1 0xE0 SHL PUSH2 0x281F JUMP JUMPDEST PUSH1 0x40 MLOAD PUSH4 0x4B0CBA5D PUSH1 0xE1 SHL DUP2 MSTORE PUSH1 0x1 PUSH1 0x1 PUSH1 0xA0 SHL SUB DUP6 DUP2 AND PUSH1 0x4 DUP4 ADD MSTORE DUP5 DUP2 AND PUSH1 0x24 DUP4 ADD MSTORE PUSH1 0x44 DUP3 ADD DUP5 SWAP1 MSTORE DUP7 AND SWAP1 PUSH4 0x961974BA SWAP1 PUSH1 0x64 ADD PUSH1 0x20 PUSH1 0x40 MLOAD DUP1 DUP4 SUB DUP2 PUSH1 0x0 DUP8 GAS CALL ISZERO DUP1 ISZERO PUSH2 0x1A41 JUMPI RETURNDATASIZE PUSH1 0x0 DUP1 RETURNDATACOPY RETURNDATASIZE PUSH1 0x0 REVERT JUMPDEST POP POP POP POP PUSH1 0x40 MLOAD RETURNDATASIZE PUSH1 0x1F NOT PUSH1 0x1F DUP3 ADD AND DUP3 ADD DUP1 PUSH1 0x40 MSTORE POP DUP2 ADD SWAP1 PUSH2 0x1A65 SWAP2 SWAP1 PUSH2 0x3D30 JUMP JUMPDEST SWAP6 SWAP5 POP POP POP POP POP JUMP JUMPDEST PUSH1 0x0 PUSH2 0xBFF PUSH1 0x1 SLOAD PUSH1 0x2 SLOAD PUSH1 0x40 DUP1 MLOAD PUSH32 0x8B73C3C69BB8FE3D512ECC4CF759CC79239F7B179B0FFACAA9A75D522B39400F PUSH1 0x20 DUP3 ADD MSTORE SWAP1 DUP2 ADD SWAP3 SWAP1 SWAP3 MSTORE PUSH1 0x60 DUP3 ADD MSTORE CHAINID PUSH1 0x80 DUP3 ADD MSTORE ADDRESS PUSH1 0xA0 DUP3 ADD MSTORE PUSH1 0x0 SWAP1 PUSH1 0xC0 ADD PUSH1 0x40 MLOAD PUSH1 0x20 DUP2 DUP4 SUB SUB DUP2 MSTORE SWAP1 PUSH1 0x40 MSTORE DUP1 MLOAD SWAP1 PUSH1 0x20 ADD KECCAK256 SWAP1 POP SWAP1 JUMP JUMPDEST PUSH1 0x0 PUSH2 0xBFF PUSH2 0x30A5 JUMP JUMPDEST PUSH1 0x1 PUSH1 0x1 PUSH1 0xA0 SHL SUB PUSH32 0x0 AND ADDRESS SUB PUSH2 0x1B2E JUMPI PUSH1 0x40 MLOAD PUSH3 0x461BCD PUSH1 0xE5 SHL DUP2 MSTORE PUSH1 0x4 ADD PUSH2 0xB11 SWAP1 PUSH2 0x3D4D JUMP JUMPDEST PUSH32 0x0 PUSH1 0x1 PUSH1 0x1 PUSH1 0xA0 SHL SUB AND PUSH2 0x1B60 PUSH2 0x2A13 JUMP JUMPDEST PUSH1 0x1 PUSH1 0x1 PUSH1 0xA0 SHL SUB AND EQ PUSH2 0x1B86 JUMPI PUSH1 0x40 MLOAD PUSH3 0x461BCD PUSH1 0xE5 SHL DUP2 MSTORE PUSH1 0x4 ADD PUSH2 0xB11 SWAP1 PUSH2 0x3D7C JUMP JUMPDEST CALLER PUSH2 0x1B8F PUSH2 0x30A5 JUMP JUMPDEST PUSH1 0x1 PUSH1 0x1 PUSH1 0xA0 SHL SUB AND EQ PUSH2 0x1BDD JUMPI PUSH1 0x40 MLOAD PUSH3 0x461BCD PUSH1 0xE5 SHL DUP2 MSTORE PUSH1 0x20 PUSH1 0x4 DUP3 ADD MSTORE PUSH1 0x15 PUSH1 0x24 DUP3 ADD MSTORE PUSH21 0x10D85B1B195C88139BDD08105D5D1A1BDC9A5E9959 PUSH1 0x5A SHL PUSH1 0x44 DUP3 ADD MSTORE PUSH1 0x64 ADD PUSH2 0xB11 JUMP JUMPDEST PUSH1 0x4A SLOAD PUSH3 0x10000 SWAP1 DIV PUSH1 0xFF AND ISZERO DUP1 DUP1 ISZERO PUSH2 0x1BFF JUMPI POP PUSH1 0x4A SLOAD PUSH1 0x1 PUSH2 0xFFFF SWAP1 SWAP2 AND LT JUMPDEST DUP1 PUSH2 0x1C1A JUMPI POP ADDRESS EXTCODESIZE ISZERO DUP1 ISZERO PUSH2 0x1C1A JUMPI POP PUSH1 0x4A SLOAD PUSH2 0xFFFF AND PUSH1 0x1 EQ JUMPDEST PUSH2 0x1C66 JUMPI PUSH1 0x40 MLOAD PUSH3 0x461BCD PUSH1 0xE5 SHL DUP2 MSTORE PUSH1 0x20 PUSH1 0x4 DUP3 ADD MSTORE PUSH1 0x1C PUSH1 0x24 DUP3 ADD MSTORE PUSH32 0x436F6E747261637420416C726561647920496E697469616C697A656400000000 PUSH1 0x44 DUP3 ADD MSTORE PUSH1 0x64 ADD PUSH2 0xB11 JUMP JUMPDEST PUSH1 0x4A DUP1 SLOAD PUSH2 0xFFFF NOT AND PUSH1 0x1 OR SWAP1 SSTORE DUP1 ISZERO PUSH2 0x1C8C JUMPI PUSH1 0x4A DUP1 SLOAD PUSH3 0xFF0000 NOT AND PUSH3 0x10000 OR SWAP1 SSTORE JUMPDEST PUSH1 0x0 PUSH2 0x1C9B PUSH1 0x40 DUP5 ADD DUP5 PUSH2 0x41D5 JUMP JUMPDEST PUSH1 0x40 MLOAD PUSH1 0x20 ADD PUSH2 0x1CAC SWAP3 SWAP2 SWAP1 PUSH2 0x421B JUMP JUMPDEST PUSH1 0x40 DUP1 MLOAD PUSH1 0x1F NOT DUP2 DUP5 SUB ADD DUP2 MSTORE SWAP2 SWAP1 MSTORE DUP1 MLOAD PUSH1 0x20 SWAP1 SWAP2 ADD KECCAK256 SWAP1 POP PUSH2 0x1CF6 PUSH2 0x1CD3 DUP5 DUP1 PUSH2 0x41D5 JUMP JUMPDEST PUSH2 0x1CE0 PUSH1 0x20 DUP8 ADD DUP8 PUSH2 0x41D5 JUMP JUMPDEST DUP6 PUSH2 0x1CF1 PUSH1 0x80 DUP11 ADD PUSH1 0x60 DUP12 ADD PUSH2 0x361C JUMP JUMPDEST PUSH2 0x30CD JUMP JUMPDEST PUSH2 0x1D06 PUSH1 0xA0 DUP5 ADD PUSH1 0x80 DUP6 ADD PUSH2 0x361C JUMP JUMPDEST PUSH1 0x1 PUSH1 0x1 PUSH1 0xA0 SHL SUB AND PUSH4 0x1FFC9A7 PUSH4 0x391F033D PUSH1 0xE1 SHL PUSH1 0x40 MLOAD DUP3 PUSH4 0xFFFFFFFF AND PUSH1 0xE0 SHL DUP2 MSTORE PUSH1 0x4 ADD PUSH2 0x1D38 SWAP2 SWAP1 PUSH2 0x422B JUMP JUMPDEST PUSH1 0x20 PUSH1 0x40 MLOAD DUP1 DUP4 SUB DUP2 DUP7 GAS STATICCALL SWAP3 POP POP POP DUP1 ISZERO PUSH2 0x1D71 JUMPI POP PUSH1 0x40 DUP1 MLOAD PUSH1 0x1F RETURNDATASIZE SWAP1 DUP2 ADD PUSH1 0x1F NOT AND DUP3 ADD SWAP1 SWAP3 MSTORE PUSH2 0x1D6E SWAP2 DUP2 ADD SWAP1 PUSH2 0x3D30 JUMP JUMPDEST PUSH1 0x1 JUMPDEST PUSH2 0x1DB3 JUMPI PUSH1 0x40 MLOAD PUSH3 0x461BCD PUSH1 0xE5 SHL DUP2 MSTORE PUSH1 0x20 PUSH1 0x4 DUP3 ADD MSTORE PUSH1 0x13 PUSH1 0x24 DUP3 ADD MSTORE PUSH19 0x496C6C6567616C20494173736574455243323 PUSH1 0x6C SHL PUSH1 0x44 DUP3 ADD MSTORE PUSH1 0x64 ADD PUSH2 0xB11 JUMP JUMPDEST DUP1 PUSH2 0x1DF6 JUMPI PUSH1 0x40 MLOAD PUSH3 0x461BCD PUSH1 0xE5 SHL DUP2 MSTORE PUSH1 0x20 PUSH1 0x4 DUP3 ADD MSTORE PUSH1 0x13 PUSH1 0x24 DUP3 ADD MSTORE PUSH19 0x496E76616C696420494173736574455243323 PUSH1 0x6C SHL PUSH1 0x44 DUP3 ADD MSTORE PUSH1 0x64 ADD PUSH2 0xB11 JUMP JUMPDEST POP PUSH2 0x1E07 PUSH1 0xA0 DUP5 ADD PUSH1 0x80 DUP6 ADD PUSH2 0x361C JUMP JUMPDEST PUSH1 0x1 PUSH1 0x1 PUSH1 0xA0 SHL SUB AND PUSH4 0x1FFC9A7 PUSH4 0x8530FD63 PUSH1 0xE0 SHL PUSH1 0x40 MLOAD DUP3 PUSH4 0xFFFFFFFF AND PUSH1 0xE0 SHL DUP2 MSTORE PUSH1 0x4 ADD PUSH2 0x1E39 SWAP2 SWAP1 PUSH2 0x422B JUMP JUMPDEST PUSH1 0x20 PUSH1 0x40 MLOAD DUP1 DUP4 SUB DUP2 DUP7 GAS STATICCALL SWAP3 POP POP POP DUP1 ISZERO PUSH2 0x1E72 JUMPI POP PUSH1 0x40 DUP1 MLOAD PUSH1 0x1F RETURNDATASIZE SWAP1 DUP2 ADD PUSH1 0x1F NOT AND DUP3 ADD SWAP1 SWAP3 MSTORE PUSH2 0x1E6F SWAP2 DUP2 ADD SWAP1 PUSH2 0x3D30 JUMP JUMPDEST PUSH1 0x1 JUMPDEST PUSH2 0x1E8E JUMPI PUSH1 0x40 MLOAD PUSH3 0x461BCD PUSH1 0xE5 SHL DUP2 MSTORE PUSH1 0x4 ADD PUSH2 0xB11 SWAP1 PUSH2 0x4240 JUMP JUMPDEST DUP1 PUSH2 0x1EAB JUMPI PUSH1 0x40 MLOAD PUSH3 0x461BCD PUSH1 0xE5 SHL DUP2 MSTORE PUSH1 0x4 ADD PUSH2 0xB11 SWAP1 PUSH2 0x426E JUMP JUMPDEST POP PUSH2 0x1EB9 PUSH1 0xC0 DUP5 ADD DUP5 PUSH2 0x41D5 JUMP JUMPDEST PUSH1 0x46 SWAP2 PUSH2 0x1EC7 SWAP2 SWAP1 DUP4 PUSH2 0x42E7 JUMP JUMPDEST POP PUSH1 0x1 SLOAD PUSH1 0x2 SLOAD PUSH1 0x3 SLOAD PUSH1 0x40 MLOAD PUSH4 0x97CA328D PUSH1 0xE0 SHL DUP2 MSTORE PUSH1 0x4 DUP2 ADD SWAP4 SWAP1 SWAP4 MSTORE PUSH1 0x24 DUP4 ADD SWAP2 SWAP1 SWAP2 MSTORE PUSH1 0x44 DUP3 ADD MSTORE PUSH1 0x0 SWAP1 DUP2 SWAP1 PUSH20 0x0 SWAP1 PUSH4 0x97CA328D SWAP1 PUSH1 0x64 ADD PUSH1 0x0 PUSH1 0x40 MLOAD DUP1 DUP4 SUB DUP2 DUP7 GAS DELEGATECALL ISZERO DUP1 ISZERO PUSH2 0x1F34 JUMPI RETURNDATASIZE PUSH1 0x0 DUP1 RETURNDATACOPY RETURNDATASIZE PUSH1 0x0 REVERT JUMPDEST POP POP POP POP PUSH1 0x40 MLOAD RETURNDATASIZE PUSH1 0x0 DUP3 RETURNDATACOPY PUSH1 0x1F RETURNDATASIZE SWAP1 DUP2 ADD PUSH1 0x1F NOT AND DUP3 ADD PUSH1 0x40 MSTORE PUSH2 0x1F5C SWAP2 SWAP1 DUP2 ADD SWAP1 PUSH2 0x44E3 JUMP JUMPDEST PUSH1 0x0 SLOAD SWAP2 SWAP4 POP SWAP2 POP PUSH1 0x1 PUSH1 0x1 PUSH1 0xA0 SHL SUB AND PUSH4 0xF1DF49DA PUSH2 0x1F7F PUSH1 0xA0 DUP9 ADD DUP9 PUSH2 0x41D5 JUMP JUMPDEST DUP6 DUP6 PUSH1 0x40 MLOAD DUP6 PUSH4 0xFFFFFFFF AND PUSH1 0xE0 SHL DUP2 MSTORE PUSH1 0x4 ADD PUSH2 0x1FA0 SWAP5 SWAP4 SWAP3 SWAP2 SWAP1 PUSH2 0x4595 JUMP JUMPDEST PUSH1 0x20 PUSH1 0x40 MLOAD DUP1 DUP4 SUB DUP2 PUSH1 0x0 DUP8 GAS CALL ISZERO DUP1 ISZERO PUSH2 0x1FBF JUMPI RETURNDATASIZE PUSH1 0x0 DUP1 RETURNDATACOPY RETURNDATASIZE PUSH1 0x0 REVERT JUMPDEST POP POP POP POP PUSH1 0x40 MLOAD RETURNDATASIZE PUSH1 0x1F NOT PUSH1 0x1F DUP3 ADD AND DUP3 ADD DUP1 PUSH1 0x40 MSTORE POP DUP2 ADD SWAP1 PUSH2 0x1FE3 SWAP2 SWAP1 PUSH2 0x3D0C JUMP JUMPDEST POP PUSH2 0x1FEC PUSH2 0x2A13 JUMP JUMPDEST PUSH1 0x1 PUSH1 0x1 PUSH1 0xA0 SHL SUB AND ADDRESS CALLER PUSH32 0xF851A1E85477B818FC72AD517EA622CC316F10F67D61C9E740ADC151A8B41394 PUSH2 0x2022 DUP10 DUP1 PUSH2 0x41D5 JUMP JUMPDEST PUSH2 0x202F PUSH1 0x20 DUP13 ADD DUP13 PUSH2 0x41D5 JUMP JUMPDEST DUP11 PUSH2 0x203D PUSH1 0x4A SLOAD PUSH2 0xFFFF AND SWAP1 JUMP JUMPDEST PUSH1 0x40 MLOAD PUSH2 0x204F SWAP7 SWAP6 SWAP5 SWAP4 SWAP3 SWAP2 SWAP1 PUSH2 0x46A1 JUMP JUMPDEST PUSH1 0x40 MLOAD DUP1 SWAP2 SUB SWAP1 LOG4 POP POP POP DUP1 ISZERO PUSH2 0x152F JUMPI PUSH1 0x4A DUP1 SLOAD PUSH3 0xFF0000 NOT AND SWAP1 SSTORE POP POP JUMP JUMPDEST PUSH1 0x0 PUSH2 0x2083 DUP5 PUSH4 0xFB3F4D29 PUSH1 0xE0 SHL PUSH2 0x281F JUMP JUMPDEST PUSH1 0x40 MLOAD PUSH4 0xCD689F5 PUSH1 0xE0 SHL DUP2 MSTORE PUSH1 0x1 PUSH1 0x1 PUSH1 0xA0 SHL SUB DUP5 DUP2 AND PUSH1 0x4 DUP4 ADD MSTORE PUSH1 0x24 DUP3 ADD DUP5 SWAP1 MSTORE DUP6 AND SWAP1 PUSH4 0xCD689F5 SWAP1 PUSH1 0x44 ADD PUSH2 0x99D JUMP JUMPDEST PUSH1 0x0 PUSH2 0x20CD PUSH1 0x1 PUSH3 0x5938DB PUSH1 0xE1 SHL SUB NOT PUSH2 0x2192 JUMP JUMPDEST PUSH2 0x20D8 PUSH1 0x48 DUP4 PUSH2 0x2CB3 JUMP JUMPDEST ISZERO PUSH2 0x20F5 JUMPI PUSH1 0x40 MLOAD PUSH3 0x461BCD PUSH1 0xE5 SHL DUP2 MSTORE PUSH1 0x4 ADD PUSH2 0xB11 SWAP1 PUSH2 0x46E6 JUMP JUMPDEST PUSH1 0x1 PUSH1 0x1 PUSH1 0xA0 SHL SUB DUP3 AND PUSH1 0x0 SWAP1 DUP2 MSTORE PUSH1 0x47 PUSH1 0x20 MSTORE PUSH1 0x40 SWAP1 KECCAK256 PUSH2 0x2115 PUSH2 0x35B6 JUMP JUMPDEST PUSH1 0x0 JUMPDEST PUSH1 0x6 DUP2 LT ISZERO PUSH2 0x2162 JUMPI PUSH2 0x212B DUP4 DUP3 PUSH2 0x30E3 JUMP JUMPDEST DUP3 DUP3 PUSH1 0x6 DUP2 LT PUSH2 0x213D JUMPI PUSH2 0x213D PUSH2 0x4711 JUMP JUMPDEST PUSH1 0x1 PUSH1 0x1 PUSH1 0xA0 SHL SUB SWAP1 SWAP3 AND PUSH1 0x20 SWAP3 SWAP1 SWAP3 MUL ADD MSTORE DUP1 PUSH2 0x215A DUP2 PUSH2 0x473D JUMP JUMPDEST SWAP2 POP POP PUSH2 0x2118 JUMP JUMPDEST POP PUSH1 0x40 MLOAD PUSH4 0x160DC191 PUSH1 0xE0 SHL DUP2 MSTORE PUSH1 0x1 PUSH1 0x1 PUSH1 0xA0 SHL SUB DUP6 AND SWAP1 PUSH4 0x160DC191 SWAP1 PUSH2 0x99D SWAP1 DUP5 SWAP1 PUSH1 0x4 ADD PUSH2 0x4756 JUMP JUMPDEST SWAP1 JUMP JUMPDEST PUSH1 0x4 SLOAD PUSH1 0xFF AND ISZERO PUSH2 0x21B5 JUMPI PUSH1 0x40 MLOAD PUSH3 0x461BCD PUSH1 0xE5 SHL DUP2 MSTORE PUSH1 0x4 ADD PUSH2 0xB11 SWAP1 PUSH2 0x3DAA JUMP JUMPDEST DUP1 PUSH2 0x21BF DUP2 PUSH2 0x2A34 JUMP JUMPDEST PUSH2 0x152F JUMPI PUSH1 0x40 MLOAD PUSH3 0x461BCD PUSH1 0xE5 SHL DUP2 MSTORE PUSH1 0x20 PUSH1 0x4 DUP3 ADD MSTORE PUSH1 0xD PUSH1 0x24 DUP3 ADD MSTORE PUSH13 0x1058D8D95CDCC811195B9A5959 PUSH1 0x9A SHL PUSH1 0x44 DUP3 ADD MSTORE PUSH1 0x64 ADD PUSH2 0xB11 JUMP JUMPDEST PUSH1 0x4 SLOAD PUSH1 0xFF AND ISZERO PUSH2 0x221E JUMPI PUSH1 0x40 MLOAD PUSH3 0x461BCD PUSH1 0xE5 SHL DUP2 MSTORE PUSH1 0x4 ADD PUSH2 0xB11 SWAP1 PUSH2 0x3DAA JUMP JUMPDEST CALLER EXTCODESIZE ISZERO PUSH2 0x2765 JUMPI PUSH1 0x40 MLOAD PUSH4 0x1FFC9A7 PUSH1 0xE0 SHL DUP2 MSTORE CALLER SWAP1 PUSH4 0x1FFC9A7 SWAP1 PUSH2 0x224F SWAP1 PUSH4 0x8530FD63 PUSH1 0xE0 SHL SWAP1 PUSH1 0x4 ADD PUSH2 0x422B JUMP JUMPDEST PUSH1 0x20 PUSH1 0x40 MLOAD DUP1 DUP4 SUB DUP2 DUP7 GAS STATICCALL SWAP3 POP POP POP DUP1 ISZERO PUSH2 0x2288 JUMPI POP PUSH1 0x40 DUP1 MLOAD PUSH1 0x1F RETURNDATASIZE SWAP1 DUP2 ADD PUSH1 0x1F NOT AND DUP3 ADD SWAP1 SWAP3 MSTORE PUSH2 0x2285 SWAP2 DUP2 ADD SWAP1 PUSH2 0x3D30 JUMP JUMPDEST PUSH1 0x1 JUMPDEST PUSH2 0x22A4 JUMPI PUSH1 0x40 MLOAD PUSH3 0x461BCD PUSH1 0xE5 SHL DUP2 MSTORE PUSH1 0x4 ADD PUSH2 0xB11 SWAP1 PUSH2 0x4240 JUMP JUMPDEST DUP1 PUSH2 0x22C1 JUMPI PUSH1 0x40 MLOAD PUSH3 0x461BCD PUSH1 0xE5 SHL DUP2 MSTORE PUSH1 0x4 ADD PUSH2 0xB11 SWAP1 PUSH2 0x426E JUMP JUMPDEST POP PUSH1 0x0 CALLER PUSH1 0x1 PUSH1 0x1 PUSH1 0xA0 SHL SUB AND PUSH4 0x1083F761 PUSH1 0x40 MLOAD DUP2 PUSH4 0xFFFFFFFF AND PUSH1 0xE0 SHL DUP2 MSTORE PUSH1 0x4 ADD PUSH1 0x20 PUSH1 0x40 MLOAD DUP1 DUP4 SUB DUP2 DUP7 GAS STATICCALL ISZERO DUP1 ISZERO PUSH2 0x2302 JUMPI RETURNDATASIZE PUSH1 0x0 DUP1 RETURNDATACOPY RETURNDATASIZE PUSH1 0x0 REVERT JUMPDEST POP POP POP POP PUSH1 0x40 MLOAD RETURNDATASIZE PUSH1 0x1F NOT PUSH1 0x1F DUP3 ADD AND DUP3 ADD DUP1 PUSH1 0x40 MSTORE POP DUP2 ADD SWAP1 PUSH2 0x2326 SWAP2 SWAP1 PUSH2 0x3DE1 JUMP JUMPDEST SWAP1 POP PUSH2 0x2333 PUSH1 0x48 DUP3 PUSH2 0x2CB3 JUMP JUMPDEST ISZERO PUSH2 0x2350 JUMPI PUSH1 0x40 MLOAD PUSH3 0x461BCD PUSH1 0xE5 SHL DUP2 MSTORE PUSH1 0x4 ADD PUSH2 0xB11 SWAP1 PUSH2 0x46E6 JUMP JUMPDEST PUSH1 0x1 PUSH1 0x1 PUSH1 0xA0 SHL SUB DUP2 AND PUSH1 0x0 SWAP1 DUP2 MSTORE PUSH1 0x47 PUSH1 0x20 MSTORE PUSH1 0x40 SWAP1 KECCAK256 PUSH2 0x2372 DUP2 CALLER PUSH2 0x2CB3 JUMP JUMPDEST PUSH2 0x23B2 JUMPI PUSH1 0x40 MLOAD PUSH3 0x461BCD PUSH1 0xE5 SHL DUP2 MSTORE PUSH1 0x20 PUSH1 0x4 DUP3 ADD MSTORE PUSH1 0x11 PUSH1 0x24 DUP3 ADD MSTORE PUSH17 0x105CDCD95D125908139BDD08119BDD5B99 PUSH1 0x7A SHL PUSH1 0x44 DUP3 ADD MSTORE PUSH1 0x64 ADD PUSH2 0xB11 JUMP JUMPDEST PUSH1 0x0 PUSH2 0x23BD ADDRESS PUSH2 0x2FEF JUMP JUMPDEST PUSH1 0x0 SLOAD PUSH1 0x40 MLOAD PUSH4 0xB4C4B58F PUSH1 0xE0 SHL DUP2 MSTORE PUSH1 0x4 DUP2 ADD DUP4 SWAP1 MSTORE PUSH1 0x1 PUSH1 0x1 PUSH1 0xE0 SHL SUB NOT DUP8 AND PUSH1 0x24 DUP3 ADD MSTORE SWAP2 SWAP3 POP PUSH1 0x1 PUSH1 0x1 PUSH1 0xA0 SHL SUB AND SWAP1 PUSH4 0xB4C4B58F SWAP1 PUSH1 0x44 ADD PUSH1 0x20 PUSH1 0x40 MLOAD DUP1 DUP4 SUB DUP2 DUP7 GAS STATICCALL ISZERO DUP1 ISZERO PUSH2 0x2417 JUMPI RETURNDATASIZE PUSH1 0x0 DUP1 RETURNDATACOPY RETURNDATASIZE PUSH1 0x0 REVERT JUMPDEST POP POP POP POP PUSH1 0x40 MLOAD RETURNDATASIZE PUSH1 0x1F NOT PUSH1 0x1F DUP3 ADD AND DUP3 ADD DUP1 PUSH1 0x40 MSTORE POP DUP2 ADD SWAP1 PUSH2 0x243B SWAP2 SWAP1 PUSH2 0x3D30 JUMP JUMPDEST PUSH2 0x247A JUMPI PUSH1 0x40 MLOAD PUSH3 0x461BCD PUSH1 0xE5 SHL DUP2 MSTORE PUSH1 0x20 PUSH1 0x4 DUP3 ADD MSTORE PUSH1 0x10 PUSH1 0x24 DUP3 ADD MSTORE PUSH16 0x10DBDB9D195E1D08111A5CD8589B1959 PUSH1 0x82 SHL PUSH1 0x44 DUP3 ADD MSTORE PUSH1 0x64 ADD PUSH2 0xB11 JUMP JUMPDEST PUSH1 0x0 SLOAD PUSH1 0x40 DUP1 MLOAD PUSH4 0x12F6FDA7 PUSH1 0xE2 SHL DUP2 MSTORE SWAP1 MLOAD PUSH1 0x1 PUSH1 0x1 PUSH1 0xA0 SHL SUB SWAP1 SWAP3 AND SWAP2 PUSH4 0x2F032EDD SWAP2 DUP4 SWAP2 PUSH4 0x4BDBF69C SWAP2 PUSH1 0x4 DUP1 DUP3 ADD SWAP3 PUSH1 0x20 SWAP3 SWAP1 SWAP2 SWAP1 DUP3 SWAP1 SUB ADD DUP2 DUP7 GAS STATICCALL ISZERO DUP1 ISZERO PUSH2 0x24CC JUMPI RETURNDATASIZE PUSH1 0x0 DUP1 RETURNDATACOPY RETURNDATASIZE PUSH1 0x0 REVERT JUMPDEST POP POP POP POP PUSH1 0x40 MLOAD RETURNDATASIZE PUSH1 0x1F NOT PUSH1 0x1F DUP3 ADD AND DUP3 ADD DUP1 PUSH1 0x40 MSTORE POP DUP2 ADD SWAP1 PUSH2 0x24F0 SWAP2 SWAP1 PUSH2 0x3D0C JUMP JUMPDEST PUSH1 0x40 MLOAD DUP3 PUSH4 0xFFFFFFFF AND PUSH1 0xE0 SHL DUP2 MSTORE PUSH1 0x4 ADD PUSH2 0x250E SWAP2 DUP2 MSTORE PUSH1 0x20 ADD SWAP1 JUMP JUMPDEST PUSH1 0x20 PUSH1 0x40 MLOAD DUP1 DUP4 SUB DUP2 DUP7 GAS STATICCALL ISZERO DUP1 ISZERO PUSH2 0x252B JUMPI RETURNDATASIZE PUSH1 0x0 DUP1 RETURNDATACOPY RETURNDATASIZE PUSH1 0x0 REVERT JUMPDEST POP POP POP POP PUSH1 0x40 MLOAD RETURNDATASIZE PUSH1 0x1F NOT PUSH1 0x1F DUP3 ADD AND DUP3 ADD DUP1 PUSH1 0x40 MSTORE POP DUP2 ADD SWAP1 PUSH2 0x254F SWAP2 SWAP1 PUSH2 0x3D30 JUMP JUMPDEST PUSH2 0x259B JUMPI PUSH1 0x40 MLOAD PUSH3 0x461BCD PUSH1 0xE5 SHL DUP2 MSTORE PUSH1 0x20 PUSH1 0x4 DUP3 ADD MSTORE PUSH1 0x1A PUSH1 0x24 DUP3 ADD MSTORE PUSH32 0x41737365744D616E6167657220526F6C652044697361626C6564000000000000 PUSH1 0x44 DUP3 ADD MSTORE PUSH1 0x64 ADD PUSH2 0xB11 JUMP JUMPDEST PUSH1 0x0 SLOAD PUSH1 0x40 DUP1 MLOAD PUSH4 0x4702301D PUSH1 0xE0 SHL DUP2 MSTORE SWAP1 MLOAD PUSH1 0x1 PUSH1 0x1 PUSH1 0xA0 SHL SUB SWAP1 SWAP3 AND SWAP2 PUSH4 0x3228144D SWAP2 DUP4 SWAP2 PUSH4 0x4702301D SWAP2 PUSH1 0x4 DUP1 DUP3 ADD SWAP3 PUSH1 0x20 SWAP3 SWAP1 SWAP2 SWAP1 DUP3 SWAP1 SUB ADD DUP2 DUP7 GAS STATICCALL ISZERO DUP1 ISZERO PUSH2 0x25ED JUMPI RETURNDATASIZE PUSH1 0x0 DUP1 RETURNDATACOPY RETURNDATASIZE PUSH1 0x0 REVERT JUMPDEST POP POP POP POP PUSH1 0x40 MLOAD RETURNDATASIZE PUSH1 0x1F NOT PUSH1 0x1F DUP3 ADD AND DUP3 ADD DUP1 PUSH1 0x40 MSTORE POP DUP2 ADD SWAP1 PUSH2 0x2611 SWAP2 SWAP1 PUSH2 0x3D0C JUMP JUMPDEST PUSH1 0x40 MLOAD DUP3 PUSH4 0xFFFFFFFF AND PUSH1 0xE0 SHL DUP2 MSTORE PUSH1 0x4 ADD PUSH2 0x262F SWAP2 DUP2 MSTORE PUSH1 0x20 ADD SWAP1 JUMP JUMPDEST PUSH1 0x20 PUSH1 0x40 MLOAD DUP1 DUP4 SUB DUP2 DUP7 GAS STATICCALL ISZERO DUP1 ISZERO PUSH2 0x264C JUMPI RETURNDATASIZE PUSH1 0x0 DUP1 RETURNDATACOPY RETURNDATASIZE PUSH1 0x0 REVERT JUMPDEST POP POP POP POP PUSH1 0x40 MLOAD RETURNDATASIZE PUSH1 0x1F NOT PUSH1 0x1F DUP3 ADD AND DUP3 ADD DUP1 PUSH1 0x40 MSTORE POP DUP2 ADD SWAP1 PUSH2 0x2670 SWAP2 SWAP1 PUSH2 0x3D30 JUMP JUMPDEST PUSH2 0x26B2 JUMPI PUSH1 0x40 MLOAD PUSH3 0x461BCD PUSH1 0xE5 SHL DUP2 MSTORE PUSH1 0x20 PUSH1 0x4 DUP3 ADD MSTORE PUSH1 0x13 PUSH1 0x24 DUP3 ADD MSTORE PUSH19 0x105CDCD95D11DC9BDD5C08111A5CD8589B1959 PUSH1 0x6A SHL PUSH1 0x44 DUP3 ADD MSTORE PUSH1 0x64 ADD PUSH2 0xB11 JUMP JUMPDEST PUSH1 0x0 SLOAD PUSH1 0x3 SLOAD PUSH1 0x40 MLOAD PUSH4 0x62473D73 PUSH1 0xE1 SHL DUP2 MSTORE PUSH1 0x1 PUSH1 0x1 PUSH1 0xA0 SHL SUB SWAP1 SWAP3 AND SWAP2 PUSH4 0xC48E7AE6 SWAP2 PUSH2 0x26E7 SWAP2 PUSH1 0x4 ADD SWAP1 DUP2 MSTORE PUSH1 0x20 ADD SWAP1 JUMP JUMPDEST PUSH1 0x20 PUSH1 0x40 MLOAD DUP1 DUP4 SUB DUP2 DUP7 GAS STATICCALL ISZERO DUP1 ISZERO PUSH2 0x2704 JUMPI RETURNDATASIZE PUSH1 0x0 DUP1 RETURNDATACOPY RETURNDATASIZE PUSH1 0x0 REVERT JUMPDEST POP POP POP POP PUSH1 0x40 MLOAD RETURNDATASIZE PUSH1 0x1F NOT PUSH1 0x1F DUP3 ADD AND DUP3 ADD DUP1 PUSH1 0x40 MSTORE POP DUP2 ADD SWAP1 PUSH2 0x2728 SWAP2 SWAP1 PUSH2 0x3D30 JUMP JUMPDEST PUSH2 0x1857 JUMPI PUSH1 0x40 MLOAD PUSH3 0x461BCD PUSH1 0xE5 SHL DUP2 MSTORE PUSH1 0x20 PUSH1 0x4 DUP3 ADD MSTORE PUSH1 0xE PUSH1 0x24 DUP3 ADD MSTORE PUSH14 0x1499585B1B48111A5CD8589B1959 PUSH1 0x92 SHL PUSH1 0x44 DUP3 ADD MSTORE PUSH1 0x64 ADD PUSH2 0xB11 JUMP JUMPDEST PUSH1 0x0 SLOAD PUSH1 0x1 PUSH1 0x1 PUSH1 0xA0 SHL SUB AND PUSH4 0xC7AB39E6 PUSH2 0x277F ADDRESS PUSH2 0x2FEF JUMP JUMPDEST CALLER DUP5 PUSH1 0x40 MLOAD DUP5 PUSH4 0xFFFFFFFF AND PUSH1 0xE0 SHL DUP2 MSTORE PUSH1 0x4 ADD PUSH2 0x279F SWAP4 SWAP3 SWAP2 SWAP1 PUSH2 0x4790 JUMP JUMPDEST PUSH1 0x20 PUSH1 0x40 MLOAD DUP1 DUP4 SUB DUP2 DUP7 GAS STATICCALL ISZERO DUP1 ISZERO PUSH2 0x27BC JUMPI RETURNDATASIZE PUSH1 0x0 DUP1 RETURNDATACOPY RETURNDATASIZE PUSH1 0x0 REVERT JUMPDEST POP POP POP POP PUSH1 0x40 MLOAD RETURNDATASIZE PUSH1 0x1F NOT PUSH1 0x1F DUP3 ADD AND DUP3 ADD DUP1 PUSH1 0x40 MSTORE POP DUP2 ADD SWAP1 PUSH2 0x27E0 SWAP2 SWAP1 PUSH2 0x3D30 JUMP JUMPDEST PUSH2 0x281C JUMPI PUSH1 0x40 MLOAD PUSH3 0x461BCD PUSH1 0xE5 SHL DUP2 MSTORE PUSH1 0x20 PUSH1 0x4 DUP3 ADD MSTORE PUSH1 0xD PUSH1 0x24 DUP3 ADD MSTORE PUSH13 0x1058D8D95CDCC811195B9A5959 PUSH1 0x9A SHL PUSH1 0x44 DUP3 ADD MSTORE PUSH1 0x64 ADD PUSH2 0xB11 JUMP JUMPDEST POP JUMP JUMPDEST PUSH2 0x2828 DUP2 PUSH2 0x2192 JUMP JUMPDEST PUSH1 0x1 PUSH1 0x1 PUSH1 0xA0 SHL SUB DUP3 AND PUSH2 0x2870 JUMPI PUSH1 0x40 MLOAD PUSH3 0x461BCD PUSH1 0xE5 SHL DUP2 MSTORE PUSH1 0x20 PUSH1 0x4 DUP3 ADD MSTORE PUSH1 0xF PUSH1 0x24 DUP3 ADD MSTORE PUSH15 0x125B9D985B1A5908105CDCD95D1259 PUSH1 0x8A SHL PUSH1 0x44 DUP3 ADD MSTORE PUSH1 0x64 ADD PUSH2 0xB11 JUMP JUMPDEST PUSH1 0x40 MLOAD PUSH4 0x1FFC9A7 PUSH1 0xE0 SHL DUP2 MSTORE PUSH1 0x1 PUSH1 0x1 PUSH1 0xA0 SHL SUB DUP4 AND SWAP1 PUSH4 0x1FFC9A7 SWAP1 PUSH2 0x28A3 SWAP1 PUSH4 0x8530FD63 PUSH1 0xE0 SHL SWAP1 PUSH1 0x4 ADD PUSH2 0x422B JUMP JUMPDEST PUSH1 0x20 PUSH1 0x40 MLOAD DUP1 DUP4 SUB DUP2 DUP7 GAS STATICCALL SWAP3 POP POP POP DUP1 ISZERO PUSH2 0x28DC JUMPI POP PUSH1 0x40 DUP1 MLOAD PUSH1 0x1F RETURNDATASIZE SWAP1 DUP2 ADD PUSH1 0x1F NOT AND DUP3 ADD SWAP1 SWAP3 MSTORE PUSH2 0x28D9 SWAP2 DUP2 ADD SWAP1 PUSH2 0x3D30 JUMP JUMPDEST PUSH1 0x1 JUMPDEST PUSH2 0x28F8 JUMPI PUSH1 0x40 MLOAD PUSH3 0x461BCD PUSH1 0xE5 SHL DUP2 MSTORE PUSH1 0x4 ADD PUSH2 0xB11 SWAP1 PUSH2 0x4240 JUMP JUMPDEST DUP1 PUSH2 0x2915 JUMPI PUSH1 0x40 MLOAD PUSH3 0x461BCD PUSH1 0xE5 SHL DUP2 MSTORE PUSH1 0x4 ADD PUSH2 0xB11 SWAP1 PUSH2 0x426E JUMP JUMPDEST POP PUSH1 0x0 DUP3 PUSH1 0x1 PUSH1 0x1 PUSH1 0xA0 SHL SUB AND PUSH4 0x1083F761 PUSH1 0x40 MLOAD DUP2 PUSH4 0xFFFFFFFF AND PUSH1 0xE0 SHL DUP2 MSTORE PUSH1 0x4 ADD PUSH1 0x20 PUSH1 0x40 MLOAD DUP1 DUP4 SUB DUP2 DUP7 GAS STATICCALL ISZERO DUP1 ISZERO PUSH2 0x2956 JUMPI RETURNDATASIZE PUSH1 0x0 DUP1 RETURNDATACOPY RETURNDATASIZE PUSH1 0x0 REVERT JUMPDEST POP POP POP POP PUSH1 0x40 MLOAD RETURNDATASIZE PUSH1 0x1F NOT PUSH1 0x1F DUP3 ADD AND DUP3 ADD DUP1 PUSH1 0x40 MSTORE POP DUP2 ADD SWAP1 PUSH2 0x297A SWAP2 SWAP1 PUSH2 0x3DE1 JUMP JUMPDEST SWAP1 POP PUSH2 0x2987 PUSH1 0x48 DUP3 PUSH2 0x2CB3 JUMP JUMPDEST ISZERO PUSH2 0x29A4 JUMPI PUSH1 0x40 MLOAD PUSH3 0x461BCD PUSH1 0xE5 SHL DUP2 MSTORE PUSH1 0x4 ADD PUSH2 0xB11 SWAP1 PUSH2 0x46E6 JUMP JUMPDEST PUSH1 0x1 PUSH1 0x1 PUSH1 0xA0 SHL SUB DUP2 AND PUSH1 0x0 SWAP1 DUP2 MSTORE PUSH1 0x47 PUSH1 0x20 MSTORE PUSH1 0x40 SWAP1 KECCAK256 PUSH2 0x29C6 DUP2 DUP6 PUSH2 0x2CB3 JUMP JUMPDEST PUSH2 0x1857 JUMPI PUSH1 0x40 MLOAD PUSH3 0x461BCD PUSH1 0xE5 SHL DUP2 MSTORE PUSH1 0x20 PUSH1 0x4 DUP3 ADD MSTORE PUSH1 0x11 PUSH1 0x24 DUP3 ADD MSTORE PUSH17 0x105CDCD95D125908139BDD08119BDD5B99 PUSH1 0x7A SHL PUSH1 0x44 DUP3 ADD MSTORE PUSH1 0x64 ADD PUSH2 0xB11 JUMP JUMPDEST PUSH1 0x60 PUSH1 0x0 PUSH2 0x952 DUP4 PUSH2 0x30EF JUMP JUMPDEST PUSH1 0x0 PUSH1 0x0 DUP1 MLOAD PUSH1 0x20 PUSH2 0x480E DUP4 CODECOPY DUP2 MLOAD SWAP2 MSTORE JUMPDEST SLOAD PUSH1 0x1 PUSH1 0x1 PUSH1 0xA0 SHL SUB AND SWAP2 SWAP1 POP JUMP JUMPDEST PUSH1 0x0 DUP1 SLOAD PUSH1 0x1 PUSH1 0x1 PUSH1 0xA0 SHL SUB AND ADDRESS SUB PUSH2 0x2B20 JUMPI PUSH1 0x0 PUSH4 0x63D59CF3 PUSH1 0xE1 SHL PUSH2 0x2A5A ADDRESS PUSH2 0x2FEF JUMP JUMPDEST CALLER DUP6 PUSH1 0x40 MLOAD PUSH1 0x24 ADD PUSH2 0x2A6E SWAP4 SWAP3 SWAP2 SWAP1 PUSH2 0x4790 JUMP JUMPDEST PUSH1 0x40 DUP1 MLOAD PUSH1 0x1F NOT DUP2 DUP5 SUB ADD DUP2 MSTORE SWAP2 SWAP1 MSTORE PUSH1 0x20 DUP2 ADD DUP1 MLOAD PUSH1 0x1 PUSH1 0x1 PUSH1 0xE0 SHL SUB AND PUSH1 0x1 PUSH1 0x1 PUSH1 0xE0 SHL SUB NOT SWAP1 SWAP4 AND SWAP3 SWAP1 SWAP3 OR SWAP1 SWAP2 MSTORE SWAP1 POP PUSH1 0x0 PUSH2 0x2AEB PUSH2 0x2AAF PUSH2 0x2A13 JUMP JUMPDEST DUP4 PUSH1 0x40 MLOAD DUP1 PUSH1 0x40 ADD PUSH1 0x40 MSTORE DUP1 PUSH1 0x1D DUP2 MSTORE PUSH1 0x20 ADD PUSH32 0x44656C656761746563616C6C20686173416363657373204661696C6564000000 DUP2 MSTORE POP PUSH2 0x314B JUMP JUMPDEST SWAP1 POP DUP1 PUSH1 0x1 DUP3 MLOAD PUSH2 0x2AFC SWAP2 SWAP1 PUSH2 0x47B9 JUMP JUMPDEST DUP2 MLOAD DUP2 LT PUSH2 0x2B0C JUMPI PUSH2 0x2B0C PUSH2 0x4711 JUMP JUMPDEST PUSH1 0x20 SWAP2 ADD ADD MLOAD PUSH1 0xF8 SHR PUSH1 0x1 EQ SWAP5 SWAP4 POP POP POP POP JUMP JUMPDEST PUSH1 0x0 SLOAD PUSH1 0x1 PUSH1 0x1 PUSH1 0xA0 SHL SUB AND PUSH4 0xC7AB39E6 PUSH2 0x2B3A ADDRESS PUSH2 0x2FEF JUMP JUMPDEST CALLER DUP6 PUSH1 0x40 MLOAD DUP5 PUSH4 0xFFFFFFFF AND PUSH1 0xE0 SHL DUP2 MSTORE PUSH1 0x4 ADD PUSH2 0x2B5A SWAP4 SWAP3 SWAP2 SWAP1 PUSH2 0x4790 JUMP JUMPDEST PUSH1 0x20 PUSH1 0x40 MLOAD DUP1 DUP4 SUB DUP2 DUP7 GAS STATICCALL ISZERO DUP1 ISZERO PUSH2 0x1732 JUMPI RETURNDATASIZE PUSH1 0x0 DUP1 RETURNDATACOPY RETURNDATASIZE PUSH1 0x0 REVERT JUMPDEST PUSH1 0x0 DUP1 SLOAD PUSH1 0x1 PUSH1 0x1 PUSH1 0xA0 SHL SUB AND ADDRESS SUB PUSH2 0x2C3D JUMPI PUSH1 0x0 PUSH4 0xE25D75F0 PUSH1 0xE0 SHL PUSH1 0x3 SLOAD PUSH1 0x40 MLOAD PUSH1 0x24 ADD PUSH2 0x2BA9 SWAP2 DUP2 MSTORE PUSH1 0x20 ADD SWAP1 JUMP JUMPDEST PUSH1 0x40 DUP1 MLOAD PUSH1 0x1F NOT DUP2 DUP5 SUB ADD DUP2 MSTORE SWAP2 SWAP1 MSTORE PUSH1 0x20 DUP2 ADD DUP1 MLOAD PUSH1 0x1 PUSH1 0x1 PUSH1 0xE0 SHL SUB AND PUSH1 0x1 PUSH1 0x1 PUSH1 0xE0 SHL SUB NOT SWAP1 SWAP4 AND SWAP3 SWAP1 SWAP3 OR SWAP1 SWAP2 MSTORE SWAP1 POP PUSH1 0x0 PUSH2 0x2C09 PUSH2 0x2BEA PUSH2 0x2A13 JUMP JUMPDEST DUP4 PUSH1 0x40 MLOAD DUP1 PUSH1 0x60 ADD PUSH1 0x40 MSTORE DUP1 PUSH1 0x25 DUP2 MSTORE PUSH1 0x20 ADD PUSH2 0x47E9 PUSH1 0x25 SWAP2 CODECOPY PUSH2 0x314B JUMP JUMPDEST SWAP1 POP DUP1 PUSH1 0x1 DUP3 MLOAD PUSH2 0x2C1A SWAP2 SWAP1 PUSH2 0x47B9 JUMP JUMPDEST DUP2 MLOAD DUP2 LT PUSH2 0x2C2A JUMPI PUSH2 0x2C2A PUSH2 0x4711 JUMP JUMPDEST PUSH1 0x20 SWAP2 ADD ADD MLOAD PUSH1 0xF8 SHR PUSH1 0x1 EQ SWAP4 SWAP3 POP POP POP JUMP JUMPDEST PUSH1 0x0 SLOAD PUSH1 0x3 SLOAD PUSH1 0x40 MLOAD PUSH4 0xE25D75F PUSH1 0xE4 SHL DUP2 MSTORE PUSH1 0x1 PUSH1 0x1 PUSH1 0xA0 SHL SUB SWAP1 SWAP3 AND SWAP2 PUSH4 0xE25D75F0 SWAP2 PUSH2 0x2C72 SWAP2 PUSH1 0x4 ADD SWAP1 DUP2 MSTORE PUSH1 0x20 ADD SWAP1 JUMP JUMPDEST PUSH1 0x20 PUSH1 0x40 MLOAD DUP1 DUP4 SUB DUP2 DUP7 GAS STATICCALL ISZERO DUP1 ISZERO PUSH2 0x2C8F JUMPI RETURNDATASIZE PUSH1 0x0 DUP1 RETURNDATACOPY RETURNDATASIZE PUSH1 0x0 REVERT JUMPDEST POP POP POP POP PUSH1 0x40 MLOAD RETURNDATASIZE PUSH1 0x1F NOT PUSH1 0x1F DUP3 ADD AND DUP3 ADD DUP1 PUSH1 0x40 MSTORE POP DUP2 ADD SWAP1 PUSH2 0xBFF SWAP2 SWAP1 PUSH2 0x3D30 JUMP JUMPDEST PUSH1 0x1 PUSH1 0x1 PUSH1 0xA0 SHL SUB DUP2 AND PUSH1 0x0 SWAP1 DUP2 MSTORE PUSH1 0x1 DUP4 ADD PUSH1 0x20 MSTORE PUSH1 0x40 DUP2 KECCAK256 SLOAD ISZERO ISZERO PUSH2 0x952 JUMP JUMPDEST PUSH2 0x2CDD PUSH2 0x2A13 JUMP JUMPDEST PUSH1 0x1 PUSH1 0x1 PUSH1 0xA0 SHL SUB AND DUP2 PUSH1 0x1 PUSH1 0x1 PUSH1 0xA0 SHL SUB AND SUB PUSH2 0x2D3D JUMPI PUSH1 0x40 MLOAD PUSH3 0x461BCD PUSH1 0xE5 SHL DUP2 MSTORE PUSH1 0x20 PUSH1 0x4 DUP3 ADD MSTORE PUSH1 0x1A PUSH1 0x24 DUP3 ADD MSTORE PUSH32 0x496C6C6567616C204E657720496D706C656D656E746174696F6E000000000000 PUSH1 0x44 DUP3 ADD MSTORE PUSH1 0x64 ADD PUSH2 0xB11 JUMP JUMPDEST PUSH2 0x2D4D PUSH4 0x7147855D PUSH1 0xE0 SHL PUSH2 0x2A34 JUMP JUMPDEST PUSH2 0x281C JUMPI PUSH1 0x40 MLOAD PUSH3 0x461BCD PUSH1 0xE5 SHL DUP2 MSTORE PUSH1 0x20 PUSH1 0x4 DUP3 ADD MSTORE PUSH1 0x19 PUSH1 0x24 DUP3 ADD MSTORE PUSH32 0x5570677261646520436F6E7465787420466F7262696464656E00000000000000 PUSH1 0x44 DUP3 ADD MSTORE PUSH1 0x64 ADD PUSH2 0xB11 JUMP JUMPDEST PUSH1 0x60 PUSH32 0x4910FDFA16FED3260ED0E7147F7CC6DA11A60208B5B9406D12A635614FFD9143 SLOAD PUSH1 0xFF AND ISZERO PUSH2 0x2DE3 JUMPI PUSH2 0x2DCE DUP5 PUSH2 0x3214 JUMP JUMPDEST POP PUSH1 0x40 DUP1 MLOAD PUSH1 0x0 DUP2 MSTORE PUSH1 0x20 DUP2 ADD SWAP1 SWAP2 MSTORE PUSH2 0x952 JUMP JUMPDEST DUP4 PUSH1 0x1 PUSH1 0x1 PUSH1 0xA0 SHL SUB AND PUSH4 0x52D1902D PUSH1 0x40 MLOAD DUP2 PUSH4 0xFFFFFFFF AND PUSH1 0xE0 SHL DUP2 MSTORE PUSH1 0x4 ADD PUSH1 0x20 PUSH1 0x40 MLOAD DUP1 DUP4 SUB DUP2 DUP7 GAS STATICCALL SWAP3 POP POP POP DUP1 ISZERO PUSH2 0x2E3D JUMPI POP PUSH1 0x40 DUP1 MLOAD PUSH1 0x1F RETURNDATASIZE SWAP1 DUP2 ADD PUSH1 0x1F NOT AND DUP3 ADD SWAP1 SWAP3 MSTORE PUSH2 0x2E3A SWAP2 DUP2 ADD SWAP1 PUSH2 0x3D0C JUMP JUMPDEST PUSH1 0x1 JUMPDEST PUSH2 0x2E81 JUMPI PUSH1 0x40 MLOAD PUSH3 0x461BCD PUSH1 0xE5 SHL DUP2 MSTORE PUSH1 0x20 PUSH1 0x4 DUP3 ADD MSTORE PUSH1 0x15 PUSH1 0x24 DUP3 ADD MSTORE PUSH21 0x125B1B1959D85B0815555414C810DBDB9D1C9858DD PUSH1 0x5A SHL PUSH1 0x44 DUP3 ADD MSTORE PUSH1 0x64 ADD PUSH2 0xB11 JUMP JUMPDEST PUSH1 0x0 DUP1 MLOAD PUSH1 0x20 PUSH2 0x480E DUP4 CODECOPY DUP2 MLOAD SWAP2 MSTORE DUP2 EQ PUSH2 0x2ED6 JUMPI PUSH1 0x40 MLOAD PUSH3 0x461BCD PUSH1 0xE5 SHL DUP2 MSTORE PUSH1 0x20 PUSH1 0x4 DUP3 ADD MSTORE PUSH1 0x15 PUSH1 0x24 DUP3 ADD MSTORE PUSH21 0x125B9D985B1A590815555414C810DBDB9D1C9858DD PUSH1 0x5A SHL PUSH1 0x44 DUP3 ADD MSTORE PUSH1 0x64 ADD PUSH2 0xB11 JUMP JUMPDEST POP PUSH1 0x40 MLOAD PUSH4 0x1FFC9A7 PUSH1 0xE0 SHL DUP2 MSTORE PUSH1 0x1 PUSH1 0x1 PUSH1 0xA0 SHL SUB DUP6 AND SWAP1 PUSH4 0x1FFC9A7 SWAP1 PUSH2 0x2F0A SWAP1 PUSH4 0x748BE053 PUSH1 0xE0 SHL SWAP1 PUSH1 0x4 ADD PUSH2 0x422B JUMP JUMPDEST PUSH1 0x20 PUSH1 0x40 MLOAD DUP1 DUP4 SUB DUP2 DUP7 GAS STATICCALL SWAP3 POP POP POP DUP1 ISZERO PUSH2 0x2F43 JUMPI POP PUSH1 0x40 DUP1 MLOAD PUSH1 0x1F RETURNDATASIZE SWAP1 DUP2 ADD PUSH1 0x1F NOT AND DUP3 ADD SWAP1 SWAP3 MSTORE PUSH2 0x2F40 SWAP2 DUP2 ADD SWAP1 PUSH2 0x3D30 JUMP JUMPDEST PUSH1 0x1 JUMPDEST PUSH2 0x2F8F JUMPI PUSH1 0x40 MLOAD PUSH3 0x461BCD PUSH1 0xE5 SHL DUP2 MSTORE PUSH1 0x20 PUSH1 0x4 DUP3 ADD MSTORE PUSH1 0x17 PUSH1 0x24 DUP3 ADD MSTORE PUSH32 0x496C6C6567616C204950726F787920436F6E7472616374000000000000000000 PUSH1 0x44 DUP3 ADD MSTORE PUSH1 0x64 ADD PUSH2 0xB11 JUMP JUMPDEST DUP1 PUSH2 0x2FDC JUMPI PUSH1 0x40 MLOAD PUSH3 0x461BCD PUSH1 0xE5 SHL DUP2 MSTORE PUSH1 0x20 PUSH1 0x4 DUP3 ADD MSTORE PUSH1 0x17 PUSH1 0x24 DUP3 ADD MSTORE PUSH32 0x496E76616C6964204950726F787920436F6E7472616374000000000000000000 PUSH1 0x44 DUP3 ADD MSTORE PUSH1 0x64 ADD PUSH2 0xB11 JUMP JUMPDEST POP PUSH2 0x2FE8 DUP5 DUP5 DUP5 PUSH2 0x3295 JUMP JUMPDEST SWAP1 POP PUSH2 0x952 JUMP JUMPDEST PUSH1 0x40 MLOAD PUSH12 0xFFFFFFFFFFFFFFFFFFFFFFFF NOT PUSH1 0x60 DUP4 SWAP1 SHL AND PUSH1 0x20 DUP3 ADD MSTORE PUSH1 0x0 SWAP1 PUSH1 0x34 ADD PUSH1 0x40 MLOAD PUSH1 0x20 DUP2 DUP4 SUB SUB DUP2 MSTORE SWAP1 PUSH1 0x40 MSTORE DUP1 MLOAD SWAP1 PUSH1 0x20 ADD KECCAK256 SWAP1 POP SWAP2 SWAP1 POP JUMP JUMPDEST PUSH32 0xB53127684A568B3173AE13B9F8A6016E243E63B6E8EE1178D6A717850B5D6103 DUP1 SLOAD PUSH1 0x1 PUSH1 0x1 PUSH1 0xA0 SHL SUB DUP4 AND PUSH1 0x1 PUSH1 0x1 PUSH1 0xA0 SHL SUB NOT SWAP1 SWAP2 AND DUP2 OR SWAP1 SWAP2 SSTORE PUSH1 0x40 DUP1 MLOAD SWAP2 DUP3 MSTORE MLOAD ADDRESS SWAP2 CALLER SWAP2 PUSH32 0x54AB0D18DE7958786BA1AD85966D59BAA2B395455F0530DCDCFD732E6AF539E2 SWAP2 DUP2 SWAP1 SUB PUSH1 0x20 ADD SWAP1 LOG3 POP JUMP JUMPDEST PUSH1 0x0 PUSH32 0xB53127684A568B3173AE13B9F8A6016E243E63B6E8EE1178D6A717850B5D6103 PUSH2 0x2A25 JUMP JUMPDEST PUSH2 0x30DB DUP7 DUP7 DUP7 DUP7 DUP7 DUP7 PUSH2 0x32FF JUMP JUMPDEST POP POP POP POP POP POP JUMP JUMPDEST PUSH1 0x0 PUSH2 0x952 DUP4 DUP4 PUSH2 0x350F JUMP JUMPDEST PUSH1 0x60 DUP2 PUSH1 0x0 ADD DUP1 SLOAD DUP1 PUSH1 0x20 MUL PUSH1 0x20 ADD PUSH1 0x40 MLOAD SWAP1 DUP2 ADD PUSH1 0x40 MSTORE DUP1 SWAP3 SWAP2 SWAP1 DUP2 DUP2 MSTORE PUSH1 0x20 ADD DUP3 DUP1 SLOAD DUP1 ISZERO PUSH2 0x313F JUMPI PUSH1 0x20 MUL DUP3 ADD SWAP2 SWAP1 PUSH1 0x0 MSTORE PUSH1 0x20 PUSH1 0x0 KECCAK256 SWAP1 JUMPDEST DUP2 SLOAD DUP2 MSTORE PUSH1 0x20 ADD SWAP1 PUSH1 0x1 ADD SWAP1 DUP1 DUP4 GT PUSH2 0x312B JUMPI JUMPDEST POP POP POP POP POP SWAP1 POP SWAP2 SWAP1 POP JUMP JUMPDEST PUSH1 0x60 PUSH1 0x1 PUSH1 0x1 PUSH1 0xA0 SHL SUB DUP5 AND EXTCODESIZE PUSH2 0x319F JUMPI PUSH1 0x40 MLOAD PUSH3 0x461BCD PUSH1 0xE5 SHL DUP2 MSTORE PUSH1 0x20 PUSH1 0x4 DUP3 ADD MSTORE PUSH1 0x18 PUSH1 0x24 DUP3 ADD MSTORE PUSH24 0x496C6C6567616C20436F6E74726163742041646472657373 PUSH1 0x40 SHL PUSH1 0x44 DUP3 ADD MSTORE PUSH1 0x64 ADD PUSH2 0xB11 JUMP JUMPDEST PUSH1 0x0 DUP1 DUP6 PUSH1 0x1 PUSH1 0x1 PUSH1 0xA0 SHL SUB AND DUP6 PUSH1 0x40 MLOAD PUSH2 0x31BA SWAP2 SWAP1 PUSH2 0x47CC JUMP JUMPDEST PUSH1 0x0 PUSH1 0x40 MLOAD DUP1 DUP4 SUB DUP2 DUP6 GAS DELEGATECALL SWAP2 POP POP RETURNDATASIZE DUP1 PUSH1 0x0 DUP2 EQ PUSH2 0x31F5 JUMPI PUSH1 0x40 MLOAD SWAP2 POP PUSH1 0x1F NOT PUSH1 0x3F RETURNDATASIZE ADD AND DUP3 ADD PUSH1 0x40 MSTORE RETURNDATASIZE DUP3 MSTORE RETURNDATASIZE PUSH1 0x0 PUSH1 0x20 DUP5 ADD RETURNDATACOPY PUSH2 0x31FA JUMP JUMPDEST PUSH1 0x60 SWAP2 POP JUMPDEST POP SWAP2 POP SWAP2 POP PUSH2 0x320A DUP3 DUP3 DUP7 PUSH2 0x3539 JUMP JUMPDEST SWAP7 SWAP6 POP POP POP POP POP POP JUMP JUMPDEST PUSH1 0x1 PUSH1 0x1 PUSH1 0xA0 SHL SUB DUP2 AND EXTCODESIZE PUSH2 0x3266 JUMPI PUSH1 0x40 MLOAD PUSH3 0x461BCD PUSH1 0xE5 SHL DUP2 MSTORE PUSH1 0x20 PUSH1 0x4 DUP3 ADD MSTORE PUSH1 0x18 PUSH1 0x24 DUP3 ADD MSTORE PUSH24 0x496C6C6567616C20436F6E74726163742041646472657373 PUSH1 0x40 SHL PUSH1 0x44 DUP3 ADD MSTORE PUSH1 0x64 ADD PUSH2 0xB11 JUMP JUMPDEST PUSH1 0x0 DUP1 MLOAD PUSH1 0x20 PUSH2 0x480E DUP4 CODECOPY DUP2 MLOAD SWAP2 MSTORE DUP1 SLOAD PUSH1 0x1 PUSH1 0x1 PUSH1 0xA0 SHL SUB NOT AND PUSH1 0x1 PUSH1 0x1 PUSH1 0xA0 SHL SUB SWAP3 SWAP1 SWAP3 AND SWAP2 SWAP1 SWAP2 OR SWAP1 SSTORE JUMP JUMPDEST PUSH1 0x60 PUSH2 0x32A0 DUP5 PUSH2 0x3572 JUMP JUMPDEST PUSH1 0x0 DUP4 MLOAD GT DUP1 PUSH2 0x32AD JUMPI POP DUP2 JUMPDEST ISZERO PUSH2 0x32E8 JUMPI PUSH2 0x2FE8 DUP5 DUP5 PUSH1 0x40 MLOAD DUP1 PUSH1 0x40 ADD PUSH1 0x40 MSTORE DUP1 PUSH1 0x13 DUP2 MSTORE PUSH1 0x20 ADD PUSH19 0x11195B1959D85D1958D85B1B0811985A5B1959 PUSH1 0x6A SHL DUP2 MSTORE POP PUSH2 0x314B JUMP JUMPDEST POP POP PUSH1 0x40 DUP1 MLOAD PUSH1 0x0 DUP2 MSTORE PUSH1 0x20 DUP2 ADD SWAP1 SWAP2 MSTORE SWAP3 SWAP2 POP POP JUMP JUMPDEST PUSH1 0x4A SLOAD PUSH3 0x10000 SWAP1 DIV PUSH1 0xFF AND PUSH2 0x3357 JUMPI PUSH1 0x40 MLOAD PUSH3 0x461BCD PUSH1 0xE5 SHL DUP2 MSTORE PUSH1 0x20 PUSH1 0x4 DUP3 ADD MSTORE PUSH1 0x19 PUSH1 0x24 DUP3 ADD MSTORE PUSH32 0x436F6E7472616374204E6F7420496E697469616C697A696E6700000000000000 PUSH1 0x44 DUP3 ADD MSTORE PUSH1 0x64 ADD PUSH2 0xB11 JUMP JUMPDEST DUP6 DUP6 PUSH1 0x40 MLOAD PUSH1 0x20 ADD PUSH2 0x336A SWAP3 SWAP2 SWAP1 PUSH2 0x421B JUMP JUMPDEST PUSH1 0x40 DUP1 MLOAD PUSH1 0x1F NOT DUP2 DUP5 SUB ADD DUP2 MSTORE SWAP1 DUP3 SWAP1 MSTORE DUP1 MLOAD PUSH1 0x20 SWAP2 DUP3 ADD KECCAK256 PUSH1 0x1 SSTORE PUSH2 0x3394 SWAP2 DUP7 SWAP2 DUP7 SWAP2 ADD PUSH2 0x421B JUMP JUMPDEST PUSH1 0x40 DUP1 MLOAD PUSH1 0x1F NOT DUP2 DUP5 SUB ADD DUP2 MSTORE SWAP2 SWAP1 MSTORE DUP1 MLOAD PUSH1 0x20 SWAP1 SWAP2 ADD KECCAK256 PUSH1 0x2 SSTORE PUSH1 0x3 DUP3 SWAP1 SSTORE PUSH1 0x1 PUSH1 0x1 PUSH1 0xA0 SHL SUB DUP2 AND PUSH2 0x33D9 JUMPI PUSH1 0x0 DUP1 SLOAD PUSH1 0x1 PUSH1 0x1 PUSH1 0xA0 SHL SUB NOT AND ADDRESS OR SWAP1 SSTORE PUSH2 0x34FB JUMP JUMPDEST PUSH1 0x40 MLOAD PUSH4 0x1FFC9A7 PUSH1 0xE0 SHL DUP2 MSTORE PUSH1 0x1 PUSH1 0x1 PUSH1 0xA0 SHL SUB DUP3 AND SWAP1 PUSH4 0x1FFC9A7 SWAP1 PUSH2 0x340C SWAP1 PUSH4 0x4D4A7925 PUSH1 0xE0 SHL SWAP1 PUSH1 0x4 ADD PUSH2 0x422B JUMP JUMPDEST PUSH1 0x20 PUSH1 0x40 MLOAD DUP1 DUP4 SUB DUP2 DUP7 GAS STATICCALL SWAP3 POP POP POP DUP1 ISZERO PUSH2 0x3445 JUMPI POP PUSH1 0x40 DUP1 MLOAD PUSH1 0x1F RETURNDATASIZE SWAP1 DUP2 ADD PUSH1 0x1F NOT AND DUP3 ADD SWAP1 SWAP3 MSTORE PUSH2 0x3442 SWAP2 DUP2 ADD SWAP1 PUSH2 0x3D30 JUMP JUMPDEST PUSH1 0x1 JUMPDEST PUSH2 0x3491 JUMPI PUSH1 0x40 MLOAD PUSH3 0x461BCD PUSH1 0xE5 SHL DUP2 MSTORE PUSH1 0x20 PUSH1 0x4 DUP3 ADD MSTORE PUSH1 0x1C PUSH1 0x24 DUP3 ADD MSTORE PUSH32 0x496C6C6567616C20416363657373436F6E74726F6C4D616E6167657200000000 PUSH1 0x44 DUP3 ADD MSTORE PUSH1 0x64 ADD PUSH2 0xB11 JUMP JUMPDEST DUP1 PUSH2 0x34DE JUMPI PUSH1 0x40 MLOAD PUSH3 0x461BCD PUSH1 0xE5 SHL DUP2 MSTORE PUSH1 0x20 PUSH1 0x4 DUP3 ADD MSTORE PUSH1 0x1C PUSH1 0x24 DUP3 ADD MSTORE PUSH32 0x496E76616C696420416363657373436F6E74726F6C4D616E6167657200000000 PUSH1 0x44 DUP3 ADD MSTORE PUSH1 0x64 ADD PUSH2 0xB11 JUMP JUMPDEST POP PUSH1 0x0 DUP1 SLOAD PUSH1 0x1 PUSH1 0x1 PUSH1 0xA0 SHL SUB NOT AND PUSH1 0x1 PUSH1 0x1 PUSH1 0xA0 SHL SUB DUP4 AND OR SWAP1 SSTORE JUMPDEST PUSH1 0x4 DUP1 SLOAD PUSH2 0xFFFF NOT AND SWAP1 SSTORE PUSH2 0x30DB CALLER PUSH2 0x302E JUMP JUMPDEST PUSH1 0x0 DUP3 PUSH1 0x0 ADD DUP3 DUP2 SLOAD DUP2 LT PUSH2 0x3526 JUMPI PUSH2 0x3526 PUSH2 0x4711 JUMP JUMPDEST SWAP1 PUSH1 0x0 MSTORE PUSH1 0x20 PUSH1 0x0 KECCAK256 ADD SLOAD SWAP1 POP SWAP3 SWAP2 POP POP JUMP JUMPDEST PUSH1 0x60 DUP4 ISZERO PUSH2 0x3548 JUMPI POP DUP2 PUSH2 0x952 JUMP JUMPDEST DUP3 MLOAD ISZERO PUSH2 0x3558 JUMPI DUP3 MLOAD DUP1 DUP5 PUSH1 0x20 ADD REVERT JUMPDEST DUP2 PUSH1 0x40 MLOAD PUSH3 0x461BCD PUSH1 0xE5 SHL DUP2 MSTORE PUSH1 0x4 ADD PUSH2 0xB11 SWAP2 SWAP1 PUSH2 0x3A33 JUMP JUMPDEST PUSH2 0x357B DUP2 PUSH2 0x3214 JUMP JUMPDEST PUSH1 0x40 MLOAD PUSH1 0x1 PUSH1 0x1 PUSH1 0xA0 SHL SUB DUP3 AND SWAP1 ADDRESS SWAP1 CALLER SWAP1 PUSH32 0x354BD4B6EB65D64E6C79C53FA4F983A5E6BEC4824CE4627C71BE0B2722F4917E SWAP1 PUSH1 0x0 SWAP1 LOG4 POP JUMP JUMPDEST PUSH1 0x40 MLOAD DUP1 PUSH1 0xC0 ADD PUSH1 0x40 MSTORE DUP1 PUSH1 0x6 SWAP1 PUSH1 0x20 DUP3 MUL DUP1 CALLDATASIZE DUP4 CALLDATACOPY POP SWAP2 SWAP3 SWAP2 POP POP JUMP JUMPDEST PUSH1 0x1 PUSH1 0x1 PUSH1 0xE0 SHL SUB NOT DUP2 AND DUP2 EQ PUSH2 0x281C JUMPI PUSH1 0x0 DUP1 REVERT JUMPDEST PUSH1 0x0 PUSH1 0x20 DUP3 DUP5 SUB SLT ISZERO PUSH2 0x35FC JUMPI PUSH1 0x0 DUP1 REVERT JUMPDEST DUP2 CALLDATALOAD PUSH2 0x952 DUP2 PUSH2 0x35D4 JUMP JUMPDEST PUSH1 0x1 PUSH1 0x1 PUSH1 0xA0 SHL SUB DUP2 AND DUP2 EQ PUSH2 0x281C JUMPI PUSH1 0x0 DUP1 REVERT JUMPDEST PUSH1 0x0 PUSH1 0x20 DUP3 DUP5 SUB SLT ISZERO PUSH2 0x362E JUMPI PUSH1 0x0 DUP1 REVERT JUMPDEST DUP2 CALLDATALOAD PUSH2 0x952 DUP2 PUSH2 0x3607 JUMP JUMPDEST PUSH1 0x0 DUP1 DUP3 DUP5 SUB PUSH1 0xA0 DUP2 SLT ISZERO PUSH2 0x364D JUMPI PUSH1 0x0 DUP1 REVERT JUMPDEST DUP4 CALLDATALOAD PUSH2 0x3658 DUP2 PUSH2 0x3607 JUMP JUMPDEST SWAP3 POP PUSH1 0x80 PUSH1 0x1F NOT DUP3 ADD SLT ISZERO PUSH2 0x366C JUMPI PUSH1 0x0 DUP1 REVERT JUMPDEST POP PUSH1 0x20 DUP4 ADD SWAP1 POP SWAP3 POP SWAP3 SWAP1 POP JUMP JUMPDEST PUSH1 0x0 DUP1 PUSH1 0x0 PUSH1 0x60 DUP5 DUP7 SUB SLT ISZERO PUSH2 0x368F JUMPI PUSH1 0x0 DUP1 REVERT JUMPDEST DUP4 CALLDATALOAD PUSH2 0x369A DUP2 PUSH2 0x3607 JUMP JUMPDEST SWAP3 POP PUSH1 0x20 DUP5 ADD CALLDATALOAD PUSH2 0x36AA DUP2 PUSH2 0x3607 JUMP JUMPDEST SWAP3 SWAP6 SWAP3 SWAP5 POP POP POP PUSH1 0x40 SWAP2 SWAP1 SWAP2 ADD CALLDATALOAD SWAP1 JUMP JUMPDEST PUSH1 0x0 DUP2 MLOAD DUP1 DUP5 MSTORE PUSH1 0x20 DUP1 DUP6 ADD SWAP5 POP DUP1 DUP5 ADD PUSH1 0x0 JUMPDEST DUP4 DUP2 LT ISZERO PUSH2 0x36F4 JUMPI DUP2 MLOAD PUSH1 0x1 PUSH1 0x1 PUSH1 0xA0 SHL SUB AND DUP8 MSTORE SWAP6 DUP3 ADD SWAP6 SWAP1 DUP3 ADD SWAP1 PUSH1 0x1 ADD PUSH2 0x36CF JUMP JUMPDEST POP SWAP5 SWAP6 SWAP5 POP POP POP POP POP JUMP JUMPDEST PUSH1 0x0 PUSH1 0x3 DUP5 LT PUSH2 0x371F JUMPI PUSH4 0x4E487B71 PUSH1 0xE0 SHL PUSH1 0x0 MSTORE PUSH1 0x21 PUSH1 0x4 MSTORE PUSH1 0x24 PUSH1 0x0 REVERT JUMPDEST DUP4 DUP3 MSTORE PUSH1 0x40 PUSH1 0x20 DUP4 ADD MSTORE PUSH2 0x9E0 PUSH1 0x40 DUP4 ADD DUP5 PUSH2 0x36BB JUMP JUMPDEST PUSH1 0x20 DUP2 MSTORE PUSH1 0x0 PUSH2 0x952 PUSH1 0x20 DUP4 ADD DUP5 PUSH2 0x36BB JUMP JUMPDEST DUP1 ISZERO ISZERO DUP2 EQ PUSH2 0x281C JUMPI PUSH1 0x0 DUP1 REVERT JUMPDEST PUSH1 0x0 DUP1 PUSH1 0x40 DUP4 DUP6 SUB SLT ISZERO PUSH2 0x376A JUMPI PUSH1 0x0 DUP1 REVERT JUMPDEST DUP3 CALLDATALOAD PUSH2 0x3775 DUP2 PUSH2 0x3607 JUMP JUMPDEST SWAP2 POP PUSH1 0x20 DUP4 ADD CALLDATALOAD PUSH2 0x3785 DUP2 PUSH2 0x3749 JUMP JUMPDEST DUP1 SWAP2 POP POP SWAP3 POP SWAP3 SWAP1 POP JUMP JUMPDEST PUSH1 0x0 PUSH1 0x20 DUP3 DUP5 SUB SLT ISZERO PUSH2 0x37A2 JUMPI PUSH1 0x0 DUP1 REVERT JUMPDEST DUP2 CALLDATALOAD PUSH2 0x952 DUP2 PUSH2 0x3749 JUMP JUMPDEST PUSH1 0x0 DUP1 PUSH1 0x0 PUSH1 0x40 DUP5 DUP7 SUB SLT ISZERO PUSH2 0x37C2 JUMPI PUSH1 0x0 DUP1 REVERT JUMPDEST DUP4 CALLDATALOAD PUSH2 0x37CD DUP2 PUSH2 0x3607 JUMP JUMPDEST SWAP3 POP PUSH1 0x20 DUP5 ADD CALLDATALOAD PUSH1 0x1 PUSH1 0x1 PUSH1 0x40 SHL SUB DUP1 DUP3 GT ISZERO PUSH2 0x37E9 JUMPI PUSH1 0x0 DUP1 REVERT JUMPDEST DUP2 DUP7 ADD SWAP2 POP DUP7 PUSH1 0x1F DUP4 ADD SLT PUSH2 0x37FD JUMPI PUSH1 0x0 DUP1 REVERT JUMPDEST DUP2 CALLDATALOAD DUP2 DUP2 GT ISZERO PUSH2 0x380C JUMPI PUSH1 0x0 DUP1 REVERT JUMPDEST DUP8 PUSH1 0x20 PUSH1 0x60 DUP4 MUL DUP6 ADD ADD GT ISZERO PUSH2 0x3821 JUMPI PUSH1 0x0 DUP1 REVERT JUMPDEST PUSH1 0x20 DUP4 ADD SWAP5 POP DUP1 SWAP4 POP POP POP POP SWAP3 POP SWAP3 POP SWAP3 JUMP JUMPDEST PUSH1 0x0 DUP1 PUSH1 0x0 PUSH1 0x40 DUP5 DUP7 SUB SLT ISZERO PUSH2 0x3849 JUMPI PUSH1 0x0 DUP1 REVERT JUMPDEST DUP4 CALLDATALOAD PUSH2 0x3854 DUP2 PUSH2 0x3607 JUMP JUMPDEST SWAP3 POP PUSH1 0x20 DUP5 ADD CALLDATALOAD PUSH1 0x1 PUSH1 0x1 PUSH1 0x40 SHL SUB DUP1 DUP3 GT ISZERO PUSH2 0x3870 JUMPI PUSH1 0x0 DUP1 REVERT JUMPDEST DUP2 DUP7 ADD SWAP2 POP DUP7 PUSH1 0x1F DUP4 ADD SLT PUSH2 0x3884 JUMPI PUSH1 0x0 DUP1 REVERT JUMPDEST DUP2 CALLDATALOAD DUP2 DUP2 GT ISZERO PUSH2 0x3893 JUMPI PUSH1 0x0 DUP1 REVERT JUMPDEST DUP8 PUSH1 0x20 DUP3 PUSH1 0x6 SHL DUP6 ADD ADD GT ISZERO PUSH2 0x3821 JUMPI PUSH1 0x0 DUP1 REVERT JUMPDEST PUSH4 0x4E487B71 PUSH1 0xE0 SHL PUSH1 0x0 MSTORE PUSH1 0x41 PUSH1 0x4 MSTORE PUSH1 0x24 PUSH1 0x0 REVERT JUMPDEST PUSH1 0x40 MLOAD PUSH1 0x60 DUP2 ADD PUSH1 0x1 PUSH1 0x1 PUSH1 0x40 SHL SUB DUP2 GT DUP3 DUP3 LT OR ISZERO PUSH2 0x38E0 JUMPI PUSH2 0x38E0 PUSH2 0x38A8 JUMP JUMPDEST PUSH1 0x40 MSTORE SWAP1 JUMP JUMPDEST PUSH1 0x40 MLOAD PUSH1 0x1F DUP3 ADD PUSH1 0x1F NOT AND DUP2 ADD PUSH1 0x1 PUSH1 0x1 PUSH1 0x40 SHL SUB DUP2 GT DUP3 DUP3 LT OR ISZERO PUSH2 0x390E JUMPI PUSH2 0x390E PUSH2 0x38A8 JUMP JUMPDEST PUSH1 0x40 MSTORE SWAP2 SWAP1 POP JUMP JUMPDEST PUSH1 0x0 PUSH1 0x1 PUSH1 0x1 PUSH1 0x40 SHL SUB DUP3 GT ISZERO PUSH2 0x392F JUMPI PUSH2 0x392F PUSH2 0x38A8 JUMP JUMPDEST POP PUSH1 0x1F ADD PUSH1 0x1F NOT AND PUSH1 0x20 ADD SWAP1 JUMP JUMPDEST PUSH1 0x0 DUP1 PUSH1 0x0 PUSH1 0x60 DUP5 DUP7 SUB SLT ISZERO PUSH2 0x3952 JUMPI PUSH1 0x0 DUP1 REVERT JUMPDEST DUP4 CALLDATALOAD PUSH2 0x395D DUP2 PUSH2 0x3607 JUMP JUMPDEST SWAP3 POP PUSH1 0x20 DUP5 ADD CALLDATALOAD PUSH1 0x1 PUSH1 0x1 PUSH1 0x40 SHL SUB DUP2 GT ISZERO PUSH2 0x3978 JUMPI PUSH1 0x0 DUP1 REVERT JUMPDEST DUP5 ADD PUSH1 0x1F DUP2 ADD DUP7 SGT PUSH2 0x3989 JUMPI PUSH1 0x0 DUP1 REVERT JUMPDEST DUP1 CALLDATALOAD PUSH2 0x399C PUSH2 0x3997 DUP3 PUSH2 0x3916 JUMP JUMPDEST PUSH2 0x38E6 JUMP JUMPDEST DUP2 DUP2 MSTORE DUP8 PUSH1 0x20 DUP4 DUP6 ADD ADD GT ISZERO PUSH2 0x39B1 JUMPI PUSH1 0x0 DUP1 REVERT JUMPDEST DUP2 PUSH1 0x20 DUP5 ADD PUSH1 0x20 DUP4 ADD CALLDATACOPY PUSH1 0x0 PUSH1 0x20 DUP4 DUP4 ADD ADD MSTORE DUP1 SWAP5 POP POP POP POP PUSH1 0x40 DUP5 ADD CALLDATALOAD PUSH2 0x39D8 DUP2 PUSH2 0x3749 JUMP JUMPDEST DUP1 SWAP2 POP POP SWAP3 POP SWAP3 POP SWAP3 JUMP JUMPDEST PUSH1 0x0 JUMPDEST DUP4 DUP2 LT ISZERO PUSH2 0x39FE JUMPI DUP2 DUP2 ADD MLOAD DUP4 DUP3 ADD MSTORE PUSH1 0x20 ADD PUSH2 0x39E6 JUMP JUMPDEST POP POP PUSH1 0x0 SWAP2 ADD MSTORE JUMP JUMPDEST PUSH1 0x0 DUP2 MLOAD DUP1 DUP5 MSTORE PUSH2 0x3A1F DUP2 PUSH1 0x20 DUP7 ADD PUSH1 0x20 DUP7 ADD PUSH2 0x39E3 JUMP JUMPDEST PUSH1 0x1F ADD PUSH1 0x1F NOT AND SWAP3 SWAP1 SWAP3 ADD PUSH1 0x20 ADD SWAP3 SWAP2 POP POP JUMP JUMPDEST PUSH1 0x20 DUP2 MSTORE PUSH1 0x0 PUSH2 0x952 PUSH1 0x20 DUP4 ADD DUP5 PUSH2 0x3A07 JUMP JUMPDEST PUSH1 0x0 DUP1 PUSH1 0x0 PUSH1 0x40 DUP5 DUP7 SUB SLT ISZERO PUSH2 0x3A5B JUMPI PUSH1 0x0 DUP1 REVERT JUMPDEST DUP4 CALLDATALOAD PUSH2 0x3A66 DUP2 PUSH2 0x3607 JUMP JUMPDEST SWAP3 POP PUSH1 0x20 DUP5 ADD CALLDATALOAD PUSH1 0x1 PUSH1 0x1 PUSH1 0x40 SHL SUB DUP1 DUP3 GT ISZERO PUSH2 0x3A82 JUMPI PUSH1 0x0 DUP1 REVERT JUMPDEST DUP2 DUP7 ADD SWAP2 POP DUP7 PUSH1 0x1F DUP4 ADD SLT PUSH2 0x3A96 JUMPI PUSH1 0x0 DUP1 REVERT JUMPDEST DUP2 CALLDATALOAD DUP2 DUP2 GT ISZERO PUSH2 0x3AA5 JUMPI PUSH1 0x0 DUP1 REVERT JUMPDEST DUP8 PUSH1 0x20 DUP3 PUSH1 0x7 SHL DUP6 ADD ADD GT ISZERO PUSH2 0x3821 JUMPI PUSH1 0x0 DUP1 REVERT JUMPDEST PUSH1 0x20 DUP1 DUP3 MSTORE DUP3 MLOAD DUP3 DUP3 ADD DUP2 SWAP1 MSTORE PUSH1 0x0 SWAP2 SWAP1 DUP5 DUP3 ADD SWAP1 PUSH1 0x40 DUP6 ADD SWAP1 DUP5 JUMPDEST DUP2 DUP2 LT ISZERO PUSH2 0x3AF2 JUMPI DUP4 MLOAD DUP4 MSTORE SWAP3 DUP5 ADD SWAP3 SWAP2 DUP5 ADD SWAP2 PUSH1 0x1 ADD PUSH2 0x3AD6 JUMP JUMPDEST POP SWAP1 SWAP7 SWAP6 POP POP POP POP POP POP JUMP JUMPDEST PUSH1 0x0 PUSH1 0x20 DUP3 DUP5 SUB SLT ISZERO PUSH2 0x3B10 JUMPI PUSH1 0x0 DUP1 REVERT JUMPDEST DUP2 CALLDATALOAD PUSH1 0x1 PUSH1 0x1 PUSH1 0x40 SHL SUB DUP2 GT ISZERO PUSH2 0x3B26 JUMPI PUSH1 0x0 DUP1 REVERT JUMPDEST DUP3 ADD PUSH1 0xA0 DUP2 DUP6 SUB SLT ISZERO PUSH2 0x952 JUMPI PUSH1 0x0 DUP1 REVERT JUMPDEST PUSH1 0x0 DUP1 PUSH1 0x40 DUP4 DUP6 SUB SLT ISZERO PUSH2 0x3B4B JUMPI PUSH1 0x0 DUP1 REVERT JUMPDEST DUP3 CALLDATALOAD PUSH2 0x3B56 DUP2 PUSH2 0x3607 JUMP JUMPDEST SWAP5 PUSH1 0x20 SWAP4 SWAP1 SWAP4 ADD CALLDATALOAD SWAP4 POP POP POP JUMP JUMPDEST PUSH1 0x0 DUP1 PUSH1 0x0 DUP1 PUSH1 0x80 DUP6 DUP8 SUB SLT ISZERO PUSH2 0x3B7A JUMPI PUSH1 0x0 DUP1 REVERT JUMPDEST DUP5 CALLDATALOAD PUSH2 0x3B85 DUP2 PUSH2 0x3607 JUMP JUMPDEST SWAP4 POP PUSH1 0x20 DUP6 ADD CALLDATALOAD PUSH2 0x3B95 DUP2 PUSH2 0x3607 JUMP JUMPDEST SWAP3 POP PUSH1 0x40 DUP6 ADD CALLDATALOAD PUSH2 0x3BA5 DUP2 PUSH2 0x3607 JUMP JUMPDEST SWAP4 SWAP7 SWAP3 SWAP6 POP SWAP3 SWAP4 PUSH1 0x60 ADD CALLDATALOAD SWAP3 POP POP JUMP JUMPDEST PUSH1 0x0 PUSH1 0x20 DUP3 DUP5 SUB SLT ISZERO PUSH2 0x3BC7 JUMPI PUSH1 0x0 DUP1 REVERT JUMPDEST DUP2 CALLDATALOAD PUSH1 0x1 PUSH1 0x1 PUSH1 0x40 SHL SUB DUP2 GT ISZERO PUSH2 0x3BDD JUMPI PUSH1 0x0 DUP1 REVERT JUMPDEST DUP3 ADD PUSH1 0xE0 DUP2 DUP6 SUB SLT ISZERO PUSH2 0x952 JUMPI PUSH1 0x0 DUP1 REVERT JUMPDEST PUSH1 0x0 DUP3 PUSH1 0x1F DUP4 ADD SLT PUSH2 0x3C00 JUMPI PUSH1 0x0 DUP1 REVERT JUMPDEST DUP2 MLOAD PUSH2 0x3C0E PUSH2 0x3997 DUP3 PUSH2 0x3916 JUMP JUMPDEST DUP2 DUP2 MSTORE DUP5 PUSH1 0x20 DUP4 DUP7 ADD ADD GT ISZERO PUSH2 0x3C23 JUMPI PUSH1 0x0 DUP1 REVERT JUMPDEST PUSH2 0x9E0 DUP3 PUSH1 0x20 DUP4 ADD PUSH1 0x20 DUP8 ADD PUSH2 0x39E3 JUMP JUMPDEST PUSH1 0x0 DUP1 PUSH1 0x40 DUP4 DUP6 SUB SLT ISZERO PUSH2 0x3C47 JUMPI PUSH1 0x0 DUP1 REVERT JUMPDEST DUP3 MLOAD PUSH1 0x1 PUSH1 0x1 PUSH1 0x40 SHL SUB DUP1 DUP3 GT ISZERO PUSH2 0x3C5E JUMPI PUSH1 0x0 DUP1 REVERT JUMPDEST PUSH2 0x3C6A DUP7 DUP4 DUP8 ADD PUSH2 0x3BEF JUMP JUMPDEST SWAP4 POP PUSH1 0x20 DUP6 ADD MLOAD SWAP2 POP DUP1 DUP3 GT ISZERO PUSH2 0x3C80 JUMPI PUSH1 0x0 DUP1 REVERT JUMPDEST POP PUSH2 0x3C8D DUP6 DUP3 DUP7 ADD PUSH2 0x3BEF JUMP JUMPDEST SWAP2 POP POP SWAP3 POP SWAP3 SWAP1 POP JUMP JUMPDEST PUSH1 0x40 DUP2 MSTORE PUSH1 0x0 PUSH2 0x3CAA PUSH1 0x40 DUP4 ADD DUP6 PUSH2 0x3A07 JUMP JUMPDEST DUP3 DUP2 SUB PUSH1 0x20 DUP5 ADD MSTORE PUSH2 0x1A65 DUP2 DUP6 PUSH2 0x3A07 JUMP JUMPDEST DUP1 CALLDATALOAD PUSH2 0x3CC7 DUP2 PUSH2 0x3607 JUMP JUMPDEST PUSH1 0x1 PUSH1 0x1 PUSH1 0xA0 SHL SUB SWAP1 DUP2 AND DUP4 MSTORE PUSH1 0x20 DUP3 ADD CALLDATALOAD SWAP1 PUSH2 0x3CE3 DUP3 PUSH2 0x3607 JUMP JUMPDEST AND PUSH1 0x20 DUP4 ADD MSTORE PUSH1 0x40 DUP2 DUP2 ADD CALLDATALOAD SWAP1 DUP4 ADD MSTORE PUSH1 0x60 SWAP1 DUP2 ADD CALLDATALOAD SWAP2 ADD MSTORE JUMP JUMPDEST PUSH1 0x80 DUP2 ADD PUSH2 0x7CD DUP3 DUP5 PUSH2 0x3CBC JUMP JUMPDEST PUSH1 0x0 PUSH1 0x20 DUP3 DUP5 SUB SLT ISZERO PUSH2 0x3D1E JUMPI PUSH1 0x0 DUP1 REVERT JUMPDEST POP MLOAD SWAP2 SWAP1 POP JUMP JUMPDEST DUP1 MLOAD PUSH2 0xEEA DUP2 PUSH2 0x3749 JUMP JUMPDEST PUSH1 0x0 PUSH1 0x20 DUP3 DUP5 SUB SLT ISZERO PUSH2 0x3D42 JUMPI PUSH1 0x0 DUP1 REVERT JUMPDEST DUP2 MLOAD PUSH2 0x952 DUP2 PUSH2 0x3749 JUMP JUMPDEST PUSH1 0x20 DUP1 DUP3 MSTORE PUSH1 0x15 SWAP1 DUP3 ADD MSTORE PUSH21 0x125B1B1959D85B0810DBDB9D1C9858DD0810D85B1B PUSH1 0x5A SHL PUSH1 0x40 DUP3 ADD MSTORE PUSH1 0x60 ADD SWAP1 JUMP JUMPDEST PUSH1 0x20 DUP1 DUP3 MSTORE PUSH1 0x14 SWAP1 DUP3 ADD MSTORE PUSH20 0x141C9BDE1E4810D85B1B195908125B9D985B1A59 PUSH1 0x62 SHL PUSH1 0x40 DUP3 ADD MSTORE PUSH1 0x60 ADD SWAP1 JUMP JUMPDEST PUSH1 0x20 DUP1 DUP3 MSTORE PUSH1 0x17 SWAP1 DUP3 ADD MSTORE PUSH32 0x536166654D6F64653A2043616C6C2052656A6563746564000000000000000000 PUSH1 0x40 DUP3 ADD MSTORE PUSH1 0x60 ADD SWAP1 JUMP JUMPDEST PUSH1 0x0 PUSH1 0x20 DUP3 DUP5 SUB SLT ISZERO PUSH2 0x3DF3 JUMPI PUSH1 0x0 DUP1 REVERT JUMPDEST DUP2 MLOAD PUSH2 0x952 DUP2 PUSH2 0x3607 JUMP JUMPDEST PUSH1 0x20 DUP1 DUP3 MSTORE DUP2 DUP2 ADD DUP4 SWAP1 MSTORE PUSH1 0x0 SWAP1 PUSH1 0x40 DUP1 DUP5 ADD DUP7 DUP5 JUMPDEST DUP8 DUP2 LT ISZERO PUSH2 0x3E61 JUMPI DUP2 CALLDATALOAD PUSH2 0x3E27 DUP2 PUSH2 0x3607 JUMP JUMPDEST PUSH1 0x1 PUSH1 0x1 PUSH1 0xA0 SHL SUB SWAP1 DUP2 AND DUP5 MSTORE DUP3 DUP7 ADD CALLDATALOAD SWAP1 PUSH2 0x3E42 DUP3 PUSH2 0x3607 JUMP JUMPDEST AND DUP4 DUP7 ADD MSTORE DUP2 DUP5 ADD CALLDATALOAD DUP5 DUP5 ADD MSTORE PUSH1 0x60 SWAP3 DUP4 ADD SWAP3 SWAP1 SWAP2 ADD SWAP1 PUSH1 0x1 ADD PUSH2 0x3E14 JUMP JUMPDEST POP SWAP1 SWAP8 SWAP7 POP POP POP POP POP POP POP JUMP JUMPDEST PUSH1 0x20 DUP1 DUP3 MSTORE DUP2 DUP2 ADD DUP4 SWAP1 MSTORE PUSH1 0x0 SWAP1 PUSH1 0x40 DUP1 DUP5 ADD DUP7 DUP5 JUMPDEST DUP8 DUP2 LT ISZERO PUSH2 0x3E61 JUMPI DUP2 CALLDATALOAD PUSH2 0x3E97 DUP2 PUSH2 0x3607 JUMP JUMPDEST PUSH1 0x1 PUSH1 0x1 PUSH1 0xA0 SHL SUB AND DUP4 MSTORE DUP2 DUP6 ADD CALLDATALOAD DUP6 DUP5 ADD MSTORE SWAP2 DUP4 ADD SWAP2 SWAP1 DUP4 ADD SWAP1 PUSH1 0x1 ADD PUSH2 0x3E84 JUMP JUMPDEST PUSH1 0x20 DUP1 DUP3 MSTORE DUP2 ADD DUP3 SWAP1 MSTORE PUSH1 0x0 DUP4 PUSH1 0x40 DUP4 ADD DUP3 JUMPDEST DUP6 DUP2 LT ISZERO PUSH2 0x3EF2 JUMPI PUSH2 0x3EDF DUP3 DUP5 PUSH2 0x3CBC JUMP JUMPDEST PUSH1 0x80 SWAP3 DUP4 ADD SWAP3 SWAP2 SWAP1 SWAP2 ADD SWAP1 PUSH1 0x1 ADD PUSH2 0x3ECD JUMP JUMPDEST POP SWAP6 SWAP5 POP POP POP POP POP JUMP JUMPDEST PUSH1 0x0 PUSH1 0x1 PUSH1 0x1 PUSH1 0x40 SHL SUB DUP3 GT ISZERO PUSH2 0x3F15 JUMPI PUSH2 0x3F15 PUSH2 0x38A8 JUMP JUMPDEST POP PUSH1 0x5 SHL PUSH1 0x20 ADD SWAP1 JUMP JUMPDEST PUSH1 0x0 PUSH1 0x20 DUP1 DUP4 DUP6 SUB SLT ISZERO PUSH2 0x3F32 JUMPI PUSH1 0x0 DUP1 REVERT JUMPDEST DUP3 MLOAD PUSH1 0x1 PUSH1 0x1 PUSH1 0x40 SHL SUB DUP2 GT ISZERO PUSH2 0x3F48 JUMPI PUSH1 0x0 DUP1 REVERT JUMPDEST DUP4 ADD PUSH1 0x1F DUP2 ADD DUP6 SGT PUSH2 0x3F59 JUMPI PUSH1 0x0 DUP1 REVERT JUMPDEST DUP1 MLOAD PUSH2 0x3F67 PUSH2 0x3997 DUP3 PUSH2 0x3EFC JUMP JUMPDEST DUP2 DUP2 MSTORE PUSH1 0x5 SWAP2 SWAP1 SWAP2 SHL DUP3 ADD DUP4 ADD SWAP1 DUP4 DUP2 ADD SWAP1 DUP8 DUP4 GT ISZERO PUSH2 0x3F86 JUMPI PUSH1 0x0 DUP1 REVERT JUMPDEST SWAP3 DUP5 ADD SWAP3 JUMPDEST DUP3 DUP5 LT ISZERO PUSH2 0x3FA4 JUMPI DUP4 MLOAD DUP3 MSTORE SWAP3 DUP5 ADD SWAP3 SWAP1 DUP5 ADD SWAP1 PUSH2 0x3F8B JUMP JUMPDEST SWAP8 SWAP7 POP POP POP POP POP POP POP JUMP JUMPDEST PUSH1 0x0 DUP1 DUP4 CALLDATALOAD PUSH1 0x1E NOT DUP5 CALLDATASIZE SUB ADD DUP2 SLT PUSH2 0x3FC6 JUMPI PUSH1 0x0 DUP1 REVERT JUMPDEST DUP4 ADD PUSH1 0x20 DUP2 ADD SWAP3 POP CALLDATALOAD SWAP1 POP PUSH1 0x1 PUSH1 0x1 PUSH1 0x40 SHL SUB DUP2 GT ISZERO PUSH2 0x3FE5 JUMPI PUSH1 0x0 DUP1 REVERT JUMPDEST DUP1 CALLDATASIZE SUB DUP3 SGT ISZERO PUSH2 0x3FF4 JUMPI PUSH1 0x0 DUP1 REVERT JUMPDEST SWAP3 POP SWAP3 SWAP1 POP JUMP JUMPDEST DUP2 DUP4 MSTORE DUP2 DUP2 PUSH1 0x20 DUP6 ADD CALLDATACOPY POP PUSH1 0x0 DUP3 DUP3 ADD PUSH1 0x20 SWAP1 DUP2 ADD SWAP2 SWAP1 SWAP2 MSTORE PUSH1 0x1F SWAP1 SWAP2 ADD PUSH1 0x1F NOT AND SWAP1 SWAP2 ADD ADD SWAP1 JUMP JUMPDEST PUSH1 0x1 DUP2 DUP2 SHR SWAP1 DUP3 AND DUP1 PUSH2 0x4038 JUMPI PUSH1 0x7F DUP3 AND SWAP2 POP JUMPDEST PUSH1 0x20 DUP3 LT DUP2 SUB PUSH2 0x4058 JUMPI PUSH4 0x4E487B71 PUSH1 0xE0 SHL PUSH1 0x0 MSTORE PUSH1 0x22 PUSH1 0x4 MSTORE PUSH1 0x24 PUSH1 0x0 REVERT JUMPDEST POP SWAP2 SWAP1 POP JUMP JUMPDEST PUSH1 0x0 DUP2 SLOAD PUSH2 0x406B DUP2 PUSH2 0x4024 JUMP JUMPDEST DUP1 DUP6 MSTORE PUSH1 0x20 PUSH1 0x1 DUP4 DUP2 AND DUP1 ISZERO PUSH2 0x4088 JUMPI PUSH1 0x1 DUP2 EQ PUSH2 0x40A2 JUMPI PUSH2 0x40D0 JUMP JUMPDEST PUSH1 0xFF NOT DUP6 AND DUP9 DUP5 ADD MSTORE DUP4 ISZERO ISZERO PUSH1 0x5 SHL DUP9 ADD DUP4 ADD SWAP6 POP PUSH2 0x40D0 JUMP JUMPDEST DUP7 PUSH1 0x0 MSTORE DUP3 PUSH1 0x0 KECCAK256 PUSH1 0x0 JUMPDEST DUP6 DUP2 LT ISZERO PUSH2 0x40C8 JUMPI DUP2 SLOAD DUP11 DUP3 ADD DUP7 ADD MSTORE SWAP1 DUP4 ADD SWAP1 DUP5 ADD PUSH2 0x40AD JUMP JUMPDEST DUP10 ADD DUP5 ADD SWAP7 POP POP JUMPDEST POP POP POP POP POP SWAP3 SWAP2 POP POP JUMP JUMPDEST DUP6 DUP2 MSTORE PUSH1 0xA0 PUSH1 0x20 DUP3 ADD MSTORE DUP5 CALLDATALOAD PUSH1 0xA0 DUP3 ADD MSTORE PUSH1 0x20 DUP6 ADD CALLDATALOAD PUSH1 0xC0 DUP3 ADD MSTORE PUSH1 0x0 PUSH1 0x40 DUP7 ADD CALLDATALOAD PUSH2 0x4106 DUP2 PUSH2 0x3607 JUMP JUMPDEST PUSH1 0x1 PUSH1 0x1 PUSH1 0xA0 SHL SUB AND PUSH1 0xE0 DUP4 ADD MSTORE PUSH2 0x4121 PUSH1 0x60 DUP8 ADD DUP8 PUSH2 0x3FAF JUMP JUMPDEST PUSH1 0xA0 PUSH2 0x100 DUP6 ADD MSTORE PUSH2 0x4138 PUSH2 0x140 DUP6 ADD DUP3 DUP5 PUSH2 0x3FFB JUMP JUMPDEST SWAP2 POP POP PUSH2 0x4148 PUSH1 0x80 DUP9 ADD DUP9 PUSH2 0x3FAF JUMP JUMPDEST DUP5 DUP4 SUB PUSH1 0x9F NOT ADD PUSH2 0x120 DUP7 ADD MSTORE PUSH2 0x4160 DUP4 DUP3 DUP5 PUSH2 0x3FFB JUMP JUMPDEST SWAP3 POP POP POP PUSH2 0x4179 PUSH1 0x40 DUP5 ADD DUP8 PUSH1 0x1 PUSH1 0x1 PUSH1 0xA0 SHL SUB AND SWAP1 MSTORE JUMP JUMPDEST PUSH1 0x1 PUSH1 0x1 PUSH1 0xA0 SHL SUB DUP6 AND PUSH1 0x60 DUP5 ADD MSTORE DUP3 DUP2 SUB PUSH1 0x80 DUP5 ADD MSTORE PUSH2 0x419A DUP2 DUP6 PUSH2 0x405E JUMP JUMPDEST SWAP9 SWAP8 POP POP POP POP POP POP POP POP JUMP JUMPDEST PUSH1 0x0 DUP1 PUSH1 0x40 DUP4 DUP6 SUB SLT ISZERO PUSH2 0x41B9 JUMPI PUSH1 0x0 DUP1 REVERT JUMPDEST DUP3 MLOAD PUSH2 0x41C4 DUP2 PUSH2 0x3607 JUMP JUMPDEST PUSH1 0x20 DUP5 ADD MLOAD SWAP1 SWAP3 POP PUSH2 0x3785 DUP2 PUSH2 0x3607 JUMP JUMPDEST PUSH1 0x0 DUP1 DUP4 CALLDATALOAD PUSH1 0x1E NOT DUP5 CALLDATASIZE SUB ADD DUP2 SLT PUSH2 0x41EC JUMPI PUSH1 0x0 DUP1 REVERT JUMPDEST DUP4 ADD DUP1 CALLDATALOAD SWAP2 POP PUSH1 0x1 PUSH1 0x1 PUSH1 0x40 SHL SUB DUP3 GT ISZERO PUSH2 0x4206 JUMPI PUSH1 0x0 DUP1 REVERT JUMPDEST PUSH1 0x20 ADD SWAP2 POP CALLDATASIZE DUP2 SWAP1 SUB DUP3 SGT ISZERO PUSH2 0x3FF4 JUMPI PUSH1 0x0 DUP1 REVERT JUMPDEST DUP2 DUP4 DUP3 CALLDATACOPY PUSH1 0x0 SWAP2 ADD SWAP1 DUP2 MSTORE SWAP2 SWAP1 POP JUMP JUMPDEST PUSH1 0x1 PUSH1 0x1 PUSH1 0xE0 SHL SUB NOT SWAP2 SWAP1 SWAP2 AND DUP2 MSTORE PUSH1 0x20 ADD SWAP1 JUMP JUMPDEST PUSH1 0x20 DUP1 DUP3 MSTORE PUSH1 0x14 SWAP1 DUP3 ADD MSTORE PUSH20 0x496C6C6567616C20494173736574456E74697479 PUSH1 0x60 SHL PUSH1 0x40 DUP3 ADD MSTORE PUSH1 0x60 ADD SWAP1 JUMP JUMPDEST PUSH1 0x20 DUP1 DUP3 MSTORE PUSH1 0x14 SWAP1 DUP3 ADD MSTORE PUSH20 0x496E76616C696420494173736574456E74697479 PUSH1 0x60 SHL PUSH1 0x40 DUP3 ADD MSTORE PUSH1 0x60 ADD SWAP1 JUMP JUMPDEST PUSH1 0x1F DUP3 GT ISZERO PUSH2 0x42E2 JUMPI PUSH1 0x0 DUP2 DUP2 MSTORE PUSH1 0x20 DUP2 KECCAK256 PUSH1 0x1F DUP6 ADD PUSH1 0x5 SHR DUP2 ADD PUSH1 0x20 DUP7 LT ISZERO PUSH2 0x42C3 JUMPI POP DUP1 JUMPDEST PUSH1 0x1F DUP6 ADD PUSH1 0x5 SHR DUP3 ADD SWAP2 POP JUMPDEST DUP2 DUP2 LT ISZERO PUSH2 0x30DB JUMPI DUP3 DUP2 SSTORE PUSH1 0x1 ADD PUSH2 0x42CF JUMP JUMPDEST POP POP POP JUMP JUMPDEST PUSH1 0x1 PUSH1 0x1 PUSH1 0x40 SHL SUB DUP4 GT ISZERO PUSH2 0x42FE JUMPI PUSH2 0x42FE PUSH2 0x38A8 JUMP JUMPDEST PUSH2 0x4312 DUP4 PUSH2 0x430C DUP4 SLOAD PUSH2 0x4024 JUMP JUMPDEST DUP4 PUSH2 0x429C JUMP JUMPDEST PUSH1 0x0 PUSH1 0x1F DUP5 GT PUSH1 0x1 DUP2 EQ PUSH2 0x4346 JUMPI PUSH1 0x0 DUP6 ISZERO PUSH2 0x432E JUMPI POP DUP4 DUP3 ADD CALLDATALOAD JUMPDEST PUSH1 0x0 NOT PUSH1 0x3 DUP8 SWAP1 SHL SHR NOT AND PUSH1 0x1 DUP7 SWAP1 SHL OR DUP4 SSTORE PUSH2 0x43A0 JUMP JUMPDEST PUSH1 0x0 DUP4 DUP2 MSTORE PUSH1 0x20 SWAP1 KECCAK256 PUSH1 0x1F NOT DUP7 AND SWAP1 DUP4 JUMPDEST DUP3 DUP2 LT ISZERO PUSH2 0x4377 JUMPI DUP7 DUP6 ADD CALLDATALOAD DUP3 SSTORE PUSH1 0x20 SWAP5 DUP6 ADD SWAP5 PUSH1 0x1 SWAP1 SWAP3 ADD SWAP2 ADD PUSH2 0x4357 JUMP JUMPDEST POP DUP7 DUP3 LT ISZERO PUSH2 0x4394 JUMPI PUSH1 0x0 NOT PUSH1 0xF8 DUP9 PUSH1 0x3 SHL AND SHR NOT DUP5 DUP8 ADD CALLDATALOAD AND DUP2 SSTORE JUMPDEST POP POP PUSH1 0x1 DUP6 PUSH1 0x1 SHL ADD DUP4 SSTORE JUMPDEST POP POP POP POP POP JUMP JUMPDEST PUSH1 0x0 DUP3 PUSH1 0x1F DUP4 ADD SLT PUSH2 0x43B8 JUMPI PUSH1 0x0 DUP1 REVERT JUMPDEST DUP2 MLOAD PUSH1 0x20 PUSH2 0x43C8 PUSH2 0x3997 DUP4 PUSH2 0x3EFC JUMP JUMPDEST DUP3 DUP2 MSTORE PUSH1 0x5 SWAP3 SWAP1 SWAP3 SHL DUP5 ADD DUP2 ADD SWAP2 DUP2 DUP2 ADD SWAP1 DUP7 DUP5 GT ISZERO PUSH2 0x43E7 JUMPI PUSH1 0x0 DUP1 REVERT JUMPDEST DUP3 DUP7 ADD JUMPDEST DUP5 DUP2 LT ISZERO PUSH2 0x44D8 JUMPI DUP1 MLOAD PUSH1 0x1 PUSH1 0x1 PUSH1 0x40 SHL SUB DUP1 DUP3 GT ISZERO PUSH2 0x440B JUMPI PUSH1 0x0 DUP1 DUP2 REVERT JUMPDEST SWAP1 DUP9 ADD SWAP1 PUSH1 0x60 DUP3 DUP12 SUB PUSH1 0x1F NOT ADD DUP2 SGT ISZERO PUSH2 0x4425 JUMPI PUSH1 0x0 DUP1 DUP2 REVERT JUMPDEST PUSH2 0x442D PUSH2 0x38BE JUMP JUMPDEST DUP8 DUP5 ADD MLOAD DUP2 MSTORE PUSH1 0x40 DUP1 DUP6 ADD MLOAD DUP5 DUP2 GT ISZERO PUSH2 0x4447 JUMPI PUSH1 0x0 DUP1 DUP2 REVERT JUMPDEST DUP6 ADD SWAP4 POP PUSH1 0x3F DUP5 ADD DUP14 SGT PUSH2 0x445B JUMPI PUSH1 0x0 DUP1 DUP2 REVERT JUMPDEST DUP9 DUP5 ADD MLOAD PUSH2 0x446B PUSH2 0x3997 DUP3 PUSH2 0x3EFC JUMP JUMPDEST DUP2 DUP2 MSTORE PUSH1 0x5 SWAP2 SWAP1 SWAP2 SHL DUP6 ADD DUP3 ADD SWAP1 DUP11 DUP2 ADD SWAP1 DUP16 DUP4 GT ISZERO PUSH2 0x448B JUMPI PUSH1 0x0 DUP1 DUP2 REVERT JUMPDEST SWAP6 DUP4 ADD SWAP6 JUMPDEST DUP3 DUP8 LT ISZERO PUSH2 0x44B2 JUMPI DUP7 MLOAD PUSH2 0x44A3 DUP2 PUSH2 0x35D4 JUMP JUMPDEST DUP3 MSTORE SWAP6 DUP12 ADD SWAP6 SWAP1 DUP12 ADD SWAP1 PUSH2 0x4490 JUMP JUMPDEST DUP5 DUP13 ADD MSTORE POP PUSH2 0x44C4 SWAP1 POP DUP6 DUP5 ADD PUSH2 0x3D25 JUMP JUMPDEST SWAP1 DUP3 ADD MSTORE DUP7 MSTORE POP POP POP SWAP2 DUP4 ADD SWAP2 DUP4 ADD PUSH2 0x43EB JUMP JUMPDEST POP SWAP7 SWAP6 POP POP POP POP POP POP JUMP JUMPDEST PUSH1 0x0 DUP1 DUP3 DUP5 SUB PUSH1 0xC0 DUP2 SLT ISZERO PUSH2 0x44F7 JUMPI PUSH1 0x0 DUP1 REVERT JUMPDEST PUSH1 0xA0 DUP2 SLT ISZERO PUSH2 0x4505 JUMPI PUSH1 0x0 DUP1 REVERT JUMPDEST POP PUSH1 0x40 MLOAD PUSH1 0xA0 DUP2 ADD PUSH1 0x1 PUSH1 0x1 PUSH1 0x40 SHL SUB DUP3 DUP3 LT DUP2 DUP4 GT OR ISZERO PUSH2 0x4529 JUMPI PUSH2 0x4529 PUSH2 0x38A8 JUMP JUMPDEST DUP2 PUSH1 0x40 MSTORE DUP6 MLOAD DUP4 MSTORE PUSH1 0x20 DUP7 ADD MLOAD PUSH1 0x20 DUP5 ADD MSTORE PUSH1 0x40 DUP7 ADD MLOAD PUSH1 0x40 DUP5 ADD MSTORE PUSH1 0x60 DUP7 ADD MLOAD SWAP2 POP PUSH2 0x4555 DUP3 PUSH2 0x3607 JUMP JUMPDEST DUP2 PUSH1 0x60 DUP5 ADD MSTORE PUSH1 0x80 DUP7 ADD MLOAD SWAP2 POP PUSH2 0x456B DUP3 PUSH2 0x3749 JUMP JUMPDEST PUSH1 0x80 DUP4 ADD DUP3 SWAP1 MSTORE PUSH1 0xA0 DUP7 ADD MLOAD SWAP3 SWAP5 POP DUP1 DUP4 GT ISZERO PUSH2 0x4587 JUMPI PUSH1 0x0 DUP1 REVERT JUMPDEST POP POP PUSH2 0x3C8D DUP6 DUP3 DUP7 ADD PUSH2 0x43A7 JUMP JUMPDEST PUSH1 0xE0 DUP2 MSTORE PUSH1 0x0 PUSH2 0x45A9 PUSH1 0xE0 DUP4 ADD DUP7 DUP9 PUSH2 0x3FFB JUMP JUMPDEST PUSH1 0x20 DUP6 MLOAD DUP2 DUP6 ADD MSTORE DUP1 DUP7 ADD MLOAD PUSH1 0x40 DUP2 DUP2 DUP8 ADD MSTORE DUP1 DUP9 ADD MLOAD SWAP2 POP PUSH1 0x60 DUP3 DUP2 DUP9 ADD MSTORE DUP1 DUP10 ADD MLOAD SWAP3 POP PUSH1 0x80 PUSH1 0x1 DUP1 PUSH1 0xA0 SHL SUB DUP5 AND DUP2 DUP10 ADD MSTORE DUP1 DUP11 ADD MLOAD ISZERO ISZERO PUSH1 0xA0 DUP10 ADD MSTORE DUP8 DUP7 SUB PUSH1 0xC0 DUP10 ADD MSTORE DUP6 SWAP4 POP DUP9 MLOAD DUP1 DUP8 MSTORE DUP6 DUP8 ADD SWAP5 POP DUP6 DUP2 PUSH1 0x5 SHL DUP9 ADD ADD DUP7 DUP12 ADD PUSH1 0x0 DUP1 JUMPDEST DUP5 DUP2 LT ISZERO PUSH2 0x468C JUMPI DUP11 DUP5 SUB PUSH1 0x1F NOT ADD DUP10 MSTORE DUP3 MLOAD DUP1 MLOAD DUP6 MSTORE DUP11 DUP2 ADD MLOAD DUP12 DUP7 ADD DUP10 SWAP1 MSTORE DUP1 MLOAD DUP10 DUP8 ADD DUP2 SWAP1 MSTORE SWAP1 DUP13 ADD SWAP1 DUP5 SWAP1 DUP10 DUP9 ADD SWAP1 JUMPDEST DUP1 DUP4 LT ISZERO PUSH2 0x466B JUMPI DUP4 MLOAD PUSH1 0x1 PUSH1 0x1 PUSH1 0xE0 SHL SUB NOT AND DUP3 MSTORE SWAP3 DUP15 ADD SWAP3 PUSH1 0x1 SWAP3 SWAP1 SWAP3 ADD SWAP2 SWAP1 DUP15 ADD SWAP1 PUSH2 0x4641 JUMP JUMPDEST POP SWAP3 DUP12 ADD MLOAD ISZERO ISZERO SWAP7 DUP12 ADD SWAP7 SWAP1 SWAP7 MSTORE POP SWAP9 DUP11 ADD SWAP9 SWAP4 POP SWAP2 DUP10 ADD SWAP2 PUSH1 0x1 ADD PUSH2 0x460D JUMP JUMPDEST POP SWAP2 SWAP16 SWAP15 POP POP POP POP POP POP POP POP POP POP POP POP POP POP POP JUMP JUMPDEST PUSH1 0x80 DUP2 MSTORE PUSH1 0x0 PUSH2 0x46B5 PUSH1 0x80 DUP4 ADD DUP9 DUP11 PUSH2 0x3FFB JUMP JUMPDEST DUP3 DUP2 SUB PUSH1 0x20 DUP5 ADD MSTORE PUSH2 0x46C8 DUP2 DUP8 DUP10 PUSH2 0x3FFB JUMP JUMPDEST SWAP2 POP POP DUP4 PUSH1 0x40 DUP4 ADD MSTORE PUSH2 0xFFFF DUP4 AND PUSH1 0x60 DUP4 ADD MSTORE SWAP8 SWAP7 POP POP POP POP POP POP POP JUMP JUMPDEST PUSH1 0x20 DUP1 DUP3 MSTORE PUSH1 0x11 SWAP1 DUP3 ADD MSTORE PUSH17 0x151BDAD95B925908139BDD08119BDD5B99 PUSH1 0x7A SHL PUSH1 0x40 DUP3 ADD MSTORE PUSH1 0x60 ADD SWAP1 JUMP JUMPDEST PUSH4 0x4E487B71 PUSH1 0xE0 SHL PUSH1 0x0 MSTORE PUSH1 0x32 PUSH1 0x4 MSTORE PUSH1 0x24 PUSH1 0x0 REVERT JUMPDEST PUSH4 0x4E487B71 PUSH1 0xE0 SHL PUSH1 0x0 MSTORE PUSH1 0x11 PUSH1 0x4 MSTORE PUSH1 0x24 PUSH1 0x0 REVERT JUMPDEST PUSH1 0x0 PUSH1 0x1 DUP3 ADD PUSH2 0x474F JUMPI PUSH2 0x474F PUSH2 0x4727 JUMP JUMPDEST POP PUSH1 0x1 ADD SWAP1 JUMP JUMPDEST PUSH1 0xC0 DUP2 ADD DUP2 DUP4 PUSH1 0x0 JUMPDEST PUSH1 0x6 DUP2 LT ISZERO PUSH2 0x4787 JUMPI DUP2 MLOAD PUSH1 0x1 PUSH1 0x1 PUSH1 0xA0 SHL SUB AND DUP4 MSTORE PUSH1 0x20 SWAP3 DUP4 ADD SWAP3 SWAP1 SWAP2 ADD SWAP1 PUSH1 0x1 ADD PUSH2 0x475F JUMP JUMPDEST POP POP POP SWAP3 SWAP2 POP POP JUMP JUMPDEST SWAP3 DUP4 MSTORE PUSH1 0x1 PUSH1 0x1 PUSH1 0xA0 SHL SUB SWAP2 SWAP1 SWAP2 AND PUSH1 0x20 DUP4 ADD MSTORE PUSH1 0x1 PUSH1 0x1 PUSH1 0xE0 SHL SUB NOT AND PUSH1 0x40 DUP3 ADD MSTORE PUSH1 0x60 ADD SWAP1 JUMP JUMPDEST DUP2 DUP2 SUB DUP2 DUP2 GT ISZERO PUSH2 0x7CD JUMPI PUSH2 0x7CD PUSH2 0x4727 JUMP JUMPDEST PUSH1 0x0 DUP3 MLOAD PUSH2 0x47DE DUP2 DUP5 PUSH1 0x20 DUP8 ADD PUSH2 0x39E3 JUMP JUMPDEST SWAP2 SWAP1 SWAP2 ADD SWAP3 SWAP2 POP POP JUMP INVALID DIFFICULTY PUSH6 0x6C6567617465 PUSH4 0x616C6C20 PUSH10 0x735265616C6D55706772 PUSH2 0x6461 PUSH3 0x6C6520 CHAINID PUSH2 0x696C PUSH6 0x64360894A13B LOG1 LOG3 0x21 MOD PUSH8 0xC828492DB98DCA3E KECCAK256 PUSH23 0xCC3735A920A3CA505D382BBCA264697066735822122086 0xE3 RETURNDATACOPY 0xC 0x2A 0xCC CODECOPY GT 0xBE 0xD3 0xE0 CREATE PUSH17 0xE05641FD0608D80130C9102A9E24AD2FC6 0xE0 0xE6 PUSH5 0x736F6C6343 STOP ADDMOD GT STOP CALLER 0xB5 BALANCE 0x27 PUSH9 0x4A568B3173AE13B9F8 0xA6 ADD PUSH15 0x243E63B6E8EE1178D6A717850B5D61 SUB "
    },
    "gasEstimates": {
      "creation": {
        "codeDepositCost": "3706200",
        "executionCost": "infinite",
        "totalCost": "infinite"
      },
      "external": {
        "": "230",
        "accessControlManager()": "2442",
        "contractContext()": "529",
        "contractName()": "2382",
        "contractRealm()": "2403",
        "contractVersion()": "2359",
        "createAsset((bytes32,bytes32,address,string,string))": "infinite",
        "domainSeparator()": "4730",
        "getAllTokens()": "infinite",
        "getTokenInfo(address)": "infinite",
        "initStatus()": "2415",
        "initVersion()": "2391",
        "initialize((string,string,string,address,address,bytes,bytes))": "infinite",
        "isAssetExists(address)": "infinite",
        "isSafeMode()": "2426",
        "isSafeModeAsset(address)": "infinite",
        "isTokenExists(address)": "infinite",
        "isUpgradable()": "2349",
        "livelyTokensDistribution(address)": "infinite",
        "localAdmin()": "2489",
        "predictAddress(address,bytes32)": "infinite",
        "proxiableUUID()": "infinite",
        "registerAssetRoles()": "infinite",
        "registerToken(address)": "infinite",
        "removeAsset(address)": "infinite",
        "setLocalAdmin(address)": "infinite",
        "setSafeMode(bool)": "infinite",
        "setSafeModeToken(address,bool)": "infinite",
        "setUpgradeStatus(bool)": "infinite",
        "subjectAddress()": "infinite",
        "supportsInterface(bytes4)": "557",
        "tokenApprove(address,address,uint256)": "infinite",
        "tokenBatchLock(address,(address,address,uint256,uint256)[])": "infinite",
        "tokenBatchTransfer(address,(address,uint256)[])": "infinite",
        "tokenBatchTransferFrom(address,(address,address,uint256)[])": "infinite",
        "tokenDecreaseAllowance(address,address,uint256)": "infinite",
        "tokenIncreaseAllowance(address,address,uint256)": "infinite",
        "tokenLock(address,(address,address,uint256,uint256))": "infinite",
        "tokenTransfer(address,address,uint256)": "infinite",
        "tokenTransferFrom(address,address,address,uint256)": "infinite",
        "updateAssetImpl(address)": "infinite",
        "upgradeTo(address,bytes,bool)": "infinite",
        "withdrawBalance(address)": "infinite"
      },
      "internal": {
        "_lockPolicyInterceptor(bytes4)": "infinite",
        "_policyInterceptor(bytes4)": "infinite",
        "_validationAndPolicyInterceptor(address,bytes4)": "infinite"
      }
    },
    "methodIdentifiers": {
      "accessControlManager()": "b4a0bdf3",
      "contractContext()": "870666cb",
      "contractName()": "75d0c0dc",
      "contractRealm()": "d3e024b8",
      "contractVersion()": "a0a8e460",
      "createAsset((bytes32,bytes32,address,string,string))": "b484c889",
      "domainSeparator()": "f698da25",
      "getAllTokens()": "2a5c792a",
      "getTokenInfo(address)": "1f69565f",
      "initStatus()": "60fefdec",
      "initVersion()": "38d38c97",
      "initialize((string,string,string,address,address,bytes,bytes))": "f977100e",
      "isAssetExists(address)": "67eb04e6",
      "isSafeMode()": "be22465d",
      "isSafeModeAsset(address)": "c5d39a4a",
      "isTokenExists(address)": "9ed4fa5a",
      "isUpgradable()": "5479d940",
      "livelyTokensDistribution(address)": "ff4d8e4a",
      "localAdmin()": "f94a0adb",
      "predictAddress(address,bytes32)": "cb193942",
      "proxiableUUID()": "52d1902d",
      "registerAssetRoles()": "d0e8ceac",
      "registerToken(address)": "09824a80",
      "removeAsset(address)": "4a5e42b1",
      "setLocalAdmin(address)": "d9dc1f19",
      "setSafeMode(bool)": "44b7e5f2",
      "setSafeModeToken(address,bool)": "373c52fa",
      "setUpgradeStatus(bool)": "48e6be1c",
      "subjectAddress()": "58dbc45d",
      "supportsInterface(bytes4)": "01ffc9a7",
      "tokenApprove(address,address,uint256)": "fb3f4d29",
      "tokenBatchLock(address,(address,address,uint256,uint256)[])": "7a09941e",
      "tokenBatchTransfer(address,(address,uint256)[])": "622110e1",
      "tokenBatchTransferFrom(address,(address,address,uint256)[])": "565bf1fa",
      "tokenDecreaseAllowance(address,address,uint256)": "3091a548",
      "tokenIncreaseAllowance(address,address,uint256)": "1bdc5627",
      "tokenLock(address,(address,address,uint256,uint256))": "0bb0ccaa",
      "tokenTransfer(address,address,uint256)": "15eaef6b",
      "tokenTransferFrom(address,address,address,uint256)": "f3913e69",
      "updateAssetImpl(address)": "2a5c5803",
      "upgradeTo(address,bytes,bool)": "7147855d",
      "withdrawBalance(address)": "756af45f"
    }
  },
  "storageLayout": {
    "storage": [
      {
        "astId": 27267,
        "contract": "src/contracts/token/asset/AssetManagerERC20.sol:AssetManagerERC20",
        "label": "_accessControlManager",
        "offset": 0,
        "slot": "0",
        "type": "t_address"
      },
      {
        "astId": 27269,
        "contract": "src/contracts/token/asset/AssetManagerERC20.sol:AssetManagerERC20",
        "label": "_domainName",
        "offset": 0,
        "slot": "1",
        "type": "t_bytes32"
      },
      {
        "astId": 27271,
        "contract": "src/contracts/token/asset/AssetManagerERC20.sol:AssetManagerERC20",
        "label": "_domainVersion",
        "offset": 0,
        "slot": "2",
        "type": "t_bytes32"
      },
      {
        "astId": 27273,
        "contract": "src/contracts/token/asset/AssetManagerERC20.sol:AssetManagerERC20",
        "label": "_domainRealm",
        "offset": 0,
        "slot": "3",
        "type": "t_bytes32"
      },
      {
        "astId": 27275,
        "contract": "src/contracts/token/asset/AssetManagerERC20.sol:AssetManagerERC20",
        "label": "_isSafeMode",
        "offset": 0,
        "slot": "4",
        "type": "t_bool"
      },
      {
        "astId": 27277,
        "contract": "src/contracts/token/asset/AssetManagerERC20.sol:AssetManagerERC20",
        "label": "_isUpgradable",
        "offset": 1,
        "slot": "4",
        "type": "t_bool"
      },
      {
        "astId": 27282,
        "contract": "src/contracts/token/asset/AssetManagerERC20.sol:AssetManagerERC20",
        "label": "__gap",
        "offset": 0,
        "slot": "5",
        "type": "t_array(t_uint256)64_storage"
      },
      {
        "astId": 30522,
        "contract": "src/contracts/token/asset/AssetManagerERC20.sol:AssetManagerERC20",
        "label": "_assetImplERC20",
        "offset": 0,
        "slot": "69",
        "type": "t_address"
      },
      {
        "astId": 30524,
        "contract": "src/contracts/token/asset/AssetManagerERC20.sol:AssetManagerERC20",
        "label": "_assetCreationSignature",
        "offset": 0,
        "slot": "70",
        "type": "t_bytes_storage"
      },
      {
        "astId": 30527,
        "contract": "src/contracts/token/asset/AssetManagerERC20.sol:AssetManagerERC20",
        "label": "_data",
        "offset": 0,
        "slot": "71",
        "type": "t_struct(DataCollection)30520_storage"
      },
      {
        "astId": 27455,
        "contract": "src/contracts/token/asset/AssetManagerERC20.sol:AssetManagerERC20",
        "label": "_initialized",
        "offset": 0,
        "slot": "74",
        "type": "t_uint16"
      },
      {
        "astId": 27458,
        "contract": "src/contracts/token/asset/AssetManagerERC20.sol:AssetManagerERC20",
        "label": "_initializing",
        "offset": 2,
        "slot": "74",
        "type": "t_bool"
      }
    ],
    "types": {
      "t_address": {
        "encoding": "inplace",
        "label": "address",
        "numberOfBytes": "20"
      },
      "t_array(t_bytes32)dyn_storage": {
        "base": "t_bytes32",
        "encoding": "dynamic_array",
        "label": "bytes32[]",
        "numberOfBytes": "32"
      },
      "t_array(t_uint256)64_storage": {
        "base": "t_uint256",
        "encoding": "inplace",
        "label": "uint256[64]",
        "numberOfBytes": "2048"
      },
      "t_bool": {
        "encoding": "inplace",
        "label": "bool",
        "numberOfBytes": "1"
      },
      "t_bytes32": {
        "encoding": "inplace",
        "label": "bytes32",
        "numberOfBytes": "32"
      },
      "t_bytes_storage": {
        "encoding": "bytes",
        "label": "bytes",
        "numberOfBytes": "32"
      },
      "t_enum(Status)31949": {
        "encoding": "inplace",
        "label": "enum IAssetEntity.Status",
        "numberOfBytes": "1"
      },
      "t_mapping(t_address,t_struct(TokenData)30511_storage)": {
        "encoding": "mapping",
        "key": "t_address",
        "label": "mapping(address => struct AssetManagerStorageERC20.TokenData)",
        "numberOfBytes": "32",
        "value": "t_struct(TokenData)30511_storage"
      },
      "t_mapping(t_bytes32,t_uint256)": {
        "encoding": "mapping",
        "key": "t_bytes32",
        "label": "mapping(bytes32 => uint256)",
        "numberOfBytes": "32",
        "value": "t_uint256"
      },
      "t_struct(AddressSet)23261_storage": {
        "encoding": "inplace",
        "label": "struct LEnumerableSet.AddressSet",
        "members": [
          {
            "astId": 23260,
            "contract": "src/contracts/token/asset/AssetManagerERC20.sol:AssetManagerERC20",
            "label": "_inner",
            "offset": 0,
            "slot": "0",
            "type": "t_struct(Set)22960_storage"
          }
        ],
        "numberOfBytes": "64"
      },
      "t_struct(DataCollection)30520_storage": {
        "encoding": "inplace",
        "label": "struct AssetManagerStorageERC20.DataCollection",
        "members": [
          {
            "astId": 30516,
            "contract": "src/contracts/token/asset/AssetManagerERC20.sol:AssetManagerERC20",
            "label": "tokens",
            "offset": 0,
            "slot": "0",
            "type": "t_mapping(t_address,t_struct(TokenData)30511_storage)"
          },
          {
            "astId": 30519,
            "contract": "src/contracts/token/asset/AssetManagerERC20.sol:AssetManagerERC20",
            "label": "tokensSet",
            "offset": 0,
            "slot": "1",
            "type": "t_struct(AddressSet)23261_storage"
          }
        ],
        "numberOfBytes": "96"
      },
      "t_struct(Set)22960_storage": {
        "encoding": "inplace",
        "label": "struct LEnumerableSet.Set",
        "members": [
          {
            "astId": 22955,
            "contract": "src/contracts/token/asset/AssetManagerERC20.sol:AssetManagerERC20",
            "label": "_values",
            "offset": 0,
            "slot": "0",
            "type": "t_array(t_bytes32)dyn_storage"
          },
          {
            "astId": 22959,
            "contract": "src/contracts/token/asset/AssetManagerERC20.sol:AssetManagerERC20",
            "label": "_indexes",
            "offset": 0,
            "slot": "1",
            "type": "t_mapping(t_bytes32,t_uint256)"
          }
        ],
        "numberOfBytes": "64"
      },
      "t_struct(TokenData)30511_storage": {
        "encoding": "inplace",
        "label": "struct AssetManagerStorageERC20.TokenData",
        "members": [
          {
            "astId": 30507,
            "contract": "src/contracts/token/asset/AssetManagerERC20.sol:AssetManagerERC20",
            "label": "assets",
            "offset": 0,
            "slot": "0",
            "type": "t_struct(AddressSet)23261_storage"
          },
          {
            "astId": 30510,
            "contract": "src/contracts/token/asset/AssetManagerERC20.sol:AssetManagerERC20",
            "label": "status",
            "offset": 0,
            "slot": "2",
            "type": "t_enum(Status)31949"
          }
        ],
        "numberOfBytes": "96"
      },
      "t_uint16": {
        "encoding": "inplace",
        "label": "uint16",
        "numberOfBytes": "2"
      },
      "t_uint256": {
        "encoding": "inplace",
        "label": "uint256",
        "numberOfBytes": "32"
      }
    }
  },
  "userdoc": {
    "kind": "user",
    "methods": {},
    "version": 1
  }
}