{
  "contractName": "AssetManagerERC20",
  "sourceName": "src/contracts/token/asset/AssetManagerERC20.sol",
  "abi": [
    {
      "inputs": [],
      "stateMutability": "nonpayable",
      "type": "constructor"
    },
    {
      "anonymous": false,
      "inputs": [
        {
          "indexed": true,
          "internalType": "address",
          "name": "sender",
          "type": "address"
        },
        {
          "indexed": true,
          "internalType": "address",
          "name": "assetId",
          "type": "address"
        },
        {
          "indexed": true,
          "internalType": "address",
          "name": "tokenId",
          "type": "address"
        },
        {
          "indexed": false,
          "internalType": "address",
          "name": "assetSubject",
          "type": "address"
        }
      ],
      "name": "AssetCreated",
      "type": "event"
    },
    {
      "anonymous": false,
      "inputs": [
        {
          "indexed": true,
          "internalType": "address",
          "name": "sender",
          "type": "address"
        },
        {
          "indexed": true,
          "internalType": "address",
          "name": "assetId",
          "type": "address"
        },
        {
          "indexed": true,
          "internalType": "address",
          "name": "tokenId",
          "type": "address"
        }
      ],
      "name": "AssetRegistered",
      "type": "event"
    },
    {
      "anonymous": false,
      "inputs": [
        {
          "indexed": true,
          "internalType": "address",
          "name": "sender",
          "type": "address"
        },
        {
          "indexed": true,
          "internalType": "address",
          "name": "assetId",
          "type": "address"
        },
        {
          "indexed": true,
          "internalType": "address",
          "name": "tokenId",
          "type": "address"
        }
      ],
      "name": "AssetRemoved",
      "type": "event"
    },
    {
      "anonymous": false,
      "inputs": [
        {
          "indexed": true,
          "internalType": "address",
          "name": "sender",
          "type": "address"
        },
        {
          "indexed": true,
          "internalType": "address",
          "name": "assetSubject",
          "type": "address"
        }
      ],
      "name": "AssetSubjectUpdated",
      "type": "event"
    },
    {
      "anonymous": false,
      "inputs": [
        {
          "indexed": true,
          "internalType": "address",
          "name": "sender",
          "type": "address"
        },
        {
          "indexed": true,
          "internalType": "address",
          "name": "proxy",
          "type": "address"
        },
        {
          "indexed": true,
          "internalType": "address",
          "name": "subject",
          "type": "address"
        },
        {
          "indexed": false,
          "internalType": "string",
          "name": "name",
          "type": "string"
        },
        {
          "indexed": false,
          "internalType": "string",
          "name": "version",
          "type": "string"
        },
        {
          "indexed": false,
          "internalType": "bytes32",
          "name": "realm",
          "type": "bytes32"
        },
        {
          "indexed": false,
          "internalType": "uint16",
          "name": "initCount",
          "type": "uint16"
        }
      ],
      "name": "Initialized",
      "type": "event"
    },
    {
      "anonymous": false,
      "inputs": [
        {
          "indexed": true,
          "internalType": "address",
          "name": "sender",
          "type": "address"
        },
        {
          "indexed": true,
          "internalType": "address",
          "name": "proxy",
          "type": "address"
        },
        {
          "indexed": false,
          "internalType": "address",
          "name": "newAdmin",
          "type": "address"
        }
      ],
      "name": "LocalAdminChanged",
      "type": "event"
    },
    {
      "anonymous": false,
      "inputs": [
        {
          "indexed": true,
          "internalType": "address",
          "name": "sender",
          "type": "address"
        },
        {
          "indexed": true,
          "internalType": "address",
          "name": "proxy",
          "type": "address"
        },
        {
          "indexed": true,
          "internalType": "bytes32",
          "name": "realm",
          "type": "bytes32"
        },
        {
          "indexed": false,
          "internalType": "bool",
          "name": "status",
          "type": "bool"
        }
      ],
      "name": "SafeModeChanged",
      "type": "event"
    },
    {
      "anonymous": false,
      "inputs": [
        {
          "indexed": true,
          "internalType": "address",
          "name": "sender",
          "type": "address"
        },
        {
          "indexed": true,
          "internalType": "address",
          "name": "tokenId",
          "type": "address"
        },
        {
          "indexed": false,
          "internalType": "string",
          "name": "tokenName",
          "type": "string"
        },
        {
          "indexed": false,
          "internalType": "string",
          "name": "tokenSymbol",
          "type": "string"
        }
      ],
      "name": "TokenRegistered",
      "type": "event"
    },
    {
      "anonymous": false,
      "inputs": [
        {
          "indexed": true,
          "internalType": "address",
          "name": "sender",
          "type": "address"
        },
        {
          "indexed": true,
          "internalType": "address",
          "name": "tokenId",
          "type": "address"
        },
        {
          "indexed": false,
          "internalType": "bool",
          "name": "isEnabled",
          "type": "bool"
        }
      ],
      "name": "TokenSafeModeChanged",
      "type": "event"
    },
    {
      "anonymous": false,
      "inputs": [
        {
          "indexed": true,
          "internalType": "address",
          "name": "sender",
          "type": "address"
        },
        {
          "indexed": true,
          "internalType": "address",
          "name": "proxy",
          "type": "address"
        },
        {
          "indexed": true,
          "internalType": "bytes32",
          "name": "realm",
          "type": "bytes32"
        },
        {
          "indexed": false,
          "internalType": "bool",
          "name": "status",
          "type": "bool"
        }
      ],
      "name": "UpgradeStatusChanged",
      "type": "event"
    },
    {
      "anonymous": false,
      "inputs": [
        {
          "indexed": true,
          "internalType": "address",
          "name": "sender",
          "type": "address"
        },
        {
          "indexed": true,
          "internalType": "address",
          "name": "proxy",
          "type": "address"
        },
        {
          "indexed": true,
          "internalType": "address",
          "name": "newImplementation",
          "type": "address"
        }
      ],
      "name": "Upgraded",
      "type": "event"
    },
    {
      "stateMutability": "payable",
      "type": "fallback"
    },
    {
      "inputs": [],
      "name": "accessControlManager",
      "outputs": [
        {
          "internalType": "address",
          "name": "",
          "type": "address"
        }
      ],
      "stateMutability": "view",
      "type": "function"
    },
    {
      "inputs": [],
      "name": "contractContext",
      "outputs": [
        {
          "internalType": "bytes32",
          "name": "",
          "type": "bytes32"
        }
      ],
      "stateMutability": "view",
      "type": "function"
    },
    {
      "inputs": [],
      "name": "contractName",
      "outputs": [
        {
          "internalType": "bytes32",
          "name": "",
          "type": "bytes32"
        }
      ],
      "stateMutability": "view",
      "type": "function"
    },
    {
      "inputs": [],
      "name": "contractRealm",
      "outputs": [
        {
          "internalType": "bytes32",
          "name": "",
          "type": "bytes32"
        }
      ],
      "stateMutability": "view",
      "type": "function"
    },
    {
      "inputs": [],
      "name": "contractVersion",
      "outputs": [
        {
          "internalType": "bytes32",
          "name": "",
          "type": "bytes32"
        }
      ],
      "stateMutability": "view",
      "type": "function"
    },
    {
      "inputs": [
        {
          "components": [
            {
              "internalType": "bytes32",
              "name": "role",
              "type": "bytes32"
            },
            {
              "internalType": "bytes32",
              "name": "salt",
              "type": "bytes32"
            },
            {
              "internalType": "address",
              "name": "tokenId",
              "type": "address"
            },
            {
              "internalType": "string",
              "name": "assetName",
              "type": "string"
            },
            {
              "internalType": "string",
              "name": "assetVersion",
              "type": "string"
            }
          ],
          "internalType": "struct IAssetManagerERC20.CreateAssetRequest",
          "name": "request",
          "type": "tuple"
        }
      ],
      "name": "createAsset",
      "outputs": [
        {
          "internalType": "address",
          "name": "",
          "type": "address"
        }
      ],
      "stateMutability": "nonpayable",
      "type": "function"
    },
    {
      "inputs": [],
      "name": "domainSeparator",
      "outputs": [
        {
          "internalType": "bytes32",
          "name": "",
          "type": "bytes32"
        }
      ],
      "stateMutability": "view",
      "type": "function"
    },
    {
      "inputs": [],
      "name": "getAllTokens",
      "outputs": [
        {
          "internalType": "address[]",
          "name": "",
          "type": "address[]"
        }
      ],
      "stateMutability": "view",
      "type": "function"
    },
    {
      "inputs": [],
      "name": "getAssetSubject",
      "outputs": [
        {
          "internalType": "address",
          "name": "",
          "type": "address"
        }
      ],
      "stateMutability": "view",
      "type": "function"
    },
    {
      "inputs": [],
      "name": "getLibrary",
      "outputs": [
        {
          "internalType": "address",
          "name": "",
          "type": "address"
        }
      ],
      "stateMutability": "pure",
      "type": "function"
    },
    {
      "inputs": [
        {
          "internalType": "address",
          "name": "tokenId",
          "type": "address"
        }
      ],
      "name": "getTokenInfo",
      "outputs": [
        {
          "internalType": "enum IAssetEntity.Status",
          "name": "",
          "type": "uint8"
        },
        {
          "internalType": "address[]",
          "name": "",
          "type": "address[]"
        }
      ],
      "stateMutability": "view",
      "type": "function"
    },
    {
      "inputs": [],
      "name": "initVersion",
      "outputs": [
        {
          "internalType": "uint16",
          "name": "",
          "type": "uint16"
        }
      ],
      "stateMutability": "view",
      "type": "function"
    },
    {
      "inputs": [
        {
          "components": [
            {
              "internalType": "string",
              "name": "domainName",
              "type": "string"
            },
            {
              "internalType": "string",
              "name": "domainVersion",
              "type": "string"
            },
            {
              "internalType": "string",
              "name": "domainRealm",
              "type": "string"
            },
            {
              "internalType": "address",
              "name": "accessControlManager",
              "type": "address"
            },
            {
              "internalType": "bytes",
              "name": "assetManagerSignature",
              "type": "bytes"
            }
          ],
          "internalType": "struct AssetManagerERC20.InitRequest",
          "name": "request",
          "type": "tuple"
        }
      ],
      "name": "initialize",
      "outputs": [],
      "stateMutability": "nonpayable",
      "type": "function"
    },
    {
      "inputs": [
        {
          "internalType": "address",
          "name": "assetId",
          "type": "address"
        }
      ],
      "name": "isAssetExists",
      "outputs": [
        {
          "internalType": "bool",
          "name": "",
          "type": "bool"
        }
      ],
      "stateMutability": "view",
      "type": "function"
    },
    {
      "inputs": [],
      "name": "isSafeMode",
      "outputs": [
        {
          "internalType": "bool",
          "name": "",
          "type": "bool"
        }
      ],
      "stateMutability": "view",
      "type": "function"
    },
    {
      "inputs": [
        {
          "internalType": "address",
          "name": "assetId",
          "type": "address"
        }
      ],
      "name": "isSafeModeAsset",
      "outputs": [
        {
          "internalType": "bool",
          "name": "",
          "type": "bool"
        }
      ],
      "stateMutability": "view",
      "type": "function"
    },
    {
      "inputs": [
        {
          "internalType": "address",
          "name": "tokenId",
          "type": "address"
        }
      ],
      "name": "isTokenExists",
      "outputs": [
        {
          "internalType": "bool",
          "name": "",
          "type": "bool"
        }
      ],
      "stateMutability": "view",
      "type": "function"
    },
    {
      "inputs": [],
      "name": "isUpgradable",
      "outputs": [
        {
          "internalType": "bool",
          "name": "",
          "type": "bool"
        }
      ],
      "stateMutability": "view",
      "type": "function"
    },
    {
      "inputs": [
        {
          "internalType": "address",
          "name": "tokenId",
          "type": "address"
        }
      ],
      "name": "livelyTokensDistribution",
      "outputs": [
        {
          "internalType": "bool",
          "name": "",
          "type": "bool"
        }
      ],
      "stateMutability": "nonpayable",
      "type": "function"
    },
    {
      "inputs": [],
      "name": "localAdmin",
      "outputs": [
        {
          "internalType": "address",
          "name": "",
          "type": "address"
        }
      ],
      "stateMutability": "view",
      "type": "function"
    },
    {
      "inputs": [
        {
          "internalType": "address",
          "name": "implementation",
          "type": "address"
        },
        {
          "internalType": "bytes32",
          "name": "salt",
          "type": "bytes32"
        },
        {
          "internalType": "address",
          "name": "deployer",
          "type": "address"
        }
      ],
      "name": "predictAddress",
      "outputs": [
        {
          "internalType": "address",
          "name": "",
          "type": "address"
        }
      ],
      "stateMutability": "pure",
      "type": "function"
    },
    {
      "inputs": [],
      "name": "proxiableUUID",
      "outputs": [
        {
          "internalType": "bytes32",
          "name": "",
          "type": "bytes32"
        }
      ],
      "stateMutability": "view",
      "type": "function"
    },
    {
      "inputs": [
        {
          "internalType": "address",
          "name": "assetId",
          "type": "address"
        }
      ],
      "name": "registerAsset",
      "outputs": [
        {
          "internalType": "bool",
          "name": "",
          "type": "bool"
        }
      ],
      "stateMutability": "nonpayable",
      "type": "function"
    },
    {
      "inputs": [
        {
          "internalType": "address",
          "name": "tokenId",
          "type": "address"
        }
      ],
      "name": "registerToken",
      "outputs": [
        {
          "internalType": "bool",
          "name": "",
          "type": "bool"
        }
      ],
      "stateMutability": "nonpayable",
      "type": "function"
    },
    {
      "inputs": [
        {
          "internalType": "address",
          "name": "assetId",
          "type": "address"
        }
      ],
      "name": "removeAsset",
      "outputs": [
        {
          "internalType": "bool",
          "name": "",
          "type": "bool"
        }
      ],
      "stateMutability": "nonpayable",
      "type": "function"
    },
    {
      "inputs": [
        {
          "internalType": "address",
          "name": "newLocalAdmin",
          "type": "address"
        }
      ],
      "name": "setLocalAdmin",
      "outputs": [
        {
          "internalType": "bool",
          "name": "",
          "type": "bool"
        }
      ],
      "stateMutability": "nonpayable",
      "type": "function"
    },
    {
      "inputs": [
        {
          "internalType": "bool",
          "name": "status",
          "type": "bool"
        }
      ],
      "name": "setSafeMode",
      "outputs": [
        {
          "internalType": "bool",
          "name": "",
          "type": "bool"
        }
      ],
      "stateMutability": "nonpayable",
      "type": "function"
    },
    {
      "inputs": [
        {
          "internalType": "address",
          "name": "tokenId",
          "type": "address"
        },
        {
          "internalType": "bool",
          "name": "isEnabled",
          "type": "bool"
        }
      ],
      "name": "setSafeModeToken",
      "outputs": [
        {
          "internalType": "bool",
          "name": "",
          "type": "bool"
        }
      ],
      "stateMutability": "nonpayable",
      "type": "function"
    },
    {
      "inputs": [
        {
          "internalType": "bool",
          "name": "status",
          "type": "bool"
        }
      ],
      "name": "setUpgradeStatus",
      "outputs": [
        {
          "internalType": "bool",
          "name": "",
          "type": "bool"
        }
      ],
      "stateMutability": "nonpayable",
      "type": "function"
    },
    {
      "inputs": [],
      "name": "subjectAddress",
      "outputs": [
        {
          "internalType": "address",
          "name": "",
          "type": "address"
        }
      ],
      "stateMutability": "view",
      "type": "function"
    },
    {
      "inputs": [
        {
          "internalType": "bytes4",
          "name": "interfaceId",
          "type": "bytes4"
        }
      ],
      "name": "supportsInterface",
      "outputs": [
        {
          "internalType": "bool",
          "name": "",
          "type": "bool"
        }
      ],
      "stateMutability": "view",
      "type": "function"
    },
    {
      "inputs": [
        {
          "internalType": "address",
          "name": "assetId",
          "type": "address"
        },
        {
          "internalType": "address",
          "name": "spender",
          "type": "address"
        },
        {
          "internalType": "uint256",
          "name": "amount",
          "type": "uint256"
        }
      ],
      "name": "tokenApprove",
      "outputs": [
        {
          "internalType": "bool",
          "name": "",
          "type": "bool"
        }
      ],
      "stateMutability": "nonpayable",
      "type": "function"
    },
    {
      "inputs": [
        {
          "internalType": "address",
          "name": "assetId",
          "type": "address"
        },
        {
          "components": [
            {
              "internalType": "address",
              "name": "source",
              "type": "address"
            },
            {
              "internalType": "address",
              "name": "dest",
              "type": "address"
            },
            {
              "internalType": "uint256",
              "name": "timestamp",
              "type": "uint256"
            },
            {
              "internalType": "uint256",
              "name": "amount",
              "type": "uint256"
            }
          ],
          "internalType": "struct IERC20Lock.LockTokenRequest[]",
          "name": "lockRequests",
          "type": "tuple[]"
        }
      ],
      "name": "tokenBatchLock",
      "outputs": [
        {
          "internalType": "bytes32[]",
          "name": "",
          "type": "bytes32[]"
        }
      ],
      "stateMutability": "nonpayable",
      "type": "function"
    },
    {
      "inputs": [
        {
          "internalType": "address",
          "name": "assetId",
          "type": "address"
        },
        {
          "components": [
            {
              "internalType": "address",
              "name": "to",
              "type": "address"
            },
            {
              "internalType": "uint256",
              "name": "amount",
              "type": "uint256"
            }
          ],
          "internalType": "struct IERC20Extra.BatchTransferRequest[]",
          "name": "request",
          "type": "tuple[]"
        }
      ],
      "name": "tokenBatchTransfer",
      "outputs": [
        {
          "internalType": "bool",
          "name": "",
          "type": "bool"
        }
      ],
      "stateMutability": "nonpayable",
      "type": "function"
    },
    {
      "inputs": [
        {
          "internalType": "address",
          "name": "assetId",
          "type": "address"
        },
        {
          "components": [
            {
              "internalType": "address",
              "name": "from",
              "type": "address"
            },
            {
              "internalType": "address",
              "name": "to",
              "type": "address"
            },
            {
              "internalType": "uint256",
              "name": "amount",
              "type": "uint256"
            }
          ],
          "internalType": "struct IERC20Extra.BatchTransferFromRequest[]",
          "name": "request",
          "type": "tuple[]"
        }
      ],
      "name": "tokenBatchTransferFrom",
      "outputs": [
        {
          "internalType": "bool",
          "name": "",
          "type": "bool"
        }
      ],
      "stateMutability": "nonpayable",
      "type": "function"
    },
    {
      "inputs": [
        {
          "internalType": "address",
          "name": "assetId",
          "type": "address"
        },
        {
          "internalType": "address",
          "name": "spender",
          "type": "address"
        },
        {
          "internalType": "uint256",
          "name": "amount",
          "type": "uint256"
        }
      ],
      "name": "tokenDecreaseAllowance",
      "outputs": [
        {
          "internalType": "uint256",
          "name": "",
          "type": "uint256"
        }
      ],
      "stateMutability": "nonpayable",
      "type": "function"
    },
    {
      "inputs": [
        {
          "internalType": "address",
          "name": "assetId",
          "type": "address"
        },
        {
          "internalType": "address",
          "name": "spender",
          "type": "address"
        },
        {
          "internalType": "uint256",
          "name": "amount",
          "type": "uint256"
        }
      ],
      "name": "tokenIncreaseAllowance",
      "outputs": [
        {
          "internalType": "uint256",
          "name": "",
          "type": "uint256"
        }
      ],
      "stateMutability": "nonpayable",
      "type": "function"
    },
    {
      "inputs": [
        {
          "internalType": "address",
          "name": "assetId",
          "type": "address"
        },
        {
          "components": [
            {
              "internalType": "address",
              "name": "source",
              "type": "address"
            },
            {
              "internalType": "address",
              "name": "dest",
              "type": "address"
            },
            {
              "internalType": "uint256",
              "name": "timestamp",
              "type": "uint256"
            },
            {
              "internalType": "uint256",
              "name": "amount",
              "type": "uint256"
            }
          ],
          "internalType": "struct IERC20Lock.LockTokenRequest",
          "name": "lockRequest",
          "type": "tuple"
        }
      ],
      "name": "tokenLock",
      "outputs": [
        {
          "internalType": "bytes32",
          "name": "",
          "type": "bytes32"
        }
      ],
      "stateMutability": "nonpayable",
      "type": "function"
    },
    {
      "inputs": [
        {
          "internalType": "address",
          "name": "assetId",
          "type": "address"
        },
        {
          "internalType": "address",
          "name": "to",
          "type": "address"
        },
        {
          "internalType": "uint256",
          "name": "amount",
          "type": "uint256"
        }
      ],
      "name": "tokenTransfer",
      "outputs": [
        {
          "internalType": "bool",
          "name": "",
          "type": "bool"
        }
      ],
      "stateMutability": "nonpayable",
      "type": "function"
    },
    {
      "inputs": [
        {
          "internalType": "address",
          "name": "assetId",
          "type": "address"
        },
        {
          "internalType": "address",
          "name": "from",
          "type": "address"
        },
        {
          "internalType": "address",
          "name": "to",
          "type": "address"
        },
        {
          "internalType": "uint256",
          "name": "amount",
          "type": "uint256"
        }
      ],
      "name": "tokenTransferFrom",
      "outputs": [
        {
          "internalType": "bool",
          "name": "",
          "type": "bool"
        }
      ],
      "stateMutability": "nonpayable",
      "type": "function"
    },
    {
      "inputs": [
        {
          "internalType": "address",
          "name": "assetSubject",
          "type": "address"
        },
        {
          "internalType": "bytes",
          "name": "assetCreationSignature",
          "type": "bytes"
        }
      ],
      "name": "updateAssetSubject",
      "outputs": [
        {
          "internalType": "bool",
          "name": "",
          "type": "bool"
        }
      ],
      "stateMutability": "nonpayable",
      "type": "function"
    },
    {
      "inputs": [
        {
          "internalType": "address",
          "name": "newImplementation",
          "type": "address"
        },
        {
          "internalType": "bytes",
          "name": "data",
          "type": "bytes"
        },
        {
          "internalType": "bool",
          "name": "forceCall",
          "type": "bool"
        }
      ],
      "name": "upgradeTo",
      "outputs": [
        {
          "internalType": "bytes",
          "name": "",
          "type": "bytes"
        }
      ],
      "stateMutability": "nonpayable",
      "type": "function"
    },
    {
      "inputs": [
        {
          "internalType": "address",
          "name": "recepient",
          "type": "address"
        }
      ],
      "name": "withdrawBalance",
      "outputs": [],
      "stateMutability": "nonpayable",
      "type": "function"
    },
    {
      "stateMutability": "payable",
      "type": "receive"
    }
  ],
  "bytecode": "0x60a0604052306080523480156200001557600080fd5b506200004360017f360894a13ba1a3210667c828492db98dca3e2076cc3735a920a3ca505d382bbd62000127565b7f360894a13ba1a3210667c828492db98dca3e2076cc3735a920a3ca505d382bbc146200007457620000746200014f565b620000a160017fb53127684a568b3173ae13b9f8a6016e243e63b6e8ee1178d6a717850b5d610462000127565b600080516020620045fb83398151915214620000c157620000c16200014f565b33620000ea600080516020620045fb83398151915260001b6200012460201b620022b01760201c565b80546001600160a01b03929092166001600160a01b03199092169190911790556003805461ffff60a01b1916600160a01b17905562000165565b90565b818103818111156200014957634e487b7160e01b600052601160045260246000fd5b92915050565b634e487b7160e01b600052600160045260246000fd5b608051614434620001c760003960008181610f1d01528181610f5d015281816110db0152818161111b015281816113a30152818161154901528181611589015281816117d70152818161181701528181611e0c0152611e4c01526144346000f3fe6080604052600436106102485760003560e01c80637147855d11610138578063be22465d116100b0578063ef34f29111610077578063ef34f2911461071d578063f3913e691461073d578063f698da251461075d578063f94a0adb14610772578063fb3f4d2914610787578063ff4d8e4a146107a757005b8063be22465d14610689578063c5d39a4a146106a8578063d312998f146106c8578063d3e024b8146106e8578063d9dc1f19146106fd57005b8063870666cb116100ff578063870666cb146105e15780639ed4fa5a146105f6578063a0a8e46014610616578063aab405fe1461062b578063b484c8891461064b578063b4a0bdf31461066b57005b80637147855d1461052b578063756af45f1461055857806375d0c0dc146105785780637678922e1461058d5780637a09941e146105b457005b806338d38c97116101cb5780635479d940116101925780635479d94014610461578063565bf1fa1461048057806358dbc45d146104a0578063611376f5146104cd578063622110e1146104eb57806367eb04e61461050b57005b806338d38c97146103c457806344b7e5f2146103ec57806348e6be1c1461040c5780634a5e42b11461042c57806352d1902d1461044c57005b80631bdc56271161020f5780631bdc5627146103145780631f69565f146103345780632a5c792a146103625780633091a54814610384578063373c52fa146103a457005b806301ffc9a71461025157806309824a80146102865780630bb0ccaa146102a657806315eaef6b146102d45780631b87323d146102f457005b3661024f57005b005b34801561025d57600080fd5b5061027161026c3660046131c9565b6107c7565b60405190151581526020015b60405180910390f35b34801561029257600080fd5b506102716102a13660046131fb565b6107f2565b3480156102b257600080fd5b506102c66102c1366004613218565b6108f0565b60405190815260200161027d565b3480156102e057600080fd5b506102716102ef366004613259565b610979565b34801561030057600080fd5b5061027161030f36600461329a565b610a08565b34801561032057600080fd5b506102c661032f366004613259565b610d0c565b34801561034057600080fd5b5061035461034f3660046131fb565b610d93565b60405161027d929190613362565b34801561036e57600080fd5b50610377610dca565b60405161027d9190613399565b34801561039057600080fd5b506102c661039f366004613259565b610ddb565b3480156103b057600080fd5b506102716103bf3660046133ba565b610e23565b3480156103d057600080fd5b506103d9610f02565b60405161ffff909116815260200161027d565b3480156103f857600080fd5b506102716104073660046133f3565b610f11565b34801561041857600080fd5b506102716104273660046133f3565b6110cf565b34801561043857600080fd5b506102716104473660046131fb565b6112a3565b34801561045857600080fd5b506102c6611396565b34801561046d57600080fd5b50600354600160a81b900460ff16610271565b34801561048c57600080fd5b5061027161049b366004613410565b611423565b3480156104ac57600080fd5b506104b5611464565b6040516001600160a01b03909116815260200161027d565b3480156104d957600080fd5b506044546001600160a01b03166104b5565b3480156104f757600080fd5b50610271610506366004613484565b61146e565b34801561051757600080fd5b506102716105263660046131fb565b6114af565b34801561053757600080fd5b5061054b61054636600461358d565b61153d565b60405161027d9190613683565b34801561056457600080fd5b5061024f6105733660046131fb565b61166e565b34801561058457600080fd5b506000546102c6565b34801561059957600080fd5b5073__$cdf2ce6e37ccfb50337d871d83177ab89c$__6104b5565b3480156105c057600080fd5b506105d46105cf366004613696565b61172d565b60405161027d919061370a565b3480156105ed57600080fd5b506102c66117b5565b34801561060257600080fd5b506102716106113660046131fb565b6117c0565b34801561062257600080fd5b506001546102c6565b34801561063757600080fd5b5061024f610646366004613766565b6117cd565b34801561065757600080fd5b506104b5610666366004613766565b611b88565b34801561067757600080fd5b506003546001600160a01b03166104b5565b34801561069557600080fd5b50600354600160a01b900460ff16610271565b3480156106b457600080fd5b506102716106c33660046131fb565b611ca8565b3480156106d457600080fd5b506102716106e33660046131fb565b611d0c565b3480156106f457600080fd5b506002546102c6565b34801561070957600080fd5b506102716107183660046131fb565b611e00565b34801561072957600080fd5b506104b561073836600461379a565b611f81565b34801561074957600080fd5b506102716107583660046137d1565b61200f565b34801561076957600080fd5b506102c66120a6565b34801561077e57600080fd5b506104b5612112565b34801561079357600080fd5b506102716107a2366004613259565b61211c565b3480156107b357600080fd5b506102716107c23660046131fb565b612164565b60006001600160e01b03198216631c8b5d5b60e11b14806107ec57506107ec826122b3565b92915050565b60006108036213049560e71b612303565b60405163b5ea87b960e01b8152604660048201526001600160a01b0383166024820152600090819073__$cdf2ce6e37ccfb50337d871d83177ab89c$__9063b5ea87b990604401600060405180830381865af4158015610867573d6000803e3d6000fd5b505050506040513d6000823e601f3d908101601f1916820160405261088f9190810190613867565b91509150836001600160a01b03166108a43390565b6001600160a01b03167ffbe16c292428cdc3e66e97f954e91cc4f49b472d24989df1b2cdc27f295a706784846040516108de9291906138ca565b60405180910390a35060019392505050565b6000610903836305d8665560e11b612373565b60405163108d303960e31b81526001600160a01b0384169063846981c89061092f908590600401613931565b6020604051808303816000875af115801561094e573d6000803e3d6000fd5b505050506040513d601f19601f82011682018060405250810190610972919061393f565b9392505050565b600061098c846315eaef6b60e01b612373565b604051633466d7f360e11b81526001600160a01b038481166004830152602482018490528516906368cdafe6906044015b6020604051808303816000875af11580156109dc573d6000803e3d6000fd5b505050506040513d601f19601f82011682018060405250810190610a009190613963565b949350505050565b6000610a1a631b87323d60e01b612303565b6040516301ffc9a760e01b81526001600160a01b038516906301ffc9a790610a4d9063391f033d60e11b90600401613980565b602060405180830381865afa925050508015610a86575060408051601f3d908101601f19168201909252610a8391810190613963565b60015b610acd5760405162461bcd60e51b81526020600482015260136024820152720496c6c6567616c20494173736574455243323606c1b60448201526064015b60405180910390fd5b80610b105760405162461bcd60e51b81526020600482015260136024820152720496e76616c696420494173736574455243323606c1b6044820152606401610ac4565b506040516301ffc9a760e01b81526001600160a01b038516906301ffc9a790610b4490639673b47d60e01b90600401613980565b602060405180830381865afa925050508015610b7d575060408051601f3d908101601f19168201909252610b7a91810190613963565b60015b610bc05760405162461bcd60e51b8152602060048201526014602482015273496c6c6567616c20494173736574456e7469747960601b6044820152606401610ac4565b80610c045760405162461bcd60e51b8152602060048201526014602482015273496e76616c696420494173736574456e7469747960601b6044820152606401610ac4565b506044546001600160a01b03808616911603610c625760405162461bcd60e51b815260206004820152601b60248201527f41737365745375626a65637420416c72656164792045786973747300000000006044820152606401610ac4565b81610ca35760405162461bcd60e51b8152602060048201526011602482015270496e76616c6964205369676e617475726560781b6044820152606401610ac4565b604480546001600160a01b0319166001600160a01b0386161790556045610ccb838583613a14565b506040516001600160a01b0385169033907f635c49f367f9b4e320585d5b740e0db5ce9ed3194418e45af3a41422a2b9878c90600090a35060019392505050565b6000610d1f84631bdc562760e01b612373565b604051633f14901960e21b81526001600160a01b0384811660048301526024820184905285169063fc524064906044015b6020604051808303816000875af1158015610d6f573d6000803e3d6000fd5b505050506040513d601f19601f82011682018060405250810190610a00919061393f565b6001600160a01b038116600090815260466020526040812060028101546060919060ff16610dc0826125d1565b9250925050915091565b6060610dd660476125d1565b905090565b6000610dee8463061234a960e31b612373565b604051630529747360e51b81526001600160a01b0384811660048301526024820184905285169063a52e8e6090604401610d50565b6000610e35631b9e297d60e11b612303565b60405182151581526001600160a01b0384169033907f5b993d7a32d62133a02f02d99f7369ff289d4574f855412034f59adb739615ec9060200160405180910390a360405163c79fd49b60e01b8152604660048201526001600160a01b0384166024820152821515604482015273__$cdf2ce6e37ccfb50337d871d83177ab89c$__9063c79fd49b90606401602060405180830381865af4158015610ede573d6000803e3d6000fd5b505050506040513d601f19601f820116820180604052508101906109729190613963565b6000610dd660495461ffff1690565b60006001600160a01b037f0000000000000000000000000000000000000000000000000000000000000000163003610f5b5760405162461bcd60e51b8152600401610ac490613ad4565b7f00000000000000000000000000000000000000000000000000000000000000006001600160a01b0316610f8d6125de565b6001600160a01b031614610fb35760405162461bcd60e51b8152600401610ac490613b03565b6000610fc260495461ffff1690565b61ffff16116110135760405162461bcd60e51b815260206004820152601860248201527f436f6e7472616374204e6f7420496e697469616c697a656400000000000000006044820152606401610ac4565b61102363225bf2f960e11b6125ff565b6110675760405162461bcd60e51b815260206004820152601560248201527429b2ba29b0b332a6b7b232902337b93134b23232b760591b6044820152606401610ac4565b6003805460ff60a01b1916600160a01b8415150217905560025430336001600160a01b03167fdd452a31d2e164a1ea436c084842c27d24ae2548a575a869f71b05a4ed16243f856040516110bf911515815260200190565b60405180910390a450805b919050565b60006001600160a01b037f00000000000000000000000000000000000000000000000000000000000000001630036111195760405162461bcd60e51b8152600401610ac490613ad4565b7f00000000000000000000000000000000000000000000000000000000000000006001600160a01b031661114b6125de565b6001600160a01b0316146111715760405162461bcd60e51b8152600401610ac490613b03565b600354600160a01b900460ff161561119b5760405162461bcd60e51b8152600401610ac490613b31565b6111ab631239af8760e21b6125ff565b6111f75760405162461bcd60e51b815260206004820152601a60248201527f5365745570677261646553746174757320466f7262696464656e0000000000006044820152606401610ac4565b6111ff612744565b61124b5760405162461bcd60e51b815260206004820152601760248201527f5265616c6d205570677261646520466f7262696464656e0000000000000000006044820152606401610ac4565b6003805460ff60a81b1916600160a81b8415150217905560025430336001600160a01b03167fe9f97ad94c2ba252dcfc525e004f608ac5cb886955d8fc87d9e0ee070a698c56856040516110bf911515815260200190565b60006112b5634a5e42b160e01b612303565b60405163bbb9b43d60e01b8152604660048201526001600160a01b038316602482015260009073__$cdf2ce6e37ccfb50337d871d83177ab89c$__9063bbb9b43d90604401602060405180830381865af4158015611317573d6000803e3d6000fd5b505050506040513d601f19601f8201168201806040525081019061133b9190613b68565b9050806001600160a01b0316836001600160a01b03166113583390565b6001600160a01b03167f9b4f55639e5e283319baee5bc4e69a5625a8e3a1cc004af968f4fee72502202760405160405180910390a450600192915050565b6000306001600160a01b037f000000000000000000000000000000000000000000000000000000000000000016146114105760405162461bcd60e51b815260206004820152601d60248201527f496c6c6567616c20436f6e74726163742044656c656761746563616c6c0000006044820152606401610ac4565b506000805160206143df83398151915290565b600061143684632b2df8fd60e11b612373565b604051632710b17b60e21b81526001600160a01b03851690639c42c5ec906109bd9086908690600401613b85565b6000610dd66125de565b60006114818463622110e160e01b612373565b60405163e9dbebbd60e01b81526001600160a01b0385169063e9dbebbd906109bd9086908690600401613bf5565b60006107ec8260466000016000856001600160a01b0316631083f7616040518163ffffffff1660e01b8152600401602060405180830381865afa1580156114fa573d6000803e3d6000fd5b505050506040513d601f19601f8201168201806040525081019061151e9190613b68565b6001600160a01b03168152602081019190915260400160002090612882565b60606001600160a01b037f00000000000000000000000000000000000000000000000000000000000000001630036115875760405162461bcd60e51b8152600401610ac490613ad4565b7f00000000000000000000000000000000000000000000000000000000000000006001600160a01b03166115b96125de565b6001600160a01b0316146115df5760405162461bcd60e51b8152600401610ac490613b03565b600354600160a01b900460ff16156116095760405162461bcd60e51b8152600401610ac490613b31565b600354600160a81b900460ff1661165a5760405162461bcd60e51b8152602060048201526015602482015274155c19dc9859194810d85b1b0814995a9958dd1959605a1b6044820152606401610ac4565b611663846128a4565b610a0084848461296b565b600354600160a01b900460ff16156116985760405162461bcd60e51b8152600401610ac490613b31565b6116a863756af45f60e01b6125ff565b6116f45760405162461bcd60e51b815260206004820152601a60248201527f57697468647261772042616c616e636520466f7262696464656e0000000000006044820152606401610ac4565b6040516001600160a01b038216904780156108fc02916000818181858888f19350505050158015611729573d6000803e3d6000fd5b5050565b606061174084633d04ca0f60e11b612373565b604051633862ae0160e11b81526001600160a01b038516906370c55c029061176e9086908690600401613c41565b6000604051808303816000875af115801561178d573d6000803e3d6000fd5b505050506040513d6000823e601f3d908101601f19168201604052610a009190810190613ca6565b6000610dd630612bc1565b60006107ec604783612882565b6001600160a01b037f00000000000000000000000000000000000000000000000000000000000000001630036118155760405162461bcd60e51b8152600401610ac490613ad4565b7f00000000000000000000000000000000000000000000000000000000000000006001600160a01b03166118476125de565b6001600160a01b03161461186d5760405162461bcd60e51b8152600401610ac490613b03565b33611876612c00565b6001600160a01b0316146118c45760405162461bcd60e51b815260206004820152601560248201527410d85b1b195c88139bdd08105d5d1a1bdc9a5e9959605a1b6044820152606401610ac4565b60495462010000900460ff16158080156118e65750604954600161ffff909116105b806119015750303b158015611901575060495461ffff166001145b61194d5760405162461bcd60e51b815260206004820152601c60248201527f436f6e747261637420416c726561647920496e697469616c697a6564000000006044820152606401610ac4565b6049805461ffff191660011790558015611973576049805462ff00001916620100001790555b60006119826040840184613d36565b604051602001611993929190613d83565b60408051601f19818403018152919052805160209091012090506119dd6119ba8480613d36565b6119c76020870187613d36565b856119d860808a0160608b016131fb565b612c28565b600080546001546002546040516397ca328d60e01b8152849373__$cdf2ce6e37ccfb50337d871d83177ab89c$__936397ca328d93611a2f936004019283526020830191909152604082015260600190565b600060405180830381865af4158015611a4c573d6000803e3d6000fd5b505050506040513d6000823e601f3d908101601f19168201604052611a749190810190613ecf565b60035491935091506001600160a01b031663f1df49da611a976080880188613d36565b85856040518563ffffffff1660e01b8152600401611ab89493929190613faa565b6020604051808303816000875af1158015611ad7573d6000803e3d6000fd5b505050506040513d601f19601f82011682018060405250810190611afb919061393f565b50611b046125de565b6001600160a01b031630337ff851a1e85477b818fc72ad517ea622cc316f10f67d61c9e740adc151a8b41394611b3a8980613d36565b611b4760208c018c613d36565b8a611b5560495461ffff1690565b604051611b67969594939291906140b6565b60405180910390a45050508015611729576049805462ff0000191690555050565b6000611b9a63b484c88960e01b612303565b6003546044546040516308d9f7e360e01b8152600092839273__$cdf2ce6e37ccfb50337d871d83177ab89c$__926308d9f7e392611bf0926046928a926001600160a01b039081169216906045906004016141bd565b6040805180830381865af4158015611c0c573d6000803e3d6000fd5b505050506040513d601f19601f82011682018060405250810190611c309190614288565b9092509050611c4560608501604086016131fb565b6001600160a01b0316826001600160a01b0316611c5f3390565b6040516001600160a01b03858116825291909116907fa585f587bcfc3f76acec7db143aa51e1be0b5e75bee741689d55af27cbed7c1d9060200160405180910390a45092915050565b6000816001600160a01b0316634cfb99496040518163ffffffff1660e01b8152600401602060405180830381865afa158015611ce8573d6000803e3d6000fd5b505050506040513d601f19601f820116820180604052508101906107ec9190613963565b6000611d1e63d312998f60e01b612303565b604051631128debd60e31b8152604660048201526001600160a01b0383166024820152600090819073__$cdf2ce6e37ccfb50337d871d83177ab89c$__90638946f5e8906044016040805180830381865af4158015611d81573d6000803e3d6000fd5b505050506040513d601f19601f82011682018060405250810190611da591906142b7565b91509150806001600160a01b0316846001600160a01b0316611dc43390565b6001600160a01b03167f52fa4983a7faf930ea4d4238e22fcc42e87608baf5116306461b078bb1ed340660405160405180910390a45092915050565b60006001600160a01b037f0000000000000000000000000000000000000000000000000000000000000000163003611e4a5760405162461bcd60e51b8152600401610ac490613ad4565b7f00000000000000000000000000000000000000000000000000000000000000006001600160a01b0316611e7c6125de565b6001600160a01b031614611ea25760405162461bcd60e51b8152600401610ac490613b03565b600354600160a01b900460ff1615611ecc5760405162461bcd60e51b8152600401610ac490613b31565b611edc63d9dc1f1960e01b6125ff565b611f285760405162461bcd60e51b815260206004820152601760248201527f5365744c6f63616c41646d696e20466f7262696464656e0000000000000000006044820152606401610ac4565b6001600160a01b038216611f705760405162461bcd60e51b815260206004820152600f60248201526e1059191c995cdcc8125b9d985b1a59608a1b6044820152606401610ac4565b611f7982612c3e565b506001919050565b60405163ef34f29160e01b81526001600160a01b038085166004830152602482018490528216604482015260009073__$cdf2ce6e37ccfb50337d871d83177ab89c$__9063ef34f29190606401602060405180830381865af4158015611feb573d6000803e3d6000fd5b505050506040513d601f19601f82011682018060405250810190610a009190613b68565b60006120228563f3913e6960e01b612373565b604051634b0cba5d60e11b81526001600160a01b03858116600483015284811660248301526044820184905286169063961974ba906064016020604051808303816000875af1158015612079573d6000803e3d6000fd5b505050506040513d601f19601f8201168201806040525081019061209d9190613963565b95945050505050565b6000610dd660008054600154604080517f8b73c3c69bb8fe3d512ecc4cf759cc79239f7b179b0ffacaa9a75d522b39400f60208201529081019290925260608201524660808201523060a082015260c00160405160208183030381529060405280519060200120905090565b6000610dd6612c00565b600061212f8463fb3f4d2960e01b612373565b604051630cd689f560e01b81526001600160a01b03848116600483015260248201849052851690630cd689f5906044016109bd565b60006121796001625938db60e11b0319612303565b612184604783612882565b6121c45760405162461bcd60e51b8152602060048201526011602482015270151bdad95b925908139bdd08119bdd5b99607a1b6044820152606401610ac4565b6001600160a01b03821660009081526046602052604090206121e581612cb5565b60071461222c5760405162461bcd60e51b8152602060048201526015602482015274105cdcd95d0814995c5d5a5c99590811985a5b1959605a1b6044820152606401610ac4565b612234613195565b60005b60078110156122815761224a8382612cbf565b82826007811061225c5761225c6142d5565b6001600160a01b0390921660209290920201528061227981614301565b915050612237565b5060405163ec4ac1f760e01b81526001600160a01b0385169063ec4ac1f7906109bd903090859060040161431a565b90565b60006001600160e01b031982166314751dbf60e01b14806122e457506001600160e01b031982166352d1902d60e01b145b806107ec57506301ffc9a760e01b6001600160e01b03198316146107ec565b600354600160a01b900460ff161561232d5760405162461bcd60e51b8152600401610ac490613b31565b80612337816125ff565b6117295760405162461bcd60e51b815260206004820152600d60248201526c1058d8d95cdcc811195b9a5959609a1b6044820152606401610ac4565b61237c81612303565b6001600160a01b0382166123c45760405162461bcd60e51b815260206004820152600f60248201526e125b9d985b1a5908105cdcd95d1259608a1b6044820152606401610ac4565b6040516301ffc9a760e01b81526001600160a01b038316906301ffc9a7906123f790639673b47d60e01b90600401613980565b602060405180830381865afa925050508015612430575060408051601f3d908101601f1916820190925261242d91810190613963565b60015b6124735760405162461bcd60e51b8152602060048201526014602482015273496c6c6567616c20494173736574456e7469747960601b6044820152606401610ac4565b806124b75760405162461bcd60e51b8152602060048201526014602482015273496e76616c696420494173736574456e7469747960601b6044820152606401610ac4565b506000826001600160a01b0316631083f7616040518163ffffffff1660e01b8152600401602060405180830381865afa1580156124f8573d6000803e3d6000fd5b505050506040513d601f19601f8201168201806040525081019061251c9190613b68565b9050612529604782612882565b6125695760405162461bcd60e51b8152602060048201526011602482015270151bdad95b925908139bdd08119bdd5b99607a1b6044820152606401610ac4565b6001600160a01b038116600090815260466020526040902061258b8185612882565b6125cb5760405162461bcd60e51b8152602060048201526011602482015270105cdcd95d125908139bdd08119bdd5b99607a1b6044820152606401610ac4565b50505050565b6060600061097283612ccb565b60006000805160206143df8339815191525b546001600160a01b0316919050565b6003546000906001600160a01b031630036126ed5760006363d59cf360e11b61262730612bc1565b338560405160240161263b93929190614361565b60408051601f198184030181529190526020810180516001600160e01b03166001600160e01b031990931692909217909152905060006126b861267c6125de565b836040518060400160405280601d81526020017f44656c656761746563616c6c20686173416363657373204661696c6564000000815250612d27565b905080600182516126c9919061438a565b815181106126d9576126d96142d5565b60209101015160f81c600114949350505050565b6003546001600160a01b031663c7ab39e661270730612bc1565b33856040518463ffffffff1660e01b815260040161272793929190614361565b602060405180830381865afa158015611ce8573d6000803e3d6000fd5b6003546000906001600160a01b0316300361280c57600063e25d75f060e01b60025460405160240161277891815260200190565b60408051601f198184030181529190526020810180516001600160e01b03166001600160e01b031990931692909217909152905060006127d86127b96125de565b836040518060600160405280602581526020016143ba60259139612d27565b905080600182516127e9919061438a565b815181106127f9576127f96142d5565b60209101015160f81c6001149392505050565b600354600254604051630e25d75f60e41b81526001600160a01b039092169163e25d75f0916128419160040190815260200190565b602060405180830381865afa15801561285e573d6000803e3d6000fd5b505050506040513d601f19601f82011682018060405250810190610dd69190613963565b6001600160a01b03811660009081526001830160205260408120541515610972565b6128ac6125de565b6001600160a01b0316816001600160a01b03160361290c5760405162461bcd60e51b815260206004820152601a60248201527f496c6c6567616c204e657720496d706c656d656e746174696f6e0000000000006044820152606401610ac4565b61291c637147855d60e01b6125ff565b6129685760405162461bcd60e51b815260206004820152601960248201527f5570677261646520436f6e7465787420466f7262696464656e000000000000006044820152606401610ac4565b50565b60607f4910fdfa16fed3260ed0e7147f7cc6da11a60208b5b9406d12a635614ffd91435460ff16156129b5576129a084612df0565b50604080516000815260208101909152610972565b836001600160a01b03166352d1902d6040518163ffffffff1660e01b8152600401602060405180830381865afa925050508015612a0f575060408051601f3d908101601f19168201909252612a0c9181019061393f565b60015b612a535760405162461bcd60e51b8152602060048201526015602482015274125b1b1959d85b0815555414c810dbdb9d1c9858dd605a1b6044820152606401610ac4565b6000805160206143df8339815191528114612aa85760405162461bcd60e51b8152602060048201526015602482015274125b9d985b1a590815555414c810dbdb9d1c9858dd605a1b6044820152606401610ac4565b506040516301ffc9a760e01b81526001600160a01b038516906301ffc9a790612adc906314751dbf60e01b90600401613980565b602060405180830381865afa925050508015612b15575060408051601f3d908101601f19168201909252612b1291810190613963565b60015b612b615760405162461bcd60e51b815260206004820152601760248201527f496c6c6567616c204950726f787920436f6e74726163740000000000000000006044820152606401610ac4565b80612bae5760405162461bcd60e51b815260206004820152601760248201527f496e76616c6964204950726f787920436f6e74726163740000000000000000006044820152606401610ac4565b50612bba848484612e71565b9050610972565b6040516bffffffffffffffffffffffff19606083901b166020820152600090603401604051602081830303815290604052805190602001209050919050565b60007fb53127684a568b3173ae13b9f8a6016e243e63b6e8ee1178d6a717850b5d61036125f0565b612c36868686868686612edb565b505050505050565b7fb53127684a568b3173ae13b9f8a6016e243e63b6e8ee1178d6a717850b5d610380546001600160a01b0383166001600160a01b031990911681179091556040805191825251309133917f54ab0d18de7958786ba1ad85966d59baa2b395455f0530dcdcfd732e6af539e29181900360200190a350565b60006107ec825490565b600061097283836130ee565b606081600001805480602002602001604051908101604052809291908181526020018280548015612d1b57602002820191906000526020600020905b815481526020019060010190808311612d07575b50505050509050919050565b60606001600160a01b0384163b612d7b5760405162461bcd60e51b8152602060048201526018602482015277496c6c6567616c20436f6e7472616374204164647265737360401b6044820152606401610ac4565b600080856001600160a01b031685604051612d96919061439d565b600060405180830381855af49150503d8060008114612dd1576040519150601f19603f3d011682016040523d82523d6000602084013e612dd6565b606091505b5091509150612de6828286613118565b9695505050505050565b6001600160a01b0381163b612e425760405162461bcd60e51b8152602060048201526018602482015277496c6c6567616c20436f6e7472616374204164647265737360401b6044820152606401610ac4565b6000805160206143df83398151915280546001600160a01b0319166001600160a01b0392909216919091179055565b6060612e7c84613151565b600083511180612e895750815b15612ec457612bba84846040518060400160405280601381526020017211195b1959d85d1958d85b1b0811985a5b1959606a1b815250612d27565b505060408051600081526020810190915292915050565b60495462010000900460ff16612f335760405162461bcd60e51b815260206004820152601960248201527f436f6e7472616374204e6f7420496e697469616c697a696e67000000000000006044820152606401610ac4565b8585604051602001612f46929190613d83565b60408051601f19818403018152908290528051602091820120600055612f70918691869101613d83565b60408051601f19818403018152919052805160209091012060015560028290556001600160a01b038116612fb557600380546001600160a01b031916301790556130d7565b6040516301ffc9a760e01b81526001600160a01b038216906301ffc9a790612fe8906314b8343560e31b90600401613980565b602060405180830381865afa925050508015613021575060408051601f3d908101601f1916820190925261301e91810190613963565b60015b61306d5760405162461bcd60e51b815260206004820152601c60248201527f496c6c6567616c20416363657373436f6e74726f6c4d616e61676572000000006044820152606401610ac4565b806130ba5760405162461bcd60e51b815260206004820152601c60248201527f496e76616c696420416363657373436f6e74726f6c4d616e61676572000000006044820152606401610ac4565b50600380546001600160a01b0319166001600160a01b0383161790555b6003805461ffff60a01b19169055612c3633612c3e565b6000826000018281548110613105576131056142d5565b9060005260206000200154905092915050565b60608315613127575081610972565b8251156131375782518084602001fd5b8160405162461bcd60e51b8152600401610ac49190613683565b61315a81612df0565b6040516001600160a01b03821690309033907f354bd4b6eb65d64e6c79c53fa4f983a5e6bec4824ce4627c71be0b2722f4917e90600090a450565b6040518060e001604052806007906020820280368337509192915050565b6001600160e01b03198116811461296857600080fd5b6000602082840312156131db57600080fd5b8135610972816131b3565b6001600160a01b038116811461296857600080fd5b60006020828403121561320d57600080fd5b8135610972816131e6565b60008082840360a081121561322c57600080fd5b8335613237816131e6565b92506080601f198201121561324b57600080fd5b506020830190509250929050565b60008060006060848603121561326e57600080fd5b8335613279816131e6565b92506020840135613289816131e6565b929592945050506040919091013590565b6000806000604084860312156132af57600080fd5b83356132ba816131e6565b925060208401356001600160401b03808211156132d657600080fd5b818601915086601f8301126132ea57600080fd5b8135818111156132f957600080fd5b87602082850101111561330b57600080fd5b6020830194508093505050509250925092565b600081518084526020808501945080840160005b838110156133575781516001600160a01b031687529582019590820190600101613332565b509495945050505050565b60006003841061338257634e487b7160e01b600052602160045260246000fd5b83825260406020830152610a00604083018461331e565b602081526000610972602083018461331e565b801515811461296857600080fd5b600080604083850312156133cd57600080fd5b82356133d8816131e6565b915060208301356133e8816133ac565b809150509250929050565b60006020828403121561340557600080fd5b8135610972816133ac565b60008060006040848603121561342557600080fd5b8335613430816131e6565b925060208401356001600160401b038082111561344c57600080fd5b818601915086601f83011261346057600080fd5b81358181111561346f57600080fd5b87602060608302850101111561330b57600080fd5b60008060006040848603121561349957600080fd5b83356134a4816131e6565b925060208401356001600160401b03808211156134c057600080fd5b818601915086601f8301126134d457600080fd5b8135818111156134e357600080fd5b8760208260061b850101111561330b57600080fd5b634e487b7160e01b600052604160045260246000fd5b604051606081016001600160401b0381118282101715613530576135306134f8565b60405290565b604051601f8201601f191681016001600160401b038111828210171561355e5761355e6134f8565b604052919050565b60006001600160401b0382111561357f5761357f6134f8565b50601f01601f191660200190565b6000806000606084860312156135a257600080fd5b83356135ad816131e6565b925060208401356001600160401b038111156135c857600080fd5b8401601f810186136135d957600080fd5b80356135ec6135e782613566565b613536565b81815287602083850101111561360157600080fd5b816020840160208301376000602083830101528094505050506040840135613628816133ac565b809150509250925092565b60005b8381101561364e578181015183820152602001613636565b50506000910152565b6000815180845261366f816020860160208601613633565b601f01601f19169290920160200192915050565b6020815260006109726020830184613657565b6000806000604084860312156136ab57600080fd5b83356136b6816131e6565b925060208401356001600160401b03808211156136d257600080fd5b818601915086601f8301126136e657600080fd5b8135818111156136f557600080fd5b8760208260071b850101111561330b57600080fd5b6020808252825182820181905260009190848201906040850190845b8181101561374257835183529284019291840191600101613726565b50909695505050505050565b600060a0828403121561376057600080fd5b50919050565b60006020828403121561377857600080fd5b81356001600160401b0381111561378e57600080fd5b610a008482850161374e565b6000806000606084860312156137af57600080fd5b83356137ba816131e6565b9250602084013591506040840135613628816131e6565b600080600080608085870312156137e757600080fd5b84356137f2816131e6565b93506020850135613802816131e6565b92506040850135613812816131e6565b9396929550929360600135925050565b600082601f83011261383357600080fd5b81516138416135e782613566565b81815284602083860101111561385657600080fd5b610a00826020830160208701613633565b6000806040838503121561387a57600080fd5b82516001600160401b038082111561389157600080fd5b61389d86838701613822565b935060208501519150808211156138b357600080fd5b506138c085828601613822565b9150509250929050565b6040815260006138dd6040830185613657565b828103602084015261209d8185613657565b80356138fa816131e6565b6001600160a01b039081168352602082013590613916826131e6565b16602083015260408181013590830152606090810135910152565b608081016107ec82846138ef565b60006020828403121561395157600080fd5b5051919050565b80516110ca816133ac565b60006020828403121561397557600080fd5b8151610972816133ac565b6001600160e01b031991909116815260200190565b600181811c908216806139a957607f821691505b60208210810361376057634e487b7160e01b600052602260045260246000fd5b601f821115613a0f57600081815260208120601f850160051c810160208610156139f05750805b601f850160051c820191505b81811015612c36578281556001016139fc565b505050565b6001600160401b03831115613a2b57613a2b6134f8565b613a3f83613a398354613995565b836139c9565b6000601f841160018114613a735760008515613a5b5750838201355b600019600387901b1c1916600186901b178355613acd565b600083815260209020601f19861690835b82811015613aa45786850135825560209485019460019092019101613a84565b5086821015613ac15760001960f88860031b161c19848701351681555b505060018560011b0183555b5050505050565b602080825260159082015274125b1b1959d85b0810dbdb9d1c9858dd0810d85b1b605a1b604082015260600190565b602080825260149082015273141c9bde1e4810d85b1b195908125b9d985b1a5960621b604082015260600190565b60208082526017908201527f536166654d6f64653a2043616c6c2052656a6563746564000000000000000000604082015260600190565b600060208284031215613b7a57600080fd5b8151610972816131e6565b6020808252818101839052600090604080840186845b87811015613be8578135613bae816131e6565b6001600160a01b0390811684528286013590613bc9826131e6565b1683860152818401358484015260609283019290910190600101613b9b565b5090979650505050505050565b6020808252818101839052600090604080840186845b87811015613be8578135613c1e816131e6565b6001600160a01b0316835281850135858401529183019190830190600101613c0b565b6020808252810182905260008360408301825b85811015613c7957613c6682846138ef565b6080928301929190910190600101613c54565b5095945050505050565b60006001600160401b03821115613c9c57613c9c6134f8565b5060051b60200190565b60006020808385031215613cb957600080fd5b82516001600160401b03811115613ccf57600080fd5b8301601f81018513613ce057600080fd5b8051613cee6135e782613c83565b81815260059190911b82018301908381019087831115613d0d57600080fd5b928401925b82841015613d2b57835182529284019290840190613d12565b979650505050505050565b6000808335601e19843603018112613d4d57600080fd5b8301803591506001600160401b03821115613d6757600080fd5b602001915036819003821315613d7c57600080fd5b9250929050565b8183823760009101908152919050565b600082601f830112613da457600080fd5b81516020613db46135e783613c83565b82815260059290921b84018101918181019086841115613dd357600080fd5b8286015b84811015613ec45780516001600160401b0380821115613df75760008081fd5b908801906060828b03601f1901811315613e115760008081fd5b613e1961350e565b87840151815260408085015184811115613e335760008081fd5b85019350603f84018d13613e475760008081fd5b88840151613e576135e782613c83565b81815260059190911b85018201908a8101908f831115613e775760008081fd5b958301955b82871015613e9e578651613e8f816131b3565b8252958b0195908b0190613e7c565b848c015250613eb09050858401613958565b908201528652505050918301918301613dd7565b509695505050505050565b60008082840360c0811215613ee357600080fd5b60a0811215613ef157600080fd5b5060405160a081016001600160401b038282108183111715613f1557613f156134f8565b8160405285518352602086015160208401526040860151604084015260608601519150613f41826131e6565b81606084015260808601519150613f57826133ac565b6080830182905260a086015192945080831115613f7357600080fd5b50506138c085828601613d93565b81835281816020850137506000828201602090810191909152601f909101601f19169091010190565b60e081526000613fbe60e083018688613f81565b6020855181850152808601516040818187015280880151915060608281880152808901519250608060018060a01b03841681890152808a0151151560a089015287860360c089015285935088518087528587019450858160051b880101868b016000805b848110156140a1578a8403601f190189528251805185528a8101518b86018990528051898701819052908c01908490898801905b808310156140805783516001600160e01b0319168252928e019260019290920191908e0190614056565b50928b01511515968b019690965250988a0198935091890191600101614022565b50919f9e505050505050505050505050505050565b6080815260006140ca60808301888a613f81565b82810360208401526140dd818789613f81565b91505083604083015261ffff83166060830152979650505050505050565b6000808335601e1984360301811261411257600080fd5b83016020810192503590506001600160401b0381111561413157600080fd5b803603821315613d7c57600080fd5b6000815461414d81613995565b80855260206001838116801561416a5760018114614184576141b2565b60ff1985168884015283151560051b8801830195506141b2565b866000528260002060005b858110156141aa5781548a820186015290830190840161418f565b890184019650505b505050505092915050565b85815260a06020820152843560a0820152602085013560c0820152600060408601356141e8816131e6565b6001600160a01b031660e083015261420360608701876140fb565b60a061010085015261421a61014085018284613f81565b91505061422a60808801886140fb565b848303609f1901610120860152614242838284613f81565b9250505061425b60408401876001600160a01b03169052565b6001600160a01b0385166060840152828103608084015261427c8185614140565b98975050505050505050565b6000806040838503121561429b57600080fd5b82516142a6816131e6565b60208401519092506133e8816131e6565b600080604083850312156142ca57600080fd5b82516142a6816133ac565b634e487b7160e01b600052603260045260246000fd5b634e487b7160e01b600052601160045260246000fd5b600060018201614313576143136142eb565b5060010190565b6001600160a01b03838116825261010082019060208084018560005b6007811015614355578151851683529183019190830190600101614336565b50505050509392505050565b9283526001600160a01b039190911660208301526001600160e01b031916604082015260600190565b818103818111156107ec576107ec6142eb565b600082516143af818460208701613633565b919091019291505056fe44656c656761746563616c6c2069735265616c6d55706772616461626c65204661696c6564360894a13ba1a3210667c828492db98dca3e2076cc3735a920a3ca505d382bbca26469706673582212200f3bf39420c8dd636fb4f8806561539d8247b815c3bdb276f1f9b4cded02dbc364736f6c63430008110033b53127684a568b3173ae13b9f8a6016e243e63b6e8ee1178d6a717850b5d6103",
  "linkReferences": {
    "src/contracts/lib/token/LAssetManagerERC20.sol": {
      "LAssetManagerERC20": [
        {
          "length": 20,
          "start": 1891
        },
        {
          "length": 20,
          "start": 2548
        },
        {
          "length": 20,
          "start": 4203
        },
        {
          "length": 20,
          "start": 5284
        },
        {
          "length": 20,
          "start": 7103
        },
        {
          "length": 20,
          "start": 7547
        },
        {
          "length": 20,
          "start": 7951
        },
        {
          "length": 20,
          "start": 8568
        }
      ]
    }
  },
  "deployedLinkReferences": {
    "src/contracts/lib/token/LAssetManagerERC20.sol": {
      "LAssetManagerERC20": [
        {
          "length": 20,
          "start": 1436
        },
        {
          "length": 20,
          "start": 2093
        },
        {
          "length": 20,
          "start": 3748
        },
        {
          "length": 20,
          "start": 4829
        },
        {
          "length": 20,
          "start": 6648
        },
        {
          "length": 20,
          "start": 7092
        },
        {
          "length": 20,
          "start": 7496
        },
        {
          "length": 20,
          "start": 8113
        }
      ]
    }
  },
  "devdoc": {
    "kind": "dev",
    "methods": {
      "proxiableUUID()": {
        "details": "Implementation of the ERC1822 {proxiableUUID} function. This returns the storage slot used by the implementation. It is used to validate that the this implementation remains valid after an upgrade. IMPORTANT: A proxy pointing at a proxiable contract should not be considered proxiable itself, because this risks bricking a proxy that upgrades to it, by delegating to itself until out of gas. Thus it is critical that this function revert if invoked through a proxy. This is guaranteed by the `notDelegated` modifier."
      },
      "supportsInterface(bytes4)": {
        "details": "See {IERC165-supportsInterface}."
      }
    },
    "version": 1
  },
  "evm": {
    "bytecode": {
      "linkReferences": {
        "src/contracts/lib/token/LAssetManagerERC20.sol": {
          "LAssetManagerERC20": [
            {
              "length": 20,
              "start": 1891
            },
            {
              "length": 20,
              "start": 2548
            },
            {
              "length": 20,
              "start": 4203
            },
            {
              "length": 20,
              "start": 5284
            },
            {
              "length": 20,
              "start": 7103
            },
            {
              "length": 20,
              "start": 7547
            },
            {
              "length": 20,
              "start": 7951
            },
            {
              "length": 20,
              "start": 8568
            }
          ]
        }
      },
      "opcodes": "PUSH1 0xA0 PUSH1 0x40 MSTORE ADDRESS PUSH1 0x80 MSTORE CALLVALUE DUP1 ISZERO PUSH3 0x15 JUMPI PUSH1 0x0 DUP1 REVERT JUMPDEST POP PUSH3 0x43 PUSH1 0x1 PUSH32 0x360894A13BA1A3210667C828492DB98DCA3E2076CC3735A920A3CA505D382BBD PUSH3 0x127 JUMP JUMPDEST PUSH32 0x360894A13BA1A3210667C828492DB98DCA3E2076CC3735A920A3CA505D382BBC EQ PUSH3 0x74 JUMPI PUSH3 0x74 PUSH3 0x14F JUMP JUMPDEST PUSH3 0xA1 PUSH1 0x1 PUSH32 0xB53127684A568B3173AE13B9F8A6016E243E63B6E8EE1178D6A717850B5D6104 PUSH3 0x127 JUMP JUMPDEST PUSH1 0x0 DUP1 MLOAD PUSH1 0x20 PUSH3 0x45FB DUP4 CODECOPY DUP2 MLOAD SWAP2 MSTORE EQ PUSH3 0xC1 JUMPI PUSH3 0xC1 PUSH3 0x14F JUMP JUMPDEST CALLER PUSH3 0xEA PUSH1 0x0 DUP1 MLOAD PUSH1 0x20 PUSH3 0x45FB DUP4 CODECOPY DUP2 MLOAD SWAP2 MSTORE PUSH1 0x0 SHL PUSH3 0x124 PUSH1 0x20 SHL PUSH3 0x22B0 OR PUSH1 0x20 SHR JUMP JUMPDEST DUP1 SLOAD PUSH1 0x1 PUSH1 0x1 PUSH1 0xA0 SHL SUB SWAP3 SWAP1 SWAP3 AND PUSH1 0x1 PUSH1 0x1 PUSH1 0xA0 SHL SUB NOT SWAP1 SWAP3 AND SWAP2 SWAP1 SWAP2 OR SWAP1 SSTORE PUSH1 0x3 DUP1 SLOAD PUSH2 0xFFFF PUSH1 0xA0 SHL NOT AND PUSH1 0x1 PUSH1 0xA0 SHL OR SWAP1 SSTORE PUSH3 0x165 JUMP JUMPDEST SWAP1 JUMP JUMPDEST DUP2 DUP2 SUB DUP2 DUP2 GT ISZERO PUSH3 0x149 JUMPI PUSH4 0x4E487B71 PUSH1 0xE0 SHL PUSH1 0x0 MSTORE PUSH1 0x11 PUSH1 0x4 MSTORE PUSH1 0x24 PUSH1 0x0 REVERT JUMPDEST SWAP3 SWAP2 POP POP JUMP JUMPDEST PUSH4 0x4E487B71 PUSH1 0xE0 SHL PUSH1 0x0 MSTORE PUSH1 0x1 PUSH1 0x4 MSTORE PUSH1 0x24 PUSH1 0x0 REVERT JUMPDEST PUSH1 0x80 MLOAD PUSH2 0x4434 PUSH3 0x1C7 PUSH1 0x0 CODECOPY PUSH1 0x0 DUP2 DUP2 PUSH2 0xF1D ADD MSTORE DUP2 DUP2 PUSH2 0xF5D ADD MSTORE DUP2 DUP2 PUSH2 0x10DB ADD MSTORE DUP2 DUP2 PUSH2 0x111B ADD MSTORE DUP2 DUP2 PUSH2 0x13A3 ADD MSTORE DUP2 DUP2 PUSH2 0x1549 ADD MSTORE DUP2 DUP2 PUSH2 0x1589 ADD MSTORE DUP2 DUP2 PUSH2 0x17D7 ADD MSTORE DUP2 DUP2 PUSH2 0x1817 ADD MSTORE DUP2 DUP2 PUSH2 0x1E0C ADD MSTORE PUSH2 0x1E4C ADD MSTORE PUSH2 0x4434 PUSH1 0x0 RETURN INVALID PUSH1 0x80 PUSH1 0x40 MSTORE PUSH1 0x4 CALLDATASIZE LT PUSH2 0x248 JUMPI PUSH1 0x0 CALLDATALOAD PUSH1 0xE0 SHR DUP1 PUSH4 0x7147855D GT PUSH2 0x138 JUMPI DUP1 PUSH4 0xBE22465D GT PUSH2 0xB0 JUMPI DUP1 PUSH4 0xEF34F291 GT PUSH2 0x77 JUMPI DUP1 PUSH4 0xEF34F291 EQ PUSH2 0x71D JUMPI DUP1 PUSH4 0xF3913E69 EQ PUSH2 0x73D JUMPI DUP1 PUSH4 0xF698DA25 EQ PUSH2 0x75D JUMPI DUP1 PUSH4 0xF94A0ADB EQ PUSH2 0x772 JUMPI DUP1 PUSH4 0xFB3F4D29 EQ PUSH2 0x787 JUMPI DUP1 PUSH4 0xFF4D8E4A EQ PUSH2 0x7A7 JUMPI STOP JUMPDEST DUP1 PUSH4 0xBE22465D EQ PUSH2 0x689 JUMPI DUP1 PUSH4 0xC5D39A4A EQ PUSH2 0x6A8 JUMPI DUP1 PUSH4 0xD312998F EQ PUSH2 0x6C8 JUMPI DUP1 PUSH4 0xD3E024B8 EQ PUSH2 0x6E8 JUMPI DUP1 PUSH4 0xD9DC1F19 EQ PUSH2 0x6FD JUMPI STOP JUMPDEST DUP1 PUSH4 0x870666CB GT PUSH2 0xFF JUMPI DUP1 PUSH4 0x870666CB EQ PUSH2 0x5E1 JUMPI DUP1 PUSH4 0x9ED4FA5A EQ PUSH2 0x5F6 JUMPI DUP1 PUSH4 0xA0A8E460 EQ PUSH2 0x616 JUMPI DUP1 PUSH4 0xAAB405FE EQ PUSH2 0x62B JUMPI DUP1 PUSH4 0xB484C889 EQ PUSH2 0x64B JUMPI DUP1 PUSH4 0xB4A0BDF3 EQ PUSH2 0x66B JUMPI STOP JUMPDEST DUP1 PUSH4 0x7147855D EQ PUSH2 0x52B JUMPI DUP1 PUSH4 0x756AF45F EQ PUSH2 0x558 JUMPI DUP1 PUSH4 0x75D0C0DC EQ PUSH2 0x578 JUMPI DUP1 PUSH4 0x7678922E EQ PUSH2 0x58D JUMPI DUP1 PUSH4 0x7A09941E EQ PUSH2 0x5B4 JUMPI STOP JUMPDEST DUP1 PUSH4 0x38D38C97 GT PUSH2 0x1CB JUMPI DUP1 PUSH4 0x5479D940 GT PUSH2 0x192 JUMPI DUP1 PUSH4 0x5479D940 EQ PUSH2 0x461 JUMPI DUP1 PUSH4 0x565BF1FA EQ PUSH2 0x480 JUMPI DUP1 PUSH4 0x58DBC45D EQ PUSH2 0x4A0 JUMPI DUP1 PUSH4 0x611376F5 EQ PUSH2 0x4CD JUMPI DUP1 PUSH4 0x622110E1 EQ PUSH2 0x4EB JUMPI DUP1 PUSH4 0x67EB04E6 EQ PUSH2 0x50B JUMPI STOP JUMPDEST DUP1 PUSH4 0x38D38C97 EQ PUSH2 0x3C4 JUMPI DUP1 PUSH4 0x44B7E5F2 EQ PUSH2 0x3EC JUMPI DUP1 PUSH4 0x48E6BE1C EQ PUSH2 0x40C JUMPI DUP1 PUSH4 0x4A5E42B1 EQ PUSH2 0x42C JUMPI DUP1 PUSH4 0x52D1902D EQ PUSH2 0x44C JUMPI STOP JUMPDEST DUP1 PUSH4 0x1BDC5627 GT PUSH2 0x20F JUMPI DUP1 PUSH4 0x1BDC5627 EQ PUSH2 0x314 JUMPI DUP1 PUSH4 0x1F69565F EQ PUSH2 0x334 JUMPI DUP1 PUSH4 0x2A5C792A EQ PUSH2 0x362 JUMPI DUP1 PUSH4 0x3091A548 EQ PUSH2 0x384 JUMPI DUP1 PUSH4 0x373C52FA EQ PUSH2 0x3A4 JUMPI STOP JUMPDEST DUP1 PUSH4 0x1FFC9A7 EQ PUSH2 0x251 JUMPI DUP1 PUSH4 0x9824A80 EQ PUSH2 0x286 JUMPI DUP1 PUSH4 0xBB0CCAA EQ PUSH2 0x2A6 JUMPI DUP1 PUSH4 0x15EAEF6B EQ PUSH2 0x2D4 JUMPI DUP1 PUSH4 0x1B87323D EQ PUSH2 0x2F4 JUMPI STOP JUMPDEST CALLDATASIZE PUSH2 0x24F JUMPI STOP JUMPDEST STOP JUMPDEST CALLVALUE DUP1 ISZERO PUSH2 0x25D JUMPI PUSH1 0x0 DUP1 REVERT JUMPDEST POP PUSH2 0x271 PUSH2 0x26C CALLDATASIZE PUSH1 0x4 PUSH2 0x31C9 JUMP JUMPDEST PUSH2 0x7C7 JUMP JUMPDEST PUSH1 0x40 MLOAD SWAP1 ISZERO ISZERO DUP2 MSTORE PUSH1 0x20 ADD JUMPDEST PUSH1 0x40 MLOAD DUP1 SWAP2 SUB SWAP1 RETURN JUMPDEST CALLVALUE DUP1 ISZERO PUSH2 0x292 JUMPI PUSH1 0x0 DUP1 REVERT JUMPDEST POP PUSH2 0x271 PUSH2 0x2A1 CALLDATASIZE PUSH1 0x4 PUSH2 0x31FB JUMP JUMPDEST PUSH2 0x7F2 JUMP JUMPDEST CALLVALUE DUP1 ISZERO PUSH2 0x2B2 JUMPI PUSH1 0x0 DUP1 REVERT JUMPDEST POP PUSH2 0x2C6 PUSH2 0x2C1 CALLDATASIZE PUSH1 0x4 PUSH2 0x3218 JUMP JUMPDEST PUSH2 0x8F0 JUMP JUMPDEST PUSH1 0x40 MLOAD SWAP1 DUP2 MSTORE PUSH1 0x20 ADD PUSH2 0x27D JUMP JUMPDEST CALLVALUE DUP1 ISZERO PUSH2 0x2E0 JUMPI PUSH1 0x0 DUP1 REVERT JUMPDEST POP PUSH2 0x271 PUSH2 0x2EF CALLDATASIZE PUSH1 0x4 PUSH2 0x3259 JUMP JUMPDEST PUSH2 0x979 JUMP JUMPDEST CALLVALUE DUP1 ISZERO PUSH2 0x300 JUMPI PUSH1 0x0 DUP1 REVERT JUMPDEST POP PUSH2 0x271 PUSH2 0x30F CALLDATASIZE PUSH1 0x4 PUSH2 0x329A JUMP JUMPDEST PUSH2 0xA08 JUMP JUMPDEST CALLVALUE DUP1 ISZERO PUSH2 0x320 JUMPI PUSH1 0x0 DUP1 REVERT JUMPDEST POP PUSH2 0x2C6 PUSH2 0x32F CALLDATASIZE PUSH1 0x4 PUSH2 0x3259 JUMP JUMPDEST PUSH2 0xD0C JUMP JUMPDEST CALLVALUE DUP1 ISZERO PUSH2 0x340 JUMPI PUSH1 0x0 DUP1 REVERT JUMPDEST POP PUSH2 0x354 PUSH2 0x34F CALLDATASIZE PUSH1 0x4 PUSH2 0x31FB JUMP JUMPDEST PUSH2 0xD93 JUMP JUMPDEST PUSH1 0x40 MLOAD PUSH2 0x27D SWAP3 SWAP2 SWAP1 PUSH2 0x3362 JUMP JUMPDEST CALLVALUE DUP1 ISZERO PUSH2 0x36E JUMPI PUSH1 0x0 DUP1 REVERT JUMPDEST POP PUSH2 0x377 PUSH2 0xDCA JUMP JUMPDEST PUSH1 0x40 MLOAD PUSH2 0x27D SWAP2 SWAP1 PUSH2 0x3399 JUMP JUMPDEST CALLVALUE DUP1 ISZERO PUSH2 0x390 JUMPI PUSH1 0x0 DUP1 REVERT JUMPDEST POP PUSH2 0x2C6 PUSH2 0x39F CALLDATASIZE PUSH1 0x4 PUSH2 0x3259 JUMP JUMPDEST PUSH2 0xDDB JUMP JUMPDEST CALLVALUE DUP1 ISZERO PUSH2 0x3B0 JUMPI PUSH1 0x0 DUP1 REVERT JUMPDEST POP PUSH2 0x271 PUSH2 0x3BF CALLDATASIZE PUSH1 0x4 PUSH2 0x33BA JUMP JUMPDEST PUSH2 0xE23 JUMP JUMPDEST CALLVALUE DUP1 ISZERO PUSH2 0x3D0 JUMPI PUSH1 0x0 DUP1 REVERT JUMPDEST POP PUSH2 0x3D9 PUSH2 0xF02 JUMP JUMPDEST PUSH1 0x40 MLOAD PUSH2 0xFFFF SWAP1 SWAP2 AND DUP2 MSTORE PUSH1 0x20 ADD PUSH2 0x27D JUMP JUMPDEST CALLVALUE DUP1 ISZERO PUSH2 0x3F8 JUMPI PUSH1 0x0 DUP1 REVERT JUMPDEST POP PUSH2 0x271 PUSH2 0x407 CALLDATASIZE PUSH1 0x4 PUSH2 0x33F3 JUMP JUMPDEST PUSH2 0xF11 JUMP JUMPDEST CALLVALUE DUP1 ISZERO PUSH2 0x418 JUMPI PUSH1 0x0 DUP1 REVERT JUMPDEST POP PUSH2 0x271 PUSH2 0x427 CALLDATASIZE PUSH1 0x4 PUSH2 0x33F3 JUMP JUMPDEST PUSH2 0x10CF JUMP JUMPDEST CALLVALUE DUP1 ISZERO PUSH2 0x438 JUMPI PUSH1 0x0 DUP1 REVERT JUMPDEST POP PUSH2 0x271 PUSH2 0x447 CALLDATASIZE PUSH1 0x4 PUSH2 0x31FB JUMP JUMPDEST PUSH2 0x12A3 JUMP JUMPDEST CALLVALUE DUP1 ISZERO PUSH2 0x458 JUMPI PUSH1 0x0 DUP1 REVERT JUMPDEST POP PUSH2 0x2C6 PUSH2 0x1396 JUMP JUMPDEST CALLVALUE DUP1 ISZERO PUSH2 0x46D JUMPI PUSH1 0x0 DUP1 REVERT JUMPDEST POP PUSH1 0x3 SLOAD PUSH1 0x1 PUSH1 0xA8 SHL SWAP1 DIV PUSH1 0xFF AND PUSH2 0x271 JUMP JUMPDEST CALLVALUE DUP1 ISZERO PUSH2 0x48C JUMPI PUSH1 0x0 DUP1 REVERT JUMPDEST POP PUSH2 0x271 PUSH2 0x49B CALLDATASIZE PUSH1 0x4 PUSH2 0x3410 JUMP JUMPDEST PUSH2 0x1423 JUMP JUMPDEST CALLVALUE DUP1 ISZERO PUSH2 0x4AC JUMPI PUSH1 0x0 DUP1 REVERT JUMPDEST POP PUSH2 0x4B5 PUSH2 0x1464 JUMP JUMPDEST PUSH1 0x40 MLOAD PUSH1 0x1 PUSH1 0x1 PUSH1 0xA0 SHL SUB SWAP1 SWAP2 AND DUP2 MSTORE PUSH1 0x20 ADD PUSH2 0x27D JUMP JUMPDEST CALLVALUE DUP1 ISZERO PUSH2 0x4D9 JUMPI PUSH1 0x0 DUP1 REVERT JUMPDEST POP PUSH1 0x44 SLOAD PUSH1 0x1 PUSH1 0x1 PUSH1 0xA0 SHL SUB AND PUSH2 0x4B5 JUMP JUMPDEST CALLVALUE DUP1 ISZERO PUSH2 0x4F7 JUMPI PUSH1 0x0 DUP1 REVERT JUMPDEST POP PUSH2 0x271 PUSH2 0x506 CALLDATASIZE PUSH1 0x4 PUSH2 0x3484 JUMP JUMPDEST PUSH2 0x146E JUMP JUMPDEST CALLVALUE DUP1 ISZERO PUSH2 0x517 JUMPI PUSH1 0x0 DUP1 REVERT JUMPDEST POP PUSH2 0x271 PUSH2 0x526 CALLDATASIZE PUSH1 0x4 PUSH2 0x31FB JUMP JUMPDEST PUSH2 0x14AF JUMP JUMPDEST CALLVALUE DUP1 ISZERO PUSH2 0x537 JUMPI PUSH1 0x0 DUP1 REVERT JUMPDEST POP PUSH2 0x54B PUSH2 0x546 CALLDATASIZE PUSH1 0x4 PUSH2 0x358D JUMP JUMPDEST PUSH2 0x153D JUMP JUMPDEST PUSH1 0x40 MLOAD PUSH2 0x27D SWAP2 SWAP1 PUSH2 0x3683 JUMP JUMPDEST CALLVALUE DUP1 ISZERO PUSH2 0x564 JUMPI PUSH1 0x0 DUP1 REVERT JUMPDEST POP PUSH2 0x24F PUSH2 0x573 CALLDATASIZE PUSH1 0x4 PUSH2 0x31FB JUMP JUMPDEST PUSH2 0x166E JUMP JUMPDEST CALLVALUE DUP1 ISZERO PUSH2 0x584 JUMPI PUSH1 0x0 DUP1 REVERT JUMPDEST POP PUSH1 0x0 SLOAD PUSH2 0x2C6 JUMP JUMPDEST CALLVALUE DUP1 ISZERO PUSH2 0x599 JUMPI PUSH1 0x0 DUP1 REVERT JUMPDEST POP PUSH20 0x0 PUSH2 0x4B5 JUMP JUMPDEST CALLVALUE DUP1 ISZERO PUSH2 0x5C0 JUMPI PUSH1 0x0 DUP1 REVERT JUMPDEST POP PUSH2 0x5D4 PUSH2 0x5CF CALLDATASIZE PUSH1 0x4 PUSH2 0x3696 JUMP JUMPDEST PUSH2 0x172D JUMP JUMPDEST PUSH1 0x40 MLOAD PUSH2 0x27D SWAP2 SWAP1 PUSH2 0x370A JUMP JUMPDEST CALLVALUE DUP1 ISZERO PUSH2 0x5ED JUMPI PUSH1 0x0 DUP1 REVERT JUMPDEST POP PUSH2 0x2C6 PUSH2 0x17B5 JUMP JUMPDEST CALLVALUE DUP1 ISZERO PUSH2 0x602 JUMPI PUSH1 0x0 DUP1 REVERT JUMPDEST POP PUSH2 0x271 PUSH2 0x611 CALLDATASIZE PUSH1 0x4 PUSH2 0x31FB JUMP JUMPDEST PUSH2 0x17C0 JUMP JUMPDEST CALLVALUE DUP1 ISZERO PUSH2 0x622 JUMPI PUSH1 0x0 DUP1 REVERT JUMPDEST POP PUSH1 0x1 SLOAD PUSH2 0x2C6 JUMP JUMPDEST CALLVALUE DUP1 ISZERO PUSH2 0x637 JUMPI PUSH1 0x0 DUP1 REVERT JUMPDEST POP PUSH2 0x24F PUSH2 0x646 CALLDATASIZE PUSH1 0x4 PUSH2 0x3766 JUMP JUMPDEST PUSH2 0x17CD JUMP JUMPDEST CALLVALUE DUP1 ISZERO PUSH2 0x657 JUMPI PUSH1 0x0 DUP1 REVERT JUMPDEST POP PUSH2 0x4B5 PUSH2 0x666 CALLDATASIZE PUSH1 0x4 PUSH2 0x3766 JUMP JUMPDEST PUSH2 0x1B88 JUMP JUMPDEST CALLVALUE DUP1 ISZERO PUSH2 0x677 JUMPI PUSH1 0x0 DUP1 REVERT JUMPDEST POP PUSH1 0x3 SLOAD PUSH1 0x1 PUSH1 0x1 PUSH1 0xA0 SHL SUB AND PUSH2 0x4B5 JUMP JUMPDEST CALLVALUE DUP1 ISZERO PUSH2 0x695 JUMPI PUSH1 0x0 DUP1 REVERT JUMPDEST POP PUSH1 0x3 SLOAD PUSH1 0x1 PUSH1 0xA0 SHL SWAP1 DIV PUSH1 0xFF AND PUSH2 0x271 JUMP JUMPDEST CALLVALUE DUP1 ISZERO PUSH2 0x6B4 JUMPI PUSH1 0x0 DUP1 REVERT JUMPDEST POP PUSH2 0x271 PUSH2 0x6C3 CALLDATASIZE PUSH1 0x4 PUSH2 0x31FB JUMP JUMPDEST PUSH2 0x1CA8 JUMP JUMPDEST CALLVALUE DUP1 ISZERO PUSH2 0x6D4 JUMPI PUSH1 0x0 DUP1 REVERT JUMPDEST POP PUSH2 0x271 PUSH2 0x6E3 CALLDATASIZE PUSH1 0x4 PUSH2 0x31FB JUMP JUMPDEST PUSH2 0x1D0C JUMP JUMPDEST CALLVALUE DUP1 ISZERO PUSH2 0x6F4 JUMPI PUSH1 0x0 DUP1 REVERT JUMPDEST POP PUSH1 0x2 SLOAD PUSH2 0x2C6 JUMP JUMPDEST CALLVALUE DUP1 ISZERO PUSH2 0x709 JUMPI PUSH1 0x0 DUP1 REVERT JUMPDEST POP PUSH2 0x271 PUSH2 0x718 CALLDATASIZE PUSH1 0x4 PUSH2 0x31FB JUMP JUMPDEST PUSH2 0x1E00 JUMP JUMPDEST CALLVALUE DUP1 ISZERO PUSH2 0x729 JUMPI PUSH1 0x0 DUP1 REVERT JUMPDEST POP PUSH2 0x4B5 PUSH2 0x738 CALLDATASIZE PUSH1 0x4 PUSH2 0x379A JUMP JUMPDEST PUSH2 0x1F81 JUMP JUMPDEST CALLVALUE DUP1 ISZERO PUSH2 0x749 JUMPI PUSH1 0x0 DUP1 REVERT JUMPDEST POP PUSH2 0x271 PUSH2 0x758 CALLDATASIZE PUSH1 0x4 PUSH2 0x37D1 JUMP JUMPDEST PUSH2 0x200F JUMP JUMPDEST CALLVALUE DUP1 ISZERO PUSH2 0x769 JUMPI PUSH1 0x0 DUP1 REVERT JUMPDEST POP PUSH2 0x2C6 PUSH2 0x20A6 JUMP JUMPDEST CALLVALUE DUP1 ISZERO PUSH2 0x77E JUMPI PUSH1 0x0 DUP1 REVERT JUMPDEST POP PUSH2 0x4B5 PUSH2 0x2112 JUMP JUMPDEST CALLVALUE DUP1 ISZERO PUSH2 0x793 JUMPI PUSH1 0x0 DUP1 REVERT JUMPDEST POP PUSH2 0x271 PUSH2 0x7A2 CALLDATASIZE PUSH1 0x4 PUSH2 0x3259 JUMP JUMPDEST PUSH2 0x211C JUMP JUMPDEST CALLVALUE DUP1 ISZERO PUSH2 0x7B3 JUMPI PUSH1 0x0 DUP1 REVERT JUMPDEST POP PUSH2 0x271 PUSH2 0x7C2 CALLDATASIZE PUSH1 0x4 PUSH2 0x31FB JUMP JUMPDEST PUSH2 0x2164 JUMP JUMPDEST PUSH1 0x0 PUSH1 0x1 PUSH1 0x1 PUSH1 0xE0 SHL SUB NOT DUP3 AND PUSH4 0x1C8B5D5B PUSH1 0xE1 SHL EQ DUP1 PUSH2 0x7EC JUMPI POP PUSH2 0x7EC DUP3 PUSH2 0x22B3 JUMP JUMPDEST SWAP3 SWAP2 POP POP JUMP JUMPDEST PUSH1 0x0 PUSH2 0x803 PUSH3 0x130495 PUSH1 0xE7 SHL PUSH2 0x2303 JUMP JUMPDEST PUSH1 0x40 MLOAD PUSH4 0xB5EA87B9 PUSH1 0xE0 SHL DUP2 MSTORE PUSH1 0x46 PUSH1 0x4 DUP3 ADD MSTORE PUSH1 0x1 PUSH1 0x1 PUSH1 0xA0 SHL SUB DUP4 AND PUSH1 0x24 DUP3 ADD MSTORE PUSH1 0x0 SWAP1 DUP2 SWAP1 PUSH20 0x0 SWAP1 PUSH4 0xB5EA87B9 SWAP1 PUSH1 0x44 ADD PUSH1 0x0 PUSH1 0x40 MLOAD DUP1 DUP4 SUB DUP2 DUP7 GAS DELEGATECALL ISZERO DUP1 ISZERO PUSH2 0x867 JUMPI RETURNDATASIZE PUSH1 0x0 DUP1 RETURNDATACOPY RETURNDATASIZE PUSH1 0x0 REVERT JUMPDEST POP POP POP POP PUSH1 0x40 MLOAD RETURNDATASIZE PUSH1 0x0 DUP3 RETURNDATACOPY PUSH1 0x1F RETURNDATASIZE SWAP1 DUP2 ADD PUSH1 0x1F NOT AND DUP3 ADD PUSH1 0x40 MSTORE PUSH2 0x88F SWAP2 SWAP1 DUP2 ADD SWAP1 PUSH2 0x3867 JUMP JUMPDEST SWAP2 POP SWAP2 POP DUP4 PUSH1 0x1 PUSH1 0x1 PUSH1 0xA0 SHL SUB AND PUSH2 0x8A4 CALLER SWAP1 JUMP JUMPDEST PUSH1 0x1 PUSH1 0x1 PUSH1 0xA0 SHL SUB AND PUSH32 0xFBE16C292428CDC3E66E97F954E91CC4F49B472D24989DF1B2CDC27F295A7067 DUP5 DUP5 PUSH1 0x40 MLOAD PUSH2 0x8DE SWAP3 SWAP2 SWAP1 PUSH2 0x38CA JUMP JUMPDEST PUSH1 0x40 MLOAD DUP1 SWAP2 SUB SWAP1 LOG3 POP PUSH1 0x1 SWAP4 SWAP3 POP POP POP JUMP JUMPDEST PUSH1 0x0 PUSH2 0x903 DUP4 PUSH4 0x5D86655 PUSH1 0xE1 SHL PUSH2 0x2373 JUMP JUMPDEST PUSH1 0x40 MLOAD PUSH4 0x108D3039 PUSH1 0xE3 SHL DUP2 MSTORE PUSH1 0x1 PUSH1 0x1 PUSH1 0xA0 SHL SUB DUP5 AND SWAP1 PUSH4 0x846981C8 SWAP1 PUSH2 0x92F SWAP1 DUP6 SWAP1 PUSH1 0x4 ADD PUSH2 0x3931 JUMP JUMPDEST PUSH1 0x20 PUSH1 0x40 MLOAD DUP1 DUP4 SUB DUP2 PUSH1 0x0 DUP8 GAS CALL ISZERO DUP1 ISZERO PUSH2 0x94E JUMPI RETURNDATASIZE PUSH1 0x0 DUP1 RETURNDATACOPY RETURNDATASIZE PUSH1 0x0 REVERT JUMPDEST POP POP POP POP PUSH1 0x40 MLOAD RETURNDATASIZE PUSH1 0x1F NOT PUSH1 0x1F DUP3 ADD AND DUP3 ADD DUP1 PUSH1 0x40 MSTORE POP DUP2 ADD SWAP1 PUSH2 0x972 SWAP2 SWAP1 PUSH2 0x393F JUMP JUMPDEST SWAP4 SWAP3 POP POP POP JUMP JUMPDEST PUSH1 0x0 PUSH2 0x98C DUP5 PUSH4 0x15EAEF6B PUSH1 0xE0 SHL PUSH2 0x2373 JUMP JUMPDEST PUSH1 0x40 MLOAD PUSH4 0x3466D7F3 PUSH1 0xE1 SHL DUP2 MSTORE PUSH1 0x1 PUSH1 0x1 PUSH1 0xA0 SHL SUB DUP5 DUP2 AND PUSH1 0x4 DUP4 ADD MSTORE PUSH1 0x24 DUP3 ADD DUP5 SWAP1 MSTORE DUP6 AND SWAP1 PUSH4 0x68CDAFE6 SWAP1 PUSH1 0x44 ADD JUMPDEST PUSH1 0x20 PUSH1 0x40 MLOAD DUP1 DUP4 SUB DUP2 PUSH1 0x0 DUP8 GAS CALL ISZERO DUP1 ISZERO PUSH2 0x9DC JUMPI RETURNDATASIZE PUSH1 0x0 DUP1 RETURNDATACOPY RETURNDATASIZE PUSH1 0x0 REVERT JUMPDEST POP POP POP POP PUSH1 0x40 MLOAD RETURNDATASIZE PUSH1 0x1F NOT PUSH1 0x1F DUP3 ADD AND DUP3 ADD DUP1 PUSH1 0x40 MSTORE POP DUP2 ADD SWAP1 PUSH2 0xA00 SWAP2 SWAP1 PUSH2 0x3963 JUMP JUMPDEST SWAP5 SWAP4 POP POP POP POP JUMP JUMPDEST PUSH1 0x0 PUSH2 0xA1A PUSH4 0x1B87323D PUSH1 0xE0 SHL PUSH2 0x2303 JUMP JUMPDEST PUSH1 0x40 MLOAD PUSH4 0x1FFC9A7 PUSH1 0xE0 SHL DUP2 MSTORE PUSH1 0x1 PUSH1 0x1 PUSH1 0xA0 SHL SUB DUP6 AND SWAP1 PUSH4 0x1FFC9A7 SWAP1 PUSH2 0xA4D SWAP1 PUSH4 0x391F033D PUSH1 0xE1 SHL SWAP1 PUSH1 0x4 ADD PUSH2 0x3980 JUMP JUMPDEST PUSH1 0x20 PUSH1 0x40 MLOAD DUP1 DUP4 SUB DUP2 DUP7 GAS STATICCALL SWAP3 POP POP POP DUP1 ISZERO PUSH2 0xA86 JUMPI POP PUSH1 0x40 DUP1 MLOAD PUSH1 0x1F RETURNDATASIZE SWAP1 DUP2 ADD PUSH1 0x1F NOT AND DUP3 ADD SWAP1 SWAP3 MSTORE PUSH2 0xA83 SWAP2 DUP2 ADD SWAP1 PUSH2 0x3963 JUMP JUMPDEST PUSH1 0x1 JUMPDEST PUSH2 0xACD JUMPI PUSH1 0x40 MLOAD PUSH3 0x461BCD PUSH1 0xE5 SHL DUP2 MSTORE PUSH1 0x20 PUSH1 0x4 DUP3 ADD MSTORE PUSH1 0x13 PUSH1 0x24 DUP3 ADD MSTORE PUSH19 0x496C6C6567616C20494173736574455243323 PUSH1 0x6C SHL PUSH1 0x44 DUP3 ADD MSTORE PUSH1 0x64 ADD JUMPDEST PUSH1 0x40 MLOAD DUP1 SWAP2 SUB SWAP1 REVERT JUMPDEST DUP1 PUSH2 0xB10 JUMPI PUSH1 0x40 MLOAD PUSH3 0x461BCD PUSH1 0xE5 SHL DUP2 MSTORE PUSH1 0x20 PUSH1 0x4 DUP3 ADD MSTORE PUSH1 0x13 PUSH1 0x24 DUP3 ADD MSTORE PUSH19 0x496E76616C696420494173736574455243323 PUSH1 0x6C SHL PUSH1 0x44 DUP3 ADD MSTORE PUSH1 0x64 ADD PUSH2 0xAC4 JUMP JUMPDEST POP PUSH1 0x40 MLOAD PUSH4 0x1FFC9A7 PUSH1 0xE0 SHL DUP2 MSTORE PUSH1 0x1 PUSH1 0x1 PUSH1 0xA0 SHL SUB DUP6 AND SWAP1 PUSH4 0x1FFC9A7 SWAP1 PUSH2 0xB44 SWAP1 PUSH4 0x9673B47D PUSH1 0xE0 SHL SWAP1 PUSH1 0x4 ADD PUSH2 0x3980 JUMP JUMPDEST PUSH1 0x20 PUSH1 0x40 MLOAD DUP1 DUP4 SUB DUP2 DUP7 GAS STATICCALL SWAP3 POP POP POP DUP1 ISZERO PUSH2 0xB7D JUMPI POP PUSH1 0x40 DUP1 MLOAD PUSH1 0x1F RETURNDATASIZE SWAP1 DUP2 ADD PUSH1 0x1F NOT AND DUP3 ADD SWAP1 SWAP3 MSTORE PUSH2 0xB7A SWAP2 DUP2 ADD SWAP1 PUSH2 0x3963 JUMP JUMPDEST PUSH1 0x1 JUMPDEST PUSH2 0xBC0 JUMPI PUSH1 0x40 MLOAD PUSH3 0x461BCD PUSH1 0xE5 SHL DUP2 MSTORE PUSH1 0x20 PUSH1 0x4 DUP3 ADD MSTORE PUSH1 0x14 PUSH1 0x24 DUP3 ADD MSTORE PUSH20 0x496C6C6567616C20494173736574456E74697479 PUSH1 0x60 SHL PUSH1 0x44 DUP3 ADD MSTORE PUSH1 0x64 ADD PUSH2 0xAC4 JUMP JUMPDEST DUP1 PUSH2 0xC04 JUMPI PUSH1 0x40 MLOAD PUSH3 0x461BCD PUSH1 0xE5 SHL DUP2 MSTORE PUSH1 0x20 PUSH1 0x4 DUP3 ADD MSTORE PUSH1 0x14 PUSH1 0x24 DUP3 ADD MSTORE PUSH20 0x496E76616C696420494173736574456E74697479 PUSH1 0x60 SHL PUSH1 0x44 DUP3 ADD MSTORE PUSH1 0x64 ADD PUSH2 0xAC4 JUMP JUMPDEST POP PUSH1 0x44 SLOAD PUSH1 0x1 PUSH1 0x1 PUSH1 0xA0 SHL SUB DUP1 DUP7 AND SWAP2 AND SUB PUSH2 0xC62 JUMPI PUSH1 0x40 MLOAD PUSH3 0x461BCD PUSH1 0xE5 SHL DUP2 MSTORE PUSH1 0x20 PUSH1 0x4 DUP3 ADD MSTORE PUSH1 0x1B PUSH1 0x24 DUP3 ADD MSTORE PUSH32 0x41737365745375626A65637420416C7265616479204578697374730000000000 PUSH1 0x44 DUP3 ADD MSTORE PUSH1 0x64 ADD PUSH2 0xAC4 JUMP JUMPDEST DUP2 PUSH2 0xCA3 JUMPI PUSH1 0x40 MLOAD PUSH3 0x461BCD PUSH1 0xE5 SHL DUP2 MSTORE PUSH1 0x20 PUSH1 0x4 DUP3 ADD MSTORE PUSH1 0x11 PUSH1 0x24 DUP3 ADD MSTORE PUSH17 0x496E76616C6964205369676E6174757265 PUSH1 0x78 SHL PUSH1 0x44 DUP3 ADD MSTORE PUSH1 0x64 ADD PUSH2 0xAC4 JUMP JUMPDEST PUSH1 0x44 DUP1 SLOAD PUSH1 0x1 PUSH1 0x1 PUSH1 0xA0 SHL SUB NOT AND PUSH1 0x1 PUSH1 0x1 PUSH1 0xA0 SHL SUB DUP7 AND OR SWAP1 SSTORE PUSH1 0x45 PUSH2 0xCCB DUP4 DUP6 DUP4 PUSH2 0x3A14 JUMP JUMPDEST POP PUSH1 0x40 MLOAD PUSH1 0x1 PUSH1 0x1 PUSH1 0xA0 SHL SUB DUP6 AND SWAP1 CALLER SWAP1 PUSH32 0x635C49F367F9B4E320585D5B740E0DB5CE9ED3194418E45AF3A41422A2B9878C SWAP1 PUSH1 0x0 SWAP1 LOG3 POP PUSH1 0x1 SWAP4 SWAP3 POP POP POP JUMP JUMPDEST PUSH1 0x0 PUSH2 0xD1F DUP5 PUSH4 0x1BDC5627 PUSH1 0xE0 SHL PUSH2 0x2373 JUMP JUMPDEST PUSH1 0x40 MLOAD PUSH4 0x3F149019 PUSH1 0xE2 SHL DUP2 MSTORE PUSH1 0x1 PUSH1 0x1 PUSH1 0xA0 SHL SUB DUP5 DUP2 AND PUSH1 0x4 DUP4 ADD MSTORE PUSH1 0x24 DUP3 ADD DUP5 SWAP1 MSTORE DUP6 AND SWAP1 PUSH4 0xFC524064 SWAP1 PUSH1 0x44 ADD JUMPDEST PUSH1 0x20 PUSH1 0x40 MLOAD DUP1 DUP4 SUB DUP2 PUSH1 0x0 DUP8 GAS CALL ISZERO DUP1 ISZERO PUSH2 0xD6F JUMPI RETURNDATASIZE PUSH1 0x0 DUP1 RETURNDATACOPY RETURNDATASIZE PUSH1 0x0 REVERT JUMPDEST POP POP POP POP PUSH1 0x40 MLOAD RETURNDATASIZE PUSH1 0x1F NOT PUSH1 0x1F DUP3 ADD AND DUP3 ADD DUP1 PUSH1 0x40 MSTORE POP DUP2 ADD SWAP1 PUSH2 0xA00 SWAP2 SWAP1 PUSH2 0x393F JUMP JUMPDEST PUSH1 0x1 PUSH1 0x1 PUSH1 0xA0 SHL SUB DUP2 AND PUSH1 0x0 SWAP1 DUP2 MSTORE PUSH1 0x46 PUSH1 0x20 MSTORE PUSH1 0x40 DUP2 KECCAK256 PUSH1 0x2 DUP2 ADD SLOAD PUSH1 0x60 SWAP2 SWAP1 PUSH1 0xFF AND PUSH2 0xDC0 DUP3 PUSH2 0x25D1 JUMP JUMPDEST SWAP3 POP SWAP3 POP POP SWAP2 POP SWAP2 JUMP JUMPDEST PUSH1 0x60 PUSH2 0xDD6 PUSH1 0x47 PUSH2 0x25D1 JUMP JUMPDEST SWAP1 POP SWAP1 JUMP JUMPDEST PUSH1 0x0 PUSH2 0xDEE DUP5 PUSH4 0x61234A9 PUSH1 0xE3 SHL PUSH2 0x2373 JUMP JUMPDEST PUSH1 0x40 MLOAD PUSH4 0x5297473 PUSH1 0xE5 SHL DUP2 MSTORE PUSH1 0x1 PUSH1 0x1 PUSH1 0xA0 SHL SUB DUP5 DUP2 AND PUSH1 0x4 DUP4 ADD MSTORE PUSH1 0x24 DUP3 ADD DUP5 SWAP1 MSTORE DUP6 AND SWAP1 PUSH4 0xA52E8E60 SWAP1 PUSH1 0x44 ADD PUSH2 0xD50 JUMP JUMPDEST PUSH1 0x0 PUSH2 0xE35 PUSH4 0x1B9E297D PUSH1 0xE1 SHL PUSH2 0x2303 JUMP JUMPDEST PUSH1 0x40 MLOAD DUP3 ISZERO ISZERO DUP2 MSTORE PUSH1 0x1 PUSH1 0x1 PUSH1 0xA0 SHL SUB DUP5 AND SWAP1 CALLER SWAP1 PUSH32 0x5B993D7A32D62133A02F02D99F7369FF289D4574F855412034F59ADB739615EC SWAP1 PUSH1 0x20 ADD PUSH1 0x40 MLOAD DUP1 SWAP2 SUB SWAP1 LOG3 PUSH1 0x40 MLOAD PUSH4 0xC79FD49B PUSH1 0xE0 SHL DUP2 MSTORE PUSH1 0x46 PUSH1 0x4 DUP3 ADD MSTORE PUSH1 0x1 PUSH1 0x1 PUSH1 0xA0 SHL SUB DUP5 AND PUSH1 0x24 DUP3 ADD MSTORE DUP3 ISZERO ISZERO PUSH1 0x44 DUP3 ADD MSTORE PUSH20 0x0 SWAP1 PUSH4 0xC79FD49B SWAP1 PUSH1 0x64 ADD PUSH1 0x20 PUSH1 0x40 MLOAD DUP1 DUP4 SUB DUP2 DUP7 GAS DELEGATECALL ISZERO DUP1 ISZERO PUSH2 0xEDE JUMPI RETURNDATASIZE PUSH1 0x0 DUP1 RETURNDATACOPY RETURNDATASIZE PUSH1 0x0 REVERT JUMPDEST POP POP POP POP PUSH1 0x40 MLOAD RETURNDATASIZE PUSH1 0x1F NOT PUSH1 0x1F DUP3 ADD AND DUP3 ADD DUP1 PUSH1 0x40 MSTORE POP DUP2 ADD SWAP1 PUSH2 0x972 SWAP2 SWAP1 PUSH2 0x3963 JUMP JUMPDEST PUSH1 0x0 PUSH2 0xDD6 PUSH1 0x49 SLOAD PUSH2 0xFFFF AND SWAP1 JUMP JUMPDEST PUSH1 0x0 PUSH1 0x1 PUSH1 0x1 PUSH1 0xA0 SHL SUB PUSH32 0x0 AND ADDRESS SUB PUSH2 0xF5B JUMPI PUSH1 0x40 MLOAD PUSH3 0x461BCD PUSH1 0xE5 SHL DUP2 MSTORE PUSH1 0x4 ADD PUSH2 0xAC4 SWAP1 PUSH2 0x3AD4 JUMP JUMPDEST PUSH32 0x0 PUSH1 0x1 PUSH1 0x1 PUSH1 0xA0 SHL SUB AND PUSH2 0xF8D PUSH2 0x25DE JUMP JUMPDEST PUSH1 0x1 PUSH1 0x1 PUSH1 0xA0 SHL SUB AND EQ PUSH2 0xFB3 JUMPI PUSH1 0x40 MLOAD PUSH3 0x461BCD PUSH1 0xE5 SHL DUP2 MSTORE PUSH1 0x4 ADD PUSH2 0xAC4 SWAP1 PUSH2 0x3B03 JUMP JUMPDEST PUSH1 0x0 PUSH2 0xFC2 PUSH1 0x49 SLOAD PUSH2 0xFFFF AND SWAP1 JUMP JUMPDEST PUSH2 0xFFFF AND GT PUSH2 0x1013 JUMPI PUSH1 0x40 MLOAD PUSH3 0x461BCD PUSH1 0xE5 SHL DUP2 MSTORE PUSH1 0x20 PUSH1 0x4 DUP3 ADD MSTORE PUSH1 0x18 PUSH1 0x24 DUP3 ADD MSTORE PUSH32 0x436F6E7472616374204E6F7420496E697469616C697A65640000000000000000 PUSH1 0x44 DUP3 ADD MSTORE PUSH1 0x64 ADD PUSH2 0xAC4 JUMP JUMPDEST PUSH2 0x1023 PUSH4 0x225BF2F9 PUSH1 0xE1 SHL PUSH2 0x25FF JUMP JUMPDEST PUSH2 0x1067 JUMPI PUSH1 0x40 MLOAD PUSH3 0x461BCD PUSH1 0xE5 SHL DUP2 MSTORE PUSH1 0x20 PUSH1 0x4 DUP3 ADD MSTORE PUSH1 0x15 PUSH1 0x24 DUP3 ADD MSTORE PUSH21 0x29B2BA29B0B332A6B7B232902337B93134B23232B7 PUSH1 0x59 SHL PUSH1 0x44 DUP3 ADD MSTORE PUSH1 0x64 ADD PUSH2 0xAC4 JUMP JUMPDEST PUSH1 0x3 DUP1 SLOAD PUSH1 0xFF PUSH1 0xA0 SHL NOT AND PUSH1 0x1 PUSH1 0xA0 SHL DUP5 ISZERO ISZERO MUL OR SWAP1 SSTORE PUSH1 0x2 SLOAD ADDRESS CALLER PUSH1 0x1 PUSH1 0x1 PUSH1 0xA0 SHL SUB AND PUSH32 0xDD452A31D2E164A1EA436C084842C27D24AE2548A575A869F71B05A4ED16243F DUP6 PUSH1 0x40 MLOAD PUSH2 0x10BF SWAP2 ISZERO ISZERO DUP2 MSTORE PUSH1 0x20 ADD SWAP1 JUMP JUMPDEST PUSH1 0x40 MLOAD DUP1 SWAP2 SUB SWAP1 LOG4 POP DUP1 JUMPDEST SWAP2 SWAP1 POP JUMP JUMPDEST PUSH1 0x0 PUSH1 0x1 PUSH1 0x1 PUSH1 0xA0 SHL SUB PUSH32 0x0 AND ADDRESS SUB PUSH2 0x1119 JUMPI PUSH1 0x40 MLOAD PUSH3 0x461BCD PUSH1 0xE5 SHL DUP2 MSTORE PUSH1 0x4 ADD PUSH2 0xAC4 SWAP1 PUSH2 0x3AD4 JUMP JUMPDEST PUSH32 0x0 PUSH1 0x1 PUSH1 0x1 PUSH1 0xA0 SHL SUB AND PUSH2 0x114B PUSH2 0x25DE JUMP JUMPDEST PUSH1 0x1 PUSH1 0x1 PUSH1 0xA0 SHL SUB AND EQ PUSH2 0x1171 JUMPI PUSH1 0x40 MLOAD PUSH3 0x461BCD PUSH1 0xE5 SHL DUP2 MSTORE PUSH1 0x4 ADD PUSH2 0xAC4 SWAP1 PUSH2 0x3B03 JUMP JUMPDEST PUSH1 0x3 SLOAD PUSH1 0x1 PUSH1 0xA0 SHL SWAP1 DIV PUSH1 0xFF AND ISZERO PUSH2 0x119B JUMPI PUSH1 0x40 MLOAD PUSH3 0x461BCD PUSH1 0xE5 SHL DUP2 MSTORE PUSH1 0x4 ADD PUSH2 0xAC4 SWAP1 PUSH2 0x3B31 JUMP JUMPDEST PUSH2 0x11AB PUSH4 0x1239AF87 PUSH1 0xE2 SHL PUSH2 0x25FF JUMP JUMPDEST PUSH2 0x11F7 JUMPI PUSH1 0x40 MLOAD PUSH3 0x461BCD PUSH1 0xE5 SHL DUP2 MSTORE PUSH1 0x20 PUSH1 0x4 DUP3 ADD MSTORE PUSH1 0x1A PUSH1 0x24 DUP3 ADD MSTORE PUSH32 0x5365745570677261646553746174757320466F7262696464656E000000000000 PUSH1 0x44 DUP3 ADD MSTORE PUSH1 0x64 ADD PUSH2 0xAC4 JUMP JUMPDEST PUSH2 0x11FF PUSH2 0x2744 JUMP JUMPDEST PUSH2 0x124B JUMPI PUSH1 0x40 MLOAD PUSH3 0x461BCD PUSH1 0xE5 SHL DUP2 MSTORE PUSH1 0x20 PUSH1 0x4 DUP3 ADD MSTORE PUSH1 0x17 PUSH1 0x24 DUP3 ADD MSTORE PUSH32 0x5265616C6D205570677261646520466F7262696464656E000000000000000000 PUSH1 0x44 DUP3 ADD MSTORE PUSH1 0x64 ADD PUSH2 0xAC4 JUMP JUMPDEST PUSH1 0x3 DUP1 SLOAD PUSH1 0xFF PUSH1 0xA8 SHL NOT AND PUSH1 0x1 PUSH1 0xA8 SHL DUP5 ISZERO ISZERO MUL OR SWAP1 SSTORE PUSH1 0x2 SLOAD ADDRESS CALLER PUSH1 0x1 PUSH1 0x1 PUSH1 0xA0 SHL SUB AND PUSH32 0xE9F97AD94C2BA252DCFC525E004F608AC5CB886955D8FC87D9E0EE070A698C56 DUP6 PUSH1 0x40 MLOAD PUSH2 0x10BF SWAP2 ISZERO ISZERO DUP2 MSTORE PUSH1 0x20 ADD SWAP1 JUMP JUMPDEST PUSH1 0x0 PUSH2 0x12B5 PUSH4 0x4A5E42B1 PUSH1 0xE0 SHL PUSH2 0x2303 JUMP JUMPDEST PUSH1 0x40 MLOAD PUSH4 0xBBB9B43D PUSH1 0xE0 SHL DUP2 MSTORE PUSH1 0x46 PUSH1 0x4 DUP3 ADD MSTORE PUSH1 0x1 PUSH1 0x1 PUSH1 0xA0 SHL SUB DUP4 AND PUSH1 0x24 DUP3 ADD MSTORE PUSH1 0x0 SWAP1 PUSH20 0x0 SWAP1 PUSH4 0xBBB9B43D SWAP1 PUSH1 0x44 ADD PUSH1 0x20 PUSH1 0x40 MLOAD DUP1 DUP4 SUB DUP2 DUP7 GAS DELEGATECALL ISZERO DUP1 ISZERO PUSH2 0x1317 JUMPI RETURNDATASIZE PUSH1 0x0 DUP1 RETURNDATACOPY RETURNDATASIZE PUSH1 0x0 REVERT JUMPDEST POP POP POP POP PUSH1 0x40 MLOAD RETURNDATASIZE PUSH1 0x1F NOT PUSH1 0x1F DUP3 ADD AND DUP3 ADD DUP1 PUSH1 0x40 MSTORE POP DUP2 ADD SWAP1 PUSH2 0x133B SWAP2 SWAP1 PUSH2 0x3B68 JUMP JUMPDEST SWAP1 POP DUP1 PUSH1 0x1 PUSH1 0x1 PUSH1 0xA0 SHL SUB AND DUP4 PUSH1 0x1 PUSH1 0x1 PUSH1 0xA0 SHL SUB AND PUSH2 0x1358 CALLER SWAP1 JUMP JUMPDEST PUSH1 0x1 PUSH1 0x1 PUSH1 0xA0 SHL SUB AND PUSH32 0x9B4F55639E5E283319BAEE5BC4E69A5625A8E3A1CC004AF968F4FEE725022027 PUSH1 0x40 MLOAD PUSH1 0x40 MLOAD DUP1 SWAP2 SUB SWAP1 LOG4 POP PUSH1 0x1 SWAP3 SWAP2 POP POP JUMP JUMPDEST PUSH1 0x0 ADDRESS PUSH1 0x1 PUSH1 0x1 PUSH1 0xA0 SHL SUB PUSH32 0x0 AND EQ PUSH2 0x1410 JUMPI PUSH1 0x40 MLOAD PUSH3 0x461BCD PUSH1 0xE5 SHL DUP2 MSTORE PUSH1 0x20 PUSH1 0x4 DUP3 ADD MSTORE PUSH1 0x1D PUSH1 0x24 DUP3 ADD MSTORE PUSH32 0x496C6C6567616C20436F6E74726163742044656C656761746563616C6C000000 PUSH1 0x44 DUP3 ADD MSTORE PUSH1 0x64 ADD PUSH2 0xAC4 JUMP JUMPDEST POP PUSH1 0x0 DUP1 MLOAD PUSH1 0x20 PUSH2 0x43DF DUP4 CODECOPY DUP2 MLOAD SWAP2 MSTORE SWAP1 JUMP JUMPDEST PUSH1 0x0 PUSH2 0x1436 DUP5 PUSH4 0x2B2DF8FD PUSH1 0xE1 SHL PUSH2 0x2373 JUMP JUMPDEST PUSH1 0x40 MLOAD PUSH4 0x2710B17B PUSH1 0xE2 SHL DUP2 MSTORE PUSH1 0x1 PUSH1 0x1 PUSH1 0xA0 SHL SUB DUP6 AND SWAP1 PUSH4 0x9C42C5EC SWAP1 PUSH2 0x9BD SWAP1 DUP7 SWAP1 DUP7 SWAP1 PUSH1 0x4 ADD PUSH2 0x3B85 JUMP JUMPDEST PUSH1 0x0 PUSH2 0xDD6 PUSH2 0x25DE JUMP JUMPDEST PUSH1 0x0 PUSH2 0x1481 DUP5 PUSH4 0x622110E1 PUSH1 0xE0 SHL PUSH2 0x2373 JUMP JUMPDEST PUSH1 0x40 MLOAD PUSH4 0xE9DBEBBD PUSH1 0xE0 SHL DUP2 MSTORE PUSH1 0x1 PUSH1 0x1 PUSH1 0xA0 SHL SUB DUP6 AND SWAP1 PUSH4 0xE9DBEBBD SWAP1 PUSH2 0x9BD SWAP1 DUP7 SWAP1 DUP7 SWAP1 PUSH1 0x4 ADD PUSH2 0x3BF5 JUMP JUMPDEST PUSH1 0x0 PUSH2 0x7EC DUP3 PUSH1 0x46 PUSH1 0x0 ADD PUSH1 0x0 DUP6 PUSH1 0x1 PUSH1 0x1 PUSH1 0xA0 SHL SUB AND PUSH4 0x1083F761 PUSH1 0x40 MLOAD DUP2 PUSH4 0xFFFFFFFF AND PUSH1 0xE0 SHL DUP2 MSTORE PUSH1 0x4 ADD PUSH1 0x20 PUSH1 0x40 MLOAD DUP1 DUP4 SUB DUP2 DUP7 GAS STATICCALL ISZERO DUP1 ISZERO PUSH2 0x14FA JUMPI RETURNDATASIZE PUSH1 0x0 DUP1 RETURNDATACOPY RETURNDATASIZE PUSH1 0x0 REVERT JUMPDEST POP POP POP POP PUSH1 0x40 MLOAD RETURNDATASIZE PUSH1 0x1F NOT PUSH1 0x1F DUP3 ADD AND DUP3 ADD DUP1 PUSH1 0x40 MSTORE POP DUP2 ADD SWAP1 PUSH2 0x151E SWAP2 SWAP1 PUSH2 0x3B68 JUMP JUMPDEST PUSH1 0x1 PUSH1 0x1 PUSH1 0xA0 SHL SUB AND DUP2 MSTORE PUSH1 0x20 DUP2 ADD SWAP2 SWAP1 SWAP2 MSTORE PUSH1 0x40 ADD PUSH1 0x0 KECCAK256 SWAP1 PUSH2 0x2882 JUMP JUMPDEST PUSH1 0x60 PUSH1 0x1 PUSH1 0x1 PUSH1 0xA0 SHL SUB PUSH32 0x0 AND ADDRESS SUB PUSH2 0x1587 JUMPI PUSH1 0x40 MLOAD PUSH3 0x461BCD PUSH1 0xE5 SHL DUP2 MSTORE PUSH1 0x4 ADD PUSH2 0xAC4 SWAP1 PUSH2 0x3AD4 JUMP JUMPDEST PUSH32 0x0 PUSH1 0x1 PUSH1 0x1 PUSH1 0xA0 SHL SUB AND PUSH2 0x15B9 PUSH2 0x25DE JUMP JUMPDEST PUSH1 0x1 PUSH1 0x1 PUSH1 0xA0 SHL SUB AND EQ PUSH2 0x15DF JUMPI PUSH1 0x40 MLOAD PUSH3 0x461BCD PUSH1 0xE5 SHL DUP2 MSTORE PUSH1 0x4 ADD PUSH2 0xAC4 SWAP1 PUSH2 0x3B03 JUMP JUMPDEST PUSH1 0x3 SLOAD PUSH1 0x1 PUSH1 0xA0 SHL SWAP1 DIV PUSH1 0xFF AND ISZERO PUSH2 0x1609 JUMPI PUSH1 0x40 MLOAD PUSH3 0x461BCD PUSH1 0xE5 SHL DUP2 MSTORE PUSH1 0x4 ADD PUSH2 0xAC4 SWAP1 PUSH2 0x3B31 JUMP JUMPDEST PUSH1 0x3 SLOAD PUSH1 0x1 PUSH1 0xA8 SHL SWAP1 DIV PUSH1 0xFF AND PUSH2 0x165A JUMPI PUSH1 0x40 MLOAD PUSH3 0x461BCD PUSH1 0xE5 SHL DUP2 MSTORE PUSH1 0x20 PUSH1 0x4 DUP3 ADD MSTORE PUSH1 0x15 PUSH1 0x24 DUP3 ADD MSTORE PUSH21 0x155C19DC9859194810D85B1B0814995A9958DD1959 PUSH1 0x5A SHL PUSH1 0x44 DUP3 ADD MSTORE PUSH1 0x64 ADD PUSH2 0xAC4 JUMP JUMPDEST PUSH2 0x1663 DUP5 PUSH2 0x28A4 JUMP JUMPDEST PUSH2 0xA00 DUP5 DUP5 DUP5 PUSH2 0x296B JUMP JUMPDEST PUSH1 0x3 SLOAD PUSH1 0x1 PUSH1 0xA0 SHL SWAP1 DIV PUSH1 0xFF AND ISZERO PUSH2 0x1698 JUMPI PUSH1 0x40 MLOAD PUSH3 0x461BCD PUSH1 0xE5 SHL DUP2 MSTORE PUSH1 0x4 ADD PUSH2 0xAC4 SWAP1 PUSH2 0x3B31 JUMP JUMPDEST PUSH2 0x16A8 PUSH4 0x756AF45F PUSH1 0xE0 SHL PUSH2 0x25FF JUMP JUMPDEST PUSH2 0x16F4 JUMPI PUSH1 0x40 MLOAD PUSH3 0x461BCD PUSH1 0xE5 SHL DUP2 MSTORE PUSH1 0x20 PUSH1 0x4 DUP3 ADD MSTORE PUSH1 0x1A PUSH1 0x24 DUP3 ADD MSTORE PUSH32 0x57697468647261772042616C616E636520466F7262696464656E000000000000 PUSH1 0x44 DUP3 ADD MSTORE PUSH1 0x64 ADD PUSH2 0xAC4 JUMP JUMPDEST PUSH1 0x40 MLOAD PUSH1 0x1 PUSH1 0x1 PUSH1 0xA0 SHL SUB DUP3 AND SWAP1 SELFBALANCE DUP1 ISZERO PUSH2 0x8FC MUL SWAP2 PUSH1 0x0 DUP2 DUP2 DUP2 DUP6 DUP9 DUP9 CALL SWAP4 POP POP POP POP ISZERO DUP1 ISZERO PUSH2 0x1729 JUMPI RETURNDATASIZE PUSH1 0x0 DUP1 RETURNDATACOPY RETURNDATASIZE PUSH1 0x0 REVERT JUMPDEST POP POP JUMP JUMPDEST PUSH1 0x60 PUSH2 0x1740 DUP5 PUSH4 0x3D04CA0F PUSH1 0xE1 SHL PUSH2 0x2373 JUMP JUMPDEST PUSH1 0x40 MLOAD PUSH4 0x3862AE01 PUSH1 0xE1 SHL DUP2 MSTORE PUSH1 0x1 PUSH1 0x1 PUSH1 0xA0 SHL SUB DUP6 AND SWAP1 PUSH4 0x70C55C02 SWAP1 PUSH2 0x176E SWAP1 DUP7 SWAP1 DUP7 SWAP1 PUSH1 0x4 ADD PUSH2 0x3C41 JUMP JUMPDEST PUSH1 0x0 PUSH1 0x40 MLOAD DUP1 DUP4 SUB DUP2 PUSH1 0x0 DUP8 GAS CALL ISZERO DUP1 ISZERO PUSH2 0x178D JUMPI RETURNDATASIZE PUSH1 0x0 DUP1 RETURNDATACOPY RETURNDATASIZE PUSH1 0x0 REVERT JUMPDEST POP POP POP POP PUSH1 0x40 MLOAD RETURNDATASIZE PUSH1 0x0 DUP3 RETURNDATACOPY PUSH1 0x1F RETURNDATASIZE SWAP1 DUP2 ADD PUSH1 0x1F NOT AND DUP3 ADD PUSH1 0x40 MSTORE PUSH2 0xA00 SWAP2 SWAP1 DUP2 ADD SWAP1 PUSH2 0x3CA6 JUMP JUMPDEST PUSH1 0x0 PUSH2 0xDD6 ADDRESS PUSH2 0x2BC1 JUMP JUMPDEST PUSH1 0x0 PUSH2 0x7EC PUSH1 0x47 DUP4 PUSH2 0x2882 JUMP JUMPDEST PUSH1 0x1 PUSH1 0x1 PUSH1 0xA0 SHL SUB PUSH32 0x0 AND ADDRESS SUB PUSH2 0x1815 JUMPI PUSH1 0x40 MLOAD PUSH3 0x461BCD PUSH1 0xE5 SHL DUP2 MSTORE PUSH1 0x4 ADD PUSH2 0xAC4 SWAP1 PUSH2 0x3AD4 JUMP JUMPDEST PUSH32 0x0 PUSH1 0x1 PUSH1 0x1 PUSH1 0xA0 SHL SUB AND PUSH2 0x1847 PUSH2 0x25DE JUMP JUMPDEST PUSH1 0x1 PUSH1 0x1 PUSH1 0xA0 SHL SUB AND EQ PUSH2 0x186D JUMPI PUSH1 0x40 MLOAD PUSH3 0x461BCD PUSH1 0xE5 SHL DUP2 MSTORE PUSH1 0x4 ADD PUSH2 0xAC4 SWAP1 PUSH2 0x3B03 JUMP JUMPDEST CALLER PUSH2 0x1876 PUSH2 0x2C00 JUMP JUMPDEST PUSH1 0x1 PUSH1 0x1 PUSH1 0xA0 SHL SUB AND EQ PUSH2 0x18C4 JUMPI PUSH1 0x40 MLOAD PUSH3 0x461BCD PUSH1 0xE5 SHL DUP2 MSTORE PUSH1 0x20 PUSH1 0x4 DUP3 ADD MSTORE PUSH1 0x15 PUSH1 0x24 DUP3 ADD MSTORE PUSH21 0x10D85B1B195C88139BDD08105D5D1A1BDC9A5E9959 PUSH1 0x5A SHL PUSH1 0x44 DUP3 ADD MSTORE PUSH1 0x64 ADD PUSH2 0xAC4 JUMP JUMPDEST PUSH1 0x49 SLOAD PUSH3 0x10000 SWAP1 DIV PUSH1 0xFF AND ISZERO DUP1 DUP1 ISZERO PUSH2 0x18E6 JUMPI POP PUSH1 0x49 SLOAD PUSH1 0x1 PUSH2 0xFFFF SWAP1 SWAP2 AND LT JUMPDEST DUP1 PUSH2 0x1901 JUMPI POP ADDRESS EXTCODESIZE ISZERO DUP1 ISZERO PUSH2 0x1901 JUMPI POP PUSH1 0x49 SLOAD PUSH2 0xFFFF AND PUSH1 0x1 EQ JUMPDEST PUSH2 0x194D JUMPI PUSH1 0x40 MLOAD PUSH3 0x461BCD PUSH1 0xE5 SHL DUP2 MSTORE PUSH1 0x20 PUSH1 0x4 DUP3 ADD MSTORE PUSH1 0x1C PUSH1 0x24 DUP3 ADD MSTORE PUSH32 0x436F6E747261637420416C726561647920496E697469616C697A656400000000 PUSH1 0x44 DUP3 ADD MSTORE PUSH1 0x64 ADD PUSH2 0xAC4 JUMP JUMPDEST PUSH1 0x49 DUP1 SLOAD PUSH2 0xFFFF NOT AND PUSH1 0x1 OR SWAP1 SSTORE DUP1 ISZERO PUSH2 0x1973 JUMPI PUSH1 0x49 DUP1 SLOAD PUSH3 0xFF0000 NOT AND PUSH3 0x10000 OR SWAP1 SSTORE JUMPDEST PUSH1 0x0 PUSH2 0x1982 PUSH1 0x40 DUP5 ADD DUP5 PUSH2 0x3D36 JUMP JUMPDEST PUSH1 0x40 MLOAD PUSH1 0x20 ADD PUSH2 0x1993 SWAP3 SWAP2 SWAP1 PUSH2 0x3D83 JUMP JUMPDEST PUSH1 0x40 DUP1 MLOAD PUSH1 0x1F NOT DUP2 DUP5 SUB ADD DUP2 MSTORE SWAP2 SWAP1 MSTORE DUP1 MLOAD PUSH1 0x20 SWAP1 SWAP2 ADD KECCAK256 SWAP1 POP PUSH2 0x19DD PUSH2 0x19BA DUP5 DUP1 PUSH2 0x3D36 JUMP JUMPDEST PUSH2 0x19C7 PUSH1 0x20 DUP8 ADD DUP8 PUSH2 0x3D36 JUMP JUMPDEST DUP6 PUSH2 0x19D8 PUSH1 0x80 DUP11 ADD PUSH1 0x60 DUP12 ADD PUSH2 0x31FB JUMP JUMPDEST PUSH2 0x2C28 JUMP JUMPDEST PUSH1 0x0 DUP1 SLOAD PUSH1 0x1 SLOAD PUSH1 0x2 SLOAD PUSH1 0x40 MLOAD PUSH4 0x97CA328D PUSH1 0xE0 SHL DUP2 MSTORE DUP5 SWAP4 PUSH20 0x0 SWAP4 PUSH4 0x97CA328D SWAP4 PUSH2 0x1A2F SWAP4 PUSH1 0x4 ADD SWAP3 DUP4 MSTORE PUSH1 0x20 DUP4 ADD SWAP2 SWAP1 SWAP2 MSTORE PUSH1 0x40 DUP3 ADD MSTORE PUSH1 0x60 ADD SWAP1 JUMP JUMPDEST PUSH1 0x0 PUSH1 0x40 MLOAD DUP1 DUP4 SUB DUP2 DUP7 GAS DELEGATECALL ISZERO DUP1 ISZERO PUSH2 0x1A4C JUMPI RETURNDATASIZE PUSH1 0x0 DUP1 RETURNDATACOPY RETURNDATASIZE PUSH1 0x0 REVERT JUMPDEST POP POP POP POP PUSH1 0x40 MLOAD RETURNDATASIZE PUSH1 0x0 DUP3 RETURNDATACOPY PUSH1 0x1F RETURNDATASIZE SWAP1 DUP2 ADD PUSH1 0x1F NOT AND DUP3 ADD PUSH1 0x40 MSTORE PUSH2 0x1A74 SWAP2 SWAP1 DUP2 ADD SWAP1 PUSH2 0x3ECF JUMP JUMPDEST PUSH1 0x3 SLOAD SWAP2 SWAP4 POP SWAP2 POP PUSH1 0x1 PUSH1 0x1 PUSH1 0xA0 SHL SUB AND PUSH4 0xF1DF49DA PUSH2 0x1A97 PUSH1 0x80 DUP9 ADD DUP9 PUSH2 0x3D36 JUMP JUMPDEST DUP6 DUP6 PUSH1 0x40 MLOAD DUP6 PUSH4 0xFFFFFFFF AND PUSH1 0xE0 SHL DUP2 MSTORE PUSH1 0x4 ADD PUSH2 0x1AB8 SWAP5 SWAP4 SWAP3 SWAP2 SWAP1 PUSH2 0x3FAA JUMP JUMPDEST PUSH1 0x20 PUSH1 0x40 MLOAD DUP1 DUP4 SUB DUP2 PUSH1 0x0 DUP8 GAS CALL ISZERO DUP1 ISZERO PUSH2 0x1AD7 JUMPI RETURNDATASIZE PUSH1 0x0 DUP1 RETURNDATACOPY RETURNDATASIZE PUSH1 0x0 REVERT JUMPDEST POP POP POP POP PUSH1 0x40 MLOAD RETURNDATASIZE PUSH1 0x1F NOT PUSH1 0x1F DUP3 ADD AND DUP3 ADD DUP1 PUSH1 0x40 MSTORE POP DUP2 ADD SWAP1 PUSH2 0x1AFB SWAP2 SWAP1 PUSH2 0x393F JUMP JUMPDEST POP PUSH2 0x1B04 PUSH2 0x25DE JUMP JUMPDEST PUSH1 0x1 PUSH1 0x1 PUSH1 0xA0 SHL SUB AND ADDRESS CALLER PUSH32 0xF851A1E85477B818FC72AD517EA622CC316F10F67D61C9E740ADC151A8B41394 PUSH2 0x1B3A DUP10 DUP1 PUSH2 0x3D36 JUMP JUMPDEST PUSH2 0x1B47 PUSH1 0x20 DUP13 ADD DUP13 PUSH2 0x3D36 JUMP JUMPDEST DUP11 PUSH2 0x1B55 PUSH1 0x49 SLOAD PUSH2 0xFFFF AND SWAP1 JUMP JUMPDEST PUSH1 0x40 MLOAD PUSH2 0x1B67 SWAP7 SWAP6 SWAP5 SWAP4 SWAP3 SWAP2 SWAP1 PUSH2 0x40B6 JUMP JUMPDEST PUSH1 0x40 MLOAD DUP1 SWAP2 SUB SWAP1 LOG4 POP POP POP DUP1 ISZERO PUSH2 0x1729 JUMPI PUSH1 0x49 DUP1 SLOAD PUSH3 0xFF0000 NOT AND SWAP1 SSTORE POP POP JUMP JUMPDEST PUSH1 0x0 PUSH2 0x1B9A PUSH4 0xB484C889 PUSH1 0xE0 SHL PUSH2 0x2303 JUMP JUMPDEST PUSH1 0x3 SLOAD PUSH1 0x44 SLOAD PUSH1 0x40 MLOAD PUSH4 0x8D9F7E3 PUSH1 0xE0 SHL DUP2 MSTORE PUSH1 0x0 SWAP3 DUP4 SWAP3 PUSH20 0x0 SWAP3 PUSH4 0x8D9F7E3 SWAP3 PUSH2 0x1BF0 SWAP3 PUSH1 0x46 SWAP3 DUP11 SWAP3 PUSH1 0x1 PUSH1 0x1 PUSH1 0xA0 SHL SUB SWAP1 DUP2 AND SWAP3 AND SWAP1 PUSH1 0x45 SWAP1 PUSH1 0x4 ADD PUSH2 0x41BD JUMP JUMPDEST PUSH1 0x40 DUP1 MLOAD DUP1 DUP4 SUB DUP2 DUP7 GAS DELEGATECALL ISZERO DUP1 ISZERO PUSH2 0x1C0C JUMPI RETURNDATASIZE PUSH1 0x0 DUP1 RETURNDATACOPY RETURNDATASIZE PUSH1 0x0 REVERT JUMPDEST POP POP POP POP PUSH1 0x40 MLOAD RETURNDATASIZE PUSH1 0x1F NOT PUSH1 0x1F DUP3 ADD AND DUP3 ADD DUP1 PUSH1 0x40 MSTORE POP DUP2 ADD SWAP1 PUSH2 0x1C30 SWAP2 SWAP1 PUSH2 0x4288 JUMP JUMPDEST SWAP1 SWAP3 POP SWAP1 POP PUSH2 0x1C45 PUSH1 0x60 DUP6 ADD PUSH1 0x40 DUP7 ADD PUSH2 0x31FB JUMP JUMPDEST PUSH1 0x1 PUSH1 0x1 PUSH1 0xA0 SHL SUB AND DUP3 PUSH1 0x1 PUSH1 0x1 PUSH1 0xA0 SHL SUB AND PUSH2 0x1C5F CALLER SWAP1 JUMP JUMPDEST PUSH1 0x40 MLOAD PUSH1 0x1 PUSH1 0x1 PUSH1 0xA0 SHL SUB DUP6 DUP2 AND DUP3 MSTORE SWAP2 SWAP1 SWAP2 AND SWAP1 PUSH32 0xA585F587BCFC3F76ACEC7DB143AA51E1BE0B5E75BEE741689D55AF27CBED7C1D SWAP1 PUSH1 0x20 ADD PUSH1 0x40 MLOAD DUP1 SWAP2 SUB SWAP1 LOG4 POP SWAP3 SWAP2 POP POP JUMP JUMPDEST PUSH1 0x0 DUP2 PUSH1 0x1 PUSH1 0x1 PUSH1 0xA0 SHL SUB AND PUSH4 0x4CFB9949 PUSH1 0x40 MLOAD DUP2 PUSH4 0xFFFFFFFF AND PUSH1 0xE0 SHL DUP2 MSTORE PUSH1 0x4 ADD PUSH1 0x20 PUSH1 0x40 MLOAD DUP1 DUP4 SUB DUP2 DUP7 GAS STATICCALL ISZERO DUP1 ISZERO PUSH2 0x1CE8 JUMPI RETURNDATASIZE PUSH1 0x0 DUP1 RETURNDATACOPY RETURNDATASIZE PUSH1 0x0 REVERT JUMPDEST POP POP POP POP PUSH1 0x40 MLOAD RETURNDATASIZE PUSH1 0x1F NOT PUSH1 0x1F DUP3 ADD AND DUP3 ADD DUP1 PUSH1 0x40 MSTORE POP DUP2 ADD SWAP1 PUSH2 0x7EC SWAP2 SWAP1 PUSH2 0x3963 JUMP JUMPDEST PUSH1 0x0 PUSH2 0x1D1E PUSH4 0xD312998F PUSH1 0xE0 SHL PUSH2 0x2303 JUMP JUMPDEST PUSH1 0x40 MLOAD PUSH4 0x1128DEBD PUSH1 0xE3 SHL DUP2 MSTORE PUSH1 0x46 PUSH1 0x4 DUP3 ADD MSTORE PUSH1 0x1 PUSH1 0x1 PUSH1 0xA0 SHL SUB DUP4 AND PUSH1 0x24 DUP3 ADD MSTORE PUSH1 0x0 SWAP1 DUP2 SWAP1 PUSH20 0x0 SWAP1 PUSH4 0x8946F5E8 SWAP1 PUSH1 0x44 ADD PUSH1 0x40 DUP1 MLOAD DUP1 DUP4 SUB DUP2 DUP7 GAS DELEGATECALL ISZERO DUP1 ISZERO PUSH2 0x1D81 JUMPI RETURNDATASIZE PUSH1 0x0 DUP1 RETURNDATACOPY RETURNDATASIZE PUSH1 0x0 REVERT JUMPDEST POP POP POP POP PUSH1 0x40 MLOAD RETURNDATASIZE PUSH1 0x1F NOT PUSH1 0x1F DUP3 ADD AND DUP3 ADD DUP1 PUSH1 0x40 MSTORE POP DUP2 ADD SWAP1 PUSH2 0x1DA5 SWAP2 SWAP1 PUSH2 0x42B7 JUMP JUMPDEST SWAP2 POP SWAP2 POP DUP1 PUSH1 0x1 PUSH1 0x1 PUSH1 0xA0 SHL SUB AND DUP5 PUSH1 0x1 PUSH1 0x1 PUSH1 0xA0 SHL SUB AND PUSH2 0x1DC4 CALLER SWAP1 JUMP JUMPDEST PUSH1 0x1 PUSH1 0x1 PUSH1 0xA0 SHL SUB AND PUSH32 0x52FA4983A7FAF930EA4D4238E22FCC42E87608BAF5116306461B078BB1ED3406 PUSH1 0x40 MLOAD PUSH1 0x40 MLOAD DUP1 SWAP2 SUB SWAP1 LOG4 POP SWAP3 SWAP2 POP POP JUMP JUMPDEST PUSH1 0x0 PUSH1 0x1 PUSH1 0x1 PUSH1 0xA0 SHL SUB PUSH32 0x0 AND ADDRESS SUB PUSH2 0x1E4A JUMPI PUSH1 0x40 MLOAD PUSH3 0x461BCD PUSH1 0xE5 SHL DUP2 MSTORE PUSH1 0x4 ADD PUSH2 0xAC4 SWAP1 PUSH2 0x3AD4 JUMP JUMPDEST PUSH32 0x0 PUSH1 0x1 PUSH1 0x1 PUSH1 0xA0 SHL SUB AND PUSH2 0x1E7C PUSH2 0x25DE JUMP JUMPDEST PUSH1 0x1 PUSH1 0x1 PUSH1 0xA0 SHL SUB AND EQ PUSH2 0x1EA2 JUMPI PUSH1 0x40 MLOAD PUSH3 0x461BCD PUSH1 0xE5 SHL DUP2 MSTORE PUSH1 0x4 ADD PUSH2 0xAC4 SWAP1 PUSH2 0x3B03 JUMP JUMPDEST PUSH1 0x3 SLOAD PUSH1 0x1 PUSH1 0xA0 SHL SWAP1 DIV PUSH1 0xFF AND ISZERO PUSH2 0x1ECC JUMPI PUSH1 0x40 MLOAD PUSH3 0x461BCD PUSH1 0xE5 SHL DUP2 MSTORE PUSH1 0x4 ADD PUSH2 0xAC4 SWAP1 PUSH2 0x3B31 JUMP JUMPDEST PUSH2 0x1EDC PUSH4 0xD9DC1F19 PUSH1 0xE0 SHL PUSH2 0x25FF JUMP JUMPDEST PUSH2 0x1F28 JUMPI PUSH1 0x40 MLOAD PUSH3 0x461BCD PUSH1 0xE5 SHL DUP2 MSTORE PUSH1 0x20 PUSH1 0x4 DUP3 ADD MSTORE PUSH1 0x17 PUSH1 0x24 DUP3 ADD MSTORE PUSH32 0x5365744C6F63616C41646D696E20466F7262696464656E000000000000000000 PUSH1 0x44 DUP3 ADD MSTORE PUSH1 0x64 ADD PUSH2 0xAC4 JUMP JUMPDEST PUSH1 0x1 PUSH1 0x1 PUSH1 0xA0 SHL SUB DUP3 AND PUSH2 0x1F70 JUMPI PUSH1 0x40 MLOAD PUSH3 0x461BCD PUSH1 0xE5 SHL DUP2 MSTORE PUSH1 0x20 PUSH1 0x4 DUP3 ADD MSTORE PUSH1 0xF PUSH1 0x24 DUP3 ADD MSTORE PUSH15 0x1059191C995CDCC8125B9D985B1A59 PUSH1 0x8A SHL PUSH1 0x44 DUP3 ADD MSTORE PUSH1 0x64 ADD PUSH2 0xAC4 JUMP JUMPDEST PUSH2 0x1F79 DUP3 PUSH2 0x2C3E JUMP JUMPDEST POP PUSH1 0x1 SWAP2 SWAP1 POP JUMP JUMPDEST PUSH1 0x40 MLOAD PUSH4 0xEF34F291 PUSH1 0xE0 SHL DUP2 MSTORE PUSH1 0x1 PUSH1 0x1 PUSH1 0xA0 SHL SUB DUP1 DUP6 AND PUSH1 0x4 DUP4 ADD MSTORE PUSH1 0x24 DUP3 ADD DUP5 SWAP1 MSTORE DUP3 AND PUSH1 0x44 DUP3 ADD MSTORE PUSH1 0x0 SWAP1 PUSH20 0x0 SWAP1 PUSH4 0xEF34F291 SWAP1 PUSH1 0x64 ADD PUSH1 0x20 PUSH1 0x40 MLOAD DUP1 DUP4 SUB DUP2 DUP7 GAS DELEGATECALL ISZERO DUP1 ISZERO PUSH2 0x1FEB JUMPI RETURNDATASIZE PUSH1 0x0 DUP1 RETURNDATACOPY RETURNDATASIZE PUSH1 0x0 REVERT JUMPDEST POP POP POP POP PUSH1 0x40 MLOAD RETURNDATASIZE PUSH1 0x1F NOT PUSH1 0x1F DUP3 ADD AND DUP3 ADD DUP1 PUSH1 0x40 MSTORE POP DUP2 ADD SWAP1 PUSH2 0xA00 SWAP2 SWAP1 PUSH2 0x3B68 JUMP JUMPDEST PUSH1 0x0 PUSH2 0x2022 DUP6 PUSH4 0xF3913E69 PUSH1 0xE0 SHL PUSH2 0x2373 JUMP JUMPDEST PUSH1 0x40 MLOAD PUSH4 0x4B0CBA5D PUSH1 0xE1 SHL DUP2 MSTORE PUSH1 0x1 PUSH1 0x1 PUSH1 0xA0 SHL SUB DUP6 DUP2 AND PUSH1 0x4 DUP4 ADD MSTORE DUP5 DUP2 AND PUSH1 0x24 DUP4 ADD MSTORE PUSH1 0x44 DUP3 ADD DUP5 SWAP1 MSTORE DUP7 AND SWAP1 PUSH4 0x961974BA SWAP1 PUSH1 0x64 ADD PUSH1 0x20 PUSH1 0x40 MLOAD DUP1 DUP4 SUB DUP2 PUSH1 0x0 DUP8 GAS CALL ISZERO DUP1 ISZERO PUSH2 0x2079 JUMPI RETURNDATASIZE PUSH1 0x0 DUP1 RETURNDATACOPY RETURNDATASIZE PUSH1 0x0 REVERT JUMPDEST POP POP POP POP PUSH1 0x40 MLOAD RETURNDATASIZE PUSH1 0x1F NOT PUSH1 0x1F DUP3 ADD AND DUP3 ADD DUP1 PUSH1 0x40 MSTORE POP DUP2 ADD SWAP1 PUSH2 0x209D SWAP2 SWAP1 PUSH2 0x3963 JUMP JUMPDEST SWAP6 SWAP5 POP POP POP POP POP JUMP JUMPDEST PUSH1 0x0 PUSH2 0xDD6 PUSH1 0x0 DUP1 SLOAD PUSH1 0x1 SLOAD PUSH1 0x40 DUP1 MLOAD PUSH32 0x8B73C3C69BB8FE3D512ECC4CF759CC79239F7B179B0FFACAA9A75D522B39400F PUSH1 0x20 DUP3 ADD MSTORE SWAP1 DUP2 ADD SWAP3 SWAP1 SWAP3 MSTORE PUSH1 0x60 DUP3 ADD MSTORE CHAINID PUSH1 0x80 DUP3 ADD MSTORE ADDRESS PUSH1 0xA0 DUP3 ADD MSTORE PUSH1 0xC0 ADD PUSH1 0x40 MLOAD PUSH1 0x20 DUP2 DUP4 SUB SUB DUP2 MSTORE SWAP1 PUSH1 0x40 MSTORE DUP1 MLOAD SWAP1 PUSH1 0x20 ADD KECCAK256 SWAP1 POP SWAP1 JUMP JUMPDEST PUSH1 0x0 PUSH2 0xDD6 PUSH2 0x2C00 JUMP JUMPDEST PUSH1 0x0 PUSH2 0x212F DUP5 PUSH4 0xFB3F4D29 PUSH1 0xE0 SHL PUSH2 0x2373 JUMP JUMPDEST PUSH1 0x40 MLOAD PUSH4 0xCD689F5 PUSH1 0xE0 SHL DUP2 MSTORE PUSH1 0x1 PUSH1 0x1 PUSH1 0xA0 SHL SUB DUP5 DUP2 AND PUSH1 0x4 DUP4 ADD MSTORE PUSH1 0x24 DUP3 ADD DUP5 SWAP1 MSTORE DUP6 AND SWAP1 PUSH4 0xCD689F5 SWAP1 PUSH1 0x44 ADD PUSH2 0x9BD JUMP JUMPDEST PUSH1 0x0 PUSH2 0x2179 PUSH1 0x1 PUSH3 0x5938DB PUSH1 0xE1 SHL SUB NOT PUSH2 0x2303 JUMP JUMPDEST PUSH2 0x2184 PUSH1 0x47 DUP4 PUSH2 0x2882 JUMP JUMPDEST PUSH2 0x21C4 JUMPI PUSH1 0x40 MLOAD PUSH3 0x461BCD PUSH1 0xE5 SHL DUP2 MSTORE PUSH1 0x20 PUSH1 0x4 DUP3 ADD MSTORE PUSH1 0x11 PUSH1 0x24 DUP3 ADD MSTORE PUSH17 0x151BDAD95B925908139BDD08119BDD5B99 PUSH1 0x7A SHL PUSH1 0x44 DUP3 ADD MSTORE PUSH1 0x64 ADD PUSH2 0xAC4 JUMP JUMPDEST PUSH1 0x1 PUSH1 0x1 PUSH1 0xA0 SHL SUB DUP3 AND PUSH1 0x0 SWAP1 DUP2 MSTORE PUSH1 0x46 PUSH1 0x20 MSTORE PUSH1 0x40 SWAP1 KECCAK256 PUSH2 0x21E5 DUP2 PUSH2 0x2CB5 JUMP JUMPDEST PUSH1 0x7 EQ PUSH2 0x222C JUMPI PUSH1 0x40 MLOAD PUSH3 0x461BCD PUSH1 0xE5 SHL DUP2 MSTORE PUSH1 0x20 PUSH1 0x4 DUP3 ADD MSTORE PUSH1 0x15 PUSH1 0x24 DUP3 ADD MSTORE PUSH21 0x105CDCD95D0814995C5D5A5C99590811985A5B1959 PUSH1 0x5A SHL PUSH1 0x44 DUP3 ADD MSTORE PUSH1 0x64 ADD PUSH2 0xAC4 JUMP JUMPDEST PUSH2 0x2234 PUSH2 0x3195 JUMP JUMPDEST PUSH1 0x0 JUMPDEST PUSH1 0x7 DUP2 LT ISZERO PUSH2 0x2281 JUMPI PUSH2 0x224A DUP4 DUP3 PUSH2 0x2CBF JUMP JUMPDEST DUP3 DUP3 PUSH1 0x7 DUP2 LT PUSH2 0x225C JUMPI PUSH2 0x225C PUSH2 0x42D5 JUMP JUMPDEST PUSH1 0x1 PUSH1 0x1 PUSH1 0xA0 SHL SUB SWAP1 SWAP3 AND PUSH1 0x20 SWAP3 SWAP1 SWAP3 MUL ADD MSTORE DUP1 PUSH2 0x2279 DUP2 PUSH2 0x4301 JUMP JUMPDEST SWAP2 POP POP PUSH2 0x2237 JUMP JUMPDEST POP PUSH1 0x40 MLOAD PUSH4 0xEC4AC1F7 PUSH1 0xE0 SHL DUP2 MSTORE PUSH1 0x1 PUSH1 0x1 PUSH1 0xA0 SHL SUB DUP6 AND SWAP1 PUSH4 0xEC4AC1F7 SWAP1 PUSH2 0x9BD SWAP1 ADDRESS SWAP1 DUP6 SWAP1 PUSH1 0x4 ADD PUSH2 0x431A JUMP JUMPDEST SWAP1 JUMP JUMPDEST PUSH1 0x0 PUSH1 0x1 PUSH1 0x1 PUSH1 0xE0 SHL SUB NOT DUP3 AND PUSH4 0x14751DBF PUSH1 0xE0 SHL EQ DUP1 PUSH2 0x22E4 JUMPI POP PUSH1 0x1 PUSH1 0x1 PUSH1 0xE0 SHL SUB NOT DUP3 AND PUSH4 0x52D1902D PUSH1 0xE0 SHL EQ JUMPDEST DUP1 PUSH2 0x7EC JUMPI POP PUSH4 0x1FFC9A7 PUSH1 0xE0 SHL PUSH1 0x1 PUSH1 0x1 PUSH1 0xE0 SHL SUB NOT DUP4 AND EQ PUSH2 0x7EC JUMP JUMPDEST PUSH1 0x3 SLOAD PUSH1 0x1 PUSH1 0xA0 SHL SWAP1 DIV PUSH1 0xFF AND ISZERO PUSH2 0x232D JUMPI PUSH1 0x40 MLOAD PUSH3 0x461BCD PUSH1 0xE5 SHL DUP2 MSTORE PUSH1 0x4 ADD PUSH2 0xAC4 SWAP1 PUSH2 0x3B31 JUMP JUMPDEST DUP1 PUSH2 0x2337 DUP2 PUSH2 0x25FF JUMP JUMPDEST PUSH2 0x1729 JUMPI PUSH1 0x40 MLOAD PUSH3 0x461BCD PUSH1 0xE5 SHL DUP2 MSTORE PUSH1 0x20 PUSH1 0x4 DUP3 ADD MSTORE PUSH1 0xD PUSH1 0x24 DUP3 ADD MSTORE PUSH13 0x1058D8D95CDCC811195B9A5959 PUSH1 0x9A SHL PUSH1 0x44 DUP3 ADD MSTORE PUSH1 0x64 ADD PUSH2 0xAC4 JUMP JUMPDEST PUSH2 0x237C DUP2 PUSH2 0x2303 JUMP JUMPDEST PUSH1 0x1 PUSH1 0x1 PUSH1 0xA0 SHL SUB DUP3 AND PUSH2 0x23C4 JUMPI PUSH1 0x40 MLOAD PUSH3 0x461BCD PUSH1 0xE5 SHL DUP2 MSTORE PUSH1 0x20 PUSH1 0x4 DUP3 ADD MSTORE PUSH1 0xF PUSH1 0x24 DUP3 ADD MSTORE PUSH15 0x125B9D985B1A5908105CDCD95D1259 PUSH1 0x8A SHL PUSH1 0x44 DUP3 ADD MSTORE PUSH1 0x64 ADD PUSH2 0xAC4 JUMP JUMPDEST PUSH1 0x40 MLOAD PUSH4 0x1FFC9A7 PUSH1 0xE0 SHL DUP2 MSTORE PUSH1 0x1 PUSH1 0x1 PUSH1 0xA0 SHL SUB DUP4 AND SWAP1 PUSH4 0x1FFC9A7 SWAP1 PUSH2 0x23F7 SWAP1 PUSH4 0x9673B47D PUSH1 0xE0 SHL SWAP1 PUSH1 0x4 ADD PUSH2 0x3980 JUMP JUMPDEST PUSH1 0x20 PUSH1 0x40 MLOAD DUP1 DUP4 SUB DUP2 DUP7 GAS STATICCALL SWAP3 POP POP POP DUP1 ISZERO PUSH2 0x2430 JUMPI POP PUSH1 0x40 DUP1 MLOAD PUSH1 0x1F RETURNDATASIZE SWAP1 DUP2 ADD PUSH1 0x1F NOT AND DUP3 ADD SWAP1 SWAP3 MSTORE PUSH2 0x242D SWAP2 DUP2 ADD SWAP1 PUSH2 0x3963 JUMP JUMPDEST PUSH1 0x1 JUMPDEST PUSH2 0x2473 JUMPI PUSH1 0x40 MLOAD PUSH3 0x461BCD PUSH1 0xE5 SHL DUP2 MSTORE PUSH1 0x20 PUSH1 0x4 DUP3 ADD MSTORE PUSH1 0x14 PUSH1 0x24 DUP3 ADD MSTORE PUSH20 0x496C6C6567616C20494173736574456E74697479 PUSH1 0x60 SHL PUSH1 0x44 DUP3 ADD MSTORE PUSH1 0x64 ADD PUSH2 0xAC4 JUMP JUMPDEST DUP1 PUSH2 0x24B7 JUMPI PUSH1 0x40 MLOAD PUSH3 0x461BCD PUSH1 0xE5 SHL DUP2 MSTORE PUSH1 0x20 PUSH1 0x4 DUP3 ADD MSTORE PUSH1 0x14 PUSH1 0x24 DUP3 ADD MSTORE PUSH20 0x496E76616C696420494173736574456E74697479 PUSH1 0x60 SHL PUSH1 0x44 DUP3 ADD MSTORE PUSH1 0x64 ADD PUSH2 0xAC4 JUMP JUMPDEST POP PUSH1 0x0 DUP3 PUSH1 0x1 PUSH1 0x1 PUSH1 0xA0 SHL SUB AND PUSH4 0x1083F761 PUSH1 0x40 MLOAD DUP2 PUSH4 0xFFFFFFFF AND PUSH1 0xE0 SHL DUP2 MSTORE PUSH1 0x4 ADD PUSH1 0x20 PUSH1 0x40 MLOAD DUP1 DUP4 SUB DUP2 DUP7 GAS STATICCALL ISZERO DUP1 ISZERO PUSH2 0x24F8 JUMPI RETURNDATASIZE PUSH1 0x0 DUP1 RETURNDATACOPY RETURNDATASIZE PUSH1 0x0 REVERT JUMPDEST POP POP POP POP PUSH1 0x40 MLOAD RETURNDATASIZE PUSH1 0x1F NOT PUSH1 0x1F DUP3 ADD AND DUP3 ADD DUP1 PUSH1 0x40 MSTORE POP DUP2 ADD SWAP1 PUSH2 0x251C SWAP2 SWAP1 PUSH2 0x3B68 JUMP JUMPDEST SWAP1 POP PUSH2 0x2529 PUSH1 0x47 DUP3 PUSH2 0x2882 JUMP JUMPDEST PUSH2 0x2569 JUMPI PUSH1 0x40 MLOAD PUSH3 0x461BCD PUSH1 0xE5 SHL DUP2 MSTORE PUSH1 0x20 PUSH1 0x4 DUP3 ADD MSTORE PUSH1 0x11 PUSH1 0x24 DUP3 ADD MSTORE PUSH17 0x151BDAD95B925908139BDD08119BDD5B99 PUSH1 0x7A SHL PUSH1 0x44 DUP3 ADD MSTORE PUSH1 0x64 ADD PUSH2 0xAC4 JUMP JUMPDEST PUSH1 0x1 PUSH1 0x1 PUSH1 0xA0 SHL SUB DUP2 AND PUSH1 0x0 SWAP1 DUP2 MSTORE PUSH1 0x46 PUSH1 0x20 MSTORE PUSH1 0x40 SWAP1 KECCAK256 PUSH2 0x258B DUP2 DUP6 PUSH2 0x2882 JUMP JUMPDEST PUSH2 0x25CB JUMPI PUSH1 0x40 MLOAD PUSH3 0x461BCD PUSH1 0xE5 SHL DUP2 MSTORE PUSH1 0x20 PUSH1 0x4 DUP3 ADD MSTORE PUSH1 0x11 PUSH1 0x24 DUP3 ADD MSTORE PUSH17 0x105CDCD95D125908139BDD08119BDD5B99 PUSH1 0x7A SHL PUSH1 0x44 DUP3 ADD MSTORE PUSH1 0x64 ADD PUSH2 0xAC4 JUMP JUMPDEST POP POP POP POP JUMP JUMPDEST PUSH1 0x60 PUSH1 0x0 PUSH2 0x972 DUP4 PUSH2 0x2CCB JUMP JUMPDEST PUSH1 0x0 PUSH1 0x0 DUP1 MLOAD PUSH1 0x20 PUSH2 0x43DF DUP4 CODECOPY DUP2 MLOAD SWAP2 MSTORE JUMPDEST SLOAD PUSH1 0x1 PUSH1 0x1 PUSH1 0xA0 SHL SUB AND SWAP2 SWAP1 POP JUMP JUMPDEST PUSH1 0x3 SLOAD PUSH1 0x0 SWAP1 PUSH1 0x1 PUSH1 0x1 PUSH1 0xA0 SHL SUB AND ADDRESS SUB PUSH2 0x26ED JUMPI PUSH1 0x0 PUSH4 0x63D59CF3 PUSH1 0xE1 SHL PUSH2 0x2627 ADDRESS PUSH2 0x2BC1 JUMP JUMPDEST CALLER DUP6 PUSH1 0x40 MLOAD PUSH1 0x24 ADD PUSH2 0x263B SWAP4 SWAP3 SWAP2 SWAP1 PUSH2 0x4361 JUMP JUMPDEST PUSH1 0x40 DUP1 MLOAD PUSH1 0x1F NOT DUP2 DUP5 SUB ADD DUP2 MSTORE SWAP2 SWAP1 MSTORE PUSH1 0x20 DUP2 ADD DUP1 MLOAD PUSH1 0x1 PUSH1 0x1 PUSH1 0xE0 SHL SUB AND PUSH1 0x1 PUSH1 0x1 PUSH1 0xE0 SHL SUB NOT SWAP1 SWAP4 AND SWAP3 SWAP1 SWAP3 OR SWAP1 SWAP2 MSTORE SWAP1 POP PUSH1 0x0 PUSH2 0x26B8 PUSH2 0x267C PUSH2 0x25DE JUMP JUMPDEST DUP4 PUSH1 0x40 MLOAD DUP1 PUSH1 0x40 ADD PUSH1 0x40 MSTORE DUP1 PUSH1 0x1D DUP2 MSTORE PUSH1 0x20 ADD PUSH32 0x44656C656761746563616C6C20686173416363657373204661696C6564000000 DUP2 MSTORE POP PUSH2 0x2D27 JUMP JUMPDEST SWAP1 POP DUP1 PUSH1 0x1 DUP3 MLOAD PUSH2 0x26C9 SWAP2 SWAP1 PUSH2 0x438A JUMP JUMPDEST DUP2 MLOAD DUP2 LT PUSH2 0x26D9 JUMPI PUSH2 0x26D9 PUSH2 0x42D5 JUMP JUMPDEST PUSH1 0x20 SWAP2 ADD ADD MLOAD PUSH1 0xF8 SHR PUSH1 0x1 EQ SWAP5 SWAP4 POP POP POP POP JUMP JUMPDEST PUSH1 0x3 SLOAD PUSH1 0x1 PUSH1 0x1 PUSH1 0xA0 SHL SUB AND PUSH4 0xC7AB39E6 PUSH2 0x2707 ADDRESS PUSH2 0x2BC1 JUMP JUMPDEST CALLER DUP6 PUSH1 0x40 MLOAD DUP5 PUSH4 0xFFFFFFFF AND PUSH1 0xE0 SHL DUP2 MSTORE PUSH1 0x4 ADD PUSH2 0x2727 SWAP4 SWAP3 SWAP2 SWAP1 PUSH2 0x4361 JUMP JUMPDEST PUSH1 0x20 PUSH1 0x40 MLOAD DUP1 DUP4 SUB DUP2 DUP7 GAS STATICCALL ISZERO DUP1 ISZERO PUSH2 0x1CE8 JUMPI RETURNDATASIZE PUSH1 0x0 DUP1 RETURNDATACOPY RETURNDATASIZE PUSH1 0x0 REVERT JUMPDEST PUSH1 0x3 SLOAD PUSH1 0x0 SWAP1 PUSH1 0x1 PUSH1 0x1 PUSH1 0xA0 SHL SUB AND ADDRESS SUB PUSH2 0x280C JUMPI PUSH1 0x0 PUSH4 0xE25D75F0 PUSH1 0xE0 SHL PUSH1 0x2 SLOAD PUSH1 0x40 MLOAD PUSH1 0x24 ADD PUSH2 0x2778 SWAP2 DUP2 MSTORE PUSH1 0x20 ADD SWAP1 JUMP JUMPDEST PUSH1 0x40 DUP1 MLOAD PUSH1 0x1F NOT DUP2 DUP5 SUB ADD DUP2 MSTORE SWAP2 SWAP1 MSTORE PUSH1 0x20 DUP2 ADD DUP1 MLOAD PUSH1 0x1 PUSH1 0x1 PUSH1 0xE0 SHL SUB AND PUSH1 0x1 PUSH1 0x1 PUSH1 0xE0 SHL SUB NOT SWAP1 SWAP4 AND SWAP3 SWAP1 SWAP3 OR SWAP1 SWAP2 MSTORE SWAP1 POP PUSH1 0x0 PUSH2 0x27D8 PUSH2 0x27B9 PUSH2 0x25DE JUMP JUMPDEST DUP4 PUSH1 0x40 MLOAD DUP1 PUSH1 0x60 ADD PUSH1 0x40 MSTORE DUP1 PUSH1 0x25 DUP2 MSTORE PUSH1 0x20 ADD PUSH2 0x43BA PUSH1 0x25 SWAP2 CODECOPY PUSH2 0x2D27 JUMP JUMPDEST SWAP1 POP DUP1 PUSH1 0x1 DUP3 MLOAD PUSH2 0x27E9 SWAP2 SWAP1 PUSH2 0x438A JUMP JUMPDEST DUP2 MLOAD DUP2 LT PUSH2 0x27F9 JUMPI PUSH2 0x27F9 PUSH2 0x42D5 JUMP JUMPDEST PUSH1 0x20 SWAP2 ADD ADD MLOAD PUSH1 0xF8 SHR PUSH1 0x1 EQ SWAP4 SWAP3 POP POP POP JUMP JUMPDEST PUSH1 0x3 SLOAD PUSH1 0x2 SLOAD PUSH1 0x40 MLOAD PUSH4 0xE25D75F PUSH1 0xE4 SHL DUP2 MSTORE PUSH1 0x1 PUSH1 0x1 PUSH1 0xA0 SHL SUB SWAP1 SWAP3 AND SWAP2 PUSH4 0xE25D75F0 SWAP2 PUSH2 0x2841 SWAP2 PUSH1 0x4 ADD SWAP1 DUP2 MSTORE PUSH1 0x20 ADD SWAP1 JUMP JUMPDEST PUSH1 0x20 PUSH1 0x40 MLOAD DUP1 DUP4 SUB DUP2 DUP7 GAS STATICCALL ISZERO DUP1 ISZERO PUSH2 0x285E JUMPI RETURNDATASIZE PUSH1 0x0 DUP1 RETURNDATACOPY RETURNDATASIZE PUSH1 0x0 REVERT JUMPDEST POP POP POP POP PUSH1 0x40 MLOAD RETURNDATASIZE PUSH1 0x1F NOT PUSH1 0x1F DUP3 ADD AND DUP3 ADD DUP1 PUSH1 0x40 MSTORE POP DUP2 ADD SWAP1 PUSH2 0xDD6 SWAP2 SWAP1 PUSH2 0x3963 JUMP JUMPDEST PUSH1 0x1 PUSH1 0x1 PUSH1 0xA0 SHL SUB DUP2 AND PUSH1 0x0 SWAP1 DUP2 MSTORE PUSH1 0x1 DUP4 ADD PUSH1 0x20 MSTORE PUSH1 0x40 DUP2 KECCAK256 SLOAD ISZERO ISZERO PUSH2 0x972 JUMP JUMPDEST PUSH2 0x28AC PUSH2 0x25DE JUMP JUMPDEST PUSH1 0x1 PUSH1 0x1 PUSH1 0xA0 SHL SUB AND DUP2 PUSH1 0x1 PUSH1 0x1 PUSH1 0xA0 SHL SUB AND SUB PUSH2 0x290C JUMPI PUSH1 0x40 MLOAD PUSH3 0x461BCD PUSH1 0xE5 SHL DUP2 MSTORE PUSH1 0x20 PUSH1 0x4 DUP3 ADD MSTORE PUSH1 0x1A PUSH1 0x24 DUP3 ADD MSTORE PUSH32 0x496C6C6567616C204E657720496D706C656D656E746174696F6E000000000000 PUSH1 0x44 DUP3 ADD MSTORE PUSH1 0x64 ADD PUSH2 0xAC4 JUMP JUMPDEST PUSH2 0x291C PUSH4 0x7147855D PUSH1 0xE0 SHL PUSH2 0x25FF JUMP JUMPDEST PUSH2 0x2968 JUMPI PUSH1 0x40 MLOAD PUSH3 0x461BCD PUSH1 0xE5 SHL DUP2 MSTORE PUSH1 0x20 PUSH1 0x4 DUP3 ADD MSTORE PUSH1 0x19 PUSH1 0x24 DUP3 ADD MSTORE PUSH32 0x5570677261646520436F6E7465787420466F7262696464656E00000000000000 PUSH1 0x44 DUP3 ADD MSTORE PUSH1 0x64 ADD PUSH2 0xAC4 JUMP JUMPDEST POP JUMP JUMPDEST PUSH1 0x60 PUSH32 0x4910FDFA16FED3260ED0E7147F7CC6DA11A60208B5B9406D12A635614FFD9143 SLOAD PUSH1 0xFF AND ISZERO PUSH2 0x29B5 JUMPI PUSH2 0x29A0 DUP5 PUSH2 0x2DF0 JUMP JUMPDEST POP PUSH1 0x40 DUP1 MLOAD PUSH1 0x0 DUP2 MSTORE PUSH1 0x20 DUP2 ADD SWAP1 SWAP2 MSTORE PUSH2 0x972 JUMP JUMPDEST DUP4 PUSH1 0x1 PUSH1 0x1 PUSH1 0xA0 SHL SUB AND PUSH4 0x52D1902D PUSH1 0x40 MLOAD DUP2 PUSH4 0xFFFFFFFF AND PUSH1 0xE0 SHL DUP2 MSTORE PUSH1 0x4 ADD PUSH1 0x20 PUSH1 0x40 MLOAD DUP1 DUP4 SUB DUP2 DUP7 GAS STATICCALL SWAP3 POP POP POP DUP1 ISZERO PUSH2 0x2A0F JUMPI POP PUSH1 0x40 DUP1 MLOAD PUSH1 0x1F RETURNDATASIZE SWAP1 DUP2 ADD PUSH1 0x1F NOT AND DUP3 ADD SWAP1 SWAP3 MSTORE PUSH2 0x2A0C SWAP2 DUP2 ADD SWAP1 PUSH2 0x393F JUMP JUMPDEST PUSH1 0x1 JUMPDEST PUSH2 0x2A53 JUMPI PUSH1 0x40 MLOAD PUSH3 0x461BCD PUSH1 0xE5 SHL DUP2 MSTORE PUSH1 0x20 PUSH1 0x4 DUP3 ADD MSTORE PUSH1 0x15 PUSH1 0x24 DUP3 ADD MSTORE PUSH21 0x125B1B1959D85B0815555414C810DBDB9D1C9858DD PUSH1 0x5A SHL PUSH1 0x44 DUP3 ADD MSTORE PUSH1 0x64 ADD PUSH2 0xAC4 JUMP JUMPDEST PUSH1 0x0 DUP1 MLOAD PUSH1 0x20 PUSH2 0x43DF DUP4 CODECOPY DUP2 MLOAD SWAP2 MSTORE DUP2 EQ PUSH2 0x2AA8 JUMPI PUSH1 0x40 MLOAD PUSH3 0x461BCD PUSH1 0xE5 SHL DUP2 MSTORE PUSH1 0x20 PUSH1 0x4 DUP3 ADD MSTORE PUSH1 0x15 PUSH1 0x24 DUP3 ADD MSTORE PUSH21 0x125B9D985B1A590815555414C810DBDB9D1C9858DD PUSH1 0x5A SHL PUSH1 0x44 DUP3 ADD MSTORE PUSH1 0x64 ADD PUSH2 0xAC4 JUMP JUMPDEST POP PUSH1 0x40 MLOAD PUSH4 0x1FFC9A7 PUSH1 0xE0 SHL DUP2 MSTORE PUSH1 0x1 PUSH1 0x1 PUSH1 0xA0 SHL SUB DUP6 AND SWAP1 PUSH4 0x1FFC9A7 SWAP1 PUSH2 0x2ADC SWAP1 PUSH4 0x14751DBF PUSH1 0xE0 SHL SWAP1 PUSH1 0x4 ADD PUSH2 0x3980 JUMP JUMPDEST PUSH1 0x20 PUSH1 0x40 MLOAD DUP1 DUP4 SUB DUP2 DUP7 GAS STATICCALL SWAP3 POP POP POP DUP1 ISZERO PUSH2 0x2B15 JUMPI POP PUSH1 0x40 DUP1 MLOAD PUSH1 0x1F RETURNDATASIZE SWAP1 DUP2 ADD PUSH1 0x1F NOT AND DUP3 ADD SWAP1 SWAP3 MSTORE PUSH2 0x2B12 SWAP2 DUP2 ADD SWAP1 PUSH2 0x3963 JUMP JUMPDEST PUSH1 0x1 JUMPDEST PUSH2 0x2B61 JUMPI PUSH1 0x40 MLOAD PUSH3 0x461BCD PUSH1 0xE5 SHL DUP2 MSTORE PUSH1 0x20 PUSH1 0x4 DUP3 ADD MSTORE PUSH1 0x17 PUSH1 0x24 DUP3 ADD MSTORE PUSH32 0x496C6C6567616C204950726F787920436F6E7472616374000000000000000000 PUSH1 0x44 DUP3 ADD MSTORE PUSH1 0x64 ADD PUSH2 0xAC4 JUMP JUMPDEST DUP1 PUSH2 0x2BAE JUMPI PUSH1 0x40 MLOAD PUSH3 0x461BCD PUSH1 0xE5 SHL DUP2 MSTORE PUSH1 0x20 PUSH1 0x4 DUP3 ADD MSTORE PUSH1 0x17 PUSH1 0x24 DUP3 ADD MSTORE PUSH32 0x496E76616C6964204950726F787920436F6E7472616374000000000000000000 PUSH1 0x44 DUP3 ADD MSTORE PUSH1 0x64 ADD PUSH2 0xAC4 JUMP JUMPDEST POP PUSH2 0x2BBA DUP5 DUP5 DUP5 PUSH2 0x2E71 JUMP JUMPDEST SWAP1 POP PUSH2 0x972 JUMP JUMPDEST PUSH1 0x40 MLOAD PUSH12 0xFFFFFFFFFFFFFFFFFFFFFFFF NOT PUSH1 0x60 DUP4 SWAP1 SHL AND PUSH1 0x20 DUP3 ADD MSTORE PUSH1 0x0 SWAP1 PUSH1 0x34 ADD PUSH1 0x40 MLOAD PUSH1 0x20 DUP2 DUP4 SUB SUB DUP2 MSTORE SWAP1 PUSH1 0x40 MSTORE DUP1 MLOAD SWAP1 PUSH1 0x20 ADD KECCAK256 SWAP1 POP SWAP2 SWAP1 POP JUMP JUMPDEST PUSH1 0x0 PUSH32 0xB53127684A568B3173AE13B9F8A6016E243E63B6E8EE1178D6A717850B5D6103 PUSH2 0x25F0 JUMP JUMPDEST PUSH2 0x2C36 DUP7 DUP7 DUP7 DUP7 DUP7 DUP7 PUSH2 0x2EDB JUMP JUMPDEST POP POP POP POP POP POP JUMP JUMPDEST PUSH32 0xB53127684A568B3173AE13B9F8A6016E243E63B6E8EE1178D6A717850B5D6103 DUP1 SLOAD PUSH1 0x1 PUSH1 0x1 PUSH1 0xA0 SHL SUB DUP4 AND PUSH1 0x1 PUSH1 0x1 PUSH1 0xA0 SHL SUB NOT SWAP1 SWAP2 AND DUP2 OR SWAP1 SWAP2 SSTORE PUSH1 0x40 DUP1 MLOAD SWAP2 DUP3 MSTORE MLOAD ADDRESS SWAP2 CALLER SWAP2 PUSH32 0x54AB0D18DE7958786BA1AD85966D59BAA2B395455F0530DCDCFD732E6AF539E2 SWAP2 DUP2 SWAP1 SUB PUSH1 0x20 ADD SWAP1 LOG3 POP JUMP JUMPDEST PUSH1 0x0 PUSH2 0x7EC DUP3 SLOAD SWAP1 JUMP JUMPDEST PUSH1 0x0 PUSH2 0x972 DUP4 DUP4 PUSH2 0x30EE JUMP JUMPDEST PUSH1 0x60 DUP2 PUSH1 0x0 ADD DUP1 SLOAD DUP1 PUSH1 0x20 MUL PUSH1 0x20 ADD PUSH1 0x40 MLOAD SWAP1 DUP2 ADD PUSH1 0x40 MSTORE DUP1 SWAP3 SWAP2 SWAP1 DUP2 DUP2 MSTORE PUSH1 0x20 ADD DUP3 DUP1 SLOAD DUP1 ISZERO PUSH2 0x2D1B JUMPI PUSH1 0x20 MUL DUP3 ADD SWAP2 SWAP1 PUSH1 0x0 MSTORE PUSH1 0x20 PUSH1 0x0 KECCAK256 SWAP1 JUMPDEST DUP2 SLOAD DUP2 MSTORE PUSH1 0x20 ADD SWAP1 PUSH1 0x1 ADD SWAP1 DUP1 DUP4 GT PUSH2 0x2D07 JUMPI JUMPDEST POP POP POP POP POP SWAP1 POP SWAP2 SWAP1 POP JUMP JUMPDEST PUSH1 0x60 PUSH1 0x1 PUSH1 0x1 PUSH1 0xA0 SHL SUB DUP5 AND EXTCODESIZE PUSH2 0x2D7B JUMPI PUSH1 0x40 MLOAD PUSH3 0x461BCD PUSH1 0xE5 SHL DUP2 MSTORE PUSH1 0x20 PUSH1 0x4 DUP3 ADD MSTORE PUSH1 0x18 PUSH1 0x24 DUP3 ADD MSTORE PUSH24 0x496C6C6567616C20436F6E74726163742041646472657373 PUSH1 0x40 SHL PUSH1 0x44 DUP3 ADD MSTORE PUSH1 0x64 ADD PUSH2 0xAC4 JUMP JUMPDEST PUSH1 0x0 DUP1 DUP6 PUSH1 0x1 PUSH1 0x1 PUSH1 0xA0 SHL SUB AND DUP6 PUSH1 0x40 MLOAD PUSH2 0x2D96 SWAP2 SWAP1 PUSH2 0x439D JUMP JUMPDEST PUSH1 0x0 PUSH1 0x40 MLOAD DUP1 DUP4 SUB DUP2 DUP6 GAS DELEGATECALL SWAP2 POP POP RETURNDATASIZE DUP1 PUSH1 0x0 DUP2 EQ PUSH2 0x2DD1 JUMPI PUSH1 0x40 MLOAD SWAP2 POP PUSH1 0x1F NOT PUSH1 0x3F RETURNDATASIZE ADD AND DUP3 ADD PUSH1 0x40 MSTORE RETURNDATASIZE DUP3 MSTORE RETURNDATASIZE PUSH1 0x0 PUSH1 0x20 DUP5 ADD RETURNDATACOPY PUSH2 0x2DD6 JUMP JUMPDEST PUSH1 0x60 SWAP2 POP JUMPDEST POP SWAP2 POP SWAP2 POP PUSH2 0x2DE6 DUP3 DUP3 DUP7 PUSH2 0x3118 JUMP JUMPDEST SWAP7 SWAP6 POP POP POP POP POP POP JUMP JUMPDEST PUSH1 0x1 PUSH1 0x1 PUSH1 0xA0 SHL SUB DUP2 AND EXTCODESIZE PUSH2 0x2E42 JUMPI PUSH1 0x40 MLOAD PUSH3 0x461BCD PUSH1 0xE5 SHL DUP2 MSTORE PUSH1 0x20 PUSH1 0x4 DUP3 ADD MSTORE PUSH1 0x18 PUSH1 0x24 DUP3 ADD MSTORE PUSH24 0x496C6C6567616C20436F6E74726163742041646472657373 PUSH1 0x40 SHL PUSH1 0x44 DUP3 ADD MSTORE PUSH1 0x64 ADD PUSH2 0xAC4 JUMP JUMPDEST PUSH1 0x0 DUP1 MLOAD PUSH1 0x20 PUSH2 0x43DF DUP4 CODECOPY DUP2 MLOAD SWAP2 MSTORE DUP1 SLOAD PUSH1 0x1 PUSH1 0x1 PUSH1 0xA0 SHL SUB NOT AND PUSH1 0x1 PUSH1 0x1 PUSH1 0xA0 SHL SUB SWAP3 SWAP1 SWAP3 AND SWAP2 SWAP1 SWAP2 OR SWAP1 SSTORE JUMP JUMPDEST PUSH1 0x60 PUSH2 0x2E7C DUP5 PUSH2 0x3151 JUMP JUMPDEST PUSH1 0x0 DUP4 MLOAD GT DUP1 PUSH2 0x2E89 JUMPI POP DUP2 JUMPDEST ISZERO PUSH2 0x2EC4 JUMPI PUSH2 0x2BBA DUP5 DUP5 PUSH1 0x40 MLOAD DUP1 PUSH1 0x40 ADD PUSH1 0x40 MSTORE DUP1 PUSH1 0x13 DUP2 MSTORE PUSH1 0x20 ADD PUSH19 0x11195B1959D85D1958D85B1B0811985A5B1959 PUSH1 0x6A SHL DUP2 MSTORE POP PUSH2 0x2D27 JUMP JUMPDEST POP POP PUSH1 0x40 DUP1 MLOAD PUSH1 0x0 DUP2 MSTORE PUSH1 0x20 DUP2 ADD SWAP1 SWAP2 MSTORE SWAP3 SWAP2 POP POP JUMP JUMPDEST PUSH1 0x49 SLOAD PUSH3 0x10000 SWAP1 DIV PUSH1 0xFF AND PUSH2 0x2F33 JUMPI PUSH1 0x40 MLOAD PUSH3 0x461BCD PUSH1 0xE5 SHL DUP2 MSTORE PUSH1 0x20 PUSH1 0x4 DUP3 ADD MSTORE PUSH1 0x19 PUSH1 0x24 DUP3 ADD MSTORE PUSH32 0x436F6E7472616374204E6F7420496E697469616C697A696E6700000000000000 PUSH1 0x44 DUP3 ADD MSTORE PUSH1 0x64 ADD PUSH2 0xAC4 JUMP JUMPDEST DUP6 DUP6 PUSH1 0x40 MLOAD PUSH1 0x20 ADD PUSH2 0x2F46 SWAP3 SWAP2 SWAP1 PUSH2 0x3D83 JUMP JUMPDEST PUSH1 0x40 DUP1 MLOAD PUSH1 0x1F NOT DUP2 DUP5 SUB ADD DUP2 MSTORE SWAP1 DUP3 SWAP1 MSTORE DUP1 MLOAD PUSH1 0x20 SWAP2 DUP3 ADD KECCAK256 PUSH1 0x0 SSTORE PUSH2 0x2F70 SWAP2 DUP7 SWAP2 DUP7 SWAP2 ADD PUSH2 0x3D83 JUMP JUMPDEST PUSH1 0x40 DUP1 MLOAD PUSH1 0x1F NOT DUP2 DUP5 SUB ADD DUP2 MSTORE SWAP2 SWAP1 MSTORE DUP1 MLOAD PUSH1 0x20 SWAP1 SWAP2 ADD KECCAK256 PUSH1 0x1 SSTORE PUSH1 0x2 DUP3 SWAP1 SSTORE PUSH1 0x1 PUSH1 0x1 PUSH1 0xA0 SHL SUB DUP2 AND PUSH2 0x2FB5 JUMPI PUSH1 0x3 DUP1 SLOAD PUSH1 0x1 PUSH1 0x1 PUSH1 0xA0 SHL SUB NOT AND ADDRESS OR SWAP1 SSTORE PUSH2 0x30D7 JUMP JUMPDEST PUSH1 0x40 MLOAD PUSH4 0x1FFC9A7 PUSH1 0xE0 SHL DUP2 MSTORE PUSH1 0x1 PUSH1 0x1 PUSH1 0xA0 SHL SUB DUP3 AND SWAP1 PUSH4 0x1FFC9A7 SWAP1 PUSH2 0x2FE8 SWAP1 PUSH4 0x14B83435 PUSH1 0xE3 SHL SWAP1 PUSH1 0x4 ADD PUSH2 0x3980 JUMP JUMPDEST PUSH1 0x20 PUSH1 0x40 MLOAD DUP1 DUP4 SUB DUP2 DUP7 GAS STATICCALL SWAP3 POP POP POP DUP1 ISZERO PUSH2 0x3021 JUMPI POP PUSH1 0x40 DUP1 MLOAD PUSH1 0x1F RETURNDATASIZE SWAP1 DUP2 ADD PUSH1 0x1F NOT AND DUP3 ADD SWAP1 SWAP3 MSTORE PUSH2 0x301E SWAP2 DUP2 ADD SWAP1 PUSH2 0x3963 JUMP JUMPDEST PUSH1 0x1 JUMPDEST PUSH2 0x306D JUMPI PUSH1 0x40 MLOAD PUSH3 0x461BCD PUSH1 0xE5 SHL DUP2 MSTORE PUSH1 0x20 PUSH1 0x4 DUP3 ADD MSTORE PUSH1 0x1C PUSH1 0x24 DUP3 ADD MSTORE PUSH32 0x496C6C6567616C20416363657373436F6E74726F6C4D616E6167657200000000 PUSH1 0x44 DUP3 ADD MSTORE PUSH1 0x64 ADD PUSH2 0xAC4 JUMP JUMPDEST DUP1 PUSH2 0x30BA JUMPI PUSH1 0x40 MLOAD PUSH3 0x461BCD PUSH1 0xE5 SHL DUP2 MSTORE PUSH1 0x20 PUSH1 0x4 DUP3 ADD MSTORE PUSH1 0x1C PUSH1 0x24 DUP3 ADD MSTORE PUSH32 0x496E76616C696420416363657373436F6E74726F6C4D616E6167657200000000 PUSH1 0x44 DUP3 ADD MSTORE PUSH1 0x64 ADD PUSH2 0xAC4 JUMP JUMPDEST POP PUSH1 0x3 DUP1 SLOAD PUSH1 0x1 PUSH1 0x1 PUSH1 0xA0 SHL SUB NOT AND PUSH1 0x1 PUSH1 0x1 PUSH1 0xA0 SHL SUB DUP4 AND OR SWAP1 SSTORE JUMPDEST PUSH1 0x3 DUP1 SLOAD PUSH2 0xFFFF PUSH1 0xA0 SHL NOT AND SWAP1 SSTORE PUSH2 0x2C36 CALLER PUSH2 0x2C3E JUMP JUMPDEST PUSH1 0x0 DUP3 PUSH1 0x0 ADD DUP3 DUP2 SLOAD DUP2 LT PUSH2 0x3105 JUMPI PUSH2 0x3105 PUSH2 0x42D5 JUMP JUMPDEST SWAP1 PUSH1 0x0 MSTORE PUSH1 0x20 PUSH1 0x0 KECCAK256 ADD SLOAD SWAP1 POP SWAP3 SWAP2 POP POP JUMP JUMPDEST PUSH1 0x60 DUP4 ISZERO PUSH2 0x3127 JUMPI POP DUP2 PUSH2 0x972 JUMP JUMPDEST DUP3 MLOAD ISZERO PUSH2 0x3137 JUMPI DUP3 MLOAD DUP1 DUP5 PUSH1 0x20 ADD REVERT JUMPDEST DUP2 PUSH1 0x40 MLOAD PUSH3 0x461BCD PUSH1 0xE5 SHL DUP2 MSTORE PUSH1 0x4 ADD PUSH2 0xAC4 SWAP2 SWAP1 PUSH2 0x3683 JUMP JUMPDEST PUSH2 0x315A DUP2 PUSH2 0x2DF0 JUMP JUMPDEST PUSH1 0x40 MLOAD PUSH1 0x1 PUSH1 0x1 PUSH1 0xA0 SHL SUB DUP3 AND SWAP1 ADDRESS SWAP1 CALLER SWAP1 PUSH32 0x354BD4B6EB65D64E6C79C53FA4F983A5E6BEC4824CE4627C71BE0B2722F4917E SWAP1 PUSH1 0x0 SWAP1 LOG4 POP JUMP JUMPDEST PUSH1 0x40 MLOAD DUP1 PUSH1 0xE0 ADD PUSH1 0x40 MSTORE DUP1 PUSH1 0x7 SWAP1 PUSH1 0x20 DUP3 MUL DUP1 CALLDATASIZE DUP4 CALLDATACOPY POP SWAP2 SWAP3 SWAP2 POP POP JUMP JUMPDEST PUSH1 0x1 PUSH1 0x1 PUSH1 0xE0 SHL SUB NOT DUP2 AND DUP2 EQ PUSH2 0x2968 JUMPI PUSH1 0x0 DUP1 REVERT JUMPDEST PUSH1 0x0 PUSH1 0x20 DUP3 DUP5 SUB SLT ISZERO PUSH2 0x31DB JUMPI PUSH1 0x0 DUP1 REVERT JUMPDEST DUP2 CALLDATALOAD PUSH2 0x972 DUP2 PUSH2 0x31B3 JUMP JUMPDEST PUSH1 0x1 PUSH1 0x1 PUSH1 0xA0 SHL SUB DUP2 AND DUP2 EQ PUSH2 0x2968 JUMPI PUSH1 0x0 DUP1 REVERT JUMPDEST PUSH1 0x0 PUSH1 0x20 DUP3 DUP5 SUB SLT ISZERO PUSH2 0x320D JUMPI PUSH1 0x0 DUP1 REVERT JUMPDEST DUP2 CALLDATALOAD PUSH2 0x972 DUP2 PUSH2 0x31E6 JUMP JUMPDEST PUSH1 0x0 DUP1 DUP3 DUP5 SUB PUSH1 0xA0 DUP2 SLT ISZERO PUSH2 0x322C JUMPI PUSH1 0x0 DUP1 REVERT JUMPDEST DUP4 CALLDATALOAD PUSH2 0x3237 DUP2 PUSH2 0x31E6 JUMP JUMPDEST SWAP3 POP PUSH1 0x80 PUSH1 0x1F NOT DUP3 ADD SLT ISZERO PUSH2 0x324B JUMPI PUSH1 0x0 DUP1 REVERT JUMPDEST POP PUSH1 0x20 DUP4 ADD SWAP1 POP SWAP3 POP SWAP3 SWAP1 POP JUMP JUMPDEST PUSH1 0x0 DUP1 PUSH1 0x0 PUSH1 0x60 DUP5 DUP7 SUB SLT ISZERO PUSH2 0x326E JUMPI PUSH1 0x0 DUP1 REVERT JUMPDEST DUP4 CALLDATALOAD PUSH2 0x3279 DUP2 PUSH2 0x31E6 JUMP JUMPDEST SWAP3 POP PUSH1 0x20 DUP5 ADD CALLDATALOAD PUSH2 0x3289 DUP2 PUSH2 0x31E6 JUMP JUMPDEST SWAP3 SWAP6 SWAP3 SWAP5 POP POP POP PUSH1 0x40 SWAP2 SWAP1 SWAP2 ADD CALLDATALOAD SWAP1 JUMP JUMPDEST PUSH1 0x0 DUP1 PUSH1 0x0 PUSH1 0x40 DUP5 DUP7 SUB SLT ISZERO PUSH2 0x32AF JUMPI PUSH1 0x0 DUP1 REVERT JUMPDEST DUP4 CALLDATALOAD PUSH2 0x32BA DUP2 PUSH2 0x31E6 JUMP JUMPDEST SWAP3 POP PUSH1 0x20 DUP5 ADD CALLDATALOAD PUSH1 0x1 PUSH1 0x1 PUSH1 0x40 SHL SUB DUP1 DUP3 GT ISZERO PUSH2 0x32D6 JUMPI PUSH1 0x0 DUP1 REVERT JUMPDEST DUP2 DUP7 ADD SWAP2 POP DUP7 PUSH1 0x1F DUP4 ADD SLT PUSH2 0x32EA JUMPI PUSH1 0x0 DUP1 REVERT JUMPDEST DUP2 CALLDATALOAD DUP2 DUP2 GT ISZERO PUSH2 0x32F9 JUMPI PUSH1 0x0 DUP1 REVERT JUMPDEST DUP8 PUSH1 0x20 DUP3 DUP6 ADD ADD GT ISZERO PUSH2 0x330B JUMPI PUSH1 0x0 DUP1 REVERT JUMPDEST PUSH1 0x20 DUP4 ADD SWAP5 POP DUP1 SWAP4 POP POP POP POP SWAP3 POP SWAP3 POP SWAP3 JUMP JUMPDEST PUSH1 0x0 DUP2 MLOAD DUP1 DUP5 MSTORE PUSH1 0x20 DUP1 DUP6 ADD SWAP5 POP DUP1 DUP5 ADD PUSH1 0x0 JUMPDEST DUP4 DUP2 LT ISZERO PUSH2 0x3357 JUMPI DUP2 MLOAD PUSH1 0x1 PUSH1 0x1 PUSH1 0xA0 SHL SUB AND DUP8 MSTORE SWAP6 DUP3 ADD SWAP6 SWAP1 DUP3 ADD SWAP1 PUSH1 0x1 ADD PUSH2 0x3332 JUMP JUMPDEST POP SWAP5 SWAP6 SWAP5 POP POP POP POP POP JUMP JUMPDEST PUSH1 0x0 PUSH1 0x3 DUP5 LT PUSH2 0x3382 JUMPI PUSH4 0x4E487B71 PUSH1 0xE0 SHL PUSH1 0x0 MSTORE PUSH1 0x21 PUSH1 0x4 MSTORE PUSH1 0x24 PUSH1 0x0 REVERT JUMPDEST DUP4 DUP3 MSTORE PUSH1 0x40 PUSH1 0x20 DUP4 ADD MSTORE PUSH2 0xA00 PUSH1 0x40 DUP4 ADD DUP5 PUSH2 0x331E JUMP JUMPDEST PUSH1 0x20 DUP2 MSTORE PUSH1 0x0 PUSH2 0x972 PUSH1 0x20 DUP4 ADD DUP5 PUSH2 0x331E JUMP JUMPDEST DUP1 ISZERO ISZERO DUP2 EQ PUSH2 0x2968 JUMPI PUSH1 0x0 DUP1 REVERT JUMPDEST PUSH1 0x0 DUP1 PUSH1 0x40 DUP4 DUP6 SUB SLT ISZERO PUSH2 0x33CD JUMPI PUSH1 0x0 DUP1 REVERT JUMPDEST DUP3 CALLDATALOAD PUSH2 0x33D8 DUP2 PUSH2 0x31E6 JUMP JUMPDEST SWAP2 POP PUSH1 0x20 DUP4 ADD CALLDATALOAD PUSH2 0x33E8 DUP2 PUSH2 0x33AC JUMP JUMPDEST DUP1 SWAP2 POP POP SWAP3 POP SWAP3 SWAP1 POP JUMP JUMPDEST PUSH1 0x0 PUSH1 0x20 DUP3 DUP5 SUB SLT ISZERO PUSH2 0x3405 JUMPI PUSH1 0x0 DUP1 REVERT JUMPDEST DUP2 CALLDATALOAD PUSH2 0x972 DUP2 PUSH2 0x33AC JUMP JUMPDEST PUSH1 0x0 DUP1 PUSH1 0x0 PUSH1 0x40 DUP5 DUP7 SUB SLT ISZERO PUSH2 0x3425 JUMPI PUSH1 0x0 DUP1 REVERT JUMPDEST DUP4 CALLDATALOAD PUSH2 0x3430 DUP2 PUSH2 0x31E6 JUMP JUMPDEST SWAP3 POP PUSH1 0x20 DUP5 ADD CALLDATALOAD PUSH1 0x1 PUSH1 0x1 PUSH1 0x40 SHL SUB DUP1 DUP3 GT ISZERO PUSH2 0x344C JUMPI PUSH1 0x0 DUP1 REVERT JUMPDEST DUP2 DUP7 ADD SWAP2 POP DUP7 PUSH1 0x1F DUP4 ADD SLT PUSH2 0x3460 JUMPI PUSH1 0x0 DUP1 REVERT JUMPDEST DUP2 CALLDATALOAD DUP2 DUP2 GT ISZERO PUSH2 0x346F JUMPI PUSH1 0x0 DUP1 REVERT JUMPDEST DUP8 PUSH1 0x20 PUSH1 0x60 DUP4 MUL DUP6 ADD ADD GT ISZERO PUSH2 0x330B JUMPI PUSH1 0x0 DUP1 REVERT JUMPDEST PUSH1 0x0 DUP1 PUSH1 0x0 PUSH1 0x40 DUP5 DUP7 SUB SLT ISZERO PUSH2 0x3499 JUMPI PUSH1 0x0 DUP1 REVERT JUMPDEST DUP4 CALLDATALOAD PUSH2 0x34A4 DUP2 PUSH2 0x31E6 JUMP JUMPDEST SWAP3 POP PUSH1 0x20 DUP5 ADD CALLDATALOAD PUSH1 0x1 PUSH1 0x1 PUSH1 0x40 SHL SUB DUP1 DUP3 GT ISZERO PUSH2 0x34C0 JUMPI PUSH1 0x0 DUP1 REVERT JUMPDEST DUP2 DUP7 ADD SWAP2 POP DUP7 PUSH1 0x1F DUP4 ADD SLT PUSH2 0x34D4 JUMPI PUSH1 0x0 DUP1 REVERT JUMPDEST DUP2 CALLDATALOAD DUP2 DUP2 GT ISZERO PUSH2 0x34E3 JUMPI PUSH1 0x0 DUP1 REVERT JUMPDEST DUP8 PUSH1 0x20 DUP3 PUSH1 0x6 SHL DUP6 ADD ADD GT ISZERO PUSH2 0x330B JUMPI PUSH1 0x0 DUP1 REVERT JUMPDEST PUSH4 0x4E487B71 PUSH1 0xE0 SHL PUSH1 0x0 MSTORE PUSH1 0x41 PUSH1 0x4 MSTORE PUSH1 0x24 PUSH1 0x0 REVERT JUMPDEST PUSH1 0x40 MLOAD PUSH1 0x60 DUP2 ADD PUSH1 0x1 PUSH1 0x1 PUSH1 0x40 SHL SUB DUP2 GT DUP3 DUP3 LT OR ISZERO PUSH2 0x3530 JUMPI PUSH2 0x3530 PUSH2 0x34F8 JUMP JUMPDEST PUSH1 0x40 MSTORE SWAP1 JUMP JUMPDEST PUSH1 0x40 MLOAD PUSH1 0x1F DUP3 ADD PUSH1 0x1F NOT AND DUP2 ADD PUSH1 0x1 PUSH1 0x1 PUSH1 0x40 SHL SUB DUP2 GT DUP3 DUP3 LT OR ISZERO PUSH2 0x355E JUMPI PUSH2 0x355E PUSH2 0x34F8 JUMP JUMPDEST PUSH1 0x40 MSTORE SWAP2 SWAP1 POP JUMP JUMPDEST PUSH1 0x0 PUSH1 0x1 PUSH1 0x1 PUSH1 0x40 SHL SUB DUP3 GT ISZERO PUSH2 0x357F JUMPI PUSH2 0x357F PUSH2 0x34F8 JUMP JUMPDEST POP PUSH1 0x1F ADD PUSH1 0x1F NOT AND PUSH1 0x20 ADD SWAP1 JUMP JUMPDEST PUSH1 0x0 DUP1 PUSH1 0x0 PUSH1 0x60 DUP5 DUP7 SUB SLT ISZERO PUSH2 0x35A2 JUMPI PUSH1 0x0 DUP1 REVERT JUMPDEST DUP4 CALLDATALOAD PUSH2 0x35AD DUP2 PUSH2 0x31E6 JUMP JUMPDEST SWAP3 POP PUSH1 0x20 DUP5 ADD CALLDATALOAD PUSH1 0x1 PUSH1 0x1 PUSH1 0x40 SHL SUB DUP2 GT ISZERO PUSH2 0x35C8 JUMPI PUSH1 0x0 DUP1 REVERT JUMPDEST DUP5 ADD PUSH1 0x1F DUP2 ADD DUP7 SGT PUSH2 0x35D9 JUMPI PUSH1 0x0 DUP1 REVERT JUMPDEST DUP1 CALLDATALOAD PUSH2 0x35EC PUSH2 0x35E7 DUP3 PUSH2 0x3566 JUMP JUMPDEST PUSH2 0x3536 JUMP JUMPDEST DUP2 DUP2 MSTORE DUP8 PUSH1 0x20 DUP4 DUP6 ADD ADD GT ISZERO PUSH2 0x3601 JUMPI PUSH1 0x0 DUP1 REVERT JUMPDEST DUP2 PUSH1 0x20 DUP5 ADD PUSH1 0x20 DUP4 ADD CALLDATACOPY PUSH1 0x0 PUSH1 0x20 DUP4 DUP4 ADD ADD MSTORE DUP1 SWAP5 POP POP POP POP PUSH1 0x40 DUP5 ADD CALLDATALOAD PUSH2 0x3628 DUP2 PUSH2 0x33AC JUMP JUMPDEST DUP1 SWAP2 POP POP SWAP3 POP SWAP3 POP SWAP3 JUMP JUMPDEST PUSH1 0x0 JUMPDEST DUP4 DUP2 LT ISZERO PUSH2 0x364E JUMPI DUP2 DUP2 ADD MLOAD DUP4 DUP3 ADD MSTORE PUSH1 0x20 ADD PUSH2 0x3636 JUMP JUMPDEST POP POP PUSH1 0x0 SWAP2 ADD MSTORE JUMP JUMPDEST PUSH1 0x0 DUP2 MLOAD DUP1 DUP5 MSTORE PUSH2 0x366F DUP2 PUSH1 0x20 DUP7 ADD PUSH1 0x20 DUP7 ADD PUSH2 0x3633 JUMP JUMPDEST PUSH1 0x1F ADD PUSH1 0x1F NOT AND SWAP3 SWAP1 SWAP3 ADD PUSH1 0x20 ADD SWAP3 SWAP2 POP POP JUMP JUMPDEST PUSH1 0x20 DUP2 MSTORE PUSH1 0x0 PUSH2 0x972 PUSH1 0x20 DUP4 ADD DUP5 PUSH2 0x3657 JUMP JUMPDEST PUSH1 0x0 DUP1 PUSH1 0x0 PUSH1 0x40 DUP5 DUP7 SUB SLT ISZERO PUSH2 0x36AB JUMPI PUSH1 0x0 DUP1 REVERT JUMPDEST DUP4 CALLDATALOAD PUSH2 0x36B6 DUP2 PUSH2 0x31E6 JUMP JUMPDEST SWAP3 POP PUSH1 0x20 DUP5 ADD CALLDATALOAD PUSH1 0x1 PUSH1 0x1 PUSH1 0x40 SHL SUB DUP1 DUP3 GT ISZERO PUSH2 0x36D2 JUMPI PUSH1 0x0 DUP1 REVERT JUMPDEST DUP2 DUP7 ADD SWAP2 POP DUP7 PUSH1 0x1F DUP4 ADD SLT PUSH2 0x36E6 JUMPI PUSH1 0x0 DUP1 REVERT JUMPDEST DUP2 CALLDATALOAD DUP2 DUP2 GT ISZERO PUSH2 0x36F5 JUMPI PUSH1 0x0 DUP1 REVERT JUMPDEST DUP8 PUSH1 0x20 DUP3 PUSH1 0x7 SHL DUP6 ADD ADD GT ISZERO PUSH2 0x330B JUMPI PUSH1 0x0 DUP1 REVERT JUMPDEST PUSH1 0x20 DUP1 DUP3 MSTORE DUP3 MLOAD DUP3 DUP3 ADD DUP2 SWAP1 MSTORE PUSH1 0x0 SWAP2 SWAP1 DUP5 DUP3 ADD SWAP1 PUSH1 0x40 DUP6 ADD SWAP1 DUP5 JUMPDEST DUP2 DUP2 LT ISZERO PUSH2 0x3742 JUMPI DUP4 MLOAD DUP4 MSTORE SWAP3 DUP5 ADD SWAP3 SWAP2 DUP5 ADD SWAP2 PUSH1 0x1 ADD PUSH2 0x3726 JUMP JUMPDEST POP SWAP1 SWAP7 SWAP6 POP POP POP POP POP POP JUMP JUMPDEST PUSH1 0x0 PUSH1 0xA0 DUP3 DUP5 SUB SLT ISZERO PUSH2 0x3760 JUMPI PUSH1 0x0 DUP1 REVERT JUMPDEST POP SWAP2 SWAP1 POP JUMP JUMPDEST PUSH1 0x0 PUSH1 0x20 DUP3 DUP5 SUB SLT ISZERO PUSH2 0x3778 JUMPI PUSH1 0x0 DUP1 REVERT JUMPDEST DUP2 CALLDATALOAD PUSH1 0x1 PUSH1 0x1 PUSH1 0x40 SHL SUB DUP2 GT ISZERO PUSH2 0x378E JUMPI PUSH1 0x0 DUP1 REVERT JUMPDEST PUSH2 0xA00 DUP5 DUP3 DUP6 ADD PUSH2 0x374E JUMP JUMPDEST PUSH1 0x0 DUP1 PUSH1 0x0 PUSH1 0x60 DUP5 DUP7 SUB SLT ISZERO PUSH2 0x37AF JUMPI PUSH1 0x0 DUP1 REVERT JUMPDEST DUP4 CALLDATALOAD PUSH2 0x37BA DUP2 PUSH2 0x31E6 JUMP JUMPDEST SWAP3 POP PUSH1 0x20 DUP5 ADD CALLDATALOAD SWAP2 POP PUSH1 0x40 DUP5 ADD CALLDATALOAD PUSH2 0x3628 DUP2 PUSH2 0x31E6 JUMP JUMPDEST PUSH1 0x0 DUP1 PUSH1 0x0 DUP1 PUSH1 0x80 DUP6 DUP8 SUB SLT ISZERO PUSH2 0x37E7 JUMPI PUSH1 0x0 DUP1 REVERT JUMPDEST DUP5 CALLDATALOAD PUSH2 0x37F2 DUP2 PUSH2 0x31E6 JUMP JUMPDEST SWAP4 POP PUSH1 0x20 DUP6 ADD CALLDATALOAD PUSH2 0x3802 DUP2 PUSH2 0x31E6 JUMP JUMPDEST SWAP3 POP PUSH1 0x40 DUP6 ADD CALLDATALOAD PUSH2 0x3812 DUP2 PUSH2 0x31E6 JUMP JUMPDEST SWAP4 SWAP7 SWAP3 SWAP6 POP SWAP3 SWAP4 PUSH1 0x60 ADD CALLDATALOAD SWAP3 POP POP JUMP JUMPDEST PUSH1 0x0 DUP3 PUSH1 0x1F DUP4 ADD SLT PUSH2 0x3833 JUMPI PUSH1 0x0 DUP1 REVERT JUMPDEST DUP2 MLOAD PUSH2 0x3841 PUSH2 0x35E7 DUP3 PUSH2 0x3566 JUMP JUMPDEST DUP2 DUP2 MSTORE DUP5 PUSH1 0x20 DUP4 DUP7 ADD ADD GT ISZERO PUSH2 0x3856 JUMPI PUSH1 0x0 DUP1 REVERT JUMPDEST PUSH2 0xA00 DUP3 PUSH1 0x20 DUP4 ADD PUSH1 0x20 DUP8 ADD PUSH2 0x3633 JUMP JUMPDEST PUSH1 0x0 DUP1 PUSH1 0x40 DUP4 DUP6 SUB SLT ISZERO PUSH2 0x387A JUMPI PUSH1 0x0 DUP1 REVERT JUMPDEST DUP3 MLOAD PUSH1 0x1 PUSH1 0x1 PUSH1 0x40 SHL SUB DUP1 DUP3 GT ISZERO PUSH2 0x3891 JUMPI PUSH1 0x0 DUP1 REVERT JUMPDEST PUSH2 0x389D DUP7 DUP4 DUP8 ADD PUSH2 0x3822 JUMP JUMPDEST SWAP4 POP PUSH1 0x20 DUP6 ADD MLOAD SWAP2 POP DUP1 DUP3 GT ISZERO PUSH2 0x38B3 JUMPI PUSH1 0x0 DUP1 REVERT JUMPDEST POP PUSH2 0x38C0 DUP6 DUP3 DUP7 ADD PUSH2 0x3822 JUMP JUMPDEST SWAP2 POP POP SWAP3 POP SWAP3 SWAP1 POP JUMP JUMPDEST PUSH1 0x40 DUP2 MSTORE PUSH1 0x0 PUSH2 0x38DD PUSH1 0x40 DUP4 ADD DUP6 PUSH2 0x3657 JUMP JUMPDEST DUP3 DUP2 SUB PUSH1 0x20 DUP5 ADD MSTORE PUSH2 0x209D DUP2 DUP6 PUSH2 0x3657 JUMP JUMPDEST DUP1 CALLDATALOAD PUSH2 0x38FA DUP2 PUSH2 0x31E6 JUMP JUMPDEST PUSH1 0x1 PUSH1 0x1 PUSH1 0xA0 SHL SUB SWAP1 DUP2 AND DUP4 MSTORE PUSH1 0x20 DUP3 ADD CALLDATALOAD SWAP1 PUSH2 0x3916 DUP3 PUSH2 0x31E6 JUMP JUMPDEST AND PUSH1 0x20 DUP4 ADD MSTORE PUSH1 0x40 DUP2 DUP2 ADD CALLDATALOAD SWAP1 DUP4 ADD MSTORE PUSH1 0x60 SWAP1 DUP2 ADD CALLDATALOAD SWAP2 ADD MSTORE JUMP JUMPDEST PUSH1 0x80 DUP2 ADD PUSH2 0x7EC DUP3 DUP5 PUSH2 0x38EF JUMP JUMPDEST PUSH1 0x0 PUSH1 0x20 DUP3 DUP5 SUB SLT ISZERO PUSH2 0x3951 JUMPI PUSH1 0x0 DUP1 REVERT JUMPDEST POP MLOAD SWAP2 SWAP1 POP JUMP JUMPDEST DUP1 MLOAD PUSH2 0x10CA DUP2 PUSH2 0x33AC JUMP JUMPDEST PUSH1 0x0 PUSH1 0x20 DUP3 DUP5 SUB SLT ISZERO PUSH2 0x3975 JUMPI PUSH1 0x0 DUP1 REVERT JUMPDEST DUP2 MLOAD PUSH2 0x972 DUP2 PUSH2 0x33AC JUMP JUMPDEST PUSH1 0x1 PUSH1 0x1 PUSH1 0xE0 SHL SUB NOT SWAP2 SWAP1 SWAP2 AND DUP2 MSTORE PUSH1 0x20 ADD SWAP1 JUMP JUMPDEST PUSH1 0x1 DUP2 DUP2 SHR SWAP1 DUP3 AND DUP1 PUSH2 0x39A9 JUMPI PUSH1 0x7F DUP3 AND SWAP2 POP JUMPDEST PUSH1 0x20 DUP3 LT DUP2 SUB PUSH2 0x3760 JUMPI PUSH4 0x4E487B71 PUSH1 0xE0 SHL PUSH1 0x0 MSTORE PUSH1 0x22 PUSH1 0x4 MSTORE PUSH1 0x24 PUSH1 0x0 REVERT JUMPDEST PUSH1 0x1F DUP3 GT ISZERO PUSH2 0x3A0F JUMPI PUSH1 0x0 DUP2 DUP2 MSTORE PUSH1 0x20 DUP2 KECCAK256 PUSH1 0x1F DUP6 ADD PUSH1 0x5 SHR DUP2 ADD PUSH1 0x20 DUP7 LT ISZERO PUSH2 0x39F0 JUMPI POP DUP1 JUMPDEST PUSH1 0x1F DUP6 ADD PUSH1 0x5 SHR DUP3 ADD SWAP2 POP JUMPDEST DUP2 DUP2 LT ISZERO PUSH2 0x2C36 JUMPI DUP3 DUP2 SSTORE PUSH1 0x1 ADD PUSH2 0x39FC JUMP JUMPDEST POP POP POP JUMP JUMPDEST PUSH1 0x1 PUSH1 0x1 PUSH1 0x40 SHL SUB DUP4 GT ISZERO PUSH2 0x3A2B JUMPI PUSH2 0x3A2B PUSH2 0x34F8 JUMP JUMPDEST PUSH2 0x3A3F DUP4 PUSH2 0x3A39 DUP4 SLOAD PUSH2 0x3995 JUMP JUMPDEST DUP4 PUSH2 0x39C9 JUMP JUMPDEST PUSH1 0x0 PUSH1 0x1F DUP5 GT PUSH1 0x1 DUP2 EQ PUSH2 0x3A73 JUMPI PUSH1 0x0 DUP6 ISZERO PUSH2 0x3A5B JUMPI POP DUP4 DUP3 ADD CALLDATALOAD JUMPDEST PUSH1 0x0 NOT PUSH1 0x3 DUP8 SWAP1 SHL SHR NOT AND PUSH1 0x1 DUP7 SWAP1 SHL OR DUP4 SSTORE PUSH2 0x3ACD JUMP JUMPDEST PUSH1 0x0 DUP4 DUP2 MSTORE PUSH1 0x20 SWAP1 KECCAK256 PUSH1 0x1F NOT DUP7 AND SWAP1 DUP4 JUMPDEST DUP3 DUP2 LT ISZERO PUSH2 0x3AA4 JUMPI DUP7 DUP6 ADD CALLDATALOAD DUP3 SSTORE PUSH1 0x20 SWAP5 DUP6 ADD SWAP5 PUSH1 0x1 SWAP1 SWAP3 ADD SWAP2 ADD PUSH2 0x3A84 JUMP JUMPDEST POP DUP7 DUP3 LT ISZERO PUSH2 0x3AC1 JUMPI PUSH1 0x0 NOT PUSH1 0xF8 DUP9 PUSH1 0x3 SHL AND SHR NOT DUP5 DUP8 ADD CALLDATALOAD AND DUP2 SSTORE JUMPDEST POP POP PUSH1 0x1 DUP6 PUSH1 0x1 SHL ADD DUP4 SSTORE JUMPDEST POP POP POP POP POP JUMP JUMPDEST PUSH1 0x20 DUP1 DUP3 MSTORE PUSH1 0x15 SWAP1 DUP3 ADD MSTORE PUSH21 0x125B1B1959D85B0810DBDB9D1C9858DD0810D85B1B PUSH1 0x5A SHL PUSH1 0x40 DUP3 ADD MSTORE PUSH1 0x60 ADD SWAP1 JUMP JUMPDEST PUSH1 0x20 DUP1 DUP3 MSTORE PUSH1 0x14 SWAP1 DUP3 ADD MSTORE PUSH20 0x141C9BDE1E4810D85B1B195908125B9D985B1A59 PUSH1 0x62 SHL PUSH1 0x40 DUP3 ADD MSTORE PUSH1 0x60 ADD SWAP1 JUMP JUMPDEST PUSH1 0x20 DUP1 DUP3 MSTORE PUSH1 0x17 SWAP1 DUP3 ADD MSTORE PUSH32 0x536166654D6F64653A2043616C6C2052656A6563746564000000000000000000 PUSH1 0x40 DUP3 ADD MSTORE PUSH1 0x60 ADD SWAP1 JUMP JUMPDEST PUSH1 0x0 PUSH1 0x20 DUP3 DUP5 SUB SLT ISZERO PUSH2 0x3B7A JUMPI PUSH1 0x0 DUP1 REVERT JUMPDEST DUP2 MLOAD PUSH2 0x972 DUP2 PUSH2 0x31E6 JUMP JUMPDEST PUSH1 0x20 DUP1 DUP3 MSTORE DUP2 DUP2 ADD DUP4 SWAP1 MSTORE PUSH1 0x0 SWAP1 PUSH1 0x40 DUP1 DUP5 ADD DUP7 DUP5 JUMPDEST DUP8 DUP2 LT ISZERO PUSH2 0x3BE8 JUMPI DUP2 CALLDATALOAD PUSH2 0x3BAE DUP2 PUSH2 0x31E6 JUMP JUMPDEST PUSH1 0x1 PUSH1 0x1 PUSH1 0xA0 SHL SUB SWAP1 DUP2 AND DUP5 MSTORE DUP3 DUP7 ADD CALLDATALOAD SWAP1 PUSH2 0x3BC9 DUP3 PUSH2 0x31E6 JUMP JUMPDEST AND DUP4 DUP7 ADD MSTORE DUP2 DUP5 ADD CALLDATALOAD DUP5 DUP5 ADD MSTORE PUSH1 0x60 SWAP3 DUP4 ADD SWAP3 SWAP1 SWAP2 ADD SWAP1 PUSH1 0x1 ADD PUSH2 0x3B9B JUMP JUMPDEST POP SWAP1 SWAP8 SWAP7 POP POP POP POP POP POP POP JUMP JUMPDEST PUSH1 0x20 DUP1 DUP3 MSTORE DUP2 DUP2 ADD DUP4 SWAP1 MSTORE PUSH1 0x0 SWAP1 PUSH1 0x40 DUP1 DUP5 ADD DUP7 DUP5 JUMPDEST DUP8 DUP2 LT ISZERO PUSH2 0x3BE8 JUMPI DUP2 CALLDATALOAD PUSH2 0x3C1E DUP2 PUSH2 0x31E6 JUMP JUMPDEST PUSH1 0x1 PUSH1 0x1 PUSH1 0xA0 SHL SUB AND DUP4 MSTORE DUP2 DUP6 ADD CALLDATALOAD DUP6 DUP5 ADD MSTORE SWAP2 DUP4 ADD SWAP2 SWAP1 DUP4 ADD SWAP1 PUSH1 0x1 ADD PUSH2 0x3C0B JUMP JUMPDEST PUSH1 0x20 DUP1 DUP3 MSTORE DUP2 ADD DUP3 SWAP1 MSTORE PUSH1 0x0 DUP4 PUSH1 0x40 DUP4 ADD DUP3 JUMPDEST DUP6 DUP2 LT ISZERO PUSH2 0x3C79 JUMPI PUSH2 0x3C66 DUP3 DUP5 PUSH2 0x38EF JUMP JUMPDEST PUSH1 0x80 SWAP3 DUP4 ADD SWAP3 SWAP2 SWAP1 SWAP2 ADD SWAP1 PUSH1 0x1 ADD PUSH2 0x3C54 JUMP JUMPDEST POP SWAP6 SWAP5 POP POP POP POP POP JUMP JUMPDEST PUSH1 0x0 PUSH1 0x1 PUSH1 0x1 PUSH1 0x40 SHL SUB DUP3 GT ISZERO PUSH2 0x3C9C JUMPI PUSH2 0x3C9C PUSH2 0x34F8 JUMP JUMPDEST POP PUSH1 0x5 SHL PUSH1 0x20 ADD SWAP1 JUMP JUMPDEST PUSH1 0x0 PUSH1 0x20 DUP1 DUP4 DUP6 SUB SLT ISZERO PUSH2 0x3CB9 JUMPI PUSH1 0x0 DUP1 REVERT JUMPDEST DUP3 MLOAD PUSH1 0x1 PUSH1 0x1 PUSH1 0x40 SHL SUB DUP2 GT ISZERO PUSH2 0x3CCF JUMPI PUSH1 0x0 DUP1 REVERT JUMPDEST DUP4 ADD PUSH1 0x1F DUP2 ADD DUP6 SGT PUSH2 0x3CE0 JUMPI PUSH1 0x0 DUP1 REVERT JUMPDEST DUP1 MLOAD PUSH2 0x3CEE PUSH2 0x35E7 DUP3 PUSH2 0x3C83 JUMP JUMPDEST DUP2 DUP2 MSTORE PUSH1 0x5 SWAP2 SWAP1 SWAP2 SHL DUP3 ADD DUP4 ADD SWAP1 DUP4 DUP2 ADD SWAP1 DUP8 DUP4 GT ISZERO PUSH2 0x3D0D JUMPI PUSH1 0x0 DUP1 REVERT JUMPDEST SWAP3 DUP5 ADD SWAP3 JUMPDEST DUP3 DUP5 LT ISZERO PUSH2 0x3D2B JUMPI DUP4 MLOAD DUP3 MSTORE SWAP3 DUP5 ADD SWAP3 SWAP1 DUP5 ADD SWAP1 PUSH2 0x3D12 JUMP JUMPDEST SWAP8 SWAP7 POP POP POP POP POP POP POP JUMP JUMPDEST PUSH1 0x0 DUP1 DUP4 CALLDATALOAD PUSH1 0x1E NOT DUP5 CALLDATASIZE SUB ADD DUP2 SLT PUSH2 0x3D4D JUMPI PUSH1 0x0 DUP1 REVERT JUMPDEST DUP4 ADD DUP1 CALLDATALOAD SWAP2 POP PUSH1 0x1 PUSH1 0x1 PUSH1 0x40 SHL SUB DUP3 GT ISZERO PUSH2 0x3D67 JUMPI PUSH1 0x0 DUP1 REVERT JUMPDEST PUSH1 0x20 ADD SWAP2 POP CALLDATASIZE DUP2 SWAP1 SUB DUP3 SGT ISZERO PUSH2 0x3D7C JUMPI PUSH1 0x0 DUP1 REVERT JUMPDEST SWAP3 POP SWAP3 SWAP1 POP JUMP JUMPDEST DUP2 DUP4 DUP3 CALLDATACOPY PUSH1 0x0 SWAP2 ADD SWAP1 DUP2 MSTORE SWAP2 SWAP1 POP JUMP JUMPDEST PUSH1 0x0 DUP3 PUSH1 0x1F DUP4 ADD SLT PUSH2 0x3DA4 JUMPI PUSH1 0x0 DUP1 REVERT JUMPDEST DUP2 MLOAD PUSH1 0x20 PUSH2 0x3DB4 PUSH2 0x35E7 DUP4 PUSH2 0x3C83 JUMP JUMPDEST DUP3 DUP2 MSTORE PUSH1 0x5 SWAP3 SWAP1 SWAP3 SHL DUP5 ADD DUP2 ADD SWAP2 DUP2 DUP2 ADD SWAP1 DUP7 DUP5 GT ISZERO PUSH2 0x3DD3 JUMPI PUSH1 0x0 DUP1 REVERT JUMPDEST DUP3 DUP7 ADD JUMPDEST DUP5 DUP2 LT ISZERO PUSH2 0x3EC4 JUMPI DUP1 MLOAD PUSH1 0x1 PUSH1 0x1 PUSH1 0x40 SHL SUB DUP1 DUP3 GT ISZERO PUSH2 0x3DF7 JUMPI PUSH1 0x0 DUP1 DUP2 REVERT JUMPDEST SWAP1 DUP9 ADD SWAP1 PUSH1 0x60 DUP3 DUP12 SUB PUSH1 0x1F NOT ADD DUP2 SGT ISZERO PUSH2 0x3E11 JUMPI PUSH1 0x0 DUP1 DUP2 REVERT JUMPDEST PUSH2 0x3E19 PUSH2 0x350E JUMP JUMPDEST DUP8 DUP5 ADD MLOAD DUP2 MSTORE PUSH1 0x40 DUP1 DUP6 ADD MLOAD DUP5 DUP2 GT ISZERO PUSH2 0x3E33 JUMPI PUSH1 0x0 DUP1 DUP2 REVERT JUMPDEST DUP6 ADD SWAP4 POP PUSH1 0x3F DUP5 ADD DUP14 SGT PUSH2 0x3E47 JUMPI PUSH1 0x0 DUP1 DUP2 REVERT JUMPDEST DUP9 DUP5 ADD MLOAD PUSH2 0x3E57 PUSH2 0x35E7 DUP3 PUSH2 0x3C83 JUMP JUMPDEST DUP2 DUP2 MSTORE PUSH1 0x5 SWAP2 SWAP1 SWAP2 SHL DUP6 ADD DUP3 ADD SWAP1 DUP11 DUP2 ADD SWAP1 DUP16 DUP4 GT ISZERO PUSH2 0x3E77 JUMPI PUSH1 0x0 DUP1 DUP2 REVERT JUMPDEST SWAP6 DUP4 ADD SWAP6 JUMPDEST DUP3 DUP8 LT ISZERO PUSH2 0x3E9E JUMPI DUP7 MLOAD PUSH2 0x3E8F DUP2 PUSH2 0x31B3 JUMP JUMPDEST DUP3 MSTORE SWAP6 DUP12 ADD SWAP6 SWAP1 DUP12 ADD SWAP1 PUSH2 0x3E7C JUMP JUMPDEST DUP5 DUP13 ADD MSTORE POP PUSH2 0x3EB0 SWAP1 POP DUP6 DUP5 ADD PUSH2 0x3958 JUMP JUMPDEST SWAP1 DUP3 ADD MSTORE DUP7 MSTORE POP POP POP SWAP2 DUP4 ADD SWAP2 DUP4 ADD PUSH2 0x3DD7 JUMP JUMPDEST POP SWAP7 SWAP6 POP POP POP POP POP POP JUMP JUMPDEST PUSH1 0x0 DUP1 DUP3 DUP5 SUB PUSH1 0xC0 DUP2 SLT ISZERO PUSH2 0x3EE3 JUMPI PUSH1 0x0 DUP1 REVERT JUMPDEST PUSH1 0xA0 DUP2 SLT ISZERO PUSH2 0x3EF1 JUMPI PUSH1 0x0 DUP1 REVERT JUMPDEST POP PUSH1 0x40 MLOAD PUSH1 0xA0 DUP2 ADD PUSH1 0x1 PUSH1 0x1 PUSH1 0x40 SHL SUB DUP3 DUP3 LT DUP2 DUP4 GT OR ISZERO PUSH2 0x3F15 JUMPI PUSH2 0x3F15 PUSH2 0x34F8 JUMP JUMPDEST DUP2 PUSH1 0x40 MSTORE DUP6 MLOAD DUP4 MSTORE PUSH1 0x20 DUP7 ADD MLOAD PUSH1 0x20 DUP5 ADD MSTORE PUSH1 0x40 DUP7 ADD MLOAD PUSH1 0x40 DUP5 ADD MSTORE PUSH1 0x60 DUP7 ADD MLOAD SWAP2 POP PUSH2 0x3F41 DUP3 PUSH2 0x31E6 JUMP JUMPDEST DUP2 PUSH1 0x60 DUP5 ADD MSTORE PUSH1 0x80 DUP7 ADD MLOAD SWAP2 POP PUSH2 0x3F57 DUP3 PUSH2 0x33AC JUMP JUMPDEST PUSH1 0x80 DUP4 ADD DUP3 SWAP1 MSTORE PUSH1 0xA0 DUP7 ADD MLOAD SWAP3 SWAP5 POP DUP1 DUP4 GT ISZERO PUSH2 0x3F73 JUMPI PUSH1 0x0 DUP1 REVERT JUMPDEST POP POP PUSH2 0x38C0 DUP6 DUP3 DUP7 ADD PUSH2 0x3D93 JUMP JUMPDEST DUP2 DUP4 MSTORE DUP2 DUP2 PUSH1 0x20 DUP6 ADD CALLDATACOPY POP PUSH1 0x0 DUP3 DUP3 ADD PUSH1 0x20 SWAP1 DUP2 ADD SWAP2 SWAP1 SWAP2 MSTORE PUSH1 0x1F SWAP1 SWAP2 ADD PUSH1 0x1F NOT AND SWAP1 SWAP2 ADD ADD SWAP1 JUMP JUMPDEST PUSH1 0xE0 DUP2 MSTORE PUSH1 0x0 PUSH2 0x3FBE PUSH1 0xE0 DUP4 ADD DUP7 DUP9 PUSH2 0x3F81 JUMP JUMPDEST PUSH1 0x20 DUP6 MLOAD DUP2 DUP6 ADD MSTORE DUP1 DUP7 ADD MLOAD PUSH1 0x40 DUP2 DUP2 DUP8 ADD MSTORE DUP1 DUP9 ADD MLOAD SWAP2 POP PUSH1 0x60 DUP3 DUP2 DUP9 ADD MSTORE DUP1 DUP10 ADD MLOAD SWAP3 POP PUSH1 0x80 PUSH1 0x1 DUP1 PUSH1 0xA0 SHL SUB DUP5 AND DUP2 DUP10 ADD MSTORE DUP1 DUP11 ADD MLOAD ISZERO ISZERO PUSH1 0xA0 DUP10 ADD MSTORE DUP8 DUP7 SUB PUSH1 0xC0 DUP10 ADD MSTORE DUP6 SWAP4 POP DUP9 MLOAD DUP1 DUP8 MSTORE DUP6 DUP8 ADD SWAP5 POP DUP6 DUP2 PUSH1 0x5 SHL DUP9 ADD ADD DUP7 DUP12 ADD PUSH1 0x0 DUP1 JUMPDEST DUP5 DUP2 LT ISZERO PUSH2 0x40A1 JUMPI DUP11 DUP5 SUB PUSH1 0x1F NOT ADD DUP10 MSTORE DUP3 MLOAD DUP1 MLOAD DUP6 MSTORE DUP11 DUP2 ADD MLOAD DUP12 DUP7 ADD DUP10 SWAP1 MSTORE DUP1 MLOAD DUP10 DUP8 ADD DUP2 SWAP1 MSTORE SWAP1 DUP13 ADD SWAP1 DUP5 SWAP1 DUP10 DUP9 ADD SWAP1 JUMPDEST DUP1 DUP4 LT ISZERO PUSH2 0x4080 JUMPI DUP4 MLOAD PUSH1 0x1 PUSH1 0x1 PUSH1 0xE0 SHL SUB NOT AND DUP3 MSTORE SWAP3 DUP15 ADD SWAP3 PUSH1 0x1 SWAP3 SWAP1 SWAP3 ADD SWAP2 SWAP1 DUP15 ADD SWAP1 PUSH2 0x4056 JUMP JUMPDEST POP SWAP3 DUP12 ADD MLOAD ISZERO ISZERO SWAP7 DUP12 ADD SWAP7 SWAP1 SWAP7 MSTORE POP SWAP9 DUP11 ADD SWAP9 SWAP4 POP SWAP2 DUP10 ADD SWAP2 PUSH1 0x1 ADD PUSH2 0x4022 JUMP JUMPDEST POP SWAP2 SWAP16 SWAP15 POP POP POP POP POP POP POP POP POP POP POP POP POP POP POP JUMP JUMPDEST PUSH1 0x80 DUP2 MSTORE PUSH1 0x0 PUSH2 0x40CA PUSH1 0x80 DUP4 ADD DUP9 DUP11 PUSH2 0x3F81 JUMP JUMPDEST DUP3 DUP2 SUB PUSH1 0x20 DUP5 ADD MSTORE PUSH2 0x40DD DUP2 DUP8 DUP10 PUSH2 0x3F81 JUMP JUMPDEST SWAP2 POP POP DUP4 PUSH1 0x40 DUP4 ADD MSTORE PUSH2 0xFFFF DUP4 AND PUSH1 0x60 DUP4 ADD MSTORE SWAP8 SWAP7 POP POP POP POP POP POP POP JUMP JUMPDEST PUSH1 0x0 DUP1 DUP4 CALLDATALOAD PUSH1 0x1E NOT DUP5 CALLDATASIZE SUB ADD DUP2 SLT PUSH2 0x4112 JUMPI PUSH1 0x0 DUP1 REVERT JUMPDEST DUP4 ADD PUSH1 0x20 DUP2 ADD SWAP3 POP CALLDATALOAD SWAP1 POP PUSH1 0x1 PUSH1 0x1 PUSH1 0x40 SHL SUB DUP2 GT ISZERO PUSH2 0x4131 JUMPI PUSH1 0x0 DUP1 REVERT JUMPDEST DUP1 CALLDATASIZE SUB DUP3 SGT ISZERO PUSH2 0x3D7C JUMPI PUSH1 0x0 DUP1 REVERT JUMPDEST PUSH1 0x0 DUP2 SLOAD PUSH2 0x414D DUP2 PUSH2 0x3995 JUMP JUMPDEST DUP1 DUP6 MSTORE PUSH1 0x20 PUSH1 0x1 DUP4 DUP2 AND DUP1 ISZERO PUSH2 0x416A JUMPI PUSH1 0x1 DUP2 EQ PUSH2 0x4184 JUMPI PUSH2 0x41B2 JUMP JUMPDEST PUSH1 0xFF NOT DUP6 AND DUP9 DUP5 ADD MSTORE DUP4 ISZERO ISZERO PUSH1 0x5 SHL DUP9 ADD DUP4 ADD SWAP6 POP PUSH2 0x41B2 JUMP JUMPDEST DUP7 PUSH1 0x0 MSTORE DUP3 PUSH1 0x0 KECCAK256 PUSH1 0x0 JUMPDEST DUP6 DUP2 LT ISZERO PUSH2 0x41AA JUMPI DUP2 SLOAD DUP11 DUP3 ADD DUP7 ADD MSTORE SWAP1 DUP4 ADD SWAP1 DUP5 ADD PUSH2 0x418F JUMP JUMPDEST DUP10 ADD DUP5 ADD SWAP7 POP POP JUMPDEST POP POP POP POP POP SWAP3 SWAP2 POP POP JUMP JUMPDEST DUP6 DUP2 MSTORE PUSH1 0xA0 PUSH1 0x20 DUP3 ADD MSTORE DUP5 CALLDATALOAD PUSH1 0xA0 DUP3 ADD MSTORE PUSH1 0x20 DUP6 ADD CALLDATALOAD PUSH1 0xC0 DUP3 ADD MSTORE PUSH1 0x0 PUSH1 0x40 DUP7 ADD CALLDATALOAD PUSH2 0x41E8 DUP2 PUSH2 0x31E6 JUMP JUMPDEST PUSH1 0x1 PUSH1 0x1 PUSH1 0xA0 SHL SUB AND PUSH1 0xE0 DUP4 ADD MSTORE PUSH2 0x4203 PUSH1 0x60 DUP8 ADD DUP8 PUSH2 0x40FB JUMP JUMPDEST PUSH1 0xA0 PUSH2 0x100 DUP6 ADD MSTORE PUSH2 0x421A PUSH2 0x140 DUP6 ADD DUP3 DUP5 PUSH2 0x3F81 JUMP JUMPDEST SWAP2 POP POP PUSH2 0x422A PUSH1 0x80 DUP9 ADD DUP9 PUSH2 0x40FB JUMP JUMPDEST DUP5 DUP4 SUB PUSH1 0x9F NOT ADD PUSH2 0x120 DUP7 ADD MSTORE PUSH2 0x4242 DUP4 DUP3 DUP5 PUSH2 0x3F81 JUMP JUMPDEST SWAP3 POP POP POP PUSH2 0x425B PUSH1 0x40 DUP5 ADD DUP8 PUSH1 0x1 PUSH1 0x1 PUSH1 0xA0 SHL SUB AND SWAP1 MSTORE JUMP JUMPDEST PUSH1 0x1 PUSH1 0x1 PUSH1 0xA0 SHL SUB DUP6 AND PUSH1 0x60 DUP5 ADD MSTORE DUP3 DUP2 SUB PUSH1 0x80 DUP5 ADD MSTORE PUSH2 0x427C DUP2 DUP6 PUSH2 0x4140 JUMP JUMPDEST SWAP9 SWAP8 POP POP POP POP POP POP POP POP JUMP JUMPDEST PUSH1 0x0 DUP1 PUSH1 0x40 DUP4 DUP6 SUB SLT ISZERO PUSH2 0x429B JUMPI PUSH1 0x0 DUP1 REVERT JUMPDEST DUP3 MLOAD PUSH2 0x42A6 DUP2 PUSH2 0x31E6 JUMP JUMPDEST PUSH1 0x20 DUP5 ADD MLOAD SWAP1 SWAP3 POP PUSH2 0x33E8 DUP2 PUSH2 0x31E6 JUMP JUMPDEST PUSH1 0x0 DUP1 PUSH1 0x40 DUP4 DUP6 SUB SLT ISZERO PUSH2 0x42CA JUMPI PUSH1 0x0 DUP1 REVERT JUMPDEST DUP3 MLOAD PUSH2 0x42A6 DUP2 PUSH2 0x33AC JUMP JUMPDEST PUSH4 0x4E487B71 PUSH1 0xE0 SHL PUSH1 0x0 MSTORE PUSH1 0x32 PUSH1 0x4 MSTORE PUSH1 0x24 PUSH1 0x0 REVERT JUMPDEST PUSH4 0x4E487B71 PUSH1 0xE0 SHL PUSH1 0x0 MSTORE PUSH1 0x11 PUSH1 0x4 MSTORE PUSH1 0x24 PUSH1 0x0 REVERT JUMPDEST PUSH1 0x0 PUSH1 0x1 DUP3 ADD PUSH2 0x4313 JUMPI PUSH2 0x4313 PUSH2 0x42EB JUMP JUMPDEST POP PUSH1 0x1 ADD SWAP1 JUMP JUMPDEST PUSH1 0x1 PUSH1 0x1 PUSH1 0xA0 SHL SUB DUP4 DUP2 AND DUP3 MSTORE PUSH2 0x100 DUP3 ADD SWAP1 PUSH1 0x20 DUP1 DUP5 ADD DUP6 PUSH1 0x0 JUMPDEST PUSH1 0x7 DUP2 LT ISZERO PUSH2 0x4355 JUMPI DUP2 MLOAD DUP6 AND DUP4 MSTORE SWAP2 DUP4 ADD SWAP2 SWAP1 DUP4 ADD SWAP1 PUSH1 0x1 ADD PUSH2 0x4336 JUMP JUMPDEST POP POP POP POP POP SWAP4 SWAP3 POP POP POP JUMP JUMPDEST SWAP3 DUP4 MSTORE PUSH1 0x1 PUSH1 0x1 PUSH1 0xA0 SHL SUB SWAP2 SWAP1 SWAP2 AND PUSH1 0x20 DUP4 ADD MSTORE PUSH1 0x1 PUSH1 0x1 PUSH1 0xE0 SHL SUB NOT AND PUSH1 0x40 DUP3 ADD MSTORE PUSH1 0x60 ADD SWAP1 JUMP JUMPDEST DUP2 DUP2 SUB DUP2 DUP2 GT ISZERO PUSH2 0x7EC JUMPI PUSH2 0x7EC PUSH2 0x42EB JUMP JUMPDEST PUSH1 0x0 DUP3 MLOAD PUSH2 0x43AF DUP2 DUP5 PUSH1 0x20 DUP8 ADD PUSH2 0x3633 JUMP JUMPDEST SWAP2 SWAP1 SWAP2 ADD SWAP3 SWAP2 POP POP JUMP INVALID DIFFICULTY PUSH6 0x6C6567617465 PUSH4 0x616C6C20 PUSH10 0x735265616C6D55706772 PUSH2 0x6461 PUSH3 0x6C6520 CHAINID PUSH2 0x696C PUSH6 0x64360894A13B LOG1 LOG3 0x21 MOD PUSH8 0xC828492DB98DCA3E KECCAK256 PUSH23 0xCC3735A920A3CA505D382BBCA26469706673582212200F EXTCODESIZE RETURN SWAP5 KECCAK256 0xC8 0xDD PUSH4 0x6FB4F880 PUSH6 0x61539D8247B8 ISZERO 0xC3 0xBD 0xB2 PUSH23 0xF1F9B4CDED02DBC364736F6C63430008110033B5312768 0x4A JUMP DUP12 BALANCE PUSH20 0xAE13B9F8A6016E243E63B6E8EE1178D6A717850B 0x5D PUSH2 0x300 "
    },
    "gasEstimates": {
      "creation": {
        "codeDepositCost": "3492000",
        "executionCost": "infinite",
        "totalCost": "infinite"
      },
      "external": {
        "": "230",
        "accessControlManager()": "2486",
        "contractContext()": "440",
        "contractName()": "2382",
        "contractRealm()": "2403",
        "contractVersion()": "2381",
        "createAsset((bytes32,bytes32,address,string,string))": "infinite",
        "domainSeparator()": "4749",
        "getAllTokens()": "infinite",
        "getAssetSubject()": "2442",
        "getLibrary()": "325",
        "getTokenInfo(address)": "infinite",
        "initVersion()": "2391",
        "initialize((string,string,string,address,bytes))": "infinite",
        "isAssetExists(address)": "infinite",
        "isSafeMode()": "2355",
        "isSafeModeAsset(address)": "infinite",
        "isTokenExists(address)": "infinite",
        "isUpgradable()": "2355",
        "livelyTokensDistribution(address)": "infinite",
        "localAdmin()": "2511",
        "predictAddress(address,bytes32,address)": "infinite",
        "proxiableUUID()": "infinite",
        "registerAsset(address)": "infinite",
        "registerToken(address)": "infinite",
        "removeAsset(address)": "infinite",
        "setLocalAdmin(address)": "infinite",
        "setSafeMode(bool)": "infinite",
        "setSafeModeToken(address,bool)": "infinite",
        "setUpgradeStatus(bool)": "infinite",
        "subjectAddress()": "infinite",
        "supportsInterface(bytes4)": "infinite",
        "tokenApprove(address,address,uint256)": "infinite",
        "tokenBatchLock(address,(address,address,uint256,uint256)[])": "infinite",
        "tokenBatchTransfer(address,(address,uint256)[])": "infinite",
        "tokenBatchTransferFrom(address,(address,address,uint256)[])": "infinite",
        "tokenDecreaseAllowance(address,address,uint256)": "infinite",
        "tokenIncreaseAllowance(address,address,uint256)": "infinite",
        "tokenLock(address,(address,address,uint256,uint256))": "infinite",
        "tokenTransfer(address,address,uint256)": "infinite",
        "tokenTransferFrom(address,address,address,uint256)": "infinite",
        "updateAssetSubject(address,bytes)": "infinite",
        "upgradeTo(address,bytes,bool)": "infinite",
        "withdrawBalance(address)": "infinite"
      },
      "internal": {
        "_policyInterceptor(bytes4)": "infinite",
        "_validationAndPolicyInterceptor(address,bytes4)": "infinite"
      }
    },
    "methodIdentifiers": {
      "accessControlManager()": "b4a0bdf3",
      "contractContext()": "870666cb",
      "contractName()": "75d0c0dc",
      "contractRealm()": "d3e024b8",
      "contractVersion()": "a0a8e460",
      "createAsset((bytes32,bytes32,address,string,string))": "b484c889",
      "domainSeparator()": "f698da25",
      "getAllTokens()": "2a5c792a",
      "getAssetSubject()": "611376f5",
      "getLibrary()": "7678922e",
      "getTokenInfo(address)": "1f69565f",
      "initVersion()": "38d38c97",
      "initialize((string,string,string,address,bytes))": "aab405fe",
      "isAssetExists(address)": "67eb04e6",
      "isSafeMode()": "be22465d",
      "isSafeModeAsset(address)": "c5d39a4a",
      "isTokenExists(address)": "9ed4fa5a",
      "isUpgradable()": "5479d940",
      "livelyTokensDistribution(address)": "ff4d8e4a",
      "localAdmin()": "f94a0adb",
      "predictAddress(address,bytes32,address)": "ef34f291",
      "proxiableUUID()": "52d1902d",
      "registerAsset(address)": "d312998f",
      "registerToken(address)": "09824a80",
      "removeAsset(address)": "4a5e42b1",
      "setLocalAdmin(address)": "d9dc1f19",
      "setSafeMode(bool)": "44b7e5f2",
      "setSafeModeToken(address,bool)": "373c52fa",
      "setUpgradeStatus(bool)": "48e6be1c",
      "subjectAddress()": "58dbc45d",
      "supportsInterface(bytes4)": "01ffc9a7",
      "tokenApprove(address,address,uint256)": "fb3f4d29",
      "tokenBatchLock(address,(address,address,uint256,uint256)[])": "7a09941e",
      "tokenBatchTransfer(address,(address,uint256)[])": "622110e1",
      "tokenBatchTransferFrom(address,(address,address,uint256)[])": "565bf1fa",
      "tokenDecreaseAllowance(address,address,uint256)": "3091a548",
      "tokenIncreaseAllowance(address,address,uint256)": "1bdc5627",
      "tokenLock(address,(address,address,uint256,uint256))": "0bb0ccaa",
      "tokenTransfer(address,address,uint256)": "15eaef6b",
      "tokenTransferFrom(address,address,address,uint256)": "f3913e69",
      "updateAssetSubject(address,bytes)": "1b87323d",
      "upgradeTo(address,bytes,bool)": "7147855d",
      "withdrawBalance(address)": "756af45f"
    }
  },
  "storageLayout": {
    "storage": [
      {
        "astId": 19657,
        "contract": "src/contracts/token/asset/AssetManagerERC20.sol:AssetManagerERC20",
        "label": "_domainName",
        "offset": 0,
        "slot": "0",
        "type": "t_bytes32"
      },
      {
        "astId": 19659,
        "contract": "src/contracts/token/asset/AssetManagerERC20.sol:AssetManagerERC20",
        "label": "_domainVersion",
        "offset": 0,
        "slot": "1",
        "type": "t_bytes32"
      },
      {
        "astId": 19661,
        "contract": "src/contracts/token/asset/AssetManagerERC20.sol:AssetManagerERC20",
        "label": "_domainRealm",
        "offset": 0,
        "slot": "2",
        "type": "t_bytes32"
      },
      {
        "astId": 19663,
        "contract": "src/contracts/token/asset/AssetManagerERC20.sol:AssetManagerERC20",
        "label": "_accessControlManager",
        "offset": 0,
        "slot": "3",
        "type": "t_address"
      },
      {
        "astId": 19665,
        "contract": "src/contracts/token/asset/AssetManagerERC20.sol:AssetManagerERC20",
        "label": "_isSafeMode",
        "offset": 20,
        "slot": "3",
        "type": "t_bool"
      },
      {
        "astId": 19667,
        "contract": "src/contracts/token/asset/AssetManagerERC20.sol:AssetManagerERC20",
        "label": "_isUpgradable",
        "offset": 21,
        "slot": "3",
        "type": "t_bool"
      },
      {
        "astId": 19672,
        "contract": "src/contracts/token/asset/AssetManagerERC20.sol:AssetManagerERC20",
        "label": "__reserved",
        "offset": 0,
        "slot": "4",
        "type": "t_array(t_uint256)64_storage"
      },
      {
        "astId": 23039,
        "contract": "src/contracts/token/asset/AssetManagerERC20.sol:AssetManagerERC20",
        "label": "_assetSubjectERC20",
        "offset": 0,
        "slot": "68",
        "type": "t_address"
      },
      {
        "astId": 23041,
        "contract": "src/contracts/token/asset/AssetManagerERC20.sol:AssetManagerERC20",
        "label": "_assetCreationSignature",
        "offset": 0,
        "slot": "69",
        "type": "t_bytes_storage"
      },
      {
        "astId": 23044,
        "contract": "src/contracts/token/asset/AssetManagerERC20.sol:AssetManagerERC20",
        "label": "_data",
        "offset": 0,
        "slot": "70",
        "type": "t_struct(DataCollection)23037_storage"
      },
      {
        "astId": 19840,
        "contract": "src/contracts/token/asset/AssetManagerERC20.sol:AssetManagerERC20",
        "label": "_initialized",
        "offset": 0,
        "slot": "73",
        "type": "t_uint16"
      },
      {
        "astId": 19843,
        "contract": "src/contracts/token/asset/AssetManagerERC20.sol:AssetManagerERC20",
        "label": "_initializing",
        "offset": 2,
        "slot": "73",
        "type": "t_bool"
      }
    ],
    "types": {
      "t_address": {
        "encoding": "inplace",
        "label": "address",
        "numberOfBytes": "20"
      },
      "t_array(t_bytes32)dyn_storage": {
        "base": "t_bytes32",
        "encoding": "dynamic_array",
        "label": "bytes32[]",
        "numberOfBytes": "32"
      },
      "t_array(t_uint256)64_storage": {
        "base": "t_uint256",
        "encoding": "inplace",
        "label": "uint256[64]",
        "numberOfBytes": "2048"
      },
      "t_bool": {
        "encoding": "inplace",
        "label": "bool",
        "numberOfBytes": "1"
      },
      "t_bytes32": {
        "encoding": "inplace",
        "label": "bytes32",
        "numberOfBytes": "32"
      },
      "t_bytes_storage": {
        "encoding": "bytes",
        "label": "bytes",
        "numberOfBytes": "32"
      },
      "t_enum(Status)24342": {
        "encoding": "inplace",
        "label": "enum IAssetEntity.Status",
        "numberOfBytes": "1"
      },
      "t_mapping(t_address,t_struct(TokenData)23028_storage)": {
        "encoding": "mapping",
        "key": "t_address",
        "label": "mapping(address => struct AssetManagerStorageERC20.TokenData)",
        "numberOfBytes": "32",
        "value": "t_struct(TokenData)23028_storage"
      },
      "t_mapping(t_bytes32,t_uint256)": {
        "encoding": "mapping",
        "key": "t_bytes32",
        "label": "mapping(bytes32 => uint256)",
        "numberOfBytes": "32",
        "value": "t_uint256"
      },
      "t_struct(AddressSet)15618_storage": {
        "encoding": "inplace",
        "label": "struct LEnumerableSet.AddressSet",
        "members": [
          {
            "astId": 15617,
            "contract": "src/contracts/token/asset/AssetManagerERC20.sol:AssetManagerERC20",
            "label": "_inner",
            "offset": 0,
            "slot": "0",
            "type": "t_struct(Set)15317_storage"
          }
        ],
        "numberOfBytes": "64"
      },
      "t_struct(DataCollection)23037_storage": {
        "encoding": "inplace",
        "label": "struct AssetManagerStorageERC20.DataCollection",
        "members": [
          {
            "astId": 23033,
            "contract": "src/contracts/token/asset/AssetManagerERC20.sol:AssetManagerERC20",
            "label": "tokens",
            "offset": 0,
            "slot": "0",
            "type": "t_mapping(t_address,t_struct(TokenData)23028_storage)"
          },
          {
            "astId": 23036,
            "contract": "src/contracts/token/asset/AssetManagerERC20.sol:AssetManagerERC20",
            "label": "tokensSet",
            "offset": 0,
            "slot": "1",
            "type": "t_struct(AddressSet)15618_storage"
          }
        ],
        "numberOfBytes": "96"
      },
      "t_struct(Set)15317_storage": {
        "encoding": "inplace",
        "label": "struct LEnumerableSet.Set",
        "members": [
          {
            "astId": 15312,
            "contract": "src/contracts/token/asset/AssetManagerERC20.sol:AssetManagerERC20",
            "label": "_values",
            "offset": 0,
            "slot": "0",
            "type": "t_array(t_bytes32)dyn_storage"
          },
          {
            "astId": 15316,
            "contract": "src/contracts/token/asset/AssetManagerERC20.sol:AssetManagerERC20",
            "label": "_indexes",
            "offset": 0,
            "slot": "1",
            "type": "t_mapping(t_bytes32,t_uint256)"
          }
        ],
        "numberOfBytes": "64"
      },
      "t_struct(TokenData)23028_storage": {
        "encoding": "inplace",
        "label": "struct AssetManagerStorageERC20.TokenData",
        "members": [
          {
            "astId": 23024,
            "contract": "src/contracts/token/asset/AssetManagerERC20.sol:AssetManagerERC20",
            "label": "assets",
            "offset": 0,
            "slot": "0",
            "type": "t_struct(AddressSet)15618_storage"
          },
          {
            "astId": 23027,
            "contract": "src/contracts/token/asset/AssetManagerERC20.sol:AssetManagerERC20",
            "label": "status",
            "offset": 0,
            "slot": "2",
            "type": "t_enum(Status)24342"
          }
        ],
        "numberOfBytes": "96"
      },
      "t_uint16": {
        "encoding": "inplace",
        "label": "uint16",
        "numberOfBytes": "2"
      },
      "t_uint256": {
        "encoding": "inplace",
        "label": "uint256",
        "numberOfBytes": "32"
      }
    }
  },
  "userdoc": {
    "kind": "user",
    "methods": {},
    "version": 1
  }
}