{
  "contractName": "BaseUUPSProxyTest",
  "sourceName": "src/contracts/test/proxy/BaseUUPSProxyTest.sol",
  "abi": [
    {
      "anonymous": false,
      "inputs": [
        {
          "indexed": true,
          "internalType": "address",
          "name": "sender",
          "type": "address"
        },
        {
          "indexed": true,
          "internalType": "address",
          "name": "proxy",
          "type": "address"
        },
        {
          "indexed": true,
          "internalType": "address",
          "name": "subject",
          "type": "address"
        },
        {
          "indexed": false,
          "internalType": "string",
          "name": "name",
          "type": "string"
        },
        {
          "indexed": false,
          "internalType": "string",
          "name": "version",
          "type": "string"
        },
        {
          "indexed": false,
          "internalType": "uint16",
          "name": "initCount",
          "type": "uint16"
        }
      ],
      "name": "Initialized",
      "type": "event"
    },
    {
      "anonymous": false,
      "inputs": [
        {
          "indexed": true,
          "internalType": "address",
          "name": "sender",
          "type": "address"
        },
        {
          "indexed": true,
          "internalType": "address",
          "name": "proxy",
          "type": "address"
        },
        {
          "indexed": false,
          "internalType": "address",
          "name": "acl",
          "type": "address"
        }
      ],
      "name": "ProxyAccessControlUpdated",
      "type": "event"
    },
    {
      "anonymous": false,
      "inputs": [
        {
          "indexed": true,
          "internalType": "address",
          "name": "sender",
          "type": "address"
        },
        {
          "indexed": true,
          "internalType": "address",
          "name": "proxy",
          "type": "address"
        },
        {
          "indexed": false,
          "internalType": "address",
          "name": "newAdmin",
          "type": "address"
        }
      ],
      "name": "ProxyLocalAdminUpdated",
      "type": "event"
    },
    {
      "anonymous": false,
      "inputs": [
        {
          "indexed": true,
          "internalType": "address",
          "name": "sender",
          "type": "address"
        },
        {
          "indexed": true,
          "internalType": "address",
          "name": "proxy",
          "type": "address"
        },
        {
          "indexed": false,
          "internalType": "enum IBaseProxy.ProxySafeModeStatus",
          "name": "sstat",
          "type": "uint8"
        }
      ],
      "name": "ProxySafeModeUpdated",
      "type": "event"
    },
    {
      "anonymous": false,
      "inputs": [
        {
          "indexed": true,
          "internalType": "address",
          "name": "sender",
          "type": "address"
        },
        {
          "indexed": true,
          "internalType": "address",
          "name": "proxy",
          "type": "address"
        },
        {
          "indexed": false,
          "internalType": "enum IBaseProxy.ProxyUpgradabilityStatus",
          "name": "ustat",
          "type": "uint8"
        }
      ],
      "name": "ProxyUpdatabilityUpdated",
      "type": "event"
    },
    {
      "anonymous": false,
      "inputs": [
        {
          "indexed": true,
          "internalType": "address",
          "name": "sender",
          "type": "address"
        },
        {
          "indexed": true,
          "internalType": "address",
          "name": "proxy",
          "type": "address"
        },
        {
          "indexed": true,
          "internalType": "address",
          "name": "newImplementation",
          "type": "address"
        }
      ],
      "name": "ProxyUpgraded",
      "type": "event"
    },
    {
      "anonymous": false,
      "inputs": [
        {
          "indexed": true,
          "internalType": "address",
          "name": "sender",
          "type": "address"
        },
        {
          "indexed": true,
          "internalType": "address",
          "name": "newImplementation",
          "type": "address"
        }
      ],
      "name": "UpgradeToAnonymous",
      "type": "event"
    },
    {
      "anonymous": false,
      "inputs": [
        {
          "indexed": true,
          "internalType": "address",
          "name": "sender",
          "type": "address"
        },
        {
          "indexed": true,
          "internalType": "address",
          "name": "newImplementation",
          "type": "address"
        }
      ],
      "name": "UpgradeToTester",
      "type": "event"
    },
    {
      "stateMutability": "payable",
      "type": "fallback"
    },
    {
      "inputs": [],
      "name": "LIVELY_ADMIN_ROLE",
      "outputs": [
        {
          "internalType": "bytes32",
          "name": "",
          "type": "bytes32"
        }
      ],
      "stateMutability": "view",
      "type": "function"
    },
    {
      "inputs": [],
      "name": "LIVELY_SYSTEM_ADMIN_ROLE",
      "outputs": [
        {
          "internalType": "bytes32",
          "name": "",
          "type": "bytes32"
        }
      ],
      "stateMutability": "view",
      "type": "function"
    },
    {
      "inputs": [],
      "name": "accessControlManager",
      "outputs": [
        {
          "internalType": "address",
          "name": "",
          "type": "address"
        }
      ],
      "stateMutability": "view",
      "type": "function"
    },
    {
      "inputs": [],
      "name": "contractName",
      "outputs": [
        {
          "internalType": "string",
          "name": "",
          "type": "string"
        }
      ],
      "stateMutability": "view",
      "type": "function"
    },
    {
      "inputs": [],
      "name": "contractVersion",
      "outputs": [
        {
          "internalType": "string",
          "name": "",
          "type": "string"
        }
      ],
      "stateMutability": "view",
      "type": "function"
    },
    {
      "inputs": [],
      "name": "domainSeparator",
      "outputs": [
        {
          "internalType": "bytes32",
          "name": "",
          "type": "bytes32"
        }
      ],
      "stateMutability": "view",
      "type": "function"
    },
    {
      "inputs": [],
      "name": "initVersion",
      "outputs": [
        {
          "internalType": "uint16",
          "name": "",
          "type": "uint16"
        }
      ],
      "stateMutability": "view",
      "type": "function"
    },
    {
      "inputs": [],
      "name": "localAdmin",
      "outputs": [
        {
          "internalType": "address",
          "name": "",
          "type": "address"
        }
      ],
      "stateMutability": "view",
      "type": "function"
    },
    {
      "inputs": [],
      "name": "proxiableUUID",
      "outputs": [
        {
          "internalType": "bytes32",
          "name": "",
          "type": "bytes32"
        }
      ],
      "stateMutability": "view",
      "type": "function"
    },
    {
      "inputs": [],
      "name": "proxyInfo",
      "outputs": [
        {
          "components": [
            {
              "internalType": "bytes32",
              "name": "domainSeparator",
              "type": "bytes32"
            },
            {
              "internalType": "string",
              "name": "name",
              "type": "string"
            },
            {
              "internalType": "string",
              "name": "version",
              "type": "string"
            },
            {
              "internalType": "address",
              "name": "acl",
              "type": "address"
            },
            {
              "internalType": "address",
              "name": "subject",
              "type": "address"
            },
            {
              "internalType": "address",
              "name": "localAdmin",
              "type": "address"
            },
            {
              "internalType": "uint16",
              "name": "initVersion",
              "type": "uint16"
            },
            {
              "internalType": "enum IBaseProxy.ProxySafeModeStatus",
              "name": "sstat",
              "type": "uint8"
            },
            {
              "internalType": "enum IBaseProxy.ProxyUpgradabilityStatus",
              "name": "ustat",
              "type": "uint8"
            }
          ],
          "internalType": "struct IProxy.ProxyInfo",
          "name": "",
          "type": "tuple"
        }
      ],
      "stateMutability": "view",
      "type": "function"
    },
    {
      "inputs": [],
      "name": "safeModeStatus",
      "outputs": [
        {
          "internalType": "enum IBaseProxy.ProxySafeModeStatus",
          "name": "",
          "type": "uint8"
        }
      ],
      "stateMutability": "view",
      "type": "function"
    },
    {
      "inputs": [
        {
          "internalType": "address",
          "name": "acl",
          "type": "address"
        }
      ],
      "name": "setAccessControlManager",
      "outputs": [
        {
          "internalType": "bool",
          "name": "",
          "type": "bool"
        }
      ],
      "stateMutability": "nonpayable",
      "type": "function"
    },
    {
      "inputs": [
        {
          "internalType": "address",
          "name": "newLocalAdmin",
          "type": "address"
        }
      ],
      "name": "setLocalAdmin",
      "outputs": [
        {
          "internalType": "bool",
          "name": "",
          "type": "bool"
        }
      ],
      "stateMutability": "nonpayable",
      "type": "function"
    },
    {
      "inputs": [
        {
          "internalType": "enum IBaseProxy.ProxySafeModeStatus",
          "name": "sstat",
          "type": "uint8"
        }
      ],
      "name": "setSafeModeStatus",
      "outputs": [
        {
          "internalType": "bool",
          "name": "",
          "type": "bool"
        }
      ],
      "stateMutability": "nonpayable",
      "type": "function"
    },
    {
      "inputs": [
        {
          "internalType": "enum IBaseProxy.ProxyUpgradabilityStatus",
          "name": "ustat",
          "type": "uint8"
        }
      ],
      "name": "setUpgradabilityStatus",
      "outputs": [
        {
          "internalType": "bool",
          "name": "",
          "type": "bool"
        }
      ],
      "stateMutability": "nonpayable",
      "type": "function"
    },
    {
      "inputs": [],
      "name": "subjectAddress",
      "outputs": [
        {
          "internalType": "address",
          "name": "",
          "type": "address"
        }
      ],
      "stateMutability": "view",
      "type": "function"
    },
    {
      "inputs": [
        {
          "internalType": "bytes4",
          "name": "interfaceId",
          "type": "bytes4"
        }
      ],
      "name": "supportsInterface",
      "outputs": [
        {
          "internalType": "bool",
          "name": "",
          "type": "bool"
        }
      ],
      "stateMutability": "view",
      "type": "function"
    },
    {
      "inputs": [],
      "name": "upgradabilityStatus",
      "outputs": [
        {
          "internalType": "enum IBaseProxy.ProxyUpgradabilityStatus",
          "name": "",
          "type": "uint8"
        }
      ],
      "stateMutability": "view",
      "type": "function"
    },
    {
      "inputs": [
        {
          "internalType": "address",
          "name": "newImplementation",
          "type": "address"
        },
        {
          "internalType": "bytes",
          "name": "data",
          "type": "bytes"
        },
        {
          "internalType": "bool",
          "name": "forceCall",
          "type": "bool"
        }
      ],
      "name": "upgradeTo",
      "outputs": [
        {
          "internalType": "bytes",
          "name": "",
          "type": "bytes"
        }
      ],
      "stateMutability": "nonpayable",
      "type": "function"
    },
    {
      "inputs": [
        {
          "internalType": "address",
          "name": "recepient",
          "type": "address"
        }
      ],
      "name": "withdrawBalance",
      "outputs": [
        {
          "internalType": "uint256",
          "name": "",
          "type": "uint256"
        }
      ],
      "stateMutability": "nonpayable",
      "type": "function"
    },
    {
      "stateMutability": "payable",
      "type": "receive"
    }
  ],
  "bytecode": "0x60a0604052306080523480156200001557600080fd5b506200004360017f360894a13ba1a3210667c828492db98dca3e2076cc3735a920a3ca505d382bbd62000125565b7f360894a13ba1a3210667c828492db98dca3e2076cc3735a920a3ca505d382bbc146200007457620000746200014d565b620000a160017fb53127684a568b3173ae13b9f8a6016e243e63b6e8ee1178d6a717850b5d610462000125565b600080516020620020ee83398151915214620000c157620000c16200014d565b33620000ea600080516020620020ee83398151915260001b6200012260201b620011a61760201c565b80546001600160a01b0319166001600160a01b03929092169190911790556002805461ffff60a01b1916608160a11b17905562000163565b90565b818103818111156200014757634e487b7160e01b600052601160045260246000fd5b92915050565b634e487b7160e01b600052600160045260246000fd5b608051611f29620001c5600039600081816103fd015281816104460152818161073301528181610773015281816108a201528181610975015281816109b501528181610e6901528181610ea90152818161102c015261106c0152611f296000f3fe6080604052600436106101175760003560e01c8063a0a8e4601161009a578063d9dc1f1911610061578063d9dc1f1914610316578063f698da2514610336578063f708ceb01461034b578063f94a0adb1461036b578063fbad36841461038057005b8063a0a8e46014610284578063a304e35314610299578063b4a0bdf3146102c1578063d49e164d146102df578063d8b319991461030157005b80635632ffd8116100de5780635632ffd8146101e057806358dbc45d146101f55780637147855d14610222578063756af45f1461024f57806375d0c0dc1461026f57005b806301ffc9a7146101205780630e32cb861461015557806338d38c9714610175578063399d6e381461019d57806352d1902d146101bd57005b3661011e57005b005b34801561012c57600080fd5b5061014061013b3660046119aa565b61039f565b60405190151581526020015b60405180910390f35b34801561016157600080fd5b506101406101703660046119eb565b6103f1565b34801561018157600080fd5b5061018a610713565b60405161ffff909116815260200161014c565b3480156101a957600080fd5b506101406101b8366004611a13565b610727565b3480156101c957600080fd5b506101d2610895565b60405190815260200161014c565b3480156101ec57600080fd5b506101d2610919565b34801561020157600080fd5b5061020a61095f565b6040516001600160a01b03909116815260200161014c565b34801561022e57600080fd5b5061024261023d366004611a5f565b610969565b60405161014c9190611b81565b34801561025b57600080fd5b506101d261026a3660046119eb565b610ac4565b34801561027b57600080fd5b50610242610b6d565b34801561029057600080fd5b50610242610bff565b3480156102a557600080fd5b50600254600160a01b900460ff165b60405161014c9190611bd5565b3480156102cd57600080fd5b506002546001600160a01b031661020a565b3480156102eb57600080fd5b506102f4610c0e565b60405161014c9190611be8565b34801561030d57600080fd5b506101d2610e38565b34801561032257600080fd5b506101406103313660046119eb565b610e5d565b34801561034257600080fd5b506101d2611016565b34801561035757600080fd5b50610140610366366004611a13565b611020565b34801561037757600080fd5b5061020a61119c565b34801561038c57600080fd5b50600254600160a81b900460ff166102b4565b60006001600160e01b031982166327d8f1fd60e21b14806103d057506001600160e01b031982166352d1902d60e01b145b806103eb57506301ffc9a760e01b6001600160e01b03198316145b92915050565b60006001600160a01b037f00000000000000000000000000000000000000000000000000000000000000001630036104445760405162461bcd60e51b815260040161043b90611cb5565b60405180910390fd5b7f00000000000000000000000000000000000000000000000000000000000000006001600160a01b03166104766111a9565b6001600160a01b03161461049c5760405162461bcd60e51b815260040161043b90611cdb565b336104a56111ca565b6001600160a01b0316146104ec5760405162461bcd60e51b815260206004820152600e60248201526d139bdd08105d5d1a1bdc9a5e995960921b604482015260640161043b565b600160028054600160a01b900460ff169081111561050c5761050c611b94565b146105295760405162461bcd60e51b815260040161043b90611d01565b6002808054600160a81b900460ff169081111561054857610548611b94565b146105865760405162461bcd60e51b815260206004820152600e60248201526d496c6c6567616c2055706461746560901b604482015260640161043b565b6001600160a01b0382166105ce5760405162461bcd60e51b815260206004820152600f60248201526e496c6c6567616c204164647265737360881b604482015260640161043b565b6002546001600160a01b03161561060b576105ef63d9dc1f1960e01b6111f2565b61060b5760405162461bcd60e51b815260040161043b90611d23565b6040516301ffc9a760e01b8152637a32793760e01b60048201526001600160a01b038316906301ffc9a790602401602060405180830381865afa158015610656573d6000803e3d6000fd5b505050506040513d601f19601f8201168201806040525081019061067a9190611d46565b6106b45760405162461bcd60e51b815260206004820152600b60248201526a125b1b1959d85b081050d360aa1b604482015260640161043b565b600280546001600160a01b0319166001600160a01b038416908117909155604051908152309033907f410bf468eebeeed60acaedb904afb2db7c0bb0131f7d14c3714d81b14fe8ed3c906020015b60405180910390a35060015b919050565b600061072260435461ffff1690565b905090565b60006001600160a01b037f00000000000000000000000000000000000000000000000000000000000000001630036107715760405162461bcd60e51b815260040161043b90611cb5565b7f00000000000000000000000000000000000000000000000000000000000000006001600160a01b03166107a36111a9565b6001600160a01b0316146107c95760405162461bcd60e51b815260040161043b90611cdb565b600160028054600160a01b900460ff16908111156107e9576107e9611b94565b146108065760405162461bcd60e51b815260040161043b90611d01565b610816630733adc760e31b6111f2565b6108325760405162461bcd60e51b815260040161043b90611d23565b6002805483919060ff60a81b1916600160a81b838381111561085657610856611b94565b021790555030336001600160a01b03167ff5912c5e436152157ed2b4a84bc313b4b1fe09a15b941f195d23c99a1b8c45ad846040516107029190611bd5565b6000306001600160a01b037f000000000000000000000000000000000000000000000000000000000000000016146109065760405162461bcd60e51b8152602060048201526014602482015273125b1b1959d85b0811195b1959d85d1958d85b1b60621b604482015260640161043b565b50600080516020611ed483398151915290565b6040517f4c4956454c595f53595354454d5f41444d494e5f524f4c45000000000000000060208201526038015b6040516020818303038152906040528051906020012081565b60006107226111a9565b60606001600160a01b037f00000000000000000000000000000000000000000000000000000000000000001630036109b35760405162461bcd60e51b815260040161043b90611cb5565b7f00000000000000000000000000000000000000000000000000000000000000006001600160a01b03166109e56111a9565b6001600160a01b031614610a0b5760405162461bcd60e51b815260040161043b90611cdb565b600160028054600160a01b900460ff1690811115610a2b57610a2b611b94565b14610a485760405162461bcd60e51b815260040161043b90611d01565b6002808054600160a81b900460ff1690811115610a6757610a67611b94565b14610aa65760405162461bcd60e51b815260206004820152600f60248201526e496c6c6567616c205570677261646560881b604482015260640161043b565b610aaf846113de565b610aba84848461145f565b90505b9392505050565b6000600160028054600160a01b900460ff1690811115610ae657610ae6611b94565b14610b035760405162461bcd60e51b815260040161043b90611d01565b610b1363756af45f60e01b6111f2565b610b2f5760405162461bcd60e51b815260040161043b90611d23565b60405147906001600160a01b038416904780156108fc02916000818181858888f19350505050158015610b66573d6000803e3d6000fd5b5092915050565b606060008054610b7c90611d63565b80601f0160208091040260200160405190810160405280929190818152602001828054610ba890611d63565b8015610bf55780601f10610bca57610100808354040283529160200191610bf5565b820191906000526020600020905b815481529060010190602001808311610bd857829003601f168201915b5050505050905090565b606060018054610b7c90611d63565b610c5d604080516101208101825260008082526060602083018190529282018390529181018290526080810182905260a0810182905260c081018290529060e082019081526020016000905290565b604051806101200160405280610c71611616565b815260200160008054610c8390611d63565b80601f0160208091040260200160405190810160405280929190818152602001828054610caf90611d63565b8015610cfc5780601f10610cd157610100808354040283529160200191610cfc565b820191906000526020600020905b815481529060010190602001808311610cdf57829003601f168201915b5050505050815260200160018054610d1390611d63565b80601f0160208091040260200160405190810160405280929190818152602001828054610d3f90611d63565b8015610d8c5780601f10610d6157610100808354040283529160200191610d8c565b820191906000526020600020905b815481529060010190602001808311610d6f57829003601f168201915b50505091835250506002546001600160a01b03166020820152604001610db06111a9565b6001600160a01b03168152602001610dc66111ca565b6001600160a01b03168152602001610de160435461ffff1690565b61ffff168152602001600260149054906101000a900460ff166002811115610e0b57610e0b611b94565b8152602001600260159054906101000a900460ff166002811115610e3157610e31611b94565b9052919050565b604051704c4956454c595f41444d494e5f524f4c4560781b6020820152603101610946565b60006001600160a01b037f0000000000000000000000000000000000000000000000000000000000000000163003610ea75760405162461bcd60e51b815260040161043b90611cb5565b7f00000000000000000000000000000000000000000000000000000000000000006001600160a01b0316610ed96111a9565b6001600160a01b031614610eff5760405162461bcd60e51b815260040161043b90611cdb565b600160028054600160a01b900460ff1690811115610f1f57610f1f611b94565b14610f3c5760405162461bcd60e51b815260040161043b90611d01565b6002808054600160a81b900460ff1690811115610f5b57610f5b611b94565b14610f995760405162461bcd60e51b815260206004820152600e60248201526d496c6c6567616c2055706461746560901b604482015260640161043b565b610fa963d9dc1f1960e01b6111f2565b610fc55760405162461bcd60e51b815260040161043b90611d23565b6001600160a01b0382166110055760405162461bcd60e51b8152602060048201526007602482015266125b9d985b1a5960ca1b604482015260640161043b565b61100e826116ca565b506001919050565b6000610722611616565b60006001600160a01b037f000000000000000000000000000000000000000000000000000000000000000016300361106a5760405162461bcd60e51b815260040161043b90611cb5565b7f00000000000000000000000000000000000000000000000000000000000000006001600160a01b031661109c6111a9565b6001600160a01b0316146110c25760405162461bcd60e51b815260040161043b90611cdb565b60006110d160435461ffff1690565b61ffff161161110d5760405162461bcd60e51b81526020600482015260086024820152671393d5081253925560c21b604482015260640161043b565b61111d630f708ceb60e41b6111f2565b6111395760405162461bcd60e51b815260040161043b90611d23565b6002805483919060ff60a01b1916600160a01b838381111561115d5761115d611b94565b021790555030336001600160a01b03167fc08ec585c25f1907baaab6f278c5994531a2e34c59935b3fcfe813067a3b4878846040516107029190611bd5565b60006107226111ca565b90565b6000600080516020611ed48339815191525b546001600160a01b0316919050565b60007fb53127684a568b3173ae13b9f8a6016e243e63b6e8ee1178d6a717850b5d61036111bb565b6002546000906001600160a01b03163003611363576040805160048152602481019091526020810180516001600160e01b0316632c4b4fff60e01b179052600061126861123d6111a9565b836040518060400160405280600c81526020016b1110d85b1b0811985a5b195960a21b815250611741565b905080600182516112799190611d9d565b8151811061128957611289611dbe565b016020015160f81c6001036112a2575060009392505050565b6317897ab960e11b30856112b53361180f565b6040516024016112c793929190611dd4565b60408051601f198184030181529190526020810180516001600160e01b03166001600160e01b031990931692909217909152915061132e6113066111a9565b83604051806040016040528060098152602001682337b93134b23232b760b91b815250611741565b9050806001825161133f9190611d9d565b8151811061134f5761134f611dbe565b60209101015160f81c600114949350505050565b6002546001600160a01b0316632f12f572308461137f3361180f565b6040518463ffffffff1660e01b815260040161139d93929190611dd4565b602060405180830381865afa1580156113ba573d6000803e3d6000fd5b505050506040513d601f19601f820116820180604052508101906103eb9190611d46565b6113e66111a9565b6001600160a01b0316816001600160a01b0316036114305760405162461bcd60e51b8152602060048201526007602482015266125b1b1959d85b60ca1b604482015260640161043b565b611440637147855d60e01b6111f2565b61145c5760405162461bcd60e51b815260040161043b90611d23565b50565b60607f4910fdfa16fed3260ed0e7147f7cc6da11a60208b5b9406d12a635614ffd91435460ff16156114a9576114948461184e565b50604080516000815260208101909152610abd565b600080516020611ed483398151915260001b846001600160a01b03166352d1902d6040518163ffffffff1660e01b8152600401602060405180830381865afa1580156114f9573d6000803e3d6000fd5b505050506040513d601f19601f8201168201806040525081019061151d9190611dff565b146115595760405162461bcd60e51b815260206004820152600c60248201526b496c6c6567616c205555505360a01b604482015260640161043b565b6040516301ffc9a760e01b81526327d8f1fd60e21b60048201526001600160a01b038516906301ffc9a790602401602060405180830381865afa1580156115a4573d6000803e3d6000fd5b505050506040513d601f19601f820116820180604052508101906115c89190611d46565b6116045760405162461bcd60e51b815260206004820152600d60248201526c496c6c6567616c2050726f787960981b604482015260640161043b565b61160f8484846118c3565b9050610abd565b60007f8b73c3c69bb8fe3d512ecc4cf759cc79239f7b179b0ffacaa9a75d522b39400f600060405160200161164b9190611e18565b6040516020818303038152906040528051906020012060016040516020016116739190611e18565b60408051601f1981840301815282825280516020918201209083019490945281019190915260608101919091524660808201523060a082015260c00160405160208183030381529060405280519060200120905090565b7fb53127684a568b3173ae13b9f8a6016e243e63b6e8ee1178d6a717850b5d610380546001600160a01b0383166001600160a01b031990911681179091556040805191825251309133917f63fdbed5f2909ec44e3becc51e9d29654ce1447747914e8a6ebc019e7f640b8b9181900360200190a350565b60606001600160a01b0384163b61179a5760405162461bcd60e51b815260206004820152601860248201527f496c6c6567616c20436f6e747261637420416464726573730000000000000000604482015260640161043b565b600080856001600160a01b0316856040516117b59190611eb7565b600060405180830381855af49150503d80600081146117f0576040519150601f19603f3d011682016040523d82523d6000602084013e6117f5565b606091505b509150915061180582828661192d565b9695505050505050565b6040516bffffffffffffffffffffffff19606083901b166020820152600090603401604051602081830303815290604052805190602001209050919050565b6001600160a01b0381163b6118945760405162461bcd60e51b815260206004820152600c60248201526b125b1b1959d85b08125b5c1b60a21b604482015260640161043b565b600080516020611ed483398151915280546001600160a01b0319166001600160a01b0392909216919091179055565b60606118ce84611966565b6000835111806118db5750815b156119165761160f84846040518060400160405280601381526020017211195b1959d85d1958d85b1b0811985a5b1959606a1b815250611741565b505060408051600081526020810190915292915050565b6060831561193c575081610abd565b82511561194c5782518084602001fd5b8160405162461bcd60e51b815260040161043b9190611b81565b61196f8161184e565b6040516001600160a01b03821690309033907f8ee0f2bd29c0e6a975c3cc2e47cf2e01b5f23a9a8a02e0ed6a5a070269de3d2d90600090a450565b6000602082840312156119bc57600080fd5b81356001600160e01b031981168114610abd57600080fd5b80356001600160a01b038116811461070e57600080fd5b6000602082840312156119fd57600080fd5b610abd826119d4565b6003811061145c57600080fd5b600060208284031215611a2557600080fd5b8135610abd81611a06565b634e487b7160e01b600052604160045260246000fd5b801515811461145c57600080fd5b803561070e81611a46565b600080600060608486031215611a7457600080fd5b611a7d846119d4565b9250602084013567ffffffffffffffff80821115611a9a57600080fd5b818601915086601f830112611aae57600080fd5b813581811115611ac057611ac0611a30565b604051601f8201601f19908116603f01168101908382118183101715611ae857611ae8611a30565b81604052828152896020848701011115611b0157600080fd5b826020860160208301376000602084830101528096505050505050611b2860408501611a54565b90509250925092565b60005b83811015611b4c578181015183820152602001611b34565b50506000910152565b60008151808452611b6d816020860160208601611b31565b601f01601f19169290920160200192915050565b602081526000610abd6020830184611b55565b634e487b7160e01b600052602160045260246000fd5b6003811061145c57634e487b7160e01b600052602160045260246000fd5b611bd181611baa565b9052565b60208101611be283611baa565b91905290565b602081528151602082015260006020830151610120806040850152611c11610140850183611b55565b91506040850151601f19858403016060860152611c2e8382611b55565b9250506060850151611c4b60808601826001600160a01b03169052565b5060808501516001600160a01b03811660a08601525060a08501516001600160a01b03811660c08601525060c085015161ffff811660e08601525060e0850151610100611c9a81870183611bc8565b8601519050611cab85830182611bc8565b5090949350505050565b6020808252600c908201526b125b1b1959d85b0810d85b1b60a21b604082015260600190565b6020808252600c908201526b125b9d985b1a590810d85b1b60a21b604082015260600190565b60208082526008908201526714995a9958dd195960c21b604082015260600190565b6020808252600990820152682337b93134b23232b760b91b604082015260600190565b600060208284031215611d5857600080fd5b8151610abd81611a46565b600181811c90821680611d7757607f821691505b602082108103611d9757634e487b7160e01b600052602260045260246000fd5b50919050565b818103818111156103eb57634e487b7160e01b600052601160045260246000fd5b634e487b7160e01b600052603260045260246000fd5b6001600160a01b039390931683526001600160e01b0319919091166020830152604082015260600190565b600060208284031215611e1157600080fd5b5051919050565b600080835481600182811c915080831680611e3457607f831692505b60208084108203611e5357634e487b7160e01b86526022600452602486fd5b818015611e675760018114611e7c57611ea9565b60ff1986168952841515850289019650611ea9565b60008a81526020902060005b86811015611ea15781548b820152908501908301611e88565b505084890196505b509498975050505050505050565b60008251611ec9818460208701611b31565b919091019291505056fe360894a13ba1a3210667c828492db98dca3e2076cc3735a920a3ca505d382bbca264697066735822122078b7f51fdf978dba670009c8be84e4f9aed7557252f61ab8496b4d1a3cb6249164736f6c63430008110033b53127684a568b3173ae13b9f8a6016e243e63b6e8ee1178d6a717850b5d6103",
  "linkReferences": {},
  "deployedLinkReferences": {},
  "devdoc": {
    "author": "Sina Tadayon, https://github.com/SinaTadayon",
    "kind": "dev",
    "methods": {
      "proxiableUUID()": {
        "details": "Implementation of the ERC1822 {proxiableUUID} function. This returns the storage slot used by the implementation. It is used to validate that the this implementation remains valid after an upgrade. IMPORTANT: A proxy pointing at a proxiable contract should not be considered proxiable itself, because this risks bricking a proxy that upgrades to it, by delegating to itself until out of gas. Thus it is critical that this function revert if invoked through a proxy. This is guaranteed by the `notDelegated` modifier."
      },
      "supportsInterface(bytes4)": {
        "details": "See {IERC165-supportsInterface}."
      }
    },
    "title": "Base UUPS Proxy Test",
    "version": 1
  },
  "evm": {
    "bytecode": {
      "linkReferences": {},
      "opcodes": "PUSH1 0xA0 PUSH1 0x40 MSTORE ADDRESS PUSH1 0x80 MSTORE CALLVALUE DUP1 ISZERO PUSH3 0x15 JUMPI PUSH1 0x0 DUP1 REVERT JUMPDEST POP PUSH3 0x43 PUSH1 0x1 PUSH32 0x360894A13BA1A3210667C828492DB98DCA3E2076CC3735A920A3CA505D382BBD PUSH3 0x125 JUMP JUMPDEST PUSH32 0x360894A13BA1A3210667C828492DB98DCA3E2076CC3735A920A3CA505D382BBC EQ PUSH3 0x74 JUMPI PUSH3 0x74 PUSH3 0x14D JUMP JUMPDEST PUSH3 0xA1 PUSH1 0x1 PUSH32 0xB53127684A568B3173AE13B9F8A6016E243E63B6E8EE1178D6A717850B5D6104 PUSH3 0x125 JUMP JUMPDEST PUSH1 0x0 DUP1 MLOAD PUSH1 0x20 PUSH3 0x20EE DUP4 CODECOPY DUP2 MLOAD SWAP2 MSTORE EQ PUSH3 0xC1 JUMPI PUSH3 0xC1 PUSH3 0x14D JUMP JUMPDEST CALLER PUSH3 0xEA PUSH1 0x0 DUP1 MLOAD PUSH1 0x20 PUSH3 0x20EE DUP4 CODECOPY DUP2 MLOAD SWAP2 MSTORE PUSH1 0x0 SHL PUSH3 0x122 PUSH1 0x20 SHL PUSH3 0x11A6 OR PUSH1 0x20 SHR JUMP JUMPDEST DUP1 SLOAD PUSH1 0x1 PUSH1 0x1 PUSH1 0xA0 SHL SUB NOT AND PUSH1 0x1 PUSH1 0x1 PUSH1 0xA0 SHL SUB SWAP3 SWAP1 SWAP3 AND SWAP2 SWAP1 SWAP2 OR SWAP1 SSTORE PUSH1 0x2 DUP1 SLOAD PUSH2 0xFFFF PUSH1 0xA0 SHL NOT AND PUSH1 0x81 PUSH1 0xA1 SHL OR SWAP1 SSTORE PUSH3 0x163 JUMP JUMPDEST SWAP1 JUMP JUMPDEST DUP2 DUP2 SUB DUP2 DUP2 GT ISZERO PUSH3 0x147 JUMPI PUSH4 0x4E487B71 PUSH1 0xE0 SHL PUSH1 0x0 MSTORE PUSH1 0x11 PUSH1 0x4 MSTORE PUSH1 0x24 PUSH1 0x0 REVERT JUMPDEST SWAP3 SWAP2 POP POP JUMP JUMPDEST PUSH4 0x4E487B71 PUSH1 0xE0 SHL PUSH1 0x0 MSTORE PUSH1 0x1 PUSH1 0x4 MSTORE PUSH1 0x24 PUSH1 0x0 REVERT JUMPDEST PUSH1 0x80 MLOAD PUSH2 0x1F29 PUSH3 0x1C5 PUSH1 0x0 CODECOPY PUSH1 0x0 DUP2 DUP2 PUSH2 0x3FD ADD MSTORE DUP2 DUP2 PUSH2 0x446 ADD MSTORE DUP2 DUP2 PUSH2 0x733 ADD MSTORE DUP2 DUP2 PUSH2 0x773 ADD MSTORE DUP2 DUP2 PUSH2 0x8A2 ADD MSTORE DUP2 DUP2 PUSH2 0x975 ADD MSTORE DUP2 DUP2 PUSH2 0x9B5 ADD MSTORE DUP2 DUP2 PUSH2 0xE69 ADD MSTORE DUP2 DUP2 PUSH2 0xEA9 ADD MSTORE DUP2 DUP2 PUSH2 0x102C ADD MSTORE PUSH2 0x106C ADD MSTORE PUSH2 0x1F29 PUSH1 0x0 RETURN INVALID PUSH1 0x80 PUSH1 0x40 MSTORE PUSH1 0x4 CALLDATASIZE LT PUSH2 0x117 JUMPI PUSH1 0x0 CALLDATALOAD PUSH1 0xE0 SHR DUP1 PUSH4 0xA0A8E460 GT PUSH2 0x9A JUMPI DUP1 PUSH4 0xD9DC1F19 GT PUSH2 0x61 JUMPI DUP1 PUSH4 0xD9DC1F19 EQ PUSH2 0x316 JUMPI DUP1 PUSH4 0xF698DA25 EQ PUSH2 0x336 JUMPI DUP1 PUSH4 0xF708CEB0 EQ PUSH2 0x34B JUMPI DUP1 PUSH4 0xF94A0ADB EQ PUSH2 0x36B JUMPI DUP1 PUSH4 0xFBAD3684 EQ PUSH2 0x380 JUMPI STOP JUMPDEST DUP1 PUSH4 0xA0A8E460 EQ PUSH2 0x284 JUMPI DUP1 PUSH4 0xA304E353 EQ PUSH2 0x299 JUMPI DUP1 PUSH4 0xB4A0BDF3 EQ PUSH2 0x2C1 JUMPI DUP1 PUSH4 0xD49E164D EQ PUSH2 0x2DF JUMPI DUP1 PUSH4 0xD8B31999 EQ PUSH2 0x301 JUMPI STOP JUMPDEST DUP1 PUSH4 0x5632FFD8 GT PUSH2 0xDE JUMPI DUP1 PUSH4 0x5632FFD8 EQ PUSH2 0x1E0 JUMPI DUP1 PUSH4 0x58DBC45D EQ PUSH2 0x1F5 JUMPI DUP1 PUSH4 0x7147855D EQ PUSH2 0x222 JUMPI DUP1 PUSH4 0x756AF45F EQ PUSH2 0x24F JUMPI DUP1 PUSH4 0x75D0C0DC EQ PUSH2 0x26F JUMPI STOP JUMPDEST DUP1 PUSH4 0x1FFC9A7 EQ PUSH2 0x120 JUMPI DUP1 PUSH4 0xE32CB86 EQ PUSH2 0x155 JUMPI DUP1 PUSH4 0x38D38C97 EQ PUSH2 0x175 JUMPI DUP1 PUSH4 0x399D6E38 EQ PUSH2 0x19D JUMPI DUP1 PUSH4 0x52D1902D EQ PUSH2 0x1BD JUMPI STOP JUMPDEST CALLDATASIZE PUSH2 0x11E JUMPI STOP JUMPDEST STOP JUMPDEST CALLVALUE DUP1 ISZERO PUSH2 0x12C JUMPI PUSH1 0x0 DUP1 REVERT JUMPDEST POP PUSH2 0x140 PUSH2 0x13B CALLDATASIZE PUSH1 0x4 PUSH2 0x19AA JUMP JUMPDEST PUSH2 0x39F JUMP JUMPDEST PUSH1 0x40 MLOAD SWAP1 ISZERO ISZERO DUP2 MSTORE PUSH1 0x20 ADD JUMPDEST PUSH1 0x40 MLOAD DUP1 SWAP2 SUB SWAP1 RETURN JUMPDEST CALLVALUE DUP1 ISZERO PUSH2 0x161 JUMPI PUSH1 0x0 DUP1 REVERT JUMPDEST POP PUSH2 0x140 PUSH2 0x170 CALLDATASIZE PUSH1 0x4 PUSH2 0x19EB JUMP JUMPDEST PUSH2 0x3F1 JUMP JUMPDEST CALLVALUE DUP1 ISZERO PUSH2 0x181 JUMPI PUSH1 0x0 DUP1 REVERT JUMPDEST POP PUSH2 0x18A PUSH2 0x713 JUMP JUMPDEST PUSH1 0x40 MLOAD PUSH2 0xFFFF SWAP1 SWAP2 AND DUP2 MSTORE PUSH1 0x20 ADD PUSH2 0x14C JUMP JUMPDEST CALLVALUE DUP1 ISZERO PUSH2 0x1A9 JUMPI PUSH1 0x0 DUP1 REVERT JUMPDEST POP PUSH2 0x140 PUSH2 0x1B8 CALLDATASIZE PUSH1 0x4 PUSH2 0x1A13 JUMP JUMPDEST PUSH2 0x727 JUMP JUMPDEST CALLVALUE DUP1 ISZERO PUSH2 0x1C9 JUMPI PUSH1 0x0 DUP1 REVERT JUMPDEST POP PUSH2 0x1D2 PUSH2 0x895 JUMP JUMPDEST PUSH1 0x40 MLOAD SWAP1 DUP2 MSTORE PUSH1 0x20 ADD PUSH2 0x14C JUMP JUMPDEST CALLVALUE DUP1 ISZERO PUSH2 0x1EC JUMPI PUSH1 0x0 DUP1 REVERT JUMPDEST POP PUSH2 0x1D2 PUSH2 0x919 JUMP JUMPDEST CALLVALUE DUP1 ISZERO PUSH2 0x201 JUMPI PUSH1 0x0 DUP1 REVERT JUMPDEST POP PUSH2 0x20A PUSH2 0x95F JUMP JUMPDEST PUSH1 0x40 MLOAD PUSH1 0x1 PUSH1 0x1 PUSH1 0xA0 SHL SUB SWAP1 SWAP2 AND DUP2 MSTORE PUSH1 0x20 ADD PUSH2 0x14C JUMP JUMPDEST CALLVALUE DUP1 ISZERO PUSH2 0x22E JUMPI PUSH1 0x0 DUP1 REVERT JUMPDEST POP PUSH2 0x242 PUSH2 0x23D CALLDATASIZE PUSH1 0x4 PUSH2 0x1A5F JUMP JUMPDEST PUSH2 0x969 JUMP JUMPDEST PUSH1 0x40 MLOAD PUSH2 0x14C SWAP2 SWAP1 PUSH2 0x1B81 JUMP JUMPDEST CALLVALUE DUP1 ISZERO PUSH2 0x25B JUMPI PUSH1 0x0 DUP1 REVERT JUMPDEST POP PUSH2 0x1D2 PUSH2 0x26A CALLDATASIZE PUSH1 0x4 PUSH2 0x19EB JUMP JUMPDEST PUSH2 0xAC4 JUMP JUMPDEST CALLVALUE DUP1 ISZERO PUSH2 0x27B JUMPI PUSH1 0x0 DUP1 REVERT JUMPDEST POP PUSH2 0x242 PUSH2 0xB6D JUMP JUMPDEST CALLVALUE DUP1 ISZERO PUSH2 0x290 JUMPI PUSH1 0x0 DUP1 REVERT JUMPDEST POP PUSH2 0x242 PUSH2 0xBFF JUMP JUMPDEST CALLVALUE DUP1 ISZERO PUSH2 0x2A5 JUMPI PUSH1 0x0 DUP1 REVERT JUMPDEST POP PUSH1 0x2 SLOAD PUSH1 0x1 PUSH1 0xA0 SHL SWAP1 DIV PUSH1 0xFF AND JUMPDEST PUSH1 0x40 MLOAD PUSH2 0x14C SWAP2 SWAP1 PUSH2 0x1BD5 JUMP JUMPDEST CALLVALUE DUP1 ISZERO PUSH2 0x2CD JUMPI PUSH1 0x0 DUP1 REVERT JUMPDEST POP PUSH1 0x2 SLOAD PUSH1 0x1 PUSH1 0x1 PUSH1 0xA0 SHL SUB AND PUSH2 0x20A JUMP JUMPDEST CALLVALUE DUP1 ISZERO PUSH2 0x2EB JUMPI PUSH1 0x0 DUP1 REVERT JUMPDEST POP PUSH2 0x2F4 PUSH2 0xC0E JUMP JUMPDEST PUSH1 0x40 MLOAD PUSH2 0x14C SWAP2 SWAP1 PUSH2 0x1BE8 JUMP JUMPDEST CALLVALUE DUP1 ISZERO PUSH2 0x30D JUMPI PUSH1 0x0 DUP1 REVERT JUMPDEST POP PUSH2 0x1D2 PUSH2 0xE38 JUMP JUMPDEST CALLVALUE DUP1 ISZERO PUSH2 0x322 JUMPI PUSH1 0x0 DUP1 REVERT JUMPDEST POP PUSH2 0x140 PUSH2 0x331 CALLDATASIZE PUSH1 0x4 PUSH2 0x19EB JUMP JUMPDEST PUSH2 0xE5D JUMP JUMPDEST CALLVALUE DUP1 ISZERO PUSH2 0x342 JUMPI PUSH1 0x0 DUP1 REVERT JUMPDEST POP PUSH2 0x1D2 PUSH2 0x1016 JUMP JUMPDEST CALLVALUE DUP1 ISZERO PUSH2 0x357 JUMPI PUSH1 0x0 DUP1 REVERT JUMPDEST POP PUSH2 0x140 PUSH2 0x366 CALLDATASIZE PUSH1 0x4 PUSH2 0x1A13 JUMP JUMPDEST PUSH2 0x1020 JUMP JUMPDEST CALLVALUE DUP1 ISZERO PUSH2 0x377 JUMPI PUSH1 0x0 DUP1 REVERT JUMPDEST POP PUSH2 0x20A PUSH2 0x119C JUMP JUMPDEST CALLVALUE DUP1 ISZERO PUSH2 0x38C JUMPI PUSH1 0x0 DUP1 REVERT JUMPDEST POP PUSH1 0x2 SLOAD PUSH1 0x1 PUSH1 0xA8 SHL SWAP1 DIV PUSH1 0xFF AND PUSH2 0x2B4 JUMP JUMPDEST PUSH1 0x0 PUSH1 0x1 PUSH1 0x1 PUSH1 0xE0 SHL SUB NOT DUP3 AND PUSH4 0x27D8F1FD PUSH1 0xE2 SHL EQ DUP1 PUSH2 0x3D0 JUMPI POP PUSH1 0x1 PUSH1 0x1 PUSH1 0xE0 SHL SUB NOT DUP3 AND PUSH4 0x52D1902D PUSH1 0xE0 SHL EQ JUMPDEST DUP1 PUSH2 0x3EB JUMPI POP PUSH4 0x1FFC9A7 PUSH1 0xE0 SHL PUSH1 0x1 PUSH1 0x1 PUSH1 0xE0 SHL SUB NOT DUP4 AND EQ JUMPDEST SWAP3 SWAP2 POP POP JUMP JUMPDEST PUSH1 0x0 PUSH1 0x1 PUSH1 0x1 PUSH1 0xA0 SHL SUB PUSH32 0x0 AND ADDRESS SUB PUSH2 0x444 JUMPI PUSH1 0x40 MLOAD PUSH3 0x461BCD PUSH1 0xE5 SHL DUP2 MSTORE PUSH1 0x4 ADD PUSH2 0x43B SWAP1 PUSH2 0x1CB5 JUMP JUMPDEST PUSH1 0x40 MLOAD DUP1 SWAP2 SUB SWAP1 REVERT JUMPDEST PUSH32 0x0 PUSH1 0x1 PUSH1 0x1 PUSH1 0xA0 SHL SUB AND PUSH2 0x476 PUSH2 0x11A9 JUMP JUMPDEST PUSH1 0x1 PUSH1 0x1 PUSH1 0xA0 SHL SUB AND EQ PUSH2 0x49C JUMPI PUSH1 0x40 MLOAD PUSH3 0x461BCD PUSH1 0xE5 SHL DUP2 MSTORE PUSH1 0x4 ADD PUSH2 0x43B SWAP1 PUSH2 0x1CDB JUMP JUMPDEST CALLER PUSH2 0x4A5 PUSH2 0x11CA JUMP JUMPDEST PUSH1 0x1 PUSH1 0x1 PUSH1 0xA0 SHL SUB AND EQ PUSH2 0x4EC JUMPI PUSH1 0x40 MLOAD PUSH3 0x461BCD PUSH1 0xE5 SHL DUP2 MSTORE PUSH1 0x20 PUSH1 0x4 DUP3 ADD MSTORE PUSH1 0xE PUSH1 0x24 DUP3 ADD MSTORE PUSH14 0x139BDD08105D5D1A1BDC9A5E9959 PUSH1 0x92 SHL PUSH1 0x44 DUP3 ADD MSTORE PUSH1 0x64 ADD PUSH2 0x43B JUMP JUMPDEST PUSH1 0x1 PUSH1 0x2 DUP1 SLOAD PUSH1 0x1 PUSH1 0xA0 SHL SWAP1 DIV PUSH1 0xFF AND SWAP1 DUP2 GT ISZERO PUSH2 0x50C JUMPI PUSH2 0x50C PUSH2 0x1B94 JUMP JUMPDEST EQ PUSH2 0x529 JUMPI PUSH1 0x40 MLOAD PUSH3 0x461BCD PUSH1 0xE5 SHL DUP2 MSTORE PUSH1 0x4 ADD PUSH2 0x43B SWAP1 PUSH2 0x1D01 JUMP JUMPDEST PUSH1 0x2 DUP1 DUP1 SLOAD PUSH1 0x1 PUSH1 0xA8 SHL SWAP1 DIV PUSH1 0xFF AND SWAP1 DUP2 GT ISZERO PUSH2 0x548 JUMPI PUSH2 0x548 PUSH2 0x1B94 JUMP JUMPDEST EQ PUSH2 0x586 JUMPI PUSH1 0x40 MLOAD PUSH3 0x461BCD PUSH1 0xE5 SHL DUP2 MSTORE PUSH1 0x20 PUSH1 0x4 DUP3 ADD MSTORE PUSH1 0xE PUSH1 0x24 DUP3 ADD MSTORE PUSH14 0x496C6C6567616C20557064617465 PUSH1 0x90 SHL PUSH1 0x44 DUP3 ADD MSTORE PUSH1 0x64 ADD PUSH2 0x43B JUMP JUMPDEST PUSH1 0x1 PUSH1 0x1 PUSH1 0xA0 SHL SUB DUP3 AND PUSH2 0x5CE JUMPI PUSH1 0x40 MLOAD PUSH3 0x461BCD PUSH1 0xE5 SHL DUP2 MSTORE PUSH1 0x20 PUSH1 0x4 DUP3 ADD MSTORE PUSH1 0xF PUSH1 0x24 DUP3 ADD MSTORE PUSH15 0x496C6C6567616C2041646472657373 PUSH1 0x88 SHL PUSH1 0x44 DUP3 ADD MSTORE PUSH1 0x64 ADD PUSH2 0x43B JUMP JUMPDEST PUSH1 0x2 SLOAD PUSH1 0x1 PUSH1 0x1 PUSH1 0xA0 SHL SUB AND ISZERO PUSH2 0x60B JUMPI PUSH2 0x5EF PUSH4 0xD9DC1F19 PUSH1 0xE0 SHL PUSH2 0x11F2 JUMP JUMPDEST PUSH2 0x60B JUMPI PUSH1 0x40 MLOAD PUSH3 0x461BCD PUSH1 0xE5 SHL DUP2 MSTORE PUSH1 0x4 ADD PUSH2 0x43B SWAP1 PUSH2 0x1D23 JUMP JUMPDEST PUSH1 0x40 MLOAD PUSH4 0x1FFC9A7 PUSH1 0xE0 SHL DUP2 MSTORE PUSH4 0x7A327937 PUSH1 0xE0 SHL PUSH1 0x4 DUP3 ADD MSTORE PUSH1 0x1 PUSH1 0x1 PUSH1 0xA0 SHL SUB DUP4 AND SWAP1 PUSH4 0x1FFC9A7 SWAP1 PUSH1 0x24 ADD PUSH1 0x20 PUSH1 0x40 MLOAD DUP1 DUP4 SUB DUP2 DUP7 GAS STATICCALL ISZERO DUP1 ISZERO PUSH2 0x656 JUMPI RETURNDATASIZE PUSH1 0x0 DUP1 RETURNDATACOPY RETURNDATASIZE PUSH1 0x0 REVERT JUMPDEST POP POP POP POP PUSH1 0x40 MLOAD RETURNDATASIZE PUSH1 0x1F NOT PUSH1 0x1F DUP3 ADD AND DUP3 ADD DUP1 PUSH1 0x40 MSTORE POP DUP2 ADD SWAP1 PUSH2 0x67A SWAP2 SWAP1 PUSH2 0x1D46 JUMP JUMPDEST PUSH2 0x6B4 JUMPI PUSH1 0x40 MLOAD PUSH3 0x461BCD PUSH1 0xE5 SHL DUP2 MSTORE PUSH1 0x20 PUSH1 0x4 DUP3 ADD MSTORE PUSH1 0xB PUSH1 0x24 DUP3 ADD MSTORE PUSH11 0x125B1B1959D85B081050D3 PUSH1 0xAA SHL PUSH1 0x44 DUP3 ADD MSTORE PUSH1 0x64 ADD PUSH2 0x43B JUMP JUMPDEST PUSH1 0x2 DUP1 SLOAD PUSH1 0x1 PUSH1 0x1 PUSH1 0xA0 SHL SUB NOT AND PUSH1 0x1 PUSH1 0x1 PUSH1 0xA0 SHL SUB DUP5 AND SWAP1 DUP2 OR SWAP1 SWAP2 SSTORE PUSH1 0x40 MLOAD SWAP1 DUP2 MSTORE ADDRESS SWAP1 CALLER SWAP1 PUSH32 0x410BF468EEBEEED60ACAEDB904AFB2DB7C0BB0131F7D14C3714D81B14FE8ED3C SWAP1 PUSH1 0x20 ADD JUMPDEST PUSH1 0x40 MLOAD DUP1 SWAP2 SUB SWAP1 LOG3 POP PUSH1 0x1 JUMPDEST SWAP2 SWAP1 POP JUMP JUMPDEST PUSH1 0x0 PUSH2 0x722 PUSH1 0x43 SLOAD PUSH2 0xFFFF AND SWAP1 JUMP JUMPDEST SWAP1 POP SWAP1 JUMP JUMPDEST PUSH1 0x0 PUSH1 0x1 PUSH1 0x1 PUSH1 0xA0 SHL SUB PUSH32 0x0 AND ADDRESS SUB PUSH2 0x771 JUMPI PUSH1 0x40 MLOAD PUSH3 0x461BCD PUSH1 0xE5 SHL DUP2 MSTORE PUSH1 0x4 ADD PUSH2 0x43B SWAP1 PUSH2 0x1CB5 JUMP JUMPDEST PUSH32 0x0 PUSH1 0x1 PUSH1 0x1 PUSH1 0xA0 SHL SUB AND PUSH2 0x7A3 PUSH2 0x11A9 JUMP JUMPDEST PUSH1 0x1 PUSH1 0x1 PUSH1 0xA0 SHL SUB AND EQ PUSH2 0x7C9 JUMPI PUSH1 0x40 MLOAD PUSH3 0x461BCD PUSH1 0xE5 SHL DUP2 MSTORE PUSH1 0x4 ADD PUSH2 0x43B SWAP1 PUSH2 0x1CDB JUMP JUMPDEST PUSH1 0x1 PUSH1 0x2 DUP1 SLOAD PUSH1 0x1 PUSH1 0xA0 SHL SWAP1 DIV PUSH1 0xFF AND SWAP1 DUP2 GT ISZERO PUSH2 0x7E9 JUMPI PUSH2 0x7E9 PUSH2 0x1B94 JUMP JUMPDEST EQ PUSH2 0x806 JUMPI PUSH1 0x40 MLOAD PUSH3 0x461BCD PUSH1 0xE5 SHL DUP2 MSTORE PUSH1 0x4 ADD PUSH2 0x43B SWAP1 PUSH2 0x1D01 JUMP JUMPDEST PUSH2 0x816 PUSH4 0x733ADC7 PUSH1 0xE3 SHL PUSH2 0x11F2 JUMP JUMPDEST PUSH2 0x832 JUMPI PUSH1 0x40 MLOAD PUSH3 0x461BCD PUSH1 0xE5 SHL DUP2 MSTORE PUSH1 0x4 ADD PUSH2 0x43B SWAP1 PUSH2 0x1D23 JUMP JUMPDEST PUSH1 0x2 DUP1 SLOAD DUP4 SWAP2 SWAP1 PUSH1 0xFF PUSH1 0xA8 SHL NOT AND PUSH1 0x1 PUSH1 0xA8 SHL DUP4 DUP4 DUP2 GT ISZERO PUSH2 0x856 JUMPI PUSH2 0x856 PUSH2 0x1B94 JUMP JUMPDEST MUL OR SWAP1 SSTORE POP ADDRESS CALLER PUSH1 0x1 PUSH1 0x1 PUSH1 0xA0 SHL SUB AND PUSH32 0xF5912C5E436152157ED2B4A84BC313B4B1FE09A15B941F195D23C99A1B8C45AD DUP5 PUSH1 0x40 MLOAD PUSH2 0x702 SWAP2 SWAP1 PUSH2 0x1BD5 JUMP JUMPDEST PUSH1 0x0 ADDRESS PUSH1 0x1 PUSH1 0x1 PUSH1 0xA0 SHL SUB PUSH32 0x0 AND EQ PUSH2 0x906 JUMPI PUSH1 0x40 MLOAD PUSH3 0x461BCD PUSH1 0xE5 SHL DUP2 MSTORE PUSH1 0x20 PUSH1 0x4 DUP3 ADD MSTORE PUSH1 0x14 PUSH1 0x24 DUP3 ADD MSTORE PUSH20 0x125B1B1959D85B0811195B1959D85D1958D85B1B PUSH1 0x62 SHL PUSH1 0x44 DUP3 ADD MSTORE PUSH1 0x64 ADD PUSH2 0x43B JUMP JUMPDEST POP PUSH1 0x0 DUP1 MLOAD PUSH1 0x20 PUSH2 0x1ED4 DUP4 CODECOPY DUP2 MLOAD SWAP2 MSTORE SWAP1 JUMP JUMPDEST PUSH1 0x40 MLOAD PUSH32 0x4C4956454C595F53595354454D5F41444D494E5F524F4C450000000000000000 PUSH1 0x20 DUP3 ADD MSTORE PUSH1 0x38 ADD JUMPDEST PUSH1 0x40 MLOAD PUSH1 0x20 DUP2 DUP4 SUB SUB DUP2 MSTORE SWAP1 PUSH1 0x40 MSTORE DUP1 MLOAD SWAP1 PUSH1 0x20 ADD KECCAK256 DUP2 JUMP JUMPDEST PUSH1 0x0 PUSH2 0x722 PUSH2 0x11A9 JUMP JUMPDEST PUSH1 0x60 PUSH1 0x1 PUSH1 0x1 PUSH1 0xA0 SHL SUB PUSH32 0x0 AND ADDRESS SUB PUSH2 0x9B3 JUMPI PUSH1 0x40 MLOAD PUSH3 0x461BCD PUSH1 0xE5 SHL DUP2 MSTORE PUSH1 0x4 ADD PUSH2 0x43B SWAP1 PUSH2 0x1CB5 JUMP JUMPDEST PUSH32 0x0 PUSH1 0x1 PUSH1 0x1 PUSH1 0xA0 SHL SUB AND PUSH2 0x9E5 PUSH2 0x11A9 JUMP JUMPDEST PUSH1 0x1 PUSH1 0x1 PUSH1 0xA0 SHL SUB AND EQ PUSH2 0xA0B JUMPI PUSH1 0x40 MLOAD PUSH3 0x461BCD PUSH1 0xE5 SHL DUP2 MSTORE PUSH1 0x4 ADD PUSH2 0x43B SWAP1 PUSH2 0x1CDB JUMP JUMPDEST PUSH1 0x1 PUSH1 0x2 DUP1 SLOAD PUSH1 0x1 PUSH1 0xA0 SHL SWAP1 DIV PUSH1 0xFF AND SWAP1 DUP2 GT ISZERO PUSH2 0xA2B JUMPI PUSH2 0xA2B PUSH2 0x1B94 JUMP JUMPDEST EQ PUSH2 0xA48 JUMPI PUSH1 0x40 MLOAD PUSH3 0x461BCD PUSH1 0xE5 SHL DUP2 MSTORE PUSH1 0x4 ADD PUSH2 0x43B SWAP1 PUSH2 0x1D01 JUMP JUMPDEST PUSH1 0x2 DUP1 DUP1 SLOAD PUSH1 0x1 PUSH1 0xA8 SHL SWAP1 DIV PUSH1 0xFF AND SWAP1 DUP2 GT ISZERO PUSH2 0xA67 JUMPI PUSH2 0xA67 PUSH2 0x1B94 JUMP JUMPDEST EQ PUSH2 0xAA6 JUMPI PUSH1 0x40 MLOAD PUSH3 0x461BCD PUSH1 0xE5 SHL DUP2 MSTORE PUSH1 0x20 PUSH1 0x4 DUP3 ADD MSTORE PUSH1 0xF PUSH1 0x24 DUP3 ADD MSTORE PUSH15 0x496C6C6567616C2055706772616465 PUSH1 0x88 SHL PUSH1 0x44 DUP3 ADD MSTORE PUSH1 0x64 ADD PUSH2 0x43B JUMP JUMPDEST PUSH2 0xAAF DUP5 PUSH2 0x13DE JUMP JUMPDEST PUSH2 0xABA DUP5 DUP5 DUP5 PUSH2 0x145F JUMP JUMPDEST SWAP1 POP JUMPDEST SWAP4 SWAP3 POP POP POP JUMP JUMPDEST PUSH1 0x0 PUSH1 0x1 PUSH1 0x2 DUP1 SLOAD PUSH1 0x1 PUSH1 0xA0 SHL SWAP1 DIV PUSH1 0xFF AND SWAP1 DUP2 GT ISZERO PUSH2 0xAE6 JUMPI PUSH2 0xAE6 PUSH2 0x1B94 JUMP JUMPDEST EQ PUSH2 0xB03 JUMPI PUSH1 0x40 MLOAD PUSH3 0x461BCD PUSH1 0xE5 SHL DUP2 MSTORE PUSH1 0x4 ADD PUSH2 0x43B SWAP1 PUSH2 0x1D01 JUMP JUMPDEST PUSH2 0xB13 PUSH4 0x756AF45F PUSH1 0xE0 SHL PUSH2 0x11F2 JUMP JUMPDEST PUSH2 0xB2F JUMPI PUSH1 0x40 MLOAD PUSH3 0x461BCD PUSH1 0xE5 SHL DUP2 MSTORE PUSH1 0x4 ADD PUSH2 0x43B SWAP1 PUSH2 0x1D23 JUMP JUMPDEST PUSH1 0x40 MLOAD SELFBALANCE SWAP1 PUSH1 0x1 PUSH1 0x1 PUSH1 0xA0 SHL SUB DUP5 AND SWAP1 SELFBALANCE DUP1 ISZERO PUSH2 0x8FC MUL SWAP2 PUSH1 0x0 DUP2 DUP2 DUP2 DUP6 DUP9 DUP9 CALL SWAP4 POP POP POP POP ISZERO DUP1 ISZERO PUSH2 0xB66 JUMPI RETURNDATASIZE PUSH1 0x0 DUP1 RETURNDATACOPY RETURNDATASIZE PUSH1 0x0 REVERT JUMPDEST POP SWAP3 SWAP2 POP POP JUMP JUMPDEST PUSH1 0x60 PUSH1 0x0 DUP1 SLOAD PUSH2 0xB7C SWAP1 PUSH2 0x1D63 JUMP JUMPDEST DUP1 PUSH1 0x1F ADD PUSH1 0x20 DUP1 SWAP2 DIV MUL PUSH1 0x20 ADD PUSH1 0x40 MLOAD SWAP1 DUP2 ADD PUSH1 0x40 MSTORE DUP1 SWAP3 SWAP2 SWAP1 DUP2 DUP2 MSTORE PUSH1 0x20 ADD DUP3 DUP1 SLOAD PUSH2 0xBA8 SWAP1 PUSH2 0x1D63 JUMP JUMPDEST DUP1 ISZERO PUSH2 0xBF5 JUMPI DUP1 PUSH1 0x1F LT PUSH2 0xBCA JUMPI PUSH2 0x100 DUP1 DUP4 SLOAD DIV MUL DUP4 MSTORE SWAP2 PUSH1 0x20 ADD SWAP2 PUSH2 0xBF5 JUMP JUMPDEST DUP3 ADD SWAP2 SWAP1 PUSH1 0x0 MSTORE PUSH1 0x20 PUSH1 0x0 KECCAK256 SWAP1 JUMPDEST DUP2 SLOAD DUP2 MSTORE SWAP1 PUSH1 0x1 ADD SWAP1 PUSH1 0x20 ADD DUP1 DUP4 GT PUSH2 0xBD8 JUMPI DUP3 SWAP1 SUB PUSH1 0x1F AND DUP3 ADD SWAP2 JUMPDEST POP POP POP POP POP SWAP1 POP SWAP1 JUMP JUMPDEST PUSH1 0x60 PUSH1 0x1 DUP1 SLOAD PUSH2 0xB7C SWAP1 PUSH2 0x1D63 JUMP JUMPDEST PUSH2 0xC5D PUSH1 0x40 DUP1 MLOAD PUSH2 0x120 DUP2 ADD DUP3 MSTORE PUSH1 0x0 DUP1 DUP3 MSTORE PUSH1 0x60 PUSH1 0x20 DUP4 ADD DUP2 SWAP1 MSTORE SWAP3 DUP3 ADD DUP4 SWAP1 MSTORE SWAP2 DUP2 ADD DUP3 SWAP1 MSTORE PUSH1 0x80 DUP2 ADD DUP3 SWAP1 MSTORE PUSH1 0xA0 DUP2 ADD DUP3 SWAP1 MSTORE PUSH1 0xC0 DUP2 ADD DUP3 SWAP1 MSTORE SWAP1 PUSH1 0xE0 DUP3 ADD SWAP1 DUP2 MSTORE PUSH1 0x20 ADD PUSH1 0x0 SWAP1 MSTORE SWAP1 JUMP JUMPDEST PUSH1 0x40 MLOAD DUP1 PUSH2 0x120 ADD PUSH1 0x40 MSTORE DUP1 PUSH2 0xC71 PUSH2 0x1616 JUMP JUMPDEST DUP2 MSTORE PUSH1 0x20 ADD PUSH1 0x0 DUP1 SLOAD PUSH2 0xC83 SWAP1 PUSH2 0x1D63 JUMP JUMPDEST DUP1 PUSH1 0x1F ADD PUSH1 0x20 DUP1 SWAP2 DIV MUL PUSH1 0x20 ADD PUSH1 0x40 MLOAD SWAP1 DUP2 ADD PUSH1 0x40 MSTORE DUP1 SWAP3 SWAP2 SWAP1 DUP2 DUP2 MSTORE PUSH1 0x20 ADD DUP3 DUP1 SLOAD PUSH2 0xCAF SWAP1 PUSH2 0x1D63 JUMP JUMPDEST DUP1 ISZERO PUSH2 0xCFC JUMPI DUP1 PUSH1 0x1F LT PUSH2 0xCD1 JUMPI PUSH2 0x100 DUP1 DUP4 SLOAD DIV MUL DUP4 MSTORE SWAP2 PUSH1 0x20 ADD SWAP2 PUSH2 0xCFC JUMP JUMPDEST DUP3 ADD SWAP2 SWAP1 PUSH1 0x0 MSTORE PUSH1 0x20 PUSH1 0x0 KECCAK256 SWAP1 JUMPDEST DUP2 SLOAD DUP2 MSTORE SWAP1 PUSH1 0x1 ADD SWAP1 PUSH1 0x20 ADD DUP1 DUP4 GT PUSH2 0xCDF JUMPI DUP3 SWAP1 SUB PUSH1 0x1F AND DUP3 ADD SWAP2 JUMPDEST POP POP POP POP POP DUP2 MSTORE PUSH1 0x20 ADD PUSH1 0x1 DUP1 SLOAD PUSH2 0xD13 SWAP1 PUSH2 0x1D63 JUMP JUMPDEST DUP1 PUSH1 0x1F ADD PUSH1 0x20 DUP1 SWAP2 DIV MUL PUSH1 0x20 ADD PUSH1 0x40 MLOAD SWAP1 DUP2 ADD PUSH1 0x40 MSTORE DUP1 SWAP3 SWAP2 SWAP1 DUP2 DUP2 MSTORE PUSH1 0x20 ADD DUP3 DUP1 SLOAD PUSH2 0xD3F SWAP1 PUSH2 0x1D63 JUMP JUMPDEST DUP1 ISZERO PUSH2 0xD8C JUMPI DUP1 PUSH1 0x1F LT PUSH2 0xD61 JUMPI PUSH2 0x100 DUP1 DUP4 SLOAD DIV MUL DUP4 MSTORE SWAP2 PUSH1 0x20 ADD SWAP2 PUSH2 0xD8C JUMP JUMPDEST DUP3 ADD SWAP2 SWAP1 PUSH1 0x0 MSTORE PUSH1 0x20 PUSH1 0x0 KECCAK256 SWAP1 JUMPDEST DUP2 SLOAD DUP2 MSTORE SWAP1 PUSH1 0x1 ADD SWAP1 PUSH1 0x20 ADD DUP1 DUP4 GT PUSH2 0xD6F JUMPI DUP3 SWAP1 SUB PUSH1 0x1F AND DUP3 ADD SWAP2 JUMPDEST POP POP POP SWAP2 DUP4 MSTORE POP POP PUSH1 0x2 SLOAD PUSH1 0x1 PUSH1 0x1 PUSH1 0xA0 SHL SUB AND PUSH1 0x20 DUP3 ADD MSTORE PUSH1 0x40 ADD PUSH2 0xDB0 PUSH2 0x11A9 JUMP JUMPDEST PUSH1 0x1 PUSH1 0x1 PUSH1 0xA0 SHL SUB AND DUP2 MSTORE PUSH1 0x20 ADD PUSH2 0xDC6 PUSH2 0x11CA JUMP JUMPDEST PUSH1 0x1 PUSH1 0x1 PUSH1 0xA0 SHL SUB AND DUP2 MSTORE PUSH1 0x20 ADD PUSH2 0xDE1 PUSH1 0x43 SLOAD PUSH2 0xFFFF AND SWAP1 JUMP JUMPDEST PUSH2 0xFFFF AND DUP2 MSTORE PUSH1 0x20 ADD PUSH1 0x2 PUSH1 0x14 SWAP1 SLOAD SWAP1 PUSH2 0x100 EXP SWAP1 DIV PUSH1 0xFF AND PUSH1 0x2 DUP2 GT ISZERO PUSH2 0xE0B JUMPI PUSH2 0xE0B PUSH2 0x1B94 JUMP JUMPDEST DUP2 MSTORE PUSH1 0x20 ADD PUSH1 0x2 PUSH1 0x15 SWAP1 SLOAD SWAP1 PUSH2 0x100 EXP SWAP1 DIV PUSH1 0xFF AND PUSH1 0x2 DUP2 GT ISZERO PUSH2 0xE31 JUMPI PUSH2 0xE31 PUSH2 0x1B94 JUMP JUMPDEST SWAP1 MSTORE SWAP2 SWAP1 POP JUMP JUMPDEST PUSH1 0x40 MLOAD PUSH17 0x4C4956454C595F41444D494E5F524F4C45 PUSH1 0x78 SHL PUSH1 0x20 DUP3 ADD MSTORE PUSH1 0x31 ADD PUSH2 0x946 JUMP JUMPDEST PUSH1 0x0 PUSH1 0x1 PUSH1 0x1 PUSH1 0xA0 SHL SUB PUSH32 0x0 AND ADDRESS SUB PUSH2 0xEA7 JUMPI PUSH1 0x40 MLOAD PUSH3 0x461BCD PUSH1 0xE5 SHL DUP2 MSTORE PUSH1 0x4 ADD PUSH2 0x43B SWAP1 PUSH2 0x1CB5 JUMP JUMPDEST PUSH32 0x0 PUSH1 0x1 PUSH1 0x1 PUSH1 0xA0 SHL SUB AND PUSH2 0xED9 PUSH2 0x11A9 JUMP JUMPDEST PUSH1 0x1 PUSH1 0x1 PUSH1 0xA0 SHL SUB AND EQ PUSH2 0xEFF JUMPI PUSH1 0x40 MLOAD PUSH3 0x461BCD PUSH1 0xE5 SHL DUP2 MSTORE PUSH1 0x4 ADD PUSH2 0x43B SWAP1 PUSH2 0x1CDB JUMP JUMPDEST PUSH1 0x1 PUSH1 0x2 DUP1 SLOAD PUSH1 0x1 PUSH1 0xA0 SHL SWAP1 DIV PUSH1 0xFF AND SWAP1 DUP2 GT ISZERO PUSH2 0xF1F JUMPI PUSH2 0xF1F PUSH2 0x1B94 JUMP JUMPDEST EQ PUSH2 0xF3C JUMPI PUSH1 0x40 MLOAD PUSH3 0x461BCD PUSH1 0xE5 SHL DUP2 MSTORE PUSH1 0x4 ADD PUSH2 0x43B SWAP1 PUSH2 0x1D01 JUMP JUMPDEST PUSH1 0x2 DUP1 DUP1 SLOAD PUSH1 0x1 PUSH1 0xA8 SHL SWAP1 DIV PUSH1 0xFF AND SWAP1 DUP2 GT ISZERO PUSH2 0xF5B JUMPI PUSH2 0xF5B PUSH2 0x1B94 JUMP JUMPDEST EQ PUSH2 0xF99 JUMPI PUSH1 0x40 MLOAD PUSH3 0x461BCD PUSH1 0xE5 SHL DUP2 MSTORE PUSH1 0x20 PUSH1 0x4 DUP3 ADD MSTORE PUSH1 0xE PUSH1 0x24 DUP3 ADD MSTORE PUSH14 0x496C6C6567616C20557064617465 PUSH1 0x90 SHL PUSH1 0x44 DUP3 ADD MSTORE PUSH1 0x64 ADD PUSH2 0x43B JUMP JUMPDEST PUSH2 0xFA9 PUSH4 0xD9DC1F19 PUSH1 0xE0 SHL PUSH2 0x11F2 JUMP JUMPDEST PUSH2 0xFC5 JUMPI PUSH1 0x40 MLOAD PUSH3 0x461BCD PUSH1 0xE5 SHL DUP2 MSTORE PUSH1 0x4 ADD PUSH2 0x43B SWAP1 PUSH2 0x1D23 JUMP JUMPDEST PUSH1 0x1 PUSH1 0x1 PUSH1 0xA0 SHL SUB DUP3 AND PUSH2 0x1005 JUMPI PUSH1 0x40 MLOAD PUSH3 0x461BCD PUSH1 0xE5 SHL DUP2 MSTORE PUSH1 0x20 PUSH1 0x4 DUP3 ADD MSTORE PUSH1 0x7 PUSH1 0x24 DUP3 ADD MSTORE PUSH7 0x125B9D985B1A59 PUSH1 0xCA SHL PUSH1 0x44 DUP3 ADD MSTORE PUSH1 0x64 ADD PUSH2 0x43B JUMP JUMPDEST PUSH2 0x100E DUP3 PUSH2 0x16CA JUMP JUMPDEST POP PUSH1 0x1 SWAP2 SWAP1 POP JUMP JUMPDEST PUSH1 0x0 PUSH2 0x722 PUSH2 0x1616 JUMP JUMPDEST PUSH1 0x0 PUSH1 0x1 PUSH1 0x1 PUSH1 0xA0 SHL SUB PUSH32 0x0 AND ADDRESS SUB PUSH2 0x106A JUMPI PUSH1 0x40 MLOAD PUSH3 0x461BCD PUSH1 0xE5 SHL DUP2 MSTORE PUSH1 0x4 ADD PUSH2 0x43B SWAP1 PUSH2 0x1CB5 JUMP JUMPDEST PUSH32 0x0 PUSH1 0x1 PUSH1 0x1 PUSH1 0xA0 SHL SUB AND PUSH2 0x109C PUSH2 0x11A9 JUMP JUMPDEST PUSH1 0x1 PUSH1 0x1 PUSH1 0xA0 SHL SUB AND EQ PUSH2 0x10C2 JUMPI PUSH1 0x40 MLOAD PUSH3 0x461BCD PUSH1 0xE5 SHL DUP2 MSTORE PUSH1 0x4 ADD PUSH2 0x43B SWAP1 PUSH2 0x1CDB JUMP JUMPDEST PUSH1 0x0 PUSH2 0x10D1 PUSH1 0x43 SLOAD PUSH2 0xFFFF AND SWAP1 JUMP JUMPDEST PUSH2 0xFFFF AND GT PUSH2 0x110D JUMPI PUSH1 0x40 MLOAD PUSH3 0x461BCD PUSH1 0xE5 SHL DUP2 MSTORE PUSH1 0x20 PUSH1 0x4 DUP3 ADD MSTORE PUSH1 0x8 PUSH1 0x24 DUP3 ADD MSTORE PUSH8 0x1393D50812539255 PUSH1 0xC2 SHL PUSH1 0x44 DUP3 ADD MSTORE PUSH1 0x64 ADD PUSH2 0x43B JUMP JUMPDEST PUSH2 0x111D PUSH4 0xF708CEB PUSH1 0xE4 SHL PUSH2 0x11F2 JUMP JUMPDEST PUSH2 0x1139 JUMPI PUSH1 0x40 MLOAD PUSH3 0x461BCD PUSH1 0xE5 SHL DUP2 MSTORE PUSH1 0x4 ADD PUSH2 0x43B SWAP1 PUSH2 0x1D23 JUMP JUMPDEST PUSH1 0x2 DUP1 SLOAD DUP4 SWAP2 SWAP1 PUSH1 0xFF PUSH1 0xA0 SHL NOT AND PUSH1 0x1 PUSH1 0xA0 SHL DUP4 DUP4 DUP2 GT ISZERO PUSH2 0x115D JUMPI PUSH2 0x115D PUSH2 0x1B94 JUMP JUMPDEST MUL OR SWAP1 SSTORE POP ADDRESS CALLER PUSH1 0x1 PUSH1 0x1 PUSH1 0xA0 SHL SUB AND PUSH32 0xC08EC585C25F1907BAAAB6F278C5994531A2E34C59935B3FCFE813067A3B4878 DUP5 PUSH1 0x40 MLOAD PUSH2 0x702 SWAP2 SWAP1 PUSH2 0x1BD5 JUMP JUMPDEST PUSH1 0x0 PUSH2 0x722 PUSH2 0x11CA JUMP JUMPDEST SWAP1 JUMP JUMPDEST PUSH1 0x0 PUSH1 0x0 DUP1 MLOAD PUSH1 0x20 PUSH2 0x1ED4 DUP4 CODECOPY DUP2 MLOAD SWAP2 MSTORE JUMPDEST SLOAD PUSH1 0x1 PUSH1 0x1 PUSH1 0xA0 SHL SUB AND SWAP2 SWAP1 POP JUMP JUMPDEST PUSH1 0x0 PUSH32 0xB53127684A568B3173AE13B9F8A6016E243E63B6E8EE1178D6A717850B5D6103 PUSH2 0x11BB JUMP JUMPDEST PUSH1 0x2 SLOAD PUSH1 0x0 SWAP1 PUSH1 0x1 PUSH1 0x1 PUSH1 0xA0 SHL SUB AND ADDRESS SUB PUSH2 0x1363 JUMPI PUSH1 0x40 DUP1 MLOAD PUSH1 0x4 DUP2 MSTORE PUSH1 0x24 DUP2 ADD SWAP1 SWAP2 MSTORE PUSH1 0x20 DUP2 ADD DUP1 MLOAD PUSH1 0x1 PUSH1 0x1 PUSH1 0xE0 SHL SUB AND PUSH4 0x2C4B4FFF PUSH1 0xE0 SHL OR SWAP1 MSTORE PUSH1 0x0 PUSH2 0x1268 PUSH2 0x123D PUSH2 0x11A9 JUMP JUMPDEST DUP4 PUSH1 0x40 MLOAD DUP1 PUSH1 0x40 ADD PUSH1 0x40 MSTORE DUP1 PUSH1 0xC DUP2 MSTORE PUSH1 0x20 ADD PUSH12 0x1110D85B1B0811985A5B1959 PUSH1 0xA2 SHL DUP2 MSTORE POP PUSH2 0x1741 JUMP JUMPDEST SWAP1 POP DUP1 PUSH1 0x1 DUP3 MLOAD PUSH2 0x1279 SWAP2 SWAP1 PUSH2 0x1D9D JUMP JUMPDEST DUP2 MLOAD DUP2 LT PUSH2 0x1289 JUMPI PUSH2 0x1289 PUSH2 0x1DBE JUMP JUMPDEST ADD PUSH1 0x20 ADD MLOAD PUSH1 0xF8 SHR PUSH1 0x1 SUB PUSH2 0x12A2 JUMPI POP PUSH1 0x0 SWAP4 SWAP3 POP POP POP JUMP JUMPDEST PUSH4 0x17897AB9 PUSH1 0xE1 SHL ADDRESS DUP6 PUSH2 0x12B5 CALLER PUSH2 0x180F JUMP JUMPDEST PUSH1 0x40 MLOAD PUSH1 0x24 ADD PUSH2 0x12C7 SWAP4 SWAP3 SWAP2 SWAP1 PUSH2 0x1DD4 JUMP JUMPDEST PUSH1 0x40 DUP1 MLOAD PUSH1 0x1F NOT DUP2 DUP5 SUB ADD DUP2 MSTORE SWAP2 SWAP1 MSTORE PUSH1 0x20 DUP2 ADD DUP1 MLOAD PUSH1 0x1 PUSH1 0x1 PUSH1 0xE0 SHL SUB AND PUSH1 0x1 PUSH1 0x1 PUSH1 0xE0 SHL SUB NOT SWAP1 SWAP4 AND SWAP3 SWAP1 SWAP3 OR SWAP1 SWAP2 MSTORE SWAP2 POP PUSH2 0x132E PUSH2 0x1306 PUSH2 0x11A9 JUMP JUMPDEST DUP4 PUSH1 0x40 MLOAD DUP1 PUSH1 0x40 ADD PUSH1 0x40 MSTORE DUP1 PUSH1 0x9 DUP2 MSTORE PUSH1 0x20 ADD PUSH9 0x2337B93134B23232B7 PUSH1 0xB9 SHL DUP2 MSTORE POP PUSH2 0x1741 JUMP JUMPDEST SWAP1 POP DUP1 PUSH1 0x1 DUP3 MLOAD PUSH2 0x133F SWAP2 SWAP1 PUSH2 0x1D9D JUMP JUMPDEST DUP2 MLOAD DUP2 LT PUSH2 0x134F JUMPI PUSH2 0x134F PUSH2 0x1DBE JUMP JUMPDEST PUSH1 0x20 SWAP2 ADD ADD MLOAD PUSH1 0xF8 SHR PUSH1 0x1 EQ SWAP5 SWAP4 POP POP POP POP JUMP JUMPDEST PUSH1 0x2 SLOAD PUSH1 0x1 PUSH1 0x1 PUSH1 0xA0 SHL SUB AND PUSH4 0x2F12F572 ADDRESS DUP5 PUSH2 0x137F CALLER PUSH2 0x180F JUMP JUMPDEST PUSH1 0x40 MLOAD DUP5 PUSH4 0xFFFFFFFF AND PUSH1 0xE0 SHL DUP2 MSTORE PUSH1 0x4 ADD PUSH2 0x139D SWAP4 SWAP3 SWAP2 SWAP1 PUSH2 0x1DD4 JUMP JUMPDEST PUSH1 0x20 PUSH1 0x40 MLOAD DUP1 DUP4 SUB DUP2 DUP7 GAS STATICCALL ISZERO DUP1 ISZERO PUSH2 0x13BA JUMPI RETURNDATASIZE PUSH1 0x0 DUP1 RETURNDATACOPY RETURNDATASIZE PUSH1 0x0 REVERT JUMPDEST POP POP POP POP PUSH1 0x40 MLOAD RETURNDATASIZE PUSH1 0x1F NOT PUSH1 0x1F DUP3 ADD AND DUP3 ADD DUP1 PUSH1 0x40 MSTORE POP DUP2 ADD SWAP1 PUSH2 0x3EB SWAP2 SWAP1 PUSH2 0x1D46 JUMP JUMPDEST PUSH2 0x13E6 PUSH2 0x11A9 JUMP JUMPDEST PUSH1 0x1 PUSH1 0x1 PUSH1 0xA0 SHL SUB AND DUP2 PUSH1 0x1 PUSH1 0x1 PUSH1 0xA0 SHL SUB AND SUB PUSH2 0x1430 JUMPI PUSH1 0x40 MLOAD PUSH3 0x461BCD PUSH1 0xE5 SHL DUP2 MSTORE PUSH1 0x20 PUSH1 0x4 DUP3 ADD MSTORE PUSH1 0x7 PUSH1 0x24 DUP3 ADD MSTORE PUSH7 0x125B1B1959D85B PUSH1 0xCA SHL PUSH1 0x44 DUP3 ADD MSTORE PUSH1 0x64 ADD PUSH2 0x43B JUMP JUMPDEST PUSH2 0x1440 PUSH4 0x7147855D PUSH1 0xE0 SHL PUSH2 0x11F2 JUMP JUMPDEST PUSH2 0x145C JUMPI PUSH1 0x40 MLOAD PUSH3 0x461BCD PUSH1 0xE5 SHL DUP2 MSTORE PUSH1 0x4 ADD PUSH2 0x43B SWAP1 PUSH2 0x1D23 JUMP JUMPDEST POP JUMP JUMPDEST PUSH1 0x60 PUSH32 0x4910FDFA16FED3260ED0E7147F7CC6DA11A60208B5B9406D12A635614FFD9143 SLOAD PUSH1 0xFF AND ISZERO PUSH2 0x14A9 JUMPI PUSH2 0x1494 DUP5 PUSH2 0x184E JUMP JUMPDEST POP PUSH1 0x40 DUP1 MLOAD PUSH1 0x0 DUP2 MSTORE PUSH1 0x20 DUP2 ADD SWAP1 SWAP2 MSTORE PUSH2 0xABD JUMP JUMPDEST PUSH1 0x0 DUP1 MLOAD PUSH1 0x20 PUSH2 0x1ED4 DUP4 CODECOPY DUP2 MLOAD SWAP2 MSTORE PUSH1 0x0 SHL DUP5 PUSH1 0x1 PUSH1 0x1 PUSH1 0xA0 SHL SUB AND PUSH4 0x52D1902D PUSH1 0x40 MLOAD DUP2 PUSH4 0xFFFFFFFF AND PUSH1 0xE0 SHL DUP2 MSTORE PUSH1 0x4 ADD PUSH1 0x20 PUSH1 0x40 MLOAD DUP1 DUP4 SUB DUP2 DUP7 GAS STATICCALL ISZERO DUP1 ISZERO PUSH2 0x14F9 JUMPI RETURNDATASIZE PUSH1 0x0 DUP1 RETURNDATACOPY RETURNDATASIZE PUSH1 0x0 REVERT JUMPDEST POP POP POP POP PUSH1 0x40 MLOAD RETURNDATASIZE PUSH1 0x1F NOT PUSH1 0x1F DUP3 ADD AND DUP3 ADD DUP1 PUSH1 0x40 MSTORE POP DUP2 ADD SWAP1 PUSH2 0x151D SWAP2 SWAP1 PUSH2 0x1DFF JUMP JUMPDEST EQ PUSH2 0x1559 JUMPI PUSH1 0x40 MLOAD PUSH3 0x461BCD PUSH1 0xE5 SHL DUP2 MSTORE PUSH1 0x20 PUSH1 0x4 DUP3 ADD MSTORE PUSH1 0xC PUSH1 0x24 DUP3 ADD MSTORE PUSH12 0x496C6C6567616C2055555053 PUSH1 0xA0 SHL PUSH1 0x44 DUP3 ADD MSTORE PUSH1 0x64 ADD PUSH2 0x43B JUMP JUMPDEST PUSH1 0x40 MLOAD PUSH4 0x1FFC9A7 PUSH1 0xE0 SHL DUP2 MSTORE PUSH4 0x27D8F1FD PUSH1 0xE2 SHL PUSH1 0x4 DUP3 ADD MSTORE PUSH1 0x1 PUSH1 0x1 PUSH1 0xA0 SHL SUB DUP6 AND SWAP1 PUSH4 0x1FFC9A7 SWAP1 PUSH1 0x24 ADD PUSH1 0x20 PUSH1 0x40 MLOAD DUP1 DUP4 SUB DUP2 DUP7 GAS STATICCALL ISZERO DUP1 ISZERO PUSH2 0x15A4 JUMPI RETURNDATASIZE PUSH1 0x0 DUP1 RETURNDATACOPY RETURNDATASIZE PUSH1 0x0 REVERT JUMPDEST POP POP POP POP PUSH1 0x40 MLOAD RETURNDATASIZE PUSH1 0x1F NOT PUSH1 0x1F DUP3 ADD AND DUP3 ADD DUP1 PUSH1 0x40 MSTORE POP DUP2 ADD SWAP1 PUSH2 0x15C8 SWAP2 SWAP1 PUSH2 0x1D46 JUMP JUMPDEST PUSH2 0x1604 JUMPI PUSH1 0x40 MLOAD PUSH3 0x461BCD PUSH1 0xE5 SHL DUP2 MSTORE PUSH1 0x20 PUSH1 0x4 DUP3 ADD MSTORE PUSH1 0xD PUSH1 0x24 DUP3 ADD MSTORE PUSH13 0x496C6C6567616C2050726F7879 PUSH1 0x98 SHL PUSH1 0x44 DUP3 ADD MSTORE PUSH1 0x64 ADD PUSH2 0x43B JUMP JUMPDEST PUSH2 0x160F DUP5 DUP5 DUP5 PUSH2 0x18C3 JUMP JUMPDEST SWAP1 POP PUSH2 0xABD JUMP JUMPDEST PUSH1 0x0 PUSH32 0x8B73C3C69BB8FE3D512ECC4CF759CC79239F7B179B0FFACAA9A75D522B39400F PUSH1 0x0 PUSH1 0x40 MLOAD PUSH1 0x20 ADD PUSH2 0x164B SWAP2 SWAP1 PUSH2 0x1E18 JUMP JUMPDEST PUSH1 0x40 MLOAD PUSH1 0x20 DUP2 DUP4 SUB SUB DUP2 MSTORE SWAP1 PUSH1 0x40 MSTORE DUP1 MLOAD SWAP1 PUSH1 0x20 ADD KECCAK256 PUSH1 0x1 PUSH1 0x40 MLOAD PUSH1 0x20 ADD PUSH2 0x1673 SWAP2 SWAP1 PUSH2 0x1E18 JUMP JUMPDEST PUSH1 0x40 DUP1 MLOAD PUSH1 0x1F NOT DUP2 DUP5 SUB ADD DUP2 MSTORE DUP3 DUP3 MSTORE DUP1 MLOAD PUSH1 0x20 SWAP2 DUP3 ADD KECCAK256 SWAP1 DUP4 ADD SWAP5 SWAP1 SWAP5 MSTORE DUP2 ADD SWAP2 SWAP1 SWAP2 MSTORE PUSH1 0x60 DUP2 ADD SWAP2 SWAP1 SWAP2 MSTORE CHAINID PUSH1 0x80 DUP3 ADD MSTORE ADDRESS PUSH1 0xA0 DUP3 ADD MSTORE PUSH1 0xC0 ADD PUSH1 0x40 MLOAD PUSH1 0x20 DUP2 DUP4 SUB SUB DUP2 MSTORE SWAP1 PUSH1 0x40 MSTORE DUP1 MLOAD SWAP1 PUSH1 0x20 ADD KECCAK256 SWAP1 POP SWAP1 JUMP JUMPDEST PUSH32 0xB53127684A568B3173AE13B9F8A6016E243E63B6E8EE1178D6A717850B5D6103 DUP1 SLOAD PUSH1 0x1 PUSH1 0x1 PUSH1 0xA0 SHL SUB DUP4 AND PUSH1 0x1 PUSH1 0x1 PUSH1 0xA0 SHL SUB NOT SWAP1 SWAP2 AND DUP2 OR SWAP1 SWAP2 SSTORE PUSH1 0x40 DUP1 MLOAD SWAP2 DUP3 MSTORE MLOAD ADDRESS SWAP2 CALLER SWAP2 PUSH32 0x63FDBED5F2909EC44E3BECC51E9D29654CE1447747914E8A6EBC019E7F640B8B SWAP2 DUP2 SWAP1 SUB PUSH1 0x20 ADD SWAP1 LOG3 POP JUMP JUMPDEST PUSH1 0x60 PUSH1 0x1 PUSH1 0x1 PUSH1 0xA0 SHL SUB DUP5 AND EXTCODESIZE PUSH2 0x179A JUMPI PUSH1 0x40 MLOAD PUSH3 0x461BCD PUSH1 0xE5 SHL DUP2 MSTORE PUSH1 0x20 PUSH1 0x4 DUP3 ADD MSTORE PUSH1 0x18 PUSH1 0x24 DUP3 ADD MSTORE PUSH32 0x496C6C6567616C20436F6E747261637420416464726573730000000000000000 PUSH1 0x44 DUP3 ADD MSTORE PUSH1 0x64 ADD PUSH2 0x43B JUMP JUMPDEST PUSH1 0x0 DUP1 DUP6 PUSH1 0x1 PUSH1 0x1 PUSH1 0xA0 SHL SUB AND DUP6 PUSH1 0x40 MLOAD PUSH2 0x17B5 SWAP2 SWAP1 PUSH2 0x1EB7 JUMP JUMPDEST PUSH1 0x0 PUSH1 0x40 MLOAD DUP1 DUP4 SUB DUP2 DUP6 GAS DELEGATECALL SWAP2 POP POP RETURNDATASIZE DUP1 PUSH1 0x0 DUP2 EQ PUSH2 0x17F0 JUMPI PUSH1 0x40 MLOAD SWAP2 POP PUSH1 0x1F NOT PUSH1 0x3F RETURNDATASIZE ADD AND DUP3 ADD PUSH1 0x40 MSTORE RETURNDATASIZE DUP3 MSTORE RETURNDATASIZE PUSH1 0x0 PUSH1 0x20 DUP5 ADD RETURNDATACOPY PUSH2 0x17F5 JUMP JUMPDEST PUSH1 0x60 SWAP2 POP JUMPDEST POP SWAP2 POP SWAP2 POP PUSH2 0x1805 DUP3 DUP3 DUP7 PUSH2 0x192D JUMP JUMPDEST SWAP7 SWAP6 POP POP POP POP POP POP JUMP JUMPDEST PUSH1 0x40 MLOAD PUSH12 0xFFFFFFFFFFFFFFFFFFFFFFFF NOT PUSH1 0x60 DUP4 SWAP1 SHL AND PUSH1 0x20 DUP3 ADD MSTORE PUSH1 0x0 SWAP1 PUSH1 0x34 ADD PUSH1 0x40 MLOAD PUSH1 0x20 DUP2 DUP4 SUB SUB DUP2 MSTORE SWAP1 PUSH1 0x40 MSTORE DUP1 MLOAD SWAP1 PUSH1 0x20 ADD KECCAK256 SWAP1 POP SWAP2 SWAP1 POP JUMP JUMPDEST PUSH1 0x1 PUSH1 0x1 PUSH1 0xA0 SHL SUB DUP2 AND EXTCODESIZE PUSH2 0x1894 JUMPI PUSH1 0x40 MLOAD PUSH3 0x461BCD PUSH1 0xE5 SHL DUP2 MSTORE PUSH1 0x20 PUSH1 0x4 DUP3 ADD MSTORE PUSH1 0xC PUSH1 0x24 DUP3 ADD MSTORE PUSH12 0x125B1B1959D85B08125B5C1B PUSH1 0xA2 SHL PUSH1 0x44 DUP3 ADD MSTORE PUSH1 0x64 ADD PUSH2 0x43B JUMP JUMPDEST PUSH1 0x0 DUP1 MLOAD PUSH1 0x20 PUSH2 0x1ED4 DUP4 CODECOPY DUP2 MLOAD SWAP2 MSTORE DUP1 SLOAD PUSH1 0x1 PUSH1 0x1 PUSH1 0xA0 SHL SUB NOT AND PUSH1 0x1 PUSH1 0x1 PUSH1 0xA0 SHL SUB SWAP3 SWAP1 SWAP3 AND SWAP2 SWAP1 SWAP2 OR SWAP1 SSTORE JUMP JUMPDEST PUSH1 0x60 PUSH2 0x18CE DUP5 PUSH2 0x1966 JUMP JUMPDEST PUSH1 0x0 DUP4 MLOAD GT DUP1 PUSH2 0x18DB JUMPI POP DUP2 JUMPDEST ISZERO PUSH2 0x1916 JUMPI PUSH2 0x160F DUP5 DUP5 PUSH1 0x40 MLOAD DUP1 PUSH1 0x40 ADD PUSH1 0x40 MSTORE DUP1 PUSH1 0x13 DUP2 MSTORE PUSH1 0x20 ADD PUSH19 0x11195B1959D85D1958D85B1B0811985A5B1959 PUSH1 0x6A SHL DUP2 MSTORE POP PUSH2 0x1741 JUMP JUMPDEST POP POP PUSH1 0x40 DUP1 MLOAD PUSH1 0x0 DUP2 MSTORE PUSH1 0x20 DUP2 ADD SWAP1 SWAP2 MSTORE SWAP3 SWAP2 POP POP JUMP JUMPDEST PUSH1 0x60 DUP4 ISZERO PUSH2 0x193C JUMPI POP DUP2 PUSH2 0xABD JUMP JUMPDEST DUP3 MLOAD ISZERO PUSH2 0x194C JUMPI DUP3 MLOAD DUP1 DUP5 PUSH1 0x20 ADD REVERT JUMPDEST DUP2 PUSH1 0x40 MLOAD PUSH3 0x461BCD PUSH1 0xE5 SHL DUP2 MSTORE PUSH1 0x4 ADD PUSH2 0x43B SWAP2 SWAP1 PUSH2 0x1B81 JUMP JUMPDEST PUSH2 0x196F DUP2 PUSH2 0x184E JUMP JUMPDEST PUSH1 0x40 MLOAD PUSH1 0x1 PUSH1 0x1 PUSH1 0xA0 SHL SUB DUP3 AND SWAP1 ADDRESS SWAP1 CALLER SWAP1 PUSH32 0x8EE0F2BD29C0E6A975C3CC2E47CF2E01B5F23A9A8A02E0ED6A5A070269DE3D2D SWAP1 PUSH1 0x0 SWAP1 LOG4 POP JUMP JUMPDEST PUSH1 0x0 PUSH1 0x20 DUP3 DUP5 SUB SLT ISZERO PUSH2 0x19BC JUMPI PUSH1 0x0 DUP1 REVERT JUMPDEST DUP2 CALLDATALOAD PUSH1 0x1 PUSH1 0x1 PUSH1 0xE0 SHL SUB NOT DUP2 AND DUP2 EQ PUSH2 0xABD JUMPI PUSH1 0x0 DUP1 REVERT JUMPDEST DUP1 CALLDATALOAD PUSH1 0x1 PUSH1 0x1 PUSH1 0xA0 SHL SUB DUP2 AND DUP2 EQ PUSH2 0x70E JUMPI PUSH1 0x0 DUP1 REVERT JUMPDEST PUSH1 0x0 PUSH1 0x20 DUP3 DUP5 SUB SLT ISZERO PUSH2 0x19FD JUMPI PUSH1 0x0 DUP1 REVERT JUMPDEST PUSH2 0xABD DUP3 PUSH2 0x19D4 JUMP JUMPDEST PUSH1 0x3 DUP2 LT PUSH2 0x145C JUMPI PUSH1 0x0 DUP1 REVERT JUMPDEST PUSH1 0x0 PUSH1 0x20 DUP3 DUP5 SUB SLT ISZERO PUSH2 0x1A25 JUMPI PUSH1 0x0 DUP1 REVERT JUMPDEST DUP2 CALLDATALOAD PUSH2 0xABD DUP2 PUSH2 0x1A06 JUMP JUMPDEST PUSH4 0x4E487B71 PUSH1 0xE0 SHL PUSH1 0x0 MSTORE PUSH1 0x41 PUSH1 0x4 MSTORE PUSH1 0x24 PUSH1 0x0 REVERT JUMPDEST DUP1 ISZERO ISZERO DUP2 EQ PUSH2 0x145C JUMPI PUSH1 0x0 DUP1 REVERT JUMPDEST DUP1 CALLDATALOAD PUSH2 0x70E DUP2 PUSH2 0x1A46 JUMP JUMPDEST PUSH1 0x0 DUP1 PUSH1 0x0 PUSH1 0x60 DUP5 DUP7 SUB SLT ISZERO PUSH2 0x1A74 JUMPI PUSH1 0x0 DUP1 REVERT JUMPDEST PUSH2 0x1A7D DUP5 PUSH2 0x19D4 JUMP JUMPDEST SWAP3 POP PUSH1 0x20 DUP5 ADD CALLDATALOAD PUSH8 0xFFFFFFFFFFFFFFFF DUP1 DUP3 GT ISZERO PUSH2 0x1A9A JUMPI PUSH1 0x0 DUP1 REVERT JUMPDEST DUP2 DUP7 ADD SWAP2 POP DUP7 PUSH1 0x1F DUP4 ADD SLT PUSH2 0x1AAE JUMPI PUSH1 0x0 DUP1 REVERT JUMPDEST DUP2 CALLDATALOAD DUP2 DUP2 GT ISZERO PUSH2 0x1AC0 JUMPI PUSH2 0x1AC0 PUSH2 0x1A30 JUMP JUMPDEST PUSH1 0x40 MLOAD PUSH1 0x1F DUP3 ADD PUSH1 0x1F NOT SWAP1 DUP2 AND PUSH1 0x3F ADD AND DUP2 ADD SWAP1 DUP4 DUP3 GT DUP2 DUP4 LT OR ISZERO PUSH2 0x1AE8 JUMPI PUSH2 0x1AE8 PUSH2 0x1A30 JUMP JUMPDEST DUP2 PUSH1 0x40 MSTORE DUP3 DUP2 MSTORE DUP10 PUSH1 0x20 DUP5 DUP8 ADD ADD GT ISZERO PUSH2 0x1B01 JUMPI PUSH1 0x0 DUP1 REVERT JUMPDEST DUP3 PUSH1 0x20 DUP7 ADD PUSH1 0x20 DUP4 ADD CALLDATACOPY PUSH1 0x0 PUSH1 0x20 DUP5 DUP4 ADD ADD MSTORE DUP1 SWAP7 POP POP POP POP POP POP PUSH2 0x1B28 PUSH1 0x40 DUP6 ADD PUSH2 0x1A54 JUMP JUMPDEST SWAP1 POP SWAP3 POP SWAP3 POP SWAP3 JUMP JUMPDEST PUSH1 0x0 JUMPDEST DUP4 DUP2 LT ISZERO PUSH2 0x1B4C JUMPI DUP2 DUP2 ADD MLOAD DUP4 DUP3 ADD MSTORE PUSH1 0x20 ADD PUSH2 0x1B34 JUMP JUMPDEST POP POP PUSH1 0x0 SWAP2 ADD MSTORE JUMP JUMPDEST PUSH1 0x0 DUP2 MLOAD DUP1 DUP5 MSTORE PUSH2 0x1B6D DUP2 PUSH1 0x20 DUP7 ADD PUSH1 0x20 DUP7 ADD PUSH2 0x1B31 JUMP JUMPDEST PUSH1 0x1F ADD PUSH1 0x1F NOT AND SWAP3 SWAP1 SWAP3 ADD PUSH1 0x20 ADD SWAP3 SWAP2 POP POP JUMP JUMPDEST PUSH1 0x20 DUP2 MSTORE PUSH1 0x0 PUSH2 0xABD PUSH1 0x20 DUP4 ADD DUP5 PUSH2 0x1B55 JUMP JUMPDEST PUSH4 0x4E487B71 PUSH1 0xE0 SHL PUSH1 0x0 MSTORE PUSH1 0x21 PUSH1 0x4 MSTORE PUSH1 0x24 PUSH1 0x0 REVERT JUMPDEST PUSH1 0x3 DUP2 LT PUSH2 0x145C JUMPI PUSH4 0x4E487B71 PUSH1 0xE0 SHL PUSH1 0x0 MSTORE PUSH1 0x21 PUSH1 0x4 MSTORE PUSH1 0x24 PUSH1 0x0 REVERT JUMPDEST PUSH2 0x1BD1 DUP2 PUSH2 0x1BAA JUMP JUMPDEST SWAP1 MSTORE JUMP JUMPDEST PUSH1 0x20 DUP2 ADD PUSH2 0x1BE2 DUP4 PUSH2 0x1BAA JUMP JUMPDEST SWAP2 SWAP1 MSTORE SWAP1 JUMP JUMPDEST PUSH1 0x20 DUP2 MSTORE DUP2 MLOAD PUSH1 0x20 DUP3 ADD MSTORE PUSH1 0x0 PUSH1 0x20 DUP4 ADD MLOAD PUSH2 0x120 DUP1 PUSH1 0x40 DUP6 ADD MSTORE PUSH2 0x1C11 PUSH2 0x140 DUP6 ADD DUP4 PUSH2 0x1B55 JUMP JUMPDEST SWAP2 POP PUSH1 0x40 DUP6 ADD MLOAD PUSH1 0x1F NOT DUP6 DUP5 SUB ADD PUSH1 0x60 DUP7 ADD MSTORE PUSH2 0x1C2E DUP4 DUP3 PUSH2 0x1B55 JUMP JUMPDEST SWAP3 POP POP PUSH1 0x60 DUP6 ADD MLOAD PUSH2 0x1C4B PUSH1 0x80 DUP7 ADD DUP3 PUSH1 0x1 PUSH1 0x1 PUSH1 0xA0 SHL SUB AND SWAP1 MSTORE JUMP JUMPDEST POP PUSH1 0x80 DUP6 ADD MLOAD PUSH1 0x1 PUSH1 0x1 PUSH1 0xA0 SHL SUB DUP2 AND PUSH1 0xA0 DUP7 ADD MSTORE POP PUSH1 0xA0 DUP6 ADD MLOAD PUSH1 0x1 PUSH1 0x1 PUSH1 0xA0 SHL SUB DUP2 AND PUSH1 0xC0 DUP7 ADD MSTORE POP PUSH1 0xC0 DUP6 ADD MLOAD PUSH2 0xFFFF DUP2 AND PUSH1 0xE0 DUP7 ADD MSTORE POP PUSH1 0xE0 DUP6 ADD MLOAD PUSH2 0x100 PUSH2 0x1C9A DUP2 DUP8 ADD DUP4 PUSH2 0x1BC8 JUMP JUMPDEST DUP7 ADD MLOAD SWAP1 POP PUSH2 0x1CAB DUP6 DUP4 ADD DUP3 PUSH2 0x1BC8 JUMP JUMPDEST POP SWAP1 SWAP5 SWAP4 POP POP POP POP JUMP JUMPDEST PUSH1 0x20 DUP1 DUP3 MSTORE PUSH1 0xC SWAP1 DUP3 ADD MSTORE PUSH12 0x125B1B1959D85B0810D85B1B PUSH1 0xA2 SHL PUSH1 0x40 DUP3 ADD MSTORE PUSH1 0x60 ADD SWAP1 JUMP JUMPDEST PUSH1 0x20 DUP1 DUP3 MSTORE PUSH1 0xC SWAP1 DUP3 ADD MSTORE PUSH12 0x125B9D985B1A590810D85B1B PUSH1 0xA2 SHL PUSH1 0x40 DUP3 ADD MSTORE PUSH1 0x60 ADD SWAP1 JUMP JUMPDEST PUSH1 0x20 DUP1 DUP3 MSTORE PUSH1 0x8 SWAP1 DUP3 ADD MSTORE PUSH8 0x14995A9958DD1959 PUSH1 0xC2 SHL PUSH1 0x40 DUP3 ADD MSTORE PUSH1 0x60 ADD SWAP1 JUMP JUMPDEST PUSH1 0x20 DUP1 DUP3 MSTORE PUSH1 0x9 SWAP1 DUP3 ADD MSTORE PUSH9 0x2337B93134B23232B7 PUSH1 0xB9 SHL PUSH1 0x40 DUP3 ADD MSTORE PUSH1 0x60 ADD SWAP1 JUMP JUMPDEST PUSH1 0x0 PUSH1 0x20 DUP3 DUP5 SUB SLT ISZERO PUSH2 0x1D58 JUMPI PUSH1 0x0 DUP1 REVERT JUMPDEST DUP2 MLOAD PUSH2 0xABD DUP2 PUSH2 0x1A46 JUMP JUMPDEST PUSH1 0x1 DUP2 DUP2 SHR SWAP1 DUP3 AND DUP1 PUSH2 0x1D77 JUMPI PUSH1 0x7F DUP3 AND SWAP2 POP JUMPDEST PUSH1 0x20 DUP3 LT DUP2 SUB PUSH2 0x1D97 JUMPI PUSH4 0x4E487B71 PUSH1 0xE0 SHL PUSH1 0x0 MSTORE PUSH1 0x22 PUSH1 0x4 MSTORE PUSH1 0x24 PUSH1 0x0 REVERT JUMPDEST POP SWAP2 SWAP1 POP JUMP JUMPDEST DUP2 DUP2 SUB DUP2 DUP2 GT ISZERO PUSH2 0x3EB JUMPI PUSH4 0x4E487B71 PUSH1 0xE0 SHL PUSH1 0x0 MSTORE PUSH1 0x11 PUSH1 0x4 MSTORE PUSH1 0x24 PUSH1 0x0 REVERT JUMPDEST PUSH4 0x4E487B71 PUSH1 0xE0 SHL PUSH1 0x0 MSTORE PUSH1 0x32 PUSH1 0x4 MSTORE PUSH1 0x24 PUSH1 0x0 REVERT JUMPDEST PUSH1 0x1 PUSH1 0x1 PUSH1 0xA0 SHL SUB SWAP4 SWAP1 SWAP4 AND DUP4 MSTORE PUSH1 0x1 PUSH1 0x1 PUSH1 0xE0 SHL SUB NOT SWAP2 SWAP1 SWAP2 AND PUSH1 0x20 DUP4 ADD MSTORE PUSH1 0x40 DUP3 ADD MSTORE PUSH1 0x60 ADD SWAP1 JUMP JUMPDEST PUSH1 0x0 PUSH1 0x20 DUP3 DUP5 SUB SLT ISZERO PUSH2 0x1E11 JUMPI PUSH1 0x0 DUP1 REVERT JUMPDEST POP MLOAD SWAP2 SWAP1 POP JUMP JUMPDEST PUSH1 0x0 DUP1 DUP4 SLOAD DUP2 PUSH1 0x1 DUP3 DUP2 SHR SWAP2 POP DUP1 DUP4 AND DUP1 PUSH2 0x1E34 JUMPI PUSH1 0x7F DUP4 AND SWAP3 POP JUMPDEST PUSH1 0x20 DUP1 DUP5 LT DUP3 SUB PUSH2 0x1E53 JUMPI PUSH4 0x4E487B71 PUSH1 0xE0 SHL DUP7 MSTORE PUSH1 0x22 PUSH1 0x4 MSTORE PUSH1 0x24 DUP7 REVERT JUMPDEST DUP2 DUP1 ISZERO PUSH2 0x1E67 JUMPI PUSH1 0x1 DUP2 EQ PUSH2 0x1E7C JUMPI PUSH2 0x1EA9 JUMP JUMPDEST PUSH1 0xFF NOT DUP7 AND DUP10 MSTORE DUP5 ISZERO ISZERO DUP6 MUL DUP10 ADD SWAP7 POP PUSH2 0x1EA9 JUMP JUMPDEST PUSH1 0x0 DUP11 DUP2 MSTORE PUSH1 0x20 SWAP1 KECCAK256 PUSH1 0x0 JUMPDEST DUP7 DUP2 LT ISZERO PUSH2 0x1EA1 JUMPI DUP2 SLOAD DUP12 DUP3 ADD MSTORE SWAP1 DUP6 ADD SWAP1 DUP4 ADD PUSH2 0x1E88 JUMP JUMPDEST POP POP DUP5 DUP10 ADD SWAP7 POP JUMPDEST POP SWAP5 SWAP9 SWAP8 POP POP POP POP POP POP POP POP JUMP JUMPDEST PUSH1 0x0 DUP3 MLOAD PUSH2 0x1EC9 DUP2 DUP5 PUSH1 0x20 DUP8 ADD PUSH2 0x1B31 JUMP JUMPDEST SWAP2 SWAP1 SWAP2 ADD SWAP3 SWAP2 POP POP JUMP INVALID CALLDATASIZE ADDMOD SWAP5 LOG1 EXTCODESIZE LOG1 LOG3 0x21 MOD PUSH8 0xC828492DB98DCA3E KECCAK256 PUSH23 0xCC3735A920A3CA505D382BBCA264697066735822122078 0xB7 CREATE2 0x1F 0xDF SWAP8 DUP14 0xBA PUSH8 0x9C8BE84E4F9AE 0xD7 SSTORE PUSH19 0x52F61AB8496B4D1A3CB6249164736F6C634300 ADDMOD GT STOP CALLER 0xB5 BALANCE 0x27 PUSH9 0x4A568B3173AE13B9F8 0xA6 ADD PUSH15 0x243E63B6E8EE1178D6A717850B5D61 SUB "
    },
    "gasEstimates": {
      "creation": {
        "codeDepositCost": "1595400",
        "executionCost": "infinite",
        "totalCost": "infinite"
      },
      "external": {
        "": "207",
        "LIVELY_ADMIN_ROLE()": "453",
        "LIVELY_SYSTEM_ADMIN_ROLE()": "348",
        "accessControlManager()": "2398",
        "contractName()": "infinite",
        "contractVersion()": "infinite",
        "domainSeparator()": "infinite",
        "initVersion()": "2413",
        "localAdmin()": "2489",
        "proxiableUUID()": "infinite",
        "proxyInfo()": "infinite",
        "safeModeStatus()": "2425",
        "setAccessControlManager(address)": "infinite",
        "setLocalAdmin(address)": "infinite",
        "setSafeModeStatus(uint8)": "infinite",
        "setUpgradabilityStatus(uint8)": "infinite",
        "subjectAddress()": "infinite",
        "supportsInterface(bytes4)": "505",
        "upgradabilityStatus()": "2501",
        "upgradeTo(address,bytes,bool)": "infinite",
        "withdrawBalance(address)": "infinite"
      }
    },
    "methodIdentifiers": {
      "LIVELY_ADMIN_ROLE()": "d8b31999",
      "LIVELY_SYSTEM_ADMIN_ROLE()": "5632ffd8",
      "accessControlManager()": "b4a0bdf3",
      "contractName()": "75d0c0dc",
      "contractVersion()": "a0a8e460",
      "domainSeparator()": "f698da25",
      "initVersion()": "38d38c97",
      "localAdmin()": "f94a0adb",
      "proxiableUUID()": "52d1902d",
      "proxyInfo()": "d49e164d",
      "safeModeStatus()": "a304e353",
      "setAccessControlManager(address)": "0e32cb86",
      "setLocalAdmin(address)": "d9dc1f19",
      "setSafeModeStatus(uint8)": "f708ceb0",
      "setUpgradabilityStatus(uint8)": "399d6e38",
      "subjectAddress()": "58dbc45d",
      "supportsInterface(bytes4)": "01ffc9a7",
      "upgradabilityStatus()": "fbad3684",
      "upgradeTo(address,bytes,bool)": "7147855d",
      "withdrawBalance(address)": "756af45f"
    }
  },
  "storageLayout": {
    "storage": [
      {
        "astId": 43592,
        "contract": "src/contracts/test/proxy/BaseUUPSProxyTest.sol:BaseUUPSProxyTest",
        "label": "_contractName",
        "offset": 0,
        "slot": "0",
        "type": "t_string_storage"
      },
      {
        "astId": 43594,
        "contract": "src/contracts/test/proxy/BaseUUPSProxyTest.sol:BaseUUPSProxyTest",
        "label": "_contractVersion",
        "offset": 0,
        "slot": "1",
        "type": "t_string_storage"
      },
      {
        "astId": 43596,
        "contract": "src/contracts/test/proxy/BaseUUPSProxyTest.sol:BaseUUPSProxyTest",
        "label": "_accessControlManager",
        "offset": 0,
        "slot": "2",
        "type": "t_address"
      },
      {
        "astId": 43599,
        "contract": "src/contracts/test/proxy/BaseUUPSProxyTest.sol:BaseUUPSProxyTest",
        "label": "_sstat",
        "offset": 20,
        "slot": "2",
        "type": "t_enum(ProxySafeModeStatus)43615"
      },
      {
        "astId": 43602,
        "contract": "src/contracts/test/proxy/BaseUUPSProxyTest.sol:BaseUUPSProxyTest",
        "label": "_ustat",
        "offset": 21,
        "slot": "2",
        "type": "t_enum(ProxyUpgradabilityStatus)43619"
      },
      {
        "astId": 43607,
        "contract": "src/contracts/test/proxy/BaseUUPSProxyTest.sol:BaseUUPSProxyTest",
        "label": "__reserved",
        "offset": 0,
        "slot": "3",
        "type": "t_array(t_uint256)64_storage"
      },
      {
        "astId": 43824,
        "contract": "src/contracts/test/proxy/BaseUUPSProxyTest.sol:BaseUUPSProxyTest",
        "label": "_initialized",
        "offset": 0,
        "slot": "67",
        "type": "t_uint16"
      },
      {
        "astId": 43827,
        "contract": "src/contracts/test/proxy/BaseUUPSProxyTest.sol:BaseUUPSProxyTest",
        "label": "_initializing",
        "offset": 2,
        "slot": "67",
        "type": "t_bool"
      }
    ],
    "types": {
      "t_address": {
        "encoding": "inplace",
        "label": "address",
        "numberOfBytes": "20"
      },
      "t_array(t_uint256)64_storage": {
        "base": "t_uint256",
        "encoding": "inplace",
        "label": "uint256[64]",
        "numberOfBytes": "2048"
      },
      "t_bool": {
        "encoding": "inplace",
        "label": "bool",
        "numberOfBytes": "1"
      },
      "t_enum(ProxySafeModeStatus)43615": {
        "encoding": "inplace",
        "label": "enum IBaseProxy.ProxySafeModeStatus",
        "numberOfBytes": "1"
      },
      "t_enum(ProxyUpgradabilityStatus)43619": {
        "encoding": "inplace",
        "label": "enum IBaseProxy.ProxyUpgradabilityStatus",
        "numberOfBytes": "1"
      },
      "t_string_storage": {
        "encoding": "bytes",
        "label": "string",
        "numberOfBytes": "32"
      },
      "t_uint16": {
        "encoding": "inplace",
        "label": "uint16",
        "numberOfBytes": "2"
      },
      "t_uint256": {
        "encoding": "inplace",
        "label": "uint256",
        "numberOfBytes": "32"
      }
    }
  },
  "userdoc": {
    "kind": "user",
    "methods": {},
    "version": 1
  }
}