{
  "address": "0xceF5B6d133Aa2e70eC554B695B32A24343a9aD65",
  "abi": [
    {
      "inputs": [],
      "stateMutability": "nonpayable",
      "type": "constructor"
    },
    {
      "inputs": [
        {
          "internalType": "enum IACL.AuthorizationStatus",
          "name": "",
          "type": "uint8"
        }
      ],
      "name": "ACLActionForbidden",
      "type": "error"
    },
    {
      "inputs": [],
      "name": "ACLCallForbidden",
      "type": "error"
    },
    {
      "inputs": [],
      "name": "ACLContextActivityForbidden",
      "type": "error"
    },
    {
      "inputs": [],
      "name": "ACLContextNotFound",
      "type": "error"
    },
    {
      "inputs": [],
      "name": "ACLDomainActivityForbidden",
      "type": "error"
    },
    {
      "inputs": [],
      "name": "ACLDomainNotFound",
      "type": "error"
    },
    {
      "inputs": [],
      "name": "ACLFunctionActivityForbidden",
      "type": "error"
    },
    {
      "inputs": [],
      "name": "ACLFunctionNotFound",
      "type": "error"
    },
    {
      "inputs": [],
      "name": "ACLMemberActivityForbidden",
      "type": "error"
    },
    {
      "inputs": [],
      "name": "ACLMemberNotFound",
      "type": "error"
    },
    {
      "inputs": [],
      "name": "ACLPolicyForbidden",
      "type": "error"
    },
    {
      "inputs": [],
      "name": "ACLRealmActivityForbidden",
      "type": "error"
    },
    {
      "inputs": [],
      "name": "ACLRealmNotFound",
      "type": "error"
    },
    {
      "inputs": [],
      "name": "ACLRoleActivityForbidden",
      "type": "error"
    },
    {
      "inputs": [],
      "name": "ACLRoleNotFound",
      "type": "error"
    },
    {
      "inputs": [],
      "name": "ACLRoleScopeForbidden",
      "type": "error"
    },
    {
      "inputs": [],
      "name": "ACLTypeActivityForbidden",
      "type": "error"
    },
    {
      "inputs": [],
      "name": "ACLTypeNotFound",
      "type": "error"
    },
    {
      "inputs": [],
      "name": "ACLUnauthorized",
      "type": "error"
    },
    {
      "inputs": [],
      "name": "ACLUniverseActivityForbidden",
      "type": "error"
    },
    {
      "inputs": [],
      "name": "AdminAccessFunctionNotFound",
      "type": "error"
    },
    {
      "inputs": [],
      "name": "AdminAccessNotPermitted",
      "type": "error"
    },
    {
      "inputs": [],
      "name": "AdminAccessPolicyForbidden",
      "type": "error"
    },
    {
      "inputs": [],
      "name": "AdminAccessRoleActivityForbidden",
      "type": "error"
    },
    {
      "inputs": [],
      "name": "AdminAccessRoleNotFound",
      "type": "error"
    },
    {
      "inputs": [],
      "name": "AdminAccessTypeActivityForbidden",
      "type": "error"
    },
    {
      "inputs": [],
      "name": "AdminAccessTypeNotFound",
      "type": "error"
    },
    {
      "inputs": [
        {
          "internalType": "enum IACL.AdminAccessStatus",
          "name": "",
          "type": "uint8"
        }
      ],
      "name": "SetAdminForbidden",
      "type": "error"
    },
    {
      "anonymous": false,
      "inputs": [
        {
          "indexed": true,
          "internalType": "address",
          "name": "sender",
          "type": "address"
        },
        {
          "indexed": true,
          "internalType": "address",
          "name": "proxy",
          "type": "address"
        },
        {
          "indexed": true,
          "internalType": "address",
          "name": "subject",
          "type": "address"
        },
        {
          "indexed": false,
          "internalType": "string",
          "name": "name",
          "type": "string"
        },
        {
          "indexed": false,
          "internalType": "string",
          "name": "version",
          "type": "string"
        },
        {
          "indexed": false,
          "internalType": "uint16",
          "name": "initCount",
          "type": "uint16"
        }
      ],
      "name": "Initialized",
      "type": "event"
    },
    {
      "anonymous": false,
      "inputs": [
        {
          "indexed": true,
          "internalType": "address",
          "name": "sender",
          "type": "address"
        },
        {
          "indexed": true,
          "internalType": "address",
          "name": "proxy",
          "type": "address"
        },
        {
          "indexed": false,
          "internalType": "address",
          "name": "acl",
          "type": "address"
        }
      ],
      "name": "ProxyAccessControlUpdated",
      "type": "event"
    },
    {
      "anonymous": false,
      "inputs": [
        {
          "indexed": true,
          "internalType": "address",
          "name": "sender",
          "type": "address"
        },
        {
          "indexed": true,
          "internalType": "address",
          "name": "proxy",
          "type": "address"
        },
        {
          "indexed": false,
          "internalType": "address",
          "name": "newAdmin",
          "type": "address"
        }
      ],
      "name": "ProxyLocalAdminUpdated",
      "type": "event"
    },
    {
      "anonymous": false,
      "inputs": [
        {
          "indexed": true,
          "internalType": "address",
          "name": "sender",
          "type": "address"
        },
        {
          "indexed": true,
          "internalType": "address",
          "name": "proxy",
          "type": "address"
        },
        {
          "indexed": false,
          "internalType": "enum IBaseProxy.ProxySafeModeStatus",
          "name": "sstat",
          "type": "uint8"
        }
      ],
      "name": "ProxySafeModeUpdated",
      "type": "event"
    },
    {
      "anonymous": false,
      "inputs": [
        {
          "indexed": true,
          "internalType": "address",
          "name": "sender",
          "type": "address"
        },
        {
          "indexed": true,
          "internalType": "address",
          "name": "proxy",
          "type": "address"
        },
        {
          "indexed": false,
          "internalType": "enum IBaseProxy.ProxyUpdatabilityStatus",
          "name": "ustat",
          "type": "uint8"
        }
      ],
      "name": "ProxyUpdatabilityUpdated",
      "type": "event"
    },
    {
      "anonymous": false,
      "inputs": [
        {
          "indexed": true,
          "internalType": "address",
          "name": "sender",
          "type": "address"
        },
        {
          "indexed": true,
          "internalType": "address",
          "name": "proxy",
          "type": "address"
        },
        {
          "indexed": true,
          "internalType": "address",
          "name": "newImplementation",
          "type": "address"
        }
      ],
      "name": "ProxyUpgraded",
      "type": "event"
    },
    {
      "stateMutability": "payable",
      "type": "fallback"
    },
    {
      "inputs": [],
      "name": "CTX_MESSAGE_TYPEHASH",
      "outputs": [
        {
          "internalType": "bytes32",
          "name": "",
          "type": "bytes32"
        }
      ],
      "stateMutability": "view",
      "type": "function"
    },
    {
      "inputs": [],
      "name": "MEMBER_SIGNATURE_MESSAGE_TYPEHASH",
      "outputs": [
        {
          "internalType": "bytes32",
          "name": "",
          "type": "bytes32"
        }
      ],
      "stateMutability": "view",
      "type": "function"
    },
    {
      "inputs": [],
      "name": "PREDICT_CTX_MESSAGE_TYPEHASH",
      "outputs": [
        {
          "internalType": "bytes32",
          "name": "",
          "type": "bytes32"
        }
      ],
      "stateMutability": "view",
      "type": "function"
    },
    {
      "inputs": [],
      "name": "PROFILE_CTX_MESSAGE_TYPEHASH",
      "outputs": [
        {
          "internalType": "bytes32",
          "name": "",
          "type": "bytes32"
        }
      ],
      "stateMutability": "view",
      "type": "function"
    },
    {
      "inputs": [],
      "name": "PROFILE_MEMBER_SIGNATURE_MESSAGE_TYPEHASH",
      "outputs": [
        {
          "internalType": "bytes32",
          "name": "",
          "type": "bytes32"
        }
      ],
      "stateMutability": "view",
      "type": "function"
    },
    {
      "inputs": [],
      "name": "PROFILE_PREDICT_CTX_MESSAGE_TYPEHASH",
      "outputs": [
        {
          "internalType": "bytes32",
          "name": "",
          "type": "bytes32"
        }
      ],
      "stateMutability": "view",
      "type": "function"
    },
    {
      "inputs": [],
      "name": "TYPE_HASH",
      "outputs": [
        {
          "internalType": "bytes32",
          "name": "",
          "type": "bytes32"
        }
      ],
      "stateMutability": "view",
      "type": "function"
    },
    {
      "inputs": [],
      "name": "accessControlManager",
      "outputs": [
        {
          "internalType": "address",
          "name": "",
          "type": "address"
        }
      ],
      "stateMutability": "view",
      "type": "function"
    },
    {
      "inputs": [],
      "name": "contractName",
      "outputs": [
        {
          "internalType": "string",
          "name": "",
          "type": "string"
        }
      ],
      "stateMutability": "view",
      "type": "function"
    },
    {
      "inputs": [],
      "name": "contractVersion",
      "outputs": [
        {
          "internalType": "string",
          "name": "",
          "type": "string"
        }
      ],
      "stateMutability": "view",
      "type": "function"
    },
    {
      "inputs": [],
      "name": "domainSeparator",
      "outputs": [
        {
          "internalType": "bytes32",
          "name": "",
          "type": "bytes32"
        }
      ],
      "stateMutability": "view",
      "type": "function"
    },
    {
      "inputs": [
        {
          "internalType": "bytes32",
          "name": "agentId",
          "type": "bytes32"
        }
      ],
      "name": "getAgentBaseInfo",
      "outputs": [
        {
          "components": [
            {
              "internalType": "bytes32",
              "name": "adminId",
              "type": "bytes32"
            },
            {
              "internalType": "enum IACLCommons.AgentType",
              "name": "atype",
              "type": "uint8"
            },
            {
              "internalType": "enum IACLCommons.ActivityStatus",
              "name": "acstat",
              "type": "uint8"
            },
            {
              "internalType": "enum IACLCommons.AlterabilityStatus",
              "name": "alstat",
              "type": "uint8"
            }
          ],
          "internalType": "struct IACLCommons.BaseAgent",
          "name": "",
          "type": "tuple"
        }
      ],
      "stateMutability": "view",
      "type": "function"
    },
    {
      "inputs": [],
      "name": "getAnonymousType",
      "outputs": [
        {
          "internalType": "bytes32",
          "name": "",
          "type": "bytes32"
        }
      ],
      "stateMutability": "pure",
      "type": "function"
    },
    {
      "inputs": [],
      "name": "getAnyType",
      "outputs": [
        {
          "internalType": "bytes32",
          "name": "",
          "type": "bytes32"
        }
      ],
      "stateMutability": "pure",
      "type": "function"
    },
    {
      "inputs": [],
      "name": "getLivelyMasterType",
      "outputs": [
        {
          "internalType": "bytes32",
          "name": "",
          "type": "bytes32"
        }
      ],
      "stateMutability": "pure",
      "type": "function"
    },
    {
      "inputs": [],
      "name": "getMemberMasterType",
      "outputs": [
        {
          "internalType": "bytes32",
          "name": "",
          "type": "bytes32"
        }
      ],
      "stateMutability": "pure",
      "type": "function"
    },
    {
      "inputs": [],
      "name": "getPolicyMasterType",
      "outputs": [
        {
          "internalType": "bytes32",
          "name": "",
          "type": "bytes32"
        }
      ],
      "stateMutability": "pure",
      "type": "function"
    },
    {
      "inputs": [],
      "name": "getProfileMasterType",
      "outputs": [
        {
          "internalType": "bytes32",
          "name": "",
          "type": "bytes32"
        }
      ],
      "stateMutability": "pure",
      "type": "function"
    },
    {
      "inputs": [
        {
          "internalType": "bytes32",
          "name": "scopeId",
          "type": "bytes32"
        }
      ],
      "name": "getScopeBaseInfo",
      "outputs": [
        {
          "components": [
            {
              "internalType": "bytes32",
              "name": "adminId",
              "type": "bytes32"
            },
            {
              "internalType": "enum IACLCommons.ScopeType",
              "name": "stype",
              "type": "uint8"
            },
            {
              "internalType": "enum IACLCommons.ActivityStatus",
              "name": "acstat",
              "type": "uint8"
            },
            {
              "internalType": "enum IACLCommons.AlterabilityStatus",
              "name": "alstat",
              "type": "uint8"
            },
            {
              "internalType": "uint32",
              "name": "referredByAgent",
              "type": "uint32"
            }
          ],
          "internalType": "struct IACLCommons.BaseScope",
          "name": "",
          "type": "tuple"
        }
      ],
      "stateMutability": "view",
      "type": "function"
    },
    {
      "inputs": [],
      "name": "getScopeMasterType",
      "outputs": [
        {
          "internalType": "bytes32",
          "name": "",
          "type": "bytes32"
        }
      ],
      "stateMutability": "pure",
      "type": "function"
    },
    {
      "inputs": [],
      "name": "getSystemMasterType",
      "outputs": [
        {
          "internalType": "bytes32",
          "name": "",
          "type": "bytes32"
        }
      ],
      "stateMutability": "pure",
      "type": "function"
    },
    {
      "inputs": [],
      "name": "getTypeMasterType",
      "outputs": [
        {
          "internalType": "bytes32",
          "name": "",
          "type": "bytes32"
        }
      ],
      "stateMutability": "pure",
      "type": "function"
    },
    {
      "inputs": [],
      "name": "getUniverseScope",
      "outputs": [
        {
          "internalType": "bytes32",
          "name": "",
          "type": "bytes32"
        }
      ],
      "stateMutability": "pure",
      "type": "function"
    },
    {
      "inputs": [
        {
          "internalType": "bytes32",
          "name": "functionId",
          "type": "bytes32"
        }
      ],
      "name": "hasAccess",
      "outputs": [
        {
          "internalType": "enum IACL.AuthorizationStatus",
          "name": "",
          "type": "uint8"
        }
      ],
      "stateMutability": "nonpayable",
      "type": "function"
    },
    {
      "inputs": [
        {
          "internalType": "address",
          "name": "contractId",
          "type": "address"
        },
        {
          "internalType": "bytes4",
          "name": "selector",
          "type": "bytes4"
        },
        {
          "internalType": "address",
          "name": "accountId",
          "type": "address"
        }
      ],
      "name": "hasAccountAccess",
      "outputs": [
        {
          "internalType": "enum IACL.AuthorizationStatus",
          "name": "",
          "type": "uint8"
        }
      ],
      "stateMutability": "nonpayable",
      "type": "function"
    },
    {
      "inputs": [
        {
          "internalType": "address",
          "name": "contractId",
          "type": "address"
        },
        {
          "internalType": "bytes4",
          "name": "selector",
          "type": "bytes4"
        }
      ],
      "name": "hasCSAccess",
      "outputs": [
        {
          "internalType": "enum IACL.AuthorizationStatus",
          "name": "",
          "type": "uint8"
        }
      ],
      "stateMutability": "nonpayable",
      "type": "function"
    },
    {
      "inputs": [
        {
          "internalType": "bytes32",
          "name": "functionId",
          "type": "bytes32"
        },
        {
          "internalType": "bytes32",
          "name": "memberId",
          "type": "bytes32"
        }
      ],
      "name": "hasMemberAccess",
      "outputs": [
        {
          "internalType": "enum IACL.AuthorizationStatus",
          "name": "",
          "type": "uint8"
        }
      ],
      "stateMutability": "nonpayable",
      "type": "function"
    },
    {
      "inputs": [],
      "name": "initVersion",
      "outputs": [
        {
          "internalType": "uint16",
          "name": "",
          "type": "uint16"
        }
      ],
      "stateMutability": "view",
      "type": "function"
    },
    {
      "inputs": [
        {
          "internalType": "string",
          "name": "contractName",
          "type": "string"
        },
        {
          "internalType": "string",
          "name": "contractVersion",
          "type": "string"
        },
        {
          "internalType": "address",
          "name": "accessControlManager",
          "type": "address"
        }
      ],
      "name": "initialize",
      "outputs": [],
      "stateMutability": "nonpayable",
      "type": "function"
    },
    {
      "inputs": [
        {
          "internalType": "bytes32",
          "name": "agentId",
          "type": "bytes32"
        }
      ],
      "name": "isAgentExist",
      "outputs": [
        {
          "internalType": "bool",
          "name": "",
          "type": "bool"
        }
      ],
      "stateMutability": "view",
      "type": "function"
    },
    {
      "inputs": [
        {
          "internalType": "bytes32",
          "name": "scopeId",
          "type": "bytes32"
        }
      ],
      "name": "isScopeExist",
      "outputs": [
        {
          "internalType": "bool",
          "name": "",
          "type": "bool"
        }
      ],
      "stateMutability": "view",
      "type": "function"
    },
    {
      "inputs": [
        {
          "internalType": "bytes32",
          "name": "destScopeId",
          "type": "bytes32"
        },
        {
          "internalType": "bytes32",
          "name": "srcScopeId",
          "type": "bytes32"
        }
      ],
      "name": "isScopesCompatible",
      "outputs": [
        {
          "internalType": "bool",
          "name": "",
          "type": "bool"
        }
      ],
      "stateMutability": "view",
      "type": "function"
    },
    {
      "inputs": [],
      "name": "localAdmin",
      "outputs": [
        {
          "internalType": "address",
          "name": "",
          "type": "address"
        }
      ],
      "stateMutability": "view",
      "type": "function"
    },
    {
      "inputs": [],
      "name": "proxiableUUID",
      "outputs": [
        {
          "internalType": "bytes32",
          "name": "",
          "type": "bytes32"
        }
      ],
      "stateMutability": "view",
      "type": "function"
    },
    {
      "inputs": [],
      "name": "safeModeStatus",
      "outputs": [
        {
          "internalType": "enum IBaseProxy.ProxySafeModeStatus",
          "name": "",
          "type": "uint8"
        }
      ],
      "stateMutability": "view",
      "type": "function"
    },
    {
      "inputs": [
        {
          "internalType": "address",
          "name": "acl",
          "type": "address"
        }
      ],
      "name": "setAccessControlManager",
      "outputs": [
        {
          "internalType": "bool",
          "name": "",
          "type": "bool"
        }
      ],
      "stateMutability": "nonpayable",
      "type": "function"
    },
    {
      "inputs": [
        {
          "internalType": "address",
          "name": "newLocalAdmin",
          "type": "address"
        }
      ],
      "name": "setLocalAdmin",
      "outputs": [
        {
          "internalType": "bool",
          "name": "",
          "type": "bool"
        }
      ],
      "stateMutability": "nonpayable",
      "type": "function"
    },
    {
      "inputs": [
        {
          "internalType": "enum IBaseProxy.ProxySafeModeStatus",
          "name": "sstat",
          "type": "uint8"
        }
      ],
      "name": "setSafeModeStatus",
      "outputs": [
        {
          "internalType": "bool",
          "name": "",
          "type": "bool"
        }
      ],
      "stateMutability": "nonpayable",
      "type": "function"
    },
    {
      "inputs": [
        {
          "internalType": "enum IBaseProxy.ProxyUpdatabilityStatus",
          "name": "ustat",
          "type": "uint8"
        }
      ],
      "name": "setUpdatabilityStatus",
      "outputs": [
        {
          "internalType": "bool",
          "name": "",
          "type": "bool"
        }
      ],
      "stateMutability": "nonpayable",
      "type": "function"
    },
    {
      "inputs": [],
      "name": "subjectAddress",
      "outputs": [
        {
          "internalType": "address",
          "name": "",
          "type": "address"
        }
      ],
      "stateMutability": "view",
      "type": "function"
    },
    {
      "inputs": [
        {
          "internalType": "bytes4",
          "name": "interfaceId",
          "type": "bytes4"
        }
      ],
      "name": "supportsInterface",
      "outputs": [
        {
          "internalType": "bool",
          "name": "",
          "type": "bool"
        }
      ],
      "stateMutability": "view",
      "type": "function"
    },
    {
      "inputs": [],
      "name": "updatabilityStatus",
      "outputs": [
        {
          "internalType": "enum IBaseProxy.ProxyUpdatabilityStatus",
          "name": "",
          "type": "uint8"
        }
      ],
      "stateMutability": "view",
      "type": "function"
    },
    {
      "inputs": [
        {
          "internalType": "address",
          "name": "newImplementation",
          "type": "address"
        },
        {
          "internalType": "bytes",
          "name": "data",
          "type": "bytes"
        },
        {
          "internalType": "bool",
          "name": "forceCall",
          "type": "bool"
        }
      ],
      "name": "upgradeTo",
      "outputs": [
        {
          "internalType": "bytes",
          "name": "",
          "type": "bytes"
        }
      ],
      "stateMutability": "nonpayable",
      "type": "function"
    },
    {
      "inputs": [
        {
          "internalType": "address",
          "name": "recepient",
          "type": "address"
        }
      ],
      "name": "withdrawBalance",
      "outputs": [
        {
          "internalType": "uint256",
          "name": "",
          "type": "uint256"
        }
      ],
      "stateMutability": "nonpayable",
      "type": "function"
    },
    {
      "stateMutability": "payable",
      "type": "receive"
    }
  ],
  "transactionHash": "0x8842ae4e6204af82176ae236cd37214986c4e6fb39611299ec790b8871e134be",
  "args": [],
  "numDeployments": 1,
  "solcInputHash": "bf3d37f12163392c6a812b5af749abec",
  "bytecode": "0x60a0604052306080523480156200001557600080fd5b506200004360017f360894a13ba1a3210667c828492db98dca3e2076cc3735a920a3ca505d382bbd620000fd565b7f360894a13ba1a3210667c828492db98dca3e2076cc3735a920a3ca505d382bbc1462000074576200007462000125565b620000a160017fb53127684a568b3173ae13b9f8a6016e243e63b6e8ee1178d6a717850b5d6104620000fd565b60008051602062003fe783398151915214620000c157620000c162000125565b60008051602062003fe783398151915280546001600160a01b0319163317905560028054600160a01b61ffff60a01b199091161790556200013b565b818103818111156200011f57634e487b7160e01b600052601160045260246000fd5b92915050565b634e487b7160e01b600052600160045260246000fd5b608051613e3c620001ab60003960008181610884015281816108cd01528181610abc01528181610afc0152818161133d0152818161141f0152818161145f01528181611893015281816118d301528181611b9601528181611bd601528181611d4a0152611d8a0152613e3c6000f3fe6080604052600436106102535760003560e01c8063756af45f11610138578063d9dc1f19116100b0578063eea812d211610077578063eea812d214610781578063f0b15def14610796578063f698da25146107ca578063f708ceb0146107df578063f94a0adb146107ff578063fcc401781461081457005b8063d9dc1f1914610702578063db83423d14610722578063de0d73c714610742578063dec972c114610757578063e4db8d4b1461076c57005b8063a0a8e460116100ff578063a0a8e46014610671578063a304e35314610686578063b4a0bdf3146106a5578063caa05236146106c3578063cb0df350146106d8578063d4968aa2146106ed57005b8063756af45f146105bb57806375d0c0dc146105db57806392055232146105f05780639b97b534146106105780639d45c2071461064457005b80633bc6460a116101cb57806352d1902d1161019257806352d1902d146104d857806355d710ca146104ed578063568f690c1461050d57806358dbc45d1461052d57806364d4c8191461055a5780637147855d1461058e57005b80633bc6460a146104325780634888f482146104525780634bf0414d1461047a578063501923e5146104ae578063521f6e6a146104c357005b80632e59653a1161021a5780632e59653a14610328578063301c12801461035557806332a8984b1461038957806334109de2146103b657806338255993146103ea57806338d38c971461040a57005b806301ffc9a71461025c578063077f224a146102915780630e32cb86146102b157806319465584146102d15780631b452f4b146102f457005b3661025a57005b005b34801561026857600080fd5b5061027c6102773660046135e2565b610834565b60405190151581526020015b60405180910390f35b34801561029d57600080fd5b5061025a6102ac36600461365d565b61087a565b3480156102bd57600080fd5b5061027c6102cc3660046136de565b610ab0565b3480156102dd57600080fd5b506102e6610dbe565b604051908152602001610288565b34801561030057600080fd5b506102e67f7bfb2abd6084c8ce20d7ff92c1620e7e7267603f0eac446b9176959d243306bc81565b34801561033457600080fd5b506103486103433660046136f9565b610e1b565b6040516102889190613752565b34801561036157600080fd5b506102e67f541cf898e7c3085cbc6b7402ba06e7237285bc4bd5baa510e708e35537a71ffd81565b34801561039557600080fd5b506103a96103a436600461376c565b610e78565b6040516102889190613798565b3480156103c257600080fd5b506102e67f7aabe2571874f2a330ea11c8972d9cc3792d973efc6b36e3e29005861a34418881565b3480156103f657600080fd5b5061027c61040536600461376c565b610f6c565b34801561041657600080fd5b5061041f610f9d565b60405161ffff9091168152602001610288565b34801561043e57600080fd5b5061027c61044d3660046137e2565b610fb1565b34801561045e57600080fd5b50600254600160a81b900460ff165b6040516102889190613814565b34801561048657600080fd5b506102e67f9027b951cbdf8eff67da583391d218a57a89ec1ebfcb1c66da188e8531804d5581565b3480156104ba57600080fd5b506102e66112b8565b3480156104cf57600080fd5b506102e66112ec565b3480156104e457600080fd5b506102e6611330565b3480156104f957600080fd5b5061027c61050836600461376c565b61138d565b34801561051957600080fd5b50610348610528366004613821565b6113b6565b34801561053957600080fd5b50610542611409565b6040516001600160a01b039091168152602001610288565b34801561056657600080fd5b506102e67f8b73c3c69bb8fe3d512ecc4cf759cc79239f7b179b0ffacaa9a75d522b39400f81565b34801561059a57600080fd5b506105ae6105a9366004613883565b611413565b604051610288919061399c565b3480156105c757600080fd5b506102e66105d63660046136de565b611572565b3480156105e757600080fd5b506105ae611637565b3480156105fc57600080fd5b5061034861060b3660046137e2565b6116c9565b34801561061c57600080fd5b506102e67fdee69d384475c3656c17c592e94a2bbfd2a1998cce0c85f535569415a15863b881565b34801561065057600080fd5b5061066461065f36600461376c565b611704565b60405161028891906139af565b34801561067d57600080fd5b506105ae611819565b34801561069257600080fd5b50600254600160a01b900460ff1661046d565b3480156106b157600080fd5b506002546001600160a01b0316610542565b3480156106cf57600080fd5b506102e6611828565b3480156106e457600080fd5b506102e661184a565b3480156106f957600080fd5b506102e6611876565b34801561070e57600080fd5b5061027c61071d3660046136de565b611887565b34801561072e57600080fd5b5061034861073d36600461376c565b611a3d565b34801561074e57600080fd5b506102e6611a70565b34801561076357600080fd5b506102e6611ab5565b34801561077857600080fd5b506102e6611af9565b34801561078d57600080fd5b506102e6611b3d565b3480156107a257600080fd5b506102e67ffc434588684348dd50856b075c47bed14245c1030aa04c32955af5549981462781565b3480156107d657600080fd5b506102e6611b80565b3480156107eb57600080fd5b5061027c6107fa366004613a1d565b611b8a565b34801561080b57600080fd5b50610542611d34565b34801561082057600080fd5b5061027c61082f366004613a1d565b611d3e565b60006001600160e01b031982166331501c3960e01b148061086557506001600160e01b03198216633d15f84f60e01b145b80610874575061087482611ec9565b92915050565b6001600160a01b037f00000000000000000000000000000000000000000000000000000000000000001630036108cb5760405162461bcd60e51b81526004016108c290613a3a565b60405180910390fd5b7f00000000000000000000000000000000000000000000000000000000000000006001600160a01b03166108fd611f19565b6001600160a01b0316146109235760405162461bcd60e51b81526004016108c290613a60565b3361092c611f3a565b6001600160a01b0316146109725760405162461bcd60e51b815260206004820152600d60248201526c1058d8d95cdcc811195b9a5959609a1b60448201526064016108c2565b604e5462010000900460ff16158080156109945750604e54600161ffff909116105b806109af5750303b1580156109af5750604e5461ffff166001145b6109fb5760405162461bcd60e51b815260206004820152601c60248201527f436f6e747261637420416c726561647920496e697469616c697a65640000000060448201526064016108c2565b604e805461ffff191660011790558015610a2157604e805462ff00001916620100001790555b610a2e8686868686611f62565b610a36611f19565b6001600160a01b031630336001600160a01b03167f247ab7b17ee489fa140c6666edc3822eefed2727610cd6e37192462b87244c6089898989610a7c604e5461ffff1690565b604051610a8d959493929190613aaf565b60405180910390a48015610aa857604e805462ff0000191690555b505050505050565b60006001600160a01b037f0000000000000000000000000000000000000000000000000000000000000000163003610afa5760405162461bcd60e51b81526004016108c290613a3a565b7f00000000000000000000000000000000000000000000000000000000000000006001600160a01b0316610b2c611f19565b6001600160a01b031614610b525760405162461bcd60e51b81526004016108c290613a60565b6000600254600160a01b900460ff166001811115610b7257610b7261373c565b14610b8f5760405162461bcd60e51b81526004016108c290613aed565b6001600254600160a81b900460ff166001811115610baf57610baf61373c565b14610bcc5760405162461bcd60e51b81526004016108c290613b0f565b6001600160a01b03821615801590610bed57506001600160a01b0382163b15155b610c095760405162461bcd60e51b81526004016108c290613b3a565b6002546001600160a01b031615610c68576000610c2c63071965c360e11b611f76565b90506000816013811115610c4257610c4261373c565b14610c625780604051637f0911d160e01b81526004016108c29190613752565b50610cb7565b33610c71611f3a565b6001600160a01b031614610cb75760405162461bcd60e51b815260206004820152600d60248201526c1058d8d95cdcc811195b9a5959609a1b60448201526064016108c2565b6040516301ffc9a760e01b81526331501c3960e01b60048201526001600160a01b038316906301ffc9a790602401602060405180830381865afa158015610d02573d6000803e3d6000fd5b505050506040513d601f19601f82011682018060405250810190610d269190613b64565b610d605760405162461bcd60e51b815260206004820152600b60248201526a125b1b1959d85b081050d360aa1b60448201526064016108c2565b600280546001600160a01b0384166001600160a01b031990911681179091556040805191825251309133917f410bf468eebeeed60acaedb904afb2db7c0bb0131f7d14c3714d81b14fe8ed3c9181900360200190a35060015b919050565b6000604051602001610e00907f545950452e4c4956454c595f56455253452e4c4956454c595f545950455f4d4181526329aa22a960e11b602082015260240190565b60405160208183030381529060405280519060200120905090565b600080610e288585612001565b90506000610e3584612051565b9050600080610e45604485612090565b9150915080610e5b576008945050505050610e71565b610e6a826002015484846120f1565b9450505050505b9392505050565b610ea36040805160808101909152600080825260208201908152602001600081526020016000905290565b600082815260446020908152604091829020825160808101909352805483526001810154909183019060ff166003811115610ee057610ee061373c565b6003811115610ef157610ef161373c565b81526020016001820160019054906101000a900460ff166003811115610f1957610f1961373c565b6003811115610f2a57610f2a61373c565b81526020016001820160029054906101000a900460ff166003811115610f5257610f5261373c565b6003811115610f6357610f6361373c565b90525092915050565b60008060008381526045602052604090206001015460ff166005811115610f9557610f9561373c565b141592915050565b6000610fac604e5461ffff1690565b905090565b600082815260456020526040808220600190810154848452918320015460ff918216911682826005811115610fe857610fe861373c565b1480611005575060008160058111156110035761100361373c565b145b1561101557600092505050610874565b60058260058111156110295761102961373c565b0361103957600192505050610874565b600282600581111561104d5761104d61373c565b14801561106b575060018160058111156110695761106961373c565b145b1561109657600061107d60448761299f565b905061108c6004820186612a81565b9350505050610874565b60038260058111156110aa576110aa61373c565b1480156110c8575060018160058111156110c6576110c661373c565b145b156111105760006110da604486612a99565b905060006110e9604488612b74565b9050611105826003015482600501612a8190919063ffffffff16565b945050505050610874565b60048260058111156111245761112461373c565b148015611142575060018160058111156111405761114061373c565b145b156111a7576000611154604486612a99565b905060006111708260030154604461299f90919063ffffffff16565b9050600061117f604489612c4f565b905061119b826002015482600501612a8190919063ffffffff16565b95505050505050610874565b60038260058111156111bb576111bb61373c565b1480156111d9575060028160058111156111d7576111d761373c565b145b156111fa5760006111eb604487612b74565b905061108c6005820186612a81565b600482600581111561120e5761120e61373c565b14801561122c5750600281600581111561122a5761122a61373c565b145b1561126957600061123e60448661299f565b9050600061124d604488612c4f565b9050611105826002015482600501612a8190919063ffffffff16565b600482600581111561127d5761127d61373c565b14801561129b575060038160058111156112995761129961373c565b145b156112ad5760006111eb604487612c4f565b506000949350505050565b6040517f545950452e4c4956454c595f56455253452e4c4956454c595f414e59000000006020820152600090603c01610e00565b6000604051602001610e00907f545950452e4c4956454c595f56455253452e4c4956454c595f504f4c4943595f81526526a0a9aa22a960d11b602082015260260190565b6000306001600160a01b037f0000000000000000000000000000000000000000000000000000000000000000161461137a5760405162461bcd60e51b81526004016108c290613a3a565b50600080516020613dc783398151915290565b60008060008381526044602052604090206001015460ff166003811115610f9557610f9561373c565b6000806113c38484612001565b90506000806113d3604484612090565b91509150806113e85760089350505050610874565b6113ff82600201546113f933612051565b846120f1565b9695505050505050565b6000610fac611f19565b60606001600160a01b037f000000000000000000000000000000000000000000000000000000000000000016300361145d5760405162461bcd60e51b81526004016108c290613a3a565b7f00000000000000000000000000000000000000000000000000000000000000006001600160a01b031661148f611f19565b6001600160a01b0316146114b55760405162461bcd60e51b81526004016108c290613a60565b6000600254600160a01b900460ff1660018111156114d5576114d561373c565b146114f25760405162461bcd60e51b81526004016108c290613aed565b6001600254600160a81b900460ff1660018111156115125761151261373c565b1461152f5760405162461bcd60e51b81526004016108c290613b0f565b6001600160a01b0384163b6115565760405162461bcd60e51b81526004016108c290613b3a565b61155f84612d2a565b61156a848484612dc8565b949350505050565b600080600254600160a01b900460ff1660018111156115935761159361373c565b146115b05760405162461bcd60e51b81526004016108c290613aed565b60006115c263756af45f60e01b611f76565b905060008160138111156115d8576115d861373c565b146115f85780604051637f0911d160e01b81526004016108c29190613752565b60405147906001600160a01b038516904780156108fc02916000818181858888f1935050505015801561162f573d6000803e3d6000fd5b509392505050565b60606000805461164690613b81565b80601f016020809104026020016040519081016040528092919081815260200182805461167290613b81565b80156116bf5780601f10611694576101008083540402835291602001916116bf565b820191906000526020600020905b8154815290600101906020018083116116a257829003601f168201915b5050505050905090565b600080806116d8604486612090565b91509150806116ec57600892505050610874565b6116fb826002015485846120f1565b95945050505050565b6117376040805160a081019091526000808252602082019081526020016000815260200160008152600060209091015290565b600082815260456020908152604091829020825160a08101909352805483526001810154909183019060ff1660058111156117745761177461373c565b60058111156117855761178561373c565b81526020016001820160019054906101000a900460ff1660038111156117ad576117ad61373c565b60038111156117be576117be61373c565b81526020016001820160029054906101000a900460ff1660038111156117e6576117e661373c565b60038111156117f7576117f761373c565b8152600191909101546301000000900463ffffffff1660209091015292915050565b60606001805461164690613b81565b604051600080516020613de78339815191526020820152600090603f01610e00565b60405174554e4956455253452e4c4956454c595f564552534560581b6020820152600090603501610e00565b6000604051602001610e0090613bbb565b60006001600160a01b037f00000000000000000000000000000000000000000000000000000000000000001630036118d15760405162461bcd60e51b81526004016108c290613a3a565b7f00000000000000000000000000000000000000000000000000000000000000006001600160a01b0316611903611f19565b6001600160a01b0316146119295760405162461bcd60e51b81526004016108c290613a60565b6000600254600160a01b900460ff1660018111156119495761194961373c565b146119665760405162461bcd60e51b81526004016108c290613aed565b6001600254600160a81b900460ff1660018111156119865761198661373c565b146119a35760405162461bcd60e51b81526004016108c290613b0f565b60006119b563d9dc1f1960e01b611f76565b905060008160138111156119cb576119cb61373c565b146119eb5780604051637f0911d160e01b81526004016108c29190613752565b6001600160a01b038316611a2b5760405162461bcd60e51b8152602060048201526007602482015266125b9d985b1a5960ca1b60448201526064016108c2565b611a3483612f80565b50600192915050565b60008080611a4c604485612090565b9150915080611a5f575060089392505050565b61156a82600201546113f933612051565b6000604051602001610e00907f545950452e4c4956454c595f56455253452e4c4956454c595f50524f46494c458152662fa6a0a9aa22a960c91b602082015260270190565b6000604051602001610e00907f545950452e4c4956454c595f56455253452e4c4956454c595f4d454d4245525f81526526a0a9aa22a960d11b602082015260260190565b6000604051602001610e00907f545950452e4c4956454c595f56455253452e4c4956454c595f53595354454d5f81526526a0a9aa22a960d11b602082015260260190565b6000604051602001610e00907f545950452e4c4956454c595f56455253452e4c4956454c595f53434f50455f4d81526420a9aa22a960d91b602082015260250190565b6000610fac612ff7565b60006001600160a01b037f0000000000000000000000000000000000000000000000000000000000000000163003611bd45760405162461bcd60e51b81526004016108c290613a3a565b7f00000000000000000000000000000000000000000000000000000000000000006001600160a01b0316611c06611f19565b6001600160a01b031614611c2c5760405162461bcd60e51b81526004016108c290613a60565b6000611c3b604e5461ffff1690565b61ffff1611611c775760405162461bcd60e51b81526020600482015260086024820152671393d5081253925560c21b60448201526064016108c2565b6000611c89630f708ceb60e41b611f76565b90506000816013811115611c9f57611c9f61373c565b14611cbf5780604051637f0911d160e01b81526004016108c29190613752565b6002805484919060ff60a01b1916600160a01b836001811115611ce457611ce461373c565b021790555030336001600160a01b03167fc08ec585c25f1907baaab6f278c5994531a2e34c59935b3fcfe813067a3b487885604051611d239190613814565b60405180910390a350600192915050565b6000610fac611f3a565b60006001600160a01b037f0000000000000000000000000000000000000000000000000000000000000000163003611d885760405162461bcd60e51b81526004016108c290613a3a565b7f00000000000000000000000000000000000000000000000000000000000000006001600160a01b0316611dba611f19565b6001600160a01b031614611de05760405162461bcd60e51b81526004016108c290613a60565b6000600254600160a01b900460ff166001811115611e0057611e0061373c565b14611e1d5760405162461bcd60e51b81526004016108c290613aed565b6000611e2f631f98802f60e31b611f76565b90506000816013811115611e4557611e4561373c565b14611e655780604051637f0911d160e01b81526004016108c29190613752565b6002805484919060ff60a81b1916600160a81b836001811115611e8a57611e8a61373c565b021790555030336001600160a01b03167ff5912c5e436152157ed2b4a84bc313b4b1fe09a15b941f195d23c99a1b8c45ad85604051611d239190613814565b60006001600160e01b03198216633d817cff60e01b1480611efa57506001600160e01b031982166352d1902d60e01b145b8061087457506301ffc9a760e01b6001600160e01b0319831614610874565b6000600080516020613dc78339815191525b546001600160a01b0316919050565b60007fb53127684a568b3173ae13b9f8a6016e243e63b6e8ee1178d6a717850b5d6103611f2b565b611f6f8585858585613095565b5050505050565b6002546040805163172cb29d60e11b81523060048201526001600160e01b03198416602482015233604482015290516000926001600160a01b031691632e59653a916064808301926020929190829003018187875af1158015611fdd573d6000803e3d6000fd5b505050506040513d601f19601f820116820180604052508101906108749190613bef565b6040516bffffffffffffffffffffffff19606084901b1660208201526001600160e01b03198216603482015260009060380160405160208183030381529060405280519060200120905092915050565b6040516bffffffffffffffffffffffff19606083901b166020820152600090603401604051602081830303815290604052805190602001209050919050565b600081815260018084016020526040822082915b600182015460ff1660058111156120bd576120bd61373c565b036120df576040805185815260018781016020830152919020935091506120e9565b6000199250600091505b509250929050565b60008381526044602052604081206001015460ff16600281600381111561211a5761211a61373c565b036123d05760008061212d60448761325e565b91509150806121425760059350505050610e71565b60036001830154610100900460ff1660038111156121625761216261373c565b1461217357600c9350505050610e71565b604051600080516020613de783398151915260208201526121ba90603f015b6040516020818303038152906040528051906020012083600401612a8190919063ffffffff16565b61220d576003820154600160881b900461ffff16156122015760038201805460001961ffff600160881b808404821692909201160261ffff60881b1990911617905561220d565b60039350505050610e71565b60008061221b60448a6132a9565b915091508061223257600695505050505050610e71565b60036001830154610100900460ff1660038111156122525761225261373c565b1461226557600d95505050505050610e71565b6001600283015460009081526045602052604090206001015460ff1660058111156122925761229261373c565b1480156122a3575088826002015414155b156122b657600495505050505050610e71565b6000806122d1846003015460446132c090919063ffffffff16565b91509150806122ea576007975050505050505050610e71565b60036001830154610100900460ff16600381111561230a5761230a61373c565b1461231f57600e975050505050505050610e71565b60008a81526005830160205260409020548b14612346576001975050505050505050610e71565b60008b81526047602090815260408083205483526046909152902060038082810154640100000000900460ff16908111156123835761238361373c565b1480156123ae575060048a0154600382015464010000000090910460ff908116620100009092041610155b156123c457600298505050505050505050610e71565b505050505050506127a1565b60038160038111156123e4576123e461373c565b0361277e576040517f545950452e4c4956454c595f56455253452e4c4956454c595f414e59000000006020820152603c016040516020818303038152906040528051906020012085036124f25760008061243f60448761325e565b91509150806124545760059350505050610e71565b60036001830154610100900460ff1660038111156124745761247461373c565b1461248557600c9350505050610e71565b604051600080516020613de783398151915260208201526124a890603f01612192565b6124eb576003820154600160881b900461ffff16156122015760038201805460001961ffff600160881b808404821692909201160261ffff60881b199091161790555b50506127a1565b60405160200161250190613bbb565b6040516020818303038152906040528051906020012085146127795760008061252b60448761325e565b91509150806125405760059350505050610e71565b60036001830154610100900460ff1660038111156125605761256061373c565b1461257157600c9350505050610e71565b604051600080516020613de7833981519152602082015261259490603f01612192565b6125d7576003820154600160881b900461ffff16156122015760038201805460001961ffff600160881b808404821692909201160261ffff60881b199091161790555b6000806125e560448a6132c0565b91509150806125fc57600795505050505050610e71565b60036001830154610100900460ff16600381111561261c5761261c61373c565b1461262f57600e95505050505050610e71565b6000888152600583016020526040812054908061264d6044846132a9565b915091508061266757600698505050505050505050610e71565b60036001830154610100900460ff1660038111156126875761268761373c565b1461269d57600d98505050505050505050610e71565b6001600283015460009081526045602052604090206001015460ff1660058111156126ca576126ca61373c565b1480156126db57508b826002015414155b156126f157600498505050505050505050610e71565b60008381526047602090815260408083205483526046909152902060038082810154640100000000900460ff169081111561272e5761272e61373c565b148015612759575060048b0154600382015464010000000090910460ff908116620100009092041610155b156127705760029950505050505050505050610e71565b50505050505050505b6127a1565b60018160038111156127925761279261373c565b116127a1576001915050610e71565b60036001840154610100900460ff1660038111156127c1576127c161373c565b146127d057600f915050610e71565b6000806127eb856003015460446132d790919063ffffffff16565b91509150806128005760099350505050610e71565b60036001830154610100900460ff1660038111156128205761282061373c565b146128315760109350505050610e71565b60008061284c846002015460446132f090919063ffffffff16565b915091508061286357600a95505050505050610e71565b60036001830154610100900460ff1660038111156128835761288361373c565b1461289657601195505050505050610e71565b6000806128b18460020154604461330990919063ffffffff16565b91509150806128ca57600b975050505050505050610e71565b60036001830154610100900460ff1660038111156128ea576128ea61373c565b146128ff576012975050505050505050610e71565b600061295560405160200161292f9074554e4956455253452e4c4956454c595f564552534560581b815260150190565b60405160208183030381529060405280519060200120604461332290919063ffffffff16565b905060036001820154610100900460ff1660038111156129775761297761373c565b1461298d57601398505050505050505050610e71565b5060009b9a5050505050505050505050565b600081815260018301602052604081206002600182015460ff1660058111156129ca576129ca61373c565b036129e75760408051848152600186016020820152209150612a7a565b6000600182015460ff166005811115612a0257612a0261373c565b03612a3f5760405162461bcd60e51b815260206004820152600d60248201526c10d25108139bdd08119bdd5b99609a1b60448201526064016108c2565b60405162461bcd60e51b815260206004820152601060248201526f125b1b1959d85b0810d2510814db1bdd60821b60448201526064016108c2565b5092915050565b60008181526001830160205260408120541515610e71565b600081815260018084016020526040822090600182015460ff166005811115612ac457612ac461373c565b03612ae15760408051848152600186016020820152209150612a7a565b6000600182015460ff166005811115612afc57612afc61373c565b03612b395760405162461bcd60e51b815260206004820152600d60248201526c11925108139bdd08119bdd5b99609a1b60448201526064016108c2565b60405162461bcd60e51b815260206004820152601060248201526f125b1b195859db081192510814db1bdd60821b60448201526064016108c2565b600081815260018301602052604081206003600182015460ff166005811115612b9f57612b9f61373c565b03612bbc5760408051848152600186016020820152209150612a7a565b6000600182015460ff166005811115612bd757612bd761373c565b03612c145760405162461bcd60e51b815260206004820152600d60248201526c14925108139bdd08119bdd5b99609a1b60448201526064016108c2565b60405162461bcd60e51b815260206004820152601060248201526f125b1b195859db081492510814db1bdd60821b60448201526064016108c2565b600081815260018301602052604081206004600182015460ff166005811115612c7a57612c7a61373c565b03612c975760408051848152600186016020820152209150612a7a565b6000600182015460ff166005811115612cb257612cb261373c565b03612cef5760405162461bcd60e51b815260206004820152600d60248201526c11125108139bdd08119bdd5b99609a1b60448201526064016108c2565b60405162461bcd60e51b815260206004820152601060248201526f125b1b1959d85b081112510814db1bdd60821b60448201526064016108c2565b612d32611f19565b6001600160a01b0316816001600160a01b031603612d7c5760405162461bcd60e51b8152602060048201526007602482015266125b1b1959d85b60ca1b60448201526064016108c2565b6000612d8e637147855d60e01b611f76565b90506000816013811115612da457612da461373c565b14612dc45780604051637f0911d160e01b81526004016108c29190613752565b5050565b60607f4910fdfa16fed3260ed0e7147f7cc6da11a60208b5b9406d12a635614ffd91435460ff1615612e1257612dfd846133fd565b50604080516000815260208101909152610e71565b600080516020613dc783398151915260001b846001600160a01b03166352d1902d6040518163ffffffff1660e01b8152600401602060405180830381865afa158015612e62573d6000803e3d6000fd5b505050506040513d601f19601f82011682018060405250810190612e869190613c10565b14612ec25760405162461bcd60e51b815260206004820152600c60248201526b496c6c6567616c205555505360a01b60448201526064016108c2565b6040516301ffc9a760e01b8152633d817cff60e01b60048201526001600160a01b038516906301ffc9a790602401602060405180830381865afa158015612f0d573d6000803e3d6000fd5b505050506040513d601f19601f82011682018060405250810190612f319190613b64565b612f6e5760405162461bcd60e51b815260206004820152600e60248201526d496c6c6567616c204950726f787960901b60448201526064016108c2565b612f7984848461342c565b9050610e71565b7fb53127684a568b3173ae13b9f8a6016e243e63b6e8ee1178d6a717850b5d610380546001600160a01b0383166001600160a01b031990911681179091556040805191825251309133917f63fdbed5f2909ec44e3becc51e9d29654ce1447747914e8a6ebc019e7f640b8b9181900360200190a350565b60007f8b73c3c69bb8fe3d512ecc4cf759cc79239f7b179b0ffacaa9a75d522b39400f600060405160200161302c9190613c29565b6040516020818303038152906040528051906020012060016040516020016130549190613c29565b60408051601f1981840301815282825280516020918201209083019490945281019190915260608101919091524660808201523060a082015260c001610e00565b604e5462010000900460ff166130ed5760405162461bcd60e51b815260206004820152601960248201527f436f6e7472616374204e6f7420496e697469616c697a696e670000000000000060448201526064016108c2565b60006130fa858783613cea565b506001613108838583613cea565b506001600160a01b03811630146131ee576001600160a01b0381163b6131405760405162461bcd60e51b81526004016108c290613b3a565b6040516301ffc9a760e01b81526331501c3960e01b60048201526001600160a01b038216906301ffc9a790602401602060405180830381865afa15801561318b573d6000803e3d6000fd5b505050506040513d601f19601f820116820180604052508101906131af9190613b64565b6131e95760405162461bcd60e51b815260206004820152600b60248201526a125b1b1959d85b081050d360aa1b60448201526064016108c2565b61323a565b6131fe6331501c3960e01b610834565b61323a5760405162461bcd60e51b815260206004820152600d60248201526c139bdd0814dd5c1c1bdc9d1959609a1b60448201526064016108c2565b600280546001600160b01b0319166001600160a01b038316179055611f6f33612f80565b6000818152602083905260408120819060015b600182015460ff16600381111561328a5761328a61373c565b036120df576040805185815260208101879052209250600191506120e9565b600081815260208390526040812081906002613271565b600081815260208390526040812081906003613271565b60008181526001830160205260408120819060026120a4565b60008181526001830160205260408120819060036120a4565b60008181526001830160205260408120819060046120a4565b600081815260018301602052604081206005600182015460ff16600581111561334d5761334d61373c565b0361336a5760408051848152600186016020820152209150612a7a565b6000600182015460ff1660058111156133855761338561373c565b036133c25760405162461bcd60e51b815260206004820152600d60248201526c11d25108139bdd08119bdd5b99609a1b60448201526064016108c2565b60405162461bcd60e51b815260206004820152601060248201526f125b1b195859db0811d2510814db1bdd60821b60448201526064016108c2565b600080516020613dc783398151915280546001600160a01b0319166001600160a01b0392909216919091179055565b60606134378461348e565b6000835111806134445750815b1561347757612f7984846040518060400160405280600b81526020016a10d85b1b0811985a5b195960aa1b8152506134d2565b505060408051600081526020810190915292915050565b613497816133fd565b6040516001600160a01b03821690309033907f8ee0f2bd29c0e6a975c3cc2e47cf2e01b5f23a9a8a02e0ed6a5a070269de3d2d90600090a450565b60606001600160a01b0384163b61352b5760405162461bcd60e51b815260206004820152601860248201527f496c6c6567616c20436f6e74726163742041646472657373000000000000000060448201526064016108c2565b600080856001600160a01b0316856040516135469190613daa565b600060405180830381855af49150503d8060008114613581576040519150601f19603f3d011682016040523d82523d6000602084013e613586565b606091505b50915091506113ff828286606083156135a0575081610e71565b8251156135b05782518084602001fd5b8160405162461bcd60e51b81526004016108c2919061399c565b80356001600160e01b031981168114610db957600080fd5b6000602082840312156135f457600080fd5b610e71826135ca565b60008083601f84011261360f57600080fd5b50813567ffffffffffffffff81111561362757600080fd5b60208301915083602082850101111561363f57600080fd5b9250929050565b80356001600160a01b0381168114610db957600080fd5b60008060008060006060868803121561367557600080fd5b853567ffffffffffffffff8082111561368d57600080fd5b61369989838a016135fd565b909750955060208801359150808211156136b257600080fd5b506136bf888289016135fd565b90945092506136d2905060408701613646565b90509295509295909350565b6000602082840312156136f057600080fd5b610e7182613646565b60008060006060848603121561370e57600080fd5b61371784613646565b9250613725602085016135ca565b915061373360408501613646565b90509250925092565b634e487b7160e01b600052602160045260246000fd5b60208101601483106137665761376661373c565b91905290565b60006020828403121561377e57600080fd5b5035919050565b600481106137955761379561373c565b50565b81518152602082015160808201906137af81613785565b602083015260408301516137c281613785565b604083015260608301516137d581613785565b8060608401525092915050565b600080604083850312156137f557600080fd5b50508035926020909101359150565b600281106137955761379561373c565b6020810161376683613804565b6000806040838503121561383457600080fd5b61383d83613646565b915061384b602084016135ca565b90509250929050565b634e487b7160e01b600052604160045260246000fd5b801515811461379557600080fd5b8035610db98161386a565b60008060006060848603121561389857600080fd5b6138a184613646565b9250602084013567ffffffffffffffff808211156138be57600080fd5b818601915086601f8301126138d257600080fd5b8135818111156138e4576138e4613854565b604051601f8201601f19908116603f0116810190838211818310171561390c5761390c613854565b8160405282815289602084870101111561392557600080fd5b82602086016020830137600060208483010152809650505050505061373360408501613878565b60005b8381101561396757818101518382015260200161394f565b50506000910152565b6000815180845261398881602086016020860161394c565b601f01601f19169290920160200192915050565b602081526000610e716020830184613970565b81518152602082015160a0820190600681106139cd576139cd61373c565b602083015260408301516139e081613785565b604083015260608301516139f381613785565b8060608401525063ffffffff608084015116608083015292915050565b6002811061379557600080fd5b600060208284031215613a2f57600080fd5b8135610e7181613a10565b6020808252600c908201526b125b1b1959d85b0810d85b1b60a21b604082015260600190565b6020808252600c908201526b125b9d985b1a590810d85b1b60a21b604082015260600190565b81835281816020850137506000828201602090810191909152601f909101601f19169091010190565b606081526000613ac3606083018789613a86565b8281036020840152613ad6818688613a86565b91505061ffff831660408301529695505050505050565b60208082526008908201526714995a9958dd195960c21b604082015260600190565b602080825260119082015270496c6c6567616c20557064617461626c6560781b604082015260600190565b60208082526010908201526f125b1b1959d85b0810dbdb9d1c9858dd60821b604082015260600190565b600060208284031215613b7657600080fd5b8151610e718161386a565b600181811c90821680613b9557607f821691505b602082108103613bb557634e487b7160e01b600052602260045260246000fd5b50919050565b7f545950452e4c4956454c595f56455253452e4c4956454c595f414e4f4e594d4f815261555360f01b602082015260220190565b600060208284031215613c0157600080fd5b815160148110610e7157600080fd5b600060208284031215613c2257600080fd5b5051919050565b6000808354613c3781613b81565b60018281168015613c4f5760018114613c6457613c93565b60ff1984168752821515830287019450613c93565b8760005260208060002060005b85811015613c8a5781548a820152908401908201613c71565b50505082870194505b50929695505050505050565b601f821115613ce557600081815260208120601f850160051c81016020861015613cc65750805b601f850160051c820191505b81811015610aa857828155600101613cd2565b505050565b67ffffffffffffffff831115613d0257613d02613854565b613d1683613d108354613b81565b83613c9f565b6000601f841160018114613d4a5760008515613d325750838201355b600019600387901b1c1916600186901b178355611f6f565b600083815260209020601f19861690835b82811015613d7b5786850135825560209485019460019092019101613d5b565b5086821015613d985760001960f88860031b161c19848701351681555b505060018560011b0183555050505050565b60008251613dbc81846020870161394c565b919091019291505056fe360894a13ba1a3210667c828492db98dca3e2076cc3735a920a3ca505d382bbc545950452e4c4956454c595f56455253452e4c4956454c595f4d415354455200a264697066735822122067390b88de2d78ff2164191c298f36877f5805daba0f646f590536f5097778fd64736f6c63430008130033b53127684a568b3173ae13b9f8a6016e243e63b6e8ee1178d6a717850b5d6103",
  "devdoc": {
    "author": "Sina Tadayon, https://github.com/SinaTadayon",
    "events": {
      "Initialized(address,address,address,string,string,uint16)": {
        "details": "Triggered when the contract has been initialized or reinitialized."
      },
      "ProxyLocalAdminUpdated(address,address,address)": {
        "details": "Emitted when the admin account has changed."
      }
    },
    "kind": "dev",
    "methods": {
      "proxiableUUID()": {
        "details": "Implementation of the ERC1822 {proxiableUUID} function. This returns the storage slot used by the implementation. It is used to validate that the this implementation remains valid after an upgrade. IMPORTANT: A proxy pointing at a proxiable contract should not be considered proxiable itself, because this risks bricking a proxy that upgrades to it, by delegating to itself until out of gas. Thus it is critical that this function revert if invoked through a proxy. This is guaranteed by the `notDelegated` modifier."
      },
      "supportsInterface(bytes4)": {
        "details": "See {IERC165-supportsInterface}."
      }
    },
    "title": "AccessControl Contract",
    "version": 1
  },
  "userdoc": {
    "kind": "user",
    "methods": {},
    "version": 1
  },
  "storageLayout": {
    "storage": [
      {
        "astId": 82229,
        "contract": "src/contracts/acl/AccessControl.sol:AccessControl",
        "label": "_contractName",
        "offset": 0,
        "slot": "0",
        "type": "t_string_storage"
      },
      {
        "astId": 82231,
        "contract": "src/contracts/acl/AccessControl.sol:AccessControl",
        "label": "_contractVersion",
        "offset": 0,
        "slot": "1",
        "type": "t_string_storage"
      },
      {
        "astId": 82233,
        "contract": "src/contracts/acl/AccessControl.sol:AccessControl",
        "label": "_accessControlManager",
        "offset": 0,
        "slot": "2",
        "type": "t_address"
      },
      {
        "astId": 82236,
        "contract": "src/contracts/acl/AccessControl.sol:AccessControl",
        "label": "_sstat",
        "offset": 20,
        "slot": "2",
        "type": "t_enum(ProxySafeModeStatus)82251"
      },
      {
        "astId": 82239,
        "contract": "src/contracts/acl/AccessControl.sol:AccessControl",
        "label": "_ustat",
        "offset": 21,
        "slot": "2",
        "type": "t_enum(ProxyUpdatabilityStatus)82254"
      },
      {
        "astId": 82244,
        "contract": "src/contracts/acl/AccessControl.sol:AccessControl",
        "label": "__reserved",
        "offset": 0,
        "slot": "3",
        "type": "t_array(t_uint256)64_storage"
      },
      {
        "astId": 10383,
        "contract": "src/contracts/acl/AccessControl.sol:AccessControl",
        "label": "_firstInit",
        "offset": 0,
        "slot": "67",
        "type": "t_bool"
      },
      {
        "astId": 10386,
        "contract": "src/contracts/acl/AccessControl.sol:AccessControl",
        "label": "_data",
        "offset": 0,
        "slot": "68",
        "type": "t_struct(DataCollection)10239_storage"
      },
      {
        "astId": 82432,
        "contract": "src/contracts/acl/AccessControl.sol:AccessControl",
        "label": "_initialized",
        "offset": 0,
        "slot": "78",
        "type": "t_uint16"
      },
      {
        "astId": 82435,
        "contract": "src/contracts/acl/AccessControl.sol:AccessControl",
        "label": "_initializing",
        "offset": 2,
        "slot": "78",
        "type": "t_bool"
      }
    ],
    "types": {
      "t_address": {
        "encoding": "inplace",
        "label": "address",
        "numberOfBytes": "20"
      },
      "t_array(t_bytes32)dyn_storage": {
        "base": "t_bytes32",
        "encoding": "dynamic_array",
        "label": "bytes32[]",
        "numberOfBytes": "32"
      },
      "t_array(t_uint256)64_storage": {
        "base": "t_uint256",
        "encoding": "inplace",
        "label": "uint256[64]",
        "numberOfBytes": "2048"
      },
      "t_bool": {
        "encoding": "inplace",
        "label": "bool",
        "numberOfBytes": "1"
      },
      "t_bytes32": {
        "encoding": "inplace",
        "label": "bytes32",
        "numberOfBytes": "32"
      },
      "t_bytes4": {
        "encoding": "inplace",
        "label": "bytes4",
        "numberOfBytes": "4"
      },
      "t_enum(ActivityStatus)11721": {
        "encoding": "inplace",
        "label": "enum IACLCommons.ActivityStatus",
        "numberOfBytes": "1"
      },
      "t_enum(AgentType)11716": {
        "encoding": "inplace",
        "label": "enum IACLCommons.AgentType",
        "numberOfBytes": "1"
      },
      "t_enum(AlterabilityStatus)11726": {
        "encoding": "inplace",
        "label": "enum IACLCommons.AlterabilityStatus",
        "numberOfBytes": "1"
      },
      "t_enum(PolicyType)11744": {
        "encoding": "inplace",
        "label": "enum IACLCommons.PolicyType",
        "numberOfBytes": "1"
      },
      "t_enum(ProxySafeModeStatus)82251": {
        "encoding": "inplace",
        "label": "enum IBaseProxy.ProxySafeModeStatus",
        "numberOfBytes": "1"
      },
      "t_enum(ProxyUpdatabilityStatus)82254": {
        "encoding": "inplace",
        "label": "enum IBaseProxy.ProxyUpdatabilityStatus",
        "numberOfBytes": "1"
      },
      "t_enum(ScopeType)11733": {
        "encoding": "inplace",
        "label": "enum IACLCommons.ScopeType",
        "numberOfBytes": "1"
      },
      "t_mapping(t_address,t_struct(FacetEntity)11945_storage)": {
        "encoding": "mapping",
        "key": "t_address",
        "label": "mapping(address => struct IACLCommons.FacetEntity)",
        "numberOfBytes": "32",
        "value": "t_struct(FacetEntity)11945_storage"
      },
      "t_mapping(t_address,t_struct(ProfileAccount)12018_storage)": {
        "encoding": "mapping",
        "key": "t_address",
        "label": "mapping(address => struct IACLCommons.ProfileAccount)",
        "numberOfBytes": "32",
        "value": "t_struct(ProfileAccount)12018_storage"
      },
      "t_mapping(t_bytes32,t_bytes32)": {
        "encoding": "mapping",
        "key": "t_bytes32",
        "label": "mapping(bytes32 => bytes32)",
        "numberOfBytes": "32",
        "value": "t_bytes32"
      },
      "t_mapping(t_bytes32,t_struct(BaseAgent)11756_storage)": {
        "encoding": "mapping",
        "key": "t_bytes32",
        "label": "mapping(bytes32 => struct IACLCommons.BaseAgent)",
        "numberOfBytes": "32",
        "value": "t_struct(BaseAgent)11756_storage"
      },
      "t_mapping(t_bytes32,t_struct(BaseScope)11770_storage)": {
        "encoding": "mapping",
        "key": "t_bytes32",
        "label": "mapping(bytes32 => struct IACLCommons.BaseScope)",
        "numberOfBytes": "32",
        "value": "t_struct(BaseScope)11770_storage"
      },
      "t_mapping(t_bytes32,t_struct(PolicyEntity)11793_storage)": {
        "encoding": "mapping",
        "key": "t_bytes32",
        "label": "mapping(bytes32 => struct IACLCommons.PolicyEntity)",
        "numberOfBytes": "32",
        "value": "t_struct(PolicyEntity)11793_storage"
      },
      "t_mapping(t_bytes32,t_struct(ProfileEntity)12059_storage)": {
        "encoding": "mapping",
        "key": "t_bytes32",
        "label": "mapping(bytes32 => struct IACLCommons.ProfileEntity)",
        "numberOfBytes": "32",
        "value": "t_struct(ProfileEntity)12059_storage"
      },
      "t_mapping(t_bytes32,t_uint256)": {
        "encoding": "mapping",
        "key": "t_bytes32",
        "label": "mapping(bytes32 => uint256)",
        "numberOfBytes": "32",
        "value": "t_uint256"
      },
      "t_mapping(t_bytes4,t_address)": {
        "encoding": "mapping",
        "key": "t_bytes4",
        "label": "mapping(bytes4 => address)",
        "numberOfBytes": "32",
        "value": "t_address"
      },
      "t_string_storage": {
        "encoding": "bytes",
        "label": "string",
        "numberOfBytes": "32"
      },
      "t_struct(AddressSet)79783_storage": {
        "encoding": "inplace",
        "label": "struct LEnumerableSet.AddressSet",
        "members": [
          {
            "astId": 79782,
            "contract": "src/contracts/acl/AccessControl.sol:AccessControl",
            "label": "_inner",
            "offset": 0,
            "slot": "0",
            "type": "t_struct(Set)79482_storage"
          }
        ],
        "numberOfBytes": "64"
      },
      "t_struct(BaseAgent)11756_storage": {
        "encoding": "inplace",
        "label": "struct IACLCommons.BaseAgent",
        "members": [
          {
            "astId": 11746,
            "contract": "src/contracts/acl/AccessControl.sol:AccessControl",
            "label": "adminId",
            "offset": 0,
            "slot": "0",
            "type": "t_bytes32"
          },
          {
            "astId": 11749,
            "contract": "src/contracts/acl/AccessControl.sol:AccessControl",
            "label": "atype",
            "offset": 0,
            "slot": "1",
            "type": "t_enum(AgentType)11716"
          },
          {
            "astId": 11752,
            "contract": "src/contracts/acl/AccessControl.sol:AccessControl",
            "label": "acstat",
            "offset": 1,
            "slot": "1",
            "type": "t_enum(ActivityStatus)11721"
          },
          {
            "astId": 11755,
            "contract": "src/contracts/acl/AccessControl.sol:AccessControl",
            "label": "alstat",
            "offset": 2,
            "slot": "1",
            "type": "t_enum(AlterabilityStatus)11726"
          }
        ],
        "numberOfBytes": "64"
      },
      "t_struct(BaseScope)11770_storage": {
        "encoding": "inplace",
        "label": "struct IACLCommons.BaseScope",
        "members": [
          {
            "astId": 11758,
            "contract": "src/contracts/acl/AccessControl.sol:AccessControl",
            "label": "adminId",
            "offset": 0,
            "slot": "0",
            "type": "t_bytes32"
          },
          {
            "astId": 11761,
            "contract": "src/contracts/acl/AccessControl.sol:AccessControl",
            "label": "stype",
            "offset": 0,
            "slot": "1",
            "type": "t_enum(ScopeType)11733"
          },
          {
            "astId": 11764,
            "contract": "src/contracts/acl/AccessControl.sol:AccessControl",
            "label": "acstat",
            "offset": 1,
            "slot": "1",
            "type": "t_enum(ActivityStatus)11721"
          },
          {
            "astId": 11767,
            "contract": "src/contracts/acl/AccessControl.sol:AccessControl",
            "label": "alstat",
            "offset": 2,
            "slot": "1",
            "type": "t_enum(AlterabilityStatus)11726"
          },
          {
            "astId": 11769,
            "contract": "src/contracts/acl/AccessControl.sol:AccessControl",
            "label": "referredByAgent",
            "offset": 3,
            "slot": "1",
            "type": "t_uint32"
          }
        ],
        "numberOfBytes": "64"
      },
      "t_struct(Bytes32Set)79676_storage": {
        "encoding": "inplace",
        "label": "struct LEnumerableSet.Bytes32Set",
        "members": [
          {
            "astId": 79675,
            "contract": "src/contracts/acl/AccessControl.sol:AccessControl",
            "label": "_inner",
            "offset": 0,
            "slot": "0",
            "type": "t_struct(Set)79482_storage"
          }
        ],
        "numberOfBytes": "64"
      },
      "t_struct(DataCollection)10239_storage": {
        "encoding": "inplace",
        "label": "struct ACLStorage.DataCollection",
        "members": [
          {
            "astId": 10202,
            "contract": "src/contracts/acl/AccessControl.sol:AccessControl",
            "label": "agents",
            "offset": 0,
            "slot": "0",
            "type": "t_mapping(t_bytes32,t_struct(BaseAgent)11756_storage)"
          },
          {
            "astId": 10207,
            "contract": "src/contracts/acl/AccessControl.sol:AccessControl",
            "label": "scopes",
            "offset": 0,
            "slot": "1",
            "type": "t_mapping(t_bytes32,t_struct(BaseScope)11770_storage)"
          },
          {
            "astId": 10212,
            "contract": "src/contracts/acl/AccessControl.sol:AccessControl",
            "label": "policies",
            "offset": 0,
            "slot": "2",
            "type": "t_mapping(t_bytes32,t_struct(PolicyEntity)11793_storage)"
          },
          {
            "astId": 10216,
            "contract": "src/contracts/acl/AccessControl.sol:AccessControl",
            "label": "rolePolicyMap",
            "offset": 0,
            "slot": "3",
            "type": "t_mapping(t_bytes32,t_bytes32)"
          },
          {
            "astId": 10221,
            "contract": "src/contracts/acl/AccessControl.sol:AccessControl",
            "label": "profiles",
            "offset": 0,
            "slot": "4",
            "type": "t_mapping(t_bytes32,t_struct(ProfileEntity)12059_storage)"
          },
          {
            "astId": 10226,
            "contract": "src/contracts/acl/AccessControl.sol:AccessControl",
            "label": "profileAccounts",
            "offset": 0,
            "slot": "5",
            "type": "t_mapping(t_address,t_struct(ProfileAccount)12018_storage)"
          },
          {
            "astId": 10230,
            "contract": "src/contracts/acl/AccessControl.sol:AccessControl",
            "label": "selectors",
            "offset": 0,
            "slot": "6",
            "type": "t_mapping(t_bytes4,t_address)"
          },
          {
            "astId": 10235,
            "contract": "src/contracts/acl/AccessControl.sol:AccessControl",
            "label": "facets",
            "offset": 0,
            "slot": "7",
            "type": "t_mapping(t_address,t_struct(FacetEntity)11945_storage)"
          },
          {
            "astId": 10238,
            "contract": "src/contracts/acl/AccessControl.sol:AccessControl",
            "label": "facetSet",
            "offset": 0,
            "slot": "8",
            "type": "t_struct(AddressSet)79783_storage"
          }
        ],
        "numberOfBytes": "320"
      },
      "t_struct(FacetEntity)11945_storage": {
        "encoding": "inplace",
        "label": "struct IACLCommons.FacetEntity",
        "members": [
          {
            "astId": 11944,
            "contract": "src/contracts/acl/AccessControl.sol:AccessControl",
            "label": "subjectId",
            "offset": 0,
            "slot": "0",
            "type": "t_address"
          }
        ],
        "numberOfBytes": "32"
      },
      "t_struct(PolicyEntity)11793_storage": {
        "encoding": "inplace",
        "label": "struct IACLCommons.PolicyEntity",
        "members": [
          {
            "astId": 11772,
            "contract": "src/contracts/acl/AccessControl.sol:AccessControl",
            "label": "adminId",
            "offset": 0,
            "slot": "0",
            "type": "t_bytes32"
          },
          {
            "astId": 11774,
            "contract": "src/contracts/acl/AccessControl.sol:AccessControl",
            "label": "scopeId",
            "offset": 0,
            "slot": "1",
            "type": "t_bytes32"
          },
          {
            "astId": 11776,
            "contract": "src/contracts/acl/AccessControl.sol:AccessControl",
            "label": "name",
            "offset": 0,
            "slot": "2",
            "type": "t_string_storage"
          },
          {
            "astId": 11778,
            "contract": "src/contracts/acl/AccessControl.sol:AccessControl",
            "label": "roleLimit",
            "offset": 0,
            "slot": "3",
            "type": "t_uint16"
          },
          {
            "astId": 11780,
            "contract": "src/contracts/acl/AccessControl.sol:AccessControl",
            "label": "policyCode",
            "offset": 2,
            "slot": "3",
            "type": "t_uint8"
          },
          {
            "astId": 11783,
            "contract": "src/contracts/acl/AccessControl.sol:AccessControl",
            "label": "ptype",
            "offset": 3,
            "slot": "3",
            "type": "t_enum(PolicyType)11744"
          },
          {
            "astId": 11786,
            "contract": "src/contracts/acl/AccessControl.sol:AccessControl",
            "label": "acstat",
            "offset": 4,
            "slot": "3",
            "type": "t_enum(ActivityStatus)11721"
          },
          {
            "astId": 11789,
            "contract": "src/contracts/acl/AccessControl.sol:AccessControl",
            "label": "alstat",
            "offset": 5,
            "slot": "3",
            "type": "t_enum(AlterabilityStatus)11726"
          },
          {
            "astId": 11792,
            "contract": "src/contracts/acl/AccessControl.sol:AccessControl",
            "label": "roles",
            "offset": 0,
            "slot": "4",
            "type": "t_struct(Bytes32Set)79676_storage"
          }
        ],
        "numberOfBytes": "192"
      },
      "t_struct(ProfileAccount)12018_storage": {
        "encoding": "inplace",
        "label": "struct IACLCommons.ProfileAccount",
        "members": [
          {
            "astId": 12017,
            "contract": "src/contracts/acl/AccessControl.sol:AccessControl",
            "label": "profiles",
            "offset": 0,
            "slot": "0",
            "type": "t_array(t_bytes32)dyn_storage"
          }
        ],
        "numberOfBytes": "32"
      },
      "t_struct(ProfileEntity)12059_storage": {
        "encoding": "inplace",
        "label": "struct IACLCommons.ProfileEntity",
        "members": [
          {
            "astId": 12023,
            "contract": "src/contracts/acl/AccessControl.sol:AccessControl",
            "label": "agents",
            "offset": 0,
            "slot": "0",
            "type": "t_mapping(t_bytes32,t_struct(BaseAgent)11756_storage)"
          },
          {
            "astId": 12028,
            "contract": "src/contracts/acl/AccessControl.sol:AccessControl",
            "label": "scopes",
            "offset": 0,
            "slot": "1",
            "type": "t_mapping(t_bytes32,t_struct(BaseScope)11770_storage)"
          },
          {
            "astId": 12033,
            "contract": "src/contracts/acl/AccessControl.sol:AccessControl",
            "label": "policies",
            "offset": 0,
            "slot": "2",
            "type": "t_mapping(t_bytes32,t_struct(PolicyEntity)11793_storage)"
          },
          {
            "astId": 12037,
            "contract": "src/contracts/acl/AccessControl.sol:AccessControl",
            "label": "rolePolicyMap",
            "offset": 0,
            "slot": "3",
            "type": "t_mapping(t_bytes32,t_bytes32)"
          },
          {
            "astId": 12040,
            "contract": "src/contracts/acl/AccessControl.sol:AccessControl",
            "label": "admins",
            "offset": 0,
            "slot": "4",
            "type": "t_struct(Bytes32Set)79676_storage"
          },
          {
            "astId": 12042,
            "contract": "src/contracts/acl/AccessControl.sol:AccessControl",
            "label": "adminId",
            "offset": 0,
            "slot": "6",
            "type": "t_bytes32"
          },
          {
            "astId": 12044,
            "contract": "src/contracts/acl/AccessControl.sol:AccessControl",
            "label": "name",
            "offset": 0,
            "slot": "7",
            "type": "t_string_storage"
          },
          {
            "astId": 12046,
            "contract": "src/contracts/acl/AccessControl.sol:AccessControl",
            "label": "owner",
            "offset": 0,
            "slot": "8",
            "type": "t_address"
          },
          {
            "astId": 12049,
            "contract": "src/contracts/acl/AccessControl.sol:AccessControl",
            "label": "acstat",
            "offset": 20,
            "slot": "8",
            "type": "t_enum(ActivityStatus)11721"
          },
          {
            "astId": 12052,
            "contract": "src/contracts/acl/AccessControl.sol:AccessControl",
            "label": "alstat",
            "offset": 21,
            "slot": "8",
            "type": "t_enum(AlterabilityStatus)11726"
          },
          {
            "astId": 12055,
            "contract": "src/contracts/acl/AccessControl.sol:AccessControl",
            "label": "registerLimits",
            "offset": 0,
            "slot": "9",
            "type": "t_struct(ProfileRegisterLimit)11993_storage"
          },
          {
            "astId": 12058,
            "contract": "src/contracts/acl/AccessControl.sol:AccessControl",
            "label": "limits",
            "offset": 0,
            "slot": "10",
            "type": "t_struct(ProfileLimit)12014_storage"
          }
        ],
        "numberOfBytes": "352"
      },
      "t_struct(ProfileLimit)12014_storage": {
        "encoding": "inplace",
        "label": "struct IACLCommons.ProfileLimit",
        "members": [
          {
            "astId": 11995,
            "contract": "src/contracts/acl/AccessControl.sol:AccessControl",
            "label": "profileCallLimit",
            "offset": 0,
            "slot": "0",
            "type": "t_uint32"
          },
          {
            "astId": 11997,
            "contract": "src/contracts/acl/AccessControl.sol:AccessControl",
            "label": "contextLimit",
            "offset": 4,
            "slot": "0",
            "type": "t_uint32"
          },
          {
            "astId": 11999,
            "contract": "src/contracts/acl/AccessControl.sol:AccessControl",
            "label": "memberLimit",
            "offset": 8,
            "slot": "0",
            "type": "t_uint24"
          },
          {
            "astId": 12001,
            "contract": "src/contracts/acl/AccessControl.sol:AccessControl",
            "label": "realmLimit",
            "offset": 11,
            "slot": "0",
            "type": "t_uint16"
          },
          {
            "astId": 12003,
            "contract": "src/contracts/acl/AccessControl.sol:AccessControl",
            "label": "domainLimit",
            "offset": 13,
            "slot": "0",
            "type": "t_uint16"
          },
          {
            "astId": 12005,
            "contract": "src/contracts/acl/AccessControl.sol:AccessControl",
            "label": "memberCallLimit",
            "offset": 15,
            "slot": "0",
            "type": "t_uint16"
          },
          {
            "astId": 12007,
            "contract": "src/contracts/acl/AccessControl.sol:AccessControl",
            "label": "typeRoleLimit",
            "offset": 17,
            "slot": "0",
            "type": "t_uint16"
          },
          {
            "astId": 12009,
            "contract": "src/contracts/acl/AccessControl.sol:AccessControl",
            "label": "typeLimit",
            "offset": 19,
            "slot": "0",
            "type": "t_uint16"
          },
          {
            "astId": 12011,
            "contract": "src/contracts/acl/AccessControl.sol:AccessControl",
            "label": "policyRoleLimit",
            "offset": 21,
            "slot": "0",
            "type": "t_uint16"
          },
          {
            "astId": 12013,
            "contract": "src/contracts/acl/AccessControl.sol:AccessControl",
            "label": "functionLimit",
            "offset": 23,
            "slot": "0",
            "type": "t_uint8"
          }
        ],
        "numberOfBytes": "32"
      },
      "t_struct(ProfileRegisterLimit)11993_storage": {
        "encoding": "inplace",
        "label": "struct IACLCommons.ProfileRegisterLimit",
        "members": [
          {
            "astId": 11978,
            "contract": "src/contracts/acl/AccessControl.sol:AccessControl",
            "label": "memberRegisterLimit",
            "offset": 0,
            "slot": "0",
            "type": "t_uint32"
          },
          {
            "astId": 11980,
            "contract": "src/contracts/acl/AccessControl.sol:AccessControl",
            "label": "roleRegisterLimit",
            "offset": 4,
            "slot": "0",
            "type": "t_uint32"
          },
          {
            "astId": 11982,
            "contract": "src/contracts/acl/AccessControl.sol:AccessControl",
            "label": "typeRegisterLimit",
            "offset": 8,
            "slot": "0",
            "type": "t_uint32"
          },
          {
            "astId": 11984,
            "contract": "src/contracts/acl/AccessControl.sol:AccessControl",
            "label": "functionRegisterLimit",
            "offset": 12,
            "slot": "0",
            "type": "t_uint32"
          },
          {
            "astId": 11986,
            "contract": "src/contracts/acl/AccessControl.sol:AccessControl",
            "label": "contextRegisterLimit",
            "offset": 16,
            "slot": "0",
            "type": "t_uint32"
          },
          {
            "astId": 11988,
            "contract": "src/contracts/acl/AccessControl.sol:AccessControl",
            "label": "realmRegisterLimit",
            "offset": 20,
            "slot": "0",
            "type": "t_uint16"
          },
          {
            "astId": 11990,
            "contract": "src/contracts/acl/AccessControl.sol:AccessControl",
            "label": "domainRegisterLimit",
            "offset": 22,
            "slot": "0",
            "type": "t_uint16"
          },
          {
            "astId": 11992,
            "contract": "src/contracts/acl/AccessControl.sol:AccessControl",
            "label": "policyRegisterLimit",
            "offset": 24,
            "slot": "0",
            "type": "t_uint16"
          }
        ],
        "numberOfBytes": "32"
      },
      "t_struct(Set)79482_storage": {
        "encoding": "inplace",
        "label": "struct LEnumerableSet.Set",
        "members": [
          {
            "astId": 79477,
            "contract": "src/contracts/acl/AccessControl.sol:AccessControl",
            "label": "_values",
            "offset": 0,
            "slot": "0",
            "type": "t_array(t_bytes32)dyn_storage"
          },
          {
            "astId": 79481,
            "contract": "src/contracts/acl/AccessControl.sol:AccessControl",
            "label": "_indexes",
            "offset": 0,
            "slot": "1",
            "type": "t_mapping(t_bytes32,t_uint256)"
          }
        ],
        "numberOfBytes": "64"
      },
      "t_uint16": {
        "encoding": "inplace",
        "label": "uint16",
        "numberOfBytes": "2"
      },
      "t_uint24": {
        "encoding": "inplace",
        "label": "uint24",
        "numberOfBytes": "3"
      },
      "t_uint256": {
        "encoding": "inplace",
        "label": "uint256",
        "numberOfBytes": "32"
      },
      "t_uint32": {
        "encoding": "inplace",
        "label": "uint32",
        "numberOfBytes": "4"
      },
      "t_uint8": {
        "encoding": "inplace",
        "label": "uint8",
        "numberOfBytes": "1"
      }
    }
  }
}