{
  "address": "0xDA3A221f9ec8Eb6B478BC67236c7FBe71629661C",
  "abi": [
    {
      "inputs": [],
      "name": "LIB_NAME",
      "outputs": [
        {
          "internalType": "bytes32",
          "name": "",
          "type": "bytes32"
        }
      ],
      "stateMutability": "view",
      "type": "function"
    },
    {
      "inputs": [],
      "name": "LIB_VERSION",
      "outputs": [
        {
          "internalType": "bytes32",
          "name": "",
          "type": "bytes32"
        }
      ],
      "stateMutability": "view",
      "type": "function"
    },
    {
      "inputs": [],
      "name": "LIVELY_ADMIN_ROLE",
      "outputs": [
        {
          "internalType": "bytes32",
          "name": "",
          "type": "bytes32"
        }
      ],
      "stateMutability": "view",
      "type": "function"
    },
    {
      "inputs": [],
      "name": "LIVELY_ASSET_ADMIN_ROLE",
      "outputs": [
        {
          "internalType": "bytes32",
          "name": "",
          "type": "bytes32"
        }
      ],
      "stateMutability": "view",
      "type": "function"
    },
    {
      "inputs": [],
      "name": "LIVELY_ASSET_GROUP",
      "outputs": [
        {
          "internalType": "bytes32",
          "name": "",
          "type": "bytes32"
        }
      ],
      "stateMutability": "view",
      "type": "function"
    },
    {
      "inputs": [],
      "name": "LIVELY_ASSET_MANAGER_ROLE",
      "outputs": [
        {
          "internalType": "bytes32",
          "name": "",
          "type": "bytes32"
        }
      ],
      "stateMutability": "view",
      "type": "function"
    },
    {
      "inputs": [],
      "name": "LIVELY_SYSTEM_ADMIN_ROLE",
      "outputs": [
        {
          "internalType": "bytes32",
          "name": "",
          "type": "bytes32"
        }
      ],
      "stateMutability": "view",
      "type": "function"
    },
    {
      "inputs": [
        {
          "internalType": "bytes32",
          "name": "domainName",
          "type": "bytes32"
        },
        {
          "internalType": "bytes32",
          "name": "domainVersion",
          "type": "bytes32"
        },
        {
          "internalType": "bytes32",
          "name": "realm",
          "type": "bytes32"
        }
      ],
      "name": "createRequestContext",
      "outputs": [
        {
          "components": [
            {
              "internalType": "bytes32",
              "name": "name",
              "type": "bytes32"
            },
            {
              "internalType": "bytes32",
              "name": "version",
              "type": "bytes32"
            },
            {
              "internalType": "bytes32",
              "name": "realm",
              "type": "bytes32"
            },
            {
              "internalType": "address",
              "name": "contractId",
              "type": "address"
            },
            {
              "internalType": "bool",
              "name": "status",
              "type": "bool"
            }
          ],
          "internalType": "struct IContextManagement.RequestContext",
          "name": "",
          "type": "tuple"
        },
        {
          "components": [
            {
              "internalType": "bytes32",
              "name": "role",
              "type": "bytes32"
            },
            {
              "internalType": "bytes4[]",
              "name": "funcSelectors",
              "type": "bytes4[]"
            },
            {
              "internalType": "bool",
              "name": "isEnabled",
              "type": "bool"
            }
          ],
          "internalType": "struct IContextManagement.RequestRegisterContext[]",
          "name": "",
          "type": "tuple[]"
        }
      ],
      "stateMutability": "view",
      "type": "function"
    },
    {
      "inputs": [
        {
          "internalType": "address",
          "name": "implementation",
          "type": "address"
        },
        {
          "internalType": "bytes32",
          "name": "salt",
          "type": "bytes32"
        },
        {
          "internalType": "address",
          "name": "deployer",
          "type": "address"
        }
      ],
      "name": "predictAddress",
      "outputs": [
        {
          "internalType": "address",
          "name": "",
          "type": "address"
        }
      ],
      "stateMutability": "pure",
      "type": "function"
    }
  ],
  "transactionHash": "0xf4dbc9ba60c5596a075fd31d40f1d9dd46ad4dc2698c42a102faeb220037a032",
  "args": [],
  "numDeployments": 1,
  "solcInputHash": "45271bbf9385da8a7b2f4f7bb0ef2c6a",
  "bytecode": "0x61283c61003a600b82828239805160001a60731461002d57634e487b7160e01b600052600060045260246000fd5b30600052607381538281f3fe73000000000000000000000000000000000000000030146080604052600436106100f45760003560e01c8063a619675711610096578063bec9475111610070578063bec947511461023a578063c79fd49b14610242578063d8b3199914610272578063ef34f2911461027a57600080fd5b8063a6196757146101cc578063b5ea87b9146101d4578063bbb9b43d1461020257600080fd5b80634c95d60d116100d25780634c95d60d1461015c5780635632ffd8146101645780638946f5e81461016c57806397ca328d146101ab57600080fd5b806308d9f7e3146100f95780632466209b1461013e57806336206f0414610154575b600080fd5b81801561010557600080fd5b506101196101143660046121da565b61028d565b604080516001600160a01b039384168152929091166020830152015b60405180910390f35b6101466107f4565b604051908152602001610135565b610146610822565b61014661084d565b610146610873565b81801561017857600080fd5b5061018c6101873660046122ab565b61089f565b6040805192151583526001600160a01b03909116602083015201610135565b6101be6101b93660046122db565b610cc4565b604051610135929190612307565b6101466116f2565b8180156101e057600080fd5b506101f46101ef3660046122ab565b611723565b604051610135929190612449565b81801561020e57600080fd5b5061022261021d3660046122ab565b611b57565b6040516001600160a01b039091168152602001610135565b610146611d82565b81801561024e57600080fd5b5061026261025d366004612485565b611da8565b6040519015158152602001610135565b610146611ea3565b6102226102883660046124c7565b611ec8565b6000808061029e60608901896124fe565b9050116102e75760405162461bcd60e51b8152602060048201526012602482015271496e76616c6964204173736574204e616d6560701b60448201526064015b60405180910390fd5b60006102f660808901896124fe565b90501161033d5760405162461bcd60e51b815260206004820152601560248201527424b73b30b634b21020b9b9b2ba102b32b939b4b7b760591b60448201526064016102de565b600061034f6060890160408a01612545565b6001600160a01b0316036103a55760405162461bcd60e51b815260206004820152601760248201527f496e76616c696420546f6b656e4964204164647265737300000000000000000060448201526064016102de565b6001600160a01b0385166103fb5760405162461bcd60e51b815260206004820152601b60248201527f496e76616c6964204173736574205375626a656374204552433230000000000060448201526064016102de565b61041861040e6060890160408a01612545565b60018a0190611ee6565b6104345760405162461bcd60e51b81526004016102de90612562565b6040517104c4956454c595f41535345545f47524f55560741b602082015260009060320160408051808303601f19018152908290528051602090910120637a89164960e11b8252600482018190528935602483015291506001600160a01b0388169063f5122c9290604401602060405180830381865afa1580156104bc573d6000803e3d6000fd5b505050506040513d601f19601f820116820180604052508101906104e0919061258d565b6105235760405162461bcd60e51b8152602060048201526014602482015273105cdcd95d08149bdb1948139bdd08119bdd5b9960621b60448201526064016102de565b6000898161053760608c0160408d01612545565b6001600160a01b03166001600160a01b03168152602001908152602001600020905061058361057c8a60200135896001600160a01b0316611f0b90919063ffffffff16565b8290611ee6565b156105c95760405162461bcd60e51b81526020600482015260166024820152754173736574496420416c72656164792045786973747360501b60448201526064016102de565b6000604051806101400160405280306001600160a01b031663d3e024b86040518163ffffffff1660e01b8152600401602060405180830381865afa158015610615573d6000803e3d6000fd5b505050506040513d601f19601f8201168201806040525081019061063991906125aa565b81526020018b6000013581526020018b602001358152602001896001600160a01b031681526020018b60400160208101906106749190612545565b6001600160a01b0390811682528b1660208201523060408201526060908101906106a0908d018d6124fe565b8080601f0160208091040260200160405190810160405280939291908181526020018383808284376000920191909152505050908252506020016106e760808d018d6124fe565b8080601f016020809104026020016040519081016040528093929190818152602001838380828437600092019190915250505090825250604080516020601f8b0181900481028201810190925289815291810191908a908a908190840183828082843760009201829052509390945250929350915061077590506001600160a01b038a1660208d0135611f18565b604051622e737160e91b81529091506001600160a01b03821690635ce6e200906107a39085906004016125c3565b600060405180830381600087803b1580156107bd57600080fd5b505af11580156107d1573d6000803e3d6000fd5b506107e29250859150839050611fb8565b509b979a509698505050505050505050565b604051640312e302e360dc1b60208201526025015b6040516020818303038152906040528051906020012081565b604051764c4956454c595f41535345545f41444d494e5f524f4c4560481b6020820152603701610809565b6040517104c4956454c595f41535345545f47524f55560741b6020820152603201610809565b604051774c4956454c595f53595354454d5f41444d494e5f524f4c4560401b6020820152603801610809565b6000806001600160a01b0383166108f25760405162461bcd60e51b8152602060048201526017602482015276496e76616c69642041737365744964204164647265737360481b60448201526064016102de565b6040516301ffc9a760e01b81526001600160a01b038416906301ffc9a7906109259063391f033d60e11b906004016126a3565b602060405180830381865afa92505050801561095e575060408051601f3d908101601f1916820190925261095b9181019061258d565b60015b6109a05760405162461bcd60e51b81526020600482015260136024820152720496c6c6567616c20494173736574455243323606c1b60448201526064016102de565b806109e35760405162461bcd60e51b81526020600482015260136024820152720496e76616c696420494173736574455243323606c1b60448201526064016102de565b506040516301ffc9a760e01b81526001600160a01b038416906301ffc9a790610a1790639673b47d60e01b906004016126a3565b602060405180830381865afa925050508015610a50575060408051601f3d908101601f19168201909252610a4d9181019061258d565b60015b610a935760405162461bcd60e51b8152602060048201526014602482015273496c6c6567616c20494173736574456e7469747960601b60448201526064016102de565b80610ad75760405162461bcd60e51b8152602060048201526014602482015273496e76616c696420494173736574456e7469747960601b60448201526064016102de565b506000836001600160a01b0316631083f7616040518163ffffffff1660e01b8152600401602060405180830381865afa158015610b18573d6000803e3d6000fd5b505050506040513d601f19601f82011682018060405250810190610b3c91906126b8565b9050610b4b6001860182611ee6565b610b675760405162461bcd60e51b81526004016102de90612562565b6001600160a01b0381166000908152602086905260409020610b898186611ee6565b15610bd65760405162461bcd60e51b815260206004820152601a60248201527f4173736574496420416c7265616479205265676973746572656400000000000060448201526064016102de565b610be08186611fb8565b50846001600160a01b0316634cfb99496040518163ffffffff1660e01b8152600401602060405180830381865afa158015610c1f573d6000803e3d6000fd5b505050506040513d601f19601f82011682018060405250810190610c43919061258d565b15610cb557604051636de16c2960e11b8152600060048201526001600160a01b0386169063dbc2d852906024016020604051808303816000875af1158015610c8f573d6000803e3d6000fd5b505050506040513d601f19601f82011682018060405250810190610cb3919061258d565b505b506001925090505b9250929050565b6040805160a081018252600080825260208201819052818301819052606080830182905260808084018390528451600380825291810190955292939092816020015b60408051606080820183526000808352602083019190915291810191909152815260200190600190039081610d0657905050604051704c4956454c595f41444d494e5f524f4c4560781b60208201529091506031016040516020818303038152906040528051906020012081600081518110610d8457610d846126eb565b60200260200101516000018181525050600181600081518110610da957610da96126eb565b60209081029190910101519015156040918201528051600280825260608201909252908160200160208202803683370190505081600081518110610def57610def6126eb565b6020026020010151602001819052506348e6be1c60e01b81600081518110610e1957610e196126eb565b602002602001015160200151600081518110610e3757610e376126eb565b6001600160e01b031990921660209283029190910190910152805163225bf2f960e11b908290600090610e6c57610e6c6126eb565b602002602001015160200151600181518110610e8a57610e8a6126eb565b6001600160e01b0319909216602092830291909101820152604051610ece9101774c4956454c595f53595354454d5f41444d494e5f524f4c4560401b815260180190565b6040516020818303038152906040528051906020012081600181518110610ef757610ef76126eb565b60200260200101516000018181525050600181600181518110610f1c57610f1c6126eb565b60209081029190910101519015156040918201528051600280825260608201909252908160200160208202803683370190505081600181518110610f6257610f626126eb565b60200260200101516020018190525063d9dc1f1960e01b81600181518110610f8c57610f8c6126eb565b602002602001015160200151600081518110610faa57610faa6126eb565b6001600160e01b0319909216602092830291909101909101528051637147855d60e01b9082906001908110610fe157610fe16126eb565b602002602001015160200151600181518110610fff57610fff6126eb565b6001600160e01b03199092166020928302919091018201526040516110429101764c4956454c595f41535345545f41444d494e5f524f4c4560481b815260170190565b604051602081830303815290604052805190602001208160028151811061106b5761106b6126eb565b60200260200101516000018181525050600181600281518110611090576110906126eb565b602090810291909101810151911515604092830152815160118082526102408201909352919082016102208036833701905050816002815181106110d6576110d66126eb565b602002602001015160200181905250630bb0ccaa60e01b81600281518110611100576111006126eb565b60200260200101516020015160008151811061111e5761111e6126eb565b6001600160e01b0319909216602092830291909101909101528051633d04ca0f60e11b9082906002908110611155576111556126eb565b602002602001015160200151600181518110611173576111736126eb565b6001600160e01b03199092166020928302919091019091015280516315eaef6b60e01b90829060029081106111aa576111aa6126eb565b6020026020010151602001516002815181106111c8576111c86126eb565b6001600160e01b031990921660209283029190910190910152805163622110e160e01b90829060029081106111ff576111ff6126eb565b60200260200101516020015160038151811061121d5761121d6126eb565b6001600160e01b031990921660209283029190910190910152805163f3913e6960e01b9082906002908110611254576112546126eb565b602002602001015160200151600481518110611272576112726126eb565b6001600160e01b0319909216602092830291909101909101528051632b2df8fd60e11b90829060029081106112a9576112a96126eb565b6020026020010151602001516005815181106112c7576112c76126eb565b6001600160e01b031990921660209283029190910190910152805163fb3f4d2960e01b90829060029081106112fe576112fe6126eb565b60200260200101516020015160068151811061131c5761131c6126eb565b6001600160e01b0319909216602092830291909101909101528051631bdc562760e01b9082906002908110611353576113536126eb565b602002602001015160200151600781518110611371576113716126eb565b6001600160e01b031990921660209283029190910190910152805163061234a960e31b90829060029081106113a8576113a86126eb565b6020026020010151602001516008815181106113c6576113c66126eb565b6001600160e01b031990921660209283029190910190910152805163b484c88960e01b90829060029081106113fd576113fd6126eb565b60200260200101516020015160098151811061141b5761141b6126eb565b6001600160e01b0319909216602092830291909101909101528051631b87323d60e01b9082906002908110611452576114526126eb565b602002602001015160200151600a81518110611470576114706126eb565b6001600160e01b03199092166020928302919091019091015280516213049560e71b90829060029081106114a6576114a66126eb565b602002602001015160200151600b815181106114c4576114c46126eb565b6001600160e01b031990921660209283029190910190910152805163d312998f60e01b90829060029081106114fb576114fb6126eb565b602002602001015160200151600c81518110611519576115196126eb565b6001600160e01b0319909216602092830291909101909101528051634a5e42b160e01b9082906002908110611550576115506126eb565b602002602001015160200151600d8151811061156e5761156e6126eb565b6001600160e01b0319909216602092830291909101909101528051631b9e297d60e11b90829060029081106115a5576115a56126eb565b602002602001015160200151600e815181106115c3576115c36126eb565b60200260200101906001600160e01b03191690816001600160e01b031916815250507fff4d8e4a6676b66ec3d51278d23acf6cc5ac8608a2959108363c954c9f195a0381600281518110611619576116196126eb565b602002602001015160200151600f81518110611637576116376126eb565b60200260200101906001600160e01b03191690816001600160e01b031916815250507f756af45f4ce05d832bee0c171992c529ad6d3ca8e13303d78feace2f8fd7faf28160028151811061168d5761168d6126eb565b6020026020010151602001516010815181106116ab576116ab6126eb565b6001600160e01b0319929092166020928302919091018201526040805160a08101825297885290870195909552938501929092525050306060830152600160808301529091565b6040517f4c4956454c595f41535345545f4d414e414745525f524f4c45000000000000006020820152603901610809565b6060806117336001850184611ee6565b156117805760405162461bcd60e51b815260206004820152601a60248201527f546f6b656e496420416c7265616479205265676973746572656400000000000060448201526064016102de565b6040516301ffc9a760e01b81526001600160a01b038416906301ffc9a7906117b390634a17459160e11b906004016126a3565b602060405180830381865afa9250505080156117ec575060408051601f3d908101601f191682019092526117e99181019061258d565b60015b6118285760405162461bcd60e51b815260206004820152600d60248201526c0496c6c6567616c20455243323609c1b60448201526064016102de565b806118655760405162461bcd60e51b815260206004820152600d60248201526c0496e76616c696420455243323609c1b60448201526064016102de565b506040516301ffc9a760e01b81526001600160a01b038416906301ffc9a7906118999063e3a31a9d60e01b906004016126a3565b602060405180830381865afa9250505080156118d2575060408051601f3d908101601f191682019092526118cf9181019061258d565b60015b6119135760405162461bcd60e51b8152602060048201526012602482015271496c6c6567616c204552433230457874726160701b60448201526064016102de565b806119555760405162461bcd60e51b8152602060048201526012602482015271496e76616c6964204552433230457874726160701b60448201526064016102de565b506040516301ffc9a760e01b81526001600160a01b038416906301ffc9a79061198890627b720760e91b906004016126a3565b602060405180830381865afa9250505080156119c1575060408051601f3d908101601f191682019092526119be9181019061258d565b60015b611a015760405162461bcd60e51b8152602060048201526011602482015270496c6c6567616c2045524332304c6f636b60781b60448201526064016102de565b80611a425760405162461bcd60e51b8152602060048201526011602482015270496e76616c69642045524332304c6f636b60781b60448201526064016102de565b506000836001600160a01b03166306fdde036040518163ffffffff1660e01b8152600401600060405180830381865afa158015611a83573d6000803e3d6000fd5b505050506040513d6000823e601f3d908101601f19168201604052611aab9190810190612701565b90506000846001600160a01b03166395d89b416040518163ffffffff1660e01b8152600401600060405180830381865afa158015611aed573d6000803e3d6000fd5b505050506040513d6000823e601f3d908101601f19168201604052611b159190810190612701565b9050611b246001870186611fb8565b506001600160a01b039490941660009081526020959095526040909420600201805460ff19166001179055509192909150565b60006001600160a01b038216611ba95760405162461bcd60e51b8152602060048201526017602482015276496e76616c69642041737365744964204164647265737360481b60448201526064016102de565b6000826001600160a01b0316631083f7616040518163ffffffff1660e01b8152600401602060405180830381865afa158015611be9573d6000803e3d6000fd5b505050506040513d601f19601f82011682018060405250810190611c0d91906126b8565b9050611c1c6001850182611ee6565b611c385760405162461bcd60e51b81526004016102de90612562565b6001600160a01b0381166000908152602085905260409020611c5a8185611ee6565b611c9a5760405162461bcd60e51b8152602060048201526011602482015270105cdcd95d125908139bdd08119bdd5b99607a1b60448201526064016102de565b611ca48185611fcd565b50836001600160a01b0316634cfb99496040518163ffffffff1660e01b8152600401602060405180830381865afa158015611ce3573d6000803e3d6000fd5b505050506040513d601f19601f82011682018060405250810190611d07919061258d565b611d7857604051636de16c2960e11b8152600160048201526001600160a01b0385169063dbc2d852906024016020604051808303816000875af1158015611d52573d6000803e3d6000fd5b505050506040513d601f19601f82011682018060405250810190611d76919061258d565b505b5090505b92915050565b6040517104c41737365744d616e6167657245524332360741b6020820152603201610809565b6000611db76001850184611ee6565b611dd35760405162461bcd60e51b81526004016102de90612562565b6001600160a01b0383166000908152602085905260408120905b611df682611fe2565b811015611e8857611e078282611fec565b604051636de16c2960e11b815285151560048201526001600160a01b03919091169063dbc2d852906024016020604051808303816000875af1158015611e51573d6000803e3d6000fd5b505050506040513d601f19601f82011682018060405250810190611e75919061258d565b5080611e80816127c4565b915050611ded565b506002908101805460ff191690911790555060019392505050565b604051704c4956454c595f41444d494e5f524f4c4560781b6020820152603101610809565b6000611ede6001600160a01b0385168484611ff8565b949350505050565b6001600160a01b038116600090815260018301602052604081205415155b9392505050565b6000611f04838330611ff8565b6000604051733d602d80600a3d3981f3363d3d373d3d3d363d7360601b81528360601b60148201526e5af43d82803e903d91602b57fd5bf360881b6028820152826037826000f59150506001600160a01b038116611d7c5760405162461bcd60e51b815260206004820152601760248201527f455243313136373a2063726561746532206661696c656400000000000000000060448201526064016102de565b6000611f04836001600160a01b038416612056565b6000611f04836001600160a01b0384166120a5565b6000611d7c825490565b6000611f048383612198565b604051733d602d80600a3d3981f3363d3d373d3d3d363d7360601b8152606093841b60148201526f5af43d82803e903d91602b57fd5bf3ff60801b6028820152921b6038830152604c8201526037808220606c830152605591012090565b600081815260018301602052604081205461209d57508154600181810184556000848152602080822090930184905584548482528286019093526040902091909155611d7c565b506000611d7c565b6000818152600183016020526040812054801561218e5760006120c96001836127dd565b85549091506000906120dd906001906127dd565b90508181146121425760008660000182815481106120fd576120fd6126eb565b9060005260206000200154905080876000018481548110612120576121206126eb565b6000918252602080832090910192909255918252600188019052604090208390555b8554869080612153576121536127f0565b600190038181906000526020600020016000905590558560010160008681526020019081526020016000206000905560019350505050611d7c565b6000915050611d7c565b60008260000182815481106121af576121af6126eb565b9060005260206000200154905092915050565b6001600160a01b03811681146121d757600080fd5b50565b60008060008060008060a087890312156121f357600080fd5b86359550602087013567ffffffffffffffff8082111561221257600080fd5b9088019060a0828b03121561222657600080fd5b909550604088013590612238826121c2565b90945060608801359061224a826121c2565b9093506080880135908082111561226057600080fd5b818901915089601f83011261227457600080fd5b81358181111561228357600080fd5b8a602082850101111561229557600080fd5b6020830194508093505050509295509295509295565b600080604083850312156122be57600080fd5b8235915060208301356122d0816121c2565b809150509250929050565b6000806000606084860312156122f057600080fd5b505081359360208301359350604090920135919050565b600060c08201845183526020808601518185015260408087015181860152606060018060a01b0381890151168187015260808089015115158188015260c060a088015284885180875260e08901915060e08160051b8a01019650858a016000805b838110156123e7578b8a0360df19018552825180518b52898101518a8c018990528051898d01819052908b01908490898e01905b808310156123c65783516001600160e01b0319168252928d019260019290920191908d019061239c565b50928b015115159c8b019c909c525099509388019391880191600101612368565b50979c9b505050505050505050505050565b60005b838110156124145781810151838201526020016123fc565b50506000910152565b600081518084526124358160208601602086016123f9565b601f01601f19169290920160200192915050565b60408152600061245c604083018561241d565b828103602084015261246e818561241d565b95945050505050565b80151581146121d757600080fd5b60008060006060848603121561249a57600080fd5b8335925060208401356124ac816121c2565b915060408401356124bc81612477565b809150509250925092565b6000806000606084860312156124dc57600080fd5b83356124e7816121c2565b92506020840135915060408401356124bc816121c2565b6000808335601e1984360301811261251557600080fd5b83018035915067ffffffffffffffff82111561253057600080fd5b602001915036819003821315610cbd57600080fd5b60006020828403121561255757600080fd5b8135611f04816121c2565b602080825260119082015270151bdad95b925908139bdd08119bdd5b99607a1b604082015260600190565b60006020828403121561259f57600080fd5b8151611f0481612477565b6000602082840312156125bc57600080fd5b5051919050565b60208152815160208201526020820151604082015260408201516060820152600060608301516125fe60808401826001600160a01b03169052565b5060808301516001600160a01b03811660a08401525060a08301516001600160a01b03811660c08401525060c08301516001600160a01b03811660e08401525060e0830151610140610100818186015261265c61016086018461241d565b9250808601519050601f1961012081878603018188015261267d858461241d565b908801518782039092018488015293509050612699838261241d565b9695505050505050565b6001600160e01b031991909116815260200190565b6000602082840312156126ca57600080fd5b8151611f04816121c2565b634e487b7160e01b600052604160045260246000fd5b634e487b7160e01b600052603260045260246000fd5b60006020828403121561271357600080fd5b815167ffffffffffffffff8082111561272b57600080fd5b818401915084601f83011261273f57600080fd5b815181811115612751576127516126d5565b604051601f8201601f19908116603f01168101908382118183101715612779576127796126d5565b8160405282815287602084870101111561279257600080fd5b6127a38360208301602088016123f9565b979650505050505050565b634e487b7160e01b600052601160045260246000fd5b6000600182016127d6576127d66127ae565b5060010190565b81810381811115611d7c57611d7c6127ae565b634e487b7160e01b600052603160045260246000fdfea264697066735822122080a9bafcc183c4a14e0a918f9d7518dfc4c9bf6f19bb71722664dfc5d6cb580f64736f6c63430008110033",
  "devdoc": {
    "kind": "dev",
    "methods": {},
    "version": 1
  },
  "userdoc": {
    "kind": "user",
    "methods": {},
    "version": 1
  },
  "storageLayout": {
    "storage": [],
    "types": null
  }
}