{
  "address": "0x6C28E24b1B08fD7656035c08103AF23fb0853Cd6",
  "abi": [
    {
      "inputs": [],
      "stateMutability": "nonpayable",
      "type": "constructor"
    },
    {
      "inputs": [
        {
          "internalType": "enum IACL.AuthorizationStatus",
          "name": "",
          "type": "uint8"
        }
      ],
      "name": "ACLActionForbidden",
      "type": "error"
    },
    {
      "inputs": [],
      "name": "ACLCallForbidden",
      "type": "error"
    },
    {
      "inputs": [],
      "name": "ACLContextActivityForbidden",
      "type": "error"
    },
    {
      "inputs": [],
      "name": "ACLContextNotFound",
      "type": "error"
    },
    {
      "inputs": [],
      "name": "ACLDomainActivityForbidden",
      "type": "error"
    },
    {
      "inputs": [],
      "name": "ACLDomainNotFound",
      "type": "error"
    },
    {
      "inputs": [],
      "name": "ACLFunctionActivityForbidden",
      "type": "error"
    },
    {
      "inputs": [],
      "name": "ACLFunctionNotFound",
      "type": "error"
    },
    {
      "inputs": [],
      "name": "ACLMemberActivityForbidden",
      "type": "error"
    },
    {
      "inputs": [],
      "name": "ACLMemberNotFound",
      "type": "error"
    },
    {
      "inputs": [],
      "name": "ACLPolicyForbidden",
      "type": "error"
    },
    {
      "inputs": [],
      "name": "ACLRealmActivityForbidden",
      "type": "error"
    },
    {
      "inputs": [],
      "name": "ACLRealmNotFound",
      "type": "error"
    },
    {
      "inputs": [],
      "name": "ACLRoleActivityForbidden",
      "type": "error"
    },
    {
      "inputs": [],
      "name": "ACLRoleNotFound",
      "type": "error"
    },
    {
      "inputs": [],
      "name": "ACLRoleScopeForbidden",
      "type": "error"
    },
    {
      "inputs": [],
      "name": "ACLTypeActivityForbidden",
      "type": "error"
    },
    {
      "inputs": [],
      "name": "ACLTypeNotFound",
      "type": "error"
    },
    {
      "inputs": [],
      "name": "ACLUnauthorized",
      "type": "error"
    },
    {
      "inputs": [],
      "name": "ACLUniverseActivityForbidden",
      "type": "error"
    },
    {
      "inputs": [],
      "name": "AdminAccessFunctionNotFound",
      "type": "error"
    },
    {
      "inputs": [],
      "name": "AdminAccessNotPermitted",
      "type": "error"
    },
    {
      "inputs": [],
      "name": "AdminAccessPolicyForbidden",
      "type": "error"
    },
    {
      "inputs": [],
      "name": "AdminAccessRoleActivityForbidden",
      "type": "error"
    },
    {
      "inputs": [],
      "name": "AdminAccessRoleNotFound",
      "type": "error"
    },
    {
      "inputs": [],
      "name": "AdminAccessTypeActivityForbidden",
      "type": "error"
    },
    {
      "inputs": [],
      "name": "AdminAccessTypeNotFound",
      "type": "error"
    },
    {
      "inputs": [
        {
          "internalType": "enum IACL.AdminAccessStatus",
          "name": "",
          "type": "uint8"
        }
      ],
      "name": "SetAdminForbidden",
      "type": "error"
    },
    {
      "anonymous": false,
      "inputs": [
        {
          "indexed": true,
          "internalType": "address",
          "name": "sender",
          "type": "address"
        },
        {
          "indexed": true,
          "internalType": "address",
          "name": "proxy",
          "type": "address"
        },
        {
          "indexed": true,
          "internalType": "address",
          "name": "subject",
          "type": "address"
        },
        {
          "indexed": false,
          "internalType": "string",
          "name": "name",
          "type": "string"
        },
        {
          "indexed": false,
          "internalType": "string",
          "name": "version",
          "type": "string"
        },
        {
          "indexed": false,
          "internalType": "uint16",
          "name": "initCount",
          "type": "uint16"
        }
      ],
      "name": "Initialized",
      "type": "event"
    },
    {
      "anonymous": false,
      "inputs": [
        {
          "indexed": true,
          "internalType": "address",
          "name": "sender",
          "type": "address"
        },
        {
          "indexed": true,
          "internalType": "bytes32",
          "name": "memberId",
          "type": "bytes32"
        },
        {
          "indexed": false,
          "internalType": "enum IACLCommons.ActivityStatus",
          "name": "acstat",
          "type": "uint8"
        }
      ],
      "name": "MemberActivityUpdated",
      "type": "event"
    },
    {
      "anonymous": false,
      "inputs": [
        {
          "indexed": true,
          "internalType": "address",
          "name": "sender",
          "type": "address"
        },
        {
          "indexed": true,
          "internalType": "bytes32",
          "name": "memberId",
          "type": "bytes32"
        },
        {
          "indexed": true,
          "internalType": "bytes32",
          "name": "adminId",
          "type": "bytes32"
        }
      ],
      "name": "MemberAdminUpdated",
      "type": "event"
    },
    {
      "anonymous": false,
      "inputs": [
        {
          "indexed": true,
          "internalType": "address",
          "name": "sender",
          "type": "address"
        },
        {
          "indexed": true,
          "internalType": "bytes32",
          "name": "memberId",
          "type": "bytes32"
        },
        {
          "indexed": false,
          "internalType": "enum IACLCommons.AlterabilityStatus",
          "name": "alstat",
          "type": "uint8"
        }
      ],
      "name": "MemberAlterabilityUpdated",
      "type": "event"
    },
    {
      "anonymous": false,
      "inputs": [
        {
          "indexed": true,
          "internalType": "address",
          "name": "sender",
          "type": "address"
        },
        {
          "indexed": true,
          "internalType": "bytes32",
          "name": "memberId",
          "type": "bytes32"
        },
        {
          "components": [
            {
              "internalType": "uint24",
              "name": "memberLimit",
              "type": "uint24"
            },
            {
              "internalType": "uint16",
              "name": "memberRegisterLimit",
              "type": "uint16"
            },
            {
              "internalType": "uint16",
              "name": "contextRegisterLimit",
              "type": "uint16"
            },
            {
              "internalType": "uint16",
              "name": "functionRegisterLimit",
              "type": "uint16"
            },
            {
              "internalType": "uint16",
              "name": "profileRegisterLimit",
              "type": "uint16"
            },
            {
              "internalType": "uint16",
              "name": "contextLimit",
              "type": "uint16"
            },
            {
              "internalType": "uint16",
              "name": "realmLimit",
              "type": "uint16"
            },
            {
              "internalType": "uint16",
              "name": "domainLimit",
              "type": "uint16"
            },
            {
              "internalType": "uint16",
              "name": "callLimit",
              "type": "uint16"
            },
            {
              "internalType": "uint16",
              "name": "typeRoleLimit",
              "type": "uint16"
            },
            {
              "internalType": "uint16",
              "name": "typeLimit",
              "type": "uint16"
            },
            {
              "internalType": "uint8",
              "name": "roleRegisterLimit",
              "type": "uint8"
            },
            {
              "internalType": "uint8",
              "name": "typeRegisterLimit",
              "type": "uint8"
            },
            {
              "internalType": "uint8",
              "name": "realmRegisterLimit",
              "type": "uint8"
            },
            {
              "internalType": "uint8",
              "name": "domainRegisterLimit",
              "type": "uint8"
            },
            {
              "internalType": "uint8",
              "name": "policyRegisterLimit",
              "type": "uint8"
            },
            {
              "internalType": "uint8",
              "name": "policyRoleLimit",
              "type": "uint8"
            },
            {
              "internalType": "uint8",
              "name": "functionLimit",
              "type": "uint8"
            }
          ],
          "indexed": false,
          "internalType": "struct IACLCommons.GeneralLimit",
          "name": "limits",
          "type": "tuple"
        }
      ],
      "name": "MemberGeneralLimitUpdated",
      "type": "event"
    },
    {
      "anonymous": false,
      "inputs": [
        {
          "indexed": true,
          "internalType": "address",
          "name": "sender",
          "type": "address"
        },
        {
          "indexed": true,
          "internalType": "bytes32",
          "name": "memberId",
          "type": "bytes32"
        },
        {
          "indexed": true,
          "internalType": "address",
          "name": "account",
          "type": "address"
        },
        {
          "indexed": false,
          "internalType": "bytes32",
          "name": "roleId",
          "type": "bytes32"
        },
        {
          "indexed": false,
          "internalType": "bytes32",
          "name": "adminId",
          "type": "bytes32"
        },
        {
          "components": [
            {
              "internalType": "uint24",
              "name": "memberLimit",
              "type": "uint24"
            },
            {
              "internalType": "uint16",
              "name": "memberRegisterLimit",
              "type": "uint16"
            },
            {
              "internalType": "uint16",
              "name": "contextRegisterLimit",
              "type": "uint16"
            },
            {
              "internalType": "uint16",
              "name": "functionRegisterLimit",
              "type": "uint16"
            },
            {
              "internalType": "uint16",
              "name": "profileRegisterLimit",
              "type": "uint16"
            },
            {
              "internalType": "uint16",
              "name": "contextLimit",
              "type": "uint16"
            },
            {
              "internalType": "uint16",
              "name": "realmLimit",
              "type": "uint16"
            },
            {
              "internalType": "uint16",
              "name": "domainLimit",
              "type": "uint16"
            },
            {
              "internalType": "uint16",
              "name": "callLimit",
              "type": "uint16"
            },
            {
              "internalType": "uint16",
              "name": "typeRoleLimit",
              "type": "uint16"
            },
            {
              "internalType": "uint16",
              "name": "typeLimit",
              "type": "uint16"
            },
            {
              "internalType": "uint8",
              "name": "roleRegisterLimit",
              "type": "uint8"
            },
            {
              "internalType": "uint8",
              "name": "typeRegisterLimit",
              "type": "uint8"
            },
            {
              "internalType": "uint8",
              "name": "realmRegisterLimit",
              "type": "uint8"
            },
            {
              "internalType": "uint8",
              "name": "domainRegisterLimit",
              "type": "uint8"
            },
            {
              "internalType": "uint8",
              "name": "policyRegisterLimit",
              "type": "uint8"
            },
            {
              "internalType": "uint8",
              "name": "policyRoleLimit",
              "type": "uint8"
            },
            {
              "internalType": "uint8",
              "name": "functionLimit",
              "type": "uint8"
            }
          ],
          "indexed": false,
          "internalType": "struct IACLCommons.GeneralLimit",
          "name": "limits",
          "type": "tuple"
        }
      ],
      "name": "MemberRegistered",
      "type": "event"
    },
    {
      "anonymous": false,
      "inputs": [
        {
          "indexed": true,
          "internalType": "address",
          "name": "sender",
          "type": "address"
        },
        {
          "indexed": true,
          "internalType": "bytes32",
          "name": "memberId",
          "type": "bytes32"
        },
        {
          "indexed": false,
          "internalType": "bool",
          "name": "isCompleted",
          "type": "bool"
        }
      ],
      "name": "MemberRemoved",
      "type": "event"
    },
    {
      "anonymous": false,
      "inputs": [
        {
          "indexed": true,
          "internalType": "address",
          "name": "sender",
          "type": "address"
        },
        {
          "indexed": true,
          "internalType": "bytes32",
          "name": "memberId",
          "type": "bytes32"
        },
        {
          "indexed": true,
          "internalType": "bytes32",
          "name": "roleId",
          "type": "bytes32"
        },
        {
          "indexed": false,
          "internalType": "bytes32",
          "name": "typeId",
          "type": "bytes32"
        }
      ],
      "name": "MemberRoleRevoked",
      "type": "event"
    },
    {
      "anonymous": false,
      "inputs": [
        {
          "indexed": true,
          "internalType": "address",
          "name": "sender",
          "type": "address"
        },
        {
          "indexed": true,
          "internalType": "address",
          "name": "proxy",
          "type": "address"
        },
        {
          "indexed": false,
          "internalType": "address",
          "name": "acl",
          "type": "address"
        }
      ],
      "name": "ProxyAccessControlUpdated",
      "type": "event"
    },
    {
      "anonymous": false,
      "inputs": [
        {
          "indexed": true,
          "internalType": "address",
          "name": "sender",
          "type": "address"
        },
        {
          "indexed": true,
          "internalType": "address",
          "name": "proxy",
          "type": "address"
        },
        {
          "indexed": false,
          "internalType": "address",
          "name": "newAdmin",
          "type": "address"
        }
      ],
      "name": "ProxyLocalAdminUpdated",
      "type": "event"
    },
    {
      "anonymous": false,
      "inputs": [
        {
          "indexed": true,
          "internalType": "address",
          "name": "sender",
          "type": "address"
        },
        {
          "indexed": true,
          "internalType": "address",
          "name": "proxy",
          "type": "address"
        },
        {
          "indexed": false,
          "internalType": "enum IBaseProxy.ProxySafeModeStatus",
          "name": "sstat",
          "type": "uint8"
        }
      ],
      "name": "ProxySafeModeUpdated",
      "type": "event"
    },
    {
      "anonymous": false,
      "inputs": [
        {
          "indexed": true,
          "internalType": "address",
          "name": "sender",
          "type": "address"
        },
        {
          "indexed": true,
          "internalType": "address",
          "name": "proxy",
          "type": "address"
        },
        {
          "indexed": false,
          "internalType": "enum IBaseProxy.ProxyUpdatabilityStatus",
          "name": "ustat",
          "type": "uint8"
        }
      ],
      "name": "ProxyUpdatabilityUpdated",
      "type": "event"
    },
    {
      "anonymous": false,
      "inputs": [
        {
          "indexed": true,
          "internalType": "address",
          "name": "sender",
          "type": "address"
        },
        {
          "indexed": true,
          "internalType": "address",
          "name": "proxy",
          "type": "address"
        },
        {
          "indexed": true,
          "internalType": "address",
          "name": "newImplementation",
          "type": "address"
        }
      ],
      "name": "ProxyUpgraded",
      "type": "event"
    },
    {
      "stateMutability": "payable",
      "type": "fallback"
    },
    {
      "inputs": [],
      "name": "CTX_MESSAGE_TYPEHASH",
      "outputs": [
        {
          "internalType": "bytes32",
          "name": "",
          "type": "bytes32"
        }
      ],
      "stateMutability": "view",
      "type": "function"
    },
    {
      "inputs": [],
      "name": "MEMBER_SIGNATURE_MESSAGE_TYPEHASH",
      "outputs": [
        {
          "internalType": "bytes32",
          "name": "",
          "type": "bytes32"
        }
      ],
      "stateMutability": "view",
      "type": "function"
    },
    {
      "inputs": [],
      "name": "PREDICT_CTX_MESSAGE_TYPEHASH",
      "outputs": [
        {
          "internalType": "bytes32",
          "name": "",
          "type": "bytes32"
        }
      ],
      "stateMutability": "view",
      "type": "function"
    },
    {
      "inputs": [],
      "name": "PROFILE_CTX_MESSAGE_TYPEHASH",
      "outputs": [
        {
          "internalType": "bytes32",
          "name": "",
          "type": "bytes32"
        }
      ],
      "stateMutability": "view",
      "type": "function"
    },
    {
      "inputs": [],
      "name": "PROFILE_MEMBER_SIGNATURE_MESSAGE_TYPEHASH",
      "outputs": [
        {
          "internalType": "bytes32",
          "name": "",
          "type": "bytes32"
        }
      ],
      "stateMutability": "view",
      "type": "function"
    },
    {
      "inputs": [],
      "name": "PROFILE_PREDICT_CTX_MESSAGE_TYPEHASH",
      "outputs": [
        {
          "internalType": "bytes32",
          "name": "",
          "type": "bytes32"
        }
      ],
      "stateMutability": "view",
      "type": "function"
    },
    {
      "inputs": [],
      "name": "TYPE_HASH",
      "outputs": [
        {
          "internalType": "bytes32",
          "name": "",
          "type": "bytes32"
        }
      ],
      "stateMutability": "view",
      "type": "function"
    },
    {
      "inputs": [],
      "name": "accessControlManager",
      "outputs": [
        {
          "internalType": "address",
          "name": "",
          "type": "address"
        }
      ],
      "stateMutability": "view",
      "type": "function"
    },
    {
      "inputs": [],
      "name": "contractName",
      "outputs": [
        {
          "internalType": "string",
          "name": "",
          "type": "string"
        }
      ],
      "stateMutability": "view",
      "type": "function"
    },
    {
      "inputs": [],
      "name": "contractVersion",
      "outputs": [
        {
          "internalType": "string",
          "name": "",
          "type": "string"
        }
      ],
      "stateMutability": "view",
      "type": "function"
    },
    {
      "inputs": [],
      "name": "domainSeparator",
      "outputs": [
        {
          "internalType": "bytes32",
          "name": "",
          "type": "bytes32"
        }
      ],
      "stateMutability": "view",
      "type": "function"
    },
    {
      "inputs": [],
      "name": "getLibrary",
      "outputs": [
        {
          "internalType": "address",
          "name": "",
          "type": "address"
        }
      ],
      "stateMutability": "pure",
      "type": "function"
    },
    {
      "inputs": [],
      "name": "initVersion",
      "outputs": [
        {
          "internalType": "uint16",
          "name": "",
          "type": "uint16"
        }
      ],
      "stateMutability": "view",
      "type": "function"
    },
    {
      "inputs": [
        {
          "internalType": "string",
          "name": "contractName",
          "type": "string"
        },
        {
          "internalType": "string",
          "name": "contractVersion",
          "type": "string"
        },
        {
          "internalType": "address",
          "name": "accessControlManager",
          "type": "address"
        }
      ],
      "name": "initialize",
      "outputs": [],
      "stateMutability": "nonpayable",
      "type": "function"
    },
    {
      "inputs": [],
      "name": "localAdmin",
      "outputs": [
        {
          "internalType": "address",
          "name": "",
          "type": "address"
        }
      ],
      "stateMutability": "view",
      "type": "function"
    },
    {
      "inputs": [
        {
          "internalType": "address",
          "name": "account",
          "type": "address"
        }
      ],
      "name": "memberCheckAccount",
      "outputs": [
        {
          "internalType": "bool",
          "name": "",
          "type": "bool"
        }
      ],
      "stateMutability": "view",
      "type": "function"
    },
    {
      "inputs": [
        {
          "internalType": "bytes32",
          "name": "memberId",
          "type": "bytes32"
        },
        {
          "internalType": "address",
          "name": "account",
          "type": "address"
        }
      ],
      "name": "memberCheckAdmin",
      "outputs": [
        {
          "internalType": "bool",
          "name": "",
          "type": "bool"
        }
      ],
      "stateMutability": "view",
      "type": "function"
    },
    {
      "inputs": [
        {
          "internalType": "bytes32",
          "name": "memberId",
          "type": "bytes32"
        }
      ],
      "name": "memberCheckId",
      "outputs": [
        {
          "internalType": "bool",
          "name": "",
          "type": "bool"
        }
      ],
      "stateMutability": "view",
      "type": "function"
    },
    {
      "inputs": [
        {
          "internalType": "bytes32",
          "name": "memberId",
          "type": "bytes32"
        }
      ],
      "name": "memberGetInfo",
      "outputs": [
        {
          "components": [
            {
              "internalType": "bytes32",
              "name": "adminId",
              "type": "bytes32"
            },
            {
              "internalType": "address",
              "name": "account",
              "type": "address"
            },
            {
              "components": [
                {
                  "internalType": "uint24",
                  "name": "memberLimit",
                  "type": "uint24"
                },
                {
                  "internalType": "uint16",
                  "name": "memberRegisterLimit",
                  "type": "uint16"
                },
                {
                  "internalType": "uint16",
                  "name": "contextRegisterLimit",
                  "type": "uint16"
                },
                {
                  "internalType": "uint16",
                  "name": "functionRegisterLimit",
                  "type": "uint16"
                },
                {
                  "internalType": "uint16",
                  "name": "profileRegisterLimit",
                  "type": "uint16"
                },
                {
                  "internalType": "uint16",
                  "name": "contextLimit",
                  "type": "uint16"
                },
                {
                  "internalType": "uint16",
                  "name": "realmLimit",
                  "type": "uint16"
                },
                {
                  "internalType": "uint16",
                  "name": "domainLimit",
                  "type": "uint16"
                },
                {
                  "internalType": "uint16",
                  "name": "callLimit",
                  "type": "uint16"
                },
                {
                  "internalType": "uint16",
                  "name": "typeRoleLimit",
                  "type": "uint16"
                },
                {
                  "internalType": "uint16",
                  "name": "typeLimit",
                  "type": "uint16"
                },
                {
                  "internalType": "uint8",
                  "name": "roleRegisterLimit",
                  "type": "uint8"
                },
                {
                  "internalType": "uint8",
                  "name": "typeRegisterLimit",
                  "type": "uint8"
                },
                {
                  "internalType": "uint8",
                  "name": "realmRegisterLimit",
                  "type": "uint8"
                },
                {
                  "internalType": "uint8",
                  "name": "domainRegisterLimit",
                  "type": "uint8"
                },
                {
                  "internalType": "uint8",
                  "name": "policyRegisterLimit",
                  "type": "uint8"
                },
                {
                  "internalType": "uint8",
                  "name": "policyRoleLimit",
                  "type": "uint8"
                },
                {
                  "internalType": "uint8",
                  "name": "functionLimit",
                  "type": "uint8"
                }
              ],
              "internalType": "struct IACLCommons.GeneralLimit",
              "name": "limits",
              "type": "tuple"
            },
            {
              "internalType": "uint16",
              "name": "typeCount",
              "type": "uint16"
            },
            {
              "internalType": "enum IACLCommons.AgentType",
              "name": "adminType",
              "type": "uint8"
            },
            {
              "internalType": "enum IACLCommons.AgentType",
              "name": "atype",
              "type": "uint8"
            },
            {
              "internalType": "enum IACLCommons.ActivityStatus",
              "name": "acstat",
              "type": "uint8"
            },
            {
              "internalType": "enum IACLCommons.AlterabilityStatus",
              "name": "alstat",
              "type": "uint8"
            }
          ],
          "internalType": "struct IMemberManagement.MemberInfo",
          "name": "",
          "type": "tuple"
        }
      ],
      "stateMutability": "view",
      "type": "function"
    },
    {
      "inputs": [
        {
          "internalType": "bytes32",
          "name": "memberId",
          "type": "bytes32"
        }
      ],
      "name": "memberGetTypes",
      "outputs": [
        {
          "internalType": "bytes32[]",
          "name": "",
          "type": "bytes32[]"
        }
      ],
      "stateMutability": "view",
      "type": "function"
    },
    {
      "inputs": [
        {
          "internalType": "bytes32",
          "name": "memberId",
          "type": "bytes32"
        },
        {
          "internalType": "bytes32",
          "name": "typeId",
          "type": "bytes32"
        }
      ],
      "name": "memberHasType",
      "outputs": [
        {
          "internalType": "bool",
          "name": "",
          "type": "bool"
        }
      ],
      "stateMutability": "view",
      "type": "function"
    },
    {
      "inputs": [
        {
          "components": [
            {
              "internalType": "address",
              "name": "account",
              "type": "address"
            },
            {
              "internalType": "uint64",
              "name": "expiredAt",
              "type": "uint64"
            },
            {
              "internalType": "bytes",
              "name": "signature",
              "type": "bytes"
            }
          ],
          "internalType": "struct IACLCommons.MemberSignature",
          "name": "memberSign",
          "type": "tuple"
        },
        {
          "components": [
            {
              "internalType": "bytes32",
              "name": "roleId",
              "type": "bytes32"
            },
            {
              "internalType": "bytes32",
              "name": "adminId",
              "type": "bytes32"
            },
            {
              "internalType": "address",
              "name": "account",
              "type": "address"
            },
            {
              "components": [
                {
                  "internalType": "uint24",
                  "name": "memberLimit",
                  "type": "uint24"
                },
                {
                  "internalType": "uint16",
                  "name": "memberRegisterLimit",
                  "type": "uint16"
                },
                {
                  "internalType": "uint16",
                  "name": "contextRegisterLimit",
                  "type": "uint16"
                },
                {
                  "internalType": "uint16",
                  "name": "functionRegisterLimit",
                  "type": "uint16"
                },
                {
                  "internalType": "uint16",
                  "name": "profileRegisterLimit",
                  "type": "uint16"
                },
                {
                  "internalType": "uint16",
                  "name": "contextLimit",
                  "type": "uint16"
                },
                {
                  "internalType": "uint16",
                  "name": "realmLimit",
                  "type": "uint16"
                },
                {
                  "internalType": "uint16",
                  "name": "domainLimit",
                  "type": "uint16"
                },
                {
                  "internalType": "uint16",
                  "name": "callLimit",
                  "type": "uint16"
                },
                {
                  "internalType": "uint16",
                  "name": "typeRoleLimit",
                  "type": "uint16"
                },
                {
                  "internalType": "uint16",
                  "name": "typeLimit",
                  "type": "uint16"
                },
                {
                  "internalType": "uint8",
                  "name": "roleRegisterLimit",
                  "type": "uint8"
                },
                {
                  "internalType": "uint8",
                  "name": "typeRegisterLimit",
                  "type": "uint8"
                },
                {
                  "internalType": "uint8",
                  "name": "realmRegisterLimit",
                  "type": "uint8"
                },
                {
                  "internalType": "uint8",
                  "name": "domainRegisterLimit",
                  "type": "uint8"
                },
                {
                  "internalType": "uint8",
                  "name": "policyRegisterLimit",
                  "type": "uint8"
                },
                {
                  "internalType": "uint8",
                  "name": "policyRoleLimit",
                  "type": "uint8"
                },
                {
                  "internalType": "uint8",
                  "name": "functionLimit",
                  "type": "uint8"
                }
              ],
              "internalType": "struct IACLCommons.GeneralLimit",
              "name": "limits",
              "type": "tuple"
            },
            {
              "internalType": "enum IACLCommons.ActivityStatus",
              "name": "acstat",
              "type": "uint8"
            },
            {
              "internalType": "enum IACLCommons.AlterabilityStatus",
              "name": "alstat",
              "type": "uint8"
            }
          ],
          "internalType": "struct IMemberManagement.MemberRegisterRequest[]",
          "name": "requests",
          "type": "tuple[]"
        }
      ],
      "name": "memberRegister",
      "outputs": [
        {
          "internalType": "bool",
          "name": "",
          "type": "bool"
        }
      ],
      "stateMutability": "nonpayable",
      "type": "function"
    },
    {
      "inputs": [
        {
          "components": [
            {
              "internalType": "address",
              "name": "account",
              "type": "address"
            },
            {
              "internalType": "uint64",
              "name": "expiredAt",
              "type": "uint64"
            },
            {
              "internalType": "bytes",
              "name": "signature",
              "type": "bytes"
            }
          ],
          "internalType": "struct IACLCommons.MemberSignature",
          "name": "memberSign",
          "type": "tuple"
        },
        {
          "internalType": "bytes32[]",
          "name": "members",
          "type": "bytes32[]"
        }
      ],
      "name": "memberRemove",
      "outputs": [
        {
          "internalType": "bool",
          "name": "",
          "type": "bool"
        }
      ],
      "stateMutability": "nonpayable",
      "type": "function"
    },
    {
      "inputs": [
        {
          "components": [
            {
              "internalType": "address",
              "name": "account",
              "type": "address"
            },
            {
              "internalType": "uint64",
              "name": "expiredAt",
              "type": "uint64"
            },
            {
              "internalType": "bytes",
              "name": "signature",
              "type": "bytes"
            }
          ],
          "internalType": "struct IACLCommons.MemberSignature",
          "name": "memberSign",
          "type": "tuple"
        },
        {
          "components": [
            {
              "internalType": "bytes32",
              "name": "id",
              "type": "bytes32"
            },
            {
              "internalType": "enum IACLCommons.ActivityStatus",
              "name": "acstat",
              "type": "uint8"
            }
          ],
          "internalType": "struct IACLCommons.UpdateActivityRequest[]",
          "name": "requests",
          "type": "tuple[]"
        }
      ],
      "name": "memberUpdateActivityStatus",
      "outputs": [
        {
          "internalType": "bool",
          "name": "",
          "type": "bool"
        }
      ],
      "stateMutability": "nonpayable",
      "type": "function"
    },
    {
      "inputs": [
        {
          "components": [
            {
              "internalType": "address",
              "name": "account",
              "type": "address"
            },
            {
              "internalType": "uint64",
              "name": "expiredAt",
              "type": "uint64"
            },
            {
              "internalType": "bytes",
              "name": "signature",
              "type": "bytes"
            }
          ],
          "internalType": "struct IACLCommons.MemberSignature",
          "name": "memberSign",
          "type": "tuple"
        },
        {
          "components": [
            {
              "internalType": "bytes32",
              "name": "id",
              "type": "bytes32"
            },
            {
              "internalType": "bytes32",
              "name": "adminId",
              "type": "bytes32"
            }
          ],
          "internalType": "struct IACLCommons.UpdateAdminRequest[]",
          "name": "requests",
          "type": "tuple[]"
        }
      ],
      "name": "memberUpdateAdmin",
      "outputs": [
        {
          "internalType": "bool",
          "name": "",
          "type": "bool"
        }
      ],
      "stateMutability": "nonpayable",
      "type": "function"
    },
    {
      "inputs": [
        {
          "components": [
            {
              "internalType": "address",
              "name": "account",
              "type": "address"
            },
            {
              "internalType": "uint64",
              "name": "expiredAt",
              "type": "uint64"
            },
            {
              "internalType": "bytes",
              "name": "signature",
              "type": "bytes"
            }
          ],
          "internalType": "struct IACLCommons.MemberSignature",
          "name": "memberSign",
          "type": "tuple"
        },
        {
          "components": [
            {
              "internalType": "bytes32",
              "name": "id",
              "type": "bytes32"
            },
            {
              "internalType": "enum IACLCommons.AlterabilityStatus",
              "name": "alstat",
              "type": "uint8"
            }
          ],
          "internalType": "struct IACLCommons.UpdateAlterabilityRequest[]",
          "name": "requests",
          "type": "tuple[]"
        }
      ],
      "name": "memberUpdateAlterabilityStatus",
      "outputs": [
        {
          "internalType": "bool",
          "name": "",
          "type": "bool"
        }
      ],
      "stateMutability": "nonpayable",
      "type": "function"
    },
    {
      "inputs": [
        {
          "components": [
            {
              "internalType": "address",
              "name": "account",
              "type": "address"
            },
            {
              "internalType": "uint64",
              "name": "expiredAt",
              "type": "uint64"
            },
            {
              "internalType": "bytes",
              "name": "signature",
              "type": "bytes"
            }
          ],
          "internalType": "struct IACLCommons.MemberSignature",
          "name": "memberSign",
          "type": "tuple"
        },
        {
          "components": [
            {
              "internalType": "bytes32",
              "name": "memberId",
              "type": "bytes32"
            },
            {
              "components": [
                {
                  "internalType": "uint24",
                  "name": "memberLimit",
                  "type": "uint24"
                },
                {
                  "internalType": "uint16",
                  "name": "memberRegisterLimit",
                  "type": "uint16"
                },
                {
                  "internalType": "uint16",
                  "name": "contextRegisterLimit",
                  "type": "uint16"
                },
                {
                  "internalType": "uint16",
                  "name": "functionRegisterLimit",
                  "type": "uint16"
                },
                {
                  "internalType": "uint16",
                  "name": "profileRegisterLimit",
                  "type": "uint16"
                },
                {
                  "internalType": "uint16",
                  "name": "contextLimit",
                  "type": "uint16"
                },
                {
                  "internalType": "uint16",
                  "name": "realmLimit",
                  "type": "uint16"
                },
                {
                  "internalType": "uint16",
                  "name": "domainLimit",
                  "type": "uint16"
                },
                {
                  "internalType": "uint16",
                  "name": "callLimit",
                  "type": "uint16"
                },
                {
                  "internalType": "uint16",
                  "name": "typeRoleLimit",
                  "type": "uint16"
                },
                {
                  "internalType": "uint16",
                  "name": "typeLimit",
                  "type": "uint16"
                },
                {
                  "internalType": "uint8",
                  "name": "roleRegisterLimit",
                  "type": "uint8"
                },
                {
                  "internalType": "uint8",
                  "name": "typeRegisterLimit",
                  "type": "uint8"
                },
                {
                  "internalType": "uint8",
                  "name": "realmRegisterLimit",
                  "type": "uint8"
                },
                {
                  "internalType": "uint8",
                  "name": "domainRegisterLimit",
                  "type": "uint8"
                },
                {
                  "internalType": "uint8",
                  "name": "policyRegisterLimit",
                  "type": "uint8"
                },
                {
                  "internalType": "uint8",
                  "name": "policyRoleLimit",
                  "type": "uint8"
                },
                {
                  "internalType": "uint8",
                  "name": "functionLimit",
                  "type": "uint8"
                }
              ],
              "internalType": "struct IACLCommons.GeneralLimit",
              "name": "limits",
              "type": "tuple"
            }
          ],
          "internalType": "struct IMemberManagement.MemberUpdateGeneralLimitRequest[]",
          "name": "requests",
          "type": "tuple[]"
        }
      ],
      "name": "memberUpdateGeneralLimit",
      "outputs": [
        {
          "internalType": "bool",
          "name": "",
          "type": "bool"
        }
      ],
      "stateMutability": "nonpayable",
      "type": "function"
    },
    {
      "inputs": [],
      "name": "proxiableUUID",
      "outputs": [
        {
          "internalType": "bytes32",
          "name": "",
          "type": "bytes32"
        }
      ],
      "stateMutability": "view",
      "type": "function"
    },
    {
      "inputs": [],
      "name": "safeModeStatus",
      "outputs": [
        {
          "internalType": "enum IBaseProxy.ProxySafeModeStatus",
          "name": "",
          "type": "uint8"
        }
      ],
      "stateMutability": "view",
      "type": "function"
    },
    {
      "inputs": [
        {
          "internalType": "address",
          "name": "acl",
          "type": "address"
        }
      ],
      "name": "setAccessControlManager",
      "outputs": [
        {
          "internalType": "bool",
          "name": "",
          "type": "bool"
        }
      ],
      "stateMutability": "nonpayable",
      "type": "function"
    },
    {
      "inputs": [
        {
          "internalType": "address",
          "name": "newLocalAdmin",
          "type": "address"
        }
      ],
      "name": "setLocalAdmin",
      "outputs": [
        {
          "internalType": "bool",
          "name": "",
          "type": "bool"
        }
      ],
      "stateMutability": "nonpayable",
      "type": "function"
    },
    {
      "inputs": [
        {
          "internalType": "enum IBaseProxy.ProxySafeModeStatus",
          "name": "sstat",
          "type": "uint8"
        }
      ],
      "name": "setSafeModeStatus",
      "outputs": [
        {
          "internalType": "bool",
          "name": "",
          "type": "bool"
        }
      ],
      "stateMutability": "nonpayable",
      "type": "function"
    },
    {
      "inputs": [
        {
          "internalType": "enum IBaseProxy.ProxyUpdatabilityStatus",
          "name": "ustat",
          "type": "uint8"
        }
      ],
      "name": "setUpdatabilityStatus",
      "outputs": [
        {
          "internalType": "bool",
          "name": "",
          "type": "bool"
        }
      ],
      "stateMutability": "nonpayable",
      "type": "function"
    },
    {
      "inputs": [],
      "name": "subjectAddress",
      "outputs": [
        {
          "internalType": "address",
          "name": "",
          "type": "address"
        }
      ],
      "stateMutability": "view",
      "type": "function"
    },
    {
      "inputs": [
        {
          "internalType": "bytes4",
          "name": "interfaceId",
          "type": "bytes4"
        }
      ],
      "name": "supportsInterface",
      "outputs": [
        {
          "internalType": "bool",
          "name": "",
          "type": "bool"
        }
      ],
      "stateMutability": "view",
      "type": "function"
    },
    {
      "inputs": [],
      "name": "updatabilityStatus",
      "outputs": [
        {
          "internalType": "enum IBaseProxy.ProxyUpdatabilityStatus",
          "name": "",
          "type": "uint8"
        }
      ],
      "stateMutability": "view",
      "type": "function"
    },
    {
      "inputs": [
        {
          "internalType": "address",
          "name": "newImplementation",
          "type": "address"
        },
        {
          "internalType": "bytes",
          "name": "data",
          "type": "bytes"
        },
        {
          "internalType": "bool",
          "name": "forceCall",
          "type": "bool"
        }
      ],
      "name": "upgradeTo",
      "outputs": [
        {
          "internalType": "bytes",
          "name": "",
          "type": "bytes"
        }
      ],
      "stateMutability": "nonpayable",
      "type": "function"
    },
    {
      "inputs": [
        {
          "internalType": "address",
          "name": "recepient",
          "type": "address"
        }
      ],
      "name": "withdrawBalance",
      "outputs": [
        {
          "internalType": "uint256",
          "name": "",
          "type": "uint256"
        }
      ],
      "stateMutability": "nonpayable",
      "type": "function"
    },
    {
      "stateMutability": "payable",
      "type": "receive"
    }
  ],
  "transactionHash": "0x0a61f05e30f5e792ed50c5d561936e6927c4a4ffb3925e010a525285b45fdf11",
  "args": [],
  "numDeployments": 1,
  "solcInputHash": "bf3d37f12163392c6a812b5af749abec",
  "bytecode": "0x60a0604052306080523480156200001557600080fd5b506200004360017f360894a13ba1a3210667c828492db98dca3e2076cc3735a920a3ca505d382bbd620000fd565b7f360894a13ba1a3210667c828492db98dca3e2076cc3735a920a3ca505d382bbc1462000074576200007462000125565b620000a160017fb53127684a568b3173ae13b9f8a6016e243e63b6e8ee1178d6a717850b5d6104620000fd565b600080516020620060ae83398151915214620000c157620000c162000125565b600080516020620060ae83398151915280546001600160a01b0319163317905560028054600160a01b61ffff60a01b199091161790556200013b565b818103818111156200011f57634e487b7160e01b600052601160045260246000fd5b92915050565b634e487b7160e01b600052600160045260246000fd5b608051615f03620001ab600039600081816107cf0152818161081801528181610a0701528181610a470152818161110301528181611169015281816111a90152818161245e0152818161249e01528181612658015281816126980152818161284c015261288c0152615f036000f3fe6080604052600436106102115760003560e01c806378e2e1fb11610117578063c051cc9a116100a5578063f698da251161006c578063f698da2514610703578063f708ceb014610718578063f94a0adb14610738578063fa3aa6711461074d578063fcc401781461077a57005b8063c051cc9a1461064f578063c5d2d8ff1461066f578063d9dc1f191461068f578063db3762cc146106af578063f0b15def146106cf57005b8063a0a8e460116100e9578063a0a8e460146105b0578063a304e353146105c5578063b4a0bdf3146105e4578063b879581414610602578063bc44c7021461062257005b806378e2e1fb1461051c5780638be959861461053c578063961788951461055c5780639b97b5341461057c57005b80633fb8ae051161019f57806364d4c8191161016657806364d4c8191461045f5780637147855d14610493578063756af45f146104c057806375d0c0dc146104e05780637678922e146104f557005b80633fb8ae05146103a15780634888f482146103c15780634bf0414d146103e957806352d1902d1461041d57806358dbc45d1461043257005b80631b452f4b116101e35780631b452f4b146102af5780632966b144146102f1578063301c12801461031157806334109de21461034557806338d38c971461037957005b806301ffc9a71461021a578063077f224a1461024f5780630e32cb861461026f5780631ac5b3721461028f57005b3661021857005b005b34801561022657600080fd5b5061023a610235366004614b80565b61079a565b60405190151581526020015b60405180910390f35b34801561025b57600080fd5b5061021861026a366004614c02565b6107c5565b34801561027b57600080fd5b5061023a61028a366004614c82565b6109fb565b34801561029b57600080fd5b5061023a6102aa366004614c9d565b610d09565b3480156102bb57600080fd5b506102e37f7bfb2abd6084c8ce20d7ff92c1620e7e7267603f0eac446b9176959d243306bc81565b604051908152602001610246565b3480156102fd57600080fd5b5061023a61030c366004614cc9565b610e65565b34801561031d57600080fd5b506102e37f541cf898e7c3085cbc6b7402ba06e7237285bc4bd5baa510e708e35537a71ffd81565b34801561035157600080fd5b506102e37f7aabe2571874f2a330ea11c8972d9cc3792d973efc6b36e3e29005861a34418881565b34801561038557600080fd5b5061038e610e96565b60405161ffff9091168152602001610246565b3480156103ad57600080fd5b5061023a6103bc366004614cfa565b610eaa565b3480156103cd57600080fd5b50600254600160a81b900460ff165b6040516102469190614dba565b3480156103f557600080fd5b506102e37f9027b951cbdf8eff67da583391d218a57a89ec1ebfcb1c66da188e8531804d5581565b34801561042957600080fd5b506102e36110f6565b34801561043e57600080fd5b50610447611153565b6040516001600160a01b039091168152602001610246565b34801561046b57600080fd5b506102e37f8b73c3c69bb8fe3d512ecc4cf759cc79239f7b179b0ffacaa9a75d522b39400f81565b34801561049f57600080fd5b506104b36104ae366004614dfc565b61115d565b6040516102469190614f1d565b3480156104cc57600080fd5b506102e36104db366004614c82565b6112bc565b3480156104ec57600080fd5b506104b3611381565b34801561050157600080fd5b507333969217bDF56df99b4735b455C42b79EC99d57b610447565b34801561052857600080fd5b5061023a610537366004614f30565b611413565b34801561054857600080fd5b5061023a610557366004614ffb565b611522565b34801561056857600080fd5b5061023a610577366004614ffb565b61176d565b34801561058857600080fd5b506102e37fdee69d384475c3656c17c592e94a2bbfd2a1998cce0c85f535569415a15863b881565b3480156105bc57600080fd5b506104b361194c565b3480156105d157600080fd5b50600254600160a01b900460ff166103dc565b3480156105f057600080fd5b506002546001600160a01b0316610447565b34801561060e57600080fd5b5061023a61061d366004614c82565b61195b565b34801561062e57600080fd5b5061064261063d366004614cc9565b6119bc565b6040516102469190615080565b34801561065b57600080fd5b5061023a61066a366004614ffb565b611d81565b34801561067b57600080fd5b5061023a61068a36600461526b565b611f74565b34801561069b57600080fd5b5061023a6106aa366004614c82565b612452565b3480156106bb57600080fd5b5061023a6106ca3660046152f1565b612608565b3480156106db57600080fd5b506102e37ffc434588684348dd50856b075c47bed14245c1030aa04c32955af5549981462781565b34801561070f57600080fd5b506102e3612642565b34801561072457600080fd5b5061023a610733366004615320565b61264c565b34801561074457600080fd5b506104476127f6565b34801561075957600080fd5b5061076d610768366004614cc9565b612800565b604051610246919061533d565b34801561078657600080fd5b5061023a610795366004615320565b612840565b60006001600160e01b031982166349b4d31560e01b14806107bf57506107bf826129cb565b92915050565b6001600160a01b037f00000000000000000000000000000000000000000000000000000000000000001630036108165760405162461bcd60e51b815260040161080d90615381565b60405180910390fd5b7f00000000000000000000000000000000000000000000000000000000000000006001600160a01b0316610848612a1b565b6001600160a01b03161461086e5760405162461bcd60e51b815260040161080d906153a7565b33610877612a3c565b6001600160a01b0316146108bd5760405162461bcd60e51b815260206004820152600d60248201526c1058d8d95cdcc811195b9a5959609a1b604482015260640161080d565b604e5462010000900460ff16158080156108df5750604e54600161ffff909116105b806108fa5750303b1580156108fa5750604e5461ffff166001145b6109465760405162461bcd60e51b815260206004820152601c60248201527f436f6e747261637420416c726561647920496e697469616c697a656400000000604482015260640161080d565b604e805461ffff19166001179055801561096c57604e805462ff00001916620100001790555b6109798686868686612a64565b610981612a1b565b6001600160a01b031630336001600160a01b03167f247ab7b17ee489fa140c6666edc3822eefed2727610cd6e37192462b87244c60898989896109c7604e5461ffff1690565b6040516109d89594939291906153f6565b60405180910390a480156109f357604e805462ff0000191690555b505050505050565b60006001600160a01b037f0000000000000000000000000000000000000000000000000000000000000000163003610a455760405162461bcd60e51b815260040161080d90615381565b7f00000000000000000000000000000000000000000000000000000000000000006001600160a01b0316610a77612a1b565b6001600160a01b031614610a9d5760405162461bcd60e51b815260040161080d906153a7565b6000600254600160a01b900460ff166001811115610abd57610abd614d94565b14610ada5760405162461bcd60e51b815260040161080d90615434565b6001600254600160a81b900460ff166001811115610afa57610afa614d94565b14610b175760405162461bcd60e51b815260040161080d90615456565b6001600160a01b03821615801590610b3857506001600160a01b0382163b15155b610b545760405162461bcd60e51b815260040161080d90615481565b6002546001600160a01b031615610bb3576000610b7763071965c360e11b612a78565b90506000816013811115610b8d57610b8d614d94565b14610bad5780604051637f0911d160e01b815260040161080d91906154ab565b50610c02565b33610bbc612a3c565b6001600160a01b031614610c025760405162461bcd60e51b815260206004820152600d60248201526c1058d8d95cdcc811195b9a5959609a1b604482015260640161080d565b6040516301ffc9a760e01b81526331501c3960e01b60048201526001600160a01b038316906301ffc9a790602401602060405180830381865afa158015610c4d573d6000803e3d6000fd5b505050506040513d601f19601f82011682018060405250810190610c7191906154bf565b610cab5760405162461bcd60e51b815260206004820152600b60248201526a125b1b1959d85b081050d360aa1b604482015260640161080d565b600280546001600160a01b0384166001600160a01b031990911681179091556040805191825251309133917f410bf468eebeeed60acaedb904afb2db7c0bb0131f7d14c3714d81b14fe8ed3c9181900360200190a35060015b919050565b6000600160008481526044602052604090206001015460ff166003811115610d3357610d33614d94565b14610d40575060006107bf565b6000838152604460205260408082205480835290822060010154909160ff90911690610d6b85612b03565b90506002826003811115610d8157610d81614d94565b03610dfe57600080610d94604486612b3d565b9150915080610dab576000955050505050506107bf565b600080610dc684600301546044612b9a90919063ffffffff16565b9150915080610ddf5760009750505050505050506107bf565b5060009384526005016020525050604090205490911491506107bf9050565b6003826003811115610e1257610e12614d94565b03610e5957600080610e25604486612b9a565b9150915080610e3c576000955050505050506107bf565b5060009182526005016020526040902054151592506107bf915050565b50600095945050505050565b6000600160008381526044602052604090206001015460ff166003811115610e8f57610e8f614d94565b1492915050565b6000610ea5604e5461ffff1690565b905090565b6000808080610ec087633fb8ae0560e01b612bb1565b919450925090506000610ed4604484612dcc565b905060005b868110156110e5576000610f0a898984818110610ef857610ef86154dc565b90506102600201600001358688612ea9565b9050610f1881600401612f2c565b898984818110610f2a57610f2a6154dc565b610f46926101806102609092020190810191506101600161550d565b61ffff1611610f8b5760405162461bcd60e51b8152602060048201526011602482015270125b1b1959d85b08151e5c19531a5b5a5d607a1b604482015260640161080d565b6040517f545950452e4c4956454c595f56455253452e4c4956454c595f4d4153544552006020820152610fe490603f015b6040516020818303038152906040528051906020012082600401612f3690919063ffffffff16565b1580156110005750610ffe604051602001610fbc9061552a565b155b1561102a5761102a838a8a8581811061101b5761101b6154dc565b90506102600201602001612f4e565b88888381811061103c5761103c6154dc565b9050610260020160200181600301818161105691906155a9565b90505088888381811061106b5761106b6154dc565b9050610260020160000135846001600160a01b03167fdefb26be73b29f71b327c0b82dd3347dbeeb918a65f4aae4a384c42f94cd9a278b8b868181106110b3576110b36154dc565b905061026002016020016040516110ca9190615a86565b60405180910390a350806110dd81615aab565b915050610ed9565b5060019450505050505b9392505050565b6000306001600160a01b037f000000000000000000000000000000000000000000000000000000000000000016146111405760405162461bcd60e51b815260040161080d90615381565b50600080516020615eae83398151915290565b6000610ea5612a1b565b60606001600160a01b037f00000000000000000000000000000000000000000000000000000000000000001630036111a75760405162461bcd60e51b815260040161080d90615381565b7f00000000000000000000000000000000000000000000000000000000000000006001600160a01b03166111d9612a1b565b6001600160a01b0316146111ff5760405162461bcd60e51b815260040161080d906153a7565b6000600254600160a01b900460ff16600181111561121f5761121f614d94565b1461123c5760405162461bcd60e51b815260040161080d90615434565b6001600254600160a81b900460ff16600181111561125c5761125c614d94565b146112795760405162461bcd60e51b815260040161080d90615456565b6001600160a01b0384163b6112a05760405162461bcd60e51b815260040161080d90615481565b6112a984612fb3565b6112b4848484613051565b949350505050565b600080600254600160a01b900460ff1660018111156112dd576112dd614d94565b146112fa5760405162461bcd60e51b815260040161080d90615434565b600061130c63756af45f60e01b612a78565b9050600081601381111561132257611322614d94565b146113425780604051637f0911d160e01b815260040161080d91906154ab565b60405147906001600160a01b038516904780156108fc02916000818181858888f19350505050158015611379573d6000803e3d6000fd5b509392505050565b60606000805461139090615ac4565b80601f01602080910402602001604051908101604052809291908181526020018280546113bc90615ac4565b80156114095780601f106113de57610100808354040283529160200191611409565b820191906000526020600020905b8154815290600101906020018083116113ec57829003601f168201915b5050505050905090565b6000808080611429876378e2e1fb60e01b612bb1565b91945092509050600061143d604484612dcc565b600381015490915060009061146290600189900b906301000000900461ffff16615af8565b60030b12156114ab5760405162461bcd60e51b8152602060048201526015602482015274125b1b1959d85b08149959da5cdd195c931a5b5a5d605a1b604482015260640161080d565b60005b868110156114ed576114db8888838181106114cb576114cb6154dc565b90506102e0020183878787613209565b806114e581615aab565b9150506114ae565b50600301805461ffff630100000080830482168990039091160264ffff00000019909116179055506001925050509392505050565b6000808080611538876345f4acc360e11b612bb1565b92509250925060005b8581101561175f576000611571888884818110611560576115606154dc565b905060400201600001358587612ea9565b90506115bc60405160200161158590615b1f565b604051602081830303815290604052805190602001208989858181106115ad576115ad6154dc565b9050604002016000013561386d565b156115fa5760405162461bcd60e51b815260206004820152600e60248201526d24b63632b3b0b61026b2b6b132b960911b604482015260640161080d565b600188888481811061160e5761160e6154dc565b90506040020160200160208101906116269190615b63565b600381111561163757611637614d94565b116116775760405162461bcd60e51b815260206004820152601060248201526f496c6c6567616c20416374697669747960801b604482015260640161080d565b878783818110611689576116896154dc565b90506040020160200160208101906116a19190615b63565b60018201805461ff0019166101008360038111156116c1576116c1614d94565b02179055508787838181106116d8576116d86154dc565b90506040020160000135836001600160a01b03167f06b789b822e2581aa4e79c81b84ed1ccc1a5c2741e97b3d74e0e7e980480bca28a8a8681811061171f5761171f6154dc565b90506040020160200160208101906117379190615b63565b6040516117449190615b80565b60405180910390a3508061175781615aab565b915050611541565b506001979650505050505050565b600080808061178387639617889560e01b612bb1565b92509250925060005b8581101561175f5760006117ab888884818110611560576115606154dc565b905060008888848181106117c1576117c16154dc565b90506040020160200135146118a15760006044818a8a868181106117e7576117e76154dc565b90506040020160200135815260200190815260200160002090506001600381111561181457611814614d94565b600182015460ff16600381111561182d5761182d614d94565b116118745760405162461bcd60e51b8152602060048201526017602482015276496c6c6567616c2041646d696e204167656e745479706560481b604482015260640161080d565b888884818110611886576118866154dc565b905060400201602001358260000160000181905550506118cb565b6040516020016118b09061552a565b60408051601f19818403018152919052805160209091012081555b8787838181106118dd576118dd6154dc565b905060400201602001358888848181106118f9576118f96154dc565b90506040020160000135846001600160a01b03167fd2e065bcd4d1c7b0bbb6c1d8f35c9bbb6d0e839a05ef546391707ce17f3eb01a60405160405180910390a4508061194481615aab565b91505061178c565b60606001805461139090615ac4565b600060016040516001600160601b0319606085901b16602082015260449060009060340160408051601f198184030181529181528151602092830120835290820192909252016000206001015460ff166003811115610e8f57610e8f614d94565b611a8f60408051610100808201835260008083526020808401829052845161024081018652828152908101829052808501829052606081018290526080810182905260a0810182905260c0810182905260e0810182905291820181905261012082018190526101408201819052610160820181905261018082018190526101a082018190526101c082018190526101e08201819052610200820181905261022082015290918201908152600060208201819052604090910190815260200160008152602001600081526020016000905290565b600080611a9d6044856138de565b9150915080611b7a57604080516101008082018352600080835260208084018290528451610240810186528281529081018290528085018290526060808201839052608080830184905260a0830184905260c0830184905260e0830184905293820183905261012082018390526101408201839052610160820183905261018082018390526101a082018390526101c082018390526101e0820183905261020082018390526102208201839052948401529282018390529091908201908152602001600081526020016000815260200160005b9052949350505050565b6040805161010080820183528454825260028501546001600160a01b0316602080840191909152835161024081018552600387015462ffffff8116825261ffff63010000008204811693830193909352650100000000008104831682870152670100000000000000810483166060808401919091526901000000000000000000820484166080840152600160581b8204841660a0840152600160681b8204841660c0840152600160781b8204841660e0840152600160881b8204841694830194909452600160981b81048316610120830152600160a81b810490921661014082015260ff600160b81b83048116610160830152600160c01b83048116610180830152600160c81b830481166101a0830152600160d01b830481166101c0830152600160d81b830481166101e0830152600160e01b83048116610200830152600160e81b90920490911661022082015292820192909252908101611cdf60048501612f2c565b61ffff168152835460009081526044602090815260409091206001015491019060ff166003811115611d1357611d13614d94565b8152600184015460209091019060ff166003811115611d3457611d34614d94565b81526001840154602090910190610100900460ff166003811115611d5a57611d5a614d94565b8152600184015460209091019062010000900460ff166003811115611b7057611b70614d94565b6000808080611d9787636028e64d60e11b612bb1565b92509250925060005b8581101561175f576000611dd0888884818110611dbf57611dbf6154dc565b604492604090910201359050612dcc565b8054909150600090611de39086886138f5565b90506000816007811115611df957611df9614d94565b14611e0757611e0781613981565b6000898985818110611e1b57611e1b6154dc565b9050604002016020016020810190611e339190615b63565b6003811115611e4457611e44614d94565b03611e885760405162461bcd60e51b8152602060048201526014602482015273496c6c6567616c20416c7465726162696c69747960601b604482015260640161080d565b888884818110611e9a57611e9a6154dc565b9050604002016020016020810190611eb29190615b63565b60018301805462ff0000191662010000836003811115611ed457611ed4614d94565b0217905550888884818110611eeb57611eeb6154dc565b90506040020160000135846001600160a01b03167f824333a0ecff9cffe8512433ee440baab06dfb39a89a27b048c8143bbc18d9fb8b8b87818110611f3257611f326154dc565b9050604002016020016020810190611f4a9190615b63565b604051611f579190615b80565b60405180910390a350508080611f6c90615aab565b915050611da0565b6000808080611f8a8763c5d2d8ff60e01b612bb1565b92509250925060005b8581101561175f576000611fc9888884818110611fb257611fb26154dc565b905060200201356044612dcc90919063ffffffff16565b8054909150600090611fdc9086886138f5565b90506000816007811115611ff257611ff2614d94565b146120005761200081613981565b60005b61200f83600401612f2c565b8110801561201d5750601081105b156123195760006120316004850183613b18565b90506000612040604483613b24565b90506002600182015462010000900460ff16600381111561206357612063614d94565b10156120aa5760405162461bcd60e51b8152602060048201526016602482015275496c6c6567616c205479706520557064617461626c6560501b604482015260640161080d565b60008160050160008e8e8a8181106120c4576120c46154dc565b90506020020135815260200190815260200160002054905060006120f2826044613bfb90919063ffffffff16565b90506002600182015462010000900460ff16600381111561211557612115614d94565b101561215c5760405162461bcd60e51b8152602060048201526016602482015275496c6c6567616c20526f6c6520557064617461626c6560501b604482015260640161080d565b60405160200161216b90615b1f565b6040516020818303038152906040528051906020012082036121e05760058101546001630100000090910462ffffff16116121e05760405162461bcd60e51b8152602060048201526015602482015274496c6c6567616c204d656d626572205265766f6b6560581b604482015260640161080d565b60058101546301000000900462ffffff166122335760405162461bcd60e51b8152602060048201526013602482015272125b1b1959d85b0813595b58995c90dbdd5b9d606a1b604482015260640161080d565b6005808201805460001962ffffff6301000000808404821692909201160265ffffff00000019909116179055830160008f8f8b818110612275576122756154dc565b905060200201358152602001908152602001600020600090556122a48488600401613cd890919063ffffffff16565b50818e8e8a8181106122b8576122b86154dc565b905060200201358a6001600160a01b03167f785c010df3daed664e2629b2816294f5b470e752cd8a8ca9d16146f8a1996b68876040516122fa91815260200190565b60405180910390a450505050808061231190615aab565b915050612003565b5061232682600401612f2c565b6000036123dd57600080835560018301805462ffffff191690556002830180546001600160a01b03191690556003830180546001600160f01b0319169055600483019081816123758282614b4e565b5050505088888481811061238b5761238b6154dc565b90506020020135846001600160a01b03167ffe86beb9b4c7f7a6b9ab37078fa83c2ef4f4fe3b50582d82c897823c5791061660016040516123d0911515815260200190565b60405180910390a361243d565b8888848181106123ef576123ef6154dc565b90506020020135846001600160a01b03167ffe86beb9b4c7f7a6b9ab37078fa83c2ef4f4fe3b50582d82c897823c579106166000604051612434911515815260200190565b60405180910390a35b5050808061244a90615aab565b915050611f93565b60006001600160a01b037f000000000000000000000000000000000000000000000000000000000000000016300361249c5760405162461bcd60e51b815260040161080d90615381565b7f00000000000000000000000000000000000000000000000000000000000000006001600160a01b03166124ce612a1b565b6001600160a01b0316146124f45760405162461bcd60e51b815260040161080d906153a7565b6000600254600160a01b900460ff16600181111561251457612514614d94565b146125315760405162461bcd60e51b815260040161080d90615434565b6001600254600160a81b900460ff16600181111561255157612551614d94565b1461256e5760405162461bcd60e51b815260040161080d90615456565b600061258063d9dc1f1960e01b612a78565b9050600081601381111561259657612596614d94565b146125b65780604051637f0911d160e01b815260040161080d91906154ab565b6001600160a01b0383166125f65760405162461bcd60e51b8152602060048201526007602482015266125b9d985b1a5960ca1b604482015260640161080d565b6125ff83613ce4565b50600192915050565b600080806126176044866138de565b9150915080156126375761262e6004830185612f36565b925050506107bf565b506000949350505050565b6000610ea5613d5b565b60006001600160a01b037f00000000000000000000000000000000000000000000000000000000000000001630036126965760405162461bcd60e51b815260040161080d90615381565b7f00000000000000000000000000000000000000000000000000000000000000006001600160a01b03166126c8612a1b565b6001600160a01b0316146126ee5760405162461bcd60e51b815260040161080d906153a7565b60006126fd604e5461ffff1690565b61ffff16116127395760405162461bcd60e51b81526020600482015260086024820152671393d5081253925560c21b604482015260640161080d565b600061274b630f708ceb60e41b612a78565b9050600081601381111561276157612761614d94565b146127815780604051637f0911d160e01b815260040161080d91906154ab565b6002805484919060ff60a01b1916600160a01b8360018111156127a6576127a6614d94565b021790555030336001600160a01b03167fc08ec585c25f1907baaab6f278c5994531a2e34c59935b3fcfe813067a3b4878856040516127e59190614dba565b60405180910390a350600192915050565b6000610ea5612a3c565b60606000806128106044856138de565b91509150806128345760408051600080825260208201909252905b50949350505050565b6112b482600401613e0f565b60006001600160a01b037f000000000000000000000000000000000000000000000000000000000000000016300361288a5760405162461bcd60e51b815260040161080d90615381565b7f00000000000000000000000000000000000000000000000000000000000000006001600160a01b03166128bc612a1b565b6001600160a01b0316146128e25760405162461bcd60e51b815260040161080d906153a7565b6000600254600160a01b900460ff16600181111561290257612902614d94565b1461291f5760405162461bcd60e51b815260040161080d90615434565b6000612931631f98802f60e31b612a78565b9050600081601381111561294757612947614d94565b146129675780604051637f0911d160e01b815260040161080d91906154ab565b6002805484919060ff60a81b1916600160a81b83600181111561298c5761298c614d94565b021790555030336001600160a01b03167ff5912c5e436152157ed2b4a84bc313b4b1fe09a15b941f195d23c99a1b8c45ad856040516127e59190614dba565b60006001600160e01b03198216633d817cff60e01b14806129fc57506001600160e01b031982166352d1902d60e01b145b806107bf57506301ffc9a760e01b6001600160e01b03198316146107bf565b6000600080516020615eae8339815191525b546001600160a01b0316919050565b60007fb53127684a568b3173ae13b9f8a6016e243e63b6e8ee1178d6a717850b5d6103612a2d565b612a718585858585613e1a565b5050505050565b6002546040805163172cb29d60e11b81523060048201526001600160e01b03198416602482015233604482015290516000926001600160a01b031691632e59653a916064808301926020929190829003018187875af1158015612adf573d6000803e3d6000fd5b505050506040513d601f19601f820116820180604052508101906107bf9190615b8d565b6040516001600160601b0319606083901b166020820152600090603401604051602081830303815290604052805190602001209050919050565b6000818152602083905260408120819060025b600182015460ff166003811115612b6957612b69614d94565b03612b8857604080518581526020810187905220925060019150612b92565b6000199250600091505b509250929050565b600081815260208390526040812081906003612b50565b6000808080306001600160a01b031663a304e3536040518163ffffffff1660e01b8152600401602060405180830381865afa158015612bf4573d6000803e3d6000fd5b505050506040513d601f19601f82011682018060405250810190612c189190615bae565b6001811115612c2957612c29614d94565b14612c465760405162461bcd60e51b815260040161080d90615434565b600080612c566040880188615bcb565b90501115612cea5742612c6f6040880160208901615c11565b6001600160401b031611612cb95760405162461bcd60e51b815260206004820152601160248201527045787069726564205369676e617475726560781b604482015260640161080d565b612ce3867fdee69d384475c3656c17c592e94a2bbfd2a1998cce0c85f535569415a15863b8613fe3565b9050612ced565b50335b6001600160e01b031985166000908152604a60205260408120546001600160a01b031690612d1b828861409b565b90506000612d2884612b03565b604051634902a91960e11b8152600481018490526024810182905290915060009030906392055232906044016020604051808303816000875af1158015612d73573d6000803e3d6000fd5b505050506040513d601f19601f82011682018060405250810190612d979190615b8d565b90506000816013811115612dad57612dad614d94565b14612dbb57612dbb816140e7565b509095509350909150509250925092565b600081815260208390526040812060018082015460ff166003811115612df457612df4614d94565b03612e0f576040805184815260208101869052209150612ea2565b6000600182015460ff166003811115612e2a57612e2a614d94565b03612e675760405162461bcd60e51b815260206004820152600d60248201526c13525108139bdd08119bdd5b99609a1b604482015260640161080d565b60405162461bcd60e51b815260206004820152601060248201526f125b1b1959d85b081352510814db1bdd60821b604482015260640161080d565b5092915050565b600080612eb7604486612dcc565b90506002600182015462010000900460ff166003811115612eda57612eda614d94565b1015612ef85760405162461bcd60e51b815260040161080d90615456565b8054600090612f089086866138f5565b90506000816007811115612f1e57612f1e614d94565b1461282b5761282b81613981565b60006107bf825490565b600081815260018301602052604081205415156110ef565b604051637cc3481760e11b81527333969217bDF56df99b4735b455C42b79EC99d57b9063f986902e90612f879085908590600401615c3a565b60006040518083038186803b158015612f9f57600080fd5b505af41580156109f3573d6000803e3d6000fd5b612fbb612a1b565b6001600160a01b0316816001600160a01b0316036130055760405162461bcd60e51b8152602060048201526007602482015266125b1b1959d85b60ca1b604482015260640161080d565b6000613017637147855d60e01b612a78565b9050600081601381111561302d5761302d614d94565b1461304d5780604051637f0911d160e01b815260040161080d91906154ab565b5050565b60607f4910fdfa16fed3260ed0e7147f7cc6da11a60208b5b9406d12a635614ffd91435460ff161561309b576130868461449c565b506040805160008152602081019091526110ef565b600080516020615eae83398151915260001b846001600160a01b03166352d1902d6040518163ffffffff1660e01b8152600401602060405180830381865afa1580156130eb573d6000803e3d6000fd5b505050506040513d601f19601f8201168201806040525081019061310f9190615c4f565b1461314b5760405162461bcd60e51b815260206004820152600c60248201526b496c6c6567616c205555505360a01b604482015260640161080d565b6040516301ffc9a760e01b8152633d817cff60e01b60048201526001600160a01b038516906301ffc9a790602401602060405180830381865afa158015613196573d6000803e3d6000fd5b505050506040513d601f19601f820116820180604052508101906131ba91906154bf565b6131f75760405162461bcd60e51b815260206004820152600e60248201526d496c6c6567616c204950726f787960901b604482015260640161080d565b6132028484846144cb565b90506110ef565b600061322361321e6060880160408901614c82565b612b03565b905060008082815260446020526040902060010154610100900460ff16600381111561325157613251614d94565b1461328e5760405162461bcd60e51b815260206004820152600d60248201526c105b1c9958591e48115e1a5cdd609a1b604482015260640161080d565b60016132a26101c088016101a0890161550d565b61ffff1610156132e85760405162461bcd60e51b8152602060048201526011602482015270125b1b1959d85b08151e5c19531a5b5a5d607a1b604482015260640161080d565b60016132fc6102c088016102a08901615b63565b600381111561330d5761330d614d94565b11801561333c575060006133296102e088016102c08901615b63565b600381111561333a5761333a614d94565b115b6133885760405162461bcd60e51b815260206004820152601d60248201527f496c6c6567616c2041637469766974792f416c7465726162696c697479000000604482015260640161080d565b6040517f545950452e4c4956454c595f56455253452e4c4956454c595f4d41535445520060208201526133e190603f015b6040516020818303038152906040528051906020012086600401612f3690919063ffffffff16565b1580156133fd57506133fb6040516020016133b99061552a565b155b1561340f5761340f8587606001612f4e565b600061341d60448835613bfb565b90506002600182015462010000900460ff16600381111561344057613440614d94565b10156134875760405162461bcd60e51b8152602060048201526016602482015275496c6c6567616c20526f6c6520557064617461626c6560501b604482015260640161080d565b600581015462ffffff6301000000820481169116116134db5760405162461bcd60e51b815260206004820152601060248201526f24b63632b3b0b6102932b3b4b9ba32b960811b604482015260640161080d565b60006134f582600301546044613b2490919063ffffffff16565b90506002600182015462010000900460ff16600381111561351857613518614d94565b101561355f5760405162461bcd60e51b8152602060048201526016602482015275496c6c6567616c205479706520557064617461626c6560501b604482015260640161080d565b815460009061356f9087896138f5565b9050600081600781111561358557613585614d94565b146135935761359381613981565b6000848152600583810160205260409091208a35905583018054600191906003906135cb9084906301000000900462ffffff16615c68565b92506101000a81548162ffffff021916908362ffffff16021790555060006135fd85604461452c90919063ffffffff16565b905060208a0135156136ef5760016020808c013560009081526044909152604090206001015460ff16600381111561363757613637614d94565b1161367e5760405162461bcd60e51b8152602060048201526017602482015276496c6c6567616c2041646d696e204167656e745479706560481b604482015260640161080d565b6136ad6040516020016136909061552a565b60405160208183030381529060405280519060200120888a6138f5565b915060008260078111156136c3576136c3614d94565b146136e3578160405163578978db60e01b815260040161080d9190615c84565b60208a01358155613719565b6040516020016136fe9061552a565b60408051601f19818403018152919052805160209091012081555b6001818101805460ff1916909117905561373b6102c08b016102a08c01615b63565b60018201805461ff00191661010083600381111561375b5761375b614d94565b02179055506137726102e08b016102c08c01615b63565b60018201805462ff000019166201000083600381111561379457613794614d94565b02179055506137a960608b0160408c01614c82565b6002820180546001600160a01b0319166001600160a01b039290921691909117905560038401546137de906004830190614592565b5060608a01600382016137f182826155a9565b50613804905060608b0160408c01614c82565b6001600160a01b031685876001600160a01b03167f04f920874e379439650f091dac01500fa81a584fb13d038eb312f5de34420f5b8d6000013585600001600001548f60600160405161385993929190615c98565b60405180910390a450505050505050505050565b6000808061387c604486612b3d565b9150915080613890576000925050506107bf565b6000806138ab84600301546044612b9a90919063ffffffff16565b91509150806138c15760009450505050506107bf565b506000948552600501602052505060409091205491909114919050565b600081815260208390526040812081906001612b50565b60405163ca37fa8560e01b8152604460048201819052602482018590528101839052606481018290526000907333969217bDF56df99b4735b455C42b79EC99d57b9063ca37fa8590608401602060405180830381865af415801561395d573d6000803e3d6000fd5b505050506040513d601f19601f820116820180604052508101906112b49190615cb4565b600181600781111561399557613995614d94565b036139b3576040516334267bfb60e11b815260040160405180910390fd5b60028160078111156139c7576139c7614d94565b036139e5576040516343f871e760e11b815260040160405180910390fd5b60038160078111156139f9576139f9614d94565b03613a1757604051639afb7c5f60e01b815260040160405180910390fd5b6004816007811115613a2b57613a2b614d94565b03613a49576040516332314d6b60e11b815260040160405180910390fd5b6005816007811115613a5d57613a5d614d94565b03613a7b57604051633123155560e01b815260040160405180910390fd5b6006816007811115613a8f57613a8f614d94565b03613aad57604051631b210af760e21b815260040160405180910390fd5b6007816007811115613ac157613ac1614d94565b03613adf576040516339f73ba360e11b815260040160405180910390fd5b60405162461bcd60e51b815260206004820152600b60248201526a2ab735b737bbb71022a92960a91b604482015260640161080d565b50565b60006110ef838361459e565b60008181526020839052604081206003600182015460ff166003811115613b4d57613b4d614d94565b03613b68576040805184815260208101869052209150612ea2565b6000600182015460ff166003811115613b8357613b83614d94565b03613bc05760405162461bcd60e51b815260206004820152600d60248201526c15125108139bdd08119bdd5b99609a1b604482015260640161080d565b60405162461bcd60e51b815260206004820152601060248201526f125b1b1959d85b081512510814db1bdd60821b604482015260640161080d565b60008181526020839052604081206002600182015460ff166003811115613c2457613c24614d94565b03613c3f576040805184815260208101869052209150612ea2565b6000600182015460ff166003811115613c5a57613c5a614d94565b03613c9a5760405162461bcd60e51b815260206004820152601060248201526f149bdb19525908139bdd08119bdd5b9960821b604482015260640161080d565b60405162461bcd60e51b8152602060048201526013602482015272125b1b1959d85b08149bdb1952590814db1bdd606a1b604482015260640161080d565b60006110ef83836145c8565b7fb53127684a568b3173ae13b9f8a6016e243e63b6e8ee1178d6a717850b5d610380546001600160a01b0383166001600160a01b031990911681179091556040805191825251309133917f63fdbed5f2909ec44e3becc51e9d29654ce1447747914e8a6ebc019e7f640b8b9181900360200190a350565b60007f8b73c3c69bb8fe3d512ecc4cf759cc79239f7b179b0ffacaa9a75d522b39400f6000604051602001613d909190615cd5565b604051602081830303815290604052805190602001206001604051602001613db89190615cd5565b60408051601f1981840301815282825280516020918201209083019490945281019190915260608101919091524660808201523060a082015260c00160405160208183030381529060405280519060200120905090565b60606107bf826146bb565b604e5462010000900460ff16613e725760405162461bcd60e51b815260206004820152601960248201527f436f6e7472616374204e6f7420496e697469616c697a696e6700000000000000604482015260640161080d565b6000613e7f858783615d96565b506001613e8d838583615d96565b506001600160a01b0381163014613f73576001600160a01b0381163b613ec55760405162461bcd60e51b815260040161080d90615481565b6040516301ffc9a760e01b81526331501c3960e01b60048201526001600160a01b038216906301ffc9a790602401602060405180830381865afa158015613f10573d6000803e3d6000fd5b505050506040513d601f19601f82011682018060405250810190613f3491906154bf565b613f6e5760405162461bcd60e51b815260206004820152600b60248201526a125b1b1959d85b081050d360aa1b604482015260640161080d565b613fbf565b613f836331501c3960e01b61079a565b613fbf5760405162461bcd60e51b815260206004820152600d60248201526c139bdd0814dd5c1c1bdc9d1959609a1b604482015260640161080d565b600280546001600160b01b0319166001600160a01b038316179055612a7133613ce4565b60006110ef613ff56040850185615bcb565b8080601f016020809104026020016040519081016040528093929190818152602001838380828437600092019190915250614096925086915061403d90506020880188614c82565b61404d6040890160208a01615c11565b6001600160401b0316604080516020808201959095526001600160a01b039390931683820152606080840192909252805180840390920182526080909201909152805191012090565b614717565b6040516001600160601b0319606084901b1660208201526001600160e01b0319821660348201526000906038015b60405160208183030381529060405280519060200120905092915050565b60018160138111156140fb576140fb614d94565b03614119576040516338bb798160e21b815260040160405180910390fd5b600281601381111561412d5761412d614d94565b0361414b57604051634f69231960e11b815260040160405180910390fd5b600381601381111561415f5761415f614d94565b0361417d57604051637e33e43360e01b815260040160405180910390fd5b600481601381111561419157614191614d94565b036141af57604051630287b9e560e51b815260040160405180910390fd5b60058160138111156141c3576141c3614d94565b036141e157604051633beb1f4d60e11b815260040160405180910390fd5b60068160138111156141f5576141f5614d94565b036142135760405163036c45ad60e51b815260040160405180910390fd5b600781601381111561422757614227614d94565b036142455760405163c0af595f60e01b815260040160405180910390fd5b600881601381111561425957614259614d94565b036142775760405163249eeb8960e01b815260040160405180910390fd5b600981601381111561428b5761428b614d94565b036142a9576040516311fb41e160e21b815260040160405180910390fd5b600a8160138111156142bd576142bd614d94565b036142db57604051637331e2bb60e01b815260040160405180910390fd5b600b8160138111156142ef576142ef614d94565b0361430d5760405163163099ab60e01b815260040160405180910390fd5b600c81601381111561432157614321614d94565b0361433f5760405163975a86e560e01b815260040160405180910390fd5b600d81601381111561435357614353614d94565b0361437157604051631140570360e21b815260040160405180910390fd5b600e81601381111561438557614385614d94565b036143a357604051630622823b60e31b815260040160405180910390fd5b600f8160138111156143b7576143b7614d94565b036143d557604051636d30058d60e11b815260040160405180910390fd5b60108160138111156143e9576143e9614d94565b03614407576040516304acbcf160e51b815260040160405180910390fd5b601181601381111561441b5761441b614d94565b0361443957604051636effd2d560e01b815260040160405180910390fd5b601281601381111561444d5761444d614d94565b0361446a57604051623f318960e21b815260040160405180910390fd5b601381601381111561447e5761447e614d94565b03613adf57604051634bc7b56f60e11b815260040160405180910390fd5b600080516020615eae83398151915280546001600160a01b0319166001600160a01b0392909216919091179055565b60606144d68461478c565b6000835111806144e35750815b156145165761320284846040518060400160405280600b81526020016a10d85b1b0811985a5b195960aa1b8152506147d0565b604080516000808252602082019092529061282b565b600081815260208390526040812081600182015460ff16600381111561455457614554614d94565b1480614577575060018082015460ff16600381111561457557614575614d94565b145b15612e67576040805184815260208101869052209150612ea2565b60006110ef838361489e565b60008260000182815481106145b5576145b56154dc565b9060005260206000200154905092915050565b600081815260018301602052604081205480156146b15760006145ec600183615e55565b855490915060009061460090600190615e55565b9050818114614665576000866000018281548110614620576146206154dc565b9060005260206000200154905080876000018481548110614643576146436154dc565b6000918252602080832090910192909255918252600188019052604090208390555b855486908061467657614676615e68565b6001900381819060005260206000200160009055905585600101600086815260200190815260200160002060009055600193505050506107bf565b60009150506107bf565b60608160000180548060200260200160405190810160405280929190818152602001828054801561470b57602002820191906000526020600020905b8154815260200190600101908083116146f7575b50505050509050919050565b600080614723836148ed565b9050600080614732838761495a565b9092509050600081600481111561474b5761474b614d94565b1461282b5760405162461bcd60e51b8152602060048201526011602482015270496c6c6567616c205369676e617475726560781b604482015260640161080d565b6147958161449c565b6040516001600160a01b03821690309033907f8ee0f2bd29c0e6a975c3cc2e47cf2e01b5f23a9a8a02e0ed6a5a070269de3d2d90600090a450565b60606001600160a01b0384163b6148295760405162461bcd60e51b815260206004820152601860248201527f496c6c6567616c20436f6e747261637420416464726573730000000000000000604482015260640161080d565b600080856001600160a01b0316856040516148449190615e7e565b600060405180830381855af49150503d806000811461487f576040519150601f19603f3d011682016040523d82523d6000602084013e614884565b606091505b50915091506148948282866149c8565b9695505050505050565b60008181526001830160205260408120546148e5575081546001818101845560008481526020808220909301849055845484825282860190935260409020919091556107bf565b5060006107bf565b60006107bf306001600160a01b031663f698da256040518163ffffffff1660e01b8152600401602060405180830381865afa158015614930573d6000803e3d6000fd5b505050506040513d601f19601f820116820180604052508101906149549190615c4f565b83614a01565b60008082516041036149905760208301516040840151606085015160001a61498487828585614a28565b945094505050506149c1565b82516040036149b957602083015160408401516149ae868383614b15565b9350935050506149c1565b506000905060025b9250929050565b606083156149d75750816110ef565b8251156149e75782518084602001fd5b8160405162461bcd60e51b815260040161080d9190614f1d565b60405161190160f01b602082015260228101839052604281018290526000906062016140c9565b6000807f7fffffffffffffffffffffffffffffff5d576e7357a4501ddfe92f46681b20a0831115614a5f5750600090506003614b0c565b8460ff16601b14158015614a7757508460ff16601c14155b15614a885750600090506004614b0c565b6040805160008082526020820180845289905260ff881692820192909252606081018690526080810185905260019060a0016020604051602081039080840390855afa158015614adc573d6000803e3d6000fd5b5050604051601f1901519150506001600160a01b038116614b0557600060019250925050614b0c565b9150600090505b94509492505050565b6000806001600160ff1b03831681614b3260ff86901c601b615e9a565b9050614b4087828885614a28565b935093505050935093915050565b5080546000825590600052602060002090810190613b1591905b80821115614b7c5760008155600101614b68565b5090565b600060208284031215614b9257600080fd5b81356001600160e01b0319811681146110ef57600080fd5b60008083601f840112614bbc57600080fd5b5081356001600160401b03811115614bd357600080fd5b6020830191508360208285010111156149c157600080fd5b80356001600160a01b0381168114610d0457600080fd5b600080600080600060608688031215614c1a57600080fd5b85356001600160401b0380821115614c3157600080fd5b614c3d89838a01614baa565b90975095506020880135915080821115614c5657600080fd5b50614c6388828901614baa565b9094509250614c76905060408701614beb565b90509295509295909350565b600060208284031215614c9457600080fd5b6110ef82614beb565b60008060408385031215614cb057600080fd5b82359150614cc060208401614beb565b90509250929050565b600060208284031215614cdb57600080fd5b5035919050565b600060608284031215614cf457600080fd5b50919050565b600080600060408486031215614d0f57600080fd5b83356001600160401b0380821115614d2657600080fd5b614d3287838801614ce2565b94506020860135915080821115614d4857600080fd5b818601915086601f830112614d5c57600080fd5b813581811115614d6b57600080fd5b87602061026083028501011115614d8157600080fd5b6020830194508093505050509250925092565b634e487b7160e01b600052602160045260246000fd5b60028110613b1557613b15614d94565b60208101614dc783614daa565b91905290565b634e487b7160e01b600052604160045260246000fd5b8015158114613b1557600080fd5b8035610d0481614de3565b600080600060608486031215614e1157600080fd5b614e1a84614beb565b925060208401356001600160401b0380821115614e3657600080fd5b818601915086601f830112614e4a57600080fd5b813581811115614e5c57614e5c614dcd565b604051601f8201601f19908116603f01168101908382118183101715614e8457614e84614dcd565b81604052828152896020848701011115614e9d57600080fd5b826020860160208301376000602084830101528096505050505050614ec460408501614df1565b90509250925092565b60005b83811015614ee8578181015183820152602001614ed0565b50506000910152565b60008151808452614f09816020860160208601614ecd565b601f01601f19169290920160200192915050565b6020815260006110ef6020830184614ef1565b600080600060408486031215614f4557600080fd5b83356001600160401b0380821115614f5c57600080fd5b614f6887838801614ce2565b94506020860135915080821115614f7e57600080fd5b818601915086601f830112614f9257600080fd5b813581811115614fa157600080fd5b8760206102e083028501011115614d8157600080fd5b60008083601f840112614fc957600080fd5b5081356001600160401b03811115614fe057600080fd5b6020830191508360208260061b85010111156149c157600080fd5b60008060006040848603121561501057600080fd5b83356001600160401b038082111561502757600080fd5b61503387838801614ce2565b9450602086013591508082111561504957600080fd5b5061505686828701614fb7565b9497909650939450505050565b60048110613b1557613b15614d94565b61507c81615063565b9052565b815181526020808301516001600160a01b03169082015260408083015180516103208401926150b6919085019062ffffff169052565b602081015161ffff8116606085015250604081015161ffff8116608085015250606081015161ffff811660a085015250608081015161ffff811660c08501525060a081015161ffff811660e08501525060c081015161010061511d8186018361ffff169052565b60e083015191506101206151368187018461ffff169052565b9083015191506101409061514f8683018461ffff169052565b83015191506101606151668682018461ffff169052565b9083015191506101809061517f8683018461ffff169052565b83015191506101a06151958682018460ff169052565b9083015191506101c0906151ad8683018460ff169052565b83015191506101e06151c38682018460ff169052565b908301519150610200906151db8683018460ff169052565b83015191506102206151f18682018460ff169052565b9083015160ff90811661024087015292015190911661026084015250606083015161ffff16610280830152608083015161522f6102a0840182615073565b5060a08301516152436102c0840182615073565b5060c08301516152576102e0840182615073565b5060e0830151612ea2610300840182615073565b60008060006040848603121561528057600080fd5b83356001600160401b038082111561529757600080fd5b6152a387838801614ce2565b945060208601359150808211156152b957600080fd5b818601915086601f8301126152cd57600080fd5b8135818111156152dc57600080fd5b8760208260051b8501011115614d8157600080fd5b6000806040838503121561530457600080fd5b50508035926020909101359150565b60028110613b1557600080fd5b60006020828403121561533257600080fd5b81356110ef81615313565b6020808252825182820181905260009190848201906040850190845b8181101561537557835183529284019291840191600101615359565b50909695505050505050565b6020808252600c908201526b125b1b1959d85b0810d85b1b60a21b604082015260600190565b6020808252600c908201526b125b9d985b1a590810d85b1b60a21b604082015260600190565b81835281816020850137506000828201602090810191909152601f909101601f19169091010190565b60608152600061540a6060830187896153cd565b828103602084015261541d8186886153cd565b91505061ffff831660408301529695505050505050565b60208082526008908201526714995a9958dd195960c21b604082015260600190565b602080825260119082015270496c6c6567616c20557064617461626c6560781b604082015260600190565b60208082526010908201526f125b1b1959d85b0810dbdb9d1c9858dd60821b604082015260600190565b6020810160148310614dc757614dc7614d94565b6000602082840312156154d157600080fd5b81516110ef81614de3565b634e487b7160e01b600052603260045260246000fd5b61ffff81168114613b1557600080fd5b8035610d04816154f2565b60006020828403121561551f57600080fd5b81356110ef816154f2565b7f545950452e4c4956454c595f56455253452e4c4956454c595f4d454d4245525f81526526a0a9aa22a960d11b602082015260260190565b62ffffff81168114613b1557600080fd5b600081356107bf81615562565b600081356107bf816154f2565b60ff81168114613b1557600080fd5b600081356107bf8161558d565b6155ca6155b583615573565b825462ffffff191662ffffff91909116178255565b6155f56155d960208401615580565b825464ffff000000191660189190911b64ffff00000016178255565b61562461560460408401615580565b825466ffff0000000000191660289190911b66ffff000000000016178255565b61565761563360608401615580565b825468ffff00000000000000191660389190911b68ffff0000000000000016178255565b61568e61566660808401615580565b82546affff000000000000000000191660489190911b6affff00000000000000000016178255565b6156bd61569d60a08401615580565b82805461ffff60581b191660589290921b61ffff60581b16919091179055565b6156ec6156cc60c08401615580565b82805461ffff60681b191660689290921b61ffff60681b16919091179055565b61571b6156fb60e08401615580565b82805461ffff60781b191660789290921b61ffff60781b16919091179055565b61574b61572b6101008401615580565b82805461ffff60881b191660889290921b61ffff60881b16919091179055565b61577b61575b6101208401615580565b82805461ffff60981b191660989290921b61ffff60981b16919091179055565b6157ab61578b6101408401615580565b82805461ffff60a81b191660a89290921b61ffff60a81b16919091179055565b6157d96157bb610160840161559c565b82805460ff60b81b191660b89290921b60ff60b81b16919091179055565b6158076157e9610180840161559c565b82805460ff60c01b191660c09290921b60ff60c01b16919091179055565b6158356158176101a0840161559c565b82805460ff60c81b191660c89290921b60ff60c81b16919091179055565b6158636158456101c0840161559c565b82805460ff60d01b191660d09290921b60ff60d01b16919091179055565b6158916158736101e0840161559c565b82805460ff60d81b191660d89290921b60ff60d81b16919091179055565b6158bf6158a1610200840161559c565b82805460ff60e01b191660e09290921b60ff60e01b16919091179055565b61304d6158cf610220840161559c565b82805460ff60e81b191660e89290921b60ff60e81b16919091179055565b8035610d0481615562565b8035610d048161558d565b61591982615910836158ed565b62ffffff169052565b61592560208201615502565b61ffff16602083015261593a60408201615502565b61ffff16604083015261594f60608201615502565b61ffff16606083015261596460808201615502565b61ffff16608083015261597960a08201615502565b61ffff1660a083015261598e60c08201615502565b61ffff1660c08301526159a360e08201615502565b61ffff1660e08301526101006159ba828201615502565b61ffff16908301526101206159d0828201615502565b61ffff16908301526101406159e6828201615502565b61ffff16908301526101606159fc8282016158f8565b60ff1690830152610180615a118282016158f8565b60ff16908301526101a0615a268282016158f8565b60ff16908301526101c0615a3b8282016158f8565b60ff16908301526101e0615a508282016158f8565b60ff1690830152610200615a658282016158f8565b60ff1690830152610220615a7a8282016158f8565b60ff1692019190915250565b61024081016107bf8284615903565b634e487b7160e01b600052601160045260246000fd5b600060018201615abd57615abd615a95565b5060010190565b600181811c90821680615ad857607f821691505b602082108103614cf457634e487b7160e01b600052602260045260246000fd5b600382810b9082900b03637fffffff198112637fffffff821317156107bf576107bf615a95565b7f524f4c452e4c4956454c595f56455253452e4c4956454c595f4d41535445525f81526420a226a4a760d91b602082015260250190565b60048110613b1557600080fd5b600060208284031215615b7557600080fd5b81356110ef81615b56565b60208101614dc783615063565b600060208284031215615b9f57600080fd5b8151601481106110ef57600080fd5b600060208284031215615bc057600080fd5b81516110ef81615313565b6000808335601e19843603018112615be257600080fd5b8301803591506001600160401b03821115615bfc57600080fd5b6020019150368190038213156149c157600080fd5b600060208284031215615c2357600080fd5b81356001600160401b03811681146110ef57600080fd5b82815261026081016110ef6020830184615903565b600060208284031215615c6157600080fd5b5051919050565b62ffffff818116838216019080821115612ea257612ea2615a95565b6020810160088310614dc757614dc7614d94565b8381526020810183905261028081016112b46040830184615903565b600060208284031215615cc657600080fd5b8151600881106110ef57600080fd5b6000808354615ce381615ac4565b60018281168015615cfb5760018114615d1057615d3f565b60ff1984168752821515830287019450615d3f565b8760005260208060002060005b85811015615d365781548a820152908401908201615d1d565b50505082870194505b50929695505050505050565b601f821115615d9157600081815260208120601f850160051c81016020861015615d725750805b601f850160051c820191505b818110156109f357828155600101615d7e565b505050565b6001600160401b03831115615dad57615dad614dcd565b615dc183615dbb8354615ac4565b83615d4b565b6000601f841160018114615df55760008515615ddd5750838201355b600019600387901b1c1916600186901b178355612a71565b600083815260209020601f19861690835b82811015615e265786850135825560209485019460019092019101615e06565b5086821015615e435760001960f88860031b161c19848701351681555b505060018560011b0183555050505050565b818103818111156107bf576107bf615a95565b634e487b7160e01b600052603160045260246000fd5b60008251615e90818460208701614ecd565b9190910192915050565b808201808211156107bf576107bf615a9556fe360894a13ba1a3210667c828492db98dca3e2076cc3735a920a3ca505d382bbca26469706673582212203d7cd039af6a247ffe2eb43020b3c465119c9d4249d0cdbdeff1af48bd1e23ba64736f6c63430008130033b53127684a568b3173ae13b9f8a6016e243e63b6e8ee1178d6a717850b5d6103",
  "deployedBytecode": "0x6080604052600436106102115760003560e01c806378e2e1fb11610117578063c051cc9a116100a5578063f698da251161006c578063f698da2514610703578063f708ceb014610718578063f94a0adb14610738578063fa3aa6711461074d578063fcc401781461077a57005b8063c051cc9a1461064f578063c5d2d8ff1461066f578063d9dc1f191461068f578063db3762cc146106af578063f0b15def146106cf57005b8063a0a8e460116100e9578063a0a8e460146105b0578063a304e353146105c5578063b4a0bdf3146105e4578063b879581414610602578063bc44c7021461062257005b806378e2e1fb1461051c5780638be959861461053c578063961788951461055c5780639b97b5341461057c57005b80633fb8ae051161019f57806364d4c8191161016657806364d4c8191461045f5780637147855d14610493578063756af45f146104c057806375d0c0dc146104e05780637678922e146104f557005b80633fb8ae05146103a15780634888f482146103c15780634bf0414d146103e957806352d1902d1461041d57806358dbc45d1461043257005b80631b452f4b116101e35780631b452f4b146102af5780632966b144146102f1578063301c12801461031157806334109de21461034557806338d38c971461037957005b806301ffc9a71461021a578063077f224a1461024f5780630e32cb861461026f5780631ac5b3721461028f57005b3661021857005b005b34801561022657600080fd5b5061023a610235366004614b80565b61079a565b60405190151581526020015b60405180910390f35b34801561025b57600080fd5b5061021861026a366004614c02565b6107c5565b34801561027b57600080fd5b5061023a61028a366004614c82565b6109fb565b34801561029b57600080fd5b5061023a6102aa366004614c9d565b610d09565b3480156102bb57600080fd5b506102e37f7bfb2abd6084c8ce20d7ff92c1620e7e7267603f0eac446b9176959d243306bc81565b604051908152602001610246565b3480156102fd57600080fd5b5061023a61030c366004614cc9565b610e65565b34801561031d57600080fd5b506102e37f541cf898e7c3085cbc6b7402ba06e7237285bc4bd5baa510e708e35537a71ffd81565b34801561035157600080fd5b506102e37f7aabe2571874f2a330ea11c8972d9cc3792d973efc6b36e3e29005861a34418881565b34801561038557600080fd5b5061038e610e96565b60405161ffff9091168152602001610246565b3480156103ad57600080fd5b5061023a6103bc366004614cfa565b610eaa565b3480156103cd57600080fd5b50600254600160a81b900460ff165b6040516102469190614dba565b3480156103f557600080fd5b506102e37f9027b951cbdf8eff67da583391d218a57a89ec1ebfcb1c66da188e8531804d5581565b34801561042957600080fd5b506102e36110f6565b34801561043e57600080fd5b50610447611153565b6040516001600160a01b039091168152602001610246565b34801561046b57600080fd5b506102e37f8b73c3c69bb8fe3d512ecc4cf759cc79239f7b179b0ffacaa9a75d522b39400f81565b34801561049f57600080fd5b506104b36104ae366004614dfc565b61115d565b6040516102469190614f1d565b3480156104cc57600080fd5b506102e36104db366004614c82565b6112bc565b3480156104ec57600080fd5b506104b3611381565b34801561050157600080fd5b5073__$9d3eda23eea7f40e978c314b97edd1087f$__610447565b34801561052857600080fd5b5061023a610537366004614f30565b611413565b34801561054857600080fd5b5061023a610557366004614ffb565b611522565b34801561056857600080fd5b5061023a610577366004614ffb565b61176d565b34801561058857600080fd5b506102e37fdee69d384475c3656c17c592e94a2bbfd2a1998cce0c85f535569415a15863b881565b3480156105bc57600080fd5b506104b361194c565b3480156105d157600080fd5b50600254600160a01b900460ff166103dc565b3480156105f057600080fd5b506002546001600160a01b0316610447565b34801561060e57600080fd5b5061023a61061d366004614c82565b61195b565b34801561062e57600080fd5b5061064261063d366004614cc9565b6119bc565b6040516102469190615080565b34801561065b57600080fd5b5061023a61066a366004614ffb565b611d81565b34801561067b57600080fd5b5061023a61068a36600461526b565b611f74565b34801561069b57600080fd5b5061023a6106aa366004614c82565b612452565b3480156106bb57600080fd5b5061023a6106ca3660046152f1565b612608565b3480156106db57600080fd5b506102e37ffc434588684348dd50856b075c47bed14245c1030aa04c32955af5549981462781565b34801561070f57600080fd5b506102e3612642565b34801561072457600080fd5b5061023a610733366004615320565b61264c565b34801561074457600080fd5b506104476127f6565b34801561075957600080fd5b5061076d610768366004614cc9565b612800565b604051610246919061533d565b34801561078657600080fd5b5061023a610795366004615320565b612840565b60006001600160e01b031982166349b4d31560e01b14806107bf57506107bf826129cb565b92915050565b6001600160a01b037f00000000000000000000000000000000000000000000000000000000000000001630036108165760405162461bcd60e51b815260040161080d90615381565b60405180910390fd5b7f00000000000000000000000000000000000000000000000000000000000000006001600160a01b0316610848612a1b565b6001600160a01b03161461086e5760405162461bcd60e51b815260040161080d906153a7565b33610877612a3c565b6001600160a01b0316146108bd5760405162461bcd60e51b815260206004820152600d60248201526c1058d8d95cdcc811195b9a5959609a1b604482015260640161080d565b604e5462010000900460ff16158080156108df5750604e54600161ffff909116105b806108fa5750303b1580156108fa5750604e5461ffff166001145b6109465760405162461bcd60e51b815260206004820152601c60248201527f436f6e747261637420416c726561647920496e697469616c697a656400000000604482015260640161080d565b604e805461ffff19166001179055801561096c57604e805462ff00001916620100001790555b6109798686868686612a64565b610981612a1b565b6001600160a01b031630336001600160a01b03167f247ab7b17ee489fa140c6666edc3822eefed2727610cd6e37192462b87244c60898989896109c7604e5461ffff1690565b6040516109d89594939291906153f6565b60405180910390a480156109f357604e805462ff0000191690555b505050505050565b60006001600160a01b037f0000000000000000000000000000000000000000000000000000000000000000163003610a455760405162461bcd60e51b815260040161080d90615381565b7f00000000000000000000000000000000000000000000000000000000000000006001600160a01b0316610a77612a1b565b6001600160a01b031614610a9d5760405162461bcd60e51b815260040161080d906153a7565b6000600254600160a01b900460ff166001811115610abd57610abd614d94565b14610ada5760405162461bcd60e51b815260040161080d90615434565b6001600254600160a81b900460ff166001811115610afa57610afa614d94565b14610b175760405162461bcd60e51b815260040161080d90615456565b6001600160a01b03821615801590610b3857506001600160a01b0382163b15155b610b545760405162461bcd60e51b815260040161080d90615481565b6002546001600160a01b031615610bb3576000610b7763071965c360e11b612a78565b90506000816013811115610b8d57610b8d614d94565b14610bad5780604051637f0911d160e01b815260040161080d91906154ab565b50610c02565b33610bbc612a3c565b6001600160a01b031614610c025760405162461bcd60e51b815260206004820152600d60248201526c1058d8d95cdcc811195b9a5959609a1b604482015260640161080d565b6040516301ffc9a760e01b81526331501c3960e01b60048201526001600160a01b038316906301ffc9a790602401602060405180830381865afa158015610c4d573d6000803e3d6000fd5b505050506040513d601f19601f82011682018060405250810190610c7191906154bf565b610cab5760405162461bcd60e51b815260206004820152600b60248201526a125b1b1959d85b081050d360aa1b604482015260640161080d565b600280546001600160a01b0384166001600160a01b031990911681179091556040805191825251309133917f410bf468eebeeed60acaedb904afb2db7c0bb0131f7d14c3714d81b14fe8ed3c9181900360200190a35060015b919050565b6000600160008481526044602052604090206001015460ff166003811115610d3357610d33614d94565b14610d40575060006107bf565b6000838152604460205260408082205480835290822060010154909160ff90911690610d6b85612b03565b90506002826003811115610d8157610d81614d94565b03610dfe57600080610d94604486612b3d565b9150915080610dab576000955050505050506107bf565b600080610dc684600301546044612b9a90919063ffffffff16565b9150915080610ddf5760009750505050505050506107bf565b5060009384526005016020525050604090205490911491506107bf9050565b6003826003811115610e1257610e12614d94565b03610e5957600080610e25604486612b9a565b9150915080610e3c576000955050505050506107bf565b5060009182526005016020526040902054151592506107bf915050565b50600095945050505050565b6000600160008381526044602052604090206001015460ff166003811115610e8f57610e8f614d94565b1492915050565b6000610ea5604e5461ffff1690565b905090565b6000808080610ec087633fb8ae0560e01b612bb1565b919450925090506000610ed4604484612dcc565b905060005b868110156110e5576000610f0a898984818110610ef857610ef86154dc565b90506102600201600001358688612ea9565b9050610f1881600401612f2c565b898984818110610f2a57610f2a6154dc565b610f46926101806102609092020190810191506101600161550d565b61ffff1611610f8b5760405162461bcd60e51b8152602060048201526011602482015270125b1b1959d85b08151e5c19531a5b5a5d607a1b604482015260640161080d565b6040517f545950452e4c4956454c595f56455253452e4c4956454c595f4d4153544552006020820152610fe490603f015b6040516020818303038152906040528051906020012082600401612f3690919063ffffffff16565b1580156110005750610ffe604051602001610fbc9061552a565b155b1561102a5761102a838a8a8581811061101b5761101b6154dc565b90506102600201602001612f4e565b88888381811061103c5761103c6154dc565b9050610260020160200181600301818161105691906155a9565b90505088888381811061106b5761106b6154dc565b9050610260020160000135846001600160a01b03167fdefb26be73b29f71b327c0b82dd3347dbeeb918a65f4aae4a384c42f94cd9a278b8b868181106110b3576110b36154dc565b905061026002016020016040516110ca9190615a86565b60405180910390a350806110dd81615aab565b915050610ed9565b5060019450505050505b9392505050565b6000306001600160a01b037f000000000000000000000000000000000000000000000000000000000000000016146111405760405162461bcd60e51b815260040161080d90615381565b50600080516020615eae83398151915290565b6000610ea5612a1b565b60606001600160a01b037f00000000000000000000000000000000000000000000000000000000000000001630036111a75760405162461bcd60e51b815260040161080d90615381565b7f00000000000000000000000000000000000000000000000000000000000000006001600160a01b03166111d9612a1b565b6001600160a01b0316146111ff5760405162461bcd60e51b815260040161080d906153a7565b6000600254600160a01b900460ff16600181111561121f5761121f614d94565b1461123c5760405162461bcd60e51b815260040161080d90615434565b6001600254600160a81b900460ff16600181111561125c5761125c614d94565b146112795760405162461bcd60e51b815260040161080d90615456565b6001600160a01b0384163b6112a05760405162461bcd60e51b815260040161080d90615481565b6112a984612fb3565b6112b4848484613051565b949350505050565b600080600254600160a01b900460ff1660018111156112dd576112dd614d94565b146112fa5760405162461bcd60e51b815260040161080d90615434565b600061130c63756af45f60e01b612a78565b9050600081601381111561132257611322614d94565b146113425780604051637f0911d160e01b815260040161080d91906154ab565b60405147906001600160a01b038516904780156108fc02916000818181858888f19350505050158015611379573d6000803e3d6000fd5b509392505050565b60606000805461139090615ac4565b80601f01602080910402602001604051908101604052809291908181526020018280546113bc90615ac4565b80156114095780601f106113de57610100808354040283529160200191611409565b820191906000526020600020905b8154815290600101906020018083116113ec57829003601f168201915b5050505050905090565b6000808080611429876378e2e1fb60e01b612bb1565b91945092509050600061143d604484612dcc565b600381015490915060009061146290600189900b906301000000900461ffff16615af8565b60030b12156114ab5760405162461bcd60e51b8152602060048201526015602482015274125b1b1959d85b08149959da5cdd195c931a5b5a5d605a1b604482015260640161080d565b60005b868110156114ed576114db8888838181106114cb576114cb6154dc565b90506102e0020183878787613209565b806114e581615aab565b9150506114ae565b50600301805461ffff630100000080830482168990039091160264ffff00000019909116179055506001925050509392505050565b6000808080611538876345f4acc360e11b612bb1565b92509250925060005b8581101561175f576000611571888884818110611560576115606154dc565b905060400201600001358587612ea9565b90506115bc60405160200161158590615b1f565b604051602081830303815290604052805190602001208989858181106115ad576115ad6154dc565b9050604002016000013561386d565b156115fa5760405162461bcd60e51b815260206004820152600e60248201526d24b63632b3b0b61026b2b6b132b960911b604482015260640161080d565b600188888481811061160e5761160e6154dc565b90506040020160200160208101906116269190615b63565b600381111561163757611637614d94565b116116775760405162461bcd60e51b815260206004820152601060248201526f496c6c6567616c20416374697669747960801b604482015260640161080d565b878783818110611689576116896154dc565b90506040020160200160208101906116a19190615b63565b60018201805461ff0019166101008360038111156116c1576116c1614d94565b02179055508787838181106116d8576116d86154dc565b90506040020160000135836001600160a01b03167f06b789b822e2581aa4e79c81b84ed1ccc1a5c2741e97b3d74e0e7e980480bca28a8a8681811061171f5761171f6154dc565b90506040020160200160208101906117379190615b63565b6040516117449190615b80565b60405180910390a3508061175781615aab565b915050611541565b506001979650505050505050565b600080808061178387639617889560e01b612bb1565b92509250925060005b8581101561175f5760006117ab888884818110611560576115606154dc565b905060008888848181106117c1576117c16154dc565b90506040020160200135146118a15760006044818a8a868181106117e7576117e76154dc565b90506040020160200135815260200190815260200160002090506001600381111561181457611814614d94565b600182015460ff16600381111561182d5761182d614d94565b116118745760405162461bcd60e51b8152602060048201526017602482015276496c6c6567616c2041646d696e204167656e745479706560481b604482015260640161080d565b888884818110611886576118866154dc565b905060400201602001358260000160000181905550506118cb565b6040516020016118b09061552a565b60408051601f19818403018152919052805160209091012081555b8787838181106118dd576118dd6154dc565b905060400201602001358888848181106118f9576118f96154dc565b90506040020160000135846001600160a01b03167fd2e065bcd4d1c7b0bbb6c1d8f35c9bbb6d0e839a05ef546391707ce17f3eb01a60405160405180910390a4508061194481615aab565b91505061178c565b60606001805461139090615ac4565b600060016040516001600160601b0319606085901b16602082015260449060009060340160408051601f198184030181529181528151602092830120835290820192909252016000206001015460ff166003811115610e8f57610e8f614d94565b611a8f60408051610100808201835260008083526020808401829052845161024081018652828152908101829052808501829052606081018290526080810182905260a0810182905260c0810182905260e0810182905291820181905261012082018190526101408201819052610160820181905261018082018190526101a082018190526101c082018190526101e08201819052610200820181905261022082015290918201908152600060208201819052604090910190815260200160008152602001600081526020016000905290565b600080611a9d6044856138de565b9150915080611b7a57604080516101008082018352600080835260208084018290528451610240810186528281529081018290528085018290526060808201839052608080830184905260a0830184905260c0830184905260e0830184905293820183905261012082018390526101408201839052610160820183905261018082018390526101a082018390526101c082018390526101e0820183905261020082018390526102208201839052948401529282018390529091908201908152602001600081526020016000815260200160005b9052949350505050565b6040805161010080820183528454825260028501546001600160a01b0316602080840191909152835161024081018552600387015462ffffff8116825261ffff63010000008204811693830193909352650100000000008104831682870152670100000000000000810483166060808401919091526901000000000000000000820484166080840152600160581b8204841660a0840152600160681b8204841660c0840152600160781b8204841660e0840152600160881b8204841694830194909452600160981b81048316610120830152600160a81b810490921661014082015260ff600160b81b83048116610160830152600160c01b83048116610180830152600160c81b830481166101a0830152600160d01b830481166101c0830152600160d81b830481166101e0830152600160e01b83048116610200830152600160e81b90920490911661022082015292820192909252908101611cdf60048501612f2c565b61ffff168152835460009081526044602090815260409091206001015491019060ff166003811115611d1357611d13614d94565b8152600184015460209091019060ff166003811115611d3457611d34614d94565b81526001840154602090910190610100900460ff166003811115611d5a57611d5a614d94565b8152600184015460209091019062010000900460ff166003811115611b7057611b70614d94565b6000808080611d9787636028e64d60e11b612bb1565b92509250925060005b8581101561175f576000611dd0888884818110611dbf57611dbf6154dc565b604492604090910201359050612dcc565b8054909150600090611de39086886138f5565b90506000816007811115611df957611df9614d94565b14611e0757611e0781613981565b6000898985818110611e1b57611e1b6154dc565b9050604002016020016020810190611e339190615b63565b6003811115611e4457611e44614d94565b03611e885760405162461bcd60e51b8152602060048201526014602482015273496c6c6567616c20416c7465726162696c69747960601b604482015260640161080d565b888884818110611e9a57611e9a6154dc565b9050604002016020016020810190611eb29190615b63565b60018301805462ff0000191662010000836003811115611ed457611ed4614d94565b0217905550888884818110611eeb57611eeb6154dc565b90506040020160000135846001600160a01b03167f824333a0ecff9cffe8512433ee440baab06dfb39a89a27b048c8143bbc18d9fb8b8b87818110611f3257611f326154dc565b9050604002016020016020810190611f4a9190615b63565b604051611f579190615b80565b60405180910390a350508080611f6c90615aab565b915050611da0565b6000808080611f8a8763c5d2d8ff60e01b612bb1565b92509250925060005b8581101561175f576000611fc9888884818110611fb257611fb26154dc565b905060200201356044612dcc90919063ffffffff16565b8054909150600090611fdc9086886138f5565b90506000816007811115611ff257611ff2614d94565b146120005761200081613981565b60005b61200f83600401612f2c565b8110801561201d5750601081105b156123195760006120316004850183613b18565b90506000612040604483613b24565b90506002600182015462010000900460ff16600381111561206357612063614d94565b10156120aa5760405162461bcd60e51b8152602060048201526016602482015275496c6c6567616c205479706520557064617461626c6560501b604482015260640161080d565b60008160050160008e8e8a8181106120c4576120c46154dc565b90506020020135815260200190815260200160002054905060006120f2826044613bfb90919063ffffffff16565b90506002600182015462010000900460ff16600381111561211557612115614d94565b101561215c5760405162461bcd60e51b8152602060048201526016602482015275496c6c6567616c20526f6c6520557064617461626c6560501b604482015260640161080d565b60405160200161216b90615b1f565b6040516020818303038152906040528051906020012082036121e05760058101546001630100000090910462ffffff16116121e05760405162461bcd60e51b8152602060048201526015602482015274496c6c6567616c204d656d626572205265766f6b6560581b604482015260640161080d565b60058101546301000000900462ffffff166122335760405162461bcd60e51b8152602060048201526013602482015272125b1b1959d85b0813595b58995c90dbdd5b9d606a1b604482015260640161080d565b6005808201805460001962ffffff6301000000808404821692909201160265ffffff00000019909116179055830160008f8f8b818110612275576122756154dc565b905060200201358152602001908152602001600020600090556122a48488600401613cd890919063ffffffff16565b50818e8e8a8181106122b8576122b86154dc565b905060200201358a6001600160a01b03167f785c010df3daed664e2629b2816294f5b470e752cd8a8ca9d16146f8a1996b68876040516122fa91815260200190565b60405180910390a450505050808061231190615aab565b915050612003565b5061232682600401612f2c565b6000036123dd57600080835560018301805462ffffff191690556002830180546001600160a01b03191690556003830180546001600160f01b0319169055600483019081816123758282614b4e565b5050505088888481811061238b5761238b6154dc565b90506020020135846001600160a01b03167ffe86beb9b4c7f7a6b9ab37078fa83c2ef4f4fe3b50582d82c897823c5791061660016040516123d0911515815260200190565b60405180910390a361243d565b8888848181106123ef576123ef6154dc565b90506020020135846001600160a01b03167ffe86beb9b4c7f7a6b9ab37078fa83c2ef4f4fe3b50582d82c897823c579106166000604051612434911515815260200190565b60405180910390a35b5050808061244a90615aab565b915050611f93565b60006001600160a01b037f000000000000000000000000000000000000000000000000000000000000000016300361249c5760405162461bcd60e51b815260040161080d90615381565b7f00000000000000000000000000000000000000000000000000000000000000006001600160a01b03166124ce612a1b565b6001600160a01b0316146124f45760405162461bcd60e51b815260040161080d906153a7565b6000600254600160a01b900460ff16600181111561251457612514614d94565b146125315760405162461bcd60e51b815260040161080d90615434565b6001600254600160a81b900460ff16600181111561255157612551614d94565b1461256e5760405162461bcd60e51b815260040161080d90615456565b600061258063d9dc1f1960e01b612a78565b9050600081601381111561259657612596614d94565b146125b65780604051637f0911d160e01b815260040161080d91906154ab565b6001600160a01b0383166125f65760405162461bcd60e51b8152602060048201526007602482015266125b9d985b1a5960ca1b604482015260640161080d565b6125ff83613ce4565b50600192915050565b600080806126176044866138de565b9150915080156126375761262e6004830185612f36565b925050506107bf565b506000949350505050565b6000610ea5613d5b565b60006001600160a01b037f00000000000000000000000000000000000000000000000000000000000000001630036126965760405162461bcd60e51b815260040161080d90615381565b7f00000000000000000000000000000000000000000000000000000000000000006001600160a01b03166126c8612a1b565b6001600160a01b0316146126ee5760405162461bcd60e51b815260040161080d906153a7565b60006126fd604e5461ffff1690565b61ffff16116127395760405162461bcd60e51b81526020600482015260086024820152671393d5081253925560c21b604482015260640161080d565b600061274b630f708ceb60e41b612a78565b9050600081601381111561276157612761614d94565b146127815780604051637f0911d160e01b815260040161080d91906154ab565b6002805484919060ff60a01b1916600160a01b8360018111156127a6576127a6614d94565b021790555030336001600160a01b03167fc08ec585c25f1907baaab6f278c5994531a2e34c59935b3fcfe813067a3b4878856040516127e59190614dba565b60405180910390a350600192915050565b6000610ea5612a3c565b60606000806128106044856138de565b91509150806128345760408051600080825260208201909252905b50949350505050565b6112b482600401613e0f565b60006001600160a01b037f000000000000000000000000000000000000000000000000000000000000000016300361288a5760405162461bcd60e51b815260040161080d90615381565b7f00000000000000000000000000000000000000000000000000000000000000006001600160a01b03166128bc612a1b565b6001600160a01b0316146128e25760405162461bcd60e51b815260040161080d906153a7565b6000600254600160a01b900460ff16600181111561290257612902614d94565b1461291f5760405162461bcd60e51b815260040161080d90615434565b6000612931631f98802f60e31b612a78565b9050600081601381111561294757612947614d94565b146129675780604051637f0911d160e01b815260040161080d91906154ab565b6002805484919060ff60a81b1916600160a81b83600181111561298c5761298c614d94565b021790555030336001600160a01b03167ff5912c5e436152157ed2b4a84bc313b4b1fe09a15b941f195d23c99a1b8c45ad856040516127e59190614dba565b60006001600160e01b03198216633d817cff60e01b14806129fc57506001600160e01b031982166352d1902d60e01b145b806107bf57506301ffc9a760e01b6001600160e01b03198316146107bf565b6000600080516020615eae8339815191525b546001600160a01b0316919050565b60007fb53127684a568b3173ae13b9f8a6016e243e63b6e8ee1178d6a717850b5d6103612a2d565b612a718585858585613e1a565b5050505050565b6002546040805163172cb29d60e11b81523060048201526001600160e01b03198416602482015233604482015290516000926001600160a01b031691632e59653a916064808301926020929190829003018187875af1158015612adf573d6000803e3d6000fd5b505050506040513d601f19601f820116820180604052508101906107bf9190615b8d565b6040516001600160601b0319606083901b166020820152600090603401604051602081830303815290604052805190602001209050919050565b6000818152602083905260408120819060025b600182015460ff166003811115612b6957612b69614d94565b03612b8857604080518581526020810187905220925060019150612b92565b6000199250600091505b509250929050565b600081815260208390526040812081906003612b50565b6000808080306001600160a01b031663a304e3536040518163ffffffff1660e01b8152600401602060405180830381865afa158015612bf4573d6000803e3d6000fd5b505050506040513d601f19601f82011682018060405250810190612c189190615bae565b6001811115612c2957612c29614d94565b14612c465760405162461bcd60e51b815260040161080d90615434565b600080612c566040880188615bcb565b90501115612cea5742612c6f6040880160208901615c11565b6001600160401b031611612cb95760405162461bcd60e51b815260206004820152601160248201527045787069726564205369676e617475726560781b604482015260640161080d565b612ce3867fdee69d384475c3656c17c592e94a2bbfd2a1998cce0c85f535569415a15863b8613fe3565b9050612ced565b50335b6001600160e01b031985166000908152604a60205260408120546001600160a01b031690612d1b828861409b565b90506000612d2884612b03565b604051634902a91960e11b8152600481018490526024810182905290915060009030906392055232906044016020604051808303816000875af1158015612d73573d6000803e3d6000fd5b505050506040513d601f19601f82011682018060405250810190612d979190615b8d565b90506000816013811115612dad57612dad614d94565b14612dbb57612dbb816140e7565b509095509350909150509250925092565b600081815260208390526040812060018082015460ff166003811115612df457612df4614d94565b03612e0f576040805184815260208101869052209150612ea2565b6000600182015460ff166003811115612e2a57612e2a614d94565b03612e675760405162461bcd60e51b815260206004820152600d60248201526c13525108139bdd08119bdd5b99609a1b604482015260640161080d565b60405162461bcd60e51b815260206004820152601060248201526f125b1b1959d85b081352510814db1bdd60821b604482015260640161080d565b5092915050565b600080612eb7604486612dcc565b90506002600182015462010000900460ff166003811115612eda57612eda614d94565b1015612ef85760405162461bcd60e51b815260040161080d90615456565b8054600090612f089086866138f5565b90506000816007811115612f1e57612f1e614d94565b1461282b5761282b81613981565b60006107bf825490565b600081815260018301602052604081205415156110ef565b604051637cc3481760e11b815273__$9d3eda23eea7f40e978c314b97edd1087f$__9063f986902e90612f879085908590600401615c3a565b60006040518083038186803b158015612f9f57600080fd5b505af41580156109f3573d6000803e3d6000fd5b612fbb612a1b565b6001600160a01b0316816001600160a01b0316036130055760405162461bcd60e51b8152602060048201526007602482015266125b1b1959d85b60ca1b604482015260640161080d565b6000613017637147855d60e01b612a78565b9050600081601381111561302d5761302d614d94565b1461304d5780604051637f0911d160e01b815260040161080d91906154ab565b5050565b60607f4910fdfa16fed3260ed0e7147f7cc6da11a60208b5b9406d12a635614ffd91435460ff161561309b576130868461449c565b506040805160008152602081019091526110ef565b600080516020615eae83398151915260001b846001600160a01b03166352d1902d6040518163ffffffff1660e01b8152600401602060405180830381865afa1580156130eb573d6000803e3d6000fd5b505050506040513d601f19601f8201168201806040525081019061310f9190615c4f565b1461314b5760405162461bcd60e51b815260206004820152600c60248201526b496c6c6567616c205555505360a01b604482015260640161080d565b6040516301ffc9a760e01b8152633d817cff60e01b60048201526001600160a01b038516906301ffc9a790602401602060405180830381865afa158015613196573d6000803e3d6000fd5b505050506040513d601f19601f820116820180604052508101906131ba91906154bf565b6131f75760405162461bcd60e51b815260206004820152600e60248201526d496c6c6567616c204950726f787960901b604482015260640161080d565b6132028484846144cb565b90506110ef565b600061322361321e6060880160408901614c82565b612b03565b905060008082815260446020526040902060010154610100900460ff16600381111561325157613251614d94565b1461328e5760405162461bcd60e51b815260206004820152600d60248201526c105b1c9958591e48115e1a5cdd609a1b604482015260640161080d565b60016132a26101c088016101a0890161550d565b61ffff1610156132e85760405162461bcd60e51b8152602060048201526011602482015270125b1b1959d85b08151e5c19531a5b5a5d607a1b604482015260640161080d565b60016132fc6102c088016102a08901615b63565b600381111561330d5761330d614d94565b11801561333c575060006133296102e088016102c08901615b63565b600381111561333a5761333a614d94565b115b6133885760405162461bcd60e51b815260206004820152601d60248201527f496c6c6567616c2041637469766974792f416c7465726162696c697479000000604482015260640161080d565b6040517f545950452e4c4956454c595f56455253452e4c4956454c595f4d41535445520060208201526133e190603f015b6040516020818303038152906040528051906020012086600401612f3690919063ffffffff16565b1580156133fd57506133fb6040516020016133b99061552a565b155b1561340f5761340f8587606001612f4e565b600061341d60448835613bfb565b90506002600182015462010000900460ff16600381111561344057613440614d94565b10156134875760405162461bcd60e51b8152602060048201526016602482015275496c6c6567616c20526f6c6520557064617461626c6560501b604482015260640161080d565b600581015462ffffff6301000000820481169116116134db5760405162461bcd60e51b815260206004820152601060248201526f24b63632b3b0b6102932b3b4b9ba32b960811b604482015260640161080d565b60006134f582600301546044613b2490919063ffffffff16565b90506002600182015462010000900460ff16600381111561351857613518614d94565b101561355f5760405162461bcd60e51b8152602060048201526016602482015275496c6c6567616c205479706520557064617461626c6560501b604482015260640161080d565b815460009061356f9087896138f5565b9050600081600781111561358557613585614d94565b146135935761359381613981565b6000848152600583810160205260409091208a35905583018054600191906003906135cb9084906301000000900462ffffff16615c68565b92506101000a81548162ffffff021916908362ffffff16021790555060006135fd85604461452c90919063ffffffff16565b905060208a0135156136ef5760016020808c013560009081526044909152604090206001015460ff16600381111561363757613637614d94565b1161367e5760405162461bcd60e51b8152602060048201526017602482015276496c6c6567616c2041646d696e204167656e745479706560481b604482015260640161080d565b6136ad6040516020016136909061552a565b60405160208183030381529060405280519060200120888a6138f5565b915060008260078111156136c3576136c3614d94565b146136e3578160405163578978db60e01b815260040161080d9190615c84565b60208a01358155613719565b6040516020016136fe9061552a565b60408051601f19818403018152919052805160209091012081555b6001818101805460ff1916909117905561373b6102c08b016102a08c01615b63565b60018201805461ff00191661010083600381111561375b5761375b614d94565b02179055506137726102e08b016102c08c01615b63565b60018201805462ff000019166201000083600381111561379457613794614d94565b02179055506137a960608b0160408c01614c82565b6002820180546001600160a01b0319166001600160a01b039290921691909117905560038401546137de906004830190614592565b5060608a01600382016137f182826155a9565b50613804905060608b0160408c01614c82565b6001600160a01b031685876001600160a01b03167f04f920874e379439650f091dac01500fa81a584fb13d038eb312f5de34420f5b8d6000013585600001600001548f60600160405161385993929190615c98565b60405180910390a450505050505050505050565b6000808061387c604486612b3d565b9150915080613890576000925050506107bf565b6000806138ab84600301546044612b9a90919063ffffffff16565b91509150806138c15760009450505050506107bf565b506000948552600501602052505060409091205491909114919050565b600081815260208390526040812081906001612b50565b60405163ca37fa8560e01b81526044600482018190526024820185905281018390526064810182905260009073__$9d3eda23eea7f40e978c314b97edd1087f$__9063ca37fa8590608401602060405180830381865af415801561395d573d6000803e3d6000fd5b505050506040513d601f19601f820116820180604052508101906112b49190615cb4565b600181600781111561399557613995614d94565b036139b3576040516334267bfb60e11b815260040160405180910390fd5b60028160078111156139c7576139c7614d94565b036139e5576040516343f871e760e11b815260040160405180910390fd5b60038160078111156139f9576139f9614d94565b03613a1757604051639afb7c5f60e01b815260040160405180910390fd5b6004816007811115613a2b57613a2b614d94565b03613a49576040516332314d6b60e11b815260040160405180910390fd5b6005816007811115613a5d57613a5d614d94565b03613a7b57604051633123155560e01b815260040160405180910390fd5b6006816007811115613a8f57613a8f614d94565b03613aad57604051631b210af760e21b815260040160405180910390fd5b6007816007811115613ac157613ac1614d94565b03613adf576040516339f73ba360e11b815260040160405180910390fd5b60405162461bcd60e51b815260206004820152600b60248201526a2ab735b737bbb71022a92960a91b604482015260640161080d565b50565b60006110ef838361459e565b60008181526020839052604081206003600182015460ff166003811115613b4d57613b4d614d94565b03613b68576040805184815260208101869052209150612ea2565b6000600182015460ff166003811115613b8357613b83614d94565b03613bc05760405162461bcd60e51b815260206004820152600d60248201526c15125108139bdd08119bdd5b99609a1b604482015260640161080d565b60405162461bcd60e51b815260206004820152601060248201526f125b1b1959d85b081512510814db1bdd60821b604482015260640161080d565b60008181526020839052604081206002600182015460ff166003811115613c2457613c24614d94565b03613c3f576040805184815260208101869052209150612ea2565b6000600182015460ff166003811115613c5a57613c5a614d94565b03613c9a5760405162461bcd60e51b815260206004820152601060248201526f149bdb19525908139bdd08119bdd5b9960821b604482015260640161080d565b60405162461bcd60e51b8152602060048201526013602482015272125b1b1959d85b08149bdb1952590814db1bdd606a1b604482015260640161080d565b60006110ef83836145c8565b7fb53127684a568b3173ae13b9f8a6016e243e63b6e8ee1178d6a717850b5d610380546001600160a01b0383166001600160a01b031990911681179091556040805191825251309133917f63fdbed5f2909ec44e3becc51e9d29654ce1447747914e8a6ebc019e7f640b8b9181900360200190a350565b60007f8b73c3c69bb8fe3d512ecc4cf759cc79239f7b179b0ffacaa9a75d522b39400f6000604051602001613d909190615cd5565b604051602081830303815290604052805190602001206001604051602001613db89190615cd5565b60408051601f1981840301815282825280516020918201209083019490945281019190915260608101919091524660808201523060a082015260c00160405160208183030381529060405280519060200120905090565b60606107bf826146bb565b604e5462010000900460ff16613e725760405162461bcd60e51b815260206004820152601960248201527f436f6e7472616374204e6f7420496e697469616c697a696e6700000000000000604482015260640161080d565b6000613e7f858783615d96565b506001613e8d838583615d96565b506001600160a01b0381163014613f73576001600160a01b0381163b613ec55760405162461bcd60e51b815260040161080d90615481565b6040516301ffc9a760e01b81526331501c3960e01b60048201526001600160a01b038216906301ffc9a790602401602060405180830381865afa158015613f10573d6000803e3d6000fd5b505050506040513d601f19601f82011682018060405250810190613f3491906154bf565b613f6e5760405162461bcd60e51b815260206004820152600b60248201526a125b1b1959d85b081050d360aa1b604482015260640161080d565b613fbf565b613f836331501c3960e01b61079a565b613fbf5760405162461bcd60e51b815260206004820152600d60248201526c139bdd0814dd5c1c1bdc9d1959609a1b604482015260640161080d565b600280546001600160b01b0319166001600160a01b038316179055612a7133613ce4565b60006110ef613ff56040850185615bcb565b8080601f016020809104026020016040519081016040528093929190818152602001838380828437600092019190915250614096925086915061403d90506020880188614c82565b61404d6040890160208a01615c11565b6001600160401b0316604080516020808201959095526001600160a01b039390931683820152606080840192909252805180840390920182526080909201909152805191012090565b614717565b6040516001600160601b0319606084901b1660208201526001600160e01b0319821660348201526000906038015b60405160208183030381529060405280519060200120905092915050565b60018160138111156140fb576140fb614d94565b03614119576040516338bb798160e21b815260040160405180910390fd5b600281601381111561412d5761412d614d94565b0361414b57604051634f69231960e11b815260040160405180910390fd5b600381601381111561415f5761415f614d94565b0361417d57604051637e33e43360e01b815260040160405180910390fd5b600481601381111561419157614191614d94565b036141af57604051630287b9e560e51b815260040160405180910390fd5b60058160138111156141c3576141c3614d94565b036141e157604051633beb1f4d60e11b815260040160405180910390fd5b60068160138111156141f5576141f5614d94565b036142135760405163036c45ad60e51b815260040160405180910390fd5b600781601381111561422757614227614d94565b036142455760405163c0af595f60e01b815260040160405180910390fd5b600881601381111561425957614259614d94565b036142775760405163249eeb8960e01b815260040160405180910390fd5b600981601381111561428b5761428b614d94565b036142a9576040516311fb41e160e21b815260040160405180910390fd5b600a8160138111156142bd576142bd614d94565b036142db57604051637331e2bb60e01b815260040160405180910390fd5b600b8160138111156142ef576142ef614d94565b0361430d5760405163163099ab60e01b815260040160405180910390fd5b600c81601381111561432157614321614d94565b0361433f5760405163975a86e560e01b815260040160405180910390fd5b600d81601381111561435357614353614d94565b0361437157604051631140570360e21b815260040160405180910390fd5b600e81601381111561438557614385614d94565b036143a357604051630622823b60e31b815260040160405180910390fd5b600f8160138111156143b7576143b7614d94565b036143d557604051636d30058d60e11b815260040160405180910390fd5b60108160138111156143e9576143e9614d94565b03614407576040516304acbcf160e51b815260040160405180910390fd5b601181601381111561441b5761441b614d94565b0361443957604051636effd2d560e01b815260040160405180910390fd5b601281601381111561444d5761444d614d94565b0361446a57604051623f318960e21b815260040160405180910390fd5b601381601381111561447e5761447e614d94565b03613adf57604051634bc7b56f60e11b815260040160405180910390fd5b600080516020615eae83398151915280546001600160a01b0319166001600160a01b0392909216919091179055565b60606144d68461478c565b6000835111806144e35750815b156145165761320284846040518060400160405280600b81526020016a10d85b1b0811985a5b195960aa1b8152506147d0565b604080516000808252602082019092529061282b565b600081815260208390526040812081600182015460ff16600381111561455457614554614d94565b1480614577575060018082015460ff16600381111561457557614575614d94565b145b15612e67576040805184815260208101869052209150612ea2565b60006110ef838361489e565b60008260000182815481106145b5576145b56154dc565b9060005260206000200154905092915050565b600081815260018301602052604081205480156146b15760006145ec600183615e55565b855490915060009061460090600190615e55565b9050818114614665576000866000018281548110614620576146206154dc565b9060005260206000200154905080876000018481548110614643576146436154dc565b6000918252602080832090910192909255918252600188019052604090208390555b855486908061467657614676615e68565b6001900381819060005260206000200160009055905585600101600086815260200190815260200160002060009055600193505050506107bf565b60009150506107bf565b60608160000180548060200260200160405190810160405280929190818152602001828054801561470b57602002820191906000526020600020905b8154815260200190600101908083116146f7575b50505050509050919050565b600080614723836148ed565b9050600080614732838761495a565b9092509050600081600481111561474b5761474b614d94565b1461282b5760405162461bcd60e51b8152602060048201526011602482015270496c6c6567616c205369676e617475726560781b604482015260640161080d565b6147958161449c565b6040516001600160a01b03821690309033907f8ee0f2bd29c0e6a975c3cc2e47cf2e01b5f23a9a8a02e0ed6a5a070269de3d2d90600090a450565b60606001600160a01b0384163b6148295760405162461bcd60e51b815260206004820152601860248201527f496c6c6567616c20436f6e747261637420416464726573730000000000000000604482015260640161080d565b600080856001600160a01b0316856040516148449190615e7e565b600060405180830381855af49150503d806000811461487f576040519150601f19603f3d011682016040523d82523d6000602084013e614884565b606091505b50915091506148948282866149c8565b9695505050505050565b60008181526001830160205260408120546148e5575081546001818101845560008481526020808220909301849055845484825282860190935260409020919091556107bf565b5060006107bf565b60006107bf306001600160a01b031663f698da256040518163ffffffff1660e01b8152600401602060405180830381865afa158015614930573d6000803e3d6000fd5b505050506040513d601f19601f820116820180604052508101906149549190615c4f565b83614a01565b60008082516041036149905760208301516040840151606085015160001a61498487828585614a28565b945094505050506149c1565b82516040036149b957602083015160408401516149ae868383614b15565b9350935050506149c1565b506000905060025b9250929050565b606083156149d75750816110ef565b8251156149e75782518084602001fd5b8160405162461bcd60e51b815260040161080d9190614f1d565b60405161190160f01b602082015260228101839052604281018290526000906062016140c9565b6000807f7fffffffffffffffffffffffffffffff5d576e7357a4501ddfe92f46681b20a0831115614a5f5750600090506003614b0c565b8460ff16601b14158015614a7757508460ff16601c14155b15614a885750600090506004614b0c565b6040805160008082526020820180845289905260ff881692820192909252606081018690526080810185905260019060a0016020604051602081039080840390855afa158015614adc573d6000803e3d6000fd5b5050604051601f1901519150506001600160a01b038116614b0557600060019250925050614b0c565b9150600090505b94509492505050565b6000806001600160ff1b03831681614b3260ff86901c601b615e9a565b9050614b4087828885614a28565b935093505050935093915050565b5080546000825590600052602060002090810190613b1591905b80821115614b7c5760008155600101614b68565b5090565b600060208284031215614b9257600080fd5b81356001600160e01b0319811681146110ef57600080fd5b60008083601f840112614bbc57600080fd5b5081356001600160401b03811115614bd357600080fd5b6020830191508360208285010111156149c157600080fd5b80356001600160a01b0381168114610d0457600080fd5b600080600080600060608688031215614c1a57600080fd5b85356001600160401b0380821115614c3157600080fd5b614c3d89838a01614baa565b90975095506020880135915080821115614c5657600080fd5b50614c6388828901614baa565b9094509250614c76905060408701614beb565b90509295509295909350565b600060208284031215614c9457600080fd5b6110ef82614beb565b60008060408385031215614cb057600080fd5b82359150614cc060208401614beb565b90509250929050565b600060208284031215614cdb57600080fd5b5035919050565b600060608284031215614cf457600080fd5b50919050565b600080600060408486031215614d0f57600080fd5b83356001600160401b0380821115614d2657600080fd5b614d3287838801614ce2565b94506020860135915080821115614d4857600080fd5b818601915086601f830112614d5c57600080fd5b813581811115614d6b57600080fd5b87602061026083028501011115614d8157600080fd5b6020830194508093505050509250925092565b634e487b7160e01b600052602160045260246000fd5b60028110613b1557613b15614d94565b60208101614dc783614daa565b91905290565b634e487b7160e01b600052604160045260246000fd5b8015158114613b1557600080fd5b8035610d0481614de3565b600080600060608486031215614e1157600080fd5b614e1a84614beb565b925060208401356001600160401b0380821115614e3657600080fd5b818601915086601f830112614e4a57600080fd5b813581811115614e5c57614e5c614dcd565b604051601f8201601f19908116603f01168101908382118183101715614e8457614e84614dcd565b81604052828152896020848701011115614e9d57600080fd5b826020860160208301376000602084830101528096505050505050614ec460408501614df1565b90509250925092565b60005b83811015614ee8578181015183820152602001614ed0565b50506000910152565b60008151808452614f09816020860160208601614ecd565b601f01601f19169290920160200192915050565b6020815260006110ef6020830184614ef1565b600080600060408486031215614f4557600080fd5b83356001600160401b0380821115614f5c57600080fd5b614f6887838801614ce2565b94506020860135915080821115614f7e57600080fd5b818601915086601f830112614f9257600080fd5b813581811115614fa157600080fd5b8760206102e083028501011115614d8157600080fd5b60008083601f840112614fc957600080fd5b5081356001600160401b03811115614fe057600080fd5b6020830191508360208260061b85010111156149c157600080fd5b60008060006040848603121561501057600080fd5b83356001600160401b038082111561502757600080fd5b61503387838801614ce2565b9450602086013591508082111561504957600080fd5b5061505686828701614fb7565b9497909650939450505050565b60048110613b1557613b15614d94565b61507c81615063565b9052565b815181526020808301516001600160a01b03169082015260408083015180516103208401926150b6919085019062ffffff169052565b602081015161ffff8116606085015250604081015161ffff8116608085015250606081015161ffff811660a085015250608081015161ffff811660c08501525060a081015161ffff811660e08501525060c081015161010061511d8186018361ffff169052565b60e083015191506101206151368187018461ffff169052565b9083015191506101409061514f8683018461ffff169052565b83015191506101606151668682018461ffff169052565b9083015191506101809061517f8683018461ffff169052565b83015191506101a06151958682018460ff169052565b9083015191506101c0906151ad8683018460ff169052565b83015191506101e06151c38682018460ff169052565b908301519150610200906151db8683018460ff169052565b83015191506102206151f18682018460ff169052565b9083015160ff90811661024087015292015190911661026084015250606083015161ffff16610280830152608083015161522f6102a0840182615073565b5060a08301516152436102c0840182615073565b5060c08301516152576102e0840182615073565b5060e0830151612ea2610300840182615073565b60008060006040848603121561528057600080fd5b83356001600160401b038082111561529757600080fd5b6152a387838801614ce2565b945060208601359150808211156152b957600080fd5b818601915086601f8301126152cd57600080fd5b8135818111156152dc57600080fd5b8760208260051b8501011115614d8157600080fd5b6000806040838503121561530457600080fd5b50508035926020909101359150565b60028110613b1557600080fd5b60006020828403121561533257600080fd5b81356110ef81615313565b6020808252825182820181905260009190848201906040850190845b8181101561537557835183529284019291840191600101615359565b50909695505050505050565b6020808252600c908201526b125b1b1959d85b0810d85b1b60a21b604082015260600190565b6020808252600c908201526b125b9d985b1a590810d85b1b60a21b604082015260600190565b81835281816020850137506000828201602090810191909152601f909101601f19169091010190565b60608152600061540a6060830187896153cd565b828103602084015261541d8186886153cd565b91505061ffff831660408301529695505050505050565b60208082526008908201526714995a9958dd195960c21b604082015260600190565b602080825260119082015270496c6c6567616c20557064617461626c6560781b604082015260600190565b60208082526010908201526f125b1b1959d85b0810dbdb9d1c9858dd60821b604082015260600190565b6020810160148310614dc757614dc7614d94565b6000602082840312156154d157600080fd5b81516110ef81614de3565b634e487b7160e01b600052603260045260246000fd5b61ffff81168114613b1557600080fd5b8035610d04816154f2565b60006020828403121561551f57600080fd5b81356110ef816154f2565b7f545950452e4c4956454c595f56455253452e4c4956454c595f4d454d4245525f81526526a0a9aa22a960d11b602082015260260190565b62ffffff81168114613b1557600080fd5b600081356107bf81615562565b600081356107bf816154f2565b60ff81168114613b1557600080fd5b600081356107bf8161558d565b6155ca6155b583615573565b825462ffffff191662ffffff91909116178255565b6155f56155d960208401615580565b825464ffff000000191660189190911b64ffff00000016178255565b61562461560460408401615580565b825466ffff0000000000191660289190911b66ffff000000000016178255565b61565761563360608401615580565b825468ffff00000000000000191660389190911b68ffff0000000000000016178255565b61568e61566660808401615580565b82546affff000000000000000000191660489190911b6affff00000000000000000016178255565b6156bd61569d60a08401615580565b82805461ffff60581b191660589290921b61ffff60581b16919091179055565b6156ec6156cc60c08401615580565b82805461ffff60681b191660689290921b61ffff60681b16919091179055565b61571b6156fb60e08401615580565b82805461ffff60781b191660789290921b61ffff60781b16919091179055565b61574b61572b6101008401615580565b82805461ffff60881b191660889290921b61ffff60881b16919091179055565b61577b61575b6101208401615580565b82805461ffff60981b191660989290921b61ffff60981b16919091179055565b6157ab61578b6101408401615580565b82805461ffff60a81b191660a89290921b61ffff60a81b16919091179055565b6157d96157bb610160840161559c565b82805460ff60b81b191660b89290921b60ff60b81b16919091179055565b6158076157e9610180840161559c565b82805460ff60c01b191660c09290921b60ff60c01b16919091179055565b6158356158176101a0840161559c565b82805460ff60c81b191660c89290921b60ff60c81b16919091179055565b6158636158456101c0840161559c565b82805460ff60d01b191660d09290921b60ff60d01b16919091179055565b6158916158736101e0840161559c565b82805460ff60d81b191660d89290921b60ff60d81b16919091179055565b6158bf6158a1610200840161559c565b82805460ff60e01b191660e09290921b60ff60e01b16919091179055565b61304d6158cf610220840161559c565b82805460ff60e81b191660e89290921b60ff60e81b16919091179055565b8035610d0481615562565b8035610d048161558d565b61591982615910836158ed565b62ffffff169052565b61592560208201615502565b61ffff16602083015261593a60408201615502565b61ffff16604083015261594f60608201615502565b61ffff16606083015261596460808201615502565b61ffff16608083015261597960a08201615502565b61ffff1660a083015261598e60c08201615502565b61ffff1660c08301526159a360e08201615502565b61ffff1660e08301526101006159ba828201615502565b61ffff16908301526101206159d0828201615502565b61ffff16908301526101406159e6828201615502565b61ffff16908301526101606159fc8282016158f8565b60ff1690830152610180615a118282016158f8565b60ff16908301526101a0615a268282016158f8565b60ff16908301526101c0615a3b8282016158f8565b60ff16908301526101e0615a508282016158f8565b60ff1690830152610200615a658282016158f8565b60ff1690830152610220615a7a8282016158f8565b60ff1692019190915250565b61024081016107bf8284615903565b634e487b7160e01b600052601160045260246000fd5b600060018201615abd57615abd615a95565b5060010190565b600181811c90821680615ad857607f821691505b602082108103614cf457634e487b7160e01b600052602260045260246000fd5b600382810b9082900b03637fffffff198112637fffffff821317156107bf576107bf615a95565b7f524f4c452e4c4956454c595f56455253452e4c4956454c595f4d41535445525f81526420a226a4a760d91b602082015260250190565b60048110613b1557600080fd5b600060208284031215615b7557600080fd5b81356110ef81615b56565b60208101614dc783615063565b600060208284031215615b9f57600080fd5b8151601481106110ef57600080fd5b600060208284031215615bc057600080fd5b81516110ef81615313565b6000808335601e19843603018112615be257600080fd5b8301803591506001600160401b03821115615bfc57600080fd5b6020019150368190038213156149c157600080fd5b600060208284031215615c2357600080fd5b81356001600160401b03811681146110ef57600080fd5b82815261026081016110ef6020830184615903565b600060208284031215615c6157600080fd5b5051919050565b62ffffff818116838216019080821115612ea257612ea2615a95565b6020810160088310614dc757614dc7614d94565b8381526020810183905261028081016112b46040830184615903565b600060208284031215615cc657600080fd5b8151600881106110ef57600080fd5b6000808354615ce381615ac4565b60018281168015615cfb5760018114615d1057615d3f565b60ff1984168752821515830287019450615d3f565b8760005260208060002060005b85811015615d365781548a820152908401908201615d1d565b50505082870194505b50929695505050505050565b601f821115615d9157600081815260208120601f850160051c81016020861015615d725750805b601f850160051c820191505b818110156109f357828155600101615d7e565b505050565b6001600160401b03831115615dad57615dad614dcd565b615dc183615dbb8354615ac4565b83615d4b565b6000601f841160018114615df55760008515615ddd5750838201355b600019600387901b1c1916600186901b178355612a71565b600083815260209020601f19861690835b82811015615e265786850135825560209485019460019092019101615e06565b5086821015615e435760001960f88860031b161c19848701351681555b505060018560011b0183555050505050565b818103818111156107bf576107bf615a95565b634e487b7160e01b600052603160045260246000fd5b60008251615e90818460208701614ecd565b9190910192915050565b808201808211156107bf576107bf615a9556fe360894a13ba1a3210667c828492db98dca3e2076cc3735a920a3ca505d382bbca26469706673582212203d7cd039af6a247ffe2eb43020b3c465119c9d4249d0cdbdeff1af48bd1e23ba64736f6c63430008130033",
  "libraries": {
    "LACLAgentScope": "0x33969217bDF56df99b4735b455C42b79EC99d57b"
  },
  "devdoc": {
    "author": "Sina Tadayon, https://github.com/SinaTadayon",
    "events": {
      "Initialized(address,address,address,string,string,uint16)": {
        "details": "Triggered when the contract has been initialized or reinitialized."
      },
      "ProxyLocalAdminUpdated(address,address,address)": {
        "details": "Emitted when the admin account has changed."
      }
    },
    "kind": "dev",
    "methods": {
      "proxiableUUID()": {
        "details": "Implementation of the ERC1822 {proxiableUUID} function. This returns the storage slot used by the implementation. It is used to validate that the this implementation remains valid after an upgrade. IMPORTANT: A proxy pointing at a proxiable contract should not be considered proxiable itself, because this risks bricking a proxy that upgrades to it, by delegating to itself until out of gas. Thus it is critical that this function revert if invoked through a proxy. This is guaranteed by the `notDelegated` modifier."
      },
      "supportsInterface(bytes4)": {
        "details": "See {IERC165-supportsInterface}."
      }
    },
    "title": "ACL Member Manager Contract",
    "version": 1
  },
  "userdoc": {
    "kind": "user",
    "methods": {},
    "version": 1
  },
  "storageLayout": {
    "storage": [
      {
        "astId": 82229,
        "contract": "src/contracts/acl/agent/MemberManager.sol:MemberManager",
        "label": "_contractName",
        "offset": 0,
        "slot": "0",
        "type": "t_string_storage"
      },
      {
        "astId": 82231,
        "contract": "src/contracts/acl/agent/MemberManager.sol:MemberManager",
        "label": "_contractVersion",
        "offset": 0,
        "slot": "1",
        "type": "t_string_storage"
      },
      {
        "astId": 82233,
        "contract": "src/contracts/acl/agent/MemberManager.sol:MemberManager",
        "label": "_accessControlManager",
        "offset": 0,
        "slot": "2",
        "type": "t_address"
      },
      {
        "astId": 82236,
        "contract": "src/contracts/acl/agent/MemberManager.sol:MemberManager",
        "label": "_sstat",
        "offset": 20,
        "slot": "2",
        "type": "t_enum(ProxySafeModeStatus)82251"
      },
      {
        "astId": 82239,
        "contract": "src/contracts/acl/agent/MemberManager.sol:MemberManager",
        "label": "_ustat",
        "offset": 21,
        "slot": "2",
        "type": "t_enum(ProxyUpdatabilityStatus)82254"
      },
      {
        "astId": 82244,
        "contract": "src/contracts/acl/agent/MemberManager.sol:MemberManager",
        "label": "__reserved",
        "offset": 0,
        "slot": "3",
        "type": "t_array(t_uint256)64_storage"
      },
      {
        "astId": 10383,
        "contract": "src/contracts/acl/agent/MemberManager.sol:MemberManager",
        "label": "_firstInit",
        "offset": 0,
        "slot": "67",
        "type": "t_bool"
      },
      {
        "astId": 10386,
        "contract": "src/contracts/acl/agent/MemberManager.sol:MemberManager",
        "label": "_data",
        "offset": 0,
        "slot": "68",
        "type": "t_struct(DataCollection)10239_storage"
      },
      {
        "astId": 82432,
        "contract": "src/contracts/acl/agent/MemberManager.sol:MemberManager",
        "label": "_initialized",
        "offset": 0,
        "slot": "78",
        "type": "t_uint16"
      },
      {
        "astId": 82435,
        "contract": "src/contracts/acl/agent/MemberManager.sol:MemberManager",
        "label": "_initializing",
        "offset": 2,
        "slot": "78",
        "type": "t_bool"
      }
    ],
    "types": {
      "t_address": {
        "encoding": "inplace",
        "label": "address",
        "numberOfBytes": "20"
      },
      "t_array(t_bytes32)dyn_storage": {
        "base": "t_bytes32",
        "encoding": "dynamic_array",
        "label": "bytes32[]",
        "numberOfBytes": "32"
      },
      "t_array(t_uint256)64_storage": {
        "base": "t_uint256",
        "encoding": "inplace",
        "label": "uint256[64]",
        "numberOfBytes": "2048"
      },
      "t_bool": {
        "encoding": "inplace",
        "label": "bool",
        "numberOfBytes": "1"
      },
      "t_bytes32": {
        "encoding": "inplace",
        "label": "bytes32",
        "numberOfBytes": "32"
      },
      "t_bytes4": {
        "encoding": "inplace",
        "label": "bytes4",
        "numberOfBytes": "4"
      },
      "t_enum(ActivityStatus)11721": {
        "encoding": "inplace",
        "label": "enum IACLCommons.ActivityStatus",
        "numberOfBytes": "1"
      },
      "t_enum(AgentType)11716": {
        "encoding": "inplace",
        "label": "enum IACLCommons.AgentType",
        "numberOfBytes": "1"
      },
      "t_enum(AlterabilityStatus)11726": {
        "encoding": "inplace",
        "label": "enum IACLCommons.AlterabilityStatus",
        "numberOfBytes": "1"
      },
      "t_enum(PolicyType)11744": {
        "encoding": "inplace",
        "label": "enum IACLCommons.PolicyType",
        "numberOfBytes": "1"
      },
      "t_enum(ProxySafeModeStatus)82251": {
        "encoding": "inplace",
        "label": "enum IBaseProxy.ProxySafeModeStatus",
        "numberOfBytes": "1"
      },
      "t_enum(ProxyUpdatabilityStatus)82254": {
        "encoding": "inplace",
        "label": "enum IBaseProxy.ProxyUpdatabilityStatus",
        "numberOfBytes": "1"
      },
      "t_enum(ScopeType)11733": {
        "encoding": "inplace",
        "label": "enum IACLCommons.ScopeType",
        "numberOfBytes": "1"
      },
      "t_mapping(t_address,t_struct(FacetEntity)11945_storage)": {
        "encoding": "mapping",
        "key": "t_address",
        "label": "mapping(address => struct IACLCommons.FacetEntity)",
        "numberOfBytes": "32",
        "value": "t_struct(FacetEntity)11945_storage"
      },
      "t_mapping(t_address,t_struct(ProfileAccount)12018_storage)": {
        "encoding": "mapping",
        "key": "t_address",
        "label": "mapping(address => struct IACLCommons.ProfileAccount)",
        "numberOfBytes": "32",
        "value": "t_struct(ProfileAccount)12018_storage"
      },
      "t_mapping(t_bytes32,t_bytes32)": {
        "encoding": "mapping",
        "key": "t_bytes32",
        "label": "mapping(bytes32 => bytes32)",
        "numberOfBytes": "32",
        "value": "t_bytes32"
      },
      "t_mapping(t_bytes32,t_struct(BaseAgent)11756_storage)": {
        "encoding": "mapping",
        "key": "t_bytes32",
        "label": "mapping(bytes32 => struct IACLCommons.BaseAgent)",
        "numberOfBytes": "32",
        "value": "t_struct(BaseAgent)11756_storage"
      },
      "t_mapping(t_bytes32,t_struct(BaseScope)11770_storage)": {
        "encoding": "mapping",
        "key": "t_bytes32",
        "label": "mapping(bytes32 => struct IACLCommons.BaseScope)",
        "numberOfBytes": "32",
        "value": "t_struct(BaseScope)11770_storage"
      },
      "t_mapping(t_bytes32,t_struct(PolicyEntity)11793_storage)": {
        "encoding": "mapping",
        "key": "t_bytes32",
        "label": "mapping(bytes32 => struct IACLCommons.PolicyEntity)",
        "numberOfBytes": "32",
        "value": "t_struct(PolicyEntity)11793_storage"
      },
      "t_mapping(t_bytes32,t_struct(ProfileEntity)12059_storage)": {
        "encoding": "mapping",
        "key": "t_bytes32",
        "label": "mapping(bytes32 => struct IACLCommons.ProfileEntity)",
        "numberOfBytes": "32",
        "value": "t_struct(ProfileEntity)12059_storage"
      },
      "t_mapping(t_bytes32,t_uint256)": {
        "encoding": "mapping",
        "key": "t_bytes32",
        "label": "mapping(bytes32 => uint256)",
        "numberOfBytes": "32",
        "value": "t_uint256"
      },
      "t_mapping(t_bytes4,t_address)": {
        "encoding": "mapping",
        "key": "t_bytes4",
        "label": "mapping(bytes4 => address)",
        "numberOfBytes": "32",
        "value": "t_address"
      },
      "t_string_storage": {
        "encoding": "bytes",
        "label": "string",
        "numberOfBytes": "32"
      },
      "t_struct(AddressSet)79783_storage": {
        "encoding": "inplace",
        "label": "struct LEnumerableSet.AddressSet",
        "members": [
          {
            "astId": 79782,
            "contract": "src/contracts/acl/agent/MemberManager.sol:MemberManager",
            "label": "_inner",
            "offset": 0,
            "slot": "0",
            "type": "t_struct(Set)79482_storage"
          }
        ],
        "numberOfBytes": "64"
      },
      "t_struct(BaseAgent)11756_storage": {
        "encoding": "inplace",
        "label": "struct IACLCommons.BaseAgent",
        "members": [
          {
            "astId": 11746,
            "contract": "src/contracts/acl/agent/MemberManager.sol:MemberManager",
            "label": "adminId",
            "offset": 0,
            "slot": "0",
            "type": "t_bytes32"
          },
          {
            "astId": 11749,
            "contract": "src/contracts/acl/agent/MemberManager.sol:MemberManager",
            "label": "atype",
            "offset": 0,
            "slot": "1",
            "type": "t_enum(AgentType)11716"
          },
          {
            "astId": 11752,
            "contract": "src/contracts/acl/agent/MemberManager.sol:MemberManager",
            "label": "acstat",
            "offset": 1,
            "slot": "1",
            "type": "t_enum(ActivityStatus)11721"
          },
          {
            "astId": 11755,
            "contract": "src/contracts/acl/agent/MemberManager.sol:MemberManager",
            "label": "alstat",
            "offset": 2,
            "slot": "1",
            "type": "t_enum(AlterabilityStatus)11726"
          }
        ],
        "numberOfBytes": "64"
      },
      "t_struct(BaseScope)11770_storage": {
        "encoding": "inplace",
        "label": "struct IACLCommons.BaseScope",
        "members": [
          {
            "astId": 11758,
            "contract": "src/contracts/acl/agent/MemberManager.sol:MemberManager",
            "label": "adminId",
            "offset": 0,
            "slot": "0",
            "type": "t_bytes32"
          },
          {
            "astId": 11761,
            "contract": "src/contracts/acl/agent/MemberManager.sol:MemberManager",
            "label": "stype",
            "offset": 0,
            "slot": "1",
            "type": "t_enum(ScopeType)11733"
          },
          {
            "astId": 11764,
            "contract": "src/contracts/acl/agent/MemberManager.sol:MemberManager",
            "label": "acstat",
            "offset": 1,
            "slot": "1",
            "type": "t_enum(ActivityStatus)11721"
          },
          {
            "astId": 11767,
            "contract": "src/contracts/acl/agent/MemberManager.sol:MemberManager",
            "label": "alstat",
            "offset": 2,
            "slot": "1",
            "type": "t_enum(AlterabilityStatus)11726"
          },
          {
            "astId": 11769,
            "contract": "src/contracts/acl/agent/MemberManager.sol:MemberManager",
            "label": "referredByAgent",
            "offset": 3,
            "slot": "1",
            "type": "t_uint32"
          }
        ],
        "numberOfBytes": "64"
      },
      "t_struct(Bytes32Set)79676_storage": {
        "encoding": "inplace",
        "label": "struct LEnumerableSet.Bytes32Set",
        "members": [
          {
            "astId": 79675,
            "contract": "src/contracts/acl/agent/MemberManager.sol:MemberManager",
            "label": "_inner",
            "offset": 0,
            "slot": "0",
            "type": "t_struct(Set)79482_storage"
          }
        ],
        "numberOfBytes": "64"
      },
      "t_struct(DataCollection)10239_storage": {
        "encoding": "inplace",
        "label": "struct ACLStorage.DataCollection",
        "members": [
          {
            "astId": 10202,
            "contract": "src/contracts/acl/agent/MemberManager.sol:MemberManager",
            "label": "agents",
            "offset": 0,
            "slot": "0",
            "type": "t_mapping(t_bytes32,t_struct(BaseAgent)11756_storage)"
          },
          {
            "astId": 10207,
            "contract": "src/contracts/acl/agent/MemberManager.sol:MemberManager",
            "label": "scopes",
            "offset": 0,
            "slot": "1",
            "type": "t_mapping(t_bytes32,t_struct(BaseScope)11770_storage)"
          },
          {
            "astId": 10212,
            "contract": "src/contracts/acl/agent/MemberManager.sol:MemberManager",
            "label": "policies",
            "offset": 0,
            "slot": "2",
            "type": "t_mapping(t_bytes32,t_struct(PolicyEntity)11793_storage)"
          },
          {
            "astId": 10216,
            "contract": "src/contracts/acl/agent/MemberManager.sol:MemberManager",
            "label": "rolePolicyMap",
            "offset": 0,
            "slot": "3",
            "type": "t_mapping(t_bytes32,t_bytes32)"
          },
          {
            "astId": 10221,
            "contract": "src/contracts/acl/agent/MemberManager.sol:MemberManager",
            "label": "profiles",
            "offset": 0,
            "slot": "4",
            "type": "t_mapping(t_bytes32,t_struct(ProfileEntity)12059_storage)"
          },
          {
            "astId": 10226,
            "contract": "src/contracts/acl/agent/MemberManager.sol:MemberManager",
            "label": "profileAccounts",
            "offset": 0,
            "slot": "5",
            "type": "t_mapping(t_address,t_struct(ProfileAccount)12018_storage)"
          },
          {
            "astId": 10230,
            "contract": "src/contracts/acl/agent/MemberManager.sol:MemberManager",
            "label": "selectors",
            "offset": 0,
            "slot": "6",
            "type": "t_mapping(t_bytes4,t_address)"
          },
          {
            "astId": 10235,
            "contract": "src/contracts/acl/agent/MemberManager.sol:MemberManager",
            "label": "facets",
            "offset": 0,
            "slot": "7",
            "type": "t_mapping(t_address,t_struct(FacetEntity)11945_storage)"
          },
          {
            "astId": 10238,
            "contract": "src/contracts/acl/agent/MemberManager.sol:MemberManager",
            "label": "facetSet",
            "offset": 0,
            "slot": "8",
            "type": "t_struct(AddressSet)79783_storage"
          }
        ],
        "numberOfBytes": "320"
      },
      "t_struct(FacetEntity)11945_storage": {
        "encoding": "inplace",
        "label": "struct IACLCommons.FacetEntity",
        "members": [
          {
            "astId": 11944,
            "contract": "src/contracts/acl/agent/MemberManager.sol:MemberManager",
            "label": "subjectId",
            "offset": 0,
            "slot": "0",
            "type": "t_address"
          }
        ],
        "numberOfBytes": "32"
      },
      "t_struct(PolicyEntity)11793_storage": {
        "encoding": "inplace",
        "label": "struct IACLCommons.PolicyEntity",
        "members": [
          {
            "astId": 11772,
            "contract": "src/contracts/acl/agent/MemberManager.sol:MemberManager",
            "label": "adminId",
            "offset": 0,
            "slot": "0",
            "type": "t_bytes32"
          },
          {
            "astId": 11774,
            "contract": "src/contracts/acl/agent/MemberManager.sol:MemberManager",
            "label": "scopeId",
            "offset": 0,
            "slot": "1",
            "type": "t_bytes32"
          },
          {
            "astId": 11776,
            "contract": "src/contracts/acl/agent/MemberManager.sol:MemberManager",
            "label": "name",
            "offset": 0,
            "slot": "2",
            "type": "t_string_storage"
          },
          {
            "astId": 11778,
            "contract": "src/contracts/acl/agent/MemberManager.sol:MemberManager",
            "label": "roleLimit",
            "offset": 0,
            "slot": "3",
            "type": "t_uint16"
          },
          {
            "astId": 11780,
            "contract": "src/contracts/acl/agent/MemberManager.sol:MemberManager",
            "label": "policyCode",
            "offset": 2,
            "slot": "3",
            "type": "t_uint8"
          },
          {
            "astId": 11783,
            "contract": "src/contracts/acl/agent/MemberManager.sol:MemberManager",
            "label": "ptype",
            "offset": 3,
            "slot": "3",
            "type": "t_enum(PolicyType)11744"
          },
          {
            "astId": 11786,
            "contract": "src/contracts/acl/agent/MemberManager.sol:MemberManager",
            "label": "acstat",
            "offset": 4,
            "slot": "3",
            "type": "t_enum(ActivityStatus)11721"
          },
          {
            "astId": 11789,
            "contract": "src/contracts/acl/agent/MemberManager.sol:MemberManager",
            "label": "alstat",
            "offset": 5,
            "slot": "3",
            "type": "t_enum(AlterabilityStatus)11726"
          },
          {
            "astId": 11792,
            "contract": "src/contracts/acl/agent/MemberManager.sol:MemberManager",
            "label": "roles",
            "offset": 0,
            "slot": "4",
            "type": "t_struct(Bytes32Set)79676_storage"
          }
        ],
        "numberOfBytes": "192"
      },
      "t_struct(ProfileAccount)12018_storage": {
        "encoding": "inplace",
        "label": "struct IACLCommons.ProfileAccount",
        "members": [
          {
            "astId": 12017,
            "contract": "src/contracts/acl/agent/MemberManager.sol:MemberManager",
            "label": "profiles",
            "offset": 0,
            "slot": "0",
            "type": "t_array(t_bytes32)dyn_storage"
          }
        ],
        "numberOfBytes": "32"
      },
      "t_struct(ProfileEntity)12059_storage": {
        "encoding": "inplace",
        "label": "struct IACLCommons.ProfileEntity",
        "members": [
          {
            "astId": 12023,
            "contract": "src/contracts/acl/agent/MemberManager.sol:MemberManager",
            "label": "agents",
            "offset": 0,
            "slot": "0",
            "type": "t_mapping(t_bytes32,t_struct(BaseAgent)11756_storage)"
          },
          {
            "astId": 12028,
            "contract": "src/contracts/acl/agent/MemberManager.sol:MemberManager",
            "label": "scopes",
            "offset": 0,
            "slot": "1",
            "type": "t_mapping(t_bytes32,t_struct(BaseScope)11770_storage)"
          },
          {
            "astId": 12033,
            "contract": "src/contracts/acl/agent/MemberManager.sol:MemberManager",
            "label": "policies",
            "offset": 0,
            "slot": "2",
            "type": "t_mapping(t_bytes32,t_struct(PolicyEntity)11793_storage)"
          },
          {
            "astId": 12037,
            "contract": "src/contracts/acl/agent/MemberManager.sol:MemberManager",
            "label": "rolePolicyMap",
            "offset": 0,
            "slot": "3",
            "type": "t_mapping(t_bytes32,t_bytes32)"
          },
          {
            "astId": 12040,
            "contract": "src/contracts/acl/agent/MemberManager.sol:MemberManager",
            "label": "admins",
            "offset": 0,
            "slot": "4",
            "type": "t_struct(Bytes32Set)79676_storage"
          },
          {
            "astId": 12042,
            "contract": "src/contracts/acl/agent/MemberManager.sol:MemberManager",
            "label": "adminId",
            "offset": 0,
            "slot": "6",
            "type": "t_bytes32"
          },
          {
            "astId": 12044,
            "contract": "src/contracts/acl/agent/MemberManager.sol:MemberManager",
            "label": "name",
            "offset": 0,
            "slot": "7",
            "type": "t_string_storage"
          },
          {
            "astId": 12046,
            "contract": "src/contracts/acl/agent/MemberManager.sol:MemberManager",
            "label": "owner",
            "offset": 0,
            "slot": "8",
            "type": "t_address"
          },
          {
            "astId": 12049,
            "contract": "src/contracts/acl/agent/MemberManager.sol:MemberManager",
            "label": "acstat",
            "offset": 20,
            "slot": "8",
            "type": "t_enum(ActivityStatus)11721"
          },
          {
            "astId": 12052,
            "contract": "src/contracts/acl/agent/MemberManager.sol:MemberManager",
            "label": "alstat",
            "offset": 21,
            "slot": "8",
            "type": "t_enum(AlterabilityStatus)11726"
          },
          {
            "astId": 12055,
            "contract": "src/contracts/acl/agent/MemberManager.sol:MemberManager",
            "label": "registerLimits",
            "offset": 0,
            "slot": "9",
            "type": "t_struct(ProfileRegisterLimit)11993_storage"
          },
          {
            "astId": 12058,
            "contract": "src/contracts/acl/agent/MemberManager.sol:MemberManager",
            "label": "limits",
            "offset": 0,
            "slot": "10",
            "type": "t_struct(ProfileLimit)12014_storage"
          }
        ],
        "numberOfBytes": "352"
      },
      "t_struct(ProfileLimit)12014_storage": {
        "encoding": "inplace",
        "label": "struct IACLCommons.ProfileLimit",
        "members": [
          {
            "astId": 11995,
            "contract": "src/contracts/acl/agent/MemberManager.sol:MemberManager",
            "label": "profileCallLimit",
            "offset": 0,
            "slot": "0",
            "type": "t_uint32"
          },
          {
            "astId": 11997,
            "contract": "src/contracts/acl/agent/MemberManager.sol:MemberManager",
            "label": "contextLimit",
            "offset": 4,
            "slot": "0",
            "type": "t_uint32"
          },
          {
            "astId": 11999,
            "contract": "src/contracts/acl/agent/MemberManager.sol:MemberManager",
            "label": "memberLimit",
            "offset": 8,
            "slot": "0",
            "type": "t_uint24"
          },
          {
            "astId": 12001,
            "contract": "src/contracts/acl/agent/MemberManager.sol:MemberManager",
            "label": "realmLimit",
            "offset": 11,
            "slot": "0",
            "type": "t_uint16"
          },
          {
            "astId": 12003,
            "contract": "src/contracts/acl/agent/MemberManager.sol:MemberManager",
            "label": "domainLimit",
            "offset": 13,
            "slot": "0",
            "type": "t_uint16"
          },
          {
            "astId": 12005,
            "contract": "src/contracts/acl/agent/MemberManager.sol:MemberManager",
            "label": "memberCallLimit",
            "offset": 15,
            "slot": "0",
            "type": "t_uint16"
          },
          {
            "astId": 12007,
            "contract": "src/contracts/acl/agent/MemberManager.sol:MemberManager",
            "label": "typeRoleLimit",
            "offset": 17,
            "slot": "0",
            "type": "t_uint16"
          },
          {
            "astId": 12009,
            "contract": "src/contracts/acl/agent/MemberManager.sol:MemberManager",
            "label": "typeLimit",
            "offset": 19,
            "slot": "0",
            "type": "t_uint16"
          },
          {
            "astId": 12011,
            "contract": "src/contracts/acl/agent/MemberManager.sol:MemberManager",
            "label": "policyRoleLimit",
            "offset": 21,
            "slot": "0",
            "type": "t_uint16"
          },
          {
            "astId": 12013,
            "contract": "src/contracts/acl/agent/MemberManager.sol:MemberManager",
            "label": "functionLimit",
            "offset": 23,
            "slot": "0",
            "type": "t_uint8"
          }
        ],
        "numberOfBytes": "32"
      },
      "t_struct(ProfileRegisterLimit)11993_storage": {
        "encoding": "inplace",
        "label": "struct IACLCommons.ProfileRegisterLimit",
        "members": [
          {
            "astId": 11978,
            "contract": "src/contracts/acl/agent/MemberManager.sol:MemberManager",
            "label": "memberRegisterLimit",
            "offset": 0,
            "slot": "0",
            "type": "t_uint32"
          },
          {
            "astId": 11980,
            "contract": "src/contracts/acl/agent/MemberManager.sol:MemberManager",
            "label": "roleRegisterLimit",
            "offset": 4,
            "slot": "0",
            "type": "t_uint32"
          },
          {
            "astId": 11982,
            "contract": "src/contracts/acl/agent/MemberManager.sol:MemberManager",
            "label": "typeRegisterLimit",
            "offset": 8,
            "slot": "0",
            "type": "t_uint32"
          },
          {
            "astId": 11984,
            "contract": "src/contracts/acl/agent/MemberManager.sol:MemberManager",
            "label": "functionRegisterLimit",
            "offset": 12,
            "slot": "0",
            "type": "t_uint32"
          },
          {
            "astId": 11986,
            "contract": "src/contracts/acl/agent/MemberManager.sol:MemberManager",
            "label": "contextRegisterLimit",
            "offset": 16,
            "slot": "0",
            "type": "t_uint32"
          },
          {
            "astId": 11988,
            "contract": "src/contracts/acl/agent/MemberManager.sol:MemberManager",
            "label": "realmRegisterLimit",
            "offset": 20,
            "slot": "0",
            "type": "t_uint16"
          },
          {
            "astId": 11990,
            "contract": "src/contracts/acl/agent/MemberManager.sol:MemberManager",
            "label": "domainRegisterLimit",
            "offset": 22,
            "slot": "0",
            "type": "t_uint16"
          },
          {
            "astId": 11992,
            "contract": "src/contracts/acl/agent/MemberManager.sol:MemberManager",
            "label": "policyRegisterLimit",
            "offset": 24,
            "slot": "0",
            "type": "t_uint16"
          }
        ],
        "numberOfBytes": "32"
      },
      "t_struct(Set)79482_storage": {
        "encoding": "inplace",
        "label": "struct LEnumerableSet.Set",
        "members": [
          {
            "astId": 79477,
            "contract": "src/contracts/acl/agent/MemberManager.sol:MemberManager",
            "label": "_values",
            "offset": 0,
            "slot": "0",
            "type": "t_array(t_bytes32)dyn_storage"
          },
          {
            "astId": 79481,
            "contract": "src/contracts/acl/agent/MemberManager.sol:MemberManager",
            "label": "_indexes",
            "offset": 0,
            "slot": "1",
            "type": "t_mapping(t_bytes32,t_uint256)"
          }
        ],
        "numberOfBytes": "64"
      },
      "t_uint16": {
        "encoding": "inplace",
        "label": "uint16",
        "numberOfBytes": "2"
      },
      "t_uint24": {
        "encoding": "inplace",
        "label": "uint24",
        "numberOfBytes": "3"
      },
      "t_uint256": {
        "encoding": "inplace",
        "label": "uint256",
        "numberOfBytes": "32"
      },
      "t_uint32": {
        "encoding": "inplace",
        "label": "uint32",
        "numberOfBytes": "4"
      },
      "t_uint8": {
        "encoding": "inplace",
        "label": "uint8",
        "numberOfBytes": "1"
      }
    }
  }
}