{
  "address": "0xd331527888B5Ad888f8Ee7a061391074b8B72522",
  "abi": [
    {
      "inputs": [],
      "stateMutability": "nonpayable",
      "type": "constructor"
    },
    {
      "inputs": [
        {
          "internalType": "enum IACL.AuthorizationStatus",
          "name": "",
          "type": "uint8"
        }
      ],
      "name": "ACLActionForbidden",
      "type": "error"
    },
    {
      "inputs": [],
      "name": "ProfileAdminAccessFunctionNotFound",
      "type": "error"
    },
    {
      "inputs": [],
      "name": "ProfileAdminAccessNotPermitted",
      "type": "error"
    },
    {
      "inputs": [],
      "name": "ProfileAdminAccessPolicyForbidden",
      "type": "error"
    },
    {
      "inputs": [],
      "name": "ProfileAdminAccessRoleActivityForbidden",
      "type": "error"
    },
    {
      "inputs": [],
      "name": "ProfileAdminAccessRoleNotFound",
      "type": "error"
    },
    {
      "inputs": [],
      "name": "ProfileAdminAccessTypeActivityForbidden",
      "type": "error"
    },
    {
      "inputs": [],
      "name": "ProfileAdminAccessTypeNotFound",
      "type": "error"
    },
    {
      "anonymous": false,
      "inputs": [
        {
          "indexed": true,
          "internalType": "address",
          "name": "sender",
          "type": "address"
        },
        {
          "indexed": true,
          "internalType": "address",
          "name": "proxy",
          "type": "address"
        },
        {
          "indexed": true,
          "internalType": "address",
          "name": "subject",
          "type": "address"
        },
        {
          "indexed": false,
          "internalType": "string",
          "name": "name",
          "type": "string"
        },
        {
          "indexed": false,
          "internalType": "string",
          "name": "version",
          "type": "string"
        },
        {
          "indexed": false,
          "internalType": "uint16",
          "name": "initCount",
          "type": "uint16"
        }
      ],
      "name": "Initialized",
      "type": "event"
    },
    {
      "anonymous": false,
      "inputs": [
        {
          "indexed": true,
          "internalType": "address",
          "name": "sender",
          "type": "address"
        },
        {
          "indexed": true,
          "internalType": "bytes32",
          "name": "profileId",
          "type": "bytes32"
        },
        {
          "indexed": true,
          "internalType": "bytes32",
          "name": "roleId",
          "type": "bytes32"
        },
        {
          "indexed": false,
          "internalType": "enum IACLCommons.ActivityStatus",
          "name": "acstat",
          "type": "uint8"
        }
      ],
      "name": "ProfileRoleActivityUpdated",
      "type": "event"
    },
    {
      "anonymous": false,
      "inputs": [
        {
          "indexed": true,
          "internalType": "address",
          "name": "sender",
          "type": "address"
        },
        {
          "indexed": true,
          "internalType": "bytes32",
          "name": "profileId",
          "type": "bytes32"
        },
        {
          "indexed": true,
          "internalType": "bytes32",
          "name": "roleId",
          "type": "bytes32"
        },
        {
          "indexed": false,
          "internalType": "bytes32",
          "name": "adminId",
          "type": "bytes32"
        }
      ],
      "name": "ProfileRoleAdminUpdated",
      "type": "event"
    },
    {
      "anonymous": false,
      "inputs": [
        {
          "indexed": true,
          "internalType": "address",
          "name": "sender",
          "type": "address"
        },
        {
          "indexed": true,
          "internalType": "bytes32",
          "name": "profileId",
          "type": "bytes32"
        },
        {
          "indexed": true,
          "internalType": "bytes32",
          "name": "roleId",
          "type": "bytes32"
        },
        {
          "indexed": false,
          "internalType": "enum IACLCommons.AlterabilityStatus",
          "name": "alstat",
          "type": "uint8"
        }
      ],
      "name": "ProfileRoleAlterabilityUpdated",
      "type": "event"
    },
    {
      "anonymous": false,
      "inputs": [
        {
          "indexed": true,
          "internalType": "address",
          "name": "sender",
          "type": "address"
        },
        {
          "indexed": true,
          "internalType": "bytes32",
          "name": "profileId",
          "type": "bytes32"
        },
        {
          "indexed": true,
          "internalType": "bytes32",
          "name": "memberId",
          "type": "bytes32"
        },
        {
          "indexed": false,
          "internalType": "bytes32",
          "name": "roleId",
          "type": "bytes32"
        },
        {
          "indexed": false,
          "internalType": "bytes32",
          "name": "typeId",
          "type": "bytes32"
        },
        {
          "indexed": false,
          "internalType": "address",
          "name": "account",
          "type": "address"
        }
      ],
      "name": "ProfileRoleMemberDeleted",
      "type": "event"
    },
    {
      "anonymous": false,
      "inputs": [
        {
          "indexed": true,
          "internalType": "address",
          "name": "sender",
          "type": "address"
        },
        {
          "indexed": true,
          "internalType": "bytes32",
          "name": "profileId",
          "type": "bytes32"
        },
        {
          "indexed": true,
          "internalType": "bytes32",
          "name": "roleId",
          "type": "bytes32"
        },
        {
          "indexed": false,
          "internalType": "bytes32",
          "name": "memberId",
          "type": "bytes32"
        },
        {
          "indexed": false,
          "internalType": "bytes32",
          "name": "typeId",
          "type": "bytes32"
        }
      ],
      "name": "ProfileRoleMemberGranted",
      "type": "event"
    },
    {
      "anonymous": false,
      "inputs": [
        {
          "indexed": true,
          "internalType": "address",
          "name": "sender",
          "type": "address"
        },
        {
          "indexed": true,
          "internalType": "bytes32",
          "name": "profileId",
          "type": "bytes32"
        },
        {
          "indexed": true,
          "internalType": "bytes32",
          "name": "roleId",
          "type": "bytes32"
        },
        {
          "indexed": false,
          "internalType": "uint24",
          "name": "memberLimit",
          "type": "uint24"
        }
      ],
      "name": "ProfileRoleMemberLimitUpdated",
      "type": "event"
    },
    {
      "anonymous": false,
      "inputs": [
        {
          "indexed": true,
          "internalType": "address",
          "name": "sender",
          "type": "address"
        },
        {
          "indexed": true,
          "internalType": "bytes32",
          "name": "profileId",
          "type": "bytes32"
        },
        {
          "indexed": true,
          "internalType": "bytes32",
          "name": "roleId",
          "type": "bytes32"
        },
        {
          "indexed": false,
          "internalType": "bytes32",
          "name": "memberId",
          "type": "bytes32"
        },
        {
          "indexed": false,
          "internalType": "bytes32",
          "name": "typeId",
          "type": "bytes32"
        }
      ],
      "name": "ProfileRoleMemberRevoked",
      "type": "event"
    },
    {
      "anonymous": false,
      "inputs": [
        {
          "indexed": true,
          "internalType": "address",
          "name": "sender",
          "type": "address"
        },
        {
          "indexed": true,
          "internalType": "bytes32",
          "name": "profileId",
          "type": "bytes32"
        },
        {
          "indexed": true,
          "internalType": "bytes32",
          "name": "roleId",
          "type": "bytes32"
        },
        {
          "indexed": false,
          "internalType": "bytes32",
          "name": "typeId",
          "type": "bytes32"
        },
        {
          "indexed": false,
          "internalType": "bytes32",
          "name": "adminId",
          "type": "bytes32"
        },
        {
          "indexed": false,
          "internalType": "bytes32",
          "name": "scopeId",
          "type": "bytes32"
        }
      ],
      "name": "ProfileRoleRegistered",
      "type": "event"
    },
    {
      "anonymous": false,
      "inputs": [
        {
          "indexed": true,
          "internalType": "address",
          "name": "sender",
          "type": "address"
        },
        {
          "indexed": true,
          "internalType": "bytes32",
          "name": "profileId",
          "type": "bytes32"
        },
        {
          "indexed": true,
          "internalType": "bytes32",
          "name": "roleId",
          "type": "bytes32"
        }
      ],
      "name": "ProfileRoleRemoved",
      "type": "event"
    },
    {
      "anonymous": false,
      "inputs": [
        {
          "indexed": true,
          "internalType": "address",
          "name": "sender",
          "type": "address"
        },
        {
          "indexed": true,
          "internalType": "bytes32",
          "name": "profileId",
          "type": "bytes32"
        },
        {
          "indexed": true,
          "internalType": "bytes32",
          "name": "roleId",
          "type": "bytes32"
        },
        {
          "indexed": false,
          "internalType": "bytes32",
          "name": "scopeId",
          "type": "bytes32"
        }
      ],
      "name": "ProfileRoleScopeUpdated",
      "type": "event"
    },
    {
      "anonymous": false,
      "inputs": [
        {
          "indexed": true,
          "internalType": "address",
          "name": "sender",
          "type": "address"
        },
        {
          "indexed": true,
          "internalType": "address",
          "name": "proxy",
          "type": "address"
        },
        {
          "indexed": false,
          "internalType": "address",
          "name": "acl",
          "type": "address"
        }
      ],
      "name": "ProxyAccessControlUpdated",
      "type": "event"
    },
    {
      "anonymous": false,
      "inputs": [
        {
          "indexed": true,
          "internalType": "address",
          "name": "sender",
          "type": "address"
        },
        {
          "indexed": true,
          "internalType": "address",
          "name": "proxy",
          "type": "address"
        },
        {
          "indexed": false,
          "internalType": "address",
          "name": "newAdmin",
          "type": "address"
        }
      ],
      "name": "ProxyLocalAdminUpdated",
      "type": "event"
    },
    {
      "anonymous": false,
      "inputs": [
        {
          "indexed": true,
          "internalType": "address",
          "name": "sender",
          "type": "address"
        },
        {
          "indexed": true,
          "internalType": "address",
          "name": "proxy",
          "type": "address"
        },
        {
          "indexed": false,
          "internalType": "enum IBaseProxy.ProxySafeModeStatus",
          "name": "sstat",
          "type": "uint8"
        }
      ],
      "name": "ProxySafeModeUpdated",
      "type": "event"
    },
    {
      "anonymous": false,
      "inputs": [
        {
          "indexed": true,
          "internalType": "address",
          "name": "sender",
          "type": "address"
        },
        {
          "indexed": true,
          "internalType": "address",
          "name": "proxy",
          "type": "address"
        },
        {
          "indexed": false,
          "internalType": "enum IBaseProxy.ProxyUpdatabilityStatus",
          "name": "ustat",
          "type": "uint8"
        }
      ],
      "name": "ProxyUpdatabilityUpdated",
      "type": "event"
    },
    {
      "anonymous": false,
      "inputs": [
        {
          "indexed": true,
          "internalType": "address",
          "name": "sender",
          "type": "address"
        },
        {
          "indexed": true,
          "internalType": "address",
          "name": "proxy",
          "type": "address"
        },
        {
          "indexed": true,
          "internalType": "address",
          "name": "newImplementation",
          "type": "address"
        }
      ],
      "name": "ProxyUpgraded",
      "type": "event"
    },
    {
      "stateMutability": "payable",
      "type": "fallback"
    },
    {
      "inputs": [],
      "name": "CTX_MESSAGE_TYPEHASH",
      "outputs": [
        {
          "internalType": "bytes32",
          "name": "",
          "type": "bytes32"
        }
      ],
      "stateMutability": "view",
      "type": "function"
    },
    {
      "inputs": [],
      "name": "MEMBER_SIGNATURE_MESSAGE_TYPEHASH",
      "outputs": [
        {
          "internalType": "bytes32",
          "name": "",
          "type": "bytes32"
        }
      ],
      "stateMutability": "view",
      "type": "function"
    },
    {
      "inputs": [],
      "name": "PREDICT_CTX_MESSAGE_TYPEHASH",
      "outputs": [
        {
          "internalType": "bytes32",
          "name": "",
          "type": "bytes32"
        }
      ],
      "stateMutability": "view",
      "type": "function"
    },
    {
      "inputs": [],
      "name": "PROFILE_CTX_MESSAGE_TYPEHASH",
      "outputs": [
        {
          "internalType": "bytes32",
          "name": "",
          "type": "bytes32"
        }
      ],
      "stateMutability": "view",
      "type": "function"
    },
    {
      "inputs": [],
      "name": "PROFILE_MEMBER_SIGNATURE_MESSAGE_TYPEHASH",
      "outputs": [
        {
          "internalType": "bytes32",
          "name": "",
          "type": "bytes32"
        }
      ],
      "stateMutability": "view",
      "type": "function"
    },
    {
      "inputs": [],
      "name": "PROFILE_PREDICT_CTX_MESSAGE_TYPEHASH",
      "outputs": [
        {
          "internalType": "bytes32",
          "name": "",
          "type": "bytes32"
        }
      ],
      "stateMutability": "view",
      "type": "function"
    },
    {
      "inputs": [],
      "name": "TYPE_HASH",
      "outputs": [
        {
          "internalType": "bytes32",
          "name": "",
          "type": "bytes32"
        }
      ],
      "stateMutability": "view",
      "type": "function"
    },
    {
      "inputs": [],
      "name": "accessControlManager",
      "outputs": [
        {
          "internalType": "address",
          "name": "",
          "type": "address"
        }
      ],
      "stateMutability": "view",
      "type": "function"
    },
    {
      "inputs": [],
      "name": "contractName",
      "outputs": [
        {
          "internalType": "string",
          "name": "",
          "type": "string"
        }
      ],
      "stateMutability": "view",
      "type": "function"
    },
    {
      "inputs": [],
      "name": "contractVersion",
      "outputs": [
        {
          "internalType": "string",
          "name": "",
          "type": "string"
        }
      ],
      "stateMutability": "view",
      "type": "function"
    },
    {
      "inputs": [],
      "name": "domainSeparator",
      "outputs": [
        {
          "internalType": "bytes32",
          "name": "",
          "type": "bytes32"
        }
      ],
      "stateMutability": "view",
      "type": "function"
    },
    {
      "inputs": [],
      "name": "getLibrary",
      "outputs": [
        {
          "internalType": "address",
          "name": "",
          "type": "address"
        }
      ],
      "stateMutability": "pure",
      "type": "function"
    },
    {
      "inputs": [],
      "name": "initVersion",
      "outputs": [
        {
          "internalType": "uint16",
          "name": "",
          "type": "uint16"
        }
      ],
      "stateMutability": "view",
      "type": "function"
    },
    {
      "inputs": [
        {
          "internalType": "string",
          "name": "contractName",
          "type": "string"
        },
        {
          "internalType": "string",
          "name": "contractVersion",
          "type": "string"
        },
        {
          "internalType": "address",
          "name": "accessControlManager",
          "type": "address"
        }
      ],
      "name": "initialize",
      "outputs": [],
      "stateMutability": "nonpayable",
      "type": "function"
    },
    {
      "inputs": [],
      "name": "localAdmin",
      "outputs": [
        {
          "internalType": "address",
          "name": "",
          "type": "address"
        }
      ],
      "stateMutability": "view",
      "type": "function"
    },
    {
      "inputs": [
        {
          "internalType": "bytes32",
          "name": "profileId",
          "type": "bytes32"
        },
        {
          "internalType": "bytes32",
          "name": "roleId",
          "type": "bytes32"
        },
        {
          "internalType": "address",
          "name": "account",
          "type": "address"
        }
      ],
      "name": "profileRoleCheckAdmin",
      "outputs": [
        {
          "internalType": "bool",
          "name": "",
          "type": "bool"
        }
      ],
      "stateMutability": "view",
      "type": "function"
    },
    {
      "inputs": [
        {
          "internalType": "bytes32",
          "name": "profileId",
          "type": "bytes32"
        },
        {
          "internalType": "bytes32",
          "name": "roleId",
          "type": "bytes32"
        }
      ],
      "name": "profileRoleCheckId",
      "outputs": [
        {
          "internalType": "bool",
          "name": "",
          "type": "bool"
        }
      ],
      "stateMutability": "view",
      "type": "function"
    },
    {
      "inputs": [
        {
          "internalType": "bytes32",
          "name": "profileId",
          "type": "bytes32"
        },
        {
          "internalType": "string",
          "name": "roleName",
          "type": "string"
        }
      ],
      "name": "profileRoleCheckName",
      "outputs": [
        {
          "internalType": "bool",
          "name": "",
          "type": "bool"
        }
      ],
      "stateMutability": "view",
      "type": "function"
    },
    {
      "inputs": [
        {
          "internalType": "bytes32",
          "name": "profileId",
          "type": "bytes32"
        },
        {
          "internalType": "bytes32",
          "name": "roleId",
          "type": "bytes32"
        }
      ],
      "name": "profileRoleGetInfo",
      "outputs": [
        {
          "components": [
            {
              "internalType": "bytes32",
              "name": "scopeId",
              "type": "bytes32"
            },
            {
              "internalType": "bytes32",
              "name": "typeId",
              "type": "bytes32"
            },
            {
              "internalType": "bytes32",
              "name": "adminId",
              "type": "bytes32"
            },
            {
              "internalType": "uint24",
              "name": "memberLimit",
              "type": "uint24"
            },
            {
              "internalType": "uint24",
              "name": "memberCount",
              "type": "uint24"
            },
            {
              "internalType": "enum IACLCommons.AgentType",
              "name": "adminType",
              "type": "uint8"
            },
            {
              "internalType": "enum IACLCommons.AgentType",
              "name": "atype",
              "type": "uint8"
            },
            {
              "internalType": "enum IACLCommons.ActivityStatus",
              "name": "acstat",
              "type": "uint8"
            },
            {
              "internalType": "enum IACLCommons.AlterabilityStatus",
              "name": "alstat",
              "type": "uint8"
            },
            {
              "internalType": "string",
              "name": "name",
              "type": "string"
            }
          ],
          "internalType": "struct IProfileRoleManagement.ProfileRoleInfo",
          "name": "",
          "type": "tuple"
        }
      ],
      "stateMutability": "view",
      "type": "function"
    },
    {
      "inputs": [
        {
          "components": [
            {
              "internalType": "string",
              "name": "profileName",
              "type": "string"
            },
            {
              "internalType": "address",
              "name": "account",
              "type": "address"
            },
            {
              "internalType": "uint64",
              "name": "expiredAt",
              "type": "uint64"
            },
            {
              "internalType": "bytes",
              "name": "signature",
              "type": "bytes"
            }
          ],
          "internalType": "struct IACLCommons.ProfileMemberSignature",
          "name": "memberSign",
          "type": "tuple"
        },
        {
          "components": [
            {
              "internalType": "bytes32",
              "name": "roleId",
              "type": "bytes32"
            },
            {
              "internalType": "bytes32[]",
              "name": "members",
              "type": "bytes32[]"
            }
          ],
          "internalType": "struct IProfileRoleManagement.ProfileRoleGrantMembersRequest[]",
          "name": "requests",
          "type": "tuple[]"
        }
      ],
      "name": "profileRoleGrantMembers",
      "outputs": [
        {
          "internalType": "bool",
          "name": "",
          "type": "bool"
        }
      ],
      "stateMutability": "nonpayable",
      "type": "function"
    },
    {
      "inputs": [
        {
          "internalType": "bytes32",
          "name": "profileId",
          "type": "bytes32"
        },
        {
          "internalType": "bytes32",
          "name": "roleId",
          "type": "bytes32"
        },
        {
          "internalType": "address",
          "name": "account",
          "type": "address"
        }
      ],
      "name": "profileRoleHasAccount",
      "outputs": [
        {
          "internalType": "bool",
          "name": "",
          "type": "bool"
        }
      ],
      "stateMutability": "view",
      "type": "function"
    },
    {
      "inputs": [
        {
          "components": [
            {
              "internalType": "string",
              "name": "profileName",
              "type": "string"
            },
            {
              "internalType": "address",
              "name": "account",
              "type": "address"
            },
            {
              "internalType": "uint64",
              "name": "expiredAt",
              "type": "uint64"
            },
            {
              "internalType": "bytes",
              "name": "signature",
              "type": "bytes"
            }
          ],
          "internalType": "struct IACLCommons.ProfileMemberSignature",
          "name": "memberSign",
          "type": "tuple"
        },
        {
          "components": [
            {
              "internalType": "bytes32",
              "name": "adminId",
              "type": "bytes32"
            },
            {
              "internalType": "bytes32",
              "name": "scopeId",
              "type": "bytes32"
            },
            {
              "internalType": "bytes32",
              "name": "typeId",
              "type": "bytes32"
            },
            {
              "internalType": "string",
              "name": "name",
              "type": "string"
            },
            {
              "internalType": "int32",
              "name": "memberLimit",
              "type": "int32"
            }
          ],
          "internalType": "struct IProfileRoleManagement.ProfileRoleRegisterRequest[]",
          "name": "requests",
          "type": "tuple[]"
        }
      ],
      "name": "profileRoleRegister",
      "outputs": [
        {
          "internalType": "bool",
          "name": "",
          "type": "bool"
        }
      ],
      "stateMutability": "nonpayable",
      "type": "function"
    },
    {
      "inputs": [
        {
          "components": [
            {
              "internalType": "string",
              "name": "profileName",
              "type": "string"
            },
            {
              "internalType": "address",
              "name": "account",
              "type": "address"
            },
            {
              "internalType": "uint64",
              "name": "expiredAt",
              "type": "uint64"
            },
            {
              "internalType": "bytes",
              "name": "signature",
              "type": "bytes"
            }
          ],
          "internalType": "struct IACLCommons.ProfileMemberSignature",
          "name": "memberSign",
          "type": "tuple"
        },
        {
          "internalType": "bytes32[]",
          "name": "roles",
          "type": "bytes32[]"
        }
      ],
      "name": "profileRoleRemove",
      "outputs": [
        {
          "internalType": "bool",
          "name": "",
          "type": "bool"
        }
      ],
      "stateMutability": "nonpayable",
      "type": "function"
    },
    {
      "inputs": [
        {
          "components": [
            {
              "internalType": "string",
              "name": "profileName",
              "type": "string"
            },
            {
              "internalType": "address",
              "name": "account",
              "type": "address"
            },
            {
              "internalType": "uint64",
              "name": "expiredAt",
              "type": "uint64"
            },
            {
              "internalType": "bytes",
              "name": "signature",
              "type": "bytes"
            }
          ],
          "internalType": "struct IACLCommons.ProfileMemberSignature",
          "name": "memberSign",
          "type": "tuple"
        },
        {
          "components": [
            {
              "internalType": "bytes32",
              "name": "roleId",
              "type": "bytes32"
            },
            {
              "internalType": "bytes32[]",
              "name": "members",
              "type": "bytes32[]"
            }
          ],
          "internalType": "struct IProfileRoleManagement.ProfileRoleRevokeMembersRequest[]",
          "name": "requests",
          "type": "tuple[]"
        }
      ],
      "name": "profileRoleRevokeMembers",
      "outputs": [
        {
          "internalType": "bool",
          "name": "",
          "type": "bool"
        }
      ],
      "stateMutability": "nonpayable",
      "type": "function"
    },
    {
      "inputs": [
        {
          "components": [
            {
              "internalType": "string",
              "name": "profileName",
              "type": "string"
            },
            {
              "internalType": "address",
              "name": "account",
              "type": "address"
            },
            {
              "internalType": "uint64",
              "name": "expiredAt",
              "type": "uint64"
            },
            {
              "internalType": "bytes",
              "name": "signature",
              "type": "bytes"
            }
          ],
          "internalType": "struct IACLCommons.ProfileMemberSignature",
          "name": "memberSign",
          "type": "tuple"
        },
        {
          "components": [
            {
              "internalType": "bytes32",
              "name": "entityId",
              "type": "bytes32"
            },
            {
              "internalType": "enum IACLCommons.ActivityStatus",
              "name": "acstat",
              "type": "uint8"
            }
          ],
          "internalType": "struct IACLCommons.ProfileUpdateActivityRequest[]",
          "name": "requests",
          "type": "tuple[]"
        }
      ],
      "name": "profileRoleUpdateActivityStatus",
      "outputs": [
        {
          "internalType": "bool",
          "name": "",
          "type": "bool"
        }
      ],
      "stateMutability": "nonpayable",
      "type": "function"
    },
    {
      "inputs": [
        {
          "components": [
            {
              "internalType": "string",
              "name": "profileName",
              "type": "string"
            },
            {
              "internalType": "address",
              "name": "account",
              "type": "address"
            },
            {
              "internalType": "uint64",
              "name": "expiredAt",
              "type": "uint64"
            },
            {
              "internalType": "bytes",
              "name": "signature",
              "type": "bytes"
            }
          ],
          "internalType": "struct IACLCommons.ProfileMemberSignature",
          "name": "memberSign",
          "type": "tuple"
        },
        {
          "components": [
            {
              "internalType": "bytes32",
              "name": "entityId",
              "type": "bytes32"
            },
            {
              "internalType": "bytes32",
              "name": "adminId",
              "type": "bytes32"
            }
          ],
          "internalType": "struct IACLCommons.ProfileUpdateAdminRequest[]",
          "name": "requests",
          "type": "tuple[]"
        }
      ],
      "name": "profileRoleUpdateAdmin",
      "outputs": [
        {
          "internalType": "bool",
          "name": "",
          "type": "bool"
        }
      ],
      "stateMutability": "nonpayable",
      "type": "function"
    },
    {
      "inputs": [
        {
          "components": [
            {
              "internalType": "string",
              "name": "profileName",
              "type": "string"
            },
            {
              "internalType": "address",
              "name": "account",
              "type": "address"
            },
            {
              "internalType": "uint64",
              "name": "expiredAt",
              "type": "uint64"
            },
            {
              "internalType": "bytes",
              "name": "signature",
              "type": "bytes"
            }
          ],
          "internalType": "struct IACLCommons.ProfileMemberSignature",
          "name": "memberSign",
          "type": "tuple"
        },
        {
          "components": [
            {
              "internalType": "bytes32",
              "name": "entityId",
              "type": "bytes32"
            },
            {
              "internalType": "enum IACLCommons.AlterabilityStatus",
              "name": "alstat",
              "type": "uint8"
            }
          ],
          "internalType": "struct IACLCommons.ProfileUpdateAlterabilityRequest[]",
          "name": "requests",
          "type": "tuple[]"
        }
      ],
      "name": "profileRoleUpdateAlterabilityStatus",
      "outputs": [
        {
          "internalType": "bool",
          "name": "",
          "type": "bool"
        }
      ],
      "stateMutability": "nonpayable",
      "type": "function"
    },
    {
      "inputs": [
        {
          "components": [
            {
              "internalType": "string",
              "name": "profileName",
              "type": "string"
            },
            {
              "internalType": "address",
              "name": "account",
              "type": "address"
            },
            {
              "internalType": "uint64",
              "name": "expiredAt",
              "type": "uint64"
            },
            {
              "internalType": "bytes",
              "name": "signature",
              "type": "bytes"
            }
          ],
          "internalType": "struct IACLCommons.ProfileMemberSignature",
          "name": "memberSign",
          "type": "tuple"
        },
        {
          "components": [
            {
              "internalType": "bytes32",
              "name": "roleId",
              "type": "bytes32"
            },
            {
              "internalType": "uint24",
              "name": "memberLimit",
              "type": "uint24"
            }
          ],
          "internalType": "struct IProfileRoleManagement.ProfileRoleUpdateMemberLimitRequest[]",
          "name": "requests",
          "type": "tuple[]"
        }
      ],
      "name": "profileRoleUpdateMemberLimit",
      "outputs": [
        {
          "internalType": "bool",
          "name": "",
          "type": "bool"
        }
      ],
      "stateMutability": "nonpayable",
      "type": "function"
    },
    {
      "inputs": [
        {
          "components": [
            {
              "internalType": "string",
              "name": "profileName",
              "type": "string"
            },
            {
              "internalType": "address",
              "name": "account",
              "type": "address"
            },
            {
              "internalType": "uint64",
              "name": "expiredAt",
              "type": "uint64"
            },
            {
              "internalType": "bytes",
              "name": "signature",
              "type": "bytes"
            }
          ],
          "internalType": "struct IACLCommons.ProfileMemberSignature",
          "name": "memberSign",
          "type": "tuple"
        },
        {
          "components": [
            {
              "internalType": "bytes32",
              "name": "entityId",
              "type": "bytes32"
            },
            {
              "internalType": "bytes32",
              "name": "scopeId",
              "type": "bytes32"
            }
          ],
          "internalType": "struct IACLCommons.ProfileUpdateScopeRequest[]",
          "name": "requests",
          "type": "tuple[]"
        }
      ],
      "name": "profileRoleUpdateScope",
      "outputs": [
        {
          "internalType": "bool",
          "name": "",
          "type": "bool"
        }
      ],
      "stateMutability": "nonpayable",
      "type": "function"
    },
    {
      "inputs": [],
      "name": "proxiableUUID",
      "outputs": [
        {
          "internalType": "bytes32",
          "name": "",
          "type": "bytes32"
        }
      ],
      "stateMutability": "view",
      "type": "function"
    },
    {
      "inputs": [],
      "name": "safeModeStatus",
      "outputs": [
        {
          "internalType": "enum IBaseProxy.ProxySafeModeStatus",
          "name": "",
          "type": "uint8"
        }
      ],
      "stateMutability": "view",
      "type": "function"
    },
    {
      "inputs": [
        {
          "internalType": "address",
          "name": "acl",
          "type": "address"
        }
      ],
      "name": "setAccessControlManager",
      "outputs": [
        {
          "internalType": "bool",
          "name": "",
          "type": "bool"
        }
      ],
      "stateMutability": "nonpayable",
      "type": "function"
    },
    {
      "inputs": [
        {
          "internalType": "address",
          "name": "newLocalAdmin",
          "type": "address"
        }
      ],
      "name": "setLocalAdmin",
      "outputs": [
        {
          "internalType": "bool",
          "name": "",
          "type": "bool"
        }
      ],
      "stateMutability": "nonpayable",
      "type": "function"
    },
    {
      "inputs": [
        {
          "internalType": "enum IBaseProxy.ProxySafeModeStatus",
          "name": "sstat",
          "type": "uint8"
        }
      ],
      "name": "setSafeModeStatus",
      "outputs": [
        {
          "internalType": "bool",
          "name": "",
          "type": "bool"
        }
      ],
      "stateMutability": "nonpayable",
      "type": "function"
    },
    {
      "inputs": [
        {
          "internalType": "enum IBaseProxy.ProxyUpdatabilityStatus",
          "name": "ustat",
          "type": "uint8"
        }
      ],
      "name": "setUpdatabilityStatus",
      "outputs": [
        {
          "internalType": "bool",
          "name": "",
          "type": "bool"
        }
      ],
      "stateMutability": "nonpayable",
      "type": "function"
    },
    {
      "inputs": [],
      "name": "subjectAddress",
      "outputs": [
        {
          "internalType": "address",
          "name": "",
          "type": "address"
        }
      ],
      "stateMutability": "view",
      "type": "function"
    },
    {
      "inputs": [
        {
          "internalType": "bytes4",
          "name": "interfaceId",
          "type": "bytes4"
        }
      ],
      "name": "supportsInterface",
      "outputs": [
        {
          "internalType": "bool",
          "name": "",
          "type": "bool"
        }
      ],
      "stateMutability": "view",
      "type": "function"
    },
    {
      "inputs": [],
      "name": "updatabilityStatus",
      "outputs": [
        {
          "internalType": "enum IBaseProxy.ProxyUpdatabilityStatus",
          "name": "",
          "type": "uint8"
        }
      ],
      "stateMutability": "view",
      "type": "function"
    },
    {
      "inputs": [
        {
          "internalType": "address",
          "name": "newImplementation",
          "type": "address"
        },
        {
          "internalType": "bytes",
          "name": "data",
          "type": "bytes"
        },
        {
          "internalType": "bool",
          "name": "forceCall",
          "type": "bool"
        }
      ],
      "name": "upgradeTo",
      "outputs": [
        {
          "internalType": "bytes",
          "name": "",
          "type": "bytes"
        }
      ],
      "stateMutability": "nonpayable",
      "type": "function"
    },
    {
      "inputs": [
        {
          "internalType": "address",
          "name": "recepient",
          "type": "address"
        }
      ],
      "name": "withdrawBalance",
      "outputs": [
        {
          "internalType": "uint256",
          "name": "",
          "type": "uint256"
        }
      ],
      "stateMutability": "nonpayable",
      "type": "function"
    },
    {
      "stateMutability": "payable",
      "type": "receive"
    }
  ],
  "transactionHash": "0x3a83b840a878d675524347b4d6267aa4003842b1d7f33854467e4a0b972925dd",
  "args": [],
  "numDeployments": 1,
  "solcInputHash": "bf3d37f12163392c6a812b5af749abec",
  "bytecode": "0x60a0604052306080523480156200001557600080fd5b506200004360017f360894a13ba1a3210667c828492db98dca3e2076cc3735a920a3ca505d382bbd620000fd565b7f360894a13ba1a3210667c828492db98dca3e2076cc3735a920a3ca505d382bbc1462000074576200007462000125565b620000a160017fb53127684a568b3173ae13b9f8a6016e243e63b6e8ee1178d6a717850b5d6104620000fd565b60008051602062005aa483398151915214620000c157620000c162000125565b60008051602062005aa483398151915280546001600160a01b0319163317905560028054600160a01b61ffff60a01b199091161790556200013b565b818103818111156200011f57634e487b7160e01b600052601160045260246000fd5b92915050565b634e487b7160e01b600052600160045260246000fd5b6080516158f9620001ab600039600081816108180152818161086101528181610b4901528181610b8901528181611530015281816117a6015281816117e601528181611d4901528181611d890152818161224f0152818161228f01528181612403015261244301526158f96000f3fe6080604052600436106102275760003560e01c8063756af45f11610122578063e044600b116100a5578063f0b15def1161006c578063f0b15def14610745578063f698da2514610779578063f708ceb01461078e578063f94a0adb146107ae578063fcc40178146107c357005b8063e044600b14610698578063e1410533146106b8578063e284a930146106e5578063eb63052014610705578063ed7cc04a1461072557005b80639b97b534116100e95780639b97b534146105f2578063a0a8e46014610626578063a304e3531461063b578063b4a0bdf31461065a578063d9dc1f191461067857005b8063756af45f1461055657806375d0c0dc146105765780637678922e1461058b5780637919ef86146105b25780638012ef17146105d257005b8063416c5282116101aa57806358dbc45d1161017157806358dbc45d1461048857806364d4c819146104b5578063667c3775146104e95780636b21737a146105095780637147855d1461052957005b8063416c5282146103d75780634888f482146103f75780634bf0414d1461041f5780634d03d6c41461045357806352d1902d1461047357005b80632a97528c116101ee5780632a97528c14610307578063301c12801461032757806334109de21461035b57806336f6ff401461038f57806338d38c97146103af57005b806301ffc9a714610230578063077f224a146102655780630799de37146102855780630e32cb86146102a55780631b452f4b146102c557005b3661022e57005b005b34801561023c57600080fd5b5061025061024b366004614a2c565b6107e3565b60405190151581526020015b60405180910390f35b34801561027157600080fd5b5061022e610280366004614aae565b61080e565b34801561029157600080fd5b506102506102a0366004614b8a565b610a44565b3480156102b157600080fd5b506102506102c0366004614bf2565b610b3d565b3480156102d157600080fd5b506102f97f7bfb2abd6084c8ce20d7ff92c1620e7e7267603f0eac446b9176959d243306bc81565b60405190815260200161025c565b34801561031357600080fd5b50610250610322366004614b8a565b610e4b565b34801561033357600080fd5b506102f97f541cf898e7c3085cbc6b7402ba06e7237285bc4bd5baa510e708e35537a71ffd81565b34801561036757600080fd5b506102f97f7aabe2571874f2a330ea11c8972d9cc3792d973efc6b36e3e29005861a34418881565b34801561039b57600080fd5b506102506103aa366004614c51565b6110f2565b3480156103bb57600080fd5b506103c461132c565b60405161ffff909116815260200161025c565b3480156103e357600080fd5b506102506103f2366004614c51565b611340565b34801561040357600080fd5b50600254600160a81b900460ff165b60405161025c9190614cd2565b34801561042b57600080fd5b506102f97f9027b951cbdf8eff67da583391d218a57a89ec1ebfcb1c66da188e8531804d5581565b34801561045f57600080fd5b5061025061046e366004614ce5565b6114e6565b34801561047f57600080fd5b506102f9611523565b34801561049457600080fd5b5061049d611580565b6040516001600160a01b03909116815260200161025c565b3480156104c157600080fd5b506102f97f8b73c3c69bb8fe3d512ecc4cf759cc79239f7b179b0ffacaa9a75d522b39400f81565b3480156104f557600080fd5b50610250610504366004614c51565b61158a565b34801561051557600080fd5b50610250610524366004614d07565b6116fd565b34801561053557600080fd5b50610549610544366004614de0565b61179a565b60405161025c9190614ed4565b34801561056257600080fd5b506102f9610571366004614bf2565b6118f1565b34801561058257600080fd5b506105496119b6565b34801561059757600080fd5b50738932561a695C53836269a551296Dca33Fb1fC41b61049d565b3480156105be57600080fd5b506102506105cd366004614c51565b611a48565b3480156105de57600080fd5b506102506105ed366004614ee7565b611cc2565b3480156105fe57600080fd5b506102f97fdee69d384475c3656c17c592e94a2bbfd2a1998cce0c85f535569415a15863b881565b34801561063257600080fd5b50610549611d2e565b34801561064757600080fd5b50600254600160a01b900460ff16610412565b34801561066657600080fd5b506002546001600160a01b031661049d565b34801561068457600080fd5b50610250610693366004614bf2565b611d3d565b3480156106a457600080fd5b506102506106b3366004614d07565b611ef3565b3480156106c457600080fd5b506106d86106d3366004614ce5565b611f4b565b60405161025c9190614f42565b3480156106f157600080fd5b50610250610700366004614c51565b612027565b34801561071157600080fd5b50610250610720366004614b8a565b612159565b34801561073157600080fd5b50610250610740366004614b8a565b6121c9565b34801561075157600080fd5b506102f97ffc434588684348dd50856b075c47bed14245c1030aa04c32955af5549981462781565b34801561078557600080fd5b506102f9612239565b34801561079a57600080fd5b506102506107a9366004615000565b612243565b3480156107ba57600080fd5b5061049d6123ed565b3480156107cf57600080fd5b506102506107de366004615000565b6123f7565b60006001600160e01b0319821663065fba4160e01b1480610808575061080882612582565b92915050565b6001600160a01b037f000000000000000000000000000000000000000000000000000000000000000016300361085f5760405162461bcd60e51b81526004016108569061501d565b60405180910390fd5b7f00000000000000000000000000000000000000000000000000000000000000006001600160a01b03166108916125d2565b6001600160a01b0316146108b75760405162461bcd60e51b815260040161085690615043565b336108c06125f3565b6001600160a01b0316146109065760405162461bcd60e51b815260206004820152600d60248201526c1058d8d95cdcc811195b9a5959609a1b6044820152606401610856565b604e5462010000900460ff16158080156109285750604e54600161ffff909116105b806109435750303b1580156109435750604e5461ffff166001145b61098f5760405162461bcd60e51b815260206004820152601c60248201527f436f6e747261637420416c726561647920496e697469616c697a6564000000006044820152606401610856565b604e805461ffff1916600117905580156109b557604e805462ff00001916620100001790555b6109c2868686868661261b565b6109ca6125d2565b6001600160a01b031630336001600160a01b03167f247ab7b17ee489fa140c6666edc3822eefed2727610cd6e37192462b87244c6089898989610a10604e5461ffff1690565b604051610a21959493929190615092565b60405180910390a48015610a3c57604e805462ff0000191690555b505050505050565b60008080808080610a5c89630799de3760e01b61262f565b604051630d2185c560e01b81526004810186905261ffff8d1660248201526044810183905294995092975090955093509150738932561a695C53836269a551296Dca33Fb1fC41b90630d2185c59060640160006040518083038186803b158015610ac557600080fd5b505af4158015610ad9573d6000803e3d6000fd5b5050505060005b87811015610b2b57610b19898983818110610afd57610afd6150d0565b9050602002810190610b0f91906150e6565b87878787876128a6565b80610b238161511c565b915050610ae0565b506001955050505050505b9392505050565b60006001600160a01b037f0000000000000000000000000000000000000000000000000000000000000000163003610b875760405162461bcd60e51b81526004016108569061501d565b7f00000000000000000000000000000000000000000000000000000000000000006001600160a01b0316610bb96125d2565b6001600160a01b031614610bdf5760405162461bcd60e51b815260040161085690615043565b6000600254600160a01b900460ff166001811115610bff57610bff614cac565b14610c1c5760405162461bcd60e51b815260040161085690615135565b6001600254600160a81b900460ff166001811115610c3c57610c3c614cac565b14610c595760405162461bcd60e51b815260040161085690615157565b6001600160a01b03821615801590610c7a57506001600160a01b0382163b15155b610c965760405162461bcd60e51b815260040161085690615182565b6002546001600160a01b031615610cf5576000610cb963071965c360e11b612996565b90506000816013811115610ccf57610ccf614cac565b14610cef5780604051637f0911d160e01b815260040161085691906151ac565b50610d44565b33610cfe6125f3565b6001600160a01b031614610d445760405162461bcd60e51b815260206004820152600d60248201526c1058d8d95cdcc811195b9a5959609a1b6044820152606401610856565b6040516301ffc9a760e01b81526331501c3960e01b60048201526001600160a01b038316906301ffc9a790602401602060405180830381865afa158015610d8f573d6000803e3d6000fd5b505050506040513d601f19601f82011682018060405250810190610db391906151c0565b610ded5760405162461bcd60e51b815260206004820152600b60248201526a125b1b1959d85b081050d360aa1b6044820152606401610856565b600280546001600160a01b0384166001600160a01b031990911681179091556040805191825251309133917f410bf468eebeeed60acaedb904afb2db7c0bb0131f7d14c3714d81b14fe8ed3c9181900360200190a35060015b919050565b60008080808080610e6389630aa5d4a360e21b61262f565b9450945094509450945060005b87811015610b2b576000610ea58a8a84818110610e8f57610e8f6150d0565b9050602002013588612a2190919063ffffffff16565b90506000610ebc8888846000016000015488612b05565b90506000816007811115610ed257610ed2614cac565b14610ee057610ee081612b9a565b60058201546301000000900462ffffff1615610f2f5760405162461bcd60e51b815260206004820152600e60248201526d496c6c6567616c2052656d6f766560901b6044820152606401610856565b6000610f4883600301548a612d3190919063ffffffff16565b90506002600182015462010000900460ff166003811115610f6b57610f6b614cac565b1015610f895760405162461bcd60e51b8152600401610856906151dd565b610fb78c8c86818110610f9e57610f9e6150d0565b9050602002013582600601612e0890919063ffffffff16565b506002830154600090815260018a81016020526040909120908101546301000000900463ffffffff1661101f5760405162461bcd60e51b815260206004820152601060248201526f125b1b195859db08149959995c9c995960821b6044820152606401610856565b60018101805460001963ffffffff6301000000808404821692909201160266ffffffff0000001990911617905561105a6004850160006149bf565b60058401805465ffffffffffff1916905560006003850181905560028501819055845560018401805462ffffff191690558c8c8681811061109d5761109d6150d0565b9050602002013588876001600160a01b03167fdf65ae7998aa5d87571222f7baac8e67298d6b9a315c54d8aabf889391396a9460405160405180910390a45050505080806110ea9061511c565b915050610e70565b600080808080806111098962dbdbfd60e61b61262f565b9450945094509450945060005b87811015610b2b5760405160200161112d9061520d565b60405160208183030381529060405280519060200120898983818110611155576111556150d0565b905060400201600001350361119b5760405162461bcd60e51b815260206004820152600c60248201526b496c6c6567616c20526f6c6560a01b6044820152606401610856565b60006111c487878c8c868181106111b4576111b46150d0565b9050604002016000013587612e14565b905060018a8a848181106111da576111da6150d0565b90506040020160200160208101906111f29190615253565b600381111561120357611203614cac565b116112435760405162461bcd60e51b815260206004820152601060248201526f496c6c6567616c20416374697669747960801b6044820152606401610856565b898983818110611255576112556150d0565b905060400201602001602081019061126d9190615253565b60018201805461ff00191661010083600381111561128d5761128d614cac565b02179055508989838181106112a4576112a46150d0565b9050604002016000013585846001600160a01b03167f2a2d335f398ab959db0b6111196b600c541b53c27f2232ca9b77329ae99071558d8d878181106112ec576112ec6150d0565b90506040020160200160208101906113049190615253565b6040516113119190615270565b60405180910390a450806113248161511c565b915050611116565b600061133b604e5461ffff1690565b905090565b60008080808080611358896320b6294160e11b61262f565b9450945094509450945060005b87811015610b2b57600061138687878c8c868181106111b4576111b46150d0565b60058101549091506301000000900462ffffff168a8a848181106113ac576113ac6150d0565b90506040020160200160208101906113c4919061528e565b62ffffff16116114065760405162461bcd60e51b815260206004820152600d60248201526c125b1b1959d85b08131a5b5a5d609a1b6044820152606401610856565b898983818110611418576114186150d0565b9050604002016020016020810190611430919061528e565b60058201805462ffffff191662ffffff9290921691909117905589898381811061145c5761145c6150d0565b9050604002016000013585846001600160a01b03167faeacf792f6f1fff5f1c25b2af15f2104a6dc9721af33352c3c8ee40addd7b5cc8d8d878181106114a4576114a46150d0565b90506040020160200160208101906114bc919061528e565b60405162ffffff909116815260200160405180910390a450806114de8161511c565b915050611365565b60006002600084815260486020908152604080832086845290915290206001015460ff16600381111561151b5761151b614cac565b149392505050565b6000306001600160a01b037f0000000000000000000000000000000000000000000000000000000000000000161461156d5760405162461bcd60e51b81526004016108569061501d565b506000805160206158a483398151915290565b600061133b6125d2565b600080808080806115a28963667c377560e01b61262f565b9450945094509450945060005b87811015610b2b57738932561a695C53836269a551296Dca33Fb1fC41b63c7a497808a8a848181106115e3576115e36150d0565b604080516001600160e01b031960e087901b168152910292909201803560048401526020013560248301525060448101899052606481018890526084810187905260a4810186905260c401602060405180830381865af415801561164b573d6000803e3d6000fd5b505050506040513d601f19601f8201168201806040525081019061166f91906151c0565b50888882818110611682576116826150d0565b9050604002016000013584836001600160a01b03167f92b4ee9fe8d2608c10b39bc53ac8ae1801f4fcd83a82624953f292da18776d958c8c868181106116ca576116ca6150d0565b905060400201602001356040516116e391815260200190565b60405180910390a4806116f58161511c565b9150506115af565b604051632409432160e21b81526044600482018190526024820185905281018390526001600160a01b0382166064820152600090738932561a695C53836269a551296Dca33Fb1fC41b906390250c84906084015b602060405180830381865af415801561176e573d6000803e3d6000fd5b505050506040513d601f19601f8201168201806040525081019061179291906151c0565b949350505050565b60606001600160a01b037f00000000000000000000000000000000000000000000000000000000000000001630036117e45760405162461bcd60e51b81526004016108569061501d565b7f00000000000000000000000000000000000000000000000000000000000000006001600160a01b03166118166125d2565b6001600160a01b03161461183c5760405162461bcd60e51b815260040161085690615043565b6000600254600160a01b900460ff16600181111561185c5761185c614cac565b146118795760405162461bcd60e51b815260040161085690615135565b6001600254600160a81b900460ff16600181111561189957611899614cac565b146118b65760405162461bcd60e51b815260040161085690615157565b6001600160a01b0384163b6118dd5760405162461bcd60e51b815260040161085690615182565b6118e684612ea0565b611792848484612f3e565b600080600254600160a01b900460ff16600181111561191257611912614cac565b1461192f5760405162461bcd60e51b815260040161085690615135565b600061194163756af45f60e01b612996565b9050600081601381111561195757611957614cac565b146119775780604051637f0911d160e01b815260040161085691906151ac565b60405147906001600160a01b038516904780156108fc02916000818181858888f193505050501580156119ae573d6000803e3d6000fd5b509392505050565b6060600080546119c5906152ab565b80601f01602080910402602001604051908101604052809291908181526020018280546119f1906152ab565b8015611a3e5780601f10611a1357610100808354040283529160200191611a3e565b820191906000526020600020905b815481529060010190602001808311611a2157829003601f168201915b5050505050905090565b60008080808080611a6089633c8cf7c360e11b61262f565b9450945094509450945060005b87811015610b2b57604051602001611a849061520d565b60405160208183030381529060405280519060200120898983818110611aac57611aac6150d0565b9050604002016000013503611af25760405162461bcd60e51b815260206004820152600c60248201526b496c6c6567616c20526f6c6560a01b6044820152606401610856565b6000611b198a8a84818110611b0957611b096150d0565b8a92604090910201359050612a21565b90506000611b308888846000016000015488612b05565b90506000816007811115611b4657611b46614cac565b14611b5457611b5481612b9a565b60008b8b85818110611b6857611b686150d0565b9050604002016020016020810190611b809190615253565b6003811115611b9157611b91614cac565b03611bd55760405162461bcd60e51b8152602060048201526014602482015273496c6c6567616c20416c7465726162696c69747960601b6044820152606401610856565b8a8a84818110611be757611be76150d0565b9050604002016020016020810190611bff9190615253565b60018301805462ff0000191662010000836003811115611c2157611c21614cac565b02179055508a8a84818110611c3857611c386150d0565b9050604002016000013586856001600160a01b03167f72328d3f8f03243b4b26d66588622a02623ab29a340687f1e64512e41d05f0888e8e88818110611c8057611c806150d0565b9050604002016020016020810190611c989190615253565b604051611ca59190615270565b60405180910390a450508080611cba9061511c565b915050611a6d565b600083815260486020908152604080832090516002928491611ce89188918891016152df565b60408051601f198184030181529181528151602092830120835290820192909252016000206001015460ff166003811115611d2557611d25614cac565b14949350505050565b6060600180546119c5906152ab565b60006001600160a01b037f0000000000000000000000000000000000000000000000000000000000000000163003611d875760405162461bcd60e51b81526004016108569061501d565b7f00000000000000000000000000000000000000000000000000000000000000006001600160a01b0316611db96125d2565b6001600160a01b031614611ddf5760405162461bcd60e51b815260040161085690615043565b6000600254600160a01b900460ff166001811115611dff57611dff614cac565b14611e1c5760405162461bcd60e51b815260040161085690615135565b6001600254600160a81b900460ff166001811115611e3c57611e3c614cac565b14611e595760405162461bcd60e51b815260040161085690615157565b6000611e6b63d9dc1f1960e01b612996565b90506000816013811115611e8157611e81614cac565b14611ea15780604051637f0911d160e01b815260040161085691906151ac565b6001600160a01b038316611ee15760405162461bcd60e51b8152602060048201526007602482015266125b9d985b1a5960ca1b6044820152606401610856565b611eea836130f6565b50600192915050565b6040516303583e0b60e31b81526044600482018190526024820185905281018390526001600160a01b0382166064820152600090738932561a695C53836269a551296Dca33Fb1fC41b90631ac1f05890608401611751565b611fa1604080516101408101825260008082526020820181905291810182905260608101829052608081018290529060a08201908152602001600081526020016000815260200160008152602001606081525090565b604051635c2b7e2360e11b8152604460048201819052602482018590528101839052738932561a695C53836269a551296Dca33Fb1fC41b9063b856fc4690606401600060405180830381865af4158015611fff573d6000803e3d6000fd5b505050506040513d6000823e601f3d908101601f19168201604052610b36919081019061534a565b6000808080808061203f89630e284a9360e41b61262f565b9450945094509450945060005b87811015610b2b57600061206d87878c8c868181106111b4576111b46150d0565b600281015460008181526001808b01602090815260408084209092015460038601548452908c90529120549293506120c9928a9260ff909216918e8e888181106120b9576120b96150d0565b905060400201602001358a61316d565b81558989838181106120dd576120dd6150d0565b9050604002016000013585846001600160a01b03167f34caac42a16314f838f4e0c4e4b14c81cfa65cd1c88b60f43336c508936c32d68d8d87818110612125576121256150d0565b9050604002016020013560405161213e91815260200190565b60405180910390a450806121518161511c565b91505061204c565b600080808080806121718963075b182960e51b61262f565b9450945094509450945060005b87811015610b2b576121b789898381811061219b5761219b6150d0565b90506020028101906121ad9190615440565b87878787876131fd565b806121c18161511c565b91505061217e565b600080808080806121e1896376be602560e11b61262f565b9450945094509450945060005b87811015610b2b5761222789898381811061220b5761220b6150d0565b905060200281019061221d9190615440565b878787878761378e565b806122318161511c565b9150506121ee565b600061133b613da6565b60006001600160a01b037f000000000000000000000000000000000000000000000000000000000000000016300361228d5760405162461bcd60e51b81526004016108569061501d565b7f00000000000000000000000000000000000000000000000000000000000000006001600160a01b03166122bf6125d2565b6001600160a01b0316146122e55760405162461bcd60e51b815260040161085690615043565b60006122f4604e5461ffff1690565b61ffff16116123305760405162461bcd60e51b81526020600482015260086024820152671393d5081253925560c21b6044820152606401610856565b6000612342630f708ceb60e41b612996565b9050600081601381111561235857612358614cac565b146123785780604051637f0911d160e01b815260040161085691906151ac565b6002805484919060ff60a01b1916600160a01b83600181111561239d5761239d614cac565b021790555030336001600160a01b03167fc08ec585c25f1907baaab6f278c5994531a2e34c59935b3fcfe813067a3b4878856040516123dc9190614cd2565b60405180910390a350600192915050565b600061133b6125f3565b60006001600160a01b037f00000000000000000000000000000000000000000000000000000000000000001630036124415760405162461bcd60e51b81526004016108569061501d565b7f00000000000000000000000000000000000000000000000000000000000000006001600160a01b03166124736125d2565b6001600160a01b0316146124995760405162461bcd60e51b815260040161085690615043565b6000600254600160a01b900460ff1660018111156124b9576124b9614cac565b146124d65760405162461bcd60e51b815260040161085690615135565b60006124e8631f98802f60e31b612996565b905060008160138111156124fe576124fe614cac565b1461251e5780604051637f0911d160e01b815260040161085691906151ac565b6002805484919060ff60a81b1916600160a81b83600181111561254357612543614cac565b021790555030336001600160a01b03167ff5912c5e436152157ed2b4a84bc313b4b1fe09a15b941f195d23c99a1b8c45ad856040516123dc9190614cd2565b60006001600160e01b03198216633d817cff60e01b14806125b357506001600160e01b031982166352d1902d60e01b145b8061080857506301ffc9a760e01b6001600160e01b0319831614610808565b60006000805160206158a48339815191525b546001600160a01b0316919050565b60007fb53127684a568b3173ae13b9f8a6016e243e63b6e8ee1178d6a717850b5d61036125e4565b6126288585858585613e5a565b5050505050565b60008080808080306001600160a01b031663a304e3536040518163ffffffff1660e01b8152600401602060405180830381865afa158015612674573d6000803e3d6000fd5b505050506040513d601f19601f820116820180604052508101906126989190615456565b60018111156126a9576126a9614cac565b146126c65760405162461bcd60e51b815260040161085690615135565b60006126d28880615473565b9050116127175760405162461bcd60e51b8152602060048201526013602482015272496c6c6567616c2050726f66696c654e616d6560681b6044820152606401610856565b60008061272760608a018a615473565b905011156127bb574261274060608a0160408b016154b9565b6001600160401b03161161278a5760405162461bcd60e51b815260206004820152601160248201527045787069726564205369676e617475726560781b6044820152606401610856565b6127b4887f9027b951cbdf8eff67da583391d218a57a89ec1ebfcb1c66da188e8531804d55614023565b90506127be565b50335b60006127d26127cd8a80615473565b6140f2565b6001600160e01b031989166000908152604a60205260408120549192506001600160a01b0390911690612805828b614125565b905060006128128561415c565b60405163a66ce52f60e01b8152600481018690526024810184905260448101829052909150309063a66ce52f90606401600060405180830381600087803b15801561285c57600080fd5b505af1158015612870573d6000803e3d6000fd5b5050506000858152604860205260408120915061288e60448561419b565b919e919d50949b509099509397509295505050505050565b600080738932561a695C53836269a551296Dca33Fb1fC41b63cb89465889898989896040518663ffffffff1660e01b81526004016128e89594939291906154f4565b6040805180830381865af4158015612904573d6000803e3d6000fd5b505050506040513d601f19601f8201168201806040525081019061292891906155b2565b915091508185846001600160a01b03167f1112e41b42d70650e30385998ed1d452254538da4109852c603208dc3d6a5d0e8b60400135858d60200135604051612984939291909283526020830191909152604082015260600190565b60405180910390a45050505050505050565b6002546040805163172cb29d60e11b81523060048201526001600160e01b03198416602482015233604482015290516000926001600160a01b031691632e59653a916064808301926020929190829003018187875af11580156129fd573d6000803e3d6000fd5b505050506040513d601f19601f8201168201806040525081019061080891906155d6565b60008181526020839052604081206002600182015460ff166003811115612a4a57612a4a614cac565b03612a65576040805184815260208101869052209150612afe565b6000600182015460ff166003811115612a8057612a80614cac565b03612ac05760405162461bcd60e51b815260206004820152601060248201526f149bdb19525908139bdd08119bdd5b9960821b6044820152606401610856565b60405162461bcd60e51b8152602060048201526013602482015272125b1b1959d85b08149bdb1952590814db1bdd606a1b6044820152606401610856565b5092915050565b604051635fbcdb4b60e01b815260048101859052602481018490526044810183905260648101829052600090738932561a695C53836269a551296Dca33Fb1fC41b90635fbcdb4b90608401602060405180830381865af4158015612b6d573d6000803e3d6000fd5b505050506040513d601f19601f82011682018060405250810190612b9191906155f7565b95945050505050565b6001816007811115612bae57612bae614cac565b03612bcc5760405163e15df99b60e01b815260040160405180910390fd5b6002816007811115612be057612be0614cac565b03612bfe5760405163c38331b560e01b815260040160405180910390fd5b6003816007811115612c1257612c12614cac565b03612c305760405163dab65f4760e01b815260040160405180910390fd5b6004816007811115612c4457612c44614cac565b03612c6257604051633f4b20a160e11b815260040160405180910390fd5b6005816007811115612c7657612c76614cac565b03612c94576040516308fa537360e01b815260040160405180910390fd5b6006816007811115612ca857612ca8614cac565b03612cc65760405163ae0903a160e01b815260040160405180910390fd5b6007816007811115612cda57612cda614cac565b03612cf85760405163d59825eb60e01b815260040160405180910390fd5b60405162461bcd60e51b815260206004820152600b60248201526a2ab735b737bbb71022a92960a91b6044820152606401610856565b50565b60008181526020839052604081206003600182015460ff166003811115612d5a57612d5a614cac565b03612d75576040805184815260208101869052209150612afe565b6000600182015460ff166003811115612d9057612d90614cac565b03612dcd5760405162461bcd60e51b815260206004820152600d60248201526c15125108139bdd08119bdd5b99609a1b6044820152606401610856565b60405162461bcd60e51b815260206004820152601060248201526f125b1b1959d85b081512510814db1bdd60821b6044820152606401610856565b6000610b368383614276565b60405163045bc59560e01b815260048101859052602481018490526044810183905260648101829052600090738932561a695C53836269a551296Dca33Fb1fC41b9063045bc59590608401602060405180830381865af4158015612e7c573d6000803e3d6000fd5b505050506040513d601f19601f82011682018060405250810190612b919190615618565b612ea86125d2565b6001600160a01b0316816001600160a01b031603612ef25760405162461bcd60e51b8152602060048201526007602482015266125b1b1959d85b60ca1b6044820152606401610856565b6000612f04637147855d60e01b612996565b90506000816013811115612f1a57612f1a614cac565b14612f3a5780604051637f0911d160e01b815260040161085691906151ac565b5050565b60607f4910fdfa16fed3260ed0e7147f7cc6da11a60208b5b9406d12a635614ffd91435460ff1615612f8857612f7384614369565b50604080516000815260208101909152610b36565b6000805160206158a483398151915260001b846001600160a01b03166352d1902d6040518163ffffffff1660e01b8152600401602060405180830381865afa158015612fd8573d6000803e3d6000fd5b505050506040513d601f19601f82011682018060405250810190612ffc9190615618565b146130385760405162461bcd60e51b815260206004820152600c60248201526b496c6c6567616c205555505360a01b6044820152606401610856565b6040516301ffc9a760e01b8152633d817cff60e01b60048201526001600160a01b038516906301ffc9a790602401602060405180830381865afa158015613083573d6000803e3d6000fd5b505050506040513d601f19601f820116820180604052508101906130a791906151c0565b6130e45760405162461bcd60e51b815260206004820152600e60248201526d496c6c6567616c204950726f787960901b6044820152606401610856565b6130ef848484614398565b9050610b36565b7fb53127684a568b3173ae13b9f8a6016e243e63b6e8ee1178d6a717850b5d610380546001600160a01b0383166001600160a01b031990911681179091556040805191825251309133917f63fdbed5f2909ec44e3becc51e9d29654ce1447747914e8a6ebc019e7f640b8b9181900360200190a350565b6040516328028aa160e11b8152600090738932561a695C53836269a551296Dca33Fb1fC41b906350051542906131b1908a908a908a908a908a908a90600401615631565b602060405180830381865af41580156131ce573d6000803e3d6000fd5b505050506040513d601f19601f820116820180604052508101906131f29190615618565b979650505050505050565b600061320c8686893586612e14565b90506000613227826003015488612d3190919063ffffffff16565b90506002600182015462010000900460ff16600381111561324a5761324a614cac565b10156132685760405162461bcd60e51b8152600401610856906151dd565b60005b61327860208a018a615670565b90508110156137835760006132b961329360208c018c615670565b848181106132a3576132a36150d0565b905060200201358a6143fe90919063ffffffff16565b90506002600182015462010000900460ff1660038111156132dc576132dc614cac565b10156133255760405162461bcd60e51b8152602060048201526018602482015277496c6c6567616c204d656d62657220557064617461626c6560401b6044820152606401610856565b6040516020016133349061520d565b604051602081830303815290604052805190602001208a60000135036133d357600889015461336b906001600160a01b031661415c565b61337860208c018c615670565b84818110613388576133886150d0565b90506020020135036133d35760405162461bcd60e51b8152602060048201526014602482015273496c6c6567616c204f776e6572205265766f6b6560601b6044820152606401610856565b600060058401816133e760208e018e615670565b868181106133f7576133f76150d0565b90506020020135815260200190815260200160002054036134465760405162461bcd60e51b8152602060048201526009602482015268139bdd08119bdd5b9960ba1b6044820152606401610856565b60058401546301000000900462ffffff166134995760405162461bcd60e51b8152602060048201526013602482015272125b1b1959d85b0813595b58995c90dbdd5b9d606a1b6044820152606401610856565b6005830160006134ac60208d018d615670565b858181106134bc576134bc6150d0565b6020908102929092013583525081019190915260400160009081205560058401805460001962ffffff6301000000808404821692909201160265ffffff000000199091161790556003840154613516906004830190612e08565b5061355061352760208c018c615670565b84818110613537576135376150d0565b905060200201358a6004016144d490919063ffffffff16565b156135e557600281015460088a01546001600160a01b039182169116036135aa5760405162461bcd60e51b815260206004820152600e60248201526d496c6c6567616c205265766f6b6560901b6044820152606401610856565b6135e36135ba60208c018c615670565b848181106135ca576135ca6150d0565b905060200201358a600401612e0890919063ffffffff16565b505b6135f1816004016144ec565b6000036136fa576136098785600301548360016144f6565b600080825560018201805462ffffff191690556002820180546001600160c01b03191690556003820180546001600160d01b03191690556004820190818161365182826149f9565b506136639250505060208b018b615670565b83818110613673576136736150d0565b9050602002013587866001600160a01b03167fd6974f35ff0be09ab8e1ae6085a3827d872192cd1c990a8e0ed4504f9d693fd78d6000013588600301548660020160009054906101000a90046001600160a01b03166040516136f19392919092835260208301919091526001600160a01b0316604082015260600190565b60405180910390a45b8935876001600160a01b0387167ff58eda347c1ea9a8dcd22bc104f252f40fa5d596353817b83729cdded7c3d05561373560208f018f615670565b87818110613745576137456150d0565b905060200201358860030154604051613768929190918252602082015260400190565b60405180910390a4508061377b8161511c565b91505061326b565b505050505050505050565b600061379d8686893586612e14565b905060006137b8826003015488612d3190919063ffffffff16565b90506002600182015462010000900460ff1660038111156137db576137db614cac565b10156137f95760405162461bcd60e51b8152600401610856906151dd565b60005b61380960208a018a615670565b905081101561378357600583015462ffffff808216630100000090920416106138645760405162461bcd60e51b815260206004820152600d60248201526c125b1b1959d85b0811dc985b9d609a1b6044820152606401610856565b6040516020016138739061520d565b604051602081830303815290604052805190602001208960000135036139125760088801546138aa906001600160a01b031661415c565b6138b760208b018b615670565b838181106138c7576138c76150d0565b90506020020135036139125760405162461bcd60e51b8152602060048201526014602482015273496c6c6567616c204f776e6572205265766f6b6560601b6044820152606401610856565b600061392461329360208c018c615670565b90506139408460030154826004016144d490919063ffffffff16565b15613b09576000600584018161395960208e018e615670565b86818110613969576139696150d0565b9050602002013581526020019081526020016000205490508a6000013581036139c45760405162461bcd60e51b815260206004820152600d60248201526c105b1c9958591e48115e1a5cdd609a1b6044820152606401610856565b60006139d28b8b848b612e14565b60058101549091506301000000900462ffffff16613a285760405162461bcd60e51b8152602060048201526013602482015272125b1b1959d85b0813595b58995c90dbdd5b9d606a1b6044820152606401610856565b6005908101805460001962ffffff6301000000808404821692909201160265ffffff00000019909116179055840190506000613a6760208d018d615670565b85818110613a7757613a776150d0565b9050602002013581526020019081526020016000205487866001600160a01b03167ff58eda347c1ea9a8dcd22bc104f252f40fa5d596353817b83729cdded7c3d0558d8060200190613ac99190615670565b87818110613ad957613ad96150d0565b905060200201358860030154604051613afc929190918252602082015260400190565b60405180910390a4613c9a565b6002600182015462010000900460ff166003811115613b2a57613b2a614cac565b1015613b735760405162461bcd60e51b8152602060048201526018602482015277496c6c6567616c204d656d62657220557064617461626c6560401b6044820152606401610856565b613b7f816004016144ec565b6002820154600160b01b900461ffff1611613bdc5760405162461bcd60e51b815260206004820152601860248201527f496c6c6567616c204d656d62657220547970654c696d697400000000000000006044820152606401610856565b613bed8785600301548360006144f6565b604051602001613c2a907f545950452e4c4956454c595f50524f46494c452e4c4956454c595f4d415354458152602960f91b602082015260210190565b60405160208183030381529060405280519060200120846003015403613c8557613c83613c5a60208c018c615670565b84818110613c6a57613c6a6150d0565b905060200201358a60040161457c90919063ffffffff16565b505b6003840154613c9890600483019061457c565b505b8935600584016000613caf60208e018e615670565b86818110613cbf57613cbf6150d0565b9050602002013581526020019081526020016000208190555060018460050160038282829054906101000a900462ffffff16613cfb91906156b9565b92506101000a81548162ffffff021916908362ffffff160217905550896000013587866001600160a01b03167fcdfdc6cdc229e7295e4ff376441874756e8917070f0b2d34ab083eee88f2c7318d8060200190613d589190615670565b87818110613d6857613d686150d0565b905060200201358860030154604051613d8b929190918252602082015260400190565b60405180910390a45080613d9e8161511c565b9150506137fc565b60007f8b73c3c69bb8fe3d512ecc4cf759cc79239f7b179b0ffacaa9a75d522b39400f6000604051602001613ddb91906156d5565b604051602081830303815290604052805190602001206001604051602001613e0391906156d5565b60408051601f1981840301815282825280516020918201209083019490945281019190915260608101919091524660808201523060a082015260c00160405160208183030381529060405280519060200120905090565b604e5462010000900460ff16613eb25760405162461bcd60e51b815260206004820152601960248201527f436f6e7472616374204e6f7420496e697469616c697a696e67000000000000006044820152606401610856565b6000613ebf858783615796565b506001613ecd838583615796565b506001600160a01b0381163014613fb3576001600160a01b0381163b613f055760405162461bcd60e51b815260040161085690615182565b6040516301ffc9a760e01b81526331501c3960e01b60048201526001600160a01b038216906301ffc9a790602401602060405180830381865afa158015613f50573d6000803e3d6000fd5b505050506040513d601f19601f82011682018060405250810190613f7491906151c0565b613fae5760405162461bcd60e51b815260206004820152600b60248201526a125b1b1959d85b081050d360aa1b6044820152606401610856565b613fff565b613fc36331501c3960e01b6107e3565b613fff5760405162461bcd60e51b815260206004820152600d60248201526c139bdd0814dd5c1c1bdc9d1959609a1b6044820152606401610856565b600280546001600160b01b0319166001600160a01b038316179055612628336130f6565b6000610b366140356060850185615473565b8080601f0160208091040260200160405190810160405280939291908181526020018383808284376000920191909152506140ed925086915061407d90506127cd8880615473565b61408d6040890160208a01614bf2565b61409d60608a0160408b016154b9565b6001600160401b031660408051602080820196909652808201949094526001600160a01b039290921660608401526080808401919091528151808403909101815260a09092019052805191012090565b614588565b600082826040516020016141079291906152df565b60405160208183030381529060405280519060200120905092915050565b6040516bffffffffffffffffffffffff19606084901b1660208201526001600160e01b031982166034820152600090603801614107565b6040516bffffffffffffffffffffffff19606083901b166020820152600090603401604051602081830303815290604052805190602001209050919050565b600081815260018084016020526040822090600182015460ff1660058111156141c6576141c6614cac565b036141e35760408051848152600186016020820152209150612afe565b6000600182015460ff1660058111156141fe576141fe614cac565b0361423b5760405162461bcd60e51b815260206004820152600d60248201526c11925108139bdd08119bdd5b99609a1b6044820152606401610856565b60405162461bcd60e51b815260206004820152601060248201526f125b1b195859db081192510814db1bdd60821b6044820152606401610856565b6000818152600183016020526040812054801561435f57600061429a600183615855565b85549091506000906142ae90600190615855565b90508181146143135760008660000182815481106142ce576142ce6150d0565b90600052602060002001549050808760000184815481106142f1576142f16150d0565b6000918252602080832090910192909255918252600188019052604090208390555b855486908061432457614324615868565b600190038181906000526020600020016000905590558560010160008681526020019081526020016000206000905560019350505050610808565b6000915050610808565b6000805160206158a483398151915280546001600160a01b0319166001600160a01b0392909216919091179055565b60606143a3846145fd565b6000835111806143b05750815b156143e3576130ef84846040518060400160405280600b81526020016a10d85b1b0811985a5b195960aa1b815250614641565b60408051600080825260208201909252905b50949350505050565b600081815260208390526040812060018082015460ff16600381111561442657614426614cac565b03614441576040805184815260208101869052209150612afe565b6000600182015460ff16600381111561445c5761445c614cac565b036144995760405162461bcd60e51b815260206004820152600d60248201526c13525108139bdd08119bdd5b99609a1b6044820152606401610856565b60405162461bcd60e51b815260206004820152601060248201526f125b1b1959d85b081352510814db1bdd60821b6044820152606401610856565b60008181526001830160205260408120541515610b36565b6000610808825490565b6040516329b8ed3160e11b8152604460048201819052602482018490528101859052606481018490528115156084820152738932561a695C53836269a551296Dca33Fb1fC41b90635371da629060a40160006040518083038186803b15801561455e57600080fd5b505af4158015614572573d6000803e3d6000fd5b5050505050505050565b6000610b36838361470f565b6000806145948361475e565b90506000806145a383876147cb565b909250905060008160048111156145bc576145bc614cac565b146143f55760405162461bcd60e51b8152602060048201526011602482015270496c6c6567616c205369676e617475726560781b6044820152606401610856565b61460681614369565b6040516001600160a01b03821690309033907f8ee0f2bd29c0e6a975c3cc2e47cf2e01b5f23a9a8a02e0ed6a5a070269de3d2d90600090a450565b60606001600160a01b0384163b61469a5760405162461bcd60e51b815260206004820152601860248201527f496c6c6567616c20436f6e7472616374204164647265737300000000000000006044820152606401610856565b600080856001600160a01b0316856040516146b5919061587e565b600060405180830381855af49150503d80600081146146f0576040519150601f19603f3d011682016040523d82523d6000602084013e6146f5565b606091505b5091509150614705828286614839565b9695505050505050565b600081815260018301602052604081205461475657508154600181810184556000848152602080822090930184905584548482528286019093526040902091909155610808565b506000610808565b6000610808306001600160a01b031663f698da256040518163ffffffff1660e01b8152600401602060405180830381865afa1580156147a1573d6000803e3d6000fd5b505050506040513d601f19601f820116820180604052508101906147c59190615618565b83614872565b60008082516041036148015760208301516040840151606085015160001a6147f587828585614899565b94509450505050614832565b825160400361482a576020830151604084015161481f868383614986565b935093505050614832565b506000905060025b9250929050565b60608315614848575081610b36565b8251156148585782518084602001fd5b8160405162461bcd60e51b81526004016108569190614ed4565b60405161190160f01b60208201526022810183905260428101829052600090606201614107565b6000807f7fffffffffffffffffffffffffffffff5d576e7357a4501ddfe92f46681b20a08311156148d0575060009050600361497d565b8460ff16601b141580156148e857508460ff16601c14155b156148f9575060009050600461497d565b6040805160008082526020820180845289905260ff881692820192909252606081018690526080810185905260019060a0016020604051602081039080840390855afa15801561494d573d6000803e3d6000fd5b5050604051601f1901519150506001600160a01b0381166149765760006001925092505061497d565b9150600090505b94509492505050565b6000806001600160ff1b038316816149a360ff86901c601b615890565b90506149b187828885614899565b935093505050935093915050565b5080546149cb906152ab565b6000825580601f106149db575050565b601f016020900490600052602060002090810190612d2e9190614a13565b5080546000825590600052602060002090810190612d2e91905b5b80821115614a285760008155600101614a14565b5090565b600060208284031215614a3e57600080fd5b81356001600160e01b031981168114610b3657600080fd5b60008083601f840112614a6857600080fd5b5081356001600160401b03811115614a7f57600080fd5b60208301915083602082850101111561483257600080fd5b80356001600160a01b0381168114610e4657600080fd5b600080600080600060608688031215614ac657600080fd5b85356001600160401b0380821115614add57600080fd5b614ae989838a01614a56565b90975095506020880135915080821115614b0257600080fd5b50614b0f88828901614a56565b9094509250614b22905060408701614a97565b90509295509295909350565b600060808284031215614b4057600080fd5b50919050565b60008083601f840112614b5857600080fd5b5081356001600160401b03811115614b6f57600080fd5b6020830191508360208260051b850101111561483257600080fd5b600080600060408486031215614b9f57600080fd5b83356001600160401b0380821115614bb657600080fd5b614bc287838801614b2e565b94506020860135915080821115614bd857600080fd5b50614be586828701614b46565b9497909650939450505050565b600060208284031215614c0457600080fd5b610b3682614a97565b60008083601f840112614c1f57600080fd5b5081356001600160401b03811115614c3657600080fd5b6020830191508360208260061b850101111561483257600080fd5b600080600060408486031215614c6657600080fd5b83356001600160401b0380821115614c7d57600080fd5b614c8987838801614b2e565b94506020860135915080821115614c9f57600080fd5b50614be586828701614c0d565b634e487b7160e01b600052602160045260246000fd5b60028110612d2e57612d2e614cac565b60208101614cdf83614cc2565b91905290565b60008060408385031215614cf857600080fd5b50508035926020909101359150565b600080600060608486031215614d1c57600080fd5b8335925060208401359150614d3360408501614a97565b90509250925092565b634e487b7160e01b600052604160045260246000fd5b60405161014081016001600160401b0381118282101715614d7557614d75614d3c565b60405290565b604051601f8201601f191681016001600160401b0381118282101715614da357614da3614d3c565b604052919050565b60006001600160401b03821115614dc457614dc4614d3c565b50601f01601f191660200190565b8015158114612d2e57600080fd5b600080600060608486031215614df557600080fd5b614dfe84614a97565b925060208401356001600160401b03811115614e1957600080fd5b8401601f81018613614e2a57600080fd5b8035614e3d614e3882614dab565b614d7b565b818152876020838501011115614e5257600080fd5b816020840160208301376000602083830101528094505050506040840135614e7981614dd2565b809150509250925092565b60005b83811015614e9f578181015183820152602001614e87565b50506000910152565b60008151808452614ec0816020860160208601614e84565b601f01601f19169290920160200192915050565b602081526000610b366020830184614ea8565b600080600060408486031215614efc57600080fd5b8335925060208401356001600160401b03811115614f1957600080fd5b614be586828701614a56565b60048110612d2e57612d2e614cac565b614f3e81614f25565b9052565b6020815281516020820152602082015160408201526040820151606082015260006060830151614f79608084018262ffffff169052565b50608083015162ffffff811660a08401525060a0830151614f9d60c0840182614f35565b5060c0830151614fb060e0840182614f35565b5060e0830151610100614fc581850183614f35565b8401519050610120614fd984820183614f35565b840151610140848101529050611792610160840182614ea8565b60028110612d2e57600080fd5b60006020828403121561501257600080fd5b8135610b3681614ff3565b6020808252600c908201526b125b1b1959d85b0810d85b1b60a21b604082015260600190565b6020808252600c908201526b125b9d985b1a590810d85b1b60a21b604082015260600190565b81835281816020850137506000828201602090810191909152601f909101601f19169091010190565b6060815260006150a6606083018789615069565b82810360208401526150b9818688615069565b91505061ffff831660408301529695505050505050565b634e487b7160e01b600052603260045260246000fd5b60008235609e198336030181126150fc57600080fd5b9190910192915050565b634e487b7160e01b600052601160045260246000fd5b60006001820161512e5761512e615106565b5060010190565b60208082526008908201526714995a9958dd195960c21b604082015260600190565b602080825260119082015270496c6c6567616c20557064617461626c6560781b604082015260600190565b60208082526010908201526f125b1b1959d85b0810dbdb9d1c9858dd60821b604082015260600190565b6020810160148310614cdf57614cdf614cac565b6000602082840312156151d257600080fd5b8151610b3681614dd2565b602080825260169082015275496c6c6567616c205479706520557064617461626c6560501b604082015260600190565b7f524f4c452e4c4956454c595f50524f46494c452e4c4956454c595f4d41535445815266292fa0a226a4a760c91b602082015260270190565b60048110612d2e57600080fd5b60006020828403121561526557600080fd5b8135610b3681615246565b60208101614cdf83614f25565b62ffffff81168114612d2e57600080fd5b6000602082840312156152a057600080fd5b8135610b368161527d565b600181811c908216806152bf57607f821691505b602082108103614b4057634e487b7160e01b600052602260045260246000fd5b8183823760009101908152919050565b8051610e468161527d565b8051610e4681615246565b600082601f83011261531657600080fd5b8151615324614e3882614dab565b81815284602083860101111561533957600080fd5b611792826020830160208701614e84565b60006020828403121561535c57600080fd5b81516001600160401b038082111561537357600080fd5b90830190610140828603121561538857600080fd5b615390614d52565b8251815260208301516020820152604083015160408201526153b4606084016152ef565b60608201526153c5608084016152ef565b60808201526153d660a084016152fa565b60a08201526153e760c084016152fa565b60c08201526153f860e084016152fa565b60e082015261010061540b8185016152fa565b90820152610120838101518381111561542357600080fd5b61542f88828701615305565b918301919091525095945050505050565b60008235603e198336030181126150fc57600080fd5b60006020828403121561546857600080fd5b8151610b3681614ff3565b6000808335601e1984360301811261548a57600080fd5b8301803591506001600160401b038211156154a457600080fd5b60200191503681900382131561483257600080fd5b6000602082840312156154cb57600080fd5b81356001600160401b0381168114610b3657600080fd5b8035600381900b8114610e4657600080fd5b60a08152853560a0820152602086013560c0820152604086013560e082015260006060870135601e1988360301811261552c57600080fd5b87016020810190356001600160401b0381111561554857600080fd5b80360382131561555757600080fd5b60a061010085015261556e61014085018284615069565b91505061557d608089016154e2565b61558d61012085018260030b9052565b5060208301969096525060408101939093526060830191909152608090910152919050565b600080604083850312156155c557600080fd5b505080516020909101519092909150565b6000602082840312156155e857600080fd5b815160148110610b3657600080fd5b60006020828403121561560957600080fd5b815160088110610b3657600080fd5b60006020828403121561562a57600080fd5b5051919050565b86815260c081016006871061564857615648614cac565b602082019690965260408101949094526060840192909252608083015260a090910152919050565b6000808335601e1984360301811261568757600080fd5b8301803591506001600160401b038211156156a157600080fd5b6020019150600581901b360382131561483257600080fd5b62ffffff818116838216019080821115612afe57612afe615106565b60008083546156e3816152ab565b600182811680156156fb57600181146157105761573f565b60ff198416875282151583028701945061573f565b8760005260208060002060005b858110156157365781548a82015290840190820161571d565b50505082870194505b50929695505050505050565b601f82111561579157600081815260208120601f850160051c810160208610156157725750805b601f850160051c820191505b81811015610a3c5782815560010161577e565b505050565b6001600160401b038311156157ad576157ad614d3c565b6157c1836157bb83546152ab565b8361574b565b6000601f8411600181146157f557600085156157dd5750838201355b600019600387901b1c1916600186901b178355612628565b600083815260209020601f19861690835b828110156158265786850135825560209485019460019092019101615806565b50868210156158435760001960f88860031b161c19848701351681555b505060018560011b0183555050505050565b8181038181111561080857610808615106565b634e487b7160e01b600052603160045260246000fd5b600082516150fc818460208701614e84565b808201808211156108085761080861510656fe360894a13ba1a3210667c828492db98dca3e2076cc3735a920a3ca505d382bbca264697066735822122007ed5c6fc3b1fcdf6fbb93032f5640f80148da7366e0c1c68046f9483e79cf4c64736f6c63430008130033b53127684a568b3173ae13b9f8a6016e243e63b6e8ee1178d6a717850b5d6103",
  "deployedBytecode": "0x6080604052600436106102275760003560e01c8063756af45f11610122578063e044600b116100a5578063f0b15def1161006c578063f0b15def14610745578063f698da2514610779578063f708ceb01461078e578063f94a0adb146107ae578063fcc40178146107c357005b8063e044600b14610698578063e1410533146106b8578063e284a930146106e5578063eb63052014610705578063ed7cc04a1461072557005b80639b97b534116100e95780639b97b534146105f2578063a0a8e46014610626578063a304e3531461063b578063b4a0bdf31461065a578063d9dc1f191461067857005b8063756af45f1461055657806375d0c0dc146105765780637678922e1461058b5780637919ef86146105b25780638012ef17146105d257005b8063416c5282116101aa57806358dbc45d1161017157806358dbc45d1461048857806364d4c819146104b5578063667c3775146104e95780636b21737a146105095780637147855d1461052957005b8063416c5282146103d75780634888f482146103f75780634bf0414d1461041f5780634d03d6c41461045357806352d1902d1461047357005b80632a97528c116101ee5780632a97528c14610307578063301c12801461032757806334109de21461035b57806336f6ff401461038f57806338d38c97146103af57005b806301ffc9a714610230578063077f224a146102655780630799de37146102855780630e32cb86146102a55780631b452f4b146102c557005b3661022e57005b005b34801561023c57600080fd5b5061025061024b366004614a2c565b6107e3565b60405190151581526020015b60405180910390f35b34801561027157600080fd5b5061022e610280366004614aae565b61080e565b34801561029157600080fd5b506102506102a0366004614b8a565b610a44565b3480156102b157600080fd5b506102506102c0366004614bf2565b610b3d565b3480156102d157600080fd5b506102f97f7bfb2abd6084c8ce20d7ff92c1620e7e7267603f0eac446b9176959d243306bc81565b60405190815260200161025c565b34801561031357600080fd5b50610250610322366004614b8a565b610e4b565b34801561033357600080fd5b506102f97f541cf898e7c3085cbc6b7402ba06e7237285bc4bd5baa510e708e35537a71ffd81565b34801561036757600080fd5b506102f97f7aabe2571874f2a330ea11c8972d9cc3792d973efc6b36e3e29005861a34418881565b34801561039b57600080fd5b506102506103aa366004614c51565b6110f2565b3480156103bb57600080fd5b506103c461132c565b60405161ffff909116815260200161025c565b3480156103e357600080fd5b506102506103f2366004614c51565b611340565b34801561040357600080fd5b50600254600160a81b900460ff165b60405161025c9190614cd2565b34801561042b57600080fd5b506102f97f9027b951cbdf8eff67da583391d218a57a89ec1ebfcb1c66da188e8531804d5581565b34801561045f57600080fd5b5061025061046e366004614ce5565b6114e6565b34801561047f57600080fd5b506102f9611523565b34801561049457600080fd5b5061049d611580565b6040516001600160a01b03909116815260200161025c565b3480156104c157600080fd5b506102f97f8b73c3c69bb8fe3d512ecc4cf759cc79239f7b179b0ffacaa9a75d522b39400f81565b3480156104f557600080fd5b50610250610504366004614c51565b61158a565b34801561051557600080fd5b50610250610524366004614d07565b6116fd565b34801561053557600080fd5b50610549610544366004614de0565b61179a565b60405161025c9190614ed4565b34801561056257600080fd5b506102f9610571366004614bf2565b6118f1565b34801561058257600080fd5b506105496119b6565b34801561059757600080fd5b5073__$2d579bb033d9a5a879e51507e5bfda47fd$__61049d565b3480156105be57600080fd5b506102506105cd366004614c51565b611a48565b3480156105de57600080fd5b506102506105ed366004614ee7565b611cc2565b3480156105fe57600080fd5b506102f97fdee69d384475c3656c17c592e94a2bbfd2a1998cce0c85f535569415a15863b881565b34801561063257600080fd5b50610549611d2e565b34801561064757600080fd5b50600254600160a01b900460ff16610412565b34801561066657600080fd5b506002546001600160a01b031661049d565b34801561068457600080fd5b50610250610693366004614bf2565b611d3d565b3480156106a457600080fd5b506102506106b3366004614d07565b611ef3565b3480156106c457600080fd5b506106d86106d3366004614ce5565b611f4b565b60405161025c9190614f42565b3480156106f157600080fd5b50610250610700366004614c51565b612027565b34801561071157600080fd5b50610250610720366004614b8a565b612159565b34801561073157600080fd5b50610250610740366004614b8a565b6121c9565b34801561075157600080fd5b506102f97ffc434588684348dd50856b075c47bed14245c1030aa04c32955af5549981462781565b34801561078557600080fd5b506102f9612239565b34801561079a57600080fd5b506102506107a9366004615000565b612243565b3480156107ba57600080fd5b5061049d6123ed565b3480156107cf57600080fd5b506102506107de366004615000565b6123f7565b60006001600160e01b0319821663065fba4160e01b1480610808575061080882612582565b92915050565b6001600160a01b037f000000000000000000000000000000000000000000000000000000000000000016300361085f5760405162461bcd60e51b81526004016108569061501d565b60405180910390fd5b7f00000000000000000000000000000000000000000000000000000000000000006001600160a01b03166108916125d2565b6001600160a01b0316146108b75760405162461bcd60e51b815260040161085690615043565b336108c06125f3565b6001600160a01b0316146109065760405162461bcd60e51b815260206004820152600d60248201526c1058d8d95cdcc811195b9a5959609a1b6044820152606401610856565b604e5462010000900460ff16158080156109285750604e54600161ffff909116105b806109435750303b1580156109435750604e5461ffff166001145b61098f5760405162461bcd60e51b815260206004820152601c60248201527f436f6e747261637420416c726561647920496e697469616c697a6564000000006044820152606401610856565b604e805461ffff1916600117905580156109b557604e805462ff00001916620100001790555b6109c2868686868661261b565b6109ca6125d2565b6001600160a01b031630336001600160a01b03167f247ab7b17ee489fa140c6666edc3822eefed2727610cd6e37192462b87244c6089898989610a10604e5461ffff1690565b604051610a21959493929190615092565b60405180910390a48015610a3c57604e805462ff0000191690555b505050505050565b60008080808080610a5c89630799de3760e01b61262f565b604051630d2185c560e01b81526004810186905261ffff8d166024820152604481018390529499509297509095509350915073__$2d579bb033d9a5a879e51507e5bfda47fd$__90630d2185c59060640160006040518083038186803b158015610ac557600080fd5b505af4158015610ad9573d6000803e3d6000fd5b5050505060005b87811015610b2b57610b19898983818110610afd57610afd6150d0565b9050602002810190610b0f91906150e6565b87878787876128a6565b80610b238161511c565b915050610ae0565b506001955050505050505b9392505050565b60006001600160a01b037f0000000000000000000000000000000000000000000000000000000000000000163003610b875760405162461bcd60e51b81526004016108569061501d565b7f00000000000000000000000000000000000000000000000000000000000000006001600160a01b0316610bb96125d2565b6001600160a01b031614610bdf5760405162461bcd60e51b815260040161085690615043565b6000600254600160a01b900460ff166001811115610bff57610bff614cac565b14610c1c5760405162461bcd60e51b815260040161085690615135565b6001600254600160a81b900460ff166001811115610c3c57610c3c614cac565b14610c595760405162461bcd60e51b815260040161085690615157565b6001600160a01b03821615801590610c7a57506001600160a01b0382163b15155b610c965760405162461bcd60e51b815260040161085690615182565b6002546001600160a01b031615610cf5576000610cb963071965c360e11b612996565b90506000816013811115610ccf57610ccf614cac565b14610cef5780604051637f0911d160e01b815260040161085691906151ac565b50610d44565b33610cfe6125f3565b6001600160a01b031614610d445760405162461bcd60e51b815260206004820152600d60248201526c1058d8d95cdcc811195b9a5959609a1b6044820152606401610856565b6040516301ffc9a760e01b81526331501c3960e01b60048201526001600160a01b038316906301ffc9a790602401602060405180830381865afa158015610d8f573d6000803e3d6000fd5b505050506040513d601f19601f82011682018060405250810190610db391906151c0565b610ded5760405162461bcd60e51b815260206004820152600b60248201526a125b1b1959d85b081050d360aa1b6044820152606401610856565b600280546001600160a01b0384166001600160a01b031990911681179091556040805191825251309133917f410bf468eebeeed60acaedb904afb2db7c0bb0131f7d14c3714d81b14fe8ed3c9181900360200190a35060015b919050565b60008080808080610e6389630aa5d4a360e21b61262f565b9450945094509450945060005b87811015610b2b576000610ea58a8a84818110610e8f57610e8f6150d0565b9050602002013588612a2190919063ffffffff16565b90506000610ebc8888846000016000015488612b05565b90506000816007811115610ed257610ed2614cac565b14610ee057610ee081612b9a565b60058201546301000000900462ffffff1615610f2f5760405162461bcd60e51b815260206004820152600e60248201526d496c6c6567616c2052656d6f766560901b6044820152606401610856565b6000610f4883600301548a612d3190919063ffffffff16565b90506002600182015462010000900460ff166003811115610f6b57610f6b614cac565b1015610f895760405162461bcd60e51b8152600401610856906151dd565b610fb78c8c86818110610f9e57610f9e6150d0565b9050602002013582600601612e0890919063ffffffff16565b506002830154600090815260018a81016020526040909120908101546301000000900463ffffffff1661101f5760405162461bcd60e51b815260206004820152601060248201526f125b1b195859db08149959995c9c995960821b6044820152606401610856565b60018101805460001963ffffffff6301000000808404821692909201160266ffffffff0000001990911617905561105a6004850160006149bf565b60058401805465ffffffffffff1916905560006003850181905560028501819055845560018401805462ffffff191690558c8c8681811061109d5761109d6150d0565b9050602002013588876001600160a01b03167fdf65ae7998aa5d87571222f7baac8e67298d6b9a315c54d8aabf889391396a9460405160405180910390a45050505080806110ea9061511c565b915050610e70565b600080808080806111098962dbdbfd60e61b61262f565b9450945094509450945060005b87811015610b2b5760405160200161112d9061520d565b60405160208183030381529060405280519060200120898983818110611155576111556150d0565b905060400201600001350361119b5760405162461bcd60e51b815260206004820152600c60248201526b496c6c6567616c20526f6c6560a01b6044820152606401610856565b60006111c487878c8c868181106111b4576111b46150d0565b9050604002016000013587612e14565b905060018a8a848181106111da576111da6150d0565b90506040020160200160208101906111f29190615253565b600381111561120357611203614cac565b116112435760405162461bcd60e51b815260206004820152601060248201526f496c6c6567616c20416374697669747960801b6044820152606401610856565b898983818110611255576112556150d0565b905060400201602001602081019061126d9190615253565b60018201805461ff00191661010083600381111561128d5761128d614cac565b02179055508989838181106112a4576112a46150d0565b9050604002016000013585846001600160a01b03167f2a2d335f398ab959db0b6111196b600c541b53c27f2232ca9b77329ae99071558d8d878181106112ec576112ec6150d0565b90506040020160200160208101906113049190615253565b6040516113119190615270565b60405180910390a450806113248161511c565b915050611116565b600061133b604e5461ffff1690565b905090565b60008080808080611358896320b6294160e11b61262f565b9450945094509450945060005b87811015610b2b57600061138687878c8c868181106111b4576111b46150d0565b60058101549091506301000000900462ffffff168a8a848181106113ac576113ac6150d0565b90506040020160200160208101906113c4919061528e565b62ffffff16116114065760405162461bcd60e51b815260206004820152600d60248201526c125b1b1959d85b08131a5b5a5d609a1b6044820152606401610856565b898983818110611418576114186150d0565b9050604002016020016020810190611430919061528e565b60058201805462ffffff191662ffffff9290921691909117905589898381811061145c5761145c6150d0565b9050604002016000013585846001600160a01b03167faeacf792f6f1fff5f1c25b2af15f2104a6dc9721af33352c3c8ee40addd7b5cc8d8d878181106114a4576114a46150d0565b90506040020160200160208101906114bc919061528e565b60405162ffffff909116815260200160405180910390a450806114de8161511c565b915050611365565b60006002600084815260486020908152604080832086845290915290206001015460ff16600381111561151b5761151b614cac565b149392505050565b6000306001600160a01b037f0000000000000000000000000000000000000000000000000000000000000000161461156d5760405162461bcd60e51b81526004016108569061501d565b506000805160206158a483398151915290565b600061133b6125d2565b600080808080806115a28963667c377560e01b61262f565b9450945094509450945060005b87811015610b2b5773__$2d579bb033d9a5a879e51507e5bfda47fd$__63c7a497808a8a848181106115e3576115e36150d0565b604080516001600160e01b031960e087901b168152910292909201803560048401526020013560248301525060448101899052606481018890526084810187905260a4810186905260c401602060405180830381865af415801561164b573d6000803e3d6000fd5b505050506040513d601f19601f8201168201806040525081019061166f91906151c0565b50888882818110611682576116826150d0565b9050604002016000013584836001600160a01b03167f92b4ee9fe8d2608c10b39bc53ac8ae1801f4fcd83a82624953f292da18776d958c8c868181106116ca576116ca6150d0565b905060400201602001356040516116e391815260200190565b60405180910390a4806116f58161511c565b9150506115af565b604051632409432160e21b81526044600482018190526024820185905281018390526001600160a01b038216606482015260009073__$2d579bb033d9a5a879e51507e5bfda47fd$__906390250c84906084015b602060405180830381865af415801561176e573d6000803e3d6000fd5b505050506040513d601f19601f8201168201806040525081019061179291906151c0565b949350505050565b60606001600160a01b037f00000000000000000000000000000000000000000000000000000000000000001630036117e45760405162461bcd60e51b81526004016108569061501d565b7f00000000000000000000000000000000000000000000000000000000000000006001600160a01b03166118166125d2565b6001600160a01b03161461183c5760405162461bcd60e51b815260040161085690615043565b6000600254600160a01b900460ff16600181111561185c5761185c614cac565b146118795760405162461bcd60e51b815260040161085690615135565b6001600254600160a81b900460ff16600181111561189957611899614cac565b146118b65760405162461bcd60e51b815260040161085690615157565b6001600160a01b0384163b6118dd5760405162461bcd60e51b815260040161085690615182565b6118e684612ea0565b611792848484612f3e565b600080600254600160a01b900460ff16600181111561191257611912614cac565b1461192f5760405162461bcd60e51b815260040161085690615135565b600061194163756af45f60e01b612996565b9050600081601381111561195757611957614cac565b146119775780604051637f0911d160e01b815260040161085691906151ac565b60405147906001600160a01b038516904780156108fc02916000818181858888f193505050501580156119ae573d6000803e3d6000fd5b509392505050565b6060600080546119c5906152ab565b80601f01602080910402602001604051908101604052809291908181526020018280546119f1906152ab565b8015611a3e5780601f10611a1357610100808354040283529160200191611a3e565b820191906000526020600020905b815481529060010190602001808311611a2157829003601f168201915b5050505050905090565b60008080808080611a6089633c8cf7c360e11b61262f565b9450945094509450945060005b87811015610b2b57604051602001611a849061520d565b60405160208183030381529060405280519060200120898983818110611aac57611aac6150d0565b9050604002016000013503611af25760405162461bcd60e51b815260206004820152600c60248201526b496c6c6567616c20526f6c6560a01b6044820152606401610856565b6000611b198a8a84818110611b0957611b096150d0565b8a92604090910201359050612a21565b90506000611b308888846000016000015488612b05565b90506000816007811115611b4657611b46614cac565b14611b5457611b5481612b9a565b60008b8b85818110611b6857611b686150d0565b9050604002016020016020810190611b809190615253565b6003811115611b9157611b91614cac565b03611bd55760405162461bcd60e51b8152602060048201526014602482015273496c6c6567616c20416c7465726162696c69747960601b6044820152606401610856565b8a8a84818110611be757611be76150d0565b9050604002016020016020810190611bff9190615253565b60018301805462ff0000191662010000836003811115611c2157611c21614cac565b02179055508a8a84818110611c3857611c386150d0565b9050604002016000013586856001600160a01b03167f72328d3f8f03243b4b26d66588622a02623ab29a340687f1e64512e41d05f0888e8e88818110611c8057611c806150d0565b9050604002016020016020810190611c989190615253565b604051611ca59190615270565b60405180910390a450508080611cba9061511c565b915050611a6d565b600083815260486020908152604080832090516002928491611ce89188918891016152df565b60408051601f198184030181529181528151602092830120835290820192909252016000206001015460ff166003811115611d2557611d25614cac565b14949350505050565b6060600180546119c5906152ab565b60006001600160a01b037f0000000000000000000000000000000000000000000000000000000000000000163003611d875760405162461bcd60e51b81526004016108569061501d565b7f00000000000000000000000000000000000000000000000000000000000000006001600160a01b0316611db96125d2565b6001600160a01b031614611ddf5760405162461bcd60e51b815260040161085690615043565b6000600254600160a01b900460ff166001811115611dff57611dff614cac565b14611e1c5760405162461bcd60e51b815260040161085690615135565b6001600254600160a81b900460ff166001811115611e3c57611e3c614cac565b14611e595760405162461bcd60e51b815260040161085690615157565b6000611e6b63d9dc1f1960e01b612996565b90506000816013811115611e8157611e81614cac565b14611ea15780604051637f0911d160e01b815260040161085691906151ac565b6001600160a01b038316611ee15760405162461bcd60e51b8152602060048201526007602482015266125b9d985b1a5960ca1b6044820152606401610856565b611eea836130f6565b50600192915050565b6040516303583e0b60e31b81526044600482018190526024820185905281018390526001600160a01b038216606482015260009073__$2d579bb033d9a5a879e51507e5bfda47fd$__90631ac1f05890608401611751565b611fa1604080516101408101825260008082526020820181905291810182905260608101829052608081018290529060a08201908152602001600081526020016000815260200160008152602001606081525090565b604051635c2b7e2360e11b815260446004820181905260248201859052810183905273__$2d579bb033d9a5a879e51507e5bfda47fd$__9063b856fc4690606401600060405180830381865af4158015611fff573d6000803e3d6000fd5b505050506040513d6000823e601f3d908101601f19168201604052610b36919081019061534a565b6000808080808061203f89630e284a9360e41b61262f565b9450945094509450945060005b87811015610b2b57600061206d87878c8c868181106111b4576111b46150d0565b600281015460008181526001808b01602090815260408084209092015460038601548452908c90529120549293506120c9928a9260ff909216918e8e888181106120b9576120b96150d0565b905060400201602001358a61316d565b81558989838181106120dd576120dd6150d0565b9050604002016000013585846001600160a01b03167f34caac42a16314f838f4e0c4e4b14c81cfa65cd1c88b60f43336c508936c32d68d8d87818110612125576121256150d0565b9050604002016020013560405161213e91815260200190565b60405180910390a450806121518161511c565b91505061204c565b600080808080806121718963075b182960e51b61262f565b9450945094509450945060005b87811015610b2b576121b789898381811061219b5761219b6150d0565b90506020028101906121ad9190615440565b87878787876131fd565b806121c18161511c565b91505061217e565b600080808080806121e1896376be602560e11b61262f565b9450945094509450945060005b87811015610b2b5761222789898381811061220b5761220b6150d0565b905060200281019061221d9190615440565b878787878761378e565b806122318161511c565b9150506121ee565b600061133b613da6565b60006001600160a01b037f000000000000000000000000000000000000000000000000000000000000000016300361228d5760405162461bcd60e51b81526004016108569061501d565b7f00000000000000000000000000000000000000000000000000000000000000006001600160a01b03166122bf6125d2565b6001600160a01b0316146122e55760405162461bcd60e51b815260040161085690615043565b60006122f4604e5461ffff1690565b61ffff16116123305760405162461bcd60e51b81526020600482015260086024820152671393d5081253925560c21b6044820152606401610856565b6000612342630f708ceb60e41b612996565b9050600081601381111561235857612358614cac565b146123785780604051637f0911d160e01b815260040161085691906151ac565b6002805484919060ff60a01b1916600160a01b83600181111561239d5761239d614cac565b021790555030336001600160a01b03167fc08ec585c25f1907baaab6f278c5994531a2e34c59935b3fcfe813067a3b4878856040516123dc9190614cd2565b60405180910390a350600192915050565b600061133b6125f3565b60006001600160a01b037f00000000000000000000000000000000000000000000000000000000000000001630036124415760405162461bcd60e51b81526004016108569061501d565b7f00000000000000000000000000000000000000000000000000000000000000006001600160a01b03166124736125d2565b6001600160a01b0316146124995760405162461bcd60e51b815260040161085690615043565b6000600254600160a01b900460ff1660018111156124b9576124b9614cac565b146124d65760405162461bcd60e51b815260040161085690615135565b60006124e8631f98802f60e31b612996565b905060008160138111156124fe576124fe614cac565b1461251e5780604051637f0911d160e01b815260040161085691906151ac565b6002805484919060ff60a81b1916600160a81b83600181111561254357612543614cac565b021790555030336001600160a01b03167ff5912c5e436152157ed2b4a84bc313b4b1fe09a15b941f195d23c99a1b8c45ad856040516123dc9190614cd2565b60006001600160e01b03198216633d817cff60e01b14806125b357506001600160e01b031982166352d1902d60e01b145b8061080857506301ffc9a760e01b6001600160e01b0319831614610808565b60006000805160206158a48339815191525b546001600160a01b0316919050565b60007fb53127684a568b3173ae13b9f8a6016e243e63b6e8ee1178d6a717850b5d61036125e4565b6126288585858585613e5a565b5050505050565b60008080808080306001600160a01b031663a304e3536040518163ffffffff1660e01b8152600401602060405180830381865afa158015612674573d6000803e3d6000fd5b505050506040513d601f19601f820116820180604052508101906126989190615456565b60018111156126a9576126a9614cac565b146126c65760405162461bcd60e51b815260040161085690615135565b60006126d28880615473565b9050116127175760405162461bcd60e51b8152602060048201526013602482015272496c6c6567616c2050726f66696c654e616d6560681b6044820152606401610856565b60008061272760608a018a615473565b905011156127bb574261274060608a0160408b016154b9565b6001600160401b03161161278a5760405162461bcd60e51b815260206004820152601160248201527045787069726564205369676e617475726560781b6044820152606401610856565b6127b4887f9027b951cbdf8eff67da583391d218a57a89ec1ebfcb1c66da188e8531804d55614023565b90506127be565b50335b60006127d26127cd8a80615473565b6140f2565b6001600160e01b031989166000908152604a60205260408120549192506001600160a01b0390911690612805828b614125565b905060006128128561415c565b60405163a66ce52f60e01b8152600481018690526024810184905260448101829052909150309063a66ce52f90606401600060405180830381600087803b15801561285c57600080fd5b505af1158015612870573d6000803e3d6000fd5b5050506000858152604860205260408120915061288e60448561419b565b919e919d50949b509099509397509295505050505050565b60008073__$2d579bb033d9a5a879e51507e5bfda47fd$__63cb89465889898989896040518663ffffffff1660e01b81526004016128e89594939291906154f4565b6040805180830381865af4158015612904573d6000803e3d6000fd5b505050506040513d601f19601f8201168201806040525081019061292891906155b2565b915091508185846001600160a01b03167f1112e41b42d70650e30385998ed1d452254538da4109852c603208dc3d6a5d0e8b60400135858d60200135604051612984939291909283526020830191909152604082015260600190565b60405180910390a45050505050505050565b6002546040805163172cb29d60e11b81523060048201526001600160e01b03198416602482015233604482015290516000926001600160a01b031691632e59653a916064808301926020929190829003018187875af11580156129fd573d6000803e3d6000fd5b505050506040513d601f19601f8201168201806040525081019061080891906155d6565b60008181526020839052604081206002600182015460ff166003811115612a4a57612a4a614cac565b03612a65576040805184815260208101869052209150612afe565b6000600182015460ff166003811115612a8057612a80614cac565b03612ac05760405162461bcd60e51b815260206004820152601060248201526f149bdb19525908139bdd08119bdd5b9960821b6044820152606401610856565b60405162461bcd60e51b8152602060048201526013602482015272125b1b1959d85b08149bdb1952590814db1bdd606a1b6044820152606401610856565b5092915050565b604051635fbcdb4b60e01b81526004810185905260248101849052604481018390526064810182905260009073__$2d579bb033d9a5a879e51507e5bfda47fd$__90635fbcdb4b90608401602060405180830381865af4158015612b6d573d6000803e3d6000fd5b505050506040513d601f19601f82011682018060405250810190612b9191906155f7565b95945050505050565b6001816007811115612bae57612bae614cac565b03612bcc5760405163e15df99b60e01b815260040160405180910390fd5b6002816007811115612be057612be0614cac565b03612bfe5760405163c38331b560e01b815260040160405180910390fd5b6003816007811115612c1257612c12614cac565b03612c305760405163dab65f4760e01b815260040160405180910390fd5b6004816007811115612c4457612c44614cac565b03612c6257604051633f4b20a160e11b815260040160405180910390fd5b6005816007811115612c7657612c76614cac565b03612c94576040516308fa537360e01b815260040160405180910390fd5b6006816007811115612ca857612ca8614cac565b03612cc65760405163ae0903a160e01b815260040160405180910390fd5b6007816007811115612cda57612cda614cac565b03612cf85760405163d59825eb60e01b815260040160405180910390fd5b60405162461bcd60e51b815260206004820152600b60248201526a2ab735b737bbb71022a92960a91b6044820152606401610856565b50565b60008181526020839052604081206003600182015460ff166003811115612d5a57612d5a614cac565b03612d75576040805184815260208101869052209150612afe565b6000600182015460ff166003811115612d9057612d90614cac565b03612dcd5760405162461bcd60e51b815260206004820152600d60248201526c15125108139bdd08119bdd5b99609a1b6044820152606401610856565b60405162461bcd60e51b815260206004820152601060248201526f125b1b1959d85b081512510814db1bdd60821b6044820152606401610856565b6000610b368383614276565b60405163045bc59560e01b81526004810185905260248101849052604481018390526064810182905260009073__$2d579bb033d9a5a879e51507e5bfda47fd$__9063045bc59590608401602060405180830381865af4158015612e7c573d6000803e3d6000fd5b505050506040513d601f19601f82011682018060405250810190612b919190615618565b612ea86125d2565b6001600160a01b0316816001600160a01b031603612ef25760405162461bcd60e51b8152602060048201526007602482015266125b1b1959d85b60ca1b6044820152606401610856565b6000612f04637147855d60e01b612996565b90506000816013811115612f1a57612f1a614cac565b14612f3a5780604051637f0911d160e01b815260040161085691906151ac565b5050565b60607f4910fdfa16fed3260ed0e7147f7cc6da11a60208b5b9406d12a635614ffd91435460ff1615612f8857612f7384614369565b50604080516000815260208101909152610b36565b6000805160206158a483398151915260001b846001600160a01b03166352d1902d6040518163ffffffff1660e01b8152600401602060405180830381865afa158015612fd8573d6000803e3d6000fd5b505050506040513d601f19601f82011682018060405250810190612ffc9190615618565b146130385760405162461bcd60e51b815260206004820152600c60248201526b496c6c6567616c205555505360a01b6044820152606401610856565b6040516301ffc9a760e01b8152633d817cff60e01b60048201526001600160a01b038516906301ffc9a790602401602060405180830381865afa158015613083573d6000803e3d6000fd5b505050506040513d601f19601f820116820180604052508101906130a791906151c0565b6130e45760405162461bcd60e51b815260206004820152600e60248201526d496c6c6567616c204950726f787960901b6044820152606401610856565b6130ef848484614398565b9050610b36565b7fb53127684a568b3173ae13b9f8a6016e243e63b6e8ee1178d6a717850b5d610380546001600160a01b0383166001600160a01b031990911681179091556040805191825251309133917f63fdbed5f2909ec44e3becc51e9d29654ce1447747914e8a6ebc019e7f640b8b9181900360200190a350565b6040516328028aa160e11b815260009073__$2d579bb033d9a5a879e51507e5bfda47fd$__906350051542906131b1908a908a908a908a908a908a90600401615631565b602060405180830381865af41580156131ce573d6000803e3d6000fd5b505050506040513d601f19601f820116820180604052508101906131f29190615618565b979650505050505050565b600061320c8686893586612e14565b90506000613227826003015488612d3190919063ffffffff16565b90506002600182015462010000900460ff16600381111561324a5761324a614cac565b10156132685760405162461bcd60e51b8152600401610856906151dd565b60005b61327860208a018a615670565b90508110156137835760006132b961329360208c018c615670565b848181106132a3576132a36150d0565b905060200201358a6143fe90919063ffffffff16565b90506002600182015462010000900460ff1660038111156132dc576132dc614cac565b10156133255760405162461bcd60e51b8152602060048201526018602482015277496c6c6567616c204d656d62657220557064617461626c6560401b6044820152606401610856565b6040516020016133349061520d565b604051602081830303815290604052805190602001208a60000135036133d357600889015461336b906001600160a01b031661415c565b61337860208c018c615670565b84818110613388576133886150d0565b90506020020135036133d35760405162461bcd60e51b8152602060048201526014602482015273496c6c6567616c204f776e6572205265766f6b6560601b6044820152606401610856565b600060058401816133e760208e018e615670565b868181106133f7576133f76150d0565b90506020020135815260200190815260200160002054036134465760405162461bcd60e51b8152602060048201526009602482015268139bdd08119bdd5b9960ba1b6044820152606401610856565b60058401546301000000900462ffffff166134995760405162461bcd60e51b8152602060048201526013602482015272125b1b1959d85b0813595b58995c90dbdd5b9d606a1b6044820152606401610856565b6005830160006134ac60208d018d615670565b858181106134bc576134bc6150d0565b6020908102929092013583525081019190915260400160009081205560058401805460001962ffffff6301000000808404821692909201160265ffffff000000199091161790556003840154613516906004830190612e08565b5061355061352760208c018c615670565b84818110613537576135376150d0565b905060200201358a6004016144d490919063ffffffff16565b156135e557600281015460088a01546001600160a01b039182169116036135aa5760405162461bcd60e51b815260206004820152600e60248201526d496c6c6567616c205265766f6b6560901b6044820152606401610856565b6135e36135ba60208c018c615670565b848181106135ca576135ca6150d0565b905060200201358a600401612e0890919063ffffffff16565b505b6135f1816004016144ec565b6000036136fa576136098785600301548360016144f6565b600080825560018201805462ffffff191690556002820180546001600160c01b03191690556003820180546001600160d01b03191690556004820190818161365182826149f9565b506136639250505060208b018b615670565b83818110613673576136736150d0565b9050602002013587866001600160a01b03167fd6974f35ff0be09ab8e1ae6085a3827d872192cd1c990a8e0ed4504f9d693fd78d6000013588600301548660020160009054906101000a90046001600160a01b03166040516136f19392919092835260208301919091526001600160a01b0316604082015260600190565b60405180910390a45b8935876001600160a01b0387167ff58eda347c1ea9a8dcd22bc104f252f40fa5d596353817b83729cdded7c3d05561373560208f018f615670565b87818110613745576137456150d0565b905060200201358860030154604051613768929190918252602082015260400190565b60405180910390a4508061377b8161511c565b91505061326b565b505050505050505050565b600061379d8686893586612e14565b905060006137b8826003015488612d3190919063ffffffff16565b90506002600182015462010000900460ff1660038111156137db576137db614cac565b10156137f95760405162461bcd60e51b8152600401610856906151dd565b60005b61380960208a018a615670565b905081101561378357600583015462ffffff808216630100000090920416106138645760405162461bcd60e51b815260206004820152600d60248201526c125b1b1959d85b0811dc985b9d609a1b6044820152606401610856565b6040516020016138739061520d565b604051602081830303815290604052805190602001208960000135036139125760088801546138aa906001600160a01b031661415c565b6138b760208b018b615670565b838181106138c7576138c76150d0565b90506020020135036139125760405162461bcd60e51b8152602060048201526014602482015273496c6c6567616c204f776e6572205265766f6b6560601b6044820152606401610856565b600061392461329360208c018c615670565b90506139408460030154826004016144d490919063ffffffff16565b15613b09576000600584018161395960208e018e615670565b86818110613969576139696150d0565b9050602002013581526020019081526020016000205490508a6000013581036139c45760405162461bcd60e51b815260206004820152600d60248201526c105b1c9958591e48115e1a5cdd609a1b6044820152606401610856565b60006139d28b8b848b612e14565b60058101549091506301000000900462ffffff16613a285760405162461bcd60e51b8152602060048201526013602482015272125b1b1959d85b0813595b58995c90dbdd5b9d606a1b6044820152606401610856565b6005908101805460001962ffffff6301000000808404821692909201160265ffffff00000019909116179055840190506000613a6760208d018d615670565b85818110613a7757613a776150d0565b9050602002013581526020019081526020016000205487866001600160a01b03167ff58eda347c1ea9a8dcd22bc104f252f40fa5d596353817b83729cdded7c3d0558d8060200190613ac99190615670565b87818110613ad957613ad96150d0565b905060200201358860030154604051613afc929190918252602082015260400190565b60405180910390a4613c9a565b6002600182015462010000900460ff166003811115613b2a57613b2a614cac565b1015613b735760405162461bcd60e51b8152602060048201526018602482015277496c6c6567616c204d656d62657220557064617461626c6560401b6044820152606401610856565b613b7f816004016144ec565b6002820154600160b01b900461ffff1611613bdc5760405162461bcd60e51b815260206004820152601860248201527f496c6c6567616c204d656d62657220547970654c696d697400000000000000006044820152606401610856565b613bed8785600301548360006144f6565b604051602001613c2a907f545950452e4c4956454c595f50524f46494c452e4c4956454c595f4d415354458152602960f91b602082015260210190565b60405160208183030381529060405280519060200120846003015403613c8557613c83613c5a60208c018c615670565b84818110613c6a57613c6a6150d0565b905060200201358a60040161457c90919063ffffffff16565b505b6003840154613c9890600483019061457c565b505b8935600584016000613caf60208e018e615670565b86818110613cbf57613cbf6150d0565b9050602002013581526020019081526020016000208190555060018460050160038282829054906101000a900462ffffff16613cfb91906156b9565b92506101000a81548162ffffff021916908362ffffff160217905550896000013587866001600160a01b03167fcdfdc6cdc229e7295e4ff376441874756e8917070f0b2d34ab083eee88f2c7318d8060200190613d589190615670565b87818110613d6857613d686150d0565b905060200201358860030154604051613d8b929190918252602082015260400190565b60405180910390a45080613d9e8161511c565b9150506137fc565b60007f8b73c3c69bb8fe3d512ecc4cf759cc79239f7b179b0ffacaa9a75d522b39400f6000604051602001613ddb91906156d5565b604051602081830303815290604052805190602001206001604051602001613e0391906156d5565b60408051601f1981840301815282825280516020918201209083019490945281019190915260608101919091524660808201523060a082015260c00160405160208183030381529060405280519060200120905090565b604e5462010000900460ff16613eb25760405162461bcd60e51b815260206004820152601960248201527f436f6e7472616374204e6f7420496e697469616c697a696e67000000000000006044820152606401610856565b6000613ebf858783615796565b506001613ecd838583615796565b506001600160a01b0381163014613fb3576001600160a01b0381163b613f055760405162461bcd60e51b815260040161085690615182565b6040516301ffc9a760e01b81526331501c3960e01b60048201526001600160a01b038216906301ffc9a790602401602060405180830381865afa158015613f50573d6000803e3d6000fd5b505050506040513d601f19601f82011682018060405250810190613f7491906151c0565b613fae5760405162461bcd60e51b815260206004820152600b60248201526a125b1b1959d85b081050d360aa1b6044820152606401610856565b613fff565b613fc36331501c3960e01b6107e3565b613fff5760405162461bcd60e51b815260206004820152600d60248201526c139bdd0814dd5c1c1bdc9d1959609a1b6044820152606401610856565b600280546001600160b01b0319166001600160a01b038316179055612628336130f6565b6000610b366140356060850185615473565b8080601f0160208091040260200160405190810160405280939291908181526020018383808284376000920191909152506140ed925086915061407d90506127cd8880615473565b61408d6040890160208a01614bf2565b61409d60608a0160408b016154b9565b6001600160401b031660408051602080820196909652808201949094526001600160a01b039290921660608401526080808401919091528151808403909101815260a09092019052805191012090565b614588565b600082826040516020016141079291906152df565b60405160208183030381529060405280519060200120905092915050565b6040516bffffffffffffffffffffffff19606084901b1660208201526001600160e01b031982166034820152600090603801614107565b6040516bffffffffffffffffffffffff19606083901b166020820152600090603401604051602081830303815290604052805190602001209050919050565b600081815260018084016020526040822090600182015460ff1660058111156141c6576141c6614cac565b036141e35760408051848152600186016020820152209150612afe565b6000600182015460ff1660058111156141fe576141fe614cac565b0361423b5760405162461bcd60e51b815260206004820152600d60248201526c11925108139bdd08119bdd5b99609a1b6044820152606401610856565b60405162461bcd60e51b815260206004820152601060248201526f125b1b195859db081192510814db1bdd60821b6044820152606401610856565b6000818152600183016020526040812054801561435f57600061429a600183615855565b85549091506000906142ae90600190615855565b90508181146143135760008660000182815481106142ce576142ce6150d0565b90600052602060002001549050808760000184815481106142f1576142f16150d0565b6000918252602080832090910192909255918252600188019052604090208390555b855486908061432457614324615868565b600190038181906000526020600020016000905590558560010160008681526020019081526020016000206000905560019350505050610808565b6000915050610808565b6000805160206158a483398151915280546001600160a01b0319166001600160a01b0392909216919091179055565b60606143a3846145fd565b6000835111806143b05750815b156143e3576130ef84846040518060400160405280600b81526020016a10d85b1b0811985a5b195960aa1b815250614641565b60408051600080825260208201909252905b50949350505050565b600081815260208390526040812060018082015460ff16600381111561442657614426614cac565b03614441576040805184815260208101869052209150612afe565b6000600182015460ff16600381111561445c5761445c614cac565b036144995760405162461bcd60e51b815260206004820152600d60248201526c13525108139bdd08119bdd5b99609a1b6044820152606401610856565b60405162461bcd60e51b815260206004820152601060248201526f125b1b1959d85b081352510814db1bdd60821b6044820152606401610856565b60008181526001830160205260408120541515610b36565b6000610808825490565b6040516329b8ed3160e11b815260446004820181905260248201849052810185905260648101849052811515608482015273__$2d579bb033d9a5a879e51507e5bfda47fd$__90635371da629060a40160006040518083038186803b15801561455e57600080fd5b505af4158015614572573d6000803e3d6000fd5b5050505050505050565b6000610b36838361470f565b6000806145948361475e565b90506000806145a383876147cb565b909250905060008160048111156145bc576145bc614cac565b146143f55760405162461bcd60e51b8152602060048201526011602482015270496c6c6567616c205369676e617475726560781b6044820152606401610856565b61460681614369565b6040516001600160a01b03821690309033907f8ee0f2bd29c0e6a975c3cc2e47cf2e01b5f23a9a8a02e0ed6a5a070269de3d2d90600090a450565b60606001600160a01b0384163b61469a5760405162461bcd60e51b815260206004820152601860248201527f496c6c6567616c20436f6e7472616374204164647265737300000000000000006044820152606401610856565b600080856001600160a01b0316856040516146b5919061587e565b600060405180830381855af49150503d80600081146146f0576040519150601f19603f3d011682016040523d82523d6000602084013e6146f5565b606091505b5091509150614705828286614839565b9695505050505050565b600081815260018301602052604081205461475657508154600181810184556000848152602080822090930184905584548482528286019093526040902091909155610808565b506000610808565b6000610808306001600160a01b031663f698da256040518163ffffffff1660e01b8152600401602060405180830381865afa1580156147a1573d6000803e3d6000fd5b505050506040513d601f19601f820116820180604052508101906147c59190615618565b83614872565b60008082516041036148015760208301516040840151606085015160001a6147f587828585614899565b94509450505050614832565b825160400361482a576020830151604084015161481f868383614986565b935093505050614832565b506000905060025b9250929050565b60608315614848575081610b36565b8251156148585782518084602001fd5b8160405162461bcd60e51b81526004016108569190614ed4565b60405161190160f01b60208201526022810183905260428101829052600090606201614107565b6000807f7fffffffffffffffffffffffffffffff5d576e7357a4501ddfe92f46681b20a08311156148d0575060009050600361497d565b8460ff16601b141580156148e857508460ff16601c14155b156148f9575060009050600461497d565b6040805160008082526020820180845289905260ff881692820192909252606081018690526080810185905260019060a0016020604051602081039080840390855afa15801561494d573d6000803e3d6000fd5b5050604051601f1901519150506001600160a01b0381166149765760006001925092505061497d565b9150600090505b94509492505050565b6000806001600160ff1b038316816149a360ff86901c601b615890565b90506149b187828885614899565b935093505050935093915050565b5080546149cb906152ab565b6000825580601f106149db575050565b601f016020900490600052602060002090810190612d2e9190614a13565b5080546000825590600052602060002090810190612d2e91905b5b80821115614a285760008155600101614a14565b5090565b600060208284031215614a3e57600080fd5b81356001600160e01b031981168114610b3657600080fd5b60008083601f840112614a6857600080fd5b5081356001600160401b03811115614a7f57600080fd5b60208301915083602082850101111561483257600080fd5b80356001600160a01b0381168114610e4657600080fd5b600080600080600060608688031215614ac657600080fd5b85356001600160401b0380821115614add57600080fd5b614ae989838a01614a56565b90975095506020880135915080821115614b0257600080fd5b50614b0f88828901614a56565b9094509250614b22905060408701614a97565b90509295509295909350565b600060808284031215614b4057600080fd5b50919050565b60008083601f840112614b5857600080fd5b5081356001600160401b03811115614b6f57600080fd5b6020830191508360208260051b850101111561483257600080fd5b600080600060408486031215614b9f57600080fd5b83356001600160401b0380821115614bb657600080fd5b614bc287838801614b2e565b94506020860135915080821115614bd857600080fd5b50614be586828701614b46565b9497909650939450505050565b600060208284031215614c0457600080fd5b610b3682614a97565b60008083601f840112614c1f57600080fd5b5081356001600160401b03811115614c3657600080fd5b6020830191508360208260061b850101111561483257600080fd5b600080600060408486031215614c6657600080fd5b83356001600160401b0380821115614c7d57600080fd5b614c8987838801614b2e565b94506020860135915080821115614c9f57600080fd5b50614be586828701614c0d565b634e487b7160e01b600052602160045260246000fd5b60028110612d2e57612d2e614cac565b60208101614cdf83614cc2565b91905290565b60008060408385031215614cf857600080fd5b50508035926020909101359150565b600080600060608486031215614d1c57600080fd5b8335925060208401359150614d3360408501614a97565b90509250925092565b634e487b7160e01b600052604160045260246000fd5b60405161014081016001600160401b0381118282101715614d7557614d75614d3c565b60405290565b604051601f8201601f191681016001600160401b0381118282101715614da357614da3614d3c565b604052919050565b60006001600160401b03821115614dc457614dc4614d3c565b50601f01601f191660200190565b8015158114612d2e57600080fd5b600080600060608486031215614df557600080fd5b614dfe84614a97565b925060208401356001600160401b03811115614e1957600080fd5b8401601f81018613614e2a57600080fd5b8035614e3d614e3882614dab565b614d7b565b818152876020838501011115614e5257600080fd5b816020840160208301376000602083830101528094505050506040840135614e7981614dd2565b809150509250925092565b60005b83811015614e9f578181015183820152602001614e87565b50506000910152565b60008151808452614ec0816020860160208601614e84565b601f01601f19169290920160200192915050565b602081526000610b366020830184614ea8565b600080600060408486031215614efc57600080fd5b8335925060208401356001600160401b03811115614f1957600080fd5b614be586828701614a56565b60048110612d2e57612d2e614cac565b614f3e81614f25565b9052565b6020815281516020820152602082015160408201526040820151606082015260006060830151614f79608084018262ffffff169052565b50608083015162ffffff811660a08401525060a0830151614f9d60c0840182614f35565b5060c0830151614fb060e0840182614f35565b5060e0830151610100614fc581850183614f35565b8401519050610120614fd984820183614f35565b840151610140848101529050611792610160840182614ea8565b60028110612d2e57600080fd5b60006020828403121561501257600080fd5b8135610b3681614ff3565b6020808252600c908201526b125b1b1959d85b0810d85b1b60a21b604082015260600190565b6020808252600c908201526b125b9d985b1a590810d85b1b60a21b604082015260600190565b81835281816020850137506000828201602090810191909152601f909101601f19169091010190565b6060815260006150a6606083018789615069565b82810360208401526150b9818688615069565b91505061ffff831660408301529695505050505050565b634e487b7160e01b600052603260045260246000fd5b60008235609e198336030181126150fc57600080fd5b9190910192915050565b634e487b7160e01b600052601160045260246000fd5b60006001820161512e5761512e615106565b5060010190565b60208082526008908201526714995a9958dd195960c21b604082015260600190565b602080825260119082015270496c6c6567616c20557064617461626c6560781b604082015260600190565b60208082526010908201526f125b1b1959d85b0810dbdb9d1c9858dd60821b604082015260600190565b6020810160148310614cdf57614cdf614cac565b6000602082840312156151d257600080fd5b8151610b3681614dd2565b602080825260169082015275496c6c6567616c205479706520557064617461626c6560501b604082015260600190565b7f524f4c452e4c4956454c595f50524f46494c452e4c4956454c595f4d41535445815266292fa0a226a4a760c91b602082015260270190565b60048110612d2e57600080fd5b60006020828403121561526557600080fd5b8135610b3681615246565b60208101614cdf83614f25565b62ffffff81168114612d2e57600080fd5b6000602082840312156152a057600080fd5b8135610b368161527d565b600181811c908216806152bf57607f821691505b602082108103614b4057634e487b7160e01b600052602260045260246000fd5b8183823760009101908152919050565b8051610e468161527d565b8051610e4681615246565b600082601f83011261531657600080fd5b8151615324614e3882614dab565b81815284602083860101111561533957600080fd5b611792826020830160208701614e84565b60006020828403121561535c57600080fd5b81516001600160401b038082111561537357600080fd5b90830190610140828603121561538857600080fd5b615390614d52565b8251815260208301516020820152604083015160408201526153b4606084016152ef565b60608201526153c5608084016152ef565b60808201526153d660a084016152fa565b60a08201526153e760c084016152fa565b60c08201526153f860e084016152fa565b60e082015261010061540b8185016152fa565b90820152610120838101518381111561542357600080fd5b61542f88828701615305565b918301919091525095945050505050565b60008235603e198336030181126150fc57600080fd5b60006020828403121561546857600080fd5b8151610b3681614ff3565b6000808335601e1984360301811261548a57600080fd5b8301803591506001600160401b038211156154a457600080fd5b60200191503681900382131561483257600080fd5b6000602082840312156154cb57600080fd5b81356001600160401b0381168114610b3657600080fd5b8035600381900b8114610e4657600080fd5b60a08152853560a0820152602086013560c0820152604086013560e082015260006060870135601e1988360301811261552c57600080fd5b87016020810190356001600160401b0381111561554857600080fd5b80360382131561555757600080fd5b60a061010085015261556e61014085018284615069565b91505061557d608089016154e2565b61558d61012085018260030b9052565b5060208301969096525060408101939093526060830191909152608090910152919050565b600080604083850312156155c557600080fd5b505080516020909101519092909150565b6000602082840312156155e857600080fd5b815160148110610b3657600080fd5b60006020828403121561560957600080fd5b815160088110610b3657600080fd5b60006020828403121561562a57600080fd5b5051919050565b86815260c081016006871061564857615648614cac565b602082019690965260408101949094526060840192909252608083015260a090910152919050565b6000808335601e1984360301811261568757600080fd5b8301803591506001600160401b038211156156a157600080fd5b6020019150600581901b360382131561483257600080fd5b62ffffff818116838216019080821115612afe57612afe615106565b60008083546156e3816152ab565b600182811680156156fb57600181146157105761573f565b60ff198416875282151583028701945061573f565b8760005260208060002060005b858110156157365781548a82015290840190820161571d565b50505082870194505b50929695505050505050565b601f82111561579157600081815260208120601f850160051c810160208610156157725750805b601f850160051c820191505b81811015610a3c5782815560010161577e565b505050565b6001600160401b038311156157ad576157ad614d3c565b6157c1836157bb83546152ab565b8361574b565b6000601f8411600181146157f557600085156157dd5750838201355b600019600387901b1c1916600186901b178355612628565b600083815260209020601f19861690835b828110156158265786850135825560209485019460019092019101615806565b50868210156158435760001960f88860031b161c19848701351681555b505060018560011b0183555050505050565b8181038181111561080857610808615106565b634e487b7160e01b600052603160045260246000fd5b600082516150fc818460208701614e84565b808201808211156108085761080861510656fe360894a13ba1a3210667c828492db98dca3e2076cc3735a920a3ca505d382bbca264697066735822122007ed5c6fc3b1fcdf6fbb93032f5640f80148da7366e0c1c68046f9483e79cf4c64736f6c63430008130033",
  "libraries": {
    "LProfileRolePolicy": "0x8932561a695C53836269a551296Dca33Fb1fC41b"
  },
  "devdoc": {
    "author": "Sina Tadayon, https://github.com/SinaTadayon",
    "events": {
      "Initialized(address,address,address,string,string,uint16)": {
        "details": "Triggered when the contract has been initialized or reinitialized."
      },
      "ProxyLocalAdminUpdated(address,address,address)": {
        "details": "Emitted when the admin account has changed."
      }
    },
    "kind": "dev",
    "methods": {
      "proxiableUUID()": {
        "details": "Implementation of the ERC1822 {proxiableUUID} function. This returns the storage slot used by the implementation. It is used to validate that the this implementation remains valid after an upgrade. IMPORTANT: A proxy pointing at a proxiable contract should not be considered proxiable itself, because this risks bricking a proxy that upgrades to it, by delegating to itself until out of gas. Thus it is critical that this function revert if invoked through a proxy. This is guaranteed by the `notDelegated` modifier."
      },
      "supportsInterface(bytes4)": {
        "details": "See {IERC165-supportsInterface}."
      }
    },
    "title": "ACL Role Manager Contract",
    "version": 1
  },
  "userdoc": {
    "kind": "user",
    "methods": {},
    "version": 1
  },
  "storageLayout": {
    "storage": [
      {
        "astId": 82229,
        "contract": "src/contracts/acl/profile/agent/ProfileRoleManager.sol:ProfileRoleManager",
        "label": "_contractName",
        "offset": 0,
        "slot": "0",
        "type": "t_string_storage"
      },
      {
        "astId": 82231,
        "contract": "src/contracts/acl/profile/agent/ProfileRoleManager.sol:ProfileRoleManager",
        "label": "_contractVersion",
        "offset": 0,
        "slot": "1",
        "type": "t_string_storage"
      },
      {
        "astId": 82233,
        "contract": "src/contracts/acl/profile/agent/ProfileRoleManager.sol:ProfileRoleManager",
        "label": "_accessControlManager",
        "offset": 0,
        "slot": "2",
        "type": "t_address"
      },
      {
        "astId": 82236,
        "contract": "src/contracts/acl/profile/agent/ProfileRoleManager.sol:ProfileRoleManager",
        "label": "_sstat",
        "offset": 20,
        "slot": "2",
        "type": "t_enum(ProxySafeModeStatus)82251"
      },
      {
        "astId": 82239,
        "contract": "src/contracts/acl/profile/agent/ProfileRoleManager.sol:ProfileRoleManager",
        "label": "_ustat",
        "offset": 21,
        "slot": "2",
        "type": "t_enum(ProxyUpdatabilityStatus)82254"
      },
      {
        "astId": 82244,
        "contract": "src/contracts/acl/profile/agent/ProfileRoleManager.sol:ProfileRoleManager",
        "label": "__reserved",
        "offset": 0,
        "slot": "3",
        "type": "t_array(t_uint256)64_storage"
      },
      {
        "astId": 10383,
        "contract": "src/contracts/acl/profile/agent/ProfileRoleManager.sol:ProfileRoleManager",
        "label": "_firstInit",
        "offset": 0,
        "slot": "67",
        "type": "t_bool"
      },
      {
        "astId": 10386,
        "contract": "src/contracts/acl/profile/agent/ProfileRoleManager.sol:ProfileRoleManager",
        "label": "_data",
        "offset": 0,
        "slot": "68",
        "type": "t_struct(DataCollection)10239_storage"
      },
      {
        "astId": 82432,
        "contract": "src/contracts/acl/profile/agent/ProfileRoleManager.sol:ProfileRoleManager",
        "label": "_initialized",
        "offset": 0,
        "slot": "78",
        "type": "t_uint16"
      },
      {
        "astId": 82435,
        "contract": "src/contracts/acl/profile/agent/ProfileRoleManager.sol:ProfileRoleManager",
        "label": "_initializing",
        "offset": 2,
        "slot": "78",
        "type": "t_bool"
      }
    ],
    "types": {
      "t_address": {
        "encoding": "inplace",
        "label": "address",
        "numberOfBytes": "20"
      },
      "t_array(t_bytes32)dyn_storage": {
        "base": "t_bytes32",
        "encoding": "dynamic_array",
        "label": "bytes32[]",
        "numberOfBytes": "32"
      },
      "t_array(t_uint256)64_storage": {
        "base": "t_uint256",
        "encoding": "inplace",
        "label": "uint256[64]",
        "numberOfBytes": "2048"
      },
      "t_bool": {
        "encoding": "inplace",
        "label": "bool",
        "numberOfBytes": "1"
      },
      "t_bytes32": {
        "encoding": "inplace",
        "label": "bytes32",
        "numberOfBytes": "32"
      },
      "t_bytes4": {
        "encoding": "inplace",
        "label": "bytes4",
        "numberOfBytes": "4"
      },
      "t_enum(ActivityStatus)11721": {
        "encoding": "inplace",
        "label": "enum IACLCommons.ActivityStatus",
        "numberOfBytes": "1"
      },
      "t_enum(AgentType)11716": {
        "encoding": "inplace",
        "label": "enum IACLCommons.AgentType",
        "numberOfBytes": "1"
      },
      "t_enum(AlterabilityStatus)11726": {
        "encoding": "inplace",
        "label": "enum IACLCommons.AlterabilityStatus",
        "numberOfBytes": "1"
      },
      "t_enum(PolicyType)11744": {
        "encoding": "inplace",
        "label": "enum IACLCommons.PolicyType",
        "numberOfBytes": "1"
      },
      "t_enum(ProxySafeModeStatus)82251": {
        "encoding": "inplace",
        "label": "enum IBaseProxy.ProxySafeModeStatus",
        "numberOfBytes": "1"
      },
      "t_enum(ProxyUpdatabilityStatus)82254": {
        "encoding": "inplace",
        "label": "enum IBaseProxy.ProxyUpdatabilityStatus",
        "numberOfBytes": "1"
      },
      "t_enum(ScopeType)11733": {
        "encoding": "inplace",
        "label": "enum IACLCommons.ScopeType",
        "numberOfBytes": "1"
      },
      "t_mapping(t_address,t_struct(FacetEntity)11945_storage)": {
        "encoding": "mapping",
        "key": "t_address",
        "label": "mapping(address => struct IACLCommons.FacetEntity)",
        "numberOfBytes": "32",
        "value": "t_struct(FacetEntity)11945_storage"
      },
      "t_mapping(t_address,t_struct(ProfileAccount)12018_storage)": {
        "encoding": "mapping",
        "key": "t_address",
        "label": "mapping(address => struct IACLCommons.ProfileAccount)",
        "numberOfBytes": "32",
        "value": "t_struct(ProfileAccount)12018_storage"
      },
      "t_mapping(t_bytes32,t_bytes32)": {
        "encoding": "mapping",
        "key": "t_bytes32",
        "label": "mapping(bytes32 => bytes32)",
        "numberOfBytes": "32",
        "value": "t_bytes32"
      },
      "t_mapping(t_bytes32,t_struct(BaseAgent)11756_storage)": {
        "encoding": "mapping",
        "key": "t_bytes32",
        "label": "mapping(bytes32 => struct IACLCommons.BaseAgent)",
        "numberOfBytes": "32",
        "value": "t_struct(BaseAgent)11756_storage"
      },
      "t_mapping(t_bytes32,t_struct(BaseScope)11770_storage)": {
        "encoding": "mapping",
        "key": "t_bytes32",
        "label": "mapping(bytes32 => struct IACLCommons.BaseScope)",
        "numberOfBytes": "32",
        "value": "t_struct(BaseScope)11770_storage"
      },
      "t_mapping(t_bytes32,t_struct(PolicyEntity)11793_storage)": {
        "encoding": "mapping",
        "key": "t_bytes32",
        "label": "mapping(bytes32 => struct IACLCommons.PolicyEntity)",
        "numberOfBytes": "32",
        "value": "t_struct(PolicyEntity)11793_storage"
      },
      "t_mapping(t_bytes32,t_struct(ProfileEntity)12059_storage)": {
        "encoding": "mapping",
        "key": "t_bytes32",
        "label": "mapping(bytes32 => struct IACLCommons.ProfileEntity)",
        "numberOfBytes": "32",
        "value": "t_struct(ProfileEntity)12059_storage"
      },
      "t_mapping(t_bytes32,t_uint256)": {
        "encoding": "mapping",
        "key": "t_bytes32",
        "label": "mapping(bytes32 => uint256)",
        "numberOfBytes": "32",
        "value": "t_uint256"
      },
      "t_mapping(t_bytes4,t_address)": {
        "encoding": "mapping",
        "key": "t_bytes4",
        "label": "mapping(bytes4 => address)",
        "numberOfBytes": "32",
        "value": "t_address"
      },
      "t_string_storage": {
        "encoding": "bytes",
        "label": "string",
        "numberOfBytes": "32"
      },
      "t_struct(AddressSet)79783_storage": {
        "encoding": "inplace",
        "label": "struct LEnumerableSet.AddressSet",
        "members": [
          {
            "astId": 79782,
            "contract": "src/contracts/acl/profile/agent/ProfileRoleManager.sol:ProfileRoleManager",
            "label": "_inner",
            "offset": 0,
            "slot": "0",
            "type": "t_struct(Set)79482_storage"
          }
        ],
        "numberOfBytes": "64"
      },
      "t_struct(BaseAgent)11756_storage": {
        "encoding": "inplace",
        "label": "struct IACLCommons.BaseAgent",
        "members": [
          {
            "astId": 11746,
            "contract": "src/contracts/acl/profile/agent/ProfileRoleManager.sol:ProfileRoleManager",
            "label": "adminId",
            "offset": 0,
            "slot": "0",
            "type": "t_bytes32"
          },
          {
            "astId": 11749,
            "contract": "src/contracts/acl/profile/agent/ProfileRoleManager.sol:ProfileRoleManager",
            "label": "atype",
            "offset": 0,
            "slot": "1",
            "type": "t_enum(AgentType)11716"
          },
          {
            "astId": 11752,
            "contract": "src/contracts/acl/profile/agent/ProfileRoleManager.sol:ProfileRoleManager",
            "label": "acstat",
            "offset": 1,
            "slot": "1",
            "type": "t_enum(ActivityStatus)11721"
          },
          {
            "astId": 11755,
            "contract": "src/contracts/acl/profile/agent/ProfileRoleManager.sol:ProfileRoleManager",
            "label": "alstat",
            "offset": 2,
            "slot": "1",
            "type": "t_enum(AlterabilityStatus)11726"
          }
        ],
        "numberOfBytes": "64"
      },
      "t_struct(BaseScope)11770_storage": {
        "encoding": "inplace",
        "label": "struct IACLCommons.BaseScope",
        "members": [
          {
            "astId": 11758,
            "contract": "src/contracts/acl/profile/agent/ProfileRoleManager.sol:ProfileRoleManager",
            "label": "adminId",
            "offset": 0,
            "slot": "0",
            "type": "t_bytes32"
          },
          {
            "astId": 11761,
            "contract": "src/contracts/acl/profile/agent/ProfileRoleManager.sol:ProfileRoleManager",
            "label": "stype",
            "offset": 0,
            "slot": "1",
            "type": "t_enum(ScopeType)11733"
          },
          {
            "astId": 11764,
            "contract": "src/contracts/acl/profile/agent/ProfileRoleManager.sol:ProfileRoleManager",
            "label": "acstat",
            "offset": 1,
            "slot": "1",
            "type": "t_enum(ActivityStatus)11721"
          },
          {
            "astId": 11767,
            "contract": "src/contracts/acl/profile/agent/ProfileRoleManager.sol:ProfileRoleManager",
            "label": "alstat",
            "offset": 2,
            "slot": "1",
            "type": "t_enum(AlterabilityStatus)11726"
          },
          {
            "astId": 11769,
            "contract": "src/contracts/acl/profile/agent/ProfileRoleManager.sol:ProfileRoleManager",
            "label": "referredByAgent",
            "offset": 3,
            "slot": "1",
            "type": "t_uint32"
          }
        ],
        "numberOfBytes": "64"
      },
      "t_struct(Bytes32Set)79676_storage": {
        "encoding": "inplace",
        "label": "struct LEnumerableSet.Bytes32Set",
        "members": [
          {
            "astId": 79675,
            "contract": "src/contracts/acl/profile/agent/ProfileRoleManager.sol:ProfileRoleManager",
            "label": "_inner",
            "offset": 0,
            "slot": "0",
            "type": "t_struct(Set)79482_storage"
          }
        ],
        "numberOfBytes": "64"
      },
      "t_struct(DataCollection)10239_storage": {
        "encoding": "inplace",
        "label": "struct ACLStorage.DataCollection",
        "members": [
          {
            "astId": 10202,
            "contract": "src/contracts/acl/profile/agent/ProfileRoleManager.sol:ProfileRoleManager",
            "label": "agents",
            "offset": 0,
            "slot": "0",
            "type": "t_mapping(t_bytes32,t_struct(BaseAgent)11756_storage)"
          },
          {
            "astId": 10207,
            "contract": "src/contracts/acl/profile/agent/ProfileRoleManager.sol:ProfileRoleManager",
            "label": "scopes",
            "offset": 0,
            "slot": "1",
            "type": "t_mapping(t_bytes32,t_struct(BaseScope)11770_storage)"
          },
          {
            "astId": 10212,
            "contract": "src/contracts/acl/profile/agent/ProfileRoleManager.sol:ProfileRoleManager",
            "label": "policies",
            "offset": 0,
            "slot": "2",
            "type": "t_mapping(t_bytes32,t_struct(PolicyEntity)11793_storage)"
          },
          {
            "astId": 10216,
            "contract": "src/contracts/acl/profile/agent/ProfileRoleManager.sol:ProfileRoleManager",
            "label": "rolePolicyMap",
            "offset": 0,
            "slot": "3",
            "type": "t_mapping(t_bytes32,t_bytes32)"
          },
          {
            "astId": 10221,
            "contract": "src/contracts/acl/profile/agent/ProfileRoleManager.sol:ProfileRoleManager",
            "label": "profiles",
            "offset": 0,
            "slot": "4",
            "type": "t_mapping(t_bytes32,t_struct(ProfileEntity)12059_storage)"
          },
          {
            "astId": 10226,
            "contract": "src/contracts/acl/profile/agent/ProfileRoleManager.sol:ProfileRoleManager",
            "label": "profileAccounts",
            "offset": 0,
            "slot": "5",
            "type": "t_mapping(t_address,t_struct(ProfileAccount)12018_storage)"
          },
          {
            "astId": 10230,
            "contract": "src/contracts/acl/profile/agent/ProfileRoleManager.sol:ProfileRoleManager",
            "label": "selectors",
            "offset": 0,
            "slot": "6",
            "type": "t_mapping(t_bytes4,t_address)"
          },
          {
            "astId": 10235,
            "contract": "src/contracts/acl/profile/agent/ProfileRoleManager.sol:ProfileRoleManager",
            "label": "facets",
            "offset": 0,
            "slot": "7",
            "type": "t_mapping(t_address,t_struct(FacetEntity)11945_storage)"
          },
          {
            "astId": 10238,
            "contract": "src/contracts/acl/profile/agent/ProfileRoleManager.sol:ProfileRoleManager",
            "label": "facetSet",
            "offset": 0,
            "slot": "8",
            "type": "t_struct(AddressSet)79783_storage"
          }
        ],
        "numberOfBytes": "320"
      },
      "t_struct(FacetEntity)11945_storage": {
        "encoding": "inplace",
        "label": "struct IACLCommons.FacetEntity",
        "members": [
          {
            "astId": 11944,
            "contract": "src/contracts/acl/profile/agent/ProfileRoleManager.sol:ProfileRoleManager",
            "label": "subjectId",
            "offset": 0,
            "slot": "0",
            "type": "t_address"
          }
        ],
        "numberOfBytes": "32"
      },
      "t_struct(PolicyEntity)11793_storage": {
        "encoding": "inplace",
        "label": "struct IACLCommons.PolicyEntity",
        "members": [
          {
            "astId": 11772,
            "contract": "src/contracts/acl/profile/agent/ProfileRoleManager.sol:ProfileRoleManager",
            "label": "adminId",
            "offset": 0,
            "slot": "0",
            "type": "t_bytes32"
          },
          {
            "astId": 11774,
            "contract": "src/contracts/acl/profile/agent/ProfileRoleManager.sol:ProfileRoleManager",
            "label": "scopeId",
            "offset": 0,
            "slot": "1",
            "type": "t_bytes32"
          },
          {
            "astId": 11776,
            "contract": "src/contracts/acl/profile/agent/ProfileRoleManager.sol:ProfileRoleManager",
            "label": "name",
            "offset": 0,
            "slot": "2",
            "type": "t_string_storage"
          },
          {
            "astId": 11778,
            "contract": "src/contracts/acl/profile/agent/ProfileRoleManager.sol:ProfileRoleManager",
            "label": "roleLimit",
            "offset": 0,
            "slot": "3",
            "type": "t_uint16"
          },
          {
            "astId": 11780,
            "contract": "src/contracts/acl/profile/agent/ProfileRoleManager.sol:ProfileRoleManager",
            "label": "policyCode",
            "offset": 2,
            "slot": "3",
            "type": "t_uint8"
          },
          {
            "astId": 11783,
            "contract": "src/contracts/acl/profile/agent/ProfileRoleManager.sol:ProfileRoleManager",
            "label": "ptype",
            "offset": 3,
            "slot": "3",
            "type": "t_enum(PolicyType)11744"
          },
          {
            "astId": 11786,
            "contract": "src/contracts/acl/profile/agent/ProfileRoleManager.sol:ProfileRoleManager",
            "label": "acstat",
            "offset": 4,
            "slot": "3",
            "type": "t_enum(ActivityStatus)11721"
          },
          {
            "astId": 11789,
            "contract": "src/contracts/acl/profile/agent/ProfileRoleManager.sol:ProfileRoleManager",
            "label": "alstat",
            "offset": 5,
            "slot": "3",
            "type": "t_enum(AlterabilityStatus)11726"
          },
          {
            "astId": 11792,
            "contract": "src/contracts/acl/profile/agent/ProfileRoleManager.sol:ProfileRoleManager",
            "label": "roles",
            "offset": 0,
            "slot": "4",
            "type": "t_struct(Bytes32Set)79676_storage"
          }
        ],
        "numberOfBytes": "192"
      },
      "t_struct(ProfileAccount)12018_storage": {
        "encoding": "inplace",
        "label": "struct IACLCommons.ProfileAccount",
        "members": [
          {
            "astId": 12017,
            "contract": "src/contracts/acl/profile/agent/ProfileRoleManager.sol:ProfileRoleManager",
            "label": "profiles",
            "offset": 0,
            "slot": "0",
            "type": "t_array(t_bytes32)dyn_storage"
          }
        ],
        "numberOfBytes": "32"
      },
      "t_struct(ProfileEntity)12059_storage": {
        "encoding": "inplace",
        "label": "struct IACLCommons.ProfileEntity",
        "members": [
          {
            "astId": 12023,
            "contract": "src/contracts/acl/profile/agent/ProfileRoleManager.sol:ProfileRoleManager",
            "label": "agents",
            "offset": 0,
            "slot": "0",
            "type": "t_mapping(t_bytes32,t_struct(BaseAgent)11756_storage)"
          },
          {
            "astId": 12028,
            "contract": "src/contracts/acl/profile/agent/ProfileRoleManager.sol:ProfileRoleManager",
            "label": "scopes",
            "offset": 0,
            "slot": "1",
            "type": "t_mapping(t_bytes32,t_struct(BaseScope)11770_storage)"
          },
          {
            "astId": 12033,
            "contract": "src/contracts/acl/profile/agent/ProfileRoleManager.sol:ProfileRoleManager",
            "label": "policies",
            "offset": 0,
            "slot": "2",
            "type": "t_mapping(t_bytes32,t_struct(PolicyEntity)11793_storage)"
          },
          {
            "astId": 12037,
            "contract": "src/contracts/acl/profile/agent/ProfileRoleManager.sol:ProfileRoleManager",
            "label": "rolePolicyMap",
            "offset": 0,
            "slot": "3",
            "type": "t_mapping(t_bytes32,t_bytes32)"
          },
          {
            "astId": 12040,
            "contract": "src/contracts/acl/profile/agent/ProfileRoleManager.sol:ProfileRoleManager",
            "label": "admins",
            "offset": 0,
            "slot": "4",
            "type": "t_struct(Bytes32Set)79676_storage"
          },
          {
            "astId": 12042,
            "contract": "src/contracts/acl/profile/agent/ProfileRoleManager.sol:ProfileRoleManager",
            "label": "adminId",
            "offset": 0,
            "slot": "6",
            "type": "t_bytes32"
          },
          {
            "astId": 12044,
            "contract": "src/contracts/acl/profile/agent/ProfileRoleManager.sol:ProfileRoleManager",
            "label": "name",
            "offset": 0,
            "slot": "7",
            "type": "t_string_storage"
          },
          {
            "astId": 12046,
            "contract": "src/contracts/acl/profile/agent/ProfileRoleManager.sol:ProfileRoleManager",
            "label": "owner",
            "offset": 0,
            "slot": "8",
            "type": "t_address"
          },
          {
            "astId": 12049,
            "contract": "src/contracts/acl/profile/agent/ProfileRoleManager.sol:ProfileRoleManager",
            "label": "acstat",
            "offset": 20,
            "slot": "8",
            "type": "t_enum(ActivityStatus)11721"
          },
          {
            "astId": 12052,
            "contract": "src/contracts/acl/profile/agent/ProfileRoleManager.sol:ProfileRoleManager",
            "label": "alstat",
            "offset": 21,
            "slot": "8",
            "type": "t_enum(AlterabilityStatus)11726"
          },
          {
            "astId": 12055,
            "contract": "src/contracts/acl/profile/agent/ProfileRoleManager.sol:ProfileRoleManager",
            "label": "registerLimits",
            "offset": 0,
            "slot": "9",
            "type": "t_struct(ProfileRegisterLimit)11993_storage"
          },
          {
            "astId": 12058,
            "contract": "src/contracts/acl/profile/agent/ProfileRoleManager.sol:ProfileRoleManager",
            "label": "limits",
            "offset": 0,
            "slot": "10",
            "type": "t_struct(ProfileLimit)12014_storage"
          }
        ],
        "numberOfBytes": "352"
      },
      "t_struct(ProfileLimit)12014_storage": {
        "encoding": "inplace",
        "label": "struct IACLCommons.ProfileLimit",
        "members": [
          {
            "astId": 11995,
            "contract": "src/contracts/acl/profile/agent/ProfileRoleManager.sol:ProfileRoleManager",
            "label": "profileCallLimit",
            "offset": 0,
            "slot": "0",
            "type": "t_uint32"
          },
          {
            "astId": 11997,
            "contract": "src/contracts/acl/profile/agent/ProfileRoleManager.sol:ProfileRoleManager",
            "label": "contextLimit",
            "offset": 4,
            "slot": "0",
            "type": "t_uint32"
          },
          {
            "astId": 11999,
            "contract": "src/contracts/acl/profile/agent/ProfileRoleManager.sol:ProfileRoleManager",
            "label": "memberLimit",
            "offset": 8,
            "slot": "0",
            "type": "t_uint24"
          },
          {
            "astId": 12001,
            "contract": "src/contracts/acl/profile/agent/ProfileRoleManager.sol:ProfileRoleManager",
            "label": "realmLimit",
            "offset": 11,
            "slot": "0",
            "type": "t_uint16"
          },
          {
            "astId": 12003,
            "contract": "src/contracts/acl/profile/agent/ProfileRoleManager.sol:ProfileRoleManager",
            "label": "domainLimit",
            "offset": 13,
            "slot": "0",
            "type": "t_uint16"
          },
          {
            "astId": 12005,
            "contract": "src/contracts/acl/profile/agent/ProfileRoleManager.sol:ProfileRoleManager",
            "label": "memberCallLimit",
            "offset": 15,
            "slot": "0",
            "type": "t_uint16"
          },
          {
            "astId": 12007,
            "contract": "src/contracts/acl/profile/agent/ProfileRoleManager.sol:ProfileRoleManager",
            "label": "typeRoleLimit",
            "offset": 17,
            "slot": "0",
            "type": "t_uint16"
          },
          {
            "astId": 12009,
            "contract": "src/contracts/acl/profile/agent/ProfileRoleManager.sol:ProfileRoleManager",
            "label": "typeLimit",
            "offset": 19,
            "slot": "0",
            "type": "t_uint16"
          },
          {
            "astId": 12011,
            "contract": "src/contracts/acl/profile/agent/ProfileRoleManager.sol:ProfileRoleManager",
            "label": "policyRoleLimit",
            "offset": 21,
            "slot": "0",
            "type": "t_uint16"
          },
          {
            "astId": 12013,
            "contract": "src/contracts/acl/profile/agent/ProfileRoleManager.sol:ProfileRoleManager",
            "label": "functionLimit",
            "offset": 23,
            "slot": "0",
            "type": "t_uint8"
          }
        ],
        "numberOfBytes": "32"
      },
      "t_struct(ProfileRegisterLimit)11993_storage": {
        "encoding": "inplace",
        "label": "struct IACLCommons.ProfileRegisterLimit",
        "members": [
          {
            "astId": 11978,
            "contract": "src/contracts/acl/profile/agent/ProfileRoleManager.sol:ProfileRoleManager",
            "label": "memberRegisterLimit",
            "offset": 0,
            "slot": "0",
            "type": "t_uint32"
          },
          {
            "astId": 11980,
            "contract": "src/contracts/acl/profile/agent/ProfileRoleManager.sol:ProfileRoleManager",
            "label": "roleRegisterLimit",
            "offset": 4,
            "slot": "0",
            "type": "t_uint32"
          },
          {
            "astId": 11982,
            "contract": "src/contracts/acl/profile/agent/ProfileRoleManager.sol:ProfileRoleManager",
            "label": "typeRegisterLimit",
            "offset": 8,
            "slot": "0",
            "type": "t_uint32"
          },
          {
            "astId": 11984,
            "contract": "src/contracts/acl/profile/agent/ProfileRoleManager.sol:ProfileRoleManager",
            "label": "functionRegisterLimit",
            "offset": 12,
            "slot": "0",
            "type": "t_uint32"
          },
          {
            "astId": 11986,
            "contract": "src/contracts/acl/profile/agent/ProfileRoleManager.sol:ProfileRoleManager",
            "label": "contextRegisterLimit",
            "offset": 16,
            "slot": "0",
            "type": "t_uint32"
          },
          {
            "astId": 11988,
            "contract": "src/contracts/acl/profile/agent/ProfileRoleManager.sol:ProfileRoleManager",
            "label": "realmRegisterLimit",
            "offset": 20,
            "slot": "0",
            "type": "t_uint16"
          },
          {
            "astId": 11990,
            "contract": "src/contracts/acl/profile/agent/ProfileRoleManager.sol:ProfileRoleManager",
            "label": "domainRegisterLimit",
            "offset": 22,
            "slot": "0",
            "type": "t_uint16"
          },
          {
            "astId": 11992,
            "contract": "src/contracts/acl/profile/agent/ProfileRoleManager.sol:ProfileRoleManager",
            "label": "policyRegisterLimit",
            "offset": 24,
            "slot": "0",
            "type": "t_uint16"
          }
        ],
        "numberOfBytes": "32"
      },
      "t_struct(Set)79482_storage": {
        "encoding": "inplace",
        "label": "struct LEnumerableSet.Set",
        "members": [
          {
            "astId": 79477,
            "contract": "src/contracts/acl/profile/agent/ProfileRoleManager.sol:ProfileRoleManager",
            "label": "_values",
            "offset": 0,
            "slot": "0",
            "type": "t_array(t_bytes32)dyn_storage"
          },
          {
            "astId": 79481,
            "contract": "src/contracts/acl/profile/agent/ProfileRoleManager.sol:ProfileRoleManager",
            "label": "_indexes",
            "offset": 0,
            "slot": "1",
            "type": "t_mapping(t_bytes32,t_uint256)"
          }
        ],
        "numberOfBytes": "64"
      },
      "t_uint16": {
        "encoding": "inplace",
        "label": "uint16",
        "numberOfBytes": "2"
      },
      "t_uint24": {
        "encoding": "inplace",
        "label": "uint24",
        "numberOfBytes": "3"
      },
      "t_uint256": {
        "encoding": "inplace",
        "label": "uint256",
        "numberOfBytes": "32"
      },
      "t_uint32": {
        "encoding": "inplace",
        "label": "uint32",
        "numberOfBytes": "4"
      },
      "t_uint8": {
        "encoding": "inplace",
        "label": "uint8",
        "numberOfBytes": "1"
      }
    }
  }
}