{
  "address": "0xC69cA7827AAe7c9F2B4c346a22b9CFe19dc3a89d",
  "abi": [
    {
      "inputs": [],
      "stateMutability": "nonpayable",
      "type": "constructor"
    },
    {
      "inputs": [
        {
          "internalType": "enum IACL.AuthorizationStatus",
          "name": "",
          "type": "uint8"
        }
      ],
      "name": "ACLActionForbidden",
      "type": "error"
    },
    {
      "inputs": [],
      "name": "ProfileAdminAccessFunctionNotFound",
      "type": "error"
    },
    {
      "inputs": [],
      "name": "ProfileAdminAccessNotPermitted",
      "type": "error"
    },
    {
      "inputs": [],
      "name": "ProfileAdminAccessPolicyForbidden",
      "type": "error"
    },
    {
      "inputs": [],
      "name": "ProfileAdminAccessRoleActivityForbidden",
      "type": "error"
    },
    {
      "inputs": [],
      "name": "ProfileAdminAccessRoleNotFound",
      "type": "error"
    },
    {
      "inputs": [],
      "name": "ProfileAdminAccessTypeActivityForbidden",
      "type": "error"
    },
    {
      "inputs": [],
      "name": "ProfileAdminAccessTypeNotFound",
      "type": "error"
    },
    {
      "anonymous": false,
      "inputs": [
        {
          "indexed": true,
          "internalType": "address",
          "name": "sender",
          "type": "address"
        },
        {
          "indexed": true,
          "internalType": "address",
          "name": "proxy",
          "type": "address"
        },
        {
          "indexed": true,
          "internalType": "address",
          "name": "subject",
          "type": "address"
        },
        {
          "indexed": false,
          "internalType": "string",
          "name": "name",
          "type": "string"
        },
        {
          "indexed": false,
          "internalType": "string",
          "name": "version",
          "type": "string"
        },
        {
          "indexed": false,
          "internalType": "uint16",
          "name": "initCount",
          "type": "uint16"
        }
      ],
      "name": "Initialized",
      "type": "event"
    },
    {
      "anonymous": false,
      "inputs": [
        {
          "indexed": true,
          "internalType": "address",
          "name": "sender",
          "type": "address"
        },
        {
          "indexed": true,
          "internalType": "bytes32",
          "name": "profileId",
          "type": "bytes32"
        },
        {
          "indexed": true,
          "internalType": "bytes32",
          "name": "functionId",
          "type": "bytes32"
        },
        {
          "indexed": false,
          "internalType": "enum IACLCommons.ActivityStatus",
          "name": "acstat",
          "type": "uint8"
        }
      ],
      "name": "ProfileFunctionActivityUpdated",
      "type": "event"
    },
    {
      "anonymous": false,
      "inputs": [
        {
          "indexed": true,
          "internalType": "address",
          "name": "sender",
          "type": "address"
        },
        {
          "indexed": true,
          "internalType": "bytes32",
          "name": "profileId",
          "type": "bytes32"
        },
        {
          "indexed": true,
          "internalType": "bytes32",
          "name": "functionId",
          "type": "bytes32"
        },
        {
          "indexed": false,
          "internalType": "bytes32",
          "name": "adminId",
          "type": "bytes32"
        }
      ],
      "name": "ProfileFunctionAdminUpdated",
      "type": "event"
    },
    {
      "anonymous": false,
      "inputs": [
        {
          "indexed": true,
          "internalType": "address",
          "name": "sender",
          "type": "address"
        },
        {
          "indexed": true,
          "internalType": "bytes32",
          "name": "profileId",
          "type": "bytes32"
        },
        {
          "indexed": true,
          "internalType": "bytes32",
          "name": "functionId",
          "type": "bytes32"
        },
        {
          "indexed": false,
          "internalType": "bytes32",
          "name": "agentId",
          "type": "bytes32"
        }
      ],
      "name": "ProfileFunctionAgentUpdated",
      "type": "event"
    },
    {
      "anonymous": false,
      "inputs": [
        {
          "indexed": true,
          "internalType": "address",
          "name": "sender",
          "type": "address"
        },
        {
          "indexed": true,
          "internalType": "bytes32",
          "name": "profileId",
          "type": "bytes32"
        },
        {
          "indexed": true,
          "internalType": "bytes32",
          "name": "functionId",
          "type": "bytes32"
        },
        {
          "indexed": false,
          "internalType": "enum IACLCommons.AlterabilityStatus",
          "name": "alstat",
          "type": "uint8"
        }
      ],
      "name": "ProfileFunctionAlterabilityUpdated",
      "type": "event"
    },
    {
      "anonymous": false,
      "inputs": [
        {
          "indexed": true,
          "internalType": "address",
          "name": "sender",
          "type": "address"
        },
        {
          "indexed": true,
          "internalType": "bytes32",
          "name": "profileId",
          "type": "bytes32"
        },
        {
          "indexed": true,
          "internalType": "bytes32",
          "name": "functionId",
          "type": "bytes32"
        },
        {
          "indexed": false,
          "internalType": "uint8",
          "name": "policyCode",
          "type": "uint8"
        }
      ],
      "name": "ProfileFunctionPolicyUpdated",
      "type": "event"
    },
    {
      "anonymous": false,
      "inputs": [
        {
          "indexed": true,
          "internalType": "address",
          "name": "sender",
          "type": "address"
        },
        {
          "indexed": true,
          "internalType": "bytes32",
          "name": "profileId",
          "type": "bytes32"
        },
        {
          "indexed": true,
          "internalType": "bytes32",
          "name": "functionId",
          "type": "bytes32"
        },
        {
          "indexed": false,
          "internalType": "bytes32",
          "name": "contextId",
          "type": "bytes32"
        },
        {
          "indexed": false,
          "internalType": "bytes32",
          "name": "adminId",
          "type": "bytes32"
        },
        {
          "indexed": false,
          "internalType": "bytes32",
          "name": "agentId",
          "type": "bytes32"
        }
      ],
      "name": "ProfileFunctionRegistered",
      "type": "event"
    },
    {
      "anonymous": false,
      "inputs": [
        {
          "indexed": true,
          "internalType": "address",
          "name": "sender",
          "type": "address"
        },
        {
          "indexed": true,
          "internalType": "bytes32",
          "name": "profileId",
          "type": "bytes32"
        },
        {
          "indexed": true,
          "internalType": "bytes32",
          "name": "functionId",
          "type": "bytes32"
        },
        {
          "indexed": false,
          "internalType": "bool",
          "name": "isSoftDeleted",
          "type": "bool"
        }
      ],
      "name": "ProfileFunctionRemoved",
      "type": "event"
    },
    {
      "anonymous": false,
      "inputs": [
        {
          "indexed": true,
          "internalType": "address",
          "name": "sender",
          "type": "address"
        },
        {
          "indexed": true,
          "internalType": "address",
          "name": "proxy",
          "type": "address"
        },
        {
          "indexed": false,
          "internalType": "address",
          "name": "acl",
          "type": "address"
        }
      ],
      "name": "ProxyAccessControlUpdated",
      "type": "event"
    },
    {
      "anonymous": false,
      "inputs": [
        {
          "indexed": true,
          "internalType": "address",
          "name": "sender",
          "type": "address"
        },
        {
          "indexed": true,
          "internalType": "address",
          "name": "proxy",
          "type": "address"
        },
        {
          "indexed": false,
          "internalType": "address",
          "name": "newAdmin",
          "type": "address"
        }
      ],
      "name": "ProxyLocalAdminUpdated",
      "type": "event"
    },
    {
      "anonymous": false,
      "inputs": [
        {
          "indexed": true,
          "internalType": "address",
          "name": "sender",
          "type": "address"
        },
        {
          "indexed": true,
          "internalType": "address",
          "name": "proxy",
          "type": "address"
        },
        {
          "indexed": false,
          "internalType": "enum IBaseProxy.ProxySafeModeStatus",
          "name": "sstat",
          "type": "uint8"
        }
      ],
      "name": "ProxySafeModeUpdated",
      "type": "event"
    },
    {
      "anonymous": false,
      "inputs": [
        {
          "indexed": true,
          "internalType": "address",
          "name": "sender",
          "type": "address"
        },
        {
          "indexed": true,
          "internalType": "address",
          "name": "proxy",
          "type": "address"
        },
        {
          "indexed": false,
          "internalType": "enum IBaseProxy.ProxyUpdatabilityStatus",
          "name": "ustat",
          "type": "uint8"
        }
      ],
      "name": "ProxyUpdatabilityUpdated",
      "type": "event"
    },
    {
      "anonymous": false,
      "inputs": [
        {
          "indexed": true,
          "internalType": "address",
          "name": "sender",
          "type": "address"
        },
        {
          "indexed": true,
          "internalType": "address",
          "name": "proxy",
          "type": "address"
        },
        {
          "indexed": true,
          "internalType": "address",
          "name": "newImplementation",
          "type": "address"
        }
      ],
      "name": "ProxyUpgraded",
      "type": "event"
    },
    {
      "stateMutability": "payable",
      "type": "fallback"
    },
    {
      "inputs": [],
      "name": "CTX_MESSAGE_TYPEHASH",
      "outputs": [
        {
          "internalType": "bytes32",
          "name": "",
          "type": "bytes32"
        }
      ],
      "stateMutability": "view",
      "type": "function"
    },
    {
      "inputs": [],
      "name": "MEMBER_SIGNATURE_MESSAGE_TYPEHASH",
      "outputs": [
        {
          "internalType": "bytes32",
          "name": "",
          "type": "bytes32"
        }
      ],
      "stateMutability": "view",
      "type": "function"
    },
    {
      "inputs": [],
      "name": "PREDICT_CTX_MESSAGE_TYPEHASH",
      "outputs": [
        {
          "internalType": "bytes32",
          "name": "",
          "type": "bytes32"
        }
      ],
      "stateMutability": "view",
      "type": "function"
    },
    {
      "inputs": [],
      "name": "PROFILE_CTX_MESSAGE_TYPEHASH",
      "outputs": [
        {
          "internalType": "bytes32",
          "name": "",
          "type": "bytes32"
        }
      ],
      "stateMutability": "view",
      "type": "function"
    },
    {
      "inputs": [],
      "name": "PROFILE_MEMBER_SIGNATURE_MESSAGE_TYPEHASH",
      "outputs": [
        {
          "internalType": "bytes32",
          "name": "",
          "type": "bytes32"
        }
      ],
      "stateMutability": "view",
      "type": "function"
    },
    {
      "inputs": [],
      "name": "PROFILE_PREDICT_CTX_MESSAGE_TYPEHASH",
      "outputs": [
        {
          "internalType": "bytes32",
          "name": "",
          "type": "bytes32"
        }
      ],
      "stateMutability": "view",
      "type": "function"
    },
    {
      "inputs": [],
      "name": "TYPE_HASH",
      "outputs": [
        {
          "internalType": "bytes32",
          "name": "",
          "type": "bytes32"
        }
      ],
      "stateMutability": "view",
      "type": "function"
    },
    {
      "inputs": [],
      "name": "accessControlManager",
      "outputs": [
        {
          "internalType": "address",
          "name": "",
          "type": "address"
        }
      ],
      "stateMutability": "view",
      "type": "function"
    },
    {
      "inputs": [],
      "name": "contractName",
      "outputs": [
        {
          "internalType": "string",
          "name": "",
          "type": "string"
        }
      ],
      "stateMutability": "view",
      "type": "function"
    },
    {
      "inputs": [],
      "name": "contractVersion",
      "outputs": [
        {
          "internalType": "string",
          "name": "",
          "type": "string"
        }
      ],
      "stateMutability": "view",
      "type": "function"
    },
    {
      "inputs": [],
      "name": "domainSeparator",
      "outputs": [
        {
          "internalType": "bytes32",
          "name": "",
          "type": "bytes32"
        }
      ],
      "stateMutability": "view",
      "type": "function"
    },
    {
      "inputs": [],
      "name": "getLibrary",
      "outputs": [
        {
          "internalType": "address",
          "name": "",
          "type": "address"
        }
      ],
      "stateMutability": "pure",
      "type": "function"
    },
    {
      "inputs": [],
      "name": "initVersion",
      "outputs": [
        {
          "internalType": "uint16",
          "name": "",
          "type": "uint16"
        }
      ],
      "stateMutability": "view",
      "type": "function"
    },
    {
      "inputs": [
        {
          "internalType": "string",
          "name": "contractName",
          "type": "string"
        },
        {
          "internalType": "string",
          "name": "contractVersion",
          "type": "string"
        },
        {
          "internalType": "address",
          "name": "accessControlManager",
          "type": "address"
        }
      ],
      "name": "initialize",
      "outputs": [],
      "stateMutability": "nonpayable",
      "type": "function"
    },
    {
      "inputs": [],
      "name": "localAdmin",
      "outputs": [
        {
          "internalType": "address",
          "name": "",
          "type": "address"
        }
      ],
      "stateMutability": "view",
      "type": "function"
    },
    {
      "inputs": [
        {
          "internalType": "bytes32",
          "name": "profileId",
          "type": "bytes32"
        },
        {
          "internalType": "bytes32",
          "name": "functionId",
          "type": "bytes32"
        },
        {
          "internalType": "address",
          "name": "account",
          "type": "address"
        }
      ],
      "name": "profileFunctionCheckAdmin",
      "outputs": [
        {
          "internalType": "bool",
          "name": "",
          "type": "bool"
        }
      ],
      "stateMutability": "view",
      "type": "function"
    },
    {
      "inputs": [
        {
          "internalType": "bytes32",
          "name": "profileId",
          "type": "bytes32"
        },
        {
          "internalType": "bytes32",
          "name": "functionId",
          "type": "bytes32"
        },
        {
          "internalType": "address",
          "name": "account",
          "type": "address"
        }
      ],
      "name": "profileFunctionCheckAgent",
      "outputs": [
        {
          "internalType": "bool",
          "name": "",
          "type": "bool"
        }
      ],
      "stateMutability": "view",
      "type": "function"
    },
    {
      "inputs": [
        {
          "internalType": "bytes32",
          "name": "profileId",
          "type": "bytes32"
        },
        {
          "internalType": "bytes32",
          "name": "functionId",
          "type": "bytes32"
        }
      ],
      "name": "profileFunctionCheckId",
      "outputs": [
        {
          "internalType": "bool",
          "name": "",
          "type": "bool"
        }
      ],
      "stateMutability": "view",
      "type": "function"
    },
    {
      "inputs": [
        {
          "internalType": "bytes32",
          "name": "profileId",
          "type": "bytes32"
        },
        {
          "internalType": "address",
          "name": "contractId",
          "type": "address"
        },
        {
          "internalType": "bytes4",
          "name": "selector",
          "type": "bytes4"
        }
      ],
      "name": "profileFunctionCheckSelector",
      "outputs": [
        {
          "internalType": "bool",
          "name": "",
          "type": "bool"
        }
      ],
      "stateMutability": "view",
      "type": "function"
    },
    {
      "inputs": [
        {
          "internalType": "bytes32",
          "name": "profileId",
          "type": "bytes32"
        },
        {
          "internalType": "bytes32",
          "name": "functionId",
          "type": "bytes32"
        }
      ],
      "name": "profileFunctionGetInfo",
      "outputs": [
        {
          "components": [
            {
              "internalType": "bytes32",
              "name": "adminId",
              "type": "bytes32"
            },
            {
              "internalType": "bytes32",
              "name": "agentId",
              "type": "bytes32"
            },
            {
              "internalType": "bytes32",
              "name": "contextId",
              "type": "bytes32"
            },
            {
              "internalType": "bytes4",
              "name": "selector",
              "type": "bytes4"
            },
            {
              "internalType": "uint32",
              "name": "referredByAgent",
              "type": "uint32"
            },
            {
              "internalType": "enum IACLCommons.ScopeType",
              "name": "stype",
              "type": "uint8"
            },
            {
              "internalType": "enum IACLCommons.ActivityStatus",
              "name": "acstat",
              "type": "uint8"
            },
            {
              "internalType": "enum IACLCommons.AlterabilityStatus",
              "name": "alstat",
              "type": "uint8"
            },
            {
              "internalType": "enum IACLCommons.AgentType",
              "name": "adminType",
              "type": "uint8"
            },
            {
              "internalType": "enum IACLCommons.AgentType",
              "name": "agentType",
              "type": "uint8"
            },
            {
              "internalType": "uint8",
              "name": "policyCode",
              "type": "uint8"
            }
          ],
          "internalType": "struct IProfileFunctionManagement.ProfileFunctionInfo",
          "name": "",
          "type": "tuple"
        }
      ],
      "stateMutability": "view",
      "type": "function"
    },
    {
      "inputs": [
        {
          "components": [
            {
              "internalType": "string",
              "name": "profileName",
              "type": "string"
            },
            {
              "internalType": "address",
              "name": "account",
              "type": "address"
            },
            {
              "internalType": "uint64",
              "name": "expiredAt",
              "type": "uint64"
            },
            {
              "internalType": "bytes",
              "name": "signature",
              "type": "bytes"
            }
          ],
          "internalType": "struct IACLCommons.ProfileMemberSignature",
          "name": "memberSign",
          "type": "tuple"
        },
        {
          "components": [
            {
              "internalType": "bytes",
              "name": "signature",
              "type": "bytes"
            },
            {
              "internalType": "bytes32",
              "name": "realmId",
              "type": "bytes32"
            },
            {
              "internalType": "bytes32",
              "name": "salt",
              "type": "bytes32"
            },
            {
              "internalType": "string",
              "name": "name",
              "type": "string"
            },
            {
              "internalType": "string",
              "name": "version",
              "type": "string"
            },
            {
              "internalType": "address",
              "name": "subject",
              "type": "address"
            },
            {
              "internalType": "address",
              "name": "deployer",
              "type": "address"
            },
            {
              "internalType": "address",
              "name": "contractId",
              "type": "address"
            },
            {
              "components": [
                {
                  "internalType": "bytes32",
                  "name": "adminId",
                  "type": "bytes32"
                },
                {
                  "internalType": "bytes32",
                  "name": "agentId",
                  "type": "bytes32"
                },
                {
                  "internalType": "bytes4",
                  "name": "selector",
                  "type": "bytes4"
                },
                {
                  "internalType": "uint8",
                  "name": "policyCode",
                  "type": "uint8"
                }
              ],
              "internalType": "struct IProfileFunctionManagement.ProfileFunctionRequest[]",
              "name": "functions",
              "type": "tuple[]"
            }
          ],
          "internalType": "struct IProfileFunctionManagement.ProfileFunctionRegisterRequest[]",
          "name": "requests",
          "type": "tuple[]"
        }
      ],
      "name": "profileFunctionRegister",
      "outputs": [
        {
          "internalType": "bool",
          "name": "",
          "type": "bool"
        }
      ],
      "stateMutability": "nonpayable",
      "type": "function"
    },
    {
      "inputs": [
        {
          "components": [
            {
              "internalType": "string",
              "name": "profileName",
              "type": "string"
            },
            {
              "internalType": "address",
              "name": "account",
              "type": "address"
            },
            {
              "internalType": "uint64",
              "name": "expiredAt",
              "type": "uint64"
            },
            {
              "internalType": "bytes",
              "name": "signature",
              "type": "bytes"
            }
          ],
          "internalType": "struct IACLCommons.ProfileMemberSignature",
          "name": "memberSign",
          "type": "tuple"
        },
        {
          "internalType": "bytes32[]",
          "name": "functions",
          "type": "bytes32[]"
        }
      ],
      "name": "profileFunctionRemove",
      "outputs": [
        {
          "internalType": "bool",
          "name": "",
          "type": "bool"
        }
      ],
      "stateMutability": "nonpayable",
      "type": "function"
    },
    {
      "inputs": [
        {
          "components": [
            {
              "internalType": "string",
              "name": "profileName",
              "type": "string"
            },
            {
              "internalType": "address",
              "name": "account",
              "type": "address"
            },
            {
              "internalType": "uint64",
              "name": "expiredAt",
              "type": "uint64"
            },
            {
              "internalType": "bytes",
              "name": "signature",
              "type": "bytes"
            }
          ],
          "internalType": "struct IACLCommons.ProfileMemberSignature",
          "name": "memberSign",
          "type": "tuple"
        },
        {
          "components": [
            {
              "internalType": "bytes32",
              "name": "entityId",
              "type": "bytes32"
            },
            {
              "internalType": "enum IACLCommons.ActivityStatus",
              "name": "acstat",
              "type": "uint8"
            }
          ],
          "internalType": "struct IACLCommons.ProfileUpdateActivityRequest[]",
          "name": "requests",
          "type": "tuple[]"
        }
      ],
      "name": "profileFunctionUpdateActivityStatus",
      "outputs": [
        {
          "internalType": "bool",
          "name": "",
          "type": "bool"
        }
      ],
      "stateMutability": "nonpayable",
      "type": "function"
    },
    {
      "inputs": [
        {
          "components": [
            {
              "internalType": "string",
              "name": "profileName",
              "type": "string"
            },
            {
              "internalType": "address",
              "name": "account",
              "type": "address"
            },
            {
              "internalType": "uint64",
              "name": "expiredAt",
              "type": "uint64"
            },
            {
              "internalType": "bytes",
              "name": "signature",
              "type": "bytes"
            }
          ],
          "internalType": "struct IACLCommons.ProfileMemberSignature",
          "name": "memberSign",
          "type": "tuple"
        },
        {
          "components": [
            {
              "internalType": "bytes32",
              "name": "entityId",
              "type": "bytes32"
            },
            {
              "internalType": "bytes32",
              "name": "adminId",
              "type": "bytes32"
            }
          ],
          "internalType": "struct IACLCommons.ProfileUpdateAdminRequest[]",
          "name": "requests",
          "type": "tuple[]"
        }
      ],
      "name": "profileFunctionUpdateAdmin",
      "outputs": [
        {
          "internalType": "bool",
          "name": "",
          "type": "bool"
        }
      ],
      "stateMutability": "nonpayable",
      "type": "function"
    },
    {
      "inputs": [
        {
          "components": [
            {
              "internalType": "string",
              "name": "profileName",
              "type": "string"
            },
            {
              "internalType": "address",
              "name": "account",
              "type": "address"
            },
            {
              "internalType": "uint64",
              "name": "expiredAt",
              "type": "uint64"
            },
            {
              "internalType": "bytes",
              "name": "signature",
              "type": "bytes"
            }
          ],
          "internalType": "struct IACLCommons.ProfileMemberSignature",
          "name": "memberSign",
          "type": "tuple"
        },
        {
          "components": [
            {
              "internalType": "bytes32",
              "name": "functionId",
              "type": "bytes32"
            },
            {
              "internalType": "bytes32",
              "name": "agentId",
              "type": "bytes32"
            }
          ],
          "internalType": "struct IProfileFunctionManagement.ProfileFunctionUpdateAgentRequest[]",
          "name": "requests",
          "type": "tuple[]"
        }
      ],
      "name": "profileFunctionUpdateAgent",
      "outputs": [
        {
          "internalType": "bool",
          "name": "",
          "type": "bool"
        }
      ],
      "stateMutability": "nonpayable",
      "type": "function"
    },
    {
      "inputs": [
        {
          "components": [
            {
              "internalType": "string",
              "name": "profileName",
              "type": "string"
            },
            {
              "internalType": "address",
              "name": "account",
              "type": "address"
            },
            {
              "internalType": "uint64",
              "name": "expiredAt",
              "type": "uint64"
            },
            {
              "internalType": "bytes",
              "name": "signature",
              "type": "bytes"
            }
          ],
          "internalType": "struct IACLCommons.ProfileMemberSignature",
          "name": "memberSign",
          "type": "tuple"
        },
        {
          "components": [
            {
              "internalType": "bytes32",
              "name": "entityId",
              "type": "bytes32"
            },
            {
              "internalType": "enum IACLCommons.AlterabilityStatus",
              "name": "alstat",
              "type": "uint8"
            }
          ],
          "internalType": "struct IACLCommons.ProfileUpdateAlterabilityRequest[]",
          "name": "requests",
          "type": "tuple[]"
        }
      ],
      "name": "profileFunctionUpdateAlterabilityStatus",
      "outputs": [
        {
          "internalType": "bool",
          "name": "",
          "type": "bool"
        }
      ],
      "stateMutability": "nonpayable",
      "type": "function"
    },
    {
      "inputs": [
        {
          "components": [
            {
              "internalType": "string",
              "name": "profileName",
              "type": "string"
            },
            {
              "internalType": "address",
              "name": "account",
              "type": "address"
            },
            {
              "internalType": "uint64",
              "name": "expiredAt",
              "type": "uint64"
            },
            {
              "internalType": "bytes",
              "name": "signature",
              "type": "bytes"
            }
          ],
          "internalType": "struct IACLCommons.ProfileMemberSignature",
          "name": "memberSign",
          "type": "tuple"
        },
        {
          "components": [
            {
              "internalType": "bytes32",
              "name": "functionId",
              "type": "bytes32"
            },
            {
              "internalType": "uint8",
              "name": "policyCode",
              "type": "uint8"
            }
          ],
          "internalType": "struct IProfileFunctionManagement.ProfileFunctionUpdatePolicyRequest[]",
          "name": "requests",
          "type": "tuple[]"
        }
      ],
      "name": "profileFunctionUpdatePolicyCode",
      "outputs": [
        {
          "internalType": "bool",
          "name": "",
          "type": "bool"
        }
      ],
      "stateMutability": "nonpayable",
      "type": "function"
    },
    {
      "inputs": [],
      "name": "proxiableUUID",
      "outputs": [
        {
          "internalType": "bytes32",
          "name": "",
          "type": "bytes32"
        }
      ],
      "stateMutability": "view",
      "type": "function"
    },
    {
      "inputs": [],
      "name": "safeModeStatus",
      "outputs": [
        {
          "internalType": "enum IBaseProxy.ProxySafeModeStatus",
          "name": "",
          "type": "uint8"
        }
      ],
      "stateMutability": "view",
      "type": "function"
    },
    {
      "inputs": [
        {
          "internalType": "address",
          "name": "acl",
          "type": "address"
        }
      ],
      "name": "setAccessControlManager",
      "outputs": [
        {
          "internalType": "bool",
          "name": "",
          "type": "bool"
        }
      ],
      "stateMutability": "nonpayable",
      "type": "function"
    },
    {
      "inputs": [
        {
          "internalType": "address",
          "name": "newLocalAdmin",
          "type": "address"
        }
      ],
      "name": "setLocalAdmin",
      "outputs": [
        {
          "internalType": "bool",
          "name": "",
          "type": "bool"
        }
      ],
      "stateMutability": "nonpayable",
      "type": "function"
    },
    {
      "inputs": [
        {
          "internalType": "enum IBaseProxy.ProxySafeModeStatus",
          "name": "sstat",
          "type": "uint8"
        }
      ],
      "name": "setSafeModeStatus",
      "outputs": [
        {
          "internalType": "bool",
          "name": "",
          "type": "bool"
        }
      ],
      "stateMutability": "nonpayable",
      "type": "function"
    },
    {
      "inputs": [
        {
          "internalType": "enum IBaseProxy.ProxyUpdatabilityStatus",
          "name": "ustat",
          "type": "uint8"
        }
      ],
      "name": "setUpdatabilityStatus",
      "outputs": [
        {
          "internalType": "bool",
          "name": "",
          "type": "bool"
        }
      ],
      "stateMutability": "nonpayable",
      "type": "function"
    },
    {
      "inputs": [],
      "name": "subjectAddress",
      "outputs": [
        {
          "internalType": "address",
          "name": "",
          "type": "address"
        }
      ],
      "stateMutability": "view",
      "type": "function"
    },
    {
      "inputs": [
        {
          "internalType": "bytes4",
          "name": "interfaceId",
          "type": "bytes4"
        }
      ],
      "name": "supportsInterface",
      "outputs": [
        {
          "internalType": "bool",
          "name": "",
          "type": "bool"
        }
      ],
      "stateMutability": "view",
      "type": "function"
    },
    {
      "inputs": [],
      "name": "updatabilityStatus",
      "outputs": [
        {
          "internalType": "enum IBaseProxy.ProxyUpdatabilityStatus",
          "name": "",
          "type": "uint8"
        }
      ],
      "stateMutability": "view",
      "type": "function"
    },
    {
      "inputs": [
        {
          "internalType": "address",
          "name": "newImplementation",
          "type": "address"
        },
        {
          "internalType": "bytes",
          "name": "data",
          "type": "bytes"
        },
        {
          "internalType": "bool",
          "name": "forceCall",
          "type": "bool"
        }
      ],
      "name": "upgradeTo",
      "outputs": [
        {
          "internalType": "bytes",
          "name": "",
          "type": "bytes"
        }
      ],
      "stateMutability": "nonpayable",
      "type": "function"
    },
    {
      "inputs": [
        {
          "internalType": "address",
          "name": "recepient",
          "type": "address"
        }
      ],
      "name": "withdrawBalance",
      "outputs": [
        {
          "internalType": "uint256",
          "name": "",
          "type": "uint256"
        }
      ],
      "stateMutability": "nonpayable",
      "type": "function"
    },
    {
      "stateMutability": "payable",
      "type": "receive"
    }
  ],
  "transactionHash": "0x9784f5af50fe6e6035528982b44e4a7b315c1cd5c5965a84bfb62dc42ce0f17c",
  "args": [],
  "numDeployments": 1,
  "solcInputHash": "bf3d37f12163392c6a812b5af749abec",
  "bytecode": "0x60a0604052306080523480156200001557600080fd5b506200004360017f360894a13ba1a3210667c828492db98dca3e2076cc3735a920a3ca505d382bbd620000fd565b7f360894a13ba1a3210667c828492db98dca3e2076cc3735a920a3ca505d382bbc1462000074576200007462000125565b620000a160017fb53127684a568b3173ae13b9f8a6016e243e63b6e8ee1178d6a717850b5d6104620000fd565b6000805160206200591183398151915214620000c157620000c162000125565b6000805160206200591183398151915280546001600160a01b0319163317905560028054600160a01b61ffff60a01b199091161790556200013b565b818103818111156200011f57634e487b7160e01b600052601160045260246000fd5b92915050565b634e487b7160e01b600052600160045260246000fd5b608051615766620001ab600039600081816107c20152818161080b015281816109fa01528181610a3a01528181611c0201528181611eb401528181611ef401528181612645015281816126850152818161292d0152818161296d01528181612ae10152612b2101526157666000f3fe6080604052600436106102115760003560e01c8063756af45f11610117578063b4a0bdf3116100a5578063f698da251161006c578063f698da2514610703578063f708ceb014610718578063f94a0adb14610738578063fcc401781461074d578063feb091d91461076d57005b8063b4a0bdf314610651578063c2f3860c1461066f578063d9dc1f191461068f578063dc8ff352146106af578063f0b15def146106cf57005b80639b97b534116100e95780639b97b534146105a9578063a0787c3b146105dd578063a0a8e460146105fd578063a284e23714610612578063a304e3531461063257005b8063756af45f1461052d57806375d0c0dc1461054d5780637678922e1461056257806377546e6a1461058957005b80634888f4821161019f57806352d1902d1161016657806352d1902d1461045d57806358dbc45d1461047257806364d4c8191461049f5780636e6a5185146104d35780637147855d1461050057005b80634888f482146103a15780634a00fee3146103c95780634b1ff412146103e95780634bf0414d146104095780634d2049e11461043d57005b8063301c1280116101e3578063301c1280146102d157806334109de214610305578063348c237a146103395780633645214f1461035957806338d38c971461037957005b806301ffc9a71461021a578063077f224a1461024f5780630e32cb861461026f5780631b452f4b1461028f57005b3661021857005b005b34801561022657600080fd5b5061023a610235366004614b9f565b61078d565b60405190151581526020015b60405180910390f35b34801561025b57600080fd5b5061021861026a366004614c12565b6107b8565b34801561027b57600080fd5b5061023a61028a366004614c92565b6109ee565b34801561029b57600080fd5b506102c37f7bfb2abd6084c8ce20d7ff92c1620e7e7267603f0eac446b9176959d243306bc81565b604051908152602001610246565b3480156102dd57600080fd5b506102c37f541cf898e7c3085cbc6b7402ba06e7237285bc4bd5baa510e708e35537a71ffd81565b34801561031157600080fd5b506102c37f7aabe2571874f2a330ea11c8972d9cc3792d973efc6b36e3e29005861a34418881565b34801561034557600080fd5b5061023a610354366004614d09565b610cfc565b34801561036557600080fd5b5061023a610374366004614d71565b6115fa565b34801561038557600080fd5b5061038e611637565b60405161ffff9091168152602001610246565b3480156103ad57600080fd5b50600254600160a81b900460ff165b6040516102469190614db9565b3480156103d557600080fd5b5061023a6103e4366004614d09565b61164b565b3480156103f557600080fd5b5061023a610404366004614e10565b611920565b34801561041557600080fd5b506102c37f9027b951cbdf8eff67da583391d218a57a89ec1ebfcb1c66da188e8531804d5581565b34801561044957600080fd5b5061023a610458366004614e6b565b611b7c565b34801561046957600080fd5b506102c3611bf5565b34801561047e57600080fd5b50610487611c52565b6040516001600160a01b039091168152602001610246565b3480156104ab57600080fd5b506102c37f8b73c3c69bb8fe3d512ecc4cf759cc79239f7b179b0ffacaa9a75d522b39400f81565b3480156104df57600080fd5b506104f36104ee366004614d71565b611c5c565b6040516102469190614ecd565b34801561050c57600080fd5b5061052061051b366004614fc6565b611ea8565b60405161024691906150de565b34801561053957600080fd5b506102c3610548366004614c92565b612007565b34801561055957600080fd5b506105206120cc565b34801561056e57600080fd5b50737F11D5bb7c99667ac0E8851c6B72633d35244c6C610487565b34801561059557600080fd5b5061023a6105a4366004614e10565b61215e565b3480156105b557600080fd5b506102c37fdee69d384475c3656c17c592e94a2bbfd2a1998cce0c85f535569415a15863b881565b3480156105e957600080fd5b5061023a6105f8366004614e10565b612384565b34801561060957600080fd5b506105206124b9565b34801561061e57600080fd5b5061023a61062d3660046150f1565b6124c8565b34801561063e57600080fd5b50600254600160a01b900460ff166103bc565b34801561065d57600080fd5b506002546001600160a01b0316610487565b34801561067b57600080fd5b5061023a61068a366004614e10565b612519565b34801561069b57600080fd5b5061023a6106aa366004614c92565b612639565b3480156106bb57600080fd5b5061023a6106ca366004614e10565b6127ef565b3480156106db57600080fd5b506102c37ffc434588684348dd50856b075c47bed14245c1030aa04c32955af5549981462781565b34801561070f57600080fd5b506102c3612917565b34801561072457600080fd5b5061023a610733366004615131565b612921565b34801561074457600080fd5b50610487612acb565b34801561075957600080fd5b5061023a610768366004615131565b612ad5565b34801561077957600080fd5b5061023a610788366004614e6b565b612c60565b60006001600160e01b0319821663b5f8044160e01b14806107b257506107b282612ccf565b92915050565b6001600160a01b037f00000000000000000000000000000000000000000000000000000000000000001630036108095760405162461bcd60e51b81526004016108009061514e565b60405180910390fd5b7f00000000000000000000000000000000000000000000000000000000000000006001600160a01b031661083b612d1f565b6001600160a01b0316146108615760405162461bcd60e51b815260040161080090615174565b3361086a612d40565b6001600160a01b0316146108b05760405162461bcd60e51b815260206004820152600d60248201526c1058d8d95cdcc811195b9a5959609a1b6044820152606401610800565b604e5462010000900460ff16158080156108d25750604e54600161ffff909116105b806108ed5750303b1580156108ed5750604e5461ffff166001145b6109395760405162461bcd60e51b815260206004820152601c60248201527f436f6e747261637420416c726561647920496e697469616c697a6564000000006044820152606401610800565b604e805461ffff19166001179055801561095f57604e805462ff00001916620100001790555b61096c8686868686612d68565b610974612d1f565b6001600160a01b031630336001600160a01b03167f247ab7b17ee489fa140c6666edc3822eefed2727610cd6e37192462b87244c60898989896109ba604e5461ffff1690565b6040516109cb9594939291906151c3565b60405180910390a480156109e657604e805462ff0000191690555b505050505050565b60006001600160a01b037f0000000000000000000000000000000000000000000000000000000000000000163003610a385760405162461bcd60e51b81526004016108009061514e565b7f00000000000000000000000000000000000000000000000000000000000000006001600160a01b0316610a6a612d1f565b6001600160a01b031614610a905760405162461bcd60e51b815260040161080090615174565b6000600254600160a01b900460ff166001811115610ab057610ab0614d93565b14610acd5760405162461bcd60e51b815260040161080090615201565b6001600254600160a81b900460ff166001811115610aed57610aed614d93565b14610b0a5760405162461bcd60e51b815260040161080090615223565b6001600160a01b03821615801590610b2b57506001600160a01b0382163b15155b610b475760405162461bcd60e51b81526004016108009061524e565b6002546001600160a01b031615610ba6576000610b6a63071965c360e11b612d7c565b90506000816013811115610b8057610b80614d93565b14610ba05780604051637f0911d160e01b81526004016108009190615278565b50610bf5565b33610baf612d40565b6001600160a01b031614610bf55760405162461bcd60e51b815260206004820152600d60248201526c1058d8d95cdcc811195b9a5959609a1b6044820152606401610800565b6040516301ffc9a760e01b81526331501c3960e01b60048201526001600160a01b038316906301ffc9a790602401602060405180830381865afa158015610c40573d6000803e3d6000fd5b505050506040513d601f19601f82011682018060405250810190610c64919061528c565b610c9e5760405162461bcd60e51b815260206004820152600b60248201526a125b1b1959d85b081050d360aa1b6044820152606401610800565b600280546001600160a01b0384166001600160a01b031990911681179091556040805191825251309133917f410bf468eebeeed60acaedb904afb2db7c0bb0131f7d14c3714d81b14fe8ed3c9181900360200190a35060015b919050565b600080306001600160a01b031663a304e3536040518163ffffffff1660e01b8152600401602060405180830381865afa158015610d3d573d6000803e3d6000fd5b505050506040513d601f19601f82011682018060405250810190610d6191906152a9565b6001811115610d7257610d72614d93565b14610d8f5760405162461bcd60e51b815260040161080090615201565b6000610d9b85806152c6565b905011610de05760405162461bcd60e51b8152602060048201526013602482015272496c6c6567616c2050726f66696c654e616d6560681b6044820152606401610800565b6000610df4610def86806152c6565b612e07565b9050600080610e0660608801886152c6565b90501115610e9a5742610e1f606088016040890161530c565b6001600160401b031611610e695760405162461bcd60e51b815260206004820152601160248201527045787069726564205369676e617475726560781b6044820152606401610800565b610e93867f9027b951cbdf8eff67da583391d218a57a89ec1ebfcb1c66da188e8531804d55612e3a565b9050610e9d565b50335b60005b848110156115eb57600080878784818110610ebd57610ebd615335565b9050602002810190610ecf919061534b565b610ee19061010081019060e001614c92565b6001600160a01b03160361115557610efc60608901896152c6565b9050600003611050576000878784818110610f1957610f19615335565b9050602002810190610f2b919061534b565b610f3590806152c6565b9050111561104c57611045878784818110610f5257610f52615335565b9050602002810190610f64919061534b565b610f6e90806152c6565b8080601f01602080910402602001604051908101604052809392919081815260200183838082843760009201919091525061104092508891508b90508a87818110610fbb57610fbb615335565b9050602002810190610fcd919061534b565b610fde9060e081019060c001614c92565b8b8b88818110610ff057610ff0615335565b9050602002810190611002919061534b565b6110139060c081019060a001614c92565b8c8c8981811061102557611025615335565b9050602002810190611037919061534b565b60200135612ec2565b612f37565b9250611050565b3392505b61114e87878481811061106557611065615335565b9050602002810190611077919061534b565b6040013588888581811061108d5761108d615335565b905060200281019061109f919061534b565b6110b09060e081019060c001614c92565b8989868181106110c2576110c2615335565b90506020028101906110d4919061534b565b6110e59060c081019060a001614c92565b6001600160a01b03169190604051733d602d80600a3d3981f3363d3d373d3d3d363d7360601b8152606093841b60148201526f5af43d82803e903d91602b57fd5bf3ff60801b6028820152921b6038830152604c8201526037808220606c830152605591012090565b90506113da565b61116260608901896152c6565b90506000036113a157600087878481811061117f5761117f615335565b9050602002810190611191919061534b565b61119b90806152c6565b9050111561139d576000611326858989868181106111bb576111bb615335565b90506020028101906111cd919061534b565b6111df9061010081019060e001614c92565b61124e8b8b888181106111f4576111f4615335565b9050602002810190611206919061534b565b6112149060608101906152c6565b8080601f016020809104026020016040519081016040528093929190818152602001838380828437600092019190915250612fb592505050565b6112838c8c8981811061126357611263615335565b9050602002810190611275919061534b565b6112149060808101906152c6565b8c8c8981811061129557611295615335565b90506020028101906112a7919061534b565b60200135604080517f7bfb2abd6084c8ce20d7ff92c1620e7e7267603f0eac446b9176959d243306bc60208201529081018690526001600160a01b03851660608201526080810184905260a0810183905260c0810182905260009060e00160405160208183030381529060405280519060200120905095945050505050565b905061139588888581811061133d5761133d615335565b905060200281019061134f919061534b565b61135990806152c6565b8080601f016020809104026020016040519081016040528093929190818152602001838380828437600092019190915250859250612f37915050565b9350506113a1565b3392505b8686838181106113b3576113b3615335565b90506020028101906113c5919061534b565b6113d79061010081019060e001614c92565b90505b60006113e582612fe5565b905060006113f285612fe5565b60008781526048602090815260408220631a4611bd60e11b808452604a9092527f718cd616c7d065ac60dcc3d8dc506b02c925c83ef5c0e956bae909d6f3c0f39654939450926001600160a01b0316919061144e90839061300c565b60405163a66ce52f60e01b8152600481018b90526024810182905260448101869052909150309063a66ce52f90606401600060405180830381600087803b15801561149857600080fd5b505af11580156114ac573d6000803e3d6000fd5b505050505050737F11D5bb7c99667ac0E8851c6B72633d35244c6C63098aafe6828c8c898181106114df576114df615335565b90506020028101906114f1919061534b565b6115009061010081019061536c565b60405160e085901b6001600160e01b0319168152600481019390935261ffff166024830152506044810185905260640160006040518083038186803b15801561154857600080fd5b505af415801561155c573d6000803e3d6000fd5b5050505061156c8184848a613043565b6115a45760405162461bcd60e51b81526020600482015260096024820152682337b93134b23232b760b91b6044820152606401610800565b6115d4818b8b888181106115ba576115ba615335565b90506020028101906115cc919061534b565b89868a6131a9565b5050505080806115e3906153cb565b915050610ea0565b506001925050505b9392505050565b60008281526048602090815260408083208484526001908101909252822081015460ff16600581111561162f5761162f614d93565b149392505050565b6000611646604e5461ffff1690565b905090565b6000808080808061166389634a00fee360e01b613321565b9450945094509450945060005b878110156119105760006116a58a8a8481811061168f5761168f615335565b905060200201358861359390919063ffffffff16565b905060006116bc8888846000016000015488613675565b905060008160078111156116d2576116d2614d93565b146116e0576116e08161370a565b60018201546301000000900463ffffffff1660000361184a57600061171283600301548a6138a190919063ffffffff16565b90506003600182015462010000900460ff16600381111561173557611735614d93565b146117825760405162461bcd60e51b815260206004820152601a60248201527f496c6c6567616c20436f6e746578742055706772616461626c650000000000006044820152606401610800565b6117b08c8c8681811061179757611797615335565b905060200201358260040161397c90919063ffffffff16565b50600080845560018401805466ffffffffffffff1916905560028401819055600384015560048301805464ffffffffff191690558b8b858181106117f6576117f6615335565b9050602002013587866001600160a01b03167f54a4f8c8b6b616d92f895d11bbc8a089d0c346879fdca3a34d382fc40427f40f600060405161183c911515815260200190565b60405180910390a4506118fb565b6002600183015462010000900460ff16600381111561186b5761186b614d93565b10156118895760405162461bcd60e51b815260040161080090615223565b60018201805461ff0019166101001790558a8a848181106118ac576118ac615335565b9050602002013586856001600160a01b03167f54a4f8c8b6b616d92f895d11bbc8a089d0c346879fdca3a34d382fc40427f40f60016040516118f2911515815260200190565b60405180910390a45b50508080611908906153cb565b915050611670565b5060019998505050505050505050565b600080808080806119388963258ffa0960e11b613321565b9450945094509450945060005b878110156119105760006119748a8a8481811061196457611964615335565b8a92604090910201359050613593565b9050600180820154610100900460ff16600381111561199557611995614d93565b116119d55760405162461bcd60e51b815260206004820152601060248201526f119d5b98dd1a5bdb8811195b195d195960821b6044820152606401610800565b60006119ea8888846000016000015488613675565b90506000816007811115611a0057611a00614d93565b14611a0e57611a0e8161370a565b60008b8b85818110611a2257611a22615335565b9050604002016020016020810190611a3a91906153f1565b6003811115611a4b57611a4b614d93565b03611a8f5760405162461bcd60e51b8152602060048201526014602482015273496c6c6567616c20416c7465726162696c69747960601b6044820152606401610800565b8a8a84818110611aa157611aa1615335565b9050604002016020016020810190611ab991906153f1565b60018301805462ff0000191662010000836003811115611adb57611adb614d93565b02179055508a8a84818110611af257611af2615335565b9050604002016000013586856001600160a01b03167f557326aa24b74995a316ce21a5b702d55994e37fcafc6ebe24273b283b0087fc8e8e88818110611b3a57611b3a615335565b9050604002016020016020810190611b5291906153f1565b604051611b5f919061540e565b60405180910390a450508080611b74906153cb565b915050611945565b6000838152604860205260408120816008820154600160a01b900460ff166003811115611bab57611bab614d93565b03611bba5760009150506115f3565b600080611bc78387613988565b9150915080611bdc57600093505050506115f3565b8154611bea908490876139e8565b979650505050505050565b6000306001600160a01b037f00000000000000000000000000000000000000000000000000000000000000001614611c3f5760405162461bcd60e51b81526004016108009061514e565b5060008051602061571183398151915290565b6000611646612d1f565b611cb9604080516101608101825260008082526020820181905291810182905260608101829052608081018290529060a0820190815260200160008152602001600081526020016000815260200160008152600060209091015290565b60008381526048602052604081209080611cd38386613988565b91509150801580611d03575060006008840154600160a01b900460ff166003811115611d0157611d01614d93565b145b15611d6a57604080516101608101825260008082526020820181905291810182905260608101829052608081018290529060a0820190815260200160008152602001600081526020016000815260200160008152600060209091015293506107b292505050565b60408051610160810182528354815260028401546020820152600384015491810191909152600483015460e01b6001600160e01b031916606082015260018301546301000000810463ffffffff16608083015260a082019060ff166005811115611dd657611dd6614d93565b81526001840154602090910190610100900460ff166003811115611dfc57611dfc614d93565b8152600184015460209091019062010000900460ff166003811115611e2357611e23614d93565b815283546000908152602086815260409091206001015491019060ff166003811115611e5157611e51614d93565b815260028401546000908152602086815260409091206001015491019060ff166003811115611e8257611e82614d93565b815260049390930154640100000000900460ff1660209093019290925250949350505050565b60606001600160a01b037f0000000000000000000000000000000000000000000000000000000000000000163003611ef25760405162461bcd60e51b81526004016108009061514e565b7f00000000000000000000000000000000000000000000000000000000000000006001600160a01b0316611f24612d1f565b6001600160a01b031614611f4a5760405162461bcd60e51b815260040161080090615174565b6000600254600160a01b900460ff166001811115611f6a57611f6a614d93565b14611f875760405162461bcd60e51b815260040161080090615201565b6001600254600160a81b900460ff166001811115611fa757611fa7614d93565b14611fc45760405162461bcd60e51b815260040161080090615223565b6001600160a01b0384163b611feb5760405162461bcd60e51b81526004016108009061524e565b611ff484613af9565b611fff848484613b97565b949350505050565b600080600254600160a01b900460ff16600181111561202857612028614d93565b146120455760405162461bcd60e51b815260040161080090615201565b600061205763756af45f60e01b612d7c565b9050600081601381111561206d5761206d614d93565b1461208d5780604051637f0911d160e01b81526004016108009190615278565b60405147906001600160a01b038516904780156108fc02916000818181858888f193505050501580156120c4573d6000803e3d6000fd5b509392505050565b6060600080546120db9061541b565b80601f01602080910402602001604051908101604052809291908181526020018280546121079061541b565b80156121545780601f1061212957610100808354040283529160200191612154565b820191906000526020600020905b81548152906001019060200180831161213757829003601f168201915b5050505050905090565b6000808080808061217689633baa373560e11b613321565b9450945094509450945060005b878110156119105760006121a28a8a8481811061196457611964615335565b90506002600182015462010000900460ff1660038111156121c5576121c5614d93565b10156121e35760405162461bcd60e51b815260040161080090615223565b60006121f88888846000016000015488613675565b9050600081600781111561220e5761220e614d93565b1461221c5761221c8161370a565b60018b8b8581811061223057612230615335565b905060400201602001602081019061224891906153f1565b600381111561225957612259614d93565b116122995760405162461bcd60e51b815260206004820152601060248201526f496c6c6567616c20416374697669747960801b6044820152606401610800565b8a8a848181106122ab576122ab615335565b90506040020160200160208101906122c391906153f1565b60018301805461ff0019166101008360038111156122e3576122e3614d93565b02179055508a8a848181106122fa576122fa615335565b9050604002016000013586856001600160a01b03167f471c5a6cf2e0a49f924550edae1620a5ab33333620552cd950f141d34052f2ad8e8e8881811061234257612342615335565b905060400201602001602081019061235a91906153f1565b604051612367919061540e565b60405180910390a45050808061237c906153cb565b915050612183565b6000808080808061239c8963a0787c3b60e01b613321565b9450945094509450945060005b878110156119105760006123da87878c8c868181106123ca576123ca615335565b9050604002016000013587613d4f565b905061240787868c8c868181106123f3576123f3615335565b905060400201602001358460030154613e3f565b89898381811061241957612419615335565b90506040020160200135816002018190555089898381811061243d5761243d615335565b9050604002016000013585846001600160a01b03167fd05ae773d4062095d26b4d57bac818d891e884c1b5781b58de3af9813aa3ecb98d8d8781811061248557612485615335565b9050604002016020013560405161249e91815260200190565b60405180910390a450806124b1816153cb565b9150506123a9565b6060600180546120db9061541b565b600060016000858152604860205260408120600101906124e8868661300c565b815260208101919091526040016000206001015460ff16600581111561251057612510614d93565b14949350505050565b60008080808080612531896330bce18360e21b613321565b9450945094509450945060005b8781101561191057600061255f87878c8c868181106123ca576123ca615335565b90506125a987886001016000896003015481526020019081526020016000206000015483600301548d8d8781811061259957612599615335565b9050604002016020013589614035565b81558989838181106125bd576125bd615335565b9050604002016000013585846001600160a01b03167f1203a1eed86a151c869396b3eff7518ea76ba4a5db8fddcc34deb76bffc32e688d8d8781811061260557612605615335565b9050604002016020013560405161261e91815260200190565b60405180910390a45080612631816153cb565b91505061253e565b60006001600160a01b037f00000000000000000000000000000000000000000000000000000000000000001630036126835760405162461bcd60e51b81526004016108009061514e565b7f00000000000000000000000000000000000000000000000000000000000000006001600160a01b03166126b5612d1f565b6001600160a01b0316146126db5760405162461bcd60e51b815260040161080090615174565b6000600254600160a01b900460ff1660018111156126fb576126fb614d93565b146127185760405162461bcd60e51b815260040161080090615201565b6001600254600160a81b900460ff16600181111561273857612738614d93565b146127555760405162461bcd60e51b815260040161080090615223565b600061276763d9dc1f1960e01b612d7c565b9050600081601381111561277d5761277d614d93565b1461279d5780604051637f0911d160e01b81526004016108009190615278565b6001600160a01b0383166127dd5760405162461bcd60e51b8152602060048201526007602482015266125b9d985b1a5960ca1b6044820152606401610800565b6127e6836140d2565b50600192915050565b6000808080808061280789636e47f9a960e11b613321565b9450945094509450945060005b8781101561191057600061283587878c8c868181106123ca576123ca615335565b905089898381811061284957612849615335565b90506040020160200160208101906128619190615460565b8160040160046101000a81548160ff021916908360ff16021790555089898381811061288f5761288f615335565b9050604002016000013585846001600160a01b03167ff514cf92c768e1aa3a78e04f18d15e4348e631680bd388458d4ba547bffceff98d8d878181106128d7576128d7615335565b90506040020160200160208101906128ef9190615460565b60405160ff909116815260200160405180910390a4508061290f816153cb565b915050612814565b6000611646614149565b60006001600160a01b037f000000000000000000000000000000000000000000000000000000000000000016300361296b5760405162461bcd60e51b81526004016108009061514e565b7f00000000000000000000000000000000000000000000000000000000000000006001600160a01b031661299d612d1f565b6001600160a01b0316146129c35760405162461bcd60e51b815260040161080090615174565b60006129d2604e5461ffff1690565b61ffff1611612a0e5760405162461bcd60e51b81526020600482015260086024820152671393d5081253925560c21b6044820152606401610800565b6000612a20630f708ceb60e41b612d7c565b90506000816013811115612a3657612a36614d93565b14612a565780604051637f0911d160e01b81526004016108009190615278565b6002805484919060ff60a01b1916600160a01b836001811115612a7b57612a7b614d93565b021790555030336001600160a01b03167fc08ec585c25f1907baaab6f278c5994531a2e34c59935b3fcfe813067a3b487885604051612aba9190614db9565b60405180910390a350600192915050565b6000611646612d40565b60006001600160a01b037f0000000000000000000000000000000000000000000000000000000000000000163003612b1f5760405162461bcd60e51b81526004016108009061514e565b7f00000000000000000000000000000000000000000000000000000000000000006001600160a01b0316612b51612d1f565b6001600160a01b031614612b775760405162461bcd60e51b815260040161080090615174565b6000600254600160a01b900460ff166001811115612b9757612b97614d93565b14612bb45760405162461bcd60e51b815260040161080090615201565b6000612bc6631f98802f60e31b612d7c565b90506000816013811115612bdc57612bdc614d93565b14612bfc5780604051637f0911d160e01b81526004016108009190615278565b6002805484919060ff60a81b1916600160a81b836001811115612c2157612c21614d93565b021790555030336001600160a01b03167ff5912c5e436152157ed2b4a84bc313b4b1fe09a15b941f195d23c99a1b8c45ad85604051612aba9190614db9565b6000838152604860205260408120816008820154600160a01b900460ff166003811115612c8f57612c8f614d93565b03612c9e5760009150506115f3565b600080612cab8387613988565b9150915080612cc057600093505050506115f3565b611bea838360020154876139e8565b60006001600160e01b03198216633d817cff60e01b1480612d0057506001600160e01b031982166352d1902d60e01b145b806107b257506301ffc9a760e01b6001600160e01b03198316146107b2565b60006000805160206157118339815191525b546001600160a01b0316919050565b60007fb53127684a568b3173ae13b9f8a6016e243e63b6e8ee1178d6a717850b5d6103612d31565b612d7585858585856141fd565b5050505050565b6002546040805163172cb29d60e11b81523060048201526001600160e01b03198416602482015233604482015290516000926001600160a01b031691632e59653a916064808301926020929190829003018187875af1158015612de3573d6000803e3d6000fd5b505050506040513d601f19601f820116820180604052508101906107b2919061547b565b60008282604051602001612e1c92919061549c565b60405160208183030381529060405280519060200120905092915050565b60006115f3612e4c60608501856152c6565b8080601f0160208091040260200160405190810160405280939291908181526020018383808284376000920191909152506110409250869150612e949050610def88806152c6565b612ea46040890160208a01614c92565b612eb460608a0160408b0161530c565b6001600160401b03166143c6565b604080517f541cf898e7c3085cbc6b7402ba06e7237285bc4bd5baa510e708e35537a71ffd60208201529081018590526001600160a01b0380851660608301528316608082015260a0810182905260009060c0015b604051602081830303815290604052805190602001209050949350505050565b600080612f43836143f8565b9050600080612f528387614465565b90925090506000816004811115612f6b57612f6b614d93565b14612fac5760405162461bcd60e51b8152602060048201526011602482015270496c6c6567616c205369676e617475726560781b6044820152606401610800565b50949350505050565b600081604051602001612fc891906154ac565b604051602081830303815290604052805190602001209050919050565b6040516bffffffffffffffffffffffff19606083901b166020820152600090603401612fc8565b6040516bffffffffffffffffffffffff19606084901b1660208201526001600160e01b031982166034820152600090603801612e1c565b6000806130b260405160200161308d907f545950452e4c4956454c595f50524f46494c452e4c4956454c595f535953544581526726afa6a0a9aa22a960c11b602082015260280190565b60405160208183030381529060405280519060200120876144d090919063ffffffff16565b60008581526005820160205260408120549192506130d088836145a7565b905060028082015460009081526001808b016020526040909120015460ff16600581111561310057613100614d93565b10156131125760009350505050611fff565b868160020154036131295760019350505050611fff565b6002810154604051639c194e0560e01b8152600481018790526024810191909152604481018890523090639c194e0590606401602060405180830381865afa158015613179573d6000803e3d6000fd5b505050506040513d601f19601f8201168201806040525081019061319d919061528c565b98975050505050505050565b60005b6131ba61010086018661536c565b90508110156109e6576000737F11D5bb7c99667ac0E8851c6B72633d35244c6C63f4bf396a886131ee6101008a018a61536c565b868181106131fe576131fe615335565b90506080020188886040518563ffffffff1660e01b815260040161322594939291906154be565b602060405180830381865af4158015613242573d6000803e3d6000fd5b505050506040513d601f19601f82011682018060405250810190613266919061551a565b905083856001600160a01b0385167fc25950594f3ea73f3d705d124dcf9a1078d4cdc837e010a2db2a126be3453ff9846132a46101008c018c61536c565b888181106132b4576132b4615335565b608002919091013590506132cc6101008d018d61536c565b898181106132dc576132dc615335565b90506080020160200135604051613306939291909283526020830191909152604082015260600190565b60405180910390a45080613319816153cb565b9150506131ac565b60008080808080306001600160a01b031663a304e3536040518163ffffffff1660e01b8152600401602060405180830381865afa158015613366573d6000803e3d6000fd5b505050506040513d601f19601f8201168201806040525081019061338a91906152a9565b600181111561339b5761339b614d93565b146133b85760405162461bcd60e51b815260040161080090615201565b60006133c488806152c6565b9050116134095760405162461bcd60e51b8152602060048201526013602482015272496c6c6567616c2050726f66696c654e616d6560681b6044820152606401610800565b60008061341960608a018a6152c6565b905011156134ad574261343260608a0160408b0161530c565b6001600160401b03161161347c5760405162461bcd60e51b815260206004820152601160248201527045787069726564205369676e617475726560781b6044820152606401610800565b6134a6887f9027b951cbdf8eff67da583391d218a57a89ec1ebfcb1c66da188e8531804d55612e3a565b90506134b0565b50335b60006134bf610def8a806152c6565b6001600160e01b031989166000908152604a60205260408120549192506001600160a01b03909116906134f2828b61300c565b905060006134ff85612fe5565b60405163a66ce52f60e01b8152600481018690526024810184905260448101829052909150309063a66ce52f90606401600060405180830381600087803b15801561354957600080fd5b505af115801561355d573d6000803e3d6000fd5b5050506000858152604860205260408120915061357b604485613593565b919e919d50949b509099509397509295505050505050565b600081815260018084016020526040822090600182015460ff1660058111156135be576135be614d93565b036135db576040805184815260018601602082015220915061366e565b6000600182015460ff1660058111156135f6576135f6614d93565b036136335760405162461bcd60e51b815260206004820152600d60248201526c11925108139bdd08119bdd5b99609a1b6044820152606401610800565b60405162461bcd60e51b815260206004820152601060248201526f125b1b195859db081192510814db1bdd60821b6044820152606401610800565b5092915050565b604051635fbcdb4b60e01b815260048101859052602481018490526044810183905260648101829052600090737F11D5bb7c99667ac0E8851c6B72633d35244c6C90635fbcdb4b90608401602060405180830381865af41580156136dd573d6000803e3d6000fd5b505050506040513d601f19601f820116820180604052508101906137019190615533565b95945050505050565b600181600781111561371e5761371e614d93565b0361373c5760405163e15df99b60e01b815260040160405180910390fd5b600281600781111561375057613750614d93565b0361376e5760405163c38331b560e01b815260040160405180910390fd5b600381600781111561378257613782614d93565b036137a05760405163dab65f4760e01b815260040160405180910390fd5b60048160078111156137b4576137b4614d93565b036137d257604051633f4b20a160e11b815260040160405180910390fd5b60058160078111156137e6576137e6614d93565b03613804576040516308fa537360e01b815260040160405180910390fd5b600681600781111561381857613818614d93565b036138365760405163ae0903a160e01b815260040160405180910390fd5b600781600781111561384a5761384a614d93565b036138685760405163d59825eb60e01b815260040160405180910390fd5b60405162461bcd60e51b815260206004820152600b60248201526a2ab735b737bbb71022a92960a91b6044820152606401610800565b50565b600081815260018301602052604081206002600182015460ff1660058111156138cc576138cc614d93565b036138e9576040805184815260018601602082015220915061366e565b6000600182015460ff16600581111561390457613904614d93565b036139415760405162461bcd60e51b815260206004820152600d60248201526c10d25108139bdd08119bdd5b99609a1b6044820152606401610800565b60405162461bcd60e51b815260206004820152601060248201526f125b1b1959d85b0810d2510814db1bdd60821b6044820152606401610800565b60006115f38383614684565b60008181526001808401602052604082208291600182015460ff1660058111156139b4576139b4614d93565b036139d6575050604080518381526001858101602083015291902091506139e1565b600019925060009150505b9250929050565b60008281526020849052604081206001015460ff1681613a0784612fe5565b90506002826003811115613a1d57613a1d614d93565b03613a9557600080613a2f8888614777565b9150915080613a455760009450505050506115f3565b600080613a5f84600301548b6147c290919063ffffffff16565b9150915080613a7757600096505050505050506115f3565b50600093845260050160205250506040902054841491506115f39050565b6003826003811115613aa957613aa9614d93565b03613aed57600080613abb88886147c2565b9150915080613ad15760009450505050506115f3565b5060009182526005016020526040902054151591506115f39050565b50600095945050505050565b613b01612d1f565b6001600160a01b0316816001600160a01b031603613b4b5760405162461bcd60e51b8152602060048201526007602482015266125b1b1959d85b60ca1b6044820152606401610800565b6000613b5d637147855d60e01b612d7c565b90506000816013811115613b7357613b73614d93565b14613b935780604051637f0911d160e01b81526004016108009190615278565b5050565b60607f4910fdfa16fed3260ed0e7147f7cc6da11a60208b5b9406d12a635614ffd91435460ff1615613be157613bcc846147d9565b506040805160008152602081019091526115f3565b60008051602061571183398151915260001b846001600160a01b03166352d1902d6040518163ffffffff1660e01b8152600401602060405180830381865afa158015613c31573d6000803e3d6000fd5b505050506040513d601f19601f82011682018060405250810190613c55919061551a565b14613c915760405162461bcd60e51b815260206004820152600c60248201526b496c6c6567616c205555505360a01b6044820152606401610800565b6040516301ffc9a760e01b8152633d817cff60e01b60048201526001600160a01b038516906301ffc9a790602401602060405180830381865afa158015613cdc573d6000803e3d6000fd5b505050506040513d601f19601f82011682018060405250810190613d00919061528c565b613d3d5760405162461bcd60e51b815260206004820152600e60248201526d496c6c6567616c204950726f787960901b6044820152606401610800565b613d48848484614808565b90506115f3565b600080613d5c8685613593565b9050600180820154610100900460ff166003811115613d7d57613d7d614d93565b11613dbd5760405162461bcd60e51b815260206004820152601060248201526f119d5b98dd1a5bdb8811195b195d195960821b6044820152606401610800565b6002600182015462010000900460ff166003811115613dde57613dde614d93565b1015613dfc5760405162461bcd60e51b815260040161080090615223565b6000613e118787846000016000015487613675565b90506000816007811115613e2757613e27614d93565b14613e3557613e358161370a565b5095945050505050565b600082815260208590526040902060018082015460ff166003811115613e6757613e67614d93565b11613ea65760405162461bcd60e51b815260206004820152600f60248201526e125b1b1959d85b081059d95b9d1259608a1b6044820152606401610800565b600080613eb38786614869565b91509150816005811115613ec957613ec9614d93565b60021115613f195760405162461bcd60e51b815260206004820152601760248201527f496c6c6567616c204167656e742053636f7065547970650000000000000000006044820152606401610800565b816005811115613f2b57613f2b614d93565b600203613f7c57838114613f775760405162461bcd60e51b8152602060048201526013602482015272496c6c6567616c204167656e742053636f706560681b6044820152606401610800565b61402c565b604051639c194e0560e01b81526004810187905260248101829052604481018590523090639c194e0590606401602060405180830381865afa158015613fc6573d6000803e3d6000fd5b505050506040513d601f19601f82011682018060405250810190613fea919061528c565b61402c5760405162461bcd60e51b8152602060048201526013602482015272496c6c6567616c204167656e742053636f706560681b6044820152606401610800565b50505050505050565b604051631db95cd360e31b81526004810186905260248101859052604481018490526064810183905260848101829052600090737F11D5bb7c99667ac0E8851c6B72633d35244c6C9063edcae6989060a401602060405180830381865af41580156140a4573d6000803e3d6000fd5b505050506040513d601f19601f820116820180604052508101906140c8919061551a565b9695505050505050565b7fb53127684a568b3173ae13b9f8a6016e243e63b6e8ee1178d6a717850b5d610380546001600160a01b0383166001600160a01b031990911681179091556040805191825251309133917f63fdbed5f2909ec44e3becc51e9d29654ce1447747914e8a6ebc019e7f640b8b9181900360200190a350565b60007f8b73c3c69bb8fe3d512ecc4cf759cc79239f7b179b0ffacaa9a75d522b39400f600060405160200161417e9190615554565b6040516020818303038152906040528051906020012060016040516020016141a69190615554565b60408051601f1981840301815282825280516020918201209083019490945281019190915260608101919091524660808201523060a082015260c00160405160208183030381529060405280519060200120905090565b604e5462010000900460ff166142555760405162461bcd60e51b815260206004820152601960248201527f436f6e7472616374204e6f7420496e697469616c697a696e67000000000000006044820152606401610800565b6000614262858783615615565b506001614270838583615615565b506001600160a01b0381163014614356576001600160a01b0381163b6142a85760405162461bcd60e51b81526004016108009061524e565b6040516301ffc9a760e01b81526331501c3960e01b60048201526001600160a01b038216906301ffc9a790602401602060405180830381865afa1580156142f3573d6000803e3d6000fd5b505050506040513d601f19601f82011682018060405250810190614317919061528c565b6143515760405162461bcd60e51b815260206004820152600b60248201526a125b1b1959d85b081050d360aa1b6044820152606401610800565b6143a2565b6143666331501c3960e01b61078d565b6143a25760405162461bcd60e51b815260206004820152600d60248201526c139bdd0814dd5c1c1bdc9d1959609a1b6044820152606401610800565b600280546001600160b01b0319166001600160a01b038316179055612d75336140d2565b60408051602081018690529081018490526001600160a01b03831660608201526080810182905260009060a001612f17565b60006107b2306001600160a01b031663f698da256040518163ffffffff1660e01b8152600401602060405180830381865afa15801561443b573d6000803e3d6000fd5b505050506040513d601f19601f8201168201806040525081019061445f919061551a565b836148fe565b600080825160410361449b5760208301516040840151606085015160001a61448f87828585614925565b945094505050506139e1565b82516040036144c457602083015160408401516144b9868383614a12565b9350935050506139e1565b506000905060026139e1565b60008181526020839052604081206003600182015460ff1660038111156144f9576144f9614d93565b0361451457604080518481526020810186905220915061366e565b6000600182015460ff16600381111561452f5761452f614d93565b0361456c5760405162461bcd60e51b815260206004820152600d60248201526c15125108139bdd08119bdd5b99609a1b6044820152606401610800565b60405162461bcd60e51b815260206004820152601060248201526f125b1b1959d85b081512510814db1bdd60821b6044820152606401610800565b60008181526020839052604081206002600182015460ff1660038111156145d0576145d0614d93565b036145eb57604080518481526020810186905220915061366e565b6000600182015460ff16600381111561460657614606614d93565b036146465760405162461bcd60e51b815260206004820152601060248201526f149bdb19525908139bdd08119bdd5b9960821b6044820152606401610800565b60405162461bcd60e51b8152602060048201526013602482015272125b1b1959d85b08149bdb1952590814db1bdd606a1b6044820152606401610800565b6000818152600183016020526040812054801561476d5760006146a86001836156d4565b85549091506000906146bc906001906156d4565b90508181146147215760008660000182815481106146dc576146dc615335565b90600052602060002001549050808760000184815481106146ff576146ff615335565b6000918252602080832090910192909255918252600188019052604090208390555b8554869080614732576147326156e7565b6001900381819060005260206000200160009055905585600101600086815260200190815260200160002060009055600193505050506107b2565b60009150506107b2565b6000818152602083905260408120819060025b600182015460ff1660038111156147a3576147a3614d93565b036139d6575050604080518381526020810185905220905060016139e1565b60008181526020839052604081208190600361478a565b60008051602061571183398151915280546001600160a01b0319166001600160a01b0392909216919091179055565b606061481384614a4b565b6000835111806148205750815b1561485357613d4884846040518060400160405280600b81526020016a10d85b1b0811985a5b195960aa1b815250614a8f565b6040805160008082526020820190925290612fac565b600081815260208390526040812060010154819060ff16600281600381111561489457614894614d93565b036148cc5760006148a586866145a7565b60020154600081815260018089016020526040909120015460ff16945092506139e1915050565b60038160038111156148e0576148e0614d93565b036148f15760006148a586866144d0565b5060009485945092505050565b60405161190160f01b60208201526022810183905260428101829052600090606201612e1c565b6000807f7fffffffffffffffffffffffffffffff5d576e7357a4501ddfe92f46681b20a083111561495c5750600090506003614a09565b8460ff16601b1415801561497457508460ff16601c14155b156149855750600090506004614a09565b6040805160008082526020820180845289905260ff881692820192909252606081018690526080810185905260019060a0016020604051602081039080840390855afa1580156149d9573d6000803e3d6000fd5b5050604051601f1901519150506001600160a01b038116614a0257600060019250925050614a09565b9150600090505b94509492505050565b6000806001600160ff1b03831681614a2f60ff86901c601b6156fd565b9050614a3d87828885614925565b935093505050935093915050565b614a54816147d9565b6040516001600160a01b03821690309033907f8ee0f2bd29c0e6a975c3cc2e47cf2e01b5f23a9a8a02e0ed6a5a070269de3d2d90600090a450565b60606001600160a01b0384163b614ae85760405162461bcd60e51b815260206004820152601860248201527f496c6c6567616c20436f6e7472616374204164647265737300000000000000006044820152606401610800565b600080856001600160a01b031685604051614b0391906154ac565b600060405180830381855af49150503d8060008114614b3e576040519150601f19603f3d011682016040523d82523d6000602084013e614b43565b606091505b50915091506140c882828660608315614b5d5750816115f3565b825115614b6d5782518084602001fd5b8160405162461bcd60e51b815260040161080091906150de565b80356001600160e01b031981168114610cf757600080fd5b600060208284031215614bb157600080fd5b6115f382614b87565b60008083601f840112614bcc57600080fd5b5081356001600160401b03811115614be357600080fd5b6020830191508360208285010111156139e157600080fd5b80356001600160a01b0381168114610cf757600080fd5b600080600080600060608688031215614c2a57600080fd5b85356001600160401b0380821115614c4157600080fd5b614c4d89838a01614bba565b90975095506020880135915080821115614c6657600080fd5b50614c7388828901614bba565b9094509250614c86905060408701614bfb565b90509295509295909350565b600060208284031215614ca457600080fd5b6115f382614bfb565b600060808284031215614cbf57600080fd5b50919050565b60008083601f840112614cd757600080fd5b5081356001600160401b03811115614cee57600080fd5b6020830191508360208260051b85010111156139e157600080fd5b600080600060408486031215614d1e57600080fd5b83356001600160401b0380821115614d3557600080fd5b614d4187838801614cad565b94506020860135915080821115614d5757600080fd5b50614d6486828701614cc5565b9497909650939450505050565b60008060408385031215614d8457600080fd5b50508035926020909101359150565b634e487b7160e01b600052602160045260246000fd5b6002811061389e5761389e614d93565b60208101614dc683614da9565b91905290565b60008083601f840112614dde57600080fd5b5081356001600160401b03811115614df557600080fd5b6020830191508360208260061b85010111156139e157600080fd5b600080600060408486031215614e2557600080fd5b83356001600160401b0380821115614e3c57600080fd5b614e4887838801614cad565b94506020860135915080821115614e5e57600080fd5b50614d6486828701614dcc565b600080600060608486031215614e8057600080fd5b8335925060208401359150614e9760408501614bfb565b90509250925092565b60068110614eb057614eb0614d93565b9052565b6004811061389e5761389e614d93565b614eb081614eb4565b6000610160820190508251825260208301516020830152604083015160408301526060830151614f0960608401826001600160e01b0319169052565b506080830151614f21608084018263ffffffff169052565b5060a0830151614f3460a0840182614ea0565b5060c0830151614f4760c0840182614ec4565b5060e0830151614f5a60e0840182614ec4565b5061010080840151614f6e82850182614ec4565b505061012080840151614f8382850182614ec4565b50506101409283015160ff16919092015290565b634e487b7160e01b600052604160045260246000fd5b801515811461389e57600080fd5b8035610cf781614fad565b600080600060608486031215614fdb57600080fd5b614fe484614bfb565b925060208401356001600160401b038082111561500057600080fd5b818601915086601f83011261501457600080fd5b81358181111561502657615026614f97565b604051601f8201601f19908116603f0116810190838211818310171561504e5761504e614f97565b8160405282815289602084870101111561506757600080fd5b826020860160208301376000602084830101528096505050505050614e9760408501614fbb565b60005b838110156150a9578181015183820152602001615091565b50506000910152565b600081518084526150ca81602086016020860161508e565b601f01601f19169290920160200192915050565b6020815260006115f360208301846150b2565b60008060006060848603121561510657600080fd5b8335925061511660208501614bfb565b9150614e9760408501614b87565b6002811061389e57600080fd5b60006020828403121561514357600080fd5b81356115f381615124565b6020808252600c908201526b125b1b1959d85b0810d85b1b60a21b604082015260600190565b6020808252600c908201526b125b9d985b1a590810d85b1b60a21b604082015260600190565b81835281816020850137506000828201602090810191909152601f909101601f19169091010190565b6060815260006151d760608301878961519a565b82810360208401526151ea81868861519a565b91505061ffff831660408301529695505050505050565b60208082526008908201526714995a9958dd195960c21b604082015260600190565b602080825260119082015270496c6c6567616c20557064617461626c6560781b604082015260600190565b60208082526010908201526f125b1b1959d85b0810dbdb9d1c9858dd60821b604082015260600190565b6020810160148310614dc657614dc6614d93565b60006020828403121561529e57600080fd5b81516115f381614fad565b6000602082840312156152bb57600080fd5b81516115f381615124565b6000808335601e198436030181126152dd57600080fd5b8301803591506001600160401b038211156152f757600080fd5b6020019150368190038213156139e157600080fd5b60006020828403121561531e57600080fd5b81356001600160401b03811681146115f357600080fd5b634e487b7160e01b600052603260045260246000fd5b6000823561011e1983360301811261536257600080fd5b9190910192915050565b6000808335601e1984360301811261538357600080fd5b8301803591506001600160401b0382111561539d57600080fd5b6020019150600781901b36038213156139e157600080fd5b634e487b7160e01b600052601160045260246000fd5b6000600182016153dd576153dd6153b5565b5060010190565b6004811061389e57600080fd5b60006020828403121561540357600080fd5b81356115f3816153e4565b60208101614dc683614eb4565b600181811c9082168061542f57607f821691505b602082108103614cbf57634e487b7160e01b600052602260045260246000fd5b803560ff81168114610cf757600080fd5b60006020828403121561547257600080fd5b6115f38261544f565b60006020828403121561548d57600080fd5b8151601481106115f357600080fd5b8183823760009101908152919050565b6000825161536281846020870161508e565b600060e082019050858252843560208301526020850135604083015263ffffffff60e01b6154ee60408701614b87565b16606083015260ff6155026060870161544f565b16608083015260a082019390935260c0015292915050565b60006020828403121561552c57600080fd5b5051919050565b60006020828403121561554557600080fd5b8151600881106115f357600080fd5b60008083546155628161541b565b6001828116801561557a576001811461558f576155be565b60ff19841687528215158302870194506155be565b8760005260208060002060005b858110156155b55781548a82015290840190820161559c565b50505082870194505b50929695505050505050565b601f82111561561057600081815260208120601f850160051c810160208610156155f15750805b601f850160051c820191505b818110156109e6578281556001016155fd565b505050565b6001600160401b0383111561562c5761562c614f97565b6156408361563a835461541b565b836155ca565b6000601f841160018114615674576000851561565c5750838201355b600019600387901b1c1916600186901b178355612d75565b600083815260209020601f19861690835b828110156156a55786850135825560209485019460019092019101615685565b50868210156156c25760001960f88860031b161c19848701351681555b505060018560011b0183555050505050565b818103818111156107b2576107b26153b5565b634e487b7160e01b600052603160045260246000fd5b808201808211156107b2576107b26153b556fe360894a13ba1a3210667c828492db98dca3e2076cc3735a920a3ca505d382bbca264697066735822122019b6a878599a75332afc1e71132d4a256f05f4e4d913d4d027ac6092d9961a4964736f6c63430008130033b53127684a568b3173ae13b9f8a6016e243e63b6e8ee1178d6a717850b5d6103",
  "deployedBytecode": "0x6080604052600436106102115760003560e01c8063756af45f11610117578063b4a0bdf3116100a5578063f698da251161006c578063f698da2514610703578063f708ceb014610718578063f94a0adb14610738578063fcc401781461074d578063feb091d91461076d57005b8063b4a0bdf314610651578063c2f3860c1461066f578063d9dc1f191461068f578063dc8ff352146106af578063f0b15def146106cf57005b80639b97b534116100e95780639b97b534146105a9578063a0787c3b146105dd578063a0a8e460146105fd578063a284e23714610612578063a304e3531461063257005b8063756af45f1461052d57806375d0c0dc1461054d5780637678922e1461056257806377546e6a1461058957005b80634888f4821161019f57806352d1902d1161016657806352d1902d1461045d57806358dbc45d1461047257806364d4c8191461049f5780636e6a5185146104d35780637147855d1461050057005b80634888f482146103a15780634a00fee3146103c95780634b1ff412146103e95780634bf0414d146104095780634d2049e11461043d57005b8063301c1280116101e3578063301c1280146102d157806334109de214610305578063348c237a146103395780633645214f1461035957806338d38c971461037957005b806301ffc9a71461021a578063077f224a1461024f5780630e32cb861461026f5780631b452f4b1461028f57005b3661021857005b005b34801561022657600080fd5b5061023a610235366004614b9f565b61078d565b60405190151581526020015b60405180910390f35b34801561025b57600080fd5b5061021861026a366004614c12565b6107b8565b34801561027b57600080fd5b5061023a61028a366004614c92565b6109ee565b34801561029b57600080fd5b506102c37f7bfb2abd6084c8ce20d7ff92c1620e7e7267603f0eac446b9176959d243306bc81565b604051908152602001610246565b3480156102dd57600080fd5b506102c37f541cf898e7c3085cbc6b7402ba06e7237285bc4bd5baa510e708e35537a71ffd81565b34801561031157600080fd5b506102c37f7aabe2571874f2a330ea11c8972d9cc3792d973efc6b36e3e29005861a34418881565b34801561034557600080fd5b5061023a610354366004614d09565b610cfc565b34801561036557600080fd5b5061023a610374366004614d71565b6115fa565b34801561038557600080fd5b5061038e611637565b60405161ffff9091168152602001610246565b3480156103ad57600080fd5b50600254600160a81b900460ff165b6040516102469190614db9565b3480156103d557600080fd5b5061023a6103e4366004614d09565b61164b565b3480156103f557600080fd5b5061023a610404366004614e10565b611920565b34801561041557600080fd5b506102c37f9027b951cbdf8eff67da583391d218a57a89ec1ebfcb1c66da188e8531804d5581565b34801561044957600080fd5b5061023a610458366004614e6b565b611b7c565b34801561046957600080fd5b506102c3611bf5565b34801561047e57600080fd5b50610487611c52565b6040516001600160a01b039091168152602001610246565b3480156104ab57600080fd5b506102c37f8b73c3c69bb8fe3d512ecc4cf759cc79239f7b179b0ffacaa9a75d522b39400f81565b3480156104df57600080fd5b506104f36104ee366004614d71565b611c5c565b6040516102469190614ecd565b34801561050c57600080fd5b5061052061051b366004614fc6565b611ea8565b60405161024691906150de565b34801561053957600080fd5b506102c3610548366004614c92565b612007565b34801561055957600080fd5b506105206120cc565b34801561056e57600080fd5b5073__$68dc14faf17200ec68c1b553d3c187a731$__610487565b34801561059557600080fd5b5061023a6105a4366004614e10565b61215e565b3480156105b557600080fd5b506102c37fdee69d384475c3656c17c592e94a2bbfd2a1998cce0c85f535569415a15863b881565b3480156105e957600080fd5b5061023a6105f8366004614e10565b612384565b34801561060957600080fd5b506105206124b9565b34801561061e57600080fd5b5061023a61062d3660046150f1565b6124c8565b34801561063e57600080fd5b50600254600160a01b900460ff166103bc565b34801561065d57600080fd5b506002546001600160a01b0316610487565b34801561067b57600080fd5b5061023a61068a366004614e10565b612519565b34801561069b57600080fd5b5061023a6106aa366004614c92565b612639565b3480156106bb57600080fd5b5061023a6106ca366004614e10565b6127ef565b3480156106db57600080fd5b506102c37ffc434588684348dd50856b075c47bed14245c1030aa04c32955af5549981462781565b34801561070f57600080fd5b506102c3612917565b34801561072457600080fd5b5061023a610733366004615131565b612921565b34801561074457600080fd5b50610487612acb565b34801561075957600080fd5b5061023a610768366004615131565b612ad5565b34801561077957600080fd5b5061023a610788366004614e6b565b612c60565b60006001600160e01b0319821663b5f8044160e01b14806107b257506107b282612ccf565b92915050565b6001600160a01b037f00000000000000000000000000000000000000000000000000000000000000001630036108095760405162461bcd60e51b81526004016108009061514e565b60405180910390fd5b7f00000000000000000000000000000000000000000000000000000000000000006001600160a01b031661083b612d1f565b6001600160a01b0316146108615760405162461bcd60e51b815260040161080090615174565b3361086a612d40565b6001600160a01b0316146108b05760405162461bcd60e51b815260206004820152600d60248201526c1058d8d95cdcc811195b9a5959609a1b6044820152606401610800565b604e5462010000900460ff16158080156108d25750604e54600161ffff909116105b806108ed5750303b1580156108ed5750604e5461ffff166001145b6109395760405162461bcd60e51b815260206004820152601c60248201527f436f6e747261637420416c726561647920496e697469616c697a6564000000006044820152606401610800565b604e805461ffff19166001179055801561095f57604e805462ff00001916620100001790555b61096c8686868686612d68565b610974612d1f565b6001600160a01b031630336001600160a01b03167f247ab7b17ee489fa140c6666edc3822eefed2727610cd6e37192462b87244c60898989896109ba604e5461ffff1690565b6040516109cb9594939291906151c3565b60405180910390a480156109e657604e805462ff0000191690555b505050505050565b60006001600160a01b037f0000000000000000000000000000000000000000000000000000000000000000163003610a385760405162461bcd60e51b81526004016108009061514e565b7f00000000000000000000000000000000000000000000000000000000000000006001600160a01b0316610a6a612d1f565b6001600160a01b031614610a905760405162461bcd60e51b815260040161080090615174565b6000600254600160a01b900460ff166001811115610ab057610ab0614d93565b14610acd5760405162461bcd60e51b815260040161080090615201565b6001600254600160a81b900460ff166001811115610aed57610aed614d93565b14610b0a5760405162461bcd60e51b815260040161080090615223565b6001600160a01b03821615801590610b2b57506001600160a01b0382163b15155b610b475760405162461bcd60e51b81526004016108009061524e565b6002546001600160a01b031615610ba6576000610b6a63071965c360e11b612d7c565b90506000816013811115610b8057610b80614d93565b14610ba05780604051637f0911d160e01b81526004016108009190615278565b50610bf5565b33610baf612d40565b6001600160a01b031614610bf55760405162461bcd60e51b815260206004820152600d60248201526c1058d8d95cdcc811195b9a5959609a1b6044820152606401610800565b6040516301ffc9a760e01b81526331501c3960e01b60048201526001600160a01b038316906301ffc9a790602401602060405180830381865afa158015610c40573d6000803e3d6000fd5b505050506040513d601f19601f82011682018060405250810190610c64919061528c565b610c9e5760405162461bcd60e51b815260206004820152600b60248201526a125b1b1959d85b081050d360aa1b6044820152606401610800565b600280546001600160a01b0384166001600160a01b031990911681179091556040805191825251309133917f410bf468eebeeed60acaedb904afb2db7c0bb0131f7d14c3714d81b14fe8ed3c9181900360200190a35060015b919050565b600080306001600160a01b031663a304e3536040518163ffffffff1660e01b8152600401602060405180830381865afa158015610d3d573d6000803e3d6000fd5b505050506040513d601f19601f82011682018060405250810190610d6191906152a9565b6001811115610d7257610d72614d93565b14610d8f5760405162461bcd60e51b815260040161080090615201565b6000610d9b85806152c6565b905011610de05760405162461bcd60e51b8152602060048201526013602482015272496c6c6567616c2050726f66696c654e616d6560681b6044820152606401610800565b6000610df4610def86806152c6565b612e07565b9050600080610e0660608801886152c6565b90501115610e9a5742610e1f606088016040890161530c565b6001600160401b031611610e695760405162461bcd60e51b815260206004820152601160248201527045787069726564205369676e617475726560781b6044820152606401610800565b610e93867f9027b951cbdf8eff67da583391d218a57a89ec1ebfcb1c66da188e8531804d55612e3a565b9050610e9d565b50335b60005b848110156115eb57600080878784818110610ebd57610ebd615335565b9050602002810190610ecf919061534b565b610ee19061010081019060e001614c92565b6001600160a01b03160361115557610efc60608901896152c6565b9050600003611050576000878784818110610f1957610f19615335565b9050602002810190610f2b919061534b565b610f3590806152c6565b9050111561104c57611045878784818110610f5257610f52615335565b9050602002810190610f64919061534b565b610f6e90806152c6565b8080601f01602080910402602001604051908101604052809392919081815260200183838082843760009201919091525061104092508891508b90508a87818110610fbb57610fbb615335565b9050602002810190610fcd919061534b565b610fde9060e081019060c001614c92565b8b8b88818110610ff057610ff0615335565b9050602002810190611002919061534b565b6110139060c081019060a001614c92565b8c8c8981811061102557611025615335565b9050602002810190611037919061534b565b60200135612ec2565b612f37565b9250611050565b3392505b61114e87878481811061106557611065615335565b9050602002810190611077919061534b565b6040013588888581811061108d5761108d615335565b905060200281019061109f919061534b565b6110b09060e081019060c001614c92565b8989868181106110c2576110c2615335565b90506020028101906110d4919061534b565b6110e59060c081019060a001614c92565b6001600160a01b03169190604051733d602d80600a3d3981f3363d3d373d3d3d363d7360601b8152606093841b60148201526f5af43d82803e903d91602b57fd5bf3ff60801b6028820152921b6038830152604c8201526037808220606c830152605591012090565b90506113da565b61116260608901896152c6565b90506000036113a157600087878481811061117f5761117f615335565b9050602002810190611191919061534b565b61119b90806152c6565b9050111561139d576000611326858989868181106111bb576111bb615335565b90506020028101906111cd919061534b565b6111df9061010081019060e001614c92565b61124e8b8b888181106111f4576111f4615335565b9050602002810190611206919061534b565b6112149060608101906152c6565b8080601f016020809104026020016040519081016040528093929190818152602001838380828437600092019190915250612fb592505050565b6112838c8c8981811061126357611263615335565b9050602002810190611275919061534b565b6112149060808101906152c6565b8c8c8981811061129557611295615335565b90506020028101906112a7919061534b565b60200135604080517f7bfb2abd6084c8ce20d7ff92c1620e7e7267603f0eac446b9176959d243306bc60208201529081018690526001600160a01b03851660608201526080810184905260a0810183905260c0810182905260009060e00160405160208183030381529060405280519060200120905095945050505050565b905061139588888581811061133d5761133d615335565b905060200281019061134f919061534b565b61135990806152c6565b8080601f016020809104026020016040519081016040528093929190818152602001838380828437600092019190915250859250612f37915050565b9350506113a1565b3392505b8686838181106113b3576113b3615335565b90506020028101906113c5919061534b565b6113d79061010081019060e001614c92565b90505b60006113e582612fe5565b905060006113f285612fe5565b60008781526048602090815260408220631a4611bd60e11b808452604a9092527f718cd616c7d065ac60dcc3d8dc506b02c925c83ef5c0e956bae909d6f3c0f39654939450926001600160a01b0316919061144e90839061300c565b60405163a66ce52f60e01b8152600481018b90526024810182905260448101869052909150309063a66ce52f90606401600060405180830381600087803b15801561149857600080fd5b505af11580156114ac573d6000803e3d6000fd5b50505050505073__$68dc14faf17200ec68c1b553d3c187a731$__63098aafe6828c8c898181106114df576114df615335565b90506020028101906114f1919061534b565b6115009061010081019061536c565b60405160e085901b6001600160e01b0319168152600481019390935261ffff166024830152506044810185905260640160006040518083038186803b15801561154857600080fd5b505af415801561155c573d6000803e3d6000fd5b5050505061156c8184848a613043565b6115a45760405162461bcd60e51b81526020600482015260096024820152682337b93134b23232b760b91b6044820152606401610800565b6115d4818b8b888181106115ba576115ba615335565b90506020028101906115cc919061534b565b89868a6131a9565b5050505080806115e3906153cb565b915050610ea0565b506001925050505b9392505050565b60008281526048602090815260408083208484526001908101909252822081015460ff16600581111561162f5761162f614d93565b149392505050565b6000611646604e5461ffff1690565b905090565b6000808080808061166389634a00fee360e01b613321565b9450945094509450945060005b878110156119105760006116a58a8a8481811061168f5761168f615335565b905060200201358861359390919063ffffffff16565b905060006116bc8888846000016000015488613675565b905060008160078111156116d2576116d2614d93565b146116e0576116e08161370a565b60018201546301000000900463ffffffff1660000361184a57600061171283600301548a6138a190919063ffffffff16565b90506003600182015462010000900460ff16600381111561173557611735614d93565b146117825760405162461bcd60e51b815260206004820152601a60248201527f496c6c6567616c20436f6e746578742055706772616461626c650000000000006044820152606401610800565b6117b08c8c8681811061179757611797615335565b905060200201358260040161397c90919063ffffffff16565b50600080845560018401805466ffffffffffffff1916905560028401819055600384015560048301805464ffffffffff191690558b8b858181106117f6576117f6615335565b9050602002013587866001600160a01b03167f54a4f8c8b6b616d92f895d11bbc8a089d0c346879fdca3a34d382fc40427f40f600060405161183c911515815260200190565b60405180910390a4506118fb565b6002600183015462010000900460ff16600381111561186b5761186b614d93565b10156118895760405162461bcd60e51b815260040161080090615223565b60018201805461ff0019166101001790558a8a848181106118ac576118ac615335565b9050602002013586856001600160a01b03167f54a4f8c8b6b616d92f895d11bbc8a089d0c346879fdca3a34d382fc40427f40f60016040516118f2911515815260200190565b60405180910390a45b50508080611908906153cb565b915050611670565b5060019998505050505050505050565b600080808080806119388963258ffa0960e11b613321565b9450945094509450945060005b878110156119105760006119748a8a8481811061196457611964615335565b8a92604090910201359050613593565b9050600180820154610100900460ff16600381111561199557611995614d93565b116119d55760405162461bcd60e51b815260206004820152601060248201526f119d5b98dd1a5bdb8811195b195d195960821b6044820152606401610800565b60006119ea8888846000016000015488613675565b90506000816007811115611a0057611a00614d93565b14611a0e57611a0e8161370a565b60008b8b85818110611a2257611a22615335565b9050604002016020016020810190611a3a91906153f1565b6003811115611a4b57611a4b614d93565b03611a8f5760405162461bcd60e51b8152602060048201526014602482015273496c6c6567616c20416c7465726162696c69747960601b6044820152606401610800565b8a8a84818110611aa157611aa1615335565b9050604002016020016020810190611ab991906153f1565b60018301805462ff0000191662010000836003811115611adb57611adb614d93565b02179055508a8a84818110611af257611af2615335565b9050604002016000013586856001600160a01b03167f557326aa24b74995a316ce21a5b702d55994e37fcafc6ebe24273b283b0087fc8e8e88818110611b3a57611b3a615335565b9050604002016020016020810190611b5291906153f1565b604051611b5f919061540e565b60405180910390a450508080611b74906153cb565b915050611945565b6000838152604860205260408120816008820154600160a01b900460ff166003811115611bab57611bab614d93565b03611bba5760009150506115f3565b600080611bc78387613988565b9150915080611bdc57600093505050506115f3565b8154611bea908490876139e8565b979650505050505050565b6000306001600160a01b037f00000000000000000000000000000000000000000000000000000000000000001614611c3f5760405162461bcd60e51b81526004016108009061514e565b5060008051602061571183398151915290565b6000611646612d1f565b611cb9604080516101608101825260008082526020820181905291810182905260608101829052608081018290529060a0820190815260200160008152602001600081526020016000815260200160008152600060209091015290565b60008381526048602052604081209080611cd38386613988565b91509150801580611d03575060006008840154600160a01b900460ff166003811115611d0157611d01614d93565b145b15611d6a57604080516101608101825260008082526020820181905291810182905260608101829052608081018290529060a0820190815260200160008152602001600081526020016000815260200160008152600060209091015293506107b292505050565b60408051610160810182528354815260028401546020820152600384015491810191909152600483015460e01b6001600160e01b031916606082015260018301546301000000810463ffffffff16608083015260a082019060ff166005811115611dd657611dd6614d93565b81526001840154602090910190610100900460ff166003811115611dfc57611dfc614d93565b8152600184015460209091019062010000900460ff166003811115611e2357611e23614d93565b815283546000908152602086815260409091206001015491019060ff166003811115611e5157611e51614d93565b815260028401546000908152602086815260409091206001015491019060ff166003811115611e8257611e82614d93565b815260049390930154640100000000900460ff1660209093019290925250949350505050565b60606001600160a01b037f0000000000000000000000000000000000000000000000000000000000000000163003611ef25760405162461bcd60e51b81526004016108009061514e565b7f00000000000000000000000000000000000000000000000000000000000000006001600160a01b0316611f24612d1f565b6001600160a01b031614611f4a5760405162461bcd60e51b815260040161080090615174565b6000600254600160a01b900460ff166001811115611f6a57611f6a614d93565b14611f875760405162461bcd60e51b815260040161080090615201565b6001600254600160a81b900460ff166001811115611fa757611fa7614d93565b14611fc45760405162461bcd60e51b815260040161080090615223565b6001600160a01b0384163b611feb5760405162461bcd60e51b81526004016108009061524e565b611ff484613af9565b611fff848484613b97565b949350505050565b600080600254600160a01b900460ff16600181111561202857612028614d93565b146120455760405162461bcd60e51b815260040161080090615201565b600061205763756af45f60e01b612d7c565b9050600081601381111561206d5761206d614d93565b1461208d5780604051637f0911d160e01b81526004016108009190615278565b60405147906001600160a01b038516904780156108fc02916000818181858888f193505050501580156120c4573d6000803e3d6000fd5b509392505050565b6060600080546120db9061541b565b80601f01602080910402602001604051908101604052809291908181526020018280546121079061541b565b80156121545780601f1061212957610100808354040283529160200191612154565b820191906000526020600020905b81548152906001019060200180831161213757829003601f168201915b5050505050905090565b6000808080808061217689633baa373560e11b613321565b9450945094509450945060005b878110156119105760006121a28a8a8481811061196457611964615335565b90506002600182015462010000900460ff1660038111156121c5576121c5614d93565b10156121e35760405162461bcd60e51b815260040161080090615223565b60006121f88888846000016000015488613675565b9050600081600781111561220e5761220e614d93565b1461221c5761221c8161370a565b60018b8b8581811061223057612230615335565b905060400201602001602081019061224891906153f1565b600381111561225957612259614d93565b116122995760405162461bcd60e51b815260206004820152601060248201526f496c6c6567616c20416374697669747960801b6044820152606401610800565b8a8a848181106122ab576122ab615335565b90506040020160200160208101906122c391906153f1565b60018301805461ff0019166101008360038111156122e3576122e3614d93565b02179055508a8a848181106122fa576122fa615335565b9050604002016000013586856001600160a01b03167f471c5a6cf2e0a49f924550edae1620a5ab33333620552cd950f141d34052f2ad8e8e8881811061234257612342615335565b905060400201602001602081019061235a91906153f1565b604051612367919061540e565b60405180910390a45050808061237c906153cb565b915050612183565b6000808080808061239c8963a0787c3b60e01b613321565b9450945094509450945060005b878110156119105760006123da87878c8c868181106123ca576123ca615335565b9050604002016000013587613d4f565b905061240787868c8c868181106123f3576123f3615335565b905060400201602001358460030154613e3f565b89898381811061241957612419615335565b90506040020160200135816002018190555089898381811061243d5761243d615335565b9050604002016000013585846001600160a01b03167fd05ae773d4062095d26b4d57bac818d891e884c1b5781b58de3af9813aa3ecb98d8d8781811061248557612485615335565b9050604002016020013560405161249e91815260200190565b60405180910390a450806124b1816153cb565b9150506123a9565b6060600180546120db9061541b565b600060016000858152604860205260408120600101906124e8868661300c565b815260208101919091526040016000206001015460ff16600581111561251057612510614d93565b14949350505050565b60008080808080612531896330bce18360e21b613321565b9450945094509450945060005b8781101561191057600061255f87878c8c868181106123ca576123ca615335565b90506125a987886001016000896003015481526020019081526020016000206000015483600301548d8d8781811061259957612599615335565b9050604002016020013589614035565b81558989838181106125bd576125bd615335565b9050604002016000013585846001600160a01b03167f1203a1eed86a151c869396b3eff7518ea76ba4a5db8fddcc34deb76bffc32e688d8d8781811061260557612605615335565b9050604002016020013560405161261e91815260200190565b60405180910390a45080612631816153cb565b91505061253e565b60006001600160a01b037f00000000000000000000000000000000000000000000000000000000000000001630036126835760405162461bcd60e51b81526004016108009061514e565b7f00000000000000000000000000000000000000000000000000000000000000006001600160a01b03166126b5612d1f565b6001600160a01b0316146126db5760405162461bcd60e51b815260040161080090615174565b6000600254600160a01b900460ff1660018111156126fb576126fb614d93565b146127185760405162461bcd60e51b815260040161080090615201565b6001600254600160a81b900460ff16600181111561273857612738614d93565b146127555760405162461bcd60e51b815260040161080090615223565b600061276763d9dc1f1960e01b612d7c565b9050600081601381111561277d5761277d614d93565b1461279d5780604051637f0911d160e01b81526004016108009190615278565b6001600160a01b0383166127dd5760405162461bcd60e51b8152602060048201526007602482015266125b9d985b1a5960ca1b6044820152606401610800565b6127e6836140d2565b50600192915050565b6000808080808061280789636e47f9a960e11b613321565b9450945094509450945060005b8781101561191057600061283587878c8c868181106123ca576123ca615335565b905089898381811061284957612849615335565b90506040020160200160208101906128619190615460565b8160040160046101000a81548160ff021916908360ff16021790555089898381811061288f5761288f615335565b9050604002016000013585846001600160a01b03167ff514cf92c768e1aa3a78e04f18d15e4348e631680bd388458d4ba547bffceff98d8d878181106128d7576128d7615335565b90506040020160200160208101906128ef9190615460565b60405160ff909116815260200160405180910390a4508061290f816153cb565b915050612814565b6000611646614149565b60006001600160a01b037f000000000000000000000000000000000000000000000000000000000000000016300361296b5760405162461bcd60e51b81526004016108009061514e565b7f00000000000000000000000000000000000000000000000000000000000000006001600160a01b031661299d612d1f565b6001600160a01b0316146129c35760405162461bcd60e51b815260040161080090615174565b60006129d2604e5461ffff1690565b61ffff1611612a0e5760405162461bcd60e51b81526020600482015260086024820152671393d5081253925560c21b6044820152606401610800565b6000612a20630f708ceb60e41b612d7c565b90506000816013811115612a3657612a36614d93565b14612a565780604051637f0911d160e01b81526004016108009190615278565b6002805484919060ff60a01b1916600160a01b836001811115612a7b57612a7b614d93565b021790555030336001600160a01b03167fc08ec585c25f1907baaab6f278c5994531a2e34c59935b3fcfe813067a3b487885604051612aba9190614db9565b60405180910390a350600192915050565b6000611646612d40565b60006001600160a01b037f0000000000000000000000000000000000000000000000000000000000000000163003612b1f5760405162461bcd60e51b81526004016108009061514e565b7f00000000000000000000000000000000000000000000000000000000000000006001600160a01b0316612b51612d1f565b6001600160a01b031614612b775760405162461bcd60e51b815260040161080090615174565b6000600254600160a01b900460ff166001811115612b9757612b97614d93565b14612bb45760405162461bcd60e51b815260040161080090615201565b6000612bc6631f98802f60e31b612d7c565b90506000816013811115612bdc57612bdc614d93565b14612bfc5780604051637f0911d160e01b81526004016108009190615278565b6002805484919060ff60a81b1916600160a81b836001811115612c2157612c21614d93565b021790555030336001600160a01b03167ff5912c5e436152157ed2b4a84bc313b4b1fe09a15b941f195d23c99a1b8c45ad85604051612aba9190614db9565b6000838152604860205260408120816008820154600160a01b900460ff166003811115612c8f57612c8f614d93565b03612c9e5760009150506115f3565b600080612cab8387613988565b9150915080612cc057600093505050506115f3565b611bea838360020154876139e8565b60006001600160e01b03198216633d817cff60e01b1480612d0057506001600160e01b031982166352d1902d60e01b145b806107b257506301ffc9a760e01b6001600160e01b03198316146107b2565b60006000805160206157118339815191525b546001600160a01b0316919050565b60007fb53127684a568b3173ae13b9f8a6016e243e63b6e8ee1178d6a717850b5d6103612d31565b612d7585858585856141fd565b5050505050565b6002546040805163172cb29d60e11b81523060048201526001600160e01b03198416602482015233604482015290516000926001600160a01b031691632e59653a916064808301926020929190829003018187875af1158015612de3573d6000803e3d6000fd5b505050506040513d601f19601f820116820180604052508101906107b2919061547b565b60008282604051602001612e1c92919061549c565b60405160208183030381529060405280519060200120905092915050565b60006115f3612e4c60608501856152c6565b8080601f0160208091040260200160405190810160405280939291908181526020018383808284376000920191909152506110409250869150612e949050610def88806152c6565b612ea46040890160208a01614c92565b612eb460608a0160408b0161530c565b6001600160401b03166143c6565b604080517f541cf898e7c3085cbc6b7402ba06e7237285bc4bd5baa510e708e35537a71ffd60208201529081018590526001600160a01b0380851660608301528316608082015260a0810182905260009060c0015b604051602081830303815290604052805190602001209050949350505050565b600080612f43836143f8565b9050600080612f528387614465565b90925090506000816004811115612f6b57612f6b614d93565b14612fac5760405162461bcd60e51b8152602060048201526011602482015270496c6c6567616c205369676e617475726560781b6044820152606401610800565b50949350505050565b600081604051602001612fc891906154ac565b604051602081830303815290604052805190602001209050919050565b6040516bffffffffffffffffffffffff19606083901b166020820152600090603401612fc8565b6040516bffffffffffffffffffffffff19606084901b1660208201526001600160e01b031982166034820152600090603801612e1c565b6000806130b260405160200161308d907f545950452e4c4956454c595f50524f46494c452e4c4956454c595f535953544581526726afa6a0a9aa22a960c11b602082015260280190565b60405160208183030381529060405280519060200120876144d090919063ffffffff16565b60008581526005820160205260408120549192506130d088836145a7565b905060028082015460009081526001808b016020526040909120015460ff16600581111561310057613100614d93565b10156131125760009350505050611fff565b868160020154036131295760019350505050611fff565b6002810154604051639c194e0560e01b8152600481018790526024810191909152604481018890523090639c194e0590606401602060405180830381865afa158015613179573d6000803e3d6000fd5b505050506040513d601f19601f8201168201806040525081019061319d919061528c565b98975050505050505050565b60005b6131ba61010086018661536c565b90508110156109e657600073__$68dc14faf17200ec68c1b553d3c187a731$__63f4bf396a886131ee6101008a018a61536c565b868181106131fe576131fe615335565b90506080020188886040518563ffffffff1660e01b815260040161322594939291906154be565b602060405180830381865af4158015613242573d6000803e3d6000fd5b505050506040513d601f19601f82011682018060405250810190613266919061551a565b905083856001600160a01b0385167fc25950594f3ea73f3d705d124dcf9a1078d4cdc837e010a2db2a126be3453ff9846132a46101008c018c61536c565b888181106132b4576132b4615335565b608002919091013590506132cc6101008d018d61536c565b898181106132dc576132dc615335565b90506080020160200135604051613306939291909283526020830191909152604082015260600190565b60405180910390a45080613319816153cb565b9150506131ac565b60008080808080306001600160a01b031663a304e3536040518163ffffffff1660e01b8152600401602060405180830381865afa158015613366573d6000803e3d6000fd5b505050506040513d601f19601f8201168201806040525081019061338a91906152a9565b600181111561339b5761339b614d93565b146133b85760405162461bcd60e51b815260040161080090615201565b60006133c488806152c6565b9050116134095760405162461bcd60e51b8152602060048201526013602482015272496c6c6567616c2050726f66696c654e616d6560681b6044820152606401610800565b60008061341960608a018a6152c6565b905011156134ad574261343260608a0160408b0161530c565b6001600160401b03161161347c5760405162461bcd60e51b815260206004820152601160248201527045787069726564205369676e617475726560781b6044820152606401610800565b6134a6887f9027b951cbdf8eff67da583391d218a57a89ec1ebfcb1c66da188e8531804d55612e3a565b90506134b0565b50335b60006134bf610def8a806152c6565b6001600160e01b031989166000908152604a60205260408120549192506001600160a01b03909116906134f2828b61300c565b905060006134ff85612fe5565b60405163a66ce52f60e01b8152600481018690526024810184905260448101829052909150309063a66ce52f90606401600060405180830381600087803b15801561354957600080fd5b505af115801561355d573d6000803e3d6000fd5b5050506000858152604860205260408120915061357b604485613593565b919e919d50949b509099509397509295505050505050565b600081815260018084016020526040822090600182015460ff1660058111156135be576135be614d93565b036135db576040805184815260018601602082015220915061366e565b6000600182015460ff1660058111156135f6576135f6614d93565b036136335760405162461bcd60e51b815260206004820152600d60248201526c11925108139bdd08119bdd5b99609a1b6044820152606401610800565b60405162461bcd60e51b815260206004820152601060248201526f125b1b195859db081192510814db1bdd60821b6044820152606401610800565b5092915050565b604051635fbcdb4b60e01b81526004810185905260248101849052604481018390526064810182905260009073__$68dc14faf17200ec68c1b553d3c187a731$__90635fbcdb4b90608401602060405180830381865af41580156136dd573d6000803e3d6000fd5b505050506040513d601f19601f820116820180604052508101906137019190615533565b95945050505050565b600181600781111561371e5761371e614d93565b0361373c5760405163e15df99b60e01b815260040160405180910390fd5b600281600781111561375057613750614d93565b0361376e5760405163c38331b560e01b815260040160405180910390fd5b600381600781111561378257613782614d93565b036137a05760405163dab65f4760e01b815260040160405180910390fd5b60048160078111156137b4576137b4614d93565b036137d257604051633f4b20a160e11b815260040160405180910390fd5b60058160078111156137e6576137e6614d93565b03613804576040516308fa537360e01b815260040160405180910390fd5b600681600781111561381857613818614d93565b036138365760405163ae0903a160e01b815260040160405180910390fd5b600781600781111561384a5761384a614d93565b036138685760405163d59825eb60e01b815260040160405180910390fd5b60405162461bcd60e51b815260206004820152600b60248201526a2ab735b737bbb71022a92960a91b6044820152606401610800565b50565b600081815260018301602052604081206002600182015460ff1660058111156138cc576138cc614d93565b036138e9576040805184815260018601602082015220915061366e565b6000600182015460ff16600581111561390457613904614d93565b036139415760405162461bcd60e51b815260206004820152600d60248201526c10d25108139bdd08119bdd5b99609a1b6044820152606401610800565b60405162461bcd60e51b815260206004820152601060248201526f125b1b1959d85b0810d2510814db1bdd60821b6044820152606401610800565b60006115f38383614684565b60008181526001808401602052604082208291600182015460ff1660058111156139b4576139b4614d93565b036139d6575050604080518381526001858101602083015291902091506139e1565b600019925060009150505b9250929050565b60008281526020849052604081206001015460ff1681613a0784612fe5565b90506002826003811115613a1d57613a1d614d93565b03613a9557600080613a2f8888614777565b9150915080613a455760009450505050506115f3565b600080613a5f84600301548b6147c290919063ffffffff16565b9150915080613a7757600096505050505050506115f3565b50600093845260050160205250506040902054841491506115f39050565b6003826003811115613aa957613aa9614d93565b03613aed57600080613abb88886147c2565b9150915080613ad15760009450505050506115f3565b5060009182526005016020526040902054151591506115f39050565b50600095945050505050565b613b01612d1f565b6001600160a01b0316816001600160a01b031603613b4b5760405162461bcd60e51b8152602060048201526007602482015266125b1b1959d85b60ca1b6044820152606401610800565b6000613b5d637147855d60e01b612d7c565b90506000816013811115613b7357613b73614d93565b14613b935780604051637f0911d160e01b81526004016108009190615278565b5050565b60607f4910fdfa16fed3260ed0e7147f7cc6da11a60208b5b9406d12a635614ffd91435460ff1615613be157613bcc846147d9565b506040805160008152602081019091526115f3565b60008051602061571183398151915260001b846001600160a01b03166352d1902d6040518163ffffffff1660e01b8152600401602060405180830381865afa158015613c31573d6000803e3d6000fd5b505050506040513d601f19601f82011682018060405250810190613c55919061551a565b14613c915760405162461bcd60e51b815260206004820152600c60248201526b496c6c6567616c205555505360a01b6044820152606401610800565b6040516301ffc9a760e01b8152633d817cff60e01b60048201526001600160a01b038516906301ffc9a790602401602060405180830381865afa158015613cdc573d6000803e3d6000fd5b505050506040513d601f19601f82011682018060405250810190613d00919061528c565b613d3d5760405162461bcd60e51b815260206004820152600e60248201526d496c6c6567616c204950726f787960901b6044820152606401610800565b613d48848484614808565b90506115f3565b600080613d5c8685613593565b9050600180820154610100900460ff166003811115613d7d57613d7d614d93565b11613dbd5760405162461bcd60e51b815260206004820152601060248201526f119d5b98dd1a5bdb8811195b195d195960821b6044820152606401610800565b6002600182015462010000900460ff166003811115613dde57613dde614d93565b1015613dfc5760405162461bcd60e51b815260040161080090615223565b6000613e118787846000016000015487613675565b90506000816007811115613e2757613e27614d93565b14613e3557613e358161370a565b5095945050505050565b600082815260208590526040902060018082015460ff166003811115613e6757613e67614d93565b11613ea65760405162461bcd60e51b815260206004820152600f60248201526e125b1b1959d85b081059d95b9d1259608a1b6044820152606401610800565b600080613eb38786614869565b91509150816005811115613ec957613ec9614d93565b60021115613f195760405162461bcd60e51b815260206004820152601760248201527f496c6c6567616c204167656e742053636f7065547970650000000000000000006044820152606401610800565b816005811115613f2b57613f2b614d93565b600203613f7c57838114613f775760405162461bcd60e51b8152602060048201526013602482015272496c6c6567616c204167656e742053636f706560681b6044820152606401610800565b61402c565b604051639c194e0560e01b81526004810187905260248101829052604481018590523090639c194e0590606401602060405180830381865afa158015613fc6573d6000803e3d6000fd5b505050506040513d601f19601f82011682018060405250810190613fea919061528c565b61402c5760405162461bcd60e51b8152602060048201526013602482015272496c6c6567616c204167656e742053636f706560681b6044820152606401610800565b50505050505050565b604051631db95cd360e31b8152600481018690526024810185905260448101849052606481018390526084810182905260009073__$68dc14faf17200ec68c1b553d3c187a731$__9063edcae6989060a401602060405180830381865af41580156140a4573d6000803e3d6000fd5b505050506040513d601f19601f820116820180604052508101906140c8919061551a565b9695505050505050565b7fb53127684a568b3173ae13b9f8a6016e243e63b6e8ee1178d6a717850b5d610380546001600160a01b0383166001600160a01b031990911681179091556040805191825251309133917f63fdbed5f2909ec44e3becc51e9d29654ce1447747914e8a6ebc019e7f640b8b9181900360200190a350565b60007f8b73c3c69bb8fe3d512ecc4cf759cc79239f7b179b0ffacaa9a75d522b39400f600060405160200161417e9190615554565b6040516020818303038152906040528051906020012060016040516020016141a69190615554565b60408051601f1981840301815282825280516020918201209083019490945281019190915260608101919091524660808201523060a082015260c00160405160208183030381529060405280519060200120905090565b604e5462010000900460ff166142555760405162461bcd60e51b815260206004820152601960248201527f436f6e7472616374204e6f7420496e697469616c697a696e67000000000000006044820152606401610800565b6000614262858783615615565b506001614270838583615615565b506001600160a01b0381163014614356576001600160a01b0381163b6142a85760405162461bcd60e51b81526004016108009061524e565b6040516301ffc9a760e01b81526331501c3960e01b60048201526001600160a01b038216906301ffc9a790602401602060405180830381865afa1580156142f3573d6000803e3d6000fd5b505050506040513d601f19601f82011682018060405250810190614317919061528c565b6143515760405162461bcd60e51b815260206004820152600b60248201526a125b1b1959d85b081050d360aa1b6044820152606401610800565b6143a2565b6143666331501c3960e01b61078d565b6143a25760405162461bcd60e51b815260206004820152600d60248201526c139bdd0814dd5c1c1bdc9d1959609a1b6044820152606401610800565b600280546001600160b01b0319166001600160a01b038316179055612d75336140d2565b60408051602081018690529081018490526001600160a01b03831660608201526080810182905260009060a001612f17565b60006107b2306001600160a01b031663f698da256040518163ffffffff1660e01b8152600401602060405180830381865afa15801561443b573d6000803e3d6000fd5b505050506040513d601f19601f8201168201806040525081019061445f919061551a565b836148fe565b600080825160410361449b5760208301516040840151606085015160001a61448f87828585614925565b945094505050506139e1565b82516040036144c457602083015160408401516144b9868383614a12565b9350935050506139e1565b506000905060026139e1565b60008181526020839052604081206003600182015460ff1660038111156144f9576144f9614d93565b0361451457604080518481526020810186905220915061366e565b6000600182015460ff16600381111561452f5761452f614d93565b0361456c5760405162461bcd60e51b815260206004820152600d60248201526c15125108139bdd08119bdd5b99609a1b6044820152606401610800565b60405162461bcd60e51b815260206004820152601060248201526f125b1b1959d85b081512510814db1bdd60821b6044820152606401610800565b60008181526020839052604081206002600182015460ff1660038111156145d0576145d0614d93565b036145eb57604080518481526020810186905220915061366e565b6000600182015460ff16600381111561460657614606614d93565b036146465760405162461bcd60e51b815260206004820152601060248201526f149bdb19525908139bdd08119bdd5b9960821b6044820152606401610800565b60405162461bcd60e51b8152602060048201526013602482015272125b1b1959d85b08149bdb1952590814db1bdd606a1b6044820152606401610800565b6000818152600183016020526040812054801561476d5760006146a86001836156d4565b85549091506000906146bc906001906156d4565b90508181146147215760008660000182815481106146dc576146dc615335565b90600052602060002001549050808760000184815481106146ff576146ff615335565b6000918252602080832090910192909255918252600188019052604090208390555b8554869080614732576147326156e7565b6001900381819060005260206000200160009055905585600101600086815260200190815260200160002060009055600193505050506107b2565b60009150506107b2565b6000818152602083905260408120819060025b600182015460ff1660038111156147a3576147a3614d93565b036139d6575050604080518381526020810185905220905060016139e1565b60008181526020839052604081208190600361478a565b60008051602061571183398151915280546001600160a01b0319166001600160a01b0392909216919091179055565b606061481384614a4b565b6000835111806148205750815b1561485357613d4884846040518060400160405280600b81526020016a10d85b1b0811985a5b195960aa1b815250614a8f565b6040805160008082526020820190925290612fac565b600081815260208390526040812060010154819060ff16600281600381111561489457614894614d93565b036148cc5760006148a586866145a7565b60020154600081815260018089016020526040909120015460ff16945092506139e1915050565b60038160038111156148e0576148e0614d93565b036148f15760006148a586866144d0565b5060009485945092505050565b60405161190160f01b60208201526022810183905260428101829052600090606201612e1c565b6000807f7fffffffffffffffffffffffffffffff5d576e7357a4501ddfe92f46681b20a083111561495c5750600090506003614a09565b8460ff16601b1415801561497457508460ff16601c14155b156149855750600090506004614a09565b6040805160008082526020820180845289905260ff881692820192909252606081018690526080810185905260019060a0016020604051602081039080840390855afa1580156149d9573d6000803e3d6000fd5b5050604051601f1901519150506001600160a01b038116614a0257600060019250925050614a09565b9150600090505b94509492505050565b6000806001600160ff1b03831681614a2f60ff86901c601b6156fd565b9050614a3d87828885614925565b935093505050935093915050565b614a54816147d9565b6040516001600160a01b03821690309033907f8ee0f2bd29c0e6a975c3cc2e47cf2e01b5f23a9a8a02e0ed6a5a070269de3d2d90600090a450565b60606001600160a01b0384163b614ae85760405162461bcd60e51b815260206004820152601860248201527f496c6c6567616c20436f6e7472616374204164647265737300000000000000006044820152606401610800565b600080856001600160a01b031685604051614b0391906154ac565b600060405180830381855af49150503d8060008114614b3e576040519150601f19603f3d011682016040523d82523d6000602084013e614b43565b606091505b50915091506140c882828660608315614b5d5750816115f3565b825115614b6d5782518084602001fd5b8160405162461bcd60e51b815260040161080091906150de565b80356001600160e01b031981168114610cf757600080fd5b600060208284031215614bb157600080fd5b6115f382614b87565b60008083601f840112614bcc57600080fd5b5081356001600160401b03811115614be357600080fd5b6020830191508360208285010111156139e157600080fd5b80356001600160a01b0381168114610cf757600080fd5b600080600080600060608688031215614c2a57600080fd5b85356001600160401b0380821115614c4157600080fd5b614c4d89838a01614bba565b90975095506020880135915080821115614c6657600080fd5b50614c7388828901614bba565b9094509250614c86905060408701614bfb565b90509295509295909350565b600060208284031215614ca457600080fd5b6115f382614bfb565b600060808284031215614cbf57600080fd5b50919050565b60008083601f840112614cd757600080fd5b5081356001600160401b03811115614cee57600080fd5b6020830191508360208260051b85010111156139e157600080fd5b600080600060408486031215614d1e57600080fd5b83356001600160401b0380821115614d3557600080fd5b614d4187838801614cad565b94506020860135915080821115614d5757600080fd5b50614d6486828701614cc5565b9497909650939450505050565b60008060408385031215614d8457600080fd5b50508035926020909101359150565b634e487b7160e01b600052602160045260246000fd5b6002811061389e5761389e614d93565b60208101614dc683614da9565b91905290565b60008083601f840112614dde57600080fd5b5081356001600160401b03811115614df557600080fd5b6020830191508360208260061b85010111156139e157600080fd5b600080600060408486031215614e2557600080fd5b83356001600160401b0380821115614e3c57600080fd5b614e4887838801614cad565b94506020860135915080821115614e5e57600080fd5b50614d6486828701614dcc565b600080600060608486031215614e8057600080fd5b8335925060208401359150614e9760408501614bfb565b90509250925092565b60068110614eb057614eb0614d93565b9052565b6004811061389e5761389e614d93565b614eb081614eb4565b6000610160820190508251825260208301516020830152604083015160408301526060830151614f0960608401826001600160e01b0319169052565b506080830151614f21608084018263ffffffff169052565b5060a0830151614f3460a0840182614ea0565b5060c0830151614f4760c0840182614ec4565b5060e0830151614f5a60e0840182614ec4565b5061010080840151614f6e82850182614ec4565b505061012080840151614f8382850182614ec4565b50506101409283015160ff16919092015290565b634e487b7160e01b600052604160045260246000fd5b801515811461389e57600080fd5b8035610cf781614fad565b600080600060608486031215614fdb57600080fd5b614fe484614bfb565b925060208401356001600160401b038082111561500057600080fd5b818601915086601f83011261501457600080fd5b81358181111561502657615026614f97565b604051601f8201601f19908116603f0116810190838211818310171561504e5761504e614f97565b8160405282815289602084870101111561506757600080fd5b826020860160208301376000602084830101528096505050505050614e9760408501614fbb565b60005b838110156150a9578181015183820152602001615091565b50506000910152565b600081518084526150ca81602086016020860161508e565b601f01601f19169290920160200192915050565b6020815260006115f360208301846150b2565b60008060006060848603121561510657600080fd5b8335925061511660208501614bfb565b9150614e9760408501614b87565b6002811061389e57600080fd5b60006020828403121561514357600080fd5b81356115f381615124565b6020808252600c908201526b125b1b1959d85b0810d85b1b60a21b604082015260600190565b6020808252600c908201526b125b9d985b1a590810d85b1b60a21b604082015260600190565b81835281816020850137506000828201602090810191909152601f909101601f19169091010190565b6060815260006151d760608301878961519a565b82810360208401526151ea81868861519a565b91505061ffff831660408301529695505050505050565b60208082526008908201526714995a9958dd195960c21b604082015260600190565b602080825260119082015270496c6c6567616c20557064617461626c6560781b604082015260600190565b60208082526010908201526f125b1b1959d85b0810dbdb9d1c9858dd60821b604082015260600190565b6020810160148310614dc657614dc6614d93565b60006020828403121561529e57600080fd5b81516115f381614fad565b6000602082840312156152bb57600080fd5b81516115f381615124565b6000808335601e198436030181126152dd57600080fd5b8301803591506001600160401b038211156152f757600080fd5b6020019150368190038213156139e157600080fd5b60006020828403121561531e57600080fd5b81356001600160401b03811681146115f357600080fd5b634e487b7160e01b600052603260045260246000fd5b6000823561011e1983360301811261536257600080fd5b9190910192915050565b6000808335601e1984360301811261538357600080fd5b8301803591506001600160401b0382111561539d57600080fd5b6020019150600781901b36038213156139e157600080fd5b634e487b7160e01b600052601160045260246000fd5b6000600182016153dd576153dd6153b5565b5060010190565b6004811061389e57600080fd5b60006020828403121561540357600080fd5b81356115f3816153e4565b60208101614dc683614eb4565b600181811c9082168061542f57607f821691505b602082108103614cbf57634e487b7160e01b600052602260045260246000fd5b803560ff81168114610cf757600080fd5b60006020828403121561547257600080fd5b6115f38261544f565b60006020828403121561548d57600080fd5b8151601481106115f357600080fd5b8183823760009101908152919050565b6000825161536281846020870161508e565b600060e082019050858252843560208301526020850135604083015263ffffffff60e01b6154ee60408701614b87565b16606083015260ff6155026060870161544f565b16608083015260a082019390935260c0015292915050565b60006020828403121561552c57600080fd5b5051919050565b60006020828403121561554557600080fd5b8151600881106115f357600080fd5b60008083546155628161541b565b6001828116801561557a576001811461558f576155be565b60ff19841687528215158302870194506155be565b8760005260208060002060005b858110156155b55781548a82015290840190820161559c565b50505082870194505b50929695505050505050565b601f82111561561057600081815260208120601f850160051c810160208610156155f15750805b601f850160051c820191505b818110156109e6578281556001016155fd565b505050565b6001600160401b0383111561562c5761562c614f97565b6156408361563a835461541b565b836155ca565b6000601f841160018114615674576000851561565c5750838201355b600019600387901b1c1916600186901b178355612d75565b600083815260209020601f19861690835b828110156156a55786850135825560209485019460019092019101615685565b50868210156156c25760001960f88860031b161c19848701351681555b505060018560011b0183555050505050565b818103818111156107b2576107b26153b5565b634e487b7160e01b600052603160045260246000fd5b808201808211156107b2576107b26153b556fe360894a13ba1a3210667c828492db98dca3e2076cc3735a920a3ca505d382bbca264697066735822122019b6a878599a75332afc1e71132d4a256f05f4e4d913d4d027ac6092d9961a4964736f6c63430008130033",
  "libraries": {
    "LProfileCommons": "0x7F11D5bb7c99667ac0E8851c6B72633d35244c6C"
  },
  "devdoc": {
    "author": "Sina Tadayon, https://github.com/SinaTadayon",
    "events": {
      "Initialized(address,address,address,string,string,uint16)": {
        "details": "Triggered when the contract has been initialized or reinitialized."
      },
      "ProxyLocalAdminUpdated(address,address,address)": {
        "details": "Emitted when the admin account has changed."
      }
    },
    "kind": "dev",
    "methods": {
      "proxiableUUID()": {
        "details": "Implementation of the ERC1822 {proxiableUUID} function. This returns the storage slot used by the implementation. It is used to validate that the this implementation remains valid after an upgrade. IMPORTANT: A proxy pointing at a proxiable contract should not be considered proxiable itself, because this risks bricking a proxy that upgrades to it, by delegating to itself until out of gas. Thus it is critical that this function revert if invoked through a proxy. This is guaranteed by the `notDelegated` modifier."
      },
      "supportsInterface(bytes4)": {
        "details": "See {IERC165-supportsInterface}."
      }
    },
    "title": "Function Manager Contract",
    "version": 1
  },
  "userdoc": {
    "kind": "user",
    "methods": {},
    "version": 1
  },
  "storageLayout": {
    "storage": [
      {
        "astId": 82229,
        "contract": "src/contracts/acl/profile/scope/ProfileFunctionManager.sol:ProfileFunctionManager",
        "label": "_contractName",
        "offset": 0,
        "slot": "0",
        "type": "t_string_storage"
      },
      {
        "astId": 82231,
        "contract": "src/contracts/acl/profile/scope/ProfileFunctionManager.sol:ProfileFunctionManager",
        "label": "_contractVersion",
        "offset": 0,
        "slot": "1",
        "type": "t_string_storage"
      },
      {
        "astId": 82233,
        "contract": "src/contracts/acl/profile/scope/ProfileFunctionManager.sol:ProfileFunctionManager",
        "label": "_accessControlManager",
        "offset": 0,
        "slot": "2",
        "type": "t_address"
      },
      {
        "astId": 82236,
        "contract": "src/contracts/acl/profile/scope/ProfileFunctionManager.sol:ProfileFunctionManager",
        "label": "_sstat",
        "offset": 20,
        "slot": "2",
        "type": "t_enum(ProxySafeModeStatus)82251"
      },
      {
        "astId": 82239,
        "contract": "src/contracts/acl/profile/scope/ProfileFunctionManager.sol:ProfileFunctionManager",
        "label": "_ustat",
        "offset": 21,
        "slot": "2",
        "type": "t_enum(ProxyUpdatabilityStatus)82254"
      },
      {
        "astId": 82244,
        "contract": "src/contracts/acl/profile/scope/ProfileFunctionManager.sol:ProfileFunctionManager",
        "label": "__reserved",
        "offset": 0,
        "slot": "3",
        "type": "t_array(t_uint256)64_storage"
      },
      {
        "astId": 10383,
        "contract": "src/contracts/acl/profile/scope/ProfileFunctionManager.sol:ProfileFunctionManager",
        "label": "_firstInit",
        "offset": 0,
        "slot": "67",
        "type": "t_bool"
      },
      {
        "astId": 10386,
        "contract": "src/contracts/acl/profile/scope/ProfileFunctionManager.sol:ProfileFunctionManager",
        "label": "_data",
        "offset": 0,
        "slot": "68",
        "type": "t_struct(DataCollection)10239_storage"
      },
      {
        "astId": 82432,
        "contract": "src/contracts/acl/profile/scope/ProfileFunctionManager.sol:ProfileFunctionManager",
        "label": "_initialized",
        "offset": 0,
        "slot": "78",
        "type": "t_uint16"
      },
      {
        "astId": 82435,
        "contract": "src/contracts/acl/profile/scope/ProfileFunctionManager.sol:ProfileFunctionManager",
        "label": "_initializing",
        "offset": 2,
        "slot": "78",
        "type": "t_bool"
      }
    ],
    "types": {
      "t_address": {
        "encoding": "inplace",
        "label": "address",
        "numberOfBytes": "20"
      },
      "t_array(t_bytes32)dyn_storage": {
        "base": "t_bytes32",
        "encoding": "dynamic_array",
        "label": "bytes32[]",
        "numberOfBytes": "32"
      },
      "t_array(t_uint256)64_storage": {
        "base": "t_uint256",
        "encoding": "inplace",
        "label": "uint256[64]",
        "numberOfBytes": "2048"
      },
      "t_bool": {
        "encoding": "inplace",
        "label": "bool",
        "numberOfBytes": "1"
      },
      "t_bytes32": {
        "encoding": "inplace",
        "label": "bytes32",
        "numberOfBytes": "32"
      },
      "t_bytes4": {
        "encoding": "inplace",
        "label": "bytes4",
        "numberOfBytes": "4"
      },
      "t_enum(ActivityStatus)11721": {
        "encoding": "inplace",
        "label": "enum IACLCommons.ActivityStatus",
        "numberOfBytes": "1"
      },
      "t_enum(AgentType)11716": {
        "encoding": "inplace",
        "label": "enum IACLCommons.AgentType",
        "numberOfBytes": "1"
      },
      "t_enum(AlterabilityStatus)11726": {
        "encoding": "inplace",
        "label": "enum IACLCommons.AlterabilityStatus",
        "numberOfBytes": "1"
      },
      "t_enum(PolicyType)11744": {
        "encoding": "inplace",
        "label": "enum IACLCommons.PolicyType",
        "numberOfBytes": "1"
      },
      "t_enum(ProxySafeModeStatus)82251": {
        "encoding": "inplace",
        "label": "enum IBaseProxy.ProxySafeModeStatus",
        "numberOfBytes": "1"
      },
      "t_enum(ProxyUpdatabilityStatus)82254": {
        "encoding": "inplace",
        "label": "enum IBaseProxy.ProxyUpdatabilityStatus",
        "numberOfBytes": "1"
      },
      "t_enum(ScopeType)11733": {
        "encoding": "inplace",
        "label": "enum IACLCommons.ScopeType",
        "numberOfBytes": "1"
      },
      "t_mapping(t_address,t_struct(FacetEntity)11945_storage)": {
        "encoding": "mapping",
        "key": "t_address",
        "label": "mapping(address => struct IACLCommons.FacetEntity)",
        "numberOfBytes": "32",
        "value": "t_struct(FacetEntity)11945_storage"
      },
      "t_mapping(t_address,t_struct(ProfileAccount)12018_storage)": {
        "encoding": "mapping",
        "key": "t_address",
        "label": "mapping(address => struct IACLCommons.ProfileAccount)",
        "numberOfBytes": "32",
        "value": "t_struct(ProfileAccount)12018_storage"
      },
      "t_mapping(t_bytes32,t_bytes32)": {
        "encoding": "mapping",
        "key": "t_bytes32",
        "label": "mapping(bytes32 => bytes32)",
        "numberOfBytes": "32",
        "value": "t_bytes32"
      },
      "t_mapping(t_bytes32,t_struct(BaseAgent)11756_storage)": {
        "encoding": "mapping",
        "key": "t_bytes32",
        "label": "mapping(bytes32 => struct IACLCommons.BaseAgent)",
        "numberOfBytes": "32",
        "value": "t_struct(BaseAgent)11756_storage"
      },
      "t_mapping(t_bytes32,t_struct(BaseScope)11770_storage)": {
        "encoding": "mapping",
        "key": "t_bytes32",
        "label": "mapping(bytes32 => struct IACLCommons.BaseScope)",
        "numberOfBytes": "32",
        "value": "t_struct(BaseScope)11770_storage"
      },
      "t_mapping(t_bytes32,t_struct(PolicyEntity)11793_storage)": {
        "encoding": "mapping",
        "key": "t_bytes32",
        "label": "mapping(bytes32 => struct IACLCommons.PolicyEntity)",
        "numberOfBytes": "32",
        "value": "t_struct(PolicyEntity)11793_storage"
      },
      "t_mapping(t_bytes32,t_struct(ProfileEntity)12059_storage)": {
        "encoding": "mapping",
        "key": "t_bytes32",
        "label": "mapping(bytes32 => struct IACLCommons.ProfileEntity)",
        "numberOfBytes": "32",
        "value": "t_struct(ProfileEntity)12059_storage"
      },
      "t_mapping(t_bytes32,t_uint256)": {
        "encoding": "mapping",
        "key": "t_bytes32",
        "label": "mapping(bytes32 => uint256)",
        "numberOfBytes": "32",
        "value": "t_uint256"
      },
      "t_mapping(t_bytes4,t_address)": {
        "encoding": "mapping",
        "key": "t_bytes4",
        "label": "mapping(bytes4 => address)",
        "numberOfBytes": "32",
        "value": "t_address"
      },
      "t_string_storage": {
        "encoding": "bytes",
        "label": "string",
        "numberOfBytes": "32"
      },
      "t_struct(AddressSet)79783_storage": {
        "encoding": "inplace",
        "label": "struct LEnumerableSet.AddressSet",
        "members": [
          {
            "astId": 79782,
            "contract": "src/contracts/acl/profile/scope/ProfileFunctionManager.sol:ProfileFunctionManager",
            "label": "_inner",
            "offset": 0,
            "slot": "0",
            "type": "t_struct(Set)79482_storage"
          }
        ],
        "numberOfBytes": "64"
      },
      "t_struct(BaseAgent)11756_storage": {
        "encoding": "inplace",
        "label": "struct IACLCommons.BaseAgent",
        "members": [
          {
            "astId": 11746,
            "contract": "src/contracts/acl/profile/scope/ProfileFunctionManager.sol:ProfileFunctionManager",
            "label": "adminId",
            "offset": 0,
            "slot": "0",
            "type": "t_bytes32"
          },
          {
            "astId": 11749,
            "contract": "src/contracts/acl/profile/scope/ProfileFunctionManager.sol:ProfileFunctionManager",
            "label": "atype",
            "offset": 0,
            "slot": "1",
            "type": "t_enum(AgentType)11716"
          },
          {
            "astId": 11752,
            "contract": "src/contracts/acl/profile/scope/ProfileFunctionManager.sol:ProfileFunctionManager",
            "label": "acstat",
            "offset": 1,
            "slot": "1",
            "type": "t_enum(ActivityStatus)11721"
          },
          {
            "astId": 11755,
            "contract": "src/contracts/acl/profile/scope/ProfileFunctionManager.sol:ProfileFunctionManager",
            "label": "alstat",
            "offset": 2,
            "slot": "1",
            "type": "t_enum(AlterabilityStatus)11726"
          }
        ],
        "numberOfBytes": "64"
      },
      "t_struct(BaseScope)11770_storage": {
        "encoding": "inplace",
        "label": "struct IACLCommons.BaseScope",
        "members": [
          {
            "astId": 11758,
            "contract": "src/contracts/acl/profile/scope/ProfileFunctionManager.sol:ProfileFunctionManager",
            "label": "adminId",
            "offset": 0,
            "slot": "0",
            "type": "t_bytes32"
          },
          {
            "astId": 11761,
            "contract": "src/contracts/acl/profile/scope/ProfileFunctionManager.sol:ProfileFunctionManager",
            "label": "stype",
            "offset": 0,
            "slot": "1",
            "type": "t_enum(ScopeType)11733"
          },
          {
            "astId": 11764,
            "contract": "src/contracts/acl/profile/scope/ProfileFunctionManager.sol:ProfileFunctionManager",
            "label": "acstat",
            "offset": 1,
            "slot": "1",
            "type": "t_enum(ActivityStatus)11721"
          },
          {
            "astId": 11767,
            "contract": "src/contracts/acl/profile/scope/ProfileFunctionManager.sol:ProfileFunctionManager",
            "label": "alstat",
            "offset": 2,
            "slot": "1",
            "type": "t_enum(AlterabilityStatus)11726"
          },
          {
            "astId": 11769,
            "contract": "src/contracts/acl/profile/scope/ProfileFunctionManager.sol:ProfileFunctionManager",
            "label": "referredByAgent",
            "offset": 3,
            "slot": "1",
            "type": "t_uint32"
          }
        ],
        "numberOfBytes": "64"
      },
      "t_struct(Bytes32Set)79676_storage": {
        "encoding": "inplace",
        "label": "struct LEnumerableSet.Bytes32Set",
        "members": [
          {
            "astId": 79675,
            "contract": "src/contracts/acl/profile/scope/ProfileFunctionManager.sol:ProfileFunctionManager",
            "label": "_inner",
            "offset": 0,
            "slot": "0",
            "type": "t_struct(Set)79482_storage"
          }
        ],
        "numberOfBytes": "64"
      },
      "t_struct(DataCollection)10239_storage": {
        "encoding": "inplace",
        "label": "struct ACLStorage.DataCollection",
        "members": [
          {
            "astId": 10202,
            "contract": "src/contracts/acl/profile/scope/ProfileFunctionManager.sol:ProfileFunctionManager",
            "label": "agents",
            "offset": 0,
            "slot": "0",
            "type": "t_mapping(t_bytes32,t_struct(BaseAgent)11756_storage)"
          },
          {
            "astId": 10207,
            "contract": "src/contracts/acl/profile/scope/ProfileFunctionManager.sol:ProfileFunctionManager",
            "label": "scopes",
            "offset": 0,
            "slot": "1",
            "type": "t_mapping(t_bytes32,t_struct(BaseScope)11770_storage)"
          },
          {
            "astId": 10212,
            "contract": "src/contracts/acl/profile/scope/ProfileFunctionManager.sol:ProfileFunctionManager",
            "label": "policies",
            "offset": 0,
            "slot": "2",
            "type": "t_mapping(t_bytes32,t_struct(PolicyEntity)11793_storage)"
          },
          {
            "astId": 10216,
            "contract": "src/contracts/acl/profile/scope/ProfileFunctionManager.sol:ProfileFunctionManager",
            "label": "rolePolicyMap",
            "offset": 0,
            "slot": "3",
            "type": "t_mapping(t_bytes32,t_bytes32)"
          },
          {
            "astId": 10221,
            "contract": "src/contracts/acl/profile/scope/ProfileFunctionManager.sol:ProfileFunctionManager",
            "label": "profiles",
            "offset": 0,
            "slot": "4",
            "type": "t_mapping(t_bytes32,t_struct(ProfileEntity)12059_storage)"
          },
          {
            "astId": 10226,
            "contract": "src/contracts/acl/profile/scope/ProfileFunctionManager.sol:ProfileFunctionManager",
            "label": "profileAccounts",
            "offset": 0,
            "slot": "5",
            "type": "t_mapping(t_address,t_struct(ProfileAccount)12018_storage)"
          },
          {
            "astId": 10230,
            "contract": "src/contracts/acl/profile/scope/ProfileFunctionManager.sol:ProfileFunctionManager",
            "label": "selectors",
            "offset": 0,
            "slot": "6",
            "type": "t_mapping(t_bytes4,t_address)"
          },
          {
            "astId": 10235,
            "contract": "src/contracts/acl/profile/scope/ProfileFunctionManager.sol:ProfileFunctionManager",
            "label": "facets",
            "offset": 0,
            "slot": "7",
            "type": "t_mapping(t_address,t_struct(FacetEntity)11945_storage)"
          },
          {
            "astId": 10238,
            "contract": "src/contracts/acl/profile/scope/ProfileFunctionManager.sol:ProfileFunctionManager",
            "label": "facetSet",
            "offset": 0,
            "slot": "8",
            "type": "t_struct(AddressSet)79783_storage"
          }
        ],
        "numberOfBytes": "320"
      },
      "t_struct(FacetEntity)11945_storage": {
        "encoding": "inplace",
        "label": "struct IACLCommons.FacetEntity",
        "members": [
          {
            "astId": 11944,
            "contract": "src/contracts/acl/profile/scope/ProfileFunctionManager.sol:ProfileFunctionManager",
            "label": "subjectId",
            "offset": 0,
            "slot": "0",
            "type": "t_address"
          }
        ],
        "numberOfBytes": "32"
      },
      "t_struct(PolicyEntity)11793_storage": {
        "encoding": "inplace",
        "label": "struct IACLCommons.PolicyEntity",
        "members": [
          {
            "astId": 11772,
            "contract": "src/contracts/acl/profile/scope/ProfileFunctionManager.sol:ProfileFunctionManager",
            "label": "adminId",
            "offset": 0,
            "slot": "0",
            "type": "t_bytes32"
          },
          {
            "astId": 11774,
            "contract": "src/contracts/acl/profile/scope/ProfileFunctionManager.sol:ProfileFunctionManager",
            "label": "scopeId",
            "offset": 0,
            "slot": "1",
            "type": "t_bytes32"
          },
          {
            "astId": 11776,
            "contract": "src/contracts/acl/profile/scope/ProfileFunctionManager.sol:ProfileFunctionManager",
            "label": "name",
            "offset": 0,
            "slot": "2",
            "type": "t_string_storage"
          },
          {
            "astId": 11778,
            "contract": "src/contracts/acl/profile/scope/ProfileFunctionManager.sol:ProfileFunctionManager",
            "label": "roleLimit",
            "offset": 0,
            "slot": "3",
            "type": "t_uint16"
          },
          {
            "astId": 11780,
            "contract": "src/contracts/acl/profile/scope/ProfileFunctionManager.sol:ProfileFunctionManager",
            "label": "policyCode",
            "offset": 2,
            "slot": "3",
            "type": "t_uint8"
          },
          {
            "astId": 11783,
            "contract": "src/contracts/acl/profile/scope/ProfileFunctionManager.sol:ProfileFunctionManager",
            "label": "ptype",
            "offset": 3,
            "slot": "3",
            "type": "t_enum(PolicyType)11744"
          },
          {
            "astId": 11786,
            "contract": "src/contracts/acl/profile/scope/ProfileFunctionManager.sol:ProfileFunctionManager",
            "label": "acstat",
            "offset": 4,
            "slot": "3",
            "type": "t_enum(ActivityStatus)11721"
          },
          {
            "astId": 11789,
            "contract": "src/contracts/acl/profile/scope/ProfileFunctionManager.sol:ProfileFunctionManager",
            "label": "alstat",
            "offset": 5,
            "slot": "3",
            "type": "t_enum(AlterabilityStatus)11726"
          },
          {
            "astId": 11792,
            "contract": "src/contracts/acl/profile/scope/ProfileFunctionManager.sol:ProfileFunctionManager",
            "label": "roles",
            "offset": 0,
            "slot": "4",
            "type": "t_struct(Bytes32Set)79676_storage"
          }
        ],
        "numberOfBytes": "192"
      },
      "t_struct(ProfileAccount)12018_storage": {
        "encoding": "inplace",
        "label": "struct IACLCommons.ProfileAccount",
        "members": [
          {
            "astId": 12017,
            "contract": "src/contracts/acl/profile/scope/ProfileFunctionManager.sol:ProfileFunctionManager",
            "label": "profiles",
            "offset": 0,
            "slot": "0",
            "type": "t_array(t_bytes32)dyn_storage"
          }
        ],
        "numberOfBytes": "32"
      },
      "t_struct(ProfileEntity)12059_storage": {
        "encoding": "inplace",
        "label": "struct IACLCommons.ProfileEntity",
        "members": [
          {
            "astId": 12023,
            "contract": "src/contracts/acl/profile/scope/ProfileFunctionManager.sol:ProfileFunctionManager",
            "label": "agents",
            "offset": 0,
            "slot": "0",
            "type": "t_mapping(t_bytes32,t_struct(BaseAgent)11756_storage)"
          },
          {
            "astId": 12028,
            "contract": "src/contracts/acl/profile/scope/ProfileFunctionManager.sol:ProfileFunctionManager",
            "label": "scopes",
            "offset": 0,
            "slot": "1",
            "type": "t_mapping(t_bytes32,t_struct(BaseScope)11770_storage)"
          },
          {
            "astId": 12033,
            "contract": "src/contracts/acl/profile/scope/ProfileFunctionManager.sol:ProfileFunctionManager",
            "label": "policies",
            "offset": 0,
            "slot": "2",
            "type": "t_mapping(t_bytes32,t_struct(PolicyEntity)11793_storage)"
          },
          {
            "astId": 12037,
            "contract": "src/contracts/acl/profile/scope/ProfileFunctionManager.sol:ProfileFunctionManager",
            "label": "rolePolicyMap",
            "offset": 0,
            "slot": "3",
            "type": "t_mapping(t_bytes32,t_bytes32)"
          },
          {
            "astId": 12040,
            "contract": "src/contracts/acl/profile/scope/ProfileFunctionManager.sol:ProfileFunctionManager",
            "label": "admins",
            "offset": 0,
            "slot": "4",
            "type": "t_struct(Bytes32Set)79676_storage"
          },
          {
            "astId": 12042,
            "contract": "src/contracts/acl/profile/scope/ProfileFunctionManager.sol:ProfileFunctionManager",
            "label": "adminId",
            "offset": 0,
            "slot": "6",
            "type": "t_bytes32"
          },
          {
            "astId": 12044,
            "contract": "src/contracts/acl/profile/scope/ProfileFunctionManager.sol:ProfileFunctionManager",
            "label": "name",
            "offset": 0,
            "slot": "7",
            "type": "t_string_storage"
          },
          {
            "astId": 12046,
            "contract": "src/contracts/acl/profile/scope/ProfileFunctionManager.sol:ProfileFunctionManager",
            "label": "owner",
            "offset": 0,
            "slot": "8",
            "type": "t_address"
          },
          {
            "astId": 12049,
            "contract": "src/contracts/acl/profile/scope/ProfileFunctionManager.sol:ProfileFunctionManager",
            "label": "acstat",
            "offset": 20,
            "slot": "8",
            "type": "t_enum(ActivityStatus)11721"
          },
          {
            "astId": 12052,
            "contract": "src/contracts/acl/profile/scope/ProfileFunctionManager.sol:ProfileFunctionManager",
            "label": "alstat",
            "offset": 21,
            "slot": "8",
            "type": "t_enum(AlterabilityStatus)11726"
          },
          {
            "astId": 12055,
            "contract": "src/contracts/acl/profile/scope/ProfileFunctionManager.sol:ProfileFunctionManager",
            "label": "registerLimits",
            "offset": 0,
            "slot": "9",
            "type": "t_struct(ProfileRegisterLimit)11993_storage"
          },
          {
            "astId": 12058,
            "contract": "src/contracts/acl/profile/scope/ProfileFunctionManager.sol:ProfileFunctionManager",
            "label": "limits",
            "offset": 0,
            "slot": "10",
            "type": "t_struct(ProfileLimit)12014_storage"
          }
        ],
        "numberOfBytes": "352"
      },
      "t_struct(ProfileLimit)12014_storage": {
        "encoding": "inplace",
        "label": "struct IACLCommons.ProfileLimit",
        "members": [
          {
            "astId": 11995,
            "contract": "src/contracts/acl/profile/scope/ProfileFunctionManager.sol:ProfileFunctionManager",
            "label": "profileCallLimit",
            "offset": 0,
            "slot": "0",
            "type": "t_uint32"
          },
          {
            "astId": 11997,
            "contract": "src/contracts/acl/profile/scope/ProfileFunctionManager.sol:ProfileFunctionManager",
            "label": "contextLimit",
            "offset": 4,
            "slot": "0",
            "type": "t_uint32"
          },
          {
            "astId": 11999,
            "contract": "src/contracts/acl/profile/scope/ProfileFunctionManager.sol:ProfileFunctionManager",
            "label": "memberLimit",
            "offset": 8,
            "slot": "0",
            "type": "t_uint24"
          },
          {
            "astId": 12001,
            "contract": "src/contracts/acl/profile/scope/ProfileFunctionManager.sol:ProfileFunctionManager",
            "label": "realmLimit",
            "offset": 11,
            "slot": "0",
            "type": "t_uint16"
          },
          {
            "astId": 12003,
            "contract": "src/contracts/acl/profile/scope/ProfileFunctionManager.sol:ProfileFunctionManager",
            "label": "domainLimit",
            "offset": 13,
            "slot": "0",
            "type": "t_uint16"
          },
          {
            "astId": 12005,
            "contract": "src/contracts/acl/profile/scope/ProfileFunctionManager.sol:ProfileFunctionManager",
            "label": "memberCallLimit",
            "offset": 15,
            "slot": "0",
            "type": "t_uint16"
          },
          {
            "astId": 12007,
            "contract": "src/contracts/acl/profile/scope/ProfileFunctionManager.sol:ProfileFunctionManager",
            "label": "typeRoleLimit",
            "offset": 17,
            "slot": "0",
            "type": "t_uint16"
          },
          {
            "astId": 12009,
            "contract": "src/contracts/acl/profile/scope/ProfileFunctionManager.sol:ProfileFunctionManager",
            "label": "typeLimit",
            "offset": 19,
            "slot": "0",
            "type": "t_uint16"
          },
          {
            "astId": 12011,
            "contract": "src/contracts/acl/profile/scope/ProfileFunctionManager.sol:ProfileFunctionManager",
            "label": "policyRoleLimit",
            "offset": 21,
            "slot": "0",
            "type": "t_uint16"
          },
          {
            "astId": 12013,
            "contract": "src/contracts/acl/profile/scope/ProfileFunctionManager.sol:ProfileFunctionManager",
            "label": "functionLimit",
            "offset": 23,
            "slot": "0",
            "type": "t_uint8"
          }
        ],
        "numberOfBytes": "32"
      },
      "t_struct(ProfileRegisterLimit)11993_storage": {
        "encoding": "inplace",
        "label": "struct IACLCommons.ProfileRegisterLimit",
        "members": [
          {
            "astId": 11978,
            "contract": "src/contracts/acl/profile/scope/ProfileFunctionManager.sol:ProfileFunctionManager",
            "label": "memberRegisterLimit",
            "offset": 0,
            "slot": "0",
            "type": "t_uint32"
          },
          {
            "astId": 11980,
            "contract": "src/contracts/acl/profile/scope/ProfileFunctionManager.sol:ProfileFunctionManager",
            "label": "roleRegisterLimit",
            "offset": 4,
            "slot": "0",
            "type": "t_uint32"
          },
          {
            "astId": 11982,
            "contract": "src/contracts/acl/profile/scope/ProfileFunctionManager.sol:ProfileFunctionManager",
            "label": "typeRegisterLimit",
            "offset": 8,
            "slot": "0",
            "type": "t_uint32"
          },
          {
            "astId": 11984,
            "contract": "src/contracts/acl/profile/scope/ProfileFunctionManager.sol:ProfileFunctionManager",
            "label": "functionRegisterLimit",
            "offset": 12,
            "slot": "0",
            "type": "t_uint32"
          },
          {
            "astId": 11986,
            "contract": "src/contracts/acl/profile/scope/ProfileFunctionManager.sol:ProfileFunctionManager",
            "label": "contextRegisterLimit",
            "offset": 16,
            "slot": "0",
            "type": "t_uint32"
          },
          {
            "astId": 11988,
            "contract": "src/contracts/acl/profile/scope/ProfileFunctionManager.sol:ProfileFunctionManager",
            "label": "realmRegisterLimit",
            "offset": 20,
            "slot": "0",
            "type": "t_uint16"
          },
          {
            "astId": 11990,
            "contract": "src/contracts/acl/profile/scope/ProfileFunctionManager.sol:ProfileFunctionManager",
            "label": "domainRegisterLimit",
            "offset": 22,
            "slot": "0",
            "type": "t_uint16"
          },
          {
            "astId": 11992,
            "contract": "src/contracts/acl/profile/scope/ProfileFunctionManager.sol:ProfileFunctionManager",
            "label": "policyRegisterLimit",
            "offset": 24,
            "slot": "0",
            "type": "t_uint16"
          }
        ],
        "numberOfBytes": "32"
      },
      "t_struct(Set)79482_storage": {
        "encoding": "inplace",
        "label": "struct LEnumerableSet.Set",
        "members": [
          {
            "astId": 79477,
            "contract": "src/contracts/acl/profile/scope/ProfileFunctionManager.sol:ProfileFunctionManager",
            "label": "_values",
            "offset": 0,
            "slot": "0",
            "type": "t_array(t_bytes32)dyn_storage"
          },
          {
            "astId": 79481,
            "contract": "src/contracts/acl/profile/scope/ProfileFunctionManager.sol:ProfileFunctionManager",
            "label": "_indexes",
            "offset": 0,
            "slot": "1",
            "type": "t_mapping(t_bytes32,t_uint256)"
          }
        ],
        "numberOfBytes": "64"
      },
      "t_uint16": {
        "encoding": "inplace",
        "label": "uint16",
        "numberOfBytes": "2"
      },
      "t_uint24": {
        "encoding": "inplace",
        "label": "uint24",
        "numberOfBytes": "3"
      },
      "t_uint256": {
        "encoding": "inplace",
        "label": "uint256",
        "numberOfBytes": "32"
      },
      "t_uint32": {
        "encoding": "inplace",
        "label": "uint32",
        "numberOfBytes": "4"
      },
      "t_uint8": {
        "encoding": "inplace",
        "label": "uint8",
        "numberOfBytes": "1"
      }
    }
  }
}