{
  "address": "0x032ad9d5ef9e56C545Dff5370279C628c919cdd8",
  "abi": [
    {
      "inputs": [],
      "stateMutability": "nonpayable",
      "type": "constructor"
    },
    {
      "inputs": [
        {
          "internalType": "enum IACL.AuthorizationStatus",
          "name": "",
          "type": "uint8"
        }
      ],
      "name": "ACLActionForbidden",
      "type": "error"
    },
    {
      "inputs": [],
      "name": "ProfileAdminAccessFunctionNotFound",
      "type": "error"
    },
    {
      "inputs": [],
      "name": "ProfileAdminAccessNotPermitted",
      "type": "error"
    },
    {
      "inputs": [],
      "name": "ProfileAdminAccessPolicyForbidden",
      "type": "error"
    },
    {
      "inputs": [],
      "name": "ProfileAdminAccessRoleActivityForbidden",
      "type": "error"
    },
    {
      "inputs": [],
      "name": "ProfileAdminAccessRoleNotFound",
      "type": "error"
    },
    {
      "inputs": [],
      "name": "ProfileAdminAccessTypeActivityForbidden",
      "type": "error"
    },
    {
      "inputs": [],
      "name": "ProfileAdminAccessTypeNotFound",
      "type": "error"
    },
    {
      "anonymous": false,
      "inputs": [
        {
          "indexed": true,
          "internalType": "address",
          "name": "sender",
          "type": "address"
        },
        {
          "indexed": true,
          "internalType": "address",
          "name": "proxy",
          "type": "address"
        },
        {
          "indexed": true,
          "internalType": "address",
          "name": "subject",
          "type": "address"
        },
        {
          "indexed": false,
          "internalType": "string",
          "name": "name",
          "type": "string"
        },
        {
          "indexed": false,
          "internalType": "string",
          "name": "version",
          "type": "string"
        },
        {
          "indexed": false,
          "internalType": "uint16",
          "name": "initCount",
          "type": "uint16"
        }
      ],
      "name": "Initialized",
      "type": "event"
    },
    {
      "anonymous": false,
      "inputs": [
        {
          "indexed": true,
          "internalType": "address",
          "name": "sender",
          "type": "address"
        },
        {
          "indexed": true,
          "internalType": "bytes32",
          "name": "profieId",
          "type": "bytes32"
        },
        {
          "indexed": true,
          "internalType": "bytes32",
          "name": "policyId",
          "type": "bytes32"
        },
        {
          "indexed": false,
          "internalType": "enum IACLCommons.ActivityStatus",
          "name": "acstat",
          "type": "uint8"
        }
      ],
      "name": "ProfilePolicyActivityUpdated",
      "type": "event"
    },
    {
      "anonymous": false,
      "inputs": [
        {
          "indexed": true,
          "internalType": "address",
          "name": "sender",
          "type": "address"
        },
        {
          "indexed": true,
          "internalType": "bytes32",
          "name": "profieId",
          "type": "bytes32"
        },
        {
          "indexed": true,
          "internalType": "bytes32",
          "name": "policyId",
          "type": "bytes32"
        },
        {
          "indexed": false,
          "internalType": "bytes32",
          "name": "adminId",
          "type": "bytes32"
        }
      ],
      "name": "ProfilePolicyAdminUpdated",
      "type": "event"
    },
    {
      "anonymous": false,
      "inputs": [
        {
          "indexed": true,
          "internalType": "address",
          "name": "sender",
          "type": "address"
        },
        {
          "indexed": true,
          "internalType": "bytes32",
          "name": "profieId",
          "type": "bytes32"
        },
        {
          "indexed": true,
          "internalType": "bytes32",
          "name": "policyId",
          "type": "bytes32"
        },
        {
          "indexed": false,
          "internalType": "enum IACLCommons.AlterabilityStatus",
          "name": "alstat",
          "type": "uint8"
        }
      ],
      "name": "ProfilePolicyAlterabilityUpdated",
      "type": "event"
    },
    {
      "anonymous": false,
      "inputs": [
        {
          "indexed": true,
          "internalType": "address",
          "name": "sender",
          "type": "address"
        },
        {
          "indexed": true,
          "internalType": "bytes32",
          "name": "profieId",
          "type": "bytes32"
        },
        {
          "indexed": true,
          "internalType": "bytes32",
          "name": "policyId",
          "type": "bytes32"
        },
        {
          "indexed": false,
          "internalType": "uint8",
          "name": "policyCode",
          "type": "uint8"
        },
        {
          "indexed": false,
          "internalType": "enum IACLCommons.PolicyType",
          "name": "ptype",
          "type": "uint8"
        }
      ],
      "name": "ProfilePolicyCodeUpdated",
      "type": "event"
    },
    {
      "anonymous": false,
      "inputs": [
        {
          "indexed": true,
          "internalType": "address",
          "name": "sender",
          "type": "address"
        },
        {
          "indexed": true,
          "internalType": "bytes32",
          "name": "profileId",
          "type": "bytes32"
        },
        {
          "indexed": true,
          "internalType": "bytes32",
          "name": "policyId",
          "type": "bytes32"
        },
        {
          "indexed": false,
          "internalType": "bytes32",
          "name": "scopeId",
          "type": "bytes32"
        },
        {
          "indexed": false,
          "internalType": "bytes32",
          "name": "adminId",
          "type": "bytes32"
        },
        {
          "indexed": false,
          "internalType": "uint8",
          "name": "policyCode",
          "type": "uint8"
        }
      ],
      "name": "ProfilePolicyRegistered",
      "type": "event"
    },
    {
      "anonymous": false,
      "inputs": [
        {
          "indexed": true,
          "internalType": "address",
          "name": "sender",
          "type": "address"
        },
        {
          "indexed": true,
          "internalType": "bytes32",
          "name": "profieId",
          "type": "bytes32"
        },
        {
          "indexed": true,
          "internalType": "bytes32",
          "name": "policyId",
          "type": "bytes32"
        }
      ],
      "name": "ProfilePolicyRemoved",
      "type": "event"
    },
    {
      "anonymous": false,
      "inputs": [
        {
          "indexed": true,
          "internalType": "address",
          "name": "sender",
          "type": "address"
        },
        {
          "indexed": true,
          "internalType": "bytes32",
          "name": "profieId",
          "type": "bytes32"
        },
        {
          "indexed": true,
          "internalType": "bytes32",
          "name": "policyId",
          "type": "bytes32"
        },
        {
          "indexed": false,
          "internalType": "bytes32",
          "name": "roleId",
          "type": "bytes32"
        }
      ],
      "name": "ProfilePolicyRoleAdded",
      "type": "event"
    },
    {
      "anonymous": false,
      "inputs": [
        {
          "indexed": true,
          "internalType": "address",
          "name": "sender",
          "type": "address"
        },
        {
          "indexed": true,
          "internalType": "bytes32",
          "name": "profieId",
          "type": "bytes32"
        },
        {
          "indexed": true,
          "internalType": "bytes32",
          "name": "policyId",
          "type": "bytes32"
        },
        {
          "indexed": false,
          "internalType": "uint16",
          "name": "roleLimit",
          "type": "uint16"
        }
      ],
      "name": "ProfilePolicyRoleLimitUpdated",
      "type": "event"
    },
    {
      "anonymous": false,
      "inputs": [
        {
          "indexed": true,
          "internalType": "address",
          "name": "sender",
          "type": "address"
        },
        {
          "indexed": true,
          "internalType": "bytes32",
          "name": "profieId",
          "type": "bytes32"
        },
        {
          "indexed": true,
          "internalType": "bytes32",
          "name": "policyId",
          "type": "bytes32"
        },
        {
          "indexed": false,
          "internalType": "bytes32",
          "name": "roleId",
          "type": "bytes32"
        }
      ],
      "name": "ProfilePolicyRoleRemoved",
      "type": "event"
    },
    {
      "anonymous": false,
      "inputs": [
        {
          "indexed": true,
          "internalType": "address",
          "name": "sender",
          "type": "address"
        },
        {
          "indexed": true,
          "internalType": "bytes32",
          "name": "profieId",
          "type": "bytes32"
        },
        {
          "indexed": true,
          "internalType": "bytes32",
          "name": "policyId",
          "type": "bytes32"
        },
        {
          "indexed": false,
          "internalType": "bytes32",
          "name": "scopeId",
          "type": "bytes32"
        }
      ],
      "name": "ProfilePolicyScopeUpdated",
      "type": "event"
    },
    {
      "anonymous": false,
      "inputs": [
        {
          "indexed": true,
          "internalType": "address",
          "name": "sender",
          "type": "address"
        },
        {
          "indexed": true,
          "internalType": "address",
          "name": "proxy",
          "type": "address"
        },
        {
          "indexed": false,
          "internalType": "address",
          "name": "acl",
          "type": "address"
        }
      ],
      "name": "ProxyAccessControlUpdated",
      "type": "event"
    },
    {
      "anonymous": false,
      "inputs": [
        {
          "indexed": true,
          "internalType": "address",
          "name": "sender",
          "type": "address"
        },
        {
          "indexed": true,
          "internalType": "address",
          "name": "proxy",
          "type": "address"
        },
        {
          "indexed": false,
          "internalType": "address",
          "name": "newAdmin",
          "type": "address"
        }
      ],
      "name": "ProxyLocalAdminUpdated",
      "type": "event"
    },
    {
      "anonymous": false,
      "inputs": [
        {
          "indexed": true,
          "internalType": "address",
          "name": "sender",
          "type": "address"
        },
        {
          "indexed": true,
          "internalType": "address",
          "name": "proxy",
          "type": "address"
        },
        {
          "indexed": false,
          "internalType": "enum IBaseProxy.ProxySafeModeStatus",
          "name": "sstat",
          "type": "uint8"
        }
      ],
      "name": "ProxySafeModeUpdated",
      "type": "event"
    },
    {
      "anonymous": false,
      "inputs": [
        {
          "indexed": true,
          "internalType": "address",
          "name": "sender",
          "type": "address"
        },
        {
          "indexed": true,
          "internalType": "address",
          "name": "proxy",
          "type": "address"
        },
        {
          "indexed": false,
          "internalType": "enum IBaseProxy.ProxyUpdatabilityStatus",
          "name": "ustat",
          "type": "uint8"
        }
      ],
      "name": "ProxyUpdatabilityUpdated",
      "type": "event"
    },
    {
      "anonymous": false,
      "inputs": [
        {
          "indexed": true,
          "internalType": "address",
          "name": "sender",
          "type": "address"
        },
        {
          "indexed": true,
          "internalType": "address",
          "name": "proxy",
          "type": "address"
        },
        {
          "indexed": true,
          "internalType": "address",
          "name": "newImplementation",
          "type": "address"
        }
      ],
      "name": "ProxyUpgraded",
      "type": "event"
    },
    {
      "stateMutability": "payable",
      "type": "fallback"
    },
    {
      "inputs": [],
      "name": "CTX_MESSAGE_TYPEHASH",
      "outputs": [
        {
          "internalType": "bytes32",
          "name": "",
          "type": "bytes32"
        }
      ],
      "stateMutability": "view",
      "type": "function"
    },
    {
      "inputs": [],
      "name": "MEMBER_SIGNATURE_MESSAGE_TYPEHASH",
      "outputs": [
        {
          "internalType": "bytes32",
          "name": "",
          "type": "bytes32"
        }
      ],
      "stateMutability": "view",
      "type": "function"
    },
    {
      "inputs": [],
      "name": "PREDICT_CTX_MESSAGE_TYPEHASH",
      "outputs": [
        {
          "internalType": "bytes32",
          "name": "",
          "type": "bytes32"
        }
      ],
      "stateMutability": "view",
      "type": "function"
    },
    {
      "inputs": [],
      "name": "PROFILE_CTX_MESSAGE_TYPEHASH",
      "outputs": [
        {
          "internalType": "bytes32",
          "name": "",
          "type": "bytes32"
        }
      ],
      "stateMutability": "view",
      "type": "function"
    },
    {
      "inputs": [],
      "name": "PROFILE_MEMBER_SIGNATURE_MESSAGE_TYPEHASH",
      "outputs": [
        {
          "internalType": "bytes32",
          "name": "",
          "type": "bytes32"
        }
      ],
      "stateMutability": "view",
      "type": "function"
    },
    {
      "inputs": [],
      "name": "PROFILE_PREDICT_CTX_MESSAGE_TYPEHASH",
      "outputs": [
        {
          "internalType": "bytes32",
          "name": "",
          "type": "bytes32"
        }
      ],
      "stateMutability": "view",
      "type": "function"
    },
    {
      "inputs": [],
      "name": "TYPE_HASH",
      "outputs": [
        {
          "internalType": "bytes32",
          "name": "",
          "type": "bytes32"
        }
      ],
      "stateMutability": "view",
      "type": "function"
    },
    {
      "inputs": [],
      "name": "accessControlManager",
      "outputs": [
        {
          "internalType": "address",
          "name": "",
          "type": "address"
        }
      ],
      "stateMutability": "view",
      "type": "function"
    },
    {
      "inputs": [],
      "name": "contractName",
      "outputs": [
        {
          "internalType": "string",
          "name": "",
          "type": "string"
        }
      ],
      "stateMutability": "view",
      "type": "function"
    },
    {
      "inputs": [],
      "name": "contractVersion",
      "outputs": [
        {
          "internalType": "string",
          "name": "",
          "type": "string"
        }
      ],
      "stateMutability": "view",
      "type": "function"
    },
    {
      "inputs": [],
      "name": "domainSeparator",
      "outputs": [
        {
          "internalType": "bytes32",
          "name": "",
          "type": "bytes32"
        }
      ],
      "stateMutability": "view",
      "type": "function"
    },
    {
      "inputs": [],
      "name": "getLibrary",
      "outputs": [
        {
          "internalType": "address",
          "name": "",
          "type": "address"
        }
      ],
      "stateMutability": "pure",
      "type": "function"
    },
    {
      "inputs": [],
      "name": "initVersion",
      "outputs": [
        {
          "internalType": "uint16",
          "name": "",
          "type": "uint16"
        }
      ],
      "stateMutability": "view",
      "type": "function"
    },
    {
      "inputs": [
        {
          "internalType": "string",
          "name": "contractName",
          "type": "string"
        },
        {
          "internalType": "string",
          "name": "contractVersion",
          "type": "string"
        },
        {
          "internalType": "address",
          "name": "accessControlManager",
          "type": "address"
        }
      ],
      "name": "initialize",
      "outputs": [],
      "stateMutability": "nonpayable",
      "type": "function"
    },
    {
      "inputs": [],
      "name": "localAdmin",
      "outputs": [
        {
          "internalType": "address",
          "name": "",
          "type": "address"
        }
      ],
      "stateMutability": "view",
      "type": "function"
    },
    {
      "inputs": [
        {
          "components": [
            {
              "internalType": "string",
              "name": "profileName",
              "type": "string"
            },
            {
              "internalType": "address",
              "name": "account",
              "type": "address"
            },
            {
              "internalType": "uint64",
              "name": "expiredAt",
              "type": "uint64"
            },
            {
              "internalType": "bytes",
              "name": "signature",
              "type": "bytes"
            }
          ],
          "internalType": "struct IACLCommons.ProfileMemberSignature",
          "name": "memberSign",
          "type": "tuple"
        },
        {
          "components": [
            {
              "internalType": "bytes32",
              "name": "policyId",
              "type": "bytes32"
            },
            {
              "internalType": "bytes32[]",
              "name": "roles",
              "type": "bytes32[]"
            }
          ],
          "internalType": "struct IProfilePolicyManagement.ProfilePolicyAddRolesRequest[]",
          "name": "requests",
          "type": "tuple[]"
        }
      ],
      "name": "profilePolicyAddRoles",
      "outputs": [
        {
          "internalType": "bool",
          "name": "",
          "type": "bool"
        }
      ],
      "stateMutability": "nonpayable",
      "type": "function"
    },
    {
      "inputs": [
        {
          "internalType": "bytes32",
          "name": "profileId",
          "type": "bytes32"
        },
        {
          "internalType": "bytes32",
          "name": "policyId",
          "type": "bytes32"
        },
        {
          "internalType": "bytes32",
          "name": "functionId",
          "type": "bytes32"
        }
      ],
      "name": "profilePolicyCheckAccess",
      "outputs": [
        {
          "internalType": "bool",
          "name": "",
          "type": "bool"
        }
      ],
      "stateMutability": "view",
      "type": "function"
    },
    {
      "inputs": [
        {
          "internalType": "bytes32",
          "name": "profileId",
          "type": "bytes32"
        },
        {
          "internalType": "bytes32",
          "name": "policyId",
          "type": "bytes32"
        },
        {
          "internalType": "address",
          "name": "account",
          "type": "address"
        }
      ],
      "name": "profilePolicyCheckAdmin",
      "outputs": [
        {
          "internalType": "bool",
          "name": "",
          "type": "bool"
        }
      ],
      "stateMutability": "view",
      "type": "function"
    },
    {
      "inputs": [
        {
          "internalType": "bytes32",
          "name": "profileId",
          "type": "bytes32"
        },
        {
          "internalType": "bytes32",
          "name": "policyId",
          "type": "bytes32"
        }
      ],
      "name": "profilePolicyCheckId",
      "outputs": [
        {
          "internalType": "bool",
          "name": "",
          "type": "bool"
        }
      ],
      "stateMutability": "view",
      "type": "function"
    },
    {
      "inputs": [
        {
          "internalType": "bytes32",
          "name": "profileId",
          "type": "bytes32"
        },
        {
          "internalType": "string",
          "name": "policyName",
          "type": "string"
        }
      ],
      "name": "profilePolicyCheckName",
      "outputs": [
        {
          "internalType": "bool",
          "name": "",
          "type": "bool"
        }
      ],
      "stateMutability": "view",
      "type": "function"
    },
    {
      "inputs": [
        {
          "internalType": "bytes32",
          "name": "profileId",
          "type": "bytes32"
        },
        {
          "internalType": "bytes32",
          "name": "roleId",
          "type": "bytes32"
        }
      ],
      "name": "profilePolicyCheckRole",
      "outputs": [
        {
          "internalType": "bool",
          "name": "",
          "type": "bool"
        }
      ],
      "stateMutability": "view",
      "type": "function"
    },
    {
      "inputs": [
        {
          "internalType": "bytes32",
          "name": "profileId",
          "type": "bytes32"
        },
        {
          "internalType": "bytes32",
          "name": "roleId",
          "type": "bytes32"
        },
        {
          "internalType": "bytes32",
          "name": "functionId",
          "type": "bytes32"
        }
      ],
      "name": "profilePolicyCheckRoleAccess",
      "outputs": [
        {
          "internalType": "bool",
          "name": "",
          "type": "bool"
        }
      ],
      "stateMutability": "view",
      "type": "function"
    },
    {
      "inputs": [
        {
          "internalType": "bytes32",
          "name": "profileId",
          "type": "bytes32"
        },
        {
          "internalType": "bytes32",
          "name": "policyId",
          "type": "bytes32"
        }
      ],
      "name": "profilePolicyGetInfo",
      "outputs": [
        {
          "components": [
            {
              "internalType": "bytes32",
              "name": "adminId",
              "type": "bytes32"
            },
            {
              "internalType": "bytes32",
              "name": "scopeId",
              "type": "bytes32"
            },
            {
              "internalType": "string",
              "name": "name",
              "type": "string"
            },
            {
              "internalType": "uint16",
              "name": "roleLimit",
              "type": "uint16"
            },
            {
              "internalType": "uint16",
              "name": "roleCount",
              "type": "uint16"
            },
            {
              "internalType": "uint8",
              "name": "policyCode",
              "type": "uint8"
            },
            {
              "internalType": "enum IACLCommons.AgentType",
              "name": "adminType",
              "type": "uint8"
            },
            {
              "internalType": "enum IACLCommons.ScopeType",
              "name": "scopeType",
              "type": "uint8"
            },
            {
              "internalType": "enum IACLCommons.PolicyType",
              "name": "ptype",
              "type": "uint8"
            },
            {
              "internalType": "enum IACLCommons.ActivityStatus",
              "name": "acstat",
              "type": "uint8"
            },
            {
              "internalType": "enum IACLCommons.AlterabilityStatus",
              "name": "alstat",
              "type": "uint8"
            }
          ],
          "internalType": "struct IProfilePolicyManagement.ProfilePolicyInfo",
          "name": "",
          "type": "tuple"
        }
      ],
      "stateMutability": "view",
      "type": "function"
    },
    {
      "inputs": [
        {
          "internalType": "bytes32",
          "name": "profileId",
          "type": "bytes32"
        },
        {
          "internalType": "bytes32",
          "name": "roleId",
          "type": "bytes32"
        }
      ],
      "name": "profilePolicyGetInfoByRole",
      "outputs": [
        {
          "components": [
            {
              "internalType": "bytes32",
              "name": "adminId",
              "type": "bytes32"
            },
            {
              "internalType": "bytes32",
              "name": "scopeId",
              "type": "bytes32"
            },
            {
              "internalType": "string",
              "name": "name",
              "type": "string"
            },
            {
              "internalType": "uint16",
              "name": "roleLimit",
              "type": "uint16"
            },
            {
              "internalType": "uint16",
              "name": "roleCount",
              "type": "uint16"
            },
            {
              "internalType": "uint8",
              "name": "policyCode",
              "type": "uint8"
            },
            {
              "internalType": "enum IACLCommons.AgentType",
              "name": "adminType",
              "type": "uint8"
            },
            {
              "internalType": "enum IACLCommons.ScopeType",
              "name": "scopeType",
              "type": "uint8"
            },
            {
              "internalType": "enum IACLCommons.PolicyType",
              "name": "ptype",
              "type": "uint8"
            },
            {
              "internalType": "enum IACLCommons.ActivityStatus",
              "name": "acstat",
              "type": "uint8"
            },
            {
              "internalType": "enum IACLCommons.AlterabilityStatus",
              "name": "alstat",
              "type": "uint8"
            }
          ],
          "internalType": "struct IProfilePolicyManagement.ProfilePolicyInfo",
          "name": "",
          "type": "tuple"
        }
      ],
      "stateMutability": "view",
      "type": "function"
    },
    {
      "inputs": [
        {
          "internalType": "bytes32",
          "name": "profileId",
          "type": "bytes32"
        },
        {
          "internalType": "bytes32",
          "name": "policyId",
          "type": "bytes32"
        }
      ],
      "name": "profilePolicyGetRoles",
      "outputs": [
        {
          "internalType": "bytes32[]",
          "name": "",
          "type": "bytes32[]"
        }
      ],
      "stateMutability": "view",
      "type": "function"
    },
    {
      "inputs": [
        {
          "internalType": "bytes32",
          "name": "profileId",
          "type": "bytes32"
        },
        {
          "internalType": "bytes32",
          "name": "policyId",
          "type": "bytes32"
        },
        {
          "internalType": "bytes32",
          "name": "roleId",
          "type": "bytes32"
        }
      ],
      "name": "profilePolicyHasRole",
      "outputs": [
        {
          "internalType": "bool",
          "name": "",
          "type": "bool"
        }
      ],
      "stateMutability": "view",
      "type": "function"
    },
    {
      "inputs": [
        {
          "components": [
            {
              "internalType": "string",
              "name": "profileName",
              "type": "string"
            },
            {
              "internalType": "address",
              "name": "account",
              "type": "address"
            },
            {
              "internalType": "uint64",
              "name": "expiredAt",
              "type": "uint64"
            },
            {
              "internalType": "bytes",
              "name": "signature",
              "type": "bytes"
            }
          ],
          "internalType": "struct IACLCommons.ProfileMemberSignature",
          "name": "memberSign",
          "type": "tuple"
        },
        {
          "components": [
            {
              "internalType": "bytes32",
              "name": "adminId",
              "type": "bytes32"
            },
            {
              "internalType": "bytes32",
              "name": "scopeId",
              "type": "bytes32"
            },
            {
              "internalType": "int24",
              "name": "roleLimit",
              "type": "int24"
            },
            {
              "internalType": "uint8",
              "name": "policyCode",
              "type": "uint8"
            },
            {
              "internalType": "string",
              "name": "name",
              "type": "string"
            }
          ],
          "internalType": "struct IProfilePolicyManagement.ProfilePolicyRegisterRequest[]",
          "name": "requests",
          "type": "tuple[]"
        }
      ],
      "name": "profilePolicyRegister",
      "outputs": [
        {
          "internalType": "bool",
          "name": "",
          "type": "bool"
        }
      ],
      "stateMutability": "nonpayable",
      "type": "function"
    },
    {
      "inputs": [
        {
          "components": [
            {
              "internalType": "string",
              "name": "profileName",
              "type": "string"
            },
            {
              "internalType": "address",
              "name": "account",
              "type": "address"
            },
            {
              "internalType": "uint64",
              "name": "expiredAt",
              "type": "uint64"
            },
            {
              "internalType": "bytes",
              "name": "signature",
              "type": "bytes"
            }
          ],
          "internalType": "struct IACLCommons.ProfileMemberSignature",
          "name": "memberSign",
          "type": "tuple"
        },
        {
          "internalType": "bytes32[]",
          "name": "policies",
          "type": "bytes32[]"
        }
      ],
      "name": "profilePolicyRemove",
      "outputs": [
        {
          "internalType": "bool",
          "name": "",
          "type": "bool"
        }
      ],
      "stateMutability": "nonpayable",
      "type": "function"
    },
    {
      "inputs": [
        {
          "components": [
            {
              "internalType": "string",
              "name": "profileName",
              "type": "string"
            },
            {
              "internalType": "address",
              "name": "account",
              "type": "address"
            },
            {
              "internalType": "uint64",
              "name": "expiredAt",
              "type": "uint64"
            },
            {
              "internalType": "bytes",
              "name": "signature",
              "type": "bytes"
            }
          ],
          "internalType": "struct IACLCommons.ProfileMemberSignature",
          "name": "memberSign",
          "type": "tuple"
        },
        {
          "components": [
            {
              "internalType": "bytes32",
              "name": "policyId",
              "type": "bytes32"
            },
            {
              "internalType": "bytes32[]",
              "name": "roles",
              "type": "bytes32[]"
            }
          ],
          "internalType": "struct IProfilePolicyManagement.ProfilePolicyRemoveRolesRequest[]",
          "name": "requests",
          "type": "tuple[]"
        }
      ],
      "name": "profilePolicyRemoveRoles",
      "outputs": [
        {
          "internalType": "bool",
          "name": "",
          "type": "bool"
        }
      ],
      "stateMutability": "nonpayable",
      "type": "function"
    },
    {
      "inputs": [
        {
          "components": [
            {
              "internalType": "string",
              "name": "profileName",
              "type": "string"
            },
            {
              "internalType": "address",
              "name": "account",
              "type": "address"
            },
            {
              "internalType": "uint64",
              "name": "expiredAt",
              "type": "uint64"
            },
            {
              "internalType": "bytes",
              "name": "signature",
              "type": "bytes"
            }
          ],
          "internalType": "struct IACLCommons.ProfileMemberSignature",
          "name": "memberSign",
          "type": "tuple"
        },
        {
          "components": [
            {
              "internalType": "bytes32",
              "name": "entityId",
              "type": "bytes32"
            },
            {
              "internalType": "enum IACLCommons.ActivityStatus",
              "name": "acstat",
              "type": "uint8"
            }
          ],
          "internalType": "struct IACLCommons.ProfileUpdateActivityRequest[]",
          "name": "requests",
          "type": "tuple[]"
        }
      ],
      "name": "profilePolicyUpdateActivityStatus",
      "outputs": [
        {
          "internalType": "bool",
          "name": "",
          "type": "bool"
        }
      ],
      "stateMutability": "nonpayable",
      "type": "function"
    },
    {
      "inputs": [
        {
          "components": [
            {
              "internalType": "string",
              "name": "profileName",
              "type": "string"
            },
            {
              "internalType": "address",
              "name": "account",
              "type": "address"
            },
            {
              "internalType": "uint64",
              "name": "expiredAt",
              "type": "uint64"
            },
            {
              "internalType": "bytes",
              "name": "signature",
              "type": "bytes"
            }
          ],
          "internalType": "struct IACLCommons.ProfileMemberSignature",
          "name": "memberSign",
          "type": "tuple"
        },
        {
          "components": [
            {
              "internalType": "bytes32",
              "name": "entityId",
              "type": "bytes32"
            },
            {
              "internalType": "bytes32",
              "name": "adminId",
              "type": "bytes32"
            }
          ],
          "internalType": "struct IACLCommons.ProfileUpdateAdminRequest[]",
          "name": "requests",
          "type": "tuple[]"
        }
      ],
      "name": "profilePolicyUpdateAdmin",
      "outputs": [
        {
          "internalType": "bool",
          "name": "",
          "type": "bool"
        }
      ],
      "stateMutability": "nonpayable",
      "type": "function"
    },
    {
      "inputs": [
        {
          "components": [
            {
              "internalType": "string",
              "name": "profileName",
              "type": "string"
            },
            {
              "internalType": "address",
              "name": "account",
              "type": "address"
            },
            {
              "internalType": "uint64",
              "name": "expiredAt",
              "type": "uint64"
            },
            {
              "internalType": "bytes",
              "name": "signature",
              "type": "bytes"
            }
          ],
          "internalType": "struct IACLCommons.ProfileMemberSignature",
          "name": "memberSign",
          "type": "tuple"
        },
        {
          "components": [
            {
              "internalType": "bytes32",
              "name": "entityId",
              "type": "bytes32"
            },
            {
              "internalType": "enum IACLCommons.AlterabilityStatus",
              "name": "alstat",
              "type": "uint8"
            }
          ],
          "internalType": "struct IACLCommons.ProfileUpdateAlterabilityRequest[]",
          "name": "requests",
          "type": "tuple[]"
        }
      ],
      "name": "profilePolicyUpdateAlterabilityStatus",
      "outputs": [
        {
          "internalType": "bool",
          "name": "",
          "type": "bool"
        }
      ],
      "stateMutability": "nonpayable",
      "type": "function"
    },
    {
      "inputs": [
        {
          "components": [
            {
              "internalType": "string",
              "name": "profileName",
              "type": "string"
            },
            {
              "internalType": "address",
              "name": "account",
              "type": "address"
            },
            {
              "internalType": "uint64",
              "name": "expiredAt",
              "type": "uint64"
            },
            {
              "internalType": "bytes",
              "name": "signature",
              "type": "bytes"
            }
          ],
          "internalType": "struct IACLCommons.ProfileMemberSignature",
          "name": "memberSign",
          "type": "tuple"
        },
        {
          "components": [
            {
              "internalType": "bytes32",
              "name": "policyId",
              "type": "bytes32"
            },
            {
              "internalType": "uint8",
              "name": "policyCode",
              "type": "uint8"
            }
          ],
          "internalType": "struct IProfilePolicyManagement.ProfilePolicyUpdateCodeRequest[]",
          "name": "requests",
          "type": "tuple[]"
        }
      ],
      "name": "profilePolicyUpdateCodes",
      "outputs": [
        {
          "internalType": "bool",
          "name": "",
          "type": "bool"
        }
      ],
      "stateMutability": "nonpayable",
      "type": "function"
    },
    {
      "inputs": [
        {
          "components": [
            {
              "internalType": "string",
              "name": "profileName",
              "type": "string"
            },
            {
              "internalType": "address",
              "name": "account",
              "type": "address"
            },
            {
              "internalType": "uint64",
              "name": "expiredAt",
              "type": "uint64"
            },
            {
              "internalType": "bytes",
              "name": "signature",
              "type": "bytes"
            }
          ],
          "internalType": "struct IACLCommons.ProfileMemberSignature",
          "name": "memberSign",
          "type": "tuple"
        },
        {
          "components": [
            {
              "internalType": "bytes32",
              "name": "policyId",
              "type": "bytes32"
            },
            {
              "internalType": "uint16",
              "name": "roleLimit",
              "type": "uint16"
            }
          ],
          "internalType": "struct IProfilePolicyManagement.ProfilePolicyUpdateRoleLimitRequest[]",
          "name": "requests",
          "type": "tuple[]"
        }
      ],
      "name": "profilePolicyUpdateRoleLimit",
      "outputs": [
        {
          "internalType": "bool",
          "name": "",
          "type": "bool"
        }
      ],
      "stateMutability": "nonpayable",
      "type": "function"
    },
    {
      "inputs": [
        {
          "components": [
            {
              "internalType": "string",
              "name": "profileName",
              "type": "string"
            },
            {
              "internalType": "address",
              "name": "account",
              "type": "address"
            },
            {
              "internalType": "uint64",
              "name": "expiredAt",
              "type": "uint64"
            },
            {
              "internalType": "bytes",
              "name": "signature",
              "type": "bytes"
            }
          ],
          "internalType": "struct IACLCommons.ProfileMemberSignature",
          "name": "memberSign",
          "type": "tuple"
        },
        {
          "components": [
            {
              "internalType": "bytes32",
              "name": "entityId",
              "type": "bytes32"
            },
            {
              "internalType": "bytes32",
              "name": "scopeId",
              "type": "bytes32"
            }
          ],
          "internalType": "struct IACLCommons.ProfileUpdateScopeRequest[]",
          "name": "requests",
          "type": "tuple[]"
        }
      ],
      "name": "profilePolicyUpdateScope",
      "outputs": [
        {
          "internalType": "bool",
          "name": "",
          "type": "bool"
        }
      ],
      "stateMutability": "nonpayable",
      "type": "function"
    },
    {
      "inputs": [],
      "name": "proxiableUUID",
      "outputs": [
        {
          "internalType": "bytes32",
          "name": "",
          "type": "bytes32"
        }
      ],
      "stateMutability": "view",
      "type": "function"
    },
    {
      "inputs": [],
      "name": "safeModeStatus",
      "outputs": [
        {
          "internalType": "enum IBaseProxy.ProxySafeModeStatus",
          "name": "",
          "type": "uint8"
        }
      ],
      "stateMutability": "view",
      "type": "function"
    },
    {
      "inputs": [
        {
          "internalType": "address",
          "name": "acl",
          "type": "address"
        }
      ],
      "name": "setAccessControlManager",
      "outputs": [
        {
          "internalType": "bool",
          "name": "",
          "type": "bool"
        }
      ],
      "stateMutability": "nonpayable",
      "type": "function"
    },
    {
      "inputs": [
        {
          "internalType": "address",
          "name": "newLocalAdmin",
          "type": "address"
        }
      ],
      "name": "setLocalAdmin",
      "outputs": [
        {
          "internalType": "bool",
          "name": "",
          "type": "bool"
        }
      ],
      "stateMutability": "nonpayable",
      "type": "function"
    },
    {
      "inputs": [
        {
          "internalType": "enum IBaseProxy.ProxySafeModeStatus",
          "name": "sstat",
          "type": "uint8"
        }
      ],
      "name": "setSafeModeStatus",
      "outputs": [
        {
          "internalType": "bool",
          "name": "",
          "type": "bool"
        }
      ],
      "stateMutability": "nonpayable",
      "type": "function"
    },
    {
      "inputs": [
        {
          "internalType": "enum IBaseProxy.ProxyUpdatabilityStatus",
          "name": "ustat",
          "type": "uint8"
        }
      ],
      "name": "setUpdatabilityStatus",
      "outputs": [
        {
          "internalType": "bool",
          "name": "",
          "type": "bool"
        }
      ],
      "stateMutability": "nonpayable",
      "type": "function"
    },
    {
      "inputs": [],
      "name": "subjectAddress",
      "outputs": [
        {
          "internalType": "address",
          "name": "",
          "type": "address"
        }
      ],
      "stateMutability": "view",
      "type": "function"
    },
    {
      "inputs": [
        {
          "internalType": "bytes4",
          "name": "interfaceId",
          "type": "bytes4"
        }
      ],
      "name": "supportsInterface",
      "outputs": [
        {
          "internalType": "bool",
          "name": "",
          "type": "bool"
        }
      ],
      "stateMutability": "view",
      "type": "function"
    },
    {
      "inputs": [],
      "name": "updatabilityStatus",
      "outputs": [
        {
          "internalType": "enum IBaseProxy.ProxyUpdatabilityStatus",
          "name": "",
          "type": "uint8"
        }
      ],
      "stateMutability": "view",
      "type": "function"
    },
    {
      "inputs": [
        {
          "internalType": "address",
          "name": "newImplementation",
          "type": "address"
        },
        {
          "internalType": "bytes",
          "name": "data",
          "type": "bytes"
        },
        {
          "internalType": "bool",
          "name": "forceCall",
          "type": "bool"
        }
      ],
      "name": "upgradeTo",
      "outputs": [
        {
          "internalType": "bytes",
          "name": "",
          "type": "bytes"
        }
      ],
      "stateMutability": "nonpayable",
      "type": "function"
    },
    {
      "inputs": [
        {
          "internalType": "address",
          "name": "recepient",
          "type": "address"
        }
      ],
      "name": "withdrawBalance",
      "outputs": [
        {
          "internalType": "uint256",
          "name": "",
          "type": "uint256"
        }
      ],
      "stateMutability": "nonpayable",
      "type": "function"
    },
    {
      "stateMutability": "payable",
      "type": "receive"
    }
  ],
  "transactionHash": "0xf9b6c5097d2a33b99aabcec50c79e91531aafdb2fc8df6d0c53cb8cd6442684a",
  "args": [],
  "numDeployments": 1,
  "solcInputHash": "bf3d37f12163392c6a812b5af749abec",
  "bytecode": "0x60a0604052306080523480156200001557600080fd5b506200004360017f360894a13ba1a3210667c828492db98dca3e2076cc3735a920a3ca505d382bbd620000fd565b7f360894a13ba1a3210667c828492db98dca3e2076cc3735a920a3ca505d382bbc1462000074576200007462000125565b620000a160017fb53127684a568b3173ae13b9f8a6016e243e63b6e8ee1178d6a717850b5d6104620000fd565b600080516020620056be83398151915214620000c157620000c162000125565b600080516020620056be83398151915280546001600160a01b0319163317905560028054600160a01b61ffff60a01b199091161790556200013b565b818103818111156200011f57634e487b7160e01b600052601160045260246000fd5b92915050565b634e487b7160e01b600052600160045260246000fd5b608051615513620001ab60003960008181610981015281816109ca01528181610e0801528181610e480152818161145201528181611689015281816116c901528181611f3e01528181611f7e015281816123db0152818161241b0152818161258f01526125cf01526155136000f3fe6080604052600436106102695760003560e01c806364da32bf11610143578063ca9d5ac0116100bb578063f0b15def11610077578063f0b15def1461088e578063f698da25146108c2578063f708ceb0146108d7578063f94a0adb146108f7578063fcc401781461090c578063fcdc1e341461092c57005b8063ca9d5ac0146107b0578063cb6f5bb5146107ee578063d13cf8171461080e578063d9dc1f191461082e578063e1c7d9cc1461084e578063ef2f7dc61461086e57005b80638a18ddda1161010a5780638a18ddda146106ea5780639b97b5341461070a578063a0a8e4601461073e578063a304e35314610753578063b33b904814610772578063b4a0bdf31461079257005b806364da32bf146106415780637147855d14610661578063756af45f1461068e57806375d0c0dc146106ae5780637678922e146106c357005b806338d38c97116101e157806352d1902d1161019d57806352d1902d1461055e578063560ae26b1461057357806358dbc45d146105935780635912510a146105c05780635977a65a146105ed57806364d4c8191461060d57005b806338d38c971461045c5780633946a60614610484578063431f4291146104c257806343a4194d146104e25780634888f482146105025780634bf0414d1461052a57005b806318a255681161023057806318a25568146103345780631b02a987146103545780631b452f4b14610374578063301c1280146103b657806334109de2146103ea57806337f74da91461041e57005b806301ffc9a714610272578063077f224a146102a75780630d7deb09146102c75780630e32cb86146102e75780631225ca991461030757005b3661027057005b005b34801561027e57600080fd5b5061029261028d366004614501565b61094c565b60405190151581526020015b60405180910390f35b3480156102b357600080fd5b506102706102c2366004614583565b610977565b3480156102d357600080fd5b506102926102e236600461465f565b610bad565b3480156102f357600080fd5b506102926103023660046146c7565b610dfc565b34801561031357600080fd5b506103276103223660046146e2565b61110a565b60405161029e91906147a0565b34801561034057600080fd5b5061029261034f3660046148b8565b61111c565b34801561036057600080fd5b5061029261036f366004614913565b61127e565b34801561038057600080fd5b506103a87f7bfb2abd6084c8ce20d7ff92c1620e7e7267603f0eac446b9176959d243306bc81565b60405190815260200161029e565b3480156103c257600080fd5b506103a87f541cf898e7c3085cbc6b7402ba06e7237285bc4bd5baa510e708e35537a71ffd81565b3480156103f657600080fd5b506103a87f7aabe2571874f2a330ea11c8972d9cc3792d973efc6b36e3e29005861a34418881565b34801561042a57600080fd5b50610292610439366004614913565b600092835260486020908152604080852092855260039092019052909120541490565b34801561046857600080fd5b506104716112e2565b60405161ffff909116815260200161029e565b34801561049057600080fd5b5061029261049f3660046146e2565b600091825260486020908152604080842092845260029092019052902054151590565b3480156104ce57600080fd5b506102926104dd366004614913565b6112f6565b3480156104ee57600080fd5b506102926104fd36600461465f565b61133f565b34801561050e57600080fd5b50600254600160a81b900460ff165b60405161029e919061494f565b34801561053657600080fd5b506103a87f9027b951cbdf8eff67da583391d218a57a89ec1ebfcb1c66da188e8531804d5581565b34801561056a57600080fd5b506103a8611445565b34801561057f57600080fd5b5061029261058e36600461465f565b6114a2565b34801561059f57600080fd5b506105a8611546565b6040516001600160a01b03909116815260200161029e565b3480156105cc57600080fd5b506105e06105db3660046146e2565b611550565b60405161029e9190614962565b3480156105f957600080fd5b506102926106083660046149a6565b6115b1565b34801561061957600080fd5b506103a87f8b73c3c69bb8fe3d512ecc4cf759cc79239f7b179b0ffacaa9a75d522b39400f81565b34801561064d57600080fd5b5061032761065c3660046146e2565b61164d565b34801561066d57600080fd5b5061068161067c366004614a7f565b61167d565b60405161029e9190614b23565b34801561069a57600080fd5b506103a86106a93660046146c7565b6117d4565b3480156106ba57600080fd5b50610681611899565b3480156106cf57600080fd5b50738932561a695C53836269a551296Dca33Fb1fC41b6105a8565b3480156106f657600080fd5b506102926107053660046148b8565b61192b565b34801561071657600080fd5b506103a87fdee69d384475c3656c17c592e94a2bbfd2a1998cce0c85f535569415a15863b881565b34801561074a57600080fd5b50610681611ad7565b34801561075f57600080fd5b50600254600160a01b900460ff1661051d565b34801561077e57600080fd5b5061029261078d36600461465f565b611ae6565b34801561079e57600080fd5b506002546001600160a01b03166105a8565b3480156107bc57600080fd5b506102926107cb3660046146e2565b600091825260486020908152604080842092845260039092019052902054151590565b3480156107fa57600080fd5b506102926108093660046148b8565b611d8a565b34801561081a57600080fd5b50610292610829366004614b36565b611ef9565b34801561083a57600080fd5b506102926108493660046146c7565b611f32565b34801561085a57600080fd5b506102926108693660046148b8565b6120e8565b34801561087a57600080fd5b506102926108893660046148b8565b612232565b34801561089a57600080fd5b506103a87ffc434588684348dd50856b075c47bed14245c1030aa04c32955af5549981462781565b3480156108ce57600080fd5b506103a86123c5565b3480156108e357600080fd5b506102926108f2366004614b81565b6123cf565b34801561090357600080fd5b506105a8612579565b34801561091857600080fd5b50610292610927366004614b81565b612583565b34801561093857600080fd5b506102926109473660046148b8565b61270e565b60006001600160e01b03198216631dcf222360e11b14806109715750610971826128c1565b92915050565b6001600160a01b037f00000000000000000000000000000000000000000000000000000000000000001630036109c85760405162461bcd60e51b81526004016109bf90614b9e565b60405180910390fd5b7f00000000000000000000000000000000000000000000000000000000000000006001600160a01b03166109fa612911565b6001600160a01b031614610a205760405162461bcd60e51b81526004016109bf90614bc4565b33610a29612932565b6001600160a01b031614610a6f5760405162461bcd60e51b815260206004820152600d60248201526c1058d8d95cdcc811195b9a5959609a1b60448201526064016109bf565b604e5462010000900460ff1615808015610a915750604e54600161ffff909116105b80610aac5750303b158015610aac5750604e5461ffff166001145b610af85760405162461bcd60e51b815260206004820152601c60248201527f436f6e747261637420416c726561647920496e697469616c697a65640000000060448201526064016109bf565b604e805461ffff191660011790558015610b1e57604e805462ff00001916620100001790555b610b2b868686868661295a565b610b33612911565b6001600160a01b031630336001600160a01b03167f247ab7b17ee489fa140c6666edc3822eefed2727610cd6e37192462b87244c6089898989610b79604e5461ffff1690565b604051610b8a959493929190614c13565b60405180910390a48015610ba557604e805462ff0000191690555b505050505050565b60008080808080610bc589630d7deb0960e01b61296e565b9450945094509450945060005b87811015610dea5760008660020160008b8b85818110610bf457610bf4614c51565b90506020020135815260200190815260200160002090506000801b816000015403610c315760405162461bcd60e51b81526004016109bf90614c67565b6000610c438888846000015488612be5565b90506000816007811115610c5957610c59614754565b14610c6757610c6781612c71565b610c7382600401612e08565b15610cb15760405162461bcd60e51b815260206004820152600e60248201526d496c6c6567616c2052656d6f766560901b60448201526064016109bf565b600182810154600090815289820160205260409020908101546301000000900463ffffffff16610d165760405162461bcd60e51b815260206004820152601060248201526f125b1b195859db08149959995c9c995960821b60448201526064016109bf565b6001818101805460001963ffffffff6301000000808404821692909201160266ffffffff000000199091161790556000808555908401819055610d5d906002850190614436565b60038301805465ffffffffffff191690556004830160008181610d808282614470565b505050508b8b85818110610d9657610d96614c51565b9050602002013587866001600160a01b03167feeccda8a3226aec0431c9a1e3064609915c9ce778c500844281e79aaf5a179c560405160405180910390a45050508080610de290614ca0565b915050610bd2565b506001955050505050505b9392505050565b60006001600160a01b037f0000000000000000000000000000000000000000000000000000000000000000163003610e465760405162461bcd60e51b81526004016109bf90614b9e565b7f00000000000000000000000000000000000000000000000000000000000000006001600160a01b0316610e78612911565b6001600160a01b031614610e9e5760405162461bcd60e51b81526004016109bf90614bc4565b6000600254600160a01b900460ff166001811115610ebe57610ebe614754565b14610edb5760405162461bcd60e51b81526004016109bf90614cb9565b6001600254600160a81b900460ff166001811115610efb57610efb614754565b14610f185760405162461bcd60e51b81526004016109bf90614cdb565b6001600160a01b03821615801590610f3957506001600160a01b0382163b15155b610f555760405162461bcd60e51b81526004016109bf90614d06565b6002546001600160a01b031615610fb4576000610f7863071965c360e11b612e12565b90506000816013811115610f8e57610f8e614754565b14610fae5780604051637f0911d160e01b81526004016109bf9190614d30565b50611003565b33610fbd612932565b6001600160a01b0316146110035760405162461bcd60e51b815260206004820152600d60248201526c1058d8d95cdcc811195b9a5959609a1b60448201526064016109bf565b6040516301ffc9a760e01b81526331501c3960e01b60048201526001600160a01b038316906301ffc9a790602401602060405180830381865afa15801561104e573d6000803e3d6000fd5b505050506040513d601f19601f820116820180604052508101906110729190614d44565b6110ac5760405162461bcd60e51b815260206004820152600b60248201526a125b1b1959d85b081050d360aa1b60448201526064016109bf565b600280546001600160a01b0384166001600160a01b031990911681179091556040805191825251309133917f410bf468eebeeed60acaedb904afb2db7c0bb0131f7d14c3714d81b14fe8ed3c9181900360200190a35060015b919050565b61111261448e565b610df58383612e9d565b60008080808080611134896303144aad60e31b61296e565b9450945094509450945060005b87811015610dea57738932561a695C53836269a551296Dca33Fb1fC41b636a7ca253878b8b8581811061117657611176614c51565b604080516001600160e01b031960e088901b168152600481019590955202919091018035602484015260200135604483015250606481018890526084810187905260a4810186905260c40160006040518083038186803b1580156111d957600080fd5b505af41580156111ed573d6000803e3d6000fd5b5050505088888281811061120357611203614c51565b9050604002016000013584836001600160a01b03167faaeede4764ffc8bc358375dc8e18893a313fe87438bdb51cda40092f2c33a78e8c8c8681811061124b5761124b614c51565b9050604002016020013560405161126491815260200190565b60405180910390a48061127681614ca0565b915050611141565b6000838152604860205260408120816008820154600160a01b900460ff1660038111156112ad576112ad614754565b036112bc576000915050610df5565b60008481526003820160205260409020546112d990829085612f2b565b95945050505050565b60006112f1604e5461ffff1690565b905090565b6000838152604860205260408120816008820154600160a01b900460ff16600381111561132557611325614754565b03611334576000915050610df5565b6112d9818585612f2b565b600080808080611356886343a4194d60e01b61296e565b604051631664c8c360e21b81526004810186905261ffff8c1660248201526044810183905294985091965094509250738932561a695C53836269a551296Dca33Fb1fC41b91635993230c915060640160006040518083038186803b1580156113bd57600080fd5b505af41580156113d1573d6000803e3d6000fd5b505050506000806113e28684612fce565b9150915060005b88811015611434576114228a8a8381811061140657611406614c51565b90506020028101906114189190614d61565b8885858a8961308e565b8061142c81614ca0565b9150506113e9565b5060019a9950505050505050505050565b6000306001600160a01b037f0000000000000000000000000000000000000000000000000000000000000000161461148f5760405162461bcd60e51b81526004016109bf90614b9e565b506000805160206154be83398151915290565b600080808080806114ba8963560ae26b60e01b61296e565b9450945094509450945060005b87811015610dea57600061150187878c8c868181106114e8576114e8614c51565b90506020028101906114fa9190614d81565b3587613181565b905061153387828c8c8681811061151a5761151a614c51565b905060200281019061152c9190614d81565b8887613231565b508061153e81614ca0565b9150506114c7565b60006112f1612911565b60008281526048602090815260408083208484526002019091529020546060906115895750604080516000815260208101909152610971565b60008381526048602090815260408083208584526002019091529020610df590600401613380565b604051632085ba5360e21b81526044600482018190526024820185905281018390526001600160a01b0382166064820152600090738932561a695C53836269a551296Dca33Fb1fC41b90638216e94c90608401602060405180830381865af4158015611621573d6000803e3d6000fd5b505050506040513d601f19601f820116820180604052508101906116459190614d44565b949350505050565b61165561448e565b6000838152604860209081526040808320858452600301909152902054610df5908490612e9d565b60606001600160a01b037f00000000000000000000000000000000000000000000000000000000000000001630036116c75760405162461bcd60e51b81526004016109bf90614b9e565b7f00000000000000000000000000000000000000000000000000000000000000006001600160a01b03166116f9612911565b6001600160a01b03161461171f5760405162461bcd60e51b81526004016109bf90614bc4565b6000600254600160a01b900460ff16600181111561173f5761173f614754565b1461175c5760405162461bcd60e51b81526004016109bf90614cb9565b6001600254600160a81b900460ff16600181111561177c5761177c614754565b146117995760405162461bcd60e51b81526004016109bf90614cdb565b6001600160a01b0384163b6117c05760405162461bcd60e51b81526004016109bf90614d06565b6117c98461338b565b611645848484613429565b600080600254600160a01b900460ff1660018111156117f5576117f5614754565b146118125760405162461bcd60e51b81526004016109bf90614cb9565b600061182463756af45f60e01b612e12565b9050600081601381111561183a5761183a614754565b1461185a5780604051637f0911d160e01b81526004016109bf9190614d30565b60405147906001600160a01b038516904780156108fc02916000818181858888f19350505050158015611891573d6000803e3d6000fd5b509392505050565b6060600080546118a890614d97565b80601f01602080910402602001604051908101604052809291908181526020018280546118d490614d97565b80156119215780601f106118f657610100808354040283529160200191611921565b820191906000526020600020905b81548152906001019060200180831161190457829003601f168201915b5050505050905090565b600080808080806119438963450c6eed60e11b61296e565b9450945094509450945060005b87811015610dea57600061198187878c8c8681811061197157611971614c51565b9050604002016000013587613181565b905061198f81600401612e08565b8a8a848181106119a1576119a1614c51565b90506040020160200160208101906119b99190614ddb565b61ffff16116119fa5760405162461bcd60e51b815260206004820152600d60248201526c125b1b1959d85b08131a5b5a5d609a1b60448201526064016109bf565b898983818110611a0c57611a0c614c51565b9050604002016020016020810190611a249190614ddb565b60038201805461ffff191661ffff92909216919091179055898983818110611a4e57611a4e614c51565b9050604002016000013585846001600160a01b03167ff123badf938d2c2dab8adf5cbd19a5623d2a38699ba410b54b463350e9bbca488d8d87818110611a9657611a96614c51565b9050604002016020016020810190611aae9190614ddb565b60405161ffff909116815260200160405180910390a45080611acf81614ca0565b915050611950565b6060600180546118a890614d97565b60008080808080611afe89631667720960e31b61296e565b9450945094509450945060005b87811015610dea576000611b2c87878c8c868181106114e8576114e8614c51565b905060005b8a8a84818110611b4357611b43614c51565b9050602002810190611b559190614d81565b611b63906020810190614df8565b905081108015611b735750602081105b15611d7557611bd68b8b85818110611b8d57611b8d614c51565b9050602002810190611b9f9190614d81565b611bad906020810190614df8565b83818110611bbd57611bbd614c51565b90506020020135836004016135e190919063ffffffff16565b611bf25760405162461bcd60e51b81526004016109bf90614c67565b8760030160008c8c86818110611c0a57611c0a614c51565b9050602002810190611c1c9190614d81565b611c2a906020810190614df8565b84818110611c3a57611c3a614c51565b90506020020135815260200190815260200160002060009055611cb18b8b85818110611c6857611c68614c51565b9050602002810190611c7a9190614d81565b611c88906020810190614df8565b83818110611c9857611c98614c51565b90506020020135836004016135f990919063ffffffff16565b508a8a84818110611cc457611cc4614c51565b9050602002810190611cd69190614d81565b35866001600160a01b0386167ffe39d07a57cc1878f4f6d12e99082567d73763f843df94e1d58ca5a6663e039a8e8e88818110611d1557611d15614c51565b9050602002810190611d279190614d81565b611d35906020810190614df8565b86818110611d4557611d45614c51565b90506020020135604051611d5b91815260200190565b60405180910390a480611d6d81614ca0565b915050611b31565b50508080611d8290614ca0565b915050611b0b565b60008080808080611da28963cb6f5bb560e01b61296e565b9450945094509450945060005b87811015610dea576000611dd087878c8c8681811061197157611971614c51565b6001808201546000818152828b0160205260409020918201549154929350611e1a928a9260ff16918e8e88818110611e0a57611e0a614c51565b905060400201602001358a613605565b808255611e2b9060048301906135e1565b15611e6b5760405162461bcd60e51b815260206004820152601060248201526f125b1b1959d85b0810591b5a5b88125960821b60448201526064016109bf565b898983818110611e7d57611e7d614c51565b9050604002016000013585846001600160a01b03167f9b83771cb2d87d69d1306697183ea15a9fb6207f234f6214debf8d0d36b88fce8d8d87818110611ec557611ec5614c51565b90506040020160200135604051611ede91815260200190565b60405180910390a45080611ef181614ca0565b915050611daf565b6000838152604860205260408120819060020181611f178686613695565b81526020810191909152604001600020541415949350505050565b60006001600160a01b037f0000000000000000000000000000000000000000000000000000000000000000163003611f7c5760405162461bcd60e51b81526004016109bf90614b9e565b7f00000000000000000000000000000000000000000000000000000000000000006001600160a01b0316611fae612911565b6001600160a01b031614611fd45760405162461bcd60e51b81526004016109bf90614bc4565b6000600254600160a01b900460ff166001811115611ff457611ff4614754565b146120115760405162461bcd60e51b81526004016109bf90614cb9565b6001600254600160a81b900460ff16600181111561203157612031614754565b1461204e5760405162461bcd60e51b81526004016109bf90614cdb565b600061206063d9dc1f1960e01b612e12565b9050600081601381111561207657612076614754565b146120965780604051637f0911d160e01b81526004016109bf9190614d30565b6001600160a01b0383166120d65760405162461bcd60e51b8152602060048201526007602482015266125b9d985b1a5960ca1b60448201526064016109bf565b6120df836136c8565b50600192915050565b6000808080808061210089633871f67360e21b61296e565b9450945094509450945060005b87811015610dea57738932561a695C53836269a551296Dca33Fb1fC41b63c7560355878b8b8581811061214257612142614c51565b90506040020188876040518563ffffffff1660e01b81526004016121699493929190614e4e565b60006040518083038186803b15801561218157600080fd5b505af4158015612195573d6000803e3d6000fd5b505050508888828181106121ab576121ab614c51565b9050604002016000013584836001600160a01b03167f0784f1e1723817c5c234253edf096a332dfa1edfe054ba12606ab2f4966c90f88c8c868181106121f3576121f3614c51565b905060400201602001602081019061220b9190614e8e565b6040516122189190614eab565b60405180910390a48061222a81614ca0565b91505061210d565b6000808080808061224a89637797bee360e11b61296e565b9450945094509450945060005b87811015610dea57600061227887878c8c8681811061197157611971614c51565b905089898381811061228c5761228c614c51565b90506040020160200160208101906122a49190614ec7565b8160030160026101000a81548160ff021916908360ff1602179055506122f28a8a848181106122d5576122d5614c51565b90506040020160200160208101906122ed9190614ec7565b61373f565b60038201805463ff0000001916630100000083600581111561231657612316614754565b021790555089898381811061232d5761232d614c51565b9050604002016000013585846001600160a01b03167fa848aef4effa6f0dcdf3018e3fcc8cf2e90e0e88dbc0c34ed5ef2dcdecb2f1a98d8d8781811061237557612375614c51565b905060400201602001602081019061238d9190614ec7565b60038601546040516123aa92916301000000900460ff1690614ee4565b60405180910390a450806123bd81614ca0565b915050612257565b60006112f16137b8565b60006001600160a01b037f00000000000000000000000000000000000000000000000000000000000000001630036124195760405162461bcd60e51b81526004016109bf90614b9e565b7f00000000000000000000000000000000000000000000000000000000000000006001600160a01b031661244b612911565b6001600160a01b0316146124715760405162461bcd60e51b81526004016109bf90614bc4565b6000612480604e5461ffff1690565b61ffff16116124bc5760405162461bcd60e51b81526020600482015260086024820152671393d5081253925560c21b60448201526064016109bf565b60006124ce630f708ceb60e41b612e12565b905060008160138111156124e4576124e4614754565b146125045780604051637f0911d160e01b81526004016109bf9190614d30565b6002805484919060ff60a01b1916600160a01b83600181111561252957612529614754565b021790555030336001600160a01b03167fc08ec585c25f1907baaab6f278c5994531a2e34c59935b3fcfe813067a3b487885604051612568919061494f565b60405180910390a350600192915050565b60006112f1612932565b60006001600160a01b037f00000000000000000000000000000000000000000000000000000000000000001630036125cd5760405162461bcd60e51b81526004016109bf90614b9e565b7f00000000000000000000000000000000000000000000000000000000000000006001600160a01b03166125ff612911565b6001600160a01b0316146126255760405162461bcd60e51b81526004016109bf90614bc4565b6000600254600160a01b900460ff16600181111561264557612645614754565b146126625760405162461bcd60e51b81526004016109bf90614cb9565b6000612674631f98802f60e31b612e12565b9050600081601381111561268a5761268a614754565b146126aa5780604051637f0911d160e01b81526004016109bf9190614d30565b6002805484919060ff60a81b1916600160a81b8360018111156126cf576126cf614754565b021790555030336001600160a01b03167ff5912c5e436152157ed2b4a84bc313b4b1fe09a15b941f195d23c99a1b8c45ad85604051612568919061494f565b6000808080808061272689633f37078d60e21b61296e565b9450945094509450945060005b87811015610dea57600061275487878c8c8681811061197157611971614c51565b905060018a8a8481811061276a5761276a614c51565b90506040020160200160208101906127829190614e8e565b600381111561279357612793614754565b116127d35760405162461bcd60e51b815260206004820152601060248201526f496c6c6567616c20416374697669747960801b60448201526064016109bf565b8989838181106127e5576127e5614c51565b90506040020160200160208101906127fd9190614e8e565b8160030160046101000a81548160ff0219169083600381111561282257612822614754565b021790555089898381811061283957612839614c51565b9050604002016000013585846001600160a01b03167f1fc1311eafb9d0cc006c7814a6bc17e64de742b70fedab90ca082b386608cab88d8d8781811061288157612881614c51565b90506040020160200160208101906128999190614e8e565b6040516128a69190614eab565b60405180910390a450806128b981614ca0565b915050612733565b60006001600160e01b03198216633d817cff60e01b14806128f257506001600160e01b031982166352d1902d60e01b145b8061097157506301ffc9a760e01b6001600160e01b0319831614610971565b60006000805160206154be8339815191525b546001600160a01b0316919050565b60007fb53127684a568b3173ae13b9f8a6016e243e63b6e8ee1178d6a717850b5d6103612923565b612967858585858561386c565b5050505050565b60008080808080306001600160a01b031663a304e3536040518163ffffffff1660e01b8152600401602060405180830381865afa1580156129b3573d6000803e3d6000fd5b505050506040513d601f19601f820116820180604052508101906129d79190614f04565b60018111156129e8576129e8614754565b14612a055760405162461bcd60e51b81526004016109bf90614cb9565b6000612a118880614f21565b905011612a565760405162461bcd60e51b8152602060048201526013602482015272496c6c6567616c2050726f66696c654e616d6560681b60448201526064016109bf565b600080612a6660608a018a614f21565b90501115612afa5742612a7f60608a0160408b01614f67565b6001600160401b031611612ac95760405162461bcd60e51b815260206004820152601160248201527045787069726564205369676e617475726560781b60448201526064016109bf565b612af3887f9027b951cbdf8eff67da583391d218a57a89ec1ebfcb1c66da188e8531804d55613a35565b9050612afd565b50335b6000612b11612b0c8a80614f21565b613695565b6001600160e01b031989166000908152604a60205260408120549192506001600160a01b0390911690612b44828b613b04565b90506000612b5185613b3b565b60405163a66ce52f60e01b8152600481018690526024810184905260448101829052909150309063a66ce52f90606401600060405180830381600087803b158015612b9b57600080fd5b505af1158015612baf573d6000803e3d6000fd5b50505060008581526048602052604081209150612bcd604485613b7a565b919e919d50949b509099509397509295505050505050565b604051635fbcdb4b60e01b815260048101859052602481018490526044810183905260648101829052600090738932561a695C53836269a551296Dca33Fb1fC41b90635fbcdb4b90608401602060405180830381865af4158015612c4d573d6000803e3d6000fd5b505050506040513d601f19601f820116820180604052508101906112d99190614f90565b6001816007811115612c8557612c85614754565b03612ca35760405163e15df99b60e01b815260040160405180910390fd5b6002816007811115612cb757612cb7614754565b03612cd55760405163c38331b560e01b815260040160405180910390fd5b6003816007811115612ce957612ce9614754565b03612d075760405163dab65f4760e01b815260040160405180910390fd5b6004816007811115612d1b57612d1b614754565b03612d3957604051633f4b20a160e11b815260040160405180910390fd5b6005816007811115612d4d57612d4d614754565b03612d6b576040516308fa537360e01b815260040160405180910390fd5b6006816007811115612d7f57612d7f614754565b03612d9d5760405163ae0903a160e01b815260040160405180910390fd5b6007816007811115612db157612db1614754565b03612dcf5760405163d59825eb60e01b815260040160405180910390fd5b60405162461bcd60e51b815260206004820152600b60248201526a2ab735b737bbb71022a92960a91b60448201526064016109bf565b50565b6000610971825490565b6002546040805163172cb29d60e11b81523060048201526001600160e01b03198416602482015233604482015290516000926001600160a01b031691632e59653a916064808301926020929190829003018187875af1158015612e79573d6000803e3d6000fd5b505050506040513d601f19601f820116820180604052508101906109719190614fb1565b612ea561448e565b60405163d58bf39760e01b8152604460048201819052602482018590528101839052738932561a695C53836269a551296Dca33Fb1fC41b9063d58bf39790606401600060405180830381865af4158015612f03573d6000803e3d6000fd5b505050506040513d6000823e601f3d908101601f19168201604052610df59190810190615050565b60008080612f398685613c5c565b9150915080612f4d57600092505050610df5565b6000858152600287016020526040902060038082810154640100000000900460ff1690811115612f7f57612f7f614754565b14612f905760009350505050610df5565b6004830154600382015464010000000090910460ff908116620100009092041610612fc15760009350505050610df5565b5060019695505050505050565b6000806000612fdc84613b3b565b90506000613045604051602001613020907f545950452e4c4956454c595f50524f46494c452e4c4956454c595f4d415354458152602960f91b602082015260210190565b6040516020818303038152906040528051906020012087613cb990919063ffffffff16565b60008381526005820160205260408120549192506130638883613d90565b6002015460008181526001808b016020526040909120015460ff1696509450505050505b9250929050565b604051632a663f9160e21b8152600090738932561a695C53836269a551296Dca33Fb1fC41b9063a998fe44906130d09089908b9088908b908b90600401615164565b602060405180830381865af41580156130ed573d6000803e3d6000fd5b505050506040513d601f19601f820116820180604052508101906131119190615234565b905080836001600160a01b0384167f07c17b912585812e8762303954bdcf32e08d284c4409dfbda55526286e41ea9c60208b01358b3561315760808e0160608f01614ec7565b60408051938452602084019290925260ff169082015260600160405180910390a450505050505050565b6000828152600285016020526040812080546131af5760405162461bcd60e51b81526004016109bf90614c67565b600260038281015465010000000000900460ff16908111156131d3576131d3614754565b10156131f15760405162461bcd60e51b81526004016109bf90614cdb565b60006132038787846000015487612be5565b9050600081600781111561321957613219614754565b146132275761322781612c71565b5095945050505050565b6001848101546000908152818701602052604081209091015460ff16905b61325c6020860186614df8565b905081101561337757738932561a695C53836269a551296Dca33Fb1fC41b639cb39939888887893561329160208c018c614df8565b888181106132a1576132a1614c51565b90506020020135886040518763ffffffff1660e01b81526004016132ca9695949392919061524d565b60006040518083038186803b1580156132e257600080fd5b505af41580156132f6573d6000803e3d6000fd5b5050863591508590506001600160a01b0385167f41187f3b0608718196effe354dd63ee782239b01588854dba9c9d91aebe9a38861333760208a018a614df8565b8681811061334757613347614c51565b9050602002013560405161335d91815260200190565b60405180910390a48061336f81614ca0565b91505061324f565b50505050505050565b606061097182613e6d565b613393612911565b6001600160a01b0316816001600160a01b0316036133dd5760405162461bcd60e51b8152602060048201526007602482015266125b1b1959d85b60ca1b60448201526064016109bf565b60006133ef637147855d60e01b612e12565b9050600081601381111561340557613405614754565b146134255780604051637f0911d160e01b81526004016109bf9190614d30565b5050565b60607f4910fdfa16fed3260ed0e7147f7cc6da11a60208b5b9406d12a635614ffd91435460ff16156134735761345e84613ec9565b50604080516000815260208101909152610df5565b6000805160206154be83398151915260001b846001600160a01b03166352d1902d6040518163ffffffff1660e01b8152600401602060405180830381865afa1580156134c3573d6000803e3d6000fd5b505050506040513d601f19601f820116820180604052508101906134e79190615234565b146135235760405162461bcd60e51b815260206004820152600c60248201526b496c6c6567616c205555505360a01b60448201526064016109bf565b6040516301ffc9a760e01b8152633d817cff60e01b60048201526001600160a01b038516906301ffc9a790602401602060405180830381865afa15801561356e573d6000803e3d6000fd5b505050506040513d601f19601f820116820180604052508101906135929190614d44565b6135cf5760405162461bcd60e51b815260206004820152600e60248201526d496c6c6567616c204950726f787960901b60448201526064016109bf565b6135da848484613ef8565b9050610df5565b60008181526001830160205260408120541515610df5565b6000610df58383613f5e565b604051632a8cc5e360e01b8152600090738932561a695C53836269a551296Dca33Fb1fC41b90632a8cc5e390613649908a908a908a908a908a908a9060040161528a565b602060405180830381865af4158015613666573d6000803e3d6000fd5b505050506040513d601f19601f8201168201806040525081019061368a9190615234565b979650505050505050565b600082826040516020016136aa9291906152c2565b60405160208183030381529060405280519060200120905092915050565b7fb53127684a568b3173ae13b9f8a6016e243e63b6e8ee1178d6a717850b5d610380546001600160a01b0383166001600160a01b031990911681179091556040805191825251309133917f63fdbed5f2909ec44e3becc51e9d29654ce1447747914e8a6ebc019e7f640b8b9181900360200190a350565b60405163313c7d6760e21b815260ff82166004820152600090738932561a695C53836269a551296Dca33Fb1fC41b9063c4f1f59c90602401602060405180830381865af4158015613794573d6000803e3d6000fd5b505050506040513d601f19601f8201168201806040525081019061097191906152d2565b60007f8b73c3c69bb8fe3d512ecc4cf759cc79239f7b179b0ffacaa9a75d522b39400f60006040516020016137ed91906152ef565b60405160208183030381529060405280519060200120600160405160200161381591906152ef565b60408051601f1981840301815282825280516020918201209083019490945281019190915260608101919091524660808201523060a082015260c00160405160208183030381529060405280519060200120905090565b604e5462010000900460ff166138c45760405162461bcd60e51b815260206004820152601960248201527f436f6e7472616374204e6f7420496e697469616c697a696e670000000000000060448201526064016109bf565b60006138d18587836153b0565b5060016138df8385836153b0565b506001600160a01b03811630146139c5576001600160a01b0381163b6139175760405162461bcd60e51b81526004016109bf90614d06565b6040516301ffc9a760e01b81526331501c3960e01b60048201526001600160a01b038216906301ffc9a790602401602060405180830381865afa158015613962573d6000803e3d6000fd5b505050506040513d601f19601f820116820180604052508101906139869190614d44565b6139c05760405162461bcd60e51b815260206004820152600b60248201526a125b1b1959d85b081050d360aa1b60448201526064016109bf565b613a11565b6139d56331501c3960e01b61094c565b613a115760405162461bcd60e51b815260206004820152600d60248201526c139bdd0814dd5c1c1bdc9d1959609a1b60448201526064016109bf565b600280546001600160b01b0319166001600160a01b038316179055612967336136c8565b6000610df5613a476060850185614f21565b8080601f016020809104026020016040519081016040528093929190818152602001838380828437600092019190915250613aff9250869150613a8f9050612b0c8880614f21565b613a9f6040890160208a016146c7565b613aaf60608a0160408b01614f67565b6001600160401b031660408051602080820196909652808201949094526001600160a01b039290921660608401526080808401919091528151808403909101815260a09092019052805191012090565b614051565b6040516bffffffffffffffffffffffff19606084901b1660208201526001600160e01b0319821660348201526000906038016136aa565b6040516bffffffffffffffffffffffff19606083901b166020820152600090603401604051602081830303815290604052805190602001209050919050565b600081815260018084016020526040822090600182015460ff166005811115613ba557613ba5614754565b03613bc25760408051848152600186016020820152209150613c55565b6000600182015460ff166005811115613bdd57613bdd614754565b03613c1a5760405162461bcd60e51b815260206004820152600d60248201526c11925108139bdd08119bdd5b99609a1b60448201526064016109bf565b60405162461bcd60e51b815260206004820152601060248201526f125b1b195859db081192510814db1bdd60821b60448201526064016109bf565b5092915050565b60008181526001808401602052604082208291600182015460ff166005811115613c8857613c88614754565b03613caa57505060408051838152600185810160208301529190209150613087565b50600019946000945092505050565b60008181526020839052604081206003600182015460ff166003811115613ce257613ce2614754565b03613cfd576040805184815260208101869052209150613c55565b6000600182015460ff166003811115613d1857613d18614754565b03613d555760405162461bcd60e51b815260206004820152600d60248201526c15125108139bdd08119bdd5b99609a1b60448201526064016109bf565b60405162461bcd60e51b815260206004820152601060248201526f125b1b1959d85b081512510814db1bdd60821b60448201526064016109bf565b60008181526020839052604081206002600182015460ff166003811115613db957613db9614754565b03613dd4576040805184815260208101869052209150613c55565b6000600182015460ff166003811115613def57613def614754565b03613e2f5760405162461bcd60e51b815260206004820152601060248201526f149bdb19525908139bdd08119bdd5b9960821b60448201526064016109bf565b60405162461bcd60e51b8152602060048201526013602482015272125b1b1959d85b08149bdb1952590814db1bdd606a1b60448201526064016109bf565b606081600001805480602002602001604051908101604052809291908181526020018280548015613ebd57602002820191906000526020600020905b815481526020019060010190808311613ea9575b50505050509050919050565b6000805160206154be83398151915280546001600160a01b0319166001600160a01b0392909216919091179055565b6060613f03846140c6565b600083511180613f105750815b15613f43576135da84846040518060400160405280600b81526020016a10d85b1b0811985a5b195960aa1b81525061410a565b60408051600080825260208201909252905b50949350505050565b60008181526001830160205260408120548015614047576000613f8260018361546f565b8554909150600090613f969060019061546f565b9050818114613ffb576000866000018281548110613fb657613fb6614c51565b9060005260206000200154905080876000018481548110613fd957613fd9614c51565b6000918252602080832090910192909255918252600188019052604090208390555b855486908061400c5761400c615482565b600190038181906000526020600020016000905590558560010160008681526020019081526020016000206000905560019350505050610971565b6000915050610971565b60008061405d836141d8565b905060008061406c8387614245565b9092509050600081600481111561408557614085614754565b14613f555760405162461bcd60e51b8152602060048201526011602482015270496c6c6567616c205369676e617475726560781b60448201526064016109bf565b6140cf81613ec9565b6040516001600160a01b03821690309033907f8ee0f2bd29c0e6a975c3cc2e47cf2e01b5f23a9a8a02e0ed6a5a070269de3d2d90600090a450565b60606001600160a01b0384163b6141635760405162461bcd60e51b815260206004820152601860248201527f496c6c6567616c20436f6e74726163742041646472657373000000000000000060448201526064016109bf565b600080856001600160a01b03168560405161417e9190615498565b600060405180830381855af49150503d80600081146141b9576040519150601f19603f3d011682016040523d82523d6000602084013e6141be565b606091505b50915091506141ce8282866142b0565b9695505050505050565b6000610971306001600160a01b031663f698da256040518163ffffffff1660e01b8152600401602060405180830381865afa15801561421b573d6000803e3d6000fd5b505050506040513d601f19601f8201168201806040525081019061423f9190615234565b836142e9565b600080825160410361427b5760208301516040840151606085015160001a61426f87828585614310565b94509450505050613087565b82516040036142a457602083015160408401516142998683836143fd565b935093505050613087565b50600090506002613087565b606083156142bf575081610df5565b8251156142cf5782518084602001fd5b8160405162461bcd60e51b81526004016109bf9190614b23565b60405161190160f01b602082015260228101839052604281018290526000906062016136aa565b6000807f7fffffffffffffffffffffffffffffff5d576e7357a4501ddfe92f46681b20a083111561434757506000905060036143f4565b8460ff16601b1415801561435f57508460ff16601c14155b1561437057506000905060046143f4565b6040805160008082526020820180845289905260ff881692820192909252606081018690526080810185905260019060a0016020604051602081039080840390855afa1580156143c4573d6000803e3d6000fd5b5050604051601f1901519150506001600160a01b0381166143ed576000600192509250506143f4565b9150600090505b94509492505050565b6000806001600160ff1b0383168161441a60ff86901c601b6154aa565b905061442887828885614310565b935093505050935093915050565b50805461444290614d97565b6000825580601f10614452575050565b601f016020900490600052602060002090810190612e0591906144e8565b5080546000825590600052602060002090810190612e0591906144e8565b604080516101608101825260008082526020820181905260609282018390529181018290526080810182905260a081018290529060c082019081526020016000815260200160008152602001600081526020016000905290565b5b808211156144fd57600081556001016144e9565b5090565b60006020828403121561451357600080fd5b81356001600160e01b031981168114610df557600080fd5b60008083601f84011261453d57600080fd5b5081356001600160401b0381111561455457600080fd5b60208301915083602082850101111561308757600080fd5b80356001600160a01b038116811461110557600080fd5b60008060008060006060868803121561459b57600080fd5b85356001600160401b03808211156145b257600080fd5b6145be89838a0161452b565b909750955060208801359150808211156145d757600080fd5b506145e48882890161452b565b90945092506145f790506040870161456c565b90509295509295909350565b60006080828403121561461557600080fd5b50919050565b60008083601f84011261462d57600080fd5b5081356001600160401b0381111561464457600080fd5b6020830191508360208260051b850101111561308757600080fd5b60008060006040848603121561467457600080fd5b83356001600160401b038082111561468b57600080fd5b61469787838801614603565b945060208601359150808211156146ad57600080fd5b506146ba8682870161461b565b9497909650939450505050565b6000602082840312156146d957600080fd5b610df58261456c565b600080604083850312156146f557600080fd5b50508035926020909101359150565b60005b8381101561471f578181015183820152602001614707565b50506000910152565b60008151808452614740816020860160208601614704565b601f01601f19169290920160200192915050565b634e487b7160e01b600052602160045260246000fd5b60048110612e0557612e05614754565b6147838161476a565b9052565b60068110612e0557612e05614754565b61478381614787565b602081528151602082015260208201516040820152600060408301516101608060608501526147d3610180850183614728565b915060608501516147ea608086018261ffff169052565b50608085015161ffff811660a08601525060a085015160ff811660c08601525060c085015161481c60e086018261477a565b5060e085015161010061483181870183614797565b860151905061012061484586820183614797565b86015190506101406148598682018361477a565b860151905061486a8583018261477a565b5090949350505050565b60008083601f84011261488657600080fd5b5081356001600160401b0381111561489d57600080fd5b6020830191508360208260061b850101111561308757600080fd5b6000806000604084860312156148cd57600080fd5b83356001600160401b03808211156148e457600080fd5b6148f087838801614603565b9450602086013591508082111561490657600080fd5b506146ba86828701614874565b60008060006060848603121561492857600080fd5b505081359360208301359350604090920135919050565b60028110612e0557612e05614754565b6020810161495c8361493f565b91905290565b6020808252825182820181905260009190848201906040850190845b8181101561499a5783518352928401929184019160010161497e565b50909695505050505050565b6000806000606084860312156149bb57600080fd5b83359250602084013591506149d26040850161456c565b90509250925092565b634e487b7160e01b600052604160045260246000fd5b60405161016081016001600160401b0381118282101715614a1457614a146149db565b60405290565b604051601f8201601f191681016001600160401b0381118282101715614a4257614a426149db565b604052919050565b60006001600160401b03821115614a6357614a636149db565b50601f01601f191660200190565b8015158114612e0557600080fd5b600080600060608486031215614a9457600080fd5b614a9d8461456c565b925060208401356001600160401b03811115614ab857600080fd5b8401601f81018613614ac957600080fd5b8035614adc614ad782614a4a565b614a1a565b818152876020838501011115614af157600080fd5b816020840160208301376000602083830101528094505050506040840135614b1881614a71565b809150509250925092565b602081526000610df56020830184614728565b600080600060408486031215614b4b57600080fd5b8335925060208401356001600160401b03811115614b6857600080fd5b6146ba8682870161452b565b60028110612e0557600080fd5b600060208284031215614b9357600080fd5b8135610df581614b74565b6020808252600c908201526b125b1b1959d85b0810d85b1b60a21b604082015260600190565b6020808252600c908201526b125b9d985b1a590810d85b1b60a21b604082015260600190565b81835281816020850137506000828201602090810191909152601f909101601f19169091010190565b606081526000614c27606083018789614bea565b8281036020840152614c3a818688614bea565b91505061ffff831660408301529695505050505050565b634e487b7160e01b600052603260045260246000fd5b602080825260099082015268139bdd08119bdd5b9960ba1b604082015260600190565b634e487b7160e01b600052601160045260246000fd5b600060018201614cb257614cb2614c8a565b5060010190565b60208082526008908201526714995a9958dd195960c21b604082015260600190565b602080825260119082015270496c6c6567616c20557064617461626c6560781b604082015260600190565b60208082526010908201526f125b1b1959d85b0810dbdb9d1c9858dd60821b604082015260600190565b602081016014831061495c5761495c614754565b600060208284031215614d5657600080fd5b8151610df581614a71565b60008235609e19833603018112614d7757600080fd5b9190910192915050565b60008235603e19833603018112614d7757600080fd5b600181811c90821680614dab57607f821691505b60208210810361461557634e487b7160e01b600052602260045260246000fd5b61ffff81168114612e0557600080fd5b600060208284031215614ded57600080fd5b8135610df581614dcb565b6000808335601e19843603018112614e0f57600080fd5b8301803591506001600160401b03821115614e2957600080fd5b6020019150600581901b360382131561308757600080fd5b60048110612e0557600080fd5b600060a082019050858252843560208301526020850135614e6e81614e41565b614e778161476a565b604083015260608201939093526080015292915050565b600060208284031215614ea057600080fd5b8135610df581614e41565b6020810161495c8361476a565b60ff81168114612e0557600080fd5b600060208284031215614ed957600080fd5b8135610df581614eb8565b60ff8316815260408101614ef783614787565b8260208301529392505050565b600060208284031215614f1657600080fd5b8151610df581614b74565b6000808335601e19843603018112614f3857600080fd5b8301803591506001600160401b03821115614f5257600080fd5b60200191503681900382131561308757600080fd5b600060208284031215614f7957600080fd5b81356001600160401b0381168114610df557600080fd5b600060208284031215614fa257600080fd5b815160088110610df557600080fd5b600060208284031215614fc357600080fd5b815160148110610df557600080fd5b600082601f830112614fe357600080fd5b8151614ff1614ad782614a4a565b81815284602083860101111561500657600080fd5b611645826020830160208701614704565b805161110581614dcb565b805161110581614eb8565b805161110581614e41565b60068110612e0557600080fd5b805161110581615038565b60006020828403121561506257600080fd5b81516001600160401b038082111561507957600080fd5b90830190610160828603121561508e57600080fd5b6150966149f1565b82518152602083015160208201526040830151828111156150b657600080fd5b6150c287828601614fd2565b6040830152506150d460608401615017565b60608201526150e560808401615017565b60808201526150f660a08401615022565b60a082015261510760c0840161502d565b60c082015261511860e08401615045565b60e0820152610100915061512d828401615045565b82820152610120915061514182840161502d565b82820152610140915061515582840161502d565b91810191909152949350505050565b85815260a06020820152843560a0820152602085013560c0820152600060408601358060020b80821461519657600080fd5b60e08401525060608601356151aa81614eb8565b60ff16610100830152608086013536879003601e190181126151cb57600080fd5b86016020810190356001600160401b038111156151e757600080fd5b8036038213156151f657600080fd5b60a061012085015261520d61014085018284614bea565b925050508460408301526152246060830185614797565b8260808301529695505050505050565b60006020828403121561524657600080fd5b5051919050565b600060c08201905087825286602083015285604083015284606083015283608083015261527983614787565b8260a0830152979650505050505050565b86815260c0810161529a87614787565b602082019690965260408101949094526060840192909252608083015260a090910152919050565b8183823760009101908152919050565b6000602082840312156152e457600080fd5b8151610df581615038565b60008083546152fd81614d97565b60018281168015615315576001811461532a57615359565b60ff1984168752821515830287019450615359565b8760005260208060002060005b858110156153505781548a820152908401908201615337565b50505082870194505b50929695505050505050565b601f8211156153ab57600081815260208120601f850160051c8101602086101561538c5750805b601f850160051c820191505b81811015610ba557828155600101615398565b505050565b6001600160401b038311156153c7576153c76149db565b6153db836153d58354614d97565b83615365565b6000601f84116001811461540f57600085156153f75750838201355b600019600387901b1c1916600186901b178355612967565b600083815260209020601f19861690835b828110156154405786850135825560209485019460019092019101615420565b508682101561545d5760001960f88860031b161c19848701351681555b505060018560011b0183555050505050565b8181038181111561097157610971614c8a565b634e487b7160e01b600052603160045260246000fd5b60008251614d77818460208701614704565b8082018082111561097157610971614c8a56fe360894a13ba1a3210667c828492db98dca3e2076cc3735a920a3ca505d382bbca2646970667358221220b0f653a28b45ee14cca55e0f7351e596ac55efe83c86683f4335d9da15a4a7f664736f6c63430008130033b53127684a568b3173ae13b9f8a6016e243e63b6e8ee1178d6a717850b5d6103",
  "deployedBytecode": "0x6080604052600436106102695760003560e01c806364da32bf11610143578063ca9d5ac0116100bb578063f0b15def11610077578063f0b15def1461088e578063f698da25146108c2578063f708ceb0146108d7578063f94a0adb146108f7578063fcc401781461090c578063fcdc1e341461092c57005b8063ca9d5ac0146107b0578063cb6f5bb5146107ee578063d13cf8171461080e578063d9dc1f191461082e578063e1c7d9cc1461084e578063ef2f7dc61461086e57005b80638a18ddda1161010a5780638a18ddda146106ea5780639b97b5341461070a578063a0a8e4601461073e578063a304e35314610753578063b33b904814610772578063b4a0bdf31461079257005b806364da32bf146106415780637147855d14610661578063756af45f1461068e57806375d0c0dc146106ae5780637678922e146106c357005b806338d38c97116101e157806352d1902d1161019d57806352d1902d1461055e578063560ae26b1461057357806358dbc45d146105935780635912510a146105c05780635977a65a146105ed57806364d4c8191461060d57005b806338d38c971461045c5780633946a60614610484578063431f4291146104c257806343a4194d146104e25780634888f482146105025780634bf0414d1461052a57005b806318a255681161023057806318a25568146103345780631b02a987146103545780631b452f4b14610374578063301c1280146103b657806334109de2146103ea57806337f74da91461041e57005b806301ffc9a714610272578063077f224a146102a75780630d7deb09146102c75780630e32cb86146102e75780631225ca991461030757005b3661027057005b005b34801561027e57600080fd5b5061029261028d366004614501565b61094c565b60405190151581526020015b60405180910390f35b3480156102b357600080fd5b506102706102c2366004614583565b610977565b3480156102d357600080fd5b506102926102e236600461465f565b610bad565b3480156102f357600080fd5b506102926103023660046146c7565b610dfc565b34801561031357600080fd5b506103276103223660046146e2565b61110a565b60405161029e91906147a0565b34801561034057600080fd5b5061029261034f3660046148b8565b61111c565b34801561036057600080fd5b5061029261036f366004614913565b61127e565b34801561038057600080fd5b506103a87f7bfb2abd6084c8ce20d7ff92c1620e7e7267603f0eac446b9176959d243306bc81565b60405190815260200161029e565b3480156103c257600080fd5b506103a87f541cf898e7c3085cbc6b7402ba06e7237285bc4bd5baa510e708e35537a71ffd81565b3480156103f657600080fd5b506103a87f7aabe2571874f2a330ea11c8972d9cc3792d973efc6b36e3e29005861a34418881565b34801561042a57600080fd5b50610292610439366004614913565b600092835260486020908152604080852092855260039092019052909120541490565b34801561046857600080fd5b506104716112e2565b60405161ffff909116815260200161029e565b34801561049057600080fd5b5061029261049f3660046146e2565b600091825260486020908152604080842092845260029092019052902054151590565b3480156104ce57600080fd5b506102926104dd366004614913565b6112f6565b3480156104ee57600080fd5b506102926104fd36600461465f565b61133f565b34801561050e57600080fd5b50600254600160a81b900460ff165b60405161029e919061494f565b34801561053657600080fd5b506103a87f9027b951cbdf8eff67da583391d218a57a89ec1ebfcb1c66da188e8531804d5581565b34801561056a57600080fd5b506103a8611445565b34801561057f57600080fd5b5061029261058e36600461465f565b6114a2565b34801561059f57600080fd5b506105a8611546565b6040516001600160a01b03909116815260200161029e565b3480156105cc57600080fd5b506105e06105db3660046146e2565b611550565b60405161029e9190614962565b3480156105f957600080fd5b506102926106083660046149a6565b6115b1565b34801561061957600080fd5b506103a87f8b73c3c69bb8fe3d512ecc4cf759cc79239f7b179b0ffacaa9a75d522b39400f81565b34801561064d57600080fd5b5061032761065c3660046146e2565b61164d565b34801561066d57600080fd5b5061068161067c366004614a7f565b61167d565b60405161029e9190614b23565b34801561069a57600080fd5b506103a86106a93660046146c7565b6117d4565b3480156106ba57600080fd5b50610681611899565b3480156106cf57600080fd5b5073__$2d579bb033d9a5a879e51507e5bfda47fd$__6105a8565b3480156106f657600080fd5b506102926107053660046148b8565b61192b565b34801561071657600080fd5b506103a87fdee69d384475c3656c17c592e94a2bbfd2a1998cce0c85f535569415a15863b881565b34801561074a57600080fd5b50610681611ad7565b34801561075f57600080fd5b50600254600160a01b900460ff1661051d565b34801561077e57600080fd5b5061029261078d36600461465f565b611ae6565b34801561079e57600080fd5b506002546001600160a01b03166105a8565b3480156107bc57600080fd5b506102926107cb3660046146e2565b600091825260486020908152604080842092845260039092019052902054151590565b3480156107fa57600080fd5b506102926108093660046148b8565b611d8a565b34801561081a57600080fd5b50610292610829366004614b36565b611ef9565b34801561083a57600080fd5b506102926108493660046146c7565b611f32565b34801561085a57600080fd5b506102926108693660046148b8565b6120e8565b34801561087a57600080fd5b506102926108893660046148b8565b612232565b34801561089a57600080fd5b506103a87ffc434588684348dd50856b075c47bed14245c1030aa04c32955af5549981462781565b3480156108ce57600080fd5b506103a86123c5565b3480156108e357600080fd5b506102926108f2366004614b81565b6123cf565b34801561090357600080fd5b506105a8612579565b34801561091857600080fd5b50610292610927366004614b81565b612583565b34801561093857600080fd5b506102926109473660046148b8565b61270e565b60006001600160e01b03198216631dcf222360e11b14806109715750610971826128c1565b92915050565b6001600160a01b037f00000000000000000000000000000000000000000000000000000000000000001630036109c85760405162461bcd60e51b81526004016109bf90614b9e565b60405180910390fd5b7f00000000000000000000000000000000000000000000000000000000000000006001600160a01b03166109fa612911565b6001600160a01b031614610a205760405162461bcd60e51b81526004016109bf90614bc4565b33610a29612932565b6001600160a01b031614610a6f5760405162461bcd60e51b815260206004820152600d60248201526c1058d8d95cdcc811195b9a5959609a1b60448201526064016109bf565b604e5462010000900460ff1615808015610a915750604e54600161ffff909116105b80610aac5750303b158015610aac5750604e5461ffff166001145b610af85760405162461bcd60e51b815260206004820152601c60248201527f436f6e747261637420416c726561647920496e697469616c697a65640000000060448201526064016109bf565b604e805461ffff191660011790558015610b1e57604e805462ff00001916620100001790555b610b2b868686868661295a565b610b33612911565b6001600160a01b031630336001600160a01b03167f247ab7b17ee489fa140c6666edc3822eefed2727610cd6e37192462b87244c6089898989610b79604e5461ffff1690565b604051610b8a959493929190614c13565b60405180910390a48015610ba557604e805462ff0000191690555b505050505050565b60008080808080610bc589630d7deb0960e01b61296e565b9450945094509450945060005b87811015610dea5760008660020160008b8b85818110610bf457610bf4614c51565b90506020020135815260200190815260200160002090506000801b816000015403610c315760405162461bcd60e51b81526004016109bf90614c67565b6000610c438888846000015488612be5565b90506000816007811115610c5957610c59614754565b14610c6757610c6781612c71565b610c7382600401612e08565b15610cb15760405162461bcd60e51b815260206004820152600e60248201526d496c6c6567616c2052656d6f766560901b60448201526064016109bf565b600182810154600090815289820160205260409020908101546301000000900463ffffffff16610d165760405162461bcd60e51b815260206004820152601060248201526f125b1b195859db08149959995c9c995960821b60448201526064016109bf565b6001818101805460001963ffffffff6301000000808404821692909201160266ffffffff000000199091161790556000808555908401819055610d5d906002850190614436565b60038301805465ffffffffffff191690556004830160008181610d808282614470565b505050508b8b85818110610d9657610d96614c51565b9050602002013587866001600160a01b03167feeccda8a3226aec0431c9a1e3064609915c9ce778c500844281e79aaf5a179c560405160405180910390a45050508080610de290614ca0565b915050610bd2565b506001955050505050505b9392505050565b60006001600160a01b037f0000000000000000000000000000000000000000000000000000000000000000163003610e465760405162461bcd60e51b81526004016109bf90614b9e565b7f00000000000000000000000000000000000000000000000000000000000000006001600160a01b0316610e78612911565b6001600160a01b031614610e9e5760405162461bcd60e51b81526004016109bf90614bc4565b6000600254600160a01b900460ff166001811115610ebe57610ebe614754565b14610edb5760405162461bcd60e51b81526004016109bf90614cb9565b6001600254600160a81b900460ff166001811115610efb57610efb614754565b14610f185760405162461bcd60e51b81526004016109bf90614cdb565b6001600160a01b03821615801590610f3957506001600160a01b0382163b15155b610f555760405162461bcd60e51b81526004016109bf90614d06565b6002546001600160a01b031615610fb4576000610f7863071965c360e11b612e12565b90506000816013811115610f8e57610f8e614754565b14610fae5780604051637f0911d160e01b81526004016109bf9190614d30565b50611003565b33610fbd612932565b6001600160a01b0316146110035760405162461bcd60e51b815260206004820152600d60248201526c1058d8d95cdcc811195b9a5959609a1b60448201526064016109bf565b6040516301ffc9a760e01b81526331501c3960e01b60048201526001600160a01b038316906301ffc9a790602401602060405180830381865afa15801561104e573d6000803e3d6000fd5b505050506040513d601f19601f820116820180604052508101906110729190614d44565b6110ac5760405162461bcd60e51b815260206004820152600b60248201526a125b1b1959d85b081050d360aa1b60448201526064016109bf565b600280546001600160a01b0384166001600160a01b031990911681179091556040805191825251309133917f410bf468eebeeed60acaedb904afb2db7c0bb0131f7d14c3714d81b14fe8ed3c9181900360200190a35060015b919050565b61111261448e565b610df58383612e9d565b60008080808080611134896303144aad60e31b61296e565b9450945094509450945060005b87811015610dea5773__$2d579bb033d9a5a879e51507e5bfda47fd$__636a7ca253878b8b8581811061117657611176614c51565b604080516001600160e01b031960e088901b168152600481019590955202919091018035602484015260200135604483015250606481018890526084810187905260a4810186905260c40160006040518083038186803b1580156111d957600080fd5b505af41580156111ed573d6000803e3d6000fd5b5050505088888281811061120357611203614c51565b9050604002016000013584836001600160a01b03167faaeede4764ffc8bc358375dc8e18893a313fe87438bdb51cda40092f2c33a78e8c8c8681811061124b5761124b614c51565b9050604002016020013560405161126491815260200190565b60405180910390a48061127681614ca0565b915050611141565b6000838152604860205260408120816008820154600160a01b900460ff1660038111156112ad576112ad614754565b036112bc576000915050610df5565b60008481526003820160205260409020546112d990829085612f2b565b95945050505050565b60006112f1604e5461ffff1690565b905090565b6000838152604860205260408120816008820154600160a01b900460ff16600381111561132557611325614754565b03611334576000915050610df5565b6112d9818585612f2b565b600080808080611356886343a4194d60e01b61296e565b604051631664c8c360e21b81526004810186905261ffff8c166024820152604481018390529498509196509450925073__$2d579bb033d9a5a879e51507e5bfda47fd$__91635993230c915060640160006040518083038186803b1580156113bd57600080fd5b505af41580156113d1573d6000803e3d6000fd5b505050506000806113e28684612fce565b9150915060005b88811015611434576114228a8a8381811061140657611406614c51565b90506020028101906114189190614d61565b8885858a8961308e565b8061142c81614ca0565b9150506113e9565b5060019a9950505050505050505050565b6000306001600160a01b037f0000000000000000000000000000000000000000000000000000000000000000161461148f5760405162461bcd60e51b81526004016109bf90614b9e565b506000805160206154be83398151915290565b600080808080806114ba8963560ae26b60e01b61296e565b9450945094509450945060005b87811015610dea57600061150187878c8c868181106114e8576114e8614c51565b90506020028101906114fa9190614d81565b3587613181565b905061153387828c8c8681811061151a5761151a614c51565b905060200281019061152c9190614d81565b8887613231565b508061153e81614ca0565b9150506114c7565b60006112f1612911565b60008281526048602090815260408083208484526002019091529020546060906115895750604080516000815260208101909152610971565b60008381526048602090815260408083208584526002019091529020610df590600401613380565b604051632085ba5360e21b81526044600482018190526024820185905281018390526001600160a01b038216606482015260009073__$2d579bb033d9a5a879e51507e5bfda47fd$__90638216e94c90608401602060405180830381865af4158015611621573d6000803e3d6000fd5b505050506040513d601f19601f820116820180604052508101906116459190614d44565b949350505050565b61165561448e565b6000838152604860209081526040808320858452600301909152902054610df5908490612e9d565b60606001600160a01b037f00000000000000000000000000000000000000000000000000000000000000001630036116c75760405162461bcd60e51b81526004016109bf90614b9e565b7f00000000000000000000000000000000000000000000000000000000000000006001600160a01b03166116f9612911565b6001600160a01b03161461171f5760405162461bcd60e51b81526004016109bf90614bc4565b6000600254600160a01b900460ff16600181111561173f5761173f614754565b1461175c5760405162461bcd60e51b81526004016109bf90614cb9565b6001600254600160a81b900460ff16600181111561177c5761177c614754565b146117995760405162461bcd60e51b81526004016109bf90614cdb565b6001600160a01b0384163b6117c05760405162461bcd60e51b81526004016109bf90614d06565b6117c98461338b565b611645848484613429565b600080600254600160a01b900460ff1660018111156117f5576117f5614754565b146118125760405162461bcd60e51b81526004016109bf90614cb9565b600061182463756af45f60e01b612e12565b9050600081601381111561183a5761183a614754565b1461185a5780604051637f0911d160e01b81526004016109bf9190614d30565b60405147906001600160a01b038516904780156108fc02916000818181858888f19350505050158015611891573d6000803e3d6000fd5b509392505050565b6060600080546118a890614d97565b80601f01602080910402602001604051908101604052809291908181526020018280546118d490614d97565b80156119215780601f106118f657610100808354040283529160200191611921565b820191906000526020600020905b81548152906001019060200180831161190457829003601f168201915b5050505050905090565b600080808080806119438963450c6eed60e11b61296e565b9450945094509450945060005b87811015610dea57600061198187878c8c8681811061197157611971614c51565b9050604002016000013587613181565b905061198f81600401612e08565b8a8a848181106119a1576119a1614c51565b90506040020160200160208101906119b99190614ddb565b61ffff16116119fa5760405162461bcd60e51b815260206004820152600d60248201526c125b1b1959d85b08131a5b5a5d609a1b60448201526064016109bf565b898983818110611a0c57611a0c614c51565b9050604002016020016020810190611a249190614ddb565b60038201805461ffff191661ffff92909216919091179055898983818110611a4e57611a4e614c51565b9050604002016000013585846001600160a01b03167ff123badf938d2c2dab8adf5cbd19a5623d2a38699ba410b54b463350e9bbca488d8d87818110611a9657611a96614c51565b9050604002016020016020810190611aae9190614ddb565b60405161ffff909116815260200160405180910390a45080611acf81614ca0565b915050611950565b6060600180546118a890614d97565b60008080808080611afe89631667720960e31b61296e565b9450945094509450945060005b87811015610dea576000611b2c87878c8c868181106114e8576114e8614c51565b905060005b8a8a84818110611b4357611b43614c51565b9050602002810190611b559190614d81565b611b63906020810190614df8565b905081108015611b735750602081105b15611d7557611bd68b8b85818110611b8d57611b8d614c51565b9050602002810190611b9f9190614d81565b611bad906020810190614df8565b83818110611bbd57611bbd614c51565b90506020020135836004016135e190919063ffffffff16565b611bf25760405162461bcd60e51b81526004016109bf90614c67565b8760030160008c8c86818110611c0a57611c0a614c51565b9050602002810190611c1c9190614d81565b611c2a906020810190614df8565b84818110611c3a57611c3a614c51565b90506020020135815260200190815260200160002060009055611cb18b8b85818110611c6857611c68614c51565b9050602002810190611c7a9190614d81565b611c88906020810190614df8565b83818110611c9857611c98614c51565b90506020020135836004016135f990919063ffffffff16565b508a8a84818110611cc457611cc4614c51565b9050602002810190611cd69190614d81565b35866001600160a01b0386167ffe39d07a57cc1878f4f6d12e99082567d73763f843df94e1d58ca5a6663e039a8e8e88818110611d1557611d15614c51565b9050602002810190611d279190614d81565b611d35906020810190614df8565b86818110611d4557611d45614c51565b90506020020135604051611d5b91815260200190565b60405180910390a480611d6d81614ca0565b915050611b31565b50508080611d8290614ca0565b915050611b0b565b60008080808080611da28963cb6f5bb560e01b61296e565b9450945094509450945060005b87811015610dea576000611dd087878c8c8681811061197157611971614c51565b6001808201546000818152828b0160205260409020918201549154929350611e1a928a9260ff16918e8e88818110611e0a57611e0a614c51565b905060400201602001358a613605565b808255611e2b9060048301906135e1565b15611e6b5760405162461bcd60e51b815260206004820152601060248201526f125b1b1959d85b0810591b5a5b88125960821b60448201526064016109bf565b898983818110611e7d57611e7d614c51565b9050604002016000013585846001600160a01b03167f9b83771cb2d87d69d1306697183ea15a9fb6207f234f6214debf8d0d36b88fce8d8d87818110611ec557611ec5614c51565b90506040020160200135604051611ede91815260200190565b60405180910390a45080611ef181614ca0565b915050611daf565b6000838152604860205260408120819060020181611f178686613695565b81526020810191909152604001600020541415949350505050565b60006001600160a01b037f0000000000000000000000000000000000000000000000000000000000000000163003611f7c5760405162461bcd60e51b81526004016109bf90614b9e565b7f00000000000000000000000000000000000000000000000000000000000000006001600160a01b0316611fae612911565b6001600160a01b031614611fd45760405162461bcd60e51b81526004016109bf90614bc4565b6000600254600160a01b900460ff166001811115611ff457611ff4614754565b146120115760405162461bcd60e51b81526004016109bf90614cb9565b6001600254600160a81b900460ff16600181111561203157612031614754565b1461204e5760405162461bcd60e51b81526004016109bf90614cdb565b600061206063d9dc1f1960e01b612e12565b9050600081601381111561207657612076614754565b146120965780604051637f0911d160e01b81526004016109bf9190614d30565b6001600160a01b0383166120d65760405162461bcd60e51b8152602060048201526007602482015266125b9d985b1a5960ca1b60448201526064016109bf565b6120df836136c8565b50600192915050565b6000808080808061210089633871f67360e21b61296e565b9450945094509450945060005b87811015610dea5773__$2d579bb033d9a5a879e51507e5bfda47fd$__63c7560355878b8b8581811061214257612142614c51565b90506040020188876040518563ffffffff1660e01b81526004016121699493929190614e4e565b60006040518083038186803b15801561218157600080fd5b505af4158015612195573d6000803e3d6000fd5b505050508888828181106121ab576121ab614c51565b9050604002016000013584836001600160a01b03167f0784f1e1723817c5c234253edf096a332dfa1edfe054ba12606ab2f4966c90f88c8c868181106121f3576121f3614c51565b905060400201602001602081019061220b9190614e8e565b6040516122189190614eab565b60405180910390a48061222a81614ca0565b91505061210d565b6000808080808061224a89637797bee360e11b61296e565b9450945094509450945060005b87811015610dea57600061227887878c8c8681811061197157611971614c51565b905089898381811061228c5761228c614c51565b90506040020160200160208101906122a49190614ec7565b8160030160026101000a81548160ff021916908360ff1602179055506122f28a8a848181106122d5576122d5614c51565b90506040020160200160208101906122ed9190614ec7565b61373f565b60038201805463ff0000001916630100000083600581111561231657612316614754565b021790555089898381811061232d5761232d614c51565b9050604002016000013585846001600160a01b03167fa848aef4effa6f0dcdf3018e3fcc8cf2e90e0e88dbc0c34ed5ef2dcdecb2f1a98d8d8781811061237557612375614c51565b905060400201602001602081019061238d9190614ec7565b60038601546040516123aa92916301000000900460ff1690614ee4565b60405180910390a450806123bd81614ca0565b915050612257565b60006112f16137b8565b60006001600160a01b037f00000000000000000000000000000000000000000000000000000000000000001630036124195760405162461bcd60e51b81526004016109bf90614b9e565b7f00000000000000000000000000000000000000000000000000000000000000006001600160a01b031661244b612911565b6001600160a01b0316146124715760405162461bcd60e51b81526004016109bf90614bc4565b6000612480604e5461ffff1690565b61ffff16116124bc5760405162461bcd60e51b81526020600482015260086024820152671393d5081253925560c21b60448201526064016109bf565b60006124ce630f708ceb60e41b612e12565b905060008160138111156124e4576124e4614754565b146125045780604051637f0911d160e01b81526004016109bf9190614d30565b6002805484919060ff60a01b1916600160a01b83600181111561252957612529614754565b021790555030336001600160a01b03167fc08ec585c25f1907baaab6f278c5994531a2e34c59935b3fcfe813067a3b487885604051612568919061494f565b60405180910390a350600192915050565b60006112f1612932565b60006001600160a01b037f00000000000000000000000000000000000000000000000000000000000000001630036125cd5760405162461bcd60e51b81526004016109bf90614b9e565b7f00000000000000000000000000000000000000000000000000000000000000006001600160a01b03166125ff612911565b6001600160a01b0316146126255760405162461bcd60e51b81526004016109bf90614bc4565b6000600254600160a01b900460ff16600181111561264557612645614754565b146126625760405162461bcd60e51b81526004016109bf90614cb9565b6000612674631f98802f60e31b612e12565b9050600081601381111561268a5761268a614754565b146126aa5780604051637f0911d160e01b81526004016109bf9190614d30565b6002805484919060ff60a81b1916600160a81b8360018111156126cf576126cf614754565b021790555030336001600160a01b03167ff5912c5e436152157ed2b4a84bc313b4b1fe09a15b941f195d23c99a1b8c45ad85604051612568919061494f565b6000808080808061272689633f37078d60e21b61296e565b9450945094509450945060005b87811015610dea57600061275487878c8c8681811061197157611971614c51565b905060018a8a8481811061276a5761276a614c51565b90506040020160200160208101906127829190614e8e565b600381111561279357612793614754565b116127d35760405162461bcd60e51b815260206004820152601060248201526f496c6c6567616c20416374697669747960801b60448201526064016109bf565b8989838181106127e5576127e5614c51565b90506040020160200160208101906127fd9190614e8e565b8160030160046101000a81548160ff0219169083600381111561282257612822614754565b021790555089898381811061283957612839614c51565b9050604002016000013585846001600160a01b03167f1fc1311eafb9d0cc006c7814a6bc17e64de742b70fedab90ca082b386608cab88d8d8781811061288157612881614c51565b90506040020160200160208101906128999190614e8e565b6040516128a69190614eab565b60405180910390a450806128b981614ca0565b915050612733565b60006001600160e01b03198216633d817cff60e01b14806128f257506001600160e01b031982166352d1902d60e01b145b8061097157506301ffc9a760e01b6001600160e01b0319831614610971565b60006000805160206154be8339815191525b546001600160a01b0316919050565b60007fb53127684a568b3173ae13b9f8a6016e243e63b6e8ee1178d6a717850b5d6103612923565b612967858585858561386c565b5050505050565b60008080808080306001600160a01b031663a304e3536040518163ffffffff1660e01b8152600401602060405180830381865afa1580156129b3573d6000803e3d6000fd5b505050506040513d601f19601f820116820180604052508101906129d79190614f04565b60018111156129e8576129e8614754565b14612a055760405162461bcd60e51b81526004016109bf90614cb9565b6000612a118880614f21565b905011612a565760405162461bcd60e51b8152602060048201526013602482015272496c6c6567616c2050726f66696c654e616d6560681b60448201526064016109bf565b600080612a6660608a018a614f21565b90501115612afa5742612a7f60608a0160408b01614f67565b6001600160401b031611612ac95760405162461bcd60e51b815260206004820152601160248201527045787069726564205369676e617475726560781b60448201526064016109bf565b612af3887f9027b951cbdf8eff67da583391d218a57a89ec1ebfcb1c66da188e8531804d55613a35565b9050612afd565b50335b6000612b11612b0c8a80614f21565b613695565b6001600160e01b031989166000908152604a60205260408120549192506001600160a01b0390911690612b44828b613b04565b90506000612b5185613b3b565b60405163a66ce52f60e01b8152600481018690526024810184905260448101829052909150309063a66ce52f90606401600060405180830381600087803b158015612b9b57600080fd5b505af1158015612baf573d6000803e3d6000fd5b50505060008581526048602052604081209150612bcd604485613b7a565b919e919d50949b509099509397509295505050505050565b604051635fbcdb4b60e01b81526004810185905260248101849052604481018390526064810182905260009073__$2d579bb033d9a5a879e51507e5bfda47fd$__90635fbcdb4b90608401602060405180830381865af4158015612c4d573d6000803e3d6000fd5b505050506040513d601f19601f820116820180604052508101906112d99190614f90565b6001816007811115612c8557612c85614754565b03612ca35760405163e15df99b60e01b815260040160405180910390fd5b6002816007811115612cb757612cb7614754565b03612cd55760405163c38331b560e01b815260040160405180910390fd5b6003816007811115612ce957612ce9614754565b03612d075760405163dab65f4760e01b815260040160405180910390fd5b6004816007811115612d1b57612d1b614754565b03612d3957604051633f4b20a160e11b815260040160405180910390fd5b6005816007811115612d4d57612d4d614754565b03612d6b576040516308fa537360e01b815260040160405180910390fd5b6006816007811115612d7f57612d7f614754565b03612d9d5760405163ae0903a160e01b815260040160405180910390fd5b6007816007811115612db157612db1614754565b03612dcf5760405163d59825eb60e01b815260040160405180910390fd5b60405162461bcd60e51b815260206004820152600b60248201526a2ab735b737bbb71022a92960a91b60448201526064016109bf565b50565b6000610971825490565b6002546040805163172cb29d60e11b81523060048201526001600160e01b03198416602482015233604482015290516000926001600160a01b031691632e59653a916064808301926020929190829003018187875af1158015612e79573d6000803e3d6000fd5b505050506040513d601f19601f820116820180604052508101906109719190614fb1565b612ea561448e565b60405163d58bf39760e01b815260446004820181905260248201859052810183905273__$2d579bb033d9a5a879e51507e5bfda47fd$__9063d58bf39790606401600060405180830381865af4158015612f03573d6000803e3d6000fd5b505050506040513d6000823e601f3d908101601f19168201604052610df59190810190615050565b60008080612f398685613c5c565b9150915080612f4d57600092505050610df5565b6000858152600287016020526040902060038082810154640100000000900460ff1690811115612f7f57612f7f614754565b14612f905760009350505050610df5565b6004830154600382015464010000000090910460ff908116620100009092041610612fc15760009350505050610df5565b5060019695505050505050565b6000806000612fdc84613b3b565b90506000613045604051602001613020907f545950452e4c4956454c595f50524f46494c452e4c4956454c595f4d415354458152602960f91b602082015260210190565b6040516020818303038152906040528051906020012087613cb990919063ffffffff16565b60008381526005820160205260408120549192506130638883613d90565b6002015460008181526001808b016020526040909120015460ff1696509450505050505b9250929050565b604051632a663f9160e21b815260009073__$2d579bb033d9a5a879e51507e5bfda47fd$__9063a998fe44906130d09089908b9088908b908b90600401615164565b602060405180830381865af41580156130ed573d6000803e3d6000fd5b505050506040513d601f19601f820116820180604052508101906131119190615234565b905080836001600160a01b0384167f07c17b912585812e8762303954bdcf32e08d284c4409dfbda55526286e41ea9c60208b01358b3561315760808e0160608f01614ec7565b60408051938452602084019290925260ff169082015260600160405180910390a450505050505050565b6000828152600285016020526040812080546131af5760405162461bcd60e51b81526004016109bf90614c67565b600260038281015465010000000000900460ff16908111156131d3576131d3614754565b10156131f15760405162461bcd60e51b81526004016109bf90614cdb565b60006132038787846000015487612be5565b9050600081600781111561321957613219614754565b146132275761322781612c71565b5095945050505050565b6001848101546000908152818701602052604081209091015460ff16905b61325c6020860186614df8565b90508110156133775773__$2d579bb033d9a5a879e51507e5bfda47fd$__639cb39939888887893561329160208c018c614df8565b888181106132a1576132a1614c51565b90506020020135886040518763ffffffff1660e01b81526004016132ca9695949392919061524d565b60006040518083038186803b1580156132e257600080fd5b505af41580156132f6573d6000803e3d6000fd5b5050863591508590506001600160a01b0385167f41187f3b0608718196effe354dd63ee782239b01588854dba9c9d91aebe9a38861333760208a018a614df8565b8681811061334757613347614c51565b9050602002013560405161335d91815260200190565b60405180910390a48061336f81614ca0565b91505061324f565b50505050505050565b606061097182613e6d565b613393612911565b6001600160a01b0316816001600160a01b0316036133dd5760405162461bcd60e51b8152602060048201526007602482015266125b1b1959d85b60ca1b60448201526064016109bf565b60006133ef637147855d60e01b612e12565b9050600081601381111561340557613405614754565b146134255780604051637f0911d160e01b81526004016109bf9190614d30565b5050565b60607f4910fdfa16fed3260ed0e7147f7cc6da11a60208b5b9406d12a635614ffd91435460ff16156134735761345e84613ec9565b50604080516000815260208101909152610df5565b6000805160206154be83398151915260001b846001600160a01b03166352d1902d6040518163ffffffff1660e01b8152600401602060405180830381865afa1580156134c3573d6000803e3d6000fd5b505050506040513d601f19601f820116820180604052508101906134e79190615234565b146135235760405162461bcd60e51b815260206004820152600c60248201526b496c6c6567616c205555505360a01b60448201526064016109bf565b6040516301ffc9a760e01b8152633d817cff60e01b60048201526001600160a01b038516906301ffc9a790602401602060405180830381865afa15801561356e573d6000803e3d6000fd5b505050506040513d601f19601f820116820180604052508101906135929190614d44565b6135cf5760405162461bcd60e51b815260206004820152600e60248201526d496c6c6567616c204950726f787960901b60448201526064016109bf565b6135da848484613ef8565b9050610df5565b60008181526001830160205260408120541515610df5565b6000610df58383613f5e565b604051632a8cc5e360e01b815260009073__$2d579bb033d9a5a879e51507e5bfda47fd$__90632a8cc5e390613649908a908a908a908a908a908a9060040161528a565b602060405180830381865af4158015613666573d6000803e3d6000fd5b505050506040513d601f19601f8201168201806040525081019061368a9190615234565b979650505050505050565b600082826040516020016136aa9291906152c2565b60405160208183030381529060405280519060200120905092915050565b7fb53127684a568b3173ae13b9f8a6016e243e63b6e8ee1178d6a717850b5d610380546001600160a01b0383166001600160a01b031990911681179091556040805191825251309133917f63fdbed5f2909ec44e3becc51e9d29654ce1447747914e8a6ebc019e7f640b8b9181900360200190a350565b60405163313c7d6760e21b815260ff8216600482015260009073__$2d579bb033d9a5a879e51507e5bfda47fd$__9063c4f1f59c90602401602060405180830381865af4158015613794573d6000803e3d6000fd5b505050506040513d601f19601f8201168201806040525081019061097191906152d2565b60007f8b73c3c69bb8fe3d512ecc4cf759cc79239f7b179b0ffacaa9a75d522b39400f60006040516020016137ed91906152ef565b60405160208183030381529060405280519060200120600160405160200161381591906152ef565b60408051601f1981840301815282825280516020918201209083019490945281019190915260608101919091524660808201523060a082015260c00160405160208183030381529060405280519060200120905090565b604e5462010000900460ff166138c45760405162461bcd60e51b815260206004820152601960248201527f436f6e7472616374204e6f7420496e697469616c697a696e670000000000000060448201526064016109bf565b60006138d18587836153b0565b5060016138df8385836153b0565b506001600160a01b03811630146139c5576001600160a01b0381163b6139175760405162461bcd60e51b81526004016109bf90614d06565b6040516301ffc9a760e01b81526331501c3960e01b60048201526001600160a01b038216906301ffc9a790602401602060405180830381865afa158015613962573d6000803e3d6000fd5b505050506040513d601f19601f820116820180604052508101906139869190614d44565b6139c05760405162461bcd60e51b815260206004820152600b60248201526a125b1b1959d85b081050d360aa1b60448201526064016109bf565b613a11565b6139d56331501c3960e01b61094c565b613a115760405162461bcd60e51b815260206004820152600d60248201526c139bdd0814dd5c1c1bdc9d1959609a1b60448201526064016109bf565b600280546001600160b01b0319166001600160a01b038316179055612967336136c8565b6000610df5613a476060850185614f21565b8080601f016020809104026020016040519081016040528093929190818152602001838380828437600092019190915250613aff9250869150613a8f9050612b0c8880614f21565b613a9f6040890160208a016146c7565b613aaf60608a0160408b01614f67565b6001600160401b031660408051602080820196909652808201949094526001600160a01b039290921660608401526080808401919091528151808403909101815260a09092019052805191012090565b614051565b6040516bffffffffffffffffffffffff19606084901b1660208201526001600160e01b0319821660348201526000906038016136aa565b6040516bffffffffffffffffffffffff19606083901b166020820152600090603401604051602081830303815290604052805190602001209050919050565b600081815260018084016020526040822090600182015460ff166005811115613ba557613ba5614754565b03613bc25760408051848152600186016020820152209150613c55565b6000600182015460ff166005811115613bdd57613bdd614754565b03613c1a5760405162461bcd60e51b815260206004820152600d60248201526c11925108139bdd08119bdd5b99609a1b60448201526064016109bf565b60405162461bcd60e51b815260206004820152601060248201526f125b1b195859db081192510814db1bdd60821b60448201526064016109bf565b5092915050565b60008181526001808401602052604082208291600182015460ff166005811115613c8857613c88614754565b03613caa57505060408051838152600185810160208301529190209150613087565b50600019946000945092505050565b60008181526020839052604081206003600182015460ff166003811115613ce257613ce2614754565b03613cfd576040805184815260208101869052209150613c55565b6000600182015460ff166003811115613d1857613d18614754565b03613d555760405162461bcd60e51b815260206004820152600d60248201526c15125108139bdd08119bdd5b99609a1b60448201526064016109bf565b60405162461bcd60e51b815260206004820152601060248201526f125b1b1959d85b081512510814db1bdd60821b60448201526064016109bf565b60008181526020839052604081206002600182015460ff166003811115613db957613db9614754565b03613dd4576040805184815260208101869052209150613c55565b6000600182015460ff166003811115613def57613def614754565b03613e2f5760405162461bcd60e51b815260206004820152601060248201526f149bdb19525908139bdd08119bdd5b9960821b60448201526064016109bf565b60405162461bcd60e51b8152602060048201526013602482015272125b1b1959d85b08149bdb1952590814db1bdd606a1b60448201526064016109bf565b606081600001805480602002602001604051908101604052809291908181526020018280548015613ebd57602002820191906000526020600020905b815481526020019060010190808311613ea9575b50505050509050919050565b6000805160206154be83398151915280546001600160a01b0319166001600160a01b0392909216919091179055565b6060613f03846140c6565b600083511180613f105750815b15613f43576135da84846040518060400160405280600b81526020016a10d85b1b0811985a5b195960aa1b81525061410a565b60408051600080825260208201909252905b50949350505050565b60008181526001830160205260408120548015614047576000613f8260018361546f565b8554909150600090613f969060019061546f565b9050818114613ffb576000866000018281548110613fb657613fb6614c51565b9060005260206000200154905080876000018481548110613fd957613fd9614c51565b6000918252602080832090910192909255918252600188019052604090208390555b855486908061400c5761400c615482565b600190038181906000526020600020016000905590558560010160008681526020019081526020016000206000905560019350505050610971565b6000915050610971565b60008061405d836141d8565b905060008061406c8387614245565b9092509050600081600481111561408557614085614754565b14613f555760405162461bcd60e51b8152602060048201526011602482015270496c6c6567616c205369676e617475726560781b60448201526064016109bf565b6140cf81613ec9565b6040516001600160a01b03821690309033907f8ee0f2bd29c0e6a975c3cc2e47cf2e01b5f23a9a8a02e0ed6a5a070269de3d2d90600090a450565b60606001600160a01b0384163b6141635760405162461bcd60e51b815260206004820152601860248201527f496c6c6567616c20436f6e74726163742041646472657373000000000000000060448201526064016109bf565b600080856001600160a01b03168560405161417e9190615498565b600060405180830381855af49150503d80600081146141b9576040519150601f19603f3d011682016040523d82523d6000602084013e6141be565b606091505b50915091506141ce8282866142b0565b9695505050505050565b6000610971306001600160a01b031663f698da256040518163ffffffff1660e01b8152600401602060405180830381865afa15801561421b573d6000803e3d6000fd5b505050506040513d601f19601f8201168201806040525081019061423f9190615234565b836142e9565b600080825160410361427b5760208301516040840151606085015160001a61426f87828585614310565b94509450505050613087565b82516040036142a457602083015160408401516142998683836143fd565b935093505050613087565b50600090506002613087565b606083156142bf575081610df5565b8251156142cf5782518084602001fd5b8160405162461bcd60e51b81526004016109bf9190614b23565b60405161190160f01b602082015260228101839052604281018290526000906062016136aa565b6000807f7fffffffffffffffffffffffffffffff5d576e7357a4501ddfe92f46681b20a083111561434757506000905060036143f4565b8460ff16601b1415801561435f57508460ff16601c14155b1561437057506000905060046143f4565b6040805160008082526020820180845289905260ff881692820192909252606081018690526080810185905260019060a0016020604051602081039080840390855afa1580156143c4573d6000803e3d6000fd5b5050604051601f1901519150506001600160a01b0381166143ed576000600192509250506143f4565b9150600090505b94509492505050565b6000806001600160ff1b0383168161441a60ff86901c601b6154aa565b905061442887828885614310565b935093505050935093915050565b50805461444290614d97565b6000825580601f10614452575050565b601f016020900490600052602060002090810190612e0591906144e8565b5080546000825590600052602060002090810190612e0591906144e8565b604080516101608101825260008082526020820181905260609282018390529181018290526080810182905260a081018290529060c082019081526020016000815260200160008152602001600081526020016000905290565b5b808211156144fd57600081556001016144e9565b5090565b60006020828403121561451357600080fd5b81356001600160e01b031981168114610df557600080fd5b60008083601f84011261453d57600080fd5b5081356001600160401b0381111561455457600080fd5b60208301915083602082850101111561308757600080fd5b80356001600160a01b038116811461110557600080fd5b60008060008060006060868803121561459b57600080fd5b85356001600160401b03808211156145b257600080fd5b6145be89838a0161452b565b909750955060208801359150808211156145d757600080fd5b506145e48882890161452b565b90945092506145f790506040870161456c565b90509295509295909350565b60006080828403121561461557600080fd5b50919050565b60008083601f84011261462d57600080fd5b5081356001600160401b0381111561464457600080fd5b6020830191508360208260051b850101111561308757600080fd5b60008060006040848603121561467457600080fd5b83356001600160401b038082111561468b57600080fd5b61469787838801614603565b945060208601359150808211156146ad57600080fd5b506146ba8682870161461b565b9497909650939450505050565b6000602082840312156146d957600080fd5b610df58261456c565b600080604083850312156146f557600080fd5b50508035926020909101359150565b60005b8381101561471f578181015183820152602001614707565b50506000910152565b60008151808452614740816020860160208601614704565b601f01601f19169290920160200192915050565b634e487b7160e01b600052602160045260246000fd5b60048110612e0557612e05614754565b6147838161476a565b9052565b60068110612e0557612e05614754565b61478381614787565b602081528151602082015260208201516040820152600060408301516101608060608501526147d3610180850183614728565b915060608501516147ea608086018261ffff169052565b50608085015161ffff811660a08601525060a085015160ff811660c08601525060c085015161481c60e086018261477a565b5060e085015161010061483181870183614797565b860151905061012061484586820183614797565b86015190506101406148598682018361477a565b860151905061486a8583018261477a565b5090949350505050565b60008083601f84011261488657600080fd5b5081356001600160401b0381111561489d57600080fd5b6020830191508360208260061b850101111561308757600080fd5b6000806000604084860312156148cd57600080fd5b83356001600160401b03808211156148e457600080fd5b6148f087838801614603565b9450602086013591508082111561490657600080fd5b506146ba86828701614874565b60008060006060848603121561492857600080fd5b505081359360208301359350604090920135919050565b60028110612e0557612e05614754565b6020810161495c8361493f565b91905290565b6020808252825182820181905260009190848201906040850190845b8181101561499a5783518352928401929184019160010161497e565b50909695505050505050565b6000806000606084860312156149bb57600080fd5b83359250602084013591506149d26040850161456c565b90509250925092565b634e487b7160e01b600052604160045260246000fd5b60405161016081016001600160401b0381118282101715614a1457614a146149db565b60405290565b604051601f8201601f191681016001600160401b0381118282101715614a4257614a426149db565b604052919050565b60006001600160401b03821115614a6357614a636149db565b50601f01601f191660200190565b8015158114612e0557600080fd5b600080600060608486031215614a9457600080fd5b614a9d8461456c565b925060208401356001600160401b03811115614ab857600080fd5b8401601f81018613614ac957600080fd5b8035614adc614ad782614a4a565b614a1a565b818152876020838501011115614af157600080fd5b816020840160208301376000602083830101528094505050506040840135614b1881614a71565b809150509250925092565b602081526000610df56020830184614728565b600080600060408486031215614b4b57600080fd5b8335925060208401356001600160401b03811115614b6857600080fd5b6146ba8682870161452b565b60028110612e0557600080fd5b600060208284031215614b9357600080fd5b8135610df581614b74565b6020808252600c908201526b125b1b1959d85b0810d85b1b60a21b604082015260600190565b6020808252600c908201526b125b9d985b1a590810d85b1b60a21b604082015260600190565b81835281816020850137506000828201602090810191909152601f909101601f19169091010190565b606081526000614c27606083018789614bea565b8281036020840152614c3a818688614bea565b91505061ffff831660408301529695505050505050565b634e487b7160e01b600052603260045260246000fd5b602080825260099082015268139bdd08119bdd5b9960ba1b604082015260600190565b634e487b7160e01b600052601160045260246000fd5b600060018201614cb257614cb2614c8a565b5060010190565b60208082526008908201526714995a9958dd195960c21b604082015260600190565b602080825260119082015270496c6c6567616c20557064617461626c6560781b604082015260600190565b60208082526010908201526f125b1b1959d85b0810dbdb9d1c9858dd60821b604082015260600190565b602081016014831061495c5761495c614754565b600060208284031215614d5657600080fd5b8151610df581614a71565b60008235609e19833603018112614d7757600080fd5b9190910192915050565b60008235603e19833603018112614d7757600080fd5b600181811c90821680614dab57607f821691505b60208210810361461557634e487b7160e01b600052602260045260246000fd5b61ffff81168114612e0557600080fd5b600060208284031215614ded57600080fd5b8135610df581614dcb565b6000808335601e19843603018112614e0f57600080fd5b8301803591506001600160401b03821115614e2957600080fd5b6020019150600581901b360382131561308757600080fd5b60048110612e0557600080fd5b600060a082019050858252843560208301526020850135614e6e81614e41565b614e778161476a565b604083015260608201939093526080015292915050565b600060208284031215614ea057600080fd5b8135610df581614e41565b6020810161495c8361476a565b60ff81168114612e0557600080fd5b600060208284031215614ed957600080fd5b8135610df581614eb8565b60ff8316815260408101614ef783614787565b8260208301529392505050565b600060208284031215614f1657600080fd5b8151610df581614b74565b6000808335601e19843603018112614f3857600080fd5b8301803591506001600160401b03821115614f5257600080fd5b60200191503681900382131561308757600080fd5b600060208284031215614f7957600080fd5b81356001600160401b0381168114610df557600080fd5b600060208284031215614fa257600080fd5b815160088110610df557600080fd5b600060208284031215614fc357600080fd5b815160148110610df557600080fd5b600082601f830112614fe357600080fd5b8151614ff1614ad782614a4a565b81815284602083860101111561500657600080fd5b611645826020830160208701614704565b805161110581614dcb565b805161110581614eb8565b805161110581614e41565b60068110612e0557600080fd5b805161110581615038565b60006020828403121561506257600080fd5b81516001600160401b038082111561507957600080fd5b90830190610160828603121561508e57600080fd5b6150966149f1565b82518152602083015160208201526040830151828111156150b657600080fd5b6150c287828601614fd2565b6040830152506150d460608401615017565b60608201526150e560808401615017565b60808201526150f660a08401615022565b60a082015261510760c0840161502d565b60c082015261511860e08401615045565b60e0820152610100915061512d828401615045565b82820152610120915061514182840161502d565b82820152610140915061515582840161502d565b91810191909152949350505050565b85815260a06020820152843560a0820152602085013560c0820152600060408601358060020b80821461519657600080fd5b60e08401525060608601356151aa81614eb8565b60ff16610100830152608086013536879003601e190181126151cb57600080fd5b86016020810190356001600160401b038111156151e757600080fd5b8036038213156151f657600080fd5b60a061012085015261520d61014085018284614bea565b925050508460408301526152246060830185614797565b8260808301529695505050505050565b60006020828403121561524657600080fd5b5051919050565b600060c08201905087825286602083015285604083015284606083015283608083015261527983614787565b8260a0830152979650505050505050565b86815260c0810161529a87614787565b602082019690965260408101949094526060840192909252608083015260a090910152919050565b8183823760009101908152919050565b6000602082840312156152e457600080fd5b8151610df581615038565b60008083546152fd81614d97565b60018281168015615315576001811461532a57615359565b60ff1984168752821515830287019450615359565b8760005260208060002060005b858110156153505781548a820152908401908201615337565b50505082870194505b50929695505050505050565b601f8211156153ab57600081815260208120601f850160051c8101602086101561538c5750805b601f850160051c820191505b81811015610ba557828155600101615398565b505050565b6001600160401b038311156153c7576153c76149db565b6153db836153d58354614d97565b83615365565b6000601f84116001811461540f57600085156153f75750838201355b600019600387901b1c1916600186901b178355612967565b600083815260209020601f19861690835b828110156154405786850135825560209485019460019092019101615420565b508682101561545d5760001960f88860031b161c19848701351681555b505060018560011b0183555050505050565b8181038181111561097157610971614c8a565b634e487b7160e01b600052603160045260246000fd5b60008251614d77818460208701614704565b8082018082111561097157610971614c8a56fe360894a13ba1a3210667c828492db98dca3e2076cc3735a920a3ca505d382bbca2646970667358221220b0f653a28b45ee14cca55e0f7351e596ac55efe83c86683f4335d9da15a4a7f664736f6c63430008130033",
  "libraries": {
    "LProfileRolePolicy": "0x8932561a695C53836269a551296Dca33Fb1fC41b"
  },
  "devdoc": {
    "author": "Sina Tadayon, https://github.com/SinaTadayon",
    "events": {
      "Initialized(address,address,address,string,string,uint16)": {
        "details": "Triggered when the contract has been initialized or reinitialized."
      },
      "ProxyLocalAdminUpdated(address,address,address)": {
        "details": "Emitted when the admin account has changed."
      }
    },
    "kind": "dev",
    "methods": {
      "proxiableUUID()": {
        "details": "Implementation of the ERC1822 {proxiableUUID} function. This returns the storage slot used by the implementation. It is used to validate that the this implementation remains valid after an upgrade. IMPORTANT: A proxy pointing at a proxiable contract should not be considered proxiable itself, because this risks bricking a proxy that upgrades to it, by delegating to itself until out of gas. Thus it is critical that this function revert if invoked through a proxy. This is guaranteed by the `notDelegated` modifier."
      },
      "supportsInterface(bytes4)": {
        "details": "See {IERC165-supportsInterface}."
      }
    },
    "title": "Profile Policy Manager Contract",
    "version": 1
  },
  "userdoc": {
    "kind": "user",
    "methods": {},
    "version": 1
  },
  "storageLayout": {
    "storage": [
      {
        "astId": 82229,
        "contract": "src/contracts/acl/profile/policy/ProfilePolicyManager.sol:ProfilePolicyManager",
        "label": "_contractName",
        "offset": 0,
        "slot": "0",
        "type": "t_string_storage"
      },
      {
        "astId": 82231,
        "contract": "src/contracts/acl/profile/policy/ProfilePolicyManager.sol:ProfilePolicyManager",
        "label": "_contractVersion",
        "offset": 0,
        "slot": "1",
        "type": "t_string_storage"
      },
      {
        "astId": 82233,
        "contract": "src/contracts/acl/profile/policy/ProfilePolicyManager.sol:ProfilePolicyManager",
        "label": "_accessControlManager",
        "offset": 0,
        "slot": "2",
        "type": "t_address"
      },
      {
        "astId": 82236,
        "contract": "src/contracts/acl/profile/policy/ProfilePolicyManager.sol:ProfilePolicyManager",
        "label": "_sstat",
        "offset": 20,
        "slot": "2",
        "type": "t_enum(ProxySafeModeStatus)82251"
      },
      {
        "astId": 82239,
        "contract": "src/contracts/acl/profile/policy/ProfilePolicyManager.sol:ProfilePolicyManager",
        "label": "_ustat",
        "offset": 21,
        "slot": "2",
        "type": "t_enum(ProxyUpdatabilityStatus)82254"
      },
      {
        "astId": 82244,
        "contract": "src/contracts/acl/profile/policy/ProfilePolicyManager.sol:ProfilePolicyManager",
        "label": "__reserved",
        "offset": 0,
        "slot": "3",
        "type": "t_array(t_uint256)64_storage"
      },
      {
        "astId": 10383,
        "contract": "src/contracts/acl/profile/policy/ProfilePolicyManager.sol:ProfilePolicyManager",
        "label": "_firstInit",
        "offset": 0,
        "slot": "67",
        "type": "t_bool"
      },
      {
        "astId": 10386,
        "contract": "src/contracts/acl/profile/policy/ProfilePolicyManager.sol:ProfilePolicyManager",
        "label": "_data",
        "offset": 0,
        "slot": "68",
        "type": "t_struct(DataCollection)10239_storage"
      },
      {
        "astId": 82432,
        "contract": "src/contracts/acl/profile/policy/ProfilePolicyManager.sol:ProfilePolicyManager",
        "label": "_initialized",
        "offset": 0,
        "slot": "78",
        "type": "t_uint16"
      },
      {
        "astId": 82435,
        "contract": "src/contracts/acl/profile/policy/ProfilePolicyManager.sol:ProfilePolicyManager",
        "label": "_initializing",
        "offset": 2,
        "slot": "78",
        "type": "t_bool"
      }
    ],
    "types": {
      "t_address": {
        "encoding": "inplace",
        "label": "address",
        "numberOfBytes": "20"
      },
      "t_array(t_bytes32)dyn_storage": {
        "base": "t_bytes32",
        "encoding": "dynamic_array",
        "label": "bytes32[]",
        "numberOfBytes": "32"
      },
      "t_array(t_uint256)64_storage": {
        "base": "t_uint256",
        "encoding": "inplace",
        "label": "uint256[64]",
        "numberOfBytes": "2048"
      },
      "t_bool": {
        "encoding": "inplace",
        "label": "bool",
        "numberOfBytes": "1"
      },
      "t_bytes32": {
        "encoding": "inplace",
        "label": "bytes32",
        "numberOfBytes": "32"
      },
      "t_bytes4": {
        "encoding": "inplace",
        "label": "bytes4",
        "numberOfBytes": "4"
      },
      "t_enum(ActivityStatus)11721": {
        "encoding": "inplace",
        "label": "enum IACLCommons.ActivityStatus",
        "numberOfBytes": "1"
      },
      "t_enum(AgentType)11716": {
        "encoding": "inplace",
        "label": "enum IACLCommons.AgentType",
        "numberOfBytes": "1"
      },
      "t_enum(AlterabilityStatus)11726": {
        "encoding": "inplace",
        "label": "enum IACLCommons.AlterabilityStatus",
        "numberOfBytes": "1"
      },
      "t_enum(PolicyType)11744": {
        "encoding": "inplace",
        "label": "enum IACLCommons.PolicyType",
        "numberOfBytes": "1"
      },
      "t_enum(ProxySafeModeStatus)82251": {
        "encoding": "inplace",
        "label": "enum IBaseProxy.ProxySafeModeStatus",
        "numberOfBytes": "1"
      },
      "t_enum(ProxyUpdatabilityStatus)82254": {
        "encoding": "inplace",
        "label": "enum IBaseProxy.ProxyUpdatabilityStatus",
        "numberOfBytes": "1"
      },
      "t_enum(ScopeType)11733": {
        "encoding": "inplace",
        "label": "enum IACLCommons.ScopeType",
        "numberOfBytes": "1"
      },
      "t_mapping(t_address,t_struct(FacetEntity)11945_storage)": {
        "encoding": "mapping",
        "key": "t_address",
        "label": "mapping(address => struct IACLCommons.FacetEntity)",
        "numberOfBytes": "32",
        "value": "t_struct(FacetEntity)11945_storage"
      },
      "t_mapping(t_address,t_struct(ProfileAccount)12018_storage)": {
        "encoding": "mapping",
        "key": "t_address",
        "label": "mapping(address => struct IACLCommons.ProfileAccount)",
        "numberOfBytes": "32",
        "value": "t_struct(ProfileAccount)12018_storage"
      },
      "t_mapping(t_bytes32,t_bytes32)": {
        "encoding": "mapping",
        "key": "t_bytes32",
        "label": "mapping(bytes32 => bytes32)",
        "numberOfBytes": "32",
        "value": "t_bytes32"
      },
      "t_mapping(t_bytes32,t_struct(BaseAgent)11756_storage)": {
        "encoding": "mapping",
        "key": "t_bytes32",
        "label": "mapping(bytes32 => struct IACLCommons.BaseAgent)",
        "numberOfBytes": "32",
        "value": "t_struct(BaseAgent)11756_storage"
      },
      "t_mapping(t_bytes32,t_struct(BaseScope)11770_storage)": {
        "encoding": "mapping",
        "key": "t_bytes32",
        "label": "mapping(bytes32 => struct IACLCommons.BaseScope)",
        "numberOfBytes": "32",
        "value": "t_struct(BaseScope)11770_storage"
      },
      "t_mapping(t_bytes32,t_struct(PolicyEntity)11793_storage)": {
        "encoding": "mapping",
        "key": "t_bytes32",
        "label": "mapping(bytes32 => struct IACLCommons.PolicyEntity)",
        "numberOfBytes": "32",
        "value": "t_struct(PolicyEntity)11793_storage"
      },
      "t_mapping(t_bytes32,t_struct(ProfileEntity)12059_storage)": {
        "encoding": "mapping",
        "key": "t_bytes32",
        "label": "mapping(bytes32 => struct IACLCommons.ProfileEntity)",
        "numberOfBytes": "32",
        "value": "t_struct(ProfileEntity)12059_storage"
      },
      "t_mapping(t_bytes32,t_uint256)": {
        "encoding": "mapping",
        "key": "t_bytes32",
        "label": "mapping(bytes32 => uint256)",
        "numberOfBytes": "32",
        "value": "t_uint256"
      },
      "t_mapping(t_bytes4,t_address)": {
        "encoding": "mapping",
        "key": "t_bytes4",
        "label": "mapping(bytes4 => address)",
        "numberOfBytes": "32",
        "value": "t_address"
      },
      "t_string_storage": {
        "encoding": "bytes",
        "label": "string",
        "numberOfBytes": "32"
      },
      "t_struct(AddressSet)79783_storage": {
        "encoding": "inplace",
        "label": "struct LEnumerableSet.AddressSet",
        "members": [
          {
            "astId": 79782,
            "contract": "src/contracts/acl/profile/policy/ProfilePolicyManager.sol:ProfilePolicyManager",
            "label": "_inner",
            "offset": 0,
            "slot": "0",
            "type": "t_struct(Set)79482_storage"
          }
        ],
        "numberOfBytes": "64"
      },
      "t_struct(BaseAgent)11756_storage": {
        "encoding": "inplace",
        "label": "struct IACLCommons.BaseAgent",
        "members": [
          {
            "astId": 11746,
            "contract": "src/contracts/acl/profile/policy/ProfilePolicyManager.sol:ProfilePolicyManager",
            "label": "adminId",
            "offset": 0,
            "slot": "0",
            "type": "t_bytes32"
          },
          {
            "astId": 11749,
            "contract": "src/contracts/acl/profile/policy/ProfilePolicyManager.sol:ProfilePolicyManager",
            "label": "atype",
            "offset": 0,
            "slot": "1",
            "type": "t_enum(AgentType)11716"
          },
          {
            "astId": 11752,
            "contract": "src/contracts/acl/profile/policy/ProfilePolicyManager.sol:ProfilePolicyManager",
            "label": "acstat",
            "offset": 1,
            "slot": "1",
            "type": "t_enum(ActivityStatus)11721"
          },
          {
            "astId": 11755,
            "contract": "src/contracts/acl/profile/policy/ProfilePolicyManager.sol:ProfilePolicyManager",
            "label": "alstat",
            "offset": 2,
            "slot": "1",
            "type": "t_enum(AlterabilityStatus)11726"
          }
        ],
        "numberOfBytes": "64"
      },
      "t_struct(BaseScope)11770_storage": {
        "encoding": "inplace",
        "label": "struct IACLCommons.BaseScope",
        "members": [
          {
            "astId": 11758,
            "contract": "src/contracts/acl/profile/policy/ProfilePolicyManager.sol:ProfilePolicyManager",
            "label": "adminId",
            "offset": 0,
            "slot": "0",
            "type": "t_bytes32"
          },
          {
            "astId": 11761,
            "contract": "src/contracts/acl/profile/policy/ProfilePolicyManager.sol:ProfilePolicyManager",
            "label": "stype",
            "offset": 0,
            "slot": "1",
            "type": "t_enum(ScopeType)11733"
          },
          {
            "astId": 11764,
            "contract": "src/contracts/acl/profile/policy/ProfilePolicyManager.sol:ProfilePolicyManager",
            "label": "acstat",
            "offset": 1,
            "slot": "1",
            "type": "t_enum(ActivityStatus)11721"
          },
          {
            "astId": 11767,
            "contract": "src/contracts/acl/profile/policy/ProfilePolicyManager.sol:ProfilePolicyManager",
            "label": "alstat",
            "offset": 2,
            "slot": "1",
            "type": "t_enum(AlterabilityStatus)11726"
          },
          {
            "astId": 11769,
            "contract": "src/contracts/acl/profile/policy/ProfilePolicyManager.sol:ProfilePolicyManager",
            "label": "referredByAgent",
            "offset": 3,
            "slot": "1",
            "type": "t_uint32"
          }
        ],
        "numberOfBytes": "64"
      },
      "t_struct(Bytes32Set)79676_storage": {
        "encoding": "inplace",
        "label": "struct LEnumerableSet.Bytes32Set",
        "members": [
          {
            "astId": 79675,
            "contract": "src/contracts/acl/profile/policy/ProfilePolicyManager.sol:ProfilePolicyManager",
            "label": "_inner",
            "offset": 0,
            "slot": "0",
            "type": "t_struct(Set)79482_storage"
          }
        ],
        "numberOfBytes": "64"
      },
      "t_struct(DataCollection)10239_storage": {
        "encoding": "inplace",
        "label": "struct ACLStorage.DataCollection",
        "members": [
          {
            "astId": 10202,
            "contract": "src/contracts/acl/profile/policy/ProfilePolicyManager.sol:ProfilePolicyManager",
            "label": "agents",
            "offset": 0,
            "slot": "0",
            "type": "t_mapping(t_bytes32,t_struct(BaseAgent)11756_storage)"
          },
          {
            "astId": 10207,
            "contract": "src/contracts/acl/profile/policy/ProfilePolicyManager.sol:ProfilePolicyManager",
            "label": "scopes",
            "offset": 0,
            "slot": "1",
            "type": "t_mapping(t_bytes32,t_struct(BaseScope)11770_storage)"
          },
          {
            "astId": 10212,
            "contract": "src/contracts/acl/profile/policy/ProfilePolicyManager.sol:ProfilePolicyManager",
            "label": "policies",
            "offset": 0,
            "slot": "2",
            "type": "t_mapping(t_bytes32,t_struct(PolicyEntity)11793_storage)"
          },
          {
            "astId": 10216,
            "contract": "src/contracts/acl/profile/policy/ProfilePolicyManager.sol:ProfilePolicyManager",
            "label": "rolePolicyMap",
            "offset": 0,
            "slot": "3",
            "type": "t_mapping(t_bytes32,t_bytes32)"
          },
          {
            "astId": 10221,
            "contract": "src/contracts/acl/profile/policy/ProfilePolicyManager.sol:ProfilePolicyManager",
            "label": "profiles",
            "offset": 0,
            "slot": "4",
            "type": "t_mapping(t_bytes32,t_struct(ProfileEntity)12059_storage)"
          },
          {
            "astId": 10226,
            "contract": "src/contracts/acl/profile/policy/ProfilePolicyManager.sol:ProfilePolicyManager",
            "label": "profileAccounts",
            "offset": 0,
            "slot": "5",
            "type": "t_mapping(t_address,t_struct(ProfileAccount)12018_storage)"
          },
          {
            "astId": 10230,
            "contract": "src/contracts/acl/profile/policy/ProfilePolicyManager.sol:ProfilePolicyManager",
            "label": "selectors",
            "offset": 0,
            "slot": "6",
            "type": "t_mapping(t_bytes4,t_address)"
          },
          {
            "astId": 10235,
            "contract": "src/contracts/acl/profile/policy/ProfilePolicyManager.sol:ProfilePolicyManager",
            "label": "facets",
            "offset": 0,
            "slot": "7",
            "type": "t_mapping(t_address,t_struct(FacetEntity)11945_storage)"
          },
          {
            "astId": 10238,
            "contract": "src/contracts/acl/profile/policy/ProfilePolicyManager.sol:ProfilePolicyManager",
            "label": "facetSet",
            "offset": 0,
            "slot": "8",
            "type": "t_struct(AddressSet)79783_storage"
          }
        ],
        "numberOfBytes": "320"
      },
      "t_struct(FacetEntity)11945_storage": {
        "encoding": "inplace",
        "label": "struct IACLCommons.FacetEntity",
        "members": [
          {
            "astId": 11944,
            "contract": "src/contracts/acl/profile/policy/ProfilePolicyManager.sol:ProfilePolicyManager",
            "label": "subjectId",
            "offset": 0,
            "slot": "0",
            "type": "t_address"
          }
        ],
        "numberOfBytes": "32"
      },
      "t_struct(PolicyEntity)11793_storage": {
        "encoding": "inplace",
        "label": "struct IACLCommons.PolicyEntity",
        "members": [
          {
            "astId": 11772,
            "contract": "src/contracts/acl/profile/policy/ProfilePolicyManager.sol:ProfilePolicyManager",
            "label": "adminId",
            "offset": 0,
            "slot": "0",
            "type": "t_bytes32"
          },
          {
            "astId": 11774,
            "contract": "src/contracts/acl/profile/policy/ProfilePolicyManager.sol:ProfilePolicyManager",
            "label": "scopeId",
            "offset": 0,
            "slot": "1",
            "type": "t_bytes32"
          },
          {
            "astId": 11776,
            "contract": "src/contracts/acl/profile/policy/ProfilePolicyManager.sol:ProfilePolicyManager",
            "label": "name",
            "offset": 0,
            "slot": "2",
            "type": "t_string_storage"
          },
          {
            "astId": 11778,
            "contract": "src/contracts/acl/profile/policy/ProfilePolicyManager.sol:ProfilePolicyManager",
            "label": "roleLimit",
            "offset": 0,
            "slot": "3",
            "type": "t_uint16"
          },
          {
            "astId": 11780,
            "contract": "src/contracts/acl/profile/policy/ProfilePolicyManager.sol:ProfilePolicyManager",
            "label": "policyCode",
            "offset": 2,
            "slot": "3",
            "type": "t_uint8"
          },
          {
            "astId": 11783,
            "contract": "src/contracts/acl/profile/policy/ProfilePolicyManager.sol:ProfilePolicyManager",
            "label": "ptype",
            "offset": 3,
            "slot": "3",
            "type": "t_enum(PolicyType)11744"
          },
          {
            "astId": 11786,
            "contract": "src/contracts/acl/profile/policy/ProfilePolicyManager.sol:ProfilePolicyManager",
            "label": "acstat",
            "offset": 4,
            "slot": "3",
            "type": "t_enum(ActivityStatus)11721"
          },
          {
            "astId": 11789,
            "contract": "src/contracts/acl/profile/policy/ProfilePolicyManager.sol:ProfilePolicyManager",
            "label": "alstat",
            "offset": 5,
            "slot": "3",
            "type": "t_enum(AlterabilityStatus)11726"
          },
          {
            "astId": 11792,
            "contract": "src/contracts/acl/profile/policy/ProfilePolicyManager.sol:ProfilePolicyManager",
            "label": "roles",
            "offset": 0,
            "slot": "4",
            "type": "t_struct(Bytes32Set)79676_storage"
          }
        ],
        "numberOfBytes": "192"
      },
      "t_struct(ProfileAccount)12018_storage": {
        "encoding": "inplace",
        "label": "struct IACLCommons.ProfileAccount",
        "members": [
          {
            "astId": 12017,
            "contract": "src/contracts/acl/profile/policy/ProfilePolicyManager.sol:ProfilePolicyManager",
            "label": "profiles",
            "offset": 0,
            "slot": "0",
            "type": "t_array(t_bytes32)dyn_storage"
          }
        ],
        "numberOfBytes": "32"
      },
      "t_struct(ProfileEntity)12059_storage": {
        "encoding": "inplace",
        "label": "struct IACLCommons.ProfileEntity",
        "members": [
          {
            "astId": 12023,
            "contract": "src/contracts/acl/profile/policy/ProfilePolicyManager.sol:ProfilePolicyManager",
            "label": "agents",
            "offset": 0,
            "slot": "0",
            "type": "t_mapping(t_bytes32,t_struct(BaseAgent)11756_storage)"
          },
          {
            "astId": 12028,
            "contract": "src/contracts/acl/profile/policy/ProfilePolicyManager.sol:ProfilePolicyManager",
            "label": "scopes",
            "offset": 0,
            "slot": "1",
            "type": "t_mapping(t_bytes32,t_struct(BaseScope)11770_storage)"
          },
          {
            "astId": 12033,
            "contract": "src/contracts/acl/profile/policy/ProfilePolicyManager.sol:ProfilePolicyManager",
            "label": "policies",
            "offset": 0,
            "slot": "2",
            "type": "t_mapping(t_bytes32,t_struct(PolicyEntity)11793_storage)"
          },
          {
            "astId": 12037,
            "contract": "src/contracts/acl/profile/policy/ProfilePolicyManager.sol:ProfilePolicyManager",
            "label": "rolePolicyMap",
            "offset": 0,
            "slot": "3",
            "type": "t_mapping(t_bytes32,t_bytes32)"
          },
          {
            "astId": 12040,
            "contract": "src/contracts/acl/profile/policy/ProfilePolicyManager.sol:ProfilePolicyManager",
            "label": "admins",
            "offset": 0,
            "slot": "4",
            "type": "t_struct(Bytes32Set)79676_storage"
          },
          {
            "astId": 12042,
            "contract": "src/contracts/acl/profile/policy/ProfilePolicyManager.sol:ProfilePolicyManager",
            "label": "adminId",
            "offset": 0,
            "slot": "6",
            "type": "t_bytes32"
          },
          {
            "astId": 12044,
            "contract": "src/contracts/acl/profile/policy/ProfilePolicyManager.sol:ProfilePolicyManager",
            "label": "name",
            "offset": 0,
            "slot": "7",
            "type": "t_string_storage"
          },
          {
            "astId": 12046,
            "contract": "src/contracts/acl/profile/policy/ProfilePolicyManager.sol:ProfilePolicyManager",
            "label": "owner",
            "offset": 0,
            "slot": "8",
            "type": "t_address"
          },
          {
            "astId": 12049,
            "contract": "src/contracts/acl/profile/policy/ProfilePolicyManager.sol:ProfilePolicyManager",
            "label": "acstat",
            "offset": 20,
            "slot": "8",
            "type": "t_enum(ActivityStatus)11721"
          },
          {
            "astId": 12052,
            "contract": "src/contracts/acl/profile/policy/ProfilePolicyManager.sol:ProfilePolicyManager",
            "label": "alstat",
            "offset": 21,
            "slot": "8",
            "type": "t_enum(AlterabilityStatus)11726"
          },
          {
            "astId": 12055,
            "contract": "src/contracts/acl/profile/policy/ProfilePolicyManager.sol:ProfilePolicyManager",
            "label": "registerLimits",
            "offset": 0,
            "slot": "9",
            "type": "t_struct(ProfileRegisterLimit)11993_storage"
          },
          {
            "astId": 12058,
            "contract": "src/contracts/acl/profile/policy/ProfilePolicyManager.sol:ProfilePolicyManager",
            "label": "limits",
            "offset": 0,
            "slot": "10",
            "type": "t_struct(ProfileLimit)12014_storage"
          }
        ],
        "numberOfBytes": "352"
      },
      "t_struct(ProfileLimit)12014_storage": {
        "encoding": "inplace",
        "label": "struct IACLCommons.ProfileLimit",
        "members": [
          {
            "astId": 11995,
            "contract": "src/contracts/acl/profile/policy/ProfilePolicyManager.sol:ProfilePolicyManager",
            "label": "profileCallLimit",
            "offset": 0,
            "slot": "0",
            "type": "t_uint32"
          },
          {
            "astId": 11997,
            "contract": "src/contracts/acl/profile/policy/ProfilePolicyManager.sol:ProfilePolicyManager",
            "label": "contextLimit",
            "offset": 4,
            "slot": "0",
            "type": "t_uint32"
          },
          {
            "astId": 11999,
            "contract": "src/contracts/acl/profile/policy/ProfilePolicyManager.sol:ProfilePolicyManager",
            "label": "memberLimit",
            "offset": 8,
            "slot": "0",
            "type": "t_uint24"
          },
          {
            "astId": 12001,
            "contract": "src/contracts/acl/profile/policy/ProfilePolicyManager.sol:ProfilePolicyManager",
            "label": "realmLimit",
            "offset": 11,
            "slot": "0",
            "type": "t_uint16"
          },
          {
            "astId": 12003,
            "contract": "src/contracts/acl/profile/policy/ProfilePolicyManager.sol:ProfilePolicyManager",
            "label": "domainLimit",
            "offset": 13,
            "slot": "0",
            "type": "t_uint16"
          },
          {
            "astId": 12005,
            "contract": "src/contracts/acl/profile/policy/ProfilePolicyManager.sol:ProfilePolicyManager",
            "label": "memberCallLimit",
            "offset": 15,
            "slot": "0",
            "type": "t_uint16"
          },
          {
            "astId": 12007,
            "contract": "src/contracts/acl/profile/policy/ProfilePolicyManager.sol:ProfilePolicyManager",
            "label": "typeRoleLimit",
            "offset": 17,
            "slot": "0",
            "type": "t_uint16"
          },
          {
            "astId": 12009,
            "contract": "src/contracts/acl/profile/policy/ProfilePolicyManager.sol:ProfilePolicyManager",
            "label": "typeLimit",
            "offset": 19,
            "slot": "0",
            "type": "t_uint16"
          },
          {
            "astId": 12011,
            "contract": "src/contracts/acl/profile/policy/ProfilePolicyManager.sol:ProfilePolicyManager",
            "label": "policyRoleLimit",
            "offset": 21,
            "slot": "0",
            "type": "t_uint16"
          },
          {
            "astId": 12013,
            "contract": "src/contracts/acl/profile/policy/ProfilePolicyManager.sol:ProfilePolicyManager",
            "label": "functionLimit",
            "offset": 23,
            "slot": "0",
            "type": "t_uint8"
          }
        ],
        "numberOfBytes": "32"
      },
      "t_struct(ProfileRegisterLimit)11993_storage": {
        "encoding": "inplace",
        "label": "struct IACLCommons.ProfileRegisterLimit",
        "members": [
          {
            "astId": 11978,
            "contract": "src/contracts/acl/profile/policy/ProfilePolicyManager.sol:ProfilePolicyManager",
            "label": "memberRegisterLimit",
            "offset": 0,
            "slot": "0",
            "type": "t_uint32"
          },
          {
            "astId": 11980,
            "contract": "src/contracts/acl/profile/policy/ProfilePolicyManager.sol:ProfilePolicyManager",
            "label": "roleRegisterLimit",
            "offset": 4,
            "slot": "0",
            "type": "t_uint32"
          },
          {
            "astId": 11982,
            "contract": "src/contracts/acl/profile/policy/ProfilePolicyManager.sol:ProfilePolicyManager",
            "label": "typeRegisterLimit",
            "offset": 8,
            "slot": "0",
            "type": "t_uint32"
          },
          {
            "astId": 11984,
            "contract": "src/contracts/acl/profile/policy/ProfilePolicyManager.sol:ProfilePolicyManager",
            "label": "functionRegisterLimit",
            "offset": 12,
            "slot": "0",
            "type": "t_uint32"
          },
          {
            "astId": 11986,
            "contract": "src/contracts/acl/profile/policy/ProfilePolicyManager.sol:ProfilePolicyManager",
            "label": "contextRegisterLimit",
            "offset": 16,
            "slot": "0",
            "type": "t_uint32"
          },
          {
            "astId": 11988,
            "contract": "src/contracts/acl/profile/policy/ProfilePolicyManager.sol:ProfilePolicyManager",
            "label": "realmRegisterLimit",
            "offset": 20,
            "slot": "0",
            "type": "t_uint16"
          },
          {
            "astId": 11990,
            "contract": "src/contracts/acl/profile/policy/ProfilePolicyManager.sol:ProfilePolicyManager",
            "label": "domainRegisterLimit",
            "offset": 22,
            "slot": "0",
            "type": "t_uint16"
          },
          {
            "astId": 11992,
            "contract": "src/contracts/acl/profile/policy/ProfilePolicyManager.sol:ProfilePolicyManager",
            "label": "policyRegisterLimit",
            "offset": 24,
            "slot": "0",
            "type": "t_uint16"
          }
        ],
        "numberOfBytes": "32"
      },
      "t_struct(Set)79482_storage": {
        "encoding": "inplace",
        "label": "struct LEnumerableSet.Set",
        "members": [
          {
            "astId": 79477,
            "contract": "src/contracts/acl/profile/policy/ProfilePolicyManager.sol:ProfilePolicyManager",
            "label": "_values",
            "offset": 0,
            "slot": "0",
            "type": "t_array(t_bytes32)dyn_storage"
          },
          {
            "astId": 79481,
            "contract": "src/contracts/acl/profile/policy/ProfilePolicyManager.sol:ProfilePolicyManager",
            "label": "_indexes",
            "offset": 0,
            "slot": "1",
            "type": "t_mapping(t_bytes32,t_uint256)"
          }
        ],
        "numberOfBytes": "64"
      },
      "t_uint16": {
        "encoding": "inplace",
        "label": "uint16",
        "numberOfBytes": "2"
      },
      "t_uint24": {
        "encoding": "inplace",
        "label": "uint24",
        "numberOfBytes": "3"
      },
      "t_uint256": {
        "encoding": "inplace",
        "label": "uint256",
        "numberOfBytes": "32"
      },
      "t_uint32": {
        "encoding": "inplace",
        "label": "uint32",
        "numberOfBytes": "4"
      },
      "t_uint8": {
        "encoding": "inplace",
        "label": "uint8",
        "numberOfBytes": "1"
      }
    }
  }
}