{
  "address": "0x6c33297adeE1e250cd0E8Be09fcF5360A3Ee5616",
  "abi": [
    {
      "inputs": [],
      "stateMutability": "nonpayable",
      "type": "constructor"
    },
    {
      "inputs": [
        {
          "internalType": "enum IACL.AuthorizationStatus",
          "name": "",
          "type": "uint8"
        }
      ],
      "name": "ACLActionForbidden",
      "type": "error"
    },
    {
      "inputs": [],
      "name": "ProfileAdminAccessFunctionNotFound",
      "type": "error"
    },
    {
      "inputs": [],
      "name": "ProfileAdminAccessNotPermitted",
      "type": "error"
    },
    {
      "inputs": [],
      "name": "ProfileAdminAccessPolicyForbidden",
      "type": "error"
    },
    {
      "inputs": [],
      "name": "ProfileAdminAccessRoleActivityForbidden",
      "type": "error"
    },
    {
      "inputs": [],
      "name": "ProfileAdminAccessRoleNotFound",
      "type": "error"
    },
    {
      "inputs": [],
      "name": "ProfileAdminAccessTypeActivityForbidden",
      "type": "error"
    },
    {
      "inputs": [],
      "name": "ProfileAdminAccessTypeNotFound",
      "type": "error"
    },
    {
      "anonymous": false,
      "inputs": [
        {
          "indexed": true,
          "internalType": "address",
          "name": "sender",
          "type": "address"
        },
        {
          "indexed": true,
          "internalType": "address",
          "name": "proxy",
          "type": "address"
        },
        {
          "indexed": true,
          "internalType": "address",
          "name": "subject",
          "type": "address"
        },
        {
          "indexed": false,
          "internalType": "string",
          "name": "name",
          "type": "string"
        },
        {
          "indexed": false,
          "internalType": "string",
          "name": "version",
          "type": "string"
        },
        {
          "indexed": false,
          "internalType": "uint16",
          "name": "initCount",
          "type": "uint16"
        }
      ],
      "name": "Initialized",
      "type": "event"
    },
    {
      "anonymous": false,
      "inputs": [
        {
          "indexed": true,
          "internalType": "address",
          "name": "sender",
          "type": "address"
        },
        {
          "indexed": true,
          "internalType": "bytes32",
          "name": "profileId",
          "type": "bytes32"
        },
        {
          "indexed": true,
          "internalType": "bytes32",
          "name": "domainId",
          "type": "bytes32"
        },
        {
          "indexed": false,
          "internalType": "enum IACLCommons.ActivityStatus",
          "name": "acstat",
          "type": "uint8"
        }
      ],
      "name": "ProfileDomainActivityUpdated",
      "type": "event"
    },
    {
      "anonymous": false,
      "inputs": [
        {
          "indexed": true,
          "internalType": "address",
          "name": "sender",
          "type": "address"
        },
        {
          "indexed": true,
          "internalType": "bytes32",
          "name": "profileId",
          "type": "bytes32"
        },
        {
          "indexed": true,
          "internalType": "bytes32",
          "name": "domainId",
          "type": "bytes32"
        },
        {
          "indexed": false,
          "internalType": "bytes32",
          "name": "adminId",
          "type": "bytes32"
        }
      ],
      "name": "ProfileDomainAdminUpdated",
      "type": "event"
    },
    {
      "anonymous": false,
      "inputs": [
        {
          "indexed": true,
          "internalType": "address",
          "name": "sender",
          "type": "address"
        },
        {
          "indexed": true,
          "internalType": "bytes32",
          "name": "profileId",
          "type": "bytes32"
        },
        {
          "indexed": true,
          "internalType": "bytes32",
          "name": "domainId",
          "type": "bytes32"
        },
        {
          "indexed": false,
          "internalType": "enum IACLCommons.AlterabilityStatus",
          "name": "alstat",
          "type": "uint8"
        }
      ],
      "name": "ProfileDomainAlterabilityUpdated",
      "type": "event"
    },
    {
      "anonymous": false,
      "inputs": [
        {
          "indexed": true,
          "internalType": "address",
          "name": "sender",
          "type": "address"
        },
        {
          "indexed": true,
          "internalType": "bytes32",
          "name": "profileId",
          "type": "bytes32"
        },
        {
          "indexed": true,
          "internalType": "bytes32",
          "name": "domainId",
          "type": "bytes32"
        },
        {
          "indexed": false,
          "internalType": "uint16",
          "name": "realmLimit",
          "type": "uint16"
        }
      ],
      "name": "ProfileDomainRealmLimitUpdated",
      "type": "event"
    },
    {
      "anonymous": false,
      "inputs": [
        {
          "indexed": true,
          "internalType": "address",
          "name": "sender",
          "type": "address"
        },
        {
          "indexed": true,
          "internalType": "bytes32",
          "name": "profileId",
          "type": "bytes32"
        },
        {
          "indexed": true,
          "internalType": "bytes32",
          "name": "domainId",
          "type": "bytes32"
        },
        {
          "indexed": false,
          "internalType": "bytes32",
          "name": "realmId",
          "type": "bytes32"
        },
        {
          "indexed": false,
          "internalType": "bytes32",
          "name": "newDomainId",
          "type": "bytes32"
        }
      ],
      "name": "ProfileDomainRealmMoved",
      "type": "event"
    },
    {
      "anonymous": false,
      "inputs": [
        {
          "indexed": true,
          "internalType": "address",
          "name": "sender",
          "type": "address"
        },
        {
          "indexed": true,
          "internalType": "bytes32",
          "name": "profileId",
          "type": "bytes32"
        },
        {
          "indexed": true,
          "internalType": "bytes32",
          "name": "domainId",
          "type": "bytes32"
        },
        {
          "indexed": false,
          "internalType": "bytes32",
          "name": "adminId",
          "type": "bytes32"
        }
      ],
      "name": "ProfileDomainRegistered",
      "type": "event"
    },
    {
      "anonymous": false,
      "inputs": [
        {
          "indexed": true,
          "internalType": "address",
          "name": "sender",
          "type": "address"
        },
        {
          "indexed": true,
          "internalType": "bytes32",
          "name": "profileId",
          "type": "bytes32"
        },
        {
          "indexed": true,
          "internalType": "bytes32",
          "name": "domainId",
          "type": "bytes32"
        },
        {
          "indexed": false,
          "internalType": "bool",
          "name": "isSoftDeleted",
          "type": "bool"
        }
      ],
      "name": "ProfileDomainRemoved",
      "type": "event"
    },
    {
      "anonymous": false,
      "inputs": [
        {
          "indexed": true,
          "internalType": "address",
          "name": "sender",
          "type": "address"
        },
        {
          "indexed": true,
          "internalType": "address",
          "name": "proxy",
          "type": "address"
        },
        {
          "indexed": false,
          "internalType": "address",
          "name": "acl",
          "type": "address"
        }
      ],
      "name": "ProxyAccessControlUpdated",
      "type": "event"
    },
    {
      "anonymous": false,
      "inputs": [
        {
          "indexed": true,
          "internalType": "address",
          "name": "sender",
          "type": "address"
        },
        {
          "indexed": true,
          "internalType": "address",
          "name": "proxy",
          "type": "address"
        },
        {
          "indexed": false,
          "internalType": "address",
          "name": "newAdmin",
          "type": "address"
        }
      ],
      "name": "ProxyLocalAdminUpdated",
      "type": "event"
    },
    {
      "anonymous": false,
      "inputs": [
        {
          "indexed": true,
          "internalType": "address",
          "name": "sender",
          "type": "address"
        },
        {
          "indexed": true,
          "internalType": "address",
          "name": "proxy",
          "type": "address"
        },
        {
          "indexed": false,
          "internalType": "enum IBaseProxy.ProxySafeModeStatus",
          "name": "sstat",
          "type": "uint8"
        }
      ],
      "name": "ProxySafeModeUpdated",
      "type": "event"
    },
    {
      "anonymous": false,
      "inputs": [
        {
          "indexed": true,
          "internalType": "address",
          "name": "sender",
          "type": "address"
        },
        {
          "indexed": true,
          "internalType": "address",
          "name": "proxy",
          "type": "address"
        },
        {
          "indexed": false,
          "internalType": "enum IBaseProxy.ProxyUpdatabilityStatus",
          "name": "ustat",
          "type": "uint8"
        }
      ],
      "name": "ProxyUpdatabilityUpdated",
      "type": "event"
    },
    {
      "anonymous": false,
      "inputs": [
        {
          "indexed": true,
          "internalType": "address",
          "name": "sender",
          "type": "address"
        },
        {
          "indexed": true,
          "internalType": "address",
          "name": "proxy",
          "type": "address"
        },
        {
          "indexed": true,
          "internalType": "address",
          "name": "newImplementation",
          "type": "address"
        }
      ],
      "name": "ProxyUpgraded",
      "type": "event"
    },
    {
      "stateMutability": "payable",
      "type": "fallback"
    },
    {
      "inputs": [],
      "name": "CTX_MESSAGE_TYPEHASH",
      "outputs": [
        {
          "internalType": "bytes32",
          "name": "",
          "type": "bytes32"
        }
      ],
      "stateMutability": "view",
      "type": "function"
    },
    {
      "inputs": [],
      "name": "MEMBER_SIGNATURE_MESSAGE_TYPEHASH",
      "outputs": [
        {
          "internalType": "bytes32",
          "name": "",
          "type": "bytes32"
        }
      ],
      "stateMutability": "view",
      "type": "function"
    },
    {
      "inputs": [],
      "name": "PREDICT_CTX_MESSAGE_TYPEHASH",
      "outputs": [
        {
          "internalType": "bytes32",
          "name": "",
          "type": "bytes32"
        }
      ],
      "stateMutability": "view",
      "type": "function"
    },
    {
      "inputs": [],
      "name": "PROFILE_CTX_MESSAGE_TYPEHASH",
      "outputs": [
        {
          "internalType": "bytes32",
          "name": "",
          "type": "bytes32"
        }
      ],
      "stateMutability": "view",
      "type": "function"
    },
    {
      "inputs": [],
      "name": "PROFILE_MEMBER_SIGNATURE_MESSAGE_TYPEHASH",
      "outputs": [
        {
          "internalType": "bytes32",
          "name": "",
          "type": "bytes32"
        }
      ],
      "stateMutability": "view",
      "type": "function"
    },
    {
      "inputs": [],
      "name": "PROFILE_PREDICT_CTX_MESSAGE_TYPEHASH",
      "outputs": [
        {
          "internalType": "bytes32",
          "name": "",
          "type": "bytes32"
        }
      ],
      "stateMutability": "view",
      "type": "function"
    },
    {
      "inputs": [],
      "name": "TYPE_HASH",
      "outputs": [
        {
          "internalType": "bytes32",
          "name": "",
          "type": "bytes32"
        }
      ],
      "stateMutability": "view",
      "type": "function"
    },
    {
      "inputs": [],
      "name": "accessControlManager",
      "outputs": [
        {
          "internalType": "address",
          "name": "",
          "type": "address"
        }
      ],
      "stateMutability": "view",
      "type": "function"
    },
    {
      "inputs": [],
      "name": "contractName",
      "outputs": [
        {
          "internalType": "string",
          "name": "",
          "type": "string"
        }
      ],
      "stateMutability": "view",
      "type": "function"
    },
    {
      "inputs": [],
      "name": "contractVersion",
      "outputs": [
        {
          "internalType": "string",
          "name": "",
          "type": "string"
        }
      ],
      "stateMutability": "view",
      "type": "function"
    },
    {
      "inputs": [],
      "name": "domainSeparator",
      "outputs": [
        {
          "internalType": "bytes32",
          "name": "",
          "type": "bytes32"
        }
      ],
      "stateMutability": "view",
      "type": "function"
    },
    {
      "inputs": [],
      "name": "getLibrary",
      "outputs": [
        {
          "internalType": "address",
          "name": "",
          "type": "address"
        }
      ],
      "stateMutability": "pure",
      "type": "function"
    },
    {
      "inputs": [],
      "name": "initVersion",
      "outputs": [
        {
          "internalType": "uint16",
          "name": "",
          "type": "uint16"
        }
      ],
      "stateMutability": "view",
      "type": "function"
    },
    {
      "inputs": [
        {
          "internalType": "string",
          "name": "contractName",
          "type": "string"
        },
        {
          "internalType": "string",
          "name": "contractVersion",
          "type": "string"
        },
        {
          "internalType": "address",
          "name": "accessControlManager",
          "type": "address"
        }
      ],
      "name": "initialize",
      "outputs": [],
      "stateMutability": "nonpayable",
      "type": "function"
    },
    {
      "inputs": [],
      "name": "localAdmin",
      "outputs": [
        {
          "internalType": "address",
          "name": "",
          "type": "address"
        }
      ],
      "stateMutability": "view",
      "type": "function"
    },
    {
      "inputs": [
        {
          "internalType": "bytes32",
          "name": "profileId",
          "type": "bytes32"
        },
        {
          "internalType": "bytes32",
          "name": "domainId",
          "type": "bytes32"
        },
        {
          "internalType": "address",
          "name": "account",
          "type": "address"
        }
      ],
      "name": "profileDomainCheckAdmin",
      "outputs": [
        {
          "internalType": "bool",
          "name": "",
          "type": "bool"
        }
      ],
      "stateMutability": "view",
      "type": "function"
    },
    {
      "inputs": [
        {
          "internalType": "bytes32",
          "name": "profileId",
          "type": "bytes32"
        },
        {
          "internalType": "bytes32",
          "name": "domainId",
          "type": "bytes32"
        }
      ],
      "name": "profileDomainCheckId",
      "outputs": [
        {
          "internalType": "bool",
          "name": "",
          "type": "bool"
        }
      ],
      "stateMutability": "view",
      "type": "function"
    },
    {
      "inputs": [
        {
          "internalType": "bytes32",
          "name": "profileId",
          "type": "bytes32"
        },
        {
          "internalType": "string",
          "name": "domainName",
          "type": "string"
        }
      ],
      "name": "profileDomainCheckName",
      "outputs": [
        {
          "internalType": "bool",
          "name": "",
          "type": "bool"
        }
      ],
      "stateMutability": "view",
      "type": "function"
    },
    {
      "inputs": [
        {
          "internalType": "bytes32",
          "name": "profileId",
          "type": "bytes32"
        },
        {
          "internalType": "bytes32",
          "name": "domainId",
          "type": "bytes32"
        }
      ],
      "name": "profileDomainGetInfo",
      "outputs": [
        {
          "components": [
            {
              "internalType": "bytes32",
              "name": "adminId",
              "type": "bytes32"
            },
            {
              "internalType": "bytes32",
              "name": "universeId",
              "type": "bytes32"
            },
            {
              "internalType": "uint16",
              "name": "realmLimit",
              "type": "uint16"
            },
            {
              "internalType": "uint16",
              "name": "realmCount",
              "type": "uint16"
            },
            {
              "internalType": "uint32",
              "name": "referredByAgent",
              "type": "uint32"
            },
            {
              "internalType": "enum IACLCommons.ScopeType",
              "name": "stype",
              "type": "uint8"
            },
            {
              "internalType": "enum IACLCommons.AgentType",
              "name": "adminType",
              "type": "uint8"
            },
            {
              "internalType": "enum IACLCommons.ActivityStatus",
              "name": "acstat",
              "type": "uint8"
            },
            {
              "internalType": "enum IACLCommons.AlterabilityStatus",
              "name": "alstat",
              "type": "uint8"
            },
            {
              "internalType": "string",
              "name": "name",
              "type": "string"
            }
          ],
          "internalType": "struct IProfileDomainManagement.ProfileDomainInfo",
          "name": "",
          "type": "tuple"
        }
      ],
      "stateMutability": "view",
      "type": "function"
    },
    {
      "inputs": [
        {
          "internalType": "bytes32",
          "name": "profileId",
          "type": "bytes32"
        },
        {
          "internalType": "bytes32",
          "name": "domainId",
          "type": "bytes32"
        }
      ],
      "name": "profileDomainGetRealms",
      "outputs": [
        {
          "internalType": "bytes32[]",
          "name": "",
          "type": "bytes32[]"
        }
      ],
      "stateMutability": "view",
      "type": "function"
    },
    {
      "inputs": [
        {
          "internalType": "bytes32",
          "name": "profileId",
          "type": "bytes32"
        },
        {
          "internalType": "bytes32",
          "name": "domainId",
          "type": "bytes32"
        },
        {
          "internalType": "bytes32",
          "name": "contextId",
          "type": "bytes32"
        }
      ],
      "name": "profileDomainHasContext",
      "outputs": [
        {
          "internalType": "bool",
          "name": "",
          "type": "bool"
        }
      ],
      "stateMutability": "view",
      "type": "function"
    },
    {
      "inputs": [
        {
          "internalType": "bytes32",
          "name": "profileId",
          "type": "bytes32"
        },
        {
          "internalType": "bytes32",
          "name": "domainId",
          "type": "bytes32"
        },
        {
          "internalType": "bytes32",
          "name": "functionId",
          "type": "bytes32"
        }
      ],
      "name": "profileDomainHasFunction",
      "outputs": [
        {
          "internalType": "bool",
          "name": "",
          "type": "bool"
        }
      ],
      "stateMutability": "view",
      "type": "function"
    },
    {
      "inputs": [
        {
          "internalType": "bytes32",
          "name": "profileId",
          "type": "bytes32"
        },
        {
          "internalType": "bytes32",
          "name": "domainId",
          "type": "bytes32"
        },
        {
          "internalType": "bytes32",
          "name": "realmId",
          "type": "bytes32"
        }
      ],
      "name": "profileDomainHasRealm",
      "outputs": [
        {
          "internalType": "bool",
          "name": "",
          "type": "bool"
        }
      ],
      "stateMutability": "view",
      "type": "function"
    },
    {
      "inputs": [
        {
          "components": [
            {
              "internalType": "string",
              "name": "profileName",
              "type": "string"
            },
            {
              "internalType": "address",
              "name": "account",
              "type": "address"
            },
            {
              "internalType": "uint64",
              "name": "expiredAt",
              "type": "uint64"
            },
            {
              "internalType": "bytes",
              "name": "signature",
              "type": "bytes"
            }
          ],
          "internalType": "struct IACLCommons.ProfileMemberSignature",
          "name": "memberSign",
          "type": "tuple"
        },
        {
          "components": [
            {
              "internalType": "bytes32",
              "name": "domainId",
              "type": "bytes32"
            },
            {
              "internalType": "bytes32",
              "name": "targetDomainId",
              "type": "bytes32"
            },
            {
              "internalType": "bytes32",
              "name": "realmId",
              "type": "bytes32"
            }
          ],
          "internalType": "struct IProfileDomainManagement.ProfileDomainMoveRealmRequest[]",
          "name": "requests",
          "type": "tuple[]"
        }
      ],
      "name": "profileDomainMoveRealm",
      "outputs": [
        {
          "internalType": "bool",
          "name": "",
          "type": "bool"
        }
      ],
      "stateMutability": "nonpayable",
      "type": "function"
    },
    {
      "inputs": [
        {
          "components": [
            {
              "internalType": "string",
              "name": "profileName",
              "type": "string"
            },
            {
              "internalType": "address",
              "name": "account",
              "type": "address"
            },
            {
              "internalType": "uint64",
              "name": "expiredAt",
              "type": "uint64"
            },
            {
              "internalType": "bytes",
              "name": "signature",
              "type": "bytes"
            }
          ],
          "internalType": "struct IACLCommons.ProfileMemberSignature",
          "name": "memberSign",
          "type": "tuple"
        },
        {
          "components": [
            {
              "internalType": "bytes32",
              "name": "adminId",
              "type": "bytes32"
            },
            {
              "internalType": "int24",
              "name": "realmLimit",
              "type": "int24"
            },
            {
              "internalType": "string",
              "name": "name",
              "type": "string"
            }
          ],
          "internalType": "struct IProfileDomainManagement.ProfileDomainRegisterRequest[]",
          "name": "requests",
          "type": "tuple[]"
        }
      ],
      "name": "profileDomainRegister",
      "outputs": [
        {
          "internalType": "bool",
          "name": "",
          "type": "bool"
        }
      ],
      "stateMutability": "nonpayable",
      "type": "function"
    },
    {
      "inputs": [
        {
          "components": [
            {
              "internalType": "string",
              "name": "profileName",
              "type": "string"
            },
            {
              "internalType": "address",
              "name": "account",
              "type": "address"
            },
            {
              "internalType": "uint64",
              "name": "expiredAt",
              "type": "uint64"
            },
            {
              "internalType": "bytes",
              "name": "signature",
              "type": "bytes"
            }
          ],
          "internalType": "struct IACLCommons.ProfileMemberSignature",
          "name": "memberSign",
          "type": "tuple"
        },
        {
          "internalType": "bytes32[]",
          "name": "domains",
          "type": "bytes32[]"
        }
      ],
      "name": "profileDomainRemove",
      "outputs": [
        {
          "internalType": "bool",
          "name": "",
          "type": "bool"
        }
      ],
      "stateMutability": "nonpayable",
      "type": "function"
    },
    {
      "inputs": [
        {
          "components": [
            {
              "internalType": "string",
              "name": "profileName",
              "type": "string"
            },
            {
              "internalType": "address",
              "name": "account",
              "type": "address"
            },
            {
              "internalType": "uint64",
              "name": "expiredAt",
              "type": "uint64"
            },
            {
              "internalType": "bytes",
              "name": "signature",
              "type": "bytes"
            }
          ],
          "internalType": "struct IACLCommons.ProfileMemberSignature",
          "name": "memberSign",
          "type": "tuple"
        },
        {
          "components": [
            {
              "internalType": "bytes32",
              "name": "entityId",
              "type": "bytes32"
            },
            {
              "internalType": "enum IACLCommons.ActivityStatus",
              "name": "acstat",
              "type": "uint8"
            }
          ],
          "internalType": "struct IACLCommons.ProfileUpdateActivityRequest[]",
          "name": "requests",
          "type": "tuple[]"
        }
      ],
      "name": "profileDomainUpdateActivityStatus",
      "outputs": [
        {
          "internalType": "bool",
          "name": "",
          "type": "bool"
        }
      ],
      "stateMutability": "nonpayable",
      "type": "function"
    },
    {
      "inputs": [
        {
          "components": [
            {
              "internalType": "string",
              "name": "profileName",
              "type": "string"
            },
            {
              "internalType": "address",
              "name": "account",
              "type": "address"
            },
            {
              "internalType": "uint64",
              "name": "expiredAt",
              "type": "uint64"
            },
            {
              "internalType": "bytes",
              "name": "signature",
              "type": "bytes"
            }
          ],
          "internalType": "struct IACLCommons.ProfileMemberSignature",
          "name": "memberSign",
          "type": "tuple"
        },
        {
          "components": [
            {
              "internalType": "bytes32",
              "name": "entityId",
              "type": "bytes32"
            },
            {
              "internalType": "bytes32",
              "name": "adminId",
              "type": "bytes32"
            }
          ],
          "internalType": "struct IACLCommons.ProfileUpdateAdminRequest[]",
          "name": "requests",
          "type": "tuple[]"
        }
      ],
      "name": "profileDomainUpdateAdmin",
      "outputs": [
        {
          "internalType": "bool",
          "name": "",
          "type": "bool"
        }
      ],
      "stateMutability": "nonpayable",
      "type": "function"
    },
    {
      "inputs": [
        {
          "components": [
            {
              "internalType": "string",
              "name": "profileName",
              "type": "string"
            },
            {
              "internalType": "address",
              "name": "account",
              "type": "address"
            },
            {
              "internalType": "uint64",
              "name": "expiredAt",
              "type": "uint64"
            },
            {
              "internalType": "bytes",
              "name": "signature",
              "type": "bytes"
            }
          ],
          "internalType": "struct IACLCommons.ProfileMemberSignature",
          "name": "memberSign",
          "type": "tuple"
        },
        {
          "components": [
            {
              "internalType": "bytes32",
              "name": "entityId",
              "type": "bytes32"
            },
            {
              "internalType": "enum IACLCommons.AlterabilityStatus",
              "name": "alstat",
              "type": "uint8"
            }
          ],
          "internalType": "struct IACLCommons.ProfileUpdateAlterabilityRequest[]",
          "name": "requests",
          "type": "tuple[]"
        }
      ],
      "name": "profileDomainUpdateAlterabilityStatus",
      "outputs": [
        {
          "internalType": "bool",
          "name": "",
          "type": "bool"
        }
      ],
      "stateMutability": "nonpayable",
      "type": "function"
    },
    {
      "inputs": [
        {
          "components": [
            {
              "internalType": "string",
              "name": "profileName",
              "type": "string"
            },
            {
              "internalType": "address",
              "name": "account",
              "type": "address"
            },
            {
              "internalType": "uint64",
              "name": "expiredAt",
              "type": "uint64"
            },
            {
              "internalType": "bytes",
              "name": "signature",
              "type": "bytes"
            }
          ],
          "internalType": "struct IACLCommons.ProfileMemberSignature",
          "name": "memberSign",
          "type": "tuple"
        },
        {
          "components": [
            {
              "internalType": "bytes32",
              "name": "domainId",
              "type": "bytes32"
            },
            {
              "internalType": "uint16",
              "name": "realmLimit",
              "type": "uint16"
            }
          ],
          "internalType": "struct IProfileDomainManagement.ProfileDomainUpdateRealmLimitRequest[]",
          "name": "requests",
          "type": "tuple[]"
        }
      ],
      "name": "profileDomainUpdateRealmLimit",
      "outputs": [
        {
          "internalType": "bool",
          "name": "",
          "type": "bool"
        }
      ],
      "stateMutability": "nonpayable",
      "type": "function"
    },
    {
      "inputs": [],
      "name": "proxiableUUID",
      "outputs": [
        {
          "internalType": "bytes32",
          "name": "",
          "type": "bytes32"
        }
      ],
      "stateMutability": "view",
      "type": "function"
    },
    {
      "inputs": [],
      "name": "safeModeStatus",
      "outputs": [
        {
          "internalType": "enum IBaseProxy.ProxySafeModeStatus",
          "name": "",
          "type": "uint8"
        }
      ],
      "stateMutability": "view",
      "type": "function"
    },
    {
      "inputs": [
        {
          "internalType": "address",
          "name": "acl",
          "type": "address"
        }
      ],
      "name": "setAccessControlManager",
      "outputs": [
        {
          "internalType": "bool",
          "name": "",
          "type": "bool"
        }
      ],
      "stateMutability": "nonpayable",
      "type": "function"
    },
    {
      "inputs": [
        {
          "internalType": "address",
          "name": "newLocalAdmin",
          "type": "address"
        }
      ],
      "name": "setLocalAdmin",
      "outputs": [
        {
          "internalType": "bool",
          "name": "",
          "type": "bool"
        }
      ],
      "stateMutability": "nonpayable",
      "type": "function"
    },
    {
      "inputs": [
        {
          "internalType": "enum IBaseProxy.ProxySafeModeStatus",
          "name": "sstat",
          "type": "uint8"
        }
      ],
      "name": "setSafeModeStatus",
      "outputs": [
        {
          "internalType": "bool",
          "name": "",
          "type": "bool"
        }
      ],
      "stateMutability": "nonpayable",
      "type": "function"
    },
    {
      "inputs": [
        {
          "internalType": "enum IBaseProxy.ProxyUpdatabilityStatus",
          "name": "ustat",
          "type": "uint8"
        }
      ],
      "name": "setUpdatabilityStatus",
      "outputs": [
        {
          "internalType": "bool",
          "name": "",
          "type": "bool"
        }
      ],
      "stateMutability": "nonpayable",
      "type": "function"
    },
    {
      "inputs": [],
      "name": "subjectAddress",
      "outputs": [
        {
          "internalType": "address",
          "name": "",
          "type": "address"
        }
      ],
      "stateMutability": "view",
      "type": "function"
    },
    {
      "inputs": [
        {
          "internalType": "bytes4",
          "name": "interfaceId",
          "type": "bytes4"
        }
      ],
      "name": "supportsInterface",
      "outputs": [
        {
          "internalType": "bool",
          "name": "",
          "type": "bool"
        }
      ],
      "stateMutability": "view",
      "type": "function"
    },
    {
      "inputs": [],
      "name": "updatabilityStatus",
      "outputs": [
        {
          "internalType": "enum IBaseProxy.ProxyUpdatabilityStatus",
          "name": "",
          "type": "uint8"
        }
      ],
      "stateMutability": "view",
      "type": "function"
    },
    {
      "inputs": [
        {
          "internalType": "address",
          "name": "newImplementation",
          "type": "address"
        },
        {
          "internalType": "bytes",
          "name": "data",
          "type": "bytes"
        },
        {
          "internalType": "bool",
          "name": "forceCall",
          "type": "bool"
        }
      ],
      "name": "upgradeTo",
      "outputs": [
        {
          "internalType": "bytes",
          "name": "",
          "type": "bytes"
        }
      ],
      "stateMutability": "nonpayable",
      "type": "function"
    },
    {
      "inputs": [
        {
          "internalType": "address",
          "name": "recepient",
          "type": "address"
        }
      ],
      "name": "withdrawBalance",
      "outputs": [
        {
          "internalType": "uint256",
          "name": "",
          "type": "uint256"
        }
      ],
      "stateMutability": "nonpayable",
      "type": "function"
    },
    {
      "stateMutability": "payable",
      "type": "receive"
    }
  ],
  "transactionHash": "0x61dcd89d5922fd9795de8fcc543485450b94704dd91cd054d9912f65f47335d7",
  "args": [],
  "numDeployments": 1,
  "solcInputHash": "bf3d37f12163392c6a812b5af749abec",
  "bytecode": "0x60a0604052306080523480156200001557600080fd5b506200004360017f360894a13ba1a3210667c828492db98dca3e2076cc3735a920a3ca505d382bbd620000fd565b7f360894a13ba1a3210667c828492db98dca3e2076cc3735a920a3ca505d382bbc1462000074576200007462000125565b620000a160017fb53127684a568b3173ae13b9f8a6016e243e63b6e8ee1178d6a717850b5d6104620000fd565b600080516020620058a783398151915214620000c157620000c162000125565b600080516020620058a783398151915280546001600160a01b0319163317905560028054600160a01b61ffff60a01b199091161790556200013b565b818103818111156200011f57634e487b7160e01b600052601160045260246000fd5b92915050565b634e487b7160e01b600052600160045260246000fd5b6080516156fc620001ab600039600081816108500152818161089901528181610a8801528181610ac8015281816115860152818161198c015281816119cc01528181612537015281816125770152818161291d0152818161295d01528181612ad10152612b1101526156fc6000f3fe6080604052600436106102325760003560e01c80637147855d1161012d578063a304e353116100b0578063e6e473a711610077578063e6e473a71461075d578063f0b15def1461077d578063f698da25146107b1578063f708ceb0146107c6578063f94a0adb146107e6578063fcc40178146107fb57005b8063a304e353146106c0578063b4453621146106df578063b4a0bdf3146106ff578063d21f8f401461071d578063d9dc1f191461073d57005b806380a63a73116100f457806380a63a73146106175780639b97b534146106375780639f6220981461066b578063a0a8e4601461068b578063a148d4be146106a057005b80637147855d1461056e57806372d518611461059b578063756af45f146105bb57806375d0c0dc146105db5780637678922e146105f057005b806342a73726116101b557806357c8e0311161017c57806357c8e031146104a057806358dbc45d146104cd5780635ced0e8b146104fa57806364d4c8191461051a5780636e3c1b841461054e57005b806342a73726146103e25780634886f137146104025780634888f4821461042f5780634bf0414d1461045757806352d1902d1461048b57005b8063301c1280116101f9578063301c12801461031257806334109de2146103465780633600821b1461037a57806338d38c971461039a5780633c27839f146103c257005b806301ffc9a71461023b578063077f224a146102705780630e32cb861461029057806316e1fd79146102b05780631b452f4b146102d057005b3661023957005b005b34801561024757600080fd5b5061025b610256366004614a38565b61081b565b60405190151581526020015b60405180910390f35b34801561027c57600080fd5b5061023961028b366004614aba565b610846565b34801561029c57600080fd5b5061025b6102ab366004614b3a565b610a7c565b3480156102bc57600080fd5b5061025b6102cb366004614b55565b610d8a565b3480156102dc57600080fd5b506103047f7bfb2abd6084c8ce20d7ff92c1620e7e7267603f0eac446b9176959d243306bc81565b604051908152602001610267565b34801561031e57600080fd5b506103047f541cf898e7c3085cbc6b7402ba06e7237285bc4bd5baa510e708e35537a71ffd81565b34801561035257600080fd5b506103047f7aabe2571874f2a330ea11c8972d9cc3792d973efc6b36e3e29005861a34418881565b34801561038657600080fd5b5061025b610395366004614b8a565b610f17565b3480156103a657600080fd5b506103af610f8f565b60405161ffff9091168152602001610267565b3480156103ce57600080fd5b5061025b6103dd366004614c12565b610fa3565b3480156103ee57600080fd5b5061025b6103fd366004614c12565b61128d565b34801561040e57600080fd5b5061042261041d366004614c7a565b6114e7565b6040516102679190614c9c565b34801561043b57600080fd5b50600254600160a81b900460ff165b6040516102679190614d06565b34801561046357600080fd5b506103047f9027b951cbdf8eff67da583391d218a57a89ec1ebfcb1c66da188e8531804d5581565b34801561049757600080fd5b50610304611579565b3480156104ac57600080fd5b506104c06104bb366004614c7a565b6115d6565b6040516102679190614d96565b3480156104d957600080fd5b506104e261186e565b6040516001600160a01b039091168152602001610267565b34801561050657600080fd5b5061025b610515366004614e4d565b611878565b34801561052657600080fd5b506103047f8b73c3c69bb8fe3d512ecc4cf759cc79239f7b179b0ffacaa9a75d522b39400f81565b34801561055a57600080fd5b5061025b610569366004614b8a565b6118dc565b34801561057a57600080fd5b5061058e610589366004614f15565b611980565b6040516102679190614fdd565b3480156105a757600080fd5b5061025b6105b6366004614c7a565b611adf565b3480156105c757600080fd5b506103046105d6366004614b3a565b611b1e565b3480156105e757600080fd5b5061058e611be3565b3480156105fc57600080fd5b50737F11D5bb7c99667ac0E8851c6B72633d35244c6C6104e2565b34801561062357600080fd5b5061025b610632366004614b8a565b611c75565b34801561064357600080fd5b506103047fdee69d384475c3656c17c592e94a2bbfd2a1998cce0c85f535569415a15863b881565b34801561067757600080fd5b5061025b610686366004615034565b611d4e565b34801561069757600080fd5b5061058e612003565b3480156106ac57600080fd5b5061025b6106bb366004615034565b612012565b3480156106cc57600080fd5b50600254600160a01b900460ff1661044a565b3480156106eb57600080fd5b5061025b6106fa366004614c12565b61233e565b34801561070b57600080fd5b506002546001600160a01b03166104e2565b34801561072957600080fd5b5061025b61073836600461508f565b6124da565b34801561074957600080fd5b5061025b610758366004614b3a565b61252b565b34801561076957600080fd5b5061025b610778366004614c12565b6126e1565b34801561078957600080fd5b506103047ffc434588684348dd50856b075c47bed14245c1030aa04c32955af5549981462781565b3480156107bd57600080fd5b50610304612907565b3480156107d257600080fd5b5061025b6107e13660046150da565b612911565b3480156107f257600080fd5b506104e2612abb565b34801561080757600080fd5b5061025b6108163660046150da565b612ac5565b60006001600160e01b031982166301f8ce9960e51b1480610840575061084082612c50565b92915050565b6001600160a01b037f00000000000000000000000000000000000000000000000000000000000000001630036108975760405162461bcd60e51b815260040161088e906150f7565b60405180910390fd5b7f00000000000000000000000000000000000000000000000000000000000000006001600160a01b03166108c9612ca0565b6001600160a01b0316146108ef5760405162461bcd60e51b815260040161088e9061511d565b336108f8612cc1565b6001600160a01b03161461093e5760405162461bcd60e51b815260206004820152600d60248201526c1058d8d95cdcc811195b9a5959609a1b604482015260640161088e565b604e5462010000900460ff16158080156109605750604e54600161ffff909116105b8061097b5750303b15801561097b5750604e5461ffff166001145b6109c75760405162461bcd60e51b815260206004820152601c60248201527f436f6e747261637420416c726561647920496e697469616c697a656400000000604482015260640161088e565b604e805461ffff1916600117905580156109ed57604e805462ff00001916620100001790555b6109fa8686868686612ce9565b610a02612ca0565b6001600160a01b031630336001600160a01b03167f247ab7b17ee489fa140c6666edc3822eefed2727610cd6e37192462b87244c6089898989610a48604e5461ffff1690565b604051610a5995949392919061516c565b60405180910390a48015610a7457604e805462ff0000191690555b505050505050565b60006001600160a01b037f0000000000000000000000000000000000000000000000000000000000000000163003610ac65760405162461bcd60e51b815260040161088e906150f7565b7f00000000000000000000000000000000000000000000000000000000000000006001600160a01b0316610af8612ca0565b6001600160a01b031614610b1e5760405162461bcd60e51b815260040161088e9061511d565b6000600254600160a01b900460ff166001811115610b3e57610b3e614ce0565b14610b5b5760405162461bcd60e51b815260040161088e906151aa565b6001600254600160a81b900460ff166001811115610b7b57610b7b614ce0565b14610b985760405162461bcd60e51b815260040161088e906151cc565b6001600160a01b03821615801590610bb957506001600160a01b0382163b15155b610bd55760405162461bcd60e51b815260040161088e906151f7565b6002546001600160a01b031615610c34576000610bf863071965c360e11b612cfd565b90506000816013811115610c0e57610c0e614ce0565b14610c2e5780604051637f0911d160e01b815260040161088e9190615221565b50610c83565b33610c3d612cc1565b6001600160a01b031614610c835760405162461bcd60e51b815260206004820152600d60248201526c1058d8d95cdcc811195b9a5959609a1b604482015260640161088e565b6040516301ffc9a760e01b81526331501c3960e01b60048201526001600160a01b038316906301ffc9a790602401602060405180830381865afa158015610cce573d6000803e3d6000fd5b505050506040513d601f19601f82011682018060405250810190610cf29190615235565b610d2c5760405162461bcd60e51b815260206004820152600b60248201526a125b1b1959d85b081050d360aa1b604482015260640161088e565b600280546001600160a01b0384166001600160a01b031990911681179091556040805191825251309133917f410bf468eebeeed60acaedb904afb2db7c0bb0131f7d14c3714d81b14fe8ed3c9181900360200190a35060015b919050565b6000838152604860205260408120816008820154600160a01b900460ff166003811115610db957610db9614ce0565b03610dc8576000915050610f10565b600080610dd58387612d88565b9150915080610dea5760009350505050610f10565b815460008181526020859052604081206001015460ff1690610e0b88612dea565b90506002826003811115610e2157610e21614ce0565b03610ea557600080610e338886612e29565b9150915080610e4d57600098505050505050505050610f10565b600080610e6784600301548b612e7490919063ffffffff16565b9150915080610e835760009a5050505050505050505050610f10565b506000938452600501602052505060409020549091149450610f109350505050565b6003826003811115610eb957610eb9614ce0565b03610f0557600080610ecb8886612e74565b9150915080610ee557600098505050505050505050610f10565b506000918252600501602052604090205415159550610f10945050505050565b600096505050505050505b9392505050565b6000838152604860205260408120816008820154600160a01b900460ff166003811115610f4657610f46614ce0565b03610f55576000915050610f10565b600080610f628387612d88565b9150915080610f775760009350505050610f10565b610f846005830186612e8b565b979650505050505050565b6000610f9e604e5461ffff1690565b905090565b60008080808080610fbb89633c27839f60e01b612ea3565b9450945094509450945060005b8781101561127d576000610ff987878c8c86818110610fe957610fe9615252565b905060400201600001358761311a565b905060008a8a8481811061100f5761100f615252565b90506040020160200135146111935760018760008c8c8681811061103557611035615252565b90506040020160200135815260200190815260200160002060010160009054906101000a900460ff16600381111561106f5761106f614ce0565b116110bc5760405162461bcd60e51b815260206004820152601760248201527f496c6c6567616c2041646d696e204167656e7454797065000000000000000000604482015260640161088e565b60006110e3888c8c868181106110d4576110d4615252565b90506040020160200135613208565b60405176554e4956455253452e4c4956454c595f50524f46494c4560481b60208201529091506037016040516020818303038152906040528051906020012081146111665760405162461bcd60e51b8152602060048201526013602482015272496c6c6567616c2041646d696e2053636f706560681b604482015260640161088e565b8a8a8481811061117857611178615252565b905060400201602001358260000160000181905550506111ef565b8660010160006040516020016111c69076554e4956455253452e4c4956454c595f50524f46494c4560481b815260170190565b60408051601f198184030181529181528151602092830120835290820192909252016000205481555b89898381811061120157611201615252565b9050604002016000013585846001600160a01b03167f5b710f05939f06ac98e0d9fa963cf8b006598d6f312340abe44d823c7bbbbfbf8d8d8781811061124957611249615252565b9050604002016020013560405161126291815260200190565b60405180910390a450806112758161527e565b915050610fc8565b5060019998505050505050505050565b600080808080806112a5896321539b9360e11b612ea3565b9450945094509450945060005b8781101561127d5760006112e18a8a848181106112d1576112d1615252565b8a9260409091020135905061327f565b9050600180820154610100900460ff16600381111561130257611302614ce0565b116113405760405162461bcd60e51b815260206004820152600e60248201526d111bdb585a5b8811195b195d195960921b604482015260640161088e565b60006113558888846000016000015488613361565b9050600081600781111561136b5761136b614ce0565b1461137957611379816133f6565b60008b8b8581811061138d5761138d615252565b90506040020160200160208101906113a591906152a4565b60038111156113b6576113b6614ce0565b036113fa5760405162461bcd60e51b8152602060048201526014602482015273496c6c6567616c20416c7465726162696c69747960601b604482015260640161088e565b8a8a8481811061140c5761140c615252565b905060400201602001602081019061142491906152a4565b60018301805462ff000019166201000083600381111561144657611446614ce0565b02179055508a8a8481811061145d5761145d615252565b9050604002016000013586856001600160a01b03167fea240b6973d08db8e1c46d1bc568537e83a60d62b9c7e0b330e91837fec5abee8e8e888181106114a5576114a5615252565b90506040020160200160208101906114bd91906152a4565b6040516114ca91906152c1565b60405180910390a4505080806114df9061527e565b9150506112b2565b60008281526048602052604081206060916008820154600160a01b900460ff16600381111561151857611518614ce0565b03611533575050604080516000815260208101909152610840565b6000806115408386612d88565b915091508061156357505060408051600081526020810190915291506108409050565b61156f8260050161358d565b9695505050505050565b6000306001600160a01b037f000000000000000000000000000000000000000000000000000000000000000016146115c35760405162461bcd60e51b815260040161088e906150f7565b506000805160206156a783398151915290565b61162c604080516101408101825260008082526020820181905291810182905260608101829052608081018290529060a08201908152602001600081526020016000815260200160008152602001606081525090565b600083815260486020526040812090806116468386612d88565b91509150801580611676575060006008840154600160a01b900460ff16600381111561167457611674614ce0565b145b156116e357604080516101408101825260008082526020820181905291810182905260608101829052608081018290529060a08201908152602001600081526020016000815260200160008152602001604051806020016040528060008152508152509350505050610840565b60408051610140810182528354815260028401546020820152600384015461ffff16918101919091526060810161171c60058501613598565b61ffff168152600184015463ffffffff6301000000820416602083015260409091019060ff16600581111561175357611753614ce0565b815283546000908152602086815260409091206001015491019060ff16600381111561178157611781614ce0565b81526001840154602090910190610100900460ff1660038111156117a7576117a7614ce0565b8152600184015460209091019062010000900460ff1660038111156117ce576117ce614ce0565b81526020018360040180546117e2906152ce565b80601f016020809104026020016040519081016040528092919081815260200182805461180e906152ce565b801561185b5780601f106118305761010080835404028352916020019161185b565b820191906000526020600020905b81548152906001019060200180831161183e57829003601f168201915b5050505050815250935050505092915050565b6000610f9e612ca0565b6000808080808061189089635ced0e8b60e01b612ea3565b9450945094509450945060005b8781101561127d576118ca8989838181106118ba576118ba615252565b90506060020187878787876135a2565b806118d48161527e565b91505061189d565b6000838152604860205260408120816008820154600160a01b900460ff16600381111561190b5761190b614ce0565b0361191a576000915050610f10565b6000806119278386613859565b915091508061193c5760009350505050610f10565b60008061195684600201548661387290919063ffffffff16565b915091508061196d57600095505050505050610f10565b5060020154861493505050509392505050565b60606001600160a01b037f00000000000000000000000000000000000000000000000000000000000000001630036119ca5760405162461bcd60e51b815260040161088e906150f7565b7f00000000000000000000000000000000000000000000000000000000000000006001600160a01b03166119fc612ca0565b6001600160a01b031614611a225760405162461bcd60e51b815260040161088e9061511d565b6000600254600160a01b900460ff166001811115611a4257611a42614ce0565b14611a5f5760405162461bcd60e51b815260040161088e906151aa565b6001600254600160a81b900460ff166001811115611a7f57611a7f614ce0565b14611a9c5760405162461bcd60e51b815260040161088e906151cc565b6001600160a01b0384163b611ac35760405162461bcd60e51b815260040161088e906151f7565b611acc8461388b565b611ad7848484613929565b949350505050565b600082815260486020908152604080832084845260019081019092528220015460049060ff166005811115611b1657611b16614ce0565b149392505050565b600080600254600160a01b900460ff166001811115611b3f57611b3f614ce0565b14611b5c5760405162461bcd60e51b815260040161088e906151aa565b6000611b6e63756af45f60e01b612cfd565b90506000816013811115611b8457611b84614ce0565b14611ba45780604051637f0911d160e01b815260040161088e9190615221565b60405147906001600160a01b038516904780156108fc02916000818181858888f19350505050158015611bdb573d6000803e3d6000fd5b509392505050565b606060008054611bf2906152ce565b80601f0160208091040260200160405190810160405280929190818152602001828054611c1e906152ce565b8015611c6b5780601f10611c4057610100808354040283529160200191611c6b565b820191906000526020600020905b815481529060010190602001808311611c4e57829003601f168201915b5050505050905090565b6000838152604860205260408120816008820154600160a01b900460ff166003811115611ca457611ca4614ce0565b03611cb3576000915050610f10565b600080611cc08386613ae1565b9150915080611cd55760009350505050610f10565b600080611cef84600301548661385990919063ffffffff16565b9150915080611d0657600095505050505050610f10565b600080611d2084600201548861387290919063ffffffff16565b9150915080611d39576000975050505050505050610f10565b50600201548814955050505050509392505050565b60008080808080611d66896313ec441360e31b612ea3565b6040516352116c0b60e11b81526004810186905261ffff8d1660248201526044810183905294995092975090955093509150737F11D5bb7c99667ac0E8851c6B72633d35244c6C9063a422d8169060640160006040518083038186803b158015611dcf57600080fd5b505af4158015611de3573d6000803e3d6000fd5b505050506000611e4686604051602001611e2a907f545950452e4c4956454c595f50524f46494c452e4c4956454c595f4d415354458152602960f91b602082015260210190565b6040516020818303038152906040528051906020012085613af9565b60405176554e4956455253452e4c4956454c595f50524f46494c4560481b6020820152909150603701604051602081830303815290604052805190602001208114611ecc5760405162461bcd60e51b8152602060048201526016602482015275496c6c6567616c20556e6976657273652053636f706560501b604482015260640161088e565b60005b88811015611ff2576000737F11D5bb7c99667ac0E8851c6B72633d35244c6C63fed701b7898d8d86818110611f0657611f06615252565b9050602002810190611f189190615302565b8a896040518563ffffffff1660e01b8152600401611f399493929190615322565b602060405180830381865af4158015611f56573d6000803e3d6000fd5b505050506040513d601f19601f82011682018060405250810190611f7a91906153bd565b90508086856001600160a01b03167f1fdfded8fb02e6cc7c368260e630643330d8d3368756c3701bd95df50af44c6f8e8e87818110611fbb57611fbb615252565b9050602002810190611fcd9190615302565b6040519035815260200160405180910390a45080611fea8161527e565b915050611ecf565b5060019a9950505050505050505050565b606060018054611bf2906152ce565b6000808080808061202a896350a46a5f60e11b612ea3565b9450945094509450945060005b8781101561127d57600061206c8a8a8481811061205657612056615252565b905060200201358861327f90919063ffffffff16565b905060006120838888846000016000015488613361565b9050600081600781111561209957612099614ce0565b146120a7576120a7816133f6565b6120b382600501613598565b156120f15760405162461bcd60e51b815260206004820152600e60248201526d496c6c6567616c2052656d6f766560901b604482015260640161088e565b60018201546301000000900463ffffffff1660000361227857600061212383600201548a613b3390919063ffffffff16565b90506002600182015462010000900460ff16600381111561214657612146614ce0565b10156121945760405162461bcd60e51b815260206004820152601a60248201527f496c6c6567616c20556e69766572736520557064617461626c65000000000000604482015260640161088e565b6121c28c8c868181106121a9576121a9615252565b9050602002013582600401613c0e90919063ffffffff16565b50600080845560018401805466ffffffffffffff191690556002840181905560038401805461ffff191690556121fc9060048501906149cb565b600583016000818161220e8282614a05565b505050508b8b8581811061222457612224615252565b9050602002013587866001600160a01b03167ffc02d07c298824cb077a2726458cc8ec571a244a8743cf6ca8f26eec95afae31600060405161226a911515815260200190565b60405180910390a450612329565b6002600183015462010000900460ff16600381111561229957612299614ce0565b10156122b75760405162461bcd60e51b815260040161088e906151cc565b60018201805461ff0019166101001790558a8a848181106122da576122da615252565b9050602002013586856001600160a01b03167ffc02d07c298824cb077a2726458cc8ec571a244a8743cf6ca8f26eec95afae316001604051612320911515815260200190565b60405180910390a45b505080806123369061527e565b915050612037565b600080808080806123568963b445362160e01b612ea3565b9450945094509450945060005b8781101561127d57600061238487878c8c86818110610fe957610fe9615252565b905061239281600501613598565b8a8a848181106123a4576123a4615252565b90506040020160200160208101906123bc91906153d6565b61ffff16116123fd5760405162461bcd60e51b815260206004820152600d60248201526c125b1b1959d85b08131a5b5a5d609a1b604482015260640161088e565b89898381811061240f5761240f615252565b905060400201602001602081019061242791906153d6565b60038201805461ffff191661ffff9290921691909117905589898381811061245157612451615252565b9050604002016000013585846001600160a01b03167fe6dab34d6bc7b1ff4ec260c144f4a0da0c229b4dc85d14524b79e90b85fd643e8d8d8781811061249957612499615252565b90506040020160200160208101906124b191906153d6565b60405161ffff909116815260200160405180910390a450806124d28161527e565b915050612363565b600060046000858152604860205260408120600101906124fa8686613c1a565b815260208101919091526040016000206001015460ff16600581111561252257612522614ce0565b14949350505050565b60006001600160a01b037f00000000000000000000000000000000000000000000000000000000000000001630036125755760405162461bcd60e51b815260040161088e906150f7565b7f00000000000000000000000000000000000000000000000000000000000000006001600160a01b03166125a7612ca0565b6001600160a01b0316146125cd5760405162461bcd60e51b815260040161088e9061511d565b6000600254600160a01b900460ff1660018111156125ed576125ed614ce0565b1461260a5760405162461bcd60e51b815260040161088e906151aa565b6001600254600160a81b900460ff16600181111561262a5761262a614ce0565b146126475760405162461bcd60e51b815260040161088e906151cc565b600061265963d9dc1f1960e01b612cfd565b9050600081601381111561266f5761266f614ce0565b1461268f5780604051637f0911d160e01b815260040161088e9190615221565b6001600160a01b0383166126cf5760405162461bcd60e51b8152602060048201526007602482015266125b9d985b1a5960ca1b604482015260640161088e565b6126d883613c4d565b50600192915050565b600080808080806126f98963e6e473a760e01b612ea3565b9450945094509450945060005b8781101561127d5760006127258a8a848181106112d1576112d1615252565b90506002600182015462010000900460ff16600381111561274857612748614ce0565b10156127665760405162461bcd60e51b815260040161088e906151cc565b600061277b8888846000016000015488613361565b9050600081600781111561279157612791614ce0565b1461279f5761279f816133f6565b60018b8b858181106127b3576127b3615252565b90506040020160200160208101906127cb91906152a4565b60038111156127dc576127dc614ce0565b1161281c5760405162461bcd60e51b815260206004820152601060248201526f496c6c6567616c20416374697669747960801b604482015260640161088e565b8a8a8481811061282e5761282e615252565b905060400201602001602081019061284691906152a4565b60018301805461ff00191661010083600381111561286657612866614ce0565b02179055508a8a8481811061287d5761287d615252565b9050604002016000013586856001600160a01b03167fbf5193ad7d995fae19acb9705414b01b4285967b286913547447d2e2462b572f8e8e888181106128c5576128c5615252565b90506040020160200160208101906128dd91906152a4565b6040516128ea91906152c1565b60405180910390a4505080806128ff9061527e565b915050612706565b6000610f9e613cc4565b60006001600160a01b037f000000000000000000000000000000000000000000000000000000000000000016300361295b5760405162461bcd60e51b815260040161088e906150f7565b7f00000000000000000000000000000000000000000000000000000000000000006001600160a01b031661298d612ca0565b6001600160a01b0316146129b35760405162461bcd60e51b815260040161088e9061511d565b60006129c2604e5461ffff1690565b61ffff16116129fe5760405162461bcd60e51b81526020600482015260086024820152671393d5081253925560c21b604482015260640161088e565b6000612a10630f708ceb60e41b612cfd565b90506000816013811115612a2657612a26614ce0565b14612a465780604051637f0911d160e01b815260040161088e9190615221565b6002805484919060ff60a01b1916600160a01b836001811115612a6b57612a6b614ce0565b021790555030336001600160a01b03167fc08ec585c25f1907baaab6f278c5994531a2e34c59935b3fcfe813067a3b487885604051612aaa9190614d06565b60405180910390a350600192915050565b6000610f9e612cc1565b60006001600160a01b037f0000000000000000000000000000000000000000000000000000000000000000163003612b0f5760405162461bcd60e51b815260040161088e906150f7565b7f00000000000000000000000000000000000000000000000000000000000000006001600160a01b0316612b41612ca0565b6001600160a01b031614612b675760405162461bcd60e51b815260040161088e9061511d565b6000600254600160a01b900460ff166001811115612b8757612b87614ce0565b14612ba45760405162461bcd60e51b815260040161088e906151aa565b6000612bb6631f98802f60e31b612cfd565b90506000816013811115612bcc57612bcc614ce0565b14612bec5780604051637f0911d160e01b815260040161088e9190615221565b6002805484919060ff60a81b1916600160a81b836001811115612c1157612c11614ce0565b021790555030336001600160a01b03167ff5912c5e436152157ed2b4a84bc313b4b1fe09a15b941f195d23c99a1b8c45ad85604051612aaa9190614d06565b60006001600160e01b03198216633d817cff60e01b1480612c8157506001600160e01b031982166352d1902d60e01b145b8061084057506301ffc9a760e01b6001600160e01b0319831614610840565b60006000805160206156a78339815191525b546001600160a01b0316919050565b60007fb53127684a568b3173ae13b9f8a6016e243e63b6e8ee1178d6a717850b5d6103612cb2565b612cf68585858585613d78565b5050505050565b6002546040805163172cb29d60e11b81523060048201526001600160e01b03198416602482015233604482015290516000926001600160a01b031691632e59653a916064808301926020929190829003018187875af1158015612d64573d6000803e3d6000fd5b505050506040513d601f19601f8201168201806040525081019061084091906153fa565b60008181526001830160205260408120819060045b600182015460ff166005811115612db657612db6614ce0565b03612dd857505060408051838152600185810160208301529190209150612de3565b600019925060009150505b9250929050565b6040516bffffffffffffffffffffffff19606083901b166020820152600090603401604051602081830303815290604052805190602001209050919050565b6000818152602083905260408120819060025b600182015460ff166003811115612e5557612e55614ce0565b03612dd857505060408051838152602081018590522090506001612de3565b600081815260208390526040812081906003612e3c565b60008181526001830160205260408120541515610f10565b60008080808080306001600160a01b031663a304e3536040518163ffffffff1660e01b8152600401602060405180830381865afa158015612ee8573d6000803e3d6000fd5b505050506040513d601f19601f82011682018060405250810190612f0c919061541b565b6001811115612f1d57612f1d614ce0565b14612f3a5760405162461bcd60e51b815260040161088e906151aa565b6000612f468880615438565b905011612f8b5760405162461bcd60e51b8152602060048201526013602482015272496c6c6567616c2050726f66696c654e616d6560681b604482015260640161088e565b600080612f9b60608a018a615438565b9050111561302f5742612fb460608a0160408b0161547e565b6001600160401b031611612ffe5760405162461bcd60e51b815260206004820152601160248201527045787069726564205369676e617475726560781b604482015260640161088e565b613028887f9027b951cbdf8eff67da583391d218a57a89ec1ebfcb1c66da188e8531804d55613f41565b9050613032565b50335b60006130466130418a80615438565b613c1a565b6001600160e01b031989166000908152604a60205260408120549192506001600160a01b0390911690613079828b614010565b9050600061308685612dea565b60405163a66ce52f60e01b8152600481018690526024810184905260448101829052909150309063a66ce52f90606401600060405180830381600087803b1580156130d057600080fd5b505af11580156130e4573d6000803e3d6000fd5b50505060008581526048602052604081209150613102604485614047565b919e919d50949b509099509397509295505050505050565b600080613127868561327f565b9050600180820154610100900460ff16600381111561314857613148614ce0565b116131865760405162461bcd60e51b815260206004820152600e60248201526d111bdb585a5b8811195b195d195960921b604482015260640161088e565b6002600182015462010000900460ff1660038111156131a7576131a7614ce0565b10156131c55760405162461bcd60e51b815260040161088e906151cc565b60006131da8787846000016000015487613361565b905060008160078111156131f0576131f0614ce0565b146131fe576131fe816133f6565b5095945050505050565b60008181526020839052604081206001015460ff16600281600381111561323157613231614ce0565b036132505760006132428585614122565b600201549250610840915050565b600381600381111561326457613264614ce0565b0361327557600061324285856141ff565b5060009392505050565b600081815260018301602052604081206004600182015460ff1660058111156132aa576132aa614ce0565b036132c7576040805184815260018601602082015220915061335a565b6000600182015460ff1660058111156132e2576132e2614ce0565b0361331f5760405162461bcd60e51b815260206004820152600d60248201526c11125108139bdd08119bdd5b99609a1b604482015260640161088e565b60405162461bcd60e51b815260206004820152601060248201526f125b1b1959d85b081112510814db1bdd60821b604482015260640161088e565b5092915050565b604051635fbcdb4b60e01b815260048101859052602481018490526044810183905260648101829052600090737F11D5bb7c99667ac0E8851c6B72633d35244c6C90635fbcdb4b90608401602060405180830381865af41580156133c9573d6000803e3d6000fd5b505050506040513d601f19601f820116820180604052508101906133ed91906154a7565b95945050505050565b600181600781111561340a5761340a614ce0565b036134285760405163e15df99b60e01b815260040160405180910390fd5b600281600781111561343c5761343c614ce0565b0361345a5760405163c38331b560e01b815260040160405180910390fd5b600381600781111561346e5761346e614ce0565b0361348c5760405163dab65f4760e01b815260040160405180910390fd5b60048160078111156134a0576134a0614ce0565b036134be57604051633f4b20a160e11b815260040160405180910390fd5b60058160078111156134d2576134d2614ce0565b036134f0576040516308fa537360e01b815260040160405180910390fd5b600681600781111561350457613504614ce0565b036135225760405163ae0903a160e01b815260040160405180910390fd5b600781600781111561353657613536614ce0565b036135545760405163d59825eb60e01b815260040160405180910390fd5b60405162461bcd60e51b815260206004820152600b60248201526a2ab735b737bbb71022a92960a91b604482015260640161088e565b50565b6060610840826142d6565b6000610840825490565b60006135b1868689358661311a565b90506135c4600582016040890135612e8b565b6136025760405162461bcd60e51b815260206004820152600f60248201526e1499585b1b48139bdd08119bdd5b99608a1b604482015260640161088e565b600061361487878a602001358761311a565b905060006136268860408b0135614332565b90506002600182015462010000900460ff16600381111561364957613649614ce0565b10156136675760405162461bcd60e51b815260040161088e906151cc565b60018101546301000000900463ffffffff16156136b95760405162461bcd60e51b815260206004820152601060248201526f125b1b1959d85b08149959995c9c995960821b604482015260640161088e565b80546000906136c9908a90613208565b604051639c194e0560e01b8152600481018990526024810182905260208c013560448201529091503090639c194e0590606401602060405180830381865afa158015613719573d6000803e3d6000fd5b505050506040513d601f19601f8201168201806040525081019061373d9190615235565b61377f5760405162461bcd60e51b8152602060048201526013602482015272496c6c6567616c2041646d696e2053636f706560681b604482015260640161088e565b61378b83600501613598565b600384015461ffff16116137d05760405162461bcd60e51b815260206004820152600c60248201526b496c6c6567616c204d6f766560a01b604482015260640161088e565b6137e16005850160408c0135613c0e565b506137f36005840160408c013561440d565b506020808b01356002840181905560408051818e01358152928301919091528b359189916001600160a01b038916917f41cff1025a0779d7c87f6b43e48560891ad232f952102ef00b9b5f6c927bdcf5910160405180910390a450505050505050505050565b6000818152600183016020526040812081906002612d9d565b6000818152600183016020526040812081906003612d9d565b613893612ca0565b6001600160a01b0316816001600160a01b0316036138dd5760405162461bcd60e51b8152602060048201526007602482015266125b1b1959d85b60ca1b604482015260640161088e565b60006138ef637147855d60e01b612cfd565b9050600081601381111561390557613905614ce0565b146139255780604051637f0911d160e01b815260040161088e9190615221565b5050565b60607f4910fdfa16fed3260ed0e7147f7cc6da11a60208b5b9406d12a635614ffd91435460ff16156139735761395e84614419565b50604080516000815260208101909152610f10565b6000805160206156a783398151915260001b846001600160a01b03166352d1902d6040518163ffffffff1660e01b8152600401602060405180830381865afa1580156139c3573d6000803e3d6000fd5b505050506040513d601f19601f820116820180604052508101906139e791906153bd565b14613a235760405162461bcd60e51b815260206004820152600c60248201526b496c6c6567616c205555505360a01b604482015260640161088e565b6040516301ffc9a760e01b8152633d817cff60e01b60048201526001600160a01b038516906301ffc9a790602401602060405180830381865afa158015613a6e573d6000803e3d6000fd5b505050506040513d601f19601f82011682018060405250810190613a929190615235565b613acf5760405162461bcd60e51b815260206004820152600e60248201526d496c6c6567616c204950726f787960901b604482015260640161088e565b613ada848484614448565b9050610f10565b60008181526001808401602052604082208291612d9d565b600080613b0685856141ff565b6000848152600582016020526040812054919250613b248783614122565b60020154979650505050505050565b600081815260018301602052604081206005600182015460ff166005811115613b5e57613b5e614ce0565b03613b7b576040805184815260018601602082015220915061335a565b6000600182015460ff166005811115613b9657613b96614ce0565b03613bd35760405162461bcd60e51b815260206004820152600d60248201526c11d25108139bdd08119bdd5b99609a1b604482015260640161088e565b60405162461bcd60e51b815260206004820152601060248201526f125b1b195859db0811d2510814db1bdd60821b604482015260640161088e565b6000610f1083836144ae565b60008282604051602001613c2f9291906154c8565b60405160208183030381529060405280519060200120905092915050565b7fb53127684a568b3173ae13b9f8a6016e243e63b6e8ee1178d6a717850b5d610380546001600160a01b0383166001600160a01b031990911681179091556040805191825251309133917f63fdbed5f2909ec44e3becc51e9d29654ce1447747914e8a6ebc019e7f640b8b9181900360200190a350565b60007f8b73c3c69bb8fe3d512ecc4cf759cc79239f7b179b0ffacaa9a75d522b39400f6000604051602001613cf991906154d8565b604051602081830303815290604052805190602001206001604051602001613d2191906154d8565b60408051601f1981840301815282825280516020918201209083019490945281019190915260608101919091524660808201523060a082015260c00160405160208183030381529060405280519060200120905090565b604e5462010000900460ff16613dd05760405162461bcd60e51b815260206004820152601960248201527f436f6e7472616374204e6f7420496e697469616c697a696e6700000000000000604482015260640161088e565b6000613ddd858783615599565b506001613deb838583615599565b506001600160a01b0381163014613ed1576001600160a01b0381163b613e235760405162461bcd60e51b815260040161088e906151f7565b6040516301ffc9a760e01b81526331501c3960e01b60048201526001600160a01b038216906301ffc9a790602401602060405180830381865afa158015613e6e573d6000803e3d6000fd5b505050506040513d601f19601f82011682018060405250810190613e929190615235565b613ecc5760405162461bcd60e51b815260206004820152600b60248201526a125b1b1959d85b081050d360aa1b604482015260640161088e565b613f1d565b613ee16331501c3960e01b61081b565b613f1d5760405162461bcd60e51b815260206004820152600d60248201526c139bdd0814dd5c1c1bdc9d1959609a1b604482015260640161088e565b600280546001600160b01b0319166001600160a01b038316179055612cf633613c4d565b6000610f10613f536060850185615438565b8080601f01602080910402602001604051908101604052809392919081815260200183838082843760009201919091525061400b9250869150613f9b90506130418880615438565b613fab6040890160208a01614b3a565b613fbb60608a0160408b0161547e565b6001600160401b031660408051602080820196909652808201949094526001600160a01b039290921660608401526080808401919091528151808403909101815260a09092019052805191012090565b6145a1565b6040516bffffffffffffffffffffffff19606084901b1660208201526001600160e01b031982166034820152600090603801613c2f565b600081815260018084016020526040822090600182015460ff16600581111561407257614072614ce0565b0361408f576040805184815260018601602082015220915061335a565b6000600182015460ff1660058111156140aa576140aa614ce0565b036140e75760405162461bcd60e51b815260206004820152600d60248201526c11925108139bdd08119bdd5b99609a1b604482015260640161088e565b60405162461bcd60e51b815260206004820152601060248201526f125b1b195859db081192510814db1bdd60821b604482015260640161088e565b60008181526020839052604081206002600182015460ff16600381111561414b5761414b614ce0565b0361416657604080518481526020810186905220915061335a565b6000600182015460ff16600381111561418157614181614ce0565b036141c15760405162461bcd60e51b815260206004820152601060248201526f149bdb19525908139bdd08119bdd5b9960821b604482015260640161088e565b60405162461bcd60e51b8152602060048201526013602482015272125b1b1959d85b08149bdb1952590814db1bdd606a1b604482015260640161088e565b60008181526020839052604081206003600182015460ff16600381111561422857614228614ce0565b0361424357604080518481526020810186905220915061335a565b6000600182015460ff16600381111561425e5761425e614ce0565b0361429b5760405162461bcd60e51b815260206004820152600d60248201526c15125108139bdd08119bdd5b99609a1b604482015260640161088e565b60405162461bcd60e51b815260206004820152601060248201526f125b1b1959d85b081512510814db1bdd60821b604482015260640161088e565b60608160000180548060200260200160405190810160405280929190818152602001828054801561432657602002820191906000526020600020905b815481526020019060010190808311614312575b50505050509050919050565b600081815260018301602052604081206003600182015460ff16600581111561435d5761435d614ce0565b0361437a576040805184815260018601602082015220915061335a565b6000600182015460ff16600581111561439557614395614ce0565b036143d25760405162461bcd60e51b815260206004820152600d60248201526c14925108139bdd08119bdd5b99609a1b604482015260640161088e565b60405162461bcd60e51b815260206004820152601060248201526f125b1b195859db081492510814db1bdd60821b604482015260640161088e565b6000610f108383614616565b6000805160206156a783398151915280546001600160a01b0319166001600160a01b0392909216919091179055565b606061445384614665565b6000835111806144605750815b1561449357613ada84846040518060400160405280600b81526020016a10d85b1b0811985a5b195960aa1b8152506146a9565b60408051600080825260208201909252905b50949350505050565b600081815260018301602052604081205480156145975760006144d2600183615658565b85549091506000906144e690600190615658565b905081811461454b57600086600001828154811061450657614506615252565b906000526020600020015490508087600001848154811061452957614529615252565b6000918252602080832090910192909255918252600188019052604090208390555b855486908061455c5761455c61566b565b600190038181906000526020600020016000905590558560010160008681526020019081526020016000206000905560019350505050610840565b6000915050610840565b6000806145ad8361476d565b90506000806145bc83876147da565b909250905060008160048111156145d5576145d5614ce0565b146144a55760405162461bcd60e51b8152602060048201526011602482015270496c6c6567616c205369676e617475726560781b604482015260640161088e565b600081815260018301602052604081205461465d57508154600181810184556000848152602080822090930184905584548482528286019093526040902091909155610840565b506000610840565b61466e81614419565b6040516001600160a01b03821690309033907f8ee0f2bd29c0e6a975c3cc2e47cf2e01b5f23a9a8a02e0ed6a5a070269de3d2d90600090a450565b60606001600160a01b0384163b6147025760405162461bcd60e51b815260206004820152601860248201527f496c6c6567616c20436f6e747261637420416464726573730000000000000000604482015260640161088e565b600080856001600160a01b03168560405161471d9190615681565b600060405180830381855af49150503d8060008114614758576040519150601f19603f3d011682016040523d82523d6000602084013e61475d565b606091505b509150915061156f828286614845565b6000610840306001600160a01b031663f698da256040518163ffffffff1660e01b8152600401602060405180830381865afa1580156147b0573d6000803e3d6000fd5b505050506040513d601f19601f820116820180604052508101906147d491906153bd565b8361487e565b60008082516041036148105760208301516040840151606085015160001a614804878285856148a5565b94509450505050612de3565b8251604003614839576020830151604084015161482e868383614992565b935093505050612de3565b50600090506002612de3565b60608315614854575081610f10565b8251156148645782518084602001fd5b8160405162461bcd60e51b815260040161088e9190614fdd565b60405161190160f01b60208201526022810183905260428101829052600090606201613c2f565b6000807f7fffffffffffffffffffffffffffffff5d576e7357a4501ddfe92f46681b20a08311156148dc5750600090506003614989565b8460ff16601b141580156148f457508460ff16601c14155b156149055750600090506004614989565b6040805160008082526020820180845289905260ff881692820192909252606081018690526080810185905260019060a0016020604051602081039080840390855afa158015614959573d6000803e3d6000fd5b5050604051601f1901519150506001600160a01b03811661498257600060019250925050614989565b9150600090505b94509492505050565b6000806001600160ff1b038316816149af60ff86901c601b615693565b90506149bd878288856148a5565b935093505050935093915050565b5080546149d7906152ce565b6000825580601f106149e7575050565b601f01602090049060005260206000209081019061358a9190614a1f565b508054600082559060005260206000209081019061358a91905b5b80821115614a345760008155600101614a20565b5090565b600060208284031215614a4a57600080fd5b81356001600160e01b031981168114610f1057600080fd5b60008083601f840112614a7457600080fd5b5081356001600160401b03811115614a8b57600080fd5b602083019150836020828501011115612de357600080fd5b80356001600160a01b0381168114610d8557600080fd5b600080600080600060608688031215614ad257600080fd5b85356001600160401b0380821115614ae957600080fd5b614af589838a01614a62565b90975095506020880135915080821115614b0e57600080fd5b50614b1b88828901614a62565b9094509250614b2e905060408701614aa3565b90509295509295909350565b600060208284031215614b4c57600080fd5b610f1082614aa3565b600080600060608486031215614b6a57600080fd5b8335925060208401359150614b8160408501614aa3565b90509250925092565b600080600060608486031215614b9f57600080fd5b505081359360208301359350604090920135919050565b600060808284031215614bc857600080fd5b50919050565b60008083601f840112614be057600080fd5b5081356001600160401b03811115614bf757600080fd5b6020830191508360208260061b8501011115612de357600080fd5b600080600060408486031215614c2757600080fd5b83356001600160401b0380821115614c3e57600080fd5b614c4a87838801614bb6565b94506020860135915080821115614c6057600080fd5b50614c6d86828701614bce565b9497909650939450505050565b60008060408385031215614c8d57600080fd5b50508035926020909101359150565b6020808252825182820181905260009190848201906040850190845b81811015614cd457835183529284019291840191600101614cb8565b50909695505050505050565b634e487b7160e01b600052602160045260246000fd5b6002811061358a5761358a614ce0565b60208101614d1383614cf6565b91905290565b60068110614d2957614d29614ce0565b9052565b6004811061358a5761358a614ce0565b614d2981614d2d565b60005b83811015614d61578181015183820152602001614d49565b50506000910152565b60008151808452614d82816020860160208601614d46565b601f01601f19169290920160200192915050565b60208152815160208201526020820151604082015260006040830151614dc2606084018261ffff169052565b50606083015161ffff8116608084015250608083015163ffffffff811660a08401525060a0830151614df760c0840182614d19565b5060c0830151614e0a60e0840182614d3d565b5060e0830151610100614e1f81850183614d3d565b8401519050610120614e3384820183614d3d565b840151610140848101529050611ad7610160840182614d6a565b600080600060408486031215614e6257600080fd5b83356001600160401b0380821115614e7957600080fd5b614e8587838801614bb6565b94506020860135915080821115614e9b57600080fd5b818601915086601f830112614eaf57600080fd5b813581811115614ebe57600080fd5b876020606083028501011115614ed357600080fd5b6020830194508093505050509250925092565b634e487b7160e01b600052604160045260246000fd5b801515811461358a57600080fd5b8035610d8581614efc565b600080600060608486031215614f2a57600080fd5b614f3384614aa3565b925060208401356001600160401b0380821115614f4f57600080fd5b818601915086601f830112614f6357600080fd5b813581811115614f7557614f75614ee6565b604051601f8201601f19908116603f01168101908382118183101715614f9d57614f9d614ee6565b81604052828152896020848701011115614fb657600080fd5b826020860160208301376000602084830101528096505050505050614b8160408501614f0a565b602081526000610f106020830184614d6a565b60008083601f84011261500257600080fd5b5081356001600160401b0381111561501957600080fd5b6020830191508360208260051b8501011115612de357600080fd5b60008060006040848603121561504957600080fd5b83356001600160401b038082111561506057600080fd5b61506c87838801614bb6565b9450602086013591508082111561508257600080fd5b50614c6d86828701614ff0565b6000806000604084860312156150a457600080fd5b8335925060208401356001600160401b038111156150c157600080fd5b614c6d86828701614a62565b6002811061358a57600080fd5b6000602082840312156150ec57600080fd5b8135610f10816150cd565b6020808252600c908201526b125b1b1959d85b0810d85b1b60a21b604082015260600190565b6020808252600c908201526b125b9d985b1a590810d85b1b60a21b604082015260600190565b81835281816020850137506000828201602090810191909152601f909101601f19169091010190565b606081526000615180606083018789615143565b8281036020840152615193818688615143565b91505061ffff831660408301529695505050505050565b60208082526008908201526714995a9958dd195960c21b604082015260600190565b602080825260119082015270496c6c6567616c20557064617461626c6560781b604082015260600190565b60208082526010908201526f125b1b1959d85b0810dbdb9d1c9858dd60821b604082015260600190565b6020810160148310614d1357614d13614ce0565b60006020828403121561524757600080fd5b8151610f1081614efc565b634e487b7160e01b600052603260045260246000fd5b634e487b7160e01b600052601160045260246000fd5b60006001820161529057615290615268565b5060010190565b6004811061358a57600080fd5b6000602082840312156152b657600080fd5b8135610f1081615297565b60208101614d1383614d2d565b600181811c908216806152e257607f821691505b602082108103614bc857634e487b7160e01b600052602260045260246000fd5b60008235605e1983360301811261531857600080fd5b9190910192915050565b8481526080602082015283356080820152600060208501358060020b80821461534a57600080fd5b60a084015250604085013536869003601e1901811261536857600080fd5b85016020810190356001600160401b0381111561538457600080fd5b80360382131561539357600080fd5b606060c08501526153a860e085018284615143565b60408501969096525050506060015292915050565b6000602082840312156153cf57600080fd5b5051919050565b6000602082840312156153e857600080fd5b813561ffff81168114610f1057600080fd5b60006020828403121561540c57600080fd5b815160148110610f1057600080fd5b60006020828403121561542d57600080fd5b8151610f10816150cd565b6000808335601e1984360301811261544f57600080fd5b8301803591506001600160401b0382111561546957600080fd5b602001915036819003821315612de357600080fd5b60006020828403121561549057600080fd5b81356001600160401b0381168114610f1057600080fd5b6000602082840312156154b957600080fd5b815160088110610f1057600080fd5b8183823760009101908152919050565b60008083546154e6816152ce565b600182811680156154fe576001811461551357615542565b60ff1984168752821515830287019450615542565b8760005260208060002060005b858110156155395781548a820152908401908201615520565b50505082870194505b50929695505050505050565b601f82111561559457600081815260208120601f850160051c810160208610156155755750805b601f850160051c820191505b81811015610a7457828155600101615581565b505050565b6001600160401b038311156155b0576155b0614ee6565b6155c4836155be83546152ce565b8361554e565b6000601f8411600181146155f857600085156155e05750838201355b600019600387901b1c1916600186901b178355612cf6565b600083815260209020601f19861690835b828110156156295786850135825560209485019460019092019101615609565b50868210156156465760001960f88860031b161c19848701351681555b505060018560011b0183555050505050565b8181038181111561084057610840615268565b634e487b7160e01b600052603160045260246000fd5b60008251615318818460208701614d46565b808201808211156108405761084061526856fe360894a13ba1a3210667c828492db98dca3e2076cc3735a920a3ca505d382bbca2646970667358221220944f0777200c2d6f12a87f63677fe6190eea9daa47fc787f07874d166f129e9964736f6c63430008130033b53127684a568b3173ae13b9f8a6016e243e63b6e8ee1178d6a717850b5d6103",
  "deployedBytecode": "0x6080604052600436106102325760003560e01c80637147855d1161012d578063a304e353116100b0578063e6e473a711610077578063e6e473a71461075d578063f0b15def1461077d578063f698da25146107b1578063f708ceb0146107c6578063f94a0adb146107e6578063fcc40178146107fb57005b8063a304e353146106c0578063b4453621146106df578063b4a0bdf3146106ff578063d21f8f401461071d578063d9dc1f191461073d57005b806380a63a73116100f457806380a63a73146106175780639b97b534146106375780639f6220981461066b578063a0a8e4601461068b578063a148d4be146106a057005b80637147855d1461056e57806372d518611461059b578063756af45f146105bb57806375d0c0dc146105db5780637678922e146105f057005b806342a73726116101b557806357c8e0311161017c57806357c8e031146104a057806358dbc45d146104cd5780635ced0e8b146104fa57806364d4c8191461051a5780636e3c1b841461054e57005b806342a73726146103e25780634886f137146104025780634888f4821461042f5780634bf0414d1461045757806352d1902d1461048b57005b8063301c1280116101f9578063301c12801461031257806334109de2146103465780633600821b1461037a57806338d38c971461039a5780633c27839f146103c257005b806301ffc9a71461023b578063077f224a146102705780630e32cb861461029057806316e1fd79146102b05780631b452f4b146102d057005b3661023957005b005b34801561024757600080fd5b5061025b610256366004614a38565b61081b565b60405190151581526020015b60405180910390f35b34801561027c57600080fd5b5061023961028b366004614aba565b610846565b34801561029c57600080fd5b5061025b6102ab366004614b3a565b610a7c565b3480156102bc57600080fd5b5061025b6102cb366004614b55565b610d8a565b3480156102dc57600080fd5b506103047f7bfb2abd6084c8ce20d7ff92c1620e7e7267603f0eac446b9176959d243306bc81565b604051908152602001610267565b34801561031e57600080fd5b506103047f541cf898e7c3085cbc6b7402ba06e7237285bc4bd5baa510e708e35537a71ffd81565b34801561035257600080fd5b506103047f7aabe2571874f2a330ea11c8972d9cc3792d973efc6b36e3e29005861a34418881565b34801561038657600080fd5b5061025b610395366004614b8a565b610f17565b3480156103a657600080fd5b506103af610f8f565b60405161ffff9091168152602001610267565b3480156103ce57600080fd5b5061025b6103dd366004614c12565b610fa3565b3480156103ee57600080fd5b5061025b6103fd366004614c12565b61128d565b34801561040e57600080fd5b5061042261041d366004614c7a565b6114e7565b6040516102679190614c9c565b34801561043b57600080fd5b50600254600160a81b900460ff165b6040516102679190614d06565b34801561046357600080fd5b506103047f9027b951cbdf8eff67da583391d218a57a89ec1ebfcb1c66da188e8531804d5581565b34801561049757600080fd5b50610304611579565b3480156104ac57600080fd5b506104c06104bb366004614c7a565b6115d6565b6040516102679190614d96565b3480156104d957600080fd5b506104e261186e565b6040516001600160a01b039091168152602001610267565b34801561050657600080fd5b5061025b610515366004614e4d565b611878565b34801561052657600080fd5b506103047f8b73c3c69bb8fe3d512ecc4cf759cc79239f7b179b0ffacaa9a75d522b39400f81565b34801561055a57600080fd5b5061025b610569366004614b8a565b6118dc565b34801561057a57600080fd5b5061058e610589366004614f15565b611980565b6040516102679190614fdd565b3480156105a757600080fd5b5061025b6105b6366004614c7a565b611adf565b3480156105c757600080fd5b506103046105d6366004614b3a565b611b1e565b3480156105e757600080fd5b5061058e611be3565b3480156105fc57600080fd5b5073__$68dc14faf17200ec68c1b553d3c187a731$__6104e2565b34801561062357600080fd5b5061025b610632366004614b8a565b611c75565b34801561064357600080fd5b506103047fdee69d384475c3656c17c592e94a2bbfd2a1998cce0c85f535569415a15863b881565b34801561067757600080fd5b5061025b610686366004615034565b611d4e565b34801561069757600080fd5b5061058e612003565b3480156106ac57600080fd5b5061025b6106bb366004615034565b612012565b3480156106cc57600080fd5b50600254600160a01b900460ff1661044a565b3480156106eb57600080fd5b5061025b6106fa366004614c12565b61233e565b34801561070b57600080fd5b506002546001600160a01b03166104e2565b34801561072957600080fd5b5061025b61073836600461508f565b6124da565b34801561074957600080fd5b5061025b610758366004614b3a565b61252b565b34801561076957600080fd5b5061025b610778366004614c12565b6126e1565b34801561078957600080fd5b506103047ffc434588684348dd50856b075c47bed14245c1030aa04c32955af5549981462781565b3480156107bd57600080fd5b50610304612907565b3480156107d257600080fd5b5061025b6107e13660046150da565b612911565b3480156107f257600080fd5b506104e2612abb565b34801561080757600080fd5b5061025b6108163660046150da565b612ac5565b60006001600160e01b031982166301f8ce9960e51b1480610840575061084082612c50565b92915050565b6001600160a01b037f00000000000000000000000000000000000000000000000000000000000000001630036108975760405162461bcd60e51b815260040161088e906150f7565b60405180910390fd5b7f00000000000000000000000000000000000000000000000000000000000000006001600160a01b03166108c9612ca0565b6001600160a01b0316146108ef5760405162461bcd60e51b815260040161088e9061511d565b336108f8612cc1565b6001600160a01b03161461093e5760405162461bcd60e51b815260206004820152600d60248201526c1058d8d95cdcc811195b9a5959609a1b604482015260640161088e565b604e5462010000900460ff16158080156109605750604e54600161ffff909116105b8061097b5750303b15801561097b5750604e5461ffff166001145b6109c75760405162461bcd60e51b815260206004820152601c60248201527f436f6e747261637420416c726561647920496e697469616c697a656400000000604482015260640161088e565b604e805461ffff1916600117905580156109ed57604e805462ff00001916620100001790555b6109fa8686868686612ce9565b610a02612ca0565b6001600160a01b031630336001600160a01b03167f247ab7b17ee489fa140c6666edc3822eefed2727610cd6e37192462b87244c6089898989610a48604e5461ffff1690565b604051610a5995949392919061516c565b60405180910390a48015610a7457604e805462ff0000191690555b505050505050565b60006001600160a01b037f0000000000000000000000000000000000000000000000000000000000000000163003610ac65760405162461bcd60e51b815260040161088e906150f7565b7f00000000000000000000000000000000000000000000000000000000000000006001600160a01b0316610af8612ca0565b6001600160a01b031614610b1e5760405162461bcd60e51b815260040161088e9061511d565b6000600254600160a01b900460ff166001811115610b3e57610b3e614ce0565b14610b5b5760405162461bcd60e51b815260040161088e906151aa565b6001600254600160a81b900460ff166001811115610b7b57610b7b614ce0565b14610b985760405162461bcd60e51b815260040161088e906151cc565b6001600160a01b03821615801590610bb957506001600160a01b0382163b15155b610bd55760405162461bcd60e51b815260040161088e906151f7565b6002546001600160a01b031615610c34576000610bf863071965c360e11b612cfd565b90506000816013811115610c0e57610c0e614ce0565b14610c2e5780604051637f0911d160e01b815260040161088e9190615221565b50610c83565b33610c3d612cc1565b6001600160a01b031614610c835760405162461bcd60e51b815260206004820152600d60248201526c1058d8d95cdcc811195b9a5959609a1b604482015260640161088e565b6040516301ffc9a760e01b81526331501c3960e01b60048201526001600160a01b038316906301ffc9a790602401602060405180830381865afa158015610cce573d6000803e3d6000fd5b505050506040513d601f19601f82011682018060405250810190610cf29190615235565b610d2c5760405162461bcd60e51b815260206004820152600b60248201526a125b1b1959d85b081050d360aa1b604482015260640161088e565b600280546001600160a01b0384166001600160a01b031990911681179091556040805191825251309133917f410bf468eebeeed60acaedb904afb2db7c0bb0131f7d14c3714d81b14fe8ed3c9181900360200190a35060015b919050565b6000838152604860205260408120816008820154600160a01b900460ff166003811115610db957610db9614ce0565b03610dc8576000915050610f10565b600080610dd58387612d88565b9150915080610dea5760009350505050610f10565b815460008181526020859052604081206001015460ff1690610e0b88612dea565b90506002826003811115610e2157610e21614ce0565b03610ea557600080610e338886612e29565b9150915080610e4d57600098505050505050505050610f10565b600080610e6784600301548b612e7490919063ffffffff16565b9150915080610e835760009a5050505050505050505050610f10565b506000938452600501602052505060409020549091149450610f109350505050565b6003826003811115610eb957610eb9614ce0565b03610f0557600080610ecb8886612e74565b9150915080610ee557600098505050505050505050610f10565b506000918252600501602052604090205415159550610f10945050505050565b600096505050505050505b9392505050565b6000838152604860205260408120816008820154600160a01b900460ff166003811115610f4657610f46614ce0565b03610f55576000915050610f10565b600080610f628387612d88565b9150915080610f775760009350505050610f10565b610f846005830186612e8b565b979650505050505050565b6000610f9e604e5461ffff1690565b905090565b60008080808080610fbb89633c27839f60e01b612ea3565b9450945094509450945060005b8781101561127d576000610ff987878c8c86818110610fe957610fe9615252565b905060400201600001358761311a565b905060008a8a8481811061100f5761100f615252565b90506040020160200135146111935760018760008c8c8681811061103557611035615252565b90506040020160200135815260200190815260200160002060010160009054906101000a900460ff16600381111561106f5761106f614ce0565b116110bc5760405162461bcd60e51b815260206004820152601760248201527f496c6c6567616c2041646d696e204167656e7454797065000000000000000000604482015260640161088e565b60006110e3888c8c868181106110d4576110d4615252565b90506040020160200135613208565b60405176554e4956455253452e4c4956454c595f50524f46494c4560481b60208201529091506037016040516020818303038152906040528051906020012081146111665760405162461bcd60e51b8152602060048201526013602482015272496c6c6567616c2041646d696e2053636f706560681b604482015260640161088e565b8a8a8481811061117857611178615252565b905060400201602001358260000160000181905550506111ef565b8660010160006040516020016111c69076554e4956455253452e4c4956454c595f50524f46494c4560481b815260170190565b60408051601f198184030181529181528151602092830120835290820192909252016000205481555b89898381811061120157611201615252565b9050604002016000013585846001600160a01b03167f5b710f05939f06ac98e0d9fa963cf8b006598d6f312340abe44d823c7bbbbfbf8d8d8781811061124957611249615252565b9050604002016020013560405161126291815260200190565b60405180910390a450806112758161527e565b915050610fc8565b5060019998505050505050505050565b600080808080806112a5896321539b9360e11b612ea3565b9450945094509450945060005b8781101561127d5760006112e18a8a848181106112d1576112d1615252565b8a9260409091020135905061327f565b9050600180820154610100900460ff16600381111561130257611302614ce0565b116113405760405162461bcd60e51b815260206004820152600e60248201526d111bdb585a5b8811195b195d195960921b604482015260640161088e565b60006113558888846000016000015488613361565b9050600081600781111561136b5761136b614ce0565b1461137957611379816133f6565b60008b8b8581811061138d5761138d615252565b90506040020160200160208101906113a591906152a4565b60038111156113b6576113b6614ce0565b036113fa5760405162461bcd60e51b8152602060048201526014602482015273496c6c6567616c20416c7465726162696c69747960601b604482015260640161088e565b8a8a8481811061140c5761140c615252565b905060400201602001602081019061142491906152a4565b60018301805462ff000019166201000083600381111561144657611446614ce0565b02179055508a8a8481811061145d5761145d615252565b9050604002016000013586856001600160a01b03167fea240b6973d08db8e1c46d1bc568537e83a60d62b9c7e0b330e91837fec5abee8e8e888181106114a5576114a5615252565b90506040020160200160208101906114bd91906152a4565b6040516114ca91906152c1565b60405180910390a4505080806114df9061527e565b9150506112b2565b60008281526048602052604081206060916008820154600160a01b900460ff16600381111561151857611518614ce0565b03611533575050604080516000815260208101909152610840565b6000806115408386612d88565b915091508061156357505060408051600081526020810190915291506108409050565b61156f8260050161358d565b9695505050505050565b6000306001600160a01b037f000000000000000000000000000000000000000000000000000000000000000016146115c35760405162461bcd60e51b815260040161088e906150f7565b506000805160206156a783398151915290565b61162c604080516101408101825260008082526020820181905291810182905260608101829052608081018290529060a08201908152602001600081526020016000815260200160008152602001606081525090565b600083815260486020526040812090806116468386612d88565b91509150801580611676575060006008840154600160a01b900460ff16600381111561167457611674614ce0565b145b156116e357604080516101408101825260008082526020820181905291810182905260608101829052608081018290529060a08201908152602001600081526020016000815260200160008152602001604051806020016040528060008152508152509350505050610840565b60408051610140810182528354815260028401546020820152600384015461ffff16918101919091526060810161171c60058501613598565b61ffff168152600184015463ffffffff6301000000820416602083015260409091019060ff16600581111561175357611753614ce0565b815283546000908152602086815260409091206001015491019060ff16600381111561178157611781614ce0565b81526001840154602090910190610100900460ff1660038111156117a7576117a7614ce0565b8152600184015460209091019062010000900460ff1660038111156117ce576117ce614ce0565b81526020018360040180546117e2906152ce565b80601f016020809104026020016040519081016040528092919081815260200182805461180e906152ce565b801561185b5780601f106118305761010080835404028352916020019161185b565b820191906000526020600020905b81548152906001019060200180831161183e57829003601f168201915b5050505050815250935050505092915050565b6000610f9e612ca0565b6000808080808061189089635ced0e8b60e01b612ea3565b9450945094509450945060005b8781101561127d576118ca8989838181106118ba576118ba615252565b90506060020187878787876135a2565b806118d48161527e565b91505061189d565b6000838152604860205260408120816008820154600160a01b900460ff16600381111561190b5761190b614ce0565b0361191a576000915050610f10565b6000806119278386613859565b915091508061193c5760009350505050610f10565b60008061195684600201548661387290919063ffffffff16565b915091508061196d57600095505050505050610f10565b5060020154861493505050509392505050565b60606001600160a01b037f00000000000000000000000000000000000000000000000000000000000000001630036119ca5760405162461bcd60e51b815260040161088e906150f7565b7f00000000000000000000000000000000000000000000000000000000000000006001600160a01b03166119fc612ca0565b6001600160a01b031614611a225760405162461bcd60e51b815260040161088e9061511d565b6000600254600160a01b900460ff166001811115611a4257611a42614ce0565b14611a5f5760405162461bcd60e51b815260040161088e906151aa565b6001600254600160a81b900460ff166001811115611a7f57611a7f614ce0565b14611a9c5760405162461bcd60e51b815260040161088e906151cc565b6001600160a01b0384163b611ac35760405162461bcd60e51b815260040161088e906151f7565b611acc8461388b565b611ad7848484613929565b949350505050565b600082815260486020908152604080832084845260019081019092528220015460049060ff166005811115611b1657611b16614ce0565b149392505050565b600080600254600160a01b900460ff166001811115611b3f57611b3f614ce0565b14611b5c5760405162461bcd60e51b815260040161088e906151aa565b6000611b6e63756af45f60e01b612cfd565b90506000816013811115611b8457611b84614ce0565b14611ba45780604051637f0911d160e01b815260040161088e9190615221565b60405147906001600160a01b038516904780156108fc02916000818181858888f19350505050158015611bdb573d6000803e3d6000fd5b509392505050565b606060008054611bf2906152ce565b80601f0160208091040260200160405190810160405280929190818152602001828054611c1e906152ce565b8015611c6b5780601f10611c4057610100808354040283529160200191611c6b565b820191906000526020600020905b815481529060010190602001808311611c4e57829003601f168201915b5050505050905090565b6000838152604860205260408120816008820154600160a01b900460ff166003811115611ca457611ca4614ce0565b03611cb3576000915050610f10565b600080611cc08386613ae1565b9150915080611cd55760009350505050610f10565b600080611cef84600301548661385990919063ffffffff16565b9150915080611d0657600095505050505050610f10565b600080611d2084600201548861387290919063ffffffff16565b9150915080611d39576000975050505050505050610f10565b50600201548814955050505050509392505050565b60008080808080611d66896313ec441360e31b612ea3565b6040516352116c0b60e11b81526004810186905261ffff8d166024820152604481018390529499509297509095509350915073__$68dc14faf17200ec68c1b553d3c187a731$__9063a422d8169060640160006040518083038186803b158015611dcf57600080fd5b505af4158015611de3573d6000803e3d6000fd5b505050506000611e4686604051602001611e2a907f545950452e4c4956454c595f50524f46494c452e4c4956454c595f4d415354458152602960f91b602082015260210190565b6040516020818303038152906040528051906020012085613af9565b60405176554e4956455253452e4c4956454c595f50524f46494c4560481b6020820152909150603701604051602081830303815290604052805190602001208114611ecc5760405162461bcd60e51b8152602060048201526016602482015275496c6c6567616c20556e6976657273652053636f706560501b604482015260640161088e565b60005b88811015611ff257600073__$68dc14faf17200ec68c1b553d3c187a731$__63fed701b7898d8d86818110611f0657611f06615252565b9050602002810190611f189190615302565b8a896040518563ffffffff1660e01b8152600401611f399493929190615322565b602060405180830381865af4158015611f56573d6000803e3d6000fd5b505050506040513d601f19601f82011682018060405250810190611f7a91906153bd565b90508086856001600160a01b03167f1fdfded8fb02e6cc7c368260e630643330d8d3368756c3701bd95df50af44c6f8e8e87818110611fbb57611fbb615252565b9050602002810190611fcd9190615302565b6040519035815260200160405180910390a45080611fea8161527e565b915050611ecf565b5060019a9950505050505050505050565b606060018054611bf2906152ce565b6000808080808061202a896350a46a5f60e11b612ea3565b9450945094509450945060005b8781101561127d57600061206c8a8a8481811061205657612056615252565b905060200201358861327f90919063ffffffff16565b905060006120838888846000016000015488613361565b9050600081600781111561209957612099614ce0565b146120a7576120a7816133f6565b6120b382600501613598565b156120f15760405162461bcd60e51b815260206004820152600e60248201526d496c6c6567616c2052656d6f766560901b604482015260640161088e565b60018201546301000000900463ffffffff1660000361227857600061212383600201548a613b3390919063ffffffff16565b90506002600182015462010000900460ff16600381111561214657612146614ce0565b10156121945760405162461bcd60e51b815260206004820152601a60248201527f496c6c6567616c20556e69766572736520557064617461626c65000000000000604482015260640161088e565b6121c28c8c868181106121a9576121a9615252565b9050602002013582600401613c0e90919063ffffffff16565b50600080845560018401805466ffffffffffffff191690556002840181905560038401805461ffff191690556121fc9060048501906149cb565b600583016000818161220e8282614a05565b505050508b8b8581811061222457612224615252565b9050602002013587866001600160a01b03167ffc02d07c298824cb077a2726458cc8ec571a244a8743cf6ca8f26eec95afae31600060405161226a911515815260200190565b60405180910390a450612329565b6002600183015462010000900460ff16600381111561229957612299614ce0565b10156122b75760405162461bcd60e51b815260040161088e906151cc565b60018201805461ff0019166101001790558a8a848181106122da576122da615252565b9050602002013586856001600160a01b03167ffc02d07c298824cb077a2726458cc8ec571a244a8743cf6ca8f26eec95afae316001604051612320911515815260200190565b60405180910390a45b505080806123369061527e565b915050612037565b600080808080806123568963b445362160e01b612ea3565b9450945094509450945060005b8781101561127d57600061238487878c8c86818110610fe957610fe9615252565b905061239281600501613598565b8a8a848181106123a4576123a4615252565b90506040020160200160208101906123bc91906153d6565b61ffff16116123fd5760405162461bcd60e51b815260206004820152600d60248201526c125b1b1959d85b08131a5b5a5d609a1b604482015260640161088e565b89898381811061240f5761240f615252565b905060400201602001602081019061242791906153d6565b60038201805461ffff191661ffff9290921691909117905589898381811061245157612451615252565b9050604002016000013585846001600160a01b03167fe6dab34d6bc7b1ff4ec260c144f4a0da0c229b4dc85d14524b79e90b85fd643e8d8d8781811061249957612499615252565b90506040020160200160208101906124b191906153d6565b60405161ffff909116815260200160405180910390a450806124d28161527e565b915050612363565b600060046000858152604860205260408120600101906124fa8686613c1a565b815260208101919091526040016000206001015460ff16600581111561252257612522614ce0565b14949350505050565b60006001600160a01b037f00000000000000000000000000000000000000000000000000000000000000001630036125755760405162461bcd60e51b815260040161088e906150f7565b7f00000000000000000000000000000000000000000000000000000000000000006001600160a01b03166125a7612ca0565b6001600160a01b0316146125cd5760405162461bcd60e51b815260040161088e9061511d565b6000600254600160a01b900460ff1660018111156125ed576125ed614ce0565b1461260a5760405162461bcd60e51b815260040161088e906151aa565b6001600254600160a81b900460ff16600181111561262a5761262a614ce0565b146126475760405162461bcd60e51b815260040161088e906151cc565b600061265963d9dc1f1960e01b612cfd565b9050600081601381111561266f5761266f614ce0565b1461268f5780604051637f0911d160e01b815260040161088e9190615221565b6001600160a01b0383166126cf5760405162461bcd60e51b8152602060048201526007602482015266125b9d985b1a5960ca1b604482015260640161088e565b6126d883613c4d565b50600192915050565b600080808080806126f98963e6e473a760e01b612ea3565b9450945094509450945060005b8781101561127d5760006127258a8a848181106112d1576112d1615252565b90506002600182015462010000900460ff16600381111561274857612748614ce0565b10156127665760405162461bcd60e51b815260040161088e906151cc565b600061277b8888846000016000015488613361565b9050600081600781111561279157612791614ce0565b1461279f5761279f816133f6565b60018b8b858181106127b3576127b3615252565b90506040020160200160208101906127cb91906152a4565b60038111156127dc576127dc614ce0565b1161281c5760405162461bcd60e51b815260206004820152601060248201526f496c6c6567616c20416374697669747960801b604482015260640161088e565b8a8a8481811061282e5761282e615252565b905060400201602001602081019061284691906152a4565b60018301805461ff00191661010083600381111561286657612866614ce0565b02179055508a8a8481811061287d5761287d615252565b9050604002016000013586856001600160a01b03167fbf5193ad7d995fae19acb9705414b01b4285967b286913547447d2e2462b572f8e8e888181106128c5576128c5615252565b90506040020160200160208101906128dd91906152a4565b6040516128ea91906152c1565b60405180910390a4505080806128ff9061527e565b915050612706565b6000610f9e613cc4565b60006001600160a01b037f000000000000000000000000000000000000000000000000000000000000000016300361295b5760405162461bcd60e51b815260040161088e906150f7565b7f00000000000000000000000000000000000000000000000000000000000000006001600160a01b031661298d612ca0565b6001600160a01b0316146129b35760405162461bcd60e51b815260040161088e9061511d565b60006129c2604e5461ffff1690565b61ffff16116129fe5760405162461bcd60e51b81526020600482015260086024820152671393d5081253925560c21b604482015260640161088e565b6000612a10630f708ceb60e41b612cfd565b90506000816013811115612a2657612a26614ce0565b14612a465780604051637f0911d160e01b815260040161088e9190615221565b6002805484919060ff60a01b1916600160a01b836001811115612a6b57612a6b614ce0565b021790555030336001600160a01b03167fc08ec585c25f1907baaab6f278c5994531a2e34c59935b3fcfe813067a3b487885604051612aaa9190614d06565b60405180910390a350600192915050565b6000610f9e612cc1565b60006001600160a01b037f0000000000000000000000000000000000000000000000000000000000000000163003612b0f5760405162461bcd60e51b815260040161088e906150f7565b7f00000000000000000000000000000000000000000000000000000000000000006001600160a01b0316612b41612ca0565b6001600160a01b031614612b675760405162461bcd60e51b815260040161088e9061511d565b6000600254600160a01b900460ff166001811115612b8757612b87614ce0565b14612ba45760405162461bcd60e51b815260040161088e906151aa565b6000612bb6631f98802f60e31b612cfd565b90506000816013811115612bcc57612bcc614ce0565b14612bec5780604051637f0911d160e01b815260040161088e9190615221565b6002805484919060ff60a81b1916600160a81b836001811115612c1157612c11614ce0565b021790555030336001600160a01b03167ff5912c5e436152157ed2b4a84bc313b4b1fe09a15b941f195d23c99a1b8c45ad85604051612aaa9190614d06565b60006001600160e01b03198216633d817cff60e01b1480612c8157506001600160e01b031982166352d1902d60e01b145b8061084057506301ffc9a760e01b6001600160e01b0319831614610840565b60006000805160206156a78339815191525b546001600160a01b0316919050565b60007fb53127684a568b3173ae13b9f8a6016e243e63b6e8ee1178d6a717850b5d6103612cb2565b612cf68585858585613d78565b5050505050565b6002546040805163172cb29d60e11b81523060048201526001600160e01b03198416602482015233604482015290516000926001600160a01b031691632e59653a916064808301926020929190829003018187875af1158015612d64573d6000803e3d6000fd5b505050506040513d601f19601f8201168201806040525081019061084091906153fa565b60008181526001830160205260408120819060045b600182015460ff166005811115612db657612db6614ce0565b03612dd857505060408051838152600185810160208301529190209150612de3565b600019925060009150505b9250929050565b6040516bffffffffffffffffffffffff19606083901b166020820152600090603401604051602081830303815290604052805190602001209050919050565b6000818152602083905260408120819060025b600182015460ff166003811115612e5557612e55614ce0565b03612dd857505060408051838152602081018590522090506001612de3565b600081815260208390526040812081906003612e3c565b60008181526001830160205260408120541515610f10565b60008080808080306001600160a01b031663a304e3536040518163ffffffff1660e01b8152600401602060405180830381865afa158015612ee8573d6000803e3d6000fd5b505050506040513d601f19601f82011682018060405250810190612f0c919061541b565b6001811115612f1d57612f1d614ce0565b14612f3a5760405162461bcd60e51b815260040161088e906151aa565b6000612f468880615438565b905011612f8b5760405162461bcd60e51b8152602060048201526013602482015272496c6c6567616c2050726f66696c654e616d6560681b604482015260640161088e565b600080612f9b60608a018a615438565b9050111561302f5742612fb460608a0160408b0161547e565b6001600160401b031611612ffe5760405162461bcd60e51b815260206004820152601160248201527045787069726564205369676e617475726560781b604482015260640161088e565b613028887f9027b951cbdf8eff67da583391d218a57a89ec1ebfcb1c66da188e8531804d55613f41565b9050613032565b50335b60006130466130418a80615438565b613c1a565b6001600160e01b031989166000908152604a60205260408120549192506001600160a01b0390911690613079828b614010565b9050600061308685612dea565b60405163a66ce52f60e01b8152600481018690526024810184905260448101829052909150309063a66ce52f90606401600060405180830381600087803b1580156130d057600080fd5b505af11580156130e4573d6000803e3d6000fd5b50505060008581526048602052604081209150613102604485614047565b919e919d50949b509099509397509295505050505050565b600080613127868561327f565b9050600180820154610100900460ff16600381111561314857613148614ce0565b116131865760405162461bcd60e51b815260206004820152600e60248201526d111bdb585a5b8811195b195d195960921b604482015260640161088e565b6002600182015462010000900460ff1660038111156131a7576131a7614ce0565b10156131c55760405162461bcd60e51b815260040161088e906151cc565b60006131da8787846000016000015487613361565b905060008160078111156131f0576131f0614ce0565b146131fe576131fe816133f6565b5095945050505050565b60008181526020839052604081206001015460ff16600281600381111561323157613231614ce0565b036132505760006132428585614122565b600201549250610840915050565b600381600381111561326457613264614ce0565b0361327557600061324285856141ff565b5060009392505050565b600081815260018301602052604081206004600182015460ff1660058111156132aa576132aa614ce0565b036132c7576040805184815260018601602082015220915061335a565b6000600182015460ff1660058111156132e2576132e2614ce0565b0361331f5760405162461bcd60e51b815260206004820152600d60248201526c11125108139bdd08119bdd5b99609a1b604482015260640161088e565b60405162461bcd60e51b815260206004820152601060248201526f125b1b1959d85b081112510814db1bdd60821b604482015260640161088e565b5092915050565b604051635fbcdb4b60e01b81526004810185905260248101849052604481018390526064810182905260009073__$68dc14faf17200ec68c1b553d3c187a731$__90635fbcdb4b90608401602060405180830381865af41580156133c9573d6000803e3d6000fd5b505050506040513d601f19601f820116820180604052508101906133ed91906154a7565b95945050505050565b600181600781111561340a5761340a614ce0565b036134285760405163e15df99b60e01b815260040160405180910390fd5b600281600781111561343c5761343c614ce0565b0361345a5760405163c38331b560e01b815260040160405180910390fd5b600381600781111561346e5761346e614ce0565b0361348c5760405163dab65f4760e01b815260040160405180910390fd5b60048160078111156134a0576134a0614ce0565b036134be57604051633f4b20a160e11b815260040160405180910390fd5b60058160078111156134d2576134d2614ce0565b036134f0576040516308fa537360e01b815260040160405180910390fd5b600681600781111561350457613504614ce0565b036135225760405163ae0903a160e01b815260040160405180910390fd5b600781600781111561353657613536614ce0565b036135545760405163d59825eb60e01b815260040160405180910390fd5b60405162461bcd60e51b815260206004820152600b60248201526a2ab735b737bbb71022a92960a91b604482015260640161088e565b50565b6060610840826142d6565b6000610840825490565b60006135b1868689358661311a565b90506135c4600582016040890135612e8b565b6136025760405162461bcd60e51b815260206004820152600f60248201526e1499585b1b48139bdd08119bdd5b99608a1b604482015260640161088e565b600061361487878a602001358761311a565b905060006136268860408b0135614332565b90506002600182015462010000900460ff16600381111561364957613649614ce0565b10156136675760405162461bcd60e51b815260040161088e906151cc565b60018101546301000000900463ffffffff16156136b95760405162461bcd60e51b815260206004820152601060248201526f125b1b1959d85b08149959995c9c995960821b604482015260640161088e565b80546000906136c9908a90613208565b604051639c194e0560e01b8152600481018990526024810182905260208c013560448201529091503090639c194e0590606401602060405180830381865afa158015613719573d6000803e3d6000fd5b505050506040513d601f19601f8201168201806040525081019061373d9190615235565b61377f5760405162461bcd60e51b8152602060048201526013602482015272496c6c6567616c2041646d696e2053636f706560681b604482015260640161088e565b61378b83600501613598565b600384015461ffff16116137d05760405162461bcd60e51b815260206004820152600c60248201526b496c6c6567616c204d6f766560a01b604482015260640161088e565b6137e16005850160408c0135613c0e565b506137f36005840160408c013561440d565b506020808b01356002840181905560408051818e01358152928301919091528b359189916001600160a01b038916917f41cff1025a0779d7c87f6b43e48560891ad232f952102ef00b9b5f6c927bdcf5910160405180910390a450505050505050505050565b6000818152600183016020526040812081906002612d9d565b6000818152600183016020526040812081906003612d9d565b613893612ca0565b6001600160a01b0316816001600160a01b0316036138dd5760405162461bcd60e51b8152602060048201526007602482015266125b1b1959d85b60ca1b604482015260640161088e565b60006138ef637147855d60e01b612cfd565b9050600081601381111561390557613905614ce0565b146139255780604051637f0911d160e01b815260040161088e9190615221565b5050565b60607f4910fdfa16fed3260ed0e7147f7cc6da11a60208b5b9406d12a635614ffd91435460ff16156139735761395e84614419565b50604080516000815260208101909152610f10565b6000805160206156a783398151915260001b846001600160a01b03166352d1902d6040518163ffffffff1660e01b8152600401602060405180830381865afa1580156139c3573d6000803e3d6000fd5b505050506040513d601f19601f820116820180604052508101906139e791906153bd565b14613a235760405162461bcd60e51b815260206004820152600c60248201526b496c6c6567616c205555505360a01b604482015260640161088e565b6040516301ffc9a760e01b8152633d817cff60e01b60048201526001600160a01b038516906301ffc9a790602401602060405180830381865afa158015613a6e573d6000803e3d6000fd5b505050506040513d601f19601f82011682018060405250810190613a929190615235565b613acf5760405162461bcd60e51b815260206004820152600e60248201526d496c6c6567616c204950726f787960901b604482015260640161088e565b613ada848484614448565b9050610f10565b60008181526001808401602052604082208291612d9d565b600080613b0685856141ff565b6000848152600582016020526040812054919250613b248783614122565b60020154979650505050505050565b600081815260018301602052604081206005600182015460ff166005811115613b5e57613b5e614ce0565b03613b7b576040805184815260018601602082015220915061335a565b6000600182015460ff166005811115613b9657613b96614ce0565b03613bd35760405162461bcd60e51b815260206004820152600d60248201526c11d25108139bdd08119bdd5b99609a1b604482015260640161088e565b60405162461bcd60e51b815260206004820152601060248201526f125b1b195859db0811d2510814db1bdd60821b604482015260640161088e565b6000610f1083836144ae565b60008282604051602001613c2f9291906154c8565b60405160208183030381529060405280519060200120905092915050565b7fb53127684a568b3173ae13b9f8a6016e243e63b6e8ee1178d6a717850b5d610380546001600160a01b0383166001600160a01b031990911681179091556040805191825251309133917f63fdbed5f2909ec44e3becc51e9d29654ce1447747914e8a6ebc019e7f640b8b9181900360200190a350565b60007f8b73c3c69bb8fe3d512ecc4cf759cc79239f7b179b0ffacaa9a75d522b39400f6000604051602001613cf991906154d8565b604051602081830303815290604052805190602001206001604051602001613d2191906154d8565b60408051601f1981840301815282825280516020918201209083019490945281019190915260608101919091524660808201523060a082015260c00160405160208183030381529060405280519060200120905090565b604e5462010000900460ff16613dd05760405162461bcd60e51b815260206004820152601960248201527f436f6e7472616374204e6f7420496e697469616c697a696e6700000000000000604482015260640161088e565b6000613ddd858783615599565b506001613deb838583615599565b506001600160a01b0381163014613ed1576001600160a01b0381163b613e235760405162461bcd60e51b815260040161088e906151f7565b6040516301ffc9a760e01b81526331501c3960e01b60048201526001600160a01b038216906301ffc9a790602401602060405180830381865afa158015613e6e573d6000803e3d6000fd5b505050506040513d601f19601f82011682018060405250810190613e929190615235565b613ecc5760405162461bcd60e51b815260206004820152600b60248201526a125b1b1959d85b081050d360aa1b604482015260640161088e565b613f1d565b613ee16331501c3960e01b61081b565b613f1d5760405162461bcd60e51b815260206004820152600d60248201526c139bdd0814dd5c1c1bdc9d1959609a1b604482015260640161088e565b600280546001600160b01b0319166001600160a01b038316179055612cf633613c4d565b6000610f10613f536060850185615438565b8080601f01602080910402602001604051908101604052809392919081815260200183838082843760009201919091525061400b9250869150613f9b90506130418880615438565b613fab6040890160208a01614b3a565b613fbb60608a0160408b0161547e565b6001600160401b031660408051602080820196909652808201949094526001600160a01b039290921660608401526080808401919091528151808403909101815260a09092019052805191012090565b6145a1565b6040516bffffffffffffffffffffffff19606084901b1660208201526001600160e01b031982166034820152600090603801613c2f565b600081815260018084016020526040822090600182015460ff16600581111561407257614072614ce0565b0361408f576040805184815260018601602082015220915061335a565b6000600182015460ff1660058111156140aa576140aa614ce0565b036140e75760405162461bcd60e51b815260206004820152600d60248201526c11925108139bdd08119bdd5b99609a1b604482015260640161088e565b60405162461bcd60e51b815260206004820152601060248201526f125b1b195859db081192510814db1bdd60821b604482015260640161088e565b60008181526020839052604081206002600182015460ff16600381111561414b5761414b614ce0565b0361416657604080518481526020810186905220915061335a565b6000600182015460ff16600381111561418157614181614ce0565b036141c15760405162461bcd60e51b815260206004820152601060248201526f149bdb19525908139bdd08119bdd5b9960821b604482015260640161088e565b60405162461bcd60e51b8152602060048201526013602482015272125b1b1959d85b08149bdb1952590814db1bdd606a1b604482015260640161088e565b60008181526020839052604081206003600182015460ff16600381111561422857614228614ce0565b0361424357604080518481526020810186905220915061335a565b6000600182015460ff16600381111561425e5761425e614ce0565b0361429b5760405162461bcd60e51b815260206004820152600d60248201526c15125108139bdd08119bdd5b99609a1b604482015260640161088e565b60405162461bcd60e51b815260206004820152601060248201526f125b1b1959d85b081512510814db1bdd60821b604482015260640161088e565b60608160000180548060200260200160405190810160405280929190818152602001828054801561432657602002820191906000526020600020905b815481526020019060010190808311614312575b50505050509050919050565b600081815260018301602052604081206003600182015460ff16600581111561435d5761435d614ce0565b0361437a576040805184815260018601602082015220915061335a565b6000600182015460ff16600581111561439557614395614ce0565b036143d25760405162461bcd60e51b815260206004820152600d60248201526c14925108139bdd08119bdd5b99609a1b604482015260640161088e565b60405162461bcd60e51b815260206004820152601060248201526f125b1b195859db081492510814db1bdd60821b604482015260640161088e565b6000610f108383614616565b6000805160206156a783398151915280546001600160a01b0319166001600160a01b0392909216919091179055565b606061445384614665565b6000835111806144605750815b1561449357613ada84846040518060400160405280600b81526020016a10d85b1b0811985a5b195960aa1b8152506146a9565b60408051600080825260208201909252905b50949350505050565b600081815260018301602052604081205480156145975760006144d2600183615658565b85549091506000906144e690600190615658565b905081811461454b57600086600001828154811061450657614506615252565b906000526020600020015490508087600001848154811061452957614529615252565b6000918252602080832090910192909255918252600188019052604090208390555b855486908061455c5761455c61566b565b600190038181906000526020600020016000905590558560010160008681526020019081526020016000206000905560019350505050610840565b6000915050610840565b6000806145ad8361476d565b90506000806145bc83876147da565b909250905060008160048111156145d5576145d5614ce0565b146144a55760405162461bcd60e51b8152602060048201526011602482015270496c6c6567616c205369676e617475726560781b604482015260640161088e565b600081815260018301602052604081205461465d57508154600181810184556000848152602080822090930184905584548482528286019093526040902091909155610840565b506000610840565b61466e81614419565b6040516001600160a01b03821690309033907f8ee0f2bd29c0e6a975c3cc2e47cf2e01b5f23a9a8a02e0ed6a5a070269de3d2d90600090a450565b60606001600160a01b0384163b6147025760405162461bcd60e51b815260206004820152601860248201527f496c6c6567616c20436f6e747261637420416464726573730000000000000000604482015260640161088e565b600080856001600160a01b03168560405161471d9190615681565b600060405180830381855af49150503d8060008114614758576040519150601f19603f3d011682016040523d82523d6000602084013e61475d565b606091505b509150915061156f828286614845565b6000610840306001600160a01b031663f698da256040518163ffffffff1660e01b8152600401602060405180830381865afa1580156147b0573d6000803e3d6000fd5b505050506040513d601f19601f820116820180604052508101906147d491906153bd565b8361487e565b60008082516041036148105760208301516040840151606085015160001a614804878285856148a5565b94509450505050612de3565b8251604003614839576020830151604084015161482e868383614992565b935093505050612de3565b50600090506002612de3565b60608315614854575081610f10565b8251156148645782518084602001fd5b8160405162461bcd60e51b815260040161088e9190614fdd565b60405161190160f01b60208201526022810183905260428101829052600090606201613c2f565b6000807f7fffffffffffffffffffffffffffffff5d576e7357a4501ddfe92f46681b20a08311156148dc5750600090506003614989565b8460ff16601b141580156148f457508460ff16601c14155b156149055750600090506004614989565b6040805160008082526020820180845289905260ff881692820192909252606081018690526080810185905260019060a0016020604051602081039080840390855afa158015614959573d6000803e3d6000fd5b5050604051601f1901519150506001600160a01b03811661498257600060019250925050614989565b9150600090505b94509492505050565b6000806001600160ff1b038316816149af60ff86901c601b615693565b90506149bd878288856148a5565b935093505050935093915050565b5080546149d7906152ce565b6000825580601f106149e7575050565b601f01602090049060005260206000209081019061358a9190614a1f565b508054600082559060005260206000209081019061358a91905b5b80821115614a345760008155600101614a20565b5090565b600060208284031215614a4a57600080fd5b81356001600160e01b031981168114610f1057600080fd5b60008083601f840112614a7457600080fd5b5081356001600160401b03811115614a8b57600080fd5b602083019150836020828501011115612de357600080fd5b80356001600160a01b0381168114610d8557600080fd5b600080600080600060608688031215614ad257600080fd5b85356001600160401b0380821115614ae957600080fd5b614af589838a01614a62565b90975095506020880135915080821115614b0e57600080fd5b50614b1b88828901614a62565b9094509250614b2e905060408701614aa3565b90509295509295909350565b600060208284031215614b4c57600080fd5b610f1082614aa3565b600080600060608486031215614b6a57600080fd5b8335925060208401359150614b8160408501614aa3565b90509250925092565b600080600060608486031215614b9f57600080fd5b505081359360208301359350604090920135919050565b600060808284031215614bc857600080fd5b50919050565b60008083601f840112614be057600080fd5b5081356001600160401b03811115614bf757600080fd5b6020830191508360208260061b8501011115612de357600080fd5b600080600060408486031215614c2757600080fd5b83356001600160401b0380821115614c3e57600080fd5b614c4a87838801614bb6565b94506020860135915080821115614c6057600080fd5b50614c6d86828701614bce565b9497909650939450505050565b60008060408385031215614c8d57600080fd5b50508035926020909101359150565b6020808252825182820181905260009190848201906040850190845b81811015614cd457835183529284019291840191600101614cb8565b50909695505050505050565b634e487b7160e01b600052602160045260246000fd5b6002811061358a5761358a614ce0565b60208101614d1383614cf6565b91905290565b60068110614d2957614d29614ce0565b9052565b6004811061358a5761358a614ce0565b614d2981614d2d565b60005b83811015614d61578181015183820152602001614d49565b50506000910152565b60008151808452614d82816020860160208601614d46565b601f01601f19169290920160200192915050565b60208152815160208201526020820151604082015260006040830151614dc2606084018261ffff169052565b50606083015161ffff8116608084015250608083015163ffffffff811660a08401525060a0830151614df760c0840182614d19565b5060c0830151614e0a60e0840182614d3d565b5060e0830151610100614e1f81850183614d3d565b8401519050610120614e3384820183614d3d565b840151610140848101529050611ad7610160840182614d6a565b600080600060408486031215614e6257600080fd5b83356001600160401b0380821115614e7957600080fd5b614e8587838801614bb6565b94506020860135915080821115614e9b57600080fd5b818601915086601f830112614eaf57600080fd5b813581811115614ebe57600080fd5b876020606083028501011115614ed357600080fd5b6020830194508093505050509250925092565b634e487b7160e01b600052604160045260246000fd5b801515811461358a57600080fd5b8035610d8581614efc565b600080600060608486031215614f2a57600080fd5b614f3384614aa3565b925060208401356001600160401b0380821115614f4f57600080fd5b818601915086601f830112614f6357600080fd5b813581811115614f7557614f75614ee6565b604051601f8201601f19908116603f01168101908382118183101715614f9d57614f9d614ee6565b81604052828152896020848701011115614fb657600080fd5b826020860160208301376000602084830101528096505050505050614b8160408501614f0a565b602081526000610f106020830184614d6a565b60008083601f84011261500257600080fd5b5081356001600160401b0381111561501957600080fd5b6020830191508360208260051b8501011115612de357600080fd5b60008060006040848603121561504957600080fd5b83356001600160401b038082111561506057600080fd5b61506c87838801614bb6565b9450602086013591508082111561508257600080fd5b50614c6d86828701614ff0565b6000806000604084860312156150a457600080fd5b8335925060208401356001600160401b038111156150c157600080fd5b614c6d86828701614a62565b6002811061358a57600080fd5b6000602082840312156150ec57600080fd5b8135610f10816150cd565b6020808252600c908201526b125b1b1959d85b0810d85b1b60a21b604082015260600190565b6020808252600c908201526b125b9d985b1a590810d85b1b60a21b604082015260600190565b81835281816020850137506000828201602090810191909152601f909101601f19169091010190565b606081526000615180606083018789615143565b8281036020840152615193818688615143565b91505061ffff831660408301529695505050505050565b60208082526008908201526714995a9958dd195960c21b604082015260600190565b602080825260119082015270496c6c6567616c20557064617461626c6560781b604082015260600190565b60208082526010908201526f125b1b1959d85b0810dbdb9d1c9858dd60821b604082015260600190565b6020810160148310614d1357614d13614ce0565b60006020828403121561524757600080fd5b8151610f1081614efc565b634e487b7160e01b600052603260045260246000fd5b634e487b7160e01b600052601160045260246000fd5b60006001820161529057615290615268565b5060010190565b6004811061358a57600080fd5b6000602082840312156152b657600080fd5b8135610f1081615297565b60208101614d1383614d2d565b600181811c908216806152e257607f821691505b602082108103614bc857634e487b7160e01b600052602260045260246000fd5b60008235605e1983360301811261531857600080fd5b9190910192915050565b8481526080602082015283356080820152600060208501358060020b80821461534a57600080fd5b60a084015250604085013536869003601e1901811261536857600080fd5b85016020810190356001600160401b0381111561538457600080fd5b80360382131561539357600080fd5b606060c08501526153a860e085018284615143565b60408501969096525050506060015292915050565b6000602082840312156153cf57600080fd5b5051919050565b6000602082840312156153e857600080fd5b813561ffff81168114610f1057600080fd5b60006020828403121561540c57600080fd5b815160148110610f1057600080fd5b60006020828403121561542d57600080fd5b8151610f10816150cd565b6000808335601e1984360301811261544f57600080fd5b8301803591506001600160401b0382111561546957600080fd5b602001915036819003821315612de357600080fd5b60006020828403121561549057600080fd5b81356001600160401b0381168114610f1057600080fd5b6000602082840312156154b957600080fd5b815160088110610f1057600080fd5b8183823760009101908152919050565b60008083546154e6816152ce565b600182811680156154fe576001811461551357615542565b60ff1984168752821515830287019450615542565b8760005260208060002060005b858110156155395781548a820152908401908201615520565b50505082870194505b50929695505050505050565b601f82111561559457600081815260208120601f850160051c810160208610156155755750805b601f850160051c820191505b81811015610a7457828155600101615581565b505050565b6001600160401b038311156155b0576155b0614ee6565b6155c4836155be83546152ce565b8361554e565b6000601f8411600181146155f857600085156155e05750838201355b600019600387901b1c1916600186901b178355612cf6565b600083815260209020601f19861690835b828110156156295786850135825560209485019460019092019101615609565b50868210156156465760001960f88860031b161c19848701351681555b505060018560011b0183555050505050565b8181038181111561084057610840615268565b634e487b7160e01b600052603160045260246000fd5b60008251615318818460208701614d46565b808201808211156108405761084061526856fe360894a13ba1a3210667c828492db98dca3e2076cc3735a920a3ca505d382bbca2646970667358221220944f0777200c2d6f12a87f63677fe6190eea9daa47fc787f07874d166f129e9964736f6c63430008130033",
  "libraries": {
    "LProfileCommons": "0x7F11D5bb7c99667ac0E8851c6B72633d35244c6C"
  },
  "devdoc": {
    "author": "Sina Tadayon, https://github.com/SinaTadayon",
    "events": {
      "Initialized(address,address,address,string,string,uint16)": {
        "details": "Triggered when the contract has been initialized or reinitialized."
      },
      "ProxyLocalAdminUpdated(address,address,address)": {
        "details": "Emitted when the admin account has changed."
      }
    },
    "kind": "dev",
    "methods": {
      "proxiableUUID()": {
        "details": "Implementation of the ERC1822 {proxiableUUID} function. This returns the storage slot used by the implementation. It is used to validate that the this implementation remains valid after an upgrade. IMPORTANT: A proxy pointing at a proxiable contract should not be considered proxiable itself, because this risks bricking a proxy that upgrades to it, by delegating to itself until out of gas. Thus it is critical that this function revert if invoked through a proxy. This is guaranteed by the `notDelegated` modifier."
      },
      "supportsInterface(bytes4)": {
        "details": "See {IERC165-supportsInterface}."
      }
    },
    "title": "Profile Domain Manager Contract",
    "version": 1
  },
  "userdoc": {
    "kind": "user",
    "methods": {},
    "version": 1
  },
  "storageLayout": {
    "storage": [
      {
        "astId": 82229,
        "contract": "src/contracts/acl/profile/scope/ProfileDomainManager.sol:ProfileDomainManager",
        "label": "_contractName",
        "offset": 0,
        "slot": "0",
        "type": "t_string_storage"
      },
      {
        "astId": 82231,
        "contract": "src/contracts/acl/profile/scope/ProfileDomainManager.sol:ProfileDomainManager",
        "label": "_contractVersion",
        "offset": 0,
        "slot": "1",
        "type": "t_string_storage"
      },
      {
        "astId": 82233,
        "contract": "src/contracts/acl/profile/scope/ProfileDomainManager.sol:ProfileDomainManager",
        "label": "_accessControlManager",
        "offset": 0,
        "slot": "2",
        "type": "t_address"
      },
      {
        "astId": 82236,
        "contract": "src/contracts/acl/profile/scope/ProfileDomainManager.sol:ProfileDomainManager",
        "label": "_sstat",
        "offset": 20,
        "slot": "2",
        "type": "t_enum(ProxySafeModeStatus)82251"
      },
      {
        "astId": 82239,
        "contract": "src/contracts/acl/profile/scope/ProfileDomainManager.sol:ProfileDomainManager",
        "label": "_ustat",
        "offset": 21,
        "slot": "2",
        "type": "t_enum(ProxyUpdatabilityStatus)82254"
      },
      {
        "astId": 82244,
        "contract": "src/contracts/acl/profile/scope/ProfileDomainManager.sol:ProfileDomainManager",
        "label": "__reserved",
        "offset": 0,
        "slot": "3",
        "type": "t_array(t_uint256)64_storage"
      },
      {
        "astId": 10383,
        "contract": "src/contracts/acl/profile/scope/ProfileDomainManager.sol:ProfileDomainManager",
        "label": "_firstInit",
        "offset": 0,
        "slot": "67",
        "type": "t_bool"
      },
      {
        "astId": 10386,
        "contract": "src/contracts/acl/profile/scope/ProfileDomainManager.sol:ProfileDomainManager",
        "label": "_data",
        "offset": 0,
        "slot": "68",
        "type": "t_struct(DataCollection)10239_storage"
      },
      {
        "astId": 82432,
        "contract": "src/contracts/acl/profile/scope/ProfileDomainManager.sol:ProfileDomainManager",
        "label": "_initialized",
        "offset": 0,
        "slot": "78",
        "type": "t_uint16"
      },
      {
        "astId": 82435,
        "contract": "src/contracts/acl/profile/scope/ProfileDomainManager.sol:ProfileDomainManager",
        "label": "_initializing",
        "offset": 2,
        "slot": "78",
        "type": "t_bool"
      }
    ],
    "types": {
      "t_address": {
        "encoding": "inplace",
        "label": "address",
        "numberOfBytes": "20"
      },
      "t_array(t_bytes32)dyn_storage": {
        "base": "t_bytes32",
        "encoding": "dynamic_array",
        "label": "bytes32[]",
        "numberOfBytes": "32"
      },
      "t_array(t_uint256)64_storage": {
        "base": "t_uint256",
        "encoding": "inplace",
        "label": "uint256[64]",
        "numberOfBytes": "2048"
      },
      "t_bool": {
        "encoding": "inplace",
        "label": "bool",
        "numberOfBytes": "1"
      },
      "t_bytes32": {
        "encoding": "inplace",
        "label": "bytes32",
        "numberOfBytes": "32"
      },
      "t_bytes4": {
        "encoding": "inplace",
        "label": "bytes4",
        "numberOfBytes": "4"
      },
      "t_enum(ActivityStatus)11721": {
        "encoding": "inplace",
        "label": "enum IACLCommons.ActivityStatus",
        "numberOfBytes": "1"
      },
      "t_enum(AgentType)11716": {
        "encoding": "inplace",
        "label": "enum IACLCommons.AgentType",
        "numberOfBytes": "1"
      },
      "t_enum(AlterabilityStatus)11726": {
        "encoding": "inplace",
        "label": "enum IACLCommons.AlterabilityStatus",
        "numberOfBytes": "1"
      },
      "t_enum(PolicyType)11744": {
        "encoding": "inplace",
        "label": "enum IACLCommons.PolicyType",
        "numberOfBytes": "1"
      },
      "t_enum(ProxySafeModeStatus)82251": {
        "encoding": "inplace",
        "label": "enum IBaseProxy.ProxySafeModeStatus",
        "numberOfBytes": "1"
      },
      "t_enum(ProxyUpdatabilityStatus)82254": {
        "encoding": "inplace",
        "label": "enum IBaseProxy.ProxyUpdatabilityStatus",
        "numberOfBytes": "1"
      },
      "t_enum(ScopeType)11733": {
        "encoding": "inplace",
        "label": "enum IACLCommons.ScopeType",
        "numberOfBytes": "1"
      },
      "t_mapping(t_address,t_struct(FacetEntity)11945_storage)": {
        "encoding": "mapping",
        "key": "t_address",
        "label": "mapping(address => struct IACLCommons.FacetEntity)",
        "numberOfBytes": "32",
        "value": "t_struct(FacetEntity)11945_storage"
      },
      "t_mapping(t_address,t_struct(ProfileAccount)12018_storage)": {
        "encoding": "mapping",
        "key": "t_address",
        "label": "mapping(address => struct IACLCommons.ProfileAccount)",
        "numberOfBytes": "32",
        "value": "t_struct(ProfileAccount)12018_storage"
      },
      "t_mapping(t_bytes32,t_bytes32)": {
        "encoding": "mapping",
        "key": "t_bytes32",
        "label": "mapping(bytes32 => bytes32)",
        "numberOfBytes": "32",
        "value": "t_bytes32"
      },
      "t_mapping(t_bytes32,t_struct(BaseAgent)11756_storage)": {
        "encoding": "mapping",
        "key": "t_bytes32",
        "label": "mapping(bytes32 => struct IACLCommons.BaseAgent)",
        "numberOfBytes": "32",
        "value": "t_struct(BaseAgent)11756_storage"
      },
      "t_mapping(t_bytes32,t_struct(BaseScope)11770_storage)": {
        "encoding": "mapping",
        "key": "t_bytes32",
        "label": "mapping(bytes32 => struct IACLCommons.BaseScope)",
        "numberOfBytes": "32",
        "value": "t_struct(BaseScope)11770_storage"
      },
      "t_mapping(t_bytes32,t_struct(PolicyEntity)11793_storage)": {
        "encoding": "mapping",
        "key": "t_bytes32",
        "label": "mapping(bytes32 => struct IACLCommons.PolicyEntity)",
        "numberOfBytes": "32",
        "value": "t_struct(PolicyEntity)11793_storage"
      },
      "t_mapping(t_bytes32,t_struct(ProfileEntity)12059_storage)": {
        "encoding": "mapping",
        "key": "t_bytes32",
        "label": "mapping(bytes32 => struct IACLCommons.ProfileEntity)",
        "numberOfBytes": "32",
        "value": "t_struct(ProfileEntity)12059_storage"
      },
      "t_mapping(t_bytes32,t_uint256)": {
        "encoding": "mapping",
        "key": "t_bytes32",
        "label": "mapping(bytes32 => uint256)",
        "numberOfBytes": "32",
        "value": "t_uint256"
      },
      "t_mapping(t_bytes4,t_address)": {
        "encoding": "mapping",
        "key": "t_bytes4",
        "label": "mapping(bytes4 => address)",
        "numberOfBytes": "32",
        "value": "t_address"
      },
      "t_string_storage": {
        "encoding": "bytes",
        "label": "string",
        "numberOfBytes": "32"
      },
      "t_struct(AddressSet)79783_storage": {
        "encoding": "inplace",
        "label": "struct LEnumerableSet.AddressSet",
        "members": [
          {
            "astId": 79782,
            "contract": "src/contracts/acl/profile/scope/ProfileDomainManager.sol:ProfileDomainManager",
            "label": "_inner",
            "offset": 0,
            "slot": "0",
            "type": "t_struct(Set)79482_storage"
          }
        ],
        "numberOfBytes": "64"
      },
      "t_struct(BaseAgent)11756_storage": {
        "encoding": "inplace",
        "label": "struct IACLCommons.BaseAgent",
        "members": [
          {
            "astId": 11746,
            "contract": "src/contracts/acl/profile/scope/ProfileDomainManager.sol:ProfileDomainManager",
            "label": "adminId",
            "offset": 0,
            "slot": "0",
            "type": "t_bytes32"
          },
          {
            "astId": 11749,
            "contract": "src/contracts/acl/profile/scope/ProfileDomainManager.sol:ProfileDomainManager",
            "label": "atype",
            "offset": 0,
            "slot": "1",
            "type": "t_enum(AgentType)11716"
          },
          {
            "astId": 11752,
            "contract": "src/contracts/acl/profile/scope/ProfileDomainManager.sol:ProfileDomainManager",
            "label": "acstat",
            "offset": 1,
            "slot": "1",
            "type": "t_enum(ActivityStatus)11721"
          },
          {
            "astId": 11755,
            "contract": "src/contracts/acl/profile/scope/ProfileDomainManager.sol:ProfileDomainManager",
            "label": "alstat",
            "offset": 2,
            "slot": "1",
            "type": "t_enum(AlterabilityStatus)11726"
          }
        ],
        "numberOfBytes": "64"
      },
      "t_struct(BaseScope)11770_storage": {
        "encoding": "inplace",
        "label": "struct IACLCommons.BaseScope",
        "members": [
          {
            "astId": 11758,
            "contract": "src/contracts/acl/profile/scope/ProfileDomainManager.sol:ProfileDomainManager",
            "label": "adminId",
            "offset": 0,
            "slot": "0",
            "type": "t_bytes32"
          },
          {
            "astId": 11761,
            "contract": "src/contracts/acl/profile/scope/ProfileDomainManager.sol:ProfileDomainManager",
            "label": "stype",
            "offset": 0,
            "slot": "1",
            "type": "t_enum(ScopeType)11733"
          },
          {
            "astId": 11764,
            "contract": "src/contracts/acl/profile/scope/ProfileDomainManager.sol:ProfileDomainManager",
            "label": "acstat",
            "offset": 1,
            "slot": "1",
            "type": "t_enum(ActivityStatus)11721"
          },
          {
            "astId": 11767,
            "contract": "src/contracts/acl/profile/scope/ProfileDomainManager.sol:ProfileDomainManager",
            "label": "alstat",
            "offset": 2,
            "slot": "1",
            "type": "t_enum(AlterabilityStatus)11726"
          },
          {
            "astId": 11769,
            "contract": "src/contracts/acl/profile/scope/ProfileDomainManager.sol:ProfileDomainManager",
            "label": "referredByAgent",
            "offset": 3,
            "slot": "1",
            "type": "t_uint32"
          }
        ],
        "numberOfBytes": "64"
      },
      "t_struct(Bytes32Set)79676_storage": {
        "encoding": "inplace",
        "label": "struct LEnumerableSet.Bytes32Set",
        "members": [
          {
            "astId": 79675,
            "contract": "src/contracts/acl/profile/scope/ProfileDomainManager.sol:ProfileDomainManager",
            "label": "_inner",
            "offset": 0,
            "slot": "0",
            "type": "t_struct(Set)79482_storage"
          }
        ],
        "numberOfBytes": "64"
      },
      "t_struct(DataCollection)10239_storage": {
        "encoding": "inplace",
        "label": "struct ACLStorage.DataCollection",
        "members": [
          {
            "astId": 10202,
            "contract": "src/contracts/acl/profile/scope/ProfileDomainManager.sol:ProfileDomainManager",
            "label": "agents",
            "offset": 0,
            "slot": "0",
            "type": "t_mapping(t_bytes32,t_struct(BaseAgent)11756_storage)"
          },
          {
            "astId": 10207,
            "contract": "src/contracts/acl/profile/scope/ProfileDomainManager.sol:ProfileDomainManager",
            "label": "scopes",
            "offset": 0,
            "slot": "1",
            "type": "t_mapping(t_bytes32,t_struct(BaseScope)11770_storage)"
          },
          {
            "astId": 10212,
            "contract": "src/contracts/acl/profile/scope/ProfileDomainManager.sol:ProfileDomainManager",
            "label": "policies",
            "offset": 0,
            "slot": "2",
            "type": "t_mapping(t_bytes32,t_struct(PolicyEntity)11793_storage)"
          },
          {
            "astId": 10216,
            "contract": "src/contracts/acl/profile/scope/ProfileDomainManager.sol:ProfileDomainManager",
            "label": "rolePolicyMap",
            "offset": 0,
            "slot": "3",
            "type": "t_mapping(t_bytes32,t_bytes32)"
          },
          {
            "astId": 10221,
            "contract": "src/contracts/acl/profile/scope/ProfileDomainManager.sol:ProfileDomainManager",
            "label": "profiles",
            "offset": 0,
            "slot": "4",
            "type": "t_mapping(t_bytes32,t_struct(ProfileEntity)12059_storage)"
          },
          {
            "astId": 10226,
            "contract": "src/contracts/acl/profile/scope/ProfileDomainManager.sol:ProfileDomainManager",
            "label": "profileAccounts",
            "offset": 0,
            "slot": "5",
            "type": "t_mapping(t_address,t_struct(ProfileAccount)12018_storage)"
          },
          {
            "astId": 10230,
            "contract": "src/contracts/acl/profile/scope/ProfileDomainManager.sol:ProfileDomainManager",
            "label": "selectors",
            "offset": 0,
            "slot": "6",
            "type": "t_mapping(t_bytes4,t_address)"
          },
          {
            "astId": 10235,
            "contract": "src/contracts/acl/profile/scope/ProfileDomainManager.sol:ProfileDomainManager",
            "label": "facets",
            "offset": 0,
            "slot": "7",
            "type": "t_mapping(t_address,t_struct(FacetEntity)11945_storage)"
          },
          {
            "astId": 10238,
            "contract": "src/contracts/acl/profile/scope/ProfileDomainManager.sol:ProfileDomainManager",
            "label": "facetSet",
            "offset": 0,
            "slot": "8",
            "type": "t_struct(AddressSet)79783_storage"
          }
        ],
        "numberOfBytes": "320"
      },
      "t_struct(FacetEntity)11945_storage": {
        "encoding": "inplace",
        "label": "struct IACLCommons.FacetEntity",
        "members": [
          {
            "astId": 11944,
            "contract": "src/contracts/acl/profile/scope/ProfileDomainManager.sol:ProfileDomainManager",
            "label": "subjectId",
            "offset": 0,
            "slot": "0",
            "type": "t_address"
          }
        ],
        "numberOfBytes": "32"
      },
      "t_struct(PolicyEntity)11793_storage": {
        "encoding": "inplace",
        "label": "struct IACLCommons.PolicyEntity",
        "members": [
          {
            "astId": 11772,
            "contract": "src/contracts/acl/profile/scope/ProfileDomainManager.sol:ProfileDomainManager",
            "label": "adminId",
            "offset": 0,
            "slot": "0",
            "type": "t_bytes32"
          },
          {
            "astId": 11774,
            "contract": "src/contracts/acl/profile/scope/ProfileDomainManager.sol:ProfileDomainManager",
            "label": "scopeId",
            "offset": 0,
            "slot": "1",
            "type": "t_bytes32"
          },
          {
            "astId": 11776,
            "contract": "src/contracts/acl/profile/scope/ProfileDomainManager.sol:ProfileDomainManager",
            "label": "name",
            "offset": 0,
            "slot": "2",
            "type": "t_string_storage"
          },
          {
            "astId": 11778,
            "contract": "src/contracts/acl/profile/scope/ProfileDomainManager.sol:ProfileDomainManager",
            "label": "roleLimit",
            "offset": 0,
            "slot": "3",
            "type": "t_uint16"
          },
          {
            "astId": 11780,
            "contract": "src/contracts/acl/profile/scope/ProfileDomainManager.sol:ProfileDomainManager",
            "label": "policyCode",
            "offset": 2,
            "slot": "3",
            "type": "t_uint8"
          },
          {
            "astId": 11783,
            "contract": "src/contracts/acl/profile/scope/ProfileDomainManager.sol:ProfileDomainManager",
            "label": "ptype",
            "offset": 3,
            "slot": "3",
            "type": "t_enum(PolicyType)11744"
          },
          {
            "astId": 11786,
            "contract": "src/contracts/acl/profile/scope/ProfileDomainManager.sol:ProfileDomainManager",
            "label": "acstat",
            "offset": 4,
            "slot": "3",
            "type": "t_enum(ActivityStatus)11721"
          },
          {
            "astId": 11789,
            "contract": "src/contracts/acl/profile/scope/ProfileDomainManager.sol:ProfileDomainManager",
            "label": "alstat",
            "offset": 5,
            "slot": "3",
            "type": "t_enum(AlterabilityStatus)11726"
          },
          {
            "astId": 11792,
            "contract": "src/contracts/acl/profile/scope/ProfileDomainManager.sol:ProfileDomainManager",
            "label": "roles",
            "offset": 0,
            "slot": "4",
            "type": "t_struct(Bytes32Set)79676_storage"
          }
        ],
        "numberOfBytes": "192"
      },
      "t_struct(ProfileAccount)12018_storage": {
        "encoding": "inplace",
        "label": "struct IACLCommons.ProfileAccount",
        "members": [
          {
            "astId": 12017,
            "contract": "src/contracts/acl/profile/scope/ProfileDomainManager.sol:ProfileDomainManager",
            "label": "profiles",
            "offset": 0,
            "slot": "0",
            "type": "t_array(t_bytes32)dyn_storage"
          }
        ],
        "numberOfBytes": "32"
      },
      "t_struct(ProfileEntity)12059_storage": {
        "encoding": "inplace",
        "label": "struct IACLCommons.ProfileEntity",
        "members": [
          {
            "astId": 12023,
            "contract": "src/contracts/acl/profile/scope/ProfileDomainManager.sol:ProfileDomainManager",
            "label": "agents",
            "offset": 0,
            "slot": "0",
            "type": "t_mapping(t_bytes32,t_struct(BaseAgent)11756_storage)"
          },
          {
            "astId": 12028,
            "contract": "src/contracts/acl/profile/scope/ProfileDomainManager.sol:ProfileDomainManager",
            "label": "scopes",
            "offset": 0,
            "slot": "1",
            "type": "t_mapping(t_bytes32,t_struct(BaseScope)11770_storage)"
          },
          {
            "astId": 12033,
            "contract": "src/contracts/acl/profile/scope/ProfileDomainManager.sol:ProfileDomainManager",
            "label": "policies",
            "offset": 0,
            "slot": "2",
            "type": "t_mapping(t_bytes32,t_struct(PolicyEntity)11793_storage)"
          },
          {
            "astId": 12037,
            "contract": "src/contracts/acl/profile/scope/ProfileDomainManager.sol:ProfileDomainManager",
            "label": "rolePolicyMap",
            "offset": 0,
            "slot": "3",
            "type": "t_mapping(t_bytes32,t_bytes32)"
          },
          {
            "astId": 12040,
            "contract": "src/contracts/acl/profile/scope/ProfileDomainManager.sol:ProfileDomainManager",
            "label": "admins",
            "offset": 0,
            "slot": "4",
            "type": "t_struct(Bytes32Set)79676_storage"
          },
          {
            "astId": 12042,
            "contract": "src/contracts/acl/profile/scope/ProfileDomainManager.sol:ProfileDomainManager",
            "label": "adminId",
            "offset": 0,
            "slot": "6",
            "type": "t_bytes32"
          },
          {
            "astId": 12044,
            "contract": "src/contracts/acl/profile/scope/ProfileDomainManager.sol:ProfileDomainManager",
            "label": "name",
            "offset": 0,
            "slot": "7",
            "type": "t_string_storage"
          },
          {
            "astId": 12046,
            "contract": "src/contracts/acl/profile/scope/ProfileDomainManager.sol:ProfileDomainManager",
            "label": "owner",
            "offset": 0,
            "slot": "8",
            "type": "t_address"
          },
          {
            "astId": 12049,
            "contract": "src/contracts/acl/profile/scope/ProfileDomainManager.sol:ProfileDomainManager",
            "label": "acstat",
            "offset": 20,
            "slot": "8",
            "type": "t_enum(ActivityStatus)11721"
          },
          {
            "astId": 12052,
            "contract": "src/contracts/acl/profile/scope/ProfileDomainManager.sol:ProfileDomainManager",
            "label": "alstat",
            "offset": 21,
            "slot": "8",
            "type": "t_enum(AlterabilityStatus)11726"
          },
          {
            "astId": 12055,
            "contract": "src/contracts/acl/profile/scope/ProfileDomainManager.sol:ProfileDomainManager",
            "label": "registerLimits",
            "offset": 0,
            "slot": "9",
            "type": "t_struct(ProfileRegisterLimit)11993_storage"
          },
          {
            "astId": 12058,
            "contract": "src/contracts/acl/profile/scope/ProfileDomainManager.sol:ProfileDomainManager",
            "label": "limits",
            "offset": 0,
            "slot": "10",
            "type": "t_struct(ProfileLimit)12014_storage"
          }
        ],
        "numberOfBytes": "352"
      },
      "t_struct(ProfileLimit)12014_storage": {
        "encoding": "inplace",
        "label": "struct IACLCommons.ProfileLimit",
        "members": [
          {
            "astId": 11995,
            "contract": "src/contracts/acl/profile/scope/ProfileDomainManager.sol:ProfileDomainManager",
            "label": "profileCallLimit",
            "offset": 0,
            "slot": "0",
            "type": "t_uint32"
          },
          {
            "astId": 11997,
            "contract": "src/contracts/acl/profile/scope/ProfileDomainManager.sol:ProfileDomainManager",
            "label": "contextLimit",
            "offset": 4,
            "slot": "0",
            "type": "t_uint32"
          },
          {
            "astId": 11999,
            "contract": "src/contracts/acl/profile/scope/ProfileDomainManager.sol:ProfileDomainManager",
            "label": "memberLimit",
            "offset": 8,
            "slot": "0",
            "type": "t_uint24"
          },
          {
            "astId": 12001,
            "contract": "src/contracts/acl/profile/scope/ProfileDomainManager.sol:ProfileDomainManager",
            "label": "realmLimit",
            "offset": 11,
            "slot": "0",
            "type": "t_uint16"
          },
          {
            "astId": 12003,
            "contract": "src/contracts/acl/profile/scope/ProfileDomainManager.sol:ProfileDomainManager",
            "label": "domainLimit",
            "offset": 13,
            "slot": "0",
            "type": "t_uint16"
          },
          {
            "astId": 12005,
            "contract": "src/contracts/acl/profile/scope/ProfileDomainManager.sol:ProfileDomainManager",
            "label": "memberCallLimit",
            "offset": 15,
            "slot": "0",
            "type": "t_uint16"
          },
          {
            "astId": 12007,
            "contract": "src/contracts/acl/profile/scope/ProfileDomainManager.sol:ProfileDomainManager",
            "label": "typeRoleLimit",
            "offset": 17,
            "slot": "0",
            "type": "t_uint16"
          },
          {
            "astId": 12009,
            "contract": "src/contracts/acl/profile/scope/ProfileDomainManager.sol:ProfileDomainManager",
            "label": "typeLimit",
            "offset": 19,
            "slot": "0",
            "type": "t_uint16"
          },
          {
            "astId": 12011,
            "contract": "src/contracts/acl/profile/scope/ProfileDomainManager.sol:ProfileDomainManager",
            "label": "policyRoleLimit",
            "offset": 21,
            "slot": "0",
            "type": "t_uint16"
          },
          {
            "astId": 12013,
            "contract": "src/contracts/acl/profile/scope/ProfileDomainManager.sol:ProfileDomainManager",
            "label": "functionLimit",
            "offset": 23,
            "slot": "0",
            "type": "t_uint8"
          }
        ],
        "numberOfBytes": "32"
      },
      "t_struct(ProfileRegisterLimit)11993_storage": {
        "encoding": "inplace",
        "label": "struct IACLCommons.ProfileRegisterLimit",
        "members": [
          {
            "astId": 11978,
            "contract": "src/contracts/acl/profile/scope/ProfileDomainManager.sol:ProfileDomainManager",
            "label": "memberRegisterLimit",
            "offset": 0,
            "slot": "0",
            "type": "t_uint32"
          },
          {
            "astId": 11980,
            "contract": "src/contracts/acl/profile/scope/ProfileDomainManager.sol:ProfileDomainManager",
            "label": "roleRegisterLimit",
            "offset": 4,
            "slot": "0",
            "type": "t_uint32"
          },
          {
            "astId": 11982,
            "contract": "src/contracts/acl/profile/scope/ProfileDomainManager.sol:ProfileDomainManager",
            "label": "typeRegisterLimit",
            "offset": 8,
            "slot": "0",
            "type": "t_uint32"
          },
          {
            "astId": 11984,
            "contract": "src/contracts/acl/profile/scope/ProfileDomainManager.sol:ProfileDomainManager",
            "label": "functionRegisterLimit",
            "offset": 12,
            "slot": "0",
            "type": "t_uint32"
          },
          {
            "astId": 11986,
            "contract": "src/contracts/acl/profile/scope/ProfileDomainManager.sol:ProfileDomainManager",
            "label": "contextRegisterLimit",
            "offset": 16,
            "slot": "0",
            "type": "t_uint32"
          },
          {
            "astId": 11988,
            "contract": "src/contracts/acl/profile/scope/ProfileDomainManager.sol:ProfileDomainManager",
            "label": "realmRegisterLimit",
            "offset": 20,
            "slot": "0",
            "type": "t_uint16"
          },
          {
            "astId": 11990,
            "contract": "src/contracts/acl/profile/scope/ProfileDomainManager.sol:ProfileDomainManager",
            "label": "domainRegisterLimit",
            "offset": 22,
            "slot": "0",
            "type": "t_uint16"
          },
          {
            "astId": 11992,
            "contract": "src/contracts/acl/profile/scope/ProfileDomainManager.sol:ProfileDomainManager",
            "label": "policyRegisterLimit",
            "offset": 24,
            "slot": "0",
            "type": "t_uint16"
          }
        ],
        "numberOfBytes": "32"
      },
      "t_struct(Set)79482_storage": {
        "encoding": "inplace",
        "label": "struct LEnumerableSet.Set",
        "members": [
          {
            "astId": 79477,
            "contract": "src/contracts/acl/profile/scope/ProfileDomainManager.sol:ProfileDomainManager",
            "label": "_values",
            "offset": 0,
            "slot": "0",
            "type": "t_array(t_bytes32)dyn_storage"
          },
          {
            "astId": 79481,
            "contract": "src/contracts/acl/profile/scope/ProfileDomainManager.sol:ProfileDomainManager",
            "label": "_indexes",
            "offset": 0,
            "slot": "1",
            "type": "t_mapping(t_bytes32,t_uint256)"
          }
        ],
        "numberOfBytes": "64"
      },
      "t_uint16": {
        "encoding": "inplace",
        "label": "uint16",
        "numberOfBytes": "2"
      },
      "t_uint24": {
        "encoding": "inplace",
        "label": "uint24",
        "numberOfBytes": "3"
      },
      "t_uint256": {
        "encoding": "inplace",
        "label": "uint256",
        "numberOfBytes": "32"
      },
      "t_uint32": {
        "encoding": "inplace",
        "label": "uint32",
        "numberOfBytes": "4"
      },
      "t_uint8": {
        "encoding": "inplace",
        "label": "uint8",
        "numberOfBytes": "1"
      }
    }
  }
}