{
  "address": "0x8b40E292c00F4a7f25bf96bCD12c665600ba45CB",
  "abi": [
    {
      "inputs": [],
      "stateMutability": "nonpayable",
      "type": "constructor"
    },
    {
      "inputs": [
        {
          "internalType": "enum IACL.AuthorizationStatus",
          "name": "",
          "type": "uint8"
        }
      ],
      "name": "ACLActionForbidden",
      "type": "error"
    },
    {
      "inputs": [],
      "name": "ProfileAdminAccessFunctionNotFound",
      "type": "error"
    },
    {
      "inputs": [],
      "name": "ProfileAdminAccessNotPermitted",
      "type": "error"
    },
    {
      "inputs": [],
      "name": "ProfileAdminAccessPolicyForbidden",
      "type": "error"
    },
    {
      "inputs": [],
      "name": "ProfileAdminAccessRoleActivityForbidden",
      "type": "error"
    },
    {
      "inputs": [],
      "name": "ProfileAdminAccessRoleNotFound",
      "type": "error"
    },
    {
      "inputs": [],
      "name": "ProfileAdminAccessTypeActivityForbidden",
      "type": "error"
    },
    {
      "inputs": [],
      "name": "ProfileAdminAccessTypeNotFound",
      "type": "error"
    },
    {
      "inputs": [
        {
          "internalType": "enum IProfileACL.ProfileAdminAccessStatus",
          "name": "",
          "type": "uint8"
        }
      ],
      "name": "ProfileSetAdminForbidden",
      "type": "error"
    },
    {
      "anonymous": false,
      "inputs": [
        {
          "indexed": true,
          "internalType": "address",
          "name": "sender",
          "type": "address"
        },
        {
          "indexed": true,
          "internalType": "address",
          "name": "proxy",
          "type": "address"
        },
        {
          "indexed": true,
          "internalType": "address",
          "name": "subject",
          "type": "address"
        },
        {
          "indexed": false,
          "internalType": "string",
          "name": "name",
          "type": "string"
        },
        {
          "indexed": false,
          "internalType": "string",
          "name": "version",
          "type": "string"
        },
        {
          "indexed": false,
          "internalType": "uint16",
          "name": "initCount",
          "type": "uint16"
        }
      ],
      "name": "Initialized",
      "type": "event"
    },
    {
      "anonymous": false,
      "inputs": [
        {
          "indexed": true,
          "internalType": "address",
          "name": "sender",
          "type": "address"
        },
        {
          "indexed": true,
          "internalType": "bytes32",
          "name": "profileId",
          "type": "bytes32"
        },
        {
          "indexed": true,
          "internalType": "bytes32",
          "name": "memberId",
          "type": "bytes32"
        },
        {
          "indexed": false,
          "internalType": "enum IACLCommons.ActivityStatus",
          "name": "acstat",
          "type": "uint8"
        }
      ],
      "name": "ProfileMemberActivityUpdated",
      "type": "event"
    },
    {
      "anonymous": false,
      "inputs": [
        {
          "indexed": true,
          "internalType": "address",
          "name": "sender",
          "type": "address"
        },
        {
          "indexed": true,
          "internalType": "bytes32",
          "name": "profileId",
          "type": "bytes32"
        },
        {
          "indexed": true,
          "internalType": "bytes32",
          "name": "memberId",
          "type": "bytes32"
        },
        {
          "indexed": false,
          "internalType": "bytes32",
          "name": "adminId",
          "type": "bytes32"
        }
      ],
      "name": "ProfileMemberAdminUpdated",
      "type": "event"
    },
    {
      "anonymous": false,
      "inputs": [
        {
          "indexed": true,
          "internalType": "address",
          "name": "sender",
          "type": "address"
        },
        {
          "indexed": true,
          "internalType": "bytes32",
          "name": "profileId",
          "type": "bytes32"
        },
        {
          "indexed": true,
          "internalType": "bytes32",
          "name": "memberId",
          "type": "bytes32"
        },
        {
          "indexed": false,
          "internalType": "enum IACLCommons.AlterabilityStatus",
          "name": "alstat",
          "type": "uint8"
        }
      ],
      "name": "ProfileMemberAlterabilityUpdated",
      "type": "event"
    },
    {
      "anonymous": false,
      "inputs": [
        {
          "indexed": true,
          "internalType": "address",
          "name": "sender",
          "type": "address"
        },
        {
          "indexed": true,
          "internalType": "bytes32",
          "name": "profileId",
          "type": "bytes32"
        },
        {
          "indexed": true,
          "internalType": "bytes32",
          "name": "memberId",
          "type": "bytes32"
        },
        {
          "indexed": false,
          "internalType": "uint16",
          "name": "callLimit",
          "type": "uint16"
        }
      ],
      "name": "ProfileMemberCallLimitUpdated",
      "type": "event"
    },
    {
      "anonymous": false,
      "inputs": [
        {
          "indexed": true,
          "internalType": "address",
          "name": "sender",
          "type": "address"
        },
        {
          "indexed": true,
          "internalType": "bytes32",
          "name": "profileId",
          "type": "bytes32"
        },
        {
          "indexed": true,
          "internalType": "bytes32",
          "name": "memberId",
          "type": "bytes32"
        },
        {
          "components": [
            {
              "internalType": "uint32",
              "name": "memberRegisterLimit",
              "type": "uint32"
            },
            {
              "internalType": "uint32",
              "name": "roleRegisterLimit",
              "type": "uint32"
            },
            {
              "internalType": "uint32",
              "name": "typeRegisterLimit",
              "type": "uint32"
            },
            {
              "internalType": "uint32",
              "name": "functionRegisterLimit",
              "type": "uint32"
            },
            {
              "internalType": "uint32",
              "name": "contextRegisterLimit",
              "type": "uint32"
            },
            {
              "internalType": "uint16",
              "name": "realmRegisterLimit",
              "type": "uint16"
            },
            {
              "internalType": "uint16",
              "name": "domainRegisterLimit",
              "type": "uint16"
            },
            {
              "internalType": "uint16",
              "name": "policyRegisterLimit",
              "type": "uint16"
            }
          ],
          "indexed": false,
          "internalType": "struct IACLCommons.ProfileRegisterLimit",
          "name": "registerLimit",
          "type": "tuple"
        }
      ],
      "name": "ProfileMemberRegisterLimitUpdated",
      "type": "event"
    },
    {
      "anonymous": false,
      "inputs": [
        {
          "indexed": true,
          "internalType": "address",
          "name": "sender",
          "type": "address"
        },
        {
          "indexed": true,
          "internalType": "bytes32",
          "name": "profileId",
          "type": "bytes32"
        },
        {
          "indexed": true,
          "internalType": "bytes32",
          "name": "memberId",
          "type": "bytes32"
        },
        {
          "indexed": false,
          "internalType": "bytes32",
          "name": "roleId",
          "type": "bytes32"
        },
        {
          "indexed": false,
          "internalType": "bytes32",
          "name": "adminId",
          "type": "bytes32"
        },
        {
          "components": [
            {
              "internalType": "uint32",
              "name": "memberRegisterLimit",
              "type": "uint32"
            },
            {
              "internalType": "uint32",
              "name": "roleRegisterLimit",
              "type": "uint32"
            },
            {
              "internalType": "uint32",
              "name": "typeRegisterLimit",
              "type": "uint32"
            },
            {
              "internalType": "uint32",
              "name": "functionRegisterLimit",
              "type": "uint32"
            },
            {
              "internalType": "uint32",
              "name": "contextRegisterLimit",
              "type": "uint32"
            },
            {
              "internalType": "uint16",
              "name": "realmRegisterLimit",
              "type": "uint16"
            },
            {
              "internalType": "uint16",
              "name": "domainRegisterLimit",
              "type": "uint16"
            },
            {
              "internalType": "uint16",
              "name": "policyRegisterLimit",
              "type": "uint16"
            }
          ],
          "indexed": false,
          "internalType": "struct IACLCommons.ProfileRegisterLimit",
          "name": "registerLimit",
          "type": "tuple"
        }
      ],
      "name": "ProfileMemberRegistered",
      "type": "event"
    },
    {
      "anonymous": false,
      "inputs": [
        {
          "indexed": true,
          "internalType": "address",
          "name": "sender",
          "type": "address"
        },
        {
          "indexed": true,
          "internalType": "bytes32",
          "name": "profileId",
          "type": "bytes32"
        },
        {
          "indexed": true,
          "internalType": "bytes32",
          "name": "memberId",
          "type": "bytes32"
        },
        {
          "indexed": false,
          "internalType": "bool",
          "name": "isCompleted",
          "type": "bool"
        }
      ],
      "name": "ProfileMemberRemoved",
      "type": "event"
    },
    {
      "anonymous": false,
      "inputs": [
        {
          "indexed": true,
          "internalType": "address",
          "name": "sender",
          "type": "address"
        },
        {
          "indexed": true,
          "internalType": "bytes32",
          "name": "profileId",
          "type": "bytes32"
        },
        {
          "indexed": true,
          "internalType": "bytes32",
          "name": "memberId",
          "type": "bytes32"
        },
        {
          "indexed": false,
          "internalType": "bytes32",
          "name": "roleId",
          "type": "bytes32"
        },
        {
          "indexed": false,
          "internalType": "bytes32",
          "name": "typeId",
          "type": "bytes32"
        }
      ],
      "name": "ProfileMemberRoleRevoked",
      "type": "event"
    },
    {
      "anonymous": false,
      "inputs": [
        {
          "indexed": true,
          "internalType": "address",
          "name": "sender",
          "type": "address"
        },
        {
          "indexed": true,
          "internalType": "bytes32",
          "name": "profileId",
          "type": "bytes32"
        },
        {
          "indexed": true,
          "internalType": "bytes32",
          "name": "memberId",
          "type": "bytes32"
        },
        {
          "indexed": false,
          "internalType": "uint16",
          "name": "typeLimit",
          "type": "uint16"
        }
      ],
      "name": "ProfileMemberTypeLimitUpdated",
      "type": "event"
    },
    {
      "anonymous": false,
      "inputs": [
        {
          "indexed": true,
          "internalType": "address",
          "name": "sender",
          "type": "address"
        },
        {
          "indexed": true,
          "internalType": "address",
          "name": "proxy",
          "type": "address"
        },
        {
          "indexed": false,
          "internalType": "address",
          "name": "acl",
          "type": "address"
        }
      ],
      "name": "ProxyAccessControlUpdated",
      "type": "event"
    },
    {
      "anonymous": false,
      "inputs": [
        {
          "indexed": true,
          "internalType": "address",
          "name": "sender",
          "type": "address"
        },
        {
          "indexed": true,
          "internalType": "address",
          "name": "proxy",
          "type": "address"
        },
        {
          "indexed": false,
          "internalType": "address",
          "name": "newAdmin",
          "type": "address"
        }
      ],
      "name": "ProxyLocalAdminUpdated",
      "type": "event"
    },
    {
      "anonymous": false,
      "inputs": [
        {
          "indexed": true,
          "internalType": "address",
          "name": "sender",
          "type": "address"
        },
        {
          "indexed": true,
          "internalType": "address",
          "name": "proxy",
          "type": "address"
        },
        {
          "indexed": false,
          "internalType": "enum IBaseProxy.ProxySafeModeStatus",
          "name": "sstat",
          "type": "uint8"
        }
      ],
      "name": "ProxySafeModeUpdated",
      "type": "event"
    },
    {
      "anonymous": false,
      "inputs": [
        {
          "indexed": true,
          "internalType": "address",
          "name": "sender",
          "type": "address"
        },
        {
          "indexed": true,
          "internalType": "address",
          "name": "proxy",
          "type": "address"
        },
        {
          "indexed": false,
          "internalType": "enum IBaseProxy.ProxyUpdatabilityStatus",
          "name": "ustat",
          "type": "uint8"
        }
      ],
      "name": "ProxyUpdatabilityUpdated",
      "type": "event"
    },
    {
      "anonymous": false,
      "inputs": [
        {
          "indexed": true,
          "internalType": "address",
          "name": "sender",
          "type": "address"
        },
        {
          "indexed": true,
          "internalType": "address",
          "name": "proxy",
          "type": "address"
        },
        {
          "indexed": true,
          "internalType": "address",
          "name": "newImplementation",
          "type": "address"
        }
      ],
      "name": "ProxyUpgraded",
      "type": "event"
    },
    {
      "stateMutability": "payable",
      "type": "fallback"
    },
    {
      "inputs": [],
      "name": "CTX_MESSAGE_TYPEHASH",
      "outputs": [
        {
          "internalType": "bytes32",
          "name": "",
          "type": "bytes32"
        }
      ],
      "stateMutability": "view",
      "type": "function"
    },
    {
      "inputs": [],
      "name": "MEMBER_SIGNATURE_MESSAGE_TYPEHASH",
      "outputs": [
        {
          "internalType": "bytes32",
          "name": "",
          "type": "bytes32"
        }
      ],
      "stateMutability": "view",
      "type": "function"
    },
    {
      "inputs": [],
      "name": "PREDICT_CTX_MESSAGE_TYPEHASH",
      "outputs": [
        {
          "internalType": "bytes32",
          "name": "",
          "type": "bytes32"
        }
      ],
      "stateMutability": "view",
      "type": "function"
    },
    {
      "inputs": [],
      "name": "PROFILE_CTX_MESSAGE_TYPEHASH",
      "outputs": [
        {
          "internalType": "bytes32",
          "name": "",
          "type": "bytes32"
        }
      ],
      "stateMutability": "view",
      "type": "function"
    },
    {
      "inputs": [],
      "name": "PROFILE_MEMBER_SIGNATURE_MESSAGE_TYPEHASH",
      "outputs": [
        {
          "internalType": "bytes32",
          "name": "",
          "type": "bytes32"
        }
      ],
      "stateMutability": "view",
      "type": "function"
    },
    {
      "inputs": [],
      "name": "PROFILE_PREDICT_CTX_MESSAGE_TYPEHASH",
      "outputs": [
        {
          "internalType": "bytes32",
          "name": "",
          "type": "bytes32"
        }
      ],
      "stateMutability": "view",
      "type": "function"
    },
    {
      "inputs": [],
      "name": "TYPE_HASH",
      "outputs": [
        {
          "internalType": "bytes32",
          "name": "",
          "type": "bytes32"
        }
      ],
      "stateMutability": "view",
      "type": "function"
    },
    {
      "inputs": [],
      "name": "accessControlManager",
      "outputs": [
        {
          "internalType": "address",
          "name": "",
          "type": "address"
        }
      ],
      "stateMutability": "view",
      "type": "function"
    },
    {
      "inputs": [],
      "name": "contractName",
      "outputs": [
        {
          "internalType": "string",
          "name": "",
          "type": "string"
        }
      ],
      "stateMutability": "view",
      "type": "function"
    },
    {
      "inputs": [],
      "name": "contractVersion",
      "outputs": [
        {
          "internalType": "string",
          "name": "",
          "type": "string"
        }
      ],
      "stateMutability": "view",
      "type": "function"
    },
    {
      "inputs": [],
      "name": "domainSeparator",
      "outputs": [
        {
          "internalType": "bytes32",
          "name": "",
          "type": "bytes32"
        }
      ],
      "stateMutability": "view",
      "type": "function"
    },
    {
      "inputs": [],
      "name": "getLibrary",
      "outputs": [
        {
          "internalType": "address",
          "name": "",
          "type": "address"
        }
      ],
      "stateMutability": "pure",
      "type": "function"
    },
    {
      "inputs": [],
      "name": "initVersion",
      "outputs": [
        {
          "internalType": "uint16",
          "name": "",
          "type": "uint16"
        }
      ],
      "stateMutability": "view",
      "type": "function"
    },
    {
      "inputs": [
        {
          "internalType": "string",
          "name": "contractName",
          "type": "string"
        },
        {
          "internalType": "string",
          "name": "contractVersion",
          "type": "string"
        },
        {
          "internalType": "address",
          "name": "accessControlManager",
          "type": "address"
        }
      ],
      "name": "initialize",
      "outputs": [],
      "stateMutability": "nonpayable",
      "type": "function"
    },
    {
      "inputs": [],
      "name": "localAdmin",
      "outputs": [
        {
          "internalType": "address",
          "name": "",
          "type": "address"
        }
      ],
      "stateMutability": "view",
      "type": "function"
    },
    {
      "inputs": [
        {
          "internalType": "bytes32",
          "name": "profileId",
          "type": "bytes32"
        },
        {
          "internalType": "address",
          "name": "account",
          "type": "address"
        }
      ],
      "name": "profileMemberCheckAccount",
      "outputs": [
        {
          "internalType": "bool",
          "name": "",
          "type": "bool"
        }
      ],
      "stateMutability": "view",
      "type": "function"
    },
    {
      "inputs": [
        {
          "internalType": "bytes32",
          "name": "profileId",
          "type": "bytes32"
        },
        {
          "internalType": "bytes32",
          "name": "memberId",
          "type": "bytes32"
        },
        {
          "internalType": "address",
          "name": "account",
          "type": "address"
        }
      ],
      "name": "profileMemberCheckAdmin",
      "outputs": [
        {
          "internalType": "bool",
          "name": "",
          "type": "bool"
        }
      ],
      "stateMutability": "view",
      "type": "function"
    },
    {
      "inputs": [
        {
          "internalType": "bytes32",
          "name": "profileId",
          "type": "bytes32"
        },
        {
          "internalType": "bytes32",
          "name": "memberId",
          "type": "bytes32"
        }
      ],
      "name": "profileMemberCheckId",
      "outputs": [
        {
          "internalType": "bool",
          "name": "",
          "type": "bool"
        }
      ],
      "stateMutability": "view",
      "type": "function"
    },
    {
      "inputs": [
        {
          "internalType": "bytes32",
          "name": "profileId",
          "type": "bytes32"
        },
        {
          "internalType": "bytes32",
          "name": "memberId",
          "type": "bytes32"
        }
      ],
      "name": "profileMemberGetInfo",
      "outputs": [
        {
          "components": [
            {
              "internalType": "bytes32",
              "name": "adminId",
              "type": "bytes32"
            },
            {
              "internalType": "address",
              "name": "account",
              "type": "address"
            },
            {
              "internalType": "uint16",
              "name": "typeLimit",
              "type": "uint16"
            },
            {
              "internalType": "uint16",
              "name": "typeCount",
              "type": "uint16"
            },
            {
              "internalType": "uint16",
              "name": "callLimit",
              "type": "uint16"
            },
            {
              "components": [
                {
                  "internalType": "uint32",
                  "name": "memberRegisterLimit",
                  "type": "uint32"
                },
                {
                  "internalType": "uint32",
                  "name": "roleRegisterLimit",
                  "type": "uint32"
                },
                {
                  "internalType": "uint32",
                  "name": "typeRegisterLimit",
                  "type": "uint32"
                },
                {
                  "internalType": "uint32",
                  "name": "functionRegisterLimit",
                  "type": "uint32"
                },
                {
                  "internalType": "uint32",
                  "name": "contextRegisterLimit",
                  "type": "uint32"
                },
                {
                  "internalType": "uint16",
                  "name": "realmRegisterLimit",
                  "type": "uint16"
                },
                {
                  "internalType": "uint16",
                  "name": "domainRegisterLimit",
                  "type": "uint16"
                },
                {
                  "internalType": "uint16",
                  "name": "policyRegisterLimit",
                  "type": "uint16"
                }
              ],
              "internalType": "struct IACLCommons.ProfileRegisterLimit",
              "name": "registerLimit",
              "type": "tuple"
            },
            {
              "internalType": "enum IACLCommons.AgentType",
              "name": "adminType",
              "type": "uint8"
            },
            {
              "internalType": "enum IACLCommons.AgentType",
              "name": "atype",
              "type": "uint8"
            },
            {
              "internalType": "enum IACLCommons.ActivityStatus",
              "name": "acstat",
              "type": "uint8"
            },
            {
              "internalType": "enum IACLCommons.AlterabilityStatus",
              "name": "alstat",
              "type": "uint8"
            }
          ],
          "internalType": "struct IProfileMemberManagement.ProfileMemberInfo",
          "name": "",
          "type": "tuple"
        }
      ],
      "stateMutability": "view",
      "type": "function"
    },
    {
      "inputs": [
        {
          "internalType": "bytes32",
          "name": "profileId",
          "type": "bytes32"
        },
        {
          "internalType": "bytes32",
          "name": "memberId",
          "type": "bytes32"
        }
      ],
      "name": "profileMemberGetTypes",
      "outputs": [
        {
          "internalType": "bytes32[]",
          "name": "",
          "type": "bytes32[]"
        }
      ],
      "stateMutability": "view",
      "type": "function"
    },
    {
      "inputs": [
        {
          "internalType": "bytes32",
          "name": "profileId",
          "type": "bytes32"
        },
        {
          "internalType": "bytes32",
          "name": "memberId",
          "type": "bytes32"
        },
        {
          "internalType": "bytes32",
          "name": "typeId",
          "type": "bytes32"
        }
      ],
      "name": "profileMemberHasType",
      "outputs": [
        {
          "internalType": "bool",
          "name": "",
          "type": "bool"
        }
      ],
      "stateMutability": "view",
      "type": "function"
    },
    {
      "inputs": [
        {
          "components": [
            {
              "internalType": "string",
              "name": "profileName",
              "type": "string"
            },
            {
              "internalType": "address",
              "name": "account",
              "type": "address"
            },
            {
              "internalType": "uint64",
              "name": "expiredAt",
              "type": "uint64"
            },
            {
              "internalType": "bytes",
              "name": "signature",
              "type": "bytes"
            }
          ],
          "internalType": "struct IACLCommons.ProfileMemberSignature",
          "name": "memberSign",
          "type": "tuple"
        },
        {
          "components": [
            {
              "internalType": "bytes32",
              "name": "adminId",
              "type": "bytes32"
            },
            {
              "internalType": "bytes32",
              "name": "roleId",
              "type": "bytes32"
            },
            {
              "internalType": "int24",
              "name": "typeLimit",
              "type": "int24"
            },
            {
              "internalType": "int24",
              "name": "callLimit",
              "type": "int24"
            },
            {
              "internalType": "address",
              "name": "account",
              "type": "address"
            },
            {
              "components": [
                {
                  "internalType": "uint32",
                  "name": "memberRegisterLimit",
                  "type": "uint32"
                },
                {
                  "internalType": "uint32",
                  "name": "roleRegisterLimit",
                  "type": "uint32"
                },
                {
                  "internalType": "uint32",
                  "name": "typeRegisterLimit",
                  "type": "uint32"
                },
                {
                  "internalType": "uint32",
                  "name": "functionRegisterLimit",
                  "type": "uint32"
                },
                {
                  "internalType": "uint32",
                  "name": "contextRegisterLimit",
                  "type": "uint32"
                },
                {
                  "internalType": "uint16",
                  "name": "realmRegisterLimit",
                  "type": "uint16"
                },
                {
                  "internalType": "uint16",
                  "name": "domainRegisterLimit",
                  "type": "uint16"
                },
                {
                  "internalType": "uint16",
                  "name": "policyRegisterLimit",
                  "type": "uint16"
                }
              ],
              "internalType": "struct IACLCommons.ProfileRegisterLimit",
              "name": "registerLimit",
              "type": "tuple"
            }
          ],
          "internalType": "struct IProfileMemberManagement.ProfileMemberRegisterRequest[]",
          "name": "requests",
          "type": "tuple[]"
        }
      ],
      "name": "profileMemberRegister",
      "outputs": [
        {
          "internalType": "bool",
          "name": "",
          "type": "bool"
        }
      ],
      "stateMutability": "nonpayable",
      "type": "function"
    },
    {
      "inputs": [
        {
          "components": [
            {
              "internalType": "string",
              "name": "profileName",
              "type": "string"
            },
            {
              "internalType": "address",
              "name": "account",
              "type": "address"
            },
            {
              "internalType": "uint64",
              "name": "expiredAt",
              "type": "uint64"
            },
            {
              "internalType": "bytes",
              "name": "signature",
              "type": "bytes"
            }
          ],
          "internalType": "struct IACLCommons.ProfileMemberSignature",
          "name": "memberSign",
          "type": "tuple"
        },
        {
          "internalType": "bytes32[]",
          "name": "members",
          "type": "bytes32[]"
        }
      ],
      "name": "profileMemberRemove",
      "outputs": [
        {
          "internalType": "bool",
          "name": "",
          "type": "bool"
        }
      ],
      "stateMutability": "nonpayable",
      "type": "function"
    },
    {
      "inputs": [
        {
          "components": [
            {
              "internalType": "string",
              "name": "profileName",
              "type": "string"
            },
            {
              "internalType": "address",
              "name": "account",
              "type": "address"
            },
            {
              "internalType": "uint64",
              "name": "expiredAt",
              "type": "uint64"
            },
            {
              "internalType": "bytes",
              "name": "signature",
              "type": "bytes"
            }
          ],
          "internalType": "struct IACLCommons.ProfileMemberSignature",
          "name": "memberSign",
          "type": "tuple"
        },
        {
          "components": [
            {
              "internalType": "bytes32",
              "name": "entityId",
              "type": "bytes32"
            },
            {
              "internalType": "enum IACLCommons.ActivityStatus",
              "name": "acstat",
              "type": "uint8"
            }
          ],
          "internalType": "struct IACLCommons.ProfileUpdateActivityRequest[]",
          "name": "requests",
          "type": "tuple[]"
        }
      ],
      "name": "profileMemberUpdateActivityStatus",
      "outputs": [
        {
          "internalType": "bool",
          "name": "",
          "type": "bool"
        }
      ],
      "stateMutability": "nonpayable",
      "type": "function"
    },
    {
      "inputs": [
        {
          "components": [
            {
              "internalType": "string",
              "name": "profileName",
              "type": "string"
            },
            {
              "internalType": "address",
              "name": "account",
              "type": "address"
            },
            {
              "internalType": "uint64",
              "name": "expiredAt",
              "type": "uint64"
            },
            {
              "internalType": "bytes",
              "name": "signature",
              "type": "bytes"
            }
          ],
          "internalType": "struct IACLCommons.ProfileMemberSignature",
          "name": "memberSign",
          "type": "tuple"
        },
        {
          "components": [
            {
              "internalType": "bytes32",
              "name": "entityId",
              "type": "bytes32"
            },
            {
              "internalType": "bytes32",
              "name": "adminId",
              "type": "bytes32"
            }
          ],
          "internalType": "struct IACLCommons.ProfileUpdateAdminRequest[]",
          "name": "requests",
          "type": "tuple[]"
        }
      ],
      "name": "profileMemberUpdateAdmin",
      "outputs": [
        {
          "internalType": "bool",
          "name": "",
          "type": "bool"
        }
      ],
      "stateMutability": "nonpayable",
      "type": "function"
    },
    {
      "inputs": [
        {
          "components": [
            {
              "internalType": "string",
              "name": "profileName",
              "type": "string"
            },
            {
              "internalType": "address",
              "name": "account",
              "type": "address"
            },
            {
              "internalType": "uint64",
              "name": "expiredAt",
              "type": "uint64"
            },
            {
              "internalType": "bytes",
              "name": "signature",
              "type": "bytes"
            }
          ],
          "internalType": "struct IACLCommons.ProfileMemberSignature",
          "name": "memberSign",
          "type": "tuple"
        },
        {
          "components": [
            {
              "internalType": "bytes32",
              "name": "entityId",
              "type": "bytes32"
            },
            {
              "internalType": "enum IACLCommons.AlterabilityStatus",
              "name": "alstat",
              "type": "uint8"
            }
          ],
          "internalType": "struct IACLCommons.ProfileUpdateAlterabilityRequest[]",
          "name": "requests",
          "type": "tuple[]"
        }
      ],
      "name": "profileMemberUpdateAlterabilityStatus",
      "outputs": [
        {
          "internalType": "bool",
          "name": "",
          "type": "bool"
        }
      ],
      "stateMutability": "nonpayable",
      "type": "function"
    },
    {
      "inputs": [
        {
          "components": [
            {
              "internalType": "string",
              "name": "profileName",
              "type": "string"
            },
            {
              "internalType": "address",
              "name": "account",
              "type": "address"
            },
            {
              "internalType": "uint64",
              "name": "expiredAt",
              "type": "uint64"
            },
            {
              "internalType": "bytes",
              "name": "signature",
              "type": "bytes"
            }
          ],
          "internalType": "struct IACLCommons.ProfileMemberSignature",
          "name": "memberSign",
          "type": "tuple"
        },
        {
          "components": [
            {
              "internalType": "bytes32",
              "name": "memberId",
              "type": "bytes32"
            },
            {
              "internalType": "uint16",
              "name": "limit",
              "type": "uint16"
            }
          ],
          "internalType": "struct IProfileMemberManagement.ProfileMemberUpdateLimitRequest[]",
          "name": "requests",
          "type": "tuple[]"
        }
      ],
      "name": "profileMemberUpdateCallLimit",
      "outputs": [
        {
          "internalType": "bool",
          "name": "",
          "type": "bool"
        }
      ],
      "stateMutability": "nonpayable",
      "type": "function"
    },
    {
      "inputs": [
        {
          "components": [
            {
              "internalType": "string",
              "name": "profileName",
              "type": "string"
            },
            {
              "internalType": "address",
              "name": "account",
              "type": "address"
            },
            {
              "internalType": "uint64",
              "name": "expiredAt",
              "type": "uint64"
            },
            {
              "internalType": "bytes",
              "name": "signature",
              "type": "bytes"
            }
          ],
          "internalType": "struct IACLCommons.ProfileMemberSignature",
          "name": "memberSign",
          "type": "tuple"
        },
        {
          "components": [
            {
              "internalType": "bytes32",
              "name": "memberId",
              "type": "bytes32"
            },
            {
              "components": [
                {
                  "internalType": "uint32",
                  "name": "memberRegisterLimit",
                  "type": "uint32"
                },
                {
                  "internalType": "uint32",
                  "name": "roleRegisterLimit",
                  "type": "uint32"
                },
                {
                  "internalType": "uint32",
                  "name": "typeRegisterLimit",
                  "type": "uint32"
                },
                {
                  "internalType": "uint32",
                  "name": "functionRegisterLimit",
                  "type": "uint32"
                },
                {
                  "internalType": "uint32",
                  "name": "contextRegisterLimit",
                  "type": "uint32"
                },
                {
                  "internalType": "uint16",
                  "name": "realmRegisterLimit",
                  "type": "uint16"
                },
                {
                  "internalType": "uint16",
                  "name": "domainRegisterLimit",
                  "type": "uint16"
                },
                {
                  "internalType": "uint16",
                  "name": "policyRegisterLimit",
                  "type": "uint16"
                }
              ],
              "internalType": "struct IACLCommons.ProfileRegisterLimit",
              "name": "registerLimit",
              "type": "tuple"
            }
          ],
          "internalType": "struct IProfileMemberManagement.ProfileMemberUpdateRegisterLimitRequest[]",
          "name": "requests",
          "type": "tuple[]"
        }
      ],
      "name": "profileMemberUpdateRegisterLimit",
      "outputs": [
        {
          "internalType": "bool",
          "name": "",
          "type": "bool"
        }
      ],
      "stateMutability": "nonpayable",
      "type": "function"
    },
    {
      "inputs": [
        {
          "components": [
            {
              "internalType": "string",
              "name": "profileName",
              "type": "string"
            },
            {
              "internalType": "address",
              "name": "account",
              "type": "address"
            },
            {
              "internalType": "uint64",
              "name": "expiredAt",
              "type": "uint64"
            },
            {
              "internalType": "bytes",
              "name": "signature",
              "type": "bytes"
            }
          ],
          "internalType": "struct IACLCommons.ProfileMemberSignature",
          "name": "memberSign",
          "type": "tuple"
        },
        {
          "components": [
            {
              "internalType": "bytes32",
              "name": "memberId",
              "type": "bytes32"
            },
            {
              "internalType": "uint16",
              "name": "limit",
              "type": "uint16"
            }
          ],
          "internalType": "struct IProfileMemberManagement.ProfileMemberUpdateLimitRequest[]",
          "name": "requests",
          "type": "tuple[]"
        }
      ],
      "name": "profileMemberUpdateTypeLimit",
      "outputs": [
        {
          "internalType": "bool",
          "name": "",
          "type": "bool"
        }
      ],
      "stateMutability": "nonpayable",
      "type": "function"
    },
    {
      "inputs": [],
      "name": "proxiableUUID",
      "outputs": [
        {
          "internalType": "bytes32",
          "name": "",
          "type": "bytes32"
        }
      ],
      "stateMutability": "view",
      "type": "function"
    },
    {
      "inputs": [],
      "name": "safeModeStatus",
      "outputs": [
        {
          "internalType": "enum IBaseProxy.ProxySafeModeStatus",
          "name": "",
          "type": "uint8"
        }
      ],
      "stateMutability": "view",
      "type": "function"
    },
    {
      "inputs": [
        {
          "internalType": "address",
          "name": "acl",
          "type": "address"
        }
      ],
      "name": "setAccessControlManager",
      "outputs": [
        {
          "internalType": "bool",
          "name": "",
          "type": "bool"
        }
      ],
      "stateMutability": "nonpayable",
      "type": "function"
    },
    {
      "inputs": [
        {
          "internalType": "address",
          "name": "newLocalAdmin",
          "type": "address"
        }
      ],
      "name": "setLocalAdmin",
      "outputs": [
        {
          "internalType": "bool",
          "name": "",
          "type": "bool"
        }
      ],
      "stateMutability": "nonpayable",
      "type": "function"
    },
    {
      "inputs": [
        {
          "internalType": "enum IBaseProxy.ProxySafeModeStatus",
          "name": "sstat",
          "type": "uint8"
        }
      ],
      "name": "setSafeModeStatus",
      "outputs": [
        {
          "internalType": "bool",
          "name": "",
          "type": "bool"
        }
      ],
      "stateMutability": "nonpayable",
      "type": "function"
    },
    {
      "inputs": [
        {
          "internalType": "enum IBaseProxy.ProxyUpdatabilityStatus",
          "name": "ustat",
          "type": "uint8"
        }
      ],
      "name": "setUpdatabilityStatus",
      "outputs": [
        {
          "internalType": "bool",
          "name": "",
          "type": "bool"
        }
      ],
      "stateMutability": "nonpayable",
      "type": "function"
    },
    {
      "inputs": [],
      "name": "subjectAddress",
      "outputs": [
        {
          "internalType": "address",
          "name": "",
          "type": "address"
        }
      ],
      "stateMutability": "view",
      "type": "function"
    },
    {
      "inputs": [
        {
          "internalType": "bytes4",
          "name": "interfaceId",
          "type": "bytes4"
        }
      ],
      "name": "supportsInterface",
      "outputs": [
        {
          "internalType": "bool",
          "name": "",
          "type": "bool"
        }
      ],
      "stateMutability": "view",
      "type": "function"
    },
    {
      "inputs": [],
      "name": "updatabilityStatus",
      "outputs": [
        {
          "internalType": "enum IBaseProxy.ProxyUpdatabilityStatus",
          "name": "",
          "type": "uint8"
        }
      ],
      "stateMutability": "view",
      "type": "function"
    },
    {
      "inputs": [
        {
          "internalType": "address",
          "name": "newImplementation",
          "type": "address"
        },
        {
          "internalType": "bytes",
          "name": "data",
          "type": "bytes"
        },
        {
          "internalType": "bool",
          "name": "forceCall",
          "type": "bool"
        }
      ],
      "name": "upgradeTo",
      "outputs": [
        {
          "internalType": "bytes",
          "name": "",
          "type": "bytes"
        }
      ],
      "stateMutability": "nonpayable",
      "type": "function"
    },
    {
      "inputs": [
        {
          "internalType": "address",
          "name": "recepient",
          "type": "address"
        }
      ],
      "name": "withdrawBalance",
      "outputs": [
        {
          "internalType": "uint256",
          "name": "",
          "type": "uint256"
        }
      ],
      "stateMutability": "nonpayable",
      "type": "function"
    },
    {
      "stateMutability": "payable",
      "type": "receive"
    }
  ],
  "transactionHash": "0xc5b0491c8c4e2def6936b788a509cb814abc93e24b1eb3dd9fe1591a2f5b9733",
  "args": [],
  "numDeployments": 1,
  "solcInputHash": "bf3d37f12163392c6a812b5af749abec",
  "bytecode": "0x60a0604052306080523480156200001557600080fd5b506200004360017f360894a13ba1a3210667c828492db98dca3e2076cc3735a920a3ca505d382bbd620000fd565b7f360894a13ba1a3210667c828492db98dca3e2076cc3735a920a3ca505d382bbc1462000074576200007462000125565b620000a160017fb53127684a568b3173ae13b9f8a6016e243e63b6e8ee1178d6a717850b5d6104620000fd565b6000805160206200601283398151915214620000c157620000c162000125565b6000805160206200601283398151915280546001600160a01b0319163317905560028054600160a01b61ffff60a01b199091161790556200013b565b818103818111156200011f57634e487b7160e01b600052601160045260246000fd5b92915050565b634e487b7160e01b600052600160045260246000fd5b608051615e67620001ab600039600081816108250152818161086e01528181610a5d01528181610a9d01528181610e4f015281816110ea0152818161112a01528181611ed401528181611f14015281816121a9015281816121e90152818161235d015261239d0152615e676000f3fe6080604052600436106102275760003560e01c806379419a4911610122578063beeba2bc116100a5578063f698da251161006c578063f698da2514610766578063f708ceb01461077b578063f94a0adb1461079b578063fcc40178146107b0578063fd25ed27146107d057005b8063beeba2bc146106a5578063d017969c146106c5578063d9dc1f19146106e5578063f0b15def14610705578063f44c33c21461073957005b8063a0a8e460116100e9578063a0a8e46014610613578063a304e35314610628578063ae1f24e814610647578063b1b483f914610667578063b4a0bdf31461068757005b806379419a491461055f5780638d17a0dc1461057f5780638e8fc22f1461059f5780638fec1024146105bf5780639b97b534146105df57005b80634bf0414d116101aa578063658ce4a711610171578063658ce4a7146104b65780637147855d146104d6578063756af45f1461050357806375d0c0dc146105235780637678922e1461053857005b80634bf0414d146103ec57806352d1902d1461042057806358dbc45d1461043557806364d4c81914610462578063652441b71461049657005b8063301c1280116101ee578063301c12801461030757806333049f9a1461033b57806334109de21461036857806338d38c971461039c5780634888f482146103c457005b806301ffc9a714610230578063077f224a146102655780630e32cb86146102855780631b452f4b146102a55780631ec1d33c146102e757005b3661022e57005b005b34801561023c57600080fd5b5061025061024b366004614c2c565b6107f0565b60405190151581526020015b60405180910390f35b34801561027157600080fd5b5061022e610280366004614cac565b61081b565b34801561029157600080fd5b506102506102a0366004614d2f565b610a51565b3480156102b157600080fd5b506102d97f7bfb2abd6084c8ce20d7ff92c1620e7e7267603f0eac446b9176959d243306bc81565b60405190815260200161025c565b3480156102f357600080fd5b50610250610302366004614d4c565b610d5f565b34801561031357600080fd5b506102d97f541cf898e7c3085cbc6b7402ba06e7237285bc4bd5baa510e708e35537a71ffd81565b34801561034757600080fd5b5061035b610356366004614d4c565b610d9c565b60405161025c9190614d6e565b34801561037457600080fd5b506102d97f7aabe2571874f2a330ea11c8972d9cc3792d973efc6b36e3e29005861a34418881565b3480156103a857600080fd5b506103b1610e2e565b60405161ffff909116815260200161025c565b3480156103d057600080fd5b50600254600160a81b900460ff165b60405161025c9190614dd8565b3480156103f857600080fd5b506102d97f9027b951cbdf8eff67da583391d218a57a89ec1ebfcb1c66da188e8531804d5581565b34801561042c57600080fd5b506102d9610e42565b34801561044157600080fd5b5061044a610e9f565b6040516001600160a01b03909116815260200161025c565b34801561046e57600080fd5b506102d97f8b73c3c69bb8fe3d512ecc4cf759cc79239f7b179b0ffacaa9a75d522b39400f81565b3480156104a257600080fd5b506102506104b1366004614e03565b610ea9565b3480156104c257600080fd5b506102506104d1366004614e9d565b611042565b3480156104e257600080fd5b506104f66104f1366004614f5e565b6110de565b60405161025c9190615065565b34801561050f57600080fd5b506102d961051e366004614d2f565b611235565b34801561052f57600080fd5b506104f66112fa565b34801561054457600080fd5b50737F11D5bb7c99667ac0E8851c6B72633d35244c6C61044a565b34801561056b57600080fd5b5061025061057a366004615078565b61138c565b34801561058b57600080fd5b5061025061059a366004615142565b6114f5565b3480156105ab57600080fd5b506102506105ba3660046151aa565b611709565b3480156105cb57600080fd5b506102506105da366004615142565b611782565b3480156105eb57600080fd5b506102d97fdee69d384475c3656c17c592e94a2bbfd2a1998cce0c85f535569415a15863b881565b34801561061f57600080fd5b506104f66118ad565b34801561063457600080fd5b50600254600160a01b900460ff166103df565b34801561065357600080fd5b50610250610662366004615142565b6118bc565b34801561067357600080fd5b506102506106823660046151d6565b611aaf565b34801561069357600080fd5b506002546001600160a01b031661044a565b3480156106b157600080fd5b506102506106c0366004615206565b611b0d565b3480156106d157600080fd5b506102506106e0366004615142565b611ccb565b3480156106f157600080fd5b50610250610700366004614d2f565b611ec8565b34801561071157600080fd5b506102d97ffc434588684348dd50856b075c47bed14245c1030aa04c32955af5549981462781565b34801561074557600080fd5b50610759610754366004614d4c565b61207e565b60405161025c919061531e565b34801561077257600080fd5b506102d9612193565b34801561078757600080fd5b506102506107963660046153f6565b61219d565b3480156107a757600080fd5b5061044a612347565b3480156107bc57600080fd5b506102506107cb3660046153f6565b612351565b3480156107dc57600080fd5b506102506107eb366004615142565b6124dc565b60006001600160e01b03198216632819933f60e21b148061081557506108158261267e565b92915050565b6001600160a01b037f000000000000000000000000000000000000000000000000000000000000000016300361086c5760405162461bcd60e51b815260040161086390615413565b60405180910390fd5b7f00000000000000000000000000000000000000000000000000000000000000006001600160a01b031661089e6126ce565b6001600160a01b0316146108c45760405162461bcd60e51b815260040161086390615439565b336108cd6126ef565b6001600160a01b0316146109135760405162461bcd60e51b815260206004820152600d60248201526c1058d8d95cdcc811195b9a5959609a1b6044820152606401610863565b604e5462010000900460ff16158080156109355750604e54600161ffff909116105b806109505750303b1580156109505750604e5461ffff166001145b61099c5760405162461bcd60e51b815260206004820152601c60248201527f436f6e747261637420416c726561647920496e697469616c697a6564000000006044820152606401610863565b604e805461ffff1916600117905580156109c257604e805462ff00001916620100001790555b6109cf8686868686612717565b6109d76126ce565b6001600160a01b031630336001600160a01b03167f247ab7b17ee489fa140c6666edc3822eefed2727610cd6e37192462b87244c6089898989610a1d604e5461ffff1690565b604051610a2e959493929190615488565b60405180910390a48015610a4957604e805462ff0000191690555b505050505050565b60006001600160a01b037f0000000000000000000000000000000000000000000000000000000000000000163003610a9b5760405162461bcd60e51b815260040161086390615413565b7f00000000000000000000000000000000000000000000000000000000000000006001600160a01b0316610acd6126ce565b6001600160a01b031614610af35760405162461bcd60e51b815260040161086390615439565b6000600254600160a01b900460ff166001811115610b1357610b13614db2565b14610b305760405162461bcd60e51b8152600401610863906154c6565b6001600254600160a81b900460ff166001811115610b5057610b50614db2565b14610b6d5760405162461bcd60e51b8152600401610863906154e8565b6001600160a01b03821615801590610b8e57506001600160a01b0382163b15155b610baa5760405162461bcd60e51b815260040161086390615513565b6002546001600160a01b031615610c09576000610bcd63071965c360e11b61272b565b90506000816013811115610be357610be3614db2565b14610c035780604051637f0911d160e01b8152600401610863919061553d565b50610c58565b33610c126126ef565b6001600160a01b031614610c585760405162461bcd60e51b815260206004820152600d60248201526c1058d8d95cdcc811195b9a5959609a1b6044820152606401610863565b6040516301ffc9a760e01b81526331501c3960e01b60048201526001600160a01b038316906301ffc9a790602401602060405180830381865afa158015610ca3573d6000803e3d6000fd5b505050506040513d601f19601f82011682018060405250810190610cc79190615551565b610d015760405162461bcd60e51b815260206004820152600b60248201526a125b1b1959d85b081050d360aa1b6044820152606401610863565b600280546001600160a01b0384166001600160a01b031990911681179091556040805191825251309133917f410bf468eebeeed60acaedb904afb2db7c0bb0131f7d14c3714d81b14fe8ed3c9181900360200190a35060015b919050565b60006001600084815260486020908152604080832086845290915290206001015460ff166003811115610d9457610d94614db2565b149392505050565b60008281526048602052604081206060916008820154600160a01b900460ff166003811115610dcd57610dcd614db2565b03610de8575050604080516000815260208101909152610815565b600080610df583866127b6565b9150915080610e1857505060408051600081526020810190915291506108159050565b610e2482600401612811565b9695505050505050565b6000610e3d604e5461ffff1690565b905090565b6000306001600160a01b037f00000000000000000000000000000000000000000000000000000000000000001614610e8c5760405162461bcd60e51b815260040161086390615413565b50600080516020615e1283398151915290565b6000610e3d6126ce565b60008080808080610ec18963652441b760e01b61281c565b9398509196509450925090506000610ed98684612a93565b6003810154604051636823e89960e01b8152600481018990526024810183905261ffff8b1660448201526064810186905291925063ffffffff1690737F11D5bb7c99667ac0E8851c6B72633d35244c6C90636823e8999060840160006040518083038186803b158015610f4b57600080fd5b505af4158015610f5f573d6000803e3d6000fd5b5050505060005b8981101561102e57610fa8604051602001610f809061556e565b6040516020818303038152906040528051906020012084600401612b7090919063ffffffff16565b15610fdd57610fd8886009018c8c84818110610fc657610fc66155a1565b90506101a0020160a001846001612b88565b610ff6565b610ff6836003018c8c84818110610fc657610fc66155a1565b61101c888c8c8481811061100c5761100c6155a1565b90506101a0020189888a89612f8e565b80611026816155cd565b915050610f66565b5060019750505050505050505b9392505050565b6040516329f6088560e21b81526044600482018190526024820185905281018390526001600160a01b0382166064820152600090737F11D5bb7c99667ac0E8851c6B72633d35244c6C9063a7d8221490608401602060405180830381865af41580156110b2573d6000803e3d6000fd5b505050506040513d601f19601f820116820180604052508101906110d69190615551565b949350505050565b60606001600160a01b037f00000000000000000000000000000000000000000000000000000000000000001630036111285760405162461bcd60e51b815260040161086390615413565b7f00000000000000000000000000000000000000000000000000000000000000006001600160a01b031661115a6126ce565b6001600160a01b0316146111805760405162461bcd60e51b815260040161086390615439565b6000600254600160a01b900460ff1660018111156111a0576111a0614db2565b146111bd5760405162461bcd60e51b8152600401610863906154c6565b6001600254600160a81b900460ff1660018111156111dd576111dd614db2565b146111fa5760405162461bcd60e51b8152600401610863906154e8565b6001600160a01b0384163b6112215760405162461bcd60e51b815260040161086390615513565b61122a8461357e565b6110d684848461361c565b600080600254600160a01b900460ff16600181111561125657611256614db2565b146112735760405162461bcd60e51b8152600401610863906154c6565b600061128563756af45f60e01b61272b565b9050600081601381111561129b5761129b614db2565b146112bb5780604051637f0911d160e01b8152600401610863919061553d565b60405147906001600160a01b038516904780156108fc02916000818181858888f193505050501580156112f2573d6000803e3d6000fd5b509392505050565b606060008054611309906155e6565b80601f0160208091040260200160405190810160405280929190818152602001828054611335906155e6565b80156113825780601f1061135757610100808354040283529160200191611382565b820191906000526020600020905b81548152906001019060200180831161136557829003601f168201915b5050505050905090565b600080808080806113a4896379419a4960e01b61281c565b9450945094509450945060005b878110156114e55760006113e68a8a848181106113d0576113d06155a1565b9050602002013588612a9390919063ffffffff16565b905060006113fd88888460000160000154886137d4565b9050600081600781111561141357611413614db2565b146114215761142181613869565b600282015460088901546001600160a01b0391821691160361147c5760405162461bcd60e51b8152602060048201526014602482015273496c6c6567616c204f776e65722052656d6f766560601b6044820152606401610863565b6114aa8b8b85818110611491576114916155a1565b9050602002013589600401613a0090919063ffffffff16565b506114d088838d8d878181106114c2576114c26155a1565b905060200201358988613a0c565b505080806114dd906155cd565b9150506113b1565b5060019998505050505050505050565b6000808080808061150d89632345e83760e21b61281c565b9450945094509450945060005b878110156114e557600061154b87878c8c8681811061153b5761153b6155a1565b9050604002016000013587613db8565b600281015460088901549192506001600160a01b039081169116036115a35760405162461bcd60e51b815260206004820152600e60248201526d24b63632b3b0b61026b2b6b132b960911b6044820152606401610863565b60018a8a848181106115b7576115b76155a1565b90506040020160200160208101906115cf9190615627565b60038111156115e0576115e0614db2565b116116205760405162461bcd60e51b815260206004820152601060248201526f496c6c6567616c20416374697669747960801b6044820152606401610863565b898983818110611632576116326155a1565b905060400201602001602081019061164a9190615627565b60018201805461ff00191661010083600381111561166a5761166a614db2565b0217905550898983818110611681576116816155a1565b9050604002016000013585846001600160a01b03167f614068ea5e443448b2d57b5b5e76ef7da3156d6f02b307fe21ee6552055da5a38d8d878181106116c9576116c96155a1565b90506040020160200160208101906116e19190615627565b6040516116ee9190615644565b60405180910390a45080611701816155cd565b91505061151a565b6000838152604860205260408120816008820154600160a01b900460ff16600381111561173857611738614db2565b0361174757600091505061103b565b60008061175483876127b6565b9150915080156117755761176b6004830186612b70565b935050505061103b565b5060009695505050505050565b6000808080808061179a896323fb040960e21b61281c565b9450945094509450945060005b878110156114e55760006117c887878c8c8681811061153b5761153b6155a1565b90508989838181106117dc576117dc6155a1565b90506040020160200160208101906117f4919061566c565b8160020160146101000a81548161ffff021916908361ffff160217905550898983818110611824576118246155a1565b9050604002016000013585846001600160a01b03167f4f8dd5af3f9ab0d704d9fdef2a549bde295a13dfbf7f19cd1b5a5df767ca10758d8d8781811061186c5761186c6155a1565b9050604002016020016020810190611884919061566c565b60405161ffff909116815260200160405180910390a450806118a5816155cd565b9150506117a7565b606060018054611309906155e6565b600080808080806118d4896315c3e49d60e31b61281c565b9450945094509450945060005b878110156114e557600061190287878c8c8681811061153b5761153b6155a1565b905060008a8a84818110611918576119186155a1565b90506040020160200135146119f757600087818c8c8681811061193d5761193d6155a1565b90506040020160200135815260200190815260200160002090506001600381111561196a5761196a614db2565b600182015460ff16600381111561198357611983614db2565b116119ca5760405162461bcd60e51b8152602060048201526017602482015276496c6c6567616c2041646d696e204167656e745479706560481b6044820152606401610863565b8a8a848181106119dc576119dc6155a1565b90506040020160200135826000016000018190555050611a21565b604051602001611a069061556e565b60408051601f19818403018152919052805160209091012081555b898983818110611a3357611a336155a1565b9050604002016000013585846001600160a01b03167ff655eaec035c3c45561737846acc84ade9b0ef5b6108c0a210c36ccfbafb499a8d8d87818110611a7b57611a7b6155a1565b90506040020160200135604051611a9491815260200190565b60405180910390a45080611aa7816155cd565b9150506118e1565b60008281526048602090815260408083208151606086901b6001600160601b0319168185015282516014818303018152603490910183528051908401208452909152812060019081015460ff166003811115610d9457610d94614db2565b60008080808080611b2589632fbae8af60e21b61281c565b9398509196509450925090506000611b3d8684612a93565b905060005b88811015611cba576000611b7488888d8d86818110611b6357611b636155a1565b905061012002016000013588613db8565b9050611bb0604051602001611b889061556e565b6040516020818303038152906040528051906020012082600401612b7090919063ffffffff16565b15611be557611be0886009018c8c85818110611bce57611bce6155a1565b90506101200201602001600080612b88565b611bfe565b611bfe836003018c8c85818110611bce57611bce6155a1565b8a8a83818110611c1057611c106155a1565b90506101200201602001816003018181611c2a91906156b5565b9050508a8a83818110611c3f57611c3f6155a1565b905061012002016000013586856001600160a01b03167fc84302b091cce5e28ca7d019afc4d17e0ab167d8fe4acbf1b84a85af733265858e8e87818110611c8857611c886155a1565b90506101200201602001604051611c9f91906158ee565b60405180910390a45080611cb2816155cd565b915050611b42565b5060019a9950505050505050505050565b60008080808080611ce389633405e5a760e21b61281c565b9450945094509450945060005b878110156114e5576000611d1f8a8a84818110611d0f57611d0f6155a1565b8a92604090910201359050612a93565b90506000611d3688888460000160000154886137d4565b90506000816007811115611d4c57611d4c614db2565b14611d5a57611d5a81613869565b60008b8b85818110611d6e57611d6e6155a1565b9050604002016020016020810190611d869190615627565b6003811115611d9757611d97614db2565b03611ddb5760405162461bcd60e51b8152602060048201526014602482015273496c6c6567616c20416c7465726162696c69747960601b6044820152606401610863565b8a8a84818110611ded57611ded6155a1565b9050604002016020016020810190611e059190615627565b60018301805462ff0000191662010000836003811115611e2757611e27614db2565b02179055508a8a84818110611e3e57611e3e6155a1565b9050604002016000013586856001600160a01b03167f82c3684f7384c190b92a838689114ba643b25ca472daf25e7481f3469697b1d48e8e88818110611e8657611e866155a1565b9050604002016020016020810190611e9e9190615627565b604051611eab9190615644565b60405180910390a450508080611ec0906155cd565b915050611cf0565b60006001600160a01b037f0000000000000000000000000000000000000000000000000000000000000000163003611f125760405162461bcd60e51b815260040161086390615413565b7f00000000000000000000000000000000000000000000000000000000000000006001600160a01b0316611f446126ce565b6001600160a01b031614611f6a5760405162461bcd60e51b815260040161086390615439565b6000600254600160a01b900460ff166001811115611f8a57611f8a614db2565b14611fa75760405162461bcd60e51b8152600401610863906154c6565b6001600254600160a81b900460ff166001811115611fc757611fc7614db2565b14611fe45760405162461bcd60e51b8152600401610863906154e8565b6000611ff663d9dc1f1960e01b61272b565b9050600081601381111561200c5761200c614db2565b1461202c5780604051637f0911d160e01b8152600401610863919061553d565b6001600160a01b03831661206c5760405162461bcd60e51b8152602060048201526007602482015266125b9d985b1a5960ca1b6044820152606401610863565b61207583613e49565b50600192915050565b61211060408051610140810182526000808252602080830182905282840182905260608084018390526080808501849052855161010081018752848152928301849052948201839052810182905292830181905260a083810182905260c0840182905260e084019190915290919082019081526020016000815260200160008152602001600081526020016000905290565b604051631b79144d60e11b8152604460048201819052602482018590528101839052737F11D5bb7c99667ac0E8851c6B72633d35244c6C906336f2289a9060640161022060405180830381865af415801561216f573d6000803e3d6000fd5b505050506040513d601f19601f8201168201806040525081019061103b91906159f5565b6000610e3d613ec0565b60006001600160a01b037f00000000000000000000000000000000000000000000000000000000000000001630036121e75760405162461bcd60e51b815260040161086390615413565b7f00000000000000000000000000000000000000000000000000000000000000006001600160a01b03166122196126ce565b6001600160a01b03161461223f5760405162461bcd60e51b815260040161086390615439565b600061224e604e5461ffff1690565b61ffff161161228a5760405162461bcd60e51b81526020600482015260086024820152671393d5081253925560c21b6044820152606401610863565b600061229c630f708ceb60e41b61272b565b905060008160138111156122b2576122b2614db2565b146122d25780604051637f0911d160e01b8152600401610863919061553d565b6002805484919060ff60a01b1916600160a01b8360018111156122f7576122f7614db2565b021790555030336001600160a01b03167fc08ec585c25f1907baaab6f278c5994531a2e34c59935b3fcfe813067a3b4878856040516123369190614dd8565b60405180910390a350600192915050565b6000610e3d6126ef565b60006001600160a01b037f000000000000000000000000000000000000000000000000000000000000000016300361239b5760405162461bcd60e51b815260040161086390615413565b7f00000000000000000000000000000000000000000000000000000000000000006001600160a01b03166123cd6126ce565b6001600160a01b0316146123f35760405162461bcd60e51b815260040161086390615439565b6000600254600160a01b900460ff16600181111561241357612413614db2565b146124305760405162461bcd60e51b8152600401610863906154c6565b6000612442631f98802f60e31b61272b565b9050600081601381111561245857612458614db2565b146124785780604051637f0911d160e01b8152600401610863919061553d565b6002805484919060ff60a81b1916600160a81b83600181111561249d5761249d614db2565b021790555030336001600160a01b03167ff5912c5e436152157ed2b4a84bc313b4b1fe09a15b941f195d23c99a1b8c45ad856040516123369190614dd8565b600080808080806124f48963fd25ed2760e01b61281c565b9450945094509450945060005b878110156114e557600061252287878c8c8681811061153b5761153b6155a1565b905061253081600401613f74565b8a8a84818110612542576125426155a1565b905060400201602001602081019061255a919061566c565b61ffff161161259b5760405162461bcd60e51b815260206004820152600d60248201526c125b1b1959d85b08131a5b5a5d609a1b6044820152606401610863565b8989838181106125ad576125ad6155a1565b90506040020160200160208101906125c5919061566c565b8160020160166101000a81548161ffff021916908361ffff1602179055508989838181106125f5576125f56155a1565b9050604002016000013585846001600160a01b03167fe0a90df53b179e67d00740573c501f6b75a628c9b7ed21ceebb13dd85cdadfe48d8d8781811061263d5761263d6155a1565b9050604002016020016020810190612655919061566c565b60405161ffff909116815260200160405180910390a45080612676816155cd565b915050612501565b60006001600160e01b03198216633d817cff60e01b14806126af57506001600160e01b031982166352d1902d60e01b145b8061081557506301ffc9a760e01b6001600160e01b0319831614610815565b6000600080516020615e128339815191525b546001600160a01b0316919050565b60007fb53127684a568b3173ae13b9f8a6016e243e63b6e8ee1178d6a717850b5d61036126e0565b6127248585858585613f7e565b5050505050565b6002546040805163172cb29d60e11b81523060048201526001600160e01b03198416602482015233604482015290516000926001600160a01b031691632e59653a916064808301926020929190829003018187875af1158015612792573d6000803e3d6000fd5b505050506040513d601f19601f820116820180604052508101906108159190615abb565b6000818152602083905260408120819060018082015460ff1660038111156127e0576127e0614db2565b036127ff5750506040805183815260208101859052209050600161280a565b600019925060009150505b9250929050565b606061081582614147565b60008080808080306001600160a01b031663a304e3536040518163ffffffff1660e01b8152600401602060405180830381865afa158015612861573d6000803e3d6000fd5b505050506040513d601f19601f820116820180604052508101906128859190615adc565b600181111561289657612896614db2565b146128b35760405162461bcd60e51b8152600401610863906154c6565b60006128bf8880615af9565b9050116129045760405162461bcd60e51b8152602060048201526013602482015272496c6c6567616c2050726f66696c654e616d6560681b6044820152606401610863565b60008061291460608a018a615af9565b905011156129a8574261292d60608a0160408b01615b3f565b6001600160401b0316116129775760405162461bcd60e51b815260206004820152601160248201527045787069726564205369676e617475726560781b6044820152606401610863565b6129a1887f9027b951cbdf8eff67da583391d218a57a89ec1ebfcb1c66da188e8531804d556141a3565b90506129ab565b50335b60006129bf6129ba8a80615af9565b614272565b6001600160e01b031989166000908152604a60205260408120549192506001600160a01b03909116906129f2828b6142a5565b905060006129ff856142d7565b60405163a66ce52f60e01b8152600481018690526024810184905260448101829052909150309063a66ce52f90606401600060405180830381600087803b158015612a4957600080fd5b505af1158015612a5d573d6000803e3d6000fd5b50505060008581526048602052604081209150612a7b604485614311565b919e919d50949b509099509397509295505050505050565b600081815260208390526040812060018082015460ff166003811115612abb57612abb614db2565b03612ad6576040805184815260208101869052209150612b69565b6000600182015460ff166003811115612af157612af1614db2565b03612b2e5760405162461bcd60e51b815260206004820152600d60248201526c13525108139bdd08119bdd5b99609a1b6044820152606401610863565b60405162461bcd60e51b815260206004820152601060248201526f125b1b1959d85b081352510814db1bdd60821b6044820152606401610863565b5092915050565b6000818152600183016020526040812054151561103b565b8015612bfb57612b9b6020840184615b68565b63ffffffff168263ffffffff161015612bf65760405162461bcd60e51b815260206004820152601b60248201527f496c6c6567616c204d656d62657252656769737465724c696d697400000000006044820152606401610863565b612c62565b612c086020840184615b68565b845463ffffffff91821691161015612c625760405162461bcd60e51b815260206004820152601b60248201527f496c6c6567616c204d656d62657252656769737465724c696d697400000000006044820152606401610863565b612c726040840160208501615b68565b845463ffffffff9182166401000000009091049091161015612cd65760405162461bcd60e51b815260206004820152601960248201527f496c6c6567616c20526f6c6552656769737465724c696d6974000000000000006044820152606401610863565b612ce66060840160408501615b68565b845463ffffffff918216680100000000000000009091049091161015612d4e5760405162461bcd60e51b815260206004820152601960248201527f496c6c6567616c205479706552656769737465724c696d6974000000000000006044820152606401610863565b612d5e6080840160608501615b68565b845463ffffffff918216600160601b9091049091161015612dc15760405162461bcd60e51b815260206004820152601d60248201527f496c6c6567616c2046756e6374696f6e52656769737465724c696d69740000006044820152606401610863565b612dd160a0840160808501615b68565b845463ffffffff918216600160801b9091049091161015612e345760405162461bcd60e51b815260206004820152601c60248201527f496c6c6567616c20436f6e7465787452656769737465724c696d6974000000006044820152606401610863565b612e4460c0840160a0850161566c565b845461ffff918216600160a01b9091049091161015612ea55760405162461bcd60e51b815260206004820152601a60248201527f496c6c6567616c205265616c6d52656769737465724c696d69740000000000006044820152606401610863565b612eb560e0840160c0850161566c565b845461ffff918216600160b01b9091049091161015612f165760405162461bcd60e51b815260206004820152601b60248201527f496c6c6567616c20446f6d61696e52656769737465724c696d697400000000006044820152606401610863565b612f27610100840160e0850161566c565b845461ffff918216600160c01b9091049091161015612f885760405162461bcd60e51b815260206004820152601b60248201527f496c6c6567616c20506f6c69637952656769737465724c696d697400000000006044820152606401610863565b50505050565b6000612fa8612fa360a0880160808901614d2f565b6142d7565b905060008082815260208990526040902060010154610100900460ff166003811115612fd657612fd6614db2565b146130135760405162461bcd60e51b815260206004820152600d60248201526c105b1c9958591e48115e1a5cdd609a1b6044820152606401610863565b60006130238860208901356143ec565b90506002600182015462010000900460ff16600381111561304657613046614db2565b101561308d5760405162461bcd60e51b8152602060048201526016602482015275496c6c6567616c20526f6c6520557064617461626c6560501b6044820152606401610863565b600581015462ffffff6301000000820481169116116130e15760405162461bcd60e51b815260206004820152601060248201526f24b63632b3b0b6102932b3b4b9ba32b960811b6044820152606401610863565b60006130fa82600301548a6144c990919063ffffffff16565b90506002600182015462010000900460ff16600381111561311d5761311d614db2565b10156131645760405162461bcd60e51b8152602060048201526016602482015275496c6c6567616c205479706520557064617461626c6560501b6044820152606401610863565b60006131798a8985600001600001548a6137d4565b9050600081600781111561318f5761318f614db2565b1461319d5761319d81613869565b506040516020016131ad9061556e565b604051602081830303815290604052805190602001208260030154036131dc576131da60048a01846145a0565b505b6000838152600582810160209081526040909220918a013590915582018054600191906003906132199084906301000000900462ffffff16615b85565b92506101000a81548162ffffff021916908362ffffff160217905550600061324a848b6145ac90919063ffffffff16565b9050600060498161326160a08d0160808e01614d2f565b6001600160a01b0316815260208101919091526040016000208054909150156132bf5760405162461bcd60e51b815260206004820152601060248201526f141048105b1c9958591e48115e1a5cdd60821b6044820152606401610863565b8054600181018255600082815260209020018790558935156133be5760018a35600090815260208d9052604090206001015460ff16600381111561330557613305614db2565b1161334c5760405162461bcd60e51b8152602060048201526017602482015276496c6c6567616c2041646d696e204167656e745479706560481b6044820152606401610863565b600061337e8c8b6040516020016133629061556e565b604051602081830303815290604052805190602001208c6137d4565b9050600081600781111561339457613394614db2565b146133b457806040516345eeb27b60e01b81526004016108639190615ba1565b50893582556133e8565b6040516020016133cd9061556e565b60408051601f19818403018152919052805160209091012082555b60018201805462ffffff19166202030117905561340b60a08b0160808c01614d2f565b6002830180546001600160a01b0319166001600160a01b039290921691909117905560038401546134409060048401906145a0565b50600161345360608c0160408d01615bb5565b60020b121561347157600a8b0154600160981b900461ffff16613481565b61348160608b0160408c01615bb5565b60028301805461ffff92909216600160b01b0261ffff60b01b1990921691909117905560006134b660808c0160608d01615bb5565b60020b12156134d457600a8b0154600160781b900461ffff166134e4565b6134e460808b0160608c01615bb5565b60028301805461ffff92909216600160a01b0261ffff60a01b1990921691909117905560a08a016003830161351982826156b5565b9050508487876001600160a01b03167f86748736c74f394188dc72d3382b3eb515228dffd025e64c52cdeddfc4505e6b8d6020013586600001600001548f60a00160405161356993929190615bd8565b60405180910390a45050505050505050505050565b6135866126ce565b6001600160a01b0316816001600160a01b0316036135d05760405162461bcd60e51b8152602060048201526007602482015266125b1b1959d85b60ca1b6044820152606401610863565b60006135e2637147855d60e01b61272b565b905060008160138111156135f8576135f8614db2565b146136185780604051637f0911d160e01b8152600401610863919061553d565b5050565b60607f4910fdfa16fed3260ed0e7147f7cc6da11a60208b5b9406d12a635614ffd91435460ff16156136665761365184614612565b5060408051600081526020810190915261103b565b600080516020615e1283398151915260001b846001600160a01b03166352d1902d6040518163ffffffff1660e01b8152600401602060405180830381865afa1580156136b6573d6000803e3d6000fd5b505050506040513d601f19601f820116820180604052508101906136da9190615bf4565b146137165760405162461bcd60e51b815260206004820152600c60248201526b496c6c6567616c205555505360a01b6044820152606401610863565b6040516301ffc9a760e01b8152633d817cff60e01b60048201526001600160a01b038516906301ffc9a790602401602060405180830381865afa158015613761573d6000803e3d6000fd5b505050506040513d601f19601f820116820180604052508101906137859190615551565b6137c25760405162461bcd60e51b815260206004820152600e60248201526d496c6c6567616c204950726f787960901b6044820152606401610863565b6137cd848484614641565b905061103b565b604051635fbcdb4b60e01b815260048101859052602481018490526044810183905260648101829052600090737F11D5bb7c99667ac0E8851c6B72633d35244c6C90635fbcdb4b90608401602060405180830381865af415801561383c573d6000803e3d6000fd5b505050506040513d601f19601f820116820180604052508101906138609190615c0d565b95945050505050565b600181600781111561387d5761387d614db2565b0361389b5760405163e15df99b60e01b815260040160405180910390fd5b60028160078111156138af576138af614db2565b036138cd5760405163c38331b560e01b815260040160405180910390fd5b60038160078111156138e1576138e1614db2565b036138ff5760405163dab65f4760e01b815260040160405180910390fd5b600481600781111561391357613913614db2565b0361393157604051633f4b20a160e11b815260040160405180910390fd5b600581600781111561394557613945614db2565b03613963576040516308fa537360e01b815260040160405180910390fd5b600681600781111561397757613977614db2565b036139955760405163ae0903a160e01b815260040160405180910390fd5b60078160078111156139a9576139a9614db2565b036139c75760405163d59825eb60e01b815260040160405180910390fd5b60405162461bcd60e51b815260206004820152600b60248201526a2ab735b737bbb71022a92960a91b6044820152606401610863565b50565b600061103b83836146a7565b6000805b613a1c86600401613f74565b81108015613a2a5750601081105b15613c3b57613a3c600487018261479a565b91506000613a4a88846144c9565b90506002600182015462010000900460ff166003811115613a6d57613a6d614db2565b1015613ab45760405162461bcd60e51b8152602060048201526016602482015275496c6c6567616c205479706520557064617461626c6560501b6044820152606401610863565b600086815260058201602052604081205490613ad08a836143ec565b90506002600182015462010000900460ff166003811115613af357613af3614db2565b1015613b3a5760405162461bcd60e51b8152602060048201526016602482015275496c6c6567616c20526f6c6520557064617461626c6560501b6044820152606401610863565b60058101546301000000900462ffffff16613b8d5760405162461bcd60e51b8152602060048201526013602482015272125b1b1959d85b0813595b58995c90dbdd5b9d606a1b6044820152606401610863565b6005808201805460001962ffffff6301000000808404821692909201160265ffffff0000001990911617905560008981529084016020526040812055613bd660048a0186613a00565b508787876001600160a01b03167fb75b8559833a48b15656ede5a296ceb3b02db111105c6525d5c458ff92a0798d8589604051613c1d929190918252602082015260400190565b60405180910390a45050508080613c33906155cd565b915050613a10565b50613c4885600401613f74565b600003613d68576040516329b8ed3160e11b81526044600482018190526024820187905281018490526064810182905260016084820152737F11D5bb7c99667ac0E8851c6B72633d35244c6C90635371da629060a40160006040518083038186803b158015613cb657600080fd5b505af4158015613cca573d6000803e3d6000fd5b5050600080885560018801805462ffffff191690556002880180546001600160c01b03191690556003880180546001600160d01b031916905560048801925090508181613d178282614bfa565b505050508383836001600160a01b03167f6d56f35d3e32855e7d2e0ed53e80d422065dd4aeb0a18e70ca897ccf89301d9a6001604051613d5b911515815260200190565b60405180910390a4610a49565b8383836001600160a01b03167f6d56f35d3e32855e7d2e0ed53e80d422065dd4aeb0a18e70ca897ccf89301d9a6000604051613da8911515815260200190565b60405180910390a4505050505050565b600080613dc58685612a93565b90506002600182015462010000900460ff166003811115613de857613de8614db2565b1015613e065760405162461bcd60e51b8152600401610863906154e8565b6000613e1b87878460000160000154876137d4565b90506000816007811115613e3157613e31614db2565b14613e3f57613e3f81613869565b5095945050505050565b7fb53127684a568b3173ae13b9f8a6016e243e63b6e8ee1178d6a717850b5d610380546001600160a01b0383166001600160a01b031990911681179091556040805191825251309133917f63fdbed5f2909ec44e3becc51e9d29654ce1447747914e8a6ebc019e7f640b8b9181900360200190a350565b60007f8b73c3c69bb8fe3d512ecc4cf759cc79239f7b179b0ffacaa9a75d522b39400f6000604051602001613ef59190615c2e565b604051602081830303815290604052805190602001206001604051602001613f1d9190615c2e565b60408051601f1981840301815282825280516020918201209083019490945281019190915260608101919091524660808201523060a082015260c00160405160208183030381529060405280519060200120905090565b6000610815825490565b604e5462010000900460ff16613fd65760405162461bcd60e51b815260206004820152601960248201527f436f6e7472616374204e6f7420496e697469616c697a696e67000000000000006044820152606401610863565b6000613fe3858783615cea565b506001613ff1838583615cea565b506001600160a01b03811630146140d7576001600160a01b0381163b6140295760405162461bcd60e51b815260040161086390615513565b6040516301ffc9a760e01b81526331501c3960e01b60048201526001600160a01b038216906301ffc9a790602401602060405180830381865afa158015614074573d6000803e3d6000fd5b505050506040513d601f19601f820116820180604052508101906140989190615551565b6140d25760405162461bcd60e51b815260206004820152600b60248201526a125b1b1959d85b081050d360aa1b6044820152606401610863565b614123565b6140e76331501c3960e01b6107f0565b6141235760405162461bcd60e51b815260206004820152600d60248201526c139bdd0814dd5c1c1bdc9d1959609a1b6044820152606401610863565b600280546001600160b01b0319166001600160a01b03831617905561272433613e49565b60608160000180548060200260200160405190810160405280929190818152602001828054801561419757602002820191906000526020600020905b815481526020019060010190808311614183575b50505050509050919050565b600061103b6141b56060850185615af9565b8080601f01602080910402602001604051908101604052809392919081815260200183838082843760009201919091525061426d92508691506141fd90506129ba8880615af9565b61420d6040890160208a01614d2f565b61421d60608a0160408b01615b3f565b6001600160401b031660408051602080820196909652808201949094526001600160a01b039290921660608401526080808401919091528151808403909101815260a09092019052805191012090565b6147a6565b60008282604051602001614287929190615da9565b60405160208183030381529060405280519060200120905092915050565b6040516001600160601b0319606084901b1660208201526001600160e01b031982166034820152600090603801614287565b6040516001600160601b0319606083901b166020820152600090603401604051602081830303815290604052805190602001209050919050565b600081815260018084016020526040822090600182015460ff16600581111561433c5761433c614db2565b036143595760408051848152600186016020820152209150612b69565b6000600182015460ff16600581111561437457614374614db2565b036143b15760405162461bcd60e51b815260206004820152600d60248201526c11925108139bdd08119bdd5b99609a1b6044820152606401610863565b60405162461bcd60e51b815260206004820152601060248201526f125b1b195859db081192510814db1bdd60821b6044820152606401610863565b60008181526020839052604081206002600182015460ff16600381111561441557614415614db2565b03614430576040805184815260208101869052209150612b69565b6000600182015460ff16600381111561444b5761444b614db2565b0361448b5760405162461bcd60e51b815260206004820152601060248201526f149bdb19525908139bdd08119bdd5b9960821b6044820152606401610863565b60405162461bcd60e51b8152602060048201526013602482015272125b1b1959d85b08149bdb1952590814db1bdd606a1b6044820152606401610863565b60008181526020839052604081206003600182015460ff1660038111156144f2576144f2614db2565b0361450d576040805184815260208101869052209150612b69565b6000600182015460ff16600381111561452857614528614db2565b036145655760405162461bcd60e51b815260206004820152600d60248201526c15125108139bdd08119bdd5b99609a1b6044820152606401610863565b60405162461bcd60e51b815260206004820152601060248201526f125b1b1959d85b081512510814db1bdd60821b6044820152606401610863565b600061103b838361481b565b600081815260208390526040812081600182015460ff1660038111156145d4576145d4614db2565b14806145f7575060018082015460ff1660038111156145f5576145f5614db2565b145b15612b2e576040805184815260208101869052209150612b69565b600080516020615e1283398151915280546001600160a01b0319166001600160a01b0392909216919091179055565b606061464c8461486a565b6000835111806146595750815b1561468c576137cd84846040518060400160405280600b81526020016a10d85b1b0811985a5b195960aa1b8152506148ae565b60408051600080825260208201909252905b50949350505050565b600081815260018301602052604081205480156147905760006146cb600183615db9565b85549091506000906146df90600190615db9565b90508181146147445760008660000182815481106146ff576146ff6155a1565b9060005260206000200154905080876000018481548110614722576147226155a1565b6000918252602080832090910192909255918252600188019052604090208390555b855486908061475557614755615dcc565b600190038181906000526020600020016000905590558560010160008681526020019081526020016000206000905560019350505050610815565b6000915050610815565b600061103b8383614972565b6000806147b28361499c565b90506000806147c18387614a09565b909250905060008160048111156147da576147da614db2565b1461469e5760405162461bcd60e51b8152602060048201526011602482015270496c6c6567616c205369676e617475726560781b6044820152606401610863565b600081815260018301602052604081205461486257508154600181810184556000848152602080822090930184905584548482528286019093526040902091909155610815565b506000610815565b61487381614612565b6040516001600160a01b03821690309033907f8ee0f2bd29c0e6a975c3cc2e47cf2e01b5f23a9a8a02e0ed6a5a070269de3d2d90600090a450565b60606001600160a01b0384163b6149075760405162461bcd60e51b815260206004820152601860248201527f496c6c6567616c20436f6e7472616374204164647265737300000000000000006044820152606401610863565b600080856001600160a01b0316856040516149229190615de2565b600060405180830381855af49150503d806000811461495d576040519150601f19603f3d011682016040523d82523d6000602084013e614962565b606091505b5091509150610e24828286614a74565b6000826000018281548110614989576149896155a1565b9060005260206000200154905092915050565b6000610815306001600160a01b031663f698da256040518163ffffffff1660e01b8152600401602060405180830381865afa1580156149df573d6000803e3d6000fd5b505050506040513d601f19601f82011682018060405250810190614a039190615bf4565b83614aad565b6000808251604103614a3f5760208301516040840151606085015160001a614a3387828585614ad4565b9450945050505061280a565b8251604003614a685760208301516040840151614a5d868383614bc1565b93509350505061280a565b5060009050600261280a565b60608315614a8357508161103b565b825115614a935782518084602001fd5b8160405162461bcd60e51b81526004016108639190615065565b60405161190160f01b60208201526022810183905260428101829052600090606201614287565b6000807f7fffffffffffffffffffffffffffffff5d576e7357a4501ddfe92f46681b20a0831115614b0b5750600090506003614bb8565b8460ff16601b14158015614b2357508460ff16601c14155b15614b345750600090506004614bb8565b6040805160008082526020820180845289905260ff881692820192909252606081018690526080810185905260019060a0016020604051602081039080840390855afa158015614b88573d6000803e3d6000fd5b5050604051601f1901519150506001600160a01b038116614bb157600060019250925050614bb8565b9150600090505b94509492505050565b6000806001600160ff1b03831681614bde60ff86901c601b615dfe565b9050614bec87828885614ad4565b935093505050935093915050565b50805460008255906000526020600020908101906139fd91905b80821115614c285760008155600101614c14565b5090565b600060208284031215614c3e57600080fd5b81356001600160e01b03198116811461103b57600080fd5b60008083601f840112614c6857600080fd5b5081356001600160401b03811115614c7f57600080fd5b60208301915083602082850101111561280a57600080fd5b6001600160a01b03811681146139fd57600080fd5b600080600080600060608688031215614cc457600080fd5b85356001600160401b0380821115614cdb57600080fd5b614ce789838a01614c56565b90975095506020880135915080821115614d0057600080fd5b50614d0d88828901614c56565b9094509250506040860135614d2181614c97565b809150509295509295909350565b600060208284031215614d4157600080fd5b813561103b81614c97565b60008060408385031215614d5f57600080fd5b50508035926020909101359150565b6020808252825182820181905260009190848201906040850190845b81811015614da657835183529284019291840191600101614d8a565b50909695505050505050565b634e487b7160e01b600052602160045260246000fd5b600281106139fd576139fd614db2565b60208101614de583614dc8565b91905290565b600060808284031215614dfd57600080fd5b50919050565b600080600060408486031215614e1857600080fd5b83356001600160401b0380821115614e2f57600080fd5b614e3b87838801614deb565b94506020860135915080821115614e5157600080fd5b818601915086601f830112614e6557600080fd5b813581811115614e7457600080fd5b8760206101a083028501011115614e8a57600080fd5b6020830194508093505050509250925092565b600080600060608486031215614eb257600080fd5b83359250602084013591506040840135614ecb81614c97565b809150509250925092565b634e487b7160e01b600052604160045260246000fd5b60405161014081016001600160401b0381118282101715614f0f57614f0f614ed6565b60405290565b604051601f8201601f191681016001600160401b0381118282101715614f3d57614f3d614ed6565b604052919050565b80151581146139fd57600080fd5b8035610d5a81614f45565b600080600060608486031215614f7357600080fd5b8335614f7e81614c97565b92506020848101356001600160401b0380821115614f9b57600080fd5b818701915087601f830112614faf57600080fd5b813581811115614fc157614fc1614ed6565b614fd3601f8201601f19168501614f15565b91508082528884828501011115614fe957600080fd5b808484018584013760008482840101525080945050505061500c60408501614f53565b90509250925092565b60005b83811015615030578181015183820152602001615018565b50506000910152565b60008151808452615051816020860160208601615015565b601f01601f19169290920160200192915050565b60208152600061103b6020830184615039565b60008060006040848603121561508d57600080fd5b83356001600160401b03808211156150a457600080fd5b6150b087838801614deb565b945060208601359150808211156150c657600080fd5b818601915086601f8301126150da57600080fd5b8135818111156150e957600080fd5b8760208260051b8501011115614e8a57600080fd5b60008083601f84011261511057600080fd5b5081356001600160401b0381111561512757600080fd5b6020830191508360208260061b850101111561280a57600080fd5b60008060006040848603121561515757600080fd5b83356001600160401b038082111561516e57600080fd5b61517a87838801614deb565b9450602086013591508082111561519057600080fd5b5061519d868287016150fe565b9497909650939450505050565b6000806000606084860312156151bf57600080fd5b505081359360208301359350604090920135919050565b600080604083850312156151e957600080fd5b8235915060208301356151fb81614c97565b809150509250929050565b60008060006040848603121561521b57600080fd5b83356001600160401b038082111561523257600080fd5b61523e87838801614deb565b9450602086013591508082111561525457600080fd5b818601915086601f83011261526857600080fd5b81358181111561527757600080fd5b87602061012083028501011115614e8a57600080fd5b63ffffffff8082511683528060208301511660208401528060408301511660408401528060608301511660608401528060808301511660808401525060a081015161ffff80821660a08501528060c08401511660c0850152505060e08101516152fc60e084018261ffff169052565b505050565b600481106139fd576139fd614db2565b61531a81615301565b9052565b81518152602080830151610220830191615342908401826001600160a01b03169052565b506040830151615358604084018261ffff169052565b50606083015161536e606084018261ffff169052565b506080830151615384608084018261ffff169052565b5060a083015161539760a084018261528d565b5060c08301516153ab6101a0840182615311565b5060e08301516153bf6101c0840182615311565b506101008301516153d46101e0840182615311565b50610120830151612b69610200840182615311565b600281106139fd57600080fd5b60006020828403121561540857600080fd5b813561103b816153e9565b6020808252600c908201526b125b1b1959d85b0810d85b1b60a21b604082015260600190565b6020808252600c908201526b125b9d985b1a590810d85b1b60a21b604082015260600190565b81835281816020850137506000828201602090810191909152601f909101601f19169091010190565b60608152600061549c60608301878961545f565b82810360208401526154af81868861545f565b91505061ffff831660408301529695505050505050565b60208082526008908201526714995a9958dd195960c21b604082015260600190565b602080825260119082015270496c6c6567616c20557064617461626c6560781b604082015260600190565b60208082526010908201526f125b1b1959d85b0810dbdb9d1c9858dd60821b604082015260600190565b6020810160148310614de557614de5614db2565b60006020828403121561556357600080fd5b815161103b81614f45565b7f545950452e4c4956454c595f50524f46494c452e4c4956454c595f4d415354458152602960f91b602082015260210190565b634e487b7160e01b600052603260045260246000fd5b634e487b7160e01b600052601160045260246000fd5b6000600182016155df576155df6155b7565b5060010190565b600181811c908216806155fa57607f821691505b602082108103614dfd57634e487b7160e01b600052602260045260246000fd5b600481106139fd57600080fd5b60006020828403121561563957600080fd5b813561103b8161561a565b60208101614de583615301565b61ffff811681146139fd57600080fd5b8035610d5a81615651565b60006020828403121561567e57600080fd5b813561103b81615651565b63ffffffff811681146139fd57600080fd5b6000813561081581615689565b6000813561081581615651565b81356156c081615689565b63ffffffff8116905081548163ffffffff19821617835560208401356156e581615689565b67ffffffff000000008160201b16836001600160401b0319841617178455505050604082013561571481615689565b81546bffffffff00000000000000001916604082901b6bffffffff0000000000000000161782555061576f61574b6060840161569b565b82805463ffffffff60601b191660609290921b63ffffffff60601b16919091179055565b6157a261577e6080840161569b565b82805463ffffffff60801b191660809290921b63ffffffff60801b16919091179055565b6157d16157b160a084016156a8565b82805461ffff60a01b191660a09290921b61ffff60a01b16919091179055565b6158006157e060c084016156a8565b82805461ffff60b01b191660b09290921b61ffff60b01b16919091179055565b61361861580f60e084016156a8565b82805461ffff60c01b191660c09290921b61ffff60c01b16919091179055565b8035610d5a81615689565b803561584581615689565b63ffffffff908116835260208201359061585e82615689565b908116602084015260408201359061587582615689565b908116604084015260608201359061588c82615689565b16606083015261589e6080820161582f565b63ffffffff1660808301526158b560a08201615661565b61ffff1660a08301526158ca60c08201615661565b61ffff1660c08301526158df60e08201615661565b61ffff811660e0840152505050565b6101008101610815828461583a565b8051610d5a81614c97565b8051610d5a81615651565b8051610d5a81615689565b600061010080838503121561593257600080fd5b604051908101906001600160401b038211818310171561595457615954614ed6565b816040528092508351915061596882615689565b81815261597760208501615913565b602082015261598860408501615913565b604082015261599960608501615913565b60608201526159aa60808501615913565b60808201526159bb60a08501615908565b60a08201526159cc60c08501615908565b60c08201526159dd60e08501615908565b60e0820152505092915050565b8051610d5a8161561a565b60006102208284031215615a0857600080fd5b615a10614eec565b82518152615a20602084016158fd565b6020820152615a3160408401615908565b6040820152615a4260608401615908565b6060820152615a5360808401615908565b6080820152615a658460a0850161591e565b60a0820152615a776101a084016159ea565b60c0820152615a896101c084016159ea565b60e0820152615a9b6101e084016159ea565b610100820152615aae61020084016159ea565b6101208201529392505050565b600060208284031215615acd57600080fd5b81516014811061103b57600080fd5b600060208284031215615aee57600080fd5b815161103b816153e9565b6000808335601e19843603018112615b1057600080fd5b8301803591506001600160401b03821115615b2a57600080fd5b60200191503681900382131561280a57600080fd5b600060208284031215615b5157600080fd5b81356001600160401b038116811461103b57600080fd5b600060208284031215615b7a57600080fd5b813561103b81615689565b62ffffff818116838216019080821115612b6957612b696155b7565b6020810160088310614de557614de5614db2565b600060208284031215615bc757600080fd5b81358060020b811461103b57600080fd5b8381526020810183905261014081016110d6604083018461583a565b600060208284031215615c0657600080fd5b5051919050565b600060208284031215615c1f57600080fd5b81516008811061103b57600080fd5b6000808354615c3c816155e6565b60018281168015615c545760018114615c6957615c98565b60ff1984168752821515830287019450615c98565b8760005260208060002060005b85811015615c8f5781548a820152908401908201615c76565b50505082870194505b50929695505050505050565b601f8211156152fc57600081815260208120601f850160051c81016020861015615ccb5750805b601f850160051c820191505b81811015610a4957828155600101615cd7565b6001600160401b03831115615d0157615d01614ed6565b615d1583615d0f83546155e6565b83615ca4565b6000601f841160018114615d495760008515615d315750838201355b600019600387901b1c1916600186901b178355612724565b600083815260209020601f19861690835b82811015615d7a5786850135825560209485019460019092019101615d5a565b5086821015615d975760001960f88860031b161c19848701351681555b505060018560011b0183555050505050565b8183823760009101908152919050565b81810381811115610815576108156155b7565b634e487b7160e01b600052603160045260246000fd5b60008251615df4818460208701615015565b9190910192915050565b80820180821115610815576108156155b756fe360894a13ba1a3210667c828492db98dca3e2076cc3735a920a3ca505d382bbca264697066735822122095c98a1ad9278af99ffa540399517327dea160b58ff914279ae3825c8c29ce3464736f6c63430008130033b53127684a568b3173ae13b9f8a6016e243e63b6e8ee1178d6a717850b5d6103",
  "deployedBytecode": "0x6080604052600436106102275760003560e01c806379419a4911610122578063beeba2bc116100a5578063f698da251161006c578063f698da2514610766578063f708ceb01461077b578063f94a0adb1461079b578063fcc40178146107b0578063fd25ed27146107d057005b8063beeba2bc146106a5578063d017969c146106c5578063d9dc1f19146106e5578063f0b15def14610705578063f44c33c21461073957005b8063a0a8e460116100e9578063a0a8e46014610613578063a304e35314610628578063ae1f24e814610647578063b1b483f914610667578063b4a0bdf31461068757005b806379419a491461055f5780638d17a0dc1461057f5780638e8fc22f1461059f5780638fec1024146105bf5780639b97b534146105df57005b80634bf0414d116101aa578063658ce4a711610171578063658ce4a7146104b65780637147855d146104d6578063756af45f1461050357806375d0c0dc146105235780637678922e1461053857005b80634bf0414d146103ec57806352d1902d1461042057806358dbc45d1461043557806364d4c81914610462578063652441b71461049657005b8063301c1280116101ee578063301c12801461030757806333049f9a1461033b57806334109de21461036857806338d38c971461039c5780634888f482146103c457005b806301ffc9a714610230578063077f224a146102655780630e32cb86146102855780631b452f4b146102a55780631ec1d33c146102e757005b3661022e57005b005b34801561023c57600080fd5b5061025061024b366004614c2c565b6107f0565b60405190151581526020015b60405180910390f35b34801561027157600080fd5b5061022e610280366004614cac565b61081b565b34801561029157600080fd5b506102506102a0366004614d2f565b610a51565b3480156102b157600080fd5b506102d97f7bfb2abd6084c8ce20d7ff92c1620e7e7267603f0eac446b9176959d243306bc81565b60405190815260200161025c565b3480156102f357600080fd5b50610250610302366004614d4c565b610d5f565b34801561031357600080fd5b506102d97f541cf898e7c3085cbc6b7402ba06e7237285bc4bd5baa510e708e35537a71ffd81565b34801561034757600080fd5b5061035b610356366004614d4c565b610d9c565b60405161025c9190614d6e565b34801561037457600080fd5b506102d97f7aabe2571874f2a330ea11c8972d9cc3792d973efc6b36e3e29005861a34418881565b3480156103a857600080fd5b506103b1610e2e565b60405161ffff909116815260200161025c565b3480156103d057600080fd5b50600254600160a81b900460ff165b60405161025c9190614dd8565b3480156103f857600080fd5b506102d97f9027b951cbdf8eff67da583391d218a57a89ec1ebfcb1c66da188e8531804d5581565b34801561042c57600080fd5b506102d9610e42565b34801561044157600080fd5b5061044a610e9f565b6040516001600160a01b03909116815260200161025c565b34801561046e57600080fd5b506102d97f8b73c3c69bb8fe3d512ecc4cf759cc79239f7b179b0ffacaa9a75d522b39400f81565b3480156104a257600080fd5b506102506104b1366004614e03565b610ea9565b3480156104c257600080fd5b506102506104d1366004614e9d565b611042565b3480156104e257600080fd5b506104f66104f1366004614f5e565b6110de565b60405161025c9190615065565b34801561050f57600080fd5b506102d961051e366004614d2f565b611235565b34801561052f57600080fd5b506104f66112fa565b34801561054457600080fd5b5073__$68dc14faf17200ec68c1b553d3c187a731$__61044a565b34801561056b57600080fd5b5061025061057a366004615078565b61138c565b34801561058b57600080fd5b5061025061059a366004615142565b6114f5565b3480156105ab57600080fd5b506102506105ba3660046151aa565b611709565b3480156105cb57600080fd5b506102506105da366004615142565b611782565b3480156105eb57600080fd5b506102d97fdee69d384475c3656c17c592e94a2bbfd2a1998cce0c85f535569415a15863b881565b34801561061f57600080fd5b506104f66118ad565b34801561063457600080fd5b50600254600160a01b900460ff166103df565b34801561065357600080fd5b50610250610662366004615142565b6118bc565b34801561067357600080fd5b506102506106823660046151d6565b611aaf565b34801561069357600080fd5b506002546001600160a01b031661044a565b3480156106b157600080fd5b506102506106c0366004615206565b611b0d565b3480156106d157600080fd5b506102506106e0366004615142565b611ccb565b3480156106f157600080fd5b50610250610700366004614d2f565b611ec8565b34801561071157600080fd5b506102d97ffc434588684348dd50856b075c47bed14245c1030aa04c32955af5549981462781565b34801561074557600080fd5b50610759610754366004614d4c565b61207e565b60405161025c919061531e565b34801561077257600080fd5b506102d9612193565b34801561078757600080fd5b506102506107963660046153f6565b61219d565b3480156107a757600080fd5b5061044a612347565b3480156107bc57600080fd5b506102506107cb3660046153f6565b612351565b3480156107dc57600080fd5b506102506107eb366004615142565b6124dc565b60006001600160e01b03198216632819933f60e21b148061081557506108158261267e565b92915050565b6001600160a01b037f000000000000000000000000000000000000000000000000000000000000000016300361086c5760405162461bcd60e51b815260040161086390615413565b60405180910390fd5b7f00000000000000000000000000000000000000000000000000000000000000006001600160a01b031661089e6126ce565b6001600160a01b0316146108c45760405162461bcd60e51b815260040161086390615439565b336108cd6126ef565b6001600160a01b0316146109135760405162461bcd60e51b815260206004820152600d60248201526c1058d8d95cdcc811195b9a5959609a1b6044820152606401610863565b604e5462010000900460ff16158080156109355750604e54600161ffff909116105b806109505750303b1580156109505750604e5461ffff166001145b61099c5760405162461bcd60e51b815260206004820152601c60248201527f436f6e747261637420416c726561647920496e697469616c697a6564000000006044820152606401610863565b604e805461ffff1916600117905580156109c257604e805462ff00001916620100001790555b6109cf8686868686612717565b6109d76126ce565b6001600160a01b031630336001600160a01b03167f247ab7b17ee489fa140c6666edc3822eefed2727610cd6e37192462b87244c6089898989610a1d604e5461ffff1690565b604051610a2e959493929190615488565b60405180910390a48015610a4957604e805462ff0000191690555b505050505050565b60006001600160a01b037f0000000000000000000000000000000000000000000000000000000000000000163003610a9b5760405162461bcd60e51b815260040161086390615413565b7f00000000000000000000000000000000000000000000000000000000000000006001600160a01b0316610acd6126ce565b6001600160a01b031614610af35760405162461bcd60e51b815260040161086390615439565b6000600254600160a01b900460ff166001811115610b1357610b13614db2565b14610b305760405162461bcd60e51b8152600401610863906154c6565b6001600254600160a81b900460ff166001811115610b5057610b50614db2565b14610b6d5760405162461bcd60e51b8152600401610863906154e8565b6001600160a01b03821615801590610b8e57506001600160a01b0382163b15155b610baa5760405162461bcd60e51b815260040161086390615513565b6002546001600160a01b031615610c09576000610bcd63071965c360e11b61272b565b90506000816013811115610be357610be3614db2565b14610c035780604051637f0911d160e01b8152600401610863919061553d565b50610c58565b33610c126126ef565b6001600160a01b031614610c585760405162461bcd60e51b815260206004820152600d60248201526c1058d8d95cdcc811195b9a5959609a1b6044820152606401610863565b6040516301ffc9a760e01b81526331501c3960e01b60048201526001600160a01b038316906301ffc9a790602401602060405180830381865afa158015610ca3573d6000803e3d6000fd5b505050506040513d601f19601f82011682018060405250810190610cc79190615551565b610d015760405162461bcd60e51b815260206004820152600b60248201526a125b1b1959d85b081050d360aa1b6044820152606401610863565b600280546001600160a01b0384166001600160a01b031990911681179091556040805191825251309133917f410bf468eebeeed60acaedb904afb2db7c0bb0131f7d14c3714d81b14fe8ed3c9181900360200190a35060015b919050565b60006001600084815260486020908152604080832086845290915290206001015460ff166003811115610d9457610d94614db2565b149392505050565b60008281526048602052604081206060916008820154600160a01b900460ff166003811115610dcd57610dcd614db2565b03610de8575050604080516000815260208101909152610815565b600080610df583866127b6565b9150915080610e1857505060408051600081526020810190915291506108159050565b610e2482600401612811565b9695505050505050565b6000610e3d604e5461ffff1690565b905090565b6000306001600160a01b037f00000000000000000000000000000000000000000000000000000000000000001614610e8c5760405162461bcd60e51b815260040161086390615413565b50600080516020615e1283398151915290565b6000610e3d6126ce565b60008080808080610ec18963652441b760e01b61281c565b9398509196509450925090506000610ed98684612a93565b6003810154604051636823e89960e01b8152600481018990526024810183905261ffff8b1660448201526064810186905291925063ffffffff169073__$68dc14faf17200ec68c1b553d3c187a731$__90636823e8999060840160006040518083038186803b158015610f4b57600080fd5b505af4158015610f5f573d6000803e3d6000fd5b5050505060005b8981101561102e57610fa8604051602001610f809061556e565b6040516020818303038152906040528051906020012084600401612b7090919063ffffffff16565b15610fdd57610fd8886009018c8c84818110610fc657610fc66155a1565b90506101a0020160a001846001612b88565b610ff6565b610ff6836003018c8c84818110610fc657610fc66155a1565b61101c888c8c8481811061100c5761100c6155a1565b90506101a0020189888a89612f8e565b80611026816155cd565b915050610f66565b5060019750505050505050505b9392505050565b6040516329f6088560e21b81526044600482018190526024820185905281018390526001600160a01b038216606482015260009073__$68dc14faf17200ec68c1b553d3c187a731$__9063a7d8221490608401602060405180830381865af41580156110b2573d6000803e3d6000fd5b505050506040513d601f19601f820116820180604052508101906110d69190615551565b949350505050565b60606001600160a01b037f00000000000000000000000000000000000000000000000000000000000000001630036111285760405162461bcd60e51b815260040161086390615413565b7f00000000000000000000000000000000000000000000000000000000000000006001600160a01b031661115a6126ce565b6001600160a01b0316146111805760405162461bcd60e51b815260040161086390615439565b6000600254600160a01b900460ff1660018111156111a0576111a0614db2565b146111bd5760405162461bcd60e51b8152600401610863906154c6565b6001600254600160a81b900460ff1660018111156111dd576111dd614db2565b146111fa5760405162461bcd60e51b8152600401610863906154e8565b6001600160a01b0384163b6112215760405162461bcd60e51b815260040161086390615513565b61122a8461357e565b6110d684848461361c565b600080600254600160a01b900460ff16600181111561125657611256614db2565b146112735760405162461bcd60e51b8152600401610863906154c6565b600061128563756af45f60e01b61272b565b9050600081601381111561129b5761129b614db2565b146112bb5780604051637f0911d160e01b8152600401610863919061553d565b60405147906001600160a01b038516904780156108fc02916000818181858888f193505050501580156112f2573d6000803e3d6000fd5b509392505050565b606060008054611309906155e6565b80601f0160208091040260200160405190810160405280929190818152602001828054611335906155e6565b80156113825780601f1061135757610100808354040283529160200191611382565b820191906000526020600020905b81548152906001019060200180831161136557829003601f168201915b5050505050905090565b600080808080806113a4896379419a4960e01b61281c565b9450945094509450945060005b878110156114e55760006113e68a8a848181106113d0576113d06155a1565b9050602002013588612a9390919063ffffffff16565b905060006113fd88888460000160000154886137d4565b9050600081600781111561141357611413614db2565b146114215761142181613869565b600282015460088901546001600160a01b0391821691160361147c5760405162461bcd60e51b8152602060048201526014602482015273496c6c6567616c204f776e65722052656d6f766560601b6044820152606401610863565b6114aa8b8b85818110611491576114916155a1565b9050602002013589600401613a0090919063ffffffff16565b506114d088838d8d878181106114c2576114c26155a1565b905060200201358988613a0c565b505080806114dd906155cd565b9150506113b1565b5060019998505050505050505050565b6000808080808061150d89632345e83760e21b61281c565b9450945094509450945060005b878110156114e557600061154b87878c8c8681811061153b5761153b6155a1565b9050604002016000013587613db8565b600281015460088901549192506001600160a01b039081169116036115a35760405162461bcd60e51b815260206004820152600e60248201526d24b63632b3b0b61026b2b6b132b960911b6044820152606401610863565b60018a8a848181106115b7576115b76155a1565b90506040020160200160208101906115cf9190615627565b60038111156115e0576115e0614db2565b116116205760405162461bcd60e51b815260206004820152601060248201526f496c6c6567616c20416374697669747960801b6044820152606401610863565b898983818110611632576116326155a1565b905060400201602001602081019061164a9190615627565b60018201805461ff00191661010083600381111561166a5761166a614db2565b0217905550898983818110611681576116816155a1565b9050604002016000013585846001600160a01b03167f614068ea5e443448b2d57b5b5e76ef7da3156d6f02b307fe21ee6552055da5a38d8d878181106116c9576116c96155a1565b90506040020160200160208101906116e19190615627565b6040516116ee9190615644565b60405180910390a45080611701816155cd565b91505061151a565b6000838152604860205260408120816008820154600160a01b900460ff16600381111561173857611738614db2565b0361174757600091505061103b565b60008061175483876127b6565b9150915080156117755761176b6004830186612b70565b935050505061103b565b5060009695505050505050565b6000808080808061179a896323fb040960e21b61281c565b9450945094509450945060005b878110156114e55760006117c887878c8c8681811061153b5761153b6155a1565b90508989838181106117dc576117dc6155a1565b90506040020160200160208101906117f4919061566c565b8160020160146101000a81548161ffff021916908361ffff160217905550898983818110611824576118246155a1565b9050604002016000013585846001600160a01b03167f4f8dd5af3f9ab0d704d9fdef2a549bde295a13dfbf7f19cd1b5a5df767ca10758d8d8781811061186c5761186c6155a1565b9050604002016020016020810190611884919061566c565b60405161ffff909116815260200160405180910390a450806118a5816155cd565b9150506117a7565b606060018054611309906155e6565b600080808080806118d4896315c3e49d60e31b61281c565b9450945094509450945060005b878110156114e557600061190287878c8c8681811061153b5761153b6155a1565b905060008a8a84818110611918576119186155a1565b90506040020160200135146119f757600087818c8c8681811061193d5761193d6155a1565b90506040020160200135815260200190815260200160002090506001600381111561196a5761196a614db2565b600182015460ff16600381111561198357611983614db2565b116119ca5760405162461bcd60e51b8152602060048201526017602482015276496c6c6567616c2041646d696e204167656e745479706560481b6044820152606401610863565b8a8a848181106119dc576119dc6155a1565b90506040020160200135826000016000018190555050611a21565b604051602001611a069061556e565b60408051601f19818403018152919052805160209091012081555b898983818110611a3357611a336155a1565b9050604002016000013585846001600160a01b03167ff655eaec035c3c45561737846acc84ade9b0ef5b6108c0a210c36ccfbafb499a8d8d87818110611a7b57611a7b6155a1565b90506040020160200135604051611a9491815260200190565b60405180910390a45080611aa7816155cd565b9150506118e1565b60008281526048602090815260408083208151606086901b6001600160601b0319168185015282516014818303018152603490910183528051908401208452909152812060019081015460ff166003811115610d9457610d94614db2565b60008080808080611b2589632fbae8af60e21b61281c565b9398509196509450925090506000611b3d8684612a93565b905060005b88811015611cba576000611b7488888d8d86818110611b6357611b636155a1565b905061012002016000013588613db8565b9050611bb0604051602001611b889061556e565b6040516020818303038152906040528051906020012082600401612b7090919063ffffffff16565b15611be557611be0886009018c8c85818110611bce57611bce6155a1565b90506101200201602001600080612b88565b611bfe565b611bfe836003018c8c85818110611bce57611bce6155a1565b8a8a83818110611c1057611c106155a1565b90506101200201602001816003018181611c2a91906156b5565b9050508a8a83818110611c3f57611c3f6155a1565b905061012002016000013586856001600160a01b03167fc84302b091cce5e28ca7d019afc4d17e0ab167d8fe4acbf1b84a85af733265858e8e87818110611c8857611c886155a1565b90506101200201602001604051611c9f91906158ee565b60405180910390a45080611cb2816155cd565b915050611b42565b5060019a9950505050505050505050565b60008080808080611ce389633405e5a760e21b61281c565b9450945094509450945060005b878110156114e5576000611d1f8a8a84818110611d0f57611d0f6155a1565b8a92604090910201359050612a93565b90506000611d3688888460000160000154886137d4565b90506000816007811115611d4c57611d4c614db2565b14611d5a57611d5a81613869565b60008b8b85818110611d6e57611d6e6155a1565b9050604002016020016020810190611d869190615627565b6003811115611d9757611d97614db2565b03611ddb5760405162461bcd60e51b8152602060048201526014602482015273496c6c6567616c20416c7465726162696c69747960601b6044820152606401610863565b8a8a84818110611ded57611ded6155a1565b9050604002016020016020810190611e059190615627565b60018301805462ff0000191662010000836003811115611e2757611e27614db2565b02179055508a8a84818110611e3e57611e3e6155a1565b9050604002016000013586856001600160a01b03167f82c3684f7384c190b92a838689114ba643b25ca472daf25e7481f3469697b1d48e8e88818110611e8657611e866155a1565b9050604002016020016020810190611e9e9190615627565b604051611eab9190615644565b60405180910390a450508080611ec0906155cd565b915050611cf0565b60006001600160a01b037f0000000000000000000000000000000000000000000000000000000000000000163003611f125760405162461bcd60e51b815260040161086390615413565b7f00000000000000000000000000000000000000000000000000000000000000006001600160a01b0316611f446126ce565b6001600160a01b031614611f6a5760405162461bcd60e51b815260040161086390615439565b6000600254600160a01b900460ff166001811115611f8a57611f8a614db2565b14611fa75760405162461bcd60e51b8152600401610863906154c6565b6001600254600160a81b900460ff166001811115611fc757611fc7614db2565b14611fe45760405162461bcd60e51b8152600401610863906154e8565b6000611ff663d9dc1f1960e01b61272b565b9050600081601381111561200c5761200c614db2565b1461202c5780604051637f0911d160e01b8152600401610863919061553d565b6001600160a01b03831661206c5760405162461bcd60e51b8152602060048201526007602482015266125b9d985b1a5960ca1b6044820152606401610863565b61207583613e49565b50600192915050565b61211060408051610140810182526000808252602080830182905282840182905260608084018390526080808501849052855161010081018752848152928301849052948201839052810182905292830181905260a083810182905260c0840182905260e084019190915290919082019081526020016000815260200160008152602001600081526020016000905290565b604051631b79144d60e11b815260446004820181905260248201859052810183905273__$68dc14faf17200ec68c1b553d3c187a731$__906336f2289a9060640161022060405180830381865af415801561216f573d6000803e3d6000fd5b505050506040513d601f19601f8201168201806040525081019061103b91906159f5565b6000610e3d613ec0565b60006001600160a01b037f00000000000000000000000000000000000000000000000000000000000000001630036121e75760405162461bcd60e51b815260040161086390615413565b7f00000000000000000000000000000000000000000000000000000000000000006001600160a01b03166122196126ce565b6001600160a01b03161461223f5760405162461bcd60e51b815260040161086390615439565b600061224e604e5461ffff1690565b61ffff161161228a5760405162461bcd60e51b81526020600482015260086024820152671393d5081253925560c21b6044820152606401610863565b600061229c630f708ceb60e41b61272b565b905060008160138111156122b2576122b2614db2565b146122d25780604051637f0911d160e01b8152600401610863919061553d565b6002805484919060ff60a01b1916600160a01b8360018111156122f7576122f7614db2565b021790555030336001600160a01b03167fc08ec585c25f1907baaab6f278c5994531a2e34c59935b3fcfe813067a3b4878856040516123369190614dd8565b60405180910390a350600192915050565b6000610e3d6126ef565b60006001600160a01b037f000000000000000000000000000000000000000000000000000000000000000016300361239b5760405162461bcd60e51b815260040161086390615413565b7f00000000000000000000000000000000000000000000000000000000000000006001600160a01b03166123cd6126ce565b6001600160a01b0316146123f35760405162461bcd60e51b815260040161086390615439565b6000600254600160a01b900460ff16600181111561241357612413614db2565b146124305760405162461bcd60e51b8152600401610863906154c6565b6000612442631f98802f60e31b61272b565b9050600081601381111561245857612458614db2565b146124785780604051637f0911d160e01b8152600401610863919061553d565b6002805484919060ff60a81b1916600160a81b83600181111561249d5761249d614db2565b021790555030336001600160a01b03167ff5912c5e436152157ed2b4a84bc313b4b1fe09a15b941f195d23c99a1b8c45ad856040516123369190614dd8565b600080808080806124f48963fd25ed2760e01b61281c565b9450945094509450945060005b878110156114e557600061252287878c8c8681811061153b5761153b6155a1565b905061253081600401613f74565b8a8a84818110612542576125426155a1565b905060400201602001602081019061255a919061566c565b61ffff161161259b5760405162461bcd60e51b815260206004820152600d60248201526c125b1b1959d85b08131a5b5a5d609a1b6044820152606401610863565b8989838181106125ad576125ad6155a1565b90506040020160200160208101906125c5919061566c565b8160020160166101000a81548161ffff021916908361ffff1602179055508989838181106125f5576125f56155a1565b9050604002016000013585846001600160a01b03167fe0a90df53b179e67d00740573c501f6b75a628c9b7ed21ceebb13dd85cdadfe48d8d8781811061263d5761263d6155a1565b9050604002016020016020810190612655919061566c565b60405161ffff909116815260200160405180910390a45080612676816155cd565b915050612501565b60006001600160e01b03198216633d817cff60e01b14806126af57506001600160e01b031982166352d1902d60e01b145b8061081557506301ffc9a760e01b6001600160e01b0319831614610815565b6000600080516020615e128339815191525b546001600160a01b0316919050565b60007fb53127684a568b3173ae13b9f8a6016e243e63b6e8ee1178d6a717850b5d61036126e0565b6127248585858585613f7e565b5050505050565b6002546040805163172cb29d60e11b81523060048201526001600160e01b03198416602482015233604482015290516000926001600160a01b031691632e59653a916064808301926020929190829003018187875af1158015612792573d6000803e3d6000fd5b505050506040513d601f19601f820116820180604052508101906108159190615abb565b6000818152602083905260408120819060018082015460ff1660038111156127e0576127e0614db2565b036127ff5750506040805183815260208101859052209050600161280a565b600019925060009150505b9250929050565b606061081582614147565b60008080808080306001600160a01b031663a304e3536040518163ffffffff1660e01b8152600401602060405180830381865afa158015612861573d6000803e3d6000fd5b505050506040513d601f19601f820116820180604052508101906128859190615adc565b600181111561289657612896614db2565b146128b35760405162461bcd60e51b8152600401610863906154c6565b60006128bf8880615af9565b9050116129045760405162461bcd60e51b8152602060048201526013602482015272496c6c6567616c2050726f66696c654e616d6560681b6044820152606401610863565b60008061291460608a018a615af9565b905011156129a8574261292d60608a0160408b01615b3f565b6001600160401b0316116129775760405162461bcd60e51b815260206004820152601160248201527045787069726564205369676e617475726560781b6044820152606401610863565b6129a1887f9027b951cbdf8eff67da583391d218a57a89ec1ebfcb1c66da188e8531804d556141a3565b90506129ab565b50335b60006129bf6129ba8a80615af9565b614272565b6001600160e01b031989166000908152604a60205260408120549192506001600160a01b03909116906129f2828b6142a5565b905060006129ff856142d7565b60405163a66ce52f60e01b8152600481018690526024810184905260448101829052909150309063a66ce52f90606401600060405180830381600087803b158015612a4957600080fd5b505af1158015612a5d573d6000803e3d6000fd5b50505060008581526048602052604081209150612a7b604485614311565b919e919d50949b509099509397509295505050505050565b600081815260208390526040812060018082015460ff166003811115612abb57612abb614db2565b03612ad6576040805184815260208101869052209150612b69565b6000600182015460ff166003811115612af157612af1614db2565b03612b2e5760405162461bcd60e51b815260206004820152600d60248201526c13525108139bdd08119bdd5b99609a1b6044820152606401610863565b60405162461bcd60e51b815260206004820152601060248201526f125b1b1959d85b081352510814db1bdd60821b6044820152606401610863565b5092915050565b6000818152600183016020526040812054151561103b565b8015612bfb57612b9b6020840184615b68565b63ffffffff168263ffffffff161015612bf65760405162461bcd60e51b815260206004820152601b60248201527f496c6c6567616c204d656d62657252656769737465724c696d697400000000006044820152606401610863565b612c62565b612c086020840184615b68565b845463ffffffff91821691161015612c625760405162461bcd60e51b815260206004820152601b60248201527f496c6c6567616c204d656d62657252656769737465724c696d697400000000006044820152606401610863565b612c726040840160208501615b68565b845463ffffffff9182166401000000009091049091161015612cd65760405162461bcd60e51b815260206004820152601960248201527f496c6c6567616c20526f6c6552656769737465724c696d6974000000000000006044820152606401610863565b612ce66060840160408501615b68565b845463ffffffff918216680100000000000000009091049091161015612d4e5760405162461bcd60e51b815260206004820152601960248201527f496c6c6567616c205479706552656769737465724c696d6974000000000000006044820152606401610863565b612d5e6080840160608501615b68565b845463ffffffff918216600160601b9091049091161015612dc15760405162461bcd60e51b815260206004820152601d60248201527f496c6c6567616c2046756e6374696f6e52656769737465724c696d69740000006044820152606401610863565b612dd160a0840160808501615b68565b845463ffffffff918216600160801b9091049091161015612e345760405162461bcd60e51b815260206004820152601c60248201527f496c6c6567616c20436f6e7465787452656769737465724c696d6974000000006044820152606401610863565b612e4460c0840160a0850161566c565b845461ffff918216600160a01b9091049091161015612ea55760405162461bcd60e51b815260206004820152601a60248201527f496c6c6567616c205265616c6d52656769737465724c696d69740000000000006044820152606401610863565b612eb560e0840160c0850161566c565b845461ffff918216600160b01b9091049091161015612f165760405162461bcd60e51b815260206004820152601b60248201527f496c6c6567616c20446f6d61696e52656769737465724c696d697400000000006044820152606401610863565b612f27610100840160e0850161566c565b845461ffff918216600160c01b9091049091161015612f885760405162461bcd60e51b815260206004820152601b60248201527f496c6c6567616c20506f6c69637952656769737465724c696d697400000000006044820152606401610863565b50505050565b6000612fa8612fa360a0880160808901614d2f565b6142d7565b905060008082815260208990526040902060010154610100900460ff166003811115612fd657612fd6614db2565b146130135760405162461bcd60e51b815260206004820152600d60248201526c105b1c9958591e48115e1a5cdd609a1b6044820152606401610863565b60006130238860208901356143ec565b90506002600182015462010000900460ff16600381111561304657613046614db2565b101561308d5760405162461bcd60e51b8152602060048201526016602482015275496c6c6567616c20526f6c6520557064617461626c6560501b6044820152606401610863565b600581015462ffffff6301000000820481169116116130e15760405162461bcd60e51b815260206004820152601060248201526f24b63632b3b0b6102932b3b4b9ba32b960811b6044820152606401610863565b60006130fa82600301548a6144c990919063ffffffff16565b90506002600182015462010000900460ff16600381111561311d5761311d614db2565b10156131645760405162461bcd60e51b8152602060048201526016602482015275496c6c6567616c205479706520557064617461626c6560501b6044820152606401610863565b60006131798a8985600001600001548a6137d4565b9050600081600781111561318f5761318f614db2565b1461319d5761319d81613869565b506040516020016131ad9061556e565b604051602081830303815290604052805190602001208260030154036131dc576131da60048a01846145a0565b505b6000838152600582810160209081526040909220918a013590915582018054600191906003906132199084906301000000900462ffffff16615b85565b92506101000a81548162ffffff021916908362ffffff160217905550600061324a848b6145ac90919063ffffffff16565b9050600060498161326160a08d0160808e01614d2f565b6001600160a01b0316815260208101919091526040016000208054909150156132bf5760405162461bcd60e51b815260206004820152601060248201526f141048105b1c9958591e48115e1a5cdd60821b6044820152606401610863565b8054600181018255600082815260209020018790558935156133be5760018a35600090815260208d9052604090206001015460ff16600381111561330557613305614db2565b1161334c5760405162461bcd60e51b8152602060048201526017602482015276496c6c6567616c2041646d696e204167656e745479706560481b6044820152606401610863565b600061337e8c8b6040516020016133629061556e565b604051602081830303815290604052805190602001208c6137d4565b9050600081600781111561339457613394614db2565b146133b457806040516345eeb27b60e01b81526004016108639190615ba1565b50893582556133e8565b6040516020016133cd9061556e565b60408051601f19818403018152919052805160209091012082555b60018201805462ffffff19166202030117905561340b60a08b0160808c01614d2f565b6002830180546001600160a01b0319166001600160a01b039290921691909117905560038401546134409060048401906145a0565b50600161345360608c0160408d01615bb5565b60020b121561347157600a8b0154600160981b900461ffff16613481565b61348160608b0160408c01615bb5565b60028301805461ffff92909216600160b01b0261ffff60b01b1990921691909117905560006134b660808c0160608d01615bb5565b60020b12156134d457600a8b0154600160781b900461ffff166134e4565b6134e460808b0160608c01615bb5565b60028301805461ffff92909216600160a01b0261ffff60a01b1990921691909117905560a08a016003830161351982826156b5565b9050508487876001600160a01b03167f86748736c74f394188dc72d3382b3eb515228dffd025e64c52cdeddfc4505e6b8d6020013586600001600001548f60a00160405161356993929190615bd8565b60405180910390a45050505050505050505050565b6135866126ce565b6001600160a01b0316816001600160a01b0316036135d05760405162461bcd60e51b8152602060048201526007602482015266125b1b1959d85b60ca1b6044820152606401610863565b60006135e2637147855d60e01b61272b565b905060008160138111156135f8576135f8614db2565b146136185780604051637f0911d160e01b8152600401610863919061553d565b5050565b60607f4910fdfa16fed3260ed0e7147f7cc6da11a60208b5b9406d12a635614ffd91435460ff16156136665761365184614612565b5060408051600081526020810190915261103b565b600080516020615e1283398151915260001b846001600160a01b03166352d1902d6040518163ffffffff1660e01b8152600401602060405180830381865afa1580156136b6573d6000803e3d6000fd5b505050506040513d601f19601f820116820180604052508101906136da9190615bf4565b146137165760405162461bcd60e51b815260206004820152600c60248201526b496c6c6567616c205555505360a01b6044820152606401610863565b6040516301ffc9a760e01b8152633d817cff60e01b60048201526001600160a01b038516906301ffc9a790602401602060405180830381865afa158015613761573d6000803e3d6000fd5b505050506040513d601f19601f820116820180604052508101906137859190615551565b6137c25760405162461bcd60e51b815260206004820152600e60248201526d496c6c6567616c204950726f787960901b6044820152606401610863565b6137cd848484614641565b905061103b565b604051635fbcdb4b60e01b81526004810185905260248101849052604481018390526064810182905260009073__$68dc14faf17200ec68c1b553d3c187a731$__90635fbcdb4b90608401602060405180830381865af415801561383c573d6000803e3d6000fd5b505050506040513d601f19601f820116820180604052508101906138609190615c0d565b95945050505050565b600181600781111561387d5761387d614db2565b0361389b5760405163e15df99b60e01b815260040160405180910390fd5b60028160078111156138af576138af614db2565b036138cd5760405163c38331b560e01b815260040160405180910390fd5b60038160078111156138e1576138e1614db2565b036138ff5760405163dab65f4760e01b815260040160405180910390fd5b600481600781111561391357613913614db2565b0361393157604051633f4b20a160e11b815260040160405180910390fd5b600581600781111561394557613945614db2565b03613963576040516308fa537360e01b815260040160405180910390fd5b600681600781111561397757613977614db2565b036139955760405163ae0903a160e01b815260040160405180910390fd5b60078160078111156139a9576139a9614db2565b036139c75760405163d59825eb60e01b815260040160405180910390fd5b60405162461bcd60e51b815260206004820152600b60248201526a2ab735b737bbb71022a92960a91b6044820152606401610863565b50565b600061103b83836146a7565b6000805b613a1c86600401613f74565b81108015613a2a5750601081105b15613c3b57613a3c600487018261479a565b91506000613a4a88846144c9565b90506002600182015462010000900460ff166003811115613a6d57613a6d614db2565b1015613ab45760405162461bcd60e51b8152602060048201526016602482015275496c6c6567616c205479706520557064617461626c6560501b6044820152606401610863565b600086815260058201602052604081205490613ad08a836143ec565b90506002600182015462010000900460ff166003811115613af357613af3614db2565b1015613b3a5760405162461bcd60e51b8152602060048201526016602482015275496c6c6567616c20526f6c6520557064617461626c6560501b6044820152606401610863565b60058101546301000000900462ffffff16613b8d5760405162461bcd60e51b8152602060048201526013602482015272125b1b1959d85b0813595b58995c90dbdd5b9d606a1b6044820152606401610863565b6005808201805460001962ffffff6301000000808404821692909201160265ffffff0000001990911617905560008981529084016020526040812055613bd660048a0186613a00565b508787876001600160a01b03167fb75b8559833a48b15656ede5a296ceb3b02db111105c6525d5c458ff92a0798d8589604051613c1d929190918252602082015260400190565b60405180910390a45050508080613c33906155cd565b915050613a10565b50613c4885600401613f74565b600003613d68576040516329b8ed3160e11b8152604460048201819052602482018790528101849052606481018290526001608482015273__$68dc14faf17200ec68c1b553d3c187a731$__90635371da629060a40160006040518083038186803b158015613cb657600080fd5b505af4158015613cca573d6000803e3d6000fd5b5050600080885560018801805462ffffff191690556002880180546001600160c01b03191690556003880180546001600160d01b031916905560048801925090508181613d178282614bfa565b505050508383836001600160a01b03167f6d56f35d3e32855e7d2e0ed53e80d422065dd4aeb0a18e70ca897ccf89301d9a6001604051613d5b911515815260200190565b60405180910390a4610a49565b8383836001600160a01b03167f6d56f35d3e32855e7d2e0ed53e80d422065dd4aeb0a18e70ca897ccf89301d9a6000604051613da8911515815260200190565b60405180910390a4505050505050565b600080613dc58685612a93565b90506002600182015462010000900460ff166003811115613de857613de8614db2565b1015613e065760405162461bcd60e51b8152600401610863906154e8565b6000613e1b87878460000160000154876137d4565b90506000816007811115613e3157613e31614db2565b14613e3f57613e3f81613869565b5095945050505050565b7fb53127684a568b3173ae13b9f8a6016e243e63b6e8ee1178d6a717850b5d610380546001600160a01b0383166001600160a01b031990911681179091556040805191825251309133917f63fdbed5f2909ec44e3becc51e9d29654ce1447747914e8a6ebc019e7f640b8b9181900360200190a350565b60007f8b73c3c69bb8fe3d512ecc4cf759cc79239f7b179b0ffacaa9a75d522b39400f6000604051602001613ef59190615c2e565b604051602081830303815290604052805190602001206001604051602001613f1d9190615c2e565b60408051601f1981840301815282825280516020918201209083019490945281019190915260608101919091524660808201523060a082015260c00160405160208183030381529060405280519060200120905090565b6000610815825490565b604e5462010000900460ff16613fd65760405162461bcd60e51b815260206004820152601960248201527f436f6e7472616374204e6f7420496e697469616c697a696e67000000000000006044820152606401610863565b6000613fe3858783615cea565b506001613ff1838583615cea565b506001600160a01b03811630146140d7576001600160a01b0381163b6140295760405162461bcd60e51b815260040161086390615513565b6040516301ffc9a760e01b81526331501c3960e01b60048201526001600160a01b038216906301ffc9a790602401602060405180830381865afa158015614074573d6000803e3d6000fd5b505050506040513d601f19601f820116820180604052508101906140989190615551565b6140d25760405162461bcd60e51b815260206004820152600b60248201526a125b1b1959d85b081050d360aa1b6044820152606401610863565b614123565b6140e76331501c3960e01b6107f0565b6141235760405162461bcd60e51b815260206004820152600d60248201526c139bdd0814dd5c1c1bdc9d1959609a1b6044820152606401610863565b600280546001600160b01b0319166001600160a01b03831617905561272433613e49565b60608160000180548060200260200160405190810160405280929190818152602001828054801561419757602002820191906000526020600020905b815481526020019060010190808311614183575b50505050509050919050565b600061103b6141b56060850185615af9565b8080601f01602080910402602001604051908101604052809392919081815260200183838082843760009201919091525061426d92508691506141fd90506129ba8880615af9565b61420d6040890160208a01614d2f565b61421d60608a0160408b01615b3f565b6001600160401b031660408051602080820196909652808201949094526001600160a01b039290921660608401526080808401919091528151808403909101815260a09092019052805191012090565b6147a6565b60008282604051602001614287929190615da9565b60405160208183030381529060405280519060200120905092915050565b6040516001600160601b0319606084901b1660208201526001600160e01b031982166034820152600090603801614287565b6040516001600160601b0319606083901b166020820152600090603401604051602081830303815290604052805190602001209050919050565b600081815260018084016020526040822090600182015460ff16600581111561433c5761433c614db2565b036143595760408051848152600186016020820152209150612b69565b6000600182015460ff16600581111561437457614374614db2565b036143b15760405162461bcd60e51b815260206004820152600d60248201526c11925108139bdd08119bdd5b99609a1b6044820152606401610863565b60405162461bcd60e51b815260206004820152601060248201526f125b1b195859db081192510814db1bdd60821b6044820152606401610863565b60008181526020839052604081206002600182015460ff16600381111561441557614415614db2565b03614430576040805184815260208101869052209150612b69565b6000600182015460ff16600381111561444b5761444b614db2565b0361448b5760405162461bcd60e51b815260206004820152601060248201526f149bdb19525908139bdd08119bdd5b9960821b6044820152606401610863565b60405162461bcd60e51b8152602060048201526013602482015272125b1b1959d85b08149bdb1952590814db1bdd606a1b6044820152606401610863565b60008181526020839052604081206003600182015460ff1660038111156144f2576144f2614db2565b0361450d576040805184815260208101869052209150612b69565b6000600182015460ff16600381111561452857614528614db2565b036145655760405162461bcd60e51b815260206004820152600d60248201526c15125108139bdd08119bdd5b99609a1b6044820152606401610863565b60405162461bcd60e51b815260206004820152601060248201526f125b1b1959d85b081512510814db1bdd60821b6044820152606401610863565b600061103b838361481b565b600081815260208390526040812081600182015460ff1660038111156145d4576145d4614db2565b14806145f7575060018082015460ff1660038111156145f5576145f5614db2565b145b15612b2e576040805184815260208101869052209150612b69565b600080516020615e1283398151915280546001600160a01b0319166001600160a01b0392909216919091179055565b606061464c8461486a565b6000835111806146595750815b1561468c576137cd84846040518060400160405280600b81526020016a10d85b1b0811985a5b195960aa1b8152506148ae565b60408051600080825260208201909252905b50949350505050565b600081815260018301602052604081205480156147905760006146cb600183615db9565b85549091506000906146df90600190615db9565b90508181146147445760008660000182815481106146ff576146ff6155a1565b9060005260206000200154905080876000018481548110614722576147226155a1565b6000918252602080832090910192909255918252600188019052604090208390555b855486908061475557614755615dcc565b600190038181906000526020600020016000905590558560010160008681526020019081526020016000206000905560019350505050610815565b6000915050610815565b600061103b8383614972565b6000806147b28361499c565b90506000806147c18387614a09565b909250905060008160048111156147da576147da614db2565b1461469e5760405162461bcd60e51b8152602060048201526011602482015270496c6c6567616c205369676e617475726560781b6044820152606401610863565b600081815260018301602052604081205461486257508154600181810184556000848152602080822090930184905584548482528286019093526040902091909155610815565b506000610815565b61487381614612565b6040516001600160a01b03821690309033907f8ee0f2bd29c0e6a975c3cc2e47cf2e01b5f23a9a8a02e0ed6a5a070269de3d2d90600090a450565b60606001600160a01b0384163b6149075760405162461bcd60e51b815260206004820152601860248201527f496c6c6567616c20436f6e7472616374204164647265737300000000000000006044820152606401610863565b600080856001600160a01b0316856040516149229190615de2565b600060405180830381855af49150503d806000811461495d576040519150601f19603f3d011682016040523d82523d6000602084013e614962565b606091505b5091509150610e24828286614a74565b6000826000018281548110614989576149896155a1565b9060005260206000200154905092915050565b6000610815306001600160a01b031663f698da256040518163ffffffff1660e01b8152600401602060405180830381865afa1580156149df573d6000803e3d6000fd5b505050506040513d601f19601f82011682018060405250810190614a039190615bf4565b83614aad565b6000808251604103614a3f5760208301516040840151606085015160001a614a3387828585614ad4565b9450945050505061280a565b8251604003614a685760208301516040840151614a5d868383614bc1565b93509350505061280a565b5060009050600261280a565b60608315614a8357508161103b565b825115614a935782518084602001fd5b8160405162461bcd60e51b81526004016108639190615065565b60405161190160f01b60208201526022810183905260428101829052600090606201614287565b6000807f7fffffffffffffffffffffffffffffff5d576e7357a4501ddfe92f46681b20a0831115614b0b5750600090506003614bb8565b8460ff16601b14158015614b2357508460ff16601c14155b15614b345750600090506004614bb8565b6040805160008082526020820180845289905260ff881692820192909252606081018690526080810185905260019060a0016020604051602081039080840390855afa158015614b88573d6000803e3d6000fd5b5050604051601f1901519150506001600160a01b038116614bb157600060019250925050614bb8565b9150600090505b94509492505050565b6000806001600160ff1b03831681614bde60ff86901c601b615dfe565b9050614bec87828885614ad4565b935093505050935093915050565b50805460008255906000526020600020908101906139fd91905b80821115614c285760008155600101614c14565b5090565b600060208284031215614c3e57600080fd5b81356001600160e01b03198116811461103b57600080fd5b60008083601f840112614c6857600080fd5b5081356001600160401b03811115614c7f57600080fd5b60208301915083602082850101111561280a57600080fd5b6001600160a01b03811681146139fd57600080fd5b600080600080600060608688031215614cc457600080fd5b85356001600160401b0380821115614cdb57600080fd5b614ce789838a01614c56565b90975095506020880135915080821115614d0057600080fd5b50614d0d88828901614c56565b9094509250506040860135614d2181614c97565b809150509295509295909350565b600060208284031215614d4157600080fd5b813561103b81614c97565b60008060408385031215614d5f57600080fd5b50508035926020909101359150565b6020808252825182820181905260009190848201906040850190845b81811015614da657835183529284019291840191600101614d8a565b50909695505050505050565b634e487b7160e01b600052602160045260246000fd5b600281106139fd576139fd614db2565b60208101614de583614dc8565b91905290565b600060808284031215614dfd57600080fd5b50919050565b600080600060408486031215614e1857600080fd5b83356001600160401b0380821115614e2f57600080fd5b614e3b87838801614deb565b94506020860135915080821115614e5157600080fd5b818601915086601f830112614e6557600080fd5b813581811115614e7457600080fd5b8760206101a083028501011115614e8a57600080fd5b6020830194508093505050509250925092565b600080600060608486031215614eb257600080fd5b83359250602084013591506040840135614ecb81614c97565b809150509250925092565b634e487b7160e01b600052604160045260246000fd5b60405161014081016001600160401b0381118282101715614f0f57614f0f614ed6565b60405290565b604051601f8201601f191681016001600160401b0381118282101715614f3d57614f3d614ed6565b604052919050565b80151581146139fd57600080fd5b8035610d5a81614f45565b600080600060608486031215614f7357600080fd5b8335614f7e81614c97565b92506020848101356001600160401b0380821115614f9b57600080fd5b818701915087601f830112614faf57600080fd5b813581811115614fc157614fc1614ed6565b614fd3601f8201601f19168501614f15565b91508082528884828501011115614fe957600080fd5b808484018584013760008482840101525080945050505061500c60408501614f53565b90509250925092565b60005b83811015615030578181015183820152602001615018565b50506000910152565b60008151808452615051816020860160208601615015565b601f01601f19169290920160200192915050565b60208152600061103b6020830184615039565b60008060006040848603121561508d57600080fd5b83356001600160401b03808211156150a457600080fd5b6150b087838801614deb565b945060208601359150808211156150c657600080fd5b818601915086601f8301126150da57600080fd5b8135818111156150e957600080fd5b8760208260051b8501011115614e8a57600080fd5b60008083601f84011261511057600080fd5b5081356001600160401b0381111561512757600080fd5b6020830191508360208260061b850101111561280a57600080fd5b60008060006040848603121561515757600080fd5b83356001600160401b038082111561516e57600080fd5b61517a87838801614deb565b9450602086013591508082111561519057600080fd5b5061519d868287016150fe565b9497909650939450505050565b6000806000606084860312156151bf57600080fd5b505081359360208301359350604090920135919050565b600080604083850312156151e957600080fd5b8235915060208301356151fb81614c97565b809150509250929050565b60008060006040848603121561521b57600080fd5b83356001600160401b038082111561523257600080fd5b61523e87838801614deb565b9450602086013591508082111561525457600080fd5b818601915086601f83011261526857600080fd5b81358181111561527757600080fd5b87602061012083028501011115614e8a57600080fd5b63ffffffff8082511683528060208301511660208401528060408301511660408401528060608301511660608401528060808301511660808401525060a081015161ffff80821660a08501528060c08401511660c0850152505060e08101516152fc60e084018261ffff169052565b505050565b600481106139fd576139fd614db2565b61531a81615301565b9052565b81518152602080830151610220830191615342908401826001600160a01b03169052565b506040830151615358604084018261ffff169052565b50606083015161536e606084018261ffff169052565b506080830151615384608084018261ffff169052565b5060a083015161539760a084018261528d565b5060c08301516153ab6101a0840182615311565b5060e08301516153bf6101c0840182615311565b506101008301516153d46101e0840182615311565b50610120830151612b69610200840182615311565b600281106139fd57600080fd5b60006020828403121561540857600080fd5b813561103b816153e9565b6020808252600c908201526b125b1b1959d85b0810d85b1b60a21b604082015260600190565b6020808252600c908201526b125b9d985b1a590810d85b1b60a21b604082015260600190565b81835281816020850137506000828201602090810191909152601f909101601f19169091010190565b60608152600061549c60608301878961545f565b82810360208401526154af81868861545f565b91505061ffff831660408301529695505050505050565b60208082526008908201526714995a9958dd195960c21b604082015260600190565b602080825260119082015270496c6c6567616c20557064617461626c6560781b604082015260600190565b60208082526010908201526f125b1b1959d85b0810dbdb9d1c9858dd60821b604082015260600190565b6020810160148310614de557614de5614db2565b60006020828403121561556357600080fd5b815161103b81614f45565b7f545950452e4c4956454c595f50524f46494c452e4c4956454c595f4d415354458152602960f91b602082015260210190565b634e487b7160e01b600052603260045260246000fd5b634e487b7160e01b600052601160045260246000fd5b6000600182016155df576155df6155b7565b5060010190565b600181811c908216806155fa57607f821691505b602082108103614dfd57634e487b7160e01b600052602260045260246000fd5b600481106139fd57600080fd5b60006020828403121561563957600080fd5b813561103b8161561a565b60208101614de583615301565b61ffff811681146139fd57600080fd5b8035610d5a81615651565b60006020828403121561567e57600080fd5b813561103b81615651565b63ffffffff811681146139fd57600080fd5b6000813561081581615689565b6000813561081581615651565b81356156c081615689565b63ffffffff8116905081548163ffffffff19821617835560208401356156e581615689565b67ffffffff000000008160201b16836001600160401b0319841617178455505050604082013561571481615689565b81546bffffffff00000000000000001916604082901b6bffffffff0000000000000000161782555061576f61574b6060840161569b565b82805463ffffffff60601b191660609290921b63ffffffff60601b16919091179055565b6157a261577e6080840161569b565b82805463ffffffff60801b191660809290921b63ffffffff60801b16919091179055565b6157d16157b160a084016156a8565b82805461ffff60a01b191660a09290921b61ffff60a01b16919091179055565b6158006157e060c084016156a8565b82805461ffff60b01b191660b09290921b61ffff60b01b16919091179055565b61361861580f60e084016156a8565b82805461ffff60c01b191660c09290921b61ffff60c01b16919091179055565b8035610d5a81615689565b803561584581615689565b63ffffffff908116835260208201359061585e82615689565b908116602084015260408201359061587582615689565b908116604084015260608201359061588c82615689565b16606083015261589e6080820161582f565b63ffffffff1660808301526158b560a08201615661565b61ffff1660a08301526158ca60c08201615661565b61ffff1660c08301526158df60e08201615661565b61ffff811660e0840152505050565b6101008101610815828461583a565b8051610d5a81614c97565b8051610d5a81615651565b8051610d5a81615689565b600061010080838503121561593257600080fd5b604051908101906001600160401b038211818310171561595457615954614ed6565b816040528092508351915061596882615689565b81815261597760208501615913565b602082015261598860408501615913565b604082015261599960608501615913565b60608201526159aa60808501615913565b60808201526159bb60a08501615908565b60a08201526159cc60c08501615908565b60c08201526159dd60e08501615908565b60e0820152505092915050565b8051610d5a8161561a565b60006102208284031215615a0857600080fd5b615a10614eec565b82518152615a20602084016158fd565b6020820152615a3160408401615908565b6040820152615a4260608401615908565b6060820152615a5360808401615908565b6080820152615a658460a0850161591e565b60a0820152615a776101a084016159ea565b60c0820152615a896101c084016159ea565b60e0820152615a9b6101e084016159ea565b610100820152615aae61020084016159ea565b6101208201529392505050565b600060208284031215615acd57600080fd5b81516014811061103b57600080fd5b600060208284031215615aee57600080fd5b815161103b816153e9565b6000808335601e19843603018112615b1057600080fd5b8301803591506001600160401b03821115615b2a57600080fd5b60200191503681900382131561280a57600080fd5b600060208284031215615b5157600080fd5b81356001600160401b038116811461103b57600080fd5b600060208284031215615b7a57600080fd5b813561103b81615689565b62ffffff818116838216019080821115612b6957612b696155b7565b6020810160088310614de557614de5614db2565b600060208284031215615bc757600080fd5b81358060020b811461103b57600080fd5b8381526020810183905261014081016110d6604083018461583a565b600060208284031215615c0657600080fd5b5051919050565b600060208284031215615c1f57600080fd5b81516008811061103b57600080fd5b6000808354615c3c816155e6565b60018281168015615c545760018114615c6957615c98565b60ff1984168752821515830287019450615c98565b8760005260208060002060005b85811015615c8f5781548a820152908401908201615c76565b50505082870194505b50929695505050505050565b601f8211156152fc57600081815260208120601f850160051c81016020861015615ccb5750805b601f850160051c820191505b81811015610a4957828155600101615cd7565b6001600160401b03831115615d0157615d01614ed6565b615d1583615d0f83546155e6565b83615ca4565b6000601f841160018114615d495760008515615d315750838201355b600019600387901b1c1916600186901b178355612724565b600083815260209020601f19861690835b82811015615d7a5786850135825560209485019460019092019101615d5a565b5086821015615d975760001960f88860031b161c19848701351681555b505060018560011b0183555050505050565b8183823760009101908152919050565b81810381811115610815576108156155b7565b634e487b7160e01b600052603160045260246000fd5b60008251615df4818460208701615015565b9190910192915050565b80820180821115610815576108156155b756fe360894a13ba1a3210667c828492db98dca3e2076cc3735a920a3ca505d382bbca264697066735822122095c98a1ad9278af99ffa540399517327dea160b58ff914279ae3825c8c29ce3464736f6c63430008130033",
  "libraries": {
    "LProfileCommons": "0x7F11D5bb7c99667ac0E8851c6B72633d35244c6C"
  },
  "devdoc": {
    "author": "Sina Tadayon, https://github.com/SinaTadayon",
    "events": {
      "Initialized(address,address,address,string,string,uint16)": {
        "details": "Triggered when the contract has been initialized or reinitialized."
      },
      "ProxyLocalAdminUpdated(address,address,address)": {
        "details": "Emitted when the admin account has changed."
      }
    },
    "kind": "dev",
    "methods": {
      "proxiableUUID()": {
        "details": "Implementation of the ERC1822 {proxiableUUID} function. This returns the storage slot used by the implementation. It is used to validate that the this implementation remains valid after an upgrade. IMPORTANT: A proxy pointing at a proxiable contract should not be considered proxiable itself, because this risks bricking a proxy that upgrades to it, by delegating to itself until out of gas. Thus it is critical that this function revert if invoked through a proxy. This is guaranteed by the `notDelegated` modifier."
      },
      "supportsInterface(bytes4)": {
        "details": "See {IERC165-supportsInterface}."
      }
    },
    "title": "ACL Profile Member Manager Contract",
    "version": 1
  },
  "userdoc": {
    "kind": "user",
    "methods": {},
    "version": 1
  },
  "storageLayout": {
    "storage": [
      {
        "astId": 82229,
        "contract": "src/contracts/acl/profile/agent/ProfileMemberManager.sol:ProfileMemberManager",
        "label": "_contractName",
        "offset": 0,
        "slot": "0",
        "type": "t_string_storage"
      },
      {
        "astId": 82231,
        "contract": "src/contracts/acl/profile/agent/ProfileMemberManager.sol:ProfileMemberManager",
        "label": "_contractVersion",
        "offset": 0,
        "slot": "1",
        "type": "t_string_storage"
      },
      {
        "astId": 82233,
        "contract": "src/contracts/acl/profile/agent/ProfileMemberManager.sol:ProfileMemberManager",
        "label": "_accessControlManager",
        "offset": 0,
        "slot": "2",
        "type": "t_address"
      },
      {
        "astId": 82236,
        "contract": "src/contracts/acl/profile/agent/ProfileMemberManager.sol:ProfileMemberManager",
        "label": "_sstat",
        "offset": 20,
        "slot": "2",
        "type": "t_enum(ProxySafeModeStatus)82251"
      },
      {
        "astId": 82239,
        "contract": "src/contracts/acl/profile/agent/ProfileMemberManager.sol:ProfileMemberManager",
        "label": "_ustat",
        "offset": 21,
        "slot": "2",
        "type": "t_enum(ProxyUpdatabilityStatus)82254"
      },
      {
        "astId": 82244,
        "contract": "src/contracts/acl/profile/agent/ProfileMemberManager.sol:ProfileMemberManager",
        "label": "__reserved",
        "offset": 0,
        "slot": "3",
        "type": "t_array(t_uint256)64_storage"
      },
      {
        "astId": 10383,
        "contract": "src/contracts/acl/profile/agent/ProfileMemberManager.sol:ProfileMemberManager",
        "label": "_firstInit",
        "offset": 0,
        "slot": "67",
        "type": "t_bool"
      },
      {
        "astId": 10386,
        "contract": "src/contracts/acl/profile/agent/ProfileMemberManager.sol:ProfileMemberManager",
        "label": "_data",
        "offset": 0,
        "slot": "68",
        "type": "t_struct(DataCollection)10239_storage"
      },
      {
        "astId": 82432,
        "contract": "src/contracts/acl/profile/agent/ProfileMemberManager.sol:ProfileMemberManager",
        "label": "_initialized",
        "offset": 0,
        "slot": "78",
        "type": "t_uint16"
      },
      {
        "astId": 82435,
        "contract": "src/contracts/acl/profile/agent/ProfileMemberManager.sol:ProfileMemberManager",
        "label": "_initializing",
        "offset": 2,
        "slot": "78",
        "type": "t_bool"
      }
    ],
    "types": {
      "t_address": {
        "encoding": "inplace",
        "label": "address",
        "numberOfBytes": "20"
      },
      "t_array(t_bytes32)dyn_storage": {
        "base": "t_bytes32",
        "encoding": "dynamic_array",
        "label": "bytes32[]",
        "numberOfBytes": "32"
      },
      "t_array(t_uint256)64_storage": {
        "base": "t_uint256",
        "encoding": "inplace",
        "label": "uint256[64]",
        "numberOfBytes": "2048"
      },
      "t_bool": {
        "encoding": "inplace",
        "label": "bool",
        "numberOfBytes": "1"
      },
      "t_bytes32": {
        "encoding": "inplace",
        "label": "bytes32",
        "numberOfBytes": "32"
      },
      "t_bytes4": {
        "encoding": "inplace",
        "label": "bytes4",
        "numberOfBytes": "4"
      },
      "t_enum(ActivityStatus)11721": {
        "encoding": "inplace",
        "label": "enum IACLCommons.ActivityStatus",
        "numberOfBytes": "1"
      },
      "t_enum(AgentType)11716": {
        "encoding": "inplace",
        "label": "enum IACLCommons.AgentType",
        "numberOfBytes": "1"
      },
      "t_enum(AlterabilityStatus)11726": {
        "encoding": "inplace",
        "label": "enum IACLCommons.AlterabilityStatus",
        "numberOfBytes": "1"
      },
      "t_enum(PolicyType)11744": {
        "encoding": "inplace",
        "label": "enum IACLCommons.PolicyType",
        "numberOfBytes": "1"
      },
      "t_enum(ProxySafeModeStatus)82251": {
        "encoding": "inplace",
        "label": "enum IBaseProxy.ProxySafeModeStatus",
        "numberOfBytes": "1"
      },
      "t_enum(ProxyUpdatabilityStatus)82254": {
        "encoding": "inplace",
        "label": "enum IBaseProxy.ProxyUpdatabilityStatus",
        "numberOfBytes": "1"
      },
      "t_enum(ScopeType)11733": {
        "encoding": "inplace",
        "label": "enum IACLCommons.ScopeType",
        "numberOfBytes": "1"
      },
      "t_mapping(t_address,t_struct(FacetEntity)11945_storage)": {
        "encoding": "mapping",
        "key": "t_address",
        "label": "mapping(address => struct IACLCommons.FacetEntity)",
        "numberOfBytes": "32",
        "value": "t_struct(FacetEntity)11945_storage"
      },
      "t_mapping(t_address,t_struct(ProfileAccount)12018_storage)": {
        "encoding": "mapping",
        "key": "t_address",
        "label": "mapping(address => struct IACLCommons.ProfileAccount)",
        "numberOfBytes": "32",
        "value": "t_struct(ProfileAccount)12018_storage"
      },
      "t_mapping(t_bytes32,t_bytes32)": {
        "encoding": "mapping",
        "key": "t_bytes32",
        "label": "mapping(bytes32 => bytes32)",
        "numberOfBytes": "32",
        "value": "t_bytes32"
      },
      "t_mapping(t_bytes32,t_struct(BaseAgent)11756_storage)": {
        "encoding": "mapping",
        "key": "t_bytes32",
        "label": "mapping(bytes32 => struct IACLCommons.BaseAgent)",
        "numberOfBytes": "32",
        "value": "t_struct(BaseAgent)11756_storage"
      },
      "t_mapping(t_bytes32,t_struct(BaseScope)11770_storage)": {
        "encoding": "mapping",
        "key": "t_bytes32",
        "label": "mapping(bytes32 => struct IACLCommons.BaseScope)",
        "numberOfBytes": "32",
        "value": "t_struct(BaseScope)11770_storage"
      },
      "t_mapping(t_bytes32,t_struct(PolicyEntity)11793_storage)": {
        "encoding": "mapping",
        "key": "t_bytes32",
        "label": "mapping(bytes32 => struct IACLCommons.PolicyEntity)",
        "numberOfBytes": "32",
        "value": "t_struct(PolicyEntity)11793_storage"
      },
      "t_mapping(t_bytes32,t_struct(ProfileEntity)12059_storage)": {
        "encoding": "mapping",
        "key": "t_bytes32",
        "label": "mapping(bytes32 => struct IACLCommons.ProfileEntity)",
        "numberOfBytes": "32",
        "value": "t_struct(ProfileEntity)12059_storage"
      },
      "t_mapping(t_bytes32,t_uint256)": {
        "encoding": "mapping",
        "key": "t_bytes32",
        "label": "mapping(bytes32 => uint256)",
        "numberOfBytes": "32",
        "value": "t_uint256"
      },
      "t_mapping(t_bytes4,t_address)": {
        "encoding": "mapping",
        "key": "t_bytes4",
        "label": "mapping(bytes4 => address)",
        "numberOfBytes": "32",
        "value": "t_address"
      },
      "t_string_storage": {
        "encoding": "bytes",
        "label": "string",
        "numberOfBytes": "32"
      },
      "t_struct(AddressSet)79783_storage": {
        "encoding": "inplace",
        "label": "struct LEnumerableSet.AddressSet",
        "members": [
          {
            "astId": 79782,
            "contract": "src/contracts/acl/profile/agent/ProfileMemberManager.sol:ProfileMemberManager",
            "label": "_inner",
            "offset": 0,
            "slot": "0",
            "type": "t_struct(Set)79482_storage"
          }
        ],
        "numberOfBytes": "64"
      },
      "t_struct(BaseAgent)11756_storage": {
        "encoding": "inplace",
        "label": "struct IACLCommons.BaseAgent",
        "members": [
          {
            "astId": 11746,
            "contract": "src/contracts/acl/profile/agent/ProfileMemberManager.sol:ProfileMemberManager",
            "label": "adminId",
            "offset": 0,
            "slot": "0",
            "type": "t_bytes32"
          },
          {
            "astId": 11749,
            "contract": "src/contracts/acl/profile/agent/ProfileMemberManager.sol:ProfileMemberManager",
            "label": "atype",
            "offset": 0,
            "slot": "1",
            "type": "t_enum(AgentType)11716"
          },
          {
            "astId": 11752,
            "contract": "src/contracts/acl/profile/agent/ProfileMemberManager.sol:ProfileMemberManager",
            "label": "acstat",
            "offset": 1,
            "slot": "1",
            "type": "t_enum(ActivityStatus)11721"
          },
          {
            "astId": 11755,
            "contract": "src/contracts/acl/profile/agent/ProfileMemberManager.sol:ProfileMemberManager",
            "label": "alstat",
            "offset": 2,
            "slot": "1",
            "type": "t_enum(AlterabilityStatus)11726"
          }
        ],
        "numberOfBytes": "64"
      },
      "t_struct(BaseScope)11770_storage": {
        "encoding": "inplace",
        "label": "struct IACLCommons.BaseScope",
        "members": [
          {
            "astId": 11758,
            "contract": "src/contracts/acl/profile/agent/ProfileMemberManager.sol:ProfileMemberManager",
            "label": "adminId",
            "offset": 0,
            "slot": "0",
            "type": "t_bytes32"
          },
          {
            "astId": 11761,
            "contract": "src/contracts/acl/profile/agent/ProfileMemberManager.sol:ProfileMemberManager",
            "label": "stype",
            "offset": 0,
            "slot": "1",
            "type": "t_enum(ScopeType)11733"
          },
          {
            "astId": 11764,
            "contract": "src/contracts/acl/profile/agent/ProfileMemberManager.sol:ProfileMemberManager",
            "label": "acstat",
            "offset": 1,
            "slot": "1",
            "type": "t_enum(ActivityStatus)11721"
          },
          {
            "astId": 11767,
            "contract": "src/contracts/acl/profile/agent/ProfileMemberManager.sol:ProfileMemberManager",
            "label": "alstat",
            "offset": 2,
            "slot": "1",
            "type": "t_enum(AlterabilityStatus)11726"
          },
          {
            "astId": 11769,
            "contract": "src/contracts/acl/profile/agent/ProfileMemberManager.sol:ProfileMemberManager",
            "label": "referredByAgent",
            "offset": 3,
            "slot": "1",
            "type": "t_uint32"
          }
        ],
        "numberOfBytes": "64"
      },
      "t_struct(Bytes32Set)79676_storage": {
        "encoding": "inplace",
        "label": "struct LEnumerableSet.Bytes32Set",
        "members": [
          {
            "astId": 79675,
            "contract": "src/contracts/acl/profile/agent/ProfileMemberManager.sol:ProfileMemberManager",
            "label": "_inner",
            "offset": 0,
            "slot": "0",
            "type": "t_struct(Set)79482_storage"
          }
        ],
        "numberOfBytes": "64"
      },
      "t_struct(DataCollection)10239_storage": {
        "encoding": "inplace",
        "label": "struct ACLStorage.DataCollection",
        "members": [
          {
            "astId": 10202,
            "contract": "src/contracts/acl/profile/agent/ProfileMemberManager.sol:ProfileMemberManager",
            "label": "agents",
            "offset": 0,
            "slot": "0",
            "type": "t_mapping(t_bytes32,t_struct(BaseAgent)11756_storage)"
          },
          {
            "astId": 10207,
            "contract": "src/contracts/acl/profile/agent/ProfileMemberManager.sol:ProfileMemberManager",
            "label": "scopes",
            "offset": 0,
            "slot": "1",
            "type": "t_mapping(t_bytes32,t_struct(BaseScope)11770_storage)"
          },
          {
            "astId": 10212,
            "contract": "src/contracts/acl/profile/agent/ProfileMemberManager.sol:ProfileMemberManager",
            "label": "policies",
            "offset": 0,
            "slot": "2",
            "type": "t_mapping(t_bytes32,t_struct(PolicyEntity)11793_storage)"
          },
          {
            "astId": 10216,
            "contract": "src/contracts/acl/profile/agent/ProfileMemberManager.sol:ProfileMemberManager",
            "label": "rolePolicyMap",
            "offset": 0,
            "slot": "3",
            "type": "t_mapping(t_bytes32,t_bytes32)"
          },
          {
            "astId": 10221,
            "contract": "src/contracts/acl/profile/agent/ProfileMemberManager.sol:ProfileMemberManager",
            "label": "profiles",
            "offset": 0,
            "slot": "4",
            "type": "t_mapping(t_bytes32,t_struct(ProfileEntity)12059_storage)"
          },
          {
            "astId": 10226,
            "contract": "src/contracts/acl/profile/agent/ProfileMemberManager.sol:ProfileMemberManager",
            "label": "profileAccounts",
            "offset": 0,
            "slot": "5",
            "type": "t_mapping(t_address,t_struct(ProfileAccount)12018_storage)"
          },
          {
            "astId": 10230,
            "contract": "src/contracts/acl/profile/agent/ProfileMemberManager.sol:ProfileMemberManager",
            "label": "selectors",
            "offset": 0,
            "slot": "6",
            "type": "t_mapping(t_bytes4,t_address)"
          },
          {
            "astId": 10235,
            "contract": "src/contracts/acl/profile/agent/ProfileMemberManager.sol:ProfileMemberManager",
            "label": "facets",
            "offset": 0,
            "slot": "7",
            "type": "t_mapping(t_address,t_struct(FacetEntity)11945_storage)"
          },
          {
            "astId": 10238,
            "contract": "src/contracts/acl/profile/agent/ProfileMemberManager.sol:ProfileMemberManager",
            "label": "facetSet",
            "offset": 0,
            "slot": "8",
            "type": "t_struct(AddressSet)79783_storage"
          }
        ],
        "numberOfBytes": "320"
      },
      "t_struct(FacetEntity)11945_storage": {
        "encoding": "inplace",
        "label": "struct IACLCommons.FacetEntity",
        "members": [
          {
            "astId": 11944,
            "contract": "src/contracts/acl/profile/agent/ProfileMemberManager.sol:ProfileMemberManager",
            "label": "subjectId",
            "offset": 0,
            "slot": "0",
            "type": "t_address"
          }
        ],
        "numberOfBytes": "32"
      },
      "t_struct(PolicyEntity)11793_storage": {
        "encoding": "inplace",
        "label": "struct IACLCommons.PolicyEntity",
        "members": [
          {
            "astId": 11772,
            "contract": "src/contracts/acl/profile/agent/ProfileMemberManager.sol:ProfileMemberManager",
            "label": "adminId",
            "offset": 0,
            "slot": "0",
            "type": "t_bytes32"
          },
          {
            "astId": 11774,
            "contract": "src/contracts/acl/profile/agent/ProfileMemberManager.sol:ProfileMemberManager",
            "label": "scopeId",
            "offset": 0,
            "slot": "1",
            "type": "t_bytes32"
          },
          {
            "astId": 11776,
            "contract": "src/contracts/acl/profile/agent/ProfileMemberManager.sol:ProfileMemberManager",
            "label": "name",
            "offset": 0,
            "slot": "2",
            "type": "t_string_storage"
          },
          {
            "astId": 11778,
            "contract": "src/contracts/acl/profile/agent/ProfileMemberManager.sol:ProfileMemberManager",
            "label": "roleLimit",
            "offset": 0,
            "slot": "3",
            "type": "t_uint16"
          },
          {
            "astId": 11780,
            "contract": "src/contracts/acl/profile/agent/ProfileMemberManager.sol:ProfileMemberManager",
            "label": "policyCode",
            "offset": 2,
            "slot": "3",
            "type": "t_uint8"
          },
          {
            "astId": 11783,
            "contract": "src/contracts/acl/profile/agent/ProfileMemberManager.sol:ProfileMemberManager",
            "label": "ptype",
            "offset": 3,
            "slot": "3",
            "type": "t_enum(PolicyType)11744"
          },
          {
            "astId": 11786,
            "contract": "src/contracts/acl/profile/agent/ProfileMemberManager.sol:ProfileMemberManager",
            "label": "acstat",
            "offset": 4,
            "slot": "3",
            "type": "t_enum(ActivityStatus)11721"
          },
          {
            "astId": 11789,
            "contract": "src/contracts/acl/profile/agent/ProfileMemberManager.sol:ProfileMemberManager",
            "label": "alstat",
            "offset": 5,
            "slot": "3",
            "type": "t_enum(AlterabilityStatus)11726"
          },
          {
            "astId": 11792,
            "contract": "src/contracts/acl/profile/agent/ProfileMemberManager.sol:ProfileMemberManager",
            "label": "roles",
            "offset": 0,
            "slot": "4",
            "type": "t_struct(Bytes32Set)79676_storage"
          }
        ],
        "numberOfBytes": "192"
      },
      "t_struct(ProfileAccount)12018_storage": {
        "encoding": "inplace",
        "label": "struct IACLCommons.ProfileAccount",
        "members": [
          {
            "astId": 12017,
            "contract": "src/contracts/acl/profile/agent/ProfileMemberManager.sol:ProfileMemberManager",
            "label": "profiles",
            "offset": 0,
            "slot": "0",
            "type": "t_array(t_bytes32)dyn_storage"
          }
        ],
        "numberOfBytes": "32"
      },
      "t_struct(ProfileEntity)12059_storage": {
        "encoding": "inplace",
        "label": "struct IACLCommons.ProfileEntity",
        "members": [
          {
            "astId": 12023,
            "contract": "src/contracts/acl/profile/agent/ProfileMemberManager.sol:ProfileMemberManager",
            "label": "agents",
            "offset": 0,
            "slot": "0",
            "type": "t_mapping(t_bytes32,t_struct(BaseAgent)11756_storage)"
          },
          {
            "astId": 12028,
            "contract": "src/contracts/acl/profile/agent/ProfileMemberManager.sol:ProfileMemberManager",
            "label": "scopes",
            "offset": 0,
            "slot": "1",
            "type": "t_mapping(t_bytes32,t_struct(BaseScope)11770_storage)"
          },
          {
            "astId": 12033,
            "contract": "src/contracts/acl/profile/agent/ProfileMemberManager.sol:ProfileMemberManager",
            "label": "policies",
            "offset": 0,
            "slot": "2",
            "type": "t_mapping(t_bytes32,t_struct(PolicyEntity)11793_storage)"
          },
          {
            "astId": 12037,
            "contract": "src/contracts/acl/profile/agent/ProfileMemberManager.sol:ProfileMemberManager",
            "label": "rolePolicyMap",
            "offset": 0,
            "slot": "3",
            "type": "t_mapping(t_bytes32,t_bytes32)"
          },
          {
            "astId": 12040,
            "contract": "src/contracts/acl/profile/agent/ProfileMemberManager.sol:ProfileMemberManager",
            "label": "admins",
            "offset": 0,
            "slot": "4",
            "type": "t_struct(Bytes32Set)79676_storage"
          },
          {
            "astId": 12042,
            "contract": "src/contracts/acl/profile/agent/ProfileMemberManager.sol:ProfileMemberManager",
            "label": "adminId",
            "offset": 0,
            "slot": "6",
            "type": "t_bytes32"
          },
          {
            "astId": 12044,
            "contract": "src/contracts/acl/profile/agent/ProfileMemberManager.sol:ProfileMemberManager",
            "label": "name",
            "offset": 0,
            "slot": "7",
            "type": "t_string_storage"
          },
          {
            "astId": 12046,
            "contract": "src/contracts/acl/profile/agent/ProfileMemberManager.sol:ProfileMemberManager",
            "label": "owner",
            "offset": 0,
            "slot": "8",
            "type": "t_address"
          },
          {
            "astId": 12049,
            "contract": "src/contracts/acl/profile/agent/ProfileMemberManager.sol:ProfileMemberManager",
            "label": "acstat",
            "offset": 20,
            "slot": "8",
            "type": "t_enum(ActivityStatus)11721"
          },
          {
            "astId": 12052,
            "contract": "src/contracts/acl/profile/agent/ProfileMemberManager.sol:ProfileMemberManager",
            "label": "alstat",
            "offset": 21,
            "slot": "8",
            "type": "t_enum(AlterabilityStatus)11726"
          },
          {
            "astId": 12055,
            "contract": "src/contracts/acl/profile/agent/ProfileMemberManager.sol:ProfileMemberManager",
            "label": "registerLimits",
            "offset": 0,
            "slot": "9",
            "type": "t_struct(ProfileRegisterLimit)11993_storage"
          },
          {
            "astId": 12058,
            "contract": "src/contracts/acl/profile/agent/ProfileMemberManager.sol:ProfileMemberManager",
            "label": "limits",
            "offset": 0,
            "slot": "10",
            "type": "t_struct(ProfileLimit)12014_storage"
          }
        ],
        "numberOfBytes": "352"
      },
      "t_struct(ProfileLimit)12014_storage": {
        "encoding": "inplace",
        "label": "struct IACLCommons.ProfileLimit",
        "members": [
          {
            "astId": 11995,
            "contract": "src/contracts/acl/profile/agent/ProfileMemberManager.sol:ProfileMemberManager",
            "label": "profileCallLimit",
            "offset": 0,
            "slot": "0",
            "type": "t_uint32"
          },
          {
            "astId": 11997,
            "contract": "src/contracts/acl/profile/agent/ProfileMemberManager.sol:ProfileMemberManager",
            "label": "contextLimit",
            "offset": 4,
            "slot": "0",
            "type": "t_uint32"
          },
          {
            "astId": 11999,
            "contract": "src/contracts/acl/profile/agent/ProfileMemberManager.sol:ProfileMemberManager",
            "label": "memberLimit",
            "offset": 8,
            "slot": "0",
            "type": "t_uint24"
          },
          {
            "astId": 12001,
            "contract": "src/contracts/acl/profile/agent/ProfileMemberManager.sol:ProfileMemberManager",
            "label": "realmLimit",
            "offset": 11,
            "slot": "0",
            "type": "t_uint16"
          },
          {
            "astId": 12003,
            "contract": "src/contracts/acl/profile/agent/ProfileMemberManager.sol:ProfileMemberManager",
            "label": "domainLimit",
            "offset": 13,
            "slot": "0",
            "type": "t_uint16"
          },
          {
            "astId": 12005,
            "contract": "src/contracts/acl/profile/agent/ProfileMemberManager.sol:ProfileMemberManager",
            "label": "memberCallLimit",
            "offset": 15,
            "slot": "0",
            "type": "t_uint16"
          },
          {
            "astId": 12007,
            "contract": "src/contracts/acl/profile/agent/ProfileMemberManager.sol:ProfileMemberManager",
            "label": "typeRoleLimit",
            "offset": 17,
            "slot": "0",
            "type": "t_uint16"
          },
          {
            "astId": 12009,
            "contract": "src/contracts/acl/profile/agent/ProfileMemberManager.sol:ProfileMemberManager",
            "label": "typeLimit",
            "offset": 19,
            "slot": "0",
            "type": "t_uint16"
          },
          {
            "astId": 12011,
            "contract": "src/contracts/acl/profile/agent/ProfileMemberManager.sol:ProfileMemberManager",
            "label": "policyRoleLimit",
            "offset": 21,
            "slot": "0",
            "type": "t_uint16"
          },
          {
            "astId": 12013,
            "contract": "src/contracts/acl/profile/agent/ProfileMemberManager.sol:ProfileMemberManager",
            "label": "functionLimit",
            "offset": 23,
            "slot": "0",
            "type": "t_uint8"
          }
        ],
        "numberOfBytes": "32"
      },
      "t_struct(ProfileRegisterLimit)11993_storage": {
        "encoding": "inplace",
        "label": "struct IACLCommons.ProfileRegisterLimit",
        "members": [
          {
            "astId": 11978,
            "contract": "src/contracts/acl/profile/agent/ProfileMemberManager.sol:ProfileMemberManager",
            "label": "memberRegisterLimit",
            "offset": 0,
            "slot": "0",
            "type": "t_uint32"
          },
          {
            "astId": 11980,
            "contract": "src/contracts/acl/profile/agent/ProfileMemberManager.sol:ProfileMemberManager",
            "label": "roleRegisterLimit",
            "offset": 4,
            "slot": "0",
            "type": "t_uint32"
          },
          {
            "astId": 11982,
            "contract": "src/contracts/acl/profile/agent/ProfileMemberManager.sol:ProfileMemberManager",
            "label": "typeRegisterLimit",
            "offset": 8,
            "slot": "0",
            "type": "t_uint32"
          },
          {
            "astId": 11984,
            "contract": "src/contracts/acl/profile/agent/ProfileMemberManager.sol:ProfileMemberManager",
            "label": "functionRegisterLimit",
            "offset": 12,
            "slot": "0",
            "type": "t_uint32"
          },
          {
            "astId": 11986,
            "contract": "src/contracts/acl/profile/agent/ProfileMemberManager.sol:ProfileMemberManager",
            "label": "contextRegisterLimit",
            "offset": 16,
            "slot": "0",
            "type": "t_uint32"
          },
          {
            "astId": 11988,
            "contract": "src/contracts/acl/profile/agent/ProfileMemberManager.sol:ProfileMemberManager",
            "label": "realmRegisterLimit",
            "offset": 20,
            "slot": "0",
            "type": "t_uint16"
          },
          {
            "astId": 11990,
            "contract": "src/contracts/acl/profile/agent/ProfileMemberManager.sol:ProfileMemberManager",
            "label": "domainRegisterLimit",
            "offset": 22,
            "slot": "0",
            "type": "t_uint16"
          },
          {
            "astId": 11992,
            "contract": "src/contracts/acl/profile/agent/ProfileMemberManager.sol:ProfileMemberManager",
            "label": "policyRegisterLimit",
            "offset": 24,
            "slot": "0",
            "type": "t_uint16"
          }
        ],
        "numberOfBytes": "32"
      },
      "t_struct(Set)79482_storage": {
        "encoding": "inplace",
        "label": "struct LEnumerableSet.Set",
        "members": [
          {
            "astId": 79477,
            "contract": "src/contracts/acl/profile/agent/ProfileMemberManager.sol:ProfileMemberManager",
            "label": "_values",
            "offset": 0,
            "slot": "0",
            "type": "t_array(t_bytes32)dyn_storage"
          },
          {
            "astId": 79481,
            "contract": "src/contracts/acl/profile/agent/ProfileMemberManager.sol:ProfileMemberManager",
            "label": "_indexes",
            "offset": 0,
            "slot": "1",
            "type": "t_mapping(t_bytes32,t_uint256)"
          }
        ],
        "numberOfBytes": "64"
      },
      "t_uint16": {
        "encoding": "inplace",
        "label": "uint16",
        "numberOfBytes": "2"
      },
      "t_uint24": {
        "encoding": "inplace",
        "label": "uint24",
        "numberOfBytes": "3"
      },
      "t_uint256": {
        "encoding": "inplace",
        "label": "uint256",
        "numberOfBytes": "32"
      },
      "t_uint32": {
        "encoding": "inplace",
        "label": "uint32",
        "numberOfBytes": "4"
      },
      "t_uint8": {
        "encoding": "inplace",
        "label": "uint8",
        "numberOfBytes": "1"
      }
    }
  }
}