{
  "address": "0x8a44e07358e206Bf6E110ed42E6D05f3d234E776",
  "abi": [
    {
      "inputs": [],
      "stateMutability": "nonpayable",
      "type": "constructor"
    },
    {
      "inputs": [
        {
          "internalType": "enum IACL.AuthorizationStatus",
          "name": "",
          "type": "uint8"
        }
      ],
      "name": "ACLActionForbidden",
      "type": "error"
    },
    {
      "inputs": [],
      "name": "ACLCallForbidden",
      "type": "error"
    },
    {
      "inputs": [],
      "name": "ACLContextActivityForbidden",
      "type": "error"
    },
    {
      "inputs": [],
      "name": "ACLContextNotFound",
      "type": "error"
    },
    {
      "inputs": [],
      "name": "ACLDomainActivityForbidden",
      "type": "error"
    },
    {
      "inputs": [],
      "name": "ACLDomainNotFound",
      "type": "error"
    },
    {
      "inputs": [],
      "name": "ACLFunctionActivityForbidden",
      "type": "error"
    },
    {
      "inputs": [],
      "name": "ACLFunctionNotFound",
      "type": "error"
    },
    {
      "inputs": [],
      "name": "ACLMemberActivityForbidden",
      "type": "error"
    },
    {
      "inputs": [],
      "name": "ACLMemberNotFound",
      "type": "error"
    },
    {
      "inputs": [],
      "name": "ACLPolicyForbidden",
      "type": "error"
    },
    {
      "inputs": [],
      "name": "ACLRealmActivityForbidden",
      "type": "error"
    },
    {
      "inputs": [],
      "name": "ACLRealmNotFound",
      "type": "error"
    },
    {
      "inputs": [],
      "name": "ACLRoleActivityForbidden",
      "type": "error"
    },
    {
      "inputs": [],
      "name": "ACLRoleNotFound",
      "type": "error"
    },
    {
      "inputs": [],
      "name": "ACLRoleScopeForbidden",
      "type": "error"
    },
    {
      "inputs": [],
      "name": "ACLTypeActivityForbidden",
      "type": "error"
    },
    {
      "inputs": [],
      "name": "ACLTypeNotFound",
      "type": "error"
    },
    {
      "inputs": [],
      "name": "ACLUnauthorized",
      "type": "error"
    },
    {
      "inputs": [],
      "name": "ACLUniverseActivityForbidden",
      "type": "error"
    },
    {
      "inputs": [],
      "name": "AdminAccessFunctionNotFound",
      "type": "error"
    },
    {
      "inputs": [],
      "name": "AdminAccessNotPermitted",
      "type": "error"
    },
    {
      "inputs": [],
      "name": "AdminAccessPolicyForbidden",
      "type": "error"
    },
    {
      "inputs": [],
      "name": "AdminAccessRoleActivityForbidden",
      "type": "error"
    },
    {
      "inputs": [],
      "name": "AdminAccessRoleNotFound",
      "type": "error"
    },
    {
      "inputs": [],
      "name": "AdminAccessTypeActivityForbidden",
      "type": "error"
    },
    {
      "inputs": [],
      "name": "AdminAccessTypeNotFound",
      "type": "error"
    },
    {
      "anonymous": false,
      "inputs": [
        {
          "indexed": true,
          "internalType": "address",
          "name": "sender",
          "type": "address"
        },
        {
          "indexed": true,
          "internalType": "address",
          "name": "proxy",
          "type": "address"
        },
        {
          "indexed": true,
          "internalType": "address",
          "name": "subject",
          "type": "address"
        },
        {
          "indexed": false,
          "internalType": "string",
          "name": "name",
          "type": "string"
        },
        {
          "indexed": false,
          "internalType": "string",
          "name": "version",
          "type": "string"
        },
        {
          "indexed": false,
          "internalType": "uint16",
          "name": "initCount",
          "type": "uint16"
        }
      ],
      "name": "Initialized",
      "type": "event"
    },
    {
      "anonymous": false,
      "inputs": [
        {
          "indexed": true,
          "internalType": "address",
          "name": "sender",
          "type": "address"
        },
        {
          "indexed": true,
          "internalType": "address",
          "name": "proxy",
          "type": "address"
        },
        {
          "indexed": false,
          "internalType": "address",
          "name": "acl",
          "type": "address"
        }
      ],
      "name": "ProxyAccessControlUpdated",
      "type": "event"
    },
    {
      "anonymous": false,
      "inputs": [
        {
          "indexed": true,
          "internalType": "address",
          "name": "sender",
          "type": "address"
        },
        {
          "indexed": true,
          "internalType": "address",
          "name": "proxy",
          "type": "address"
        },
        {
          "indexed": false,
          "internalType": "address",
          "name": "newAdmin",
          "type": "address"
        }
      ],
      "name": "ProxyLocalAdminUpdated",
      "type": "event"
    },
    {
      "anonymous": false,
      "inputs": [
        {
          "indexed": true,
          "internalType": "address",
          "name": "sender",
          "type": "address"
        },
        {
          "indexed": true,
          "internalType": "address",
          "name": "proxy",
          "type": "address"
        },
        {
          "indexed": false,
          "internalType": "enum IBaseProxy.ProxySafeModeStatus",
          "name": "sstat",
          "type": "uint8"
        }
      ],
      "name": "ProxySafeModeUpdated",
      "type": "event"
    },
    {
      "anonymous": false,
      "inputs": [
        {
          "indexed": true,
          "internalType": "address",
          "name": "sender",
          "type": "address"
        },
        {
          "indexed": true,
          "internalType": "address",
          "name": "proxy",
          "type": "address"
        },
        {
          "indexed": false,
          "internalType": "enum IBaseProxy.ProxyUpdatabilityStatus",
          "name": "ustat",
          "type": "uint8"
        }
      ],
      "name": "ProxyUpdatabilityUpdated",
      "type": "event"
    },
    {
      "anonymous": false,
      "inputs": [
        {
          "indexed": true,
          "internalType": "address",
          "name": "sender",
          "type": "address"
        },
        {
          "indexed": true,
          "internalType": "address",
          "name": "proxy",
          "type": "address"
        },
        {
          "indexed": true,
          "internalType": "address",
          "name": "newImplementation",
          "type": "address"
        }
      ],
      "name": "ProxyUpgraded",
      "type": "event"
    },
    {
      "anonymous": false,
      "inputs": [
        {
          "indexed": true,
          "internalType": "address",
          "name": "sender",
          "type": "address"
        },
        {
          "indexed": true,
          "internalType": "bytes32",
          "name": "realmId",
          "type": "bytes32"
        },
        {
          "indexed": false,
          "internalType": "enum IACLCommons.ActivityStatus",
          "name": "acstat",
          "type": "uint8"
        }
      ],
      "name": "RealmActivityUpdated",
      "type": "event"
    },
    {
      "anonymous": false,
      "inputs": [
        {
          "indexed": true,
          "internalType": "address",
          "name": "sender",
          "type": "address"
        },
        {
          "indexed": true,
          "internalType": "bytes32",
          "name": "realmId",
          "type": "bytes32"
        },
        {
          "indexed": true,
          "internalType": "bytes32",
          "name": "adminId",
          "type": "bytes32"
        }
      ],
      "name": "RealmAdminUpdated",
      "type": "event"
    },
    {
      "anonymous": false,
      "inputs": [
        {
          "indexed": true,
          "internalType": "address",
          "name": "sender",
          "type": "address"
        },
        {
          "indexed": true,
          "internalType": "bytes32",
          "name": "realmId",
          "type": "bytes32"
        },
        {
          "indexed": false,
          "internalType": "enum IACLCommons.AlterabilityStatus",
          "name": "alstat",
          "type": "uint8"
        }
      ],
      "name": "RealmAlterabilityUpdated",
      "type": "event"
    },
    {
      "anonymous": false,
      "inputs": [
        {
          "indexed": true,
          "internalType": "address",
          "name": "sender",
          "type": "address"
        },
        {
          "indexed": true,
          "internalType": "bytes32",
          "name": "realmId",
          "type": "bytes32"
        },
        {
          "indexed": false,
          "internalType": "uint32",
          "name": "contextLimit",
          "type": "uint32"
        }
      ],
      "name": "RealmContextLimitUpdated",
      "type": "event"
    },
    {
      "anonymous": false,
      "inputs": [
        {
          "indexed": true,
          "internalType": "address",
          "name": "sender",
          "type": "address"
        },
        {
          "indexed": true,
          "internalType": "bytes32",
          "name": "realmId",
          "type": "bytes32"
        },
        {
          "indexed": true,
          "internalType": "bytes32",
          "name": "contextId",
          "type": "bytes32"
        },
        {
          "indexed": false,
          "internalType": "bytes32",
          "name": "newRealmId",
          "type": "bytes32"
        }
      ],
      "name": "RealmContextMoved",
      "type": "event"
    },
    {
      "anonymous": false,
      "inputs": [
        {
          "indexed": true,
          "internalType": "address",
          "name": "sender",
          "type": "address"
        },
        {
          "indexed": true,
          "internalType": "bytes32",
          "name": "realmId",
          "type": "bytes32"
        },
        {
          "indexed": true,
          "internalType": "bytes32",
          "name": "domainId",
          "type": "bytes32"
        },
        {
          "indexed": false,
          "internalType": "bytes32",
          "name": "adminId",
          "type": "bytes32"
        }
      ],
      "name": "RealmRegistered",
      "type": "event"
    },
    {
      "anonymous": false,
      "inputs": [
        {
          "indexed": true,
          "internalType": "address",
          "name": "sender",
          "type": "address"
        },
        {
          "indexed": true,
          "internalType": "bytes32",
          "name": "realmId",
          "type": "bytes32"
        },
        {
          "indexed": false,
          "internalType": "bool",
          "name": "isSoftDeleted",
          "type": "bool"
        }
      ],
      "name": "RealmRemoved",
      "type": "event"
    },
    {
      "stateMutability": "payable",
      "type": "fallback"
    },
    {
      "inputs": [],
      "name": "CTX_MESSAGE_TYPEHASH",
      "outputs": [
        {
          "internalType": "bytes32",
          "name": "",
          "type": "bytes32"
        }
      ],
      "stateMutability": "view",
      "type": "function"
    },
    {
      "inputs": [],
      "name": "MEMBER_SIGNATURE_MESSAGE_TYPEHASH",
      "outputs": [
        {
          "internalType": "bytes32",
          "name": "",
          "type": "bytes32"
        }
      ],
      "stateMutability": "view",
      "type": "function"
    },
    {
      "inputs": [],
      "name": "PREDICT_CTX_MESSAGE_TYPEHASH",
      "outputs": [
        {
          "internalType": "bytes32",
          "name": "",
          "type": "bytes32"
        }
      ],
      "stateMutability": "view",
      "type": "function"
    },
    {
      "inputs": [],
      "name": "PROFILE_CTX_MESSAGE_TYPEHASH",
      "outputs": [
        {
          "internalType": "bytes32",
          "name": "",
          "type": "bytes32"
        }
      ],
      "stateMutability": "view",
      "type": "function"
    },
    {
      "inputs": [],
      "name": "PROFILE_MEMBER_SIGNATURE_MESSAGE_TYPEHASH",
      "outputs": [
        {
          "internalType": "bytes32",
          "name": "",
          "type": "bytes32"
        }
      ],
      "stateMutability": "view",
      "type": "function"
    },
    {
      "inputs": [],
      "name": "PROFILE_PREDICT_CTX_MESSAGE_TYPEHASH",
      "outputs": [
        {
          "internalType": "bytes32",
          "name": "",
          "type": "bytes32"
        }
      ],
      "stateMutability": "view",
      "type": "function"
    },
    {
      "inputs": [],
      "name": "TYPE_HASH",
      "outputs": [
        {
          "internalType": "bytes32",
          "name": "",
          "type": "bytes32"
        }
      ],
      "stateMutability": "view",
      "type": "function"
    },
    {
      "inputs": [],
      "name": "accessControlManager",
      "outputs": [
        {
          "internalType": "address",
          "name": "",
          "type": "address"
        }
      ],
      "stateMutability": "view",
      "type": "function"
    },
    {
      "inputs": [],
      "name": "contractName",
      "outputs": [
        {
          "internalType": "string",
          "name": "",
          "type": "string"
        }
      ],
      "stateMutability": "view",
      "type": "function"
    },
    {
      "inputs": [],
      "name": "contractVersion",
      "outputs": [
        {
          "internalType": "string",
          "name": "",
          "type": "string"
        }
      ],
      "stateMutability": "view",
      "type": "function"
    },
    {
      "inputs": [],
      "name": "domainSeparator",
      "outputs": [
        {
          "internalType": "bytes32",
          "name": "",
          "type": "bytes32"
        }
      ],
      "stateMutability": "view",
      "type": "function"
    },
    {
      "inputs": [],
      "name": "getLibrary",
      "outputs": [
        {
          "internalType": "address",
          "name": "",
          "type": "address"
        }
      ],
      "stateMutability": "pure",
      "type": "function"
    },
    {
      "inputs": [],
      "name": "initVersion",
      "outputs": [
        {
          "internalType": "uint16",
          "name": "",
          "type": "uint16"
        }
      ],
      "stateMutability": "view",
      "type": "function"
    },
    {
      "inputs": [
        {
          "internalType": "string",
          "name": "contractName",
          "type": "string"
        },
        {
          "internalType": "string",
          "name": "contractVersion",
          "type": "string"
        },
        {
          "internalType": "address",
          "name": "accessControlManager",
          "type": "address"
        }
      ],
      "name": "initialize",
      "outputs": [],
      "stateMutability": "nonpayable",
      "type": "function"
    },
    {
      "inputs": [],
      "name": "localAdmin",
      "outputs": [
        {
          "internalType": "address",
          "name": "",
          "type": "address"
        }
      ],
      "stateMutability": "view",
      "type": "function"
    },
    {
      "inputs": [],
      "name": "proxiableUUID",
      "outputs": [
        {
          "internalType": "bytes32",
          "name": "",
          "type": "bytes32"
        }
      ],
      "stateMutability": "view",
      "type": "function"
    },
    {
      "inputs": [
        {
          "internalType": "bytes32",
          "name": "realmId",
          "type": "bytes32"
        },
        {
          "internalType": "address",
          "name": "account",
          "type": "address"
        }
      ],
      "name": "realmCheckAdmin",
      "outputs": [
        {
          "internalType": "bool",
          "name": "",
          "type": "bool"
        }
      ],
      "stateMutability": "view",
      "type": "function"
    },
    {
      "inputs": [
        {
          "internalType": "bytes32",
          "name": "realmId",
          "type": "bytes32"
        }
      ],
      "name": "realmCheckId",
      "outputs": [
        {
          "internalType": "bool",
          "name": "",
          "type": "bool"
        }
      ],
      "stateMutability": "view",
      "type": "function"
    },
    {
      "inputs": [
        {
          "internalType": "string",
          "name": "realmName",
          "type": "string"
        }
      ],
      "name": "realmCheckName",
      "outputs": [
        {
          "internalType": "bool",
          "name": "",
          "type": "bool"
        }
      ],
      "stateMutability": "view",
      "type": "function"
    },
    {
      "inputs": [
        {
          "internalType": "bytes32",
          "name": "realmId",
          "type": "bytes32"
        }
      ],
      "name": "realmGetContexts",
      "outputs": [
        {
          "internalType": "bytes32[]",
          "name": "",
          "type": "bytes32[]"
        }
      ],
      "stateMutability": "view",
      "type": "function"
    },
    {
      "inputs": [
        {
          "internalType": "bytes32",
          "name": "realmId",
          "type": "bytes32"
        }
      ],
      "name": "realmGetInfo",
      "outputs": [
        {
          "components": [
            {
              "internalType": "bytes32",
              "name": "domainId",
              "type": "bytes32"
            },
            {
              "internalType": "bytes32",
              "name": "adminId",
              "type": "bytes32"
            },
            {
              "internalType": "uint32",
              "name": "contextLimit",
              "type": "uint32"
            },
            {
              "internalType": "uint32",
              "name": "contextCount",
              "type": "uint32"
            },
            {
              "internalType": "uint32",
              "name": "referredByAgent",
              "type": "uint32"
            },
            {
              "internalType": "enum IACLCommons.ScopeType",
              "name": "stype",
              "type": "uint8"
            },
            {
              "internalType": "enum IACLCommons.ActivityStatus",
              "name": "acstat",
              "type": "uint8"
            },
            {
              "internalType": "enum IACLCommons.AlterabilityStatus",
              "name": "alstat",
              "type": "uint8"
            },
            {
              "internalType": "enum IACLCommons.AgentType",
              "name": "adminType",
              "type": "uint8"
            },
            {
              "internalType": "string",
              "name": "name",
              "type": "string"
            }
          ],
          "internalType": "struct IRealmManagement.RealmInfo",
          "name": "",
          "type": "tuple"
        }
      ],
      "stateMutability": "view",
      "type": "function"
    },
    {
      "inputs": [
        {
          "internalType": "bytes32",
          "name": "realmId",
          "type": "bytes32"
        },
        {
          "internalType": "bytes32",
          "name": "contextId",
          "type": "bytes32"
        }
      ],
      "name": "realmHasContext",
      "outputs": [
        {
          "internalType": "bool",
          "name": "",
          "type": "bool"
        }
      ],
      "stateMutability": "view",
      "type": "function"
    },
    {
      "inputs": [
        {
          "internalType": "bytes32",
          "name": "realmId",
          "type": "bytes32"
        },
        {
          "internalType": "bytes32",
          "name": "functionId",
          "type": "bytes32"
        }
      ],
      "name": "realmHasFunction",
      "outputs": [
        {
          "internalType": "bool",
          "name": "",
          "type": "bool"
        }
      ],
      "stateMutability": "view",
      "type": "function"
    },
    {
      "inputs": [
        {
          "components": [
            {
              "internalType": "address",
              "name": "account",
              "type": "address"
            },
            {
              "internalType": "uint64",
              "name": "expiredAt",
              "type": "uint64"
            },
            {
              "internalType": "bytes",
              "name": "signature",
              "type": "bytes"
            }
          ],
          "internalType": "struct IACLCommons.MemberSignature",
          "name": "memberSign",
          "type": "tuple"
        },
        {
          "components": [
            {
              "internalType": "bytes32",
              "name": "realmId",
              "type": "bytes32"
            },
            {
              "internalType": "bytes32",
              "name": "targetRealmId",
              "type": "bytes32"
            },
            {
              "internalType": "bytes32",
              "name": "contextId",
              "type": "bytes32"
            }
          ],
          "internalType": "struct IRealmManagement.RealmMoveContextRequest[]",
          "name": "requests",
          "type": "tuple[]"
        }
      ],
      "name": "realmMoveContext",
      "outputs": [
        {
          "internalType": "bool",
          "name": "",
          "type": "bool"
        }
      ],
      "stateMutability": "nonpayable",
      "type": "function"
    },
    {
      "inputs": [
        {
          "components": [
            {
              "internalType": "address",
              "name": "account",
              "type": "address"
            },
            {
              "internalType": "uint64",
              "name": "expiredAt",
              "type": "uint64"
            },
            {
              "internalType": "bytes",
              "name": "signature",
              "type": "bytes"
            }
          ],
          "internalType": "struct IACLCommons.MemberSignature",
          "name": "memberSign",
          "type": "tuple"
        },
        {
          "components": [
            {
              "internalType": "bytes32",
              "name": "domainId",
              "type": "bytes32"
            },
            {
              "internalType": "bytes32",
              "name": "adminId",
              "type": "bytes32"
            },
            {
              "internalType": "int64",
              "name": "contextLimit",
              "type": "int64"
            },
            {
              "internalType": "enum IACLCommons.ActivityStatus",
              "name": "acstat",
              "type": "uint8"
            },
            {
              "internalType": "enum IACLCommons.AlterabilityStatus",
              "name": "alstat",
              "type": "uint8"
            },
            {
              "internalType": "string",
              "name": "name",
              "type": "string"
            }
          ],
          "internalType": "struct IRealmManagement.RealmRegisterRequest[]",
          "name": "requests",
          "type": "tuple[]"
        }
      ],
      "name": "realmRegister",
      "outputs": [
        {
          "internalType": "bool",
          "name": "",
          "type": "bool"
        }
      ],
      "stateMutability": "nonpayable",
      "type": "function"
    },
    {
      "inputs": [
        {
          "components": [
            {
              "internalType": "address",
              "name": "account",
              "type": "address"
            },
            {
              "internalType": "uint64",
              "name": "expiredAt",
              "type": "uint64"
            },
            {
              "internalType": "bytes",
              "name": "signature",
              "type": "bytes"
            }
          ],
          "internalType": "struct IACLCommons.MemberSignature",
          "name": "memberSign",
          "type": "tuple"
        },
        {
          "internalType": "bytes32[]",
          "name": "realms",
          "type": "bytes32[]"
        }
      ],
      "name": "realmRemove",
      "outputs": [
        {
          "internalType": "bool",
          "name": "",
          "type": "bool"
        }
      ],
      "stateMutability": "nonpayable",
      "type": "function"
    },
    {
      "inputs": [
        {
          "components": [
            {
              "internalType": "address",
              "name": "account",
              "type": "address"
            },
            {
              "internalType": "uint64",
              "name": "expiredAt",
              "type": "uint64"
            },
            {
              "internalType": "bytes",
              "name": "signature",
              "type": "bytes"
            }
          ],
          "internalType": "struct IACLCommons.MemberSignature",
          "name": "memberSign",
          "type": "tuple"
        },
        {
          "components": [
            {
              "internalType": "bytes32",
              "name": "id",
              "type": "bytes32"
            },
            {
              "internalType": "enum IACLCommons.ActivityStatus",
              "name": "acstat",
              "type": "uint8"
            }
          ],
          "internalType": "struct IACLCommons.UpdateActivityRequest[]",
          "name": "requests",
          "type": "tuple[]"
        }
      ],
      "name": "realmUpdateActivityStatus",
      "outputs": [
        {
          "internalType": "bool",
          "name": "",
          "type": "bool"
        }
      ],
      "stateMutability": "nonpayable",
      "type": "function"
    },
    {
      "inputs": [
        {
          "components": [
            {
              "internalType": "address",
              "name": "account",
              "type": "address"
            },
            {
              "internalType": "uint64",
              "name": "expiredAt",
              "type": "uint64"
            },
            {
              "internalType": "bytes",
              "name": "signature",
              "type": "bytes"
            }
          ],
          "internalType": "struct IACLCommons.MemberSignature",
          "name": "memberSign",
          "type": "tuple"
        },
        {
          "components": [
            {
              "internalType": "bytes32",
              "name": "id",
              "type": "bytes32"
            },
            {
              "internalType": "bytes32",
              "name": "adminId",
              "type": "bytes32"
            }
          ],
          "internalType": "struct IACLCommons.UpdateAdminRequest[]",
          "name": "requests",
          "type": "tuple[]"
        }
      ],
      "name": "realmUpdateAdmin",
      "outputs": [
        {
          "internalType": "bool",
          "name": "",
          "type": "bool"
        }
      ],
      "stateMutability": "nonpayable",
      "type": "function"
    },
    {
      "inputs": [
        {
          "components": [
            {
              "internalType": "address",
              "name": "account",
              "type": "address"
            },
            {
              "internalType": "uint64",
              "name": "expiredAt",
              "type": "uint64"
            },
            {
              "internalType": "bytes",
              "name": "signature",
              "type": "bytes"
            }
          ],
          "internalType": "struct IACLCommons.MemberSignature",
          "name": "memberSign",
          "type": "tuple"
        },
        {
          "components": [
            {
              "internalType": "bytes32",
              "name": "id",
              "type": "bytes32"
            },
            {
              "internalType": "enum IACLCommons.AlterabilityStatus",
              "name": "alstat",
              "type": "uint8"
            }
          ],
          "internalType": "struct IACLCommons.UpdateAlterabilityRequest[]",
          "name": "requests",
          "type": "tuple[]"
        }
      ],
      "name": "realmUpdateAlterabilityStatus",
      "outputs": [
        {
          "internalType": "bool",
          "name": "",
          "type": "bool"
        }
      ],
      "stateMutability": "nonpayable",
      "type": "function"
    },
    {
      "inputs": [
        {
          "components": [
            {
              "internalType": "address",
              "name": "account",
              "type": "address"
            },
            {
              "internalType": "uint64",
              "name": "expiredAt",
              "type": "uint64"
            },
            {
              "internalType": "bytes",
              "name": "signature",
              "type": "bytes"
            }
          ],
          "internalType": "struct IACLCommons.MemberSignature",
          "name": "memberSign",
          "type": "tuple"
        },
        {
          "components": [
            {
              "internalType": "bytes32",
              "name": "realmId",
              "type": "bytes32"
            },
            {
              "internalType": "uint32",
              "name": "contextLimit",
              "type": "uint32"
            }
          ],
          "internalType": "struct IRealmManagement.RealmUpdateContextLimitRequest[]",
          "name": "requests",
          "type": "tuple[]"
        }
      ],
      "name": "realmUpdateContextLimit",
      "outputs": [
        {
          "internalType": "bool",
          "name": "",
          "type": "bool"
        }
      ],
      "stateMutability": "nonpayable",
      "type": "function"
    },
    {
      "inputs": [],
      "name": "safeModeStatus",
      "outputs": [
        {
          "internalType": "enum IBaseProxy.ProxySafeModeStatus",
          "name": "",
          "type": "uint8"
        }
      ],
      "stateMutability": "view",
      "type": "function"
    },
    {
      "inputs": [
        {
          "internalType": "address",
          "name": "acl",
          "type": "address"
        }
      ],
      "name": "setAccessControlManager",
      "outputs": [
        {
          "internalType": "bool",
          "name": "",
          "type": "bool"
        }
      ],
      "stateMutability": "nonpayable",
      "type": "function"
    },
    {
      "inputs": [
        {
          "internalType": "address",
          "name": "newLocalAdmin",
          "type": "address"
        }
      ],
      "name": "setLocalAdmin",
      "outputs": [
        {
          "internalType": "bool",
          "name": "",
          "type": "bool"
        }
      ],
      "stateMutability": "nonpayable",
      "type": "function"
    },
    {
      "inputs": [
        {
          "internalType": "enum IBaseProxy.ProxySafeModeStatus",
          "name": "sstat",
          "type": "uint8"
        }
      ],
      "name": "setSafeModeStatus",
      "outputs": [
        {
          "internalType": "bool",
          "name": "",
          "type": "bool"
        }
      ],
      "stateMutability": "nonpayable",
      "type": "function"
    },
    {
      "inputs": [
        {
          "internalType": "enum IBaseProxy.ProxyUpdatabilityStatus",
          "name": "ustat",
          "type": "uint8"
        }
      ],
      "name": "setUpdatabilityStatus",
      "outputs": [
        {
          "internalType": "bool",
          "name": "",
          "type": "bool"
        }
      ],
      "stateMutability": "nonpayable",
      "type": "function"
    },
    {
      "inputs": [],
      "name": "subjectAddress",
      "outputs": [
        {
          "internalType": "address",
          "name": "",
          "type": "address"
        }
      ],
      "stateMutability": "view",
      "type": "function"
    },
    {
      "inputs": [
        {
          "internalType": "bytes4",
          "name": "interfaceId",
          "type": "bytes4"
        }
      ],
      "name": "supportsInterface",
      "outputs": [
        {
          "internalType": "bool",
          "name": "",
          "type": "bool"
        }
      ],
      "stateMutability": "view",
      "type": "function"
    },
    {
      "inputs": [],
      "name": "updatabilityStatus",
      "outputs": [
        {
          "internalType": "enum IBaseProxy.ProxyUpdatabilityStatus",
          "name": "",
          "type": "uint8"
        }
      ],
      "stateMutability": "view",
      "type": "function"
    },
    {
      "inputs": [
        {
          "internalType": "address",
          "name": "newImplementation",
          "type": "address"
        },
        {
          "internalType": "bytes",
          "name": "data",
          "type": "bytes"
        },
        {
          "internalType": "bool",
          "name": "forceCall",
          "type": "bool"
        }
      ],
      "name": "upgradeTo",
      "outputs": [
        {
          "internalType": "bytes",
          "name": "",
          "type": "bytes"
        }
      ],
      "stateMutability": "nonpayable",
      "type": "function"
    },
    {
      "inputs": [
        {
          "internalType": "address",
          "name": "recepient",
          "type": "address"
        }
      ],
      "name": "withdrawBalance",
      "outputs": [
        {
          "internalType": "uint256",
          "name": "",
          "type": "uint256"
        }
      ],
      "stateMutability": "nonpayable",
      "type": "function"
    },
    {
      "stateMutability": "payable",
      "type": "receive"
    }
  ],
  "transactionHash": "0xfd0818f329e2d05b2b7a221b5c101de59aa0947d0451a6c0a5592b81de470dd6",
  "args": [],
  "numDeployments": 1,
  "solcInputHash": "bf3d37f12163392c6a812b5af749abec",
  "bytecode": "0x60a0604052306080523480156200001557600080fd5b506200004360017f360894a13ba1a3210667c828492db98dca3e2076cc3735a920a3ca505d382bbd620000fd565b7f360894a13ba1a3210667c828492db98dca3e2076cc3735a920a3ca505d382bbc1462000074576200007462000125565b620000a160017fb53127684a568b3173ae13b9f8a6016e243e63b6e8ee1178d6a717850b5d6104620000fd565b6000805160206200614b83398151915214620000c157620000c162000125565b6000805160206200614b83398151915280546001600160a01b0319163317905560028054600160a01b61ffff60a01b199091161790556200013b565b818103818111156200011f57634e487b7160e01b600052601160045260246000fd5b92915050565b634e487b7160e01b600052600160045260246000fd5b608051615fa0620001ab6000396000818161096f015281816109b801528181610ba701528181610be7015281816119f301528181611a5901528181611a9901528181612af701528181612b370152818161304601528181613086015281816131fa015261323a0152615fa06000f3fe6080604052600436106102275760003560e01c806375d0c0dc11610122578063b4a0bdf3116100a5578063f0b15def1161006c578063f0b15def14610752578063f698da2514610786578063f708ceb01461079b578063f94a0adb146107bb578063fcc40178146107d057005b8063b4a0bdf3146106a7578063ce4c5e81146106c5578063d9dc1f19146106e5578063db361b2514610705578063ea7a8ee01461072557005b8063955da1eb116100e9578063955da1eb146105ff5780639b97b5341461061f578063a0a8e46014610653578063a1576cd214610668578063a304e3531461068857005b806375d0c0dc1461056357806375dd9921146105785780637678922e1461059857806391467058146105bf57806392ca4771146105df57005b806338d38c97116101aa57806358dbc45d1161017157806358dbc45d1461049557806364d4c819146104c25780637147855d146104f6578063754670b214610523578063756af45f1461054357005b806338d38c97146103dc5780633eae9516146104045780634888f482146104245780634bf0414d1461044c57806352d1902d1461048057005b80631ec21faa116101ee5780631ec21faa14610307578063301c12801461032757806330d6ed281461035b578063337d19001461037b57806334109de2146103a857005b806301ffc9a71461023057806305343a0014610265578063077f224a146102855780630e32cb86146102a55780631b452f4b146102c557005b3661022e57005b005b34801561023c57600080fd5b5061025061024b366004615331565b6107f0565b60405190151581526020015b60405180910390f35b34801561027157600080fd5b50610250610280366004615372565b61081b565b34801561029157600080fd5b5061022e6102a03660046153df565b610965565b3480156102b157600080fd5b506102506102c036600461545f565b610b9b565b3480156102d157600080fd5b506102f97f7bfb2abd6084c8ce20d7ff92c1620e7e7267603f0eac446b9176959d243306bc81565b60405190815260200161025c565b34801561031357600080fd5b50610250610322366004615492565b610ea9565b34801561033357600080fd5b506102f97f541cf898e7c3085cbc6b7402ba06e7237285bc4bd5baa510e708e35537a71ffd81565b34801561036757600080fd5b5061025061037636600461556f565b6112a9565b34801561038757600080fd5b5061039b6103963660046155d7565b611455565b60405161025c9190615683565b3480156103b457600080fd5b506102f97f7aabe2571874f2a330ea11c8972d9cc3792d973efc6b36e3e29005861a34418881565b3480156103e857600080fd5b506103f16116b3565b60405161ffff909116815260200161025c565b34801561041057600080fd5b5061025061041f366004615782565b6116c7565b34801561043057600080fd5b50600254600160a81b900460ff165b60405161025c91906157ed565b34801561045857600080fd5b506102f97f9027b951cbdf8eff67da583391d218a57a89ec1ebfcb1c66da188e8531804d5581565b34801561048c57600080fd5b506102f96119e6565b3480156104a157600080fd5b506104aa611a43565b6040516001600160a01b03909116815260200161025c565b3480156104ce57600080fd5b506102f97f8b73c3c69bb8fe3d512ecc4cf759cc79239f7b179b0ffacaa9a75d522b39400f81565b34801561050257600080fd5b5061051661051136600461582f565b611a4d565b60405161025c9190615900565b34801561052f57600080fd5b5061025061053e366004615913565b611bac565b34801561054f57600080fd5b506102f961055e36600461545f565b611c11565b34801561056f57600080fd5b50610516611cd6565b34801561058457600080fd5b5061025061059336600461556f565b611d68565b3480156105a457600080fd5b50738a343E28B50Ae81b40553855E4C4a46751063eC86104aa565b3480156105cb57600080fd5b506102506105da36600461556f565b611fb6565b3480156105eb57600080fd5b506102506105fa3660046155d7565b6121d0565b34801561060b57600080fd5b5061025061061a366004615935565b612201565b34801561062b57600080fd5b506102f97fdee69d384475c3656c17c592e94a2bbfd2a1998cce0c85f535569415a15863b881565b34801561065f57600080fd5b50610516612243565b34801561067457600080fd5b50610250610683366004615913565b612252565b34801561069457600080fd5b50600254600160a01b900460ff1661043f565b3480156106b357600080fd5b506002546001600160a01b03166104aa565b3480156106d157600080fd5b506102506106e0366004615782565b61228b565b3480156106f157600080fd5b5061025061070036600461545f565b612aeb565b34801561071157600080fd5b5061025061072036600461556f565b612ca1565b34801561073157600080fd5b506107456107403660046155d7565b612ff0565b60405161025c9190615976565b34801561075e57600080fd5b506102f97ffc434588684348dd50856b075c47bed14245c1030aa04c32955af5549981462781565b34801561079257600080fd5b506102f9613030565b3480156107a757600080fd5b506102506107b63660046159c7565b61303a565b3480156107c757600080fd5b506104aa6131e4565b3480156107dc57600080fd5b506102506107eb3660046159c7565b6131ee565b60006001600160e01b0319821663eeee9c5360e01b1480610815575061081582613379565b92915050565b6000808061082a6044866133c9565b915091508061083e57600092505050610815565b815460008181526044602052604081206001015460ff169061085f8761342b565b90506002826003811115610875576108756155f0565b036108f85760008061088860448661346a565b91509150806108a1576000975050505050505050610815565b6000806108bc846003015460446134b590919063ffffffff16565b91509150806108d75760009950505050505050505050610815565b50600093845260050160205250506040902054909114935061081592505050565b600382600381111561090c5761090c6155f0565b036109575760008061091f6044866134b5565b9150915080610938576000975050505050505050610815565b5060009182526005016020526040902054151594506108159350505050565b506000979650505050505050565b6001600160a01b037f00000000000000000000000000000000000000000000000000000000000000001630036109b65760405162461bcd60e51b81526004016109ad906159e4565b60405180910390fd5b7f00000000000000000000000000000000000000000000000000000000000000006001600160a01b03166109e86134cc565b6001600160a01b031614610a0e5760405162461bcd60e51b81526004016109ad90615a0a565b33610a176134ed565b6001600160a01b031614610a5d5760405162461bcd60e51b815260206004820152600d60248201526c1058d8d95cdcc811195b9a5959609a1b60448201526064016109ad565b604e5462010000900460ff1615808015610a7f5750604e54600161ffff909116105b80610a9a5750303b158015610a9a5750604e5461ffff166001145b610ae65760405162461bcd60e51b815260206004820152601c60248201527f436f6e747261637420416c726561647920496e697469616c697a65640000000060448201526064016109ad565b604e805461ffff191660011790558015610b0c57604e805462ff00001916620100001790555b610b198686868686613515565b610b216134cc565b6001600160a01b031630336001600160a01b03167f247ab7b17ee489fa140c6666edc3822eefed2727610cd6e37192462b87244c6089898989610b67604e5461ffff1690565b604051610b78959493929190615a59565b60405180910390a48015610b9357604e805462ff0000191690555b505050505050565b60006001600160a01b037f0000000000000000000000000000000000000000000000000000000000000000163003610be55760405162461bcd60e51b81526004016109ad906159e4565b7f00000000000000000000000000000000000000000000000000000000000000006001600160a01b0316610c176134cc565b6001600160a01b031614610c3d5760405162461bcd60e51b81526004016109ad90615a0a565b6000600254600160a01b900460ff166001811115610c5d57610c5d6155f0565b14610c7a5760405162461bcd60e51b81526004016109ad90615a97565b6001600254600160a81b900460ff166001811115610c9a57610c9a6155f0565b14610cb75760405162461bcd60e51b81526004016109ad90615ab9565b6001600160a01b03821615801590610cd857506001600160a01b0382163b15155b610cf45760405162461bcd60e51b81526004016109ad90615ae4565b6002546001600160a01b031615610d53576000610d1763071965c360e11b613529565b90506000816013811115610d2d57610d2d6155f0565b14610d4d5780604051637f0911d160e01b81526004016109ad9190615b0e565b50610da2565b33610d5c6134ed565b6001600160a01b031614610da25760405162461bcd60e51b815260206004820152600d60248201526c1058d8d95cdcc811195b9a5959609a1b60448201526064016109ad565b6040516301ffc9a760e01b81526331501c3960e01b60048201526001600160a01b038316906301ffc9a790602401602060405180830381865afa158015610ded573d6000803e3d6000fd5b505050506040513d601f19601f82011682018060405250810190610e119190615b22565b610e4b5760405162461bcd60e51b815260206004820152600b60248201526a125b1b1959d85b081050d360aa1b60448201526064016109ad565b600280546001600160a01b0384166001600160a01b031990911681179091556040805191825251309133917f410bf468eebeeed60acaedb904afb2db7c0bb0131f7d14c3714d81b14fe8ed3c9181900360200190a35060015b919050565b6000808080610ebf87630f610fd560e11b6135b4565b92509250925060005b85811015611299576000610ef8888884818110610ee757610ee7615b3f565b905060600201600001358587613816565b9050610f2b888884818110610f0f57610f0f615b3f565b90506060020160400135826005016138f590919063ffffffff16565b610f6b5760405162461bcd60e51b815260206004820152601160248201527010dbdb9d195e1d08139bdd08119bdd5b99607a1b60448201526064016109ad565b6000610f93898985818110610f8257610f82615b3f565b905060600201602001358688613816565b90506000610fc68a8a86818110610fac57610fac615b3f565b90506060020160400135604461390d90919063ffffffff16565b90506002600182015462010000900460ff166003811115610fe957610fe96155f0565b10156110075760405162461bcd60e51b81526004016109ad90615ab9565b60018101546301000000900463ffffffff16156110595760405162461bcd60e51b815260206004820152601060248201526f125b1b1959d85b08149959995c9c995960821b60448201526064016109ad565b8054600090611067906139ef565b9150309050633bc6460a828d8d8981811061108457611084615b3f565b905060600201602001356040518363ffffffff1660e01b81526004016110b4929190918252602082015260400190565b602060405180830381865afa1580156110d1573d6000803e3d6000fd5b505050506040513d601f19601f820116820180604052508101906110f59190615b22565b6111115760405162461bcd60e51b81526004016109ad90615b55565b61111d83600501613a82565b600384015463ffffffff16116111645760405162461bcd60e51b815260206004820152600c60248201526b496c6c6567616c204d6f766560a01b60448201526064016109ad565b6111958b8b8781811061117957611179615b3f565b9050606002016040013585600501613a8c90919063ffffffff16565b506111c78b8b878181106111ab576111ab615b3f565b9050606002016040013584600501613a9890919063ffffffff16565b508a8a868181106111da576111da615b3f565b9050606002016020013582600201819055508a8a868181106111fe576111fe615b3f565b905060600201604001358b8b8781811061121a5761121a615b3f565b90506060020160000135876001600160a01b03167f9e53e9d8f3abe949eb45975611f16151394912505d720825a82816a04850a2508e8e8a81811061126157611261615b3f565b9050606002016020013560405161127a91815260200190565b60405180910390a450505050808061129190615b98565b915050610ec8565b50600193505050505b9392505050565b60008080806112bf8763061adda560e31b6135b4565b92509250925060005b858110156112995760006112f88888848181106112e7576112e7615b3f565b905060400201600001358587613816565b905061130681600501613a82565b88888481811061131857611318615b3f565b90506040020160200160208101906113309190615bb1565b63ffffffff16116113735760405162461bcd60e51b815260206004820152600d60248201526c125b1b1959d85b08131a5b5a5d609a1b60448201526064016109ad565b87878381811061138557611385615b3f565b905060400201602001602081019061139d9190615bb1565b60038201805463ffffffff191663ffffffff929092169190911790558787838181106113cb576113cb615b3f565b90506040020160000135836001600160a01b03167f903e758041bcafd3f58a92856842feb04dc6d8500e1dd2b36ae984a9bca71a4a8a8a8681811061141257611412615b3f565b905060400201602001602081019061142a9190615bb1565b60405163ffffffff909116815260200160405180910390a3508061144d81615b98565b9150506112c8565b6114ab604080516101408101825260008082526020820181905291810182905260608101829052608081018290529060a08201908152602001600081526020016000815260200160008152602001606081525090565b6000806114b96044856133c9565b915091508061152557604080516101408101825260008082526020820181905291810182905260608101829052608081018290529060a0820190815260200160008152602001600081526020016000815260408051602081810190925260008152910152949350505050565b60408051610140810182526002840154815283546020820152600384015463ffffffff16918101919091526060810161156060058501613a82565b63ffffffff9081168252600185015463010000008104909116602083015260409091019060ff166005811115611598576115986155f0565b81526001840154602090910190610100900460ff1660038111156115be576115be6155f0565b8152600184015460209091019062010000900460ff1660038111156115e5576115e56155f0565b8152835460009081526044602090815260409091206001015491019060ff166003811115611615576116156155f0565b815260200183600401805461162990615bd7565b80601f016020809104026020016040519081016040528092919081815260200182805461165590615bd7565b80156116a25780601f10611677576101008083540402835291602001916116a2565b820191906000526020600020905b81548152906001019060200180831161168557829003601f168201915b505050505081525092505050919050565b60006116c2604e5461ffff1690565b905090565b60008080806116dd87631f574a8b60e11b6135b4565b92509250925060005b8581101561129957600061171c88888481811061170557611705615b3f565b905060200201356044613aa490919063ffffffff16565b805490915060009061172f908688613b7f565b90506000816007811115611745576117456155f0565b146117535761175381613c0b565b61175f82600501613a82565b1561179d5760405162461bcd60e51b815260206004820152600e60248201526d496c6c6567616c2052656d6f766560901b60448201526064016109ad565b60018201546301000000900463ffffffff166000036119215760006117d083600201546044613da290919063ffffffff16565b90506002600182015462010000900460ff1660038111156117f3576117f36155f0565b101561183c5760405162461bcd60e51b8152602060048201526018602482015277496c6c6567616c20446f6d61696e20557064617461626c6560401b60448201526064016109ad565b61186a8a8a8681811061185157611851615b3f565b9050602002013582600501613a8c90919063ffffffff16565b50600080845560018401805466ffffffffffffff191690556002840181905560038401805463ffffffff191690556118a69060048501906152c4565b60058301600081816118b882826152fe565b505050508989858181106118ce576118ce615b3f565b90506020020135856001600160a01b03167f3460604746fa1f05abf4d57839c567961febd3a3918641dadfd308a212f811b56000604051611913911515815260200190565b60405180910390a3506119d1565b6002600183015462010000900460ff166003811115611942576119426155f0565b10156119605760405162461bcd60e51b81526004016109ad90615ab9565b60018201805461ff00191661010017905588888481811061198357611983615b3f565b90506020020135846001600160a01b03167f3460604746fa1f05abf4d57839c567961febd3a3918641dadfd308a212f811b560016040516119c8911515815260200190565b60405180910390a35b505080806119de90615b98565b9150506116e6565b6000306001600160a01b037f00000000000000000000000000000000000000000000000000000000000000001614611a305760405162461bcd60e51b81526004016109ad906159e4565b50600080516020615f4b83398151915290565b60006116c26134cc565b60606001600160a01b037f0000000000000000000000000000000000000000000000000000000000000000163003611a975760405162461bcd60e51b81526004016109ad906159e4565b7f00000000000000000000000000000000000000000000000000000000000000006001600160a01b0316611ac96134cc565b6001600160a01b031614611aef5760405162461bcd60e51b81526004016109ad90615a0a565b6000600254600160a01b900460ff166001811115611b0f57611b0f6155f0565b14611b2c5760405162461bcd60e51b81526004016109ad90615a97565b6001600254600160a81b900460ff166001811115611b4c57611b4c6155f0565b14611b695760405162461bcd60e51b81526004016109ad90615ab9565b6001600160a01b0384163b611b905760405162461bcd60e51b81526004016109ad90615ae4565b611b9984613e7d565b611ba4848484613f1b565b949350505050565b60008080611bbb6044856140d3565b9150915080611bcf57600092505050610815565b600080611bea846003015460446140eb90919063ffffffff16565b9150915080611c00576000945050505050610815565b506002015485149250505092915050565b600080600254600160a01b900460ff166001811115611c3257611c326155f0565b14611c4f5760405162461bcd60e51b81526004016109ad90615a97565b6000611c6163756af45f60e01b613529565b90506000816013811115611c7757611c776155f0565b14611c975780604051637f0911d160e01b81526004016109ad9190615b0e565b60405147906001600160a01b038516904780156108fc02916000818181858888f19350505050158015611cce573d6000803e3d6000fd5b509392505050565b606060008054611ce590615bd7565b80601f0160208091040260200160405190810160405280929190818152602001828054611d1190615bd7565b8015611d5e5780601f10611d3357610100808354040283529160200191611d5e565b820191906000526020600020905b815481529060010190602001808311611d4157829003601f168201915b5050505050905090565b6000808080611d7e876375dd992160e01b6135b4565b92509250925060005b85811015611299576000611db7888884818110611da657611da6615b3f565b604492604090910201359050613aa4565b9050600180820154610100900460ff166003811115611dd857611dd86155f0565b11611e155760405162461bcd60e51b815260206004820152600d60248201526c1499585b1b4811195b195d1959609a1b60448201526064016109ad565b8054600090611e25908688613b7f565b90506000816007811115611e3b57611e3b6155f0565b14611e4957611e4981613c0b565b6000898985818110611e5d57611e5d615b3f565b9050604002016020016020810190611e759190615c18565b6003811115611e8657611e866155f0565b03611eca5760405162461bcd60e51b8152602060048201526014602482015273496c6c6567616c20416c7465726162696c69747960601b60448201526064016109ad565b888884818110611edc57611edc615b3f565b9050604002016020016020810190611ef49190615c18565b60018301805462ff0000191662010000836003811115611f1657611f166155f0565b0217905550888884818110611f2d57611f2d615b3f565b90506040020160000135846001600160a01b03167f71401f39fed958ca57e7ed1108de1053377b4d9b0b5bf9700595bffd741313a28b8b87818110611f7457611f74615b3f565b9050604002016020016020810190611f8c9190615c18565b604051611f999190615c35565b60405180910390a350508080611fae90615b98565b915050611d87565b6000808080611fcc87631228ce0b60e31b6135b4565b92509250925060005b85811015611299576000611ff4888884818110611da657611da6615b3f565b90506002600182015462010000900460ff166003811115612017576120176155f0565b10156120355760405162461bcd60e51b81526004016109ad90615ab9565b8054600090612045908688613b7f565b9050600081600781111561205b5761205b6155f0565b146120695761206981613c0b565b600189898581811061207d5761207d615b3f565b90506040020160200160208101906120959190615c18565b60038111156120a6576120a66155f0565b116120e65760405162461bcd60e51b815260206004820152601060248201526f496c6c6567616c20416374697669747960801b60448201526064016109ad565b8888848181106120f8576120f8615b3f565b90506040020160200160208101906121109190615c18565b60018301805461ff001916610100836003811115612130576121306155f0565b021790555088888481811061214757612147615b3f565b90506040020160000135846001600160a01b03167f68a3bf3a36ab2c04eb8d42a72d78f72cb7a7f3a167ed6824478ac4480afba5278b8b8781811061218e5761218e615b3f565b90506040020160200160208101906121a69190615c18565b6040516121b39190615c35565b60405180910390a3505080806121c890615b98565b915050611fd5565b6000600360008381526045602052604090206001015460ff1660058111156121fa576121fa6155f0565b1492915050565b60006003604560006122138686614104565b815260208101919091526040016000206001015460ff16600581111561223b5761223b6155f0565b149392505050565b606060018054611ce590615bd7565b600080806122616044866133c9565b915091508061227557600092505050610815565b61228260058301856138f5565b95945050505050565b60008080806122a18763ce4c5e8160e01b6135b4565b9194509250905060006122b5604484614137565b6003810154909150600087810b600160c81b90920460ff169190910360010b121561231a5760405162461bcd60e51b8152602060048201526015602482015274125b1b1959d85b08149959da5cdd195c931a5b5a5d605a1b60448201526064016109ad565b60038101805460ff600160c81b80830482168a90039091160260ff60c81b1990911617905560405160009081906123a590612389906020017f545950452e4c4956454c595f56455253452e4c4956454c595f53434f50455f4d81526420a9aa22a960d91b602082015260250190565b604051602081830303815290604052805190602001208661420d565b9150915060005b88811015612ada5760006123f08b8b848181106123cb576123cb615b3f565b90506020028101906123dd9190615c42565b6123eb9060a0810190615c62565b614104565b90506000808281526045602052604090206001015460ff166005811115612419576124196155f0565b146124565760405162461bcd60e51b815260206004820152600d60248201526c105b1c9958591e48115e1a5cdd609a1b60448201526064016109ad565b60018b8b8481811061246a5761246a615b3f565b905060200281019061247c9190615c42565b61248d906080810190606001615c18565b600381111561249e5761249e6155f0565b1180156124f0575060008b8b848181106124ba576124ba615b3f565b90506020028101906124cc9190615c42565b6124dd9060a0810190608001615c18565b60038111156124ee576124ee6155f0565b115b61253c5760405162461bcd60e51b815260206004820152601d60248201527f496c6c6567616c2041637469766974792f416c7465726162696c69747900000060448201526064016109ad565b6004846005811115612550576125506155f0565b10156125925760405162461bcd60e51b8152602060048201526011602482015270496c6c6567616c2053636f70655479706560781b60448201526064016109ad565b60048460058111156125a6576125a66155f0565b0361261a578a8a838181106125bd576125bd615b3f565b90506020028101906125cf9190615c42565b3583146126155760405162461bcd60e51b8152602060048201526014602482015273496c6c6567616c20446f6d61696e2053636f706560601b60448201526064016109ad565b61269b565b60405174554e4956455253452e4c4956454c595f564552534560581b602082015260350160405160208183030381529060405280519060200120831461269b5760405162461bcd60e51b8152602060048201526016602482015275496c6c6567616c20556e6976657273652053636f706560501b60448201526064016109ad565b60006126cd8c8c858181106126b2576126b2615b3f565b90506020028101906126c49190615c42565b60449035613da2565b90506002600182015462010000900460ff1660038111156126f0576126f06155f0565b10156127395760405162461bcd60e51b8152602060048201526018602482015277496c6c6567616c20446f6d61696e20557064617461626c6560401b60448201526064016109ad565b61274581600501613a82565b600382015461ffff161161278e5760405162461bcd60e51b815260206004820152601060248201526f24b63632b3b0b6102932b3b4b9ba32b960811b60448201526064016109ad565b805460009061279e908a8c613b7f565b905060008160078111156127b4576127b46155f0565b146127c2576127c281613c0b565b506127d06005820183613a98565b5060006127de604484614263565b60018101805460ff1916600317905590508c8c8581811061280157612801615b3f565b90506020028101906128139190615c42565b612824906080810190606001615c18565b60018201805461ff001916610100836003811115612844576128446155f0565b02179055508c8c8581811061285b5761285b615b3f565b905060200281019061286d9190615c42565b61287e9060a0810190608001615c18565b60018201805462ff00001916620100008360038111156128a0576128a06155f0565b02179055508c8c858181106128b7576128b7615b3f565b90506020028101906128c99190615c42565b6020013581558c8c858181106128e1576128e1615b3f565b90506020028101906128f39190615c42565b6129019060a0810190615c62565b6004830191612911919083615cf3565b508c8c8581811061292457612924615b3f565b90506020028101906129369190615c42565b35600282015560008d8d8681811061295057612950615b3f565b90506020028101906129629190615c42565b612973906060810190604001615db2565b60070b1215612991576003870154600160581b900461ffff166129c6565b8c8c858181106129a3576129a3615b3f565b90506020028101906129b59190615c42565b6129c6906060810190604001615db2565b60038201805463ffffffff191663ffffffff929092169190911790558154612a3a908e8e878181106129fa576129fa615b3f565b9050602002810190612a0c9190615c42565b358f8f88818110612a1f57612a1f615b3f565b9050602002810190612a319190615c42565b602001356142ce565b90558b8b84818110612a4e57612a4e615b3f565b9050602002810190612a609190615c42565b35826001600160a01b0389167f514a8acccfd207b0eeff1508305afa6605b9e06f561b4e5d879117135423f9818f8f88818110612a9f57612a9f615b3f565b9050602002810190612ab19190615c42565b60405160209182013581520160405180910390a450508080612ad290615b98565b9150506123ac565b5060019a9950505050505050505050565b60006001600160a01b037f0000000000000000000000000000000000000000000000000000000000000000163003612b355760405162461bcd60e51b81526004016109ad906159e4565b7f00000000000000000000000000000000000000000000000000000000000000006001600160a01b0316612b676134cc565b6001600160a01b031614612b8d5760405162461bcd60e51b81526004016109ad90615a0a565b6000600254600160a01b900460ff166001811115612bad57612bad6155f0565b14612bca5760405162461bcd60e51b81526004016109ad90615a97565b6001600254600160a81b900460ff166001811115612bea57612bea6155f0565b14612c075760405162461bcd60e51b81526004016109ad90615ab9565b6000612c1963d9dc1f1960e01b613529565b90506000816013811115612c2f57612c2f6155f0565b14612c4f5780604051637f0911d160e01b81526004016109ad9190615b0e565b6001600160a01b038316612c8f5760405162461bcd60e51b8152602060048201526007602482015266125b9d985b1a5960ca1b60448201526064016109ad565b612c988361435a565b50600192915050565b6000808080612cb78763db361b2560e01b6135b4565b92509250925060005b85811015611299576000612cdf8888848181106112e7576112e7615b3f565b90506000888884818110612cf557612cf5615b3f565b9050604002016020013514612f58576001604460008a8a86818110612d1c57612d1c615b3f565b90506040020160200135815260200190815260200160002060010160009054906101000a900460ff166003811115612d5657612d566155f0565b11612da35760405162461bcd60e51b815260206004820152601760248201527f496c6c6567616c2041646d696e204167656e745479706500000000000000000060448201526064016109ad565b600080612dca8a8a86818110612dbb57612dbb615b3f565b905060400201602001356139ef565b91509150816005811115612de057612de06155f0565b60031115612e305760405162461bcd60e51b815260206004820152601760248201527f496c6c6567616c2041646d696e2053636f70655479706500000000000000000060448201526064016109ad565b816005811115612e4257612e426155f0565b600303612e8857898985818110612e5b57612e5b615b3f565b905060400201600001358114612e835760405162461bcd60e51b81526004016109ad90615b55565b612f2a565b30633bc6460a828c8c88818110612ea157612ea1615b3f565b604080516001600160e01b031960e088901b1681526004810195909552029190910135602483015250604401602060405180830381865afa158015612eea573d6000803e3d6000fd5b505050506040513d601f19601f82011682018060405250810190612f0e9190615b22565b612f2a5760405162461bcd60e51b81526004016109ad90615b55565b898985818110612f3c57612f3c615b3f565b9050604002016020013583600001600001819055505050612f6f565b600281015460009081526045602052604090205481555b878783818110612f8157612f81615b3f565b90506040020160200135888884818110612f9d57612f9d615b3f565b90506040020160000135846001600160a01b03167fd9330ef80c748dc5e249d9fd112dbcee0a5f162c686220330d07185b7984b42260405160405180910390a45080612fe881615b98565b915050612cc0565b60606000806130006044856133c9565b91509150806130245760408051600080825260208201909252905b50949350505050565b611ba4826005016143d1565b60006116c26143dc565b60006001600160a01b037f00000000000000000000000000000000000000000000000000000000000000001630036130845760405162461bcd60e51b81526004016109ad906159e4565b7f00000000000000000000000000000000000000000000000000000000000000006001600160a01b03166130b66134cc565b6001600160a01b0316146130dc5760405162461bcd60e51b81526004016109ad90615a0a565b60006130eb604e5461ffff1690565b61ffff16116131275760405162461bcd60e51b81526020600482015260086024820152671393d5081253925560c21b60448201526064016109ad565b6000613139630f708ceb60e41b613529565b9050600081601381111561314f5761314f6155f0565b1461316f5780604051637f0911d160e01b81526004016109ad9190615b0e565b6002805484919060ff60a01b1916600160a01b836001811115613194576131946155f0565b021790555030336001600160a01b03167fc08ec585c25f1907baaab6f278c5994531a2e34c59935b3fcfe813067a3b4878856040516131d391906157ed565b60405180910390a350600192915050565b60006116c26134ed565b60006001600160a01b037f00000000000000000000000000000000000000000000000000000000000000001630036132385760405162461bcd60e51b81526004016109ad906159e4565b7f00000000000000000000000000000000000000000000000000000000000000006001600160a01b031661326a6134cc565b6001600160a01b0316146132905760405162461bcd60e51b81526004016109ad90615a0a565b6000600254600160a01b900460ff1660018111156132b0576132b06155f0565b146132cd5760405162461bcd60e51b81526004016109ad90615a97565b60006132df631f98802f60e31b613529565b905060008160138111156132f5576132f56155f0565b146133155780604051637f0911d160e01b81526004016109ad9190615b0e565b6002805484919060ff60a81b1916600160a81b83600181111561333a5761333a6155f0565b021790555030336001600160a01b03167ff5912c5e436152157ed2b4a84bc313b4b1fe09a15b941f195d23c99a1b8c45ad856040516131d391906157ed565b60006001600160e01b03198216633d817cff60e01b14806133aa57506001600160e01b031982166352d1902d60e01b145b8061081557506301ffc9a760e01b6001600160e01b0319831614610815565b60008181526001830160205260408120819060035b600182015460ff1660058111156133f7576133f76155f0565b0361341957604080518581526001878101602083015291902093509150613423565b6000199250600091505b509250929050565b6040516bffffffffffffffffffffffff19606083901b166020820152600090603401604051602081830303815290604052805190602001209050919050565b6000818152602083905260408120819060025b600182015460ff166003811115613496576134966155f0565b0361341957604080518581526020810187905220925060019150613423565b60008181526020839052604081208190600361347d565b6000600080516020615f4b8339815191525b546001600160a01b0316919050565b60007fb53127684a568b3173ae13b9f8a6016e243e63b6e8ee1178d6a717850b5d61036134de565b6135228585858585614490565b5050505050565b6002546040805163172cb29d60e11b81523060048201526001600160e01b03198416602482015233604482015290516000926001600160a01b031691632e59653a916064808301926020929190829003018187875af1158015613590573d6000803e3d6000fd5b505050506040513d601f19601f820116820180604052508101906108159190615dd5565b6000808080306001600160a01b031663a304e3536040518163ffffffff1660e01b8152600401602060405180830381865afa1580156135f7573d6000803e3d6000fd5b505050506040513d601f19601f8201168201806040525081019061361b9190615df6565b600181111561362c5761362c6155f0565b146136495760405162461bcd60e51b81526004016109ad90615a97565b6000806136596040880188615c62565b905011156136ed57426136726040880160208901615e13565b6001600160401b0316116136bc5760405162461bcd60e51b815260206004820152601160248201527045787069726564205369676e617475726560781b60448201526064016109ad565b6136e6867fdee69d384475c3656c17c592e94a2bbfd2a1998cce0c85f535569415a15863b8614659565b90506136f0565b50335b6001600160e01b031985166000908152604a60205260408120546001600160a01b03169061371e8288614711565b9050600061372b8461342b565b604051634902a91960e11b8152600481018490526024810182905290915060009030906392055232906044016020604051808303816000875af1158015613776573d6000803e3d6000fd5b505050506040513d601f19601f8201168201806040525081019061379a9190615dd5565b905060008160138111156137b0576137b06155f0565b146138045760118160138111156137c9576137c96155f0565b1480156137e657506001600160e01b03198916631228ce0b60e31b145b156137fb5750909550935090915061380f9050565b61380481614748565b509095509350909150505b9250925092565b600080613824604486613aa4565b9050600180820154610100900460ff166003811115613845576138456155f0565b116138825760405162461bcd60e51b815260206004820152600d60248201526c1499585b1b4811195b195d1959609a1b60448201526064016109ad565b6002600182015462010000900460ff1660038111156138a3576138a36155f0565b10156138c15760405162461bcd60e51b81526004016109ad90615ab9565b80546000906138d1908686613b7f565b905060008160078111156138e7576138e76155f0565b1461301b5761301b81613c0b565b600081815260018301602052604081205415156112a2565b600081815260018301602052604081206002600182015460ff166005811115613938576139386155f0565b0361395557604080518481526001860160208201522091506139e8565b6000600182015460ff166005811115613970576139706155f0565b036139ad5760405162461bcd60e51b815260206004820152600d60248201526c10d25108139bdd08119bdd5b99609a1b60448201526064016109ad565b60405162461bcd60e51b815260206004820152601060248201526f125b1b1959d85b0810d2510814db1bdd60821b60448201526064016109ad565b5092915050565b600081815260446020526040812060010154819060ff166002816003811115613a1a57613a1a6155f0565b03613a50576000613a2c604486614afd565b6002015460008181526045602052604090206001015460ff16969095509350505050565b6003816003811115613a6457613a646155f0565b03613a76576000613a2c604486614bda565b50600093849350915050565b6000610815825490565b60006112a28383614cb1565b60006112a28383614da4565b600081815260018301602052604081206003600182015460ff166005811115613acf57613acf6155f0565b03613aec57604080518481526001860160208201522091506139e8565b6000600182015460ff166005811115613b0757613b076155f0565b03613b445760405162461bcd60e51b815260206004820152600d60248201526c14925108139bdd08119bdd5b99609a1b60448201526064016109ad565b60405162461bcd60e51b815260206004820152601060248201526f125b1b195859db081492510814db1bdd60821b60448201526064016109ad565b60405163ca37fa8560e01b815260446004820181905260248201859052810183905260648101829052600090738a343E28B50Ae81b40553855E4C4a46751063eC89063ca37fa8590608401602060405180830381865af4158015613be7573d6000803e3d6000fd5b505050506040513d601f19601f82011682018060405250810190611ba49190615e3c565b6001816007811115613c1f57613c1f6155f0565b03613c3d576040516334267bfb60e11b815260040160405180910390fd5b6002816007811115613c5157613c516155f0565b03613c6f576040516343f871e760e11b815260040160405180910390fd5b6003816007811115613c8357613c836155f0565b03613ca157604051639afb7c5f60e01b815260040160405180910390fd5b6004816007811115613cb557613cb56155f0565b03613cd3576040516332314d6b60e11b815260040160405180910390fd5b6005816007811115613ce757613ce76155f0565b03613d0557604051633123155560e01b815260040160405180910390fd5b6006816007811115613d1957613d196155f0565b03613d3757604051631b210af760e21b815260040160405180910390fd5b6007816007811115613d4b57613d4b6155f0565b03613d69576040516339f73ba360e11b815260040160405180910390fd5b60405162461bcd60e51b815260206004820152600b60248201526a2ab735b737bbb71022a92960a91b60448201526064016109ad565b50565b600081815260018301602052604081206004600182015460ff166005811115613dcd57613dcd6155f0565b03613dea57604080518481526001860160208201522091506139e8565b6000600182015460ff166005811115613e0557613e056155f0565b03613e425760405162461bcd60e51b815260206004820152600d60248201526c11125108139bdd08119bdd5b99609a1b60448201526064016109ad565b60405162461bcd60e51b815260206004820152601060248201526f125b1b1959d85b081112510814db1bdd60821b60448201526064016109ad565b613e856134cc565b6001600160a01b0316816001600160a01b031603613ecf5760405162461bcd60e51b8152602060048201526007602482015266125b1b1959d85b60ca1b60448201526064016109ad565b6000613ee1637147855d60e01b613529565b90506000816013811115613ef757613ef76155f0565b14613f175780604051637f0911d160e01b81526004016109ad9190615b0e565b5050565b60607f4910fdfa16fed3260ed0e7147f7cc6da11a60208b5b9406d12a635614ffd91435460ff1615613f6557613f5084614df3565b506040805160008152602081019091526112a2565b600080516020615f4b83398151915260001b846001600160a01b03166352d1902d6040518163ffffffff1660e01b8152600401602060405180830381865afa158015613fb5573d6000803e3d6000fd5b505050506040513d601f19601f82011682018060405250810190613fd99190615e5d565b146140155760405162461bcd60e51b815260206004820152600c60248201526b496c6c6567616c205555505360a01b60448201526064016109ad565b6040516301ffc9a760e01b8152633d817cff60e01b60048201526001600160a01b038516906301ffc9a790602401602060405180830381865afa158015614060573d6000803e3d6000fd5b505050506040513d601f19601f820116820180604052508101906140849190615b22565b6140c15760405162461bcd60e51b815260206004820152600e60248201526d496c6c6567616c204950726f787960901b60448201526064016109ad565b6140cc848484614e22565b90506112a2565b600081815260018084016020526040822082916133de565b60008181526001830160205260408120819060026133de565b60008282604051602001614119929190615e76565b60405160208183030381529060405280519060200120905092915050565b600081815260208390526040812060018082015460ff16600381111561415f5761415f6155f0565b0361417a5760408051848152602081018690522091506139e8565b6000600182015460ff166003811115614195576141956155f0565b036141d25760405162461bcd60e51b815260206004820152600d60248201526c13525108139bdd08119bdd5b99609a1b60448201526064016109ad565b60405162461bcd60e51b815260206004820152601060248201526f125b1b1959d85b081352510814db1bdd60821b60448201526064016109ad565b6000808061421c604486614bda565b600085815260058201602052604081205491925061423b604483614afd565b6002015460008181526045602052604090206001015460ff16955093505050505b9250929050565b6000818152600183016020526040812081600182015460ff16600581111561428d5761428d6155f0565b14806142b157506003600182015460ff1660058111156142af576142af6155f0565b145b15613b4457604080518481526001860160208201522091506139e8565b60405163031cc64b60e31b815260446004820181905260248201859052810183905260648101829052600090738a343E28B50Ae81b40553855E4C4a46751063eC8906318e6325890608401602060405180830381865af4158015614336573d6000803e3d6000fd5b505050506040513d601f19601f82011682018060405250810190611ba49190615e5d565b7fb53127684a568b3173ae13b9f8a6016e243e63b6e8ee1178d6a717850b5d610380546001600160a01b0383166001600160a01b031990911681179091556040805191825251309133917f63fdbed5f2909ec44e3becc51e9d29654ce1447747914e8a6ebc019e7f640b8b9181900360200190a350565b606061081582614e83565b60007f8b73c3c69bb8fe3d512ecc4cf759cc79239f7b179b0ffacaa9a75d522b39400f60006040516020016144119190615e86565b6040516020818303038152906040528051906020012060016040516020016144399190615e86565b60408051601f1981840301815282825280516020918201209083019490945281019190915260608101919091524660808201523060a082015260c00160405160208183030381529060405280519060200120905090565b604e5462010000900460ff166144e85760405162461bcd60e51b815260206004820152601960248201527f436f6e7472616374204e6f7420496e697469616c697a696e670000000000000060448201526064016109ad565b60006144f5858783615cf3565b506001614503838583615cf3565b506001600160a01b03811630146145e9576001600160a01b0381163b61453b5760405162461bcd60e51b81526004016109ad90615ae4565b6040516301ffc9a760e01b81526331501c3960e01b60048201526001600160a01b038216906301ffc9a790602401602060405180830381865afa158015614586573d6000803e3d6000fd5b505050506040513d601f19601f820116820180604052508101906145aa9190615b22565b6145e45760405162461bcd60e51b815260206004820152600b60248201526a125b1b1959d85b081050d360aa1b60448201526064016109ad565b614635565b6145f96331501c3960e01b6107f0565b6146355760405162461bcd60e51b815260206004820152600d60248201526c139bdd0814dd5c1c1bdc9d1959609a1b60448201526064016109ad565b600280546001600160b01b0319166001600160a01b0383161790556135223361435a565b60006112a261466b6040850185615c62565b8080601f01602080910402602001604051908101604052809392919081815260200183838082843760009201919091525061470c92508691506146b39050602088018861545f565b6146c36040890160208a01615e13565b6001600160401b0316604080516020808201959095526001600160a01b039390931683820152606080840192909252805180840390920182526080909201909152805191012090565b614edf565b6040516bffffffffffffffffffffffff19606084901b1660208201526001600160e01b031982166034820152600090603801614119565b600181601381111561475c5761475c6155f0565b0361477a576040516338bb798160e21b815260040160405180910390fd5b600281601381111561478e5761478e6155f0565b036147ac57604051634f69231960e11b815260040160405180910390fd5b60038160138111156147c0576147c06155f0565b036147de57604051637e33e43360e01b815260040160405180910390fd5b60048160138111156147f2576147f26155f0565b0361481057604051630287b9e560e51b815260040160405180910390fd5b6005816013811115614824576148246155f0565b0361484257604051633beb1f4d60e11b815260040160405180910390fd5b6006816013811115614856576148566155f0565b036148745760405163036c45ad60e51b815260040160405180910390fd5b6007816013811115614888576148886155f0565b036148a65760405163c0af595f60e01b815260040160405180910390fd5b60088160138111156148ba576148ba6155f0565b036148d85760405163249eeb8960e01b815260040160405180910390fd5b60098160138111156148ec576148ec6155f0565b0361490a576040516311fb41e160e21b815260040160405180910390fd5b600a81601381111561491e5761491e6155f0565b0361493c57604051637331e2bb60e01b815260040160405180910390fd5b600b816013811115614950576149506155f0565b0361496e5760405163163099ab60e01b815260040160405180910390fd5b600c816013811115614982576149826155f0565b036149a05760405163975a86e560e01b815260040160405180910390fd5b600d8160138111156149b4576149b46155f0565b036149d257604051631140570360e21b815260040160405180910390fd5b600e8160138111156149e6576149e66155f0565b03614a0457604051630622823b60e31b815260040160405180910390fd5b600f816013811115614a1857614a186155f0565b03614a3657604051636d30058d60e11b815260040160405180910390fd5b6010816013811115614a4a57614a4a6155f0565b03614a68576040516304acbcf160e51b815260040160405180910390fd5b6011816013811115614a7c57614a7c6155f0565b03614a9a57604051636effd2d560e01b815260040160405180910390fd5b6012816013811115614aae57614aae6155f0565b03614acb57604051623f318960e21b815260040160405180910390fd5b6013816013811115614adf57614adf6155f0565b03613d6957604051634bc7b56f60e11b815260040160405180910390fd5b60008181526020839052604081206002600182015460ff166003811115614b2657614b266155f0565b03614b415760408051848152602081018690522091506139e8565b6000600182015460ff166003811115614b5c57614b5c6155f0565b03614b9c5760405162461bcd60e51b815260206004820152601060248201526f149bdb19525908139bdd08119bdd5b9960821b60448201526064016109ad565b60405162461bcd60e51b8152602060048201526013602482015272125b1b1959d85b08149bdb1952590814db1bdd606a1b60448201526064016109ad565b60008181526020839052604081206003600182015460ff166003811115614c0357614c036155f0565b03614c1e5760408051848152602081018690522091506139e8565b6000600182015460ff166003811115614c3957614c396155f0565b03614c765760405162461bcd60e51b815260206004820152600d60248201526c15125108139bdd08119bdd5b99609a1b60448201526064016109ad565b60405162461bcd60e51b815260206004820152601060248201526f125b1b1959d85b081512510814db1bdd60821b60448201526064016109ad565b60008181526001830160205260408120548015614d9a576000614cd5600183615efc565b8554909150600090614ce990600190615efc565b9050818114614d4e576000866000018281548110614d0957614d09615b3f565b9060005260206000200154905080876000018481548110614d2c57614d2c615b3f565b6000918252602080832090910192909255918252600188019052604090208390555b8554869080614d5f57614d5f615f0f565b600190038181906000526020600020016000905590558560010160008681526020019081526020016000206000905560019350505050610815565b6000915050610815565b6000818152600183016020526040812054614deb57508154600181810184556000848152602080822090930184905584548482528286019093526040902091909155610815565b506000610815565b600080516020615f4b83398151915280546001600160a01b0319166001600160a01b0392909216919091179055565b6060614e2d84614f54565b600083511180614e3a5750815b15614e6d576140cc84846040518060400160405280600b81526020016a10d85b1b0811985a5b195960aa1b815250614f98565b604080516000808252602082019092529061301b565b606081600001805480602002602001604051908101604052809291908181526020018280548015614ed357602002820191906000526020600020905b815481526020019060010190808311614ebf575b50505050509050919050565b600080614eeb83615066565b9050600080614efa83876150d3565b90925090506000816004811115614f1357614f136155f0565b1461301b5760405162461bcd60e51b8152602060048201526011602482015270496c6c6567616c205369676e617475726560781b60448201526064016109ad565b614f5d81614df3565b6040516001600160a01b03821690309033907f8ee0f2bd29c0e6a975c3cc2e47cf2e01b5f23a9a8a02e0ed6a5a070269de3d2d90600090a450565b60606001600160a01b0384163b614ff15760405162461bcd60e51b815260206004820152601860248201527f496c6c6567616c20436f6e74726163742041646472657373000000000000000060448201526064016109ad565b600080856001600160a01b03168560405161500c9190615f25565b600060405180830381855af49150503d8060008114615047576040519150601f19603f3d011682016040523d82523d6000602084013e61504c565b606091505b509150915061505c82828661513e565b9695505050505050565b6000610815306001600160a01b031663f698da256040518163ffffffff1660e01b8152600401602060405180830381865afa1580156150a9573d6000803e3d6000fd5b505050506040513d601f19601f820116820180604052508101906150cd9190615e5d565b83615177565b60008082516041036151095760208301516040840151606085015160001a6150fd8782858561519e565b9450945050505061425c565b8251604003615132576020830151604084015161512786838361528b565b93509350505061425c565b5060009050600261425c565b6060831561514d5750816112a2565b82511561515d5782518084602001fd5b8160405162461bcd60e51b81526004016109ad9190615900565b60405161190160f01b60208201526022810183905260428101829052600090606201614119565b6000807f7fffffffffffffffffffffffffffffff5d576e7357a4501ddfe92f46681b20a08311156151d55750600090506003615282565b8460ff16601b141580156151ed57508460ff16601c14155b156151fe5750600090506004615282565b6040805160008082526020820180845289905260ff881692820192909252606081018690526080810185905260019060a0016020604051602081039080840390855afa158015615252573d6000803e3d6000fd5b5050604051601f1901519150506001600160a01b03811661527b57600060019250925050615282565b9150600090505b94509492505050565b6000806001600160ff1b038316816152a860ff86901c601b615f37565b90506152b68782888561519e565b935093505050935093915050565b5080546152d090615bd7565b6000825580601f106152e0575050565b601f016020900490600052602060002090810190613d9f9190615318565b5080546000825590600052602060002090810190613d9f91905b5b8082111561532d5760008155600101615319565b5090565b60006020828403121561534357600080fd5b81356001600160e01b0319811681146112a257600080fd5b80356001600160a01b0381168114610ea457600080fd5b6000806040838503121561538557600080fd5b823591506153956020840161535b565b90509250929050565b60008083601f8401126153b057600080fd5b5081356001600160401b038111156153c757600080fd5b60208301915083602082850101111561425c57600080fd5b6000806000806000606086880312156153f757600080fd5b85356001600160401b038082111561540e57600080fd5b61541a89838a0161539e565b9097509550602088013591508082111561543357600080fd5b506154408882890161539e565b909450925061545390506040870161535b565b90509295509295909350565b60006020828403121561547157600080fd5b6112a28261535b565b60006060828403121561548c57600080fd5b50919050565b6000806000604084860312156154a757600080fd5b83356001600160401b03808211156154be57600080fd5b6154ca8783880161547a565b945060208601359150808211156154e057600080fd5b818601915086601f8301126154f457600080fd5b81358181111561550357600080fd5b87602060608302850101111561551857600080fd5b6020830194508093505050509250925092565b60008083601f84011261553d57600080fd5b5081356001600160401b0381111561555457600080fd5b6020830191508360208260061b850101111561425c57600080fd5b60008060006040848603121561558457600080fd5b83356001600160401b038082111561559b57600080fd5b6155a78783880161547a565b945060208601359150808211156155bd57600080fd5b506155ca8682870161552b565b9497909650939450505050565b6000602082840312156155e957600080fd5b5035919050565b634e487b7160e01b600052602160045260246000fd5b60068110615616576156166155f0565b9052565b60048110613d9f57613d9f6155f0565b6156168161561a565b60005b8381101561564e578181015183820152602001615636565b50506000910152565b6000815180845261566f816020860160208601615633565b601f01601f19169290920160200192915050565b602081528151602082015260208201516040820152600060408301516156b1606084018263ffffffff169052565b50606083015163ffffffff8116608084015250608083015163ffffffff811660a08401525060a08301516156e860c0840182615606565b5060c08301516156fb60e084018261562a565b5060e08301516101006157108185018361562a565b84015190506101206157248482018361562a565b840151610140848101529050611ba4610160840182615657565b60008083601f84011261575057600080fd5b5081356001600160401b0381111561576757600080fd5b6020830191508360208260051b850101111561425c57600080fd5b60008060006040848603121561579757600080fd5b83356001600160401b03808211156157ae57600080fd5b6157ba8783880161547a565b945060208601359150808211156157d057600080fd5b506155ca8682870161573e565b60028110613d9f57613d9f6155f0565b602081016157fa836157dd565b91905290565b634e487b7160e01b600052604160045260246000fd5b8015158114613d9f57600080fd5b8035610ea481615816565b60008060006060848603121561584457600080fd5b61584d8461535b565b925060208401356001600160401b038082111561586957600080fd5b818601915086601f83011261587d57600080fd5b81358181111561588f5761588f615800565b604051601f8201601f19908116603f011681019083821181831017156158b7576158b7615800565b816040528281528960208487010111156158d057600080fd5b8260208601602083013760006020848301015280965050505050506158f760408501615824565b90509250925092565b6020815260006112a26020830184615657565b6000806040838503121561592657600080fd5b50508035926020909101359150565b6000806020838503121561594857600080fd5b82356001600160401b0381111561595e57600080fd5b61596a8582860161539e565b90969095509350505050565b6020808252825182820181905260009190848201906040850190845b818110156159ae57835183529284019291840191600101615992565b50909695505050505050565b60028110613d9f57600080fd5b6000602082840312156159d957600080fd5b81356112a2816159ba565b6020808252600c908201526b125b1b1959d85b0810d85b1b60a21b604082015260600190565b6020808252600c908201526b125b9d985b1a590810d85b1b60a21b604082015260600190565b81835281816020850137506000828201602090810191909152601f909101601f19169091010190565b606081526000615a6d606083018789615a30565b8281036020840152615a80818688615a30565b91505061ffff831660408301529695505050505050565b60208082526008908201526714995a9958dd195960c21b604082015260600190565b602080825260119082015270496c6c6567616c20557064617461626c6560781b604082015260600190565b60208082526010908201526f125b1b1959d85b0810dbdb9d1c9858dd60821b604082015260600190565b60208101601483106157fa576157fa6155f0565b600060208284031215615b3457600080fd5b81516112a281615816565b634e487b7160e01b600052603260045260246000fd5b602080825260139082015272496c6c6567616c2041646d696e2053636f706560681b604082015260600190565b634e487b7160e01b600052601160045260246000fd5b600060018201615baa57615baa615b82565b5060010190565b600060208284031215615bc357600080fd5b813563ffffffff811681146112a257600080fd5b600181811c90821680615beb57607f821691505b60208210810361548c57634e487b7160e01b600052602260045260246000fd5b60048110613d9f57600080fd5b600060208284031215615c2a57600080fd5b81356112a281615c0b565b602081016157fa8361561a565b6000823560be19833603018112615c5857600080fd5b9190910192915050565b6000808335601e19843603018112615c7957600080fd5b8301803591506001600160401b03821115615c9357600080fd5b60200191503681900382131561425c57600080fd5b601f821115615cee57600081815260208120601f850160051c81016020861015615ccf5750805b601f850160051c820191505b81811015610b9357828155600101615cdb565b505050565b6001600160401b03831115615d0a57615d0a615800565b615d1e83615d188354615bd7565b83615ca8565b6000601f841160018114615d525760008515615d3a5750838201355b600019600387901b1c1916600186901b178355613522565b600083815260209020601f19861690835b82811015615d835786850135825560209485019460019092019101615d63565b5086821015615da05760001960f88860031b161c19848701351681555b505060018560011b0183555050505050565b600060208284031215615dc457600080fd5b81358060070b81146112a257600080fd5b600060208284031215615de757600080fd5b8151601481106112a257600080fd5b600060208284031215615e0857600080fd5b81516112a2816159ba565b600060208284031215615e2557600080fd5b81356001600160401b03811681146112a257600080fd5b600060208284031215615e4e57600080fd5b8151600881106112a257600080fd5b600060208284031215615e6f57600080fd5b5051919050565b8183823760009101908152919050565b6000808354615e9481615bd7565b60018281168015615eac5760018114615ec157615ef0565b60ff1984168752821515830287019450615ef0565b8760005260208060002060005b85811015615ee75781548a820152908401908201615ece565b50505082870194505b50929695505050505050565b8181038181111561081557610815615b82565b634e487b7160e01b600052603160045260246000fd5b60008251615c58818460208701615633565b8082018082111561081557610815615b8256fe360894a13ba1a3210667c828492db98dca3e2076cc3735a920a3ca505d382bbca264697066735822122038972ffec6d46418d6111ff1a4f55ad46ad9336b162e7396c7ed76600278ccf764736f6c63430008130033b53127684a568b3173ae13b9f8a6016e243e63b6e8ee1178d6a717850b5d6103",
  "deployedBytecode": "0x6080604052600436106102275760003560e01c806375d0c0dc11610122578063b4a0bdf3116100a5578063f0b15def1161006c578063f0b15def14610752578063f698da2514610786578063f708ceb01461079b578063f94a0adb146107bb578063fcc40178146107d057005b8063b4a0bdf3146106a7578063ce4c5e81146106c5578063d9dc1f19146106e5578063db361b2514610705578063ea7a8ee01461072557005b8063955da1eb116100e9578063955da1eb146105ff5780639b97b5341461061f578063a0a8e46014610653578063a1576cd214610668578063a304e3531461068857005b806375d0c0dc1461056357806375dd9921146105785780637678922e1461059857806391467058146105bf57806392ca4771146105df57005b806338d38c97116101aa57806358dbc45d1161017157806358dbc45d1461049557806364d4c819146104c25780637147855d146104f6578063754670b214610523578063756af45f1461054357005b806338d38c97146103dc5780633eae9516146104045780634888f482146104245780634bf0414d1461044c57806352d1902d1461048057005b80631ec21faa116101ee5780631ec21faa14610307578063301c12801461032757806330d6ed281461035b578063337d19001461037b57806334109de2146103a857005b806301ffc9a71461023057806305343a0014610265578063077f224a146102855780630e32cb86146102a55780631b452f4b146102c557005b3661022e57005b005b34801561023c57600080fd5b5061025061024b366004615331565b6107f0565b60405190151581526020015b60405180910390f35b34801561027157600080fd5b50610250610280366004615372565b61081b565b34801561029157600080fd5b5061022e6102a03660046153df565b610965565b3480156102b157600080fd5b506102506102c036600461545f565b610b9b565b3480156102d157600080fd5b506102f97f7bfb2abd6084c8ce20d7ff92c1620e7e7267603f0eac446b9176959d243306bc81565b60405190815260200161025c565b34801561031357600080fd5b50610250610322366004615492565b610ea9565b34801561033357600080fd5b506102f97f541cf898e7c3085cbc6b7402ba06e7237285bc4bd5baa510e708e35537a71ffd81565b34801561036757600080fd5b5061025061037636600461556f565b6112a9565b34801561038757600080fd5b5061039b6103963660046155d7565b611455565b60405161025c9190615683565b3480156103b457600080fd5b506102f97f7aabe2571874f2a330ea11c8972d9cc3792d973efc6b36e3e29005861a34418881565b3480156103e857600080fd5b506103f16116b3565b60405161ffff909116815260200161025c565b34801561041057600080fd5b5061025061041f366004615782565b6116c7565b34801561043057600080fd5b50600254600160a81b900460ff165b60405161025c91906157ed565b34801561045857600080fd5b506102f97f9027b951cbdf8eff67da583391d218a57a89ec1ebfcb1c66da188e8531804d5581565b34801561048c57600080fd5b506102f96119e6565b3480156104a157600080fd5b506104aa611a43565b6040516001600160a01b03909116815260200161025c565b3480156104ce57600080fd5b506102f97f8b73c3c69bb8fe3d512ecc4cf759cc79239f7b179b0ffacaa9a75d522b39400f81565b34801561050257600080fd5b5061051661051136600461582f565b611a4d565b60405161025c9190615900565b34801561052f57600080fd5b5061025061053e366004615913565b611bac565b34801561054f57600080fd5b506102f961055e36600461545f565b611c11565b34801561056f57600080fd5b50610516611cd6565b34801561058457600080fd5b5061025061059336600461556f565b611d68565b3480156105a457600080fd5b5073__$ee86c02d9d6bfecb685b93ba48bb72f928$__6104aa565b3480156105cb57600080fd5b506102506105da36600461556f565b611fb6565b3480156105eb57600080fd5b506102506105fa3660046155d7565b6121d0565b34801561060b57600080fd5b5061025061061a366004615935565b612201565b34801561062b57600080fd5b506102f97fdee69d384475c3656c17c592e94a2bbfd2a1998cce0c85f535569415a15863b881565b34801561065f57600080fd5b50610516612243565b34801561067457600080fd5b50610250610683366004615913565b612252565b34801561069457600080fd5b50600254600160a01b900460ff1661043f565b3480156106b357600080fd5b506002546001600160a01b03166104aa565b3480156106d157600080fd5b506102506106e0366004615782565b61228b565b3480156106f157600080fd5b5061025061070036600461545f565b612aeb565b34801561071157600080fd5b5061025061072036600461556f565b612ca1565b34801561073157600080fd5b506107456107403660046155d7565b612ff0565b60405161025c9190615976565b34801561075e57600080fd5b506102f97ffc434588684348dd50856b075c47bed14245c1030aa04c32955af5549981462781565b34801561079257600080fd5b506102f9613030565b3480156107a757600080fd5b506102506107b63660046159c7565b61303a565b3480156107c757600080fd5b506104aa6131e4565b3480156107dc57600080fd5b506102506107eb3660046159c7565b6131ee565b60006001600160e01b0319821663eeee9c5360e01b1480610815575061081582613379565b92915050565b6000808061082a6044866133c9565b915091508061083e57600092505050610815565b815460008181526044602052604081206001015460ff169061085f8761342b565b90506002826003811115610875576108756155f0565b036108f85760008061088860448661346a565b91509150806108a1576000975050505050505050610815565b6000806108bc846003015460446134b590919063ffffffff16565b91509150806108d75760009950505050505050505050610815565b50600093845260050160205250506040902054909114935061081592505050565b600382600381111561090c5761090c6155f0565b036109575760008061091f6044866134b5565b9150915080610938576000975050505050505050610815565b5060009182526005016020526040902054151594506108159350505050565b506000979650505050505050565b6001600160a01b037f00000000000000000000000000000000000000000000000000000000000000001630036109b65760405162461bcd60e51b81526004016109ad906159e4565b60405180910390fd5b7f00000000000000000000000000000000000000000000000000000000000000006001600160a01b03166109e86134cc565b6001600160a01b031614610a0e5760405162461bcd60e51b81526004016109ad90615a0a565b33610a176134ed565b6001600160a01b031614610a5d5760405162461bcd60e51b815260206004820152600d60248201526c1058d8d95cdcc811195b9a5959609a1b60448201526064016109ad565b604e5462010000900460ff1615808015610a7f5750604e54600161ffff909116105b80610a9a5750303b158015610a9a5750604e5461ffff166001145b610ae65760405162461bcd60e51b815260206004820152601c60248201527f436f6e747261637420416c726561647920496e697469616c697a65640000000060448201526064016109ad565b604e805461ffff191660011790558015610b0c57604e805462ff00001916620100001790555b610b198686868686613515565b610b216134cc565b6001600160a01b031630336001600160a01b03167f247ab7b17ee489fa140c6666edc3822eefed2727610cd6e37192462b87244c6089898989610b67604e5461ffff1690565b604051610b78959493929190615a59565b60405180910390a48015610b9357604e805462ff0000191690555b505050505050565b60006001600160a01b037f0000000000000000000000000000000000000000000000000000000000000000163003610be55760405162461bcd60e51b81526004016109ad906159e4565b7f00000000000000000000000000000000000000000000000000000000000000006001600160a01b0316610c176134cc565b6001600160a01b031614610c3d5760405162461bcd60e51b81526004016109ad90615a0a565b6000600254600160a01b900460ff166001811115610c5d57610c5d6155f0565b14610c7a5760405162461bcd60e51b81526004016109ad90615a97565b6001600254600160a81b900460ff166001811115610c9a57610c9a6155f0565b14610cb75760405162461bcd60e51b81526004016109ad90615ab9565b6001600160a01b03821615801590610cd857506001600160a01b0382163b15155b610cf45760405162461bcd60e51b81526004016109ad90615ae4565b6002546001600160a01b031615610d53576000610d1763071965c360e11b613529565b90506000816013811115610d2d57610d2d6155f0565b14610d4d5780604051637f0911d160e01b81526004016109ad9190615b0e565b50610da2565b33610d5c6134ed565b6001600160a01b031614610da25760405162461bcd60e51b815260206004820152600d60248201526c1058d8d95cdcc811195b9a5959609a1b60448201526064016109ad565b6040516301ffc9a760e01b81526331501c3960e01b60048201526001600160a01b038316906301ffc9a790602401602060405180830381865afa158015610ded573d6000803e3d6000fd5b505050506040513d601f19601f82011682018060405250810190610e119190615b22565b610e4b5760405162461bcd60e51b815260206004820152600b60248201526a125b1b1959d85b081050d360aa1b60448201526064016109ad565b600280546001600160a01b0384166001600160a01b031990911681179091556040805191825251309133917f410bf468eebeeed60acaedb904afb2db7c0bb0131f7d14c3714d81b14fe8ed3c9181900360200190a35060015b919050565b6000808080610ebf87630f610fd560e11b6135b4565b92509250925060005b85811015611299576000610ef8888884818110610ee757610ee7615b3f565b905060600201600001358587613816565b9050610f2b888884818110610f0f57610f0f615b3f565b90506060020160400135826005016138f590919063ffffffff16565b610f6b5760405162461bcd60e51b815260206004820152601160248201527010dbdb9d195e1d08139bdd08119bdd5b99607a1b60448201526064016109ad565b6000610f93898985818110610f8257610f82615b3f565b905060600201602001358688613816565b90506000610fc68a8a86818110610fac57610fac615b3f565b90506060020160400135604461390d90919063ffffffff16565b90506002600182015462010000900460ff166003811115610fe957610fe96155f0565b10156110075760405162461bcd60e51b81526004016109ad90615ab9565b60018101546301000000900463ffffffff16156110595760405162461bcd60e51b815260206004820152601060248201526f125b1b1959d85b08149959995c9c995960821b60448201526064016109ad565b8054600090611067906139ef565b9150309050633bc6460a828d8d8981811061108457611084615b3f565b905060600201602001356040518363ffffffff1660e01b81526004016110b4929190918252602082015260400190565b602060405180830381865afa1580156110d1573d6000803e3d6000fd5b505050506040513d601f19601f820116820180604052508101906110f59190615b22565b6111115760405162461bcd60e51b81526004016109ad90615b55565b61111d83600501613a82565b600384015463ffffffff16116111645760405162461bcd60e51b815260206004820152600c60248201526b496c6c6567616c204d6f766560a01b60448201526064016109ad565b6111958b8b8781811061117957611179615b3f565b9050606002016040013585600501613a8c90919063ffffffff16565b506111c78b8b878181106111ab576111ab615b3f565b9050606002016040013584600501613a9890919063ffffffff16565b508a8a868181106111da576111da615b3f565b9050606002016020013582600201819055508a8a868181106111fe576111fe615b3f565b905060600201604001358b8b8781811061121a5761121a615b3f565b90506060020160000135876001600160a01b03167f9e53e9d8f3abe949eb45975611f16151394912505d720825a82816a04850a2508e8e8a81811061126157611261615b3f565b9050606002016020013560405161127a91815260200190565b60405180910390a450505050808061129190615b98565b915050610ec8565b50600193505050505b9392505050565b60008080806112bf8763061adda560e31b6135b4565b92509250925060005b858110156112995760006112f88888848181106112e7576112e7615b3f565b905060400201600001358587613816565b905061130681600501613a82565b88888481811061131857611318615b3f565b90506040020160200160208101906113309190615bb1565b63ffffffff16116113735760405162461bcd60e51b815260206004820152600d60248201526c125b1b1959d85b08131a5b5a5d609a1b60448201526064016109ad565b87878381811061138557611385615b3f565b905060400201602001602081019061139d9190615bb1565b60038201805463ffffffff191663ffffffff929092169190911790558787838181106113cb576113cb615b3f565b90506040020160000135836001600160a01b03167f903e758041bcafd3f58a92856842feb04dc6d8500e1dd2b36ae984a9bca71a4a8a8a8681811061141257611412615b3f565b905060400201602001602081019061142a9190615bb1565b60405163ffffffff909116815260200160405180910390a3508061144d81615b98565b9150506112c8565b6114ab604080516101408101825260008082526020820181905291810182905260608101829052608081018290529060a08201908152602001600081526020016000815260200160008152602001606081525090565b6000806114b96044856133c9565b915091508061152557604080516101408101825260008082526020820181905291810182905260608101829052608081018290529060a0820190815260200160008152602001600081526020016000815260408051602081810190925260008152910152949350505050565b60408051610140810182526002840154815283546020820152600384015463ffffffff16918101919091526060810161156060058501613a82565b63ffffffff9081168252600185015463010000008104909116602083015260409091019060ff166005811115611598576115986155f0565b81526001840154602090910190610100900460ff1660038111156115be576115be6155f0565b8152600184015460209091019062010000900460ff1660038111156115e5576115e56155f0565b8152835460009081526044602090815260409091206001015491019060ff166003811115611615576116156155f0565b815260200183600401805461162990615bd7565b80601f016020809104026020016040519081016040528092919081815260200182805461165590615bd7565b80156116a25780601f10611677576101008083540402835291602001916116a2565b820191906000526020600020905b81548152906001019060200180831161168557829003601f168201915b505050505081525092505050919050565b60006116c2604e5461ffff1690565b905090565b60008080806116dd87631f574a8b60e11b6135b4565b92509250925060005b8581101561129957600061171c88888481811061170557611705615b3f565b905060200201356044613aa490919063ffffffff16565b805490915060009061172f908688613b7f565b90506000816007811115611745576117456155f0565b146117535761175381613c0b565b61175f82600501613a82565b1561179d5760405162461bcd60e51b815260206004820152600e60248201526d496c6c6567616c2052656d6f766560901b60448201526064016109ad565b60018201546301000000900463ffffffff166000036119215760006117d083600201546044613da290919063ffffffff16565b90506002600182015462010000900460ff1660038111156117f3576117f36155f0565b101561183c5760405162461bcd60e51b8152602060048201526018602482015277496c6c6567616c20446f6d61696e20557064617461626c6560401b60448201526064016109ad565b61186a8a8a8681811061185157611851615b3f565b9050602002013582600501613a8c90919063ffffffff16565b50600080845560018401805466ffffffffffffff191690556002840181905560038401805463ffffffff191690556118a69060048501906152c4565b60058301600081816118b882826152fe565b505050508989858181106118ce576118ce615b3f565b90506020020135856001600160a01b03167f3460604746fa1f05abf4d57839c567961febd3a3918641dadfd308a212f811b56000604051611913911515815260200190565b60405180910390a3506119d1565b6002600183015462010000900460ff166003811115611942576119426155f0565b10156119605760405162461bcd60e51b81526004016109ad90615ab9565b60018201805461ff00191661010017905588888481811061198357611983615b3f565b90506020020135846001600160a01b03167f3460604746fa1f05abf4d57839c567961febd3a3918641dadfd308a212f811b560016040516119c8911515815260200190565b60405180910390a35b505080806119de90615b98565b9150506116e6565b6000306001600160a01b037f00000000000000000000000000000000000000000000000000000000000000001614611a305760405162461bcd60e51b81526004016109ad906159e4565b50600080516020615f4b83398151915290565b60006116c26134cc565b60606001600160a01b037f0000000000000000000000000000000000000000000000000000000000000000163003611a975760405162461bcd60e51b81526004016109ad906159e4565b7f00000000000000000000000000000000000000000000000000000000000000006001600160a01b0316611ac96134cc565b6001600160a01b031614611aef5760405162461bcd60e51b81526004016109ad90615a0a565b6000600254600160a01b900460ff166001811115611b0f57611b0f6155f0565b14611b2c5760405162461bcd60e51b81526004016109ad90615a97565b6001600254600160a81b900460ff166001811115611b4c57611b4c6155f0565b14611b695760405162461bcd60e51b81526004016109ad90615ab9565b6001600160a01b0384163b611b905760405162461bcd60e51b81526004016109ad90615ae4565b611b9984613e7d565b611ba4848484613f1b565b949350505050565b60008080611bbb6044856140d3565b9150915080611bcf57600092505050610815565b600080611bea846003015460446140eb90919063ffffffff16565b9150915080611c00576000945050505050610815565b506002015485149250505092915050565b600080600254600160a01b900460ff166001811115611c3257611c326155f0565b14611c4f5760405162461bcd60e51b81526004016109ad90615a97565b6000611c6163756af45f60e01b613529565b90506000816013811115611c7757611c776155f0565b14611c975780604051637f0911d160e01b81526004016109ad9190615b0e565b60405147906001600160a01b038516904780156108fc02916000818181858888f19350505050158015611cce573d6000803e3d6000fd5b509392505050565b606060008054611ce590615bd7565b80601f0160208091040260200160405190810160405280929190818152602001828054611d1190615bd7565b8015611d5e5780601f10611d3357610100808354040283529160200191611d5e565b820191906000526020600020905b815481529060010190602001808311611d4157829003601f168201915b5050505050905090565b6000808080611d7e876375dd992160e01b6135b4565b92509250925060005b85811015611299576000611db7888884818110611da657611da6615b3f565b604492604090910201359050613aa4565b9050600180820154610100900460ff166003811115611dd857611dd86155f0565b11611e155760405162461bcd60e51b815260206004820152600d60248201526c1499585b1b4811195b195d1959609a1b60448201526064016109ad565b8054600090611e25908688613b7f565b90506000816007811115611e3b57611e3b6155f0565b14611e4957611e4981613c0b565b6000898985818110611e5d57611e5d615b3f565b9050604002016020016020810190611e759190615c18565b6003811115611e8657611e866155f0565b03611eca5760405162461bcd60e51b8152602060048201526014602482015273496c6c6567616c20416c7465726162696c69747960601b60448201526064016109ad565b888884818110611edc57611edc615b3f565b9050604002016020016020810190611ef49190615c18565b60018301805462ff0000191662010000836003811115611f1657611f166155f0565b0217905550888884818110611f2d57611f2d615b3f565b90506040020160000135846001600160a01b03167f71401f39fed958ca57e7ed1108de1053377b4d9b0b5bf9700595bffd741313a28b8b87818110611f7457611f74615b3f565b9050604002016020016020810190611f8c9190615c18565b604051611f999190615c35565b60405180910390a350508080611fae90615b98565b915050611d87565b6000808080611fcc87631228ce0b60e31b6135b4565b92509250925060005b85811015611299576000611ff4888884818110611da657611da6615b3f565b90506002600182015462010000900460ff166003811115612017576120176155f0565b10156120355760405162461bcd60e51b81526004016109ad90615ab9565b8054600090612045908688613b7f565b9050600081600781111561205b5761205b6155f0565b146120695761206981613c0b565b600189898581811061207d5761207d615b3f565b90506040020160200160208101906120959190615c18565b60038111156120a6576120a66155f0565b116120e65760405162461bcd60e51b815260206004820152601060248201526f496c6c6567616c20416374697669747960801b60448201526064016109ad565b8888848181106120f8576120f8615b3f565b90506040020160200160208101906121109190615c18565b60018301805461ff001916610100836003811115612130576121306155f0565b021790555088888481811061214757612147615b3f565b90506040020160000135846001600160a01b03167f68a3bf3a36ab2c04eb8d42a72d78f72cb7a7f3a167ed6824478ac4480afba5278b8b8781811061218e5761218e615b3f565b90506040020160200160208101906121a69190615c18565b6040516121b39190615c35565b60405180910390a3505080806121c890615b98565b915050611fd5565b6000600360008381526045602052604090206001015460ff1660058111156121fa576121fa6155f0565b1492915050565b60006003604560006122138686614104565b815260208101919091526040016000206001015460ff16600581111561223b5761223b6155f0565b149392505050565b606060018054611ce590615bd7565b600080806122616044866133c9565b915091508061227557600092505050610815565b61228260058301856138f5565b95945050505050565b60008080806122a18763ce4c5e8160e01b6135b4565b9194509250905060006122b5604484614137565b6003810154909150600087810b600160c81b90920460ff169190910360010b121561231a5760405162461bcd60e51b8152602060048201526015602482015274125b1b1959d85b08149959da5cdd195c931a5b5a5d605a1b60448201526064016109ad565b60038101805460ff600160c81b80830482168a90039091160260ff60c81b1990911617905560405160009081906123a590612389906020017f545950452e4c4956454c595f56455253452e4c4956454c595f53434f50455f4d81526420a9aa22a960d91b602082015260250190565b604051602081830303815290604052805190602001208661420d565b9150915060005b88811015612ada5760006123f08b8b848181106123cb576123cb615b3f565b90506020028101906123dd9190615c42565b6123eb9060a0810190615c62565b614104565b90506000808281526045602052604090206001015460ff166005811115612419576124196155f0565b146124565760405162461bcd60e51b815260206004820152600d60248201526c105b1c9958591e48115e1a5cdd609a1b60448201526064016109ad565b60018b8b8481811061246a5761246a615b3f565b905060200281019061247c9190615c42565b61248d906080810190606001615c18565b600381111561249e5761249e6155f0565b1180156124f0575060008b8b848181106124ba576124ba615b3f565b90506020028101906124cc9190615c42565b6124dd9060a0810190608001615c18565b60038111156124ee576124ee6155f0565b115b61253c5760405162461bcd60e51b815260206004820152601d60248201527f496c6c6567616c2041637469766974792f416c7465726162696c69747900000060448201526064016109ad565b6004846005811115612550576125506155f0565b10156125925760405162461bcd60e51b8152602060048201526011602482015270496c6c6567616c2053636f70655479706560781b60448201526064016109ad565b60048460058111156125a6576125a66155f0565b0361261a578a8a838181106125bd576125bd615b3f565b90506020028101906125cf9190615c42565b3583146126155760405162461bcd60e51b8152602060048201526014602482015273496c6c6567616c20446f6d61696e2053636f706560601b60448201526064016109ad565b61269b565b60405174554e4956455253452e4c4956454c595f564552534560581b602082015260350160405160208183030381529060405280519060200120831461269b5760405162461bcd60e51b8152602060048201526016602482015275496c6c6567616c20556e6976657273652053636f706560501b60448201526064016109ad565b60006126cd8c8c858181106126b2576126b2615b3f565b90506020028101906126c49190615c42565b60449035613da2565b90506002600182015462010000900460ff1660038111156126f0576126f06155f0565b10156127395760405162461bcd60e51b8152602060048201526018602482015277496c6c6567616c20446f6d61696e20557064617461626c6560401b60448201526064016109ad565b61274581600501613a82565b600382015461ffff161161278e5760405162461bcd60e51b815260206004820152601060248201526f24b63632b3b0b6102932b3b4b9ba32b960811b60448201526064016109ad565b805460009061279e908a8c613b7f565b905060008160078111156127b4576127b46155f0565b146127c2576127c281613c0b565b506127d06005820183613a98565b5060006127de604484614263565b60018101805460ff1916600317905590508c8c8581811061280157612801615b3f565b90506020028101906128139190615c42565b612824906080810190606001615c18565b60018201805461ff001916610100836003811115612844576128446155f0565b02179055508c8c8581811061285b5761285b615b3f565b905060200281019061286d9190615c42565b61287e9060a0810190608001615c18565b60018201805462ff00001916620100008360038111156128a0576128a06155f0565b02179055508c8c858181106128b7576128b7615b3f565b90506020028101906128c99190615c42565b6020013581558c8c858181106128e1576128e1615b3f565b90506020028101906128f39190615c42565b6129019060a0810190615c62565b6004830191612911919083615cf3565b508c8c8581811061292457612924615b3f565b90506020028101906129369190615c42565b35600282015560008d8d8681811061295057612950615b3f565b90506020028101906129629190615c42565b612973906060810190604001615db2565b60070b1215612991576003870154600160581b900461ffff166129c6565b8c8c858181106129a3576129a3615b3f565b90506020028101906129b59190615c42565b6129c6906060810190604001615db2565b60038201805463ffffffff191663ffffffff929092169190911790558154612a3a908e8e878181106129fa576129fa615b3f565b9050602002810190612a0c9190615c42565b358f8f88818110612a1f57612a1f615b3f565b9050602002810190612a319190615c42565b602001356142ce565b90558b8b84818110612a4e57612a4e615b3f565b9050602002810190612a609190615c42565b35826001600160a01b0389167f514a8acccfd207b0eeff1508305afa6605b9e06f561b4e5d879117135423f9818f8f88818110612a9f57612a9f615b3f565b9050602002810190612ab19190615c42565b60405160209182013581520160405180910390a450508080612ad290615b98565b9150506123ac565b5060019a9950505050505050505050565b60006001600160a01b037f0000000000000000000000000000000000000000000000000000000000000000163003612b355760405162461bcd60e51b81526004016109ad906159e4565b7f00000000000000000000000000000000000000000000000000000000000000006001600160a01b0316612b676134cc565b6001600160a01b031614612b8d5760405162461bcd60e51b81526004016109ad90615a0a565b6000600254600160a01b900460ff166001811115612bad57612bad6155f0565b14612bca5760405162461bcd60e51b81526004016109ad90615a97565b6001600254600160a81b900460ff166001811115612bea57612bea6155f0565b14612c075760405162461bcd60e51b81526004016109ad90615ab9565b6000612c1963d9dc1f1960e01b613529565b90506000816013811115612c2f57612c2f6155f0565b14612c4f5780604051637f0911d160e01b81526004016109ad9190615b0e565b6001600160a01b038316612c8f5760405162461bcd60e51b8152602060048201526007602482015266125b9d985b1a5960ca1b60448201526064016109ad565b612c988361435a565b50600192915050565b6000808080612cb78763db361b2560e01b6135b4565b92509250925060005b85811015611299576000612cdf8888848181106112e7576112e7615b3f565b90506000888884818110612cf557612cf5615b3f565b9050604002016020013514612f58576001604460008a8a86818110612d1c57612d1c615b3f565b90506040020160200135815260200190815260200160002060010160009054906101000a900460ff166003811115612d5657612d566155f0565b11612da35760405162461bcd60e51b815260206004820152601760248201527f496c6c6567616c2041646d696e204167656e745479706500000000000000000060448201526064016109ad565b600080612dca8a8a86818110612dbb57612dbb615b3f565b905060400201602001356139ef565b91509150816005811115612de057612de06155f0565b60031115612e305760405162461bcd60e51b815260206004820152601760248201527f496c6c6567616c2041646d696e2053636f70655479706500000000000000000060448201526064016109ad565b816005811115612e4257612e426155f0565b600303612e8857898985818110612e5b57612e5b615b3f565b905060400201600001358114612e835760405162461bcd60e51b81526004016109ad90615b55565b612f2a565b30633bc6460a828c8c88818110612ea157612ea1615b3f565b604080516001600160e01b031960e088901b1681526004810195909552029190910135602483015250604401602060405180830381865afa158015612eea573d6000803e3d6000fd5b505050506040513d601f19601f82011682018060405250810190612f0e9190615b22565b612f2a5760405162461bcd60e51b81526004016109ad90615b55565b898985818110612f3c57612f3c615b3f565b9050604002016020013583600001600001819055505050612f6f565b600281015460009081526045602052604090205481555b878783818110612f8157612f81615b3f565b90506040020160200135888884818110612f9d57612f9d615b3f565b90506040020160000135846001600160a01b03167fd9330ef80c748dc5e249d9fd112dbcee0a5f162c686220330d07185b7984b42260405160405180910390a45080612fe881615b98565b915050612cc0565b60606000806130006044856133c9565b91509150806130245760408051600080825260208201909252905b50949350505050565b611ba4826005016143d1565b60006116c26143dc565b60006001600160a01b037f00000000000000000000000000000000000000000000000000000000000000001630036130845760405162461bcd60e51b81526004016109ad906159e4565b7f00000000000000000000000000000000000000000000000000000000000000006001600160a01b03166130b66134cc565b6001600160a01b0316146130dc5760405162461bcd60e51b81526004016109ad90615a0a565b60006130eb604e5461ffff1690565b61ffff16116131275760405162461bcd60e51b81526020600482015260086024820152671393d5081253925560c21b60448201526064016109ad565b6000613139630f708ceb60e41b613529565b9050600081601381111561314f5761314f6155f0565b1461316f5780604051637f0911d160e01b81526004016109ad9190615b0e565b6002805484919060ff60a01b1916600160a01b836001811115613194576131946155f0565b021790555030336001600160a01b03167fc08ec585c25f1907baaab6f278c5994531a2e34c59935b3fcfe813067a3b4878856040516131d391906157ed565b60405180910390a350600192915050565b60006116c26134ed565b60006001600160a01b037f00000000000000000000000000000000000000000000000000000000000000001630036132385760405162461bcd60e51b81526004016109ad906159e4565b7f00000000000000000000000000000000000000000000000000000000000000006001600160a01b031661326a6134cc565b6001600160a01b0316146132905760405162461bcd60e51b81526004016109ad90615a0a565b6000600254600160a01b900460ff1660018111156132b0576132b06155f0565b146132cd5760405162461bcd60e51b81526004016109ad90615a97565b60006132df631f98802f60e31b613529565b905060008160138111156132f5576132f56155f0565b146133155780604051637f0911d160e01b81526004016109ad9190615b0e565b6002805484919060ff60a81b1916600160a81b83600181111561333a5761333a6155f0565b021790555030336001600160a01b03167ff5912c5e436152157ed2b4a84bc313b4b1fe09a15b941f195d23c99a1b8c45ad856040516131d391906157ed565b60006001600160e01b03198216633d817cff60e01b14806133aa57506001600160e01b031982166352d1902d60e01b145b8061081557506301ffc9a760e01b6001600160e01b0319831614610815565b60008181526001830160205260408120819060035b600182015460ff1660058111156133f7576133f76155f0565b0361341957604080518581526001878101602083015291902093509150613423565b6000199250600091505b509250929050565b6040516bffffffffffffffffffffffff19606083901b166020820152600090603401604051602081830303815290604052805190602001209050919050565b6000818152602083905260408120819060025b600182015460ff166003811115613496576134966155f0565b0361341957604080518581526020810187905220925060019150613423565b60008181526020839052604081208190600361347d565b6000600080516020615f4b8339815191525b546001600160a01b0316919050565b60007fb53127684a568b3173ae13b9f8a6016e243e63b6e8ee1178d6a717850b5d61036134de565b6135228585858585614490565b5050505050565b6002546040805163172cb29d60e11b81523060048201526001600160e01b03198416602482015233604482015290516000926001600160a01b031691632e59653a916064808301926020929190829003018187875af1158015613590573d6000803e3d6000fd5b505050506040513d601f19601f820116820180604052508101906108159190615dd5565b6000808080306001600160a01b031663a304e3536040518163ffffffff1660e01b8152600401602060405180830381865afa1580156135f7573d6000803e3d6000fd5b505050506040513d601f19601f8201168201806040525081019061361b9190615df6565b600181111561362c5761362c6155f0565b146136495760405162461bcd60e51b81526004016109ad90615a97565b6000806136596040880188615c62565b905011156136ed57426136726040880160208901615e13565b6001600160401b0316116136bc5760405162461bcd60e51b815260206004820152601160248201527045787069726564205369676e617475726560781b60448201526064016109ad565b6136e6867fdee69d384475c3656c17c592e94a2bbfd2a1998cce0c85f535569415a15863b8614659565b90506136f0565b50335b6001600160e01b031985166000908152604a60205260408120546001600160a01b03169061371e8288614711565b9050600061372b8461342b565b604051634902a91960e11b8152600481018490526024810182905290915060009030906392055232906044016020604051808303816000875af1158015613776573d6000803e3d6000fd5b505050506040513d601f19601f8201168201806040525081019061379a9190615dd5565b905060008160138111156137b0576137b06155f0565b146138045760118160138111156137c9576137c96155f0565b1480156137e657506001600160e01b03198916631228ce0b60e31b145b156137fb5750909550935090915061380f9050565b61380481614748565b509095509350909150505b9250925092565b600080613824604486613aa4565b9050600180820154610100900460ff166003811115613845576138456155f0565b116138825760405162461bcd60e51b815260206004820152600d60248201526c1499585b1b4811195b195d1959609a1b60448201526064016109ad565b6002600182015462010000900460ff1660038111156138a3576138a36155f0565b10156138c15760405162461bcd60e51b81526004016109ad90615ab9565b80546000906138d1908686613b7f565b905060008160078111156138e7576138e76155f0565b1461301b5761301b81613c0b565b600081815260018301602052604081205415156112a2565b600081815260018301602052604081206002600182015460ff166005811115613938576139386155f0565b0361395557604080518481526001860160208201522091506139e8565b6000600182015460ff166005811115613970576139706155f0565b036139ad5760405162461bcd60e51b815260206004820152600d60248201526c10d25108139bdd08119bdd5b99609a1b60448201526064016109ad565b60405162461bcd60e51b815260206004820152601060248201526f125b1b1959d85b0810d2510814db1bdd60821b60448201526064016109ad565b5092915050565b600081815260446020526040812060010154819060ff166002816003811115613a1a57613a1a6155f0565b03613a50576000613a2c604486614afd565b6002015460008181526045602052604090206001015460ff16969095509350505050565b6003816003811115613a6457613a646155f0565b03613a76576000613a2c604486614bda565b50600093849350915050565b6000610815825490565b60006112a28383614cb1565b60006112a28383614da4565b600081815260018301602052604081206003600182015460ff166005811115613acf57613acf6155f0565b03613aec57604080518481526001860160208201522091506139e8565b6000600182015460ff166005811115613b0757613b076155f0565b03613b445760405162461bcd60e51b815260206004820152600d60248201526c14925108139bdd08119bdd5b99609a1b60448201526064016109ad565b60405162461bcd60e51b815260206004820152601060248201526f125b1b195859db081492510814db1bdd60821b60448201526064016109ad565b60405163ca37fa8560e01b81526044600482018190526024820185905281018390526064810182905260009073__$ee86c02d9d6bfecb685b93ba48bb72f928$__9063ca37fa8590608401602060405180830381865af4158015613be7573d6000803e3d6000fd5b505050506040513d601f19601f82011682018060405250810190611ba49190615e3c565b6001816007811115613c1f57613c1f6155f0565b03613c3d576040516334267bfb60e11b815260040160405180910390fd5b6002816007811115613c5157613c516155f0565b03613c6f576040516343f871e760e11b815260040160405180910390fd5b6003816007811115613c8357613c836155f0565b03613ca157604051639afb7c5f60e01b815260040160405180910390fd5b6004816007811115613cb557613cb56155f0565b03613cd3576040516332314d6b60e11b815260040160405180910390fd5b6005816007811115613ce757613ce76155f0565b03613d0557604051633123155560e01b815260040160405180910390fd5b6006816007811115613d1957613d196155f0565b03613d3757604051631b210af760e21b815260040160405180910390fd5b6007816007811115613d4b57613d4b6155f0565b03613d69576040516339f73ba360e11b815260040160405180910390fd5b60405162461bcd60e51b815260206004820152600b60248201526a2ab735b737bbb71022a92960a91b60448201526064016109ad565b50565b600081815260018301602052604081206004600182015460ff166005811115613dcd57613dcd6155f0565b03613dea57604080518481526001860160208201522091506139e8565b6000600182015460ff166005811115613e0557613e056155f0565b03613e425760405162461bcd60e51b815260206004820152600d60248201526c11125108139bdd08119bdd5b99609a1b60448201526064016109ad565b60405162461bcd60e51b815260206004820152601060248201526f125b1b1959d85b081112510814db1bdd60821b60448201526064016109ad565b613e856134cc565b6001600160a01b0316816001600160a01b031603613ecf5760405162461bcd60e51b8152602060048201526007602482015266125b1b1959d85b60ca1b60448201526064016109ad565b6000613ee1637147855d60e01b613529565b90506000816013811115613ef757613ef76155f0565b14613f175780604051637f0911d160e01b81526004016109ad9190615b0e565b5050565b60607f4910fdfa16fed3260ed0e7147f7cc6da11a60208b5b9406d12a635614ffd91435460ff1615613f6557613f5084614df3565b506040805160008152602081019091526112a2565b600080516020615f4b83398151915260001b846001600160a01b03166352d1902d6040518163ffffffff1660e01b8152600401602060405180830381865afa158015613fb5573d6000803e3d6000fd5b505050506040513d601f19601f82011682018060405250810190613fd99190615e5d565b146140155760405162461bcd60e51b815260206004820152600c60248201526b496c6c6567616c205555505360a01b60448201526064016109ad565b6040516301ffc9a760e01b8152633d817cff60e01b60048201526001600160a01b038516906301ffc9a790602401602060405180830381865afa158015614060573d6000803e3d6000fd5b505050506040513d601f19601f820116820180604052508101906140849190615b22565b6140c15760405162461bcd60e51b815260206004820152600e60248201526d496c6c6567616c204950726f787960901b60448201526064016109ad565b6140cc848484614e22565b90506112a2565b600081815260018084016020526040822082916133de565b60008181526001830160205260408120819060026133de565b60008282604051602001614119929190615e76565b60405160208183030381529060405280519060200120905092915050565b600081815260208390526040812060018082015460ff16600381111561415f5761415f6155f0565b0361417a5760408051848152602081018690522091506139e8565b6000600182015460ff166003811115614195576141956155f0565b036141d25760405162461bcd60e51b815260206004820152600d60248201526c13525108139bdd08119bdd5b99609a1b60448201526064016109ad565b60405162461bcd60e51b815260206004820152601060248201526f125b1b1959d85b081352510814db1bdd60821b60448201526064016109ad565b6000808061421c604486614bda565b600085815260058201602052604081205491925061423b604483614afd565b6002015460008181526045602052604090206001015460ff16955093505050505b9250929050565b6000818152600183016020526040812081600182015460ff16600581111561428d5761428d6155f0565b14806142b157506003600182015460ff1660058111156142af576142af6155f0565b145b15613b4457604080518481526001860160208201522091506139e8565b60405163031cc64b60e31b81526044600482018190526024820185905281018390526064810182905260009073__$ee86c02d9d6bfecb685b93ba48bb72f928$__906318e6325890608401602060405180830381865af4158015614336573d6000803e3d6000fd5b505050506040513d601f19601f82011682018060405250810190611ba49190615e5d565b7fb53127684a568b3173ae13b9f8a6016e243e63b6e8ee1178d6a717850b5d610380546001600160a01b0383166001600160a01b031990911681179091556040805191825251309133917f63fdbed5f2909ec44e3becc51e9d29654ce1447747914e8a6ebc019e7f640b8b9181900360200190a350565b606061081582614e83565b60007f8b73c3c69bb8fe3d512ecc4cf759cc79239f7b179b0ffacaa9a75d522b39400f60006040516020016144119190615e86565b6040516020818303038152906040528051906020012060016040516020016144399190615e86565b60408051601f1981840301815282825280516020918201209083019490945281019190915260608101919091524660808201523060a082015260c00160405160208183030381529060405280519060200120905090565b604e5462010000900460ff166144e85760405162461bcd60e51b815260206004820152601960248201527f436f6e7472616374204e6f7420496e697469616c697a696e670000000000000060448201526064016109ad565b60006144f5858783615cf3565b506001614503838583615cf3565b506001600160a01b03811630146145e9576001600160a01b0381163b61453b5760405162461bcd60e51b81526004016109ad90615ae4565b6040516301ffc9a760e01b81526331501c3960e01b60048201526001600160a01b038216906301ffc9a790602401602060405180830381865afa158015614586573d6000803e3d6000fd5b505050506040513d601f19601f820116820180604052508101906145aa9190615b22565b6145e45760405162461bcd60e51b815260206004820152600b60248201526a125b1b1959d85b081050d360aa1b60448201526064016109ad565b614635565b6145f96331501c3960e01b6107f0565b6146355760405162461bcd60e51b815260206004820152600d60248201526c139bdd0814dd5c1c1bdc9d1959609a1b60448201526064016109ad565b600280546001600160b01b0319166001600160a01b0383161790556135223361435a565b60006112a261466b6040850185615c62565b8080601f01602080910402602001604051908101604052809392919081815260200183838082843760009201919091525061470c92508691506146b39050602088018861545f565b6146c36040890160208a01615e13565b6001600160401b0316604080516020808201959095526001600160a01b039390931683820152606080840192909252805180840390920182526080909201909152805191012090565b614edf565b6040516bffffffffffffffffffffffff19606084901b1660208201526001600160e01b031982166034820152600090603801614119565b600181601381111561475c5761475c6155f0565b0361477a576040516338bb798160e21b815260040160405180910390fd5b600281601381111561478e5761478e6155f0565b036147ac57604051634f69231960e11b815260040160405180910390fd5b60038160138111156147c0576147c06155f0565b036147de57604051637e33e43360e01b815260040160405180910390fd5b60048160138111156147f2576147f26155f0565b0361481057604051630287b9e560e51b815260040160405180910390fd5b6005816013811115614824576148246155f0565b0361484257604051633beb1f4d60e11b815260040160405180910390fd5b6006816013811115614856576148566155f0565b036148745760405163036c45ad60e51b815260040160405180910390fd5b6007816013811115614888576148886155f0565b036148a65760405163c0af595f60e01b815260040160405180910390fd5b60088160138111156148ba576148ba6155f0565b036148d85760405163249eeb8960e01b815260040160405180910390fd5b60098160138111156148ec576148ec6155f0565b0361490a576040516311fb41e160e21b815260040160405180910390fd5b600a81601381111561491e5761491e6155f0565b0361493c57604051637331e2bb60e01b815260040160405180910390fd5b600b816013811115614950576149506155f0565b0361496e5760405163163099ab60e01b815260040160405180910390fd5b600c816013811115614982576149826155f0565b036149a05760405163975a86e560e01b815260040160405180910390fd5b600d8160138111156149b4576149b46155f0565b036149d257604051631140570360e21b815260040160405180910390fd5b600e8160138111156149e6576149e66155f0565b03614a0457604051630622823b60e31b815260040160405180910390fd5b600f816013811115614a1857614a186155f0565b03614a3657604051636d30058d60e11b815260040160405180910390fd5b6010816013811115614a4a57614a4a6155f0565b03614a68576040516304acbcf160e51b815260040160405180910390fd5b6011816013811115614a7c57614a7c6155f0565b03614a9a57604051636effd2d560e01b815260040160405180910390fd5b6012816013811115614aae57614aae6155f0565b03614acb57604051623f318960e21b815260040160405180910390fd5b6013816013811115614adf57614adf6155f0565b03613d6957604051634bc7b56f60e11b815260040160405180910390fd5b60008181526020839052604081206002600182015460ff166003811115614b2657614b266155f0565b03614b415760408051848152602081018690522091506139e8565b6000600182015460ff166003811115614b5c57614b5c6155f0565b03614b9c5760405162461bcd60e51b815260206004820152601060248201526f149bdb19525908139bdd08119bdd5b9960821b60448201526064016109ad565b60405162461bcd60e51b8152602060048201526013602482015272125b1b1959d85b08149bdb1952590814db1bdd606a1b60448201526064016109ad565b60008181526020839052604081206003600182015460ff166003811115614c0357614c036155f0565b03614c1e5760408051848152602081018690522091506139e8565b6000600182015460ff166003811115614c3957614c396155f0565b03614c765760405162461bcd60e51b815260206004820152600d60248201526c15125108139bdd08119bdd5b99609a1b60448201526064016109ad565b60405162461bcd60e51b815260206004820152601060248201526f125b1b1959d85b081512510814db1bdd60821b60448201526064016109ad565b60008181526001830160205260408120548015614d9a576000614cd5600183615efc565b8554909150600090614ce990600190615efc565b9050818114614d4e576000866000018281548110614d0957614d09615b3f565b9060005260206000200154905080876000018481548110614d2c57614d2c615b3f565b6000918252602080832090910192909255918252600188019052604090208390555b8554869080614d5f57614d5f615f0f565b600190038181906000526020600020016000905590558560010160008681526020019081526020016000206000905560019350505050610815565b6000915050610815565b6000818152600183016020526040812054614deb57508154600181810184556000848152602080822090930184905584548482528286019093526040902091909155610815565b506000610815565b600080516020615f4b83398151915280546001600160a01b0319166001600160a01b0392909216919091179055565b6060614e2d84614f54565b600083511180614e3a5750815b15614e6d576140cc84846040518060400160405280600b81526020016a10d85b1b0811985a5b195960aa1b815250614f98565b604080516000808252602082019092529061301b565b606081600001805480602002602001604051908101604052809291908181526020018280548015614ed357602002820191906000526020600020905b815481526020019060010190808311614ebf575b50505050509050919050565b600080614eeb83615066565b9050600080614efa83876150d3565b90925090506000816004811115614f1357614f136155f0565b1461301b5760405162461bcd60e51b8152602060048201526011602482015270496c6c6567616c205369676e617475726560781b60448201526064016109ad565b614f5d81614df3565b6040516001600160a01b03821690309033907f8ee0f2bd29c0e6a975c3cc2e47cf2e01b5f23a9a8a02e0ed6a5a070269de3d2d90600090a450565b60606001600160a01b0384163b614ff15760405162461bcd60e51b815260206004820152601860248201527f496c6c6567616c20436f6e74726163742041646472657373000000000000000060448201526064016109ad565b600080856001600160a01b03168560405161500c9190615f25565b600060405180830381855af49150503d8060008114615047576040519150601f19603f3d011682016040523d82523d6000602084013e61504c565b606091505b509150915061505c82828661513e565b9695505050505050565b6000610815306001600160a01b031663f698da256040518163ffffffff1660e01b8152600401602060405180830381865afa1580156150a9573d6000803e3d6000fd5b505050506040513d601f19601f820116820180604052508101906150cd9190615e5d565b83615177565b60008082516041036151095760208301516040840151606085015160001a6150fd8782858561519e565b9450945050505061425c565b8251604003615132576020830151604084015161512786838361528b565b93509350505061425c565b5060009050600261425c565b6060831561514d5750816112a2565b82511561515d5782518084602001fd5b8160405162461bcd60e51b81526004016109ad9190615900565b60405161190160f01b60208201526022810183905260428101829052600090606201614119565b6000807f7fffffffffffffffffffffffffffffff5d576e7357a4501ddfe92f46681b20a08311156151d55750600090506003615282565b8460ff16601b141580156151ed57508460ff16601c14155b156151fe5750600090506004615282565b6040805160008082526020820180845289905260ff881692820192909252606081018690526080810185905260019060a0016020604051602081039080840390855afa158015615252573d6000803e3d6000fd5b5050604051601f1901519150506001600160a01b03811661527b57600060019250925050615282565b9150600090505b94509492505050565b6000806001600160ff1b038316816152a860ff86901c601b615f37565b90506152b68782888561519e565b935093505050935093915050565b5080546152d090615bd7565b6000825580601f106152e0575050565b601f016020900490600052602060002090810190613d9f9190615318565b5080546000825590600052602060002090810190613d9f91905b5b8082111561532d5760008155600101615319565b5090565b60006020828403121561534357600080fd5b81356001600160e01b0319811681146112a257600080fd5b80356001600160a01b0381168114610ea457600080fd5b6000806040838503121561538557600080fd5b823591506153956020840161535b565b90509250929050565b60008083601f8401126153b057600080fd5b5081356001600160401b038111156153c757600080fd5b60208301915083602082850101111561425c57600080fd5b6000806000806000606086880312156153f757600080fd5b85356001600160401b038082111561540e57600080fd5b61541a89838a0161539e565b9097509550602088013591508082111561543357600080fd5b506154408882890161539e565b909450925061545390506040870161535b565b90509295509295909350565b60006020828403121561547157600080fd5b6112a28261535b565b60006060828403121561548c57600080fd5b50919050565b6000806000604084860312156154a757600080fd5b83356001600160401b03808211156154be57600080fd5b6154ca8783880161547a565b945060208601359150808211156154e057600080fd5b818601915086601f8301126154f457600080fd5b81358181111561550357600080fd5b87602060608302850101111561551857600080fd5b6020830194508093505050509250925092565b60008083601f84011261553d57600080fd5b5081356001600160401b0381111561555457600080fd5b6020830191508360208260061b850101111561425c57600080fd5b60008060006040848603121561558457600080fd5b83356001600160401b038082111561559b57600080fd5b6155a78783880161547a565b945060208601359150808211156155bd57600080fd5b506155ca8682870161552b565b9497909650939450505050565b6000602082840312156155e957600080fd5b5035919050565b634e487b7160e01b600052602160045260246000fd5b60068110615616576156166155f0565b9052565b60048110613d9f57613d9f6155f0565b6156168161561a565b60005b8381101561564e578181015183820152602001615636565b50506000910152565b6000815180845261566f816020860160208601615633565b601f01601f19169290920160200192915050565b602081528151602082015260208201516040820152600060408301516156b1606084018263ffffffff169052565b50606083015163ffffffff8116608084015250608083015163ffffffff811660a08401525060a08301516156e860c0840182615606565b5060c08301516156fb60e084018261562a565b5060e08301516101006157108185018361562a565b84015190506101206157248482018361562a565b840151610140848101529050611ba4610160840182615657565b60008083601f84011261575057600080fd5b5081356001600160401b0381111561576757600080fd5b6020830191508360208260051b850101111561425c57600080fd5b60008060006040848603121561579757600080fd5b83356001600160401b03808211156157ae57600080fd5b6157ba8783880161547a565b945060208601359150808211156157d057600080fd5b506155ca8682870161573e565b60028110613d9f57613d9f6155f0565b602081016157fa836157dd565b91905290565b634e487b7160e01b600052604160045260246000fd5b8015158114613d9f57600080fd5b8035610ea481615816565b60008060006060848603121561584457600080fd5b61584d8461535b565b925060208401356001600160401b038082111561586957600080fd5b818601915086601f83011261587d57600080fd5b81358181111561588f5761588f615800565b604051601f8201601f19908116603f011681019083821181831017156158b7576158b7615800565b816040528281528960208487010111156158d057600080fd5b8260208601602083013760006020848301015280965050505050506158f760408501615824565b90509250925092565b6020815260006112a26020830184615657565b6000806040838503121561592657600080fd5b50508035926020909101359150565b6000806020838503121561594857600080fd5b82356001600160401b0381111561595e57600080fd5b61596a8582860161539e565b90969095509350505050565b6020808252825182820181905260009190848201906040850190845b818110156159ae57835183529284019291840191600101615992565b50909695505050505050565b60028110613d9f57600080fd5b6000602082840312156159d957600080fd5b81356112a2816159ba565b6020808252600c908201526b125b1b1959d85b0810d85b1b60a21b604082015260600190565b6020808252600c908201526b125b9d985b1a590810d85b1b60a21b604082015260600190565b81835281816020850137506000828201602090810191909152601f909101601f19169091010190565b606081526000615a6d606083018789615a30565b8281036020840152615a80818688615a30565b91505061ffff831660408301529695505050505050565b60208082526008908201526714995a9958dd195960c21b604082015260600190565b602080825260119082015270496c6c6567616c20557064617461626c6560781b604082015260600190565b60208082526010908201526f125b1b1959d85b0810dbdb9d1c9858dd60821b604082015260600190565b60208101601483106157fa576157fa6155f0565b600060208284031215615b3457600080fd5b81516112a281615816565b634e487b7160e01b600052603260045260246000fd5b602080825260139082015272496c6c6567616c2041646d696e2053636f706560681b604082015260600190565b634e487b7160e01b600052601160045260246000fd5b600060018201615baa57615baa615b82565b5060010190565b600060208284031215615bc357600080fd5b813563ffffffff811681146112a257600080fd5b600181811c90821680615beb57607f821691505b60208210810361548c57634e487b7160e01b600052602260045260246000fd5b60048110613d9f57600080fd5b600060208284031215615c2a57600080fd5b81356112a281615c0b565b602081016157fa8361561a565b6000823560be19833603018112615c5857600080fd5b9190910192915050565b6000808335601e19843603018112615c7957600080fd5b8301803591506001600160401b03821115615c9357600080fd5b60200191503681900382131561425c57600080fd5b601f821115615cee57600081815260208120601f850160051c81016020861015615ccf5750805b601f850160051c820191505b81811015610b9357828155600101615cdb565b505050565b6001600160401b03831115615d0a57615d0a615800565b615d1e83615d188354615bd7565b83615ca8565b6000601f841160018114615d525760008515615d3a5750838201355b600019600387901b1c1916600186901b178355613522565b600083815260209020601f19861690835b82811015615d835786850135825560209485019460019092019101615d63565b5086821015615da05760001960f88860031b161c19848701351681555b505060018560011b0183555050505050565b600060208284031215615dc457600080fd5b81358060070b81146112a257600080fd5b600060208284031215615de757600080fd5b8151601481106112a257600080fd5b600060208284031215615e0857600080fd5b81516112a2816159ba565b600060208284031215615e2557600080fd5b81356001600160401b03811681146112a257600080fd5b600060208284031215615e4e57600080fd5b8151600881106112a257600080fd5b600060208284031215615e6f57600080fd5b5051919050565b8183823760009101908152919050565b6000808354615e9481615bd7565b60018281168015615eac5760018114615ec157615ef0565b60ff1984168752821515830287019450615ef0565b8760005260208060002060005b85811015615ee75781548a820152908401908201615ece565b50505082870194505b50929695505050505050565b8181038181111561081557610815615b82565b634e487b7160e01b600052603160045260246000fd5b60008251615c58818460208701615633565b8082018082111561081557610815615b8256fe360894a13ba1a3210667c828492db98dca3e2076cc3735a920a3ca505d382bbca264697066735822122038972ffec6d46418d6111ff1a4f55ad46ad9336b162e7396c7ed76600278ccf764736f6c63430008130033",
  "libraries": {
    "LACLCommons": "0x8a343E28B50Ae81b40553855E4C4a46751063eC8"
  },
  "devdoc": {
    "author": "Sina Tadayon, https://github.com/SinaTadayon",
    "events": {
      "Initialized(address,address,address,string,string,uint16)": {
        "details": "Triggered when the contract has been initialized or reinitialized."
      },
      "ProxyLocalAdminUpdated(address,address,address)": {
        "details": "Emitted when the admin account has changed."
      }
    },
    "kind": "dev",
    "methods": {
      "proxiableUUID()": {
        "details": "Implementation of the ERC1822 {proxiableUUID} function. This returns the storage slot used by the implementation. It is used to validate that the this implementation remains valid after an upgrade. IMPORTANT: A proxy pointing at a proxiable contract should not be considered proxiable itself, because this risks bricking a proxy that upgrades to it, by delegating to itself until out of gas. Thus it is critical that this function revert if invoked through a proxy. This is guaranteed by the `notDelegated` modifier."
      },
      "supportsInterface(bytes4)": {
        "details": "See {IERC165-supportsInterface}."
      }
    },
    "title": "Realm Manager Contract",
    "version": 1
  },
  "userdoc": {
    "kind": "user",
    "methods": {},
    "version": 1
  },
  "storageLayout": {
    "storage": [
      {
        "astId": 82229,
        "contract": "src/contracts/acl/scope/RealmManager.sol:RealmManager",
        "label": "_contractName",
        "offset": 0,
        "slot": "0",
        "type": "t_string_storage"
      },
      {
        "astId": 82231,
        "contract": "src/contracts/acl/scope/RealmManager.sol:RealmManager",
        "label": "_contractVersion",
        "offset": 0,
        "slot": "1",
        "type": "t_string_storage"
      },
      {
        "astId": 82233,
        "contract": "src/contracts/acl/scope/RealmManager.sol:RealmManager",
        "label": "_accessControlManager",
        "offset": 0,
        "slot": "2",
        "type": "t_address"
      },
      {
        "astId": 82236,
        "contract": "src/contracts/acl/scope/RealmManager.sol:RealmManager",
        "label": "_sstat",
        "offset": 20,
        "slot": "2",
        "type": "t_enum(ProxySafeModeStatus)82251"
      },
      {
        "astId": 82239,
        "contract": "src/contracts/acl/scope/RealmManager.sol:RealmManager",
        "label": "_ustat",
        "offset": 21,
        "slot": "2",
        "type": "t_enum(ProxyUpdatabilityStatus)82254"
      },
      {
        "astId": 82244,
        "contract": "src/contracts/acl/scope/RealmManager.sol:RealmManager",
        "label": "__reserved",
        "offset": 0,
        "slot": "3",
        "type": "t_array(t_uint256)64_storage"
      },
      {
        "astId": 10383,
        "contract": "src/contracts/acl/scope/RealmManager.sol:RealmManager",
        "label": "_firstInit",
        "offset": 0,
        "slot": "67",
        "type": "t_bool"
      },
      {
        "astId": 10386,
        "contract": "src/contracts/acl/scope/RealmManager.sol:RealmManager",
        "label": "_data",
        "offset": 0,
        "slot": "68",
        "type": "t_struct(DataCollection)10239_storage"
      },
      {
        "astId": 82432,
        "contract": "src/contracts/acl/scope/RealmManager.sol:RealmManager",
        "label": "_initialized",
        "offset": 0,
        "slot": "78",
        "type": "t_uint16"
      },
      {
        "astId": 82435,
        "contract": "src/contracts/acl/scope/RealmManager.sol:RealmManager",
        "label": "_initializing",
        "offset": 2,
        "slot": "78",
        "type": "t_bool"
      }
    ],
    "types": {
      "t_address": {
        "encoding": "inplace",
        "label": "address",
        "numberOfBytes": "20"
      },
      "t_array(t_bytes32)dyn_storage": {
        "base": "t_bytes32",
        "encoding": "dynamic_array",
        "label": "bytes32[]",
        "numberOfBytes": "32"
      },
      "t_array(t_uint256)64_storage": {
        "base": "t_uint256",
        "encoding": "inplace",
        "label": "uint256[64]",
        "numberOfBytes": "2048"
      },
      "t_bool": {
        "encoding": "inplace",
        "label": "bool",
        "numberOfBytes": "1"
      },
      "t_bytes32": {
        "encoding": "inplace",
        "label": "bytes32",
        "numberOfBytes": "32"
      },
      "t_bytes4": {
        "encoding": "inplace",
        "label": "bytes4",
        "numberOfBytes": "4"
      },
      "t_enum(ActivityStatus)11721": {
        "encoding": "inplace",
        "label": "enum IACLCommons.ActivityStatus",
        "numberOfBytes": "1"
      },
      "t_enum(AgentType)11716": {
        "encoding": "inplace",
        "label": "enum IACLCommons.AgentType",
        "numberOfBytes": "1"
      },
      "t_enum(AlterabilityStatus)11726": {
        "encoding": "inplace",
        "label": "enum IACLCommons.AlterabilityStatus",
        "numberOfBytes": "1"
      },
      "t_enum(PolicyType)11744": {
        "encoding": "inplace",
        "label": "enum IACLCommons.PolicyType",
        "numberOfBytes": "1"
      },
      "t_enum(ProxySafeModeStatus)82251": {
        "encoding": "inplace",
        "label": "enum IBaseProxy.ProxySafeModeStatus",
        "numberOfBytes": "1"
      },
      "t_enum(ProxyUpdatabilityStatus)82254": {
        "encoding": "inplace",
        "label": "enum IBaseProxy.ProxyUpdatabilityStatus",
        "numberOfBytes": "1"
      },
      "t_enum(ScopeType)11733": {
        "encoding": "inplace",
        "label": "enum IACLCommons.ScopeType",
        "numberOfBytes": "1"
      },
      "t_mapping(t_address,t_struct(FacetEntity)11945_storage)": {
        "encoding": "mapping",
        "key": "t_address",
        "label": "mapping(address => struct IACLCommons.FacetEntity)",
        "numberOfBytes": "32",
        "value": "t_struct(FacetEntity)11945_storage"
      },
      "t_mapping(t_address,t_struct(ProfileAccount)12018_storage)": {
        "encoding": "mapping",
        "key": "t_address",
        "label": "mapping(address => struct IACLCommons.ProfileAccount)",
        "numberOfBytes": "32",
        "value": "t_struct(ProfileAccount)12018_storage"
      },
      "t_mapping(t_bytes32,t_bytes32)": {
        "encoding": "mapping",
        "key": "t_bytes32",
        "label": "mapping(bytes32 => bytes32)",
        "numberOfBytes": "32",
        "value": "t_bytes32"
      },
      "t_mapping(t_bytes32,t_struct(BaseAgent)11756_storage)": {
        "encoding": "mapping",
        "key": "t_bytes32",
        "label": "mapping(bytes32 => struct IACLCommons.BaseAgent)",
        "numberOfBytes": "32",
        "value": "t_struct(BaseAgent)11756_storage"
      },
      "t_mapping(t_bytes32,t_struct(BaseScope)11770_storage)": {
        "encoding": "mapping",
        "key": "t_bytes32",
        "label": "mapping(bytes32 => struct IACLCommons.BaseScope)",
        "numberOfBytes": "32",
        "value": "t_struct(BaseScope)11770_storage"
      },
      "t_mapping(t_bytes32,t_struct(PolicyEntity)11793_storage)": {
        "encoding": "mapping",
        "key": "t_bytes32",
        "label": "mapping(bytes32 => struct IACLCommons.PolicyEntity)",
        "numberOfBytes": "32",
        "value": "t_struct(PolicyEntity)11793_storage"
      },
      "t_mapping(t_bytes32,t_struct(ProfileEntity)12059_storage)": {
        "encoding": "mapping",
        "key": "t_bytes32",
        "label": "mapping(bytes32 => struct IACLCommons.ProfileEntity)",
        "numberOfBytes": "32",
        "value": "t_struct(ProfileEntity)12059_storage"
      },
      "t_mapping(t_bytes32,t_uint256)": {
        "encoding": "mapping",
        "key": "t_bytes32",
        "label": "mapping(bytes32 => uint256)",
        "numberOfBytes": "32",
        "value": "t_uint256"
      },
      "t_mapping(t_bytes4,t_address)": {
        "encoding": "mapping",
        "key": "t_bytes4",
        "label": "mapping(bytes4 => address)",
        "numberOfBytes": "32",
        "value": "t_address"
      },
      "t_string_storage": {
        "encoding": "bytes",
        "label": "string",
        "numberOfBytes": "32"
      },
      "t_struct(AddressSet)79783_storage": {
        "encoding": "inplace",
        "label": "struct LEnumerableSet.AddressSet",
        "members": [
          {
            "astId": 79782,
            "contract": "src/contracts/acl/scope/RealmManager.sol:RealmManager",
            "label": "_inner",
            "offset": 0,
            "slot": "0",
            "type": "t_struct(Set)79482_storage"
          }
        ],
        "numberOfBytes": "64"
      },
      "t_struct(BaseAgent)11756_storage": {
        "encoding": "inplace",
        "label": "struct IACLCommons.BaseAgent",
        "members": [
          {
            "astId": 11746,
            "contract": "src/contracts/acl/scope/RealmManager.sol:RealmManager",
            "label": "adminId",
            "offset": 0,
            "slot": "0",
            "type": "t_bytes32"
          },
          {
            "astId": 11749,
            "contract": "src/contracts/acl/scope/RealmManager.sol:RealmManager",
            "label": "atype",
            "offset": 0,
            "slot": "1",
            "type": "t_enum(AgentType)11716"
          },
          {
            "astId": 11752,
            "contract": "src/contracts/acl/scope/RealmManager.sol:RealmManager",
            "label": "acstat",
            "offset": 1,
            "slot": "1",
            "type": "t_enum(ActivityStatus)11721"
          },
          {
            "astId": 11755,
            "contract": "src/contracts/acl/scope/RealmManager.sol:RealmManager",
            "label": "alstat",
            "offset": 2,
            "slot": "1",
            "type": "t_enum(AlterabilityStatus)11726"
          }
        ],
        "numberOfBytes": "64"
      },
      "t_struct(BaseScope)11770_storage": {
        "encoding": "inplace",
        "label": "struct IACLCommons.BaseScope",
        "members": [
          {
            "astId": 11758,
            "contract": "src/contracts/acl/scope/RealmManager.sol:RealmManager",
            "label": "adminId",
            "offset": 0,
            "slot": "0",
            "type": "t_bytes32"
          },
          {
            "astId": 11761,
            "contract": "src/contracts/acl/scope/RealmManager.sol:RealmManager",
            "label": "stype",
            "offset": 0,
            "slot": "1",
            "type": "t_enum(ScopeType)11733"
          },
          {
            "astId": 11764,
            "contract": "src/contracts/acl/scope/RealmManager.sol:RealmManager",
            "label": "acstat",
            "offset": 1,
            "slot": "1",
            "type": "t_enum(ActivityStatus)11721"
          },
          {
            "astId": 11767,
            "contract": "src/contracts/acl/scope/RealmManager.sol:RealmManager",
            "label": "alstat",
            "offset": 2,
            "slot": "1",
            "type": "t_enum(AlterabilityStatus)11726"
          },
          {
            "astId": 11769,
            "contract": "src/contracts/acl/scope/RealmManager.sol:RealmManager",
            "label": "referredByAgent",
            "offset": 3,
            "slot": "1",
            "type": "t_uint32"
          }
        ],
        "numberOfBytes": "64"
      },
      "t_struct(Bytes32Set)79676_storage": {
        "encoding": "inplace",
        "label": "struct LEnumerableSet.Bytes32Set",
        "members": [
          {
            "astId": 79675,
            "contract": "src/contracts/acl/scope/RealmManager.sol:RealmManager",
            "label": "_inner",
            "offset": 0,
            "slot": "0",
            "type": "t_struct(Set)79482_storage"
          }
        ],
        "numberOfBytes": "64"
      },
      "t_struct(DataCollection)10239_storage": {
        "encoding": "inplace",
        "label": "struct ACLStorage.DataCollection",
        "members": [
          {
            "astId": 10202,
            "contract": "src/contracts/acl/scope/RealmManager.sol:RealmManager",
            "label": "agents",
            "offset": 0,
            "slot": "0",
            "type": "t_mapping(t_bytes32,t_struct(BaseAgent)11756_storage)"
          },
          {
            "astId": 10207,
            "contract": "src/contracts/acl/scope/RealmManager.sol:RealmManager",
            "label": "scopes",
            "offset": 0,
            "slot": "1",
            "type": "t_mapping(t_bytes32,t_struct(BaseScope)11770_storage)"
          },
          {
            "astId": 10212,
            "contract": "src/contracts/acl/scope/RealmManager.sol:RealmManager",
            "label": "policies",
            "offset": 0,
            "slot": "2",
            "type": "t_mapping(t_bytes32,t_struct(PolicyEntity)11793_storage)"
          },
          {
            "astId": 10216,
            "contract": "src/contracts/acl/scope/RealmManager.sol:RealmManager",
            "label": "rolePolicyMap",
            "offset": 0,
            "slot": "3",
            "type": "t_mapping(t_bytes32,t_bytes32)"
          },
          {
            "astId": 10221,
            "contract": "src/contracts/acl/scope/RealmManager.sol:RealmManager",
            "label": "profiles",
            "offset": 0,
            "slot": "4",
            "type": "t_mapping(t_bytes32,t_struct(ProfileEntity)12059_storage)"
          },
          {
            "astId": 10226,
            "contract": "src/contracts/acl/scope/RealmManager.sol:RealmManager",
            "label": "profileAccounts",
            "offset": 0,
            "slot": "5",
            "type": "t_mapping(t_address,t_struct(ProfileAccount)12018_storage)"
          },
          {
            "astId": 10230,
            "contract": "src/contracts/acl/scope/RealmManager.sol:RealmManager",
            "label": "selectors",
            "offset": 0,
            "slot": "6",
            "type": "t_mapping(t_bytes4,t_address)"
          },
          {
            "astId": 10235,
            "contract": "src/contracts/acl/scope/RealmManager.sol:RealmManager",
            "label": "facets",
            "offset": 0,
            "slot": "7",
            "type": "t_mapping(t_address,t_struct(FacetEntity)11945_storage)"
          },
          {
            "astId": 10238,
            "contract": "src/contracts/acl/scope/RealmManager.sol:RealmManager",
            "label": "facetSet",
            "offset": 0,
            "slot": "8",
            "type": "t_struct(AddressSet)79783_storage"
          }
        ],
        "numberOfBytes": "320"
      },
      "t_struct(FacetEntity)11945_storage": {
        "encoding": "inplace",
        "label": "struct IACLCommons.FacetEntity",
        "members": [
          {
            "astId": 11944,
            "contract": "src/contracts/acl/scope/RealmManager.sol:RealmManager",
            "label": "subjectId",
            "offset": 0,
            "slot": "0",
            "type": "t_address"
          }
        ],
        "numberOfBytes": "32"
      },
      "t_struct(PolicyEntity)11793_storage": {
        "encoding": "inplace",
        "label": "struct IACLCommons.PolicyEntity",
        "members": [
          {
            "astId": 11772,
            "contract": "src/contracts/acl/scope/RealmManager.sol:RealmManager",
            "label": "adminId",
            "offset": 0,
            "slot": "0",
            "type": "t_bytes32"
          },
          {
            "astId": 11774,
            "contract": "src/contracts/acl/scope/RealmManager.sol:RealmManager",
            "label": "scopeId",
            "offset": 0,
            "slot": "1",
            "type": "t_bytes32"
          },
          {
            "astId": 11776,
            "contract": "src/contracts/acl/scope/RealmManager.sol:RealmManager",
            "label": "name",
            "offset": 0,
            "slot": "2",
            "type": "t_string_storage"
          },
          {
            "astId": 11778,
            "contract": "src/contracts/acl/scope/RealmManager.sol:RealmManager",
            "label": "roleLimit",
            "offset": 0,
            "slot": "3",
            "type": "t_uint16"
          },
          {
            "astId": 11780,
            "contract": "src/contracts/acl/scope/RealmManager.sol:RealmManager",
            "label": "policyCode",
            "offset": 2,
            "slot": "3",
            "type": "t_uint8"
          },
          {
            "astId": 11783,
            "contract": "src/contracts/acl/scope/RealmManager.sol:RealmManager",
            "label": "ptype",
            "offset": 3,
            "slot": "3",
            "type": "t_enum(PolicyType)11744"
          },
          {
            "astId": 11786,
            "contract": "src/contracts/acl/scope/RealmManager.sol:RealmManager",
            "label": "acstat",
            "offset": 4,
            "slot": "3",
            "type": "t_enum(ActivityStatus)11721"
          },
          {
            "astId": 11789,
            "contract": "src/contracts/acl/scope/RealmManager.sol:RealmManager",
            "label": "alstat",
            "offset": 5,
            "slot": "3",
            "type": "t_enum(AlterabilityStatus)11726"
          },
          {
            "astId": 11792,
            "contract": "src/contracts/acl/scope/RealmManager.sol:RealmManager",
            "label": "roles",
            "offset": 0,
            "slot": "4",
            "type": "t_struct(Bytes32Set)79676_storage"
          }
        ],
        "numberOfBytes": "192"
      },
      "t_struct(ProfileAccount)12018_storage": {
        "encoding": "inplace",
        "label": "struct IACLCommons.ProfileAccount",
        "members": [
          {
            "astId": 12017,
            "contract": "src/contracts/acl/scope/RealmManager.sol:RealmManager",
            "label": "profiles",
            "offset": 0,
            "slot": "0",
            "type": "t_array(t_bytes32)dyn_storage"
          }
        ],
        "numberOfBytes": "32"
      },
      "t_struct(ProfileEntity)12059_storage": {
        "encoding": "inplace",
        "label": "struct IACLCommons.ProfileEntity",
        "members": [
          {
            "astId": 12023,
            "contract": "src/contracts/acl/scope/RealmManager.sol:RealmManager",
            "label": "agents",
            "offset": 0,
            "slot": "0",
            "type": "t_mapping(t_bytes32,t_struct(BaseAgent)11756_storage)"
          },
          {
            "astId": 12028,
            "contract": "src/contracts/acl/scope/RealmManager.sol:RealmManager",
            "label": "scopes",
            "offset": 0,
            "slot": "1",
            "type": "t_mapping(t_bytes32,t_struct(BaseScope)11770_storage)"
          },
          {
            "astId": 12033,
            "contract": "src/contracts/acl/scope/RealmManager.sol:RealmManager",
            "label": "policies",
            "offset": 0,
            "slot": "2",
            "type": "t_mapping(t_bytes32,t_struct(PolicyEntity)11793_storage)"
          },
          {
            "astId": 12037,
            "contract": "src/contracts/acl/scope/RealmManager.sol:RealmManager",
            "label": "rolePolicyMap",
            "offset": 0,
            "slot": "3",
            "type": "t_mapping(t_bytes32,t_bytes32)"
          },
          {
            "astId": 12040,
            "contract": "src/contracts/acl/scope/RealmManager.sol:RealmManager",
            "label": "admins",
            "offset": 0,
            "slot": "4",
            "type": "t_struct(Bytes32Set)79676_storage"
          },
          {
            "astId": 12042,
            "contract": "src/contracts/acl/scope/RealmManager.sol:RealmManager",
            "label": "adminId",
            "offset": 0,
            "slot": "6",
            "type": "t_bytes32"
          },
          {
            "astId": 12044,
            "contract": "src/contracts/acl/scope/RealmManager.sol:RealmManager",
            "label": "name",
            "offset": 0,
            "slot": "7",
            "type": "t_string_storage"
          },
          {
            "astId": 12046,
            "contract": "src/contracts/acl/scope/RealmManager.sol:RealmManager",
            "label": "owner",
            "offset": 0,
            "slot": "8",
            "type": "t_address"
          },
          {
            "astId": 12049,
            "contract": "src/contracts/acl/scope/RealmManager.sol:RealmManager",
            "label": "acstat",
            "offset": 20,
            "slot": "8",
            "type": "t_enum(ActivityStatus)11721"
          },
          {
            "astId": 12052,
            "contract": "src/contracts/acl/scope/RealmManager.sol:RealmManager",
            "label": "alstat",
            "offset": 21,
            "slot": "8",
            "type": "t_enum(AlterabilityStatus)11726"
          },
          {
            "astId": 12055,
            "contract": "src/contracts/acl/scope/RealmManager.sol:RealmManager",
            "label": "registerLimits",
            "offset": 0,
            "slot": "9",
            "type": "t_struct(ProfileRegisterLimit)11993_storage"
          },
          {
            "astId": 12058,
            "contract": "src/contracts/acl/scope/RealmManager.sol:RealmManager",
            "label": "limits",
            "offset": 0,
            "slot": "10",
            "type": "t_struct(ProfileLimit)12014_storage"
          }
        ],
        "numberOfBytes": "352"
      },
      "t_struct(ProfileLimit)12014_storage": {
        "encoding": "inplace",
        "label": "struct IACLCommons.ProfileLimit",
        "members": [
          {
            "astId": 11995,
            "contract": "src/contracts/acl/scope/RealmManager.sol:RealmManager",
            "label": "profileCallLimit",
            "offset": 0,
            "slot": "0",
            "type": "t_uint32"
          },
          {
            "astId": 11997,
            "contract": "src/contracts/acl/scope/RealmManager.sol:RealmManager",
            "label": "contextLimit",
            "offset": 4,
            "slot": "0",
            "type": "t_uint32"
          },
          {
            "astId": 11999,
            "contract": "src/contracts/acl/scope/RealmManager.sol:RealmManager",
            "label": "memberLimit",
            "offset": 8,
            "slot": "0",
            "type": "t_uint24"
          },
          {
            "astId": 12001,
            "contract": "src/contracts/acl/scope/RealmManager.sol:RealmManager",
            "label": "realmLimit",
            "offset": 11,
            "slot": "0",
            "type": "t_uint16"
          },
          {
            "astId": 12003,
            "contract": "src/contracts/acl/scope/RealmManager.sol:RealmManager",
            "label": "domainLimit",
            "offset": 13,
            "slot": "0",
            "type": "t_uint16"
          },
          {
            "astId": 12005,
            "contract": "src/contracts/acl/scope/RealmManager.sol:RealmManager",
            "label": "memberCallLimit",
            "offset": 15,
            "slot": "0",
            "type": "t_uint16"
          },
          {
            "astId": 12007,
            "contract": "src/contracts/acl/scope/RealmManager.sol:RealmManager",
            "label": "typeRoleLimit",
            "offset": 17,
            "slot": "0",
            "type": "t_uint16"
          },
          {
            "astId": 12009,
            "contract": "src/contracts/acl/scope/RealmManager.sol:RealmManager",
            "label": "typeLimit",
            "offset": 19,
            "slot": "0",
            "type": "t_uint16"
          },
          {
            "astId": 12011,
            "contract": "src/contracts/acl/scope/RealmManager.sol:RealmManager",
            "label": "policyRoleLimit",
            "offset": 21,
            "slot": "0",
            "type": "t_uint16"
          },
          {
            "astId": 12013,
            "contract": "src/contracts/acl/scope/RealmManager.sol:RealmManager",
            "label": "functionLimit",
            "offset": 23,
            "slot": "0",
            "type": "t_uint8"
          }
        ],
        "numberOfBytes": "32"
      },
      "t_struct(ProfileRegisterLimit)11993_storage": {
        "encoding": "inplace",
        "label": "struct IACLCommons.ProfileRegisterLimit",
        "members": [
          {
            "astId": 11978,
            "contract": "src/contracts/acl/scope/RealmManager.sol:RealmManager",
            "label": "memberRegisterLimit",
            "offset": 0,
            "slot": "0",
            "type": "t_uint32"
          },
          {
            "astId": 11980,
            "contract": "src/contracts/acl/scope/RealmManager.sol:RealmManager",
            "label": "roleRegisterLimit",
            "offset": 4,
            "slot": "0",
            "type": "t_uint32"
          },
          {
            "astId": 11982,
            "contract": "src/contracts/acl/scope/RealmManager.sol:RealmManager",
            "label": "typeRegisterLimit",
            "offset": 8,
            "slot": "0",
            "type": "t_uint32"
          },
          {
            "astId": 11984,
            "contract": "src/contracts/acl/scope/RealmManager.sol:RealmManager",
            "label": "functionRegisterLimit",
            "offset": 12,
            "slot": "0",
            "type": "t_uint32"
          },
          {
            "astId": 11986,
            "contract": "src/contracts/acl/scope/RealmManager.sol:RealmManager",
            "label": "contextRegisterLimit",
            "offset": 16,
            "slot": "0",
            "type": "t_uint32"
          },
          {
            "astId": 11988,
            "contract": "src/contracts/acl/scope/RealmManager.sol:RealmManager",
            "label": "realmRegisterLimit",
            "offset": 20,
            "slot": "0",
            "type": "t_uint16"
          },
          {
            "astId": 11990,
            "contract": "src/contracts/acl/scope/RealmManager.sol:RealmManager",
            "label": "domainRegisterLimit",
            "offset": 22,
            "slot": "0",
            "type": "t_uint16"
          },
          {
            "astId": 11992,
            "contract": "src/contracts/acl/scope/RealmManager.sol:RealmManager",
            "label": "policyRegisterLimit",
            "offset": 24,
            "slot": "0",
            "type": "t_uint16"
          }
        ],
        "numberOfBytes": "32"
      },
      "t_struct(Set)79482_storage": {
        "encoding": "inplace",
        "label": "struct LEnumerableSet.Set",
        "members": [
          {
            "astId": 79477,
            "contract": "src/contracts/acl/scope/RealmManager.sol:RealmManager",
            "label": "_values",
            "offset": 0,
            "slot": "0",
            "type": "t_array(t_bytes32)dyn_storage"
          },
          {
            "astId": 79481,
            "contract": "src/contracts/acl/scope/RealmManager.sol:RealmManager",
            "label": "_indexes",
            "offset": 0,
            "slot": "1",
            "type": "t_mapping(t_bytes32,t_uint256)"
          }
        ],
        "numberOfBytes": "64"
      },
      "t_uint16": {
        "encoding": "inplace",
        "label": "uint16",
        "numberOfBytes": "2"
      },
      "t_uint24": {
        "encoding": "inplace",
        "label": "uint24",
        "numberOfBytes": "3"
      },
      "t_uint256": {
        "encoding": "inplace",
        "label": "uint256",
        "numberOfBytes": "32"
      },
      "t_uint32": {
        "encoding": "inplace",
        "label": "uint32",
        "numberOfBytes": "4"
      },
      "t_uint8": {
        "encoding": "inplace",
        "label": "uint8",
        "numberOfBytes": "1"
      }
    }
  }
}