{
  "address": "0x4aA5ff4583225018333787A8630c25BF67df516E",
  "abi": [
    {
      "inputs": [],
      "stateMutability": "nonpayable",
      "type": "constructor"
    },
    {
      "inputs": [
        {
          "internalType": "enum IACL.AuthorizationStatus",
          "name": "",
          "type": "uint8"
        }
      ],
      "name": "ACLActionForbidden",
      "type": "error"
    },
    {
      "inputs": [],
      "name": "ACLCallForbidden",
      "type": "error"
    },
    {
      "inputs": [],
      "name": "ACLContextActivityForbidden",
      "type": "error"
    },
    {
      "inputs": [],
      "name": "ACLContextNotFound",
      "type": "error"
    },
    {
      "inputs": [],
      "name": "ACLDomainActivityForbidden",
      "type": "error"
    },
    {
      "inputs": [],
      "name": "ACLDomainNotFound",
      "type": "error"
    },
    {
      "inputs": [],
      "name": "ACLFunctionActivityForbidden",
      "type": "error"
    },
    {
      "inputs": [],
      "name": "ACLFunctionNotFound",
      "type": "error"
    },
    {
      "inputs": [],
      "name": "ACLMemberActivityForbidden",
      "type": "error"
    },
    {
      "inputs": [],
      "name": "ACLMemberNotFound",
      "type": "error"
    },
    {
      "inputs": [],
      "name": "ACLPolicyForbidden",
      "type": "error"
    },
    {
      "inputs": [],
      "name": "ACLRealmActivityForbidden",
      "type": "error"
    },
    {
      "inputs": [],
      "name": "ACLRealmNotFound",
      "type": "error"
    },
    {
      "inputs": [],
      "name": "ACLRoleActivityForbidden",
      "type": "error"
    },
    {
      "inputs": [],
      "name": "ACLRoleNotFound",
      "type": "error"
    },
    {
      "inputs": [],
      "name": "ACLRoleScopeForbidden",
      "type": "error"
    },
    {
      "inputs": [],
      "name": "ACLTypeActivityForbidden",
      "type": "error"
    },
    {
      "inputs": [],
      "name": "ACLTypeNotFound",
      "type": "error"
    },
    {
      "inputs": [],
      "name": "ACLUnauthorized",
      "type": "error"
    },
    {
      "inputs": [],
      "name": "ACLUniverseActivityForbidden",
      "type": "error"
    },
    {
      "inputs": [],
      "name": "AdminAccessFunctionNotFound",
      "type": "error"
    },
    {
      "inputs": [],
      "name": "AdminAccessNotPermitted",
      "type": "error"
    },
    {
      "inputs": [],
      "name": "AdminAccessPolicyForbidden",
      "type": "error"
    },
    {
      "inputs": [],
      "name": "AdminAccessRoleActivityForbidden",
      "type": "error"
    },
    {
      "inputs": [],
      "name": "AdminAccessRoleNotFound",
      "type": "error"
    },
    {
      "inputs": [],
      "name": "AdminAccessTypeActivityForbidden",
      "type": "error"
    },
    {
      "inputs": [],
      "name": "AdminAccessTypeNotFound",
      "type": "error"
    },
    {
      "anonymous": false,
      "inputs": [
        {
          "indexed": true,
          "internalType": "address",
          "name": "sender",
          "type": "address"
        },
        {
          "indexed": true,
          "internalType": "address",
          "name": "proxy",
          "type": "address"
        },
        {
          "indexed": true,
          "internalType": "address",
          "name": "subject",
          "type": "address"
        },
        {
          "indexed": false,
          "internalType": "string",
          "name": "name",
          "type": "string"
        },
        {
          "indexed": false,
          "internalType": "string",
          "name": "version",
          "type": "string"
        },
        {
          "indexed": false,
          "internalType": "uint16",
          "name": "initCount",
          "type": "uint16"
        }
      ],
      "name": "Initialized",
      "type": "event"
    },
    {
      "anonymous": false,
      "inputs": [
        {
          "indexed": true,
          "internalType": "address",
          "name": "sender",
          "type": "address"
        },
        {
          "indexed": true,
          "internalType": "address",
          "name": "proxy",
          "type": "address"
        },
        {
          "indexed": false,
          "internalType": "address",
          "name": "acl",
          "type": "address"
        }
      ],
      "name": "ProxyAccessControlUpdated",
      "type": "event"
    },
    {
      "anonymous": false,
      "inputs": [
        {
          "indexed": true,
          "internalType": "address",
          "name": "sender",
          "type": "address"
        },
        {
          "indexed": true,
          "internalType": "address",
          "name": "proxy",
          "type": "address"
        },
        {
          "indexed": false,
          "internalType": "address",
          "name": "newAdmin",
          "type": "address"
        }
      ],
      "name": "ProxyLocalAdminUpdated",
      "type": "event"
    },
    {
      "anonymous": false,
      "inputs": [
        {
          "indexed": true,
          "internalType": "address",
          "name": "sender",
          "type": "address"
        },
        {
          "indexed": true,
          "internalType": "address",
          "name": "proxy",
          "type": "address"
        },
        {
          "indexed": false,
          "internalType": "enum IBaseProxy.ProxySafeModeStatus",
          "name": "sstat",
          "type": "uint8"
        }
      ],
      "name": "ProxySafeModeUpdated",
      "type": "event"
    },
    {
      "anonymous": false,
      "inputs": [
        {
          "indexed": true,
          "internalType": "address",
          "name": "sender",
          "type": "address"
        },
        {
          "indexed": true,
          "internalType": "address",
          "name": "proxy",
          "type": "address"
        },
        {
          "indexed": false,
          "internalType": "enum IBaseProxy.ProxyUpdatabilityStatus",
          "name": "ustat",
          "type": "uint8"
        }
      ],
      "name": "ProxyUpdatabilityUpdated",
      "type": "event"
    },
    {
      "anonymous": false,
      "inputs": [
        {
          "indexed": true,
          "internalType": "address",
          "name": "sender",
          "type": "address"
        },
        {
          "indexed": true,
          "internalType": "address",
          "name": "proxy",
          "type": "address"
        },
        {
          "indexed": true,
          "internalType": "address",
          "name": "newImplementation",
          "type": "address"
        }
      ],
      "name": "ProxyUpgraded",
      "type": "event"
    },
    {
      "anonymous": false,
      "inputs": [
        {
          "indexed": true,
          "internalType": "address",
          "name": "sender",
          "type": "address"
        },
        {
          "indexed": true,
          "internalType": "bytes32",
          "name": "universeId",
          "type": "bytes32"
        },
        {
          "indexed": false,
          "internalType": "enum IACLCommons.ActivityStatus",
          "name": "acstat",
          "type": "uint8"
        }
      ],
      "name": "UniverseActivityUpdated",
      "type": "event"
    },
    {
      "anonymous": false,
      "inputs": [
        {
          "indexed": true,
          "internalType": "address",
          "name": "sender",
          "type": "address"
        },
        {
          "indexed": true,
          "internalType": "bytes32",
          "name": "universeId",
          "type": "bytes32"
        },
        {
          "indexed": true,
          "internalType": "bytes32",
          "name": "adminId",
          "type": "bytes32"
        }
      ],
      "name": "UniverseAdminUpdated",
      "type": "event"
    },
    {
      "anonymous": false,
      "inputs": [
        {
          "indexed": true,
          "internalType": "address",
          "name": "sender",
          "type": "address"
        },
        {
          "indexed": true,
          "internalType": "bytes32",
          "name": "universeId",
          "type": "bytes32"
        },
        {
          "indexed": false,
          "internalType": "enum IACLCommons.AlterabilityStatus",
          "name": "alstat",
          "type": "uint8"
        }
      ],
      "name": "UniverseAlterabilityUpdated",
      "type": "event"
    },
    {
      "anonymous": false,
      "inputs": [
        {
          "indexed": true,
          "internalType": "address",
          "name": "sender",
          "type": "address"
        },
        {
          "indexed": true,
          "internalType": "bytes32",
          "name": "universeId",
          "type": "bytes32"
        },
        {
          "indexed": false,
          "internalType": "uint16",
          "name": "domainLimit",
          "type": "uint16"
        }
      ],
      "name": "UniverseDomainLimitUpdated",
      "type": "event"
    },
    {
      "stateMutability": "payable",
      "type": "fallback"
    },
    {
      "inputs": [],
      "name": "CTX_MESSAGE_TYPEHASH",
      "outputs": [
        {
          "internalType": "bytes32",
          "name": "",
          "type": "bytes32"
        }
      ],
      "stateMutability": "view",
      "type": "function"
    },
    {
      "inputs": [],
      "name": "MEMBER_SIGNATURE_MESSAGE_TYPEHASH",
      "outputs": [
        {
          "internalType": "bytes32",
          "name": "",
          "type": "bytes32"
        }
      ],
      "stateMutability": "view",
      "type": "function"
    },
    {
      "inputs": [],
      "name": "PREDICT_CTX_MESSAGE_TYPEHASH",
      "outputs": [
        {
          "internalType": "bytes32",
          "name": "",
          "type": "bytes32"
        }
      ],
      "stateMutability": "view",
      "type": "function"
    },
    {
      "inputs": [],
      "name": "PROFILE_CTX_MESSAGE_TYPEHASH",
      "outputs": [
        {
          "internalType": "bytes32",
          "name": "",
          "type": "bytes32"
        }
      ],
      "stateMutability": "view",
      "type": "function"
    },
    {
      "inputs": [],
      "name": "PROFILE_MEMBER_SIGNATURE_MESSAGE_TYPEHASH",
      "outputs": [
        {
          "internalType": "bytes32",
          "name": "",
          "type": "bytes32"
        }
      ],
      "stateMutability": "view",
      "type": "function"
    },
    {
      "inputs": [],
      "name": "PROFILE_PREDICT_CTX_MESSAGE_TYPEHASH",
      "outputs": [
        {
          "internalType": "bytes32",
          "name": "",
          "type": "bytes32"
        }
      ],
      "stateMutability": "view",
      "type": "function"
    },
    {
      "inputs": [],
      "name": "TYPE_HASH",
      "outputs": [
        {
          "internalType": "bytes32",
          "name": "",
          "type": "bytes32"
        }
      ],
      "stateMutability": "view",
      "type": "function"
    },
    {
      "inputs": [],
      "name": "accessControlManager",
      "outputs": [
        {
          "internalType": "address",
          "name": "",
          "type": "address"
        }
      ],
      "stateMutability": "view",
      "type": "function"
    },
    {
      "inputs": [],
      "name": "contractName",
      "outputs": [
        {
          "internalType": "string",
          "name": "",
          "type": "string"
        }
      ],
      "stateMutability": "view",
      "type": "function"
    },
    {
      "inputs": [],
      "name": "contractVersion",
      "outputs": [
        {
          "internalType": "string",
          "name": "",
          "type": "string"
        }
      ],
      "stateMutability": "view",
      "type": "function"
    },
    {
      "inputs": [],
      "name": "domainSeparator",
      "outputs": [
        {
          "internalType": "bytes32",
          "name": "",
          "type": "bytes32"
        }
      ],
      "stateMutability": "view",
      "type": "function"
    },
    {
      "inputs": [],
      "name": "getLibrary",
      "outputs": [
        {
          "internalType": "address",
          "name": "",
          "type": "address"
        }
      ],
      "stateMutability": "pure",
      "type": "function"
    },
    {
      "inputs": [],
      "name": "initVersion",
      "outputs": [
        {
          "internalType": "uint16",
          "name": "",
          "type": "uint16"
        }
      ],
      "stateMutability": "view",
      "type": "function"
    },
    {
      "inputs": [
        {
          "internalType": "string",
          "name": "contractName",
          "type": "string"
        },
        {
          "internalType": "string",
          "name": "contractVersion",
          "type": "string"
        },
        {
          "internalType": "address",
          "name": "accessControlManager",
          "type": "address"
        }
      ],
      "name": "initialize",
      "outputs": [],
      "stateMutability": "nonpayable",
      "type": "function"
    },
    {
      "inputs": [],
      "name": "localAdmin",
      "outputs": [
        {
          "internalType": "address",
          "name": "",
          "type": "address"
        }
      ],
      "stateMutability": "view",
      "type": "function"
    },
    {
      "inputs": [],
      "name": "proxiableUUID",
      "outputs": [
        {
          "internalType": "bytes32",
          "name": "",
          "type": "bytes32"
        }
      ],
      "stateMutability": "view",
      "type": "function"
    },
    {
      "inputs": [],
      "name": "safeModeStatus",
      "outputs": [
        {
          "internalType": "enum IBaseProxy.ProxySafeModeStatus",
          "name": "",
          "type": "uint8"
        }
      ],
      "stateMutability": "view",
      "type": "function"
    },
    {
      "inputs": [
        {
          "internalType": "address",
          "name": "acl",
          "type": "address"
        }
      ],
      "name": "setAccessControlManager",
      "outputs": [
        {
          "internalType": "bool",
          "name": "",
          "type": "bool"
        }
      ],
      "stateMutability": "nonpayable",
      "type": "function"
    },
    {
      "inputs": [
        {
          "internalType": "address",
          "name": "newLocalAdmin",
          "type": "address"
        }
      ],
      "name": "setLocalAdmin",
      "outputs": [
        {
          "internalType": "bool",
          "name": "",
          "type": "bool"
        }
      ],
      "stateMutability": "nonpayable",
      "type": "function"
    },
    {
      "inputs": [
        {
          "internalType": "enum IBaseProxy.ProxySafeModeStatus",
          "name": "sstat",
          "type": "uint8"
        }
      ],
      "name": "setSafeModeStatus",
      "outputs": [
        {
          "internalType": "bool",
          "name": "",
          "type": "bool"
        }
      ],
      "stateMutability": "nonpayable",
      "type": "function"
    },
    {
      "inputs": [
        {
          "internalType": "enum IBaseProxy.ProxyUpdatabilityStatus",
          "name": "ustat",
          "type": "uint8"
        }
      ],
      "name": "setUpdatabilityStatus",
      "outputs": [
        {
          "internalType": "bool",
          "name": "",
          "type": "bool"
        }
      ],
      "stateMutability": "nonpayable",
      "type": "function"
    },
    {
      "inputs": [],
      "name": "subjectAddress",
      "outputs": [
        {
          "internalType": "address",
          "name": "",
          "type": "address"
        }
      ],
      "stateMutability": "view",
      "type": "function"
    },
    {
      "inputs": [
        {
          "internalType": "bytes4",
          "name": "interfaceId",
          "type": "bytes4"
        }
      ],
      "name": "supportsInterface",
      "outputs": [
        {
          "internalType": "bool",
          "name": "",
          "type": "bool"
        }
      ],
      "stateMutability": "view",
      "type": "function"
    },
    {
      "inputs": [
        {
          "internalType": "address",
          "name": "account",
          "type": "address"
        }
      ],
      "name": "universeCheckAdmin",
      "outputs": [
        {
          "internalType": "bool",
          "name": "",
          "type": "bool"
        }
      ],
      "stateMutability": "view",
      "type": "function"
    },
    {
      "inputs": [],
      "name": "universeGetDomains",
      "outputs": [
        {
          "internalType": "bytes32[]",
          "name": "",
          "type": "bytes32[]"
        }
      ],
      "stateMutability": "view",
      "type": "function"
    },
    {
      "inputs": [],
      "name": "universeGetInfo",
      "outputs": [
        {
          "components": [
            {
              "internalType": "bytes32",
              "name": "id",
              "type": "bytes32"
            },
            {
              "internalType": "bytes32",
              "name": "adminId",
              "type": "bytes32"
            },
            {
              "internalType": "uint16",
              "name": "domainLimit",
              "type": "uint16"
            },
            {
              "internalType": "uint16",
              "name": "domainCount",
              "type": "uint16"
            },
            {
              "internalType": "uint32",
              "name": "referredByAgent",
              "type": "uint32"
            },
            {
              "internalType": "enum IACLCommons.ScopeType",
              "name": "stype",
              "type": "uint8"
            },
            {
              "internalType": "enum IACLCommons.AgentType",
              "name": "adminType",
              "type": "uint8"
            },
            {
              "internalType": "enum IACLCommons.ActivityStatus",
              "name": "acstat",
              "type": "uint8"
            },
            {
              "internalType": "enum IACLCommons.AlterabilityStatus",
              "name": "alstat",
              "type": "uint8"
            }
          ],
          "internalType": "struct IUniverseManagement.UniverseInfo",
          "name": "",
          "type": "tuple"
        }
      ],
      "stateMutability": "view",
      "type": "function"
    },
    {
      "inputs": [
        {
          "components": [
            {
              "internalType": "address",
              "name": "account",
              "type": "address"
            },
            {
              "internalType": "uint64",
              "name": "expiredAt",
              "type": "uint64"
            },
            {
              "internalType": "bytes",
              "name": "signature",
              "type": "bytes"
            }
          ],
          "internalType": "struct IACLCommons.MemberSignature",
          "name": "memberSign",
          "type": "tuple"
        },
        {
          "internalType": "enum IACLCommons.ActivityStatus",
          "name": "acstat",
          "type": "uint8"
        }
      ],
      "name": "universeUpdateActivityStatus",
      "outputs": [
        {
          "internalType": "enum IACLCommons.ActivityStatus",
          "name": "",
          "type": "uint8"
        }
      ],
      "stateMutability": "nonpayable",
      "type": "function"
    },
    {
      "inputs": [
        {
          "components": [
            {
              "internalType": "address",
              "name": "account",
              "type": "address"
            },
            {
              "internalType": "uint64",
              "name": "expiredAt",
              "type": "uint64"
            },
            {
              "internalType": "bytes",
              "name": "signature",
              "type": "bytes"
            }
          ],
          "internalType": "struct IACLCommons.MemberSignature",
          "name": "memberSign",
          "type": "tuple"
        },
        {
          "internalType": "bytes32",
          "name": "newAdminId",
          "type": "bytes32"
        }
      ],
      "name": "universeUpdateAdmin",
      "outputs": [
        {
          "internalType": "bool",
          "name": "",
          "type": "bool"
        }
      ],
      "stateMutability": "nonpayable",
      "type": "function"
    },
    {
      "inputs": [
        {
          "components": [
            {
              "internalType": "address",
              "name": "account",
              "type": "address"
            },
            {
              "internalType": "uint64",
              "name": "expiredAt",
              "type": "uint64"
            },
            {
              "internalType": "bytes",
              "name": "signature",
              "type": "bytes"
            }
          ],
          "internalType": "struct IACLCommons.MemberSignature",
          "name": "memberSign",
          "type": "tuple"
        },
        {
          "internalType": "enum IACLCommons.AlterabilityStatus",
          "name": "alstat",
          "type": "uint8"
        }
      ],
      "name": "universeUpdateAlterabilityStatus",
      "outputs": [
        {
          "internalType": "enum IACLCommons.AlterabilityStatus",
          "name": "",
          "type": "uint8"
        }
      ],
      "stateMutability": "nonpayable",
      "type": "function"
    },
    {
      "inputs": [
        {
          "components": [
            {
              "internalType": "address",
              "name": "account",
              "type": "address"
            },
            {
              "internalType": "uint64",
              "name": "expiredAt",
              "type": "uint64"
            },
            {
              "internalType": "bytes",
              "name": "signature",
              "type": "bytes"
            }
          ],
          "internalType": "struct IACLCommons.MemberSignature",
          "name": "memberSign",
          "type": "tuple"
        },
        {
          "internalType": "uint16",
          "name": "domainLimit",
          "type": "uint16"
        }
      ],
      "name": "universeUpdateDomainLimit",
      "outputs": [
        {
          "internalType": "bool",
          "name": "",
          "type": "bool"
        }
      ],
      "stateMutability": "nonpayable",
      "type": "function"
    },
    {
      "inputs": [],
      "name": "updatabilityStatus",
      "outputs": [
        {
          "internalType": "enum IBaseProxy.ProxyUpdatabilityStatus",
          "name": "",
          "type": "uint8"
        }
      ],
      "stateMutability": "view",
      "type": "function"
    },
    {
      "inputs": [
        {
          "internalType": "address",
          "name": "newImplementation",
          "type": "address"
        },
        {
          "internalType": "bytes",
          "name": "data",
          "type": "bytes"
        },
        {
          "internalType": "bool",
          "name": "forceCall",
          "type": "bool"
        }
      ],
      "name": "upgradeTo",
      "outputs": [
        {
          "internalType": "bytes",
          "name": "",
          "type": "bytes"
        }
      ],
      "stateMutability": "nonpayable",
      "type": "function"
    },
    {
      "inputs": [
        {
          "internalType": "address",
          "name": "recepient",
          "type": "address"
        }
      ],
      "name": "withdrawBalance",
      "outputs": [
        {
          "internalType": "uint256",
          "name": "",
          "type": "uint256"
        }
      ],
      "stateMutability": "nonpayable",
      "type": "function"
    },
    {
      "stateMutability": "payable",
      "type": "receive"
    }
  ],
  "transactionHash": "0xdd0453c99eff5946de0f6717ec378320369e72c922bddba1fdf8fce74cf5feb6",
  "args": [],
  "numDeployments": 1,
  "solcInputHash": "bf3d37f12163392c6a812b5af749abec",
  "bytecode": "0x60a0604052306080523480156200001557600080fd5b506200004360017f360894a13ba1a3210667c828492db98dca3e2076cc3735a920a3ca505d382bbd620000fd565b7f360894a13ba1a3210667c828492db98dca3e2076cc3735a920a3ca505d382bbc1462000074576200007462000125565b620000a160017fb53127684a568b3173ae13b9f8a6016e243e63b6e8ee1178d6a717850b5d6104620000fd565b60008051602062003f8983398151915214620000c157620000c162000125565b60008051602062003f8983398151915280546001600160a01b0319163317905560028054600160a01b61ffff60a01b199091161790556200013b565b818103818111156200011f57634e487b7160e01b600052601160045260246000fd5b92915050565b634e487b7160e01b600052600160045260246000fd5b608051613dde620001ab600039600081816106ef01528181610738015281816109270152818161096701528181610dc501528181610e2b01528181610e6b015281816116e201528181611722015281816119a0015281816119e001528181611b540152611b940152613dde6000f3fe6080604052600436106101da5760003560e01c80637345b8d311610101578063a98ffc951161009a578063f0b15def1161006c578063f0b15def1461061c578063f698da2514610650578063f708ceb014610665578063f94a0adb14610685578063fcc401781461069a57005b8063a98ffc951461059e578063b4a0bdf3146105be578063d9dc1f19146105dc578063e562fe7f146105fc57005b80637b7af58b116100d35780637b7af58b146105165780639b97b53414610536578063a0a8e4601461056a578063a304e3531461057f57005b80637345b8d31461049a578063756af45f146104ba57806375d0c0dc146104da5780637678922e146104ef57005b806341f0e2e91161017357806358dbc45d1161014557806358dbc45d146103ea57806364d4c819146104175780637147855d1461044b57806372ef0ea71461047857005b806341f0e2e91461034c5780634888f482146103795780634bf0414d146103a157806352d1902d146103d557005b80631b452f4b116101ac5780631b452f4b1461027a578063301c1280146102bc57806334109de2146102f057806338d38c971461032457005b806301ffc9a7146101e3578063077f224a146102185780630e32cb861461023857806311d73a541461025857005b366101e157005b005b3480156101ef57600080fd5b506102036101fe366004613422565b6106ba565b60405190151581526020015b60405180910390f35b34801561022457600080fd5b506101e16102333660046134a5565b6106e5565b34801561024457600080fd5b50610203610253366004613526565b61091b565b34801561026457600080fd5b5061026d610c29565b60405161020f9190613541565b34801561028657600080fd5b506102ae7f7bfb2abd6084c8ce20d7ff92c1620e7e7267603f0eac446b9176959d243306bc81565b60405190815260200161020f565b3480156102c857600080fd5b506102ae7f541cf898e7c3085cbc6b7402ba06e7237285bc4bd5baa510e708e35537a71ffd81565b3480156102fc57600080fd5b506102ae7f7aabe2571874f2a330ea11c8972d9cc3792d973efc6b36e3e29005861a34418881565b34801561033057600080fd5b50610339610c79565b60405161ffff909116815260200161020f565b34801561035857600080fd5b5061036c6103673660046135aa565b610c8d565b60405161020f919061362f565b34801561038557600080fd5b50600254600160a81b900460ff165b60405161020f9190613652565b3480156103ad57600080fd5b506102ae7f9027b951cbdf8eff67da583391d218a57a89ec1ebfcb1c66da188e8531804d5581565b3480156103e157600080fd5b506102ae610db8565b3480156103f657600080fd5b506103ff610e15565b6040516001600160a01b03909116815260200161020f565b34801561042357600080fd5b506102ae7f8b73c3c69bb8fe3d512ecc4cf759cc79239f7b179b0ffacaa9a75d522b39400f81565b34801561045757600080fd5b5061046b61046636600461368e565b610e1f565b60405161020f91906137b0565b34801561048457600080fd5b5061048d610f80565b60405161020f91906137d3565b3480156104a657600080fd5b5061036c6104b53660046135aa565b6110fa565b3480156104c657600080fd5b506102ae6104d5366004613526565b611269565b3480156104e657600080fd5b5061046b61132e565b3480156104fb57600080fd5b50738a343E28B50Ae81b40553855E4C4a46751063eC86103ff565b34801561052257600080fd5b50610203610531366004613874565b6113c0565b34801561054257600080fd5b506102ae7fdee69d384475c3656c17c592e94a2bbfd2a1998cce0c85f535569415a15863b881565b34801561057657600080fd5b5061046b611668565b34801561058b57600080fd5b50600254600160a01b900460ff16610394565b3480156105aa57600080fd5b506102036105b9366004613526565b611677565b3480156105ca57600080fd5b506002546001600160a01b03166103ff565b3480156105e857600080fd5b506102036105f7366004613526565b6116d6565b34801561060857600080fd5b506102036106173660046138b9565b61188c565b34801561062857600080fd5b506102ae7ffc434588684348dd50856b075c47bed14245c1030aa04c32955af5549981462781565b34801561065c57600080fd5b506102ae61198a565b34801561067157600080fd5b50610203610680366004613914565b611994565b34801561069157600080fd5b506103ff611b3e565b3480156106a657600080fd5b506102036106b5366004613914565b611b48565b60006001600160e01b03198216630cc3533560e31b14806106df57506106df82611cd3565b92915050565b6001600160a01b037f00000000000000000000000000000000000000000000000000000000000000001630036107365760405162461bcd60e51b815260040161072d90613931565b60405180910390fd5b7f00000000000000000000000000000000000000000000000000000000000000006001600160a01b0316610768611d23565b6001600160a01b03161461078e5760405162461bcd60e51b815260040161072d90613957565b33610797611d44565b6001600160a01b0316146107dd5760405162461bcd60e51b815260206004820152600d60248201526c1058d8d95cdcc811195b9a5959609a1b604482015260640161072d565b604e5462010000900460ff16158080156107ff5750604e54600161ffff909116105b8061081a5750303b15801561081a5750604e5461ffff166001145b6108665760405162461bcd60e51b815260206004820152601c60248201527f436f6e747261637420416c726561647920496e697469616c697a656400000000604482015260640161072d565b604e805461ffff19166001179055801561088c57604e805462ff00001916620100001790555b6108998686868686611d6c565b6108a1611d23565b6001600160a01b031630336001600160a01b03167f247ab7b17ee489fa140c6666edc3822eefed2727610cd6e37192462b87244c60898989896108e7604e5461ffff1690565b6040516108f89594939291906139a6565b60405180910390a4801561091357604e805462ff0000191690555b505050505050565b60006001600160a01b037f00000000000000000000000000000000000000000000000000000000000000001630036109655760405162461bcd60e51b815260040161072d90613931565b7f00000000000000000000000000000000000000000000000000000000000000006001600160a01b0316610997611d23565b6001600160a01b0316146109bd5760405162461bcd60e51b815260040161072d90613957565b6000600254600160a01b900460ff1660018111156109dd576109dd6135fc565b146109fa5760405162461bcd60e51b815260040161072d906139e4565b6001600254600160a81b900460ff166001811115610a1a57610a1a6135fc565b14610a375760405162461bcd60e51b815260040161072d90613a06565b6001600160a01b03821615801590610a5857506001600160a01b0382163b15155b610a745760405162461bcd60e51b815260040161072d90613a31565b6002546001600160a01b031615610ad3576000610a9763071965c360e11b611d80565b90506000816013811115610aad57610aad6135fc565b14610acd5780604051637f0911d160e01b815260040161072d9190613a5b565b50610b22565b33610adc611d44565b6001600160a01b031614610b225760405162461bcd60e51b815260206004820152600d60248201526c1058d8d95cdcc811195b9a5959609a1b604482015260640161072d565b6040516301ffc9a760e01b81526331501c3960e01b60048201526001600160a01b038316906301ffc9a790602401602060405180830381865afa158015610b6d573d6000803e3d6000fd5b505050506040513d601f19601f82011682018060405250810190610b919190613a6f565b610bcb5760405162461bcd60e51b815260206004820152600b60248201526a125b1b1959d85b081050d360aa1b604482015260640161072d565b600280546001600160a01b0384166001600160a01b031990911681179091556040805191825251309133917f410bf468eebeeed60acaedb904afb2db7c0bb0131f7d14c3714d81b14fe8ed3c9181900360200190a35060015b919050565b60606000610c65604051602001610c3f90613a8c565b604051602081830303815290604052805190602001206044611e0b90919063ffffffff16565b9050610c7381600401611eed565b91505090565b6000610c88604e5461ffff1690565b905090565b6000808080610ca3866341f0e2e960e01b611ef8565b9250925092506000610cb5838561215b565b90506001866003811115610ccb57610ccb6135fc565b11610d0b5760405162461bcd60e51b815260206004820152601060248201526f496c6c6567616c20416374697669747960801b604482015260640161072d565b60018101805487919061ff001916610100836003811115610d2e57610d2e6135fc565b0217905550604051602001610d4290613a8c565b60405160208183030381529060405280519060200120826001600160a01b03167fec6424ff92f5117d0697ad0df2e9bf4fa92484e1740ce8e7bcc73d55beb768a98360000160010160019054906101000a900460ff16604051610da5919061362f565b60405180910390a3509395945050505050565b6000306001600160a01b037f00000000000000000000000000000000000000000000000000000000000000001614610e025760405162461bcd60e51b815260040161072d90613931565b50600080516020613d8983398151915290565b6000610c88611d23565b60606001600160a01b037f0000000000000000000000000000000000000000000000000000000000000000163003610e695760405162461bcd60e51b815260040161072d90613931565b7f00000000000000000000000000000000000000000000000000000000000000006001600160a01b0316610e9b611d23565b6001600160a01b031614610ec15760405162461bcd60e51b815260040161072d90613957565b6000600254600160a01b900460ff166001811115610ee157610ee16135fc565b14610efe5760405162461bcd60e51b815260040161072d906139e4565b6001600254600160a81b900460ff166001811115610f1e57610f1e6135fc565b14610f3b5760405162461bcd60e51b815260040161072d90613a06565b6001600160a01b0384163b610f625760405162461bcd60e51b815260040161072d90613a31565b610f6b846121e5565b610f76848484612283565b90505b9392505050565b610fce604080516101208101825260008082526020820181905291810182905260608101829052608081018290529060a0820190815260200160008152602001600081526020016000905290565b6000610fe2604051602001610c3f90613a8c565b9050604051806101200160405280604051602001610fff90613a8c565b60408051601f1981840301815291815281516020928301208352845491830191909152600284015461ffff169082015260600161103e6004840161243b565b61ffff168152600183015463ffffffff6301000000820416602083015260409091019060ff166005811115611075576110756135fc565b8152825460009081526044602090815260409091206001015491019060ff1660038111156110a5576110a56135fc565b81526001830154602090910190610100900460ff1660038111156110cb576110cb6135fc565b8152600183015460209091019062010000900460ff1660038111156110f2576110f26135fc565b905292915050565b600080808061111086637345b8d360e01b611ef8565b925092509250600061112a604051602001610c3f90613a8c565b805490915060009061113d908587612445565b90506000816007811115611153576111536135fc565b1461116157611161816124d1565b6000876003811115611175576111756135fc565b036111b95760405162461bcd60e51b8152602060048201526014602482015273496c6c6567616c20416c7465726162696c69747960601b604482015260640161072d565b60018201805488919062ff00001916620100008360038111156111de576111de6135fc565b02179055506040516020016111f290613a8c565b60405160208183030381529060405280519060200120836001600160a01b03167f6f18eb5ada03904461cd68c3666e6c9847617082587ad3e8ece656c06d645cea8460000160010160029054906101000a900460ff16604051611255919061362f565b60405180910390a350949695505050505050565b600080600254600160a01b900460ff16600181111561128a5761128a6135fc565b146112a75760405162461bcd60e51b815260040161072d906139e4565b60006112b963756af45f60e01b611d80565b905060008160138111156112cf576112cf6135fc565b146112ef5780604051637f0911d160e01b815260040161072d9190613a5b565b60405147906001600160a01b038516904780156108fc02916000818181858888f19350505050158015611326573d6000803e3d6000fd5b509392505050565b60606000805461133d90613aad565b80601f016020809104026020016040519081016040528092919081815260200182805461136990613aad565b80156113b65780601f1061138b576101008083540402835291602001916113b6565b820191906000526020600020905b81548152906001019060200180831161139957829003601f168201915b5050505050905090565b60008080806113d686637b7af58b60e01b611ef8565b92509250925060006113e8838561215b565b805490915086148015906113fb57508515155b6114395760405162461bcd60e51b815260206004820152600f60248201526e125b1b1959d85b0810591b5a5b9259608a1b604482015260640161072d565b600086815260446020526040902060018082015460ff166003811115611461576114616135fc565b116114ae5760405162461bcd60e51b815260206004820152601760248201527f496c6c6567616c2041646d696e204167656e7454797065000000000000000000604482015260640161072d565b6002600182015460ff1660038111156114c9576114c96135fc565b0361157957600061152c604051602001611506907f545950452e4c4956454c595f56455253452e4c4956454c595f4d4153544552008152601f0190565b60405160208183030381529060405280519060200120604461266890919063ffffffff16565b905061153b600682018961273f565b6115735760405162461bcd60e51b8152602060048201526009602482015268139bdd08119bdd5b9960ba1b604482015260640161072d565b506115fa565b6040517f545950452e4c4956454c595f56455253452e4c4956454c595f4d41535445520060208201528790603f0160405160208183030381529060405280519060200120146115fa5760405162461bcd60e51b815260206004820152600d60248201526c24b63632b3b0b61020b236b4b760991b604482015260640161072d565b868255604051879061160e90602001613a8c565b60405160208183030381529060405280519060200120846001600160a01b03167f52a2fffd45b0504de8fa41a6226183828a7a9548600837be3dc28534005e4cab60405160405180910390a4506001979650505050505050565b60606001805461133d90613aad565b60008061168383612757565b905060006116bd604051602001611506907f545950452e4c4956454c595f56455253452e4c4956454c595f4d4153544552008152601f0190565b6000928352600501602052506040902054151592915050565b60006001600160a01b037f00000000000000000000000000000000000000000000000000000000000000001630036117205760405162461bcd60e51b815260040161072d90613931565b7f00000000000000000000000000000000000000000000000000000000000000006001600160a01b0316611752611d23565b6001600160a01b0316146117785760405162461bcd60e51b815260040161072d90613957565b6000600254600160a01b900460ff166001811115611798576117986135fc565b146117b55760405162461bcd60e51b815260040161072d906139e4565b6001600254600160a81b900460ff1660018111156117d5576117d56135fc565b146117f25760405162461bcd60e51b815260040161072d90613a06565b600061180463d9dc1f1960e01b611d80565b9050600081601381111561181a5761181a6135fc565b1461183a5780604051637f0911d160e01b815260040161072d9190613a5b565b6001600160a01b03831661187a5760405162461bcd60e51b8152602060048201526007602482015266125b9d985b1a5960ca1b604482015260640161072d565b61188383612796565b50600192915050565b60008080806118a28663e562fe7f60e01b611ef8565b92509250925060006118b4838561215b565b90506118c28160040161243b565b8661ffff16116119045760405162461bcd60e51b815260206004820152600d60248201526c125b1b1959d85b08131a5b5a5d609a1b604482015260640161072d565b60028101805461ffff191661ffff881617905560405161192690602001613a8c565b60408051601f1981840301815290829052805160209182012061ffff89168352916001600160a01b038516917fd4ea4821551df6ab1290b0f0b279ed4b9a08702888dc31ce5e4bdd3c09df336c910160405180910390a35060019695505050505050565b6000610c8861280d565b60006001600160a01b037f00000000000000000000000000000000000000000000000000000000000000001630036119de5760405162461bcd60e51b815260040161072d90613931565b7f00000000000000000000000000000000000000000000000000000000000000006001600160a01b0316611a10611d23565b6001600160a01b031614611a365760405162461bcd60e51b815260040161072d90613957565b6000611a45604e5461ffff1690565b61ffff1611611a815760405162461bcd60e51b81526020600482015260086024820152671393d5081253925560c21b604482015260640161072d565b6000611a93630f708ceb60e41b611d80565b90506000816013811115611aa957611aa96135fc565b14611ac95780604051637f0911d160e01b815260040161072d9190613a5b565b6002805484919060ff60a01b1916600160a01b836001811115611aee57611aee6135fc565b021790555030336001600160a01b03167fc08ec585c25f1907baaab6f278c5994531a2e34c59935b3fcfe813067a3b487885604051611b2d9190613652565b60405180910390a350600192915050565b6000610c88611d44565b60006001600160a01b037f0000000000000000000000000000000000000000000000000000000000000000163003611b925760405162461bcd60e51b815260040161072d90613931565b7f00000000000000000000000000000000000000000000000000000000000000006001600160a01b0316611bc4611d23565b6001600160a01b031614611bea5760405162461bcd60e51b815260040161072d90613957565b6000600254600160a01b900460ff166001811115611c0a57611c0a6135fc565b14611c275760405162461bcd60e51b815260040161072d906139e4565b6000611c39631f98802f60e31b611d80565b90506000816013811115611c4f57611c4f6135fc565b14611c6f5780604051637f0911d160e01b815260040161072d9190613a5b565b6002805484919060ff60a81b1916600160a81b836001811115611c9457611c946135fc565b021790555030336001600160a01b03167ff5912c5e436152157ed2b4a84bc313b4b1fe09a15b941f195d23c99a1b8c45ad85604051611b2d9190613652565b60006001600160e01b03198216633d817cff60e01b1480611d0457506001600160e01b031982166352d1902d60e01b145b806106df57506301ffc9a760e01b6001600160e01b03198316146106df565b6000600080516020613d898339815191525b546001600160a01b0316919050565b60007fb53127684a568b3173ae13b9f8a6016e243e63b6e8ee1178d6a717850b5d6103611d35565b611d7985858585856128c1565b5050505050565b6002546040805163172cb29d60e11b81523060048201526001600160e01b03198416602482015233604482015290516000926001600160a01b031691632e59653a916064808301926020929190829003018187875af1158015611de7573d6000803e3d6000fd5b505050506040513d601f19601f820116820180604052508101906106df9190613ae1565b600081815260018301602052604081206005600182015460ff166005811115611e3657611e366135fc565b03611e535760408051848152600186016020820152209150611ee6565b6000600182015460ff166005811115611e6e57611e6e6135fc565b03611eab5760405162461bcd60e51b815260206004820152600d60248201526c11d25108139bdd08119bdd5b99609a1b604482015260640161072d565b60405162461bcd60e51b815260206004820152601060248201526f125b1b195859db0811d2510814db1bdd60821b604482015260640161072d565b5092915050565b60606106df82612a8a565b6000808080306001600160a01b031663a304e3536040518163ffffffff1660e01b8152600401602060405180830381865afa158015611f3b573d6000803e3d6000fd5b505050506040513d601f19601f82011682018060405250810190611f5f9190613b02565b6001811115611f7057611f706135fc565b14611f8d5760405162461bcd60e51b815260040161072d906139e4565b600080611f9d6040880188613b1f565b905011156120325742611fb66040880160208901613b66565b67ffffffffffffffff16116120015760405162461bcd60e51b815260206004820152601160248201527045787069726564205369676e617475726560781b604482015260640161072d565b61202b867fdee69d384475c3656c17c592e94a2bbfd2a1998cce0c85f535569415a15863b8612ae6565b9050612035565b50335b6001600160e01b031985166000908152604a60205260408120546001600160a01b0316906120638288612b9f565b9050600061207084612757565b604051634902a91960e11b8152600481018490526024810182905290915060009030906392055232906044016020604051808303816000875af11580156120bb573d6000803e3d6000fd5b505050506040513d601f19601f820116820180604052508101906120df9190613ae1565b905060008160138111156120f5576120f56135fc565b1461214957601381601381111561210e5761210e6135fc565b14801561212b57506341f0e2e960e01b6001600160e01b03198a16145b15612140575090955093509091506121549050565b61214981612bf0565b509095509350909150505b9250925092565b600080612170604051602001610c3f90613a8c565b90506002600182015462010000900460ff166003811115612193576121936135fc565b10156121b15760405162461bcd60e51b815260040161072d90613a06565b80546000906121c1908686612445565b905060008160078111156121d7576121d76135fc565b1461132657611326816124d1565b6121ed611d23565b6001600160a01b0316816001600160a01b0316036122375760405162461bcd60e51b8152602060048201526007602482015266125b1b1959d85b60ca1b604482015260640161072d565b6000612249637147855d60e01b611d80565b9050600081601381111561225f5761225f6135fc565b1461227f5780604051637f0911d160e01b815260040161072d9190613a5b565b5050565b60607f4910fdfa16fed3260ed0e7147f7cc6da11a60208b5b9406d12a635614ffd91435460ff16156122cd576122b884612fa5565b50604080516000815260208101909152610f79565b600080516020613d8983398151915260001b846001600160a01b03166352d1902d6040518163ffffffff1660e01b8152600401602060405180830381865afa15801561231d573d6000803e3d6000fd5b505050506040513d601f19601f820116820180604052508101906123419190613b90565b1461237d5760405162461bcd60e51b815260206004820152600c60248201526b496c6c6567616c205555505360a01b604482015260640161072d565b6040516301ffc9a760e01b8152633d817cff60e01b60048201526001600160a01b038516906301ffc9a790602401602060405180830381865afa1580156123c8573d6000803e3d6000fd5b505050506040513d601f19601f820116820180604052508101906123ec9190613a6f565b6124295760405162461bcd60e51b815260206004820152600e60248201526d496c6c6567616c204950726f787960901b604482015260640161072d565b612434848484612fd4565b9050610f79565b60006106df825490565b60405163ca37fa8560e01b815260446004820181905260248201859052810183905260648101829052600090738a343E28B50Ae81b40553855E4C4a46751063eC89063ca37fa8590608401602060405180830381865af41580156124ad573d6000803e3d6000fd5b505050506040513d601f19601f82011682018060405250810190610f769190613ba9565b60018160078111156124e5576124e56135fc565b03612503576040516334267bfb60e11b815260040160405180910390fd5b6002816007811115612517576125176135fc565b03612535576040516343f871e760e11b815260040160405180910390fd5b6003816007811115612549576125496135fc565b0361256757604051639afb7c5f60e01b815260040160405180910390fd5b600481600781111561257b5761257b6135fc565b03612599576040516332314d6b60e11b815260040160405180910390fd5b60058160078111156125ad576125ad6135fc565b036125cb57604051633123155560e01b815260040160405180910390fd5b60068160078111156125df576125df6135fc565b036125fd57604051631b210af760e21b815260040160405180910390fd5b6007816007811115612611576126116135fc565b0361262f576040516339f73ba360e11b815260040160405180910390fd5b60405162461bcd60e51b815260206004820152600b60248201526a2ab735b737bbb71022a92960a91b604482015260640161072d565b50565b60008181526020839052604081206003600182015460ff166003811115612691576126916135fc565b036126ac576040805184815260208101869052209150611ee6565b6000600182015460ff1660038111156126c7576126c76135fc565b036127045760405162461bcd60e51b815260206004820152600d60248201526c15125108139bdd08119bdd5b99609a1b604482015260640161072d565b60405162461bcd60e51b815260206004820152601060248201526f125b1b1959d85b081512510814db1bdd60821b604482015260640161072d565b60008181526001830160205260408120541515610f79565b6040516bffffffffffffffffffffffff19606083901b166020820152600090603401604051602081830303815290604052805190602001209050919050565b7fb53127684a568b3173ae13b9f8a6016e243e63b6e8ee1178d6a717850b5d610380546001600160a01b0383166001600160a01b031990911681179091556040805191825251309133917f63fdbed5f2909ec44e3becc51e9d29654ce1447747914e8a6ebc019e7f640b8b9181900360200190a350565b60007f8b73c3c69bb8fe3d512ecc4cf759cc79239f7b179b0ffacaa9a75d522b39400f60006040516020016128429190613bca565b60405160208183030381529060405280519060200120600160405160200161286a9190613bca565b60408051601f1981840301815282825280516020918201209083019490945281019190915260608101919091524660808201523060a082015260c00160405160208183030381529060405280519060200120905090565b604e5462010000900460ff166129195760405162461bcd60e51b815260206004820152601960248201527f436f6e7472616374204e6f7420496e697469616c697a696e6700000000000000604482015260640161072d565b6000612926858783613c8b565b506001612934838583613c8b565b506001600160a01b0381163014612a1a576001600160a01b0381163b61296c5760405162461bcd60e51b815260040161072d90613a31565b6040516301ffc9a760e01b81526331501c3960e01b60048201526001600160a01b038216906301ffc9a790602401602060405180830381865afa1580156129b7573d6000803e3d6000fd5b505050506040513d601f19601f820116820180604052508101906129db9190613a6f565b612a155760405162461bcd60e51b815260206004820152600b60248201526a125b1b1959d85b081050d360aa1b604482015260640161072d565b612a66565b612a2a6331501c3960e01b6106ba565b612a665760405162461bcd60e51b815260206004820152600d60248201526c139bdd0814dd5c1c1bdc9d1959609a1b604482015260640161072d565b600280546001600160b01b0319166001600160a01b038316179055611d7933612796565b606081600001805480602002602001604051908101604052809291908181526020018280548015612ada57602002820191906000526020600020905b815481526020019060010190808311612ac6575b50505050509050919050565b6000610f79612af86040850185613b1f565b8080601f016020809104026020016040519081016040528093929190818152602001838380828437600092019190915250612b9a9250869150612b4090506020880188613526565b612b506040890160208a01613b66565b67ffffffffffffffff16604080516020808201959095526001600160a01b039390931683820152606080840192909252805180840390920182526080909201909152805191012090565b61303a565b6040516bffffffffffffffffffffffff19606084901b1660208201526001600160e01b0319821660348201526000906038015b60405160208183030381529060405280519060200120905092915050565b6001816013811115612c0457612c046135fc565b03612c22576040516338bb798160e21b815260040160405180910390fd5b6002816013811115612c3657612c366135fc565b03612c5457604051634f69231960e11b815260040160405180910390fd5b6003816013811115612c6857612c686135fc565b03612c8657604051637e33e43360e01b815260040160405180910390fd5b6004816013811115612c9a57612c9a6135fc565b03612cb857604051630287b9e560e51b815260040160405180910390fd5b6005816013811115612ccc57612ccc6135fc565b03612cea57604051633beb1f4d60e11b815260040160405180910390fd5b6006816013811115612cfe57612cfe6135fc565b03612d1c5760405163036c45ad60e51b815260040160405180910390fd5b6007816013811115612d3057612d306135fc565b03612d4e5760405163c0af595f60e01b815260040160405180910390fd5b6008816013811115612d6257612d626135fc565b03612d805760405163249eeb8960e01b815260040160405180910390fd5b6009816013811115612d9457612d946135fc565b03612db2576040516311fb41e160e21b815260040160405180910390fd5b600a816013811115612dc657612dc66135fc565b03612de457604051637331e2bb60e01b815260040160405180910390fd5b600b816013811115612df857612df86135fc565b03612e165760405163163099ab60e01b815260040160405180910390fd5b600c816013811115612e2a57612e2a6135fc565b03612e485760405163975a86e560e01b815260040160405180910390fd5b600d816013811115612e5c57612e5c6135fc565b03612e7a57604051631140570360e21b815260040160405180910390fd5b600e816013811115612e8e57612e8e6135fc565b03612eac57604051630622823b60e31b815260040160405180910390fd5b600f816013811115612ec057612ec06135fc565b03612ede57604051636d30058d60e11b815260040160405180910390fd5b6010816013811115612ef257612ef26135fc565b03612f10576040516304acbcf160e51b815260040160405180910390fd5b6011816013811115612f2457612f246135fc565b03612f4257604051636effd2d560e01b815260040160405180910390fd5b6012816013811115612f5657612f566135fc565b03612f7357604051623f318960e21b815260040160405180910390fd5b6013816013811115612f8757612f876135fc565b0361262f57604051634bc7b56f60e11b815260040160405180910390fd5b600080516020613d8983398151915280546001600160a01b0319166001600160a01b0392909216919091179055565b6060612fdf846130af565b600083511180612fec5750815b1561301f5761243484846040518060400160405280600b81526020016a10d85b1b0811985a5b195960aa1b8152506130f3565b60408051600080825260208201909252905b50949350505050565b600080613046836131c1565b9050600080613055838761322e565b9092509050600081600481111561306e5761306e6135fc565b146130315760405162461bcd60e51b8152602060048201526011602482015270496c6c6567616c205369676e617475726560781b604482015260640161072d565b6130b881612fa5565b6040516001600160a01b03821690309033907f8ee0f2bd29c0e6a975c3cc2e47cf2e01b5f23a9a8a02e0ed6a5a070269de3d2d90600090a450565b60606001600160a01b0384163b61314c5760405162461bcd60e51b815260206004820152601860248201527f496c6c6567616c20436f6e747261637420416464726573730000000000000000604482015260640161072d565b600080856001600160a01b0316856040516131679190613d4b565b600060405180830381855af49150503d80600081146131a2576040519150601f19603f3d011682016040523d82523d6000602084013e6131a7565b606091505b50915091506131b782828661329c565b9695505050505050565b60006106df306001600160a01b031663f698da256040518163ffffffff1660e01b8152600401602060405180830381865afa158015613204573d6000803e3d6000fd5b505050506040513d601f19601f820116820180604052508101906132289190613b90565b836132d5565b60008082516041036132645760208301516040840151606085015160001a613258878285856132fc565b94509450505050613295565b825160400361328d57602083015160408401516132828683836133e9565b935093505050613295565b506000905060025b9250929050565b606083156132ab575081610f79565b8251156132bb5782518084602001fd5b8160405162461bcd60e51b815260040161072d91906137b0565b60405161190160f01b60208201526022810183905260428101829052600090606201612bd2565b6000807f7fffffffffffffffffffffffffffffff5d576e7357a4501ddfe92f46681b20a083111561333357506000905060036133e0565b8460ff16601b1415801561334b57508460ff16601c14155b1561335c57506000905060046133e0565b6040805160008082526020820180845289905260ff881692820192909252606081018690526080810185905260019060a0016020604051602081039080840390855afa1580156133b0573d6000803e3d6000fd5b5050604051601f1901519150506001600160a01b0381166133d9576000600192509250506133e0565b9150600090505b94509492505050565b6000806001600160ff1b0383168161340660ff86901c601b613d67565b9050613414878288856132fc565b935093505050935093915050565b60006020828403121561343457600080fd5b81356001600160e01b031981168114610f7957600080fd5b60008083601f84011261345e57600080fd5b50813567ffffffffffffffff81111561347657600080fd5b60208301915083602082850101111561329557600080fd5b80356001600160a01b0381168114610c2457600080fd5b6000806000806000606086880312156134bd57600080fd5b853567ffffffffffffffff808211156134d557600080fd5b6134e189838a0161344c565b909750955060208801359150808211156134fa57600080fd5b506135078882890161344c565b909450925061351a90506040870161348e565b90509295509295909350565b60006020828403121561353857600080fd5b610f798261348e565b6020808252825182820181905260009190848201906040850190845b818110156135795783518352928401929184019160010161355d565b50909695505050505050565b60006060828403121561359757600080fd5b50919050565b6004811061266557600080fd5b600080604083850312156135bd57600080fd5b823567ffffffffffffffff8111156135d457600080fd5b6135e085828601613585565b92505060208301356135f18161359d565b809150509250929050565b634e487b7160e01b600052602160045260246000fd5b60048110612665576126656135fc565b61362b81613612565b9052565b6020810161363c83613612565b91905290565b60028110612665576126656135fc565b6020810161363c83613642565b634e487b7160e01b600052604160045260246000fd5b801515811461266557600080fd5b8035610c2481613675565b6000806000606084860312156136a357600080fd5b6136ac8461348e565b9250602084013567ffffffffffffffff808211156136c957600080fd5b818601915086601f8301126136dd57600080fd5b8135818111156136ef576136ef61365f565b604051601f8201601f19908116603f011681019083821181831017156137175761371761365f565b8160405282815289602084870101111561373057600080fd5b82602086016020830137600060208483010152809650505050505061375760408501613683565b90509250925092565b60005b8381101561377b578181015183820152602001613763565b50506000910152565b6000815180845261379c816020860160208601613760565b601f01601f19169290920160200192915050565b602081526000610f796020830184613784565b6006811061362b5761362b6135fc565b6000610120820190508251825260208301516020830152604083015161ffff80821660408501528060608601511660608501525050608083015161381f608084018263ffffffff169052565b5060a083015161383260a08401826137c3565b5060c083015161384560c0840182613622565b5060e083015161385860e0840182613622565b506101008084015161386c82850182613622565b505092915050565b6000806040838503121561388757600080fd5b823567ffffffffffffffff81111561389e57600080fd5b6138aa85828601613585565b95602094909401359450505050565b600080604083850312156138cc57600080fd5b823567ffffffffffffffff8111156138e357600080fd5b6138ef85828601613585565b925050602083013561ffff811681146135f157600080fd5b6002811061266557600080fd5b60006020828403121561392657600080fd5b8135610f7981613907565b6020808252600c908201526b125b1b1959d85b0810d85b1b60a21b604082015260600190565b6020808252600c908201526b125b9d985b1a590810d85b1b60a21b604082015260600190565b81835281816020850137506000828201602090810191909152601f909101601f19169091010190565b6060815260006139ba60608301878961397d565b82810360208401526139cd81868861397d565b91505061ffff831660408301529695505050505050565b60208082526008908201526714995a9958dd195960c21b604082015260600190565b602080825260119082015270496c6c6567616c20557064617461626c6560781b604082015260600190565b60208082526010908201526f125b1b1959d85b0810dbdb9d1c9858dd60821b604082015260600190565b602081016014831061363c5761363c6135fc565b600060208284031215613a8157600080fd5b8151610f7981613675565b74554e4956455253452e4c4956454c595f564552534560581b815260150190565b600181811c90821680613ac157607f821691505b60208210810361359757634e487b7160e01b600052602260045260246000fd5b600060208284031215613af357600080fd5b815160148110610f7957600080fd5b600060208284031215613b1457600080fd5b8151610f7981613907565b6000808335601e19843603018112613b3657600080fd5b83018035915067ffffffffffffffff821115613b5157600080fd5b60200191503681900382131561329557600080fd5b600060208284031215613b7857600080fd5b813567ffffffffffffffff81168114610f7957600080fd5b600060208284031215613ba257600080fd5b5051919050565b600060208284031215613bbb57600080fd5b815160088110610f7957600080fd5b6000808354613bd881613aad565b60018281168015613bf05760018114613c0557613c34565b60ff1984168752821515830287019450613c34565b8760005260208060002060005b85811015613c2b5781548a820152908401908201613c12565b50505082870194505b50929695505050505050565b601f821115613c8657600081815260208120601f850160051c81016020861015613c675750805b601f850160051c820191505b8181101561091357828155600101613c73565b505050565b67ffffffffffffffff831115613ca357613ca361365f565b613cb783613cb18354613aad565b83613c40565b6000601f841160018114613ceb5760008515613cd35750838201355b600019600387901b1c1916600186901b178355611d79565b600083815260209020601f19861690835b82811015613d1c5786850135825560209485019460019092019101613cfc565b5086821015613d395760001960f88860031b161c19848701351681555b505060018560011b0183555050505050565b60008251613d5d818460208701613760565b9190910192915050565b808201808211156106df57634e487b7160e01b600052601160045260246000fdfe360894a13ba1a3210667c828492db98dca3e2076cc3735a920a3ca505d382bbca2646970667358221220ab21e157f39f9d7553b6ae2b16e68c2f126158593fdc789dbcc92348ea6b47e064736f6c63430008130033b53127684a568b3173ae13b9f8a6016e243e63b6e8ee1178d6a717850b5d6103",
  "deployedBytecode": "0x6080604052600436106101da5760003560e01c80637345b8d311610101578063a98ffc951161009a578063f0b15def1161006c578063f0b15def1461061c578063f698da2514610650578063f708ceb014610665578063f94a0adb14610685578063fcc401781461069a57005b8063a98ffc951461059e578063b4a0bdf3146105be578063d9dc1f19146105dc578063e562fe7f146105fc57005b80637b7af58b116100d35780637b7af58b146105165780639b97b53414610536578063a0a8e4601461056a578063a304e3531461057f57005b80637345b8d31461049a578063756af45f146104ba57806375d0c0dc146104da5780637678922e146104ef57005b806341f0e2e91161017357806358dbc45d1161014557806358dbc45d146103ea57806364d4c819146104175780637147855d1461044b57806372ef0ea71461047857005b806341f0e2e91461034c5780634888f482146103795780634bf0414d146103a157806352d1902d146103d557005b80631b452f4b116101ac5780631b452f4b1461027a578063301c1280146102bc57806334109de2146102f057806338d38c971461032457005b806301ffc9a7146101e3578063077f224a146102185780630e32cb861461023857806311d73a541461025857005b366101e157005b005b3480156101ef57600080fd5b506102036101fe366004613422565b6106ba565b60405190151581526020015b60405180910390f35b34801561022457600080fd5b506101e16102333660046134a5565b6106e5565b34801561024457600080fd5b50610203610253366004613526565b61091b565b34801561026457600080fd5b5061026d610c29565b60405161020f9190613541565b34801561028657600080fd5b506102ae7f7bfb2abd6084c8ce20d7ff92c1620e7e7267603f0eac446b9176959d243306bc81565b60405190815260200161020f565b3480156102c857600080fd5b506102ae7f541cf898e7c3085cbc6b7402ba06e7237285bc4bd5baa510e708e35537a71ffd81565b3480156102fc57600080fd5b506102ae7f7aabe2571874f2a330ea11c8972d9cc3792d973efc6b36e3e29005861a34418881565b34801561033057600080fd5b50610339610c79565b60405161ffff909116815260200161020f565b34801561035857600080fd5b5061036c6103673660046135aa565b610c8d565b60405161020f919061362f565b34801561038557600080fd5b50600254600160a81b900460ff165b60405161020f9190613652565b3480156103ad57600080fd5b506102ae7f9027b951cbdf8eff67da583391d218a57a89ec1ebfcb1c66da188e8531804d5581565b3480156103e157600080fd5b506102ae610db8565b3480156103f657600080fd5b506103ff610e15565b6040516001600160a01b03909116815260200161020f565b34801561042357600080fd5b506102ae7f8b73c3c69bb8fe3d512ecc4cf759cc79239f7b179b0ffacaa9a75d522b39400f81565b34801561045757600080fd5b5061046b61046636600461368e565b610e1f565b60405161020f91906137b0565b34801561048457600080fd5b5061048d610f80565b60405161020f91906137d3565b3480156104a657600080fd5b5061036c6104b53660046135aa565b6110fa565b3480156104c657600080fd5b506102ae6104d5366004613526565b611269565b3480156104e657600080fd5b5061046b61132e565b3480156104fb57600080fd5b5073__$ee86c02d9d6bfecb685b93ba48bb72f928$__6103ff565b34801561052257600080fd5b50610203610531366004613874565b6113c0565b34801561054257600080fd5b506102ae7fdee69d384475c3656c17c592e94a2bbfd2a1998cce0c85f535569415a15863b881565b34801561057657600080fd5b5061046b611668565b34801561058b57600080fd5b50600254600160a01b900460ff16610394565b3480156105aa57600080fd5b506102036105b9366004613526565b611677565b3480156105ca57600080fd5b506002546001600160a01b03166103ff565b3480156105e857600080fd5b506102036105f7366004613526565b6116d6565b34801561060857600080fd5b506102036106173660046138b9565b61188c565b34801561062857600080fd5b506102ae7ffc434588684348dd50856b075c47bed14245c1030aa04c32955af5549981462781565b34801561065c57600080fd5b506102ae61198a565b34801561067157600080fd5b50610203610680366004613914565b611994565b34801561069157600080fd5b506103ff611b3e565b3480156106a657600080fd5b506102036106b5366004613914565b611b48565b60006001600160e01b03198216630cc3533560e31b14806106df57506106df82611cd3565b92915050565b6001600160a01b037f00000000000000000000000000000000000000000000000000000000000000001630036107365760405162461bcd60e51b815260040161072d90613931565b60405180910390fd5b7f00000000000000000000000000000000000000000000000000000000000000006001600160a01b0316610768611d23565b6001600160a01b03161461078e5760405162461bcd60e51b815260040161072d90613957565b33610797611d44565b6001600160a01b0316146107dd5760405162461bcd60e51b815260206004820152600d60248201526c1058d8d95cdcc811195b9a5959609a1b604482015260640161072d565b604e5462010000900460ff16158080156107ff5750604e54600161ffff909116105b8061081a5750303b15801561081a5750604e5461ffff166001145b6108665760405162461bcd60e51b815260206004820152601c60248201527f436f6e747261637420416c726561647920496e697469616c697a656400000000604482015260640161072d565b604e805461ffff19166001179055801561088c57604e805462ff00001916620100001790555b6108998686868686611d6c565b6108a1611d23565b6001600160a01b031630336001600160a01b03167f247ab7b17ee489fa140c6666edc3822eefed2727610cd6e37192462b87244c60898989896108e7604e5461ffff1690565b6040516108f89594939291906139a6565b60405180910390a4801561091357604e805462ff0000191690555b505050505050565b60006001600160a01b037f00000000000000000000000000000000000000000000000000000000000000001630036109655760405162461bcd60e51b815260040161072d90613931565b7f00000000000000000000000000000000000000000000000000000000000000006001600160a01b0316610997611d23565b6001600160a01b0316146109bd5760405162461bcd60e51b815260040161072d90613957565b6000600254600160a01b900460ff1660018111156109dd576109dd6135fc565b146109fa5760405162461bcd60e51b815260040161072d906139e4565b6001600254600160a81b900460ff166001811115610a1a57610a1a6135fc565b14610a375760405162461bcd60e51b815260040161072d90613a06565b6001600160a01b03821615801590610a5857506001600160a01b0382163b15155b610a745760405162461bcd60e51b815260040161072d90613a31565b6002546001600160a01b031615610ad3576000610a9763071965c360e11b611d80565b90506000816013811115610aad57610aad6135fc565b14610acd5780604051637f0911d160e01b815260040161072d9190613a5b565b50610b22565b33610adc611d44565b6001600160a01b031614610b225760405162461bcd60e51b815260206004820152600d60248201526c1058d8d95cdcc811195b9a5959609a1b604482015260640161072d565b6040516301ffc9a760e01b81526331501c3960e01b60048201526001600160a01b038316906301ffc9a790602401602060405180830381865afa158015610b6d573d6000803e3d6000fd5b505050506040513d601f19601f82011682018060405250810190610b919190613a6f565b610bcb5760405162461bcd60e51b815260206004820152600b60248201526a125b1b1959d85b081050d360aa1b604482015260640161072d565b600280546001600160a01b0384166001600160a01b031990911681179091556040805191825251309133917f410bf468eebeeed60acaedb904afb2db7c0bb0131f7d14c3714d81b14fe8ed3c9181900360200190a35060015b919050565b60606000610c65604051602001610c3f90613a8c565b604051602081830303815290604052805190602001206044611e0b90919063ffffffff16565b9050610c7381600401611eed565b91505090565b6000610c88604e5461ffff1690565b905090565b6000808080610ca3866341f0e2e960e01b611ef8565b9250925092506000610cb5838561215b565b90506001866003811115610ccb57610ccb6135fc565b11610d0b5760405162461bcd60e51b815260206004820152601060248201526f496c6c6567616c20416374697669747960801b604482015260640161072d565b60018101805487919061ff001916610100836003811115610d2e57610d2e6135fc565b0217905550604051602001610d4290613a8c565b60405160208183030381529060405280519060200120826001600160a01b03167fec6424ff92f5117d0697ad0df2e9bf4fa92484e1740ce8e7bcc73d55beb768a98360000160010160019054906101000a900460ff16604051610da5919061362f565b60405180910390a3509395945050505050565b6000306001600160a01b037f00000000000000000000000000000000000000000000000000000000000000001614610e025760405162461bcd60e51b815260040161072d90613931565b50600080516020613d8983398151915290565b6000610c88611d23565b60606001600160a01b037f0000000000000000000000000000000000000000000000000000000000000000163003610e695760405162461bcd60e51b815260040161072d90613931565b7f00000000000000000000000000000000000000000000000000000000000000006001600160a01b0316610e9b611d23565b6001600160a01b031614610ec15760405162461bcd60e51b815260040161072d90613957565b6000600254600160a01b900460ff166001811115610ee157610ee16135fc565b14610efe5760405162461bcd60e51b815260040161072d906139e4565b6001600254600160a81b900460ff166001811115610f1e57610f1e6135fc565b14610f3b5760405162461bcd60e51b815260040161072d90613a06565b6001600160a01b0384163b610f625760405162461bcd60e51b815260040161072d90613a31565b610f6b846121e5565b610f76848484612283565b90505b9392505050565b610fce604080516101208101825260008082526020820181905291810182905260608101829052608081018290529060a0820190815260200160008152602001600081526020016000905290565b6000610fe2604051602001610c3f90613a8c565b9050604051806101200160405280604051602001610fff90613a8c565b60408051601f1981840301815291815281516020928301208352845491830191909152600284015461ffff169082015260600161103e6004840161243b565b61ffff168152600183015463ffffffff6301000000820416602083015260409091019060ff166005811115611075576110756135fc565b8152825460009081526044602090815260409091206001015491019060ff1660038111156110a5576110a56135fc565b81526001830154602090910190610100900460ff1660038111156110cb576110cb6135fc565b8152600183015460209091019062010000900460ff1660038111156110f2576110f26135fc565b905292915050565b600080808061111086637345b8d360e01b611ef8565b925092509250600061112a604051602001610c3f90613a8c565b805490915060009061113d908587612445565b90506000816007811115611153576111536135fc565b1461116157611161816124d1565b6000876003811115611175576111756135fc565b036111b95760405162461bcd60e51b8152602060048201526014602482015273496c6c6567616c20416c7465726162696c69747960601b604482015260640161072d565b60018201805488919062ff00001916620100008360038111156111de576111de6135fc565b02179055506040516020016111f290613a8c565b60405160208183030381529060405280519060200120836001600160a01b03167f6f18eb5ada03904461cd68c3666e6c9847617082587ad3e8ece656c06d645cea8460000160010160029054906101000a900460ff16604051611255919061362f565b60405180910390a350949695505050505050565b600080600254600160a01b900460ff16600181111561128a5761128a6135fc565b146112a75760405162461bcd60e51b815260040161072d906139e4565b60006112b963756af45f60e01b611d80565b905060008160138111156112cf576112cf6135fc565b146112ef5780604051637f0911d160e01b815260040161072d9190613a5b565b60405147906001600160a01b038516904780156108fc02916000818181858888f19350505050158015611326573d6000803e3d6000fd5b509392505050565b60606000805461133d90613aad565b80601f016020809104026020016040519081016040528092919081815260200182805461136990613aad565b80156113b65780601f1061138b576101008083540402835291602001916113b6565b820191906000526020600020905b81548152906001019060200180831161139957829003601f168201915b5050505050905090565b60008080806113d686637b7af58b60e01b611ef8565b92509250925060006113e8838561215b565b805490915086148015906113fb57508515155b6114395760405162461bcd60e51b815260206004820152600f60248201526e125b1b1959d85b0810591b5a5b9259608a1b604482015260640161072d565b600086815260446020526040902060018082015460ff166003811115611461576114616135fc565b116114ae5760405162461bcd60e51b815260206004820152601760248201527f496c6c6567616c2041646d696e204167656e7454797065000000000000000000604482015260640161072d565b6002600182015460ff1660038111156114c9576114c96135fc565b0361157957600061152c604051602001611506907f545950452e4c4956454c595f56455253452e4c4956454c595f4d4153544552008152601f0190565b60405160208183030381529060405280519060200120604461266890919063ffffffff16565b905061153b600682018961273f565b6115735760405162461bcd60e51b8152602060048201526009602482015268139bdd08119bdd5b9960ba1b604482015260640161072d565b506115fa565b6040517f545950452e4c4956454c595f56455253452e4c4956454c595f4d41535445520060208201528790603f0160405160208183030381529060405280519060200120146115fa5760405162461bcd60e51b815260206004820152600d60248201526c24b63632b3b0b61020b236b4b760991b604482015260640161072d565b868255604051879061160e90602001613a8c565b60405160208183030381529060405280519060200120846001600160a01b03167f52a2fffd45b0504de8fa41a6226183828a7a9548600837be3dc28534005e4cab60405160405180910390a4506001979650505050505050565b60606001805461133d90613aad565b60008061168383612757565b905060006116bd604051602001611506907f545950452e4c4956454c595f56455253452e4c4956454c595f4d4153544552008152601f0190565b6000928352600501602052506040902054151592915050565b60006001600160a01b037f00000000000000000000000000000000000000000000000000000000000000001630036117205760405162461bcd60e51b815260040161072d90613931565b7f00000000000000000000000000000000000000000000000000000000000000006001600160a01b0316611752611d23565b6001600160a01b0316146117785760405162461bcd60e51b815260040161072d90613957565b6000600254600160a01b900460ff166001811115611798576117986135fc565b146117b55760405162461bcd60e51b815260040161072d906139e4565b6001600254600160a81b900460ff1660018111156117d5576117d56135fc565b146117f25760405162461bcd60e51b815260040161072d90613a06565b600061180463d9dc1f1960e01b611d80565b9050600081601381111561181a5761181a6135fc565b1461183a5780604051637f0911d160e01b815260040161072d9190613a5b565b6001600160a01b03831661187a5760405162461bcd60e51b8152602060048201526007602482015266125b9d985b1a5960ca1b604482015260640161072d565b61188383612796565b50600192915050565b60008080806118a28663e562fe7f60e01b611ef8565b92509250925060006118b4838561215b565b90506118c28160040161243b565b8661ffff16116119045760405162461bcd60e51b815260206004820152600d60248201526c125b1b1959d85b08131a5b5a5d609a1b604482015260640161072d565b60028101805461ffff191661ffff881617905560405161192690602001613a8c565b60408051601f1981840301815290829052805160209182012061ffff89168352916001600160a01b038516917fd4ea4821551df6ab1290b0f0b279ed4b9a08702888dc31ce5e4bdd3c09df336c910160405180910390a35060019695505050505050565b6000610c8861280d565b60006001600160a01b037f00000000000000000000000000000000000000000000000000000000000000001630036119de5760405162461bcd60e51b815260040161072d90613931565b7f00000000000000000000000000000000000000000000000000000000000000006001600160a01b0316611a10611d23565b6001600160a01b031614611a365760405162461bcd60e51b815260040161072d90613957565b6000611a45604e5461ffff1690565b61ffff1611611a815760405162461bcd60e51b81526020600482015260086024820152671393d5081253925560c21b604482015260640161072d565b6000611a93630f708ceb60e41b611d80565b90506000816013811115611aa957611aa96135fc565b14611ac95780604051637f0911d160e01b815260040161072d9190613a5b565b6002805484919060ff60a01b1916600160a01b836001811115611aee57611aee6135fc565b021790555030336001600160a01b03167fc08ec585c25f1907baaab6f278c5994531a2e34c59935b3fcfe813067a3b487885604051611b2d9190613652565b60405180910390a350600192915050565b6000610c88611d44565b60006001600160a01b037f0000000000000000000000000000000000000000000000000000000000000000163003611b925760405162461bcd60e51b815260040161072d90613931565b7f00000000000000000000000000000000000000000000000000000000000000006001600160a01b0316611bc4611d23565b6001600160a01b031614611bea5760405162461bcd60e51b815260040161072d90613957565b6000600254600160a01b900460ff166001811115611c0a57611c0a6135fc565b14611c275760405162461bcd60e51b815260040161072d906139e4565b6000611c39631f98802f60e31b611d80565b90506000816013811115611c4f57611c4f6135fc565b14611c6f5780604051637f0911d160e01b815260040161072d9190613a5b565b6002805484919060ff60a81b1916600160a81b836001811115611c9457611c946135fc565b021790555030336001600160a01b03167ff5912c5e436152157ed2b4a84bc313b4b1fe09a15b941f195d23c99a1b8c45ad85604051611b2d9190613652565b60006001600160e01b03198216633d817cff60e01b1480611d0457506001600160e01b031982166352d1902d60e01b145b806106df57506301ffc9a760e01b6001600160e01b03198316146106df565b6000600080516020613d898339815191525b546001600160a01b0316919050565b60007fb53127684a568b3173ae13b9f8a6016e243e63b6e8ee1178d6a717850b5d6103611d35565b611d7985858585856128c1565b5050505050565b6002546040805163172cb29d60e11b81523060048201526001600160e01b03198416602482015233604482015290516000926001600160a01b031691632e59653a916064808301926020929190829003018187875af1158015611de7573d6000803e3d6000fd5b505050506040513d601f19601f820116820180604052508101906106df9190613ae1565b600081815260018301602052604081206005600182015460ff166005811115611e3657611e366135fc565b03611e535760408051848152600186016020820152209150611ee6565b6000600182015460ff166005811115611e6e57611e6e6135fc565b03611eab5760405162461bcd60e51b815260206004820152600d60248201526c11d25108139bdd08119bdd5b99609a1b604482015260640161072d565b60405162461bcd60e51b815260206004820152601060248201526f125b1b195859db0811d2510814db1bdd60821b604482015260640161072d565b5092915050565b60606106df82612a8a565b6000808080306001600160a01b031663a304e3536040518163ffffffff1660e01b8152600401602060405180830381865afa158015611f3b573d6000803e3d6000fd5b505050506040513d601f19601f82011682018060405250810190611f5f9190613b02565b6001811115611f7057611f706135fc565b14611f8d5760405162461bcd60e51b815260040161072d906139e4565b600080611f9d6040880188613b1f565b905011156120325742611fb66040880160208901613b66565b67ffffffffffffffff16116120015760405162461bcd60e51b815260206004820152601160248201527045787069726564205369676e617475726560781b604482015260640161072d565b61202b867fdee69d384475c3656c17c592e94a2bbfd2a1998cce0c85f535569415a15863b8612ae6565b9050612035565b50335b6001600160e01b031985166000908152604a60205260408120546001600160a01b0316906120638288612b9f565b9050600061207084612757565b604051634902a91960e11b8152600481018490526024810182905290915060009030906392055232906044016020604051808303816000875af11580156120bb573d6000803e3d6000fd5b505050506040513d601f19601f820116820180604052508101906120df9190613ae1565b905060008160138111156120f5576120f56135fc565b1461214957601381601381111561210e5761210e6135fc565b14801561212b57506341f0e2e960e01b6001600160e01b03198a16145b15612140575090955093509091506121549050565b61214981612bf0565b509095509350909150505b9250925092565b600080612170604051602001610c3f90613a8c565b90506002600182015462010000900460ff166003811115612193576121936135fc565b10156121b15760405162461bcd60e51b815260040161072d90613a06565b80546000906121c1908686612445565b905060008160078111156121d7576121d76135fc565b1461132657611326816124d1565b6121ed611d23565b6001600160a01b0316816001600160a01b0316036122375760405162461bcd60e51b8152602060048201526007602482015266125b1b1959d85b60ca1b604482015260640161072d565b6000612249637147855d60e01b611d80565b9050600081601381111561225f5761225f6135fc565b1461227f5780604051637f0911d160e01b815260040161072d9190613a5b565b5050565b60607f4910fdfa16fed3260ed0e7147f7cc6da11a60208b5b9406d12a635614ffd91435460ff16156122cd576122b884612fa5565b50604080516000815260208101909152610f79565b600080516020613d8983398151915260001b846001600160a01b03166352d1902d6040518163ffffffff1660e01b8152600401602060405180830381865afa15801561231d573d6000803e3d6000fd5b505050506040513d601f19601f820116820180604052508101906123419190613b90565b1461237d5760405162461bcd60e51b815260206004820152600c60248201526b496c6c6567616c205555505360a01b604482015260640161072d565b6040516301ffc9a760e01b8152633d817cff60e01b60048201526001600160a01b038516906301ffc9a790602401602060405180830381865afa1580156123c8573d6000803e3d6000fd5b505050506040513d601f19601f820116820180604052508101906123ec9190613a6f565b6124295760405162461bcd60e51b815260206004820152600e60248201526d496c6c6567616c204950726f787960901b604482015260640161072d565b612434848484612fd4565b9050610f79565b60006106df825490565b60405163ca37fa8560e01b81526044600482018190526024820185905281018390526064810182905260009073__$ee86c02d9d6bfecb685b93ba48bb72f928$__9063ca37fa8590608401602060405180830381865af41580156124ad573d6000803e3d6000fd5b505050506040513d601f19601f82011682018060405250810190610f769190613ba9565b60018160078111156124e5576124e56135fc565b03612503576040516334267bfb60e11b815260040160405180910390fd5b6002816007811115612517576125176135fc565b03612535576040516343f871e760e11b815260040160405180910390fd5b6003816007811115612549576125496135fc565b0361256757604051639afb7c5f60e01b815260040160405180910390fd5b600481600781111561257b5761257b6135fc565b03612599576040516332314d6b60e11b815260040160405180910390fd5b60058160078111156125ad576125ad6135fc565b036125cb57604051633123155560e01b815260040160405180910390fd5b60068160078111156125df576125df6135fc565b036125fd57604051631b210af760e21b815260040160405180910390fd5b6007816007811115612611576126116135fc565b0361262f576040516339f73ba360e11b815260040160405180910390fd5b60405162461bcd60e51b815260206004820152600b60248201526a2ab735b737bbb71022a92960a91b604482015260640161072d565b50565b60008181526020839052604081206003600182015460ff166003811115612691576126916135fc565b036126ac576040805184815260208101869052209150611ee6565b6000600182015460ff1660038111156126c7576126c76135fc565b036127045760405162461bcd60e51b815260206004820152600d60248201526c15125108139bdd08119bdd5b99609a1b604482015260640161072d565b60405162461bcd60e51b815260206004820152601060248201526f125b1b1959d85b081512510814db1bdd60821b604482015260640161072d565b60008181526001830160205260408120541515610f79565b6040516bffffffffffffffffffffffff19606083901b166020820152600090603401604051602081830303815290604052805190602001209050919050565b7fb53127684a568b3173ae13b9f8a6016e243e63b6e8ee1178d6a717850b5d610380546001600160a01b0383166001600160a01b031990911681179091556040805191825251309133917f63fdbed5f2909ec44e3becc51e9d29654ce1447747914e8a6ebc019e7f640b8b9181900360200190a350565b60007f8b73c3c69bb8fe3d512ecc4cf759cc79239f7b179b0ffacaa9a75d522b39400f60006040516020016128429190613bca565b60405160208183030381529060405280519060200120600160405160200161286a9190613bca565b60408051601f1981840301815282825280516020918201209083019490945281019190915260608101919091524660808201523060a082015260c00160405160208183030381529060405280519060200120905090565b604e5462010000900460ff166129195760405162461bcd60e51b815260206004820152601960248201527f436f6e7472616374204e6f7420496e697469616c697a696e6700000000000000604482015260640161072d565b6000612926858783613c8b565b506001612934838583613c8b565b506001600160a01b0381163014612a1a576001600160a01b0381163b61296c5760405162461bcd60e51b815260040161072d90613a31565b6040516301ffc9a760e01b81526331501c3960e01b60048201526001600160a01b038216906301ffc9a790602401602060405180830381865afa1580156129b7573d6000803e3d6000fd5b505050506040513d601f19601f820116820180604052508101906129db9190613a6f565b612a155760405162461bcd60e51b815260206004820152600b60248201526a125b1b1959d85b081050d360aa1b604482015260640161072d565b612a66565b612a2a6331501c3960e01b6106ba565b612a665760405162461bcd60e51b815260206004820152600d60248201526c139bdd0814dd5c1c1bdc9d1959609a1b604482015260640161072d565b600280546001600160b01b0319166001600160a01b038316179055611d7933612796565b606081600001805480602002602001604051908101604052809291908181526020018280548015612ada57602002820191906000526020600020905b815481526020019060010190808311612ac6575b50505050509050919050565b6000610f79612af86040850185613b1f565b8080601f016020809104026020016040519081016040528093929190818152602001838380828437600092019190915250612b9a9250869150612b4090506020880188613526565b612b506040890160208a01613b66565b67ffffffffffffffff16604080516020808201959095526001600160a01b039390931683820152606080840192909252805180840390920182526080909201909152805191012090565b61303a565b6040516bffffffffffffffffffffffff19606084901b1660208201526001600160e01b0319821660348201526000906038015b60405160208183030381529060405280519060200120905092915050565b6001816013811115612c0457612c046135fc565b03612c22576040516338bb798160e21b815260040160405180910390fd5b6002816013811115612c3657612c366135fc565b03612c5457604051634f69231960e11b815260040160405180910390fd5b6003816013811115612c6857612c686135fc565b03612c8657604051637e33e43360e01b815260040160405180910390fd5b6004816013811115612c9a57612c9a6135fc565b03612cb857604051630287b9e560e51b815260040160405180910390fd5b6005816013811115612ccc57612ccc6135fc565b03612cea57604051633beb1f4d60e11b815260040160405180910390fd5b6006816013811115612cfe57612cfe6135fc565b03612d1c5760405163036c45ad60e51b815260040160405180910390fd5b6007816013811115612d3057612d306135fc565b03612d4e5760405163c0af595f60e01b815260040160405180910390fd5b6008816013811115612d6257612d626135fc565b03612d805760405163249eeb8960e01b815260040160405180910390fd5b6009816013811115612d9457612d946135fc565b03612db2576040516311fb41e160e21b815260040160405180910390fd5b600a816013811115612dc657612dc66135fc565b03612de457604051637331e2bb60e01b815260040160405180910390fd5b600b816013811115612df857612df86135fc565b03612e165760405163163099ab60e01b815260040160405180910390fd5b600c816013811115612e2a57612e2a6135fc565b03612e485760405163975a86e560e01b815260040160405180910390fd5b600d816013811115612e5c57612e5c6135fc565b03612e7a57604051631140570360e21b815260040160405180910390fd5b600e816013811115612e8e57612e8e6135fc565b03612eac57604051630622823b60e31b815260040160405180910390fd5b600f816013811115612ec057612ec06135fc565b03612ede57604051636d30058d60e11b815260040160405180910390fd5b6010816013811115612ef257612ef26135fc565b03612f10576040516304acbcf160e51b815260040160405180910390fd5b6011816013811115612f2457612f246135fc565b03612f4257604051636effd2d560e01b815260040160405180910390fd5b6012816013811115612f5657612f566135fc565b03612f7357604051623f318960e21b815260040160405180910390fd5b6013816013811115612f8757612f876135fc565b0361262f57604051634bc7b56f60e11b815260040160405180910390fd5b600080516020613d8983398151915280546001600160a01b0319166001600160a01b0392909216919091179055565b6060612fdf846130af565b600083511180612fec5750815b1561301f5761243484846040518060400160405280600b81526020016a10d85b1b0811985a5b195960aa1b8152506130f3565b60408051600080825260208201909252905b50949350505050565b600080613046836131c1565b9050600080613055838761322e565b9092509050600081600481111561306e5761306e6135fc565b146130315760405162461bcd60e51b8152602060048201526011602482015270496c6c6567616c205369676e617475726560781b604482015260640161072d565b6130b881612fa5565b6040516001600160a01b03821690309033907f8ee0f2bd29c0e6a975c3cc2e47cf2e01b5f23a9a8a02e0ed6a5a070269de3d2d90600090a450565b60606001600160a01b0384163b61314c5760405162461bcd60e51b815260206004820152601860248201527f496c6c6567616c20436f6e747261637420416464726573730000000000000000604482015260640161072d565b600080856001600160a01b0316856040516131679190613d4b565b600060405180830381855af49150503d80600081146131a2576040519150601f19603f3d011682016040523d82523d6000602084013e6131a7565b606091505b50915091506131b782828661329c565b9695505050505050565b60006106df306001600160a01b031663f698da256040518163ffffffff1660e01b8152600401602060405180830381865afa158015613204573d6000803e3d6000fd5b505050506040513d601f19601f820116820180604052508101906132289190613b90565b836132d5565b60008082516041036132645760208301516040840151606085015160001a613258878285856132fc565b94509450505050613295565b825160400361328d57602083015160408401516132828683836133e9565b935093505050613295565b506000905060025b9250929050565b606083156132ab575081610f79565b8251156132bb5782518084602001fd5b8160405162461bcd60e51b815260040161072d91906137b0565b60405161190160f01b60208201526022810183905260428101829052600090606201612bd2565b6000807f7fffffffffffffffffffffffffffffff5d576e7357a4501ddfe92f46681b20a083111561333357506000905060036133e0565b8460ff16601b1415801561334b57508460ff16601c14155b1561335c57506000905060046133e0565b6040805160008082526020820180845289905260ff881692820192909252606081018690526080810185905260019060a0016020604051602081039080840390855afa1580156133b0573d6000803e3d6000fd5b5050604051601f1901519150506001600160a01b0381166133d9576000600192509250506133e0565b9150600090505b94509492505050565b6000806001600160ff1b0383168161340660ff86901c601b613d67565b9050613414878288856132fc565b935093505050935093915050565b60006020828403121561343457600080fd5b81356001600160e01b031981168114610f7957600080fd5b60008083601f84011261345e57600080fd5b50813567ffffffffffffffff81111561347657600080fd5b60208301915083602082850101111561329557600080fd5b80356001600160a01b0381168114610c2457600080fd5b6000806000806000606086880312156134bd57600080fd5b853567ffffffffffffffff808211156134d557600080fd5b6134e189838a0161344c565b909750955060208801359150808211156134fa57600080fd5b506135078882890161344c565b909450925061351a90506040870161348e565b90509295509295909350565b60006020828403121561353857600080fd5b610f798261348e565b6020808252825182820181905260009190848201906040850190845b818110156135795783518352928401929184019160010161355d565b50909695505050505050565b60006060828403121561359757600080fd5b50919050565b6004811061266557600080fd5b600080604083850312156135bd57600080fd5b823567ffffffffffffffff8111156135d457600080fd5b6135e085828601613585565b92505060208301356135f18161359d565b809150509250929050565b634e487b7160e01b600052602160045260246000fd5b60048110612665576126656135fc565b61362b81613612565b9052565b6020810161363c83613612565b91905290565b60028110612665576126656135fc565b6020810161363c83613642565b634e487b7160e01b600052604160045260246000fd5b801515811461266557600080fd5b8035610c2481613675565b6000806000606084860312156136a357600080fd5b6136ac8461348e565b9250602084013567ffffffffffffffff808211156136c957600080fd5b818601915086601f8301126136dd57600080fd5b8135818111156136ef576136ef61365f565b604051601f8201601f19908116603f011681019083821181831017156137175761371761365f565b8160405282815289602084870101111561373057600080fd5b82602086016020830137600060208483010152809650505050505061375760408501613683565b90509250925092565b60005b8381101561377b578181015183820152602001613763565b50506000910152565b6000815180845261379c816020860160208601613760565b601f01601f19169290920160200192915050565b602081526000610f796020830184613784565b6006811061362b5761362b6135fc565b6000610120820190508251825260208301516020830152604083015161ffff80821660408501528060608601511660608501525050608083015161381f608084018263ffffffff169052565b5060a083015161383260a08401826137c3565b5060c083015161384560c0840182613622565b5060e083015161385860e0840182613622565b506101008084015161386c82850182613622565b505092915050565b6000806040838503121561388757600080fd5b823567ffffffffffffffff81111561389e57600080fd5b6138aa85828601613585565b95602094909401359450505050565b600080604083850312156138cc57600080fd5b823567ffffffffffffffff8111156138e357600080fd5b6138ef85828601613585565b925050602083013561ffff811681146135f157600080fd5b6002811061266557600080fd5b60006020828403121561392657600080fd5b8135610f7981613907565b6020808252600c908201526b125b1b1959d85b0810d85b1b60a21b604082015260600190565b6020808252600c908201526b125b9d985b1a590810d85b1b60a21b604082015260600190565b81835281816020850137506000828201602090810191909152601f909101601f19169091010190565b6060815260006139ba60608301878961397d565b82810360208401526139cd81868861397d565b91505061ffff831660408301529695505050505050565b60208082526008908201526714995a9958dd195960c21b604082015260600190565b602080825260119082015270496c6c6567616c20557064617461626c6560781b604082015260600190565b60208082526010908201526f125b1b1959d85b0810dbdb9d1c9858dd60821b604082015260600190565b602081016014831061363c5761363c6135fc565b600060208284031215613a8157600080fd5b8151610f7981613675565b74554e4956455253452e4c4956454c595f564552534560581b815260150190565b600181811c90821680613ac157607f821691505b60208210810361359757634e487b7160e01b600052602260045260246000fd5b600060208284031215613af357600080fd5b815160148110610f7957600080fd5b600060208284031215613b1457600080fd5b8151610f7981613907565b6000808335601e19843603018112613b3657600080fd5b83018035915067ffffffffffffffff821115613b5157600080fd5b60200191503681900382131561329557600080fd5b600060208284031215613b7857600080fd5b813567ffffffffffffffff81168114610f7957600080fd5b600060208284031215613ba257600080fd5b5051919050565b600060208284031215613bbb57600080fd5b815160088110610f7957600080fd5b6000808354613bd881613aad565b60018281168015613bf05760018114613c0557613c34565b60ff1984168752821515830287019450613c34565b8760005260208060002060005b85811015613c2b5781548a820152908401908201613c12565b50505082870194505b50929695505050505050565b601f821115613c8657600081815260208120601f850160051c81016020861015613c675750805b601f850160051c820191505b8181101561091357828155600101613c73565b505050565b67ffffffffffffffff831115613ca357613ca361365f565b613cb783613cb18354613aad565b83613c40565b6000601f841160018114613ceb5760008515613cd35750838201355b600019600387901b1c1916600186901b178355611d79565b600083815260209020601f19861690835b82811015613d1c5786850135825560209485019460019092019101613cfc565b5086821015613d395760001960f88860031b161c19848701351681555b505060018560011b0183555050505050565b60008251613d5d818460208701613760565b9190910192915050565b808201808211156106df57634e487b7160e01b600052601160045260246000fdfe360894a13ba1a3210667c828492db98dca3e2076cc3735a920a3ca505d382bbca2646970667358221220ab21e157f39f9d7553b6ae2b16e68c2f126158593fdc789dbcc92348ea6b47e064736f6c63430008130033",
  "libraries": {
    "LACLCommons": "0x8a343E28B50Ae81b40553855E4C4a46751063eC8"
  },
  "devdoc": {
    "author": "Sina Tadayon, https://github.com/SinaTadayon",
    "events": {
      "Initialized(address,address,address,string,string,uint16)": {
        "details": "Triggered when the contract has been initialized or reinitialized."
      },
      "ProxyLocalAdminUpdated(address,address,address)": {
        "details": "Emitted when the admin account has changed."
      }
    },
    "kind": "dev",
    "methods": {
      "proxiableUUID()": {
        "details": "Implementation of the ERC1822 {proxiableUUID} function. This returns the storage slot used by the implementation. It is used to validate that the this implementation remains valid after an upgrade. IMPORTANT: A proxy pointing at a proxiable contract should not be considered proxiable itself, because this risks bricking a proxy that upgrades to it, by delegating to itself until out of gas. Thus it is critical that this function revert if invoked through a proxy. This is guaranteed by the `notDelegated` modifier."
      },
      "supportsInterface(bytes4)": {
        "details": "See {IERC165-supportsInterface}."
      }
    },
    "title": "Universe Manager Contract",
    "version": 1
  },
  "userdoc": {
    "kind": "user",
    "methods": {},
    "version": 1
  },
  "storageLayout": {
    "storage": [
      {
        "astId": 82229,
        "contract": "src/contracts/acl/scope/UniverseManger.sol:UniverseManager",
        "label": "_contractName",
        "offset": 0,
        "slot": "0",
        "type": "t_string_storage"
      },
      {
        "astId": 82231,
        "contract": "src/contracts/acl/scope/UniverseManger.sol:UniverseManager",
        "label": "_contractVersion",
        "offset": 0,
        "slot": "1",
        "type": "t_string_storage"
      },
      {
        "astId": 82233,
        "contract": "src/contracts/acl/scope/UniverseManger.sol:UniverseManager",
        "label": "_accessControlManager",
        "offset": 0,
        "slot": "2",
        "type": "t_address"
      },
      {
        "astId": 82236,
        "contract": "src/contracts/acl/scope/UniverseManger.sol:UniverseManager",
        "label": "_sstat",
        "offset": 20,
        "slot": "2",
        "type": "t_enum(ProxySafeModeStatus)82251"
      },
      {
        "astId": 82239,
        "contract": "src/contracts/acl/scope/UniverseManger.sol:UniverseManager",
        "label": "_ustat",
        "offset": 21,
        "slot": "2",
        "type": "t_enum(ProxyUpdatabilityStatus)82254"
      },
      {
        "astId": 82244,
        "contract": "src/contracts/acl/scope/UniverseManger.sol:UniverseManager",
        "label": "__reserved",
        "offset": 0,
        "slot": "3",
        "type": "t_array(t_uint256)64_storage"
      },
      {
        "astId": 10383,
        "contract": "src/contracts/acl/scope/UniverseManger.sol:UniverseManager",
        "label": "_firstInit",
        "offset": 0,
        "slot": "67",
        "type": "t_bool"
      },
      {
        "astId": 10386,
        "contract": "src/contracts/acl/scope/UniverseManger.sol:UniverseManager",
        "label": "_data",
        "offset": 0,
        "slot": "68",
        "type": "t_struct(DataCollection)10239_storage"
      },
      {
        "astId": 82432,
        "contract": "src/contracts/acl/scope/UniverseManger.sol:UniverseManager",
        "label": "_initialized",
        "offset": 0,
        "slot": "78",
        "type": "t_uint16"
      },
      {
        "astId": 82435,
        "contract": "src/contracts/acl/scope/UniverseManger.sol:UniverseManager",
        "label": "_initializing",
        "offset": 2,
        "slot": "78",
        "type": "t_bool"
      }
    ],
    "types": {
      "t_address": {
        "encoding": "inplace",
        "label": "address",
        "numberOfBytes": "20"
      },
      "t_array(t_bytes32)dyn_storage": {
        "base": "t_bytes32",
        "encoding": "dynamic_array",
        "label": "bytes32[]",
        "numberOfBytes": "32"
      },
      "t_array(t_uint256)64_storage": {
        "base": "t_uint256",
        "encoding": "inplace",
        "label": "uint256[64]",
        "numberOfBytes": "2048"
      },
      "t_bool": {
        "encoding": "inplace",
        "label": "bool",
        "numberOfBytes": "1"
      },
      "t_bytes32": {
        "encoding": "inplace",
        "label": "bytes32",
        "numberOfBytes": "32"
      },
      "t_bytes4": {
        "encoding": "inplace",
        "label": "bytes4",
        "numberOfBytes": "4"
      },
      "t_enum(ActivityStatus)11721": {
        "encoding": "inplace",
        "label": "enum IACLCommons.ActivityStatus",
        "numberOfBytes": "1"
      },
      "t_enum(AgentType)11716": {
        "encoding": "inplace",
        "label": "enum IACLCommons.AgentType",
        "numberOfBytes": "1"
      },
      "t_enum(AlterabilityStatus)11726": {
        "encoding": "inplace",
        "label": "enum IACLCommons.AlterabilityStatus",
        "numberOfBytes": "1"
      },
      "t_enum(PolicyType)11744": {
        "encoding": "inplace",
        "label": "enum IACLCommons.PolicyType",
        "numberOfBytes": "1"
      },
      "t_enum(ProxySafeModeStatus)82251": {
        "encoding": "inplace",
        "label": "enum IBaseProxy.ProxySafeModeStatus",
        "numberOfBytes": "1"
      },
      "t_enum(ProxyUpdatabilityStatus)82254": {
        "encoding": "inplace",
        "label": "enum IBaseProxy.ProxyUpdatabilityStatus",
        "numberOfBytes": "1"
      },
      "t_enum(ScopeType)11733": {
        "encoding": "inplace",
        "label": "enum IACLCommons.ScopeType",
        "numberOfBytes": "1"
      },
      "t_mapping(t_address,t_struct(FacetEntity)11945_storage)": {
        "encoding": "mapping",
        "key": "t_address",
        "label": "mapping(address => struct IACLCommons.FacetEntity)",
        "numberOfBytes": "32",
        "value": "t_struct(FacetEntity)11945_storage"
      },
      "t_mapping(t_address,t_struct(ProfileAccount)12018_storage)": {
        "encoding": "mapping",
        "key": "t_address",
        "label": "mapping(address => struct IACLCommons.ProfileAccount)",
        "numberOfBytes": "32",
        "value": "t_struct(ProfileAccount)12018_storage"
      },
      "t_mapping(t_bytes32,t_bytes32)": {
        "encoding": "mapping",
        "key": "t_bytes32",
        "label": "mapping(bytes32 => bytes32)",
        "numberOfBytes": "32",
        "value": "t_bytes32"
      },
      "t_mapping(t_bytes32,t_struct(BaseAgent)11756_storage)": {
        "encoding": "mapping",
        "key": "t_bytes32",
        "label": "mapping(bytes32 => struct IACLCommons.BaseAgent)",
        "numberOfBytes": "32",
        "value": "t_struct(BaseAgent)11756_storage"
      },
      "t_mapping(t_bytes32,t_struct(BaseScope)11770_storage)": {
        "encoding": "mapping",
        "key": "t_bytes32",
        "label": "mapping(bytes32 => struct IACLCommons.BaseScope)",
        "numberOfBytes": "32",
        "value": "t_struct(BaseScope)11770_storage"
      },
      "t_mapping(t_bytes32,t_struct(PolicyEntity)11793_storage)": {
        "encoding": "mapping",
        "key": "t_bytes32",
        "label": "mapping(bytes32 => struct IACLCommons.PolicyEntity)",
        "numberOfBytes": "32",
        "value": "t_struct(PolicyEntity)11793_storage"
      },
      "t_mapping(t_bytes32,t_struct(ProfileEntity)12059_storage)": {
        "encoding": "mapping",
        "key": "t_bytes32",
        "label": "mapping(bytes32 => struct IACLCommons.ProfileEntity)",
        "numberOfBytes": "32",
        "value": "t_struct(ProfileEntity)12059_storage"
      },
      "t_mapping(t_bytes32,t_uint256)": {
        "encoding": "mapping",
        "key": "t_bytes32",
        "label": "mapping(bytes32 => uint256)",
        "numberOfBytes": "32",
        "value": "t_uint256"
      },
      "t_mapping(t_bytes4,t_address)": {
        "encoding": "mapping",
        "key": "t_bytes4",
        "label": "mapping(bytes4 => address)",
        "numberOfBytes": "32",
        "value": "t_address"
      },
      "t_string_storage": {
        "encoding": "bytes",
        "label": "string",
        "numberOfBytes": "32"
      },
      "t_struct(AddressSet)79783_storage": {
        "encoding": "inplace",
        "label": "struct LEnumerableSet.AddressSet",
        "members": [
          {
            "astId": 79782,
            "contract": "src/contracts/acl/scope/UniverseManger.sol:UniverseManager",
            "label": "_inner",
            "offset": 0,
            "slot": "0",
            "type": "t_struct(Set)79482_storage"
          }
        ],
        "numberOfBytes": "64"
      },
      "t_struct(BaseAgent)11756_storage": {
        "encoding": "inplace",
        "label": "struct IACLCommons.BaseAgent",
        "members": [
          {
            "astId": 11746,
            "contract": "src/contracts/acl/scope/UniverseManger.sol:UniverseManager",
            "label": "adminId",
            "offset": 0,
            "slot": "0",
            "type": "t_bytes32"
          },
          {
            "astId": 11749,
            "contract": "src/contracts/acl/scope/UniverseManger.sol:UniverseManager",
            "label": "atype",
            "offset": 0,
            "slot": "1",
            "type": "t_enum(AgentType)11716"
          },
          {
            "astId": 11752,
            "contract": "src/contracts/acl/scope/UniverseManger.sol:UniverseManager",
            "label": "acstat",
            "offset": 1,
            "slot": "1",
            "type": "t_enum(ActivityStatus)11721"
          },
          {
            "astId": 11755,
            "contract": "src/contracts/acl/scope/UniverseManger.sol:UniverseManager",
            "label": "alstat",
            "offset": 2,
            "slot": "1",
            "type": "t_enum(AlterabilityStatus)11726"
          }
        ],
        "numberOfBytes": "64"
      },
      "t_struct(BaseScope)11770_storage": {
        "encoding": "inplace",
        "label": "struct IACLCommons.BaseScope",
        "members": [
          {
            "astId": 11758,
            "contract": "src/contracts/acl/scope/UniverseManger.sol:UniverseManager",
            "label": "adminId",
            "offset": 0,
            "slot": "0",
            "type": "t_bytes32"
          },
          {
            "astId": 11761,
            "contract": "src/contracts/acl/scope/UniverseManger.sol:UniverseManager",
            "label": "stype",
            "offset": 0,
            "slot": "1",
            "type": "t_enum(ScopeType)11733"
          },
          {
            "astId": 11764,
            "contract": "src/contracts/acl/scope/UniverseManger.sol:UniverseManager",
            "label": "acstat",
            "offset": 1,
            "slot": "1",
            "type": "t_enum(ActivityStatus)11721"
          },
          {
            "astId": 11767,
            "contract": "src/contracts/acl/scope/UniverseManger.sol:UniverseManager",
            "label": "alstat",
            "offset": 2,
            "slot": "1",
            "type": "t_enum(AlterabilityStatus)11726"
          },
          {
            "astId": 11769,
            "contract": "src/contracts/acl/scope/UniverseManger.sol:UniverseManager",
            "label": "referredByAgent",
            "offset": 3,
            "slot": "1",
            "type": "t_uint32"
          }
        ],
        "numberOfBytes": "64"
      },
      "t_struct(Bytes32Set)79676_storage": {
        "encoding": "inplace",
        "label": "struct LEnumerableSet.Bytes32Set",
        "members": [
          {
            "astId": 79675,
            "contract": "src/contracts/acl/scope/UniverseManger.sol:UniverseManager",
            "label": "_inner",
            "offset": 0,
            "slot": "0",
            "type": "t_struct(Set)79482_storage"
          }
        ],
        "numberOfBytes": "64"
      },
      "t_struct(DataCollection)10239_storage": {
        "encoding": "inplace",
        "label": "struct ACLStorage.DataCollection",
        "members": [
          {
            "astId": 10202,
            "contract": "src/contracts/acl/scope/UniverseManger.sol:UniverseManager",
            "label": "agents",
            "offset": 0,
            "slot": "0",
            "type": "t_mapping(t_bytes32,t_struct(BaseAgent)11756_storage)"
          },
          {
            "astId": 10207,
            "contract": "src/contracts/acl/scope/UniverseManger.sol:UniverseManager",
            "label": "scopes",
            "offset": 0,
            "slot": "1",
            "type": "t_mapping(t_bytes32,t_struct(BaseScope)11770_storage)"
          },
          {
            "astId": 10212,
            "contract": "src/contracts/acl/scope/UniverseManger.sol:UniverseManager",
            "label": "policies",
            "offset": 0,
            "slot": "2",
            "type": "t_mapping(t_bytes32,t_struct(PolicyEntity)11793_storage)"
          },
          {
            "astId": 10216,
            "contract": "src/contracts/acl/scope/UniverseManger.sol:UniverseManager",
            "label": "rolePolicyMap",
            "offset": 0,
            "slot": "3",
            "type": "t_mapping(t_bytes32,t_bytes32)"
          },
          {
            "astId": 10221,
            "contract": "src/contracts/acl/scope/UniverseManger.sol:UniverseManager",
            "label": "profiles",
            "offset": 0,
            "slot": "4",
            "type": "t_mapping(t_bytes32,t_struct(ProfileEntity)12059_storage)"
          },
          {
            "astId": 10226,
            "contract": "src/contracts/acl/scope/UniverseManger.sol:UniverseManager",
            "label": "profileAccounts",
            "offset": 0,
            "slot": "5",
            "type": "t_mapping(t_address,t_struct(ProfileAccount)12018_storage)"
          },
          {
            "astId": 10230,
            "contract": "src/contracts/acl/scope/UniverseManger.sol:UniverseManager",
            "label": "selectors",
            "offset": 0,
            "slot": "6",
            "type": "t_mapping(t_bytes4,t_address)"
          },
          {
            "astId": 10235,
            "contract": "src/contracts/acl/scope/UniverseManger.sol:UniverseManager",
            "label": "facets",
            "offset": 0,
            "slot": "7",
            "type": "t_mapping(t_address,t_struct(FacetEntity)11945_storage)"
          },
          {
            "astId": 10238,
            "contract": "src/contracts/acl/scope/UniverseManger.sol:UniverseManager",
            "label": "facetSet",
            "offset": 0,
            "slot": "8",
            "type": "t_struct(AddressSet)79783_storage"
          }
        ],
        "numberOfBytes": "320"
      },
      "t_struct(FacetEntity)11945_storage": {
        "encoding": "inplace",
        "label": "struct IACLCommons.FacetEntity",
        "members": [
          {
            "astId": 11944,
            "contract": "src/contracts/acl/scope/UniverseManger.sol:UniverseManager",
            "label": "subjectId",
            "offset": 0,
            "slot": "0",
            "type": "t_address"
          }
        ],
        "numberOfBytes": "32"
      },
      "t_struct(PolicyEntity)11793_storage": {
        "encoding": "inplace",
        "label": "struct IACLCommons.PolicyEntity",
        "members": [
          {
            "astId": 11772,
            "contract": "src/contracts/acl/scope/UniverseManger.sol:UniverseManager",
            "label": "adminId",
            "offset": 0,
            "slot": "0",
            "type": "t_bytes32"
          },
          {
            "astId": 11774,
            "contract": "src/contracts/acl/scope/UniverseManger.sol:UniverseManager",
            "label": "scopeId",
            "offset": 0,
            "slot": "1",
            "type": "t_bytes32"
          },
          {
            "astId": 11776,
            "contract": "src/contracts/acl/scope/UniverseManger.sol:UniverseManager",
            "label": "name",
            "offset": 0,
            "slot": "2",
            "type": "t_string_storage"
          },
          {
            "astId": 11778,
            "contract": "src/contracts/acl/scope/UniverseManger.sol:UniverseManager",
            "label": "roleLimit",
            "offset": 0,
            "slot": "3",
            "type": "t_uint16"
          },
          {
            "astId": 11780,
            "contract": "src/contracts/acl/scope/UniverseManger.sol:UniverseManager",
            "label": "policyCode",
            "offset": 2,
            "slot": "3",
            "type": "t_uint8"
          },
          {
            "astId": 11783,
            "contract": "src/contracts/acl/scope/UniverseManger.sol:UniverseManager",
            "label": "ptype",
            "offset": 3,
            "slot": "3",
            "type": "t_enum(PolicyType)11744"
          },
          {
            "astId": 11786,
            "contract": "src/contracts/acl/scope/UniverseManger.sol:UniverseManager",
            "label": "acstat",
            "offset": 4,
            "slot": "3",
            "type": "t_enum(ActivityStatus)11721"
          },
          {
            "astId": 11789,
            "contract": "src/contracts/acl/scope/UniverseManger.sol:UniverseManager",
            "label": "alstat",
            "offset": 5,
            "slot": "3",
            "type": "t_enum(AlterabilityStatus)11726"
          },
          {
            "astId": 11792,
            "contract": "src/contracts/acl/scope/UniverseManger.sol:UniverseManager",
            "label": "roles",
            "offset": 0,
            "slot": "4",
            "type": "t_struct(Bytes32Set)79676_storage"
          }
        ],
        "numberOfBytes": "192"
      },
      "t_struct(ProfileAccount)12018_storage": {
        "encoding": "inplace",
        "label": "struct IACLCommons.ProfileAccount",
        "members": [
          {
            "astId": 12017,
            "contract": "src/contracts/acl/scope/UniverseManger.sol:UniverseManager",
            "label": "profiles",
            "offset": 0,
            "slot": "0",
            "type": "t_array(t_bytes32)dyn_storage"
          }
        ],
        "numberOfBytes": "32"
      },
      "t_struct(ProfileEntity)12059_storage": {
        "encoding": "inplace",
        "label": "struct IACLCommons.ProfileEntity",
        "members": [
          {
            "astId": 12023,
            "contract": "src/contracts/acl/scope/UniverseManger.sol:UniverseManager",
            "label": "agents",
            "offset": 0,
            "slot": "0",
            "type": "t_mapping(t_bytes32,t_struct(BaseAgent)11756_storage)"
          },
          {
            "astId": 12028,
            "contract": "src/contracts/acl/scope/UniverseManger.sol:UniverseManager",
            "label": "scopes",
            "offset": 0,
            "slot": "1",
            "type": "t_mapping(t_bytes32,t_struct(BaseScope)11770_storage)"
          },
          {
            "astId": 12033,
            "contract": "src/contracts/acl/scope/UniverseManger.sol:UniverseManager",
            "label": "policies",
            "offset": 0,
            "slot": "2",
            "type": "t_mapping(t_bytes32,t_struct(PolicyEntity)11793_storage)"
          },
          {
            "astId": 12037,
            "contract": "src/contracts/acl/scope/UniverseManger.sol:UniverseManager",
            "label": "rolePolicyMap",
            "offset": 0,
            "slot": "3",
            "type": "t_mapping(t_bytes32,t_bytes32)"
          },
          {
            "astId": 12040,
            "contract": "src/contracts/acl/scope/UniverseManger.sol:UniverseManager",
            "label": "admins",
            "offset": 0,
            "slot": "4",
            "type": "t_struct(Bytes32Set)79676_storage"
          },
          {
            "astId": 12042,
            "contract": "src/contracts/acl/scope/UniverseManger.sol:UniverseManager",
            "label": "adminId",
            "offset": 0,
            "slot": "6",
            "type": "t_bytes32"
          },
          {
            "astId": 12044,
            "contract": "src/contracts/acl/scope/UniverseManger.sol:UniverseManager",
            "label": "name",
            "offset": 0,
            "slot": "7",
            "type": "t_string_storage"
          },
          {
            "astId": 12046,
            "contract": "src/contracts/acl/scope/UniverseManger.sol:UniverseManager",
            "label": "owner",
            "offset": 0,
            "slot": "8",
            "type": "t_address"
          },
          {
            "astId": 12049,
            "contract": "src/contracts/acl/scope/UniverseManger.sol:UniverseManager",
            "label": "acstat",
            "offset": 20,
            "slot": "8",
            "type": "t_enum(ActivityStatus)11721"
          },
          {
            "astId": 12052,
            "contract": "src/contracts/acl/scope/UniverseManger.sol:UniverseManager",
            "label": "alstat",
            "offset": 21,
            "slot": "8",
            "type": "t_enum(AlterabilityStatus)11726"
          },
          {
            "astId": 12055,
            "contract": "src/contracts/acl/scope/UniverseManger.sol:UniverseManager",
            "label": "registerLimits",
            "offset": 0,
            "slot": "9",
            "type": "t_struct(ProfileRegisterLimit)11993_storage"
          },
          {
            "astId": 12058,
            "contract": "src/contracts/acl/scope/UniverseManger.sol:UniverseManager",
            "label": "limits",
            "offset": 0,
            "slot": "10",
            "type": "t_struct(ProfileLimit)12014_storage"
          }
        ],
        "numberOfBytes": "352"
      },
      "t_struct(ProfileLimit)12014_storage": {
        "encoding": "inplace",
        "label": "struct IACLCommons.ProfileLimit",
        "members": [
          {
            "astId": 11995,
            "contract": "src/contracts/acl/scope/UniverseManger.sol:UniverseManager",
            "label": "profileCallLimit",
            "offset": 0,
            "slot": "0",
            "type": "t_uint32"
          },
          {
            "astId": 11997,
            "contract": "src/contracts/acl/scope/UniverseManger.sol:UniverseManager",
            "label": "contextLimit",
            "offset": 4,
            "slot": "0",
            "type": "t_uint32"
          },
          {
            "astId": 11999,
            "contract": "src/contracts/acl/scope/UniverseManger.sol:UniverseManager",
            "label": "memberLimit",
            "offset": 8,
            "slot": "0",
            "type": "t_uint24"
          },
          {
            "astId": 12001,
            "contract": "src/contracts/acl/scope/UniverseManger.sol:UniverseManager",
            "label": "realmLimit",
            "offset": 11,
            "slot": "0",
            "type": "t_uint16"
          },
          {
            "astId": 12003,
            "contract": "src/contracts/acl/scope/UniverseManger.sol:UniverseManager",
            "label": "domainLimit",
            "offset": 13,
            "slot": "0",
            "type": "t_uint16"
          },
          {
            "astId": 12005,
            "contract": "src/contracts/acl/scope/UniverseManger.sol:UniverseManager",
            "label": "memberCallLimit",
            "offset": 15,
            "slot": "0",
            "type": "t_uint16"
          },
          {
            "astId": 12007,
            "contract": "src/contracts/acl/scope/UniverseManger.sol:UniverseManager",
            "label": "typeRoleLimit",
            "offset": 17,
            "slot": "0",
            "type": "t_uint16"
          },
          {
            "astId": 12009,
            "contract": "src/contracts/acl/scope/UniverseManger.sol:UniverseManager",
            "label": "typeLimit",
            "offset": 19,
            "slot": "0",
            "type": "t_uint16"
          },
          {
            "astId": 12011,
            "contract": "src/contracts/acl/scope/UniverseManger.sol:UniverseManager",
            "label": "policyRoleLimit",
            "offset": 21,
            "slot": "0",
            "type": "t_uint16"
          },
          {
            "astId": 12013,
            "contract": "src/contracts/acl/scope/UniverseManger.sol:UniverseManager",
            "label": "functionLimit",
            "offset": 23,
            "slot": "0",
            "type": "t_uint8"
          }
        ],
        "numberOfBytes": "32"
      },
      "t_struct(ProfileRegisterLimit)11993_storage": {
        "encoding": "inplace",
        "label": "struct IACLCommons.ProfileRegisterLimit",
        "members": [
          {
            "astId": 11978,
            "contract": "src/contracts/acl/scope/UniverseManger.sol:UniverseManager",
            "label": "memberRegisterLimit",
            "offset": 0,
            "slot": "0",
            "type": "t_uint32"
          },
          {
            "astId": 11980,
            "contract": "src/contracts/acl/scope/UniverseManger.sol:UniverseManager",
            "label": "roleRegisterLimit",
            "offset": 4,
            "slot": "0",
            "type": "t_uint32"
          },
          {
            "astId": 11982,
            "contract": "src/contracts/acl/scope/UniverseManger.sol:UniverseManager",
            "label": "typeRegisterLimit",
            "offset": 8,
            "slot": "0",
            "type": "t_uint32"
          },
          {
            "astId": 11984,
            "contract": "src/contracts/acl/scope/UniverseManger.sol:UniverseManager",
            "label": "functionRegisterLimit",
            "offset": 12,
            "slot": "0",
            "type": "t_uint32"
          },
          {
            "astId": 11986,
            "contract": "src/contracts/acl/scope/UniverseManger.sol:UniverseManager",
            "label": "contextRegisterLimit",
            "offset": 16,
            "slot": "0",
            "type": "t_uint32"
          },
          {
            "astId": 11988,
            "contract": "src/contracts/acl/scope/UniverseManger.sol:UniverseManager",
            "label": "realmRegisterLimit",
            "offset": 20,
            "slot": "0",
            "type": "t_uint16"
          },
          {
            "astId": 11990,
            "contract": "src/contracts/acl/scope/UniverseManger.sol:UniverseManager",
            "label": "domainRegisterLimit",
            "offset": 22,
            "slot": "0",
            "type": "t_uint16"
          },
          {
            "astId": 11992,
            "contract": "src/contracts/acl/scope/UniverseManger.sol:UniverseManager",
            "label": "policyRegisterLimit",
            "offset": 24,
            "slot": "0",
            "type": "t_uint16"
          }
        ],
        "numberOfBytes": "32"
      },
      "t_struct(Set)79482_storage": {
        "encoding": "inplace",
        "label": "struct LEnumerableSet.Set",
        "members": [
          {
            "astId": 79477,
            "contract": "src/contracts/acl/scope/UniverseManger.sol:UniverseManager",
            "label": "_values",
            "offset": 0,
            "slot": "0",
            "type": "t_array(t_bytes32)dyn_storage"
          },
          {
            "astId": 79481,
            "contract": "src/contracts/acl/scope/UniverseManger.sol:UniverseManager",
            "label": "_indexes",
            "offset": 0,
            "slot": "1",
            "type": "t_mapping(t_bytes32,t_uint256)"
          }
        ],
        "numberOfBytes": "64"
      },
      "t_uint16": {
        "encoding": "inplace",
        "label": "uint16",
        "numberOfBytes": "2"
      },
      "t_uint24": {
        "encoding": "inplace",
        "label": "uint24",
        "numberOfBytes": "3"
      },
      "t_uint256": {
        "encoding": "inplace",
        "label": "uint256",
        "numberOfBytes": "32"
      },
      "t_uint32": {
        "encoding": "inplace",
        "label": "uint32",
        "numberOfBytes": "4"
      },
      "t_uint8": {
        "encoding": "inplace",
        "label": "uint8",
        "numberOfBytes": "1"
      }
    }
  }
}