{
	"data": {
		"bytecode": {
			"linkReferences": {},
			"object": "60a0604052306080523480156200001557600080fd5b5033620000507fb53127684a568b3173ae13b9f8a6016e243e63b6e8ee1178d6a717850b5d610360001b6200007f60201b620015e21760201c565b80546001600160a01b0319166001600160a01b03929092169190911790556004805461ffff1916905562000082565b90565b608051612e0b620000f260003960008181610e8d01528181610ecd015281816110440152818161108401528181611108015281816112e6015281816113260152818161145101528181611491015281816119490152818161198901528181611d390152611d790152612e0b6000f3fe6080604052600436106103bc5760003560e01c80637147855d116101f2578063c3f1f22d1161010d578063ea377987116100a0578063f34b22021161006f578063f34b2202146107e7578063f5122c92146107e7578063fb72237d1461041d578063fdba6b171461041d576103cb565b8063ea3779871461041d578063edf1d1cb14610507578063f254453b1461041d578063f28f3092146107e7576103cb565b8063d8b31999116100dc578063d8b3199914610864578063d97f9e5d1461041d578063d9aba36e146107e7578063df01de451461064f576103cb565b8063c3f1f22d1461041d578063c7ab39e614610834578063cf891e2b1461084f578063d545594f1461041d576103cb565b80639dd0725411610185578063b567d4ba11610154578063b567d4ba14610802578063b879bdfb14610802578063c2f6167a146105a0578063c34dd6a1146107e7576103cb565b80639dd07254146107c75780639f8e37bb146107e7578063ac7e7c671461041d578063b386033f146106ff576103cb565b80638b480975116101c15780638b480975146107715780638f09e0f01461064f578063900574a51461079757806396a9b471146107ac576103cb565b80637147855d1461071a578063771bcf451461052f578063886ddb52146107475780638b3240a01461075c576103cb565b806347c02661116102e25780635c60da1b116102755780636ac58ac1116102445780636ac58ac11461069a5780636b3b0159146106af5780636e8eb7bc146106ca5780636fb63dca146106ff576103cb565b80635c60da1b146106025780635c6d8da11461062f5780635dd0a7db1461064f5780636217088f14610672576103cb565b806352d1902d116102b157806352d1902d146105bb5780635472e25e146105075780635479d940146105d05780635632ffd8146105ed576103cb565b806347c02661146105535780634a8c1fb4146105735780634bce20dd1461058b5780634f2eca98146105a0576103cb565b8063133899f51161035a57806329b2be011161032957806329b2be01146104a15780632e2adf00146104d95780632f671733146105075780634346a04b1461052f576103cb565b8063133899f51461046c5780631e26521a1461041d57806320c877071461041d57806320dd27af1461048c576103cb565b806309d4a9071161039657806309d4a9071461041d5780630c9a90741461043e5780630d1ee1bd1461041d57806312c1a08e1461041d576103cb565b80630124a80a146103d357806301ffc9a7146103fd5780630610e0371461041d576103cb565b366103cb576103c9610879565b005b6103c9610879565b3480156103df57600080fd5b506103e861088b565b60405190151581526020015b60405180910390f35b34801561040957600080fd5b506103e86104183660046122f3565b610a5c565b34801561042957600080fd5b506103e861043836600461230e565b50600090565b34801561044a57600080fd5b5061045e610459366004612327565b610aae565b6040519081526020016103f4565b34801561047857600080fd5b506103e86104873660046123c3565b610e81565b34801561049857600080fd5b5061045e610ffb565b3480156104ad57600080fd5b506104c96104bc36600461230e565b6060806000809193509193565b6040516103f4949392919061243c565b3480156104e557600080fd5b506104fa6104f436600461230e565b50606090565b6040516103f4919061247a565b34801561051357600080fd5b506105226104f436600461230e565b6040516103f491906124c8565b34801561053b57600080fd5b506103e861054a366004612500565b60009392505050565b34801561055f57600080fd5b506103e861056e36600461254c565b611038565b34801561057f57600080fd5b5060045460ff166103e8565b34801561059757600080fd5b5061045e6110eb565b3480156105ac57600080fd5b506103e861043836600461254c565b3480156105c757600080fd5b5061045e6110fb565b3480156105dc57600080fd5b50600454610100900460ff166103e8565b3480156105f957600080fd5b5061045e611188565b34801561060e57600080fd5b506106176111b9565b6040516001600160a01b0390911681526020016103f4565b34801561063b57600080fd5b506103e861064a3660046125b0565b6111c3565b34801561065b57600080fd5b506103e861066a36600461265b565b600092915050565b34801561067e57600080fd5b5061068d6104f436600461230e565b6040516103f49190612687565b3480156106a657600080fd5b5061045e6112b2565b3480156106bb57600080fd5b506103e861054a3660046126c8565b3480156106d657600080fd5b506106f06106e536600461230e565b506060908190600090565b6040516103f4939291906126fd565b34801561070b57600080fd5b5061045e61054a366004612735565b34801561072657600080fd5b5061073a6107353660046127fb565b6112da565b6040516103f49190612895565b34801561075357600080fd5b5061073a61139a565b34801561076857600080fd5b5061061761142c565b34801561077d57600080fd5b5061045e61078c3660046128a8565b600095945050505050565b3480156107a357600080fd5b5061073a611436565b3480156107b857600080fd5b5061045e61054a366004612327565b3480156107d357600080fd5b506103e86107e23660046123c3565b611445565b3480156107f357600080fd5b506103e861066a36600461292c565b34801561080e57600080fd5b5061082661081d36600461230e565b60606000915091565b6040516103f492919061294e565b34801561084057600080fd5b506103e861054a366004612972565b34801561085b57600080fd5b5061073a6115ae565b34801561087057600080fd5b5061045e6115bd565b6108896108846115e5565b611606565b565b600080604051806040016040528060036040516020016108ab91906129df565b60408051808303601f1901815291815281516020928301208352309282019290925281518083018352600081526060818301528251704c4956454c595f41444d494e5f524f4c4560781b81840152835160118183030181526031909101845280519083012081528251600a808252610160820190945293945092919082016101408036833750505060208201819052805163133899f560e01b919060009061095557610955612a55565b6001600160e01b031990921660209283029190910182015281015180516327741c9560e21b9190600190811061098d5761098d612a55565b6001600160e01b031990921660209283029190910182015281015180516347c0266160e01b919060029081106109c5576109c5612a55565b6001600160e01b03199092166020928302919091018201528101518051637147855d60e01b919060039081106109fd576109fd612a55565b6001600160e01b03199092166020928302919091018201528101518051635c6d8da160e01b91906004908110610a3557610a35612a55565b60200260200101906001600160e01b03191690816001600160e01b03191681525050505090565b60006001600160e01b0319821663ecc32dd960e01b1480610a8d57506001600160e01b031982166352d1902d60e01b145b80610aa857506301ffc9a760e01b6001600160e01b03198316145b92915050565b6000610ac0604085016020860161254c565b6001600160a01b0316336001600160a01b031614610b255760405162461bcd60e51b815260206004820152601860248201527f496c6c6567616c20436f6e74726163742041646472657373000000000000000060448201526064015b60405180910390fd5b833560009081526089602052604090208054610b40906129a5565b9050600003610b835760405162461bcd60e51b815260206004820152600f60248201526e1499585b1b48139bdd08119bdd5b99608a1b6044820152606401610b1c565b6000610b9d610b98604087016020880161254c565b61162f565b6000818152608760205260409020600101549091506001600160a01b031615610c085760405162461bcd60e51b815260206004820152601a60248201527f436f6e7465787420416c726561647920526567697374657265640000000000006044820152606401610b1c565b6000818152608760209081526040918290208735815591610c2e9190880190880161254c565b6001820180546001600160a01b0319166001600160a01b039290921691909117905560005b84811015610e1f5760886000878784818110610c7157610c71612a55565b9050602002810190610c839190612a6b565b35815260208101919091526040016000208054610c9f906129a5565b9050600003610ce15760405162461bcd60e51b815260206004820152600e60248201526d149bdb1948139bdd08119bdd5b9960921b6044820152606401610b1c565b60005b868683818110610cf657610cf6612a55565b9050602002810190610d089190612a6b565b610d16906020810190612a8b565b9050811015610e0c576001836002016000898986818110610d3957610d39612a55565b9050602002810190610d4b9190612a6b565b610d59906020810190612a8b565b85818110610d6957610d69612a55565b9050602002016020810190610d7e91906122f3565b6001600160e01b03191681526020019081526020016000206000898986818110610daa57610daa612a55565b9050602002810190610dbc9190612a6b565b3581526020810191909152604001600020805460ff19166001836002811115610de757610de7612ad5565b0217905550610df96003840185611663565b5080610e0481612aeb565b915050610ce4565b5080610e1781612aeb565b915050610c53565b5033610e31604088016020890161254c565b6001600160a01b0316837f11cf8f3561fae187c57df59424ecf5d3f444e138924944c77dcb68144c6357318960000135604051610e7091815260200190565b60405180910390a450509392505050565b60006001600160a01b037f0000000000000000000000000000000000000000000000000000000000000000163003610ecb5760405162461bcd60e51b8152600401610b1c90612b12565b7f00000000000000000000000000000000000000000000000000000000000000006001600160a01b0316610efd6115e5565b6001600160a01b031614610f235760405162461bcd60e51b8152600401610b1c90612b49565b610f3363133899f560e01b61166f565b610f7f5760405162461bcd60e51b815260206004820152601e60248201527f4368616e6765205570677261646162696c69747920466f7262696464656e00006044820152606401610b1c565b6004805461ff00191661010084151502179055604051610fa4906003906020016129df565b60408051808303601f19018152908290528051602091820120841515835291309133917fd4d20cb9bd5c738ebabfe2ce802ed93d2a3af5ecc519f34313937a208554a42491015b60405180910390a450805b919050565b604051734c4956454c595f47454e4552414c5f5245414c4d60601b60208201526034015b6040516020818303038152906040528051906020012081565b60006001600160a01b037f00000000000000000000000000000000000000000000000000000000000000001630036110825760405162461bcd60e51b8152600401610b1c90612b12565b7f00000000000000000000000000000000000000000000000000000000000000006001600160a01b03166110b46115e5565b6001600160a01b0316146110da5760405162461bcd60e51b8152600401610b1c90612b49565b6110e3826116f9565b506001919050565b60006110f63061162f565b905090565b6000306001600160a01b037f000000000000000000000000000000000000000000000000000000000000000016146111755760405162461bcd60e51b815260206004820152601b60248201527f44656c656761746563616c6c204e6f742041636365707461626c6500000000006044820152606401610b1c565b50600080516020612db683398151915290565b6040517f4c4956454c595f53595354454d5f41444d494e5f524f4c450000000000000000602082015260380161101f565b60006110f66115e5565b6000806111d06001611850565b905080156111ea576045805462ff00001916620100001790555b6111f98989898989898961193f565b306001600160a01b0316630124a80a6040518163ffffffff1660e01b81526004016020604051808303816000875af1158015611239573d6000803e3d6000fd5b505050506040513d601f19601f8201168201806040525081019061125d9190612b79565b915080156112a6576045805462ff000019169055604051600181527fc80eaabd798ec84cc42c71a5226e2dff95376cf50c32a53de2a2732b8d293e319060200160405180910390a15b50979650505050505050565b6040517304c4956454c595f47454e4552414c5f47524f55560641b602082015260340161101f565b60606001600160a01b037f00000000000000000000000000000000000000000000000000000000000000001630036113245760405162461bcd60e51b8152600401610b1c90612b12565b7f00000000000000000000000000000000000000000000000000000000000000006001600160a01b03166113566115e5565b6001600160a01b03161461137c5760405162461bcd60e51b8152600401610b1c90612b49565b61138584611aa4565b611390848484611b03565b90505b9392505050565b6060600380546113a9906129a5565b80601f01602080910402602001604051908101604052809291908181526020018280546113d5906129a5565b80156114225780601f106113f757610100808354040283529160200191611422565b820191906000526020600020905b81548152906001019060200180831161140557829003601f168201915b5050505050905090565b60006110f6611cb8565b6060600180546113a9906129a5565b60006001600160a01b037f000000000000000000000000000000000000000000000000000000000000000016300361148f5760405162461bcd60e51b8152600401610b1c90612b12565b7f00000000000000000000000000000000000000000000000000000000000000006001600160a01b03166114c16115e5565b6001600160a01b0316146114e75760405162461bcd60e51b8152600401610b1c90612b49565b6114f76327741c9560e21b61166f565b6115435760405162461bcd60e51b815260206004820152601a60248201527f4368616e67656420416374697669747920466f7262696464656e0000000000006044820152606401610b1c565b6004805460ff1916831515179055604051611563906003906020016129df565b60408051808303601f19018152908290528051602091820120841515835291309133917fd7b3867a2b70434a4341b38eb52d8392ecbed087bc2d6efe017b9d1d7bef9f6d9101610feb565b6060600280546113a9906129a5565b604051704c4956454c595f41444d494e5f524f4c4560781b602082015260310161101f565b90565b6000600080516020612db68339815191525b546001600160a01b0316919050565b3660008037600080366000845af43d6000803e808015611625573d6000f35b3d6000fd5b505050565b604080516001600160a01b038316602082015260009101604051602081830303815290604052805190602001209050919050565b60006113938383611ce0565b600080546001600160a01b031663c7ab39e661168a3061162f565b6040516001600160e01b031960e084901b8116825260048201929092523360248201529085166044820152606401602060405180830381865afa1580156116d5573d6000803e3d6000fd5b505050506040513d601f19601f82011682018060405250810190610aa89190612b79565b60045460ff1661171b5760405162461bcd60e51b8152600401610b1c90612b96565b61172b6347c0266160e01b61166f565b6117775760405162461bcd60e51b815260206004820152601b60248201527f4368616e67652050726f787941646d696e20466f7262696464656e00000000006044820152606401610b1c565b6001600160a01b0381166117bf5760405162461bcd60e51b815260206004820152600f60248201526e1059191c995cdcc8125b9d985b1a59608a1b6044820152606401610b1c565b30337f6dd9a711c71f2384e1a3f1ab85a1d06eee5c81ec1e377a10e6b672052116362d6117ea611cb8565b604080516001600160a01b03928316815291861660208301520160405180910390a3807fb53127684a568b3173ae13b9f8a6016e243e63b6e8ee1178d6a717850b5d61035b80546001600160a01b0319166001600160a01b039290921691909117905550565b60455460009062010000900460ff16156118cb578161ffff1660011480156118775750303b155b6118c35760405162461bcd60e51b815260206004820152601c60248201527f436f6e747261637420416c726561647920696e697469616c697a6564000000006044820152606401610b1c565b506000919050565b60455461ffff8084169116106119235760405162461bcd60e51b815260206004820152601a60248201527f496c6c6567616c20496e697469616c697a652056657273696f6e0000000000006044820152606401610b1c565b506045805461ffff191661ffff92909216919091179055600190565b6001600160a01b037f00000000000000000000000000000000000000000000000000000000000000001630036119875760405162461bcd60e51b8152600401610b1c90612b12565b7f00000000000000000000000000000000000000000000000000000000000000006001600160a01b03166119b96115e5565b6001600160a01b0316146119df5760405162461bcd60e51b8152600401610b1c90612b49565b336119e8611cb8565b6001600160a01b031614611a345760405162461bcd60e51b815260206004820152601360248201527221b0b63632b91024b9902737ba1020b236b4b760691b6044820152606401610b1c565b60455462010000900460ff16611a8c5760405162461bcd60e51b815260206004820152601c60248201527f436f6e7472616374204973204e6f7420496e697469616c697a696e67000000006044820152606401610b1c565b611a9b87878787878787611d2f565b50505050505050565b611ab4637147855d60e01b61166f565b611b005760405162461bcd60e51b815260206004820152601f60248201527f436f6e74657874205570677261646162696c69747920466f7262696464656e006044820152606401610b1c565b50565b60607f4910fdfa16fed3260ed0e7147f7cc6da11a60208b5b9406d12a635614ffd91435460ff1615611ba057600454610100900460ff16611b825760405162461bcd60e51b8152602060048201526019602482015278436f6e74657874204973204e6f742055706772616461626c6560381b6044820152606401610b1c565b611b8b84611ed8565b50604080516000815260208101909152611393565b836001600160a01b03166352d1902d6040518163ffffffff1660e01b8152600401602060405180830381865afa925050508015611bfa575060408051601f3d908101601f19168201909252611bf791810190612bcd565b60015b611c3d5760405162461bcd60e51b8152602060048201526014602482015273436f6e7472616374204973204e6f74205555505360601b6044820152606401610b1c565b600080516020612db68339815191528114611ca55760405162461bcd60e51b815260206004820152602260248201527f436f6e747261637420556e737570706f727465642070726f786961626c655555604482015261125160f21b6064820152608401610b1c565b50611cb1848484611f7c565b9050611393565b60007fb53127684a568b3173ae13b9f8a6016e243e63b6e8ee1178d6a717850b5d61036115f7565b6000818152600183016020526040812054611d2757508154600181810184556000848152602080822090930184905584548482528286019093526040902091909155610aa8565b506000610aa8565b6001600160a01b037f0000000000000000000000000000000000000000000000000000000000000000163003611d775760405162461bcd60e51b8152600401610b1c90612b12565b7f00000000000000000000000000000000000000000000000000000000000000006001600160a01b0316611da96115e5565b6001600160a01b031614611dcf5760405162461bcd60e51b8152600401610b1c90612b49565b33611dd8611cb8565b6001600160a01b031614611e245760405162461bcd60e51b815260206004820152601360248201527221b0b63632b91024b9902737ba1020b236b4b760691b6044820152606401610b1c565b60455462010000900460ff16611e7c5760405162461bcd60e51b815260206004820152601c60248201527f436f6e7472616374204973204e6f7420496e697469616c697a696e67000000006044820152606401610b1c565b6001611e89878983612c34565b506002611e97858783612c34565b506003611ea5838583612c34565b50600080546001600160a01b0319166001600160a01b0383161790556004805461ffff19166001179055611a9b336116f9565b60045460ff16611efa5760405162461bcd60e51b8152600401610b1c90612b96565b6001600160a01b0381163b611f675760405162461bcd60e51b815260206004820152602d60248201527f455243313936373a206e657720696d706c656d656e746174696f6e206973206e60448201526c1bdd08184818dbdb9d1c9858dd609a1b6064820152608401610b1c565b80600080516020612db683398151915261182f565b6060611f8784611fba565b600083511180611f945750815b15611fa357611cb1848461217d565b505060408051600081526020810190915292915050565b600454610100900460ff1661200d5760405162461bcd60e51b8152602060048201526019602482015278436f6e74657874204973204e6f742055706772616461626c6560381b6044820152606401610b1c565b60006120176115e5565b6040519091506001600160a01b038316907fbc7cd75a20ee27fd9adebab32041f755214dbc6bffa90cc0225b39da2e5c2d3b90600090a2816001600160a01b0316306001600160a01b0316336001600160a01b03167ebe01838f727d9b6a4cc703cad7dd0426a7dd3a2ad8bbc1aae8e61a5f7fdd3684866001600160a01b031663cf891e2b6040518163ffffffff1660e01b8152600401600060405180830381865afa1580156120cb573d6000803e3d6000fd5b505050506040513d6000823e601f3d908101601f191682016040526120f39190810190612cf5565b866001600160a01b031663cf891e2b6040518163ffffffff1660e01b8152600401600060405180830381865afa158015612131573d6000803e3d6000fd5b505050506040513d6000823e601f3d908101601f191682016040526121599190810190612cf5565b60405161216893929190612d63565b60405180910390a461217982611ed8565b5050565b60045460609060ff166121a25760405162461bcd60e51b8152600401610b1c90612b96565b6001600160a01b0383163b6121f95760405162461bcd60e51b815260206004820152601c60248201527f44656c656761746563616c6c20746f206e6f6e2d636f6e7472616374000000006044820152606401610b1c565b600080846001600160a01b0316846040516122149190612da3565b600060405180830381855af49150503d806000811461224f576040519150601f19603f3d011682016040523d82523d6000602084013e612254565b606091505b509150915061229982826040518060400160405280601e81526020017f6c6f772d6c6576656c2064656c65676174652063616c6c206661696c656400008152506122a2565b95945050505050565b606083156122b1575081611393565b8251156122c15782518084602001fd5b8160405162461bcd60e51b8152600401610b1c9190612895565b80356001600160e01b031981168114610ff657600080fd5b60006020828403121561230557600080fd5b611393826122db565b60006020828403121561232057600080fd5b5035919050565b6000806000838503606081121561233d57600080fd5b604081121561234b57600080fd5b50839250604084013567ffffffffffffffff8082111561236a57600080fd5b818601915086601f83011261237e57600080fd5b81358181111561238d57600080fd5b8760208260051b85010111156123a257600080fd5b6020830194508093505050509250925092565b8015158114611b0057600080fd5b6000602082840312156123d557600080fd5b8135611393816123b5565b60005b838110156123fb5781810151838201526020016123e3565b8381111561240a576000848401525b50505050565b600081518084526124288160208601602086016123e0565b601f01601f19169290920160200192915050565b60808152600061244f6080830187612410565b82810360208401526124618187612410565b6040840195909552505090151560609091015292915050565b6020808252825182820181905260009190848201906040850190845b818110156124bc5783516001600160e01b03191683529284019291840191600101612496565b50909695505050505050565b6020808252825182820181905260009190848201906040850190845b818110156124bc578351835292840192918401916001016124e4565b60008060006060848603121561251557600080fd5b83359250612525602085016122db565b9150604084013590509250925092565b80356001600160a01b0381168114610ff657600080fd5b60006020828403121561255e57600080fd5b61139382612535565b60008083601f84011261257957600080fd5b50813567ffffffffffffffff81111561259157600080fd5b6020830191508360208285010111156125a957600080fd5b9250929050565b60008060008060008060006080888a0312156125cb57600080fd5b873567ffffffffffffffff808211156125e357600080fd5b6125ef8b838c01612567565b909950975060208a013591508082111561260857600080fd5b6126148b838c01612567565b909750955060408a013591508082111561262d57600080fd5b5061263a8a828b01612567565b909450925061264d905060608901612535565b905092959891949750929550565b6000806040838503121561266e57600080fd5b8235915061267e60208401612535565b90509250929050565b6020808252825182820181905260009190848201906040850190845b818110156124bc5783516001600160a01b0316835292840192918401916001016126a3565b6000806000606084860312156126dd57600080fd5b83359250602084013591506126f4604085016122db565b90509250925092565b6060815260006127106060830186612410565b82810360208401526127228186612410565b9150508215156040830152949350505050565b60008060006040848603121561274a57600080fd5b833567ffffffffffffffff81111561276157600080fd5b61276d86828701612567565b9094509250506020840135612781816123b5565b809150509250925092565b634e487b7160e01b600052604160045260246000fd5b604051601f8201601f1916810167ffffffffffffffff811182821017156127cb576127cb61278c565b604052919050565b600067ffffffffffffffff8211156127ed576127ed61278c565b50601f01601f191660200190565b60008060006060848603121561281057600080fd5b61281984612535565b9250602084013567ffffffffffffffff81111561283557600080fd5b8401601f8101861361284657600080fd5b8035612859612854826127d3565b6127a2565b81815287602083850101111561286e57600080fd5b816020840160208301376000602083830101528094505050506040840135612781816123b5565b6020815260006113936020830184612410565b6000806000806000606086880312156128c057600080fd5b853567ffffffffffffffff808211156128d857600080fd5b6128e489838a01612567565b909750955060208801359150808211156128fd57600080fd5b5061290a88828901612567565b909450925050604086013561291e816123b5565b809150509295509295909350565b6000806040838503121561293f57600080fd5b50508035926020909101359150565b6040815260006129616040830185612410565b905082151560208301529392505050565b60008060006060848603121561298757600080fd5b8335925061299760208501612535565b91506126f4604085016122db565b600181811c908216806129b957607f821691505b6020821081036129d957634e487b7160e01b600052602260045260246000fd5b50919050565b60008083546129ed816129a5565b60018281168015612a055760018114612a1a57612a49565b60ff1984168752821515830287019450612a49565b8760005260208060002060005b85811015612a405781548a820152908401908201612a27565b50505082870194505b50929695505050505050565b634e487b7160e01b600052603260045260246000fd5b60008235603e19833603018112612a8157600080fd5b9190910192915050565b6000808335601e19843603018112612aa257600080fd5b83018035915067ffffffffffffffff821115612abd57600080fd5b6020019150600581901b36038213156125a957600080fd5b634e487b7160e01b600052602160045260246000fd5b600060018201612b0b57634e487b7160e01b600052601160045260246000fd5b5060010190565b6020808252601c908201527f4f6e6c792044656c656761746563616c6c2041636365707461626c6500000000604082015260600190565b60208082526016908201527543616c6c6564204279204163746976652050726f787960501b604082015260600190565b600060208284031215612b8b57600080fd5b8151611393816123b5565b60208082526018908201527f436f6e74657874204973204e6f74204163746976617465640000000000000000604082015260600190565b600060208284031215612bdf57600080fd5b5051919050565b601f82111561162a57600081815260208120601f850160051c81016020861015612c0d5750805b601f850160051c820191505b81811015612c2c57828155600101612c19565b505050505050565b67ffffffffffffffff831115612c4c57612c4c61278c565b612c6083612c5a83546129a5565b83612be6565b6000601f841160018114612c945760008515612c7c5750838201355b600019600387901b1c1916600186901b178355612cee565b600083815260209020601f19861690835b82811015612cc55786850135825560209485019460019092019101612ca5565b5086821015612ce25760001960f88860031b161c19848701351681555b505060018560011b0183555b5050505050565b600060208284031215612d0757600080fd5b815167ffffffffffffffff811115612d1e57600080fd5b8201601f81018413612d2f57600080fd5b8051612d3d612854826127d3565b818152856020838501011115612d5257600080fd5b6122998260208301602086016123e0565b6001600160a01b0384168152606060208201819052600090612d8790830185612410565b8281036040840152612d998185612410565b9695505050505050565b60008251612a818184602087016123e056fe360894a13ba1a3210667c828492db98dca3e2076cc3735a920a3ca505d382bbca2646970667358221220ca5ec48ffb869ae6c2cf10be95818c34b557e4e26920c306bf1c499d660ff46a64736f6c634300080f0033",
			"opcodes": "PUSH1 0xA0 PUSH1 0x40 MSTORE ADDRESS PUSH1 0x80 MSTORE CALLVALUE DUP1 ISZERO PUSH3 0x15 JUMPI PUSH1 0x0 DUP1 REVERT JUMPDEST POP CALLER PUSH3 0x50 PUSH32 0xB53127684A568B3173AE13B9F8A6016E243E63B6E8EE1178D6A717850B5D6103 PUSH1 0x0 SHL PUSH3 0x7F PUSH1 0x20 SHL PUSH3 0x15E2 OR PUSH1 0x20 SHR JUMP JUMPDEST DUP1 SLOAD PUSH1 0x1 PUSH1 0x1 PUSH1 0xA0 SHL SUB NOT AND PUSH1 0x1 PUSH1 0x1 PUSH1 0xA0 SHL SUB SWAP3 SWAP1 SWAP3 AND SWAP2 SWAP1 SWAP2 OR SWAP1 SSTORE PUSH1 0x4 DUP1 SLOAD PUSH2 0xFFFF NOT AND SWAP1 SSTORE PUSH3 0x82 JUMP JUMPDEST SWAP1 JUMP JUMPDEST PUSH1 0x80 MLOAD PUSH2 0x2E0B PUSH3 0xF2 PUSH1 0x0 CODECOPY PUSH1 0x0 DUP2 DUP2 PUSH2 0xE8D ADD MSTORE DUP2 DUP2 PUSH2 0xECD ADD MSTORE DUP2 DUP2 PUSH2 0x1044 ADD MSTORE DUP2 DUP2 PUSH2 0x1084 ADD MSTORE DUP2 DUP2 PUSH2 0x1108 ADD MSTORE DUP2 DUP2 PUSH2 0x12E6 ADD MSTORE DUP2 DUP2 PUSH2 0x1326 ADD MSTORE DUP2 DUP2 PUSH2 0x1451 ADD MSTORE DUP2 DUP2 PUSH2 0x1491 ADD MSTORE DUP2 DUP2 PUSH2 0x1949 ADD MSTORE DUP2 DUP2 PUSH2 0x1989 ADD MSTORE DUP2 DUP2 PUSH2 0x1D39 ADD MSTORE PUSH2 0x1D79 ADD MSTORE PUSH2 0x2E0B PUSH1 0x0 RETURN INVALID PUSH1 0x80 PUSH1 0x40 MSTORE PUSH1 0x4 CALLDATASIZE LT PUSH2 0x3BC JUMPI PUSH1 0x0 CALLDATALOAD PUSH1 0xE0 SHR DUP1 PUSH4 0x7147855D GT PUSH2 0x1F2 JUMPI DUP1 PUSH4 0xC3F1F22D GT PUSH2 0x10D JUMPI DUP1 PUSH4 0xEA377987 GT PUSH2 0xA0 JUMPI DUP1 PUSH4 0xF34B2202 GT PUSH2 0x6F JUMPI DUP1 PUSH4 0xF34B2202 EQ PUSH2 0x7E7 JUMPI DUP1 PUSH4 0xF5122C92 EQ PUSH2 0x7E7 JUMPI DUP1 PUSH4 0xFB72237D EQ PUSH2 0x41D JUMPI DUP1 PUSH4 0xFDBA6B17 EQ PUSH2 0x41D JUMPI PUSH2 0x3CB JUMP JUMPDEST DUP1 PUSH4 0xEA377987 EQ PUSH2 0x41D JUMPI DUP1 PUSH4 0xEDF1D1CB EQ PUSH2 0x507 JUMPI DUP1 PUSH4 0xF254453B EQ PUSH2 0x41D JUMPI DUP1 PUSH4 0xF28F3092 EQ PUSH2 0x7E7 JUMPI PUSH2 0x3CB JUMP JUMPDEST DUP1 PUSH4 0xD8B31999 GT PUSH2 0xDC JUMPI DUP1 PUSH4 0xD8B31999 EQ PUSH2 0x864 JUMPI DUP1 PUSH4 0xD97F9E5D EQ PUSH2 0x41D JUMPI DUP1 PUSH4 0xD9ABA36E EQ PUSH2 0x7E7 JUMPI DUP1 PUSH4 0xDF01DE45 EQ PUSH2 0x64F JUMPI PUSH2 0x3CB JUMP JUMPDEST DUP1 PUSH4 0xC3F1F22D EQ PUSH2 0x41D JUMPI DUP1 PUSH4 0xC7AB39E6 EQ PUSH2 0x834 JUMPI DUP1 PUSH4 0xCF891E2B EQ PUSH2 0x84F JUMPI DUP1 PUSH4 0xD545594F EQ PUSH2 0x41D JUMPI PUSH2 0x3CB JUMP JUMPDEST DUP1 PUSH4 0x9DD07254 GT PUSH2 0x185 JUMPI DUP1 PUSH4 0xB567D4BA GT PUSH2 0x154 JUMPI DUP1 PUSH4 0xB567D4BA EQ PUSH2 0x802 JUMPI DUP1 PUSH4 0xB879BDFB EQ PUSH2 0x802 JUMPI DUP1 PUSH4 0xC2F6167A EQ PUSH2 0x5A0 JUMPI DUP1 PUSH4 0xC34DD6A1 EQ PUSH2 0x7E7 JUMPI PUSH2 0x3CB JUMP JUMPDEST DUP1 PUSH4 0x9DD07254 EQ PUSH2 0x7C7 JUMPI DUP1 PUSH4 0x9F8E37BB EQ PUSH2 0x7E7 JUMPI DUP1 PUSH4 0xAC7E7C67 EQ PUSH2 0x41D JUMPI DUP1 PUSH4 0xB386033F EQ PUSH2 0x6FF JUMPI PUSH2 0x3CB JUMP JUMPDEST DUP1 PUSH4 0x8B480975 GT PUSH2 0x1C1 JUMPI DUP1 PUSH4 0x8B480975 EQ PUSH2 0x771 JUMPI DUP1 PUSH4 0x8F09E0F0 EQ PUSH2 0x64F JUMPI DUP1 PUSH4 0x900574A5 EQ PUSH2 0x797 JUMPI DUP1 PUSH4 0x96A9B471 EQ PUSH2 0x7AC JUMPI PUSH2 0x3CB JUMP JUMPDEST DUP1 PUSH4 0x7147855D EQ PUSH2 0x71A JUMPI DUP1 PUSH4 0x771BCF45 EQ PUSH2 0x52F JUMPI DUP1 PUSH4 0x886DDB52 EQ PUSH2 0x747 JUMPI DUP1 PUSH4 0x8B3240A0 EQ PUSH2 0x75C JUMPI PUSH2 0x3CB JUMP JUMPDEST DUP1 PUSH4 0x47C02661 GT PUSH2 0x2E2 JUMPI DUP1 PUSH4 0x5C60DA1B GT PUSH2 0x275 JUMPI DUP1 PUSH4 0x6AC58AC1 GT PUSH2 0x244 JUMPI DUP1 PUSH4 0x6AC58AC1 EQ PUSH2 0x69A JUMPI DUP1 PUSH4 0x6B3B0159 EQ PUSH2 0x6AF JUMPI DUP1 PUSH4 0x6E8EB7BC EQ PUSH2 0x6CA JUMPI DUP1 PUSH4 0x6FB63DCA EQ PUSH2 0x6FF JUMPI PUSH2 0x3CB JUMP JUMPDEST DUP1 PUSH4 0x5C60DA1B EQ PUSH2 0x602 JUMPI DUP1 PUSH4 0x5C6D8DA1 EQ PUSH2 0x62F JUMPI DUP1 PUSH4 0x5DD0A7DB EQ PUSH2 0x64F JUMPI DUP1 PUSH4 0x6217088F EQ PUSH2 0x672 JUMPI PUSH2 0x3CB JUMP JUMPDEST DUP1 PUSH4 0x52D1902D GT PUSH2 0x2B1 JUMPI DUP1 PUSH4 0x52D1902D EQ PUSH2 0x5BB JUMPI DUP1 PUSH4 0x5472E25E EQ PUSH2 0x507 JUMPI DUP1 PUSH4 0x5479D940 EQ PUSH2 0x5D0 JUMPI DUP1 PUSH4 0x5632FFD8 EQ PUSH2 0x5ED JUMPI PUSH2 0x3CB JUMP JUMPDEST DUP1 PUSH4 0x47C02661 EQ PUSH2 0x553 JUMPI DUP1 PUSH4 0x4A8C1FB4 EQ PUSH2 0x573 JUMPI DUP1 PUSH4 0x4BCE20DD EQ PUSH2 0x58B JUMPI DUP1 PUSH4 0x4F2ECA98 EQ PUSH2 0x5A0 JUMPI PUSH2 0x3CB JUMP JUMPDEST DUP1 PUSH4 0x133899F5 GT PUSH2 0x35A JUMPI DUP1 PUSH4 0x29B2BE01 GT PUSH2 0x329 JUMPI DUP1 PUSH4 0x29B2BE01 EQ PUSH2 0x4A1 JUMPI DUP1 PUSH4 0x2E2ADF00 EQ PUSH2 0x4D9 JUMPI DUP1 PUSH4 0x2F671733 EQ PUSH2 0x507 JUMPI DUP1 PUSH4 0x4346A04B EQ PUSH2 0x52F JUMPI PUSH2 0x3CB JUMP JUMPDEST DUP1 PUSH4 0x133899F5 EQ PUSH2 0x46C JUMPI DUP1 PUSH4 0x1E26521A EQ PUSH2 0x41D JUMPI DUP1 PUSH4 0x20C87707 EQ PUSH2 0x41D JUMPI DUP1 PUSH4 0x20DD27AF EQ PUSH2 0x48C JUMPI PUSH2 0x3CB JUMP JUMPDEST DUP1 PUSH4 0x9D4A907 GT PUSH2 0x396 JUMPI DUP1 PUSH4 0x9D4A907 EQ PUSH2 0x41D JUMPI DUP1 PUSH4 0xC9A9074 EQ PUSH2 0x43E JUMPI DUP1 PUSH4 0xD1EE1BD EQ PUSH2 0x41D JUMPI DUP1 PUSH4 0x12C1A08E EQ PUSH2 0x41D JUMPI PUSH2 0x3CB JUMP JUMPDEST DUP1 PUSH4 0x124A80A EQ PUSH2 0x3D3 JUMPI DUP1 PUSH4 0x1FFC9A7 EQ PUSH2 0x3FD JUMPI DUP1 PUSH4 0x610E037 EQ PUSH2 0x41D JUMPI PUSH2 0x3CB JUMP JUMPDEST CALLDATASIZE PUSH2 0x3CB JUMPI PUSH2 0x3C9 PUSH2 0x879 JUMP JUMPDEST STOP JUMPDEST PUSH2 0x3C9 PUSH2 0x879 JUMP JUMPDEST CALLVALUE DUP1 ISZERO PUSH2 0x3DF JUMPI PUSH1 0x0 DUP1 REVERT JUMPDEST POP PUSH2 0x3E8 PUSH2 0x88B JUMP JUMPDEST PUSH1 0x40 MLOAD SWAP1 ISZERO ISZERO DUP2 MSTORE PUSH1 0x20 ADD JUMPDEST PUSH1 0x40 MLOAD DUP1 SWAP2 SUB SWAP1 RETURN JUMPDEST CALLVALUE DUP1 ISZERO PUSH2 0x409 JUMPI PUSH1 0x0 DUP1 REVERT JUMPDEST POP PUSH2 0x3E8 PUSH2 0x418 CALLDATASIZE PUSH1 0x4 PUSH2 0x22F3 JUMP JUMPDEST PUSH2 0xA5C JUMP JUMPDEST CALLVALUE DUP1 ISZERO PUSH2 0x429 JUMPI PUSH1 0x0 DUP1 REVERT JUMPDEST POP PUSH2 0x3E8 PUSH2 0x438 CALLDATASIZE PUSH1 0x4 PUSH2 0x230E JUMP JUMPDEST POP PUSH1 0x0 SWAP1 JUMP JUMPDEST CALLVALUE DUP1 ISZERO PUSH2 0x44A JUMPI PUSH1 0x0 DUP1 REVERT JUMPDEST POP PUSH2 0x45E PUSH2 0x459 CALLDATASIZE PUSH1 0x4 PUSH2 0x2327 JUMP JUMPDEST PUSH2 0xAAE JUMP JUMPDEST PUSH1 0x40 MLOAD SWAP1 DUP2 MSTORE PUSH1 0x20 ADD PUSH2 0x3F4 JUMP JUMPDEST CALLVALUE DUP1 ISZERO PUSH2 0x478 JUMPI PUSH1 0x0 DUP1 REVERT JUMPDEST POP PUSH2 0x3E8 PUSH2 0x487 CALLDATASIZE PUSH1 0x4 PUSH2 0x23C3 JUMP JUMPDEST PUSH2 0xE81 JUMP JUMPDEST CALLVALUE DUP1 ISZERO PUSH2 0x498 JUMPI PUSH1 0x0 DUP1 REVERT JUMPDEST POP PUSH2 0x45E PUSH2 0xFFB JUMP JUMPDEST CALLVALUE DUP1 ISZERO PUSH2 0x4AD JUMPI PUSH1 0x0 DUP1 REVERT JUMPDEST POP PUSH2 0x4C9 PUSH2 0x4BC CALLDATASIZE PUSH1 0x4 PUSH2 0x230E JUMP JUMPDEST PUSH1 0x60 DUP1 PUSH1 0x0 DUP1 SWAP2 SWAP4 POP SWAP2 SWAP4 JUMP JUMPDEST PUSH1 0x40 MLOAD PUSH2 0x3F4 SWAP5 SWAP4 SWAP3 SWAP2 SWAP1 PUSH2 0x243C JUMP JUMPDEST CALLVALUE DUP1 ISZERO PUSH2 0x4E5 JUMPI PUSH1 0x0 DUP1 REVERT JUMPDEST POP PUSH2 0x4FA PUSH2 0x4F4 CALLDATASIZE PUSH1 0x4 PUSH2 0x230E JUMP JUMPDEST POP PUSH1 0x60 SWAP1 JUMP JUMPDEST PUSH1 0x40 MLOAD PUSH2 0x3F4 SWAP2 SWAP1 PUSH2 0x247A JUMP JUMPDEST CALLVALUE DUP1 ISZERO PUSH2 0x513 JUMPI PUSH1 0x0 DUP1 REVERT JUMPDEST POP PUSH2 0x522 PUSH2 0x4F4 CALLDATASIZE PUSH1 0x4 PUSH2 0x230E JUMP JUMPDEST PUSH1 0x40 MLOAD PUSH2 0x3F4 SWAP2 SWAP1 PUSH2 0x24C8 JUMP JUMPDEST CALLVALUE DUP1 ISZERO PUSH2 0x53B JUMPI PUSH1 0x0 DUP1 REVERT JUMPDEST POP PUSH2 0x3E8 PUSH2 0x54A CALLDATASIZE PUSH1 0x4 PUSH2 0x2500 JUMP JUMPDEST PUSH1 0x0 SWAP4 SWAP3 POP POP POP JUMP JUMPDEST CALLVALUE DUP1 ISZERO PUSH2 0x55F JUMPI PUSH1 0x0 DUP1 REVERT JUMPDEST POP PUSH2 0x3E8 PUSH2 0x56E CALLDATASIZE PUSH1 0x4 PUSH2 0x254C JUMP JUMPDEST PUSH2 0x1038 JUMP JUMPDEST CALLVALUE DUP1 ISZERO PUSH2 0x57F JUMPI PUSH1 0x0 DUP1 REVERT JUMPDEST POP PUSH1 0x4 SLOAD PUSH1 0xFF AND PUSH2 0x3E8 JUMP JUMPDEST CALLVALUE DUP1 ISZERO PUSH2 0x597 JUMPI PUSH1 0x0 DUP1 REVERT JUMPDEST POP PUSH2 0x45E PUSH2 0x10EB JUMP JUMPDEST CALLVALUE DUP1 ISZERO PUSH2 0x5AC JUMPI PUSH1 0x0 DUP1 REVERT JUMPDEST POP PUSH2 0x3E8 PUSH2 0x438 CALLDATASIZE PUSH1 0x4 PUSH2 0x254C JUMP JUMPDEST CALLVALUE DUP1 ISZERO PUSH2 0x5C7 JUMPI PUSH1 0x0 DUP1 REVERT JUMPDEST POP PUSH2 0x45E PUSH2 0x10FB JUMP JUMPDEST CALLVALUE DUP1 ISZERO PUSH2 0x5DC JUMPI PUSH1 0x0 DUP1 REVERT JUMPDEST POP PUSH1 0x4 SLOAD PUSH2 0x100 SWAP1 DIV PUSH1 0xFF AND PUSH2 0x3E8 JUMP JUMPDEST CALLVALUE DUP1 ISZERO PUSH2 0x5F9 JUMPI PUSH1 0x0 DUP1 REVERT JUMPDEST POP PUSH2 0x45E PUSH2 0x1188 JUMP JUMPDEST CALLVALUE DUP1 ISZERO PUSH2 0x60E JUMPI PUSH1 0x0 DUP1 REVERT JUMPDEST POP PUSH2 0x617 PUSH2 0x11B9 JUMP JUMPDEST PUSH1 0x40 MLOAD PUSH1 0x1 PUSH1 0x1 PUSH1 0xA0 SHL SUB SWAP1 SWAP2 AND DUP2 MSTORE PUSH1 0x20 ADD PUSH2 0x3F4 JUMP JUMPDEST CALLVALUE DUP1 ISZERO PUSH2 0x63B JUMPI PUSH1 0x0 DUP1 REVERT JUMPDEST POP PUSH2 0x3E8 PUSH2 0x64A CALLDATASIZE PUSH1 0x4 PUSH2 0x25B0 JUMP JUMPDEST PUSH2 0x11C3 JUMP JUMPDEST CALLVALUE DUP1 ISZERO PUSH2 0x65B JUMPI PUSH1 0x0 DUP1 REVERT JUMPDEST POP PUSH2 0x3E8 PUSH2 0x66A CALLDATASIZE PUSH1 0x4 PUSH2 0x265B JUMP JUMPDEST PUSH1 0x0 SWAP3 SWAP2 POP POP JUMP JUMPDEST CALLVALUE DUP1 ISZERO PUSH2 0x67E JUMPI PUSH1 0x0 DUP1 REVERT JUMPDEST POP PUSH2 0x68D PUSH2 0x4F4 CALLDATASIZE PUSH1 0x4 PUSH2 0x230E JUMP JUMPDEST PUSH1 0x40 MLOAD PUSH2 0x3F4 SWAP2 SWAP1 PUSH2 0x2687 JUMP JUMPDEST CALLVALUE DUP1 ISZERO PUSH2 0x6A6 JUMPI PUSH1 0x0 DUP1 REVERT JUMPDEST POP PUSH2 0x45E PUSH2 0x12B2 JUMP JUMPDEST CALLVALUE DUP1 ISZERO PUSH2 0x6BB JUMPI PUSH1 0x0 DUP1 REVERT JUMPDEST POP PUSH2 0x3E8 PUSH2 0x54A CALLDATASIZE PUSH1 0x4 PUSH2 0x26C8 JUMP JUMPDEST CALLVALUE DUP1 ISZERO PUSH2 0x6D6 JUMPI PUSH1 0x0 DUP1 REVERT JUMPDEST POP PUSH2 0x6F0 PUSH2 0x6E5 CALLDATASIZE PUSH1 0x4 PUSH2 0x230E JUMP JUMPDEST POP PUSH1 0x60 SWAP1 DUP2 SWAP1 PUSH1 0x0 SWAP1 JUMP JUMPDEST PUSH1 0x40 MLOAD PUSH2 0x3F4 SWAP4 SWAP3 SWAP2 SWAP1 PUSH2 0x26FD JUMP JUMPDEST CALLVALUE DUP1 ISZERO PUSH2 0x70B JUMPI PUSH1 0x0 DUP1 REVERT JUMPDEST POP PUSH2 0x45E PUSH2 0x54A CALLDATASIZE PUSH1 0x4 PUSH2 0x2735 JUMP JUMPDEST CALLVALUE DUP1 ISZERO PUSH2 0x726 JUMPI PUSH1 0x0 DUP1 REVERT JUMPDEST POP PUSH2 0x73A PUSH2 0x735 CALLDATASIZE PUSH1 0x4 PUSH2 0x27FB JUMP JUMPDEST PUSH2 0x12DA JUMP JUMPDEST PUSH1 0x40 MLOAD PUSH2 0x3F4 SWAP2 SWAP1 PUSH2 0x2895 JUMP JUMPDEST CALLVALUE DUP1 ISZERO PUSH2 0x753 JUMPI PUSH1 0x0 DUP1 REVERT JUMPDEST POP PUSH2 0x73A PUSH2 0x139A JUMP JUMPDEST CALLVALUE DUP1 ISZERO PUSH2 0x768 JUMPI PUSH1 0x0 DUP1 REVERT JUMPDEST POP PUSH2 0x617 PUSH2 0x142C JUMP JUMPDEST CALLVALUE DUP1 ISZERO PUSH2 0x77D JUMPI PUSH1 0x0 DUP1 REVERT JUMPDEST POP PUSH2 0x45E PUSH2 0x78C CALLDATASIZE PUSH1 0x4 PUSH2 0x28A8 JUMP JUMPDEST PUSH1 0x0 SWAP6 SWAP5 POP POP POP POP POP JUMP JUMPDEST CALLVALUE DUP1 ISZERO PUSH2 0x7A3 JUMPI PUSH1 0x0 DUP1 REVERT JUMPDEST POP PUSH2 0x73A PUSH2 0x1436 JUMP JUMPDEST CALLVALUE DUP1 ISZERO PUSH2 0x7B8 JUMPI PUSH1 0x0 DUP1 REVERT JUMPDEST POP PUSH2 0x45E PUSH2 0x54A CALLDATASIZE PUSH1 0x4 PUSH2 0x2327 JUMP JUMPDEST CALLVALUE DUP1 ISZERO PUSH2 0x7D3 JUMPI PUSH1 0x0 DUP1 REVERT JUMPDEST POP PUSH2 0x3E8 PUSH2 0x7E2 CALLDATASIZE PUSH1 0x4 PUSH2 0x23C3 JUMP JUMPDEST PUSH2 0x1445 JUMP JUMPDEST CALLVALUE DUP1 ISZERO PUSH2 0x7F3 JUMPI PUSH1 0x0 DUP1 REVERT JUMPDEST POP PUSH2 0x3E8 PUSH2 0x66A CALLDATASIZE PUSH1 0x4 PUSH2 0x292C JUMP JUMPDEST CALLVALUE DUP1 ISZERO PUSH2 0x80E JUMPI PUSH1 0x0 DUP1 REVERT JUMPDEST POP PUSH2 0x826 PUSH2 0x81D CALLDATASIZE PUSH1 0x4 PUSH2 0x230E JUMP JUMPDEST PUSH1 0x60 PUSH1 0x0 SWAP2 POP SWAP2 JUMP JUMPDEST PUSH1 0x40 MLOAD PUSH2 0x3F4 SWAP3 SWAP2 SWAP1 PUSH2 0x294E JUMP JUMPDEST CALLVALUE DUP1 ISZERO PUSH2 0x840 JUMPI PUSH1 0x0 DUP1 REVERT JUMPDEST POP PUSH2 0x3E8 PUSH2 0x54A CALLDATASIZE PUSH1 0x4 PUSH2 0x2972 JUMP JUMPDEST CALLVALUE DUP1 ISZERO PUSH2 0x85B JUMPI PUSH1 0x0 DUP1 REVERT JUMPDEST POP PUSH2 0x73A PUSH2 0x15AE JUMP JUMPDEST CALLVALUE DUP1 ISZERO PUSH2 0x870 JUMPI PUSH1 0x0 DUP1 REVERT JUMPDEST POP PUSH2 0x45E PUSH2 0x15BD JUMP JUMPDEST PUSH2 0x889 PUSH2 0x884 PUSH2 0x15E5 JUMP JUMPDEST PUSH2 0x1606 JUMP JUMPDEST JUMP JUMPDEST PUSH1 0x0 DUP1 PUSH1 0x40 MLOAD DUP1 PUSH1 0x40 ADD PUSH1 0x40 MSTORE DUP1 PUSH1 0x3 PUSH1 0x40 MLOAD PUSH1 0x20 ADD PUSH2 0x8AB SWAP2 SWAP1 PUSH2 0x29DF JUMP JUMPDEST PUSH1 0x40 DUP1 MLOAD DUP1 DUP4 SUB PUSH1 0x1F NOT ADD DUP2 MSTORE SWAP2 DUP2 MSTORE DUP2 MLOAD PUSH1 0x20 SWAP3 DUP4 ADD KECCAK256 DUP4 MSTORE ADDRESS SWAP3 DUP3 ADD SWAP3 SWAP1 SWAP3 MSTORE DUP2 MLOAD DUP1 DUP4 ADD DUP4 MSTORE PUSH1 0x0 DUP2 MSTORE PUSH1 0x60 DUP2 DUP4 ADD MSTORE DUP3 MLOAD PUSH17 0x4C4956454C595F41444D494E5F524F4C45 PUSH1 0x78 SHL DUP2 DUP5 ADD MSTORE DUP4 MLOAD PUSH1 0x11 DUP2 DUP4 SUB ADD DUP2 MSTORE PUSH1 0x31 SWAP1 SWAP2 ADD DUP5 MSTORE DUP1 MLOAD SWAP1 DUP4 ADD KECCAK256 DUP2 MSTORE DUP3 MLOAD PUSH1 0xA DUP1 DUP3 MSTORE PUSH2 0x160 DUP3 ADD SWAP1 SWAP5 MSTORE SWAP4 SWAP5 POP SWAP3 SWAP2 SWAP1 DUP3 ADD PUSH2 0x140 DUP1 CALLDATASIZE DUP4 CALLDATACOPY POP POP POP PUSH1 0x20 DUP3 ADD DUP2 SWAP1 MSTORE DUP1 MLOAD PUSH4 0x133899F5 PUSH1 0xE0 SHL SWAP2 SWAP1 PUSH1 0x0 SWAP1 PUSH2 0x955 JUMPI PUSH2 0x955 PUSH2 0x2A55 JUMP JUMPDEST PUSH1 0x1 PUSH1 0x1 PUSH1 0xE0 SHL SUB NOT SWAP1 SWAP3 AND PUSH1 0x20 SWAP3 DUP4 MUL SWAP2 SWAP1 SWAP2 ADD DUP3 ADD MSTORE DUP2 ADD MLOAD DUP1 MLOAD PUSH4 0x27741C95 PUSH1 0xE2 SHL SWAP2 SWAP1 PUSH1 0x1 SWAP1 DUP2 LT PUSH2 0x98D JUMPI PUSH2 0x98D PUSH2 0x2A55 JUMP JUMPDEST PUSH1 0x1 PUSH1 0x1 PUSH1 0xE0 SHL SUB NOT SWAP1 SWAP3 AND PUSH1 0x20 SWAP3 DUP4 MUL SWAP2 SWAP1 SWAP2 ADD DUP3 ADD MSTORE DUP2 ADD MLOAD DUP1 MLOAD PUSH4 0x47C02661 PUSH1 0xE0 SHL SWAP2 SWAP1 PUSH1 0x2 SWAP1 DUP2 LT PUSH2 0x9C5 JUMPI PUSH2 0x9C5 PUSH2 0x2A55 JUMP JUMPDEST PUSH1 0x1 PUSH1 0x1 PUSH1 0xE0 SHL SUB NOT SWAP1 SWAP3 AND PUSH1 0x20 SWAP3 DUP4 MUL SWAP2 SWAP1 SWAP2 ADD DUP3 ADD MSTORE DUP2 ADD MLOAD DUP1 MLOAD PUSH4 0x7147855D PUSH1 0xE0 SHL SWAP2 SWAP1 PUSH1 0x3 SWAP1 DUP2 LT PUSH2 0x9FD JUMPI PUSH2 0x9FD PUSH2 0x2A55 JUMP JUMPDEST PUSH1 0x1 PUSH1 0x1 PUSH1 0xE0 SHL SUB NOT SWAP1 SWAP3 AND PUSH1 0x20 SWAP3 DUP4 MUL SWAP2 SWAP1 SWAP2 ADD DUP3 ADD MSTORE DUP2 ADD MLOAD DUP1 MLOAD PUSH4 0x5C6D8DA1 PUSH1 0xE0 SHL SWAP2 SWAP1 PUSH1 0x4 SWAP1 DUP2 LT PUSH2 0xA35 JUMPI PUSH2 0xA35 PUSH2 0x2A55 JUMP JUMPDEST PUSH1 0x20 MUL PUSH1 0x20 ADD ADD SWAP1 PUSH1 0x1 PUSH1 0x1 PUSH1 0xE0 SHL SUB NOT AND SWAP1 DUP2 PUSH1 0x1 PUSH1 0x1 PUSH1 0xE0 SHL SUB NOT AND DUP2 MSTORE POP POP POP POP SWAP1 JUMP JUMPDEST PUSH1 0x0 PUSH1 0x1 PUSH1 0x1 PUSH1 0xE0 SHL SUB NOT DUP3 AND PUSH4 0xECC32DD9 PUSH1 0xE0 SHL EQ DUP1 PUSH2 0xA8D JUMPI POP PUSH1 0x1 PUSH1 0x1 PUSH1 0xE0 SHL SUB NOT DUP3 AND PUSH4 0x52D1902D PUSH1 0xE0 SHL EQ JUMPDEST DUP1 PUSH2 0xAA8 JUMPI POP PUSH4 0x1FFC9A7 PUSH1 0xE0 SHL PUSH1 0x1 PUSH1 0x1 PUSH1 0xE0 SHL SUB NOT DUP4 AND EQ JUMPDEST SWAP3 SWAP2 POP POP JUMP JUMPDEST PUSH1 0x0 PUSH2 0xAC0 PUSH1 0x40 DUP6 ADD PUSH1 0x20 DUP7 ADD PUSH2 0x254C JUMP JUMPDEST PUSH1 0x1 PUSH1 0x1 PUSH1 0xA0 SHL SUB AND CALLER PUSH1 0x1 PUSH1 0x1 PUSH1 0xA0 SHL SUB AND EQ PUSH2 0xB25 JUMPI PUSH1 0x40 MLOAD PUSH3 0x461BCD PUSH1 0xE5 SHL DUP2 MSTORE PUSH1 0x20 PUSH1 0x4 DUP3 ADD MSTORE PUSH1 0x18 PUSH1 0x24 DUP3 ADD MSTORE PUSH32 0x496C6C6567616C20436F6E747261637420416464726573730000000000000000 PUSH1 0x44 DUP3 ADD MSTORE PUSH1 0x64 ADD JUMPDEST PUSH1 0x40 MLOAD DUP1 SWAP2 SUB SWAP1 REVERT JUMPDEST DUP4 CALLDATALOAD PUSH1 0x0 SWAP1 DUP2 MSTORE PUSH1 0x89 PUSH1 0x20 MSTORE PUSH1 0x40 SWAP1 KECCAK256 DUP1 SLOAD PUSH2 0xB40 SWAP1 PUSH2 0x29A5 JUMP JUMPDEST SWAP1 POP PUSH1 0x0 SUB PUSH2 0xB83 JUMPI PUSH1 0x40 MLOAD PUSH3 0x461BCD PUSH1 0xE5 SHL DUP2 MSTORE PUSH1 0x20 PUSH1 0x4 DUP3 ADD MSTORE PUSH1 0xF PUSH1 0x24 DUP3 ADD MSTORE PUSH15 0x1499585B1B48139BDD08119BDD5B99 PUSH1 0x8A SHL PUSH1 0x44 DUP3 ADD MSTORE PUSH1 0x64 ADD PUSH2 0xB1C JUMP JUMPDEST PUSH1 0x0 PUSH2 0xB9D PUSH2 0xB98 PUSH1 0x40 DUP8 ADD PUSH1 0x20 DUP9 ADD PUSH2 0x254C JUMP JUMPDEST PUSH2 0x162F JUMP JUMPDEST PUSH1 0x0 DUP2 DUP2 MSTORE PUSH1 0x87 PUSH1 0x20 MSTORE PUSH1 0x40 SWAP1 KECCAK256 PUSH1 0x1 ADD SLOAD SWAP1 SWAP2 POP PUSH1 0x1 PUSH1 0x1 PUSH1 0xA0 SHL SUB AND ISZERO PUSH2 0xC08 JUMPI PUSH1 0x40 MLOAD PUSH3 0x461BCD PUSH1 0xE5 SHL DUP2 MSTORE PUSH1 0x20 PUSH1 0x4 DUP3 ADD MSTORE PUSH1 0x1A PUSH1 0x24 DUP3 ADD MSTORE PUSH32 0x436F6E7465787420416C72656164792052656769737465726564000000000000 PUSH1 0x44 DUP3 ADD MSTORE PUSH1 0x64 ADD PUSH2 0xB1C JUMP JUMPDEST PUSH1 0x0 DUP2 DUP2 MSTORE PUSH1 0x87 PUSH1 0x20 SWAP1 DUP2 MSTORE PUSH1 0x40 SWAP2 DUP3 SWAP1 KECCAK256 DUP8 CALLDATALOAD DUP2 SSTORE SWAP2 PUSH2 0xC2E SWAP2 SWAP1 DUP9 ADD SWAP1 DUP9 ADD PUSH2 0x254C JUMP JUMPDEST PUSH1 0x1 DUP3 ADD DUP1 SLOAD PUSH1 0x1 PUSH1 0x1 PUSH1 0xA0 SHL SUB NOT AND PUSH1 0x1 PUSH1 0x1 PUSH1 0xA0 SHL SUB SWAP3 SWAP1 SWAP3 AND SWAP2 SWAP1 SWAP2 OR SWAP1 SSTORE PUSH1 0x0 JUMPDEST DUP5 DUP2 LT ISZERO PUSH2 0xE1F JUMPI PUSH1 0x88 PUSH1 0x0 DUP8 DUP8 DUP5 DUP2 DUP2 LT PUSH2 0xC71 JUMPI PUSH2 0xC71 PUSH2 0x2A55 JUMP JUMPDEST SWAP1 POP PUSH1 0x20 MUL DUP2 ADD SWAP1 PUSH2 0xC83 SWAP2 SWAP1 PUSH2 0x2A6B JUMP JUMPDEST CALLDATALOAD DUP2 MSTORE PUSH1 0x20 DUP2 ADD SWAP2 SWAP1 SWAP2 MSTORE PUSH1 0x40 ADD PUSH1 0x0 KECCAK256 DUP1 SLOAD PUSH2 0xC9F SWAP1 PUSH2 0x29A5 JUMP JUMPDEST SWAP1 POP PUSH1 0x0 SUB PUSH2 0xCE1 JUMPI PUSH1 0x40 MLOAD PUSH3 0x461BCD PUSH1 0xE5 SHL DUP2 MSTORE PUSH1 0x20 PUSH1 0x4 DUP3 ADD MSTORE PUSH1 0xE PUSH1 0x24 DUP3 ADD MSTORE PUSH14 0x149BDB1948139BDD08119BDD5B99 PUSH1 0x92 SHL PUSH1 0x44 DUP3 ADD MSTORE PUSH1 0x64 ADD PUSH2 0xB1C JUMP JUMPDEST PUSH1 0x0 JUMPDEST DUP7 DUP7 DUP4 DUP2 DUP2 LT PUSH2 0xCF6 JUMPI PUSH2 0xCF6 PUSH2 0x2A55 JUMP JUMPDEST SWAP1 POP PUSH1 0x20 MUL DUP2 ADD SWAP1 PUSH2 0xD08 SWAP2 SWAP1 PUSH2 0x2A6B JUMP JUMPDEST PUSH2 0xD16 SWAP1 PUSH1 0x20 DUP2 ADD SWAP1 PUSH2 0x2A8B JUMP JUMPDEST SWAP1 POP DUP2 LT ISZERO PUSH2 0xE0C JUMPI PUSH1 0x1 DUP4 PUSH1 0x2 ADD PUSH1 0x0 DUP10 DUP10 DUP7 DUP2 DUP2 LT PUSH2 0xD39 JUMPI PUSH2 0xD39 PUSH2 0x2A55 JUMP JUMPDEST SWAP1 POP PUSH1 0x20 MUL DUP2 ADD SWAP1 PUSH2 0xD4B SWAP2 SWAP1 PUSH2 0x2A6B JUMP JUMPDEST PUSH2 0xD59 SWAP1 PUSH1 0x20 DUP2 ADD SWAP1 PUSH2 0x2A8B JUMP JUMPDEST DUP6 DUP2 DUP2 LT PUSH2 0xD69 JUMPI PUSH2 0xD69 PUSH2 0x2A55 JUMP JUMPDEST SWAP1 POP PUSH1 0x20 MUL ADD PUSH1 0x20 DUP2 ADD SWAP1 PUSH2 0xD7E SWAP2 SWAP1 PUSH2 0x22F3 JUMP JUMPDEST PUSH1 0x1 PUSH1 0x1 PUSH1 0xE0 SHL SUB NOT AND DUP2 MSTORE PUSH1 0x20 ADD SWAP1 DUP2 MSTORE PUSH1 0x20 ADD PUSH1 0x0 KECCAK256 PUSH1 0x0 DUP10 DUP10 DUP7 DUP2 DUP2 LT PUSH2 0xDAA JUMPI PUSH2 0xDAA PUSH2 0x2A55 JUMP JUMPDEST SWAP1 POP PUSH1 0x20 MUL DUP2 ADD SWAP1 PUSH2 0xDBC SWAP2 SWAP1 PUSH2 0x2A6B JUMP JUMPDEST CALLDATALOAD DUP2 MSTORE PUSH1 0x20 DUP2 ADD SWAP2 SWAP1 SWAP2 MSTORE PUSH1 0x40 ADD PUSH1 0x0 KECCAK256 DUP1 SLOAD PUSH1 0xFF NOT AND PUSH1 0x1 DUP4 PUSH1 0x2 DUP2 GT ISZERO PUSH2 0xDE7 JUMPI PUSH2 0xDE7 PUSH2 0x2AD5 JUMP JUMPDEST MUL OR SWAP1 SSTORE POP PUSH2 0xDF9 PUSH1 0x3 DUP5 ADD DUP6 PUSH2 0x1663 JUMP JUMPDEST POP DUP1 PUSH2 0xE04 DUP2 PUSH2 0x2AEB JUMP JUMPDEST SWAP2 POP POP PUSH2 0xCE4 JUMP JUMPDEST POP DUP1 PUSH2 0xE17 DUP2 PUSH2 0x2AEB JUMP JUMPDEST SWAP2 POP POP PUSH2 0xC53 JUMP JUMPDEST POP CALLER PUSH2 0xE31 PUSH1 0x40 DUP9 ADD PUSH1 0x20 DUP10 ADD PUSH2 0x254C JUMP JUMPDEST PUSH1 0x1 PUSH1 0x1 PUSH1 0xA0 SHL SUB AND DUP4 PUSH32 0x11CF8F3561FAE187C57DF59424ECF5D3F444E138924944C77DCB68144C635731 DUP10 PUSH1 0x0 ADD CALLDATALOAD PUSH1 0x40 MLOAD PUSH2 0xE70 SWAP2 DUP2 MSTORE PUSH1 0x20 ADD SWAP1 JUMP JUMPDEST PUSH1 0x40 MLOAD DUP1 SWAP2 SUB SWAP1 LOG4 POP POP SWAP4 SWAP3 POP POP POP JUMP JUMPDEST PUSH1 0x0 PUSH1 0x1 PUSH1 0x1 PUSH1 0xA0 SHL SUB PUSH32 0x0 AND ADDRESS SUB PUSH2 0xECB JUMPI PUSH1 0x40 MLOAD PUSH3 0x461BCD PUSH1 0xE5 SHL DUP2 MSTORE PUSH1 0x4 ADD PUSH2 0xB1C SWAP1 PUSH2 0x2B12 JUMP JUMPDEST PUSH32 0x0 PUSH1 0x1 PUSH1 0x1 PUSH1 0xA0 SHL SUB AND PUSH2 0xEFD PUSH2 0x15E5 JUMP JUMPDEST PUSH1 0x1 PUSH1 0x1 PUSH1 0xA0 SHL SUB AND EQ PUSH2 0xF23 JUMPI PUSH1 0x40 MLOAD PUSH3 0x461BCD PUSH1 0xE5 SHL DUP2 MSTORE PUSH1 0x4 ADD PUSH2 0xB1C SWAP1 PUSH2 0x2B49 JUMP JUMPDEST PUSH2 0xF33 PUSH4 0x133899F5 PUSH1 0xE0 SHL PUSH2 0x166F JUMP JUMPDEST PUSH2 0xF7F JUMPI PUSH1 0x40 MLOAD PUSH3 0x461BCD PUSH1 0xE5 SHL DUP2 MSTORE PUSH1 0x20 PUSH1 0x4 DUP3 ADD MSTORE PUSH1 0x1E PUSH1 0x24 DUP3 ADD MSTORE PUSH32 0x4368616E6765205570677261646162696C69747920466F7262696464656E0000 PUSH1 0x44 DUP3 ADD MSTORE PUSH1 0x64 ADD PUSH2 0xB1C JUMP JUMPDEST PUSH1 0x4 DUP1 SLOAD PUSH2 0xFF00 NOT AND PUSH2 0x100 DUP5 ISZERO ISZERO MUL OR SWAP1 SSTORE PUSH1 0x40 MLOAD PUSH2 0xFA4 SWAP1 PUSH1 0x3 SWAP1 PUSH1 0x20 ADD PUSH2 0x29DF JUMP JUMPDEST PUSH1 0x40 DUP1 MLOAD DUP1 DUP4 SUB PUSH1 0x1F NOT ADD DUP2 MSTORE SWAP1 DUP3 SWAP1 MSTORE DUP1 MLOAD PUSH1 0x20 SWAP2 DUP3 ADD KECCAK256 DUP5 ISZERO ISZERO DUP4 MSTORE SWAP2 ADDRESS SWAP2 CALLER SWAP2 PUSH32 0xD4D20CB9BD5C738EBABFE2CE802ED93D2A3AF5ECC519F34313937A208554A424 SWAP2 ADD JUMPDEST PUSH1 0x40 MLOAD DUP1 SWAP2 SUB SWAP1 LOG4 POP DUP1 JUMPDEST SWAP2 SWAP1 POP JUMP JUMPDEST PUSH1 0x40 MLOAD PUSH20 0x4C4956454C595F47454E4552414C5F5245414C4D PUSH1 0x60 SHL PUSH1 0x20 DUP3 ADD MSTORE PUSH1 0x34 ADD JUMPDEST PUSH1 0x40 MLOAD PUSH1 0x20 DUP2 DUP4 SUB SUB DUP2 MSTORE SWAP1 PUSH1 0x40 MSTORE DUP1 MLOAD SWAP1 PUSH1 0x20 ADD KECCAK256 DUP2 JUMP JUMPDEST PUSH1 0x0 PUSH1 0x1 PUSH1 0x1 PUSH1 0xA0 SHL SUB PUSH32 0x0 AND ADDRESS SUB PUSH2 0x1082 JUMPI PUSH1 0x40 MLOAD PUSH3 0x461BCD PUSH1 0xE5 SHL DUP2 MSTORE PUSH1 0x4 ADD PUSH2 0xB1C SWAP1 PUSH2 0x2B12 JUMP JUMPDEST PUSH32 0x0 PUSH1 0x1 PUSH1 0x1 PUSH1 0xA0 SHL SUB AND PUSH2 0x10B4 PUSH2 0x15E5 JUMP JUMPDEST PUSH1 0x1 PUSH1 0x1 PUSH1 0xA0 SHL SUB AND EQ PUSH2 0x10DA JUMPI PUSH1 0x40 MLOAD PUSH3 0x461BCD PUSH1 0xE5 SHL DUP2 MSTORE PUSH1 0x4 ADD PUSH2 0xB1C SWAP1 PUSH2 0x2B49 JUMP JUMPDEST PUSH2 0x10E3 DUP3 PUSH2 0x16F9 JUMP JUMPDEST POP PUSH1 0x1 SWAP2 SWAP1 POP JUMP JUMPDEST PUSH1 0x0 PUSH2 0x10F6 ADDRESS PUSH2 0x162F JUMP JUMPDEST SWAP1 POP SWAP1 JUMP JUMPDEST PUSH1 0x0 ADDRESS PUSH1 0x1 PUSH1 0x1 PUSH1 0xA0 SHL SUB PUSH32 0x0 AND EQ PUSH2 0x1175 JUMPI PUSH1 0x40 MLOAD PUSH3 0x461BCD PUSH1 0xE5 SHL DUP2 MSTORE PUSH1 0x20 PUSH1 0x4 DUP3 ADD MSTORE PUSH1 0x1B PUSH1 0x24 DUP3 ADD MSTORE PUSH32 0x44656C656761746563616C6C204E6F742041636365707461626C650000000000 PUSH1 0x44 DUP3 ADD MSTORE PUSH1 0x64 ADD PUSH2 0xB1C JUMP JUMPDEST POP PUSH1 0x0 DUP1 MLOAD PUSH1 0x20 PUSH2 0x2DB6 DUP4 CODECOPY DUP2 MLOAD SWAP2 MSTORE SWAP1 JUMP JUMPDEST PUSH1 0x40 MLOAD PUSH32 0x4C4956454C595F53595354454D5F41444D494E5F524F4C450000000000000000 PUSH1 0x20 DUP3 ADD MSTORE PUSH1 0x38 ADD PUSH2 0x101F JUMP JUMPDEST PUSH1 0x0 PUSH2 0x10F6 PUSH2 0x15E5 JUMP JUMPDEST PUSH1 0x0 DUP1 PUSH2 0x11D0 PUSH1 0x1 PUSH2 0x1850 JUMP JUMPDEST SWAP1 POP DUP1 ISZERO PUSH2 0x11EA JUMPI PUSH1 0x45 DUP1 SLOAD PUSH3 0xFF0000 NOT AND PUSH3 0x10000 OR SWAP1 SSTORE JUMPDEST PUSH2 0x11F9 DUP10 DUP10 DUP10 DUP10 DUP10 DUP10 DUP10 PUSH2 0x193F JUMP JUMPDEST ADDRESS PUSH1 0x1 PUSH1 0x1 PUSH1 0xA0 SHL SUB AND PUSH4 0x124A80A PUSH1 0x40 MLOAD DUP2 PUSH4 0xFFFFFFFF AND PUSH1 0xE0 SHL DUP2 MSTORE PUSH1 0x4 ADD PUSH1 0x20 PUSH1 0x40 MLOAD DUP1 DUP4 SUB DUP2 PUSH1 0x0 DUP8 GAS CALL ISZERO DUP1 ISZERO PUSH2 0x1239 JUMPI RETURNDATASIZE PUSH1 0x0 DUP1 RETURNDATACOPY RETURNDATASIZE PUSH1 0x0 REVERT JUMPDEST POP POP POP POP PUSH1 0x40 MLOAD RETURNDATASIZE PUSH1 0x1F NOT PUSH1 0x1F DUP3 ADD AND DUP3 ADD DUP1 PUSH1 0x40 MSTORE POP DUP2 ADD SWAP1 PUSH2 0x125D SWAP2 SWAP1 PUSH2 0x2B79 JUMP JUMPDEST SWAP2 POP DUP1 ISZERO PUSH2 0x12A6 JUMPI PUSH1 0x45 DUP1 SLOAD PUSH3 0xFF0000 NOT AND SWAP1 SSTORE PUSH1 0x40 MLOAD PUSH1 0x1 DUP2 MSTORE PUSH32 0xC80EAABD798EC84CC42C71A5226E2DFF95376CF50C32A53DE2A2732B8D293E31 SWAP1 PUSH1 0x20 ADD PUSH1 0x40 MLOAD DUP1 SWAP2 SUB SWAP1 LOG1 JUMPDEST POP SWAP8 SWAP7 POP POP POP POP POP POP POP JUMP JUMPDEST PUSH1 0x40 MLOAD PUSH20 0x4C4956454C595F47454E4552414C5F47524F555 PUSH1 0x64 SHL PUSH1 0x20 DUP3 ADD MSTORE PUSH1 0x34 ADD PUSH2 0x101F JUMP JUMPDEST PUSH1 0x60 PUSH1 0x1 PUSH1 0x1 PUSH1 0xA0 SHL SUB PUSH32 0x0 AND ADDRESS SUB PUSH2 0x1324 JUMPI PUSH1 0x40 MLOAD PUSH3 0x461BCD PUSH1 0xE5 SHL DUP2 MSTORE PUSH1 0x4 ADD PUSH2 0xB1C SWAP1 PUSH2 0x2B12 JUMP JUMPDEST PUSH32 0x0 PUSH1 0x1 PUSH1 0x1 PUSH1 0xA0 SHL SUB AND PUSH2 0x1356 PUSH2 0x15E5 JUMP JUMPDEST PUSH1 0x1 PUSH1 0x1 PUSH1 0xA0 SHL SUB AND EQ PUSH2 0x137C JUMPI PUSH1 0x40 MLOAD PUSH3 0x461BCD PUSH1 0xE5 SHL DUP2 MSTORE PUSH1 0x4 ADD PUSH2 0xB1C SWAP1 PUSH2 0x2B49 JUMP JUMPDEST PUSH2 0x1385 DUP5 PUSH2 0x1AA4 JUMP JUMPDEST PUSH2 0x1390 DUP5 DUP5 DUP5 PUSH2 0x1B03 JUMP JUMPDEST SWAP1 POP JUMPDEST SWAP4 SWAP3 POP POP POP JUMP JUMPDEST PUSH1 0x60 PUSH1 0x3 DUP1 SLOAD PUSH2 0x13A9 SWAP1 PUSH2 0x29A5 JUMP JUMPDEST DUP1 PUSH1 0x1F ADD PUSH1 0x20 DUP1 SWAP2 DIV MUL PUSH1 0x20 ADD PUSH1 0x40 MLOAD SWAP1 DUP2 ADD PUSH1 0x40 MSTORE DUP1 SWAP3 SWAP2 SWAP1 DUP2 DUP2 MSTORE PUSH1 0x20 ADD DUP3 DUP1 SLOAD PUSH2 0x13D5 SWAP1 PUSH2 0x29A5 JUMP JUMPDEST DUP1 ISZERO PUSH2 0x1422 JUMPI DUP1 PUSH1 0x1F LT PUSH2 0x13F7 JUMPI PUSH2 0x100 DUP1 DUP4 SLOAD DIV MUL DUP4 MSTORE SWAP2 PUSH1 0x20 ADD SWAP2 PUSH2 0x1422 JUMP JUMPDEST DUP3 ADD SWAP2 SWAP1 PUSH1 0x0 MSTORE PUSH1 0x20 PUSH1 0x0 KECCAK256 SWAP1 JUMPDEST DUP2 SLOAD DUP2 MSTORE SWAP1 PUSH1 0x1 ADD SWAP1 PUSH1 0x20 ADD DUP1 DUP4 GT PUSH2 0x1405 JUMPI DUP3 SWAP1 SUB PUSH1 0x1F AND DUP3 ADD SWAP2 JUMPDEST POP POP POP POP POP SWAP1 POP SWAP1 JUMP JUMPDEST PUSH1 0x0 PUSH2 0x10F6 PUSH2 0x1CB8 JUMP JUMPDEST PUSH1 0x60 PUSH1 0x1 DUP1 SLOAD PUSH2 0x13A9 SWAP1 PUSH2 0x29A5 JUMP JUMPDEST PUSH1 0x0 PUSH1 0x1 PUSH1 0x1 PUSH1 0xA0 SHL SUB PUSH32 0x0 AND ADDRESS SUB PUSH2 0x148F JUMPI PUSH1 0x40 MLOAD PUSH3 0x461BCD PUSH1 0xE5 SHL DUP2 MSTORE PUSH1 0x4 ADD PUSH2 0xB1C SWAP1 PUSH2 0x2B12 JUMP JUMPDEST PUSH32 0x0 PUSH1 0x1 PUSH1 0x1 PUSH1 0xA0 SHL SUB AND PUSH2 0x14C1 PUSH2 0x15E5 JUMP JUMPDEST PUSH1 0x1 PUSH1 0x1 PUSH1 0xA0 SHL SUB AND EQ PUSH2 0x14E7 JUMPI PUSH1 0x40 MLOAD PUSH3 0x461BCD PUSH1 0xE5 SHL DUP2 MSTORE PUSH1 0x4 ADD PUSH2 0xB1C SWAP1 PUSH2 0x2B49 JUMP JUMPDEST PUSH2 0x14F7 PUSH4 0x27741C95 PUSH1 0xE2 SHL PUSH2 0x166F JUMP JUMPDEST PUSH2 0x1543 JUMPI PUSH1 0x40 MLOAD PUSH3 0x461BCD PUSH1 0xE5 SHL DUP2 MSTORE PUSH1 0x20 PUSH1 0x4 DUP3 ADD MSTORE PUSH1 0x1A PUSH1 0x24 DUP3 ADD MSTORE PUSH32 0x4368616E67656420416374697669747920466F7262696464656E000000000000 PUSH1 0x44 DUP3 ADD MSTORE PUSH1 0x64 ADD PUSH2 0xB1C JUMP JUMPDEST PUSH1 0x4 DUP1 SLOAD PUSH1 0xFF NOT AND DUP4 ISZERO ISZERO OR SWAP1 SSTORE PUSH1 0x40 MLOAD PUSH2 0x1563 SWAP1 PUSH1 0x3 SWAP1 PUSH1 0x20 ADD PUSH2 0x29DF JUMP JUMPDEST PUSH1 0x40 DUP1 MLOAD DUP1 DUP4 SUB PUSH1 0x1F NOT ADD DUP2 MSTORE SWAP1 DUP3 SWAP1 MSTORE DUP1 MLOAD PUSH1 0x20 SWAP2 DUP3 ADD KECCAK256 DUP5 ISZERO ISZERO DUP4 MSTORE SWAP2 ADDRESS SWAP2 CALLER SWAP2 PUSH32 0xD7B3867A2B70434A4341B38EB52D8392ECBED087BC2D6EFE017B9D1D7BEF9F6D SWAP2 ADD PUSH2 0xFEB JUMP JUMPDEST PUSH1 0x60 PUSH1 0x2 DUP1 SLOAD PUSH2 0x13A9 SWAP1 PUSH2 0x29A5 JUMP JUMPDEST PUSH1 0x40 MLOAD PUSH17 0x4C4956454C595F41444D494E5F524F4C45 PUSH1 0x78 SHL PUSH1 0x20 DUP3 ADD MSTORE PUSH1 0x31 ADD PUSH2 0x101F JUMP JUMPDEST SWAP1 JUMP JUMPDEST PUSH1 0x0 PUSH1 0x0 DUP1 MLOAD PUSH1 0x20 PUSH2 0x2DB6 DUP4 CODECOPY DUP2 MLOAD SWAP2 MSTORE JUMPDEST SLOAD PUSH1 0x1 PUSH1 0x1 PUSH1 0xA0 SHL SUB AND SWAP2 SWAP1 POP JUMP JUMPDEST CALLDATASIZE PUSH1 0x0 DUP1 CALLDATACOPY PUSH1 0x0 DUP1 CALLDATASIZE PUSH1 0x0 DUP5 GAS DELEGATECALL RETURNDATASIZE PUSH1 0x0 DUP1 RETURNDATACOPY DUP1 DUP1 ISZERO PUSH2 0x1625 JUMPI RETURNDATASIZE PUSH1 0x0 RETURN JUMPDEST RETURNDATASIZE PUSH1 0x0 REVERT JUMPDEST POP POP POP JUMP JUMPDEST PUSH1 0x40 DUP1 MLOAD PUSH1 0x1 PUSH1 0x1 PUSH1 0xA0 SHL SUB DUP4 AND PUSH1 0x20 DUP3 ADD MSTORE PUSH1 0x0 SWAP2 ADD PUSH1 0x40 MLOAD PUSH1 0x20 DUP2 DUP4 SUB SUB DUP2 MSTORE SWAP1 PUSH1 0x40 MSTORE DUP1 MLOAD SWAP1 PUSH1 0x20 ADD KECCAK256 SWAP1 POP SWAP2 SWAP1 POP JUMP JUMPDEST PUSH1 0x0 PUSH2 0x1393 DUP4 DUP4 PUSH2 0x1CE0 JUMP JUMPDEST PUSH1 0x0 DUP1 SLOAD PUSH1 0x1 PUSH1 0x1 PUSH1 0xA0 SHL SUB AND PUSH4 0xC7AB39E6 PUSH2 0x168A ADDRESS PUSH2 0x162F JUMP JUMPDEST PUSH1 0x40 MLOAD PUSH1 0x1 PUSH1 0x1 PUSH1 0xE0 SHL SUB NOT PUSH1 0xE0 DUP5 SWAP1 SHL DUP2 AND DUP3 MSTORE PUSH1 0x4 DUP3 ADD SWAP3 SWAP1 SWAP3 MSTORE CALLER PUSH1 0x24 DUP3 ADD MSTORE SWAP1 DUP6 AND PUSH1 0x44 DUP3 ADD MSTORE PUSH1 0x64 ADD PUSH1 0x20 PUSH1 0x40 MLOAD DUP1 DUP4 SUB DUP2 DUP7 GAS STATICCALL ISZERO DUP1 ISZERO PUSH2 0x16D5 JUMPI RETURNDATASIZE PUSH1 0x0 DUP1 RETURNDATACOPY RETURNDATASIZE PUSH1 0x0 REVERT JUMPDEST POP POP POP POP PUSH1 0x40 MLOAD RETURNDATASIZE PUSH1 0x1F NOT PUSH1 0x1F DUP3 ADD AND DUP3 ADD DUP1 PUSH1 0x40 MSTORE POP DUP2 ADD SWAP1 PUSH2 0xAA8 SWAP2 SWAP1 PUSH2 0x2B79 JUMP JUMPDEST PUSH1 0x4 SLOAD PUSH1 0xFF AND PUSH2 0x171B JUMPI PUSH1 0x40 MLOAD PUSH3 0x461BCD PUSH1 0xE5 SHL DUP2 MSTORE PUSH1 0x4 ADD PUSH2 0xB1C SWAP1 PUSH2 0x2B96 JUMP JUMPDEST PUSH2 0x172B PUSH4 0x47C02661 PUSH1 0xE0 SHL PUSH2 0x166F JUMP JUMPDEST PUSH2 0x1777 JUMPI PUSH1 0x40 MLOAD PUSH3 0x461BCD PUSH1 0xE5 SHL DUP2 MSTORE PUSH1 0x20 PUSH1 0x4 DUP3 ADD MSTORE PUSH1 0x1B PUSH1 0x24 DUP3 ADD MSTORE PUSH32 0x4368616E67652050726F787941646D696E20466F7262696464656E0000000000 PUSH1 0x44 DUP3 ADD MSTORE PUSH1 0x64 ADD PUSH2 0xB1C JUMP JUMPDEST PUSH1 0x1 PUSH1 0x1 PUSH1 0xA0 SHL SUB DUP2 AND PUSH2 0x17BF JUMPI PUSH1 0x40 MLOAD PUSH3 0x461BCD PUSH1 0xE5 SHL DUP2 MSTORE PUSH1 0x20 PUSH1 0x4 DUP3 ADD MSTORE PUSH1 0xF PUSH1 0x24 DUP3 ADD MSTORE PUSH15 0x1059191C995CDCC8125B9D985B1A59 PUSH1 0x8A SHL PUSH1 0x44 DUP3 ADD MSTORE PUSH1 0x64 ADD PUSH2 0xB1C JUMP JUMPDEST ADDRESS CALLER PUSH32 0x6DD9A711C71F2384E1A3F1AB85A1D06EEE5C81EC1E377A10E6B672052116362D PUSH2 0x17EA PUSH2 0x1CB8 JUMP JUMPDEST PUSH1 0x40 DUP1 MLOAD PUSH1 0x1 PUSH1 0x1 PUSH1 0xA0 SHL SUB SWAP3 DUP4 AND DUP2 MSTORE SWAP2 DUP7 AND PUSH1 0x20 DUP4 ADD MSTORE ADD PUSH1 0x40 MLOAD DUP1 SWAP2 SUB SWAP1 LOG3 DUP1 PUSH32 0xB53127684A568B3173AE13B9F8A6016E243E63B6E8EE1178D6A717850B5D6103 JUMPDEST DUP1 SLOAD PUSH1 0x1 PUSH1 0x1 PUSH1 0xA0 SHL SUB NOT AND PUSH1 0x1 PUSH1 0x1 PUSH1 0xA0 SHL SUB SWAP3 SWAP1 SWAP3 AND SWAP2 SWAP1 SWAP2 OR SWAP1 SSTORE POP JUMP JUMPDEST PUSH1 0x45 SLOAD PUSH1 0x0 SWAP1 PUSH3 0x10000 SWAP1 DIV PUSH1 0xFF AND ISZERO PUSH2 0x18CB JUMPI DUP2 PUSH2 0xFFFF AND PUSH1 0x1 EQ DUP1 ISZERO PUSH2 0x1877 JUMPI POP ADDRESS EXTCODESIZE ISZERO JUMPDEST PUSH2 0x18C3 JUMPI PUSH1 0x40 MLOAD PUSH3 0x461BCD PUSH1 0xE5 SHL DUP2 MSTORE PUSH1 0x20 PUSH1 0x4 DUP3 ADD MSTORE PUSH1 0x1C PUSH1 0x24 DUP3 ADD MSTORE PUSH32 0x436F6E747261637420416C726561647920696E697469616C697A656400000000 PUSH1 0x44 DUP3 ADD MSTORE PUSH1 0x64 ADD PUSH2 0xB1C JUMP JUMPDEST POP PUSH1 0x0 SWAP2 SWAP1 POP JUMP JUMPDEST PUSH1 0x45 SLOAD PUSH2 0xFFFF DUP1 DUP5 AND SWAP2 AND LT PUSH2 0x1923 JUMPI PUSH1 0x40 MLOAD PUSH3 0x461BCD PUSH1 0xE5 SHL DUP2 MSTORE PUSH1 0x20 PUSH1 0x4 DUP3 ADD MSTORE PUSH1 0x1A PUSH1 0x24 DUP3 ADD MSTORE PUSH32 0x496C6C6567616C20496E697469616C697A652056657273696F6E000000000000 PUSH1 0x44 DUP3 ADD MSTORE PUSH1 0x64 ADD PUSH2 0xB1C JUMP JUMPDEST POP PUSH1 0x45 DUP1 SLOAD PUSH2 0xFFFF NOT AND PUSH2 0xFFFF SWAP3 SWAP1 SWAP3 AND SWAP2 SWAP1 SWAP2 OR SWAP1 SSTORE PUSH1 0x1 SWAP1 JUMP JUMPDEST PUSH1 0x1 PUSH1 0x1 PUSH1 0xA0 SHL SUB PUSH32 0x0 AND ADDRESS SUB PUSH2 0x1987 JUMPI PUSH1 0x40 MLOAD PUSH3 0x461BCD PUSH1 0xE5 SHL DUP2 MSTORE PUSH1 0x4 ADD PUSH2 0xB1C SWAP1 PUSH2 0x2B12 JUMP JUMPDEST PUSH32 0x0 PUSH1 0x1 PUSH1 0x1 PUSH1 0xA0 SHL SUB AND PUSH2 0x19B9 PUSH2 0x15E5 JUMP JUMPDEST PUSH1 0x1 PUSH1 0x1 PUSH1 0xA0 SHL SUB AND EQ PUSH2 0x19DF JUMPI PUSH1 0x40 MLOAD PUSH3 0x461BCD PUSH1 0xE5 SHL DUP2 MSTORE PUSH1 0x4 ADD PUSH2 0xB1C SWAP1 PUSH2 0x2B49 JUMP JUMPDEST CALLER PUSH2 0x19E8 PUSH2 0x1CB8 JUMP JUMPDEST PUSH1 0x1 PUSH1 0x1 PUSH1 0xA0 SHL SUB AND EQ PUSH2 0x1A34 JUMPI PUSH1 0x40 MLOAD PUSH3 0x461BCD PUSH1 0xE5 SHL DUP2 MSTORE PUSH1 0x20 PUSH1 0x4 DUP3 ADD MSTORE PUSH1 0x13 PUSH1 0x24 DUP3 ADD MSTORE PUSH19 0x21B0B63632B91024B9902737BA1020B236B4B7 PUSH1 0x69 SHL PUSH1 0x44 DUP3 ADD MSTORE PUSH1 0x64 ADD PUSH2 0xB1C JUMP JUMPDEST PUSH1 0x45 SLOAD PUSH3 0x10000 SWAP1 DIV PUSH1 0xFF AND PUSH2 0x1A8C JUMPI PUSH1 0x40 MLOAD PUSH3 0x461BCD PUSH1 0xE5 SHL DUP2 MSTORE PUSH1 0x20 PUSH1 0x4 DUP3 ADD MSTORE PUSH1 0x1C PUSH1 0x24 DUP3 ADD MSTORE PUSH32 0x436F6E7472616374204973204E6F7420496E697469616C697A696E6700000000 PUSH1 0x44 DUP3 ADD MSTORE PUSH1 0x64 ADD PUSH2 0xB1C JUMP JUMPDEST PUSH2 0x1A9B DUP8 DUP8 DUP8 DUP8 DUP8 DUP8 DUP8 PUSH2 0x1D2F JUMP JUMPDEST POP POP POP POP POP POP POP JUMP JUMPDEST PUSH2 0x1AB4 PUSH4 0x7147855D PUSH1 0xE0 SHL PUSH2 0x166F JUMP JUMPDEST PUSH2 0x1B00 JUMPI PUSH1 0x40 MLOAD PUSH3 0x461BCD PUSH1 0xE5 SHL DUP2 MSTORE PUSH1 0x20 PUSH1 0x4 DUP3 ADD MSTORE PUSH1 0x1F PUSH1 0x24 DUP3 ADD MSTORE PUSH32 0x436F6E74657874205570677261646162696C69747920466F7262696464656E00 PUSH1 0x44 DUP3 ADD MSTORE PUSH1 0x64 ADD PUSH2 0xB1C JUMP JUMPDEST POP JUMP JUMPDEST PUSH1 0x60 PUSH32 0x4910FDFA16FED3260ED0E7147F7CC6DA11A60208B5B9406D12A635614FFD9143 SLOAD PUSH1 0xFF AND ISZERO PUSH2 0x1BA0 JUMPI PUSH1 0x4 SLOAD PUSH2 0x100 SWAP1 DIV PUSH1 0xFF AND PUSH2 0x1B82 JUMPI PUSH1 0x40 MLOAD PUSH3 0x461BCD PUSH1 0xE5 SHL DUP2 MSTORE PUSH1 0x20 PUSH1 0x4 DUP3 ADD MSTORE PUSH1 0x19 PUSH1 0x24 DUP3 ADD MSTORE PUSH25 0x436F6E74657874204973204E6F742055706772616461626C65 PUSH1 0x38 SHL PUSH1 0x44 DUP3 ADD MSTORE PUSH1 0x64 ADD PUSH2 0xB1C JUMP JUMPDEST PUSH2 0x1B8B DUP5 PUSH2 0x1ED8 JUMP JUMPDEST POP PUSH1 0x40 DUP1 MLOAD PUSH1 0x0 DUP2 MSTORE PUSH1 0x20 DUP2 ADD SWAP1 SWAP2 MSTORE PUSH2 0x1393 JUMP JUMPDEST DUP4 PUSH1 0x1 PUSH1 0x1 PUSH1 0xA0 SHL SUB AND PUSH4 0x52D1902D PUSH1 0x40 MLOAD DUP2 PUSH4 0xFFFFFFFF AND PUSH1 0xE0 SHL DUP2 MSTORE PUSH1 0x4 ADD PUSH1 0x20 PUSH1 0x40 MLOAD DUP1 DUP4 SUB DUP2 DUP7 GAS STATICCALL SWAP3 POP POP POP DUP1 ISZERO PUSH2 0x1BFA JUMPI POP PUSH1 0x40 DUP1 MLOAD PUSH1 0x1F RETURNDATASIZE SWAP1 DUP2 ADD PUSH1 0x1F NOT AND DUP3 ADD SWAP1 SWAP3 MSTORE PUSH2 0x1BF7 SWAP2 DUP2 ADD SWAP1 PUSH2 0x2BCD JUMP JUMPDEST PUSH1 0x1 JUMPDEST PUSH2 0x1C3D JUMPI PUSH1 0x40 MLOAD PUSH3 0x461BCD PUSH1 0xE5 SHL DUP2 MSTORE PUSH1 0x20 PUSH1 0x4 DUP3 ADD MSTORE PUSH1 0x14 PUSH1 0x24 DUP3 ADD MSTORE PUSH20 0x436F6E7472616374204973204E6F742055555053 PUSH1 0x60 SHL PUSH1 0x44 DUP3 ADD MSTORE PUSH1 0x64 ADD PUSH2 0xB1C JUMP JUMPDEST PUSH1 0x0 DUP1 MLOAD PUSH1 0x20 PUSH2 0x2DB6 DUP4 CODECOPY DUP2 MLOAD SWAP2 MSTORE DUP2 EQ PUSH2 0x1CA5 JUMPI PUSH1 0x40 MLOAD PUSH3 0x461BCD PUSH1 0xE5 SHL DUP2 MSTORE PUSH1 0x20 PUSH1 0x4 DUP3 ADD MSTORE PUSH1 0x22 PUSH1 0x24 DUP3 ADD MSTORE PUSH32 0x436F6E747261637420556E737570706F727465642070726F786961626C655555 PUSH1 0x44 DUP3 ADD MSTORE PUSH2 0x1251 PUSH1 0xF2 SHL PUSH1 0x64 DUP3 ADD MSTORE PUSH1 0x84 ADD PUSH2 0xB1C JUMP JUMPDEST POP PUSH2 0x1CB1 DUP5 DUP5 DUP5 PUSH2 0x1F7C JUMP JUMPDEST SWAP1 POP PUSH2 0x1393 JUMP JUMPDEST PUSH1 0x0 PUSH32 0xB53127684A568B3173AE13B9F8A6016E243E63B6E8EE1178D6A717850B5D6103 PUSH2 0x15F7 JUMP JUMPDEST PUSH1 0x0 DUP2 DUP2 MSTORE PUSH1 0x1 DUP4 ADD PUSH1 0x20 MSTORE PUSH1 0x40 DUP2 KECCAK256 SLOAD PUSH2 0x1D27 JUMPI POP DUP2 SLOAD PUSH1 0x1 DUP2 DUP2 ADD DUP5 SSTORE PUSH1 0x0 DUP5 DUP2 MSTORE PUSH1 0x20 DUP1 DUP3 KECCAK256 SWAP1 SWAP4 ADD DUP5 SWAP1 SSTORE DUP5 SLOAD DUP5 DUP3 MSTORE DUP3 DUP7 ADD SWAP1 SWAP4 MSTORE PUSH1 0x40 SWAP1 KECCAK256 SWAP2 SWAP1 SWAP2 SSTORE PUSH2 0xAA8 JUMP JUMPDEST POP PUSH1 0x0 PUSH2 0xAA8 JUMP JUMPDEST PUSH1 0x1 PUSH1 0x1 PUSH1 0xA0 SHL SUB PUSH32 0x0 AND ADDRESS SUB PUSH2 0x1D77 JUMPI PUSH1 0x40 MLOAD PUSH3 0x461BCD PUSH1 0xE5 SHL DUP2 MSTORE PUSH1 0x4 ADD PUSH2 0xB1C SWAP1 PUSH2 0x2B12 JUMP JUMPDEST PUSH32 0x0 PUSH1 0x1 PUSH1 0x1 PUSH1 0xA0 SHL SUB AND PUSH2 0x1DA9 PUSH2 0x15E5 JUMP JUMPDEST PUSH1 0x1 PUSH1 0x1 PUSH1 0xA0 SHL SUB AND EQ PUSH2 0x1DCF JUMPI PUSH1 0x40 MLOAD PUSH3 0x461BCD PUSH1 0xE5 SHL DUP2 MSTORE PUSH1 0x4 ADD PUSH2 0xB1C SWAP1 PUSH2 0x2B49 JUMP JUMPDEST CALLER PUSH2 0x1DD8 PUSH2 0x1CB8 JUMP JUMPDEST PUSH1 0x1 PUSH1 0x1 PUSH1 0xA0 SHL SUB AND EQ PUSH2 0x1E24 JUMPI PUSH1 0x40 MLOAD PUSH3 0x461BCD PUSH1 0xE5 SHL DUP2 MSTORE PUSH1 0x20 PUSH1 0x4 DUP3 ADD MSTORE PUSH1 0x13 PUSH1 0x24 DUP3 ADD MSTORE PUSH19 0x21B0B63632B91024B9902737BA1020B236B4B7 PUSH1 0x69 SHL PUSH1 0x44 DUP3 ADD MSTORE PUSH1 0x64 ADD PUSH2 0xB1C JUMP JUMPDEST PUSH1 0x45 SLOAD PUSH3 0x10000 SWAP1 DIV PUSH1 0xFF AND PUSH2 0x1E7C JUMPI PUSH1 0x40 MLOAD PUSH3 0x461BCD PUSH1 0xE5 SHL DUP2 MSTORE PUSH1 0x20 PUSH1 0x4 DUP3 ADD MSTORE PUSH1 0x1C PUSH1 0x24 DUP3 ADD MSTORE PUSH32 0x436F6E7472616374204973204E6F7420496E697469616C697A696E6700000000 PUSH1 0x44 DUP3 ADD MSTORE PUSH1 0x64 ADD PUSH2 0xB1C JUMP JUMPDEST PUSH1 0x1 PUSH2 0x1E89 DUP8 DUP10 DUP4 PUSH2 0x2C34 JUMP JUMPDEST POP PUSH1 0x2 PUSH2 0x1E97 DUP6 DUP8 DUP4 PUSH2 0x2C34 JUMP JUMPDEST POP PUSH1 0x3 PUSH2 0x1EA5 DUP4 DUP6 DUP4 PUSH2 0x2C34 JUMP JUMPDEST POP PUSH1 0x0 DUP1 SLOAD PUSH1 0x1 PUSH1 0x1 PUSH1 0xA0 SHL SUB NOT AND PUSH1 0x1 PUSH1 0x1 PUSH1 0xA0 SHL SUB DUP4 AND OR SWAP1 SSTORE PUSH1 0x4 DUP1 SLOAD PUSH2 0xFFFF NOT AND PUSH1 0x1 OR SWAP1 SSTORE PUSH2 0x1A9B CALLER PUSH2 0x16F9 JUMP JUMPDEST PUSH1 0x4 SLOAD PUSH1 0xFF AND PUSH2 0x1EFA JUMPI PUSH1 0x40 MLOAD PUSH3 0x461BCD PUSH1 0xE5 SHL DUP2 MSTORE PUSH1 0x4 ADD PUSH2 0xB1C SWAP1 PUSH2 0x2B96 JUMP JUMPDEST PUSH1 0x1 PUSH1 0x1 PUSH1 0xA0 SHL SUB DUP2 AND EXTCODESIZE PUSH2 0x1F67 JUMPI PUSH1 0x40 MLOAD PUSH3 0x461BCD PUSH1 0xE5 SHL DUP2 MSTORE PUSH1 0x20 PUSH1 0x4 DUP3 ADD MSTORE PUSH1 0x2D PUSH1 0x24 DUP3 ADD MSTORE PUSH32 0x455243313936373A206E657720696D706C656D656E746174696F6E206973206E PUSH1 0x44 DUP3 ADD MSTORE PUSH13 0x1BDD08184818DBDB9D1C9858DD PUSH1 0x9A SHL PUSH1 0x64 DUP3 ADD MSTORE PUSH1 0x84 ADD PUSH2 0xB1C JUMP JUMPDEST DUP1 PUSH1 0x0 DUP1 MLOAD PUSH1 0x20 PUSH2 0x2DB6 DUP4 CODECOPY DUP2 MLOAD SWAP2 MSTORE PUSH2 0x182F JUMP JUMPDEST PUSH1 0x60 PUSH2 0x1F87 DUP5 PUSH2 0x1FBA JUMP JUMPDEST PUSH1 0x0 DUP4 MLOAD GT DUP1 PUSH2 0x1F94 JUMPI POP DUP2 JUMPDEST ISZERO PUSH2 0x1FA3 JUMPI PUSH2 0x1CB1 DUP5 DUP5 PUSH2 0x217D JUMP JUMPDEST POP POP PUSH1 0x40 DUP1 MLOAD PUSH1 0x0 DUP2 MSTORE PUSH1 0x20 DUP2 ADD SWAP1 SWAP2 MSTORE SWAP3 SWAP2 POP POP JUMP JUMPDEST PUSH1 0x4 SLOAD PUSH2 0x100 SWAP1 DIV PUSH1 0xFF AND PUSH2 0x200D JUMPI PUSH1 0x40 MLOAD PUSH3 0x461BCD PUSH1 0xE5 SHL DUP2 MSTORE PUSH1 0x20 PUSH1 0x4 DUP3 ADD MSTORE PUSH1 0x19 PUSH1 0x24 DUP3 ADD MSTORE PUSH25 0x436F6E74657874204973204E6F742055706772616461626C65 PUSH1 0x38 SHL PUSH1 0x44 DUP3 ADD MSTORE PUSH1 0x64 ADD PUSH2 0xB1C JUMP JUMPDEST PUSH1 0x0 PUSH2 0x2017 PUSH2 0x15E5 JUMP JUMPDEST PUSH1 0x40 MLOAD SWAP1 SWAP2 POP PUSH1 0x1 PUSH1 0x1 PUSH1 0xA0 SHL SUB DUP4 AND SWAP1 PUSH32 0xBC7CD75A20EE27FD9ADEBAB32041F755214DBC6BFFA90CC0225B39DA2E5C2D3B SWAP1 PUSH1 0x0 SWAP1 LOG2 DUP2 PUSH1 0x1 PUSH1 0x1 PUSH1 0xA0 SHL SUB AND ADDRESS PUSH1 0x1 PUSH1 0x1 PUSH1 0xA0 SHL SUB AND CALLER PUSH1 0x1 PUSH1 0x1 PUSH1 0xA0 SHL SUB AND PUSH31 0xBE01838F727D9B6A4CC703CAD7DD0426A7DD3A2AD8BBC1AAE8E61A5F7FDD36 DUP5 DUP7 PUSH1 0x1 PUSH1 0x1 PUSH1 0xA0 SHL SUB AND PUSH4 0xCF891E2B PUSH1 0x40 MLOAD DUP2 PUSH4 0xFFFFFFFF AND PUSH1 0xE0 SHL DUP2 MSTORE PUSH1 0x4 ADD PUSH1 0x0 PUSH1 0x40 MLOAD DUP1 DUP4 SUB DUP2 DUP7 GAS STATICCALL ISZERO DUP1 ISZERO PUSH2 0x20CB JUMPI RETURNDATASIZE PUSH1 0x0 DUP1 RETURNDATACOPY RETURNDATASIZE PUSH1 0x0 REVERT JUMPDEST POP POP POP POP PUSH1 0x40 MLOAD RETURNDATASIZE PUSH1 0x0 DUP3 RETURNDATACOPY PUSH1 0x1F RETURNDATASIZE SWAP1 DUP2 ADD PUSH1 0x1F NOT AND DUP3 ADD PUSH1 0x40 MSTORE PUSH2 0x20F3 SWAP2 SWAP1 DUP2 ADD SWAP1 PUSH2 0x2CF5 JUMP JUMPDEST DUP7 PUSH1 0x1 PUSH1 0x1 PUSH1 0xA0 SHL SUB AND PUSH4 0xCF891E2B PUSH1 0x40 MLOAD DUP2 PUSH4 0xFFFFFFFF AND PUSH1 0xE0 SHL DUP2 MSTORE PUSH1 0x4 ADD PUSH1 0x0 PUSH1 0x40 MLOAD DUP1 DUP4 SUB DUP2 DUP7 GAS STATICCALL ISZERO DUP1 ISZERO PUSH2 0x2131 JUMPI RETURNDATASIZE PUSH1 0x0 DUP1 RETURNDATACOPY RETURNDATASIZE PUSH1 0x0 REVERT JUMPDEST POP POP POP POP PUSH1 0x40 MLOAD RETURNDATASIZE PUSH1 0x0 DUP3 RETURNDATACOPY PUSH1 0x1F RETURNDATASIZE SWAP1 DUP2 ADD PUSH1 0x1F NOT AND DUP3 ADD PUSH1 0x40 MSTORE PUSH2 0x2159 SWAP2 SWAP1 DUP2 ADD SWAP1 PUSH2 0x2CF5 JUMP JUMPDEST PUSH1 0x40 MLOAD PUSH2 0x2168 SWAP4 SWAP3 SWAP2 SWAP1 PUSH2 0x2D63 JUMP JUMPDEST PUSH1 0x40 MLOAD DUP1 SWAP2 SUB SWAP1 LOG4 PUSH2 0x2179 DUP3 PUSH2 0x1ED8 JUMP JUMPDEST POP POP JUMP JUMPDEST PUSH1 0x4 SLOAD PUSH1 0x60 SWAP1 PUSH1 0xFF AND PUSH2 0x21A2 JUMPI PUSH1 0x40 MLOAD PUSH3 0x461BCD PUSH1 0xE5 SHL DUP2 MSTORE PUSH1 0x4 ADD PUSH2 0xB1C SWAP1 PUSH2 0x2B96 JUMP JUMPDEST PUSH1 0x1 PUSH1 0x1 PUSH1 0xA0 SHL SUB DUP4 AND EXTCODESIZE PUSH2 0x21F9 JUMPI PUSH1 0x40 MLOAD PUSH3 0x461BCD PUSH1 0xE5 SHL DUP2 MSTORE PUSH1 0x20 PUSH1 0x4 DUP3 ADD MSTORE PUSH1 0x1C PUSH1 0x24 DUP3 ADD MSTORE PUSH32 0x44656C656761746563616C6C20746F206E6F6E2D636F6E747261637400000000 PUSH1 0x44 DUP3 ADD MSTORE PUSH1 0x64 ADD PUSH2 0xB1C JUMP JUMPDEST PUSH1 0x0 DUP1 DUP5 PUSH1 0x1 PUSH1 0x1 PUSH1 0xA0 SHL SUB AND DUP5 PUSH1 0x40 MLOAD PUSH2 0x2214 SWAP2 SWAP1 PUSH2 0x2DA3 JUMP JUMPDEST PUSH1 0x0 PUSH1 0x40 MLOAD DUP1 DUP4 SUB DUP2 DUP6 GAS DELEGATECALL SWAP2 POP POP RETURNDATASIZE DUP1 PUSH1 0x0 DUP2 EQ PUSH2 0x224F JUMPI PUSH1 0x40 MLOAD SWAP2 POP PUSH1 0x1F NOT PUSH1 0x3F RETURNDATASIZE ADD AND DUP3 ADD PUSH1 0x40 MSTORE RETURNDATASIZE DUP3 MSTORE RETURNDATASIZE PUSH1 0x0 PUSH1 0x20 DUP5 ADD RETURNDATACOPY PUSH2 0x2254 JUMP JUMPDEST PUSH1 0x60 SWAP2 POP JUMPDEST POP SWAP2 POP SWAP2 POP PUSH2 0x2299 DUP3 DUP3 PUSH1 0x40 MLOAD DUP1 PUSH1 0x40 ADD PUSH1 0x40 MSTORE DUP1 PUSH1 0x1E DUP2 MSTORE PUSH1 0x20 ADD PUSH32 0x6C6F772D6C6576656C2064656C65676174652063616C6C206661696C65640000 DUP2 MSTORE POP PUSH2 0x22A2 JUMP JUMPDEST SWAP6 SWAP5 POP POP POP POP POP JUMP JUMPDEST PUSH1 0x60 DUP4 ISZERO PUSH2 0x22B1 JUMPI POP DUP2 PUSH2 0x1393 JUMP JUMPDEST DUP3 MLOAD ISZERO PUSH2 0x22C1 JUMPI DUP3 MLOAD DUP1 DUP5 PUSH1 0x20 ADD REVERT JUMPDEST DUP2 PUSH1 0x40 MLOAD PUSH3 0x461BCD PUSH1 0xE5 SHL DUP2 MSTORE PUSH1 0x4 ADD PUSH2 0xB1C SWAP2 SWAP1 PUSH2 0x2895 JUMP JUMPDEST DUP1 CALLDATALOAD PUSH1 0x1 PUSH1 0x1 PUSH1 0xE0 SHL SUB NOT DUP2 AND DUP2 EQ PUSH2 0xFF6 JUMPI PUSH1 0x0 DUP1 REVERT JUMPDEST PUSH1 0x0 PUSH1 0x20 DUP3 DUP5 SUB SLT ISZERO PUSH2 0x2305 JUMPI PUSH1 0x0 DUP1 REVERT JUMPDEST PUSH2 0x1393 DUP3 PUSH2 0x22DB JUMP JUMPDEST PUSH1 0x0 PUSH1 0x20 DUP3 DUP5 SUB SLT ISZERO PUSH2 0x2320 JUMPI PUSH1 0x0 DUP1 REVERT JUMPDEST POP CALLDATALOAD SWAP2 SWAP1 POP JUMP JUMPDEST PUSH1 0x0 DUP1 PUSH1 0x0 DUP4 DUP6 SUB PUSH1 0x60 DUP2 SLT ISZERO PUSH2 0x233D JUMPI PUSH1 0x0 DUP1 REVERT JUMPDEST PUSH1 0x40 DUP2 SLT ISZERO PUSH2 0x234B JUMPI PUSH1 0x0 DUP1 REVERT JUMPDEST POP DUP4 SWAP3 POP PUSH1 0x40 DUP5 ADD CALLDATALOAD PUSH8 0xFFFFFFFFFFFFFFFF DUP1 DUP3 GT ISZERO PUSH2 0x236A JUMPI PUSH1 0x0 DUP1 REVERT JUMPDEST DUP2 DUP7 ADD SWAP2 POP DUP7 PUSH1 0x1F DUP4 ADD SLT PUSH2 0x237E JUMPI PUSH1 0x0 DUP1 REVERT JUMPDEST DUP2 CALLDATALOAD DUP2 DUP2 GT ISZERO PUSH2 0x238D JUMPI PUSH1 0x0 DUP1 REVERT JUMPDEST DUP8 PUSH1 0x20 DUP3 PUSH1 0x5 SHL DUP6 ADD ADD GT ISZERO PUSH2 0x23A2 JUMPI PUSH1 0x0 DUP1 REVERT JUMPDEST PUSH1 0x20 DUP4 ADD SWAP5 POP DUP1 SWAP4 POP POP POP POP SWAP3 POP SWAP3 POP SWAP3 JUMP JUMPDEST DUP1 ISZERO ISZERO DUP2 EQ PUSH2 0x1B00 JUMPI PUSH1 0x0 DUP1 REVERT JUMPDEST PUSH1 0x0 PUSH1 0x20 DUP3 DUP5 SUB SLT ISZERO PUSH2 0x23D5 JUMPI PUSH1 0x0 DUP1 REVERT JUMPDEST DUP2 CALLDATALOAD PUSH2 0x1393 DUP2 PUSH2 0x23B5 JUMP JUMPDEST PUSH1 0x0 JUMPDEST DUP4 DUP2 LT ISZERO PUSH2 0x23FB JUMPI DUP2 DUP2 ADD MLOAD DUP4 DUP3 ADD MSTORE PUSH1 0x20 ADD PUSH2 0x23E3 JUMP JUMPDEST DUP4 DUP2 GT ISZERO PUSH2 0x240A JUMPI PUSH1 0x0 DUP5 DUP5 ADD MSTORE JUMPDEST POP POP POP POP JUMP JUMPDEST PUSH1 0x0 DUP2 MLOAD DUP1 DUP5 MSTORE PUSH2 0x2428 DUP2 PUSH1 0x20 DUP7 ADD PUSH1 0x20 DUP7 ADD PUSH2 0x23E0 JUMP JUMPDEST PUSH1 0x1F ADD PUSH1 0x1F NOT AND SWAP3 SWAP1 SWAP3 ADD PUSH1 0x20 ADD SWAP3 SWAP2 POP POP JUMP JUMPDEST PUSH1 0x80 DUP2 MSTORE PUSH1 0x0 PUSH2 0x244F PUSH1 0x80 DUP4 ADD DUP8 PUSH2 0x2410 JUMP JUMPDEST DUP3 DUP2 SUB PUSH1 0x20 DUP5 ADD MSTORE PUSH2 0x2461 DUP2 DUP8 PUSH2 0x2410 JUMP JUMPDEST PUSH1 0x40 DUP5 ADD SWAP6 SWAP1 SWAP6 MSTORE POP POP SWAP1 ISZERO ISZERO PUSH1 0x60 SWAP1 SWAP2 ADD MSTORE SWAP3 SWAP2 POP POP JUMP JUMPDEST PUSH1 0x20 DUP1 DUP3 MSTORE DUP3 MLOAD DUP3 DUP3 ADD DUP2 SWAP1 MSTORE PUSH1 0x0 SWAP2 SWAP1 DUP5 DUP3 ADD SWAP1 PUSH1 0x40 DUP6 ADD SWAP1 DUP5 JUMPDEST DUP2 DUP2 LT ISZERO PUSH2 0x24BC JUMPI DUP4 MLOAD PUSH1 0x1 PUSH1 0x1 PUSH1 0xE0 SHL SUB NOT AND DUP4 MSTORE SWAP3 DUP5 ADD SWAP3 SWAP2 DUP5 ADD SWAP2 PUSH1 0x1 ADD PUSH2 0x2496 JUMP JUMPDEST POP SWAP1 SWAP7 SWAP6 POP POP POP POP POP POP JUMP JUMPDEST PUSH1 0x20 DUP1 DUP3 MSTORE DUP3 MLOAD DUP3 DUP3 ADD DUP2 SWAP1 MSTORE PUSH1 0x0 SWAP2 SWAP1 DUP5 DUP3 ADD SWAP1 PUSH1 0x40 DUP6 ADD SWAP1 DUP5 JUMPDEST DUP2 DUP2 LT ISZERO PUSH2 0x24BC JUMPI DUP4 MLOAD DUP4 MSTORE SWAP3 DUP5 ADD SWAP3 SWAP2 DUP5 ADD SWAP2 PUSH1 0x1 ADD PUSH2 0x24E4 JUMP JUMPDEST PUSH1 0x0 DUP1 PUSH1 0x0 PUSH1 0x60 DUP5 DUP7 SUB SLT ISZERO PUSH2 0x2515 JUMPI PUSH1 0x0 DUP1 REVERT JUMPDEST DUP4 CALLDATALOAD SWAP3 POP PUSH2 0x2525 PUSH1 0x20 DUP6 ADD PUSH2 0x22DB JUMP JUMPDEST SWAP2 POP PUSH1 0x40 DUP5 ADD CALLDATALOAD SWAP1 POP SWAP3 POP SWAP3 POP SWAP3 JUMP JUMPDEST DUP1 CALLDATALOAD PUSH1 0x1 PUSH1 0x1 PUSH1 0xA0 SHL SUB DUP2 AND DUP2 EQ PUSH2 0xFF6 JUMPI PUSH1 0x0 DUP1 REVERT JUMPDEST PUSH1 0x0 PUSH1 0x20 DUP3 DUP5 SUB SLT ISZERO PUSH2 0x255E JUMPI PUSH1 0x0 DUP1 REVERT JUMPDEST PUSH2 0x1393 DUP3 PUSH2 0x2535 JUMP JUMPDEST PUSH1 0x0 DUP1 DUP4 PUSH1 0x1F DUP5 ADD SLT PUSH2 0x2579 JUMPI PUSH1 0x0 DUP1 REVERT JUMPDEST POP DUP2 CALLDATALOAD PUSH8 0xFFFFFFFFFFFFFFFF DUP2 GT ISZERO PUSH2 0x2591 JUMPI PUSH1 0x0 DUP1 REVERT JUMPDEST PUSH1 0x20 DUP4 ADD SWAP2 POP DUP4 PUSH1 0x20 DUP3 DUP6 ADD ADD GT ISZERO PUSH2 0x25A9 JUMPI PUSH1 0x0 DUP1 REVERT JUMPDEST SWAP3 POP SWAP3 SWAP1 POP JUMP JUMPDEST PUSH1 0x0 DUP1 PUSH1 0x0 DUP1 PUSH1 0x0 DUP1 PUSH1 0x0 PUSH1 0x80 DUP9 DUP11 SUB SLT ISZERO PUSH2 0x25CB JUMPI PUSH1 0x0 DUP1 REVERT JUMPDEST DUP8 CALLDATALOAD PUSH8 0xFFFFFFFFFFFFFFFF DUP1 DUP3 GT ISZERO PUSH2 0x25E3 JUMPI PUSH1 0x0 DUP1 REVERT JUMPDEST PUSH2 0x25EF DUP12 DUP4 DUP13 ADD PUSH2 0x2567 JUMP JUMPDEST SWAP1 SWAP10 POP SWAP8 POP PUSH1 0x20 DUP11 ADD CALLDATALOAD SWAP2 POP DUP1 DUP3 GT ISZERO PUSH2 0x2608 JUMPI PUSH1 0x0 DUP1 REVERT JUMPDEST PUSH2 0x2614 DUP12 DUP4 DUP13 ADD PUSH2 0x2567 JUMP JUMPDEST SWAP1 SWAP8 POP SWAP6 POP PUSH1 0x40 DUP11 ADD CALLDATALOAD SWAP2 POP DUP1 DUP3 GT ISZERO PUSH2 0x262D JUMPI PUSH1 0x0 DUP1 REVERT JUMPDEST POP PUSH2 0x263A DUP11 DUP3 DUP12 ADD PUSH2 0x2567 JUMP JUMPDEST SWAP1 SWAP5 POP SWAP3 POP PUSH2 0x264D SWAP1 POP PUSH1 0x60 DUP10 ADD PUSH2 0x2535 JUMP JUMPDEST SWAP1 POP SWAP3 SWAP6 SWAP9 SWAP2 SWAP5 SWAP8 POP SWAP3 SWAP6 POP JUMP JUMPDEST PUSH1 0x0 DUP1 PUSH1 0x40 DUP4 DUP6 SUB SLT ISZERO PUSH2 0x266E JUMPI PUSH1 0x0 DUP1 REVERT JUMPDEST DUP3 CALLDATALOAD SWAP2 POP PUSH2 0x267E PUSH1 0x20 DUP5 ADD PUSH2 0x2535 JUMP JUMPDEST SWAP1 POP SWAP3 POP SWAP3 SWAP1 POP JUMP JUMPDEST PUSH1 0x20 DUP1 DUP3 MSTORE DUP3 MLOAD DUP3 DUP3 ADD DUP2 SWAP1 MSTORE PUSH1 0x0 SWAP2 SWAP1 DUP5 DUP3 ADD SWAP1 PUSH1 0x40 DUP6 ADD SWAP1 DUP5 JUMPDEST DUP2 DUP2 LT ISZERO PUSH2 0x24BC JUMPI DUP4 MLOAD PUSH1 0x1 PUSH1 0x1 PUSH1 0xA0 SHL SUB AND DUP4 MSTORE SWAP3 DUP5 ADD SWAP3 SWAP2 DUP5 ADD SWAP2 PUSH1 0x1 ADD PUSH2 0x26A3 JUMP JUMPDEST PUSH1 0x0 DUP1 PUSH1 0x0 PUSH1 0x60 DUP5 DUP7 SUB SLT ISZERO PUSH2 0x26DD JUMPI PUSH1 0x0 DUP1 REVERT JUMPDEST DUP4 CALLDATALOAD SWAP3 POP PUSH1 0x20 DUP5 ADD CALLDATALOAD SWAP2 POP PUSH2 0x26F4 PUSH1 0x40 DUP6 ADD PUSH2 0x22DB JUMP JUMPDEST SWAP1 POP SWAP3 POP SWAP3 POP SWAP3 JUMP JUMPDEST PUSH1 0x60 DUP2 MSTORE PUSH1 0x0 PUSH2 0x2710 PUSH1 0x60 DUP4 ADD DUP7 PUSH2 0x2410 JUMP JUMPDEST DUP3 DUP2 SUB PUSH1 0x20 DUP5 ADD MSTORE PUSH2 0x2722 DUP2 DUP7 PUSH2 0x2410 JUMP JUMPDEST SWAP2 POP POP DUP3 ISZERO ISZERO PUSH1 0x40 DUP4 ADD MSTORE SWAP5 SWAP4 POP POP POP POP JUMP JUMPDEST PUSH1 0x0 DUP1 PUSH1 0x0 PUSH1 0x40 DUP5 DUP7 SUB SLT ISZERO PUSH2 0x274A JUMPI PUSH1 0x0 DUP1 REVERT JUMPDEST DUP4 CALLDATALOAD PUSH8 0xFFFFFFFFFFFFFFFF DUP2 GT ISZERO PUSH2 0x2761 JUMPI PUSH1 0x0 DUP1 REVERT JUMPDEST PUSH2 0x276D DUP7 DUP3 DUP8 ADD PUSH2 0x2567 JUMP JUMPDEST SWAP1 SWAP5 POP SWAP3 POP POP PUSH1 0x20 DUP5 ADD CALLDATALOAD PUSH2 0x2781 DUP2 PUSH2 0x23B5 JUMP JUMPDEST DUP1 SWAP2 POP POP SWAP3 POP SWAP3 POP SWAP3 JUMP JUMPDEST PUSH4 0x4E487B71 PUSH1 0xE0 SHL PUSH1 0x0 MSTORE PUSH1 0x41 PUSH1 0x4 MSTORE PUSH1 0x24 PUSH1 0x0 REVERT JUMPDEST PUSH1 0x40 MLOAD PUSH1 0x1F DUP3 ADD PUSH1 0x1F NOT AND DUP2 ADD PUSH8 0xFFFFFFFFFFFFFFFF DUP2 GT DUP3 DUP3 LT OR ISZERO PUSH2 0x27CB JUMPI PUSH2 0x27CB PUSH2 0x278C JUMP JUMPDEST PUSH1 0x40 MSTORE SWAP2 SWAP1 POP JUMP JUMPDEST PUSH1 0x0 PUSH8 0xFFFFFFFFFFFFFFFF DUP3 GT ISZERO PUSH2 0x27ED JUMPI PUSH2 0x27ED PUSH2 0x278C JUMP JUMPDEST POP PUSH1 0x1F ADD PUSH1 0x1F NOT AND PUSH1 0x20 ADD SWAP1 JUMP JUMPDEST PUSH1 0x0 DUP1 PUSH1 0x0 PUSH1 0x60 DUP5 DUP7 SUB SLT ISZERO PUSH2 0x2810 JUMPI PUSH1 0x0 DUP1 REVERT JUMPDEST PUSH2 0x2819 DUP5 PUSH2 0x2535 JUMP JUMPDEST SWAP3 POP PUSH1 0x20 DUP5 ADD CALLDATALOAD PUSH8 0xFFFFFFFFFFFFFFFF DUP2 GT ISZERO PUSH2 0x2835 JUMPI PUSH1 0x0 DUP1 REVERT JUMPDEST DUP5 ADD PUSH1 0x1F DUP2 ADD DUP7 SGT PUSH2 0x2846 JUMPI PUSH1 0x0 DUP1 REVERT JUMPDEST DUP1 CALLDATALOAD PUSH2 0x2859 PUSH2 0x2854 DUP3 PUSH2 0x27D3 JUMP JUMPDEST PUSH2 0x27A2 JUMP JUMPDEST DUP2 DUP2 MSTORE DUP8 PUSH1 0x20 DUP4 DUP6 ADD ADD GT ISZERO PUSH2 0x286E JUMPI PUSH1 0x0 DUP1 REVERT JUMPDEST DUP2 PUSH1 0x20 DUP5 ADD PUSH1 0x20 DUP4 ADD CALLDATACOPY PUSH1 0x0 PUSH1 0x20 DUP4 DUP4 ADD ADD MSTORE DUP1 SWAP5 POP POP POP POP PUSH1 0x40 DUP5 ADD CALLDATALOAD PUSH2 0x2781 DUP2 PUSH2 0x23B5 JUMP JUMPDEST PUSH1 0x20 DUP2 MSTORE PUSH1 0x0 PUSH2 0x1393 PUSH1 0x20 DUP4 ADD DUP5 PUSH2 0x2410 JUMP JUMPDEST PUSH1 0x0 DUP1 PUSH1 0x0 DUP1 PUSH1 0x0 PUSH1 0x60 DUP7 DUP9 SUB SLT ISZERO PUSH2 0x28C0 JUMPI PUSH1 0x0 DUP1 REVERT JUMPDEST DUP6 CALLDATALOAD PUSH8 0xFFFFFFFFFFFFFFFF DUP1 DUP3 GT ISZERO PUSH2 0x28D8 JUMPI PUSH1 0x0 DUP1 REVERT JUMPDEST PUSH2 0x28E4 DUP10 DUP4 DUP11 ADD PUSH2 0x2567 JUMP JUMPDEST SWAP1 SWAP8 POP SWAP6 POP PUSH1 0x20 DUP9 ADD CALLDATALOAD SWAP2 POP DUP1 DUP3 GT ISZERO PUSH2 0x28FD JUMPI PUSH1 0x0 DUP1 REVERT JUMPDEST POP PUSH2 0x290A DUP9 DUP3 DUP10 ADD PUSH2 0x2567 JUMP JUMPDEST SWAP1 SWAP5 POP SWAP3 POP POP PUSH1 0x40 DUP7 ADD CALLDATALOAD PUSH2 0x291E DUP2 PUSH2 0x23B5 JUMP JUMPDEST DUP1 SWAP2 POP POP SWAP3 SWAP6 POP SWAP3 SWAP6 SWAP1 SWAP4 POP JUMP JUMPDEST PUSH1 0x0 DUP1 PUSH1 0x40 DUP4 DUP6 SUB SLT ISZERO PUSH2 0x293F JUMPI PUSH1 0x0 DUP1 REVERT JUMPDEST POP POP DUP1 CALLDATALOAD SWAP3 PUSH1 0x20 SWAP1 SWAP2 ADD CALLDATALOAD SWAP2 POP JUMP JUMPDEST PUSH1 0x40 DUP2 MSTORE PUSH1 0x0 PUSH2 0x2961 PUSH1 0x40 DUP4 ADD DUP6 PUSH2 0x2410 JUMP JUMPDEST SWAP1 POP DUP3 ISZERO ISZERO PUSH1 0x20 DUP4 ADD MSTORE SWAP4 SWAP3 POP POP POP JUMP JUMPDEST PUSH1 0x0 DUP1 PUSH1 0x0 PUSH1 0x60 DUP5 DUP7 SUB SLT ISZERO PUSH2 0x2987 JUMPI PUSH1 0x0 DUP1 REVERT JUMPDEST DUP4 CALLDATALOAD SWAP3 POP PUSH2 0x2997 PUSH1 0x20 DUP6 ADD PUSH2 0x2535 JUMP JUMPDEST SWAP2 POP PUSH2 0x26F4 PUSH1 0x40 DUP6 ADD PUSH2 0x22DB JUMP JUMPDEST PUSH1 0x1 DUP2 DUP2 SHR SWAP1 DUP3 AND DUP1 PUSH2 0x29B9 JUMPI PUSH1 0x7F DUP3 AND SWAP2 POP JUMPDEST PUSH1 0x20 DUP3 LT DUP2 SUB PUSH2 0x29D9 JUMPI PUSH4 0x4E487B71 PUSH1 0xE0 SHL PUSH1 0x0 MSTORE PUSH1 0x22 PUSH1 0x4 MSTORE PUSH1 0x24 PUSH1 0x0 REVERT JUMPDEST POP SWAP2 SWAP1 POP JUMP JUMPDEST PUSH1 0x0 DUP1 DUP4 SLOAD PUSH2 0x29ED DUP2 PUSH2 0x29A5 JUMP JUMPDEST PUSH1 0x1 DUP3 DUP2 AND DUP1 ISZERO PUSH2 0x2A05 JUMPI PUSH1 0x1 DUP2 EQ PUSH2 0x2A1A JUMPI PUSH2 0x2A49 JUMP JUMPDEST PUSH1 0xFF NOT DUP5 AND DUP8 MSTORE DUP3 ISZERO ISZERO DUP4 MUL DUP8 ADD SWAP5 POP PUSH2 0x2A49 JUMP JUMPDEST DUP8 PUSH1 0x0 MSTORE PUSH1 0x20 DUP1 PUSH1 0x0 KECCAK256 PUSH1 0x0 JUMPDEST DUP6 DUP2 LT ISZERO PUSH2 0x2A40 JUMPI DUP2 SLOAD DUP11 DUP3 ADD MSTORE SWAP1 DUP5 ADD SWAP1 DUP3 ADD PUSH2 0x2A27 JUMP JUMPDEST POP POP POP DUP3 DUP8 ADD SWAP5 POP JUMPDEST POP SWAP3 SWAP7 SWAP6 POP POP POP POP POP POP JUMP JUMPDEST PUSH4 0x4E487B71 PUSH1 0xE0 SHL PUSH1 0x0 MSTORE PUSH1 0x32 PUSH1 0x4 MSTORE PUSH1 0x24 PUSH1 0x0 REVERT JUMPDEST PUSH1 0x0 DUP3 CALLDATALOAD PUSH1 0x3E NOT DUP4 CALLDATASIZE SUB ADD DUP2 SLT PUSH2 0x2A81 JUMPI PUSH1 0x0 DUP1 REVERT JUMPDEST SWAP2 SWAP1 SWAP2 ADD SWAP3 SWAP2 POP POP JUMP JUMPDEST PUSH1 0x0 DUP1 DUP4 CALLDATALOAD PUSH1 0x1E NOT DUP5 CALLDATASIZE SUB ADD DUP2 SLT PUSH2 0x2AA2 JUMPI PUSH1 0x0 DUP1 REVERT JUMPDEST DUP4 ADD DUP1 CALLDATALOAD SWAP2 POP PUSH8 0xFFFFFFFFFFFFFFFF DUP3 GT ISZERO PUSH2 0x2ABD JUMPI PUSH1 0x0 DUP1 REVERT JUMPDEST PUSH1 0x20 ADD SWAP2 POP PUSH1 0x5 DUP2 SWAP1 SHL CALLDATASIZE SUB DUP3 SGT ISZERO PUSH2 0x25A9 JUMPI PUSH1 0x0 DUP1 REVERT JUMPDEST PUSH4 0x4E487B71 PUSH1 0xE0 SHL PUSH1 0x0 MSTORE PUSH1 0x21 PUSH1 0x4 MSTORE PUSH1 0x24 PUSH1 0x0 REVERT JUMPDEST PUSH1 0x0 PUSH1 0x1 DUP3 ADD PUSH2 0x2B0B JUMPI PUSH4 0x4E487B71 PUSH1 0xE0 SHL PUSH1 0x0 MSTORE PUSH1 0x11 PUSH1 0x4 MSTORE PUSH1 0x24 PUSH1 0x0 REVERT JUMPDEST POP PUSH1 0x1 ADD SWAP1 JUMP JUMPDEST PUSH1 0x20 DUP1 DUP3 MSTORE PUSH1 0x1C SWAP1 DUP3 ADD MSTORE PUSH32 0x4F6E6C792044656C656761746563616C6C2041636365707461626C6500000000 PUSH1 0x40 DUP3 ADD MSTORE PUSH1 0x60 ADD SWAP1 JUMP JUMPDEST PUSH1 0x20 DUP1 DUP3 MSTORE PUSH1 0x16 SWAP1 DUP3 ADD MSTORE PUSH22 0x43616C6C6564204279204163746976652050726F7879 PUSH1 0x50 SHL PUSH1 0x40 DUP3 ADD MSTORE PUSH1 0x60 ADD SWAP1 JUMP JUMPDEST PUSH1 0x0 PUSH1 0x20 DUP3 DUP5 SUB SLT ISZERO PUSH2 0x2B8B JUMPI PUSH1 0x0 DUP1 REVERT JUMPDEST DUP2 MLOAD PUSH2 0x1393 DUP2 PUSH2 0x23B5 JUMP JUMPDEST PUSH1 0x20 DUP1 DUP3 MSTORE PUSH1 0x18 SWAP1 DUP3 ADD MSTORE PUSH32 0x436F6E74657874204973204E6F74204163746976617465640000000000000000 PUSH1 0x40 DUP3 ADD MSTORE PUSH1 0x60 ADD SWAP1 JUMP JUMPDEST PUSH1 0x0 PUSH1 0x20 DUP3 DUP5 SUB SLT ISZERO PUSH2 0x2BDF JUMPI PUSH1 0x0 DUP1 REVERT JUMPDEST POP MLOAD SWAP2 SWAP1 POP JUMP JUMPDEST PUSH1 0x1F DUP3 GT ISZERO PUSH2 0x162A JUMPI PUSH1 0x0 DUP2 DUP2 MSTORE PUSH1 0x20 DUP2 KECCAK256 PUSH1 0x1F DUP6 ADD PUSH1 0x5 SHR DUP2 ADD PUSH1 0x20 DUP7 LT ISZERO PUSH2 0x2C0D JUMPI POP DUP1 JUMPDEST PUSH1 0x1F DUP6 ADD PUSH1 0x5 SHR DUP3 ADD SWAP2 POP JUMPDEST DUP2 DUP2 LT ISZERO PUSH2 0x2C2C JUMPI DUP3 DUP2 SSTORE PUSH1 0x1 ADD PUSH2 0x2C19 JUMP JUMPDEST POP POP POP POP POP POP JUMP JUMPDEST PUSH8 0xFFFFFFFFFFFFFFFF DUP4 GT ISZERO PUSH2 0x2C4C JUMPI PUSH2 0x2C4C PUSH2 0x278C JUMP JUMPDEST PUSH2 0x2C60 DUP4 PUSH2 0x2C5A DUP4 SLOAD PUSH2 0x29A5 JUMP JUMPDEST DUP4 PUSH2 0x2BE6 JUMP JUMPDEST PUSH1 0x0 PUSH1 0x1F DUP5 GT PUSH1 0x1 DUP2 EQ PUSH2 0x2C94 JUMPI PUSH1 0x0 DUP6 ISZERO PUSH2 0x2C7C JUMPI POP DUP4 DUP3 ADD CALLDATALOAD JUMPDEST PUSH1 0x0 NOT PUSH1 0x3 DUP8 SWAP1 SHL SHR NOT AND PUSH1 0x1 DUP7 SWAP1 SHL OR DUP4 SSTORE PUSH2 0x2CEE JUMP JUMPDEST PUSH1 0x0 DUP4 DUP2 MSTORE PUSH1 0x20 SWAP1 KECCAK256 PUSH1 0x1F NOT DUP7 AND SWAP1 DUP4 JUMPDEST DUP3 DUP2 LT ISZERO PUSH2 0x2CC5 JUMPI DUP7 DUP6 ADD CALLDATALOAD DUP3 SSTORE PUSH1 0x20 SWAP5 DUP6 ADD SWAP5 PUSH1 0x1 SWAP1 SWAP3 ADD SWAP2 ADD PUSH2 0x2CA5 JUMP JUMPDEST POP DUP7 DUP3 LT ISZERO PUSH2 0x2CE2 JUMPI PUSH1 0x0 NOT PUSH1 0xF8 DUP9 PUSH1 0x3 SHL AND SHR NOT DUP5 DUP8 ADD CALLDATALOAD AND DUP2 SSTORE JUMPDEST POP POP PUSH1 0x1 DUP6 PUSH1 0x1 SHL ADD DUP4 SSTORE JUMPDEST POP POP POP POP POP JUMP JUMPDEST PUSH1 0x0 PUSH1 0x20 DUP3 DUP5 SUB SLT ISZERO PUSH2 0x2D07 JUMPI PUSH1 0x0 DUP1 REVERT JUMPDEST DUP2 MLOAD PUSH8 0xFFFFFFFFFFFFFFFF DUP2 GT ISZERO PUSH2 0x2D1E JUMPI PUSH1 0x0 DUP1 REVERT JUMPDEST DUP3 ADD PUSH1 0x1F DUP2 ADD DUP5 SGT PUSH2 0x2D2F JUMPI PUSH1 0x0 DUP1 REVERT JUMPDEST DUP1 MLOAD PUSH2 0x2D3D PUSH2 0x2854 DUP3 PUSH2 0x27D3 JUMP JUMPDEST DUP2 DUP2 MSTORE DUP6 PUSH1 0x20 DUP4 DUP6 ADD ADD GT ISZERO PUSH2 0x2D52 JUMPI PUSH1 0x0 DUP1 REVERT JUMPDEST PUSH2 0x2299 DUP3 PUSH1 0x20 DUP4 ADD PUSH1 0x20 DUP7 ADD PUSH2 0x23E0 JUMP JUMPDEST PUSH1 0x1 PUSH1 0x1 PUSH1 0xA0 SHL SUB DUP5 AND DUP2 MSTORE PUSH1 0x60 PUSH1 0x20 DUP3 ADD DUP2 SWAP1 MSTORE PUSH1 0x0 SWAP1 PUSH2 0x2D87 SWAP1 DUP4 ADD DUP6 PUSH2 0x2410 JUMP JUMPDEST DUP3 DUP2 SUB PUSH1 0x40 DUP5 ADD MSTORE PUSH2 0x2D99 DUP2 DUP6 PUSH2 0x2410 JUMP JUMPDEST SWAP7 SWAP6 POP POP POP POP POP POP JUMP JUMPDEST PUSH1 0x0 DUP3 MLOAD PUSH2 0x2A81 DUP2 DUP5 PUSH1 0x20 DUP8 ADD PUSH2 0x23E0 JUMP INVALID CALLDATASIZE ADDMOD SWAP5 LOG1 EXTCODESIZE LOG1 LOG3 0x21 MOD PUSH8 0xC828492DB98DCA3E KECCAK256 PUSH23 0xCC3735A920A3CA505D382BBCA2646970667358221220CA 0x5E 0xC4 DUP16 0xFB DUP7 SWAP11 0xE6 0xC2 0xCF LT 0xBE SWAP6 DUP2 DUP13 CALLVALUE 0xB5 JUMPI 0xE4 0xE2 PUSH10 0x20C306BF1C499D660FF4 PUSH11 0x64736F6C634300080F0033 "
		},
		"gasEstimates": {
			"creation": {
				"codeDepositCost": "2357400",
				"executionCost": "infinite",
				"totalCost": "infinite"
			},
			"external": {
				"": "infinite",
				"LIVELY_ADMIN_ROLE()": "409",
				"LIVELY_GENERAL_GROUP()": "409",
				"LIVELY_GENERAL_REALM()": "466",
				"LIVELY_SYSTEM_ADMIN_ROLE()": "470",
				"addGroup(string,bool)": "717",
				"addRealm(string,bool)": "718",
				"addRole(string,string,bool)": "infinite",
				"disableContext(bytes32)": "382",
				"disabledGroup(bytes32)": "358",
				"disabledRealm(bytes32)": "360",
				"enableContext(bytes32)": "336",
				"enableUpgradeContext(bytes32)": "401",
				"enableUpgradeRealm(bytes32)": "379",
				"enabledGroup(bytes32)": "380",
				"enabledRealm(bytes32)": "404",
				"getContext(bytes32)": "infinite",
				"getContextFuncs(bytes32)": "infinite",
				"getGroup(bytes32)": "infinite",
				"getGroupRoles(bytes32)": "infinite",
				"getProxyAdmin()": "2536",
				"getRealm(bytes32)": "infinite",
				"getRealmContextes(bytes32)": "infinite",
				"getRole(bytes32)": "infinite",
				"getRoleContextes(bytes32)": "infinite",
				"getRoleUsers(bytes32)": "infinite",
				"grantContextRole(bytes32,bytes4,bytes32)": "497",
				"grantGroupRole(bytes32,bytes32)": "363",
				"grantRealmContext(bytes32,bytes32)": "430",
				"grantRoleAccount(bytes32,address)": "471",
				"hasAccess(bytes32,address,bytes4)": "infinite",
				"hasAccountRole(bytes32,address)": "493",
				"hasContextRole(bytes32,bytes32,bytes4)": "495",
				"hasGroupRole(bytes32,bytes32)": "385",
				"hasLivelyAdminRole(address)": "485",
				"hasLivelyGroup(bytes32)": "337",
				"hasLivelyRealm(bytes32)": "382",
				"hasRealmContext(bytes32,bytes32)": "408",
				"hasSystemAdminRole(address)": "461",
				"implementation()": "infinite",
				"initialize(string,string,string,address)": "infinite",
				"isActivated()": "2384",
				"isEnabled(bytes32)": "383",
				"isUpgradable()": "2416",
				"isUpgradeEnabled(bytes32)": "338",
				"proxiableUUID()": "infinite",
				"registerContext((bytes32,address),(bytes32,bytes4[])[])": "infinite",
				"registerContext()": "infinite",
				"revokeContextRole(bytes32,bytes4,bytes32)": "540",
				"revokeGroupRole(bytes32,bytes32)": "430",
				"revokeRealmContext(bytes32,bytes32)": "387",
				"revokeRoleAccount(bytes32,address)": "514",
				"setActivity(bool)": "infinite",
				"setDisabledRole(bytes32)": "381",
				"setEnabledRole(bytes32)": "403",
				"setProxyAdmin(address)": "infinite",
				"setUpgradability(bool)": "infinite",
				"subjectContext()": "508",
				"subjectName()": "infinite",
				"subjectRealm()": "infinite",
				"subjectVersion()": "infinite",
				"supportsInterface(bytes4)": "608",
				"updateContext((bytes32,address),(bytes32,bytes4[])[])": "648",
				"upgradeTo(address,bytes,bool)": "infinite"
			}
		},
		"methodIdentifiers": {
			"LIVELY_ADMIN_ROLE()": "d8b31999",
			"LIVELY_GENERAL_GROUP()": "6ac58ac1",
			"LIVELY_GENERAL_REALM()": "20dd27af",
			"LIVELY_SYSTEM_ADMIN_ROLE()": "5632ffd8",
			"addGroup(string,bool)": "6fb63dca",
			"addRealm(string,bool)": "b386033f",
			"addRole(string,string,bool)": "8b480975",
			"disableContext(bytes32)": "20c87707",
			"disabledGroup(bytes32)": "d97f9e5d",
			"disabledRealm(bytes32)": "1e26521a",
			"enableContext(bytes32)": "ea377987",
			"enableUpgradeContext(bytes32)": "fdba6b17",
			"enableUpgradeRealm(bytes32)": "fb72237d",
			"enabledGroup(bytes32)": "f254453b",
			"enabledRealm(bytes32)": "12c1a08e",
			"getContext(bytes32)": "29b2be01",
			"getContextFuncs(bytes32)": "2e2adf00",
			"getGroup(bytes32)": "b567d4ba",
			"getGroupRoles(bytes32)": "edf1d1cb",
			"getProxyAdmin()": "8b3240a0",
			"getRealm(bytes32)": "b879bdfb",
			"getRealmContextes(bytes32)": "5472e25e",
			"getRole(bytes32)": "6e8eb7bc",
			"getRoleContextes(bytes32)": "2f671733",
			"getRoleUsers(bytes32)": "6217088f",
			"grantContextRole(bytes32,bytes4,bytes32)": "771bcf45",
			"grantGroupRole(bytes32,bytes32)": "f34b2202",
			"grantRealmContext(bytes32,bytes32)": "f28f3092",
			"grantRoleAccount(bytes32,address)": "8f09e0f0",
			"hasAccess(bytes32,address,bytes4)": "c7ab39e6",
			"hasAccountRole(bytes32,address)": "5dd0a7db",
			"hasContextRole(bytes32,bytes32,bytes4)": "6b3b0159",
			"hasGroupRole(bytes32,bytes32)": "f5122c92",
			"hasLivelyAdminRole(address)": "4f2eca98",
			"hasLivelyGroup(bytes32)": "c3f1f22d",
			"hasLivelyRealm(bytes32)": "0d1ee1bd",
			"hasRealmContext(bytes32,bytes32)": "d9aba36e",
			"hasSystemAdminRole(address)": "c2f6167a",
			"implementation()": "5c60da1b",
			"initialize(string,string,string,address)": "5c6d8da1",
			"isActivated()": "4a8c1fb4",
			"isEnabled(bytes32)": "0610e037",
			"isUpgradable()": "5479d940",
			"isUpgradeEnabled(bytes32)": "09d4a907",
			"proxiableUUID()": "52d1902d",
			"registerContext((bytes32,address),(bytes32,bytes4[])[])": "0c9a9074",
			"registerContext()": "0124a80a",
			"revokeContextRole(bytes32,bytes4,bytes32)": "4346a04b",
			"revokeGroupRole(bytes32,bytes32)": "c34dd6a1",
			"revokeRealmContext(bytes32,bytes32)": "9f8e37bb",
			"revokeRoleAccount(bytes32,address)": "df01de45",
			"setActivity(bool)": "9dd07254",
			"setDisabledRole(bytes32)": "ac7e7c67",
			"setEnabledRole(bytes32)": "d545594f",
			"setProxyAdmin(address)": "47c02661",
			"setUpgradability(bool)": "133899f5",
			"subjectContext()": "4bce20dd",
			"subjectName()": "900574a5",
			"subjectRealm()": "886ddb52",
			"subjectVersion()": "cf891e2b",
			"supportsInterface(bytes4)": "01ffc9a7",
			"updateContext((bytes32,address),(bytes32,bytes4[])[])": "96a9b471",
			"upgradeTo(address,bytes,bool)": "7147855d"
		}
	},
	"abi": [
		{
			"inputs": [],
			"stateMutability": "nonpayable",
			"type": "constructor"
		},
		{
			"anonymous": false,
			"inputs": [
				{
					"indexed": true,
					"internalType": "address",
					"name": "sender",
					"type": "address"
				},
				{
					"indexed": true,
					"internalType": "address",
					"name": "proxy",
					"type": "address"
				},
				{
					"indexed": true,
					"internalType": "bytes32",
					"name": "realm",
					"type": "bytes32"
				},
				{
					"indexed": false,
					"internalType": "bool",
					"name": "value",
					"type": "bool"
				}
			],
			"name": "ContextActivityChanged",
			"type": "event"
		},
		{
			"anonymous": false,
			"inputs": [
				{
					"indexed": true,
					"internalType": "bytes32",
					"name": "context",
					"type": "bytes32"
				},
				{
					"indexed": true,
					"internalType": "address",
					"name": "scma",
					"type": "address"
				},
				{
					"indexed": true,
					"internalType": "address",
					"name": "sender",
					"type": "address"
				},
				{
					"indexed": false,
					"internalType": "bytes32",
					"name": "realm",
					"type": "bytes32"
				}
			],
			"name": "ContextRegistered",
			"type": "event"
		},
		{
			"anonymous": false,
			"inputs": [
				{
					"indexed": true,
					"internalType": "bytes32",
					"name": "context",
					"type": "bytes32"
				},
				{
					"indexed": true,
					"internalType": "bytes32",
					"name": "role",
					"type": "bytes32"
				},
				{
					"indexed": true,
					"internalType": "address",
					"name": "sender",
					"type": "address"
				},
				{
					"indexed": false,
					"internalType": "bytes4",
					"name": "functionSelector",
					"type": "bytes4"
				},
				{
					"indexed": false,
					"internalType": "bytes32",
					"name": "realm",
					"type": "bytes32"
				}
			],
			"name": "ContextRoleGranted",
			"type": "event"
		},
		{
			"anonymous": false,
			"inputs": [
				{
					"indexed": true,
					"internalType": "bytes32",
					"name": "context",
					"type": "bytes32"
				},
				{
					"indexed": true,
					"internalType": "bytes32",
					"name": "role",
					"type": "bytes32"
				},
				{
					"indexed": true,
					"internalType": "address",
					"name": "sender",
					"type": "address"
				},
				{
					"indexed": false,
					"internalType": "bytes4",
					"name": "functionSelector",
					"type": "bytes4"
				},
				{
					"indexed": false,
					"internalType": "bytes32",
					"name": "realm",
					"type": "bytes32"
				}
			],
			"name": "ContextRoleRevoked",
			"type": "event"
		},
		{
			"anonymous": false,
			"inputs": [
				{
					"indexed": true,
					"internalType": "bytes32",
					"name": "context",
					"type": "bytes32"
				},
				{
					"indexed": true,
					"internalType": "address",
					"name": "scma",
					"type": "address"
				},
				{
					"indexed": true,
					"internalType": "address",
					"name": "sender",
					"type": "address"
				}
			],
			"name": "ContextUpdated",
			"type": "event"
		},
		{
			"anonymous": false,
			"inputs": [
				{
					"indexed": true,
					"internalType": "address",
					"name": "sender",
					"type": "address"
				},
				{
					"indexed": true,
					"internalType": "address",
					"name": "proxy",
					"type": "address"
				},
				{
					"indexed": true,
					"internalType": "bytes32",
					"name": "realm",
					"type": "bytes32"
				},
				{
					"indexed": false,
					"internalType": "bool",
					"name": "value",
					"type": "bool"
				}
			],
			"name": "ContextUpgradabilityChanged",
			"type": "event"
		},
		{
			"anonymous": false,
			"inputs": [
				{
					"indexed": true,
					"internalType": "bytes32",
					"name": "group",
					"type": "bytes32"
				},
				{
					"indexed": true,
					"internalType": "address",
					"name": "sender",
					"type": "address"
				}
			],
			"name": "GroupDisabled",
			"type": "event"
		},
		{
			"anonymous": false,
			"inputs": [
				{
					"indexed": true,
					"internalType": "bytes32",
					"name": "group",
					"type": "bytes32"
				},
				{
					"indexed": true,
					"internalType": "address",
					"name": "sender",
					"type": "address"
				}
			],
			"name": "GroupEnabled",
			"type": "event"
		},
		{
			"anonymous": false,
			"inputs": [
				{
					"indexed": true,
					"internalType": "bytes32",
					"name": "group",
					"type": "bytes32"
				},
				{
					"indexed": true,
					"internalType": "address",
					"name": "sender",
					"type": "address"
				},
				{
					"indexed": false,
					"internalType": "string",
					"name": "name",
					"type": "string"
				},
				{
					"indexed": false,
					"internalType": "bool",
					"name": "isEnabled",
					"type": "bool"
				}
			],
			"name": "GroupRegistered",
			"type": "event"
		},
		{
			"anonymous": false,
			"inputs": [
				{
					"indexed": true,
					"internalType": "bytes32",
					"name": "group",
					"type": "bytes32"
				},
				{
					"indexed": true,
					"internalType": "bytes32",
					"name": "role",
					"type": "bytes32"
				},
				{
					"indexed": true,
					"internalType": "address",
					"name": "sender",
					"type": "address"
				}
			],
			"name": "GroupRoleGranted",
			"type": "event"
		},
		{
			"anonymous": false,
			"inputs": [
				{
					"indexed": true,
					"internalType": "bytes32",
					"name": "group",
					"type": "bytes32"
				},
				{
					"indexed": true,
					"internalType": "bytes32",
					"name": "role",
					"type": "bytes32"
				},
				{
					"indexed": true,
					"internalType": "address",
					"name": "sender",
					"type": "address"
				}
			],
			"name": "GroupRoleRevoked",
			"type": "event"
		},
		{
			"anonymous": false,
			"inputs": [
				{
					"indexed": false,
					"internalType": "uint16",
					"name": "version",
					"type": "uint16"
				}
			],
			"name": "Initialized",
			"type": "event"
		},
		{
			"anonymous": false,
			"inputs": [
				{
					"indexed": true,
					"internalType": "address",
					"name": "sender",
					"type": "address"
				},
				{
					"indexed": true,
					"internalType": "address",
					"name": "proxy",
					"type": "address"
				},
				{
					"indexed": false,
					"internalType": "address",
					"name": "previousAdmin",
					"type": "address"
				},
				{
					"indexed": false,
					"internalType": "address",
					"name": "newAdmin",
					"type": "address"
				}
			],
			"name": "ProxyAdminChanged",
			"type": "event"
		},
		{
			"anonymous": false,
			"inputs": [
				{
					"indexed": true,
					"internalType": "address",
					"name": "sender",
					"type": "address"
				},
				{
					"indexed": true,
					"internalType": "address",
					"name": "proxy",
					"type": "address"
				},
				{
					"indexed": true,
					"internalType": "address",
					"name": "newImplementation",
					"type": "address"
				},
				{
					"indexed": false,
					"internalType": "address",
					"name": "oldImplementation",
					"type": "address"
				},
				{
					"indexed": false,
					"internalType": "string",
					"name": "newVersion",
					"type": "string"
				},
				{
					"indexed": false,
					"internalType": "string",
					"name": "oldVersion",
					"type": "string"
				}
			],
			"name": "ProxyUpgraded",
			"type": "event"
		},
		{
			"anonymous": false,
			"inputs": [
				{
					"indexed": true,
					"internalType": "bytes32",
					"name": "realm",
					"type": "bytes32"
				},
				{
					"indexed": true,
					"internalType": "bytes32",
					"name": "context",
					"type": "bytes32"
				},
				{
					"indexed": true,
					"internalType": "address",
					"name": "sender",
					"type": "address"
				}
			],
			"name": "RealmContextGranted",
			"type": "event"
		},
		{
			"anonymous": false,
			"inputs": [
				{
					"indexed": true,
					"internalType": "bytes32",
					"name": "realm",
					"type": "bytes32"
				},
				{
					"indexed": true,
					"internalType": "address",
					"name": "sender",
					"type": "address"
				}
			],
			"name": "RealmDisabled",
			"type": "event"
		},
		{
			"anonymous": false,
			"inputs": [
				{
					"indexed": true,
					"internalType": "bytes32",
					"name": "realm",
					"type": "bytes32"
				},
				{
					"indexed": true,
					"internalType": "address",
					"name": "sender",
					"type": "address"
				}
			],
			"name": "RealmEnabled",
			"type": "event"
		},
		{
			"anonymous": false,
			"inputs": [
				{
					"indexed": true,
					"internalType": "bytes32",
					"name": "realm",
					"type": "bytes32"
				},
				{
					"indexed": true,
					"internalType": "address",
					"name": "sender",
					"type": "address"
				},
				{
					"indexed": false,
					"internalType": "string",
					"name": "name",
					"type": "string"
				},
				{
					"indexed": false,
					"internalType": "bool",
					"name": "isEnabled",
					"type": "bool"
				}
			],
			"name": "RealmRegistered",
			"type": "event"
		},
		{
			"anonymous": false,
			"inputs": [
				{
					"indexed": true,
					"internalType": "bytes32",
					"name": "realm",
					"type": "bytes32"
				},
				{
					"indexed": true,
					"internalType": "bytes32",
					"name": "context",
					"type": "bytes32"
				},
				{
					"indexed": true,
					"internalType": "address",
					"name": "sender",
					"type": "address"
				}
			],
			"name": "RealmRoleRevoked",
			"type": "event"
		},
		{
			"anonymous": false,
			"inputs": [
				{
					"indexed": true,
					"internalType": "bytes32",
					"name": "realm",
					"type": "bytes32"
				},
				{
					"indexed": true,
					"internalType": "address",
					"name": "sender",
					"type": "address"
				}
			],
			"name": "RealmUpgradeEnabled",
			"type": "event"
		},
		{
			"anonymous": false,
			"inputs": [
				{
					"indexed": true,
					"internalType": "bytes32",
					"name": "role",
					"type": "bytes32"
				},
				{
					"indexed": true,
					"internalType": "address",
					"name": "account",
					"type": "address"
				},
				{
					"indexed": true,
					"internalType": "address",
					"name": "sender",
					"type": "address"
				},
				{
					"indexed": false,
					"internalType": "bytes32",
					"name": "group",
					"type": "bytes32"
				}
			],
			"name": "RoleAccountGranted",
			"type": "event"
		},
		{
			"anonymous": false,
			"inputs": [
				{
					"indexed": true,
					"internalType": "bytes32",
					"name": "role",
					"type": "bytes32"
				},
				{
					"indexed": true,
					"internalType": "address",
					"name": "account",
					"type": "address"
				},
				{
					"indexed": true,
					"internalType": "address",
					"name": "sender",
					"type": "address"
				},
				{
					"indexed": false,
					"internalType": "bytes32",
					"name": "group",
					"type": "bytes32"
				}
			],
			"name": "RoleAccountRevoked",
			"type": "event"
		},
		{
			"anonymous": false,
			"inputs": [
				{
					"indexed": true,
					"internalType": "bytes32",
					"name": "role",
					"type": "bytes32"
				},
				{
					"indexed": true,
					"internalType": "address",
					"name": "sender",
					"type": "address"
				},
				{
					"indexed": true,
					"internalType": "bytes32",
					"name": "group",
					"type": "bytes32"
				}
			],
			"name": "RoleDisabled",
			"type": "event"
		},
		{
			"anonymous": false,
			"inputs": [
				{
					"indexed": true,
					"internalType": "bytes32",
					"name": "role",
					"type": "bytes32"
				},
				{
					"indexed": true,
					"internalType": "address",
					"name": "sender",
					"type": "address"
				},
				{
					"indexed": true,
					"internalType": "bytes32",
					"name": "group",
					"type": "bytes32"
				}
			],
			"name": "RoleEnabled",
			"type": "event"
		},
		{
			"anonymous": false,
			"inputs": [
				{
					"indexed": true,
					"internalType": "bytes32",
					"name": "role",
					"type": "bytes32"
				},
				{
					"indexed": true,
					"internalType": "string",
					"name": "name",
					"type": "string"
				},
				{
					"indexed": true,
					"internalType": "address",
					"name": "sender",
					"type": "address"
				},
				{
					"indexed": false,
					"internalType": "bytes32",
					"name": "group",
					"type": "bytes32"
				},
				{
					"indexed": false,
					"internalType": "bool",
					"name": "isEnabled",
					"type": "bool"
				}
			],
			"name": "RoleRegistered",
			"type": "event"
		},
		{
			"anonymous": false,
			"inputs": [
				{
					"indexed": true,
					"internalType": "address",
					"name": "implementation",
					"type": "address"
				}
			],
			"name": "Upgraded",
			"type": "event"
		},
		{
			"stateMutability": "payable",
			"type": "fallback"
		},
		{
			"inputs": [],
			"name": "LIVELY_ADMIN_ROLE",
			"outputs": [
				{
					"internalType": "bytes32",
					"name": "",
					"type": "bytes32"
				}
			],
			"stateMutability": "view",
			"type": "function"
		},
		{
			"inputs": [],
			"name": "LIVELY_GENERAL_GROUP",
			"outputs": [
				{
					"internalType": "bytes32",
					"name": "",
					"type": "bytes32"
				}
			],
			"stateMutability": "view",
			"type": "function"
		},
		{
			"inputs": [],
			"name": "LIVELY_GENERAL_REALM",
			"outputs": [
				{
					"internalType": "bytes32",
					"name": "",
					"type": "bytes32"
				}
			],
			"stateMutability": "view",
			"type": "function"
		},
		{
			"inputs": [],
			"name": "LIVELY_SYSTEM_ADMIN_ROLE",
			"outputs": [
				{
					"internalType": "bytes32",
					"name": "",
					"type": "bytes32"
				}
			],
			"stateMutability": "view",
			"type": "function"
		},
		{
			"inputs": [
				{
					"internalType": "string",
					"name": "name",
					"type": "string"
				},
				{
					"internalType": "bool",
					"name": "isEnabled",
					"type": "bool"
				}
			],
			"name": "addGroup",
			"outputs": [
				{
					"internalType": "bytes32",
					"name": "",
					"type": "bytes32"
				}
			],
			"stateMutability": "nonpayable",
			"type": "function"
		},
		{
			"inputs": [
				{
					"internalType": "string",
					"name": "name",
					"type": "string"
				},
				{
					"internalType": "bool",
					"name": "isEnabled",
					"type": "bool"
				}
			],
			"name": "addRealm",
			"outputs": [
				{
					"internalType": "bytes32",
					"name": "",
					"type": "bytes32"
				}
			],
			"stateMutability": "nonpayable",
			"type": "function"
		},
		{
			"inputs": [
				{
					"internalType": "string",
					"name": "name",
					"type": "string"
				},
				{
					"internalType": "string",
					"name": "group",
					"type": "string"
				},
				{
					"internalType": "bool",
					"name": "isEnabled",
					"type": "bool"
				}
			],
			"name": "addRole",
			"outputs": [
				{
					"internalType": "bytes32",
					"name": "",
					"type": "bytes32"
				}
			],
			"stateMutability": "nonpayable",
			"type": "function"
		},
		{
			"inputs": [
				{
					"internalType": "bytes32",
					"name": "ctx",
					"type": "bytes32"
				}
			],
			"name": "disableContext",
			"outputs": [
				{
					"internalType": "bool",
					"name": "",
					"type": "bool"
				}
			],
			"stateMutability": "nonpayable",
			"type": "function"
		},
		{
			"inputs": [
				{
					"internalType": "bytes32",
					"name": "group",
					"type": "bytes32"
				}
			],
			"name": "disabledGroup",
			"outputs": [
				{
					"internalType": "bool",
					"name": "",
					"type": "bool"
				}
			],
			"stateMutability": "nonpayable",
			"type": "function"
		},
		{
			"inputs": [
				{
					"internalType": "bytes32",
					"name": "realm",
					"type": "bytes32"
				}
			],
			"name": "disabledRealm",
			"outputs": [
				{
					"internalType": "bool",
					"name": "",
					"type": "bool"
				}
			],
			"stateMutability": "nonpayable",
			"type": "function"
		},
		{
			"inputs": [
				{
					"internalType": "bytes32",
					"name": "ctx",
					"type": "bytes32"
				}
			],
			"name": "enableContext",
			"outputs": [
				{
					"internalType": "bool",
					"name": "",
					"type": "bool"
				}
			],
			"stateMutability": "nonpayable",
			"type": "function"
		},
		{
			"inputs": [
				{
					"internalType": "bytes32",
					"name": "ctx",
					"type": "bytes32"
				}
			],
			"name": "enableUpgradeContext",
			"outputs": [
				{
					"internalType": "bool",
					"name": "",
					"type": "bool"
				}
			],
			"stateMutability": "nonpayable",
			"type": "function"
		},
		{
			"inputs": [
				{
					"internalType": "bytes32",
					"name": "realm",
					"type": "bytes32"
				}
			],
			"name": "enableUpgradeRealm",
			"outputs": [
				{
					"internalType": "bool",
					"name": "",
					"type": "bool"
				}
			],
			"stateMutability": "nonpayable",
			"type": "function"
		},
		{
			"inputs": [
				{
					"internalType": "bytes32",
					"name": "group",
					"type": "bytes32"
				}
			],
			"name": "enabledGroup",
			"outputs": [
				{
					"internalType": "bool",
					"name": "",
					"type": "bool"
				}
			],
			"stateMutability": "nonpayable",
			"type": "function"
		},
		{
			"inputs": [
				{
					"internalType": "bytes32",
					"name": "realm",
					"type": "bytes32"
				}
			],
			"name": "enabledRealm",
			"outputs": [
				{
					"internalType": "bool",
					"name": "",
					"type": "bool"
				}
			],
			"stateMutability": "nonpayable",
			"type": "function"
		},
		{
			"inputs": [
				{
					"internalType": "bytes32",
					"name": "ctx",
					"type": "bytes32"
				}
			],
			"name": "getContext",
			"outputs": [
				{
					"internalType": "string",
					"name": "",
					"type": "string"
				},
				{
					"internalType": "string",
					"name": "",
					"type": "string"
				},
				{
					"internalType": "bytes32",
					"name": "",
					"type": "bytes32"
				},
				{
					"internalType": "bool",
					"name": "",
					"type": "bool"
				}
			],
			"stateMutability": "view",
			"type": "function"
		},
		{
			"inputs": [
				{
					"internalType": "bytes32",
					"name": "ctx",
					"type": "bytes32"
				}
			],
			"name": "getContextFuncs",
			"outputs": [
				{
					"internalType": "bytes4[]",
					"name": "",
					"type": "bytes4[]"
				}
			],
			"stateMutability": "view",
			"type": "function"
		},
		{
			"inputs": [
				{
					"internalType": "bytes32",
					"name": "group",
					"type": "bytes32"
				}
			],
			"name": "getGroup",
			"outputs": [
				{
					"internalType": "string",
					"name": "",
					"type": "string"
				},
				{
					"internalType": "bool",
					"name": "",
					"type": "bool"
				}
			],
			"stateMutability": "view",
			"type": "function"
		},
		{
			"inputs": [
				{
					"internalType": "bytes32",
					"name": "group",
					"type": "bytes32"
				}
			],
			"name": "getGroupRoles",
			"outputs": [
				{
					"internalType": "bytes32[]",
					"name": "",
					"type": "bytes32[]"
				}
			],
			"stateMutability": "view",
			"type": "function"
		},
		{
			"inputs": [],
			"name": "getProxyAdmin",
			"outputs": [
				{
					"internalType": "address",
					"name": "",
					"type": "address"
				}
			],
			"stateMutability": "view",
			"type": "function"
		},
		{
			"inputs": [
				{
					"internalType": "bytes32",
					"name": "realm",
					"type": "bytes32"
				}
			],
			"name": "getRealm",
			"outputs": [
				{
					"internalType": "string",
					"name": "",
					"type": "string"
				},
				{
					"internalType": "bool",
					"name": "",
					"type": "bool"
				}
			],
			"stateMutability": "view",
			"type": "function"
		},
		{
			"inputs": [
				{
					"internalType": "bytes32",
					"name": "realm",
					"type": "bytes32"
				}
			],
			"name": "getRealmContextes",
			"outputs": [
				{
					"internalType": "bytes32[]",
					"name": "",
					"type": "bytes32[]"
				}
			],
			"stateMutability": "view",
			"type": "function"
		},
		{
			"inputs": [
				{
					"internalType": "bytes32",
					"name": "role",
					"type": "bytes32"
				}
			],
			"name": "getRole",
			"outputs": [
				{
					"internalType": "string",
					"name": "",
					"type": "string"
				},
				{
					"internalType": "string",
					"name": "",
					"type": "string"
				},
				{
					"internalType": "bool",
					"name": "",
					"type": "bool"
				}
			],
			"stateMutability": "view",
			"type": "function"
		},
		{
			"inputs": [
				{
					"internalType": "bytes32",
					"name": "role",
					"type": "bytes32"
				}
			],
			"name": "getRoleContextes",
			"outputs": [
				{
					"internalType": "bytes32[]",
					"name": "",
					"type": "bytes32[]"
				}
			],
			"stateMutability": "view",
			"type": "function"
		},
		{
			"inputs": [
				{
					"internalType": "bytes32",
					"name": "role",
					"type": "bytes32"
				}
			],
			"name": "getRoleUsers",
			"outputs": [
				{
					"internalType": "address[]",
					"name": "",
					"type": "address[]"
				}
			],
			"stateMutability": "view",
			"type": "function"
		},
		{
			"inputs": [
				{
					"internalType": "bytes32",
					"name": "ctx",
					"type": "bytes32"
				},
				{
					"internalType": "bytes4",
					"name": "functionSelector",
					"type": "bytes4"
				},
				{
					"internalType": "bytes32",
					"name": "role",
					"type": "bytes32"
				}
			],
			"name": "grantContextRole",
			"outputs": [
				{
					"internalType": "bool",
					"name": "",
					"type": "bool"
				}
			],
			"stateMutability": "nonpayable",
			"type": "function"
		},
		{
			"inputs": [
				{
					"internalType": "bytes32",
					"name": "group",
					"type": "bytes32"
				},
				{
					"internalType": "bytes32",
					"name": "role",
					"type": "bytes32"
				}
			],
			"name": "grantGroupRole",
			"outputs": [
				{
					"internalType": "bool",
					"name": "",
					"type": "bool"
				}
			],
			"stateMutability": "nonpayable",
			"type": "function"
		},
		{
			"inputs": [
				{
					"internalType": "bytes32",
					"name": "realm",
					"type": "bytes32"
				},
				{
					"internalType": "bytes32",
					"name": "context",
					"type": "bytes32"
				}
			],
			"name": "grantRealmContext",
			"outputs": [
				{
					"internalType": "bool",
					"name": "",
					"type": "bool"
				}
			],
			"stateMutability": "nonpayable",
			"type": "function"
		},
		{
			"inputs": [
				{
					"internalType": "bytes32",
					"name": "role",
					"type": "bytes32"
				},
				{
					"internalType": "address",
					"name": "account",
					"type": "address"
				}
			],
			"name": "grantRoleAccount",
			"outputs": [
				{
					"internalType": "bool",
					"name": "",
					"type": "bool"
				}
			],
			"stateMutability": "nonpayable",
			"type": "function"
		},
		{
			"inputs": [
				{
					"internalType": "bytes32",
					"name": "context",
					"type": "bytes32"
				},
				{
					"internalType": "address",
					"name": "account",
					"type": "address"
				},
				{
					"internalType": "bytes4",
					"name": "signature",
					"type": "bytes4"
				}
			],
			"name": "hasAccess",
			"outputs": [
				{
					"internalType": "bool",
					"name": "",
					"type": "bool"
				}
			],
			"stateMutability": "view",
			"type": "function"
		},
		{
			"inputs": [
				{
					"internalType": "bytes32",
					"name": "role",
					"type": "bytes32"
				},
				{
					"internalType": "address",
					"name": "account",
					"type": "address"
				}
			],
			"name": "hasAccountRole",
			"outputs": [
				{
					"internalType": "bool",
					"name": "",
					"type": "bool"
				}
			],
			"stateMutability": "view",
			"type": "function"
		},
		{
			"inputs": [
				{
					"internalType": "bytes32",
					"name": "ctx",
					"type": "bytes32"
				},
				{
					"internalType": "bytes32",
					"name": "role",
					"type": "bytes32"
				},
				{
					"internalType": "bytes4",
					"name": "functionSelector",
					"type": "bytes4"
				}
			],
			"name": "hasContextRole",
			"outputs": [
				{
					"internalType": "bool",
					"name": "",
					"type": "bool"
				}
			],
			"stateMutability": "view",
			"type": "function"
		},
		{
			"inputs": [
				{
					"internalType": "bytes32",
					"name": "group",
					"type": "bytes32"
				},
				{
					"internalType": "bytes32",
					"name": "role",
					"type": "bytes32"
				}
			],
			"name": "hasGroupRole",
			"outputs": [
				{
					"internalType": "bool",
					"name": "",
					"type": "bool"
				}
			],
			"stateMutability": "view",
			"type": "function"
		},
		{
			"inputs": [
				{
					"internalType": "address",
					"name": "account",
					"type": "address"
				}
			],
			"name": "hasLivelyAdminRole",
			"outputs": [
				{
					"internalType": "bool",
					"name": "",
					"type": "bool"
				}
			],
			"stateMutability": "view",
			"type": "function"
		},
		{
			"inputs": [
				{
					"internalType": "bytes32",
					"name": "role",
					"type": "bytes32"
				}
			],
			"name": "hasLivelyGroup",
			"outputs": [
				{
					"internalType": "bool",
					"name": "",
					"type": "bool"
				}
			],
			"stateMutability": "view",
			"type": "function"
		},
		{
			"inputs": [
				{
					"internalType": "bytes32",
					"name": "context",
					"type": "bytes32"
				}
			],
			"name": "hasLivelyRealm",
			"outputs": [
				{
					"internalType": "bool",
					"name": "",
					"type": "bool"
				}
			],
			"stateMutability": "view",
			"type": "function"
		},
		{
			"inputs": [
				{
					"internalType": "bytes32",
					"name": "realm",
					"type": "bytes32"
				},
				{
					"internalType": "bytes32",
					"name": "context",
					"type": "bytes32"
				}
			],
			"name": "hasRealmContext",
			"outputs": [
				{
					"internalType": "bool",
					"name": "",
					"type": "bool"
				}
			],
			"stateMutability": "view",
			"type": "function"
		},
		{
			"inputs": [
				{
					"internalType": "address",
					"name": "account",
					"type": "address"
				}
			],
			"name": "hasSystemAdminRole",
			"outputs": [
				{
					"internalType": "bool",
					"name": "",
					"type": "bool"
				}
			],
			"stateMutability": "view",
			"type": "function"
		},
		{
			"inputs": [],
			"name": "implementation",
			"outputs": [
				{
					"internalType": "address",
					"name": "",
					"type": "address"
				}
			],
			"stateMutability": "view",
			"type": "function"
		},
		{
			"inputs": [
				{
					"internalType": "string",
					"name": "domainName",
					"type": "string"
				},
				{
					"internalType": "string",
					"name": "domainVersion",
					"type": "string"
				},
				{
					"internalType": "string",
					"name": "domainRealm",
					"type": "string"
				},
				{
					"internalType": "address",
					"name": "acl",
					"type": "address"
				}
			],
			"name": "initialize",
			"outputs": [
				{
					"internalType": "bool",
					"name": "",
					"type": "bool"
				}
			],
			"stateMutability": "nonpayable",
			"type": "function"
		},
		{
			"inputs": [],
			"name": "isActivated",
			"outputs": [
				{
					"internalType": "bool",
					"name": "",
					"type": "bool"
				}
			],
			"stateMutability": "view",
			"type": "function"
		},
		{
			"inputs": [
				{
					"internalType": "bytes32",
					"name": "context",
					"type": "bytes32"
				}
			],
			"name": "isEnabled",
			"outputs": [
				{
					"internalType": "bool",
					"name": "",
					"type": "bool"
				}
			],
			"stateMutability": "view",
			"type": "function"
		},
		{
			"inputs": [],
			"name": "isUpgradable",
			"outputs": [
				{
					"internalType": "bool",
					"name": "",
					"type": "bool"
				}
			],
			"stateMutability": "view",
			"type": "function"
		},
		{
			"inputs": [
				{
					"internalType": "bytes32",
					"name": "context",
					"type": "bytes32"
				}
			],
			"name": "isUpgradeEnabled",
			"outputs": [
				{
					"internalType": "bool",
					"name": "",
					"type": "bool"
				}
			],
			"stateMutability": "view",
			"type": "function"
		},
		{
			"inputs": [],
			"name": "proxiableUUID",
			"outputs": [
				{
					"internalType": "bytes32",
					"name": "",
					"type": "bytes32"
				}
			],
			"stateMutability": "view",
			"type": "function"
		},
		{
			"inputs": [],
			"name": "registerContext",
			"outputs": [
				{
					"internalType": "bool",
					"name": "",
					"type": "bool"
				}
			],
			"stateMutability": "nonpayable",
			"type": "function"
		},
		{
			"inputs": [
				{
					"components": [
						{
							"internalType": "bytes32",
							"name": "realm",
							"type": "bytes32"
						},
						{
							"internalType": "address",
							"name": "smca",
							"type": "address"
						}
					],
					"internalType": "struct IContextManagement.RequestContext",
					"name": "rc",
					"type": "tuple"
				},
				{
					"components": [
						{
							"internalType": "bytes32",
							"name": "role",
							"type": "bytes32"
						},
						{
							"internalType": "bytes4[]",
							"name": "funcSelectors",
							"type": "bytes4[]"
						}
					],
					"internalType": "struct IContextManagement.RequestContextResource[]",
					"name": "rcr",
					"type": "tuple[]"
				}
			],
			"name": "registerContext",
			"outputs": [
				{
					"internalType": "bytes32",
					"name": "",
					"type": "bytes32"
				}
			],
			"stateMutability": "nonpayable",
			"type": "function"
		},
		{
			"inputs": [
				{
					"internalType": "bytes32",
					"name": "ctx",
					"type": "bytes32"
				},
				{
					"internalType": "bytes4",
					"name": "functionSelector",
					"type": "bytes4"
				},
				{
					"internalType": "bytes32",
					"name": "role",
					"type": "bytes32"
				}
			],
			"name": "revokeContextRole",
			"outputs": [
				{
					"internalType": "bool",
					"name": "",
					"type": "bool"
				}
			],
			"stateMutability": "nonpayable",
			"type": "function"
		},
		{
			"inputs": [
				{
					"internalType": "bytes32",
					"name": "group",
					"type": "bytes32"
				},
				{
					"internalType": "bytes32",
					"name": "role",
					"type": "bytes32"
				}
			],
			"name": "revokeGroupRole",
			"outputs": [
				{
					"internalType": "bool",
					"name": "",
					"type": "bool"
				}
			],
			"stateMutability": "nonpayable",
			"type": "function"
		},
		{
			"inputs": [
				{
					"internalType": "bytes32",
					"name": "realm",
					"type": "bytes32"
				},
				{
					"internalType": "bytes32",
					"name": "context",
					"type": "bytes32"
				}
			],
			"name": "revokeRealmContext",
			"outputs": [
				{
					"internalType": "bool",
					"name": "",
					"type": "bool"
				}
			],
			"stateMutability": "nonpayable",
			"type": "function"
		},
		{
			"inputs": [
				{
					"internalType": "bytes32",
					"name": "role",
					"type": "bytes32"
				},
				{
					"internalType": "address",
					"name": "account",
					"type": "address"
				}
			],
			"name": "revokeRoleAccount",
			"outputs": [
				{
					"internalType": "bool",
					"name": "",
					"type": "bool"
				}
			],
			"stateMutability": "nonpayable",
			"type": "function"
		},
		{
			"inputs": [
				{
					"internalType": "bool",
					"name": "value",
					"type": "bool"
				}
			],
			"name": "setActivity",
			"outputs": [
				{
					"internalType": "bool",
					"name": "",
					"type": "bool"
				}
			],
			"stateMutability": "nonpayable",
			"type": "function"
		},
		{
			"inputs": [
				{
					"internalType": "bytes32",
					"name": "role",
					"type": "bytes32"
				}
			],
			"name": "setDisabledRole",
			"outputs": [
				{
					"internalType": "bool",
					"name": "",
					"type": "bool"
				}
			],
			"stateMutability": "nonpayable",
			"type": "function"
		},
		{
			"inputs": [
				{
					"internalType": "bytes32",
					"name": "role",
					"type": "bytes32"
				}
			],
			"name": "setEnabledRole",
			"outputs": [
				{
					"internalType": "bool",
					"name": "",
					"type": "bool"
				}
			],
			"stateMutability": "nonpayable",
			"type": "function"
		},
		{
			"inputs": [
				{
					"internalType": "address",
					"name": "newAdmin",
					"type": "address"
				}
			],
			"name": "setProxyAdmin",
			"outputs": [
				{
					"internalType": "bool",
					"name": "",
					"type": "bool"
				}
			],
			"stateMutability": "nonpayable",
			"type": "function"
		},
		{
			"inputs": [
				{
					"internalType": "bool",
					"name": "value",
					"type": "bool"
				}
			],
			"name": "setUpgradability",
			"outputs": [
				{
					"internalType": "bool",
					"name": "",
					"type": "bool"
				}
			],
			"stateMutability": "nonpayable",
			"type": "function"
		},
		{
			"inputs": [],
			"name": "subjectContext",
			"outputs": [
				{
					"internalType": "bytes32",
					"name": "",
					"type": "bytes32"
				}
			],
			"stateMutability": "view",
			"type": "function"
		},
		{
			"inputs": [],
			"name": "subjectName",
			"outputs": [
				{
					"internalType": "string",
					"name": "",
					"type": "string"
				}
			],
			"stateMutability": "view",
			"type": "function"
		},
		{
			"inputs": [],
			"name": "subjectRealm",
			"outputs": [
				{
					"internalType": "string",
					"name": "",
					"type": "string"
				}
			],
			"stateMutability": "view",
			"type": "function"
		},
		{
			"inputs": [],
			"name": "subjectVersion",
			"outputs": [
				{
					"internalType": "string",
					"name": "",
					"type": "string"
				}
			],
			"stateMutability": "view",
			"type": "function"
		},
		{
			"inputs": [
				{
					"internalType": "bytes4",
					"name": "interfaceId",
					"type": "bytes4"
				}
			],
			"name": "supportsInterface",
			"outputs": [
				{
					"internalType": "bool",
					"name": "",
					"type": "bool"
				}
			],
			"stateMutability": "view",
			"type": "function"
		},
		{
			"inputs": [
				{
					"components": [
						{
							"internalType": "bytes32",
							"name": "realm",
							"type": "bytes32"
						},
						{
							"internalType": "address",
							"name": "smca",
							"type": "address"
						}
					],
					"internalType": "struct IContextManagement.RequestContext",
					"name": "rc",
					"type": "tuple"
				},
				{
					"components": [
						{
							"internalType": "bytes32",
							"name": "role",
							"type": "bytes32"
						},
						{
							"internalType": "bytes4[]",
							"name": "funcSelectors",
							"type": "bytes4[]"
						}
					],
					"internalType": "struct IContextManagement.RequestContextResource[]",
					"name": "rcr",
					"type": "tuple[]"
				}
			],
			"name": "updateContext",
			"outputs": [
				{
					"internalType": "bytes32",
					"name": "",
					"type": "bytes32"
				}
			],
			"stateMutability": "nonpayable",
			"type": "function"
		},
		{
			"inputs": [
				{
					"internalType": "address",
					"name": "newImplementation",
					"type": "address"
				},
				{
					"internalType": "bytes",
					"name": "data",
					"type": "bytes"
				},
				{
					"internalType": "bool",
					"name": "forceInitCall",
					"type": "bool"
				}
			],
			"name": "upgradeTo",
			"outputs": [
				{
					"internalType": "bytes",
					"name": "",
					"type": "bytes"
				}
			],
			"stateMutability": "nonpayable",
			"type": "function"
		},
		{
			"stateMutability": "payable",
			"type": "receive"
		}
	]
}