{
  "contractName": "LAccessControl",
  "sourceName": "src/contracts/lib/acl/LAccessControl.sol",
  "abi": [
    {
      "inputs": [],
      "name": "LIB_NAME",
      "outputs": [
        {
          "internalType": "string",
          "name": "",
          "type": "string"
        }
      ],
      "stateMutability": "view",
      "type": "function"
    },
    {
      "inputs": [],
      "name": "LIB_VERSION",
      "outputs": [
        {
          "internalType": "string",
          "name": "",
          "type": "string"
        }
      ],
      "stateMutability": "view",
      "type": "function"
    }
  ],
  "bytecode": "0x610b2d61003a600b82828239805160001a60731461002d57634e487b7160e01b600052600060045260246000fd5b30600052607381538281f3fe73000000000000000000000000000000000000000030146080604052600436106100565760003560e01c80632466209b1461005b57806359c893fc146100955780638439d9ba146100c5578063bec94751146100e7575b600080fd5b61007f604051806040016040528060058152602001640332e302e360dc1b81525081565b60405161008c919061091e565b60405180910390f35b8180156100a157600080fd5b506100b56100b036600461096c565b610114565b604051901515815260200161008c565b8180156100d157600080fd5b506100e56100e03660046109d6565b61062a565b005b61007f6040518060400160405280600e81526020016d131058d8d95cdcd0dbdb9d1c9bdb60921b81525081565b6000637a32793760e01b61012e6060840160408501610a02565b6001600160e01b0319161415806101655750635ee4c92f60e11b6101586060840160408501610a02565b6001600160e01b03191614155b8061019057506316f1515960e21b6101836060840160408501610a02565b6001600160e01b03191614155b806101bb57506374a80b8b60e11b6101ae6060840160408501610a02565b6001600160e01b03191614155b806101e65750632bcf237b60e21b6101d96060840160408501610a02565b6001600160e01b03191614155b80610211575063f7da362160e01b6102046060840160408501610a02565b6001600160e01b03191614155b8061023c5750635180e0f960e11b61022f6060840160408501610a02565b6001600160e01b03191614155b8061026757506351eb353f60e01b61025a6060840160408501610a02565b6001600160e01b03191614155b80610292575063fa07f5d760e01b6102856060840160408501610a02565b6001600160e01b03191614155b806102bd57506307a5204b60e01b6102b06060840160408501610a02565b6001600160e01b03191614155b6103045760405162461bcd60e51b8152602060048201526013602482015272125b1b1959d85b08125b9d195c999858d95259606a1b60448201526064015b60405180910390fd5b61031e6103146020840184610a2c565b600685019061089a565b156103615760405162461bcd60e51b8152602060048201526013602482015272119858d95d08105b1c9958591e48115e1a5cdd606a1b60448201526064016102fb565b61036e6020830183610a2c565b6001600160a01b03166301ffc9a761038c6060850160408601610a02565b6040516001600160e01b031960e084901b81168252919091166004820152602401602060405180830381865afa1580156103ca573d6000803e3d6000fd5b505050506040513d601f19601f820116820180604052508101906103ee9190610a47565b61042e5760405162461bcd60e51b8152602060048201526011602482015270496c6c6567616c20496e7465726661636560781b60448201526064016102fb565b60005b61043e6060840184610a69565b9050811015610573576000600485018161045b6060870187610a69565b8581811061046b5761046b610aba565b90506020020160208101906104809190610a02565b6001600160e01b03191681526020810191909152604001600020546001600160a01b0316146104e45760405162461bcd60e51b815260206004820152601060248201526f24b63632b3b0b61029b2b632b1ba37b960811b60448201526064016102fb565b6104f16020840184610a2c565b6004850160006105046060870187610a69565b8581811061051457610514610aba565b90506020020160208101906105299190610a02565b6001600160e01b0319168152602081019190915260400160002080546001600160a01b0319166001600160a01b03929092169190911790558061056b81610ad0565b915050610431565b5061058e6105846020840184610a2c565b60068501906108bf565b50600060058401816105a36020860186610a2c565b6001600160a01b03166001600160a01b0316815260200190815260200160002090508260200160208101906105d89190610a2c565b81546001600160a01b0319166001600160a01b03919091161781556106036060840160408501610a02565b815460e09190911c600160a01b0263ffffffff60a01b199091161790555060015b92915050565b61063760068301306108bf565b50306000818152600584016020908152604080832080546001600160a01b03969096166001600160c01b0319909616959095176317ebd95d60a21b17909455637147855d60e01b8252600490940190935281832080546001600160a01b03199081168317909155630f708ceb60e41b84528284208054821683179055630733adc760e31b8452828420805482168317905563d9dc1f1960e01b8452828420805482168317905563071965c360e11b84528284208054821683179055631d74303760e21b84528284208054821683179055630505472360e51b8452828420805482168317905563b4a0bdf360e01b845282842080548216831790556358dbc45d60e01b8452828420805482168317905563a304e35360e01b84528284208054821683179055633eeb4da160e21b8452828420805482168317905563f94a0adb60e01b8452828420805482168317905563f698da2560e01b845282842080548216831790556338d38c9760e01b8452828420805482168317905563d49e164d60e01b8452828420805482168317905563756af45f60e01b845282842080548216831790556301ffc9a760e01b84528284208054821683179055630fa0156160e11b84528284208054821683179055632195733760e11b845282842080548216831790556278b53b60e31b845282842080548216831790556352d1902d60e01b8452828420805482168317905563266c45bb60e11b84528284208054821683179055630a97193160e31b84528284208054821683179055632c4b4fff60e01b84528284208054821683179055633b3c491760e11b84529190922080549091169091179055565b6001600160a01b038116600090815260018301602052604081205415155b9392505050565b60006108b8836001600160a01b038416600081815260018301602052604081205461091657508154600181810184556000848152602080822090930184905584548482528286019093526040902091909155610624565b506000610624565b600060208083528351808285015260005b8181101561094b5785810183015185820160400152820161092f565b506000604082860101526040601f19601f8301168501019250505092915050565b6000806040838503121561097f57600080fd5b82359150602083013567ffffffffffffffff81111561099d57600080fd5b8301608081860312156109af57600080fd5b809150509250929050565b80356001600160a01b03811681146109d157600080fd5b919050565b600080604083850312156109e957600080fd5b823591506109f9602084016109ba565b90509250929050565b600060208284031215610a1457600080fd5b81356001600160e01b0319811681146108b857600080fd5b600060208284031215610a3e57600080fd5b6108b8826109ba565b600060208284031215610a5957600080fd5b815180151581146108b857600080fd5b6000808335601e19843603018112610a8057600080fd5b83018035915067ffffffffffffffff821115610a9b57600080fd5b6020019150600581901b3603821315610ab357600080fd5b9250929050565b634e487b7160e01b600052603260045260246000fd5b600060018201610af057634e487b7160e01b600052601160045260246000fd5b506001019056fea2646970667358221220c1128eea33dbaf35bc4ab9582bb0162bc46fb3f2754f6d717e83e1ed56e45e5c64736f6c63430008110033",
  "linkReferences": {},
  "deployedLinkReferences": {},
  "devdoc": {
    "author": "Sina Tadayon, https://github.com/SinaTadayon",
    "kind": "dev",
    "methods": {},
    "title": "Access Control Library",
    "version": 1
  },
  "evm": {
    "bytecode": {
      "linkReferences": {},
      "opcodes": "PUSH2 0xB2D PUSH2 0x3A PUSH1 0xB DUP3 DUP3 DUP3 CODECOPY DUP1 MLOAD PUSH1 0x0 BYTE PUSH1 0x73 EQ PUSH2 0x2D JUMPI PUSH4 0x4E487B71 PUSH1 0xE0 SHL PUSH1 0x0 MSTORE PUSH1 0x0 PUSH1 0x4 MSTORE PUSH1 0x24 PUSH1 0x0 REVERT JUMPDEST ADDRESS PUSH1 0x0 MSTORE PUSH1 0x73 DUP2 MSTORE8 DUP3 DUP2 RETURN INVALID PUSH20 0x0 ADDRESS EQ PUSH1 0x80 PUSH1 0x40 MSTORE PUSH1 0x4 CALLDATASIZE LT PUSH2 0x56 JUMPI PUSH1 0x0 CALLDATALOAD PUSH1 0xE0 SHR DUP1 PUSH4 0x2466209B EQ PUSH2 0x5B JUMPI DUP1 PUSH4 0x59C893FC EQ PUSH2 0x95 JUMPI DUP1 PUSH4 0x8439D9BA EQ PUSH2 0xC5 JUMPI DUP1 PUSH4 0xBEC94751 EQ PUSH2 0xE7 JUMPI JUMPDEST PUSH1 0x0 DUP1 REVERT JUMPDEST PUSH2 0x7F PUSH1 0x40 MLOAD DUP1 PUSH1 0x40 ADD PUSH1 0x40 MSTORE DUP1 PUSH1 0x5 DUP2 MSTORE PUSH1 0x20 ADD PUSH5 0x332E302E3 PUSH1 0xDC SHL DUP2 MSTORE POP DUP2 JUMP JUMPDEST PUSH1 0x40 MLOAD PUSH2 0x8C SWAP2 SWAP1 PUSH2 0x91E JUMP JUMPDEST PUSH1 0x40 MLOAD DUP1 SWAP2 SUB SWAP1 RETURN JUMPDEST DUP2 DUP1 ISZERO PUSH2 0xA1 JUMPI PUSH1 0x0 DUP1 REVERT JUMPDEST POP PUSH2 0xB5 PUSH2 0xB0 CALLDATASIZE PUSH1 0x4 PUSH2 0x96C JUMP JUMPDEST PUSH2 0x114 JUMP JUMPDEST PUSH1 0x40 MLOAD SWAP1 ISZERO ISZERO DUP2 MSTORE PUSH1 0x20 ADD PUSH2 0x8C JUMP JUMPDEST DUP2 DUP1 ISZERO PUSH2 0xD1 JUMPI PUSH1 0x0 DUP1 REVERT JUMPDEST POP PUSH2 0xE5 PUSH2 0xE0 CALLDATASIZE PUSH1 0x4 PUSH2 0x9D6 JUMP JUMPDEST PUSH2 0x62A JUMP JUMPDEST STOP JUMPDEST PUSH2 0x7F PUSH1 0x40 MLOAD DUP1 PUSH1 0x40 ADD PUSH1 0x40 MSTORE DUP1 PUSH1 0xE DUP2 MSTORE PUSH1 0x20 ADD PUSH14 0x131058D8D95CDCD0DBDB9D1C9BDB PUSH1 0x92 SHL DUP2 MSTORE POP DUP2 JUMP JUMPDEST PUSH1 0x0 PUSH4 0x7A327937 PUSH1 0xE0 SHL PUSH2 0x12E PUSH1 0x60 DUP5 ADD PUSH1 0x40 DUP6 ADD PUSH2 0xA02 JUMP JUMPDEST PUSH1 0x1 PUSH1 0x1 PUSH1 0xE0 SHL SUB NOT AND EQ ISZERO DUP1 PUSH2 0x165 JUMPI POP PUSH4 0x5EE4C92F PUSH1 0xE1 SHL PUSH2 0x158 PUSH1 0x60 DUP5 ADD PUSH1 0x40 DUP6 ADD PUSH2 0xA02 JUMP JUMPDEST PUSH1 0x1 PUSH1 0x1 PUSH1 0xE0 SHL SUB NOT AND EQ ISZERO JUMPDEST DUP1 PUSH2 0x190 JUMPI POP PUSH4 0x16F15159 PUSH1 0xE2 SHL PUSH2 0x183 PUSH1 0x60 DUP5 ADD PUSH1 0x40 DUP6 ADD PUSH2 0xA02 JUMP JUMPDEST PUSH1 0x1 PUSH1 0x1 PUSH1 0xE0 SHL SUB NOT AND EQ ISZERO JUMPDEST DUP1 PUSH2 0x1BB JUMPI POP PUSH4 0x74A80B8B PUSH1 0xE1 SHL PUSH2 0x1AE PUSH1 0x60 DUP5 ADD PUSH1 0x40 DUP6 ADD PUSH2 0xA02 JUMP JUMPDEST PUSH1 0x1 PUSH1 0x1 PUSH1 0xE0 SHL SUB NOT AND EQ ISZERO JUMPDEST DUP1 PUSH2 0x1E6 JUMPI POP PUSH4 0x2BCF237B PUSH1 0xE2 SHL PUSH2 0x1D9 PUSH1 0x60 DUP5 ADD PUSH1 0x40 DUP6 ADD PUSH2 0xA02 JUMP JUMPDEST PUSH1 0x1 PUSH1 0x1 PUSH1 0xE0 SHL SUB NOT AND EQ ISZERO JUMPDEST DUP1 PUSH2 0x211 JUMPI POP PUSH4 0xF7DA3621 PUSH1 0xE0 SHL PUSH2 0x204 PUSH1 0x60 DUP5 ADD PUSH1 0x40 DUP6 ADD PUSH2 0xA02 JUMP JUMPDEST PUSH1 0x1 PUSH1 0x1 PUSH1 0xE0 SHL SUB NOT AND EQ ISZERO JUMPDEST DUP1 PUSH2 0x23C JUMPI POP PUSH4 0x5180E0F9 PUSH1 0xE1 SHL PUSH2 0x22F PUSH1 0x60 DUP5 ADD PUSH1 0x40 DUP6 ADD PUSH2 0xA02 JUMP JUMPDEST PUSH1 0x1 PUSH1 0x1 PUSH1 0xE0 SHL SUB NOT AND EQ ISZERO JUMPDEST DUP1 PUSH2 0x267 JUMPI POP PUSH4 0x51EB353F PUSH1 0xE0 SHL PUSH2 0x25A PUSH1 0x60 DUP5 ADD PUSH1 0x40 DUP6 ADD PUSH2 0xA02 JUMP JUMPDEST PUSH1 0x1 PUSH1 0x1 PUSH1 0xE0 SHL SUB NOT AND EQ ISZERO JUMPDEST DUP1 PUSH2 0x292 JUMPI POP PUSH4 0xFA07F5D7 PUSH1 0xE0 SHL PUSH2 0x285 PUSH1 0x60 DUP5 ADD PUSH1 0x40 DUP6 ADD PUSH2 0xA02 JUMP JUMPDEST PUSH1 0x1 PUSH1 0x1 PUSH1 0xE0 SHL SUB NOT AND EQ ISZERO JUMPDEST DUP1 PUSH2 0x2BD JUMPI POP PUSH4 0x7A5204B PUSH1 0xE0 SHL PUSH2 0x2B0 PUSH1 0x60 DUP5 ADD PUSH1 0x40 DUP6 ADD PUSH2 0xA02 JUMP JUMPDEST PUSH1 0x1 PUSH1 0x1 PUSH1 0xE0 SHL SUB NOT AND EQ ISZERO JUMPDEST PUSH2 0x304 JUMPI PUSH1 0x40 MLOAD PUSH3 0x461BCD PUSH1 0xE5 SHL DUP2 MSTORE PUSH1 0x20 PUSH1 0x4 DUP3 ADD MSTORE PUSH1 0x13 PUSH1 0x24 DUP3 ADD MSTORE PUSH19 0x125B1B1959D85B08125B9D195C999858D95259 PUSH1 0x6A SHL PUSH1 0x44 DUP3 ADD MSTORE PUSH1 0x64 ADD JUMPDEST PUSH1 0x40 MLOAD DUP1 SWAP2 SUB SWAP1 REVERT JUMPDEST PUSH2 0x31E PUSH2 0x314 PUSH1 0x20 DUP5 ADD DUP5 PUSH2 0xA2C JUMP JUMPDEST PUSH1 0x6 DUP6 ADD SWAP1 PUSH2 0x89A JUMP JUMPDEST ISZERO PUSH2 0x361 JUMPI PUSH1 0x40 MLOAD PUSH3 0x461BCD PUSH1 0xE5 SHL DUP2 MSTORE PUSH1 0x20 PUSH1 0x4 DUP3 ADD MSTORE PUSH1 0x13 PUSH1 0x24 DUP3 ADD MSTORE PUSH19 0x119858D95D08105B1C9958591E48115E1A5CDD PUSH1 0x6A SHL PUSH1 0x44 DUP3 ADD MSTORE PUSH1 0x64 ADD PUSH2 0x2FB JUMP JUMPDEST PUSH2 0x36E PUSH1 0x20 DUP4 ADD DUP4 PUSH2 0xA2C JUMP JUMPDEST PUSH1 0x1 PUSH1 0x1 PUSH1 0xA0 SHL SUB AND PUSH4 0x1FFC9A7 PUSH2 0x38C PUSH1 0x60 DUP6 ADD PUSH1 0x40 DUP7 ADD PUSH2 0xA02 JUMP JUMPDEST PUSH1 0x40 MLOAD PUSH1 0x1 PUSH1 0x1 PUSH1 0xE0 SHL SUB NOT PUSH1 0xE0 DUP5 SWAP1 SHL DUP2 AND DUP3 MSTORE SWAP2 SWAP1 SWAP2 AND PUSH1 0x4 DUP3 ADD MSTORE PUSH1 0x24 ADD PUSH1 0x20 PUSH1 0x40 MLOAD DUP1 DUP4 SUB DUP2 DUP7 GAS STATICCALL ISZERO DUP1 ISZERO PUSH2 0x3CA JUMPI RETURNDATASIZE PUSH1 0x0 DUP1 RETURNDATACOPY RETURNDATASIZE PUSH1 0x0 REVERT JUMPDEST POP POP POP POP PUSH1 0x40 MLOAD RETURNDATASIZE PUSH1 0x1F NOT PUSH1 0x1F DUP3 ADD AND DUP3 ADD DUP1 PUSH1 0x40 MSTORE POP DUP2 ADD SWAP1 PUSH2 0x3EE SWAP2 SWAP1 PUSH2 0xA47 JUMP JUMPDEST PUSH2 0x42E JUMPI PUSH1 0x40 MLOAD PUSH3 0x461BCD PUSH1 0xE5 SHL DUP2 MSTORE PUSH1 0x20 PUSH1 0x4 DUP3 ADD MSTORE PUSH1 0x11 PUSH1 0x24 DUP3 ADD MSTORE PUSH17 0x496C6C6567616C20496E74657266616365 PUSH1 0x78 SHL PUSH1 0x44 DUP3 ADD MSTORE PUSH1 0x64 ADD PUSH2 0x2FB JUMP JUMPDEST PUSH1 0x0 JUMPDEST PUSH2 0x43E PUSH1 0x60 DUP5 ADD DUP5 PUSH2 0xA69 JUMP JUMPDEST SWAP1 POP DUP2 LT ISZERO PUSH2 0x573 JUMPI PUSH1 0x0 PUSH1 0x4 DUP6 ADD DUP2 PUSH2 0x45B PUSH1 0x60 DUP8 ADD DUP8 PUSH2 0xA69 JUMP JUMPDEST DUP6 DUP2 DUP2 LT PUSH2 0x46B JUMPI PUSH2 0x46B PUSH2 0xABA JUMP JUMPDEST SWAP1 POP PUSH1 0x20 MUL ADD PUSH1 0x20 DUP2 ADD SWAP1 PUSH2 0x480 SWAP2 SWAP1 PUSH2 0xA02 JUMP JUMPDEST PUSH1 0x1 PUSH1 0x1 PUSH1 0xE0 SHL SUB NOT AND DUP2 MSTORE PUSH1 0x20 DUP2 ADD SWAP2 SWAP1 SWAP2 MSTORE PUSH1 0x40 ADD PUSH1 0x0 KECCAK256 SLOAD PUSH1 0x1 PUSH1 0x1 PUSH1 0xA0 SHL SUB AND EQ PUSH2 0x4E4 JUMPI PUSH1 0x40 MLOAD PUSH3 0x461BCD PUSH1 0xE5 SHL DUP2 MSTORE PUSH1 0x20 PUSH1 0x4 DUP3 ADD MSTORE PUSH1 0x10 PUSH1 0x24 DUP3 ADD MSTORE PUSH16 0x24B63632B3B0B61029B2B632B1BA37B9 PUSH1 0x81 SHL PUSH1 0x44 DUP3 ADD MSTORE PUSH1 0x64 ADD PUSH2 0x2FB JUMP JUMPDEST PUSH2 0x4F1 PUSH1 0x20 DUP5 ADD DUP5 PUSH2 0xA2C JUMP JUMPDEST PUSH1 0x4 DUP6 ADD PUSH1 0x0 PUSH2 0x504 PUSH1 0x60 DUP8 ADD DUP8 PUSH2 0xA69 JUMP JUMPDEST DUP6 DUP2 DUP2 LT PUSH2 0x514 JUMPI PUSH2 0x514 PUSH2 0xABA JUMP JUMPDEST SWAP1 POP PUSH1 0x20 MUL ADD PUSH1 0x20 DUP2 ADD SWAP1 PUSH2 0x529 SWAP2 SWAP1 PUSH2 0xA02 JUMP JUMPDEST PUSH1 0x1 PUSH1 0x1 PUSH1 0xE0 SHL SUB NOT AND DUP2 MSTORE PUSH1 0x20 DUP2 ADD SWAP2 SWAP1 SWAP2 MSTORE PUSH1 0x40 ADD PUSH1 0x0 KECCAK256 DUP1 SLOAD PUSH1 0x1 PUSH1 0x1 PUSH1 0xA0 SHL SUB NOT AND PUSH1 0x1 PUSH1 0x1 PUSH1 0xA0 SHL SUB SWAP3 SWAP1 SWAP3 AND SWAP2 SWAP1 SWAP2 OR SWAP1 SSTORE DUP1 PUSH2 0x56B DUP2 PUSH2 0xAD0 JUMP JUMPDEST SWAP2 POP POP PUSH2 0x431 JUMP JUMPDEST POP PUSH2 0x58E PUSH2 0x584 PUSH1 0x20 DUP5 ADD DUP5 PUSH2 0xA2C JUMP JUMPDEST PUSH1 0x6 DUP6 ADD SWAP1 PUSH2 0x8BF JUMP JUMPDEST POP PUSH1 0x0 PUSH1 0x5 DUP5 ADD DUP2 PUSH2 0x5A3 PUSH1 0x20 DUP7 ADD DUP7 PUSH2 0xA2C JUMP JUMPDEST PUSH1 0x1 PUSH1 0x1 PUSH1 0xA0 SHL SUB AND PUSH1 0x1 PUSH1 0x1 PUSH1 0xA0 SHL SUB AND DUP2 MSTORE PUSH1 0x20 ADD SWAP1 DUP2 MSTORE PUSH1 0x20 ADD PUSH1 0x0 KECCAK256 SWAP1 POP DUP3 PUSH1 0x20 ADD PUSH1 0x20 DUP2 ADD SWAP1 PUSH2 0x5D8 SWAP2 SWAP1 PUSH2 0xA2C JUMP JUMPDEST DUP2 SLOAD PUSH1 0x1 PUSH1 0x1 PUSH1 0xA0 SHL SUB NOT AND PUSH1 0x1 PUSH1 0x1 PUSH1 0xA0 SHL SUB SWAP2 SWAP1 SWAP2 AND OR DUP2 SSTORE PUSH2 0x603 PUSH1 0x60 DUP5 ADD PUSH1 0x40 DUP6 ADD PUSH2 0xA02 JUMP JUMPDEST DUP2 SLOAD PUSH1 0xE0 SWAP2 SWAP1 SWAP2 SHR PUSH1 0x1 PUSH1 0xA0 SHL MUL PUSH4 0xFFFFFFFF PUSH1 0xA0 SHL NOT SWAP1 SWAP2 AND OR SWAP1 SSTORE POP PUSH1 0x1 JUMPDEST SWAP3 SWAP2 POP POP JUMP JUMPDEST PUSH2 0x637 PUSH1 0x6 DUP4 ADD ADDRESS PUSH2 0x8BF JUMP JUMPDEST POP ADDRESS PUSH1 0x0 DUP2 DUP2 MSTORE PUSH1 0x5 DUP5 ADD PUSH1 0x20 SWAP1 DUP2 MSTORE PUSH1 0x40 DUP1 DUP4 KECCAK256 DUP1 SLOAD PUSH1 0x1 PUSH1 0x1 PUSH1 0xA0 SHL SUB SWAP7 SWAP1 SWAP7 AND PUSH1 0x1 PUSH1 0x1 PUSH1 0xC0 SHL SUB NOT SWAP1 SWAP7 AND SWAP6 SWAP1 SWAP6 OR PUSH4 0x17EBD95D PUSH1 0xA2 SHL OR SWAP1 SWAP5 SSTORE PUSH4 0x7147855D PUSH1 0xE0 SHL DUP3 MSTORE PUSH1 0x4 SWAP1 SWAP5 ADD SWAP1 SWAP4 MSTORE DUP2 DUP4 KECCAK256 DUP1 SLOAD PUSH1 0x1 PUSH1 0x1 PUSH1 0xA0 SHL SUB NOT SWAP1 DUP2 AND DUP4 OR SWAP1 SWAP2 SSTORE PUSH4 0xF708CEB PUSH1 0xE4 SHL DUP5 MSTORE DUP3 DUP5 KECCAK256 DUP1 SLOAD DUP3 AND DUP4 OR SWAP1 SSTORE PUSH4 0x733ADC7 PUSH1 0xE3 SHL DUP5 MSTORE DUP3 DUP5 KECCAK256 DUP1 SLOAD DUP3 AND DUP4 OR SWAP1 SSTORE PUSH4 0xD9DC1F19 PUSH1 0xE0 SHL DUP5 MSTORE DUP3 DUP5 KECCAK256 DUP1 SLOAD DUP3 AND DUP4 OR SWAP1 SSTORE PUSH4 0x71965C3 PUSH1 0xE1 SHL DUP5 MSTORE DUP3 DUP5 KECCAK256 DUP1 SLOAD DUP3 AND DUP4 OR SWAP1 SSTORE PUSH4 0x1D743037 PUSH1 0xE2 SHL DUP5 MSTORE DUP3 DUP5 KECCAK256 DUP1 SLOAD DUP3 AND DUP4 OR SWAP1 SSTORE PUSH4 0x5054723 PUSH1 0xE5 SHL DUP5 MSTORE DUP3 DUP5 KECCAK256 DUP1 SLOAD DUP3 AND DUP4 OR SWAP1 SSTORE PUSH4 0xB4A0BDF3 PUSH1 0xE0 SHL DUP5 MSTORE DUP3 DUP5 KECCAK256 DUP1 SLOAD DUP3 AND DUP4 OR SWAP1 SSTORE PUSH4 0x58DBC45D PUSH1 0xE0 SHL DUP5 MSTORE DUP3 DUP5 KECCAK256 DUP1 SLOAD DUP3 AND DUP4 OR SWAP1 SSTORE PUSH4 0xA304E353 PUSH1 0xE0 SHL DUP5 MSTORE DUP3 DUP5 KECCAK256 DUP1 SLOAD DUP3 AND DUP4 OR SWAP1 SSTORE PUSH4 0x3EEB4DA1 PUSH1 0xE2 SHL DUP5 MSTORE DUP3 DUP5 KECCAK256 DUP1 SLOAD DUP3 AND DUP4 OR SWAP1 SSTORE PUSH4 0xF94A0ADB PUSH1 0xE0 SHL DUP5 MSTORE DUP3 DUP5 KECCAK256 DUP1 SLOAD DUP3 AND DUP4 OR SWAP1 SSTORE PUSH4 0xF698DA25 PUSH1 0xE0 SHL DUP5 MSTORE DUP3 DUP5 KECCAK256 DUP1 SLOAD DUP3 AND DUP4 OR SWAP1 SSTORE PUSH4 0x38D38C97 PUSH1 0xE0 SHL DUP5 MSTORE DUP3 DUP5 KECCAK256 DUP1 SLOAD DUP3 AND DUP4 OR SWAP1 SSTORE PUSH4 0xD49E164D PUSH1 0xE0 SHL DUP5 MSTORE DUP3 DUP5 KECCAK256 DUP1 SLOAD DUP3 AND DUP4 OR SWAP1 SSTORE PUSH4 0x756AF45F PUSH1 0xE0 SHL DUP5 MSTORE DUP3 DUP5 KECCAK256 DUP1 SLOAD DUP3 AND DUP4 OR SWAP1 SSTORE PUSH4 0x1FFC9A7 PUSH1 0xE0 SHL DUP5 MSTORE DUP3 DUP5 KECCAK256 DUP1 SLOAD DUP3 AND DUP4 OR SWAP1 SSTORE PUSH4 0xFA01561 PUSH1 0xE1 SHL DUP5 MSTORE DUP3 DUP5 KECCAK256 DUP1 SLOAD DUP3 AND DUP4 OR SWAP1 SSTORE PUSH4 0x21957337 PUSH1 0xE1 SHL DUP5 MSTORE DUP3 DUP5 KECCAK256 DUP1 SLOAD DUP3 AND DUP4 OR SWAP1 SSTORE PUSH3 0x78B53B PUSH1 0xE3 SHL DUP5 MSTORE DUP3 DUP5 KECCAK256 DUP1 SLOAD DUP3 AND DUP4 OR SWAP1 SSTORE PUSH4 0x52D1902D PUSH1 0xE0 SHL DUP5 MSTORE DUP3 DUP5 KECCAK256 DUP1 SLOAD DUP3 AND DUP4 OR SWAP1 SSTORE PUSH4 0x266C45BB PUSH1 0xE1 SHL DUP5 MSTORE DUP3 DUP5 KECCAK256 DUP1 SLOAD DUP3 AND DUP4 OR SWAP1 SSTORE PUSH4 0xA971931 PUSH1 0xE3 SHL DUP5 MSTORE DUP3 DUP5 KECCAK256 DUP1 SLOAD DUP3 AND DUP4 OR SWAP1 SSTORE PUSH4 0x2C4B4FFF PUSH1 0xE0 SHL DUP5 MSTORE DUP3 DUP5 KECCAK256 DUP1 SLOAD DUP3 AND DUP4 OR SWAP1 SSTORE PUSH4 0x3B3C4917 PUSH1 0xE1 SHL DUP5 MSTORE SWAP2 SWAP1 SWAP3 KECCAK256 DUP1 SLOAD SWAP1 SWAP2 AND SWAP1 SWAP2 OR SWAP1 SSTORE JUMP JUMPDEST PUSH1 0x1 PUSH1 0x1 PUSH1 0xA0 SHL SUB DUP2 AND PUSH1 0x0 SWAP1 DUP2 MSTORE PUSH1 0x1 DUP4 ADD PUSH1 0x20 MSTORE PUSH1 0x40 DUP2 KECCAK256 SLOAD ISZERO ISZERO JUMPDEST SWAP4 SWAP3 POP POP POP JUMP JUMPDEST PUSH1 0x0 PUSH2 0x8B8 DUP4 PUSH1 0x1 PUSH1 0x1 PUSH1 0xA0 SHL SUB DUP5 AND PUSH1 0x0 DUP2 DUP2 MSTORE PUSH1 0x1 DUP4 ADD PUSH1 0x20 MSTORE PUSH1 0x40 DUP2 KECCAK256 SLOAD PUSH2 0x916 JUMPI POP DUP2 SLOAD PUSH1 0x1 DUP2 DUP2 ADD DUP5 SSTORE PUSH1 0x0 DUP5 DUP2 MSTORE PUSH1 0x20 DUP1 DUP3 KECCAK256 SWAP1 SWAP4 ADD DUP5 SWAP1 SSTORE DUP5 SLOAD DUP5 DUP3 MSTORE DUP3 DUP7 ADD SWAP1 SWAP4 MSTORE PUSH1 0x40 SWAP1 KECCAK256 SWAP2 SWAP1 SWAP2 SSTORE PUSH2 0x624 JUMP JUMPDEST POP PUSH1 0x0 PUSH2 0x624 JUMP JUMPDEST PUSH1 0x0 PUSH1 0x20 DUP1 DUP4 MSTORE DUP4 MLOAD DUP1 DUP3 DUP6 ADD MSTORE PUSH1 0x0 JUMPDEST DUP2 DUP2 LT ISZERO PUSH2 0x94B JUMPI DUP6 DUP2 ADD DUP4 ADD MLOAD DUP6 DUP3 ADD PUSH1 0x40 ADD MSTORE DUP3 ADD PUSH2 0x92F JUMP JUMPDEST POP PUSH1 0x0 PUSH1 0x40 DUP3 DUP7 ADD ADD MSTORE PUSH1 0x40 PUSH1 0x1F NOT PUSH1 0x1F DUP4 ADD AND DUP6 ADD ADD SWAP3 POP POP POP SWAP3 SWAP2 POP POP JUMP JUMPDEST PUSH1 0x0 DUP1 PUSH1 0x40 DUP4 DUP6 SUB SLT ISZERO PUSH2 0x97F JUMPI PUSH1 0x0 DUP1 REVERT JUMPDEST DUP3 CALLDATALOAD SWAP2 POP PUSH1 0x20 DUP4 ADD CALLDATALOAD PUSH8 0xFFFFFFFFFFFFFFFF DUP2 GT ISZERO PUSH2 0x99D JUMPI PUSH1 0x0 DUP1 REVERT JUMPDEST DUP4 ADD PUSH1 0x80 DUP2 DUP7 SUB SLT ISZERO PUSH2 0x9AF JUMPI PUSH1 0x0 DUP1 REVERT JUMPDEST DUP1 SWAP2 POP POP SWAP3 POP SWAP3 SWAP1 POP JUMP JUMPDEST DUP1 CALLDATALOAD PUSH1 0x1 PUSH1 0x1 PUSH1 0xA0 SHL SUB DUP2 AND DUP2 EQ PUSH2 0x9D1 JUMPI PUSH1 0x0 DUP1 REVERT JUMPDEST SWAP2 SWAP1 POP JUMP JUMPDEST PUSH1 0x0 DUP1 PUSH1 0x40 DUP4 DUP6 SUB SLT ISZERO PUSH2 0x9E9 JUMPI PUSH1 0x0 DUP1 REVERT JUMPDEST DUP3 CALLDATALOAD SWAP2 POP PUSH2 0x9F9 PUSH1 0x20 DUP5 ADD PUSH2 0x9BA JUMP JUMPDEST SWAP1 POP SWAP3 POP SWAP3 SWAP1 POP JUMP JUMPDEST PUSH1 0x0 PUSH1 0x20 DUP3 DUP5 SUB SLT ISZERO PUSH2 0xA14 JUMPI PUSH1 0x0 DUP1 REVERT JUMPDEST DUP2 CALLDATALOAD PUSH1 0x1 PUSH1 0x1 PUSH1 0xE0 SHL SUB NOT DUP2 AND DUP2 EQ PUSH2 0x8B8 JUMPI PUSH1 0x0 DUP1 REVERT JUMPDEST PUSH1 0x0 PUSH1 0x20 DUP3 DUP5 SUB SLT ISZERO PUSH2 0xA3E JUMPI PUSH1 0x0 DUP1 REVERT JUMPDEST PUSH2 0x8B8 DUP3 PUSH2 0x9BA JUMP JUMPDEST PUSH1 0x0 PUSH1 0x20 DUP3 DUP5 SUB SLT ISZERO PUSH2 0xA59 JUMPI PUSH1 0x0 DUP1 REVERT JUMPDEST DUP2 MLOAD DUP1 ISZERO ISZERO DUP2 EQ PUSH2 0x8B8 JUMPI PUSH1 0x0 DUP1 REVERT JUMPDEST PUSH1 0x0 DUP1 DUP4 CALLDATALOAD PUSH1 0x1E NOT DUP5 CALLDATASIZE SUB ADD DUP2 SLT PUSH2 0xA80 JUMPI PUSH1 0x0 DUP1 REVERT JUMPDEST DUP4 ADD DUP1 CALLDATALOAD SWAP2 POP PUSH8 0xFFFFFFFFFFFFFFFF DUP3 GT ISZERO PUSH2 0xA9B JUMPI PUSH1 0x0 DUP1 REVERT JUMPDEST PUSH1 0x20 ADD SWAP2 POP PUSH1 0x5 DUP2 SWAP1 SHL CALLDATASIZE SUB DUP3 SGT ISZERO PUSH2 0xAB3 JUMPI PUSH1 0x0 DUP1 REVERT JUMPDEST SWAP3 POP SWAP3 SWAP1 POP JUMP JUMPDEST PUSH4 0x4E487B71 PUSH1 0xE0 SHL PUSH1 0x0 MSTORE PUSH1 0x32 PUSH1 0x4 MSTORE PUSH1 0x24 PUSH1 0x0 REVERT JUMPDEST PUSH1 0x0 PUSH1 0x1 DUP3 ADD PUSH2 0xAF0 JUMPI PUSH4 0x4E487B71 PUSH1 0xE0 SHL PUSH1 0x0 MSTORE PUSH1 0x11 PUSH1 0x4 MSTORE PUSH1 0x24 PUSH1 0x0 REVERT JUMPDEST POP PUSH1 0x1 ADD SWAP1 JUMP INVALID LOG2 PUSH5 0x6970667358 0x22 SLT KECCAK256 0xC1 SLT DUP15 0xEA CALLER 0xDB 0xAF CALLDATALOAD 0xBC 0x4A 0xB9 PC 0x2B 0xB0 AND 0x2B 0xC4 PUSH16 0xB3F2754F6D717E83E1ED56E45E5C6473 PUSH16 0x6C634300081100330000000000000000 "
    },
    "gasEstimates": {
      "creation": {
        "codeDepositCost": "572200",
        "executionCost": "637",
        "totalCost": "572837"
      },
      "external": {
        "LIB_NAME()": "infinite",
        "LIB_VERSION()": "infinite",
        "aclRegisterFacet(ACLStorage.DataCollection storage,IACLManager.FacetRegisterRequest)": "infinite",
        "registerProxyFacet(ACLStorage.DataCollection storage,address)": "704788"
      }
    },
    "methodIdentifiers": {
      "LIB_NAME()": "bec94751",
      "LIB_VERSION()": "2466209b",
      "aclRegisterFacet(ACLStorage.DataCollection storage,IACLManager.FacetRegisterRequest)": "59c893fc",
      "registerProxyFacet(ACLStorage.DataCollection storage,address)": "8439d9ba"
    }
  },
  "storageLayout": {
    "storage": [],
    "types": null
  },
  "userdoc": {
    "kind": "user",
    "methods": {},
    "version": 1
  }
}