{
  "contractName": "LAccessControl",
  "sourceName": "src/contracts/lib/acl/LAccessControl.sol",
  "abi": [
    {
      "inputs": [],
      "name": "LIB_NAME",
      "outputs": [
        {
          "internalType": "bytes32",
          "name": "",
          "type": "bytes32"
        }
      ],
      "stateMutability": "view",
      "type": "function"
    },
    {
      "inputs": [],
      "name": "LIB_VERSION",
      "outputs": [
        {
          "internalType": "bytes32",
          "name": "",
          "type": "bytes32"
        }
      ],
      "stateMutability": "view",
      "type": "function"
    },
    {
      "inputs": [],
      "name": "LIVELY_ADMIN_ROLE",
      "outputs": [
        {
          "internalType": "bytes32",
          "name": "",
          "type": "bytes32"
        }
      ],
      "stateMutability": "view",
      "type": "function"
    },
    {
      "inputs": [],
      "name": "LIVELY_ANONYMOUS_ROLE",
      "outputs": [
        {
          "internalType": "bytes32",
          "name": "",
          "type": "bytes32"
        }
      ],
      "stateMutability": "view",
      "type": "function"
    },
    {
      "inputs": [],
      "name": "LIVELY_GENERAL_GROUP",
      "outputs": [
        {
          "internalType": "bytes32",
          "name": "",
          "type": "bytes32"
        }
      ],
      "stateMutability": "view",
      "type": "function"
    },
    {
      "inputs": [],
      "name": "LIVELY_GENERAL_REALM",
      "outputs": [
        {
          "internalType": "bytes32",
          "name": "",
          "type": "bytes32"
        }
      ],
      "stateMutability": "view",
      "type": "function"
    },
    {
      "inputs": [],
      "name": "LIVELY_SYSTEM_ADMIN_ROLE",
      "outputs": [
        {
          "internalType": "bytes32",
          "name": "",
          "type": "bytes32"
        }
      ],
      "stateMutability": "view",
      "type": "function"
    },
    {
      "inputs": [],
      "name": "createRequestContext",
      "outputs": [
        {
          "components": [
            {
              "internalType": "bytes32",
              "name": "role",
              "type": "bytes32"
            },
            {
              "internalType": "bytes4[]",
              "name": "funcSelectors",
              "type": "bytes4[]"
            },
            {
              "internalType": "bool",
              "name": "isEnabled",
              "type": "bool"
            }
          ],
          "internalType": "struct IContextManagement.RequestRegisterContext[]",
          "name": "",
          "type": "tuple[]"
        }
      ],
      "stateMutability": "pure",
      "type": "function"
    }
  ],
  "bytecode": "0x61205e61003a600b82828239805160001a60731461002d57634e487b7160e01b600052600060045260246000fd5b30600052607381538281f3fe73000000000000000000000000000000000000000030146080604052600436106101b35760003560e01c806364f892ca11610103578063af07cfcd116100a1578063d95140eb1161007b578063d95140eb14610370578063decf375c14610383578063e24b90a914610396578063fbe97e19146103a957600080fd5b8063af07cfcd1461034d578063bec9475114610360578063d8b319991461036857600080fd5b8063779a6a7a116100dd578063779a6a7a1461030c5780637cd7c4ed1461031f5780639bb20d5114610332578063a834b8c01461033a57600080fd5b806364f892ca146102de578063660c9912146102f15780636ac58ac11461030457600080fd5b80633346dd2d11610170578063470e45651161014a578063470e45651461029b578063487c6960146102ae5780635632ffd8146102c157806362f3c2d4146102c957600080fd5b80633346dd2d14610253578063442b0ca11461026657806345d71c181461027957600080fd5b8063017d6269146101b85780630fd7cb90146101e057806310f07501146101f3578063113f28281461022257806320dd27af146102355780632466209b1461024b575b600080fd5b6101cb6101c6366004611c05565b6103bc565b60405190151581526020015b60405180910390f35b6101cb6101ee366004611c05565b610415565b6101cb610201366004611c05565b600090815260019182016020526040902001546001600160a01b0316151590565b6101cb610230366004611c05565b61043e565b61023d61045c565b6040519081526020016101d7565b61023d610484565b6101cb610261366004611c05565b61049d565b6101cb610274366004611c05565b6104e3565b81801561028557600080fd5b50610299610294366004611c27565b610528565b005b6101cb6102a9366004611c5c565b610cc8565b6101cb6102bc366004611ca0565b610d34565b61023d610f0a565b6102d1610f19565b6040516101d79190611ce6565b6101cb6102ec366004611c05565b611867565b6101cb6102ff366004611c05565b611882565b61023d6118d0565b6101cb61031a366004611c05565b6118df565b6101cb61032d366004611c05565b611924565b61023d6119a1565b6101cb610348366004611d9d565b6119b0565b6101cb61035b366004611c05565b6119fc565b61023d611a55565b61023d611a77565b6101cb61037e366004611c05565b611a86565b6101cb610391366004611d9d565b611aa4565b6101cb6103a4366004611c05565b611b15565b6101cb6103b7366004611c5c565b611b57565b600061040c828460040160006040516020016103d790611dd2565b604051602081830303815290604052805190602001208152602001908152602001600020600201611b8190919063ffffffff16565b90505b92915050565b60008181526004830160205260408120805482919061043390611df2565b905011905092915050565b60008181526003830160205260408120805482919061043390611df2565b60405160200161046b90611e2c565b6040516020818303038152906040528051906020012081565b604051640312e302e360dc1b602082015260250161046b565b600081815260018084016020526040822001546001600160a01b03161580159061040c57505060009081526001918201602052604090200154600160a01b900460ff1690565b60008181526004830160205260408120805482919061050190611df2565b905011801561040c5750506000908152600491909101602052604090206001015460ff1690565b33600090815260208281526040808320905160019391926105499101611e4c565b60408051601f19818403018152918152815160209283012083529082019290925201600020805460ff1916600183600281111561058857610588611e69565b021790555033600090815260208281526040808320905160019391926105ae9101611e7f565b60408051601f19818403018152918152815160209283012083529082019290925201600020805460ff191660018360028111156105ed576105ed611e69565b0217905550604051806040016040528060118152602001704c4956454c595f41444d494e5f524f4c4560781b81525081600201600060405160200161063190611e4c565b60405160208183030381529060405280519060200120815260200190815260200160002060000190816106649190611f08565b50600181600201600060405160200161067c90611e4c565b60405160208183030381529060405280519060200120815260200190815260200160002060020160006101000a81548160ff0219169083151502179055506040516020016106c990611dd2565b604051602081830303815290604052805190602001208160020160006040516020016106f490611e4c565b6040516020818303038152906040528051906020012081526020019081526020016000206001018190555061076d3382600201600060405160200161073890611e4c565b604051602081830303815290604052805190602001208152602001908152602001600020600301611b9990919063ffffffff16565b50604051806040016040528060188152602001774c4956454c595f53595354454d5f41444d494e5f524f4c4560401b8152508160020160006040516020016107b490611e7f565b60405160208183030381529060405280519060200120815260200190815260200160002060000190816107e79190611f08565b5060018160020160006040516020016107ff90611e7f565b60405160208183030381529060405280519060200120815260200190815260200160002060020160006101000a81548160ff02191690831515021790555060405160200161084c90611dd2565b6040516020818303038152906040528051906020012081600201600060405160200161087790611e7f565b604051602081830303815290604052805190602001208152602001908152602001600020600101819055506108bb3382600201600060405160200161073890611e7f565b50604051806040016040528060158152602001744c4956454c595f414e4f4e594d4f55535f524f4c4560581b8152508160020160006040516020016108ff90611fc8565b60405160208183030381529060405280519060200120815260200190815260200160002060000190816109329190611f08565b50600181600201600060405160200161094a90611fc8565b60405160208183030381529060405280519060200120815260200190815260200160002060020160006101000a81548160ff02191690831515021790555060405160200161099790611dd2565b604051602081830303815290604052805190602001208160020160006040516020016109c290611fc8565b60405160208183030381529060405280519060200120815260200190815260200160002060010181905550610a063382600201600060405160200161073890611fc8565b506040518060400160405280601481526020017304c4956454c595f47454e4552414c5f47524f55560641b815250816004016000604051602001610a4990611dd2565b6040516020818303038152906040528051906020012081526020019081526020016000206000019081610a7c9190611f08565b506001816004016000604051602001610a9490611dd2565b60405160208183030381529060405280519060200120815260200190815260200160002060010160006101000a81548160ff021916908315150217905550610b44604051602001610ae490611e4c565b60405160208183030381529060405280519060200120826004016000604051602001610b0f90611dd2565b604051602081830303815290604052805190602001208152602001908152602001600020600201611bae90919063ffffffff16565b50610b57604051602001610ae490611e7f565b50604051806040016040528060148152602001734c4956454c595f47454e4552414c5f5245414c4d60601b815250816003016000604051602001610b9a90611e2c565b6040516020818303038152906040528051906020012081526020019081526020016000206000019081610bcd9190611f08565b506001816003016000604051602001610be590611e2c565b60405160208183030381529060405280519060200120815260200190815260200160002060010160006101000a81548160ff0219169083151502179055506001816003016000604051602001610c3a90611e2c565b60408051601f19818403018152918152815160209283012083528282019390935290820160002060010180549315156101000261ff00199094169390931790925580513060601b6bffffffffffffffffffffffff1916818401528151601481830301815260349091019091528051910120610cc490826003016000604051602001610b0f90611e2c565b5050565b6001600160a01b03811660009081526020838152604080832090516001928491610cf29101611e7f565b60408051601f198184030181529181528151602092830120835290820192909252016000205460ff166002811115610d2c57610d2c611e69565b149392505050565b600083815260018501602090815260408083206001600160e01b03198516845260020182528083205490519091610d6b9101611fc8565b604051602081830303815290604052805190602001208103610df9576000858152600187810160205260409091200154600160a01b900460ff168015610df15750600160008681526001808901602090815260408084206001600160e01b0319891685526002908101909252909220015460ff1690811115610def57610def611e69565b145b915050610f02565b6000858152600187810160205260409091200154600160a01b900460ff168015610e635750600160008681526001808901602090815260408084206001600160e01b0319891685526002908101909252909220015460ff1690811115610e6157610e61611e69565b145b8015610e915750600085815260018088016020908152604080842054845260038a01909152909120015460ff165b8015610ec3575060008181526002870160209081526040808320600190810154845260048a01909252909120015460ff165b8015610df1575060016001600160a01b03851660009081526020888152604080832085845290915290205460ff166002811115610def57610def611e69565b949350505050565b60405160200161046b90611e7f565b604080516002808252606082810190935260009190816020015b60408051606080820183526000808352602083019190915291810191909152815260200190600190039081610f33579050509050604051602001610f7690611e4c565b6040516020818303038152906040528051906020012081600081518110610f9f57610f9f611fe9565b60200260200101516000018181525050600181600081518110610fc457610fc4611fe9565b6020908102919091018101519115156040928301528151601280825261026082019093529190820161024080368337019050508160008151811061100a5761100a611fe9565b6020026020010151602001819052506348e6be1c60e01b8160008151811061103457611034611fe9565b60200260200101516020015160008151811061105257611052611fe9565b6001600160e01b031990921660209283029190910190910152805163031c049360e01b90829060009061108757611087611fe9565b6020026020010151602001516001815181106110a5576110a5611fe9565b6001600160e01b0319909216602092830291909101909101528051635ac4b36f60e11b9082906000906110da576110da611fe9565b6020026020010151602001516002815181106110f8576110f8611fe9565b6001600160e01b031990921660209283029190910190910152805163771bcf4560e01b90829060009061112d5761112d611fe9565b60200260200101516020015160038151811061114b5761114b611fe9565b6001600160e01b0319909216602092830291909101909101528051634346a04b60e01b90829060009061118057611180611fe9565b60200260200101516020015160048151811061119e5761119e611fe9565b6001600160e01b031990921660209283029190910190910152805163d338640160e01b9082906000906111d3576111d3611fe9565b6020026020010151602001516005815181106111f1576111f1611fe9565b6001600160e01b03199092166020928302919091019091015280516370420ee360e01b90829060009061122657611226611fe9565b60200260200101516020015160068151811061124457611244611fe9565b6001600160e01b031990921660209283029190910190910152805163b2dc26e560e01b90829060009061127957611279611fe9565b60200260200101516020015160078151811061129757611297611fe9565b6001600160e01b03199092166020928302919091019091015280516308f09e0f60e41b9082906000906112cc576112cc611fe9565b6020026020010151602001516008815181106112ea576112ea611fe9565b6001600160e01b031990921660209283029190910190910152805163df01de4560e01b90829060009061131f5761131f611fe9565b60200260200101516020015160098151811061133d5761133d611fe9565b6001600160e01b031990921660209283029190910190910152805163738f112760e11b90829060009061137257611372611fe9565b602002602001015160200151600a8151811061139057611390611fe9565b6001600160e01b0319909216602092830291909101909101528051630dbf304b60e41b9082906000906113c5576113c5611fe9565b602002602001015160200151600b815181106113e3576113e3611fe9565b6001600160e01b03199092166020928302919091019091015280516307e9933760e31b90829060009061141857611418611fe9565b602002602001015160200151600c8151811061143657611436611fe9565b6001600160e01b031990921660209283029190910190910152805163b6c03f0360e01b90829060009061146b5761146b611fe9565b602002602001015160200151600d8151811061148957611489611fe9565b6001600160e01b03199092166020928302919091019091015280516312ec6fa360e21b9082906000906114be576114be611fe9565b602002602001015160200151600e815181106114dc576114dc611fe9565b6001600160e01b03199092166020928302919091019091015280516322df6f5b60e21b90829060009061151157611511611fe9565b602002602001015160200151600f8151811061152f5761152f611fe9565b6001600160e01b031990921660209283029190910190910152805163f2c673bd60e01b90829060009061156457611564611fe9565b60200260200101516020015160108151811061158257611582611fe9565b60200260200101906001600160e01b03191690816001600160e01b031916815250507f756af45f4ce05d832bee0c171992c529ad6d3ca8e13303d78feace2f8fd7faf2816000815181106115d8576115d8611fe9565b6020026020010151602001516011815181106115f6576115f6611fe9565b6001600160e01b031990921660209283029190910182015260405161161b9101611e7f565b604051602081830303815290604052805190602001208160018151811061164457611644611fe9565b6020026020010151600001818152505060018160018151811061166957611669611fe9565b6020908102919091018101519115156040928301528151600580825260c082019093529190820160a08036833701905050816001815181106116ad576116ad611fe9565b60200260200101516020018190525063d9dc1f1960e01b816001815181106116d7576116d7611fe9565b6020026020010151602001516000815181106116f5576116f5611fe9565b6001600160e01b031990921660209283029190910190910152805163225bf2f960e11b908290600190811061172c5761172c611fe9565b60200260200101516020015160018151811061174a5761174a611fe9565b6001600160e01b0319909216602092830291909101909101528051637147855d60e01b908290600190811061178157611781611fe9565b60200260200101516020015160028151811061179f5761179f611fe9565b6001600160e01b03199092166020928302919091019091015280516378efa4ed60e11b90829060019081106117d6576117d6611fe9565b6020026020010151602001516003815181106117f4576117f4611fe9565b6001600160e01b0319909216602092830291909101909101528051631ccb7c8d60e31b908290600190811061182b5761182b611fe9565b60200260200101516020015160048151811061184957611849611fe9565b6001600160e01b031990921660209283029190910190910152919050565b600061040c828460030160006040516020016103d790611e2c565b60008181526003830160205260408120805461189d90611df2565b90506000036118ae5750600061040f565b5060009081526003919091016020526040902060010154610100900460ff1690565b60405160200161046b90611dd2565b6000818152600383016020526040812080548291906118fd90611df2565b905011801561040c5750506000908152600391909101602052604090206001015460ff1690565b600081815260018084016020908152604080842090920154825163be22465d60e01b815292516001600160a01b039091169263be22465d9260048083019391928290030181865afa15801561197d573d6000803e3d6000fd5b505050506040513d601f19601f8201168201806040525081019061040c9190611fff565b60405160200161046b90611fc8565b600082815260018085016020526040822001546001600160a01b031615801590610f02575060008381526001850160205260409020610f02906003016001600160e01b03198416611b81565b6000818152600180840160209081526040808420909201548251630151e76560e61b815292516001600160a01b0390911692635479d9409260048083019391928290030181865afa15801561197d573d6000803e3d6000fd5b6040516d131058d8d95cdcd0dbdb9d1c9bdb60921b6020820152602e0161046b565b60405160200161046b90611e4c565b60008181526002830160205260408120805482919061043390611df2565b600082815260018085016020526040822001546001600160a01b031615801590610f025750600160008481526001808701602090815260408084206001600160e01b0319881685526002908101909252909220015460ff1690811115611b0c57611b0c611e69565b14949350505050565b600081815260028301602052604081208054829190611b3390611df2565b905011801561040c5750506000908152600291820160205260409020015460ff1690565b6001600160a01b03811660009081526020838152604080832090516001928491610cf29101611e4c565b6000818152600183016020526040812054151561040c565b600061040c836001600160a01b038416611bb6565b600061040c83835b6000818152600183016020526040812054611bfd5750815460018181018455600084815260208082209093018490558454848252828601909352604090209190915561040f565b50600061040f565b60008060408385031215611c1857600080fd5b50508035926020909101359150565b600060208284031215611c3957600080fd5b5035919050565b80356001600160a01b0381168114611c5757600080fd5b919050565b60008060408385031215611c6f57600080fd5b82359150611c7f60208401611c40565b90509250929050565b80356001600160e01b031981168114611c5757600080fd5b60008060008060808587031215611cb657600080fd5b8435935060208501359250611ccd60408601611c40565b9150611cdb60608601611c88565b905092959194509250565b60006020808301818452808551808352604092508286019150828160051b8701018488016000805b84811015611d8e57898403603f190186528251805185528881015160608a8701819052815190870181905260808701918b019085905b80821015611d6e5782516001600160e01b0319168452928c0192918c019160019190910190611d44565b505050908801511515948801949094529487019491870191600101611d0e565b50919998505050505050505050565b600080600060608486031215611db257600080fd5b8335925060208401359150611dc960408501611c88565b90509250925092565b7304c4956454c595f47454e4552414c5f47524f55560641b815260140190565b600181811c90821680611e0657607f821691505b602082108103611e2657634e487b7160e01b600052602260045260246000fd5b50919050565b734c4956454c595f47454e4552414c5f5245414c4d60601b815260140190565b704c4956454c595f41444d494e5f524f4c4560781b815260110190565b634e487b7160e01b600052602160045260246000fd5b774c4956454c595f53595354454d5f41444d494e5f524f4c4560401b815260180190565b634e487b7160e01b600052604160045260246000fd5b601f821115611f0357600081815260208120601f850160051c81016020861015611ee05750805b601f850160051c820191505b81811015611eff57828155600101611eec565b5050505b505050565b815167ffffffffffffffff811115611f2257611f22611ea3565b611f3681611f308454611df2565b84611eb9565b602080601f831160018114611f6b5760008415611f535750858301515b600019600386901b1c1916600185901b178555611eff565b600085815260208120601f198616915b82811015611f9a57888601518255948401946001909101908401611f7b565b5085821015611fb85787850151600019600388901b60f8161c191681555b5050505050600190811b01905550565b744c4956454c595f414e4f4e594d4f55535f524f4c4560581b815260150190565b634e487b7160e01b600052603260045260246000fd5b60006020828403121561201157600080fd5b8151801515811461202157600080fd5b939250505056fea2646970667358221220eca4729f80cd33687a7f3baeba478f724dd616b7e0f1c075f11b2054bfb9056464736f6c634300080f0033",
  "linkReferences": {},
  "deployedLinkReferences": {},
  "devdoc": {
    "kind": "dev",
    "methods": {},
    "version": 1
  },
  "evm": {
    "bytecode": {
      "linkReferences": {},
      "opcodes": "PUSH2 0x205E PUSH2 0x3A PUSH1 0xB DUP3 DUP3 DUP3 CODECOPY DUP1 MLOAD PUSH1 0x0 BYTE PUSH1 0x73 EQ PUSH2 0x2D JUMPI PUSH4 0x4E487B71 PUSH1 0xE0 SHL PUSH1 0x0 MSTORE PUSH1 0x0 PUSH1 0x4 MSTORE PUSH1 0x24 PUSH1 0x0 REVERT JUMPDEST ADDRESS PUSH1 0x0 MSTORE PUSH1 0x73 DUP2 MSTORE8 DUP3 DUP2 RETURN INVALID PUSH20 0x0 ADDRESS EQ PUSH1 0x80 PUSH1 0x40 MSTORE PUSH1 0x4 CALLDATASIZE LT PUSH2 0x1B3 JUMPI PUSH1 0x0 CALLDATALOAD PUSH1 0xE0 SHR DUP1 PUSH4 0x64F892CA GT PUSH2 0x103 JUMPI DUP1 PUSH4 0xAF07CFCD GT PUSH2 0xA1 JUMPI DUP1 PUSH4 0xD95140EB GT PUSH2 0x7B JUMPI DUP1 PUSH4 0xD95140EB EQ PUSH2 0x370 JUMPI DUP1 PUSH4 0xDECF375C EQ PUSH2 0x383 JUMPI DUP1 PUSH4 0xE24B90A9 EQ PUSH2 0x396 JUMPI DUP1 PUSH4 0xFBE97E19 EQ PUSH2 0x3A9 JUMPI PUSH1 0x0 DUP1 REVERT JUMPDEST DUP1 PUSH4 0xAF07CFCD EQ PUSH2 0x34D JUMPI DUP1 PUSH4 0xBEC94751 EQ PUSH2 0x360 JUMPI DUP1 PUSH4 0xD8B31999 EQ PUSH2 0x368 JUMPI PUSH1 0x0 DUP1 REVERT JUMPDEST DUP1 PUSH4 0x779A6A7A GT PUSH2 0xDD JUMPI DUP1 PUSH4 0x779A6A7A EQ PUSH2 0x30C JUMPI DUP1 PUSH4 0x7CD7C4ED EQ PUSH2 0x31F JUMPI DUP1 PUSH4 0x9BB20D51 EQ PUSH2 0x332 JUMPI DUP1 PUSH4 0xA834B8C0 EQ PUSH2 0x33A JUMPI PUSH1 0x0 DUP1 REVERT JUMPDEST DUP1 PUSH4 0x64F892CA EQ PUSH2 0x2DE JUMPI DUP1 PUSH4 0x660C9912 EQ PUSH2 0x2F1 JUMPI DUP1 PUSH4 0x6AC58AC1 EQ PUSH2 0x304 JUMPI PUSH1 0x0 DUP1 REVERT JUMPDEST DUP1 PUSH4 0x3346DD2D GT PUSH2 0x170 JUMPI DUP1 PUSH4 0x470E4565 GT PUSH2 0x14A JUMPI DUP1 PUSH4 0x470E4565 EQ PUSH2 0x29B JUMPI DUP1 PUSH4 0x487C6960 EQ PUSH2 0x2AE JUMPI DUP1 PUSH4 0x5632FFD8 EQ PUSH2 0x2C1 JUMPI DUP1 PUSH4 0x62F3C2D4 EQ PUSH2 0x2C9 JUMPI PUSH1 0x0 DUP1 REVERT JUMPDEST DUP1 PUSH4 0x3346DD2D EQ PUSH2 0x253 JUMPI DUP1 PUSH4 0x442B0CA1 EQ PUSH2 0x266 JUMPI DUP1 PUSH4 0x45D71C18 EQ PUSH2 0x279 JUMPI PUSH1 0x0 DUP1 REVERT JUMPDEST DUP1 PUSH4 0x17D6269 EQ PUSH2 0x1B8 JUMPI DUP1 PUSH4 0xFD7CB90 EQ PUSH2 0x1E0 JUMPI DUP1 PUSH4 0x10F07501 EQ PUSH2 0x1F3 JUMPI DUP1 PUSH4 0x113F2828 EQ PUSH2 0x222 JUMPI DUP1 PUSH4 0x20DD27AF EQ PUSH2 0x235 JUMPI DUP1 PUSH4 0x2466209B EQ PUSH2 0x24B JUMPI JUMPDEST PUSH1 0x0 DUP1 REVERT JUMPDEST PUSH2 0x1CB PUSH2 0x1C6 CALLDATASIZE PUSH1 0x4 PUSH2 0x1C05 JUMP JUMPDEST PUSH2 0x3BC JUMP JUMPDEST PUSH1 0x40 MLOAD SWAP1 ISZERO ISZERO DUP2 MSTORE PUSH1 0x20 ADD JUMPDEST PUSH1 0x40 MLOAD DUP1 SWAP2 SUB SWAP1 RETURN JUMPDEST PUSH2 0x1CB PUSH2 0x1EE CALLDATASIZE PUSH1 0x4 PUSH2 0x1C05 JUMP JUMPDEST PUSH2 0x415 JUMP JUMPDEST PUSH2 0x1CB PUSH2 0x201 CALLDATASIZE PUSH1 0x4 PUSH2 0x1C05 JUMP JUMPDEST PUSH1 0x0 SWAP1 DUP2 MSTORE PUSH1 0x1 SWAP2 DUP3 ADD PUSH1 0x20 MSTORE PUSH1 0x40 SWAP1 KECCAK256 ADD SLOAD PUSH1 0x1 PUSH1 0x1 PUSH1 0xA0 SHL SUB AND ISZERO ISZERO SWAP1 JUMP JUMPDEST PUSH2 0x1CB PUSH2 0x230 CALLDATASIZE PUSH1 0x4 PUSH2 0x1C05 JUMP JUMPDEST PUSH2 0x43E JUMP JUMPDEST PUSH2 0x23D PUSH2 0x45C JUMP JUMPDEST PUSH1 0x40 MLOAD SWAP1 DUP2 MSTORE PUSH1 0x20 ADD PUSH2 0x1D7 JUMP JUMPDEST PUSH2 0x23D PUSH2 0x484 JUMP JUMPDEST PUSH2 0x1CB PUSH2 0x261 CALLDATASIZE PUSH1 0x4 PUSH2 0x1C05 JUMP JUMPDEST PUSH2 0x49D JUMP JUMPDEST PUSH2 0x1CB PUSH2 0x274 CALLDATASIZE PUSH1 0x4 PUSH2 0x1C05 JUMP JUMPDEST PUSH2 0x4E3 JUMP JUMPDEST DUP2 DUP1 ISZERO PUSH2 0x285 JUMPI PUSH1 0x0 DUP1 REVERT JUMPDEST POP PUSH2 0x299 PUSH2 0x294 CALLDATASIZE PUSH1 0x4 PUSH2 0x1C27 JUMP JUMPDEST PUSH2 0x528 JUMP JUMPDEST STOP JUMPDEST PUSH2 0x1CB PUSH2 0x2A9 CALLDATASIZE PUSH1 0x4 PUSH2 0x1C5C JUMP JUMPDEST PUSH2 0xCC8 JUMP JUMPDEST PUSH2 0x1CB PUSH2 0x2BC CALLDATASIZE PUSH1 0x4 PUSH2 0x1CA0 JUMP JUMPDEST PUSH2 0xD34 JUMP JUMPDEST PUSH2 0x23D PUSH2 0xF0A JUMP JUMPDEST PUSH2 0x2D1 PUSH2 0xF19 JUMP JUMPDEST PUSH1 0x40 MLOAD PUSH2 0x1D7 SWAP2 SWAP1 PUSH2 0x1CE6 JUMP JUMPDEST PUSH2 0x1CB PUSH2 0x2EC CALLDATASIZE PUSH1 0x4 PUSH2 0x1C05 JUMP JUMPDEST PUSH2 0x1867 JUMP JUMPDEST PUSH2 0x1CB PUSH2 0x2FF CALLDATASIZE PUSH1 0x4 PUSH2 0x1C05 JUMP JUMPDEST PUSH2 0x1882 JUMP JUMPDEST PUSH2 0x23D PUSH2 0x18D0 JUMP JUMPDEST PUSH2 0x1CB PUSH2 0x31A CALLDATASIZE PUSH1 0x4 PUSH2 0x1C05 JUMP JUMPDEST PUSH2 0x18DF JUMP JUMPDEST PUSH2 0x1CB PUSH2 0x32D CALLDATASIZE PUSH1 0x4 PUSH2 0x1C05 JUMP JUMPDEST PUSH2 0x1924 JUMP JUMPDEST PUSH2 0x23D PUSH2 0x19A1 JUMP JUMPDEST PUSH2 0x1CB PUSH2 0x348 CALLDATASIZE PUSH1 0x4 PUSH2 0x1D9D JUMP JUMPDEST PUSH2 0x19B0 JUMP JUMPDEST PUSH2 0x1CB PUSH2 0x35B CALLDATASIZE PUSH1 0x4 PUSH2 0x1C05 JUMP JUMPDEST PUSH2 0x19FC JUMP JUMPDEST PUSH2 0x23D PUSH2 0x1A55 JUMP JUMPDEST PUSH2 0x23D PUSH2 0x1A77 JUMP JUMPDEST PUSH2 0x1CB PUSH2 0x37E CALLDATASIZE PUSH1 0x4 PUSH2 0x1C05 JUMP JUMPDEST PUSH2 0x1A86 JUMP JUMPDEST PUSH2 0x1CB PUSH2 0x391 CALLDATASIZE PUSH1 0x4 PUSH2 0x1D9D JUMP JUMPDEST PUSH2 0x1AA4 JUMP JUMPDEST PUSH2 0x1CB PUSH2 0x3A4 CALLDATASIZE PUSH1 0x4 PUSH2 0x1C05 JUMP JUMPDEST PUSH2 0x1B15 JUMP JUMPDEST PUSH2 0x1CB PUSH2 0x3B7 CALLDATASIZE PUSH1 0x4 PUSH2 0x1C5C JUMP JUMPDEST PUSH2 0x1B57 JUMP JUMPDEST PUSH1 0x0 PUSH2 0x40C DUP3 DUP5 PUSH1 0x4 ADD PUSH1 0x0 PUSH1 0x40 MLOAD PUSH1 0x20 ADD PUSH2 0x3D7 SWAP1 PUSH2 0x1DD2 JUMP JUMPDEST PUSH1 0x40 MLOAD PUSH1 0x20 DUP2 DUP4 SUB SUB DUP2 MSTORE SWAP1 PUSH1 0x40 MSTORE DUP1 MLOAD SWAP1 PUSH1 0x20 ADD KECCAK256 DUP2 MSTORE PUSH1 0x20 ADD SWAP1 DUP2 MSTORE PUSH1 0x20 ADD PUSH1 0x0 KECCAK256 PUSH1 0x2 ADD PUSH2 0x1B81 SWAP1 SWAP2 SWAP1 PUSH4 0xFFFFFFFF AND JUMP JUMPDEST SWAP1 POP JUMPDEST SWAP3 SWAP2 POP POP JUMP JUMPDEST PUSH1 0x0 DUP2 DUP2 MSTORE PUSH1 0x4 DUP4 ADD PUSH1 0x20 MSTORE PUSH1 0x40 DUP2 KECCAK256 DUP1 SLOAD DUP3 SWAP2 SWAP1 PUSH2 0x433 SWAP1 PUSH2 0x1DF2 JUMP JUMPDEST SWAP1 POP GT SWAP1 POP SWAP3 SWAP2 POP POP JUMP JUMPDEST PUSH1 0x0 DUP2 DUP2 MSTORE PUSH1 0x3 DUP4 ADD PUSH1 0x20 MSTORE PUSH1 0x40 DUP2 KECCAK256 DUP1 SLOAD DUP3 SWAP2 SWAP1 PUSH2 0x433 SWAP1 PUSH2 0x1DF2 JUMP JUMPDEST PUSH1 0x40 MLOAD PUSH1 0x20 ADD PUSH2 0x46B SWAP1 PUSH2 0x1E2C JUMP JUMPDEST PUSH1 0x40 MLOAD PUSH1 0x20 DUP2 DUP4 SUB SUB DUP2 MSTORE SWAP1 PUSH1 0x40 MSTORE DUP1 MLOAD SWAP1 PUSH1 0x20 ADD KECCAK256 DUP2 JUMP JUMPDEST PUSH1 0x40 MLOAD PUSH5 0x312E302E3 PUSH1 0xDC SHL PUSH1 0x20 DUP3 ADD MSTORE PUSH1 0x25 ADD PUSH2 0x46B JUMP JUMPDEST PUSH1 0x0 DUP2 DUP2 MSTORE PUSH1 0x1 DUP1 DUP5 ADD PUSH1 0x20 MSTORE PUSH1 0x40 DUP3 KECCAK256 ADD SLOAD PUSH1 0x1 PUSH1 0x1 PUSH1 0xA0 SHL SUB AND ISZERO DUP1 ISZERO SWAP1 PUSH2 0x40C JUMPI POP POP PUSH1 0x0 SWAP1 DUP2 MSTORE PUSH1 0x1 SWAP2 DUP3 ADD PUSH1 0x20 MSTORE PUSH1 0x40 SWAP1 KECCAK256 ADD SLOAD PUSH1 0x1 PUSH1 0xA0 SHL SWAP1 DIV PUSH1 0xFF AND SWAP1 JUMP JUMPDEST PUSH1 0x0 DUP2 DUP2 MSTORE PUSH1 0x4 DUP4 ADD PUSH1 0x20 MSTORE PUSH1 0x40 DUP2 KECCAK256 DUP1 SLOAD DUP3 SWAP2 SWAP1 PUSH2 0x501 SWAP1 PUSH2 0x1DF2 JUMP JUMPDEST SWAP1 POP GT DUP1 ISZERO PUSH2 0x40C JUMPI POP POP PUSH1 0x0 SWAP1 DUP2 MSTORE PUSH1 0x4 SWAP2 SWAP1 SWAP2 ADD PUSH1 0x20 MSTORE PUSH1 0x40 SWAP1 KECCAK256 PUSH1 0x1 ADD SLOAD PUSH1 0xFF AND SWAP1 JUMP JUMPDEST CALLER PUSH1 0x0 SWAP1 DUP2 MSTORE PUSH1 0x20 DUP3 DUP2 MSTORE PUSH1 0x40 DUP1 DUP4 KECCAK256 SWAP1 MLOAD PUSH1 0x1 SWAP4 SWAP2 SWAP3 PUSH2 0x549 SWAP2 ADD PUSH2 0x1E4C JUMP JUMPDEST PUSH1 0x40 DUP1 MLOAD PUSH1 0x1F NOT DUP2 DUP5 SUB ADD DUP2 MSTORE SWAP2 DUP2 MSTORE DUP2 MLOAD PUSH1 0x20 SWAP3 DUP4 ADD KECCAK256 DUP4 MSTORE SWAP1 DUP3 ADD SWAP3 SWAP1 SWAP3 MSTORE ADD PUSH1 0x0 KECCAK256 DUP1 SLOAD PUSH1 0xFF NOT AND PUSH1 0x1 DUP4 PUSH1 0x2 DUP2 GT ISZERO PUSH2 0x588 JUMPI PUSH2 0x588 PUSH2 0x1E69 JUMP JUMPDEST MUL OR SWAP1 SSTORE POP CALLER PUSH1 0x0 SWAP1 DUP2 MSTORE PUSH1 0x20 DUP3 DUP2 MSTORE PUSH1 0x40 DUP1 DUP4 KECCAK256 SWAP1 MLOAD PUSH1 0x1 SWAP4 SWAP2 SWAP3 PUSH2 0x5AE SWAP2 ADD PUSH2 0x1E7F JUMP JUMPDEST PUSH1 0x40 DUP1 MLOAD PUSH1 0x1F NOT DUP2 DUP5 SUB ADD DUP2 MSTORE SWAP2 DUP2 MSTORE DUP2 MLOAD PUSH1 0x20 SWAP3 DUP4 ADD KECCAK256 DUP4 MSTORE SWAP1 DUP3 ADD SWAP3 SWAP1 SWAP3 MSTORE ADD PUSH1 0x0 KECCAK256 DUP1 SLOAD PUSH1 0xFF NOT AND PUSH1 0x1 DUP4 PUSH1 0x2 DUP2 GT ISZERO PUSH2 0x5ED JUMPI PUSH2 0x5ED PUSH2 0x1E69 JUMP JUMPDEST MUL OR SWAP1 SSTORE POP PUSH1 0x40 MLOAD DUP1 PUSH1 0x40 ADD PUSH1 0x40 MSTORE DUP1 PUSH1 0x11 DUP2 MSTORE PUSH1 0x20 ADD PUSH17 0x4C4956454C595F41444D494E5F524F4C45 PUSH1 0x78 SHL DUP2 MSTORE POP DUP2 PUSH1 0x2 ADD PUSH1 0x0 PUSH1 0x40 MLOAD PUSH1 0x20 ADD PUSH2 0x631 SWAP1 PUSH2 0x1E4C JUMP JUMPDEST PUSH1 0x40 MLOAD PUSH1 0x20 DUP2 DUP4 SUB SUB DUP2 MSTORE SWAP1 PUSH1 0x40 MSTORE DUP1 MLOAD SWAP1 PUSH1 0x20 ADD KECCAK256 DUP2 MSTORE PUSH1 0x20 ADD SWAP1 DUP2 MSTORE PUSH1 0x20 ADD PUSH1 0x0 KECCAK256 PUSH1 0x0 ADD SWAP1 DUP2 PUSH2 0x664 SWAP2 SWAP1 PUSH2 0x1F08 JUMP JUMPDEST POP PUSH1 0x1 DUP2 PUSH1 0x2 ADD PUSH1 0x0 PUSH1 0x40 MLOAD PUSH1 0x20 ADD PUSH2 0x67C SWAP1 PUSH2 0x1E4C JUMP JUMPDEST PUSH1 0x40 MLOAD PUSH1 0x20 DUP2 DUP4 SUB SUB DUP2 MSTORE SWAP1 PUSH1 0x40 MSTORE DUP1 MLOAD SWAP1 PUSH1 0x20 ADD KECCAK256 DUP2 MSTORE PUSH1 0x20 ADD SWAP1 DUP2 MSTORE PUSH1 0x20 ADD PUSH1 0x0 KECCAK256 PUSH1 0x2 ADD PUSH1 0x0 PUSH2 0x100 EXP DUP2 SLOAD DUP2 PUSH1 0xFF MUL NOT AND SWAP1 DUP4 ISZERO ISZERO MUL OR SWAP1 SSTORE POP PUSH1 0x40 MLOAD PUSH1 0x20 ADD PUSH2 0x6C9 SWAP1 PUSH2 0x1DD2 JUMP JUMPDEST PUSH1 0x40 MLOAD PUSH1 0x20 DUP2 DUP4 SUB SUB DUP2 MSTORE SWAP1 PUSH1 0x40 MSTORE DUP1 MLOAD SWAP1 PUSH1 0x20 ADD KECCAK256 DUP2 PUSH1 0x2 ADD PUSH1 0x0 PUSH1 0x40 MLOAD PUSH1 0x20 ADD PUSH2 0x6F4 SWAP1 PUSH2 0x1E4C JUMP JUMPDEST PUSH1 0x40 MLOAD PUSH1 0x20 DUP2 DUP4 SUB SUB DUP2 MSTORE SWAP1 PUSH1 0x40 MSTORE DUP1 MLOAD SWAP1 PUSH1 0x20 ADD KECCAK256 DUP2 MSTORE PUSH1 0x20 ADD SWAP1 DUP2 MSTORE PUSH1 0x20 ADD PUSH1 0x0 KECCAK256 PUSH1 0x1 ADD DUP2 SWAP1 SSTORE POP PUSH2 0x76D CALLER DUP3 PUSH1 0x2 ADD PUSH1 0x0 PUSH1 0x40 MLOAD PUSH1 0x20 ADD PUSH2 0x738 SWAP1 PUSH2 0x1E4C JUMP JUMPDEST PUSH1 0x40 MLOAD PUSH1 0x20 DUP2 DUP4 SUB SUB DUP2 MSTORE SWAP1 PUSH1 0x40 MSTORE DUP1 MLOAD SWAP1 PUSH1 0x20 ADD KECCAK256 DUP2 MSTORE PUSH1 0x20 ADD SWAP1 DUP2 MSTORE PUSH1 0x20 ADD PUSH1 0x0 KECCAK256 PUSH1 0x3 ADD PUSH2 0x1B99 SWAP1 SWAP2 SWAP1 PUSH4 0xFFFFFFFF AND JUMP JUMPDEST POP PUSH1 0x40 MLOAD DUP1 PUSH1 0x40 ADD PUSH1 0x40 MSTORE DUP1 PUSH1 0x18 DUP2 MSTORE PUSH1 0x20 ADD PUSH24 0x4C4956454C595F53595354454D5F41444D494E5F524F4C45 PUSH1 0x40 SHL DUP2 MSTORE POP DUP2 PUSH1 0x2 ADD PUSH1 0x0 PUSH1 0x40 MLOAD PUSH1 0x20 ADD PUSH2 0x7B4 SWAP1 PUSH2 0x1E7F JUMP JUMPDEST PUSH1 0x40 MLOAD PUSH1 0x20 DUP2 DUP4 SUB SUB DUP2 MSTORE SWAP1 PUSH1 0x40 MSTORE DUP1 MLOAD SWAP1 PUSH1 0x20 ADD KECCAK256 DUP2 MSTORE PUSH1 0x20 ADD SWAP1 DUP2 MSTORE PUSH1 0x20 ADD PUSH1 0x0 KECCAK256 PUSH1 0x0 ADD SWAP1 DUP2 PUSH2 0x7E7 SWAP2 SWAP1 PUSH2 0x1F08 JUMP JUMPDEST POP PUSH1 0x1 DUP2 PUSH1 0x2 ADD PUSH1 0x0 PUSH1 0x40 MLOAD PUSH1 0x20 ADD PUSH2 0x7FF SWAP1 PUSH2 0x1E7F JUMP JUMPDEST PUSH1 0x40 MLOAD PUSH1 0x20 DUP2 DUP4 SUB SUB DUP2 MSTORE SWAP1 PUSH1 0x40 MSTORE DUP1 MLOAD SWAP1 PUSH1 0x20 ADD KECCAK256 DUP2 MSTORE PUSH1 0x20 ADD SWAP1 DUP2 MSTORE PUSH1 0x20 ADD PUSH1 0x0 KECCAK256 PUSH1 0x2 ADD PUSH1 0x0 PUSH2 0x100 EXP DUP2 SLOAD DUP2 PUSH1 0xFF MUL NOT AND SWAP1 DUP4 ISZERO ISZERO MUL OR SWAP1 SSTORE POP PUSH1 0x40 MLOAD PUSH1 0x20 ADD PUSH2 0x84C SWAP1 PUSH2 0x1DD2 JUMP JUMPDEST PUSH1 0x40 MLOAD PUSH1 0x20 DUP2 DUP4 SUB SUB DUP2 MSTORE SWAP1 PUSH1 0x40 MSTORE DUP1 MLOAD SWAP1 PUSH1 0x20 ADD KECCAK256 DUP2 PUSH1 0x2 ADD PUSH1 0x0 PUSH1 0x40 MLOAD PUSH1 0x20 ADD PUSH2 0x877 SWAP1 PUSH2 0x1E7F JUMP JUMPDEST PUSH1 0x40 MLOAD PUSH1 0x20 DUP2 DUP4 SUB SUB DUP2 MSTORE SWAP1 PUSH1 0x40 MSTORE DUP1 MLOAD SWAP1 PUSH1 0x20 ADD KECCAK256 DUP2 MSTORE PUSH1 0x20 ADD SWAP1 DUP2 MSTORE PUSH1 0x20 ADD PUSH1 0x0 KECCAK256 PUSH1 0x1 ADD DUP2 SWAP1 SSTORE POP PUSH2 0x8BB CALLER DUP3 PUSH1 0x2 ADD PUSH1 0x0 PUSH1 0x40 MLOAD PUSH1 0x20 ADD PUSH2 0x738 SWAP1 PUSH2 0x1E7F JUMP JUMPDEST POP PUSH1 0x40 MLOAD DUP1 PUSH1 0x40 ADD PUSH1 0x40 MSTORE DUP1 PUSH1 0x15 DUP2 MSTORE PUSH1 0x20 ADD PUSH21 0x4C4956454C595F414E4F4E594D4F55535F524F4C45 PUSH1 0x58 SHL DUP2 MSTORE POP DUP2 PUSH1 0x2 ADD PUSH1 0x0 PUSH1 0x40 MLOAD PUSH1 0x20 ADD PUSH2 0x8FF SWAP1 PUSH2 0x1FC8 JUMP JUMPDEST PUSH1 0x40 MLOAD PUSH1 0x20 DUP2 DUP4 SUB SUB DUP2 MSTORE SWAP1 PUSH1 0x40 MSTORE DUP1 MLOAD SWAP1 PUSH1 0x20 ADD KECCAK256 DUP2 MSTORE PUSH1 0x20 ADD SWAP1 DUP2 MSTORE PUSH1 0x20 ADD PUSH1 0x0 KECCAK256 PUSH1 0x0 ADD SWAP1 DUP2 PUSH2 0x932 SWAP2 SWAP1 PUSH2 0x1F08 JUMP JUMPDEST POP PUSH1 0x1 DUP2 PUSH1 0x2 ADD PUSH1 0x0 PUSH1 0x40 MLOAD PUSH1 0x20 ADD PUSH2 0x94A SWAP1 PUSH2 0x1FC8 JUMP JUMPDEST PUSH1 0x40 MLOAD PUSH1 0x20 DUP2 DUP4 SUB SUB DUP2 MSTORE SWAP1 PUSH1 0x40 MSTORE DUP1 MLOAD SWAP1 PUSH1 0x20 ADD KECCAK256 DUP2 MSTORE PUSH1 0x20 ADD SWAP1 DUP2 MSTORE PUSH1 0x20 ADD PUSH1 0x0 KECCAK256 PUSH1 0x2 ADD PUSH1 0x0 PUSH2 0x100 EXP DUP2 SLOAD DUP2 PUSH1 0xFF MUL NOT AND SWAP1 DUP4 ISZERO ISZERO MUL OR SWAP1 SSTORE POP PUSH1 0x40 MLOAD PUSH1 0x20 ADD PUSH2 0x997 SWAP1 PUSH2 0x1DD2 JUMP JUMPDEST PUSH1 0x40 MLOAD PUSH1 0x20 DUP2 DUP4 SUB SUB DUP2 MSTORE SWAP1 PUSH1 0x40 MSTORE DUP1 MLOAD SWAP1 PUSH1 0x20 ADD KECCAK256 DUP2 PUSH1 0x2 ADD PUSH1 0x0 PUSH1 0x40 MLOAD PUSH1 0x20 ADD PUSH2 0x9C2 SWAP1 PUSH2 0x1FC8 JUMP JUMPDEST PUSH1 0x40 MLOAD PUSH1 0x20 DUP2 DUP4 SUB SUB DUP2 MSTORE SWAP1 PUSH1 0x40 MSTORE DUP1 MLOAD SWAP1 PUSH1 0x20 ADD KECCAK256 DUP2 MSTORE PUSH1 0x20 ADD SWAP1 DUP2 MSTORE PUSH1 0x20 ADD PUSH1 0x0 KECCAK256 PUSH1 0x1 ADD DUP2 SWAP1 SSTORE POP PUSH2 0xA06 CALLER DUP3 PUSH1 0x2 ADD PUSH1 0x0 PUSH1 0x40 MLOAD PUSH1 0x20 ADD PUSH2 0x738 SWAP1 PUSH2 0x1FC8 JUMP JUMPDEST POP PUSH1 0x40 MLOAD DUP1 PUSH1 0x40 ADD PUSH1 0x40 MSTORE DUP1 PUSH1 0x14 DUP2 MSTORE PUSH1 0x20 ADD PUSH20 0x4C4956454C595F47454E4552414C5F47524F555 PUSH1 0x64 SHL DUP2 MSTORE POP DUP2 PUSH1 0x4 ADD PUSH1 0x0 PUSH1 0x40 MLOAD PUSH1 0x20 ADD PUSH2 0xA49 SWAP1 PUSH2 0x1DD2 JUMP JUMPDEST PUSH1 0x40 MLOAD PUSH1 0x20 DUP2 DUP4 SUB SUB DUP2 MSTORE SWAP1 PUSH1 0x40 MSTORE DUP1 MLOAD SWAP1 PUSH1 0x20 ADD KECCAK256 DUP2 MSTORE PUSH1 0x20 ADD SWAP1 DUP2 MSTORE PUSH1 0x20 ADD PUSH1 0x0 KECCAK256 PUSH1 0x0 ADD SWAP1 DUP2 PUSH2 0xA7C SWAP2 SWAP1 PUSH2 0x1F08 JUMP JUMPDEST POP PUSH1 0x1 DUP2 PUSH1 0x4 ADD PUSH1 0x0 PUSH1 0x40 MLOAD PUSH1 0x20 ADD PUSH2 0xA94 SWAP1 PUSH2 0x1DD2 JUMP JUMPDEST PUSH1 0x40 MLOAD PUSH1 0x20 DUP2 DUP4 SUB SUB DUP2 MSTORE SWAP1 PUSH1 0x40 MSTORE DUP1 MLOAD SWAP1 PUSH1 0x20 ADD KECCAK256 DUP2 MSTORE PUSH1 0x20 ADD SWAP1 DUP2 MSTORE PUSH1 0x20 ADD PUSH1 0x0 KECCAK256 PUSH1 0x1 ADD PUSH1 0x0 PUSH2 0x100 EXP DUP2 SLOAD DUP2 PUSH1 0xFF MUL NOT AND SWAP1 DUP4 ISZERO ISZERO MUL OR SWAP1 SSTORE POP PUSH2 0xB44 PUSH1 0x40 MLOAD PUSH1 0x20 ADD PUSH2 0xAE4 SWAP1 PUSH2 0x1E4C JUMP JUMPDEST PUSH1 0x40 MLOAD PUSH1 0x20 DUP2 DUP4 SUB SUB DUP2 MSTORE SWAP1 PUSH1 0x40 MSTORE DUP1 MLOAD SWAP1 PUSH1 0x20 ADD KECCAK256 DUP3 PUSH1 0x4 ADD PUSH1 0x0 PUSH1 0x40 MLOAD PUSH1 0x20 ADD PUSH2 0xB0F SWAP1 PUSH2 0x1DD2 JUMP JUMPDEST PUSH1 0x40 MLOAD PUSH1 0x20 DUP2 DUP4 SUB SUB DUP2 MSTORE SWAP1 PUSH1 0x40 MSTORE DUP1 MLOAD SWAP1 PUSH1 0x20 ADD KECCAK256 DUP2 MSTORE PUSH1 0x20 ADD SWAP1 DUP2 MSTORE PUSH1 0x20 ADD PUSH1 0x0 KECCAK256 PUSH1 0x2 ADD PUSH2 0x1BAE SWAP1 SWAP2 SWAP1 PUSH4 0xFFFFFFFF AND JUMP JUMPDEST POP PUSH2 0xB57 PUSH1 0x40 MLOAD PUSH1 0x20 ADD PUSH2 0xAE4 SWAP1 PUSH2 0x1E7F JUMP JUMPDEST POP PUSH1 0x40 MLOAD DUP1 PUSH1 0x40 ADD PUSH1 0x40 MSTORE DUP1 PUSH1 0x14 DUP2 MSTORE PUSH1 0x20 ADD PUSH20 0x4C4956454C595F47454E4552414C5F5245414C4D PUSH1 0x60 SHL DUP2 MSTORE POP DUP2 PUSH1 0x3 ADD PUSH1 0x0 PUSH1 0x40 MLOAD PUSH1 0x20 ADD PUSH2 0xB9A SWAP1 PUSH2 0x1E2C JUMP JUMPDEST PUSH1 0x40 MLOAD PUSH1 0x20 DUP2 DUP4 SUB SUB DUP2 MSTORE SWAP1 PUSH1 0x40 MSTORE DUP1 MLOAD SWAP1 PUSH1 0x20 ADD KECCAK256 DUP2 MSTORE PUSH1 0x20 ADD SWAP1 DUP2 MSTORE PUSH1 0x20 ADD PUSH1 0x0 KECCAK256 PUSH1 0x0 ADD SWAP1 DUP2 PUSH2 0xBCD SWAP2 SWAP1 PUSH2 0x1F08 JUMP JUMPDEST POP PUSH1 0x1 DUP2 PUSH1 0x3 ADD PUSH1 0x0 PUSH1 0x40 MLOAD PUSH1 0x20 ADD PUSH2 0xBE5 SWAP1 PUSH2 0x1E2C JUMP JUMPDEST PUSH1 0x40 MLOAD PUSH1 0x20 DUP2 DUP4 SUB SUB DUP2 MSTORE SWAP1 PUSH1 0x40 MSTORE DUP1 MLOAD SWAP1 PUSH1 0x20 ADD KECCAK256 DUP2 MSTORE PUSH1 0x20 ADD SWAP1 DUP2 MSTORE PUSH1 0x20 ADD PUSH1 0x0 KECCAK256 PUSH1 0x1 ADD PUSH1 0x0 PUSH2 0x100 EXP DUP2 SLOAD DUP2 PUSH1 0xFF MUL NOT AND SWAP1 DUP4 ISZERO ISZERO MUL OR SWAP1 SSTORE POP PUSH1 0x1 DUP2 PUSH1 0x3 ADD PUSH1 0x0 PUSH1 0x40 MLOAD PUSH1 0x20 ADD PUSH2 0xC3A SWAP1 PUSH2 0x1E2C JUMP JUMPDEST PUSH1 0x40 DUP1 MLOAD PUSH1 0x1F NOT DUP2 DUP5 SUB ADD DUP2 MSTORE SWAP2 DUP2 MSTORE DUP2 MLOAD PUSH1 0x20 SWAP3 DUP4 ADD KECCAK256 DUP4 MSTORE DUP3 DUP3 ADD SWAP4 SWAP1 SWAP4 MSTORE SWAP1 DUP3 ADD PUSH1 0x0 KECCAK256 PUSH1 0x1 ADD DUP1 SLOAD SWAP4 ISZERO ISZERO PUSH2 0x100 MUL PUSH2 0xFF00 NOT SWAP1 SWAP5 AND SWAP4 SWAP1 SWAP4 OR SWAP1 SWAP3 SSTORE DUP1 MLOAD ADDRESS PUSH1 0x60 SHL PUSH12 0xFFFFFFFFFFFFFFFFFFFFFFFF NOT AND DUP2 DUP5 ADD MSTORE DUP2 MLOAD PUSH1 0x14 DUP2 DUP4 SUB ADD DUP2 MSTORE PUSH1 0x34 SWAP1 SWAP2 ADD SWAP1 SWAP2 MSTORE DUP1 MLOAD SWAP2 ADD KECCAK256 PUSH2 0xCC4 SWAP1 DUP3 PUSH1 0x3 ADD PUSH1 0x0 PUSH1 0x40 MLOAD PUSH1 0x20 ADD PUSH2 0xB0F SWAP1 PUSH2 0x1E2C JUMP JUMPDEST POP POP JUMP JUMPDEST PUSH1 0x1 PUSH1 0x1 PUSH1 0xA0 SHL SUB DUP2 AND PUSH1 0x0 SWAP1 DUP2 MSTORE PUSH1 0x20 DUP4 DUP2 MSTORE PUSH1 0x40 DUP1 DUP4 KECCAK256 SWAP1 MLOAD PUSH1 0x1 SWAP3 DUP5 SWAP2 PUSH2 0xCF2 SWAP2 ADD PUSH2 0x1E7F JUMP JUMPDEST PUSH1 0x40 DUP1 MLOAD PUSH1 0x1F NOT DUP2 DUP5 SUB ADD DUP2 MSTORE SWAP2 DUP2 MSTORE DUP2 MLOAD PUSH1 0x20 SWAP3 DUP4 ADD KECCAK256 DUP4 MSTORE SWAP1 DUP3 ADD SWAP3 SWAP1 SWAP3 MSTORE ADD PUSH1 0x0 KECCAK256 SLOAD PUSH1 0xFF AND PUSH1 0x2 DUP2 GT ISZERO PUSH2 0xD2C JUMPI PUSH2 0xD2C PUSH2 0x1E69 JUMP JUMPDEST EQ SWAP4 SWAP3 POP POP POP JUMP JUMPDEST PUSH1 0x0 DUP4 DUP2 MSTORE PUSH1 0x1 DUP6 ADD PUSH1 0x20 SWAP1 DUP2 MSTORE PUSH1 0x40 DUP1 DUP4 KECCAK256 PUSH1 0x1 PUSH1 0x1 PUSH1 0xE0 SHL SUB NOT DUP6 AND DUP5 MSTORE PUSH1 0x2 ADD DUP3 MSTORE DUP1 DUP4 KECCAK256 SLOAD SWAP1 MLOAD SWAP1 SWAP2 PUSH2 0xD6B SWAP2 ADD PUSH2 0x1FC8 JUMP JUMPDEST PUSH1 0x40 MLOAD PUSH1 0x20 DUP2 DUP4 SUB SUB DUP2 MSTORE SWAP1 PUSH1 0x40 MSTORE DUP1 MLOAD SWAP1 PUSH1 0x20 ADD KECCAK256 DUP2 SUB PUSH2 0xDF9 JUMPI PUSH1 0x0 DUP6 DUP2 MSTORE PUSH1 0x1 DUP8 DUP2 ADD PUSH1 0x20 MSTORE PUSH1 0x40 SWAP1 SWAP2 KECCAK256 ADD SLOAD PUSH1 0x1 PUSH1 0xA0 SHL SWAP1 DIV PUSH1 0xFF AND DUP1 ISZERO PUSH2 0xDF1 JUMPI POP PUSH1 0x1 PUSH1 0x0 DUP7 DUP2 MSTORE PUSH1 0x1 DUP1 DUP10 ADD PUSH1 0x20 SWAP1 DUP2 MSTORE PUSH1 0x40 DUP1 DUP5 KECCAK256 PUSH1 0x1 PUSH1 0x1 PUSH1 0xE0 SHL SUB NOT DUP10 AND DUP6 MSTORE PUSH1 0x2 SWAP1 DUP2 ADD SWAP1 SWAP3 MSTORE SWAP1 SWAP3 KECCAK256 ADD SLOAD PUSH1 0xFF AND SWAP1 DUP2 GT ISZERO PUSH2 0xDEF JUMPI PUSH2 0xDEF PUSH2 0x1E69 JUMP JUMPDEST EQ JUMPDEST SWAP2 POP POP PUSH2 0xF02 JUMP JUMPDEST PUSH1 0x0 DUP6 DUP2 MSTORE PUSH1 0x1 DUP8 DUP2 ADD PUSH1 0x20 MSTORE PUSH1 0x40 SWAP1 SWAP2 KECCAK256 ADD SLOAD PUSH1 0x1 PUSH1 0xA0 SHL SWAP1 DIV PUSH1 0xFF AND DUP1 ISZERO PUSH2 0xE63 JUMPI POP PUSH1 0x1 PUSH1 0x0 DUP7 DUP2 MSTORE PUSH1 0x1 DUP1 DUP10 ADD PUSH1 0x20 SWAP1 DUP2 MSTORE PUSH1 0x40 DUP1 DUP5 KECCAK256 PUSH1 0x1 PUSH1 0x1 PUSH1 0xE0 SHL SUB NOT DUP10 AND DUP6 MSTORE PUSH1 0x2 SWAP1 DUP2 ADD SWAP1 SWAP3 MSTORE SWAP1 SWAP3 KECCAK256 ADD SLOAD PUSH1 0xFF AND SWAP1 DUP2 GT ISZERO PUSH2 0xE61 JUMPI PUSH2 0xE61 PUSH2 0x1E69 JUMP JUMPDEST EQ JUMPDEST DUP1 ISZERO PUSH2 0xE91 JUMPI POP PUSH1 0x0 DUP6 DUP2 MSTORE PUSH1 0x1 DUP1 DUP9 ADD PUSH1 0x20 SWAP1 DUP2 MSTORE PUSH1 0x40 DUP1 DUP5 KECCAK256 SLOAD DUP5 MSTORE PUSH1 0x3 DUP11 ADD SWAP1 SWAP2 MSTORE SWAP1 SWAP2 KECCAK256 ADD SLOAD PUSH1 0xFF AND JUMPDEST DUP1 ISZERO PUSH2 0xEC3 JUMPI POP PUSH1 0x0 DUP2 DUP2 MSTORE PUSH1 0x2 DUP8 ADD PUSH1 0x20 SWAP1 DUP2 MSTORE PUSH1 0x40 DUP1 DUP4 KECCAK256 PUSH1 0x1 SWAP1 DUP2 ADD SLOAD DUP5 MSTORE PUSH1 0x4 DUP11 ADD SWAP1 SWAP3 MSTORE SWAP1 SWAP2 KECCAK256 ADD SLOAD PUSH1 0xFF AND JUMPDEST DUP1 ISZERO PUSH2 0xDF1 JUMPI POP PUSH1 0x1 PUSH1 0x1 PUSH1 0x1 PUSH1 0xA0 SHL SUB DUP6 AND PUSH1 0x0 SWAP1 DUP2 MSTORE PUSH1 0x20 DUP9 DUP2 MSTORE PUSH1 0x40 DUP1 DUP4 KECCAK256 DUP6 DUP5 MSTORE SWAP1 SWAP2 MSTORE SWAP1 KECCAK256 SLOAD PUSH1 0xFF AND PUSH1 0x2 DUP2 GT ISZERO PUSH2 0xDEF JUMPI PUSH2 0xDEF PUSH2 0x1E69 JUMP JUMPDEST SWAP5 SWAP4 POP POP POP POP JUMP JUMPDEST PUSH1 0x40 MLOAD PUSH1 0x20 ADD PUSH2 0x46B SWAP1 PUSH2 0x1E7F JUMP JUMPDEST PUSH1 0x40 DUP1 MLOAD PUSH1 0x2 DUP1 DUP3 MSTORE PUSH1 0x60 DUP3 DUP2 ADD SWAP1 SWAP4 MSTORE PUSH1 0x0 SWAP2 SWAP1 DUP2 PUSH1 0x20 ADD JUMPDEST PUSH1 0x40 DUP1 MLOAD PUSH1 0x60 DUP1 DUP3 ADD DUP4 MSTORE PUSH1 0x0 DUP1 DUP4 MSTORE PUSH1 0x20 DUP4 ADD SWAP2 SWAP1 SWAP2 MSTORE SWAP2 DUP2 ADD SWAP2 SWAP1 SWAP2 MSTORE DUP2 MSTORE PUSH1 0x20 ADD SWAP1 PUSH1 0x1 SWAP1 SUB SWAP1 DUP2 PUSH2 0xF33 JUMPI SWAP1 POP POP SWAP1 POP PUSH1 0x40 MLOAD PUSH1 0x20 ADD PUSH2 0xF76 SWAP1 PUSH2 0x1E4C JUMP JUMPDEST PUSH1 0x40 MLOAD PUSH1 0x20 DUP2 DUP4 SUB SUB DUP2 MSTORE SWAP1 PUSH1 0x40 MSTORE DUP1 MLOAD SWAP1 PUSH1 0x20 ADD KECCAK256 DUP2 PUSH1 0x0 DUP2 MLOAD DUP2 LT PUSH2 0xF9F JUMPI PUSH2 0xF9F PUSH2 0x1FE9 JUMP JUMPDEST PUSH1 0x20 MUL PUSH1 0x20 ADD ADD MLOAD PUSH1 0x0 ADD DUP2 DUP2 MSTORE POP POP PUSH1 0x1 DUP2 PUSH1 0x0 DUP2 MLOAD DUP2 LT PUSH2 0xFC4 JUMPI PUSH2 0xFC4 PUSH2 0x1FE9 JUMP JUMPDEST PUSH1 0x20 SWAP1 DUP2 MUL SWAP2 SWAP1 SWAP2 ADD DUP2 ADD MLOAD SWAP2 ISZERO ISZERO PUSH1 0x40 SWAP3 DUP4 ADD MSTORE DUP2 MLOAD PUSH1 0x12 DUP1 DUP3 MSTORE PUSH2 0x260 DUP3 ADD SWAP1 SWAP4 MSTORE SWAP2 SWAP1 DUP3 ADD PUSH2 0x240 DUP1 CALLDATASIZE DUP4 CALLDATACOPY ADD SWAP1 POP POP DUP2 PUSH1 0x0 DUP2 MLOAD DUP2 LT PUSH2 0x100A JUMPI PUSH2 0x100A PUSH2 0x1FE9 JUMP JUMPDEST PUSH1 0x20 MUL PUSH1 0x20 ADD ADD MLOAD PUSH1 0x20 ADD DUP2 SWAP1 MSTORE POP PUSH4 0x48E6BE1C PUSH1 0xE0 SHL DUP2 PUSH1 0x0 DUP2 MLOAD DUP2 LT PUSH2 0x1034 JUMPI PUSH2 0x1034 PUSH2 0x1FE9 JUMP JUMPDEST PUSH1 0x20 MUL PUSH1 0x20 ADD ADD MLOAD PUSH1 0x20 ADD MLOAD PUSH1 0x0 DUP2 MLOAD DUP2 LT PUSH2 0x1052 JUMPI PUSH2 0x1052 PUSH2 0x1FE9 JUMP JUMPDEST PUSH1 0x1 PUSH1 0x1 PUSH1 0xE0 SHL SUB NOT SWAP1 SWAP3 AND PUSH1 0x20 SWAP3 DUP4 MUL SWAP2 SWAP1 SWAP2 ADD SWAP1 SWAP2 ADD MSTORE DUP1 MLOAD PUSH4 0x31C0493 PUSH1 0xE0 SHL SWAP1 DUP3 SWAP1 PUSH1 0x0 SWAP1 PUSH2 0x1087 JUMPI PUSH2 0x1087 PUSH2 0x1FE9 JUMP JUMPDEST PUSH1 0x20 MUL PUSH1 0x20 ADD ADD MLOAD PUSH1 0x20 ADD MLOAD PUSH1 0x1 DUP2 MLOAD DUP2 LT PUSH2 0x10A5 JUMPI PUSH2 0x10A5 PUSH2 0x1FE9 JUMP JUMPDEST PUSH1 0x1 PUSH1 0x1 PUSH1 0xE0 SHL SUB NOT SWAP1 SWAP3 AND PUSH1 0x20 SWAP3 DUP4 MUL SWAP2 SWAP1 SWAP2 ADD SWAP1 SWAP2 ADD MSTORE DUP1 MLOAD PUSH4 0x5AC4B36F PUSH1 0xE1 SHL SWAP1 DUP3 SWAP1 PUSH1 0x0 SWAP1 PUSH2 0x10DA JUMPI PUSH2 0x10DA PUSH2 0x1FE9 JUMP JUMPDEST PUSH1 0x20 MUL PUSH1 0x20 ADD ADD MLOAD PUSH1 0x20 ADD MLOAD PUSH1 0x2 DUP2 MLOAD DUP2 LT PUSH2 0x10F8 JUMPI PUSH2 0x10F8 PUSH2 0x1FE9 JUMP JUMPDEST PUSH1 0x1 PUSH1 0x1 PUSH1 0xE0 SHL SUB NOT SWAP1 SWAP3 AND PUSH1 0x20 SWAP3 DUP4 MUL SWAP2 SWAP1 SWAP2 ADD SWAP1 SWAP2 ADD MSTORE DUP1 MLOAD PUSH4 0x771BCF45 PUSH1 0xE0 SHL SWAP1 DUP3 SWAP1 PUSH1 0x0 SWAP1 PUSH2 0x112D JUMPI PUSH2 0x112D PUSH2 0x1FE9 JUMP JUMPDEST PUSH1 0x20 MUL PUSH1 0x20 ADD ADD MLOAD PUSH1 0x20 ADD MLOAD PUSH1 0x3 DUP2 MLOAD DUP2 LT PUSH2 0x114B JUMPI PUSH2 0x114B PUSH2 0x1FE9 JUMP JUMPDEST PUSH1 0x1 PUSH1 0x1 PUSH1 0xE0 SHL SUB NOT SWAP1 SWAP3 AND PUSH1 0x20 SWAP3 DUP4 MUL SWAP2 SWAP1 SWAP2 ADD SWAP1 SWAP2 ADD MSTORE DUP1 MLOAD PUSH4 0x4346A04B PUSH1 0xE0 SHL SWAP1 DUP3 SWAP1 PUSH1 0x0 SWAP1 PUSH2 0x1180 JUMPI PUSH2 0x1180 PUSH2 0x1FE9 JUMP JUMPDEST PUSH1 0x20 MUL PUSH1 0x20 ADD ADD MLOAD PUSH1 0x20 ADD MLOAD PUSH1 0x4 DUP2 MLOAD DUP2 LT PUSH2 0x119E JUMPI PUSH2 0x119E PUSH2 0x1FE9 JUMP JUMPDEST PUSH1 0x1 PUSH1 0x1 PUSH1 0xE0 SHL SUB NOT SWAP1 SWAP3 AND PUSH1 0x20 SWAP3 DUP4 MUL SWAP2 SWAP1 SWAP2 ADD SWAP1 SWAP2 ADD MSTORE DUP1 MLOAD PUSH4 0xD3386401 PUSH1 0xE0 SHL SWAP1 DUP3 SWAP1 PUSH1 0x0 SWAP1 PUSH2 0x11D3 JUMPI PUSH2 0x11D3 PUSH2 0x1FE9 JUMP JUMPDEST PUSH1 0x20 MUL PUSH1 0x20 ADD ADD MLOAD PUSH1 0x20 ADD MLOAD PUSH1 0x5 DUP2 MLOAD DUP2 LT PUSH2 0x11F1 JUMPI PUSH2 0x11F1 PUSH2 0x1FE9 JUMP JUMPDEST PUSH1 0x1 PUSH1 0x1 PUSH1 0xE0 SHL SUB NOT SWAP1 SWAP3 AND PUSH1 0x20 SWAP3 DUP4 MUL SWAP2 SWAP1 SWAP2 ADD SWAP1 SWAP2 ADD MSTORE DUP1 MLOAD PUSH4 0x70420EE3 PUSH1 0xE0 SHL SWAP1 DUP3 SWAP1 PUSH1 0x0 SWAP1 PUSH2 0x1226 JUMPI PUSH2 0x1226 PUSH2 0x1FE9 JUMP JUMPDEST PUSH1 0x20 MUL PUSH1 0x20 ADD ADD MLOAD PUSH1 0x20 ADD MLOAD PUSH1 0x6 DUP2 MLOAD DUP2 LT PUSH2 0x1244 JUMPI PUSH2 0x1244 PUSH2 0x1FE9 JUMP JUMPDEST PUSH1 0x1 PUSH1 0x1 PUSH1 0xE0 SHL SUB NOT SWAP1 SWAP3 AND PUSH1 0x20 SWAP3 DUP4 MUL SWAP2 SWAP1 SWAP2 ADD SWAP1 SWAP2 ADD MSTORE DUP1 MLOAD PUSH4 0xB2DC26E5 PUSH1 0xE0 SHL SWAP1 DUP3 SWAP1 PUSH1 0x0 SWAP1 PUSH2 0x1279 JUMPI PUSH2 0x1279 PUSH2 0x1FE9 JUMP JUMPDEST PUSH1 0x20 MUL PUSH1 0x20 ADD ADD MLOAD PUSH1 0x20 ADD MLOAD PUSH1 0x7 DUP2 MLOAD DUP2 LT PUSH2 0x1297 JUMPI PUSH2 0x1297 PUSH2 0x1FE9 JUMP JUMPDEST PUSH1 0x1 PUSH1 0x1 PUSH1 0xE0 SHL SUB NOT SWAP1 SWAP3 AND PUSH1 0x20 SWAP3 DUP4 MUL SWAP2 SWAP1 SWAP2 ADD SWAP1 SWAP2 ADD MSTORE DUP1 MLOAD PUSH4 0x8F09E0F PUSH1 0xE4 SHL SWAP1 DUP3 SWAP1 PUSH1 0x0 SWAP1 PUSH2 0x12CC JUMPI PUSH2 0x12CC PUSH2 0x1FE9 JUMP JUMPDEST PUSH1 0x20 MUL PUSH1 0x20 ADD ADD MLOAD PUSH1 0x20 ADD MLOAD PUSH1 0x8 DUP2 MLOAD DUP2 LT PUSH2 0x12EA JUMPI PUSH2 0x12EA PUSH2 0x1FE9 JUMP JUMPDEST PUSH1 0x1 PUSH1 0x1 PUSH1 0xE0 SHL SUB NOT SWAP1 SWAP3 AND PUSH1 0x20 SWAP3 DUP4 MUL SWAP2 SWAP1 SWAP2 ADD SWAP1 SWAP2 ADD MSTORE DUP1 MLOAD PUSH4 0xDF01DE45 PUSH1 0xE0 SHL SWAP1 DUP3 SWAP1 PUSH1 0x0 SWAP1 PUSH2 0x131F JUMPI PUSH2 0x131F PUSH2 0x1FE9 JUMP JUMPDEST PUSH1 0x20 MUL PUSH1 0x20 ADD ADD MLOAD PUSH1 0x20 ADD MLOAD PUSH1 0x9 DUP2 MLOAD DUP2 LT PUSH2 0x133D JUMPI PUSH2 0x133D PUSH2 0x1FE9 JUMP JUMPDEST PUSH1 0x1 PUSH1 0x1 PUSH1 0xE0 SHL SUB NOT SWAP1 SWAP3 AND PUSH1 0x20 SWAP3 DUP4 MUL SWAP2 SWAP1 SWAP2 ADD SWAP1 SWAP2 ADD MSTORE DUP1 MLOAD PUSH4 0x738F1127 PUSH1 0xE1 SHL SWAP1 DUP3 SWAP1 PUSH1 0x0 SWAP1 PUSH2 0x1372 JUMPI PUSH2 0x1372 PUSH2 0x1FE9 JUMP JUMPDEST PUSH1 0x20 MUL PUSH1 0x20 ADD ADD MLOAD PUSH1 0x20 ADD MLOAD PUSH1 0xA DUP2 MLOAD DUP2 LT PUSH2 0x1390 JUMPI PUSH2 0x1390 PUSH2 0x1FE9 JUMP JUMPDEST PUSH1 0x1 PUSH1 0x1 PUSH1 0xE0 SHL SUB NOT SWAP1 SWAP3 AND PUSH1 0x20 SWAP3 DUP4 MUL SWAP2 SWAP1 SWAP2 ADD SWAP1 SWAP2 ADD MSTORE DUP1 MLOAD PUSH4 0xDBF304B PUSH1 0xE4 SHL SWAP1 DUP3 SWAP1 PUSH1 0x0 SWAP1 PUSH2 0x13C5 JUMPI PUSH2 0x13C5 PUSH2 0x1FE9 JUMP JUMPDEST PUSH1 0x20 MUL PUSH1 0x20 ADD ADD MLOAD PUSH1 0x20 ADD MLOAD PUSH1 0xB DUP2 MLOAD DUP2 LT PUSH2 0x13E3 JUMPI PUSH2 0x13E3 PUSH2 0x1FE9 JUMP JUMPDEST PUSH1 0x1 PUSH1 0x1 PUSH1 0xE0 SHL SUB NOT SWAP1 SWAP3 AND PUSH1 0x20 SWAP3 DUP4 MUL SWAP2 SWAP1 SWAP2 ADD SWAP1 SWAP2 ADD MSTORE DUP1 MLOAD PUSH4 0x7E99337 PUSH1 0xE3 SHL SWAP1 DUP3 SWAP1 PUSH1 0x0 SWAP1 PUSH2 0x1418 JUMPI PUSH2 0x1418 PUSH2 0x1FE9 JUMP JUMPDEST PUSH1 0x20 MUL PUSH1 0x20 ADD ADD MLOAD PUSH1 0x20 ADD MLOAD PUSH1 0xC DUP2 MLOAD DUP2 LT PUSH2 0x1436 JUMPI PUSH2 0x1436 PUSH2 0x1FE9 JUMP JUMPDEST PUSH1 0x1 PUSH1 0x1 PUSH1 0xE0 SHL SUB NOT SWAP1 SWAP3 AND PUSH1 0x20 SWAP3 DUP4 MUL SWAP2 SWAP1 SWAP2 ADD SWAP1 SWAP2 ADD MSTORE DUP1 MLOAD PUSH4 0xB6C03F03 PUSH1 0xE0 SHL SWAP1 DUP3 SWAP1 PUSH1 0x0 SWAP1 PUSH2 0x146B JUMPI PUSH2 0x146B PUSH2 0x1FE9 JUMP JUMPDEST PUSH1 0x20 MUL PUSH1 0x20 ADD ADD MLOAD PUSH1 0x20 ADD MLOAD PUSH1 0xD DUP2 MLOAD DUP2 LT PUSH2 0x1489 JUMPI PUSH2 0x1489 PUSH2 0x1FE9 JUMP JUMPDEST PUSH1 0x1 PUSH1 0x1 PUSH1 0xE0 SHL SUB NOT SWAP1 SWAP3 AND PUSH1 0x20 SWAP3 DUP4 MUL SWAP2 SWAP1 SWAP2 ADD SWAP1 SWAP2 ADD MSTORE DUP1 MLOAD PUSH4 0x12EC6FA3 PUSH1 0xE2 SHL SWAP1 DUP3 SWAP1 PUSH1 0x0 SWAP1 PUSH2 0x14BE JUMPI PUSH2 0x14BE PUSH2 0x1FE9 JUMP JUMPDEST PUSH1 0x20 MUL PUSH1 0x20 ADD ADD MLOAD PUSH1 0x20 ADD MLOAD PUSH1 0xE DUP2 MLOAD DUP2 LT PUSH2 0x14DC JUMPI PUSH2 0x14DC PUSH2 0x1FE9 JUMP JUMPDEST PUSH1 0x1 PUSH1 0x1 PUSH1 0xE0 SHL SUB NOT SWAP1 SWAP3 AND PUSH1 0x20 SWAP3 DUP4 MUL SWAP2 SWAP1 SWAP2 ADD SWAP1 SWAP2 ADD MSTORE DUP1 MLOAD PUSH4 0x22DF6F5B PUSH1 0xE2 SHL SWAP1 DUP3 SWAP1 PUSH1 0x0 SWAP1 PUSH2 0x1511 JUMPI PUSH2 0x1511 PUSH2 0x1FE9 JUMP JUMPDEST PUSH1 0x20 MUL PUSH1 0x20 ADD ADD MLOAD PUSH1 0x20 ADD MLOAD PUSH1 0xF DUP2 MLOAD DUP2 LT PUSH2 0x152F JUMPI PUSH2 0x152F PUSH2 0x1FE9 JUMP JUMPDEST PUSH1 0x1 PUSH1 0x1 PUSH1 0xE0 SHL SUB NOT SWAP1 SWAP3 AND PUSH1 0x20 SWAP3 DUP4 MUL SWAP2 SWAP1 SWAP2 ADD SWAP1 SWAP2 ADD MSTORE DUP1 MLOAD PUSH4 0xF2C673BD PUSH1 0xE0 SHL SWAP1 DUP3 SWAP1 PUSH1 0x0 SWAP1 PUSH2 0x1564 JUMPI PUSH2 0x1564 PUSH2 0x1FE9 JUMP JUMPDEST PUSH1 0x20 MUL PUSH1 0x20 ADD ADD MLOAD PUSH1 0x20 ADD MLOAD PUSH1 0x10 DUP2 MLOAD DUP2 LT PUSH2 0x1582 JUMPI PUSH2 0x1582 PUSH2 0x1FE9 JUMP JUMPDEST PUSH1 0x20 MUL PUSH1 0x20 ADD ADD SWAP1 PUSH1 0x1 PUSH1 0x1 PUSH1 0xE0 SHL SUB NOT AND SWAP1 DUP2 PUSH1 0x1 PUSH1 0x1 PUSH1 0xE0 SHL SUB NOT AND DUP2 MSTORE POP POP PUSH32 0x756AF45F4CE05D832BEE0C171992C529AD6D3CA8E13303D78FEACE2F8FD7FAF2 DUP2 PUSH1 0x0 DUP2 MLOAD DUP2 LT PUSH2 0x15D8 JUMPI PUSH2 0x15D8 PUSH2 0x1FE9 JUMP JUMPDEST PUSH1 0x20 MUL PUSH1 0x20 ADD ADD MLOAD PUSH1 0x20 ADD MLOAD PUSH1 0x11 DUP2 MLOAD DUP2 LT PUSH2 0x15F6 JUMPI PUSH2 0x15F6 PUSH2 0x1FE9 JUMP JUMPDEST PUSH1 0x1 PUSH1 0x1 PUSH1 0xE0 SHL SUB NOT SWAP1 SWAP3 AND PUSH1 0x20 SWAP3 DUP4 MUL SWAP2 SWAP1 SWAP2 ADD DUP3 ADD MSTORE PUSH1 0x40 MLOAD PUSH2 0x161B SWAP2 ADD PUSH2 0x1E7F JUMP JUMPDEST PUSH1 0x40 MLOAD PUSH1 0x20 DUP2 DUP4 SUB SUB DUP2 MSTORE SWAP1 PUSH1 0x40 MSTORE DUP1 MLOAD SWAP1 PUSH1 0x20 ADD KECCAK256 DUP2 PUSH1 0x1 DUP2 MLOAD DUP2 LT PUSH2 0x1644 JUMPI PUSH2 0x1644 PUSH2 0x1FE9 JUMP JUMPDEST PUSH1 0x20 MUL PUSH1 0x20 ADD ADD MLOAD PUSH1 0x0 ADD DUP2 DUP2 MSTORE POP POP PUSH1 0x1 DUP2 PUSH1 0x1 DUP2 MLOAD DUP2 LT PUSH2 0x1669 JUMPI PUSH2 0x1669 PUSH2 0x1FE9 JUMP JUMPDEST PUSH1 0x20 SWAP1 DUP2 MUL SWAP2 SWAP1 SWAP2 ADD DUP2 ADD MLOAD SWAP2 ISZERO ISZERO PUSH1 0x40 SWAP3 DUP4 ADD MSTORE DUP2 MLOAD PUSH1 0x5 DUP1 DUP3 MSTORE PUSH1 0xC0 DUP3 ADD SWAP1 SWAP4 MSTORE SWAP2 SWAP1 DUP3 ADD PUSH1 0xA0 DUP1 CALLDATASIZE DUP4 CALLDATACOPY ADD SWAP1 POP POP DUP2 PUSH1 0x1 DUP2 MLOAD DUP2 LT PUSH2 0x16AD JUMPI PUSH2 0x16AD PUSH2 0x1FE9 JUMP JUMPDEST PUSH1 0x20 MUL PUSH1 0x20 ADD ADD MLOAD PUSH1 0x20 ADD DUP2 SWAP1 MSTORE POP PUSH4 0xD9DC1F19 PUSH1 0xE0 SHL DUP2 PUSH1 0x1 DUP2 MLOAD DUP2 LT PUSH2 0x16D7 JUMPI PUSH2 0x16D7 PUSH2 0x1FE9 JUMP JUMPDEST PUSH1 0x20 MUL PUSH1 0x20 ADD ADD MLOAD PUSH1 0x20 ADD MLOAD PUSH1 0x0 DUP2 MLOAD DUP2 LT PUSH2 0x16F5 JUMPI PUSH2 0x16F5 PUSH2 0x1FE9 JUMP JUMPDEST PUSH1 0x1 PUSH1 0x1 PUSH1 0xE0 SHL SUB NOT SWAP1 SWAP3 AND PUSH1 0x20 SWAP3 DUP4 MUL SWAP2 SWAP1 SWAP2 ADD SWAP1 SWAP2 ADD MSTORE DUP1 MLOAD PUSH4 0x225BF2F9 PUSH1 0xE1 SHL SWAP1 DUP3 SWAP1 PUSH1 0x1 SWAP1 DUP2 LT PUSH2 0x172C JUMPI PUSH2 0x172C PUSH2 0x1FE9 JUMP JUMPDEST PUSH1 0x20 MUL PUSH1 0x20 ADD ADD MLOAD PUSH1 0x20 ADD MLOAD PUSH1 0x1 DUP2 MLOAD DUP2 LT PUSH2 0x174A JUMPI PUSH2 0x174A PUSH2 0x1FE9 JUMP JUMPDEST PUSH1 0x1 PUSH1 0x1 PUSH1 0xE0 SHL SUB NOT SWAP1 SWAP3 AND PUSH1 0x20 SWAP3 DUP4 MUL SWAP2 SWAP1 SWAP2 ADD SWAP1 SWAP2 ADD MSTORE DUP1 MLOAD PUSH4 0x7147855D PUSH1 0xE0 SHL SWAP1 DUP3 SWAP1 PUSH1 0x1 SWAP1 DUP2 LT PUSH2 0x1781 JUMPI PUSH2 0x1781 PUSH2 0x1FE9 JUMP JUMPDEST PUSH1 0x20 MUL PUSH1 0x20 ADD ADD MLOAD PUSH1 0x20 ADD MLOAD PUSH1 0x2 DUP2 MLOAD DUP2 LT PUSH2 0x179F JUMPI PUSH2 0x179F PUSH2 0x1FE9 JUMP JUMPDEST PUSH1 0x1 PUSH1 0x1 PUSH1 0xE0 SHL SUB NOT SWAP1 SWAP3 AND PUSH1 0x20 SWAP3 DUP4 MUL SWAP2 SWAP1 SWAP2 ADD SWAP1 SWAP2 ADD MSTORE DUP1 MLOAD PUSH4 0x78EFA4ED PUSH1 0xE1 SHL SWAP1 DUP3 SWAP1 PUSH1 0x1 SWAP1 DUP2 LT PUSH2 0x17D6 JUMPI PUSH2 0x17D6 PUSH2 0x1FE9 JUMP JUMPDEST PUSH1 0x20 MUL PUSH1 0x20 ADD ADD MLOAD PUSH1 0x20 ADD MLOAD PUSH1 0x3 DUP2 MLOAD DUP2 LT PUSH2 0x17F4 JUMPI PUSH2 0x17F4 PUSH2 0x1FE9 JUMP JUMPDEST PUSH1 0x1 PUSH1 0x1 PUSH1 0xE0 SHL SUB NOT SWAP1 SWAP3 AND PUSH1 0x20 SWAP3 DUP4 MUL SWAP2 SWAP1 SWAP2 ADD SWAP1 SWAP2 ADD MSTORE DUP1 MLOAD PUSH4 0x1CCB7C8D PUSH1 0xE3 SHL SWAP1 DUP3 SWAP1 PUSH1 0x1 SWAP1 DUP2 LT PUSH2 0x182B JUMPI PUSH2 0x182B PUSH2 0x1FE9 JUMP JUMPDEST PUSH1 0x20 MUL PUSH1 0x20 ADD ADD MLOAD PUSH1 0x20 ADD MLOAD PUSH1 0x4 DUP2 MLOAD DUP2 LT PUSH2 0x1849 JUMPI PUSH2 0x1849 PUSH2 0x1FE9 JUMP JUMPDEST PUSH1 0x1 PUSH1 0x1 PUSH1 0xE0 SHL SUB NOT SWAP1 SWAP3 AND PUSH1 0x20 SWAP3 DUP4 MUL SWAP2 SWAP1 SWAP2 ADD SWAP1 SWAP2 ADD MSTORE SWAP2 SWAP1 POP JUMP JUMPDEST PUSH1 0x0 PUSH2 0x40C DUP3 DUP5 PUSH1 0x3 ADD PUSH1 0x0 PUSH1 0x40 MLOAD PUSH1 0x20 ADD PUSH2 0x3D7 SWAP1 PUSH2 0x1E2C JUMP JUMPDEST PUSH1 0x0 DUP2 DUP2 MSTORE PUSH1 0x3 DUP4 ADD PUSH1 0x20 MSTORE PUSH1 0x40 DUP2 KECCAK256 DUP1 SLOAD PUSH2 0x189D SWAP1 PUSH2 0x1DF2 JUMP JUMPDEST SWAP1 POP PUSH1 0x0 SUB PUSH2 0x18AE JUMPI POP PUSH1 0x0 PUSH2 0x40F JUMP JUMPDEST POP PUSH1 0x0 SWAP1 DUP2 MSTORE PUSH1 0x3 SWAP2 SWAP1 SWAP2 ADD PUSH1 0x20 MSTORE PUSH1 0x40 SWAP1 KECCAK256 PUSH1 0x1 ADD SLOAD PUSH2 0x100 SWAP1 DIV PUSH1 0xFF AND SWAP1 JUMP JUMPDEST PUSH1 0x40 MLOAD PUSH1 0x20 ADD PUSH2 0x46B SWAP1 PUSH2 0x1DD2 JUMP JUMPDEST PUSH1 0x0 DUP2 DUP2 MSTORE PUSH1 0x3 DUP4 ADD PUSH1 0x20 MSTORE PUSH1 0x40 DUP2 KECCAK256 DUP1 SLOAD DUP3 SWAP2 SWAP1 PUSH2 0x18FD SWAP1 PUSH2 0x1DF2 JUMP JUMPDEST SWAP1 POP GT DUP1 ISZERO PUSH2 0x40C JUMPI POP POP PUSH1 0x0 SWAP1 DUP2 MSTORE PUSH1 0x3 SWAP2 SWAP1 SWAP2 ADD PUSH1 0x20 MSTORE PUSH1 0x40 SWAP1 KECCAK256 PUSH1 0x1 ADD SLOAD PUSH1 0xFF AND SWAP1 JUMP JUMPDEST PUSH1 0x0 DUP2 DUP2 MSTORE PUSH1 0x1 DUP1 DUP5 ADD PUSH1 0x20 SWAP1 DUP2 MSTORE PUSH1 0x40 DUP1 DUP5 KECCAK256 SWAP1 SWAP3 ADD SLOAD DUP3 MLOAD PUSH4 0xBE22465D PUSH1 0xE0 SHL DUP2 MSTORE SWAP3 MLOAD PUSH1 0x1 PUSH1 0x1 PUSH1 0xA0 SHL SUB SWAP1 SWAP2 AND SWAP3 PUSH4 0xBE22465D SWAP3 PUSH1 0x4 DUP1 DUP4 ADD SWAP4 SWAP2 SWAP3 DUP3 SWAP1 SUB ADD DUP2 DUP7 GAS STATICCALL ISZERO DUP1 ISZERO PUSH2 0x197D JUMPI RETURNDATASIZE PUSH1 0x0 DUP1 RETURNDATACOPY RETURNDATASIZE PUSH1 0x0 REVERT JUMPDEST POP POP POP POP PUSH1 0x40 MLOAD RETURNDATASIZE PUSH1 0x1F NOT PUSH1 0x1F DUP3 ADD AND DUP3 ADD DUP1 PUSH1 0x40 MSTORE POP DUP2 ADD SWAP1 PUSH2 0x40C SWAP2 SWAP1 PUSH2 0x1FFF JUMP JUMPDEST PUSH1 0x40 MLOAD PUSH1 0x20 ADD PUSH2 0x46B SWAP1 PUSH2 0x1FC8 JUMP JUMPDEST PUSH1 0x0 DUP3 DUP2 MSTORE PUSH1 0x1 DUP1 DUP6 ADD PUSH1 0x20 MSTORE PUSH1 0x40 DUP3 KECCAK256 ADD SLOAD PUSH1 0x1 PUSH1 0x1 PUSH1 0xA0 SHL SUB AND ISZERO DUP1 ISZERO SWAP1 PUSH2 0xF02 JUMPI POP PUSH1 0x0 DUP4 DUP2 MSTORE PUSH1 0x1 DUP6 ADD PUSH1 0x20 MSTORE PUSH1 0x40 SWAP1 KECCAK256 PUSH2 0xF02 SWAP1 PUSH1 0x3 ADD PUSH1 0x1 PUSH1 0x1 PUSH1 0xE0 SHL SUB NOT DUP5 AND PUSH2 0x1B81 JUMP JUMPDEST PUSH1 0x0 DUP2 DUP2 MSTORE PUSH1 0x1 DUP1 DUP5 ADD PUSH1 0x20 SWAP1 DUP2 MSTORE PUSH1 0x40 DUP1 DUP5 KECCAK256 SWAP1 SWAP3 ADD SLOAD DUP3 MLOAD PUSH4 0x151E765 PUSH1 0xE6 SHL DUP2 MSTORE SWAP3 MLOAD PUSH1 0x1 PUSH1 0x1 PUSH1 0xA0 SHL SUB SWAP1 SWAP2 AND SWAP3 PUSH4 0x5479D940 SWAP3 PUSH1 0x4 DUP1 DUP4 ADD SWAP4 SWAP2 SWAP3 DUP3 SWAP1 SUB ADD DUP2 DUP7 GAS STATICCALL ISZERO DUP1 ISZERO PUSH2 0x197D JUMPI RETURNDATASIZE PUSH1 0x0 DUP1 RETURNDATACOPY RETURNDATASIZE PUSH1 0x0 REVERT JUMPDEST PUSH1 0x40 MLOAD PUSH14 0x131058D8D95CDCD0DBDB9D1C9BDB PUSH1 0x92 SHL PUSH1 0x20 DUP3 ADD MSTORE PUSH1 0x2E ADD PUSH2 0x46B JUMP JUMPDEST PUSH1 0x40 MLOAD PUSH1 0x20 ADD PUSH2 0x46B SWAP1 PUSH2 0x1E4C JUMP JUMPDEST PUSH1 0x0 DUP2 DUP2 MSTORE PUSH1 0x2 DUP4 ADD PUSH1 0x20 MSTORE PUSH1 0x40 DUP2 KECCAK256 DUP1 SLOAD DUP3 SWAP2 SWAP1 PUSH2 0x433 SWAP1 PUSH2 0x1DF2 JUMP JUMPDEST PUSH1 0x0 DUP3 DUP2 MSTORE PUSH1 0x1 DUP1 DUP6 ADD PUSH1 0x20 MSTORE PUSH1 0x40 DUP3 KECCAK256 ADD SLOAD PUSH1 0x1 PUSH1 0x1 PUSH1 0xA0 SHL SUB AND ISZERO DUP1 ISZERO SWAP1 PUSH2 0xF02 JUMPI POP PUSH1 0x1 PUSH1 0x0 DUP5 DUP2 MSTORE PUSH1 0x1 DUP1 DUP8 ADD PUSH1 0x20 SWAP1 DUP2 MSTORE PUSH1 0x40 DUP1 DUP5 KECCAK256 PUSH1 0x1 PUSH1 0x1 PUSH1 0xE0 SHL SUB NOT DUP9 AND DUP6 MSTORE PUSH1 0x2 SWAP1 DUP2 ADD SWAP1 SWAP3 MSTORE SWAP1 SWAP3 KECCAK256 ADD SLOAD PUSH1 0xFF AND SWAP1 DUP2 GT ISZERO PUSH2 0x1B0C JUMPI PUSH2 0x1B0C PUSH2 0x1E69 JUMP JUMPDEST EQ SWAP5 SWAP4 POP POP POP POP JUMP JUMPDEST PUSH1 0x0 DUP2 DUP2 MSTORE PUSH1 0x2 DUP4 ADD PUSH1 0x20 MSTORE PUSH1 0x40 DUP2 KECCAK256 DUP1 SLOAD DUP3 SWAP2 SWAP1 PUSH2 0x1B33 SWAP1 PUSH2 0x1DF2 JUMP JUMPDEST SWAP1 POP GT DUP1 ISZERO PUSH2 0x40C JUMPI POP POP PUSH1 0x0 SWAP1 DUP2 MSTORE PUSH1 0x2 SWAP2 DUP3 ADD PUSH1 0x20 MSTORE PUSH1 0x40 SWAP1 KECCAK256 ADD SLOAD PUSH1 0xFF AND SWAP1 JUMP JUMPDEST PUSH1 0x1 PUSH1 0x1 PUSH1 0xA0 SHL SUB DUP2 AND PUSH1 0x0 SWAP1 DUP2 MSTORE PUSH1 0x20 DUP4 DUP2 MSTORE PUSH1 0x40 DUP1 DUP4 KECCAK256 SWAP1 MLOAD PUSH1 0x1 SWAP3 DUP5 SWAP2 PUSH2 0xCF2 SWAP2 ADD PUSH2 0x1E4C JUMP JUMPDEST PUSH1 0x0 DUP2 DUP2 MSTORE PUSH1 0x1 DUP4 ADD PUSH1 0x20 MSTORE PUSH1 0x40 DUP2 KECCAK256 SLOAD ISZERO ISZERO PUSH2 0x40C JUMP JUMPDEST PUSH1 0x0 PUSH2 0x40C DUP4 PUSH1 0x1 PUSH1 0x1 PUSH1 0xA0 SHL SUB DUP5 AND PUSH2 0x1BB6 JUMP JUMPDEST PUSH1 0x0 PUSH2 0x40C DUP4 DUP4 JUMPDEST PUSH1 0x0 DUP2 DUP2 MSTORE PUSH1 0x1 DUP4 ADD PUSH1 0x20 MSTORE PUSH1 0x40 DUP2 KECCAK256 SLOAD PUSH2 0x1BFD JUMPI POP DUP2 SLOAD PUSH1 0x1 DUP2 DUP2 ADD DUP5 SSTORE PUSH1 0x0 DUP5 DUP2 MSTORE PUSH1 0x20 DUP1 DUP3 KECCAK256 SWAP1 SWAP4 ADD DUP5 SWAP1 SSTORE DUP5 SLOAD DUP5 DUP3 MSTORE DUP3 DUP7 ADD SWAP1 SWAP4 MSTORE PUSH1 0x40 SWAP1 KECCAK256 SWAP2 SWAP1 SWAP2 SSTORE PUSH2 0x40F JUMP JUMPDEST POP PUSH1 0x0 PUSH2 0x40F JUMP JUMPDEST PUSH1 0x0 DUP1 PUSH1 0x40 DUP4 DUP6 SUB SLT ISZERO PUSH2 0x1C18 JUMPI PUSH1 0x0 DUP1 REVERT JUMPDEST POP POP DUP1 CALLDATALOAD SWAP3 PUSH1 0x20 SWAP1 SWAP2 ADD CALLDATALOAD SWAP2 POP JUMP JUMPDEST PUSH1 0x0 PUSH1 0x20 DUP3 DUP5 SUB SLT ISZERO PUSH2 0x1C39 JUMPI PUSH1 0x0 DUP1 REVERT JUMPDEST POP CALLDATALOAD SWAP2 SWAP1 POP JUMP JUMPDEST DUP1 CALLDATALOAD PUSH1 0x1 PUSH1 0x1 PUSH1 0xA0 SHL SUB DUP2 AND DUP2 EQ PUSH2 0x1C57 JUMPI PUSH1 0x0 DUP1 REVERT JUMPDEST SWAP2 SWAP1 POP JUMP JUMPDEST PUSH1 0x0 DUP1 PUSH1 0x40 DUP4 DUP6 SUB SLT ISZERO PUSH2 0x1C6F JUMPI PUSH1 0x0 DUP1 REVERT JUMPDEST DUP3 CALLDATALOAD SWAP2 POP PUSH2 0x1C7F PUSH1 0x20 DUP5 ADD PUSH2 0x1C40 JUMP JUMPDEST SWAP1 POP SWAP3 POP SWAP3 SWAP1 POP JUMP JUMPDEST DUP1 CALLDATALOAD PUSH1 0x1 PUSH1 0x1 PUSH1 0xE0 SHL SUB NOT DUP2 AND DUP2 EQ PUSH2 0x1C57 JUMPI PUSH1 0x0 DUP1 REVERT JUMPDEST PUSH1 0x0 DUP1 PUSH1 0x0 DUP1 PUSH1 0x80 DUP6 DUP8 SUB SLT ISZERO PUSH2 0x1CB6 JUMPI PUSH1 0x0 DUP1 REVERT JUMPDEST DUP5 CALLDATALOAD SWAP4 POP PUSH1 0x20 DUP6 ADD CALLDATALOAD SWAP3 POP PUSH2 0x1CCD PUSH1 0x40 DUP7 ADD PUSH2 0x1C40 JUMP JUMPDEST SWAP2 POP PUSH2 0x1CDB PUSH1 0x60 DUP7 ADD PUSH2 0x1C88 JUMP JUMPDEST SWAP1 POP SWAP3 SWAP6 SWAP2 SWAP5 POP SWAP3 POP JUMP JUMPDEST PUSH1 0x0 PUSH1 0x20 DUP1 DUP4 ADD DUP2 DUP5 MSTORE DUP1 DUP6 MLOAD DUP1 DUP4 MSTORE PUSH1 0x40 SWAP3 POP DUP3 DUP7 ADD SWAP2 POP DUP3 DUP2 PUSH1 0x5 SHL DUP8 ADD ADD DUP5 DUP9 ADD PUSH1 0x0 DUP1 JUMPDEST DUP5 DUP2 LT ISZERO PUSH2 0x1D8E JUMPI DUP10 DUP5 SUB PUSH1 0x3F NOT ADD DUP7 MSTORE DUP3 MLOAD DUP1 MLOAD DUP6 MSTORE DUP9 DUP2 ADD MLOAD PUSH1 0x60 DUP11 DUP8 ADD DUP2 SWAP1 MSTORE DUP2 MLOAD SWAP1 DUP8 ADD DUP2 SWAP1 MSTORE PUSH1 0x80 DUP8 ADD SWAP2 DUP12 ADD SWAP1 DUP6 SWAP1 JUMPDEST DUP1 DUP3 LT ISZERO PUSH2 0x1D6E JUMPI DUP3 MLOAD PUSH1 0x1 PUSH1 0x1 PUSH1 0xE0 SHL SUB NOT AND DUP5 MSTORE SWAP3 DUP13 ADD SWAP3 SWAP2 DUP13 ADD SWAP2 PUSH1 0x1 SWAP2 SWAP1 SWAP2 ADD SWAP1 PUSH2 0x1D44 JUMP JUMPDEST POP POP POP SWAP1 DUP9 ADD MLOAD ISZERO ISZERO SWAP5 DUP9 ADD SWAP5 SWAP1 SWAP5 MSTORE SWAP5 DUP8 ADD SWAP5 SWAP2 DUP8 ADD SWAP2 PUSH1 0x1 ADD PUSH2 0x1D0E JUMP JUMPDEST POP SWAP2 SWAP10 SWAP9 POP POP POP POP POP POP POP POP POP JUMP JUMPDEST PUSH1 0x0 DUP1 PUSH1 0x0 PUSH1 0x60 DUP5 DUP7 SUB SLT ISZERO PUSH2 0x1DB2 JUMPI PUSH1 0x0 DUP1 REVERT JUMPDEST DUP4 CALLDATALOAD SWAP3 POP PUSH1 0x20 DUP5 ADD CALLDATALOAD SWAP2 POP PUSH2 0x1DC9 PUSH1 0x40 DUP6 ADD PUSH2 0x1C88 JUMP JUMPDEST SWAP1 POP SWAP3 POP SWAP3 POP SWAP3 JUMP JUMPDEST PUSH20 0x4C4956454C595F47454E4552414C5F47524F555 PUSH1 0x64 SHL DUP2 MSTORE PUSH1 0x14 ADD SWAP1 JUMP JUMPDEST PUSH1 0x1 DUP2 DUP2 SHR SWAP1 DUP3 AND DUP1 PUSH2 0x1E06 JUMPI PUSH1 0x7F DUP3 AND SWAP2 POP JUMPDEST PUSH1 0x20 DUP3 LT DUP2 SUB PUSH2 0x1E26 JUMPI PUSH4 0x4E487B71 PUSH1 0xE0 SHL PUSH1 0x0 MSTORE PUSH1 0x22 PUSH1 0x4 MSTORE PUSH1 0x24 PUSH1 0x0 REVERT JUMPDEST POP SWAP2 SWAP1 POP JUMP JUMPDEST PUSH20 0x4C4956454C595F47454E4552414C5F5245414C4D PUSH1 0x60 SHL DUP2 MSTORE PUSH1 0x14 ADD SWAP1 JUMP JUMPDEST PUSH17 0x4C4956454C595F41444D494E5F524F4C45 PUSH1 0x78 SHL DUP2 MSTORE PUSH1 0x11 ADD SWAP1 JUMP JUMPDEST PUSH4 0x4E487B71 PUSH1 0xE0 SHL PUSH1 0x0 MSTORE PUSH1 0x21 PUSH1 0x4 MSTORE PUSH1 0x24 PUSH1 0x0 REVERT JUMPDEST PUSH24 0x4C4956454C595F53595354454D5F41444D494E5F524F4C45 PUSH1 0x40 SHL DUP2 MSTORE PUSH1 0x18 ADD SWAP1 JUMP JUMPDEST PUSH4 0x4E487B71 PUSH1 0xE0 SHL PUSH1 0x0 MSTORE PUSH1 0x41 PUSH1 0x4 MSTORE PUSH1 0x24 PUSH1 0x0 REVERT JUMPDEST PUSH1 0x1F DUP3 GT ISZERO PUSH2 0x1F03 JUMPI PUSH1 0x0 DUP2 DUP2 MSTORE PUSH1 0x20 DUP2 KECCAK256 PUSH1 0x1F DUP6 ADD PUSH1 0x5 SHR DUP2 ADD PUSH1 0x20 DUP7 LT ISZERO PUSH2 0x1EE0 JUMPI POP DUP1 JUMPDEST PUSH1 0x1F DUP6 ADD PUSH1 0x5 SHR DUP3 ADD SWAP2 POP JUMPDEST DUP2 DUP2 LT ISZERO PUSH2 0x1EFF JUMPI DUP3 DUP2 SSTORE PUSH1 0x1 ADD PUSH2 0x1EEC JUMP JUMPDEST POP POP POP JUMPDEST POP POP POP JUMP JUMPDEST DUP2 MLOAD PUSH8 0xFFFFFFFFFFFFFFFF DUP2 GT ISZERO PUSH2 0x1F22 JUMPI PUSH2 0x1F22 PUSH2 0x1EA3 JUMP JUMPDEST PUSH2 0x1F36 DUP2 PUSH2 0x1F30 DUP5 SLOAD PUSH2 0x1DF2 JUMP JUMPDEST DUP5 PUSH2 0x1EB9 JUMP JUMPDEST PUSH1 0x20 DUP1 PUSH1 0x1F DUP4 GT PUSH1 0x1 DUP2 EQ PUSH2 0x1F6B JUMPI PUSH1 0x0 DUP5 ISZERO PUSH2 0x1F53 JUMPI POP DUP6 DUP4 ADD MLOAD JUMPDEST PUSH1 0x0 NOT PUSH1 0x3 DUP7 SWAP1 SHL SHR NOT AND PUSH1 0x1 DUP6 SWAP1 SHL OR DUP6 SSTORE PUSH2 0x1EFF JUMP JUMPDEST PUSH1 0x0 DUP6 DUP2 MSTORE PUSH1 0x20 DUP2 KECCAK256 PUSH1 0x1F NOT DUP7 AND SWAP2 JUMPDEST DUP3 DUP2 LT ISZERO PUSH2 0x1F9A JUMPI DUP9 DUP7 ADD MLOAD DUP3 SSTORE SWAP5 DUP5 ADD SWAP5 PUSH1 0x1 SWAP1 SWAP2 ADD SWAP1 DUP5 ADD PUSH2 0x1F7B JUMP JUMPDEST POP DUP6 DUP3 LT ISZERO PUSH2 0x1FB8 JUMPI DUP8 DUP6 ADD MLOAD PUSH1 0x0 NOT PUSH1 0x3 DUP9 SWAP1 SHL PUSH1 0xF8 AND SHR NOT AND DUP2 SSTORE JUMPDEST POP POP POP POP POP PUSH1 0x1 SWAP1 DUP2 SHL ADD SWAP1 SSTORE POP JUMP JUMPDEST PUSH21 0x4C4956454C595F414E4F4E594D4F55535F524F4C45 PUSH1 0x58 SHL DUP2 MSTORE PUSH1 0x15 ADD SWAP1 JUMP JUMPDEST PUSH4 0x4E487B71 PUSH1 0xE0 SHL PUSH1 0x0 MSTORE PUSH1 0x32 PUSH1 0x4 MSTORE PUSH1 0x24 PUSH1 0x0 REVERT JUMPDEST PUSH1 0x0 PUSH1 0x20 DUP3 DUP5 SUB SLT ISZERO PUSH2 0x2011 JUMPI PUSH1 0x0 DUP1 REVERT JUMPDEST DUP2 MLOAD DUP1 ISZERO ISZERO DUP2 EQ PUSH2 0x2021 JUMPI PUSH1 0x0 DUP1 REVERT JUMPDEST SWAP4 SWAP3 POP POP POP JUMP INVALID LOG2 PUSH5 0x6970667358 0x22 SLT KECCAK256 0xEC LOG4 PUSH19 0x9F80CD33687A7F3BAEBA478F724DD616B7E0F1 0xC0 PUSH22 0xF11B2054BFB9056464736F6C634300080F0033000000 "
    },
    "gasEstimates": {
      "creation": {
        "codeDepositCost": "1657200",
        "executionCost": "1771",
        "totalCost": "1658971"
      },
      "external": {
        "LIB_NAME()": "393",
        "LIB_VERSION()": "460",
        "LIVELY_ADMIN_ROLE()": "433",
        "LIVELY_ANONYMOUS_ROLE()": "433",
        "LIVELY_GENERAL_GROUP()": "434",
        "LIVELY_GENERAL_REALM()": "456",
        "LIVELY_SYSTEM_ADMIN_ROLE()": "433",
        "createRequestContext()": "infinite",
        "hasAccess(AccessControlStorage.DataMaps storage,bytes32,address,bytes4)": "infinite",
        "initializeContext(AccessControlStorage.DataMaps storage)": "infinite",
        "isContextEnabled(AccessControlStorage.DataMaps storage,bytes32)": "4761",
        "isContextExists(AccessControlStorage.DataMaps storage,bytes32)": "2544",
        "isContextFunctionEnabled(AccessControlStorage.DataMaps storage,bytes32,bytes4)": "5020",
        "isContextFunctionExists(AccessControlStorage.DataMaps storage,bytes32,bytes4)": "5079",
        "isContextSafeMode(AccessControlStorage.DataMaps storage,bytes32)": "infinite",
        "isContextUpgradable(AccessControlStorage.DataMaps storage,bytes32)": "infinite",
        "isGroupEnabled(AccessControlStorage.DataMaps storage,bytes32)": "4880",
        "isGroupExists(AccessControlStorage.DataMaps storage,bytes32)": "2654",
        "isLivelyAdmin(AccessControlStorage.DataMaps storage,address)": "2966",
        "isLivelyGeneralGroup(AccessControlStorage.DataMaps storage,bytes32)": "infinite",
        "isLivelyGeneralRealm(AccessControlStorage.DataMaps storage,bytes32)": "infinite",
        "isLivelySystemAdmin(AccessControlStorage.DataMaps storage,address)": "2901",
        "isRealmEnabled(AccessControlStorage.DataMaps storage,bytes32)": "4857",
        "isRealmExists(AccessControlStorage.DataMaps storage,bytes32)": "2698",
        "isRealmUpgradable(AccessControlStorage.DataMaps storage,bytes32)": "4878",
        "isRoleEnabled(AccessControlStorage.DataMaps storage,bytes32)": "4894",
        "isRoleExists(AccessControlStorage.DataMaps storage,bytes32)": "2652"
      }
    },
    "methodIdentifiers": {
      "LIB_NAME()": "bec94751",
      "LIB_VERSION()": "2466209b",
      "LIVELY_ADMIN_ROLE()": "d8b31999",
      "LIVELY_ANONYMOUS_ROLE()": "9bb20d51",
      "LIVELY_GENERAL_GROUP()": "6ac58ac1",
      "LIVELY_GENERAL_REALM()": "20dd27af",
      "LIVELY_SYSTEM_ADMIN_ROLE()": "5632ffd8",
      "createRequestContext()": "62f3c2d4",
      "hasAccess(AccessControlStorage.DataMaps storage,bytes32,address,bytes4)": "487c6960",
      "initializeContext(AccessControlStorage.DataMaps storage)": "45d71c18",
      "isContextEnabled(AccessControlStorage.DataMaps storage,bytes32)": "3346dd2d",
      "isContextExists(AccessControlStorage.DataMaps storage,bytes32)": "10f07501",
      "isContextFunctionEnabled(AccessControlStorage.DataMaps storage,bytes32,bytes4)": "decf375c",
      "isContextFunctionExists(AccessControlStorage.DataMaps storage,bytes32,bytes4)": "a834b8c0",
      "isContextSafeMode(AccessControlStorage.DataMaps storage,bytes32)": "7cd7c4ed",
      "isContextUpgradable(AccessControlStorage.DataMaps storage,bytes32)": "af07cfcd",
      "isGroupEnabled(AccessControlStorage.DataMaps storage,bytes32)": "442b0ca1",
      "isGroupExists(AccessControlStorage.DataMaps storage,bytes32)": "0fd7cb90",
      "isLivelyAdmin(AccessControlStorage.DataMaps storage,address)": "fbe97e19",
      "isLivelyGeneralGroup(AccessControlStorage.DataMaps storage,bytes32)": "017d6269",
      "isLivelyGeneralRealm(AccessControlStorage.DataMaps storage,bytes32)": "64f892ca",
      "isLivelySystemAdmin(AccessControlStorage.DataMaps storage,address)": "470e4565",
      "isRealmEnabled(AccessControlStorage.DataMaps storage,bytes32)": "779a6a7a",
      "isRealmExists(AccessControlStorage.DataMaps storage,bytes32)": "113f2828",
      "isRealmUpgradable(AccessControlStorage.DataMaps storage,bytes32)": "660c9912",
      "isRoleEnabled(AccessControlStorage.DataMaps storage,bytes32)": "e24b90a9",
      "isRoleExists(AccessControlStorage.DataMaps storage,bytes32)": "d95140eb"
    }
  },
  "storageLayout": {
    "storage": [],
    "types": null
  },
  "userdoc": {
    "kind": "user",
    "methods": {},
    "version": 1
  }
}