{
  "contractName": "LAccessControl",
  "sourceName": "src/contracts/lib/acl/LAccessControl.sol",
  "abi": [
    {
      "inputs": [],
      "name": "LIB_NAME",
      "outputs": [
        {
          "internalType": "bytes32",
          "name": "",
          "type": "bytes32"
        }
      ],
      "stateMutability": "view",
      "type": "function"
    },
    {
      "inputs": [],
      "name": "LIB_VERSION",
      "outputs": [
        {
          "internalType": "bytes32",
          "name": "",
          "type": "bytes32"
        }
      ],
      "stateMutability": "view",
      "type": "function"
    },
    {
      "inputs": [],
      "name": "LIVELY_ADMIN_ROLE",
      "outputs": [
        {
          "internalType": "bytes32",
          "name": "",
          "type": "bytes32"
        }
      ],
      "stateMutability": "view",
      "type": "function"
    },
    {
      "inputs": [],
      "name": "LIVELY_ANONYMOUS_ROLE",
      "outputs": [
        {
          "internalType": "bytes32",
          "name": "",
          "type": "bytes32"
        }
      ],
      "stateMutability": "view",
      "type": "function"
    },
    {
      "inputs": [],
      "name": "LIVELY_ASSET_ADMIN_ROLE",
      "outputs": [
        {
          "internalType": "bytes32",
          "name": "",
          "type": "bytes32"
        }
      ],
      "stateMutability": "view",
      "type": "function"
    },
    {
      "inputs": [],
      "name": "LIVELY_ASSET_GROUP",
      "outputs": [
        {
          "internalType": "bytes32",
          "name": "",
          "type": "bytes32"
        }
      ],
      "stateMutability": "view",
      "type": "function"
    },
    {
      "inputs": [],
      "name": "LIVELY_ASSET_MANAGER_ROLE",
      "outputs": [
        {
          "internalType": "bytes32",
          "name": "",
          "type": "bytes32"
        }
      ],
      "stateMutability": "view",
      "type": "function"
    },
    {
      "inputs": [],
      "name": "LIVELY_ASSET_REALM",
      "outputs": [
        {
          "internalType": "bytes32",
          "name": "",
          "type": "bytes32"
        }
      ],
      "stateMutability": "view",
      "type": "function"
    },
    {
      "inputs": [],
      "name": "LIVELY_COMMUNITY_DAO_EXECUTOR_ROLE",
      "outputs": [
        {
          "internalType": "bytes32",
          "name": "",
          "type": "bytes32"
        }
      ],
      "stateMutability": "view",
      "type": "function"
    },
    {
      "inputs": [],
      "name": "LIVELY_COMMUNITY_DAO_ROLE",
      "outputs": [
        {
          "internalType": "bytes32",
          "name": "",
          "type": "bytes32"
        }
      ],
      "stateMutability": "view",
      "type": "function"
    },
    {
      "inputs": [],
      "name": "LIVELY_DAO_GROUP",
      "outputs": [
        {
          "internalType": "bytes32",
          "name": "",
          "type": "bytes32"
        }
      ],
      "stateMutability": "view",
      "type": "function"
    },
    {
      "inputs": [],
      "name": "LIVELY_GENERAL_GROUP",
      "outputs": [
        {
          "internalType": "bytes32",
          "name": "",
          "type": "bytes32"
        }
      ],
      "stateMutability": "view",
      "type": "function"
    },
    {
      "inputs": [],
      "name": "LIVELY_GENERAL_REALM",
      "outputs": [
        {
          "internalType": "bytes32",
          "name": "",
          "type": "bytes32"
        }
      ],
      "stateMutability": "view",
      "type": "function"
    },
    {
      "inputs": [],
      "name": "LIVELY_SYSTEM_ADMIN_ROLE",
      "outputs": [
        {
          "internalType": "bytes32",
          "name": "",
          "type": "bytes32"
        }
      ],
      "stateMutability": "view",
      "type": "function"
    },
    {
      "inputs": [],
      "name": "createRequestContext",
      "outputs": [
        {
          "components": [
            {
              "internalType": "bytes32",
              "name": "role",
              "type": "bytes32"
            },
            {
              "internalType": "bytes4[]",
              "name": "funcSelectors",
              "type": "bytes4[]"
            },
            {
              "internalType": "bool",
              "name": "isEnabled",
              "type": "bool"
            }
          ],
          "internalType": "struct IContextManagement.RequestRegisterContext[]",
          "name": "",
          "type": "tuple[]"
        }
      ],
      "stateMutability": "pure",
      "type": "function"
    }
  ],
  "bytecode": "0x612e4361003a600b82828239805160001a60731461002d57634e487b7160e01b600052600060045260246000fd5b30600052607381538281f3fe730000000000000000000000000000000000000000301460806040526004361061025d5760003560e01c806387d8e2b011610150578063c0a8ca0c116100cd578063d98ef62211610091578063d98ef622146104b1578063dd15702c146104c4578063e99b513a146104d7578063e9cfb672146104ea578063efec2d5e146104fd578063f0984ee61461051057600080fd5b8063c0a8ca0c1461045d578063cb4a1bb714610470578063cc6c326814610483578063ce34a66d14610496578063d8b31999146104a957600080fd5b8063a619675711610114578063a61967571461041f578063afb9270614610427578063b019d53a1461043a578063b899699c1461044d578063bec947511461045557600080fd5b806387d8e2b0146103a057806389b5a834146103cf5780639bb20d51146103e25780639fa79bf8146103ea578063a5f1e2fe1461040c57600080fd5b80634df89d6f116101de5780635f6cef3c116101a25780635f6cef3c1461035557806362f3c2d41461035d5780636787ad51146103725780636ac58ac11461038557806385de33361461038d57600080fd5b80634df89d6f14610301578063513d425a146103145780635632ffd8146103275780635a96334b1461032f5780635b8ba8981461034257600080fd5b80633167d0c4116102255780633167d0c4146102b8578063337cd188146102cb57806336206f04146102de57806337f4c930146102e65780634c95d60d146102f957600080fd5b8063108f5bdc1461026257806316b714ad1461027d57806320dd27af146102a05780632466209b146102a85780632d8bc9cb146102b0575b600080fd5b61026a610523565b6040519081526020015b60405180910390f35b61029061028b36600461290e565b61054b565b6040519015158152602001610274565b61026a6105d1565b61026a6105e0565b61026a6105f9565b6102906102c636600461290e565b610608565b6102906102d936600461294c565b610658565b61026a6106c4565b6102906102f436600461290e565b6106d3565b61026a6106fc565b61029061030f36600461290e565b61070b565b610290610322366004612990565b61072c565b61026a61091a565b61029061033d36600461290e565b610929565b61029061035036600461294c565b61096e565b61026a610998565b6103656109be565b60405161027491906129d6565b61029061038036600461290e565b611456565b61026a611471565b61029061039b36600461294c565b611480565b6102906103ae36600461290e565b600090815260019182016020526040902001546001600160a01b0316151590565b6102906103dd36600461290e565b6114aa565b61026a6114ef565b8180156103f657600080fd5b5061040a610405366004612a8d565b611518565b005b61029061041a36600461290e565b612546565b61026a61258c565b61029061043536600461294c565b61259b565b61029061044836600461290e565b6125c5565b61026a612613565b61026a612622565b61029061046b36600461290e565b612644565b61029061047e36600461290e565b61269d565b61029061049136600461290e565b6126e2565b6102906104a436600461290e565b612700565b61026a612734565b6102906104bf36600461290e565b612743565b6102906104d2366004612aa6565b61275e565b6102906104e5366004612aa6565b6127cf565b6102906104f836600461294c565b61281b565b61029061050b36600461294c565b612845565b61029061051e36600461290e565b61286f565b60405160200161053290612adb565b6040516020818303038152906040528051906020012081565b600081815260018084016020908152604080842090920154825163be22465d60e01b815292516001600160a01b039091169263be22465d9260048083019391928290030181865afa1580156105a4573d6000803e3d6000fd5b505050506040513d601f19601f820116820180604052508101906105c89190612b00565b90505b92915050565b60405160200161053290612b29565b604051640312e302e360dc1b6020820152602501610532565b60405160200161053290612b49565b60006105c88284600301600060405160200161062390612b29565b60405160208183030381529060405280519060200120815260200190815260200160002060020161288a90919063ffffffff16565b6001600160a01b038116600090815260208381526040808320905160019284916106829101612b7b565b60408051601f198184030181529181528151602092830120835290820192909252016000205460ff1660028111156106bc576106bc612b65565b149392505050565b60405160200161053290612b9f565b6000818152600383016020526040812080548291906106f190612bc2565b905011905092915050565b60405160200161053290612bfc565b6000818152600283016020526040812060010180548291906106f190612bc2565b600083815260018501602090815260408083206001600160e01b0319851684526002018252808320549051909161077f9101744c4956454c595f414e4f4e594d4f55535f524f4c4560581b815260150190565b60405160208183030381529060405280519060200120810361080d576000858152600187810160205260409091200154600160a01b900460ff1680156108055750600160008681526001808901602090815260408084206001600160e01b0319891685526002908101909252909220015460ff169081111561080357610803612b65565b145b915050610912565b6000858152600187810160205260409091200154600160a01b900460ff1680156108775750600160008681526001808901602090815260408084206001600160e01b0319891685526002908101909252909220015460ff169081111561087557610875612b65565b145b80156108a55750600085815260018088016020908152604080842054845260038a01909152909120015460ff165b80156108d35750600081815260028701602090815260408083205483526004890190915290206001015460ff165b8015610805575060016001600160a01b03851660009081526020888152604080832085845290915290205460ff16600281111561080357610803612b65565b949350505050565b60405160200161053290612b7b565b60008181526004830160205260408120805482919061094790612bc2565b90501180156105c85750506000908152600491909101602052604090206001015460ff1690565b6001600160a01b038116600090815260208381526040808320905160019284916106829101612c1a565b604051714c4956454c595f41535345545f5245414c4d60701b6020820152603201610532565b604080516002808252606082810190935260009190816020015b604080516060808201835260008083526020830191909152918101919091528152602001906001900390816109d8579050509050604051602001610a1b90612c64565b6040516020818303038152906040528051906020012081600081518110610a4457610a44612c81565b60200260200101516000018181525050600181600081518110610a6957610a69612c81565b602090810291909101810151911515604092830152815160178082526103008201909352919082016102e0803683370190505081600081518110610aaf57610aaf612c81565b6020026020010151602001819052506348e6be1c60e01b81600081518110610ad957610ad9612c81565b602002602001015160200151600081518110610af757610af7612c81565b6001600160e01b031990921660209283029190910190910152805163225bf2f960e11b908290600090610b2c57610b2c612c81565b602002602001015160200151600181518110610b4a57610b4a612c81565b6001600160e01b031990921660209283029190910190910152805163031c049360e01b908290600090610b7f57610b7f612c81565b602002602001015160200151600281518110610b9d57610b9d612c81565b6001600160e01b0319909216602092830291909101909101528051635ac4b36f60e11b908290600090610bd257610bd2612c81565b602002602001015160200151600381518110610bf057610bf0612c81565b6001600160e01b031990921660209283029190910190910152805163771bcf4560e01b908290600090610c2557610c25612c81565b602002602001015160200151600481518110610c4357610c43612c81565b6001600160e01b0319909216602092830291909101909101528051634346a04b60e01b908290600090610c7857610c78612c81565b602002602001015160200151600581518110610c9657610c96612c81565b6001600160e01b031990921660209283029190910190910152805163d338640160e01b908290600090610ccb57610ccb612c81565b602002602001015160200151600681518110610ce957610ce9612c81565b6001600160e01b03199092166020928302919091019091015280516370420ee360e01b908290600090610d1e57610d1e612c81565b602002602001015160200151600781518110610d3c57610d3c612c81565b6001600160e01b0319909216602092830291909101909101528051633cbe67e960e21b908290600090610d7157610d71612c81565b602002602001015160200151600881518110610d8f57610d8f612c81565b6001600160e01b031990921660209283029190910190910152805163b2dc26e560e01b908290600090610dc457610dc4612c81565b602002602001015160200151600981518110610de257610de2612c81565b6001600160e01b0319909216602092830291909101909101528051634f1d167560e11b908290600090610e1757610e17612c81565b602002602001015160200151600a81518110610e3557610e35612c81565b6001600160e01b03199092166020928302919091019091015280516308f09e0f60e41b908290600090610e6a57610e6a612c81565b602002602001015160200151600b81518110610e8857610e88612c81565b6001600160e01b03199092166020928302919091019091015280516393ba313160e01b908290600090610ebd57610ebd612c81565b602002602001015160200151600c81518110610edb57610edb612c81565b6001600160e01b031990921660209283029190910190910152805163df01de4560e01b908290600090610f1057610f10612c81565b602002602001015160200151600d81518110610f2e57610f2e612c81565b6001600160e01b03199092166020928302919091019091015280516362ab810560e11b908290600090610f6357610f63612c81565b602002602001015160200151600e81518110610f8157610f81612c81565b6001600160e01b031990921660209283029190910190910152805163738f112760e11b908290600090610fb657610fb6612c81565b602002602001015160200151600f81518110610fd457610fd4612c81565b6001600160e01b0319909216602092830291909101909101528051630dbf304b60e41b90829060009061100957611009612c81565b60200260200101516020015160108151811061102757611027612c81565b6001600160e01b03199092166020928302919091019091015280516307e9933760e31b90829060009061105c5761105c612c81565b60200260200101516020015160118151811061107a5761107a612c81565b6001600160e01b031990921660209283029190910190910152805163b6c03f0360e01b9082906000906110af576110af612c81565b6020026020010151602001516012815181106110cd576110cd612c81565b6001600160e01b03199092166020928302919091019091015280516312ec6fa360e21b90829060009061110257611102612c81565b60200260200101516020015160138151811061112057611120612c81565b6001600160e01b03199092166020928302919091019091015280516322df6f5b60e21b90829060009061115557611155612c81565b60200260200101516020015160148151811061117357611173612c81565b6001600160e01b031990921660209283029190910190910152805163f2c673bd60e01b9082906000906111a8576111a8612c81565b6020026020010151602001516015815181106111c6576111c6612c81565b60200260200101906001600160e01b03191690816001600160e01b031916815250507f756af45f4ce05d832bee0c171992c529ad6d3ca8e13303d78feace2f8fd7faf28160008151811061121c5761121c612c81565b60200260200101516020015160168151811061123a5761123a612c81565b6001600160e01b031990921660209283029190910182015260405161125f9101612b7b565b604051602081830303815290604052805190602001208160018151811061128857611288612c81565b602002602001015160000181815250506001816001815181106112ad576112ad612c81565b6020908102919091018101519115156040928301528151600480825260a082019093529190820160808036833701905050816001815181106112f1576112f1612c81565b60200260200101516020018190525063d9dc1f1960e01b8160018151811061131b5761131b612c81565b60200260200101516020015160008151811061133957611339612c81565b6001600160e01b0319909216602092830291909101909101528051637147855d60e01b908290600190811061137057611370612c81565b60200260200101516020015160018151811061138e5761138e612c81565b6001600160e01b03199092166020928302919091019091015280516378efa4ed60e11b90829060019081106113c5576113c5612c81565b6020026020010151602001516002815181106113e3576113e3612c81565b6001600160e01b03199092166020928302919091019091015280516371d569d960e01b908290600190811061141a5761141a612c81565b60200260200101516020015160038151811061143857611438612c81565b6001600160e01b031990921660209283029190910190910152919050565b60006105c88284600401600060405160200161062390612bfc565b60405160200161053290612c97565b6001600160a01b038116600090815260208381526040808320905160019284916106829101612adb565b6000818152600383016020526040812080548291906114c890612bc2565b90501180156105c85750506000908152600391909101602052604090206001015460ff1690565b604051744c4956454c595f414e4f4e594d4f55535f524f4c4560581b6020820152603501610532565b33600090815260208281526040808320905160019391926115399101612c64565b60408051601f19818403018152918152815160209283012083529082019290925201600020805460ff1916600183600281111561157857611578612b65565b0217905550336000908152602082815260408083209051600193919261159e9101612b7b565b60408051601f19818403018152918152815160209283012083529082019290925201600020805460ff191660018360028111156115dd576115dd612b65565b0217905550604051806040016040528060118152602001704c4956454c595f41444d494e5f524f4c4560781b81525081600201600060405160200161162190612c64565b60405160208183030381529060405280519060200120815260200190815260200160002060010190816116549190612d06565b50600181600201600060405160200161166c90612c64565b60405160208183030381529060405280519060200120815260200190815260200160002060020160006101000a81548160ff0219169083151502179055506040516020016116b990612c97565b604051602081830303815290604052805190602001208160020160006040516020016116e490612c64565b6040516020818303038152906040528051906020012081526020019081526020016000206000018190555061175d3382600201600060405160200161172890612c64565b6040516020818303038152906040528051906020012081526020019081526020016000206003016128a290919063ffffffff16565b50604051806040016040528060188152602001774c4956454c595f53595354454d5f41444d494e5f524f4c4560401b8152508160020160006040516020016117a490612b7b565b60405160208183030381529060405280519060200120815260200190815260200160002060010190816117d79190612d06565b5060018160020160006040516020016117ef90612b7b565b60405160208183030381529060405280519060200120815260200190815260200160002060020160006101000a81548160ff02191690831515021790555060405160200161183c90612c97565b6040516020818303038152906040528051906020012081600201600060405160200161186790612b7b565b604051602081830303815290604052805190602001208152602001908152602001600020600001819055506118ab3382600201600060405160200161172890612b7b565b50604051806040016040528060198152602001784c4956454c595f41535345545f4d414e414745525f524f4c4560381b8152508160020160006040516020016118f390612dc6565b60405160208183030381529060405280519060200120815260200190815260200160002060010190816119269190612d06565b50600181600201600060405160200161193e90612dc6565b60405160208183030381529060405280519060200120815260200190815260200160002060020160006101000a81548160ff02191690831515021790555060405160200161198b90612bfc565b604051602081830303815290604052805190602001208160020160006040516020016119b690612dc6565b60405160208183030381529060405280519060200120815260200190815260200160002060000181905550604051806040016040528060178152602001764c4956454c595f41535345545f41444d494e5f524f4c4560481b815250816002016000604051602001611a2690612b9f565b6040516020818303038152906040528051906020012081526020019081526020016000206001019081611a599190612d06565b506001816002016000604051602001611a7190612b9f565b60405160208183030381529060405280519060200120815260200190815260200160002060020160006101000a81548160ff021916908315150217905550604051602001611abe90612bfc565b60405160208183030381529060405280519060200120816002016000604051602001611ae990612b9f565b60405160208183030381529060405280519060200120815260200190815260200160002060000181905550604051806040016040528060198152602001784c4956454c595f434f4d4d554e4954595f44414f5f524f4c4560381b815250816002016000604051602001611b5b90612adb565b6040516020818303038152906040528051906020012081526020019081526020016000206001019081611b8e9190612d06565b506001816002016000604051602001611ba690612adb565b60405160208183030381529060405280519060200120815260200190815260200160002060020160006101000a81548160ff021916908315150217905550604051602001611bf390612b49565b60405160208183030381529060405280519060200120816002016000604051602001611c1e90612adb565b60405160208183030381529060405280519060200120815260200190815260200160002060000181905550604051806060016040528060228152602001612dec60229139816002016000604051602001611c7790612c1a565b6040516020818303038152906040528051906020012081526020019081526020016000206001019081611caa9190612d06565b506001816002016000604051602001611cc290612c1a565b60405160208183030381529060405280519060200120815260200190815260200160002060020160006101000a81548160ff021916908315150217905550604051602001611d0f90612b49565b60405160208183030381529060405280519060200120816002016000604051602001611d3a90612c1a565b60405160208183030381529060405280519060200120815260200190815260200160002060000181905550604051806040016040528060158152602001744c4956454c595f414e4f4e594d4f55535f524f4c4560581b815250816002016000604051602001611dc490744c4956454c595f414e4f4e594d4f55535f524f4c4560581b815260150190565b6040516020818303038152906040528051906020012081526020019081526020016000206001019081611df79190612d06565b506001816002016000604051602001611e2b90744c4956454c595f414e4f4e594d4f55535f524f4c4560581b815260150190565b60405160208183030381529060405280519060200120815260200190815260200160002060020160006101000a81548160ff021916908315150217905550604051602001611e7890612c97565b60405160208183030381529060405280519060200120816002016000604051602001611ebf90744c4956454c595f414e4f4e594d4f55535f524f4c4560581b815260150190565b604051602081830303815290604052805190602001208152602001908152602001600020600001819055506040518060400160405280601481526020017304c4956454c595f47454e4552414c5f47524f55560641b815250816004016000604051602001611f2c90612c97565b6040516020818303038152906040528051906020012081526020019081526020016000206000019081611f5f9190612d06565b506001816004016000604051602001611f7790612c97565b60405160208183030381529060405280519060200120815260200190815260200160002060010160006101000a81548160ff021916908315150217905550612027604051602001611fc790612c64565b60405160208183030381529060405280519060200120826004016000604051602001611ff290612c97565b6040516020818303038152906040528051906020012081526020019081526020016000206002016128b790919063ffffffff16565b5061203a604051602001611fc790612b7b565b506040518060400160405280601081526020016f04c4956454c595f44414f5f47524f55560841b81525081600401600060405160200161207990612b49565b60405160208183030381529060405280519060200120815260200190815260200160002060000190816120ac9190612d06565b5060018160040160006040516020016120c490612b49565b60405160208183030381529060405280519060200120815260200190815260200160002060010160006101000a81548160ff02191690831515021790555061213f60405160200161211490612adb565b60405160208183030381529060405280519060200120826004016000604051602001611ff290612b49565b5061215260405160200161211490612c1a565b506040518060400160405280601281526020017104c4956454c595f41535345545f47524f55560741b81525081600401600060405160200161219390612bfc565b60405160208183030381529060405280519060200120815260200190815260200160002060000190816121c69190612d06565b5060018160040160006040516020016121de90612bfc565b60405160208183030381529060405280519060200120815260200190815260200160002060010160006101000a81548160ff02191690831515021790555061225960405160200161222e90612dc6565b60405160208183030381529060405280519060200120826004016000604051602001611ff290612bfc565b5061226c60405160200161222e90612b9f565b50604051806040016040528060148152602001734c4956454c595f47454e4552414c5f5245414c4d60601b8152508160030160006040516020016122af90612b29565b60405160208183030381529060405280519060200120815260200190815260200160002060000190816122e29190612d06565b5060018160030160006040516020016122fa90612b29565b60405160208183030381529060405280519060200120815260200190815260200160002060010160006101000a81548160ff021916908315150217905550600181600301600060405160200161234f90612b29565b60408051601f19818403018152918152815160209283012083528282019390935290820160002060010180549315156101000261ff00199094169390931790925580513060601b6bffffffffffffffffffffffff19168184015281516014818303018152603490910190915280519101206123d990826003016000604051602001611ff290612b29565b50604051806040016040528060128152602001714c4956454c595f41535345545f5245414c4d60701b81525081600301600060405160200161243390714c4956454c595f41535345545f5245414c4d60701b815260120190565b60405160208183030381529060405280519060200120815260200190815260200160002060000190816124669190612d06565b50600181600301600060405160200161249790714c4956454c595f41535345545f5245414c4d60701b815260120190565b60405160208183030381529060405280519060200120815260200190815260200160002060010160006101000a81548160ff021916908315150217905550600181600301600060405160200161250590714c4956454c595f41535345545f5245414c4d60701b815260120190565b60405160208183030381529060405280519060200120815260200190815260200160002060010160016101000a81548160ff02191690831515021790555050565b600081815260018084016020526040822001546001600160a01b0316158015906105c857505060009081526001918201602052604090200154600160a01b900460ff1690565b60405160200161053290612dc6565b6001600160a01b038116600090815260208381526040808320905160019284916106829101612dc6565b6000818152600383016020526040812080546125e090612bc2565b90506000036125f1575060006105cb565b5060009081526003919091016020526040902060010154610100900460ff1690565b60405160200161053290612c1a565b6040516d131058d8d95cdcd0dbdb9d1c9bdb60921b6020820152602e01610532565b6000818152600180840160209081526040808420909201548251630151e76560e61b815292516001600160a01b0390911692635479d9409260048083019391928290030181865afa1580156105a4573d6000803e3d6000fd5b6000818152600283016020526040812060010180548291906126be90612bc2565b90501180156105c85750506000908152600291820160205260409020015460ff1690565b6000818152600483016020526040812080548291906106f190612bc2565b60006105c88284600301600060405160200161062390714c4956454c595f41535345545f5245414c4d60701b815260120190565b60405160200161053290612c64565b60006105c88284600401600060405160200161062390612b49565b600082815260018085016020526040822001546001600160a01b0316158015906109125750600160008481526001808701602090815260408084206001600160e01b0319881685526002908101909252909220015460ff16908111156127c6576127c6612b65565b14949350505050565b600082815260018085016020526040822001546001600160a01b031615801590610912575060008381526001850160205260409020610912906003016001600160e01b0319841661288a565b6001600160a01b038116600090815260208381526040808320905160019284916106829101612b9f565b6001600160a01b038116600090815260208381526040808320905160019284916106829101612c64565b60006105c88284600401600060405160200161062390612c97565b600081815260018301602052604081205415156105c8565b60006105c8836001600160a01b0384166128bf565b60006105c883835b6000818152600183016020526040812054612906575081546001818101845560008481526020808220909301849055845484825282860190935260409020919091556105cb565b5060006105cb565b6000806040838503121561292157600080fd5b50508035926020909101359150565b80356001600160a01b038116811461294757600080fd5b919050565b6000806040838503121561295f57600080fd5b8235915061296f60208401612930565b90509250929050565b80356001600160e01b03198116811461294757600080fd5b600080600080608085870312156129a657600080fd5b84359350602085013592506129bd60408601612930565b91506129cb60608601612978565b905092959194509250565b60006020808301818452808551808352604092508286019150828160051b8701018488016000805b84811015612a7e57898403603f190186528251805185528881015160608a8701819052815190870181905260808701918b019085905b80821015612a5e5782516001600160e01b0319168452928c0192918c019160019190910190612a34565b5050509088015115159488019490945294870194918701916001016129fe565b50919998505050505050505050565b600060208284031215612a9f57600080fd5b5035919050565b600080600060608486031215612abb57600080fd5b8335925060208401359150612ad260408501612978565b90509250925092565b784c4956454c595f434f4d4d554e4954595f44414f5f524f4c4560381b815260190190565b600060208284031215612b1257600080fd5b81518015158114612b2257600080fd5b9392505050565b734c4956454c595f47454e4552414c5f5245414c4d60601b815260140190565b6f04c4956454c595f44414f5f47524f55560841b815260100190565b634e487b7160e01b600052602160045260246000fd5b774c4956454c595f53595354454d5f41444d494e5f524f4c4560401b815260180190565b764c4956454c595f41535345545f41444d494e5f524f4c4560481b815260170190565b600181811c90821680612bd657607f821691505b602082108103612bf657634e487b7160e01b600052602260045260246000fd5b50919050565b7104c4956454c595f41535345545f47524f55560741b815260120190565b7f4c4956454c595f434f4d4d554e4954595f44414f5f4558454355544f525f524f8152614c4560f01b602082015260220190565b634e487b7160e01b600052604160045260246000fd5b704c4956454c595f41444d494e5f524f4c4560781b815260110190565b634e487b7160e01b600052603260045260246000fd5b7304c4956454c595f47454e4552414c5f47524f55560641b815260140190565b601f821115612d0157600081815260208120601f850160051c81016020861015612cde5750805b601f850160051c820191505b81811015612cfd57828155600101612cea565b5050505b505050565b815167ffffffffffffffff811115612d2057612d20612c4e565b612d3481612d2e8454612bc2565b84612cb7565b602080601f831160018114612d695760008415612d515750858301515b600019600386901b1c1916600185901b178555612cfd565b600085815260208120601f198616915b82811015612d9857888601518255948401946001909101908401612d79565b5085821015612db65787850151600019600388901b60f8161c191681555b5050505050600190811b01905550565b784c4956454c595f41535345545f4d414e414745525f524f4c4560381b81526019019056fe4c4956454c595f434f4d4d554e4954595f44414f5f4558454355544f525f524f4c45a264697066735822122030d11ac0852baea22fca3314e898c59b2f01385e4d73694fb676a75405173a5764736f6c63430008110033",
  "linkReferences": {},
  "deployedLinkReferences": {},
  "devdoc": {
    "author": "Sina Tadayon, https://github.com/SinaTadayon",
    "kind": "dev",
    "methods": {},
    "title": "Access Control Library",
    "version": 1
  },
  "evm": {
    "bytecode": {
      "linkReferences": {},
      "opcodes": "PUSH2 0x2E43 PUSH2 0x3A PUSH1 0xB DUP3 DUP3 DUP3 CODECOPY DUP1 MLOAD PUSH1 0x0 BYTE PUSH1 0x73 EQ PUSH2 0x2D JUMPI PUSH4 0x4E487B71 PUSH1 0xE0 SHL PUSH1 0x0 MSTORE PUSH1 0x0 PUSH1 0x4 MSTORE PUSH1 0x24 PUSH1 0x0 REVERT JUMPDEST ADDRESS PUSH1 0x0 MSTORE PUSH1 0x73 DUP2 MSTORE8 DUP3 DUP2 RETURN INVALID PUSH20 0x0 ADDRESS EQ PUSH1 0x80 PUSH1 0x40 MSTORE PUSH1 0x4 CALLDATASIZE LT PUSH2 0x25D JUMPI PUSH1 0x0 CALLDATALOAD PUSH1 0xE0 SHR DUP1 PUSH4 0x87D8E2B0 GT PUSH2 0x150 JUMPI DUP1 PUSH4 0xC0A8CA0C GT PUSH2 0xCD JUMPI DUP1 PUSH4 0xD98EF622 GT PUSH2 0x91 JUMPI DUP1 PUSH4 0xD98EF622 EQ PUSH2 0x4B1 JUMPI DUP1 PUSH4 0xDD15702C EQ PUSH2 0x4C4 JUMPI DUP1 PUSH4 0xE99B513A EQ PUSH2 0x4D7 JUMPI DUP1 PUSH4 0xE9CFB672 EQ PUSH2 0x4EA JUMPI DUP1 PUSH4 0xEFEC2D5E EQ PUSH2 0x4FD JUMPI DUP1 PUSH4 0xF0984EE6 EQ PUSH2 0x510 JUMPI PUSH1 0x0 DUP1 REVERT JUMPDEST DUP1 PUSH4 0xC0A8CA0C EQ PUSH2 0x45D JUMPI DUP1 PUSH4 0xCB4A1BB7 EQ PUSH2 0x470 JUMPI DUP1 PUSH4 0xCC6C3268 EQ PUSH2 0x483 JUMPI DUP1 PUSH4 0xCE34A66D EQ PUSH2 0x496 JUMPI DUP1 PUSH4 0xD8B31999 EQ PUSH2 0x4A9 JUMPI PUSH1 0x0 DUP1 REVERT JUMPDEST DUP1 PUSH4 0xA6196757 GT PUSH2 0x114 JUMPI DUP1 PUSH4 0xA6196757 EQ PUSH2 0x41F JUMPI DUP1 PUSH4 0xAFB92706 EQ PUSH2 0x427 JUMPI DUP1 PUSH4 0xB019D53A EQ PUSH2 0x43A JUMPI DUP1 PUSH4 0xB899699C EQ PUSH2 0x44D JUMPI DUP1 PUSH4 0xBEC94751 EQ PUSH2 0x455 JUMPI PUSH1 0x0 DUP1 REVERT JUMPDEST DUP1 PUSH4 0x87D8E2B0 EQ PUSH2 0x3A0 JUMPI DUP1 PUSH4 0x89B5A834 EQ PUSH2 0x3CF JUMPI DUP1 PUSH4 0x9BB20D51 EQ PUSH2 0x3E2 JUMPI DUP1 PUSH4 0x9FA79BF8 EQ PUSH2 0x3EA JUMPI DUP1 PUSH4 0xA5F1E2FE EQ PUSH2 0x40C JUMPI PUSH1 0x0 DUP1 REVERT JUMPDEST DUP1 PUSH4 0x4DF89D6F GT PUSH2 0x1DE JUMPI DUP1 PUSH4 0x5F6CEF3C GT PUSH2 0x1A2 JUMPI DUP1 PUSH4 0x5F6CEF3C EQ PUSH2 0x355 JUMPI DUP1 PUSH4 0x62F3C2D4 EQ PUSH2 0x35D JUMPI DUP1 PUSH4 0x6787AD51 EQ PUSH2 0x372 JUMPI DUP1 PUSH4 0x6AC58AC1 EQ PUSH2 0x385 JUMPI DUP1 PUSH4 0x85DE3336 EQ PUSH2 0x38D JUMPI PUSH1 0x0 DUP1 REVERT JUMPDEST DUP1 PUSH4 0x4DF89D6F EQ PUSH2 0x301 JUMPI DUP1 PUSH4 0x513D425A EQ PUSH2 0x314 JUMPI DUP1 PUSH4 0x5632FFD8 EQ PUSH2 0x327 JUMPI DUP1 PUSH4 0x5A96334B EQ PUSH2 0x32F JUMPI DUP1 PUSH4 0x5B8BA898 EQ PUSH2 0x342 JUMPI PUSH1 0x0 DUP1 REVERT JUMPDEST DUP1 PUSH4 0x3167D0C4 GT PUSH2 0x225 JUMPI DUP1 PUSH4 0x3167D0C4 EQ PUSH2 0x2B8 JUMPI DUP1 PUSH4 0x337CD188 EQ PUSH2 0x2CB JUMPI DUP1 PUSH4 0x36206F04 EQ PUSH2 0x2DE JUMPI DUP1 PUSH4 0x37F4C930 EQ PUSH2 0x2E6 JUMPI DUP1 PUSH4 0x4C95D60D EQ PUSH2 0x2F9 JUMPI PUSH1 0x0 DUP1 REVERT JUMPDEST DUP1 PUSH4 0x108F5BDC EQ PUSH2 0x262 JUMPI DUP1 PUSH4 0x16B714AD EQ PUSH2 0x27D JUMPI DUP1 PUSH4 0x20DD27AF EQ PUSH2 0x2A0 JUMPI DUP1 PUSH4 0x2466209B EQ PUSH2 0x2A8 JUMPI DUP1 PUSH4 0x2D8BC9CB EQ PUSH2 0x2B0 JUMPI JUMPDEST PUSH1 0x0 DUP1 REVERT JUMPDEST PUSH2 0x26A PUSH2 0x523 JUMP JUMPDEST PUSH1 0x40 MLOAD SWAP1 DUP2 MSTORE PUSH1 0x20 ADD JUMPDEST PUSH1 0x40 MLOAD DUP1 SWAP2 SUB SWAP1 RETURN JUMPDEST PUSH2 0x290 PUSH2 0x28B CALLDATASIZE PUSH1 0x4 PUSH2 0x290E JUMP JUMPDEST PUSH2 0x54B JUMP JUMPDEST PUSH1 0x40 MLOAD SWAP1 ISZERO ISZERO DUP2 MSTORE PUSH1 0x20 ADD PUSH2 0x274 JUMP JUMPDEST PUSH2 0x26A PUSH2 0x5D1 JUMP JUMPDEST PUSH2 0x26A PUSH2 0x5E0 JUMP JUMPDEST PUSH2 0x26A PUSH2 0x5F9 JUMP JUMPDEST PUSH2 0x290 PUSH2 0x2C6 CALLDATASIZE PUSH1 0x4 PUSH2 0x290E JUMP JUMPDEST PUSH2 0x608 JUMP JUMPDEST PUSH2 0x290 PUSH2 0x2D9 CALLDATASIZE PUSH1 0x4 PUSH2 0x294C JUMP JUMPDEST PUSH2 0x658 JUMP JUMPDEST PUSH2 0x26A PUSH2 0x6C4 JUMP JUMPDEST PUSH2 0x290 PUSH2 0x2F4 CALLDATASIZE PUSH1 0x4 PUSH2 0x290E JUMP JUMPDEST PUSH2 0x6D3 JUMP JUMPDEST PUSH2 0x26A PUSH2 0x6FC JUMP JUMPDEST PUSH2 0x290 PUSH2 0x30F CALLDATASIZE PUSH1 0x4 PUSH2 0x290E JUMP JUMPDEST PUSH2 0x70B JUMP JUMPDEST PUSH2 0x290 PUSH2 0x322 CALLDATASIZE PUSH1 0x4 PUSH2 0x2990 JUMP JUMPDEST PUSH2 0x72C JUMP JUMPDEST PUSH2 0x26A PUSH2 0x91A JUMP JUMPDEST PUSH2 0x290 PUSH2 0x33D CALLDATASIZE PUSH1 0x4 PUSH2 0x290E JUMP JUMPDEST PUSH2 0x929 JUMP JUMPDEST PUSH2 0x290 PUSH2 0x350 CALLDATASIZE PUSH1 0x4 PUSH2 0x294C JUMP JUMPDEST PUSH2 0x96E JUMP JUMPDEST PUSH2 0x26A PUSH2 0x998 JUMP JUMPDEST PUSH2 0x365 PUSH2 0x9BE JUMP JUMPDEST PUSH1 0x40 MLOAD PUSH2 0x274 SWAP2 SWAP1 PUSH2 0x29D6 JUMP JUMPDEST PUSH2 0x290 PUSH2 0x380 CALLDATASIZE PUSH1 0x4 PUSH2 0x290E JUMP JUMPDEST PUSH2 0x1456 JUMP JUMPDEST PUSH2 0x26A PUSH2 0x1471 JUMP JUMPDEST PUSH2 0x290 PUSH2 0x39B CALLDATASIZE PUSH1 0x4 PUSH2 0x294C JUMP JUMPDEST PUSH2 0x1480 JUMP JUMPDEST PUSH2 0x290 PUSH2 0x3AE CALLDATASIZE PUSH1 0x4 PUSH2 0x290E JUMP JUMPDEST PUSH1 0x0 SWAP1 DUP2 MSTORE PUSH1 0x1 SWAP2 DUP3 ADD PUSH1 0x20 MSTORE PUSH1 0x40 SWAP1 KECCAK256 ADD SLOAD PUSH1 0x1 PUSH1 0x1 PUSH1 0xA0 SHL SUB AND ISZERO ISZERO SWAP1 JUMP JUMPDEST PUSH2 0x290 PUSH2 0x3DD CALLDATASIZE PUSH1 0x4 PUSH2 0x290E JUMP JUMPDEST PUSH2 0x14AA JUMP JUMPDEST PUSH2 0x26A PUSH2 0x14EF JUMP JUMPDEST DUP2 DUP1 ISZERO PUSH2 0x3F6 JUMPI PUSH1 0x0 DUP1 REVERT JUMPDEST POP PUSH2 0x40A PUSH2 0x405 CALLDATASIZE PUSH1 0x4 PUSH2 0x2A8D JUMP JUMPDEST PUSH2 0x1518 JUMP JUMPDEST STOP JUMPDEST PUSH2 0x290 PUSH2 0x41A CALLDATASIZE PUSH1 0x4 PUSH2 0x290E JUMP JUMPDEST PUSH2 0x2546 JUMP JUMPDEST PUSH2 0x26A PUSH2 0x258C JUMP JUMPDEST PUSH2 0x290 PUSH2 0x435 CALLDATASIZE PUSH1 0x4 PUSH2 0x294C JUMP JUMPDEST PUSH2 0x259B JUMP JUMPDEST PUSH2 0x290 PUSH2 0x448 CALLDATASIZE PUSH1 0x4 PUSH2 0x290E JUMP JUMPDEST PUSH2 0x25C5 JUMP JUMPDEST PUSH2 0x26A PUSH2 0x2613 JUMP JUMPDEST PUSH2 0x26A PUSH2 0x2622 JUMP JUMPDEST PUSH2 0x290 PUSH2 0x46B CALLDATASIZE PUSH1 0x4 PUSH2 0x290E JUMP JUMPDEST PUSH2 0x2644 JUMP JUMPDEST PUSH2 0x290 PUSH2 0x47E CALLDATASIZE PUSH1 0x4 PUSH2 0x290E JUMP JUMPDEST PUSH2 0x269D JUMP JUMPDEST PUSH2 0x290 PUSH2 0x491 CALLDATASIZE PUSH1 0x4 PUSH2 0x290E JUMP JUMPDEST PUSH2 0x26E2 JUMP JUMPDEST PUSH2 0x290 PUSH2 0x4A4 CALLDATASIZE PUSH1 0x4 PUSH2 0x290E JUMP JUMPDEST PUSH2 0x2700 JUMP JUMPDEST PUSH2 0x26A PUSH2 0x2734 JUMP JUMPDEST PUSH2 0x290 PUSH2 0x4BF CALLDATASIZE PUSH1 0x4 PUSH2 0x290E JUMP JUMPDEST PUSH2 0x2743 JUMP JUMPDEST PUSH2 0x290 PUSH2 0x4D2 CALLDATASIZE PUSH1 0x4 PUSH2 0x2AA6 JUMP JUMPDEST PUSH2 0x275E JUMP JUMPDEST PUSH2 0x290 PUSH2 0x4E5 CALLDATASIZE PUSH1 0x4 PUSH2 0x2AA6 JUMP JUMPDEST PUSH2 0x27CF JUMP JUMPDEST PUSH2 0x290 PUSH2 0x4F8 CALLDATASIZE PUSH1 0x4 PUSH2 0x294C JUMP JUMPDEST PUSH2 0x281B JUMP JUMPDEST PUSH2 0x290 PUSH2 0x50B CALLDATASIZE PUSH1 0x4 PUSH2 0x294C JUMP JUMPDEST PUSH2 0x2845 JUMP JUMPDEST PUSH2 0x290 PUSH2 0x51E CALLDATASIZE PUSH1 0x4 PUSH2 0x290E JUMP JUMPDEST PUSH2 0x286F JUMP JUMPDEST PUSH1 0x40 MLOAD PUSH1 0x20 ADD PUSH2 0x532 SWAP1 PUSH2 0x2ADB JUMP JUMPDEST PUSH1 0x40 MLOAD PUSH1 0x20 DUP2 DUP4 SUB SUB DUP2 MSTORE SWAP1 PUSH1 0x40 MSTORE DUP1 MLOAD SWAP1 PUSH1 0x20 ADD KECCAK256 DUP2 JUMP JUMPDEST PUSH1 0x0 DUP2 DUP2 MSTORE PUSH1 0x1 DUP1 DUP5 ADD PUSH1 0x20 SWAP1 DUP2 MSTORE PUSH1 0x40 DUP1 DUP5 KECCAK256 SWAP1 SWAP3 ADD SLOAD DUP3 MLOAD PUSH4 0xBE22465D PUSH1 0xE0 SHL DUP2 MSTORE SWAP3 MLOAD PUSH1 0x1 PUSH1 0x1 PUSH1 0xA0 SHL SUB SWAP1 SWAP2 AND SWAP3 PUSH4 0xBE22465D SWAP3 PUSH1 0x4 DUP1 DUP4 ADD SWAP4 SWAP2 SWAP3 DUP3 SWAP1 SUB ADD DUP2 DUP7 GAS STATICCALL ISZERO DUP1 ISZERO PUSH2 0x5A4 JUMPI RETURNDATASIZE PUSH1 0x0 DUP1 RETURNDATACOPY RETURNDATASIZE PUSH1 0x0 REVERT JUMPDEST POP POP POP POP PUSH1 0x40 MLOAD RETURNDATASIZE PUSH1 0x1F NOT PUSH1 0x1F DUP3 ADD AND DUP3 ADD DUP1 PUSH1 0x40 MSTORE POP DUP2 ADD SWAP1 PUSH2 0x5C8 SWAP2 SWAP1 PUSH2 0x2B00 JUMP JUMPDEST SWAP1 POP JUMPDEST SWAP3 SWAP2 POP POP JUMP JUMPDEST PUSH1 0x40 MLOAD PUSH1 0x20 ADD PUSH2 0x532 SWAP1 PUSH2 0x2B29 JUMP JUMPDEST PUSH1 0x40 MLOAD PUSH5 0x312E302E3 PUSH1 0xDC SHL PUSH1 0x20 DUP3 ADD MSTORE PUSH1 0x25 ADD PUSH2 0x532 JUMP JUMPDEST PUSH1 0x40 MLOAD PUSH1 0x20 ADD PUSH2 0x532 SWAP1 PUSH2 0x2B49 JUMP JUMPDEST PUSH1 0x0 PUSH2 0x5C8 DUP3 DUP5 PUSH1 0x3 ADD PUSH1 0x0 PUSH1 0x40 MLOAD PUSH1 0x20 ADD PUSH2 0x623 SWAP1 PUSH2 0x2B29 JUMP JUMPDEST PUSH1 0x40 MLOAD PUSH1 0x20 DUP2 DUP4 SUB SUB DUP2 MSTORE SWAP1 PUSH1 0x40 MSTORE DUP1 MLOAD SWAP1 PUSH1 0x20 ADD KECCAK256 DUP2 MSTORE PUSH1 0x20 ADD SWAP1 DUP2 MSTORE PUSH1 0x20 ADD PUSH1 0x0 KECCAK256 PUSH1 0x2 ADD PUSH2 0x288A SWAP1 SWAP2 SWAP1 PUSH4 0xFFFFFFFF AND JUMP JUMPDEST PUSH1 0x1 PUSH1 0x1 PUSH1 0xA0 SHL SUB DUP2 AND PUSH1 0x0 SWAP1 DUP2 MSTORE PUSH1 0x20 DUP4 DUP2 MSTORE PUSH1 0x40 DUP1 DUP4 KECCAK256 SWAP1 MLOAD PUSH1 0x1 SWAP3 DUP5 SWAP2 PUSH2 0x682 SWAP2 ADD PUSH2 0x2B7B JUMP JUMPDEST PUSH1 0x40 DUP1 MLOAD PUSH1 0x1F NOT DUP2 DUP5 SUB ADD DUP2 MSTORE SWAP2 DUP2 MSTORE DUP2 MLOAD PUSH1 0x20 SWAP3 DUP4 ADD KECCAK256 DUP4 MSTORE SWAP1 DUP3 ADD SWAP3 SWAP1 SWAP3 MSTORE ADD PUSH1 0x0 KECCAK256 SLOAD PUSH1 0xFF AND PUSH1 0x2 DUP2 GT ISZERO PUSH2 0x6BC JUMPI PUSH2 0x6BC PUSH2 0x2B65 JUMP JUMPDEST EQ SWAP4 SWAP3 POP POP POP JUMP JUMPDEST PUSH1 0x40 MLOAD PUSH1 0x20 ADD PUSH2 0x532 SWAP1 PUSH2 0x2B9F JUMP JUMPDEST PUSH1 0x0 DUP2 DUP2 MSTORE PUSH1 0x3 DUP4 ADD PUSH1 0x20 MSTORE PUSH1 0x40 DUP2 KECCAK256 DUP1 SLOAD DUP3 SWAP2 SWAP1 PUSH2 0x6F1 SWAP1 PUSH2 0x2BC2 JUMP JUMPDEST SWAP1 POP GT SWAP1 POP SWAP3 SWAP2 POP POP JUMP JUMPDEST PUSH1 0x40 MLOAD PUSH1 0x20 ADD PUSH2 0x532 SWAP1 PUSH2 0x2BFC JUMP JUMPDEST PUSH1 0x0 DUP2 DUP2 MSTORE PUSH1 0x2 DUP4 ADD PUSH1 0x20 MSTORE PUSH1 0x40 DUP2 KECCAK256 PUSH1 0x1 ADD DUP1 SLOAD DUP3 SWAP2 SWAP1 PUSH2 0x6F1 SWAP1 PUSH2 0x2BC2 JUMP JUMPDEST PUSH1 0x0 DUP4 DUP2 MSTORE PUSH1 0x1 DUP6 ADD PUSH1 0x20 SWAP1 DUP2 MSTORE PUSH1 0x40 DUP1 DUP4 KECCAK256 PUSH1 0x1 PUSH1 0x1 PUSH1 0xE0 SHL SUB NOT DUP6 AND DUP5 MSTORE PUSH1 0x2 ADD DUP3 MSTORE DUP1 DUP4 KECCAK256 SLOAD SWAP1 MLOAD SWAP1 SWAP2 PUSH2 0x77F SWAP2 ADD PUSH21 0x4C4956454C595F414E4F4E594D4F55535F524F4C45 PUSH1 0x58 SHL DUP2 MSTORE PUSH1 0x15 ADD SWAP1 JUMP JUMPDEST PUSH1 0x40 MLOAD PUSH1 0x20 DUP2 DUP4 SUB SUB DUP2 MSTORE SWAP1 PUSH1 0x40 MSTORE DUP1 MLOAD SWAP1 PUSH1 0x20 ADD KECCAK256 DUP2 SUB PUSH2 0x80D JUMPI PUSH1 0x0 DUP6 DUP2 MSTORE PUSH1 0x1 DUP8 DUP2 ADD PUSH1 0x20 MSTORE PUSH1 0x40 SWAP1 SWAP2 KECCAK256 ADD SLOAD PUSH1 0x1 PUSH1 0xA0 SHL SWAP1 DIV PUSH1 0xFF AND DUP1 ISZERO PUSH2 0x805 JUMPI POP PUSH1 0x1 PUSH1 0x0 DUP7 DUP2 MSTORE PUSH1 0x1 DUP1 DUP10 ADD PUSH1 0x20 SWAP1 DUP2 MSTORE PUSH1 0x40 DUP1 DUP5 KECCAK256 PUSH1 0x1 PUSH1 0x1 PUSH1 0xE0 SHL SUB NOT DUP10 AND DUP6 MSTORE PUSH1 0x2 SWAP1 DUP2 ADD SWAP1 SWAP3 MSTORE SWAP1 SWAP3 KECCAK256 ADD SLOAD PUSH1 0xFF AND SWAP1 DUP2 GT ISZERO PUSH2 0x803 JUMPI PUSH2 0x803 PUSH2 0x2B65 JUMP JUMPDEST EQ JUMPDEST SWAP2 POP POP PUSH2 0x912 JUMP JUMPDEST PUSH1 0x0 DUP6 DUP2 MSTORE PUSH1 0x1 DUP8 DUP2 ADD PUSH1 0x20 MSTORE PUSH1 0x40 SWAP1 SWAP2 KECCAK256 ADD SLOAD PUSH1 0x1 PUSH1 0xA0 SHL SWAP1 DIV PUSH1 0xFF AND DUP1 ISZERO PUSH2 0x877 JUMPI POP PUSH1 0x1 PUSH1 0x0 DUP7 DUP2 MSTORE PUSH1 0x1 DUP1 DUP10 ADD PUSH1 0x20 SWAP1 DUP2 MSTORE PUSH1 0x40 DUP1 DUP5 KECCAK256 PUSH1 0x1 PUSH1 0x1 PUSH1 0xE0 SHL SUB NOT DUP10 AND DUP6 MSTORE PUSH1 0x2 SWAP1 DUP2 ADD SWAP1 SWAP3 MSTORE SWAP1 SWAP3 KECCAK256 ADD SLOAD PUSH1 0xFF AND SWAP1 DUP2 GT ISZERO PUSH2 0x875 JUMPI PUSH2 0x875 PUSH2 0x2B65 JUMP JUMPDEST EQ JUMPDEST DUP1 ISZERO PUSH2 0x8A5 JUMPI POP PUSH1 0x0 DUP6 DUP2 MSTORE PUSH1 0x1 DUP1 DUP9 ADD PUSH1 0x20 SWAP1 DUP2 MSTORE PUSH1 0x40 DUP1 DUP5 KECCAK256 SLOAD DUP5 MSTORE PUSH1 0x3 DUP11 ADD SWAP1 SWAP2 MSTORE SWAP1 SWAP2 KECCAK256 ADD SLOAD PUSH1 0xFF AND JUMPDEST DUP1 ISZERO PUSH2 0x8D3 JUMPI POP PUSH1 0x0 DUP2 DUP2 MSTORE PUSH1 0x2 DUP8 ADD PUSH1 0x20 SWAP1 DUP2 MSTORE PUSH1 0x40 DUP1 DUP4 KECCAK256 SLOAD DUP4 MSTORE PUSH1 0x4 DUP10 ADD SWAP1 SWAP2 MSTORE SWAP1 KECCAK256 PUSH1 0x1 ADD SLOAD PUSH1 0xFF AND JUMPDEST DUP1 ISZERO PUSH2 0x805 JUMPI POP PUSH1 0x1 PUSH1 0x1 PUSH1 0x1 PUSH1 0xA0 SHL SUB DUP6 AND PUSH1 0x0 SWAP1 DUP2 MSTORE PUSH1 0x20 DUP9 DUP2 MSTORE PUSH1 0x40 DUP1 DUP4 KECCAK256 DUP6 DUP5 MSTORE SWAP1 SWAP2 MSTORE SWAP1 KECCAK256 SLOAD PUSH1 0xFF AND PUSH1 0x2 DUP2 GT ISZERO PUSH2 0x803 JUMPI PUSH2 0x803 PUSH2 0x2B65 JUMP JUMPDEST SWAP5 SWAP4 POP POP POP POP JUMP JUMPDEST PUSH1 0x40 MLOAD PUSH1 0x20 ADD PUSH2 0x532 SWAP1 PUSH2 0x2B7B JUMP JUMPDEST PUSH1 0x0 DUP2 DUP2 MSTORE PUSH1 0x4 DUP4 ADD PUSH1 0x20 MSTORE PUSH1 0x40 DUP2 KECCAK256 DUP1 SLOAD DUP3 SWAP2 SWAP1 PUSH2 0x947 SWAP1 PUSH2 0x2BC2 JUMP JUMPDEST SWAP1 POP GT DUP1 ISZERO PUSH2 0x5C8 JUMPI POP POP PUSH1 0x0 SWAP1 DUP2 MSTORE PUSH1 0x4 SWAP2 SWAP1 SWAP2 ADD PUSH1 0x20 MSTORE PUSH1 0x40 SWAP1 KECCAK256 PUSH1 0x1 ADD SLOAD PUSH1 0xFF AND SWAP1 JUMP JUMPDEST PUSH1 0x1 PUSH1 0x1 PUSH1 0xA0 SHL SUB DUP2 AND PUSH1 0x0 SWAP1 DUP2 MSTORE PUSH1 0x20 DUP4 DUP2 MSTORE PUSH1 0x40 DUP1 DUP4 KECCAK256 SWAP1 MLOAD PUSH1 0x1 SWAP3 DUP5 SWAP2 PUSH2 0x682 SWAP2 ADD PUSH2 0x2C1A JUMP JUMPDEST PUSH1 0x40 MLOAD PUSH18 0x4C4956454C595F41535345545F5245414C4D PUSH1 0x70 SHL PUSH1 0x20 DUP3 ADD MSTORE PUSH1 0x32 ADD PUSH2 0x532 JUMP JUMPDEST PUSH1 0x40 DUP1 MLOAD PUSH1 0x2 DUP1 DUP3 MSTORE PUSH1 0x60 DUP3 DUP2 ADD SWAP1 SWAP4 MSTORE PUSH1 0x0 SWAP2 SWAP1 DUP2 PUSH1 0x20 ADD JUMPDEST PUSH1 0x40 DUP1 MLOAD PUSH1 0x60 DUP1 DUP3 ADD DUP4 MSTORE PUSH1 0x0 DUP1 DUP4 MSTORE PUSH1 0x20 DUP4 ADD SWAP2 SWAP1 SWAP2 MSTORE SWAP2 DUP2 ADD SWAP2 SWAP1 SWAP2 MSTORE DUP2 MSTORE PUSH1 0x20 ADD SWAP1 PUSH1 0x1 SWAP1 SUB SWAP1 DUP2 PUSH2 0x9D8 JUMPI SWAP1 POP POP SWAP1 POP PUSH1 0x40 MLOAD PUSH1 0x20 ADD PUSH2 0xA1B SWAP1 PUSH2 0x2C64 JUMP JUMPDEST PUSH1 0x40 MLOAD PUSH1 0x20 DUP2 DUP4 SUB SUB DUP2 MSTORE SWAP1 PUSH1 0x40 MSTORE DUP1 MLOAD SWAP1 PUSH1 0x20 ADD KECCAK256 DUP2 PUSH1 0x0 DUP2 MLOAD DUP2 LT PUSH2 0xA44 JUMPI PUSH2 0xA44 PUSH2 0x2C81 JUMP JUMPDEST PUSH1 0x20 MUL PUSH1 0x20 ADD ADD MLOAD PUSH1 0x0 ADD DUP2 DUP2 MSTORE POP POP PUSH1 0x1 DUP2 PUSH1 0x0 DUP2 MLOAD DUP2 LT PUSH2 0xA69 JUMPI PUSH2 0xA69 PUSH2 0x2C81 JUMP JUMPDEST PUSH1 0x20 SWAP1 DUP2 MUL SWAP2 SWAP1 SWAP2 ADD DUP2 ADD MLOAD SWAP2 ISZERO ISZERO PUSH1 0x40 SWAP3 DUP4 ADD MSTORE DUP2 MLOAD PUSH1 0x17 DUP1 DUP3 MSTORE PUSH2 0x300 DUP3 ADD SWAP1 SWAP4 MSTORE SWAP2 SWAP1 DUP3 ADD PUSH2 0x2E0 DUP1 CALLDATASIZE DUP4 CALLDATACOPY ADD SWAP1 POP POP DUP2 PUSH1 0x0 DUP2 MLOAD DUP2 LT PUSH2 0xAAF JUMPI PUSH2 0xAAF PUSH2 0x2C81 JUMP JUMPDEST PUSH1 0x20 MUL PUSH1 0x20 ADD ADD MLOAD PUSH1 0x20 ADD DUP2 SWAP1 MSTORE POP PUSH4 0x48E6BE1C PUSH1 0xE0 SHL DUP2 PUSH1 0x0 DUP2 MLOAD DUP2 LT PUSH2 0xAD9 JUMPI PUSH2 0xAD9 PUSH2 0x2C81 JUMP JUMPDEST PUSH1 0x20 MUL PUSH1 0x20 ADD ADD MLOAD PUSH1 0x20 ADD MLOAD PUSH1 0x0 DUP2 MLOAD DUP2 LT PUSH2 0xAF7 JUMPI PUSH2 0xAF7 PUSH2 0x2C81 JUMP JUMPDEST PUSH1 0x1 PUSH1 0x1 PUSH1 0xE0 SHL SUB NOT SWAP1 SWAP3 AND PUSH1 0x20 SWAP3 DUP4 MUL SWAP2 SWAP1 SWAP2 ADD SWAP1 SWAP2 ADD MSTORE DUP1 MLOAD PUSH4 0x225BF2F9 PUSH1 0xE1 SHL SWAP1 DUP3 SWAP1 PUSH1 0x0 SWAP1 PUSH2 0xB2C JUMPI PUSH2 0xB2C PUSH2 0x2C81 JUMP JUMPDEST PUSH1 0x20 MUL PUSH1 0x20 ADD ADD MLOAD PUSH1 0x20 ADD MLOAD PUSH1 0x1 DUP2 MLOAD DUP2 LT PUSH2 0xB4A JUMPI PUSH2 0xB4A PUSH2 0x2C81 JUMP JUMPDEST PUSH1 0x1 PUSH1 0x1 PUSH1 0xE0 SHL SUB NOT SWAP1 SWAP3 AND PUSH1 0x20 SWAP3 DUP4 MUL SWAP2 SWAP1 SWAP2 ADD SWAP1 SWAP2 ADD MSTORE DUP1 MLOAD PUSH4 0x31C0493 PUSH1 0xE0 SHL SWAP1 DUP3 SWAP1 PUSH1 0x0 SWAP1 PUSH2 0xB7F JUMPI PUSH2 0xB7F PUSH2 0x2C81 JUMP JUMPDEST PUSH1 0x20 MUL PUSH1 0x20 ADD ADD MLOAD PUSH1 0x20 ADD MLOAD PUSH1 0x2 DUP2 MLOAD DUP2 LT PUSH2 0xB9D JUMPI PUSH2 0xB9D PUSH2 0x2C81 JUMP JUMPDEST PUSH1 0x1 PUSH1 0x1 PUSH1 0xE0 SHL SUB NOT SWAP1 SWAP3 AND PUSH1 0x20 SWAP3 DUP4 MUL SWAP2 SWAP1 SWAP2 ADD SWAP1 SWAP2 ADD MSTORE DUP1 MLOAD PUSH4 0x5AC4B36F PUSH1 0xE1 SHL SWAP1 DUP3 SWAP1 PUSH1 0x0 SWAP1 PUSH2 0xBD2 JUMPI PUSH2 0xBD2 PUSH2 0x2C81 JUMP JUMPDEST PUSH1 0x20 MUL PUSH1 0x20 ADD ADD MLOAD PUSH1 0x20 ADD MLOAD PUSH1 0x3 DUP2 MLOAD DUP2 LT PUSH2 0xBF0 JUMPI PUSH2 0xBF0 PUSH2 0x2C81 JUMP JUMPDEST PUSH1 0x1 PUSH1 0x1 PUSH1 0xE0 SHL SUB NOT SWAP1 SWAP3 AND PUSH1 0x20 SWAP3 DUP4 MUL SWAP2 SWAP1 SWAP2 ADD SWAP1 SWAP2 ADD MSTORE DUP1 MLOAD PUSH4 0x771BCF45 PUSH1 0xE0 SHL SWAP1 DUP3 SWAP1 PUSH1 0x0 SWAP1 PUSH2 0xC25 JUMPI PUSH2 0xC25 PUSH2 0x2C81 JUMP JUMPDEST PUSH1 0x20 MUL PUSH1 0x20 ADD ADD MLOAD PUSH1 0x20 ADD MLOAD PUSH1 0x4 DUP2 MLOAD DUP2 LT PUSH2 0xC43 JUMPI PUSH2 0xC43 PUSH2 0x2C81 JUMP JUMPDEST PUSH1 0x1 PUSH1 0x1 PUSH1 0xE0 SHL SUB NOT SWAP1 SWAP3 AND PUSH1 0x20 SWAP3 DUP4 MUL SWAP2 SWAP1 SWAP2 ADD SWAP1 SWAP2 ADD MSTORE DUP1 MLOAD PUSH4 0x4346A04B PUSH1 0xE0 SHL SWAP1 DUP3 SWAP1 PUSH1 0x0 SWAP1 PUSH2 0xC78 JUMPI PUSH2 0xC78 PUSH2 0x2C81 JUMP JUMPDEST PUSH1 0x20 MUL PUSH1 0x20 ADD ADD MLOAD PUSH1 0x20 ADD MLOAD PUSH1 0x5 DUP2 MLOAD DUP2 LT PUSH2 0xC96 JUMPI PUSH2 0xC96 PUSH2 0x2C81 JUMP JUMPDEST PUSH1 0x1 PUSH1 0x1 PUSH1 0xE0 SHL SUB NOT SWAP1 SWAP3 AND PUSH1 0x20 SWAP3 DUP4 MUL SWAP2 SWAP1 SWAP2 ADD SWAP1 SWAP2 ADD MSTORE DUP1 MLOAD PUSH4 0xD3386401 PUSH1 0xE0 SHL SWAP1 DUP3 SWAP1 PUSH1 0x0 SWAP1 PUSH2 0xCCB JUMPI PUSH2 0xCCB PUSH2 0x2C81 JUMP JUMPDEST PUSH1 0x20 MUL PUSH1 0x20 ADD ADD MLOAD PUSH1 0x20 ADD MLOAD PUSH1 0x6 DUP2 MLOAD DUP2 LT PUSH2 0xCE9 JUMPI PUSH2 0xCE9 PUSH2 0x2C81 JUMP JUMPDEST PUSH1 0x1 PUSH1 0x1 PUSH1 0xE0 SHL SUB NOT SWAP1 SWAP3 AND PUSH1 0x20 SWAP3 DUP4 MUL SWAP2 SWAP1 SWAP2 ADD SWAP1 SWAP2 ADD MSTORE DUP1 MLOAD PUSH4 0x70420EE3 PUSH1 0xE0 SHL SWAP1 DUP3 SWAP1 PUSH1 0x0 SWAP1 PUSH2 0xD1E JUMPI PUSH2 0xD1E PUSH2 0x2C81 JUMP JUMPDEST PUSH1 0x20 MUL PUSH1 0x20 ADD ADD MLOAD PUSH1 0x20 ADD MLOAD PUSH1 0x7 DUP2 MLOAD DUP2 LT PUSH2 0xD3C JUMPI PUSH2 0xD3C PUSH2 0x2C81 JUMP JUMPDEST PUSH1 0x1 PUSH1 0x1 PUSH1 0xE0 SHL SUB NOT SWAP1 SWAP3 AND PUSH1 0x20 SWAP3 DUP4 MUL SWAP2 SWAP1 SWAP2 ADD SWAP1 SWAP2 ADD MSTORE DUP1 MLOAD PUSH4 0x3CBE67E9 PUSH1 0xE2 SHL SWAP1 DUP3 SWAP1 PUSH1 0x0 SWAP1 PUSH2 0xD71 JUMPI PUSH2 0xD71 PUSH2 0x2C81 JUMP JUMPDEST PUSH1 0x20 MUL PUSH1 0x20 ADD ADD MLOAD PUSH1 0x20 ADD MLOAD PUSH1 0x8 DUP2 MLOAD DUP2 LT PUSH2 0xD8F JUMPI PUSH2 0xD8F PUSH2 0x2C81 JUMP JUMPDEST PUSH1 0x1 PUSH1 0x1 PUSH1 0xE0 SHL SUB NOT SWAP1 SWAP3 AND PUSH1 0x20 SWAP3 DUP4 MUL SWAP2 SWAP1 SWAP2 ADD SWAP1 SWAP2 ADD MSTORE DUP1 MLOAD PUSH4 0xB2DC26E5 PUSH1 0xE0 SHL SWAP1 DUP3 SWAP1 PUSH1 0x0 SWAP1 PUSH2 0xDC4 JUMPI PUSH2 0xDC4 PUSH2 0x2C81 JUMP JUMPDEST PUSH1 0x20 MUL PUSH1 0x20 ADD ADD MLOAD PUSH1 0x20 ADD MLOAD PUSH1 0x9 DUP2 MLOAD DUP2 LT PUSH2 0xDE2 JUMPI PUSH2 0xDE2 PUSH2 0x2C81 JUMP JUMPDEST PUSH1 0x1 PUSH1 0x1 PUSH1 0xE0 SHL SUB NOT SWAP1 SWAP3 AND PUSH1 0x20 SWAP3 DUP4 MUL SWAP2 SWAP1 SWAP2 ADD SWAP1 SWAP2 ADD MSTORE DUP1 MLOAD PUSH4 0x4F1D1675 PUSH1 0xE1 SHL SWAP1 DUP3 SWAP1 PUSH1 0x0 SWAP1 PUSH2 0xE17 JUMPI PUSH2 0xE17 PUSH2 0x2C81 JUMP JUMPDEST PUSH1 0x20 MUL PUSH1 0x20 ADD ADD MLOAD PUSH1 0x20 ADD MLOAD PUSH1 0xA DUP2 MLOAD DUP2 LT PUSH2 0xE35 JUMPI PUSH2 0xE35 PUSH2 0x2C81 JUMP JUMPDEST PUSH1 0x1 PUSH1 0x1 PUSH1 0xE0 SHL SUB NOT SWAP1 SWAP3 AND PUSH1 0x20 SWAP3 DUP4 MUL SWAP2 SWAP1 SWAP2 ADD SWAP1 SWAP2 ADD MSTORE DUP1 MLOAD PUSH4 0x8F09E0F PUSH1 0xE4 SHL SWAP1 DUP3 SWAP1 PUSH1 0x0 SWAP1 PUSH2 0xE6A JUMPI PUSH2 0xE6A PUSH2 0x2C81 JUMP JUMPDEST PUSH1 0x20 MUL PUSH1 0x20 ADD ADD MLOAD PUSH1 0x20 ADD MLOAD PUSH1 0xB DUP2 MLOAD DUP2 LT PUSH2 0xE88 JUMPI PUSH2 0xE88 PUSH2 0x2C81 JUMP JUMPDEST PUSH1 0x1 PUSH1 0x1 PUSH1 0xE0 SHL SUB NOT SWAP1 SWAP3 AND PUSH1 0x20 SWAP3 DUP4 MUL SWAP2 SWAP1 SWAP2 ADD SWAP1 SWAP2 ADD MSTORE DUP1 MLOAD PUSH4 0x93BA3131 PUSH1 0xE0 SHL SWAP1 DUP3 SWAP1 PUSH1 0x0 SWAP1 PUSH2 0xEBD JUMPI PUSH2 0xEBD PUSH2 0x2C81 JUMP JUMPDEST PUSH1 0x20 MUL PUSH1 0x20 ADD ADD MLOAD PUSH1 0x20 ADD MLOAD PUSH1 0xC DUP2 MLOAD DUP2 LT PUSH2 0xEDB JUMPI PUSH2 0xEDB PUSH2 0x2C81 JUMP JUMPDEST PUSH1 0x1 PUSH1 0x1 PUSH1 0xE0 SHL SUB NOT SWAP1 SWAP3 AND PUSH1 0x20 SWAP3 DUP4 MUL SWAP2 SWAP1 SWAP2 ADD SWAP1 SWAP2 ADD MSTORE DUP1 MLOAD PUSH4 0xDF01DE45 PUSH1 0xE0 SHL SWAP1 DUP3 SWAP1 PUSH1 0x0 SWAP1 PUSH2 0xF10 JUMPI PUSH2 0xF10 PUSH2 0x2C81 JUMP JUMPDEST PUSH1 0x20 MUL PUSH1 0x20 ADD ADD MLOAD PUSH1 0x20 ADD MLOAD PUSH1 0xD DUP2 MLOAD DUP2 LT PUSH2 0xF2E JUMPI PUSH2 0xF2E PUSH2 0x2C81 JUMP JUMPDEST PUSH1 0x1 PUSH1 0x1 PUSH1 0xE0 SHL SUB NOT SWAP1 SWAP3 AND PUSH1 0x20 SWAP3 DUP4 MUL SWAP2 SWAP1 SWAP2 ADD SWAP1 SWAP2 ADD MSTORE DUP1 MLOAD PUSH4 0x62AB8105 PUSH1 0xE1 SHL SWAP1 DUP3 SWAP1 PUSH1 0x0 SWAP1 PUSH2 0xF63 JUMPI PUSH2 0xF63 PUSH2 0x2C81 JUMP JUMPDEST PUSH1 0x20 MUL PUSH1 0x20 ADD ADD MLOAD PUSH1 0x20 ADD MLOAD PUSH1 0xE DUP2 MLOAD DUP2 LT PUSH2 0xF81 JUMPI PUSH2 0xF81 PUSH2 0x2C81 JUMP JUMPDEST PUSH1 0x1 PUSH1 0x1 PUSH1 0xE0 SHL SUB NOT SWAP1 SWAP3 AND PUSH1 0x20 SWAP3 DUP4 MUL SWAP2 SWAP1 SWAP2 ADD SWAP1 SWAP2 ADD MSTORE DUP1 MLOAD PUSH4 0x738F1127 PUSH1 0xE1 SHL SWAP1 DUP3 SWAP1 PUSH1 0x0 SWAP1 PUSH2 0xFB6 JUMPI PUSH2 0xFB6 PUSH2 0x2C81 JUMP JUMPDEST PUSH1 0x20 MUL PUSH1 0x20 ADD ADD MLOAD PUSH1 0x20 ADD MLOAD PUSH1 0xF DUP2 MLOAD DUP2 LT PUSH2 0xFD4 JUMPI PUSH2 0xFD4 PUSH2 0x2C81 JUMP JUMPDEST PUSH1 0x1 PUSH1 0x1 PUSH1 0xE0 SHL SUB NOT SWAP1 SWAP3 AND PUSH1 0x20 SWAP3 DUP4 MUL SWAP2 SWAP1 SWAP2 ADD SWAP1 SWAP2 ADD MSTORE DUP1 MLOAD PUSH4 0xDBF304B PUSH1 0xE4 SHL SWAP1 DUP3 SWAP1 PUSH1 0x0 SWAP1 PUSH2 0x1009 JUMPI PUSH2 0x1009 PUSH2 0x2C81 JUMP JUMPDEST PUSH1 0x20 MUL PUSH1 0x20 ADD ADD MLOAD PUSH1 0x20 ADD MLOAD PUSH1 0x10 DUP2 MLOAD DUP2 LT PUSH2 0x1027 JUMPI PUSH2 0x1027 PUSH2 0x2C81 JUMP JUMPDEST PUSH1 0x1 PUSH1 0x1 PUSH1 0xE0 SHL SUB NOT SWAP1 SWAP3 AND PUSH1 0x20 SWAP3 DUP4 MUL SWAP2 SWAP1 SWAP2 ADD SWAP1 SWAP2 ADD MSTORE DUP1 MLOAD PUSH4 0x7E99337 PUSH1 0xE3 SHL SWAP1 DUP3 SWAP1 PUSH1 0x0 SWAP1 PUSH2 0x105C JUMPI PUSH2 0x105C PUSH2 0x2C81 JUMP JUMPDEST PUSH1 0x20 MUL PUSH1 0x20 ADD ADD MLOAD PUSH1 0x20 ADD MLOAD PUSH1 0x11 DUP2 MLOAD DUP2 LT PUSH2 0x107A JUMPI PUSH2 0x107A PUSH2 0x2C81 JUMP JUMPDEST PUSH1 0x1 PUSH1 0x1 PUSH1 0xE0 SHL SUB NOT SWAP1 SWAP3 AND PUSH1 0x20 SWAP3 DUP4 MUL SWAP2 SWAP1 SWAP2 ADD SWAP1 SWAP2 ADD MSTORE DUP1 MLOAD PUSH4 0xB6C03F03 PUSH1 0xE0 SHL SWAP1 DUP3 SWAP1 PUSH1 0x0 SWAP1 PUSH2 0x10AF JUMPI PUSH2 0x10AF PUSH2 0x2C81 JUMP JUMPDEST PUSH1 0x20 MUL PUSH1 0x20 ADD ADD MLOAD PUSH1 0x20 ADD MLOAD PUSH1 0x12 DUP2 MLOAD DUP2 LT PUSH2 0x10CD JUMPI PUSH2 0x10CD PUSH2 0x2C81 JUMP JUMPDEST PUSH1 0x1 PUSH1 0x1 PUSH1 0xE0 SHL SUB NOT SWAP1 SWAP3 AND PUSH1 0x20 SWAP3 DUP4 MUL SWAP2 SWAP1 SWAP2 ADD SWAP1 SWAP2 ADD MSTORE DUP1 MLOAD PUSH4 0x12EC6FA3 PUSH1 0xE2 SHL SWAP1 DUP3 SWAP1 PUSH1 0x0 SWAP1 PUSH2 0x1102 JUMPI PUSH2 0x1102 PUSH2 0x2C81 JUMP JUMPDEST PUSH1 0x20 MUL PUSH1 0x20 ADD ADD MLOAD PUSH1 0x20 ADD MLOAD PUSH1 0x13 DUP2 MLOAD DUP2 LT PUSH2 0x1120 JUMPI PUSH2 0x1120 PUSH2 0x2C81 JUMP JUMPDEST PUSH1 0x1 PUSH1 0x1 PUSH1 0xE0 SHL SUB NOT SWAP1 SWAP3 AND PUSH1 0x20 SWAP3 DUP4 MUL SWAP2 SWAP1 SWAP2 ADD SWAP1 SWAP2 ADD MSTORE DUP1 MLOAD PUSH4 0x22DF6F5B PUSH1 0xE2 SHL SWAP1 DUP3 SWAP1 PUSH1 0x0 SWAP1 PUSH2 0x1155 JUMPI PUSH2 0x1155 PUSH2 0x2C81 JUMP JUMPDEST PUSH1 0x20 MUL PUSH1 0x20 ADD ADD MLOAD PUSH1 0x20 ADD MLOAD PUSH1 0x14 DUP2 MLOAD DUP2 LT PUSH2 0x1173 JUMPI PUSH2 0x1173 PUSH2 0x2C81 JUMP JUMPDEST PUSH1 0x1 PUSH1 0x1 PUSH1 0xE0 SHL SUB NOT SWAP1 SWAP3 AND PUSH1 0x20 SWAP3 DUP4 MUL SWAP2 SWAP1 SWAP2 ADD SWAP1 SWAP2 ADD MSTORE DUP1 MLOAD PUSH4 0xF2C673BD PUSH1 0xE0 SHL SWAP1 DUP3 SWAP1 PUSH1 0x0 SWAP1 PUSH2 0x11A8 JUMPI PUSH2 0x11A8 PUSH2 0x2C81 JUMP JUMPDEST PUSH1 0x20 MUL PUSH1 0x20 ADD ADD MLOAD PUSH1 0x20 ADD MLOAD PUSH1 0x15 DUP2 MLOAD DUP2 LT PUSH2 0x11C6 JUMPI PUSH2 0x11C6 PUSH2 0x2C81 JUMP JUMPDEST PUSH1 0x20 MUL PUSH1 0x20 ADD ADD SWAP1 PUSH1 0x1 PUSH1 0x1 PUSH1 0xE0 SHL SUB NOT AND SWAP1 DUP2 PUSH1 0x1 PUSH1 0x1 PUSH1 0xE0 SHL SUB NOT AND DUP2 MSTORE POP POP PUSH32 0x756AF45F4CE05D832BEE0C171992C529AD6D3CA8E13303D78FEACE2F8FD7FAF2 DUP2 PUSH1 0x0 DUP2 MLOAD DUP2 LT PUSH2 0x121C JUMPI PUSH2 0x121C PUSH2 0x2C81 JUMP JUMPDEST PUSH1 0x20 MUL PUSH1 0x20 ADD ADD MLOAD PUSH1 0x20 ADD MLOAD PUSH1 0x16 DUP2 MLOAD DUP2 LT PUSH2 0x123A JUMPI PUSH2 0x123A PUSH2 0x2C81 JUMP JUMPDEST PUSH1 0x1 PUSH1 0x1 PUSH1 0xE0 SHL SUB NOT SWAP1 SWAP3 AND PUSH1 0x20 SWAP3 DUP4 MUL SWAP2 SWAP1 SWAP2 ADD DUP3 ADD MSTORE PUSH1 0x40 MLOAD PUSH2 0x125F SWAP2 ADD PUSH2 0x2B7B JUMP JUMPDEST PUSH1 0x40 MLOAD PUSH1 0x20 DUP2 DUP4 SUB SUB DUP2 MSTORE SWAP1 PUSH1 0x40 MSTORE DUP1 MLOAD SWAP1 PUSH1 0x20 ADD KECCAK256 DUP2 PUSH1 0x1 DUP2 MLOAD DUP2 LT PUSH2 0x1288 JUMPI PUSH2 0x1288 PUSH2 0x2C81 JUMP JUMPDEST PUSH1 0x20 MUL PUSH1 0x20 ADD ADD MLOAD PUSH1 0x0 ADD DUP2 DUP2 MSTORE POP POP PUSH1 0x1 DUP2 PUSH1 0x1 DUP2 MLOAD DUP2 LT PUSH2 0x12AD JUMPI PUSH2 0x12AD PUSH2 0x2C81 JUMP JUMPDEST PUSH1 0x20 SWAP1 DUP2 MUL SWAP2 SWAP1 SWAP2 ADD DUP2 ADD MLOAD SWAP2 ISZERO ISZERO PUSH1 0x40 SWAP3 DUP4 ADD MSTORE DUP2 MLOAD PUSH1 0x4 DUP1 DUP3 MSTORE PUSH1 0xA0 DUP3 ADD SWAP1 SWAP4 MSTORE SWAP2 SWAP1 DUP3 ADD PUSH1 0x80 DUP1 CALLDATASIZE DUP4 CALLDATACOPY ADD SWAP1 POP POP DUP2 PUSH1 0x1 DUP2 MLOAD DUP2 LT PUSH2 0x12F1 JUMPI PUSH2 0x12F1 PUSH2 0x2C81 JUMP JUMPDEST PUSH1 0x20 MUL PUSH1 0x20 ADD ADD MLOAD PUSH1 0x20 ADD DUP2 SWAP1 MSTORE POP PUSH4 0xD9DC1F19 PUSH1 0xE0 SHL DUP2 PUSH1 0x1 DUP2 MLOAD DUP2 LT PUSH2 0x131B JUMPI PUSH2 0x131B PUSH2 0x2C81 JUMP JUMPDEST PUSH1 0x20 MUL PUSH1 0x20 ADD ADD MLOAD PUSH1 0x20 ADD MLOAD PUSH1 0x0 DUP2 MLOAD DUP2 LT PUSH2 0x1339 JUMPI PUSH2 0x1339 PUSH2 0x2C81 JUMP JUMPDEST PUSH1 0x1 PUSH1 0x1 PUSH1 0xE0 SHL SUB NOT SWAP1 SWAP3 AND PUSH1 0x20 SWAP3 DUP4 MUL SWAP2 SWAP1 SWAP2 ADD SWAP1 SWAP2 ADD MSTORE DUP1 MLOAD PUSH4 0x7147855D PUSH1 0xE0 SHL SWAP1 DUP3 SWAP1 PUSH1 0x1 SWAP1 DUP2 LT PUSH2 0x1370 JUMPI PUSH2 0x1370 PUSH2 0x2C81 JUMP JUMPDEST PUSH1 0x20 MUL PUSH1 0x20 ADD ADD MLOAD PUSH1 0x20 ADD MLOAD PUSH1 0x1 DUP2 MLOAD DUP2 LT PUSH2 0x138E JUMPI PUSH2 0x138E PUSH2 0x2C81 JUMP JUMPDEST PUSH1 0x1 PUSH1 0x1 PUSH1 0xE0 SHL SUB NOT SWAP1 SWAP3 AND PUSH1 0x20 SWAP3 DUP4 MUL SWAP2 SWAP1 SWAP2 ADD SWAP1 SWAP2 ADD MSTORE DUP1 MLOAD PUSH4 0x78EFA4ED PUSH1 0xE1 SHL SWAP1 DUP3 SWAP1 PUSH1 0x1 SWAP1 DUP2 LT PUSH2 0x13C5 JUMPI PUSH2 0x13C5 PUSH2 0x2C81 JUMP JUMPDEST PUSH1 0x20 MUL PUSH1 0x20 ADD ADD MLOAD PUSH1 0x20 ADD MLOAD PUSH1 0x2 DUP2 MLOAD DUP2 LT PUSH2 0x13E3 JUMPI PUSH2 0x13E3 PUSH2 0x2C81 JUMP JUMPDEST PUSH1 0x1 PUSH1 0x1 PUSH1 0xE0 SHL SUB NOT SWAP1 SWAP3 AND PUSH1 0x20 SWAP3 DUP4 MUL SWAP2 SWAP1 SWAP2 ADD SWAP1 SWAP2 ADD MSTORE DUP1 MLOAD PUSH4 0x71D569D9 PUSH1 0xE0 SHL SWAP1 DUP3 SWAP1 PUSH1 0x1 SWAP1 DUP2 LT PUSH2 0x141A JUMPI PUSH2 0x141A PUSH2 0x2C81 JUMP JUMPDEST PUSH1 0x20 MUL PUSH1 0x20 ADD ADD MLOAD PUSH1 0x20 ADD MLOAD PUSH1 0x3 DUP2 MLOAD DUP2 LT PUSH2 0x1438 JUMPI PUSH2 0x1438 PUSH2 0x2C81 JUMP JUMPDEST PUSH1 0x1 PUSH1 0x1 PUSH1 0xE0 SHL SUB NOT SWAP1 SWAP3 AND PUSH1 0x20 SWAP3 DUP4 MUL SWAP2 SWAP1 SWAP2 ADD SWAP1 SWAP2 ADD MSTORE SWAP2 SWAP1 POP JUMP JUMPDEST PUSH1 0x0 PUSH2 0x5C8 DUP3 DUP5 PUSH1 0x4 ADD PUSH1 0x0 PUSH1 0x40 MLOAD PUSH1 0x20 ADD PUSH2 0x623 SWAP1 PUSH2 0x2BFC JUMP JUMPDEST PUSH1 0x40 MLOAD PUSH1 0x20 ADD PUSH2 0x532 SWAP1 PUSH2 0x2C97 JUMP JUMPDEST PUSH1 0x1 PUSH1 0x1 PUSH1 0xA0 SHL SUB DUP2 AND PUSH1 0x0 SWAP1 DUP2 MSTORE PUSH1 0x20 DUP4 DUP2 MSTORE PUSH1 0x40 DUP1 DUP4 KECCAK256 SWAP1 MLOAD PUSH1 0x1 SWAP3 DUP5 SWAP2 PUSH2 0x682 SWAP2 ADD PUSH2 0x2ADB JUMP JUMPDEST PUSH1 0x0 DUP2 DUP2 MSTORE PUSH1 0x3 DUP4 ADD PUSH1 0x20 MSTORE PUSH1 0x40 DUP2 KECCAK256 DUP1 SLOAD DUP3 SWAP2 SWAP1 PUSH2 0x14C8 SWAP1 PUSH2 0x2BC2 JUMP JUMPDEST SWAP1 POP GT DUP1 ISZERO PUSH2 0x5C8 JUMPI POP POP PUSH1 0x0 SWAP1 DUP2 MSTORE PUSH1 0x3 SWAP2 SWAP1 SWAP2 ADD PUSH1 0x20 MSTORE PUSH1 0x40 SWAP1 KECCAK256 PUSH1 0x1 ADD SLOAD PUSH1 0xFF AND SWAP1 JUMP JUMPDEST PUSH1 0x40 MLOAD PUSH21 0x4C4956454C595F414E4F4E594D4F55535F524F4C45 PUSH1 0x58 SHL PUSH1 0x20 DUP3 ADD MSTORE PUSH1 0x35 ADD PUSH2 0x532 JUMP JUMPDEST CALLER PUSH1 0x0 SWAP1 DUP2 MSTORE PUSH1 0x20 DUP3 DUP2 MSTORE PUSH1 0x40 DUP1 DUP4 KECCAK256 SWAP1 MLOAD PUSH1 0x1 SWAP4 SWAP2 SWAP3 PUSH2 0x1539 SWAP2 ADD PUSH2 0x2C64 JUMP JUMPDEST PUSH1 0x40 DUP1 MLOAD PUSH1 0x1F NOT DUP2 DUP5 SUB ADD DUP2 MSTORE SWAP2 DUP2 MSTORE DUP2 MLOAD PUSH1 0x20 SWAP3 DUP4 ADD KECCAK256 DUP4 MSTORE SWAP1 DUP3 ADD SWAP3 SWAP1 SWAP3 MSTORE ADD PUSH1 0x0 KECCAK256 DUP1 SLOAD PUSH1 0xFF NOT AND PUSH1 0x1 DUP4 PUSH1 0x2 DUP2 GT ISZERO PUSH2 0x1578 JUMPI PUSH2 0x1578 PUSH2 0x2B65 JUMP JUMPDEST MUL OR SWAP1 SSTORE POP CALLER PUSH1 0x0 SWAP1 DUP2 MSTORE PUSH1 0x20 DUP3 DUP2 MSTORE PUSH1 0x40 DUP1 DUP4 KECCAK256 SWAP1 MLOAD PUSH1 0x1 SWAP4 SWAP2 SWAP3 PUSH2 0x159E SWAP2 ADD PUSH2 0x2B7B JUMP JUMPDEST PUSH1 0x40 DUP1 MLOAD PUSH1 0x1F NOT DUP2 DUP5 SUB ADD DUP2 MSTORE SWAP2 DUP2 MSTORE DUP2 MLOAD PUSH1 0x20 SWAP3 DUP4 ADD KECCAK256 DUP4 MSTORE SWAP1 DUP3 ADD SWAP3 SWAP1 SWAP3 MSTORE ADD PUSH1 0x0 KECCAK256 DUP1 SLOAD PUSH1 0xFF NOT AND PUSH1 0x1 DUP4 PUSH1 0x2 DUP2 GT ISZERO PUSH2 0x15DD JUMPI PUSH2 0x15DD PUSH2 0x2B65 JUMP JUMPDEST MUL OR SWAP1 SSTORE POP PUSH1 0x40 MLOAD DUP1 PUSH1 0x40 ADD PUSH1 0x40 MSTORE DUP1 PUSH1 0x11 DUP2 MSTORE PUSH1 0x20 ADD PUSH17 0x4C4956454C595F41444D494E5F524F4C45 PUSH1 0x78 SHL DUP2 MSTORE POP DUP2 PUSH1 0x2 ADD PUSH1 0x0 PUSH1 0x40 MLOAD PUSH1 0x20 ADD PUSH2 0x1621 SWAP1 PUSH2 0x2C64 JUMP JUMPDEST PUSH1 0x40 MLOAD PUSH1 0x20 DUP2 DUP4 SUB SUB DUP2 MSTORE SWAP1 PUSH1 0x40 MSTORE DUP1 MLOAD SWAP1 PUSH1 0x20 ADD KECCAK256 DUP2 MSTORE PUSH1 0x20 ADD SWAP1 DUP2 MSTORE PUSH1 0x20 ADD PUSH1 0x0 KECCAK256 PUSH1 0x1 ADD SWAP1 DUP2 PUSH2 0x1654 SWAP2 SWAP1 PUSH2 0x2D06 JUMP JUMPDEST POP PUSH1 0x1 DUP2 PUSH1 0x2 ADD PUSH1 0x0 PUSH1 0x40 MLOAD PUSH1 0x20 ADD PUSH2 0x166C SWAP1 PUSH2 0x2C64 JUMP JUMPDEST PUSH1 0x40 MLOAD PUSH1 0x20 DUP2 DUP4 SUB SUB DUP2 MSTORE SWAP1 PUSH1 0x40 MSTORE DUP1 MLOAD SWAP1 PUSH1 0x20 ADD KECCAK256 DUP2 MSTORE PUSH1 0x20 ADD SWAP1 DUP2 MSTORE PUSH1 0x20 ADD PUSH1 0x0 KECCAK256 PUSH1 0x2 ADD PUSH1 0x0 PUSH2 0x100 EXP DUP2 SLOAD DUP2 PUSH1 0xFF MUL NOT AND SWAP1 DUP4 ISZERO ISZERO MUL OR SWAP1 SSTORE POP PUSH1 0x40 MLOAD PUSH1 0x20 ADD PUSH2 0x16B9 SWAP1 PUSH2 0x2C97 JUMP JUMPDEST PUSH1 0x40 MLOAD PUSH1 0x20 DUP2 DUP4 SUB SUB DUP2 MSTORE SWAP1 PUSH1 0x40 MSTORE DUP1 MLOAD SWAP1 PUSH1 0x20 ADD KECCAK256 DUP2 PUSH1 0x2 ADD PUSH1 0x0 PUSH1 0x40 MLOAD PUSH1 0x20 ADD PUSH2 0x16E4 SWAP1 PUSH2 0x2C64 JUMP JUMPDEST PUSH1 0x40 MLOAD PUSH1 0x20 DUP2 DUP4 SUB SUB DUP2 MSTORE SWAP1 PUSH1 0x40 MSTORE DUP1 MLOAD SWAP1 PUSH1 0x20 ADD KECCAK256 DUP2 MSTORE PUSH1 0x20 ADD SWAP1 DUP2 MSTORE PUSH1 0x20 ADD PUSH1 0x0 KECCAK256 PUSH1 0x0 ADD DUP2 SWAP1 SSTORE POP PUSH2 0x175D CALLER DUP3 PUSH1 0x2 ADD PUSH1 0x0 PUSH1 0x40 MLOAD PUSH1 0x20 ADD PUSH2 0x1728 SWAP1 PUSH2 0x2C64 JUMP JUMPDEST PUSH1 0x40 MLOAD PUSH1 0x20 DUP2 DUP4 SUB SUB DUP2 MSTORE SWAP1 PUSH1 0x40 MSTORE DUP1 MLOAD SWAP1 PUSH1 0x20 ADD KECCAK256 DUP2 MSTORE PUSH1 0x20 ADD SWAP1 DUP2 MSTORE PUSH1 0x20 ADD PUSH1 0x0 KECCAK256 PUSH1 0x3 ADD PUSH2 0x28A2 SWAP1 SWAP2 SWAP1 PUSH4 0xFFFFFFFF AND JUMP JUMPDEST POP PUSH1 0x40 MLOAD DUP1 PUSH1 0x40 ADD PUSH1 0x40 MSTORE DUP1 PUSH1 0x18 DUP2 MSTORE PUSH1 0x20 ADD PUSH24 0x4C4956454C595F53595354454D5F41444D494E5F524F4C45 PUSH1 0x40 SHL DUP2 MSTORE POP DUP2 PUSH1 0x2 ADD PUSH1 0x0 PUSH1 0x40 MLOAD PUSH1 0x20 ADD PUSH2 0x17A4 SWAP1 PUSH2 0x2B7B JUMP JUMPDEST PUSH1 0x40 MLOAD PUSH1 0x20 DUP2 DUP4 SUB SUB DUP2 MSTORE SWAP1 PUSH1 0x40 MSTORE DUP1 MLOAD SWAP1 PUSH1 0x20 ADD KECCAK256 DUP2 MSTORE PUSH1 0x20 ADD SWAP1 DUP2 MSTORE PUSH1 0x20 ADD PUSH1 0x0 KECCAK256 PUSH1 0x1 ADD SWAP1 DUP2 PUSH2 0x17D7 SWAP2 SWAP1 PUSH2 0x2D06 JUMP JUMPDEST POP PUSH1 0x1 DUP2 PUSH1 0x2 ADD PUSH1 0x0 PUSH1 0x40 MLOAD PUSH1 0x20 ADD PUSH2 0x17EF SWAP1 PUSH2 0x2B7B JUMP JUMPDEST PUSH1 0x40 MLOAD PUSH1 0x20 DUP2 DUP4 SUB SUB DUP2 MSTORE SWAP1 PUSH1 0x40 MSTORE DUP1 MLOAD SWAP1 PUSH1 0x20 ADD KECCAK256 DUP2 MSTORE PUSH1 0x20 ADD SWAP1 DUP2 MSTORE PUSH1 0x20 ADD PUSH1 0x0 KECCAK256 PUSH1 0x2 ADD PUSH1 0x0 PUSH2 0x100 EXP DUP2 SLOAD DUP2 PUSH1 0xFF MUL NOT AND SWAP1 DUP4 ISZERO ISZERO MUL OR SWAP1 SSTORE POP PUSH1 0x40 MLOAD PUSH1 0x20 ADD PUSH2 0x183C SWAP1 PUSH2 0x2C97 JUMP JUMPDEST PUSH1 0x40 MLOAD PUSH1 0x20 DUP2 DUP4 SUB SUB DUP2 MSTORE SWAP1 PUSH1 0x40 MSTORE DUP1 MLOAD SWAP1 PUSH1 0x20 ADD KECCAK256 DUP2 PUSH1 0x2 ADD PUSH1 0x0 PUSH1 0x40 MLOAD PUSH1 0x20 ADD PUSH2 0x1867 SWAP1 PUSH2 0x2B7B JUMP JUMPDEST PUSH1 0x40 MLOAD PUSH1 0x20 DUP2 DUP4 SUB SUB DUP2 MSTORE SWAP1 PUSH1 0x40 MSTORE DUP1 MLOAD SWAP1 PUSH1 0x20 ADD KECCAK256 DUP2 MSTORE PUSH1 0x20 ADD SWAP1 DUP2 MSTORE PUSH1 0x20 ADD PUSH1 0x0 KECCAK256 PUSH1 0x0 ADD DUP2 SWAP1 SSTORE POP PUSH2 0x18AB CALLER DUP3 PUSH1 0x2 ADD PUSH1 0x0 PUSH1 0x40 MLOAD PUSH1 0x20 ADD PUSH2 0x1728 SWAP1 PUSH2 0x2B7B JUMP JUMPDEST POP PUSH1 0x40 MLOAD DUP1 PUSH1 0x40 ADD PUSH1 0x40 MSTORE DUP1 PUSH1 0x19 DUP2 MSTORE PUSH1 0x20 ADD PUSH25 0x4C4956454C595F41535345545F4D414E414745525F524F4C45 PUSH1 0x38 SHL DUP2 MSTORE POP DUP2 PUSH1 0x2 ADD PUSH1 0x0 PUSH1 0x40 MLOAD PUSH1 0x20 ADD PUSH2 0x18F3 SWAP1 PUSH2 0x2DC6 JUMP JUMPDEST PUSH1 0x40 MLOAD PUSH1 0x20 DUP2 DUP4 SUB SUB DUP2 MSTORE SWAP1 PUSH1 0x40 MSTORE DUP1 MLOAD SWAP1 PUSH1 0x20 ADD KECCAK256 DUP2 MSTORE PUSH1 0x20 ADD SWAP1 DUP2 MSTORE PUSH1 0x20 ADD PUSH1 0x0 KECCAK256 PUSH1 0x1 ADD SWAP1 DUP2 PUSH2 0x1926 SWAP2 SWAP1 PUSH2 0x2D06 JUMP JUMPDEST POP PUSH1 0x1 DUP2 PUSH1 0x2 ADD PUSH1 0x0 PUSH1 0x40 MLOAD PUSH1 0x20 ADD PUSH2 0x193E SWAP1 PUSH2 0x2DC6 JUMP JUMPDEST PUSH1 0x40 MLOAD PUSH1 0x20 DUP2 DUP4 SUB SUB DUP2 MSTORE SWAP1 PUSH1 0x40 MSTORE DUP1 MLOAD SWAP1 PUSH1 0x20 ADD KECCAK256 DUP2 MSTORE PUSH1 0x20 ADD SWAP1 DUP2 MSTORE PUSH1 0x20 ADD PUSH1 0x0 KECCAK256 PUSH1 0x2 ADD PUSH1 0x0 PUSH2 0x100 EXP DUP2 SLOAD DUP2 PUSH1 0xFF MUL NOT AND SWAP1 DUP4 ISZERO ISZERO MUL OR SWAP1 SSTORE POP PUSH1 0x40 MLOAD PUSH1 0x20 ADD PUSH2 0x198B SWAP1 PUSH2 0x2BFC JUMP JUMPDEST PUSH1 0x40 MLOAD PUSH1 0x20 DUP2 DUP4 SUB SUB DUP2 MSTORE SWAP1 PUSH1 0x40 MSTORE DUP1 MLOAD SWAP1 PUSH1 0x20 ADD KECCAK256 DUP2 PUSH1 0x2 ADD PUSH1 0x0 PUSH1 0x40 MLOAD PUSH1 0x20 ADD PUSH2 0x19B6 SWAP1 PUSH2 0x2DC6 JUMP JUMPDEST PUSH1 0x40 MLOAD PUSH1 0x20 DUP2 DUP4 SUB SUB DUP2 MSTORE SWAP1 PUSH1 0x40 MSTORE DUP1 MLOAD SWAP1 PUSH1 0x20 ADD KECCAK256 DUP2 MSTORE PUSH1 0x20 ADD SWAP1 DUP2 MSTORE PUSH1 0x20 ADD PUSH1 0x0 KECCAK256 PUSH1 0x0 ADD DUP2 SWAP1 SSTORE POP PUSH1 0x40 MLOAD DUP1 PUSH1 0x40 ADD PUSH1 0x40 MSTORE DUP1 PUSH1 0x17 DUP2 MSTORE PUSH1 0x20 ADD PUSH23 0x4C4956454C595F41535345545F41444D494E5F524F4C45 PUSH1 0x48 SHL DUP2 MSTORE POP DUP2 PUSH1 0x2 ADD PUSH1 0x0 PUSH1 0x40 MLOAD PUSH1 0x20 ADD PUSH2 0x1A26 SWAP1 PUSH2 0x2B9F JUMP JUMPDEST PUSH1 0x40 MLOAD PUSH1 0x20 DUP2 DUP4 SUB SUB DUP2 MSTORE SWAP1 PUSH1 0x40 MSTORE DUP1 MLOAD SWAP1 PUSH1 0x20 ADD KECCAK256 DUP2 MSTORE PUSH1 0x20 ADD SWAP1 DUP2 MSTORE PUSH1 0x20 ADD PUSH1 0x0 KECCAK256 PUSH1 0x1 ADD SWAP1 DUP2 PUSH2 0x1A59 SWAP2 SWAP1 PUSH2 0x2D06 JUMP JUMPDEST POP PUSH1 0x1 DUP2 PUSH1 0x2 ADD PUSH1 0x0 PUSH1 0x40 MLOAD PUSH1 0x20 ADD PUSH2 0x1A71 SWAP1 PUSH2 0x2B9F JUMP JUMPDEST PUSH1 0x40 MLOAD PUSH1 0x20 DUP2 DUP4 SUB SUB DUP2 MSTORE SWAP1 PUSH1 0x40 MSTORE DUP1 MLOAD SWAP1 PUSH1 0x20 ADD KECCAK256 DUP2 MSTORE PUSH1 0x20 ADD SWAP1 DUP2 MSTORE PUSH1 0x20 ADD PUSH1 0x0 KECCAK256 PUSH1 0x2 ADD PUSH1 0x0 PUSH2 0x100 EXP DUP2 SLOAD DUP2 PUSH1 0xFF MUL NOT AND SWAP1 DUP4 ISZERO ISZERO MUL OR SWAP1 SSTORE POP PUSH1 0x40 MLOAD PUSH1 0x20 ADD PUSH2 0x1ABE SWAP1 PUSH2 0x2BFC JUMP JUMPDEST PUSH1 0x40 MLOAD PUSH1 0x20 DUP2 DUP4 SUB SUB DUP2 MSTORE SWAP1 PUSH1 0x40 MSTORE DUP1 MLOAD SWAP1 PUSH1 0x20 ADD KECCAK256 DUP2 PUSH1 0x2 ADD PUSH1 0x0 PUSH1 0x40 MLOAD PUSH1 0x20 ADD PUSH2 0x1AE9 SWAP1 PUSH2 0x2B9F JUMP JUMPDEST PUSH1 0x40 MLOAD PUSH1 0x20 DUP2 DUP4 SUB SUB DUP2 MSTORE SWAP1 PUSH1 0x40 MSTORE DUP1 MLOAD SWAP1 PUSH1 0x20 ADD KECCAK256 DUP2 MSTORE PUSH1 0x20 ADD SWAP1 DUP2 MSTORE PUSH1 0x20 ADD PUSH1 0x0 KECCAK256 PUSH1 0x0 ADD DUP2 SWAP1 SSTORE POP PUSH1 0x40 MLOAD DUP1 PUSH1 0x40 ADD PUSH1 0x40 MSTORE DUP1 PUSH1 0x19 DUP2 MSTORE PUSH1 0x20 ADD PUSH25 0x4C4956454C595F434F4D4D554E4954595F44414F5F524F4C45 PUSH1 0x38 SHL DUP2 MSTORE POP DUP2 PUSH1 0x2 ADD PUSH1 0x0 PUSH1 0x40 MLOAD PUSH1 0x20 ADD PUSH2 0x1B5B SWAP1 PUSH2 0x2ADB JUMP JUMPDEST PUSH1 0x40 MLOAD PUSH1 0x20 DUP2 DUP4 SUB SUB DUP2 MSTORE SWAP1 PUSH1 0x40 MSTORE DUP1 MLOAD SWAP1 PUSH1 0x20 ADD KECCAK256 DUP2 MSTORE PUSH1 0x20 ADD SWAP1 DUP2 MSTORE PUSH1 0x20 ADD PUSH1 0x0 KECCAK256 PUSH1 0x1 ADD SWAP1 DUP2 PUSH2 0x1B8E SWAP2 SWAP1 PUSH2 0x2D06 JUMP JUMPDEST POP PUSH1 0x1 DUP2 PUSH1 0x2 ADD PUSH1 0x0 PUSH1 0x40 MLOAD PUSH1 0x20 ADD PUSH2 0x1BA6 SWAP1 PUSH2 0x2ADB JUMP JUMPDEST PUSH1 0x40 MLOAD PUSH1 0x20 DUP2 DUP4 SUB SUB DUP2 MSTORE SWAP1 PUSH1 0x40 MSTORE DUP1 MLOAD SWAP1 PUSH1 0x20 ADD KECCAK256 DUP2 MSTORE PUSH1 0x20 ADD SWAP1 DUP2 MSTORE PUSH1 0x20 ADD PUSH1 0x0 KECCAK256 PUSH1 0x2 ADD PUSH1 0x0 PUSH2 0x100 EXP DUP2 SLOAD DUP2 PUSH1 0xFF MUL NOT AND SWAP1 DUP4 ISZERO ISZERO MUL OR SWAP1 SSTORE POP PUSH1 0x40 MLOAD PUSH1 0x20 ADD PUSH2 0x1BF3 SWAP1 PUSH2 0x2B49 JUMP JUMPDEST PUSH1 0x40 MLOAD PUSH1 0x20 DUP2 DUP4 SUB SUB DUP2 MSTORE SWAP1 PUSH1 0x40 MSTORE DUP1 MLOAD SWAP1 PUSH1 0x20 ADD KECCAK256 DUP2 PUSH1 0x2 ADD PUSH1 0x0 PUSH1 0x40 MLOAD PUSH1 0x20 ADD PUSH2 0x1C1E SWAP1 PUSH2 0x2ADB JUMP JUMPDEST PUSH1 0x40 MLOAD PUSH1 0x20 DUP2 DUP4 SUB SUB DUP2 MSTORE SWAP1 PUSH1 0x40 MSTORE DUP1 MLOAD SWAP1 PUSH1 0x20 ADD KECCAK256 DUP2 MSTORE PUSH1 0x20 ADD SWAP1 DUP2 MSTORE PUSH1 0x20 ADD PUSH1 0x0 KECCAK256 PUSH1 0x0 ADD DUP2 SWAP1 SSTORE POP PUSH1 0x40 MLOAD DUP1 PUSH1 0x60 ADD PUSH1 0x40 MSTORE DUP1 PUSH1 0x22 DUP2 MSTORE PUSH1 0x20 ADD PUSH2 0x2DEC PUSH1 0x22 SWAP2 CODECOPY DUP2 PUSH1 0x2 ADD PUSH1 0x0 PUSH1 0x40 MLOAD PUSH1 0x20 ADD PUSH2 0x1C77 SWAP1 PUSH2 0x2C1A JUMP JUMPDEST PUSH1 0x40 MLOAD PUSH1 0x20 DUP2 DUP4 SUB SUB DUP2 MSTORE SWAP1 PUSH1 0x40 MSTORE DUP1 MLOAD SWAP1 PUSH1 0x20 ADD KECCAK256 DUP2 MSTORE PUSH1 0x20 ADD SWAP1 DUP2 MSTORE PUSH1 0x20 ADD PUSH1 0x0 KECCAK256 PUSH1 0x1 ADD SWAP1 DUP2 PUSH2 0x1CAA SWAP2 SWAP1 PUSH2 0x2D06 JUMP JUMPDEST POP PUSH1 0x1 DUP2 PUSH1 0x2 ADD PUSH1 0x0 PUSH1 0x40 MLOAD PUSH1 0x20 ADD PUSH2 0x1CC2 SWAP1 PUSH2 0x2C1A JUMP JUMPDEST PUSH1 0x40 MLOAD PUSH1 0x20 DUP2 DUP4 SUB SUB DUP2 MSTORE SWAP1 PUSH1 0x40 MSTORE DUP1 MLOAD SWAP1 PUSH1 0x20 ADD KECCAK256 DUP2 MSTORE PUSH1 0x20 ADD SWAP1 DUP2 MSTORE PUSH1 0x20 ADD PUSH1 0x0 KECCAK256 PUSH1 0x2 ADD PUSH1 0x0 PUSH2 0x100 EXP DUP2 SLOAD DUP2 PUSH1 0xFF MUL NOT AND SWAP1 DUP4 ISZERO ISZERO MUL OR SWAP1 SSTORE POP PUSH1 0x40 MLOAD PUSH1 0x20 ADD PUSH2 0x1D0F SWAP1 PUSH2 0x2B49 JUMP JUMPDEST PUSH1 0x40 MLOAD PUSH1 0x20 DUP2 DUP4 SUB SUB DUP2 MSTORE SWAP1 PUSH1 0x40 MSTORE DUP1 MLOAD SWAP1 PUSH1 0x20 ADD KECCAK256 DUP2 PUSH1 0x2 ADD PUSH1 0x0 PUSH1 0x40 MLOAD PUSH1 0x20 ADD PUSH2 0x1D3A SWAP1 PUSH2 0x2C1A JUMP JUMPDEST PUSH1 0x40 MLOAD PUSH1 0x20 DUP2 DUP4 SUB SUB DUP2 MSTORE SWAP1 PUSH1 0x40 MSTORE DUP1 MLOAD SWAP1 PUSH1 0x20 ADD KECCAK256 DUP2 MSTORE PUSH1 0x20 ADD SWAP1 DUP2 MSTORE PUSH1 0x20 ADD PUSH1 0x0 KECCAK256 PUSH1 0x0 ADD DUP2 SWAP1 SSTORE POP PUSH1 0x40 MLOAD DUP1 PUSH1 0x40 ADD PUSH1 0x40 MSTORE DUP1 PUSH1 0x15 DUP2 MSTORE PUSH1 0x20 ADD PUSH21 0x4C4956454C595F414E4F4E594D4F55535F524F4C45 PUSH1 0x58 SHL DUP2 MSTORE POP DUP2 PUSH1 0x2 ADD PUSH1 0x0 PUSH1 0x40 MLOAD PUSH1 0x20 ADD PUSH2 0x1DC4 SWAP1 PUSH21 0x4C4956454C595F414E4F4E594D4F55535F524F4C45 PUSH1 0x58 SHL DUP2 MSTORE PUSH1 0x15 ADD SWAP1 JUMP JUMPDEST PUSH1 0x40 MLOAD PUSH1 0x20 DUP2 DUP4 SUB SUB DUP2 MSTORE SWAP1 PUSH1 0x40 MSTORE DUP1 MLOAD SWAP1 PUSH1 0x20 ADD KECCAK256 DUP2 MSTORE PUSH1 0x20 ADD SWAP1 DUP2 MSTORE PUSH1 0x20 ADD PUSH1 0x0 KECCAK256 PUSH1 0x1 ADD SWAP1 DUP2 PUSH2 0x1DF7 SWAP2 SWAP1 PUSH2 0x2D06 JUMP JUMPDEST POP PUSH1 0x1 DUP2 PUSH1 0x2 ADD PUSH1 0x0 PUSH1 0x40 MLOAD PUSH1 0x20 ADD PUSH2 0x1E2B SWAP1 PUSH21 0x4C4956454C595F414E4F4E594D4F55535F524F4C45 PUSH1 0x58 SHL DUP2 MSTORE PUSH1 0x15 ADD SWAP1 JUMP JUMPDEST PUSH1 0x40 MLOAD PUSH1 0x20 DUP2 DUP4 SUB SUB DUP2 MSTORE SWAP1 PUSH1 0x40 MSTORE DUP1 MLOAD SWAP1 PUSH1 0x20 ADD KECCAK256 DUP2 MSTORE PUSH1 0x20 ADD SWAP1 DUP2 MSTORE PUSH1 0x20 ADD PUSH1 0x0 KECCAK256 PUSH1 0x2 ADD PUSH1 0x0 PUSH2 0x100 EXP DUP2 SLOAD DUP2 PUSH1 0xFF MUL NOT AND SWAP1 DUP4 ISZERO ISZERO MUL OR SWAP1 SSTORE POP PUSH1 0x40 MLOAD PUSH1 0x20 ADD PUSH2 0x1E78 SWAP1 PUSH2 0x2C97 JUMP JUMPDEST PUSH1 0x40 MLOAD PUSH1 0x20 DUP2 DUP4 SUB SUB DUP2 MSTORE SWAP1 PUSH1 0x40 MSTORE DUP1 MLOAD SWAP1 PUSH1 0x20 ADD KECCAK256 DUP2 PUSH1 0x2 ADD PUSH1 0x0 PUSH1 0x40 MLOAD PUSH1 0x20 ADD PUSH2 0x1EBF SWAP1 PUSH21 0x4C4956454C595F414E4F4E594D4F55535F524F4C45 PUSH1 0x58 SHL DUP2 MSTORE PUSH1 0x15 ADD SWAP1 JUMP JUMPDEST PUSH1 0x40 MLOAD PUSH1 0x20 DUP2 DUP4 SUB SUB DUP2 MSTORE SWAP1 PUSH1 0x40 MSTORE DUP1 MLOAD SWAP1 PUSH1 0x20 ADD KECCAK256 DUP2 MSTORE PUSH1 0x20 ADD SWAP1 DUP2 MSTORE PUSH1 0x20 ADD PUSH1 0x0 KECCAK256 PUSH1 0x0 ADD DUP2 SWAP1 SSTORE POP PUSH1 0x40 MLOAD DUP1 PUSH1 0x40 ADD PUSH1 0x40 MSTORE DUP1 PUSH1 0x14 DUP2 MSTORE PUSH1 0x20 ADD PUSH20 0x4C4956454C595F47454E4552414C5F47524F555 PUSH1 0x64 SHL DUP2 MSTORE POP DUP2 PUSH1 0x4 ADD PUSH1 0x0 PUSH1 0x40 MLOAD PUSH1 0x20 ADD PUSH2 0x1F2C SWAP1 PUSH2 0x2C97 JUMP JUMPDEST PUSH1 0x40 MLOAD PUSH1 0x20 DUP2 DUP4 SUB SUB DUP2 MSTORE SWAP1 PUSH1 0x40 MSTORE DUP1 MLOAD SWAP1 PUSH1 0x20 ADD KECCAK256 DUP2 MSTORE PUSH1 0x20 ADD SWAP1 DUP2 MSTORE PUSH1 0x20 ADD PUSH1 0x0 KECCAK256 PUSH1 0x0 ADD SWAP1 DUP2 PUSH2 0x1F5F SWAP2 SWAP1 PUSH2 0x2D06 JUMP JUMPDEST POP PUSH1 0x1 DUP2 PUSH1 0x4 ADD PUSH1 0x0 PUSH1 0x40 MLOAD PUSH1 0x20 ADD PUSH2 0x1F77 SWAP1 PUSH2 0x2C97 JUMP JUMPDEST PUSH1 0x40 MLOAD PUSH1 0x20 DUP2 DUP4 SUB SUB DUP2 MSTORE SWAP1 PUSH1 0x40 MSTORE DUP1 MLOAD SWAP1 PUSH1 0x20 ADD KECCAK256 DUP2 MSTORE PUSH1 0x20 ADD SWAP1 DUP2 MSTORE PUSH1 0x20 ADD PUSH1 0x0 KECCAK256 PUSH1 0x1 ADD PUSH1 0x0 PUSH2 0x100 EXP DUP2 SLOAD DUP2 PUSH1 0xFF MUL NOT AND SWAP1 DUP4 ISZERO ISZERO MUL OR SWAP1 SSTORE POP PUSH2 0x2027 PUSH1 0x40 MLOAD PUSH1 0x20 ADD PUSH2 0x1FC7 SWAP1 PUSH2 0x2C64 JUMP JUMPDEST PUSH1 0x40 MLOAD PUSH1 0x20 DUP2 DUP4 SUB SUB DUP2 MSTORE SWAP1 PUSH1 0x40 MSTORE DUP1 MLOAD SWAP1 PUSH1 0x20 ADD KECCAK256 DUP3 PUSH1 0x4 ADD PUSH1 0x0 PUSH1 0x40 MLOAD PUSH1 0x20 ADD PUSH2 0x1FF2 SWAP1 PUSH2 0x2C97 JUMP JUMPDEST PUSH1 0x40 MLOAD PUSH1 0x20 DUP2 DUP4 SUB SUB DUP2 MSTORE SWAP1 PUSH1 0x40 MSTORE DUP1 MLOAD SWAP1 PUSH1 0x20 ADD KECCAK256 DUP2 MSTORE PUSH1 0x20 ADD SWAP1 DUP2 MSTORE PUSH1 0x20 ADD PUSH1 0x0 KECCAK256 PUSH1 0x2 ADD PUSH2 0x28B7 SWAP1 SWAP2 SWAP1 PUSH4 0xFFFFFFFF AND JUMP JUMPDEST POP PUSH2 0x203A PUSH1 0x40 MLOAD PUSH1 0x20 ADD PUSH2 0x1FC7 SWAP1 PUSH2 0x2B7B JUMP JUMPDEST POP PUSH1 0x40 MLOAD DUP1 PUSH1 0x40 ADD PUSH1 0x40 MSTORE DUP1 PUSH1 0x10 DUP2 MSTORE PUSH1 0x20 ADD PUSH16 0x4C4956454C595F44414F5F47524F555 PUSH1 0x84 SHL DUP2 MSTORE POP DUP2 PUSH1 0x4 ADD PUSH1 0x0 PUSH1 0x40 MLOAD PUSH1 0x20 ADD PUSH2 0x2079 SWAP1 PUSH2 0x2B49 JUMP JUMPDEST PUSH1 0x40 MLOAD PUSH1 0x20 DUP2 DUP4 SUB SUB DUP2 MSTORE SWAP1 PUSH1 0x40 MSTORE DUP1 MLOAD SWAP1 PUSH1 0x20 ADD KECCAK256 DUP2 MSTORE PUSH1 0x20 ADD SWAP1 DUP2 MSTORE PUSH1 0x20 ADD PUSH1 0x0 KECCAK256 PUSH1 0x0 ADD SWAP1 DUP2 PUSH2 0x20AC SWAP2 SWAP1 PUSH2 0x2D06 JUMP JUMPDEST POP PUSH1 0x1 DUP2 PUSH1 0x4 ADD PUSH1 0x0 PUSH1 0x40 MLOAD PUSH1 0x20 ADD PUSH2 0x20C4 SWAP1 PUSH2 0x2B49 JUMP JUMPDEST PUSH1 0x40 MLOAD PUSH1 0x20 DUP2 DUP4 SUB SUB DUP2 MSTORE SWAP1 PUSH1 0x40 MSTORE DUP1 MLOAD SWAP1 PUSH1 0x20 ADD KECCAK256 DUP2 MSTORE PUSH1 0x20 ADD SWAP1 DUP2 MSTORE PUSH1 0x20 ADD PUSH1 0x0 KECCAK256 PUSH1 0x1 ADD PUSH1 0x0 PUSH2 0x100 EXP DUP2 SLOAD DUP2 PUSH1 0xFF MUL NOT AND SWAP1 DUP4 ISZERO ISZERO MUL OR SWAP1 SSTORE POP PUSH2 0x213F PUSH1 0x40 MLOAD PUSH1 0x20 ADD PUSH2 0x2114 SWAP1 PUSH2 0x2ADB JUMP JUMPDEST PUSH1 0x40 MLOAD PUSH1 0x20 DUP2 DUP4 SUB SUB DUP2 MSTORE SWAP1 PUSH1 0x40 MSTORE DUP1 MLOAD SWAP1 PUSH1 0x20 ADD KECCAK256 DUP3 PUSH1 0x4 ADD PUSH1 0x0 PUSH1 0x40 MLOAD PUSH1 0x20 ADD PUSH2 0x1FF2 SWAP1 PUSH2 0x2B49 JUMP JUMPDEST POP PUSH2 0x2152 PUSH1 0x40 MLOAD PUSH1 0x20 ADD PUSH2 0x2114 SWAP1 PUSH2 0x2C1A JUMP JUMPDEST POP PUSH1 0x40 MLOAD DUP1 PUSH1 0x40 ADD PUSH1 0x40 MSTORE DUP1 PUSH1 0x12 DUP2 MSTORE PUSH1 0x20 ADD PUSH18 0x4C4956454C595F41535345545F47524F555 PUSH1 0x74 SHL DUP2 MSTORE POP DUP2 PUSH1 0x4 ADD PUSH1 0x0 PUSH1 0x40 MLOAD PUSH1 0x20 ADD PUSH2 0x2193 SWAP1 PUSH2 0x2BFC JUMP JUMPDEST PUSH1 0x40 MLOAD PUSH1 0x20 DUP2 DUP4 SUB SUB DUP2 MSTORE SWAP1 PUSH1 0x40 MSTORE DUP1 MLOAD SWAP1 PUSH1 0x20 ADD KECCAK256 DUP2 MSTORE PUSH1 0x20 ADD SWAP1 DUP2 MSTORE PUSH1 0x20 ADD PUSH1 0x0 KECCAK256 PUSH1 0x0 ADD SWAP1 DUP2 PUSH2 0x21C6 SWAP2 SWAP1 PUSH2 0x2D06 JUMP JUMPDEST POP PUSH1 0x1 DUP2 PUSH1 0x4 ADD PUSH1 0x0 PUSH1 0x40 MLOAD PUSH1 0x20 ADD PUSH2 0x21DE SWAP1 PUSH2 0x2BFC JUMP JUMPDEST PUSH1 0x40 MLOAD PUSH1 0x20 DUP2 DUP4 SUB SUB DUP2 MSTORE SWAP1 PUSH1 0x40 MSTORE DUP1 MLOAD SWAP1 PUSH1 0x20 ADD KECCAK256 DUP2 MSTORE PUSH1 0x20 ADD SWAP1 DUP2 MSTORE PUSH1 0x20 ADD PUSH1 0x0 KECCAK256 PUSH1 0x1 ADD PUSH1 0x0 PUSH2 0x100 EXP DUP2 SLOAD DUP2 PUSH1 0xFF MUL NOT AND SWAP1 DUP4 ISZERO ISZERO MUL OR SWAP1 SSTORE POP PUSH2 0x2259 PUSH1 0x40 MLOAD PUSH1 0x20 ADD PUSH2 0x222E SWAP1 PUSH2 0x2DC6 JUMP JUMPDEST PUSH1 0x40 MLOAD PUSH1 0x20 DUP2 DUP4 SUB SUB DUP2 MSTORE SWAP1 PUSH1 0x40 MSTORE DUP1 MLOAD SWAP1 PUSH1 0x20 ADD KECCAK256 DUP3 PUSH1 0x4 ADD PUSH1 0x0 PUSH1 0x40 MLOAD PUSH1 0x20 ADD PUSH2 0x1FF2 SWAP1 PUSH2 0x2BFC JUMP JUMPDEST POP PUSH2 0x226C PUSH1 0x40 MLOAD PUSH1 0x20 ADD PUSH2 0x222E SWAP1 PUSH2 0x2B9F JUMP JUMPDEST POP PUSH1 0x40 MLOAD DUP1 PUSH1 0x40 ADD PUSH1 0x40 MSTORE DUP1 PUSH1 0x14 DUP2 MSTORE PUSH1 0x20 ADD PUSH20 0x4C4956454C595F47454E4552414C5F5245414C4D PUSH1 0x60 SHL DUP2 MSTORE POP DUP2 PUSH1 0x3 ADD PUSH1 0x0 PUSH1 0x40 MLOAD PUSH1 0x20 ADD PUSH2 0x22AF SWAP1 PUSH2 0x2B29 JUMP JUMPDEST PUSH1 0x40 MLOAD PUSH1 0x20 DUP2 DUP4 SUB SUB DUP2 MSTORE SWAP1 PUSH1 0x40 MSTORE DUP1 MLOAD SWAP1 PUSH1 0x20 ADD KECCAK256 DUP2 MSTORE PUSH1 0x20 ADD SWAP1 DUP2 MSTORE PUSH1 0x20 ADD PUSH1 0x0 KECCAK256 PUSH1 0x0 ADD SWAP1 DUP2 PUSH2 0x22E2 SWAP2 SWAP1 PUSH2 0x2D06 JUMP JUMPDEST POP PUSH1 0x1 DUP2 PUSH1 0x3 ADD PUSH1 0x0 PUSH1 0x40 MLOAD PUSH1 0x20 ADD PUSH2 0x22FA SWAP1 PUSH2 0x2B29 JUMP JUMPDEST PUSH1 0x40 MLOAD PUSH1 0x20 DUP2 DUP4 SUB SUB DUP2 MSTORE SWAP1 PUSH1 0x40 MSTORE DUP1 MLOAD SWAP1 PUSH1 0x20 ADD KECCAK256 DUP2 MSTORE PUSH1 0x20 ADD SWAP1 DUP2 MSTORE PUSH1 0x20 ADD PUSH1 0x0 KECCAK256 PUSH1 0x1 ADD PUSH1 0x0 PUSH2 0x100 EXP DUP2 SLOAD DUP2 PUSH1 0xFF MUL NOT AND SWAP1 DUP4 ISZERO ISZERO MUL OR SWAP1 SSTORE POP PUSH1 0x1 DUP2 PUSH1 0x3 ADD PUSH1 0x0 PUSH1 0x40 MLOAD PUSH1 0x20 ADD PUSH2 0x234F SWAP1 PUSH2 0x2B29 JUMP JUMPDEST PUSH1 0x40 DUP1 MLOAD PUSH1 0x1F NOT DUP2 DUP5 SUB ADD DUP2 MSTORE SWAP2 DUP2 MSTORE DUP2 MLOAD PUSH1 0x20 SWAP3 DUP4 ADD KECCAK256 DUP4 MSTORE DUP3 DUP3 ADD SWAP4 SWAP1 SWAP4 MSTORE SWAP1 DUP3 ADD PUSH1 0x0 KECCAK256 PUSH1 0x1 ADD DUP1 SLOAD SWAP4 ISZERO ISZERO PUSH2 0x100 MUL PUSH2 0xFF00 NOT SWAP1 SWAP5 AND SWAP4 SWAP1 SWAP4 OR SWAP1 SWAP3 SSTORE DUP1 MLOAD ADDRESS PUSH1 0x60 SHL PUSH12 0xFFFFFFFFFFFFFFFFFFFFFFFF NOT AND DUP2 DUP5 ADD MSTORE DUP2 MLOAD PUSH1 0x14 DUP2 DUP4 SUB ADD DUP2 MSTORE PUSH1 0x34 SWAP1 SWAP2 ADD SWAP1 SWAP2 MSTORE DUP1 MLOAD SWAP2 ADD KECCAK256 PUSH2 0x23D9 SWAP1 DUP3 PUSH1 0x3 ADD PUSH1 0x0 PUSH1 0x40 MLOAD PUSH1 0x20 ADD PUSH2 0x1FF2 SWAP1 PUSH2 0x2B29 JUMP JUMPDEST POP PUSH1 0x40 MLOAD DUP1 PUSH1 0x40 ADD PUSH1 0x40 MSTORE DUP1 PUSH1 0x12 DUP2 MSTORE PUSH1 0x20 ADD PUSH18 0x4C4956454C595F41535345545F5245414C4D PUSH1 0x70 SHL DUP2 MSTORE POP DUP2 PUSH1 0x3 ADD PUSH1 0x0 PUSH1 0x40 MLOAD PUSH1 0x20 ADD PUSH2 0x2433 SWAP1 PUSH18 0x4C4956454C595F41535345545F5245414C4D PUSH1 0x70 SHL DUP2 MSTORE PUSH1 0x12 ADD SWAP1 JUMP JUMPDEST PUSH1 0x40 MLOAD PUSH1 0x20 DUP2 DUP4 SUB SUB DUP2 MSTORE SWAP1 PUSH1 0x40 MSTORE DUP1 MLOAD SWAP1 PUSH1 0x20 ADD KECCAK256 DUP2 MSTORE PUSH1 0x20 ADD SWAP1 DUP2 MSTORE PUSH1 0x20 ADD PUSH1 0x0 KECCAK256 PUSH1 0x0 ADD SWAP1 DUP2 PUSH2 0x2466 SWAP2 SWAP1 PUSH2 0x2D06 JUMP JUMPDEST POP PUSH1 0x1 DUP2 PUSH1 0x3 ADD PUSH1 0x0 PUSH1 0x40 MLOAD PUSH1 0x20 ADD PUSH2 0x2497 SWAP1 PUSH18 0x4C4956454C595F41535345545F5245414C4D PUSH1 0x70 SHL DUP2 MSTORE PUSH1 0x12 ADD SWAP1 JUMP JUMPDEST PUSH1 0x40 MLOAD PUSH1 0x20 DUP2 DUP4 SUB SUB DUP2 MSTORE SWAP1 PUSH1 0x40 MSTORE DUP1 MLOAD SWAP1 PUSH1 0x20 ADD KECCAK256 DUP2 MSTORE PUSH1 0x20 ADD SWAP1 DUP2 MSTORE PUSH1 0x20 ADD PUSH1 0x0 KECCAK256 PUSH1 0x1 ADD PUSH1 0x0 PUSH2 0x100 EXP DUP2 SLOAD DUP2 PUSH1 0xFF MUL NOT AND SWAP1 DUP4 ISZERO ISZERO MUL OR SWAP1 SSTORE POP PUSH1 0x1 DUP2 PUSH1 0x3 ADD PUSH1 0x0 PUSH1 0x40 MLOAD PUSH1 0x20 ADD PUSH2 0x2505 SWAP1 PUSH18 0x4C4956454C595F41535345545F5245414C4D PUSH1 0x70 SHL DUP2 MSTORE PUSH1 0x12 ADD SWAP1 JUMP JUMPDEST PUSH1 0x40 MLOAD PUSH1 0x20 DUP2 DUP4 SUB SUB DUP2 MSTORE SWAP1 PUSH1 0x40 MSTORE DUP1 MLOAD SWAP1 PUSH1 0x20 ADD KECCAK256 DUP2 MSTORE PUSH1 0x20 ADD SWAP1 DUP2 MSTORE PUSH1 0x20 ADD PUSH1 0x0 KECCAK256 PUSH1 0x1 ADD PUSH1 0x1 PUSH2 0x100 EXP DUP2 SLOAD DUP2 PUSH1 0xFF MUL NOT AND SWAP1 DUP4 ISZERO ISZERO MUL OR SWAP1 SSTORE POP POP JUMP JUMPDEST PUSH1 0x0 DUP2 DUP2 MSTORE PUSH1 0x1 DUP1 DUP5 ADD PUSH1 0x20 MSTORE PUSH1 0x40 DUP3 KECCAK256 ADD SLOAD PUSH1 0x1 PUSH1 0x1 PUSH1 0xA0 SHL SUB AND ISZERO DUP1 ISZERO SWAP1 PUSH2 0x5C8 JUMPI POP POP PUSH1 0x0 SWAP1 DUP2 MSTORE PUSH1 0x1 SWAP2 DUP3 ADD PUSH1 0x20 MSTORE PUSH1 0x40 SWAP1 KECCAK256 ADD SLOAD PUSH1 0x1 PUSH1 0xA0 SHL SWAP1 DIV PUSH1 0xFF AND SWAP1 JUMP JUMPDEST PUSH1 0x40 MLOAD PUSH1 0x20 ADD PUSH2 0x532 SWAP1 PUSH2 0x2DC6 JUMP JUMPDEST PUSH1 0x1 PUSH1 0x1 PUSH1 0xA0 SHL SUB DUP2 AND PUSH1 0x0 SWAP1 DUP2 MSTORE PUSH1 0x20 DUP4 DUP2 MSTORE PUSH1 0x40 DUP1 DUP4 KECCAK256 SWAP1 MLOAD PUSH1 0x1 SWAP3 DUP5 SWAP2 PUSH2 0x682 SWAP2 ADD PUSH2 0x2DC6 JUMP JUMPDEST PUSH1 0x0 DUP2 DUP2 MSTORE PUSH1 0x3 DUP4 ADD PUSH1 0x20 MSTORE PUSH1 0x40 DUP2 KECCAK256 DUP1 SLOAD PUSH2 0x25E0 SWAP1 PUSH2 0x2BC2 JUMP JUMPDEST SWAP1 POP PUSH1 0x0 SUB PUSH2 0x25F1 JUMPI POP PUSH1 0x0 PUSH2 0x5CB JUMP JUMPDEST POP PUSH1 0x0 SWAP1 DUP2 MSTORE PUSH1 0x3 SWAP2 SWAP1 SWAP2 ADD PUSH1 0x20 MSTORE PUSH1 0x40 SWAP1 KECCAK256 PUSH1 0x1 ADD SLOAD PUSH2 0x100 SWAP1 DIV PUSH1 0xFF AND SWAP1 JUMP JUMPDEST PUSH1 0x40 MLOAD PUSH1 0x20 ADD PUSH2 0x532 SWAP1 PUSH2 0x2C1A JUMP JUMPDEST PUSH1 0x40 MLOAD PUSH14 0x131058D8D95CDCD0DBDB9D1C9BDB PUSH1 0x92 SHL PUSH1 0x20 DUP3 ADD MSTORE PUSH1 0x2E ADD PUSH2 0x532 JUMP JUMPDEST PUSH1 0x0 DUP2 DUP2 MSTORE PUSH1 0x1 DUP1 DUP5 ADD PUSH1 0x20 SWAP1 DUP2 MSTORE PUSH1 0x40 DUP1 DUP5 KECCAK256 SWAP1 SWAP3 ADD SLOAD DUP3 MLOAD PUSH4 0x151E765 PUSH1 0xE6 SHL DUP2 MSTORE SWAP3 MLOAD PUSH1 0x1 PUSH1 0x1 PUSH1 0xA0 SHL SUB SWAP1 SWAP2 AND SWAP3 PUSH4 0x5479D940 SWAP3 PUSH1 0x4 DUP1 DUP4 ADD SWAP4 SWAP2 SWAP3 DUP3 SWAP1 SUB ADD DUP2 DUP7 GAS STATICCALL ISZERO DUP1 ISZERO PUSH2 0x5A4 JUMPI RETURNDATASIZE PUSH1 0x0 DUP1 RETURNDATACOPY RETURNDATASIZE PUSH1 0x0 REVERT JUMPDEST PUSH1 0x0 DUP2 DUP2 MSTORE PUSH1 0x2 DUP4 ADD PUSH1 0x20 MSTORE PUSH1 0x40 DUP2 KECCAK256 PUSH1 0x1 ADD DUP1 SLOAD DUP3 SWAP2 SWAP1 PUSH2 0x26BE SWAP1 PUSH2 0x2BC2 JUMP JUMPDEST SWAP1 POP GT DUP1 ISZERO PUSH2 0x5C8 JUMPI POP POP PUSH1 0x0 SWAP1 DUP2 MSTORE PUSH1 0x2 SWAP2 DUP3 ADD PUSH1 0x20 MSTORE PUSH1 0x40 SWAP1 KECCAK256 ADD SLOAD PUSH1 0xFF AND SWAP1 JUMP JUMPDEST PUSH1 0x0 DUP2 DUP2 MSTORE PUSH1 0x4 DUP4 ADD PUSH1 0x20 MSTORE PUSH1 0x40 DUP2 KECCAK256 DUP1 SLOAD DUP3 SWAP2 SWAP1 PUSH2 0x6F1 SWAP1 PUSH2 0x2BC2 JUMP JUMPDEST PUSH1 0x0 PUSH2 0x5C8 DUP3 DUP5 PUSH1 0x3 ADD PUSH1 0x0 PUSH1 0x40 MLOAD PUSH1 0x20 ADD PUSH2 0x623 SWAP1 PUSH18 0x4C4956454C595F41535345545F5245414C4D PUSH1 0x70 SHL DUP2 MSTORE PUSH1 0x12 ADD SWAP1 JUMP JUMPDEST PUSH1 0x40 MLOAD PUSH1 0x20 ADD PUSH2 0x532 SWAP1 PUSH2 0x2C64 JUMP JUMPDEST PUSH1 0x0 PUSH2 0x5C8 DUP3 DUP5 PUSH1 0x4 ADD PUSH1 0x0 PUSH1 0x40 MLOAD PUSH1 0x20 ADD PUSH2 0x623 SWAP1 PUSH2 0x2B49 JUMP JUMPDEST PUSH1 0x0 DUP3 DUP2 MSTORE PUSH1 0x1 DUP1 DUP6 ADD PUSH1 0x20 MSTORE PUSH1 0x40 DUP3 KECCAK256 ADD SLOAD PUSH1 0x1 PUSH1 0x1 PUSH1 0xA0 SHL SUB AND ISZERO DUP1 ISZERO SWAP1 PUSH2 0x912 JUMPI POP PUSH1 0x1 PUSH1 0x0 DUP5 DUP2 MSTORE PUSH1 0x1 DUP1 DUP8 ADD PUSH1 0x20 SWAP1 DUP2 MSTORE PUSH1 0x40 DUP1 DUP5 KECCAK256 PUSH1 0x1 PUSH1 0x1 PUSH1 0xE0 SHL SUB NOT DUP9 AND DUP6 MSTORE PUSH1 0x2 SWAP1 DUP2 ADD SWAP1 SWAP3 MSTORE SWAP1 SWAP3 KECCAK256 ADD SLOAD PUSH1 0xFF AND SWAP1 DUP2 GT ISZERO PUSH2 0x27C6 JUMPI PUSH2 0x27C6 PUSH2 0x2B65 JUMP JUMPDEST EQ SWAP5 SWAP4 POP POP POP POP JUMP JUMPDEST PUSH1 0x0 DUP3 DUP2 MSTORE PUSH1 0x1 DUP1 DUP6 ADD PUSH1 0x20 MSTORE PUSH1 0x40 DUP3 KECCAK256 ADD SLOAD PUSH1 0x1 PUSH1 0x1 PUSH1 0xA0 SHL SUB AND ISZERO DUP1 ISZERO SWAP1 PUSH2 0x912 JUMPI POP PUSH1 0x0 DUP4 DUP2 MSTORE PUSH1 0x1 DUP6 ADD PUSH1 0x20 MSTORE PUSH1 0x40 SWAP1 KECCAK256 PUSH2 0x912 SWAP1 PUSH1 0x3 ADD PUSH1 0x1 PUSH1 0x1 PUSH1 0xE0 SHL SUB NOT DUP5 AND PUSH2 0x288A JUMP JUMPDEST PUSH1 0x1 PUSH1 0x1 PUSH1 0xA0 SHL SUB DUP2 AND PUSH1 0x0 SWAP1 DUP2 MSTORE PUSH1 0x20 DUP4 DUP2 MSTORE PUSH1 0x40 DUP1 DUP4 KECCAK256 SWAP1 MLOAD PUSH1 0x1 SWAP3 DUP5 SWAP2 PUSH2 0x682 SWAP2 ADD PUSH2 0x2B9F JUMP JUMPDEST PUSH1 0x1 PUSH1 0x1 PUSH1 0xA0 SHL SUB DUP2 AND PUSH1 0x0 SWAP1 DUP2 MSTORE PUSH1 0x20 DUP4 DUP2 MSTORE PUSH1 0x40 DUP1 DUP4 KECCAK256 SWAP1 MLOAD PUSH1 0x1 SWAP3 DUP5 SWAP2 PUSH2 0x682 SWAP2 ADD PUSH2 0x2C64 JUMP JUMPDEST PUSH1 0x0 PUSH2 0x5C8 DUP3 DUP5 PUSH1 0x4 ADD PUSH1 0x0 PUSH1 0x40 MLOAD PUSH1 0x20 ADD PUSH2 0x623 SWAP1 PUSH2 0x2C97 JUMP JUMPDEST PUSH1 0x0 DUP2 DUP2 MSTORE PUSH1 0x1 DUP4 ADD PUSH1 0x20 MSTORE PUSH1 0x40 DUP2 KECCAK256 SLOAD ISZERO ISZERO PUSH2 0x5C8 JUMP JUMPDEST PUSH1 0x0 PUSH2 0x5C8 DUP4 PUSH1 0x1 PUSH1 0x1 PUSH1 0xA0 SHL SUB DUP5 AND PUSH2 0x28BF JUMP JUMPDEST PUSH1 0x0 PUSH2 0x5C8 DUP4 DUP4 JUMPDEST PUSH1 0x0 DUP2 DUP2 MSTORE PUSH1 0x1 DUP4 ADD PUSH1 0x20 MSTORE PUSH1 0x40 DUP2 KECCAK256 SLOAD PUSH2 0x2906 JUMPI POP DUP2 SLOAD PUSH1 0x1 DUP2 DUP2 ADD DUP5 SSTORE PUSH1 0x0 DUP5 DUP2 MSTORE PUSH1 0x20 DUP1 DUP3 KECCAK256 SWAP1 SWAP4 ADD DUP5 SWAP1 SSTORE DUP5 SLOAD DUP5 DUP3 MSTORE DUP3 DUP7 ADD SWAP1 SWAP4 MSTORE PUSH1 0x40 SWAP1 KECCAK256 SWAP2 SWAP1 SWAP2 SSTORE PUSH2 0x5CB JUMP JUMPDEST POP PUSH1 0x0 PUSH2 0x5CB JUMP JUMPDEST PUSH1 0x0 DUP1 PUSH1 0x40 DUP4 DUP6 SUB SLT ISZERO PUSH2 0x2921 JUMPI PUSH1 0x0 DUP1 REVERT JUMPDEST POP POP DUP1 CALLDATALOAD SWAP3 PUSH1 0x20 SWAP1 SWAP2 ADD CALLDATALOAD SWAP2 POP JUMP JUMPDEST DUP1 CALLDATALOAD PUSH1 0x1 PUSH1 0x1 PUSH1 0xA0 SHL SUB DUP2 AND DUP2 EQ PUSH2 0x2947 JUMPI PUSH1 0x0 DUP1 REVERT JUMPDEST SWAP2 SWAP1 POP JUMP JUMPDEST PUSH1 0x0 DUP1 PUSH1 0x40 DUP4 DUP6 SUB SLT ISZERO PUSH2 0x295F JUMPI PUSH1 0x0 DUP1 REVERT JUMPDEST DUP3 CALLDATALOAD SWAP2 POP PUSH2 0x296F PUSH1 0x20 DUP5 ADD PUSH2 0x2930 JUMP JUMPDEST SWAP1 POP SWAP3 POP SWAP3 SWAP1 POP JUMP JUMPDEST DUP1 CALLDATALOAD PUSH1 0x1 PUSH1 0x1 PUSH1 0xE0 SHL SUB NOT DUP2 AND DUP2 EQ PUSH2 0x2947 JUMPI PUSH1 0x0 DUP1 REVERT JUMPDEST PUSH1 0x0 DUP1 PUSH1 0x0 DUP1 PUSH1 0x80 DUP6 DUP8 SUB SLT ISZERO PUSH2 0x29A6 JUMPI PUSH1 0x0 DUP1 REVERT JUMPDEST DUP5 CALLDATALOAD SWAP4 POP PUSH1 0x20 DUP6 ADD CALLDATALOAD SWAP3 POP PUSH2 0x29BD PUSH1 0x40 DUP7 ADD PUSH2 0x2930 JUMP JUMPDEST SWAP2 POP PUSH2 0x29CB PUSH1 0x60 DUP7 ADD PUSH2 0x2978 JUMP JUMPDEST SWAP1 POP SWAP3 SWAP6 SWAP2 SWAP5 POP SWAP3 POP JUMP JUMPDEST PUSH1 0x0 PUSH1 0x20 DUP1 DUP4 ADD DUP2 DUP5 MSTORE DUP1 DUP6 MLOAD DUP1 DUP4 MSTORE PUSH1 0x40 SWAP3 POP DUP3 DUP7 ADD SWAP2 POP DUP3 DUP2 PUSH1 0x5 SHL DUP8 ADD ADD DUP5 DUP9 ADD PUSH1 0x0 DUP1 JUMPDEST DUP5 DUP2 LT ISZERO PUSH2 0x2A7E JUMPI DUP10 DUP5 SUB PUSH1 0x3F NOT ADD DUP7 MSTORE DUP3 MLOAD DUP1 MLOAD DUP6 MSTORE DUP9 DUP2 ADD MLOAD PUSH1 0x60 DUP11 DUP8 ADD DUP2 SWAP1 MSTORE DUP2 MLOAD SWAP1 DUP8 ADD DUP2 SWAP1 MSTORE PUSH1 0x80 DUP8 ADD SWAP2 DUP12 ADD SWAP1 DUP6 SWAP1 JUMPDEST DUP1 DUP3 LT ISZERO PUSH2 0x2A5E JUMPI DUP3 MLOAD PUSH1 0x1 PUSH1 0x1 PUSH1 0xE0 SHL SUB NOT AND DUP5 MSTORE SWAP3 DUP13 ADD SWAP3 SWAP2 DUP13 ADD SWAP2 PUSH1 0x1 SWAP2 SWAP1 SWAP2 ADD SWAP1 PUSH2 0x2A34 JUMP JUMPDEST POP POP POP SWAP1 DUP9 ADD MLOAD ISZERO ISZERO SWAP5 DUP9 ADD SWAP5 SWAP1 SWAP5 MSTORE SWAP5 DUP8 ADD SWAP5 SWAP2 DUP8 ADD SWAP2 PUSH1 0x1 ADD PUSH2 0x29FE JUMP JUMPDEST POP SWAP2 SWAP10 SWAP9 POP POP POP POP POP POP POP POP POP JUMP JUMPDEST PUSH1 0x0 PUSH1 0x20 DUP3 DUP5 SUB SLT ISZERO PUSH2 0x2A9F JUMPI PUSH1 0x0 DUP1 REVERT JUMPDEST POP CALLDATALOAD SWAP2 SWAP1 POP JUMP JUMPDEST PUSH1 0x0 DUP1 PUSH1 0x0 PUSH1 0x60 DUP5 DUP7 SUB SLT ISZERO PUSH2 0x2ABB JUMPI PUSH1 0x0 DUP1 REVERT JUMPDEST DUP4 CALLDATALOAD SWAP3 POP PUSH1 0x20 DUP5 ADD CALLDATALOAD SWAP2 POP PUSH2 0x2AD2 PUSH1 0x40 DUP6 ADD PUSH2 0x2978 JUMP JUMPDEST SWAP1 POP SWAP3 POP SWAP3 POP SWAP3 JUMP JUMPDEST PUSH25 0x4C4956454C595F434F4D4D554E4954595F44414F5F524F4C45 PUSH1 0x38 SHL DUP2 MSTORE PUSH1 0x19 ADD SWAP1 JUMP JUMPDEST PUSH1 0x0 PUSH1 0x20 DUP3 DUP5 SUB SLT ISZERO PUSH2 0x2B12 JUMPI PUSH1 0x0 DUP1 REVERT JUMPDEST DUP2 MLOAD DUP1 ISZERO ISZERO DUP2 EQ PUSH2 0x2B22 JUMPI PUSH1 0x0 DUP1 REVERT JUMPDEST SWAP4 SWAP3 POP POP POP JUMP JUMPDEST PUSH20 0x4C4956454C595F47454E4552414C5F5245414C4D PUSH1 0x60 SHL DUP2 MSTORE PUSH1 0x14 ADD SWAP1 JUMP JUMPDEST PUSH16 0x4C4956454C595F44414F5F47524F555 PUSH1 0x84 SHL DUP2 MSTORE PUSH1 0x10 ADD SWAP1 JUMP JUMPDEST PUSH4 0x4E487B71 PUSH1 0xE0 SHL PUSH1 0x0 MSTORE PUSH1 0x21 PUSH1 0x4 MSTORE PUSH1 0x24 PUSH1 0x0 REVERT JUMPDEST PUSH24 0x4C4956454C595F53595354454D5F41444D494E5F524F4C45 PUSH1 0x40 SHL DUP2 MSTORE PUSH1 0x18 ADD SWAP1 JUMP JUMPDEST PUSH23 0x4C4956454C595F41535345545F41444D494E5F524F4C45 PUSH1 0x48 SHL DUP2 MSTORE PUSH1 0x17 ADD SWAP1 JUMP JUMPDEST PUSH1 0x1 DUP2 DUP2 SHR SWAP1 DUP3 AND DUP1 PUSH2 0x2BD6 JUMPI PUSH1 0x7F DUP3 AND SWAP2 POP JUMPDEST PUSH1 0x20 DUP3 LT DUP2 SUB PUSH2 0x2BF6 JUMPI PUSH4 0x4E487B71 PUSH1 0xE0 SHL PUSH1 0x0 MSTORE PUSH1 0x22 PUSH1 0x4 MSTORE PUSH1 0x24 PUSH1 0x0 REVERT JUMPDEST POP SWAP2 SWAP1 POP JUMP JUMPDEST PUSH18 0x4C4956454C595F41535345545F47524F555 PUSH1 0x74 SHL DUP2 MSTORE PUSH1 0x12 ADD SWAP1 JUMP JUMPDEST PUSH32 0x4C4956454C595F434F4D4D554E4954595F44414F5F4558454355544F525F524F DUP2 MSTORE PUSH2 0x4C45 PUSH1 0xF0 SHL PUSH1 0x20 DUP3 ADD MSTORE PUSH1 0x22 ADD SWAP1 JUMP JUMPDEST PUSH4 0x4E487B71 PUSH1 0xE0 SHL PUSH1 0x0 MSTORE PUSH1 0x41 PUSH1 0x4 MSTORE PUSH1 0x24 PUSH1 0x0 REVERT JUMPDEST PUSH17 0x4C4956454C595F41444D494E5F524F4C45 PUSH1 0x78 SHL DUP2 MSTORE PUSH1 0x11 ADD SWAP1 JUMP JUMPDEST PUSH4 0x4E487B71 PUSH1 0xE0 SHL PUSH1 0x0 MSTORE PUSH1 0x32 PUSH1 0x4 MSTORE PUSH1 0x24 PUSH1 0x0 REVERT JUMPDEST PUSH20 0x4C4956454C595F47454E4552414C5F47524F555 PUSH1 0x64 SHL DUP2 MSTORE PUSH1 0x14 ADD SWAP1 JUMP JUMPDEST PUSH1 0x1F DUP3 GT ISZERO PUSH2 0x2D01 JUMPI PUSH1 0x0 DUP2 DUP2 MSTORE PUSH1 0x20 DUP2 KECCAK256 PUSH1 0x1F DUP6 ADD PUSH1 0x5 SHR DUP2 ADD PUSH1 0x20 DUP7 LT ISZERO PUSH2 0x2CDE JUMPI POP DUP1 JUMPDEST PUSH1 0x1F DUP6 ADD PUSH1 0x5 SHR DUP3 ADD SWAP2 POP JUMPDEST DUP2 DUP2 LT ISZERO PUSH2 0x2CFD JUMPI DUP3 DUP2 SSTORE PUSH1 0x1 ADD PUSH2 0x2CEA JUMP JUMPDEST POP POP POP JUMPDEST POP POP POP JUMP JUMPDEST DUP2 MLOAD PUSH8 0xFFFFFFFFFFFFFFFF DUP2 GT ISZERO PUSH2 0x2D20 JUMPI PUSH2 0x2D20 PUSH2 0x2C4E JUMP JUMPDEST PUSH2 0x2D34 DUP2 PUSH2 0x2D2E DUP5 SLOAD PUSH2 0x2BC2 JUMP JUMPDEST DUP5 PUSH2 0x2CB7 JUMP JUMPDEST PUSH1 0x20 DUP1 PUSH1 0x1F DUP4 GT PUSH1 0x1 DUP2 EQ PUSH2 0x2D69 JUMPI PUSH1 0x0 DUP5 ISZERO PUSH2 0x2D51 JUMPI POP DUP6 DUP4 ADD MLOAD JUMPDEST PUSH1 0x0 NOT PUSH1 0x3 DUP7 SWAP1 SHL SHR NOT AND PUSH1 0x1 DUP6 SWAP1 SHL OR DUP6 SSTORE PUSH2 0x2CFD JUMP JUMPDEST PUSH1 0x0 DUP6 DUP2 MSTORE PUSH1 0x20 DUP2 KECCAK256 PUSH1 0x1F NOT DUP7 AND SWAP2 JUMPDEST DUP3 DUP2 LT ISZERO PUSH2 0x2D98 JUMPI DUP9 DUP7 ADD MLOAD DUP3 SSTORE SWAP5 DUP5 ADD SWAP5 PUSH1 0x1 SWAP1 SWAP2 ADD SWAP1 DUP5 ADD PUSH2 0x2D79 JUMP JUMPDEST POP DUP6 DUP3 LT ISZERO PUSH2 0x2DB6 JUMPI DUP8 DUP6 ADD MLOAD PUSH1 0x0 NOT PUSH1 0x3 DUP9 SWAP1 SHL PUSH1 0xF8 AND SHR NOT AND DUP2 SSTORE JUMPDEST POP POP POP POP POP PUSH1 0x1 SWAP1 DUP2 SHL ADD SWAP1 SSTORE POP JUMP JUMPDEST PUSH25 0x4C4956454C595F41535345545F4D414E414745525F524F4C45 PUSH1 0x38 SHL DUP2 MSTORE PUSH1 0x19 ADD SWAP1 JUMP INVALID 0x4C 0x49 JUMP GASLIMIT 0x4C MSIZE 0x5F NUMBER 0x4F 0x4D 0x4D SSTORE 0x4E 0x49 SLOAD MSIZE 0x5F DIFFICULTY COINBASE 0x4F 0x5F GASLIMIT PC GASLIMIT NUMBER SSTORE SLOAD 0x4F MSTORE 0x5F MSTORE 0x4F 0x4C GASLIMIT LOG2 PUSH5 0x6970667358 0x22 SLT KECCAK256 ADDRESS 0xD1 BYTE 0xC0 DUP6 0x2B 0xAE LOG2 0x2F 0xCA CALLER EQ 0xE8 SWAP9 0xC5 SWAP12 0x2F ADD CODESIZE 0x5E 0x4D PUSH20 0x694FB676A75405173A5764736F6C634300081100 CALLER "
    },
    "gasEstimates": {
      "creation": {
        "codeDepositCost": "2368600",
        "executionCost": "2576",
        "totalCost": "2371176"
      },
      "external": {
        "LIB_NAME()": "448",
        "LIB_VERSION()": "428",
        "LIVELY_ADMIN_ROLE()": "466",
        "LIVELY_ANONYMOUS_ROLE()": "405",
        "LIVELY_ASSET_ADMIN_ROLE()": "423",
        "LIVELY_ASSET_GROUP()": "467",
        "LIVELY_ASSET_MANAGER_ROLE()": "378",
        "LIVELY_ASSET_REALM()": "360",
        "LIVELY_COMMUNITY_DAO_EXECUTOR_ROLE()": "468",
        "LIVELY_COMMUNITY_DAO_ROLE()": "380",
        "LIVELY_DAO_GROUP()": "468",
        "LIVELY_GENERAL_GROUP()": "444",
        "LIVELY_GENERAL_REALM()": "424",
        "LIVELY_SYSTEM_ADMIN_ROLE()": "423",
        "createRequestContext()": "infinite",
        "hasAccess(AccessControlStorage.DataCollections storage,bytes32,address,bytes4)": "infinite",
        "initializeContext(AccessControlStorage.DataCollections storage)": "infinite",
        "isContextEnabled(AccessControlStorage.DataCollections storage,bytes32)": "4860",
        "isContextExists(AccessControlStorage.DataCollections storage,bytes32)": "2533",
        "isContextFunctionEnabled(AccessControlStorage.DataCollections storage,bytes32,bytes4)": "5031",
        "isContextFunctionExists(AccessControlStorage.DataCollections storage,bytes32,bytes4)": "5067",
        "isContextSafeMode(AccessControlStorage.DataCollections storage,bytes32)": "infinite",
        "isContextUpgradable(AccessControlStorage.DataCollections storage,bytes32)": "infinite",
        "isGroupEnabled(AccessControlStorage.DataCollections storage,bytes32)": "4935",
        "isGroupExists(AccessControlStorage.DataCollections storage,bytes32)": "2708",
        "isLivelyAdminRole(AccessControlStorage.DataCollections storage,address)": "2999",
        "isLivelyAssetAdminRole(AccessControlStorage.DataCollections storage,address)": "2977",
        "isLivelyAssetGroup(AccessControlStorage.DataCollections storage,bytes32)": "infinite",
        "isLivelyAssetManagerRole(AccessControlStorage.DataCollections storage,address)": "2934",
        "isLivelyAssetRealm(AccessControlStorage.DataCollections storage,bytes32)": "infinite",
        "isLivelyCommunityDaoExecutorRole(AccessControlStorage.DataCollections storage,address)": "3025",
        "isLivelyCommunityDaoRole(AccessControlStorage.DataCollections storage,address)": "3000",
        "isLivelyDaoGroup(AccessControlStorage.DataCollections storage,bytes32)": "infinite",
        "isLivelyGeneralGroup(AccessControlStorage.DataCollections storage,bytes32)": "infinite",
        "isLivelyGeneralRealm(AccessControlStorage.DataCollections storage,bytes32)": "infinite",
        "isLivelySystemAdminRole(AccessControlStorage.DataCollections storage,address)": "2935",
        "isRealmEnabled(AccessControlStorage.DataCollections storage,bytes32)": "4891",
        "isRealmExists(AccessControlStorage.DataCollections storage,bytes32)": "2731",
        "isRealmUpgradable(AccessControlStorage.DataCollections storage,bytes32)": "4910",
        "isRoleEnabled(AccessControlStorage.DataCollections storage,bytes32)": "4890",
        "isRoleExists(AccessControlStorage.DataCollections storage,bytes32)": "2671"
      }
    },
    "methodIdentifiers": {
      "LIB_NAME()": "bec94751",
      "LIB_VERSION()": "2466209b",
      "LIVELY_ADMIN_ROLE()": "d8b31999",
      "LIVELY_ANONYMOUS_ROLE()": "9bb20d51",
      "LIVELY_ASSET_ADMIN_ROLE()": "36206f04",
      "LIVELY_ASSET_GROUP()": "4c95d60d",
      "LIVELY_ASSET_MANAGER_ROLE()": "a6196757",
      "LIVELY_ASSET_REALM()": "5f6cef3c",
      "LIVELY_COMMUNITY_DAO_EXECUTOR_ROLE()": "b899699c",
      "LIVELY_COMMUNITY_DAO_ROLE()": "108f5bdc",
      "LIVELY_DAO_GROUP()": "2d8bc9cb",
      "LIVELY_GENERAL_GROUP()": "6ac58ac1",
      "LIVELY_GENERAL_REALM()": "20dd27af",
      "LIVELY_SYSTEM_ADMIN_ROLE()": "5632ffd8",
      "createRequestContext()": "62f3c2d4",
      "hasAccess(AccessControlStorage.DataCollections storage,bytes32,address,bytes4)": "513d425a",
      "initializeContext(AccessControlStorage.DataCollections storage)": "9fa79bf8",
      "isContextEnabled(AccessControlStorage.DataCollections storage,bytes32)": "a5f1e2fe",
      "isContextExists(AccessControlStorage.DataCollections storage,bytes32)": "87d8e2b0",
      "isContextFunctionEnabled(AccessControlStorage.DataCollections storage,bytes32,bytes4)": "dd15702c",
      "isContextFunctionExists(AccessControlStorage.DataCollections storage,bytes32,bytes4)": "e99b513a",
      "isContextSafeMode(AccessControlStorage.DataCollections storage,bytes32)": "16b714ad",
      "isContextUpgradable(AccessControlStorage.DataCollections storage,bytes32)": "c0a8ca0c",
      "isGroupEnabled(AccessControlStorage.DataCollections storage,bytes32)": "5a96334b",
      "isGroupExists(AccessControlStorage.DataCollections storage,bytes32)": "cc6c3268",
      "isLivelyAdminRole(AccessControlStorage.DataCollections storage,address)": "efec2d5e",
      "isLivelyAssetAdminRole(AccessControlStorage.DataCollections storage,address)": "e9cfb672",
      "isLivelyAssetGroup(AccessControlStorage.DataCollections storage,bytes32)": "6787ad51",
      "isLivelyAssetManagerRole(AccessControlStorage.DataCollections storage,address)": "afb92706",
      "isLivelyAssetRealm(AccessControlStorage.DataCollections storage,bytes32)": "ce34a66d",
      "isLivelyCommunityDaoExecutorRole(AccessControlStorage.DataCollections storage,address)": "5b8ba898",
      "isLivelyCommunityDaoRole(AccessControlStorage.DataCollections storage,address)": "85de3336",
      "isLivelyDaoGroup(AccessControlStorage.DataCollections storage,bytes32)": "d98ef622",
      "isLivelyGeneralGroup(AccessControlStorage.DataCollections storage,bytes32)": "f0984ee6",
      "isLivelyGeneralRealm(AccessControlStorage.DataCollections storage,bytes32)": "3167d0c4",
      "isLivelySystemAdminRole(AccessControlStorage.DataCollections storage,address)": "337cd188",
      "isRealmEnabled(AccessControlStorage.DataCollections storage,bytes32)": "89b5a834",
      "isRealmExists(AccessControlStorage.DataCollections storage,bytes32)": "37f4c930",
      "isRealmUpgradable(AccessControlStorage.DataCollections storage,bytes32)": "b019d53a",
      "isRoleEnabled(AccessControlStorage.DataCollections storage,bytes32)": "cb4a1bb7",
      "isRoleExists(AccessControlStorage.DataCollections storage,bytes32)": "4df89d6f"
    }
  },
  "storageLayout": {
    "storage": [],
    "types": null
  },
  "userdoc": {
    "kind": "user",
    "methods": {},
    "version": 1
  }
}