{
  "contractName": "LAccessControl",
  "sourceName": "src/contracts/lib/acl/LAccessControl.sol",
  "abi": [
    {
      "inputs": [],
      "name": "LIB_NAME",
      "outputs": [
        {
          "internalType": "bytes32",
          "name": "",
          "type": "bytes32"
        }
      ],
      "stateMutability": "view",
      "type": "function"
    },
    {
      "inputs": [],
      "name": "LIB_VERSION",
      "outputs": [
        {
          "internalType": "bytes32",
          "name": "",
          "type": "bytes32"
        }
      ],
      "stateMutability": "view",
      "type": "function"
    },
    {
      "inputs": [],
      "name": "LIVELY_ADMIN_ROLE",
      "outputs": [
        {
          "internalType": "bytes32",
          "name": "",
          "type": "bytes32"
        }
      ],
      "stateMutability": "view",
      "type": "function"
    },
    {
      "inputs": [],
      "name": "LIVELY_ANONYMOUS_ROLE",
      "outputs": [
        {
          "internalType": "bytes32",
          "name": "",
          "type": "bytes32"
        }
      ],
      "stateMutability": "view",
      "type": "function"
    },
    {
      "inputs": [],
      "name": "LIVELY_ASSET_ADMIN_ROLE",
      "outputs": [
        {
          "internalType": "bytes32",
          "name": "",
          "type": "bytes32"
        }
      ],
      "stateMutability": "view",
      "type": "function"
    },
    {
      "inputs": [],
      "name": "LIVELY_ASSET_GROUP",
      "outputs": [
        {
          "internalType": "bytes32",
          "name": "",
          "type": "bytes32"
        }
      ],
      "stateMutability": "view",
      "type": "function"
    },
    {
      "inputs": [],
      "name": "LIVELY_ASSET_MANAGER_ROLE",
      "outputs": [
        {
          "internalType": "bytes32",
          "name": "",
          "type": "bytes32"
        }
      ],
      "stateMutability": "view",
      "type": "function"
    },
    {
      "inputs": [],
      "name": "LIVELY_ASSET_REALM",
      "outputs": [
        {
          "internalType": "bytes32",
          "name": "",
          "type": "bytes32"
        }
      ],
      "stateMutability": "view",
      "type": "function"
    },
    {
      "inputs": [],
      "name": "LIVELY_COMMUNITY_DAO_EXECUTOR_ROLE",
      "outputs": [
        {
          "internalType": "bytes32",
          "name": "",
          "type": "bytes32"
        }
      ],
      "stateMutability": "view",
      "type": "function"
    },
    {
      "inputs": [],
      "name": "LIVELY_COMMUNITY_DAO_ROLE",
      "outputs": [
        {
          "internalType": "bytes32",
          "name": "",
          "type": "bytes32"
        }
      ],
      "stateMutability": "view",
      "type": "function"
    },
    {
      "inputs": [],
      "name": "LIVELY_DAO_GROUP",
      "outputs": [
        {
          "internalType": "bytes32",
          "name": "",
          "type": "bytes32"
        }
      ],
      "stateMutability": "view",
      "type": "function"
    },
    {
      "inputs": [],
      "name": "LIVELY_GENERAL_GROUP",
      "outputs": [
        {
          "internalType": "bytes32",
          "name": "",
          "type": "bytes32"
        }
      ],
      "stateMutability": "view",
      "type": "function"
    },
    {
      "inputs": [],
      "name": "LIVELY_GENERAL_REALM",
      "outputs": [
        {
          "internalType": "bytes32",
          "name": "",
          "type": "bytes32"
        }
      ],
      "stateMutability": "view",
      "type": "function"
    },
    {
      "inputs": [],
      "name": "LIVELY_SYSTEM_ADMIN_ROLE",
      "outputs": [
        {
          "internalType": "bytes32",
          "name": "",
          "type": "bytes32"
        }
      ],
      "stateMutability": "view",
      "type": "function"
    },
    {
      "inputs": [],
      "name": "createRequestContext",
      "outputs": [
        {
          "components": [
            {
              "internalType": "bytes32",
              "name": "role",
              "type": "bytes32"
            },
            {
              "internalType": "bytes4[]",
              "name": "funcSelectors",
              "type": "bytes4[]"
            },
            {
              "internalType": "bool",
              "name": "isEnabled",
              "type": "bool"
            }
          ],
          "internalType": "struct IContextManagement.RequestRegisterContext[]",
          "name": "",
          "type": "tuple[]"
        }
      ],
      "stateMutability": "pure",
      "type": "function"
    }
  ],
  "bytecode": "0x612df061003a600b82828239805160001a60731461002d57634e487b7160e01b600052600060045260246000fd5b30600052607381538281f3fe730000000000000000000000000000000000000000301460806040526004361061025d5760003560e01c806387d8e2b011610150578063c0a8ca0c116100cd578063d98ef62211610091578063d98ef622146104b1578063dd15702c146104c4578063e99b513a146104d7578063e9cfb672146104ea578063efec2d5e146104fd578063f0984ee61461051057600080fd5b8063c0a8ca0c1461045d578063cb4a1bb714610470578063cc6c326814610483578063ce34a66d14610496578063d8b31999146104a957600080fd5b8063a619675711610114578063a61967571461041f578063afb9270614610427578063b019d53a1461043a578063b899699c1461044d578063bec947511461045557600080fd5b806387d8e2b0146103a057806389b5a834146103cf5780639bb20d51146103e25780639fa79bf8146103ea578063a5f1e2fe1461040c57600080fd5b80634df89d6f116101de5780635f6cef3c116101a25780635f6cef3c1461035557806362f3c2d41461035d5780636787ad51146103725780636ac58ac11461038557806385de33361461038d57600080fd5b80634df89d6f14610301578063513d425a146103145780635632ffd8146103275780635a96334b1461032f5780635b8ba8981461034257600080fd5b80633167d0c4116102255780633167d0c4146102b8578063337cd188146102cb57806336206f04146102de57806337f4c930146102e65780634c95d60d146102f957600080fd5b8063108f5bdc1461026257806316b714ad1461027d57806320dd27af146102a05780632466209b146102a85780632d8bc9cb146102b0575b600080fd5b61026a610523565b6040519081526020015b60405180910390f35b61029061028b3660046128bb565b61054b565b6040519015158152602001610274565b61026a6105d1565b61026a6105e0565b61026a6105f9565b6102906102c63660046128bb565b610608565b6102906102d93660046128f9565b610658565b61026a6106c4565b6102906102f43660046128bb565b6106d3565b61026a6106fc565b61029061030f3660046128bb565b61070b565b61029061032236600461293d565b61072c565b61026a61091a565b61029061033d3660046128bb565b610929565b6102906103503660046128f9565b61096e565b61026a610998565b6103656109be565b6040516102749190612983565b6102906103803660046128bb565b611403565b61026a61141e565b61029061039b3660046128f9565b61142d565b6102906103ae3660046128bb565b600090815260019182016020526040902001546001600160a01b0316151590565b6102906103dd3660046128bb565b611457565b61026a61149c565b8180156103f657600080fd5b5061040a610405366004612a3a565b6114c5565b005b61029061041a3660046128bb565b6124f3565b61026a612539565b6102906104353660046128f9565b612548565b6102906104483660046128bb565b612572565b61026a6125c0565b61026a6125cf565b61029061046b3660046128bb565b6125f1565b61029061047e3660046128bb565b61264a565b6102906104913660046128bb565b61268f565b6102906104a43660046128bb565b6126ad565b61026a6126e1565b6102906104bf3660046128bb565b6126f0565b6102906104d2366004612a53565b61270b565b6102906104e5366004612a53565b61277c565b6102906104f83660046128f9565b6127c8565b61029061050b3660046128f9565b6127f2565b61029061051e3660046128bb565b61281c565b60405160200161053290612a88565b6040516020818303038152906040528051906020012081565b600081815260018084016020908152604080842090920154825163be22465d60e01b815292516001600160a01b039091169263be22465d9260048083019391928290030181865afa1580156105a4573d6000803e3d6000fd5b505050506040513d601f19601f820116820180604052508101906105c89190612aad565b90505b92915050565b60405160200161053290612ad6565b604051640312e302e360dc1b6020820152602501610532565b60405160200161053290612af6565b60006105c88284600301600060405160200161062390612ad6565b60405160208183030381529060405280519060200120815260200190815260200160002060020161283790919063ffffffff16565b6001600160a01b038116600090815260208381526040808320905160019284916106829101612b28565b60408051601f198184030181529181528151602092830120835290820192909252016000205460ff1660028111156106bc576106bc612b12565b149392505050565b60405160200161053290612b4c565b6000818152600383016020526040812080548291906106f190612b6f565b905011905092915050565b60405160200161053290612ba9565b6000818152600283016020526040812060010180548291906106f190612b6f565b600083815260018501602090815260408083206001600160e01b0319851684526002018252808320549051909161077f9101744c4956454c595f414e4f4e594d4f55535f524f4c4560581b815260150190565b60405160208183030381529060405280519060200120810361080d576000858152600187810160205260409091200154600160a01b900460ff1680156108055750600160008681526001808901602090815260408084206001600160e01b0319891685526002908101909252909220015460ff169081111561080357610803612b12565b145b915050610912565b6000858152600187810160205260409091200154600160a01b900460ff1680156108775750600160008681526001808901602090815260408084206001600160e01b0319891685526002908101909252909220015460ff169081111561087557610875612b12565b145b80156108a55750600085815260018088016020908152604080842054845260038a01909152909120015460ff165b80156108d35750600081815260028701602090815260408083205483526004890190915290206001015460ff165b8015610805575060016001600160a01b03851660009081526020888152604080832085845290915290205460ff16600281111561080357610803612b12565b949350505050565b60405160200161053290612b28565b60008181526004830160205260408120805482919061094790612b6f565b90501180156105c85750506000908152600491909101602052604090206001015460ff1690565b6001600160a01b038116600090815260208381526040808320905160019284916106829101612bc7565b604051714c4956454c595f41535345545f5245414c4d60701b6020820152603201610532565b604080516002808252606082810190935260009190816020015b604080516060808201835260008083526020830191909152918101919091528152602001906001900390816109d8579050509050604051602001610a1b90612c11565b6040516020818303038152906040528051906020012081600081518110610a4457610a44612c2e565b60200260200101516000018181525050600181600081518110610a6957610a69612c2e565b602090810291909101810151911515604092830152815160168082526102e08201909352919082016102c0803683370190505081600081518110610aaf57610aaf612c2e565b6020026020010151602001819052506348e6be1c60e01b81600081518110610ad957610ad9612c2e565b602002602001015160200151600081518110610af757610af7612c2e565b6001600160e01b031990921660209283029190910190910152805163225bf2f960e11b908290600090610b2c57610b2c612c2e565b602002602001015160200151600181518110610b4a57610b4a612c2e565b6001600160e01b031990921660209283029190910190910152805163031c049360e01b908290600090610b7f57610b7f612c2e565b602002602001015160200151600281518110610b9d57610b9d612c2e565b6001600160e01b0319909216602092830291909101909101528051635ac4b36f60e11b908290600090610bd257610bd2612c2e565b602002602001015160200151600381518110610bf057610bf0612c2e565b6001600160e01b031990921660209283029190910190910152805163771bcf4560e01b908290600090610c2557610c25612c2e565b602002602001015160200151600481518110610c4357610c43612c2e565b6001600160e01b0319909216602092830291909101909101528051634346a04b60e01b908290600090610c7857610c78612c2e565b602002602001015160200151600581518110610c9657610c96612c2e565b6001600160e01b031990921660209283029190910190910152805163d338640160e01b908290600090610ccb57610ccb612c2e565b602002602001015160200151600681518110610ce957610ce9612c2e565b6001600160e01b03199092166020928302919091019091015280516370420ee360e01b908290600090610d1e57610d1e612c2e565b602002602001015160200151600781518110610d3c57610d3c612c2e565b6001600160e01b031990921660209283029190910190910152805163b2dc26e560e01b908290600090610d7157610d71612c2e565b602002602001015160200151600881518110610d8f57610d8f612c2e565b6001600160e01b0319909216602092830291909101909101528051634f1d167560e11b908290600090610dc457610dc4612c2e565b602002602001015160200151600981518110610de257610de2612c2e565b6001600160e01b03199092166020928302919091019091015280516308f09e0f60e41b908290600090610e1757610e17612c2e565b602002602001015160200151600a81518110610e3557610e35612c2e565b6001600160e01b03199092166020928302919091019091015280516393ba313160e01b908290600090610e6a57610e6a612c2e565b602002602001015160200151600b81518110610e8857610e88612c2e565b6001600160e01b031990921660209283029190910190910152805163df01de4560e01b908290600090610ebd57610ebd612c2e565b602002602001015160200151600c81518110610edb57610edb612c2e565b6001600160e01b03199092166020928302919091019091015280516362ab810560e11b908290600090610f1057610f10612c2e565b602002602001015160200151600d81518110610f2e57610f2e612c2e565b6001600160e01b031990921660209283029190910190910152805163738f112760e11b908290600090610f6357610f63612c2e565b602002602001015160200151600e81518110610f8157610f81612c2e565b6001600160e01b0319909216602092830291909101909101528051630dbf304b60e41b908290600090610fb657610fb6612c2e565b602002602001015160200151600f81518110610fd457610fd4612c2e565b6001600160e01b03199092166020928302919091019091015280516307e9933760e31b90829060009061100957611009612c2e565b60200260200101516020015160108151811061102757611027612c2e565b6001600160e01b031990921660209283029190910190910152805163b6c03f0360e01b90829060009061105c5761105c612c2e565b60200260200101516020015160118151811061107a5761107a612c2e565b6001600160e01b03199092166020928302919091019091015280516312ec6fa360e21b9082906000906110af576110af612c2e565b6020026020010151602001516012815181106110cd576110cd612c2e565b6001600160e01b03199092166020928302919091019091015280516322df6f5b60e21b90829060009061110257611102612c2e565b60200260200101516020015160138151811061112057611120612c2e565b6001600160e01b031990921660209283029190910190910152805163f2c673bd60e01b90829060009061115557611155612c2e565b60200260200101516020015160148151811061117357611173612c2e565b60200260200101906001600160e01b03191690816001600160e01b031916815250507f756af45f4ce05d832bee0c171992c529ad6d3ca8e13303d78feace2f8fd7faf2816000815181106111c9576111c9612c2e565b6020026020010151602001516015815181106111e7576111e7612c2e565b6001600160e01b031990921660209283029190910182015260405161120c9101612b28565b604051602081830303815290604052805190602001208160018151811061123557611235612c2e565b6020026020010151600001818152505060018160018151811061125a5761125a612c2e565b6020908102919091018101519115156040928301528151600480825260a0820190935291908201608080368337019050508160018151811061129e5761129e612c2e565b60200260200101516020018190525063d9dc1f1960e01b816001815181106112c8576112c8612c2e565b6020026020010151602001516000815181106112e6576112e6612c2e565b6001600160e01b0319909216602092830291909101909101528051637147855d60e01b908290600190811061131d5761131d612c2e565b60200260200101516020015160018151811061133b5761133b612c2e565b6001600160e01b03199092166020928302919091019091015280516378efa4ed60e11b908290600190811061137257611372612c2e565b60200260200101516020015160028151811061139057611390612c2e565b6001600160e01b0319909216602092830291909101909101528051631ccb7c8d60e31b90829060019081106113c7576113c7612c2e565b6020026020010151602001516003815181106113e5576113e5612c2e565b6001600160e01b031990921660209283029190910190910152919050565b60006105c88284600401600060405160200161062390612ba9565b60405160200161053290612c44565b6001600160a01b038116600090815260208381526040808320905160019284916106829101612a88565b60008181526003830160205260408120805482919061147590612b6f565b90501180156105c85750506000908152600391909101602052604090206001015460ff1690565b604051744c4956454c595f414e4f4e594d4f55535f524f4c4560581b6020820152603501610532565b33600090815260208281526040808320905160019391926114e69101612c11565b60408051601f19818403018152918152815160209283012083529082019290925201600020805460ff1916600183600281111561152557611525612b12565b0217905550336000908152602082815260408083209051600193919261154b9101612b28565b60408051601f19818403018152918152815160209283012083529082019290925201600020805460ff1916600183600281111561158a5761158a612b12565b0217905550604051806040016040528060118152602001704c4956454c595f41444d494e5f524f4c4560781b8152508160020160006040516020016115ce90612c11565b60405160208183030381529060405280519060200120815260200190815260200160002060010190816116019190612cb3565b50600181600201600060405160200161161990612c11565b60405160208183030381529060405280519060200120815260200190815260200160002060020160006101000a81548160ff02191690831515021790555060405160200161166690612c44565b6040516020818303038152906040528051906020012081600201600060405160200161169190612c11565b6040516020818303038152906040528051906020012081526020019081526020016000206000018190555061170a338260020160006040516020016116d590612c11565b60405160208183030381529060405280519060200120815260200190815260200160002060030161284f90919063ffffffff16565b50604051806040016040528060188152602001774c4956454c595f53595354454d5f41444d494e5f524f4c4560401b81525081600201600060405160200161175190612b28565b60405160208183030381529060405280519060200120815260200190815260200160002060010190816117849190612cb3565b50600181600201600060405160200161179c90612b28565b60405160208183030381529060405280519060200120815260200190815260200160002060020160006101000a81548160ff0219169083151502179055506040516020016117e990612c44565b6040516020818303038152906040528051906020012081600201600060405160200161181490612b28565b60405160208183030381529060405280519060200120815260200190815260200160002060000181905550611858338260020160006040516020016116d590612b28565b50604051806040016040528060198152602001784c4956454c595f41535345545f4d414e414745525f524f4c4560381b8152508160020160006040516020016118a090612d73565b60405160208183030381529060405280519060200120815260200190815260200160002060010190816118d39190612cb3565b5060018160020160006040516020016118eb90612d73565b60405160208183030381529060405280519060200120815260200190815260200160002060020160006101000a81548160ff02191690831515021790555060405160200161193890612ba9565b6040516020818303038152906040528051906020012081600201600060405160200161196390612d73565b60405160208183030381529060405280519060200120815260200190815260200160002060000181905550604051806040016040528060178152602001764c4956454c595f41535345545f41444d494e5f524f4c4560481b8152508160020160006040516020016119d390612b4c565b6040516020818303038152906040528051906020012081526020019081526020016000206001019081611a069190612cb3565b506001816002016000604051602001611a1e90612b4c565b60405160208183030381529060405280519060200120815260200190815260200160002060020160006101000a81548160ff021916908315150217905550604051602001611a6b90612ba9565b60405160208183030381529060405280519060200120816002016000604051602001611a9690612b4c565b60405160208183030381529060405280519060200120815260200190815260200160002060000181905550604051806040016040528060198152602001784c4956454c595f434f4d4d554e4954595f44414f5f524f4c4560381b815250816002016000604051602001611b0890612a88565b6040516020818303038152906040528051906020012081526020019081526020016000206001019081611b3b9190612cb3565b506001816002016000604051602001611b5390612a88565b60405160208183030381529060405280519060200120815260200190815260200160002060020160006101000a81548160ff021916908315150217905550604051602001611ba090612af6565b60405160208183030381529060405280519060200120816002016000604051602001611bcb90612a88565b60405160208183030381529060405280519060200120815260200190815260200160002060000181905550604051806060016040528060228152602001612d9960229139816002016000604051602001611c2490612bc7565b6040516020818303038152906040528051906020012081526020019081526020016000206001019081611c579190612cb3565b506001816002016000604051602001611c6f90612bc7565b60405160208183030381529060405280519060200120815260200190815260200160002060020160006101000a81548160ff021916908315150217905550604051602001611cbc90612af6565b60405160208183030381529060405280519060200120816002016000604051602001611ce790612bc7565b60405160208183030381529060405280519060200120815260200190815260200160002060000181905550604051806040016040528060158152602001744c4956454c595f414e4f4e594d4f55535f524f4c4560581b815250816002016000604051602001611d7190744c4956454c595f414e4f4e594d4f55535f524f4c4560581b815260150190565b6040516020818303038152906040528051906020012081526020019081526020016000206001019081611da49190612cb3565b506001816002016000604051602001611dd890744c4956454c595f414e4f4e594d4f55535f524f4c4560581b815260150190565b60405160208183030381529060405280519060200120815260200190815260200160002060020160006101000a81548160ff021916908315150217905550604051602001611e2590612c44565b60405160208183030381529060405280519060200120816002016000604051602001611e6c90744c4956454c595f414e4f4e594d4f55535f524f4c4560581b815260150190565b604051602081830303815290604052805190602001208152602001908152602001600020600001819055506040518060400160405280601481526020017304c4956454c595f47454e4552414c5f47524f55560641b815250816004016000604051602001611ed990612c44565b6040516020818303038152906040528051906020012081526020019081526020016000206000019081611f0c9190612cb3565b506001816004016000604051602001611f2490612c44565b60405160208183030381529060405280519060200120815260200190815260200160002060010160006101000a81548160ff021916908315150217905550611fd4604051602001611f7490612c11565b60405160208183030381529060405280519060200120826004016000604051602001611f9f90612c44565b60405160208183030381529060405280519060200120815260200190815260200160002060020161286490919063ffffffff16565b50611fe7604051602001611f7490612b28565b506040518060400160405280601081526020016f04c4956454c595f44414f5f47524f55560841b81525081600401600060405160200161202690612af6565b60405160208183030381529060405280519060200120815260200190815260200160002060000190816120599190612cb3565b50600181600401600060405160200161207190612af6565b60405160208183030381529060405280519060200120815260200190815260200160002060010160006101000a81548160ff0219169083151502179055506120ec6040516020016120c190612a88565b60405160208183030381529060405280519060200120826004016000604051602001611f9f90612af6565b506120ff6040516020016120c190612bc7565b506040518060400160405280601281526020017104c4956454c595f41535345545f47524f55560741b81525081600401600060405160200161214090612ba9565b60405160208183030381529060405280519060200120815260200190815260200160002060000190816121739190612cb3565b50600181600401600060405160200161218b90612ba9565b60405160208183030381529060405280519060200120815260200190815260200160002060010160006101000a81548160ff0219169083151502179055506122066040516020016121db90612d73565b60405160208183030381529060405280519060200120826004016000604051602001611f9f90612ba9565b506122196040516020016121db90612b4c565b50604051806040016040528060148152602001734c4956454c595f47454e4552414c5f5245414c4d60601b81525081600301600060405160200161225c90612ad6565b604051602081830303815290604052805190602001208152602001908152602001600020600001908161228f9190612cb3565b5060018160030160006040516020016122a790612ad6565b60405160208183030381529060405280519060200120815260200190815260200160002060010160006101000a81548160ff02191690831515021790555060018160030160006040516020016122fc90612ad6565b60408051601f19818403018152918152815160209283012083528282019390935290820160002060010180549315156101000261ff00199094169390931790925580513060601b6bffffffffffffffffffffffff191681840152815160148183030181526034909101909152805191012061238690826003016000604051602001611f9f90612ad6565b50604051806040016040528060128152602001714c4956454c595f41535345545f5245414c4d60701b8152508160030160006040516020016123e090714c4956454c595f41535345545f5245414c4d60701b815260120190565b60405160208183030381529060405280519060200120815260200190815260200160002060000190816124139190612cb3565b50600181600301600060405160200161244490714c4956454c595f41535345545f5245414c4d60701b815260120190565b60405160208183030381529060405280519060200120815260200190815260200160002060010160006101000a81548160ff02191690831515021790555060018160030160006040516020016124b290714c4956454c595f41535345545f5245414c4d60701b815260120190565b60405160208183030381529060405280519060200120815260200190815260200160002060010160016101000a81548160ff02191690831515021790555050565b600081815260018084016020526040822001546001600160a01b0316158015906105c857505060009081526001918201602052604090200154600160a01b900460ff1690565b60405160200161053290612d73565b6001600160a01b038116600090815260208381526040808320905160019284916106829101612d73565b60008181526003830160205260408120805461258d90612b6f565b905060000361259e575060006105cb565b5060009081526003919091016020526040902060010154610100900460ff1690565b60405160200161053290612bc7565b6040516d131058d8d95cdcd0dbdb9d1c9bdb60921b6020820152602e01610532565b6000818152600180840160209081526040808420909201548251630151e76560e61b815292516001600160a01b0390911692635479d9409260048083019391928290030181865afa1580156105a4573d6000803e3d6000fd5b60008181526002830160205260408120600101805482919061266b90612b6f565b90501180156105c85750506000908152600291820160205260409020015460ff1690565b6000818152600483016020526040812080548291906106f190612b6f565b60006105c88284600301600060405160200161062390714c4956454c595f41535345545f5245414c4d60701b815260120190565b60405160200161053290612c11565b60006105c88284600401600060405160200161062390612af6565b600082815260018085016020526040822001546001600160a01b0316158015906109125750600160008481526001808701602090815260408084206001600160e01b0319881685526002908101909252909220015460ff169081111561277357612773612b12565b14949350505050565b600082815260018085016020526040822001546001600160a01b031615801590610912575060008381526001850160205260409020610912906003016001600160e01b03198416612837565b6001600160a01b038116600090815260208381526040808320905160019284916106829101612b4c565b6001600160a01b038116600090815260208381526040808320905160019284916106829101612c11565b60006105c88284600401600060405160200161062390612c44565b600081815260018301602052604081205415156105c8565b60006105c8836001600160a01b03841661286c565b60006105c883835b60008181526001830160205260408120546128b3575081546001818101845560008481526020808220909301849055845484825282860190935260409020919091556105cb565b5060006105cb565b600080604083850312156128ce57600080fd5b50508035926020909101359150565b80356001600160a01b03811681146128f457600080fd5b919050565b6000806040838503121561290c57600080fd5b8235915061291c602084016128dd565b90509250929050565b80356001600160e01b0319811681146128f457600080fd5b6000806000806080858703121561295357600080fd5b843593506020850135925061296a604086016128dd565b915061297860608601612925565b905092959194509250565b60006020808301818452808551808352604092508286019150828160051b8701018488016000805b84811015612a2b57898403603f190186528251805185528881015160608a8701819052815190870181905260808701918b019085905b80821015612a0b5782516001600160e01b0319168452928c0192918c0191600191909101906129e1565b5050509088015115159488019490945294870194918701916001016129ab565b50919998505050505050505050565b600060208284031215612a4c57600080fd5b5035919050565b600080600060608486031215612a6857600080fd5b8335925060208401359150612a7f60408501612925565b90509250925092565b784c4956454c595f434f4d4d554e4954595f44414f5f524f4c4560381b815260190190565b600060208284031215612abf57600080fd5b81518015158114612acf57600080fd5b9392505050565b734c4956454c595f47454e4552414c5f5245414c4d60601b815260140190565b6f04c4956454c595f44414f5f47524f55560841b815260100190565b634e487b7160e01b600052602160045260246000fd5b774c4956454c595f53595354454d5f41444d494e5f524f4c4560401b815260180190565b764c4956454c595f41535345545f41444d494e5f524f4c4560481b815260170190565b600181811c90821680612b8357607f821691505b602082108103612ba357634e487b7160e01b600052602260045260246000fd5b50919050565b7104c4956454c595f41535345545f47524f55560741b815260120190565b7f4c4956454c595f434f4d4d554e4954595f44414f5f4558454355544f525f524f8152614c4560f01b602082015260220190565b634e487b7160e01b600052604160045260246000fd5b704c4956454c595f41444d494e5f524f4c4560781b815260110190565b634e487b7160e01b600052603260045260246000fd5b7304c4956454c595f47454e4552414c5f47524f55560641b815260140190565b601f821115612cae57600081815260208120601f850160051c81016020861015612c8b5750805b601f850160051c820191505b81811015612caa57828155600101612c97565b5050505b505050565b815167ffffffffffffffff811115612ccd57612ccd612bfb565b612ce181612cdb8454612b6f565b84612c64565b602080601f831160018114612d165760008415612cfe5750858301515b600019600386901b1c1916600185901b178555612caa565b600085815260208120601f198616915b82811015612d4557888601518255948401946001909101908401612d26565b5085821015612d635787850151600019600388901b60f8161c191681555b5050505050600190811b01905550565b784c4956454c595f41535345545f4d414e414745525f524f4c4560381b81526019019056fe4c4956454c595f434f4d4d554e4954595f44414f5f4558454355544f525f524f4c45a2646970667358221220f689c0175504c7631bcb0736476d44aee9784562301f1993b9f319bd9e27468a64736f6c63430008110033",
  "linkReferences": {},
  "deployedLinkReferences": {},
  "devdoc": {
    "author": "Sina Tadayon, https://github.com/SinaTadayon",
    "details": " ",
    "kind": "dev",
    "methods": {},
    "title": "Access Control Library",
    "version": 1
  },
  "evm": {
    "bytecode": {
      "linkReferences": {},
      "opcodes": "PUSH2 0x2DF0 PUSH2 0x3A PUSH1 0xB DUP3 DUP3 DUP3 CODECOPY DUP1 MLOAD PUSH1 0x0 BYTE PUSH1 0x73 EQ PUSH2 0x2D JUMPI PUSH4 0x4E487B71 PUSH1 0xE0 SHL PUSH1 0x0 MSTORE PUSH1 0x0 PUSH1 0x4 MSTORE PUSH1 0x24 PUSH1 0x0 REVERT JUMPDEST ADDRESS PUSH1 0x0 MSTORE PUSH1 0x73 DUP2 MSTORE8 DUP3 DUP2 RETURN INVALID PUSH20 0x0 ADDRESS EQ PUSH1 0x80 PUSH1 0x40 MSTORE PUSH1 0x4 CALLDATASIZE LT PUSH2 0x25D JUMPI PUSH1 0x0 CALLDATALOAD PUSH1 0xE0 SHR DUP1 PUSH4 0x87D8E2B0 GT PUSH2 0x150 JUMPI DUP1 PUSH4 0xC0A8CA0C GT PUSH2 0xCD JUMPI DUP1 PUSH4 0xD98EF622 GT PUSH2 0x91 JUMPI DUP1 PUSH4 0xD98EF622 EQ PUSH2 0x4B1 JUMPI DUP1 PUSH4 0xDD15702C EQ PUSH2 0x4C4 JUMPI DUP1 PUSH4 0xE99B513A EQ PUSH2 0x4D7 JUMPI DUP1 PUSH4 0xE9CFB672 EQ PUSH2 0x4EA JUMPI DUP1 PUSH4 0xEFEC2D5E EQ PUSH2 0x4FD JUMPI DUP1 PUSH4 0xF0984EE6 EQ PUSH2 0x510 JUMPI PUSH1 0x0 DUP1 REVERT JUMPDEST DUP1 PUSH4 0xC0A8CA0C EQ PUSH2 0x45D JUMPI DUP1 PUSH4 0xCB4A1BB7 EQ PUSH2 0x470 JUMPI DUP1 PUSH4 0xCC6C3268 EQ PUSH2 0x483 JUMPI DUP1 PUSH4 0xCE34A66D EQ PUSH2 0x496 JUMPI DUP1 PUSH4 0xD8B31999 EQ PUSH2 0x4A9 JUMPI PUSH1 0x0 DUP1 REVERT JUMPDEST DUP1 PUSH4 0xA6196757 GT PUSH2 0x114 JUMPI DUP1 PUSH4 0xA6196757 EQ PUSH2 0x41F JUMPI DUP1 PUSH4 0xAFB92706 EQ PUSH2 0x427 JUMPI DUP1 PUSH4 0xB019D53A EQ PUSH2 0x43A JUMPI DUP1 PUSH4 0xB899699C EQ PUSH2 0x44D JUMPI DUP1 PUSH4 0xBEC94751 EQ PUSH2 0x455 JUMPI PUSH1 0x0 DUP1 REVERT JUMPDEST DUP1 PUSH4 0x87D8E2B0 EQ PUSH2 0x3A0 JUMPI DUP1 PUSH4 0x89B5A834 EQ PUSH2 0x3CF JUMPI DUP1 PUSH4 0x9BB20D51 EQ PUSH2 0x3E2 JUMPI DUP1 PUSH4 0x9FA79BF8 EQ PUSH2 0x3EA JUMPI DUP1 PUSH4 0xA5F1E2FE EQ PUSH2 0x40C JUMPI PUSH1 0x0 DUP1 REVERT JUMPDEST DUP1 PUSH4 0x4DF89D6F GT PUSH2 0x1DE JUMPI DUP1 PUSH4 0x5F6CEF3C GT PUSH2 0x1A2 JUMPI DUP1 PUSH4 0x5F6CEF3C EQ PUSH2 0x355 JUMPI DUP1 PUSH4 0x62F3C2D4 EQ PUSH2 0x35D JUMPI DUP1 PUSH4 0x6787AD51 EQ PUSH2 0x372 JUMPI DUP1 PUSH4 0x6AC58AC1 EQ PUSH2 0x385 JUMPI DUP1 PUSH4 0x85DE3336 EQ PUSH2 0x38D JUMPI PUSH1 0x0 DUP1 REVERT JUMPDEST DUP1 PUSH4 0x4DF89D6F EQ PUSH2 0x301 JUMPI DUP1 PUSH4 0x513D425A EQ PUSH2 0x314 JUMPI DUP1 PUSH4 0x5632FFD8 EQ PUSH2 0x327 JUMPI DUP1 PUSH4 0x5A96334B EQ PUSH2 0x32F JUMPI DUP1 PUSH4 0x5B8BA898 EQ PUSH2 0x342 JUMPI PUSH1 0x0 DUP1 REVERT JUMPDEST DUP1 PUSH4 0x3167D0C4 GT PUSH2 0x225 JUMPI DUP1 PUSH4 0x3167D0C4 EQ PUSH2 0x2B8 JUMPI DUP1 PUSH4 0x337CD188 EQ PUSH2 0x2CB JUMPI DUP1 PUSH4 0x36206F04 EQ PUSH2 0x2DE JUMPI DUP1 PUSH4 0x37F4C930 EQ PUSH2 0x2E6 JUMPI DUP1 PUSH4 0x4C95D60D EQ PUSH2 0x2F9 JUMPI PUSH1 0x0 DUP1 REVERT JUMPDEST DUP1 PUSH4 0x108F5BDC EQ PUSH2 0x262 JUMPI DUP1 PUSH4 0x16B714AD EQ PUSH2 0x27D JUMPI DUP1 PUSH4 0x20DD27AF EQ PUSH2 0x2A0 JUMPI DUP1 PUSH4 0x2466209B EQ PUSH2 0x2A8 JUMPI DUP1 PUSH4 0x2D8BC9CB EQ PUSH2 0x2B0 JUMPI JUMPDEST PUSH1 0x0 DUP1 REVERT JUMPDEST PUSH2 0x26A PUSH2 0x523 JUMP JUMPDEST PUSH1 0x40 MLOAD SWAP1 DUP2 MSTORE PUSH1 0x20 ADD JUMPDEST PUSH1 0x40 MLOAD DUP1 SWAP2 SUB SWAP1 RETURN JUMPDEST PUSH2 0x290 PUSH2 0x28B CALLDATASIZE PUSH1 0x4 PUSH2 0x28BB JUMP JUMPDEST PUSH2 0x54B JUMP JUMPDEST PUSH1 0x40 MLOAD SWAP1 ISZERO ISZERO DUP2 MSTORE PUSH1 0x20 ADD PUSH2 0x274 JUMP JUMPDEST PUSH2 0x26A PUSH2 0x5D1 JUMP JUMPDEST PUSH2 0x26A PUSH2 0x5E0 JUMP JUMPDEST PUSH2 0x26A PUSH2 0x5F9 JUMP JUMPDEST PUSH2 0x290 PUSH2 0x2C6 CALLDATASIZE PUSH1 0x4 PUSH2 0x28BB JUMP JUMPDEST PUSH2 0x608 JUMP JUMPDEST PUSH2 0x290 PUSH2 0x2D9 CALLDATASIZE PUSH1 0x4 PUSH2 0x28F9 JUMP JUMPDEST PUSH2 0x658 JUMP JUMPDEST PUSH2 0x26A PUSH2 0x6C4 JUMP JUMPDEST PUSH2 0x290 PUSH2 0x2F4 CALLDATASIZE PUSH1 0x4 PUSH2 0x28BB JUMP JUMPDEST PUSH2 0x6D3 JUMP JUMPDEST PUSH2 0x26A PUSH2 0x6FC JUMP JUMPDEST PUSH2 0x290 PUSH2 0x30F CALLDATASIZE PUSH1 0x4 PUSH2 0x28BB JUMP JUMPDEST PUSH2 0x70B JUMP JUMPDEST PUSH2 0x290 PUSH2 0x322 CALLDATASIZE PUSH1 0x4 PUSH2 0x293D JUMP JUMPDEST PUSH2 0x72C JUMP JUMPDEST PUSH2 0x26A PUSH2 0x91A JUMP JUMPDEST PUSH2 0x290 PUSH2 0x33D CALLDATASIZE PUSH1 0x4 PUSH2 0x28BB JUMP JUMPDEST PUSH2 0x929 JUMP JUMPDEST PUSH2 0x290 PUSH2 0x350 CALLDATASIZE PUSH1 0x4 PUSH2 0x28F9 JUMP JUMPDEST PUSH2 0x96E JUMP JUMPDEST PUSH2 0x26A PUSH2 0x998 JUMP JUMPDEST PUSH2 0x365 PUSH2 0x9BE JUMP JUMPDEST PUSH1 0x40 MLOAD PUSH2 0x274 SWAP2 SWAP1 PUSH2 0x2983 JUMP JUMPDEST PUSH2 0x290 PUSH2 0x380 CALLDATASIZE PUSH1 0x4 PUSH2 0x28BB JUMP JUMPDEST PUSH2 0x1403 JUMP JUMPDEST PUSH2 0x26A PUSH2 0x141E JUMP JUMPDEST PUSH2 0x290 PUSH2 0x39B CALLDATASIZE PUSH1 0x4 PUSH2 0x28F9 JUMP JUMPDEST PUSH2 0x142D JUMP JUMPDEST PUSH2 0x290 PUSH2 0x3AE CALLDATASIZE PUSH1 0x4 PUSH2 0x28BB JUMP JUMPDEST PUSH1 0x0 SWAP1 DUP2 MSTORE PUSH1 0x1 SWAP2 DUP3 ADD PUSH1 0x20 MSTORE PUSH1 0x40 SWAP1 KECCAK256 ADD SLOAD PUSH1 0x1 PUSH1 0x1 PUSH1 0xA0 SHL SUB AND ISZERO ISZERO SWAP1 JUMP JUMPDEST PUSH2 0x290 PUSH2 0x3DD CALLDATASIZE PUSH1 0x4 PUSH2 0x28BB JUMP JUMPDEST PUSH2 0x1457 JUMP JUMPDEST PUSH2 0x26A PUSH2 0x149C JUMP JUMPDEST DUP2 DUP1 ISZERO PUSH2 0x3F6 JUMPI PUSH1 0x0 DUP1 REVERT JUMPDEST POP PUSH2 0x40A PUSH2 0x405 CALLDATASIZE PUSH1 0x4 PUSH2 0x2A3A JUMP JUMPDEST PUSH2 0x14C5 JUMP JUMPDEST STOP JUMPDEST PUSH2 0x290 PUSH2 0x41A CALLDATASIZE PUSH1 0x4 PUSH2 0x28BB JUMP JUMPDEST PUSH2 0x24F3 JUMP JUMPDEST PUSH2 0x26A PUSH2 0x2539 JUMP JUMPDEST PUSH2 0x290 PUSH2 0x435 CALLDATASIZE PUSH1 0x4 PUSH2 0x28F9 JUMP JUMPDEST PUSH2 0x2548 JUMP JUMPDEST PUSH2 0x290 PUSH2 0x448 CALLDATASIZE PUSH1 0x4 PUSH2 0x28BB JUMP JUMPDEST PUSH2 0x2572 JUMP JUMPDEST PUSH2 0x26A PUSH2 0x25C0 JUMP JUMPDEST PUSH2 0x26A PUSH2 0x25CF JUMP JUMPDEST PUSH2 0x290 PUSH2 0x46B CALLDATASIZE PUSH1 0x4 PUSH2 0x28BB JUMP JUMPDEST PUSH2 0x25F1 JUMP JUMPDEST PUSH2 0x290 PUSH2 0x47E CALLDATASIZE PUSH1 0x4 PUSH2 0x28BB JUMP JUMPDEST PUSH2 0x264A JUMP JUMPDEST PUSH2 0x290 PUSH2 0x491 CALLDATASIZE PUSH1 0x4 PUSH2 0x28BB JUMP JUMPDEST PUSH2 0x268F JUMP JUMPDEST PUSH2 0x290 PUSH2 0x4A4 CALLDATASIZE PUSH1 0x4 PUSH2 0x28BB JUMP JUMPDEST PUSH2 0x26AD JUMP JUMPDEST PUSH2 0x26A PUSH2 0x26E1 JUMP JUMPDEST PUSH2 0x290 PUSH2 0x4BF CALLDATASIZE PUSH1 0x4 PUSH2 0x28BB JUMP JUMPDEST PUSH2 0x26F0 JUMP JUMPDEST PUSH2 0x290 PUSH2 0x4D2 CALLDATASIZE PUSH1 0x4 PUSH2 0x2A53 JUMP JUMPDEST PUSH2 0x270B JUMP JUMPDEST PUSH2 0x290 PUSH2 0x4E5 CALLDATASIZE PUSH1 0x4 PUSH2 0x2A53 JUMP JUMPDEST PUSH2 0x277C JUMP JUMPDEST PUSH2 0x290 PUSH2 0x4F8 CALLDATASIZE PUSH1 0x4 PUSH2 0x28F9 JUMP JUMPDEST PUSH2 0x27C8 JUMP JUMPDEST PUSH2 0x290 PUSH2 0x50B CALLDATASIZE PUSH1 0x4 PUSH2 0x28F9 JUMP JUMPDEST PUSH2 0x27F2 JUMP JUMPDEST PUSH2 0x290 PUSH2 0x51E CALLDATASIZE PUSH1 0x4 PUSH2 0x28BB JUMP JUMPDEST PUSH2 0x281C JUMP JUMPDEST PUSH1 0x40 MLOAD PUSH1 0x20 ADD PUSH2 0x532 SWAP1 PUSH2 0x2A88 JUMP JUMPDEST PUSH1 0x40 MLOAD PUSH1 0x20 DUP2 DUP4 SUB SUB DUP2 MSTORE SWAP1 PUSH1 0x40 MSTORE DUP1 MLOAD SWAP1 PUSH1 0x20 ADD KECCAK256 DUP2 JUMP JUMPDEST PUSH1 0x0 DUP2 DUP2 MSTORE PUSH1 0x1 DUP1 DUP5 ADD PUSH1 0x20 SWAP1 DUP2 MSTORE PUSH1 0x40 DUP1 DUP5 KECCAK256 SWAP1 SWAP3 ADD SLOAD DUP3 MLOAD PUSH4 0xBE22465D PUSH1 0xE0 SHL DUP2 MSTORE SWAP3 MLOAD PUSH1 0x1 PUSH1 0x1 PUSH1 0xA0 SHL SUB SWAP1 SWAP2 AND SWAP3 PUSH4 0xBE22465D SWAP3 PUSH1 0x4 DUP1 DUP4 ADD SWAP4 SWAP2 SWAP3 DUP3 SWAP1 SUB ADD DUP2 DUP7 GAS STATICCALL ISZERO DUP1 ISZERO PUSH2 0x5A4 JUMPI RETURNDATASIZE PUSH1 0x0 DUP1 RETURNDATACOPY RETURNDATASIZE PUSH1 0x0 REVERT JUMPDEST POP POP POP POP PUSH1 0x40 MLOAD RETURNDATASIZE PUSH1 0x1F NOT PUSH1 0x1F DUP3 ADD AND DUP3 ADD DUP1 PUSH1 0x40 MSTORE POP DUP2 ADD SWAP1 PUSH2 0x5C8 SWAP2 SWAP1 PUSH2 0x2AAD JUMP JUMPDEST SWAP1 POP JUMPDEST SWAP3 SWAP2 POP POP JUMP JUMPDEST PUSH1 0x40 MLOAD PUSH1 0x20 ADD PUSH2 0x532 SWAP1 PUSH2 0x2AD6 JUMP JUMPDEST PUSH1 0x40 MLOAD PUSH5 0x312E302E3 PUSH1 0xDC SHL PUSH1 0x20 DUP3 ADD MSTORE PUSH1 0x25 ADD PUSH2 0x532 JUMP JUMPDEST PUSH1 0x40 MLOAD PUSH1 0x20 ADD PUSH2 0x532 SWAP1 PUSH2 0x2AF6 JUMP JUMPDEST PUSH1 0x0 PUSH2 0x5C8 DUP3 DUP5 PUSH1 0x3 ADD PUSH1 0x0 PUSH1 0x40 MLOAD PUSH1 0x20 ADD PUSH2 0x623 SWAP1 PUSH2 0x2AD6 JUMP JUMPDEST PUSH1 0x40 MLOAD PUSH1 0x20 DUP2 DUP4 SUB SUB DUP2 MSTORE SWAP1 PUSH1 0x40 MSTORE DUP1 MLOAD SWAP1 PUSH1 0x20 ADD KECCAK256 DUP2 MSTORE PUSH1 0x20 ADD SWAP1 DUP2 MSTORE PUSH1 0x20 ADD PUSH1 0x0 KECCAK256 PUSH1 0x2 ADD PUSH2 0x2837 SWAP1 SWAP2 SWAP1 PUSH4 0xFFFFFFFF AND JUMP JUMPDEST PUSH1 0x1 PUSH1 0x1 PUSH1 0xA0 SHL SUB DUP2 AND PUSH1 0x0 SWAP1 DUP2 MSTORE PUSH1 0x20 DUP4 DUP2 MSTORE PUSH1 0x40 DUP1 DUP4 KECCAK256 SWAP1 MLOAD PUSH1 0x1 SWAP3 DUP5 SWAP2 PUSH2 0x682 SWAP2 ADD PUSH2 0x2B28 JUMP JUMPDEST PUSH1 0x40 DUP1 MLOAD PUSH1 0x1F NOT DUP2 DUP5 SUB ADD DUP2 MSTORE SWAP2 DUP2 MSTORE DUP2 MLOAD PUSH1 0x20 SWAP3 DUP4 ADD KECCAK256 DUP4 MSTORE SWAP1 DUP3 ADD SWAP3 SWAP1 SWAP3 MSTORE ADD PUSH1 0x0 KECCAK256 SLOAD PUSH1 0xFF AND PUSH1 0x2 DUP2 GT ISZERO PUSH2 0x6BC JUMPI PUSH2 0x6BC PUSH2 0x2B12 JUMP JUMPDEST EQ SWAP4 SWAP3 POP POP POP JUMP JUMPDEST PUSH1 0x40 MLOAD PUSH1 0x20 ADD PUSH2 0x532 SWAP1 PUSH2 0x2B4C JUMP JUMPDEST PUSH1 0x0 DUP2 DUP2 MSTORE PUSH1 0x3 DUP4 ADD PUSH1 0x20 MSTORE PUSH1 0x40 DUP2 KECCAK256 DUP1 SLOAD DUP3 SWAP2 SWAP1 PUSH2 0x6F1 SWAP1 PUSH2 0x2B6F JUMP JUMPDEST SWAP1 POP GT SWAP1 POP SWAP3 SWAP2 POP POP JUMP JUMPDEST PUSH1 0x40 MLOAD PUSH1 0x20 ADD PUSH2 0x532 SWAP1 PUSH2 0x2BA9 JUMP JUMPDEST PUSH1 0x0 DUP2 DUP2 MSTORE PUSH1 0x2 DUP4 ADD PUSH1 0x20 MSTORE PUSH1 0x40 DUP2 KECCAK256 PUSH1 0x1 ADD DUP1 SLOAD DUP3 SWAP2 SWAP1 PUSH2 0x6F1 SWAP1 PUSH2 0x2B6F JUMP JUMPDEST PUSH1 0x0 DUP4 DUP2 MSTORE PUSH1 0x1 DUP6 ADD PUSH1 0x20 SWAP1 DUP2 MSTORE PUSH1 0x40 DUP1 DUP4 KECCAK256 PUSH1 0x1 PUSH1 0x1 PUSH1 0xE0 SHL SUB NOT DUP6 AND DUP5 MSTORE PUSH1 0x2 ADD DUP3 MSTORE DUP1 DUP4 KECCAK256 SLOAD SWAP1 MLOAD SWAP1 SWAP2 PUSH2 0x77F SWAP2 ADD PUSH21 0x4C4956454C595F414E4F4E594D4F55535F524F4C45 PUSH1 0x58 SHL DUP2 MSTORE PUSH1 0x15 ADD SWAP1 JUMP JUMPDEST PUSH1 0x40 MLOAD PUSH1 0x20 DUP2 DUP4 SUB SUB DUP2 MSTORE SWAP1 PUSH1 0x40 MSTORE DUP1 MLOAD SWAP1 PUSH1 0x20 ADD KECCAK256 DUP2 SUB PUSH2 0x80D JUMPI PUSH1 0x0 DUP6 DUP2 MSTORE PUSH1 0x1 DUP8 DUP2 ADD PUSH1 0x20 MSTORE PUSH1 0x40 SWAP1 SWAP2 KECCAK256 ADD SLOAD PUSH1 0x1 PUSH1 0xA0 SHL SWAP1 DIV PUSH1 0xFF AND DUP1 ISZERO PUSH2 0x805 JUMPI POP PUSH1 0x1 PUSH1 0x0 DUP7 DUP2 MSTORE PUSH1 0x1 DUP1 DUP10 ADD PUSH1 0x20 SWAP1 DUP2 MSTORE PUSH1 0x40 DUP1 DUP5 KECCAK256 PUSH1 0x1 PUSH1 0x1 PUSH1 0xE0 SHL SUB NOT DUP10 AND DUP6 MSTORE PUSH1 0x2 SWAP1 DUP2 ADD SWAP1 SWAP3 MSTORE SWAP1 SWAP3 KECCAK256 ADD SLOAD PUSH1 0xFF AND SWAP1 DUP2 GT ISZERO PUSH2 0x803 JUMPI PUSH2 0x803 PUSH2 0x2B12 JUMP JUMPDEST EQ JUMPDEST SWAP2 POP POP PUSH2 0x912 JUMP JUMPDEST PUSH1 0x0 DUP6 DUP2 MSTORE PUSH1 0x1 DUP8 DUP2 ADD PUSH1 0x20 MSTORE PUSH1 0x40 SWAP1 SWAP2 KECCAK256 ADD SLOAD PUSH1 0x1 PUSH1 0xA0 SHL SWAP1 DIV PUSH1 0xFF AND DUP1 ISZERO PUSH2 0x877 JUMPI POP PUSH1 0x1 PUSH1 0x0 DUP7 DUP2 MSTORE PUSH1 0x1 DUP1 DUP10 ADD PUSH1 0x20 SWAP1 DUP2 MSTORE PUSH1 0x40 DUP1 DUP5 KECCAK256 PUSH1 0x1 PUSH1 0x1 PUSH1 0xE0 SHL SUB NOT DUP10 AND DUP6 MSTORE PUSH1 0x2 SWAP1 DUP2 ADD SWAP1 SWAP3 MSTORE SWAP1 SWAP3 KECCAK256 ADD SLOAD PUSH1 0xFF AND SWAP1 DUP2 GT ISZERO PUSH2 0x875 JUMPI PUSH2 0x875 PUSH2 0x2B12 JUMP JUMPDEST EQ JUMPDEST DUP1 ISZERO PUSH2 0x8A5 JUMPI POP PUSH1 0x0 DUP6 DUP2 MSTORE PUSH1 0x1 DUP1 DUP9 ADD PUSH1 0x20 SWAP1 DUP2 MSTORE PUSH1 0x40 DUP1 DUP5 KECCAK256 SLOAD DUP5 MSTORE PUSH1 0x3 DUP11 ADD SWAP1 SWAP2 MSTORE SWAP1 SWAP2 KECCAK256 ADD SLOAD PUSH1 0xFF AND JUMPDEST DUP1 ISZERO PUSH2 0x8D3 JUMPI POP PUSH1 0x0 DUP2 DUP2 MSTORE PUSH1 0x2 DUP8 ADD PUSH1 0x20 SWAP1 DUP2 MSTORE PUSH1 0x40 DUP1 DUP4 KECCAK256 SLOAD DUP4 MSTORE PUSH1 0x4 DUP10 ADD SWAP1 SWAP2 MSTORE SWAP1 KECCAK256 PUSH1 0x1 ADD SLOAD PUSH1 0xFF AND JUMPDEST DUP1 ISZERO PUSH2 0x805 JUMPI POP PUSH1 0x1 PUSH1 0x1 PUSH1 0x1 PUSH1 0xA0 SHL SUB DUP6 AND PUSH1 0x0 SWAP1 DUP2 MSTORE PUSH1 0x20 DUP9 DUP2 MSTORE PUSH1 0x40 DUP1 DUP4 KECCAK256 DUP6 DUP5 MSTORE SWAP1 SWAP2 MSTORE SWAP1 KECCAK256 SLOAD PUSH1 0xFF AND PUSH1 0x2 DUP2 GT ISZERO PUSH2 0x803 JUMPI PUSH2 0x803 PUSH2 0x2B12 JUMP JUMPDEST SWAP5 SWAP4 POP POP POP POP JUMP JUMPDEST PUSH1 0x40 MLOAD PUSH1 0x20 ADD PUSH2 0x532 SWAP1 PUSH2 0x2B28 JUMP JUMPDEST PUSH1 0x0 DUP2 DUP2 MSTORE PUSH1 0x4 DUP4 ADD PUSH1 0x20 MSTORE PUSH1 0x40 DUP2 KECCAK256 DUP1 SLOAD DUP3 SWAP2 SWAP1 PUSH2 0x947 SWAP1 PUSH2 0x2B6F JUMP JUMPDEST SWAP1 POP GT DUP1 ISZERO PUSH2 0x5C8 JUMPI POP POP PUSH1 0x0 SWAP1 DUP2 MSTORE PUSH1 0x4 SWAP2 SWAP1 SWAP2 ADD PUSH1 0x20 MSTORE PUSH1 0x40 SWAP1 KECCAK256 PUSH1 0x1 ADD SLOAD PUSH1 0xFF AND SWAP1 JUMP JUMPDEST PUSH1 0x1 PUSH1 0x1 PUSH1 0xA0 SHL SUB DUP2 AND PUSH1 0x0 SWAP1 DUP2 MSTORE PUSH1 0x20 DUP4 DUP2 MSTORE PUSH1 0x40 DUP1 DUP4 KECCAK256 SWAP1 MLOAD PUSH1 0x1 SWAP3 DUP5 SWAP2 PUSH2 0x682 SWAP2 ADD PUSH2 0x2BC7 JUMP JUMPDEST PUSH1 0x40 MLOAD PUSH18 0x4C4956454C595F41535345545F5245414C4D PUSH1 0x70 SHL PUSH1 0x20 DUP3 ADD MSTORE PUSH1 0x32 ADD PUSH2 0x532 JUMP JUMPDEST PUSH1 0x40 DUP1 MLOAD PUSH1 0x2 DUP1 DUP3 MSTORE PUSH1 0x60 DUP3 DUP2 ADD SWAP1 SWAP4 MSTORE PUSH1 0x0 SWAP2 SWAP1 DUP2 PUSH1 0x20 ADD JUMPDEST PUSH1 0x40 DUP1 MLOAD PUSH1 0x60 DUP1 DUP3 ADD DUP4 MSTORE PUSH1 0x0 DUP1 DUP4 MSTORE PUSH1 0x20 DUP4 ADD SWAP2 SWAP1 SWAP2 MSTORE SWAP2 DUP2 ADD SWAP2 SWAP1 SWAP2 MSTORE DUP2 MSTORE PUSH1 0x20 ADD SWAP1 PUSH1 0x1 SWAP1 SUB SWAP1 DUP2 PUSH2 0x9D8 JUMPI SWAP1 POP POP SWAP1 POP PUSH1 0x40 MLOAD PUSH1 0x20 ADD PUSH2 0xA1B SWAP1 PUSH2 0x2C11 JUMP JUMPDEST PUSH1 0x40 MLOAD PUSH1 0x20 DUP2 DUP4 SUB SUB DUP2 MSTORE SWAP1 PUSH1 0x40 MSTORE DUP1 MLOAD SWAP1 PUSH1 0x20 ADD KECCAK256 DUP2 PUSH1 0x0 DUP2 MLOAD DUP2 LT PUSH2 0xA44 JUMPI PUSH2 0xA44 PUSH2 0x2C2E JUMP JUMPDEST PUSH1 0x20 MUL PUSH1 0x20 ADD ADD MLOAD PUSH1 0x0 ADD DUP2 DUP2 MSTORE POP POP PUSH1 0x1 DUP2 PUSH1 0x0 DUP2 MLOAD DUP2 LT PUSH2 0xA69 JUMPI PUSH2 0xA69 PUSH2 0x2C2E JUMP JUMPDEST PUSH1 0x20 SWAP1 DUP2 MUL SWAP2 SWAP1 SWAP2 ADD DUP2 ADD MLOAD SWAP2 ISZERO ISZERO PUSH1 0x40 SWAP3 DUP4 ADD MSTORE DUP2 MLOAD PUSH1 0x16 DUP1 DUP3 MSTORE PUSH2 0x2E0 DUP3 ADD SWAP1 SWAP4 MSTORE SWAP2 SWAP1 DUP3 ADD PUSH2 0x2C0 DUP1 CALLDATASIZE DUP4 CALLDATACOPY ADD SWAP1 POP POP DUP2 PUSH1 0x0 DUP2 MLOAD DUP2 LT PUSH2 0xAAF JUMPI PUSH2 0xAAF PUSH2 0x2C2E JUMP JUMPDEST PUSH1 0x20 MUL PUSH1 0x20 ADD ADD MLOAD PUSH1 0x20 ADD DUP2 SWAP1 MSTORE POP PUSH4 0x48E6BE1C PUSH1 0xE0 SHL DUP2 PUSH1 0x0 DUP2 MLOAD DUP2 LT PUSH2 0xAD9 JUMPI PUSH2 0xAD9 PUSH2 0x2C2E JUMP JUMPDEST PUSH1 0x20 MUL PUSH1 0x20 ADD ADD MLOAD PUSH1 0x20 ADD MLOAD PUSH1 0x0 DUP2 MLOAD DUP2 LT PUSH2 0xAF7 JUMPI PUSH2 0xAF7 PUSH2 0x2C2E JUMP JUMPDEST PUSH1 0x1 PUSH1 0x1 PUSH1 0xE0 SHL SUB NOT SWAP1 SWAP3 AND PUSH1 0x20 SWAP3 DUP4 MUL SWAP2 SWAP1 SWAP2 ADD SWAP1 SWAP2 ADD MSTORE DUP1 MLOAD PUSH4 0x225BF2F9 PUSH1 0xE1 SHL SWAP1 DUP3 SWAP1 PUSH1 0x0 SWAP1 PUSH2 0xB2C JUMPI PUSH2 0xB2C PUSH2 0x2C2E JUMP JUMPDEST PUSH1 0x20 MUL PUSH1 0x20 ADD ADD MLOAD PUSH1 0x20 ADD MLOAD PUSH1 0x1 DUP2 MLOAD DUP2 LT PUSH2 0xB4A JUMPI PUSH2 0xB4A PUSH2 0x2C2E JUMP JUMPDEST PUSH1 0x1 PUSH1 0x1 PUSH1 0xE0 SHL SUB NOT SWAP1 SWAP3 AND PUSH1 0x20 SWAP3 DUP4 MUL SWAP2 SWAP1 SWAP2 ADD SWAP1 SWAP2 ADD MSTORE DUP1 MLOAD PUSH4 0x31C0493 PUSH1 0xE0 SHL SWAP1 DUP3 SWAP1 PUSH1 0x0 SWAP1 PUSH2 0xB7F JUMPI PUSH2 0xB7F PUSH2 0x2C2E JUMP JUMPDEST PUSH1 0x20 MUL PUSH1 0x20 ADD ADD MLOAD PUSH1 0x20 ADD MLOAD PUSH1 0x2 DUP2 MLOAD DUP2 LT PUSH2 0xB9D JUMPI PUSH2 0xB9D PUSH2 0x2C2E JUMP JUMPDEST PUSH1 0x1 PUSH1 0x1 PUSH1 0xE0 SHL SUB NOT SWAP1 SWAP3 AND PUSH1 0x20 SWAP3 DUP4 MUL SWAP2 SWAP1 SWAP2 ADD SWAP1 SWAP2 ADD MSTORE DUP1 MLOAD PUSH4 0x5AC4B36F PUSH1 0xE1 SHL SWAP1 DUP3 SWAP1 PUSH1 0x0 SWAP1 PUSH2 0xBD2 JUMPI PUSH2 0xBD2 PUSH2 0x2C2E JUMP JUMPDEST PUSH1 0x20 MUL PUSH1 0x20 ADD ADD MLOAD PUSH1 0x20 ADD MLOAD PUSH1 0x3 DUP2 MLOAD DUP2 LT PUSH2 0xBF0 JUMPI PUSH2 0xBF0 PUSH2 0x2C2E JUMP JUMPDEST PUSH1 0x1 PUSH1 0x1 PUSH1 0xE0 SHL SUB NOT SWAP1 SWAP3 AND PUSH1 0x20 SWAP3 DUP4 MUL SWAP2 SWAP1 SWAP2 ADD SWAP1 SWAP2 ADD MSTORE DUP1 MLOAD PUSH4 0x771BCF45 PUSH1 0xE0 SHL SWAP1 DUP3 SWAP1 PUSH1 0x0 SWAP1 PUSH2 0xC25 JUMPI PUSH2 0xC25 PUSH2 0x2C2E JUMP JUMPDEST PUSH1 0x20 MUL PUSH1 0x20 ADD ADD MLOAD PUSH1 0x20 ADD MLOAD PUSH1 0x4 DUP2 MLOAD DUP2 LT PUSH2 0xC43 JUMPI PUSH2 0xC43 PUSH2 0x2C2E JUMP JUMPDEST PUSH1 0x1 PUSH1 0x1 PUSH1 0xE0 SHL SUB NOT SWAP1 SWAP3 AND PUSH1 0x20 SWAP3 DUP4 MUL SWAP2 SWAP1 SWAP2 ADD SWAP1 SWAP2 ADD MSTORE DUP1 MLOAD PUSH4 0x4346A04B PUSH1 0xE0 SHL SWAP1 DUP3 SWAP1 PUSH1 0x0 SWAP1 PUSH2 0xC78 JUMPI PUSH2 0xC78 PUSH2 0x2C2E JUMP JUMPDEST PUSH1 0x20 MUL PUSH1 0x20 ADD ADD MLOAD PUSH1 0x20 ADD MLOAD PUSH1 0x5 DUP2 MLOAD DUP2 LT PUSH2 0xC96 JUMPI PUSH2 0xC96 PUSH2 0x2C2E JUMP JUMPDEST PUSH1 0x1 PUSH1 0x1 PUSH1 0xE0 SHL SUB NOT SWAP1 SWAP3 AND PUSH1 0x20 SWAP3 DUP4 MUL SWAP2 SWAP1 SWAP2 ADD SWAP1 SWAP2 ADD MSTORE DUP1 MLOAD PUSH4 0xD3386401 PUSH1 0xE0 SHL SWAP1 DUP3 SWAP1 PUSH1 0x0 SWAP1 PUSH2 0xCCB JUMPI PUSH2 0xCCB PUSH2 0x2C2E JUMP JUMPDEST PUSH1 0x20 MUL PUSH1 0x20 ADD ADD MLOAD PUSH1 0x20 ADD MLOAD PUSH1 0x6 DUP2 MLOAD DUP2 LT PUSH2 0xCE9 JUMPI PUSH2 0xCE9 PUSH2 0x2C2E JUMP JUMPDEST PUSH1 0x1 PUSH1 0x1 PUSH1 0xE0 SHL SUB NOT SWAP1 SWAP3 AND PUSH1 0x20 SWAP3 DUP4 MUL SWAP2 SWAP1 SWAP2 ADD SWAP1 SWAP2 ADD MSTORE DUP1 MLOAD PUSH4 0x70420EE3 PUSH1 0xE0 SHL SWAP1 DUP3 SWAP1 PUSH1 0x0 SWAP1 PUSH2 0xD1E JUMPI PUSH2 0xD1E PUSH2 0x2C2E JUMP JUMPDEST PUSH1 0x20 MUL PUSH1 0x20 ADD ADD MLOAD PUSH1 0x20 ADD MLOAD PUSH1 0x7 DUP2 MLOAD DUP2 LT PUSH2 0xD3C JUMPI PUSH2 0xD3C PUSH2 0x2C2E JUMP JUMPDEST PUSH1 0x1 PUSH1 0x1 PUSH1 0xE0 SHL SUB NOT SWAP1 SWAP3 AND PUSH1 0x20 SWAP3 DUP4 MUL SWAP2 SWAP1 SWAP2 ADD SWAP1 SWAP2 ADD MSTORE DUP1 MLOAD PUSH4 0xB2DC26E5 PUSH1 0xE0 SHL SWAP1 DUP3 SWAP1 PUSH1 0x0 SWAP1 PUSH2 0xD71 JUMPI PUSH2 0xD71 PUSH2 0x2C2E JUMP JUMPDEST PUSH1 0x20 MUL PUSH1 0x20 ADD ADD MLOAD PUSH1 0x20 ADD MLOAD PUSH1 0x8 DUP2 MLOAD DUP2 LT PUSH2 0xD8F JUMPI PUSH2 0xD8F PUSH2 0x2C2E JUMP JUMPDEST PUSH1 0x1 PUSH1 0x1 PUSH1 0xE0 SHL SUB NOT SWAP1 SWAP3 AND PUSH1 0x20 SWAP3 DUP4 MUL SWAP2 SWAP1 SWAP2 ADD SWAP1 SWAP2 ADD MSTORE DUP1 MLOAD PUSH4 0x4F1D1675 PUSH1 0xE1 SHL SWAP1 DUP3 SWAP1 PUSH1 0x0 SWAP1 PUSH2 0xDC4 JUMPI PUSH2 0xDC4 PUSH2 0x2C2E JUMP JUMPDEST PUSH1 0x20 MUL PUSH1 0x20 ADD ADD MLOAD PUSH1 0x20 ADD MLOAD PUSH1 0x9 DUP2 MLOAD DUP2 LT PUSH2 0xDE2 JUMPI PUSH2 0xDE2 PUSH2 0x2C2E JUMP JUMPDEST PUSH1 0x1 PUSH1 0x1 PUSH1 0xE0 SHL SUB NOT SWAP1 SWAP3 AND PUSH1 0x20 SWAP3 DUP4 MUL SWAP2 SWAP1 SWAP2 ADD SWAP1 SWAP2 ADD MSTORE DUP1 MLOAD PUSH4 0x8F09E0F PUSH1 0xE4 SHL SWAP1 DUP3 SWAP1 PUSH1 0x0 SWAP1 PUSH2 0xE17 JUMPI PUSH2 0xE17 PUSH2 0x2C2E JUMP JUMPDEST PUSH1 0x20 MUL PUSH1 0x20 ADD ADD MLOAD PUSH1 0x20 ADD MLOAD PUSH1 0xA DUP2 MLOAD DUP2 LT PUSH2 0xE35 JUMPI PUSH2 0xE35 PUSH2 0x2C2E JUMP JUMPDEST PUSH1 0x1 PUSH1 0x1 PUSH1 0xE0 SHL SUB NOT SWAP1 SWAP3 AND PUSH1 0x20 SWAP3 DUP4 MUL SWAP2 SWAP1 SWAP2 ADD SWAP1 SWAP2 ADD MSTORE DUP1 MLOAD PUSH4 0x93BA3131 PUSH1 0xE0 SHL SWAP1 DUP3 SWAP1 PUSH1 0x0 SWAP1 PUSH2 0xE6A JUMPI PUSH2 0xE6A PUSH2 0x2C2E JUMP JUMPDEST PUSH1 0x20 MUL PUSH1 0x20 ADD ADD MLOAD PUSH1 0x20 ADD MLOAD PUSH1 0xB DUP2 MLOAD DUP2 LT PUSH2 0xE88 JUMPI PUSH2 0xE88 PUSH2 0x2C2E JUMP JUMPDEST PUSH1 0x1 PUSH1 0x1 PUSH1 0xE0 SHL SUB NOT SWAP1 SWAP3 AND PUSH1 0x20 SWAP3 DUP4 MUL SWAP2 SWAP1 SWAP2 ADD SWAP1 SWAP2 ADD MSTORE DUP1 MLOAD PUSH4 0xDF01DE45 PUSH1 0xE0 SHL SWAP1 DUP3 SWAP1 PUSH1 0x0 SWAP1 PUSH2 0xEBD JUMPI PUSH2 0xEBD PUSH2 0x2C2E JUMP JUMPDEST PUSH1 0x20 MUL PUSH1 0x20 ADD ADD MLOAD PUSH1 0x20 ADD MLOAD PUSH1 0xC DUP2 MLOAD DUP2 LT PUSH2 0xEDB JUMPI PUSH2 0xEDB PUSH2 0x2C2E JUMP JUMPDEST PUSH1 0x1 PUSH1 0x1 PUSH1 0xE0 SHL SUB NOT SWAP1 SWAP3 AND PUSH1 0x20 SWAP3 DUP4 MUL SWAP2 SWAP1 SWAP2 ADD SWAP1 SWAP2 ADD MSTORE DUP1 MLOAD PUSH4 0x62AB8105 PUSH1 0xE1 SHL SWAP1 DUP3 SWAP1 PUSH1 0x0 SWAP1 PUSH2 0xF10 JUMPI PUSH2 0xF10 PUSH2 0x2C2E JUMP JUMPDEST PUSH1 0x20 MUL PUSH1 0x20 ADD ADD MLOAD PUSH1 0x20 ADD MLOAD PUSH1 0xD DUP2 MLOAD DUP2 LT PUSH2 0xF2E JUMPI PUSH2 0xF2E PUSH2 0x2C2E JUMP JUMPDEST PUSH1 0x1 PUSH1 0x1 PUSH1 0xE0 SHL SUB NOT SWAP1 SWAP3 AND PUSH1 0x20 SWAP3 DUP4 MUL SWAP2 SWAP1 SWAP2 ADD SWAP1 SWAP2 ADD MSTORE DUP1 MLOAD PUSH4 0x738F1127 PUSH1 0xE1 SHL SWAP1 DUP3 SWAP1 PUSH1 0x0 SWAP1 PUSH2 0xF63 JUMPI PUSH2 0xF63 PUSH2 0x2C2E JUMP JUMPDEST PUSH1 0x20 MUL PUSH1 0x20 ADD ADD MLOAD PUSH1 0x20 ADD MLOAD PUSH1 0xE DUP2 MLOAD DUP2 LT PUSH2 0xF81 JUMPI PUSH2 0xF81 PUSH2 0x2C2E JUMP JUMPDEST PUSH1 0x1 PUSH1 0x1 PUSH1 0xE0 SHL SUB NOT SWAP1 SWAP3 AND PUSH1 0x20 SWAP3 DUP4 MUL SWAP2 SWAP1 SWAP2 ADD SWAP1 SWAP2 ADD MSTORE DUP1 MLOAD PUSH4 0xDBF304B PUSH1 0xE4 SHL SWAP1 DUP3 SWAP1 PUSH1 0x0 SWAP1 PUSH2 0xFB6 JUMPI PUSH2 0xFB6 PUSH2 0x2C2E JUMP JUMPDEST PUSH1 0x20 MUL PUSH1 0x20 ADD ADD MLOAD PUSH1 0x20 ADD MLOAD PUSH1 0xF DUP2 MLOAD DUP2 LT PUSH2 0xFD4 JUMPI PUSH2 0xFD4 PUSH2 0x2C2E JUMP JUMPDEST PUSH1 0x1 PUSH1 0x1 PUSH1 0xE0 SHL SUB NOT SWAP1 SWAP3 AND PUSH1 0x20 SWAP3 DUP4 MUL SWAP2 SWAP1 SWAP2 ADD SWAP1 SWAP2 ADD MSTORE DUP1 MLOAD PUSH4 0x7E99337 PUSH1 0xE3 SHL SWAP1 DUP3 SWAP1 PUSH1 0x0 SWAP1 PUSH2 0x1009 JUMPI PUSH2 0x1009 PUSH2 0x2C2E JUMP JUMPDEST PUSH1 0x20 MUL PUSH1 0x20 ADD ADD MLOAD PUSH1 0x20 ADD MLOAD PUSH1 0x10 DUP2 MLOAD DUP2 LT PUSH2 0x1027 JUMPI PUSH2 0x1027 PUSH2 0x2C2E JUMP JUMPDEST PUSH1 0x1 PUSH1 0x1 PUSH1 0xE0 SHL SUB NOT SWAP1 SWAP3 AND PUSH1 0x20 SWAP3 DUP4 MUL SWAP2 SWAP1 SWAP2 ADD SWAP1 SWAP2 ADD MSTORE DUP1 MLOAD PUSH4 0xB6C03F03 PUSH1 0xE0 SHL SWAP1 DUP3 SWAP1 PUSH1 0x0 SWAP1 PUSH2 0x105C JUMPI PUSH2 0x105C PUSH2 0x2C2E JUMP JUMPDEST PUSH1 0x20 MUL PUSH1 0x20 ADD ADD MLOAD PUSH1 0x20 ADD MLOAD PUSH1 0x11 DUP2 MLOAD DUP2 LT PUSH2 0x107A JUMPI PUSH2 0x107A PUSH2 0x2C2E JUMP JUMPDEST PUSH1 0x1 PUSH1 0x1 PUSH1 0xE0 SHL SUB NOT SWAP1 SWAP3 AND PUSH1 0x20 SWAP3 DUP4 MUL SWAP2 SWAP1 SWAP2 ADD SWAP1 SWAP2 ADD MSTORE DUP1 MLOAD PUSH4 0x12EC6FA3 PUSH1 0xE2 SHL SWAP1 DUP3 SWAP1 PUSH1 0x0 SWAP1 PUSH2 0x10AF JUMPI PUSH2 0x10AF PUSH2 0x2C2E JUMP JUMPDEST PUSH1 0x20 MUL PUSH1 0x20 ADD ADD MLOAD PUSH1 0x20 ADD MLOAD PUSH1 0x12 DUP2 MLOAD DUP2 LT PUSH2 0x10CD JUMPI PUSH2 0x10CD PUSH2 0x2C2E JUMP JUMPDEST PUSH1 0x1 PUSH1 0x1 PUSH1 0xE0 SHL SUB NOT SWAP1 SWAP3 AND PUSH1 0x20 SWAP3 DUP4 MUL SWAP2 SWAP1 SWAP2 ADD SWAP1 SWAP2 ADD MSTORE DUP1 MLOAD PUSH4 0x22DF6F5B PUSH1 0xE2 SHL SWAP1 DUP3 SWAP1 PUSH1 0x0 SWAP1 PUSH2 0x1102 JUMPI PUSH2 0x1102 PUSH2 0x2C2E JUMP JUMPDEST PUSH1 0x20 MUL PUSH1 0x20 ADD ADD MLOAD PUSH1 0x20 ADD MLOAD PUSH1 0x13 DUP2 MLOAD DUP2 LT PUSH2 0x1120 JUMPI PUSH2 0x1120 PUSH2 0x2C2E JUMP JUMPDEST PUSH1 0x1 PUSH1 0x1 PUSH1 0xE0 SHL SUB NOT SWAP1 SWAP3 AND PUSH1 0x20 SWAP3 DUP4 MUL SWAP2 SWAP1 SWAP2 ADD SWAP1 SWAP2 ADD MSTORE DUP1 MLOAD PUSH4 0xF2C673BD PUSH1 0xE0 SHL SWAP1 DUP3 SWAP1 PUSH1 0x0 SWAP1 PUSH2 0x1155 JUMPI PUSH2 0x1155 PUSH2 0x2C2E JUMP JUMPDEST PUSH1 0x20 MUL PUSH1 0x20 ADD ADD MLOAD PUSH1 0x20 ADD MLOAD PUSH1 0x14 DUP2 MLOAD DUP2 LT PUSH2 0x1173 JUMPI PUSH2 0x1173 PUSH2 0x2C2E JUMP JUMPDEST PUSH1 0x20 MUL PUSH1 0x20 ADD ADD SWAP1 PUSH1 0x1 PUSH1 0x1 PUSH1 0xE0 SHL SUB NOT AND SWAP1 DUP2 PUSH1 0x1 PUSH1 0x1 PUSH1 0xE0 SHL SUB NOT AND DUP2 MSTORE POP POP PUSH32 0x756AF45F4CE05D832BEE0C171992C529AD6D3CA8E13303D78FEACE2F8FD7FAF2 DUP2 PUSH1 0x0 DUP2 MLOAD DUP2 LT PUSH2 0x11C9 JUMPI PUSH2 0x11C9 PUSH2 0x2C2E JUMP JUMPDEST PUSH1 0x20 MUL PUSH1 0x20 ADD ADD MLOAD PUSH1 0x20 ADD MLOAD PUSH1 0x15 DUP2 MLOAD DUP2 LT PUSH2 0x11E7 JUMPI PUSH2 0x11E7 PUSH2 0x2C2E JUMP JUMPDEST PUSH1 0x1 PUSH1 0x1 PUSH1 0xE0 SHL SUB NOT SWAP1 SWAP3 AND PUSH1 0x20 SWAP3 DUP4 MUL SWAP2 SWAP1 SWAP2 ADD DUP3 ADD MSTORE PUSH1 0x40 MLOAD PUSH2 0x120C SWAP2 ADD PUSH2 0x2B28 JUMP JUMPDEST PUSH1 0x40 MLOAD PUSH1 0x20 DUP2 DUP4 SUB SUB DUP2 MSTORE SWAP1 PUSH1 0x40 MSTORE DUP1 MLOAD SWAP1 PUSH1 0x20 ADD KECCAK256 DUP2 PUSH1 0x1 DUP2 MLOAD DUP2 LT PUSH2 0x1235 JUMPI PUSH2 0x1235 PUSH2 0x2C2E JUMP JUMPDEST PUSH1 0x20 MUL PUSH1 0x20 ADD ADD MLOAD PUSH1 0x0 ADD DUP2 DUP2 MSTORE POP POP PUSH1 0x1 DUP2 PUSH1 0x1 DUP2 MLOAD DUP2 LT PUSH2 0x125A JUMPI PUSH2 0x125A PUSH2 0x2C2E JUMP JUMPDEST PUSH1 0x20 SWAP1 DUP2 MUL SWAP2 SWAP1 SWAP2 ADD DUP2 ADD MLOAD SWAP2 ISZERO ISZERO PUSH1 0x40 SWAP3 DUP4 ADD MSTORE DUP2 MLOAD PUSH1 0x4 DUP1 DUP3 MSTORE PUSH1 0xA0 DUP3 ADD SWAP1 SWAP4 MSTORE SWAP2 SWAP1 DUP3 ADD PUSH1 0x80 DUP1 CALLDATASIZE DUP4 CALLDATACOPY ADD SWAP1 POP POP DUP2 PUSH1 0x1 DUP2 MLOAD DUP2 LT PUSH2 0x129E JUMPI PUSH2 0x129E PUSH2 0x2C2E JUMP JUMPDEST PUSH1 0x20 MUL PUSH1 0x20 ADD ADD MLOAD PUSH1 0x20 ADD DUP2 SWAP1 MSTORE POP PUSH4 0xD9DC1F19 PUSH1 0xE0 SHL DUP2 PUSH1 0x1 DUP2 MLOAD DUP2 LT PUSH2 0x12C8 JUMPI PUSH2 0x12C8 PUSH2 0x2C2E JUMP JUMPDEST PUSH1 0x20 MUL PUSH1 0x20 ADD ADD MLOAD PUSH1 0x20 ADD MLOAD PUSH1 0x0 DUP2 MLOAD DUP2 LT PUSH2 0x12E6 JUMPI PUSH2 0x12E6 PUSH2 0x2C2E JUMP JUMPDEST PUSH1 0x1 PUSH1 0x1 PUSH1 0xE0 SHL SUB NOT SWAP1 SWAP3 AND PUSH1 0x20 SWAP3 DUP4 MUL SWAP2 SWAP1 SWAP2 ADD SWAP1 SWAP2 ADD MSTORE DUP1 MLOAD PUSH4 0x7147855D PUSH1 0xE0 SHL SWAP1 DUP3 SWAP1 PUSH1 0x1 SWAP1 DUP2 LT PUSH2 0x131D JUMPI PUSH2 0x131D PUSH2 0x2C2E JUMP JUMPDEST PUSH1 0x20 MUL PUSH1 0x20 ADD ADD MLOAD PUSH1 0x20 ADD MLOAD PUSH1 0x1 DUP2 MLOAD DUP2 LT PUSH2 0x133B JUMPI PUSH2 0x133B PUSH2 0x2C2E JUMP JUMPDEST PUSH1 0x1 PUSH1 0x1 PUSH1 0xE0 SHL SUB NOT SWAP1 SWAP3 AND PUSH1 0x20 SWAP3 DUP4 MUL SWAP2 SWAP1 SWAP2 ADD SWAP1 SWAP2 ADD MSTORE DUP1 MLOAD PUSH4 0x78EFA4ED PUSH1 0xE1 SHL SWAP1 DUP3 SWAP1 PUSH1 0x1 SWAP1 DUP2 LT PUSH2 0x1372 JUMPI PUSH2 0x1372 PUSH2 0x2C2E JUMP JUMPDEST PUSH1 0x20 MUL PUSH1 0x20 ADD ADD MLOAD PUSH1 0x20 ADD MLOAD PUSH1 0x2 DUP2 MLOAD DUP2 LT PUSH2 0x1390 JUMPI PUSH2 0x1390 PUSH2 0x2C2E JUMP JUMPDEST PUSH1 0x1 PUSH1 0x1 PUSH1 0xE0 SHL SUB NOT SWAP1 SWAP3 AND PUSH1 0x20 SWAP3 DUP4 MUL SWAP2 SWAP1 SWAP2 ADD SWAP1 SWAP2 ADD MSTORE DUP1 MLOAD PUSH4 0x1CCB7C8D PUSH1 0xE3 SHL SWAP1 DUP3 SWAP1 PUSH1 0x1 SWAP1 DUP2 LT PUSH2 0x13C7 JUMPI PUSH2 0x13C7 PUSH2 0x2C2E JUMP JUMPDEST PUSH1 0x20 MUL PUSH1 0x20 ADD ADD MLOAD PUSH1 0x20 ADD MLOAD PUSH1 0x3 DUP2 MLOAD DUP2 LT PUSH2 0x13E5 JUMPI PUSH2 0x13E5 PUSH2 0x2C2E JUMP JUMPDEST PUSH1 0x1 PUSH1 0x1 PUSH1 0xE0 SHL SUB NOT SWAP1 SWAP3 AND PUSH1 0x20 SWAP3 DUP4 MUL SWAP2 SWAP1 SWAP2 ADD SWAP1 SWAP2 ADD MSTORE SWAP2 SWAP1 POP JUMP JUMPDEST PUSH1 0x0 PUSH2 0x5C8 DUP3 DUP5 PUSH1 0x4 ADD PUSH1 0x0 PUSH1 0x40 MLOAD PUSH1 0x20 ADD PUSH2 0x623 SWAP1 PUSH2 0x2BA9 JUMP JUMPDEST PUSH1 0x40 MLOAD PUSH1 0x20 ADD PUSH2 0x532 SWAP1 PUSH2 0x2C44 JUMP JUMPDEST PUSH1 0x1 PUSH1 0x1 PUSH1 0xA0 SHL SUB DUP2 AND PUSH1 0x0 SWAP1 DUP2 MSTORE PUSH1 0x20 DUP4 DUP2 MSTORE PUSH1 0x40 DUP1 DUP4 KECCAK256 SWAP1 MLOAD PUSH1 0x1 SWAP3 DUP5 SWAP2 PUSH2 0x682 SWAP2 ADD PUSH2 0x2A88 JUMP JUMPDEST PUSH1 0x0 DUP2 DUP2 MSTORE PUSH1 0x3 DUP4 ADD PUSH1 0x20 MSTORE PUSH1 0x40 DUP2 KECCAK256 DUP1 SLOAD DUP3 SWAP2 SWAP1 PUSH2 0x1475 SWAP1 PUSH2 0x2B6F JUMP JUMPDEST SWAP1 POP GT DUP1 ISZERO PUSH2 0x5C8 JUMPI POP POP PUSH1 0x0 SWAP1 DUP2 MSTORE PUSH1 0x3 SWAP2 SWAP1 SWAP2 ADD PUSH1 0x20 MSTORE PUSH1 0x40 SWAP1 KECCAK256 PUSH1 0x1 ADD SLOAD PUSH1 0xFF AND SWAP1 JUMP JUMPDEST PUSH1 0x40 MLOAD PUSH21 0x4C4956454C595F414E4F4E594D4F55535F524F4C45 PUSH1 0x58 SHL PUSH1 0x20 DUP3 ADD MSTORE PUSH1 0x35 ADD PUSH2 0x532 JUMP JUMPDEST CALLER PUSH1 0x0 SWAP1 DUP2 MSTORE PUSH1 0x20 DUP3 DUP2 MSTORE PUSH1 0x40 DUP1 DUP4 KECCAK256 SWAP1 MLOAD PUSH1 0x1 SWAP4 SWAP2 SWAP3 PUSH2 0x14E6 SWAP2 ADD PUSH2 0x2C11 JUMP JUMPDEST PUSH1 0x40 DUP1 MLOAD PUSH1 0x1F NOT DUP2 DUP5 SUB ADD DUP2 MSTORE SWAP2 DUP2 MSTORE DUP2 MLOAD PUSH1 0x20 SWAP3 DUP4 ADD KECCAK256 DUP4 MSTORE SWAP1 DUP3 ADD SWAP3 SWAP1 SWAP3 MSTORE ADD PUSH1 0x0 KECCAK256 DUP1 SLOAD PUSH1 0xFF NOT AND PUSH1 0x1 DUP4 PUSH1 0x2 DUP2 GT ISZERO PUSH2 0x1525 JUMPI PUSH2 0x1525 PUSH2 0x2B12 JUMP JUMPDEST MUL OR SWAP1 SSTORE POP CALLER PUSH1 0x0 SWAP1 DUP2 MSTORE PUSH1 0x20 DUP3 DUP2 MSTORE PUSH1 0x40 DUP1 DUP4 KECCAK256 SWAP1 MLOAD PUSH1 0x1 SWAP4 SWAP2 SWAP3 PUSH2 0x154B SWAP2 ADD PUSH2 0x2B28 JUMP JUMPDEST PUSH1 0x40 DUP1 MLOAD PUSH1 0x1F NOT DUP2 DUP5 SUB ADD DUP2 MSTORE SWAP2 DUP2 MSTORE DUP2 MLOAD PUSH1 0x20 SWAP3 DUP4 ADD KECCAK256 DUP4 MSTORE SWAP1 DUP3 ADD SWAP3 SWAP1 SWAP3 MSTORE ADD PUSH1 0x0 KECCAK256 DUP1 SLOAD PUSH1 0xFF NOT AND PUSH1 0x1 DUP4 PUSH1 0x2 DUP2 GT ISZERO PUSH2 0x158A JUMPI PUSH2 0x158A PUSH2 0x2B12 JUMP JUMPDEST MUL OR SWAP1 SSTORE POP PUSH1 0x40 MLOAD DUP1 PUSH1 0x40 ADD PUSH1 0x40 MSTORE DUP1 PUSH1 0x11 DUP2 MSTORE PUSH1 0x20 ADD PUSH17 0x4C4956454C595F41444D494E5F524F4C45 PUSH1 0x78 SHL DUP2 MSTORE POP DUP2 PUSH1 0x2 ADD PUSH1 0x0 PUSH1 0x40 MLOAD PUSH1 0x20 ADD PUSH2 0x15CE SWAP1 PUSH2 0x2C11 JUMP JUMPDEST PUSH1 0x40 MLOAD PUSH1 0x20 DUP2 DUP4 SUB SUB DUP2 MSTORE SWAP1 PUSH1 0x40 MSTORE DUP1 MLOAD SWAP1 PUSH1 0x20 ADD KECCAK256 DUP2 MSTORE PUSH1 0x20 ADD SWAP1 DUP2 MSTORE PUSH1 0x20 ADD PUSH1 0x0 KECCAK256 PUSH1 0x1 ADD SWAP1 DUP2 PUSH2 0x1601 SWAP2 SWAP1 PUSH2 0x2CB3 JUMP JUMPDEST POP PUSH1 0x1 DUP2 PUSH1 0x2 ADD PUSH1 0x0 PUSH1 0x40 MLOAD PUSH1 0x20 ADD PUSH2 0x1619 SWAP1 PUSH2 0x2C11 JUMP JUMPDEST PUSH1 0x40 MLOAD PUSH1 0x20 DUP2 DUP4 SUB SUB DUP2 MSTORE SWAP1 PUSH1 0x40 MSTORE DUP1 MLOAD SWAP1 PUSH1 0x20 ADD KECCAK256 DUP2 MSTORE PUSH1 0x20 ADD SWAP1 DUP2 MSTORE PUSH1 0x20 ADD PUSH1 0x0 KECCAK256 PUSH1 0x2 ADD PUSH1 0x0 PUSH2 0x100 EXP DUP2 SLOAD DUP2 PUSH1 0xFF MUL NOT AND SWAP1 DUP4 ISZERO ISZERO MUL OR SWAP1 SSTORE POP PUSH1 0x40 MLOAD PUSH1 0x20 ADD PUSH2 0x1666 SWAP1 PUSH2 0x2C44 JUMP JUMPDEST PUSH1 0x40 MLOAD PUSH1 0x20 DUP2 DUP4 SUB SUB DUP2 MSTORE SWAP1 PUSH1 0x40 MSTORE DUP1 MLOAD SWAP1 PUSH1 0x20 ADD KECCAK256 DUP2 PUSH1 0x2 ADD PUSH1 0x0 PUSH1 0x40 MLOAD PUSH1 0x20 ADD PUSH2 0x1691 SWAP1 PUSH2 0x2C11 JUMP JUMPDEST PUSH1 0x40 MLOAD PUSH1 0x20 DUP2 DUP4 SUB SUB DUP2 MSTORE SWAP1 PUSH1 0x40 MSTORE DUP1 MLOAD SWAP1 PUSH1 0x20 ADD KECCAK256 DUP2 MSTORE PUSH1 0x20 ADD SWAP1 DUP2 MSTORE PUSH1 0x20 ADD PUSH1 0x0 KECCAK256 PUSH1 0x0 ADD DUP2 SWAP1 SSTORE POP PUSH2 0x170A CALLER DUP3 PUSH1 0x2 ADD PUSH1 0x0 PUSH1 0x40 MLOAD PUSH1 0x20 ADD PUSH2 0x16D5 SWAP1 PUSH2 0x2C11 JUMP JUMPDEST PUSH1 0x40 MLOAD PUSH1 0x20 DUP2 DUP4 SUB SUB DUP2 MSTORE SWAP1 PUSH1 0x40 MSTORE DUP1 MLOAD SWAP1 PUSH1 0x20 ADD KECCAK256 DUP2 MSTORE PUSH1 0x20 ADD SWAP1 DUP2 MSTORE PUSH1 0x20 ADD PUSH1 0x0 KECCAK256 PUSH1 0x3 ADD PUSH2 0x284F SWAP1 SWAP2 SWAP1 PUSH4 0xFFFFFFFF AND JUMP JUMPDEST POP PUSH1 0x40 MLOAD DUP1 PUSH1 0x40 ADD PUSH1 0x40 MSTORE DUP1 PUSH1 0x18 DUP2 MSTORE PUSH1 0x20 ADD PUSH24 0x4C4956454C595F53595354454D5F41444D494E5F524F4C45 PUSH1 0x40 SHL DUP2 MSTORE POP DUP2 PUSH1 0x2 ADD PUSH1 0x0 PUSH1 0x40 MLOAD PUSH1 0x20 ADD PUSH2 0x1751 SWAP1 PUSH2 0x2B28 JUMP JUMPDEST PUSH1 0x40 MLOAD PUSH1 0x20 DUP2 DUP4 SUB SUB DUP2 MSTORE SWAP1 PUSH1 0x40 MSTORE DUP1 MLOAD SWAP1 PUSH1 0x20 ADD KECCAK256 DUP2 MSTORE PUSH1 0x20 ADD SWAP1 DUP2 MSTORE PUSH1 0x20 ADD PUSH1 0x0 KECCAK256 PUSH1 0x1 ADD SWAP1 DUP2 PUSH2 0x1784 SWAP2 SWAP1 PUSH2 0x2CB3 JUMP JUMPDEST POP PUSH1 0x1 DUP2 PUSH1 0x2 ADD PUSH1 0x0 PUSH1 0x40 MLOAD PUSH1 0x20 ADD PUSH2 0x179C SWAP1 PUSH2 0x2B28 JUMP JUMPDEST PUSH1 0x40 MLOAD PUSH1 0x20 DUP2 DUP4 SUB SUB DUP2 MSTORE SWAP1 PUSH1 0x40 MSTORE DUP1 MLOAD SWAP1 PUSH1 0x20 ADD KECCAK256 DUP2 MSTORE PUSH1 0x20 ADD SWAP1 DUP2 MSTORE PUSH1 0x20 ADD PUSH1 0x0 KECCAK256 PUSH1 0x2 ADD PUSH1 0x0 PUSH2 0x100 EXP DUP2 SLOAD DUP2 PUSH1 0xFF MUL NOT AND SWAP1 DUP4 ISZERO ISZERO MUL OR SWAP1 SSTORE POP PUSH1 0x40 MLOAD PUSH1 0x20 ADD PUSH2 0x17E9 SWAP1 PUSH2 0x2C44 JUMP JUMPDEST PUSH1 0x40 MLOAD PUSH1 0x20 DUP2 DUP4 SUB SUB DUP2 MSTORE SWAP1 PUSH1 0x40 MSTORE DUP1 MLOAD SWAP1 PUSH1 0x20 ADD KECCAK256 DUP2 PUSH1 0x2 ADD PUSH1 0x0 PUSH1 0x40 MLOAD PUSH1 0x20 ADD PUSH2 0x1814 SWAP1 PUSH2 0x2B28 JUMP JUMPDEST PUSH1 0x40 MLOAD PUSH1 0x20 DUP2 DUP4 SUB SUB DUP2 MSTORE SWAP1 PUSH1 0x40 MSTORE DUP1 MLOAD SWAP1 PUSH1 0x20 ADD KECCAK256 DUP2 MSTORE PUSH1 0x20 ADD SWAP1 DUP2 MSTORE PUSH1 0x20 ADD PUSH1 0x0 KECCAK256 PUSH1 0x0 ADD DUP2 SWAP1 SSTORE POP PUSH2 0x1858 CALLER DUP3 PUSH1 0x2 ADD PUSH1 0x0 PUSH1 0x40 MLOAD PUSH1 0x20 ADD PUSH2 0x16D5 SWAP1 PUSH2 0x2B28 JUMP JUMPDEST POP PUSH1 0x40 MLOAD DUP1 PUSH1 0x40 ADD PUSH1 0x40 MSTORE DUP1 PUSH1 0x19 DUP2 MSTORE PUSH1 0x20 ADD PUSH25 0x4C4956454C595F41535345545F4D414E414745525F524F4C45 PUSH1 0x38 SHL DUP2 MSTORE POP DUP2 PUSH1 0x2 ADD PUSH1 0x0 PUSH1 0x40 MLOAD PUSH1 0x20 ADD PUSH2 0x18A0 SWAP1 PUSH2 0x2D73 JUMP JUMPDEST PUSH1 0x40 MLOAD PUSH1 0x20 DUP2 DUP4 SUB SUB DUP2 MSTORE SWAP1 PUSH1 0x40 MSTORE DUP1 MLOAD SWAP1 PUSH1 0x20 ADD KECCAK256 DUP2 MSTORE PUSH1 0x20 ADD SWAP1 DUP2 MSTORE PUSH1 0x20 ADD PUSH1 0x0 KECCAK256 PUSH1 0x1 ADD SWAP1 DUP2 PUSH2 0x18D3 SWAP2 SWAP1 PUSH2 0x2CB3 JUMP JUMPDEST POP PUSH1 0x1 DUP2 PUSH1 0x2 ADD PUSH1 0x0 PUSH1 0x40 MLOAD PUSH1 0x20 ADD PUSH2 0x18EB SWAP1 PUSH2 0x2D73 JUMP JUMPDEST PUSH1 0x40 MLOAD PUSH1 0x20 DUP2 DUP4 SUB SUB DUP2 MSTORE SWAP1 PUSH1 0x40 MSTORE DUP1 MLOAD SWAP1 PUSH1 0x20 ADD KECCAK256 DUP2 MSTORE PUSH1 0x20 ADD SWAP1 DUP2 MSTORE PUSH1 0x20 ADD PUSH1 0x0 KECCAK256 PUSH1 0x2 ADD PUSH1 0x0 PUSH2 0x100 EXP DUP2 SLOAD DUP2 PUSH1 0xFF MUL NOT AND SWAP1 DUP4 ISZERO ISZERO MUL OR SWAP1 SSTORE POP PUSH1 0x40 MLOAD PUSH1 0x20 ADD PUSH2 0x1938 SWAP1 PUSH2 0x2BA9 JUMP JUMPDEST PUSH1 0x40 MLOAD PUSH1 0x20 DUP2 DUP4 SUB SUB DUP2 MSTORE SWAP1 PUSH1 0x40 MSTORE DUP1 MLOAD SWAP1 PUSH1 0x20 ADD KECCAK256 DUP2 PUSH1 0x2 ADD PUSH1 0x0 PUSH1 0x40 MLOAD PUSH1 0x20 ADD PUSH2 0x1963 SWAP1 PUSH2 0x2D73 JUMP JUMPDEST PUSH1 0x40 MLOAD PUSH1 0x20 DUP2 DUP4 SUB SUB DUP2 MSTORE SWAP1 PUSH1 0x40 MSTORE DUP1 MLOAD SWAP1 PUSH1 0x20 ADD KECCAK256 DUP2 MSTORE PUSH1 0x20 ADD SWAP1 DUP2 MSTORE PUSH1 0x20 ADD PUSH1 0x0 KECCAK256 PUSH1 0x0 ADD DUP2 SWAP1 SSTORE POP PUSH1 0x40 MLOAD DUP1 PUSH1 0x40 ADD PUSH1 0x40 MSTORE DUP1 PUSH1 0x17 DUP2 MSTORE PUSH1 0x20 ADD PUSH23 0x4C4956454C595F41535345545F41444D494E5F524F4C45 PUSH1 0x48 SHL DUP2 MSTORE POP DUP2 PUSH1 0x2 ADD PUSH1 0x0 PUSH1 0x40 MLOAD PUSH1 0x20 ADD PUSH2 0x19D3 SWAP1 PUSH2 0x2B4C JUMP JUMPDEST PUSH1 0x40 MLOAD PUSH1 0x20 DUP2 DUP4 SUB SUB DUP2 MSTORE SWAP1 PUSH1 0x40 MSTORE DUP1 MLOAD SWAP1 PUSH1 0x20 ADD KECCAK256 DUP2 MSTORE PUSH1 0x20 ADD SWAP1 DUP2 MSTORE PUSH1 0x20 ADD PUSH1 0x0 KECCAK256 PUSH1 0x1 ADD SWAP1 DUP2 PUSH2 0x1A06 SWAP2 SWAP1 PUSH2 0x2CB3 JUMP JUMPDEST POP PUSH1 0x1 DUP2 PUSH1 0x2 ADD PUSH1 0x0 PUSH1 0x40 MLOAD PUSH1 0x20 ADD PUSH2 0x1A1E SWAP1 PUSH2 0x2B4C JUMP JUMPDEST PUSH1 0x40 MLOAD PUSH1 0x20 DUP2 DUP4 SUB SUB DUP2 MSTORE SWAP1 PUSH1 0x40 MSTORE DUP1 MLOAD SWAP1 PUSH1 0x20 ADD KECCAK256 DUP2 MSTORE PUSH1 0x20 ADD SWAP1 DUP2 MSTORE PUSH1 0x20 ADD PUSH1 0x0 KECCAK256 PUSH1 0x2 ADD PUSH1 0x0 PUSH2 0x100 EXP DUP2 SLOAD DUP2 PUSH1 0xFF MUL NOT AND SWAP1 DUP4 ISZERO ISZERO MUL OR SWAP1 SSTORE POP PUSH1 0x40 MLOAD PUSH1 0x20 ADD PUSH2 0x1A6B SWAP1 PUSH2 0x2BA9 JUMP JUMPDEST PUSH1 0x40 MLOAD PUSH1 0x20 DUP2 DUP4 SUB SUB DUP2 MSTORE SWAP1 PUSH1 0x40 MSTORE DUP1 MLOAD SWAP1 PUSH1 0x20 ADD KECCAK256 DUP2 PUSH1 0x2 ADD PUSH1 0x0 PUSH1 0x40 MLOAD PUSH1 0x20 ADD PUSH2 0x1A96 SWAP1 PUSH2 0x2B4C JUMP JUMPDEST PUSH1 0x40 MLOAD PUSH1 0x20 DUP2 DUP4 SUB SUB DUP2 MSTORE SWAP1 PUSH1 0x40 MSTORE DUP1 MLOAD SWAP1 PUSH1 0x20 ADD KECCAK256 DUP2 MSTORE PUSH1 0x20 ADD SWAP1 DUP2 MSTORE PUSH1 0x20 ADD PUSH1 0x0 KECCAK256 PUSH1 0x0 ADD DUP2 SWAP1 SSTORE POP PUSH1 0x40 MLOAD DUP1 PUSH1 0x40 ADD PUSH1 0x40 MSTORE DUP1 PUSH1 0x19 DUP2 MSTORE PUSH1 0x20 ADD PUSH25 0x4C4956454C595F434F4D4D554E4954595F44414F5F524F4C45 PUSH1 0x38 SHL DUP2 MSTORE POP DUP2 PUSH1 0x2 ADD PUSH1 0x0 PUSH1 0x40 MLOAD PUSH1 0x20 ADD PUSH2 0x1B08 SWAP1 PUSH2 0x2A88 JUMP JUMPDEST PUSH1 0x40 MLOAD PUSH1 0x20 DUP2 DUP4 SUB SUB DUP2 MSTORE SWAP1 PUSH1 0x40 MSTORE DUP1 MLOAD SWAP1 PUSH1 0x20 ADD KECCAK256 DUP2 MSTORE PUSH1 0x20 ADD SWAP1 DUP2 MSTORE PUSH1 0x20 ADD PUSH1 0x0 KECCAK256 PUSH1 0x1 ADD SWAP1 DUP2 PUSH2 0x1B3B SWAP2 SWAP1 PUSH2 0x2CB3 JUMP JUMPDEST POP PUSH1 0x1 DUP2 PUSH1 0x2 ADD PUSH1 0x0 PUSH1 0x40 MLOAD PUSH1 0x20 ADD PUSH2 0x1B53 SWAP1 PUSH2 0x2A88 JUMP JUMPDEST PUSH1 0x40 MLOAD PUSH1 0x20 DUP2 DUP4 SUB SUB DUP2 MSTORE SWAP1 PUSH1 0x40 MSTORE DUP1 MLOAD SWAP1 PUSH1 0x20 ADD KECCAK256 DUP2 MSTORE PUSH1 0x20 ADD SWAP1 DUP2 MSTORE PUSH1 0x20 ADD PUSH1 0x0 KECCAK256 PUSH1 0x2 ADD PUSH1 0x0 PUSH2 0x100 EXP DUP2 SLOAD DUP2 PUSH1 0xFF MUL NOT AND SWAP1 DUP4 ISZERO ISZERO MUL OR SWAP1 SSTORE POP PUSH1 0x40 MLOAD PUSH1 0x20 ADD PUSH2 0x1BA0 SWAP1 PUSH2 0x2AF6 JUMP JUMPDEST PUSH1 0x40 MLOAD PUSH1 0x20 DUP2 DUP4 SUB SUB DUP2 MSTORE SWAP1 PUSH1 0x40 MSTORE DUP1 MLOAD SWAP1 PUSH1 0x20 ADD KECCAK256 DUP2 PUSH1 0x2 ADD PUSH1 0x0 PUSH1 0x40 MLOAD PUSH1 0x20 ADD PUSH2 0x1BCB SWAP1 PUSH2 0x2A88 JUMP JUMPDEST PUSH1 0x40 MLOAD PUSH1 0x20 DUP2 DUP4 SUB SUB DUP2 MSTORE SWAP1 PUSH1 0x40 MSTORE DUP1 MLOAD SWAP1 PUSH1 0x20 ADD KECCAK256 DUP2 MSTORE PUSH1 0x20 ADD SWAP1 DUP2 MSTORE PUSH1 0x20 ADD PUSH1 0x0 KECCAK256 PUSH1 0x0 ADD DUP2 SWAP1 SSTORE POP PUSH1 0x40 MLOAD DUP1 PUSH1 0x60 ADD PUSH1 0x40 MSTORE DUP1 PUSH1 0x22 DUP2 MSTORE PUSH1 0x20 ADD PUSH2 0x2D99 PUSH1 0x22 SWAP2 CODECOPY DUP2 PUSH1 0x2 ADD PUSH1 0x0 PUSH1 0x40 MLOAD PUSH1 0x20 ADD PUSH2 0x1C24 SWAP1 PUSH2 0x2BC7 JUMP JUMPDEST PUSH1 0x40 MLOAD PUSH1 0x20 DUP2 DUP4 SUB SUB DUP2 MSTORE SWAP1 PUSH1 0x40 MSTORE DUP1 MLOAD SWAP1 PUSH1 0x20 ADD KECCAK256 DUP2 MSTORE PUSH1 0x20 ADD SWAP1 DUP2 MSTORE PUSH1 0x20 ADD PUSH1 0x0 KECCAK256 PUSH1 0x1 ADD SWAP1 DUP2 PUSH2 0x1C57 SWAP2 SWAP1 PUSH2 0x2CB3 JUMP JUMPDEST POP PUSH1 0x1 DUP2 PUSH1 0x2 ADD PUSH1 0x0 PUSH1 0x40 MLOAD PUSH1 0x20 ADD PUSH2 0x1C6F SWAP1 PUSH2 0x2BC7 JUMP JUMPDEST PUSH1 0x40 MLOAD PUSH1 0x20 DUP2 DUP4 SUB SUB DUP2 MSTORE SWAP1 PUSH1 0x40 MSTORE DUP1 MLOAD SWAP1 PUSH1 0x20 ADD KECCAK256 DUP2 MSTORE PUSH1 0x20 ADD SWAP1 DUP2 MSTORE PUSH1 0x20 ADD PUSH1 0x0 KECCAK256 PUSH1 0x2 ADD PUSH1 0x0 PUSH2 0x100 EXP DUP2 SLOAD DUP2 PUSH1 0xFF MUL NOT AND SWAP1 DUP4 ISZERO ISZERO MUL OR SWAP1 SSTORE POP PUSH1 0x40 MLOAD PUSH1 0x20 ADD PUSH2 0x1CBC SWAP1 PUSH2 0x2AF6 JUMP JUMPDEST PUSH1 0x40 MLOAD PUSH1 0x20 DUP2 DUP4 SUB SUB DUP2 MSTORE SWAP1 PUSH1 0x40 MSTORE DUP1 MLOAD SWAP1 PUSH1 0x20 ADD KECCAK256 DUP2 PUSH1 0x2 ADD PUSH1 0x0 PUSH1 0x40 MLOAD PUSH1 0x20 ADD PUSH2 0x1CE7 SWAP1 PUSH2 0x2BC7 JUMP JUMPDEST PUSH1 0x40 MLOAD PUSH1 0x20 DUP2 DUP4 SUB SUB DUP2 MSTORE SWAP1 PUSH1 0x40 MSTORE DUP1 MLOAD SWAP1 PUSH1 0x20 ADD KECCAK256 DUP2 MSTORE PUSH1 0x20 ADD SWAP1 DUP2 MSTORE PUSH1 0x20 ADD PUSH1 0x0 KECCAK256 PUSH1 0x0 ADD DUP2 SWAP1 SSTORE POP PUSH1 0x40 MLOAD DUP1 PUSH1 0x40 ADD PUSH1 0x40 MSTORE DUP1 PUSH1 0x15 DUP2 MSTORE PUSH1 0x20 ADD PUSH21 0x4C4956454C595F414E4F4E594D4F55535F524F4C45 PUSH1 0x58 SHL DUP2 MSTORE POP DUP2 PUSH1 0x2 ADD PUSH1 0x0 PUSH1 0x40 MLOAD PUSH1 0x20 ADD PUSH2 0x1D71 SWAP1 PUSH21 0x4C4956454C595F414E4F4E594D4F55535F524F4C45 PUSH1 0x58 SHL DUP2 MSTORE PUSH1 0x15 ADD SWAP1 JUMP JUMPDEST PUSH1 0x40 MLOAD PUSH1 0x20 DUP2 DUP4 SUB SUB DUP2 MSTORE SWAP1 PUSH1 0x40 MSTORE DUP1 MLOAD SWAP1 PUSH1 0x20 ADD KECCAK256 DUP2 MSTORE PUSH1 0x20 ADD SWAP1 DUP2 MSTORE PUSH1 0x20 ADD PUSH1 0x0 KECCAK256 PUSH1 0x1 ADD SWAP1 DUP2 PUSH2 0x1DA4 SWAP2 SWAP1 PUSH2 0x2CB3 JUMP JUMPDEST POP PUSH1 0x1 DUP2 PUSH1 0x2 ADD PUSH1 0x0 PUSH1 0x40 MLOAD PUSH1 0x20 ADD PUSH2 0x1DD8 SWAP1 PUSH21 0x4C4956454C595F414E4F4E594D4F55535F524F4C45 PUSH1 0x58 SHL DUP2 MSTORE PUSH1 0x15 ADD SWAP1 JUMP JUMPDEST PUSH1 0x40 MLOAD PUSH1 0x20 DUP2 DUP4 SUB SUB DUP2 MSTORE SWAP1 PUSH1 0x40 MSTORE DUP1 MLOAD SWAP1 PUSH1 0x20 ADD KECCAK256 DUP2 MSTORE PUSH1 0x20 ADD SWAP1 DUP2 MSTORE PUSH1 0x20 ADD PUSH1 0x0 KECCAK256 PUSH1 0x2 ADD PUSH1 0x0 PUSH2 0x100 EXP DUP2 SLOAD DUP2 PUSH1 0xFF MUL NOT AND SWAP1 DUP4 ISZERO ISZERO MUL OR SWAP1 SSTORE POP PUSH1 0x40 MLOAD PUSH1 0x20 ADD PUSH2 0x1E25 SWAP1 PUSH2 0x2C44 JUMP JUMPDEST PUSH1 0x40 MLOAD PUSH1 0x20 DUP2 DUP4 SUB SUB DUP2 MSTORE SWAP1 PUSH1 0x40 MSTORE DUP1 MLOAD SWAP1 PUSH1 0x20 ADD KECCAK256 DUP2 PUSH1 0x2 ADD PUSH1 0x0 PUSH1 0x40 MLOAD PUSH1 0x20 ADD PUSH2 0x1E6C SWAP1 PUSH21 0x4C4956454C595F414E4F4E594D4F55535F524F4C45 PUSH1 0x58 SHL DUP2 MSTORE PUSH1 0x15 ADD SWAP1 JUMP JUMPDEST PUSH1 0x40 MLOAD PUSH1 0x20 DUP2 DUP4 SUB SUB DUP2 MSTORE SWAP1 PUSH1 0x40 MSTORE DUP1 MLOAD SWAP1 PUSH1 0x20 ADD KECCAK256 DUP2 MSTORE PUSH1 0x20 ADD SWAP1 DUP2 MSTORE PUSH1 0x20 ADD PUSH1 0x0 KECCAK256 PUSH1 0x0 ADD DUP2 SWAP1 SSTORE POP PUSH1 0x40 MLOAD DUP1 PUSH1 0x40 ADD PUSH1 0x40 MSTORE DUP1 PUSH1 0x14 DUP2 MSTORE PUSH1 0x20 ADD PUSH20 0x4C4956454C595F47454E4552414C5F47524F555 PUSH1 0x64 SHL DUP2 MSTORE POP DUP2 PUSH1 0x4 ADD PUSH1 0x0 PUSH1 0x40 MLOAD PUSH1 0x20 ADD PUSH2 0x1ED9 SWAP1 PUSH2 0x2C44 JUMP JUMPDEST PUSH1 0x40 MLOAD PUSH1 0x20 DUP2 DUP4 SUB SUB DUP2 MSTORE SWAP1 PUSH1 0x40 MSTORE DUP1 MLOAD SWAP1 PUSH1 0x20 ADD KECCAK256 DUP2 MSTORE PUSH1 0x20 ADD SWAP1 DUP2 MSTORE PUSH1 0x20 ADD PUSH1 0x0 KECCAK256 PUSH1 0x0 ADD SWAP1 DUP2 PUSH2 0x1F0C SWAP2 SWAP1 PUSH2 0x2CB3 JUMP JUMPDEST POP PUSH1 0x1 DUP2 PUSH1 0x4 ADD PUSH1 0x0 PUSH1 0x40 MLOAD PUSH1 0x20 ADD PUSH2 0x1F24 SWAP1 PUSH2 0x2C44 JUMP JUMPDEST PUSH1 0x40 MLOAD PUSH1 0x20 DUP2 DUP4 SUB SUB DUP2 MSTORE SWAP1 PUSH1 0x40 MSTORE DUP1 MLOAD SWAP1 PUSH1 0x20 ADD KECCAK256 DUP2 MSTORE PUSH1 0x20 ADD SWAP1 DUP2 MSTORE PUSH1 0x20 ADD PUSH1 0x0 KECCAK256 PUSH1 0x1 ADD PUSH1 0x0 PUSH2 0x100 EXP DUP2 SLOAD DUP2 PUSH1 0xFF MUL NOT AND SWAP1 DUP4 ISZERO ISZERO MUL OR SWAP1 SSTORE POP PUSH2 0x1FD4 PUSH1 0x40 MLOAD PUSH1 0x20 ADD PUSH2 0x1F74 SWAP1 PUSH2 0x2C11 JUMP JUMPDEST PUSH1 0x40 MLOAD PUSH1 0x20 DUP2 DUP4 SUB SUB DUP2 MSTORE SWAP1 PUSH1 0x40 MSTORE DUP1 MLOAD SWAP1 PUSH1 0x20 ADD KECCAK256 DUP3 PUSH1 0x4 ADD PUSH1 0x0 PUSH1 0x40 MLOAD PUSH1 0x20 ADD PUSH2 0x1F9F SWAP1 PUSH2 0x2C44 JUMP JUMPDEST PUSH1 0x40 MLOAD PUSH1 0x20 DUP2 DUP4 SUB SUB DUP2 MSTORE SWAP1 PUSH1 0x40 MSTORE DUP1 MLOAD SWAP1 PUSH1 0x20 ADD KECCAK256 DUP2 MSTORE PUSH1 0x20 ADD SWAP1 DUP2 MSTORE PUSH1 0x20 ADD PUSH1 0x0 KECCAK256 PUSH1 0x2 ADD PUSH2 0x2864 SWAP1 SWAP2 SWAP1 PUSH4 0xFFFFFFFF AND JUMP JUMPDEST POP PUSH2 0x1FE7 PUSH1 0x40 MLOAD PUSH1 0x20 ADD PUSH2 0x1F74 SWAP1 PUSH2 0x2B28 JUMP JUMPDEST POP PUSH1 0x40 MLOAD DUP1 PUSH1 0x40 ADD PUSH1 0x40 MSTORE DUP1 PUSH1 0x10 DUP2 MSTORE PUSH1 0x20 ADD PUSH16 0x4C4956454C595F44414F5F47524F555 PUSH1 0x84 SHL DUP2 MSTORE POP DUP2 PUSH1 0x4 ADD PUSH1 0x0 PUSH1 0x40 MLOAD PUSH1 0x20 ADD PUSH2 0x2026 SWAP1 PUSH2 0x2AF6 JUMP JUMPDEST PUSH1 0x40 MLOAD PUSH1 0x20 DUP2 DUP4 SUB SUB DUP2 MSTORE SWAP1 PUSH1 0x40 MSTORE DUP1 MLOAD SWAP1 PUSH1 0x20 ADD KECCAK256 DUP2 MSTORE PUSH1 0x20 ADD SWAP1 DUP2 MSTORE PUSH1 0x20 ADD PUSH1 0x0 KECCAK256 PUSH1 0x0 ADD SWAP1 DUP2 PUSH2 0x2059 SWAP2 SWAP1 PUSH2 0x2CB3 JUMP JUMPDEST POP PUSH1 0x1 DUP2 PUSH1 0x4 ADD PUSH1 0x0 PUSH1 0x40 MLOAD PUSH1 0x20 ADD PUSH2 0x2071 SWAP1 PUSH2 0x2AF6 JUMP JUMPDEST PUSH1 0x40 MLOAD PUSH1 0x20 DUP2 DUP4 SUB SUB DUP2 MSTORE SWAP1 PUSH1 0x40 MSTORE DUP1 MLOAD SWAP1 PUSH1 0x20 ADD KECCAK256 DUP2 MSTORE PUSH1 0x20 ADD SWAP1 DUP2 MSTORE PUSH1 0x20 ADD PUSH1 0x0 KECCAK256 PUSH1 0x1 ADD PUSH1 0x0 PUSH2 0x100 EXP DUP2 SLOAD DUP2 PUSH1 0xFF MUL NOT AND SWAP1 DUP4 ISZERO ISZERO MUL OR SWAP1 SSTORE POP PUSH2 0x20EC PUSH1 0x40 MLOAD PUSH1 0x20 ADD PUSH2 0x20C1 SWAP1 PUSH2 0x2A88 JUMP JUMPDEST PUSH1 0x40 MLOAD PUSH1 0x20 DUP2 DUP4 SUB SUB DUP2 MSTORE SWAP1 PUSH1 0x40 MSTORE DUP1 MLOAD SWAP1 PUSH1 0x20 ADD KECCAK256 DUP3 PUSH1 0x4 ADD PUSH1 0x0 PUSH1 0x40 MLOAD PUSH1 0x20 ADD PUSH2 0x1F9F SWAP1 PUSH2 0x2AF6 JUMP JUMPDEST POP PUSH2 0x20FF PUSH1 0x40 MLOAD PUSH1 0x20 ADD PUSH2 0x20C1 SWAP1 PUSH2 0x2BC7 JUMP JUMPDEST POP PUSH1 0x40 MLOAD DUP1 PUSH1 0x40 ADD PUSH1 0x40 MSTORE DUP1 PUSH1 0x12 DUP2 MSTORE PUSH1 0x20 ADD PUSH18 0x4C4956454C595F41535345545F47524F555 PUSH1 0x74 SHL DUP2 MSTORE POP DUP2 PUSH1 0x4 ADD PUSH1 0x0 PUSH1 0x40 MLOAD PUSH1 0x20 ADD PUSH2 0x2140 SWAP1 PUSH2 0x2BA9 JUMP JUMPDEST PUSH1 0x40 MLOAD PUSH1 0x20 DUP2 DUP4 SUB SUB DUP2 MSTORE SWAP1 PUSH1 0x40 MSTORE DUP1 MLOAD SWAP1 PUSH1 0x20 ADD KECCAK256 DUP2 MSTORE PUSH1 0x20 ADD SWAP1 DUP2 MSTORE PUSH1 0x20 ADD PUSH1 0x0 KECCAK256 PUSH1 0x0 ADD SWAP1 DUP2 PUSH2 0x2173 SWAP2 SWAP1 PUSH2 0x2CB3 JUMP JUMPDEST POP PUSH1 0x1 DUP2 PUSH1 0x4 ADD PUSH1 0x0 PUSH1 0x40 MLOAD PUSH1 0x20 ADD PUSH2 0x218B SWAP1 PUSH2 0x2BA9 JUMP JUMPDEST PUSH1 0x40 MLOAD PUSH1 0x20 DUP2 DUP4 SUB SUB DUP2 MSTORE SWAP1 PUSH1 0x40 MSTORE DUP1 MLOAD SWAP1 PUSH1 0x20 ADD KECCAK256 DUP2 MSTORE PUSH1 0x20 ADD SWAP1 DUP2 MSTORE PUSH1 0x20 ADD PUSH1 0x0 KECCAK256 PUSH1 0x1 ADD PUSH1 0x0 PUSH2 0x100 EXP DUP2 SLOAD DUP2 PUSH1 0xFF MUL NOT AND SWAP1 DUP4 ISZERO ISZERO MUL OR SWAP1 SSTORE POP PUSH2 0x2206 PUSH1 0x40 MLOAD PUSH1 0x20 ADD PUSH2 0x21DB SWAP1 PUSH2 0x2D73 JUMP JUMPDEST PUSH1 0x40 MLOAD PUSH1 0x20 DUP2 DUP4 SUB SUB DUP2 MSTORE SWAP1 PUSH1 0x40 MSTORE DUP1 MLOAD SWAP1 PUSH1 0x20 ADD KECCAK256 DUP3 PUSH1 0x4 ADD PUSH1 0x0 PUSH1 0x40 MLOAD PUSH1 0x20 ADD PUSH2 0x1F9F SWAP1 PUSH2 0x2BA9 JUMP JUMPDEST POP PUSH2 0x2219 PUSH1 0x40 MLOAD PUSH1 0x20 ADD PUSH2 0x21DB SWAP1 PUSH2 0x2B4C JUMP JUMPDEST POP PUSH1 0x40 MLOAD DUP1 PUSH1 0x40 ADD PUSH1 0x40 MSTORE DUP1 PUSH1 0x14 DUP2 MSTORE PUSH1 0x20 ADD PUSH20 0x4C4956454C595F47454E4552414C5F5245414C4D PUSH1 0x60 SHL DUP2 MSTORE POP DUP2 PUSH1 0x3 ADD PUSH1 0x0 PUSH1 0x40 MLOAD PUSH1 0x20 ADD PUSH2 0x225C SWAP1 PUSH2 0x2AD6 JUMP JUMPDEST PUSH1 0x40 MLOAD PUSH1 0x20 DUP2 DUP4 SUB SUB DUP2 MSTORE SWAP1 PUSH1 0x40 MSTORE DUP1 MLOAD SWAP1 PUSH1 0x20 ADD KECCAK256 DUP2 MSTORE PUSH1 0x20 ADD SWAP1 DUP2 MSTORE PUSH1 0x20 ADD PUSH1 0x0 KECCAK256 PUSH1 0x0 ADD SWAP1 DUP2 PUSH2 0x228F SWAP2 SWAP1 PUSH2 0x2CB3 JUMP JUMPDEST POP PUSH1 0x1 DUP2 PUSH1 0x3 ADD PUSH1 0x0 PUSH1 0x40 MLOAD PUSH1 0x20 ADD PUSH2 0x22A7 SWAP1 PUSH2 0x2AD6 JUMP JUMPDEST PUSH1 0x40 MLOAD PUSH1 0x20 DUP2 DUP4 SUB SUB DUP2 MSTORE SWAP1 PUSH1 0x40 MSTORE DUP1 MLOAD SWAP1 PUSH1 0x20 ADD KECCAK256 DUP2 MSTORE PUSH1 0x20 ADD SWAP1 DUP2 MSTORE PUSH1 0x20 ADD PUSH1 0x0 KECCAK256 PUSH1 0x1 ADD PUSH1 0x0 PUSH2 0x100 EXP DUP2 SLOAD DUP2 PUSH1 0xFF MUL NOT AND SWAP1 DUP4 ISZERO ISZERO MUL OR SWAP1 SSTORE POP PUSH1 0x1 DUP2 PUSH1 0x3 ADD PUSH1 0x0 PUSH1 0x40 MLOAD PUSH1 0x20 ADD PUSH2 0x22FC SWAP1 PUSH2 0x2AD6 JUMP JUMPDEST PUSH1 0x40 DUP1 MLOAD PUSH1 0x1F NOT DUP2 DUP5 SUB ADD DUP2 MSTORE SWAP2 DUP2 MSTORE DUP2 MLOAD PUSH1 0x20 SWAP3 DUP4 ADD KECCAK256 DUP4 MSTORE DUP3 DUP3 ADD SWAP4 SWAP1 SWAP4 MSTORE SWAP1 DUP3 ADD PUSH1 0x0 KECCAK256 PUSH1 0x1 ADD DUP1 SLOAD SWAP4 ISZERO ISZERO PUSH2 0x100 MUL PUSH2 0xFF00 NOT SWAP1 SWAP5 AND SWAP4 SWAP1 SWAP4 OR SWAP1 SWAP3 SSTORE DUP1 MLOAD ADDRESS PUSH1 0x60 SHL PUSH12 0xFFFFFFFFFFFFFFFFFFFFFFFF NOT AND DUP2 DUP5 ADD MSTORE DUP2 MLOAD PUSH1 0x14 DUP2 DUP4 SUB ADD DUP2 MSTORE PUSH1 0x34 SWAP1 SWAP2 ADD SWAP1 SWAP2 MSTORE DUP1 MLOAD SWAP2 ADD KECCAK256 PUSH2 0x2386 SWAP1 DUP3 PUSH1 0x3 ADD PUSH1 0x0 PUSH1 0x40 MLOAD PUSH1 0x20 ADD PUSH2 0x1F9F SWAP1 PUSH2 0x2AD6 JUMP JUMPDEST POP PUSH1 0x40 MLOAD DUP1 PUSH1 0x40 ADD PUSH1 0x40 MSTORE DUP1 PUSH1 0x12 DUP2 MSTORE PUSH1 0x20 ADD PUSH18 0x4C4956454C595F41535345545F5245414C4D PUSH1 0x70 SHL DUP2 MSTORE POP DUP2 PUSH1 0x3 ADD PUSH1 0x0 PUSH1 0x40 MLOAD PUSH1 0x20 ADD PUSH2 0x23E0 SWAP1 PUSH18 0x4C4956454C595F41535345545F5245414C4D PUSH1 0x70 SHL DUP2 MSTORE PUSH1 0x12 ADD SWAP1 JUMP JUMPDEST PUSH1 0x40 MLOAD PUSH1 0x20 DUP2 DUP4 SUB SUB DUP2 MSTORE SWAP1 PUSH1 0x40 MSTORE DUP1 MLOAD SWAP1 PUSH1 0x20 ADD KECCAK256 DUP2 MSTORE PUSH1 0x20 ADD SWAP1 DUP2 MSTORE PUSH1 0x20 ADD PUSH1 0x0 KECCAK256 PUSH1 0x0 ADD SWAP1 DUP2 PUSH2 0x2413 SWAP2 SWAP1 PUSH2 0x2CB3 JUMP JUMPDEST POP PUSH1 0x1 DUP2 PUSH1 0x3 ADD PUSH1 0x0 PUSH1 0x40 MLOAD PUSH1 0x20 ADD PUSH2 0x2444 SWAP1 PUSH18 0x4C4956454C595F41535345545F5245414C4D PUSH1 0x70 SHL DUP2 MSTORE PUSH1 0x12 ADD SWAP1 JUMP JUMPDEST PUSH1 0x40 MLOAD PUSH1 0x20 DUP2 DUP4 SUB SUB DUP2 MSTORE SWAP1 PUSH1 0x40 MSTORE DUP1 MLOAD SWAP1 PUSH1 0x20 ADD KECCAK256 DUP2 MSTORE PUSH1 0x20 ADD SWAP1 DUP2 MSTORE PUSH1 0x20 ADD PUSH1 0x0 KECCAK256 PUSH1 0x1 ADD PUSH1 0x0 PUSH2 0x100 EXP DUP2 SLOAD DUP2 PUSH1 0xFF MUL NOT AND SWAP1 DUP4 ISZERO ISZERO MUL OR SWAP1 SSTORE POP PUSH1 0x1 DUP2 PUSH1 0x3 ADD PUSH1 0x0 PUSH1 0x40 MLOAD PUSH1 0x20 ADD PUSH2 0x24B2 SWAP1 PUSH18 0x4C4956454C595F41535345545F5245414C4D PUSH1 0x70 SHL DUP2 MSTORE PUSH1 0x12 ADD SWAP1 JUMP JUMPDEST PUSH1 0x40 MLOAD PUSH1 0x20 DUP2 DUP4 SUB SUB DUP2 MSTORE SWAP1 PUSH1 0x40 MSTORE DUP1 MLOAD SWAP1 PUSH1 0x20 ADD KECCAK256 DUP2 MSTORE PUSH1 0x20 ADD SWAP1 DUP2 MSTORE PUSH1 0x20 ADD PUSH1 0x0 KECCAK256 PUSH1 0x1 ADD PUSH1 0x1 PUSH2 0x100 EXP DUP2 SLOAD DUP2 PUSH1 0xFF MUL NOT AND SWAP1 DUP4 ISZERO ISZERO MUL OR SWAP1 SSTORE POP POP JUMP JUMPDEST PUSH1 0x0 DUP2 DUP2 MSTORE PUSH1 0x1 DUP1 DUP5 ADD PUSH1 0x20 MSTORE PUSH1 0x40 DUP3 KECCAK256 ADD SLOAD PUSH1 0x1 PUSH1 0x1 PUSH1 0xA0 SHL SUB AND ISZERO DUP1 ISZERO SWAP1 PUSH2 0x5C8 JUMPI POP POP PUSH1 0x0 SWAP1 DUP2 MSTORE PUSH1 0x1 SWAP2 DUP3 ADD PUSH1 0x20 MSTORE PUSH1 0x40 SWAP1 KECCAK256 ADD SLOAD PUSH1 0x1 PUSH1 0xA0 SHL SWAP1 DIV PUSH1 0xFF AND SWAP1 JUMP JUMPDEST PUSH1 0x40 MLOAD PUSH1 0x20 ADD PUSH2 0x532 SWAP1 PUSH2 0x2D73 JUMP JUMPDEST PUSH1 0x1 PUSH1 0x1 PUSH1 0xA0 SHL SUB DUP2 AND PUSH1 0x0 SWAP1 DUP2 MSTORE PUSH1 0x20 DUP4 DUP2 MSTORE PUSH1 0x40 DUP1 DUP4 KECCAK256 SWAP1 MLOAD PUSH1 0x1 SWAP3 DUP5 SWAP2 PUSH2 0x682 SWAP2 ADD PUSH2 0x2D73 JUMP JUMPDEST PUSH1 0x0 DUP2 DUP2 MSTORE PUSH1 0x3 DUP4 ADD PUSH1 0x20 MSTORE PUSH1 0x40 DUP2 KECCAK256 DUP1 SLOAD PUSH2 0x258D SWAP1 PUSH2 0x2B6F JUMP JUMPDEST SWAP1 POP PUSH1 0x0 SUB PUSH2 0x259E JUMPI POP PUSH1 0x0 PUSH2 0x5CB JUMP JUMPDEST POP PUSH1 0x0 SWAP1 DUP2 MSTORE PUSH1 0x3 SWAP2 SWAP1 SWAP2 ADD PUSH1 0x20 MSTORE PUSH1 0x40 SWAP1 KECCAK256 PUSH1 0x1 ADD SLOAD PUSH2 0x100 SWAP1 DIV PUSH1 0xFF AND SWAP1 JUMP JUMPDEST PUSH1 0x40 MLOAD PUSH1 0x20 ADD PUSH2 0x532 SWAP1 PUSH2 0x2BC7 JUMP JUMPDEST PUSH1 0x40 MLOAD PUSH14 0x131058D8D95CDCD0DBDB9D1C9BDB PUSH1 0x92 SHL PUSH1 0x20 DUP3 ADD MSTORE PUSH1 0x2E ADD PUSH2 0x532 JUMP JUMPDEST PUSH1 0x0 DUP2 DUP2 MSTORE PUSH1 0x1 DUP1 DUP5 ADD PUSH1 0x20 SWAP1 DUP2 MSTORE PUSH1 0x40 DUP1 DUP5 KECCAK256 SWAP1 SWAP3 ADD SLOAD DUP3 MLOAD PUSH4 0x151E765 PUSH1 0xE6 SHL DUP2 MSTORE SWAP3 MLOAD PUSH1 0x1 PUSH1 0x1 PUSH1 0xA0 SHL SUB SWAP1 SWAP2 AND SWAP3 PUSH4 0x5479D940 SWAP3 PUSH1 0x4 DUP1 DUP4 ADD SWAP4 SWAP2 SWAP3 DUP3 SWAP1 SUB ADD DUP2 DUP7 GAS STATICCALL ISZERO DUP1 ISZERO PUSH2 0x5A4 JUMPI RETURNDATASIZE PUSH1 0x0 DUP1 RETURNDATACOPY RETURNDATASIZE PUSH1 0x0 REVERT JUMPDEST PUSH1 0x0 DUP2 DUP2 MSTORE PUSH1 0x2 DUP4 ADD PUSH1 0x20 MSTORE PUSH1 0x40 DUP2 KECCAK256 PUSH1 0x1 ADD DUP1 SLOAD DUP3 SWAP2 SWAP1 PUSH2 0x266B SWAP1 PUSH2 0x2B6F JUMP JUMPDEST SWAP1 POP GT DUP1 ISZERO PUSH2 0x5C8 JUMPI POP POP PUSH1 0x0 SWAP1 DUP2 MSTORE PUSH1 0x2 SWAP2 DUP3 ADD PUSH1 0x20 MSTORE PUSH1 0x40 SWAP1 KECCAK256 ADD SLOAD PUSH1 0xFF AND SWAP1 JUMP JUMPDEST PUSH1 0x0 DUP2 DUP2 MSTORE PUSH1 0x4 DUP4 ADD PUSH1 0x20 MSTORE PUSH1 0x40 DUP2 KECCAK256 DUP1 SLOAD DUP3 SWAP2 SWAP1 PUSH2 0x6F1 SWAP1 PUSH2 0x2B6F JUMP JUMPDEST PUSH1 0x0 PUSH2 0x5C8 DUP3 DUP5 PUSH1 0x3 ADD PUSH1 0x0 PUSH1 0x40 MLOAD PUSH1 0x20 ADD PUSH2 0x623 SWAP1 PUSH18 0x4C4956454C595F41535345545F5245414C4D PUSH1 0x70 SHL DUP2 MSTORE PUSH1 0x12 ADD SWAP1 JUMP JUMPDEST PUSH1 0x40 MLOAD PUSH1 0x20 ADD PUSH2 0x532 SWAP1 PUSH2 0x2C11 JUMP JUMPDEST PUSH1 0x0 PUSH2 0x5C8 DUP3 DUP5 PUSH1 0x4 ADD PUSH1 0x0 PUSH1 0x40 MLOAD PUSH1 0x20 ADD PUSH2 0x623 SWAP1 PUSH2 0x2AF6 JUMP JUMPDEST PUSH1 0x0 DUP3 DUP2 MSTORE PUSH1 0x1 DUP1 DUP6 ADD PUSH1 0x20 MSTORE PUSH1 0x40 DUP3 KECCAK256 ADD SLOAD PUSH1 0x1 PUSH1 0x1 PUSH1 0xA0 SHL SUB AND ISZERO DUP1 ISZERO SWAP1 PUSH2 0x912 JUMPI POP PUSH1 0x1 PUSH1 0x0 DUP5 DUP2 MSTORE PUSH1 0x1 DUP1 DUP8 ADD PUSH1 0x20 SWAP1 DUP2 MSTORE PUSH1 0x40 DUP1 DUP5 KECCAK256 PUSH1 0x1 PUSH1 0x1 PUSH1 0xE0 SHL SUB NOT DUP9 AND DUP6 MSTORE PUSH1 0x2 SWAP1 DUP2 ADD SWAP1 SWAP3 MSTORE SWAP1 SWAP3 KECCAK256 ADD SLOAD PUSH1 0xFF AND SWAP1 DUP2 GT ISZERO PUSH2 0x2773 JUMPI PUSH2 0x2773 PUSH2 0x2B12 JUMP JUMPDEST EQ SWAP5 SWAP4 POP POP POP POP JUMP JUMPDEST PUSH1 0x0 DUP3 DUP2 MSTORE PUSH1 0x1 DUP1 DUP6 ADD PUSH1 0x20 MSTORE PUSH1 0x40 DUP3 KECCAK256 ADD SLOAD PUSH1 0x1 PUSH1 0x1 PUSH1 0xA0 SHL SUB AND ISZERO DUP1 ISZERO SWAP1 PUSH2 0x912 JUMPI POP PUSH1 0x0 DUP4 DUP2 MSTORE PUSH1 0x1 DUP6 ADD PUSH1 0x20 MSTORE PUSH1 0x40 SWAP1 KECCAK256 PUSH2 0x912 SWAP1 PUSH1 0x3 ADD PUSH1 0x1 PUSH1 0x1 PUSH1 0xE0 SHL SUB NOT DUP5 AND PUSH2 0x2837 JUMP JUMPDEST PUSH1 0x1 PUSH1 0x1 PUSH1 0xA0 SHL SUB DUP2 AND PUSH1 0x0 SWAP1 DUP2 MSTORE PUSH1 0x20 DUP4 DUP2 MSTORE PUSH1 0x40 DUP1 DUP4 KECCAK256 SWAP1 MLOAD PUSH1 0x1 SWAP3 DUP5 SWAP2 PUSH2 0x682 SWAP2 ADD PUSH2 0x2B4C JUMP JUMPDEST PUSH1 0x1 PUSH1 0x1 PUSH1 0xA0 SHL SUB DUP2 AND PUSH1 0x0 SWAP1 DUP2 MSTORE PUSH1 0x20 DUP4 DUP2 MSTORE PUSH1 0x40 DUP1 DUP4 KECCAK256 SWAP1 MLOAD PUSH1 0x1 SWAP3 DUP5 SWAP2 PUSH2 0x682 SWAP2 ADD PUSH2 0x2C11 JUMP JUMPDEST PUSH1 0x0 PUSH2 0x5C8 DUP3 DUP5 PUSH1 0x4 ADD PUSH1 0x0 PUSH1 0x40 MLOAD PUSH1 0x20 ADD PUSH2 0x623 SWAP1 PUSH2 0x2C44 JUMP JUMPDEST PUSH1 0x0 DUP2 DUP2 MSTORE PUSH1 0x1 DUP4 ADD PUSH1 0x20 MSTORE PUSH1 0x40 DUP2 KECCAK256 SLOAD ISZERO ISZERO PUSH2 0x5C8 JUMP JUMPDEST PUSH1 0x0 PUSH2 0x5C8 DUP4 PUSH1 0x1 PUSH1 0x1 PUSH1 0xA0 SHL SUB DUP5 AND PUSH2 0x286C JUMP JUMPDEST PUSH1 0x0 PUSH2 0x5C8 DUP4 DUP4 JUMPDEST PUSH1 0x0 DUP2 DUP2 MSTORE PUSH1 0x1 DUP4 ADD PUSH1 0x20 MSTORE PUSH1 0x40 DUP2 KECCAK256 SLOAD PUSH2 0x28B3 JUMPI POP DUP2 SLOAD PUSH1 0x1 DUP2 DUP2 ADD DUP5 SSTORE PUSH1 0x0 DUP5 DUP2 MSTORE PUSH1 0x20 DUP1 DUP3 KECCAK256 SWAP1 SWAP4 ADD DUP5 SWAP1 SSTORE DUP5 SLOAD DUP5 DUP3 MSTORE DUP3 DUP7 ADD SWAP1 SWAP4 MSTORE PUSH1 0x40 SWAP1 KECCAK256 SWAP2 SWAP1 SWAP2 SSTORE PUSH2 0x5CB JUMP JUMPDEST POP PUSH1 0x0 PUSH2 0x5CB JUMP JUMPDEST PUSH1 0x0 DUP1 PUSH1 0x40 DUP4 DUP6 SUB SLT ISZERO PUSH2 0x28CE JUMPI PUSH1 0x0 DUP1 REVERT JUMPDEST POP POP DUP1 CALLDATALOAD SWAP3 PUSH1 0x20 SWAP1 SWAP2 ADD CALLDATALOAD SWAP2 POP JUMP JUMPDEST DUP1 CALLDATALOAD PUSH1 0x1 PUSH1 0x1 PUSH1 0xA0 SHL SUB DUP2 AND DUP2 EQ PUSH2 0x28F4 JUMPI PUSH1 0x0 DUP1 REVERT JUMPDEST SWAP2 SWAP1 POP JUMP JUMPDEST PUSH1 0x0 DUP1 PUSH1 0x40 DUP4 DUP6 SUB SLT ISZERO PUSH2 0x290C JUMPI PUSH1 0x0 DUP1 REVERT JUMPDEST DUP3 CALLDATALOAD SWAP2 POP PUSH2 0x291C PUSH1 0x20 DUP5 ADD PUSH2 0x28DD JUMP JUMPDEST SWAP1 POP SWAP3 POP SWAP3 SWAP1 POP JUMP JUMPDEST DUP1 CALLDATALOAD PUSH1 0x1 PUSH1 0x1 PUSH1 0xE0 SHL SUB NOT DUP2 AND DUP2 EQ PUSH2 0x28F4 JUMPI PUSH1 0x0 DUP1 REVERT JUMPDEST PUSH1 0x0 DUP1 PUSH1 0x0 DUP1 PUSH1 0x80 DUP6 DUP8 SUB SLT ISZERO PUSH2 0x2953 JUMPI PUSH1 0x0 DUP1 REVERT JUMPDEST DUP5 CALLDATALOAD SWAP4 POP PUSH1 0x20 DUP6 ADD CALLDATALOAD SWAP3 POP PUSH2 0x296A PUSH1 0x40 DUP7 ADD PUSH2 0x28DD JUMP JUMPDEST SWAP2 POP PUSH2 0x2978 PUSH1 0x60 DUP7 ADD PUSH2 0x2925 JUMP JUMPDEST SWAP1 POP SWAP3 SWAP6 SWAP2 SWAP5 POP SWAP3 POP JUMP JUMPDEST PUSH1 0x0 PUSH1 0x20 DUP1 DUP4 ADD DUP2 DUP5 MSTORE DUP1 DUP6 MLOAD DUP1 DUP4 MSTORE PUSH1 0x40 SWAP3 POP DUP3 DUP7 ADD SWAP2 POP DUP3 DUP2 PUSH1 0x5 SHL DUP8 ADD ADD DUP5 DUP9 ADD PUSH1 0x0 DUP1 JUMPDEST DUP5 DUP2 LT ISZERO PUSH2 0x2A2B JUMPI DUP10 DUP5 SUB PUSH1 0x3F NOT ADD DUP7 MSTORE DUP3 MLOAD DUP1 MLOAD DUP6 MSTORE DUP9 DUP2 ADD MLOAD PUSH1 0x60 DUP11 DUP8 ADD DUP2 SWAP1 MSTORE DUP2 MLOAD SWAP1 DUP8 ADD DUP2 SWAP1 MSTORE PUSH1 0x80 DUP8 ADD SWAP2 DUP12 ADD SWAP1 DUP6 SWAP1 JUMPDEST DUP1 DUP3 LT ISZERO PUSH2 0x2A0B JUMPI DUP3 MLOAD PUSH1 0x1 PUSH1 0x1 PUSH1 0xE0 SHL SUB NOT AND DUP5 MSTORE SWAP3 DUP13 ADD SWAP3 SWAP2 DUP13 ADD SWAP2 PUSH1 0x1 SWAP2 SWAP1 SWAP2 ADD SWAP1 PUSH2 0x29E1 JUMP JUMPDEST POP POP POP SWAP1 DUP9 ADD MLOAD ISZERO ISZERO SWAP5 DUP9 ADD SWAP5 SWAP1 SWAP5 MSTORE SWAP5 DUP8 ADD SWAP5 SWAP2 DUP8 ADD SWAP2 PUSH1 0x1 ADD PUSH2 0x29AB JUMP JUMPDEST POP SWAP2 SWAP10 SWAP9 POP POP POP POP POP POP POP POP POP JUMP JUMPDEST PUSH1 0x0 PUSH1 0x20 DUP3 DUP5 SUB SLT ISZERO PUSH2 0x2A4C JUMPI PUSH1 0x0 DUP1 REVERT JUMPDEST POP CALLDATALOAD SWAP2 SWAP1 POP JUMP JUMPDEST PUSH1 0x0 DUP1 PUSH1 0x0 PUSH1 0x60 DUP5 DUP7 SUB SLT ISZERO PUSH2 0x2A68 JUMPI PUSH1 0x0 DUP1 REVERT JUMPDEST DUP4 CALLDATALOAD SWAP3 POP PUSH1 0x20 DUP5 ADD CALLDATALOAD SWAP2 POP PUSH2 0x2A7F PUSH1 0x40 DUP6 ADD PUSH2 0x2925 JUMP JUMPDEST SWAP1 POP SWAP3 POP SWAP3 POP SWAP3 JUMP JUMPDEST PUSH25 0x4C4956454C595F434F4D4D554E4954595F44414F5F524F4C45 PUSH1 0x38 SHL DUP2 MSTORE PUSH1 0x19 ADD SWAP1 JUMP JUMPDEST PUSH1 0x0 PUSH1 0x20 DUP3 DUP5 SUB SLT ISZERO PUSH2 0x2ABF JUMPI PUSH1 0x0 DUP1 REVERT JUMPDEST DUP2 MLOAD DUP1 ISZERO ISZERO DUP2 EQ PUSH2 0x2ACF JUMPI PUSH1 0x0 DUP1 REVERT JUMPDEST SWAP4 SWAP3 POP POP POP JUMP JUMPDEST PUSH20 0x4C4956454C595F47454E4552414C5F5245414C4D PUSH1 0x60 SHL DUP2 MSTORE PUSH1 0x14 ADD SWAP1 JUMP JUMPDEST PUSH16 0x4C4956454C595F44414F5F47524F555 PUSH1 0x84 SHL DUP2 MSTORE PUSH1 0x10 ADD SWAP1 JUMP JUMPDEST PUSH4 0x4E487B71 PUSH1 0xE0 SHL PUSH1 0x0 MSTORE PUSH1 0x21 PUSH1 0x4 MSTORE PUSH1 0x24 PUSH1 0x0 REVERT JUMPDEST PUSH24 0x4C4956454C595F53595354454D5F41444D494E5F524F4C45 PUSH1 0x40 SHL DUP2 MSTORE PUSH1 0x18 ADD SWAP1 JUMP JUMPDEST PUSH23 0x4C4956454C595F41535345545F41444D494E5F524F4C45 PUSH1 0x48 SHL DUP2 MSTORE PUSH1 0x17 ADD SWAP1 JUMP JUMPDEST PUSH1 0x1 DUP2 DUP2 SHR SWAP1 DUP3 AND DUP1 PUSH2 0x2B83 JUMPI PUSH1 0x7F DUP3 AND SWAP2 POP JUMPDEST PUSH1 0x20 DUP3 LT DUP2 SUB PUSH2 0x2BA3 JUMPI PUSH4 0x4E487B71 PUSH1 0xE0 SHL PUSH1 0x0 MSTORE PUSH1 0x22 PUSH1 0x4 MSTORE PUSH1 0x24 PUSH1 0x0 REVERT JUMPDEST POP SWAP2 SWAP1 POP JUMP JUMPDEST PUSH18 0x4C4956454C595F41535345545F47524F555 PUSH1 0x74 SHL DUP2 MSTORE PUSH1 0x12 ADD SWAP1 JUMP JUMPDEST PUSH32 0x4C4956454C595F434F4D4D554E4954595F44414F5F4558454355544F525F524F DUP2 MSTORE PUSH2 0x4C45 PUSH1 0xF0 SHL PUSH1 0x20 DUP3 ADD MSTORE PUSH1 0x22 ADD SWAP1 JUMP JUMPDEST PUSH4 0x4E487B71 PUSH1 0xE0 SHL PUSH1 0x0 MSTORE PUSH1 0x41 PUSH1 0x4 MSTORE PUSH1 0x24 PUSH1 0x0 REVERT JUMPDEST PUSH17 0x4C4956454C595F41444D494E5F524F4C45 PUSH1 0x78 SHL DUP2 MSTORE PUSH1 0x11 ADD SWAP1 JUMP JUMPDEST PUSH4 0x4E487B71 PUSH1 0xE0 SHL PUSH1 0x0 MSTORE PUSH1 0x32 PUSH1 0x4 MSTORE PUSH1 0x24 PUSH1 0x0 REVERT JUMPDEST PUSH20 0x4C4956454C595F47454E4552414C5F47524F555 PUSH1 0x64 SHL DUP2 MSTORE PUSH1 0x14 ADD SWAP1 JUMP JUMPDEST PUSH1 0x1F DUP3 GT ISZERO PUSH2 0x2CAE JUMPI PUSH1 0x0 DUP2 DUP2 MSTORE PUSH1 0x20 DUP2 KECCAK256 PUSH1 0x1F DUP6 ADD PUSH1 0x5 SHR DUP2 ADD PUSH1 0x20 DUP7 LT ISZERO PUSH2 0x2C8B JUMPI POP DUP1 JUMPDEST PUSH1 0x1F DUP6 ADD PUSH1 0x5 SHR DUP3 ADD SWAP2 POP JUMPDEST DUP2 DUP2 LT ISZERO PUSH2 0x2CAA JUMPI DUP3 DUP2 SSTORE PUSH1 0x1 ADD PUSH2 0x2C97 JUMP JUMPDEST POP POP POP JUMPDEST POP POP POP JUMP JUMPDEST DUP2 MLOAD PUSH8 0xFFFFFFFFFFFFFFFF DUP2 GT ISZERO PUSH2 0x2CCD JUMPI PUSH2 0x2CCD PUSH2 0x2BFB JUMP JUMPDEST PUSH2 0x2CE1 DUP2 PUSH2 0x2CDB DUP5 SLOAD PUSH2 0x2B6F JUMP JUMPDEST DUP5 PUSH2 0x2C64 JUMP JUMPDEST PUSH1 0x20 DUP1 PUSH1 0x1F DUP4 GT PUSH1 0x1 DUP2 EQ PUSH2 0x2D16 JUMPI PUSH1 0x0 DUP5 ISZERO PUSH2 0x2CFE JUMPI POP DUP6 DUP4 ADD MLOAD JUMPDEST PUSH1 0x0 NOT PUSH1 0x3 DUP7 SWAP1 SHL SHR NOT AND PUSH1 0x1 DUP6 SWAP1 SHL OR DUP6 SSTORE PUSH2 0x2CAA JUMP JUMPDEST PUSH1 0x0 DUP6 DUP2 MSTORE PUSH1 0x20 DUP2 KECCAK256 PUSH1 0x1F NOT DUP7 AND SWAP2 JUMPDEST DUP3 DUP2 LT ISZERO PUSH2 0x2D45 JUMPI DUP9 DUP7 ADD MLOAD DUP3 SSTORE SWAP5 DUP5 ADD SWAP5 PUSH1 0x1 SWAP1 SWAP2 ADD SWAP1 DUP5 ADD PUSH2 0x2D26 JUMP JUMPDEST POP DUP6 DUP3 LT ISZERO PUSH2 0x2D63 JUMPI DUP8 DUP6 ADD MLOAD PUSH1 0x0 NOT PUSH1 0x3 DUP9 SWAP1 SHL PUSH1 0xF8 AND SHR NOT AND DUP2 SSTORE JUMPDEST POP POP POP POP POP PUSH1 0x1 SWAP1 DUP2 SHL ADD SWAP1 SSTORE POP JUMP JUMPDEST PUSH25 0x4C4956454C595F41535345545F4D414E414745525F524F4C45 PUSH1 0x38 SHL DUP2 MSTORE PUSH1 0x19 ADD SWAP1 JUMP INVALID 0x4C 0x49 JUMP GASLIMIT 0x4C MSIZE 0x5F NUMBER 0x4F 0x4D 0x4D SSTORE 0x4E 0x49 SLOAD MSIZE 0x5F DIFFICULTY COINBASE 0x4F 0x5F GASLIMIT PC GASLIMIT NUMBER SSTORE SLOAD 0x4F MSTORE 0x5F MSTORE 0x4F 0x4C GASLIMIT LOG2 PUSH5 0x6970667358 0x22 SLT KECCAK256 0xF6 DUP10 0xC0 OR SSTORE DIV 0xC7 PUSH4 0x1BCB0736 SELFBALANCE PUSH14 0x44AEE9784562301F1993B9F319BD SWAP15 0x27 CHAINID DUP11 PUSH5 0x736F6C6343 STOP ADDMOD GT STOP CALLER "
    },
    "gasEstimates": {
      "creation": {
        "codeDepositCost": "2352000",
        "executionCost": "2554",
        "totalCost": "2354554"
      },
      "external": {
        "LIB_NAME()": "448",
        "LIB_VERSION()": "428",
        "LIVELY_ADMIN_ROLE()": "466",
        "LIVELY_ANONYMOUS_ROLE()": "405",
        "LIVELY_ASSET_ADMIN_ROLE()": "423",
        "LIVELY_ASSET_GROUP()": "467",
        "LIVELY_ASSET_MANAGER_ROLE()": "378",
        "LIVELY_ASSET_REALM()": "360",
        "LIVELY_COMMUNITY_DAO_EXECUTOR_ROLE()": "468",
        "LIVELY_COMMUNITY_DAO_ROLE()": "380",
        "LIVELY_DAO_GROUP()": "468",
        "LIVELY_GENERAL_GROUP()": "444",
        "LIVELY_GENERAL_REALM()": "424",
        "LIVELY_SYSTEM_ADMIN_ROLE()": "423",
        "createRequestContext()": "infinite",
        "hasAccess(AccessControlStorage.DataCollections storage,bytes32,address,bytes4)": "infinite",
        "initializeContext(AccessControlStorage.DataCollections storage)": "infinite",
        "isContextEnabled(AccessControlStorage.DataCollections storage,bytes32)": "4860",
        "isContextExists(AccessControlStorage.DataCollections storage,bytes32)": "2533",
        "isContextFunctionEnabled(AccessControlStorage.DataCollections storage,bytes32,bytes4)": "5031",
        "isContextFunctionExists(AccessControlStorage.DataCollections storage,bytes32,bytes4)": "5067",
        "isContextSafeMode(AccessControlStorage.DataCollections storage,bytes32)": "infinite",
        "isContextUpgradable(AccessControlStorage.DataCollections storage,bytes32)": "infinite",
        "isGroupEnabled(AccessControlStorage.DataCollections storage,bytes32)": "4935",
        "isGroupExists(AccessControlStorage.DataCollections storage,bytes32)": "2708",
        "isLivelyAdminRole(AccessControlStorage.DataCollections storage,address)": "2999",
        "isLivelyAssetAdminRole(AccessControlStorage.DataCollections storage,address)": "2977",
        "isLivelyAssetGroup(AccessControlStorage.DataCollections storage,bytes32)": "infinite",
        "isLivelyAssetManagerRole(AccessControlStorage.DataCollections storage,address)": "2934",
        "isLivelyAssetRealm(AccessControlStorage.DataCollections storage,bytes32)": "infinite",
        "isLivelyCommunityDaoExecutorRole(AccessControlStorage.DataCollections storage,address)": "3025",
        "isLivelyCommunityDaoRole(AccessControlStorage.DataCollections storage,address)": "3000",
        "isLivelyDaoGroup(AccessControlStorage.DataCollections storage,bytes32)": "infinite",
        "isLivelyGeneralGroup(AccessControlStorage.DataCollections storage,bytes32)": "infinite",
        "isLivelyGeneralRealm(AccessControlStorage.DataCollections storage,bytes32)": "infinite",
        "isLivelySystemAdminRole(AccessControlStorage.DataCollections storage,address)": "2935",
        "isRealmEnabled(AccessControlStorage.DataCollections storage,bytes32)": "4891",
        "isRealmExists(AccessControlStorage.DataCollections storage,bytes32)": "2731",
        "isRealmUpgradable(AccessControlStorage.DataCollections storage,bytes32)": "4910",
        "isRoleEnabled(AccessControlStorage.DataCollections storage,bytes32)": "4890",
        "isRoleExists(AccessControlStorage.DataCollections storage,bytes32)": "2671"
      }
    },
    "methodIdentifiers": {
      "LIB_NAME()": "bec94751",
      "LIB_VERSION()": "2466209b",
      "LIVELY_ADMIN_ROLE()": "d8b31999",
      "LIVELY_ANONYMOUS_ROLE()": "9bb20d51",
      "LIVELY_ASSET_ADMIN_ROLE()": "36206f04",
      "LIVELY_ASSET_GROUP()": "4c95d60d",
      "LIVELY_ASSET_MANAGER_ROLE()": "a6196757",
      "LIVELY_ASSET_REALM()": "5f6cef3c",
      "LIVELY_COMMUNITY_DAO_EXECUTOR_ROLE()": "b899699c",
      "LIVELY_COMMUNITY_DAO_ROLE()": "108f5bdc",
      "LIVELY_DAO_GROUP()": "2d8bc9cb",
      "LIVELY_GENERAL_GROUP()": "6ac58ac1",
      "LIVELY_GENERAL_REALM()": "20dd27af",
      "LIVELY_SYSTEM_ADMIN_ROLE()": "5632ffd8",
      "createRequestContext()": "62f3c2d4",
      "hasAccess(AccessControlStorage.DataCollections storage,bytes32,address,bytes4)": "513d425a",
      "initializeContext(AccessControlStorage.DataCollections storage)": "9fa79bf8",
      "isContextEnabled(AccessControlStorage.DataCollections storage,bytes32)": "a5f1e2fe",
      "isContextExists(AccessControlStorage.DataCollections storage,bytes32)": "87d8e2b0",
      "isContextFunctionEnabled(AccessControlStorage.DataCollections storage,bytes32,bytes4)": "dd15702c",
      "isContextFunctionExists(AccessControlStorage.DataCollections storage,bytes32,bytes4)": "e99b513a",
      "isContextSafeMode(AccessControlStorage.DataCollections storage,bytes32)": "16b714ad",
      "isContextUpgradable(AccessControlStorage.DataCollections storage,bytes32)": "c0a8ca0c",
      "isGroupEnabled(AccessControlStorage.DataCollections storage,bytes32)": "5a96334b",
      "isGroupExists(AccessControlStorage.DataCollections storage,bytes32)": "cc6c3268",
      "isLivelyAdminRole(AccessControlStorage.DataCollections storage,address)": "efec2d5e",
      "isLivelyAssetAdminRole(AccessControlStorage.DataCollections storage,address)": "e9cfb672",
      "isLivelyAssetGroup(AccessControlStorage.DataCollections storage,bytes32)": "6787ad51",
      "isLivelyAssetManagerRole(AccessControlStorage.DataCollections storage,address)": "afb92706",
      "isLivelyAssetRealm(AccessControlStorage.DataCollections storage,bytes32)": "ce34a66d",
      "isLivelyCommunityDaoExecutorRole(AccessControlStorage.DataCollections storage,address)": "5b8ba898",
      "isLivelyCommunityDaoRole(AccessControlStorage.DataCollections storage,address)": "85de3336",
      "isLivelyDaoGroup(AccessControlStorage.DataCollections storage,bytes32)": "d98ef622",
      "isLivelyGeneralGroup(AccessControlStorage.DataCollections storage,bytes32)": "f0984ee6",
      "isLivelyGeneralRealm(AccessControlStorage.DataCollections storage,bytes32)": "3167d0c4",
      "isLivelySystemAdminRole(AccessControlStorage.DataCollections storage,address)": "337cd188",
      "isRealmEnabled(AccessControlStorage.DataCollections storage,bytes32)": "89b5a834",
      "isRealmExists(AccessControlStorage.DataCollections storage,bytes32)": "37f4c930",
      "isRealmUpgradable(AccessControlStorage.DataCollections storage,bytes32)": "b019d53a",
      "isRoleEnabled(AccessControlStorage.DataCollections storage,bytes32)": "cb4a1bb7",
      "isRoleExists(AccessControlStorage.DataCollections storage,bytes32)": "4df89d6f"
    }
  },
  "storageLayout": {
    "storage": [],
    "types": null
  },
  "userdoc": {
    "kind": "user",
    "methods": {},
    "version": 1
  }
}