{
  "contractName": "ACLProxy",
  "sourceName": "src/contracts/acl/ACLProxy.sol",
  "abi": [
    {
      "inputs": [
        {
          "internalType": "address",
          "name": "logic",
          "type": "address"
        },
        {
          "internalType": "bytes",
          "name": "data",
          "type": "bytes"
        }
      ],
      "stateMutability": "payable",
      "type": "constructor"
    },
    {
      "anonymous": false,
      "inputs": [
        {
          "indexed": true,
          "internalType": "address",
          "name": "sender",
          "type": "address"
        },
        {
          "indexed": true,
          "internalType": "bytes32",
          "name": "agentId",
          "type": "bytes32"
        },
        {
          "indexed": true,
          "internalType": "bytes32",
          "name": "policyId",
          "type": "bytes32"
        },
        {
          "indexed": false,
          "internalType": "enum IACLCommons.ActionType",
          "name": "action",
          "type": "uint8"
        }
      ],
      "name": "AgentReferredByPolicyUpdated",
      "type": "event"
    },
    {
      "anonymous": false,
      "inputs": [
        {
          "indexed": true,
          "internalType": "address",
          "name": "sender",
          "type": "address"
        },
        {
          "indexed": true,
          "internalType": "bytes32",
          "name": "agentId",
          "type": "bytes32"
        },
        {
          "indexed": true,
          "internalType": "bytes32",
          "name": "scopeId",
          "type": "bytes32"
        },
        {
          "indexed": false,
          "internalType": "enum IACLCommons.ActionType",
          "name": "action",
          "type": "uint8"
        }
      ],
      "name": "AgentReferredByScopeUpdated",
      "type": "event"
    },
    {
      "anonymous": false,
      "inputs": [
        {
          "indexed": true,
          "internalType": "address",
          "name": "sender",
          "type": "address"
        },
        {
          "indexed": true,
          "internalType": "address",
          "name": "proxy",
          "type": "address"
        },
        {
          "indexed": true,
          "internalType": "address",
          "name": "newImplementation",
          "type": "address"
        }
      ],
      "name": "ProxyUpgraded",
      "type": "event"
    },
    {
      "anonymous": false,
      "inputs": [
        {
          "indexed": true,
          "internalType": "address",
          "name": "sender",
          "type": "address"
        },
        {
          "indexed": true,
          "internalType": "bytes32",
          "name": "scopeId",
          "type": "bytes32"
        },
        {
          "indexed": true,
          "internalType": "bytes32",
          "name": "agentId",
          "type": "bytes32"
        },
        {
          "indexed": false,
          "internalType": "enum IACLCommons.ActionType",
          "name": "action",
          "type": "uint8"
        }
      ],
      "name": "ScopeReferredByAgentUpdated",
      "type": "event"
    },
    {
      "anonymous": false,
      "inputs": [
        {
          "indexed": true,
          "internalType": "address",
          "name": "sender",
          "type": "address"
        },
        {
          "indexed": true,
          "internalType": "bytes32",
          "name": "scopeId",
          "type": "bytes32"
        },
        {
          "indexed": true,
          "internalType": "bytes32",
          "name": "policyId",
          "type": "bytes32"
        },
        {
          "indexed": false,
          "internalType": "enum IACLCommons.ActionType",
          "name": "action",
          "type": "uint8"
        }
      ],
      "name": "ScopeReferredByPolicyUpdated",
      "type": "event"
    },
    {
      "stateMutability": "payable",
      "type": "fallback"
    },
    {
      "inputs": [],
      "name": "CTX_MESSAGE_TYPEHASH",
      "outputs": [
        {
          "internalType": "bytes32",
          "name": "",
          "type": "bytes32"
        }
      ],
      "stateMutability": "view",
      "type": "function"
    },
    {
      "inputs": [],
      "name": "FUNCTION_MESSAGE_TYPEHASH",
      "outputs": [
        {
          "internalType": "bytes32",
          "name": "",
          "type": "bytes32"
        }
      ],
      "stateMutability": "view",
      "type": "function"
    },
    {
      "inputs": [],
      "name": "PREDICT_CTX_MESSAGE_TYPEHASH",
      "outputs": [
        {
          "internalType": "bytes32",
          "name": "",
          "type": "bytes32"
        }
      ],
      "stateMutability": "view",
      "type": "function"
    },
    {
      "inputs": [],
      "name": "TYPE_HASH",
      "outputs": [
        {
          "internalType": "bytes32",
          "name": "",
          "type": "bytes32"
        }
      ],
      "stateMutability": "view",
      "type": "function"
    },
    {
      "stateMutability": "payable",
      "type": "receive"
    }
  ],
  "bytecode": "0x60a060408190523060805262000c6138819003908190833981016040819052620000299162000678565b6200005660017f360894a13ba1a3210667c828492db98dca3e2076cc3735a920a3ca505d382bbd62000753565b60008051602062000c418339815191521462000076576200007662000775565b620000a360017fb53127684a568b3173ae13b9f8a6016e243e63b6e8ee1178d6a717850b5d610462000753565b60008051602062000c2183398151915214620000c357620000c362000775565b33620000ec60008051602062000c2183398151915260001b6200013460201b620001bd1760201c565b80546001600160a01b0319166001600160a01b03929092169190911790556002805460ff60a01b1916600160a11b1790556200012b8282600062000137565b5050506200081c565b90565b6060620001727f4910fdfa16fed3260ed0e7147f7cc6da11a60208b5b9406d12a635614ffd914360001b6200013460201b620001bd1760201c565b5460ff16156200019d5762000187846200038c565b5060408051600081526020810190915262000385565b836001600160a01b03166352d1902d6040518163ffffffff1660e01b8152600401602060405180830381865afa925050508015620001fa575060408051601f3d908101601f19168201909252620001f7918101906200078b565b60015b6200023b5760405162461bcd60e51b815260206004820152600c60248201526b496c6c6567616c205555505360a01b60448201526064015b60405180910390fd5b60008051602062000c4183398151915281146200028a5760405162461bcd60e51b815260206004820152600c60248201526b496e76616c6964205555505360a01b604482015260640162000232565b506040516301ffc9a760e01b81526327d8f1fd60e21b60048201526001600160a01b038516906301ffc9a790602401602060405180830381865afa925050508015620002f5575060408051601f3d908101601f19168201909252620002f291810190620007a5565b60015b620003345760405162461bcd60e51b815260206004820152600e60248201526d496c6c6567616c204950726f787960901b604482015260640162000232565b80620003745760405162461bcd60e51b815260206004820152600e60248201526d496e76616c6964204950726f787960901b604482015260640162000232565b5062000382848484620003d6565b90505b9392505050565b80620003b560008051602062000c4183398151915260001b6200013460201b620001bd1760201c565b80546001600160a01b0319166001600160a01b039290921691909117905550565b6060620003e38462000425565b600083511180620003f15750815b156200040e576200038284846200047760201b620001c01760201c565b505060408051600081526020810190915292915050565b62000430816200038c565b6200043a620004ca565b6040516001600160a01b039190911690309033907f8ee0f2bd29c0e6a975c3cc2e47cf2e01b5f23a9a8a02e0ed6a5a070269de3d2d90600090a450565b6060620004c183836040518060400160405280601481526020017f44656c65676174652043616c6c204661696c65640000000000000000000000008152506200050360201b60201c565b90505b92915050565b6000620004f460008051602062000c4183398151915260001b6200013460201b620001bd1760201c565b546001600160a01b0316919050565b60606200051b84620005ef60201b620002001760201c565b620005695760405162461bcd60e51b815260206004820152601860248201527f496c6c6567616c20436f6e747261637420416464726573730000000000000000604482015260640162000232565b600080856001600160a01b031685604051620005869190620007c9565b600060405180830381855af49150503d8060008114620005c3576040519150601f19603f3d011682016040523d82523d6000602084013e620005c8565b606091505b5091509150620005e5828286620005fe60201b6200020f1760201c565b9695505050505050565b6001600160a01b03163b151590565b606083156200060f57508162000385565b825115620006205782518084602001fd5b8160405162461bcd60e51b8152600401620002329190620007e7565b634e487b7160e01b600052604160045260246000fd5b60005b838110156200066f57818101518382015260200162000655565b50506000910152565b600080604083850312156200068c57600080fd5b82516001600160a01b0381168114620006a457600080fd5b60208401519092506001600160401b0380821115620006c257600080fd5b818501915085601f830112620006d757600080fd5b815181811115620006ec57620006ec6200063c565b604051601f8201601f19908116603f011681019083821181831017156200071757620007176200063c565b816040528281528860208487010111156200073157600080fd5b6200074483602083016020880162000652565b80955050505050509250929050565b81810381811115620004c457634e487b7160e01b600052601160045260246000fd5b634e487b7160e01b600052600160045260246000fd5b6000602082840312156200079e57600080fd5b5051919050565b600060208284031215620007b857600080fd5b815180151581146200038557600080fd5b60008251620007dd81846020870162000652565b9190910192915050565b60208152600082518060208401526200080881604085016020870162000652565b601f01601f19169190910160400192915050565b6080516103ec62000835600039600050506103ec6000f3fe6080604052600436106100435760003560e01c806334109de21461005a57806364d4c819146100a0578063f0b15def146100d4578063f33b6d481461010857610052565b366100525761005061013c565b005b61005061013c565b34801561006657600080fd5b5061008e7f7aabe2571874f2a330ea11c8972d9cc3792d973efc6b36e3e29005861a34418881565b60405190815260200160405180910390f35b3480156100ac57600080fd5b5061008e7f8b73c3c69bb8fe3d512ecc4cf759cc79239f7b179b0ffacaa9a75d522b39400f81565b3480156100e057600080fd5b5061008e7ffc434588684348dd50856b075c47bed14245c1030aa04c32955af5549981462781565b34801561011457600080fd5b5061008e7f31238da5536ef05686d34ccf0de000a4926293566b3711f6e73963b73ad026fe81565b600080356001600160e01b0319168152604860209081526040808320546001600160a01b039081168085526049909352922054909116816101b4576101b06101ab7f360894a13ba1a3210667c828492db98dca3e2076cc3735a920a3ca505d382bbc546001600160a01b031690565b610251565b5050565b6101b081610251565b90565b60606101f983836040518060400160405280601481526020017311195b1959d85d194810d85b1b0811985a5b195960621b815250610275565b9392505050565b6001600160a01b03163b151590565b6060831561021e5750816101f9565b82511561022e5782518084602001fd5b8160405162461bcd60e51b81526004016102489190610367565b60405180910390fd5b3660008037600080366000845af43d6000803e808015610270573d6000f35b3d6000fd5b60606001600160a01b0384163b6102ce5760405162461bcd60e51b815260206004820152601860248201527f496c6c6567616c20436f6e7472616374204164647265737300000000000000006044820152606401610248565b600080856001600160a01b0316856040516102e9919061039a565b600060405180830381855af49150503d8060008114610324576040519150601f19603f3d011682016040523d82523d6000602084013e610329565b606091505b509150915061033982828661020f565b9695505050505050565b60005b8381101561035e578181015183820152602001610346565b50506000910152565b6020815260008251806020840152610386816040850160208701610343565b601f01601f19169190910160400192915050565b600082516103ac818460208701610343565b919091019291505056fea264697066735822122068b1d6904d6c1aea94a3e70913cbb264e390906d52cea346b03e4899cb00665464736f6c63430008110033b53127684a568b3173ae13b9f8a6016e243e63b6e8ee1178d6a717850b5d6103360894a13ba1a3210667c828492db98dca3e2076cc3735a920a3ca505d382bbc",
  "linkReferences": {},
  "deployedLinkReferences": {},
  "devdoc": {
    "author": "Sina Tadayon, https://github.com/SinaTadayon",
    "kind": "dev",
    "methods": {
      "constructor": {
        "details": "Initializes the upgradeable proxy with an initial implementation specified by `_logic`. If `_data` is nonempty, it's used as data in a delegate call to `_logic`. This will typically be an encoded function call, and allows initializing the storage of the proxy like a Solidity constructor."
      }
    },
    "title": "Proxy Contract",
    "version": 1
  },
  "evm": {
    "bytecode": {
      "linkReferences": {},
      "opcodes": "PUSH1 0xA0 PUSH1 0x40 DUP2 SWAP1 MSTORE ADDRESS PUSH1 0x80 MSTORE PUSH3 0xC61 CODESIZE DUP2 SWAP1 SUB SWAP1 DUP2 SWAP1 DUP4 CODECOPY DUP2 ADD PUSH1 0x40 DUP2 SWAP1 MSTORE PUSH3 0x29 SWAP2 PUSH3 0x678 JUMP JUMPDEST PUSH3 0x56 PUSH1 0x1 PUSH32 0x360894A13BA1A3210667C828492DB98DCA3E2076CC3735A920A3CA505D382BBD PUSH3 0x753 JUMP JUMPDEST PUSH1 0x0 DUP1 MLOAD PUSH1 0x20 PUSH3 0xC41 DUP4 CODECOPY DUP2 MLOAD SWAP2 MSTORE EQ PUSH3 0x76 JUMPI PUSH3 0x76 PUSH3 0x775 JUMP JUMPDEST PUSH3 0xA3 PUSH1 0x1 PUSH32 0xB53127684A568B3173AE13B9F8A6016E243E63B6E8EE1178D6A717850B5D6104 PUSH3 0x753 JUMP JUMPDEST PUSH1 0x0 DUP1 MLOAD PUSH1 0x20 PUSH3 0xC21 DUP4 CODECOPY DUP2 MLOAD SWAP2 MSTORE EQ PUSH3 0xC3 JUMPI PUSH3 0xC3 PUSH3 0x775 JUMP JUMPDEST CALLER PUSH3 0xEC PUSH1 0x0 DUP1 MLOAD PUSH1 0x20 PUSH3 0xC21 DUP4 CODECOPY DUP2 MLOAD SWAP2 MSTORE PUSH1 0x0 SHL PUSH3 0x134 PUSH1 0x20 SHL PUSH3 0x1BD OR PUSH1 0x20 SHR JUMP JUMPDEST DUP1 SLOAD PUSH1 0x1 PUSH1 0x1 PUSH1 0xA0 SHL SUB NOT AND PUSH1 0x1 PUSH1 0x1 PUSH1 0xA0 SHL SUB SWAP3 SWAP1 SWAP3 AND SWAP2 SWAP1 SWAP2 OR SWAP1 SSTORE PUSH1 0x2 DUP1 SLOAD PUSH1 0xFF PUSH1 0xA0 SHL NOT AND PUSH1 0x1 PUSH1 0xA1 SHL OR SWAP1 SSTORE PUSH3 0x12B DUP3 DUP3 PUSH1 0x0 PUSH3 0x137 JUMP JUMPDEST POP POP POP PUSH3 0x81C JUMP JUMPDEST SWAP1 JUMP JUMPDEST PUSH1 0x60 PUSH3 0x172 PUSH32 0x4910FDFA16FED3260ED0E7147F7CC6DA11A60208B5B9406D12A635614FFD9143 PUSH1 0x0 SHL PUSH3 0x134 PUSH1 0x20 SHL PUSH3 0x1BD OR PUSH1 0x20 SHR JUMP JUMPDEST SLOAD PUSH1 0xFF AND ISZERO PUSH3 0x19D JUMPI PUSH3 0x187 DUP5 PUSH3 0x38C JUMP JUMPDEST POP PUSH1 0x40 DUP1 MLOAD PUSH1 0x0 DUP2 MSTORE PUSH1 0x20 DUP2 ADD SWAP1 SWAP2 MSTORE PUSH3 0x385 JUMP JUMPDEST DUP4 PUSH1 0x1 PUSH1 0x1 PUSH1 0xA0 SHL SUB AND PUSH4 0x52D1902D PUSH1 0x40 MLOAD DUP2 PUSH4 0xFFFFFFFF AND PUSH1 0xE0 SHL DUP2 MSTORE PUSH1 0x4 ADD PUSH1 0x20 PUSH1 0x40 MLOAD DUP1 DUP4 SUB DUP2 DUP7 GAS STATICCALL SWAP3 POP POP POP DUP1 ISZERO PUSH3 0x1FA JUMPI POP PUSH1 0x40 DUP1 MLOAD PUSH1 0x1F RETURNDATASIZE SWAP1 DUP2 ADD PUSH1 0x1F NOT AND DUP3 ADD SWAP1 SWAP3 MSTORE PUSH3 0x1F7 SWAP2 DUP2 ADD SWAP1 PUSH3 0x78B JUMP JUMPDEST PUSH1 0x1 JUMPDEST PUSH3 0x23B JUMPI PUSH1 0x40 MLOAD PUSH3 0x461BCD PUSH1 0xE5 SHL DUP2 MSTORE PUSH1 0x20 PUSH1 0x4 DUP3 ADD MSTORE PUSH1 0xC PUSH1 0x24 DUP3 ADD MSTORE PUSH12 0x496C6C6567616C2055555053 PUSH1 0xA0 SHL PUSH1 0x44 DUP3 ADD MSTORE PUSH1 0x64 ADD JUMPDEST PUSH1 0x40 MLOAD DUP1 SWAP2 SUB SWAP1 REVERT JUMPDEST PUSH1 0x0 DUP1 MLOAD PUSH1 0x20 PUSH3 0xC41 DUP4 CODECOPY DUP2 MLOAD SWAP2 MSTORE DUP2 EQ PUSH3 0x28A JUMPI PUSH1 0x40 MLOAD PUSH3 0x461BCD PUSH1 0xE5 SHL DUP2 MSTORE PUSH1 0x20 PUSH1 0x4 DUP3 ADD MSTORE PUSH1 0xC PUSH1 0x24 DUP3 ADD MSTORE PUSH12 0x496E76616C69642055555053 PUSH1 0xA0 SHL PUSH1 0x44 DUP3 ADD MSTORE PUSH1 0x64 ADD PUSH3 0x232 JUMP JUMPDEST POP PUSH1 0x40 MLOAD PUSH4 0x1FFC9A7 PUSH1 0xE0 SHL DUP2 MSTORE PUSH4 0x27D8F1FD PUSH1 0xE2 SHL PUSH1 0x4 DUP3 ADD MSTORE PUSH1 0x1 PUSH1 0x1 PUSH1 0xA0 SHL SUB DUP6 AND SWAP1 PUSH4 0x1FFC9A7 SWAP1 PUSH1 0x24 ADD PUSH1 0x20 PUSH1 0x40 MLOAD DUP1 DUP4 SUB DUP2 DUP7 GAS STATICCALL SWAP3 POP POP POP DUP1 ISZERO PUSH3 0x2F5 JUMPI POP PUSH1 0x40 DUP1 MLOAD PUSH1 0x1F RETURNDATASIZE SWAP1 DUP2 ADD PUSH1 0x1F NOT AND DUP3 ADD SWAP1 SWAP3 MSTORE PUSH3 0x2F2 SWAP2 DUP2 ADD SWAP1 PUSH3 0x7A5 JUMP JUMPDEST PUSH1 0x1 JUMPDEST PUSH3 0x334 JUMPI PUSH1 0x40 MLOAD PUSH3 0x461BCD PUSH1 0xE5 SHL DUP2 MSTORE PUSH1 0x20 PUSH1 0x4 DUP3 ADD MSTORE PUSH1 0xE PUSH1 0x24 DUP3 ADD MSTORE PUSH14 0x496C6C6567616C204950726F7879 PUSH1 0x90 SHL PUSH1 0x44 DUP3 ADD MSTORE PUSH1 0x64 ADD PUSH3 0x232 JUMP JUMPDEST DUP1 PUSH3 0x374 JUMPI PUSH1 0x40 MLOAD PUSH3 0x461BCD PUSH1 0xE5 SHL DUP2 MSTORE PUSH1 0x20 PUSH1 0x4 DUP3 ADD MSTORE PUSH1 0xE PUSH1 0x24 DUP3 ADD MSTORE PUSH14 0x496E76616C6964204950726F7879 PUSH1 0x90 SHL PUSH1 0x44 DUP3 ADD MSTORE PUSH1 0x64 ADD PUSH3 0x232 JUMP JUMPDEST POP PUSH3 0x382 DUP5 DUP5 DUP5 PUSH3 0x3D6 JUMP JUMPDEST SWAP1 POP JUMPDEST SWAP4 SWAP3 POP POP POP JUMP JUMPDEST DUP1 PUSH3 0x3B5 PUSH1 0x0 DUP1 MLOAD PUSH1 0x20 PUSH3 0xC41 DUP4 CODECOPY DUP2 MLOAD SWAP2 MSTORE PUSH1 0x0 SHL PUSH3 0x134 PUSH1 0x20 SHL PUSH3 0x1BD OR PUSH1 0x20 SHR JUMP JUMPDEST DUP1 SLOAD PUSH1 0x1 PUSH1 0x1 PUSH1 0xA0 SHL SUB NOT AND PUSH1 0x1 PUSH1 0x1 PUSH1 0xA0 SHL SUB SWAP3 SWAP1 SWAP3 AND SWAP2 SWAP1 SWAP2 OR SWAP1 SSTORE POP JUMP JUMPDEST PUSH1 0x60 PUSH3 0x3E3 DUP5 PUSH3 0x425 JUMP JUMPDEST PUSH1 0x0 DUP4 MLOAD GT DUP1 PUSH3 0x3F1 JUMPI POP DUP2 JUMPDEST ISZERO PUSH3 0x40E JUMPI PUSH3 0x382 DUP5 DUP5 PUSH3 0x477 PUSH1 0x20 SHL PUSH3 0x1C0 OR PUSH1 0x20 SHR JUMP JUMPDEST POP POP PUSH1 0x40 DUP1 MLOAD PUSH1 0x0 DUP2 MSTORE PUSH1 0x20 DUP2 ADD SWAP1 SWAP2 MSTORE SWAP3 SWAP2 POP POP JUMP JUMPDEST PUSH3 0x430 DUP2 PUSH3 0x38C JUMP JUMPDEST PUSH3 0x43A PUSH3 0x4CA JUMP JUMPDEST PUSH1 0x40 MLOAD PUSH1 0x1 PUSH1 0x1 PUSH1 0xA0 SHL SUB SWAP2 SWAP1 SWAP2 AND SWAP1 ADDRESS SWAP1 CALLER SWAP1 PUSH32 0x8EE0F2BD29C0E6A975C3CC2E47CF2E01B5F23A9A8A02E0ED6A5A070269DE3D2D SWAP1 PUSH1 0x0 SWAP1 LOG4 POP JUMP JUMPDEST PUSH1 0x60 PUSH3 0x4C1 DUP4 DUP4 PUSH1 0x40 MLOAD DUP1 PUSH1 0x40 ADD PUSH1 0x40 MSTORE DUP1 PUSH1 0x14 DUP2 MSTORE PUSH1 0x20 ADD PUSH32 0x44656C65676174652043616C6C204661696C6564000000000000000000000000 DUP2 MSTORE POP PUSH3 0x503 PUSH1 0x20 SHL PUSH1 0x20 SHR JUMP JUMPDEST SWAP1 POP JUMPDEST SWAP3 SWAP2 POP POP JUMP JUMPDEST PUSH1 0x0 PUSH3 0x4F4 PUSH1 0x0 DUP1 MLOAD PUSH1 0x20 PUSH3 0xC41 DUP4 CODECOPY DUP2 MLOAD SWAP2 MSTORE PUSH1 0x0 SHL PUSH3 0x134 PUSH1 0x20 SHL PUSH3 0x1BD OR PUSH1 0x20 SHR JUMP JUMPDEST SLOAD PUSH1 0x1 PUSH1 0x1 PUSH1 0xA0 SHL SUB AND SWAP2 SWAP1 POP JUMP JUMPDEST PUSH1 0x60 PUSH3 0x51B DUP5 PUSH3 0x5EF PUSH1 0x20 SHL PUSH3 0x200 OR PUSH1 0x20 SHR JUMP JUMPDEST PUSH3 0x569 JUMPI PUSH1 0x40 MLOAD PUSH3 0x461BCD PUSH1 0xE5 SHL DUP2 MSTORE PUSH1 0x20 PUSH1 0x4 DUP3 ADD MSTORE PUSH1 0x18 PUSH1 0x24 DUP3 ADD MSTORE PUSH32 0x496C6C6567616C20436F6E747261637420416464726573730000000000000000 PUSH1 0x44 DUP3 ADD MSTORE PUSH1 0x64 ADD PUSH3 0x232 JUMP JUMPDEST PUSH1 0x0 DUP1 DUP6 PUSH1 0x1 PUSH1 0x1 PUSH1 0xA0 SHL SUB AND DUP6 PUSH1 0x40 MLOAD PUSH3 0x586 SWAP2 SWAP1 PUSH3 0x7C9 JUMP JUMPDEST PUSH1 0x0 PUSH1 0x40 MLOAD DUP1 DUP4 SUB DUP2 DUP6 GAS DELEGATECALL SWAP2 POP POP RETURNDATASIZE DUP1 PUSH1 0x0 DUP2 EQ PUSH3 0x5C3 JUMPI PUSH1 0x40 MLOAD SWAP2 POP PUSH1 0x1F NOT PUSH1 0x3F RETURNDATASIZE ADD AND DUP3 ADD PUSH1 0x40 MSTORE RETURNDATASIZE DUP3 MSTORE RETURNDATASIZE PUSH1 0x0 PUSH1 0x20 DUP5 ADD RETURNDATACOPY PUSH3 0x5C8 JUMP JUMPDEST PUSH1 0x60 SWAP2 POP JUMPDEST POP SWAP2 POP SWAP2 POP PUSH3 0x5E5 DUP3 DUP3 DUP7 PUSH3 0x5FE PUSH1 0x20 SHL PUSH3 0x20F OR PUSH1 0x20 SHR JUMP JUMPDEST SWAP7 SWAP6 POP POP POP POP POP POP JUMP JUMPDEST PUSH1 0x1 PUSH1 0x1 PUSH1 0xA0 SHL SUB AND EXTCODESIZE ISZERO ISZERO SWAP1 JUMP JUMPDEST PUSH1 0x60 DUP4 ISZERO PUSH3 0x60F JUMPI POP DUP2 PUSH3 0x385 JUMP JUMPDEST DUP3 MLOAD ISZERO PUSH3 0x620 JUMPI DUP3 MLOAD DUP1 DUP5 PUSH1 0x20 ADD REVERT JUMPDEST DUP2 PUSH1 0x40 MLOAD PUSH3 0x461BCD PUSH1 0xE5 SHL DUP2 MSTORE PUSH1 0x4 ADD PUSH3 0x232 SWAP2 SWAP1 PUSH3 0x7E7 JUMP JUMPDEST PUSH4 0x4E487B71 PUSH1 0xE0 SHL PUSH1 0x0 MSTORE PUSH1 0x41 PUSH1 0x4 MSTORE PUSH1 0x24 PUSH1 0x0 REVERT JUMPDEST PUSH1 0x0 JUMPDEST DUP4 DUP2 LT ISZERO PUSH3 0x66F JUMPI DUP2 DUP2 ADD MLOAD DUP4 DUP3 ADD MSTORE PUSH1 0x20 ADD PUSH3 0x655 JUMP JUMPDEST POP POP PUSH1 0x0 SWAP2 ADD MSTORE JUMP JUMPDEST PUSH1 0x0 DUP1 PUSH1 0x40 DUP4 DUP6 SUB SLT ISZERO PUSH3 0x68C JUMPI PUSH1 0x0 DUP1 REVERT JUMPDEST DUP3 MLOAD PUSH1 0x1 PUSH1 0x1 PUSH1 0xA0 SHL SUB DUP2 AND DUP2 EQ PUSH3 0x6A4 JUMPI PUSH1 0x0 DUP1 REVERT JUMPDEST PUSH1 0x20 DUP5 ADD MLOAD SWAP1 SWAP3 POP PUSH1 0x1 PUSH1 0x1 PUSH1 0x40 SHL SUB DUP1 DUP3 GT ISZERO PUSH3 0x6C2 JUMPI PUSH1 0x0 DUP1 REVERT JUMPDEST DUP2 DUP6 ADD SWAP2 POP DUP6 PUSH1 0x1F DUP4 ADD SLT PUSH3 0x6D7 JUMPI PUSH1 0x0 DUP1 REVERT JUMPDEST DUP2 MLOAD DUP2 DUP2 GT ISZERO PUSH3 0x6EC JUMPI PUSH3 0x6EC PUSH3 0x63C JUMP JUMPDEST PUSH1 0x40 MLOAD PUSH1 0x1F DUP3 ADD PUSH1 0x1F NOT SWAP1 DUP2 AND PUSH1 0x3F ADD AND DUP2 ADD SWAP1 DUP4 DUP3 GT DUP2 DUP4 LT OR ISZERO PUSH3 0x717 JUMPI PUSH3 0x717 PUSH3 0x63C JUMP JUMPDEST DUP2 PUSH1 0x40 MSTORE DUP3 DUP2 MSTORE DUP9 PUSH1 0x20 DUP5 DUP8 ADD ADD GT ISZERO PUSH3 0x731 JUMPI PUSH1 0x0 DUP1 REVERT JUMPDEST PUSH3 0x744 DUP4 PUSH1 0x20 DUP4 ADD PUSH1 0x20 DUP9 ADD PUSH3 0x652 JUMP JUMPDEST DUP1 SWAP6 POP POP POP POP POP POP SWAP3 POP SWAP3 SWAP1 POP JUMP JUMPDEST DUP2 DUP2 SUB DUP2 DUP2 GT ISZERO PUSH3 0x4C4 JUMPI PUSH4 0x4E487B71 PUSH1 0xE0 SHL PUSH1 0x0 MSTORE PUSH1 0x11 PUSH1 0x4 MSTORE PUSH1 0x24 PUSH1 0x0 REVERT JUMPDEST PUSH4 0x4E487B71 PUSH1 0xE0 SHL PUSH1 0x0 MSTORE PUSH1 0x1 PUSH1 0x4 MSTORE PUSH1 0x24 PUSH1 0x0 REVERT JUMPDEST PUSH1 0x0 PUSH1 0x20 DUP3 DUP5 SUB SLT ISZERO PUSH3 0x79E JUMPI PUSH1 0x0 DUP1 REVERT JUMPDEST POP MLOAD SWAP2 SWAP1 POP JUMP JUMPDEST PUSH1 0x0 PUSH1 0x20 DUP3 DUP5 SUB SLT ISZERO PUSH3 0x7B8 JUMPI PUSH1 0x0 DUP1 REVERT JUMPDEST DUP2 MLOAD DUP1 ISZERO ISZERO DUP2 EQ PUSH3 0x385 JUMPI PUSH1 0x0 DUP1 REVERT JUMPDEST PUSH1 0x0 DUP3 MLOAD PUSH3 0x7DD DUP2 DUP5 PUSH1 0x20 DUP8 ADD PUSH3 0x652 JUMP JUMPDEST SWAP2 SWAP1 SWAP2 ADD SWAP3 SWAP2 POP POP JUMP JUMPDEST PUSH1 0x20 DUP2 MSTORE PUSH1 0x0 DUP3 MLOAD DUP1 PUSH1 0x20 DUP5 ADD MSTORE PUSH3 0x808 DUP2 PUSH1 0x40 DUP6 ADD PUSH1 0x20 DUP8 ADD PUSH3 0x652 JUMP JUMPDEST PUSH1 0x1F ADD PUSH1 0x1F NOT AND SWAP2 SWAP1 SWAP2 ADD PUSH1 0x40 ADD SWAP3 SWAP2 POP POP JUMP JUMPDEST PUSH1 0x80 MLOAD PUSH2 0x3EC PUSH3 0x835 PUSH1 0x0 CODECOPY PUSH1 0x0 POP POP PUSH2 0x3EC PUSH1 0x0 RETURN INVALID PUSH1 0x80 PUSH1 0x40 MSTORE PUSH1 0x4 CALLDATASIZE LT PUSH2 0x43 JUMPI PUSH1 0x0 CALLDATALOAD PUSH1 0xE0 SHR DUP1 PUSH4 0x34109DE2 EQ PUSH2 0x5A JUMPI DUP1 PUSH4 0x64D4C819 EQ PUSH2 0xA0 JUMPI DUP1 PUSH4 0xF0B15DEF EQ PUSH2 0xD4 JUMPI DUP1 PUSH4 0xF33B6D48 EQ PUSH2 0x108 JUMPI PUSH2 0x52 JUMP JUMPDEST CALLDATASIZE PUSH2 0x52 JUMPI PUSH2 0x50 PUSH2 0x13C JUMP JUMPDEST STOP JUMPDEST PUSH2 0x50 PUSH2 0x13C JUMP JUMPDEST CALLVALUE DUP1 ISZERO PUSH2 0x66 JUMPI PUSH1 0x0 DUP1 REVERT JUMPDEST POP PUSH2 0x8E PUSH32 0x7AABE2571874F2A330EA11C8972D9CC3792D973EFC6B36E3E29005861A344188 DUP2 JUMP JUMPDEST PUSH1 0x40 MLOAD SWAP1 DUP2 MSTORE PUSH1 0x20 ADD PUSH1 0x40 MLOAD DUP1 SWAP2 SUB SWAP1 RETURN JUMPDEST CALLVALUE DUP1 ISZERO PUSH2 0xAC JUMPI PUSH1 0x0 DUP1 REVERT JUMPDEST POP PUSH2 0x8E PUSH32 0x8B73C3C69BB8FE3D512ECC4CF759CC79239F7B179B0FFACAA9A75D522B39400F DUP2 JUMP JUMPDEST CALLVALUE DUP1 ISZERO PUSH2 0xE0 JUMPI PUSH1 0x0 DUP1 REVERT JUMPDEST POP PUSH2 0x8E PUSH32 0xFC434588684348DD50856B075C47BED14245C1030AA04C32955AF55499814627 DUP2 JUMP JUMPDEST CALLVALUE DUP1 ISZERO PUSH2 0x114 JUMPI PUSH1 0x0 DUP1 REVERT JUMPDEST POP PUSH2 0x8E PUSH32 0x31238DA5536EF05686D34CCF0DE000A4926293566B3711F6E73963B73AD026FE DUP2 JUMP JUMPDEST PUSH1 0x0 DUP1 CALLDATALOAD PUSH1 0x1 PUSH1 0x1 PUSH1 0xE0 SHL SUB NOT AND DUP2 MSTORE PUSH1 0x48 PUSH1 0x20 SWAP1 DUP2 MSTORE PUSH1 0x40 DUP1 DUP4 KECCAK256 SLOAD PUSH1 0x1 PUSH1 0x1 PUSH1 0xA0 SHL SUB SWAP1 DUP2 AND DUP1 DUP6 MSTORE PUSH1 0x49 SWAP1 SWAP4 MSTORE SWAP3 KECCAK256 SLOAD SWAP1 SWAP2 AND DUP2 PUSH2 0x1B4 JUMPI PUSH2 0x1B0 PUSH2 0x1AB PUSH32 0x360894A13BA1A3210667C828492DB98DCA3E2076CC3735A920A3CA505D382BBC SLOAD PUSH1 0x1 PUSH1 0x1 PUSH1 0xA0 SHL SUB AND SWAP1 JUMP JUMPDEST PUSH2 0x251 JUMP JUMPDEST POP POP JUMP JUMPDEST PUSH2 0x1B0 DUP2 PUSH2 0x251 JUMP JUMPDEST SWAP1 JUMP JUMPDEST PUSH1 0x60 PUSH2 0x1F9 DUP4 DUP4 PUSH1 0x40 MLOAD DUP1 PUSH1 0x40 ADD PUSH1 0x40 MSTORE DUP1 PUSH1 0x14 DUP2 MSTORE PUSH1 0x20 ADD PUSH20 0x11195B1959D85D194810D85B1B0811985A5B1959 PUSH1 0x62 SHL DUP2 MSTORE POP PUSH2 0x275 JUMP JUMPDEST SWAP4 SWAP3 POP POP POP JUMP JUMPDEST PUSH1 0x1 PUSH1 0x1 PUSH1 0xA0 SHL SUB AND EXTCODESIZE ISZERO ISZERO SWAP1 JUMP JUMPDEST PUSH1 0x60 DUP4 ISZERO PUSH2 0x21E JUMPI POP DUP2 PUSH2 0x1F9 JUMP JUMPDEST DUP3 MLOAD ISZERO PUSH2 0x22E JUMPI DUP3 MLOAD DUP1 DUP5 PUSH1 0x20 ADD REVERT JUMPDEST DUP2 PUSH1 0x40 MLOAD PUSH3 0x461BCD PUSH1 0xE5 SHL DUP2 MSTORE PUSH1 0x4 ADD PUSH2 0x248 SWAP2 SWAP1 PUSH2 0x367 JUMP JUMPDEST PUSH1 0x40 MLOAD DUP1 SWAP2 SUB SWAP1 REVERT JUMPDEST CALLDATASIZE PUSH1 0x0 DUP1 CALLDATACOPY PUSH1 0x0 DUP1 CALLDATASIZE PUSH1 0x0 DUP5 GAS DELEGATECALL RETURNDATASIZE PUSH1 0x0 DUP1 RETURNDATACOPY DUP1 DUP1 ISZERO PUSH2 0x270 JUMPI RETURNDATASIZE PUSH1 0x0 RETURN JUMPDEST RETURNDATASIZE PUSH1 0x0 REVERT JUMPDEST PUSH1 0x60 PUSH1 0x1 PUSH1 0x1 PUSH1 0xA0 SHL SUB DUP5 AND EXTCODESIZE PUSH2 0x2CE JUMPI PUSH1 0x40 MLOAD PUSH3 0x461BCD PUSH1 0xE5 SHL DUP2 MSTORE PUSH1 0x20 PUSH1 0x4 DUP3 ADD MSTORE PUSH1 0x18 PUSH1 0x24 DUP3 ADD MSTORE PUSH32 0x496C6C6567616C20436F6E747261637420416464726573730000000000000000 PUSH1 0x44 DUP3 ADD MSTORE PUSH1 0x64 ADD PUSH2 0x248 JUMP JUMPDEST PUSH1 0x0 DUP1 DUP6 PUSH1 0x1 PUSH1 0x1 PUSH1 0xA0 SHL SUB AND DUP6 PUSH1 0x40 MLOAD PUSH2 0x2E9 SWAP2 SWAP1 PUSH2 0x39A JUMP JUMPDEST PUSH1 0x0 PUSH1 0x40 MLOAD DUP1 DUP4 SUB DUP2 DUP6 GAS DELEGATECALL SWAP2 POP POP RETURNDATASIZE DUP1 PUSH1 0x0 DUP2 EQ PUSH2 0x324 JUMPI PUSH1 0x40 MLOAD SWAP2 POP PUSH1 0x1F NOT PUSH1 0x3F RETURNDATASIZE ADD AND DUP3 ADD PUSH1 0x40 MSTORE RETURNDATASIZE DUP3 MSTORE RETURNDATASIZE PUSH1 0x0 PUSH1 0x20 DUP5 ADD RETURNDATACOPY PUSH2 0x329 JUMP JUMPDEST PUSH1 0x60 SWAP2 POP JUMPDEST POP SWAP2 POP SWAP2 POP PUSH2 0x339 DUP3 DUP3 DUP7 PUSH2 0x20F JUMP JUMPDEST SWAP7 SWAP6 POP POP POP POP POP POP JUMP JUMPDEST PUSH1 0x0 JUMPDEST DUP4 DUP2 LT ISZERO PUSH2 0x35E JUMPI DUP2 DUP2 ADD MLOAD DUP4 DUP3 ADD MSTORE PUSH1 0x20 ADD PUSH2 0x346 JUMP JUMPDEST POP POP PUSH1 0x0 SWAP2 ADD MSTORE JUMP JUMPDEST PUSH1 0x20 DUP2 MSTORE PUSH1 0x0 DUP3 MLOAD DUP1 PUSH1 0x20 DUP5 ADD MSTORE PUSH2 0x386 DUP2 PUSH1 0x40 DUP6 ADD PUSH1 0x20 DUP8 ADD PUSH2 0x343 JUMP JUMPDEST PUSH1 0x1F ADD PUSH1 0x1F NOT AND SWAP2 SWAP1 SWAP2 ADD PUSH1 0x40 ADD SWAP3 SWAP2 POP POP JUMP JUMPDEST PUSH1 0x0 DUP3 MLOAD PUSH2 0x3AC DUP2 DUP5 PUSH1 0x20 DUP8 ADD PUSH2 0x343 JUMP JUMPDEST SWAP2 SWAP1 SWAP2 ADD SWAP3 SWAP2 POP POP JUMP INVALID LOG2 PUSH5 0x6970667358 0x22 SLT KECCAK256 PUSH9 0xB1D6904D6C1AEA94A3 0xE7 MULMOD SGT 0xCB 0xB2 PUSH5 0xE390906D52 0xCE LOG3 CHAINID 0xB0 RETURNDATACOPY BASEFEE SWAP10 0xCB STOP PUSH7 0x5464736F6C6343 STOP ADDMOD GT STOP CALLER 0xB5 BALANCE 0x27 PUSH9 0x4A568B3173AE13B9F8 0xA6 ADD PUSH15 0x243E63B6E8EE1178D6A717850B5D61 SUB CALLDATASIZE ADDMOD SWAP5 LOG1 EXTCODESIZE LOG1 LOG3 0x21 MOD PUSH8 0xC828492DB98DCA3E KECCAK256 PUSH23 0xCC3735A920A3CA505D382BBC0000000000000000000000 "
    },
    "gasEstimates": {
      "creation": {
        "codeDepositCost": "200800",
        "executionCost": "infinite",
        "totalCost": "infinite"
      },
      "external": {
        "": "infinite",
        "CTX_MESSAGE_TYPEHASH()": "161",
        "FUNCTION_MESSAGE_TYPEHASH()": "227",
        "PREDICT_CTX_MESSAGE_TYPEHASH()": "205",
        "TYPE_HASH()": "183"
      },
      "internal": {
        "_fallback()": "infinite",
        "_implementation()": "infinite",
        "_setImplementation(address)": "infinite",
        "_upgradeTo(address)": "infinite",
        "_upgradeToAndCall(address,bytes memory,bool)": "infinite",
        "_upgradeToAndCallUUPS(address,bytes memory,bool)": "infinite"
      }
    },
    "methodIdentifiers": {
      "CTX_MESSAGE_TYPEHASH()": "34109de2",
      "FUNCTION_MESSAGE_TYPEHASH()": "f33b6d48",
      "PREDICT_CTX_MESSAGE_TYPEHASH()": "f0b15def",
      "TYPE_HASH()": "64d4c819"
    }
  },
  "storageLayout": {
    "storage": [
      {
        "astId": 43592,
        "contract": "src/contracts/acl/ACLProxy.sol:ACLProxy",
        "label": "_contractName",
        "offset": 0,
        "slot": "0",
        "type": "t_string_storage"
      },
      {
        "astId": 43594,
        "contract": "src/contracts/acl/ACLProxy.sol:ACLProxy",
        "label": "_contractVersion",
        "offset": 0,
        "slot": "1",
        "type": "t_string_storage"
      },
      {
        "astId": 43596,
        "contract": "src/contracts/acl/ACLProxy.sol:ACLProxy",
        "label": "_accessControlManager",
        "offset": 0,
        "slot": "2",
        "type": "t_address"
      },
      {
        "astId": 43599,
        "contract": "src/contracts/acl/ACLProxy.sol:ACLProxy",
        "label": "_sstat",
        "offset": 20,
        "slot": "2",
        "type": "t_enum(ProxySafeModeStatus)43615"
      },
      {
        "astId": 43602,
        "contract": "src/contracts/acl/ACLProxy.sol:ACLProxy",
        "label": "_ustat",
        "offset": 21,
        "slot": "2",
        "type": "t_enum(ProxyUpgradabilityStatus)43619"
      },
      {
        "astId": 43607,
        "contract": "src/contracts/acl/ACLProxy.sol:ACLProxy",
        "label": "__reserved",
        "offset": 0,
        "slot": "3",
        "type": "t_array(t_uint256)64_storage"
      },
      {
        "astId": 11452,
        "contract": "src/contracts/acl/ACLProxy.sol:ACLProxy",
        "label": "_firstInit",
        "offset": 0,
        "slot": "67",
        "type": "t_bool"
      },
      {
        "astId": 11455,
        "contract": "src/contracts/acl/ACLProxy.sol:ACLProxy",
        "label": "_data",
        "offset": 0,
        "slot": "68",
        "type": "t_struct(DataCollection)11450_storage"
      }
    ],
    "types": {
      "t_address": {
        "encoding": "inplace",
        "label": "address",
        "numberOfBytes": "20"
      },
      "t_array(t_bytes32)dyn_storage": {
        "base": "t_bytes32",
        "encoding": "dynamic_array",
        "label": "bytes32[]",
        "numberOfBytes": "32"
      },
      "t_array(t_uint256)64_storage": {
        "base": "t_uint256",
        "encoding": "inplace",
        "label": "uint256[64]",
        "numberOfBytes": "2048"
      },
      "t_bool": {
        "encoding": "inplace",
        "label": "bool",
        "numberOfBytes": "1"
      },
      "t_bytes32": {
        "encoding": "inplace",
        "label": "bytes32",
        "numberOfBytes": "32"
      },
      "t_bytes4": {
        "encoding": "inplace",
        "label": "bytes4",
        "numberOfBytes": "4"
      },
      "t_enum(ActivityStatus)12972": {
        "encoding": "inplace",
        "label": "enum IACLCommons.ActivityStatus",
        "numberOfBytes": "1"
      },
      "t_enum(AgentType)12966": {
        "encoding": "inplace",
        "label": "enum IACLCommons.AgentType",
        "numberOfBytes": "1"
      },
      "t_enum(AlterabilityStatus)12977": {
        "encoding": "inplace",
        "label": "enum IACLCommons.AlterabilityStatus",
        "numberOfBytes": "1"
      },
      "t_enum(PolicyType)12995": {
        "encoding": "inplace",
        "label": "enum IACLCommons.PolicyType",
        "numberOfBytes": "1"
      },
      "t_enum(ProxySafeModeStatus)43615": {
        "encoding": "inplace",
        "label": "enum IBaseProxy.ProxySafeModeStatus",
        "numberOfBytes": "1"
      },
      "t_enum(ProxyUpgradabilityStatus)43619": {
        "encoding": "inplace",
        "label": "enum IBaseProxy.ProxyUpgradabilityStatus",
        "numberOfBytes": "1"
      },
      "t_enum(ScopeType)12984": {
        "encoding": "inplace",
        "label": "enum IACLCommons.ScopeType",
        "numberOfBytes": "1"
      },
      "t_mapping(t_address,t_struct(FacetEntity)13161_storage)": {
        "encoding": "mapping",
        "key": "t_address",
        "label": "mapping(address => struct IACLCommons.FacetEntity)",
        "numberOfBytes": "32",
        "value": "t_struct(FacetEntity)13161_storage"
      },
      "t_mapping(t_bytes32,t_bytes32)": {
        "encoding": "mapping",
        "key": "t_bytes32",
        "label": "mapping(bytes32 => bytes32)",
        "numberOfBytes": "32",
        "value": "t_bytes32"
      },
      "t_mapping(t_bytes32,t_struct(BaseAgent)13013_storage)": {
        "encoding": "mapping",
        "key": "t_bytes32",
        "label": "mapping(bytes32 => struct IACLCommons.BaseAgent)",
        "numberOfBytes": "32",
        "value": "t_struct(BaseAgent)13013_storage"
      },
      "t_mapping(t_bytes32,t_struct(BaseScope)13031_storage)": {
        "encoding": "mapping",
        "key": "t_bytes32",
        "label": "mapping(bytes32 => struct IACLCommons.BaseScope)",
        "numberOfBytes": "32",
        "value": "t_struct(BaseScope)13031_storage"
      },
      "t_mapping(t_bytes32,t_struct(PolicyEntity)13054_storage)": {
        "encoding": "mapping",
        "key": "t_bytes32",
        "label": "mapping(bytes32 => struct IACLCommons.PolicyEntity)",
        "numberOfBytes": "32",
        "value": "t_struct(PolicyEntity)13054_storage"
      },
      "t_mapping(t_bytes32,t_uint256)": {
        "encoding": "mapping",
        "key": "t_bytes32",
        "label": "mapping(bytes32 => uint256)",
        "numberOfBytes": "32",
        "value": "t_uint256"
      },
      "t_mapping(t_bytes4,t_address)": {
        "encoding": "mapping",
        "key": "t_bytes4",
        "label": "mapping(bytes4 => address)",
        "numberOfBytes": "32",
        "value": "t_address"
      },
      "t_string_storage": {
        "encoding": "bytes",
        "label": "string",
        "numberOfBytes": "32"
      },
      "t_struct(AddressSet)42130_storage": {
        "encoding": "inplace",
        "label": "struct LEnumerableSet.AddressSet",
        "members": [
          {
            "astId": 42129,
            "contract": "src/contracts/acl/ACLProxy.sol:ACLProxy",
            "label": "_inner",
            "offset": 0,
            "slot": "0",
            "type": "t_struct(Set)41829_storage"
          }
        ],
        "numberOfBytes": "64"
      },
      "t_struct(BaseAgent)13013_storage": {
        "encoding": "inplace",
        "label": "struct IACLCommons.BaseAgent",
        "members": [
          {
            "astId": 12997,
            "contract": "src/contracts/acl/ACLProxy.sol:ACLProxy",
            "label": "adminId",
            "offset": 0,
            "slot": "0",
            "type": "t_bytes32"
          },
          {
            "astId": 13000,
            "contract": "src/contracts/acl/ACLProxy.sol:ACLProxy",
            "label": "atype",
            "offset": 0,
            "slot": "1",
            "type": "t_enum(AgentType)12966"
          },
          {
            "astId": 13003,
            "contract": "src/contracts/acl/ACLProxy.sol:ACLProxy",
            "label": "acstat",
            "offset": 1,
            "slot": "1",
            "type": "t_enum(ActivityStatus)12972"
          },
          {
            "astId": 13006,
            "contract": "src/contracts/acl/ACLProxy.sol:ACLProxy",
            "label": "alstat",
            "offset": 2,
            "slot": "1",
            "type": "t_enum(AlterabilityStatus)12977"
          },
          {
            "astId": 13008,
            "contract": "src/contracts/acl/ACLProxy.sol:ACLProxy",
            "label": "referredByScope",
            "offset": 3,
            "slot": "1",
            "type": "t_uint16"
          },
          {
            "astId": 13010,
            "contract": "src/contracts/acl/ACLProxy.sol:ACLProxy",
            "label": "referredByPolicy",
            "offset": 5,
            "slot": "1",
            "type": "t_uint16"
          },
          {
            "astId": 13012,
            "contract": "src/contracts/acl/ACLProxy.sol:ACLProxy",
            "label": "scopeLimit",
            "offset": 7,
            "slot": "1",
            "type": "t_uint16"
          }
        ],
        "numberOfBytes": "64"
      },
      "t_struct(BaseScope)13031_storage": {
        "encoding": "inplace",
        "label": "struct IACLCommons.BaseScope",
        "members": [
          {
            "astId": 13015,
            "contract": "src/contracts/acl/ACLProxy.sol:ACLProxy",
            "label": "adminId",
            "offset": 0,
            "slot": "0",
            "type": "t_bytes32"
          },
          {
            "astId": 13018,
            "contract": "src/contracts/acl/ACLProxy.sol:ACLProxy",
            "label": "stype",
            "offset": 0,
            "slot": "1",
            "type": "t_enum(ScopeType)12984"
          },
          {
            "astId": 13021,
            "contract": "src/contracts/acl/ACLProxy.sol:ACLProxy",
            "label": "acstat",
            "offset": 1,
            "slot": "1",
            "type": "t_enum(ActivityStatus)12972"
          },
          {
            "astId": 13024,
            "contract": "src/contracts/acl/ACLProxy.sol:ACLProxy",
            "label": "alstat",
            "offset": 2,
            "slot": "1",
            "type": "t_enum(AlterabilityStatus)12977"
          },
          {
            "astId": 13026,
            "contract": "src/contracts/acl/ACLProxy.sol:ACLProxy",
            "label": "referredByAgent",
            "offset": 3,
            "slot": "1",
            "type": "t_uint16"
          },
          {
            "astId": 13028,
            "contract": "src/contracts/acl/ACLProxy.sol:ACLProxy",
            "label": "referredByPolicy",
            "offset": 5,
            "slot": "1",
            "type": "t_uint16"
          },
          {
            "astId": 13030,
            "contract": "src/contracts/acl/ACLProxy.sol:ACLProxy",
            "label": "agentLimit",
            "offset": 7,
            "slot": "1",
            "type": "t_uint16"
          }
        ],
        "numberOfBytes": "64"
      },
      "t_struct(Bytes32Set)42023_storage": {
        "encoding": "inplace",
        "label": "struct LEnumerableSet.Bytes32Set",
        "members": [
          {
            "astId": 42022,
            "contract": "src/contracts/acl/ACLProxy.sol:ACLProxy",
            "label": "_inner",
            "offset": 0,
            "slot": "0",
            "type": "t_struct(Set)41829_storage"
          }
        ],
        "numberOfBytes": "64"
      },
      "t_struct(DataCollection)11450_storage": {
        "encoding": "inplace",
        "label": "struct ACLStorage.DataCollection",
        "members": [
          {
            "astId": 11423,
            "contract": "src/contracts/acl/ACLProxy.sol:ACLProxy",
            "label": "agents",
            "offset": 0,
            "slot": "0",
            "type": "t_mapping(t_bytes32,t_struct(BaseAgent)13013_storage)"
          },
          {
            "astId": 11428,
            "contract": "src/contracts/acl/ACLProxy.sol:ACLProxy",
            "label": "scopes",
            "offset": 0,
            "slot": "1",
            "type": "t_mapping(t_bytes32,t_struct(BaseScope)13031_storage)"
          },
          {
            "astId": 11433,
            "contract": "src/contracts/acl/ACLProxy.sol:ACLProxy",
            "label": "policies",
            "offset": 0,
            "slot": "2",
            "type": "t_mapping(t_bytes32,t_struct(PolicyEntity)13054_storage)"
          },
          {
            "astId": 11437,
            "contract": "src/contracts/acl/ACLProxy.sol:ACLProxy",
            "label": "rolePolicyMap",
            "offset": 0,
            "slot": "3",
            "type": "t_mapping(t_bytes32,t_bytes32)"
          },
          {
            "astId": 11441,
            "contract": "src/contracts/acl/ACLProxy.sol:ACLProxy",
            "label": "selectors",
            "offset": 0,
            "slot": "4",
            "type": "t_mapping(t_bytes4,t_address)"
          },
          {
            "astId": 11446,
            "contract": "src/contracts/acl/ACLProxy.sol:ACLProxy",
            "label": "facets",
            "offset": 0,
            "slot": "5",
            "type": "t_mapping(t_address,t_struct(FacetEntity)13161_storage)"
          },
          {
            "astId": 11449,
            "contract": "src/contracts/acl/ACLProxy.sol:ACLProxy",
            "label": "facetSet",
            "offset": 0,
            "slot": "6",
            "type": "t_struct(AddressSet)42130_storage"
          }
        ],
        "numberOfBytes": "256"
      },
      "t_struct(FacetEntity)13161_storage": {
        "encoding": "inplace",
        "label": "struct IACLCommons.FacetEntity",
        "members": [
          {
            "astId": 13158,
            "contract": "src/contracts/acl/ACLProxy.sol:ACLProxy",
            "label": "subjectId",
            "offset": 0,
            "slot": "0",
            "type": "t_address"
          },
          {
            "astId": 13160,
            "contract": "src/contracts/acl/ACLProxy.sol:ACLProxy",
            "label": "interfaceId",
            "offset": 20,
            "slot": "0",
            "type": "t_bytes4"
          }
        ],
        "numberOfBytes": "32"
      },
      "t_struct(PolicyEntity)13054_storage": {
        "encoding": "inplace",
        "label": "struct IACLCommons.PolicyEntity",
        "members": [
          {
            "astId": 13033,
            "contract": "src/contracts/acl/ACLProxy.sol:ACLProxy",
            "label": "adminId",
            "offset": 0,
            "slot": "0",
            "type": "t_bytes32"
          },
          {
            "astId": 13035,
            "contract": "src/contracts/acl/ACLProxy.sol:ACLProxy",
            "label": "scopeId",
            "offset": 0,
            "slot": "1",
            "type": "t_bytes32"
          },
          {
            "astId": 13037,
            "contract": "src/contracts/acl/ACLProxy.sol:ACLProxy",
            "label": "name",
            "offset": 0,
            "slot": "2",
            "type": "t_string_storage"
          },
          {
            "astId": 13039,
            "contract": "src/contracts/acl/ACLProxy.sol:ACLProxy",
            "label": "roleLimit",
            "offset": 0,
            "slot": "3",
            "type": "t_uint32"
          },
          {
            "astId": 13041,
            "contract": "src/contracts/acl/ACLProxy.sol:ACLProxy",
            "label": "policyCode",
            "offset": 4,
            "slot": "3",
            "type": "t_uint8"
          },
          {
            "astId": 13044,
            "contract": "src/contracts/acl/ACLProxy.sol:ACLProxy",
            "label": "ptype",
            "offset": 5,
            "slot": "3",
            "type": "t_enum(PolicyType)12995"
          },
          {
            "astId": 13047,
            "contract": "src/contracts/acl/ACLProxy.sol:ACLProxy",
            "label": "acstat",
            "offset": 6,
            "slot": "3",
            "type": "t_enum(ActivityStatus)12972"
          },
          {
            "astId": 13050,
            "contract": "src/contracts/acl/ACLProxy.sol:ACLProxy",
            "label": "alstat",
            "offset": 7,
            "slot": "3",
            "type": "t_enum(AlterabilityStatus)12977"
          },
          {
            "astId": 13053,
            "contract": "src/contracts/acl/ACLProxy.sol:ACLProxy",
            "label": "roles",
            "offset": 0,
            "slot": "4",
            "type": "t_struct(Bytes32Set)42023_storage"
          }
        ],
        "numberOfBytes": "192"
      },
      "t_struct(Set)41829_storage": {
        "encoding": "inplace",
        "label": "struct LEnumerableSet.Set",
        "members": [
          {
            "astId": 41824,
            "contract": "src/contracts/acl/ACLProxy.sol:ACLProxy",
            "label": "_values",
            "offset": 0,
            "slot": "0",
            "type": "t_array(t_bytes32)dyn_storage"
          },
          {
            "astId": 41828,
            "contract": "src/contracts/acl/ACLProxy.sol:ACLProxy",
            "label": "_indexes",
            "offset": 0,
            "slot": "1",
            "type": "t_mapping(t_bytes32,t_uint256)"
          }
        ],
        "numberOfBytes": "64"
      },
      "t_uint16": {
        "encoding": "inplace",
        "label": "uint16",
        "numberOfBytes": "2"
      },
      "t_uint256": {
        "encoding": "inplace",
        "label": "uint256",
        "numberOfBytes": "32"
      },
      "t_uint32": {
        "encoding": "inplace",
        "label": "uint32",
        "numberOfBytes": "4"
      },
      "t_uint8": {
        "encoding": "inplace",
        "label": "uint8",
        "numberOfBytes": "1"
      }
    }
  },
  "userdoc": {
    "kind": "user",
    "methods": {},
    "version": 1
  }
}